
Source Code
000001:                                                                                                 #  Copyright:    Public domain.
000002:                                                                                                 #  Filename:     SERVICER207.agc
000003:                                                                                                 #  Purpose:      Part of the source code for Comanche, build 055. It
000004:                                                                                                 #                is part of the source code for the Command Module's
000005:                                                                                                 #                (CM) Apollo Guidance Computer (AGC), Apollo 11.
000006:                                                                                                 #  Assembler:    yaYUL
000007:                                                                                                 #  Reference:    pp. 819-836
000008:                                                                                                 #  Contact:      Ron Burkey <info@sandroid.org>
000009:                                                                                                 #  Website:      http://www.ibiblio.org/apollo.
000010:                                                                                                 #  Mod history:  2009-05-12 RSB   Adapted from Colossus249 file of the same
000011:                                                                                                 #                                 name and Comanche 055 page images.
000012:
000013:                                                                                                 #  The contents of the "Comanche055" files, in general, are transcribed
000014:                                                                                                 #  from scanned documents.
000015:
000016:                                                                                                 #        Assemble revision 055 of AGC program Comanche by NASA
000017:                                                                                                 #        2021113-051.  April 1, 1969.
000018:
000019:                                                                                                 #        This AGC program shall also be referred to as Colossus 2A
000020:
000021:                                                                                                 #        Prepared by
000022:                                                                                                 #                        Massachussets Institute of Technology
000023:                                                                                                 #                        75 Cambridge Parkway
000024:                                                                                                 #                        Cambridge, Massachusetts
000025:
000026:                                                                                                 #        under NASA contract NAS 9-4065.
000027:
000028:                                                                                                 #  Refer directly to the online document mentioned above for further
000029:                                                                                                 #  information.  Please report any errors to info@sandroid.org.
000030:
000031:                                                                                                 #  Page 819
000032:                                                                                                 #  SERVICER207
000033:
000034:                                                                                                 #  PROGRAM NAME:  PREREAD, READACCS, SERVICER, AVERAGE G.
000035:                                                                                                 #  MOD NO. 00 BY M. HAMILTON      DEC. 12, 1966
000036:
000037:                                                                                                 #  FUNCTIONAL DESCRIPTION
000038:
000039:                                                                                                 #  THE ROUTINES DESCRIBED BELOW ARE USED TO CALCULATE VALUES OF RN, VN, AND GDT/2 DURING ACCELERATED FLIGHT.
000040:                                                                                                 #  THE SEVERAL ROUTINES COMPRISE A PACKAGE AND ARE NOT MEANT TO BE USED AS SEPARATE SUBROUTINES.
000041:
000042:                                                                                                 #  GENERAL REFERENCES TO  SERVICER  OR  AVERAGE G  ARE UNDERSTOOD TO REFER TO THE ENTIRE SET OF ROUTINES INCLUDING
000043:                                                                                                 #  RRADACCS, SERVICER, AVERAGE G, INTEREAD, SMOOTHER, AND ANY ADDITIONAL ROUTINES ATTACHED AT AVGEXIT (SEE BELOW).
000044:
000045:                                                                                                 #  PROGRAMS INITIATING SERVICER ARE REQUIRED TO MAKE A WAITLIST CALL FOR PREREAD (OR, IF LIFTOFF, FOR BIBIBIAS)
000046:                                                                                                 #  AT 2 SECONDS BEFORE THE FIRST AVERAGE G UPDATE IN ORDER TO INITIALIZE THE SEQUENCE, WHICH WILL RECUR EVERY
000047:                                                                                                 #  2 SECONDS FROM THAT TIME ON AS LONG AS AVEGFLAG REMAINS SET.
000048:
000049:                                                                                                 #  THE USE OF ERASABLE AVGEXIT ALLOWS VARIOUS ROUTINES TO BE PERFORMED AS PART OF THE NORMAL CYCLE (SEE
000050:                                                                                                 #  EXPLANATION OF AVGEXIT BELOW).
000051:
000052:                                                                                                 #  DESCRIPTIONS OF INDIVIDUAL ROUTINES FOLLOW.
000053:
000054:                                                                                                 #         PREREAD
000055:
000056:                                                                                                 #                 PREVIOUSLY EXTRAPOLATED VALUES COPIED FROM RN1, VN1, AND PIPTIME1 INTO RN, VN, AND PIPTIME.
000057:                                                                                                 #                 LASTBIAS JOB SCHEDULED.
000058:                                                                                                 #                 PIPS READ AND CLEARED VIA PIPASR SUBROUTINE.
000059:                                                                                                 #                 AVERAGE G FLAG SET ON.
000060:                                                                                                 #                 DRIFT FLAG SET OFF.
000061:                                                                                                 #                 V37 FLAG SET ON.
000062:                                                                                                 #                 INITIALIZATION OF       1) THRUST MONITOR (DVMON) -- DVCNTR SET TO ONE.
000063:                                                                                                 #                                         2) TOTAL ACCUMULATED DELV VALUE (DVTOTAL) -- SET TO ZERO.
000064:                                                                                                 #                                         3) AXIS VECTOR (AXIS) -- SET TO (.5,0,0).
000065:                                                                                                 #                 NORMLIZE JOB SCHEDULED.
000066:                                                                                                 #                 READACCS TASH CALLED IN 2 SECONDS.
000067:
000068:                                                                                                 #         NORMLIZE
000069:
000070:                                                                                                 #                 GDT/2 INITIALIZED VIA CALCGRAV ROUTINE.
000071:
000072:                                                                                                 #         READACCS
000073:
000074:                                                                                                 #                 IF ONMON FLAG SET QUIKREAD ROUTINE IS PERFORMED BEFORE PIPASR ZEROS THE PIPA REGISTERS, AND THE 1/2 SEC
000075:                                                                                                 #                 ONMONITOR LOOP IS INITIATED TO PROVIDE DOWNLINK INFORMATION DURING ENTRY.
000076:                                                                                                 #                 PIPS READ AND CLEARED BY PIPASR SUBROUTINE.
000077:                                                                                                 #                 IF CM/DSTBY IS ON, ENTRY VARIABLES INITIALIZED AND SETJTAG TASK CALLED.
000078:                                                                                                 #  Page 820
000079:
000080:                                                                                                 #         SERVICER207
000081:
000082:                                                                                                 #                 IF AVERAGEG FLAG ON     READACCS CALLED TO RECYCLE IN 2 SECONDS.
000083:                                                                                                 #                 IF AVERAGEG FLAG OFF    AVERAGE G EXIT (AVGEXIT) SET TO 2CADR AVGEND FOR FINAL PASS.
000084:                                                                                                 #                 SERVICER JOB SCHEDULED.
000085:                                                                                                 #                 TEST CONNECTOR OUTBIT TURNED ON.
000086:
000087:                                                                                                 #         ONMNITOR
000088:
000089:                                                                                                 #                 A SEQUENCE OF THREE PASSES THROUGH QUICREAD FOLLOWING A CALL TO READACCS WITH ONMONFLG SET AT 1/2
000090:                                                                                                 #                 SEC INTERVALS.  INTERVALS ARE COUNTED OUT BY PIPCTR, INITIALIZED AT 3 BY READACCS.
000091:
000092:                                                                                                 #         QUIKREAD
000093:
000094:                                                                                                 #                 READS CURRENT PIPS INTO X,Y,ZPIPBUF.  READS OLD X,Y,ZPIPBUF INTO X,Y,ZOLDBUF.  VALUES ARE SENT TO
000095:                                                                                                 #                 DOWNLIST DURING ENTRY.
000096:
000097:                                                                                                 #         SERVICER
000098:
000099:                                                                                                 #                 DELV VALUES CHECKED TO DETECT RUNAWAY PIP:
000100:                                                                                                 #                         IF BAD PIP      1) ALARM SENT.
000101:                                                                                                 #                                         2) COMPENSATION, DVTOTAL ACCUMULATION, AND DVMON BYPASSED.  CONTROL
000102:                                                                                                 #                                            TRANSFERRED TO AVERAGE G.
000103:                                                                                                 #                 PIPS COMPENSATED VIA 1/PIPA SUBROUTINE.
000104:                                                                                                 #                 DVTOTAL INCREMENTED BY ABSOLUTE VALUE OF DELV.
000105:                                                                                                 #                 THRUST MONITOR (DVMON) PERFORMED UNLESS IDLE FLAG IS ON.
000106:                                                                                                 #                 CONTROL TRANSFERRED TO AVERAGE Q.
000107:
000108:                                                                                                 #         DVMON
000109:
000110:                                                                                                 #                 THRESHOLD VALUD (PLACED IN DVTHRUSH BY USER) CHECKED AGAINST ABSOLUTE VALUE OF DELV TO CHECK
000111:                                                                                                 #                 THRUST LEVEL.
000112:
000113:                                                                                                 #                         IF THRUST       1) ULLAGE OFF ROUTINE PERFORMED.
000114:                                                                                                 #                                         2) STEERING FLAG TURNED ON AT FIRST DETECTION OF THRUST
000115:                                                                                                 #                                         3) CONTROL TRANSFERRED TO AVERAGE G.
000116:                                                                                                 #                         IF NO THRUST    1) ON FIRST PASS THROUGH MONITOR, CONTROL TRANSFERRED TO AVERAGE G.
000117:                                                                                                 #                                         2) ON SUBSEQUENT PASSES, CONTROL TRANSFERRED TO ENGINE FAIL ROUTINE IF THRUST
000118:                                                                                                 #                                            HAS FAILED FOR 3 CONSECUTIVE PASSES.
000119:
000120:                                                                                                 #         ENGINE FAIL
000121:
000122:                                                                                                 #                 ENGFAIL1 TASK CALLED IN 2.5 SECONDS.  THIS WILL RETURN CONTROL TO TIG-5 SO THAT THE IGNITION
000123:                                                                                                 #                         SEQUENCE MAY BE REPEATED.
000124:                                                                                                 #                 ENGINOF3 PERFORMED.
000125:                                                                                                 #                 DAP SET UP FOR RCS.
000126:                                                                                                 #
000127:                                                                                                 #         AVERAGE G
000128:                                                                                                 #  Page 821
000129:                                                                                                 #                 RN1, VN1, GDT1/2 CALCULATED VIA CALCRVG ROUTINE BY UPDATING RN, VN WITH DELV AND AN AVERAGED VALUE
000130:                                                                                                 #                         OF GDT/2
000131:                                                                                                 #                 RN1, VN1, GDT1/2, PIPTIME1 COPIED INTO RN, VN, GDT/2, PIPTIME FOR RESTART PROTECTION.
000132:                                                                                                 #                 CONTROL TRANSFERRED TO ADDRESS SPECIFIED BY USER (OR BY READACCS FOR LAST PASS) IN AVGEXIT.
000133:                                                                                                 #                 LAST PASS (AVGEND)      1) FREE FALL GYRO COMPENSATION SET UP.
000134:                                                                                                 #                                         2) DRIFT FLAG TURNED ON.
000135:                                                                                                 #                                         3) STATE VECTOR TRANSFERRED VIA AVETOMID ROUTINE.
000136:                                                                                                 #                                         4) ONMONITOR FLAG RESET.
000137:                                                                                                 #                                         5) V37 FLAG RESET.
000138:                                                                                                 #                                         6) TEST CONNECTOR OUTBIT RESET.
000139:                                                                                                 #                                         7) CONTROL TRANSFERRED TO CANV37 TO CONTINUE MM CHANGE ROUTINE (R00).
000140:
000141:                                                                                                 #  CALLING SEQUENCE
000142:
000143:                                                                                                 #         PREREAD ENTERED DIRECTLY FROM TIG-30 VIA POSTJUMP.
000144:                                                                                                 #         READACCS CALLED AS WAITLIST TASK.
000145:
000146:                                                                                                 #  SUBROUTINES CALLED
000147:
000148:                                                                                                 #         UTILITY ROUTINES:  PHASCHNG FLAGUP FLAGDOWN NOVAC FINDVAC WAITLIST ALARM NEWPHASE 2PHSCHNG
000149:
000150:                                                                                                 #         OTHER:  PIPASR 1/PIPA CALCGRAV CALCRVG AVETOMID
000151:
000152:                                                                                                 #  NORMAL EXIT MODES
000153:
000154:                                                                                                 #         ENDOFJOB        TASKOVER        CANV37
000155:
000156:                                                                                                 #         AVGEXIT:        THIS IS A DOUBLE PRECISION ERASABLE LOCATION BY WHICH CONTROL IS TRANSFERRED AT THE END
000157:                                                                                                 #                                 OF EACH CYCLE OF AVERAGE G.
000158:                                                                                                 #                         THE 2CADR OF A ROUTINE TO BE PERFORMED AT THAT TIME (E.G., STEERING EQUATIONS TO BE REPORTED
000159:                                                                                                 #                                 AT 2 SECOND INTERVALS) MAY BE SET BY THE USER INTO AVGEXIT.
000160:                                                                                                 #                         ALL SUCH ROUTINES SHOULD RETURN TO SERVEXIT, WHICH IS THE NORMAL EXIT FROM AVERAGE G.
000161:
000162:                                                                                                 #         SERVEXIT:       DOES A PHASE CHANGE FOR RESTART PROTECTION AND GOES TO ENDOFJOB.
000163:                                                                                                 #                         THE 2CADR OF SERVEXIT IS SET INTO AVGEXIT BY THE USERI F NO OTHER ROUTINE (SEE ABOVE).
000164:
000165:                                                                                                 #         AVGEND:         LAST PASS OF AVERAGE G EXITS HERE, BYPASSING SPECIAL ROUTINE (SEE ABOVE UNDER READACCS).
000166:                                                                                                 #                         FINAL EXIT IS TO CANV37.                                F AVERAGE G).
000167:
000168:                                                                                                 #  OUTPUT
000169:
000170:                                                                                                 #         DVTOTAL(2)  PIPTIME(2)  XPIPBUF(2)  YPIPBUF(2)  ZPIPBUF(2)
000171:                                                                                                 #         RN(6)           REFERENCE COORD.        SCALED AT 2(+29) M/CS
000172:                                                                                                 #         VN(6)           REFERENCE COORD.        SCALED AT 2(+7) M/CS
000173:                                                                                                 #         GDT/2(6)        REFERENCE COORD.        SCALED AT 2(+7) M/CS
000174:                                                                                                 #         DELV(6)         STABLE MEMB. COORD.     SCALED AT 2(+14)*5.85*10(-4) M/CS (KPIP1 USED TO GET DV/2 AT 2(+7))
000175:                                                                                                 #  Page 822
000176:                                                                                                 #         DELVREF(6)      REFERENCE COORD.        SCALED AT 2(+7) M/CS
000177:
000178:                                                                                                 #  INITIALIZATION
000179:
000180:                                                                                                 #         ONMONITOR FLAG SET BY ENTRY TO SHOW PIPBUF VALUES REQUIRED.
000181:                                                                                                 #         IDLE FLAG ON IF DVMON TO BE BYPASSED.
000182:                                                                                                 #         DVTHRUSH SET TO APPROPRIATE VALUE FOR DVMON.
000183:                                                                                                 #         AVGEXIT SET TO 2CADR OF ROUTINE, IF ANY, TO BE PERFORMED AFTER EACH CYCLE OF AVERAGE G.  IF NO ROUTINE
000184:                                                                                                 #                 TO BE DONE, AVGEXIT SET TO SERVEXIT.
000185:                                                                                                 #         VALUES NEEDED
000186:                                                                                                 #                 REFSMMAT
000187:                                                                                                 #                 UNITW:  FULL UNIT VECTOR, IN REFERENCE COORD., OF EARTH'S ROTATIONAL VECTOR
000188:                                                                                                 #                 RN1, VN1, PIPTIME1:  IN REFERENCE COORD., CONSISTENT WITH TIME OF EXECUTION OF PREREAD.
000189:
000190:                                                                                                 #  DEBRIS
000191:
000192:                                                                                                 #         CENTRALS        A, L, Q
000193:                                                                                                 #         OTHER           INTERNAL:  DVCNTR(1)  PIPAGE(1)  PIPCTR(1)  AVGEXIT(2)
000194:                                                                                                 #                         EXTERNAL:  ITEMP1(1)  ITEMP2(1)  RUPTREG1(1)  TEMX(1)  TEMY(1)  TEMZ(1)
000195:                                                                                                 #                         USEFUL DEBRIS
000196:                                                                                                 #                                 RN1(0)  VN1(0)  GDT1/0  PIPTIME1(2?)
000197:                                                                                                 #                                         THESE LOCATIONS USED AS BUFFER STORAGE FOR NEWLY CALCULATED VALUES OF RN, VN, GDT/2,
000198:                                                                                                 #                                         AND PIPTIME DURING PERFORMANCE OF SERVICER ROUTINES.
000199:                                                                                                 #                                 UNITR:  HALF UNIT VECTOR OF RN, REFERENCE COORD.
000200:                                                                                                 #                                 RMAG SCALED AT 2(+58) IN 36D.
000201:                                                                                                 #                                 RMAGSQ SCALED AT 2(+58) IN 34D.
000202:                                                                                                 #                                 (RE/RMAG)SQ IN 32D
000203:
000204: 27,2671                                          BANK     27
000205: 37,2000                                          SETLOC   SERVICES
000206: 37,2000                                          BANK
000207:
000208: 37,2701  E7,1431                                 EBANK=   DVCNTR
000209:                                                                                                 #  ********************* PREREAD ***************************************
000210:
000211: 37,2701                                          COUNT    37/SERV
000212:
000213: 37,2701           35073        PREREAD           CAF      PRIO21                                #  CALLER MUST PROTECT PREREAD
000214: 37,2702           05134                          TC       NOVAC
000215: 37,2703  E3,1460                                 EBANK=   NBDX
000216: 37,2703           03636 14063                    2CADR    LASTBIAS                              #  DO LAST GYRO COMPENSATION IN FREE FALL
000217:
000218:                                                                                                 #  CALL-TO AND LASTBIAS ITSELF ARE NOT
000219:                                                                                                 #         PROTECTED. REREADAC SETS 1/PIPADT
000220:                                                                                                 #         TO 2.0 SECS IN CASE LASTBIAS LOST.
000221:                                                                                                 #         (REDUNDANT IF LASTBIAS IS AOK.)
000222:                                                                                                 #  Page 823
000223: 37,2705           02722        REDO5.31          TC       PREREAD1
000224:
000225: 37,2706           37667                          CAF      PRIO32
000226: 37,2707           05147                          TC       FINDVAC                               #  SET UP NORMLIZE JOB REQUIRED PRIOR TO
000227: 37,2710  E7,1431                                 EBANK=   DVCNTR                                #  FIRST AVERAGE G PASS
000228: 37,2710           03236 76067                    2CADR    NORMLIZE
000229:
000230: 37,2712           35042                          CAF      2SECS
000231: 37,2713           05245                          TC       WAITLIST
000232: 37,2714  E6,1661                                 EBANK=   AOG
000233: 37,2714           02744 76066                    2CADR    READACCS
000234:
000235: 37,2716           45016                          CS       TWO
000236: 37,2717           04114                          TC       NEWPHASE
000237: 37,2720           00005                          OCT      5
000238:
000239: 37,2721           15324                          TCF      TASKOVER
000240:
000241: 37,2722           00006        PREREAD1          EXTEND
000242: 37,2723           22070                          QXCH     RUPTREG1
000243:
000244: 37,2724           03254                          TC       PIPASR                                #  CLEAR + READ PIPS LAST TIME IN FREE FALL
000245:
000246: 37,2725           35017                          CAF      ONE                                   #  SET UP PIPAGE FOR REREADAC IN CASE A
000247: 37,2726           55230                          TS       PIPAGE                                #         RESTART OCCURS BEFORE READACCS
000248:
000249: 37,2727           40075                          CS       FLAGWRD1                              #  SET AVEG FLAG
000250: 37,2730           75017                          MASK     BIT1
000251: 37,2731           26075                          ADS      FLAGWRD1
000252:
000253: 37,2732           34777                          CA       POSMAX
000254: 37,2733           70076                          MASK     FLAGWRD2
000255: 37,2734           54076                          TS       FLAGWRD2                              #  KNOCK DOWN DRIFT FLAG
000256:
000257: 37,2735           40103                          CS       FLAGWRD7                              #  SET V37 FLAG
000258: 37,2736           75012                          MASK     BIT6
000259: 37,2737           26103                          ADS      FLAGWRD7
000260:
000261: 37,2740           35021                          CAF      ZERO
000262: 37,2741           55425                          TS       DVTOTAL                               #  CLEAR DVTOTAL
000263: 37,2742           55426                          TS       DVTOTAL    +1
000264:
000265: 37,2743           00070                          TC       RUPTREG1
000266:
000267:                                                                                                 #  Page 824
000268:                                                                                                 #  ********************* READACCS ***************************************
000269: 37,2744  E6,1661                                 EBANK=   AOG
000270: 37,2744           03254        READACCS          TC       PIPASR
000271:
000272: 37,2745           35022        PIPSDONE          CAF      FIVE
000273: 37,2746           54001                          TS       L
000274: 37,2747           40000                          COM
000275: 37,2750           52763                          DXCH     -PHASE5
000276:
000277: 37,2751           35017        REDO5.5           CAF      ONE                                   #  SHOW PIPS HAVE BEEN READ
000278: 37,2752           55230                          TS       PIPAGE
000279:
000280: 37,2753           35016                          CA       TWO                                   #  SET PIPCTR FOR ONMINTOR
000281: 37,2754           55227                          TS       PIPCTR                                #  AFTER ABOVE PHASCHNG
000282:
000283: 37,2755           40102                          CS       CM/FLAGS
000284: 37,2756           75016                          MASK     BIT2                                  #  CM/DSTBY
000285: 37,2757           10000                          CCS      A
000286: 37,2760           03033                          TC       CHEKAVEG
000287:
000288: 37,2761           41246                          CS       PIPTIME1   +1
000289: 37,2762           55065                          TS       TBASE6                                #  FOR RESTARTS
000290: 37,2763           00006                          EXTEND                                         #  CONTINUE FOR ENTRY DAP
000291: 37,2764           31662                          DCA      AOG
000292: 37,2765           53670                          DXCH     AOG/PIP
000293: 37,2766           31663                          CA       AMG
000294: 37,2767           57671                          XCH      AMG/PIP
000295: 37,2770           00006                          EXTEND
000296: 37,2771           31665                          DCA      ROLL/180
000297: 37,2772           53673                          DXCH     ROLL/PIP
000298: 37,2773           31666                          CA       BETA/180
000299: 37,2774           57674                          XCH      BETA/PIP
000300: 37,2775           30102                          CA       CM/FLAGS
000301: 37,2776           75004                          MASK     BIT12                                 #  CM/DAPARM 93D BIT12
000302: 37,2777           00006                          EXTEND                                         #  DURING ENTRY, WHEN RCS DAP IS INACTIVE,
000303: 37,3000           13016                          BZF      NOSAVPIP                              #  SAVE PIPAS EACH 0.5 SEC FOR TM.
000304:
000305: 37,3001           33066                          CA       0.5SEC
000306: 37,3002           05245                          TC       WAITLIST
000307: 37,3003  E6,1533                                 EBANK=   XPIPBUF
000308: 37,3003           03067 76066                    2CADR    QUIKREAD
000309:
000310:                                                                                                 #  NO NEED TO RESTART PROTECT THIS.
000311: 37,3005           31162                          CA       DELVX                                 #  SAVE PIPAS AS READ (BUT NOT COMPENSATED)
000312: 37,3006           57533                          XCH      XPIPBUF
000313: 37,3007           55536                          TS       XOLDBUF
000314:
000315: 37,3010           31164                          CA       DELVY
000316: 37,3011           57534                          XCH      YPIPBUF
000317: 37,3012           55537                          TS       YOLDBUF
000318:                                                                                                 #  Page 825
000319: 37,3013           31166                          CA       DELVZ
000320: 37,3014           57535                          XCH      ZPIPBUF
000321: 37,3015           55540                          TS       ZOLDBUF
000322:
000323: 37,3016           35022        NOSAVPIP          CA       FIVE
000324: 37,3017           55725                          TS       CM/GYMDT
000325:
000326: 37,3020           33233                          CA       JTAGTIME                              #  ACTIVATE CM/RCS AFTER PIPUP TO GO
000327:                                                                                                 #  IN JTAGTIME +5 CS.
000328: 37,3021           05245                          TC       WAITLIST
000329: 37,3022  E6,1661                                 EBANK=   AOG
000330: 37,3022           03207 32066                    2CADR    SETJTAG
000331:
000332: 37,3024           46214                          CS       THREE                                 #  1.3SPOT FOR SETJTAG
000333: 37,3025           04114                          TC       NEWPHASE
000334: 37,3026           00001                          OCT      1
000335:
000336: 37,3027           34362                          CAF      OCT37
000337: 37,3030           54001                          TS       L
000338: 37,3031           40000                          COM
000339: 37,3032           52763                          DXCH     -PHASE5
000340:
000341: 37,3033           40075        CHEKAVEG          CS       FLAGWRD1
000342: 37,3034           75017                          MASK     BIT1
000343: 37,3035           10000                          CCS      A                                     #  IF AVEG FLAG DOWN SET FINAL EXIT AVEG
000344: 37,3036           03056                          TC       AVEGOUT
000345:
000346: 37,3037           35042                          CAF      2SECS
000347: 37,3040           05245                          TC       WAITLIST
000348: 37,3041  E6,1661                                 EBANK=   AOG
000349: 37,3041           02744 76066                    2CADR    READACCS
000350:
000351: 37,3043           35002        MAKESERV          CAF      PRIO20                                #  ESTABLISH SERVICER ROUTINE
000352: 37,3044           05147                          TC       FINDVAC
000353: 37,3045  E7,1431                                 EBANK=   DVCNTR
000354: 37,3045           03104 76067                    2CADR    SERVICER
000355:
000356: 37,3047           45015                          CS       FOUR                                  #  RESTART SERVICER AND READACCS
000357: 37,3050           04114                          TC       NEWPHASE
000358: 37,3051           00005                          OCT      5
000359:
000360: 37,3052           35007                          CAF      BIT9
000361: 37,3053           00006                          EXTEND
000362: 37,3054           05011                          WOR      DSALMOUT                              #  TURN TEST CONNECTOR OUTBIT ON
000363:
000364: 37,3055           15324                          TCF      TASKOVER                              #  END PREVIOUS READACCS WAITLIST TASK
000365:
000366:                                                                                                 #  Page 826
000367: 37,3056           00006        AVEGOUT           EXTEND
000368: 37,3057           33063                          DCA      AVOUTCAD
000369: 37,3060           53223                          DXCH     AVGEXIT
000370: 37,3061           13043                          TCF      MAKESERV
000371:
000372: 37,3062  E7,1431                                 EBANK=   DVCNTR
000373: 37,3062           03165 76067  AVOUTCAD          2CADR    AVGEND
000374:
000375:                                                                                                 #  Page 827
000376:                                                                                                 #  ROUTINE NAME:  ONMNITOR
000377:                                                                                                 #  MOD 04 BY BAIRNSFATHER 30 APR 1968     REDO ONMNITOR TO SAVE PIPS EACH 0.5 SEC FOR TM,ENTRY.
000378:                                                                                                 #  MOD 03 BY FISHER DECEMBER 1967
000379:                                                                                                 #  MOD 02 BY RYE SEPT 1967
000380:                                                                                                 #  MOD 01 BY KOSMALA 23 MAR 1967
000381:                                                                                                 #  MOD 00 BY KOSMALA 27 FEB 1967
000382:
000383:                                                                                                 #  FUNCTIONAL DESCRIPTION
000384:
000385:                                                                                                 #         THE PURPOSE OF ONMONITOR IS TO PROVIDE 1/2 SEC. READING OF PIPAS FOR DOWNLIST DURING ENTRY.
000386:                                                                                                 #         X,Y,XPIPBUF CONTAIN PRESET VALUES X,Y,ZOLDBUF CONTAIN VALUES FROM PREVIOUS READING.
000387:
000388:                                                                                                 #  CALLING SEQUENCE
000389:
000390:                                                                                                 #         CALL AS WAITLIST TASK. TERMINATES ITSELF IN TASKOVER
000391:
000392:                                                                                                 #  INITIALIZATION
000393:
000394:                                                                                                 #         PIPCTR = 2 (FOR DT = 0.5 SEC)
000395:                                                                                                 #         X,Y,ZPIPBUF SET TO PREVIOUS PIPAX,Y,Z
000396:
000397:                                                                                                 #  OUTPUT
000398:
000399:                                                                                                 #         X,Y,ZPIPBUF, X,Y,ZOLDBUF
000400:
000401:                                                                                                 #  DEBRIS
000402:
000403:                                                                                                 #         X,Y,ZPIPBUF CONTAIN LAST PIPAX,Y,Z VALUES
000404:                                                                                                 #                 X,Y,ZOLDBUF CONTAIN LAST-BUT-ONE PIPAX,Y,Z VALUES
000405:                                                                                                 #         RUPTREG1
000406:                                                                                                 #         PIPCTR
000407:
000408: 37,3064           55227        ONMNITOR          TS       PIPCTR
000409:
000410: 37,3065           05267                          TC       FIXDELAY                              #  WAIT
000411: 37,3066           00062        0.5SEC            DEC      50         B-14
000412:
000413: 37,3067           35016        QUIKREAD          CAF      TWO
000414: 37,3070           54070                          TS       RUPTREG1
000415: 37,3071           50000                          INDEX    A
000416: 37,3072           30037                          CA       PIPAX                                 #  SAVE ACTUAL PIPAS FOR TM.
000417: 37,3073           50070                          INDEX    RUPTREG1
000418: 37,3074           57533                          XCH      XPIPBUF                               #  UPDATE X,Y,ZPIPBUF
000419: 37,3075           50070                          INDEX    RUPTREG1
000420: 37,3076           55536                          TS       XOLDBUF                               #  AND X,Y,ZOLDBUF
000421: 37,3077           10070        CHKCTR            CCS      RUPTREG1
000422: 37,3100           13070                          TCF      QUIKREAD   +1                         #  LOOP AGAIN
000423: 37,3101           11227                          CCS      PIPCTR
000424: 37,3102           13064                          TCF      ONMNITOR
000425: 37,3103           05324                          TC       TASKOVER
000426:
000427:                                                                                                 #  Page 828
000428:                                                                                                 #  ********************* SERVICER ***************************************
000429:
000430: 37,3104  E7,1431                                 EBANK=   DVCNTR
000431:
000432: 37,3104           35016        SERVICER          CAF      TWO
000433: 37,3105           00004                          INHINT
000434: 37,3106           54070        PIPCHECK          TS       RUPTREG1
000435:
000436: 37,3107           60000                          DOUBLE
000437: 37,3110           50000                          INDEX    A
000438: 37,3111           11162                          CCS      DELVX
000439: 37,3112           03114                          TC       +2
000440: 37,3113           03122                          TC       PIPLOOP
000441:
000442: 37,3114           63232                          AD       -MAXDELV                              #  DO PIPA-SATURATION TEST BEFORE
000443: 37,3115           00006                          EXTEND
000444: 37,3116           63122                          BZMF     PIPLOOP                               #  COMPENSATION.
000445:
000446: 37,3117           05650                          TC       ALARM
000447: 37,3120           00205                          OCT      00205                                 #  SATURATED-PIPA ALARM   ***CHANGE LATER
000448: 37,3121           03143                          TC       AVERAGEG
000449:
000450: 37,3122           10070        PIPLOOP           CCS      RUPTREG1
000451: 37,3123           13106                          TCF      PIPCHECK
000452:
000453: 37,3124           05412                          TC       PHASCHNG                              #  RESTART REREADAC + SERVICER
000454: 37,3125           16035                          OCT      16035
000455: 37,3126           20000                          OCT      20000
000456: 37,3127  E7,1431                                 EBANK=   DVCNTR
000457: 37,3127           03133 76067                    2CADR    DVTOTUP
000458:
000459: 37,3131           04662                          TC       BANKCALL                              #  PIPA COMPENSATION CALL
000460: 37,3132           15262                          CADR     1/PIPA
000461:
000462: 37,3133           06006        DVTOTUP           TC       INTPRET
000463: 37,3134           51575                          VLOAD    ABVAL                                 #  GET ABS VALUE OF DELV
000464: 37,3135           01163                                   DELV
000465: 37,3136           77405                          DMP      EXIT
000466: 37,3137           37451                                   KPIP1                                 #  SCALE AT 2(+7)
000467:
000468: 37,3140           00006                          EXTEND
000469: 37,3141           30155                          DCA      MPAC
000470: 37,3142           21426                          DAS      DVTOTAL                               #  ACCUMULATE DVTOTAL
000471: 37,3143           05412        AVERAGEG          TC       PHASCHNG
000472: 37,3144           10035                          OCT      10035
000473:
000474: 37,3145           06006                          TC       INTPRET
000475: 37,3146           77624                          CALL
000476:                                                                                                 #  Page 829
000477: 37,3147           77420                                   CALCRVG
000478: 37,3150           77776                          EXIT
000479:
000480: 37,3151           05412                          TC       PHASCHNG
000481: 37,3152           10035                          OCT      10035
000482:
000483: 37,3153           34113                          CAF      OCT31                                 #  COPY RN1,VN1,GOT102,GOBL1/2,PIPTIME1
000484: 37,3154           05606                          TC       GENTRAN                               #  INTO RN, VN, GDT/12, GOBL/2,PIPTIME
000485: 37,3155           01231                          ADRES    RN1
000486: 37,3156           01170                          ADRES    RN
000487: 37,3157           00003                          RELINT                                         #  GENTRAN DOES AN INHINT
000488: 37,3160           05412                          TC       PHASCHNG
000489: 37,3161           10035                          OCT      10035
000490:
000491: 37,3162           00006                          EXTEND
000492: 37,3163           31223                          DCA      AVGEXIT
000493: 37,3164           52006                          DXCH     Z                                     #  AVERAGEG EXIT
000494:
000495: 37,3165           31205        AVGEND            CA       PIPTIME    +1                         #  FINAL AVERAGE G EXIT
000496: 37,3166           55074                          TS       OLDBT1                                #  SET UP FREE FALL GYRO COMPENSATION
000497:
000498: 37,3167           05546                          TC       UPFLAG                                #  SET DRIFTFLG
000499: 37,3170           00036                          ADRES    DRIFTFLG                              #  BIT 15 FLAG 2
000500: 37,3171           05372                          TC       2PHSCHNG
000501: 37,3172           00005                          OCT      5                                     #  GROUP 5 OFF
000502: 37,3173           05022                          OCT      05022                                 #  GROUP 2 ON FOR AVETOMID
000503: 37,3174           20000                          OCT      20000
000504:
000505: 37,3175           06006                          TC       INTPRET
000506: 37,3176           77624                          CALL
000507: 37,3177           73675                                   AVETOMID                              #  CONVERT STATE VECTOR TO REFERENCE SCALE.
000508: 37,3200           77776                          EXIT
000509:
000510: 37,3201           35021                          CAF      ZERO                                  #  ZERO MARK COUNTERS.
000511: 37,3202           55125                          TS       VHFCNT
000512: 37,3203           55126                          TS       TRKMKCNT
000513:
000514: 37,3204           04662                          TC       BANKCALL
000515: 37,3205           17173                          CADR     PIPFREE
000516:
000517: 37,3206           45007                          CS       BIT9
000518: 37,3207           55734                          TS       MRKBUF2                               #  INVALIDATE MARK BUFFER
000519: 37,3210           00006                          EXTEND
000520: 37,3211           03011                          WAND     DSALMOUT
000521:
000522: 37,3212           05560                          TC       DOWNFLAG
000523: 37,3213           00147                          ADRES    CM/DSTBY
000524:
000525: 37,3214           05560                          TC       DOWNFLAG
000526: 37,3215           00162                          ADRES    V37FLAG
000527:
000528:                                                                                                 #  Page 830
000529: 37,3216           35011                          CAF      BIT7                                  #  RESTORE GROUP 1 + 2 IF P20 IS RUNNING.
000530: 37,3217           70074                          MASK     FLAGWRD0
000531: 37,3220           00006                          EXTEND
000532: 37,3221           13225                          BZF      +4
000533:
000534: 37,3222           05372                          TC       2PHSCHNG
000535: 37,3223           00111                          OCT      111                                   #  1.11SPOT
000536: 37,3224           00132                          OCT      132                                   #  2.13SPOT
000537:
000538: 37,3225           04701                          TC       POSTJUMP
000539: 37,3226           10124                          CADR     CANV37
000540:
000541: 37,3227           05412        SERVEXIT          TC       PHASCHNG
000542: 37,3230           00035                          OCT      00035                                 #  A, 5.3 = REREADAC      (ONLY)
000543:
000544: 37,3231           15217                          TCF      ENDOFJOB
000545:
000546: 37,3232     5024               DVTHRUSH          EQUALS   ELEVEN                                #  15 PERCENT OF 2SEC PIPA ACCUMULATION,
000547:                                                                                                 #         FOR 503-FULL CSM/LEM....DELV SC.AT
000548:                                                                                                 #         5.85 CM/SEC.
000549:
000550: 37,3232           63401        -MAXDELV          DEC      -6398      B-14                       #  3200 PPS FOR 2 SEC CCS TAKES 1
000551:
000552: 37,3233           00170        JTAGTIME          DEC      120        B-14                       #  = 1 SEC + T CDU, T CDU = .1 SEC
000553:
000554: 37,3234           00372        2.5SEC            DEC      250        B-14
000555: 37,3235           00044        MDOTFAIL          DEC      144.0      B-16                       #  5 SEC MASS LOSS AT 28.8 KG/SEC
000556:                                                                                                 #  SHOULD BE 2-4 SECS FOR NO START
000557:                                                                                                 #             6-8 SECS FOR FAILURE
000558:
000559:                                                                                                 #  Page 831
000560:                                                                                                 #  NORMLIZE PERFORMS THE INITIALIZATION REQUIRED PRIOR TO THE FIRST ENTRY TO AVERAGEG, AND SCALES RN SO THAT IT
000561:                                                                                                 #  HAS 1 LEADING BINARY ZERO.  IN MOST MISSIONS, RN WILL BE SCALED AT 2(+29), BUT IN THE 206 MISSION, RN WILL BE
000562:                                                                                                 #  SCALED AT 2(+24) M.
000563:
000564: 37,3236           35025        NORMLIZE          CAF      THIRTEEN                              #  SET UP TO COPY 14 REGS: RN1,VN1,PIPTIME1
000565: 37,3237           05606                          TC       GENTRAN                               #  INTO RN,VN,PIPTIME
000566: 37,3240           01231                          ADRES    RN1                                   #  FROM HERE
000567: 37,3241           01170                          ADRES    RN                                    #  TO HERE
000568:
000569: 37,3242           00003                          RELINT
000570: 37,3243           06006                          TC       INTPRET
000571: 37,3244           45175                          VLOAD    CALL                                  #  LOAD RN FOR CALCGRAV
000572: 37,3245           01171                                   RN
000573: 37,3246           77353                                   CALCGRAV                              #  INITIALIZE UNITR RMAG GDT1
000574:
000575: 37,3247           25207                          STOVL    GDT/2
000576: 37,3250           01256                                   GOBL1/2
000577: 37,3251           01215                          STORE    GOBL/2
000578: 37,3252           77776                          EXIT
000579: 37,3253           15217                          TCF      ENDOFJOB
000580:
000581:                                                                                                 #  Page 832
000582:                                                                                                 #  *****  PIPA READER *****
000583:                                                                                                 #  MOD NO. 00 BY D. LICKLY DEC. 9 1966
000584:
000585:                                                                                                 #  FUNCTIONAL DESCRIPTION
000586:
000587:                                                                                                 #  SUBROUTINE TO READ PIPA COUNTERS, TRYING TO BE VERY CAREFUL SO THAT IT WILL BE RESTARTABLE.
000588:                                                                                                 #  PIPA READINGS ARE STORED IN THE VECTOR DELV.  THE HIGH ORDER PART OF EACH COMPONENT CONTAINS THE PIPA READING,
000589:                                                                                                 #  RESTARTS BEGIN AT REREADAC.
000590:
000591:                                                                                                 #  AT THE END OF THE PIPA READER THE CDUS ARE READ AND STORED AS A
000592:                                                                                                 #  VECTOR IN CDUTEMP.  THE HIGH ORDER PART OF EACH COMPONENT CONTAINS
000593:                                                                                                 #  THE CDU READING IN 2'S COMP IN THE ORDER CDUX,Y,Z.  THE THRUST
000594:                                                                                                 #  VECTOR ESTIMATOR IN FINDCDUD REQUIRES THE CDUS BE READ AT PIPTIME.
000595:
000596:                                                                                                 #  CALLING SEQUENCE AND EXIT
000597:
000598:                                                                                                 #         CALL VIA TC, ISWCALL, ETC.
000599:
000600:                                                                                                 #         EXIT IS VIA Q.
000601:
000602:                                                                                                 #  INPUT
000603:
000604:                                                                                                 #         INPUT IS THROUGH THE COUNTERS PIPAX, PIPAY, PIPAZ, AND TIME2.
000605:
000606:                                                                                                 #  OUTPUT
000607:
000608:                                                                                                 #         HIGH ORDER COMPONENTS OF THE VECTOR DELV CONTAIN THE PIPA READINGS.
000609:
000610:                                                                                                 #         PIPTIME CONTAINS TIME OF PIPA READING.
000611:
000612:                                                                                                 #  DEBRIS (ERASABLE LOCATIONS DESTROYED BY THE PROGRAM)
000613:
000614:                                                                                                 #         LOW ORDER DELV'S ARE ZEROED FOR TM INDICATION.
000615:                                                                                                 #         TEMX    TEMY    TEMZ    PIPAGE
000616:
000617: 37,3254           00006        PIPASR            EXTEND
000618: 37,3255           30025                          DCA      TIME2
000619: 37,3256           53246                          DXCH     PIPTIME1                              #  CURRENT TIME   POSITIVE VALUE
000620: 37,3257           45021                          CS       ZERO                                  #  INITIALIZAE THESE AT NEG ZERO.
000621: 37,3260           55224                          TS       TEMX
000622: 37,3261           55225                          TS       TEMY
000623: 37,3262           55226                          TS       TEMZ
000624:                                                                                                 #  Page 833
000625: 37,3263           35021                          CA       ZERO
000626: 37,3264           55166                          TS       DELVZ                                 #  OTHER DELVS OK INCLUDING LOW ORDER
000627: 37,3265           55164                          TS       DELVY
000628:
000629: 37,3266           55163                          TS       DELVX      +1                         #  LOW ORDER DELV'S ARE ZEROED FOR TM:  THIS
000630: 37,3267           55165                          TS       DELVY      +1                         #  IF DNLNK=D LOW ORDER DELVS ARE NZ, THEY
000631: 37,3270           55167                          TS       DELVZ      +1                         #  CONTAIN PROPER COMPENSATION.  IF=0, THEN
000632:                                                                                                 #  THE TM VALUES ARE BEFORE COMPENSATION.
000633:
000634: 37,3271           55230                          TS       PIPAGE                                #  SHOW PIPA READING IN PROGRESS
000635:
000636: 37,3272           00006        REPIP1            EXTEND
000637: 37,3273           40040                          DCS      PIPAX                                 #  X AND Y PIPS READ
000638: 37,3274           53225                          DXCH     TEMX
000639: 37,3275           52040                          DXCH     PIPAX                                 #  PIPAS SET TO NEG ZERO AS READ.
000640: 37,3276           55162                          TS       DELVX
000641: 37,3277           23164                          LXCH     DELVY
000642:
000643: 37,3300           40041        REPIP3            CS       PIPAZ                                 #  REPEAT PROCESS FOR Z PIP
000644: 37,3301           57226                          XCH      TEMZ
000645: 37,3302           56041                          XCH      PIPAZ
000646: 37,3303           55166        DODELVZ           TS       DELVZ
000647:
000648: 37,3304           00002                          TC       Q
000649:
000650: 37,3305  E6,1661                                 EBANK=   AOG
000651:
000652: 37,3305           10763        REREADAC          CCS      PHASE5                                #  LAST PASS CHECK
000653: 37,3306           13310                          TCF      +2
000654: 37,3307           15324                          TCF      TASKOVER
000655:
000656: 37,3310           37665                          CAF      PRIO31                                #  RESTART MAY HAVE WIPED OUT LASTBIAS, AN
000657: 37,3311           55074                          TS       1/PIPADT                              #         UNPROTECTED NOVAC FROM PREREAD,
000658:                                                                                                 #         WHICH SET(S) UP 1/PIPADT (THUSLY)
000659:                                                                                                 #         FOR NON-COASTING COMPENSATION....BE
000660:                                                                                                 #         SURE 1/PIPADT IS AOK.  (PRIO31 IS
000661:                                                                                                 #         2.0SEC SC.AT B+8(CS)
000662:
000663: 37,3312           11230                          CCS      PIPAGE
000664: 37,3313           12744                          TCF      READACCS                              #  PIP READING NOT STARTED.  GO TO BEGINNING
000665:
000666: 37,3314           33352                          CAF      DONEADR                               #  SET UP RETURN FROM PIPASR
000667: 37,3315           54002                          TS       Q
000668:
000669: 37,3316           11166                          CCS      DELVZ
000670: 37,3317           00002                          TC       Q                                     #  Z DONE, GO DO CDUS
000671: 37,3320           13323                          TCF      +3                                    #  Z NOT DONE, CHECK Y.
000672: 37,3321           00002                          TC       Q
000673: 37,3322           00002                          TC       Q
000674:                                                                                                 #  Page 834
000675: 37,3323           22007                          ZL
000676: 37,3324           11164                          CCS      DELVY
000677: 37,3325           13330                          TCF      +3
000678: 37,3326           13337                          TCF      CHKTEMX                               #  Y NOT DONE, CHECK X.
000679: 37,3327           13330                          TCF      +1
000680: 37,3330           22041                          LXCH     PIPAZ                                 #  Y DONE, ZERO Z PIP.
000681:
000682: 37,3331           11226                          CCS      TEMZ
000683: 37,3332           41226                          CS       TEMZ                                  #  TEMZ NOT = -0, CONTAINS -PIPAZ VALUE.
000684: 37,3333           13303                          TCF      DODELVZ
000685: 37,3334           13332                          TCF      -2
000686: 37,3335           23166                          LXCH     DELVZ                                 #  TEMZ = -0, L HAS ZPIP VALUE.
000687: 37,3336           00002                          TC       Q
000688:
000689: 37,3337           11224        CHKTEMX           CCS      TEMX                                  #  HAS THIS CHANGED
000690: 37,3340           41224                          CS       TEMX                                  #  YES
000691: 37,3341           13344                          TCF      +3                                    #  YES
000692: 37,3342           13340                          TCF      -2                                    #  YES
000693: 37,3343           13272                          TCF      REPIP1                                #  NO
000694: 37,3344           55162                          TS       DELVX
000695:
000696: 37,3345           41225                          CS       TEMY
000697: 37,3346           55164                          TS       DELVY
000698:
000699: 37,3347           45021                          CS       ZERO                                  #  ZERO X AND Y PIPS
000700: 37,3350           52040                          DXCH     PIPAX                                 #  L STILL ZERO FROM ABOVE
000701:
000702: 37,3351           13300                          TCF      REPIP3
000703:
000704: 37,3352           02745        DONEADR           GENADR   PIPSDONE
000705:
000706:                                                                                                 #  Page 835
000707:                                                                                                 # *********************************************************************************************
000708:
000709:                                                                                                 #  ROUTINE CALCRVG INTEGRATES THE EQUATIONS OF MOTION BY AVERAGING THE THRUST AND GRAVITATIONAL
000710:                                                                                                 #  ACCELERATIONS OVER A TIME INTERVAL OF 2 SECONDS.
000711:
000712:                                                                                                 #  FOR THE EARTH-CENTERED GRAVITATIONAL FIELD, THE PERTURBATION DUE TO OBLATENESS IS COMPUTED TO THE FIRST
000713:                                                                                                 #  HARMONIC COEFFICIENT J.
000714:
000715:                                                                                                 #  ROUTINE CALCRVG REQUIRES...
000716:                                                                                                 #         1) THRUST ACCELERATION INCREMENTS IN DELV SCALED SAME AS PIPAX,Y,Z IN STABLE MEMBER COORDS.
000717:                                                                                                 #         2) VN SCALED 2(+7) M/CS IN REFERENCE COORDS.
000718:                                                                                                 #         3) RN SCALED AT 2(+29) METERS IN REFERENCE COORDS.
000719:                                                                                                 #         4) UNITW THE EARTH'S UNIT ROTATIONAL VECTOR (SCALED AS A FULL UNIT VECTOR) IN REFERENCE COORDS.
000720:
000721:                                                                                                 #  IT LEAVES RN1 UPDATED (SCALED AT 2(+29)M, VN1 (SCALED AT 2(+7)M/CS), AND GDT1/2 (SCALED AT 2(+7)M/CS). ALSO HALF
000722:                                                                                                 #  UNIT VECTOR UNITR, RMAG IN 36D SCALED AT 2(+29)M, R MAG SQ. IN 34D SCALED AT 2(+58) M SQ.
000723:
000724: 37,3353           41456        CALCGRAV          UNIT     PUSH                                  #  ENTER WITH RN IN MPAC
000725: 37,3354           01760                          STORE    UNITR
000726: 37,3355           67340                          LXC,1    SLOAD
000727: 37,3356           03746                                   RTX2
000728: 37,3357           00047                                   X1
000729: 37,3360           77240                          BMN      VLOAD
000730: 37,3361           77407                                   ITISMOON
000731: 37,3362           41441                          DOT      PUSH
000732: 37,3363           01714                                   UNITW
000733: 37,3364           44316                          DSQ      BDSU
000734: 37,3365           37461                                   DP1/20
000735: 37,3366           56325                          PDDL     DDV
000736: 37,3367           37463                                   RESQ
000737: 37,3370           00043                                   34D                                   #  (RN)SQ
000738: 37,3371           00041                          STORE    32D                                   #  TEMP FOR (RE/RN)SQ
000739: 37,3372           41205                          DMP      DMP
000740: 37,3373           37465                                   20J
000741: 37,3374           65361                          VXSC     PDDL
000742: 37,3375           01760                                   UNITR
000743: 37,3376           41205                          DMP      DMP
000744: 37,3377           37467                                   2J
000745: 37,3400           00041                                   32D
000746: 37,3401           53361                          VXSC     VAD
000747: 37,3402           01714                                   UNITW
000748: 37,3403           77626                          STADR
000749: 37,3404           76521                          STORE    GOBL1/2
000750: 37,3405           41455                          VAD      PUSH
000751: 37,3406           01760                                   UNITR
000752: 37,3407           60345        ITISMOON          DLOAD    NORM
000753: 37,3410           00043                                   34D
000754: 37,3411           00050                                   X2
000755: 37,3412           53663                          BDDV*    SLR*
000756:                                                                                                 #  Page 836
000757: 37,3413           37453                                   -MUDT(E),1
000758: 37,3414           56623                                   0          -21D,2
000759: 37,3415           45561                          VXSC     STADR
000760: 37,3416           76527                          STORE    GDT1/2                                #  SCALED AT 2(+7) M/CS
000761: 37,3417           77616                          RVQ
000762:
000763: 37,3420           74375        CALCRVG           VLOAD    VXSC
000764: 37,3421           01163                                   DELV
000765: 37,3422           37451                                   KPIP1
000766: 37,3423           76505                          VXM      VSL1
000767: 37,3424           01736                                   REFSMMAT
000768: 37,3425           03433                          STORE    DELVREF                               #  DELV IN REF COORDS AT 2(+7)
000769: 37,3426           41562                          VSR1     PUSH
000770: 37,3427           41455                          VAD      PUSH                                  #  (DV-OLDGDT)/2 TO PD SCALED AT 2(+7)M/CS
000771: 37,3430           01207                                   GDT/2
000772: 37,3431           74255                          VAD      VXSC
000773: 37,3432           01177                                   VN
000774: 37,3433           37457                                   2SEC(22)
000775: 37,3434           44055                          VAD      STQ
000776: 37,3435           01171                                   RN
000777: 37,3436           00037                                   31D
000778: 37,3437           35232                          STCALL   RN1                                   #  TEMP STORAGE OF RN SCALED 2(+29)M
000779: 37,3440           77353                                   CALCGRAV
000780:
000781: 37,3441           53255                          VAD      VAD
000782: 37,3442           77655                          VAD
000783: 37,3443           01177                                   VN
000784: 37,3444           35240                          STCALL   VN1                                   #  TEMP STORAGE OF VN SCALED 2(+7) M/CS.
000785: 37,3445           00037                                   31D
000786:
000787: 37,3446           03215 27057  KPIP              2DEC     .1024                                 #  SCALES DELV TO 2(+4)
000788:
000789: 37,3450           02312 32537  KPIP1             2DEC     0.074880                              #  207 DELV SCALING.  1 PULSE = 5.85 CM/SEC.
000790:
000791: 37,3452           61377 55754  -MUDT(E)          2DEC*    -7.9720645 E+12       B-44*
000792:
000793: 37,3454           77644 65556  -MUDT(M)          2DEC*    -9.805556  E+10       B-44*
000794:
000795: 37,3456           00000 31000  2SEC(22)          2DEC     200        B-22
000796:
000797: 37,3460           01463 06315  DP1/20            2DEC     0.05
000798:
000799: 37,3462           00001 05000  RESQ              2DEC*    40.6809913 E12        B-59*
000800:
000801: 37,3464           02047 36332  20J               2DEC*    3.24692010 E-2        B1*
000802:
000803: 37,3466           00152 14511  2J                2DEC*    3.24692010 E-3        B1*
000804:

End of include-file SERVICER207.agc.  Parent file is MAIN.agc


