
Source Code


000002:                                                                                                  ## Copyright:   Public domain.
000003:                                                                                                  ## Filename:    SERVICE_ROUTINES.agc
000004:                                                                                                  ## Purpose:     Part of the source code for Comanche, build 055. It
000005:                                                                                                  ##              is part of the source code for the Command Module's
000006:                                                                                                  ##              (CM) Apollo Guidance Computer (AGC), Apollo 11.
000007:                                                                                                  ## Assembler:   yaYUL
000008:                                                                                                  ## Reference:   pp. 1485-1492
000009:                                                                                                  ## Contact:     Ron Burkey <info@sandroid.org>
000010:                                                                                                  ## Website:     http://www.ibiblio.org/apollo.
000011:                                                                                                  ## Mod history: 2009-05-07 RSB  Adapted from Colossus249 file of the same
000012:                                                                                                  ##                              name, and page images. Corrected various
000013:                                                                                                  ##                              typos in the transcription of program
000014:                                                                                                  ##                              comments, and these should be back-ported
000015:                                                                                                  ##                              to Colossus249.
000016:                                                                                                  ##              2016-12-22 RSB  Proofed comment text using octopus/ProoferComments
000017:                                                                                                  ##                              and corrected the errors found.
000018:                                                                                                  ##              2017-01-18 RSB  Fixed comment-text errors noted while diff'ing
000019:                                                                                                  ##                              vs Colossus 249.
000020:                                                                                                  ##
000021:                                                                                                  ## The contents of the "Comanche055" files, in general, are transcribed
000022:                                                                                                  ## from scanned documents.
000023:                                                                                                  ##
000024:                                                                                                  ##       Assemble revision 055 of AGC program Comanche by NASA
000025:                                                                                                  ##       2021113-051.  April 1, 1969.
000026:                                                                                                  ##
000027:                                                                                                  ##       This AGC program shall also be referred to as Colossus 2A
000028:                                                                                                  ##
000029:                                                                                                  ##       Prepared by
000030:                                                                                                  ##                       Massachusetts Institute of Technology
000031:                                                                                                  ##                       75 Cambridge Parkway
000032:                                                                                                  ##                       Cambridge, Massachusetts
000033:                                                                                                  ##
000034:                                                                                                  ##       under NASA contract NAS 9-4065.
000035:                                                                                                  ##
000036:                                                                                                  ## Refer directly to the online document mentioned above for further
000037:                                                                                                  ## information.  Please report any errors to info@sandroid.org.
000038:


000040:    7722                                           BLOCK    3
000041:    6000                                           SETLOC   FFTAG6
000042:    6000                                           BANK
000043:    7722                                           COUNT    03/FLAG
000044:
000045:    7722           54001        UPENT2             TS       L                                     #  WHICH FLAGWORD IS IT
000046:    7723           75023                           MASK     OCT7
000047:    7724           56001                           XCH      L                                     #  SAVE IN L FOR INDEXING
000048:
000049:    7725           75731                           MASK     OCT77770                              #  OBTAIN THE BIT INFORMATION
000050:    7726           00004                           INHINT                                         #  PREVENT INTERUPTS
000051:    7727           54061                           TS       ITEMP1                                #  STORE THE BIT INFORMATION TEMPORARIALY
000052:
000053:    7730           50001                           NDX      L
000054:    7731           40074                           CS       FLAGWRD0
000055:    7732           70061                           MASK     ITEMP1
000056:    7733           50001                           NDX      L
000057:    7734           26074                           ADS      FLAGWRD0
000058:    7735           00003                           RELINT                                         #  RELEASE INTERUPT INHIBIT
000059:
000060:    7736           24002                           INCR     Q                                     #  OBTAIN THE CORRECT RETURN ADDRESS
000061:    7737           00002                           TC       Q                                     #  RETURN
000062:
000063:    7740           54001        DOWNENT2           TS       L                                     #  WHICH FLAGWORD IS IT
000064:    7741           75023                           MASK     OCT7
000065:    7742           56001                           XCH      L                                     #  SAVE IN L FOR INDEXING
000066:
000067:    7743           75731                           MASK     OCT77770                              #  OBTAIN THE BIT INFORMATION
000068:    7744           40000                           COM                                            #  START TO PROCESS THE INFORMATION
000069:
000070:    7745           00004                           INHINT                                         #  PREVENT INTERUPTS
000071:    7746           50001                           NDX      L
000072:    7747           70074                           MASK     FLAGWRD0
000073:    7750           50001                           NDX      L
000074:    7751           54074                           TS       FLAGWRD0
000075:    7752           00003                           RELINT                                         #  RELEASE INTERUPT INHIBIT
000076:
000077:    7753           24002                           INCR     Q                                     #  OBTAIN THE CORRECT RETURN ADDRESS
000078:    7754           00002                           TC       Q                                     #  RETURN
000079:
000080:    7755     5023               OCT7               EQUALS   SEVEN
000081: 10,3766                                           BANK     10
000082:


000084:                                                                                                  #  UPFLAG AND DOWNFLAG ARE ENTIRELY GENERAL FLAG SETTING AND CLEARING SUBROUTINES.  USING THEM, WHETHER OR
000085:                                                                                                  #  NOT IN INTERRUPT, ONE MAY SET OR CLEAR ANY SINGLE, NAMED BIT IN ANY ERASABLE REGISTER, SUBJECT OF COURSE TO
000086:                                                                                                  #  EBANK SETTING.  A "NAMED" BIT, AS THE WORD IS USED HERE, IS ANY BIT WITH A NAME FORMALLY ASSIGNED BY THE YUL
000087:                                                                                                  #  ASSEMBLER.
000088:
000089:                                                                                                  #  AT PRESENT THE ONLY NAMED BITS ARE THOSE IN THE FLAGWORDS.  ASSEMBLER CHANGES WILL MAKE IT POSSIBLE TO
000090:                                                                                                  #  NAME ANY BIT IN ERASABLE MEMORY.
000091:
000092:                                                                                                  #  CALLING SEQUENCES ARE AS FOLLOWS:-
000093:                                                                                                  #                TC      UPFLAG                  TC      DOWNFLAG
000094:                                                                                                  #                ADRES   NAME OF FLAG            ADRES   NAME OF FLAG
000095:
000096:                                                                                                  #  RETURN IS TO THE LOCATION FOLLOWING THE "ADRES" ABOUT .58 MS AFTER THE "TC".
000097:                                                                                                  #  UPON RETURN A CONTAINS THE CURRENT FLAGWRD SETTING.
000098:
000099:    5546                                           BLOCK    02
000100:    4000                                           SETLOC   FFTAG1
000101:    4000                                           BANK
000102:    5546                                           COUNT*   $$/FLAG
000103:
000104:    5546           30002        UPFLAG             CA       Q
000105:    5547           05564                           TC       DEBIT
000106:    5550           40000                           COM                                            #  +(15 - BIT)
000107:    5551           00006                           EXTEND
000108:    5552           04001                           ROR      LCHAN                                 #  SET BIT
000109:    5553           50061        COMFLAG            INDEX    ITEMP1
000110:    5554           54074                           TS       FLAGWRD0
000111:    5555           22063                           LXCH     ITEMP3
000112:    5556           00003                           RELINT
000113:    5557           00001                           TC       L
000114:
000115:    5560           30002        DOWNFLAG           CA       Q
000116:    5561           05564                           TC       DEBIT
000117:    5562           70001                           MASK     L                                     #  RESET BIT
000118:    5563           15553                           TCF      COMFLAG
000119:
000120:    5564           65017        DEBIT              AD       ONE                                   #  GET DE BITS
000121:    5565           00004                           INHINT
000122:    5566           54063                           TS       ITEMP3
000123:    5567           35026                           CA       LOW4                                  #  DEC15
000124:    5570           54061                           TS       ITEMP1
000125:    5571           50063                           INDEX    ITEMP3
000126:    5572           27777                           CA       0          -1                         #  ADRES
000127:    5573           54001                           TS       L
000128:    5574           35021                           CA       ZERO


000130:    5575           00006                           EXTEND
000131:    5576           10061                           DV       ITEMP1                                #  A = FLAGWRD, L = (15 - BIT)
000132:    5577           52062                           DXCH     ITEMP1
000133:    5600           50061                           INDEX    ITEMP1
000134:    5601           30074                           CA       FLAGWRD0
000135:    5602           54001                           TS       L                                     #  CURRENT STATE
000136:    5603           50062                           INDEX    ITEMP2
000137:    5604           45001                           CS       BIT15                                 #  -(15 - BIT)
000138:    5605           00002                           TC       Q
000139:


000141:                                                                                                  #  DELAYJOB- A GENERAL ROUTINE TO DELAY A JOB A SPECIFIC AMOUNT OF TIME BEFORE PICKING UP AGAIN.
000142:
000143:                                                                                                  #  ENTRANCE REQUIREMENTS...
000144:                                                                                                  #                CAF     DT              DELAY JOB FOR DT CENTISECS
000145:                                                                                                  #                TC      BANKCALL
000146:                                                                                                  #                CADR    DELAYJOB
000147:
000148: 06,3770                                           BANK     06
000149: 00,2000                                           SETLOC   DLAYJOB
000150: 00,2000                                           BANK
000151:
000152:                                                                                                  #  THIS MUST REMAIN IN BANK 0 *****************************************
000153:
000154: 00,3732                                           COUNT    00/DELAY
000155:
000156: 00,3732           00004        DELAYJOB           INHINT
000157: 00,3733           54002                           TS       Q                                     #  STORE DELAY DT IN Q FOR DLY -1 IN
000158: 00,3734           36214                           CAF      DELAYNUM                              #  WAITLIST
000159: 00,3735           54070        DELLOOP            TS       RUPTREG1
000160: 00,3736           50000                           INDEX    A
000161: 00,3737           31141                           CA       DELAYLOC                              #  IS THIS DELAYLOC AVAILABLE
000162: 00,3740           00006                           EXTEND
000163: 00,3741           13746                           BZF      OK2DELAY                              #  YES
000164:
000165: 00,3742           10070                           CCS      RUPTREG1                              #  NO, TRY NEXT DELAYLOC
000166: 00,3743           13735                           TCF      DELLOOP
000167:
000168: 00,3744           07755                           TC       BAILOUT                               #  NO AVAILABLE LOCS AVAILABLE.
000169: 00,3745           01104                           OCT      1104
000170:
000171: 00,3746           33766        OK2DELAY           CA       TCSLEEP                               #  SET WAITLIST IMMEDIATE RETURN
000172: 00,3747           54061                           TS       WAITEXIT
000173:
000174: 00,3750           30004                           CA       FBANK
000175: 00,3751           60070                           AD       RUPTREG1                              #  STORE BBANK FOR TASK CALL
000176: 00,3752           54001                           TS       L
000177:
000178: 00,3753           33767                           CAF      WAKECAD                               #  STORE CADR FOR TASK CALL
000179: 00,3754           15255                           TCF      DLY2       -1                         #  DLY IS IN WAITLIST ROUTINE
000180:
000181: 00,3755           04711        TCGETCAD           TC       MAKECADR                              #  GET CALLERS FCADR
000182:
000183: 00,3756           50070                           INDEX    RUPTREG1
000184: 00,3757           55141                           TS       DELAYLOC                              #  SAVE DELAY CADRS
000185:
000186: 00,3760           05175                           TC       JOBSLEEP
000187:
000188: 00,3761           35021        WAKER              CAF      ZERO
000189: 00,3762           50006                           INDEX    BBANK
000190: 00,3763           57141                           XCH      DELAYLOC                              #  MAKE DELAYLOC AVAILABLE


000192: 00,3764           05201                           TC       JOBWAKE
000193:
000194: 00,3765           05324                           TC       TASKOVER
000195:
000196: 00,3766           03753        TCSLEEP            GENADR   TCGETCAD   -2
000197: 00,3767           03761        WAKECAD            GENADR   WAKER
000198:


000200:                                                                                                  #  GENTRAN, A BLOCK TRANSFER ROUTINE.
000201:                                                                                                  #  WRITTEN BY D. EYLES
000202:                                                                                                  #  MOD 1 BY KERNAN                               UTILITYM REV 17 11/18/67
000203:                                                                                                  #  MOD 2 BY SCHULENBERG  (REMOVE RELINT)  SKIPPER REV 4 2/28/68
000204:
000205:                                                                                                  #  THIS ROUTINE IS USEFULL FOR TRANSFERING N CONSECUTIVE ERASABLE OR FIXED QUANTITIES TO SOME OTHER N
000206:                                                                                                  #  CONSECUTIVE ERASABLE LOCATIONS.  IF BOTH BLOCKS OF DATA ARE IN SWITCHABLE EBANKS, THEY MUST BE IN THE SAME ONE.
000207:
000208:                                                                                                  #  GENTRAN IS CALLABLE IN A JOB AS WELL AS A RUPT.  THE CALLING SEQUENCE IS:
000209:                                                                                                  #        I       CA      N-1             # OF QUANTITIES MINUS ONE.
000210:                                                                                                  #        I +1    TC      GENTRAN         IN FIXED-FIXED.
000211:                                                                                                  #        I +2    ADRES   L               STARTING ADRES OF DATA TO BE MOVED.
000212:                                                                                                  #        I +3    ADRES   M               STARTING ADRES OF DUPLICATION BLOCK.
000213:                                                                                                  #        I +4                            RETURNS HERE.
000214:
000215:                                                                                                  #  GENTRAN TAKES 25 MCT'S (300 MICROSECONDS) PER ITEM + 5 MCT'S (60 MICS) FOR ENTERING AND EXITING.
000216:                                                                                                  #  A, L AND ITEMP1 ARE NOT PRESERVED.
000217:
000218:    5606                                           BLOCK    02
000219:    4000                                           SETLOC   FFTAG4
000220:    4000                                           BANK
000221:
000222:    5606     0061                                  EBANK=   ITEMP1
000223:
000224:    5606                                           COUNT*   $$/TRAN
000225:
000226:    5606           00004        GENTRAN            INHINT
000227:    5607           54061                           TS       ITEMP1                                #  SAVE N-1.
000228:    5610           50002                           INDEX    Q                                     #  C(Q) = ADRES L.
000229:    5611           60000                           AD       0                                     #  ADRES (L + N - 1).
000230:    5612           50000                           INDEX    A
000231:    5613           30000                           CA       0                                     #  C(ABOVE).
000232:    5614           54001                           TS       L                                     #  SAVE DATA.
000233:    5615           30061                           CA       ITEMP1
000234:    5616           50002                           INDEX    Q
000235:    5617           60001                           AD       1                                     #  ADRES (M + N - 1).
000236:    5620           50000                           INDEX    A
000237:    5621           22000                           LXCH     0                                     #  STUFF IT.
000238:    5622           10061                           CCS      ITEMP1                                #  LOOP UNTIL N-1 = 0.
000239:    5623           15607                           TCF      GENTRAN    +1
000240:    5624           16710                           TCF      Q+2                                   #  RETURN TO CALLER.
000241:


000243:                                                                                                  #  B5OFF         ZERO BIT 5 OF EXTVBACT, WHICH IS SET BY TESTXACT.
000244:                                                                                                  #  MAY BE USED AS NEEDED BY ANY EXTENDED VERB WHICH HAS DONE TESTXACT
000245:
000246:    5625                                           COUNT*   $$/EXTVB
000247:
000248:    5625           45013        B5OFF              CS       BIT5
000249:    5626           71044                           MASK     EXTVBACT
000250:    5627           55044                           TS       EXTVBACT
000251:    5630           05217                           TC       ENDOFJOB
000252:


000254:                                                                                                  #  SUBROUTINES TO TURN OFF AND TURN ON TRACKER FAIL LIGHT.
000255:
000256:    5631           00004        TRFAILOF           INHINT
000257:    5632           47704                           CS       OCT40200                              #  TURN OFF TRACKER LIGHT
000258:    5633           71036                           MASK     DSPTAB     +11D
000259:    5634           65001                           AD       BIT15
000260:    5635           55036                           TS       DSPTAB     +11D
000261:    5636           41331                           CS       OPTMODES                              #  TO INSURE THAT OCDU FAIL WILL GO ON
000262:    5637           75011                           MASK     BIT7                                  #  AGAIN IF IT WAS ON IN ADDITION TO
000263:    5640           27331                           ADS      OPTMODES                              #  TRACKER FAIL.
000264:
000265:    5641           00003        REQ                RELINT
000266:    5642           00002                           TC       Q
000267:
000268:    5643           00004        TRFAILON           INHINT
000269:    5644           41036                           CS       DSPTAB     +11D                       #  TURN ON
000270:    5645           77704                           MASK     OCT40200
000271:    5646           27036                           ADS      DSPTAB     +11D
000272:    5647           15641                           TCF      REQ
000273:
000274:
000275:
000276:

End of include-file SERVICE_ROUTINES.agc.  Parent file is MAIN.agc


