
Source Code


000002:                                                                                                  ## Copyright:   Public domain.
000003:                                                                                                  ## Filename:    SINGLE_PRECISION_SUBROUTINES.agc
000004:                                                                                                  ## Purpose:     Part of the source code for Colossus 2A, AKA Comanche 055.
000005:                                                                                                  ##              It is part of the source code for the Command Module's (CM)
000006:                                                                                                  ##              Apollo Guidance Computer (AGC), for Apollo 11.
000007:                                                                                                  ## Assembler:   yaYUL
000008:                                                                                                  ## Contact:     Ron Burkey <info@sandroid.org>.
000009:                                                                                                  ## Website:     www.ibiblio.org/apollo.
000010:                                                                                                  ## Pages:       1207
000011:                                                                                                  ## Mod history: 2009-05-13 RSB  Adapted from the Colossus249/ file of the
000012:                                                                                                  ##                              same name, using Comanche055 page images.
000013:                                                                                                  ##              2016-12-21 RSB  Proofed comment text using octopus/ProoferComments
000014:                                                                                                  ##                              and corrected the errors found.
000015:                                                                                                  ##
000016:                                                                                                  ## This source code has been transcribed or otherwise adapted from digitized
000017:                                                                                                  ## images of a hardcopy from the MIT Museum.  The digitization was performed
000018:                                                                                                  ## by Paul Fjeld, and arranged for by Deborah Douglas of the Museum.  Many
000019:                                                                                                  ## thanks to both.  The images (with suitable reduction in storage size and
000020:                                                                                                  ## consequent reduction in image quality as well) are available online at
000021:                                                                                                  ## www.ibiblio.org/apollo.  If for some reason you find that the images are
000022:                                                                                                  ## illegible, contact me at info@sandroid.org about getting access to the
000023:                                                                                                  ## (much) higher-quality images which Paul actually created.
000024:                                                                                                  ##
000025:                                                                                                  ## Notations on the hardcopy document read, in part:
000026:                                                                                                  ##
000027:                                                                                                  ##      Assemble revision 055 of AGC program Comanche by NASA
000028:                                                                                                  ##      2021113-051.  10:28 APR. 1, 1969
000029:                                                                                                  ##
000030:                                                                                                  ##      This AGC program shall also be referred to as
000031:                                                                                                  ##                      Colossus 2A
000032:


000034:    5074                                           BLOCK    02
000035:
000036:                                                                                                  #  SINGLE PRECISION SINE AND COSINE
000037:
000038:    5074                                           COUNT    02/INTER
000039:
000040:    5074           65002        SPCOS              AD       HALF                                  #  ARGUMENTS SCALED AT PI
000041:    5075           55075        SPSIN              TS       TEMK
000042:    5076           15100                           TCF      SPT
000043:    5077           41075                           CS       TEMK
000044:    5100           60000        SPT                DOUBLE
000045:    5101           55075                           TS       TEMK
000046:    5102           15113                           TCF      POLLEY
000047:    5103           57075                           XCH      TEMK
000048:    5104           51075                           INDEX    TEMK
000049:    5105           65000                           AD       LIMITS
000050:    5106           40000                           COM
000051:    5107           61075                           AD       TEMK
000052:    5110           55075                           TS       TEMK
000053:    5111           15113                           TCF      POLLEY
000054:    5112           15131                           TCF      ARG90
000055:    5113           00006        POLLEY             EXTEND
000056:    5114           71075                           MP       TEMK
000057:    5115           55076                           TS       SQ
000058:    5116           00006                           EXTEND
000059:    5117           75047                           MP       C5/2
000060:    5120           67706                           AD       C3/2
000061:    5121           00006                           EXTEND
000062:    5122           71076                           MP       SQ
000063:    5123           67666                           AD       C1/2
000064:    5124           00006                           EXTEND
000065:    5125           71075                           MP       TEMK
000066:    5126           20001                           DDOUBL
000067:    5127           55075                           TS       TEMK
000068:    5130           00002                           TC       Q
000069:    5131           50000        ARG90              INDEX    A
000070:    5132           45000                           CS       LIMITS
000071:    5133           00002                           TC       Q                                     #  RESULT SCALED AT 1
000072:
000073:                                                                                                  #  SPROOT WAS DELETED IN REV 51 OF MASTER. ASS. CONT. HAS CARDS.
000074:
000075:
000076:
000077:

End of include-file SINGLE_PRECISION_SUBROUTINES.agc.  Parent file is MAIN.agc


