
Source Code
000001:                                                                                                 #  Copyright:     Public domain.
000002:                                                                                                 #  Filename:      SINGLE_PRECISION_SUBROUTINES.agc
000003:                                                                                                 #  Purpose:       Part of the source code for Colossus 2A, AKA Comanche 055.
000004:                                                                                                 #                 It is part of the source code for the Command Module's (CM)
000005:                                                                                                 #                 Apollo Guidance Computer (AGC), for Apollo 11.
000006:                                                                                                 #  Assembler:     yaYUL
000007:                                                                                                 #  Contact:       Ron Burkey <info@sandroid.org>.
000008:                                                                                                 #  Website:       www.ibiblio.org/apollo.
000009:                                                                                                 #  Pages: 1207
000010:                                                                                                 #  Mod history:   2009-05-13 RSB  Adapted from the Colossus249/ file of the
000011:                                                                                                 #                                 same name, using Comanche055 page images.
000012:
000013:                                                                                                 #  This source code has been transcribed or otherwise adapted from digitized
000014:                                                                                                 #  images of a hardcopy from the MIT Museum.  The digitization was performed
000015:                                                                                                 #  by Paul Fjeld, and arranged for by Deborah Douglas of the Museum.  Many
000016:                                                                                                 #  thanks to both.  The images (with suitable reduction in storage size and
000017:                                                                                                 #  consequent reduction in image quality as well) are available online at
000018:                                                                                                 #  www.ibiblio.org/apollo.  If for some reason you find that the images are
000019:                                                                                                 #  illegible, contact me at info@sandroid.org about getting access to the
000020:                                                                                                 #  (much) higher-quality images which Paul actually created.
000021:
000022:                                                                                                 #  Notations on the hardcopy document read, in part:
000023:
000024:                                                                                                 #         Assemble revision 055 of AGC program Comanche by NASA
000025:                                                                                                 #         2021113-051.  10:28 APR. 1, 1969
000026:
000027:                                                                                                 #         This AGC program shall also be referred to as
000028:                                                                                                 #                         Colossus 2A
000029:
000030:                                                                                                 #  Page 1207
000031:    5074                                          BLOCK    02
000032:
000033:                                                                                                 #  SINGLE PRECISION SINE AND COSINE
000034:
000035:    5074                                          COUNT    02/INTER
000036:
000037:    5074           65002        SPCOS             AD       HALF                                  #  ARGUMENTS SCALED AT PI
000038:    5075           55075        SPSIN             TS       TEMK
000039:    5076           15100                          TCF      SPT
000040:    5077           41075                          CS       TEMK
000041:    5100           60000        SPT               DOUBLE
000042:    5101           55075                          TS       TEMK
000043:    5102           15113                          TCF      POLLEY
000044:    5103           57075                          XCH      TEMK
000045:    5104           51075                          INDEX    TEMK
000046:    5105           65000                          AD       LIMITS
000047:    5106           40000                          COM
000048:    5107           61075                          AD       TEMK
000049:    5110           55075                          TS       TEMK
000050:    5111           15113                          TCF      POLLEY
000051:    5112           15131                          TCF      ARG90
000052:    5113           00006        POLLEY            EXTEND
000053:    5114           71075                          MP       TEMK
000054:    5115           55076                          TS       SQ
000055:    5116           00006                          EXTEND
000056:    5117           75047                          MP       C5/2
000057:    5120           67706                          AD       C3/2
000058:    5121           00006                          EXTEND
000059:    5122           71076                          MP       SQ
000060:    5123           67666                          AD       C1/2
000061:    5124           00006                          EXTEND
000062:    5125           71075                          MP       TEMK
000063:    5126           20001                          DDOUBL
000064:    5127           55075                          TS       TEMK
000065:    5130           00002                          TC       Q
000066:    5131           50000        ARG90             INDEX    A
000067:    5132           45000                          CS       LIMITS
000068:    5133           00002                          TC       Q                                     #  RESULT SCALED AT 1.
000069:
000070:                                                                                                 #  SPROOT WAS DELETED IN REV 51 OF MASTER. ASS. CONT. HAS CARDS.
000071:
000072:
000073:
000074:

End of include-file SINGLE_PRECISION_SUBROUTINES.agc.  Parent file is MAIN.agc


