
Source Code


000002:                                                                                                  #  Copyright:    Public domain.
000003:                                                                                                  #  Filename:     SINGLE_PRECISION_SUBROUTINES.agc
000004:                                                                                                  #  Purpose:      Part of the source code for Colossus 2A, AKA Comanche 055.
000005:                                                                                                  #                It is part of the source code for the Command Module's (CM)
000006:                                                                                                  #                Apollo Guidance Computer (AGC), for Apollo 11.
000007:                                                                                                  #  Assembler:    yaYUL
000008:                                                                                                  #  Contact:      Ron Burkey <info@sandroid.org>.
000009:                                                                                                  #  Website:      www.ibiblio.org/apollo.
000010:                                                                                                  #  Pages:        1207
000011:                                                                                                  #  Mod history:  2009-05-13 RSB  Adapted from the Colossus249/ file of the
000012:                                                                                                  #                                same name, using Comanche055 page images.
000013:
000014:                                                                                                  #  This source code has been transcribed or otherwise adapted from digitized
000015:                                                                                                  #  images of a hardcopy from the MIT Museum.  The digitization was performed
000016:                                                                                                  #  by Paul Fjeld, and arranged for by Deborah Douglas of the Museum.  Many
000017:                                                                                                  #  thanks to both.  The images (with suitable reduction in storage size and
000018:                                                                                                  #  consequent reduction in image quality as well) are available online at
000019:                                                                                                  #  www.ibiblio.org/apollo.  If for some reason you find that the images are
000020:                                                                                                  #  illegible, contact me at info@sandroid.org about getting access to the
000021:                                                                                                  #  (much) higher-quality images which Paul actually created.
000022:
000023:                                                                                                  #  Notations on the hardcopy document read, in part:
000024:
000025:                                                                                                  #        Assemble revision 055 of AGC program Comanche by NASA
000026:                                                                                                  #        2021113-051.  10:28 APR. 1, 1969
000027:
000028:                                                                                                  #        This AGC program shall also be referred to as
000029:                                                                                                  #                        Colossus 2A
000030:
000031:                                                                                                  #  Page 1207
000032:    5074                                           BLOCK    02
000033:
000034:                                                                                                  #  SINGLE PRECISION SINE AND COSINE
000035:
000036:    5074                                           COUNT    02/INTER
000037:
000038:    5074           65002        SPCOS              AD       HALF                                  #  ARGUMENTS SCALED AT PI
000039:    5075           55075        SPSIN              TS       TEMK
000040:    5076           15100                           TCF      SPT
000041:    5077           41075                           CS       TEMK
000042:    5100           60000        SPT                DOUBLE
000043:    5101           55075                           TS       TEMK
000044:    5102           15113                           TCF      POLLEY
000045:    5103           57075                           XCH      TEMK
000046:    5104           51075                           INDEX    TEMK
000047:    5105           65000                           AD       LIMITS
000048:    5106           40000                           COM
000049:    5107           61075                           AD       TEMK
000050:    5110           55075                           TS       TEMK
000051:    5111           15113                           TCF      POLLEY
000052:    5112           15131                           TCF      ARG90
000053:    5113           00006        POLLEY             EXTEND
000054:    5114           71075                           MP       TEMK
000055:    5115           55076                           TS       SQ
000056:    5116           00006                           EXTEND
000057:    5117           75047                           MP       C5/2
000058:    5120           67706                           AD       C3/2
000059:    5121           00006                           EXTEND
000060:    5122           71076                           MP       SQ
000061:    5123           67666                           AD       C1/2
000062:    5124           00006                           EXTEND
000063:    5125           71075                           MP       TEMK
000064:    5126           20001                           DDOUBL
000065:    5127           55075                           TS       TEMK
000066:    5130           00002                           TC       Q
000067:    5131           50000        ARG90              INDEX    A
000068:    5132           45000                           CS       LIMITS
000069:    5133           00002                           TC       Q                                     #  RESULT SCALED AT 1.
000070:
000071:                                                                                                  #  SPROOT WAS DELETED IN REV 51 OF MASTER. ASS. CONT. HAS CARDS.
000072:
000073:
000074:
000075:

End of include-file SINGLE_PRECISION_SUBROUTINES.agc.  Parent file is MAIN.agc


