
Source Code
000001:                                                                                                 #  Copyright:    Public domain.
000002:                                                                                                 #  Filename:     STABLE_ORBIT.agc
000003:                                                                                                 #  Purpose:      Part of the source code for Colossus 2A, AKA Comanche 055.
000004:                                                                                                 #                It is part of the source code for the Command Module's (CM)
000005:                                                                                                 #                Apollo Guidance Computer (AGC), for Apollo 11.
000006:                                                                                                 #  Assembler:    yaYUL
000007:                                                                                                 #  Contact:      Hartmuth Gutsche <hgutsche@xplornet.com>.
000008:                                                                                                 #  Website:      www.ibiblio.org/apollo.
000009:                                                                                                 #  Pages: 525-532
000010:                                                                                                 #  Mod history:  2009-05-10 HG    Started adapting from the Colossus249/ file
000011:                                                                                                 #                 of the same name, using Comanche055 page
000012:                                                                                                 #                 images 0525.jpg - 0532.jpg.
000013:
000014:                                                                                                 #  This source code has been transcribed or otherwise adapted from digitized
000015:                                                                                                 #  images of a hardcopy from the MIT Museum.  The digitization was performed
000016:                                                                                                 #  by Paul Fjeld, and arranged for by Deborah Douglas of the Museum.  Many
000017:                                                                                                 #  thanks to both.  The images (with suitable reduction in storage size and
000018:                                                                                                 #  consequent reduction in image quality as well) are available online at
000019:                                                                                                 #  www.ibiblio.org/apollo.  If for some reason you find that the images are
000020:                                                                                                 #  illegible, contact me at info@sandroid.org about getting access to the
000021:                                                                                                 #  (much) higher-quality images which Paul actually created.
000022:
000023:                                                                                                 #  Notations on the hardcopy document read, in part:
000024:
000025:                                                                                                 #     Assemble revision 055 of AGC program Comanche by NASA
000026:                                                                                                 #     2021113-051.  10:28 APR. 1, 1969
000027:
000028:                                                                                                 #     This AGC program shall also be referred to as
000029:                                                                                                 #             Colossus 2A
000030:                                                                                                 #  Page 525
000031:                                                                                                 #  STABLE ORBIT RENDEZVOUS PROGRAMS (P38 AND P78)
000032:
000033:                                                                                                 #  MOD NO -1              LOG SECTION - STABLE ORBIT - P38-P39
000034:                                                                                                 #  MOD BY RUDNICKI.S      DATE 25JAN68
000035:
000036:                                                                                                 #  FUNCTIONAL DESCRIPTION
000037:
000038:                                                                                                 #         P38 AND P78 CALCULATE THE REQUIRED DELTA V AND OTHER INITIAL
000039:                                                                                                 #         CONDITIONS REQUIRED BY THE AGC TO (1) PUT THE ACTIVE VEHICLE
000040:                                                                                                 #         ON A TRANSFER TRAJECTORY THAT INTERCEPTS THE PASSIVE VEHICLE
000041:                                                                                                 #         ORBIT A GIVEN DISTANCE, DELTA R, EITHER AHEAD OF OR BEHIND THE
000042:                                                                                                 #         PASSIVE VEHICLE AND (2) ACTUALLY PLACE THE ACTIVE VEHICLE IN THE
000043:                                                                                                 #         PASSIVE VEHICLE ORBIT WITH A DELTA R SEPARATION BETWEEN THE TWO
000044:                                                                                                 #         VEHICLES
000045:
000046:                                                                                                 #  CALLING SEQUENCE
000047:
000048:                                                                                                 #         ASTRONAUT REQUEST THRU DSKY
000049:
000050:                                                                                                 #         V37E38E         IF THIS VEHICLE IS ACTIVE VEHICLE
000051:                                                                                                 #         V37E78E         IF OTHER VEHICLE IS ACTIVE VEHICLE
000052:
000053:                                                                                                 #  INPUT
000054:
000055:                                                                                                 #         (1)     SOI MANEUVER
000056:
000057:                                                                                                 #                 (A)  TIG        TIME OF SOI MANEUVER
000058:                                                                                                 #                 (B)  CENTANG    ORBITAL CENTRAL ANGLE OF THE PASSIVE VEHICLE
000059:                                                                                                 #                                 DURING THE TRANSFER FROM TIG TO TIME OF INTERCEPT
000060:                                                                                                 #                 (C)  DELTAR     THE DESIRED SEPARATION OF THE TWO VEHICLES
000061:                                                                                                 #                                 SPECIFIED AS A DISTANCE ALONG THE PASSIVE VEHICLE
000062:                                                                                                 #                                 ORBIT
000063:                                                                                                 #                 (D)  OPTION     EQUALS 1 FOR SOI
000064:
000065:                                                                                                 #         (2)     SOR MANEUVER
000066:
000067:                                                                                                 #                 (A)  TIG        TIME OF SOR MANEUVER
000068:                                                                                                 #                 (B)  CENTANG    AN OPTIONAL RESPECIFICATION OF 1 (B) ABOVE
000069:                                                                                                 #                 (C)  OPTION     EQUALS 2 FOR SOR
000070:                                                                                                 #                 (D)  DELTTIME   THE TIME REQUIRED TO TRAVERSE DELTA R WHEN
000071:                                                                                                 #                                 TRAVELING AT A VELOCITY EQUAL TO THE HORIZONTAL
000072:                                                                                                 #                                 VELOCITY OF THE PASSIVE VEHICLE - SAVED FROM
000073:                                                                                                 #                                 SOI PHASE
000074:                                                                                                 #                 (E)  TINT       TIME OF INTERCEPT (SOI) - SAVED FROM SOI PHASE
000075:
000076:                                                                                                 #  OUTPUT
000077:
000078:                                                                                                 #         (1)  TRKMKCNT   NUMBER OF MARKS
000079:                                                                                                 #         (2)  TTOGO      TIME TO GO
000080:                                                                                                 #         (3)  +MGA       MIDDLE GIMBAL ANGLE
000081:                                                                                                 #  Page 526
000082:                                                                                                 #         (4)  DSPTEM1    TIME OF INTERCEPT OF PASSIVE VEHICLE ORBIT
000083:                                                                                                 #                         (FOR SOI ONLY)
000084:                                                                                                 #         (5)  POSTTPI    PERIGEE ALTITUDE OF ACTIVE VEHICLE ORBIT AFTER
000085:                                                                                                 #                         THE SOI (SOR) MANEUVER
000086:                                                                                                 #         (6)  DELVTPI    MAGNITUDE OF DELTA V AT SOI (SOR) TIME
000087:                                                                                                 #         (7)  DELVTPF    MAGNITUDE OF DELTA V AT INTERCEPT TIME
000088:                                                                                                 #         (8)  DELTA      VELOCITY AT SOI (AND SOR) - LOCAL VERTICAL
000089:                                                                                                 #                         CORDINATES
000090:
000091:                                                                                                 #  SUBROUTINES USED
000092:
000093:                                                                                                 #         AVFLAGA
000094:                                                                                                 #         AVFLAGP
000095:                                                                                                 #         VNDSPLY
000096:                                                                                                 #         BANKCALL
000097:                                                                                                 #         GOFLASHR
000098:                                                                                                 #         GOTOP00H
000099:                                                                                                 #         BLANKET
000100:                                                                                                 #         ENDOFJOB
000101:                                                                                                 #         PREC/TT
000102:                                                                                                 #         SELECTMU
000103:                                                                                                 #         INTRPVP
000104:                                                                                                 #         MAINRTNE
000105:
000106: 04,2742                                          BANK     04
000107: 04,2000                                          SETLOC   STBLEORB
000108: 04,2000                                          BANK
000109:
000110: 04,2742  E4,1770                                 EBANK=   SUBEXIT
000111: 04,2742                                          COUNT*   $$/P3879
000112:
000113: 04,2742           04627        P38               TC       AVFLAGA                               #  THIS VEHICLE ACTIVE
000114: 04,2743           02745                          TC       +2
000115: 04,2744           04642        P78               TC       AVFLAGP                               #  OTHER VEHICLE ACTIVE
000116: 04,2745           04647                          TC       P20FLGON                              #  SET UPDATFLG, TRACKFLG
000117: 04,2746           33274                          CAF      V06N33SR                              #  DISPLAY TIG
000118: 04,2747           03263                          TC       VNDSPLY
000119: 04,2750           33275                          CAF      V06N55SR                              #  DISPLAY CENTANG
000120: 04,2751           04662                          TCR      BANKCALL
000121: 04,2752           21057                          CADR     GOFLASHR
000122: 04,2753           14106                          TCF      GOTOP00H                              #  TERMINATE
000123: 04,2754           12761                          TCF      +5                                    #  PROCEED
000124: 04,2755           12750                          TCF      -5                                    #  RECYCLE
000125: 04,2756           36214                          CAF      THREE                                 #  IMMEDIATE RETURN -- BLANK R1, R2
000126: 04,2757           05526                          TCR      BLANKET
000127: 04,2760           15217                          TCF      ENDOFJOB
000128: 04,2761           35022                          CAF      FIVE
000129: 04,2762           55131                          TS       OPTION1
000130: 04,2763           35017                          CAF      ONE
000131: 04,2764           55132                          TS       OPTION2                               #  OPTION CODE IS SET TO 1
000132:                                                                                                 #  Page 527
000133: 04,2765           33276                          CAF      V04N06SR                              #  DISPLAY OPTION CODE -1 = SOI, 2 = SOR
000134: 04,2766           04662                          TCR      BANKCALL
000135: 04,2767           21057                          CADR     GOFLASHR
000136: 04,2770           14106                          TCF      GOTOP00H                              #  TERMINATE
000137: 04,2771           12776                          TCF      +5                                    #  PROCEED
000138: 04,2772           12765                          TCF      -5                                    #  RECYCLE
000139: 04,2773           35015                          CAF      BIT3                                  #  IMMEDIATE RETURN -- BLANK R3
000140: 04,2774           05526                          TCR      BLANKET
000141: 04,2775           15217                          TCF      ENDOFJOB
000142: 04,2776           06006                          TC       INTPRET
000143: 04,2777           77731                          SSP
000144: 04,3000           03766                                   NN
000145: 04,3001           00002                                   2
000146: 04,3002           70535                          SLOAD    SR1
000147: 04,3003           01133                                   OPTION2
000148: 04,3004           71230                          BHIZ     DLOAD
000149: 04,3005           11013                                   OPTN1
000150: 04,3006           03656                                   TINT
000151: 04,3007           02611                          STORE    TINTSOI                               #  STORE FOR SOR PHASE
000152: 04,3010           77614                          CLRGO
000153: 04,3011           01230                                   OPTNSW                                #  OPTNSW: ON = SOI. OFF = SOR
000154: 04,3012           11042                                   JUNCTN1
000155: 04,3013           43014        OPTN1             SET      CLEAR                                 #  SOI
000156: 04,3014           01070                                   OPTNSW
000157: 04,3015           00670                                   UPDATFLG
000158: 04,3016           77624                          CALL
000159: 04,3017           11216                                   PREC/TT
000160: 04,3020           43214                          SET      DAD
000161: 04,3021           00470                                   UPDATFLG
000162: 04,3022           03413                                   TIG
000163: 04,3023           03656                          STORE    TINT                                  #  TI = TIG + TF
000164: 04,3024           01046                          STORE    DSPTEM1                               #  FOR DISPLAY
000165: 04,3025           77776                          EXIT
000166: 04,3026           33277                          CAF      V06N57SR                              #  DISPLAY DELTA R
000167: 04,3027           04662                          TCR      BANKCALL
000168: 04,3030           21057                          CADR     GOFLASHR
000169: 04,3031           14106                          TCF      GOTOP00H                              #  TERMINATE
000170: 04,3032           13037                          TCF      +5                                    #  PROCEED
000171: 04,3033           13026                          TCF      -5                                    #  RECYCLE
000172: 04,3034           36211                          CAF      SIX                                   #  IMMEDIATE RETURN - BLANK R2, R3
000173: 04,3035           05526                          TCR      BLANKET
000174: 04,3036           15217                          TCF      ENDOFJOB
000175: 04,3037           33300                          CAF      V06N34SR                              #  DISPLAY TIME OF INTERCEPT
000176: 04,3040           03263                          TC       VNDSPLY
000177: 04,3041           06006                          TC       INTPRET
000178: 04,3042           45014        JUNCTN1           CLEAR    CALL
000179: 04,3043           04266                                   P39/79SW
000180: 04,3044           10712                                   SELECTMU                              #  SELECT MU, CLEAR FINALFLG, GO TO VN1645
000181: 04,3045           77624        RECYCLE           CALL
000182: 04,3046           11216                                   PREC/TT
000183:                                                                                                 #  Page 528
000184: 04,3047           71214                          BOFF     DLOAD
000185: 04,3050           01350                                   OPTNSW
000186: 04,3051           11071                                   OPTN2
000187: 04,3052           03656                                   TINT
000188: 04,3053           34041                          STCALL   TDEC1                                 #  PRECISION UPDATE PASSIVE VEHICLE TO
000189: 04,3054           11247                                   INTRPVP                               #  INTERCEPT TIME
000190: 04,3055           53575                          VLOAD    UNIT
000191: 04,3056           00001                                   RATT                                  #  RP/(RP)
000192: 04,3057           47315                          PDVL     VXV
000193: 04,3060           00007                                   VATT
000194: 04,3061           60246                          ABVAL    NORM                                  #  (VP X RP/(RP))
000195: 04,3062           00047                                   X1
000196: 04,3063           56325                          PDDL     DDV
000197: 04,3064           02611                                   DELTAR
000198: 04,3065           77657                          SL*                                            #  DELTA R / (VP X RP/RP)
000199: 04,3066           20172                                   0          -7,1
000200: 04,3067           36613                          STCALL   DELTTIME                              #  DELTA T = (RP) DELTA R / (VP X RP)
000201: 04,3070           11075                                   JUNCTN2
000202: 04,3071           43345        OPTN2             DLOAD    DAD
000203: 04,3072           02611                                   TINTSOI
000204: 04,3073           00037                                   T
000205: 04,3074           03656                          STORE    TINT                                  #  TI = TI + TF
000206: 04,3075           45345        JUNCTN2           DLOAD    DSU
000207: 04,3076           03656                                   TINT
000208: 04,3077           02613                                   DELTTIME
000209: 04,3100           02615                          STORE    TARGTIME                              #  TT = TI - DELTA T
000210:
000211:                                                                                                 #  .... MAINRTNE ....
000212:
000213:                                                                                                 #  SUBROUTINES USED
000214:
000215:                                                                                                 #         S3435.25
000216:                                                                                                 #         PERIAPO1
000217:                                                                                                 #         SHIFTR1
000218:                                                                                                 #         VNDSPLY
000219:                                                                                                 #         BANKCALL
000220:                                                                                                 #         GOFLASH
000221:                                                                                                 #         GOTOP00H
000222:                                                                                                 #         VN1645
000223:
000224: 04,3101           34041        MAINRTNE          STCALL   TDEC1                                 #  PRECISION UPDATE PASSIVE VEHICLE TO
000225: 04,3102           11247                                   INTRPVP                               #         TARGET TIME
000226: 04,3103           77745                          DLOAD
000227: 04,3104           03413                                   TIG
000228: 04,3105           03503                          STORE    INTIME
000229: 04,3106           77331                          SSP      VLOAD
000230: 04,3107           02371                                   SUBEXIT
000231: 04,3110           11114                                   TEST3979
000232: 04,3111           00001                                   RATT
000233: 04,3112           77624                          CALL
000234: 04,3113           72546                                   S3435.25
000235: 04,3114           43014        TEST3979          BOFF     BON
000236:                                                                                                 #  Page 529
000237: 04,3115           04346                                   P39/79SW
000238: 04,3116           11125                                   MAINRTN1
000239: 04,3117           01311                                   FINALFLG
000240: 04,3120           11123                                   P39P79
000241: 04,3121           77614                          SET
000242: 04,3122           00470                                   UPDATFLG
000243: 04,3123           77776        P39P79            EXIT
000244: 04,3124           03152                          TC       DSPLY81                               #  FOR P39 AND P79
000245: 04,3125           51575        MAINRTN1          VLOAD    ABVAL
000246: 04,3126           03646                                   DELVEET3
000247: 04,3127           26635                          STOVL    DELVTPI                               #  DELTA V
000248: 04,3130           03640                                   VPASS4
000249: 04,3131           51451                          VSU      ABVAL
000250: 04,3132           03620                                   VTPRIME
000251: 04,3133           26637                          STOVL    DELVTPF                               #  DELTA V (FINAL) = V-T - VT
000252: 04,3134           03540                                   RACT3
000253: 04,3135           45115                          PDVL     CALL
000254: 04,3136           03612                                   VIPRIME
000255: 04,3137           45153                                   PERIAPO1                              #  GET PERIGEE ALTITUDE
000256: 04,3140           77624                          CALL
000257: 04,3141           45263                                   SHIFTR1
000258: 04,3142           02641                          STORE    POSTTPI
000259: 04,3143           43014                          BON      SET
000260: 04,3144           01311                                   FINALFLG
000261: 04,3145           11147                                   DSPLY58
000262: 04,3146           00470                                   UPDATFLG
000263: 04,3147           77776        DSPLY58           EXIT
000264: 04,3150           33301                          CAF      V06N58SR                              #  DISPLAY HP, DELTA V, DELTA V (FINAL)
000265: 04,3151           03263                          TC       VNDSPLY
000266: 04,3152           33302        DSPLY81           CAF      V06N81SR                              #  DISPLAY DELTA V (LV)
000267: 04,3153           03263                          TC       VNDSPLY
000268: 04,3154           06006                          TC       INTPRET
000269: 04,3155           77214                          CLEAR    VLOAD
000270: 04,3156           01267                                   XDELVFLG
000271: 04,3157           03646                                   DELVEET3
000272: 04,3160           37646                          STCALL   DELVSIN
000273: 04,3161           73002                                   VN1645                                #  DISPLAY TRKMKCNT, TTOGO, +MGA
000274: 04,3162           52014                          BON      GOTO
000275: 04,3163           04306                                   P39/79SW
000276: 04,3164           11203                                   P39/P79B
000277: 04,3165           11045                                   RECYCLE
000278:
000279:                                                                                                 #  STABLE ORBIT MIDCOURSE PROGRAM (P39 AND P79)
000280:
000281:                                                                                                 #  MOD NO -1              LOG SECTION - STABLE ORBIT - P38-P39
000282:                                                                                                 #  MOD BY RUDNICKI, S     DATE 25JAN68
000283:
000284:                                                                                                 #  FUNCTIONAL DESCRIPTION
000285:
000286:                                                                                                 #         P39 AND P79 CALCULATE THE REQUIRED DELTA V AND OTHER INITIAL
000287:                                                                                                 #         CONDITIONS REQUIRED BY THE AGC TO MAKE A MIDCOURSE CORRECTION
000288:                                                                                                 #  Page 530
000289:                                                                                                 #         MANEUVER AFTER COMPLETING THE SOI MANEUVER BUT BEFORE MAKING
000290:                                                                                                 #         THE SOR MANEUVER.
000291:
000292:                                                                                                 #  CALLING SEQUENCE
000293:
000294:                                                                                                 #         ASTRONAUT REQUEST THRU DSKY
000295:
000296:                                                                                                 #         V37E39E         IF THIS VEHICLE IS ACTIVE VEHICLE
000297:                                                                                                 #         V37E79E         IF OTHER VEHICLE IS ACTIVE VEHICLE
000298:
000299:                                                                                                 #  INPUT
000300:
000301:                                                                                                 #         (1)  TPASS4     TIME OF INTERCEPT -- SAVED FROM P38/P78
000302:                                                                                                 #         (2)  TARGTIME   TIME THAT PASSIVE VEHICLE IS AT INTERCEPT POINT --
000303:                                                                                                 #                         SAVED FROM P38/P78
000304:
000305:                                                                                                 #  OUTPUT
000306:
000307:                                                                                                 #         (1)  TRKMKCNT   NUMBER OF MARKS
000308:                                                                                                 #         (2)  TTOGO      TIME TO GO
000309:                                                                                                 #         (3)  +MGA       MIDDLE GIMBAL ANGLE
000310:                                                                                                 #         (4)  DELVLVC    DELTA VELOCITY AT MID -- LOCAL VERTICAL COORDINATES
000311:
000312:                                                                                                 #  SUBROUTINES USED
000313:
000314:                                                                                                 #         AVFLAGA
000315:                                                                                                 #         AVFLAGP
000316:                                                                                                 #         LOADTIME
000317:                                                                                                 #         SELECTMU
000318:                                                                                                 #         PRECSET
000319:                                                                                                 #         S34/35.1
000320:                                                                                                 #         MAINRTNE
000321:
000322: 04,3166           04627        P39               TC       AVFLAGA                               #  THIS VEHICLE ACTIVE
000323: 04,3167           00006                          EXTEND
000324: 04,3170           31422                          DCA      ATIGINC
000325: 04,3171           03175                          TC       P39/P79A
000326: 04,3172           04642        P79               TC       AVFLAGP                               #  OTHER VEHICLE ACTIVE
000327: 04,3173           00006                          EXTEND
000328: 04,3174           31424                          DCA      PTIGINC
000329: 04,3175           53764        P39/P79A          DXCH     KT                                    #  TIME TO PREPARE FOR BURN
000330: 04,3176           04647                          TC       P20FLGON                              #  SET UPDATFLG, TRACKFLG
000331: 04,3177           06006                          TC       INTPRET
000332: 04,3200           45014                          SET      CALL
000333: 04,3201           04066                                   P39/79SW
000334: 04,3202           10712                                   SELECTMU                              #  SELECT MU, CLEAR FINALFLG, GO TO VN1645
000335: 04,3203           43234        P39/P79B          RTB      DAD
000336: 04,3204           45510                                   LOADTIME
000337: 04,3205           02364                                   KT
000338: 04,3206           03413                          STORE    TIG                                   #  TIG = T (PRESENT) + PREPARATION TIME
000339:                                                                                                 #  Page531
000340: 04,3207           34041                          STCALL   TDEC1                                 #  PRECISION UPDATE ACTIVE AND PASSIVE
000341: 04,3210           45215                                   PRECSET                               #         VEHICLES TO TIG
000342: 04,3211           77624                          CALL
000343: 04,3212           74000                                   S34/35.1                              #  GET UNIT NORMAL
000344: 04,3213           52145                          DLOAD    GOTO
000345: 04,3214           02615                                   TARGTIME
000346: 04,3215           11101                                   MAINRTNE                              #  CALCULATE DELTA V AND DELTA V (LV)
000347:
000348:                                                                                                 #  .... PREC/TT ....
000349:
000350:                                                                                                 #  SUBROUTINES USED
000351:
000352:                                                                                                 #         PRECSET
000353:                                                                                                 #         TIMETHET
000354:                                                                                                 #         S34/35.1
000355:
000356: 04,3216           71220        PREC/TT           STQ      DLOAD
000357: 04,3217           02367                                   RTRN
000358: 04,3220           03413                                   TIG
000359: 04,3221           34041                          STCALL   TDEC1                                 #  PRECISION UPDATE ACTIVE AND PASSIVE
000360: 04,3222           45215                                   PRECSET                               #         VEHICLES TO TIG
000361: 04,3223           53775                          VLOAD    VSR*
000362: 04,3224           03554                                   RPASS3
000363: 04,3225           57176                                   0,2
000364: 04,3226           16657                          STODL    RVEC
000365: 04,3227           03754                                   CENTANG
000366: 04,3230           71406                          PUSH     COS
000367: 04,3231           16734                          STODL    CSTH
000368: 04,3232           43156                          SIN      SET
000369: 04,3233           03466                                   RVSW
000370: 04,3234           26732                          STOVL    SNTH
000371: 04,3235           03562                                   VPASS3
000372: 04,3236           77657                          VSR*
000373: 04,3237           57176                                   0,2
000374: 04,3240           36746                          STCALL   VVEC                                  #  GET TRANSFER TIME BASED ON CENTANG OF
000375: 04,3241           24744                                   TIMETHET                              #         PASSIVE VEHICLE
000376: 04,3242           77624                          CALL
000377: 04,3243           74000                                   S34/35.1                              #  GET UNIT NORMAL
000378: 04,3244           52145                          DLOAD    GOTO
000379: 04,3245           00037                                   T
000380: 04,3246           02367                                   RTRN
000381:
000382:                                                                                                 #  .... INTRPVP ....
000383:
000384:                                                                                                 #  SUBROUTINES USED
000385:
000386:                                                                                                 #         CSMPREC
000387:                                                                                                 #         LEMPREC
000388:
000389: 04,3247           43020        INTRPVP           STQ      BOFF                                  #  PRECISION UPDATE PASSIVE VEHICLE TO
000390: 04,3250           02367                                   RTRN                                  #         TDEC1
000391: 04,3251           01352                                   AVFLAG
000392: 04,3252           11257                                   OTHERV
000393: 04,3253           77624                          CALL
000394:                                                                                                 #  Page 532
000395: 04,3254           27071                                   CSMPREC
000396: 04,3255           77650                          GOTO
000397: 04,3256           02367                                   RTRN
000398: 04,3257           77624        OTHERV            CALL
000399: 04,3260           27105                                   LEMPREC
000400: 04,3261           77650                          GOTO
000401: 04,3262           02367                                   RTRN
000402:
000403:                                                                                                 #  .... VNDSPLY ....
000404:
000405:                                                                                                 #  SUBROUTINES USED
000406:
000407:                                                                                                 #         BANKCALL
000408:                                                                                                 #         GOFLASH
000409:                                                                                                 #         GOTOP00H
000410:
000411: 04,3263           00006        VNDSPLY           EXTEND                                         #  FLASH DISPLAY
000412: 04,3264           23767                          QXCH     RTRN
000413: 04,3265           55765                          TS       VERBNOUN
000414: 04,3266           31765                          CA       VERBNOUN
000415: 04,3267           04662                          TCR      BANKCALL
000416: 04,3270           20720                          CADR     GOFLASH
000417: 04,3271           14106                          TCF      GOTOP00H                              #  TERMINATE
000418: 04,3272           01767                          TC       RTRN                                  #  PROCEED
000419: 04,3273           13266                          TCF      -5                                    #  RECYCLE
000420: 04,3274           01441        V06N33SR          VN       0633
000421: 04,3275           01467        V06N55SR          VN       0655
000422: 04,3276           01006        V04N06SR          VN       0406
000423: 04,3277           01471        V06N57SR          VN       0657
000424: 04,3300           01442        V06N34SR          VN       0634
000425: 04,3301           01472        V06N58SR          VN       0658
000426: 04,3302           01521        V06N81SR          VN       0681
000427:
000428:                                                                                                 #  *** END OF COMEKISS.020 ***

End of include-file STABLE_ORBIT.agc.  Parent file is MAIN.agc


