
Source Code


000002:                                                                                                  #  Copyright:    Public domain.
000003:                                                                                                  #  Filename:     STABLE_ORBIT.agc
000004:                                                                                                  #  Purpose:      Part of the source code for Colossus 2A, AKA Comanche 055.
000005:                                                                                                  #                It is part of the source code for the Command Module's (CM)
000006:                                                                                                  #                Apollo Guidance Computer (AGC), for Apollo 11.
000007:                                                                                                  #  Assembler:    yaYUL
000008:                                                                                                  #  Contact:      Hartmuth Gutsche <hgutsche@xplornet.com>.
000009:                                                                                                  #  Website:      www.ibiblio.org/apollo.
000010:                                                                                                  #  Pages:        525-532
000011:                                                                                                  #  Mod history:  2009-05-10 HG   Started adapting from the Colossus249/ file
000012:                                                                                                  #                                of the same name, using Comanche055 page
000013:                                                                                                  #                                images 0525.jpg - 0532.jpg.
000014:                                                                                                  #                2010-08-20 JL   Fixed page number comment (p531).
000015:
000016:                                                                                                  #  This source code has been transcribed or otherwise adapted from digitized
000017:                                                                                                  #  images of a hardcopy from the MIT Museum.  The digitization was performed
000018:                                                                                                  #  by Paul Fjeld, and arranged for by Deborah Douglas of the Museum.  Many
000019:                                                                                                  #  thanks to both.  The images (with suitable reduction in storage size and
000020:                                                                                                  #  consequent reduction in image quality as well) are available online at
000021:                                                                                                  #  www.ibiblio.org/apollo.  If for some reason you find that the images are
000022:                                                                                                  #  illegible, contact me at info@sandroid.org about getting access to the
000023:                                                                                                  #  (much) higher-quality images which Paul actually created.
000024:
000025:                                                                                                  #  Notations on the hardcopy document read, in part:
000026:
000027:                                                                                                  #     Assemble revision 055 of AGC program Comanche by NASA
000028:                                                                                                  #     2021113-051.  10:28 APR. 1, 1969
000029:
000030:                                                                                                  #     This AGC program shall also be referred to as
000031:                                                                                                  #             Colossus 2A


000033:                                                                                                  #  STABLE ORBIT RENDEZVOUS PROGRAMS (P38 AND P78)
000034:
000035:                                                                                                  #  MOD NO -1             LOG SECTION - STABLE ORBIT - P38-P39
000036:                                                                                                  #  MOD BY RUDNICKI.S     DATE 25JAN68
000037:
000038:                                                                                                  #  FUNCTIONAL DESCRIPTION
000039:
000040:                                                                                                  #        P38 AND P78 CALCULATE THE REQUIRED DELTA V AND OTHER INITIAL
000041:                                                                                                  #        CONDITIONS REQUIRED BY THE AGC TO (1) PUT THE ACTIVE VEHICLE
000042:                                                                                                  #        ON A TRANSFER TRAJECTORY THAT INTERCEPTS THE PASSIVE VEHICLE
000043:                                                                                                  #        ORBIT A GIVEN DISTANCE, DELTA R, EITHER AHEAD OF OR BEHIND THE
000044:                                                                                                  #        PASSIVE VEHICLE AND (2) ACTUALLY PLACE THE ACTIVE VEHICLE IN THE
000045:                                                                                                  #        PASSIVE VEHICLE ORBIT WITH A DELTA R SEPARATION BETWEEN THE TWO
000046:                                                                                                  #        VEHICLES
000047:
000048:                                                                                                  #  CALLING SEQUENCE
000049:
000050:                                                                                                  #        ASTRONAUT REQUEST THRU DSKY
000051:
000052:                                                                                                  #        V37E38E         IF THIS VEHICLE IS ACTIVE VEHICLE
000053:                                                                                                  #        V37E78E         IF OTHER VEHICLE IS ACTIVE VEHICLE
000054:
000055:                                                                                                  #  INPUT
000056:
000057:                                                                                                  #        (1)     SOI MANEUVER
000058:
000059:                                                                                                  #                (A)  TIG        TIME OF SOI MANEUVER
000060:                                                                                                  #                (B)  CENTANG    ORBITAL CENTRAL ANGLE OF THE PASSIVE VEHICLE
000061:                                                                                                  #                                DURING THE TRANSFER FROM TIG TO TIME OF INTERCEPT
000062:                                                                                                  #                (C)  DELTAR     THE DESIRED SEPARATION OF THE TWO VEHICLES
000063:                                                                                                  #                                SPECIFIED AS A DISTANCE ALONG THE PASSIVE VEHICLE
000064:                                                                                                  #                                ORBIT
000065:                                                                                                  #                (D)  OPTION     EQUALS 1 FOR SOI
000066:
000067:                                                                                                  #        (2)     SOR MANEUVER
000068:
000069:                                                                                                  #                (A)  TIG        TIME OF SOR MANEUVER
000070:                                                                                                  #                (B)  CENTANG    AN OPTIONAL RESPECIFICATION OF 1 (B) ABOVE
000071:                                                                                                  #                (C)  OPTION     EQUALS 2 FOR SOR
000072:                                                                                                  #                (D)  DELTTIME   THE TIME REQUIRED TO TRAVERSE DELTA R WHEN
000073:                                                                                                  #                                TRAVELING AT A VELOCITY EQUAL TO THE HORIZONTAL
000074:                                                                                                  #                                VELOCITY OF THE PASSIVE VEHICLE - SAVED FROM
000075:                                                                                                  #                                SOI PHASE
000076:                                                                                                  #                (E)  TINT       TIME OF INTERCEPT (SOI) - SAVED FROM SOI PHASE
000077:
000078:                                                                                                  #  OUTPUT
000079:
000080:                                                                                                  #        (1)  TRKMKCNT   NUMBER OF MARKS
000081:                                                                                                  #        (2)  TTOGO      TIME TO GO
000082:                                                                                                  #        (3)  +MGA       MIDDLE GIMBAL ANGLE


000084:                                                                                                  #        (4)  DSPTEM1    TIME OF INTERCEPT OF PASSIVE VEHICLE ORBIT
000085:                                                                                                  #                        (FOR SOI ONLY)
000086:                                                                                                  #        (5)  POSTTPI    PERIGEE ALTITUDE OF ACTIVE VEHICLE ORBIT AFTER
000087:                                                                                                  #                        THE SOI (SOR) MANEUVER
000088:                                                                                                  #        (6)  DELVTPI    MAGNITUDE OF DELTA V AT SOI (SOR) TIME
000089:                                                                                                  #        (7)  DELVTPF    MAGNITUDE OF DELTA V AT INTERCEPT TIME
000090:                                                                                                  #        (8)  DELTA      VELOCITY AT SOI (AND SOR) - LOCAL VERTICAL
000091:                                                                                                  #                        CORDINATES
000092:
000093:                                                                                                  #  SUBROUTINES USED
000094:
000095:                                                                                                  #        AVFLAGA
000096:                                                                                                  #        AVFLAGP
000097:                                                                                                  #        VNDSPLY
000098:                                                                                                  #        BANKCALL
000099:                                                                                                  #        GOFLASHR
000100:                                                                                                  #        GOTOP00H
000101:                                                                                                  #        BLANKET
000102:                                                                                                  #        ENDOFJOB
000103:                                                                                                  #        PREC/TT
000104:                                                                                                  #        SELECTMU
000105:                                                                                                  #        INTRPVP
000106:                                                                                                  #        MAINRTNE
000107:
000108: 04,2742                                           BANK     04
000109: 04,2000                                           SETLOC   STBLEORB
000110: 04,2000                                           BANK
000111:
000112: 04,2742  E4,1770                                  EBANK=   SUBEXIT
000113: 04,2742                                           COUNT*   $$/P3879
000114:
000115: 04,2742           04627        P38                TC       AVFLAGA                               #  THIS VEHICLE ACTIVE
000116: 04,2743           02745                           TC       +2
000117: 04,2744           04642        P78                TC       AVFLAGP                               #  OTHER VEHICLE ACTIVE
000118: 04,2745           04647                           TC       P20FLGON                              #  SET UPDATFLG, TRACKFLG
000119: 04,2746           33274                           CAF      V06N33SR                              #  DISPLAY TIG
000120: 04,2747           03263                           TC       VNDSPLY
000121: 04,2750           33275                           CAF      V06N55SR                              #  DISPLAY CENTANG
000122: 04,2751           04662                           TCR      BANKCALL
000123: 04,2752           21057                           CADR     GOFLASHR
000124: 04,2753           14106                           TCF      GOTOP00H                              #  TERMINATE
000125: 04,2754           12761                           TCF      +5                                    #  PROCEED
000126: 04,2755           12750                           TCF      -5                                    #  RECYCLE
000127: 04,2756           36214                           CAF      THREE                                 #  IMMEDIATE RETURN -- BLANK R1, R2
000128: 04,2757           05526                           TCR      BLANKET
000129: 04,2760           15217                           TCF      ENDOFJOB
000130: 04,2761           35022                           CAF      FIVE
000131: 04,2762           55131                           TS       OPTION1
000132: 04,2763           35017                           CAF      ONE
000133: 04,2764           55132                           TS       OPTION2                               #  OPTION CODE IS SET TO 1


000135: 04,2765           33276                           CAF      V04N06SR                              #  DISPLAY OPTION CODE -1 = SOI, 2 = SOR
000136: 04,2766           04662                           TCR      BANKCALL
000137: 04,2767           21057                           CADR     GOFLASHR
000138: 04,2770           14106                           TCF      GOTOP00H                              #  TERMINATE
000139: 04,2771           12776                           TCF      +5                                    #  PROCEED
000140: 04,2772           12765                           TCF      -5                                    #  RECYCLE
000141: 04,2773           35015                           CAF      BIT3                                  #  IMMEDIATE RETURN -- BLANK R3
000142: 04,2774           05526                           TCR      BLANKET
000143: 04,2775           15217                           TCF      ENDOFJOB
000144: 04,2776           06006                           TC       INTPRET
000145: 04,2777           77731                           SSP
000146: 04,3000           03766                                    NN
000147: 04,3001           00002                                    2
000148: 04,3002           70535                           SLOAD    SR1
000149: 04,3003           01133                                    OPTION2
000150: 04,3004           71230                           BHIZ     DLOAD
000151: 04,3005           11013                                    OPTN1
000152: 04,3006           03656                                    TINT
000153: 04,3007           02611                           STORE    TINTSOI                               #  STORE FOR SOR PHASE
000154: 04,3010           77614                           CLRGO
000155: 04,3011           01230                                    OPTNSW                                #  OPTNSW: ON = SOI. OFF = SOR
000156: 04,3012           11042                                    JUNCTN1
000157: 04,3013           43014        OPTN1              SET      CLEAR                                 #  SOI
000158: 04,3014           01070                                    OPTNSW
000159: 04,3015           00670                                    UPDATFLG
000160: 04,3016           77624                           CALL
000161: 04,3017           11216                                    PREC/TT
000162: 04,3020           43214                           SET      DAD
000163: 04,3021           00470                                    UPDATFLG
000164: 04,3022           03413                                    TIG
000165: 04,3023           03656                           STORE    TINT                                  #  TI = TIG + TF
000166: 04,3024           01046                           STORE    DSPTEM1                               #  FOR DISPLAY
000167: 04,3025           77776                           EXIT
000168: 04,3026           33277                           CAF      V06N57SR                              #  DISPLAY DELTA R
000169: 04,3027           04662                           TCR      BANKCALL
000170: 04,3030           21057                           CADR     GOFLASHR
000171: 04,3031           14106                           TCF      GOTOP00H                              #  TERMINATE
000172: 04,3032           13037                           TCF      +5                                    #  PROCEED
000173: 04,3033           13026                           TCF      -5                                    #  RECYCLE
000174: 04,3034           36211                           CAF      SIX                                   #  IMMEDIATE RETURN - BLANK R2, R3
000175: 04,3035           05526                           TCR      BLANKET
000176: 04,3036           15217                           TCF      ENDOFJOB
000177: 04,3037           33300                           CAF      V06N34SR                              #  DISPLAY TIME OF INTERCEPT
000178: 04,3040           03263                           TC       VNDSPLY
000179: 04,3041           06006                           TC       INTPRET
000180: 04,3042           45014        JUNCTN1            CLEAR    CALL
000181: 04,3043           04266                                    P39/79SW
000182: 04,3044           10712                                    SELECTMU                              #  SELECT MU, CLEAR FINALFLG, GO TO VN1645
000183: 04,3045           77624        RECYCLE            CALL
000184: 04,3046           11216                                    PREC/TT


000186: 04,3047           71214                           BOFF     DLOAD
000187: 04,3050           01350                                    OPTNSW
000188: 04,3051           11071                                    OPTN2
000189: 04,3052           03656                                    TINT
000190: 04,3053           34041                           STCALL   TDEC1                                 #  PRECISION UPDATE PASSIVE VEHICLE TO
000191: 04,3054           11247                                    INTRPVP                               #  INTERCEPT TIME
000192: 04,3055           53575                           VLOAD    UNIT
000193: 04,3056           00001                                    RATT                                  #  RP/(RP)
000194: 04,3057           47315                           PDVL     VXV
000195: 04,3060           00007                                    VATT
000196: 04,3061           60246                           ABVAL    NORM                                  #  (VP X RP/(RP))
000197: 04,3062           00047                                    X1
000198: 04,3063           56325                           PDDL     DDV
000199: 04,3064           02611                                    DELTAR
000200: 04,3065           77657                           SL*                                            #  DELTA R / (VP X RP/RP)
000201: 04,3066           20172                                    0          -7,1
000202: 04,3067           36613                           STCALL   DELTTIME                              #  DELTA T = (RP) DELTA R / (VP X RP)
000203: 04,3070           11075                                    JUNCTN2
000204: 04,3071           43345        OPTN2              DLOAD    DAD
000205: 04,3072           02611                                    TINTSOI
000206: 04,3073           00037                                    T
000207: 04,3074           03656                           STORE    TINT                                  #  TI = TI + TF
000208: 04,3075           45345        JUNCTN2            DLOAD    DSU
000209: 04,3076           03656                                    TINT
000210: 04,3077           02613                                    DELTTIME
000211: 04,3100           02615                           STORE    TARGTIME                              #  TT = TI - DELTA T
000212:
000213:                                                                                                  #  .... MAINRTNE ....
000214:
000215:                                                                                                  #  SUBROUTINES USED
000216:
000217:                                                                                                  #        S3435.25
000218:                                                                                                  #        PERIAPO1
000219:                                                                                                  #        SHIFTR1
000220:                                                                                                  #        VNDSPLY
000221:                                                                                                  #        BANKCALL
000222:                                                                                                  #        GOFLASH
000223:                                                                                                  #        GOTOP00H
000224:                                                                                                  #        VN1645
000225:
000226: 04,3101           34041        MAINRTNE           STCALL   TDEC1                                 #  PRECISION UPDATE PASSIVE VEHICLE TO
000227: 04,3102           11247                                    INTRPVP                               #        TARGET TIME
000228: 04,3103           77745                           DLOAD
000229: 04,3104           03413                                    TIG
000230: 04,3105           03503                           STORE    INTIME
000231: 04,3106           77331                           SSP      VLOAD
000232: 04,3107           02371                                    SUBEXIT
000233: 04,3110           11114                                    TEST3979
000234: 04,3111           00001                                    RATT
000235: 04,3112           77624                           CALL
000236: 04,3113           72546                                    S3435.25
000237: 04,3114           43014        TEST3979           BOFF     BON


000239: 04,3115           04346                                    P39/79SW
000240: 04,3116           11125                                    MAINRTN1
000241: 04,3117           01311                                    FINALFLG
000242: 04,3120           11123                                    P39P79
000243: 04,3121           77614                           SET
000244: 04,3122           00470                                    UPDATFLG
000245: 04,3123           77776        P39P79             EXIT
000246: 04,3124           03152                           TC       DSPLY81                               #  FOR P39 AND P79
000247: 04,3125           51575        MAINRTN1           VLOAD    ABVAL
000248: 04,3126           03646                                    DELVEET3
000249: 04,3127           26635                           STOVL    DELVTPI                               #  DELTA V
000250: 04,3130           03640                                    VPASS4
000251: 04,3131           51451                           VSU      ABVAL
000252: 04,3132           03620                                    VTPRIME
000253: 04,3133           26637                           STOVL    DELVTPF                               #  DELTA V (FINAL) = V-T - VT
000254: 04,3134           03540                                    RACT3
000255: 04,3135           45115                           PDVL     CALL
000256: 04,3136           03612                                    VIPRIME
000257: 04,3137           45153                                    PERIAPO1                              #  GET PERIGEE ALTITUDE
000258: 04,3140           77624                           CALL
000259: 04,3141           45263                                    SHIFTR1
000260: 04,3142           02641                           STORE    POSTTPI
000261: 04,3143           43014                           BON      SET
000262: 04,3144           01311                                    FINALFLG
000263: 04,3145           11147                                    DSPLY58
000264: 04,3146           00470                                    UPDATFLG
000265: 04,3147           77776        DSPLY58            EXIT
000266: 04,3150           33301                           CAF      V06N58SR                              #  DISPLAY HP, DELTA V, DELTA V (FINAL)
000267: 04,3151           03263                           TC       VNDSPLY
000268: 04,3152           33302        DSPLY81            CAF      V06N81SR                              #  DISPLAY DELTA V (LV)
000269: 04,3153           03263                           TC       VNDSPLY
000270: 04,3154           06006                           TC       INTPRET
000271: 04,3155           77214                           CLEAR    VLOAD
000272: 04,3156           01267                                    XDELVFLG
000273: 04,3157           03646                                    DELVEET3
000274: 04,3160           37646                           STCALL   DELVSIN
000275: 04,3161           73002                                    VN1645                                #  DISPLAY TRKMKCNT, TTOGO, +MGA
000276: 04,3162           52014                           BON      GOTO
000277: 04,3163           04306                                    P39/79SW
000278: 04,3164           11203                                    P39/P79B
000279: 04,3165           11045                                    RECYCLE
000280:
000281:                                                                                                  #  STABLE ORBIT MIDCOURSE PROGRAM (P39 AND P79)
000282:
000283:                                                                                                  #  MOD NO -1             LOG SECTION - STABLE ORBIT - P38-P39
000284:                                                                                                  #  MOD BY RUDNICKI, S    DATE 25JAN68
000285:
000286:                                                                                                  #  FUNCTIONAL DESCRIPTION
000287:
000288:                                                                                                  #        P39 AND P79 CALCULATE THE REQUIRED DELTA V AND OTHER INITIAL
000289:                                                                                                  #        CONDITIONS REQUIRED BY THE AGC TO MAKE A MIDCOURSE CORRECTION


000291:                                                                                                  #        MANEUVER AFTER COMPLETING THE SOI MANEUVER BUT BEFORE MAKING
000292:                                                                                                  #        THE SOR MANEUVER.
000293:
000294:                                                                                                  #  CALLING SEQUENCE
000295:
000296:                                                                                                  #        ASTRONAUT REQUEST THRU DSKY
000297:
000298:                                                                                                  #        V37E39E         IF THIS VEHICLE IS ACTIVE VEHICLE
000299:                                                                                                  #        V37E79E         IF OTHER VEHICLE IS ACTIVE VEHICLE
000300:
000301:                                                                                                  #  INPUT
000302:
000303:                                                                                                  #        (1)  TPASS4     TIME OF INTERCEPT -- SAVED FROM P38/P78
000304:                                                                                                  #        (2)  TARGTIME   TIME THAT PASSIVE VEHICLE IS AT INTERCEPT POINT --
000305:                                                                                                  #                        SAVED FROM P38/P78
000306:
000307:                                                                                                  #  OUTPUT
000308:
000309:                                                                                                  #        (1)  TRKMKCNT   NUMBER OF MARKS
000310:                                                                                                  #        (2)  TTOGO      TIME TO GO
000311:                                                                                                  #        (3)  +MGA       MIDDLE GIMBAL ANGLE
000312:                                                                                                  #        (4)  DELVLVC    DELTA VELOCITY AT MID -- LOCAL VERTICAL COORDINATES
000313:
000314:                                                                                                  #  SUBROUTINES USED
000315:
000316:                                                                                                  #        AVFLAGA
000317:                                                                                                  #        AVFLAGP
000318:                                                                                                  #        LOADTIME
000319:                                                                                                  #        SELECTMU
000320:                                                                                                  #        PRECSET
000321:                                                                                                  #        S34/35.1
000322:                                                                                                  #        MAINRTNE
000323:
000324: 04,3166           04627        P39                TC       AVFLAGA                               #  THIS VEHICLE ACTIVE
000325: 04,3167           00006                           EXTEND
000326: 04,3170           31422                           DCA      ATIGINC
000327: 04,3171           03175                           TC       P39/P79A
000328: 04,3172           04642        P79                TC       AVFLAGP                               #  OTHER VEHICLE ACTIVE
000329: 04,3173           00006                           EXTEND
000330: 04,3174           31424                           DCA      PTIGINC
000331: 04,3175           53764        P39/P79A           DXCH     KT                                    #  TIME TO PREPARE FOR BURN
000332: 04,3176           04647                           TC       P20FLGON                              #  SET UPDATFLG, TRACKFLG
000333: 04,3177           06006                           TC       INTPRET
000334: 04,3200           45014                           SET      CALL
000335: 04,3201           04066                                    P39/79SW
000336: 04,3202           10712                                    SELECTMU                              #  SELECT MU, CLEAR FINALFLG, GO TO VN1645
000337: 04,3203           43234        P39/P79B           RTB      DAD
000338: 04,3204           45510                                    LOADTIME
000339: 04,3205           02364                                    KT
000340: 04,3206           03413                           STORE    TIG                                   #  TIG = T (PRESENT) + PREPARATION TIME


000342: 04,3207           34041                           STCALL   TDEC1                                 #  PRECISION UPDATE ACTIVE AND PASSIVE
000343: 04,3210           45215                                    PRECSET                               #        VEHICLES TO TIG
000344: 04,3211           77624                           CALL
000345: 04,3212           74000                                    S34/35.1                              #  GET UNIT NORMAL
000346: 04,3213           52145                           DLOAD    GOTO
000347: 04,3214           02615                                    TARGTIME
000348: 04,3215           11101                                    MAINRTNE                              #  CALCULATE DELTA V AND DELTA V (LV)
000349:
000350:                                                                                                  #  .... PREC/TT ....
000351:
000352:                                                                                                  #  SUBROUTINES USED
000353:
000354:                                                                                                  #        PRECSET
000355:                                                                                                  #        TIMETHET
000356:                                                                                                  #        S34/35.1
000357:
000358: 04,3216           71220        PREC/TT            STQ      DLOAD
000359: 04,3217           02367                                    RTRN
000360: 04,3220           03413                                    TIG
000361: 04,3221           34041                           STCALL   TDEC1                                 #  PRECISION UPDATE ACTIVE AND PASSIVE
000362: 04,3222           45215                                    PRECSET                               #        VEHICLES TO TIG
000363: 04,3223           53775                           VLOAD    VSR*
000364: 04,3224           03554                                    RPASS3
000365: 04,3225           57176                                    0,2
000366: 04,3226           16657                           STODL    RVEC
000367: 04,3227           03754                                    CENTANG
000368: 04,3230           71406                           PUSH     COS
000369: 04,3231           16734                           STODL    CSTH
000370: 04,3232           43156                           SIN      SET
000371: 04,3233           03466                                    RVSW
000372: 04,3234           26732                           STOVL    SNTH
000373: 04,3235           03562                                    VPASS3
000374: 04,3236           77657                           VSR*
000375: 04,3237           57176                                    0,2
000376: 04,3240           36746                           STCALL   VVEC                                  #  GET TRANSFER TIME BASED ON CENTANG OF
000377: 04,3241           24744                                    TIMETHET                              #        PASSIVE VEHICLE
000378: 04,3242           77624                           CALL
000379: 04,3243           74000                                    S34/35.1                              #  GET UNIT NORMAL
000380: 04,3244           52145                           DLOAD    GOTO
000381: 04,3245           00037                                    T
000382: 04,3246           02367                                    RTRN
000383:
000384:                                                                                                  #  .... INTRPVP ....
000385:
000386:                                                                                                  #  SUBROUTINES USED
000387:
000388:                                                                                                  #        CSMPREC
000389:                                                                                                  #        LEMPREC
000390:
000391: 04,3247           43020        INTRPVP            STQ      BOFF                                  #  PRECISION UPDATE PASSIVE VEHICLE TO
000392: 04,3250           02367                                    RTRN                                  #        TDEC1
000393: 04,3251           01352                                    AVFLAG
000394: 04,3252           11257                                    OTHERV
000395: 04,3253           77624                           CALL


000397: 04,3254           27071                                    CSMPREC
000398: 04,3255           77650                           GOTO
000399: 04,3256           02367                                    RTRN
000400: 04,3257           77624        OTHERV             CALL
000401: 04,3260           27105                                    LEMPREC
000402: 04,3261           77650                           GOTO
000403: 04,3262           02367                                    RTRN
000404:
000405:                                                                                                  #  .... VNDSPLY ....
000406:
000407:                                                                                                  #  SUBROUTINES USED
000408:
000409:                                                                                                  #        BANKCALL
000410:                                                                                                  #        GOFLASH
000411:                                                                                                  #        GOTOP00H
000412:
000413: 04,3263           00006        VNDSPLY            EXTEND                                         #  FLASH DISPLAY
000414: 04,3264           23767                           QXCH     RTRN
000415: 04,3265           55765                           TS       VERBNOUN
000416: 04,3266           31765                           CA       VERBNOUN
000417: 04,3267           04662                           TCR      BANKCALL
000418: 04,3270           20720                           CADR     GOFLASH
000419: 04,3271           14106                           TCF      GOTOP00H                              #  TERMINATE
000420: 04,3272           01767                           TC       RTRN                                  #  PROCEED
000421: 04,3273           13266                           TCF      -5                                    #  RECYCLE
000422: 04,3274           01441        V06N33SR           VN       0633
000423: 04,3275           01467        V06N55SR           VN       0655
000424: 04,3276           01006        V04N06SR           VN       0406
000425: 04,3277           01471        V06N57SR           VN       0657
000426: 04,3300           01442        V06N34SR           VN       0634
000427: 04,3301           01472        V06N58SR           VN       0658
000428: 04,3302           01521        V06N81SR           VN       0681
000429:
000430:                                                                                                  #  *** END OF COMEKISS.020 ***

End of include-file STABLE_ORBIT.agc.  Parent file is MAIN.agc


