
Source Code


000002:                                                                                                  ## Copyright:   Public domain.
000003:                                                                                                  ## Filename:    SXTMARK.agc
000004:                                                                                                  ## Purpose:     Part of the source code for Comanche, build 055. It
000005:                                                                                                  ##              is part of the source code for the Command Module's
000006:                                                                                                  ##              (CM) Apollo Guidance Computer (AGC), Apollo 11.
000007:                                                                                                  ## Assembler:   yaYUL
000008:                                                                                                  ## Reference:   pp. 222-235
000009:                                                                                                  ## Contact:     Ron Burkey <info@sandroid.org>,
000010:                                                                                                  ##              Fabrizio Bernardini <fabrizio@spacecraft.it>
000011:                                                                                                  ## Website:     http://www.ibiblio.org/apollo.
000012:                                                                                                  ## Mod history: 16/05/09 FB     Transcription Batch 2 Assignment.
000013:                                                                                                  ##              2010-08-28 JL   Fixed indentation.
000014:                                                                                                  ##              2016-12-10 RSB  Proofed comments with octopus/ProoferComments
000015:                                                                                                  ##                              and fixed the errors found.
000016:                                                                                                  ##              2017-01-18 RSB  Fixed comment-text errors noted while diff'ing
000017:                                                                                                  ##                              vs Colossus 249.
000018:                                                                                                  ##              2021-05-30 ABS  20/SXTMK -> 10/SXTMK
000019:                                                                                                  ##
000020:                                                                                                  ## The contents of the "Comanche055" files, in general, are transcribed
000021:                                                                                                  ## from scanned documents.
000022:                                                                                                  ##
000023:                                                                                                  ##      Assemble revision 055 of AGC program Comanche by NASA
000024:                                                                                                  ##      2021113-051.  April 1, 1969.
000025:                                                                                                  ##
000026:                                                                                                  ##      This AGC program shall also be referred to as Colossus 2A
000027:                                                                                                  ##
000028:                                                                                                  ##      Prepared by
000029:                                                                                                  ##                      Massachusetts Institute of Technology
000030:                                                                                                  ##                      75 Cambridge Parkway
000031:                                                                                                  ##                      Cambridge, Massachusetts
000032:                                                                                                  ##
000033:                                                                                                  ##      under NASA contract NAS 9-4065.
000034:                                                                                                  ##
000035:                                                                                                  ## Refer directly to the online document mentioned above for further
000036:                                                                                                  ## information.  Please report any errors to info@sandroid.org.
000037:


000039:                                                                                                  #  PROGRAM NAME - SXTMARK                                        DATE - 5 APRIL 1967
000040:                                                                                                  #  PROGRAM MODIFIED BY 258/278 PROGRAMMERS                       LOG SECTION SXTMARK
000041:                                                                                                  #  MOD BY - R. MELANSON TO ADD DOCUMENTATION                     ASSEMBLY SUNDISK REV. 116
000042:                                                                                                  #
000043:                                                                                                  #  FUNCTIONAL DESCRIPTION-
000044:
000045:                                                                                                  #        SXTMARK IS CALLED FROM INTERNAL ROUTINES WHICH MAY REQUIRE STAR OR LANDMARK MARKINGS BY THE ASTRONAUT.  IF
000046:                                                                                                  #        THE MARK SYSTEM IS NOT IN USE, SXTMARK RESERVES A VAC AREA FOR MARKING AND REQUESTS EXECUTION OF THE MKVB51
000047:                                                                                                  #        ROUTINE VIA THE EXECUTIVE JOB PRIORITY LIST.  R21 USES THIS ROUTINE TO DETERMINE IF THE MARK SYSTEM CAN BE
000048:                                                                                                  #        USED.  IF YES, SXTMARK RETURNS TO R21 TO PERFORM ITS OWN MARK REQUESTS VIA THE V51 FLASH.
000049:
000050:                                                                                                  #  CALLING SEQUENCE-
000051:
000052:                                                                                                  #        CAF     (NO. MARK REQUESTS IN BITS 1-3 OF A)
000053:                                                                                                  #        TC      BANKCALL
000054:                                                                                                  #        CADR    SXTMARK
000055:
000056:                                                                                                  #  NORMAL EXIT MODE-
000057:
000058:                                                                                                  #        SWRETURN
000059:
000060:                                                                                                  #  ALARM OR ABORT EXIT MODE-
000061:
000062:                                                                                                  #        ABORT
000063:
000064:                                                                                                  #  OUTPUT-
000065:
000066:                                                                                                  #        1)      MARKSTAT CONTAINS MARK VALUE (BITS 14-12) AND VAC AREA ADDRESS
000067:                                                                                                  #        2)      QPRET = VAC AREA POINTER VALUE
000068:                                                                                                  #        3)      1ST WORD OF RESERVED VAC AREA SET TO +0
000069:                                                                                                  #        4)      PRIO32 PLACED IN A REGISTER
000070:
000071:                                                                                                  #  ERASABLE INITIALIZATION-
000072:
000073:                                                                                                  #        1)      BITS 1-3 OF A = NO. MARKS REQUESTED
000074:                                                                                                  #        2)      BITS 2,3 OF EXTVBACT = 0
000075:                                                                                                  #        3)      A VAC AREA MUST BE AVAILABLE (WORD 1 = ADDRESS OF VAC AREA)
000076:
000077:                                                                                                  #  DEBRIS-
000078:
000079:                                                                                                  #        A,Q,L,RUPTREG1,MARKSTAT,QPRET,BIT2 OF EXTVBACT
000080:
000081: 13,2036                                           BANK     13
000082: 07,2000                                           SETLOC   SXTMARKE
000083: 07,2000                                           BANK
000084:
000085: 07,2002  E7,1725                                  EBANK=   MRKBUF1
000086: 07,2002                                           COUNT    07/SXTMK
000087:
000088: 07,2002           00004        SXTMARK            INHINT
000089: 07,2003           54070                           TS       RUPTREG1                              #  NUMBER OF MARKS WANTED
000090:
000091: 07,2004           36211                           CAF      SIX                                   #  BIT2 = MARKING SYSTEM IN USE
000092: 07,2005           71044                           MASK     EXTVBACT                              #  BIT3 = EXTENDED VERB IN PROGRESS
000093: 07,2006           10000                           CCS      A
000094: 07,2007           02013                           TC       MKABORT                               #  SET THEREFORE ABORT


000096: 07,2010           35016                           CAF      BIT2                                  #  NOT SET
000097: 07,2011           27044                           ADS      EXTVBACT                              #  SET IT, RESET IN ENDMARK
000098: 07,2012           02015                           TC       MARKOK                                #  YES, FIND VAC AREA
000099:
000100: 07,2013           07755        MKABORT            TC       BAILOUT
000101: 07,2014           01211                           OCT      01211
000102: 07,2015           10400        MARKOK             CCS      VAC1USE                               #  FIND VAC AREA
000103: 07,2016           02031                           TC       MKVACFND
000104: 07,2017           10454                           CCS      VAC2USE
000105: 07,2020           02031                           TC       MKVACFND
000106: 07,2021           10530                           CCS      VAC3USE
000107: 07,2022           02031                           TC       MKVACFND
000108: 07,2023           10604                           CCS      VAC4USE
000109: 07,2024           02031                           TC       MKVACFND
000110: 07,2025           10660                           CCS      VAC5USE
000111: 07,2026           02031                           TC       MKVACFND
000112: 07,2027           07755                           TC       BAILOUT
000113: 07,2030           01207                           OCT      01207
000114:
000115: 07,2031           65016        MKVACFND           AD       TWO                                   #  ADDRESS OF VAC AREA
000116: 07,2032           55330                           TS       MARKSTAT
000117: 07,2033           50000                           INDEX    A
000118: 07,2034           54052                           TS       QPRET                                 #  STORE NEXT AVAILABLE MARK SLOT
000119:
000120: 07,2035           35021                           CAF      ZERO                                  #  SHOW VAC AREA OCCUPIED
000121: 07,2036           51330                           INDEX    MARKSTAT
000122: 07,2037           53777                           TS       0          -1
000123:
000124: 07,2040           05364                           TC       CHECKMM                               #  BACKUP MARK ROUTINE USES SXTMARK
000125: 07,2041           00065                           MM       53         B-14
000126: 07,2042           12044                           TCF      +2
000127: 07,2043           14675                           TCF      SWRETURN
000128: 07,2044           05364                           TC       CHECKMM
000129: 07,2045           00066                           MM       54         B-14
000130: 07,2046           12050                           TCF      +2
000131: 07,2047           14675                           TCF      SWRETURN
000132: 07,2050           35004                           CAF      BIT12                                 #  DESIRED NUMBER OF MARKS IN 12-14
000133: 07,2051           00006                           EXTEND
000134: 07,2052           70070                           MP       RUPTREG1
000135: 07,2053           56001                           XCH      L
000136: 07,2054           27330                           ADS      MARKSTAT
000137:
000138: 07,2055           37667                           CAF      PRIO32                                #  ENTER MARK JOB
000139: 07,2056           05134                           TC       NOVAC
000140: 07,2057     1330                                  EBANK=   MARKSTAT
000141: 07,2057           02347 16062                     2CADR    MKVB51
000142:
000143: 07,2061           00003                           RELINT
000144: 07,2062           14675                           TCF      SWRETURN                              #  SAME AS MODEEXIT
000145:


000147:                                                                                                  #  PROGRAM NAME - MKRELEAS                                       DATE - 5 APRIL 1967
000148:                                                                                                  #  PROGRAM MODIFIED BY 258/278 PROGRAMMERS                       LOG SECTION SXTMARK
000149:                                                                                                  #  MOD BY - R. MELANSON TO ADD DOCUMENTATION                     ASSEMBLY SUNDISK REV. 116
000150:
000151:                                                                                                  #  FUNCTIONAL DESCRIPTION-
000152:
000153:                                                                                                  #        MKRELEAS IS EXECUTED BY INTERNAL ROUTINES TO RELEASE THE MARK SYSTEM TO MAKE IT AVAILABLE TO OTHER INTERNAL
000154:                                                                                                  #        SYSTEM ROUTINES.  IT ALSO CLEARS THE COARSE OPTICS FLAG BIT AND DISABLES THE OPTICS ERROR COUNTER.
000155:
000156:                                                                                                  #  CALLING SEQUENCE-
000157:
000158:                                                                                                  #        TC      BANKCALL
000159:                                                                                                  #        CADR    MKRELEAS
000160:
000161:                                                                                                  #  NORMAL EXIT MODE-
000162:
000163:                                                                                                  #        SWRETURN
000164:
000165:                                                                                                  #  ALARM OR ABORT EXIT MODE-  NONE
000166:
000167:                                                                                                  #  OUTPUT-
000168:
000169:                                                                                                  #        1)      BIT9 OPTMODES SET TO 0
000170:                                                                                                  #        2)      OPTIND SET TO -1
000171:                                                                                                  #        3)      1ST WORD OF VAC AREA SET TO VAC ADDRESS TO SIGNIFY AVAILABILITY.
000172:                                                                                                  #        4)      MARKSTAT CLEARED
000173:                                                                                                  #        5)      BIT2 CHANNEL 12 SET TO 0
000174:
000175:                                                                                                  #  ERASABLE INITIALIZATION-  NONE
000176:
000177:                                                                                                  #  DEBRIS-
000178:
000179:                                                                                                  #        A,MARKSTAT,BIT9 OPTMODES,OPTIND,BIT2 CHANNEL 12
000180:
000181: 07,2063           35021        MKRELEAS           CAF      ZERO                                  #  SHOW MARK SYSTEM NOW AVAILABLE
000182: 07,2064           57330                           XCH      MARKSTAT
000183: 07,2065           75046                           MASK     LOW9
000184: 07,2066           10000                           CCS      A
000185: 07,2067           50000                           INDEX    A
000186: 07,2070           54000                           TS       0
000187: 07,2071           00004        MKRLEES            INHINT
000188: 07,2072           45007                           CS       BIT9                                  #  COARSE OPTICS RETURN FLAG.
000189: 07,2073           71331                           MASK     OPTMODES
000190: 07,2074           55331                           TS       OPTMODES
000191:
000192: 07,2075           37716                           CA       NEGONE
000193: 07,2076           55303                           TS       OPTIND                                #  KILL COARS OPTICS
000194:
000195: 07,2077           45016                           CS       BIT2                                  #  DISABLE OPTICS ERROR COUNTER
000196: 07,2100           00006                           EXTEND
000197: 07,2101           03012                           WAND     CHAN12
000198:
000199: 07,2102           00003                           RELINT
000200: 07,2103           04675                           TC       SWRETURN


000202:                                                                                                  #  PROGRAM NAME - MARKRUPT                                       DATE - 5 APRIL 1967
000203:                                                                                                  #  PROGRAM MODIFIED BY 258/278 PROGRAMMERS                       LOG SECTION SXTMARK
000204:                                                                                                  #  MOD BY - R. MELANSON TO ADD DOCUMENTATION                     ASSEMBLY SUNDISK REV. 116
000205:
000206:                                                                                                  #  FUNCTIONAL DESCRIPTION-
000207:                                                                                                  #        MARKRUPT STORES CDUS,OPTICS AND TIME AND TRANSFERS CONTROL TO THE MARKIT,MARK REJECT OR KEYCOM ROUTINES IF
000208:                                                                                                  #        BITS IN CHANNEL 16 ARE SET AS REQUIRED.
000209:
000210:                                                                                                  #  CALLING SEQUENCE-
000211:                                                                                                  #        ROUTINE ENTERED VIA KEYRUPT2 WHEN MARK,MARK REJECT OR DSKY KEYS DEPRESSED BY THE OPERATOR.
000212:
000213:                                                                                                  #  NORMAL EXIT MODE-
000214:                                                                                                  #        MARKIT, MKREJECT OR POSTJUMP ROUTINES (MARK, MARK REJECT OR DSKY CODE)
000215:
000216:                                                                                                  #  ALARM OR ABORT EXIT MODE-
000217:                                                                                                  #        ALARM AND RESUME
000218:
000219:                                                                                                  #  OUTPUT-
000220:                                                                                                  #        RUPTSTOR+5 = CDUT, RUPTSTOR+3 = CDUS, RUPTSTOR+2 = CDUY,
000221:                                                                                                  #        RUPTREG3 = CDUZ, RUPTSTOR+6 = CDUX, RUPTSTOR+1 AND SAMPTIME+1 = TIME1,
000222:                                                                                                  #        RUPTSTOR AND SAMPTIME = TIME2
000223:
000224:                                                                                                  #  ERASABLE INITIALIZATION-
000225:                                                                                                  #        CDUT,CDUS,CDUY,CDUZ,CDUX,TIME2,TIME1,CHANNEL 16 BITS 6,7 OR 1-5
000226:
000227:                                                                                                  #  DEBRIS-
000228:                                                                                                  #        A,QRUPT,RUPTREG3,SAMPTIME,SAMPTIME+1,RUPTSTOR TO RUPTSTOR+6 EXCEPT RUPTSTOR+4 (LOCATION 67)
000229:
000230: 07,2104           54016        MARKRUPT           TS       BANKRUPT                              #  STORE CDUS AND OPTICS NOW
000231: 07,2105           30035                           CA       CDUT
000232: 07,2106           54362                           TS       MKCDUT
000233: 07,2107           30036                           CA       CDUS
000234: 07,2110           54360                           TS       MKCDUS
000235: 07,2111           30033                           CA       CDUY
000236: 07,2112           54357                           TS       MKCDUY
000237: 07,2113           30034                           CA       CDUZ
000238: 07,2114           54361                           TS       MKCDUZ
000239: 07,2115           30032                           CA       CDUX
000240: 07,2116           54363                           TS       MKCDUX
000241: 07,2117           00006                           EXTEND
000242: 07,2120           30025                           DCA      TIME2                                 #  GET TIME
000243: 07,2121           52356                           DXCH     MKT2T1
000244: 07,2122           00006                           EXTEND
000245: 07,2123           30356                           DCA      MKT2T1
000246: 07,2124           52014                           DXCH     SAMPTIME                              #  RUPT TIME FOR NOUN 65.
000247:
000248: 07,2125           56002                           XCH      Q
000249: 07,2126           54012                           TS       QRUPT
000250:
000251: 07,2127           35012                           CAF      BIT6                                  #  SEE IF MARK OR MKREJECT


000253: 07,2130           00006                           EXTEND
000254: 07,2131           02016                           RAND     NAVKEYIN
000255: 07,2132           10000                           CCS      A
000256: 07,2133           02430                           TC       MARKIT                                #  ITS A MARK
000257:
000258: 07,2134           35011                           CAF      BIT7                                  #  NOT A MARK, SEE IF MKREJECT
000259: 07,2135           00006                           EXTEND
000260: 07,2136           02016                           RAND     NAVKEYIN
000261: 07,2137           10000                           CCS      A
000262: 07,2140           02301                           TC       MKREJECT                              #  ITS A MARK REJECT
000263:
000264: 07,2141           34362        KEYCALL            CAF      OCT37                                 #  NOT MARK OR MKREJECT, SEE IF KEYCODE
000265: 07,2142           00006                           EXTEND
000266: 07,2143           02016                           RAND     NAVKEYIN
000267: 07,2144           00006                           EXTEND
000268: 07,2145           12150                           BZF      +3                                    #  IF NO INBITS
000269: 07,2146           04701                           TC       POSTJUMP
000270: 07,2147           17702                           CADR     KEYCOM                                #  IT,S A KEY CODE, NOT A MARK.
000271:
000272: 07,2150           05650                 +3        TC       ALARM                                 #  ALARM IF NO INBITS
000273: 07,2151           00113                           OCT      113
000274: 07,2152           05333                           TC       RESUME
000275:


000277:                                                                                                  #  PROGRAM NAME - MARKCONT                               DATE - 19 SEPT 1967
000278:                                                                                                  #  PROGRAM MODIFIED BY 258/278 PROGRAMMERS               LOG SECTION SXTMARK
000279:                                                                                                  #  MOD BY - R. MELANSON TO ADD DOCUMENTATION             ASSEMBLY SUNDISK REV. 116
000280:
000281:                                                                                                  #  FUNCTIONAL DESCRIPTION-
000282:                                                                                                  #        MARKCONT IS USED TO PERFORM A SPECIAL MARK FUNCTION FOR R21, TO EXECUTE A SPECIAL DISPLAY OF OPTICS AND TIME OR
000283:                                                                                                  #        TO PERFORM A MARK OF A STAR OR LAND SIGHTING BASED UPON FLASHING V-N.
000284:
000285:                                                                                                  #  CALLING SEQUENCE-
000286:
000287:                                                                                                  #        FROM MARKDIF
000288:
000289:                                                                                                  #  NORMAL EXIT MODE-
000290:                                                                                                  #        TASKOVER
000291:
000292:                                                                                                  #  ALARM OR ABORT EXIT MODE-
000293:                                                                                                  #        ALARM AND TASKOVER
000294:
000295:                                                                                                  #  OUTPUT-
000296:                                                                                                  #        1)      FOR R21-
000297:                                                                                                  #                EBANK=EBANK7
000298:                                                                                                  #                MRKBUF1 TO MRKBUF1+6 = TIME2,TIME1,CDUY,OPTICX,CDUZ,OPTICSY,CDUX OF CURRENT R21 MARK FUNCTION.
000299:                                                                                                  #                MRKBUF2 TO MRKBUF2+6 CONTAINS PREVIOUS R21 MARK VALUES.
000300:                                                                                                  #        2)      FOR SPECIAL DISPLAY JOB-
000301:                                                                                                  #                RUPTREG1 AND MRKBUF1 = CDUS,RUPTREG2 AND MRKBUF1+1 = CDUT.
000302:                                                                                                  #                RUPTREG3 AND MRKBUF1+2 = TIME2,RUPTREG4 AND MRKBUF1+3 = TIME1
000303:                                                                                                  #        3)      FOR NORMAL MARKING-
000304:                                                                                                  #                DECREMENT BITS14-12 OF MARKSTAT BY 1,
000305:                                                                                                  #                BIT10 MARKSTAT SET TO 1, INCREMENT QPRET BY 7,
000306:                                                                                                  #                STORE TIME2,TIME1,CDUY,CDUS,CDUZ,CDUT AND CDUX IN VAC+1 TO VAC+7
000307:
000308:                                                                                                  #  ERASABLE INITIALIZATION-
000309:                                                                                                  #        1)      FOR R21-
000310:                                                                                                  #                BIT14 OF STATE+2 =1, MRKBUF1 TO MRKBUF1+6, ITEMP1, RUPTREG3,
000311:                                                                                                  #                RUPTSTOR TO RUPTSTOR+6 EXCEPT RUPTSTOR+4
000312:                                                                                                  #        2)      FOR SPECIAL DISPLAY JOB-
000313:                                                                                                  #                BIT14 OF STATE+2 =0, MARKSTAT =+0, RUPTREG1,RUPTREG2,RUPTREG3
000314:                                                                                                  #                RUPTREG4,RUPTSTOR,RUPTSTOR+1,RUPTSTOR+3,RUPTSTOR+5,
000315:                                                                                                  #                BIT12 OF STATE+5 (V59 FLAG), MRKBUF1 THRU MRKBUF1+3
000316:                                                                                                  #        3)      FOR NORMAL MARKING-
000317:                                                                                                  #                BIT14 OF STATE+2 =0, MARKSTAT =VAC ADDRESS,A REG,ITEMP1,RUPTREG3,
000318:                                                                                                  #                RUPTSTOR TO RUPTSTOR+6 EXCEPT RUPTSTOR+4
000319:
000320:                                                                                                  #  DEBRIS-
000321:                                                                                                  #        1)      FOR R21-
000322:                                                                                                  #                A, ITEMP1, MRKBUF1, MRKBUF2
000323:                                                                                                  #        2)      FOR SPECIAL DISPLAY JOB-
000324:                                                                                                  #                A,RUPTREG1,RUPTREG2,RUPTREG3,RUPTREG4,MPAC TO MPAC+3
000325:                                                                                                  #        3)      FOR NORMAL MARKING-
000326:                                                                                                  #                A,MARKSTAT,ITEMP1,QPRET,VAC+1 TO VAC+7 OF VAC AREA IN USE
000327:


000329: 07,2153           35002        MARKCONT           CAF      BIT14
000330: 07,2154           70076                           MASK     STATE      +2                         #  R21 MARK (SPECIAL MARKING FOR R21)
000331: 07,2155           00006                           EXTEND
000332: 07,2156           12170                           BZF      MARKET                                #  NOT SET THEREFORE REGULAR MARKING
000333: 07,2157           36211        MARKIT1            CAF      SIX                                   #  SPECIAL FOR R21
000334: 07,2160           05606                           TC       GENTRAN                               #  TRANSFER MRKBUF1 TO MRKBUF2
000335: 07,2161           01725                           ADRES    MRKBUF1
000336: 07,2162           01734                           ADRES    MRKBUF2
000337:
000338: 07,2163           36211                           CAF      SIX                                   #  TRANSFER CURRENT MARK DATA TO MARKBUF1
000339: 07,2164           05606                           TC       GENTRAN
000340: 07,2165           00355                           ADRES    MKT2T1
000341: 07,2166           01725                           ADRES    MRKBUF1
000342:
000343: 07,2167           15324                           TCF      TASKOVER
000344:
000345: 07,2170           11330        MARKET             CCS      MARKSTAT                              #  SEE IF MARKS CALLED FOR
000346: 07,2171           02225                           TC       MARK2                                 #  COLLECT MARKS
000347:
000348: 07,2172           35016                           CAF      TWO                                   #  IS MARKING SYSTEM IN USE (BIT2)
000349: 07,2173           71044                           MASK     EXTVBACT
000350: 07,2174           00006                           EXTEND
000351: 07,2175           12217                           BZF      MARKET3                               #  MARKING NOT CALLED FOR
000352: 07,2176           35004                           CAF      BIT12
000353: 07,2177           70101                           MASK     STATE      +5                         #  V59FLAG
000354: 07,2200           00006                           EXTEND
000355: 07,2201           12217                           BZF      MARKET3                               #  IF V59FLAG NOT SET-MARK UNCALLED FOR
000356: 07,2202           35061                           CAF      PRIO5                                 #  CALIBRATION MARK (SET) FOR P23
000357: 07,2203           05134                           TC       NOVAC                                 #  SPECIAL DISPLAY JOB
000358: 07,2204  E7,1725                                  EBANK=   MRKBUF1
000359: 07,2204           02426 76067                     2CADR    MARKDISP
000360:
000361: 07,2206           36211                           CAF      SIX
000362: 07,2207           05606                           TC       GENTRAN                               #  TRANSFER MARK DATA TO MARKDOWN
000363: 07,2210           00355                           ADRES    MKT2T1
000364: 07,2211           01674                           ADRES    MARKDOWN
000365: 07,2212           36211                           CAF      SIX
000366: 07,2213           05606                           TC       GENTRAN                               #  TRANSFER MARK DATA TO MRKBUF1 FOR
000367: 07,2214           00355                           ADRES    MKT2T1                                #  SPECIAL DISPLAY OF SHAFT AND TRUNNION
000368: 07,2215           01725                           ADRES    MRKBUF1                               #  IF V59 ACTING
000369: 07,2216           15324                           TCF      TASKOVER
000370: 07,2217           05650        MARKET3            TC       ALARM
000371: 07,2220           00122                           OCT      122                                   #  MARKING NOT CALLED FOR
000372: 07,2221           15324                           TCF      TASKOVER
000373: 07,2222           05650        114ALM             TC       ALARM                                 #  MARK NOT WANTED
000374: 07,2223           00114                           OCT      114
000375: 07,2224           15324                           TCF      TASKOVER
000376:


000378:                                                                                                  #  STORE MARK DATA IN MKVAC AND INCREMENT POINTER
000379:
000380: 07,2225           67711        MARK2              AD       74K                                   #  SEE IF MARKS WANTED-REDUCE MARKS WANTED
000381: 07,2226           00006                           EXTEND
000382: 07,2227           62222                           BZMF     114ALM                                #  MARK NOT WANTED-ALARM
000383: 07,2230           55330                           TS       MARKSTAT
000384: 07,2231           40000                           COM
000385: 07,2232           75006                           MASK     BIT10                                 #  SET BIT10 TO ENABLE REJECT
000386: 07,2233           27330                           ADS      MARKSTAT
000387:
000388: 07,2234           75046                           MASK     LOW9
000389: 07,2235           54061                           TS       ITEMP1
000390: 07,2236           50000                           INDEX    A
000391: 07,2237           56052                           XCH      QPRET                                 #  PICK UP MARK SLOT-POINTER
000392: 07,2240           54062                           TS       ITEMP2                                #  SAVE CURRENT POINTER
000393: 07,2241           65023                           AD       SEVEN                                 #  INCREMENT POINTER
000394: 07,2242           50061                           INDEX    ITEMP1
000395: 07,2243           54052                           TS       QPRET                                 #  STORE ADVANCED POINTER
000396:
000397: 07,2244           00006        VACSTOR            EXTEND
000398: 07,2245           30356                           DCA      MKT2T1
000399: 07,2246           50062                           INDEX    ITEMP2
000400: 07,2247           52001                           DXCH     0
000401: 07,2250           30357                           CA       MKCDUY
000402: 07,2251           50062                           INDEX    ITEMP2
000403: 07,2252           54002                           TS       2
000404: 07,2253           30360                           CA       MKCDUS
000405: 07,2254           50062                           INDEX    ITEMP2
000406: 07,2255           54003                           TS       3
000407: 07,2256           30361                           CA       MKCDUZ
000408: 07,2257           50062                           INDEX    ITEMP2
000409: 07,2260           54004                           TS       4
000410: 07,2261           30362                           CA       MKCDUT
000411: 07,2262           50062                           INDEX    ITEMP2
000412: 07,2263           54005                           TS       5
000413: 07,2264           30363                           CA       MKCDUX
000414: 07,2265           50062                           INDEX    ITEMP2
000415: 07,2266           54006                           TS       6
000416:
000417: 07,2267           37671                           CAF      PRIO34                                #  IF ALL MARKS MADE FLASH VB50
000418: 07,2270           71330                           MASK     MARKSTAT
000419: 07,2271           00006                           EXTEND
000420: 07,2272           12274                           BZF      +2
000421: 07,2273           15324                           TCF      TASKOVER
000422: 07,2274           37667                           CAF      PRIO32
000423: 07,2275           05134                           TC       NOVAC
000424: 07,2276     1330                                  EBANK=   MARKSTAT
000425: 07,2276           02422 16062                     2CADR    MKVB50
000426:
000427: 07,2300           15324                           TCF      TASKOVER
000428:


000430:                                                                                                  #  PROGRAM NAME - MKREJECT                                       DATE - 5 APRIL 1967
000431:                                                                                                  #  PROGRAM MODIFIED BY 258/278 PROGRAMMERS                       LOG SECTION SXTMARK
000432:                                                                                                  #  MOD BY - R. MELANSON TO ADD DOCUMENTATION                     ASSEMBLY SUNDISK REV. 116
000433:
000434:                                                                                                  #  FUNCTIONAL DESCRIPTION-
000435:                                                                                                  #        ROUTINE ALLOWS OPERATOR TO REJECT MARK MADE PRIOR TO ACCEPTANCE AND ALLOWS A NEW MARK TO BE MADE BY ASTRONAUT
000436:
000437:                                                                                                  #  CALLING SEQUENCE-
000438:                                                                                                  #        FROM MARKRUPT IF BIT7 OF CHANNEL 16 IS 1.
000439:
000440:                                                                                                  #  NORMAL EXIT MODE-
000441:                                                                                                  #        RESUME
000442:
000443:                                                                                                  #  ALARM OR ABORT EXIT MODE-
000444:                                                                                                  #        ALARM AND RESUME
000445:
000446:                                                                                                  #  OUTPUT-
000447:                                                                                                  #        1)      FOR R21-
000448:                                                                                                  #                MRKBUF1 SET TO -1
000449:                                                                                                  #        2)      FOR NORMAL MARKING-
000450:                                                                                                  #                BIT10 MARKSTAT =0, INCREMENT NO. MARKS BY 1, DECREMENT QPRET BY 7
000451:
000452:                                                                                                  #  ERASABLE INITIALIZATION-
000453:                                                                                                  #        1)      FOR R21-
000454:                                                                                                  #                BIT14 OF STATE+2 SET TO 1
000455:                                                                                                  #        2)      FOR NORMAL MARKING-
000456:                                                                                                  #                BIT14 OF STATE+2 SET TO 0, MARKSTAT,QPRET
000457:
000458:                                                                                                  #  DEBRIS-
000459:                                                                                                  #        1)      FOR R21-
000460:                                                                                                  #                A,MARKSTAT,EBANK
000461:                                                                                                  #        2)      FOR NORMAL MARKING-
000462:                                                                                                  #                A,MARKSTAT,ITEMP1,QPRET
000463:
000464: 07,2301           35002        MKREJECT           CAF      BIT14
000465: 07,2302           70076                           MASK     STATE      +2                         #  R21 MARK (SPECIAL MARKING FOR R21)
000466: 07,2303           00006                           EXTEND
000467: 07,2304           12310                           BZF      MRKREJCT                              #  NOT SET THEREFORE REGULAR REJECT
000468: 07,2305           37716                           CA       NEGONE                                #  -1 (FOR R22)
000469: 07,2306           55725                           TS       MRKBUF1                               #  -0 IN TIME IS FLAG TO R22 SIGNIFYING A
000470: 07,2307           05333                           TC       RESUME                                #  REJECTED MARK
000471: 07,2310           11330        MRKREJCT           CCS      MARKSTAT                              #  SEE IF MARKS BEING ACCEPTED
000472: 07,2311           02315                           TC       REJECT2
000473: 07,2312           05650                           TC       ALARM                                 #  MARKS NOT BEING ACCEPTED
000474: 07,2313           00112                           OCT      112
000475: 07,2314           05333                           TC       RESUME
000476:
000477: 07,2315           45006        REJECT2            CS       BIT10                                 #  SEE IF MARK HAD BEEN MADE SINCE LAST
000478: 07,2316           71330                           MASK     MARKSTAT                              #  REJECT, AND SET BIT10 TO ZERO TO
000479: 07,2317           57330                           XCH      MARKSTAT                              #  SHOW MARK REJECT


000481: 07,2320           75006                           MASK     BIT10
000482: 07,2321           10000                           CCS      A
000483: 07,2322           02326                           TC       REJECT3
000484:
000485: 07,2323           05650                           TC       ALARM                                 #  DONT ACCEPT TWO REJECTS TOGETHER
000486: 07,2324           00110                           OCT      110
000487: 07,2325           05333                           TC       RESUME
000488:
000489: 07,2326           35046        REJECT3            CAF      LOW9                                  #  DECREMENT POINTER TO REJECT MARK
000490: 07,2327           71330                           MASK     MARKSTAT
000491: 07,2330           54061                           TS       ITEMP1
000492: 07,2331           45023                           CS       SEVEN
000493: 07,2332           50061                           INDEX    ITEMP1
000494: 07,2333           26052                           ADS      QPRET                                 #  NEW POINTER
000495:
000496: 07,2334           35004                           CAF      BIT12                                 #  INCREMENT MARKS WANTED AND IF FIELD
000497: 07,2335           61330                           AD       MARKSTAT                              #  IS NOW NON-ZERO, CHANGE TO VB51 TO
000498: 07,2336           57330                           XCH      MARKSTAT                              #  INDICATE MORE MARKS WANTED
000499: 07,2337           77671                           MASK     PRIO34                                #  INDICATE MORE MARKS WANTED
000500: 07,2340           10000                           CCS      A
000501: 07,2341           05333                           TC       RESUME
000502: 07,2342           37667                           CAF      PRIO32
000503: 07,2343           05134                           TC       NOVAC
000504: 07,2344     1330                                  EBANK=   MARKSTAT
000505: 07,2344           02347 16062                     2CADR    MKVB51
000506:
000507: 07,2346           05333                           TC       RESUME
000508:


000510:                                                                                                  #  PROGRAM DESCRIPTION MKVB51 AND MKVB50
000511:
000512:                                                                                                  #  AUTHOR-BARNERT DATE-2-15-67 MOD-0
000513:                                                                                                  #  PURPOSE  FLASH V51N70,V51N43, OR V51 TO REQUEST MARKING,
000514:                                                                                                  #           AND V50N25 R1=16 TO REQUEST TERMINATE MARKING
000515:
000516:                                                                                                  #  CALLING SEQUENCE   AS JOB WITHIN SXTMARK
000517:
000518:                                                                                                  #  EXIT TO ENDMARK UPON RECEIPT OF V33, V34 CAUSES GOTOPOOH, ENTER
000519:                                                                                                  #           RECYCLES THE DISPLAY
000520:
000521:                                                                                                  #  NOTE- SXTMARK AUTOMATICALLY CHANGES FROM CALLING MKVB51 TO MKVB50 WHEN
000522:                                                                                                  #           SUFFICIENT MARKS HAVE BEEN MADE, AND THE REVERSE WHEN A MARK
000523:                                                                                                  #           REJECT REDUCES THE NUMBER MADE BELOW THAT REQUIRED
000524:
000525:                                                                                                  #  SUBROUTINES CALLED- BANKCALL, GOMARK2, GOODEND, ENDMARK, WAITLIST
000526:
000527:                                                                                                  #  ALARM OR ABORT MODES - NONE
000528:
000529:                                                                                                  #  ERASABLE USED-VERBREG,MARKSTAT,QPRET,DSPTEM1
000530:
000531:                                                                                                  #  OUTPUT MARKSTAT = VAC ADDRESS
000532:
000533:                                                                                                  #  QPRET = NO. MARKS
000534:
000535: 07,2347           04662        MKVB51             TC       BANKCALL                              #  CLEAR DISPLAY FOR MARK VERB
000536: 07,2350           20560                           CADR     KLEENEX
000537: 07,2351           32427                           CAF      VB51                                  #  DISPLAY MARK VB51
000538: 07,2352           04662                           TC       BANKCALL
000539: 07,2353           20572                           CADR     GOMARK4
000540: 07,2354           12357                           TCF      TERMSXT                               #  VB34-TERMINATE
000541: 07,2355           12370                           TCF      ENTANSWR                              #  V33-PROCEED-MARKING DONE
000542: 07,2356           12416                           TCF      MKVB5X                                #  ENTER-RECYCLE TO INITIAL MARK DISPLAY
000543:
000544: 07,2357           05536        TERMSXT            TC       CLEARMRK                              #  CLEAR MARK ACTIVITY.
000545:
000546: 07,2360           05364                           TC       CHECKMM
000547: 07,2361           00003                           MM       03         B-14
000548: 07,2362           12364                           TCF      +2
000549: 07,2363           02366                           TC       TERMP03
000550: 07,2364           04701                           TC       POSTJUMP
000551: 07,2365           30205                           CADR     TERM52
000552:
000553: 07,2366           05546        TERMP03            TC       UPFLAG
000554: 07,2367           00032                           ADRES    TRM03FLG
000555: 07,2370           35046        ENTANSWR           CAF      LOW9                                  #  PUT VAC ADR IN MARKSTAT AND NO. OF
000556: 07,2371           71330                           MASK     MARKSTAT                              #  MARKS MADE IN QPRET BEFORE LEAVING
000557: 07,2372           55330                           TS       MARKSTAT                              #  SXTMARK
000558: 07,2373           40000                           COM
000559: 07,2374           51330                           INDEX    MARKSTAT
000560: 07,2375           60052                           AD       QPRET


000562: 07,2376           00006                           EXTEND
000563: 07,2377           62403                           BZMF     JAMIT                                 #  NO MARKS MADE, SHOW IT IN QPRET, R53
000564: 07,2400           00006                           EXTEND                                         #        WILL PICK IT UP AND RECYCLE
000565: 07,2401           75004                           MP       BIT12                                 #  THIS PUTS NUMBER MARKS-1 IN A
000566: 07,2402           65017                           AD       ONE
000567: 07,2403           51330        JAMIT              INDEX    MARKSTAT                              #  STORE NO OF MARKS MADE
000568: 07,2404           54052                           TS       QPRET
000569: 07,2405           00004                           INHINT                                         #  SERVICE OPTSTALL INTERFACE WITH
000570: 07,2406           35022                           CAF      FIVE
000571: 07,2407           05245                           TC       WAITLIST
000572: 07,2410     1330                                  EBANK=   MARKSTAT
000573: 07,2410           02413 16062                     2CADR    ENDMARKS
000574:
000575: 07,2412           05534                           TC       ENDMARK                               #  KNOCKS DOWN MARKING FLAG + DOES ENDOFJOB
000576:
000577: 07,2413           35017        ENDMARKS           CAF      ONE
000578: 07,2414           04740                           TC       IBNKCALL
000579: 07,2415           17550                           CADR     GOODEND
000580: 07,2416           37671        MKVB5X             CAF      PRIO34
000581: 07,2417           71330                           MASK     MARKSTAT                              #  RE-DISPLAY VB51 IF MORE MARKS WANTED
000582: 07,2420           10000                           CCS      A                                     #  AND VB50 IF ALL IN
000583: 07,2421           12347                           TCF      MKVB51
000584: 07,2422           34333        MKVB50             CAF      R1D1                                  #  OCT 16
000585: 07,2423           55045                           TS       DSPTEM1
000586: 07,2424           32426                           CAF      V50N25
000587: 07,2425           12352                           TCF      MKVB51     +3
000588:
000589: 07,2426           14431        V50N25             VN       5025
000590: 07,2427           14600        VB51               VN       5100
000591: 07,2430     4362               OCT37              =        LOW5
000592:
000593:                                                                                                  #  PROGRAM NAME - MARKIT                         DATE - 19 SEPT 1967
000594:
000595:                                                                                                  #  CALLING SEQUENCE
000596:                                                                                                  #        FROM MARKRUPT IF CHAN 16 BIT 6 = 1
000597:
000598:                                                                                                  #  EXIT
000599:                                                                                                  #        RESUME
000600:
000601:                                                                                                  #  INPUT
000602:                                                                                                  #        CDUCHKWD.  ALSO ALL INITIALIZATION FOR MARKCONT
000603:
000604:                                                                                                  #  OUTPUT
000605:                                                                                                  #        MKT2T1,MKCDUX,MKCDUY,MKCDUZ,MKCDUS,MKCDUT
000606:
000607:                                                                                                  #  ALARM EXIT
000608:                                                                                                  #        NONE
000609:
000610: 07,2430           11341        MARKIT             CCS      CDUCHKWD
000611: 07,2431           12434                           TCF      +3                                    #  DELAY OF CDUCHKWD CS IF PNZ


000613: 07,2432           12434                           TCF      +2
000614: 07,2433           35021                           CAF      ZERO
000615: 07,2434           65017                           AD       ONE                                   #  10 MS IF NO CHECK
000616: 07,2435           05245                           TC       WAITLIST
000617: 07,2436  E7,1725                                  EBANK=   MRKBUF1
000618: 07,2436           02203 20067                     2CADR    MARKDIF
000619:
000620: 07,2440           15333                           TCF      RESUME
000621:
000622: 10,2000                                           SETLOC   SXTMARK1
000623: 10,2000                                           BANK
000624:
000625: 10,2203                                           COUNT    10/SXTMK
000626:
000627:                                                                                                  #  PROGRAM NAME - MARKDIF                        DATE- 19 SEPT 1967
000628:
000629:                                                                                                  #  CALLING SEQUENCE
000630:                                                                                                  #        WAITLIST FROM MARKIT
000631:
000632:                                                                                                  #  EXIT
000633:                                                                                                  #        TASKOVER OT IBNKCALL TO MARKCONT
000634:
000635:                                                                                                  #  INPUT
000636:                                                                                                  #        OUTPUT FROM MARKIT, INPUT TO MARKCONT, CDUCHKWD
000637:
000638:                                                                                                  #  OUTPUT
000639:                                                                                                  #        RUPTSTOR - RUPTSTOR+3, RUPTREG3, RUPTSTOR+5 - RUPTSTOR+6
000640:
000641:                                                                                                  #  ALARM EXIT
000642:                                                                                                  #        ALARM AND TASKOVER
000643:
000644: 10,2203           31341        MARKDIF            CA       CDUCHKWD                              #  IF DELAY CHECK IS ZERO OR NEG, ACP MARK
000645: 10,2204           00006                           EXTEND
000646: 10,2205           62216                           BZMF     MKACPT
000647: 10,2206           45017                           CS       BIT1
000648: 10,2207           54354                           TS       MKNDX                                 #  SET INDEX -1
000649: 10,2210           30363                           CA       MKCDUX
000650: 10,2211           02220                           TC       DIFCHK                                #  SEE IF VEHICLE RATE TO MUCH AT MARK
000651: 10,2212           30357                           CA       MKCDUY
000652: 10,2213           02220                           TC       DIFCHK
000653: 10,2214           30361                           CA       MKCDUZ
000654: 10,2215           02220                           TC       DIFCHK
000655:
000656: 10,2216           04740        MKACPT             TC       IBNKCALL
000657: 10,2217           16153                           CADR     MARKCONT                              #  MARK DATA OK, WHAT DO WE DO WITH IT
000658:
000659: 10,2220           24354        DIFCHK             INCR     MKNDX                                 #  INCREMENT INDEX
000660:
000661: 10,2221           00006                           EXTEND
000662: 10,2222           50354                           INDEX    MKNDX


000664: 10,2223           20032                           MSU      CDUX                                  #  GET MARK(ICDU) - CURRENT(ICDU)
000665: 10,2224           10000                           CCS      A
000666: 10,2225           12231                           TCF      +4
000667: 10,2226           00002                           TC       Q
000668: 10,2227           12231                           TCF      +2
000669: 10,2230           00002                           TC       Q
000670: 10,2231           67715                           AD       NEG2                                  #  SEE IF DIFFERENCE GREATER THAN 3 BITS
000671: 10,2232           00006                           EXTEND
000672: 10,2233           62230                           BZMF     -3                                    #  NOT GREATER
000673:
000674: 10,2234           05650                           TC       ALARM                                 #  COUPLED WITH PROGRAM ALARM
000675: 10,2235           00121                           OCT      00121
000676:
000677: 10,2236           15324                           TCF      TASKOVER                              #  DO NOT ACCEPT
000678:
000679:

End of include-file SXTMARK.agc.  Parent file is MAIN.agc


