
Source Code


000002:                                                                                                  #  Copyright:    Public domain.
000003:                                                                                                  #  Filename:     SXTMARK.agc
000004:                                                                                                  #  Purpose:      Part of the source code for Comanche, build 055. It
000005:                                                                                                  #                is part of the source code for the Command Module's
000006:                                                                                                  #                (CM) Apollo Guidance Computer (AGC), Apollo 11.
000007:                                                                                                  #  Assembler:    yaYUL
000008:                                                                                                  #  Reference:    pp. 222-235
000009:                                                                                                  #  Contact:      Ron Burkey <info@sandroid.org>,
000010:                                                                                                  #                Fabrizio Bernardini <fabrizio@spacecraft.it>
000011:                                                                                                  #  Website:      http://www.ibiblio.org/apollo.
000012:                                                                                                  #  Mod history:  16/05/09 FB     Transcription Batch 2 Assignment.
000013:                                                                                                  #                2010-08-28 JL   Fixed indentation.
000014:
000015:                                                                                                  #  The contents of the "Comanche055" files, in general, are transcribed
000016:                                                                                                  #  from scanned documents.
000017:
000018:                                                                                                  #        Assemble revision 055 of AGC program Comanche by NASA
000019:                                                                                                  #        2021113-051.  April 1, 1969.
000020:
000021:                                                                                                  #        This AGC program shall also be referred to as Colossus 2A
000022:
000023:                                                                                                  #        Prepared by
000024:                                                                                                  #                        Massachusetts Institute of Technology
000025:                                                                                                  #                        75 Cambridge Parkway
000026:                                                                                                  #                        Cambridge, Massachusetts
000027:
000028:                                                                                                  #        under NASA contract NAS 9-4065.
000029:
000030:                                                                                                  #  Refer directly to the online document mentioned above for further
000031:                                                                                                  #  information.  Please report any errors to info@sandroid.org.
000032:
000033:                                                                                                  #  Page 222
000034:                                                                                                  #  PROGRAM NAME:  SXTMARK                                        DATE:  5 APRIL 1967
000035:                                                                                                  #  PROGRAM MODIFIED BY 258/278 PROGRAMMERS                       LOG SECTION SXTMARK
000036:                                                                                                  #  MOD BY: R. MELANSON TO ADD DOCUMENTATION                      ASSEMBLY SUNDISK REV. 116
000037:                                                                                                  #
000038:                                                                                                  #  FUNCTIONAL DESCRIPTION:
000039:
000040:                                                                                                  #        SXTMARK IS CALLED FROM INTERNAL ROUTINES WHICH MAY REQUIRE STAR OR LANDMARK MARKINGS BY THE ASTRONAUT.  IF
000041:                                                                                                  #        THE MARK SYSTEM IS NOT IN USE, SXTMARK RESERVES A VAC AREA FOR MARKING AND REQUESTS EXECUTION OF THE MKVB51
000042:                                                                                                  #        ROUTINE VIA THE EXECUTIVE JOB PRIORITY LIST.  R21 USES THIS ROUTINE TO DETERMINE IF THE MARK SYSTEM CAN BE
000043:                                                                                                  #        USED.  IF YES, SXTMARK RETURNS TO R21 TO PERFORM ITS OWN MARK REQUESTS VIA THE V51 FLASH.
000044:
000045:                                                                                                  #  CALLING SEQUENCE:
000046:
000047:                                                                                                  #        CAF     (NO. MARK REQUESTS IN BITS 1-3 OF A)
000048:                                                                                                  #        TC      BANKCALL
000049:                                                                                                  #        CADR    SXTMARK
000050:
000051:                                                                                                  #  NORMAL EXIT MODE:
000052:
000053:                                                                                                  #        SWRETURN
000054:
000055:                                                                                                  #  ALARM OR ABORT EXIT MODE:
000056:
000057:                                                                                                  #        ABORT
000058:
000059:                                                                                                  #  OUTPUT:
000060:
000061:                                                                                                  #        1)      MARKSTAT CONTAINS MARK VALUE (BITS 14-12) AND VAC AREA ADDRESS
000062:                                                                                                  #        2)      QPRET = VAC AREA POINTER VALUE
000063:                                                                                                  #        3)      1ST WORD OF RESERVED VAC AREA SET TO +0
000064:                                                                                                  #        4)      PRIO32 PLACED IN A REGISTER
000065:
000066:                                                                                                  #  ERASABLE INITIALIZATION:
000067:
000068:                                                                                                  #        1)      BITS 1-3 OF A = NO. MARKS REQUESTED
000069:                                                                                                  #        2)      BITS 2,3 OF EXTVBACT = 0
000070:                                                                                                  #        3)      A VAC AREA MUST BE AVAILABLE (WORD 1 = ADDRESS OF VAC AREA)
000071:
000072:                                                                                                  #  DEBRIS:
000073:
000074:                                                                                                  #        A,Q,L,RUPTREG1,MARKSTAT,QPRET,BIT2 OF EXTVBACT
000075:
000076: 13,2036                                           BANK     13
000077: 07,2000                                           SETLOC   SXTMARKE
000078: 07,2000                                           BANK
000079:
000080: 07,2002  E7,1725                                  EBANK=   MRKBUF1
000081: 07,2002                                           COUNT    07/SXTMK
000082:
000083: 07,2002           00004        SXTMARK            INHINT
000084: 07,2003           54070                           TS       RUPTREG1                              #  NUMBER OF MARKS WANTED
000085:
000086: 07,2004           36211                           CAF      SIX                                   #  BIT2 = MARKING SYSTEM IN USE
000087: 07,2005           71044                           MASK     EXTVBACT                              #  BIT3 = EXTENDED VERB IN PROGRESS
000088: 07,2006           10000                           CCS      A
000089: 07,2007           02013                           TC       MKABORT
000090:                                                                                                  #  Page 223
000091: 07,2010           35016                           CAF      BIT2                                  #  NOT SET
000092: 07,2011           27044                           ADS      EXTVBACT                              #  SET IT, RESET IN ENDMARK
000093: 07,2012           02015                           TC       MARKOK                                #  YES, FIND VAC AREA
000094:
000095: 07,2013           07755        MKABORT            TC       BAILOUT
000096: 07,2014           01211                           OCT      01211
000097: 07,2015           10400        MARKOK             CCS      VAC1USE                               #  FIND VAC AREA
000098: 07,2016           02031                           TC       MKVACFND
000099: 07,2017           10454                           CCS      VAC2USE
000100: 07,2020           02031                           TC       MKVACFND
000101: 07,2021           10530                           CCS      VAC3USE
000102: 07,2022           02031                           TC       MKVACFND
000103: 07,2023           10604                           CCS      VAC4USE
000104: 07,2024           02031                           TC       MKVACFND
000105: 07,2025           10660                           CCS      VAC5USE
000106: 07,2026           02031                           TC       MKVACFND
000107: 07,2027           07755                           TC       BAILOUT
000108: 07,2030           01207                           OCT      01207
000109:
000110: 07,2031           65016        MKVACFND           AD       TWO                                   #  ADDRESS OF VAC AREA
000111: 07,2032           55330                           TS       MARKSTAT
000112: 07,2033           50000                           INDEX    A
000113: 07,2034           54052                           TS       QPRET                                 #  STORE NEXT AVAILABLE MARK SLOT
000114:
000115: 07,2035           35021                           CAF      ZERO                                  #  STORE VAC AREA OCCUPIED
000116: 07,2036           51330                           INDEX    MARKSTAT
000117: 07,2037           53777                           TS       0          -1
000118:
000119: 07,2040           05364                           TC       CHECKMM                               #  BACKUP MARK ROUTINE USES SXTMARK
000120: 07,2041           00065                           MM       53         B-14
000121: 07,2042           12044                           TCF      +2
000122: 07,2043           14675                           TCF      SWRETURN
000123: 07,2044           05364                           TC       CHECKMM
000124: 07,2045           00066                           MM       54         B-14
000125: 07,2046           12050                           TCF      +2
000126: 07,2047           14675                           TCF      SWRETURN
000127: 07,2050           35004                           CAF      BIT12                                 #  DESIRED NUMBER OF MARKS IN 12-14
000128: 07,2051           00006                           EXTEND
000129: 07,2052           70070                           MP       RUPTREG1
000130: 07,2053           56001                           XCH      L
000131: 07,2054           27330                           ADS      MARKSTAT
000132:
000133: 07,2055           37667                           CAF      PRIO32                                #  ENTER MARK JOB
000134: 07,2056           05134                           TC       NOVAC
000135: 07,2057     1330                                  EBANK=   MARKSTAT
000136: 07,2057           02347 16062                     2CADR    MKVB51
000137:
000138: 07,2061           00003                           RELINT
000139: 07,2062           14675                           TCF      SWRETURN                              #  SAME AS MODEEXIT
000140:
000141:                                                                                                  #  Page 224
000142:                                                                                                  #  PROGRAM NAME:  MKRELEAS                                       DATE:  5 APRIL 1967
000143:                                                                                                  #  PROGRAM MODIFIED BY 248/278 PROGRAMMERS                       LOG SECTION SXTMARK
000144:                                                                                                  #  MOD BY:  R. MELANSON TO ADD DOCUMENTATION                     ASSEMBLY SUNDISK REV. 116
000145:
000146:                                                                                                  #  FUNCTIONAL DESCRIPTION:
000147:
000148:                                                                                                  #        MKRELEAS IS EXECUTED BY INTERNAL ROUTINES TO RELEASE THE MARK SYSTEM TO MAKE IT AVAILABLE TO OTHER INTERNAL
000149:                                                                                                  #        SYSTEM ROUTINES.  IT ALSO CLEARS THE COARSE OPTICS FLAG BIT AND DISABLES THE OPTICS ERROR COUNTER.
000150:
000151:                                                                                                  #  CALLING SEQUENCE:
000152:
000153:                                                                                                  #        TC      BANKCALL
000154:                                                                                                  #        CADR    MKRELEAS
000155:
000156:                                                                                                  #  NORMAL EXIT MODE:
000157:
000158:                                                                                                  #        SWRETURN
000159:
000160:                                                                                                  #  ALARM OR EXIT MODE:  NONE
000161:
000162:                                                                                                  #  OUTPUT:
000163:
000164:                                                                                                  #        1)      BIT9 OPTMODES SET TO 0
000165:                                                                                                  #        2)      OPTIND SET TO -1
000166:                                                                                                  #        3)      1ST WORD OF VAC AREA SET TO VAC ADDRESS TO SIGNIFY AVAILABILITY
000167:                                                                                                  #        4)      MARKSTAT CLEARED
000168:                                                                                                  #        5)      BIT2 CHANNEL 12 SET TO 0
000169:
000170:                                                                                                  #  ERASABLE INITIALIZATION:  NONE
000171:
000172:                                                                                                  #  DEBRIS:
000173:
000174:                                                                                                  #        A,MARKSTAT,BIT9,OPTMODES OPTIND,BIT2 CHANNEL 12
000175:
000176: 07,2063           35021        MKRELEAS           CAF      ZERO                                  #  SHOW MARK SYSTEM NOW AVAILABLE
000177: 07,2064           57330                           XCH      MARKSTAT
000178: 07,2065           75046                           MASK     LOW9
000179: 07,2066           10000                           CCS      A
000180: 07,2067           50000                           INDEX    A
000181: 07,2070           54000                           TS       0
000182: 07,2071           00004        MKRLEES            INHINT
000183: 07,2072           45007                           CS       BIT9                                  #  COARSE OPTICS RETURN FLAG.
000184: 07,2073           71331                           MASK     OPTMODES
000185: 07,2074           55331                           TS       OPTMODES
000186:
000187: 07,2075           37716                           CA       NEGONE
000188: 07,2076           55303                           TS       OPTIND                                #  KILL COARSE OPTICS
000189:
000190: 07,2077           45016                           CS       BIT2                                  #  DISABLE OPTICS ERROR COUNTER
000191: 07,2100           00006                           EXTEND
000192: 07,2101           03012                           WAND     CHAN12
000193:
000194: 07,2102           00003                           RELINT
000195: 07,2103           04675                           TC       SWRETURN
000196:                                                                                                  #  Page 225
000197:                                                                                                  #  PROGRAM NAME:  MARKRUPT                                       DATE:  5 APRIL 1967
000198:                                                                                                  #  PROGRAM MODIFIED BY 258/278 PROGRAMMERS                       LOG SECTION SXTMARK
000199:                                                                                                  #  MOD BY:  R. MELANSON TO ADD DOCUMENTATION                     ASSEMBLY SUNDISK REV. 116
000200:
000201:                                                                                                  #  FUNCTIONAL DESCRIPTION:
000202:
000203:                                                                                                  #        MARKRUPT STORES CDUS,OPTICS AND TIME AND TRANSFERS CONTROL TO THE MARKIT,MARK REJECT OR KEYCOM ROUTINES IF
000204:                                                                                                  #        BITS IN CHANNEL 16 ARE SET AS REQUIRED.
000205:
000206:                                                                                                  #  CALLING SEQUENCE:
000207:
000208:                                                                                                  #        ROUTINE ENTERED VIA KEYRUPT2 WHEN MARK,MARK REJECT OR DSKY KEYS DEPRESSED BY THE OPERATOR.
000209:
000210:                                                                                                  #  NORMAL EXIT MODE:
000211:
000212:                                                                                                  #        MARKIT, MKREJECT, OR POSTJUMP ROUTINES (MARK, MARK REJECT, OR DSKY CODE)
000213:
000214:                                                                                                  #  ALARM OR ABORT EXIT MODE:
000215:
000216:                                                                                                  #        ALARM AND RESUME
000217:
000218:                                                                                                  #  OUTPUT:
000219:
000220:                                                                                                  #        RUPTSTOR+5 = CDUT, RUPTSTOR+3 = CDUS, RUPTSTOR+2 = CDUY,
000221:                                                                                                  #        RUPTREG3 = CDUZ, RUPTSTOR+6 = CDUX, RUPTSTOR+1 AND SAMPTIME+1 = TIME1,
000222:                                                                                                  #        RUPTSTOR AND SAMPTIME = TIME2
000223:
000224:                                                                                                  #  ERASABLE INITIALIZATION:
000225:
000226:                                                                                                  #        CDUT,CDUS,CDUY,CDUZ,CDUX,TIME2,TIME1,CHANNEL 16 BITS 6,7 OR 1-5.
000227:
000228:                                                                                                  #  DEBRIS:
000229:
000230:                                                                                                  #        A,QRUPT,RUPTREG3,SAMPTIME,SAMPTIME+1,RUPTSTOR TO RUPTSTOR+6 EXCEPT RUPTSTOR+4 (LOCATION 67)
000231:
000232: 07,2104           54016        MARKRUPT           TS       BANKRUPT                              #  STORE CDUS AND OPTICS NOW
000233: 07,2105           30035                           CA       CDUT
000234: 07,2106           54362                           TS       MKCDUT
000235: 07,2107           30036                           CA       CDUS
000236: 07,2110           54360                           TS       MKCDUS
000237: 07,2111           30033                           CA       CDUY
000238: 07,2112           54357                           TS       MKCDUY
000239: 07,2113           30034                           CA       CDUZ
000240: 07,2114           54361                           TS       MKCDUZ
000241: 07,2115           30032                           CA       CDUX
000242: 07,2116           54363                           TS       MKCDUX
000243: 07,2117           00006                           EXTEND
000244: 07,2120           30025                           DCA      TIME2                                 #  GET TIME
000245: 07,2121           52356                           DXCH     MKT2T1
000246: 07,2122           00006                           EXTEND
000247: 07,2123           30356                           DCA      MKT2T1
000248: 07,2124           52014                           DXCH     SAMPTIME                              #  RUPT TIME FOR NOUN 65.
000249:
000250: 07,2125           56002                           XCH      Q
000251: 07,2126           54012                           TS       QRUPT
000252:
000253: 07,2127           35012                           CAF      BIT6                                  #  SEE IF MARK OR MKREJECT
000254:                                                                                                  #  Page 226
000255: 07,2130           00006                           EXTEND
000256: 07,2131           02016                           RAND     NAVKEYIN
000257: 07,2132           10000                           CCS      A
000258: 07,2133           02430                           TC       MARKIT                                #  IT'S A MARK
000259:
000260: 07,2134           35011                           CAF      BIT7                                  #  NOT A MARK, SEE IF MKREJECT
000261: 07,2135           00006                           EXTEND
000262: 07,2136           02016                           RAND     NAVKEYIN
000263: 07,2137           10000                           CCS      A
000264: 07,2140           02301                           TC       MKREJECT                              #  IT'S A MARK REJECT
000265:
000266: 07,2141           34362        KEYCALL            CAF      OCT37                                 #  NOT MARK OR MKREJECT, SEE IF KEYCODE
000267: 07,2142           00006                           EXTEND
000268: 07,2143           02016                           RAND     NAVKEYIN
000269: 07,2144           00006                           EXTEND
000270: 07,2145           12150                           BZF      +3                                    #  IF NO INBITS
000271: 07,2146           04701                           TC       POSTJUMP
000272: 07,2147           17702                           CADR     KEYCOM                                #  IT'S A KEY CODE, NOT A MARK.
000273:
000274: 07,2150           05650                 +3        TC       ALARM                                 #  ALARM IF NO INBITS
000275: 07,2151           00113                           OCT      113
000276: 07,2152           05333                           TC       RESUME
000277:
000278:                                                                                                  #  Page 227
000279:                                                                                                  #  PROGRAM NAME:  MARKCONT                               DATE:  19 SEPT 1967
000280:                                                                                                  #  PROGRAM MODIFIED BY 258/278 PROGRAMMERS               LOG SECTION SXTMARK
000281:                                                                                                  #  MOD BY:  R. MELANSON TO ADD DOCUMENTATION             ASSEMBLY SUNDISK REV. 116
000282:
000283:                                                                                                  #  FUNCTIONAL DESCRIPTION:
000284:
000285:                                                                                                  #        MARKCONT IS USED TO PERFORM A SPECIAL MARK FUNCTION FOR R21, TO EXECUTE A SPECIAL DISPLAY OF OPTICS AND TIME OR
000286:                                                                                                  #        TO PERFORM A MARK OF THE STAR OR LAND SIGHTING BASED UPON FLASHING V-N.
000287:
000288:                                                                                                  #  CALLING SEQUENCE:
000289:
000290:                                                                                                  #        FROM MARKDIF
000291:
000292:                                                                                                  #  NORMAL EXIT MODE:
000293:
000294:                                                                                                  #        TASKOVER
000295:
000296:                                                                                                  #  ALARM OR ABORT EXIT MODE:
000297:
000298:                                                                                                  #        ALARM AND TASKOVER
000299:
000300:                                                                                                  #  OUTPUT:
000301:
000302:                                                                                                  #        1)      FOR R21:
000303:                                                                                                  #                EBANK=EBANK7
000304:                                                                                                  #                MRKBUF1 TO MRKBUF1+6 = TIME2,TIME1,CDUY,OPTICX,CDUZ,OPTICSY,CDUX OF CURRENT R21 MARK FUNCTION
000305:                                                                                                  #                MRKBUF2 TO MRKBUF2+6 CONTAINS PREVIOUS R21 MARK VALUES.
000306:                                                                                                  #        2)      FOR SPECIAL DISPLAY JOB:
000307:                                                                                                  #                RUPTREG1 AND MRKBUF1 = CDUS,RUPTREG2, AND MRKBUF1+1 = CDUT.
000308:                                                                                                  #                RUPTREG3 AND MRKBUF1+2 = TIME2,RUPTREG4, AND MRKBUF1+3 = TIME1.
000309:                                                                                                  #        3)      FOR NORMAL MARKING:
000310:                                                                                                  #                DECREMENT BITS14-12 OF MARKSTAT BY 1,
000311:                                                                                                  #                BIT10 MARKSTAT SET TO 1, INCREMENT QPRET BY 7,
000312:                                                                                                  #                STORE TIME2,TIME1,CDUY,CDUS,CDUZ,CDUT, AND CDUX IN VAC+1 TO VAC+7.
000313:
000314:                                                                                                  #  ERASABLE INITIALIZATION:
000315:
000316:                                                                                                  #        1)      FOR R21:
000317:                                                                                                  #                BIT14 OF STATE+2 =1, MRKBUF1 TO MRKBUF1+6, ITEMP1, RUPTREG3,
000318:                                                                                                  #                RUPTSTOR TO RUPTSTOR+6 EXCEPT RUPTSTOR+4.
000319:                                                                                                  #        2)      FOR SPECIAL DISPLAY JOB:
000320:                                                                                                  #                BIT14 OF STATE+2 =0, MARKSTAT =+0, RUPTREG1,RUPTREG2,RUPTREG3
000321:                                                                                                  #                RUPTREG4,RUPTSTOR,RUPTSTOR+1,RUPTSTOR+3,RUPTSTOR+5,
000322:                                                                                                  #                BIT12 OF STATE+5 (V59 FLAG), MRKBUF1 THRU MRKBUF1+3
000323:                                                                                                  #        3)      FOR NORMAL MARKING:
000324:                                                                                                  #                BIT14 OF STATE+2 =0, MARKSTATE =VAC ADDRESS, A REG, ITEMP1, RUPTREG3,
000325:                                                                                                  #                RUPTSTOR TO RUPTSTOR+6 EXCEPT RUPTSTOR+4.
000326:
000327:                                                                                                  #  DEBRIS:
000328:
000329:                                                                                                  #        1)      FOR R21:
000330:                                                                                                  #                A, ITEMP1, MRKBUF1, MRKBUF2
000331:                                                                                                  #        2)      FOR SPECIAL DISPLAY JOB:
000332:                                                                                                  #                A,RUPTREG1,RUPTREG2,RUPTREG3,RUPTREG4,MPAC TO MPAC+3.
000333:                                                                                                  #        3)      FOR NORMAL MARKING:
000334:                                                                                                  #                A,MARKSTAT,ITEMP1,QPRET,VAC+1 TO VAC+7 OF VAC AREA IN USE.
000335:
000336:                                                                                                  #  Page 228
000337: 07,2153           35002        MARKCONT           CAF      BIT14
000338: 07,2154           70076                           MASK     STATE      +2                         #  R21 MARK (SPECIAL MARKING FOR R21)
000339: 07,2155           00006                           EXTEND
000340: 07,2156           12170                           BZF      MARKET                                #  NOT SET THEREFORE REGULAR MARKING
000341: 07,2157           36211        MARKIT1            CAF      SIX                                   #  SPECIAL FOR R21
000342: 07,2160           05606                           TC       GENTRAN                               #  TRANSFER MRKBUF1 TO MRKBUF2
000343: 07,2161           01725                           ADRES    MRKBUF1
000344: 07,2162           01734                           ADRES    MRKBUF2
000345:
000346: 07,2163           36211                           CAF      SIX                                   #  TRANSFER CURRENT MARK DATE TO MARKBUF1
000347: 07,2164           05606                           TC       GENTRAN
000348: 07,2165           00355                           ADRES    MKT2T1
000349: 07,2166           01725                           ADRES    MRKBUF1
000350:
000351: 07,2167           15324                           TCF      TASKOVER
000352:
000353: 07,2170           11330        MARKET             CCS      MARKSTAT                              #  SEE IF MARKS CALLED FOR
000354: 07,2171           02225                           TC       MARK2                                 #  COLLECT MARKS
000355:
000356: 07,2172           35016                           CAF      TWO                                   #  IS MARKING SYSTEM IN USE (BIT2)
000357: 07,2173           71044                           MASK     EXTVBACT
000358: 07,2174           00006                           EXTEND
000359: 07,2175           12217                           BZF      MARKET3                               #  MARKING NOT CALLED FOR
000360: 07,2176           35004                           CAF      BIT12
000361: 07,2177           70101                           MASK     STATE      +5                         #  V59FLAG
000362: 07,2200           00006                           EXTEND
000363: 07,2201           12217                           BZF      MARKET3                               #  IF V59FLAG NOT SET-MARK UNCALLED FOR
000364: 07,2202           35061                           CAF      PRIO5                                 #  CALIBRATION MARK (SET) FOR P23
000365: 07,2203           05134                           TC       NOVAC                                 #  SPECIAL DISPLAY JOB
000366: 07,2204  E7,1725                                  EBANK=   MRKBUF1
000367: 07,2204           02426 76067                     2CADR    MARKDISP
000368:
000369: 07,2206           36211                           CAF      SIX
000370: 07,2207           05606                           TC       GENTRAN                               #  TRANSFER MARK DATE TO MARKDOWN
000371: 07,2210           00355                           ADRES    MKT2T1
000372: 07,2211           01674                           ADRES    MARKDOWN
000373: 07,2212           36211                           CAF      SIX
000374: 07,2213           05606                           TC       GENTRAN                               #  TRANSFER MARK DATA TO MRKBUF1 FOR
000375: 07,2214           00355                           ADRES    MKT2T1                                #  SPECIAL DISPLAY OF SHAFT AND TRUNNION
000376: 07,2215           01725                           ADRES    MRKBUF1                               #  IF V59 ACTING
000377: 07,2216           15324                           TCF      TASKOVER
000378: 07,2217           05650        MARKET3            TC       ALARM
000379: 07,2220           00122                           OCT      122                                   #  MARKING NOT CALLED FOR
000380: 07,2221           15324                           TCF      TASKOVER
000381: 07,2222           05650        114ALM             TC       ALARM                                 #  MARK NOT WANTED
000382: 07,2223           00114                           OCT      114
000383: 07,2224           15324                           TCF      TASKOVER
000384:
000385:                                                                                                  #  Page 229
000386:                                                                                                  #  STORE MARK DATA IN MKVAC AND INCREMENT POINTER
000387:
000388: 07,2225           67711        MARK2              AD       74K                                   #  SEE IF MARKS WANTED-REDUCE MARKS WANTED
000389: 07,2226           00006                           EXTEND
000390: 07,2227           62222                           BZMF     114ALM                                #  MARK NOT WANTED-ALARM
000391: 07,2230           55330                           TS       MARKSTAT
000392: 07,2231           40000                           COM
000393: 07,2232           75006                           MASK     BIT10                                 #  SET BIT10 TO ENABLE REJECT
000394: 07,2233           27330                           ADS      MARKSTAT
000395:
000396: 07,2234           75046                           MASK     LOW9
000397: 07,2235           54061                           TS       ITEMP1
000398: 07,2236           50000                           INDEX    A
000399: 07,2237           56052                           XCH      QPRET                                 #  PICK UP MARK SLOT-POINTER
000400: 07,2240           54062                           TS       ITEMP2                                #  SAVE CURRENT POINTER
000401: 07,2241           65023                           AD       SEVEN                                 #  INCREMENT POINTER
000402: 07,2242           50061                           INDEX    ITEMP1
000403: 07,2243           54052                           TS       QPRET                                 #  STORE ADVANCED POINTER
000404:
000405: 07,2244           00006        VACSTOR            EXTEND
000406: 07,2245           30356                           DCA      MKT2T1
000407: 07,2246           50062                           INDEX    ITEMP2
000408: 07,2247           52001                           DXCH     0
000409: 07,2250           30357                           CA       MKCDUY
000410: 07,2251           50062                           INDEX    ITEMP2
000411: 07,2252           54002                           TS       2
000412: 07,2253           30360                           CA       MKCDUS
000413: 07,2254           50062                           INDEX    ITEMP2
000414: 07,2255           54003                           TS       3
000415: 07,2256           30361                           CA       MKCDUZ
000416: 07,2257           50062                           INDEX    ITEMP2
000417: 07,2260           54004                           TS       4
000418: 07,2261           30362                           CA       MKCDUT
000419: 07,2262           50062                           INDEX    ITEMP2
000420: 07,2263           54005                           TS       5
000421: 07,2264           30363                           CA       MKCDUX
000422: 07,2265           50062                           INDEX    ITEMP2
000423: 07,2266           54006                           TS       6
000424:
000425: 07,2267           37671                           CAF      PRIO34                                #  IF ALL MARKS MADE FLASH VB50
000426: 07,2270           71330                           MASK     MARKSTAT
000427: 07,2271           00006                           EXTEND
000428: 07,2272           12274                           BZF      +2
000429: 07,2273           15324                           TCF      TASKOVER
000430: 07,2274           37667                           CAF      PRIO32
000431: 07,2275           05134                           TC       NOVAC
000432: 07,2276     1330                                  EBANK=   MARKSTAT
000433: 07,2276           02422 16062                     2CADR    MKVB50
000434:
000435: 07,2300           15324                           TCF      TASKOVER
000436:
000437:                                                                                                  #  Page 230
000438:                                                                                                  #  PROGRAM NAME:  MKREJECT                                       DATE:  5 APRIL 1967
000439:                                                                                                  #  PROGRAM MODIFIED BY 258/276 PROGRAMMERS                       LOG SECTION SXTMARK
000440:                                                                                                  #  MOD BY:  R. MELANSON TO ADD DOCUMENTATION                     ASSEMBLY SUNDISK REV. 116
000441:
000442:                                                                                                  #  FUNCTIONAL DESCRIPTION:
000443:
000444:                                                                                                  #        ROUTINE ALLOWS OPEATOR TO REJECT MARK MADE PRIOR TO ACCEPTANCE AND ALLOWS A NEW MARK TO BE MADE BY ASTRONAUT.
000445:
000446:                                                                                                  #  CALLING SEQUENCE:
000447:
000448:                                                                                                  #        FROM MARKRUPT IF BIT7 OF CHANNEL 16 IS 1.
000449:
000450:                                                                                                  #  NORMAL EXIT MODE:
000451:
000452:                                                                                                  #        RESUME
000453:
000454:                                                                                                  #  ALARM OR ABORT EXIT MODE:
000455:
000456:                                                                                                  #        ALARM AND RESUME
000457:
000458:                                                                                                  #  OUTPUT:
000459:
000460:                                                                                                  #        1)      FOR R21:
000461:                                                                                                  #                MRKRUP1 SET TO -1
000462:                                                                                                  #        2)      FOR NORMAL MARKING:
000463:                                                                                                  #                BIT10 MARKSTAT =0, INCREMENT NO. MARKS BY 1, DECREMENT QPRET BY 7
000464:
000465:                                                                                                  #  ERASABLE INITIALIZATION:
000466:
000467:                                                                                                  #        1)      FOR R21:
000468:                                                                                                  #                BIT14 OF STATE+2 SET TO 1
000469:                                                                                                  #        2)      FOR NORMAL MARKING:
000470:                                                                                                  #                BIT14 OF STATE+2 SET TO 0, MARKSTAT,QPRET
000471:
000472:                                                                                                  #  DEBRIS:
000473:
000474:                                                                                                  #        1)      FOR R21:
000475:                                                                                                  #                A,MARKSTAT,EBANK
000476:                                                                                                  #        2)      FOR NORMAL MARKING:
000477:                                                                                                  #                A,MARKSTAT,ITEMP1,QPRET
000478:
000479: 07,2301           35002        MKREJECT           CAF      BIT14
000480: 07,2302           70076                           MASK     STATE      +2                         #  R21 MARK (SPECIAL MARKING FOR R21)
000481: 07,2303           00006                           EXTEND
000482: 07,2304           12310                           BZF      MRKREJCT                              #  NOT SET THEREFORE REGULAR REJECT
000483: 07,2305           37716                           CA       NEGONE                                #  -1 (FOR R22)
000484: 07,2306           55725                           TS       MRKBUF1                               #  -0 IN TIME IS FLAG TO R22 SIGNIFYING A
000485: 07,2307           05333                           TC       RESUME                                #  REJECTED MARK
000486: 07,2310           11330        MRKREJCT           CCS      MARKSTAT                              #  SEE IF MARKS BEING ACCEPTED
000487: 07,2311           02315                           TC       REJECT2
000488: 07,2312           05650                           TC       ALARM                                 #  MARKS NOT BEING ACCEPTED
000489: 07,2313           00112                           OCT      112
000490: 07,2314           05333                           TC       RESUME
000491:
000492: 07,2315           45006        REJECT2            CS       BIT10                                 #  SEE IF MARK HAD BEEN MADE SINCE LAST
000493: 07,2316           71330                           MASK     MARKSTAT                              #  REJECT, AND SET BIT10 TO ZERO TO
000494: 07,2317           57330                           XCH      MARKSTAT                              #  SHOW MARK REJECT
000495:                                                                                                  #  Page 231
000496: 07,2320           75006                           MASK     BIT10
000497: 07,2321           10000                           CCS      A
000498: 07,2322           02326                           TC       REJECT3
000499:
000500: 07,2323           05650                           TC       ALARM                                 #  DON'T ACCEPT TWO REJECTS TOGETHER
000501: 07,2324           00110                           OCT      110
000502: 07,2325           05333                           TC       RESUME
000503:
000504: 07,2326           35046        REJECT3            CAF      LOW9                                  #  DECREMENT POINTER TO REJECT MARK
000505: 07,2327           71330                           MASK     MARKSTAT
000506: 07,2330           54061                           TS       ITEMP1
000507: 07,2331           45023                           CS       SEVEN
000508: 07,2332           50061                           INDEX    ITEMP1
000509: 07,2333           26052                           ADS      QPRET                                 #  NEW POINTER
000510:
000511: 07,2334           35004                           CAF      BIT12                                 #  INCREMENT MARKS WANTED AND IF FIELD
000512: 07,2335           61330                           AD       MARKSTAT                              #  IS NOW NON-ZERO, CHANGE TO VB51 TO
000513: 07,2336           57330                           XCH      MARKSTAT                              #  INDICATE MORE MARKS WANTED
000514: 07,2337           77671                           MASK     PRIO34                                #  INDICATE MORE MARKS WANTED
000515: 07,2340           10000                           CCS      A
000516: 07,2341           05333                           TC       RESUME
000517: 07,2342           37667                           CAF      PRIO32
000518: 07,2343           05134                           TC       NOVAC
000519: 07,2344     1330                                  EBANK=   MARKSTAT
000520: 07,2344           02347 16062                     2CADR    MKVB51
000521:
000522: 07,2346           05333                           TC       RESUME
000523:
000524:                                                                                                  #  Page 232
000525:                                                                                                  #  PROGRAM DESCRIPTON MKVB51 AND MKVB50
000526:
000527:                                                                                                  #  AUTHOR:       BARNERT         DATE: 2-15-67           MOD: 0
000528:                                                                                                  #  PURPOSE:      FLASH V51N70,V51N43, OR V51 TO REQUEST MARKING,
000529:                                                                                                  #                AND V50N25 R1=16 TO REQUEST TERMINATE MARKING.
000530:
000531:                                                                                                  #  CALLING SEQUENCE:     AS JOB WITHIN SXTMARK
000532:
000533:                                                                                                  #  EXIT TO ENDMARK UPON RECEIPT OF V33, V34 CAUSES GOTOP00H, ENTER
000534:                                                                                                  #        RECYCLES THE DISPLAY
000535:
000536:                                                                                                  #  NOTE: SXTMARK AUTOMATICALLY CHANGES FROM CALLING MKVB51 TO MKVB50 WHEN
000537:                                                                                                  #        SUFFICIENT MARKS HAVE BEEN MADE, AND THE REVERSE WHEN A MARK
000538:                                                                                                  #        REJECT REDUCES THE NUMBER MADE BELOW THAT REQUIRED
000539:
000540:                                                                                                  #  SUBROUTINES CALLED:  BANKCALL, GOMARK2, GOODEND, ENDMARK, WAITLIST
000541:
000542:                                                                                                  #  ALARM OR ABORT MODES:  NONE
000543:
000544:                                                                                                  #  ERASABLE USED:  VERBREG, MARKSTAT, QPRET, DSPTEM1
000545:
000546:                                                                                                  #  OUTPUT MARKSTAT = VAC ADDRESS
000547:
000548:                                                                                                  #  QPRET = NO. MARKS
000549:
000550: 07,2347           04662        MKVB51             TC       BANKCALL                              #  CLEAR DISPLAY FOR MARK VERB
000551: 07,2350           20560                           CADR     KLEENEX
000552: 07,2351           32427                           CAF      VB51                                  #  DISPLAY MARK VB51
000553: 07,2352           04662                           TC       BANKCALL
000554: 07,2353           20572                           CADR     GOMARK4
000555: 07,2354           12357                           TCF      TERMSXT                               #  VB34-TERMINATE
000556: 07,2355           12370                           TCF      ENTANSWR                              #  V33-PROCEED-MARKING DONE
000557: 07,2356           12416                           TCF      MKVB5X                                #  ENTER-RECYCLE TO INITIAL MARK DISPLAY
000558:
000559: 07,2357           05536        TERMSXT            TC       CLEARMRK                              #  CLEAR MARK ACTIVITY.
000560:
000561: 07,2360           05364                           TC       CHECKMM
000562: 07,2361           00003                           MM       03         B-14
000563: 07,2362           12364                           TCF      +2
000564: 07,2363           02366                           TC       TERMP03
000565: 07,2364           04701                           TC       POSTJUMP
000566: 07,2365           30205                           CADR     TERM52
000567:
000568: 07,2366           05546        TERMP03            TC       UPFLAG
000569: 07,2367           00032                           ADRES    TRM03FLG
000570: 07,2370           35046        ENTANSWR           CAF      LOW9                                  #  PUT VAC ADR IN MARKSTAT AND NO. OF
000571: 07,2371           71330                           MASK     MARKSTAT                              #  MARKS MADE IN QPRET BEFORE LEAVING
000572: 07,2372           55330                           TS       MARKSTAT                              #  SXTMARK
000573: 07,2373           40000                           COM
000574: 07,2374           51330                           INDEX    MARKSTAT
000575: 07,2375           60052                           AD       QPRET
000576:                                                                                                  #  Page 233
000577: 07,2376           00006                           EXTEND
000578: 07,2377           62403                           BZMF     JAMIT                                 #  NO MARKS MADE, SHOW IT IN QPRET, R53
000579: 07,2400           00006                           EXTEND                                         #        WILL PICK IT UP AND RECYCLE
000580: 07,2401           75004                           MP       BIT12                                 #  THIS PUTS NUMBER MARKS-1 IN A
000581: 07,2402           65017                           AD       ONE
000582: 07,2403           51330        JAMIT              INDEX    MARKSTAT                              #  STORE NO OF MARKS MADE
000583: 07,2404           54052                           TS       QPRET
000584: 07,2405           00004                           INHINT                                         #  SERVICE OPTSTALL INTERFACE WITH
000585: 07,2406           35022                           CAF      FIVE
000586: 07,2407           05245                           TC       WAITLIST
000587: 07,2410     1330                                  EBANK=   MARKSTAT
000588: 07,2410           02413 16062                     2CADR    ENDMARKS
000589:
000590: 07,2412           05534                           TC       ENDMARK                               #  KNOCKS DOWN MARKING FLAG + DOES ENDOFJOB
000591:
000592: 07,2413           35017        ENDMARKS           CAF      ONE
000593: 07,2414           04740                           TC       IBNKCALL
000594: 07,2415           17550                           CADR     GOODEND
000595: 07,2416           37671        MKVB5X             CAF      PRIO34
000596: 07,2417           71330                           MASK     MARKSTAT                              #  RE-DISPLAY VB51 IF MORE MARKS WANTED
000597: 07,2420           10000                           CCS      A                                     #  AND VB50 IF ALL IN
000598: 07,2421           12347                           TCF      MKVB51
000599: 07,2422           34333        MKVB50             CAF      R1D1                                  #  OCT 16
000600: 07,2423           55045                           TS       DSPTEM1
000601: 07,2424           32426                           CAF      V50N25
000602: 07,2425           12352                           TCF      MKVB51     +3
000603:
000604: 07,2426           14431        V50N25             VN       5025
000605: 07,2427           14600        VB51               VN       5100
000606: 07,2430     4362               OCT37              =        LOW5
000607:
000608:                                                                                                  #  PROGRAM NAME:  MARKIT                         DATE: 19 SEPT 1967
000609:
000610:                                                                                                  #  CALLING SEQUENCE:
000611:
000612:                                                                                                  #        FROM MARKRUPT IF CHAN 16 BIT 6 = 1
000613:
000614:                                                                                                  #  EXIT
000615:
000616:                                                                                                  #        RESUME
000617:
000618:                                                                                                  #  INPUT
000619:
000620:                                                                                                  #        CDUCHKWD.  ALSO ALL INITIALIZATION FOR MARKCONT
000621:
000622:                                                                                                  #  OUTPUT
000623:
000624:                                                                                                  #        MKT2T1,MKCDUX,MKCDUY,MKCDUZ,MKCDUS,MKCDUT
000625:
000626:                                                                                                  #  ALARM EXIT
000627:
000628:                                                                                                  #        NONE
000629:
000630: 07,2430           11341        MARKIT             CCS      CDUCHKWD
000631: 07,2431           12434                           TCF      +3                                    #  DELAY OF CDUCHKWD CS IF PNZ
000632:                                                                                                  #  Page 234
000633: 07,2432           12434                           TCF      +2
000634: 07,2433           35021                           CAF      ZERO
000635: 07,2434           65017                           AD       ONE                                   #  10 MS IF NO CHECK
000636: 07,2435           05245                           TC       WAITLIST
000637: 07,2436  E7,1725                                  EBANK=   MRKBUF1
000638: 07,2436           02203 20067                     2CADR    MARKDIF
000639:
000640: 07,2440           15333                           TCF      RESUME
000641:
000642: 10,2000                                           SETLOC   SXTMARK1
000643: 10,2000                                           BANK
000644:
000645: 10,2203                                           COUNT    20/SXTMK
000646:
000647:                                                                                                  #  PROGRAM NAME:  MARKDIF
000648:
000649:                                                                                                  #  CALLING SEQUENCE
000650:
000651:                                                                                                  #        WAITLIST FROM MARKIT
000652:
000653:                                                                                                  #  EXIT
000654:
000655:                                                                                                  #        TASKOVER TO IBNKCALL TO MARKCONT
000656:
000657:                                                                                                  #  INPUT
000658:
000659:                                                                                                  #        OUTPUT FROM MARKIT, INPUT TO MARKCONT, CDUCHKWD
000660:
000661:                                                                                                  #  OUTPUT
000662:
000663:                                                                                                  #        RUPTSTOR - RUPTSTOR+3, RUPTREG3, RUPTSTOR+5 - RUPTSTOR+6
000664:
000665:                                                                                                  #  ALARM EXIT
000666:
000667:                                                                                                  #        ALARM AND TASKOVER
000668:
000669: 10,2203           31341        MARKDIF            CA       CDUCHKWD                              #  IF DELAY CHECK IS ZERO OR NEG, ACP MARK
000670: 10,2204           00006                           EXTEND
000671: 10,2205           62216                           BZMF     MKACPT
000672: 10,2206           45017                           CS       BIT1
000673: 10,2207           54354                           TS       MKNDX                                 #  SET INDEX -1
000674: 10,2210           30363                           CA       MKCDUX
000675: 10,2211           02220                           TC       DIFCHK                                #  SEE IF VEHICLE RATE TO MUCH AT MARK
000676: 10,2212           30357                           CA       MKCDUY
000677: 10,2213           02220                           TC       DIFCHK
000678: 10,2214           30361                           CA       MKCDUZ
000679: 10,2215           02220                           TC       DIFCHK
000680:
000681: 10,2216           04740        MKACPT             TC       IBNKCALL
000682: 10,2217           16153                           CADR     MARKCONT                              #  MARK DATA OK, WHAT DO WE DO WITH IT
000683:
000684: 10,2220           24354        DIFCHK             INCR     MKNDX                                 #  INCREMENT INDEX
000685:
000686: 10,2221           00006                           EXTEND
000687: 10,2222           50354                           INDEX    MKNDX
000688:                                                                                                  #  Page 235
000689: 10,2223           20032                           MSU      CDUX                                  #  GET MARK(ICDU) - CURRENT(ICDU)
000690: 10,2224           10000                           CCS      A
000691: 10,2225           12231                           TCF      +4
000692: 10,2226           00002                           TC       Q
000693: 10,2227           12231                           TCF      +2
000694: 10,2230           00002                           TC       Q
000695: 10,2231           67715                           AD       NEG2                                  #  SEE IF DIFFERENCE GREATER THAN 3 BITS
000696: 10,2232           00006                           EXTEND
000697: 10,2233           62230                           BZMF     -3                                    #  NOT GREATER
000698:
000699: 10,2234           05650                           TC       ALARM                                 #  COUPLED WITH PROGRAM ALARM
000700: 10,2235           00121                           OCT      00121
000701:
000702: 10,2236           15324                           TCF      TASKOVER                              #  DO NOT ACCEPT
000703:
000704:

End of include-file SXTMARK.agc.  Parent file is MAIN.agc


