
Source Code


000002:                                                                                                  ## Copyright:   Public domain.
000003:                                                                                                  ## Filename:    SXTMARK.agc
000004:                                                                                                  ## Purpose:     Part of the source code for Comanche, build 055. It
000005:                                                                                                  ##              is part of the source code for the Command Module's
000006:                                                                                                  ##              (CM) Apollo Guidance Computer (AGC), Apollo 11.
000007:                                                                                                  ## Assembler:   yaYUL
000008:                                                                                                  ## Reference:   pp. 222-235
000009:                                                                                                  ## Contact:     Ron Burkey <info@sandroid.org>,
000010:                                                                                                  ##              Fabrizio Bernardini <fabrizio@spacecraft.it>
000011:                                                                                                  ## Website:     http://www.ibiblio.org/apollo.
000012:                                                                                                  ## Mod history: 16/05/09 FB     Transcription Batch 2 Assignment.
000013:                                                                                                  ##              2010-08-28 JL   Fixed indentation.
000014:                                                                                                  ##              2016-12-10 RSB  Proofed comments with octopus/ProoferComments
000015:                                                                                                  ##                              and fixed the errors found.
000016:                                                                                                  ##              2017-01-18 RSB  Fixed comment-text errors noted while diff'ing
000017:                                                                                                  ##                              vs Colossus 249.
000018:                                                                                                  ##
000019:                                                                                                  ## The contents of the "Comanche055" files, in general, are transcribed
000020:                                                                                                  ## from scanned documents.
000021:                                                                                                  ##
000022:                                                                                                  ##      Assemble revision 055 of AGC program Comanche by NASA
000023:                                                                                                  ##      2021113-051.  April 1, 1969.
000024:                                                                                                  ##
000025:                                                                                                  ##      This AGC program shall also be referred to as Colossus 2A
000026:                                                                                                  ##
000027:                                                                                                  ##      Prepared by
000028:                                                                                                  ##                      Massachusetts Institute of Technology
000029:                                                                                                  ##                      75 Cambridge Parkway
000030:                                                                                                  ##                      Cambridge, Massachusetts
000031:                                                                                                  ##
000032:                                                                                                  ##      under NASA contract NAS 9-4065.
000033:                                                                                                  ##
000034:                                                                                                  ## Refer directly to the online document mentioned above for further
000035:                                                                                                  ## information.  Please report any errors to info@sandroid.org.
000036:


000038:                                                                                                  #  PROGRAM NAME - SXTMARK                                        DATE - 5 APRIL 1967
000039:                                                                                                  #  PROGRAM MODIFIED BY 258/278 PROGRAMMERS                       LOG SECTION SXTMARK
000040:                                                                                                  #  MOD BY - R. MELANSON TO ADD DOCUMENTATION                     ASSEMBLY SUNDISK REV. 116
000041:                                                                                                  #
000042:                                                                                                  #  FUNCTIONAL DESCRIPTION-
000043:
000044:                                                                                                  #        SXTMARK IS CALLED FROM INTERNAL ROUTINES WHICH MAY REQUIRE STAR OR LANDMARK MARKINGS BY THE ASTRONAUT.  IF
000045:                                                                                                  #        THE MARK SYSTEM IS NOT IN USE, SXTMARK RESERVES A VAC AREA FOR MARKING AND REQUESTS EXECUTION OF THE MKVB51
000046:                                                                                                  #        ROUTINE VIA THE EXECUTIVE JOB PRIORITY LIST.  R21 USES THIS ROUTINE TO DETERMINE IF THE MARK SYSTEM CAN BE
000047:                                                                                                  #        USED.  IF YES, SXTMARK RETURNS TO R21 TO PERFORM ITS OWN MARK REQUESTS VIA THE V51 FLASH.
000048:
000049:                                                                                                  #  CALLING SEQUENCE-
000050:
000051:                                                                                                  #        CAF     (NO. MARK REQUESTS IN BITS 1-3 OF A)
000052:                                                                                                  #        TC      BANKCALL
000053:                                                                                                  #        CADR    SXTMARK
000054:
000055:                                                                                                  #  NORMAL EXIT MODE-
000056:
000057:                                                                                                  #        SWRETURN
000058:
000059:                                                                                                  #  ALARM OR ABORT EXIT MODE-
000060:
000061:                                                                                                  #        ABORT
000062:
000063:                                                                                                  #  OUTPUT-
000064:
000065:                                                                                                  #        1)      MARKSTAT CONTAINS MARK VALUE (BITS 14-12) AND VAC AREA ADDRESS
000066:                                                                                                  #        2)      QPRET = VAC AREA POINTER VALUE
000067:                                                                                                  #        3)      1ST WORD OF RESERVED VAC AREA SET TO +0
000068:                                                                                                  #        4)      PRIO32 PLACED IN A REGISTER
000069:
000070:                                                                                                  #  ERASABLE INITIALIZATION-
000071:
000072:                                                                                                  #        1)      BITS 1-3 OF A = NO. MARKS REQUESTED
000073:                                                                                                  #        2)      BITS 2,3 OF EXTVBACT = 0
000074:                                                                                                  #        3)      A VAC AREA MUST BE AVAILABLE (WORD 1 = ADDRESS OF VAC AREA)
000075:
000076:                                                                                                  #  DEBRIS-
000077:
000078:                                                                                                  #        A,Q,L,RUPTREG1,MARKSTAT,QPRET,BIT2 OF EXTVBACT
000079:
000080: 13,2036                                           BANK     13
000081: 07,2000                                           SETLOC   SXTMARKE
000082: 07,2000                                           BANK
000083:
000084: 07,2002  E7,1725                                  EBANK=   MRKBUF1
000085: 07,2002                                           COUNT    07/SXTMK
000086:
000087: 07,2002           00004        SXTMARK            INHINT
000088: 07,2003           54070                           TS       RUPTREG1                              #  NUMBER OF MARKS WANTED
000089:
000090: 07,2004           36211                           CAF      SIX                                   #  BIT2 = MARKING SYSTEM IN USE
000091: 07,2005           71044                           MASK     EXTVBACT                              #  BIT3 = EXTENDED VERB IN PROGRESS
000092: 07,2006           10000                           CCS      A
000093: 07,2007           02013                           TC       MKABORT                               #  SET THEREFORE ABORT


000095: 07,2010           35016                           CAF      BIT2                                  #  NOT SET
000096: 07,2011           27044                           ADS      EXTVBACT                              #  SET IT, RESET IN ENDMARK
000097: 07,2012           02015                           TC       MARKOK                                #  YES, FIND VAC AREA
000098:
000099: 07,2013           07755        MKABORT            TC       BAILOUT
000100: 07,2014           01211                           OCT      01211
000101: 07,2015           10400        MARKOK             CCS      VAC1USE                               #  FIND VAC AREA
000102: 07,2016           02031                           TC       MKVACFND
000103: 07,2017           10454                           CCS      VAC2USE
000104: 07,2020           02031                           TC       MKVACFND
000105: 07,2021           10530                           CCS      VAC3USE
000106: 07,2022           02031                           TC       MKVACFND
000107: 07,2023           10604                           CCS      VAC4USE
000108: 07,2024           02031                           TC       MKVACFND
000109: 07,2025           10660                           CCS      VAC5USE
000110: 07,2026           02031                           TC       MKVACFND
000111: 07,2027           07755                           TC       BAILOUT
000112: 07,2030           01207                           OCT      01207
000113:
000114: 07,2031           65016        MKVACFND           AD       TWO                                   #  ADDRESS OF VAC AREA
000115: 07,2032           55330                           TS       MARKSTAT
000116: 07,2033           50000                           INDEX    A
000117: 07,2034           54052                           TS       QPRET                                 #  STORE NEXT AVAILABLE MARK SLOT
000118:
000119: 07,2035           35021                           CAF      ZERO                                  #  SHOW VAC AREA OCCUPIED
000120: 07,2036           51330                           INDEX    MARKSTAT
000121: 07,2037           53777                           TS       0          -1
000122:
000123: 07,2040           05364                           TC       CHECKMM                               #  BACKUP MARK ROUTINE USES SXTMARK
000124: 07,2041           00065                           MM       53         B-14
000125: 07,2042           12044                           TCF      +2
000126: 07,2043           14675                           TCF      SWRETURN
000127: 07,2044           05364                           TC       CHECKMM
000128: 07,2045           00066                           MM       54         B-14
000129: 07,2046           12050                           TCF      +2
000130: 07,2047           14675                           TCF      SWRETURN
000131: 07,2050           35004                           CAF      BIT12                                 #  DESIRED NUMBER OF MARKS IN 12-14
000132: 07,2051           00006                           EXTEND
000133: 07,2052           70070                           MP       RUPTREG1
000134: 07,2053           56001                           XCH      L
000135: 07,2054           27330                           ADS      MARKSTAT
000136:
000137: 07,2055           37667                           CAF      PRIO32                                #  ENTER MARK JOB
000138: 07,2056           05134                           TC       NOVAC
000139: 07,2057     1330                                  EBANK=   MARKSTAT
000140: 07,2057           02347 16062                     2CADR    MKVB51
000141:
000142: 07,2061           00003                           RELINT
000143: 07,2062           14675                           TCF      SWRETURN                              #  SAME AS MODEEXIT
000144:


000146:                                                                                                  #  PROGRAM NAME - MKRELEAS                                       DATE - 5 APRIL 1967
000147:                                                                                                  #  PROGRAM MODIFIED BY 258/278 PROGRAMMERS                       LOG SECTION SXTMARK
000148:                                                                                                  #  MOD BY - R. MELANSON TO ADD DOCUMENTATION                     ASSEMBLY SUNDISK REV. 116
000149:
000150:                                                                                                  #  FUNCTIONAL DESCRIPTION-
000151:
000152:                                                                                                  #        MKRELEAS IS EXECUTED BY INTERNAL ROUTINES TO RELEASE THE MARK SYSTEM TO MAKE IT AVAILABLE TO OTHER INTERNAL
000153:                                                                                                  #        SYSTEM ROUTINES.  IT ALSO CLEARS THE COARSE OPTICS FLAG BIT AND DISABLES THE OPTICS ERROR COUNTER.
000154:
000155:                                                                                                  #  CALLING SEQUENCE-
000156:
000157:                                                                                                  #        TC      BANKCALL
000158:                                                                                                  #        CADR    MKRELEAS
000159:
000160:                                                                                                  #  NORMAL EXIT MODE-
000161:
000162:                                                                                                  #        SWRETURN
000163:
000164:                                                                                                  #  ALARM OR ABORT EXIT MODE-  NONE
000165:
000166:                                                                                                  #  OUTPUT-
000167:
000168:                                                                                                  #        1)      BIT9 OPTMODES SET TO 0
000169:                                                                                                  #        2)      OPTIND SET TO -1
000170:                                                                                                  #        3)      1ST WORD OF VAC AREA SET TO VAC ADDRESS TO SIGNIFY AVAILABILITY.
000171:                                                                                                  #        4)      MARKSTAT CLEARED
000172:                                                                                                  #        5)      BIT2 CHANNEL 12 SET TO 0
000173:
000174:                                                                                                  #  ERASABLE INITIALIZATION-  NONE
000175:
000176:                                                                                                  #  DEBRIS-
000177:
000178:                                                                                                  #        A,MARKSTAT,BIT9 OPTMODES,OPTIND,BIT2 CHANNEL 12
000179:
000180: 07,2063           35021        MKRELEAS           CAF      ZERO                                  #  SHOW MARK SYSTEM NOW AVAILABLE
000181: 07,2064           57330                           XCH      MARKSTAT
000182: 07,2065           75046                           MASK     LOW9
000183: 07,2066           10000                           CCS      A
000184: 07,2067           50000                           INDEX    A
000185: 07,2070           54000                           TS       0
000186: 07,2071           00004        MKRLEES            INHINT
000187: 07,2072           45007                           CS       BIT9                                  #  COARSE OPTICS RETURN FLAG.
000188: 07,2073           71331                           MASK     OPTMODES
000189: 07,2074           55331                           TS       OPTMODES
000190:
000191: 07,2075           37716                           CA       NEGONE
000192: 07,2076           55303                           TS       OPTIND                                #  KILL COARS OPTICS
000193:
000194: 07,2077           45016                           CS       BIT2                                  #  DISABLE OPTICS ERROR COUNTER
000195: 07,2100           00006                           EXTEND
000196: 07,2101           03012                           WAND     CHAN12
000197:
000198: 07,2102           00003                           RELINT
000199: 07,2103           04675                           TC       SWRETURN


000201:                                                                                                  #  PROGRAM NAME - MARKRUPT                                       DATE - 5 APRIL 1967
000202:                                                                                                  #  PROGRAM MODIFIED BY 258/278 PROGRAMMERS                       LOG SECTION SXTMARK
000203:                                                                                                  #  MOD BY - R. MELANSON TO ADD DOCUMENTATION                     ASSEMBLY SUNDISK REV. 116
000204:
000205:                                                                                                  #  FUNCTIONAL DESCRIPTION-
000206:                                                                                                  #        MARKRUPT STORES CDUS,OPTICS AND TIME AND TRANSFERS CONTROL TO THE MARKIT,MARK REJECT OR KEYCOM ROUTINES IF
000207:                                                                                                  #        BITS IN CHANNEL 16 ARE SET AS REQUIRED.
000208:
000209:                                                                                                  #  CALLING SEQUENCE-
000210:                                                                                                  #        ROUTINE ENTERED VIA KEYRUPT2 WHEN MARK,MARK REJECT OR DSKY KEYS DEPRESSED BY THE OPERATOR.
000211:
000212:                                                                                                  #  NORMAL EXIT MODE-
000213:                                                                                                  #        MARKIT, MKREJECT OR POSTJUMP ROUTINES (MARK, MARK REJECT OR DSKY CODE)
000214:
000215:                                                                                                  #  ALARM OR ABORT EXIT MODE-
000216:                                                                                                  #        ALARM AND RESUME
000217:
000218:                                                                                                  #  OUTPUT-
000219:                                                                                                  #        RUPTSTOR+5 = CDUT, RUPTSTOR+3 = CDUS, RUPTSTOR+2 = CDUY,
000220:                                                                                                  #        RUPTREG3 = CDUZ, RUPTSTOR+6 = CDUX, RUPTSTOR+1 AND SAMPTIME+1 = TIME1,
000221:                                                                                                  #        RUPTSTOR AND SAMPTIME = TIME2
000222:
000223:                                                                                                  #  ERASABLE INITIALIZATION-
000224:                                                                                                  #        CDUT,CDUS,CDUY,CDUZ,CDUX,TIME2,TIME1,CHANNEL 16 BITS 6,7 OR 1-5
000225:
000226:                                                                                                  #  DEBRIS-
000227:                                                                                                  #        A,QRUPT,RUPTREG3,SAMPTIME,SAMPTIME+1,RUPTSTOR TO RUPTSTOR+6 EXCEPT RUPTSTOR+4 (LOCATION 67)
000228:
000229: 07,2104           54016        MARKRUPT           TS       BANKRUPT                              #  STORE CDUS AND OPTICS NOW
000230: 07,2105           30035                           CA       CDUT
000231: 07,2106           54362                           TS       MKCDUT
000232: 07,2107           30036                           CA       CDUS
000233: 07,2110           54360                           TS       MKCDUS
000234: 07,2111           30033                           CA       CDUY
000235: 07,2112           54357                           TS       MKCDUY
000236: 07,2113           30034                           CA       CDUZ
000237: 07,2114           54361                           TS       MKCDUZ
000238: 07,2115           30032                           CA       CDUX
000239: 07,2116           54363                           TS       MKCDUX
000240: 07,2117           00006                           EXTEND
000241: 07,2120           30025                           DCA      TIME2                                 #  GET TIME
000242: 07,2121           52356                           DXCH     MKT2T1
000243: 07,2122           00006                           EXTEND
000244: 07,2123           30356                           DCA      MKT2T1
000245: 07,2124           52014                           DXCH     SAMPTIME                              #  RUPT TIME FOR NOUN 65.
000246:
000247: 07,2125           56002                           XCH      Q
000248: 07,2126           54012                           TS       QRUPT
000249:
000250: 07,2127           35012                           CAF      BIT6                                  #  SEE IF MARK OR MKREJECT


000252: 07,2130           00006                           EXTEND
000253: 07,2131           02016                           RAND     NAVKEYIN
000254: 07,2132           10000                           CCS      A
000255: 07,2133           02430                           TC       MARKIT                                #  ITS A MARK
000256:
000257: 07,2134           35011                           CAF      BIT7                                  #  NOT A MARK, SEE IF MKREJECT
000258: 07,2135           00006                           EXTEND
000259: 07,2136           02016                           RAND     NAVKEYIN
000260: 07,2137           10000                           CCS      A
000261: 07,2140           02301                           TC       MKREJECT                              #  ITS A MARK REJECT
000262:
000263: 07,2141           34362        KEYCALL            CAF      OCT37                                 #  NOT MARK OR MKREJECT, SEE IF KEYCODE
000264: 07,2142           00006                           EXTEND
000265: 07,2143           02016                           RAND     NAVKEYIN
000266: 07,2144           00006                           EXTEND
000267: 07,2145           12150                           BZF      +3                                    #  IF NO INBITS
000268: 07,2146           04701                           TC       POSTJUMP
000269: 07,2147           17702                           CADR     KEYCOM                                #  IT,S A KEY CODE, NOT A MARK.
000270:
000271: 07,2150           05650                 +3        TC       ALARM                                 #  ALARM IF NO INBITS
000272: 07,2151           00113                           OCT      113
000273: 07,2152           05333                           TC       RESUME
000274:


000276:                                                                                                  #  PROGRAM NAME - MARKCONT                               DATE - 19 SEPT 1967
000277:                                                                                                  #  PROGRAM MODIFIED BY 258/278 PROGRAMMERS               LOG SECTION SXTMARK
000278:                                                                                                  #  MOD BY - R. MELANSON TO ADD DOCUMENTATION             ASSEMBLY SUNDISK REV. 116
000279:
000280:                                                                                                  #  FUNCTIONAL DESCRIPTION-
000281:                                                                                                  #        MARKCONT IS USED TO PERFORM A SPECIAL MARK FUNCTION FOR R21, TO EXECUTE A SPECIAL DISPLAY OF OPTICS AND TIME OR
000282:                                                                                                  #        TO PERFORM A MARK OF A STAR OR LAND SIGHTING BASED UPON FLASHING V-N.
000283:
000284:                                                                                                  #  CALLING SEQUENCE-
000285:
000286:                                                                                                  #        FROM MARKDIF
000287:
000288:                                                                                                  #  NORMAL EXIT MODE-
000289:                                                                                                  #        TASKOVER
000290:
000291:                                                                                                  #  ALARM OR ABORT EXIT MODE-
000292:                                                                                                  #        ALARM AND TASKOVER
000293:
000294:                                                                                                  #  OUTPUT-
000295:                                                                                                  #        1)      FOR R21-
000296:                                                                                                  #                EBANK=EBANK7
000297:                                                                                                  #                MRKBUF1 TO MRKBUF1+6 = TIME2,TIME1,CDUY,OPTICX,CDUZ,OPTICSY,CDUX OF CURRENT R21 MARK FUNCTION.
000298:                                                                                                  #                MRKBUF2 TO MRKBUF2+6 CONTAINS PREVIOUS R21 MARK VALUES.
000299:                                                                                                  #        2)      FOR SPECIAL DISPLAY JOB-
000300:                                                                                                  #                RUPTREG1 AND MRKBUF1 = CDUS,RUPTREG2 AND MRKBUF1+1 = CDUT.
000301:                                                                                                  #                RUPTREG3 AND MRKBUF1+2 = TIME2,RUPTREG4 AND MRKBUF1+3 = TIME1
000302:                                                                                                  #        3)      FOR NORMAL MARKING-
000303:                                                                                                  #                DECREMENT BITS14-12 OF MARKSTAT BY 1,
000304:                                                                                                  #                BIT10 MARKSTAT SET TO 1, INCREMENT QPRET BY 7,
000305:                                                                                                  #                STORE TIME2,TIME1,CDUY,CDUS,CDUZ,CDUT AND CDUX IN VAC+1 TO VAC+7
000306:
000307:                                                                                                  #  ERASABLE INITIALIZATION-
000308:                                                                                                  #        1)      FOR R21-
000309:                                                                                                  #                BIT14 OF STATE+2 =1, MRKBUF1 TO MRKBUF1+6, ITEMP1, RUPTREG3,
000310:                                                                                                  #                RUPTSTOR TO RUPTSTOR+6 EXCEPT RUPTSTOR+4
000311:                                                                                                  #        2)      FOR SPECIAL DISPLAY JOB-
000312:                                                                                                  #                BIT14 OF STATE+2 =0, MARKSTAT =+0, RUPTREG1,RUPTREG2,RUPTREG3
000313:                                                                                                  #                RUPTREG4,RUPTSTOR,RUPTSTOR+1,RUPTSTOR+3,RUPTSTOR+5,
000314:                                                                                                  #                BIT12 OF STATE+5 (V59 FLAG), MRKBUF1 THRU MRKBUF1+3
000315:                                                                                                  #        3)      FOR NORMAL MARKING-
000316:                                                                                                  #                BIT14 OF STATE+2 =0, MARKSTAT =VAC ADDRESS,A REG,ITEMP1,RUPTREG3,
000317:                                                                                                  #                RUPTSTOR TO RUPTSTOR+6 EXCEPT RUPTSTOR+4
000318:
000319:                                                                                                  #  DEBRIS-
000320:                                                                                                  #        1)      FOR R21-
000321:                                                                                                  #                A, ITEMP1, MRKBUF1, MRKBUF2
000322:                                                                                                  #        2)      FOR SPECIAL DISPLAY JOB-
000323:                                                                                                  #                A,RUPTREG1,RUPTREG2,RUPTREG3,RUPTREG4,MPAC TO MPAC+3
000324:                                                                                                  #        3)      FOR NORMAL MARKING-
000325:                                                                                                  #                A,MARKSTAT,ITEMP1,QPRET,VAC+1 TO VAC+7 OF VAC AREA IN USE
000326:


000328: 07,2153           35002        MARKCONT           CAF      BIT14
000329: 07,2154           70076                           MASK     STATE      +2                         #  R21 MARK (SPECIAL MARKING FOR R21)
000330: 07,2155           00006                           EXTEND
000331: 07,2156           12170                           BZF      MARKET                                #  NOT SET THEREFORE REGULAR MARKING
000332: 07,2157           36211        MARKIT1            CAF      SIX                                   #  SPECIAL FOR R21
000333: 07,2160           05606                           TC       GENTRAN                               #  TRANSFER MRKBUF1 TO MRKBUF2
000334: 07,2161           01725                           ADRES    MRKBUF1
000335: 07,2162           01734                           ADRES    MRKBUF2
000336:
000337: 07,2163           36211                           CAF      SIX                                   #  TRANSFER CURRENT MARK DATA TO MARKBUF1
000338: 07,2164           05606                           TC       GENTRAN
000339: 07,2165           00355                           ADRES    MKT2T1
000340: 07,2166           01725                           ADRES    MRKBUF1
000341:
000342: 07,2167           15324                           TCF      TASKOVER
000343:
000344: 07,2170           11330        MARKET             CCS      MARKSTAT                              #  SEE IF MARKS CALLED FOR
000345: 07,2171           02225                           TC       MARK2                                 #  COLLECT MARKS
000346:
000347: 07,2172           35016                           CAF      TWO                                   #  IS MARKING SYSTEM IN USE (BIT2)
000348: 07,2173           71044                           MASK     EXTVBACT
000349: 07,2174           00006                           EXTEND
000350: 07,2175           12217                           BZF      MARKET3                               #  MARKING NOT CALLED FOR
000351: 07,2176           35004                           CAF      BIT12
000352: 07,2177           70101                           MASK     STATE      +5                         #  V59FLAG
000353: 07,2200           00006                           EXTEND
000354: 07,2201           12217                           BZF      MARKET3                               #  IF V59FLAG NOT SET-MARK UNCALLED FOR
000355: 07,2202           35061                           CAF      PRIO5                                 #  CALIBRATION MARK (SET) FOR P23
000356: 07,2203           05134                           TC       NOVAC                                 #  SPECIAL DISPLAY JOB
000357: 07,2204  E7,1725                                  EBANK=   MRKBUF1
000358: 07,2204           02426 76067                     2CADR    MARKDISP
000359:
000360: 07,2206           36211                           CAF      SIX
000361: 07,2207           05606                           TC       GENTRAN                               #  TRANSFER MARK DATA TO MARKDOWN
000362: 07,2210           00355                           ADRES    MKT2T1
000363: 07,2211           01674                           ADRES    MARKDOWN
000364: 07,2212           36211                           CAF      SIX
000365: 07,2213           05606                           TC       GENTRAN                               #  TRANSFER MARK DATA TO MRKBUF1 FOR
000366: 07,2214           00355                           ADRES    MKT2T1                                #  SPECIAL DISPLAY OF SHAFT AND TRUNNION
000367: 07,2215           01725                           ADRES    MRKBUF1                               #  IF V59 ACTING
000368: 07,2216           15324                           TCF      TASKOVER
000369: 07,2217           05650        MARKET3            TC       ALARM
000370: 07,2220           00122                           OCT      122                                   #  MARKING NOT CALLED FOR
000371: 07,2221           15324                           TCF      TASKOVER
000372: 07,2222           05650        114ALM             TC       ALARM                                 #  MARK NOT WANTED
000373: 07,2223           00114                           OCT      114
000374: 07,2224           15324                           TCF      TASKOVER
000375:


000377:                                                                                                  #  STORE MARK DATA IN MKVAC AND INCREMENT POINTER
000378:
000379: 07,2225           67711        MARK2              AD       74K                                   #  SEE IF MARKS WANTED-REDUCE MARKS WANTED
000380: 07,2226           00006                           EXTEND
000381: 07,2227           62222                           BZMF     114ALM                                #  MARK NOT WANTED-ALARM
000382: 07,2230           55330                           TS       MARKSTAT
000383: 07,2231           40000                           COM
000384: 07,2232           75006                           MASK     BIT10                                 #  SET BIT10 TO ENABLE REJECT
000385: 07,2233           27330                           ADS      MARKSTAT
000386:
000387: 07,2234           75046                           MASK     LOW9
000388: 07,2235           54061                           TS       ITEMP1
000389: 07,2236           50000                           INDEX    A
000390: 07,2237           56052                           XCH      QPRET                                 #  PICK UP MARK SLOT-POINTER
000391: 07,2240           54062                           TS       ITEMP2                                #  SAVE CURRENT POINTER
000392: 07,2241           65023                           AD       SEVEN                                 #  INCREMENT POINTER
000393: 07,2242           50061                           INDEX    ITEMP1
000394: 07,2243           54052                           TS       QPRET                                 #  STORE ADVANCED POINTER
000395:
000396: 07,2244           00006        VACSTOR            EXTEND
000397: 07,2245           30356                           DCA      MKT2T1
000398: 07,2246           50062                           INDEX    ITEMP2
000399: 07,2247           52001                           DXCH     0
000400: 07,2250           30357                           CA       MKCDUY
000401: 07,2251           50062                           INDEX    ITEMP2
000402: 07,2252           54002                           TS       2
000403: 07,2253           30360                           CA       MKCDUS
000404: 07,2254           50062                           INDEX    ITEMP2
000405: 07,2255           54003                           TS       3
000406: 07,2256           30361                           CA       MKCDUZ
000407: 07,2257           50062                           INDEX    ITEMP2
000408: 07,2260           54004                           TS       4
000409: 07,2261           30362                           CA       MKCDUT
000410: 07,2262           50062                           INDEX    ITEMP2
000411: 07,2263           54005                           TS       5
000412: 07,2264           30363                           CA       MKCDUX
000413: 07,2265           50062                           INDEX    ITEMP2
000414: 07,2266           54006                           TS       6
000415:
000416: 07,2267           37671                           CAF      PRIO34                                #  IF ALL MARKS MADE FLASH VB50
000417: 07,2270           71330                           MASK     MARKSTAT
000418: 07,2271           00006                           EXTEND
000419: 07,2272           12274                           BZF      +2
000420: 07,2273           15324                           TCF      TASKOVER
000421: 07,2274           37667                           CAF      PRIO32
000422: 07,2275           05134                           TC       NOVAC
000423: 07,2276     1330                                  EBANK=   MARKSTAT
000424: 07,2276           02422 16062                     2CADR    MKVB50
000425:
000426: 07,2300           15324                           TCF      TASKOVER
000427:


000429:                                                                                                  #  PROGRAM NAME - MKREJECT                                       DATE - 5 APRIL 1967
000430:                                                                                                  #  PROGRAM MODIFIED BY 258/278 PROGRAMMERS                       LOG SECTION SXTMARK
000431:                                                                                                  #  MOD BY - R. MELANSON TO ADD DOCUMENTATION                     ASSEMBLY SUNDISK REV. 116
000432:
000433:                                                                                                  #  FUNCTIONAL DESCRIPTION-
000434:                                                                                                  #        ROUTINE ALLOWS OPERATOR TO REJECT MARK MADE PRIOR TO ACCEPTANCE AND ALLOWS A NEW MARK TO BE MADE BY ASTRONAUT
000435:
000436:                                                                                                  #  CALLING SEQUENCE-
000437:                                                                                                  #        FROM MARKRUPT IF BIT7 OF CHANNEL 16 IS 1.
000438:
000439:                                                                                                  #  NORMAL EXIT MODE-
000440:                                                                                                  #        RESUME
000441:
000442:                                                                                                  #  ALARM OR ABORT EXIT MODE-
000443:                                                                                                  #        ALARM AND RESUME
000444:
000445:                                                                                                  #  OUTPUT-
000446:                                                                                                  #        1)      FOR R21-
000447:                                                                                                  #                MRKBUF1 SET TO -1
000448:                                                                                                  #        2)      FOR NORMAL MARKING-
000449:                                                                                                  #                BIT10 MARKSTAT =0, INCREMENT NO. MARKS BY 1, DECREMENT QPRET BY 7
000450:
000451:                                                                                                  #  ERASABLE INITIALIZATION-
000452:                                                                                                  #        1)      FOR R21-
000453:                                                                                                  #                BIT14 OF STATE+2 SET TO 1
000454:                                                                                                  #        2)      FOR NORMAL MARKING-
000455:                                                                                                  #                BIT14 OF STATE+2 SET TO 0, MARKSTAT,QPRET
000456:
000457:                                                                                                  #  DEBRIS-
000458:                                                                                                  #        1)      FOR R21-
000459:                                                                                                  #                A,MARKSTAT,EBANK
000460:                                                                                                  #        2)      FOR NORMAL MARKING-
000461:                                                                                                  #                A,MARKSTAT,ITEMP1,QPRET
000462:
000463: 07,2301           35002        MKREJECT           CAF      BIT14
000464: 07,2302           70076                           MASK     STATE      +2                         #  R21 MARK (SPECIAL MARKING FOR R21)
000465: 07,2303           00006                           EXTEND
000466: 07,2304           12310                           BZF      MRKREJCT                              #  NOT SET THEREFORE REGULAR REJECT
000467: 07,2305           37716                           CA       NEGONE                                #  -1 (FOR R22)
000468: 07,2306           55725                           TS       MRKBUF1                               #  -0 IN TIME IS FLAG TO R22 SIGNIFYING A
000469: 07,2307           05333                           TC       RESUME                                #  REJECTED MARK
000470: 07,2310           11330        MRKREJCT           CCS      MARKSTAT                              #  SEE IF MARKS BEING ACCEPTED
000471: 07,2311           02315                           TC       REJECT2
000472: 07,2312           05650                           TC       ALARM                                 #  MARKS NOT BEING ACCEPTED
000473: 07,2313           00112                           OCT      112
000474: 07,2314           05333                           TC       RESUME
000475:
000476: 07,2315           45006        REJECT2            CS       BIT10                                 #  SEE IF MARK HAD BEEN MADE SINCE LAST
000477: 07,2316           71330                           MASK     MARKSTAT                              #  REJECT, AND SET BIT10 TO ZERO TO
000478: 07,2317           57330                           XCH      MARKSTAT                              #  SHOW MARK REJECT


000480: 07,2320           75006                           MASK     BIT10
000481: 07,2321           10000                           CCS      A
000482: 07,2322           02326                           TC       REJECT3
000483:
000484: 07,2323           05650                           TC       ALARM                                 #  DONT ACCEPT TWO REJECTS TOGETHER
000485: 07,2324           00110                           OCT      110
000486: 07,2325           05333                           TC       RESUME
000487:
000488: 07,2326           35046        REJECT3            CAF      LOW9                                  #  DECREMENT POINTER TO REJECT MARK
000489: 07,2327           71330                           MASK     MARKSTAT
000490: 07,2330           54061                           TS       ITEMP1
000491: 07,2331           45023                           CS       SEVEN
000492: 07,2332           50061                           INDEX    ITEMP1
000493: 07,2333           26052                           ADS      QPRET                                 #  NEW POINTER
000494:
000495: 07,2334           35004                           CAF      BIT12                                 #  INCREMENT MARKS WANTED AND IF FIELD
000496: 07,2335           61330                           AD       MARKSTAT                              #  IS NOW NON-ZERO, CHANGE TO VB51 TO
000497: 07,2336           57330                           XCH      MARKSTAT                              #  INDICATE MORE MARKS WANTED
000498: 07,2337           77671                           MASK     PRIO34                                #  INDICATE MORE MARKS WANTED
000499: 07,2340           10000                           CCS      A
000500: 07,2341           05333                           TC       RESUME
000501: 07,2342           37667                           CAF      PRIO32
000502: 07,2343           05134                           TC       NOVAC
000503: 07,2344     1330                                  EBANK=   MARKSTAT
000504: 07,2344           02347 16062                     2CADR    MKVB51
000505:
000506: 07,2346           05333                           TC       RESUME
000507:


000509:                                                                                                  #  PROGRAM DESCRIPTION MKVB51 AND MKVB50
000510:
000511:                                                                                                  #  AUTHOR-BARNERT DATE-2-15-67 MOD-0
000512:                                                                                                  #  PURPOSE  FLASH V51N70,V51N43, OR V51 TO REQUEST MARKING,
000513:                                                                                                  #           AND V50N25 R1=16 TO REQUEST TERMINATE MARKING
000514:
000515:                                                                                                  #  CALLING SEQUENCE   AS JOB WITHIN SXTMARK
000516:
000517:                                                                                                  #  EXIT TO ENDMARK UPON RECEIPT OF V33, V34 CAUSES GOTOPOOH, ENTER
000518:                                                                                                  #           RECYCLES THE DISPLAY
000519:
000520:                                                                                                  #  NOTE- SXTMARK AUTOMATICALLY CHANGES FROM CALLING MKVB51 TO MKVB50 WHEN
000521:                                                                                                  #           SUFFICIENT MARKS HAVE BEEN MADE, AND THE REVERSE WHEN A MARK
000522:                                                                                                  #           REJECT REDUCES THE NUMBER MADE BELOW THAT REQUIRED
000523:
000524:                                                                                                  #  SUBROUTINES CALLED- BANKCALL, GOMARK2, GOODEND, ENDMARK, WAITLIST
000525:
000526:                                                                                                  #  ALARM OR ABORT MODES - NONE
000527:
000528:                                                                                                  #  ERASABLE USED-VERBREG,MARKSTAT,QPRET,DSPTEM1
000529:
000530:                                                                                                  #  OUTPUT MARKSTAT = VAC ADDRESS
000531:
000532:                                                                                                  #  QPRET = NO. MARKS
000533:
000534: 07,2347           04662        MKVB51             TC       BANKCALL                              #  CLEAR DISPLAY FOR MARK VERB
000535: 07,2350           20560                           CADR     KLEENEX
000536: 07,2351           32427                           CAF      VB51                                  #  DISPLAY MARK VB51
000537: 07,2352           04662                           TC       BANKCALL
000538: 07,2353           20572                           CADR     GOMARK4
000539: 07,2354           12357                           TCF      TERMSXT                               #  VB34-TERMINATE
000540: 07,2355           12370                           TCF      ENTANSWR                              #  V33-PROCEED-MARKING DONE
000541: 07,2356           12416                           TCF      MKVB5X                                #  ENTER-RECYCLE TO INITIAL MARK DISPLAY
000542:
000543: 07,2357           05536        TERMSXT            TC       CLEARMRK                              #  CLEAR MARK ACTIVITY.
000544:
000545: 07,2360           05364                           TC       CHECKMM
000546: 07,2361           00003                           MM       03         B-14
000547: 07,2362           12364                           TCF      +2
000548: 07,2363           02366                           TC       TERMP03
000549: 07,2364           04701                           TC       POSTJUMP
000550: 07,2365           30205                           CADR     TERM52
000551:
000552: 07,2366           05546        TERMP03            TC       UPFLAG
000553: 07,2367           00032                           ADRES    TRM03FLG
000554: 07,2370           35046        ENTANSWR           CAF      LOW9                                  #  PUT VAC ADR IN MARKSTAT AND NO. OF
000555: 07,2371           71330                           MASK     MARKSTAT                              #  MARKS MADE IN QPRET BEFORE LEAVING
000556: 07,2372           55330                           TS       MARKSTAT                              #  SXTMARK
000557: 07,2373           40000                           COM
000558: 07,2374           51330                           INDEX    MARKSTAT
000559: 07,2375           60052                           AD       QPRET


000561: 07,2376           00006                           EXTEND
000562: 07,2377           62403                           BZMF     JAMIT                                 #  NO MARKS MADE, SHOW IT IN QPRET, R53
000563: 07,2400           00006                           EXTEND                                         #        WILL PICK IT UP AND RECYCLE
000564: 07,2401           75004                           MP       BIT12                                 #  THIS PUTS NUMBER MARKS-1 IN A
000565: 07,2402           65017                           AD       ONE
000566: 07,2403           51330        JAMIT              INDEX    MARKSTAT                              #  STORE NO OF MARKS MADE
000567: 07,2404           54052                           TS       QPRET
000568: 07,2405           00004                           INHINT                                         #  SERVICE OPTSTALL INTERFACE WITH
000569: 07,2406           35022                           CAF      FIVE
000570: 07,2407           05245                           TC       WAITLIST
000571: 07,2410     1330                                  EBANK=   MARKSTAT
000572: 07,2410           02413 16062                     2CADR    ENDMARKS
000573:
000574: 07,2412           05534                           TC       ENDMARK                               #  KNOCKS DOWN MARKING FLAG + DOES ENDOFJOB
000575:
000576: 07,2413           35017        ENDMARKS           CAF      ONE
000577: 07,2414           04740                           TC       IBNKCALL
000578: 07,2415           17550                           CADR     GOODEND
000579: 07,2416           37671        MKVB5X             CAF      PRIO34
000580: 07,2417           71330                           MASK     MARKSTAT                              #  RE-DISPLAY VB51 IF MORE MARKS WANTED
000581: 07,2420           10000                           CCS      A                                     #  AND VB50 IF ALL IN
000582: 07,2421           12347                           TCF      MKVB51
000583: 07,2422           34333        MKVB50             CAF      R1D1                                  #  OCT 16
000584: 07,2423           55045                           TS       DSPTEM1
000585: 07,2424           32426                           CAF      V50N25
000586: 07,2425           12352                           TCF      MKVB51     +3
000587:
000588: 07,2426           14431        V50N25             VN       5025
000589: 07,2427           14600        VB51               VN       5100
000590: 07,2430     4362               OCT37              =        LOW5
000591:
000592:                                                                                                  #  PROGRAM NAME - MARKIT                         DATE - 19 SEPT 1967
000593:
000594:                                                                                                  #  CALLING SEQUENCE
000595:                                                                                                  #        FROM MARKRUPT IF CHAN 16 BIT 6 = 1
000596:
000597:                                                                                                  #  EXIT
000598:                                                                                                  #        RESUME
000599:
000600:                                                                                                  #  INPUT
000601:                                                                                                  #        CDUCHKWD.  ALSO ALL INITIALIZATION FOR MARKCONT
000602:
000603:                                                                                                  #  OUTPUT
000604:                                                                                                  #        MKT2T1,MKCDUX,MKCDUY,MKCDUZ,MKCDUS,MKCDUT
000605:
000606:                                                                                                  #  ALARM EXIT
000607:                                                                                                  #        NONE
000608:
000609: 07,2430           11341        MARKIT             CCS      CDUCHKWD
000610: 07,2431           12434                           TCF      +3                                    #  DELAY OF CDUCHKWD CS IF PNZ


000612: 07,2432           12434                           TCF      +2
000613: 07,2433           35021                           CAF      ZERO
000614: 07,2434           65017                           AD       ONE                                   #  10 MS IF NO CHECK
000615: 07,2435           05245                           TC       WAITLIST
000616: 07,2436  E7,1725                                  EBANK=   MRKBUF1
000617: 07,2436           02203 20067                     2CADR    MARKDIF
000618:
000619: 07,2440           15333                           TCF      RESUME
000620:
000621: 10,2000                                           SETLOC   SXTMARK1
000622: 10,2000                                           BANK
000623:
000624: 10,2203                                           COUNT    20/SXTMK
000625:
000626:                                                                                                  #  PROGRAM NAME - MARKDIF                        DATE- 19 SEPT 1967
000627:
000628:                                                                                                  #  CALLING SEQUENCE
000629:                                                                                                  #        WAITLIST FROM MARKIT
000630:
000631:                                                                                                  #  EXIT
000632:                                                                                                  #        TASKOVER OT IBNKCALL TO MARKCONT
000633:
000634:                                                                                                  #  INPUT
000635:                                                                                                  #        OUTPUT FROM MARKIT, INPUT TO MARKCONT, CDUCHKWD
000636:
000637:                                                                                                  #  OUTPUT
000638:                                                                                                  #        RUPTSTOR - RUPTSTOR+3, RUPTREG3, RUPTSTOR+5 - RUPTSTOR+6
000639:
000640:                                                                                                  #  ALARM EXIT
000641:                                                                                                  #        ALARM AND TASKOVER
000642:
000643: 10,2203           31341        MARKDIF            CA       CDUCHKWD                              #  IF DELAY CHECK IS ZERO OR NEG, ACP MARK
000644: 10,2204           00006                           EXTEND
000645: 10,2205           62216                           BZMF     MKACPT
000646: 10,2206           45017                           CS       BIT1
000647: 10,2207           54354                           TS       MKNDX                                 #  SET INDEX -1
000648: 10,2210           30363                           CA       MKCDUX
000649: 10,2211           02220                           TC       DIFCHK                                #  SEE IF VEHICLE RATE TO MUCH AT MARK
000650: 10,2212           30357                           CA       MKCDUY
000651: 10,2213           02220                           TC       DIFCHK
000652: 10,2214           30361                           CA       MKCDUZ
000653: 10,2215           02220                           TC       DIFCHK
000654:
000655: 10,2216           04740        MKACPT             TC       IBNKCALL
000656: 10,2217           16153                           CADR     MARKCONT                              #  MARK DATA OK, WHAT DO WE DO WITH IT
000657:
000658: 10,2220           24354        DIFCHK             INCR     MKNDX                                 #  INCREMENT INDEX
000659:
000660: 10,2221           00006                           EXTEND
000661: 10,2222           50354                           INDEX    MKNDX


000663: 10,2223           20032                           MSU      CDUX                                  #  GET MARK(ICDU) - CURRENT(ICDU)
000664: 10,2224           10000                           CCS      A
000665: 10,2225           12231                           TCF      +4
000666: 10,2226           00002                           TC       Q
000667: 10,2227           12231                           TCF      +2
000668: 10,2230           00002                           TC       Q
000669: 10,2231           67715                           AD       NEG2                                  #  SEE IF DIFFERENCE GREATER THAN 3 BITS
000670: 10,2232           00006                           EXTEND
000671: 10,2233           62230                           BZMF     -3                                    #  NOT GREATER
000672:
000673: 10,2234           05650                           TC       ALARM                                 #  COUPLED WITH PROGRAM ALARM
000674: 10,2235           00121                           OCT      00121
000675:
000676: 10,2236           15324                           TCF      TASKOVER                              #  DO NOT ACCEPT
000677:
000678:

End of include-file SXTMARK.agc.  Parent file is MAIN.agc


