
Source Code
000001:                                                                                                 #  Copyright:     Public domain.
000002:                                                                                                 #  Filename:      SXTMARK.agc
000003:                                                                                                 #  Purpose:       Part of the source code for Comanche, build 055. It
000004:                                                                                                 #                 is part of the source code for the Command Module's
000005:                                                                                                 #                 (CM) Apollo Guidance Computer (AGC), Apollo 11.
000006:                                                                                                 #  Assembler:     yaYUL
000007:                                                                                                 #  Reference:     pp. 222-235
000008:                                                                                                 #  Contact:       Ron Burkey <info@sandroid.org>,
000009:                                                                                                 #                 Fabrizio Bernardini <fabrizio@spacecraft.it>
000010:                                                                                                 #  Website:       http://www.ibiblio.org/apollo.
000011:                                                                                                 #  Mod history:   16/05/09 FB     Transcription Batch 2 Assignment.
000012:
000013:                                                                                                 #  The contents of the "Comanche055" files, in general, are transcribed
000014:                                                                                                 #  from scanned documents.
000015:
000016:                                                                                                 #         Assemble revision 055 of AGC program Comanche by NASA
000017:                                                                                                 #         2021113-051.  April 1, 1969.
000018:
000019:                                                                                                 #         This AGC program shall also be referred to as Colossus 2A
000020:
000021:                                                                                                 #         Prepared by
000022:                                                                                                 #                         Massachussets Institute of Technology
000023:                                                                                                 #                         75 Cambridge Parkway
000024:                                                                                                 #                         Cambridge, Massachusetts
000025:
000026:                                                                                                 #         under NASA contract NAS 9-4065.
000027:
000028:                                                                                                 #  Refer directly to the online document mentioned above for further
000029:                                                                                                 #  information.  Please report any errors to info@sandroid.org.
000030:
000031:                                                                                                 #  Page 222
000032:                                                                                                 #  PROGRAM NAME:  SXTMARK                                 DATE:  5 APRIL 1967
000033:                                                                                                 #  PROGRAM MODIFIED BY 258/278 PROGRAMMERS                        LOG SECTION SXTMARK
000034:                                                                                                 #  MOD BY: R. MELANSON TO ADD DOCUMENTATION                       ASSEMBLY SUNDISK REV. 116
000035:                                                                                                 #
000036:                                                                                                 #  FUNCTIONAL DESCRIPTION:
000037:
000038:                                                                                                 #         SXTMARK IS CALLED FROM INTERNAL ROUTINES WHICH MAY REQUIRE STAR OR LANDMARK MARKINGS BY THE ASTRONAUT.  IF
000039:                                                                                                 #         THE MARK SYSTEM IS NOT IN USE, SXTMARK RESERVES A VAC AREA FOR MARKING AND REQUESTS EXECUTION OF THE MKVB51
000040:                                                                                                 #         ROUTINE VIA THE EXECUTIVE JOB PRIORITY LIST.  R21 USES THIS ROUTINE TO DETERMINE IF THE MARK SYSTEM CAN BE
000041:                                                                                                 #         USED.  IF YES, SXTMARK RETURNS TO R21 TO PERFORM ITS OWN MARK REQUESTS VIA THE V51 FLASH.
000042:
000043:                                                                                                 #  CALLING SEQUENCE:
000044:
000045:                                                                                                 #         CAF     (NO. MARK REQUESTS IN BITS 1-3 OF A)
000046:                                                                                                 #         TC      BANKCALL
000047:                                                                                                 #         CADR    SXTMARK
000048:
000049:                                                                                                 #  NORMAL EXIT MODE:
000050:
000051:                                                                                                 #         SWRETURN
000052:
000053:                                                                                                 #  ALARM OR ABORT EXIT MODE:
000054:
000055:                                                                                                 #         ABORT
000056:
000057:                                                                                                 #  OUTPUT:
000058:
000059:                                                                                                 #         1)      MARKSTAT CONTAINS MARK VALUE (BITS 14-12) AND VAC AREA ADDRESS
000060:                                                                                                 #         2)      QPRET = VAC AREA POINTER VALUE
000061:                                                                                                 #         3)      1ST WORD OF RESERVED VAC AREA SET TO +0
000062:                                                                                                 #         4)      PRIO32 PLACED IN A REGISTER
000063:
000064:                                                                                                 #  ERASABLE INITIALIZATION:
000065:
000066:                                                                                                 #         1)      BITS 1-3 OF A = NO. MARKS REQUESTED
000067:                                                                                                 #         2)      BITS 2,3 OF EXTVBACT = 0
000068:                                                                                                 #         3)      A VAC AREA MUST BE AVAILABLE (WORD 1 = ADDRESS OF VAC AREA)
000069:
000070:                                                                                                 #  DEBRIS:
000071:
000072:                                                                                                 #         A,Q,L,RUPTREG1,MARKSTAT,QPRET,BIT2 OF EXTVBACT
000073:
000074: 13,2036                                          BANK     13
000075: 07,2000                                          SETLOC   SXTMARKE
000076: 07,2000                                          BANK
000077:
000078: 07,2002  E7,1725                                 EBANK=   MRKBUF1
000079: 07,2002                                          COUNT    07/SXTMK
000080:
000081: 07,2002           00004        SXTMARK           INHINT
000082: 07,2003           54070                          TS       RUPTREG1                              #  NUMBER OF MARKS WANTED
000083:
000084: 07,2004           36211                          CAF      SIX                                   #  BIT2 = MARKING SYSTEM IN USE
000085: 07,2005           71044                          MASK     EXTVBACT                              #  BIT3 = EXTENDED VERB IN PROGRESS
000086: 07,2006           10000                          CCS      A
000087: 07,2007           02013                          TC       MKABORT
000088:                                                                                                 #  Page 223
000089: 07,2010           35016                          CAF      BIT2                                  #  NOT SET
000090: 07,2011           27044                          ADS      EXTVBACT                              #  SET IT, RESET IN ENDMARK
000091: 07,2012           02015                          TC       MARKOK                                #  YES, FIND VAC AREA
000092:
000093: 07,2013           07755        MKABORT           TC       BAILOUT
000094: 07,2014           01211                          OCT      01211
000095: 07,2015           10400        MARKOK            CCS      VAC1USE                               #  FIND VAC AREA
000096: 07,2016           02031                          TC       MKVACFND
000097: 07,2017           10454                          CCS      VAC2USE
000098: 07,2020           02031                          TC       MKVACFND
000099: 07,2021           10530                          CCS      VAC3USE
000100: 07,2022           02031                          TC       MKVACFND
000101: 07,2023           10604                          CCS      VAC4USE
000102: 07,2024           02031                          TC       MKVACFND
000103: 07,2025           10660                          CCS      VAC5USE
000104: 07,2026           02031                          TC       MKVACFND
000105: 07,2027           07755                          TC       BAILOUT
000106: 07,2030           01207                          OCT      01207
000107:
000108: 07,2031           65016        MKVACFND          AD       TWO                                   #  ADDRESS OF VAC AREA
000109: 07,2032           55330                          TS       MARKSTAT
000110: 07,2033           50000                          INDEX    A
000111: 07,2034           54052                          TS       QPRET                                 #  STORE NEXT AVAILABLE MARK SLOT
000112:
000113: 07,2035           35021                          CAF      ZERO                                  #  STORE VAC AREA OCCUPIED
000114: 07,2036           51330                          INDEX    MARKSTAT
000115: 07,2037           53777                          TS       0          -1
000116:
000117: 07,2040           05364                          TC       CHECKMM                               #  BACKUP MARK ROUTINE USES SXTMARK
000118: 07,2041           00065                          MM       53         B-14
000119: 07,2042           12044                          TCF      +2
000120: 07,2043           14675                          TCF      SWRETURN
000121: 07,2044           05364                          TC       CHECKMM
000122: 07,2045           00066                          MM       54         B-14
000123: 07,2046           12050                          TCF      +2
000124: 07,2047           14675                          TCF      SWRETURN
000125: 07,2050           35004                          CAF      BIT12                                 #  DESIRED NUMBER OF MARKS IN 12-14
000126: 07,2051           00006                          EXTEND
000127: 07,2052           70070                          MP       RUPTREG1
000128: 07,2053           56001                          XCH      L
000129: 07,2054           27330                          ADS      MARKSTAT
000130:
000131: 07,2055           37667                          CAF      PRIO32                                #  ENTER MARK JOB
000132: 07,2056           05134                          TC       NOVAC
000133: 07,2057     1330                                 EBANK=   MARKSTAT
000134: 07,2057           02347 16062                    2CADR    MKVB51
000135:
000136: 07,2061           00003                          RELINT
000137: 07,2062           14675                          TCF      SWRETURN                              #  SAME AS MODEEXIT
000138:
000139:                                                                                                 #  Page 224
000140:                                                                                                 #  PROGRAM NAME:  MKRELEAS                                        DATE:  5 APRIL 1967
000141:                                                                                                 #  PROGRAM MODIFIED BY 248/278 PROGRAMMERS                        LOG SECTION SXTMARK
000142:                                                                                                 #  MOD BY:  R. MELANSON TO ADD DOCUMENTATION                      ASSEMBLY SUNDISK REV. 116
000143:
000144:                                                                                                 #  FUNCTIONAL DESCRIPTION:
000145:
000146:                                                                                                 #         MKRELEAS IS EXECUTED BY INTERNAL ROUTINES TO RELEASE THE MARK SYSTEM TO MAKE IT AVAILABLE TO OTHER INTERNAL
000147:                                                                                                 #         SYSTEM ROUTINES.  IT ALSO CLEARS THE COARSE OPTICS FLAG BIT AND DISABLES THE OPTICS ERROR COUNTER.
000148:
000149:                                                                                                 #  CALLING SEQUENCE:
000150:
000151:                                                                                                 #         TC      BANKCALL
000152:                                                                                                 #         CADR    MKRELEAS
000153:
000154:                                                                                                 #  NORMAL EXIT MODE:
000155:
000156:                                                                                                 #         SWRETURN
000157:
000158:                                                                                                 #  ALARM OR EXIT MODE:  NONE
000159:
000160:                                                                                                 #  OUTPUT:
000161:
000162:                                                                                                 #         1)      BIT9 OPTMODES SET TO 0
000163:                                                                                                 #         2)      OPTIND SET TO -1
000164:                                                                                                 #         3)      1ST WORD OF VAC AREA SET TO VAC ADDRESS TO SIGNIFY AVAILABILITY
000165:                                                                                                 #         4)      MARKSTAT CLEARED
000166:                                                                                                 #         5)      BIT2 CHANNEL 12 SET TO 0
000167:
000168:                                                                                                 #  ERASABLE INITIALIZATION:  NONE
000169:
000170:                                                                                                 #  DEBRIS:
000171:
000172:                                                                                                 #         A,MARKSTAT,BIT9,OPTMODES OPTIND,BIT2 CHANNEL 12
000173:
000174: 07,2063           35021        MKRELEAS          CAF      ZERO                                  #  SHOW MARK SYSTEM NOW AVAILABLE
000175: 07,2064           57330                          XCH      MARKSTAT
000176: 07,2065           75046                          MASK     LOW9
000177: 07,2066           10000                          CCS      A
000178: 07,2067           50000                          INDEX    A
000179: 07,2070           54000                          TS       0
000180: 07,2071           00004        MKRLEES           INHINT
000181: 07,2072           45007                          CS       BIT9                                  #  COARSE OPTICS RETURN FLAG.
000182: 07,2073           71331                          MASK     OPTMODES
000183: 07,2074           55331                          TS       OPTMODES
000184:
000185: 07,2075           37716                          CA       NEGONE
000186: 07,2076           55303                          TS       OPTIND                                #  KILL COARSE OPTICS
000187:
000188: 07,2077           45016                          CS       BIT2                                  #  DISABLE OPTICS ERROR COUNTER
000189: 07,2100           00006                          EXTEND
000190: 07,2101           03012                          WAND     CHAN12
000191:
000192: 07,2102           00003                          RELINT
000193: 07,2103           04675                          TC       SWRETURN
000194:                                                                                                 #  Page 225
000195:                                                                                                 #  PROGRAM NAME:  MARKRUPT                                        DATE:  5 APRIL 1967
000196:                                                                                                 #  PROGRAM MODIFIED BY 258/278 PROGRAMMERS                        LOG SECTION SXTMARK
000197:                                                                                                 #  MOD BY:  R. MELANSON TO ADD DOCUMENTATION                      ASSEMBLY SUNDISK REV. 116
000198:
000199:                                                                                                 #  FUNCTIONAL DESCRIPTION:
000200:
000201:                                                                                                 #         MARKRUPT STORES CDUS,OPTICS AND TIME AND TRANSFERS CONTROL TO THE MARKIT,MARK REJECT OR KEYCOM ROUTINES IF
000202:                                                                                                 #         BITS IN CHANNEL 16 ARE SET AS REQUIRED.
000203:
000204:                                                                                                 #  CALLING SEQUENCE:
000205:
000206:                                                                                                 #         ROUTINE ENTERED VIA KEYRUPT2 WHEN MARK,MARK REJECT OR DSKY KEYS DEPRESSED BY THE OPERATOR.
000207:
000208:                                                                                                 #  NORMAL EXIT MODE:
000209:
000210:                                                                                                 #         MARKIT, MKREJECT, OR POSTJUMP ROUTINES (MARK, MARK REJECT, OR DSKY CODE)
000211:
000212:                                                                                                 #  ALARM OR ABORT EXIT MODE:
000213:
000214:                                                                                                 #         ALARM AND RESUME
000215:
000216:                                                                                                 #  OUTPUT:
000217:
000218:                                                                                                 #         RUPTSTOR+5 = CDUT, RUPTSTOR+3 = CDUS, RUPTSTOR+2 = CDUY,
000219:                                                                                                 #         RUPTREG3 = CDUZ, RUPTSTOR+6 = CDUX, RUPTSTOR+1 AND SAMPTIME+1 = TIME1,
000220:                                                                                                 #         RUPTSTOR AND SAMPTIME = TIME2
000221:
000222:                                                                                                 #  ERASABLE INITIALIZATION:
000223:
000224:                                                                                                 #         CDUT,CDUS,CDUY,CDUZ,CDUX,TIME2,TIME1,CHANNEL 16 BITS 6,7 OR 1-5.
000225:
000226:                                                                                                 #  DEBRIS:
000227:
000228:                                                                                                 #         A,QRUPT,RUPTREG3,SAMPTIME,SAMPTIME+1,RUPTSTOR TO RUPTSTOR+6 EXCEPT RUPTSTOR+4 (LOCATION 67)
000229:
000230: 07,2104           54016        MARKRUPT          TS       BANKRUPT                              #  STORE CDUS AND OPTICS NOW
000231: 07,2105           30035                          CA       CDUT
000232: 07,2106           54362                          TS       MKCDUT
000233: 07,2107           30036                          CA       CDUS
000234: 07,2110           54360                          TS       MKCDUS
000235: 07,2111           30033                          CA       CDUY
000236: 07,2112           54357                          TS       MKCDUY
000237: 07,2113           30034                          CA       CDUZ
000238: 07,2114           54361                          TS       MKCDUZ
000239: 07,2115           30032                          CA       CDUX
000240: 07,2116           54363                          TS       MKCDUX
000241: 07,2117           00006                          EXTEND
000242: 07,2120           30025                          DCA      TIME2                                 #  GET TIME
000243: 07,2121           52356                          DXCH     MKT2T1
000244: 07,2122           00006                          EXTEND
000245: 07,2123           30356                          DCA      MKT2T1
000246: 07,2124           52014                          DXCH     SAMPTIME                              #  RUPT TIME FOR NOUN 65.
000247:
000248: 07,2125           56002                          XCH      Q
000249: 07,2126           54012                          TS       QRUPT
000250:
000251: 07,2127           35012                          CAF      BIT6                                  #  SEE IF MARK OR MKREJECT
000252:                                                                                                 #  Page 226
000253: 07,2130           00006                          EXTEND
000254: 07,2131           02016                          RAND     NAVKEYIN
000255: 07,2132           10000                          CCS      A
000256: 07,2133           02430                          TC       MARKIT                                #  IT'S A MARK
000257:
000258: 07,2134           35011                          CAF      BIT7                                  #  NOT A MARK, SEE IF MKREJECT
000259: 07,2135           00006                          EXTEND
000260: 07,2136           02016                          RAND     NAVKEYIN
000261: 07,2137           10000                          CCS      A
000262: 07,2140           02301                          TC       MKREJECT                              #  IT'S A MARK REJECT
000263:
000264: 07,2141           34362        KEYCALL           CAF      OCT37                                 #  NOT MARK OR MKREJECT, SEE IF KEYCODE
000265: 07,2142           00006                          EXTEND
000266: 07,2143           02016                          RAND     NAVKEYIN
000267: 07,2144           00006                          EXTEND
000268: 07,2145           12150                          BZF      +3                                    #  IF NO INBITS
000269: 07,2146           04701                          TC       POSTJUMP
000270: 07,2147           17702                          CADR     KEYCOM                                #  IT'S A KEY CODE, NOT A MARK.
000271:
000272: 07,2150           05650                 +3       TC       ALARM                                 #  ALARM IF NO INBITS
000273: 07,2151           00113                          OCT      113
000274: 07,2152           05333                          TC       RESUME
000275:
000276:                                                                                                 #  Page 227
000277:                                                                                                 #  PROGRAM NAME:  MARKCONT                                DATE:  19 SEPT 1967
000278:                                                                                                 #  PROGRAM MODIFIED BY 258/278 PROGRAMMERS                LOG SECTION SXTMARK
000279:                                                                                                 #  MOD BY:  R. MELANSON TO ADD DOCUMENTATION              ASSEMBLY SUNDISK REV. 116
000280:
000281:                                                                                                 #  FUNCTIONAL DESCRIPTION:
000282:
000283:                                                                                                 #         MARKCONT IS USED TO PERFORM A SPECIAL MARK FUNCTION FOR R21, TO EXECUTE A SPECIAL DISPLAY OF OPTICS AND TIME OR
000284:                                                                                                 #         TO PERFORM A MARK OF THE STAR OR LAND SIGHTING BASED UPON FLASHING V-N.
000285:
000286:                                                                                                 #  CALLING SEQUENCE:
000287:
000288:                                                                                                 #         FROM MARKDIF
000289:
000290:                                                                                                 #  NORMAL EXIT MODE:
000291:
000292:                                                                                                 #         TASKOVER
000293:
000294:                                                                                                 #  ALARM OR ABORT EXIT MODE:
000295:
000296:                                                                                                 #         ALARM AND TASKOVER
000297:
000298:                                                                                                 #  OUTPUT:
000299:
000300:                                                                                                 #         1)      FOR R21:
000301:                                                                                                 #                 EBANK=EBANK7
000302:                                                                                                 #                 MRKBUF1 TO MRKBUF1+6 = TIME2,TIME1,CDUY,OPTICX,CDUZ,OPTICSY,CDUX OF CURRENT R21 MARK FUNCTION
000303:                                                                                                 #                 MRKBUF2 TO MRKBUF2+6 CONTAINS PREVIOUS R21 MARK VALUES.
000304:                                                                                                 #         2)      FOR SPECIAL DISPLAY JOB:
000305:                                                                                                 #                 RUPTREG1 AND MRKBUF1 = CDUS,RUPTREG2, AND MRKBUF1+1 = CDUT.
000306:                                                                                                 #                 RUPTREG3 AND MRKBUF1+2 = TIME2,RUPTREG4, AND MRKBUF1+3 = TIME1.
000307:                                                                                                 #         3)      FOR NORMAL MARKING:
000308:                                                                                                 #                 DECREMENT BITS14-12 OF MARKSTAT BY 1,
000309:                                                                                                 #                 BIT10 MARKSTAT SET TO 1, INCREMENT QPRET BY 7,
000310:                                                                                                 #                 STORE TIME2,TIME1,CDUY,CDUS,CDUZ,CDUT, AND CDUX IN VAC+1 TO VAC+7.
000311:
000312:                                                                                                 #  ERASABLE INITIALIZATION:
000313:
000314:                                                                                                 #         1)      FOR R21:
000315:                                                                                                 #                 BIT14 OF STATE+2 =1, MRKBUF1 TO MRKBUF1+6, ITEMP1, RUPTREG3,
000316:                                                                                                 #                 RUPTSTOR TO RUPTSTOR+6 EXCEPT RUPTSTOR+4.
000317:                                                                                                 #         2)      FOR SPECIAL DISPLAY JOB:
000318:                                                                                                 #                 BIT14 OF STATE+2 =0, MARKSTAT =+0, RUPTREG1,RUPTREG2,RUPTREG3
000319:                                                                                                 #                 RUPTREG4,RUPTSTOR,RUPTSTOR+1,RUPTSTOR+3,RUPTSTOR+5,
000320:                                                                                                 #                 BIT12 OF STATE+5 (V59 FLAG), MRKBUF1 THRU MRKBUF1+3
000321:                                                                                                 #         3)      FOR NORMAL MARKING:
000322:                                                                                                 #                 BIT14 OF STATE+2 =0, MARKSTATE =VAC ADDRESS, A REG, ITEMP1, RUPTREG3,
000323:                                                                                                 #                 RUPTSTOR TO RUPTSTOR+6 EXCEPT RUPTSTOR+4.
000324:
000325:                                                                                                 #  DEBRIS:
000326:
000327:                                                                                                 #         1)      FOR R21:
000328:                                                                                                 #                 A, ITEMP1, MRKBUF1, MRKBUF2
000329:                                                                                                 #         2)      FOR SPECIAL DISPLAY JOB:
000330:                                                                                                 #                 A,RUPTREG1,RUPTREG2,RUPTREG3,RUPTREG4,MPAC TO MPAC+3.
000331:                                                                                                 #         3)      FOR NORMAL MARKING:
000332:                                                                                                 #                 A,MARKSTAT,ITEMP1,QPRET,VAC+1 TO VAC+7 OF VAC AREA IN USE.
000333:
000334:                                                                                                 #  Page 228
000335: 07,2153           35002        MARKCONT          CAF      BIT14
000336: 07,2154           70076                          MASK     STATE      +2                         #  R21 MARK (SPECIAL MARKING FOR R21)
000337: 07,2155           00006                          EXTEND
000338: 07,2156           12170                          BZF      MARKET                                #  NOT SET THEREFORE REGULAR MARKING
000339: 07,2157           36211        MARKIT1           CAF      SIX                                   #  SPECIAL FOR R21
000340: 07,2160           05606                          TC       GENTRAN                               #  TRANSFER MRKBUF1 TO MRKBUF2
000341: 07,2161           01725                          ADRES    MRKBUF1
000342: 07,2162           01734                          ADRES    MRKBUF2
000343:
000344: 07,2163           36211                          CAF      SIX                                   #  TRANSFER CURRENT MARK DATE TO MARKBUF1
000345: 07,2164           05606                          TC       GENTRAN
000346: 07,2165           00355                          ADRES    MKT2T1
000347: 07,2166           01725                          ADRES    MRKBUF1
000348:
000349: 07,2167           15324                          TCF      TASKOVER
000350:
000351: 07,2170           11330        MARKET            CCS      MARKSTAT                              #  SEE IF MARKS CALLED FOR
000352: 07,2171           02225                          TC       MARK2                                 #  COLLECT MARKS
000353:
000354: 07,2172           35016                          CAF      TWO                                   #  IS MARKING SYSTEM IN USE (BIT2)
000355: 07,2173           71044                          MASK     EXTVBACT
000356: 07,2174           00006                          EXTEND
000357: 07,2175           12217                          BZF      MARKET3                               #  MARKING NOT CALLED FOR
000358: 07,2176           35004                          CAF      BIT12
000359: 07,2177           70101                          MASK     STATE      +5                         #  V59FLAG
000360: 07,2200           00006                          EXTEND
000361: 07,2201           12217                          BZF      MARKET3                               #  IF V59FLAG NOT SET-MARK UNCALLED FOR
000362: 07,2202           35061                          CAF      PRIO5                                 #  CALIBRATION MARK (SET) FOR P23
000363: 07,2203           05134                          TC       NOVAC                                 #  SPECIAL DISPLAY JOB
000364: 07,2204  E7,1725                                 EBANK=   MRKBUF1
000365: 07,2204           02426 76067                    2CADR    MARKDISP
000366:
000367: 07,2206           36211                          CAF      SIX
000368: 07,2207           05606                          TC       GENTRAN                               #  TRANSFER MARK DATE TO MARKDOWN
000369: 07,2210           00355                          ADRES    MKT2T1
000370: 07,2211           01674                          ADRES    MARKDOWN
000371: 07,2212           36211                          CAF      SIX
000372: 07,2213           05606                          TC       GENTRAN                               #  TRANSFER MARK DATA TO MRKBUF1 FOR
000373: 07,2214           00355                          ADRES    MKT2T1                                #  SPECIAL DISPLAY OF SHAFT AND TRUNNION
000374: 07,2215           01725                          ADRES    MRKBUF1                               #  IF V59 ACTING
000375: 07,2216           15324                          TCF      TASKOVER
000376: 07,2217           05650        MARKET3           TC       ALARM
000377: 07,2220           00122                          OCT      122                                   #  MARKING NOT CALLED FOR
000378: 07,2221           15324                          TCF      TASKOVER
000379: 07,2222           05650        114ALM            TC       ALARM                                 #  MARK NOT WANTED
000380: 07,2223           00114                          OCT      114
000381: 07,2224           15324                          TCF      TASKOVER
000382:
000383:                                                                                                 #  Page 229
000384:                                                                                                 #  STORE MARK DATA IN MKVAC AND INCREMENT POINTER
000385:
000386: 07,2225           67711        MARK2             AD       74K                                   #  SEE IF MARKS WANTED-REDUCE MARKS WANTED
000387: 07,2226           00006                          EXTEND
000388: 07,2227           62222                          BZMF     114ALM                                #  MARK NOT WANTED-ALARM
000389: 07,2230           55330                          TS       MARKSTAT
000390: 07,2231           40000                          COM
000391: 07,2232           75006                          MASK     BIT10                                 #  SET BIT10 TO ENABLE REJECT
000392: 07,2233           27330                          ADS      MARKSTAT
000393:
000394: 07,2234           75046                          MASK     LOW9
000395: 07,2235           54061                          TS       ITEMP1
000396: 07,2236           50000                          INDEX    A
000397: 07,2237           56052                          XCH      QPRET                                 #  PICK UP MARK SLOT-POINTER
000398: 07,2240           54062                          TS       ITEMP2                                #  SAVE CURRENT POINTER
000399: 07,2241           65023                          AD       SEVEN                                 #  INCREMENT POINTER
000400: 07,2242           50061                          INDEX    ITEMP1
000401: 07,2243           54052                          TS       QPRET                                 #  STORE ADVANCED POINTER
000402:
000403: 07,2244           00006        VACSTOR           EXTEND
000404: 07,2245           30356                          DCA      MKT2T1
000405: 07,2246           50062                          INDEX    ITEMP2
000406: 07,2247           52001                          DXCH     0
000407: 07,2250           30357                          CA       MKCDUY
000408: 07,2251           50062                          INDEX    ITEMP2
000409: 07,2252           54002                          TS       2
000410: 07,2253           30360                          CA       MKCDUS
000411: 07,2254           50062                          INDEX    ITEMP2
000412: 07,2255           54003                          TS       3
000413: 07,2256           30361                          CA       MKCDUZ
000414: 07,2257           50062                          INDEX    ITEMP2
000415: 07,2260           54004                          TS       4
000416: 07,2261           30362                          CA       MKCDUT
000417: 07,2262           50062                          INDEX    ITEMP2
000418: 07,2263           54005                          TS       5
000419: 07,2264           30363                          CA       MKCDUX
000420: 07,2265           50062                          INDEX    ITEMP2
000421: 07,2266           54006                          TS       6
000422:
000423: 07,2267           37671                          CAF      PRIO34                                #  IF ALL MARKS MADE FLASH VB50
000424: 07,2270           71330                          MASK     MARKSTAT
000425: 07,2271           00006                          EXTEND
000426: 07,2272           12274                          BZF      +2
000427: 07,2273           15324                          TCF      TASKOVER
000428: 07,2274           37667                          CAF      PRIO32
000429: 07,2275           05134                          TC       NOVAC
000430: 07,2276     1330                                 EBANK=   MARKSTAT
000431: 07,2276           02422 16062                    2CADR    MKVB50
000432:
000433: 07,2300           15324                          TCF      TASKOVER
000434:
000435:                                                                                                 #  Page 230
000436:                                                                                                 #  PROGRAM NAME:  MKREJECT                                        DATE:  5 APRIL 1967
000437:                                                                                                 #  PROGRAM MODIFIED BY 258/276 PROGRAMMERS                        LOG SECTION SXTMARK
000438:                                                                                                 #  MOD BY:  R. MELANSON TO ADD DOCUMENTATION                      ASSEMBLY SUNDISK REV. 116
000439:
000440:                                                                                                 #  FUNCTIONAL DESCRIPTION:
000441:
000442:                                                                                                 #         ROUTINE ALLOWS OPEATOR TO REJECT MARK MADE PRIOR TO ACCEPTANCE AND ALLOWS A NEW MARK TO BE MADE BY ASTRONAUT.
000443:
000444:                                                                                                 #  CALLING SEQUENCE:
000445:
000446:                                                                                                 #         FROM MARKRUPT IF BIT7 OF CHANNEL 16 IS 1.
000447:
000448:                                                                                                 #  NORMAL EXIT MODE:
000449:
000450:                                                                                                 #         RESUME
000451:
000452:                                                                                                 #  ALARM OR ABORT EXIT MODE:
000453:
000454:                                                                                                 #         ALARM AND RESUME
000455:
000456:                                                                                                 #  OUTPUT:
000457:
000458:                                                                                                 #         1)      FOR R21:
000459:                                                                                                 #                 MRKRUP1 SET TO -1
000460:                                                                                                 #         2)      FOR NORMAL MARKING:
000461:                                                                                                 #                 BIT10 MARKSTAT =0, INCREMENT NO. MARKS BY 1, DECREMENT QPRET BY 7
000462:
000463:                                                                                                 #  ERASABLE INITIALIZATION:
000464:
000465:                                                                                                 #         1)      FOR R21:
000466:                                                                                                 #                 BIT14 OF STATE+2 SET TO 1
000467:                                                                                                 #         2)      FOR NORMAL MARKING:
000468:                                                                                                 #                 BIT14 OF STATE+2 SET TO 0, MARKSTAT,QPRET
000469:
000470:                                                                                                 #  DEBRIS:
000471:
000472:                                                                                                 #         1)      FOR R21:
000473:                                                                                                 #                 A,MARKSTAT,EBANK
000474:                                                                                                 #         2)      FOR NORMAL MARKING:
000475:                                                                                                 #                 A,MARKSTAT,ITEMP1,QPRET
000476:
000477: 07,2301           35002        MKREJECT          CAF      BIT14
000478: 07,2302           70076                          MASK     STATE      +2                         #  R21 MARK (SPECIAL MARKING FOR R21)
000479: 07,2303           00006                          EXTEND
000480: 07,2304           12310                          BZF      MRKREJCT                              #  NOT SET THEREFORE REGULAR REJECT
000481: 07,2305           37716                          CA       NEGONE                                #  -1 (FOR R22)
000482: 07,2306           55725                          TS       MRKBUF1                               #  -0 IN TIME IS FLAG TO R22 SIGNIFYING A
000483: 07,2307           05333                          TC       RESUME                                #  REJECTED MARK
000484: 07,2310           11330        MRKREJCT          CCS      MARKSTAT                              #  SEE IF MARKS BEING ACCEPTED
000485: 07,2311           02315                          TC       REJECT2
000486: 07,2312           05650                          TC       ALARM                                 #  MARKS NOT BEING ACCEPTED
000487: 07,2313           00112                          OCT      112
000488: 07,2314           05333                          TC       RESUME
000489:
000490: 07,2315           45006        REJECT2           CS       BIT10                                 #  SEE IF MARK HAD BEEN MADE SINCE LAST
000491: 07,2316           71330                          MASK     MARKSTAT                              #  REJECT, AND SET BIT10 TO ZERO TO
000492: 07,2317           57330                          XCH      MARKSTAT                              #  SHOW MARK REJECT
000493:                                                                                                 #  Page 231
000494: 07,2320           75006                          MASK     BIT10
000495: 07,2321           10000                          CCS      A
000496: 07,2322           02326                          TC       REJECT3
000497:
000498: 07,2323           05650                          TC       ALARM                                 #  DON'T ACCEPT TWO REJECTS TOGETHER
000499: 07,2324           00110                          OCT      110
000500: 07,2325           05333                          TC       RESUME
000501:
000502: 07,2326           35046        REJECT3           CAF      LOW9                                  #  DECREMENT POINTER TO REJECT MARK
000503: 07,2327           71330                          MASK     MARKSTAT
000504: 07,2330           54061                          TS       ITEMP1
000505: 07,2331           45023                          CS       SEVEN
000506: 07,2332           50061                          INDEX    ITEMP1
000507: 07,2333           26052                          ADS      QPRET                                 #  NEW POINTER
000508:
000509: 07,2334           35004                          CAF      BIT12                                 #  INCREMENT MARKS WANTED AND IF FIELD
000510: 07,2335           61330                          AD       MARKSTAT                              #  IS NOW NON-ZERO, CHANGE TO VB51 TO
000511: 07,2336           57330                          XCH      MARKSTAT                              #  INDICATE MORE MARKS WANTED
000512: 07,2337           77671                          MASK     PRIO34                                #  INDICATE MORE MARKS WANTED
000513: 07,2340           10000                          CCS      A
000514: 07,2341           05333                          TC       RESUME
000515: 07,2342           37667                          CAF      PRIO32
000516: 07,2343           05134                          TC       NOVAC
000517: 07,2344     1330                                 EBANK=   MARKSTAT
000518: 07,2344           02347 16062                    2CADR    MKVB51
000519:
000520: 07,2346           05333                          TC       RESUME
000521:
000522:                                                                                                 #  Page 232
000523:                                                                                                 #  PROGRAM DESCRIPTON MKVB51 AND MKVB50
000524:
000525:                                                                                                 #  AUTHOR:        BARNERT         DATE: 2-15-67           MOD: 0
000526:                                                                                                 #  PURPOSE:       FLASH V51N70,V51N43, OR V51 TO REQUEST MARKING,
000527:                                                                                                 #                 AND V50N25 R1=16 TO REQUEST TERMINATE MARKING.
000528:
000529:                                                                                                 #  CALLING SEQUENCE:      AS JOB WITHIN SXTMARK
000530:
000531:                                                                                                 #  EXIT TO ENDMARK UPON RECEIPT OF V33, V34 CAUSES GOTOP00H, ENTER
000532:                                                                                                 #         RECYCLES THE DISPLAY
000533:
000534:                                                                                                 #  NOTE:  SXTMARK AUTOMATICALLY CHANGES FROM CALLING MKVB51 TO MKVB50 WHEN
000535:                                                                                                 #         SUFFICIENT MARKS HAVE BEEN MADE, AND THE REVERSE WHEN A MARK
000536:                                                                                                 #         REJECT REDUCES THE NUMBER MADE BELOW THAT REQUIRED
000537:
000538:                                                                                                 #  SUBROUTINES CALLED:  BANKCALL, GOMARK2, GOODEND, ENDMARK, WAITLIST
000539:
000540:                                                                                                 #  ALARM OR ABORT MODES:  NONE
000541:
000542:                                                                                                 #  ERASABLE USED:  VERBREG, MARKSTAT, QPRET, DSPTEM1
000543:
000544:                                                                                                 #  OUTPUT MARKSTAT = VAC ADDRESS
000545:
000546:                                                                                                 #  QPRET = NO. MARKS
000547:
000548: 07,2347           04662        MKVB51            TC       BANKCALL                              #  CLEAR DISPLAY FOR MARK VERB
000549: 07,2350           20560                          CADR     KLEENEX
000550: 07,2351           32427                          CAF      VB51                                  #  DISPLAY MARK VB51
000551: 07,2352           04662                          TC       BANKCALL
000552: 07,2353           20572                          CADR     GOMARK4
000553: 07,2354           12357                          TCF      TERMSXT                               #  VB34-TERMINATE
000554: 07,2355           12370                          TCF      ENTANSWR                              #  V33-PROCEED-MARKING DONE
000555: 07,2356           12416                          TCF      MKVB5X                                #  ENTER-RECYCLE TO INITIAL MARK DISPLAY
000556:
000557: 07,2357           05536        TERMSXT           TC       CLEARMRK                              #  CLEAR MARK ACTIVITY.
000558:
000559: 07,2360           05364                          TC       CHECKMM
000560: 07,2361           00003                          MM       03         B-14
000561: 07,2362           12364                          TCF      +2
000562: 07,2363           02366                          TC       TERMP03
000563: 07,2364           04701                          TC       POSTJUMP
000564: 07,2365           30205                          CADR     TERM52
000565:
000566: 07,2366           05546        TERMP03           TC       UPFLAG
000567: 07,2367           00032                          ADRES    TRM03FLG
000568: 07,2370           35046        ENTANSWR          CAF      LOW9                                  #  PUT VAC ADR IN MARKSTAT AND NO. OF
000569: 07,2371           71330                          MASK     MARKSTAT                              #  MARKS MADE IN QPRET BEFORE LEAVING
000570: 07,2372           55330                          TS       MARKSTAT                              #  SXTMARK
000571: 07,2373           40000                          COM
000572: 07,2374           51330                          INDEX    MARKSTAT
000573: 07,2375           60052                          AD       QPRET
000574:                                                                                                 #  Page 233
000575: 07,2376           00006                          EXTEND
000576: 07,2377           62403                          BZMF     JAMIT                                 #  NO MARKS MADE, SHOW IT IN QPRET, R53
000577: 07,2400           00006                          EXTEND                                         #         WILL PICK IT UP AND RECYCLE
000578: 07,2401           75004                          MP       BIT12                                 #  THIS PUTS NUMBER MARKS-1 IN A
000579: 07,2402           65017                          AD       ONE
000580: 07,2403           51330        JAMIT             INDEX    MARKSTAT                              #  STORE NO OF MARKS MADE
000581: 07,2404           54052                          TS       QPRET
000582: 07,2405           00004                          INHINT                                         #  SERVICE OPTSTALL INTERFACE WITH
000583: 07,2406           35022                          CAF      FIVE
000584: 07,2407           05245                          TC       WAITLIST
000585: 07,2410     1330                                 EBANK=   MARKSTAT
000586: 07,2410           02413 16062                    2CADR    ENDMARKS
000587:
000588: 07,2412           05534                          TC       ENDMARK                               #  KNOCKS DOWN MARKING FLAG + DOES ENDOFJOB
000589:
000590: 07,2413           35017        ENDMARKS          CAF      ONE
000591: 07,2414           04740                          TC       IBNKCALL
000592: 07,2415           17550                          CADR     GOODEND
000593: 07,2416           37671        MKVB5X            CAF      PRIO34
000594: 07,2417           71330                          MASK     MARKSTAT                              #  RE-DISPLAY VB51 IF MORE MARKS WANTED
000595: 07,2420           10000                          CCS      A                                     #  AND VB50 IF ALL IN
000596: 07,2421           12347                          TCF      MKVB51
000597: 07,2422           34333        MKVB50            CAF      R1D1                                  #  OCT 16
000598: 07,2423           55045                          TS       DSPTEM1
000599: 07,2424           32426                          CAF      V50N25
000600: 07,2425           12352                          TCF      MKVB51     +3
000601:
000602: 07,2426           14431        V50N25            VN       5025
000603: 07,2427           14600        VB51              VN       5100
000604: 07,2430     4362               OCT37             =        LOW5
000605:
000606:                                                                                                 #  PROGRAM NAME:  MARKIT                          DATE: 19 SEPT 1967
000607:
000608:                                                                                                 #  CALLING SEQUENCE:
000609:
000610:                                                                                                 #         FROM MARKRUPT IF CHAN 16 BIT 6 = 1
000611:
000612:                                                                                                 #  EXIT
000613:
000614:                                                                                                 #         RESUME
000615:
000616:                                                                                                 #  INPUT
000617:
000618:                                                                                                 #         CDUCHKWD.  ALSO ALL INITIALIZATION FOR MARKCONT
000619:
000620:                                                                                                 #  OUTPUT
000621:
000622:                                                                                                 #         MKT2T1,MKCDUX,MKCDUY,MKCDUZ,MKCDUS,MKCDUT
000623:
000624:                                                                                                 #  ALARM EXIT
000625:
000626:                                                                                                 #         NONE
000627:
000628: 07,2430           11341        MARKIT            CCS      CDUCHKWD
000629: 07,2431           12434                          TCF      +3                                    #  DELAY OF CDUCHKWD CS IF PNZ
000630:                                                                                                 #  Page 234
000631: 07,2432           12434                          TCF      +2
000632: 07,2433           35021                          CAF      ZERO
000633: 07,2434           65017                          AD       ONE                                   #  10 MS IF NO CHECK
000634: 07,2435           05245                          TC       WAITLIST
000635: 07,2436  E7,1725                                 EBANK=   MRKBUF1
000636: 07,2436           02203 20067                    2CADR    MARKDIF
000637:
000638: 07,2440           15333                          TCF      RESUME
000639:
000640: 10,2000                                          SETLOC   SXTMARK1
000641: 10,2000                                          BANK
000642:
000643: 10,2203                                          COUNT    20/SXTMK
000644:
000645:                                                                                                 #  PROGRAM NAME:  MARKDIF
000646:
000647:                                                                                                 #  CALLING SEQUENCE
000648:
000649:                                                                                                 #         WAITLIST FROM MARKIT
000650:
000651:                                                                                                 #  EXIT
000652:
000653:                                                                                                 #         TASKOVER TO IBNKCALL TO MARKCONT
000654:
000655:                                                                                                 #  INPUT
000656:
000657:                                                                                                 #         OUTPUT FROM MARKIT, INPUT TO MARKCONT, CDUCHKWD
000658:
000659:                                                                                                 #  OUTPUT
000660:
000661:                                                                                                 #         RUPTSTOR - RUPTSTOR+3, RUPTREG3, RUPTSTOR+5 - RUPTSTOR+6
000662:
000663:                                                                                                 #  ALARM EXIT
000664:
000665:                                                                                                 #         ALARM AND TASKOVER
000666:
000667: 10,2203           31341        MARKDIF           CA       CDUCHKWD                              #  IF DELAY CHECK IS ZERO OR NEG, ACP MARK
000668: 10,2204           00006                          EXTEND
000669: 10,2205           62216                          BZMF     MKACPT
000670: 10,2206           45017                          CS       BIT1
000671: 10,2207           54354                          TS       MKNDX                                 #  SET INDEX -1
000672: 10,2210           30363                          CA       MKCDUX
000673: 10,2211           02220                          TC       DIFCHK                                #  SEE IF VEHICLE RATE TO MUCH AT MARK
000674: 10,2212           30357                          CA       MKCDUY
000675: 10,2213           02220                          TC       DIFCHK
000676: 10,2214           30361                          CA       MKCDUZ
000677: 10,2215           02220                          TC       DIFCHK
000678:
000679: 10,2216           04740        MKACPT            TC       IBNKCALL
000680: 10,2217           16153                          CADR     MARKCONT                              #  MARK DATA OK, WHAT DO WE DO WITH IT
000681:
000682: 10,2220           24354        DIFCHK            INCR     MKNDX                                 #  INCREMENT INDEX
000683:
000684: 10,2221           00006                          EXTEND
000685: 10,2222           50354                          INDEX    MKNDX
000686:                                                                                                 #  Page 235
000687: 10,2223           20032                          MSU      CDUX                                  #  GET MARK(ICDU) - CURRENT(ICDU)
000688: 10,2224           10000                          CCS      A
000689: 10,2225           12231                          TCF      +4
000690: 10,2226           00002                          TC       Q
000691: 10,2227           12231                          TCF      +2
000692: 10,2230           00002                          TC       Q
000693: 10,2231           67715                          AD       NEG2                                  #  SEE IF DIFFERENCE GREATER THAN 3 BITS
000694: 10,2232           00006                          EXTEND
000695: 10,2233           62230                          BZMF     -3                                    #  NOT GREATER
000696:
000697: 10,2234           05650                          TC       ALARM                                 #  COUPLED WITH PROGRAM ALARM
000698: 10,2235           00121                          OCT      00121
000699:
000700: 10,2236           15324                          TCF      TASKOVER                              #  DO NOT ACCEPT
000701:
000702:

End of include-file SXTMARK.agc.  Parent file is MAIN.agc


