
Source Code


000002:                                                                                                  #  Copyright:    Public domain.
000003:                                                                                                  #  Filename:     SYSTEM_TEST_STANDARD_LEAD_INS.agc
000004:                                                                                                  #  Purpose:      Part of the source code for Comanche, build 055.
000005:                                                                                                  #                It is part of the source code for the Command Module's (CM)
000006:                                                                                                  #                Apollo Guidance Computer (AGC), Apollo 11.
000007:                                                                                                  #  Assembler:    yaYUL
000008:                                                                                                  #  Reference:    pp. 420-422
000009:                                                                                                  #  Contact:      Onno Hommes <ohommes@cmu.edu>.
000010:                                                                                                  #  Website:      www.ibiblio.org/apollo.
000011:                                                                                                  #  Mod history:  05/07/09 OH     Transcription Batch 1 Assignment
000012:
000013:                                                                                                  #  The contents of the "Comanche055" files, in general, are transcribed
000014:                                                                                                  #  from scanned documents.
000015:
000016:                                                                                                  #        Assemble revision 055 of AGC program Comanche by NASA
000017:                                                                                                  #        2021113-051.  April 1, 1969.
000018:
000019:                                                                                                  #        This AGC program shall also be referred to as Colossus 2A
000020:
000021:                                                                                                  #        Prepared by
000022:                                                                                                  #                        Massachusetts Institute of Technology
000023:                                                                                                  #                        75 Cambridge Parkway
000024:                                                                                                  #                        Cambridge, Massachusetts
000025:
000026:                                                                                                  #        under NASA contract NAS 9-4065.
000027:
000028:                                                                                                  #  Refer directly to the online document mentioned above for further information.
000029:                                                                                                  #  Please report any errors to info@sandroid.org.
000030:
000031:
000032:                                                                                                  #  Page 420
000033: 22,3151  0002671                                  EBANK=   XSM
000034:
000035: 33,2000                                           BANK     33
000036: 13,2000                                           SETLOC   E/PROG1
000037: 13,2000                                           BANK
000038:
000039: 13,2036                                           COUNT*   $$/P07
000040:
000041:                                                                                                  #  SPECIAL PROGRAMS TO EASE THE PANGS OF ERASABLE MEMORY PROGRAMS.
000042:
000043:                                                                                                  #  E/BKCALL      FOR DOING BANKCALLS FROM AND RETURNING TO ERASABLE.
000044:
000045:                                                                                                  #  THIS ROUTINE IS CALLABLE FROM ERASABLE OR FIXED.  LIKE BANKCALL, HOWEVER, SWITCHING BETWEEN S3 AND S4
000046:                                                                                                  #  IS NOT POSSIBLE.
000047:
000048:                                                                                                  #  THE CALLING SEQUENCE IS:
000049:
000050:                                                                                                  #        TC      BANKCALL
000051:                                                                                                  #        CADR    E/BKCALL
000052:                                                                                                  #        CADR    ROUTINE         # WHERE TO WANT TO GO IN FIXED.
000053:                                                                                                  #        RETURN HERE FROM DISPLAY TERMINATE, BAD STALL OR TC Q.
000054:                                                                                                  #        RETURN HERE FROM DISPLAY PROCEED OR GOOD RETURN FROM STALL.
000055:                                                                                                  #        RETURN HERE FROM DISPLAY ENTER OR RECYCLE.
000056:
000057:                                                                                                  #  THIS ROUTINE REQUIRES TWO ERASABLES (EBUF2, +1) IN UNSWITCHED WHICH ARE UNSHARED BY INTERRUPTS AND
000058:                                                                                                  #  OTHER EMEMORY PROGRAMS.
000059:
000060:                                                                                                  #  A + L ARE PRESERVED THROUGH BANKCALL AND E/BKCALL.
000061:
000062: 13,2036           52134        E/BKCALL           DXCH     BUF2                                  #  SAVE A,L AND GET DP RETURN.
000063: 13,2037           52365                           DXCH     EBUF2                                 #  SAVE DP RETURN.
000064: 13,2040           24364                           INCR     EBUF2                                 #  RETURN +1 BECAUSE DOUBLE CADR.
000065: 13,2041           30006                           CA       BBANK
000066: 13,2042           75054                           MASK     LOW10                                 #  GET CURRENT EBANK.  (SBANK SOMEDAY)
000067: 13,2043           26365                           ADS      EBUF2      +1                         #  FORM BBCON.  (WAS FBANK)
000068: 13,2044           50364                           NDX      EBUF2
000069: 13,2045           27777                           CA       0          -1                         #  GET CADR OF ROUTINE.
000070: 13,2046           04666                           TC       SWCALL                                #  GO TO ROUTINE, SETTING Q TO SWRETURN
000071:                                                                                                  #  AND RESTORING A + L.
000072: 13,2047           02053                           TC       +4                                    #  TX Q, V34, OR BADD STALL RETURN.
000073: 13,2050           02052                           TC       +2                                    #  PROCEED OR GOOD STALL RETURN.
000074: 13,2051           24364                           INCR     EBUF2                                 #  ENTER OR RECYCLE RETURN.
000075: 13,2052           24364                           INCR     EBUF2
000076: 13,2053           52365        E/SWITCH           DXCH     EBUF2
000077: 13,2054           52006                           DTCB
000078:
000079:                                                                                                  #  Page 421
000080:                                                                                                  #  E/CALL        FOR CALLING A FIXED MEMORY INTERPRETIVE SUBROUTINE FROM ERASABLE AND RETURNING TO ERASABLE.
000081:
000082:                                                                                                  #  THE CALLING SEQUENCE IS...
000083:
000084:                                                                                                  #        RTB
000085:                                                                                                  #                E/CALL
000086:                                                                                                  #        CADR    ROUTINE                 # THE INTERPRETIVE SUBROUTINE YOU WANT
000087:                                                                                                  #                                        # RETURNS HERE IN INTERPRETIVE.
000088:
000089: 13,2055           22164        E/CALL             LXCH     LOC                                   #  ADRES -1 OF CADR.
000090: 13,2056           50001                           INDEX    L
000091: 13,2057           30001                           CA       L                                     #  CADR IN A.
000092: 13,2060           24001                           INCR     L
000093: 13,2061           24001                           INCR     L                                     #  RETURN ADRES IN L.
000094: 13,2062           52365                           DXCH     EBUF2                                 #  STORE CADR AND RETURN.
000095: 13,2063           06006                           TC       INTPRET
000096: 13,2064           77624                           CALL
000097: 13,2065           00364                                    EBUF2                                 #  INDIRECTLY EXECUTE ROUTING.  IT MUST
000098: 13,2066           77776                           EXIT                                           #  LEAVE VIA RVQ OR EQUIVALENT.
000099: 13,2067           22365                           LXCH     EBUF2      +1                         #  PICK UP RETURN.
000100: 13,2070           16010                           TCF      INTPRET    +2                         #  SET LOC AND RETURN TO CALLER.
000101:
000102:                                                                                                  #  Page 422
000103:                                                                                                  #  E/JOBWAK      FOR WAKING UP ERASABLE MEMORY JOBS.
000104:
000105:                                                                                                  #  THIS ROUTINE MUST BE CALLED IN INTERRUPT OR WITH INTERRUPTS INHIBITED.
000106:
000107:                                                                                                  #  THE CALLING SEQUENCE IS
000108:
000109:                                                                                                  #        INHINT
000110:                                                                                                  #        ...
000111:                                                                                                  #        CA      WAKEADR         # ADDRESS OF SLEEPING JOB
000112:                                                                                                  #        TC      IBNKCALL
000113:                                                                                                  #        CADR    E/JOBWAK
000114:                                                                                                  #        ...                     # RETURNS HERE
000115:                                                                                                  #        RELINT                  # IF YOU DID AND INHINT
000116:
000117: 33,2000                                           BANK     33
000118: 04,2000                                           SETLOC   E/PROG
000119: 04,2000                                           BANK
000120:
000121: 04,2606                                           COUNT*   $$/P07
000122:
000123: 04,2606           05201        E/JOBWAK           TC       JOBWAKE                               #  ARRIVE IWTH ADRES IN A.
000124: 04,2607           45005                           CS       BIT11
000125: 04,2610           50064                           NDX      LOCCTR
000126: 04,2611           26164                           ADS      LOC                                   #  KNOCK FIXED MEMORY BIT OUT OF ADRES.
000127: 04,2612           00072                           TC       RUPTREG3                              #  RETURN
000128:
000129:
000130:                                                                                                  #  THESE PROGRAMS ARE PROVIDED TO ALLOW OVERLAY OF BANKS 30 THRU 33 OF THE 205 VERSIONS OF SYSTEM TESTS AND
000131:                                                                                                  #  PRELAUNCH ALIGN.  THE INTENT IS TO ALLOW THE STG AND HYBRID LABS TO RUN ALL THE TESTS WITH COLOSSUS.
000132:
000133:
000134: 33,2000                                           BANK     33
000135: 33,2000                                           SETLOC   TESTLEAD
000136: 33,2000                                           BANK
000137:
000138: 33,2000                                           COUNT    33/COMST
000139:
000140: 33,2000  E5,1425                                  EBANK=   QPLACE
000141:
000142: 33,2000           03436        COMPVER            TC       GCOMPVER                              #  MUST BE 33,2000.
000143:
000144: 33,2001           03131        GTSCPSS1           TC       GTSCPSS                               #  MUST BE AT 33,2001
000145:
000146: 33,2002           05354        REDO               TC       NEWMODEX                              #  DISPLAY MM 07.
000147: 33,2003           00007                           MM       07         B-14                       #  FALL INTO IMUTEST
000148:

End of include-file SYSTEM_TEST_STANDARD_LEAD_INS.agc.  Parent file is MAIN.agc


