
Source Code


000002:                                                                                                  ## Copyright:   Public domain.
000003:                                                                                                  ## Filename:    SYSTEM_TEST_STANDARD_LEAD_INS.agc
000004:                                                                                                  ## Purpose:     Part of the source code for Comanche, build 055.
000005:                                                                                                  ##              It is part of the source code for the Command Module's (CM)
000006:                                                                                                  ##              Apollo Guidance Computer (AGC), Apollo 11.
000007:                                                                                                  ## Assembler:   yaYUL
000008:                                                                                                  ## Reference:   pp. 420-422
000009:                                                                                                  ## Contact:     Onno Hommes <ohommes@cmu.edu>.
000010:                                                                                                  ## Website:     www.ibiblio.org/apollo.
000011:                                                                                                  ## Mod history: 05/07/09 OH     Transcription Batch 1 Assignment
000012:                                                                                                  ##              2016-12-10 RSB  Proofed comments with octopus/ProoferComments
000013:                                                                                                  ##                              and fixed the errors found.
000014:                                                                                                  ##              2017-01-18 RSB  Fixed comment-text errors noted while diff'ing
000015:                                                                                                  ##                              vs Colossus 249.
000016:                                                                                                  ##
000017:                                                                                                  ## The contents of the "Comanche055" files, in general, are transcribed
000018:                                                                                                  ## from scanned documents.
000019:                                                                                                  ##
000020:                                                                                                  ##      Assemble revision 055 of AGC program Comanche by NASA
000021:                                                                                                  ##      2021113-051.  April 1, 1969.
000022:                                                                                                  ##
000023:                                                                                                  ##      This AGC program shall also be referred to as Colossus 2A
000024:                                                                                                  ##
000025:                                                                                                  ##      Prepared by
000026:                                                                                                  ##                      Massachusetts Institute of Technology
000027:                                                                                                  ##                      75 Cambridge Parkway
000028:                                                                                                  ##                      Cambridge, Massachusetts
000029:                                                                                                  ##
000030:                                                                                                  ##      under NASA contract NAS 9-4065.
000031:                                                                                                  ##
000032:                                                                                                  ## Refer directly to the online document mentioned above for further information.
000033:                                                                                                  ## Please report any errors to info@sandroid.org.
000034:
000035:


000037: 22,3151  E5,1671                                  EBANK=   XSM
000038:
000039: 33,2000                                           BANK     33
000040: 13,2000                                           SETLOC   E/PROG1
000041: 13,2000                                           BANK
000042:
000043: 13,2036                                           COUNT*   $$/P07
000044:
000045:                                                                                                  #  SPECIAL PROGRAMS TO EASE THE PANGS OF ERASABLE MEMORY PROGRAMS.
000046:
000047:                                                                                                  #  E/BKCALL      FOR DOING BANKCALLS FROM AND RETURNING TO ERASABLE.
000048:
000049:                                                                                                  #  THIS ROUTINE IS CALLABLE FROM ERASABLE OR FIXED.  LIKE BANKCALL, HOWEVER, SWITCHING BETWEEN S3 AND S4
000050:                                                                                                  #  IS NOT POSSIBLE.
000051:
000052:                                                                                                  #  THE CALLING SEQUENCE IS:
000053:
000054:                                                                                                  #        TC      BANKCALL
000055:                                                                                                  #        CADR    E/BKCALL
000056:                                                                                                  #        CADR    ROUTINE         WHERE YOU WANT TO GO IN FIXED.
000057:                                                                                                  #        RETURN HERE FROM DISPLAY TERMINATE, BAD STALL OR TC Q.
000058:                                                                                                  #        RETURN HERE FROM DISPLAY PROCEED OR GOOD RETURN FROM STALL.
000059:                                                                                                  #        RETURN HERE FROM DISPLAY ENTER OR RECYCLE.
000060:
000061:                                                                                                  #  THIS ROUTINE REQUIRES TWO ERASABLES (EBUF2, +1) IN UNSWITCHED WHICH ARE UNSHARED BY INTERRUPTS AND
000062:                                                                                                  #  OTHER EMEMORY PROGRAMS.
000063:
000064:                                                                                                  #  A + L ARE PRESERVED THROUGH BANKCALL AND E/BKCALL.
000065:
000066: 13,2036           52134        E/BKCALL           DXCH     BUF2                                  #  SAVE A,L AND GET DP RETURN.
000067: 13,2037           52365                           DXCH     EBUF2                                 #  SAVE DP RETURN.
000068: 13,2040           24364                           INCR     EBUF2                                 #  RETURN +1 BECAUSE DOUBLE CADR.
000069: 13,2041           30006                           CA       BBANK
000070: 13,2042           75054                           MASK     LOW10                                 #  GET CURRENT EBANK.  (SBANK SOMEDAY)
000071: 13,2043           26365                           ADS      EBUF2      +1                         #  FORM BBCON.  (WAS FBANK)
000072: 13,2044           50364                           NDX      EBUF2
000073: 13,2045           27777                           CA       0          -1                         #  GET CADR OF ROUTINE.
000074: 13,2046           04666                           TC       SWCALL                                #  GO TO ROUTINE, SETTING Q TO SWRETURN
000075:                                                                                                  #  AND RESTORING A + L.
000076: 13,2047           02053                           TC       +4                                    #  TX Q, V34, OR BAD STALL RETURN.
000077: 13,2050           02052                           TC       +2                                    #  PROCEED OR GOOD STALL RETURN.
000078: 13,2051           24364                           INCR     EBUF2                                 #  ENTER OR RECYCLE RETURN.
000079: 13,2052           24364                           INCR     EBUF2
000080: 13,2053           52365        E/SWITCH           DXCH     EBUF2
000081: 13,2054           52006                           DTCB
000082:


000084:                                                                                                  #  E/CALL        FOR CALLING A FIXED MEMORY INTERPRETIVE SUBROUTINE FROM ERASABLE AND RETURNING TO ERASABLE.
000085:
000086:                                                                                                  #  THE CALLING SEQUENCE IS...
000087:
000088:                                                                                                  #        RTB
000089:                                                                                                  #                E/CALL
000090:                                                                                                  #        CADR    ROUTINE                 THE INTERPRETIVE SUBROUTINE YOU WANT.
000091:                                                                                                  #                                        RETURNS HERE IN INTERPRETIVE.
000092:
000093: 13,2055           22164        E/CALL             LXCH     LOC                                   #  ADRES -1 OF CADR.
000094: 13,2056           50001                           INDEX    L
000095: 13,2057           30001                           CA       L                                     #  CADR IN A.
000096: 13,2060           24001                           INCR     L
000097: 13,2061           24001                           INCR     L                                     #  RETURN ADRES IN L.
000098: 13,2062           52365                           DXCH     EBUF2                                 #  STORE CADR AND RETURN.
000099: 13,2063           06006                           TC       INTPRET
000100: 13,2064           77624                           CALL
000101: 13,2065           00364                                    EBUF2                                 #  INDIRECTLY EXECUTE ROUTINE.  IT MUST
000102: 13,2066           77776                           EXIT                                           #  LEAVE VIA RVQ OR EQUIVALENT.
000103: 13,2067           22365                           LXCH     EBUF2      +1                         #  PICK UP RETURN.
000104: 13,2070           16010                           TCF      INTPRET    +2                         #  SET LOC AND RETURB TO CALLER
000105:


000107:                                                                                                  #  E/JOBWAK      FOR WAKING UP ERASABLE MEMORY JOBS.
000108:
000109:                                                                                                  #  THIS ROUTINE MUST BE CALLED IN INTERRUPT OR WITH INTERRUPTS INHIBITED.
000110:
000111:                                                                                                  #  THE CALLING SEQUENCE IS:
000112:
000113:                                                                                                  #        INHINT
000114:                                                                                                  #          .
000115:                                                                                                  #          .
000116:                                                                                                  #        CA      WAKEADR         ADDRESS OF SLEEPING JOB
000117:                                                                                                  #        TC      IBNKCALL
000118:                                                                                                  #        CADR    E/JOBWAK
000119:                                                                                                  #          .                     RETURNS HERE
000120:                                                                                                  #          .
000121:                                                                                                  #          .
000122:                                                                                                  #        RELINT                  IF YOU DID AN INHINT.
000123:
000124: 33,2000                                           BANK     33
000125: 04,2000                                           SETLOC   E/PROG
000126: 04,2000                                           BANK
000127:
000128: 04,2606                                           COUNT*   $$/P07
000129:
000130: 04,2606           05201        E/JOBWAK           TC       JOBWAKE                               #  ARRIVE IWTH ADRES IN A.
000131: 04,2607           45005                           CS       BIT11
000132: 04,2610           50064                           NDX      LOCCTR
000133: 04,2611           26164                           ADS      LOC                                   #  KNOCK FIXED MEMORY BIT OUT OF ADRES.
000134: 04,2612           00072                           TC       RUPTREG3                              #  RETURN
000135:
000136:
000137:                                                                                                  #  THESE PROGRAMS ARE PROVIDED TO ALLOW OVERLAY OF BANKS 30 THRU 33 OF THE 205 VERSIONS OF SYSTEM TESTS AND
000138:                                                                                                  #  PRELAUNCH ALIGN.  THE INTENT IS TO ALLOW THE STG AND HYBRID LABS TO RUN ALL THE TESTS WITH COLOSSUS.
000139:
000140:
000141: 33,2000                                           BANK     33
000142: 33,2000                                           SETLOC   TESTLEAD
000143: 33,2000                                           BANK
000144:
000145: 33,2000                                           COUNT    33/COMST
000146:
000147: 33,2000  E5,1425                                  EBANK=   QPLACE
000148:
000149: 33,2000           03436        COMPVER            TC       GCOMPVER                              #  MUST BE 33,2000.
000150:
000151: 33,2001           03131        GTSCPSS1           TC       GTSCPSS                               #  MUST BE AT 33,2001
000152:
000153: 33,2002           05354        REDO               TC       NEWMODEX                              #  DISPLAY MM 07.
000154: 33,2003           00007                           MM       07         B-14                       #  FALL INTO IMUTEST
000155:

End of include-file SYSTEM_TEST_STANDARD_LEAD_INS.agc.  Parent file is MAIN.agc


