
Source Code


000002:                                                                                                  #  Copyright:    Public domain.
000003:                                                                                                  #  Filename:     TAGS_FOR_RELATIVE_SETLOC.agc
000004:                                                                                                  #  Purpose:      Part of the source code for Colossus 2A, AKA Comanche 055.
000005:                                                                                                  #                It is part of the source code for the Command Module's (CM)
000006:                                                                                                  #                Apollo Guidance Computer (AGC), for Apollo 11.
000007:                                                                                                  #  Assembler:    yaYUL
000008:                                                                                                  #  Contact:      Ron Burkey <info@sandroid.org>.
000009:                                                                                                  #  Website:      www.ibiblio.org/apollo.
000010:                                                                                                  #  Mod history:  2009-05-05 RSB  Adapted from the Colossus249/ file of the
000011:                                                                                                  #                                same name, using Comanche055 page images.
000012:                                                                                                  #                2009-05-20 RSB  Corrected R32 -> R31.
000013:
000014:                                                                                                  #  This source code has been transcribed or otherwise adapted from digitized
000015:                                                                                                  #  images of a hardcopy from the MIT Museum.  The digitization was performed
000016:                                                                                                  #  by Paul Fjeld, and arranged for by Deborah Douglas of the Museum.  Many
000017:                                                                                                  #  thanks to both.  The images (with suitable reduction in storage size and
000018:                                                                                                  #  consequent reduction in image quality as well) are available online at
000019:                                                                                                  #  www.ibiblio.org/apollo.  If for some reason you find that the images are
000020:                                                                                                  #  illegible, contact me at info@sandroid.org about getting access to the
000021:                                                                                                  #  (much) higher-quality images which Paul actually created.
000022:
000023:                                                                                                  #  Notations on the hardcopy document read, in part:
000024:
000025:                                                                                                  #        Assemble revision 055 of AGC program Comanche by NASA
000026:                                                                                                  #        2021113-051.  10:28 APR. 1, 1969
000027:
000028:                                                                                                  #        This AGC program shall also be referred to as
000029:                                                                                                  #                        Colossus 2A
000030:
000031:                                                                                                  #  Page 27
000032:                                                                                                  #  TAGS FOR RELATIVE SETLOC AND BLANK BANK CARDS
000033:
000034: ???????                        FIXED              MEMORY   120000     -          167777
000035: ???????                                           COUNT    BANKSUM
000036:
000037:                                                                                                  #  MODULE 1 CONTAINS BANKS 0 THROUGH 5
000038:
000039:    4000                                           BLOCK    02
000040:    4000                        FFTAG1             EQUALS
000041:    4000                        FFTAG2             EQUALS
000042:    4000                        FFTAG3             EQUALS
000043:    4000                        FFTAG4             EQUALS
000044:    4000                        FFTAG7             EQUALS
000045:    4000                        FFTAG8             EQUALS
000046:    4000                        FFTAG9             EQUALS
000047:    4000                        FFTAG10            EQUALS
000048:    4000                        FFTAG12            EQUALS
000049:    4000                        P30SUBS            EQUALS
000050:    4000                        STOPRAT            EQUALS
000051:    4000                        P23S               EQUALS
000052:    4000                                           BNKSUM   02
000053:
000054:    6000                                           BLOCK    03
000055:    6000                        FFTAG5             EQUALS
000056:    6000                        FFTAG6             EQUALS
000057:    6000                        DAPS9              EQUALS
000058:    6000                        FFTAG13            EQUALS
000059:    6000                                           BNKSUM   03
000060:
000061: 00,2000                                           BANK     00
000062: 00,2000                        DLAYJOB            EQUALS
000063: 00,2000                                           BNKSUM   00
000064:
000065: 01,2000                                           BANK     01
000066: 01,2000                        RESTART            EQUALS
000067: 01,2000                                           BNKSUM   01
000068:
000069: 04,2000                                           BANK     4
000070: 04,2000                        VERB37             EQUALS
000071: 04,2000                        CONICS1            EQUALS
000072: 04,2000                        PINBALL4           EQUALS
000073: 04,2000                        CSI/CDH1           EQUALS
000074: 04,2000                        INTPRET2           EQUALS
000075: 04,2000                        IMUCAL1            EQUALS
000076:
000077:                                                                                                  #  Page 28
000078:
000079: 04,2000                        STBLEORB           EQUALS
000080: 04,2000                        E/PROG             EQUALS
000081: 04,2000                        MIDDGIM            EQUALS
000082:
000083: 04,2000                                           BNKSUM   04
000084:
000085: 05,2000                                           BANK     5
000086: 05,2000                        FRANDRES           EQUALS
000087: 05,2000                        DOWNTELM           EQUALS
000088: 05,2000                        DAPMASS            EQUALS
000089: 05,2000                        CDHTAG             EQUALS
000090: 05,2000                                           BNKSUM   05
000091:
000092:                                                                                                  #  MODULE 2 CONTAINS BANKS 6 THROUGH 13
000093:
000094: 06,2000                                           BANK     6
000095: 06,2000                        IMUCOMP            EQUALS
000096: 06,2000                        T4RUP              EQUALS
000097: 06,2000                        IMUCAL2            EQUALS
000098: 06,2000                        CSIPROG            EQUALS
000099: 06,2000                                           BNKSUM   06
000100:
000101: 07,2000                                           BANK     7
000102: 07,2000                        SXTMARKE           EQUALS
000103: 07,2000                        R02                EQUALS
000104: 07,2000                        MODESW             EQUALS
000105: 07,2000                        XANG               EQUALS
000106: 07,2000                        KEYRUPT            EQUALS
000107: 07,2000                        CSIPROG6           EQUALS
000108: 07,2000                                           BNKSUM   07
000109:
000110: 10,2000                                           BANK     10
000111: 10,2000                        DISPLAYS           EQUALS
000112: 10,2000                        PHASETAB           EQUALS
000113: 10,2000                        COMGEOM2           EQUALS
000114: 10,2000                        SXTMARK1           EQUALS
000115: 10,2000                        P60S4              EQUALS
000116: 10,2000                        OPTDRV             EQUALS
000117: 10,2000                        CSIPROG8           EQUALS
000118: 10,2000                                           BNKSUM   10
000119:
000120: 11,2000                                           BANK     11
000121: 11,2000                        ORBITAL            EQUALS
000122: 11,2000                        ORBITAL1           EQUALS                                         #  CONSTANTS
000123:
000124:                                                                                                  #  Page 29
000125:
000126: 11,2000                        INTVEL             EQUALS
000127: 11,2000                        S52/2              EQUALS
000128: 11,2000                        CSIPROG5           EQUALS
000129: 11,2000                        INTINIT1           EQUALS
000130: 11,2000                                           BNKSUM   11
000131:
000132: 12,2000                                           BANK     12
000133: 12,2000                        CONICS             EQUALS
000134: 12,2000                        CSIPROG2           EQUALS
000135: 12,2000                        CSI/CDH2           EQUALS
000136: 12,2000                        MODCHG2            EQUALS
000137: 12,2000                                           BNKSUM   12
000138:
000139: 13,2000                                           BANK     13
000140: 13,2000                        P76LOC             EQUALS
000141: 13,2000                        LATLONG            EQUALS
000142: 13,2000                        INTINIT            EQUALS
000143: 13,2000                        SR52/1             EQUALS
000144: 13,2000                        ORBITAL2           EQUALS
000145: 13,2000                        CDHTAGS            EQUALS
000146: 13,2000                        E/PROG1            EQUALS
000147: 13,2000                        MODCHG3            EQUALS
000148: 13,2000                                           BNKSUM   13
000149:
000150:                                                                                                  #  MODULE 3 CONTAINS BANKS 14 THROUGH 21
000151:
000152: 14,2000                                           BANK     14
000153: 14,2000                        STARTAB            EQUALS
000154: 14,2000                        RT53               EQUALS
000155: 14,2000                        P50S1              EQUALS
000156: 14,2000                        MEASINC2           EQUALS
000157: 14,2000                        CSI/CDH3           EQUALS
000158: 14,2000                                           BNKSUM   14
000159:
000160: 15,2000                                           BANK     15
000161: 15,2000                        P50S               EQUALS
000162: 15,2000                        ETRYDAP            EQUALS
000163: 15,2000                        S52/3              EQUALS
000164: 15,2000                                           BNKSUM   15
000165:
000166: 16,2000                                           BANK     16
000167: 16,2000                        P40S1              EQUALS
000168:
000169:                                                                                                  #  Page 30
000170:
000171: 16,2000                        DAPROLL            EQUALS
000172: 16,2000                        P50S2              EQUALS
000173: 16,2000                        P23S1              EQUALS
000174: 16,2000                        RTE2               EQUALS
000175: 16,2000                                           BNKSUM   16
000176:
000177: 17,2000                                           BANK     17
000178: 17,2000                        DAPS4              EQUALS
000179: 17,2000                        DAPS5              EQUALS
000180: 17,2000                        DAPS7              EQUALS
000181: 17,2000                        P50S3              EQUALS
000182: 17,2000                                           BNKSUM   17
000183:
000184: 20,2000                                           BANK     20
000185: 20,2000                        DAPS6              EQUALS
000186: 20,2000                        DAPS1              EQUALS
000187: 20,2000                        DAPS2              EQUALS
000188: 20,2000                        MANUSTUF           EQUALS
000189: 20,2000                        R36CM              EQUALS
000190: 20,2000                        VAC5LOC            EQUALS
000191: 20,2000                                           BNKSUM   20
000192:
000193: 21,2000                                           BANK     21
000194: 21,2000                        DAPS3              EQUALS
000195: 21,2000                        MYSUBS             EQUALS
000196: 21,2000                        KALCMON3           EQUALS
000197: 21,2000                                           BNKSUM   21
000198:
000199:                                                                                                  #  MODULE 4 CONTAINS BANKS 22 THROUGH 27
000200:
000201: 22,2000                                           BANK     22
000202: 22,2000                        RTBCODES           EQUALS
000203: 22,2000                        RTBCODE1           EQUALS
000204: 22,2000                        DAPS8              EQUALS
000205: 22,2000                        APOPERI            EQUALS
000206: 22,2000                        P40S5              EQUALS
000207: 22,2000                        KALCMON2           EQUALS
000208: 22,2000                        KALCMON1           EQUALS
000209: 22,2000                        CSIPROG3           EQUALS
000210: 22,2000                                           BNKSUM   22
000211:
000212:                                                                                                  #  Page 31
000213:
000214: 23,2000                                           BANK     23
000215: 23,2000                        P20S2              EQUALS
000216: 23,2000                        INFLIGHT           EQUALS
000217: 23,2000                        COMGEOM1           EQUALS
000218: 23,2000                        POWFLITE           EQUALS
000219: 23,2000                        POWFLIT1           EQUALS
000220: 23,2000                        RENDGUID           EQUALS
000221: 23,2000                        POWFLIT2           EQUALS
000222: 23,2000                        R30LOC             EQUALS
000223: 23,2000                        P11FOUR            EQUALS
000224: 23,2000                        CSIPROG4           EQUALS
000225: 23,2000                                           BNKSUM   23
000226:
000227: 24,2000                                           BANK     24
000228: 24,2000                        LOADDAP            EQUALS
000229: 24,2000                        P40S               EQUALS
000230: 24,2000                        CSIPROG7           EQUALS
000231: 24,2000                                           BNKSUM   24
000232:
000233: 25,2000                                           BANK     25
000234: 25,2000                        REENTRY            EQUALS
000235: 25,2000                        CDHTAG1            EQUALS
000236: 25,2000                                           BNKSUM   25
000237:
000238: 26,2000                                           BANK     26
000239: 26,2000                        INTPRET1           EQUALS
000240: 26,2000                        REENTRY1           EQUALS
000241: 26,2000                        P60S               EQUALS
000242: 26,2000                        P60S1              EQUALS
000243: 26,2000                        P60S2              EQUALS
000244: 26,2000                        P60S3              EQUALS
000245: 26,2000                        PLANTIN            EQUALS                                         #  LUNAR ROT
000246: 26,2000                        EPHEM              EQUALS
000247: 26,2000                        P05P06             EQUALS
000248: 26,2000                        26P50S             EQUALS
000249: 26,2000                                           BNKSUM   26
000250:
000251: 27,2000                                           BANK     27
000252: 27,2000                        TOF-FF             EQUALS
000253: 27,2000                        TOF-FF1            EQUALS
000254: 27,2000                        MANUVER            EQUALS
000255: 27,2000                        MANUVER1           EQUALS
000256:
000257:                                                                                                  #  Page 32
000258:
000259: 27,2000                        VECPT              EQUALS
000260: 27,2000                        UPDATE1            EQUALS
000261: 27,2000                        UPDATE2            EQUALS
000262: 27,2000                        R22S1              EQUALS
000263: 27,2000                        P60S5              EQUALS
000264: 27,2000                        P40S2              EQUALS
000265: 27,2000                                           BNKSUM   27
000266:
000267:                                                                                                  #  MODULE 5 CONTAINS BANKS 30 THROUGH 35
000268:
000269: 30,2000                                           BANK     30
000270: 30,2000                        IMUSUPER           EQUALS
000271: 30,2000                        LOWSUPER           EQUALS
000272: 30,2000                        FCSTART            EQUALS                                         #  STANDARD LOCATION FOR THIS. (FOR EXTV8)
000273: 30,2000                        LOPC               EQUALS
000274: 30,2000                        P20S1              EQUALS
000275: 30,2000                        P20S6              EQUALS
000276: 30,2000                        P40S3              EQUALS
000277: 30,2000                        R35A               EQUALS
000278: 30,2000                                           BNKSUM   30
000279:
000280: 31,2000                                           BANK     31
000281: 31,2000                        R35                EQUALS
000282: 31,2000                        RT23               EQUALS
000283: 31,2000                        P30S1A             EQUALS
000284: 31,2000                        R34                EQUALS
000285: 31,2000                        CDHTAG2            EQUALS
000286: 31,2000                        CSIPROG9           EQUALS
000287: 31,2000                        R31                EQUALS
000288: 31,2000                        P22S               EQUALS
000289: 31,2000                        RTE3               EQUALS
000290: 31,2000                                           BNKSUM   31
000291:
000292: 32,2000                                           BANK     32
000293: 32,2000                        MSGSCAN1           EQUALS
000294: 32,2000                        RTE                EQUALS
000295: 32,2000                        DELRSPL1           EQUALS
000296: 32,2000                        IMUCAL3            EQUALS
000297: 32,2000                                           BNKSUM   32
000298:
000299: 33,2000                                           BANK     33
000300: 33,2000                        TESTLEAD           EQUALS
000301:
000302:                                                                                                  #  Page 33
000303:
000304: 33,2000                        IMUCAL             EQUALS
000305: 33,2000                                           BNKSUM   33
000306:
000307: 34,2000                                           BANK     34
000308: 34,2000                        P11ONE             EQUALS
000309: 34,2000                        P20S3              EQUALS
000310: 34,2000                        P20S4              EQUALS
000311: 34,2000                        RTECON             EQUALS
000312: 34,2000                                           BNKSUM   34
000313:
000314: 35,2000                                           BANK     35
000315: 35,2000                        RTECON1            EQUALS
000316: 35,2000                        CSI/CDH            EQUALS
000317: 35,2000                        P30S1              EQUALS
000318: 35,2000                        P30S               EQUALS
000319: 35,2000                        P17S1              EQUALS
000320: 35,2000                        MEASINC3           EQUALS
000321: 35,2000                        INTINIT2           EQUALS
000322: 35,2000                                           BNKSUM   35
000323:
000324:                                                                                                  #  MODULE 6 CONTAINS BANKS 36 THROUGH 43
000325:
000326: 36,2000                                           BANK     36
000327: 36,2000                        MEASINC            EQUALS
000328: 36,2000                        MEASINC1           EQUALS
000329: 36,2000                        P17S               EQUALS
000330: 36,2000                        RTE1               EQUALS
000331: 36,2000                        S3435LOC           EQUALS
000332: 36,2000                                           BNKSUM   36
000333:
000334: 37,2000                                           BANK     37
000335: 37,2000                        P20S               EQUALS
000336: 37,2000                        BODYATT            EQUALS
000337: 37,2000                        RENDEZ             EQUALS
000338: 37,2000                        SERVICES           EQUALS
000339: 37,2000                        P11TWO             EQUALS
000340: 37,2000                        CDHTAG3            EQUALS
000341: 37,2000                                           BNKSUM   37
000342:
000343: 40,2000                                           BANK     40
000344: 40,2000                        PINSUPER           EQUALS
000345:
000346:                                                                                                  #  Page 34
000347:
000348: 40,2000                        SELFSUPR           EQUALS
000349: 40,2000                        PINBALL1           EQUALS
000350: 40,2000                        R36CM1             EQUALS
000351: 40,2000                                           BNKSUM   40
000352:
000353: 41,2000                                           BANK     41
000354: 41,2000                        PINBALL2           EQUALS
000355: 41,2000                        R36LM              EQUALS
000356: 41,2000                                           BNKSUM   41
000357:
000358: 42,2000                                           BANK     42
000359: 42,2000                        SBAND              EQUALS
000360: 42,2000                        PINBALL3           EQUALS
000361: 42,2000                        EXTVBS             EQUALS
000362: 42,2000                        R36LM1             EQUALS
000363: 42,2000                                           BNKSUM   42
000364:
000365: 43,2000                                           BANK     43
000366: 43,2000                        SELFCHEC           EQUALS
000367: 43,2000                        EXTVERBS           EQUALS
000368: 43,2000                                           BNKSUM   43
000369:
000370: 43,2000  26,3334               HI6ZEROS           EQUALS   ZEROVECS                              #  ZERO VECTOR ALWAYS IN HIGH MEMORY
000371: 43,2000  04,3565               LO6ZEROS           EQUALS   ZEROVEC                               #  ZERO VECTOR ALWAYS IN LOW MEMORY
000372: 43,2000  26,3332               HIDPHALF           EQUALS   UNITX
000373: 43,2000  04,3563               LODPHALF           EQUALS   XUNIT
000374: 43,2000  26,3324               HIDP1/4            EQUALS   DP1/4TH
000375: 43,2000  04,3611               LODP1/4            EQUALS   D1/4                                  #  2DEC .25
000376: 43,2000  26,3332               HIUNITX            EQUALS   UNITX
000377: 43,2000  26,3330               HIUNITY            EQUALS   UNITY
000378: 43,2000  26,3326               HIUNITZ            EQUALS   UNITZ
000379: 43,2000  04,3563               LOUNITX            EQUALS   XUNIT                                 #  2DEC .5
000380: 43,2000  04,3561               LOUNITY            EQUALS   YUNIT                                 #  2DEC 0
000381: 43,2000  04,3557               LOUNITZ            EQUALS   ZUNIT                                 #  2DEC 0
000382: 43,2000  11,3763               3/4LOWDP           EQUALS   3/4                                   #  2DEC 3.0 B-2
000383:
000384: 43,2000  30,2000                                  SBANK=   LOWSUPER
000385:
000386:                                                                                                  #  ROPE-SPECIFIC ASSIGNS OBVIATING NEED TO CHECK COMPUTER FLAG IN DETERMINING(?) INTEGRATION AREA ENTRIES.
000387:
000388: 43,2000  13,3105               OTHPREC            EQUALS   LEMPREC
000389: 43,2000  13,2760               ATOPOTH            EQUALS   ATOPLEM
000390: 43,2000  13,2705               ATOPTHIS           EQUALS   ATOPCSM
000391: 43,2000  0000173               MOONTHIS           EQUALS   CMOONFLG
000392:
000393:                                                                                                  #  Page 35
000394:
000395: 43,2000  0000174               MOONOTH            EQUALS   LMOONFLG
000396: 43,2000  13,2720               MOVATHIS           EQUALS   MOVEACSM
000397: 43,2000  31,2032               STATEST            EQUALS   V83CALL                               #  * TEMPORARY
000398: 43,2000  13,3071               THISPREC           EQUALS   CSMPREC
000399: 43,2000  26,3332               THISAXIS           =        UNITX
000400: 43,2000     5054               ERASID             EQUALS   LOW10                                 #  DOWNLINK ERASABLE DUMP ID
000401: 43,2000     6214               DELAYNUM           EQUALS   THREE
000402:
000403:                                                                                                  # ********************************************************************************************************
000404:
000405:                                                                                                  #  THE FOLLOWING ECADRS ARE DEFINED TO FACILITATE EBANK SWITCHING.  THEY ALSO MAKE IT EASIER FOR
000406:                                                                                                  #  ERASABLE CONTROL TO REARRANGE ERASABLE MEMORY WITHOUT DISRUPTING THE PROGRAMS WHICH SET EBANKS.
000407:                                                                                                  #  PRIOR TO ROPE RELEASE FIXED MEMORY CAN BE SAVED BY SETTING EACH EBXXXX =EBANKX (X=4,5,6,7).  EBANKX OF COURSE
000408:                                                                                                  #  WILL BE THE BANK WHERE THE ERASABLES REFERENCED IN EBXXXX WILL BE STORED.
000409:
000410: 07,2000                                           BANK     7
000411: 07,2000  E7,1674                                  EBANK=   MARKDOWN
000412: 07,2000           03674        EBMARKDO           ECADR    MARKDOWN
000413: 07,2001  E7,1725                                  EBANK=   MRKBUF1
000414: 07,2001           03725        EBMRKBUF           ECADR    MRKBUF1
000415:
000416: 24,2000                                           BANK     24
000417: 24,2000  E7,1431                                  EBANK=   DVCNTR
000418: 24,2000           03431        EBDVCNTR           ECADR    DVCNTR
000419: 24,2001  E7,1672                                  EBANK=   P40TMP
000420: 24,2001           03672        EBP40TMP           ECADR    P40TMP
000421:
000422: 34,2000                                           BANK     34
000423: 34,2000  E7,1431                                  EBANK=   DVCNTR
000424: 34,2000           03431        EBDVCNT            ECADR    DVCNTR
000425: 34,2001  E5,1426                                  EBANK=   QPLACES
000426: 34,2001           02426        EBQPLACE           ECADR    QPLACES
000427:
000428: 37,2000                                           BANK     37
000429: 37,2000     1231                                  EBANK=   RN1
000430: 37,2000           01231        EBRN1              ECADR    RN1
000431:
000432:                                                                                                  # ******************************************************************************************************
000433:
000434:                                                                                                  #  Page 36
000435:
000436:                                                                                                  #  *** END OF MAIN PROGRAM ***
000437:

End of include-file TAGS_FOR_RELATIVE_SETLOC.agc.  Parent file is MAIN.agc


