
Source Code
000001:                                                                                                 #  Copyright:     Public domain.
000002:                                                                                                 #  Filename:      TAGS_FOR_RELATIVE_SETLOC.agc
000003:                                                                                                 #  Purpose:       Part of the source code for Colossus 2A, AKA Comanche 055.
000004:                                                                                                 #                 It is part of the source code for the Command Module's (CM)
000005:                                                                                                 #                 Apollo Guidance Computer (AGC), for Apollo 11.
000006:                                                                                                 #  Assembler:     yaYUL
000007:                                                                                                 #  Contact:       Ron Burkey <info@sandroid.org>.
000008:                                                                                                 #  Website:       www.ibiblio.org/apollo.
000009:                                                                                                 #  Mod history:   2009-05-05 RSB  Adapted from the Colossus249/ file of the
000010:                                                                                                 #                                 same name, using Comanche055 page images.
000011:                                                                                                 #                 2009-05-20 RSB  Corrected R32 -> R31.
000012:
000013:                                                                                                 #  This source code has been transcribed or otherwise adapted from digitized
000014:                                                                                                 #  images of a hardcopy from the MIT Museum.  The digitization was performed
000015:                                                                                                 #  by Paul Fjeld, and arranged for by Deborah Douglas of the Museum.  Many
000016:                                                                                                 #  thanks to both.  The images (with suitable reduction in storage size and
000017:                                                                                                 #  consequent reduction in image quality as well) are available online at
000018:                                                                                                 #  www.ibiblio.org/apollo.  If for some reason you find that the images are
000019:                                                                                                 #  illegible, contact me at info@sandroid.org about getting access to the
000020:                                                                                                 #  (much) higher-quality images which Paul actually created.
000021:
000022:                                                                                                 #  Notations on the hardcopy document read, in part:
000023:
000024:                                                                                                 #         Assemble revision 055 of AGC program Comanche by NASA
000025:                                                                                                 #         2021113-051.  10:28 APR. 1, 1969
000026:
000027:                                                                                                 #         This AGC program shall also be referred to as
000028:                                                                                                 #                         Colossus 2A
000029:
000030:                                                                                                 #  Page 27
000031:                                                                                                 #  TAGS FOR RELATIVE SETLOC AND BLANK BANK CARDS
000032:
000033: ???????                        FIXED             MEMORY   120000     -          167777
000034: ???????                                          COUNT    BANKSUM
000035:
000036:                                                                                                 #  MODULE 1 CONTAINS BANKS 0 THROUGH 5
000037:
000038:    4000                                          BLOCK    02
000039:    4000                        FFTAG1            EQUALS
000040:    4000                        FFTAG2            EQUALS
000041:    4000                        FFTAG3            EQUALS
000042:    4000                        FFTAG4            EQUALS
000043:    4000                        FFTAG7            EQUALS
000044:    4000                        FFTAG8            EQUALS
000045:    4000                        FFTAG9            EQUALS
000046:    4000                        FFTAG10           EQUALS
000047:    4000                        FFTAG12           EQUALS
000048:    4000                        P30SUBS           EQUALS
000049:    4000                        STOPRAT           EQUALS
000050:    4000                        P23S              EQUALS
000051:    4000                                          BNKSUM   02
000052:
000053:    6000                                          BLOCK    03
000054:    6000                        FFTAG5            EQUALS
000055:    6000                        FFTAG6            EQUALS
000056:    6000                        DAPS9             EQUALS
000057:    6000                        FFTAG13           EQUALS
000058:    6000                                          BNKSUM   03
000059:
000060: 00,2000                                          BANK     00
000061: 00,2000                        DLAYJOB           EQUALS
000062: 00,2000                                          BNKSUM   00
000063:
000064: 01,2000                                          BANK     01
000065: 01,2000                        RESTART           EQUALS
000066: 01,2000                                          BNKSUM   01
000067:
000068: 04,2000                                          BANK     4
000069: 04,2000                        VERB37            EQUALS
000070: 04,2000                        CONICS1           EQUALS
000071: 04,2000                        PINBALL4          EQUALS
000072: 04,2000                        CSI/CDH1          EQUALS
000073: 04,2000                        INTPRET2          EQUALS
000074: 04,2000                        IMUCAL1           EQUALS
000075:
000076:                                                                                                 #  Page 28
000077:
000078: 04,2000                        STBLEORB          EQUALS
000079: 04,2000                        E/PROG            EQUALS
000080: 04,2000                        MIDDGIM           EQUALS
000081:
000082: 04,2000                                          BNKSUM   04
000083:
000084: 05,2000                                          BANK     5
000085: 05,2000                        FRANDRES          EQUALS
000086: 05,2000                        DOWNTELM          EQUALS
000087: 05,2000                        DAPMASS           EQUALS
000088: 05,2000                        CDHTAG            EQUALS
000089: 05,2000                                          BNKSUM   05
000090:
000091:                                                                                                 #  MODULE 2 CONTAINS BANKS 6 THROUGH 13
000092:
000093: 06,2000                                          BANK     6
000094: 06,2000                        IMUCOMP           EQUALS
000095: 06,2000                        T4RUP             EQUALS
000096: 06,2000                        IMUCAL2           EQUALS
000097: 06,2000                        CSIPROG           EQUALS
000098: 06,2000                                          BNKSUM   06
000099:
000100: 07,2000                                          BANK     7
000101: 07,2000                        SXTMARKE          EQUALS
000102: 07,2000                        R02               EQUALS
000103: 07,2000                        MODESW            EQUALS
000104: 07,2000                        XANG              EQUALS
000105: 07,2000                        KEYRUPT           EQUALS
000106: 07,2000                        CSIPROG6          EQUALS
000107: 07,2000                                          BNKSUM   07
000108:
000109: 10,2000                                          BANK     10
000110: 10,2000                        DISPLAYS          EQUALS
000111: 10,2000                        PHASETAB          EQUALS
000112: 10,2000                        COMGEOM2          EQUALS
000113: 10,2000                        SXTMARK1          EQUALS
000114: 10,2000                        P60S4             EQUALS
000115: 10,2000                        OPTDRV            EQUALS
000116: 10,2000                        CSIPROG8          EQUALS
000117: 10,2000                                          BNKSUM   10
000118:
000119: 11,2000                                          BANK     11
000120: 11,2000                        ORBITAL           EQUALS
000121: 11,2000                        ORBITAL1          EQUALS                                         #  CONSTANTS
000122:
000123:                                                                                                 #  Page 29
000124:
000125: 11,2000                        INTVEL            EQUALS
000126: 11,2000                        S52/2             EQUALS
000127: 11,2000                        CSIPROG5          EQUALS
000128: 11,2000                        INTINIT1          EQUALS
000129: 11,2000                                          BNKSUM   11
000130:
000131: 12,2000                                          BANK     12
000132: 12,2000                        CONICS            EQUALS
000133: 12,2000                        CSIPROG2          EQUALS
000134: 12,2000                        CSI/CDH2          EQUALS
000135: 12,2000                        MODCHG2           EQUALS
000136: 12,2000                                          BNKSUM   12
000137:
000138: 13,2000                                          BANK     13
000139: 13,2000                        P76LOC            EQUALS
000140: 13,2000                        LATLONG           EQUALS
000141: 13,2000                        INTINIT           EQUALS
000142: 13,2000                        SR52/1            EQUALS
000143: 13,2000                        ORBITAL2          EQUALS
000144: 13,2000                        CDHTAGS           EQUALS
000145: 13,2000                        E/PROG1           EQUALS
000146: 13,2000                        MODCHG3           EQUALS
000147: 13,2000                                          BNKSUM   13
000148:
000149:                                                                                                 #  MODULE 3 CONTAINS BANKS 14 THROUGH 21
000150:
000151: 14,2000                                          BANK     14
000152: 14,2000                        STARTAB           EQUALS
000153: 14,2000                        RT53              EQUALS
000154: 14,2000                        P50S1             EQUALS
000155: 14,2000                        MEASINC2          EQUALS
000156: 14,2000                        CSI/CDH3          EQUALS
000157: 14,2000                                          BNKSUM   14
000158:
000159: 15,2000                                          BANK     15
000160: 15,2000                        P50S              EQUALS
000161: 15,2000                        ETRYDAP           EQUALS
000162: 15,2000                        S52/3             EQUALS
000163: 15,2000                                          BNKSUM   15
000164:
000165: 16,2000                                          BANK     16
000166: 16,2000                        P40S1             EQUALS
000167:
000168:                                                                                                 #  Page 30
000169:
000170: 16,2000                        DAPROLL           EQUALS
000171: 16,2000                        P50S2             EQUALS
000172: 16,2000                        P23S1             EQUALS
000173: 16,2000                        RTE2              EQUALS
000174: 16,2000                                          BNKSUM   16
000175:
000176: 17,2000                                          BANK     17
000177: 17,2000                        DAPS4             EQUALS
000178: 17,2000                        DAPS5             EQUALS
000179: 17,2000                        DAPS7             EQUALS
000180: 17,2000                        P50S3             EQUALS
000181: 17,2000                                          BNKSUM   17
000182:
000183: 20,2000                                          BANK     20
000184: 20,2000                        DAPS6             EQUALS
000185: 20,2000                        DAPS1             EQUALS
000186: 20,2000                        DAPS2             EQUALS
000187: 20,2000                        MANUSTUF          EQUALS
000188: 20,2000                        R36CM             EQUALS
000189: 20,2000                        VAC5LOC           EQUALS
000190: 20,2000                                          BNKSUM   20
000191:
000192: 21,2000                                          BANK     21
000193: 21,2000                        DAPS3             EQUALS
000194: 21,2000                        MYSUBS            EQUALS
000195: 21,2000                        KALCMON3          EQUALS
000196: 21,2000                                          BNKSUM   21
000197:
000198:                                                                                                 #  MODULE 4 CONTAINS BANKS 22 THROUGH 27
000199:
000200: 22,2000                                          BANK     22
000201: 22,2000                        RTBCODES          EQUALS
000202: 22,2000                        RTBCODE1          EQUALS
000203: 22,2000                        DAPS8             EQUALS
000204: 22,2000                        APOPERI           EQUALS
000205: 22,2000                        P40S5             EQUALS
000206: 22,2000                        KALCMON2          EQUALS
000207: 22,2000                        KALCMON1          EQUALS
000208: 22,2000                        CSIPROG3          EQUALS
000209: 22,2000                                          BNKSUM   22
000210:
000211:                                                                                                 #  Page 31
000212:
000213: 23,2000                                          BANK     23
000214: 23,2000                        P20S2             EQUALS
000215: 23,2000                        INFLIGHT          EQUALS
000216: 23,2000                        COMGEOM1          EQUALS
000217: 23,2000                        POWFLITE          EQUALS
000218: 23,2000                        POWFLIT1          EQUALS
000219: 23,2000                        RENDGUID          EQUALS
000220: 23,2000                        POWFLIT2          EQUALS
000221: 23,2000                        R30LOC            EQUALS
000222: 23,2000                        P11FOUR           EQUALS
000223: 23,2000                        CSIPROG4          EQUALS
000224: 23,2000                                          BNKSUM   23
000225:
000226: 24,2000                                          BANK     24
000227: 24,2000                        LOADDAP           EQUALS
000228: 24,2000                        P40S              EQUALS
000229: 24,2000                        CSIPROG7          EQUALS
000230: 24,2000                                          BNKSUM   24
000231:
000232: 25,2000                                          BANK     25
000233: 25,2000                        REENTRY           EQUALS
000234: 25,2000                        CDHTAG1           EQUALS
000235: 25,2000                                          BNKSUM   25
000236:
000237: 26,2000                                          BANK     26
000238: 26,2000                        INTPRET1          EQUALS
000239: 26,2000                        REENTRY1          EQUALS
000240: 26,2000                        P60S              EQUALS
000241: 26,2000                        P60S1             EQUALS
000242: 26,2000                        P60S2             EQUALS
000243: 26,2000                        P60S3             EQUALS
000244: 26,2000                        PLANTIN           EQUALS                                         #  LUNAR ROT
000245: 26,2000                        EPHEM             EQUALS
000246: 26,2000                        P05P06            EQUALS
000247: 26,2000                        26P50S            EQUALS
000248: 26,2000                                          BNKSUM   26
000249:
000250: 27,2000                                          BANK     27
000251: 27,2000                        TOF-FF            EQUALS
000252: 27,2000                        TOF-FF1           EQUALS
000253: 27,2000                        MANUVER           EQUALS
000254: 27,2000                        MANUVER1          EQUALS
000255:
000256:                                                                                                 #  Page 32
000257:
000258: 27,2000                        VECPT             EQUALS
000259: 27,2000                        UPDATE1           EQUALS
000260: 27,2000                        UPDATE2           EQUALS
000261: 27,2000                        R22S1             EQUALS
000262: 27,2000                        P60S5             EQUALS
000263: 27,2000                        P40S2             EQUALS
000264: 27,2000                                          BNKSUM   27
000265:
000266:                                                                                                 #  MODULE 5 CONTAINS BANKS 30 THROUGH 35
000267:
000268: 30,2000                                          BANK     30
000269: 30,2000                        IMUSUPER          EQUALS
000270: 30,2000                        LOWSUPER          EQUALS
000271: 30,2000                        FCSTART           EQUALS                                         #  STANDARD LOCATION FOR THIS. (FOR EXTV8)
000272: 30,2000                        LOPC              EQUALS
000273: 30,2000                        P20S1             EQUALS
000274: 30,2000                        P20S6             EQUALS
000275: 30,2000                        P40S3             EQUALS
000276: 30,2000                        R35A              EQUALS
000277: 30,2000                                          BNKSUM   30
000278:
000279: 31,2000                                          BANK     31
000280: 31,2000                        R35               EQUALS
000281: 31,2000                        RT23              EQUALS
000282: 31,2000                        P30S1A            EQUALS
000283: 31,2000                        R34               EQUALS
000284: 31,2000                        CDHTAG2           EQUALS
000285: 31,2000                        CSIPROG9          EQUALS
000286: 31,2000                        R31               EQUALS
000287: 31,2000                        P22S              EQUALS
000288: 31,2000                        RTE3              EQUALS
000289: 31,2000                                          BNKSUM   31
000290:
000291: 32,2000                                          BANK     32
000292: 32,2000                        MSGSCAN1          EQUALS
000293: 32,2000                        RTE               EQUALS
000294: 32,2000                        DELRSPL1          EQUALS
000295: 32,2000                        IMUCAL3           EQUALS
000296: 32,2000                                          BNKSUM   32
000297:
000298: 33,2000                                          BANK     33
000299: 33,2000                        TESTLEAD          EQUALS
000300:
000301:                                                                                                 #  Page 33
000302:
000303: 33,2000                        IMUCAL            EQUALS
000304: 33,2000                                          BNKSUM   33
000305:
000306: 34,2000                                          BANK     34
000307: 34,2000                        P11ONE            EQUALS
000308: 34,2000                        P20S3             EQUALS
000309: 34,2000                        P20S4             EQUALS
000310: 34,2000                        RTECON            EQUALS
000311: 34,2000                                          BNKSUM   34
000312:
000313: 35,2000                                          BANK     35
000314: 35,2000                        RTECON1           EQUALS
000315: 35,2000                        CSI/CDH           EQUALS
000316: 35,2000                        P30S1             EQUALS
000317: 35,2000                        P30S              EQUALS
000318: 35,2000                        P17S1             EQUALS
000319: 35,2000                        MEASINC3          EQUALS
000320: 35,2000                        INTINIT2          EQUALS
000321: 35,2000                                          BNKSUM   35
000322:
000323:                                                                                                 #  MODULE 6 CONTAINS BANKS 36 THROUGH 43
000324:
000325: 36,2000                                          BANK     36
000326: 36,2000                        MEASINC           EQUALS
000327: 36,2000                        MEASINC1          EQUALS
000328: 36,2000                        P17S              EQUALS
000329: 36,2000                        RTE1              EQUALS
000330: 36,2000                        S3435LOC          EQUALS
000331: 36,2000                                          BNKSUM   36
000332:
000333: 37,2000                                          BANK     37
000334: 37,2000                        P20S              EQUALS
000335: 37,2000                        BODYATT           EQUALS
000336: 37,2000                        RENDEZ            EQUALS
000337: 37,2000                        SERVICES          EQUALS
000338: 37,2000                        P11TWO            EQUALS
000339: 37,2000                        CDHTAG3           EQUALS
000340: 37,2000                                          BNKSUM   37
000341:
000342: 40,2000                                          BANK     40
000343: 40,2000                        PINSUPER          EQUALS
000344:
000345:                                                                                                 #  Page 34
000346:
000347: 40,2000                        SELFSUPR          EQUALS
000348: 40,2000                        PINBALL1          EQUALS
000349: 40,2000                        R36CM1            EQUALS
000350: 40,2000                                          BNKSUM   40
000351:
000352: 41,2000                                          BANK     41
000353: 41,2000                        PINBALL2          EQUALS
000354: 41,2000                        R36LM             EQUALS
000355: 41,2000                                          BNKSUM   41
000356:
000357: 42,2000                                          BANK     42
000358: 42,2000                        SBAND             EQUALS
000359: 42,2000                        PINBALL3          EQUALS
000360: 42,2000                        EXTVBS            EQUALS
000361: 42,2000                        R36LM1            EQUALS
000362: 42,2000                                          BNKSUM   42
000363:
000364: 43,2000                                          BANK     43
000365: 43,2000                        SELFCHEC          EQUALS
000366: 43,2000                        EXTVERBS          EQUALS
000367: 43,2000                                          BNKSUM   43
000368:
000369: 43,2000  26,3334               HI6ZEROS          EQUALS   ZEROVECS                              #  ZERO VECTOR ALWAYS IN HIGH MEMORY
000370: 43,2000  04,3565               LO6ZEROS          EQUALS   ZEROVEC                               #  ZERO VECTOR ALWAYS IN LOW MEMORY
000371: 43,2000  26,3332               HIDPHALF          EQUALS   UNITX
000372: 43,2000  04,3563               LODPHALF          EQUALS   XUNIT
000373: 43,2000  26,3324               HIDP1/4           EQUALS   DP1/4TH
000374: 43,2000  04,3611               LODP1/4           EQUALS   D1/4                                  #  2DEC .25
000375: 43,2000  26,3332               HIUNITX           EQUALS   UNITX
000376: 43,2000  26,3330               HIUNITY           EQUALS   UNITY
000377: 43,2000  26,3326               HIUNITZ           EQUALS   UNITZ
000378: 43,2000  04,3563               LOUNITX           EQUALS   XUNIT                                 #  2DEC .5
000379: 43,2000  04,3561               LOUNITY           EQUALS   YUNIT                                 #  2DEC 0
000380: 43,2000  04,3557               LOUNITZ           EQUALS   ZUNIT                                 #  2DEC 0
000381: 43,2000  11,3763               3/4LOWDP          EQUALS   3/4                                   #  2DEC 3.0 B-2
000382:
000383: 43,2000  30,2000                                 SBANK=   LOWSUPER
000384:
000385:                                                                                                 #  ROPE-SPECIFIC ASSIGNS OBVIATING NEED TO CHECK COMPUTER FLAG IN DETERMINING(?) INTEGRATION AREA ENTRIES.
000386:
000387: 43,2000  13,3105               OTHPREC           EQUALS   LEMPREC
000388: 43,2000  13,2760               ATOPOTH           EQUALS   ATOPLEM
000389: 43,2000  13,2705               ATOPTHIS          EQUALS   ATOPCSM
000390: 43,2000  0000173               MOONTHIS          EQUALS   CMOONFLG
000391:
000392:                                                                                                 #  Page 35
000393:
000394: 43,2000  0000174               MOONOTH           EQUALS   LMOONFLG
000395: 43,2000  13,2720               MOVATHIS          EQUALS   MOVEACSM
000396: 43,2000  31,2032               STATEST           EQUALS   V83CALL                               #  * TEMPORARY
000397: 43,2000  13,3071               THISPREC          EQUALS   CSMPREC
000398: 43,2000  26,3332               THISAXIS          =        UNITX
000399: 43,2000     5054               ERASID            EQUALS   LOW10                                 #  DOWNLINK ERASABLE DUMP ID
000400: 43,2000     6214               DELAYNUM          EQUALS   THREE
000401:
000402:                                                                                                 # ********************************************************************************************************
000403:
000404:                                                                                                 #  THE FOLLOWING ECADRS ARE DEFINED TO FACILITATE EBANK SWITCHING.  THEY ALSO MAKE IT EASIER FOR
000405:                                                                                                 #  ERASABLE CONTROL TO REARRANGE ERASABLE MEMORY WITHOUT DISRUPTING THE PROGRAMS WHICH SET EBANKS.
000406:                                                                                                 #  PRIOR TO ROPE RELEASE FIXED MEMORY CAN BE SAVED BY SETTING EACH EBXXXX =EBANKX (X=4,5,6,7).  EBANKX OF COURSE
000407:                                                                                                 #  WILL BE THE BANK WHERE THE ERASABLES REFERENCED IN EBXXXX WILL BE STORED.
000408:
000409: 07,2000                                          BANK     7
000410: 07,2000  E7,1674                                 EBANK=   MARKDOWN
000411: 07,2000           03674        EBMARKDO          ECADR    MARKDOWN
000412: 07,2001  E7,1725                                 EBANK=   MRKBUF1
000413: 07,2001           03725        EBMRKBUF          ECADR    MRKBUF1
000414:
000415: 24,2000                                          BANK     24
000416: 24,2000  E7,1431                                 EBANK=   DVCNTR
000417: 24,2000           03431        EBDVCNTR          ECADR    DVCNTR
000418: 24,2001  E7,1672                                 EBANK=   P40TMP
000419: 24,2001           03672        EBP40TMP          ECADR    P40TMP
000420:
000421: 34,2000                                          BANK     34
000422: 34,2000  E7,1431                                 EBANK=   DVCNTR
000423: 34,2000           03431        EBDVCNT           ECADR    DVCNTR
000424: 34,2001  E5,1426                                 EBANK=   QPLACES
000425: 34,2001           02426        EBQPLACE          ECADR    QPLACES
000426:
000427: 37,2000                                          BANK     37
000428: 37,2000     1231                                 EBANK=   RN1
000429: 37,2000           01231        EBRN1             ECADR    RN1
000430:
000431:                                                                                                 # ******************************************************************************************************
000432:
000433:                                                                                                 #  Page 36
000434:
000435:                                                                                                 #  *** END OF MAIN PROGRAM ***
000436:

End of include-file TAGS_FOR_RELATIVE_SETLOC.agc.  Parent file is MAIN.agc


