
Source Code


000002:                                                                                                  ## Copyright:   Public domain.
000003:                                                                                                  ## Filename:    TAGS_FOR_RELATIVE_SETLOC.agc
000004:                                                                                                  ## Purpose:     Part of the source code for Colossus 2A, AKA Comanche 055.
000005:                                                                                                  ##              It is part of the source code for the Command Module's (CM)
000006:                                                                                                  ##              Apollo Guidance Computer (AGC), for Apollo 11.
000007:                                                                                                  ## Assembler:   yaYUL
000008:                                                                                                  ## Contact:     Ron Burkey <info@sandroid.org>.
000009:                                                                                                  ## Website:     www.ibiblio.org/apollo.
000010:                                                                                                  ## Mod history: 2009-05-05 RSB  Adapted from the Colossus249/ file of the
000011:                                                                                                  ##                              same name, using Comanche055 page images.
000012:                                                                                                  ##              2009-05-20 RSB  Corrected R32 -> R31.
000013:                                                                                                  ##              2016-12-09 RSB  Proofed comments with octopus/ProoferComments
000014:                                                                                                  ##                              and fixed the errors found.
000015:                                                                                                  ##
000016:                                                                                                  ## This source code has been transcribed or otherwise adapted from digitized
000017:                                                                                                  ## images of a hardcopy from the MIT Museum.  The digitization was performed
000018:                                                                                                  ## by Paul Fjeld, and arranged for by Deborah Douglas of the Museum.  Many
000019:                                                                                                  ## thanks to both.  The images (with suitable reduction in storage size and
000020:                                                                                                  ## consequent reduction in image quality as well) are available online at
000021:                                                                                                  ## www.ibiblio.org/apollo.  If for some reason you find that the images are
000022:                                                                                                  ## illegible, contact me at info@sandroid.org about getting access to the
000023:                                                                                                  ## (much) higher-quality images which Paul actually created.
000024:                                                                                                  ##
000025:                                                                                                  ## Notations on the hardcopy document read, in part:
000026:                                                                                                  ##
000027:                                                                                                  ##      Assemble revision 055 of AGC program Comanche by NASA
000028:                                                                                                  ##      2021113-051.  10:28 APR. 1, 1969
000029:                                                                                                  ##
000030:                                                                                                  ##      This AGC program shall also be referred to as
000031:                                                                                                  ##                      Colossus 2A
000032:


000034: ???????                        FIXED              MEMORY   120000     -          167777
000035: ???????                                           COUNT    BANKSUM
000036:
000037:                                                                                                  #  MODULE 1 CONTAINS BANKS 0 THROUGH 5
000038:
000039:    4000                                           BLOCK    02
000040:    4000                        FFTAG1             EQUALS
000041:    4000                        FFTAG2             EQUALS
000042:    4000                        FFTAG3             EQUALS
000043:    4000                        FFTAG4             EQUALS
000044:    4000                        FFTAG7             EQUALS
000045:    4000                        FFTAG8             EQUALS
000046:    4000                        FFTAG9             EQUALS
000047:    4000                        FFTAG10            EQUALS
000048:    4000                        FFTAG12            EQUALS
000049:    4000                        P30SUBS            EQUALS
000050:    4000                        STOPRAT            EQUALS
000051:    4000                        P23S               EQUALS
000052:    4000                                           BNKSUM   02
000053:
000054:    6000                                           BLOCK    03
000055:    6000                        FFTAG5             EQUALS
000056:    6000                        FFTAG6             EQUALS
000057:    6000                        DAPS9              EQUALS
000058:    6000                        FFTAG13            EQUALS
000059:    6000                                           BNKSUM   03
000060:
000061: 00,2000                                           BANK     00
000062: 00,2000                        DLAYJOB            EQUALS
000063: 00,2000                                           BNKSUM   00
000064:
000065: 01,2000                                           BANK     01
000066: 01,2000                        RESTART            EQUALS
000067: 01,2000                                           BNKSUM   01
000068:
000069: 04,2000                                           BANK     4
000070: 04,2000                        VERB37             EQUALS
000071: 04,2000                        CONICS1            EQUALS
000072: 04,2000                        PINBALL4           EQUALS
000073: 04,2000                        CSI/CDH1           EQUALS
000074: 04,2000                        INTPRET2           EQUALS
000075: 04,2000                        IMUCAL1            EQUALS
000076:


000078:
000079: 04,2000                        STBLEORB           EQUALS
000080: 04,2000                        E/PROG             EQUALS
000081: 04,2000                        MIDDGIM            EQUALS
000082:
000083: 04,2000                                           BNKSUM   04
000084:
000085: 05,2000                                           BANK     5
000086: 05,2000                        FRANDRES           EQUALS
000087: 05,2000                        DOWNTELM           EQUALS
000088: 05,2000                        DAPMASS            EQUALS
000089: 05,2000                        CDHTAG             EQUALS
000090: 05,2000                                           BNKSUM   05
000091:
000092:                                                                                                  #  MODULE 2 CONTAINS BANKS 6 THROUGH 13
000093:
000094: 06,2000                                           BANK     6
000095: 06,2000                        IMUCOMP            EQUALS
000096: 06,2000                        T4RUP              EQUALS
000097: 06,2000                        IMUCAL2            EQUALS
000098: 06,2000                        CSIPROG            EQUALS
000099: 06,2000                                           BNKSUM   06
000100:
000101: 07,2000                                           BANK     7
000102: 07,2000                        SXTMARKE           EQUALS
000103: 07,2000                        R02                EQUALS
000104: 07,2000                        MODESW             EQUALS
000105: 07,2000                        XANG               EQUALS
000106: 07,2000                        KEYRUPT            EQUALS
000107: 07,2000                        CSIPROG6           EQUALS
000108: 07,2000                                           BNKSUM   07
000109:
000110: 10,2000                                           BANK     10
000111: 10,2000                        DISPLAYS           EQUALS
000112: 10,2000                        PHASETAB           EQUALS
000113: 10,2000                        COMGEOM2           EQUALS
000114: 10,2000                        SXTMARK1           EQUALS
000115: 10,2000                        P60S4              EQUALS
000116: 10,2000                        OPTDRV             EQUALS
000117: 10,2000                        CSIPROG8           EQUALS
000118: 10,2000                                           BNKSUM   10
000119:
000120: 11,2000                                           BANK     11
000121: 11,2000                        ORBITAL            EQUALS
000122: 11,2000                        ORBITAL1           EQUALS                                         #  CONSTANTS
000123:


000125:
000126: 11,2000                        INTVEL             EQUALS
000127: 11,2000                        S52/2              EQUALS
000128: 11,2000                        CSIPROG5           EQUALS
000129: 11,2000                        INTINIT1           EQUALS
000130: 11,2000                                           BNKSUM   11
000131:
000132: 12,2000                                           BANK     12
000133: 12,2000                        CONICS             EQUALS
000134: 12,2000                        CSIPROG2           EQUALS
000135: 12,2000                        CSI/CDH2           EQUALS
000136: 12,2000                        MODCHG2            EQUALS
000137: 12,2000                                           BNKSUM   12
000138:
000139: 13,2000                                           BANK     13
000140: 13,2000                        P76LOC             EQUALS
000141: 13,2000                        LATLONG            EQUALS
000142: 13,2000                        INTINIT            EQUALS
000143: 13,2000                        SR52/1             EQUALS
000144: 13,2000                        ORBITAL2           EQUALS
000145: 13,2000                        CDHTAGS            EQUALS
000146: 13,2000                        E/PROG1            EQUALS
000147: 13,2000                        MODCHG3            EQUALS
000148: 13,2000                                           BNKSUM   13
000149:
000150:                                                                                                  #  SPACER
000151:
000152:                                                                                                  #           MODULE 3 CONTAINS BANKS 14 THROUGH 21
000153:
000154: 14,2000                                           BANK     14
000155: 14,2000                        STARTAB            EQUALS
000156: 14,2000                        RT53               EQUALS
000157: 14,2000                        P50S1              EQUALS
000158: 14,2000                        MEASINC2           EQUALS
000159: 14,2000                        CSI/CDH3           EQUALS
000160: 14,2000                                           BNKSUM   14
000161:
000162: 15,2000                                           BANK     15
000163: 15,2000                        P50S               EQUALS
000164: 15,2000                        ETRYDAP            EQUALS
000165: 15,2000                        S52/3              EQUALS
000166: 15,2000                                           BNKSUM   15
000167:
000168: 16,2000                                           BANK     16
000169: 16,2000                        P40S1              EQUALS
000170:


000172:
000173: 16,2000                        DAPROLL            EQUALS
000174: 16,2000                        P50S2              EQUALS
000175: 16,2000                        P23S1              EQUALS
000176: 16,2000                        RTE2               EQUALS
000177: 16,2000                                           BNKSUM   16
000178:
000179: 17,2000                                           BANK     17
000180: 17,2000                        DAPS4              EQUALS
000181: 17,2000                        DAPS5              EQUALS
000182: 17,2000                        DAPS7              EQUALS
000183: 17,2000                        P50S3              EQUALS
000184: 17,2000                                           BNKSUM   17
000185:
000186: 20,2000                                           BANK     20
000187: 20,2000                        DAPS6              EQUALS
000188: 20,2000                        DAPS1              EQUALS
000189: 20,2000                        DAPS2              EQUALS
000190: 20,2000                        MANUSTUF           EQUALS
000191: 20,2000                        R36CM              EQUALS
000192: 20,2000                        VAC5LOC            EQUALS
000193: 20,2000                                           BNKSUM   20
000194:
000195: 21,2000                                           BANK     21
000196: 21,2000                        DAPS3              EQUALS
000197: 21,2000                        MYSUBS             EQUALS
000198: 21,2000                        KALCMON3           EQUALS
000199: 21,2000                                           BNKSUM   21
000200:
000201:                                                                                                  #  MODULE 4 CONTAINS BANKS 22 THROUGH 27
000202:
000203: 22,2000                                           BANK     22
000204: 22,2000                        RTBCODES           EQUALS
000205: 22,2000                        RTBCODE1           EQUALS
000206: 22,2000                        DAPS8              EQUALS
000207: 22,2000                        APOPERI            EQUALS
000208: 22,2000                        P40S5              EQUALS
000209: 22,2000                        KALCMON2           EQUALS
000210: 22,2000                        KALCMON1           EQUALS
000211: 22,2000                        CSIPROG3           EQUALS
000212: 22,2000                                           BNKSUM   22
000213:


000215:
000216: 23,2000                                           BANK     23
000217: 23,2000                        P20S2              EQUALS
000218: 23,2000                        INFLIGHT           EQUALS
000219: 23,2000                        COMGEOM1           EQUALS
000220: 23,2000                        POWFLITE           EQUALS
000221: 23,2000                        POWFLIT1           EQUALS
000222: 23,2000                        RENDGUID           EQUALS
000223: 23,2000                        POWFLIT2           EQUALS
000224: 23,2000                        R30LOC             EQUALS
000225: 23,2000                        P11FOUR            EQUALS
000226: 23,2000                        CSIPROG4           EQUALS
000227: 23,2000                                           BNKSUM   23
000228:
000229: 24,2000                                           BANK     24
000230: 24,2000                        LOADDAP            EQUALS
000231: 24,2000                        P40S               EQUALS
000232: 24,2000                        CSIPROG7           EQUALS
000233: 24,2000                                           BNKSUM   24
000234:
000235: 25,2000                                           BANK     25
000236: 25,2000                        REENTRY            EQUALS
000237: 25,2000                        CDHTAG1            EQUALS
000238: 25,2000                                           BNKSUM   25
000239:
000240: 26,2000                                           BANK     26
000241: 26,2000                        INTPRET1           EQUALS
000242: 26,2000                        REENTRY1           EQUALS
000243: 26,2000                        P60S               EQUALS
000244: 26,2000                        P60S1              EQUALS
000245: 26,2000                        P60S2              EQUALS
000246: 26,2000                        P60S3              EQUALS
000247: 26,2000                        PLANTIN            EQUALS                                         #  LUNAR ROT
000248: 26,2000                        EPHEM              EQUALS
000249: 26,2000                        P05P06             EQUALS
000250: 26,2000                        26P50S             EQUALS
000251: 26,2000                                           BNKSUM   26
000252:
000253: 27,2000                                           BANK     27
000254: 27,2000                        TOF-FF             EQUALS
000255: 27,2000                        TOF-FF1            EQUALS
000256: 27,2000                        MANUVER            EQUALS
000257: 27,2000                        MANUVER1           EQUALS
000258:


000260:
000261: 27,2000                        VECPT              EQUALS
000262: 27,2000                        UPDATE1            EQUALS
000263: 27,2000                        UPDATE2            EQUALS
000264: 27,2000                        R22S1              EQUALS
000265: 27,2000                        P60S5              EQUALS
000266: 27,2000                        P40S2              EQUALS
000267: 27,2000                                           BNKSUM   27
000268:
000269:                                                                                                  #  MODULE 5 CONTAINS BANKS 30 THROUGH 35
000270:
000271: 30,2000                                           BANK     30
000272: 30,2000                        IMUSUPER           EQUALS
000273: 30,2000                        LOWSUPER           EQUALS
000274: 30,2000                        FCSTART            EQUALS                                         #  STANDARD LOCATION FOR THIS. (FOR EXTVB)
000275: 30,2000                        LOPC               EQUALS
000276: 30,2000                        P20S1              EQUALS
000277: 30,2000                        P20S6              EQUALS
000278: 30,2000                        P40S3              EQUALS
000279: 30,2000                        R35A               EQUALS
000280: 30,2000                                           BNKSUM   30
000281:
000282: 31,2000                                           BANK     31
000283: 31,2000                        R35                EQUALS
000284: 31,2000                        RT23               EQUALS
000285: 31,2000                        P30S1A             EQUALS
000286: 31,2000                        R34                EQUALS
000287: 31,2000                        CDHTAG2            EQUALS
000288: 31,2000                        CSIPROG9           EQUALS
000289: 31,2000                        R31                EQUALS
000290: 31,2000                        P22S               EQUALS
000291: 31,2000                        RTE3               EQUALS
000292: 31,2000                                           BNKSUM   31
000293:
000294: 32,2000                                           BANK     32
000295: 32,2000                        MSGSCAN1           EQUALS
000296: 32,2000                        RTE                EQUALS
000297: 32,2000                        DELRSPL1           EQUALS
000298: 32,2000                        IMUCAL3            EQUALS
000299: 32,2000                                           BNKSUM   32
000300:
000301: 33,2000                                           BANK     33
000302: 33,2000                        TESTLEAD           EQUALS
000303:


000305:
000306: 33,2000                        IMUCAL             EQUALS
000307: 33,2000                                           BNKSUM   33
000308:
000309: 34,2000                                           BANK     34
000310: 34,2000                        P11ONE             EQUALS
000311: 34,2000                        P20S3              EQUALS
000312: 34,2000                        P20S4              EQUALS
000313: 34,2000                        RTECON             EQUALS
000314: 34,2000                                           BNKSUM   34
000315:
000316: 35,2000                                           BANK     35
000317: 35,2000                        RTECON1            EQUALS
000318: 35,2000                        CSI/CDH            EQUALS
000319: 35,2000                        P30S1              EQUALS
000320: 35,2000                        P30S               EQUALS
000321: 35,2000                        P17S1              EQUALS
000322: 35,2000                        MEASINC3           EQUALS
000323: 35,2000                        INTINIT2           EQUALS
000324: 35,2000                                           BNKSUM   35
000325:
000326:                                                                                                  #  MODULE 6 CONTAINS BANKS 36 THROUGH 43
000327:
000328: 36,2000                                           BANK     36
000329: 36,2000                        MEASINC            EQUALS
000330: 36,2000                        MEASINC1           EQUALS
000331: 36,2000                        P17S               EQUALS
000332: 36,2000                        RTE1               EQUALS
000333: 36,2000                        S3435LOC           EQUALS
000334: 36,2000                                           BNKSUM   36
000335:
000336: 37,2000                                           BANK     37
000337: 37,2000                        P20S               EQUALS
000338: 37,2000                        BODYATT            EQUALS
000339: 37,2000                        RENDEZ             EQUALS
000340: 37,2000                        SERVICES           EQUALS
000341: 37,2000                        P11TWO             EQUALS
000342: 37,2000                        CDHTAG3            EQUALS
000343: 37,2000                                           BNKSUM   37
000344:
000345: 40,2000                                           BANK     40
000346: 40,2000                        PINSUPER           EQUALS
000347:


000349:
000350: 40,2000                        SELFSUPR           EQUALS
000351: 40,2000                        PINBALL1           EQUALS
000352: 40,2000                        R36CM1             EQUALS
000353: 40,2000                                           BNKSUM   40
000354:
000355: 41,2000                                           BANK     41
000356: 41,2000                        PINBALL2           EQUALS
000357: 41,2000                        R36LM              EQUALS
000358: 41,2000                                           BNKSUM   41
000359:
000360: 42,2000                                           BANK     42
000361: 42,2000                        SBAND              EQUALS
000362: 42,2000                        PINBALL3           EQUALS
000363: 42,2000                        EXTVBS             EQUALS
000364: 42,2000                        R36LM1             EQUALS
000365: 42,2000                                           BNKSUM   42
000366:
000367: 43,2000                                           BANK     43
000368: 43,2000                        SELFCHEC           EQUALS
000369: 43,2000                        EXTVERBS           EQUALS
000370: 43,2000                                           BNKSUM   43
000371:
000372: 43,2000  26,3334               HI6ZEROS           EQUALS   ZEROVECS                              #  ZERO VECTOR ALWAYS IN HIGH MEMORY
000373: 43,2000  04,3565               LO6ZEROS           EQUALS   ZEROVEC                               #  ZERO VECTOR ALWAYS IN LOW MEMORY
000374: 43,2000  26,3332               HIDPHALF           EQUALS   UNITX
000375: 43,2000  04,3563               LODPHALF           EQUALS   XUNIT
000376: 43,2000  26,3324               HIDP1/4            EQUALS   DP1/4TH
000377: 43,2000  04,3611               LODP1/4            EQUALS   D1/4                                  #  2DEC .25
000378: 43,2000  26,3332               HIUNITX            EQUALS   UNITX
000379: 43,2000  26,3330               HIUNITY            EQUALS   UNITY
000380: 43,2000  26,3326               HIUNITZ            EQUALS   UNITZ
000381: 43,2000  04,3563               LOUNITX            EQUALS   XUNIT                                 #  2DEC .5
000382: 43,2000  04,3561               LOUNITY            EQUALS   YUNIT                                 #  2DEC 0
000383: 43,2000  04,3557               LOUNITZ            EQUALS   ZUNIT                                 #  2DEC 0
000384: 43,2000  11,3763               3/4LOWDP           EQUALS   3/4                                   #  2DEC 3.0 B-2
000385:
000386: 43,2000  30,2000                                  SBANK=   LOWSUPER
000387:
000388:                                                                                                  #  ROPE SPECIFIC ASSIGNS OBVIATING NEED TO CHECK COMPUTER FLAG IN DETVRUZVING INTEGRATION AREA ENTRIES
000389:
000390: 43,2000  13,3105               OTHPREC            EQUALS   LEMPREC
000391: 43,2000  13,2760               ATOPOTH            EQUALS   ATOPLEM
000392: 43,2000  13,2705               ATOPTHIS           EQUALS   ATOPCSM
000393: 43,2000  0000173               MOONTHIS           EQUALS   CMOONFLG
000394:


000396:
000397: 43,2000  0000174               MOONOTH            EQUALS   LMOONFLG
000398: 43,2000  13,2720               MOVATHIS           EQUALS   MOVEACSM
000399: 43,2000  31,2032               STATEST            EQUALS   V83CALL                               #  * TEMPORARY
000400: 43,2000  13,3071               THISPREC           EQUALS   CSMPREC
000401: 43,2000  26,3332               THISAXIS           =        UNITX
000402: 43,2000     5054               ERASID             EQUALS   LOW10                                 #  DOWNLINK ERASABLE DUMP ID
000403: 43,2000     6214               DELAYNUM           EQUALS   THREE
000404:
000405:                                                                                                  # ****************************************************************************************************************
000406:
000407:                                                                                                  #  THE FOLLOWING ECADRS ARE DEFINED TO FACILITATE EBANK SWITCHING.  THEY ALSO MAKE IT EASIER FOR
000408:                                                                                                  #  ERASABLE CONTROL TO REARRANGE ERASABLE MEMORY WITHOUT DISRUPTING THE PROGRAMS WHICH SET EBANKS.
000409:                                                                                                  #  PRIOR TO ROPE RELEASE FIXED MEMORY CAN BE SAVED BY SETTING EACH EBXXXX =EBANKX (X=4,5,6,7).  EBANKX OF COURSE
000410:                                                                                                  #  WILL BE THE BANK WHERE THE ERASABLES REFERENCED IN EBXXXX WILL BE STORED.
000411:
000412: 07,2000                                           BANK     7
000413: 07,2000  E7,1674                                  EBANK=   MARKDOWN
000414: 07,2000           03674        EBMARKDO           ECADR    MARKDOWN
000415: 07,2001  E7,1725                                  EBANK=   MRKBUF1
000416: 07,2001           03725        EBMRKBUF           ECADR    MRKBUF1
000417:
000418: 24,2000                                           BANK     24
000419: 24,2000  E7,1431                                  EBANK=   DVCNTR
000420: 24,2000           03431        EBDVCNTR           ECADR    DVCNTR
000421: 24,2001  E7,1672                                  EBANK=   P40TMP
000422: 24,2001           03672        EBP40TMP           ECADR    P40TMP
000423:
000424: 34,2000                                           BANK     34
000425: 34,2000  E7,1431                                  EBANK=   DVCNTR
000426: 34,2000           03431        EBDVCNT            ECADR    DVCNTR
000427: 34,2001  E5,1426                                  EBANK=   QPLACES
000428: 34,2001           02426        EBQPLACE           ECADR    QPLACES
000429:
000430: 37,2000                                           BANK     37
000431: 37,2000     1231                                  EBANK=   RN1
000432: 37,2000           01231        EBRN1              ECADR    RN1
000433:
000434:                                                                                                  # ****************************************************************************************************************
000435:


End of include-file TAGS_FOR_RELATIVE_SETLOC_AND_BLANK_BANK_CARDS.agc.  Parent file is MAIN.agc


