
Source Code


000002:                                                                                                  ## Copyright:   Public domain.
000003:                                                                                                  ## Filename:    TIME_OF_FREE_FALL.agc
000004:                                                                                                  ## Purpose:     Part of the source code for Colossus 2A, AKA Comanche 055.
000005:                                                                                                  ##              It is part of the source code for the Command Module's (CM)
000006:                                                                                                  ##              Apollo Guidance Computer (AGC), for Apollo 11.
000007:                                                                                                  ## Assembler:   yaYUL
000008:                                                                                                  ## Contact:     Ron Burkey <info@sandroid.org>.
000009:                                                                                                  ## Website:     www.ibiblio.org/apollo.
000010:                                                                                                  ## Pages:       1373-1388
000011:                                                                                                  ## Mod history: 2009-05-10 SN   (Sergio Navarro). Started adapting
000012:                                                                                                  ##                              from the Colossus249/ file of the same
000013:                                                                                                  ##                              name, using Comanche055 page images.
000014:                                                                                                  ##              2010-08-29 JL   Fixed indentation, whitespace.
000015:                                                                                                  ##
000016:                                                                                                  ## This source code has been transcribed or otherwise adapted from digitized
000017:                                                                                                  ## images of a hardcopy from the MIT Museum.  The digitization was performed
000018:                                                                                                  ## by Paul Fjeld, and arranged for by Deborah Douglas of the Museum.  Many
000019:                                                                                                  ## thanks to both.  The images (with suitable reduction in storage size and
000020:                                                                                                  ## consequent reduction in image quality as well) are available online at
000021:                                                                                                  ## www.ibiblio.org/apollo.  If for some reason you find that the images are
000022:                                                                                                  ## illegible, contact me at info@sandroid.org about getting access to the
000023:                                                                                                  ## (much) higher-quality images which Paul actually created.
000024:                                                                                                  ##
000025:                                                                                                  ## Notations on the hardcopy document read, in part:
000026:                                                                                                  ##
000027:                                                                                                  ##    Assemble revision 055 of AGC program Comanche by NASA
000028:                                                                                                  ##    2021113-051.  10:28 APR. 1, 1969
000029:                                                                                                  ##
000030:                                                                                                  ##    This AGC program shall also be referred to as
000031:                                                                                                  ##            Colossus 2A
000032:


000034:                                                                                                  #  THE TFF SUBROUTINES MAY BE USED IN EITHER EARTH OR MOON CENTERED COORDINATES.  THE TFF ROUTINES NEVER
000035:                                                                                                  #  KNOW WHICH ORIGIN APPLIES.  IT IS THE USER WHO KNOWS, AND WHO SUPPLIES RONE, VONE, AND 1/SQRT(MU) AT THE
000036:                                                                                                  #  APPROPIRATE SCALE LEVEL FOR THE PROPER PRIMARY BODY.
000037:
000038:                                                                                                  #        EARTH ORIGIN    POSITION        -29     METERS
000039:                                                                                                  #                        VELOCITY        -7      METERS/CENTISECOND
000040:                                                                                                  #                        1/SQRT(MU)      +17     SQRT(CS SQ/METERS CUBED)
000041:
000042:                                                                                                  #        MOON ORIGIN     POSITION        -27     METERS
000043:                                                                                                  #                        VELOCITY        -5      METERS/CENTISECONDS
000044:                                                                                                  #                        1/SQRT(MU)      +14     SQRT(CS SQ/METERS CUBED)
000045:
000046:                                                                                                  #  ALL DATA PROVIDED TO AND RECEIVED FROM ANY TFF SUBROUTINE WILL BE AT ONE OF THE LEVELS ABOVE.  IN ALL CASES,
000047:                                                                                                  #  THE FREE FALL TIME IS RETURNED IN CENTISECONDS AT (-28).  PROGRAM TFF/CONIC WILL GENERATE VONE/RTMU AND
000048:                                                                                                  #  LEAVE IT IN VONE' AT (+10) IF EARTH ORIGIN AND (+9) IF MOON ORIGIN.
000049:
000050:                                                                                                  #  THE USER MUST STORE THE STATE VECTOR IN RONE, VONE, AND MU IN THE FORM 1/SQRT(MU) IN TFF/RTMU
000051:                                                                                                  #  AT THE PROPER SCALE BEFORE CALLING TFF/CONIC.  SINCE RONE, VONE ARE IN THE EXTENDED VERB STORAGE AREA,
000052:                                                                                                  #  THE USER MUST ALSO LOCK OUT THE EXTENDED VERBS, AND RELEASE THEM WHEN FINISHED.
000053:
000054:                                                                                                  #  PROGRAMS CALC/TFF AND CALC/TPER ASSUME THAT THE TERMINAL RADIUS IS LESS THAN THE PRESENT
000055:                                                                                                  #  RADIUS.  THIS RESTRICTION CAN BE REMOVED BY A 15 W CODING CHANGE, BUT AT PRESENT IT IS NOT DEEMED NECESSARY.
000056:
000057:                                                                                                  #  THE FOLLOWING ERASABLE QUANTITIES ARE USED BY THE TFF ROUTINES, AND ARE LOCATED IN THE PUSH LIST.
000058:
000059:                                                                                                  #                                        BELOW   E:  IS USED FOR EARTH ORIGIN SCALE
000060:                                                                                                  #                                                M:  IS USED FOR MOON  ORIGIN SCALE
000061:
000062:                                                                                                  # TFFSW          =       119D    # BIT1  0 = CALCTFF             1 = CALCTPER
000063: 23,3772                        TFFDELQ            =        10D                                   #        Q2-Q1                   E: (-16)  M: (-15)
000064: 23,3772                        RMAG1              =        12D                                   #        ABVAL(RN)  M            E: (-29)  M: (-27)
000065:                                                                                                  # RPER           =       14D     #       PERIGEE RADIUS  M       E: (-29)  M: (-27)
000066: 23,3772                        TFFQ1              =        14D                                   #        R.V / SQRT(MUE)         E: (-16)  M: (-15)
000067:                                                                                                  # SDELF/2                        #       SIN(THETA) /2
000068: 23,3772                        CDELF/2            =        14D                                   #        COS(THETA) /2
000069:                                                                                                  # RAPO           =       16D     #       APOGEE RADIUS  M        E: (-29)  M: (-27)
000070: 23,3772                        NRTERM             =        16D                                   #        TERMINAL RADIUS  M      E: (-29+NR)
000071:                                                                                                  #                                          M: (-27+NR)
000072: 23,3772                        RTERM              =        18D                                   #        TERMINAL RADIUS  M      E: (-29)  M: (-27)
000073: 23,3772                        TFFVSQ             =        20D                                   #        -(V SQUARED/MU)  1/M    E: (20)   M: (18)
000074: 23,3772                        TFF1/ALF           =        22D                                   #        SEMI MAJ AXIS  M        E: (-22-2 NA)
000075:                                                                                                  #                                          M: (-20-2 NA)
000076: 23,3772                        TFFRTALF           =        24D                                   #        SQRT(ALFA)              E:(10+NA) M: (9+NA)
000077: 23,3772                        TFFALFA            =        26D                                   #        ALFA  1/M               E:(26-NR) M: (24-NR)
000078: 23,3772                        TFFNP              =        28D                                   #        SEMI LATUS RECTUM  M    E: (-38+2 NR)
000079:                                                                                                  #                                          M: (-36+2 NR)
000080: 23,3772                        TFF/RTMU           =        30D                                   #        1/SQRT(MU)              E: (17)   M: (14)
000081: 23,3772                        NRMAG              =        32D                                   #        PRESENT RADIUS  M       E: (-29+NR)
000082:                                                                                                  #                                          M: (-27+NR)
000083: 23,3772                        TFFX               =        34D
000084: 23,3772                        TFFTEM             =        36D                                   #        TEMPORARY


000086:                                                                                                  #                REGISTERS S1, S2 ARE UNTOUCED BY ANY TFF SUBROUTINE
000087:                                                                                                  #                INDEX REGISTERS X1, X2 ARE USED BY ALL TFF SUBROUTINES.  THEY ARE ESTAB-
000088:                                                                                                  #                LISHED IN TFF/CONIC AND MUST BE PRESERVED BETWEEN CALLS TO SUBSEQUENT
000089:                                                                                                  #                SUBROUTINES.
000090:                                                                                                  #                -NR                             C(X1) = NORM COUNT OF RMAG
000091:                                                                                                  #                -NA                             C(X2) = NORM COUNT OF SQRT(ABS(ALFA))
000092:


000094:                                                                                                  #  SUBROUTINE NAME:  TFFCONIC                    DATE:  01.29.67
000095:                                                                                                  #  MOD NO:  0                                    LOG SECTION:  TIME OF FREE FALL
000096:                                                                                                  #  MOD BY:  RR BAIRNSFATHER
000097:                                                                                                  #  MOD NO:  1    MOD BY:  RR BAIRNSFATHER        DATE: 11 APR 67
000098:                                                                                                  #  MOD NO:  2    MOD BY:  RR BAIRNSFATHER        DATE: 21 NOV 67         ADD MOON MU.
000099:                                                                                                  #  MOD NO:  3    MOD BY:  RR BAIRNSFATHER        DATE: 21 MAR 68         ACCEPT DIFFERENT EARTH/MOON SCALES
000100:
000101:                                                                                                  #  FUNCTIONAL DESCRIPTION:  THIS SUBROUTINE IS CALLED TO COMPUTE THOSE CONIC PARAMETERS REQUIRED BY THE TFF
000102:                                                                                                  #        SUBROUTINES AND TO ESTABLISH THEM IN THE PUSH LIST AREA.  THE PARAMETERS ARE LISTED UNDER OUTPUT.
000103:                                                                                                  #        THE EQUATIONS ARE:
000104:                                                                                                  #                _   __ __
000105:                                                                                                  #                H = RN*VN                       ANGULAR MOMENTUM
000106:                                                                                                  #                      _ _
000107:                                                                                                  #                LCP = H.H / MU                  SEMI LATUS RECTUM
000108:                                                                                                  #                              __ __
000109:                                                                                                  #                ALFA = 2/RN - VN.VN / MU        RECIPROCAL SEMI MAJ AXIS, SIGNED
000110:
000111:                                                                                                  #        AND ALFA IS POS FOR ELLIPTIC ORBITS
000112:                                                                                                  #                      0 FOR PARABOLIC ORBITS
000113:                                                                                                  #                    NEG FOR HYPERBOLIC ORBITS.
000114:                                                                                                  #        SUBROUTINE ALSO COMPUTES AND SAVES RMAG.
000115:
000116:                                                                                                  #  CALLING SEQUENCE:
000117:                                                                                                  #        TFFCONIC EXPECTS CALLER TO ENTER WITH CORRECT GRAVITATIONAL CONSTANT IN MPAC, IN THE FORM
000118:                                                                                                  #        1/SQRT(MU).  THE PROGRAM WILL SAVE IN TFF/RTMU.  THE SCALE IS DETERMINED BY WHETHER EARTH OR MOON
000119:                                                                                                  #        ORIGIN IS USED.  THE CALLER MUST LOCK OUT THE EXTENDED VERBS BEFORE PROVIDING STATE VECTOR IN RONE,
000120:                                                                                                  #        VONE AT PROPER SCALE.  THE EXTENDED VERBS MUST BE RESTORED WHEN THE CALLER IS FINISHED USING THE
000121:                                                                                                  #        TFF ROUTINES.
000122:
000123:                                                                                                  #        ENTRY POINT TFFCONMU EXPECTS THAT TFF/RTMU IS ALREADY LOADED.
000124:
000125:                                                                                                  #        TO SPECIFY MU:  DLOAD   CALL            # IF MU ALREADY STORED:         CALL
000126:                                                                                                  #                                YOURMU          # 1/RTMU E:(17) M:(14)                  TFFCONMU
000127:                                                                                                  #                                TFFCONIC
000128:                                                                                                  #        PUSHLOC = PDL+0, ARBITRARY IF LEQ 18D
000129:
000130:                                                                                                  #  SUBROUTINES CALLED:  NONE
000131:
000132:                                                                                                  #  NORMAL EXIT MODES:  RVQ
000133:
000134:                                                                                                  #  ALARMS:  NONE
000135:
000136:                                                                                                  #  OUTPUT:       THE FOLLOWING ARE STORED IN THE PUSH LIST AREA.
000137:                                                                                                  #                RMAG1           E:(-29) M:(-27)         M  RN, PRESENT RADIUS LENGTH.
000138:                                                                                                  #                NRMAG           E:(-29+NR)              M  RMAG, NORMALIZED
000139:                                                                                                  #                                M:(-27+NR)
000140:                                                                                                  #                X1                                      -NR, NORM COUNT
000141:                                                                                                  #                TFFNP           E:(-38+2NR)             M  LCP, SEMI LATUS RECTUM, WEIGHTED BY NR.  FOR VGAMCALC.
000142:                                                                                                  #                                M:(-36+2NR)
000143:                                                                                                  #                TFF/RTMU        E:(17) M:(14)           1/SQRT(MU)
000144:                                                                                                  #                TFFVSQ          E:(20) M:(18)           1/M  -(V SQ/MU):  PRESENT VELOCITY, NORMLIZED.  FOR VGAMCALC
000145:                                                                                                  #                TFFALFA         E:(26-NR)               1/M  ALFA, WEIGHTED BY NR
000146:                                                                                                  #                                M:(24-NR)
000147:                                                                                                  #                TFFRTALF        E:(10+NA)               SQRT(ALFA), NORMALIZED
000148:                                                                                                  #                                M:(9+NA)


000150:                                                                                                  #                X2                                      -NA, NORM COUNT
000151:                                                                                                  #                TFF1/ALF        E:(-22-2NA)             SIGNED SEMI MAJ AXIS, WEIGHTED BY NA
000152:                                                                                                  #                                M:(-20-2NA)
000153:                                                                                                  #                PUSHLOC AT PDL+0
000154:
000155:                                                                                                  #        THE FOLLOWING IS STORED IN GENERAL ERASABLE
000156:                                                                                                  #                VONE'           E:(10) M:(9)            V/RT(MU), NORMALIZED VELOCITY
000157:
000158:                                                                                                  #  ERASABLE INITIALIZATION REQUIRED:
000159:                                                                                                  #                RONE            E:(-29) M:(-27)         M  STATE VECTOR         LEFT BY CALLER
000160:                                                                                                  #                VONE            E:(-7) M:(-5)           M/CS  STATE VECTOR      LEFT BY CALLER
000161:                                                                                                  #                TFF/RTMU        E:(17) M:(14)           1/RT(CS SQ/M CUBE)      IF ENTER VIA TFFCONMU.
000162:
000163:                                                                                                  #  DEBRIS:       QPRET           PDL+0 ... PDL+3
000164:
000165: 33,3776                                           BANK     33
000166: 27,2000                                           SETLOC   TOF-FF
000167: 27,2000                                           BANK
000168:
000169: 27,2757                                           COUNT*   $$/TFF
000170:
000171: 27,2757           00037        TFFCONIC           STORE    TFF/RTMU                              #  1/SQRT(MU)    E:(17) M:(14)
000172:
000173: 27,2760           53575        TFFCONMU           VLOAD    UNIT                                  #  COME HERE WITH TFFRTMU LOADED.
000174: 27,2761           02327                                    RONE                                  #  SAVED RN.  M  E:(-29) M:(-27)
000175: 27,2762           77725                           PDDL                                           #  UR/2 TO PDL+0, +5
000176: 27,2763           00045                                    36D                                   #  MAGNITUDE
000177: 27,2764           00015                           STORE    RMAG1                                 #  M  E:(-29) M:(-27)
000178:
000179: 27,2765           77701                           NORM
000180: 27,2766           00047                                    X1                                    #  -NR
000181: 27,2767           24041                           STOVL    NRMAG                                 #  RMAG  M  E:(-29+NR) M:(-27+NR)
000182: 27,2770           02335                                    VONE                                  #  SAVED VN.  M/CS  E:(-7) M:(-5)
000183: 27,2771           77761                           VXSC
000184: 27,2772           00037                                    TFF/RTMU                              #  E:(17) M:(14)
000185: 27,2773           02372                           STORE    VONE'                                 #  VN/SQRT(MU)  E:(10) M:(9)
000186:
000187: 27,2774           47361                           VXSC     VXV
000188: 27,2775           00041                                    NRMAG                                 #  E:(-29+NR) M:(-27+NR)
000189:                                                                                                  #  UR/2 FROM PDL
000190: 27,2776           47572                           VSL1     VSQ                                   #  BEFORE:  E:(-19+NR) M:(-18+NR)
000191: 27,2777           14035                           STODL    TFFNP                                 #  LC P  M  E:(-38+2NR) M:(-36+2NR)
000192:                                                                                                  #  SAVE ALSO FOR VGAMCALC
000193: 27,3000           15325                                    TFF1/4
000194: 27,3001           63271                           DDV      PDVL                                  #  (2/RMAG)  1/M  E:(26-NR) M:(24-NR)
000195: 27,3002           00041                                    NRMAG                                 #  RMAG  M  E:(-29+NR) M:(-27+NR)
000196: 27,3003           02372                                    VONE'                                 #  SAVED VN.  E:(10) M:(9)
000197: 27,3004           57436                           VSQ      DCOMP                                 #  KEEP MPAC+2 HONEST FOR SQRT.
000198: 27,3005           00025                           STORE    TFFVSQ                                #  -(V SQ/MU)  E:(20) M:(18)
000199:                                                                                                  #  SAVE FOR VGAMCALC
000200: 27,3006           43257                           SR*      DAD


000202: 27,3007           20573                                    0          -6,1                       #  GET -VSQ/MU  E:(26-NR) M:(24-NR)
000203: 27,3010           77626                           STADR
000204:                                                                                                  #  2/RMAG  FROM PDL+2
000205: 27,3011           77744                           STORE    TFFALFA                               #  ALFA  1/M  E:(26-NR) M:(24-NR)
000206: 27,3012           41457                           SL*      PUSH                                  #  TEMP SAVE ALFA  E:(20) M:(18)
000207: 27,3013           20173                                    0          -6,1
000208: 27,3014           75446                           ABS      SQRT                                  #  E:(10) M:(9)
000209: 27,3015           77701                           NORM
000210: 27,3016           00050                                    X2                                    #  X2 = -NA
000211: 27,3017           00031                           STORE    TFFRTALF                              #  SQRT( ABS(ALFA) )  E:(10+NA) M:(9+NA)
000212: 27,3020           75316                           DSQ      SIGN                                  #  NOT SO ACCURATE, BUT OK
000213:                                                                                                  #  ALFA FROM PDL+2  E:(20) M:(18)
000214: 27,3021           55254                           BZE      BDDV                                  #  SET 1/ALFA =0, TO SHOW SMALL ALFA
000215: 27,3022           57024                                    +2
000216: 27,3023           15325                                    TFF1/4
000217: 27,3024           00027                 +2        STORE    TFF1/ALF                              #  1/ALFA  E:(-22-2NA) M:(-20-2NA)
000218: 27,3025           77616        DUMPCNIC           RVQ
000219:                                                                                                  #                        39 W


000221:                                                                                                  #  SUBROUTINE NAME:  TFFRP/RA                    DATE: 01.17.67
000222:                                                                                                  #  MOD NO:  0                                    LOG SECTION:  TIME OF FREE FALL
000223:                                                                                                  #  MOD NO:  1    MOD BY:  RR BAIRNSFATHER        DATE: 11 APR 67
000224:                                                                                                  #  MOD NO:  2    MOD BY:  RR BAIRNSFATHER        DATE: 21 MAR 68         ACCEPT DIFFERENT EARTH/MOON SCALES
000225:                                                                                                  #                                                                        ALSO IMPROVE ACCURACY OF RAPO.
000226:
000227:                                                                                                  #  FUNCTIONAL DESCRIPTION:  USED BY CALCTPER AND TFF DISPLAYS TO CALCULATE PERIGEE RADIUS AND ALSO
000228:                                                                                                  #        APOGEE RADIUS FOR A GENERAL CONIC.
000229:                                                                                                  #        PROGRAM GIVES PERIGEE RADIUS AS         APOGEE RADIUS IS GIVEN BY
000230:                                                                                                  #                RP = P/(1+E)                            RA = (1+E) / ALFA
000231:                                                                                                  #        WHERE    2
000232:                                                                                                  #                E  = 1 - P ALFA
000233:                                                                                                  #        IF RA IS NEGATIVE OR SHOWS DIVIDE OVERFLOW, THEN RA = POSMAX BECAUSE
000234:                                                                                                  #                1. APOGEE RADIUS IS NOT MEANINGFUL FOR HYPERBOLA
000235:                                                                                                  #                2. APOGEE RADIUS IS NOT DEFINED FOR PARABOLA
000236:                                                                                                  #                3. APOGEE RADIUS EXCEEDS THE SCALING FOR ELLIPSE.
000237:
000238:                                                                                                  #        THIS SUBROUTINE REQUIRED THE SIGNED RECIPROCAL SEMI MAJ AXIS, ALFA, AND SEMI LATUS RECTUM AS DATA.
000239:
000240:                                                                                                  #  CALLING SEQUENCE:     CALL
000241:                                                                                                  #                                TFFRP/RA
000242:                                                                                                  #        PUSHLOC = PDL+0, ARBITRARY IF LEQ 10D
000243:                                                                                                  #        C(MPAC) UNSPECIFIED
000244:
000245:                                                                                                  #  SUBROUTINES CALLED:   NONE
000246:
000247:                                                                                                  #  NORMAL EXIT MODE:     RVQ
000248:                                                                                                  #        IF ELLIPSE, WITHIN NORMAL SCALING, RAPO IS CORRECT.
000249:                                                                                                  #        OTHERWISE, RAPO = POSMAX.
000250:
000251:                                                                                                  #  ALARMS:       NONE
000252:
000253:                                                                                                  #  OUTPUT:       STORED IN PUSH LIST AREA.  SCALE OF OUTPUT AGREES WITH DATA SUPPLIED TO TFF/CONIC.
000254:                                                                                                  #        RPER    E:(-29) M:(-27)         M       PERIGEE RADIUS          DESTROYED BY CALCTFF/CALCTPER, TFFTRIG.
000255:                                                                                                  #        RAPO    E:(-29) M:(-27)         M       APOGEE RADIUS           WILL BE DESTROYED BY CALCTFF/CALCTPER
000256:                                                                                                  #        PUSHLOC AT PDL+0
000257:
000258:                                                                                                  #  ERASABLE INITIALIZATION REQUIRED:
000259:                                                                                                  #        TFFALFA E:(26-NR)               M       1/SEMI MAJ AXIS LEFT BY TFFCONIC
000260:                                                                                                  #                M:(24-NR)
000261:                                                                                                  #        TFFNP   E:(-38+2NR)             M       LC P, SEMI LATUS RECTUM LEFT BY TFFCONIC
000262:                                                                                                  #                M:(-36+2NR)
000263:                                                                                                  #        X1                              -NR, NORM COUNT OF RMAG         LEFT BY TFFCONIC
000264:                                                                                                  #        X2                              -NA, NORM COUNT OF ALFA         LEFT BY TFFCONIC
000265:
000266:                                                                                                  #  DEBRIS:       QPRET, PDL+0 ... PDL+1
000267:


000269: 27,3026                        RAPO               =        16D                                   #  APOGEE RADIUS  M  E:(-29) M:(-27)
000270: 27,3026                        RPER               =        14D                                   #  PERIGEE RADIUS  M  E:(-29) M:(-27)
000271:
000272: 27,3026           41345        TFFRP/RA           DLOAD    DMP
000273: 27,3027           00033                                    TFFALFA                               #  ALFA  1/M  E:(26-NR) M:(24-NR)
000274: 27,3030           00035                                    TFFNP                                 #  LC P  M E:(-38+2NR) M:(-36+2NR)
000275: 27,3031           57457                           SR*      DCOMP                                 #  ALFA P (-12+NR)
000276: 27,3032           20571                                    0          -8D,1                      #  ALFA P (-4)
000277: 27,3033           51415                           DAD      ABS                                   #  (DCOMP GIVES VALID TP RESULT FOR SQRT)
000278:                                                                                                  #  (ABS PROTECTS SQRT IF E IS VERY NEAR 0)
000279: 27,3034           17366                                    DP2(-4)
000280: 27,3035           43366                           SQRT     DAD                                   #  E SQ = (1- P ALFA) (-4)
000281: 27,3036           15325                                    TFF1/4
000282: 27,3037           55206                           PUSH     BDDV                                  #  (1+E)  (-2)  TO PDL+0
000283: 27,3040           00035                                    TFFNP                                 #  LCP  M  E:(-38+2NR) M:(-36+2NR)
000284: 27,3041           53657                           SR*      SR*                                   #  (DOES SR THEN SL TO AVOID OVFL)
000285: 27,3042           20601                                    0,1                                   #  X1=-NR
000286: 27,3043           20572                                    0          -7,1                       #  (EFFECTIVE SL)
000287: 27,3044           14017                           STODL    RPER                                  #  PERIGEE RADIUS  M  E:(-29) M:(-27)
000288:                                                                                                  #  (1+E)  (-2)  FROM PDL+0
000289: 27,3045           41005                           DMP      BOVB
000290: 27,3046           00027                                    TFF1/ALF                              #  E:(-22-2NA) M:(-20-2NA)
000291: 27,3047           57352                                    TCDANZIG                              #  CLEAR OVFIND, IF ON.
000292: 27,3050           53654                           BZE      SL*
000293: 27,3051           57060                                    MAXRA                                 #  SET POSMAX IF ALFA=0
000294: 27,3052           57603                                    0          -5,2                       #  -5+NA
000295: 27,3053           40057                           SL*      BOV
000296: 27,3054           57576                                    0,2
000297: 27,3055           57060                                    MAXRA                                 #  SET POSMAX IF OVFL.
000298: 27,3056           77644                           BPL                                            #  CONTINUE WITH VALID RAPO.
000299: 27,3057           57062                                    +3
000300: 27,3060           77745        MAXRA              DLOAD                                          #  RAPO CALC IS NOT VALID.  SET RAPO =
000301: 27,3061           17372                                    NEARONE                               #  POSMAX AS A TAG.
000302: 27,3062           00021                 +3        STORE    RAPO                                  #  APOGEE RADIUS  M  E:(-29) M:(-27)
000303: 27,3063           77616        DUMPRPRA           RVQ
000304:                                                                                                  #                        30 W


000306:                                                                                                  #  SUBROUTINE NAME:  CALCTPER / CALCTFF          DATE:  01.29.67
000307:                                                                                                  #  MOD NO:  0                                    LOG SECTION:  TIME OF FREE FALL
000308:                                                                                                  #  MOD BY:  RR BAIRNSFATHER
000309:                                                                                                  #  MOD NO:  1    MOD BY:  RR BAIRNSFATHER        DATE: 21 MAR 67
000310:                                                                                                  #  MOD NO:  2    MOD BY:  RR BAIRNSFATHER        DATE: 14 APR 67
000311:                                                                                                  #  MOD BY:  3    MOD BY:  RR BAIRNSFATHER        DATE: 8 JUL 67          NEAR EARTH MUE AND NEG TFF (GONEPAST)
000312:                                                                                                  #  MOD BY:  4    MOD BY:  RR BAIRNSFATHER        DATE: 21 NOV 67         ADD VARIABLE MU.
000313:                                                                                                  #  MOD BY:  5    MOD BY:  RR BAIRNSFATHER        DATE: 21 MAR 68         ACCEPT DIFFERENT EARTH/MOON SCALES
000314:
000315:                                                                                                  #  FUNCTIONAL DESCRIPTION:  PROGRAM CALCULATES THE FREE-FALL TIME OF FLIGHT FROM PRESENT POSITION RN AND
000316:                                                                                                  #        VELOCITY VN TO A RADIUS LENGTH SPECIFIED BY RTERM, SUPPLIED BY THE USER.  THE POSITION VECTOR
000317:                                                                                                  #        RN MAY BE ON EITHER SIDE OF THE CONIC, BUT RTERM IS CONSIDERED ON THE INBOUND SIDE.
000318:                                                                                                  #        THE EQUATIONS ARE:
000319:
000320:                                                                                                  #                Q2 = -SQRT(RTERM (2-RTERM ALFA) - LCP)  (INBOUND SIDE)  LEQ +- LCE/SQRT(ALFA)
000321:                                                                                                  #                     __ __
000322:                                                                                                  #                Q1 = RN.VN / SQRT(MU)                                   LEQ +- LCE/SQRT(ALFA)
000323:
000324:                                                                                                  #                Z = NUM / DEN                                           LEQ +- 1/SQRT(ALFA)
000325:
000326:                                                                                                  #        WHERE, IF INBOUND
000327:                                                                                                  #                NUM = RTERM -RN                                         LEQ +- 2 LCE/ALFA
000328:                                                                                                  #                DEN = Q2+Q1                                             LEQ +- 2 LCE/SQRT(ALFA)
000329:
000330:                                                                                                  #        AND, IF OUTBOUND
000331:                                                                                                  #                NUM = Q2-Q1                                             LEQ +- 2 LCE/SQRT(ALFA)
000332:                                                                                                  #                DEN = 2 - ALFA (RTERM + RN).                            LEQ +- 2 LCE
000333:
000334:                                                                                                  #        IF      ALFA ZZ < 1.0           (FOR ALL CONICS EXCEPT ELLIPSES HAVING ABS(DEL ECC ANOM) G 90 DEG)
000335:                                                                                                  #        THEN    X = ALFA Z Z
000336:                                                                                                  #        AND     TFF = (RTERM +RN -2 ZZ T(X) ) Z/SQRT(MU)
000337:                                                                                                  #                EXCEPT  IF ALFA PNZ, AND IF TFF NEG,
000338:                                                                                                  #                THEN    TFF = 2 PI /(ALFA SQRT(ALFA)) + TFF
000339:                                                                                                  #        OR      IF ALFA ZZ GEQ 1.0      (FOR ELLIPSES HAVING ABS(DEL ECC ANOM) GEQ 90 DEG)
000340:                                                                                                  #        THEN    X = 1/ALFA Z Z
000341:                                                                                                  #        AND     TFF = (PI/SQRT(ALFA) -Q2 +Q1 +2(X T(X) -1) /ALFA Z) /ALFA SQRT(MU)
000342:                                                                                                  #        WHERE   T(X) IS A POLYNOMIAL APPROXIMATION TO THE SERIES
000343:                                                                                                  #                             2      3             2
000344:                                                                                                  #                1/3 - X/5 + X /7 - X /8 ...     (X  < 1.0)
000345:
000346:                                                                                                  #  CALLING SEQUENC:      TIME TO RTERM                   TIME TO PERIGEE
000347:                                                                                                  #                        CALL                            CALL
000348:                                                                                                  #                                CALCTFF                         CALCTPER
000349:                                                                                                  #                        C(MPAC) = TERMNL RAD M          C(MPAC) = PERIGEE RAD M
000350:                                                                                                  #        FOR EITHER, E:(-29) M:(-27)
000351:                                                                                                  #        FOR EITHER, PUSHLOC = PDL+0, ARBITRARY IF LEQ 8D.


000353:
000354:                                                                                                  #  SUBROUTINES CALLED:   T(X), VIA RTB
000355:
000356:                                                                                                  #  NORMAL EXIT MODE:     RVQ
000357:                                                                                                  #        HOWEVER, PROGRAM EXITS WITH ONE OF THE FOLLOWING VALUES FOR TFF (-28) CS IN MPAC.  USER MUST STORE.
000358:                                                                                                  #                A. TFF = FLIGHT TIME.  NORMAL CASE FOR POSITIVE FLIGHT TIME LESS THAN ONE ORBITAL PERIOD.
000359:                                                                                                  #                B. (THIS OPTION IS NO LONGER USED.)
000360:                                                                                                  #                C. TFF = POSMAX.  THIS INDICATES THAT THE CONIC FROM THE PRESENT POSITION WILL NOT RETURN TO
000361:                                                                                                  #                   THE SPECIFIED ALTITUDE.  ALSO INDICATES OUTBOUND PARABOLA OR HYPERBOLA.
000362:
000363:                                                                                                  #  OUTPUT:       C(MPAC)         (-28) CS        TIME OF FLIGHT, OR TIME TO PERIGEE
000364:                                                                                                  #                TFFX            (0)             X,                                      LEFT FOR ENTRY DISPLAY TFF ROUTINES
000365:                                                                                                  #                NRTERM          E:(-29+NR) M    RTERM, WEIGHTED BY NR                   LEFT FOR ENTRY DISPLAY TFF ROUTINES
000366:                                                                                                  #                                M:(-27+NR)
000367:                                                                                                  #                TFFTEM          E:(-59+2NR)     LCP Z Z SGN(SDELF)                      LEFT FOR ENTRY DISPLAY TFF ROUTINES
000368:                                                                                                  #                                M:(-55+2NR)     LCP /ALFA SGN(SDELF)                    LEFT FOR ENTRY DISPLAY TFF ROUTINES
000369:                                                                                                  #                NOTE:   TFFTEM = PDL 36D AND WILL BE DESTROYED BY .:UNIT:.
000370:                                                                                                  #                RMAG1           E:(-29) M:(-27) PDL 12 NOT TOUCHED.
000371:                                                                                                  #                TFFQ1           E:(-16) M:(-15) PDL 14D
000372:                                                                                                  #                TFFDELQ         E:(-16) M:(-15) PDL 10D
000373:                                                                                                  #                PUSHLOC AT PDL+0
000374:
000375:                                                                                                  #  ERASABLE INITIALIZATION REQUIRED:
000376:                                                                                                  #                RONE            E:(-29) M:(-27) M  STATE VECTOR                         LEFT BY USER
000377:                                                                                                  #                VONE'           E:(+10) M:(+9)  VN/SQRT(NU)                             LEFT BY TFF/CONIC
000378:                                                                                                  #                RMAG1           E:(-29) M:(-27) PRESENT RADIUS, M                       LEFT BY TFFCONIC
000379:                                                                                                  #                C(MPAC)         E:(-29) M:(-27) RTERM, TERMINAL RADIUS LENGTH, M        LEFT BY USER
000380:
000381:                                                                                                  #                THE FOLLOWING ARE STORED IN THE PUSH LIST AREA.
000382:                                                                                                  #                TFF/RTMU        E:(17) M:(14)   1/SQRT(MU)                              LEFT BY TFFCONIC.
000383:                                                                                                  #                NRMAG           E:(-29+NR)      M  RMAG, NORMALIZED                     LEFT BY TFFCONIC
000384:                                                                                                  #                                M:(-27+NR)
000385:                                                                                                  #                X1                              -NR, NORM COUNT                         LEFT BY TFFCONIC
000386:                                                                                                  #                TFFNP           E:(-38+2NR)     M  LCP, SEMI LATUS RECTUM, WEIGHT NR    LEFT BY TFFCONIC
000387:                                                                                                  #                                M:(-36+2N4)
000388:                                                                                                  #                TFFALFA         E:(26-NR)       1/M  ALFA, WEIGHT NR                    LEFT BY TFFCONIC
000389:                                                                                                  #                                M:(24-NR)
000390:                                                                                                  #                TFFRTALF        E:(10+NA)       SQRT(ALFA), NORMALIZED                  LEFT BY TFFCONIC
000391:                                                                                                  #                                M:(9+NA)
000392:                                                                                                  #                X2                              -NA, NORM COUNT                         LEFT BY TFFCONIC
000393:                                                                                                  #                TFF1/ALF        E:(-22-2NA)     SIGNED SEMIMAJ AXIS, WEIGHTED BY NA     LEFT BY TFFCONIC
000394:                                                                                                  #                                M:(-20-2NA)
000395:
000396:                                                                                                  #  DEBRIS:       QPRET, PDL+0 ... PDL+3
000397:                                                                                                  #                RTERM           E:(-29) M(-27)  RTERM, TERMINAL RADIUS LENGTH
000398:                                                                                                  #                RAPO            E:(-29) M(-27)  PDL 16D (=NRTERM)
000399:                                                                                                  #                RPER            E:(-29) M(-27)  PDL 14D (=TFFQ1)
000400:


000402: 27,3064           77614        CALCTPER           SETGO                                          #  ENTER WITH RPER IN MPAC
000403: 27,3065           03436                                    TFFSW
000404: 27,3066           57071                                    +3
000405: 27,3067           77614        CALCTFF            CLEAR                                          #  ENTER WITH RTERM IN MPAC
000406: 27,3070           03676                                    TFFSW
000407: 27,3071           00023                 +3        STORE    RTERM                                 #  E:(-29) M:(-27)
000408: 27,3072           77657                           SL*
000409: 27,3073           20201                                    0,1                                   #  X1=-NR
000410: 27,3074           00021                           STORE    NRTERM                                #  RTERM  E:(-29+NR) M:(-27+NR)
000411: 27,3075           44205                           DMP      BDSU
000412: 27,3076           00033                                    TFFALFA                               #  ALFA  E:(26-NR) M:(24-NR)
000413: 27,3077           15325                                    TFF1/4
000414: 27,3100           41206                           PUSH     DMP                                   #  (2-ALFA RTERM)  (-3)  TO PDL+0
000415: 27,3101           00021                                    NRTERM                                #  E:(-29+NR) M:(-27+NR)
000416: 27,3102           53725                           PDDL     SR*                                   #  RTERM(2-ALFA RTERM) TO PDL+2
000417:                                                                                                  #  E:(-32+NR) M:(-30+NR)
000418: 27,3103           00035                                    TFFNP                                 #  LC P  E:(-38+2NR) M:(-36+2NR)
000419: 27,3104           20573                                    0          -6,1                       #  X1 = -NR
000420: 27,3105           43276                           DCOMP    DAD                                   #  DUE TO SHIFTS, KEEP PRECISION FOR SQRT
000421:                                                                                                  #  RTERM(2-ALFA RTERM) FROM PDL +2
000422:                                                                                                  #  E:(-32+NR) M:(-30+NR)
000423: 27,3106           77657                           SR*                                            #  LEAVE  E:(-32) M:(-30)
000424: 27,3107           20601                                    0,1                                   #  X1 = -NR
000425: 27,3110           71214                           BOFF     DLOAD                                 #  CHECK TFF /TPER SWITCH
000426: 27,3111           03756                                    TFFSW
000427: 27,3112           57114                                    +2                                    #  IF TFF, CONTINUE
000428: 27,3113           15335                                    TFFZEROS                              #  IF TPER, SET Q2 = 0
000429: 27,3114           75440                 +2        BMN      SQRT                                  #  E:(-16) M:(-15)
000430: 27,3115           57247                                    MAXTFF1                               #  NO FREE FALL CONIC TO RTERM FROM HERE
000431:                                                                                                  #  RESET PDL, SET TFF=POSMAX, AND EXIT.
000432:
000433: 27,3116           41076                           DCOMP    BOVB                                  #  RT IS ON INBOUND SIDE.  ASSURE OVFIND=0
000434: 27,3117           57352                                    TCDANZIG                              #  ANY PORT IN A STORM.
000435: 27,3120           24045                           STOVL    TFFTEM                                #  Q2  E:(-16) M:(-15)
000436: 27,3121           02372                                    VONE'                                 #  VN/SQRT(MU)  E:(10) M:(9)
000437: 27,3122           52441                           DOT      SL3
000438: 27,3123           02327                                    RONE                                  #  SAVED RN.  E:(-29) M:(-27)
000439: 27,3124           00017                           STORE    TFFQ1                                 #  Q1, SAVE FOR GONEPAST TEST.
000440:                                                                                                  #  E:(-16) M:(-15)
000441: 27,3125           44240                           BMN      BDSU
000442: 27,3126           57147                                    INBOUND                               #  USE ALTERNATE Z
000443: 27,3127           00045                                    TFFTEM                                #  Q2  E:(-16) M:(-15)
000444:
000445:                                                                                                  #  OUTBOUND Z CALC CONTINUES HERE
000446:
000447: 27,3130           14043                           STODL    TFFX                                  #  NUM=Q2-Q1  E:(-16) M:(-15)
000448: 27,3131           00033                                    TFFALFA                               #  ALFA  E:(26-NR) M:(24-NR)
000449: 27,3132           44205                           DMP      BDSU


000451: 27,3133           00041                                    NRMAG                                 #  RMAG  E:(-29+NR) M:(-27+NR)
000452:                                                                                                  #  (2-RTERM ALFA)  (-3) FROM PDL+0
000453: 27,3134           51406        SAVEDEN            PUSH     ABS                                   #  DEN TO PDL+0  E:(-3) OR (-16)
000454:                                                                                                  #                M:(-3) OR (-15)
000455: 27,3135           40015                           DAD      BOV                                   #  INDETERMINANCY TEST
000456: 27,3136           17360                                    LIM(-22)                              #  =1.0-B(-22)
000457: 27,3137           57160                                    TFFXTEST                              #  GO IF DEN >/= B(-22)
000458: 27,3140           65345                           DLOAD    PDDL                                  #  SET DEN=0 OTHERWISE
000459: 27,3141           15335                                    TFFZEROS
000460:                                                                                                  #  XCH ZERO WITH PDL+0
000461: 27,3142           57545                           DLOAD    DCOMP
000462: 27,3143           00033                                    TFFALFA                               #  ALFA  E:(26-NR) M:(24-NR)
000463: 27,3144           71240                           BMN      DLOAD                                 #  FOR TPER:  Z INDET AT DELE/2=0 AND 90.
000464: 27,3145           57254                                    TFFEL1                                #  ASSUME 90, AND LEAVE 0 IN PDL: 1/Z=D/N
000465:
000466:                                                                                                  #  Z INDET. AT PERIGEE FOR PARAB OR HYPERB.
000467: 27,3146           77616        DUMPTFF1           RVQ                                            #  RETURN TFF =0
000468:
000469:                                                                                                  #  INBOUND Z CALC CONTINUES HERE
000470:
000471: 27,3147           77745        INBOUND            DLOAD                                          #  RESET PDL+0
000472: 27,3150           45345                           DLOAD    DSU                                   #  ALTERNATE Z CALC
000473: 27,3151           00023                                    RTERM                                 #  E:(-29) M:(-27)
000474: 27,3152           00015                                    RMAG1                                 #  E:(-29) M:(-27)
000475: 27,3153           14043                           STODL    TFFX                                  #  NUM=RTERM-RN  E:(-29) M:(-27)
000476: 27,3154           00045                                    TFFTEM                                #  Q2  E:(-16) M:(-15)
000477: 27,3155           52015                           DAD      GOTO
000478: 27,3156           00017                                    TFFQ1                                 #  Q1  E:(-16) M:(-15)
000479: 27,3157           57134                                    SAVEDEN                               #  DEN = Q2+Q1  E:(-16) M:(-15)
000480:
000481: 27,3160           65215        TFFXTEST           DAD      PDDL                                  #  (ABS(DEN) TO PDL+2)   E:(-3) OR (-16)
000482:                                                                                                  #                        M:(-3) OR (-15)
000483: 27,3161           17362                                    DP(-22)                               #  RESTORE ABS(DEN) TO MPAC
000484: 27,3162           00043                                    TFFX                                  #  NUM  E:(-16) OR (-29)  M:(-15) OR (-27)
000485: 27,3163           53605                           DMP      SR*
000486: 27,3164           00031                                    TFFRTALF                              #  SQRT(ALFA)  E:(10+NA) M:(9+NA)
000487: 27,3165           57201                                    0          -3,2                       #  X2=-NA
000488: 27,3166           77671                           DDV                                            #  C(MPAC) =NUM SQRT(ALFA)       E:(-3) OR (-16)
000489:                                                                                                  #                                M:(-3) OR (-15)
000490:                                                                                                  #  ABS(DEN) FROM PDL+2   E:(-3) OR (-16)
000491:                                                                                                  #                        M:(-3) OR (-15)
000492: 27,3167           40145                           DLOAD    BOV                                   #  (THE DLOAD IS SHARED WITH TFFELL)
000493: 27,3170           00043                                    TFFX                                  #  NUM  E:(-16) OR (-29)  M:(-15) OR (-27)
000494: 27,3171           57252                                    TFFELL                                #  USE EQN FOR DELE GEQ 90, LEQ -90
000495:
000496:                                                                                                  #  OTHERWISE, CONTINUE FOR GENERAL CONIC FOR TFF EQN
000497:
000498: 27,3172           45471                           DDV      STADR
000499:                                                                                                  #  DEN FROM PDL+0        E:(-3) OR (-16)
000500:                                                                                                  #                        M:(-3) OR (-15)
000501: 27,3173           77732                           STORE    TFFTEM                                #  Z SAVE FOR SIGN OF SDELF.


000503:                                                                                                  #  E:(-13) M:(-12)
000504: 27,3174           63406                           PUSH     DSQ                                   #  Z TO PDL+0
000505: 27,3175           41206                           PUSH     DMP                                   #  Z SQ TO PDL+2  E:(-26) M:(-24)
000506: 27,3176           00035                                    TFFNP                                 #  LC P  E:(-38+2NR) M:(-36+NR)
000507: 27,3177           75261                           SL       SIGN
000508: 27,3200           20206                                    5
000509: 27,3201           00045                                    TFFTEM                                #  AFFIX SIGN FOR SDELF (ENTRY DISPLAY)
000510: 27,3202           14045                           STODL    TFFTEM                                #  P ZSQ  E:(-59+2NR) M:(-55+2NR)
000511:                                                                                                  #  (ARG IS USED IN TFF/TRIG)
000512:                                                                                                  #  ZSQ FROM PDL+2  E:(-26) M:(-24)
000513: 27,3203           41206                           PUSH     DMP                                   #  RESTORE PUSH LOC
000514: 27,3204           00033                                    TFFALFA                               #  ALFA  E:(26-NR) M:(24-NR)
000515: 27,3205           77657                           SL*
000516: 27,3206           20201                                    0,1                                   #  X1=-NR
000517: 27,3207           00043                           STORE    TFFX                                  #  X
000518: 27,3210           41234                           RTB      DMP
000519: 27,3211           57334                                    T(X)                                  #  POLY
000520:                                                                                                  #  ZSQ FROM PDL+2  E:(-26) M:(-24)
000521: 27,3212           44302                           SR2      BDSU                                  #  2 ZSQ T(X)  E:(-29) M:(-27)
000522: 27,3213           00023                                    RTERM                                 #  RTERM  E:(-29) M:(-27)
000523: 27,3214           41215                           DAD      DMP
000524: 27,3215           00015                                    RMAG1                                 #  E:(-29) M:(-27)
000525:                                                                                                  #  Z FROM PDL+0  E:(-13) M:(-12)
000526: 27,3216           51042                           SR3      BPL                                   #  TFF SQRT(MU)  E:(-45) M:(-42)
000527: 27,3217           57240                                    ENDTFF                                #  (NO PUSH UP)
000528: 27,3220           75206                           PUSH     SIGN                                  #  TFF SQRT(MU) TO PDL+0
000529: 27,3221           00017                                    TFFQ1                                 #  Q1 FOR GONEPAST TEST
000530: 27,3222           71244                           BPL      DLOAD                                 #  GONE PAST ?
000531: 27,3223           57244                                    NEGTFF                                #  YES. TFF < 0.
000532: 27,3224           00027                                    TFF1/ALF                              #  1/ALFA  E:(-22-2NA) M:(-20-2NA)
000533: 27,3225           51076                           DCOMP    BPL                                   #  ALFA > 0 ?
000534: 27,3226           57244                                    NEGTFF                                #  NO. TFF IS NEGATIVE.
000535:
000536:                                                                                                  #  CORRECT FOR ORBITAL PERIOD.
000537:
000538: 27,3227           77676                           DCOMP                                          #  YES.  CORRECT FOR ORB PERIOD.
000539: 27,3230           56205                           DMP      DDV
000540: 27,3231           17356                                    PI/16                                 #  2 PI (-5)
000541: 27,3232           00031                                    TFFRTALF                              #  SQRT(ALFA)  E:(10+NA) M:(9+NA)
000542: 27,3233           53657                           SL*      SL*
000543: 27,3234           57602                                    0          -4,2                       #  X2=-NA
000544: 27,3235           57602                                    0          -4,2
000545: 27,3236           43257                           SL*      DAD
000546: 27,3237           57576                                    0,2
000547:                                                                                                  #  TFF SQRT(MU) FROM PDL+0       E:(-45) M:(-42)
000548: 27,3240           40005        ENDTFF             DMP      BOV                                   #  TFF SQRT(MU) IN MPAC          E:(-45) M:(-42)
000549: 27,3241           00037                                    TFF/RTMU                              #  E:(17) M:(14)
000550: 27,3242           57250                                    MAXTFF                                #  SET POSMAX IN OVFL.
000551:
000552: 27,3243           77616        DUMPTFF2           RVQ                                            #  RETURN TFF (-28) CS IN MPAC.
000553:


000555: 27,3244           77745        NEGTFF             DLOAD
000556:                                                                                                  #  TFF SQRT(MU) FROM PDL+0, NEGATIVE.
000557: 27,3245           77650                           GOTO
000558: 27,3246           57240                                    ENDTFF
000559:
000560: 27,3247           77745        MAXTFF1            DLOAD                                          #  RESET PDL
000561: 27,3250           43545        MAXTFF             DLOAD    RVQ
000562: 27,3251           17372                                    NEARONE
000563:
000564:                                                                                                  #  TIME OF FLIGHT ELLIPSE WHEN DEL (ECCENTRIC ANOM) GEQ 90 AND LEQ -90.
000565:
000566:                                                                                                  #  NUM FROM TFFX.        E:(-16) OR (-29)
000567:                                                                                                  #                        M:(-15) OR (-27)
000568: 27,3252           77712        TFFELL             SL2                                            #  NUM  E:(-14) OR (-27)  M:(-13) OR (-25)
000569: 27,3253           41465                           BDDV     PUSH                                  #  TEMP SAVE D/N IN PDL+0
000570:                                                                                                  #  DEN FROM PDL+0  E:(-3)/(-16)  M:(-3)/(-15)
000571:                                                                                                  #  N/D TO PDL+0  E:(11) M:(10)
000572: 27,3254           45345        TFFEL1             DLOAD    DSU                                   #  (ENTER WITH D/N=0 IN PDL+0)
000573: 27,3255           00045                                    TFFTEM                                #  Q2  E:(-16) M:(-15)
000574: 27,3256           00017                                    TFFQ1                                 #  Q1  E:(-16) M:(-15)
000575: 27,3257           14013                           STODL    TFFDELQ                               #  Q2-Q1  E:(-16) M:(-15)
000576:                                                                                                  #  D/N FROM PDL+0
000577: 27,3260           77626                           STADR
000578: 27,3261           77732                           STORE    TFFTEM                                #  D/N  E:(11) M:(10)
000579: 27,3262           53605                           DMP      SL*
000580: 27,3263           00027                                    TFF1/ALF                              #  1/ALFA  E:(-22-2NA) M:(-20-2NA)
000581: 27,3264           57576                                    0,2                                   #  1/ALFA Z  E:(-11-NA) M:(-10-NA)
000582: 27,3265           41206                           PUSH     DMP                                   #  TO PDL+0
000583: 27,3266           00045                                    TFFTEM                                #  1/Z  E:(11) M:(10)
000584: 27,3267           41057                           SL*      BOVB
000585: 27,3270           57576                                    0,2                                   #  X2= -NA
000586: 27,3271           45712                                    SIGNMPAC                              #  IN CASE X= 1.0, CONTINUE
000587: 27,3272           00043                           STORE    TFFX                                  #  X=1/ALFA ZSQ
000588: 27,3273           41234                           RTB      DMP
000589: 27,3274           57334                                    T(X)                                  #  POLY
000590: 27,3275           00043                                    TFFX
000591: 27,3276           45242                           SR3      DSU
000592: 27,3277           17364                                    DP2(-3)
000593: 27,3300           41405                           DMP      PUSH                                  #  2(X T(X)-1) /Z ALFA   E:(-15-NA)
000594:                                                                                                  #                        M:(-14-NA)
000595:                                                                                                  #  1/ALFA Z FROM PDL+0   E:(-11-NA)
000596:                                                                                                  #                        M:(-10-NA)
000597: 27,3301           41345                           DLOAD    DMP                                   #  GET SIGN FOR SDELF
000598: 27,3302           00045                                    TFFTEM                                #  1/Z  E:(11) M:(10)
000599: 27,3303           00015                                    RMAG1                                 #  E:(-29) M:(-27)
000600: 27,3304           43312                           SL2      DAD
000601: 27,3305           00017                                    TFFQ1                                 #  Q1  E:(-16) M:(-15)
000602: 27,3306           14045                           STODL    TFFTEM                                #  (Q1+R 1/Z) =SGN OF SDELF  E:(-16) M:(-15)
000603: 27,3307           00035                                    TFFNP                                 #  LC P  E:(-38+2NR) M:(-36+2NR)
000604: 27,3310           53605                           DMP      SL*                                   #  CALC FOR ARG FOR TFF/TRIG.


000606: 27,3311           00027                                    TFF1/ALF                              #  1/ALFA  E:(-22-2NA) M:(-20-2NA)
000607: 27,3312           57575                                    1,2                                   #  X2=-NA
000608: 27,3313           53765                           SIGN     SL*
000609: 27,3314           00045                                    TFFTEM                                #  AFFIX SIGN FOR SDELF
000610: 27,3315           57576                                    0,2
000611: 27,3316           14045                           STODL    TFFTEM                                #  P/ALFA  E:(-59+2NR) M:(-55+2NR)
000612:                                                                                                  #  (ARG FOR USE IN TFF/TRIG)
000613: 27,3317           00027                                    TFF1/ALF                              #  1/ALFA  E:(-22-2NA) M:(-20-2NA)
000614: 27,3320           41366                           SQRT     DMP
000615: 27,3321           17356                                    PI/16                                 #  PI (-4)
000616: 27,3322           77615                           DAD
000617:                                                                                                  #  2(XT(X)-1)/Z ALFA FROM PDL    E:(-15-NA)
000618:                                                                                                  #                                M:(-14-NA)
000619: 27,3323           45257                           SL*      DSU
000620: 27,3324           57577                                    0          -1,2
000621: 27,3325           00013                                    TFFDELQ                               #  Q2-Q1  E:(-16) M:(-15)
000622: 27,3326           53605                           DMP      SL*
000623: 27,3327           00027                                    TFF1/ALF                              #  1/ALFA  E:(-22-2NA) M:(-20-2NA)
000624: 27,3330           57601                                    0          -3,2
000625: 27,3331           52057                           SL*      GOTO
000626: 27,3332           57602                                    0          -4,2
000627: 27,3333           57240                                    ENDTFF                                #  TFF SQRT(MU) IN MPAC E:(-145) M:(-42)
000628:


000630:                                                                                                  #  PROGRAM NAME:  T(X)                           DATE:  01.17.67
000631:                                                                                                  #  MOD NO:  0                                    LOG SECTION:  TIME OF FREE FALL
000632:                                                                                                  #  MOD BY:  RR BAIRNSFATHER
000633:
000634:                                                                                                  #  FUNCTIONAL DESCRIPTION:  THE POLYNOMIAL T(X) IS USED BY TIME OF FLIGHT SUBROUTINES CALCTFF AND
000635:                                                                                                  #        CALCTPER TO APPROXIMATE THE SERIES
000636:                                                                                                  #                           2     3
000637:                                                                                                  #                1/3 -X/5 +X /7 -X /9 ...
000638:
000639:                                                                                                  #        WHERE   X = ALFA Z Z            IF ALFA Z Z LEQ 1
000640:                                                                                                  #                X = 1/(ALFA Z Z)        IF ALFA Z Z G 1
000641:
000642:                                                                                                  #        ALSO    X IS NEG FOR HYPERBOLIC ORBITS
000643:                                                                                                  #                X = 0 FOR PARABOLIC ORBITS
000644:                                                                                                  #                X IS POSITIVE FOR ELLIPTIC ORBITS
000645:
000646:                                                                                                  #        FOR FLIGHT 278, THE POLYNOMIAL T(X) IS FITTED OVER THE RANGE (0,+1) AND HAS A MAXIMUM
000647:                                                                                                  #        DEVIATION FROM THE SERIES OF 2 E-5.  (T(X) IS A CHEBYCHEV TYPE FIT AND WAS OBTAINED USING
000648:                                                                                                  #        MAC PROGRAM AUTCURFIT294RRB AND IS VALID TO THE SAME TOLERANCE OVER THE RANGE (-.08,+1).)
000649:
000650:                                                                                                  #  CALLING SEQUENCE:     RTB
000651:                                                                                                  #                                T(X)
000652:                                                                                                  #        C(MPAC) = X
000653:
000654:                                                                                                  #  SUBROUTINE CALLED:  NONE
000655:
000656:                                                                                                  #  NORMAL EXIT MODE:  TC DANZIG
000657:
000658:                                                                                                  #  ALARMS:  NONE
000659:
000660:                                                                                                  #  OUTPUT:  C(MPAC) = T(X)
000661:
000662:                                                                                                  #  ERASABLE INITIALIZATION REQUIRED:
000663:                                                                                                  #        C(MPAC) = X
000664:
000665:                                                                                                  #  DEBRIS:  NONE
000666:
000667: 27,3334           07171        T(X)               TC       POLY
000668: 27,3335           00004                           DEC      4          B-14                       #  N-1
000669: 27,3336           12525 12525                     2DEC     3.333333333 E-1
000670: 27,3340           71463 57703                     2DEC*    -1.999819135 E-1*
000671: 27,3342           04423 17645                     2DEC*    1.418148467 E-1*
000672: 27,3344           74604 43667                     2DEC*    -1.01310997 E-1*
000673: 27,3346           01626 37256                     2DEC*    5.609004986 E-2*
000674: 27,3350           77404 52071                     2DEC*    -1.536156925 E-2*
000675:
000676: 27,3352           06030        ENDT(X)            TC       DANZIG
000677:
000678: 27,3353  27,3352               TCDANZIG           =        ENDT(X)
000679:


000681:                                                                                                  #  TFF CONSTANTS
000682:
000683: 32,3770                                           BANK     32
000684:
000685: 27,2000                                           SETLOC   TOF-FF1
000686: 27,2000                                           BANK
000687:
000688:                                                                                                  #                                                # NOTE _  NOTE _ ADJUSTED MUE FOR NEAR EARTH TRAJ.
000689:                                                                                                  # MUE            =       3.990815471 E10         # M CUBE/CS SQ
000690:                                                                                                  # RTMUE          =       1.997702549 E5 B-18*    # MODIFIED EARTH MU
000691:
000692: 27,3353           24775 30424  1/RTMU             2DEC*    .5005750271 E-5        B17*            #  MODIFIED EARTH MU
000693:
000694:                                                                                                  #                                                # NOTE _  NOTE _ ADJUSTED MUE FOR NEAR EARTH TRAJ.
000695:                                                                                                  # MUM            =       4.902778 E8             # M CUBE/CS SQ
000696:                                                                                                  # RTMUM          2DEC*   2.21422176 E4 B-18*
000697: 27,3355           06220 37553  PI/16              2DEC     3.141592653 B-4
000698: 27,3357           37777 37700  LIM(-22)           2OCT     3777737700                            #  1.0 -B(-22)
000699: 27,3361           00000 00100  DP(-22)            2OCT     0000000100                            #  B(-22)
000700: 27,3363           04000 00000  DP2(-3)            2DEC     1          B-3
000701: 27,3365           02000 00000  DP2(-4)            2DEC     1          B-4                        #  1/16
000702:
000703:                                                                                                  #  RPAD1         2DEC    6373338 B-29            # M (-29) = 20909901.57 FT
000704: 27,3367  22,3151               RPAD1              =        RPAD
000705:
000706: 27,3367           00305 11205  R300K              2DEC     6464778    B-29                       #  (-29) M
000707: 27,3371           37777 37777  NEARONE            2DEC     .999999999
000708: 27,3373  26,3334               TFFZEROS           EQUALS   HI6ZEROS
000709: 27,3373  26,3324               TFF1/4             EQUALS   HIDP1/4

End of include-file TIME_OF_FREE_FALL.agc.  Parent file is MAIN.agc


