
Source Code
000001:                                                                                                 #  Copyright:     Public domain.
000002:                                                                                                 #  Filename:      TVCEXECUTIVE.agc
000003:                                                                                                 #  Purpose:       Part of the source code for Colossus 2A, AKA Comanche 055.
000004:                                                                                                 #                 It is part of the source code for the Command Module's (CM)
000005:                                                                                                 #                 Apollo Guidance Computer (AGC), for Apollo 11.
000006:                                                                                                 #  Assembler:     yaYUL
000007:                                                                                                 #  Contact:       Ron Burkey <info@sandroid.org>.
000008:                                                                                                 #  Website:       www.ibiblio.org/apollo.
000009:                                                                                                 #  Pages: 945-950
000010:                                                                                                 #  Mod history:   2009-05-12 RSB  Adapted from the Colossus249/ file of the
000011:                                                                                                 #                                 same name, using Comanche055 page images.
000012:                                                                                                 #                 2009-05-20 RSB  Corrections:  CAE -> CAF in one place.
000013:                                                                                                 #                 2009-05-21 RSB  In 1SHOTCHK, a CAF SEVEN was corrected to
000014:                                                                                                 #                                 CAF SIX.
000015:
000016:                                                                                                 #  This source code has been transcribed or otherwise adapted from digitized
000017:                                                                                                 #  images of a hardcopy from the MIT Museum.  The digitization was performed
000018:                                                                                                 #  by Paul Fjeld, and arranged for by Deborah Douglas of the Museum.  Many
000019:                                                                                                 #  thanks to both.  The images (with suitable reduction in storage size and
000020:                                                                                                 #  consequent reduction in image quality as well) are available online at
000021:                                                                                                 #  www.ibiblio.org/apollo.  If for some reason you find that the images are
000022:                                                                                                 #  illegible, contact me at info@sandroid.org about getting access to the
000023:                                                                                                 #  (much) higher-quality images which Paul actually created.
000024:
000025:                                                                                                 #  Notations on the hardcopy document read, in part:
000026:
000027:                                                                                                 #         Assemble revision 055 of AGC program Comanche by NASA
000028:                                                                                                 #         2021113-051.  10:28 APR. 1, 1969
000029:
000030:                                                                                                 #         This AGC program shall also be referred to as
000031:                                                                                                 #                         Colossus 2A
000032:
000033:                                                                                                 #  Page 945
000034:                                                                                                 #  PROGRAM NAME....       TVCEXECUTIVE, CONSISTING OF TVCEXEC, NEEDLEUP, VARGAINS
000035:                                                                                                 #                         1SHOTCHK, REPCHEK, CG.CORR, COPYCYCLES, ETC.
000036:                                                                                                 #  LOG SECTION....        TVCEXECUTIVE            SUBROUTINE ....DAPCSM
000037:                                                                                                 #  MOD BY SCHLUNDT                                21 OCTOBER 1968
000038:
000039:                                                                                                 #  FUNCTIONAL DESCRIPTION....
000040:                                                                                                 #       *A SELF-PERPETUATING WAITLIST TASK AT 1/2 SECOND INTERVALS WHICH:
000041:                                                                                                 #         PREPARES THE ROLL WITH OGA (CDUX)
000042:                                                                                                 #         PREPARES THE ROLL FDAI NEEDLE (FLY-TO  OGA ERROR)
000043:                                                                                                 #         PREPARES THE ROLL PHASE PLANE  OGAERR  (FLY-FROM  OGA ERROR)
000044:                                                                                                 #         PREPARES THE TVC ROLLDAP TASK WAITLIST CALL (3 CS DELAY)
000045:                                                                                                 #         UPDATES THE NEEDLES DISPLAY
000046:                                                                                                 #         UPDATES THE VEHICLE MASS AND CALLS MASSPROP TO UPDATE INERTIA DATA
000047:                                                                                                 #         UPDATES PITCH, YAW, AND ROLL DAP GAINS FROM MASSPROP DATA
000048:                                                                                                 #         PERFORMS ONE-SHOT CORRECTION FOR TMC LOOP 0-3 SEC AFTER IGNITION
000049:                                                                                                 #         PERFORMS REPETITIVE UPDATES FOR THE TMC LOOP AFTER THE ONE-SHOT CORR.
000050:
000051:                                                                                                 #  CALLING SEQUENCE....
000052:                                                                                                 #       *TVCEXEC CALLED AS A WAITLIST TASK, IN PARTICULAR BY TVCINIT4 AND BY
000053:                                                                                                 #         ITSELF, BOTH AT 1/2 SECOND INTERVALS
000054:
000055:                                                                                                 #  NORMAL EXIT MODE.... TASKOVER
000056:
000057:                                                                                                 #  ALARM OR ABORT EXIT MODES.... NONE
000058:
000059:                                                                                                 #  SUBROUTINES CALLED....NEEDLER, S40.15, MASSPROP, TASKOVER, IBNKCALL
000060:
000061:                                                                                                 #  OTHER INTERFACES....
000062:                                                                                                 #       *TVCRESTART PACKAGE FOR RESTARTS
000063:                                                                                                 #       *PITCHDAP, YAWDAP FOR VARIABLE GAINS AND ENGINE TRIM ANGLES
000064:
000065:                                                                                                 #  ERASABLE INITIALIZATION REQUIRED....
000066:                                                                                                 #       *SEE TVCDAPON....TVCINIT4
000067:                                                                                                 #       *VARK AND 1/CONACC (S40.15 OF R03)
000068:                                                                                                 #       *PAD LOAD EREPFRAC
000069:                                                                                                 #       *BITS 15,14 OF FLAGWRD6 (T5 BITS)
000070:                                                                                                 #       *TVCEXPHS FOR RESTARTS
000071:                                                                                                 #       *ENGINE-ON BIT (11.13) FOR RESTARTS
000072:                                                                                                 #       *CDUX, OGAD
000073:
000074:                                                                                                 #  OUTPUT....
000075:                                                                                                 #       *ROLL DAP OGANOW, FDAI NEEDLE= (AK). AND PHASE PLANE OGAERR
000076:                                                                                                 #       *VARIABLE GAINS FOR PITCH/YAW AND ROLL TVC DAPS
000077:                                                                                                 #       *SINGLE-SHOT AND REPETITIVE CORRECTIONS TO ENGINE TRIM ANGLES
000078:                                                                                                 #         PACTOFF AND YACTOFF
000079:
000080:                                                                                                 #  DEBRIS....     MUCH, BUT SHAREABLE WITH RCS/ENTRY, ALL IN EBANK6
000081:
000082:                                                                                                 #  Page 946
000083: 16,2720                                          BANK     16
000084: 16,2000                                          SETLOC   DAPROLL
000085: 16,2000                                          BANK
000086: 16,2720  E6,1702                                 EBANK=   BZERO
000087: 16,2720                                          COUNT*   $$/TVCX
000088:
000089: 16,2720           40102        TVCEXEC           CS       FLAGWRD6                              #  CHECK FOR TERMINATION (BITS 15,14 READ
000090: 16,2721           74105                          MASK     OCT60000                              #         10 FROM TVCDAPON TO RCSDAPON)
000091: 16,2722           00006                          EXTEND
000092: 16,2723           63134                          BZMF     TVCEXFIN                              #  TERMINATE
000093:
000094: 16,2724           35036                          CAF      .5SEC                                 #  W.L. CALL TO PERPETUATE TVCEXEC
000095: 16,2725           05245                          TC       WAITLIST
000096: 16,2726  E6,1702                                 EBANK=   BZERO
000097: 16,2726           02720 34066                    2CADR    TVCEXEC
000098:
000099: 16,2730           30032        ROLLPREP          CAE      CDUX                                  #  UPDATE ROLL LADDERS (NO NEED TO RESTART-
000100: 16,2731           57662                          XCH      OGANOW                                #         PROTECT, SINCE ROLL DAPS RE-START)
000101: 16,2732           57663                          XCH      OGAPAST
000102:
000103: 16,2733           31450                          CAE      OGAD                                  #  PREPARE ROLL FDAI NEEDLE WTIH FLY-TO
000104: 16,2734           00006                          EXTEND                                         #         ERROR (COMMAND - MEASURED)
000105: 16,2735           21662                          MSU      OGANOW
000106: 16,2736           55476                          TS       AK                                    #  FLY-TO OGA ERROR, SC.AT B-1 REVS
000107:
000108: 16,2737           00006                          EXTEND                                         #  PREPARE ROLL DAP PHASE PLANE OGAERR
000109: 16,2740           77705                          MP       -BIT14
000110: 16,2741           55664                          TS       OGAERR                                #  PHASE-PLANE (FLY-FROM) OGAERROR,
000111:                                                                                                 #         SC.AT B+0 REVS
000112:
000113: 16,2742           36214                          CAF      THREE                                 #  SET UP ROLL DAP TASK (ALLOW SOME TIME)
000114: 16,2743           05245                          TC       WAITLIST
000115: 16,2744  E6,1702                                 EBANK=   BZERO
000116: 16,2744           03272 34066                    2CADR    ROLLDAP
000117:
000118: 16,2746           04740        NEEDLEUP          TC       IBNKCALL                              #  DO A NEEDLES UPDATE (RETURNS AFTER CADR)
000119: 16,2747           42420                          CADR     NEEDLER                               #         (NEEDLES RESTARTS ITSELF)
000120:
000121: 16,2750           35003        VARGAINS          CAF      BIT13                                 #  CHECK ENGINE-ON BIT TO INHIBIT VARIABLE
000122: 16,2751           00006                          EXTEND                                         #         GAINS AND MASS IF ENGINE OFF
000123: 16,2752           02011                          RAND     DSALMOUT                              #  CHANNEL 11
000124: 16,2753           10000                          CCS      A
000125: 16,2754           12760                          TCF      +4                                    #         ON, SO OK TO UPDATE GAINS AND MASS
000126: 16,2755           35016                 +5       CAF      TWO                                   #         OFF, SO BYPASS MASS/GAIN UPDATES,
000127: 16,2756           55651                          TS       TVCEXPHS                              #                 ALSO ENTRY FROM CCS BELOW WITH
000128: 16,2757           13011                          TCF      1SHOTCHK                              #                 VCNTR = -0 (V97 R40 ENGFAIL)
000129: 16,2760           11643                          CCS      VCNTR                                 #         TEST FOR GAIN OF UPDATE TIME
000130: 16,2761           12765                          TCF      +4                                    #                 NOT YET
000131:                                                                                                 #  Page 947
000132: 16,2762           12771                          TCF      GAINCHNG                              #                 NOW
000133: 16,2763           12763                          TCF      +0                                    #                 NOT USED
000134: 16,2764           12755                          TCF      VARGAINS   +5                         #                 NO, LOTHRUST (S40.6 R40)
000135:
000136: 16,2765           55653                 +4       TS       VCNTRTMP                              #         PROTECT VCNTR AND
000137: 16,2766           31474                          CAE      CSMMASS                               #         CSMMASS DURING AN IMPULSIVE BURN
000138: 16,2767           55652                          TS       MASSTMP
000139: 16,2770           13002                          TCF      EXECCOPY
000140:
000141: 16,2771           04740        GAINCHNG          TC       IBNKCALL                              #  UPDATE IXX, IAVG, IAVG/TLX
000142: 16,2772           13422                          CADR     FIXCW                                 #  MASSPROP ENTRY (ALREADY INITIALIZED)
000143: 16,2773           04740                          TC       IBNKCALL                              #  UPDATE 1/CONACC, VARK
000144: 16,2774           36462                          CADR     S40.15                                #         (S40.15 IS IN TVCINITIALIZE)
000145: 16,2775           41637                          CS       TENMDOT                               #  UPDATE MASS FOR NEXT 10 SEC. OF BURN
000146: 16,2776           61474                          AD       CSMMASS
000147: 16,2777           55652                          TS       MASSTMP                               #  KG B+16
000148:
000149: 16,3000           34374                          CAF      NINETEEN                              #  RESET THE VARIABLE-GAIN UPDATE COUNTER
000150: 16,3001           55653                          TS       VCNTRTMP
000151:
000152: 16,3002           25651        EXECCOPY          INCR     TVCEXPHS                              #  RESTART-PROTECT TEH COPYCYCLE          (1)
000153:
000154: 16,3003           31652                          CAE      MASSTMP                               #  CSMMASS KG B+16
000155: 16,3004           55474                          TS       CSMMASS
000156:
000157: 16,3005           31653                          CAE      VCNTRTMP                              #  VCNTR
000158: 16,3006           55643                          TS       VCNTR
000159: 16,3007           55444                          TS       V97VCNTR                              #  FOR ENGFAIL (R41) MASS UPATES AT SPSOFF
000160:
000161: 16,3010           25651                          INCR     TVCEXPHS                              #  COPYCYCLE OVER                 (2)
000162:
000163: 16,3011           11447        1SHOTCHK          CCS      CNTR                                  #  CHECK FOR ONE-SHOT OR REPCORR
000164: 16,3012           13016                          TCF      +4                                    #         NOT YET
000165: 16,3013           13031                          TCF      1SHOTOK                               #         NOW
000166: 16,3014           13022                          TCF      REPCHEK                               #         ONE-SHOT OVER, ON TO REPCORR
000167: 16,3015           13031                          TCF      1SHOTOK                               #         NOW (ONE-SHOT ONLY, NO REPCORR)
000168:
000169: 16,3016           55676                 +4       TS       CNTRTMP                               #  COUNT DOWN
000170: 16,3017           36211                          CAF      SIX                                   #  SETUP TVCEXPHS FOR ENTRY AT CNTRCOPY
000171: 16,3020           55651                          TS       TVCEXPHS
000172: 16,3021           13132                          TCF      CNTRCOPY
000173:
000174: 16,3022           31642        REPCHEK           CAE      REPFRAC                               #  CHECK FOR REPETITIVE UPDATES
000175: 16,3023           00006                          EXTEND
000176: 16,3024           63134                          BZMF     TVCEXFIN                              #         NO  (NEG OR +-ZERO)
000177: 16,3025           55446                          TS       TEMPDAP    +1                         #         YES, SET UP CORRECTION FUNCTION
000178: 16,3026           35015                          CAF      FOUR                                  #  SET UP TVCEXPHS FOR ENTRY AT CORSETUP
000179: 16,3027           55651                          TS       TVCEXPHS
000180: 16,3030           13043                          TCF      CORSETUP
000181:                                                                                                 #  Page 948
000182: 16,3031           35003        1SHOTOK           CAF      BIT13                                 #  CHECK ENGINE-ON BIT, NOT PERMITTING
000183: 16,3032           00006                          EXTEND                                         #         SWITCHOVER DURING ENGINE-SHUTDOWN
000184: 16,3033           02011                          RAND     DSALMOUT
000185: 16,3034           10000                          CCS      A
000186: 16,3035           13037                          TCF      +2                                    #         ONE-SHOT OK
000187: 16,3036           13134                          TCF      TVCEXFIN                              #         NO, TERMINATE
000188:
000189: 16,3037           25651                          INCR     TVCEXPHS                              #                                         (3)
000190:
000191:                                                                                                 #  RSB 2009.  The following instruction was previously "CAE FCORFRAC", but FCORFRAC
000192:                                                                                                 #  is not in erasable memory as implied by the use of CAE.  I've accordingly changed
000193:                                                                                                 #  it to CAF instead to indicate fixed memory.
000194: 16,3040           33137        TEMPSET           CAF      FCORFRAC                              #         SET UP CORRECTION FRACTION
000195: 16,3041           55446                          TS       TEMPDAP    +1
000196:
000197: 16,3042           25651                          INCR     TVCEXPHS                              #  ENTRY FROM REPCHECK AT NEXT LOCATION   (4)
000198:
000199: 16,3043           31466        CORSETUP          CAE      DAPDATR1                              #  CHECK FOR LEM-OFF/ON
000200: 16,3044           75003                          MASK     BIT13                                 #  (NOTE, SHOWS LEM-OFF)
000201: 16,3045           00006                          EXTEND
000202: 16,3046           13050                          BZF      +2                                    #  LEM IS ON,  PICK UP   TEMPDAP+1
000203: 16,3047           31446                          CAE      TEMPDAP    +1                         #  LEM IS OFF, PICK UP 2(TEMPDAP+1)
000204: 16,3050           61446                          AD       TEMPDAP    +1
000205: 16,3051           55445                          TS       TEMPDAP                               #  CG.CORR USES TEMPDAP
000206:
000207: 16,3052           37716                          CAF      NEGONE                                #  SET UP FOR CNTR = -1 (SWTCHOVR DONE)
000208: 16,3053           55676                          TS       CNTRTMP                               #         (COPYCYCLE AT "CNTRCOPY")
000209:
000210: 16,3054           00006        CG.CORR           EXTEND                                         #  PITCH TMC LOOP
000211: 16,3055           31606                          DCA      PDELOFF
000212: 16,3056           53673                          DXCH     PACTTMP
000213: 16,3057           00006                          EXTEND
000214: 16,3060           41606                          DCS      PDELOFF
000215: 16,3061           20001                          DDOUBL
000216: 16,3062           20001                          DDOUBL
000217: 16,3063           53612                          DXCH     TTMP1
000218: 16,3064           00006                          EXTEND
000219: 16,3065           31602                          DCA      DELPBAR
000220: 16,3066           20001                          DDOUBL
000221: 16,3067           20001                          DDOUBL
000222: 16,3070           21612                          DAS      TTMP1
000223: 16,3071           00006                          EXTEND
000224: 16,3072           31612                          DCA      TTMP1
000225: 16,3073           00006                          EXTEND
000226: 16,3074           71445                          MP       TEMPDAP
000227: 16,3075           21673                          DAS      PACTTMP
000228:
000229: 16,3076           00006                          EXTEND                                         #  YAW TMC LOOP
000230: 16,3077           31610                          DCA      YDELOFF
000231: 16,3100           53675                          DXCH     YACTTMP
000232: 16,3101           00006                          EXTEND
000233: 16,3102           41610                          DCS      YDELOFF
000234: 16,3103           20001                          DDOUBL
000235:                                                                                                 #  Page 949
000236: 16,3104           20001                          DDOUBL
000237: 16,3105           53612                          DXCH     TTMP1
000238: 16,3106           00006                          EXTEND
000239: 16,3107           31604                          DCA      DELYBAR
000240: 16,3110           20001                          DDOUBL
000241: 16,3111           20001                          DDOUBL
000242: 16,3112           21612                          DAS      TTMP1
000243: 16,3113           00006                          EXTEND
000244: 16,3114           31612                          DCA      TTMP1
000245: 16,3115           00006                          EXTEND
000246: 16,3116           71445                          MP       TEMPDAP
000247: 16,3117           21675                          DAS      YACTTMP
000248:
000249: 16,3120           25651        CORCOPY           INCR     TVCEXPHS                              #  RESTART-PROTECT THE COPYCYCLE          (5)
000250:
000251: 16,3121           00006                          EXTEND                                         #  TRIM-ESTIMATES, AND
000252: 16,3122           31673                          DCA      PACTTMP
000253: 16,3123           55423                          TS       PACTOFF                               #         TRIMS
000254: 16,3124           53606                          DXCH     PDELOFF
000255:
000256: 16,3125           00006                          EXTEND
000257: 16,3126           31675                          DCA      YACTTMP
000258: 16,3127           55424                          TS       YACTOFF
000259: 16,3130           53610                          DXCH     YDELOFF
000260:
000261: 16,3131           25651                          INCR     TVCEXPHS                              #  ENTRY FROM 1SHOTCHK AT NEXT LOCATION   (6)
000262:
000263: 16,3132           31676        CNTRCOPY          CAE      CNTRTMP                               #  UPDATE CNTR (RESTARTS OK, FOLLOWS CPYCY)
000264: 16,3133           55447                          TS       CNTR
000265:
000266: 16,3134           35021        TVCEXFIN          CAF      ZERO                                  #  RESET TVCEXPHS
000267: 16,3135           55651                          TS       TVCEXPHS
000268: 16,3136           15324                          TCF      TASKOVER                              #  TVCEXECUTIVE FINISHED
000269:
000270: 16,3137           10000        FCORFRAC          OCT      10000                                 #  ONE-SHOT CORRECTION FRACTION
000271:
000272:                                                                                                 #  Page 950 (page is empty)
000273:

End of include-file TVCEXECUTIVE.agc.  Parent file is MAIN.agc


