
Source Code


000002:                                                                                                  ## Copyright:   Public domain.
000003:                                                                                                  ## Filename:    TVCMASSPROP.agc
000004:                                                                                                  ## Purpose:     Part of the source code for Colossus 2A, AKA Comanche 055.
000005:                                                                                                  ##              It is part of the source code for the Command Module's (CM)
000006:                                                                                                  ##              Apollo Guidance Computer (AGC), for Apollo 11.
000007:                                                                                                  ## Assembler:   yaYUL
000008:                                                                                                  ## Contact:     Ron Burkey <info@sandroid.org>.
000009:                                                                                                  ## Website:     www.ibiblio.org/apollo.
000010:                                                                                                  ## Pages:       951-955
000011:                                                                                                  ## Mod history: 2009-05-13 RSB  Adapted from the Colossus249/ file of the
000012:                                                                                                  ##                              same name, using Comanche055 page images.
000013:                                                                                                  ##
000014:                                                                                                  ## This source code has been transcribed or otherwise adapted from digitized
000015:                                                                                                  ## images of a hardcopy from the MIT Museum.  The digitization was performed
000016:                                                                                                  ## by Paul Fjeld, and arranged for by Deborah Douglas of the Museum.  Many
000017:                                                                                                  ## thanks to both.  The images (with suitable reduction in storage size and
000018:                                                                                                  ## consequent reduction in image quality as well) are available online at
000019:                                                                                                  ## www.ibiblio.org/apollo.  If for some reason you find that the images are
000020:                                                                                                  ## illegible, contact me at info@sandroid.org about getting access to the
000021:                                                                                                  ## (much) higher-quality images which Paul actually created.
000022:                                                                                                  ##
000023:                                                                                                  ## Notations on the hardcopy document read, in part:
000024:                                                                                                  ##
000025:                                                                                                  ##      Assemble revision 055 of AGC program Comanche by NASA
000026:                                                                                                  ##      2021113-051.  10:28 APR. 1, 1969
000027:                                                                                                  ##
000028:                                                                                                  ##      This AGC program shall also be referred to as
000029:                                                                                                  ##                      Colossus 2A
000030:


000032:                                                                                                  #  PROGRAM NAME....MASSPROP
000033:                                                                                                  #  LOG SECTION....TVCMASSPROP            PROGRAMMER...MELANSON (ENGEL, SCHLUNDT)
000034:
000035:                                                                                                  #  FUNCTIONAL DESCRIPTION:
000036:
000037:                                                                                                  #        MASSPROP OPERATES IN TWO MODES: (1) IF LEM MASS OR CONFIGURATION ARE UPDATED (MASSPROP DOES NOT TEST
000038:                                                                                                  #        FOR THIS) THE ENTIRE PROGRAM MUST BE RUN THROUGH, BREAKPOINT VALUES AND DERIVATIVES OF THE OUTPUTS WITH
000039:                                                                                                  #        RESPECT TO CSM MASS BEING CALCULATED PRIOR TO CALCULATION OF THE OUTPUTS.  (2) OTHERWISE, THE OUTPUTS CAN BE
000040:                                                                                                  #        CALCULATED USING PREVIOUSLY COMPUTED BREAKPOINT VALUES AND DERIVATIVES.
000041:
000042:                                                                                                  #  CALLING SEQUENCES
000043:
000044:                                                                                                  #        IF LEM MASS OR CONFIGURATION HAS BEEN UPDATED, TRANSFER TO MASSPROP, OTHERWISE TRANSFER TO FIXCW.
000045:                                                                                                  #                L       TC      BANKCALL or IBNKCALL
000046:                                                                                                  #                L+1     CADR    MASSPROP
000047:                                                                                                  #                        OR
000048:                                                                                                  #                L+1     CADR    FIXCW
000049:                                                                                                  #                L+2     RETURNS VIA Q
000050:
000051:                                                                                                  #  CALLED:  IN PARTICULAR BY DONOUN47 (JOB) AND TVCEXECUTIVE (TASK)
000052:
000053:                                                                                                  #  JOBS OR TASKS INITIATED:  NONE
000054:
000055:                                                                                                  #  SUBROUTINES CALLED:  NONE
000056:
000057:                                                                                                  #  ERASABLE INITIALIZATION REQUIRED
000058:
000059:                                                                                                  #        LEMMASS MUST CONTAIN LEM MASS SCALED AT B+16 KILOGRAMS
000060:                                                                                                  #        CSMMASS MUST CONTAIN CSM MASS SCALED AT B+16 KILOGRAMS
000061:                                                                                                  #        DAPDATR1 MUST BE SET TO INDICATE VEHICLE CONFIGURATION.
000062:                                                                                                  #                BITS (15,14,13)  =  ( 0 , 0 , 1 )       LEM OFF
000063:                                                                                                  #                                    ( 0 , 1 , 0 )       LEM ON (ASCNT,DSCNT)
000064:                                                                                                  #                                    ( 1 , 1 , 0 )       LEM ON (ASCNT ONLY)
000065:
000066:                                                                                                  #  ALARMS:  NONE
000067:
000068:                                                                                                  #  EXIT:         TC      Q
000069:
000070:                                                                                                  #  OUTPUTS:
000071:
000072:                                                                                                  #        (1)     IXX, SINGLE PRECISION SCALED AT B+20 IN KG-M SQ.
000073:                                                                                                  #        (2)     IAVG, SINGLE PRECISION SCALED AT B+20 IN KG-M SQ.
000074:                                                                                                  #        (3)     IAVG/TLX, SINGLE PRECISION, SCALED AT B+2 SEC-SQD
000075:                                                                                                  #
000076:                                                                                                  #        THEY ARE STORED IN CONSECUTIVE REGISTERS IXX0, IXX1, IXX2
000077:                                                                                                  #        CONVERSION FACTOR:  (SLUG-FTSQ) = 0.737562 (KG-MSQ)


000079:
000080:                                                                                                  #  OUTPUTS ARE CALCULATED AS FOLLOWS:
000081:
000082:                                                                                                  #        (1)     IF LEM DOCKED, LEMMASS IS FIRST ELIMINATED AS A PARAMETER
000083:
000084:                                                                                                  #                VARST0 = INTVALUE0 + LEMMASS(SLOPEVAL0)         IXX             BREAKPOINT VALUE
000085:                                                                                                  #                VARST1 = INTVALUE1 + LEMMASS(SLOPEVAL1)         IAVG            BREAKPOINT VALUE
000086:                                                                                                  #                VARST2 = INTVALUE2 + LEMMASS(SLOPEVAL2)         IAVG/TLX        BREAKPOINT VALUE
000087:
000088:                                                                                                  #                VARST3 = INTVALUE3 + LEMMASS(SLOPEVAL3)         IAVG/TLX        SLOPE FOR CSMMASS > 33956 LBS (SPS > 10000 LBS)
000089:                                                                                                  #                VARST4 = INTVALUE4 + LEMMASS(SLOPEVAL4)         IAVG            SLOPE FOR CSMMASS > 33956 LBS (SPS > 10000 LBS)
000090:
000091:                                                                                                  #                VARST5 = INTVALUE5 + LEMMASS(SLOPEVAL5)         IXX             SLOPE FOR ALL VALUES OF CSMMASS
000092:
000093:                                                                                                  #                VARST6 = INTVALUE6 + LEMMASS(SLOPEVAL6)         IAVG            SLOPE FOR CSMMASS < 33956 LBS (SPS < 10000 LBS)
000094:                                                                                                  #                VARST7 = INTVALUE7 + LEMMASS(SLOPEVAL7)         IAVG/TLX        SLOPE FOR CSMMASS < 33956 LBS (SPS < 10000 LBS)
000095:
000096:                                                                                                  #                VARST8 = INTVALUE8 + LEMMASS(SLOPEVAL8)         IAVG            DECREMENT TO BRKPT VALUE WHEN LEM DSCNT STAGE OFF
000097:                                                                                                  #                VARST9 = INTVALUE9 + LEMMASS(SLOPEVAL9)         IAVG/TLX        DECREMENT TO BRKPT VALUE WHEN LEM DSCNT STAGE OFF
000098:
000099:                                                                                                  #        (2)     IF LEM NOT DOCKED
000100:
000101:                                                                                                  #                VARST0 = NOLEMVAL0      WHERE THE MEANING AND SCALING OF VARST0
000102:                                                                                                  #                        .               TO VARST9 ARE THE SAME AS GIVEN ABOVE
000103:                                                                                                  #                        .
000104:                                                                                                  #                        .               NOTE... FOR THIS CASE, VARST8,9 HAVE NO
000105:                                                                                                  #                VARST9 = NOLEMVAL9      MEANING (THEY ARE COMPUTED BUT NOT USED)
000106:
000107:                                                                                                  #        (3)     THE FINAL OUTPUT CALCULATIONS ARE THEN DONE
000108:
000109:                                                                                                  #                IXX0 = VARST0 + (CSMMASS + NEGBPW)VARST5                IXX
000110:
000111:                                                                                                  #                IXX1 = VARST1 + (CSMMASS + NEGBPW)VARST(4 OR 6)         IAVG
000112:
000113:                                                                                                  #                IXX2 = VARST2 + (CSMMASS + NEGBPW)VARST(3 OR 7)         IAVG/TLX
000114:
000115:                                                                                                  #        THE DATA USED CAME FROM THE CSM/LM SPACECRAFT OPERATIONAL DATA BOOK
000116:                                                                                                  #                VOL. 3, NASA DOCUMENT SNA-8-D-027 (MARCH 1968)
000117:
000118:                                                                                                  #        PERTINENT MASS DATA:            CSM WEIGHT      (FULL)  64100 LBS.
000119:                                                                                                  #                                                        (EMPTY) 23956 LBS.
000120:                                                                                                  #                                        LEM WEIGHT      (FULL)  32000 LBS.
000121:                                                                                                  #                                                        (EMPTY) 14116 LBS.
000122:
000123:                                                                                                  #        (WEIGHTS ARE FROM AMMENDMENT #1 (APRIL 24, 1968) TO ABOVE DATA BOOK)


000125:
000126: 25,3774                                           BANK     25
000127: 05,2000                                           SETLOC   DAPMASS
000128: 05,2000                                           BANK
000129: 05,3366  E6,1702                                  EBANK=   BZERO
000130: 05,3366                                           COUNT*   $$/MASP
000131:
000132: 05,3366           34334        MASSPROP           CAF      NINE                                  #  MASSPROP USES TVC/RCS INTERRUPT TEMPS
000133: 05,3367           55506                           TS       PHI333                                #  SET UP TEN PASSES
000134:
000135: 05,3370           31466        LEMTEST            CAE      DAPDATR1                              #  DETERMINE LEM STATUS
000136: 05,3371           75003                           MASK     BIT13
000137: 05,3372           00006                           EXTEND
000138: 05,3373           13377                           BZF      LEMYES
000139:
000140: 05,3374           51506        LEMNO              INDEX    PHI333                                #  LEM NOT ATTACHED
000141: 05,3375           33463                           CAF      NOLEMVAL
000142: 05,3376           13407                           TCF      STOINST
000143:
000144: 05,3377           31473        LEMYES             CAE      LEMMASS                               #  LEM IS ATTACHED
000145: 05,3400           60000                           DOUBLE
000146: 05,3401           00006                           EXTEND
000147: 05,3402           51506                           INDEX    PHI333
000148: 05,3403           73505                           MP       SLOPEVAL
000149: 05,3404           20001                           DDOUBL
000150: 05,3405           51506                           INDEX    PHI333
000151: 05,3406           63473                           AD       INTVALUE
000152:
000153: 05,3407           51506        STOINST            INDEX    PHI333                                #  STORAGE INST BEGIN HERE
000154: 05,3410           55511                           TS       VARST0
000155: 05,3411           11506                           CCS      PHI333                                #  ARE ALL TEN PASSES COMPLETED
000156: 05,3412           13367                           TCF      MASSPROP   +1                         #  NO: GO DECREMENT PHI333
000157:
000158: 05,3413           11466        DXTEST             CCS      DAPDATR1                              #  IF NEG, BIT15 IS 1, LEM DSCNT STAGE OFF
000159: 05,3414           13422                           TCF      FIXCW
000160: 05,3415           13422                           TCF      FIXCW
000161: 05,3416           53522                           DXCH     VARST0     +8D
000162: 05,3417           21513                           DAS      VARST0     +1
000163: 05,3420           33520                           CA       DXITFIX
000164: 05,3421           27520                           ADS      VARST0     +7
000165:
000166: 05,3422           35016        FIXCW              CAF      BIT2                                  #  COMPUTATION PHASE BEGINS HERE. SET UP
000167: 05,3423           55506                           TS       PHI333                                #  THREE PASSES
000168: 05,3424           55507                           TS       PSI333
000169:
000170: 05,3425           31474                           CAE      CSMMASS                               #  GET DELTA CSM WEIGHT:  SIGN DETERMINES
000171: 05,3426           63517                           AD       NEGBPW                                #  SLOPE LOCATIONS.
000172: 05,3427           60000                           DOUBLE
000173: 05,3430           55510                           TS       TEMP333


000175: 05,3431           00006                           EXTEND
000176: 05,3432           63435                           BZMF     PEGGY                                 #  DETERMINE CORRECT SLOPE
000177: 05,3433           37715                           CAF      NEG2
000178: 05,3434           55506                           TS       PHI333
000179:
000180: 05,3435           51506        PEGGY              INDEX    PHI333                                #  ALL IS READY:  CALCULATE OUTPUTS NOW
000181: 05,3436           31516                           CAE      VARST5                                #  GET SLOPE
000182: 05,3437           00006                           EXTEND
000183: 05,3440           71510                           MP       TEMP333                               #  MULT BY DELTA CSM WEIGHT
000184: 05,3441           60000                           DOUBLE
000185: 05,3442           51507                           INDEX    PSI333
000186: 05,3443           61511                           AD       VARST0                                #  ADD BREAKPOINT VALUE
000187: 05,3444           51507                           INDEX    PSI333
000188: 05,3445           55470                           TS       IXX                                   #  ***** OUTPUTS (IXX0, IXX1, IXX2) *****
000189:
000190: 05,3446           11507                           CCS      PSI333                                #  BOOKKEEPING: MASSPROP FINISHED OR NOT
000191: 05,3447           13457                           TCF      BOKKEP2                               #  NO:  GO TAKE CARE OF INDEXING REGISTERS
000192:
000193: 05,3450           31466                           CAE      DAPDATR1                              #  UPDATE WEIGHT/G
000194: 05,3451           75002                           MASK     BIT14
000195: 05,3452           10000                           CCS      A
000196: 05,3453           31473                           CA       LEMMASS
000197: 05,3454           61474                           AD       CSMMASS
000198: 05,3455           55475                           TS       WEIGHT/G                              #  SCALED AT B+16 KILOGRAMS
000199: 05,3456           00002        ENDMASSP           TC       Q
000200:
000201: 05,3457           55507        BOKKEP2            TS       PSI333                                #  REDUCE PSI BY ONE
000202: 05,3460           00006                           EXTEND
000203: 05,3461           27506                           DIM      PHI333
000204: 05,3462           13435                           TCF      PEGGY
000205:


000207: 05,3463           00616        NOLEMVAL           DEC      25445      B-20
000208: 05,3464           02526                           DEC      87450      B-20
000209: 05,3465           02352                           DEC      .30715     B-2
000210: 05,3466           01471                           DEC      1.22877    E-5        B+12
000211: 05,3467           00634                           DEC      1.6096     B-6
000212: 05,3470           00612                           DEC      1.54       B-6
000213: 05,3471           03706                           DEC      7.77177    B-6
000214: 05,3472           04425                           DEC      3.46458    E-5        B+12
000215:
000216: 05,3473           00644        INTVALUE           DEC      26850      B-20
000217: 05,3474           03710                           DEC      127518     B-20
000218: 05,3475           04246                           DEC      .54059     B-2
000219: 05,3476           02011                           DEC      .153964    E-4        B+12
000220: 05,3477           77501                           DEC      -.742923   B-6
000221: 05,3500           00612                           DEC      1.5398     B-6
000222: 05,3501           04656                           DEC      9.68       B-6
000223: 05,3502           10372                           DEC      .647625    E-4        B+12
000224: 05,3503           77126                           DEC      -27228     B-20
000225: 05,3504           76261                           DEC      -.206476   B-2
000226:
000227: 05,3505           00767        SLOPEVAL           DEC      1.96307    B-6
000228: 05,3506           15624                           DEC      27.5774    B-6
000229: 05,3507           03054                           DEC      2.3548     E-5        B+12
000230: 05,3510           04532                           DEC      2.1777     E-9        B+26
000231: 05,3511           10433                           DEC      1.044      E-3        B+8
000232: 05,3512           00000                           DEC      0          B-14
000233: 05,3513           22070                           DEC      2.21068    E-3        B+8
000234: 05,3514           03204                           DEC      1.5166     E-9        B+26
000235: 05,3515           77266                           DEC      -1.284     B-6
000236: 05,3516           02476                           DEC      2          E-5        B+12
000237:
000238: 05,3517           70364        NEGBPW             DEC      -15402.17  B-16
000239: 05,3520           75420        DXITFIX            DEC*     -1.88275   E-5        B+12*
000240:

End of include-file TVCMASSPROP.agc.  Parent file is MAIN.agc


