
Source Code
000001:                                                                                                 #  Copyright:     Public domain.
000002:                                                                                                 #  Filename:      TVCRESTARTS.agc
000003:                                                                                                 #  Purpose:       Part of the source code for Colossus 2A, AKA Comanche 055.
000004:                                                                                                 #                 It is part of the source code for the Command Module's (CM)
000005:                                                                                                 #                 Apollo Guidance Computer (AGC), for Apollo 11.
000006:                                                                                                 #  Assembler:     yaYUL
000007:                                                                                                 #  Contact:       Ron Burkey <info@sandroid.org>.
000008:                                                                                                 #  Website:       www.ibiblio.org/apollo.
000009:                                                                                                 #  Pages: 956-960
000010:                                                                                                 #  Mod history:   2009-05-13 RSB  Adapted from the Colossus249/ file of the
000011:                                                                                                 #                                 same name, using Comanche055 page images.
000012:                                                                                                 #                 2009-05-20 RSB  Corrections:  TCF -> BZF in one place.
000013:                                                                                                 #                 2009-05-21 RSB  In PHSCHK2, CS TVCPHASE corrected to
000014:                                                                                                 #                                 CCS TVCPHASE and CCS 4 corrected to CCS A.
000015:                                                                                                 #                                 Page 924 corrected to 961.  CORCOPY +2
000016:                                                                                                 #                                 corrected to CORCOPY +1.
000017:
000018:                                                                                                 #  This source code has been transcribed or otherwise adapted from digitized
000019:                                                                                                 #  images of a hardcopy from the MIT Museum.  The digitization was performed
000020:                                                                                                 #  by Paul Fjeld, and arranged for by Deborah Douglas of the Museum.  Many
000021:                                                                                                 #  thanks to both.  The images (with suitable reduction in storage size and
000022:                                                                                                 #  consequent reduction in image quality as well) are available online at
000023:                                                                                                 #  www.ibiblio.org/apollo.  If for some reason you find that the images are
000024:                                                                                                 #  illegible, contact me at info@sandroid.org about getting access to the
000025:                                                                                                 #  (much) higher-quality images which Paul actually created.
000026:
000027:                                                                                                 #  Notations on the hardcopy document read, in part:
000028:
000029:                                                                                                 #         Assemble revision 055 of AGC program Comanche by NASA
000030:                                                                                                 #         2021113-051.  10:28 APR. 1, 1969
000031:
000032:                                                                                                 #         This AGC program shall also be referred to as
000033:                                                                                                 #                         Colossus 2A
000034:
000035:                                                                                                 #  Page 956
000036:                                                                                                 #  NAME....TVCRESTART PACKAGE, CONSISTING OF REDOTVC, ENABL1, 2, CMDSOUT, PHSCHK2, ETC.
000037:                                                                                                 #  LOG SECTION....TVCRESTARTS                     SUBROUTINE....DAPCSM
000038:                                                                                                 #  MODIFIED BY SCHLUNDT                           21 OCTOBER 1968
000039:
000040:                                                                                                 #  FUNCTIONAL DESCRIPTION....
000041:
000042:                                                                                                 #       *RESTART-PROCESS THE TVC DAPS, INCLUDING PITCHDAP, YAWDAP,
000043:                                                                                                 #         TVCEXECUTIVE, ROLLDAP, TVCINIT4, TVCDAPON, AND CSM/.M V46 SWTCHOVR.
000044:
000045:                                                                                                 #       *TVC RESTARTS DESERVE SPECIAL CONSIDERATION IN SEVERAL AREAS.
000046:                                                                                                 #         RESTART DOWN-TIME IS IMPORTANT BECAUSE OF THE TRANSIENTS INTRODUCED
000047:                                                                                                 #         BY THE THRUST VECTOR RETURN TO THE ACTUATOR MECHANICAL NULLS
000048:                                                                                                 #         FOLLOWING TVC- AND OPTICS-ERROR-COUNTER-DISENABLES (CHANNEL 12).
000049:                                                                                                 #         TVC USES A MIXTURE OF WAITLIST, T5, T6, AND JOB CALLS.  THERE IS
000050:                                                                                                 #         FILTER MEMORY (UP TO 6TH ORDER) TO BE PROTECTED IF WILD TRANSIENTS
000051:                                                                                                 #         ARE TO BE AVOIDED.  COUNTERS ARE INVOLVED FOR ONE-SHOT
000052:                                                                                                 #         CORRECTIONS AND GAIN UPDATES.  THE GIMBAL TRIM ESTIMATORS AND THE
000053:                                                                                                 #         BODY AXIS ATTITUDE ERROR INTEGRATORS INVOLVE DIGITAL SUMMATION.
000054:                                                                                                 #         DIGITAL DIFFERENTIATORS ARE INVOLVED IN THE BODY AXIS RATE ESTIMA-
000055:                                                                                                 #         TIONS AND IN THE OUTPUTTING OF ACTUATOR COMMANDS.  THERE IS AN
000056:                                                                                                 #         OFFSET-TRACKER-FILTER TO PROTECT.  ETC., ETC.
000057:
000058:                                                                                                 #       *THOSE QUANTITIES WHICH MUST BE PROTECTED ARE STORED IN TEMPORARY
000059:                                                                                                 #         REGISTERS AS THEY ARE COMPUTED, FOR UPDATING THE REAL REGISTERS
000060:                                                                                                 #         DURING COPYCYCLES.
000061:
000062:                                                                                                 #       *THE SEVERAL COPYCYCLES ARE EACH PROTECTED BY PHASE POINTS AT THEIR
000063:                                                                                                 #         BEGINNING AND AT THEIR TERMINATION.  THE PHASE POINTS ARE SIMPLY
000064:                                                                                                 #         "INCR" INSTRUCTIONS, EITHER "INCR TVCEXPHS" FOR COPYCYCLES
000065:                                                                                                 #         IN THE TVCEXECUTIVE, OR "INCR TVCPHASE" FOR THE PITCH AND YAW
000066:                                                                                                 #         COPYCYCLES.  INDEXING ON EACH OF THESE POINTERS THEN PERMITS A
000067:                                                                                                 #         RETURN TO THE APPROPRIATE RESTART POINTS.
000068:
000069:                                                                                                 #       *IF A RESTART OCCURS DURING EITHER COPYCYCLE, THAT COPYCYCLE IS
000070:                                                                                                 #         COMPLETED.  THEN THE NORMAL TVCINIT4....DAPINIT....PITCHDAP STARTUP
000071:                                                                                                 #         SEQUENCE IS CALLED UPON TO GET THINGS GOING AGAIN.
000072:
000073:                                                                                                 #       *TVC-ENABLE AND OPTICS-ERROR-COUNTER ENABLE MUST BE SET ASAP
000074:                                                                                                 #         (ALLOWING FOR PROCEDURAL DELAYS).  THEN THE ENGINES ARE COMMANDED
000075:                                                                                                 #         TO THE P,YACTOFF TRIM VALUES.  THE DAPS ARE THEN READY TO GO ON THE
000076:                                                                                                 #         AIR, WITH THE REGULAR STARTUP SEQUENCE, EITHER AT MRCLEAN FOR A
000077:                                                                                                 #         COMPLETE INITIALIZATION OR AT TVCINIT4 FOR A PARTIAL INITIALIZATION.
000078:
000079:                                                                                                 #       *FOR RESTARTS PRIOR TO THE SETTING OF THE T5 BITS AT DOTVCON THE
000080:                                                                                                 #         PRE40.6 SECTION OF S40.6 TAKES CARE OF RE-ESTABLISHING TRIMS.
000081:
000082:                                                                                                 #       *IF A RESTART OCCURS DURING THE TVCEXEC....TVCEXFIN SEQUENCE THE
000083:                                                                                                 #         COMPUTATIONS WILL BE COMPLETED, STARTING AT THE APPROPRIATE RESTART
000084:                                                                                                 #         POINT, AFTER THE DAPS ARE READY TO GO ON THE AIR.
000085:
000086:                                                                                                 #       *IF A RESTART OCCURS PRIOR TO TVCINIT4 (TVCPHAS = -1) E.G. DURING
000087:                                                                                                 #         THE EARLY DAP INITIALIZATION PHASE, THE DAP STARTUP SEQUENCE IS
000088:                                                                                                 #         ENTERED AT MRCLEAN FOR A FULL INITIALIZATION.
000089:
000090:                                                                                                 #       *FOR RESTARTS DURING CSM/LM V46 SWITCH-VER, TVCPHASE IS SET TO -2.
000091:                                                                                                 #         AND THE RESTART LOGIC GOES BACK TO REDO SWITCH-OVER (AFTER THE
000092:                                                                                                 #         NORMAL DAP RESTART SEQUENCE IS FOLLOWED.)
000093:
000094:                                                                                                 #       *RESTARTS ARE NOT CRITICAL TO THE ROLL DAP PERFORMANCES HENCE THE
000095:                                                                                                 #         ROLL DAP IS MERELY RESTARTED.
000096:
000097:                                                                                                 #       *RESTARTS DURING A STROKE TEST (STROKER IS NON-ZERO) WILL CAUSE THE
000098:                                                                                                 #  Page 957
000099:                                                                                                 #         STROKE TEST TO BE TERMINATED.  A NEW V68 ENTRY WILL BE REQUIRED
000100:                                                                                                 #         TO GET IT GOING AGAIN (NO AUTOMATIC RESTART).
000101:                                                                                                 #
000102:                                                                                                 #       *REDOTVC IS REACHED FOLLOWING ANY RESTART WHICH FINDS THE T5 BITS
000103:                                                                                                 #         (BITS 15,14 OF FLAGWRD6) SET FOR TVC.  DOTVCON TVCPHASE = -1
000104:                                                                                                 #         AND TVC EXPHS = 0 JUST BEFORE SETTING THESE BITS, JUST BEFORE
000105:                                                                                                 #         MAKING THE T5 CALL TO TVCDAPON.  ON A NORMAL SHUTDOWN DOTVCRCS
000106:                                                                                                 #         CALLS RCSDAPON, WHICH RESETS THE T5 BIT FOR RCS
000107:
000108:                                                                                                 #  CALLING SEQUENCE....T5, IN PARTICULAR BY ELRSKIP OF FRESH START/RESTART
000109:
000110:                                                                                                 #  NORMAL EXIT MODES....RESUME, NOQRSM, POSTJUMP (TO TVCINIT4 OR MRCLEAN)
000111:
000112:                                                                                                 #  ALARM OR ABORT EXIT MODES....NONE
000113:
000114:                                                                                                 #  SUBROUTINES CALLED....
000115:
000116:                                                                                                 #       *PCOPY+1, YCOPY+1 (PITCH AND YAW COPYCYCLES)
000117:                                                                                                 #       *ENABLE1,2, CMDSOUT (RE-ESTABLISH ACTUATOR TRIMS)
000118:                                                                                                 #       *MRCLEAN OR TVCINIT4 (TVCDAP INITIALIZATIONS)
000119:                                                                                                 #       *SWITCHOVR +5 (CSM/LM V46 SWITCH-OVER)
000120:                                                                                                 #       *EXRSTRT AND TVCEXECUTIVE PHASE POINTS 1 THRU 6
000121:                                                                                                 #       *WAITLIST, IBNKCALL, POSTJUMP, ISWCALL
000122:
000123:                                                                                                 #  OTHER INTERFACES....DOTVCON AND RCSDAPON (T5 BITS), ELRSKIP (CALLS IT)
000124:
000125:                                                                                                 #  ERASABLE ININTIALIZATION REQUIRED....
000126:
000127:                                                                                                 #       *T5 BITS (1,0), TVCPHASE (-2,-1,0,1,2,3), TVCEXPHS (1 THRU 6)
000128:                                                                                                 #       *TVC DAP VARIABLES
000129:                                                                                                 #       *OPERATIONS PERFORMED BY REDOTVC ARE BASED ON THE ASSUMPTION THAT
000130:                                                                                                 #         THE TVC DAPS ARE RUNNING NORMALLY
000131:
000132:                                                                                                 #  OUTPUT....
000133:
000134:                                                                                                 #       *PITCH AND YAW TVC DAP COPYCYCLES COMPLETED IF INTERRUPTED
000135:                                                                                                 #       *TVCEXECUTIVE COMPLETED IF INTERRUPTED
000136:                                                                                                 #       *STROKE TEST TERMINATED IF INTERRUPTED
000137:                                                                                                 #       *CSM/LM V46 SWITCH-OVER REPEATED IF INTERRUPTED
000138:                                                                                                 #       *ACTUATOR TRIMS RE-ESTABLISHED (ACTUATORS BACK ON THE AIR)
000139:                                                                                                 #       *TVC DAP INITIALIZATION AS REQUIRED
000140:                                                                                                 #       *ALL TVC DAP OPERATIONS ON THE AIR
000141:
000142:                                                                                                 #  DEBRIS....TVC TEMPORARIES IN EBANK6
000143:
000144:                                                                                                 # Page 958
000145:
000146: 16,3140                                          BANK     16
000147: 16,2000                                          SETLOC   DAPROLL
000148: 16,2000                                          BANK
000149: 16,3140  E6,1644                                 EBANK=   TVCPHASE
000150: 16,3140                                          COUNT*   $$/RSRT
000151:
000152: 16,3140           22016        REDOTVC           LXCH     BANKRUPT                              #  TVC RESTART PACKAGE
000153: 16,3141           00006                          EXTEND
000154: 16,3142           22012                          QXCH     QRUPT                                 #  ("TCR" IN "FINCOPY")
000155:
000156: 16,3143           11651        EXECPHS           CCS      TVCEXPHS                              #  CHECK TVCEXECUTIVE PHASE
000157: 16,3144           13146                          TCF      +2                                    #         MUST RESTART TVCEXECUTIVE
000158: 16,3145           13152                          TCF      TVCDAPHS                              #         NO NEED TO RESTART TVCEXECUTIVE
000159:
000160: 16,3146           34334                          CAF      NINE                                  #  9CS DELAY TO FORCE EXRSTRT TO OCCUR
000161: 16,3147           05245                          TC       WAITLIST                              #         BEFORE PITCHDAP, AFTER CMDSOUT
000162: 16,3150  E6,1651                                 EBANK=   TVCEXPHS
000163: 16,3150           03253 34066                    2CADR    EXRSTRT
000164:
000165: 16,3152           47700        TVCDAPHS          CS       OCT37776                              #  CHECK BITS 15 AND 1 OF TVCPHASE TO SEE
000166: 16,3153           71644                          MASK     TVCPHASE                              #         DAP RESTART LOCATION (-1,1,2,3)
000167: 16,3154           10000                          CCS      A
000168: 16,3155           13240                          TCF      FINCOPY                               #         FINISH THE COPYCYCLE FIRST
000169: 16,3156           13163                          TCF      ENABL1                                #         JUST PREPARE THE OUTCOUNTERS AND GO
000170:
000171: 16,3157           41644                          CS       TVCPHASE                              #  TEST FOR TVCPHASE = -2
000172: 16,3160           75016                          MASK     BIT2                                  #         (THIS INDICATES RESTART OCCURRED
000173: 16,3161           00006                          EXTEND                                         #          DURING CSM/LM V46 SWITCH-OVER)
000174: 16,3162           13244                          BZF      TRIM/CMD                              #  NO. TVCPHASE = -1. RSTRT WAS IN TVCINIT
000175:
000176: 16,3163           35010        ENABL1            CAF      BIT8                                  #  TVC ENABLE, FOLLOWED BY 40 MS (MIN) WAIT
000177: 16,3164           65005                          AD       BIT11                                 #         SET BIT FOR OPTICS-DAC-ENABLE ALSO
000178: 16,3165           00006                          EXTEND                                         #         (ENABL1 ENTERED FROM TVCDAPHS / FINCOPY)
000179: 16,3166           05012                          WOR      CHAN12
000180: 16,3167           33257                          CAF      TVCADDR                               #  WAIT, CALLING ENABL2 (BBCON THERE)
000181: 16,3170           55312                          TS       T5LOC
000182: 16,3171           33263                          CAF      TVCADDR    +4                         #         60 MS (TVCEXADR)
000183: 16,3172           54030                          TS       TIME5
000184:
000185: 16,3173           15333                          TCF      RESUME
000186:
000187: 16,3174           22016        ENABL2            LXCH     BANKRUPT                              #  CONTINUE PREPARATION OF OUTCOUNTERS
000188:
000189: 16,3175           35016                          CAF      BIT2                                  #  OPTICS ERROR CNTR ENABLE, 4MS MIN WAIT
000190: 16,3176           00006                          EXTEND
000191: 16,3177           05012                          WOR      CHAN12
000192:                                                                                                 #  Page 959
000193: 16,3200           33261                          CAF      TVCADDR    +2                         #  WAIT, CALLING CMDSOUT (BBCON THERE)
000194: 16,3201           55312                          TS       T5LOC
000195: 16,3202           37700                          CAF      OCT37776                              #         20MS
000196: 16,3203           54030                          TS       TIME5
000197:
000198: 16,3204           15335                          TCF      NOQRSM
000199:
000200: 16,3205           22016        CMDSOUT           LXCH     BANKRUPT                              #  CONTNUE PREPARATION OF OUTCOUNTERS
000201: 16,3206           00006                          EXTEND
000202: 16,3207           22012                          QXCH     QRUPT
000203:
000204: 16,3210           45021                          CS       ZERO                                  #  MOST RECENT ACTUATOR COMMANDS
000205: 16,3211           61623                          AD       PCMD                                  #         (AVOID +0)
000206: 16,3212           54054                          TS       TVCPITCH
000207: 16,3213           45021                          CS       ZERO
000208: 16,3214           61624                          AD       YCMD
000209: 16,3215           54053                          TS       TVCYAW
000210:
000211: 16,3216           35062                          CAF      PRIO6                                 #  RELEASE THE COUNTERS (BITS 11,12)
000212: 16,3217           00006                          EXTEND
000213: 16,3220           05014                          WOR      CHAN14
000214:
000215: 16,3221           11644        PHSCHK2           CCS      TVCPHASE                              #  CHECK TVCPHASE AGAIN
000216: 16,3222           13232                          TCF      CHKSTRK
000217: 16,3223           13232                          TCF      CHKSTRK
000218: 16,3224           10000                          CCS      A                                     #  A CONTAINS THE DIMINISHED ABSOLUTE OF
000219: 16,3225           03230                          TC       +3                                    #  TVCPHASE (-2 BECOMES +1. -1 BECOMES +0)
000220:
000221: 16,3226           04701                          TC       POSTJUMP                              #         REPEAT TVC INITIALIZATION
000222: 16,3227           36152                          CADR     MRCLEAN                               #         (DO NOT RETURN)
000223:
000224: 16,3230           04740                 +3       TC       IBNKCALL                              #         REPEAT CSM/LM V46 SWITCH-OVER
000225: 16,3231           36361                          CADR     SWICHOVR   +5                         #         (RETURN TO CHECK FOR STROKE TEST)
000226:
000227: 16,3232           11574        CHKSTRK           CCS      STROKER                               #  CHECK FOR STROKE TEST IN PROGRESS
000228: 16,3233           13250                          TCF      TSTINITJ                              #  YES, KILL IT
000229: 16,3234           13236                          TCF      +2                                    #  NO, PROCEED
000230: 16,3235           13250                          TCF      TSTINITJ                              #  YES, KILL IT
000231:
000232: 16,3236           04701                 +4       TC       POSTJUMP                              #         IF POSITIVE OR ZERO, RESTART AT
000233: 16,3237           36324                          CADR     TVCINIT4                              #                 TVCINIT4 (ZEROS TVCPHASE, AND
000234:                                                                                                 #                 CALLS TVC DAPS VIA DAPINIT)
000235: 16,3240           51644        FINCOPY           INDEX    TVCPHASE                              #  PICK UP THE APPROPRIATE COPYCYCLE
000236: 16,3241           33257                          CAF      TVCCADR
000237: 16,3242           04744                          TCR      ISWCALL                               #  RE-ENTER THE COPYCYCLE, RETURN AT END
000238: 16,3243           13163                          TCF      ENABL1                                #  NOW PREPARE THE OUTCOUNTERS
000239:
000240: 16,3244           00006        TRIM/CMD          EXTEND                                         #  TVCDAPON INITIALIZATION NOT COMPLETED,
000241:                                                                                                 #  Page 960
000242: 16,3245           31424                          DCA      PACTOFF                               #         EG. P,YCMD MAY NOT BE SET.  SET...
000243: 16,3246           53624                          DXCH     PCMD
000244: 16,3247           13163                          TCF      ENABL1                                #  NOW PREPARE THE OUTCOUNTERS
000245:
000246: 16,3250           35021        TSTINITJ          CAF      ZERO                                  #  DISABLE STROKE TEST (-0 SHOWS PRIOR V68)
000247: 16,3251           55574                          TS       STROKER                               #  (+0 MEANS NEW V68 REQUIRED FOR STARTUP)
000248:
000249: 16,3252           13236                          TCF      CHKSTRK    +4
000250:
000251: 16,3253           51651        EXRSTRT           INDEX    TVCEXPHS                              #  TVCEXECUTIVE RESTARTS....GO TO
000252: 16,3254           33263                          CAF      TVCEXADR                              #         APPROPRIATE RESTART POINT
000253: 16,3255           50000                          INDEX    A
000254: 16,3256           10000                          TCF      0
000255:
000256:                                                                                                 #  Page 961
000257:                                                                                                 #  TVC RESTART TABLES.... ORDER IS REQUIRED.  HI-ORDER WORDS ONLY, OF 2CADRS, SINCE BBCON IS ALREADY THERE.
000258:
000259: 16,3257  16,3257               TVCADDR           =        TVCCADR                               #  TABLE OF CADRS, UNUSED LOCS FOR GENADRS
000260: 16,3257           03174        TVCCADR           GENADR   ENABL2                                #  (FOR T5 CALL, UNUSED TABLE LOC)
000261: 16,3260           40675                 +1       CADR     PCOPY      +1                         #  PITCH COPYCYCLE
000262: 16,3261           03205                 +2       GENADR   CMDSOUT                               #  (FOR T5 CALL, UNUSED TABLE LOC)
000263: 16,3262           41051                 +3       CADR     YCOPY      +1                         #  YAW COPYCYCLE
000264: 16,3263           37772        TVCEXADR          OCT      37772                                 #  (UNUSED TABLE LOC, FILL WITH 60MS, T5)
000265: 16,3264           03003                 +1       GENADR   EXECCOPY   +1                         #  TVCEXECUTIVE RESTART POINTS (ORDERED)
000266: 16,3265           03011                 +2       GENADR   1SHOTCHK
000267: 16,3266           03040                 +3       GENADR   TEMPSET
000268: 16,3267           03043                 +4       GENADR   CORSETUP
000269: 16,3270           03121                 +5       GENADR   CORCOPY    +1
000270: 16,3271           03132                 +6       GENADR   CNTRCOPY
000271:
000272:

End of include-file TVCRESTARTS.agc.  Parent file is MAIN.agc


