
Source Code


000002:                                                                                                  ## Copyright:   Public domain.
000003:                                                                                                  ## Filename:    TVCRESTARTS.agc
000004:                                                                                                  ## Purpose:     Part of the source code for Colossus 2A, AKA Comanche 055.
000005:                                                                                                  ##              It is part of the source code for the Command Module's (CM)
000006:                                                                                                  ##              Apollo Guidance Computer (AGC), for Apollo 11.
000007:                                                                                                  ## Assembler:   yaYUL
000008:                                                                                                  ## Contact:     Ron Burkey <info@sandroid.org>.
000009:                                                                                                  ## Website:     www.ibiblio.org/apollo.
000010:                                                                                                  ## Pages:       956-960
000011:                                                                                                  ## Mod history: 2009-05-13 RSB  Adapted from the Colossus249/ file of the
000012:                                                                                                  ##                              same name, using Comanche055 page images.
000013:                                                                                                  ##              2009-05-20 RSB  Corrections:  TCF -> BZF in one place.
000014:                                                                                                  ##              2009-05-21 RSB  In PHSCHK2, CS TVCPHASE corrected to
000015:                                                                                                  ##                              CCS TVCPHASE and CCS 4 corrected to CCS A.
000016:                                                                                                  ##                              "Page 924" corrected to 961.  CORCOPY +2
000017:                                                                                                  ##                              corrected to CORCOPY +1.
000018:                                                                                                  ##              2010-08-24 JL   Fixed page 958 number. Fixed some indentation.
000019:                                                                                                  ##              2016-12-21 RSB  Proofed comment text using octopus/ProoferComments
000020:                                                                                                  ##                              and corrected the errors found.
000021:                                                                                                  ##
000022:                                                                                                  ## This source code has been transcribed or otherwise adapted from digitized
000023:                                                                                                  ## images of a hardcopy from the MIT Museum.  The digitization was performed
000024:                                                                                                  ## by Paul Fjeld, and arranged for by Deborah Douglas of the Museum.  Many
000025:                                                                                                  ## thanks to both.  The images (with suitable reduction in storage size and
000026:                                                                                                  ## consequent reduction in image quality as well) are available online at
000027:                                                                                                  ## www.ibiblio.org/apollo.  If for some reason you find that the images are
000028:                                                                                                  ## illegible, contact me at info@sandroid.org about getting access to the
000029:                                                                                                  ## (much) higher-quality images which Paul actually created.
000030:                                                                                                  ##
000031:                                                                                                  ## Notations on the hardcopy document read, in part:
000032:                                                                                                  ##
000033:                                                                                                  ##      Assemble revision 055 of AGC program Comanche by NASA
000034:                                                                                                  ##      2021113-051.  10:28 APR. 1, 1969
000035:                                                                                                  ##
000036:                                                                                                  ##      This AGC program shall also be referred to as
000037:                                                                                                  ##                      Colossus 2A
000038:


000040:                                                                                                  #  NAME....TVCRESTART PACKAGE, CONSISTING OF REDOTVC, ENABL1, 2, CMDSOUT, PHSCHK2, ETC.
000041:                                                                                                  #  LOG SECTION...TVCRESTARTS                     SUBROUTINE...DAPCSM
000042:                                                                                                  #  MODIFIED BY SCHLUNDT                          21 OCTOBER 1968
000043:
000044:                                                                                                  #  FUNCTIONAL DESCRIPTION....
000045:
000046:                                                                                                  #       *RESTART-PROOFS THE TVC DAPS, INCLUDING PITCHDAP, YAWDAP,
000047:                                                                                                  #        TVCEXECUTIVE, ROLLDAP, TVCINIT4, TVCDAPON, AND CSM/.M V46 SWTCHOVR.
000048:
000049:                                                                                                  #       *TVC RESTARTS DESERVE SPECIAL CONSIDERATION IN SEVERAL AREAS.
000050:                                                                                                  #        RESTART DOWN-TIME IS IMPORTANT BECAUSE OF THE TRANSIENTS INTRODUCED
000051:                                                                                                  #        BY THE THRUST VECTOR RETURN TO THE ACTUATOR MECHANICAL NULLS
000052:                                                                                                  #        FOLLOWING TVC- AND OPTICS-ERROR-COUNTER-DISENABLES (CHANNEL 12).
000053:                                                                                                  #        TVC USES A MIXTURE OF WAITLIST, T5, T6, AND JOB CALLS.  THERE IS
000054:                                                                                                  #        FILTER MEMORY (UP TO 6TH ORDER) TO BE PROTECTED IF WILD TRANSIENTS
000055:                                                                                                  #        ARE TO BE AVOIDED.  COUNTERS ARE INVOLVED FOR ONE-SHOT
000056:                                                                                                  #        CORRECTIONS AND GAIN UPDATES.  THE GIMBAL TRIM ESTIMATORS AND THE
000057:                                                                                                  #        BODY AXIS ATTITUDE ERROR INTEGRATORS INVOLVE DIGITAL SUMMATION.
000058:                                                                                                  #        DIGITAL DIFFERENTIATORS ARE INVOLVED IN THE BODY AXIS RATE ESTIMA-
000059:                                                                                                  #        TIONS AND IN THE OUTPUTTING OF ACTUATOR COMMANDS.  THERE IS AN
000060:                                                                                                  #        OFFSET-TRACKER-FILTER TO PROTECT.  ETC., ETC.
000061:
000062:                                                                                                  #       *THOSE QUANTITIES WHICH MUST BE PROTECTED ARE STORED IN TEMPORARY
000063:                                                                                                  #        REGISTERS AS THEY ARE COMPUTED, FOR UPDATING THE REAL REGISTERS
000064:                                                                                                  #        DURING COPYCYCLES.
000065:
000066:                                                                                                  #       *THE SEVERAL COPYCYCLES ARE EACH PROTECTED BY PHASE POINTS AT THEIR
000067:                                                                                                  #        BEGINNING AND AT THEIR TERMINATION.  THE PHASE POINTS ARE SIMPLY
000068:                                                                                                  #        ..INCR.. INSTRUCTIONS, EITHER ..INCR TVCEXPHS.. FOR COPYCYCLES
000069:                                                                                                  #        IN THE TVCEXECUTIVE, OR ..INCR TVCPHASE.. FOR THE PITCH AND YAW
000070:                                                                                                  #        COPYCYCLES.  INDEXING ON EACH OF THESE POINTERS THEN PERMITS A
000071:                                                                                                  #        RETURN TO THE APPROPRIATE RESTART POINTS.
000072:
000073:                                                                                                  #       *IF A RESTART OCCURS DURING EITHER COPYCYCLE, THAT COPYCYCLE IS
000074:                                                                                                  #        COMPLETED.  THEN THE NORMAL TVCINIT4....DAPINIT....PITCHDAP STARTUP
000075:                                                                                                  #        SEQUENCE IS CALLED UPON TO GET THINGS GOING AGAIN.
000076:
000077:                                                                                                  #       *TVC-ENABLE AND OPTICS-ERROR-COUNTER ENABLE MUST BE SET ASAP
000078:                                                                                                  #        (ALLOWING FOR PROCEDURAL DELAYS).  THEN THE ENGINES ARE COMMANDED
000079:                                                                                                  #        TO THE P,YACTOFF TRIM VALUES.  THE DAPS ARE THEN READY TO GO ON THE
000080:                                                                                                  #        AIR, WITH THE REGULAR STARTUP SEQUENCE, EITHER AT MRCLEAN FOR A
000081:                                                                                                  #        COMPLETE INITIALIZATION OR AT TVCINIT4 FOR A PARTIAL INITIALIZATION
000082:
000083:                                                                                                  #       *FOR RESTARTS PRIOR TO THE SETTING OF THE T5 BITS AT DOTVCON THE
000084:                                                                                                  #        PRE40.6 SECTION OF S40.6 TAKES CARE OF RE-ESTABLISHING TRIMS.
000085:
000086:                                                                                                  #       *IF A RESTART OCCURS DURING THE TVCEXEC....TVCEXFIN SEQUENCE THE
000087:                                                                                                  #        COMPUTATIONS WILL BE COMPLETED, STARTING AT THE APPROPRIATE RESTART
000088:                                                                                                  #        POINT, AFTER THE DAPS ARE READY TO GO ON THE AIR.
000089:
000090:                                                                                                  #       *IF A RESTART OCCURS PRIOR TO TVCINIT4 (TVCPHASE = -1) E.G. DURING
000091:                                                                                                  #        THE EARLY DAP INITIALIZATION PHASE, THE DAP STARTUP SEQUENCE IS
000092:                                                                                                  #        ENTERED AT MRCLEAN FOR A FULL INITIALIZATION.
000093:
000094:                                                                                                  #       *FOR RESTARTS DURING CSM/LM V46 SWITCH-OVER, TVCPHASE IS SET TO -2.
000095:                                                                                                  #        AND THE RESTART LOGIC GOES BACK TO REDO SWITCH-OVER (AFTER THE
000096:                                                                                                  #        NORMAL DAP RESTART SEQUENCE IS FOLLOWED).
000097:
000098:                                                                                                  #       *RESTARTS ARE NOT CRITICAL TO THE ROLL DAP PERFORMANCES HENCE THE
000099:                                                                                                  #        THE ROLL DAP IS MERELY RESTARTED.
000100:
000101:                                                                                                  #       *RESTARTS DURING A STROKE TEST (STROKER IS NON-ZERO) WILL CAUSE THE


000103:                                                                                                  #        STROKE TEST TO BE TERMINATED.  A NEW V68 ENTRY WILL BE REQUIRED
000104:                                                                                                  #        TO GET IT GOING AGAIN (NO AUTOMATIC RESTART).
000105:                                                                                                  #
000106:                                                                                                  #       *REDOTVC IS REACHED FOLLOWING ANY RESTART WHICH FINDS THE T5 BITS
000107:                                                                                                  #        (BITS 15,14 OF FLAGWRD6) SET FOR TVC.  DOTVCON SETS TVCPHASE = -1
000108:                                                                                                  #        AND TVC EXPHS = 0 JUST BEFORE SETTING THESE BITS, JUST BEFORE
000109:                                                                                                  #        MAKING THE T5 CALL TO TVCDAPON.  ON A NORMAL SHUTDOWN DOTVCRCS
000110:                                                                                                  #        CALLS RCSDAPON, WHICH RESETS THE T5 BITS FOR RCS.
000111:
000112:                                                                                                  #  CALLING SEQUENCE....T5, IN PARTICULAR BY ELRSKIP OF FRESH START/RESTART
000113:
000114:                                                                                                  #  NORMAL EXIT MODES....RESUME, NOQRSM, POSTJUMP (TO TVCINIT4 OR MRCLEAN)
000115:
000116:                                                                                                  #  ALARM OR ABORT EXIT MODES....NONE
000117:
000118:                                                                                                  #  SUBROUTINES CALLED....
000119:
000120:                                                                                                  #       *PCOPY+1, YCOPY+1 (PITCH AND YAW COPYCYCLES)
000121:                                                                                                  #       *ENABLE1,2, CMDSOUT (RE-ESTABLISH ACTUATOR TRIMS)
000122:                                                                                                  #       *MRCLEAN OR TVCINIT4 (TVCDAP INITIALIZATIONS)
000123:                                                                                                  #       *SWICHOVR +5 (CSM/LM V46 SWITCH-OVER)
000124:                                                                                                  #       *EXRSTRT AND TVCEXECUTIVE PHASE POINTS 1 THRU 6
000125:                                                                                                  #       *WAITLIST, IBNKCALL, POSTJUMP, ISWCALL
000126:
000127:                                                                                                  #  OTHER INTERFACES....DOTVCON AND RCSDAPON (T5 BITS), ELRSKIP (CALLS IT)
000128:
000129:                                                                                                  #  ERASABLE INITIALIZATION REQUIRED....
000130:
000131:                                                                                                  #       *T5 BITS (1,0), TVCPHASE (-2,-1,0,1,2,3), TVCEXPHS (1 THRU 6)
000132:                                                                                                  #       *TVC DAP VARIABLES
000133:                                                                                                  #       *OPERATIONS PERFORMED BY REDOTVC ARE BASED ON THE ASSUMPTION THAT
000134:                                                                                                  #        THE TVC DAPS ARE RUNNING NORMALLY
000135:
000136:                                                                                                  #  OUTPUT....
000137:
000138:                                                                                                  #       *PITCH AND YAW TVC DAP COPYCYCLES COMPLETED IF INTERUPTED
000139:                                                                                                  #       *TVCEXECUTIVE COMPLETED IF INTERUPTED
000140:                                                                                                  #       *STROKE TEST TERMINATED IF INTERRUPTED
000141:                                                                                                  #       *CSM/LM V46 SWITCH-OVER REPEATED IF INTERRUPTED
000142:                                                                                                  #       *ACTUATOR TRIMS RE-ESTABLISHED (ACTUATORS BACK ON THE AIR)
000143:                                                                                                  #       *TVC DAP INITIALIZATION AS REQUIRED
000144:                                                                                                  #       *ALL TVC DAP OPERATIONS ON THE AIR
000145:
000146:                                                                                                  #  DEBRIS....TVC TEMPORARIES IN EBANK6
000147:


000149:
000150: 16,3140                                           BANK     16
000151: 16,2000                                           SETLOC   DAPROLL
000152: 16,2000                                           BANK
000153: 16,3140  E6,1644                                  EBANK=   TVCPHASE
000154: 16,3140                                           COUNT*   $$/RSRT
000155:
000156: 16,3140           22016        REDOTVC            LXCH     BANKRUPT                              #  TVC RESTART PACKAGE
000157: 16,3141           00006                           EXTEND
000158: 16,3142           22012                           QXCH     QRUPT                                 #  (..TCR.. IN ..FINCOPY..)
000159:
000160: 16,3143           11651        EXECPHS            CCS      TVCEXPHS                              #  CHECK TVCEXECUTIVE PHASE
000161: 16,3144           13146                           TCF      +2                                    #        MUST RESTART TVCEXECUTIVE
000162: 16,3145           13152                           TCF      TVCDAPHS                              #        NO NEED TO RESTART TVCEXECUTIVE
000163:
000164: 16,3146           34334                           CAF      NINE                                  #  9CS DELAY TO FORCE EXRSTRT TO OCCUR
000165: 16,3147           05245                           TC       WAITLIST                              #        BEFORE PITCHDAP, AFTER CMDSOUT
000166: 16,3150  E6,1651                                  EBANK=   TVCEXPHS
000167: 16,3150           03253 34066                     2CADR    EXRSTRT
000168:
000169: 16,3152           47700        TVCDAPHS           CS       OCT37776                              #  CHECK BITS 15 AND 1 OF TVCPHASE TO SEE
000170: 16,3153           71644                           MASK     TVCPHASE                              #        DAP RESTART LOCATION (-1,1,2,3)
000171: 16,3154           10000                           CCS      A
000172: 16,3155           13240                           TCF      FINCOPY                               #        FINISH THE COPYCYCLE FIRST
000173: 16,3156           13163                           TCF      ENABL1                                #        JUST PREPARE THE OUTCOUNTERS AND GO
000174:
000175: 16,3157           41644                           CS       TVCPHASE                              #  TEST FOR TVCPHASE = -2
000176: 16,3160           75016                           MASK     BIT2                                  #        (THIS INDICATES RESTART OCCURRED
000177: 16,3161           00006                           EXTEND                                         #         DURING CSM/LM V46 SWITCH-OVER)
000178: 16,3162           13244                           BZF      TRIM/CMD                              #  NO. TVCPHASE = -1. RSTRT WAS IN TVCINIT
000179:
000180: 16,3163           35010        ENABL1             CAF      BIT8                                  #  TVC ENABLE, FOLLOWED BY 40 MS (MIN) WAIT
000181: 16,3164           65005                           AD       BIT11                                 #        SET BIT FOR OPTICS-DAC-ENABLE ALSO
000182: 16,3165           00006                           EXTEND                                         #        (ENABL1 ENTERED FROM TVCDAPHS / FINCOPY)
000183: 16,3166           05012                           WOR      CHAN12
000184: 16,3167           33257                           CAF      TVCADDR                               #  WAIT, CALLING ENABL2 (BBCON THERE)
000185: 16,3170           55312                           TS       T5LOC
000186: 16,3171           33263                           CAF      TVCADDR    +4                         #        60 MS (TVCEXADR)
000187: 16,3172           54030                           TS       TIME5
000188:
000189: 16,3173           15333                           TCF      RESUME
000190:
000191: 16,3174           22016        ENABL2             LXCH     BANKRUPT                              #  CONTINUE PREPARATION OF OUTCOUNTERS
000192:
000193: 16,3175           35016                           CAF      BIT2                                  #  OPTICS ERROR CNTR ENABLE, 4MS MIN WAIT
000194: 16,3176           00006                           EXTEND
000195: 16,3177           05012                           WOR      CHAN12


000197: 16,3200           33261                           CAF      TVCADDR    +2                         #  WAIT, CALLING CMDSOUT (BBCON THERE)
000198: 16,3201           55312                           TS       T5LOC
000199: 16,3202           37700                           CAF      OCT37776                              #        20MS
000200: 16,3203           54030                           TS       TIME5
000201:
000202: 16,3204           15335                           TCF      NOQRSM
000203:
000204: 16,3205           22016        CMDSOUT            LXCH     BANKRUPT                              #  CONTINUE PREPARATION OF OUTCOUNTERS
000205: 16,3206           00006                           EXTEND
000206: 16,3207           22012                           QXCH     QRUPT
000207:
000208: 16,3210           45021                           CS       ZERO                                  #  MOST RECENT ACTUATOR COMMANDS
000209: 16,3211           61623                           AD       PCMD                                  #        (AVOID +0)
000210: 16,3212           54054                           TS       TVCPITCH
000211: 16,3213           45021                           CS       ZERO
000212: 16,3214           61624                           AD       YCMD
000213: 16,3215           54053                           TS       TVCYAW
000214:
000215: 16,3216           35062                           CAF      PRIO6                                 #  RELEASE THE COUNTERS (BITS 11,12)
000216: 16,3217           00006                           EXTEND
000217: 16,3220           05014                           WOR      CHAN14
000218:
000219: 16,3221           11644        PHSCHK2            CCS      TVCPHASE                              #  CHECK TVCPHASE AGAIN
000220: 16,3222           13232                           TCF      CHKSTRK
000221: 16,3223           13232                           TCF      CHKSTRK
000222: 16,3224           10000                           CCS      A                                     #  A CONTAINS THE DIMINISHED ABSOLUTE OF
000223: 16,3225           03230                           TC       +3                                    #  TVCPHASE (-2 BECOMES +1. -1 BECOMES +0)
000224:
000225: 16,3226           04701                           TC       POSTJUMP                              #        REPEAT TVC INITIALIZATION
000226: 16,3227           36152                           CADR     MRCLEAN                               #        (DO NOT RETURN)
000227:
000228: 16,3230           04740                 +3        TC       IBNKCALL                              #        REPEAT CSM/LM V46 SWITCH-OVER
000229: 16,3231           36361                           CADR     SWICHOVR   +5                         #        (RETURN TO CHECK FOR STROKE TEST)
000230:
000231: 16,3232           11574        CHKSTRK            CCS      STROKER                               #  CHECK FOR STROKE TEST IN PROGRESS
000232: 16,3233           13250                           TCF      TSTINITJ                              #  YES, KILL IT
000233: 16,3234           13236                           TCF      +2                                    #  NO, PROCEED
000234: 16,3235           13250                           TCF      TSTINITJ                              #  YES, KILL IT
000235:
000236: 16,3236           04701                 +4        TC       POSTJUMP                              #        IF POSITIVE OR ZERO, RESTART AT
000237: 16,3237           36324                           CADR     TVCINIT4                              #                TVCINIT4 (ZEROS TVCPHASE, AND
000238:                                                                                                  #                CALLS TVC DAPS VIA DAPINIT)
000239: 16,3240           51644        FINCOPY            INDEX    TVCPHASE                              #  PICK UP THE APPROPRIATE COPYCYCLE
000240: 16,3241           33257                           CAF      TVCCADR
000241: 16,3242           04744                           TCR      ISWCALL                               #  RE-ENTER THE COPYCYCLE, RETURN AT END
000242: 16,3243           13163                           TCF      ENABL1                                #  NOW PREPARE THE OUTCOUNTERS
000243:
000244: 16,3244           00006        TRIM/CMD           EXTEND                                         #  TVCDAPON INITIALIZATION NOT COMPLETED,


000246: 16,3245           31424                           DCA      PACTOFF                               #        EG. P,YCMD MAY NOT BE SET.  SET...
000247: 16,3246           53624                           DXCH     PCMD
000248: 16,3247           13163                           TCF      ENABL1                                #  NOW PREPARE THE OUTCOUNTERS
000249:
000250: 16,3250           35021        TSTINITJ           CAF      ZERO                                  #  DISABLE STROKE TEST (-0 SHOWS PRIOR V68)
000251: 16,3251           55574                           TS       STROKER                               #  (+0 MEANS NEW V68 REQUIRED FOR STARTUP)
000252:
000253: 16,3252           13236                           TCF      CHKSTRK    +4
000254:
000255: 16,3253           51651        EXRSTRT            INDEX    TVCEXPHS                              #  TVCEXECUTIVE RESTARTS....GO TO
000256: 16,3254           33263                           CAF      TVCEXADR                              #        APPROPRIATE RESTART POINT
000257: 16,3255           50000                           INDEX    A
000258: 16,3256           10000                           TCF      0
000259:
000260:                                                                                                  #  TVC RESTART TABLES.... ORDER IS REQUIRED.  HI-ORDER WORDS ONLY, OF 2CADRS, SINCE BBCON IS ALREADY THERE.
000261:
000262: 16,3257  16,3257               TVCADDR            =        TVCCADR                               #  TABLE OF CADRS, UNUSED LOCS FOR GENADRS
000263: 16,3257           03174        TVCCADR            GENADR   ENABL2                                #  (FOR T5 CALL, UNUSED TABLE LOC)
000264: 16,3260           40675                 +1        CADR     PCOPY      +1                         #  PITCH COPYCYCLE
000265: 16,3261           03205                 +2        GENADR   CMDSOUT                               #  (FOR T5 CALL, UNUSED TABLE LOC)
000266: 16,3262           41051                 +3        CADR     YCOPY      +1                         #  YAW COPYCYCLE
000267: 16,3263           37772        TVCEXADR           OCT      37772                                 #  (UNUSED TABLE LOC, FILL WITH 60MS, T5)
000268: 16,3264           03003                 +1        GENADR   EXECCOPY   +1                         #  TVCEXECUTIVE RESTART POINTS (ORDERED)
000269: 16,3265           03011                 +2        GENADR   1SHOTCHK
000270: 16,3266           03040                 +3        GENADR   TEMPSET
000271: 16,3267           03043                 +4        GENADR   CORSETUP
000272: 16,3270           03121                 +5        GENADR   CORCOPY    +1
000273: 16,3271           03132                 +6        GENADR   CNTRCOPY

End of include-file TVCRESTARTS.agc.  Parent file is MAIN.agc


