
Source Code


000002:                                                                                                  ## Copyright:   Public domain.
000003:                                                                                                  ## Filename:    TVCSTROKETEST.agc
000004:                                                                                                  ## Purpose:     Part of the source code for Colossus 2A, AKA Comanche 055.
000005:                                                                                                  ##              It is part of the source code for the Command Module's (CM)
000006:                                                                                                  ##              Apollo Guidance Computer (AGC), for Apollo 11.
000007:                                                                                                  ## Assembler:   yaYUL
000008:                                                                                                  ## Contact:     Ron Burkey <info@sandroid.org>.
000009:                                                                                                  ## Website:     www.ibiblio.org/apollo.
000010:                                                                                                  ## Pages:       979-983
000011:                                                                                                  ## Mod history: 2009-05-13 RSB  Adapted from the Colossus249/ file of the
000012:                                                                                                  ##                              same name, using Comanche055 page images.
000013:                                                                                                  ##              2010-08-24 JL   Fixed page 983 number. Fixed some indentation.
000014:                                                                                                  ##              2016-12-21 RSB  Proofed comment text using octopus/ProoferComments
000015:                                                                                                  ##                              and corrected the errors found.
000016:                                                                                                  ##              2017-01-20 RSB  Fixed comment-text errors noted while diff'ing
000017:                                                                                                  ##                              vs Colossus 249.
000018:                                                                                                  ##
000019:                                                                                                  ## This source code has been transcribed or otherwise adapted from digitized
000020:                                                                                                  ## images of a hardcopy from the MIT Museum.  The digitization was performed
000021:                                                                                                  ## by Paul Fjeld, and arranged for by Deborah Douglas of the Museum.  Many
000022:                                                                                                  ## thanks to both.  The images (with suitable reduction in storage size and
000023:                                                                                                  ## consequent reduction in image quality as well) are available online at
000024:                                                                                                  ## www.ibiblio.org/apollo.  If for some reason you find that the images are
000025:                                                                                                  ## illegible, contact me at info@sandroid.org about getting access to the
000026:                                                                                                  ## (much) higher-quality images which Paul actually created.
000027:                                                                                                  ##
000028:                                                                                                  ## Notations on the hardcopy document read, in part:
000029:                                                                                                  ##
000030:                                                                                                  ##      Assemble revision 055 of AGC program Comanche by NASA
000031:                                                                                                  ##      2021113-051.  10:28 APR. 1, 1969
000032:                                                                                                  ##
000033:                                                                                                  ##      This AGC program shall also be referred to as
000034:                                                                                                  ##                      Colossus 2A
000035:


000037:                                                                                                  #  NAME          STROKE TEST PACKAGE             (INCLUDING INITIALIZATION PACKAGE)
000038:                                                                                                  #  LOG SECTION...TVCSTROKETEST                   SUBROUTINE...DAPCSM
000039:                                                                                                  #  MODIFIED BY SCHLUNDT                          21 OCTOBER 1968
000040:
000041:                                                                                                  #  FUNCTIONAL DESCRIPTION....
000042:                                                                                                  #        STROKE TEST PACKAGE GENERATES A WAVEFORM DESIGNED TO EXCITE BENDING
000043:                                                                                                  #        STRKTSTI (STROKE TEST INITIALIZATION) IS CALLED AS A JOB BY VB68.
000044:                                                                                                  #                IT INITIALIZES ALL ERASABLES REQD FOR A STROKE TEST, AND
000045:                                                                                                  #                THEN TESTS FOR CSM/LM (BIT 13 OF DAPDATR1). IF CSM/LM,
000046:                                                                                                  #                IN EITHER HIGH OR LOW-BANDWIDTH MODE, THE TEST IS STARTED
000047:                                                                                                  #                IMMEDIATELY.  IF NOT CSM/LM, PROGRAM EXITS WITH NO ACTION.
000048:                                                                                                  #        HACK (STROKE TEST) GENERATES THE WAVEFORM BY DUMPING PULSE BURSTS
000049:                                                                                                  #                OF PROPER SIGN AND IN PROPER SEQUENCE DIRECTLY INTO
000050:                                                                                                  #                TVCPITCH, WORKING IN CONJUNCITON WITH BOTH PITCH AND YAW
000051:                                                                                                  #                TVC DAPS, WITH INTERMEDIATE WAITLIST CALLS.  NOTE, HOWEVER
000052:                                                                                                  #                THAT THE STROKE TEST IS PERFORMED ONLY IN THE PITCH AXIS.
000053:                                                                                                  #                AN EXAMPLE WAVEFORM IS GIVEN BELOW, TO DEMONSTRATE STROKE-
000054:                                                                                                  #                TEST PARAMETER SELECTION
000055:                                                                                                  #        RESTARTS CAUSE TEST TO BE TERMINATED.  ANOTHER V68 REQD IF TEST
000056:                                                                                                  #                IS TO BE RE-RUN.
000057:                                                                                                  #        PULSE BURST SIZE IS PAD-LOADED (ESTROKER) SO THAT AMPLITUDE OF
000058:                                                                                                  #                WAVEFORM CAN BE CHANGED.  THERE ARE TEN PULSE BURSTS IN
000059:                                                                                                  #                THE HALF-AMPLITUDE OF THE FIRST FREQUENCY SET IN THE
000060:                                                                                                  #                STANDARD WAVEFORM.  AMPLITUDE IS 10(ESTROKER)(1/42.15),
000061:                                                                                                  #                NOMINALLY 50/42.15 = 1.185 DEG
000062:
000063:                                                                                                  #  CALLING SEQUENCE....
000064:                                                                                                  #        EXTENDED VERB 68 SETS UP STRKTSTI JOB
000065:                                                                                                  #        PITCH AND YAW TVCDAPS, FINDING STROKER NON-ZERO, DO A ..TC HACK..
000066:                                                                                                  #        AN INTERNALLY-GENERATED WAITLIST CALL ENTERS AT ..HACKWLST..
000067:
000068:                                                                                                  #  NORMAL EXIT MODES....
000069:                                                                                                  #        TC BUNKER (..Q.. IF ENTRY FROM DAP, ..TCTSKOVR.. IF FROM WAITLIST) LIST
000070:
000071:                                                                                                  #  SUBROUTINES CALLED....
000072:                                                                                                  #        WAITLIST
000073:
000074:                                                                                                  #  ALARM OR ABORT EXIT MODES....
000075:                                                                                                  #        NONE
000076:
000077:                                                                                                  #  ERASABLE INITIALIZATION REQUIRED....
000078:                                                                                                  #        ESTROKER (PAD-LOAD)
000079:                                                                                                  #        STROKER, CADDY, REVS, CARD, N
000080:
000081:                                                                                                  #  OUTPUT....
000082:                                                                                                  #        STRKTSTI...INITIALIZATION FOR STROKE TEST
000083:                                                                                                  #        HACK, HACKWLST...PULSE BURSTS INTO TVCPITCH VIA ..ADS..
000084:                                                                                                  #                          RESETS STROKER = +0 WHEN TEST COMPLETED
000085:
000086:                                                                                                  #  DEBRIS....
000087:                                                                                                  #        N = CADDY = +0, CARD = -0, REVS = -1
000088:                                                                                                  #        BUNKER


000090:
000091:                                                                                                  #  EXAMPLE STROKE TEST WAVE FORM, DEMONSTRATING PARAMETER SELECTION
000092:
000093:                                                                                                  #  NOTE....THIS IS NOT THE OFFICIAL WAVEFORM....
000094:
000095:                                                                                                  #         **              **
000096:                                                                                                  #         **              **
000097:                                                                                                  #         **              **             EXAMPLE WAVEFORM (EACH * REPRESENTS
000098:                                                                                                  #        *  *            *  *                 85.41 ARCSEC OF ACTUATOR CMND)
000099:                                                                                                  #        *  *            *  *
000100:                                                                                                  #        *  *            *  *
000101:                                                                                                  #       *    *          *    *          **      **      **      **      **
000102:                                                                                                  #       *    *          *    *          **      **      **      **      **
000103:                                                                                                  #       *    *          *    *          **      **      **      **      **
000104:                                                                                                  #      *      *        *      *        *  *    *  *    *  *    *  *    *  *    **  **  **  **  **
000105:                                                                                                  #      *      *        *      *        *  *    *  *    *  *    *  *    *  *    **  **  **  **  **
000106:                                                                                                  #      *      *        *      *        *  *    *  *    *  *    *  *    *  *    **  **  **  **  **
000107:                                                                                                  #  -----------------------------------------------------------------------------------------------------
000108:                                                                                                  #              *      *        *      *    *  *    *  *    *  *    *  *    *  *  **  **  **  **  **
000109:                                                                                                  #              *      *        *      *    *  *    *  *    *  *    *  *    *  *  **  **  **  **  **
000110:                                                                                                  #              *      *        *      *    *  *    *  *    *  *    *  *    *  *  **  **  **  **  **
000111:                                                                                                  #               *    *          *    *      **      **      **      **      **
000112:                                                                                                  #               *    *          *    *      **      **      **      **      **
000113:                                                                                                  #               *    *          *    *      **      **      **      **      **
000114:                                                                                                  #                *  *            *  *
000115:                                                                                                  #                *  *            *  *
000116:                                                                                                  #                *  *            *  *
000117:                                                                                                  #                 **              **
000118:                                                                                                  #                 **              **
000119:                                                                                                  #                 **              **
000120:
000121:                                                                                                  #  FOR THIS (UNOFFICIAL, EXAMPLE) WAVEFORM, THE REQUIRED PARAMETERS ARE AS FOLLOWS....
000122:
000123:                                                                                                  #        FCARD    = +3           (NUMBER OF SETS)
000124:                                                                                                  #        ESTROKER = +3           (PULSE BURST SIZE, SC.AT 85.41 ARCSEC/BIT)
000125:
000126:                                                                                                  #        SET1..
000127:                                                                                                  #                FREVS   = +3    (NUMBER REVERSALS MINUS 1)
000128:                                                                                                  #                FCADDY  = +4    (NUMBER OF PULSE BURSTS IN 1/2 AMPLITUDE)
000129:                                                                                                  #        SET2..
000130:                                                                                                  #                FCARD1  = +9    (NUMBER REVERSALS MINUS 1)
000131:                                                                                                  #                FCARD4  = +2    (NUMBER OF PULSE BURSTS IN 1/2 AMPLITUDE)
000132:                                                                                                  #        SET3..
000133:                                                                                                  #                FCARD2  = +9    (NUMBER REVERSALS MINUS 1)
000134:                                                                                                  #                FCARD5  = +1    (NUMBER OF PULSE BURSTS IN 1/2 AMPLITUDE)
000135:                                                                                                  #        SET4..
000136:                                                                                                  #                FCARD3  = +0    (NUMBER REVERSALS MINUS 1)
000137:                                                                                                  #                FCARD6  = +0    (NUMBER OF PULSE BURSTS IN 1/2 AMPLITUDE)
000138:


000140:                                                                                                  #  STROKE TEST INITIALIZATION PACKAGE (AS A JOB, FROM VERB 68)
000141:
000142: 17,2552                                           BANK     17
000143: 20,2000                                           SETLOC   DAPS2
000144: 20,2000                                           BANK
000145:
000146: 20,3501                                           COUNT*   $$/STRK
000147: 20,3501  E6,1655                                  EBANK=   CADDY
000148:
000149: 20,3501           03512        STRKTSTI           TCR      TSTINIT                               #  STROKE TEST INITIALIZATION PKG (CALLED
000150:                                                                                                  #  AS A JOB BY VERB68)
000151:
000152: 20,3502           00004        STRKCHK            INHINT
000153:
000154: 20,3503           31466                           CAE      DAPDATR1                              #  CHECK FOR CSM/LM CONFIGURATION
000155: 20,3504           75002                           MASK     BIT14
000156: 20,3505           00006                           EXTEND
000157: 20,3506           13511                           BZF      +3
000158:
000159: 20,3507           31413                           CAE      ESTROKER                              #  BEGIN ON NEXT DAP PASS (PITCH OR YAW)
000160: 20,3510           55574                           TS       STROKER                               #  (STROKING DONE IN PITCH ONLY, HOWEVER)
000161:
000162: 20,3511           15217                           TCF      ENDOFJOB
000163:
000164: 20,3512           43522        TSTINIT            CS       FCADDY                                #  NORMAL ENTRY FROM STRKTSTI
000165: 20,3513           55655                           TS       CADDY
000166: 20,3514           55656                           TS       N                                     #        NOTE SGN CHNG FCADDY(+) TO CADDY(-)
000167:
000168: 20,3515           33523                           CAF      FREVS
000169: 20,3516           55660                           TS       REVS
000170:
000171: 20,3517           43524                           CS       FCARD                                 #        NOTE SGN CHNG FCARD(+) TO CARD(-)
000172: 20,3520           55661                           TS       CARD
000173:
000174: 20,3521           00002                           TC       Q                                     #  RETURN TO STRKTSTI+1 (OR CHKSTRK+2 OR +4)
000175:


000177:                                                                                                  #  THE OFFICIAL STROKE TEST WAVEFORM (3 JAN, 1967) CONSISTS OF FOUR STROKE SETS, AS FOLLOWS....
000178:
000179:                                                                                                  #        SET 1...10 BURSTS IN 1/2 AMP,   4 REVERSALS
000180:                                                                                                  #        SET 2... 6 BURSTS IN 1/2 AMP,   6 REVERSALS
000181:                                                                                                  #        SET 3... 5 BURSTS IN 1/2 AMP,  10 REVERSALS
000182:                                                                                                  #        SET 4... 4 BURSTS IN 1/2 AMP,  14 REVERSALS
000183:
000184:                                                                                                  #  THE PULSE BURST SIZE (ESTROKER) IS PAD-LOADED (5 BITS AS OF 3 JAN, 1967)
000185:                                                                                                  #  THE REMAINING WAVEFORM-GENERATING PARAMETERS ARE AS FOLLOWS....
000186:
000187: 20,3522           00012        FCADDY             DEC      10         B-14                       #  NO. PULSE BURSTS IN 1/2 AMP, SET1..(+10)
000188: 20,3523           00003        FREVS              DEC      3          B-14                       #  NO. REVERSALS MINUS 1, SET1........(  3)
000189:
000190: 20,3524           00004        FCARD              DEC      4          B-14                       #  NO. STROKE SETS....................(+ 4)
000191:
000192: 20,3525           00005        FCARD1             DEC      5          B-14                       #  NO. REVERSALS MINUS 1, SET2........(  5)
000193:
000194: 20,3526           00011        FCARD2             DEC      9          B-14                       #                            3........(  9)
000195: 20,3527           00015        FCARD3             DEC      13         B-14                       #                            4........( 13)
000196:
000197: 20,3530           00006        FCARD4             DEC      6          B-14                       #  NO. PULSE BURSTS IN 1/2 AMP, SET2..(+ 6)
000198: 20,3531           00005        FCARD5             DEC      5          B-14                       #                               SET3..(+ 5)
000199: 20,3532           00004        FCARD6             DEC      4          B-14                       #                               SET4..(+ 4)
000200:
000201: 20,3533     5016               20MS               =        BIT2
000202:
000203:                                                                                                  #  STROKE TEST PACKAGE PROPER....
000204:
000205: 20,3533  E6,1657                                  EBANK=   BUNKER
000206:
000207: 20,3533           00006        HACK               EXTEND                                         #  ENTRY (IN T5 RUPT) FROM TVCDAPS
000208: 20,3534           23657                           QXCH     BUNKER                                #  SAVE Q FOR DAP RETURN
000209:
000210: 20,3535           35016                           CAF      20MS                                  #  2DAPSX2(PASSES/DAP)X2(CS/PASS)=8CS=TVCDT
000211: 20,3536           05245                           TC       WAITLIST
000212: 20,3537  E6,1657                                  EBANK=   BUNKER
000213: 20,3537           03542 40066                     2CADR    HACKWLST
000214:
000215: 20,3541           13544                           TCF      +3
000216:
000217: 20,3542           34367        HACKWLST           CAF      TCTSKOVR                              #  ENTRY FROM WAITLIST
000218: 20,3543           55657                           TS       BUNKER                                #  BUNKER IS TC TASKOVER
000219:
000220: 20,3544           31574                           CA       STROKER                               #  STROKE
000221: 20,3545           26054                           ADS      TVCPITCH
000222:
000223: 20,3546           35005                           CAF      BIT11                                 #  RELEASE THE ERROR COUNTERS
000224: 20,3547           00006                           EXTEND
000225: 20,3550           05014                           WOR      CHAN14
000226: 20,3551           25655                           INCR     CADDY                                 #  COUNT DOWN THE NO. BURSTS, THIS SLOPE


000228: 20,3552           41655                           CS       CADDY
000229: 20,3553           00006                           EXTEND
000230: 20,3554           63556                           BZMF     +2
000231: 20,3555           01657                           TC       BUNKER                                #  EXIT, WHILE ON A SLOPE
000232:
000233: 20,3556           11660                           CCS      REVS
000234: 20,3557           13577                           TCF      REVUP                                 #  POSITIVE REVS
000235: 20,3560           13603                           TCF      REVUP      +4                         #  FINAL REVERSAL, THIS SET
000236:
000237: 20,3561           25661                           INCR     CARD                                  #  NEGATIVE REVS SET LAST PASS, READY FOR
000238: 20,3562           41661                           CS       CARD                                  #        THE NEXT SET.  CHECK IF NO MORE SETS
000239: 20,3563           00006                           EXTEND
000240: 20,3564           13575                           BZF      STROKILL                              #  ALL SETS COMPLETED
000241:
000242: 20,3565           51661                           INDEX    CARD
000243: 20,3566           33530                           CAF      FCARD      +4                         #  PICK UP NO. REVERSALS (-), NEXT SET
000244: 20,3567           55660                           TS       REVS                                  #  REINITIALIZE
000245: 20,3570           51661                           INDEX    CARD
000246: 20,3571           43533                           CS       FCARD      +7                         #  PICK UP NO. BURSTS IN 1/2AMP, NEXT SET
000247: 20,3572           55656                           TS       N                                     #  REINITIALIZE
000248: 20,3573           55655                           TS       CADDY
000249: 20,3574           01657                           TC       BUNKER                                #  EXIT, AT END OF SET
000250:
000251: 20,3575           55574        STROKILL           TS       STROKER                               #  RESET (TO +0) TO END TEST
000252: 20,3576           01657                           TC       BUNKER                                #  EXIT, STROKE TEST FINIS
000253:
000254: 20,3577           55660        REVUP              TS       REVS                                  #  ALL REVERSALS EXCEPT LAST OF SET
000255: 20,3600           31656                           CA       N
000256: 20,3601           60000                           DOUBLE                                         #  2 X 1/2AMP
000257: 20,3602           13606                           TCF      +4
000258:
000259: 20,3603           45017                 +4        CS       ONE                                   #  FINAL REVERSAL, THIS SET
000260: 20,3604           55660                           TS       REVS                                  #  PREPARE TO BRANCH TO NEW BURST
000261: 20,3605           31656                           CA       N                                     #  JUST RETURN TO ZERO, FINAL SLOPE OF SET
000262: 20,3606           55655                           TS       CADDY                                 #  CADUP
000263:
000264: 20,3607           41574                           CS       STROKER                               #  CHANGE SIGN OF SLOPE
000265: 20,3610           55574                           TS       STROKER
000266: 20,3611           01657                           TC       BUNKER                                #  EXIT AT A REVERSAL (SLOPE CHANGE)
000267:

End of include-file TVCSTROKETEST.agc.  Parent file is MAIN.agc


