
Source Code
000001:                                                                                                 #  Copyright:    Public domain.
000002:                                                                                                 #  Filename:     UPDATE_PROGRAM.agc
000003:                                                                                                 #  Purpose:      Part of the source code for Comanche, build 055. It
000004:                                                                                                 #                is part of the source code for the Command Module's
000005:                                                                                                 #                (CM) Apollo Guidance Computer (AGC), Apollo 11.
000006:                                                                                                 #  Assembler:    yaYUL
000007:                                                                                                 #  Reference:    pp. 1497-1507
000008:                                                                                                 #  Contact:      Ron Burkey <info@sandroid.org>
000009:                                                                                                 #  Website:      http://www.ibiblio.org/apollo.
000010:                                                                                                 #  Mod history:  2009-05-07 RSB   Adapted from Colossus249/UPDATE_PROGRAM.agc
000011:                                                                                                 #                                 and page images. Corrected various typos
000012:                                                                                                 #                                 in the transcription of program comments,
000013:                                                                                                 #                                 and these should be back-ported to
000014:                                                                                                 #                                 Colossus249.
000015:
000016:                                                                                                 #  The contents of the "Comanche055" files, in general, are transcribed
000017:                                                                                                 #  from scanned documents.
000018:
000019:                                                                                                 #        Assemble revision 055 of AGC program Comanche by NASA
000020:                                                                                                 #        2021113-051.  April 1, 1969.
000021:
000022:                                                                                                 #        This AGC program shall also be referred to as Colossus 2A
000023:
000024:                                                                                                 #        Prepared by
000025:                                                                                                 #                        Massachussets Institute of Technology
000026:                                                                                                 #                        75 Cambridge Parkway
000027:                                                                                                 #                        Cambridge, Massachusetts
000028:
000029:                                                                                                 #        under NASA contract NAS 9-4065.
000030:
000031:                                                                                                 #  Refer directly to the online document mentioned above for further
000032:                                                                                                 #  information.  Please report any errors to info@sandroid.org.
000033:
000034:                                                                                                 #  Page 1497
000035:                                                                                                 #  PROGRAM NAME:          P27
000036:                                                                                                 #  WRITTEN BY:            KILROY/ DE WOLF
000037:
000038:                                                                                                 #  MOD NO:                0
000039:                                                                                                 #  MOD BY:                KILROY
000040:                                                                                                 #  DATE:                  01DEC67
000041:
000042:                                                                                                 #  LOG SECTION:           UPDATE PROGRAM.
000043:
000044:                                                                                                 #  FUNCT. DESCR.: P27 (THE UPDATE PROGRAM) PROCESSES COMMANDS AND DATA
000045:                                                                                                 #                         INSERTIONS REQUESTED BY THE GROUND VIA UPLINK.
000046:                                                                                                 #                         THE P27 PROGRAM WILL ACCEPT UPDATES
000047:                                                                                                 #                         ONLY DURING P00 FOR THE LM, AND ONLY DURINT P00,
000048:                                                                                                 #                         P02, AND FRESH START FOR THE CSM.
000049:
000050:                                                                                                 #  CALLING SEQ:           PROGRAM IS INITIATED BY UPLINK ENTRY OF VERBS 70, 71, 72, AND 73.
000051:
000052:                                                                                                 #  SUBROUTINES:           TESTXACT, NEWMODEX, NEWMODEX +3, GOXDSPF, BANKCALL, FINDVAC, INTPRET, INTSTALL, TPAGREE,
000053:                                                                                                 #                         INTWAKEU, ENDEXT, POSTJUMP, FALTON, NEWPHASE, PHASCHNG
000054:
000055:                                                                                                 #  NORMAL EXIT:           TC ENDEXT
000056:
000057:                                                                                                 #  ALARM/ABORT:           TC FALTON FOLLOWED BY TC ENDEXT
000058:
000059:                                                                                                 #  RESTARTS:              P27 IS RESTART PROTECTED IN TWO WAYS ...
000060:                                                                                                 #                         1.      PRIOR TO VERIFLAG INVERSION (WHICH IS CAUSED BY THE GROUND/ASTRONAUT'S VERIFICATION OF UPDATE
000061:                                                                                                 #                                 DATA BY SENDING A V33E WHEN V21N02 IS FLASHING)---
000062:                                                                                                 #                                 NO PROTECTION EXCEPT PRE-P27 MODE IS RESTROED, COAST + ALIGN DOWNLIST IS SELECTED AND UPLINE
000063:                                                                                                 #                                 ACTIVITY LIGHT IS TURNED OFF.  (JUST AS IF A V34E WAS SENT DURING P27 DATA LOADS).
000064:                                                                                                 #                                 V70,V71,V72, OR V73 WILL HAVE TO BE COMPLETELY RESENT BY USER.
000065:                                                                                                 #                         2.      AFTER VERIFLAG INVERSION (WHEN UPDATE OF THE SPECIFIED ERASABLES IS BEING PERFORMED)---
000066:                                                                                                 #                                 PROTECTED AGAINST RESTARTS.
000067:
000068:                                                                                                 #  DEBRIS:                UPBUFF  (20D)   TEMP STORAGE FOR ADDRESSES AND CONTENTS.
000069:                                                                                                 #                         UPVERB  (1)     VERB NUMBER MINUS 70D (E.G., FOR V72, UPVERB = 72D - 70D = 2)
000070:                                                                                                 #                         UPOLDMOD(1)     FOR MAJOR MODE INTERRUPTED BY P27.
000071:                                                                                                 #                         COMPNUMB(1)     TOTAL NUMBER OF COMPONENTS TO BE TRANSMITTED.
000072:                                                                                                 #                         UPCOUNT (1)     ACTUAL NUMBER OF COMPONENTS RECEIVED.
000073:                                                                                                 #                         UPTEMP  (1)     SCRATCH, BUT USUALLY CONTAINS COMPONENT NUMBER TO BE CHANGED DURING VERIFY CYCLE.
000074:
000075:                                                                                                 #  INPUT:
000076:
000077:                                                                                                 #         ENTRY                   DESCRIPTION
000078:                                                                                                 #         V70EXXXXXEXXXXXE        (LIFTOFF TIME INCREMENT) DOUBLE PRECISION OCTAL TIME INCREMENT, XXXXX XXXXX,
000079:                                                                                                 #                                 IS ADDED TO TEPHEM, SUBTRACTED FROM AGC CLOCK(TIME2,TIME1), SUBTRACTED FROM CSM STATE
000080:                                                                                                 #                                 VECTOR TIME(TETCSM) AND SUBTRACTED FROM LEM STATE VECTOR TIME(TETLEM).
000081:                                                                                                 #                                 THE DP OCTAL TIME INCREMENT IS SCALED AT 2(28).
000082:                                                                                                 #  Page 1498
000083:                                                                                                 #         V71EIIEAAAAE            (CONTIGUOUS BLOCK UPDATE) II-2 OCTAL COMPONENTS, XXXXX,
000084:                                                                                                 #         XXXXXE                  ARE LOADED INTO ERASABLE STARTING AT ECADR, AAAA.
000085:                                                                                                 #         XXXXXE                  IT IS .GE. 3 .AND. .LE. 20D.,
000086:                                                                                                 #                                 AND (AAAA + II -3) DOES NOT PRODUCE AN ADDRESS IN THE
000087:                                                                                                 #         9 NEXT BANK
000088:                                                                                                 #           .                     SCALING IS SAME AS INTERNAL REGISTERS.
000089:                                                                                                 #         V72EIIE                 (SCATTER UPDATE) (II-1)/2 OCTAL COMPONENTS, XXXXX, ARE
000090:                                                                                                 #         AAAAEXXXXXE             LOADED INTO ERASABLE LOCATIONS, AAAA.
000091:                                                                                                 #         AAAAEXXXXXE             II IS .GE. 3 .AND. .LE. 19D, AND MUST BE ODD.
000092:                                                                                                 #           .                     SCALING IS SAME AS INTERNAL REGISTERS.
000093:
000094:                                                                                                 #         V73EXXXXXEXXXXXE        (OCTAL CLOCK INCREMENT) DOUBLE PRECISION OCTAL TIME
000095:                                                                                                 #                                 INCREMENT XXXXX XXXXX, IS ADDED TO THE AGC CLOCK, IN
000096:                                                                                                 #                                 CENTISECONDS SCALED AT (2)28).
000097:                                                                                                 #                                 THIS LOAD IS THE OCTAL EQUIVALENT OF V55.
000098:
000099:                                                                                                 #  OUTPUT:                IN ADDITION TO THE ABOVE REGISTER LOADS, ALL UPDATES
000100:                                                                                                 #                         COMPLEMENT BIT3 OF FLAGWORD7.
000101:
000102:                                                                                                 #  ADDITIONAL NOTES:      VERB 71, JUST DEFINED ABOVE WILL BE USED TO PERFORM BUT NOT LIMITED TO THE FOLLOWING UPDATES --
000103:                                                                                                 #                         1.  CSM/LM STATE VECTOR UPDATE
000104:                                                                                                 #                         2.  REFSMMAT UPDATE
000105:
000106:                                                                                                 #         THE FOLLOWING COMMENTS DELINEATE EACH SPECIAL UPDATE ---
000107:
000108:                                                                                                 #         1.  CSM/LM STATE VECTOR UPDATE (ALL DATA ENTRIES IN OCTAL)
000109:                                                                                                 #                 ENTRIES:        DATA DEFINITION:                                SCALE FACTORS:
000110:                                                                                                 #                 V71E            CONTIGUOUS BLOCK UPDATE VERB
000111:                                                                                                 #                    21E          NUMBER OF COMPONENTS FOR STATE VECTOR UPDATE
000112:                                                                                                 #                  AAAAE          ECADR OF `UPSVFLAG'
000113:                                                                                                 #                 XXXXXE          STATE VECTOR IDENTIFIER: 00001 FOR CSM, 77776 FOR LEM -- EARTH SPHERE OF INFLUENCE SCALING
000114:                                                                                                 #                                                          00002 FOR CSM, 77775 FOR LEM -- LUNAR SPHERE OF INFLUENCE SCALING
000115:                                                                                                 #                 XXXXXEXXXXXE    X POSITION
000116:                                                                                                 #                 XXXXXEXXXXXE    Y POSITION
000117:                                                                                                 #                 XXXXXEXXXXXE    Z POSITION
000118:                                                                                                 #                 XXXXXEXXXXXE    X VELOCITY
000119:                                                                                                 #                 XXXXXEXXXXXE    Y VELOCITY
000120:                                                                                                 #                 XXXXXEXXXXXE    Z VELOCITY
000121:                                                                                                 #                 XXXXXEXXXXXE    TIME FROM AGC CLOCK ZERO
000122:                                                                                                 #                 V33E            VERB 33 TO SIGNAL THAT THE STATE VECTOR IS READY TO BE STORED.
000123:
000124:                                                                                                 #         2.  REFSMMAT (ALL DATA ENTRIES IN OCTAL)
000125:                                                                                                 #                 ENTRIES         DATA DEFINITITIONS                              SCALE FACTORS:
000126:                                                                                                 #  Page 1499
000127:                                                                                                 #                 V71E            CONTIGUOUS BLOCK UPDATE VERB
000128:                                                                                                 #                    24E          NUMBER OF COMPONENTS FOR REFSMMAT UPDATE
000129:                                                                                                 #                  AAAAE          ECADR OF `REFSMMAT'
000130:                                                                                                 #                 XXXXXEXXXXXE    ROW 1 COLUMN 1                                  2(-1)
000131:                                                                                                 #                 XXXXXEXXXXXE    ROW 1 COLUMN 2                                  2(-1)
000132:                                                                                                 #                 XXXXXEXXXXXE    ROW 1 COLUMN 3                                  2(-1)
000133:                                                                                                 #                 XXXXXEXXXXXE    ROW 2 COLUMN 1                                  2(-1)
000134:                                                                                                 #                 XXXXXEXXXXXE    ROW 2 COLUMN 2                                  2(-1)
000135:                                                                                                 #                 XXXXXEXXXXXE    ROW 2 COLUMN 3                                  2(-1)
000136:                                                                                                 #                 XXXXXEXXXXXE    ROW 3 COLUMN 1                                  2(-1)
000137:                                                                                                 #                 XXXXXEXXXXXE    ROW 3 COLUMN 2                                  2(-1)
000138:                                                                                                 #                 XXXXXEXXXXXE    ROW 3 COLUMN 3                                  2(-1)
000139:                                                                                                 #                 V33E            VERB 33 TO SIGNAL THAT REFSMMAT IS READY TO BE STORED
000140:
000141: 07,3777                                          BANK     07
000142: 43,2000                                          SETLOC   EXTVERBS
000143: 43,2000                                          BANK
000144:
000145: 43,3726  E3,1706                                 EBANK=   TEPHEM
000146:
000147: 43,3726                                          COUNT*   $$/P27
000148: 43,3726           35021        V70UPDAT          CAF      UP70                                  #  COMES HERE ON V70E
000149: 43,3727           13735                          TCF      V73UPDAT   +1
000150:
000151: 43,3730           35017        V71UPDAT          CAF      UP71                                  #  COMES HERE ON V71E
000152: 43,3731           13735                          TCF      V73UPDAT   +1
000153:
000154: 43,3732           35016        V72UPDAT          CAF      UP72                                  #  COMES HERE ON V72E
000155: 43,3733           13735                          TCF      V73UPDAT   +1
000156:
000157: 43,3734           36214        V73UPDAT          CAF      UP73                                  #  COMES HERE ON V73E
000158:
000159: 43,3735           54331                 +1       TS       UPVERBSV                              #  SAVE UPVERB UNTIL IT'S OK TO ENTER P27
000160:
000161: 43,3736           02076                          TC       TESTXACT                              #  GRAB DISPLAY IF AVAILABLE, OTHERWISE
000162:                                                                                                 #  TURN *OPERATOR ERROR* ON AND TERMINATE JOB
000163:
000164: 43,3737           31011                          CA       MODREG                                #  CHECK IF UPDATE ALLOWED
000165: 43,3740           00006                          EXTEND                                         #  FIRST CHECK FOR MODREG = +0, -0
000166: 43,3741           13743                          BZF      +2                                    #  (+0 = P00, -0 = FRESHSTART)
000167: 43,3742           03753                          TC       CKMDMORE                              #  NOW CHECK FOR PROGRAM WHICH CAN BE
000168:                                                                                                 #  INTERRUPTED BY P27.
000169:
000170: 43,3743           31011                          CAE      MODREG                                #  UPDATE ALLOWED
000171: 43,3744           54301                          TS       UPOLDMOD                              #  SAVE CURRENT MAJOR MODE
000172:                                                                                                 #  Page 1500
000173: 43,3745           30331                          CAE      UPVERBSV                              #  SET UPVERB TO INDICDATE TO P27
000174: 43,3746           54302                          TS       UPVERB                                #  WHICH EXTENDED VERB CALLED IT.
000175:
000176: 43,3747           35017                          CAF      ONE
000177: 43,3750           54303                          TS       UPCOUNT                               #  INITIALIZE UPCOUNT TO 1
000178:
000179: 43,3751           04701                          TC       POSTJUMP                              #  LEAVE EXTENDED VERB BANK AND
000180: 43,3752           57373                          CADR     UPPART2                               #  GO TO UPDATE PROGRAM (P27) BANK.
000181:
000182: 43,3753           40101        CKMDMORE          CS       FLAGWRD5
000183: 43,3754           75010                          MASK     BIT8                                  #  CHECK IF COMPUTER IS LGC
000184: 43,3755           10000                          CCS      A                                     #  IS COMPUER LGC OR AGC
000185: 43,3756           13764        UPERLEM           TCF      UPERROR                               #  ERROR: IT'S THE LEM + MODE IS NOT P00.
000186: 43,3757           45016                          CS       TWO
000187: 43,3760           71011                          MASK     MODREG
000188: 43,3761           10000                          CCS      A
000189: 43,3762           13764        UPERCMC           TCF      UPERROR                               #  ERROR: IT'S THE CMC AND MODE IS NOT
000190:                                                                                                 #  P00 OR P02.
000191: 43,3763           00002                          TC       Q                                     #  ALLOW UPDATE TO PROCEED.
000192:
000193: 43,3764           04701        UPERROR           TC       POSTJUMP                              #  TURN ON 'OPERATOR ERROR' LIGHT
000194: 43,3765           57754                          CADR     UPERROUT   +2                         #  GO TO COMMON UPDATE PROGRAM EXIT
000195:
000196: 43,3766  30,2000                                 SBANK=   LOWSUPER
000197: 43,3766     5021               UP70              EQUALS   ZERO
000198: 43,3766     5017               UP71              EQUALS   ONE
000199: 43,3766     5016               UP72              EQUALS   TWO
000200: 43,3766     6214               UP73              EQUALS   THREE
000201:
000202: 04,3757                                          BANK     04
000203: 27,2000                                          SETLOC   UPDATE2
000204: 27,2000                                          BANK
000205:
000206: 27,3373                                          COUNT*   $$/P27
000207:
000208: 27,3373                        UPPART2           EQUALS                                         #  UPDATE PROGRAM -- PART 2
000209:
000210: 27,3373           05412                          TC       PHASCHNG                              #  SET RESTART GROUP 6 TO RESTORE OLD MODE
000211: 27,3374           07026                          OCT      07026                                 #  AND DOWNLIST AND EXIT IF RESTART OCCURS.
000212: 27,3375           30000                          OCT      30000                                 #  PRIORITY SAME AS CHRPRIO
000213: 27,3376     0304                                 EBANK=   UPBUFF
000214: 27,3376           03704 56060                    2CADR    UPOUT      +1
000215:
000216: 27,3400           35017                          CAF      ONE
000217: 27,3401           54332                          TS       DNLSTCOD                              #  DOWNLIST
000218:
000219: 27,3402           05354                          TC       NEWMODEX                              #  SET MAJOR MODE = 27
000220:                                                                                                 #  Page 1501
000221: 27,3403           00033                          DEC      27         B-14
000222:
000223: 27,3404           50302                          INDEX    UPVERB                                #  BRANCH DEPENDING ON WHETHER THE UPDATE
000224: 27,3405           13406                          TCF      +1                                    #  VERB REQUIRES A FIXED OR VARIABLE NUMBER
000225: 27,3406           13411                          TCF      +3                                    #  V70 FIXED                (OF COMPONENTS)
000226: 27,3407           13414                          TCF      OHWELL1                               #  V71 VARIABLE -- GO GET NO. OF COMPONENTS
000227: 27,3410           13414                          TCF      OHWELL1                               #  V72 VARIABLE -- GO GET NO. OF COMPONENTS
000228: 27,3411           35016                          CA       TWO                                   #  V73 (AND V70) FIXED
000229: 27,3412           54300                          TS       COMPNUMB                              #  SET NUMBER OF COMPONENTS TO 2.
000230: 27,3413           13437                          TCF      OHWELL2                               #  GO GET THE TWO UPDATE COMPONENTS
000231:
000232: 27,3414           33507        OHWELL1           CAF      ADUPBUFF                              #  * REQUEST USER TO SEND NUMBER *
000233: 27,3415           54156                          TS       MPAC       +2                         #  * OF COMPONENTS PARAMETER(II) *
000234: 27,3416           33510                 +2       CAF      UPLOADNV                              #  (CKV432 RETURNS HERE IF V32 ENCOUNTERED)
000235: 27,3417           04662                          TC       BANKCALL                              #  DISPLAY A FLASHING V21N01
000236: 27,3420           20561                          CADR     GOXDSPF                               #  TO REQUEST II.
000237: 27,3421           13704                          TCF      UPOUT4                                #  V32 TERMINATE UPDATE (P27) RETURN
000238: 27,3422           13416                          TCF      OHWELL1    +2
000239: 27,3423           03500                          TC       CK4V32                                #  DATA OR V32 RETURN
000240: 27,3424           45016                          CS       BIT2
000241: 27,3425           60304                          AD       UPBUFF                                #  IS II (NUMBER OF COMPONENTS PARAMETER)
000242: 27,3426           00006                          EXTEND                                         #  .GE. 3 AND .LE. 20D.
000243: 27,3427           63416                          BZMF     OHWELL1    +2
000244: 27,3430           40304                          CS       UPBUFF
000245: 27,3431           64376                          AD       UP21
000246: 27,3432           00006                          EXTEND
000247: 27,3433           63416                          BZMF     OHWELL1    +2
000248: 27,3434           30304                          CAE      UPBUFF
000249: 27,3435           54300                          TS       COMPNUMB                              #  SAVE II IN COMPNUMB
000250:
000251:                                                                                                 #  UPBUFF LOADING SEQUENCE
000252:
000253: 27,3436           24303                          INCR     UPCOUNT                               #  INCREMENT COUNT OF COMPONENTS RECEIVED.
000254: 27,3437           33654        OHWELL2           CAF      ADUPBFM1                              #  CALCULATE LOCATION (ECADR) IN UPBUFF
000255: 27,3440           60303                          AD       UPCOUNT                               #  WHERE NEXT COMPONENT SHOULD BE STORED
000256: 27,3441           54156                 +2       TS       MPAC       +2                         #  PLACE ECADR INTO R3.
000257: 27,3442           33510                 +3       CAF      UPLOADNV                              #  (CK4V32 RETURNS HERE IF V32 ENCOUNTERED)
000258: 27,3443           04662                          TC       BANKCALL                              #  DISPLAY A FLASHING V21N01
000259: 27,3444           20561                          CADR     GOXDSPF                               #  TO REQUEST DATA.
000260: 27,3445           13704                          TCF      UPOUT4                                #  V34 TERMINATE UPDATE (P27) RETURN.
000261: 27,3446           13442                          TCF      OHWELL2    +3                         #  V33 PROCEED RETURN
000262: 27,3447           03500                          TC       CK4V32                                #  DATA OR V32 RETURN
000263: 27,3450           40303                          CS       UPCOUNT                               #  HAVE WE FINISHED RECEIVING ALL
000264: 27,3451           60300                          AD       COMPNUMB                              #  THE DATA WE EXPECTED.
000265: 27,3452           00006                          EXTEND
000266: 27,3453           63455                          BZMF     UPVERIFY                              #  YES -- GO TO VERIFICATION SEQUENCE
000267: 27,3454           13436                          TCF      OHWELL2    -1                         #  NO -- REQUEST ADDITIONAL DATA.
000268:
000269:                                                                                                 #  Page 1502
000270:                                                                                                 #  VERIFY SEQUENCE
000271: 27,3455           33506        UPVERIFY          CAF      ADUPTEMP                              #  PLACE ECADR WHERE COMPONENT NO. INDEX
000272: 27,3456           54156                          TS       MPAC       +2                         #  IS TO BE STORED INTO R3.
000273: 27,3457           33511                          CAF      UPVRFYNV                              #  (CK4V32 RETURNS HERE IF V32 ENCOUNTERED)
000274: 27,3460           04662                          TC       BANKCALL                              #  DISPLAY A FLASHING V21N02 TO REQUEXT
000275: 27,3461           20561                          CADR     GOXDSPF                               #  DATA CORRECTION OR VERIFICATION.
000276: 27,3462           13704                          TCF      UPOUT4                                #  V34 TERMINATE UPDATE (P27) RETURN
000277: 27,3463           13512                          TCF      UPSTORE                               #  V33 DATA SENT IS GOOD.  GO STORE IT.
000278: 27,3464           03500                          TC       CK4V32                                #  COMPONENT NO. INDEX OR V32 RETURN
000279: 27,3465           30330                          CA       UPTEMP                                #  DOES THE COMPONENT NO. INDEX JUST SENT
000280: 27,3466           00006                          EXTEND                                         #  SPECIFY A LEGAL COMPONENT NUMBER?
000281: 27,3467           63455                          BZMF     UPVERIFY                              #  NO, IT IS NOT POSITIVE NONZERO
000282: 27,3470           40330                          CS       UPTEMP
000283: 27,3471           60300                          AD       COMPNUMB
000284: 27,3472           65017                          AD       BIT1
000285: 27,3473           00006                          EXTEND
000286: 27,3474           63455                          BZMF     UPVERIFY                              #  NO
000287: 27,3475           33654                          CAF      ADUPBFM1                              #  YES -- BASED ON THE COMPONENT NO. INDEX
000288: 27,3476           60330                          AD       UPTEMP                                #  CALCULATE THE ECADR OF LOCATION IN
000289: 27,3477           13441                          TCF      OHWELL2    +2                         #  UPBUFF WHICH USER WANTS TO CHANGE.
000290:
000291: 27,3500  27,3704               UPOUT4            EQUALS   UPOUT      +1                         #  COMES HERE ON V34 TC TERMINATE UPDATE.
000292:
000293:                                                                                                 #  CHECK FOR VERB 32 SEQUENCE
000294:
000295: 27,3500           40154        CK4V32            CS       MPAC                                  #  ON DATA RETURN FROM `GOXDSPF'
000296: 27,3501           75012                          MASK     BIT6                                  #  ON DATA RETURN FROM "GOXDSP" & THE CON-
000297: 27,3502           10000                          CCS      A                                     #  TENTS OF MPAC = VERB.  SO TEST FOR V32.
000298: 27,3503           00002                          TC       Q                                     #  IT'S NOT A V32, IT'S DATA.  PROCEED.
000299: 27,3504           50002                          INDEX    Q
000300: 27,3505           77771                          TC       0          -6                         #  V32 ENCOUNTERED -- GO BACK AND GET DATA
000301:
000302: 27,3506           00330        ADUPTEMP          ADRES    UPTEMP                                #  ADDRESS OF TEMP STORAGE FOR CORRECTIONS
000303: 27,3507           00304        ADUPBUFF          ADRES    UPBUFF                                #  ADDRESS OF UPDATE DATA STORAGE BUFFER
000304: 27,3510           05201        UPLOADNV          VN       2101                                  #  VERB 21 NOUN 01
000305: 27,3511           05202        UPVRFYNV          VN       2102                                  #  VERB 21 NOUN 02
000306: 27,3512     4376               UP21              =        MD1                                   #  DEC 21 = MAX NO OF COMPONENTS +1
000307: 27,3512     5022               UPDTPHAS          EQUALS   FIVE
000308:
000309:                                                                                                 #  PRE-STORE AND FAN TO APPROPRIATE BRANCH SEQUENCE
000310:
000311: 27,3512                        UPSTORE           EQUALS                                         #  GROUND HAS VERIFIED UPDATE.  STORE DATA.
000312:
000313: 27,3512           00004                          INHINT
000314:
000315: 27,3513           30103                          CAE      FLAGWRD7                              #  INVERT VERIFLAG (BIT 3 OF FLAGWRD7) TO
000316: 27,3514           56001                          XCH      L                                     #  INDICATE TO THE GROUND (VIA DOWNLINK)
000317: 27,3515           35015                          CAF      BIT3                                  #  THAT THE V33 (WHICH THE GROUND SENT TO
000318:                                                                                                 #  Page 1503
000319: 27,3516           00006                          EXTEND                                         #  VERIFY THE UPDATE) HAS BEEN SUCCESSFULLY
000320: 27,3517           06001                          RXOR     LCHAN                                 #  RECEIVED BY THE UPDATE PROGRAM
000321: 27,3520           54103                          TS       FLAGWRD7
000322:
000323: 27,3521           05412                          TC       PHASCHNG                              #  SET RESTART GROUP 6 TO REDO THE UPDATE
000324: 27,3522           04026                          OCT      04026                                 #  DATA STORE IF A RESTART OCCURS.
000325: 27,3523           00004                          INHINT                                         #  (BECAUSE PHASCHNG DID A RELINT)
000326:
000327: 27,3524           45016                          CS       TWO                                   #  GO TO UPFNDVAC IF INSTALL IS REQUIRED.
000328: 27,3525           60302                          AD       UPVERB                                #  THAT IS, IF IT'S A V70 - V72.
000329: 27,3526           00006                          EXTEND                                         #  GO TO UPEND73 IF IT'S A V73.
000330: 27,3527           63536                          BZMF     UPFNDVAC
000331:
000332:                                                                                                 #  VERB 73 BRANCH
000333:
000334: 27,3530           00006        UPEND73           EXTEND                                         #  V73 -- PERFORM DP OCTAL AGC CLOCK INCREMENT
000335: 27,3531           30305                          DCA      UPBUFF
000336: 27,3532           52315                          DXCH     UPBUFF     +8D
000337: 27,3533           03561                          TC       TIMEDIDL
000338: 27,3534           04400                          TC       FALTON                                #  ERROR -- TURN ON *OPERATOR ERROR* LIGHT
000339: 27,3535           03704                          TC       UPOUT      +1                         #  GO TO COMMON UPDATE PROGRAM EXIT
000340:
000341: 27,3536           34371        UPFNDVAC          CAF      CHRPRIO                               #  (USE EXTENDED VERB PRIORITY)
000342: 27,3537           05147                          TC       FINDVAC                               #  GET VAC AREA FOR `CALL INTSTALL'
000343: 27,3540  E3,1706                                 EBANK=   TEPHEM
000344: 27,3540           03543 56063                    2CADR    UPJOB                                 #  (NOTE:  THIS WILL ALSO SET EBANK FOR
000345: 27,3542           05217                          TC       ENDOFJOB                              #  `TEPHEM' UPDATE BY V70)
000346:
000347: 27,3543           06006        UPJOB             TC       INTPRET                               #  THIS COULD BE A STATE VECTOR UPDATE -- SO
000348: 27,3544           77624                          CALL                                           #  WAIT (PUT JOB TO SLEEP) IF ORBIT INT(OI)
000349: 27,3545           27442                                   INTSTALL                              #  IS IN PROGRESS -- OR -- GRAB OI AND RETURN
000350:                                                                                                 #  TO UPWAKE IF OI IS NOT IN PROGRESS.
000351:
000352: 27,3546           77776        UPWAKE            EXIT
000353:
000354: 27,3547           05412                          TC       PHASCHNG                              #  RESTART PROTECT (GROUP 6)
000355: 27,3550           04026                          OCT      04026
000356:
000357: 27,3551           05546                          TC       UPFLAG                                #  SET INTEGRATION RESTART BIT
000358: 27,3552           00236                          ADRES    REINTFLG
000359: 27,3553           00004                          INHINT
000360: 27,3554                        UPPART3           EQUALS
000361:
000362: 27,3554           50302                          INDEX    UPVERB                                #  BRANCH TO THE APPROPRIATE UPDATE VERB
000363: 27,3555           13556                          TCF      +1                                    #  ROUTINE TO ACTUALLY PERFORM THE UPDATE
000364: 27,3556           13715                          TCF      UPEND70                               #  V70
000365: 27,3557           13624                          TCF      UPEND71                               #  V71
000366: 27,3560           13656                          TCF      UPEND72                               #  V72
000367:
000368:                                                                                                 #  Page 1504
000369:                                                                                                 #  ROUTINE TO INCREMENT CLOCK (TIME2,TIME1) WITH CONTENTS OF DP WORD AT UPBUFF.
000370: 27,3561           00006        TIMEDIDL          EXTEND
000371: 27,3562           22330                          QXCH     UPTEMP                                #  SAVE Q FOR RETURN
000372: 27,3563           35021                          CAF      ZERO                                  #  ZERO AND SAVE TIME2,TIME1
000373: 27,3564           22007                          ZL
000374: 27,3565           52025                          DXCH     TIME2
000375: 27,3566           52327                          DXCH     UPBUFF     +18D                       #  STORE IN CASE OF OVERFLOW
000376:
000377: 27,3567           35022                          CAF      UPDTPHAS                              #  DO
000378: 27,3570           54001                          TS       L                                     #  A
000379: 27,3571           40000                          COM                                            #  QUICK
000380: 27,3572           52765                          DXCH     -PHASE6                               #  PHASCHNG
000381:
000382: 27,3573           00004        TIMEDIDR          INHINT
000383: 27,3574           35021                          CAF      ZERO
000384: 27,3575           22007                          ZL                                             #  PICK UP INCRMENTER (AND ZERO
000385: 27,3576           54156                          TS       MPAC       +2                         #  IT IN CASE OF RESTARTS) AND
000386: 27,3577           52315                          DXCH     UPBUFF     +8D                        #  STORE IT
000387: 27,3600           52155                          DXCH     MPAC                                  #  INTO MPAC FOR TPAGREE.
000388:
000389: 27,3601           00006                          EXTEND
000390: 27,3602           30327                          DCA      UPBUFF     +18D
000391: 27,3603           20155                          DAS      MPAC                                  #  FORM SUM IN MPAC
000392: 27,3604           00006                          EXTEND
000393: 27,3605           13614                          BZF      DELTAOK                               #  TEST FOR OVERFLOW
000394: 27,3606           35021                          CAF      ZERO
000395: 27,3607           52327                          DXCH     UPBUFF     +18D                       #  OVERFLOW, RESTORE OLD VALUE OF CLOCK
000396: 27,3610           20025                          DAS      TIME2                                 #  AND TURN ON OPERATOR ERROR
000397:
000398: 27,3611           05412                          TC       PHASCHNG                              #  RESTART PROTECT (GROUP 6)
000399: 27,3612           04026                          OCT      04026
000400:
000401: 27,3613           00330                          TC       UPTEMP                                #  GO TO ERROR EXIT
000402:
000403: 27,3614           07226        DELTAOK           TC       TPAGREE                               #  FORCE SIGN AGREEMENT
000404: 27,3615           52155                          DXCH     MPAC
000405: 27,3616           20025                          DAS      TIME2                                 #  INCREMENT TIME2,TIME1
000406:
000407: 27,3617           05412                          TC       PHASCHNG                              #  RESTART PROTECT (GROUP 6)
000408: 27,3620           04026                          OCT      04026
000409:
000410: 27,3621           00004                          INHINT
000411: 27,3622           50330                          INDEX    UPTEMP                                #  (CODED THIS WAY FOR RESTART PROTECTION)
000412: 27,3623           00001                          TC       1                                     #  NORMAL RETURN
000413:
000414:                                                                                                 #  VERB 71 BRANCH
000415:
000416: 27,3624           30305        UPEND71           CAE      UPBUFF     +1                         #  SET EBANK
000417: 27,3625           54003                          TS       EBANK                                 #         AND
000418:                                                                                                 #  Page 1505
000419: 27,3626           74373                          MASK     LOW8                                  #  CALCULATE
000420: 27,3627           54330                          TS       UPTEMP                                #  S-REG VALUE OF RECEIVING AREA
000421: 27,3630           67714                          AD       NEG3                                  #  IN THE PROCESS OF
000422: 27,3631           60300                          AD       COMPNUMB                              #  PERFORMING
000423: 27,3632           00006                          EXTEND                                         #  THIS UPDATE
000424: 27,3633           13641                          BZF      STORLP71                              #  WILL WE
000425: 27,3634           75007                          MASK     BIT9                                  #  OVERFLOW
000426: 27,3635           10000                          CCS      A                                     #  INTO THE NEXT EBANK....
000427: 27,3636           13752                          TCF      UPERROUT                              #  YES
000428:
000429: 27,3637           37714                          CA       NEG3                                  #  NO -- CALCULATE NUMBER OF
000430: 27,3640           60300                          AD       COMPNUMB                              #  WORDS TO BE STORED MINUS ONE
000431: 27,3641           54154        STORLP71          TS       MPAC                                  #  SAVE NO. OF WORDS REMAINING MINUS ONE
000432: 27,3642           50000                          INDEX    A                                     #  TAKE NEXT UPDATE WORD FROM
000433: 27,3643           30306                          CA       UPBUFF     +2                         #  UPBUFF AND
000434: 27,3644           54001                          TS       L                                     #  SAVE IT IN L
000435: 27,3645           30154                          CA       MPAC                                  #  CALCULATE NEXT
000436: 27,3646           60330                          AD       UPTEMP                                #  RECEIVING ADDRESS
000437: 27,3647           50000                          INDEX    A
000438: 27,3650  E3,1400                                 EBANK=   1400
000439: 27,3650           23400                          LXCH     1400                                  #  UPDATE THE REGISTER BY CONTENTS OF L
000440: 27,3651  E3,1706                                 EBANK=   TEPHEM
000441: 27,3651           10154                          CCS      MPAC                                  #  ARE THERE ANY WORDS LEFT TO BE STORED
000442: 27,3652           13641                          TCF      STORLP71                              #  YES
000443: 27,3653           13703                          TCF      UPOUT                                 #  NO -- THEN EXIT UPDATE PROGRAM
000444: 27,3654           00303        ADUPBFM1          ADRES    UPBUFF     -1                         #  SAME AS ADUPBUFF BUT LESS 1 (DON'T MOVE)
000445: 27,3655           13703                          TCF      UPOUT                                 #  NO -- EXIT UPDATE (HERE WHEN COMPNUMB = 3)
000446:
000447:                                                                                                 #  VERB 72 BRANCH
000448:
000449: 27,3656           35017        UPEND72           CAF      BIT1                                  #  HAVE AN ODD NO. OF COMPONENTS
000450: 27,3657           70300                          MASK     COMPNUMB                              #  BEEN SENT FOR A V72 UPDATE ...
000451: 27,3660           10000                          CCS      A
000452: 27,3661           13663                          TCF      +2                                    #  YES
000453: 27,3662           13752                          TCF      UPERROUT                              #  ERROR -- SHOULD BE ODD NO. OF COMPONENTS
000454: 27,3663           45016                          CS       BIT2
000455: 27,3664           60300                          AD       COMPNUMB
000456: 27,3665           54154        LDLOOP72          TS       MPAC                                  #  NOW PERFORM THE UPDATE
000457: 27,3666           50000                          INDEX    A
000458: 27,3667           30305                          CAE      UPBUFF     +1                         #  PICK UP NEXT UPDATE WORD
000459: 27,3670           22000                          LXCH     A
000460: 27,3671           10154                          CCS      MPAC                                  #  SET POINTER TO ECADR (MUST BE CCS)
000461: 27,3672           54154                          TS       MPAC
000462: 27,3673           50000                          INDEX    A
000463: 27,3674           30305                          CAE      UPBUFF     +1                         #  PICK UP NEXT ECADR OF REG TO BE UPDATED
000464: 27,3675           54003                          TS       EBANK                                 #  SET EBANK
000465: 27,3676           74373                          MASK     LOW8                                  #  ISOLATE RELATIVE ADDRESS
000466: 27,3677           50000                          INDEX    A
000467:
000468:                                                                                                 #  Page 1506
000469: 27,3700  E3,1400                                 EBANK=   1400
000470: 27,3700           23400                          LXCH     1400                                  #  UPDATE THE REGISTER BY CONTENTS OF L
000471: 27,3701  E3,1706                                 EBANK=   TEPHEM
000472: 27,3701           10154                          CCS      MPAC                                  #  ARE WE THORUGH THE V72 UPDATE...
000473: 27,3702           13665                          TCF      LDLOOP72                              #  NO
000474:
000475:                                                                                                 #  NORMAL FINISH OF P27
000476:
000477: 27,3703                        UPOUT             EQUALS
000478: 27,3703           02671                          TC       INTWAKEU                              #  RELEASE GRAB OF ORBITAL INTEGRATION
000479: 27,3704           30301                 +1       CAE      UPOLDMOD                              #  RESTORE PRIOR P27 MODE
000480: 27,3705           05357                          TC       NEWMODEX   +3
000481: 27,3706           35021                          CAF      ZERO
000482: 27,3707           54332                          TS       DNLSTCOD
000483: 27,3710           03757                          TC       UPACTOFF                              #  TURN OFF `UPLINK ACTIVITY' LIGHT
000484: 27,3711           00006                          EXTEND                                         #  KILL GROUP 6
000485: 27,3712           35021                          DCA      NEG0
000486: 27,3713           52765                          DXCH     -PHASE6
000487:
000488: 27,3714           05534                          TC       ENDEXT                                #  EXTENDED VERB EXIT
000489:
000490:                                                                                                 #  VERB TO BRANCH
000491:
000492: 27,3715           00006        UPEND70           EXTEND                                         #  V70 DOES THE FOLLOWING WITH DP DELTA
000493: 27,3716           40305                          DCS      UPBUFF                                #  TIME IN UPBUFF
000494: 27,3717           52315                          DXCH     UPBUFF     +8D
000495: 27,3720           03561                          TC       TIMEDIDL                              #  DECREMENT AGC CLOCK
000496:
000497: 27,3721           03752                          TC       UPERROUT                              #  ERROR WHILE DECREMENTING CLOCK -- EXIT
000498:
000499: 27,3722  E3,1706                                 EBANK=   TEPHEM
000500: 27,3722           00006                          EXTEND
000501: 27,3723           40305                          DCS      UPBUFF                                #  COPY DECREMENTERS FOR
000502: 27,3724           52317                          DXCH     UPBUFF     +10D                       #  RESTART PROTECTION
000503: 27,3725           00006                          EXTEND
000504: 27,3726           40305                          DCS      UPBUFF
000505: 27,3727           52321                          DXCH     UPBUFF     +12D
000506:
000507: 27,3730           05412                          TC       PHASCHNG                              #  RESTART PROTECT (GROUP 6)
000508: 27,3731           04026                          OCT      04026
000509:
000510: 27,3732           35021                          CAF      ZERO
000511: 27,3733           22007                          ZL
000512: 27,3734           52317                          DXCH     UPBUFF     +10D                       #  DECREMENT CSM STATE VECTOR TIME
000513: 27,3735           21571                          DAS      TETCSM
000514:
000515: 27,3736           35021                          CAF      ZERO
000516:
000517:                                                                                                 #  Page 1507
000518: 27,3737           22007                          ZL
000519: 27,3740           52321                          DXCH     UPBUFF     +12D                       #  DECREMENT LEM STATE VECTOR TIME
000520: 27,3741           21643                          DAS      TETLEM
000521: 27,3742           35021                          CAF      ZERO
000522: 27,3743           22007                          ZL
000523: 27,3744           52305                          DXCH     UPBUFF
000524: 27,3745           21710                          DAS      TEPHEM     +1                         #  INCREMENT TP TEPHEM
000525: 27,3746           27706                          ADS      TEPHEM
000526:
000527: 27,3747           05412                          TC       PHASCHNG                              #  RESTART PROTECT (GROUP 6)
000528: 27,3750           04026                          OCT      04026
000529:
000530: 27,3751     0304                                 EBANK=   UPBUFF
000531:
000532: 27,3751           03703                          TC       UPOUT                                 #  GO TO STANDARD UPDATE PROGRAM EXIT
000533:
000534:                                                                                                 #  ERROR SEQUENCE
000535:
000536: 27,3752           04400        UPERROUT          TC       FALTON                                #  TURN ON *OPERATOR ERROR* LIGHT
000537: 27,3753           13703                          TCF      UPOUT                                 #  GO TO COMMON UPDATE PROGRAM EXIT
000538:
000539: 27,3754           04400                 +2       TC       FALTON                                #  TURN ON `OPERATOR ERROR' LIGHT
000540: 27,3755           03757                          TC       UPACTOFF                              #  TURN OFF `UPLINK ACTIVITY' LIGHT
000541: 27,3756           05534                          TC       ENDEXT                                #  EXTENDED VERB EXIT
000542:                                                                                                 #  (THE PURPOSE OF UPERROUT +2 EXIT IS
000543:                                                                                                 #  TO PROVIDE AN ERROR EXIT WHICH DOES NOT
000544:                                                                                                 #  RESET ANY RESTART GROUPS)
000545:
000546:                                                                                                 #  `UPACTOFF' IS A ROUTINE TO TURN OFF UPLINK ACTIVITY LIGHT ON ALL EXITS FROM UPDATE PROGRAM (P27).
000547:
000548: 27,3757           45015        UPACTOFF          CS       BIT3
000549: 27,3760           00006                          EXTEND                                         #  TURN OFF UPLINK ACTIVITY LIGHT
000550: 27,3761           03011                          WAND     DSALMOUT                              #  (BIT 3 OF CHANNEL 11)
000551: 27,3762           00002                          TC       Q
000552:
000553:
000554:

End of include-file UPDATE_PROGRAM.agc.  Parent file is MAIN.agc


