
Source Code
000001:                                                                                                 #  Copyright:     Public domain.
000002:                                                                                                 #  Filename:      WAITLIST.agc
000003:                                                                                                 #  Purpose:       Part of the source code for Colossus 2A, AKA Comanche 055.
000004:                                                                                                 #                 It is part of the source code for the Command Module's (CM)
000005:                                                                                                 #                 Apollo Guidance Computer (AGC), for Apollo 11.
000006:                                                                                                 #  Assembler:     yaYUL
000007:                                                                                                 #  Contact:       Ron Burkey <info@sandroid.org>.
000008:                                                                                                 #  Website:       www.ibiblio.org/apollo.
000009:                                                                                                 #  Pages: 1221-1235
000010:                                                                                                 #  Mod history:   2009-05-14 RSB  Adapted from the Colossus249/ file of the
000011:                                                                                                 #                                 same name, using Comanche055 page images.
000012:
000013:                                                                                                 #  This source code has been transcribed or otherwise adapted from digitized
000014:                                                                                                 #  images of a hardcopy from the MIT Museum.  The digitization was performed
000015:                                                                                                 #  by Paul Fjeld, and arranged for by Deborah Douglas of the Museum.  Many
000016:                                                                                                 #  thanks to both.  The images (with suitable reduction in storage size and
000017:                                                                                                 #  consequent reduction in image quality as well) are available online at
000018:                                                                                                 #  www.ibiblio.org/apollo.  If for some reason you find that the images are
000019:                                                                                                 #  illegible, contact me at info@sandroid.org about getting access to the
000020:                                                                                                 #  (much) higher-quality images which Paul actually created.
000021:
000022:                                                                                                 #  Notations on the hardcopy document read, in part:
000023:
000024:                                                                                                 #         Assemble revision 055 of AGC program Comanche by NASA
000025:                                                                                                 #         2021113-051.  10:28 APR. 1, 1969
000026:
000027:                                                                                                 #         This AGC program shall also be referred to as
000028:                                                                                                 #                         Colossus 2A
000029:
000030:                                                                                                 #  Page 1221
000031:                                                                                                 #  PROGRAM DESCRIPTION                                            DATE -- 10 OCTOBER 1966
000032:                                                                                                 #  MOD NO -- 2                                                    LOG SECTION -- WAITLIST
000033:                                                                                                 #  MOD BY -- MILLER       (DTMAX INCREASED TO 162.5 SEC)          ASSEMBLY -- SUNBURST REV 5
000034:                                                                                                 #  MOD 3 BY KERNAN        (INHINT INSERTED AT WAITLIST) 2/28/68 SKIPPER REV 4
000035:                                                                                                 #  MOD 4 BY KERNAN        (TWIDDLE IN 54) 3/28/68 SKIPPER REV 13.
000036:
000037:                                                                                                 #  FUNCTIONAL DESCRIPTION --
000038:                                                                                                 #         PART OF A SECTION OF PROGRAMS -- WAITLIST, TASKOVER, T3RUPT, USED TO CALL A PROGRAM (CALLED A TASK),
000039:                                                                                                 #         WHICH IS TO BEGIN IN C(A) CENTISECONDS.  WAITLIST UPDATES TIME3, LST1, AND LST2.  THE MEANING OF THESE LISTS
000040:                                                                                                 #         FOLLOW.
000041:
000042:                                                                                                 #                 C(TIME3) = 16384 -(T1-T) CENTISECONDS, (T=PRESENT TIME, T1-TIME FOR TASK1)
000043:
000044:                                                                                                 #                         C(LST1)         =       -(T2-T1)+1
000045:                                                                                                 #                         C(LST1 +1)      =       -(T3-T2)+1
000046:                                                                                                 #                         C(LST1 +2)      =       -(T4-T3)+1
000047:                                                                                                 #                                        ...
000048:                                                                                                 #                         C(LST1 +6)      =       -(T8-T7)+1
000049:                                                                                                 #                         C(LST1 +7)      =       -(T9-T8)+1
000050:
000051:                                                                                                 #                         C(LST2)         =       2CADR OF TASK1
000052:                                                                                                 #                         C(LST2 +2)      =       2CADR OF TASK2
000053:                                                                                                 #                                        ...
000054:                                                                                                 #                         C(LST2 +14)     =       2CADR OF TASK8
000055:                                                                                                 #                         C(LST2 +16)     =       2CADR OF TASK9
000056:
000057:                                                                                                 #  WARNINGS --
000058:                                                                                                 #         1)      1 <= C(A) <= 16250D (1 CENTISCOND TO 162.5 SEC)
000059:                                                                                                 #         2)      9 TASKS MAXIMUM
000060:                                                                                                 #         3)      TASKS CALLED UNDER INTERRUPT INHIBITED
000061:                                                                                                 #         4)      TASKS END BY TC TASKOVER
000062:
000063:                                                                                                 #  CALLING SEQUENCE --
000064:                                                                                                 #         L-1     CA      DELTAT  (TIME IN CENTISECONDS TO TASK START)
000065:                                                                                                 #         L       TC      WAITLIST
000066:                                                                                                 #         L+1     2CADR   DESIRED TASK
000067:                                                                                                 #         L+2     (MINOR OF 2CADR)
000068:                                                                                                 #         L+3     RELINT          (RETURNS HERE)
000069:
000070:                                                                                                 #  TWIDDLE --
000071:                                                                                                 #         TWIDDLE IS FOR USE WHEN THE TASK BEING SET UP IS IN THE SAME EBANK AND FBANK AS THE USER.  IN
000072:                                                                                                 #         SUCH CASES, IT IMPROVES UPON WAITLIST BY ELIMINATING THE NEED FOR THE BBCON HALF OF THE 2CADR,
000073:                                                                                                 #  Page 1222
000074:                                                                                                 #         SAVING A WORD.  TWIDDLE IS LIKE WAITLIST IN EVERY RESPECT EXCEPT CALLING SEQUENCE, TO WIT,
000075:                                                                                                 #                 L-1     CA      DELTAT
000076:                                                                                                 #                 L       TC      TWIDDLE
000077:                                                                                                 #                 L+1     ADRES   DESIRED TASK
000078:                                                                                                 #                 L+2     RELINT          (RETURNS HERE)
000079:
000080:                                                                                                 #  NORMAL EXIT MODES --
000081:                                                                                                 #         AT L+3 OF CALLING SEQUENCE.
000082:
000083:                                                                                                 #  ALARM OR ABORT EXIT MODES --
000084:                                                                                                 #         TC      ABORT
000085:                                                                                                 #         OCT     1203    (WAITLIST OVERFLOW -- TOO MANY TASKS)
000086:
000087:                                                                                                 #  ERASABLE INITIALIZATION REQUIRED --
000088:                                                                                                 #         ACCOMPLISHED BY FRESH START --  LST2, ..., LST2 +16 = ENDTASK
000089:                                                                                                 #                                         LST1, ..., LST1 +7  = NEG1/2
000090:
000091:                                                                                                 #  OUTPUT --
000092:                                                                                                 #         LST1 AND LST2 UPDATED WITH NEW TASK AND ASSOCIATED TIME.
000093:
000094:                                                                                                 #  DEBRIS --
000095:                                                                                                 #         CENTRALS -- A,Q,L
000096:                                                                                                 #         OTHER    -- WAITEXIT, WAITADR, WAITTEMP, WAITBANK
000097:
000098:                                                                                                 #  DETAILED ANALYSIS OF TIMING --
000099:                                                                                                 #         CONTROL WILL NOT BE RETURNED TO THE SPECIFIED ADDRESS (2CADR) IN EXACTLY DELTA T CENTISECONDS.
000100:                                                                                                 #         THE APPROXIMATE TIME MAY BE CALCULATED AS FOLLOWS:
000101:                                                                                                 #                 LET T0 = THE TIME OF THE TC WAITLIST
000102:                                                                                                 #                 LET TS = T0 +147U + COUNTER INCREMENTS (SET UP TIME)
000103:                                                                                                 #                 LET X  = TS -(100TS)/100  (VARIANCE FROM COUNTERS)
000104:                                                                                                 #                 LET Y  = LENGTH OF TIME OF INHIBIT INTERRUPT AFTER T3RUPT
000105:                                                                                                 #                 LET Z  = LENGTH OF TIME TO PROCESS TASKS WHICH ARE DUE THIS T3RUPT BUT DISPATCHED EARLIER.
000106:                                                                                                 #                 (Z=0, USUALLY).
000107:                                                                                                 #                 LET DELTD = THE ACTUAL TIME TAKEN TO GIVE CONTROL TO 2CADR
000108:                                                                                                 #         THEN DELTD = TS+DELTA T -X +Y +Z +1.05MS* +COUNTERS*
000109:                                                                                                 #                 *THE TIME TAKEN BY WAITLIST ITSELF AND THE COUNTER TICKING DURING THIS WAITLIST TIME.
000110:                                                                                                 #         IN SHORT, THE ACTUAL TIME TO RETURN CONTROL TO A 2CADR IS AUGMENTED BY THE TIME TO SET UP THE TASK'S
000111:                                                                                                 #         INTERRUPT, ALL COUNTERS TICKING, THE T3RUPT PROCESSING TIME, THE WAITLIST PROCESSING TIME AND THE POSSIBILITY
000112:                                                                                                 #         OF OTHER TASKS INHIBITING THE INTERRUPT.
000113:
000114:    5235                                          BLOCK    02
000115:                                                                                                 #  Page 1223
000116:    5235  E3,1400                                 EBANK=   LST1                                  #  TASK LISTS IN SWITCHED E BANK.
000117:
000118:    5235                                          COUNT    02/WAIT
000119:
000120:    5235           00004        TWIDDLE           INHINT
000121:    5236           54001                          TS       L                                     #  SAVE DELAY TIME IN L
000122:    5237           34777                          CA       POSMAX
000123:    5240           26002                          ADS      Q                                     #  CREATING OVERFLOW AND Q-1 IN Q
000124:    5241           30006                          CA       BBANK
000125:    5242           00006                          EXTEND
000126:    5243           04007                          ROR      SUPERBNK
000127:    5244           56001                          XCH      L
000128:
000129:    5245           00004        WAITLIST          INHINT
000130:    5246           00006                          EXTEND
000131:    5247           65261                          BZMF     WATLST0-
000132:    5250           56002                          XCH      Q          SAVE       DELTA
000133:    5251           54061                          TS       WAITEXIT   WAITEXIT.
000134:    5252           00006                          EXTEND
000135:    5253           50061                          INDEX    WAITEXIT                              #  IF TWIDDLING, THE TS SKIPS TO HERE
000136:    5254           30001                          DCA      0                                     #  PICK UP 2CADR OF TASK.
000137:    5255           54063                 -1       TS       WAITADR                               #  BBCON WILL REMAIN IN L
000138:    5256           35266        DLY2              CAF      WAITBB                                #  ENTRY FROM FIXDELAY AND VARDELAY.
000139:    5257           56006                          XCH      BBANK
000140:    5260           13246                          TCF      WAIT2
000141:
000142:    5261           05721        WATLST0-          TC       P00DOO
000143:    5262           01204                          OCT      1204                                  #  WAITLIST CALL WITH ZERO OR NEG DT
000144:
000145:                                                                                                 #  RETURN TO CALLER AFTER TASK INSERTION:
000146:
000147:    5263           52062        LVWTLIST          DXCH     WAITEXIT
000148:    5264           65016                          AD       TWO
000149:    5265           52006                          DTCB
000150:
000151:    5266  E3,1400                                 EBANK=   LST1
000152:    5266           02063        WAITBB            BBCON    WAIT2
000153:
000154:                                                                                                 #  RETURN TO CALLER +2 AFTER WAITING DT SPECIFIED AT CALLER +1.
000155:
000156:    5267           50002        FIXDELAY          INDEX    Q                                     #  BOTH ROUTINES MUST BE CALLED UNDER
000157:                                                                                                 #  Was CAF --- RSB 2004.
000158:    5270           30000                          CA       0                                     #  WAITLIST CONTROL AND TERMINATE THE TASK
000159:    5271           24002                          INCR     Q                                     #  IN WHICH THEY WERE CALLED.
000160:
000161:                                                                                                 #  RETURN TO CALLER +1 AFTER WAITING THE DT AS ARRIVING IN A.
000162:
000163:    5272           56002        VARDELAY          XCH      Q                                     #  DT TO Q.  TASK ADRES TO WAITADR.
000164:    5273           54063                          TS       WAITADR
000165:    5274           30006                          CA       BBANK                                 #  BBANK IS SAVED DURING DELAY.
000166:    5275           00006                          EXTEND
000167:                                                                                                 #  Page 1224
000168:    5276           04007                          ROR      SUPERBNK                              #  ADD SBANK TO BBCON.
000169:    5277           54001                          TS       L
000170:    5300           35303                          CAF      DELAYEX
000171:    5301           54061                          TS       WAITEXIT                              #  GO TO TASKOVER AFTER TASK ENTRY.
000172:    5302           15256                          TCF      DLY2
000173:
000174:    5303           15322        DELAYEX           TCF      TASKOVER   -2                         #  RETURNS TO TASKOVER.
000175:
000176:                                                                                                 #  Page 1225
000177:                                                                                                 #  ENDTASK MUST ENTERED IN FIXED-FIXED SO IT IS DISTINGUISHABLE BY ITS ADRES ALONE.
000178:
000179:    5304  E3,1400                                 EBANK=   LST1
000180:    5304           72471 73714  ENDTASK           -2CADR   SVCT3
000181:
000182:    5306           10076        SVCT3             CCS      FLAGWRD2                              #  DRIFT FLAG
000183:    5307           15324                          TCF      TASKOVER
000184:    5310           15324                          TCF      TASKOVER
000185:    5311           15312                          TCF      +1
000186:
000187:    5312           11322                          CCS      IMUCADR                               #  DON'T DO NBDONLY IF SOMEONE ELSE IS IN
000188:    5313           17717                          TCF      SVCT3X
000189:    5314           15317                          TCF      +3
000190:    5315           17717                          TCF      SVCT3X
000191:    5316           17717                          TCF      SVCT3X
000192:    5317           37672                 +3       CAF      PRIO35                                #  COMPENSATE FOR NBD COEFFICIENTS ONLY.
000193:    5320           05134                          TC       NOVAC                                 #         ENABLE EVERY 81.93 SECONDS
000194:    5321  E3,1460                                 EBANK=   NBDX
000195:    5321           03542 14063                    2CADR    NBDONLY
000196:
000197:    5323           15324                          TCF      TASKOVER
000198:
000199:    6000                                          SETLOC   FFTAG6
000200:    6000                                          BANK
000201:
000202:    7717           05267        SVCT3X            TC       FIXDELAY                              #  DELAY MAX OF 2 TIMES FOR IMU ZERO
000203:    7720           00764                          DEC      500        B-14
000204:    7721           05306                          TC       SVCT3
000205:
000206:                                                                                                 #  Page 1226
000207:                                                                                                 #  BEGIN TASK INSERTION.
000208:
000209: 01,3246                                          BANK     01
000210: 01,3246                                          COUNT    01/WAIT
000211:
000212: 01,3246           54062        WAIT2             TS       WAITBANK                              #  BBANK OF CALLING PROGRAM.
000213: 01,3247           40026                          CS       TIME3
000214: 01,3250           65010                          AD       BIT8                                  #  BIT 8 = OCT 200
000215: 01,3251           10000                          CCS      A                                     #  TEST 200 - C(TIME3).  IF POSITIVE,
000216:                                                                                                 #  IT MEANS THAT TIME3 OVERFLOW HAS OCCURRED PRIOR TO CS TIME3 AND THAT
000217:                                                                                                 #  C(TIME3) = T - T1, INSTEAD OF 1.0 - (T1 - T).  THE FOLLOWING FOUR
000218:                                                                                                 #  ORDERS SET C(A) = TD - T1 + 1 IN EITHER CASE.
000219:
000220: 01,3252           66056                          AD       OCT40001                              #  OVERFLOW HAS OCCURRED.  SET C(A) =
000221: 01,3253           40000                          CS       A                                     #  T - T1 + 1.0 - 201
000222:
000223:                                                                                                 #  NORMAL CASE (C(A) NNZ) YIELDS SAME C(A):  -( -(1.0-(T1-T)) + 200) - 1
000224:
000225: 01,3254           63402                          AD       OCT40201
000226: 01,3255           60002                          AD       Q                                     #  RESULT = TD - T1 + 1.
000227:
000228: 01,3256           10000                          CCS      A                                     #  TEST TD - T1 +1.
000229:
000230: 01,3257           61400                          AD       LST1                                  #  IF TD - T1 POS, GO TO WTLST5 WITH
000231: 01,3260           13322                          TCF      WTLST5                                #  C(A) = (TD - T1) + C(LST1) = TD-T2+1
000232:
000233: 01,3261           13262                          NOOP
000234: 01,3262           40002                          CS       Q
000235:
000236:                                                                                                 #  NOTE THAT THIS PROGRAM SECTION IS NEVER ENTERED WHEN T-T1 G/E -1,
000237:                                                                                                 #  SINCE TD-T1+1 = (TD-T) + (T-T1+1), AND DELTA T = TD-T G/E +1.  (G/E
000238:                                                                                                 #  SYMBOL MEANS GREATER THAN OR EQUAL TO).  THUS THERE NEED BE NO CON-
000239:                                                                                                 #  CERN OVER A PREVIOUS OR IMMINENT OVEFLOW OF TIME3 HERE.
000240:
000241: 01,3263           65002                          AD       POS1/2                                #  WHEN TD IS NEXT, FORM QUANTITY
000242: 01,3264           65002                          AD       POS1/2                                #         1.0 - DELTA T = 1.0 - (TD - T)
000243: 01,3265           56026                          XCH      TIME3
000244: 01,3266           65001                          AD       NEGMAX
000245: 01,3267           60002                          AD       Q                                     #  1.0 - DELTAT T NOW COMPLETE.
000246: 01,3270           00006                          EXTEND                                         #  ZERO INDEX Q.
000247: 01,3271           22007                          QXCH     7                                     #  (ZQ)
000248:
000249:                                                                                                 #  Page 1227
000250: 01,3272           57400        WTLST4            XCH      LST1
000251: 01,3273           57401                          XCH      LST1       +1
000252: 01,3274           57402                          XCH      LST1       +2
000253: 01,3275           57403                          XCH      LST1       +3
000254: 01,3276           57404                          XCH      LST1       +4
000255: 01,3277           57405                          XCH      LST1       +5
000256: 01,3300           57406                          XCH      LST1       +6
000257: 01,3301           57407                          XCH      LST1       +7
000258:
000259: 01,3302           30063                          CA       WAITADR                               #  (MINOR PART OF TASK CADR HAS BEEN IN L.)
000260: 01,3303           50002                          INDEX    Q
000261: 01,3304           13305                          TCF      +1
000262:
000263: 01,3305           53411                          DXCH     LST2
000264: 01,3306           53413                          DXCH     LST2       +2
000265: 01,3307           53415                          DXCH     LST2       +4
000266: 01,3310           53417                          DXCH     LST2       +6
000267: 01,3311           53421                          DXCH     LST2       +8D
000268: 01,3312           53423                          DXCH     LST2       +10D                       #  AT END, CHECK THAT C(LST2 +10) IS STD
000269: 01,3313           53425                          DXCH     LST2       +12D
000270: 01,3314           53427                          DXCH     LST2       +14D
000271: 01,3315           53431                          DXCH     LST2       +16D
000272: 01,3316           65304                          AD       ENDTASK                               #  END ITEM, AS CHECK FOR EXCEEDING
000273:                                                                                                 #  THE LENGTH OF THE LIST.
000274: 01,3317           00006                          EXTEND                                         #  DUMMY TASK ADRES SHOULD BE IN FIXED-
000275: 01,3320           15263                          BZF      LVWTLIST                              #  FIXED SO ITS ADRES ALONE DISTINGUISHES
000276: 01,3321           13375                          TCF      WTABORT                               #  IT.
000277:
000278:                                                                                                 #  Page 1228
000279: 01,3322           10000        WTLST5            CCS      A                                     #  TEST TD - T2 + 1
000280: 01,3323           61401                          AD       LST1       +1
000281: 01,3324           13330                          TCF      +4
000282: 01,3325           65017                          AD       ONE
000283: 01,3326           03403                          TC       WTLST2
000284: 01,3327           00001                          OCT      1
000285:
000286: 01,3330           10000                 +4       CCS      A                                     #  TEST TD - T3 + 1
000287: 01,3331           61402                          AD       LST1       +2
000288: 01,3332           13336                          TCF      +4
000289: 01,3333           65017                          AD       ONE
000290: 01,3334           03403                          TC       WTLST2
000291: 01,3335           00002                          OCT      2
000292:
000293: 01,3336           10000                 +4       CCS      A                                     #  TEST TD - T4 + 1
000294: 01,3337           61403                          AD       LST1       +3
000295: 01,3340           13344                          TCF      +4
000296: 01,3341           65017                          AD       ONE
000297: 01,3342           03403                          TC       WTLST2
000298: 01,3343           00003                          OCT      3
000299:
000300: 01,3344           10000                 +4       CCS      A                                     #  TEST TD - T5 + 1
000301: 01,3345           61404                          AD       LST1       +4
000302: 01,3346           13352                          TCF      +4
000303: 01,3347           65017                          AD       ONE
000304: 01,3350           03403                          TC       WTLST2
000305: 01,3351           00004                          OCT      4
000306:
000307: 01,3352           10000                 +4       CCS      A                                     #  TEST TD - T6 + 1
000308: 01,3353           61405                          AD       LST1       +5
000309: 01,3354           13360                          TCF      +4
000310: 01,3355           65017                          AD       ONE
000311: 01,3356           03403                          TC       WTLST2
000312: 01,3357           00005                          OCT      5
000313:
000314: 01,3360           10000                 +4       CCS      A                                     #  TEST TD - T7 + 1
000315: 01,3361           61406                          AD       LST1       +6
000316: 01,3362           13366                          TCF      +4
000317: 01,3363           65017                          AD       ONE
000318: 01,3364           03403                          TC       WTLST2
000319: 01,3365           00006                          OCT      6
000320:
000321:                                                                                                 #  Page 1229
000322: 01,3366           10000                 +4       CCS      A
000323: 01,3367           61407                          AD       LST1       +7
000324: 01,3370           13374                          TCF      +4
000325: 01,3371           65017                          AD       ONE
000326: 01,3372           03403                          TC       WTLST2
000327: 01,3373           00007                          OCT      7
000328:
000329: 01,3374           10000                 +4       CCS      A
000330: 01,3375           07755        WTABORT           TC       BAILOUT                               #  NO ROOM IN THE INN
000331: 01,3376           01203                          OCT      1203
000332:
000333: 01,3377           65017                          AD       ONE
000334: 01,3400           03403                          TC       WTLST2
000335: 01,3401           00010                          OCT      10
000336:
000337: 01,3402           40201        OCT40201          OCT      40201
000338:
000339:                                                                                                 #  Page 1230
000340:                                                                                                 #  THE ENTRY TC WTLST2 JUST PRECEDING OCT N IS FOR T  LE TD LE T   -1.
000341:                                                                                                 #                                                   N           N+1
000342:
000343:                                                                                                 #  (LE MEANS LESS THAN OR EQUAL TO).  AT ENTRY, C(A) = -(TD - T   + 1)
000344:                                                                                                 #                                                              N+1
000345:
000346:                                                                                                 #  THE LST1 ENTRY-(T   -T +1) IS TO BE REPLACED BY -(TD - T  + 1), AND
000347:                                                                                                 #                   N+1  N                                 N
000348:
000349:                                                                                                 #  THE ENTRY-(T   - TD + 1) IS TO BE INSERTED IMMEDIATELY FOLLOWING.
000350:                                                                                                 #              N+1
000351:
000352: 01,3403           54064        WTLST2            TS       WAITTEMP                              #  C(A) = -(TD - T + 1)
000353: 01,3404           50002                          INDEX    Q
000354:                                                                                                 #  Was CAF --- RSB 2004.
000355: 01,3405           30000                          CA       0
000356: 01,3406           54002                          TS       Q                                     #  INDEX VALUE INTO Q.
000357:
000358: 01,3407           35017                          CAF      ONE
000359: 01,3410           60064                          AD       WAITTEMP
000360: 01,3411           50002                          INDEX    Q                                     #  C(A) = -(TD - T ) + 1.
000361: 01,3412           27377                          ADS      LST1       -1                         #                 N
000362:
000363: 01,3413           40064                          CS       WAITTEMP
000364: 01,3414           50002                          INDEX    Q
000365: 01,3415           13272                          TCF      WTLST4
000366:
000367:                                                                                                 #  Page 1231
000368:                                                                                                 #  ENTERS HERE ON T3 RUPT TO DISPATCH WAITLISTED TASK.
000369:
000370: 01,3416           00006        T3RUPT            EXTEND
000371: 01,3417           04007                          ROR      SUPERBNK                              #  READ CURRENT SUPERBANK VALUE AND
000372: 01,3420           54016                          TS       BANKRUPT                              #  SAVE WITH E AND F BANK VALUES.
000373: 01,3421           00006                          EXTEND
000374: 01,3422           22012                          QXCH     QRUPT
000375:
000376: 01,3423           35000        T3RUPT2           CAF      NEG1/2                                #  DISPATCH WAITLIST TASK.
000377: 01,3424           57407                          XCH      LST1       +7
000378: 01,3425           57406                          XCH      LST1       +6
000379: 01,3426           57405                          XCH      LST1       +5
000380: 01,3427           57404                          XCH      LST1       +4                         #  1. MOVE UP LST1 CONTENTS, ENTERING
000381: 01,3430           57403                          XCH      LST1       +3                         #     A VALUE OF 1/2 +1 AT THE BOTTOM
000382: 01,3431           57402                          XCH      LST1       +2                         #     FOR T6-T5, CORRESPONDING TO THE
000383: 01,3432           57401                          XCH      LST1       +1                         #     INTERVAL 81.91 SEC FOR ENDTASK.
000384: 01,3433           57400                          XCH      LST1
000385: 01,3434           64777                          AD       POSMAX                                #  2. SET T3 = 1.0 - T2 - T USING LIST 1.
000386: 01,3435           26026                          ADS      TIME3                                 #     SO T3 WON'T TICK DURING UPDATE.
000387: 01,3436           54734                          TS       RUPTAGN
000388: 01,3437           45021                          CS       ZERO
000389: 01,3440           54734                          TS       RUPTAGN                               #  SETS RUPTAGN TO +1 ON OVERFLOW.
000390:
000391: 01,3441           00006                          EXTEND                                         #  DISPATCH TASK.
000392: 01,3442           45305                          DCS      ENDTASK
000393: 01,3443           53431                          DXCH     LST2       +16D
000394: 01,3444           53427                          DXCH     LST2       +14D
000395: 01,3445           53425                          DXCH     LST2       +12D
000396: 01,3446           53423                          DXCH     LST2       +10D
000397: 01,3447           53421                          DXCH     LST2       +8D
000398: 01,3450           53417                          DXCH     LST2       +6
000399: 01,3451           53415                          DXCH     LST2       +4
000400: 01,3452           53413                          DXCH     LST2       +2
000401: 01,3453           53411                          DXCH     LST2
000402:
000403: 01,3454           56001                          XCH      L
000404: 01,3455           00006                          EXTEND
000405: 01,3456           01007                          WRITE    SUPERBNK                              #  SET SUPERBANK FROM BBCON OF 2CADR
000406: 01,3457           56001                          XCH      L                                     #  RESTORE TO L FOR DXCH Z.
000407: 01,3460           52006                          DTCB
000408:
000409:                                                                                                 #  Page 1232
000410:                                                                                                 #  RETURN, AFTER EXECUTION OF T3 OVERFLOW TASK:
000411:
000412:    5324                                          BLOCK    02
000413:    5324                                          COUNT    02/WAIT
000414:
000415:    5324           10734        TASKOVER          CCS      RUPTAGN                               #  IF +1 RETURN TO T3RUPT, IF -0 RESUME.
000416:    5325           35266                          CAF      WAITBB
000417:    5326           54006                          TS       BBANK
000418:    5327           13423                          TCF      T3RUPT2                               #  DISPATCH NEXT TASK IF IT WAS DUE.
000419:
000420:    5330           30016                          CA       BANKRUPT
000421:    5331           00006                          EXTEND
000422:    5332           01007                          WRITE    SUPERBNK                              #  RESTORE SUPERBANK BEFORE RESUME IS DONE
000423:
000424:    5333           00006        RESUME            EXTEND
000425:    5334           22012                          QXCH     QRUPT
000426:    5335           30016        NOQRSM            CA       BANKRUPT
000427:    5336           56006                          XCH      BBANK
000428:    5337           52011        NOQBRSM           DXCH     ARUPT
000429:    5340           00003                          RELINT
000430:    5341           50017                          RESUME
000431:
000432:                                                                                                 #  Page 1233
000433:                                                                                                 #  LONGCALL
000434:                                                                                                 #  PROGRAM DESCRIPTION                            DATE -- 17 MARCH 1967
000435:                                                                                                 #  PROGRAM WRITTEN BY W.H.VANDEVER                LOG SECTION WAITLIST
000436:                                                                                                 #  MOD BY -- R. MELANSON TO ADD DOCUMENTATION     ASSEMBLY SUNDISK REV. 100
000437:
000438:                                                                                                 #  FUNCTIONAL DESCRIPTION --
000439:                                                                                                 #         LONGCALL IS CALLED WITH THE DELTA TIME ARRIVING IN A,L SCALED AS TIME2,TIME1 WITH THE 2CADR OF THE TASK
000440:                                                                                                 #         IMMEDIATELY FOLLOWING THE TC LONGCALL.  FOR EXAMPLE, IT MIGHT BE DONE AS FOLLOWS WHERE TIMELOC IS THE NAME OF
000441:                                                                                                 #         A DP REGISTER CONTAINING A DELTA TIME AND WHERE TASKTODO IS THE NAME OF THE LOCATION AT WHICH LONGCALL IS TO
000442:                                                                                                 #         START.
000443:
000444:                                                                                                 #  CALLING SEQUENCE --
000445:                                                                                                 #                 EXTEND
000446:                                                                                                 #                 DCA     TIMELOC
000447:                                                                                                 #                 TC      LONGCALL
000448:                                                                                                 #                 2CADR   TASKTODO
000449:
000450:                                                                                                 #  NORMAL EXIT MODE --
000451:                                                                                                 #         1)      TC      WAITLIST
000452:                                                                                                 #         2)      DTCB    (TC L+3 OF CALLING ROUTINE 1ST PASS THRU LONGCYCL)
000453:                                                                                                 #         3)      DTCB    (TO TASKOVER ON SUBSEQUENT PASSES THRU LONGCYCL)
000454:
000455:                                                                                                 #  ALARM OR ABORT EXIT MODE --
000456:                                                                                                 #         NONE
000457:
000458:                                                                                                 #  OUTPUT --
000459:                                                                                                 #         LONGTIME AND LONGTIME+1 = DELTA TIME
000460:                                                                                                 #         LONGEXIT AND LONGEXIT+1 = RETURN 2CADR
000461:                                                                                                 #         LONGCADR AND LONGCADR+1 = TASK 2CADR
000462:                                                                                                 #         A = SINGLE PRECISION TIME FOR WAITLIST
000463:
000464:                                                                                                 #  ERASABLE INITIALIZATION --
000465:                                                                                                 #         A = MOST SIGNIFICANT PART OF DELTA TIME
000466:                                                                                                 #         L = LEAST SIGNIFICANT PART OF DELTA TIME
000467:                                                                                                 #         Q = ADDRESS OF 2CADR TASK VALUE
000468:
000469:                                                                                                 #  DEBRIS --
000470:                                                                                                 #         A,Q,L
000471:                                                                                                 #         LONGCADR AND LONGCADR+1
000472:                                                                                                 #         LONGEXIT AND LONGEXIT+1
000473:                                                                                                 #         LONGTIME AND LONGTIME+1
000474:
000475:                                                                                                 #  *** THE FOLLOWING IS TO BE IN FIXED-FIXED AND UNSWITCHED ERASIBLE **
000476:
000477:    5342                                          BLOCK    02
000478:    5342  E3,1400                                 EBANK=   LST1
000479:    5342           53140        LONGCALL          DXCH     LONGTIME                              #  OBTAIN THE DELTA TIME
000480:
000481:    5343           00006                          EXTEND                                         #  OBTAIN THE 2CADR
000482:                                                                                                 #  Page 1234
000483:    5344           50002                          NDX      Q
000484:    5345           30001                          DCA      0
000485:    5346           53134                          DXCH     LONGCADR
000486:
000487:    5347           00006                          EXTEND                                         #  NO GO TO THE APPROPRIATE SWITCHED BANK
000488:    5350           35353                          DCA      LGCL2CDR                              #  FOR THE REST OF LONGCALL
000489:    5351           52006                          DTCB
000490:
000491:    5352  E3,1400                                 EBANK=   LST1
000492:    5352           03461 02063  LGCL2CDR          2CADR    LNGCALL2
000493:
000494:                                                                                                 #  *** THE FOLLOWING MAY BE IN A SWITCHED BANK, INCLUDING ITS ERASABLE ***
000495:
000496: 01,3461                                          BANK     01
000497: 01,3461                                          COUNT    01/WAIT
000498:
000499: 01,3461           23435        LNGCALL2          LXCH     LONGEXIT   +1                         #  SAVE THE CORRECT BB FOR RETURN
000500: 01,3462           35016                          CA       TWO                                   #  OBTAIN THE RETURN ADDRESS
000501: 01,3463           26002                          ADS      Q
000502: 01,3464           55434                          TS       LONGEXIT
000503:
000504:                                                                                                 #  *** WAITLIST TASK LONGCYCL ***
000505:
000506: 01,3465           00006        LONGCYCL          EXTEND                                         #  CAN WE SUCCESFULLY TAKE ABOUT 1.25
000507: 01,3466           43477                          DCS      DPBIT14                               #  MINUTES OFF OF LONGTIME
000508: 01,3467           21140                          DAS      LONGTIME
000509:
000510: 01,3470           11140                          CCS      LONGTIME   +1                         #  THE REASONING BEHIND THIS PART IS
000511: 01,3471           13510                          TCF      MUCHTIME                              #  INVOLVED, TAKING INTO ACCOUNT THAT THE
000512:                                                                                                 #  WORDS MAY NOT BE SIGNED CORRECTED (DP
000513:                                                                                                 #  BASIC INSTRUCTIONS
000514:                                                                                                 #  DO NOT SIGN CORRECT) AND THAT WE SUBTRAC-
000515:                                                                                                 #  TED BIT14 (1 OVER HALF THE POS. VALUE
000516:                                                                                                 #  REPRESENTABLE IN SINGLE WORD)
000517: 01,3472           13473                          NOOP                                           #  CAN'T GET HERE *************
000518: 01,3473           13474                          TCF      +1
000519: 01,3474           11137                          CCS      LONGTIME
000520: 01,3475           13510                          TCF      MUCHTIME
000521: 01,3476           00000        DPBIT14           OCT      00000
000522: 01,3477           20000                          OCT      20000
000523:
000524:                                                                                                 #  LONGCALL
000525: 01,3500           35002        LASTTIME          CA       BIT14                                 #  GET BACK THE CORRECT DELTA TFOR WAITLIST
000526: 01,3501           27140                          ADS      LONGTIME   +1
000527: 01,3502           05245                          TC       WAITLIST
000528: 01,3503  E3,1400                                 EBANK=   LST1
000529: 01,3503           03515 02063                    2CADR    GETCADR                               #  THE ENTRY TO OUR LONGCADR
000530:
000531: 01,3505           33517        LONGRTRN          CA       TSKOVCDR                              #  SET IT UP SO THAT ONLY THE FIRST EXIT IS
000532:                                                                                                 #  Page 1235
000533: 01,3506           53435                          DXCH     LONGEXIT                              #  TO THE CALLER OF LONGCALL
000534: 01,3507           52006                          DTCB                                           #  THE REST ARE TO TASKOVER
000535:
000536: 01,3510           35002        MUCHTIME          CA       BIT14                                 #  WE HAVE OVER OUR ABOUT 1.25 MINUTES
000537: 01,3511           05245                          TC       WAITLIST                              #  SO SET UP FOR ANOTHER CYCLE THROUGH HERE
000538: 01,3512  E3,1400                                 EBANK=   LST1
000539: 01,3512           03465 02063                    2CADR    LONGCYCL
000540:
000541: 01,3514           13505                          TCF      LONGRTRN                              #  NOW EXIT PROPERLY
000542:
000543:                                                                                                 #  *** WAITLIST TASK GETCADR ***
000544:
000545: 01,3515           53134        GETCADR           DXCH     LONGCADR                              #  GET THE LONGCALL THAT WE WISHED TO START
000546: 01,3516           52006                          DTCB                                           #  AND TRANSFER CONTROL TO IT
000547:
000548: 01,3517           05324        TSKOVCDR          GENADR   TASKOVER
000549:
000550:

End of include-file WAITLIST.agc.  Parent file is MAIN.agc


