
Source Code


000002:                                                                                                  ## Copyright:   Public domain.
000003:                                                                                                  ## Filename:    WAITLIST.agc
000004:                                                                                                  ## Purpose:     Part of the source code for Colossus 2A, AKA Comanche 055.
000005:                                                                                                  ##              It is part of the source code for the Command Module's (CM)
000006:                                                                                                  ##              Apollo Guidance Computer (AGC), for Apollo 11.
000007:                                                                                                  ## Assembler:   yaYUL
000008:                                                                                                  ## Contact:     Ron Burkey <info@sandroid.org>.
000009:                                                                                                  ## Website:     www.ibiblio.org/apollo.
000010:                                                                                                  ## Pages:       1221-1235
000011:                                                                                                  ## Mod history: 2009-05-14 RSB  Adapted from the Colossus249/ file of the
000012:                                                                                                  ##                              same name, using Comanche055 page images.
000013:                                                                                                  ##              2010-08-29 JL   Fixed indentation.
000014:                                                                                                  ##              2011-05-08 JL   Removed workarounds.
000015:
000016:                                                                                                  ## This source code has been transcribed or otherwise adapted from digitized
000017:                                                                                                  ## images of a hardcopy from the MIT Museum.  The digitization was performed
000018:                                                                                                  ## by Paul Fjeld, and arranged for by Deborah Douglas of the Museum.  Many
000019:                                                                                                  ## thanks to both.  The images (with suitable reduction in storage size and
000020:                                                                                                  ## consequent reduction in image quality as well) are available online at
000021:                                                                                                  ## www.ibiblio.org/apollo.  If for some reason you find that the images are
000022:                                                                                                  ## illegible, contact me at info@sandroid.org about getting access to the
000023:                                                                                                  ## (much) higher-quality images which Paul actually created.
000024:                                                                                                  ##
000025:                                                                                                  ## Notations on the hardcopy document read, in part:
000026:                                                                                                  ##
000027:                                                                                                  ##      Assemble revision 055 of AGC program Comanche by NASA
000028:                                                                                                  ##      2021113-051.  10:28 APR. 1, 1969
000029:                                                                                                  ##
000030:                                                                                                  ##      This AGC program shall also be referred to as
000031:                                                                                                  ##                      Colossus 2A
000032:


000034:                                                                                                  #  PROGRAM DESCRIPTION                                           DATE -- 10 OCTOBER 1966
000035:                                                                                                  #  MOD NO -- 2                                                   LOG SECTION -- WAITLIST
000036:                                                                                                  #  MOD BY -- MILLER      (DTMAX INCREASED TO 162.5 SEC)          ASSEMBLY -- SUNBURST REV 5
000037:                                                                                                  #  MOD 3 BY KERNAN       (INHINT INSERTED AT WAITLIST) 2/28/68 SKIPPER REV 4
000038:                                                                                                  #  MOD 4 BY KERNAN       (TWIDDLE IN 54) 3/28/68 SKIPPER REV 13.
000039:
000040:                                                                                                  #  FUNCTIONAL DESCRIPTION --
000041:                                                                                                  #        PART OF A SECTION OF PROGRAMS -- WAITLIST, TASKOVER, T3RUPT, USED TO CALL A PROGRAM (CALLED A TASK),
000042:                                                                                                  #        WHICH IS TO BEGIN IN C(A) CENTISECONDS.  WAITLIST UPDATES TIME3, LST1, AND LST2.  THE MEANING OF THESE LISTS
000043:                                                                                                  #        FOLLOW.
000044:
000045:                                                                                                  #                C(TIME3) = 16384 -(T1-T) CENTISECONDS, (T=PRESENT TIME, T1-TIME FOR TASK1)
000046:
000047:                                                                                                  #                        C(LST1)         =       -(T2-T1)+1
000048:                                                                                                  #                        C(LST1 +1)      =       -(T3-T2)+1
000049:                                                                                                  #                        C(LST1 +2)      =       -(T4-T3)+1
000050:                                                                                                  #                                       ...
000051:                                                                                                  #                        C(LST1 +6)      =       -(T8-T7)+1
000052:                                                                                                  #                        C(LST1 +7)      =       -(T9-T8)+1
000053:
000054:                                                                                                  #                        C(LST2)         =       2CADR OF TASK1
000055:                                                                                                  #                        C(LST2 +2)      =       2CADR OF TASK2
000056:                                                                                                  #                                       ...
000057:                                                                                                  #                        C(LST2 +14)     =       2CADR OF TASK8
000058:                                                                                                  #                        C(LST2 +16)     =       2CADR OF TASK9
000059:
000060:                                                                                                  #  WARNINGS --
000061:                                                                                                  #        1)      1 <= C(A) <= 16250D (1 CENTISCOND TO 162.5 SEC)
000062:                                                                                                  #        2)      9 TASKS MAXIMUM
000063:                                                                                                  #        3)      TASKS CALLED UNDER INTERRUPT INHIBITED
000064:                                                                                                  #        4)      TASKS END BY TC TASKOVER
000065:
000066:                                                                                                  #  CALLING SEQUENCE --
000067:                                                                                                  #        L-1     CA      DELTAT  (TIME IN CENTISECONDS TO TASK START)
000068:                                                                                                  #        L       TC      WAITLIST
000069:                                                                                                  #        L+1     2CADR   DESIRED TASK
000070:                                                                                                  #        L+2     (MINOR OF 2CADR)
000071:                                                                                                  #        L+3     RELINT          (RETURNS HERE)
000072:
000073:                                                                                                  #  TWIDDLE --
000074:                                                                                                  #        TWIDDLE IS FOR USE WHEN THE TASK BEING SET UP IS IN THE SAME EBANK AND FBANK AS THE USER.  IN
000075:                                                                                                  #        SUCH CASES, IT IMPROVES UPON WAITLIST BY ELIMINATING THE NEED FOR THE BBCON HALF OF THE 2CADR,


000077:                                                                                                  #        SAVING A WORD.  TWIDDLE IS LIKE WAITLIST IN EVERY RESPECT EXCEPT CALLING SEQUENCE, TO WIT,
000078:                                                                                                  #                L-1     CA      DELTAT
000079:                                                                                                  #                L       TC      TWIDDLE
000080:                                                                                                  #                L+1     ADRES   DESIRED TASK
000081:                                                                                                  #                L+2     RELINT          (RETURNS HERE)
000082:
000083:                                                                                                  #  NORMAL EXIT MODES --
000084:                                                                                                  #        AT L+3 OF CALLING SEQUENCE.
000085:
000086:                                                                                                  #  ALARM OR ABORT EXIT MODES --
000087:                                                                                                  #        TC      ABORT
000088:                                                                                                  #        OCT     1203    (WAITLIST OVERFLOW -- TOO MANY TASKS)
000089:
000090:                                                                                                  #  ERASABLE INITIALIZATION REQUIRED --
000091:                                                                                                  #        ACCOMPLISHED BY FRESH START --  LST2, ..., LST2 +16 = ENDTASK
000092:                                                                                                  #                                        LST1, ..., LST1 +7  = NEG1/2
000093:
000094:                                                                                                  #  OUTPUT --
000095:                                                                                                  #        LST1 AND LST2 UPDATED WITH NEW TASK AND ASSOCIATED TIME.
000096:
000097:                                                                                                  #  DEBRIS --
000098:                                                                                                  #        CENTRALS -- A,Q,L
000099:                                                                                                  #        OTHER    -- WAITEXIT, WAITADR, WAITTEMP, WAITBANK
000100:
000101:                                                                                                  #  DETAILED ANALYSIS OF TIMING --
000102:                                                                                                  #        CONTROL WILL NOT BE RETURNED TO THE SPECIFIED ADDRESS (2CADR) IN EXACTLY DELTA T CENTISECONDS.
000103:                                                                                                  #        THE APPROXIMATE TIME MAY BE CALCULATED AS FOLLOWS:
000104:                                                                                                  #                LET T0 = THE TIME OF THE TC WAITLIST
000105:                                                                                                  #                LET TS = T0 +147U + COUNTER INCREMENTS (SET UP TIME)
000106:                                                                                                  #                LET X  = TS -(100TS)/100  (VARIANCE FROM COUNTERS)
000107:                                                                                                  #                LET Y  = LENGTH OF TIME OF INHIBIT INTERRUPT AFTER T3RUPT
000108:                                                                                                  #                LET Z  = LENGTH OF TIME TO PROCESS TASKS WHICH ARE DUE THIS T3RUPT BUT DISPATCHED EARLIER.
000109:                                                                                                  #                (Z=0, USUALLY).
000110:                                                                                                  #                LET DELTD = THE ACTUAL TIME TAKEN TO GIVE CONTROL TO 2CADR
000111:                                                                                                  #        THEN DELTD = TS+DELTA T -X +Y +Z +1.05MS* +COUNTERS*
000112:                                                                                                  #                *THE TIME TAKEN BY WAITLIST ITSELF AND THE COUNTER TICKING DURING THIS WAITLIST TIME.
000113:                                                                                                  #        IN SHORT, THE ACTUAL TIME TO RETURN CONTROL TO A 2CADR IS AUGMENTED BY THE TIME TO SET UP THE TASK'S
000114:                                                                                                  #        INTERRUPT, ALL COUNTERS TICKING, THE T3RUPT PROCESSING TIME, THE WAITLIST PROCESSING TIME AND THE POSSIBILITY
000115:                                                                                                  #        OF OTHER TASKS INHIBITING THE INTERRUPT.
000116:
000117:    5235                                           BLOCK    02


000119:    5235  E3,1400                                  EBANK=   LST1                                  #  TASK LISTS IN SWITCHED E BANK.
000120:
000121:    5235                                           COUNT    02/WAIT
000122:
000123:    5235           00004        TWIDDLE            INHINT
000124:    5236           54001                           TS       L                                     #  SAVE DELAY TIME IN L
000125:    5237           34777                           CA       POSMAX
000126:    5240           26002                           ADS      Q                                     #  CREATING OVERFLOW AND Q-1 IN Q
000127:    5241           30006                           CA       BBANK
000128:    5242           00006                           EXTEND
000129:    5243           04007                           ROR      SUPERBNK
000130:    5244           56001                           XCH      L
000131:
000132:    5245           00004        WAITLIST           INHINT
000133:    5246           00006                           EXTEND
000134:    5247           65261                           BZMF     WATLST0-
000135:    5250           56002                           XCH      Q                                     #  SAVE DELTA T IN Q AND RETURN IN
000136:    5251           54061                           TS       WAITEXIT                              #  WAITEXIT.
000137:    5252           00006                           EXTEND
000138:    5253           50061                           INDEX    WAITEXIT                              #  IF TWIDDLING, THE TS SKIPS TO HERE
000139:    5254           30001                           DCA      0                                     #  PICK UP 2CADR OF TASK.
000140:    5255           54063                 -1        TS       WAITADR                               #  BBCON WILL REMAIN IN L
000141:    5256           35266        DLY2               CAF      WAITBB                                #  ENTRY FROM FIXDELAY AND VARDELAY.
000142:    5257           56006                           XCH      BBANK
000143:    5260           13246                           TCF      WAIT2
000144:
000145:    5261           05721        WATLST0-           TC       P00DOO
000146:    5262           01204                           OCT      1204                                  #  WAITLIST CALL WITH ZERO OR NEG DT
000147:
000148:                                                                                                  #  RETURN TO CALLER AFTER TASK INSERTION:
000149:
000150:    5263           52062        LVWTLIST           DXCH     WAITEXIT
000151:    5264           65016                           AD       TWO
000152:    5265           52006                           DTCB
000153:
000154:    5266  E3,1400                                  EBANK=   LST1
000155:    5266           02063        WAITBB             BBCON    WAIT2
000156:
000157:                                                                                                  #  RETURN TO CALLER +2 AFTER WAITING DT SPECIFIED AT CALLER +1.
000158:
000159:    5267           50002        FIXDELAY           INDEX    Q                                     #  BOTH ROUTINES MUST BE CALLED UNDER
000160:    5270           30000                           CAF      0                                     #  WAITLIST CONTROL AND TERMINATE THE TASK
000161:    5271           24002                           INCR     Q                                     #  IN WHICH THEY WERE CALLED.
000162:
000163:                                                                                                  #  RETURN TO CALLER +1 AFTER WAITING THE DT AS ARRIVING IN A.
000164:
000165:    5272           56002        VARDELAY           XCH      Q                                     #  DT TO Q.  TASK ADRES TO WAITADR.
000166:    5273           54063                           TS       WAITADR
000167:    5274           30006                           CA       BBANK                                 #  BBANK IS SAVED DURING DELAY.
000168:    5275           00006                           EXTEND


000170:    5276           04007                           ROR      SUPERBNK                              #  ADD SBANK TO BBCON.
000171:    5277           54001                           TS       L
000172:    5300           35303                           CAF      DELAYEX
000173:    5301           54061                           TS       WAITEXIT                              #  GO TO TASKOVER AFTER TASK ENTRY.
000174:    5302           15256                           TCF      DLY2
000175:
000176:    5303           15322        DELAYEX            TCF      TASKOVER   -2                         #  RETURNS TO TASKOVER.
000177:


000179:                                                                                                  #  ENDTASK MUST ENTERED IN FIXED-FIXED SO IT IS DISTINGUISHABLE BY ITS ADRES ALONE.
000180:
000181:    5304  E3,1400                                  EBANK=   LST1
000182:    5304           72471 73714  ENDTASK            -2CADR   SVCT3
000183:
000184:    5306           10076        SVCT3              CCS      FLAGWRD2                              #  DRIFT FLAG
000185:    5307           15324                           TCF      TASKOVER
000186:    5310           15324                           TCF      TASKOVER
000187:    5311           15312                           TCF      +1
000188:
000189:    5312           11322                           CCS      IMUCADR                               #  DON'T DO NBDONLY IF SOMEONE ELSE IS IN
000190:    5313           17717                           TCF      SVCT3X
000191:    5314           15317                           TCF      +3
000192:    5315           17717                           TCF      SVCT3X
000193:    5316           17717                           TCF      SVCT3X
000194:    5317           37672                 +3        CAF      PRIO35                                #  COMPENSATE FOR NBD COEFFICIENTS ONLY.
000195:    5320           05134                           TC       NOVAC                                 #        ENABLE EVERY 81.93 SECONDS
000196:    5321  E3,1460                                  EBANK=   NBDX
000197:    5321           03542 14063                     2CADR    NBDONLY
000198:
000199:    5323           15324                           TCF      TASKOVER
000200:
000201:    6000                                           SETLOC   FFTAG6
000202:    6000                                           BANK
000203:
000204:    7717           05267        SVCT3X             TC       FIXDELAY                              #  DELAY MAX OF 2 TIMES FOR IMU ZERO
000205:    7720           00764                           DEC      500        B-14
000206:    7721           05306                           TC       SVCT3
000207:


000209:                                                                                                  #  BEGIN TASK INSERTION.
000210:
000211: 01,3246                                           BANK     01
000212: 01,3246                                           COUNT    01/WAIT
000213:
000214: 01,3246           54062        WAIT2              TS       WAITBANK                              #  BBANK OF CALLING PROGRAM.
000215: 01,3247           40026                           CS       TIME3
000216: 01,3250           65010                           AD       BIT8                                  #  BIT 8 = OCT 200
000217: 01,3251           10000                           CCS      A                                     #  TEST 200 - C(TIME3).  IF POSITIVE,
000218:                                                                                                  #  IT MEANS THAT TIME3 OVERFLOW HAS OCCURRED PRIOR TO CS TIME3 AND THAT
000219:                                                                                                  #  C(TIME3) = T - T1, INSTEAD OF 1.0 - (T1 - T).  THE FOLLOWING FOUR
000220:                                                                                                  #  ORDERS SET C(A) = TD - T1 + 1 IN EITHER CASE.
000221:
000222: 01,3252           66056                           AD       OCT40001                              #  OVERFLOW HAS OCCURRED.  SET C(A) =
000223: 01,3253           40000                           CS       A                                     #  T - T1 + 1.0 - 201
000224:
000225:                                                                                                  #  NORMAL CASE (C(A) NNZ) YIELDS SAME C(A):  -( -(1.0-(T1-T)) + 200) - 1
000226:
000227: 01,3254           63402                           AD       OCT40201
000228: 01,3255           60002                           AD       Q                                     #  RESULT = TD - T1 + 1.
000229:
000230: 01,3256           10000                           CCS      A                                     #  TEST TD - T1 +1.
000231:
000232: 01,3257           61400                           AD       LST1                                  #  IF TD - T1 POS, GO TO WTLST5 WITH
000233: 01,3260           13322                           TCF      WTLST5                                #  C(A) = (TD - T1) + C(LST1) = TD-T2+1
000234:
000235: 01,3261           13262                           NOOP
000236: 01,3262           40002                           CS       Q
000237:
000238:                                                                                                  #  NOTE THAT THIS PROGRAM SECTION IS NEVER ENTERED WHEN T-T1 G/E -1,
000239:                                                                                                  #  SINCE TD-T1+1 = (TD-T) + (T-T1+1), AND DELTA T = TD-T G/E +1.  (G/E
000240:                                                                                                  #  SYMBOL MEANS GREATER THAN OR EQUAL TO).  THUS THERE NEED BE NO CON-
000241:                                                                                                  #  CERN OVER A PREVIOUS OR IMMINENT OVEFLOW OF TIME3 HERE.
000242:
000243: 01,3263           65002                           AD       POS1/2                                #  WHEN TD IS NEXT, FORM QUANTITY
000244: 01,3264           65002                           AD       POS1/2                                #        1.0 - DELTA T = 1.0 - (TD - T)
000245: 01,3265           56026                           XCH      TIME3
000246: 01,3266           65001                           AD       NEGMAX
000247: 01,3267           60002                           AD       Q                                     #  1.0 - DELTAT T NOW COMPLETE.
000248: 01,3270           00006                           EXTEND                                         #  ZERO INDEX Q.
000249: 01,3271           22007                           QXCH     7                                     #  (ZQ)
000250:


000252: 01,3272           57400        WTLST4             XCH      LST1
000253: 01,3273           57401                           XCH      LST1       +1
000254: 01,3274           57402                           XCH      LST1       +2
000255: 01,3275           57403                           XCH      LST1       +3
000256: 01,3276           57404                           XCH      LST1       +4
000257: 01,3277           57405                           XCH      LST1       +5
000258: 01,3300           57406                           XCH      LST1       +6
000259: 01,3301           57407                           XCH      LST1       +7
000260:
000261: 01,3302           30063                           CA       WAITADR                               #  (MINOR PART OF TASK CADR HAS BEEN IN L.)
000262: 01,3303           50002                           INDEX    Q
000263: 01,3304           13305                           TCF      +1
000264:
000265: 01,3305           53411                           DXCH     LST2
000266: 01,3306           53413                           DXCH     LST2       +2
000267: 01,3307           53415                           DXCH     LST2       +4
000268: 01,3310           53417                           DXCH     LST2       +6
000269: 01,3311           53421                           DXCH     LST2       +8D
000270: 01,3312           53423                           DXCH     LST2       +10D                       #  AT END, CHECK THAT C(LST2 +10) IS STD
000271: 01,3313           53425                           DXCH     LST2       +12D
000272: 01,3314           53427                           DXCH     LST2       +14D
000273: 01,3315           53431                           DXCH     LST2       +16D
000274: 01,3316           65304                           AD       ENDTASK                               #  END ITEM, AS CHECK FOR EXCEEDING
000275:                                                                                                  #  THE LENGTH OF THE LIST.
000276: 01,3317           00006                           EXTEND                                         #  DUMMY TASK ADRES SHOULD BE IN FIXED-
000277: 01,3320           15263                           BZF      LVWTLIST                              #  FIXED SO ITS ADRES ALONE DISTINGUISHES
000278: 01,3321           13375                           TCF      WTABORT                               #  IT.
000279:


000281: 01,3322           10000        WTLST5             CCS      A                                     #  TEST TD - T2 + 1
000282: 01,3323           61401                           AD       LST1       +1
000283: 01,3324           13330                           TCF      +4
000284: 01,3325           65017                           AD       ONE
000285: 01,3326           03403                           TC       WTLST2
000286: 01,3327           00001                           OCT      1
000287:
000288: 01,3330           10000                 +4        CCS      A                                     #  TEST TD - T3 + 1
000289: 01,3331           61402                           AD       LST1       +2
000290: 01,3332           13336                           TCF      +4
000291: 01,3333           65017                           AD       ONE
000292: 01,3334           03403                           TC       WTLST2
000293: 01,3335           00002                           OCT      2
000294:
000295: 01,3336           10000                 +4        CCS      A                                     #  TEST TD - T4 + 1
000296: 01,3337           61403                           AD       LST1       +3
000297: 01,3340           13344                           TCF      +4
000298: 01,3341           65017                           AD       ONE
000299: 01,3342           03403                           TC       WTLST2
000300: 01,3343           00003                           OCT      3
000301:
000302: 01,3344           10000                 +4        CCS      A                                     #  TEST TD - T5 + 1
000303: 01,3345           61404                           AD       LST1       +4
000304: 01,3346           13352                           TCF      +4
000305: 01,3347           65017                           AD       ONE
000306: 01,3350           03403                           TC       WTLST2
000307: 01,3351           00004                           OCT      4
000308:
000309: 01,3352           10000                 +4        CCS      A                                     #  TEST TD - T6 + 1
000310: 01,3353           61405                           AD       LST1       +5
000311: 01,3354           13360                           TCF      +4
000312: 01,3355           65017                           AD       ONE
000313: 01,3356           03403                           TC       WTLST2
000314: 01,3357           00005                           OCT      5
000315:
000316: 01,3360           10000                 +4        CCS      A                                     #  TEST TD - T7 + 1
000317: 01,3361           61406                           AD       LST1       +6
000318: 01,3362           13366                           TCF      +4
000319: 01,3363           65017                           AD       ONE
000320: 01,3364           03403                           TC       WTLST2
000321: 01,3365           00006                           OCT      6
000322:


000324: 01,3366           10000                 +4        CCS      A
000325: 01,3367           61407                           AD       LST1       +7
000326: 01,3370           13374                           TCF      +4
000327: 01,3371           65017                           AD       ONE
000328: 01,3372           03403                           TC       WTLST2
000329: 01,3373           00007                           OCT      7
000330:
000331: 01,3374           10000                 +4        CCS      A
000332: 01,3375           07755        WTABORT            TC       BAILOUT                               #  NO ROOM IN THE INN
000333: 01,3376           01203                           OCT      1203
000334:
000335: 01,3377           65017                           AD       ONE
000336: 01,3400           03403                           TC       WTLST2
000337: 01,3401           00010                           OCT      10
000338:
000339: 01,3402           40201        OCT40201           OCT      40201
000340:


000342:                                                                                                  #  THE ENTRY TC WTLST2 JUST PRECEDING OCT N IS FOR T  LE TD LE T   -1.
000343:                                                                                                  #                                                   N           N+1
000344:
000345:                                                                                                  #  (LE MEANS LESS THAN OR EQUAL TO).  AT ENTRY, C(A) = -(TD - T   + 1)
000346:                                                                                                  #                                                              N+1
000347:
000348:                                                                                                  #  THE LST1 ENTRY-(T   -T +1) IS TO BE REPLACED BY -(TD - T  + 1), AND
000349:                                                                                                  #                   N+1  N                                 N
000350:
000351:                                                                                                  #  THE ENTRY-(T   - TD + 1) IS TO BE INSERTED IMMEDIATELY FOLLOWING.
000352:                                                                                                  #              N+1
000353:
000354: 01,3403           54064        WTLST2             TS       WAITTEMP                              #  C(A) = -(TD - T + 1)
000355: 01,3404           50002                           INDEX    Q
000356: 01,3405           30000                           CAF      0
000357: 01,3406           54002                           TS       Q                                     #  INDEX VALUE INTO Q.
000358:
000359: 01,3407           35017                           CAF      ONE
000360: 01,3410           60064                           AD       WAITTEMP
000361: 01,3411           50002                           INDEX    Q                                     #  C(A) = -(TD - T ) + 1.
000362: 01,3412           27377                           ADS      LST1       -1                         #                 N
000363:
000364: 01,3413           40064                           CS       WAITTEMP
000365: 01,3414           50002                           INDEX    Q
000366: 01,3415           13272                           TCF      WTLST4
000367:


000369:                                                                                                  #  ENTERS HERE ON T3 RUPT TO DISPATCH WAITLISTED TASK.
000370:
000371: 01,3416           00006        T3RUPT             EXTEND
000372: 01,3417           04007                           ROR      SUPERBNK                              #  READ CURRENT SUPERBANK VALUE AND
000373: 01,3420           54016                           TS       BANKRUPT                              #  SAVE WITH E AND F BANK VALUES.
000374: 01,3421           00006                           EXTEND
000375: 01,3422           22012                           QXCH     QRUPT
000376:
000377: 01,3423           35000        T3RUPT2            CAF      NEG1/2                                #  DISPATCH WAITLIST TASK.
000378: 01,3424           57407                           XCH      LST1       +7
000379: 01,3425           57406                           XCH      LST1       +6
000380: 01,3426           57405                           XCH      LST1       +5
000381: 01,3427           57404                           XCH      LST1       +4                         #  1. MOVE UP LST1 CONTENTS, ENTERING
000382: 01,3430           57403                           XCH      LST1       +3                         #     A VALUE OF 1/2 +1 AT THE BOTTOM
000383: 01,3431           57402                           XCH      LST1       +2                         #     FOR T6-T5, CORRESPONDING TO THE
000384: 01,3432           57401                           XCH      LST1       +1                         #     INTERVAL 81.91 SEC FOR ENDTASK.
000385: 01,3433           57400                           XCH      LST1
000386: 01,3434           64777                           AD       POSMAX                                #  2. SET T3 = 1.0 - T2 - T USING LIST 1.
000387: 01,3435           26026                           ADS      TIME3                                 #     SO T3 WON'T TICK DURING UPDATE.
000388: 01,3436           54734                           TS       RUPTAGN
000389: 01,3437           45021                           CS       ZERO
000390: 01,3440           54734                           TS       RUPTAGN                               #  SETS RUPTAGN TO +1 ON OVERFLOW.
000391:
000392: 01,3441           00006                           EXTEND                                         #  DISPATCH TASK.
000393: 01,3442           45305                           DCS      ENDTASK
000394: 01,3443           53431                           DXCH     LST2       +16D
000395: 01,3444           53427                           DXCH     LST2       +14D
000396: 01,3445           53425                           DXCH     LST2       +12D
000397: 01,3446           53423                           DXCH     LST2       +10D
000398: 01,3447           53421                           DXCH     LST2       +8D
000399: 01,3450           53417                           DXCH     LST2       +6
000400: 01,3451           53415                           DXCH     LST2       +4
000401: 01,3452           53413                           DXCH     LST2       +2
000402: 01,3453           53411                           DXCH     LST2
000403:
000404: 01,3454           56001                           XCH      L
000405: 01,3455           00006                           EXTEND
000406: 01,3456           01007                           WRITE    SUPERBNK                              #  SET SUPERBANK FROM BBCON OF 2CADR
000407: 01,3457           56001                           XCH      L                                     #  RESTORE TO L FOR DXCH Z.
000408: 01,3460           52006                           DTCB
000409:


000411:                                                                                                  #  RETURN, AFTER EXECUTION OF T3 OVERFLOW TASK:
000412:
000413:    5324                                           BLOCK    02
000414:    5324                                           COUNT    02/WAIT
000415:
000416:    5324           10734        TASKOVER           CCS      RUPTAGN                               #  IF +1 RETURN TO T3RUPT, IF -0 RESUME.
000417:    5325           35266                           CAF      WAITBB
000418:    5326           54006                           TS       BBANK
000419:    5327           13423                           TCF      T3RUPT2                               #  DISPATCH NEXT TASK IF IT WAS DUE.
000420:
000421:    5330           30016                           CA       BANKRUPT
000422:    5331           00006                           EXTEND
000423:    5332           01007                           WRITE    SUPERBNK                              #  RESTORE SUPERBANK BEFORE RESUME IS DONE
000424:
000425:    5333           00006        RESUME             EXTEND
000426:    5334           22012                           QXCH     QRUPT
000427:    5335           30016        NOQRSM             CA       BANKRUPT
000428:    5336           56006                           XCH      BBANK
000429:    5337           52011        NOQBRSM            DXCH     ARUPT
000430:    5340           00003                           RELINT
000431:    5341           50017                           RESUME
000432:


000434:                                                                                                  #  LONGCALL
000435:                                                                                                  #  PROGRAM DESCRIPTION                           DATE -- 17 MARCH 1967
000436:                                                                                                  #  PROGRAM WRITTEN BY W.H.VANDEVER               LOG SECTION WAITLIST
000437:                                                                                                  #  MOD BY -- R. MELANSON TO ADD DOCUMENTATION    ASSEMBLY SUNDISK REV. 100
000438:
000439:                                                                                                  #  FUNCTIONAL DESCRIPTION --
000440:                                                                                                  #        LONGCALL IS CALLED WITH THE DELTA TIME ARRIVING IN A,L SCALED AS TIME2,TIME1 WITH THE 2CADR OF THE TASK
000441:                                                                                                  #        IMMEDIATELY FOLLOWING THE TC LONGCALL.  FOR EXAMPLE, IT MIGHT BE DONE AS FOLLOWS WHERE TIMELOC IS THE NAME OF
000442:                                                                                                  #        A DP REGISTER CONTAINING A DELTA TIME AND WHERE TASKTODO IS THE NAME OF THE LOCATION AT WHICH LONGCALL IS TO
000443:                                                                                                  #        START.
000444:
000445:                                                                                                  #  CALLING SEQUENCE --
000446:                                                                                                  #                EXTEND
000447:                                                                                                  #                DCA     TIMELOC
000448:                                                                                                  #                TC      LONGCALL
000449:                                                                                                  #                2CADR   TASKTODO
000450:
000451:                                                                                                  #  NORMAL EXIT MODE --
000452:                                                                                                  #        1)      TC      WAITLIST
000453:                                                                                                  #        2)      DTCB    (TC L+3 OF CALLING ROUTINE 1ST PASS THRU LONGCYCL)
000454:                                                                                                  #        3)      DTCB    (TO TASKOVER ON SUBSEQUENT PASSES THRU LONGCYCL)
000455:
000456:                                                                                                  #  ALARM OR ABORT EXIT MODE --
000457:                                                                                                  #        NONE
000458:
000459:                                                                                                  #  OUTPUT --
000460:                                                                                                  #        LONGTIME AND LONGTIME+1 = DELTA TIME
000461:                                                                                                  #        LONGEXIT AND LONGEXIT+1 = RETURN 2CADR
000462:                                                                                                  #        LONGCADR AND LONGCADR+1 = TASK 2CADR
000463:                                                                                                  #        A = SINGLE PRECISION TIME FOR WAITLIST
000464:
000465:                                                                                                  #  ERASABLE INITIALIZATION --
000466:                                                                                                  #        A = MOST SIGNIFICANT PART OF DELTA TIME
000467:                                                                                                  #        L = LEAST SIGNIFICANT PART OF DELTA TIME
000468:                                                                                                  #        Q = ADDRESS OF 2CADR TASK VALUE
000469:
000470:                                                                                                  #  DEBRIS --
000471:                                                                                                  #        A,Q,L
000472:                                                                                                  #        LONGCADR AND LONGCADR+1
000473:                                                                                                  #        LONGEXIT AND LONGEXIT+1
000474:                                                                                                  #        LONGTIME AND LONGTIME+1
000475:
000476:                                                                                                  #  *** THE FOLLOWING IS TO BE IN FIXED-FIXED AND UNSWITCHED ERASIBLE **
000477:
000478:    5342                                           BLOCK    02
000479:    5342  E3,1400                                  EBANK=   LST1
000480:    5342           53140        LONGCALL           DXCH     LONGTIME                              #  OBTAIN THE DELTA TIME
000481:
000482:    5343           00006                           EXTEND                                         #  OBTAIN THE 2CADR


000484:    5344           50002                           NDX      Q
000485:    5345           30001                           DCA      0
000486:    5346           53134                           DXCH     LONGCADR
000487:
000488:    5347           00006                           EXTEND                                         #  NO GO TO THE APPROPRIATE SWITCHED BANK
000489:    5350           35353                           DCA      LGCL2CDR                              #  FOR THE REST OF LONGCALL
000490:    5351           52006                           DTCB
000491:
000492:    5352  E3,1400                                  EBANK=   LST1
000493:    5352           03461 02063  LGCL2CDR           2CADR    LNGCALL2
000494:
000495:                                                                                                  #  *** THE FOLLOWING MAY BE IN A SWITCHED BANK, INCLUDING ITS ERASABLE ***
000496:
000497: 01,3461                                           BANK     01
000498: 01,3461                                           COUNT    01/WAIT
000499:
000500: 01,3461           23435        LNGCALL2           LXCH     LONGEXIT   +1                         #  SAVE THE CORRECT BB FOR RETURN
000501: 01,3462           35016                           CA       TWO                                   #  OBTAIN THE RETURN ADDRESS
000502: 01,3463           26002                           ADS      Q
000503: 01,3464           55434                           TS       LONGEXIT
000504:
000505:                                                                                                  #  *** WAITLIST TASK LONGCYCL ***
000506:
000507: 01,3465           00006        LONGCYCL           EXTEND                                         #  CAN WE SUCCESFULLY TAKE ABOUT 1.25
000508: 01,3466           43477                           DCS      DPBIT14                               #  MINUTES OFF OF LONGTIME
000509: 01,3467           21140                           DAS      LONGTIME
000510:
000511: 01,3470           11140                           CCS      LONGTIME   +1                         #  THE REASONING BEHIND THIS PART IS
000512: 01,3471           13510                           TCF      MUCHTIME                              #  INVOLVED, TAKING INTO ACCOUNT THAT THE
000513:                                                                                                  #  WORDS MAY NOT BE SIGNED CORRECTED (DP
000514:                                                                                                  #  BASIC INSTRUCTIONS
000515:                                                                                                  #  DO NOT SIGN CORRECT) AND THAT WE SUBTRAC-
000516:                                                                                                  #  TED BIT14 (1 OVER HALF THE POS. VALUE
000517:                                                                                                  #  REPRESENTABLE IN SINGLE WORD)
000518: 01,3472           13473                           NOOP                                           #  CAN'T GET HERE *************
000519: 01,3473           13474                           TCF      +1
000520: 01,3474           11137                           CCS      LONGTIME
000521: 01,3475           13510                           TCF      MUCHTIME
000522: 01,3476           00000        DPBIT14            OCT      00000
000523: 01,3477           20000                           OCT      20000
000524:
000525:                                                                                                  #  LONGCALL
000526: 01,3500           35002        LASTTIME           CA       BIT14                                 #  GET BACK THE CORRECT DELTA TFOR WAITLIST
000527: 01,3501           27140                           ADS      LONGTIME   +1
000528: 01,3502           05245                           TC       WAITLIST
000529: 01,3503  E3,1400                                  EBANK=   LST1
000530: 01,3503           03515 02063                     2CADR    GETCADR                               #  THE ENTRY TO OUR LONGCADR
000531:
000532: 01,3505           33517        LONGRTRN           CA       TSKOVCDR                              #  SET IT UP SO THAT ONLY THE FIRST EXIT IS


000534: 01,3506           53435                           DXCH     LONGEXIT                              #  TO THE CALLER OF LONGCALL
000535: 01,3507           52006                           DTCB                                           #  THE REST ARE TO TASKOVER
000536:
000537: 01,3510           35002        MUCHTIME           CA       BIT14                                 #  WE HAVE OVER OUR ABOUT 1.25 MINUTES
000538: 01,3511           05245                           TC       WAITLIST                              #  SO SET UP FOR ANOTHER CYCLE THROUGH HERE
000539: 01,3512  E3,1400                                  EBANK=   LST1
000540: 01,3512           03465 02063                     2CADR    LONGCYCL
000541:
000542: 01,3514           13505                           TCF      LONGRTRN                              #  NOW EXIT PROPERLY
000543:
000544:                                                                                                  #  *** WAITLIST TASK GETCADR ***
000545:
000546: 01,3515           53134        GETCADR            DXCH     LONGCADR                              #  GET THE LONGCALL THAT WE WISHED TO START
000547: 01,3516           52006                           DTCB                                           #  AND TRANSFER CONTROL TO IT
000548:
000549: 01,3517           05324        TSKOVCDR           GENADR   TASKOVER
000550:
000551:

End of include-file WAITLIST.agc.  Parent file is MAIN.agc


