
Source Code


000002:                                                                                                  ## Copyright:   Public domain.
000003:                                                                                                  ## Filename:    WAITLIST.agc
000004:                                                                                                  ## Purpose:     Part of the source code for Colossus 2A, AKA Comanche 055.
000005:                                                                                                  ##              It is part of the source code for the Command Module's (CM)
000006:                                                                                                  ##              Apollo Guidance Computer (AGC), for Apollo 11.
000007:                                                                                                  ## Assembler:   yaYUL
000008:                                                                                                  ## Contact:     Ron Burkey <info@sandroid.org>.
000009:                                                                                                  ## Website:     www.ibiblio.org/apollo.
000010:                                                                                                  ## Pages:       1221-1235
000011:                                                                                                  ## Mod history: 2009-05-14 RSB  Adapted from the Colossus249/ file of the
000012:                                                                                                  ##                              same name, using Comanche055 page images.
000013:                                                                                                  ##              2010-08-29 JL   Fixed indentation.
000014:                                                                                                  ##              2011-05-08 JL   Removed workarounds.
000015:                                                                                                  ##              2016-12-21 RSB  Proofed comment text using octopus/ProoferComments
000016:                                                                                                  ##                              and corrected the errors found.
000017:                                                                                                  ##              2017-01-20 RSB  Fixed comment-text errors noted while diff'ing
000018:                                                                                                  ##                              vs Colossus 249.
000019:                                                                                                  ##              2017-02-09 RSB  Comment-text fixes identified in proofing Artemis 72
000020:                                                                                                  ##              2017-03-16 RSB  Comment-text fixes identified in 5-way
000021:                                                                                                  ##                              side-by-side diff of Luminary 69/99/116/131/210.
000022:
000023:                                                                                                  ## This source code has been transcribed or otherwise adapted from digitized
000024:                                                                                                  ## images of a hardcopy from the MIT Museum.  The digitization was performed
000025:                                                                                                  ## by Paul Fjeld, and arranged for by Deborah Douglas of the Museum.  Many
000026:                                                                                                  ## thanks to both.  The images (with suitable reduction in storage size and
000027:                                                                                                  ## consequent reduction in image quality as well) are available online at
000028:                                                                                                  ## www.ibiblio.org/apollo.  If for some reason you find that the images are
000029:                                                                                                  ## illegible, contact me at info@sandroid.org about getting access to the
000030:                                                                                                  ## (much) higher-quality images which Paul actually created.
000031:                                                                                                  ##
000032:                                                                                                  ## Notations on the hardcopy document read, in part:
000033:                                                                                                  ##
000034:                                                                                                  ##      Assemble revision 055 of AGC program Comanche by NASA
000035:                                                                                                  ##      2021113-051.  10:28 APR. 1, 1969
000036:                                                                                                  ##
000037:                                                                                                  ##      This AGC program shall also be referred to as
000038:                                                                                                  ##                      Colossus 2A
000039:


000041:                                                                                                  #  PROGRAM DESCRIPTION                                           DATE - 10 OCTOBER 1966
000042:                                                                                                  #  MOD NO - 2                                                    LOG SECTION - WAITLIST
000043:                                                                                                  #  MOD BY - MILLER       (DTMAX INCREASED TO 162.5 SEC)          ASSEMBLY SUNBURST REV 5
000044:                                                                                                  #  MOD 3 BY KERNAN       (INHINT INSERTED AT WAITLIST) 2/28/68 SKIPPER REV 4
000045:                                                                                                  #  MOD 4 BY KERNAN       (TWIDDLE IN 54) 3/28/68 SKIPPER REV 13.
000046:
000047:                                                                                                  #  FUNCTIONAL DESCRIPTION -
000048:                                                                                                  #        PART OF A SECTION OF PROGRAMS,- WAITLIST, TASKOVER, T3RUPT, USED TO CALL A PROGRAM, (CALLED A TASK),
000049:                                                                                                  #        WHICH IS TO BEGIN IN C(A) CENTISECONDS.  WAITLIST UPDATES TIME3, LST1 AND LST2.  THE MEANING OF THESE LISTS
000050:                                                                                                  #        FOLLOW.
000051:
000052:                                                                                                  #                C(TIME3) = 16384 -(T1-T) CENTISECONDS, (T=PRESENT TIME, T1-TIME FOR TASK1)
000053:
000054:                                                                                                  #                        C(LST1)         =       -(T2-T1)+1
000055:                                                                                                  #                        C(LST1 +1)      =       -(T3-T2)+1
000056:                                                                                                  #                        C(LST1 +2)      =       -(T4-T3)+1
000057:                                                                                                  #                                        .
000058:                                                                                                  #                                        .
000059:                                                                                                  #                        C(LST1 +6)      =       -(T8-T7)+1
000060:                                                                                                  #                        C(LST1 +7)      =       -(T9-T8)+1
000061:
000062:                                                                                                  #                        C(LST2)         =       2CADR OF TASK1
000063:                                                                                                  #                        C(LST2 +2)      =       2CADR OF TASK2
000064:                                                                                                  #                                        .
000065:                                                                                                  #                                        .
000066:                                                                                                  #                        C(LST2 +14)     =       2CADR OF TASK8
000067:                                                                                                  #                        C(LST2 +16)     =       2CADR OF TASK9
000068:
000069:                                                                                                  #  WARNINGS-
000070:                                                                                                  #  --------
000071:                                                                                                  #        1)      1 <= C(A) <= 16250D (1 CENTISECOND TO 162.5 SEC)
000072:                                                                                                  #        2)      9 TASKS MAXIMUM
000073:                                                                                                  #        3)      TASKS CALLED UNDER INTERRUPT INHIBITED
000074:                                                                                                  #        4)      TASKS END BY TC TASKOVER
000075:
000076:                                                                                                  #  CALLING SEQUENCE -
000077:                                                                                                  #        L-1     CA      DELTAT  (TIME IN CENTISECONDS TO TASK START)
000078:                                                                                                  #        L       TC      WAITLIST
000079:                                                                                                  #        L+1     2CADR   DESIRED TASK
000080:                                                                                                  #        L+2     (MINOR OF 2CADR)
000081:                                                                                                  #        L+3     RELINT          (RETURNS HERE)
000082:
000083:                                                                                                  #  TWIDDLE-
000084:                                                                                                  #  -------
000085:                                                                                                  #        TWIDDLE IS FOR USE WHEN THE TASK BEING SET UP IS IN THE SAME EBANK AND FBANK AS THE USER.  IN
000086:                                                                                                  #        SUCH CASES, IT IMPROVES UPON WAITLIST BY ELIMINATING THE NEED FOR THE BBCON HALF OF THE 2CADR,


000088:                                                                                                  #        SAVING A WORD.  TWIDDLE IS LIKE WAITLIST IN EVERY RESPECT EXCEPT CALLING SEQUENCE, TO WIT-
000089:                                                                                                  #                L-1     CA      DELTAT
000090:                                                                                                  #                L       TC      TWIDDLE
000091:                                                                                                  #                L+1     ADRES   DESIRED TASK
000092:                                                                                                  #                L+2     RELINT          (RETURNS HERE)
000093:
000094:                                                                                                  #  NORMAL EXIT MODES -
000095:                                                                                                  #        AT L+3 OF CALLING SEQUENCE
000096:
000097:                                                                                                  #  ALARM OR ABORT EXIT MODES -
000098:                                                                                                  #        TC      ABORT
000099:                                                                                                  #        OCT     1203    (WAITLIST OVERFLOW - TOO MANY TASKS)
000100:
000101:                                                                                                  #  ERASABLE INITIALIZATION REQUIRED -
000102:                                                                                                  #        ACCOMPLISHED BY FRESH START,--  LST2, ..., LST2 +16 = ENDTASK
000103:                                                                                                  #                                        LST1, ..., LST1 +7  = NEG1/2
000104:
000105:                                                                                                  #  OUTPUT --
000106:                                                                                                  #        LST1 AND LST2 UPDATED WITH NEW TASK AND ASSOCIATED TIME.
000107:
000108:                                                                                                  #  DEBRIS -
000109:                                                                                                  #        CENTRALS - A,Q,L
000110:                                                                                                  #        OTHER    - WAITEXIT, WAITADR, WAITTEMP, WAITBANK
000111:
000112:                                                                                                  #  DETAILED ANALYSIS OF TIMING -
000113:                                                                                                  #        CONTROL WILL NOT BE RETURNED TO THE SPECIFIED ADDRESS (2CADR) IN EXACTLY DELTA T CENTISECONDS.
000114:                                                                                                  #        THE APPROXIMATE TIME MAY BE CALCULATED AS FOLLOWS
000115:                                                                                                  #                LET TO = THE TIME OF THE TC WAITLIST
000116:                                                                                                  #                LET TS = TO +147U + COUNTER INCREMENTS (SET UP TIME)
000117:                                                                                                  #                LET X  = TS -(100TS)/100  (VARIANCE FROM COUNTERS)
000118:                                                                                                  #                LET Y  = LENGTH OF TIME OF INHIBIT INTERRUPT AFTER T3RUPT
000119:                                                                                                  #                LET Z  = LENGTH OF TIME TO PROCESS TASKS WHICH ARE DUE THIS T3RUPT BUT DISPATCHED EARLIER.
000120:                                                                                                  #                (Z=0, USUALLY)
000121:                                                                                                  #                LET DELTD = THE ACTUAL TIME TAKEN TO GIVE CONTROL TO 2CADR
000122:                                                                                                  #        THEN DELTD = TS+DELTA T -X +Y +Z +1.05MS* +COUNTERS*
000123:                                                                                                  #                *-THE TIME TAKEN BY WAITLIST ITSELF AND THE COUNTER TICKING DURING THIS WAITLIST TIME.
000124:                                                                                                  #        IN SHORT, THE ACTUAL TIME TO RETURN CONTROL TO A 2CADR IS AUGMENTED BY THE TIME TO SET UP THE TASK:S
000125:                                                                                                  #        INTERRUPT, ALL COUNTERS TICKING, THE T3RUPT PROCESSING TIME, THE WAITLIST PROCESSING TIME AND THE POSSIBILITY
000126:                                                                                                  #        OF OTHER TASKS INHIBITING THE INTERRUPT.
000127:
000128:    5235                                           BLOCK    02


000130:    5235  E3,1400                                  EBANK=   LST1                                  #  TASK LISTS IN SWITCHED E BANK.
000131:
000132:    5235                                           COUNT    02/WAIT
000133:
000134:    5235           00004        TWIDDLE            INHINT
000135:    5236           54001                           TS       L                                     #  SAVE DELAY TIME IN L
000136:    5237           34777                           CA       POSMAX
000137:    5240           26002                           ADS      Q                                     #  CREATING OVERFLOW AND Q-1 IN Q
000138:    5241           30006                           CA       BBANK
000139:    5242           00006                           EXTEND
000140:    5243           04007                           ROR      SUPERBNK
000141:    5244           56001                           XCH      L
000142:
000143:    5245           00004        WAITLIST           INHINT
000144:    5246           00006                           EXTEND
000145:    5247           65261                           BZMF     WATLST0-
000146:    5250           56002                           XCH      Q                                     #  SAVE DELTA T IN Q AND RETURN IN
000147:    5251           54061                           TS       WAITEXIT                              #  WAITEXIT.
000148:    5252           00006                           EXTEND
000149:    5253           50061                           INDEX    WAITEXIT                              #  IF TWIDDLING, THE TS SKIPS TO HERE
000150:    5254           30001                           DCA      0                                     #  PICK UP 2CADR OF TASK.
000151:    5255           54063                 -1        TS       WAITADR                               #  BBCON WILL REMAIN IN L
000152:    5256           35266        DLY2               CAF      WAITBB                                #  ENTRY FROM FIXDELAY AND VARDELAY.
000153:    5257           56006                           XCH      BBANK
000154:    5260           13246                           TCF      WAIT2
000155:
000156:    5261           05721        WATLST0-           TC       POODOO
000157:    5262           01204                           OCT      1204                                  #  WAITLIST CALL WITH ZERO OR NEG DT
000158:
000159:                                                                                                  #  RETURN TO CALLER AFTER TASK INSERTION:
000160:
000161:    5263           52062        LVWTLIST           DXCH     WAITEXIT
000162:    5264           65016                           AD       TWO
000163:    5265           52006                           DTCB
000164:
000165:    5266  E3,1400                                  EBANK=   LST1
000166:    5266           02063        WAITBB             BBCON    WAIT2
000167:
000168:                                                                                                  #  RETURN TO CALLER +2 AFTER WAITING DT SPECIFIED AT CALLER +1.
000169:
000170:    5267           50002        FIXDELAY           INDEX    Q                                     #  BOTH ROUTINES MUST BE CALLED UNDER
000171:    5270           30000                           CAF      0                                     #  WAITLIST CONTROL AND TERMINATE THE TASK
000172:    5271           24002                           INCR     Q                                     #  IN WHICH THEY WERE CALLED.
000173:
000174:                                                                                                  #  RETURN TO CALLER +1 AFTER WAITING THE DT AS ARRIVING IN A.
000175:
000176:    5272           56002        VARDELAY           XCH      Q                                     #  DT TO Q.  TASK ADRES TO WAITADR.
000177:    5273           54063                           TS       WAITADR
000178:    5274           30006                           CA       BBANK                                 #  BBANK IS SAVED DURING DELAY.
000179:    5275           00006                           EXTEND


000181:    5276           04007                           ROR      SUPERBNK                              #  ADD SBANK TO BBCON.
000182:    5277           54001                           TS       L
000183:    5300           35303                           CAF      DELAYEX
000184:    5301           54061                           TS       WAITEXIT                              #  GO TO TASKOVER AFTER TASK ENTRY.
000185:    5302           15256                           TCF      DLY2
000186:
000187:    5303           15322        DELAYEX            TCF      TASKOVER   -2                         #  RETURNS TO TASKOVER
000188:


000190:                                                                                                  #  ENDTASK MUST BE ENTERED IN FIXED-FIXED SO IT IS DISTINGUISHABLE BY ITS ADRES ALONE.
000191:
000192:    5304  E3,1400                                  EBANK=   LST1
000193:    5304           72471 73714  ENDTASK            -2CADR   SVCT3
000194:
000195:    5306           10076        SVCT3              CCS      FLAGWRD2                              #  DRIFT FLAG
000196:    5307           15324                           TCF      TASKOVER
000197:    5310           15324                           TCF      TASKOVER
000198:    5311           15312                           TCF      +1
000199:
000200:    5312           11322                           CCS      IMUCADR                               #  DON'T DO NBDONLY IF SOMEONE ELSE IS IN
000201:    5313           17717                           TCF      SVCT3X
000202:    5314           15317                           TCF      +3
000203:    5315           17717                           TCF      SVCT3X
000204:    5316           17717                           TCF      SVCT3X
000205:    5317           37672                 +3        CAF      PRIO35                                #  COMPENSATE FOR NBD COEFFICIENTS ONLY.
000206:    5320           05134                           TC       NOVAC                                 #        ENABLE EVERY 81.93 SECONDS
000207:    5321  E3,1460                                  EBANK=   NBDX
000208:    5321           03542 14063                     2CADR    NBDONLY
000209:
000210:    5323           15324                           TCF      TASKOVER
000211:
000212:    6000                                           SETLOC   FFTAG6
000213:    6000                                           BANK
000214:
000215:    7717           05267        SVCT3X             TC       FIXDELAY                              #  DELAY MAX OF 2 TIMES FOR IMU ZERO
000216:    7720           00764                           DEC      500        B-14
000217:    7721           05306                           TC       SVCT3                                 #  CHECK DRIFT FLAG AGAIN
000218:


000220:                                                                                                  #  BEGIN TASK INSERTION.
000221:
000222: 01,3246                                           BANK     01
000223: 01,3246                                           COUNT    01/WAIT
000224:
000225: 01,3246           54062        WAIT2              TS       WAITBANK                              #  BBANK OF CALLING PROGRAM.
000226: 01,3247           40026                           CS       TIME3
000227: 01,3250           65010                           AD       BIT8                                  #  BIT 8 = OCT 200
000228: 01,3251           10000                           CCS      A                                     #  TEST 200 - C(TIME3).  IF POSITIVE,
000229:                                                                                                  #  IT MEANS THAT TIME3 OVERFLOW HAS OCCURRED PRIOR TO CS TIME3 AND THAT
000230:                                                                                                  #  C(TIME3) = T - T1, INSTEAD OF 1.0 - (T1 - T).  THE FOLLOWING FOUR
000231:                                                                                                  #  ORDERS SET C(A) = TD - T1 + 1 IN EITHER CASE.
000232:
000233: 01,3252           66056                           AD       OCT40001                              #  OVERFLOW HAS OCCURRED.  SET C(A) =
000234: 01,3253           40000                           CS       A                                     #  T - T1 + 1.0 - 201
000235:
000236:                                                                                                  #  NORMAL CASE (C(A) NNZ) YIELDS SAME C(A):  -( -(1.0-(T1-T)) + 200) - 1
000237:
000238: 01,3254           63402                           AD       OCT40201
000239: 01,3255           60002                           AD       Q                                     #  RESULT = TD - T1 + 1.
000240:
000241: 01,3256           10000                           CCS      A                                     #  TEST TD - T1 +1
000242:
000243: 01,3257           61400                           AD       LST1                                  #  IF TD - T1 POS, GO TO WTLST5 WITH
000244: 01,3260           13322                           TCF      WTLST5                                #  C(A) = (TD - T1) + C(LST1) = TD-T2+1
000245:
000246: 01,3261           13262                           NOOP
000247: 01,3262           40002                           CS       Q
000248:
000249:                                                                                                  #  NOTE THAT THIS PROGRAM SECTION IS NEVER ENTERED WHEN T-T1 G/E -1,
000250:                                                                                                  #  SINCE TD-T1+1 = (TD-T) + (T-T1+1), AND DELTA T = TD-T G/E +1.  (G/E
000251:                                                                                                  #  SYMBOL MEANS GREATER THAN OR EQUAL TO).  THUS THERE NEED BE NO CON-
000252:                                                                                                  #  CERN OVER A PREVIOUS OR IMMINENT OVERFLOW OF TIME3 HERE.
000253:
000254: 01,3263           65002                           AD       POS1/2                                #  WHEN TD IS NEXT, FORM QUANTITY
000255: 01,3264           65002                           AD       POS1/2                                #        1.0 - DELTA T = 1.0 - (TD - T)
000256: 01,3265           56026                           XCH      TIME3
000257: 01,3266           65001                           AD       NEGMAX
000258: 01,3267           60002                           AD       Q                                     #  1.0 - DELTAT T NOW COMPLETE.
000259: 01,3270           00006                           EXTEND                                         #  ZERO INDEX Q.
000260: 01,3271           22007                           QXCH     7                                     #  (ZQ)
000261:


000263: 01,3272           57400        WTLST4             XCH      LST1
000264: 01,3273           57401                           XCH      LST1       +1
000265: 01,3274           57402                           XCH      LST1       +2
000266: 01,3275           57403                           XCH      LST1       +3
000267: 01,3276           57404                           XCH      LST1       +4
000268: 01,3277           57405                           XCH      LST1       +5
000269: 01,3300           57406                           XCH      LST1       +6
000270: 01,3301           57407                           XCH      LST1       +7
000271:
000272: 01,3302           30063                           CA       WAITADR                               #  (MINOR PART OF TASK CADR HAS BEEN IN L.)
000273: 01,3303           50002                           INDEX    Q
000274: 01,3304           13305                           TCF      +1
000275:
000276: 01,3305           53411                           DXCH     LST2
000277: 01,3306           53413                           DXCH     LST2       +2
000278: 01,3307           53415                           DXCH     LST2       +4
000279: 01,3310           53417                           DXCH     LST2       +6
000280: 01,3311           53421                           DXCH     LST2       +8D
000281: 01,3312           53423                           DXCH     LST2       +10D                       #  AT END, CHECK THAT C(LST2 +10) IS STD
000282: 01,3313           53425                           DXCH     LST2       +12D
000283: 01,3314           53427                           DXCH     LST2       +14D
000284: 01,3315           53431                           DXCH     LST2       +16D
000285: 01,3316           65304                           AD       ENDTASK                               #  END ITEM, AS CHECK FOR EXCEEDING
000286:                                                                                                  #  THE LENGTH OF THE LIST.
000287: 01,3317           00006                           EXTEND                                         #  DUMMY TASK ADRES SHOULD BE IN FIXED-
000288: 01,3320           15263                           BZF      LVWTLIST                              #  FIXED SO ITS ADRES ALONE DISTINGUISHES
000289: 01,3321           13375                           TCF      WTABORT                               #  IT.
000290:


000292: 01,3322           10000        WTLST5             CCS      A                                     #  TEST TD - T2 + 1
000293: 01,3323           61401                           AD       LST1       +1
000294: 01,3324           13330                           TCF      +4
000295: 01,3325           65017                           AD       ONE
000296: 01,3326           03403                           TC       WTLST2
000297: 01,3327           00001                           OCT      1
000298:
000299: 01,3330           10000                 +4        CCS      A                                     #  TEST TD - T3 + 1
000300: 01,3331           61402                           AD       LST1       +2
000301: 01,3332           13336                           TCF      +4
000302: 01,3333           65017                           AD       ONE
000303: 01,3334           03403                           TC       WTLST2
000304: 01,3335           00002                           OCT      2
000305:
000306: 01,3336           10000                 +4        CCS      A                                     #  TEST TD - T4 + 1
000307: 01,3337           61403                           AD       LST1       +3
000308: 01,3340           13344                           TCF      +4
000309: 01,3341           65017                           AD       ONE
000310: 01,3342           03403                           TC       WTLST2
000311: 01,3343           00003                           OCT      3
000312:
000313: 01,3344           10000                 +4        CCS      A                                     #  TEST TD - T5 + 1
000314: 01,3345           61404                           AD       LST1       +4
000315: 01,3346           13352                           TCF      +4
000316: 01,3347           65017                           AD       ONE
000317: 01,3350           03403                           TC       WTLST2
000318: 01,3351           00004                           OCT      4
000319:
000320: 01,3352           10000                 +4        CCS      A                                     #  TEST TD - T6 + 1
000321: 01,3353           61405                           AD       LST1       +5
000322: 01,3354           13360                           TCF      +4
000323: 01,3355           65017                           AD       ONE
000324: 01,3356           03403                           TC       WTLST2
000325: 01,3357           00005                           OCT      5
000326:
000327: 01,3360           10000                 +4        CCS      A                                     #  TEST TD - T7 + 1
000328: 01,3361           61406                           AD       LST1       +6
000329: 01,3362           13366                           TCF      +4
000330: 01,3363           65017                           AD       ONE
000331: 01,3364           03403                           TC       WTLST2
000332: 01,3365           00006                           OCT      6
000333:


000335: 01,3366           10000                 +4        CCS      A
000336: 01,3367           61407                           AD       LST1       +7
000337: 01,3370           13374                           TCF      +4
000338: 01,3371           65017                           AD       ONE
000339: 01,3372           03403                           TC       WTLST2
000340: 01,3373           00007                           OCT      7
000341:
000342: 01,3374           10000                 +4        CCS      A
000343: 01,3375           07755        WTABORT            TC       BAILOUT                               #  NO ROOM IN THE INN.
000344: 01,3376           01203                           OCT      1203
000345:
000346: 01,3377           65017                           AD       ONE
000347: 01,3400           03403                           TC       WTLST2
000348: 01,3401           00010                           OCT      10
000349:
000350: 01,3402           40201        OCT40201           OCT      40201
000351:


000353:                                                                                                  #  THE ENTRY TO WTLST2 JUST PRECEDING OCT N IS FOR T  LE TD LE T   -1.
000354:                                                                                                  #                                                   N           N+1
000355:
000356:                                                                                                  #  (LE MEANS LESS THAN OR EQUAL TO).  AT ENTRY, C(A) = -(TD - T   + 1)
000357:                                                                                                  #                                                              N+1
000358:
000359:                                                                                                  #  THE LST1 ENTRY-(T   -T +1) IS TO BE REPLACED BY -(TD - T  + 1), AND
000360:                                                                                                  #                   N+1  N                                 N
000361:
000362:                                                                                                  #  THE ENTRY-(T   - TD + 1) IS TO BE INSERTED IMMEDIATELY FOLLOWING.
000363:                                                                                                  #              N+1
000364:
000365: 01,3403           54064        WTLST2             TS       WAITTEMP                              #  C(A) = -(TD - T + 1)
000366: 01,3404           50002                           INDEX    Q
000367: 01,3405           30000                           CAF      0
000368: 01,3406           54002                           TS       Q                                     #  INDEX VALUE INTO Q.
000369:
000370: 01,3407           35017                           CAF      ONE
000371: 01,3410           60064                           AD       WAITTEMP
000372: 01,3411           50002                           INDEX    Q                                     #  C(A) = -(TD - T ) + 1.
000373: 01,3412           27377                           ADS      LST1       -1                         #                 N
000374:
000375: 01,3413           40064                           CS       WAITTEMP
000376: 01,3414           50002                           INDEX    Q
000377: 01,3415           13272                           TCF      WTLST4
000378:
000379:                                                                                                  #  C(TIME3) = 1.0 - (T1 - T)
000380:
000381:                                                                                                  #  C(LST1  ) = - (T2 - T1) + 1
000382:                                                                                                  #  C(LST1+1) = - (T3 - T2) + 1
000383:                                                                                                  #  C(LST1+2) = - (T4 - T3) + 1
000384:                                                                                                  #  C(LST1+3) = - (T5 - T4) + 1
000385:                                                                                                  #  C(LST1+4) = - (T6 - T5) + 1
000386:
000387:                                                                                                  #  C(LST2   ) = 2CADR  TASK1
000388:                                                                                                  #  C(LST2+2 ) = 2CADR  TASK2
000389:                                                                                                  #  C(LST2+4 ) = 2CADR  TASK3
000390:                                                                                                  #  C(LST2+6 ) = 2CADR  TASK4
000391:                                                                                                  #  C(LST2+8 ) = 2CADR  TASK5
000392:                                                                                                  #  C(LST2+10) = 2CADR  TASK6
000393:


000395:                                                                                                  #  ENTERS HERE ON T3 RUPT TO DISPATCH WAITLISTED TASK.
000396:
000397: 01,3416           00006        T3RUPT             EXTEND
000398: 01,3417           04007                           ROR      SUPERBNK                              #  READ CURRENT SUPERBANK VALUE AND
000399: 01,3420           54016                           TS       BANKRUPT                              #  SAVE WITH E AND F BANK VALUES.
000400: 01,3421           00006                           EXTEND
000401: 01,3422           22012                           QXCH     QRUPT
000402:
000403: 01,3423           35000        T3RUPT2            CAF      NEG1/2                                #  DISPATCH WAITLIST TASK.
000404: 01,3424           57407                           XCH      LST1       +7
000405: 01,3425           57406                           XCH      LST1       +6
000406: 01,3426           57405                           XCH      LST1       +5
000407: 01,3427           57404                           XCH      LST1       +4                         #  1. MOVE UP LST1 CONTENTS, ENTERING
000408: 01,3430           57403                           XCH      LST1       +3                         #     A VALUE OF 1/2 +1 AT THE BOTTOM
000409: 01,3431           57402                           XCH      LST1       +2                         #     FOR T6-T5, CORRESPONDING TO THE
000410: 01,3432           57401                           XCH      LST1       +1                         #     INTERVAL 81.91 SEC FOR ENDTASK.
000411: 01,3433           57400                           XCH      LST1
000412: 01,3434           64777                           AD       POSMAX                                #  2. SET T3 = 1.0 - T2 - T USING LIST 1.
000413: 01,3435           26026                           ADS      TIME3                                 #  SO T3 WONT TICK DURING UPDATE.
000414: 01,3436           54734                           TS       RUPTAGN
000415: 01,3437           45021                           CS       ZERO
000416: 01,3440           54734                           TS       RUPTAGN                               #  SETS RUPTAGN TO +1 ON OVERFLOW.
000417:
000418: 01,3441           00006                           EXTEND                                         #  DISPATCH TASK.
000419: 01,3442           45305                           DCS      ENDTASK
000420: 01,3443           53431                           DXCH     LST2       +16D
000421: 01,3444           53427                           DXCH     LST2       +14D
000422: 01,3445           53425                           DXCH     LST2       +12D
000423: 01,3446           53423                           DXCH     LST2       +10D
000424: 01,3447           53421                           DXCH     LST2       +8D
000425: 01,3450           53417                           DXCH     LST2       +6
000426: 01,3451           53415                           DXCH     LST2       +4
000427: 01,3452           53413                           DXCH     LST2       +2
000428: 01,3453           53411                           DXCH     LST2
000429:
000430: 01,3454           56001                           XCH      L
000431: 01,3455           00006                           EXTEND
000432: 01,3456           01007                           WRITE    SUPERBNK                              #  SET SUPERBANK FROM BBCON OF 2CADR
000433: 01,3457           56001                           XCH      L                                     #  RESTORE TO L FOR DXCH Z.
000434: 01,3460           52006                           DTCB
000435:


000437:                                                                                                  #  RETURN, AFTER EXECUTION OF T3 OVERFLOW TASK:
000438:
000439:    5324                                           BLOCK    02
000440:    5324                                           COUNT    02/WAIT
000441:
000442:    5324           10734        TASKOVER           CCS      RUPTAGN                               #  IF +1 RETURN TO T3RUPT, IF -0 RESUME.
000443:    5325           35266                           CAF      WAITBB
000444:    5326           54006                           TS       BBANK
000445:    5327           13423                           TCF      T3RUPT2                               #  DISPATCH NEXT TASK IF IT WAS DUE.
000446:
000447:    5330           30016                           CA       BANKRUPT
000448:    5331           00006                           EXTEND
000449:    5332           01007                           WRITE    SUPERBNK                              #  RESTORE SUPERBANK BEFORE RESUME IS DONE
000450:
000451:    5333           00006        RESUME             EXTEND
000452:    5334           22012                           QXCH     QRUPT
000453:    5335           30016        NOQRSM             CA       BANKRUPT
000454:    5336           56006                           XCH      BBANK
000455:    5337           52011        NOQBRSM            DXCH     ARUPT
000456:    5340           00003                           RELINT
000457:    5341           50017                           RESUME
000458:


000460:                                                                                                  #  LONGCALL
000461:                                                                                                  #  PROGRAM DESCRIPTION                           DATE - 17 MARCH 1967
000462:                                                                                                  #  PROGRAM WRITTEN BY W.H.VANDEVER               LOG SECTION WAITLIST
000463:                                                                                                  #  MOD BY - R. MELANSON TO ADD DOCUMENTATION     ASSEMBLY SUNDISK REV. 100
000464:
000465:                                                                                                  #  FUNCTIONAL DESCRIPTION -
000466:                                                                                                  #        LONGCALL IS CALLED WITH THE DELTA TIME ARRIVING IN A,L SCALED AS TIME2,TIME1 WITH THE 2CADR OF THE TASK
000467:                                                                                                  #        IMMEDIATELY FOLLOWING THE TC LONGCALL.  FOR EXAMPLE, IT MIGHT BE DONE AS FOLLOWS WHERE TIMELOC IS THE NAME OF
000468:                                                                                                  #        A DP REGISTER CONTAINING A DELTA TIME AND WHERE TASKTODO IS THE NAME OF THE LOCATION AT WHICH LONGCALL IS TO
000469:                                                                                                  #        START
000470:
000471:                                                                                                  #  CALLING SEQUENCE -
000472:                                                                                                  #                EXTEND
000473:                                                                                                  #                DCA     TIMELOC
000474:                                                                                                  #                TC      LONGCALL
000475:                                                                                                  #                2CADR   TASKTODO
000476:
000477:                                                                                                  #  NORMAL EXIT MODE -
000478:                                                                                                  #        1).     TC      WAITLIST
000479:                                                                                                  #        2).     DTCB    (TO L+3 OF CALLING ROUTINE 1ST PASS THRU LONGCYCL)
000480:                                                                                                  #        3).     DTCB    (TO TASKOVER ON SUBSEQUENT PASSES THRU LONGCYCL)
000481:
000482:                                                                                                  #  ALARM OR ABORT EXIT MODE -
000483:                                                                                                  #        NONE
000484:
000485:                                                                                                  #  OUTPUT -
000486:                                                                                                  #        LONGTIME AND LONGTIME+1 = DELTA TIME
000487:                                                                                                  #        LONGEXIT AND LONGEXIT+1 = RETURN 2CADR
000488:                                                                                                  #        LONGCADR AND LONGCADR+1 = TASK 2CADR
000489:                                                                                                  #        A = SINGLE PRECISION TIME FOR WAITLIST
000490:
000491:                                                                                                  #  ERASABLE INITIALIZATION -
000492:                                                                                                  #        A = MOST SIGNIFICANT PART OF DELTA TIME
000493:                                                                                                  #        L = LEAST SIGNIFICANT PART OF DELTA TIME
000494:                                                                                                  #        Q = ADDRESS OF 2CADR TASK VALUE
000495:
000496:                                                                                                  #  DEBRIS -
000497:                                                                                                  #        A,Q,L
000498:                                                                                                  #        LONGCADR AND LONGCADR+1
000499:                                                                                                  #        LONGEXIT AND LONGEXIT+1
000500:                                                                                                  #        LONGTIME AND LONGTIME+1
000501:
000502:                                                                                                  #  *** THE FOLLOWING IS TO BE IN FIXED-FIXED AND UNSWITCHED ERRASIBLE ***
000503:
000504:    5342                                           BLOCK    02
000505:    5342  E3,1400                                  EBANK=   LST1
000506:    5342           53140        LONGCALL           DXCH     LONGTIME                              #  OBTAIN THE DELTA TIME
000507:
000508:    5343           00006                           EXTEND                                         #  OBTAIN THE 2CADR


000510:    5344           50002                           NDX      Q
000511:    5345           30001                           DCA      0
000512:    5346           53134                           DXCH     LONGCADR
000513:
000514:    5347           00006                           EXTEND                                         #  NOW GO TO THE APPROPRIATE SWITCHED BANK
000515:    5350           35353                           DCA      LGCL2CDR                              #  FOR THE REST OF LONGCALL
000516:    5351           52006                           DTCB
000517:
000518:    5352  E3,1400                                  EBANK=   LST1
000519:    5352           03461 02063  LGCL2CDR           2CADR    LNGCALL2
000520:
000521:                                                                                                  #  *** THE FOLLOWING MAY BE IN A SWITCHED BANK, INCLUDING ITS ERASABLE ***
000522:
000523: 01,3461                                           BANK     01
000524: 01,3461                                           COUNT    01/WAIT
000525:
000526: 01,3461           23435        LNGCALL2           LXCH     LONGEXIT   +1                         #  SAVE THE CORRECT BB FOR RETURN
000527: 01,3462           35016                           CA       TWO                                   #  OBTAIN THE RETURN ADDRESS
000528: 01,3463           26002                           ADS      Q
000529: 01,3464           55434                           TS       LONGEXIT
000530:
000531:                                                                                                  #  *** WAITLIST TASK LONGCYCL ***
000532:
000533: 01,3465           00006        LONGCYCL           EXTEND                                         #  CAN WE SUCCESFULLY TAKE ABOUT 1.25
000534: 01,3466           43477                           DCS      DPBIT14                               #  MINUTES OFF OF LONGTIME
000535: 01,3467           21140                           DAS      LONGTIME
000536:
000537: 01,3470           11140                           CCS      LONGTIME   +1                         #  THE REASONIBG BEHIND THIS PART IS
000538: 01,3471           13510                           TCF      MUCHTIME                              #  INVOLVED, TAKING INTO ACCOUNT THAT THE
000539:                                                                                                  #  WORDS MAY NOT BE SIGNED CORRECTED (DP
000540:                                                                                                  #  BASIC INSTRUCTIONS
000541:                                                                                                  #  DO NOT SIGN CORRECT) AND THAT WE SUBTRAC
000542:                                                                                                  #  TED BIT14 (1 OVER HALF THE POS. VALUE
000543:                                                                                                  #  REPRESENTIBLE IN SINGLE WORD)
000544: 01,3472           13473                           NOOP                                           #  CAN:T GET HERE    **********
000545: 01,3473           13474                           TCF      +1
000546: 01,3474           11137                           CCS      LONGTIME
000547: 01,3475           13510                           TCF      MUCHTIME
000548: 01,3476           00000        DPBIT14            OCT      00000
000549: 01,3477           20000                           OCT      20000
000550:
000551:                                                                                                  #  LONGCALL
000552: 01,3500           35002        LASTTIME           CA       BIT14                                 #  GET BACK THE CORRECT DELTA TFOR WAITLIST
000553: 01,3501           27140                           ADS      LONGTIME   +1
000554: 01,3502           05245                           TC       WAITLIST
000555: 01,3503  E3,1400                                  EBANK=   LST1
000556: 01,3503           03515 02063                     2CADR    GETCADR                               #  THE ENTRY TO OUR LONGCADR
000557:
000558: 01,3505           33517        LONGRTRN           CA       TSKOVCDR                              #  SET IT UP SO THAT ONLY THE FIRST EXIT IS


000560: 01,3506           53435                           DXCH     LONGEXIT                              #  TO THE CALLER OF LONGCALL
000561: 01,3507           52006                           DTCB                                           #  THE REST ARE TO TASKOVER
000562:
000563: 01,3510           35002        MUCHTIME           CA       BIT14                                 #  WE HAVE OVER OUR ABOUT 1.25 MINUTES
000564: 01,3511           05245                           TC       WAITLIST                              #  SO SET UP FOR ANOTHER CYCLE THROUGH HERE
000565: 01,3512  E3,1400                                  EBANK=   LST1
000566: 01,3512           03465 02063                     2CADR    LONGCYCL
000567:
000568: 01,3514           13505                           TCF      LONGRTRN                              #  NOW EXIT PROPERLY
000569:
000570:                                                                                                  #  *** WAITLIST TASK GETCADR ***
000571:
000572: 01,3515           53134        GETCADR            DXCH     LONGCADR                              #  GET THE LONGCALL THAT WE WISHED TO START
000573: 01,3516           52006                           DTCB                                           #  AND TRANSFER CONTROL TO IT
000574:
000575: 01,3517           05324        TSKOVCDR           GENADR   TASKOVER
000576:
000577:

End of include-file WAITLIST.agc.  Parent file is MAIN.agc


