
Source Code


000002:                                                                                                  ## Copyright:   Public domain.
000003:                                                                                                  ## Filename:    ALARM_AND_ABORT.agc
000004:                                                                                                  ## Purpose:     A section of Skylark revision 048.
000005:                                                                                                  ##              It is part of the source code for the Apollo Guidance Computer (AGC)
000006:                                                                                                  ##              for Skylab-2, Skylab-3, Skylab-4, and ASTP. No original listings of
000007:                                                                                                  ##              this software are available; instead, this file was created via
000008:                                                                                                  ##              disassembly of dumps of the core rope modules actually flown on
000009:                                                                                                  ##              Skylab-2. Access to these modules was provided by the New Mexico
000010:                                                                                                  ##              Museum of Space History.
000011:                                                                                                  ## Assembler:   yaYUL
000012:                                                                                                  ## Contact:     Ron Burkey <info@sandroid.org>.
000013:                                                                                                  ## Website:     www.ibiblio.org/apollo/index.html
000014:                                                                                                  ## Mod history: 2023-09-04 MAS  Created from Artemis 072.
000015:
000016:
000017:                                                                                                  #  THE FOLLOWING SUBROUTINE MAY BE CALLED TO DISPLAY A NON-ABORTIVE ALARM CONDITION. IT MAY BE CALLED
000018:                                                                                                  #  EITHER IN INTERRUPT OR UNDER EXECUTIVE CONTROL.
000019:
000020:                                                                                                  #        CALLING SEQUENCE IS AS FOLLOWS:
000021:
000022:                                                                                                  #        TC      ALARM
000023:                                                                                                  #        OCT     NNNNN
000024:                                                                                                  #                                (RETURNS HERE)
000025:
000026:    4000                                           SETLOC   FFTAG7
000027:    4000                                           BANK
000028:
000029:    5644     0374                                  EBANK=   FAILREG
000030:
000031:    5644                                           COUNT*   $$/ALARM
000032:
000033:                                                                                                  #  ALARM TURNS ON THE PROGRAM ALARM LIGHT, BUT DOES NOT DISPLAY.
000034:
000035:    5644           00004        ALARM              INHINT
000036:
000037:    5645           30002                           CA       Q
000038:    5646           55363        ALARM2             TS       ALMCADR
000039:    5647           50002                           INDEX    Q
000040:    5650           30000                           CA       0
000041:    5651           54001        BORTENT            TS       L
000042:
000043:    5652           30006        PRIOENT            CA       BBANK
000044:    5653           00006                 +1        EXTEND
000045:    5654           04007                           ROR      SUPERBNK                              #  ADD SUPER BITS.
000046:    5655           55364                           TS       ALMCADR    +1
000047:
000048:    5656           30002        LARMENT            CA       Q                                     #  STORE RETURN FOR ALARM
000049:    5657           54061                           TS       ITEMP1
000050:
000051:    5660           10374        CHKFAIL1           CCS      FAILREG                               #  IS ANYTHING IN FAILREG
000052:    5661           15665                           TCF      CHKFAIL2                              #  YES TRY NEXT REG
000053:    5662           30001                           CA       L
000054:    5663           54374                           TS       FAILREG
000055:    5664           15671                           TCF      PROGLARM                              #  TURN ALARM LIGHT ON FOR FIRST ALARM
000056:
000057:    5665           10375        CHKFAIL2           CCS      FAILREG    +1
000058:    5666           15671                           TCF      PROGLARM
000059:    5667           30001                           CA       L
000060:    5670           54375                           TS       FAILREG    +1
000061:
000062:    5671           22376        PROGLARM           LXCH     FAILREG    +2                         #  STORE AS "MOST RECENT" ALARM CODE
000063:
000064:    5672           41231                           CS       DSPTAB     +11D                       #  TURN ON PROGRAM ALARM IF OFF
000065:    5673           77760                           MASK     BIT15+9
000066:    5674           27231                           ADS      DSPTAB     +11D
000067:
000068:    5675           56061        MULTEXIT           XCH      ITEMP1                                #  OBTAIN RETURN ADDRESS IN A
000069:    5676           00003                           RELINT
000070:    5677           50000                           INDEX    A
000071:    5700           00001                           TC       1
000072:
000073:                                                                                                  #  PRIOLARM DISPLAYS V05N09 VIA PRIODSPR WITH 3 RETURNS TO THE USER FROM THE ASTRONAUT AT CALL LOC +1,+2,+3 AND
000074:                                                                                                  #  AN IMMEDIATE RETURN TO THE USER AT CALL LOC +4. EXAMPLE FOLLOWS,
000075:                                                                                                  #                CAF     OCTXX           ALARM CODE
000076:                                                                                                  #                TC      BANKCALL
000077:                                                                                                  #                CADR    PRIOLARM
000078:
000079:                                                                                                  #                ...     ...
000080:                                                                                                  #                ...     ...
000081:                                                                                                  #                ...     ...             ASTRONAUT RETURN
000082:                                                                                                  #                TC      PHASCHNG        IMMEDIATE RETURN TO USER. RESTART
000083:                                                                                                  #                OCT     X.1             PHASE CHANGE FOR PRIO DISPLAY
000084:
000085: 10,2000                                           SETLOC   DISPLAYS
000086: 10,2000                                           BANK
000087:
000088: 10,3646                                           COUNT*   $$/DSPLA
000089: 10,3646           00004        PRIOLARM           INHINT                                         #  * * * KEEP IN DISPLAY ROUTINES BANK
000090: 10,3647           54001                           TS       L                                     #  SAVE ALARM CODE
000091:
000092: 10,3650           30133                           CA       BUF2                                  #  2 CADR OF PRIOLARM USER
000093: 10,3651           55363                           TS       ALMCADR
000094: 10,3652           30134                           CA       BUF2       +1
000095: 10,3653           05653                           TC       PRIOENT    +1                         #  * LEAVE L ALONE
000096: 10,3654           77467        -2SEC              DEC      -200       B-14                       #  *** DONT MOVE
000097: 10,3655           35036                           CAF      V05N09
000098: 10,3656           12630                           TCF      PRIODSPR
000099:
000100:    6000                                           SETLOC   FFTAG13
000101:    6000                                           BANK
000102:
000103:    7750                                           COUNT*   $$/ALARM
000104:    7750           00004        BAILOUT            INHINT
000105:    7751           30002                           CA       Q
000106:    7752           55363                           TS       ALMCADR
000107:
000108:    7753           04647                           TC       BANKCALL
000109:    7754           40000                           CADR     VAC5STOR
000110:
000111:    7755           51363                           INDEX    ALMCADR
000112:    7756           30000                           CAF      0
000113:    7757           05651                           TC       BORTENT
000114:    7760           40400        BIT15+9            OCT      40400
000115:
000116:    7761           00004                 -1        INHINT
000117:    7762           35000        WHIMPER            CA       TWO
000118:    7763           60005                           AD       Z
000119:    7764           54017                           TS       BRUPT
000120:    7765           50017                           RESUME
000121:    7766           04666                           TC       POSTJUMP                              #  RESUME SENDS CONTROL HERE
000122:    7767           12615                           CADR     ENEMA
000123:
000124:    4000                                           SETLOC   FFTAG7
000125:    4000                                           COUNT*   $$/ALARM
000126:    4000                                           BANK
000127:
000128:    5701           00004        POODOO             INHINT
000129:    5702           30002                           CA       Q
000130:    5703           55363                           TS       ALMCADR
000131:
000132:    5704           04647                           TC       BANKCALL
000133:    5705           40000                           CADR     VAC5STOR                              #  STORE ERASABLES FOR DEBUGGING PURPOSES.
000134:
000135:    5706           51363                           INDEX    ALMCADR
000136:    5707           30000                           CAF      0
000137:    5710           05651        ABORT2             TC       BORTENT
000138:
000139:    5711           77770        OCT77770           OCT      77770                                 #  DONT MOVE
000140:    5712           34774                           CA       V37FLBIT                              #  IS AVERAGE G ON
000141:    5713           70103                           MASK     FLAGWRD7
000142:    5714           10000                           CCS      A
000143:    5715           07761                           TC       WHIMPER    -1                         #  YES.  DONT DO POODOO.  DO BAILOUT.
000144:
000145:    5716           44764                           CS       BIT14                                 #  DISREGARD ENTRY SETTING
000146:    5717           71237                           MASK     EXTVBACT                              #  EXTENDED VBS ACTIVE?
000147:    5720           10000                           CCS      A
000148:    5721           17761                           TCF      WHIMPER    -1                         #  YES  DONT DO POODOO  DO BAILOUT
000149:
000150:    5722           07722                           TC       DOWNFLAG
000151:    5723           00067                           ADRES    STATEFLG
000152:
000153:    5724           07722                           TC       DOWNFLAG
000154:    5725           00236                           ADRES    AUTOSEQ
000155:
000156:    5726           07722                           TC       DOWNFLAG
000157:    5727           00230                           ADRES    REINTFLG
000158:
000159:    5730           07722                           TC       DOWNFLAG
000160:    5731           00176                           ADRES    UTFLAG
000161:    5732           07722                           TC       DOWNFLAG
000162:    5733           00010                           ADRES    RNDVZFLG
000163:    5734           07722                           TC       DOWNFLAG
000164:    5735           00031                           ADRES    TRACKFLG                              #  FORCE STOPRATE
000165:    5736           07722                           TC       DOWNFLAG
000166:    5737           00054                           ADRES    NODOFLAG
000167:
000168:    5740           04647                           TC       BANKCALL
000169:    5741           12444                           CADR     MR.KLEAN
000170:    5742           07762                           TC       WHIMPER
000171:
000172:    5743     5220               DOALARM            EQUALS   ENDOFJOB
000173:
000174:                                                                                                  #  CALLING SEQUENCE FOR VARALARM
000175:                                                                                                  #                CAF     (ALARM)
000176:                                                                                                  #                TC      VARALARM
000177:
000178:                                                                                                  #  VARALARM TURNS ON PROGRAM ALARM LIGHT BUT DOES NOT DISPLAY
000179:
000180:    5743           00004        VARALARM           INHINT
000181:
000182:    5744           54001                           TS       L                                     #  SAVE USERS ALARM CODE
000183:
000184:    5745           30002                           CA       Q                                     #  SAVE USERS Q
000185:    5746           55363                           TS       ALMCADR
000186:
000187:    5747           05652                           TC       PRIOENT
000188:    5750           00014        OCT14              OCT      14                                    #  DONT MOVE
000189:
000190:    5751           01363                           TC       ALMCADR                               #  RETURN TO USER
000191:
000192:    5752     7750               ABORT              EQUALS   BAILOUT                               #  *** TEMPORARY UNTIL ABORT CALLS OUT

End of include-file ALARM_AND_ABORT.agc.  Parent file is MAIN.agc


