
Source Code


000002:                                                                                                  ## Copyright:   Public domain.
000003:                                                                                                  ## Filename:    ANGLFIND.agc
000004:                                                                                                  ## Purpose:     A section of Skylark revision 048.
000005:                                                                                                  ##              It is part of the source code for the Apollo Guidance Computer (AGC)
000006:                                                                                                  ##              for Skylab-2, Skylab-3, Skylab-4, and ASTP. No original listings of
000007:                                                                                                  ##              this software are available; instead, this file was created via
000008:                                                                                                  ##              disassembly of dumps of the core rope modules actually flown on
000009:                                                                                                  ##              Skylab-2. Access to these modules was provided by the New Mexico
000010:                                                                                                  ##              Museum of Space History.
000011:                                                                                                  ## Assembler:   yaYUL
000012:                                                                                                  ## Contact:     Ron Burkey <info@sandroid.org>.
000013:                                                                                                  ## Website:     www.ibiblio.org/apollo/index.html
000014:                                                                                                  ## Mod history: 2023-09-04 MAS  Created from Artemis 072.
000015:
000016: 22,2000                                           SETLOC   KALCMON1
000017: 22,2000                                           BANK
000018:
000019: 22,2000  E6,1712                                  EBANK=   BCDU
000020:
000021: 22,2000                                           COUNT*   $$/KALC
000022: 22,2000           06006        KALCMAN3           TC       INTPRET
000023: 22,2001           77634                 +1        RTB
000024: 22,2002           44370                                    READCDUK                              #  PICK UP CURRENT CDU ANGLES
000025: 22,2003           03313                           STORE    BCDU                                  #  STORE THE INITIAL S/C ANGLES
000026: 22,2004           72364                           AXC,2    TLOAD                                 #  COMPUTE THE TRANSFORMATION FROM
000027: 22,2005           02271                                    MIS                                   #  INITIAL S/C AXES TO STABLE MEMBER AXES
000028: 22,2006           03313                                    BCDU                                  #  (MIS)
000029: 22,2007           77624                           CALL
000030: 22,2010           44377                                    CDUTODCM
000031: 22,2011           72364                           AXC,2    TLOAD                                 #  COMPUTE THE TRANSFORMATION FROM
000032: 22,2012           03425                                    MFS                                   #  FINAL S/C AXES TO STABLE MEMBER AXES
000033: 22,2013           01300                                    CPHI                                  #  (MFS)
000034: 22,2014           77624                           CALL
000035: 22,2015           44377                                    CDUTODCM
000036: 22,2016           45160        SECAD              AXC,1    CALL                                  #  MIS AND MFS ARRAYS CALCULATED         $2
000037: 22,2017           02271                                    MIS
000038: 22,2020           44334                                    TRANSPOS
000039: 22,2021           77775                           VLOAD
000040: 22,2022           77626                           STADR
000041: 22,2023           50443                           STOVL    TMIS       +12D
000042: 22,2024           77626                           STADR
000043: 22,2025           50451                           STOVL    TMIS       +6
000044: 22,2026           77626                           STADR
000045: 22,2027           74457                           STORE    TMIS                                  #  TMIS = TRANSPOSE(MIS) SCALED BY 2
000046: 22,2030           75160                           AXC,1    AXC,2
000047: 22,2031           03317                                    TMIS
000048: 22,2032           03425                                    MFS
000049: 22,2033           77624                           CALL
000050: 22,2034           44304                                    MXM3
000051: 22,2035           45575                           VLOAD    STADR
000052: 22,2036           50335                           STOVL    MFI        +12D
000053: 22,2037           77626                           STADR
000054: 22,2040           50343                           STOVL    MFI        +6
000055: 22,2041           77626                           STADR
000056: 22,2042           74351                           STORE    MFI                                   #  MFI = TMIS MFS (SCALED BY 4)
000057: 22,2043           45001                           SETPD    CALL                                  #  TRANSPOSE MFI IN PD LIST
000058: 22,2044           00023                                    18D
000059: 22,2045           44343                                    TRNSPSPD
000060: 22,2046           45575                           VLOAD    STADR
000061: 22,2047           50443                           STOVL    TMFI       +12D
000062: 22,2050           77626                           STADR
000063: 22,2051           50451                           STOVL    TMFI       +6
000064: 22,2052           77626                           STADR
000065: 22,2053           74457                           STORE    TMFI                                  #  TMFI = TRANSPOSE (MFI) SCALED BY 4
000066:
000067:                                                                                                  #  CALCULATE COFSKEW AND MFISYM
000068:
000069: 22,2054           45345                           DLOAD    DSU
000070: 22,2055           03322                                    TMFI       +2
000071: 22,2056           03430                                    MFI        +2
000072: 22,2057           45325                           PDDL     DSU                                   #  CALCULATE COF SCALED BY 2/SIN(AM)
000073: 22,2060           03432                                    MFI        +4
000074: 22,2061           03324                                    TMFI       +4
000075: 22,2062           45325                           PDDL     DSU
000076: 22,2063           03332                                    TMFI       +10D
000077: 22,2064           03440                                    MFI        +10D
000078: 22,2065           77666                           VDEF
000079: 22,2066           03342                           STORE    COFSKEW                               #  EQUALS MFISKEW
000080:
000081:                                                                                                  #  CALCULATE AM AND PROCEED ACCORDING TO ITS MAGNITUDE
000082:
000083: 22,2067           43345                           DLOAD    DAD
000084: 22,2070           03426                                    MFI
000085: 22,2071           03446                                    MFI        +16D
000086: 22,2072           43225                           DSU      DAD
000087: 22,2073           15174                                    DP1/4TH
000088: 22,2074           03436                                    MFI        +8D
000089: 22,2075           03350                           STORE    CAM                                   #  CAM = (MFI0+MFI4+MFI8-1)/2 HALF SCALE
000090: 22,2076           77726                           ARCCOS
000091: 22,2077           03352                           STORE    AM                                    #  AM=ARCCOS(CAM)  (AM SCALED BY 2)
000092: 22,2100           51025                           DSU      BPL
000093: 22,2101           04367                                    MINANG
000094: 22,2102           44111                                    CHECKMAX
000095: 22,2103           77776                           EXIT                                           #  MANEUVER LESS THAN 0.25 DEG
000096: 22,2104           00004                           INHINT                                         #  GO DIRECTLY INTO ATTITUDE HOLD
000097: 22,2105           45001                           CS       ONE                                   #  ABOUT COMMANDED ANGLES
000098: 22,2106           55330                           TS       HOLDFLAG                              #  NOGO WILL STOP ANY RATE AND SET UP FOR A
000099: 22,2107           03230                           TC       LOADCDUD                              #  GOOD RETURN
000100: 22,2110           12723                           TCF      NOGO
000101:
000102: 22,2111           45345        CHECKMAX           DLOAD    DSU
000103: 22,2112           03352                                    AM
000104: 22,2113           04370                                    MAXANG
000105: 22,2114           77244                           BPL      VLOAD
000106: 22,2115           44123                                    ALTCALC                               #  UNIT
000107: 22,2116           03342                                    COFSKEW                               #  COFSKEW
000108: 22,2117           77656                           UNIT
000109: 22,2120           02314                           STORE    COF                                   #  COF IS THE MANEUVER AXIS
000110: 22,2121           77650                           GOTO                                           #  SEE IF MANEUVER GOES THRU GIMBAL LOCK
000111: 22,2122           44745                                    LOCSKIRT
000112: 22,2123           53375        ALTCALC            VLOAD    VAD                                   #  IF AM GREATER THAN 170 DEGREES
000113: 22,2124           03426                                    MFI
000114: 22,2125           03320                                    TMFI
000115: 22,2126           77762                           VSR1
000116: 22,2127           27320                           STOVL    MFISYM
000117: 22,2130           03434                                    MFI        +6
000118: 22,2131           74455                           VAD      VSR1
000119: 22,2132           03326                                    TMFI       +6
000120: 22,2133           27326                           STOVL    MFISYM     +6
000121: 22,2134           03442                                    MFI        +12D
000122: 22,2135           74455                           VAD      VSR1
000123: 22,2136           03334                                    TMFI       +12D
000124: 22,2137           03334                           STORE    MFISYM     +12D                       #  MFISYM=(MFI+TMFI)/2   SCALED BY 4
000125:
000126:
000127:                                                                                                  #  CALCULATE COF
000128:
000129: 22,2140           70545                           DLOAD    SR1
000130: 22,2141           03350                                    CAM
000131: 22,2142           45325                           PDDL     DSU                                   #  PD0 CAM                              $4
000132: 22,2143           15202                                    DPHALF
000133: 22,2144           03350                                    CAM
000134: 22,2145           65204                           BOVB     PDDL                                  #  PD2 1 - CAM                          $2
000135: 22,2146           45742                                    SIGNMPAC
000136: 22,2147           03340                                    MFISYM     +16D
000137: 22,2150           56225                           DSU      DDV
000138: 22,2151           00001                                    0
000139: 22,2152           00003                                    2
000140: 22,2153           65366                           SQRT     PDDL                                  #  COFZ = SQRT(MFISYM8-CAM)/1-CAM)
000141: 22,2154           03330                                    MFISYM     +8D                        #                                 $ ROOT 2
000142: 22,2155           56225                           DSU      DDV
000143: 22,2156           00001                                    0
000144: 22,2157           00003                                    2
000145: 22,2160           65366                           SQRT     PDDL                                  #  COFY = SQRT(MFISYM4-CAM)/(1-CAM)  $ROOT2
000146: 22,2161           03320                                    MFISYM
000147: 22,2162           56225                           DSU      DDV
000148: 22,2163           00001                                    0
000149: 22,2164           00003                                    2
000150: 22,2165           55566                           SQRT     VDEF                                  #  COFX = SQRT(MFISYM-CAM)/(1-CAM)  $ROOT 2
000151: 22,2166           77656                           UNIT
000152: 22,2167           02314                           STORE    COF
000153:
000154:                                                                                                  #  DETERMINE LARGEST COF AND ADJUST ACCORDINGLY
000155:
000156: 22,2170           45345        COFMAXGO           DLOAD    DSU
000157: 22,2171           02314                                    COF
000158: 22,2172           02316                                    COF        +2
000159: 22,2173           71240                           BMN      DLOAD                                 #  COFY G COFX
000160: 22,2174           44203                                    COMP12
000161: 22,2175           02314                                    COF
000162: 22,2176           50025                           DSU      BMN
000163: 22,2177           02320                                    COF        +4
000164: 22,2200           44260                                    METHOD3                               #  COFZ G COFX OR COFY
000165: 22,2201           77650                           GOTO
000166: 22,2202           44234                                    METHOD1                               #  COFX G COFY OR COFZ
000167: 22,2203           45345        COMP12             DLOAD    DSU
000168: 22,2204           02316                                    COF        +2
000169: 22,2205           02320                                    COF        +4
000170: 22,2206           77640                           BMN
000171: 22,2207           44260                                    METHOD3                               #  COFZ G COFY OR COFX
000172:
000173: 22,2210           51145        METHOD2            DLOAD    BPL                                   #  COFY MAX
000174: 22,2211           03344                                    COFSKEW    +2                         #  UY
000175: 22,2212           44216                                    U2POS
000176: 22,2213           57575                           VLOAD    VCOMP
000177: 22,2214           02314                                    COF
000178: 22,2215           02314                           STORE    COF
000179: 22,2216           51145        U2POS              DLOAD    BPL
000180: 22,2217           03322                                    MFISYM     +2                         #  UX UY
000181: 22,2220           44224                                    OKU21
000182: 22,2221           57545                           DLOAD    DCOMP                                 #  SIGN OF UX OPPOSITE TO UY
000183: 22,2222           02314                                    COF
000184: 22,2223           02314                           STORE    COF
000185: 22,2224           51145        OKU21              DLOAD    BPL
000186: 22,2225           03332                                    MFISYM     +10D                       #  UY UZ
000187: 22,2226           44745                                    LOCSKIRT
000188: 22,2227           57545                           DLOAD    DCOMP                                 #  SIGN OF UZ OPPOSITE TO UY
000189: 22,2230           02320                                    COF        +4
000190: 22,2231           02320                           STORE    COF        +4
000191: 22,2232           77650                           GOTO
000192: 22,2233           44745                                    LOCSKIRT
000193: 22,2234           51145        METHOD1            DLOAD    BPL                                   #  COFX MAX
000194: 22,2235           03342                                    COFSKEW                               #  UX
000195: 22,2236           44242                                    U1POS
000196: 22,2237           57575                           VLOAD    VCOMP
000197: 22,2240           02314                                    COF
000198: 22,2241           02314                           STORE    COF
000199: 22,2242           51145        U1POS              DLOAD    BPL
000200: 22,2243           03322                                    MFISYM     +2                         #  UX UY
000201: 22,2244           44250                                    OKU12
000202: 22,2245           57545                           DLOAD    DCOMP
000203: 22,2246           02316                                    COF        +2                         #  SIGN OF UY OPPOSITE TO UX
000204: 22,2247           02316                           STORE    COF        +2
000205: 22,2250           51145        OKU12              DLOAD    BPL
000206: 22,2251           03324                                    MFISYM     +4                         #  UX UZ
000207: 22,2252           44745                                    LOCSKIRT
000208: 22,2253           57545                           DLOAD    DCOMP                                 #  SIGN OF UZ OPPOSITE TO UY
000209: 22,2254           02320                                    COF        +4
000210: 22,2255           02320                           STORE    COF        +4
000211: 22,2256           77650                           GOTO
000212: 22,2257           44745                                    LOCSKIRT
000213: 22,2260           51145        METHOD3            DLOAD    BPL                                   #  COFZ MAX
000214: 22,2261           03346                                    COFSKEW    +4                         #  UZ
000215: 22,2262           44266                                    U3POS
000216: 22,2263           57575                           VLOAD    VCOMP
000217: 22,2264           02314                                    COF
000218: 22,2265           02314                           STORE    COF
000219: 22,2266           51145        U3POS              DLOAD    BPL
000220: 22,2267           03324                                    MFISYM     +4                         #  UX UZ
000221: 22,2270           44274                                    OKU31
000222: 22,2271           57545                           DLOAD    DCOMP
000223: 22,2272           02314                                    COF                                   #  SIGN OF UX OPPOSITE TO UZ
000224: 22,2273           02314                           STORE    COF
000225: 22,2274           51145        OKU31              DLOAD    BPL
000226: 22,2275           03332                                    MFISYM     +10D                       #  UY UZ
000227: 22,2276           44745                                    LOCSKIRT
000228: 22,2277           57545                           DLOAD    DCOMP
000229: 22,2300           02316                                    COF        +2                         #  SIGN OF UY OPPOSITE TO UZ
000230: 22,2301           02316                           STORE    COF        +2
000231: 22,2302           77650                           GOTO
000232: 22,2303           44745                                    LOCSKIRT
000233:
000234:                                                                                                  #  MATRIX OPERATIONS
000235:
000236: 22,2304           77601        MXM3               SETPD                                          #  MXM3 MULTIPLIES 2 3X3 MATRICES
000237: 22,2305           00001                                    0                                     #  AND LEAVES RESULT IN PD LIST
000238: 22,2306           64743                           DLOAD*   PDDL*                                 #  ADDRESS OF 1ST MATRIX IN XR1
000239: 22,2307           77762                                    12D,2                                 #  ADDRESS OF 2ND MATRIX IN XR2
000240: 22,2310           77770                                    6,2
000241: 22,2311           55523                           PDDL*    VDEF                                  #  DEFINE VECTOR M2(COL 1)
000242: 22,2312           77776                                    0,2
000243: 22,2313           64717                           MXV*     PDDL*                                 #  M1XM2(COL 1) IN PD
000244: 22,2314           00001                                    0,1
000245: 22,2315           77760                                    14D,2
000246: 22,2316           64723                           PDDL*    PDDL*
000247: 22,2317           77766                                    8D,2
000248: 22,2320           77774                                    2,2
000249: 22,2321           63666                           VDEF     MXV*                                  #  DEFINE VECTOR M2(COL 2)
000250: 22,2322           00001                                    0,1
000251: 22,2323           64723                           PDDL*    PDDL*                                 #  M1XM2(COL2) IN PD
000252: 22,2324           77756                                    16D,2
000253: 22,2325           77764                                    10D,2
000254: 22,2326           55523                           PDDL*    VDEF                                  #  DEFINE VECTOR M2(COL 3)
000255: 22,2327           77772                                    4,2
000256: 22,2330           41517                           MXV*     PUSH                                  #  M1XM2(COL 3) IN PD
000257: 22,2331           00001                                    0,1
000258: 22,2332           77650                           GOTO
000259: 22,2333           44343                                    TRNSPSPD                              #  REVERSE ROWS AND COLS IN PD AND
000260:                                                                                                  #                                        RETURN WITH M1XM2 IN PD LIST
000261:
000262: 22,2334           76601        TRANSPOS           SETPD    VLOAD*                                #  TRANSPOS TRANSPOSES A 3X3 MATRIX
000263: 22,2335           00001                                    0                                     #   AND LEAVES RESULT IN PD LIST
000264: 22,2336           00001                                    0,1                                   #  MATRIX ADDRESS IN XR1
000265: 22,2337           62713                           PDVL*    PDVL*
000266: 22,2340           00007                                    6,1
000267: 22,2341           00015                                    12D,1
000268: 22,2342           77606                           PUSH                                           #  MATRIX IN PD
000269: 22,2343           65345        TRNSPSPD           DLOAD    PDDL                                  #  ENTER WITH MATRIX IN PD LIST
000270: 22,2344           00003                                    2
000271: 22,2345           00007                                    6
000272: 22,2346           14003                           STODL    2
000273: 22,2347           77626                           STADR
000274: 22,2350           63770                           STODL    6
000275: 22,2351           00005                                    4
000276: 22,2352           77725                           PDDL
000277: 22,2353           00015                                    12D
000278: 22,2354           14005                           STODL    4
000279: 22,2355           77626                           STADR
000280: 22,2356           63762                           STODL    12D
000281: 22,2357           00013                                    10D
000282: 22,2360           77725                           PDDL
000283: 22,2361           00017                                    14D
000284: 22,2362           14013                           STODL    10D
000285: 22,2363           77626                           STADR
000286: 22,2364           77760                           STORE    14D
000287: 22,2365           77616                           RVQ                                            #  RETURN WITH TRANSPOSED MATRIX IN PD LIST
000288: 22,2366           00013        MINANG             DEC      .00069375
000289: 22,2367           17071        MAXANG             DEC      .472222
000290: 22,2370           00004        READCDUK           INHINT                                         #  LOAD T(MPAC) WITH THE CURRENT CDU ANGLES
000291: 22,2371           30034                           CA       CDUZ
000292: 22,2372           54156                           TS       MPAC       +2
000293: 22,2373           00006                           EXTEND
000294: 22,2374           30033                           DCA      CDUX
000295: 22,2375           00003                           RELINT
000296: 22,2376           16445                           TCF      TLOAD      +6
000297: 22,2000                                           SETLOC   KALCMON2
000298: 22,2000                                           BANK
000299:
000300: 22,2377                                           COUNT*   $$/KALC
000301:
000302: 22,2377           66370        CDUTODCM           AXT,1    SSP                                   #  SUBROUTINE TO COMPUTE  DIRECTION COSINE
000303: 22,2400           00003                           OCT      3                                     #  MATRIX RELATING S/C AXES TO STABLE
000304: 22,2401           00051                                    S1                                    #  MEMBER AXES FROM 3 CDU ANGLES IN T(MPAC)
000305: 22,2402           00001                           OCT      1                                     #  SET XR1, S1 AND PD FOR LOOP
000306: 22,2403           00010                           STORE    7
000307: 22,2404           77601                           SETPD
000308: 22,2405           00001                                    0
000309: 22,2406           47133        LOOPSIN            SLOAD*   RTB
000310: 22,2407           00013                                    10D,1
000311: 22,2410           45566                                    CDULOGIC
000312: 22,2411           00013                           STORE    10D                                   #  LOAD PD WITH 0 SIN(PHI)
000313: 22,2412           65356                           SIN      PDDL                                  #               2 COS(PHI)
000314: 22,2413           00013                                    10D                                   #               4 SIN(THETA)
000315: 22,2414           41546                           COS      PUSH                                  #               6 COS(THETA)
000316: 22,2415           71300                           TIX,1    DLOAD                                 #               8 SIN(PSI)
000317: 22,2416           44406                                    LOOPSIN                               #              10 COS(PSI)
000318: 22,2417           00007                                    6
000319: 22,2420           72405                           DMP      SL1
000320: 22,2421           00013                                    10D
000321: 22,2422           10001                           STORE    0,2
000322: 22,2423           77745                           DLOAD
000323: 22,2424           00005                                    4
000324: 22,2425           65205                           DMP      PDDL
000325: 22,2426           00001                                    0                                     #  (PD6 SIN(THETA)SIN(PHI))
000326: 22,2427           00007                                    6
000327: 22,2430           41205                           DMP      DMP
000328: 22,2431           00011                                    8D
000329: 22,2432           00003                                    2
000330: 22,2433           44352                           SL1      BDSU
000331: 22,2434           00015                                    12D
000332: 22,2435           77752                           SL1
000333: 22,2436           10003                           STORE    2,2
000334: 22,2437           77745                           DLOAD
000335: 22,2440           00003                                    2
000336: 22,2441           65205                           DMP      PDDL                                  #  (PD7 COS(PHI)SIN(THETA)) SCALED 4
000337: 22,2442           00005                                    4
000338: 22,2443           00007                                    6
000339: 22,2444           41205                           DMP      DMP
000340: 22,2445           00011                                    8D
000341: 22,2446           00001                                    0
000342: 22,2447           77752                           SL1
000343: 22,2450           72415                           DAD      SL1
000344: 22,2451           00017                                    14D
000345: 22,2452           10005                           STORE    4,2
000346: 22,2453           77745                           DLOAD
000347: 22,2454           00011                                    8D
000348: 22,2455           10007                           STORE    6,2
000349: 22,2456           77745                           DLOAD
000350: 22,2457           00013                                    10D
000351: 22,2460           72405                           DMP      SL1
000352: 22,2461           00003                                    2
000353: 22,2462           10011                           STORE    8D,2
000354: 22,2463           77745                           DLOAD
000355: 22,2464           00013                                    10D
000356: 22,2465           57405                           DMP      DCOMP
000357: 22,2466           00001                                    0
000358: 22,2467           77752                           SL1
000359: 22,2470           10013                           STORE    10D,2
000360: 22,2471           77745                           DLOAD
000361: 22,2472           00005                                    4
000362: 22,2473           57405                           DMP      DCOMP
000363: 22,2474           00013                                    10D
000364: 22,2475           77752                           SL1
000365: 22,2476           10015                           STORE    12D,2
000366: 22,2477           77745                           DLOAD
000367: 22,2500           72405                           DMP      SL1                                   #  (PUSH UP 7)
000368: 22,2501           00011                                    8D
000369: 22,2502           41325                           PDDL     DMP                                   #  (PD7 COS(PHI)SIN(THETA)SIN(PSI)) SCALE4
000370: 22,2503           00007                                    6
000371: 22,2504           00001                                    0
000372: 22,2505           72415                           DAD      SL1                                   #  (PUSH UP 7)
000373: 22,2506           77626                           STADR                                          #  C7=COS(PHI)SIN(THETA)SIN(PSI)
000374: 22,2507           67760                           STORE    14D,2
000375: 22,2510           77745                           DLOAD
000376: 22,2511           72405                           DMP      SL1                                   #  (PUSH UP 6)
000377: 22,2512           00011                                    8D
000378: 22,2513           41325                           PDDL     DMP                                   #  (PD6 SIN(THETA)SIN(PHI)SIN(PSI)) SCALE4
000379: 22,2514           00007                                    6
000380: 22,2515           00003                                    2
000381: 22,2516           72425                           DSU      SL1                                   #  (PUSH UP 6)
000382: 22,2517           77626                           STADR
000383: 22,2520           67756                           STORE    16D,2                                 #  C8=-SIN(THETA)SIN(PHI)SIN(PSI)
000384: 22,2521           77616                           RVQ                                            #     +COS(THETA)COS(PHI)
000385: 22,2522                        ENDDCM             EQUALS
000386:
000387: 22,2000                                           SETLOC   KALCMON1
000388: 22,2000                                           BANK
000389:
000390:                                                                                                  #  CALCULATION OF THE MATRIX DEL......
000391:
000392:                                                                                                  #        *      *               --T           *
000393:                                                                                                  #        DEL = (IDMATRIX)COS(A)+UU (1-COS(A))+UX SIN(A)          SCALED 1
000394:
000395:                                                                                                  #              -
000396:                                                                                                  #        WHERE U IS A UNIT VECTOR (DP SCALED 2) ALONG THE AXIS OF ROTATION.
000397:                                                                                                  #        A IS THE ANGLE OF ROTATION (DP SCALED 2)
000398:                                                                                                  #                                           -
000399:                                                                                                  #        UPON ENTRY THE STARTING ADDRESS OF U IS COF, AND A IS IN MPAC
000400:
000401: 22,2522                                           COUNT*   $$/KALC
000402: 22,2522           41401        DELCOMP            SETPD    PUSH                                  #  MPAC CONTAINS THE ANGLE A
000403: 22,2523           00001                                    0
000404: 22,2524           65356                           SIN      PDDL                                  #  PD0 = SIN(A)
000405: 22,2525           41546                           COS      PUSH                                  #  PD2 = COS(A)
000406: 22,2526           65302                           SR2      PDDL                                  #  PD2 = COS(A)                          $8
000407: 22,2527           41021                           BDSU     BOVB                                  #  PD4 = 1-COS(A)                        $2
000408: 22,2530           15202                                    DPHALF
000409: 22,2531           45742                                    SIGNMPAC
000410:
000411:                                                                                                  #  COMPUTE THE DIAGONAL COMPONENTS OF DEL
000412:
000413: 22,2532           77725                           PDDL
000414: 22,2533           02314                                    COF
000415: 22,2534           41316                           DSQ      DMP
000416: 22,2535           00005                                    4
000417: 22,2536           52415                           DAD      SL3
000418: 22,2537           00003                                    2
000419: 22,2540           77604                           BOVB
000420: 22,2541           45742                                    SIGNMPAC
000421: 22,2542           17426                           STODL    DEL                                   #  UX UX(U-COS(A)) +COS(A)               $1
000422: 22,2543           02316                                    COF        +2
000423: 22,2544           41316                           DSQ      DMP
000424: 22,2545           00005                                    4
000425: 22,2546           52415                           DAD      SL3
000426: 22,2547           00003                                    2
000427: 22,2550           77604                           BOVB
000428: 22,2551           45742                                    SIGNMPAC
000429: 22,2552           17436                           STODL    DEL        +8D                        #  UY UY(1-COS(A)) +COS(A)               $1
000430: 22,2553           02320                                    COF        +4
000431: 22,2554           41316                           DSQ      DMP
000432: 22,2555           00005                                    4
000433: 22,2556           52415                           DAD      SL3
000434: 22,2557           00003                                    2
000435: 22,2560           77604                           BOVB
000436: 22,2561           45742                                    SIGNMPAC
000437: 22,2562           03446                           STORE    DEL        +16D                       #  UZ UZ(1-COS(A)) +COS(A)               $1
000438:
000439:                                                                                                  #  COMPUTE THE OFF DIAGONAL TERMS OF DEL
000440:
000441: 22,2563           41345                           DLOAD    DMP
000442: 22,2564           02314                                    COF
000443: 22,2565           02316                                    COF        +2
000444: 22,2566           72405                           DMP      SL1
000445: 22,2567           00005                                    4
000446: 22,2570           41325                           PDDL     DMP                                   #  D6    UX UY (1-COS A)                 $ 4
000447: 22,2571           02320                                    COF        +4
000448: 22,2572           00001                                    0
000449: 22,2573           43206                           PUSH     DAD                                   #  D8    UZ SIN A                        $ 4
000450: 22,2574           00007                                    6
000451: 22,2575           41112                           SL2      BOVB
000452: 22,2576           45742                                    SIGNMPAC
000453: 22,2577           17434                           STODL    DEL        +6
000454: 22,2600           62421                           BDSU     SL2
000455: 22,2601           77604                           BOVB
000456: 22,2602           45742                                    SIGNMPAC
000457: 22,2603           17430                           STODL    DEL        +2
000458: 22,2604           02314                                    COF
000459: 22,2605           41205                           DMP      DMP
000460: 22,2606           02320                                    COF        +4
000461: 22,2607           00005                                    4
000462: 22,2610           65352                           SL1      PDDL                                  #  D6    UX UZ (1-COS A)                 $ 4
000463: 22,2611           02316                                    COF        +2
000464: 22,2612           41405                           DMP      PUSH                                  #  D8    UY SIN(A)
000465: 22,2613           00001                                    0
000466: 22,2614           62415                           DAD      SL2
000467: 22,2615           00007                                    6
000468: 22,2616           77604                           BOVB
000469: 22,2617           45742                                    SIGNMPAC
000470: 22,2620           17432                           STODL    DEL        +4                         #  UX UZ (1-COS(A))+UY SIN(A)
000471: 22,2621           62421                           BDSU     SL2
000472: 22,2622           77604                           BOVB
000473: 22,2623           45742                                    SIGNMPAC
000474: 22,2624           17442                           STODL    DEL        +12D                       #  UX UZ (U-COS(A))-UY SIN(A)
000475: 22,2625           02316                                    COF        +2
000476: 22,2626           41205                           DMP      DMP
000477: 22,2627           02320                                    COF        +4
000478: 22,2630           00005                                    4
000479: 22,2631           65352                           SL1      PDDL                                  #  D6    UY UZ (1-COS(A))                $ 4
000480: 22,2632           02314                                    COF
000481: 22,2633           41405                           DMP      PUSH                                  #  D8    UX SIN(A)
000482: 22,2634           00001                                    0
000483: 22,2635           62415                           DAD      SL2
000484: 22,2636           00007                                    6
000485: 22,2637           77604                           BOVB
000486: 22,2640           45742                                    SIGNMPAC
000487: 22,2641           17444                           STODL    DEL        +14D                       #  UY UZ(1-COS(A)) +UX SIN(A)
000488: 22,2642           62421                           BDSU     SL2
000489: 22,2643           77604                           BOVB
000490: 22,2644           45742                                    SIGNMPAC
000491: 22,2645           03440                           STORE    DEL        +10D                       #  UY UZ(1-COS(A)) -UX SIN(A)
000492: 22,2646           77616                           RVQ
000493:
000494:                                                                                                  #  DIRECTION COSINE MATRIX TO CDU ANGLE ROUTINE
000495:                                                                                                  #  X1 CONTAINS THE COMPLEMENT OF THE STARTING ADDRESS FOR MATRIX (SCALED 2)
000496:                                                                                                  #  LEAVES CDU ANGLES SCALED 2PI IN V(MPAC)
000497:                                                                                                  #  COS(MGA) WILL BE LEFT IN S1 (SCALED 1)
000498:
000499:                                                                                                  #  THE DIRECTION COSINE MATRIX RELATING S/C AXES TO STABLE MEMBER AXES CAN BE WRITTEN AS ***
000500:
000501:                                                                                                  #        C =COS(THETA)COS(PSI)
000502:                                                                                                  #         0
000503:                                                                                                  #        C =-COS(THETA)SIN(PSI)COS(PHI)+SI (THETA)SIN(PHI)
000504:                                                                                                  #         1
000505:                                                                                                  #        C =COS(THETA)SIN(PSI)SIN(PHI) + S N(THETA)COS(PHI)
000506:                                                                                                  #         2
000507:                                                                                                  #        C =SIN(PSI)
000508:                                                                                                  #         3
000509:                                                                                                  #        C =COS(PSI)COS(PHI)
000510:                                                                                                  #         4
000511:                                                                                                  #        C =-COS(PSI)SIN(PHI)
000512:                                                                                                  #         5
000513:                                                                                                  #        C =-SIN(THETA)COS(PSI)
000514:                                                                                                  #         6
000515:                                                                                                  #        C =SIN(THETA)SIN(PSI)COS(PHI)+COS THETA)SIN(PHI)
000516:                                                                                                  #         7
000517:                                                                                                  #        C =-SIN(THETA)SIN(PSI)SIN(PHI)+CO (THETA)COS(PHI)
000518:                                                                                                  #         8
000519:
000520:                                                                                                  #        WHERE   PHI = OGA
000521:                                                                                                  #                THETA = IGA
000522:                                                                                                  #                PSI = MGA
000523:
000524: 22,2647           67543        DCMTOCDU           DLOAD*   ARCSIN
000525: 22,2650           00007                                    6,1
000526: 22,2651           71406                           PUSH     COS                                   #  PD +0         PSI
000527: 22,2652           41152                           SL1      BOVB
000528: 22,2653           45742                                    SIGNMPAC
000529: 22,2654           00051                           STORE    S1
000530: 22,2655           57543                           DLOAD*   DCOMP
000531: 22,2656           00015                                    12D,1
000532: 22,2657           67471                           DDV      ARCSIN
000533: 22,2660           00051                                    S1
000534: 22,2661           51123                           PDDL*    BPL                                   #  PD +2         THETA
000535: 22,2662           00001                                    0,1                                   #  MUST CHECK THE SIGN OF COS(THETA)
000536: 22,2663           44675                                    OKTHETA                               #  TO DETERMINE THE PROPER QUADRANT
000537: 22,2664           57545                           DLOAD    DCOMP
000538: 22,2665           43244                           BPL      DAD
000539: 22,2666           44672                                    SUHALFA
000540: 22,2667           15202                                    DPHALF
000541: 22,2670           77650                           GOTO
000542: 22,2671           44674                                    CALCPHI
000543: 22,2672           77625        SUHALFA            DSU
000544: 22,2673           15202                                    DPHALF
000545: 22,2674           77606        CALCPHI            PUSH
000546: 22,2675           57543        OKTHETA            DLOAD*   DCOMP
000547: 22,2676           00013                                    10D,1
000548: 22,2677           67471                           DDV      ARCSIN
000549: 22,2700           00051                                    S1
000550: 22,2701           51123                           PDDL*    BPL                                   #  PUSH DOWN PHI
000551: 22,2702           00011                                    8D,1
000552: 22,2703           44715                                    OKPHI
000553: 22,2704           57545                           DLOAD    DCOMP                                 #  PUSH UP PHI
000554: 22,2705           43244                           BPL      DAD
000555: 22,2706           44712                                    SUHALFAP
000556: 22,2707           15202                                    DPHALF
000557: 22,2710           77650                           GOTO
000558: 22,2711           44716                                    VECOFANG
000559: 22,2712           52025        SUHALFAP           DSU      GOTO
000560: 22,2713           15202                                    DPHALF
000561: 22,2714           44716                                    VECOFANG
000562: 22,2715           77745        OKPHI              DLOAD                                          #  PUSH UP PHI
000563: 22,2716           43466        VECOFANG           VDEF     RVQ
000564:
000565:                                                                                                  #  ROUTINE FOR TERMINATING AUTOMATIC MANEUVERS
000566:
000567: 22,2717           77776        NOGOM3             EXIT
000568: 22,2720           00004        NOGOM2             INHINT                                         #  THIS LOCATION ACCESSED BY A BZMF NOGO -2
000569: 22,2721           04647                           TC       BANKCALL
000570: 22,2722           40211                           CADR     ZEROEROR
000571:
000572: 22,2723           00004        NOGO               INHINT
000573: 22,2724           04463                           TC       STOPRATE
000574:
000575: 22,2725           35000                           CAF      R67BIT
000576: 22,2726           70104                           MASK     FLAGWRD8
000577: 22,2727           00006                           EXTEND
000578: 22,2730           12740                           BZF      NOTR67ND
000579:
000580: 22,2731           35030                           CAF      1SEC                                  #  WAITLIST TASK IN 1 SECON:
000581: 22,2732           05246                           TC       WAITLIST                              #  RETURN TO UPDTCALL
000582: 22,2733  E6,1712                                  EBANK=   BCDU
000583: 22,2733           02554 74066                     2CADR    R67
000584:
000585: 22,2735           05415                           TC       PHASCHNG
000586: 22,2736           00111                           OCT      00111
000587:
000588: 22,2737  01,2025               1P11SPT2           =        1.11SPOT
000589: 22,2737           05220                           TC       ENDOFJOB
000590:
000591: 22,2740           35000        NOTR67ND           CAF      TWO                                   #  RETURN VIA
000592: 22,2741           05246                           TC       WAITLIST                              #  GOODEND
000593: 22,2742  E6,1712                                  EBANK=   BCDU
000594: 22,2742           02265 20066                     2CADR    ENDMANU
000595:
000596: 22,2744           15220                           TCF      ENDOFJOB

End of include-file ANGLFIND.agc.  Parent file is MAIN.agc


