
Source Code


000002:                                                                                                  ## Copyright:   Public domain.
000003:                                                                                                  ## Filename:    AUTOMATIC_MANEUVERS.agc
000004:                                                                                                  ## Purpose:     A section of Skylark revision 048.
000005:                                                                                                  ##              It is part of the source code for the Apollo Guidance Computer (AGC)
000006:                                                                                                  ##              for Skylab-2, Skylab-3, Skylab-4, and ASTP. No original listings of
000007:                                                                                                  ##              this software are available; instead, this file was created via
000008:                                                                                                  ##              disassembly of dumps of the core rope modules actually flown on
000009:                                                                                                  ##              Skylab-2. Access to these modules was provided by the New Mexico
000010:                                                                                                  ##              Museum of Space History.
000011:                                                                                                  ## Assembler:   yaYUL
000012:                                                                                                  ## Contact:     Ron Burkey <info@sandroid.org>.
000013:                                                                                                  ## Website:     www.ibiblio.org/apollo/index.html
000014:                                                                                                  ## Mod history: 2023-09-04 MAS  Created from Artemis 072.
000015:                                                                                                  ##              2024-03-04 MAS  Updated for Skylark 48.
000016:
000017: 21,2000                                           SETLOC   DAPS3
000018: 21,2000                                           BANK
000019:
000020: 21,3150                                           COUNT*   $$/DAPAM
000021: 21,3150  E6,1537                                  EBANK=   KMPAC
000022: 21,3150           34764        AHFNOROT           CAF      BIT14
000023: 21,3151           05627                           TC       C31BTCHK
000024: 21,3152           13166                           TCF      FREECONT
000025: 21,3153           31530                           CA       RCSFLAGS                              #  SEE IF RATE FILTER HAS BEEN INITIALIZED
000026: 21,3154           74764                           MASK     BIT14
000027: 21,3155           10000                           CCS      A                                     #  IF SO, PROCEED WITH ATTITUDE CONTROL
000028: 21,3156           12346                           TCF      REINIT                                #  IF NOT, RECYCLE TO INITIALIZE FILTER
000029:                                                                                                  #  AUTOMATIC CONTROL YET
000030: 21,3157           34765                           CAF      BIT13
000031: 21,3160           05627                           TC       C31BTCHK
000032: 21,3161           13312                           TCF      HOLDFUNC
000033: 21,3162           31330        AUTOCONT           CA       HOLDFLAG                              #  IF HOLDFLAG IS +, GO TO GRABANG.
000034: 21,3163           00006                           EXTEND                                         #  OTHERWISE, GO TO ATTHOLD.
000035: 21,3164           63242                           BZMF     ATTHOLD
000036: 21,3165           13316                           TCF      GRABANG
000037:
000038:                                                                                                  #  MINIMUM IMPULSE CONTROL
000039:
000040: 21,3166           35001        FREECONT           CAF      ONE
000041: 21,3167           55330                           TS       HOLDFLAG                              #  RESET HOLDFLAG
000042:                                                                                                  #  INHIBIT AUTOMATIC STEERING
000043: 21,3170           00006                           EXTEND
000044: 21,3171           00032                           READ     CHAN32
000045: 21,3172           54001                           TS       L
000046: 21,3173           40000                           COM
000047: 21,3174           71664                           MASK     CHANTEMP
000048: 21,3175           23664                           LXCH     CHANTEMP
000049: 21,3176           73005        RHCMINP            MASK     MANROT
000050: 21,3177           51475                           INDEX    WHICHDAP
000051: 21,3200           13201                           TCF      +1
000052: 21,3201           13203                           TCF      +2
000053: 21,3202           13216                           TCF      DKMICIMP
000054: 21,3203           03116                           TC       STICKCHK
000055: 21,3204           51707                           INDEX    RMANNDX
000056: 21,3205           34625                           CA       MINTAU                                #  MINTAU  +0
000057: 21,3206           55610                           TS       TAU                                   #             +1   +14MS MINIMUM IMPULSE
000058: 21,3207           51710                           INDEX    PMANNDX                               #             +2   -14MS TIME
000059: 21,3210           34625                           CA       MINTAU                                #             +3   +0
000060: 21,3211           55611                           TS       TAU1
000061: 21,3212           51711                           INDEX    YMANNDX
000062: 21,3213           34625                           CA       MINTAU
000063: 21,3214           55612                           TS       TAU2
000064: 21,3215           13045                           TCF      T6PROGM
000065:
000066: 21,3216           55531        DKMICIMP           TS       T5TEMP
000067: 21,3217           00006                           EXTEND
000068: 21,3220           13223                           BZF      +3
000069: 21,3221           45003                           CS       ZERO
000070: 21,3222           55465                           TS       INHIBIT
000071: 21,3223           31531                           CA       T5TEMP
000072: 21,3224           03116                           TC       STICKCHK
000073: 21,3225           51707                           INDEX    RMANNDX
000074: 21,3226           34621                           CA       50MST6     -1
000075: 21,3227           55610                           TS       TAU
000076: 21,3230           51710                           INDEX    PMANNDX
000077: 21,3231           34621                           CA       50MST6     -1
000078: 21,3232           55611                           TS       TAU1
000079: 21,3233           55707                           TS       TAUZ
000080: 21,3234           51711                           INDEX    YMANNDX
000081: 21,3235           34621                           CA       50MST6     -1
000082: 21,3236           55612                           TS       TAU2
000083: 21,3237           40000                           COM
000084: 21,3240           55710                           TS       TAUY
000085: 21,3241           13045                           TCF      T6PROGM
000086:
000087:    4000                                           SETLOC   FFTAG12
000088:    4000                                           BANK
000089:
000090:    4625                                           COUNT*   $$/DAPAM
000091:
000092:    4625           00000        MINTAU             DEC      0          B-14
000093:    4626           00027        DEC23              DEC      23         B-14                       #  = 14 MS
000094:    4627           77750        DECNEG23           DEC      -23        B-14                       #  = -14 MS
000095:    4630           00000                           DEC      0          B-14
000096:
000097:
000098: 21,2000                                           SETLOC   DAPS3
000099: 21,2000                                           BANK
000100:
000101: 21,3242                                           COUNT*   $$/DAPAM
000102:
000103:                                                                                                  #  CALCULATION OF ATTITUDE ERRORS-
000104:
000105:                                                                                                  #        -    *     -      -          -
000106:                                                                                                  #        AK = AMGB (CDUX - THETADX) + BIAS
000107:
000108:                                                                                                  #  IE    *AK *   * 1   SIN(PSI)            0     ** CDUX - THETADX *    *BIAS *
000109:                                                                                                  #        *   *   *                               **                *    *     *
000110:                                                                                                  #        *AK1* = * 0   COS(PSI)COS(PHI)  SIN(PHI)** CDUY - THETADY *  + *BIAS1*
000111:                                                                                                  #        *   *   *                               **                *    *     *
000112:                                                                                                  #        *AK2*   * 0  -COS(PSI)SIN(PHI)  COS(PHI)** CDUZ - THETADZ *    *BIAS2*
000113:
000114:                                                                                                  #  THE BIASES ARE ADDED ONLY WHILE PERFORMING AUTOMATIC MANEUVERS (ESP KALCMANU) TO PROVIDE ADDITIONAL LEAD
000115:                                                                                                  #  AND PREVENT OVERSHOOT WHEN STARTING AN AUTOMATIC MANEUVER. NORMALLY THE REQUIRED LEAD IS ONLY 1-2 DEGREES.
000116:                                                                                                  #  BUT DURING HIGH RATE MANEUVERS IT CAN BE AS MUCH AS 7 DEGREES.  THE BIASES ARE COMPUTED BY KALCMANU AND REMAIN
000117:                                                                                                  #  FIXED UNTIL THE MANEUVER IS COMPLETED AT WHICH TIME THEY ARE RESET TO ZERO.
000118:
000119: 21,3242           30032        ATTHOLD            CA       CDUX
000120: 21,3243           00006                           EXTEND
000121: 21,3244           21623                           MSU      THETADX
000122: 21,3245           55620                           TS       ERRORX
000123: 21,3246           30033                           CA       CDUY
000124: 21,3247           00006                           EXTEND
000125: 21,3250           21624                           MSU      THETADY
000126: 21,3251           55531                           TS       T5TEMP
000127: 21,3252           00006                           EXTEND
000128: 21,3253           71671                           MP       AMGB1
000129: 21,3254           27620                           ADS      ERRORX
000130: 21,3255           31531                           CA       T5TEMP
000131: 21,3256           00006                           EXTEND
000132: 21,3257           71672                           MP       AMGB4
000133: 21,3260           55621                           TS       ERRORY
000134: 21,3261           31531                           CA       T5TEMP
000135: 21,3262           00006                           EXTEND
000136: 21,3263           71674                           MP       AMGB7
000137: 21,3264           55622                           TS       ERRORZ
000138: 21,3265           30034                           CA       CDUZ
000139: 21,3266           00006                           EXTEND
000140: 21,3267           21625                           MSU      THETADZ
000141: 21,3270           55531                           TS       T5TEMP
000142: 21,3271           00006                           EXTEND
000143: 21,3272           71673                           MP       AMGB5
000144: 21,3273           27621                           ADS      ERRORY
000145: 21,3274           31531                           CA       T5TEMP
000146: 21,3275           00006                           EXTEND
000147: 21,3276           71675                           MP       AMGB8
000148: 21,3277           27622                           ADS      ERRORZ
000149: 21,3300           41330                           CS       HOLDFLAG
000150: 21,3301           00006                           EXTEND
000151: 21,3302           63366                           BZMF     JETS
000152: 21,3303           31615                           CA       BIAS                                  #  AD BIASES ONLY IF PERFORMING AUTOMATIC
000153: 21,3304           27620                           ADS      ERRORX
000154: 21,3305           31616                           CA       BIAS1
000155: 21,3306           27621                           ADS      ERRORY
000156: 21,3307           31617                           CA       BIAS2
000157: 21,3310           27622                           ADS      ERRORZ
000158: 21,3311           13366                           TCF      JETS
000159:
000160:
000161: 21,3312           11330        HOLDFUNC           CCS      HOLDFLAG
000162: 21,3313           13316                           TCF      +3
000163: 21,3314           13242                           TCF      ATTHOLD
000164: 21,3315           13316                           TCF      +1
000165: 21,3316           35003        GRABANG            CAF      ZERO                                  #  ZERO WBODYS AND BIASES
000166: 21,3317           55554                           TS       WBODY
000167: 21,3320           55555                           TS       WBODY      +1
000168: 21,3321           55556                           TS       WBODY1
000169: 21,3322           55557                           TS       WBODY1     +1
000170: 21,3323           55560                           TS       WBODY2
000171: 21,3324           55561                           TS       WBODY2     +1
000172: 21,3325           55615                           TS       BIAS
000173: 21,3326           55616                           TS       BIAS1
000174: 21,3327           55617                           TS       BIAS2
000175:
000176: 21,3330           31530                           CA       RCSFLAGS
000177: 21,3331           75067                           MASK     OCT16000
000178: 21,3332           00006                           EXTEND                                         #  IS RATE DAMPING COMPLETED
000179: 21,3333           13341                           BZF      ENDDAMP                               #  IF SO, GO TO ENDDAMP
000180: 21,3334           35003                           CAF      ZERO                                  #  OTHERWISE, ZERO ERRORS
000181: 21,3335           55620                           TS       ERRORX
000182: 21,3336           55621                           TS       ERRORY
000183: 21,3337           55622                           TS       ERRORZ
000184: 21,3340           13366                           TCF      JETS
000185:
000186: 21,3341           55330        ENDDAMP            TS       HOLDFLAG                              #  SET HOLDFLAG +0
000187: 21,3342           00006                           EXTEND
000188: 21,3343           30033                           DCA      CDUX                                  #  PICK UP CDU ANGLES FOR ATTITUDE HOLD
000189: 21,3344           53624                           DXCH     THETADX                               #  REFERENCES
000190: 21,3345           30034                           CA       CDUZ
000191: 21,3346           55625                           TS       THETADZ
000192: 21,3347           13242                           TCF      ATTHOLD
000193:
000194:                                                                                                  #  JET SWITCHING LOGIC AND CALCULATION OF REQUIRED ROTATION COMMANDS
000195:
000196:                                                                                                  #  DETERMINE THE LOCATION OF THE RATE ERROR AND THE ATTITUDE ERROR RELATIVE TO THE SWITCHING LOGIC IN THE PHASE
000197:                                                                                                  #  PLANE.
000198:                                                                                                  #  COMPUTE THE CHANGE IN RATE CORRESPONDING TO THE ATTITUDE ERROR NECESSARY TO DRIVE THE THE S/C INTO THE
000199:                                                                                                  #  APPROPRIATE DEADZONE.
000200:
000201:
000202:                                                                                                  #                                      .
000203:                                                                                                  #    R22                          RATE . ERROR
000204:                                                                                                  #         WL+H                         .
000205:                                                                                                  #  *********************************   .                                 ***** SWITCH LINES ENCLOSING DEADZONES
000206:                                                                                                  #    R23  WL                        *  .
000207:                                                                                                  #  --------------------------------- * .                                 ----- DESIRED RATE LINES
000208:                                                                                                  #    R23  WL-H       -                *.
000209:                                                                                                  #  ****************** -                .                                 R20, R21, R22, ETC  REGIONS IN PHASE
000210:                                                                                                  #                    * -               .* R18      R20       R21         PLANE FOF COMPUTING DESIRED RESPONSE
000211:                                                                                                  #                     *                . *
000212:                                                                                                  #                      *-              .  *
000213:                                                                                                  #    R22             R24*-     R23     .   *
000214:                                                                                                  #                        *-            .    *
000215:                                                                                                  #                         *            .     *
000216:                                                                                                  #                          + -ADB      .      * AF              ATTITUDE
000217:                                                                                                  #  .........................+--+---------------+--+........................
000218:                                                                                                  #                            AF *      .     +ADB  +             ERROR
000219:                                                                                                  #                                *     .            *
000220:                                                                                                  #                                 *    .            -*
000221:                                                                                                  #                                  *   .             -*
000222:                                                                                                  #                                   *  .              -*
000223:                                                                                                  #                                    * .                *
000224:                                                                                                  #                                     *.               - *
000225:                                                                                                  #                                      .                - *****************
000226:                                                                                                  #                                      .*                -
000227:                                                                                                  #                                      . * --------------------------------
000228:                                                                                                  #                                      .  *
000229:                                                                                                  #                                      .   ********************************
000230:                                                                                                  #                                      .
000231:
000232:                                                                                                  #                        FIG. 1  PHASE PLANE SWITCHING LOGIC
000233:
000234:
000235:                                                                                                  #  CONSTANTS FOR JET SWITCHING LOGIC
000236:
000237: 21,3350           00022 06426  WLH                2DEC     .0011111111                            #  = WL+H = 0.5 DEG/SEC          $450
000238: 21,3352           00005 16606                     2DEC     .0003333333                            #  = WL+H = 0.15 DEG/SEC         $450
000239: 21,3354           00012 35415  WLMH               2DEC     .0006666666                            #  = WL-H = 0.3 DEG/SEC          $450
000240: 21,3356           00001 32202                     2DEC     .0001111111                            #  = WL-H = 0.05 DEG/SEC         $450
000241: 21,3360           00016 22021  WL                 2DEC     .0008888888                            #  = WL   = 0.4 DEG/SEC          $450
000242: 21,3362           00003 24404                     2DEC     .0002222222                            #  = WL   = 0.1 DEG/EC           $450
000243: 21,3364           00004        FLAT               DEC      4          B-14                       #  = AF   = 0.044 DEG
000244: 21,3365           00004                           DEC      4          B-14                       #  = AF   = 0.044 DEG
000245:
000246: 21,3366           31706        JETS               CA       ADB
000247: 21,3367           51475                           INDEX    WHICHDAP
000248: 21,3370           63364                           AD       FLAT                                  #  AF = FLAT REGION = .044 DEG
000249: 21,3371           55531                           TS       T5TEMP                                #  ADB+AF
000250: 21,3372           35000                           CAF      TWO
000251: 21,3373           55535        JLOOP              TS       SPNDX
000252: 21,3374           60000                           DOUBLE
000253: 21,3375           55536                           TS       DPNDX
000254: 21,3376           00006                           EXTEND
000255: 21,3377           50000                           INDEX    A
000256: 21,3400           31563                           DCA      ADOT
000257: 21,3401           53545                           DXCH     EDOT
000258: 21,3402           31330                           CA       HOLDFLAG                              #  HOLDFLAG = +0 MEANS THAT DAP IS IN
000259: 21,3403           00006                           EXTEND                                         #  ATTITUDE HOLD AND RATE DAMPING IS OVER.
000260: 21,3404           13411                           BZF      INHOLD                                #  IF THIS IS THE CASE, BYPASS ADDITION
000261:                                                                                                  #  OF WBODY AND GO TO INHOLD
000262: 21,3405           00006                           EXTEND
000263: 21,3406           51536                           INDEX    DPNDX
000264: 21,3407           41555                           DCS      WBODY
000265: 21,3410           21545                           DAS      EDOT                                  #  = ADOT-WBODY
000266: 21,3411           51535        INHOLD             INDEX    SPNDX
000267: 21,3412           31620                           CA       ERRORX
000268: 21,3413           55546                           TS       AERR                                  #  AERR = BIAS + AK
000269:
000270: 21,3414           11544                           CCS      EDOT
000271: 21,3415           13425                           TCF      POSVEL
000272: 21,3416           13420                           TCF      SIGNCK1
000273: 21,3417           13435                           TCF      NEGVEL
000274: 21,3420           11545        SIGNCK1            CCS      EDOT       +1
000275: 21,3421           13425                           TCF      POSVEL
000276: 21,3422           13425                           TCF      POSVEL
000277: 21,3423           13435                           TCF      NEGVEL
000278: 21,3424           13435                           TCF      NEGVEL
000279: 21,3425           00006        POSVEL             EXTEND
000280: 21,3426           31545                           DCA      EDOT
000281: 21,3427           53550                           DXCH     EDOTVEL
000282: 21,3430           31531                           CA       T5TEMP
000283: 21,3431           55552                           TS       ADBVEL                                #  +(ADB+AF)
000284: 21,3432           31546                           CA       AERR
000285: 21,3433           55551                           TS       AERRVEL
000286: 21,3434           03444                           TC       J6.
000287: 21,3435           00006        NEGVEL             EXTEND
000288: 21,3436           41545                           DCS      EDOT
000289: 21,3437           53550                           DXCH     EDOTVEL
000290: 21,3440           41531                           CS       T5TEMP
000291: 21,3441           55552                           TS       ADBVEL                                #  -(ADB+AF)
000292: 21,3442           41546                           CS       AERR
000293: 21,3443           55551                           TS       AERRVEL
000294:
000295: 21,3444           00006        J6.                EXTEND
000296: 21,3445           61706                           SU       ADB
000297: 21,3446           51475                           INDEX    WHICHDAP
000298: 21,3447           61433                           AD       WLH/SLOP
000299: 21,3450           00006                           EXTEND
000300: 21,3451           63515                           BZMF     J8
000301:
000302: 21,3452           41531                           CS       T5TEMP                                #  (ADB+AF)
000303: 21,3453           61551                           AD       AERRVEL
000304: 21,3454           00006                           EXTEND
000305: 21,3455           63457                           BZMF     +2
000306: 21,3456           13505                           TCF      J7
000307: 21,3457           00006                           EXTEND
000308: 21,3460           41550                           DCS      EDOTVEL
000309: 21,3461           00006                           EXTEND
000310: 21,3462           11705                           DV       SLOPE
000311: 21,3463           00006                           EXTEND
000312: 21,3464           61551                           SU       AERRVEL
000313: 21,3465           61706                           AD       ADB
000314: 21,3466           00006                           EXTEND
000315: 21,3467           63577                           BZMF     J18
000316: 21,3470           51475                           INDEX    WHICHDAP
000317: 21,3471           13472                           TCF      +1
000318: 21,3472           13656                           TCF      J23
000319:
000320: 21,3473           00006        NEWCHECK           EXTEND
000321: 21,3474           31550                           DCA      EDOTVEL
000322: 21,3475           00006                           EXTEND
000323: 21,3476           11705                           DV       SLOPE
000324: 21,3477           61551                           AD       AERRVEL
000325: 21,3500           61531                           AD       T5TEMP
000326: 21,3501           40000                           COM
000327: 21,3502           00006                           EXTEND
000328: 21,3503           63656                           BZMF     J23
000329: 21,3504           13677                           TCF      J24
000330:
000331: 21,3505           51475        J7                 INDEX    WHICHDAP
000332: 21,3506           41435                           CS       WL-H/SLP
000333: 21,3507           00006                           EXTEND
000334: 21,3510           61531                           SU       T5TEMP                                #  (ADB+AF)
000335: 21,3511           61551                           AD       AERRVEL
000336: 21,3512           00006                           EXTEND
000337: 21,3513           63603                           BZMF     J20
000338: 21,3514           13615                           TCF      J21
000339:
000340: 21,3515           00006        J8                 EXTEND
000341: 21,3516           51476                           INDEX    WHICHX2
000342: 21,3517           43351                           DCS      WLH
000343: 21,3520           53543                           DXCH     WTEMP
000344: 21,3521           00006                           EXTEND
000345: 21,3522           31550                           DCA      EDOTVEL
000346: 21,3523           21543                           DAS      WTEMP
000347: 21,3524           11542                           CCS      WTEMP
000348: 21,3525           13645                           TCF      J22
000349: 21,3526           13530                           TCF      SIGNCK2
000350: 21,3527           13534                           TCF      NJ22
000351: 21,3530           11543        SIGNCK2            CCS      WTEMP      +1
000352: 21,3531           13645                           TCF      J22
000353: 21,3532           13645                           TCF      J22
000354: 21,3533           13534                           TCF      NJ22
000355:
000356: 21,3534           00006        NJ22               EXTEND
000357: 21,3535           31550                           DCA      EDOTVEL
000358: 21,3536           00006                           EXTEND
000359: 21,3537           11705                           DV       SLOPE
000360: 21,3540           61531                           AD       T5TEMP                                #  (ADB+AF)
000361: 21,3541           61551                           AD       AERRVEL
000362: 21,3542           10000                           CCS      A
000363: 21,3543           13656                           TCF      J23
000364: 21,3544           13656                           TCF      J23
000365: 21,3545           13547                           TCF      +2
000366: 21,3546           13656                           TCF      J23
000367:
000368: 21,3547           00006                           EXTEND
000369: 21,3550           51476                           INDEX    WHICHX2
000370: 21,3551           43355                           DCS      WLMH                                  #  WL - H
000371: 21,3552           53543                           DXCH     WTEMP
000372: 21,3553           00006                           EXTEND
000373: 21,3554           31550                           DCA      EDOTVEL
000374: 21,3555           21543                           DAS      WTEMP
000375: 21,3556           11542                           CCS      WTEMP
000376: 21,3557           13656                           TCF      J23
000377: 21,3560           13562                           TCF      SIGNCK3
000378: 21,3561           13566                           TCF      NJ23
000379: 21,3562           11543        SIGNCK3            CCS      WTEMP      +1
000380: 21,3563           13656                           TCF      J23
000381: 21,3564           13656                           TCF      J23
000382: 21,3565           13566                           TCF      NJ23
000383:
000384: 21,3566           31551        NJ23               CA       AERRVEL
000385: 21,3567           61531                           AD       T5TEMP                                #  (ADB+AF)
000386: 21,3570           51475                           INDEX    WHICHDAP
000387: 21,3571           61435                           AD       WL-H/SLP
000388: 21,3572           10000                           CCS      A
000389: 21,3573           13677                           TCF      J24
000390: 21,3574           13677                           TCF      J24
000391: 21,3575           13645                           TCF      J22
000392: 21,3576           13645                           TCF      J22
000393:
000394: 21,3577           00006        J18                EXTEND
000395: 21,3600           41545                           DCS      EDOT
000396: 21,3601           53540                           DXCH     KMPAC
000397: 21,3602           13711                           TCF      JTIME
000398:
000399: 21,3603           41546        J20                CS       AERR
000400: 21,3604           61552                           AD       ADBVEL
000401: 21,3605           00006                           EXTEND
000402: 21,3606           51475                           INDEX    WHICHDAP
000403: 21,3607           71431                           MP       SLOPE2                                #  (HYSTERESIS SLOPE)
000404: 21,3610           53540                           DXCH     KMPAC
000405: 21,3611           00006                           EXTEND
000406: 21,3612           41545                           DCS      EDOT
000407: 21,3613           21540                           DAS      KMPAC
000408: 21,3614           13711                           TCF      JTIME
000409:
000410: 21,3615           11544        J21                CCS      EDOT
000411: 21,3616           13635                           TCF      JP
000412: 21,3617           13621                           TCF      SIGNCK4
000413: 21,3620           13625                           TCF      JN
000414: 21,3621           11545        SIGNCK4            CCS      EDOT       +1
000415: 21,3622           13635                           TCF      JP
000416: 21,3623           13635                           TCF      JP
000417: 21,3624           13625                           TCF      JN
000418: 21,3625           00006        JN                 EXTEND
000419: 21,3626           41545                           DCS      EDOT
000420: 21,3627           53540                           DXCH     KMPAC
000421: 21,3630           00006                           EXTEND
000422: 21,3631           51476                           INDEX    WHICHX2
000423: 21,3632           33361                           DCA      WL
000424: 21,3633           21540                           DAS      KMPAC
000425: 21,3634           13711                           TCF      JTIME
000426:
000427: 21,3635           00006        JP                 EXTEND
000428: 21,3636           41545                           DCS      EDOT
000429: 21,3637           53540                           DXCH     KMPAC
000430: 21,3640           00006                           EXTEND
000431: 21,3641           51476                           INDEX    WHICHX2
000432: 21,3642           43361                           DCS      WL
000433: 21,3643           21540                           DAS      KMPAC
000434: 21,3644           13711                           TCF      JTIME
000435:
000436: 21,3645           11544        J22                CCS      EDOT
000437: 21,3646           13625                           TCF      JN
000438: 21,3647           13651                           TCF      SIGNCK5
000439: 21,3650           13635                           TCF      JP
000440: 21,3651           11545        SIGNCK5            CCS      EDOT       +1
000441: 21,3652           13625                           TCF      JN
000442: 21,3653           13625                           TCF      JN
000443: 21,3654           13635                           TCF      JP
000444: 21,3655           13635                           TCF      JP
000445:
000446: 21,3656           51535        J23                INDEX    SPNDX
000447: 21,3657           44765                           CS       BIT13                                 #  RESET RATE DAMPING FLAG
000448: 21,3660           71530                           MASK     RCSFLAGS                              #  BIT13 FOR ROLL  (SPNDX = 0)
000449: 21,3661           55530                           TS       RCSFLAGS                              #  BIT12 FOR PITCH (SPNDX = 1)
000450:                                                                                                  #  BIT11 FOR YAW   (SPNDX = 2)
000451:
000452: 21,3662           51535                           INDEX    SPNDX
000453: 21,3663           33002                           CAF      OCT01400                              #  IS THERE TO BE A FORCED FIRING ON THIS
000454: 21,3664           71530                           MASK     RCSFLAGS                              #  AXIS
000455: 21,3665           00006                           EXTEND
000456: 21,3666           13670                           BZF      +2
000457:
000458: 21,3667           13577                           TCF      J18                                   #  YES, GO TO J18 AND FORCE A FIRING
000459:
000460: 21,3670           51475        CHECKDAP           INDEX    WHICHDAP
000461: 21,3671           13672                           TCF      +1
000462: 21,3672           13736                           TCF      DOJET      +2                         #  NO, GO TO DOJET +2 AND DO NOTHING
000463: 21,3673           35003                           CAF      ZERO
000464: 21,3674           55537                           TS       KMPAC
000465: 21,3675           55540                           TS       KMPAC      +1
000466: 21,3676           13734                           TCF      DOJET
000467:
000468: 21,3677           41546        J24                CS       AERR
000469: 21,3700           00006                           EXTEND
000470: 21,3701           61552                           SU       ADBVEL
000471: 21,3702           00006                           EXTEND
000472: 21,3703           51475                           INDEX    WHICHDAP
000473: 21,3704           71431                           MP       SLOPE2                                #  (HYSTERESIS SLOPE)
000474: 21,3705           53540                           DXCH     KMPAC
000475: 21,3706           00006                           EXTEND
000476: 21,3707           41545                           DCS      EDOT
000477: 21,3710           21540                           DAS      KMPAC
000478:
000479:                                                                                                  #  COMPUTE THE JET ON TIME NECESSARY TO ACCOMPLISH THE DESIRED CHANGE IN RATE, IE
000480:
000481:                                                                                                  #             T  = J/M(DELTA W)
000482:                                                                                                  #              J
000483:
000484:                                                                                                  #        DELTA W = DESIRED CHANGE IN S/C ANGULAR RATE AS DETERMINED BY THE
000485:                                                                                                  #                  SWITCHING LOGIC,  AT THIS POINT STORED IN KMPAC.
000486:
000487:                                                                                                  #           J/M  = S/C INERTIA TO TORQUE 9ATIO SCALED BY
000488:                                                                                                  #                    (57.3/450)(B24/1600)(1/.8)
000489:                                                                                                  #                  FOR 1 JET OPERATION  (M = 700 FT-LB).
000490:                                                                                                  #                  IE J/M = J(SLUG-FTFT) X 0.00000085601606
000491:
000492:                                                                                                  #                  THE CORRESPONDING COMPUTER VARIABLES ESTABLISHED BY
000493:                                                                                                  #                  KEYBOARD ENTRY ARE
000494:                                                                                                  #                     J/M (ROLL)
000495:                                                                                                  #                     J/M1 (PITCH)
000496:                                                                                                  #                     J/M2 (YAW)
000497:
000498:                                                                                                  #            T   = JET ON-TIME     SCALED 16384/1600 SEC
000499:                                                                                                  #             J
000500:
000501:                                                                                                  #                  THE COMPUTER VARIABLES ARE
000502:                                                                                                  #                        TAU  (ROLL)
000503:                                                                                                  #                        TAU1 (PITCH)
000504:                                                                                                  #                        TAU2 (YAW)
000505:
000506:
000507: 21,3711           51535        JTIME              INDEX    SPNDX                                 #  PICK UP S/C INERTIA/TORQUE RATIO
000508: 21,3712           31654                           CA       J/M                                   #  SCALED (57.3/450)(B24/1600)
000509: 21,3713           02000                           TC       SMALLMP                               #  FOR 1-JET OPERATION
000510: 21,3714           51475                           INDEX    WHICHDAP
000511: 21,3715           13716                           TCF      +1
000512: 21,3716           13720                           TCF      +2
000513: 21,3717           13722                           TCF      +3
000514: 21,3720           34767                           CA       BIT11
000515: 21,3721           02000                           TC       SMALLMP
000516: 21,3722           11537                           CCS      KMPAC
000517: 21,3723           13727                           TCF      +4
000518: 21,3724           13733                           TCF      TAUNORM
000519: 21,3725           13731                           TCF      +4
000520: 21,3726           13733                           TCF      TAUNORM
000521: 21,3727           34761                           CA       POSMAX
000522: 21,3730           13734                           TCF      DOJET
000523: 21,3731           34763                           CA       NEGMAX
000524: 21,3732           13734                           TCF      DOJET
000525:
000526: 21,3733           31540        TAUNORM            CA       KMPAC      +1
000527: 21,3734           51535        DOJET              INDEX    SPNDX
000528: 21,3735           55610                           TS       TAU
000529: 21,3736           11535                 +2        CCS      SPNDX
000530: 21,3737           13751                           TCF      DKJTIME
000531:
000532: 21,3740           00006        T6PROG             EXTEND                                         #  WHEN THE ROTATION COMMANDS (TAUS)
000533: 21,3741           51476                           INDEX    WHICHX2
000534: 21,3742           33746                           DCA      JETADDR                               #  HAVE BEEN DETERMINED
000535: 21,3743           52113                           DXCH     T5LOC                                 #  RESET T5LOC FOR PHASE3
000536: 21,3744           15336                           TCF      RESUME
000537:
000538: 21,3745  E6,1537                                  EBANK=   KMPAC
000539: 21,3745           02577 36066  JETADDR            2CADR    JETSLECT
000540: 21,3747           02000 26066                     2CADR    DKJSLECT
000541:


000543: 21,3751           51475        DKJTIME            INDEX    WHICHDAP
000544: 21,3752           13753                           TCF      +1
000545: 21,3753           13373                           TCF      JLOOP
000546:
000547: 21,3754           51535                           INDEX    SPNDX
000548: 21,3755           31436                           CA       ECP        -1
000549: 21,3756           02000                           TC       SMALLMP
000550: 21,3757           11537                           CCS      KMPAC
000551: 21,3760           13770                           TCF      +MAXTAU
000552: 21,3761           13763                           TCF      +2
000553: 21,3762           13772                           TCF      -MAXTAU
000554:
000555: 21,3763           31540                           CA       KMPAC      +1
000556: 21,3764           51535        SETTAU             INDEX    SPNDX
000557: 21,3765           55706                           TS       TAUZ       -1
000558: 21,3766           11535                           CCS      SPNDX
000559: 21,3767           13373                           TCF      JLOOP
000560:
000561: 21,3770           34761        +MAXTAU            CAF      POSMAX
000562: 21,3771           13764                           TCF      SETTAU
000563:
000564: 21,3772           34763        -MAXTAU            CAF      NEGMAX
000565: 21,3773           13764                           TCF      SETTAU

End of include-file AUTOMATIC_MANEUVERS.agc.  Parent file is MAIN.agc


