
Source Code


000002:                                                                                                  ## Copyright:   Public domain.
000003:                                                                                                  ## Filename:    CM_BODY_ATTITUDE.agc
000004:                                                                                                  ## Purpose:     A section of Skylark revision 048.
000005:                                                                                                  ##              It is part of the source code for the Apollo Guidance Computer (AGC)
000006:                                                                                                  ##              for Skylab-2, Skylab-3, Skylab-4, and ASTP. No original listings of
000007:                                                                                                  ##              this software are available; instead, this file was created via
000008:                                                                                                  ##              disassembly of dumps of the core rope modules actually flown on
000009:                                                                                                  ##              Skylab-2. Access to these modules was provided by the New Mexico
000010:                                                                                                  ##              Museum of Space History.
000011:                                                                                                  ## Assembler:   yaYUL
000012:                                                                                                  ## Contact:     Ron Burkey <info@sandroid.org>.
000013:                                                                                                  ## Website:     www.ibiblio.org/apollo/index.html
000014:                                                                                                  ## Mod history: 2023-09-04 MAS  Created from Artemis 072.
000015:
000016: 37,2000                                           SETLOC   BODYATT
000017: 37,2000                                           BANK
000018:
000019: 37,3265                                           COUNT*   $$/CMBAT
000020:                                                                                                  #                PDL 12D - 15D SAFE.
000021:
000022:                                                                                                  #    VALUES OF GIMBAL AND BODY ANGLES VALID AT PIP TIME ARE SAVED DURING    READACCS.
000023:
000024: 37,3265  E7,1451                                  EBANK=   RTINIT                                #  LET INTERPRETER SET EB
000025:
000026: 37,3265           06006        CM/POSE            TC       INTPRET                               #  COME HERE VIA AVEGEXIT.
000027:
000028: 37,3266           77201                           SETPD    VLOAD
000029: 37,3267           00001                                    0
000030: 37,3270           01030                                    VN                                    #  KVSCALE = (12800/ .3048) /2VS
000031: 37,3271           63361                           VXSC     PDVL
000032: 37,3272           37561                                    -KVSCALE                              #  KVSCALE = .81491944
000033: 37,3273           02031                                    UNITW                                 #  FULL UNIT VECTOR
000034: 37,3274           74235                           VXV      VXSC                                  #  VREL = V - WE*R
000035: 37,3275           02250                                    UNITR
000036: 37,3276           15114                                    KWE
000037: 37,3277           45455                           VAD      STADR
000038: 37,3300           74251                           STORE    -VREL                                 #  SAVE FOR ENTRY GUIDANCE.      REF COORDS
000039:
000040: 37,3301           72056                           UNIT     LXA,1
000041: 37,3302           00044                                    36D                                   #  ABVAL( -VREL) TO X1
000042: 37,3303           03542                           STORE    UXA/2                                 #  -UVREL                        REF COORDS
000043:
000044: 37,3304           57435                           VXV      VCOMP
000045: 37,3305           02250                                    UNITR                                 #  .5 UNIT                       REF COORDS
000046: 37,3306           66256                           UNIT     SSP                                   #  THE FOLLOWING IS TO PROVIDE A STABLE
000047: 37,3307           00051                                    S1                                    #  UN FOR THE END OF THE TERMINAL PHASE.
000048: 37,3310           00476        SPVQUIT            DEC      .019405                               #  1000/ 2 VS
000049: 37,3311           77300                           TIX,1    VLOAD                                 #  IF V-VQUIT POS, BRANCH.
000050: 37,3312           77314                                    CM/POSE2                              #  SAVE UYA IN OLDUYA
000051: 37,3313           03534                                    OLDUYA                                #  OTHERWISE CONTINUE TO USE OLDUYA.
000052: 37,3314           03550        CM/POSE2           STORE    UYA/2                                 #                                REF COORDS
000053:
000054: 37,3315           03534                           STORE    OLDUYA                                #  RESTORE, OR SAVE AS CASE MAY BE.
000055:
000056: 37,3316           57435                           VXV      VCOMP
000057: 37,3317           03542                                    UXA/2                                 #  FINISH OBTAINING TRAJECTORY TRIAD.
000058: 37,3320           77772                           VSL1
000059: 37,3321           03556                           STORE    UZA/2                                 #                                REF COORDS
000060:
000061: 37,3322           77751                           TLOAD                                          #  PICK UP CDUX, CDUY, CDUZ CORRESPONDING
000062: 37,3323           03321                                    AOG/PIP                               #  TO PIPUP TIME IN 2S,C AND SAVE.
000063: 37,3324           14031        CM/TRIO            STODL    24D
000064: 37,3325           00032                                    25D                                   #  AIG/PIP
000065:
000066: 37,3326           41434                           RTB      PUSH                                  #  TO PDL0
000067: 37,3327           45566                                    CDULOGIC
000068: 37,3330           77746                           COS
000069: 37,3331           17564                           STODL    UBX/2                                 #  CI /2
000070:                                                                                                  #  AIG/PIP FROM PDL 0
000071: 37,3332           57556                           SIN      DCOMP
000072: 37,3333           17570                           STODL    UBX/2      +4                         #  -SI /2
000073: 37,3334           00033                                    26D                                   #  AMG/PIP
000074: 37,3335           41434                           RTB      PUSH                                  #  TO PDL 0
000075: 37,3336           45566                                    CDULOGIC
000076: 37,3337           65356                           SIN      PDDL                                  #  XCH PDL 0. SAVE SM /2
000077: 37,3340           65346                           COS      PDDL                                  #  CM /2 TO PDL 2
000078: 37,3341           00001                                    0                                     #  SM /2
000079: 37,3342           74276                           DCOMP    VXSC
000080: 37,3343           03564                                    UBX/2
000081: 37,3344           77772                           VSL1                                           #  NOISE WONT OVFL.
000082: 37,3345           17572                           STODL    UBY/2                                 #  =(-SMCI, NOISE, SMSI)/2
000083: 37,3346           00003                                    2                                     #  CM /2 REPLACES NOISE
000084: 37,3347           17574                           STODL    UBY/2      +2                         #  UBY/2=(-SMCI, CM, SMSI)/2
000085: 37,3350           00031                                    24D                                   #  AOG/PIP
000086: 37,3351           41434                           RTB      PUSH                                  #  TO PDL 4
000087: 37,3352           45566                                    CDULOGIC
000088: 37,3353           65356                           SIN      PDDL                                  #  XCH PDL 4. SAVE SO /2
000089: 37,3354           74346                           COS      VXSC                                  #  CO /2
000090: 37,3355           03572                                    UBY/2
000091: 37,3356           17572                           STODL    UBY/2                                 #  UBY/2=(-COSMCI, COCM, COSMSI)/4
000092: 37,3357           00005                                    4D                                    #  SO /2
000093: 37,3360           57405                           DMP      DCOMP
000094: 37,3361           03570                                    UBX/2      +4                         #  -SI /2
000095: 37,3362           77615                           DAD
000096: 37,3363           03572                                    UBY/2                                 #   INCREMENT BY (SOSI /4)
000097: 37,3364           17572                           STODL    UBY/2
000098:                                                                                                  #  SO /2 FROM PDL 4
000099: 37,3365           43205                           DMP      DAD
000100: 37,3366           03564                                    UBX/2                                 #  CI /2
000101: 37,3367           03576                                    UBY/2      +4
000102: 37,3370           27576                           STOVL    UBY/2      +4                         #  YB/4                          PLATFORM COORDS
000103:
000104:                                                                                                  #  YB = (-COSMCI + SOSI , COCM , COSMSI + SOCI )
000105:
000106: 37,3371           03572                                    UBY/2
000107: 37,3372           72505                           VXM      VSL2
000108: 37,3373           01720                                    REFSMMAT                              #  .5 UNIT
000109: 37,3374           17572                           STODL    UBY/2                                 #  YB/2  DONE                    REF COORDS
000110:
000111:                                                                                                  #  CM /2 FROM PDL 2
000112: 37,3375           76561                           VXSC     VSL1
000113: 37,3376           03564                                    UBX/2
000114: 37,3377           17564                           STODL    UBX/2                                 #  =( CMCI, NOISE, -CMSI)/2
000115: 37,3400           77626                           STADR                                          #  SM /2 FROM PDL 0
000116: 37,3401           50211                           STOVL    UBX/2      +2                         #  SM /2 REPLACES NOISE
000117: 37,3402           03564                                    UBX/2                                 #  XB/2                          PLATFORM COORDS
000118:
000119:                                                                                                  #  XB = ( CMCI , SM , -CMSI )
000120:
000121: 37,3403           76505                           VXM      VSL1
000122: 37,3404           01720                                    REFSMMAT                              #  .5 UNIT
000123: 37,3405           03564                           STORE    UBX/2                                 #  XB/2 DONE                     REF COORDS
000124:
000125: 37,3406           76435                           VXV      VSL1
000126: 37,3407           03572                                    UBY/2
000127: 37,3410           27600                           STOVL    UBZ/2                                 #  ZB/2 DONE                     REF COORDS
000128:
000129:                                                                                                  #  EQUIVALENT TO
000130:                                                                                                  #  ZB = ( SOSMCI + COSI , -SOCM , -SOSMSI + COCI)
000131:
000132: 37,3411           03542                                    UXA/2                                 #  -UVREL/2 = -UVA/2
000133: 37,3412           53435                           VXV      UNIT                                  #  GET UNIT(-UVREL*UBY)/2  = UL/2
000134: 37,3413           03572                                    UBY/2                                 #  YB/2
000135: 37,3414           50206                           PUSH     DOT                                   #  UL/2  TO PDL 0,5
000136: 37,3415           03556                                    UZA/2                                 #  UNA/2
000137: 37,3416           24021                           STOVL    COSTH                                 #  COS(ROLL)/4
000138: 37,3417           00001                                    0                                     #  UL/2
000139:
000140: 37,3420           77641                           DOT
000141: 37,3421           03550                                    UYA/2
000142: 37,3422           34023                           STCALL   SINTH                                 #  -SIN(ROLL)/4
000143: 37,3423           47250                                    ARCTRIG
000144: 37,3424           24007                           STOVL    6D                                    #  -(ROLL/180) /2
000145: 37,3425           03572                                    UBY/2
000146: 37,3426           72441                           DOT      SL1                                   #  -UVA.UBY = -SIN(BETA)
000147: 37,3427           03542                                    UXA/2                                 #  -UVREL/2
000148: 37,3430           77736                           ARCSIN
000149: 37,3431           24010                           STOVL    7D                                    #  -(BETA/180) /2
000150: 37,3432           03564                                    UBX/2                                 #  XB/2
000151: 37,3433           77641                           DOT                                            #  UL.UBX = -SIN(ALFA)
000152: 37,3434           00001                                    0                                     #  UL/2
000153: 37,3435           24023                           STOVL    SINTH                                 #  -SIN(ALFA)/4
000154: 37,3436           77641                           DOT                                            #  UL/2 FROM PDL 0
000155: 37,3437           03600                                    UBZ/2
000156: 37,3440           34021                           STCALL   COSTH                                 #  COS(ALFA)/4
000157: 37,3441           47250                                    ARCTRIG
000158: 37,3442           24011                           STOVL    8D                                    #  -(ALFA/180) /2
000159: 37,3443           02250                                    UNITR                                 #  UR/2                          REF COORDS
000160: 37,3444           72441                           DOT      SL1
000161: 37,3445           03556                                    UZA/2                                 #  MORE ACCURATE AT LARGE ARG.
000162: 37,3446           77726                           ARCCOS
000163: 37,3447           00013                           STORE    10D                                   #  (-GAMA/180)/2
000164: 37,3450           77551                           TLOAD    EXIT                                  #  ANGLES IN MPAC IN THE ORDER
000165:                                                                                                  #  -( (ROLL, BETA, ALFA) /180)/2
000166: 37,3451           00007                                    6D                                    #  THESE VALUES CORRECT AT PIPUP TIME.
000167:                                                                                                  #  SPACER
000168:
000169:                                                                                                  #  BASIC SUBROUTINE TO UPDATE ATTITUDE ANGLES
000170:
000171: 37,3452  E6,1712                                  EBANK=   AOG
000172:
000173: 37,3452           04611        CM/ATUP            TC       E6SETTER
000174:
000175: 37,3453           50120        CMTR1              INDEX    FIXLOC
000176: 37,3454           40012                           CS       10D                                   #  (GAMA/180)/2
000177: 37,3455           57753                           XCH      GAMA
000178: 37,3456           54001                           TS       L
000179:
000180: 37,3457           00004                           INHINT
000181:                                                                                                  #  MUST REMAIN INHINTED UNTIL UPDATE OF BODY
000182:                                                                                                  #  ANGLES, SO THAT GAMDIFSW IS VALID FIRST PASS
000183:                                                                                                  #  INDICATOR.
000184:
000185: 37,3460           40102                           CS       CM/FLAGS
000186: 37,3461           74767                           MASK     GMDIFBIT                              #  GAMDIFSW = 94D BIT11 INITLY=
000187: 37,3462           00006                           EXTEND                                         #  DONT CALC GAMA DOT UNTIL HAVE FORMD
000188:                                                                                                  #  ONE DIFFERENCE.
000189: 37,3463           13466                           BZF      DOGAMDOT                              #  IS OK, GO ON.
000190: 37,3464           26102                           ADS      CM/FLAGS                              #  KNOW BIT IS 0
000191: 37,3465           03501                           TC       NOGAMDOT                              #  SET GAMDOT = 0
000192:
000193: 37,3466           40001        DOGAMDOT           CS       L
000194: 37,3467           61753                           AD       GAMA                                  #  DEL GAMA/360= T GAMDOT/360
000195: 37,3470           00006                           EXTEND
000196: 37,3471           73562                           MP       TCDU                                  #  TCDU = .1 SEC,   T = 2 SEC.
000197: 37,3472           55754                           TS       GAMDOT                                #  GAMA DOT TCDU / 180
000198:
000199: 37,3473           00006                           EXTEND                                         #  IGNORE GAMDOT IF LEQ  .5 DEG/SEC
000200: 37,3474           63476                           BZMF     +2
000201: 37,3475           40000                           COM
000202: 37,3476           65004                           AD       FIVE
000203: 37,3477           00006                           EXTEND
000204: 37,3500           63503                           BZMF     +3                                    #  SET GAMDOT=+0 AS TAG IF TOO SMALL.
000205:
000206: 37,3501           35003        NOGAMDOT           CA       ZERO                                  #  COME HERE INHINTED.
000207: 37,3502           55754                           TS       GAMDOT
000208:                                                                                                  #  FOR NOW LEAVE IN 2S,C
000209:                                                                                                  #  UPDATE ANGLES BY CORRECTING EUILER ANG
000210:                                                                                                  #  FOR ACCRUED INCREMENT SINCE PIPUP
000211:                                                                                                  #  R = R EUIL + R(NOW) -R(PIPUP)
000212: 37,3503           40154                           CS       MPAC                                  #  GET (R EUL/180) /2
000213: 37,3504           60000                           DOUBLE                                         #  POSSIBLE OVERFLOW
000214: 37,3505           03552                           TC       CORANGOV                              #  CORRECT FOR OVFL IF ANY
000215: 37,3506           00006                           EXTEND
000216: 37,3507           61723                           SU       ROLL/PIP                              #  GET INCR SINCE PIPUP
000217: 37,3510           61715                           AD       ROLL/180                              #  ONLY SINGLE OVFL POSSIBLE.
000218: 37,3511           03552                           TC       CORANGOV                              #  CORRECT FOR OVFL IF ANY
000219: 37,3512           55772                           TS       TEMPROLL
000220:
000221: 37,3513           40156                           CS       MPAC       +2                         #  GET (ALFA EUL/180) /2
000222: 37,3514           60000                           DOUBLE                                         #  SAME AS FOR ROLL. NEEDED FOR EXT ATM DAP
000223: 37,3515           03552                           TC       CORANGOV                              #  CORRECT FOR OVFL IF ANY
000224: 37,3516           00006                           EXTEND
000225: 37,3517           61724                           SU       ALFA/PIP
000226: 37,3520           61716                           AD       ALFA/180
000227: 37,3521           03552                           TC       CORANGOV                              #  CORRECT FOR OVFL IF ANY
000228: 37,3522           55773                           TS       TEMPALFA
000229:
000230: 37,3523           40155                           CS       MPAC       +1                         #  GET (BETA EUL/180) /2
000231: 37,3524           60000        CMTR2              DOUBLE
000232: 37,3525           00006                           EXTEND
000233: 37,3526           61725                           SU       BETA/PIP
000234: 37,3527           61717                           AD       BETA/180
000235: 37,3530           57774                           XCH      TEMPBETA                              #  OVFL NOT EXPECTED.
000236:
000237: 37,3531           35037                           CA       EBANK3
000238: 37,3532           54003                           TS       EBANK
000239:
000240: 37,3533  E3,1446                                  EBANK=   PHSNAME5
000241: 37,3533           00006                           EXTEND
000242: 37,3534           33564                           DCA      REPOSADR                              #  THIS ASSUMES THAT THE         TC   PHASCHNG
000243: 37,3535           53447                           DXCH     PHSNAME5                              #  IS NOT CHANGED IN             OCT  10035
000244:                                                                                                  #  SERVICER.
000245:
000246: 37,3536           04611                           TC       E6SETTER
000247:
000248: 37,3537  E6,1712                                  EBANK=   AOG
000249: 37,3537           00006        REDOPOSE           EXTEND                                         #  RE-STARTS COME HERE
000250: 37,3540           31773                           DCA      TEMPROLL
000251: 37,3541           53716                           DXCH     ROLL/180
000252: 37,3542           31774                           CA       TEMPBETA
000253: 37,3543           55717                           TS       BETA/180
000254:
000255: 37,3544           06006                           TC       INTPRET                               #  CANT TC DANZIG AFTER PHASCHNG.
000256: 37,3545           51575        CM/POSE3           VLOAD    ABVAL                                 #  RETURN FROM CM/ATUP.  (RESTART)
000257: 37,3546           01030                                    VN                                    #  2(-7)  M/CS
000258: 37,3547           03723                           STORE    VMAGI                                 #  FOR DISPLAY ON CALL.
000259:
000260: 37,3550           77650                           GOTO
000261: 37,3551           03355                                    POSEXIT                               #  ENDEXIT, STARTENT, OR SCALEPOP.
000262:
000263: 37,3552           54001        CORANGOV           TS       L
000264: 37,3553           00002                           TC       Q
000265: 37,3554           50000                           INDEX    A
000266: 37,3555           34762                           CA       LIMITS
000267: 37,3556           26001                           ADS      L
000268: 37,3557           00002                           TC       Q                                     #  COSTS 2 MCT TO USE. SEE ANGOVCOR.
000269:
000270: 37,3560           45730 53410  -KVSCALE           2DEC     -.81491944                            #  -12800/(2 VS .3048)
000271: 37,3562           03146        TCDU               DEC      .1                                    #  TCDU = .1 SEC.
000272:
000273: 37,3563  E6,1712                                  EBANK=   AOG
000274: 37,3563           03537 76066  REPOSADR           2CADR    REDOPOSE

End of include-file CM_BODY_ATTITUDE.agc.  Parent file is MAIN.agc


