
Source Code


000002:                                                                                                  ## Copyright:   Public domain.
000003:                                                                                                  ## Filename:    CONIC_SUBROUTINES.agc
000004:                                                                                                  ## Purpose:     A section of Skylark revision 048.
000005:                                                                                                  ##              It is part of the source code for the Apollo Guidance Computer (AGC)
000006:                                                                                                  ##              for Skylab-2, Skylab-3, Skylab-4, and ASTP. No original listings of
000007:                                                                                                  ##              this software are available; instead, this file was created via
000008:                                                                                                  ##              disassembly of dumps of the core rope modules actually flown on
000009:                                                                                                  ##              Skylab-2. Access to these modules was provided by the New Mexico
000010:                                                                                                  ##              Museum of Space History.
000011:                                                                                                  ## Assembler:   yaYUL
000012:                                                                                                  ## Contact:     Ron Burkey <info@sandroid.org>.
000013:                                                                                                  ## Website:     www.ibiblio.org/apollo/index.html
000014:                                                                                                  ## Mod history: 2023-09-04 MAS  Created from Artemis 072.
000015:                                                                                                  ##              2024-02-27 MAS  Updated for Skylark 48.
000016:
000017:
000018:                                                                                                  #  PROGRAM DESCRIPTION - ENTIRE CONIC SUBROUTINE LOG SECTION                     DATE - 1 SEPTEMBER 1967
000019:                                                                                                  #  MOD NO. - 0                                                                   LOG SECTION - CONIC SUBROUTINES
000020:                                                                                                  #  MOD BY KRAUSE                                                                 ASSEMBLY - COLOSSUS REVISION 88
000021:
000022:
000023:
000024:                                                                                                  #  FUNCTIONAL DESCRIPTION -
000025:
000026:                                                                                                  #        THE FOLLOWING SET OF SUBROUTINES SOLVE VARIOUS PROBLEMS INVOLVING THE TRAJECTORY PRODUCED BY A CENTRAL
000027:                                                                                                  #  INVERSE-SQUARE FORCE ACTING ON A POINT MASS, AS OUTLINED IN THE CMC AND LGC LUNAR LANDING MISSION GSOP, SECTION
000028:                                                                                                  #  5.5.1.2.  A GENERAL USAGE POINT-OF-VIEW WAS TAKEN IN FORMULATING, MECHANIZING, AND SCALING THE SUBROUTINES,
000029:                                                                                                  #  RATHER THAN OPTIMIZING EACH FOR A PARTICULAR USE.  THEREFORE, MULTIPLE USAGE CAN BE MADE OF THE SUBROUTINES
000030:                                                                                                  #  INVOLVING ANY REALISTIC SET OF CONSTRAINTS.  IT SHOULD BE NOTED THAT ONLY ONE SET OF CODING IS USED, WHETHER THE
000031:                                                                                                  #  EARTH, MOON, OR ANY OTHER CELESTIAL BODY IS SPECIFIED AS THE CENTRAL BODY OF THE PROBLEM, PROVIDED ONE OBSERVES
000032:                                                                                                  #  THE INHERENT SCALE CHANGE REQUIRED IN POSITION, VELOCITY, MU, AND TIME, AS OUTLINED IN MISSION PROGRAMMING
000033:                                                                                                  #  DEFINITION MEMO NO. 10.  THIS CAN BE ACCOMPLISHED BY SIMPLY ADDING TO THE MUTABLE AND INITIALIZING THE SUBROU-
000034:                                                                                                  #  TINES APPROPRIATELY.
000035:
000036:                                                                                                  #        DUE TO THE UNIFORMITY OF THE EQUATIONS INVOLVED, CODING WAS MINIMIZED BY TREATING INDIVIDUAL EQUATIONS AND
000037:                                                                                                  #  BLOCKS OF EQUATIONS AS SUBROUTINES OF LOWER RANK WHENEVER POSSIBLE.  AS A RESULT, THREE BY-PRODUCTS SUBROUTINES,
000038:                                                                                                  #  DIRECTLY USABLE AS INDEPENDENT SUBROUTINES, WERE GENERATED.
000039:
000040:
000041:                                                                                                  #  RESTRICTIONS -
000042:
000043:                                                                                                  #        THE ONLY LIMITATION IN THE SCOPE OF PROBLEM WHICH CAN BE SOLVED BY A PARTICULAR SUBROUTINE IS THE SCALING
000044:                                                                                                  #  LIMIT OF EACH PARAMETER AS SPECIFIED IN THE GSOP.  THESE SCALING LIMITS WERE CHOSEN SO THAT ALL FEASIBLE TRAJEC-
000045:                                                                                                  #  TORIES COULD BE HANDLED.
000046:                                                                                                  #        SINCE THE SUBROUTINES (EXCEPT KEPLER) USE COMMON SUBROUTINES OF LOWER RANK WHICH USE ERASABLE OTHER THAN
000047:                                                                                                  #  THE PUSHLIST (DUE TO ITS LIMITED SIZE) AND COMMON INTERPRETIVE SWITCHES, THE CONIC SUBROUTINES CANNOT BE ALLOWED
000048:                                                                                                  #  TO INTERRUPT EACH OTHER.  IT IS UP TO THE USER TO GUARANTEE THIS CONDITION.
000049:
000050:
000051:                                                                                                  #  PROGRAM DESCRIPTION - KEPLER SUBROUTINE                               DATE - 11 OCTOBER 1967
000052:                                                                                                  #  MOD NO. -1                                                                    LOG SECTION - CONIC SUBROUTINES
000053:                                                                                                  #  MOD BY KRAUSE                                                         ASSEMBLY - COLOSSUS 103 AND SUNDANCE 222
000054:                                                                                                  #  MOD NO. - 2 (AUGUST 1968) BY ROBERTSON: TO PERMIT BACKDATING BY MORE THAN ONE ORBITAL PERIOD.
000055:
000056:
000057:                                                                                                  #  MOD NO. - 3 (DEC 1968) BY ROBERTSON: SUPPRESSION OF X-MODULO-ING
000058:
000059:
000060:                                                                                                  #  MOD. NO. - 4 (JAN 1969) BY ROBERTSON: CLEAR OVFIND AT KEPLER ENTRY
000061:
000062:
000063:                                                                                                  #  FUNCTIONAL DESCRIPTION -
000064:                                                                                                  #        THIS SUBROUTINE, GIVEN AN INITIAL STATE VECTOR AND THE DESIRED TRANSFER TIME THROUGH WHICH THE STATE IS TO
000065:                                                                                                  #  BE UPDATED ALONG A CONIC TRAJECTORY, COMPUTES THE NEW, UPDATED STATE VECTOR.  THE TRAJECTORY MAY BE ANY CONIC
000066:                                                                                                  #  SECTION - CIRCULAR, ELLIPTIC, PARABOLIC, HYPERBOLIC, OR RECTILINEAR WITH RESPECT TO THE EARTH OR THE MOON. THE
000067:                                                                                                  #  USE OF THE SUBROUTINE CAN BE EXTENDED USING OTHER PRIMARY BODIES BY SIMPLE ADDITIONS TO THE MUTABLE WITHOUT
000068:                                                                                                  #  INTRODUCING ANY CODING CHANGES, ACCEPTING THE INHERENT SCALE FACTOR CHANGES IN POSITION AND VELOCITY.  AN ITERA-
000069:                                                                                                  #  TION TECHNIQUE IS UTILIZED IN THE COMPUTATION.
000070:                                                                                                  #        IF A NEGATIVE TIME-OF-FLIGHT IS INPUT, THE PROGRAM WILL SOLVE FOR THE STATE WHICH WOULD BE PRODUCED BY
000071:                                                                                                  #  EXTRAPOLATING THE POSITION BACKWARD IN TIME.
000072:                                                                                                  #        IF THE ABSOLUTE VALUE OF THE DESIRED TRANSFER TIME EXCEEDS THE ORBITAL PERIOD, THE SUBROUTINE, THROUGH A
000073:                                                                                                  #  MODULAR TECHNIQUE, WILL COMPUTE THE STATE CORRESPONDING TO THE DESIRED TIME (WHETHER POSITIVE OR NEGATIVE).
000074:
000075:
000076:                                                                                                  #  THE RESTRICTIONS ARE -
000077:                                                                                                  #        1. (PREVIOUS RESTRICTION ON THE NEGATIVE DESIRED TRANSFER TIME IS NOW DELETED.)
000078:                                                                                                  #        2. THE PARAMETERS IN THE PROBLEM CANNOT EXCEED THEIR SCALING LIMITS AS SPECIFIED IN THE GSOP.  IF
000079:                                                                                                  #  ANY OF THESE LIMITS ARE EXCEEDED, THE RESULTING SOLUTION WILL BE MEANINGLESS.
000080:
000081:
000082:                                                                                                  #        THE NUMBER OF ITERATIONS AND, THEREFORE, THE COMPUTATION SPEED IS DEPENDENT ON THE ACCURACY OF THE
000083:                                                                                                  #  GUESS, XKFPNEW.  THE AGC COMPUTATION TIME IS APPROXIMATELY .061 SECONDS FOR INITIALIZATION, .065 SECONDS FOR THE
000084:                                                                                                  #  FINAL COMPUTATIONS, PLUS .083 SECONDS FOR EACH ITERATION.
000085:
000086:
000087:
000088:                                                                                                  #  REFERENCES -
000089:                                                                                                  #        R-479, MISSION PROGRAMMING DEFINITION MEMO NO. 10, LUNAR LANDING MISSION GSOP, SECTION 5.5, SGA
000090:                                                                                                  #  MEMO 67-4.
000091:
000092:
000093:
000094:                                                                                                  #  INPUT - ERASABLE INITIALIZATION REQUIRED
000095:
000096:                                                                                                  #          * SCALE FACTOR *
000097:                                                                                                  #  VARIABLE*IN POWERS OF 2*              DESCRIPTION AND REMARKS
000098:                                                                                                  #  --------*--------------*              -----------------------
000099:                                                                                                  #  RRECT   * +29 FOR EARTH*DP INITIAL POSITION VECTOR IN METERS
000100:                                                                                                  #  VRECT   * +7 FOR EARTH *DP INITIAL VELOCITY VECTOR IN METERS/CENTISECOND
000101:                                                                                                  #  TAU.    * +28          *DESIRED TRANSFER TIME IN CENTISECONDS (DP)
000102:                                                                                                  #          *              *    MAY BE POS OR NEG AND ABSOLUTE VALUE MAY BE GREATER OR LESS THAN ONE ORBITAL PERIOD.
000103:                                                                                                  #  XKEPNEW * +17 FOR EARTH*DP GUESS OF ROOT X OF KEPLERS EQN IN SQRT(METERS). SIGN SHOULD AGREE WITH THAT OF TAU.
000104:                                                                                                  #          *              *    AND ABS VALUE SHOULD BE LESS THAN THAT CORRESPONDING TO A PERIOD, VIZ, 2PI SQRT(SEMI-
000105:                                                                                                  #          *              *    MAJOR AXIS), FOR SPEED OF CONVERGENCE, BUT IF EITHER CONDITION FAILS, XKEPNEW IS RESET
000106:                                                                                                  #          *              *    BY KEPLER TO A POOR BUT VALID GUESS.
000107:                                                                                                  #  TC      * +28          *DP PREV. VALUE OF TIME IN CENTISECS.  MUST BE LESS THAN ONE ORBITAL PERIOD.
000108:                                                                                                  #  XPREV   * +17 FOR EARTH*DP PREV. VALUE OF X IN SQRT(METERS).  MUST BE LESS THAN AN X CORRESPONDING TO ONE
000109:                                                                                                  #          *              *    ORBITAL PERIOD, VIZ, 2PI SQRT(SEMI-MAJOR AXIS)
000110:
000111:
000112:
000113:                                                                                                  #  SUBROUTINES CALLED -
000114:                                                                                                  #        DELTIME
000115:
000116:
000117:
000118:                                                                                                  #  CALLING SEQUENCE AND NORMAL EXIT MODES -
000119:
000120:                                                                                                  #  KEPRTN-2      GOTO                    MUST BE IN INTERPRETIVE MODE BUT OVFIND ARBITRARY.
000121:                                                                                                  #  KEPRTN-1              KEPLER          RETURNS WITH XPREV IN MPAC. PL IS AT 0.
000122:                                                                                                  #  KEPRTN        ...                     CONTINUE
000123:
000124:                                                                                                  #  KEPLER MUST NOT BE CALLED DIRECTLY SINCE AN INTERRUPTION OF IT WOULD DESTROY THE ERASABLES IT NEEDS TO COMPLETE
000125:                                                                                                  #  THE INTERRUPTED JOB.  THEREFORE THE USER MUST CALL CSMCONIC OR LEMCONIC WHICH GUARANTEES NO INTERRUPTS AND WHICH
000126:                                                                                                  #  ALSO CALLS KEPPREP TO COMPUTE A GUESS OF XKEPNEW.
000127:
000128:
000129:
000130:                                                                                                  #  ABORT EXIT MODES -
000131:                                                                                                  #        NONE
000132:
000133:
000134:                                                                                                  #  OUTPUT -
000135:
000136:                                                                                                  #          * SCALE FACTOR *
000137:                                                                                                  #  VARIABLE*IN POWERS OF 2*                      DESCRIPTION AND REMARKS
000138:                                                                                                  #  --------*--------------*                      -----------------------
000139:                                                                                                  #  RCV     * +29 FOR EARTH*DP TERMINAL POSITION VECTOR IN METERS
000140:                                                                                                  #  VCV     * +7 FOR EARTH *DP TERMINAL VELOCITY VECTOR IN METERS/CENTISEC
000141:                                                                                                  #  TC      * +28          *DP TRANSFER TIME IN CENTISECS TO WHICH KEPLER CONVERGED. ALWAYS LESS THAN ONE PERIOD.
000142:                                                                                                  #  XPREV   * +17 FOR EARTH*DP VALUE OF X IN SQRT(METERS) TO WHCIH KEPLER CONVERGED. ALWAYS LESS THAN THE X
000143:                                                                                                  #          *              *    CORRESPONDING TO ONE PERIOD.
000144:                                                                                                  #  FOR OTHER OUTPUT WHICH MAY BE OF USE, SEE DEBRIS.
000145:
000146:
000147:                                                                                                  #  DEBRIS -
000148:
000149:                                                                                                  #        PARAMETERS WHICH MAY BE OF USE -
000150:
000151:                                                                                                  #          * SCALE FACTOR *
000152:                                                                                                  #  VARIABLE*IN POWERS OF 2*                      DESCRIPTION AND REMARKS
000153:                                                                                                  #  --------*--------------*                      -----------------------
000154:                                                                                                  #  URRECT  * +1           *DP UNIT VECTOR OF INITIAL POSITION
000155:                                                                                                  #  R1      * +29 FOR EARTH*DP MAGNITUDE OF INITIAL POSITION IN METERS
000156:                                                                                                  #  ALPHA   * -22 FOR EARTH*DP INVERSE OF SEMIMAJOR AXIS IN 1/METERS
000157:                                                                                                  #  TMODULO * +28          *DP INTEGRAL NUMBER OF PERIODS IN CENTISECS. WHICH WAS SUBTRACTED FROM TAU. TO PRODUCE A
000158:                                                                                                  #          *              *TAU. OF LESS THAN ONE PERIOD.
000159:
000160:                                                                                                  #        PARAMETERS OF NO USE -
000161:                                                                                                  #  DP PARAMETERS - EPSILONT, DELX, DELT, RCNORM, XMODULO, PLUS PUSHLIST REGISTERS 0 THROUGH 39D.
000162:
000163:
000164:                                                                                                  #  PROGRAM DESCRIPTION - LAMBERT SUBROUTINE                                      DATE - 1 SEPTEMBER 1967
000165:                                                                                                  #  MOD NO. - 0                                                                   LOG SECTION - CONIC SUBROUTINES
000166:                                                                                                  #  MOD BY KRAUSE                                                                 ASSEMBLY - COLOSSUS REVISION 88
000167:
000168:
000169:
000170:                                                                                                  #  FUNCTIONAL DESCRIPTION -
000171:
000172:                                                                                                  #        THIS SUBROUTINE CALCULATES THE INITIAL VELOCITY REQUIRED TO TRANSFER A POINT-MASS ALONG A CONIC TRAJECTORY
000173:                                                                                                  #  FROM AN INITIAL POSITION TO A TERMINAL POSITION IN A PRESCRIBED TIME INTERVAL.  THE RESULTING TRAJECTORY MAY BE
000174:                                                                                                  #  A SECTION OF A CIRCLE, ELLIPSE, PARABOLA, OR HYPERBOLA WITH RESPECT TO THE EARTH OR THE MOON.  THE USE OF THE
000175:                                                                                                  #  SUBROUTINE CAN BE EXTENDED USING OTHER PRIMARY BODIES BY SIMPLE ADDITIONS TO THE MUTABLE WITHOUT INTRODUCING ANY
000176:                                                                                                  #  CODING CHANGES, ACCEPTING THE INHERENT SCALE FACTOR CHANGES IN POSITION AND VELOCITY.  AN ITERATION TECHNIQUE IS
000177:                                                                                                  #  UTILIZED IN THE COMPUTATION.
000178:
000179:
000180:                                                                                                  #  THE RESTRICTIONS ARE -
000181:                                                                                                  #        1. RECTILINEAR TRAJECTORIES CANNOT BE COMPUTED.
000182:                                                                                                  #        2. AN ACCURACY DEGRADATION OCCURS AS THE COSINE OF THE TRUE ANOMALY DIFFERENCE APPROACHES +1.0.
000183:                                                                                                  #        3. THE ANGLE BETWEEN ANY POSITION VECTOR AND ITS VELOCITY VECTOR MUST BE GREATER THAN 1 DEGREE 47.5 MINUTES
000184:                                                                                                  #  AND LESS THAN 178 DEGREES 12.5 MINUTES.
000185:                                                                                                  #        4. NEGATIVE TRANSFER TIME IS AMBIGUOUS AND WILL RESULT IN NO SOLUTION.
000186:                                                                                                  #        5. THE PARAMETERS IN THE PROBLEM MUST NOT EXCEED THEIR SCALING LIMITS SPECIFIED IN THE GSOP.  IF THE
000187:                                                                                                  #  LIMITS ARE EXCEEDED, THE RESULTING SOLUTION WILL BE MEANINGLESS.
000188:                                                                                                  #        THE NUMBER OF ITERATIONS AND, THEREFORE, THE COMPUTATIONS SPEED IS DEPENDENT ON THE ACCURACY OF THE FIRST
000189:                                                                                                  #  GUESS OF THE INDEPENDENT VARIABLE, COGA.                                THE AGC COMPUTATION TIME IS APPROXIMATE-
000190:                                                                                                  #  LY .105 SECONDS FOR INITIALIZATION, .069 SECONDS FOR FINAL COMPUTATIONS, PLUS .205 SECONDS FOR EACH ITERATION.
000191:
000192:
000193:
000194:                                                                                                  #  REFERENCES -
000195:                                                                                                  #        R-479, MISSION PROGRAMMING DEFINITION MEMO NO. 10, LUNAR LANDING MISSION GSOP-SECTION 5.5, SGA MEMO 67-8,
000196:                                                                                                  #  SGA MEMO 67-4.
000197:
000198:
000199:
000200:                                                                                                  #  INPUT - ERASABLE INITIALIZATION REQUIRED
000201:
000202:                                                                                                  #          * SCALE FACTOR *
000203:                                                                                                  #  VARIABLE*IN POWERS OF 2*                         DESCRIPTION AND REMARKS
000204:                                                                                                  #  --------*--------------*                         -----------------------
000205:                                                                                                  #  R1VEC   * +29 FOR EARTH*DP INITIAL POSITION VECTOR IN METERS
000206:                                                                                                  #  R2VEC   * +29 FOR EARTH*DP TARGET OR TERMINAL POSITION VECTOR IN METERS
000207:                                                                                                  #  TDESIRED* +28          *DP DESIRED TRANSFER TIME IN CENTISECONDS
000208:                                                                                                  #  X1 (38D)* NONE         *INDEX REGISTER SET TO -2D OR -10D ACCORDING TO WHETHER THE EARTH OR MOON,
000209:                                                                                                  #          *              *RESPECTIVELY, IS THE CENTRAL BODY
000210:                                                                                                  #  GEOMSGN * NONE         *SP +.5 IF DESIRED TRANSFER ANGLE IS LESS THAN 180 DEGREES, -.5 IF GREATER THAN 180 DEG.
000211:                                                                                                  #  GUESSW  * NONE         *AN INTERPRETER SWITCH TO BE SET IF NO GUESS OF COGA IS AVAILABLE, CLEAR IF A GUESS OF
000212:                                                                                                  #          *              *COGA IS TO BE USED BY LAMBERT
000213:                                                                                                  #  COGA    * +5           *DP GUESS OF COTANGNT OF FLIGHT PATH ANGLE (MEASURED FROM VERTICAL).  THIS WILL BE
000214:                                                                                                  #                         *IGNORED IF GUESSW IS SET.
000215:                                                                                                  #  NORMSW  * NONE         *AN INTERPRETER SWITCH TO BE SET IF UN IS TO BE AN INPUT TO THE SUBROUTINE, CLEAR IF
000216:                                                                                                  #          *              *LAMBERT IS TO COMPUTE ITS OWN NORMAL (UN).
000217:                                                                                                  #  UN      * +1           *DP UNIT  NORMAL TO THE DESIRED ORBIT PLANE IN THE DIRECTION OF THE RESULTING ANGULAR
000218:                                                                                                  #          *              *MOMENTUM VECTOR.  THIS WILL BE IGNORED IF NORMSW IS CLEAR.
000219:                                                                                                  #  VTARGTAG* NONE         *A S.P. TAG TO BE SET TO ZERO IF LAMBERT IS TO COMPUTE THE VELOCITY AT R2VEC AS WELL AS
000220:                                                                                                  #          *              *AT R1VEC.
000221:
000222:
000223:
000224:                                                                                                  #  SUBROUTINES CALLED -
000225:                                                                                                  #        GEOM, GETX, DELTIME, ITERATOR, LAMENTER (PART OF NEWSTATE)
000226:
000227:
000228:
000229:                                                                                                  #  CALLING SEQUENCE AND NORMAL EXIT MODES -
000230:
000231:                                                                                                  #  L     CALL                    MUST BE IN INTERPRETIVE MODE BUT OVFIND ARBITRARY.
000232:                                                                                                  #  L+1           LAMBERT         RETURNS WITH PL AT 0 AND WITH VVEC IN MPAC IF VTARGTAG WAS NON-ZERO OR VTARGET
000233:                                                                                                  #                                IN MPAC IF VTARGTAG WAS ZERO
000234:                                                                                                  #  L+2   BON                     CONTINUE IF SOLNSW CLEAR SINCE SOLUTION IS ACCEPTABLE
000235:                                                                                                  #  L+3           SOLNSW
000236:                                                                                                  #  L+4           LAMABORT
000237:
000238:                                                                                                  #        IF A LAMBERT RESULT IS TO BE A FIRST GUESS FOR THE NEXT LAMBERT CALCULATION, COGA MUST BE PRESERVED AND
000239:                                                                                                  #  GUESSW MUST BE CLEAR FOR EACH SUCCEEDING LAMBERT CALL.
000240:
000241:
000242:
000243:                                                                                                  #  ABORT EXIT MODES -
000244:                                                                                                  #        IF SOLNSW WAS SET UPON EXITING, EITHER LAMBERT WAS ASKED TO COMPUTE A TRANSFER TOO NEAR 0 OR 360 DEG, OR T
000245:                                                                                                  #  WAS TOO SMALL TO PRODUCE A REALISTIC TRANSFER BETWEEN R1VEC AND R2VEC.  IN EITHER CASE THE FIX MUST BE MADE
000246:                                                                                                  #  ACCORDING TO THE NEEDS OF THE PARTICULAR USER.  THE ABORT EXIT MODE MAY BE CODED AS ...
000247:                                                                                                  #  LAMABORT      DLOAD   ABS             A MEASURE OF PROXIMITY TO 0 OR
000248:                                                                                                  #                        1-CSTH          360 DEGREES.
000249:                                                                                                  #                DSU     BMN
000250:                                                                                                  #                        ONEBIT
000251:                                                                                                  #                        CHANGER2        CHANGE R2VEC DIRECTION SLIGHTLY.
000252:                                                                                                  #                DLOAD   DAD
000253:                                                                                                  #                        TDESIRED
000254:                                                                                                  #                        SOMETIME
000255:                                                                                                  #                STCALL  TDESIRED        INCREASE TDESIRED
000256:                                                                                                  #                        LAMBERT
000257:
000258:
000259:
000260:                                                                                                  #  OUTPUT -
000261:                                                                                                  #          * SCALE FACTOR *
000262:                                                                                                  #  VARIABLE*IN POWERS OF 2*                      DESCRIPTION AND REMARKS
000263:                                                                                                  #  --------*--------------*                      -----------------------
000264:                                                                                                  #  VVEC    * +7 FOR EARTH *DP INITIAL VELOCITY VECTOR IN METERS/CENTISECOND REQUIRED TO SATISFY THE BOUNDARY VALUE
000265:                                                                                                  #          *              *PROBLEM.
000266:                                                                                                  #  VTARGET * +7 FOR EARTH *DP RESULTANT VELOCITY VECTOR AT R2VEC IN METERS/CENTISECOND.
000267:                                                                                                  #  SOLNSW  * NONE         *INTERPRETER SWITCH WHICH IS SET IF THE SUBROUTINE CANNOT SOLVE THE PROBLEM, CLEAR IF THE
000268:                                                                                                  #          *              *SOLUTION EXISTS.
000269:                                                                                                  #  FOR OTHER OUTPUT WHICH MAY BE OF USE, SEE DEBRIS.
000270:
000271:
000272:
000273:                                                                                                  #  DEBRIS -
000274:                                                                                                  #        PARAMETERS WHICH MAY BE OF USE -
000275:
000276:                                                                                                  #          * SCALE FACTOR *
000277:                                                                                                  #  VARIABLE*IN POWERS OF 2*                      DESCRIPTION AND REMARKS
000278:                                                                                                  #  --------*--------------*                      -----------------------
000279:                                                                                                  #  SNTH    * +1           *DP SIN OF ANGLE BETWEEN R1VEC AND R2VEC
000280:                                                                                                  #  CSTH    * +1           *DP COSINE OF ANGLE
000281:                                                                                                  #  1-CSTH  * +2           *DP 1-CSTH
000282:                                                                                                  #  COGA    * +5           *DP COTAN OF INITIAL REQUIRED FLIGHT PATH ANGLE MEASURED FROM VERTICAL
000283:                                                                                                  #  P       * +4           *DP RATIO  OF SEMILATUS RECTUM TO INITIAL RADIUS
000284:                                                                                                  #  R1A     * +6           *DP RATIO OF INITIAL RADIUS TO SEMIMAJOR AXIS
000285:                                                                                                  #  R1 (32D)* +29 FOR EARTH*DP INITIAL RADIUS IN METERS
000286:                                                                                                  #  UR1     * +1           *DP UNIT VECTOR OF R1VEC
000287:                                                                                                  #  U2      * +1           *DP UNIT VECTOR OF R2VEC
000288:
000289:                                                                                                  #        PARAMETERS OF NO USE
000290:                                                                                                  #  DP PARAMETERS - EPSILONL, CSTH-RHO, TPREV, TERRLAMB, R2, RTNLAMB (SP), PLUS PUSHLIST REGISTER 0 THROUGH 41D
000291:                                                                                                  #  ADDITIONAL INTERPRETIVE SWITCHES USED - INFINFLG, 360SW, SLOPESW, ORDERSW
000292:
000293:
000294:
000295:                                                                                                  #  PROGRAM DESCRIPTION - TIME-THETA SUBROUTINE                                   DATE - 1 SEPTEMBER 1967
000296:                                                                                                  #  MOD NO. - 0                                                                   LOG SECTION - CONIC SUBROUTINES
000297:                                                                                                  #  MOD BY KRAUSE                                                                 ASSEMBLY - COLOSSUS REVISION 88
000298:
000299:
000300:
000301:                                                                                                  #  FUNCTIONAL DESCRIPTION -
000302:
000303:                                                                                                  #        THIS SUBROUTINE, GIVEN AN INITIAL STATE VECTOR AND A DESIRED TRUE-ANOMALY-DIFFERENCE THROUGH WHICH THE
000304:                                                                                                  #  STATE IS TO BE UPDATED ALONG A CONIC TRAJECTORY, CALCULATES THE CORRESPONDING TIME-OF-FLIGHT AND, IN ADDITION,
000305:                                                                                                  #  PROVIDES THE OPTION OF COMPUTING THE NEW UPDATED STATE VECTOR.  THE RESULTING TRAJECTORY MAY BE A SECTION OF A
000306:                                                                                                  #  CIRCLE, ELLIPSE, PARABOLA, OR HYPERBOLA WITH RESPECT TO THE EARTH OR THE MOON.  THE USE OF THE SUBROUTINE CAN BE
000307:                                                                                                  #  EXTENDED USING OTHER PRIMARY BODIES BY SIMPLE ADDITIONS TO THE MUTABLE WITHOUT INTRODUCING ANY CODING CHANGES,
000308:                                                                                                  #  ACCEPTING THE INHERENT SCALE FACTOR CHANGES IN POSITION AND VELOCITY.
000309:
000310:
000311:                                                                                                  #  THE RESTRICTIONS ARE -
000312:                                                                                                  #        1. THE ANGLE BETWEEN ANY POSITION VECTOR AND ITS VELOCITY VECTOR MUST BE GREATER THAN 1 DEGREE 47.5 MINUTES
000313:                                                                                                  #  AND LESS THAN 178 DEGREES 12.5 MINUTES.
000314:                                                                                                  #        2. THE PARAMETERS IN THE PROBLEM MUST NOT EXCEED THEIR SCALING LIMITS SPECIFIED IN THE GSOP.  IF THE LIMITS
000315:                                                                                                  #  ARE EXCEEDED, THE RESULTING SOLUTION WILL BE MEANINGLESS.
000316:
000317:                                                                                                  #        THE AGC COMPUTATION TIME IS APPROXIMATELY .292 SECONDS.
000318:
000319:
000320:                                                                                                  #  REFERENCES -
000321:                                                                                                  #        R-479, MISSION PROGRAMMING DEFINITION MEMO NO. 10, LUNAR LANDING MISSION GSOP-SECTION 5.5, SGA MEMO 67-8.
000322:
000323:
000324:                                                                                                  #  INPUT - ERASABLE INITIALIZATION REQUIRED
000325:
000326:                                                                                                  #          * SCALE FACTOR *
000327:                                                                                                  #  VARIABLE*IN POWERS OF 2*                      DESCRIPTION AND REMARKS
000328:                                                                                                  #  --------*--------------*                      -----------------------
000329:                                                                                                  #  RVEC    * +29 FOR EARTH*DP INITIAL POSITION VECTOR IN METERS
000330:                                                                                                  #  VVEC    * +7 FOR EARTH *DP INITIAL VELOCITY VECTOR IN METERS/CENTISECOND
000331:                                                                                                  #  SNTH    * +1           *DP SINE OF TRUE-ANOMALY-DIFFERENCE THROUGH WHICH THE STATE IS TO BE UPDATED
000332:                                                                                                  #  CSTH    * +1           *DP COSINE OF THE ANGLE
000333:                                                                                                  #  RVSW    * NONE         *AN INTERPRETIVE SWITCH TO BE SET IF ONLY TIME IS TO BE AN OUTPUT, CLEAR IF THE NEW STATE
000334:                                                                                                  #          *              *IS TO BE COMPUTED ALSO.
000335:                                                                                                  #  X1 (38D)*NONE          *INDEX REGISTER TO BE SET TO -2D OR -10D ACCORDING TO WHETHER THE EARTH OR MOON,
000336:                                                                                                  #          *              *RESPECTIVELY, IS THE CENTRAL BODY.
000337:
000338:
000339:
000340:                                                                                                  #  SUBROUTINES CALLED -
000341:                                                                                                  #        PARAM, GEOM, GETX, DELTIME, NEWSTATE
000342:
000343:
000344:
000345:                                                                                                  #  CALLING SEQUENCE AND NORMAL EXIT MODES -
000346:
000347:                                                                                                  #        IF ONLY TIME IS DESIRED AS OUTPUT -
000348:                                                                                                  #  L     SET     CALL            MUST BE IN INTERPRETIVE MODE BUT OVFIND ARBITRARY.
000349:                                                                                                  #  L+1           RVSW
000350:                                                                                                  #  L+2           TIMETHET        RETURN WITH PL AT 0 AND T IN MPAC
000351:                                                                                                  #  L+3   ...                     CONTINUE
000352:
000353:
000354:                                                                                                  #        IF THE UPDATE STATE VECTOR IS DESIRED AS WELL -
000355:                                                                                                  #  L     CLEAR   CALL            MUST BE IN INTERPRETIVE MODE BUT OVFIND ARBITRARY.
000356:                                                                                                  #  L+1           RVSW
000357:                                                                                                  #  L+2           TIMETHET        RETURNS WITH PL AT 6.  THE INITIAL POSITION VECTOR IS IN 0D OF THE PUSHLIST AND
000358:                                                                                                  #                                THE INITIAL VELOCITY VECTOR IN MPAC.
000359:                                                                                                  #  L+3   STOVL   NEWVVEC
000360:                                                                                                  #  L+4   STADR
000361:                                                                                                  #  L+5   STORE   NEWRVEC                 NEWVVEC AND NEWRVEC ARE SYMBOLIC REPRESENTATIONS OF THE USERS LOCATIONS.
000362:                                                                                                  #  L+6   ...                             CONTINUE
000363:
000364:
000365:
000366:                                                                                                  #  ABORT EXIT MODES -
000367:                                                                                                  #        IF COGAFLAG AND/OR INFINFLG IS SET AT THE EXIT TO TIME-THETA, TIME-THETA WILL TRANSFER TO POODOO WITH
000368:                                                                                                  #        AN ALARM CODE (ORIGINALLY 00607), AND NOT RETURN TO THE CALLING PROGRAM. (PCR 692 AND 721).
000369:
000370:
000371:
000372:                                                                                                  #  OUTPUT -
000373:                                                                                                  #          * SCALE FACTOR *
000374:                                                                                                  #  VARIABLE*IN POWERS OF 2*                      DESCRIPTION AND REMARKS
000375:                                                                                                  #  --------*--------------*                      -----------------------
000376:                                                                                                  #  T(30D)  * +28          *DP TRANSFER TIME IN CENTISECONDS
000377:                                                                                                  #  INFINFLG* NONE         *AN INTERPRETIVE SWITCH WHICH IS SET IF THE TRANSFER ANGLE REQUIRES CLOSURE THROUGH
000378:                                                                                                  #          *              *INFINITY (NO SOLUTION), CLEAR IF A PHYSICAL SOLUTION IS POSSIBLE.
000379:                                                                                                  #  COGAFLAG* NONE         *AN INTERPRETIVE SWITCH WHICH IS SET IF RESTRICTION 1 HAS BEEN VIOLATED (NO SOLUTION),
000380:                                                                                                  #          *              *CLEAR IF NOT.
000381:
000382:                                                                                                  #  IN ADDITION, IF RVSW IS CLEAR, THE FOLLOWING ARE OUTPUT -
000383:
000384:                                                                                                  #  MPAC -  * +7 FOR EARTH *DP TERMINAL VELOCITY VECTOR IN METERS/CENTISEC.
000385:                                                                                                  #   MPAC +5*              *
000386:                                                                                                  #  0D - 5D * +29 FOR EARTH*DP TERMINAL POSITION VECTOR IN METERS (PL AT 6D)
000387:
000388:                                                                                                  #  FOR OTHER OUTPUT WHICH MAY BE OF USE, SEE DEBRIS.
000389:
000390:
000391:                                                                                                  #  DEBRIS -
000392:
000393:                                                                                                  #        PARAMETERS WHICH MAY BE OF USE -
000394:
000395:                                                                                                  #          * SCALE FACTOR *
000396:                                                                                                  #  VARIABLE*IN POWERS OF 2*                      DESCRIPTION AND REMARKS
000397:                                                                                                  #  --------*--------------*                      -----------------------
000398:                                                                                                  #  R1 (32D)* +29 FOR EARTH*DP MAGNITUDE OF INITIAL POSITION VECTOR, RVEC, IN METERS
000399:                                                                                                  #  R1A     * +6           *DP RATIO OF R1 TO SEMIMAJOR AXIS (NEG. FOR HYPERBOLIC TRAJECTORIES)
000400:                                                                                                  #  P       * +4           *DP RATIO OF SEMILATUS RECTUM TO R1
000401:                                                                                                  #  COGA    * +5           *DP COTAN OF ANGLE BETWEEN RVEC AND VVEC
000402:                                                                                                  #  UR1     * +1           *DP UNIT VECTOR OF RVEC
000403:                                                                                                  #  U2      * +1           *DP UNIT VECTOR OF VVEC
000404:                                                                                                  #  UN      * +1           *DP UNIT VECTOR OF UR1*U2
000405:
000406:                                                                                                  #        PARAMETERS OF NO USE -
000407:                                                                                                  #  SP PARAMETERS - RTNTT, GEOMSGN, RTNPRM, MAGVEC2=R2 (DP), PLUS PUSHLIST LOCATIONS 0-11D, 14D-21D, 24D-39D, 41D
000408:                                                                                                  #  ADDITIONAL INTERPRETIVE SWITCHES USED - NORMSW, 360SW
000409:
000410:
000411:
000412:                                                                                                  #  PROGRAM DESCRIPTION - TIME-RADIUS SUBROUTINE                          DATE - 11 OCTOBER 1967
000413:                                                                                                  #  MOD NO. -1                                                                    LOG SECTION - CONIC SUBROUTINES
000414:                                                                                                  #  MOD BY KRAUSE                                                                 ASSEMBLY - COLOSSUS REVISION 88
000415:
000416:
000417:
000418:                                                                                                  #  FUNCTIONAL DESCRIPTION -
000419:
000420:                                                                                                  #        THIS SUBROUTINE, GIVEN AN INITIAL STATE VECTOR AND A DESIRED RADIUS TO WHICH THE
000421:                                                                                                  #  STATE IS TO BE UPDATED ALONG A CONIC TRAJECTORY, CALCULATES THE CORRESPONDING TIME-OF-FLIGHT AND, IN ADDITION,
000422:                                                                                                  #  PROVIDES THE OPTION OF COMPUTING THE NEW UPDATED STATE VECTOR.  THE RESULTING TRAJECTORY MAY BE A SECTION OF A
000423:                                                                                                  #  CIRCLE, ELLIPSE, PARABOLA, OR HYPERBOLA WITH RESPECT TO THE EARTH OR THE MOON.  THE USE OF THE SUBROUTINE CAN BE
000424:                                                                                                  #  EXTENDED USING OTHER PRIMARY BODIES BY SIMPLE ADDITIONS TO THE MUTABLE WITHOUT INTRODUCING ANY CODING CHANGES,
000425:                                                                                                  #  ACCEPTING THE INHERENT SCALE FACTOR CHANGES IN POSITION AND VELOCITY.
000426:                                                                                                  #        IF THE DESIRED RADIUS IS BEYOND THE RADIUS OF APOCENTER OF THE CONIC OR BELOW THE RADIUS OF PERICENTER,
000427:                                                                                                  #  APSESW WILL BE SET AND THE SUBROUTINE WILL RETURN THE APOCENTER OR PERICENTER SOLUTION, RESPECTIVELY.
000428:
000429:
000430:                                                                                                  #  THE RESTRICTIONS ARE -
000431:                                                                                                  #        1. THE ANGLE BETWEEN ANY POSITION VECTOR AND ITS VELOCITY VECTOR MUST BE GREATER THAN 1 DEGREE 47.5 MINUTES
000432:                                                                                                  #  AND LESS THAN 178 DEGREES 12.5 MINUTES.
000433:                                                                                                  #        2. THE PARAMETERS IN THE PROBLEM MUST NOT EXCEED THEIR SCALING LIMITS SPECIFIED IN THE GSOP.  IF THE LIMITS
000434:                                                                                                  #  ARE EXCEEDED, THE RESULTING SOLUTION WILL BE MEANINGLESS.
000435:                                                                                                  #        3. AN ACCURACY DEGRADATION OCCURS AS THE SENSITIVITIES OF TIME AND UPDATED STATE VECTOR TO CHANGES IN
000436:                                                                                                  #  RDESIRED INCREASE.  THIS WILL OCCUR NEAR EITHER APSIS OF THE CONIC AND WHEN THE CONIC IS NEARLY CIRCULAR.  IN
000437:                                                                                                  #  PARTICULAR, IF THE CONIC IS AN EXACT CIRCLE, THE PROBLEM IS UNDEFINED AND THE SUBROUTINE WILL ABORT.
000438:
000439:
000440:                                                                                                  #        THE AGC COMPUTATION TIME IS APPROXIMATELY .363 SECONDS
000441:
000442:
000443:
000444:                                                                                                  #  REFERENCES -
000445:                                                                                                  #        R-479, MISSION PROGRAMMING DEFINITION MEMO NO. 10, LUNAR LANDING MISSION GSOP-SECTION 5.5, SGA MEMO 67-8.
000446:
000447:
000448:
000449:                                                                                                  #  INPUT - ERASABLE INITIALIZATION REQUIRED
000450:
000451:                                                                                                  #          * SCALE FACTOR *
000452:                                                                                                  #  VARIABLE*IN POWERS OF 2*                      DESCRIPTION AND REMARKS
000453:                                                                                                  #  --------*--------------*                      -----------------------
000454:                                                                                                  #  RVEC    * +29 FOR EARTH*DP INITIAL POSITION VECTOR IN METERS
000455:                                                                                                  #  VVEC    * +7 FOR EARTH *DP INITIAL VELOCITY VECTOR IN METERS/CENTISECOND
000456:                                                                                                  #  RDESIRED* +29 FOR EARTH*DP TERMINAL RADIAL DISTANCE ON CONIC TRAJECTORY FOR WHICH TRANSFER TIME IS TO BE
000457:                                                                                                  #          *              *COMPUTED.
000458:                                                                                                  #  SGNRDOT * NONE         *SP TAG SET TO +.5 OR -.5 ACCORDING TO WHETHER THE RADIAL VELOCITY AT RDESIRED IS TO BE
000459:                                                                                                  #          *              *POSITIVE OR NEGATIVE, RESPECTIVELY.   THIS TAG REDUCES THE DOUBLE-VALUED PROBLEM TO A
000460:                                                                                                  #          *              *SINGLE-VALUED PROBLEM.
000461:                                                                                                  #  X1 (38D)* NONE         *INDEX REGISTER TO BE SET TO -2D OR -10D ACCORDING TO WHETHER THE EARTH OR MOON,
000462:                                                                                                  #          *              *RESPECTIVELY, IS THE CENTRAL BODY.
000463:                                                                                                  #  RVSW    * NONE         *AN INTERPRETIVE SWITCH TO BE SET IF ONLY TIME IS TO BE AN OUTPUT, CLEAR IF THE NEW STATE
000464:                                                                                                  #          *              *IS TO BE COMPUTED ALSO.
000465:
000466:
000467:
000468:                                                                                                  #  SUBROUTINES CALLED -
000469:                                                                                                  #        PARAM, GEOM, GETX, DELTIME, NEWSTATE
000470:
000471:
000472:
000473:                                                                                                  #  CALLING SEQUENCE AND NORMAL EXIT MODES -
000474:
000475:                                                                                                  #        IF ONLY TIME IS DESIRED AS OUTPUT -
000476:                                                                                                  #  L     SET     CALL            MUST BE IN INTERPRETIVE MODE BUT OVFIND ARBITRARY.
000477:                                                                                                  #  L+1           RVSW
000478:                                                                                                  #  L+2           TIMERAD         RETURN WITH PL AT 0 AND T IN MPAC
000479:                                                                                                  #  L+3   ...                     CONTINUE
000480:
000481:                                                                                                  #        IF THE UPDATE STATE VECTOR IS DESIRED AS WELL -
000482:                                                                                                  #  L     CLEAR   CALL            MUST BE IN INTERPRETIVE MODE BUT OVFIND ARBITRARY.
000483:                                                                                                  #  L+1           RVSW
000484:                                                                                                  #  L+2           TIMERAD         RETURNS WITH PL AT 6.  THE INITIAL POSITION VECTOR IS IN 0D OF THE PUSHLIST AND
000485:                                                                                                  #                                THE INITIAL VELOCITY VECTOR IN MPAC.
000486:                                                                                                  #  L+3   STOVL   NEWVVEC
000487:                                                                                                  #  L+4   STADR
000488:                                                                                                  #  L+5   STORE   NEWRVEC                 NEWVVEC AND NEWRVEC ARE SYMBOLIC REPRESENTATIONS OF THE USERS LOCATIONS.
000489:                                                                                                  #  L+6   ...                             CONTINUE
000490:
000491:
000492:
000493:                                                                                                  #  ABORT EXIT MODES -
000494:                                                                                                  #        IF SOLNSW AND/OR COGAFLAG AND/OR INFINFLG IS SET AT THE EXIT TO TIME-RADIUS, TIME-RADIUS WILL TRANSFER
000495:                                                                                                  #        TO POODOO WITH AN ALARM CODE (ORIGINALLY 00607), AND NOT RETURN TO THE CALLING PROGRAM. (PCR 692 & 721)
000496:
000497:
000498:
000499:                                                                                                  #  OUTPUT -
000500:                                                                                                  #          * SCALE FACTOR *
000501:                                                                                                  #  VARIABLE*IN POWERS OF 2*                      DESCRIPTION AND REMARKS
000502:                                                                                                  #  --------*--------------*                      -----------------------
000503:                                                                                                  #  T (30D) * +28          *DP TRANSFER TIME IN CENTISECONDS
000504:                                                                                                  #  INFINFLG* NONE         *AN INTERPRETIVE SWITCH WHICH IS SET IF RDESIRED AND SGNRDOT REQUIRE CLOSURE THROUGH
000505:                                                                                                  #          *              *INFINITY (NO SOLUTION), CLEAR IF A PHYSICAL SOLUTION IS POSSIBLE.
000506:                                                                                                  #  COGAFLAG* NONE         *AN INTERPRETIVE SWITCH WHICH IS SET IF RESTRICTION 1 HAS BEEN VIOLATED (NO SOLUTION),
000507:                                                                                                  #          *              *CLEAR IF NOT.
000508:                                                                                                  #  APSESW  * NONE         *AN INTERPRETIVE SWITCH WHICH IS SET IF RDESIRED WAS GREATER THAN RADIUS OF APOCENTER OR
000509:                                                                                                  #          *              *LESS THAN RADIUS OF PERICENTER.  THE APOCENTER OR PERICENTER SOLUTION, RESPECTIVELY,
000510:                                                                                                  #          *              *WILL THEN BE RETURNED.  THE SWITCH IS CLEAR IF RDESIRED WAS BETWEEN PERICENTER AND
000511:                                                                                                  #          *              *APOCENTER.
000512:                                                                                                  #  SOLNSW  * NONE         *AN INTERPRETIVE SWITCH WHICH IS SET IF THE CONIC IS SO CLOSE TO A CIRCLE THAT THE TERMIN
000513:                                                                                                  #                         *POINT IS AMBIGUOUS, VIOLATING RESTRICTION 3.  IF ECCENTRICITY IS GREATER THAN 2-TO-THE-
000514:                                                                                                  #                         *MINUS-18, THE SWITCH IS CLEAR.
000515:
000516:
000517:                                                                                                  #  IN ADDITION, IF RVSW IS CLEAR, THE FOLLOWING ARE OUTPUT -
000518:
000519:                                                                                                  #  MPAC -  * +7 FOR EARTH *DP TERMINAL VELOCITY VECTOR IN METERS/CENTISEC.
000520:                                                                                                  #   MPAC +5*              *
000521:                                                                                                  #  0D - 5D * +29 FOR EARTH*DP TERMINAL POSITION VECTOR IN METERS (PL AT 6D)
000522:
000523:                                                                                                  #  FOR OTHER OUTPUT WHICH MAY BE OF USE, SEE DEBRIS.
000524:
000525:
000526:
000527:                                                                                                  #  DEBRIS -
000528:
000529:                                                                                                  #        PARAMETERS WHICH MAY BE OF USE -
000530:
000531:                                                                                                  #          * SCALE FACTOR *
000532:                                                                                                  #  VARIABLE*IN POWERS OF 2*                      DESCRIPTION AND REMARKS
000533:                                                                                                  #  --------*--------------*                      -----------------------
000534:                                                                                                  #  R1 (32D)* +29 FOR EARTH*DP MAGNITUDE OF INITIAL POSITION VECTOR, RVEC, IN METERS
000535:                                                                                                  #  R1A     * +6           *DP RATIO OF R1 TO SEMIMAJOR AXIS (NEG. FOR HYPERBOLIC TRAJECTORIES)
000536:                                                                                                  #  P       * +4           *DP RATIO OF SEMILATUS RECTUM TO R1
000537:                                                                                                  #  COGA    * +5           *DP COTAN OF ANGLE BETWEEN RVEC AND VVEC
000538:                                                                                                  #  UR1     * +1           *DP UNIT VECTOR OF RVEC
000539:                                                                                                  #  U2      * +1           *DP UNIT VECTOR OF VVEC
000540:                                                                                                  #  UN      * +1           *DP UNIT VECTOR OF UR1*U2
000541:                                                                                                  #  CSTH    * +1           *DP COSINE OF TRUE ANOMALY DIFFERENCE BETWEEN RVEC AND RDESIRED.
000542:                                                                                                  #  SNTH    * +1           *DP SINE OF TRUE ANOMALY DIFFERENCE.
000543:
000544:
000545:                                                                                                  #        PARAMETERS OF NO USE -
000546:                                                                                                  #  SP PARAMETERS - RTNTT, GEOMSGN, RTNPRM, MAGVEC2=R2 (DP), PLUS PUSHLIST LOCATIONS 0-11D, 14D-21D, 24D-39D, 41D
000547:                                                                                                  #  ADDITIONAL INTERPRETIVE SWITCHES USED - NORMSW, 360SW
000548:
000549:
000550:
000551:                                                                                                  #  PROGRAM DESCRIPTION - APSIDES SUBROUTINE                                      DATE - 1 SEPTEMBER 1967
000552:                                                                                                  #  MOD NO. - 0                                                                   LOG SECTION - CONIC SUBROUTINES
000553:                                                                                                  #  MOD BY KRAUSE                                                                 ASSEMBLY - COLOSSUS REVISION 88
000554:
000555:
000556:
000557:                                                                                                  #  FUNCTIONAL DESCRIPTION -
000558:
000559:                                                                                                  #        THIS SUBROUTINE, GIVEN AN INITIAL STATE VECTOR CALCULATES THE RADIUS OF PERICENTER AND OF APOCENTER AND THE
000560:                                                                                                  #  ECCENTRICITY OF THE RESULTING CONIC TRAJECTORY, WHICH MAY BE A STRAIGHT LINE,
000561:                                                                                                  #  CIRCLE, ELLIPSE, PARABOLA, OR HYPERBOLA WITH RESPECT TO THE EARTH OR THE MOON.  THE USE OF THE SUBROUTINE CAN BE
000562:                                                                                                  #  EXTENDED USING OTHER PRIMARY BODIES BY SIMPLE ADDITIONS TO THE MUTABLE WITHOUT INTRODUCING ANY CODING CHANGES,
000563:                                                                                                  #  ACCEPTING THE INHERENT SCALE FACTOR CHANGES IN POSITION AND VELOCITY.
000564:
000565:
000566:                                                                                                  #  THE RESTRICTIONS ARE -
000567:                                                                                                  #        1. IF APOCENTER IS BEYOND THE SCALING OF POSITION, THE SCALE FACTOR LIMIT (536,870,910 METERS WITH RESPECT
000568:                                                                                                  #  TO THE EARTH OR 134,217,727.5 METERS WITH RESPECT TO THE MOON) WILL BE RETURNED.
000569:                                                                                                  #        2. THE PARAMETERS IN THE PROBLEM MUST NOT EXCEED THEIR SCALING LIMITS SPECIFIED IN THE GSOP.  IF THE LIMITS
000570:                                                                                                  #  ARE EXCEEDED, THE RESULTING SOLUTION WILL BE MEANINGLESS.
000571:
000572:                                                                                                  #        THE AGC COMPUTATION TIME IS APPROXIMATELY .103 SECONDS.
000573:
000574:
000575:
000576:                                                                                                  #  REFERENCES -
000577:                                                                                                  #        MISSION PROGRAMMING DEFINITION MEMO NO. 10, LUNAR LANDING MISSION GSOP-SECTION 5.5
000578:
000579:
000580:
000581:                                                                                                  #  INPUT - ERASABLE INITIALIZATION REQUIRED
000582:
000583:                                                                                                  #          * SCALE FACTOR *
000584:                                                                                                  #  VARIABLE*IN POWERS OF 2*                      DESCRIPTION AND REMARKS
000585:                                                                                                  #  --------*--------------*                      -----------------------
000586:                                                                                                  #  RVEC    * +29 FOR EARTH*DP INITIAL POSITION VECTOR IN METERS
000587:                                                                                                  #  VVEC    * +7 FOR EARTH *DP INITIAL VELOCITY VECTOR IN METERS/CENTISECOND
000588:                                                                                                  #  X1 (38D)* NONE         *INDEX REGISTER TO BE SET TO -2D OR -10D ACCORDING TO WHETHER THE EARTH OR MOON,
000589:                                                                                                  #          *              *RESPECTIVELY, IS THE CENTRAL BODY.
000590:
000591:
000592:
000593:                                                                                                  #  SUBROUTINES CALLED -
000594:                                                                                                  #        PARAM, GEOM
000595:
000596:
000597:
000598:                                                                                                  #  CALLING SEQUENCE AND NORMAL EXIT MODES -
000599:
000600:                                                                                                  #        IF ONLY TIME IS DESIRED AS OUTPUT -
000601:                                                                                                  #  L     CALL                    MUST BE IN INTERPRETIVE MODE BUT OVFIND ARBITRARY.
000602:                                                                                                  #  L+1           APSIDES         RETURNS WITH PL AT 0, RADIUS OF APOCENTER IN MPAC AND RADIUS OF PERICENTER IN 0D
000603:                                                                                                  #  L+2   STODL   APOAPSE
000604:                                                                                                  #  L+3           0D
000605:                                                                                                  #  L+4   STORE   PERIAPSE        APOAPSE AND PERIAPSE ARE SYMBOLIC REPRESENTATIONS OF THE USERS LOCATIONS
000606:                                                                                                  #  L+5   ...                     CONTINUE
000607:
000608:                                                                                                  #  OUTPUT -
000609:                                                                                                  #          * SCALE FACTOR *
000610:                                                                                                  #  VARIABLE*IN POWERS OF 2*                      DESCRIPTION AND REMARKS
000611:                                                                                                  #  --------*--------------*                      -----------------------
000612:                                                                                                  #  MPAC    * +29 FOR EARTH*DP RADIUS OF APOCENTER IN METERS
000613:                                                                                                  #  0D-1D   * +29 FOR EARTH*DP RADIUS OF PERICENTER IN METERS
000614:                                                                                                  #  ECC     * +3           *DP ECCENTRICITY OF CONIC TRAJECTORY.
000615:
000616:                                                                                                  #  FOR OTHER OUTPUT WHICH MAY BE OF USE, SEE DEBRIS.
000617:
000618:
000619:
000620:                                                                                                  #  DEBRIS -
000621:
000622:                                                                                                  #        PARAMETERS WHICH MAY BE OF USE -
000623:
000624:                                                                                                  #          * SCALE FACTOR *
000625:                                                                                                  #  VARIABLE*IN POWERS OF 2*                      DESCRIPTION AND REMARKS
000626:                                                                                                  #  --------*--------------*                      -----------------------
000627:                                                                                                  #  R1 (32D)* +29 FOR EARTH*DP MAGNITUDE OF INITIAL POSITION VECTOR, RVEC, IN METERS
000628:                                                                                                  #  R1A     * +6           *DP RATIO OF R1 TO SEMIMAJOR AXIS (NEG. FOR HYPERBOLIC TRAJECTORIES)
000629:                                                                                                  #  P       * +4           *DP RATIO OF SEMILATUS RECTUM TO R1
000630:                                                                                                  #  COGA    * +5           *DP COTAN OF ANGLE BETWEEN RVEC AND VVEC
000631:                                                                                                  #  UR1     * +1           *DP UNIT VECTOR OF RVEC
000632:                                                                                                  #  U2      * +1           *DP UNIT VECTOR OF VVEC
000633:                                                                                                  #  UN      * +1           *DP UNIT VECTOR OF UR1*U2
000634:                                                                                                  #  MAGVEC2 * +7 FOR EARTH *DP MAGNITUDE OF VVEC
000635:
000636:
000637:                                                                                                  #        PARAMETERS OF NO USE -
000638:                                                                                                  #  SP PARAMETERS - RTNAPSE, GEOMSGN, RTNPRM, PLUS PUSHLIST LOCATIONS 0-5,10D-11D, 14D-21D, 31D-38D.
000639:                                                                                                  #  ADDITIONAL INTERPRETIVE SWITCHES USED - NORMSW
000640:
000641:
000642:
000643: 12,2000                                           SETLOC   CONICS
000644: 12,2000                                           BANK
000645:
000646: 12,2101                                           COUNT*   $$/CONIC
000647: 12,2101  E5,1715                                  EBANK=   UR1
000648:
000649: 12,2101           77624        KEPLERN            CALL
000650: 12,2102           24601                                    COMSETUP
000651: 12,2103           53575                           VLOAD    UNIT
000652: 12,2104           01503                                    RRECT
000653: 12,2105           16641                           STODL    URRECT
000654: 12,2106           00045                                    36D
000655: 12,2107           24041                           STOVL    R1
000656: 12,2110           01503                                    RRECT
000657: 12,2111           76441                           DOT      SL1R
000658: 12,2112           01511                                    VRECT
000659: 12,2113           76405                           DMP      SL1R
000660: 12,2114           00023                                    1/ROOTMU                              #  1/ROOTMU (-17 OR -14)
000661: 12,2115           24043                           STOVL    KEPC1                                 #  C1=R.V/ROOTMU (+17 OR +16)
000662:
000663: 12,2116           01511                                    VRECT
000664: 12,2117           57236                           VSQ      DMPR
000665: 12,2120           00017                                    1/MU                                  #  1/MU (-34 OR -28)
000666: 12,2121           52405                           DMP      SL3
000667: 12,2122           00041                                    R1
000668: 12,2123           61425                           DSU      ROUND
000669: 12,2124           33410                                    D1/64
000670: 12,2125           00045                           STORE    KEPC2                                 #  C2=RV.V/MU -1 (+6)
000671:
000672: 12,2126           74421                           BDSU     SR1R
000673: 12,2127           33410                                    D1/64
000674: 12,2130           77671                           DDV
000675: 12,2131           00041                                    R1
000676: 12,2132           00011                           STORE    ALPHA                                 #  ALPHA=(1-C2)/R1 (-22 OR -20)
000677:
000678: 12,2133           71244                           BPL      DLOAD                                 #  MAXIMUM X DEPENDS ON TYPE OF CONIC
000679: 12,2134           24143                                    1REV
000680: 12,2135           33426                                    -50SC                                 #  -50SC (+12)
000681: 12,2136           40071                           DDV      BOV
000682: 12,2137           00011                                    ALPHA
000683: 12,2140           24147                                    STOREMAX
000684: 12,2141           52166                           SQRT     GOTO
000685: 12,2142           24147                                    STOREMAX
000686:
000687: 12,2143           55366        1REV               SQRT     BDDV
000688: 12,2144           33430                                    2PISC                                 #  2PISC (+6)
000689: 12,2145           77600                           BOV
000690: 12,2146           24147                                    STOREMAX
000691: 12,2147           00013        STOREMAX           STORE    XMAX
000692: 12,2150           65205                           DMP      PDDL
000693: 12,2151           00023                                    1/ROOTMU
000694: 12,2152           00011                                    ALPHA
000695: 12,2153           65301                           NORM     PDDL
000696: 12,2154           00047                                    X1
000697: 12,2155           56257                           SL*      DDV
000698: 12,2156           20173                                    0          -6,1
000699: 12,2157           50000                           BOV      BMN
000700: 12,2160           24174                                    MODDONE
000701: 12,2161           24174                                    MODDONE                               #  MPAC=PERIOD
000702: 12,2162           51525        PERIODCH           PDDL     ABS                                   #  0D=PERIOD
000703: 12,2163           02171                                    TAU.
000704: 12,2164           50025                           DSU      BMN
000705: 12,2165           00001                                    0D
000706: 12,2166           24174                                    MODDONE
000707: 12,2167           77765                           SIGN
000708: 12,2170           02171                                    TAU.
000709: 12,2171           16171                           STODL    TAU.
000710: 12,2172           77650                           GOTO
000711: 12,2173           24162                                    PERIODCH
000712: 12,2174           71201        MODDONE            SETPD    DLOAD
000713: 12,2175           00001                                    0
000714: 12,2176           02165                                    XKEPNEW
000715: 12,2177           00025                           STORE    X
000716: 12,2200           53165                           SIGN     BZE
000717: 12,2201           02171                                    TAU.
000718: 12,2202           24351                                    BADX
000719: 12,2203           51440                           BMN      ABS
000720: 12,2204           24351                                    BADX
000721: 12,2205           51025                           DSU      BPL
000722: 12,2206           00013                                    XMAX
000723: 12,2207           24351                                    BADX
000724: 12,2210           51145        STORBNDS           DLOAD    BPL
000725: 12,2211           02171                                    TAU.
000726: 12,2212           24221                                    STOREMIN
000727: 12,2213           57545                           DLOAD    DCOMP
000728: 12,2214           00013                                    XMAX
000729: 12,2215           14015                           STODL    XMIN
000730: 12,2216           15726                                    KEPZERO
000731: 12,2217           34013                           STCALL   XMAX
000732: 12,2220           24224                                    DXCOMP
000733: 12,2221           77745        STOREMIN           DLOAD
000734: 12,2222           15726                                    KEPZERO
000735: 12,2223           00015                           STORE    XMIN
000736: 12,2224           57345        DXCOMP             DLOAD    DMPR
000737: 12,2225           02171                                    TAU.
000738: 12,2226           33421                                    BEE22
000739: 12,2227           77646                           ABS
000740: 12,2230           15013                           STODL    EPSILONT
000741: 12,2231           01553                                    XPREV
000742: 12,2232           77621        XDIFF              BDSU
000743: 12,2233           00025                                    X
000744: 12,2234           02635                           STORE    DELX
000745:
000746:
000747: 12,2235           63545        KEPLOOP            DLOAD    DSQ
000748: 12,2236           00025                                    X                                     #  X=XKEP
000749: 12,2237           41501                           NORM     PUSH                                  #  0D=XSQ (+34 OR +32 -N1)       PL AT 2
000750: 12,2240           00047                                    X1
000751: 12,2241           53605                           DMP      SRR*
000752: 12,2242           00011                                    ALPHA
000753: 12,2243           21573                                    0          -6,1
000754: 12,2244           34031                           STCALL   XI                                    #  XI=ALPHA XSQ (+6)
000755: 12,2245           24464                                    DELTIME
000756: 12,2246           44200                           BOV      BDSU
000757: 12,2247           24357                                    TIMEOVFL                              #  UNLIKELY
000758: 12,2250           02171                                    TAU.
000759: 12,2251           02637                           STORE    DELT                                  #  DELT=DELINDEP
000760: 12,2252           44246                           ABS      BDSU
000761: 12,2253           01013                                    EPSILONT
000762: 12,2254           71244                           BPL      DLOAD
000763: 12,2255           24377                                    KEPCONVG
000764: 12,2256           00037                                    T
000765: 12,2257           60225                           DSU      NORM
000766: 12,2260           01551                                    TC
000767: 12,2261           00047                                    X1
000768: 12,2262           60325                           PDDL     NORM
000769: 12,2263           02635                                    DELX
000770: 12,2264           00050                                    X2
000771: 12,2265           41260                           XSU,1    DMP
000772: 12,2266           00047                                    X2
000773: 12,2267           02637                                    DELT
000774: 12,2270           56257                           SLR*     DDV
000775: 12,2271           21202                                    1,1
000776: 12,2272           41542                           SR1      PUSH                                  #  0D=TRIAL DELX                 PL AT 2
000777: 12,2273           71244                           BPL      DLOAD
000778: 12,2274           24315                                    POSDELX
000779: 12,2275           00025                                    X
000780: 12,2276           00013                           STORE    XMAX                                  #  MOVE MAX BOUND IN
000781: 12,2277           45221                           BDSU     DSU                                   #                                PL AT 0
000782: 12,2300           00015                                    XMIN
000783: 12,2301           51000                           BOV      BPL
000784: 12,2302           24307                                    NDXCHNGE
000785: 12,2303           24307                                    NDXCHNGE
000786: 12,2304           52145                           DLOAD    GOTO
000787: 12,2305           00001                                    0D
000788: 12,2306           24327                                    NEWDELX
000789:
000790:
000791: 12,2307           45345        NDXCHNGE           DLOAD    DSU
000792: 12,2310           00015                                    XMIN
000793: 12,2311           00025                                    X
000794: 12,2312           52075                           DMPR     GOTO                                  #  TO FORCE MPAC +2 TO ZERO
000795: 12,2313           33424                                    DP9/10
000796: 12,2314           24327                                    NEWDELX
000797:
000798:
000799: 12,2315           77745        POSDELX            DLOAD
000800: 12,2316           00025                                    X
000801: 12,2317           00015                           STORE    XMIN                                  #  MOVE MIN BOUND IN
000802: 12,2320           45221                           BDSU     DSU                                   #                                PL AT 0
000803: 12,2321           00013                                    XMAX
000804: 12,2322           50000                           BOV      BMN
000805: 12,2323           24343                                    PDXCHNGE
000806: 12,2324           24343                                    PDXCHNGE
000807: 12,2325           77745                           DLOAD
000808: 12,2326           00001                                    0D
000809: 12,2327           02635        NEWDELX            STORE    DELX
000810: 12,2330           43254                           BZE      DAD
000811: 12,2331           24377                                    KEPCONVG
000812: 12,2332           00025                                    X
000813: 12,2333           14025                           STODL    X
000814: 12,2334           00037                                    T
000815: 12,2335           01551                           STORE    TC
000816: 12,2336           46034        BRNCHCTR           RTB      BHIZ
000817: 12,2337           24720                                    CHECKCTR
000818: 12,2340           24377                                    KEPCONVG
000819: 12,2341           77650                           GOTO
000820: 12,2342           24235                                    KEPLOOP                               #  ITERATE
000821:
000822:
000823: 12,2343           45345        PDXCHNGE           DLOAD    DSU
000824: 12,2344           00013                                    XMAX
000825: 12,2345           00025                                    X
000826: 12,2346           52075                           DMPR     GOTO                                  #  TO FORCE MPAC +2 TO ZERO
000827: 12,2347           33424                                    DP9/10
000828: 12,2350           24327                                    NEWDELX
000829:
000830:
000831: 12,2351           70545        BADX               DLOAD    SR1
000832: 12,2352           00013                                    XMAX
000833: 12,2353           77765                           SIGN
000834: 12,2354           02171                                    TAU.
000835: 12,2355           34025                           STCALL   X
000836: 12,2356           24210                                    STORBNDS
000837: 12,2357           50145        TIMEOVFL           DLOAD    BMN                                   #  X WAS TOO BIG
000838: 12,2360           00025                                    X
000839: 12,2361           24375                                    NEGTOVFL
000840: 12,2362           00013                           STORE    XMAX
000841: 12,2363           70545        CMNTOVFL           DLOAD    SR1
000842: 12,2364           02635                                    DELX
000843: 12,2365           02635                           STORE    DELX
000844: 12,2366           44254                           BZE      BDSU
000845: 12,2367           02163                                    KEPRTN
000846: 12,2370           00025                                    X
000847: 12,2371           14025                           STODL    X
000848: 12,2372           01551                                    TC
000849: 12,2373           34037                           STCALL   T
000850: 12,2374           24336                                    BRNCHCTR
000851: 12,2375           34015        NEGTOVFL           STCALL   XMIN
000852: 12,2376           24363                                    CMNTOVFL
000853: 12,2377           44545        KEPCONVG           DLOAD    SR4R
000854: 12,2400           00041                                    R1
000855: 12,2401           74225                           DSU      VXSC
000856: 12,2402           00035                                    XSQC(XI)
000857: 12,2403           02641                                    URRECT
000858: 12,2404           65372                           VSL1     PDDL                                  #  0D=(R1-XSQC(XI))URRECT (+33 OR +31)
000859: 12,2405           00025                                    X
000860: 12,2406           60316                           DSQ      NORM
000861: 12,2407           00047                                    X1
000862: 12,2410           57275                           DMPR     DMPR
000863: 12,2411           00023                                    1/ROOTMU
000864: 12,2412           00025                                    X
000865: 12,2413           53605                           DMP      SRR*
000866: 12,2414           00033                                    S(XI)
000867: 12,2415           21572                                    0          -7,1
000868: 12,2416           77621                           BDSU
000869: 12,2417           00037                                    T
000870: 12,2420           74352                           SL1      VXSC
000871: 12,2421           01511                                    VRECT
000872: 12,2422           53372                           VSL1     VAD                                   #                                PL AT 0
000873: 12,2423           77712                           VSL4
000874: 12,2424           01535                           STORE    RCV                                   #  RCV (+29 OR +27)
000875:
000876:
000877: 12,2425           60246                           ABVAL    NORM
000878: 12,2426           00050                                    X2
000879: 12,2427           16647                           STODL    RCNORM
000880: 12,2430           00031                                    XI
000881: 12,2431           45275                           DMPR     DSU
000882: 12,2432           00033                                    S(XI)
000883: 12,2433           33406                                    D1/128
000884: 12,2434           76405                           DMP      SL1R
000885: 12,2435           00021                                    ROOTMU
000886: 12,2436           53605                           DMP      SLR*
000887: 12,2437           00025                                    X
000888: 12,2440           56601                                    0          -3,2
000889: 12,2441           74271                           DDV      VXSC
000890: 12,2442           02647                                    RCNORM
000891: 12,2443           02641                                    URRECT
000892: 12,2444           65372                           VSL1     PDDL                                  #  0D=URRECT(XI S(XI)-1)X ROOTMU/RCV (+15
000893: 12,2445           00035                                    XSQC(XI)                              #  OR +13)                       PL AT 6
000894: 12,2446           56257                           SLR*     DDV
000895: 12,2447           56602                                    0          -4,2
000896: 12,2450           02647                                    RCNORM
000897: 12,2451           74221                           BDSU     VXSC
000898: 12,2452           33422                                    D1/256
000899: 12,2453           01511                                    VRECT
000900: 12,2454           42455                           VAD      VSL8                                  #                                PL AT 0
000901: 12,2455           77626                           STADR
000902: 12,2456           62234                           STODL    VCV                                   #  VCV (+7 OR +5)
000903: 12,2457           00037                                    T
000904: 12,2460           15551                           STODL    TC
000905: 12,2461           00025                                    X
000906: 12,2462           35553                           STCALL   XPREV
000907: 12,2463           02163                                    KEPRTN
000908:
000909: 12,2464           77776        DELTIME            EXIT                                           #  MPAC=XI (+6), 0D=XSQ (+34 OR +32 -N1)
000910: 12,2465           07171                           TC       POLY
000911: 12,2466           00010                           DEC      8          B-14
000912: 12,2467           02525 12526                     2DEC     .083333334
000913: 12,2471           67356 75666                     2DEC     -.266666684
000914: 12,2473           15001 23771                     2DEC     .406349155
000915: 12,2475           64342 43674                     2DEC     -.361198675
000916: 12,2477           06563 04645                     2DEC     .210153242
000917: 12,2501           75173 52672                     2DEC     -.086221951
000918: 12,2503           00656 14331                     2DEC     .026268812
000919: 12,2505           77633 40512                     2DEC     -.006163316
000920: 12,2507           00023 11210                     2DEC     .001177342
000921: 12,2511           77774 67506                     2DEC     -.000199055
000922: 12,2513           06006                           TC       INTPRET
000923: 12,2514           14033                           STODL    S(XI)
000924: 12,2515           00031                                    XI
000925: 12,2516           77776                           EXIT
000926: 12,2517           07171                           TC       POLY
000927: 12,2520           00010                           DEC      8          B-14
000928: 12,2521           01000 00000                     2DEC     .031250001
000929: 12,2523           72525 52506                     2DEC     -.166666719
000930: 12,2525           13301 15337                     2DEC     .355555413
000931: 12,2527           62776 54733                     2DEC     -.406347410
000932: 12,2531           11176 13267                     2DEC     .288962094
000933: 12,2533           73410 51674                     2DEC     -.140117894
000934: 12,2535           01446 33641                     2DEC     .049247387
000935: 12,2537           77451 65233                     2DEC     -.013081923
000936: 12,2541           00055 37266                     2DEC     .002806389
000937: 12,2543           77767 52336                     2DEC     -.000529414
000938: 12,2545           06006                           TC       INTPRET
000939: 12,2546           53605                           DMP      SRR*                                  #                                PL AT 0
000940: 12,2547           00001                                    0D
000941: 12,2550           21574                                    0          -5,1
000942: 12,2551           00035                           STORE    XSQC(XI)                              #  XSQC(XI) (+33 OR +31)
000943: 12,2552           72405                           DMP      SL1
000944: 12,2553           00043                                    KEPC1
000945: 12,2554           65234                           RTB      PDDL                                  #  XCH WITH PL. 0D=C1 XSQ C(XI) (+49 OR +46
000946: 12,2555           45640                                    TPMODE                                #                                PL AT 0,3
000947: 12,2556           53605                           DMP      SRR*
000948: 12,2557           00033                                    S(XI)
000949: 12,2560           21574                                    0          -5,1
000950: 12,2561           72405                           DMP      SL1
000951: 12,2562           00045                                    KEPC2
000952: 12,2563           65234                           RTB      PDDL                                  #  3D=C2 XSQ S(XI) (+35 OR +33)  PL AT 6
000953: 12,2564           45640                                    TPMODE
000954: 12,2565           00041                                    R1
000955: 12,2566           76261                           SR       TAD                                   #                                PL AT 3
000956: 12,2567           20607                                    6
000957: 12,2570           41301                           NORM     DMP                                   #  TO PRESERVE SIGNIF.
000958: 12,2571           00047                                    X1
000959: 12,2572           00025                                    X
000960: 12,2573           76257                           SR*      TAD                                   #  X(C2 XSQ S(XI) +R1) (+49 OR +46) PL AT 0
000961: 12,2574           20576                                    0          -3,1
000962: 12,2575           57232                           SL4R     DMPR
000963: 12,2576           00023                                    1/ROOTMU
000964: 12,2577           00037                           STORE    T
000965: 12,2600           77616                           RVQ
000966:
000967: 12,2601           40001        COMSETUP           SETPD    BOV
000968: 12,2602           00001                                    0D
000969: 12,2603           24604                                    +1
000970: 12,2604           77331                           SSP      VLOAD
000971: 12,2605           00027                                    ITERCTR
000972: 12,2606           00024                                    20D
000973: 12,2607           22724                                    MUTABLE    +2
000974: 12,2610           00017                           STORE    1/MU
000975: 12,2611           77616                           RVQ
000976:
000977: 12,2612           71214        ITERATOR           BONCLR   DLOAD
000978: 12,2613           00614                                    SLOPESW
000979: 12,2614           24662                                    FIRSTIME
000980: 12,2615           00037                                    DEP
000981: 12,2616           60225                           DSU      NORM
000982: 12,2617           02756                                    DEPREV
000983: 12,2620           00047                                    X1
000984: 12,2621           60325                           PDDL     NORM
000985: 12,2622           00015                                    DELINDEP
000986: 12,2623           00050                                    X2
000987: 12,2624           41260                           XSU,1    DMP
000988: 12,2625           00047                                    X2
000989: 12,2626           02754                                    DELDEP
000990: 12,2627           56257                           SLR*     DDV                                   #                                PL UP 2
000991: 12,2630           21202                                    1,1
000992: 12,2631           43142                           SR1      BOFF
000993: 12,2632           04351                                    ORDERSW
000994: 12,2633           24636                                    SGNCHECK
000995: 12,2634           75246                           ABS      SIGN                                  #  IN CASE 2ND DERIV. CHANGED SIGN, MUST
000996: 12,2635           02754                                    DELDEP                                #  DISREGARD IT TO FIND MIN.
000997:
000998: 12,2636           51006        SGNCHECK           PUSH     BPL                                   #  TRIAL DELINDEP                PL DOWN 2
000999: 12,2637           24674                                    POSDEL
001000: 12,2640           43145                           DLOAD    BON
001001: 12,2641           02326                                    INDEP
001002: 12,2642           04311                                    ORDERSW
001003: 12,2643           24645                                    MINCHECK
001004: 12,2644           00017                           STORE    MAX                                   #  IF NOT 2ND ORDER, CAN MOVE MAX BOUND IN.
001005:
001006: 12,2645           45221        MINCHECK           BDSU     DSU
001007: 12,2646           00011                                    MIN
001008: 12,2647           51000                           BOV      BPL
001009: 12,2650           24654                                    MODNGDEL
001010: 12,2651           24654                                    MODNGDEL
001011: 12,2652           77650                           GOTO
001012: 12,2653           24706                                    DELOK
001013:
001014:
001015: 12,2654           45345        MODNGDEL           DLOAD    DSU                                   #  TRIAL DELINDEP WOULD EXCEED MIN BOUND
001016: 12,2655           00011                                    MIN
001017: 12,2656           02326                                    INDEP
001018: 12,2657           52005                           DMP      GOTO
001019: 12,2660           33424                                    DP9/10
001020: 12,2661           24710                                    NEWDEL
001021:
001022:
001023: 12,2662           41335        FIRSTIME           SLOAD    DMP
001024: 12,2663           00051                                    TWEEKIT
001025: 12,2664           00011                                    MIN
001026: 12,2665           67206                           PUSH     SLOAD
001027: 12,2666           00051                                    TWEEKIT
001028: 12,2667           45205                           DMP      DSU
001029: 12,2670           00017                                    MAX
001030: 12,2671           52165                           SIGN     GOTO
001031: 12,2672           02754                                    DELDEP
001032: 12,2673           24636                                    SGNCHECK
001033:
001034:
001035: 12,2674           43145        POSDEL             DLOAD    BON
001036: 12,2675           02326                                    INDEP
001037: 12,2676           04311                                    ORDERSW
001038: 12,2677           24701                                    MAXCHECK
001039: 12,2700           00011                           STORE    MIN                                   #  IF NOT 2ND ORDER, CAN MOVE MIN BOUND IN.
001040:
001041: 12,2701           45221        MAXCHECK           BDSU     DSU
001042: 12,2702           00017                                    MAX
001043: 12,2703           50000                           BOV      BMN
001044: 12,2704           24712                                    MODPSDEL
001045: 12,2705           24712                                    MODPSDEL
001046: 12,2706           77745        DELOK              DLOAD
001047: 12,2707           00001                                    0D
001048: 12,2710           00015        NEWDEL             STORE    DELINDEP
001049: 12,2711           77616                           RVQ
001050:
001051:
001052: 12,2712           45345        MODPSDEL           DLOAD    DSU
001053: 12,2713           00017                                    MAX
001054: 12,2714           02326                                    INDEP
001055: 12,2715           52005                           DMP      GOTO
001056: 12,2716           33424                                    DP9/10
001057: 12,2717           24710                                    NEWDEL
001058:
001059: 12,2720           45001        CHECKCTR           CS       ONE
001060: 12,2721           50120                           INDEX    FIXLOC
001061: 12,2722           26026                           ADS      ITERCTR
001062: 12,2723           54154                           TS       MPAC
001063: 12,2724           06030                           TC       DANZIG
001064:
001065: 12,2725           44545        NEWSTATE           DLOAD    SR4R
001066: 12,2726           00041                                    R1
001067: 12,2727           74225                           DSU      VXSC
001068: 12,2730           00035                                    XSQC(XI)
001069: 12,2731           02716                                    UR1
001070: 12,2732           65372                           VSL1     PDDL                                  #  0D=(R1-XSQC(XI))UR1 (+33 OR 31) PL AT 6
001071: 12,2733           00025                                    X
001072: 12,2734           60316                           DSQ      NORM
001073: 12,2735           00047                                    X1
001074: 12,2736           57275                           DMPR     DMPR
001075: 12,2737           00023                                    1/ROOTMU
001076: 12,2740           00025                                    X
001077: 12,2741           53605                           DMP      SRR*
001078: 12,2742           00033                                    S(XI)
001079: 12,2743           21572                                    0          -7,1
001080: 12,2744           77621                           BDSU
001081: 12,2745           00037                                    T
001082: 12,2746           74352                           SL1      VXSC
001083: 12,2747           02740                                    VVEC
001084: 12,2750           53372                           VSL1     VAD                                   #                                PL AT 0
001085: 12,2751           41512                           VSL4     PUSH
001086: 12,2752           77646                           ABVAL
001087: 12,2753           77701        LAMENTER           NORM
001088: 12,2754           00047                                    X1
001089: 12,2755           16714                           STODL    R2
001090: 12,2756           00031                                    XI
001091: 12,2757           45205                           DMP      DSU
001092: 12,2760           00033                                    S(XI)
001093: 12,2761           33406                                    D1/128
001094: 12,2762           76405                           DMP      SL1R
001095: 12,2763           00021                                    ROOTMU
001096: 12,2764           53605                           DMP      SLR*
001097: 12,2765           00025                                    X
001098: 12,2766           21176                                    0          -3,1
001099: 12,2767           74271                           DDV      VXSC
001100: 12,2770           02714                                    R2
001101: 12,2771           02716                                    UR1
001102: 12,2772           65372                           VSL1     PDDL                                  #  6D=V2VEC PART (+15 OR 13)     PL AT 12
001103: 12,2773           00035                                    XSQC(XI)
001104: 12,2774           56257                           SLR*     DDV
001105: 12,2775           21175                                    0          -4,1
001106: 12,2776           02714                                    R2
001107: 12,2777           77621                           BDSU
001108: 12,3000           33422                                    D1/256
001109: 12,3001           53361                           VXSC     VAD
001110: 12,3002           02740                                    VVEC                                  #                                PL AT 6
001111: 12,3003           43412                           VSL8     RVQ
001112:
001113: 15,2000                                           SETLOC   CONICS1
001114: 15,2000                                           BANK
001115:
001116: 15,3402                                           COUNT*   $$/CONIC
001117:                                                                                                  #  DO NOT DISTURB THE ORDER OF THESE CDS, OVERLAYS HAVE BEEN MADE.
001118: 15,3402           00000        BEE17              DEC      0          B-14                       #  KEEP WITH D1/8 2DEC 1.0B-17 (0000004000)
001119: 15,3403           04000 00000  D1/8               2DEC     1.0        B-3
001120: 15,3405           00200 00000  D1/128             2DEC     1.0        B-7
001121: 15,3407           00400 00000  D1/64              2DEC     1.0        B-6
001122: 15,3411           10000 00000  D1/4               2DEC     1.0        B-2
001123: 15,3413           02000 00000  D1/16              2DEC     1.0        B-4
001124: 15,3415           01000 00000  D1/32              2DEC     1.0        B-5
001125: 15,3417           00020 00000  D1/1024            2DEC     1.0        B-10
001126: 15,3421           00100 00000  D1/256             2DEC     1.0        B-8
001127: 15,3423           34631 23146  DP9/10             2DEC     .9
001128: 15,3425  06,3725               KEPZERO            EQUALS   LO6ZEROS
001129: 15,3425           77467 77777  -50SC              2DEC     -50.0      B-12
001130: 15,3427           03110 17665  2PISC              2DEC     6.28318530 B-6
001131: 15,3431  15,3414               BEE19              EQUALS   D1/32      -1                         #  2DEC 1.0 B-19 (00000 01000)
001132: 15,3431  15,3420               BEE22              EQUALS   D1/256     -1                         #  2DEC 1.0 B-22 (00000 00100)
001133: 15,3431           00000 00001  ONEBIT             2DEC     1.0        B-28
001134: 15,3433           37767 37737  COGUPLIM           2DEC     .999511597
001135: 15,3435           40010 40040  COGLOLIM           2DEC     -.999511597
001136:
001137: 12,2000                                           SETLOC   CONICS
001138: 12,2000                                           BANK
001139:
001140: 12,3004                                           COUNT*   $$/CONIC
001141: 12,3004           45020        TIMETHET           STQ      CALL
001142: 12,3005           02704                                    RTNTT
001143: 12,3006           25765                                    PRAMSET
001144: 12,3007           77624                           CALL
001145: 12,3010           22656                                    PARAM
001146: 12,3011           45000                           BOV      CALL                                  #                                PL AT 0
001147: 12,3012           25031                                    COGAOVFL
001148: 12,3013           25034                                    GETX
001149: 12,3014           43145        COMMNOUT           DLOAD    BON
001150: 12,3015           00031                                    XI
001151: 12,3016           04310                                    INFINFLG
001152: 12,3017           25762                                    ABTCONIC
001153: 12,3020           45014                           CLEAR    CALL
001154: 12,3021           04273                                    COGAFLAG
001155: 12,3022           24464                                    DELTIME
001156: 12,3023           45014                           BON      CALL
001157: 12,3024           03706                                    RVSW
001158: 12,3025           02704                                    RTNTT
001159: 12,3026           24725                                    NEWSTATE
001160: 12,3027           77650                           GOTO
001161: 12,3030           02704                                    RTNTT
001162:
001163: 12,3031           77614        COGAOVFL           SETGO
001164: 12,3032           04033                                    COGAFLAG
001165: 12,3033           25762                                    ABTCONIC
001166: 11,2000                                           SETLOC   CONICS2
001167: 11,2000                                           BANK
001168: 11,2656                                           COUNT*   $$/CONIC
001169: 11,2656           43020        PARAM              STQ      CLEAR                                 #  MPAC=V1VEC, 0D=R1VEC          PL AT 6
001170: 11,2657           02747                                    RTNPRM
001171: 11,2660           03665                                    NORMSW
001172: 11,2661           77614                           CLEAR
001173: 11,2662           04273                                    COGAFLAG
001174: 11,2663           45131                           SSP      CALL
001175: 11,2664           02667                                    GEOMSGN
001176: 11,2665           27777                                    37777                                 #  GAMMA ALWAYS LESS THAN 180DEG
001177: 11,2666           13715                                    GEOM                                  #  MPAC=SNGA (+1), 0D=CSGA (+1)  PL AT 2
001178: 11,2667           14045                           STODL    36D                                   #  36D=SIN GAMMA (+1)            PL AT 0
001179: 11,2670           56261                           SR       DDV
001180: 11,2671           20606                                    5
001181:
001182: 11,2672           00045                                    36D
001183: 11,2673           26326                           STOVL    COGA
001184: 11,2674           22724                                    MUTABLE    +2
001185: 11,2675           14017                           STODL    1/MU
001186: 11,2676           02714                                    MAGVEC2
001187: 11,2677           60316                           DSQ      NORM
001188: 11,2700           00047                                    X1
001189: 11,2701           41275                           DMPR     DMP
001190: 11,2702           00017                                    1/MU
001191: 11,2703           00041                                    R1
001192: 11,2704           77657                           SRR*
001193: 11,2705           21576                                    0          -3,1
001194: 11,2706           44206                           PUSH     BDSU                                  #  0D=R1 V1SQ/MU (+6)            PL AT 2
001195: 11,2707           33416                                    D1/32
001196: 11,2710           16736                           STODL    R1A                                   #  R1A (+6)                      PL AT 0
001197:
001198: 11,2711           60205                           DMP      NORM
001199: 11,2712           00045                                    36D
001200: 11,2713           00047                                    X1
001201: 11,2714           53605                           DMP      SR*
001202: 11,2715           00045                                    36D
001203: 11,2716           20575                                    0          -4,1
001204: 11,2717           36734                           STCALL   P                                     #  P (+4)
001205: 11,2720           02747                                    RTNPRM
001206:
001207: 05,2000                                           SETLOC   CONICS4
001208: 05,2000                                           BANK
001209:
001210: 05,3715                                           COUNT*   $$/CONIC
001211: 05,3715           77656        GEOM               UNIT                                           #  MPAC=V2VEC, 0D=R1VEC          PL AT 6
001212: 05,3716           16706                           STODL    U2                                    #  U2 (+1)
001213: 05,3717           00045                                    36D
001214: 05,3720           26714                           STOVL    MAGVEC2                               #                                PL AT 0
001215: 05,3721           77656                           UNIT
001216: 05,3722           02716                           STORE    UR1                                   #  UR1 (+1)
001217: 05,3723           72441                           DOT      SL1
001218: 05,3724           02706                                    U2
001219: 05,3725           77725                           PDDL                                           #  OD=CSTH (+1)                  PL AT 2
001220: 05,3726           00045                                    36D
001221: 05,3727           24041                           STOVL    R1                                    #  R1 (+29 OR +27)
001222: 05,3730           02716                                    UR1
001223: 05,3731           76435                           VXV      VSL1
001224: 05,3732           02706                                    U2
001225: 05,3733           75214                           BON      SIGN
001226: 05,3734           03705                                    NORMSW
001227: 05,3735           13747                                    HAVENORM
001228: 05,3736           02667                                    GEOMSGN
001229: 05,3737           40056                           UNIT     BOV
001230: 05,3740           13745                                    COLINEAR
001231: 05,3741           16670        UNITNORM           STODL    UN                                    #  UN (+1)
001232: 05,3742           00045                                    36D
001233: 05,3743           43565                           SIGN     RVQ                                   #  MPAC=SNTH (+1), 34D=SNTH.SNTH (+2)
001234: 05,3744           02667                                    GEOMSGN
001235:
001236:
001237: 05,3745           52162        COLINEAR           VSR1     GOTO
001238: 05,3746           13741                                    UNITNORM
001239:
001240: 05,3747           75246        HAVENORM           ABVAL    SIGN
001241: 05,3750           02667                                    GEOMSGN
001242: 05,3751           77616                           RVQ                                            #  MPAC=SNTH (+1), 34D=SNTH.SNTH (+2)
001243:
001244: 12,2000                                           SETLOC   CONICS
001245: 12,2000                                           BANK
001246:
001247: 12,3034                                           COUNT*   $$/CONIC
001248: 12,3034           66374        GETX               AXT,2    SSP                                   #  ASSUMES P (+4) IN MPAC
001249: 12,3035           00003                                    3
001250: 12,3036           00052                                    S2
001251: 12,3037           00001                                    1
001252: 12,3040           77614                           CLEAR
001253: 12,3041           04276                                    360SW
001254: 12,3042           65366                           SQRT     PDDL                                  #  0D=SQRT(P)                    PL AT 2
001255: 12,3043           02726                                    CSTH
001256: 12,3044           44342                           SR1      BDSU
001257: 12,3045           33412                                    D1/4
001258: 12,3046           54325                           PDDL     SRR                                   #                                PL AT 4D
001259: 12,3047           02724                                    SNTH
001260: 12,3050           21607                                    6
001261: 12,3051           77671                           DDV                                            #                                PL AT 2
001262: 12,3052           77600                           BOV
001263: 12,3053           25167                                    360CHECK
001264: 12,3054           41225                           DSU      DMP
001265: 12,3055           02326                                    COGA                                  #                                PL AT 0
001266: 12,3056           40132                           SL2R     BOV
001267: 12,3057           25167                                    360CHECK
001268: 12,3060           63406        WLOOP              PUSH     DSQ                                   #  0D=W (+5)                     PL AT 2
001269: 12,3061           65351                           TLOAD    PDDL                                  #  2D=WSQ (+10)                  PL AT 5
001270: 12,3062           00155                                    MPAC
001271: 12,3063           02736                                    R1A
001272: 12,3064           76202                           SR4      TAD                                   #                                PL AT 2
001273: 12,3065           75440                           BMN      SQRT
001274: 12,3066           25252                                    INFINITY
001275: 12,3067           43306                           ROUND    DAD                                   #                                PL AT 0D
001276: 12,3070           61000                           BOV      TIX,2
001277: 12,3071           25165                                    RESETX2
001278: 12,3072           25060                                    WLOOP
001279:
001280:
001281: 12,3073           40065                           BDDV     BOV
001282: 12,3074           33406                                    D1/128
001283: 12,3075           25252                                    INFINITY
001284: 12,3076           41440        POLYCOEF           BMN      PUSH                                  #  0D=1/W (+2) OR 16/W (+6)      PL AT 2
001285: 12,3077           25252                                    INFINITY
001286: 12,3100           77716                           DSQ
001287: 12,3101           41301                           NORM     DMP
001288: 12,3102           00047                                    X1
001289: 12,3103           02736                                    R1A
001290: 12,3104           77457                           SRR*     EXIT
001291: 12,3105           21567                                    0          -10D,1
001292: 12,3106           07171                           TC       POLY
001293: 12,3107           00005                           DEC      5          B-14
001294: 12,3110           20000 00000                     2DEC     .5
001295: 12,3112           72525 52471                     2DEC     -.166666770
001296: 12,3114           03146 15003                     2DEC     .100000392
001297: 12,3116           75556 45210                     2DEC     -.071401086
001298: 12,3120           01615 13553                     2DEC     .055503292
001299: 12,3122           76371 63777                     2DEC     -.047264098
001300: 12,3124           01232 27367                     2DEC     .040694204
001301:
001302: 12,3126           06006                           TC       INTPRET
001303: 12,3127           76405                           DMP      SL1R                                  #                                PL AT 0D
001304: 12,3130           43006                           PUSH     BON
001305: 12,3131           04316                                    360SW
001306: 12,3132           25237                                    TRUE360X
001307: 12,3133           60316        XCOMMON            DSQ      NORM
001308: 12,3134           00047                                    X1
001309: 12,3135           53605                           DMP      SRR*
001310: 12,3136           02736                                    R1A
001311: 12,3137           21565                                    0          -12D,1
001312: 12,3140           14031                           STODL    XI                                    #  XI (+6)
001313:
001314:
001315: 12,3141           00041                                    R1
001316: 12,3142           75542                           SR1      SQRT
001317: 12,3143           41306                           ROUND    DMP
001318: 12,3144           77632                           SL4R                                           #                                PL AT 0
001319: 12,3145           00025                           STORE    X                                     #  X (+17 OR +16)
001320:
001321:
001322: 12,3146           60316                           DSQ      NORM
001323: 12,3147           00047                                    X1
001324: 12,3150           41325                           PDDL     DMP                                   #  0D=XSQ (+34 OR +32 -N1)       PL AT 2
001325: 12,3151           02734                                    P
001326: 12,3152           00041                                    R1
001327: 12,3153           75452                           SL3      SQRT
001328: 12,3154           56405                           DMP      SL3R
001329: 12,3155           02326                                    COGA
001330: 12,3156           14043                           STODL    KEPC1
001331: 12,3157           02736                                    R1A
001332: 12,3160           43021                           BDSU     CLEAR
001333: 12,3161           33410                                    D1/64
001334: 12,3162           04270                                    INFINFLG
001335: 12,3163           00045                           STORE    KEPC2
001336: 12,3164           77616                           RVQ
001337:
001338:
001339: 12,3165           77774        RESETX2            AXT,2
001340: 12,3166           00003                                    3
001341:
001342: 12,3167           51001        360CHECK           SETPD    BPL
001343: 12,3170           00001                                    0D
001344: 12,3171           25174                                    INVRSEQN
001345: 12,3172           77614                           SET
001346: 12,3173           04076                                    360SW
001347:
001348:
001349: 12,3174           75545        INVRSEQN           DLOAD    SQRT
001350: 12,3175           02734                                    P
001351: 12,3176           41325                           PDDL     DMP                                   #  0D=SQRT(P) (+2)               PL AT 2
001352: 12,3177           02724                                    SNTH
001353: 12,3200           02326                                    COGA
001354: 12,3201           65352                           SL1      PDDL                                  #  2D=SNTH COGA (+5)             PL AT 4
001355: 12,3202           02726                                    CSTH
001356: 12,3203           43202                           SR4      DAD
001357: 12,3204           33416                                    D1/32
001358: 12,3205           41225                           DSU      DMP                                   #                                PL AT 2,0
001359: 12,3206           55301                           NORM     BDDV
001360: 12,3207           00047                                    X1
001361: 12,3210           02724                                    SNTH
001362: 12,3211           51457                           SLR*     ABS                                   #  NOTE: NEAR 360 CASE TREATED DIFFERENTLY
001363: 12,3212           21174                                    0          -5,1
001364: 12,3213           63406                           PUSH     DSQ                                   #  0D=1/W (-1)                   PL AT 2
001365: 12,3214           14043                           STODL    34D
001366: 12,3215           33414                                    D1/16
001367: 12,3216           63406        1/WLOOP            PUSH     DSQ                                   #  2D=G (+4)                     PL AT 4
001368: 12,3217           65234                           RTB      PDDL                                  #                                PL AT 7
001369: 12,3220           45640                                    TPMODE
001370: 12,3221           02736                                    R1A
001371: 12,3222           40405                           DMP      SR4
001372: 12,3223           00043                                    34D
001373: 12,3224           77771                           TAD                                            #                                PL AT 4
001374: 12,3225           75440                           BMN      SQRT
001375: 12,3226           25252                                    INFINITY
001376: 12,3227           77615                           DAD                                            #                                PL AT 2
001377: 12,3230           60304                           TIX,2    NORM
001378: 12,3231           25216                                    1/WLOOP
001379: 12,3232           00047                                    X1
001380: 12,3233           77665                           BDDV
001381: 12,3234           52057                           SLR*     GOTO                                  #                                PL AT 0
001382: 12,3235           21172                                    0          -7,1
001383: 12,3236           25076                                    POLYCOEF
001384:
001385:
001386: 12,3237           50145        TRUE360X           DLOAD    BMN
001387: 12,3240           02736                                    R1A
001388: 12,3241           25252                                    INFINITY
001389: 12,3242           60366                           SQRT     NORM
001390: 12,3243           00047                                    X1
001391: 12,3244           53665                           BDDV     SL*
001392: 12,3245           33430                                    2PISC
001393: 12,3246           20176                                    0          -3,1
001394: 12,3247           41425                           DSU      PUSH                                  #  0D=2PI/SQRT(R1A) -X           PL AT 0,2
001395: 12,3250           77650                           GOTO
001396: 12,3251           25133                                    XCOMMON
001397: 12,3252           40001        INFINITY           SETPD    BOV                                   #  NO SOLUTION EXISTS SINCE CLOSURE THROUGH
001398: 12,3253           00001                                    0                                     #  INFINITY IS REQUIRED
001399: 12,3254           25255                                    OVFLCLR
001400: 12,3255           43414        OVFLCLR            SET      RVQ
001401: 12,3256           04070                                    INFINFLG
001402:
001403: 12,3257           45020        LAMBERT            STQ      CALL
001404: 12,3260           02704                                    RTNLAMB
001405: 12,3261           24601                                    COMSETUP
001406: 12,3262           57345                           DLOAD    DMPR
001407: 12,3263           02665                                    TDESIRED
001408: 12,3264           33415                                    BEE19
001409: 12,3265           02330                           STORE    EPSILONL
001410: 12,3266           77214                           SET      VLOAD
001411: 12,3267           00474                                    SLOPESW
001412: 12,3270           02651                                    R1VEC
001413: 12,3271           45115                           PDVL     CALL                                  #  0D=R1VEC (+29 OR +27)         PL AT 6
001414: 12,3272           02657                                    R2VEC                                 #  MPAC=R2VEC (+29 OR +27)
001415: 12,3273           13715                                    GEOM
001416: 12,3274           16724                           STODL    SNTH                                  #  0D=CSTH (+1)                  PL AT 2
001417: 12,3275           02714                                    MAGVEC2
001418: 12,3276           65301                           NORM     PDDL                                  #                                PL AT 4
001419: 12,3277           00047                                    X1
001420: 12,3300           00041                                    R1
001421: 12,3301           56342                           SR1      DDV                                   #                                PL AT 2
001422: 12,3302           65257                           SL*      PDDL                                  #  DXCH WITH 0D, 0D=R1/R2 (+7)   PL AT 0,2
001423: 12,3303           20173                                    0          -6,1
001424: 12,3304           77626                           STADR
001425: 12,3305           75051                           STORE    CSTH                                  #  CSTH (+1)
001426: 12,3306           44342                           SR1      BDSU
001427: 12,3307           33412                                    D1/4
001428: 12,3310           02730                           STORE    1-CSTH                                #  1-CSTH (+2)
001429:
001430: 12,3311           53106                           ROUND    BZE
001431: 12,3312           25526                                    360LAMB
001432: 12,3313           65301                           NORM     PDDL                                  #                                PL AT 4
001433: 12,3314           00047                                    X1
001434: 12,3315           00001                                    0D
001435: 12,3316           56342                           SR1      DDV                                   #                                PL AT 2
001436: 12,3317           75457                           SL*      SQRT
001437: 12,3320           20176                                    0          -3,1
001438: 12,3321           54325                           PDDL     SR                                    #  2D=SQRT(2R1/R2(1-CSTH)) (+5)  PL AT 4
001439: 12,3322           02724                                    SNTH
001440: 12,3323           20607                                    6
001441: 12,3324           43271                           DDV      DAD                                   #                                PL AT 2
001442: 12,3325           02730                                    1-CSTH
001443: 12,3326           77626                           STADR
001444: 12,3327           77760                           STORE    COGAMAX
001445: 12,3330           50000                           BOV      BMN                                   #  IF OVFL, COGAMAX=COGUPLIM
001446: 12,3331           25336                                    UPLIM                                 #  IF NEG, USE EVEN IF LT COGLOLIM, SINCE
001447: 12,3332           25341                                    MAXCOGA                               #    THIS WOULD BE RESET IN LAMBLOOP
001448: 12,3333           50025                           DSU      BMN                                   #  IF COGAMAX GT COGUPLIM, COGAMAX=COGUPLIM
001449: 12,3334           33434                                    COGUPLIM
001450: 12,3335           25341                                    MAXCOGA                               #  OTHERWISE OK, SO GO TO MAXCOGA
001451: 12,3336           77745        UPLIM              DLOAD
001452: 12,3337           33434                                    COGUPLIM                              #  COGUPLIM=.999511597 = MAX VALUE OF COGA
001453: 12,3340           00017                           STORE    COGAMAX                               #    NOT CAUSING OVFL IN R1A CALCULATION
001454: 12,3341           54345        MAXCOGA            DLOAD    SR
001455: 12,3342           02726                                    CSTH
001456: 12,3343           20607                                    6
001457: 12,3344           45425                           DSU      STADR
001458: 12,3345           61045                           STODL    CSTH-RHO
001459: 12,3346           02667                                    GEOMSGN
001460: 12,3347           71240                           BMN      DLOAD
001461: 12,3350           25545                                    LOLIM
001462: 12,3351           02732                                    CSTH-RHO
001463: 12,3352           56352                           SL1      DDV
001464: 12,3353           02724                                    SNTH
001465: 12,3354           77600                           BOV
001466: 12,3355           25545                                    LOLIM
001467: 12,3356           00011        MINCOGA            STORE    COGAMIN                               #  COGAMIN (+5)
001468: 12,3357           66214                           BON      SSP
001469: 12,3360           00715                                    GUESSW
001470: 12,3361           25532                                    NOGUESS
001471: 12,3362           00051                                    TWEEKIT
001472: 12,3363           00001                                    00001
001473: 12,3364           77745                           DLOAD
001474: 12,3365           02326                                    COGA
001475:
001476:
001477: 12,3366           77605        LAMBLOOP           DMP
001478: 12,3367           02724                                    SNTH
001479: 12,3370           45342                           SR1      DSU
001480: 12,3371           02732                                    CSTH-RHO
001481: 12,3372           65301                           NORM     PDDL                                  #  0D=SNTH COGA-(CSTH-RHO) (+7+C(X1)) PL=2
001482: 12,3373           00047                                    X1
001483: 12,3374           02730                                    1-CSTH
001484: 12,3375           56257                           SL*      DDV                                   #  1-CSTH (+2)                   PL AT 0
001485: 12,3376           20170                                    0          -9D,1
001486: 12,3377           53040                           BMN      BZE
001487: 12,3400           25464                                    NEGP
001488: 12,3401           25464                                    NEGP
001489: 12,3402           16734                           STODL    P                                     #  P=(1-CSTH)/(SNTH COGA-(CSTH-RHO)) (+4)
001490: 12,3403           02326                                    COGA
001491: 12,3404           43316                           DSQ      DAD
001492: 12,3405           33420                                    D1/1024
001493: 12,3406           41301                           NORM     DMP
001494: 12,3407           00047                                    X1
001495: 12,3410           02734                                    P
001496: 12,3411           44257                           SR*      BDSU
001497: 12,3412           20571                                    0          -8D,1
001498: 12,3413           33416                                    D1/32
001499: 12,3414           16736                           STODL    R1A                                   #  R1A=2-P(1+COGA COGA) (+6)
001500:
001501: 12,3415           02734                                    P
001502: 12,3416           45000                           BOV      CALL
001503: 12,3417           25467                                    HIENERGY
001504: 12,3420           25034                                    GETX
001505: 12,3421           77745                           DLOAD
001506: 12,3422           00037                                    T
001507: 12,3423           16756                           STODL    TPREV
001508: 12,3424           00031                                    XI
001509: 12,3425           45014                           BON      CALL
001510: 12,3426           04310                                    INFINFLG
001511: 12,3427           25464                                    NEGP                                  #  HAVE EXCEEDED THEORETICAL BOUNDS
001512: 12,3430           24464                                    DELTIME
001513: 12,3431           44200                           BOV      BDSU
001514: 12,3432           25503                                    BIGTIME
001515: 12,3433           02665                                    TDESIRED
001516: 12,3434           02754                           STORE    TERRLAMB
001517: 12,3435           44246                           ABS      BDSU
001518: 12,3436           02330                                    EPSILONL
001519: 12,3437           47044                           BPL      RTB
001520: 12,3440           25550                                    INITV
001521: 12,3441           24720                                    CHECKCTR
001522: 12,3442           43030                           BHIZ     BON
001523: 12,3443           25513                                    SUFFCHEK
001524: 12,3444           00714                                    SLOPESW
001525: 12,3445           25453                                    GOITER
001526: 12,3446           45345                           DLOAD    DSU
001527: 12,3447           00037                                    T
001528: 12,3450           02756                                    TPREV
001529: 12,3451           77654                           BZE
001530: 12,3452           25513                                    SUFFCHEK
001531: 12,3453           77624        GOITER             CALL
001532: 12,3454           24612                                    ITERATOR
001533: 12,3455           53145                           DLOAD    BZE
001534: 12,3456           00155                                    MPAC
001535: 12,3457           25513                                    SUFFCHEK
001536: 12,3460           77615                           DAD
001537: 12,3461           02326                                    COGA
001538: 12,3462           36326                           STCALL   COGA
001539: 12,3463           25366                                    LAMBLOOP
001540:
001541:
001542: 12,3464           51145        NEGP               DLOAD    BPL                                   #  IMPOSSIBLE TRAJECTORY DUE TO INACCURATE
001543: 12,3465           00015                                    DCOGA                                 #  BOUND CALCULATION. TRY NEW COGA.
001544: 12,3466           25506                                    LOENERGY
001545:
001546: 12,3467           71201        HIENERGY           SETPD    DLOAD                                 #  HIGH ENERGY TRAJECTORY RESULTED
001547: 12,3470           00001                                    0
001548: 12,3471           02326                                    COGA                                  #  IN OVFL OF P OR R1A, OR XI EXCEEDING 50.
001549: 12,3472           00011                           STORE    COGAMIN                               #  THIS IS THE NEW BOUND.
001550: 12,3473           70545        COMMONLM           DLOAD    SR1
001551: 12,3474           00015                                    DCOGA
001552: 12,3475           00015                           STORE    DCOGA                                 #  USE DCOGA/2 AS DECREMENT
001553: 12,3476           44254                           BZE      BDSU
001554: 12,3477           25513                                    SUFFCHEK
001555: 12,3500           02326                                    COGA
001556: 12,3501           36326                           STCALL   COGA
001557: 12,3502           25366                                    LAMBLOOP
001558:
001559:
001560: 12,3503           77745        BIGTIME            DLOAD
001561: 12,3504           02756                                    TPREV
001562: 12,3505           00037                           STORE    T
001563:
001564:
001565: 12,3506           71201        LOENERGY           SETPD    DLOAD                                 #  LOW ENERGY TRAJECTORY RESULTED
001566: 12,3507           00001                                    0
001567: 12,3510           02326                                    COGA                                  #  IN OVERFLOW OF TIME.
001568: 12,3511           34017                           STCALL   COGAMAX                               #  THIS IS THE NEW BOUND.
001569: 12,3512           25473                                    COMMONLM
001570:
001571:
001572: 12,3513           51545        SUFFCHEK           DLOAD    ABS
001573: 12,3514           02754                                    TERRLAMB
001574: 12,3515           41325                           PDDL     DMP                                   #                                PL AT 2D
001575: 12,3516           02665                                    TDESIRED
001576: 12,3517           33412                                    D1/4
001577: 12,3520           45215                           DAD      DSU                                   #                                PL AT 0D
001578: 12,3521           33432                                    ONEBIT
001579: 12,3522           43044                           BPL      SETGO
001580: 12,3523           25550                                    INITV
001581: 12,3524           02434                                    SOLNSW
001582: 12,3525           02704                                    RTNLAMB
001583:
001584:
001585: 12,3526           43001        360LAMB            SETPD    SETGO                                 #  LAMBERT CANNOT HANDLE CSTH=1
001586: 12,3527           00001                                    0
001587: 12,3530           02434                                    SOLNSW
001588: 12,3531           02704                                    RTNLAMB
001589:
001590:
001591: 12,3532           71331        NOGUESS            SSP      DLOAD
001592: 12,3533           00051                                    TWEEKIT
001593: 12,3534           10000                                    20000
001594: 12,3535           00011                                    COGAMIN
001595: 12,3536           65342                           SR1      PDDL                                  #                                PL AT 2
001596: 12,3537           00017                                    COGAMAX
001597: 12,3540           43342                           SR1      DAD
001598: 12,3541           77626                           STADR                                          #                                PL AT 0
001599: 12,3542           75451                           STORE    COGA
001600: 12,3543           34015                           STCALL   DCOGA
001601: 12,3544           25366                                    LAMBLOOP
001602: 12,3545           52145        LOLIM              DLOAD    GOTO
001603: 12,3546           33436                                    COGLOLIM                              #  COGLOLIM=-.999511597
001604: 12,3547           25356                                    MINCOGA
001605:
001606:
001607: 12,3550           60345        INITV              DLOAD    NORM
001608: 12,3551           00041                                    R1
001609: 12,3552           00047                                    X1
001610: 12,3553           70525                           PDDL     SR1                                   #                                PL AT 2
001611: 12,3554           02734                                    P
001612: 12,3555           77671                           DDV                                            #                                PL AT 0
001613: 12,3556           75457                           SL*      SQRT
001614: 12,3557           20175                                    0          -4,1
001615: 12,3560           72405                           DMP      SL1
001616: 12,3561           00021                                    ROOTMU
001617: 12,3562           41206                           PUSH     DMP                                   #  0D=VTAN (+7)                  PL AT 2
001618: 12,3563           02326                                    COGA
001619: 12,3564           74261                           SL       VXSC
001620: 12,3565           20206                                    5
001621: 12,3566           02716                                    UR1
001622: 12,3567           77725                           PDDL                                           #  XCH WITH 0D                   PL AT 0,6
001623: 12,3570           76561                           VXSC     VSL1
001624: 12,3571           02670                                    UN
001625: 12,3572           53235                           VXV      VAD                                   #                                PL AT 0
001626: 12,3573           02716                                    UR1
001627: 12,3574           43172                           VSL1     CLEAR
001628: 12,3575           02674                                    SOLNSW
001629: 12,3576           02740                           STORE    VVEC
001630: 12,3577           53135                           SLOAD    BZE
001631: 12,3600           02676                                    VTARGTAG
001632: 12,3601           25604                                    TARGETV
001633: 12,3602           77650                           GOTO
001634: 12,3603           02704                                    RTNLAMB
001635:
001636:
001637: 12,3604           45145        TARGETV            DLOAD    CALL
001638: 12,3605           02714                                    MAGVEC2
001639: 12,3606           24753                                    LAMENTER
001640: 12,3607           36677                           STCALL   VTARGET
001641: 12,3610           02704                                    RTNLAMB
001642:
001643: 12,3611           45020        TIMERAD            STQ      CALL
001644: 12,3612           02704                                    RTNTR
001645: 12,3613           25765                                    PRAMSET
001646: 12,3614           77624                           CALL
001647: 12,3615           22656                                    PARAM
001648: 12,3616           71200                           BOV      DLOAD                                 #                                PL AT 0
001649: 12,3617           25031                                    COGAOVFL
001650: 12,3620           33416                                    D1/32
001651: 12,3621           41225                           DSU      DMP
001652: 12,3622           02736                                    R1A
001653: 12,3623           02734                                    P
001654: 12,3624           41366                           SQRT     DMP
001655: 12,3625           02326                                    COGA
001656: 12,3626           74212                           SL4      VXSC
001657: 12,3627           02706                                    U2
001658: 12,3630           45325                           PDDL     DSU                                   #                                PL AT 6
001659: 12,3631           33410                                    D1/64
001660: 12,3632           02736                                    R1A
001661: 12,3633           52361                           VXSC     VSU                                   #                                PL AT 0
001662: 12,3634           02716                                    UR1
001663: 12,3635           53512                           VSL4     UNIT
001664: 12,3636           77600                           BOV
001665: 12,3637           25715                                    CIRCULAR
001666: 12,3640           60325                           PDDL     NORM                                  #  0D=UNIT(ECC) (+3)             PL AT 6
001667: 12,3641           02752                                    RDESIRED                              #  36D=ECC (+3)
001668: 12,3642           00047                                    X1
001669: 12,3643           41325                           PDDL     DMP                                   #                                PL AT 8
001670: 12,3644           00041                                    R1
001671: 12,3645           02734                                    P
001672: 12,3646           56257                           SL*      DDV                                   #                                PL AT 6
001673: 12,3647           20201                                    0,1
001674: 12,3650           56225                           DSU      DDV
001675: 12,3651           33414                                    D1/16
001676: 12,3652           00045                                    36D                                   #  36D=ECC (+3)
001677: 12,3653           00031                           STORE    COSF
001678: 12,3654           63400                           BOV      DSQ
001679: 12,3655           20333                                    BADR2
001680: 12,3656           50021                           BDSU     BMN
001681: 12,3657           33412                                    D1/4
001682: 12,3660           20333                                    BADR2
001683: 12,3661           75366                           SQRT     SIGN
001684: 12,3662           02751                                    SGNRDOT
001685: 12,3663           77614                           CLEAR
001686: 12,3664           04272                                    APSESW
001687:
001688: 12,3665           76561        TERMNVEC           VXSC     VSL1
001689: 12,3666           02670                                    UN
001690: 12,3667           63235                           VXV      PDVL                                  #  VXCH WITH 0D                  PL AT 0,6
001691: 12,3670           00001                                    0D
001692: 12,3671           53361                           VXSC     VAD                                   #                                PL AT 0
001693: 12,3672           00031                                    COSF
001694: 12,3673           41572                           VSL1     PUSH                                  #  0D=U2                         PL AT 6
001695:
001696: 12,3674           56241                           DOT      DDV                                   #  LIMITS RESULT TO POSMAX OR NEGMAX
001697: 12,3675           02716                                    UR1
001698: 12,3676           33412                                    DP1/4
001699: 12,3677           40142                           SR1      BOV                                   #  SCALE BACK DOWN TO NORMAL
001700: 12,3700           25701                                    +1                                    #  CLEAR OVFIND IF SET
001701: 12,3701           26726                           STOVL    CSTH                                  #  CSTH (+1)
001702: 12,3702           02716                                    UR1
001703: 12,3703           76435                           VXV      VSL1
001704: 12,3704           72441                           DOT      SL1
001705: 12,3705           02670                                    UN
001706: 12,3706           16724                           STODL    SNTH                                  #  SNTH (+1)
001707: 12,3707           02734                                    P
001708: 12,3710           77624                           CALL
001709: 12,3711           25034                                    GETX
001710: 12,3712           77614                           CLRGO
001711: 12,3713           02634                                    SOLNSW
001712: 12,3714           25014                                    COMMNOUT
001713:
001714:
001715: 12,3715           43001        CIRCULAR           SETPD    SETGO
001716: 12,3716           00001                                    0
001717: 12,3717           02434                                    SOLNSW
001718: 12,3720           25762                                    ABTCONIC
001719:
001720:
001721: 10,2000                                           SETLOC   CONICS5
001722: 10,2000                                           BANK
001723:
001724: 10,2333                                           COUNT*   $$/CONIC
001725: 10,2333           75345        BADR2              DLOAD    SIGN
001726: 10,2334           15724                                    LODPHALF
001727: 10,2335           00031                                    COSF
001728: 10,2336           14031                           STODL    COSF
001729: 10,2337           15726                                    KEPZERO
001730: 10,2340           77614                           SETGO
001731: 10,2341           04032                                    APSESW
001732: 10,2342           25665                                    TERMNVEC
001733:
001734: 12,2000                                           SETLOC   CONICS
001735: 12,2000                                           BANK
001736:
001737: 12,3721                                           COUNT*   $$/CONIC
001738: 12,3721           45020        APSIDES            STQ      CALL
001739: 12,3722           02704                                    RTNAPSE
001740: 12,3723           25765                                    PRAMSET
001741: 12,3724           77624                           CALL
001742: 12,3725           22656                                    PARAM
001743: 12,3726           77600                           BOV                                            #                                PL AT 0
001744: 12,3727           25730                                    GETECC
001745: 12,3730           42405        GETECC             DMP      SL4
001746: 12,3731           02736                                    R1A
001747: 12,3732           75421                           BDSU     SQRT
001748: 12,3733           33410                                    D1/64
001749: 12,3734           02746                           STORE    ECC
001750: 12,3735           65215                           DAD      PDDL                                  #                                PL AT 2
001751: 12,3736           33404                                    D1/8
001752: 12,3737           00041                                    R1
001753: 12,3740           72405                           DMP      SL1
001754: 12,3741           02734                                    P
001755: 12,3742           77671                           DDV                                            #                                PL AT 0
001756: 12,3743           60325                           PDDL     NORM                                  #  0D=RP (+29 OR +27)            PL AT 2
001757: 12,3744           02736                                    R1A
001758: 12,3745           00047                                    X1
001759: 12,3746           53725                           PDDL     SL*                                   #                                PL AT 4
001760: 12,3747           00041                                    R1
001761: 12,3750           20174                                    0          -5,1
001762: 12,3751           45271                           DDV      DSU                                   #                                PL AT 2,0
001763: 12,3752           50000                           BOV      BMN
001764: 12,3753           25757                                    INFINAPO
001765: 12,3754           25757                                    INFINAPO
001766: 12,3755           77650                           GOTO
001767: 12,3756           02704                                    RTNAPSE
001768: 12,3757           52145        INFINAPO           DLOAD    GOTO                                  #  RETURNS WITH APOAPSIS IN MPAC,PERIAPSIS
001769: 12,3760           15737                                    LDPOSMAX
001770: 12,3761           02704                                    RTNAPSE                               #  THAT PL IS AT 0.
001771:
001772: 12,3762           77776        ABTCONIC           EXIT
001773: 12,3763           05701                           TC       POODOO
001774: 12,3764           20607                           OCT      20607                                 #  NO SOLUTION FROM TIMETHET OR TIMERAD
001775:
001776: 12,3765           40001        PRAMSET            SETPD    BOV
001777: 12,3766           00001                                    0D
001778: 12,3767           25770                                    +1
001779: 12,3770           63375                           VLOAD    PDVL
001780: 12,3771           02651                                    RVEC
001781: 12,3772           02740                                    VVEC
001782: 12,3773           77616                           RVQ
001783:
001784: 11,2000                                           SETLOC   CONICS3
001785: 11,2000                                           BANK
001786:
001787: 11,2721                                           COUNT*   $$/CONIC
001788: 11,2721           22437 16067  MUTABLE            2DEC*    3.986032   E10        B-36*           #  MUE
001789: 11,2723           15625 21042                     2DEC*    .25087606  E-10       B+34*           #  1/MUE
001790: 11,2725           30276 04773                     2DEC*    1.99650495 E5         B-18*           #  SQRT(MUE)
001791: 11,2727           25004 06702                     2DEC*    .50087529  E-5        B+17*           #  1/SQRT(MUE)
001792:
001793: 11,2731  06,3736               LDPOSMAX           EQUALS   LODPMAX                               #  DPPOSMAX IN LOW MEMORY.
001794:
001795:                                                                                                  #  ERASABLE ASSIGNMENTS
001796:
001797:
001798:                                                                                                  #  KEPLER SUBROUTINE
001799:
001800:                                                                                                  #     INPUT -
001801:                                                                                                  #  RRECT         ERASE   +5
001802:                                                                                                  #  VRECT         ERASE   +5
001803:                                                                                                  #  TAU.          ERASE   +1
001804:                                                                                                  #  XKEP          ERASE   +1
001805:                                                                                                  #  TC            ERASE   +1
001806:                                                                                                  #  XPREV         ERASE   +1
001807: 11,2731                        1/MU               EQUALS   14D
001808: 11,2731                        ROOTMU             EQUALS   16D
001809: 11,2731                        1/ROOTMU           EQUALS   18D
001810:
001811:                                                                                                  #     OUTPUT -
001812:                                                                                                  #  RCV           ERASE   +5
001813:                                                                                                  #  VCV           ERASE   +5
001814:                                                                                                  #  RC            ERASE   +1
001815:                                                                                                  #  XPREV         ERASE   +1
001816:
001817:                                                                                                  #  DEBRIS -
001818: 11,2731                        ALPHA              EQUALS   8D
001819: 11,2731                        XMAX               EQUALS   10D
001820: 11,2731                        XMIN               EQUALS   12D
001821: 11,2731                        X                  EQUALS   20D
001822: 11,2731                        XI                 EQUALS   24D
001823: 11,2731                        S(XI)              EQUALS   26D
001824: 11,2731                        XSQC(XI)           EQUALS   28D
001825: 11,2731                        T                  EQUALS   30D
001826: 11,2731                        R1                 EQUALS   32D
001827: 11,2731                        KEPC1              EQUALS   34D
001828: 11,2731                        KEPC2              EQUALS   36D
001829:                                                                                                  #  DELX          ERASE   +1
001830:                                                                                                  #  DELT          ERASE   +1
001831:                                                                                                  #  URRECT        ERASE   +5
001832:                                                                                                  #  RCNORM        ERASE   +1
001833:                                                                                                  #  XPREV         EQUALS  XKEP
001834:
001835:
001836:                                                                                                  #  LAMBERT SUBROUTINE
001837:
001838:                                                                                                  #     INPUT -
001839:                                                                                                  #  R1VEC         ERASE   +5
001840:                                                                                                  #  R2VEC         ERASE   +5
001841:                                                                                                  #  TDESIRED      ERASE   +1
001842:                                                                                                  #  GEOMSGN       ERASE   +0
001843:                                                                                                  #  GUESSW                                0 IF COGA GUESS AVAILABLE, 1 IF NOT
001844:                                                                                                  #  COGA          ERASE   +1              INPUT ONLY IF GUESSW IS ZERO.
001845:                                                                                                  #  NORMSW                                0 IF UN TO BE COMPUTED, 1 IF UN INPUT
001846:                                                                                                  #  UN            ERASE   +5              ONLY USED IF NORMSW IS 1
001847:                                                                                                  #  VTARGTAG      ERASE   +0
001848:                                                                                                  #  TWEEKIT       EQUALS  40D             ONLY USED IF GUESSW IS 0
001849:
001850:                                                                                                  #     OUTPUT -
001851:                                                                                                  #  VTARGET       ERASE   +5              AVAILABLE ONLY IF VTARGTAG IS ZERO.
001852:                                                                                                  #  V1VEC         EQUALS  MPAC
001853:
001854:                                                                                                  #     DEBRIS -
001855:                                                                                                  #  RTNLAMB       ERASE   +0
001856:                                                                                                  #  U2            ERASE   +5
001857:                                                                                                  #  MAGVEC2       ERASE   +1
001858:                                                                                                  #  UR1           ERASE   +5
001859:                                                                                                  #  R1            EQUALS  31D
001860:                                                                                                  #  UN            ERASE   +5
001861:                                                                                                  #  SNTH          ERASE   +1
001862:                                                                                                  #  CSTH          ERASE   +1
001863:                                                                                                  #  1-CSTH        ERASE   +1
001864:                                                                                                  #  CSTH-RHO      ERASE   +1
001865: 11,2731                        COGAMAX            EQUALS   14D                                   #  CLOBBERS 1/MU
001866: 11,2731                        COGAMIN            EQUALS   8D
001867: 11,2731                        DCOGA              EQUALS   12D
001868:                                                                                                  #  TWEEKIT       EQUALS  40D
001869:                                                                                                  #  P             ERASE   +1
001870:                                                                                                  #  COGA          ERASE   +1
001871:                                                                                                  #  R1A           ERASE   +1
001872:                                                                                                  #  X             EQUALS  20D
001873:                                                                                                  #  XSQ           EQUALS  22D
001874:                                                                                                  #  XI            EQUALS  24D
001875:                                                                                                  #  S(XI)         EQUALS  26D
001876:                                                                                                  #  XSQC(XI)      EQUALS  28D
001877:                                                                                                  #  T             EQUALS  30D
001878:                                                                                                  #  KEPC1         EQUALS  34D
001879:                                                                                                  #  KEPC2         EQUALS  36D
001880:                                                                                                  #  SLOPESW
001881:                                                                                                  #  SOLNSW
001882:
001883:                                                                                                  #  OTHERS -
001884:
001885:                                                                                                  #  RVEC          EQUALS  R1VEC
001886:                                                                                                  #  VVEC          ERASE   +5
001887:                                                                                                  #  COGAFLAG
001888:                                                                                                  #  RVSW
001889:                                                                                                  #  INFINFLG
001890:                                                                                                  #  APSESW
001891:                                                                                                  #  360SW
001892:                                                                                                  #  RTNTT         EQUALS  RTNLAMB
001893:                                                                                                  #  ECC           ERASE   +1
001894:                                                                                                  #  RTNTR         EQUALS  RTNLAMB
001895:                                                                                                  #  RTNAPSE       EQUALS  RTNLAMB
001896:                                                                                                  #  R2            EQUALS  MAGVEC2
001897: 11,2731                        COSF               EQUALS   24D
001898:                                                                                                  #  RTNPRM        ERASE   +0
001899:                                                                                                  #  SGNRDOT       ERASE   +0
001900:                                                                                                  #  RDESIRED      ERASE   +1
001901:
001902:
001903:                                                                                                  #  ITERATOR SUBROUTINE
001904:
001905:                                                                                                  #  ORDERSW
001906: 11,2731                        MAX                EQUALS   14D                                   #  CLOBBERS 1/MU
001907: 11,2731                        MIN                EQUALS   8D
001908:                                                                                                  #  INDEP         ERASE   +1
001909: 11,2731                        DELINDEP           EQUALS   12D
001910: 11,2731                        ITERCTR            EQUALS   22D
001911: 11,2731                        DEP                EQUALS   30D
001912:                                                                                                  #  DELDEP        ERASE   +1
001913:                                                                                                  #  DEPREV        ERASE   +1
001914: 11,2731                        TWEEKIT            EQUALS   40D
001915:
001916:
001917:                                                                                                  #  MORE KEPLER
001918:
001919:                                                                                                  #  EPSILONT      ERASE   +1
001920:
001921:
001922:                                                                                                  #  MORE LAMBERT
001923:
001924:                                                                                                  #  TERRLAMB      EQUALS  DELDEP
001925:                                                                                                  #  TPREV         EQUALS  DEPREV
001926:
001927:                                                                                                  #  EPSILONL      EQUALS  EPSILONT +2     DOUBLE PRECISION WORD

End of include-file CONIC_SUBROUTINES.agc.  Parent file is MAIN.agc


