
Source Code


000002:                                                                                                  ## Copyright:   Public domain.
000003:                                                                                                  ## Filename:    CSM_GEOMETRY.agc
000004:                                                                                                  ## Purpose:     A section of Skylark revision 048.
000005:                                                                                                  ##              It is part of the source code for the Apollo Guidance Computer (AGC)
000006:                                                                                                  ##              for Skylab-2, Skylab-3, Skylab-4, and ASTP. No original listings of
000007:                                                                                                  ##              this software are available; instead, this file was created via
000008:                                                                                                  ##              disassembly of dumps of the core rope modules actually flown on
000009:                                                                                                  ##              Skylab-2. Access to these modules was provided by the New Mexico
000010:                                                                                                  ##              Museum of Space History.
000011:                                                                                                  ## Assembler:   yaYUL
000012:                                                                                                  ## Contact:     Ron Burkey <info@sandroid.org>.
000013:                                                                                                  ## Website:     www.ibiblio.org/apollo/index.html
000014:                                                                                                  ## Mod history: 2023-09-04 MAS  Created from Artemis 072.
000015:                                                                                                  ##              2024-02-27 MAS  Updated for Skylark 48.
000016:
000017:
000018: 23,2000                                           SETLOC   COMGEOM1
000019: 23,2000                                           BANK
000020:
000021:                                                                                                  #  THIS ROUTINE TAKES THE SHAFT AND TRUNNION ANGLES AS READ BY THE CM OPTICAL SYSTEM AND CONVERTS THEM INTO A UNIT
000022:                                                                                                  #  VECTOR REFERENCED TO THE NAVIGATION BASE COORDINATE SYSTEM AND COINCIDENT WITH THE SEXTANT LINE OF SIGHT.
000023:
000024:                                                                                                  #  THE INPUTS ARE  1) THE SEXTANT SHAFT AND TRUNNION ANGLES ARE STORED SP IN LOCATIONS 3 AND 5 RESPECTIVELY OF THE
000025:                                                                                                  #  MARK VAC AREA.  2) THE COMPLEMENT OF THE BASE ADDRESS OF THE MARK VAC AREA IS STORED SP AT LOCATION X1 OF YOUR
000026:                                                                                                  #  JOB VAC AREA.
000027:
000028:                                                                                                  #  THE OUTPUT IS A HALF-UNIT VECTOR IN NAVIGATION BASE COORDINATES AND STORED AT LOCATION 32D OF THE VAC AREA. THE
000029:                                                                                                  #  OUTPUT IS ALSO AVAILABLE AT MPAC.
000030:
000031: 23,2000                                           COUNT*   $$/GEOM
000032: 23,2000           47133        SXTNB              SLOAD*   RTB                                   #  PUSHDOWN 00,02,04,(17D-19D),32D-36D
000033: 23,2001           00006                                    5,1                                   #  TRUNNION = TA
000034: 23,2002           45566                                    CDULOGIC
000035: 23,2003           41434                           RTB      PUSH
000036: 23,2004           46027                                    SXTLOGIC
000037: 23,2005           72556                           SIN      SL1
000038: 23,2006           66606                           PUSH     SLOAD*                                #  PD2 = SIN(TA)
000039: 23,2007           00004                                    3,1                                   #  SHAFT = SA
000040: 23,2010           41434                           RTB      PUSH                                  #  PD4 = SA
000041: 23,2011           45566                                    CDULOGIC
000042:
000043: 23,2012           41346                           COS      DMP
000044: 23,2013           00003                                    2
000045: 23,2014           14041                           STODL    STARM                                 #  COS(SA)SIN(TA)
000046:
000047: 23,2015           41356                           SIN      DMP
000048: 23,2016           77626                           STADR
000049: 23,2017           63734                           STODL    STARM      +2                         #  SIN(SA)SIN(TA)
000050:
000051: 23,2020           77746                           COS
000052: 23,2021           24045                           STOVL    STARM      +4
000053: 23,2022           00041                                    STARM                                 #  STARM = 32D
000054: 23,2023           76521                           MXV      VSL1
000055: 23,2024           06300                                    NB1NB2
000056: 23,2025           00041                           STORE    32D
000057: 23,2026           77616                           RVQ
000058:
000059: 23,2027           32321        SXTLOGIC           CAF      10DEGS-                               #  CORRECT FOR 19.775 DEGREE OFFSET
000060: 23,2030           26154                           ADS      MPAC
000061: 23,2031           34765                           CAF      QUARTER
000062: 23,2032           07256                           TC       SHORTMP
000063: 23,2033           06030                           TC       DANZIG
000064:
000065:
000066:                                                                                                  #  CALCSXA COMPUTES THE SEXTANT SHAFT AND TRUNNION ANGLES REQUIRED TO POSITION THE OPTICS SUCH THAT A STAR LINE-
000067:                                                                                                  #  OF-SIGHT LIES ALONG THE STAR VECTOR. THE ROUTINE TAKES THE GIVEN STAR VECTOR AND EXPRESSES IT AS A VECTOR REF-
000068:                                                                                                  #  ERENCED TO THE OPTICS COORDINATE SYSTEM. IN ADDITION IT SETS UP THREE UNIT VECTORS DEFINING THE X, Y, AND Z AXES
000069:                                                                                                  #  REFERENCED TO THE OPTICS COORDINATE SYSTEM.
000070:
000071:                                                                                                  #  THE INPUTS ARE  1) THE STAR VECTOR REFERRED TO PRESENT STABLE MEMBER COORDINATES STORED AT STAR.  2) SAME ANGLE
000072:                                                                                                  #  INPUT AS *SMNB*, I.E. SINES AND COSINES OF THE CDU ANGLES, IN THE ORDER Y Z X, AT SINCDU AND COSCDU.  A CALL
000073:                                                                                                  #  TO CDUTRIG WILL PROVIDE THIS INPUT.
000074:
000075:                                                                                                  #  THE OUTPUTS ARE THE SEXTANT SHAFT AND TRUNNION ANGLES STORED DP AT SAC AND PAC RESPECTIVELY.  (LOW ORDER PART
000076:                                                                                                  #  EQUAL TO ZERO).
000077:
000078: 23,2034           77220        CALCSXA            ITA      VLOAD                                 #  PUSHDOWN 00-26D,28D,30D,32D-36D
000079: 23,2035           00034                                    28D
000080: 23,2036           02766                                    STAR
000081: 23,2037           77624                           CALL
000082: 23,2040           47623                                    *SMNB*
000083: 23,2041           76521                           MXV      VSL1
000084: 23,2042           06256                                    NB2NB1
000085: 23,2043           26766                           STOVL    STAR
000086: 23,2044           15202                                    HIUNITX
000087: 23,2045           26555                           STOVL    XNB1
000088: 23,2046           15200                                    HIUNITY
000089: 23,2047           26563                           STOVL    YNB1
000090: 23,2050           15176                                    HIUNITZ
000091: 23,2051           36571                           STCALL   ZNB1
000092: 23,2052           46076                                    SXTANG1
000093:
000094:
000095:                                                                                                  #  SXTANG COMPUTES THE SEXTANT SHAFT AND TRUNNION ANGLES REQUIRED TO POSITION THE OPTICS SUCH THAT A STAR LINE-OF-
000096:                                                                                                  #  SIGHT LIES ALONG THE STAR VECTOR.
000097:
000098:                                                                                                  #  THE INPUTS ARE  1) THE STAR VECTOR REFERRED TO ANY COORDINATE SYSTEM STORED AT STAR.  2) THE NAVIGATION BASE
000099:                                                                                                  #  COORDINATES REFERRED TO THE SAME COORDINATE SYSTEM. THESE THREE HALF-UNIT VECTORS ARE STORED AT XNB, YNB, AND
000100:                                                                                                  #  ZNB.
000101:
000102:                                                                                                  #  THE OUTPUTS ARE THE SEXTANT SHAFT AND TRUNNION ANGLES STORED DP AT SAC AND PAC RESPECTIVELY.  (LOW ORDER PART
000103:                                                                                                  #  EQUAL TO ZERO).
000104:
000105: 23,2053           47020        SXTANG             ITA      RTB                                   #  PUSHDOWN 16D,18D,22D-26D,28D
000106: 23,2054           00034                                    28D
000107: 23,2055           45712                                    TRANSP1                               #  EREF WRT NB2
000108: 23,2056           64375                           VLOAD    MXV
000109: 23,2057           02703                                    XNB
000110: 23,2060           06256                                    NB2NB1
000111: 23,2061           77772                           VSL1
000112: 23,2062           26555                           STOVL    XNB1
000113: 23,2063           02711                                    YNB
000114: 23,2064           76521                           MXV      VSL1
000115: 23,2065           06256                                    NB2NB1
000116: 23,2066           26563                           STOVL    YNB1
000117: 23,2067           02717                                    ZNB
000118: 23,2070           76521                           MXV      VSL1
000119: 23,2071           06256                                    NB2NB1
000120: 23,2072           02571                           STORE    ZNB1
000121:
000122: 23,2073           47034                           RTB      RTB
000123: 23,2074           45712                                    TRANSP1
000124: 23,2075           45726                                    TRANSP2
000125:
000126: 23,2076           47375        SXTANG1            VLOAD    VXV
000127: 23,2077           02571                                    ZNB1
000128: 23,2100           02766                                    STAR
000129: 23,2101           77600                           BOV
000130: 23,2102           46103                                    +1
000131: 23,2103           40056                           UNIT     BOV
000132: 23,2104           46145                                    ZNB=S1
000133: 23,2105           00027                           STORE    PDA                                   #  PDA = UNIT(ZNB X S)
000134:
000135: 23,2106           57441                           DOT      DCOMP
000136: 23,2107           02555                                    XNB1
000137: 23,2110           24023                           STOVL    SINTH                                 #  SIN(SA) = PDA . -XNB
000138: 23,2111           00027                                    PDA
000139:
000140: 23,2112           77641                           DOT
000141: 23,2113           02563                                    YNB1
000142: 23,2114           34021                           STCALL   COSTH                                 #  COS(SA) = PDA . YNB
000143: 23,2115           47250                                    ARCTRIG
000144: 23,2116           77634                           RTB
000145: 23,2117           45621                                    1STO2S
000146: 23,2120           26774                           STOVL    SAC
000147: 23,2121           02766                                    STAR
000148: 23,2122           77600                           BOV
000149: 23,2123           46124                                    +1
000150: 23,2124           72441                           DOT      SL1
000151: 23,2125           02571                                    ZNB1
000152: 23,2126           77726                           ACOS
000153: 23,2127           62440                           BMN      SL2
000154: 23,2130           46142                                    SXTALARM                              #  TRUNNION ANGLE NEGATIVE
000155: 23,2131           45200                           BOV      DSU
000156: 23,2132           46142                                    SXTALARM                              #  TRUNNION ANGLE GREATER THAN 90 DEGREES
000157: 23,2133           06327                                    20DEG-
000158: 23,2134           77634                           RTB
000159: 23,2135           45621                                    1STO2S
000160: 23,2136           02776                           STORE    PAC                                   #  FOR FLIGHT USE, CULTFLAG IS ON IF
000161: 23,2137           77614                           CLRGO                                          #  TRUNION IS GREATER THAN 90 DEG
000162: 23,2140           01630                                    CULTFLAG
000163: 23,2141           00034                                    28D
000164: 23,2142           77614        SXTALARM           SETGO                                          #  ALARM HAS BEEN REMOVED FROM THIS
000165: 23,2143           01430                                    CULTFLAG
000166: 23,2144           00034                                    28D                                   #  SUBROUTINE, ALARM WILL BE SET BY MPI
000167: 23,2145           77745        ZNB=S1             DLOAD
000168: 23,2146           06323                                    270DEG
000169: 23,2147           16774                           STODL    SAC
000170: 23,2150           06325                                    20DEGS-
000171: 23,2151           02776                           STORE    PAC
000172: 23,2152           77614                           CLRGO
000173: 23,2153           01630                                    CULTFLAG
000174: 23,2154           00034                                    28D
000175:
000176:
000177:                                                                                                  #  THESE TWO ROUTINES COMPUTE THE ACTUAL STATE VECTOR FOR LM, CSM BY ADDING
000178:                                                                                                  #  THE CONIC R,V AND THE DEVIATIONS R,V.  THE STATE VECTORS ARE CONVERTED TO
000179:                                                                                                  #  METERS B-29 AND METERS/CSEC B-7 AND STORED APPROPRIATELY IN RN,VN OR
000180:                                                                                                  #  R-OTHER , V-OTHER FOR DOWNLINK. THE ROUTINES NAMES ARE SWITCHED IN THE
000181:                                                                                                  #  OTHER VEHICLES COMPUTER.
000182:
000183:                                                                                                  #  INPUT
000184:                                                                                                  #        STATE VECTOR IN TEMPORARY STORAGE AREA
000185:
000186:                                                                                                  #  OUTPUT
000187:                                                                                                  #        R(T) IN RN, V(T) IN VN, T IN PIPTIME
000188:                                                                                                  #  OR
000189:                                                                                                  #        R(T) IN R-OTHER, V(T) IN V-OTHER        (T IS DEFINED BY T-OTHER)
000190:
000191: 10,2000                                           SETLOC   COMGEOM2
000192: 10,2000                                           BANK
000193: 10,2226                                           COUNT*   $$/GEOM
000194: 10,2226           43414        SVDWN1             BOF      RVQ                                   #  SW=1=AVETOMID DOING W-MATRIX INTEG
000195: 10,2227           04756                                    AVEMIDSW
000196: 10,2230           20231                                    +1
000197: 10,2231           44575                           VLOAD    VSR7
000198: 10,2232           01521                                    TDELTAV
000199: 10,2233           77655                           VAD
000200: 10,2234           01535                                    RCV
000201: 10,2235           25022                           STOVL    RN
000202: 10,2236           01527                                    TNUV
000203: 10,2237           53302                           VSR4     VAD
000204: 10,2240           01543                                    VCV
000205: 10,2241           15030                           STODL    VN
000206: 10,2242           01517                                    TET
000207: 10,2243           01036                           STORE    PIPTIME
000208: 10,2244           77616                           RVQ
000209:
000210: 10,2245           44575        SVDWN2             VLOAD    VSR7
000211: 10,2246           01521                                    TDELTAV
000212: 10,2247           77655                           VAD
000213: 10,2250           01535                                    RCV
000214: 10,2251           25704                           STOVL    R-OTHER
000215: 10,2252           01527                                    TNUV
000216: 10,2253           53302                           VSR4     VAD
000217: 10,2254           01543                                    VCV
000218: 10,2255           01712                           STORE    V-OTHER
000219: 10,2256           77616                           RVQ
000220:
000221:
000222:                                                                                                  #  SUBROUTINE TO COMPUTE THE NATURAL LOG OF C(MPAC, MPAC +1).
000223:
000224:                                                                                                  #        ENTRY:  CALL
000225:                                                                                                  #                        LOG
000226:
000227:                                                                                                  #  SUBROUTINE RETURNS WITH -LOG IN DP MPAC.
000228:
000229:                                                                                                  #  EBANK IS ARBITRARY..
000230:
000231: 23,2000                                           SETLOC   POWFLIT2
000232: 23,2000                                           BANK
000233: 23,2155                                           COUNT*   $$/GEOM
000234: 23,2155           44301        LOG                NORM     BDSU                                  #  GENERATES LOG BY SHIFTING ARG
000235: 23,2156           00160                                    MPAC       +3                         #  UNTIL IT LIES BETWEEN .5 AND 1.
000236: 23,2157           15212                                    NEARLY1                               #  THE LOG OF THIS PART IS FOUND AND THE
000237: 23,2160           77776                           EXIT                                           #  LOG OF THE SHIFTED PART IS COMPUTED
000238:
000239: 23,2161           07171                           TC       POLY                                  #  AND ADDED IN. SHIFT COUNT STORED
000240:
000241: 23,2162           00002                           DEC      2          B-14                       #  (N-1, SUPPLIED BY SMERZH)
000242: 23,2163           00000 00000                     2DEC     0          B-28                       #  IN MPAC +3.
000243: 23,2165           01001 14636                     2DEC     .031335467
000244: 23,2167           00325 07310                     2DEC     .0130145859
000245: 23,2171           00541 16735                     2DEC     .0215738898
000246:
000247: 23,2173           35003                           CAF      ZERO
000248: 23,2174           54156                           TS       MPAC       +2
000249: 23,2175           00006                           EXTEND
000250: 23,2176           32212                           DCA      CLOG2/32
000251: 23,2177           52155                           DXCH     MPAC
000252: 23,2200           52160                           DXCH     MPAC       +3
000253: 23,2201           40000                           COM                                            #  LOAD POSITIVE SHIFT COUNT IN A.
000254: 23,2202           07256                           TC       SHORTMP                               #  MULTIPLY BY SHIFT COUNT.
000255:
000256: 23,2203           52156                           DXCH     MPAC       +1
000257: 23,2204           52155                           DXCH     MPAC
000258: 23,2205           52160                           DXCH     MPAC       +3
000259: 23,2206           20155                           DAS      MPAC
000260: 23,2207           06006                           TC       INTPRET                               #  RESULT IN MPAC, MPAC +1
000261:
000262: 23,2210           77616                           RVQ
000263:
000264: 23,2211  26,3211               NEARLY1            =        NEARONE
000265: 23,2211           00542 34414  CLOG2/32           2DEC     .0216608494
000266:
000267:
000268:                                                                                                  #  SUBROUTINE NAME:  EARTH ROTATOR       (EARROT1 OR EARROT2)            DATE:  15 FEB 67
000269:                                                                                                  #  MOD NO:  N +1                                                         LOG SECTION:  POWERED FLIGHT SUBROS
000270:                                                                                                  #  MOD BY:  ENTRY GROUP (BAIRNSFATHER)
000271:
000272:                                                                                                  #  FUNCTIONAL DESCRIPTION:  THIS ROUTINE PROJECTS THE INITIAL EARTH TARGET VECTOR   RTINIT   AHEAD THROUGH
000273:                                                                                                  #        THE ESTIMATED TIME OF FLIGHT. INITIAL CALL RESOLVES THE INITIAL TARGET VECTOR   RTINIT   INTO EASTERLY
000274:                                                                                                  #        AND NORMAL COMPONENTS   RTEAST   AND   RTNORM   . INITIAL AND SUBSEQUENT CALLS ROTATE THIS VECTOR
000275:                                                                                                  #        ABOUT THE (FULL) UNIT POLAR AXIS   UNITW   THROUGH THE ANGLE   WIE DTEAROT   TO OBTAIN THE ROTATED
000276:                                                                                                  #        TARGET VECTOR   RT   . ALL VECTORS EXCEPT   UNITW   ARE HALF UNIT.
000277:                                                                                                  #        THE EQUATIONS ARE
000278:                                                                                                  #                -    -        -                      -
000279:                                                                                                  #                RT = RTINIT + RTNORM (COS(WT) - 1) + RTEAST SIN(WT)
000280:
000281:                                                                                                  #        WHERE   WT = WIE DTEAROT
000282:
000283:                                                                                                  #                RTINIT = INITIAL TARGET VECTOR
000284:                                                                                                  #                -        -       -
000285:                                                                                                  #                RTEAST = UNITW * RTINIT
000286:                                                                                                  #                -        -        -
000287:                                                                                                  #                RTNORM = RTEAST * UNITW
000288:
000289:                                                                                                  #        FOR CONTINUOUS UPDATING, ONLY ONE ENTRY TO EARROT1 IS REQUIRED, WITH SUBSEQUENT ENTRIES AT EARROT2.
000290:
000291:                                                                                                  #  CALLING SEQUENCE:     FIRST CALL                      SUBSEQUENT CALL
000292:                                                                                                  #                        STCALL  DTEAROT                 STCALL  DTEAROT
000293:                                                                                                  #                                EARROT1                         EARROT2
000294:                                                                                                  #                        C(MPAC) UNSPECIFIED             C(MPAC) = DTEAROT
000295:                                                                                                  #        PUSHLOC = PDL+0, ARBITRARY.  6 LOCATIONS USED.
000296:
000297:                                                                                                  #  SUBROUTINES USED:  NONE
000298:
000299:                                                                                                  #  NORMAL EXIT MODES:  RVQ
000300:
000301:                                                                                                  #  ALARMS:  NONE
000302:
000303:                                                                                                  #  OUTPUT:       RTEAST  (-1)            .5 UNIT VECTOR EAST, COMPNT OF RTINIT   LEFT BY FIRST CALL
000304:                                                                                                  #                RTNORM  (-1)            .5 UNIT VECTOR NORML, COMPNT OF RTINIT  LEFT BY FIRST CALL
000305:                                                                                                  #                RT      (-1)            .5 UNIT TARGET VECTOR, ROTATED          LEFT BY ALL CALLS
000306:                                                                                                  #                DTEAROT (-28) CS        MAY BE CHANGED BY EARROT2, IF OVER 1 DAY
000307:
000308:                                                                                                  #  ERASABLE INITIALIZATION REQUIRED:
000309:                                                                                                  #                UNITW   (0)             UNIT POLAR VECTOR                       PAD LOADED
000310:                                                                                                  #                RTINIT  (-1)            .5 UNIT INITIAL TARGET VECTOR           LEFT BY ENTRY
000311:                                                                                                  #                DTEAROT (-28) CS        TIME OF FLIGHT                          LEFT BY CALLER
000312:
000313:                                                                                                  #  DEBRIS:  QPRET, PDL+0 ... PDL+5
000314:
000315: 23,2213  E7,1451                                  EBANK=   RTINIT
000316:
000317: 23,2213           47375        EARROT1            VLOAD    VXV
000318: 23,2214           02031                                    UNITW                                 #  FULL UNIT VECTOR
000319: 23,2215           03452                                    RTINIT                                #  .5 UNIT
000320: 23,2216           03460                           STORE    RTEAST                                #  .5 UNIT
000321:
000322: 23,2217           77635                           VXV
000323: 23,2220           02031                                    UNITW                                 #  FULL UNIT
000324: 23,2221           17466                           STODL    RTNORM                                #  .5 UNIT
000325: 23,2222           03606                                    DTEAROT                               #  (-28) CS
000326:
000327: 23,2223           56204        EARROT2            BOVB     DDV
000328: 23,2224           57450                                    TCDANZIG                              #  RESET OVFIND, IF ON
000329: 23,2225           06254                                    1/WIE
000330: 23,2226           41400                           BOV      PUSH
000331: 23,2227           46243                                    OVERADAY
000332: 23,2230           45346                           COS      DSU
000333: 23,2231           15202                                    HIDPHALF
000334: 23,2232           65361                           VXSC     PDDL                                  #  XCH W PUSH LIST
000335: 23,2233           03466                                    RTNORM                                #  .5 UNIT
000336: 23,2234           74356                           SIN      VXSC
000337: 23,2235           03460                                    RTEAST                                #  .5 UNIT
000338: 23,2236           76455                           VAD      VSL1
000339: 23,2237           53455                           VAD      UNIT                                  #  INSURE THAT RT IS 'UNIT'.
000340: 23,2240           03452                                    RTINIT                                #  .5 UNIT
000341: 23,2241           03474                           STORE    RT                                    #  .5 UNIT TARGET VECTOR
000342:
000343: 23,2242           77616                           RVQ
000344:
000345: 23,2243           75345        OVERADAY           DLOAD    SIGN
000346: 23,2244           06254                                    1/WIE
000347: 23,2245           03606                                    DTEAROT
000348: 23,2246           77621                           BDSU
000349: 23,2247           03606                                    DTEAROT
000350: 23,2250           03606                           STORE    DTEAROT
000351:
000352: 23,2251           77650                           GOTO
000353: 23,2252           46223                                    EARROT2
000354:
000355:                                                                                                  # WIE            2DEC    .1901487997
000356: 23,2253           01015 34732  1/WIE              2DEC     8616410    B-28
000357:
000358: 23,2255           15373 11346  NB2NB1             2DEC     +.8431756920 B-1
000359: 23,2257           00000 00000                     2DEC     0          B-28
000360: 23,2261           67313 65307                     2DEC     -.5376381241 B-1
000361:
000362:
000363: 23,2263           00000 00000  ZERINFLT           2DEC     0          B-28
000364:
000365: 23,2265           20000 00000  HALFNFLT           2DEC     .5
000366: 23,2267           00000 00000                     2DEC     0          B-28
000367: 23,2271           10464 12470                     2DEC     +.5376381241 B-1
000368: 23,2273           00000 00000                     2DEC     0          B-28
000369: 23,2275           15373 11346                     2DEC     +.8431756920 B-1
000370:
000371: 23,2277           15373 11346  NB1NB2             2DEC     +.8431756920 B-1
000372: 23,2301           00000 00000                     2DEC     0          B-28
000373: 23,2303           10464 12470                     2DEC     +.5376381241 B-1
000374: 23,2305           00000 00000                     2DEC     0          B-28
000375: 23,2307           20000 00000                     2DEC     .5
000376: 23,2311           00000 00000                     2DEC     0          B-28
000377: 23,2313           67313 65307                     2DEC     -.5376381241 B-1
000378: 23,2315           00000 00000                     2DEC     0          B-28
000379: 23,2317           15373 11346                     2DEC     +.8431756920 B-1
000380:
000381:
000382: 23,2321           07020        10DEGS-            DEC      3600       B-14
000383:
000384: 23,2322           60000        270DEG             OCT      60000                                 #  SHAFT   270 DEGREES   2S COMP.
000385: 23,2323           00000                           OCT      00000
000386:
000387: 23,2324           61740        20DEGS-            DEC      -07199     B-14
000388: 23,2325           77777                           DEC      -00000     B-14
000389:
000390: 23,2326           07020        20DEG-             DEC      03600      B-14
000391: 23,2327           00000                           DEC      00000      B-14

End of include-file CSM_GEOMETRY.agc.  Parent file is MAIN.agc


