
Source Code


000002:                                                                                                  ## Copyright:   Public domain.
000003:                                                                                                  ## Filename:    DISPLAY_INTERFACE_ROUTINES.agc
000004:                                                                                                  ## Purpose:     A section of Skylark revision 048.
000005:                                                                                                  ##              It is part of the source code for the Apollo Guidance Computer (AGC)
000006:                                                                                                  ##              for Skylab-2, Skylab-3, Skylab-4, and ASTP. No original listings of
000007:                                                                                                  ##              this software are available; instead, this file was created via
000008:                                                                                                  ##              disassembly of dumps of the core rope modules actually flown on
000009:                                                                                                  ##              Skylab-2. Access to these modules was provided by the New Mexico
000010:                                                                                                  ##              Museum of Space History.
000011:                                                                                                  ## Assembler:   yaYUL
000012:                                                                                                  ## Contact:     Ron Burkey <info@sandroid.org>.
000013:                                                                                                  ## Website:     www.ibiblio.org/apollo/index.html
000014:                                                                                                  ## Mod history: 2023-09-04 MAS  Created from Artemis 072.
000015:
000016:
000017:                                                                                                  #  DISPLAYS CAN BE CLASSIFIED INTO THE FOLLOWING CATEGORIES -
000018:
000019:                                                                                                  #        1. PRIORITY DISPLAYS - DISPLAYS WHICH TAKE PRIORITY OVER ALL OTHER DISPLAYS. USUALLY THESE DISPLAYS ARE SENT
000020:                                                                                                  #           OUT UNDER CRITICAL ALARM CONDITIONS.
000021:                                                                                                  #        2. EXTENDED VERB DISPLAYS - ALL EXTENDED VERBS AND MARK ROUTINES SHOULD USE EXTENDED VERB (MARK) DISPLAYS.
000022:                                                                                                  #        3. NORMAL DISPLAYS - ALL MISSION PROGRAM DISPLAYS WHICH INTERFACE WITH THE ASTRONAUT DURING THE NORMAL
000023:                                                                                                  #           SEQUENCE OF EVENTS.
000024:                                                                                                  #        4. MISC. DISPLAYS - ALL DISPLAYS NOT HANDLED BY THE DISPLAY INTERFACE ROUTINES. THESE INCLUDE SUCH DISPLAYS AS
000025:                                                                                                  #           MM DISPLAYS AND SPECIAL PURPOSE DISPLAYS HANDLED BY PINBALL.
000026:                                                                                                  #        5. ASTRONAUT INITIATED DISPLAYS - ALL DISPLAYS INITIATED EXTERNALLY.
000027:
000028:                                                                                                  #  THE FOLLOWING TERMS ARE USED TO DESCRIBE THE STATUS OF DISPLAYS -
000029:
000030:                                                                                                  #        1. ACTIVE - THE DISPLAY WHICH IS (1) BEING DISPLAYED TO THE ASTRONAUT AND WAITING FOR A RESPONSE OR
000031:                                                                                                  #           (2) WAITING FIRST IN LINE FOR THE ASTRONAUT TO FINISH USING THE DSKY OR (3) BEING DISPLAYED ON THE DSKY
000032:                                                                                                  #           BUT NOT WAITING FOR A RESPONSE.
000033:                                                                                                  #        2. INACTIVE - A DISPLAY WHICH HAS (1) BEEN ACTIVE BUT WAS INTERRUPTED BY A DISPLAY OF HIGHER PRIORITY,
000034:                                                                                                  #           (2) BEEN PUT INTO THE WAITING LIST AT TIME IT WAS REQUESTED DUE TO THE FACT A HIGHER PRIORITY DISPLAY
000035:                                                                                                  #           WAS ALREADY GOING, (3) BEEN INTERRUPTED BY THE ASTRONAUT (CALLED A PINBRANCH CONDITION, SINCE THIS TYPE
000036:                                                                                                  #           OF INACTIVE DISPLAY IS USUALLY REACTIVATED ONLY BY PINBALL) OR (4) A DISPLAY WHICH HAS FINISHED BUT STILL
000037:                                                                                                  #           HAS INFO SAVED FOR RESTART PURPOSES.
000038:
000039:                                                                                                  #  DISPLAY PRIORITIES WORK AS FOLLOWS -
000040:
000041:                                                                                                  #        INTERRUPTS -
000042:                                                                                                  #                1. THE ASTRONAUT CAN INTERRUPT ANY DISPLAY WITH AN EXTERNAL DISPLAY REQUEST.
000043:                                                                                                  #                2. INTERNAL DISPLAYS CAN NOT BE SENT OUT WHEN THE ASTRONAUT IS USING THE DSKY.
000044:                                                                                                  #                3. PRIORITY DISPLAYS INTERRUPT ALL OTHER TYPES OF INTERNAL DISPLAYS. A PRIORITY DISPLAY INTERRUPTING ANOTHER
000045:                                                                                                  #                   PRIORITY DISPLAY WILL CAUSE AN ABORT UNLESS BIT14 IS SET FOR THE LINUS ROUTINE.
000046:                                                                                                  #                4. A MARK DISPLAY INTERRUPTS ANY NORMAL DISPLAY.
000047:                                                                                                  #                5. A MARK THAT INTERRUPTS A MARK COMPLETELY REPLACES IT.
000048:
000049:                                                                                                  #        ORDER OF WAITING DISPLAYS -
000050:                                                                                                  #                1.  ASTRONAUT EXTERNAL USE
000051:                                                                                                  #                2.  PRIORITY
000052:                                                                                                  #                3.  INTERRUPTED MARK
000053:                                                                                                  #                4.  INTERRUPTED NORMAL
000054:
000055:                                                                                                  #                5.  MARK TO BE REQUESTED (SEE DESCRIPTION OF ENDMARK)
000056:                                                                                                  #                6.  MARK WAITING
000057:                                                                                                  #                7.  NORMAL WAITING
000058:
000059:                                                                                                  #  THE DISPLAY ROUTINES ARE INTENDED TO SERVE AS AN INTERFACE BETWEEN THE USER AND PINBALL.  THE
000060:                                                                                                  #  FOLLOWING STATEMENTS CAN BE MADE ABOUT NORMAL DISPLAYS AND PRIORITY DISPLAYS (A DESCRIPTION OF MARK ROUTINES
000061:                                                                                                  #  WILL FOLLOW LATER):
000062:
000063:                                                                                                  #        1.  ALL ROUTINES THAT END IN R HAVE AN IMMEDIATE RETURN TO THE USER.  FOR ALL FLASHING DISPLAYS THIS RETURN
000064:                                                                                                  #            IS TO THE USERS CALL CADR +4.  FOR THE ONLY NON FLASHING IMMEDIATE RETURN DISPLAY (GODSPR) THIS RETURN
000065:                                                                                                  #            IS TO THE USERS CALLING LOC +1.
000066:                                                                                                  #        2.  ALL ROUTINES NOT ENDING IN R DO NOT DO AN IMMEDIATE RETURN TO THE USER.
000067:                                                                                                  #        3.  ALL ROUTINES THAT END IN R START A SEPARATE JOB (MAKEPLAY) WITH USERS JOB PRIORITY.
000068:                                                                                                  #        4.  ALL ROUTINES NOT ENDING IN R BRANCH DIRECTLY TO MAKEPLAY WHICH MAKES THESE DISPLAYS A PART OF THE
000069:                                                                                                  #            USERS JOB.
000070:                                                                                                  #        5.  ALL DISPLAY ROUTINES ARE CALLED VIA BANKCALL.
000071:                                                                                                  #        6.  TO RESTART A DISPLAY THE USER WILL GENERALLY USE A PHASE OF ONE WITH DESIRED RESTART GROUP (SEE
000072:                                                                                                  #            DESCRIPTION OF RESTARTS).
000073:                                                                                                  #        7.  ALL FLASHING DISPLAYS HAVE 3 RETURNS TO THE USER FROM ASTRONAUT RESPONSES.  A TERMINATE (V34) BRANCHES
000074:                                                                                                  #            TO THE USERS CALL CADR +1.  A PROCEED (V33) BRANCHES TO THE USERS CALL CADR +2.  AN ENTER OR RECYCLE
000075:                                                                                                  #            (V32) BRANCHES TO THE USERS CALL CADR +3.
000076:                                                                                                  #        8.  ALL ROUTINES MUST BE USED UNDER EXECUTIVE CONTROL.
000077:
000078:                                                                                                  #  A DESCRIPTION OF EACH ROUTINE WITH AN EXAMPLE FOLLOWS:
000079:
000080:                                                                                                  #  GODSPR IS THE SAME AS GODSP ONLY RETURN IS TO THE USER.
000081:
000082:                                                                                                  #                        CAF     VXXNYY
000083:                                                                                                  #                        TC      BANKCALL
000084:                                                                                                  #                        CADR    GODSPR
000085:                                                                                                  #                        ...     ...             IMMEDIATE RETURN OF GODSPR
000086:
000087:                                                                                                  #  GOFLASH DISPLAYS A FLASHING VERB NOUN WITH NO IMMEDIATE RETURN TO THE USER. 3 RETURNS ARE POSSIBLE FROM
000088:                                                                                                  #  THE ASTRONAUT (SEE NO. 7 ABOVE).
000089:
000090:                                                                                                  #                        CAF     VXXNYY          VXX NYY WILL BE A FLASHING VERB NOUN.
000091:                                                                                                  #                        TC      BANKCALL
000092:                                                                                                  #                        CADR    GOFLASH
000093:                                                                                                  #                        ...     ...             TERMINATE RETURN
000094:                                                                                                  #                        ...     ...             PROCEED RETURN
000095:                                                                                                  #                        ...     ...             ENTER OR RECYCLE RETURN
000096:
000097:                                                                                                  #  GOPERF1 IS ENTERED WITH DESIRED CHECKLIST VALUE IN A.  GOPERF1 WILL DISPLAY THIS VALUE IN R1 BY MEANS OF A
000098:                                                                                                  #  V01 N25. A FLASHING PLEASE PERFORM ON CHECKLIST (V50 N25) IS THEN DISPLAYED.  NO IMMEDIATE RETURN IS MADE TO
000099:                                                                                                  #  USER (SEE NO. 7 ABOVE).
000100:                                                                                                  #  GOPERF1 BLANKS REGISTERS R2 AND R3
000101:
000102:                                                                                                  #                        CAF     OCTXX           CODE FOR CHECKLIST VALUE XX
000103:                                                                                                  #                        TC      BANKCALL
000104:                                                                                                  #                        CADR    GOPERF1
000105:                                                                                                  #                        ...     ...             TERMINATE RETURN
000106:                                                                                                  #                        ...     ...             PROCEED RETURN
000107:                                                                                                  #                        ...     ...             ENTER RETURN
000108:
000109:                                                                                                  #  GOPERF3 IS USED FOR A PLEASE PERFORM ON A PROGRAM NUMBER.  THE DESIRED PROGRAM NO. IS ENTERED IN A.  GOPERF3
000110:                                                                                                  #  DISPLAYS THE NO. BY MEANS OF A V06 N07 FOLLOWED BY A FLASHING V50 N07 FOR A PLEASE PERFORM. NO IMMEDIATE RETURN
000111:                                                                                                  #  IS MADE TO THE USER (SEE NO. 7 ABOVE).
000112:                                                                                                  #  GOPERF3 BLANKS REGISTERS R2 AND R3
000113:
000114:                                                                                                  #                        CAF     DECXX           REQUEST PERFORM ON PXX
000115:                                                                                                  #                        TC      BANKCALL
000116:                                                                                                  #                        CADR    GOPERF3
000117:                                                                                                  #                        ...     ...             TERMINATE RETURN
000118:                                                                                                  #                        ...     ...             PROCEED RETURN
000119:                                                                                                  #                        ...     ...             ENTER RETURN
000120:
000121:                                                                                                  #  GOPERF4 IS USED FOR A PLEASE PERFORM ON AN OPTION. THE DESIRED OPTION IS ENTERED IN A AND STORED IN OPTION1.
000122:                                                                                                  #  GOPERF4 DISPLAYS R1 AND R2 BY MEANS OF A V04N06 FOLLOWED BY A FLASHING V50N06 FOR A PLEASE PERFORM. NO
000123:                                                                                                  #  IMMEDIATE RETURN IS MADE TO THE USER (SEE NO. 7 ABOVE).
000124:
000125:                                                                                                  #                        CAF     OCTXX           REQUEST PERFORM ON OPTION XX
000126:                                                                                                  #                        TC      BANKCALL
000127:                                                                                                  #                        CADR    GOPERF4
000128:                                                                                                  #                        ...     ...             TERMINATE RETURN
000129:                                                                                                  #                        ...     ...             PROCEED RETURN
000130:                                                                                                  #                        ...     ...             ENTER RETURN
000131:
000132:                                                                                                  #  GOPERF4 BLANKS REGISTER R3
000133:
000134:                                                                                                  #  GODSPRET IS USED TO DISPLAY A VERB NOUN ARRIVING IN A WITH A RETURN TO THE USER AFTER THE DISPLAY HAS BEEN SENT
000135:                                                                                                  #  OUT.
000136:
000137:                                                                                                  #                        CAF     VXXNYY
000138:                                                                                                  #                        TC      BANKCALL
000139:                                                                                                  #                        CADR    GODSPRET
000140:                                                                                                  #                        ...     ...             RETURN TO USER
000141:
000142:                                                                                                  #  REGODSP IS USED TO DISPLAY A VERB NOUN ARRIVING IN A.  REGODSP IS THE SAME AS GODSP ONLY REGODSP REPLACES ANY
000143:                                                                                                  #  ACTIVE NORMAL DISPLAY IF ONE WAS ACTIVE.
000144:
000145:                                                                                                  #                        CAF     VXXNYY
000146:                                                                                                  #                        TC      BANKCALL
000147:                                                                                                  #                        CADR    REGODSP
000148:
000149:                                                                                                  #  REFLASH IS THE SAME AS GOFLASH ONLY REFLASH REPLACES ANY ACTIVE NORMAL DISPLAY IF ONE WAS ACTIVE.
000150:
000151:                                                                                                  #                        CAF     VXXNYY          VXX NYY WILL BE A FLASHING VERB NOUN
000152:                                                                                                  #                        TC      BANKCALL
000153:                                                                                                  #                        CADR    REFLASH
000154:                                                                                                  #                        ...     ...             TERMINATE RETURN
000155:                                                                                                  #                        ...     ...             PROCEED RETURN
000156:                                                                                                  #                        ...     ...             ENTER RETURN
000157:
000158:                                                                                                  #  GOFLASHR IS SAME AS GOFLASH ONLY AN IMMEDIATE RETURN IS MADE TO THE USERS CALL CADR +4.
000159:
000160:                                                                                                  #                        CAF     VXXNYY
000161:                                                                                                  #                        TC      BANKCALL
000162:                                                                                                  #                        CADR    GOFLASHR
000163:                                                                                                  #                        ...     ...             TERMINATE RETURN
000164:                                                                                                  #                        ...     ...             PROCEED RETURN
000165:                                                                                                  #                        ...     ...             ENTER OR RECYCLE RETURN
000166:
000167:                                                                                                  #                        ...     ...             IMMEDIATE RETURN FROM GOFLASHR
000168:
000169:                                                                                                  #  GOPERF1R IS THE SAME AS GOPERF1 ONLY GOPERF1R HAS AN IMMEDIATE RETURN TO USERS CALL CADR +4.
000170:                                                                                                  #  GOPERF1R BLANKS REGISTERS R2 AND R3
000171:
000172:                                                                                                  #                        CAF     OCTXX           CODE FOR CHECKLIST VALUE XX.
000173:                                                                                                  #                        TC      BANKCALL
000174:                                                                                                  #                        CADR    GOPERF1R
000175:                                                                                                  #                        ...     ...             TERMINATE RETURN
000176:                                                                                                  #                        ...     ...             PROCEED RETURN
000177:                                                                                                  #                        ...     ...             ENTER RETURN
000178:
000179:                                                                                                  #                        ...     ...             IMMEDIATE RETURN FROM GOPERF1R
000180:
000181:                                                                                                  #  GOPERF3R IS THE SAME AS GOPERF3 ONLY AN IMMEDIATE RETURN IS MADE TO USERS CALL CADR +4.
000182:                                                                                                  #  GOPERF3R BLANKS REGISTERS R2 AND R3
000183:
000184:                                                                                                  #                        CAF     PROGXX          PERFORM PROGRAM XX
000185:                                                                                                  #                        TC      BANKCALL
000186:                                                                                                  #                        CADR    GOPERF3R
000187:                                                                                                  #                        ...     ...             TERMINATE RETURN
000188:                                                                                                  #                        ...     ...             PROCEED RETURN
000189:                                                                                                  #                        ...     ...             ENTER RETURN
000190:
000191:                                                                                                  #                        ...     ...             GOPERF3R IMMEDIATELY RETURNS HERE
000192:
000193:                                                                                                  #  GOPERF4R IS THE SAME AS GOPERF4 ONLY AN IMMEDIATE RETURN IS MADE TO USERS CALL CADR +4.
000194:
000195:                                                                                                  #                        CAF     OCTXX           REQUEST PERFORM ON OPTIONXX
000196:                                                                                                  #                        TC      BANKCALL
000197:                                                                                                  #                        CADR    GOPERF4R
000198:                                                                                                  #                        ...     ...             TERMINATE RETURN
000199:                                                                                                  #                        ...     ...             PROCEED RETURN
000200:                                                                                                  #                        ...     ...             ENTER RETURN
000201:
000202:                                                                                                  #                        ...     ...             IMMEDIATE RETURN TO USER
000203:
000204:                                                                                                  #  GOPERF4R BLANKS REGISTER R3
000205:
000206:                                                                                                  #  REFLASHR IS THE SAME AS REFLASH ONLY AN IMMEDIATE RETURN IS MADE TO THE USERS CALL CADR +4.
000207:
000208:                                                                                                  #                        CAF     VXXNYY          VXX NYY WILL BE A FLASHING VERB NOUN
000209:                                                                                                  #                        TC      BANKCALL
000210:                                                                                                  #                        CADR    REFLASHR
000211:                                                                                                  #                        ...     ...             TERMINATE RETURN
000212:                                                                                                  #                        ...     ...             PROCEED RETURN
000213:                                                                                                  #                        ...     ...             ENTER RETURN
000214:
000215:                                                                                                  #                        ...     ...             IMMEDIATE RETURN TO USER
000216:
000217:                                                                                                  #  REGODSPR IS THE SAME AS REGODSP ONLY A RETURN (IMMEDIATE) IS MADE TO THE USER.
000218:
000219:                                                                                                  #                        CAF     VXXNYY
000220:                                                                                                  #                        TC      BANKCALL
000221:                                                                                                  #                        CADR    REGODSPR
000222:
000223:                                                                                                  #                        ...     ...             IMMEDIATE RETURN TO USER
000224:
000225:                                                                                                  #  GOMARK IS USED TO DISPLAY A MARK VERB NOUN ARRIVING IN A. NO RETURN IS MADE TO THE USER.
000226:
000227:                                                                                                  #  GOMARKR IS THE SAME AS GOMARK ONLY RETURN IS TO THE USER.
000228:
000229:                                                                                                  #  GOMARKF DISPLAYS A FLASHING MARK VERB NOUN WITH NO IMMEDIATE RETURN TO THE USER. 3 RETURNS ARE POSSIBLE FROM
000230:                                                                                                  #  THE ASTRONAUT (SEE NO. 7 ABOVE).
000231:                                                                                                  #  GOXDSPF = GOMARKF
000232:
000233:                                                                                                  #                        CAF     VXXNYY          VXXNYY WILL BE A FLASHING MARK VERB NOUN
000234:                                                                                                  #                        TC      BANKCALL
000235:                                                                                                  #                        CADR    GOMARKF         OTHER EXTENDED VERBS USE CADR GOXDSPF
000236:                                                                                                  #                        ...     ...             TERMINATE RETURN
000237:                                                                                                  #                        ...     ...             PROCEED RETURN
000238:                                                                                                  #                        ...     ...             ENTER OR RECYCLE RETURN
000239:
000240:                                                                                                  #  GOMARKFR IS THE SAME AS GOMARKF ONLY AN IMMEDIATE RETURN IS MADE TO THE USER CALL CADR +4.
000241:
000242:                                                                                                  #  GOMARK1 IS USED FOR A PLEASE PERFORM ON A MARK REQUEST WITH ONLY 1 ASTRONAUT RETURN TO THE USER. NO IMMEDIATE
000243:                                                                                                  #  RETURN IS MADE. THE DESIRED MARK PLEASE PERFORM VERB AND DESIRED NOUN IS ENTERED IN A. GOMARK1 DISPLAYS R1, R2, R
000244:                                                                                                  #  MEANS OF A V05NYY FOLLOWED BY A FLASHING V5XNYY FOR A PLEASE PERFORM. THE ASTRONAUT WILL RESPOND WITH A MARK
000245:                                                                                                  #  OR MARK REJECT OR AN ENTER. THE ENTER IS THE ONLY ASTRONAUT RESPONSE THAT WILL COME BACK TO THE USER.
000246:
000247:                                                                                                  #                        CAF     V5XNYY          X=1,2,3,4       Y=NOUN
000248:                                                                                                  #                        TC      BANKCALL
000249:                                                                                                  #                        CADR    GOMARK1
000250:
000251:                                                                                                  #                        ...     ...             ENTER RETURN
000252:
000253:                                                                                                  #  *** IF BLANKING DESIRED ON NON R ROUTINES, NOTIFY DISPLAYER.
000254:
000255:                                                                                                  #  GOMARK1R IS THE SAME AS A GOMARK1 ONLY AN IMMEDIATE RETURN IS MADE TO THE USERS CALL CADR +2.
000256:
000257:                                                                                                  #                        CAF     V5XNYY          X=1,2,3,4       YY=NOUN
000258:                                                                                                  #                        TC      BANKCALL
000259:                                                                                                  #                        CADR    GOMARK1R
000260:
000261:                                                                                                  #                        ...     ...             ASTRONAUT ENTER RETURN
000262:                                                                                                  #                        ...     ...             IMMEDIATE RETURN TO USER
000263:
000264:                                                                                                  #  GOMARK2 IS THE SAME AS GOMARK1 ONLY 3 RETURNS ARE MADE TO THE USER FROM THE ASTRONAUT.
000265:
000266:                                                                                                  #                        CAF     V5XNYY          X=1,2,3,4       YY=NOUN
000267:                                                                                                  #                        TC      BANKCALL
000268:                                                                                                  #                        CADR    GOMARK2
000269:                                                                                                  #                        ...     ...             TERMINATE RETURN
000270:                                                                                                  #                        ...     ...             PROCEED RETURN
000271:                                                                                                  #                        ...     ...             ENTER RETURN
000272:
000273:                                                                                                  #  GOMARK4 IS THE SAME AS GOMARK3 ONLY R2 AND R3 ARE BLANKED AND R1 IS DISPLAYED IN OCTAL.
000274:
000275:                                                                                                  #                        CAF     V5XNYY          X=1,2,3,4       YY=NOUN
000276:                                                                                                  #                        TC      BANKCALL
000277:                                                                                                  #                        CADR    GOMARK4
000278:                                                                                                  #                        ...     ...             TERMINATE RETURN
000279:                                                                                                  #                        ...     ...             PROCEED RETURN
000280:                                                                                                  #                        ...     ...             ENTER RETURN
000281:
000282:                                                                                                  #  EXDSPRET IS USED TO DISPLAY A VERB NOUN ARRIVING IN A WITH A RETURN MADE TO THE USER AFTER THE DISPLAY HAS BEEN
000283:                                                                                                  #  SENT OUT.
000284:
000285:                                                                                                  #                        CAF     VXXNYY
000286:                                                                                                  #                        TC      BANKCALL
000287:                                                                                                  #                        CADR    EXDSPRET
000288:
000289:                                                                                                  #                        ...     ...             RETURN TO USER
000290:
000291:                                                                                                  #  KLEENEX CLEANS OUT ALL MARK DISPLAYS (ACTIVE AND INACTIVE). A RETURN IS MADE TO THE USER AFTER THE MARK DISPLAYS
000292:                                                                                                  #  HAVE BEEN CLEANED OUT.
000293:
000294:                                                                                                  #                        TC      BANKCALL
000295:                                                                                                  #                        CADR    KLEENEX
000296:
000297:                                                                                                  #                        ...     ...             RETURN TO USER
000298:
000299:                                                                                                  #  MARKBRAN IS A SPECIAL PURPOSE ROUTINE USED FOR SAVING JOB VAC AREAS (SEE DESCRIPTION OF MARKBRAN BELOW).
000300:
000301:                                                                                                  #                        TC      BANKCALL
000302:                                                                                                  #                        CADR    MARKBRAN
000303:
000304:                                                                                                  #                        ...     ...             BAD RETURN IF MARK DISPLAY NOT ACTIVE
000305:
000306:                                                                                                  #                                                (GOOD RETURN TO IMMEDIATE RETURN LOC OF
000307:                                                                                                  #                                                LAST FLASHING MARK R ROUTINE)
000308:
000309:                                                                                                  #  PINBRNCH REESTABLISHES THE LAST ACTIVE FLASHING DISPLAY. IF THERE IS NO ACTIVE FLASHING DISPLAY, THE DSKY IS
000310:                                                                                                  #  BLANKED AND CONTROL IS SENT TO ENDOFJOB.
000311:
000312:                                                                                                  #                                TC      POSTJUMP
000313:                                                                                                  #                                CADR    PINBRNCH
000314:
000315:                                                                                                  #  PRIODSP IS USED AS A PRIORITY DISPLAY.  IT WILL DISPLAY A GOFLASH TYPE DISPLAY WITH THREE POSSIBLE RETURNS FROM
000316:                                                                                                  #  THE ASTRONAUT (SEE NO. 7 ABOVE).
000317:
000318:                                                                                                  #  THE MAIN PURPOSE OF PRIODSP IS TO REPLACE THE PRESENT DISPLAY WITH A DISPLAY OF HIGHER PRIORITY AND TO
000319:                                                                                                  #  PROVIDE A MEANS FOR RESTORING THE OLD DISPLAY WHEN THE PRIORITY DISPLAY
000320:                                                                                                  #  IS RESPONDED TO BY THE ASTRONAUT.
000321:
000322:                                                                                                  #  THE FORMER DISPLAY IS RESTORED BY AN AUTOMATIC BRANCH TO WAKE UP THE DISPLAY THAT WAS INTERRUPTED BY THE
000323:                                                                                                  #  PRIO DISPLAY.
000324:
000325:                                                                                                  #                        CAF     VXXNYY          VXXNYY WILL BE A FLASHING VERB NOUN
000326:                                                                                                  #                        TC      BANKCALL
000327:                                                                                                  #                        CADR    PRIODSP
000328:                                                                                                  #                        ...     ...             TERMINATE RETURN
000329:                                                                                                  #                        ...     ...             PROCEED RETURN
000330:                                                                                                  #                        ...     ...             ENTER OR RECYCLE RETURN
000331:
000332:                                                                                                  #  PRIODSPR IS THE SAME AS PRIODSP ONLY AN IMMEDIATE RETURN IS MADE TO THE USERS CALL CADR +4.
000333:
000334:                                                                                                  #                        CAF     VXXNYY          VXXNYY WILL BE A FLASHING VERB NOUN
000335:                                                                                                  #                        TC      BANKCALL
000336:                                                                                                  #                        CADR    PRIODSPR
000337:                                                                                                  #                        ...     ...             TERMINATE RETURN
000338:                                                                                                  #                        ...     ...             PROCEED RETURN
000339:                                                                                                  #                        ...     ...             ENTER OR RECYCLE RETURN
000340:
000341:                                                                                                  #                        ...     ...             IMMEDIATE RETURN
000342:
000343:                                                                                                  #  PRIOLARM DOES A V05N09 PRIODSPR.
000344:
000345:                                                                                                  #  CLEANDSP CLEANS OUT ALL NORMAL DISPLAYS (ACTIVE AND INACTIVE). A RETURN IS MADE TO THE USER AFTER NORMAL
000346:                                                                                                  #  DISPLAYS ARE CLEANED OUT.
000347:
000348:                                                                                                  #                        TC      BANKCALL
000349:                                                                                                  #                        CADR    CLEANDSP
000350:
000351:                                                                                                  #                        ...     ...             RETURN TO USER
000352:
000353:
000354:                                                                                                  #  GENERAL INFORMATION
000355:                                                                                                  #  ------- -----------
000356:
000357:                                                                                                  #  ALARM OR ABORT EXIT MODES--
000358:
000359:                                                                                                  #                PRIOBORT        TC      ABORT
000360:                                                                                                  #                                OCT     1502
000361:
000362:                                                                                                  #  PRIOBORT IS BRANCED TO WHEN (1) A NORMAL DISPLAY IS REQUESTED AND ANOTHER NORMAL DISPLAY IS ALREADY ACTIVE
000363:                                                                                                  #  (REFLASH AND REGODSP ARE EXCEPTIONS) OR (2) A PRIORITY DISPLAY IS REQUESTED WHEN ANOTHER PRIORITY DISPLAY IS
000364:                                                                                                  #  ALREADY ACTIVE (A PRIORITY WITH LINUS BIT14 IS AN EXCEPTION).
000365:
000366:                                                                                                  #  ERASABLE INITIALIZATION REQUIRED--
000367:
000368:                                                                                                  #        ACCOMPLISHED BY FRESH START-    1. FLAGWRD4 (USED EXCLUSIVELY BY DISPLAY INTERFACE ROUTINES)
000369:                                                                                                  #                                        2. NVSAVE = NORMAL VERB AND NOUN REGISTER.
000370:                                                                                                  #                                        3. EBANKTEM = NORMAL INACTIVE FLAGWORD (ALSO CONTAINS NORMALS EBANK).
000371:
000372:                                                                                                  #                                        5. R1SAVE = MARKBRAN CONTROL WORD
000373:                                                                                                  #                                        4. RESTREG = PRIORITY 30 AND SUPERBANK 3.
000374:
000375:                                                                                                  #  OUTPUT--
000376:
000377:                                                                                                  #        NVWORD = PRIO VERB AND NOUN
000378:                                                                                                  #        NVWORD +1 (MARKNV) = MARK VERB AND NOUN
000379:                                                                                                  #        NVWORD +2 (NVSAVE) = NORMAL VERB AND NOUN
000380:
000381:                                                                                                  #        DSPFLG (EBANKSAV) = PRIO FLAGWORD (INCLUDING EBANK)
000382:                                                                                                  #        DSPFLG +1 (MARKEBAN) = MARK FLAGWORD (INCLUDING EBANK)
000383:                                                                                                  #        DSPFLG +2 (EBANKTEM) = NORMAL FLAGWORD (INCLUDIG EBANK)
000384:
000385:                                                                                                  #        CADRFLSH = PRIO USERS CALL CADR +1 LOCATION
000386:                                                                                                  #        CADRFLSH +1 (MARKFLSH) = MARK USERS CALL CADR +1 LOCATION
000387:                                                                                                  #        CADRFLSH +2 (TEMPFLSH) = NORMAL USERS CALL CADR +1 LOCATION
000388:
000389:                                                                                                  #        PRIOTIME = TIME EACH PRIO REQUEST FIRST SENT OUT
000390:                                                                                                  #        OPTION1 = DESIRED OPTION FROM GOPERF4
000391:                                                                                                  #        FLAGWRD4 = BIT INFO FOR CONTROL OF ALL DISPLAY ROUTINES
000392:                                                                                                  #        DSPTEM1 = R1 INFO FOR ASTRONAUT FROM PERFORM DISPLAYS (NORMAL)
000393:
000394:                                                                                                  #  SUBROUTINES USED-- NVSUB, FLAGUP, FLAGDOWN, ENDOFJOB, BLANKSUB, ABORT, JOBWAKE, JOBSLEEP, FINDVAC, PRIOCHNG,
000395:                                                                                                  #  JAMTERM, NVSUBUSY, FLASHON, ENDIDLE, CHANG1, BANKJUMP, MAKECADR, NOVAC,
000396:
000397:                                                                                                  #  DEBRIS-- (STORED INTO)
000398:                                                                                                  #        TEMPORARY TEMPORARIES- A, Q, L, MPAC +2, MPAC +3, MPAC +4, MPAC +5, MPAC +6, RUPTREG2, RUPTREG3, CYL,
000399:                                                                                                  #                EBANK, RUPTREG4, LOC, BANKSET, MODE, MPAC, MPAC +1      4, FACEREG
000400:                                                                                                  #        ERASABES (SHARED AND USED WITH OTHER PROGRAMS) CADRSTOR, DSPLIST, LOC, DSPTEM1, OPTION1
000401:                                                                                                  #        ERASABLES (USED ONLY BY DISPLAY ROUTINES)- NVWORD,+1,+2, DSPFLG,+1,+2, CADRFLSH,+1,+2, PRIOTIME, FLAGWRD4,
000402:                                                                                                  #                R1SAVE, MARK2PAC,
000403:
000404:                                                                                                  #  DEBRIS-- (USED BUT NOT STORED INTO)- NOUNREG, VERBREG, LOCCTR, MONSAVE1
000405:
000406:                                                                                                  #  FLAGWORD DESCRIPTIONS--
000407:                                                                                                  #        FLAGWRD4- SEE DESCRIPTION UNDER LOG SECTION ERASABLE ASSIGNMENTS
000408:
000409:                                                                                                  #        DSPFLG, DSPFLG+1, DSPFLG +2-
000410:                                                                                                  #        ----------------------------
000411:                                                                                                  #        BITS 1  BLANK R1
000412:                                                                                                  #             2  BLANK R2
000413:                                                                                                  #             3  BLANK R3
000414:                                                                                                  #             4  FLASHING DISPLAY REQUESTED
000415:                                                                                                  #             5  PERFORM DISPLAY REQUESTED
000416:                                                                                                  #             6  -----                   EXDSPRET                GODSPRET
000417:                                                                                                  #             7  PRIO DISPLAY            -----                   -----
000418:                                                                                                  #             8  -----                   MARK MONITOR PERF       -----
000419:                                                                                                  #             9  EBANK
000420:                                                                                                  #            10  EBANK
000421:                                                                                                  #            11  EBANK
000422:                                                                                                  #            12  -----                   -----                   V99PASTE
000423:                                                                                                  #            13  2ND PART OF PERFORM
000424:                                                                                                  #            14  REFLASH OR REDO         -----                   REFLASH OR REDO
000425:                                                                                                  #            15  -----                   MARK REQUEST            -----
000426:
000427:                                                                                                  #  RESTARTING DISPLAYS--
000428:
000429:                                                                                                  #  RULES FOR THE DSKY OPERATOR--
000430:
000431:                                                                                                  #        1. PROCEED AND TERMINATE SERVE AS RESPONSES TO REQUESTS FOR OPERATOR RESPONSE (FLASHING V/N).  AS LONG
000432:                                                                                                  #           AS THERE IS ANY REQUEST AWAITING OPERATOR RESPONSE, ANY USE OF PROCEED OR TERMINATE WILL SERVE AS
000433:                                                                                                  #           RESPONSES TO THAT REQUEST.  CARE SHOULD BE EXERCISED IN ATTEMPTING TO KILL AN OPERATOR INITIATED MONITOR
000434:                                                                                                  #           WITH PROCEED AND TERMINATE FOR THIS REASON.
000435:                                                                                                  #        2. THE ASTRONAUT MUST RESPOND TO A PRIORITY DISPLAY NO SOONER THAN 5 SECS FROM THE TIME THE MISSION
000436:                                                                                                  #           PROGRAM SENT OUT THE REQUEST FOR OPERATOR RESPONSE (THE ASTRONAUT WOULD SEE THIS DISPLAY FOR LESS TIME
000437:                                                                                                  #           DUE TO TIME IT TAKES TO GET DISPLAY SENT OUT.)  IF THE ASTRONAUT RESPONDS TOO SOON, THE PRIORITY DISPLAY
000438:                                                                                                  #           IS SENT OUT AGAIN---AND AGAIN UNTIL AN ACCUMULATED 5 SECS FROM TIME THE FIRST PRIORITY DISPLAY WAS SENT
000439:                                                                                                  #           OUT. THE SAME 5 SEC. DELAY WILL OCCUR AT 163.84 SECS OR IN ANY MULTIPLE OF THAT TIME DUE TO PROGRAM
000440:                                                                                                  #           CONSIDERATION.
000441:                                                                                                  #        3. KEY RELEASE BUTTON-
000442:                                                                                                  #           A) IF THE KEY RELEASE LIGHT IS ON, IT SIMPLY RELEASES THE KEYBOARD AND DISPLAY FOR INTERNAL USE.
000443:                                                                                                  #           B) IF THE KEY RELEASE LIGHT IS OFF, AND IF SOME REQUEST FOR OPERATOR RESPONSE (FLASHING V/N) IS STILL
000444:                                                                                                  #              AWAITING RESPONSE THEN IT RE-ESTABLISHES THE DISPLAYS THAT ORIGINALLY REQUESTED RESPONSE.
000445:                                                                                                  #           IF AN OPERATOR WANTS THEREFORE TO RE-ESTABLISH BUT CONDITION (A) IS ENCOUNTERED, A SECOND DEPRESSION OF
000446:                                                                                                  #           KEY RELEASE BUTTON MAY BE NECESSARY.
000447:                                                                                                  #        4. IT IS IMPORTANT TO ANSWER ALL REQUESTS FOR OPERATOR RESPONSE.
000448:                                                                                                  #        5. IT IS ALWAYS GOOD PRACTICE TO TERMINATE AN EXTENDED VERB BEFORE ASKING FOR ANOTHER ONE OR THE SAME ONE
000449:                                                                                                  #           OVER AGAIN.
000450:
000451:                                                                                                  #  SPECIAL CONSIDERATIONS--
000452:                                                                                                  #        1. MPAC +2 SAVED ONLY IN MARK DISPLAYS
000453:                                                                                                  #        2. GODSP(R),REGODSP(R),GOMARK(R) ALWAYS TURN ON THE FLASH IF ENTERED WITH A PASTE VERB REQUEST.
000454:                                                                                                  #        3. ALL NORMAL DISPLAYS ARE RESTARTABLE EXCEPT GODSP(R), REGODSP(R)
000455:                                                                                                  #        4. ALL EXTENDED VERBS WITH DISPLAYS SHOULD START WITH A TC TESTXACT AND FINISH WITH A TC ENDEXT.
000456:                                                                                                  #        5. GODSP(R) AND REGODSP(R) MUST BE IN THE SAME EBANK AND SUPERBANK AS THE LAST NORMAL DISPLAY RESTARTED
000457:                                                                                                  #           BY A .1 RESTART PHASE CHANGE.
000458:                                                                                                  #        6. IN ORDER TO SET UP A NON DISPLAY .1 RESTART POINT, THE USER MUST MAKE CERTAIN THAT RESTREG CONTAINS THE
000459:                                                                                                  #           CORRECT PRIORITY AND SUPERBANK AND THAT EBANKTEM CONTAINS THE CO
000460:                                                                                                  #        7. IF CLEANDSP IS RESTARTED VIA A .1 PHASE CHANGE, CAF ZERO SHOULD BE EXECUTED BEFORE THE TC BANKCALL
000461:
000462:                                                                                                  #  CALLING SEQUENCE FOR BLANKING
000463:                                                                                                  #                CAF     BITX            X=1,2,3 BLANK R1,R2,R3 RESPECTIVELY
000464:                                                                                                  #                TC      BLANKET
000465:                                                                                                  #                ...     ...             RETURN TO USER HERE
000466:
000467:                                                                                                  #  IN ORDER TO USE BLANKET CORRECTLY THE USER MUST USE A DISPLAY ROUTINE THAT ENDS IN R FIRST FOLLOWED BY THE CALL
000468:                                                                                                  #  TO BLANKET AT THE IMMEDIATE RETURN LOC.
000469:
000470:    4000                                           SETLOC   FFTAG4
000471:    4000                                           BANK
000472:
000473:    5531                                           COUNT*   $$/DSPLA
000474:    5531           54162        BLANKET            TS       MPAC       +6
000475:    5532           40160                           CS       PLAYTEM4
000476:    5533           70162                           MASK     MPAC       +6
000477:    5534           50161                           INDEX    MPAC       +5
000478:    5535           26160                           ADS      PLAYTEM4
000479:
000480:    5536           00002                           TC       Q
000481:
000482:    5537           05542        ENDMARK            TC       CLEARMRK
000483:    5540           04666                           TC       POSTJUMP
000484:    5541           21523                           CADR     MARKOVER
000485:
000486:    5542           35003        CLEARMRK           CAF      ZERO
000487:    5543           55237                           TS       EXTVBACT
000488:
000489:    5544           45001                           CS       XDSPBIT
000490:    5545           70100                           MASK     FLAGWRD4
000491:    5546           54100                           TS       FLAGWRD4
000492:
000493:    5547           00002                           TC       Q
000494:
000495:                                                                                                  #  *** ALL EXTENDED VERB ROUTINES THAT HAVE AT LEAST ONE FLASHING DISPLAY MUST TCF ENDMARK OR TCF ENDEXT WHEN
000496:                                                                                                  #  FINISHED.
000497:
000498:    5550           56001        VNFLASH            XCH      L
000499:    5551           35560                           CAF      VNCADR
000500:    5552           15555                           TCF      VNGODSP
000501:
000502:    5553           56001        VNFLASHR           XCH      L
000503:    5554           35561                           CAF      VNRCADR
000504:    5555           24002        VNGODSP            INCR     Q                                     #  BECAUSE OF RESTARTS
000505:    5556           22155                           LXCH     PLAYTEM1
000506:    5557           14653                           TCF      SWCALL
000507:
000508:    5560           20612        VNCADR             CADR     VNFLSH
000509:    5561           20615        VNRCADR            CADR     VNFLSHR
000510:
000511: 10,2000                                           SETLOC   DISPLAYS
000512: 10,2000                                           BANK
000513:
000514: 10,2455                                           COUNT    10/DSPLA
000515:
000516:                                                                                                  #  NTERONLY IS USED TO DIFFERENTIATE THE MARK ROUTINE WITH ONLY ONE RETURN TO THE USER FROM THE MARKING ROUTINE WIT
000517:                                                                                                  #  3 RETURNS TO THE USER.  THIS ROUTINE IS ONLY USED BY GOMARK1 AND GOMARK1R.
000518:
000519: 10,2455           35003        KLEENEX            CAF      ZERO                                  #  CLEAN OUT EXTENDED VERBS
000520: 10,2456           54155        GOMARKF            TS       PLAYTEM1                              #  ENTRANCE FOR MARK GOFLASH
000521:
000522: 10,2457           37664                           CAF      MARKFMSK                              #  MARK,FLASH
000523: 10,2460           12625                           TCF      GOFLASH2
000524:
000525: 10,2461           54155        GOMARK2            TS       PLAYTEM1                              #  MARK GOPERFS-3 AST. RETURNS
000526: 10,2462           33613        MARKFORM           CAF      MPERFMSK                              #  MARK, PERFORM, FLASH
000527: 10,2463           12625                           TCF      GOFLASH2
000528:
000529: 10,2464           54155        GOMARK4            TS       PLAYTEM1
000530: 10,2465           33603                           CAF      MARK4MSK                              #  MARK,PERFORM,FLASH,BLANK
000531: 10,2466           12625                           TCF      GOFLASH2
000532:
000533: 10,2467           54155        GOMARKFR           TS       PLAYTEM1                              #  ENTRANCE FOR MARK GOFLASHR
000534:
000535: 10,2470           37664                           CAF      MARKFMSK
000536: 10,2471           12763                           TCF      GODSPRS
000537:
000538: 10,2472           54155        MARKMONR           TS       PLAYTEM1                              #  USED FOR MARK MONITOR
000539: 10,2473           33634                           CAF      MARK3MSK
000540: 10,2474           12625                           TCF      GOFLASH2
000541: 10,2475           35001        MAKEMARK           CAF      ONE
000542: 10,2476           03052                           TC       COPIES
000543:
000544: 10,2477           30100                           CA       FLAGWRD4                              #  IS NORM OR PRIO BUSY OR WAITING
000545: 10,2500           73614                           MASK     OCT34300
000546: 10,2501           10000                           CCS      A
000547: 10,2502           12550                           TCF      CHKPRIO
000548:
000549: 10,2503           30100                           CA       FLAGWRD4                              #  IS MARK SLEEPING DUE TO ASTRO BUSY
000550: 10,2504           74771                           MASK     MRKNVBIT
000551: 10,2505           00006                           EXTEND
000552: 10,2506           12510                           BZF      MARKPLAY                              #  NO
000553:
000554: 10,2507           15220                           TCF      ENDOFJOB
000555:
000556: 10,2510           45004        MARKPLAY           CS       FIVE                                  #  RESET MARK OVER NORM, SET MARK
000557: 10,2511           70100                           MASK     FLAGWRD4
000558: 10,2512           65001                           AD       XDSPBIT
000559: 10,2513           54100                           TS       FLAGWRD4
000560: 10,2514           22007        GOGOMARK           ZL                                             #  PERFORM
000561: 10,2515           41264                           CS       MARKFLAG
000562: 10,2516           74772                           MASK     DCMKPERF
000563: 10,2517           10000                           CCS      A
000564: 10,2520           12525                           TCF      +5
000565: 10,2521           30366                           CA       MARKNV
000566: 10,2522           74171                           MASK     MID7
000567: 10,2523           54001                           TS       L
000568: 10,2524           12531                           TCF      +5
000569: 10,2525           41264                           CS       MARKFLAG
000570: 10,2526           74775                           MASK     PERFRQST
000571: 10,2527           10000                           CCS      A
000572: 10,2530           12533                           TCF      MARKCOP
000573: 10,2531           40366                           CS       MARKNV
000574: 10,2532           54366                           TS       MARKNV
000575:
000576: 10,2533           35001        MARKCOP            CAF      ONE                                   #  MARK INDEX
000577: 10,2534           54164                           TS       COPINDEX
000578: 10,2535           13176                           TCF      NVDSP      +1
000579: 10,2536           30165        COPYTOGO           CA       MPAC2SAV
000580: 10,2537           54156                           TS       MPAC       +2
000581:
000582: 10,2540           50164        COPYPACS           INDEX    COPINDEX
000583: 10,2541           33620                           CAF      PRIOOCT
000584: 10,2542           54162                           TS       GENMASK
000585:
000586: 10,2543           50164                           INDEX    COPINDEX
000587: 10,2544           31263                           CAF      EBANKSAV
000588: 10,2545           54160                           TS       TEMPOR2                               #  ACTIVE EBANK AND FLAG
000589:
000590: 10,2546           54003                           TS       EBANK
000591:
000592: 10,2547           00002                           TC       Q
000593:
000594:                                                                                                  #  PINCHEK CHECKS TO SEE IF THE CURRENT MARK REQUEST IS MADE BY THE ASTRONAUT WHILE INTERRUPTING A GOPLAY DISPLAY
000595:                                                                                                  #  (A NORMAL OR A PRIO). IF THE ASTRONAUT TRIES TO MARK DURING A PRIO, THE CHECK FAIL LIGHT GOES ON AND THE MARK
000596:                                                                                                  #  REQUEST IS ENDED. IF HE TRIES TO MARK DURING A NORM, THE MARK IS ALLOWED. IN THIS CASE THE NORM IS PUT TO SLEEP
000597:                                                                                                  #  UNTIL ALL MARKING IS FINISHED.
000598:
000599:                                                                                                  #  IF THE MARK REQUEST COMES FROM THE PROGRAM DURING A TIME THE ASTRONAUT IS NOT INTERRUPTING A NORMAL OR A
000600:                                                                                                  #  PRIO, THE MARK REQUEST IS PUT TO SLEEP UNTIL THE +RESENT ACTIVE DISPLAY IS RESPONDED TO BY THE ASTRONAUT.
000601:
000602: 10,2550           30100        CHKPRIO            CA       FLAGWRD4                              #  MARK ATTEMPT DURING PRIO
000603: 10,2551           77646                           MASK     14,12,7
000604: 10,2552           10000                           CCS      A
000605: 10,2553           13556                           TCF      MARSLEEP
000606:
000607: 10,2554           34777                           CAF      MKOVBIT                               #  SET MARK OVER NORM
000608: 10,2555           03635                           TC       UPENT2
000609:
000610: 10,2556           12660                           TCF      SETNORM
000611:
000612: 10,2557           30366        MARKPERF           CA       MARKNV
000613: 10,2560           74171                           MASK     VERBMASK
000614: 10,2561           13230                           TCF      NV50DSP
000615:
000616: 10,2562           54155        GODSP              TS       PLAYTEM1
000617:
000618: 10,2563           35003        GODSP2             CAF      DSPONLY
000619: 10,2564           12625                           TCF      GOFLASH2
000620:
000621: 10,2565           54155        GODSPRET           TS       PLAYTEM1                              #  ENTRANCE FOR A GODSP WITH A PASTE
000622:
000623: 10,2566           34774                           CAF      RETDSPY                               #  SET BIT6 TO RETURN TO USER AFTER NVSUB
000624: 10,2567           12625                           TCF      GOFLASH2
000625:
000626: 10,2570           54155        GODSPR             TS       PLAYTEM1
000627:
000628: 10,2571           35003        GODSPR1            CAF      DSPONLY
000629: 10,2572           54160        GODSPR2            TS       PLAYTEM4
000630:
000631: 10,2573           35003                           CAF      ZERO                                  #  * DONT MOVE
000632: 10,2574           12765                           TCF      GODSPRS1
000633:
000634:                                                                                                  #  CLEANDSP IS USED FOR CLEARING OUT A NORMAL DISPLAY THAT IS PRESENTLY ACTIVE OR A NORMAL DISPLAY THAT IS
000635:                                                                                                  #  SET UP TO BE STARTED OR RESTARTED.
000636:
000637:                                                                                                  #  NORMALLY THE USER WILL NOT NEED TO USE THIS ROUTINE SINCE A NEW NORMAL DISPLAY AUTOMATICALLY CLEARS OUT AN
000638:                                                                                                  #  OLD DISPLAY.
000639:
000640:                                                                                                  #  CALLING SEQUENCE FOR CLEANDSP-
000641:
000642:                                                                                                  #                TC      BANKCALL
000643:                                                                                                  #                CADR    CLEANDSP
000644:
000645: 10,2575           35003        CLEANDSP           CAF      ZERO
000646: 10,2576           54155        REFLASH            TS       PLAYTEM1
000647:
000648: 10,2577           33602                           CAF      REDOMASK                              #  FLASH AND PERMIT
000649: 10,2600           12625                           TCF      GOFLASH2
000650:
000651: 10,2601           54155        REGODSP            TS       PLAYTEM1
000652:
000653: 10,2602           34764                           CAF      REFLSH
000654: 10,2603           12625                           TCF      GOFLASH2
000655:
000656: 10,2604           54155        REGODSPR           TS       PLAYTEM1
000657:
000658: 10,2605           34764                           CAF      REFLSH
000659: 10,2606           12572                           TCF      GODSPR2
000660:
000661: 10,2607           54155        CLOCPLAY           TS       PLAYTEM1
000662: 10,2610           33630                           CAF      CLOCKCON
000663: 10,2611           12625                           TCF      GOFLASH2
000664: 10,2612           07710        VNFLSH             TC       UPFLAG
000665: 10,2613           00111                           ADRES    VNFLAG
000666: 10,2614           12624                           TCF      GOFLASH    +1
000667:
000668: 10,2615           07710        VNFLSHR            TC       UPFLAG
000669: 10,2616           00111                           ADRES    VNFLAG
000670: 10,2617           34776                           CAF      FLSHRQST
000671: 10,2620           54160                           TS       PLAYTEM4                              #  IT'S A FLASHING DISPLAY
000672: 10,2621           35003                           CAF      ZERO                                  #  RETURN TO CALLER'S Q +1
000673: 10,2622           12765                           TCF      GODSPRS1
000674:
000675: 10,2623           54155        GOFLASH            TS       PLAYTEM1
000676:
000677: 10,2624           34776                 +1        CAF      FLSHRQST                              #  LEAVE ONLY FLASH BIT SET
000678: 10,2625           54160        GOFLASH2           TS       PLAYTEM4
000679:
000680: 10,2626           03037                           TC       SAVELOCS
000681:
000682: 10,2627           12672                           TCF      MAKEPLAY                              #  BRANCH DIRECT WITH NO SEPARATE JOB CALL
000683:
000684: 10,2630           54155        PRIODSPR           TS       PLAYTEM1
000685:
000686: 10,2631           35025                           CAF      BITS7+4
000687: 10,2632           12763                           TCF      GODSPRS
000688:
000689: 10,2633           54155        PRIODSP            TS       PLAYTEM1
000690:
000691: 10,2634           35025        SETPRIO            CAF      BITS7+4
000692: 10,2635           12625                           TCF      GOFLASH2
000693:
000694: 10,2636           35003        MAKEPRIO           CAF      ZERO
000695: 10,2637           54164                           TS       COPINDEX
000696:
000697: 10,2640           03503                           TC       LINUSCHR
000698: 10,2641           12646                           TCF      HIPRIO                                #  LINUS RETURN
000699: 10,2642           30100                           CA       FLAGWRD4
000700: 10,2643           73627                           MASK     BIT14+7                               #  IS PRIO IN ENDIDLE OR BUSY
000701: 10,2644           10000                           CCS      A
000702: 10,2645           12721                           TCF      PRIOBORT                              #  YES, ABORT
000703:
000704: 10,2646           30100        HIPRIO             CA       FLAGWRD4                              #  MARK ACTIVE
000705: 10,2647           77760                           MASK     BIT15+9
000706: 10,2650           00006                           EXTEND
000707: 10,2651           12654                           BZF      ASKIFNRM                              #  NO
000708:
000709: 10,2652           35003        SETMARK            CAF      ZERO
000710: 10,2653           13106                           TCF      JOBXCHS
000711:
000712: 10,2654           30100        ASKIFNRM           CA       FLAGWRD4                              #  NORMAL ACTIVE
000713: 10,2655           73625                           MASK     BIT13+8
000714: 10,2656           00006                           EXTEND
000715: 10,2657           12662                           BZF      OKTOCOPY                              #  NO
000716:
000717: 10,2660           35001        SETNORM            CAF      ONE
000718: 10,2661           13106                           TCF      JOBXCHS
000719:
000720: 10,2662           03051        OKTOCOPY           TC       COPYNORM
000721: 10,2663           03311                           TC       WITCHONE
000722:
000723: 10,2664           05202                           TC       JOBWAKE
000724:
000725: 10,2665           03325                           TC       XCHTOEND
000726:
000727: 10,2666           30025        REDOPRIO           CA       TIME1                                 #  SAVE TIME PRIODSP SENT OUT
000728: 10,2667           55000                           TS       PRIOTIME
000729:
000730: 10,2670           35003        KEEPPRIO           CAF      ZERO                                  #  START UP PRIO DISPLAY
000731: 10,2671           12742                           TCF      PRIOPLAY
000732:
000733: 10,2672           30167        MAKEPLAY           CA       PRIORITY                              #  SAVE USERS PRIORITY
000734: 10,2673           77660                           MASK     PRIO37
000735: 10,2674           54163                           TS       USERPRIO
000736:
000737: 10,2675           37655                           CAF      PRIO33                                #  RAISE PRIORITY FOR FAST JOBS AFTER WAKE
000738: 10,2676           05211                           TC       PRIOCHNG
000739:
000740: 10,2677           30160                           CA       PLAYTEM4                              #  IS IT MARK OR PRIO OR NORM
000741: 10,2700           73615                           MASK     BITS15+7
000742: 10,2701           10000                           CCS      A
000743: 10,2702           12636                           TCF      MAKEPRIO                              #  ITS PRIO
000744: 10,2703           12705                           TCF      IFLEGAL
000745: 10,2704           12475                           TCF      MAKEMARK                              #  ITS MARK
000746:
000747: 10,2705           35000        IFLEGAL            CAF      TWO
000748: 10,2706           54164                           TS       COPINDEX
000749:
000750: 10,2707           03503                           TC       LINUSCHR
000751:
000752: 10,2710           12723                           TCF      OKTOPLAY                              #  LINUS RETURN
000753: 10,2711           41265                           CS       EBANKTEM
000754: 10,2712           74776                           MASK     FLSHRQST
000755: 10,2713           10000                           CCS      A
000756: 10,2714           12723                           TCF      OKTOPLAY                              #  NO
000757:
000758: 10,2715           30100                           CA       FLAGWRD4                              #  WAS NORM ASLEEP
000759: 10,2716           73607                           MASK     NBUSMASK                              #  ARE ANY NORMS ASLEEP
000760: 10,2717           00006                           EXTEND
000761: 10,2720           12723                           BZF      OKTOPLAY                              #  NO
000762:
000763: 10,2721           05701        PRIOBORT           TC       POODOO
000764: 10,2722           21502                           OCT      21502                                 #  ILLEGAL FLASHING DISPLAY
000765:
000766: 10,2723           03053        OKTOPLAY           TC       COPIES2
000767: 10,2724           30163                           CA       USERPRIO
000768: 10,2725           00006                           EXTEND
000769: 10,2726           04007                           ROR      SUPERBNK
000770: 10,2727           54364                           TS       RESTREG
000771:
000772: 10,2730           30100                           CA       FLAGWRD4                              #  PRIO OR MARK GOING
000773: 10,2731           73610                           MASK     PMMASK
000774: 10,2732           10000                           CCS      A
000775: 10,2733           13070                           TCF      GOSLEEPS                              #  YES
000776:
000777: 10,2734           12736                           TCF      +2
000778: 10,2735           13070                           TCF      GOSLEEPS                              #  MARK GOING
000779:
000780:                                                                                                  #  COULD PUT NORM BUSY CHECK HERE TO SAVE TIME
000781:
000782: 10,2736           03311                           TC       WITCHONE                              #  IS IT NVSUB BUSY, ENDIDLE OR NOONE
000783: 10,2737           05202                           TC       JOBWAKE
000784:
000785: 10,2740           03325                           TC       XCHTOEND
000786:
000787: 10,2741           35000        PLAYJUM1           CAF      TWO
000788: 10,2742           54164        PRIOPLAY           TS       COPINDEX
000789:
000790: 10,2743           13175                           TCF      GOPLAY
000791:
000792: 10,2744           54155        EXDSPRET           TS       PLAYTEM1
000793:
000794: 10,2745           37667                           CAF      BIT15+6
000795: 10,2746           12625                           TCF      GOFLASH2
000796:
000797: 10,2747           55240        GOPERF1            TS       NORMTEM1                              #  STORE DESIRED CHECKLIST VALUE
000798: 10,2750           33600                           CAF      V01N25                                #  USED TO DISPLAY CHECKLIST VALUE IN R1
000799:
000800: 10,2751           54155        GOPERFS            TS       PLAYTEM1
000801:
000802: 10,2752           33577                           CAF      PERFMASK                              #  LEAVE ONLY FLASH, PERFORM, BLANKING
000803: 10,2753           12625                           TCF      GOFLASH2
000804:
000805: 10,2754           54770        GOPERF4            TS       OPTION1                               #  DESIRED OPTION CODE
000806:
000807: 10,2755           34605                           CAF      V04N06
000808: 10,2756           54155                           TS       PLAYTEM1
000809:
000810: 10,2757           35750                           CAF      PERF4MSK                              #  FLASH, PERFORM, AND BLANK R3
000811: 10,2760           12625                           TCF      GOFLASH2
000812:
000813: 10,2761           54155        GOFLASHR           TS       PLAYTEM1
000814:
000815: 10,2762           34776                           CAF      FLSHRQST                              #  LEAVE ONLY FLASH BIT SET
000816: 10,2763           54160        GODSPRS            TS       PLAYTEM4
000817: 10,2764           36214                           CAF      THREE
000818:
000819: 10,2765           00004        GODSPRS1           INHINT                                         #  IMMEDIATE RETURN IS CALL CADR +4
000820: 10,2766           54072                           TS       RUPTREG3
000821:
000822: 10,2767           30167                           CA       PRIORITY                              #  MAKE DISPLAY ONE HIGHER THAN USER
000823: 10,2770           77660                           MASK     PRIO37
000824: 10,2771           54063                           TS       NEWPRIO
000825:
000826: 10,2772           30160                           CA       PLAYTEM4                              #  IS THIS A FLASHING R DISPLAY
000827: 10,2773           74776                           MASK     FLSHRQST
000828: 10,2774           10000                           CCS      A
000829: 10,2775           13003                           TCF      VACDSP                                #  YES, MAKE DSPLAY JOB A VAC
000830: 10,2776           30063                           CA       NEWPRIO                               #  NO, MAKE DSPLAY JOB A NOVAC
000831: 10,2777           05134                           TC       NOVAC
000832: 10,3000  0003777                                  EBANK=   WHOCARES
000833: 10,3000           02672 20067                     2CADR    MAKEPLAY
000834:
000835: 10,3002           13011                           TCF      BOTHJOBS
000836:
000837: 10,3003           30006        VACDSP             CA       BBANK
000838: 10,3004           00006                           EXTEND
000839: 10,3005           04007                           ROR      SUPERBNK
000840: 10,3006           54001                           TS       L
000841: 10,3007           33624                           CAF      MAKEGEN
000842: 10,3010           05161                           TC       SPVAC
000843:
000844: 10,3011           03037        BOTHJOBS           TC       SAVELOCS                              #  COPY TEMPS INTO PERMANENT REGISTERS
000845:
000846: 10,3012           00006                           EXTEND                                         #  SAVE NVWORD AND USERS MPAC +2
000847: 10,3013           30156                           DCA      MPAC       +1
000848: 10,3014           50064                           INDEX    LOCCTR
000849: 10,3015           52156                           DXCH     MPAC       +1
000850:
000851: 10,3016           00006                           EXTEND                                         #  SAVE USERS CADR, FLAGS AND EBANK
000852: 10,3017           30160                           DCA      MPAC       +3
000853: 10,3020           50064                           INDEX    LOCCTR
000854: 10,3021           52160                           DXCH     MPAC       +3
000855:
000856: 10,3022           30064                           CA       LOCCTR
000857: 10,3023           54161                           TS       MPAC       +5
000858:
000859: 10,3024           03044                           TC       SAVELOCR
000860: 10,3025           00003                           RELINT
000861:
000862: 10,3026           14671                           TCF      BANKJUMP                              #  CALL CADR +4
000863:
000864: 10,3027           55240        GOPERF1R           TS       NORMTEM1                              #  DESIRED CHECKLIST VALUE
000865:
000866: 10,3030           33600                           CAF      V01N25                                #  DISPLAYS CHECKLIST VALUE IN R1
000867:
000868:
000869: 10,3031           54155        GOPERFRS           TS       PLAYTEM1
000870:
000871: 10,3032           33577                           CAF      PERFMASK                              #  LEAVE ONLY FLASH, PERFORM, BLANKING
000872: 10,3033           12763                           TCF      GODSPRS
000873:
000874: 10,3034           54155        GOPERF2R           TS       PLAYTEM1                              #  DESIRED VERB-NOUN TO DISPLAY R1,R2,R3
000875:
000876: 10,3035           35012                           CAF      PERF2MSK
000877: 10,3036           12763                           TCF      GODSPRS
000878:
000879: 10,3037           00004        SAVELOCS           INHINT
000880:
000881: 10,3040           45060                           CS       EBANK7                                #  GETS ALL EBANK BITS OFF
000882: 10,3041           70160                           MASK     PLAYTEM4
000883: 10,3042           60003                           AD       EBANK
000884: 10,3043           54160                           TS       PLAYTEM4
000885:
000886: 10,3044           22002        SAVELOCR           LXCH     Q
000887:
000888: 10,3045           04676                           TC       MAKECADR
000889: 10,3046           54157                           TS       PLAYTEM3
000890:
000891: 10,3047           60072                           AD       RUPTREG3                              #  NOT USED FOR NON R ROUTINES
000892: 10,3050           00001                           TC       L
000893:
000894: 10,3051           35003        COPYNORM           CAF      ZERO
000895: 10,3052           54164        COPIES             TS       COPINDEX
000896: 10,3053           30160        COPIES2            CA       PLAYTEM4                              #  FLAGWORD
000897: 10,3054           50164                           INDEX    COPINDEX
000898: 10,3055           55263                           TS       EBANKSAV                              #  EQUIV TO DSPFLG
000899:
000900: 10,3056           75016                           MASK     CADRMASK                              #  FLASH AND GODSPRET
000901: 10,3057           00006                           EXTEND
000902: 10,3060           13064                           BZF      SKIPADD
000903:
000904: 10,3061           30157                           CA       PLAYTEM3
000905: 10,3062           50164                           INDEX    COPINDEX
000906: 10,3063           54370                           TS       CADRFLSH
000907:
000908: 10,3064           30155        SKIPADD            CA       PLAYTEM1                              #  VERB NOUN
000909: 10,3065           50164                           INDEX    COPINDEX
000910: 10,3066           54365                           TS       NVWORD
000911:
000912: 10,3067           13334                           TCF      RELINTQ
000913:
000914: 10,3070           50164        GOSLEEPS           INDEX    COPINDEX
000915: 10,3071           33620                           CA       PRIOOCT
000916: 10,3072           75057                           MASK     WAITMASK
000917: 10,3073           03635                           TC       UPENT2
000918: 10,3074           45001                           CS       ONE
000919: 10,3075           60164                           AD       COPINDEX
000920: 10,3076           54154                           TS       FACEREG
000921:
000922: 10,3077           50154        XCHSLEEP           INDEX    FACEREG
000923: 10,3100           33605                           CAF      WAKECADR
000924: 10,3101           05202                           TC       JOBWAKE                               #  FIND CADR IN JOB AREA
000925:
000926: 10,3102           03325                           TC       XCHTOEND                              #  CAUSES AWAKENED JOB TO GO TO ENDOFJOB
000927:
000928: 10,3103           50154                           INDEX    FACEREG                               #  REPLACE SAME CADR BUT NEW JOB AREA
000929: 10,3104           33605                           CAF      WAKECADR
000930: 10,3105           15176                           TCF      JOBSLEEP
000931:
000932: 10,3106           54154        JOBXCHS            TS       FACEREG                               #  CONTROLS TYPE OF DISPLAY PUT TO SLEEP
000933: 10,3107           03311                           TC       WITCHONE
000934: 10,3110           05202                           TC       JOBWAKE
000935: 10,3111           30154                           CA       FACEREG
000936: 10,3112           50064                           INDEX    LOCCTR
000937: 10,3113           54154                           TS       FACEREG
000938:
000939: 10,3114           33632                           CAF      XCHQADD
000940: 10,3115           03326                           TC       XCHNYLOC
000941:
000942: 10,3116           50154                           INDEX    FACEREG
000943: 10,3117           33621                           CA       MARKOCT
000944: 10,3120           73623                           MASK     IDLESLEP
000945: 10,3121           03642                           TC       DOWNENT2
000946: 10,3122           50154                           INDEX    FACEREG                               #  BIT SHOWS PRIO INTERRUPTED NORM OR MARK
000947: 10,3123           34775                           CA       MRUPTBIT                              #  BIT5 FOR MARK, BIT4 FOR NORMAL
000948: 10,3124           03635                           TC       UPENT2
000949: 10,3125           30100                           CA       FLAGWRD4
000950: 10,3126           74777                           MASK     MKOVBIT                               #  IF BIT 3 THEN MARK OVER NORM
000951: 10,3127           10000                           CCS      A
000952: 10,3130           02510        GENMARK            TC       MARKPLAY                              #  USED AS GENADR FOR JOBWAKE
000953: 10,3131           12662                           TCF      OKTOCOPY
000954:
000955: 10,3132           35003        MARKWAKE           CAF      ZERO
000956: 10,3133           54160        WAKEPLAY           TS       TEMPOR2
000957:
000958: 10,3134           50160                           INDEX    TEMPOR2
000959: 10,3135           33616                           CA       BITS5+11
000960: 10,3136           03642                           TC       DOWNENT2
000961: 10,3137           50160                           INDEX    TEMPOR2
000962: 10,3140           33605                           CAF      WAKECADR
000963: 10,3141           05202                           TC       JOBWAKE
000964:
000965: 10,3142           13435                           TCF      ENDRET
000966:
000967:                                                                                                  #  ALL .1 RESTARTS BRANCH DIRECTLY TO INITDSP. NORMAL DISPLAYS ARE THE ONLY DISPLAYS ALLOWED TO USE .1 RESTARTS
000968:                                                                                                  #  INITDSP FIRST RESTORES THE EBANK AND THE SUPERBANK TO THE MOST RECENT NORMAL EBANK AND SUPERBANK.
000969:                                                                                                  #  IF THE MOST RECENT NORMAL DISPLAY REQUEST WAS NOT FINISHED, CONTROL IS SENT BACK TO THE LAST NORMAL USER.
000970:                                                                                                  #  OTHERWISE THE NORMAL DISPLAY SET UP IN THE NORMAL DISPLAY REGS IS STARTED UP IMMEDIATELY.
000971:
000972: 10,3143           31265        INITDSP            CA       EBANKTEM                              #  RESTORE MOST RECECT NORMAL EBANK
000973: 10,3144           54003                           TS       EBANK
000974:
000975: 10,3145           30364                           CA       RESTREG                               #  SUPERBANK AND JOB PRIORITY
000976: 10,3146           00006                           EXTEND                                         #  RESTORE SUPERBANK
000977: 10,3147           01007                           WRITE    SUPERBNK                              #  CHAN 07
000978: 10,3150           77660                           MASK     PRIO37
000979: 10,3151           05211                           TC       PRIOCHNG
000980:
000981: 10,3152           46214                           CS       THREE
000982: 10,3153           60372                           AD       TEMPFLSH
000983: 10,3154           14671                           TCF      BANKJUMP
000984:
000985: 10,3155           00003        PINBRNCH           RELINT                                         #  FOR GOPIN USERS
000986: 10,3156           31266                           CA       MARK2PAC                              #  NEEDED TO SAVE MPAC +2 FOR MARK USERS
000987: 10,3157           54156                           TS       MPAC       +2                         #  ONLY
000988:
000989: 10,3160           30100                           CA       FLAGWRD4                              #  PINBRANCH CONDITION
000990: 10,3161           77673                           MASK     PINMASK
000991: 10,3162           10000                           CCS      A
000992: 10,3163           13166                           TCF      +3
000993: 10,3164           13573                           TCF      ERASER                                #  ** NOTHING IN ENDIDLE
000994: 10,3165           12510                           TCF      MARKPLAY
000995:
000996: 10,3166           07710        NORMBNCH           TC       UPFLAG                                #  SET PINBRANCH BIT
000997: 10,3167           00105                           ADRES    PINBRFLG
000998:
000999: 10,3170           34764                           CAF      PRIODBIT                              #  PRIO INTERRUPTED
001000: 10,3171           70100                           MASK     FLAGWRD4
001001: 10,3172           10000                           CCS      A
001002: 10,3173           12670                           TCF      KEEPPRIO
001003:
001004: 10,3174           12741                           TCF      PLAYJUM1
001005:
001006: 10,3175           22007        NVDSP              ZL
001007: 10,3176           02540                           TC       COPYPACS
001008: 10,3177           30160                           CA       TEMPOR2                               #  SET UP BLANK BITS FOR NVMONOPT IN CASE
001009: 10,3200           75005                           MASK     SEVEN                                 #  USER REQUESTS BLANKING MONITOR
001010: 10,3201           26001                           ADS      L
001011: 10,3202           44765                           CS       2NDPERF
001012: 10,3203           50164                           INDEX    COPINDEX
001013: 10,3204           71263                           MASK     DSPFLG
001014: 10,3205           50164                           INDEX    COPINDEX
001015: 10,3206           55263                           TS       DSPFLG
001016:
001017: 10,3207           74772                           MASK     DCMKPERF
001018: 10,3210           10000                           CCS      A
001019: 10,3211           35056                           CA       OCT2600
001020: 10,3212           54141                           TS       TEM1
001021:
001022: 10,3213           30156                           CA       MPAC       +2
001023: 10,3214           54165                           TS       MPAC2SAV
001024:
001025: 10,3215           55266                           TS       MARK2PAC                              #  * FOR DISK ONLY *
001026: 10,3216           50164                           INDEX    COPINDEX
001027: 10,3217           10365                           CCS      NVWORD
001028: 10,3220           13227                           TCF      NVDSP1
001029: 10,3221           13335                           TCF      CLEANEND
001030: 10,3222           40366                           CS       MARKNV
001031: 10,3223           54366                           TS       MARKNV                                #  IN CASE MARKPLAY AWAKENED AFTER SLEEPING
001032: 10,3224           76043                           MASK     LOW7
001033: 10,3225           63611                           AD       V05N00M1
001034: 10,3226           60141                           AD       TEM1
001035: 10,3227           65001        NVDSP1             AD       ONE
001036: 10,3230           04203        NV50DSP            TC       NVMONOPT
001037: 10,3231           13347                           TCF      REST                                  #  IF BUSY
001038: 10,3232           04417                           TC       FLASHOFF                              #  IN CASE OF EXTENDED VERB NON FLASH
001039:
001040: 10,3233           02536                           TC       COPYTOGO                              #  MPACS DESTROYED BY NVSUB
001041: 10,3234           33612                           CAF      OCT700
001042: 10,3235           03642                           TC       DOWNENT2
001043:
001044: 10,3236           30160        BLANKCHK           CA       TEMPOR2                               #  BLANK BITS 1,2,3 IF SET
001045: 10,3237           04264                           TC       BLANKSUB
001046: 10,3240           13175                           TCF      NVDSP
001047: 10,3241           34775        PERFCHEK           CAF      PERFRQST                              #  BIT5 FOR PERFORM
001048: 10,3242           70160                           MASK     TEMPOR2
001049: 10,3243           10000                           CCS      A                                     #  IS THIS A GOPERF DISPLAY
001050: 10,3244           13267                           TCF      1STOR2ND                              #  YES
001051:
001052: 10,3245           34776        GOANIDLE           CAF      FLSHRQST
001053: 10,3246           70160                           MASK     TEMPOR2
001054: 10,3247           10000                           CCS      A
001055: 10,3250           13364                           TCF      FLASHSUB                              #  IT IS
001056:
001057: 10,3251           40160                           CS       TEMPOR2                               #  IS THIS A GODSPRET
001058: 10,3252           74774                           MASK     RETDSPY
001059: 10,3253           10000                           CCS      A
001060: 10,3254           13261                           TCF      ISITN00
001061:
001062: 10,3255           50164                           INDEX    COPINDEX
001063: 10,3256           30370                           CA       CADRFLSH
001064: 10,3257           54157                           TS       MPAC       +3
001065: 10,3260           13462                           TCF      ENDIT
001066:
001067: 10,3261           50164        ISITN00            INDEX    COPINDEX                              #  IS THIS A PASTE
001068: 10,3262           30365                           CA       NVWORD
001069: 10,3263           76043                           MASK     LOW7                                  #  CHECK MADE FOR PINBRNCH AND PRIO ON MARK
001070: 10,3264           00006                           EXTEND
001071: 10,3265           13364                           BZF      FLASHSUB                              #  YES, ASSUME PASTE ALWAYS ON FLASH
001072:
001073: 10,3266           15220                           TCF      ENDOFJOB                              #  NOT FLASH, NOT GOPERF, THERFORE EXIT
001074:
001075: 10,3267           30160        1STOR2ND           CA       TEMPOR2
001076: 10,3270           74765                           MASK     2NDPERF
001077: 10,3271           10000                           CCS      A
001078: 10,3272           13245                           TCF      GOANIDLE                              #  SECOND
001079:
001080: 10,3273           34765                           CA       2NDPERF
001081: 10,3274           50164                           INDEX    COPINDEX
001082: 10,3275           27263                           ADS      DSPFLG
001083:
001084: 10,3276           22007                           ZL
001085: 10,3277           00006                           EXTEND                                         #  IS IT MARK
001086: 10,3300           62557                           BZMF     MARKPERF                              #  YES
001087:
001088: 10,3301           74766                           MASK     V99PSTE
001089: 10,3302           00006                           EXTEND
001090: 10,3303           13307                           BZF      V50PASTE
001091: 10,3304           40772                           CS       NVWORD1                               #  NVOWRD1= -0 IS V97.  NVWORD1= -400 IS V99
001092: 10,3305           63626                           AD       V97N00
001093: 10,3306           13230                           TCF      NV50DSP
001094: 10,3307           33601        V50PASTE           CAF      V50N00
001095: 10,3310           13230                           TCF      NV50DSP                               #  DISPLAY SECOND PART OF GOPERF
001096:
001097: 10,3311           44775        WITCHONE           CS       BIT5                                  #  TURN OFF KEY RELEASE LIGHT
001098: 10,3312           00006                           EXTEND
001099: 10,3313           03011                           WAND     DSALMOUT
001100:
001101: 10,3314           30100                           CA       FLAGWRD4
001102: 10,3315           73612                           MASK     NVBUSMSK                              #  IS IT NVSUB ASLEEP
001103: 10,3316           10000                           CCS      A
001104: 10,3317           35001                           CAF      ONE
001105: 10,3320           54001                           TS       L
001106: 10,3321           35003                           CAF      ZERO
001107: 10,3322           50001                           INDEX    L
001108: 10,3323           57235                           XCH      CADRSTOR
001109:
001110: 10,3324           00002                           TC       Q
001111:
001112: 10,3325           34170        XCHTOEND           CAF      ENDINST                               #  TC ENDOFJOB REPLACES GENADR IN LOC FOR
001113: 10,3326           56064        XCHNYLOC           XCH      LOCCTR                                #  WAS THIS ADDRESS SLEEPING
001114: 10,3327           00006                           EXTEND
001115: 10,3330           63334                           BZMF     RELINTQ                               #  NO
001116: 10,3331           56064                           XCH      LOCCTR                                #  YES
001117: 10,3332           50064                           INDEX    LOCCTR
001118: 10,3333           54164                           TS       LOC
001119:
001120:
001121: 10,3334           15615        RELINTQ            TCF      REQ                                   #  BACK TO USER
001122: 10,3335           37654        CLEANEND           CAF      PRIO32                                #  ONE LOWER THAN DISPLAYS SLEEPING
001123: 10,3336           05150                           TC       FINDVAC
001124: 10,3337     0367                                  EBANK=   NVSAVE
001125: 10,3337           04247 04060                     2CADR    JAMTERM
001126:
001127: 10,3341           13365                           TCF      FLASHSUB   +1
001128:
001129: 10,3342           30100        ISITPRIO           CA       FLAGWRD4
001130: 10,3343           77667                           MASK     ITISMASK                              #  IS PINBRFLG, MARKIDFLG SET
001131: 10,3344           00006                           EXTEND
001132: 10,3345           12721                           BZF      PRIOBORT
001133: 10,3346           15220                           TCF      ENDOFJOB
001134:
001135: 10,3347           11235        REST               CCS      CADRSTOR                              #  IS SOMEONE IN ENDIDLE
001136: 10,3350           15220                           TCF      ENDOFJOB                              #  YES
001137: 10,3351           13353                           TCF      RESTSLEP
001138:
001139: 10,3352           15220                           TCF      ENDOFJOB
001140:
001141: 10,3353           30162        RESTSLEP           CA       GENMASK                               #  SET NVSLEEP BITS
001142: 10,3354           73612                           MASK     NVBUSMSK
001143: 10,3355           03635                           TC       UPENT2
001144: 10,3356           04240        NVSUBUSY           TC       ISCADR+0
001145: 10,3357           04356                           TC       RELDSPON
001146: 10,3360           50164                           INDEX    COPINDEX
001147: 10,3361           33604                           CAF      NVCADR
001148: 10,3362           55236                           TS       DSPLIST
001149: 10,3363           05176                           TC       JOBSLEEP
001150: 10,3364           04360        FLASHSUB           TC       FLASHON
001151:
001152: 10,3365           30164                 +1        CA       COPINDEX                              #  COPINDEX DESTROYED BY ENDIDLE
001153: 10,3366           54157                           TS       COPMPAC
001154:
001155: 10,3367           30162                           CA       GENMASK
001156: 10,3370           77675                           MASK     IDLEMASK
001157: 10,3371           03635                           TC       UPENT2
001158: 10,3372           11235                           CCS      CADRSTOR                              #  SEE IF SOMEONE ALREADY IN ENDIDLE
001159: 10,3373           13342                           TCF      ISITPRIO
001160: 10,3374           13376                           TCF      +2
001161: 10,3375           13342                           TCF      ISITPRIO
001162:
001163: 10,3376           04240        ENDIDLE            TC       ISCADR+0
001164: 10,3377           33437                           CA       ENDIDRET
001165: 10,3400           55235                           TS       CADRSTOR
001166: 10,3401           05176                           TC       JOBSLEEP
001167: 10,3402           44354        IDLERET1           CS       LOWLOAD
001168: 10,3403           60154                           AD       MPAC                                  #  VERBREG
001169: 10,3404           00006                           EXTEND
001170: 10,3405           26000                           DIM      A
001171: 10,3406           00006                           EXTEND
001172: 10,3407           13563                           BZF      LOADITIS                              #  V21 OR V22 OR V23 ON DSKY
001173: 10,3410           30100        OKTOENT            CA       FLAGWRD4                              #  CHECK NATURE OF ENDIDLE RETURN
001174: 10,3411           74076                           MASK     BIT15/14
001175: 10,3412           10000                           CCS      A
001176: 10,3413           13416                           TCF      TIMECHEK                              #  PRIO ENDIDLE RETURN
001177: 10,3414           13531                           TCF      NORMRET                               #  NORMAL ENDIDLE RETURN
001178: 10,3415           13520                           TCF      MARKRET                               #  MARK ENDIDLE RETURN
001179:
001180: 10,3416           30365        TIMECHEK           CA       NVWORD
001181: 10,3417           00006                           EXTEND
001182: 10,3420           13531                           BZF      NORMRET
001183:
001184: 10,3421           40025                           CS       TIME1
001185: 10,3422           61000                           AD       PRIOTIME
001186: 10,3423           10000                           CCS      A
001187: 10,3424           40000                           COM
001188: 10,3425           67663                           AD       OCT37776
001189: 10,3426           65001                           AD       ONE
001190: 10,3427           63654                           AD       -2SEC
001191: 10,3430           00006                           EXTEND
001192: 10,3431           62670                           BZMF     KEEPPRIO
001193:
001194: 10,3432           13531                           TCF      NORMRET
001195:
001196: 10,3433           35001        NORMWAKE           CAF      ONE
001197: 10,3434           13133                           TCF      WAKEPLAY
001198:
001199:
001200: 10,3435           11207        ENDRET             CCS      LOADSTAT                              #  -0=V32 OR E, -1=V33 OR PRO, -2=V34
001201: 10,3436           15220                           TCF      ENDOFJOB                              #  +1=ENDMARK
001202: 10,3437           21402        ENDIDRET           CADR     IDLERET1                              #  CANNOT GET HERE
001203: 10,3440           13441                           TCF      +1
001204: 10,3441           30100                           CA       FLAGWRD4                              #  IS IT A VNFLASH
001205: 10,3442           75000                           MASK     VNBIT                                 #     (BIT2)
001206: 10,3443           60157                           AD       COPMPAC                               #    AND A NORMAL DISPLAY
001207: 10,3444           66061                           AD       NEG4
001208: 10,3445           00006                           EXTEND
001209: 10,3446           13467                           BZF      VNRET
001210: 10,3447           31207                           CA       LOADSTAT
001211: 10,3450           65000                           AD       TWO
001212: 10,3451           50157        ENDRET1            INDEX    COPMPAC
001213: 10,3452           60370                           AD       CADRFLSH
001214: 10,3453           54157        ENDRET2            TS       MPAC       +3
001215:
001216: 10,3454           30162                           CA       GENMASK                               #  REMOVE ENDIDLE AND PINBRANCH BITS
001217: 10,3455           73631                           MASK     PINIDMSK
001218: 10,3456           03642                           TC       DOWNENT2
001219: 10,3457           46214                           CS       THREE                                 #  BLANK EVERYTHING EXCEPT MM
001220: 10,3460           04202                           TC       NVSUB
001221: 10,3461           13462                           TCF      +1
001222:
001223: 10,3462           30163        ENDIT              CA       USERPRIO                              #  RETURN TO USERS PRIORITY
001224: 10,3463           77660                           MASK     PRIO37
001225: 10,3464           05211                           TC       PRIOCHNG
001226: 10,3465           30157                           CA       MPAC       +3
001227: 10,3466           14671                           TCF      BANKJUMP
001228:
001229: 10,3467           07722        VNRET              TC       DOWNFLAG
001230: 10,3470           00111                           ADRES    VNFLAG
001231: 10,3471           31207                           CA       LOADSTAT
001232: 10,3472           65001                           AD       ONE
001233: 10,3473           10000                           CCS      A
001234: 10,3474           37700                           CAF      NEG3                                  #  LOADOSTAT.-0
001235: 10,3475           13451                           TCF      ENDRET1                               #  CANNOT GET HERE VIA CCS
001236: 10,3476           13501                           TCF      TERMFLSH                              #  LOADSTAT=-2
001237: 10,3477           45001                           CS       ONE                                   #  COMPENSATE FOR INCREMENTED Q IN LEAD-IN
001238: 10,3500           13451                           TCF      ENDRET1                               #  LOADSTAT=-1
001239: 10,3501           33633        TERMFLSH           CAF      GOPOOCAD
001240: 10,3502           13453                           TCF      ENDRET2
001241:
001242:
001243: 10,3503           40160        LINUSCHR           CS       PLAYTEM4                              #  IS THIS A LINUS
001244: 10,3504           74764                           MASK     REFLSH
001245: 10,3505           10000                           CCS      A
001246: 10,3506           16706                           TCF      Q+1                                   #  NO
001247: 10,3507           40157                           CS       PLAYTEM3                              #  YES, IS IT ALREADY IN ENDIDLE
001248: 10,3510           50164                           INDEX    COPINDEX
001249: 10,3511           60370                           AD       CADRFLSH
001250: 10,3512           00006                           EXTEND
001251: 10,3513           13515                           BZF      +2                                    #  YES
001252:
001253: 10,3514           00002                           TC       Q                                     #  NO
001254: 10,3515           11205                           CCS      DSPLOCK                               #  IS THE ASTRONAUT BUSY
001255: 10,3516           05220                           TC       ENDOFJOB                              #  END THE NEW DISPLAY, ITS ALREADY ACTIVE
001256: 10,3517           00002                           TC       Q
001257:
001258:                                                                                                  #  MORE LOGIC COULD BE INCORPORATED HERE TO MAKE SURE A RECYCLE IS A RECYCLAND CONVERSLY THAT A LOAD IS A LOAD.
001259:
001260:                                                                                                  #  LASTPLAY CHECKS TO SEE IF (1) THE LAST NORMAL DISPLAY WAS EITHER INTERRUPTED BY A PRIO OR A MARK (MARK
001261:                                                                                                  #  COULD ONLY HAPPEN DURING PINBRANCH) OR IF (2) THE LAST NORMAL DISPLAY WAS REQUESTED WHILE A HIGHER PRIORITY
001262:                                                                                                  #  DISPLAY WAS GOING RESULTING IN THE NORMAL BEING PUT TO SLEEP.
001263:
001264:                                                                                                  #  IF EITHER OF THE ABOVE 2 CONDITIONS EXISTS, THE NORMAL DISPLAY IS AWAKENED TO GO TO PLAYJUM1 WHICH STARTS
001265:                                                                                                  #  UP THE MOST RECENT VALID NORMAL DISPLAY. IF THESE 2 CONDITIONS DO NOT EXIST, CONTROL GOES TO PLAYJUM1 WHICH IS
001266:                                                                                                  #  STARTED IMMEDIATELY WITH THE ASSUMPTION THAT THE MOST RECENT NORMAL DISPLAY IS ALREADY IN-ENDIDLE (DURING A
001267:                                                                                                  #  PINBRANCH) OR THAT A RESTART HAS OCCURRED AND THE DISPLAY CAN BE STARTED AS A .1 RESTART.
001268:
001269: 10,3520           34777        MARKRET            CAF      MKOVBIT
001270: 10,3521           03642                           TC       DOWNENT2
001271: 10,3522           13435                           TCF      ENDRET
001272:
001273: 10,3523           35001        MARKOVER           CAF      ONE
001274: 10,3524           55207                           TS       LOADSTAT
001275: 10,3525           30100                           CA       FLAGWRD4                              #  IS ENDIDFLG SET
001276: 10,3526           74346                           MASK     BIT13-14                              #  IS NORMAL OR PRIO IN ENDIDLE
001277: 10,3527           10000                           CCS      A
001278: 10,3530           13166                           TCF      NORMBNCH
001279:
001280: 10,3531           30100        NORMRET            CA       FLAGWRD4                              #  IS MARK SLEEPING
001281: 10,3532           73616                           MASK     BITS5+11                              #  OR WAITING
001282: 10,3533           10000                           CCS      A
001283: 10,3534           13132                           TCF      MARKWAKE
001284:
001285: 10,3535           30100                           CA       FLAGWRD4                              #  NO
001286: 10,3536           73617                           MASK     BITS4+10                              #  IS NORMAL INTERRUPTED OR WAITING
001287: 10,3537           10000                           CCS      A
001288: 10,3540           13433                           TCF      NORMWAKE                              #  YES
001289:
001290: 10,3541           34776                           CAF      FLSHRQST                              #  NO, WAS IT A FLASH REQUEST
001291: 10,3542           64774                           AD       RETDSPY                               #  OR GODSPRET
001292: 10,3543           71265                           MASK     EBANKTEM
001293: 10,3544           10000                           CCS      A
001294: 10,3545           13435                           TCF      ENDRET                                #  YES
001295: 10,3546           30367                           CA       NVSAVE
001296: 10,3547           00006                           EXTEND
001297: 10,3550           13435                           BZF      ENDRET
001298:
001299: 10,3551           35066                           CAF      PRIO15
001300: 10,3552           05134                           TC       NOVAC
001301: 10,3553     0365                                  EBANK=   NVWORD
001302: 10,3553           02741 20060                     2CADR    PLAYJUM1
001303:
001304:
001305: 10,3555           13435                           TCF      ENDRET
001306:
001307: 10,3556           30100        MARSLEEP           CA       FLAGWRD4                              #  IS MARK ALREADY IN
001308: 10,3557           73616                           MASK     BITS5+11
001309: 10,3560           10000                           CCS      A
001310: 10,3561           15220                           TCF      ENDOFJOB                              #  YES
001311: 10,3562           13070                           TCF      GOSLEEPS
001312:
001313: 10,3563           50157        LOADITIS           INDEX    COPMPAC
001314: 10,3564           30365                           CA       NVWORD
001315: 10,3565           76043                           MASK     LOW7
001316: 10,3566           40000                           COM
001317: 10,3567           60155                           AD       MPAC       +1                         #  NOUNREG
001318: 10,3570           00006                           EXTEND
001319: 10,3571           13410                           BZF      OKTOENT                               #  NO, THEN LOAD IS VALID
001320: 10,3572           13155                           TCF      PINBRNCH                              #  YES, ACCEPT LOAD BUT ASK FOR LAST AGAIN
001321:
001322: 10,3573           46214        ERASER             CS       THREE                                 #  BLANK EVERYTHING EXCEPT MM
001323: 10,3574           04202                           TC       NVSUB
001324: 10,3575           15220                           TCF      ENDOFJOB
001325: 10,3576           15220                           TCF      ENDOFJOB
001326:
001327: 10,3577           00036        PERFMASK           OCT      0036                                  #  FLASH,PERFORM,BLANK R2 AND R3
001328: 10,3600           00231        V01N25             VN       00125
001329: 10,3601           14400        V50N00             VN       5000
001330: 10,3602     5012               PERF2MSK           EQUALS   BITS4&5                               #  (OCTAL 30)   FLASH, PERFORM
001331: 10,3602     5750               PERF4MSK           EQUALS   OCT14                                 #  FLASH, BLANK R3
001332: 10,3602           20010        REDOMASK           OCT      20010                                 #  BITS 4 AND 14
001333: 10,3603           40036        MARK4MSK           OCT      40036                                 #  MARK,PERFORM,FLASH,BLANK 2 AND 3
001334: 10,3604           20666        NVCADR             CADR     REDOPRIO
001335: 10,3605           20510        WAKECADR           CADR     MARKPLAY
001336: 10,3606           20741                           CADR     PLAYJUM1
001337:
001338: 10,3607           11210        NBUSMASK           OCT      11210
001339: 10,3610           66521        PMMASK             OCT      66521
001340: 10,3611     4171               VERBMASK           =        MID7                                  #  (OCT 37600)
001341: 10,3611           01177        V05N00M1           OCT      1177                                  #  V05 MINUS ONE
001342: 10,3612  10,2456               GOXDSPF            EQUALS   GOMARKF
001343: 10,3612     5537               ENDEXT             EQUALS   ENDMARK
001344: 10,3612     0165               MPAC2SAV           EQUALS   BANKSET
001345: 10,3612           00700        NVBUSMSK           OCT      700
001346: 10,3613           40030        MPERFMSK           OCT      40030                                 #  BIT 15,5,4 FOR MARK,PERFORM,FLASH
001347: 10,3614           34300        OCT34300           OCT      34300
001348: 10,3615           40100        BITS15+7           OCT      40100
001349: 10,3616           02020        BITS5+11           OCT      2020                                  #  * DONT MOVE
001350: 10,3617           01010        BITS4+10           OCT      1010                                  #  * DONT MOVE
001351: 10,3620     4354               LOWLOAD            EQUALS   VBSP2LD
001352: 10,3620     5016               CADRMASK           EQUALS   OCT50
001353: 10,3620     7673               PINMASK            EQUALS   13,14,15
001354: 10,3620  10,3175               GOPLAY             EQUALS   NVDSP
001355:                                                                                                  # PRIOSAVE       EQUALS  R1SAVE
001356: 10,3620     0157               COPMPAC            EQUALS   MPAC       +3
001357: 10,3620     0160               TEMPOR2            EQUALS   MPAC       +4
001358: 10,3620     0164               COPINDEX           EQUALS   LOC
001359: 10,3620     0163               USERPRIO           EQUALS   MODE
001360: 10,3620     0162               GENMASK            EQUALS   MPAC       +6
001361: 10,3620           20144        PRIOOCT            OCT      20144                                 #  PRIO
001362: 10,3621           42424        MARKOCT            OCT      42424                                 #  MARK
001363: 10,3622           11254                           OCT      11254                                 #  NORM
001364:
001365: 10,3623           74700        IDLESLEP           OCT      74700
001366: 10,3624     5531               LINUS              EQUALS   BLANKET
001367: 10,3624     0154               FACEREG            EQUALS   MPAC
001368: 10,3624     0155               PLAYTEM1           EQUALS   MPAC       +1
001369: 10,3624     0157               PLAYTEM3           EQUALS   MPAC       +3
001370: 10,3624     0160               PLAYTEM4           EQUALS   MPAC       +4
001371: 10,3624           02672        MAKEGEN            GENADR   MAKEPLAY
001372: 10,3625           10200        BIT13+8            OCT      10200
001373: 10,3626           30200        V97N00             VN       09700                                 #  PASTE FOR V97 OR V99
001374: 10,3627           20100        BIT14+7            OCT      20100
001375: 10,3630           24030        CLOCKCON           OCT      24030                                 #  FLASH, PERFORM, V99 OR V97 PASTE,REFLASH
001376: 10,3631           74040        PINIDMSK           OCT      74040
001377: 10,3632     7675               IDLEMASK           EQUALS   HIGH4
001378: 10,3632     7667               ITISMASK           EQUALS   BIT15+6                               #  *** ENDIDLE ALLOW ***
001379: 10,3632     7664               MARKFMSK           EQUALS   OT40010
001380: 10,3632           03077        XCHQADD            GENADR   XCHSLEEP
001381: 10,3633     5057               WAITMASK           EQUALS   PRIO3                                 #  (OCTAL 3000)
001382: 10,3633  10,3612               OCT700             EQUALS   NVBUSMSK
001383: 10,3633           55436        GOPOOCAD           CADR     TCGOPOOH
001384: 10,3634           40210        MARK3MSK           OCT      40210
001385: 10,3635     4763               MKRQST             =        BIT15
001386: 10,3635     4764               REFLSH             =        BIT14
001387: 10,3635     4765               2NDPERF            =        BIT13
001388: 10,3635     4766               V99PSTE            =        BIT12
001389: 10,3635     4772               DCMKPERF           =        BIT8
001390: 10,3635     4773               PRIODSPY           =        BIT7
001391: 10,3635     4774               RETDSPY            =        BIT6
001392: 10,3635     4775               PERFRQST           =        BIT5
001393: 10,3635     4776               FLSHRQST           =        BIT4
001394: 10,3635     4777               BLNKR3             =        BIT3
001395: 10,3635     5000               BLNKR2             =        BIT2
001396: 10,3635     5001               BLNKR1             =        BIT1
001397: 10,3635     5003               DSPONLY            =        ZERO

End of include-file DISPLAY_INTERFACE_ROUTINES.agc.  Parent file is MAIN.agc


