
Source Code


000002:                                                                                                  ## Copyright:   Public domain.
000003:                                                                                                  ## Filename:    DOCKED_DAP_JET_SELECTION.agc
000004:                                                                                                  ## Purpose:     A section of Skylark revision 048.
000005:                                                                                                  ##              It is part of the source code for the Apollo Guidance Computer (AGC)
000006:                                                                                                  ##              for Skylab-2, Skylab-3, Skylab-4, and ASTP. No original listings of
000007:                                                                                                  ##              this software are available; instead, this file was created via
000008:                                                                                                  ##              disassembly of dumps of the core rope modules actually flown on
000009:                                                                                                  ##              Skylab-2. Access to these modules was provided by the New Mexico
000010:                                                                                                  ##              Museum of Space History.
000011:                                                                                                  ## Assembler:   yaYUL
000012:                                                                                                  ## Contact:     Ron Burkey <info@sandroid.org>.
000013:                                                                                                  ## Website:     www.ibiblio.org/apollo/index.html
000014:                                                                                                  ## Mod history: 2024-02-18 MAS  Created.
000015:                                                                                                  ##              2024-03-04 MAS  Finished filling out.
000016:
000017:                                                                                                  ## This log section is entirely new in Skylark. Comments have been adapted
000018:                                                                                                  ## from Artemis 72 or Luminary 210, where appropriate. Likewise, names
000019:                                                                                                  ## have been obtained from the Programmed Guidance Equations for Skylark 48,
000020:                                                                                                  ## copied from Luminary 210, or given modern names (which have been marked).
000021:
000022: 13,2000                                           SETLOC   DKDAPS
000023: 13,2000                                           BANK
000024: 13,2000  E6,1470                                  EBANK=   DAPDATR3
000025:
000026: 13,2000                                           COUNT*   $$/DKDAP
000027:
000028: 13,2000           22016        DKJSLECT           LXCH     BANKRUPT                              #  INTERRUPT LEAD IN (CONTINUED)
000029:
000030: 13,2001           33002                           CA       60MS
000031: 13,2002           54030                           TS       TIME5
000032:
000033: 13,2003           00006                           EXTEND
000034: 13,2004           22012                           QXCH     QRUPT
000035:
000036: 13,2005           11463                           CCS      DAPZRUPT                              #  IF DAPZRUPT POSITIVE, DAP (JASK) IS
000037: 13,2006           07750                           TC       BAILOUT                               #  STILL IN PROGRESS AND A RESTART IS
000038: 13,2007           32000                           OCT      32000                                 #  CALLED FOR.  IT IS NEVER ZERO
000039:
000040: 13,2010           52011                           DXCH     ARUPT
000041: 13,2011           53460                           DXCH     DAPARUPT
000042: 13,2012           32023                           CA       SUPERJOB                              #  SETTING UP THE SUPERJOB
000043: 13,2013           56017                           XCH      BRUPT
000044: 13,2014           22012                           LXCH     QRUPT
000045: 13,2015           53462                           DXCH     DAPBQRPT
000046: 13,2016           32022                           CA       SUPERADR
000047: 13,2017           52016                           DXCH     ZRUPT
000048: 13,2020           53464                           DXCH     DAPZRUPT
000049: 13,2021           15343                           TCF      NOQBRSM    +1                         #  RELINT (JUST IN CASE) AND RESUME, IN THE
000050:                                                                                                  #        FORM OF A JASK, AT SUPERJOB.
000051:
000052: 13,2022           02024        SUPERADR           GENADR   SUPERJOB   +1
000053:
000054: 13,2023           34764        SUPERJOB           CAF      BIT14
000055: 13,2024           05627                           TC       C31BTCHK
000056: 13,2025           12040                           TCF      YZFREE
000057:
000058: 13,2026           11465        INHIBCHK           CCS      INHIBIT
000059: 13,2027           13007                           TCF      BURBLE
000060: 13,2030           12066                           TCF      NOBYPASS
000061: 13,2031           12066                           TCF      NOBYPASS
000062: 13,2032           12066                           TCF      NOBYPASS
000063:
000064: 13,2033           51535        YZCHECK            INDEX    SPNDX
000065: 13,2034           31707                           CA       TAUZ
000066: 13,2035           00006                           EXTEND
000067: 13,2036           12352                           BZF      SPNDXCK
000068: 13,2037           12137                           TCF      FORCE
000069:
000070: 13,2040           11465        YZFREE             CCS      INHIBIT
000071: 13,2041           13007                           TCF      BURBLE
000072: 13,2042           12045                           TCF      +3
000073: 13,2043           12066                           TCF      NOBYPASS
000074: 13,2044           12066                           TCF      NOBYPASS
000075:
000076: 13,2045           00006                           EXTEND
000077: 13,2046           00031                           READ     CHAN31
000078: 13,2047           40000                           COM
000079: 13,2050           55531                           TS       T5TEMP
000080:
000081: 13,2051           00006                           EXTEND
000082: 13,2052           74773                           MP       BIT7
000083: 13,2053           76214                           MASK     THREE
000084: 13,2054           50000                           INDEX    A
000085: 13,2055           34616                           CAF      200MST6    -1
000086: 13,2056           55710                           TS       TAUY
000087:
000088: 13,2057           31531                           CA       T5TEMP
000089: 13,2060           00006                           EXTEND
000090: 13,2061           74775                           MP       BIT5
000091: 13,2062           76214                           MASK     THREE
000092: 13,2063           50000                           INDEX    A
000093: 13,2064           34616                           CAF      200MST6    -1
000094: 13,2065           55707                           TS       TAUZ
000095:
000096: 13,2066           56007        NOBYPASS           XCH      7
000097: 13,2067           55613                           TS       TRCOMPAC
000098: 13,2070           55614                           TS       TRCOMPBD
000099: 13,2071           55477                           TS       5PT
000100: 13,2072           55500                           TS       5YWT
000101: 13,2073           55501                           TS       61PT
000102: 13,2074           55502                           TS       61YWT
000103: 13,2075           55503                           TS       62PT
000104: 13,2076           55504                           TS       62YWT
000105: 13,2077           55553                           TS       DELFLG
000106:
000107: 13,2100           35001        P/YWCOMP           CAF      ONE
000108: 13,2101           55535                           TS       SPNDX
000109: 13,2102           60000                           DOUBLE
000110: 13,2103           55536                           TS       DPNDX
000111:
000112: 13,2104           51535                           INDEX    SPNDX
000113: 13,2105           31611                           CA       TAU1
000114: 13,2106           00006                           EXTEND
000115: 13,2107           12033                           BZF      YZCHECK
000116:
000117: 13,2110           41470                           CS       DAPDATR3
000118: 13,2111           51535                           INDEX    SPNDX
000119: 13,2112           72777                           MASK     PCK
000120: 13,2113           00006                           EXTEND
000121: 13,2114           12137                           BZF      FORCE
000122:
000123: 13,2115           51535        COUPLE             INDEX    SPNDX
000124: 13,2116           11611                           CCS      TAU1
000125: 13,2117           56007                           XCH      7
000126: 13,2120           02122                           TC       +2
000127: 13,2121           35001                           CAF      ONE
000128: 13,2122           61536                           AD       DPNDX
000129: 13,2123           50000                           INDEX    A
000130: 13,2124           32767                           CAF      +PITCHTC
000131: 13,2125           51535                           INDEX    SPNDX
000132: 13,2126           55505                           TS       5PW
000133:
000134: 13,2127           71471                           MASK     CH5FAIL
000135: 13,2130           00006                           EXTEND
000136: 13,2131           12250                           BZF      GOODA
000137:
000138: 13,2132           41470                           CS       DAPDATR3
000139: 13,2133           51535                           INDEX    SPNDX
000140: 13,2134           72777                           MASK     PCK
000141: 13,2135           00006                           EXTEND
000142: 13,2136           12342                           BZF      P/YWALRM
000143:
000144: 13,2137           51535        FORCE              INDEX    SPNDX
000145: 13,2140           11707                           CCS      TAUZ
000146: 13,2141           56007                           XCH      7
000147: 13,2142           02144                           TC       +2
000148: 13,2143           35001                           CAF      ONE
000149: 13,2144           61536                           AD       DPNDX
000150: 13,2145           50000                           INDEX    A
000151: 13,2146           32773                           CAF      +ZFORCE
000152: 13,2147           51535                           INDEX    SPNDX
000153: 13,2150           55511                           TS       62PW
000154:
000155: 13,2151           71472                           MASK     CH6FAIL
000156: 13,2152           00006                           EXTEND
000157: 13,2153           12270                           BZF      GOODB
000158:
000159: 13,2154           41472                           CS       CH6FAIL
000160: 13,2155           51535                           INDEX    SPNDX
000161: 13,2156           71511                           MASK     62PW
000162: 13,2157           00006                           EXTEND
000163: 13,2160           12333                           BZF      BADC
000164:
000165: 13,2161           51535                           INDEX    SPNDX
000166: 13,2162           55507                           TS       61PW
000167:
000168: 13,2163           51536                           INDEX    DPNDX
000169: 13,2164           72767                           MASK     +ROLLBD
000170: 13,2165           00006                           EXTEND
000171: 13,2166           12200                           BZF      NEGRDIST
000172:
000173: 13,2167           51535                           INDEX    SPNDX
000174: 13,2170           11707                           CCS      TAUZ
000175: 13,2171           02242                           TC       DELFLGUP
000176: 13,2172           12174                           TCF      +2
000177: 13,2173           65001                           AD       ONE
000178: 13,2174           51535                           INDEX    SPNDX
000179: 13,2175           55501                           TS       61PT
000180: 13,2176           40000                           COM
000181: 13,2177           12212                           TCF      TRCOMP
000182:
000183: 13,2200           51535        NEGRDIST           INDEX    SPNDX
000184: 13,2201           34774                           CAF      BIT6
000185: 13,2202           27553                           ADS      DELFLG
000186:
000187: 13,2203           51535                           INDEX    SPNDX
000188: 13,2204           11707                           CCS      TAUZ
000189: 13,2205           65001                           AD       ONE
000190: 13,2206           12210                           TCF      +2
000191: 13,2207           02242                           TC       DELFLGUP
000192:
000193: 13,2210           51535                           INDEX    SPNDX
000194: 13,2211           55501                           TS       61PT
000195:
000196: 13,2212           55531        TRCOMP             TS       T5TEMP
000197: 13,2213           00006                           EXTEND
000198: 13,2214           51535                           INDEX    SPNDX
000199: 13,2215           71441                           MP       ALPHAP
000200: 13,2216           55657                           TS       T5TEMP2
000201:
000202: 13,2217           31553                           CA       DELFLG
000203: 13,2220           51535                           INDEX    SPNDX
000204: 13,2221           74772                           MASK     BIT8
000205: 13,2222           00006                           EXTEND
000206: 13,2223           12226                           BZF      +3
000207: 13,2224           41657                           CS       T5TEMP2
000208: 13,2225           12227                           TCF      +2
000209: 13,2226           31657                           CA       T5TEMP2
000210: 13,2227           61531                           AD       T5TEMP
000211: 13,2230           51535                           INDEX    SPNDX
000212: 13,2231           27613                           ADS      TRCOMPAC
000213:
000214: 13,2232           51535                           INDEX    SPNDX
000215: 13,2233           41611                           CS       TAU1
000216: 13,2234           00006                           EXTEND
000217: 13,2235           62241                           BZMF     +4
000218:
000219: 13,2236           51535                           INDEX    SPNDX
000220: 13,2237           34776                           CAF      BIT4
000221: 13,2240           27553                           ADS      DELFLG
000222:
000223: 13,2241           12352                           TCF      SPNDXCK
000224:


000226: 13,2242           65001        DELFLGUP           AD       ONE
000227: 13,2243           57553                           XCH      DELFLG
000228: 13,2244           51535                           INDEX    SPNDX
000229: 13,2245           64772                           AD       BIT8
000230: 13,2246           57553                           XCH      DELFLG
000231: 13,2247           00002                           TC       Q
000232:
000233: 13,2250           51535        GOODA              INDEX    SPNDX
000234: 13,2251           41611                           CS       TAU1
000235: 13,2252           00006                           EXTEND
000236: 13,2253           74764                           MP       HALF
000237: 13,2254           10000                           CCS      A
000238: 13,2255           12263                           TCF      NEGTAU
000239: 13,2256           12260                           TCF      +2


000241: 13,2257           65001        POSTAU             AD       ONE
000242: 13,2260           51535                           INDEX    SPNDX
000243: 13,2261           55477                           TS       5PT
000244: 13,2262           02352                           TC       SPNDXCK
000245:
000246: 13,2263           57553        NEGTAU             XCH      DELFLG
000247: 13,2264           51535                           INDEX    SPNDX
000248: 13,2265           64766                           AD       BIT12
000249: 13,2266           57553                           XCH      DELFLG
000250: 13,2267           12257                           TCF      POSTAU
000251:
000252: 13,2270           51535        GOODB              INDEX    SPNDX
000253: 13,2271           31707                           CA       TAUZ
000254: 13,2272           55531                           TS       T5TEMP
000255:
000256: 13,2273           00006                           EXTEND
000257: 13,2274           74764                           MP       HALF
000258: 13,2275           10000                           CCS      A
000259: 13,2276           65001                           AD       ONE
000260: 13,2277           02301                           TC       +2
000261: 13,2300           65001                           AD       ONE
000262: 13,2301           51535                           INDEX    SPNDX
000263: 13,2302           55503                           TS       62PT
000264:
000265: 13,2303           51535                           INDEX    SPNDX
000266: 13,2304           41611                           CS       TAU1
000267: 13,2305           00006                           EXTEND
000268: 13,2306           62314                           BZMF     +6
000269:
000270: 13,2307           51535                           INDEX    SPNDX
000271: 13,2310           34766                           CAF      BIT12
000272: 13,2311           51535                           INDEX    SPNDX
000273: 13,2312           64776                           AD       BIT4
000274: 13,2313           27553                           ADS      DELFLG
000275:
000276: 13,2314           51535                           INDEX    SPNDX
000277: 13,2315           31707                           CA       TAUZ
000278: 13,2316           00006                           EXTEND
000279: 13,2317           62323                           BZMF     +4
000280:
000281: 13,2320           51535                           INDEX    SPNDX
000282: 13,2321           34770                           CAF      BIT10
000283: 13,2322           27553                           ADS      DELFLG
000284:
000285: 13,2323           41535                           CS       SPNDX
000286: 13,2324           57531                           XCH      T5TEMP
000287: 13,2325           00006                           EXTEND
000288: 13,2326           51535                           INDEX    SPNDX
000289: 13,2327           71441                           MP       ALPHAP
000290: 13,2330           51531                           INDEX    T5TEMP
000291: 13,2331           27614                           ADS      TRCOMPBD
000292: 13,2332           02352                           TC       SPNDXCK
000293:
000294: 13,2333           51535        BADC               INDEX    SPNDX
000295: 13,2334           55503                           TS       62PT
000296:
000297: 13,2335           41470                           CS       DAPDATR3
000298: 13,2336           51535                           INDEX    SPNDX
000299: 13,2337           72777                           MASK     PCK
000300: 13,2340           00006                           EXTEND
000301: 13,2341           12115                           BZF      COUPLE
000302:
000303: 13,2342           30077        P/YWALRM           CA       FLAGWRD3
000304: 13,2343           74766                           MASK     500**BIT
000305: 13,2344           10000                           CCS      A
000306: 13,2345           12352                           TCF      SPNDXCK
000307:
000308: 13,2346           05644                           TC       ALARM
000309: 13,2347           00500                           OCT      500
000310:
000311: 13,2350           07710                           TC       UPFLAG
000312: 13,2351           00060                           ADRES    500**FLG
000313:
000314: 13,2352           11535        SPNDXCK            CCS      SPNDX
000315: 13,2353           12101                           TCF      P/YWCOMP   +1
000316:
000317: 13,2354           41613        ROLLCOMP           CS       TRCOMPAC
000318: 13,2355           00006                           EXTEND
000319: 13,2356           62371                           BZMF     TCOMPAC-
000320:
000321: 13,2357           31614        TCOMPAC+           CA       TRCOMPBD
000322: 13,2360           00006                           EXTEND
000323: 13,2361           62403                           BZMF     RPREFCK
000324:
000325: 13,2362           61613                           AD       TRCOMPAC
000326: 13,2363           00006                           EXTEND
000327: 13,2364           62400                           BZMF     RC1
000328:
000329: 13,2365           55614        RC3                TS       TRCOMPBD
000330: 13,2366           56007                           XCH      7
000331: 13,2367           55613                           TS       TRCOMPAC
000332: 13,2370           12403                           TCF      RPREFCK
000333:
000334: 13,2371           31614        TCOMPAC-           CA       TRCOMPBD
000335: 13,2372           00006                           EXTEND
000336: 13,2373           62375                           BZMF     +2
000337: 13,2374           12403                           TCF      RPREFCK
000338:
000339: 13,2375           61613                           AD       TRCOMPAC
000340: 13,2376           00006                           EXTEND
000341: 13,2377           62365                           BZMF     RC3
000342:
000343: 13,2400           55613        RC1                TS       TRCOMPAC
000344: 13,2401           56007                           XCH      7
000345: 13,2402           55614                           TS       TRCOMPBD
000346:
000347: 13,2403           31470        RPREFCK            CA       DAPDATR3
000348: 13,2404           74765                           MASK     BIT13
000349: 13,2405           10000                           CCS      A
000350: 13,2406           35001                           CAF      ONE
000351: 13,2407           55535                           TS       SPNDX
000352:
000353: 13,2410           31610                           CA       TAU
000354: 13,2411           00006                           EXTEND
000355: 13,2412           12415                           BZF      COMBINE
000356:
000357: 13,2413           02517                           TC       ROLLMATH
000358: 13,2414           02517                           TC       ROLLMATH
000359:
000360: 13,2415           02561        COMBINE            TC       MERGMATH
000361: 13,2416           02561                           TC       MERGMATH
000362:
000363: 13,2417           60000                           DOUBLE
000364: 13,2420           55536                           TS       DPNDX
000365:
000366: 13,2421           41535                           CS       SPNDX
000367: 13,2422           50000                           INDEX    A
000368: 13,2423           31614                           CA       TRCOMPBD
000369: 13,2424           61610                           AD       TAU
000370: 13,2425           02727                           TC       CPLMATH
000371: 13,2426           55657                           TS       T5TEMP2
000372:
000373: 13,2427           00006                           EXTEND
000374: 13,2430           12444                           BZF      PASS2
000375:
000376: 13,2431           56007                           XCH      7
000377: 13,2432           51535                           INDEX    SPNDX
000378: 13,2433           55503                           TS       62PT
000379:
000380: 13,2434           31610                           CA       TAU
000381: 13,2435           55657                           TS       T5TEMP2
000382:
000383: 13,2436           41535                           CS       SPNDX
000384: 13,2437           50000                           INDEX    A
000385: 13,2440           31614                           CA       TRCOMPBD
000386: 13,2441           00006                           EXTEND
000387: 13,2442           12444                           BZF      PASS2
000388:
000389: 13,2443           02504                           TC       ROLLALRM
000390:
000391: 13,2444           11535        PASS2              CCS      SPNDX
000392: 13,2445           02447                           TC       +2
000393: 13,2446           35001                           CAF      ONE
000394: 13,2447           55535                           TS       SPNDX
000395: 13,2450           60000                           DOUBLE
000396: 13,2451           55536                           TS       DPNDX
000397:
000398: 13,2452           41535                           CS       SPNDX
000399: 13,2453           50000                           INDEX    A
000400: 13,2454           31614                           CA       TRCOMPBD
000401: 13,2455           27657                           ADS      T5TEMP2
000402: 13,2456           02727                           TC       CPLMATH
000403:
000404: 13,2457           00006                           EXTEND
000405: 13,2460           12465                           BZF      +5
000406:
000407: 13,2461           56007                           XCH      7
000408: 13,2462           51535                           INDEX    SPNDX
000409: 13,2463           55503                           TS       62PT
000410: 13,2464           02504                           TC       ROLLALRM
000411:


000413: 13,2465           35004                           CAF      FIVE
000414: 13,2466           55535        MINTCHK            TS       SPNDX
000415: 13,2467           51535                           INDEX    SPNDX
000416: 13,2470           41477                           CS       5PT
000417: 13,2471           00006                           EXTEND
000418: 13,2472           12501                           BZF      NEXTTIME
000419:
000420: 13,2473           64626                           AD       14MS
000421: 13,2474           00006                           EXTEND
000422: 13,2475           62501                           BZMF     NEXTTIME
000423:
000424: 13,2476           34626                           CA       14MS
000425: 13,2477           51535                           INDEX    SPNDX
000426: 13,2500           55477                           TS       5PT
000427:
000428: 13,2501           11535        NEXTTIME           CCS      SPNDX
000429: 13,2502           12466                           TCF      MINTCHK
000430:
000431: 13,2503           13007                           TCF      BURBLE
000432:
000433: 13,2504           00006        ROLLALRM           EXTEND
000434: 13,2505           23531                           QXCH     T5TEMP
000435:
000436: 13,2506           30077                           CA       FLAGWRD3
000437: 13,2507           74767                           MASK     501**BIT
000438: 13,2510           10000                           CCS      A
000439: 13,2511           01531                           TC       T5TEMP
000440:
000441: 13,2512           05644                           TC       ALARM
000442: 13,2513           00501                           OCT      501
000443:
000444: 13,2514           07710                           TC       UPFLAG
000445: 13,2515           00061                           ADRES    501**FLG
000446:
000447: 13,2516           01531                           TC       T5TEMP
000448:
000449: 13,2517           11535        ROLLMATH           CCS      SPNDX
000450: 13,2520           12522                           TCF      +2
000451: 13,2521           35001                           CAF      ONE
000452: 13,2522           55535                           TS       SPNDX
000453:
000454: 13,2523           51535                           INDEX    SPNDX
000455: 13,2524           11613                           CCS      TRCOMPAC
000456: 13,2525           12531                           TCF      PLUSCOMP
000457: 13,2526           12560                           TCF      ROLLOUT
000458: 13,2527           12542                           TCF      MINUSCOMP
000459: 13,2530           12560                           TCF      ROLLOUT
000460:
000461: 13,2531           31610        PLUSCOMP           CA       TAU
000462: 13,2532           00006                           EXTEND
000463: 13,2533           62535                           BZMF     +2
000464: 13,2534           12560                           TCF      ROLLOUT
000465:
000466: 13,2535           51535                           INDEX    SPNDX
000467: 13,2536           27613                           ADS      TRCOMPAC
000468: 13,2537           00006                           EXTEND
000469: 13,2540           62551                           BZMF     UPDATTAU
000470: 13,2541           12556                           TCF      ZEROTAU
000471:
000472: 13,2542           31610        MINUSCOMP           CA       TAU
000473: 13,2543           00006                           EXTEND
000474: 13,2544           62560                           BZMF     ROLLOUT
000475:
000476: 13,2545           51535                           INDEX    SPNDX
000477: 13,2546           27613                           ADS      TRCOMPAC
000478: 13,2547           00006                           EXTEND
000479: 13,2550           62556                           BZMF     ZEROTAU
000480:


000482: 13,2551           55610        UPDATTAU           TS       TAU
000483: 13,2552           56007                           XCH      7
000484: 13,2553           51535                           INDEX    SPNDX
000485: 13,2554           55613                           TS       TRCOMPAC
000486: 13,2555           12560                           TCF      ROLLOUT
000487:
000488: 13,2556           56007        ZEROTAU            XCH      7
000489: 13,2557           55610                           TS       TAU
000490: 13,2560           00002        ROLLOUT            TC       Q
000491:
000492:
000493: 13,2561           51535        MERGMATH           INDEX    SPNDX
000494: 13,2562           31503                           CA       62PT
000495: 13,2563           00006                           EXTEND
000496: 13,2564           12612                           BZF      TAGB
000497:
000498: 13,2565           31535                           CA       SPNDX
000499: 13,2566           60000                           DOUBLE
000500: 13,2567           55536                           TS       DPNDX
000501:
000502: 13,2570           11535                           CCS      SPNDX
000503: 13,2571           45001                           CS       ONE
000504: 13,2572           55531                           TS       T5TEMP
000505:
000506: 13,2573           51531                           INDEX    T5TEMP
000507: 13,2574           11614                           CCS      TRCOMPBD
000508: 13,2575           12617                           TCF      SIDE+
000509: 13,2576           12600                           TCF      TESTTAU
000510: 13,2577           12673                           TCF      SIDE-
000511:
000512: 13,2600           44777        TESTTAU            CS       FOUR
000513: 13,2601           57531                           XCH      T5TEMP
000514: 13,2602           40000                           COM
000515: 13,2603           71531                           MASK     T5TEMP
000516: 13,2604           00006                           EXTEND
000517: 13,2605           12612                           BZF      TAGB
000518:
000519: 13,2606           11610                           CCS      TAU
000520: 13,2607           12617                           TCF      SIDE+
000521: 13,2610           12612                           TCF      TAGB
000522: 13,2611           12673                           TCF      SIDE-
000523:


000525: 13,2612           11535        TAGB               CCS      SPNDX
000526: 13,2613           12615                           TCF      +2
000527: 13,2614           35001                           CAF      ONE
000528: 13,2615           55535                           TS       SPNDX
000529: 13,2616           00002                           TC       Q
000530:
000531: 13,2617           65001        SIDE+              AD       ONE
000532: 13,2620           55657                           TS       T5TEMP2
000533:
000534: 13,2621           51535                           INDEX    SPNDX
000535: 13,2622           31707                           CA       TAUZ
000536: 13,2623           00006                           EXTEND
000537: 13,2624           62631                           BZMF     +5
000538:
000539: 13,2625           41553                           CS       DELFLG
000540: 13,2626           51535                           INDEX    SPNDX
000541: 13,2627           74772                           MASK     BIT8
000542: 13,2630           27553                           ADS      DELFLG
000543:
000544: 13,2631           51536                           INDEX    DPNDX
000545: 13,2632           32767                           CA       +ROLLBD
000546: 13,2633           51535                           INDEX    SPNDX
000547: 13,2634           71511                           MASK     62PW
000548: 13,2635           51535                           INDEX    SPNDX
000549: 13,2636           55507                           TS       61PW
000550:
000551: 13,2637           51535                           INDEX    SPNDX
000552: 13,2640           31503                           CA       62PT
000553: 13,2641           60000                           DOUBLE
000554: 13,2642           00006                           EXTEND
000555: 13,2643           61657                           SU       T5TEMP2
000556: 13,2644           00006                           EXTEND
000557: 13,2645           62661                           BZMF     TAGD       -1
000558:
000559: 13,2646           00006        TAGC               EXTEND
000560: 13,2647           74764                           MP       HALF
000561: 13,2650           51535                           INDEX    SPNDX
000562: 13,2651           55503                           TS       62PT
000563:
000564: 13,2652           56007                           XCH      7
000565: 13,2653           51531                           INDEX    T5TEMP
000566: 13,2654           55614                           TS       TRCOMPBD
000567:
000568: 13,2655           31657                           CA       T5TEMP2
000569: 13,2656           51535                           INDEX    SPNDX
000570: 13,2657           27501                           ADS      61PT
000571: 13,2660           12600                           TCF      TESTTAU
000572:
000573: 13,2661           40000                           COM
000574: 13,2662           51531        TAGD               INDEX    T5TEMP
000575: 13,2663           55614                           TS       TRCOMPBD
000576:
000577: 13,2664           56007                           XCH      7
000578: 13,2665           51535                           INDEX    SPNDX
000579: 13,2666           57503                           XCH      62PT
000580:
000581: 13,2667           60000                           DOUBLE
000582: 13,2670           51535                           INDEX    SPNDX
000583: 13,2671           27501                           ADS      61PT
000584:
000585: 13,2672           12612                           TCF      TAGB
000586:
000587: 13,2673           65001        SIDE-              AD       ONE
000588: 13,2674           55657                           TS       T5TEMP2
000589:
000590: 13,2675           41553                           CS       DELFLG
000591: 13,2676           51535                           INDEX    SPNDX
000592: 13,2677           74774                           MASK     BIT6
000593: 13,2700           27553                           ADS      DELFLG
000594:
000595: 13,2701           51535                           INDEX    SPNDX
000596: 13,2702           41707                           CS       TAUZ
000597: 13,2703           00006                           EXTEND
000598: 13,2704           62711                           BZMF     +5
000599:
000600: 13,2705           41553                           CS       DELFLG
000601: 13,2706           51535                           INDEX    SPNDX
000602: 13,2707           74772                           MASK     BIT8
000603: 13,2710           27553                           ADS      DELFLG
000604:
000605: 13,2711           51536                           INDEX    DPNDX
000606: 13,2712           32770                           CA       -ROLLBD
000607: 13,2713           51535                           INDEX    SPNDX
000608: 13,2714           71511                           MASK     62PW
000609: 13,2715           51535                           INDEX    SPNDX
000610: 13,2716           55507                           TS       61PW
000611:
000612: 13,2717           51535                           INDEX    SPNDX
000613: 13,2720           31503                           CA       62PT
000614: 13,2721           60000                           DOUBLE
000615: 13,2722           00006                           EXTEND
000616: 13,2723           61657                           SU       T5TEMP2
000617: 13,2724           00006                           EXTEND
000618: 13,2725           62662                           BZMF     TAGD
000619: 13,2726           12646                           TCF      TAGC
000620:
000621: 13,2727           00006        CPLMATH            EXTEND
000622: 13,2730           74764                           MP       HALF
000623: 13,2731           10000                           CCS      A
000624: 13,2732           12736                           TCF      CPL+
000625: 13,2733           00002                           TC       Q
000626: 13,2734           12756                           TCF      CPL-
000627: 13,2735           00002                           TC       Q
000628:
000629: 13,2736           65001        CPL+               AD       ONE
000630: 13,2737           51535                           INDEX    SPNDX
000631: 13,2740           55503                           TS       62PT
000632:
000633: 13,2741           51535                           INDEX    SPNDX
000634: 13,2742           44770                           CS       BIT10
000635: 13,2743           71553                           MASK     DELFLG
000636: 13,2744           55553                           TS       DELFLG
000637:
000638: 13,2745           51535        TAGE               INDEX    SPNDX
000639: 13,2746           34764                           CA       BIT14
000640: 13,2747           27553                           ADS      DELFLG
000641:
000642: 13,2750           51536                           INDEX    DPNDX
000643: 13,2751           32767                           CA       +ROLLBD
000644: 13,2752           51535                           INDEX    SPNDX
000645: 13,2753           55511                           TS       62PW
000646:
000647: 13,2754           71472                           MASK     CH6FAIL
000648: 13,2755           00002                           TC       Q
000649:
000650: 13,2756           65001        CPL-               AD       ONE
000651: 13,2757           51535                           INDEX    SPNDX
000652: 13,2760           55503                           TS       62PT
000653:
000654: 13,2761           41553                           CS       DELFLG
000655: 13,2762           51535                           INDEX    SPNDX
000656: 13,2763           74770                           MASK     BIT10
000657: 13,2764           27553                           ADS      DELFLG
000658:
000659: 13,2765           25536                           INCR     DPNDX
000660: 13,2766           12745                           TCF      TAGE
000661:
000662: 13,2767     4626               14MS               =        DEC23
000663:
000664: 13,2767           00005        +PITCHTC           OCT      00005
000665: 13,2770           00012                           OCT      00012
000666: 13,2771           00120                           OCT      00120
000667: 13,2772           00240                           OCT      00240
000668:
000669: 13,2773  13,2767               +ROLLBD            =        +PITCHTC
000670: 13,2773  13,2770               -ROLLBD            =        +PITCHTC   +1
000671: 13,2773  13,2771               +ROLLAC            =        +PITCHTC   +2
000672: 13,2773  13,2772               -ROLLAC            =        +PITCHTC   +3
000673:
000674: 13,2773           00011        +XAC               OCT      00011
000675: 13,2774           00006                           OCT      00006
000676: 13,2775           00220                           OCT      00220
000677: 13,2776           00140                           OCT      00140
000678:
000679: 13,2777  13,2773               +ZFORCE            =        +XAC
000680:
000681: 13,2777           00010        PCK                OCT      00010
000682: 13,3000           00001                           OCT      00001
000683:
000684: 13,3001           00146        1/160              DEC      0.00625
000685: 13,3002           37772        60MS               OCT      37772
000686: 13,3003           00240        100MST6            DEC      160        B-14
000687:


000689: 13,3004           55466        NOXTRANS           TS       5AXW
000690: 13,3005           55467                           TS       5BXW
000691: 13,3006           13052                           TCF      GOCYCLE    -1
000692:
000693: 13,3007           56007        BURBLE             XCH      7
000694: 13,3010           55576                           TS       DFT
000695: 13,3011           55577                           TS       DFT1
000696: 13,3012           55600                           TS       DFT2
000697:
000698: 13,3013           00006                           EXTEND
000699: 13,3014           00031                           READ     CHAN31
000700: 13,3015           40000                           COM
000701: 13,3016           00006                           EXTEND
000702: 13,3017           74771                           MP       BIT9
000703: 13,3020           76214                           MASK     THREE
000704: 13,3021           00006                           EXTEND
000705: 13,3022           13004                           BZF      NOXTRANS
000706: 13,3023           55535                           TS       SPNDX
000707:
000708: 13,3024           45004                           CS       FIVE
000709: 13,3025           55650                           TS       ATTKALMN
000710:
000711: 13,3026           31470                           CA       DAPDATR3
000712: 13,3027           74770                           MASK     BIT10
000713: 13,3030           00006                           EXTEND
000714: 13,3031           13037                           BZF      +6
000715:
000716: 13,3032           35003                           CAF      ZERO
000717: 13,3033           55477                           TS       5PT
000718:
000719: 13,3034           41471                           CS       CH5FAIL
000720: 13,3035           51535                           INDEX    SPNDX
000721: 13,3036           72772                           MASK     +XAC       -1
000722: 13,3037           55466                           TS       5AXW
000723:
000724: 13,3040           31470                           CA       DAPDATR3
000725: 13,3041           74773                           MASK     BIT7
000726: 13,3042           00006                           EXTEND
000727: 13,3043           13051                           BZF      +6
000728:
000729: 13,3044           35003                           CAF      ZERO
000730: 13,3045           55500                           TS       5YWT
000731:
000732: 13,3046           41471                           CS       CH5FAIL
000733: 13,3047           51535                           INDEX    SPNDX
000734: 13,3050           72774                           MASK     +XAC       +1
000735: 13,3051           55467                           TS       5BXW
000736:
000737: 13,3052           35001                           CAF      ONE
000738: 13,3053           55535        GOCYCLE            TS       SPNDX
000739:
000740: 13,3054           56007                           XCH      7
000741: 13,3055           55551                           TS       TLEFT
000742:
000743: 13,3056           33003                           CA       100MST6
000744: 13,3057           55550                           TS       TT
000745: 13,3060           00006                           EXTEND
000746: 13,3061           51535                           INDEX    SPNDX
000747: 13,3062           61501                           SU       61PT
000748: 13,3063           00006                           EXTEND
000749: 13,3064           63073                           BZMF     LONG61PT
000750:
000751: 13,3065           55551                           TS       TLEFT
000752: 13,3066           40000                           COM
000753: 13,3067           63003                           AD       100MST6
000754: 13,3070           55550                           TS       TT
000755:
000756: 13,3071           00006                           EXTEND
000757: 13,3072           13134                           BZF      NO61PT
000758:
000759: 13,3073           31550        LONG61PT           CA       TT
000760: 13,3074           55531                           TS       T5TEMP
000761:
000762: 13,3075           51535                           INDEX    SPNDX
000763: 13,3076           34772                           CAF      BIT8
000764: 13,3077           71553                           MASK     DELFLG
000765: 13,3100           00006                           EXTEND
000766: 13,3101           13104                           BZF      +3
000767: 13,3102           41531                           CS       T5TEMP
000768: 13,3103           13105                           TCF      +2
000769: 13,3104           31531                           CA       T5TEMP
000770: 13,3105           00006                           EXTEND
000771: 13,3106           51535                           INDEX    SPNDX
000772: 13,3107           71441                           MP       ALPHAP
000773: 13,3110           27531                           ADS      T5TEMP
000774:
000775: 13,3111           51535                           INDEX    SPNDX
000776: 13,3112           34774                           CAF      BIT6
000777: 13,3113           71553                           MASK     DELFLG
000778: 13,3114           00006                           EXTEND
000779: 13,3115           13120                           BZF      +3
000780: 13,3116           41531                           CS       T5TEMP
000781: 13,3117           13121                           TCF      +2
000782: 13,3120           31531                           CA       T5TEMP
000783: 13,3121           27576                           ADS      DFT
000784:
000785: 13,3122           51535                           INDEX    SPNDX
000786: 13,3123           34776                           CAF      BIT4
000787: 13,3124           71553                           MASK     DELFLG
000788: 13,3125           00006                           EXTEND
000789: 13,3126           13131                           BZF      +3
000790: 13,3127           41550                           CS       TT
000791: 13,3130           13132                           TCF      +2
000792: 13,3131           31550                           CA       TT
000793: 13,3132           51535                           INDEX    SPNDX
000794: 13,3133           27577                           ADS      DFT1
000795:
000796: 13,3134           31551        NO61PT             CA       TLEFT
000797: 13,3135           55550                           TS       TT
000798: 13,3136           00006                           EXTEND
000799: 13,3137           51535                           INDEX    SPNDX
000800: 13,3140           61503                           SU       62PT
000801: 13,3141           00006                           EXTEND
000802: 13,3142           63150                           BZMF     LONG62PT
000803:
000804: 13,3143           40000                           COM
000805: 13,3144           61551                           AD       TLEFT
000806: 13,3145           55550                           TS       TT
000807:
000808: 13,3146           00006                           EXTEND
000809: 13,3147           13202                           BZF      NO62PT
000810:
000811: 13,3150           31550        LONG62PT           CA       TT
000812: 13,3151           60000                           DOUBLE
000813: 13,3152           55531                           TS       T5TEMP
000814:
000815: 13,3153           41553                           CS       DELFLG
000816: 13,3154           51535                           INDEX    SPNDX
000817: 13,3155           74764                           MASK     BIT14
000818: 13,3156           00006                           EXTEND
000819: 13,3157           13171                           BZF      ROLLCPL
000820:
000821: 13,3160           31531                           CA       T5TEMP
000822: 13,3161           00006                           EXTEND
000823: 13,3162           51535                           INDEX    SPNDX
000824: 13,3163           71441                           MP       ALPHAP
000825: 13,3164           55531                           TS       T5TEMP
000826:
000827: 13,3165           31550                           CA       TT
000828: 13,3166           60000                           DOUBLE
000829: 13,3167           55657                           TS       T5TEMP2
000830: 13,3170           03326                           TC       LONGDFT
000831:
000832: 13,3171           51535        ROLLCPL            INDEX    SPNDX
000833: 13,3172           34770                           CAF      BIT10
000834: 13,3173           71553                           MASK     DELFLG
000835: 13,3174           00006                           EXTEND
000836: 13,3175           13200                           BZF      +3
000837: 13,3176           41531                           CS       T5TEMP
000838: 13,3177           13201                           TCF      +2
000839: 13,3200           31531                           CA       T5TEMP
000840: 13,3201           27576                           ADS      DFT
000841:
000842: 13,3202           33003        NO62PT             CAF      100MST6
000843: 13,3203           55550                           TS       TT
000844: 13,3204           00006                           EXTEND
000845: 13,3205           51535                           INDEX    SPNDX
000846: 13,3206           61477                           SU       5PT
000847: 13,3207           00006                           EXTEND
000848: 13,3210           63216                           BZMF     LONG5PT
000849:
000850: 13,3211           40000                           COM
000851: 13,3212           63003                           AD       100MST6
000852: 13,3213           55550                           TS       TT
000853:
000854: 13,3214           00006                           EXTEND
000855: 13,3215           13237                           BZF      NO5PT
000856:
000857: 13,3216           31550        LONG5PT            CA       TT
000858: 13,3217           00006                           EXTEND
000859: 13,3220           51535                           INDEX    SPNDX
000860: 13,3221           71437                           MP       ECP
000861:
000862: 13,3222           10000                           CCS      A
000863: 13,3223           65001                           AD       ONE
000864: 13,3224           13226                           TCF      +2
000865: 13,3225           65001                           AD       ONE
000866: 13,3226           55657                           TS       T5TEMP2
000867:
000868: 13,3227           41553                           CS       DELFLG
000869: 13,3230           51535                           INDEX    SPNDX
000870: 13,3231           75000                           MASK     BIT2
000871: 13,3232           00006                           EXTEND
000872: 13,3233           13235                           BZF      +2
000873: 13,3234           31657                           CA       T5TEMP2
000874: 13,3235           27657                           ADS      T5TEMP2
000875: 13,3236           03326                           TC       LONGDFT
000876:
000877: 13,3237           11535        NO5PT              CCS      SPNDX
000878: 13,3240           13053                           TCF      GOCYCLE
000879:
000880: 13,3241           11465                           CCS      INHIBIT
000881: 13,3242           13272                           TCF      JETSON
000882: 13,3243           13245                           TCF      INHIBCMP
000883: 13,3244           13245                           TCF      INHIBCMP
000884:
000885: 13,3245           31501        INHIBCMP           CA       61PT
000886: 13,3246           61503                           AD       62PT
000887: 13,3247           54001                           TS       L
000888:
000889: 13,3250           31502                           CA       61YWT
000890: 13,3251           61504                           AD       62YWT
000891: 13,3252           00006                           EXTEND
000892: 13,3253           60001                           SU       L
000893: 13,3254           00006                           EXTEND
000894: 13,3255           63270                           BZMF     USEPT
000895: 13,3256           60001                           AD       L
000896:
000897: 13,3257           00006        ZONK               EXTEND
000898: 13,3260           13264                           BZF      +4
000899: 13,3261           00006                           EXTEND
000900: 13,3262           73001                           MP       1/160
000901: 13,3263           65001                           AD       ONE
000902: 13,3264           55465                           TS       INHIBIT
000903:
000904: 13,3265           03516                           TC       SETUPT6
000905: 13,3266           03341                           TC       TIMING
000906: 13,3267           13303                           TCF      NOTIMING
000907:


000909: 13,3270           30001        USEPT              CA       L
000910: 13,3271           13257                           TCF      ZONK
000911:
000912:
000913: 13,3272           55465        JETSON             TS       INHIBIT
000914:
000915: 13,3273           31661                           CA       5WORD
000916: 13,3274           74764                           MASK     BIT14
000917: 13,3275           00006                           EXTEND
000918: 13,3276           13303                           BZF      NOTIMING
000919:
000920: 13,3277           44764                           CS       BIT14
000921: 13,3300           71661                           MASK     5WORD
000922: 13,3301           57661                           XCH      5WORD
000923: 13,3302           03516                           TC       SETUPT6
000924:
000925: 13,3303           45003        NOTIMING           CS       ZERO
000926: 13,3304           55513                           TS       T5PHASE
000927:
000928: 13,3305           00006                           EXTEND
000929: 13,3306           33325                           DCA      RCS2CDR
000930: 13,3307           52113                           DXCH     T5LOC
000931:
000932: 13,3310           33312                           CA       ADRRUPT
000933: 13,3311           07706                           TC       MAKERUPT
000934:
000935: 13,3312           03313        ADRRUPT            ADRES    ENDJASK
000936:
000937: 13,3313           53460        ENDJASK            DXCH     DAPARUPT
000938: 13,3314           52011                           DXCH     ARUPT
000939: 13,3315           53462                           DXCH     DAPBQRPT
000940: 13,3316           56017                           XCH      BRUPT
000941: 13,3317           22002                           LXCH     Q
000942: 13,3320           34763                           CAF      NEGMAX                                #  NEGATIVE DAPZRUPT SIGNALS JASK IS OVER.
000943: 13,3321           53464                           DXCH     DAPZRUPT
000944: 13,3322           52016                           DXCH     ZRUPT
000945: 13,3323           15340                           TCF      NOQRSM
000946:
000947: 13,3324  E6,1537                                  EBANK=   KMPAC
000948: 13,3324           02060 42066  RCS2CDR            2CADR    RCSATT
000949:


000951: 13,3326           51535        LONGDFT            INDEX    SPNDX
000952: 13,3327           34766                           CAF      BIT12
000953: 13,3330           71553                           MASK     DELFLG
000954: 13,3331           00006                           EXTEND
000955: 13,3332           13335                           BZF      +3
000956: 13,3333           41657                           CS       T5TEMP2
000957: 13,3334           13336                           TCF      +2
000958: 13,3335           31657                           CA       T5TEMP2
000959: 13,3336           51535                           INDEX    SPNDX
000960: 13,3337           27577                           ADS      DFT1
000961: 13,3340           00002                           TC       Q
000962:
000963: 13,3341           00004        TIMING             INHINT
000964: 13,3342           00006                           EXTEND
000965: 13,3343           23531                           QXCH     T5TEMP
000966:
000967: 13,3344           56007                           XCH      7
000968: 13,3345           55661                           TS       5WORD
000969: 13,3346           55662                           TS       6WORD
000970:
000971: 13,3347           31456                           CA       TIMEHOLD
000972: 13,3350           55660                           TS       NEXT6INT
000973:
000974: 13,3351           35001                           CAF      ONE
000975: 13,3352           55535        T6LOOP             TS       SPNDX
000976: 13,3353           51535                           INDEX    SPNDX
000977: 13,3354           41477                           CS       5PT
000978: 13,3355           00006                           EXTEND
000979: 13,3356           13372                           BZF      NO5TIME
000980: 13,3357           03364                           TC       SETNEXT6
000981:
000982: 13,3360           51535                           INDEX    SPNDX
000983: 13,3361           31505                           CA       5PW
000984: 13,3362           27661                           ADS      5WORD
000985: 13,3363           13375                           TCF      TEST61PT
000986:


000988: 13,3364           61660        SETNEXT6           AD       NEXT6INT
000989: 13,3365           00006                           EXTEND
000990: 13,3366           63371                           BZMF     +3
000991: 13,3367           40000                           COM
000992: 13,3370           27660                           ADS      NEXT6INT
000993: 13,3371           00002                           TC       Q
000994:
000995: 13,3372           51535        NO5TIME            INDEX    SPNDX
000996: 13,3373           31466                           CA       5AXW
000997: 13,3374           27661                           ADS      5WORD
000998:
000999: 13,3375           51535        TEST61PT           INDEX    SPNDX
001000: 13,3376           41501                           CS       61PT
001001: 13,3377           00006                           EXTEND
001002: 13,3400           13406                           BZF      NO61TIME
001003: 13,3401           03364                           TC       SETNEXT6
001004:
001005: 13,3402           51535                           INDEX    SPNDX
001006: 13,3403           31507                           CA       61PW
001007: 13,3404           27662                           ADS      6WORD
001008: 13,3405           03416                           TC       COUNTDWN
001009:
001010: 13,3406           51535        NO61TIME           INDEX    SPNDX
001011: 13,3407           41503                           CS       62PT
001012: 13,3410           00006                           EXTEND
001013: 13,3411           13416                           BZF      COUNTDWN
001014: 13,3412           03364                           TC       SETNEXT6
001015:
001016: 13,3413           51535                           INDEX    SPNDX
001017: 13,3414           31511                           CA       62PW
001018: 13,3415           27662                           ADS      6WORD
001019:
001020: 13,3416           11535        COUNTDWN           CCS      SPNDX
001021: 13,3417           13352                           TCF      T6LOOP
001022:
001023: 13,3420           00003                           RELINT
001024: 13,3421           01531                           TC       T5TEMP
001025:
001026: 13,3422           35001        TIMEUPDT           CAF      ONE
001027: 13,3423           55535                           TS       SPNDX
001028:
001029: 13,3424           51535                           INDEX    SPNDX
001030: 13,3425           41477                           CS       5PT
001031: 13,3426           61660                           AD       NEXT6INT
001032: 13,3427           00006                           EXTEND
001033: 13,3430           63432                           BZMF     +2
001034: 13,3431           13435                           TCF      61PTCHK
001035:
001036: 13,3432           40000                           COM
001037: 13,3433           51535                           INDEX    SPNDX
001038: 13,3434           55477                           TS       5PT
001039:
001040: 13,3435           51535        61PTCHK            INDEX    SPNDX
001041: 13,3436           41501                           CS       61PT
001042: 13,3437           61660                           AD       NEXT6INT
001043: 13,3440           00006                           EXTEND
001044: 13,3441           63454                           BZMF     61PTSET
001045:
001046: 13,3442           51535                           INDEX    SPNDX
001047: 13,3443           41503                           CS       62PT
001048: 13,3444           61660                           AD       NEXT6INT
001049: 13,3445           00006                           EXTEND
001050: 13,3446           63450                           BZMF     +2
001051: 13,3447           13457                           TCF      GOROUND
001052:
001053: 13,3450           40000                           COM
001054: 13,3451           51535                           INDEX    SPNDX
001055: 13,3452           55503                           TS       62PT
001056: 13,3453           13457                           TCF      GOROUND
001057:


001059: 13,3454           40000        61PTSET            COM
001060: 13,3455           51535                           INDEX    SPNDX
001061: 13,3456           55501                           TS       61PT
001062:
001063: 13,3457           11535        GOROUND            CCS      SPNDX
001064: 13,3460           13423                           TCF      TIMEUPDT   +1
001065:
001066: 13,3461           41660                           CS       NEXT6INT
001067: 13,3462           27456                           ADS      TIMEHOLD
001068: 13,3463           00006                           EXTEND
001069: 13,3464           63466                           BZMF     +2
001070: 13,3465           13341                           TCF      TIMING
001071:
001072: 13,3466           33003                           CAF      100MST6
001073: 13,3467           55456                           TS       TIMEHOLD
001074: 13,3470           13341                           TCF      TIMING
001075:
001076: 13,3471           31463        DKT6               CA       DAPZRUPT
001077: 13,3472           00006                           EXTEND
001078: 13,3473           63500                           BZMF     +5
001079:
001080: 13,3474           41661                           CS       5WORD
001081: 13,3475           74764                           MASK     BIT14
001082: 13,3476           27661                           ADS      5WORD
001083: 13,3477           15336                           TCF      RESUME
001084:
001085: 13,3500           31661                           CA       5WORD
001086: 13,3501           00006                           EXTEND
001087: 13,3502           01005                           WRITE    PYJETS
001088:
001089: 13,3503           31662                           CA       6WORD
001090: 13,3504           00006                           EXTEND
001091: 13,3505           01006                           WRITE    ROLLJETS
001092:
001093: 13,3506           31660                           CA       NEXT6INT
001094: 13,3507           54031                           TS       TIME6
001095:
001096: 13,3510           04553                           TC       C13STALL
001097: 13,3511           34763                           CAF      BIT15
001098: 13,3512           00006                           EXTEND
001099: 13,3513           05013                           WOR      CHAN13
001100:
001101: 13,3514           03422                           TC       TIMEUPDT
001102: 13,3515           15336                           TCF      RESUME
001103:
001104: 13,3516           34626        SETUPT6            CAF      14MS
001105: 13,3517           00004                           INHINT
001106: 13,3520           54031                           TS       TIME6
001107:
001108: 13,3521           00006                           EXTEND
001109: 13,3522           22070                           QXCH     RUPTREG1
001110: 13,3523           04553                           TC       C13STALL
001111: 13,3524           00006                           EXTEND
001112: 13,3525           22070                           QXCH     RUPTREG1
001113: 13,3526           34763                           CAF      BIT15
001114: 13,3527           00006                           EXTEND
001115: 13,3530           05013                           WOR      CHAN13
001116:
001117: 13,3531           33003                           CA       100MST6
001118: 13,3532           55456                           TS       TIMEHOLD
001119:
001120: 13,3533           00003                           RELINT
001121: 13,3534           00002                           TC       Q
001122:
001123:    4000                                           SETLOC   FFTAG12
001124:    4000                                           BANK
001125:    4616                                           COUNT*   $$/DKDAP
001126:
001127:    4616           00000                           DEC      0          B-14
001128:    4617           00500        200MST6            DEC      320        B-14
001129:    4620           77277                           DEC      -320       B-14
001130:    4621           00000                           DEC      0          B-14
001131:    4622           00120        50MST6             DEC      80         B-14
001132:    4623           77657                           DEC      -80        B-14
001133:    4624           00000                           DEC      0          B-14

End of include-file DOCKED_DAP_JET_SELECTION.agc.  Parent file is MAIN.agc


