
Source Code


000002:                                                                                                  ## Copyright:   Public domain.
000003:                                                                                                  ## Filename:    DOWN-TELEMETRY_PROGRAM.agc
000004:                                                                                                  ## Purpose:     A section of Skylark revision 048.
000005:                                                                                                  ##              It is part of the source code for the Apollo Guidance Computer (AGC)
000006:                                                                                                  ##              for Skylab-2, Skylab-3, Skylab-4, and ASTP. No original listings of
000007:                                                                                                  ##              this software are available; instead, this file was created via
000008:                                                                                                  ##              disassembly of dumps of the core rope modules actually flown on
000009:                                                                                                  ##              Skylab-2. Access to these modules was provided by the New Mexico
000010:                                                                                                  ##              Museum of Space History.
000011:                                                                                                  ## Assembler:   yaYUL
000012:                                                                                                  ## Contact:     Ron Burkey <info@sandroid.org>.
000013:                                                                                                  ## Website:     www.ibiblio.org/apollo/index.html
000014:                                                                                                  ## Mod history: 2023-09-04 MAS  Created from Artemis 072.
000015:
000016:                                                                                                  #  PROGRAM NAME- DOWN TELEMETRY PROGRAM
000017:                                                                                                  #  MOD NO.- 0      TO COMPLETELY REWRITE THE DOWN TELEMETRY PROGRAM AND DOWNLINK ERASABLE DUMP PROGRAM FOR THE
000018:                                                                                                  #                  PURPOSE OF SAVING APPROXIMATELY 150 WORDS OF CORE STORAGE.
000019:                                                                                                  #                  THIS CHANGE REQUIRES AN ENTIRELY NEW METHOD OF SPECIFYING DOWNLINK LISTS. REFER TO DOWNLINK
000020:                                                                                                  #                  LISTS LOG SECTION FOR MORE DETAILS. HOWEVER THIS CHANGE WILL NOT AFFECT THE GROUND PROCESSING
000021:                                                                                                  #                  OF DOWN TELEMETRY DATA.
000022:                                                                                                  #  MOD BY-  KILROY, SMITH, DEWITT
000023:                                                                                                  #  MOD BY - DENSMORE - JUNE 1969 - ELIMINATE ERASABLE DUMP COUNT
000024:                                                                                                  #  DATE-    02 OCT 67
000025:                                                                                                  #  AUTHORS- KILROY, SMITH, DEWITT, DEWOLF, FAGIN
000026:                                                                                                  #  LOG SECTION- DOWN-TELEMETRY PROGRAM
000027:                                                                                                  #  FUNCTIONAL DESCRIPTION- THIS ROUTINE IS INITIATED BY TELEMETRY END
000028:                                                                                                  #           PULSE FROM THE DOWNLINK TELEMETRY CONVERTER. THIS PULSE OCCURS
000029:                                                                                                  #           AT 50 TIMES PER SEC (EVERY 20 MS) THEREFORE DODOWNTM IS
000030:                                                                                                  #           EXECUTED AT THESE RATES. THIS ROUTINE SELECTS THE APPROPRIATE
000031:                                                                                                  #           AGC DATA TO BE TRANSMITTED DOWNLINK AND LOADS IT INTO OUTPUT
000032:                                                                                                  #           CHANNELS 34 AND 35. THE INFORMATION IS THEN GATED OUT FROM THE
000033:                                                                                                  #           LGC IN SERIAL FASHION.
000034:                                                                                                  #           THIS PROGRAM IS CODED FOR A 2 SECOND DOWNLIST. SINCE DOWNRUPTS
000035:                                                                                                  #           OCCUR EVERY 20 MS AND 2 AGC COMPUTER WORDS CAN BE PLACED IN
000036:                                                                                                  #           CHANNELS 34 AND 35 DURING EACH DOWNRUPT THE PROGRAM IS CAPABLE
000037:                                                                                                  #           OF SENDING 200 AGC WORDS EVERY 2 SECONDS.
000038:                                                                                                  #  CALLING SEQUENCE- NONE
000039:                                                                                                  #           PROGRAM IS ENTERED VIA TCF DODOWNTM WHICH IS EXECUTED AS A
000040:                                                                                                  #           RESULT OF A DOWNRUPT. CONTROL IS RETURNED VIA TCF RESUME WHICH
000041:                                                                                                  #           IN EFFECT IS A RESUME.
000042:                                                                                                  #  SUBROUTINES CALLED- NONE
000043:                                                                                                  #  NORMAL EXIT MODE- TCF RESUME
000044:                                                                                                  #  ALARM OR ABORT EXIT MODE- NONE
000045:                                                                                                  #  RESTART PROTECTION:
000046:                                                                                                  #           ON A FRESH START AND RESTART THE 'STARTSUB' SUBROUTINE WILL INITIALIZE THE DOWNLIST POINTER (ACTUALLY
000047:                                                                                                  #           DNTMGOTO) TO THE BEGINNING OF THE CURRENT DOWNLIST (I.E. CURRENT CONTENTS OF DNLSTADR). THIS HAS THE
000048:                                                                                                  #           EFFECT OF IGNORING THE REMAINDER OF THE DOWNLIST WHICH THE DOWN-TELEMETRY PROGRAM WAS WORKING ON WHEN
000049:                                                                                                  #           THE RESTART (OR FRESH START) OCCURRED AND RESUME DOWN TELEMETRY FROM THE BEGINNING OF THE CURRENT
000050:                                                                                                  #           DOWNLIST.
000051:                                                                                                  #           ALSO OF INTEREST IS THE FACT THAT ON A RESTART THE AGC WILL ZERO DOWNLINK CHANNELS 13, 34 AND 35.
000052:                                                                                                  #  DOWNLINK LIST SELECTION:
000053:                                                                                                  #           THE APPROPRIATE DOWNLINK LISTS ARE SELECTED BY THE FOLLOWING:
000054:                                                                                                  #           1. FRESH START
000055:                                                                                                  #           2. V37EXXE  WHERE XX = THE MAJOR MODE BEING SELECTED.
000056:                                                                                                  #           3. UPDATE PROGRAM (P27)
000057:                                                                                                  #           4.   NON-V37 SELECTABLE TYPE PROGRAMS (E.G. AGS INITIALIZATION (SUNDANCE, LUMINARY) AND P61-P62
000058:                                                                                                  #                TRANSITION (COLOSSUS) ETC.).
000059:                                                                                                  #  DOWNLINK LIST RULES AND LIMITATIONS:
000060:                                                                                                  #           READ SECTION(S) WHICH FOLLOW 'DEBRIS' WRITEUP.
000061:                                                                                                  #  OUTPUT-  EVERY 2 SECONDS 100 DOUBLE PRECISION WORDS (I.E. 200 LGC
000062:                                                                                                  #           COMPUTER WORDS) ARE TRANSMITTED VIA DOWNLINK.
000063:                                                                                                  #  ERASABLE INITIALIZATION REQUIRED- NONE
000064:                                                                                                  #           'DNTMGOTO' AND 'DNLSTADR' ARE INITIALIZED BY THE FRESH START PROGRAM.
000065:                                                                                                  #  DEBRIS (ERASABLE LOCATIONS DESTROYED BY THIS PROGRAM)-
000066:                                                                                                  #           LDATALST, DNTMBUFF TO DNTMBUFF +21D, TMINDEX, DNQ.
000067:
000068:                                                                                                  #  DODOWNTM IS ENTERED EVERY 20 MS BY AN INTERRUPT TRIGGERED BY THE
000069:                                                                                                  #  RECEIPT OF AN ENDPULSE FROM THE SPACECRAFT TELEMETRY PROGRAMMER.
000070:
000071:                                                                                                  #  NOTES REGARDING DOWNLINK LISTS ASSOCIATED WITH THIS PROGRAM:
000072:                                                                                                  #  1. DOWNLISTS. - DOWNLISTS MUST BE COMPILED IN THE SAME BANK AS THE
000073:                                                                                                  #     DOWN-TELEMETRY PROGRAM. THIS IS DONE FOR EASE OF CODING, FASTER
000074:                                                                                                  #     EXECUTION.
000075:                                                                                                  #  2. EACH DOWNLINK LIST CONSISTS OF A CONTROL LIST AND A NUMBER OF
000076:                                                                                                  #     SUBLISTS.
000077:                                                                                                  #  3. A SUBLIST REFERS TO A SNAPSHOT OR DATA COMMON TO THE SAME OR OTHER
000078:                                                                                                  #     DOWNLINK LISTS. ANY SUBLIST CONTAINING COMMON DATA NEEDS TO BE
000079:                                                                                                  #     CODED ONLY ONCE FOR THE APPLICABLE DOWNLINK LISTS.
000080:                                                                                                  #  4. SNAPSHOT SUBLISTS REFER SPECIFICALLY TO HOMOGENOUS DATA WHICH MUST BE
000081:                                                                                                  #     SAVED IN A BUFFER DURING ONE DOWNRUPT.
000082:                                                                                                  #  5. THE 1DNADR FOR THE 1ST WORD OF SNAPSHOT DATA IS FOUND AT THE END
000083:                                                                                                  #     OF EACH SNAPSHOT SUBLIST, SINCE THE PROGRAM CODING SENDS THIS DP WORD
000084:                                                                                                  #     IMMEDIATELY AFTER STORING THE OTHERS IN THE SNAPSHOT BUFFER.
000085:                                                                                                  #  6. ALL LISTS ARE COMBINATIONS OF CODED ERASABLE ADDRESS CONSTANTS
000086:                                                                                                  #     CREATED FOR THE DOWNLIST PROGRAM.
000087:                                                                                                  #     A. 1DNADR                  1-WORD DOWNLIST ADDRESS.
000088:                                                                                                  #         SAME AS ECADR, BUT USED WHEN THE WORD ADDRESSED IS THE LEFT
000089:                                                                                                  #         HALF OF A DOUBLE-PRECISION WORD FOR DOWN TELEMETRY.
000090:                                                                                                  #     B. 2DNADR - 6DNADR         N-WORD DOWNLIST ADDRESS, N = 2 - 6.
000091:                                                                                                  #         SAME AS 1DNADR, BUT WITH THE 4 UNUSED BITS OF THE ECADR FORMAT
000092:                                                                                                  #         FILLED IN WITH 0001-0101.  USED TO POINT TO A LIST OF N DOUBLE-
000093:                                                                                                  #         PRECISION WORDS, STORED CONSECUTIVELY, FOR DOWN TELEMETRY.
000094:                                                                                                  #     C. DNCHAN                  DOWNLIST CHANNEL ADDRESS.
000095:                                                                                                  #         SAME AS 1DNADR, BUT WITH PREFIX BITS 0111.  USED TO POINT TO
000096:                                                                                                  #         A PAIR OF CHANNELS FOR DOWN TELEMETRY.
000097:                                                                                                  #     D. DNPTR                   DOWN TELEMETRY SUBLIST POINTER.
000098:                                                                                                  #         SAME AS CAF BUT TAGGED AS A CONSTANT. USED IN CONTROL LIST TO POINT TO A SUBLIST.
000099:                                                                                                  #         CAUTION--- A DNPTR CANNOT BE USED IN A SUBLIST.
000100:                                                                                                  #  7. THE WORD ORDER CODE IS SET TO ZERO AT THE BEGINNING OF EACH DOWNLIST (I.E. CONTROL LIST) AND WHEN
000101:                                                                                                  #     A '1DNADR TIME2' IS DETECTED IN THE CONTROL LIST (ONLY).
000102:                                                                                                  #  8. IN THE SNAPSHOT SUBLIST ONLY, THE DNADR'S CANNOT POINT TO THE FIRST WORD OF ANY EBANK.
000103:
000104:                                                                                                  #  DOWNLINK LIST RESTRICTIONS:
000105:                                                                                                  #    (THE FOLLOWING POINTS MAY BE LISTED ELSEWHERE BUT ARE LISTED HERE SO IT IS CLEAR THAT THESE THINGS CANNOT BE
000106:                                                                                                  #    DONE)
000107:
000108:                                                                                                  #  1. SNAPSHOT DOWNLIST:
000109:                                                                                                  #    (A) CANNOT CONTAIN THE FOLLOWING ECADRS (I.E. 1DNADR'S): 0, 400, 1000, 1400, 2000, 2400, 3000, 3400.
000110:                                                                                                  #    (B) CAN CONTAIN ONLY 1DNADR'S
000111:
000112:                                                                                                  #  2. ALL DOWNLINKED DATA (EXCEPT CHANNELS) IS PICKED UP BY A <DCA<SO DOWNLINK LISTS CANNOT CONTAIN THE
000113:                                                                                                  #     EQUIVALENT OF THE FOLLOWING ECADRS (I.E. IDNADRS): 377, 777, 1377, 1777, 2377, 27777, 3377, 3777.
000114:
000115:                                                                                                  #     (NOTE: THE TERM EQUIVALENT ' MEANT THAT THE IDNADR TO 6DNADR WILL BE PROCESSED LIKE 1 TO 6 ECADRS)
000116:
000117:                                                                                                  #  3. CONTROL LISTS AND SUBLISTS CANNOT HAVE ENTRIES = OCTAL 00000 OR OCTAL 77777
000118:                                                                                                  #  4. THE '1DNADR TIME2' WHICH WILL CAUSE THE DOWNLINK PROGRAM TO SET THE WORDER CODE TO 3 MUST APPEAR IN THE
000119:                                                                                                  #     CONTROL SECTION OF THE DOWNLIST.
000120:
000121:                                                                                                  #  5. 'DNCHAN 0' CANNOT BE USED.
000122:
000123:                                                                                                  #  6. 'DNPTR 0' CANNOT BE USED.
000124:
000125:                                                                                                  #  7. DNPTR CANNOT APPEAR IN A SUBLIST.
000126:
000127:                                                                                                  #  EBANK SETTINGS
000128:                                                                                                  #        IN THE PROCESS OF SETTING THE EBANK (WHEN PICKING UP DOWNLINK DATA) THE DOWN TELEMETRY PROGRAM PUTS
000129:                                                                                                  #        'GARBAGE' INTO BITS15-12 OF EBANK. HUGH BLAIR-SMITH WARNS US THAT BITS15-12 OF EBANK MAY BECOME
000130:                                                                                                  #        SIGNIFICANT SOMEDAY IN THE FUTURE. IF/WHEN THAT HAPPENS, THE PROGRAM SHOULD INSURE (BY MASKING ETC.)
000131:                                                                                                  #        THAT BITS 15-12 OF EBANK ARE ZERO.
000132:                                                                                                  #  INITIALIZATION REQUIRED- TO INTERRUPT CURRENT LIST AND START A NEW ONE..
000133:                                                                                                  #        1.      ADRES OF DOWNLINK LIST INTO DNLSTADR
000134:                                                                                                  #        2.      NEGONE INTO SUBLIST
000135:                                                                                                  #        3.      NEGONE INTO DNECADR
000136:
000137:    4000                                           SETLOC   FFTAG12
000138:    4000                                           BANK
000139:
000140:    4632     0337                                  EBANK=   DNTMBUFF
000141:
000142:    4632                                           COUNT*   $$/DPROG
000143:    4632           54016        DODOWNTM           TS       BANKRUPT
000144:    4633           00006                           EXTEND
000145:    4634           22012                           QXCH     QRUPT                                 #  SAVE Q
000146:    4635           34773                           CA       BIT7                                  #  SET WORD ORDER CODE TO 1. EXCEPTION- AT
000147:    4636           00006                           EXTEND
000148:    4637           02013                           RAND     CHAN13
000149:    4640           10000                           CCS      A
000150:    4641           00334                           TC       DNTMGOTO
000151:    4642           04553                           TC       C13STALL
000152:    4643           34773                           CA       BIT7
000153:    4644           00006                           EXTEND                                         #  THE BEGINNING OF EACH LIST THE WORD
000154:    4645           05013                           WOR      CHAN13                                #  CODE WILL BE SET BACK TO 0.
000155:    4646           00334                           TC       DNTMGOTO                              #  GOTO APPROPRIATE PHASE OF PROGRAM
000156:
000157: 05,2000                                           SETLOC   DOWNTELM
000158: 05,2000                                           BANK
000159:
000160: 05,3444                                           COUNT*   $$/DPROG
000161: 05,3444           37702        DNPHASE1           CA       NEGONE                                #  INITIALIZE ALL CONTROL WORDS
000162: 05,3445           54336                           TS       SUBLIST                               #  WORDS TO MINUS ONE
000163: 05,3446           54335                           TS       DNECADR
000164: 05,3447           33572                           CA       LDNPHAS2                              #  SET DNTMGOTO =O ALL SUBSEQUENT DOWNRUPTS
000165: 05,3450           54334                           TS       DNTMGOTO                              #  GO TO DNPHASE2
000166: 05,3451           13465                           TCF      NEWLIST
000167: 05,3452           10335        DNPHASE2           CCS      DNECADR                               #  SENDING OF DATA IN PROGRESS
000168: 05,3453           03605        DODNADR            TC       FETCH2WD                              #  YES - THEN FETCH THE NEXT 2 SP WORDS
000169: 05,3454           77753        MINTIME2           -1DNADR  TIME2                                 #  NEGATIVE OF TIME2 1DNADR
000170: 05,3455           13456                           TCF      +1                                    #  (ECADR OF 3776 + 74001 = 77777)
000171:
000172: 05,3456           10336                           CCS      SUBLIST                               #  IS THE SUBLIST IN CONTROL
000173: 05,3457           13620                           TCF      NEXTINSL                              #  YES
000174: 05,3460           74001        DNADRDCR           OCT      74001                                 #  DNADR COUNT AND ECADR DECREMENTER
000175:
000176: 05,3461           30333        CHKLIST            CA       CTLIST
000177: 05,3462           00006                           EXTEND
000178: 05,3463           63465                           BZMF     NEWLIST                               #  IT WILL BE NEGATIVE AT END OF LIST
000179: 05,3464           13472                           TCF      NEXTINCL
000180: 05,3465           50332        NEWLIST            INDEX    DNLSTCOD
000181: 05,3466           32300                           CA       DNTABLE                               #  INITIALIZE CTLIST WITH
000182: 05,3467           54333                           TS       CTLIST                                #    STARTING ADDRESS OF NEW LIST
000183: 05,3470           40332                           CS       DNLSTCOD
000184: 05,3471           13707                           TCF      SENDID     +3
000185: 05,3472           50333        NEXTINCL           INDEX    CTLIST
000186: 05,3473           30000                           CA       0
000187: 05,3474           10000                           CCS      A
000188: 05,3475           24333                           INCR     CTLIST                                #  SET POINTER TO PICK UP NEXT CTLIST WORD
000189: 05,3476           13502                           TCF      +4                                    #  ON NEXT ENTRY TO PROG. (A SHOULD NOT =0)
000190: 05,3477           56333                           XCH      CTLIST                                #  SET CTLIST TO NEGATIVE AND PLACE(CODING)
000191: 05,3500           40000                           COM                                            #  UNCOMPLEMENTED DNADR INTO A.    (FOR LA)
000192: 05,3501           56333                           XCH      CTLIST                                #                                  (ST IN )
000193: 05,3502           24000                 +4        INCR     A                                     #                                  (CTLIST)
000194: 05,3503           54335                           TS       DNECADR                               #  SAVE DNADR
000195: 05,3504           63454                           AD       MINTIME2                              #  TEST FOR TIME2 (NEG. OF ECADR)
000196: 05,3505           10000                           CCS      A
000197: 05,3506           13512                           TCF      SETWO      +1                         #  DON'T SET WORD ORDER CODE
000198: 05,3507           47777        MINB1314           OCT      47777                                 #  MINUS BIT 13 AND 14  (CAN'T GET HERE)
000199: 05,3510           13512                           TCF      SETWO      +1                         #  DON'T SET WORD ORDER CODE
000200: 05,3511           03534        SETWO              TC       WOZERO                                #  GO SET WORD ORDER CODE TO ZERO.
000201: 05,3512           30335                 +1        CA       DNECADR                               #  RELOAD A WITH THE DNADR.
000202: 05,3513           63507                 +2        AD       MINB1314                              #  IS THIS A REGULAR DNADR?
000203: 05,3514           00006                           EXTEND
000204: 05,3515           63605                           BZMF     FETCH2WD                              #  YES. (A MUST NEVER BE ZERO)
000205: 05,3516           67674                           AD       MINB12                                #  NO- IS IT A POINTER (DNPTR) OR A
000206: 05,3517           00006                           EXTEND                                         #      CHANNEL(DNCHAN)
000207: 05,3520           63543                           BZMF     DODNPTR                               #  IT'S A POINTER. (A MUST NEVER BE ZERO)
000208:
000209: 05,3521           00006        DODNCHAN           TC       6                                     #  (EXECUTED AS EXTEND) IT S A CHANNEL
000210: 05,3522           50335                           INDEX    DNECADR
000211: 05,3523           44000                           INDEX    0          -4000                      #  (EXECUTED AS READ)
000212: 05,3524           54001                           TS       L
000213: 05,3525           00006                           TC       6                                     #  (EXECUTED AS EXTEND)
000214: 05,3526           50335                           INDEX    DNECADR
000215: 05,3527           43777                           INDEX    0          -4001                      #  (EXECUTED AS READ)
000216: 05,3530           54335                           TS       DNECADR                               #  SET DNECADR
000217: 05,3531           37702                           CA       NEGONE                                #      TO MINUS
000218: 05,3532           56335                           XCH      DNECADR                               #          WHILE PRESERVING A.
000219: 05,3533           13633                           TCF      DNTMEXIT                              #  GO SEND CHANNELS
000220:
000221: 05,3534           00006        WOZERO             EXTEND
000222: 05,3535           22070                           QXCH     RUPTREG1
000223: 05,3536           04553                           TC       C13STALL
000224: 05,3537           44773                           CS       BIT7
000225: 05,3540           00006                           EXTEND
000226: 05,3541           03013                           WAND     CHAN13                                #  SET WORD ORDER CODE TO ZERO
000227: 05,3542           00070                           TC       RUPTREG1                              #  RETURN TO CALLER
000228:
000229: 05,3543           50335        DODNPTR            INDEX    DNECADR                               #  DNECADR CONTAINS ADRES OF SUBLIST
000230: 05,3544           00000                           0        0                                     #  CLEAR AND ADD LIST ENTRY INTO A.
000231: 05,3545           10000                           CCS      A                                     #  IS THIS A SNAPSHOT SUBLIST
000232: 05,3546           30335                           CA       DNECADR                               #  NO, IT IS A REGULAR SUBLIST.
000233: 05,3547           13617                           TCF      DOSUBLST                              #  A MUST NOT BE ZERO.
000234:
000235: 05,3550           56335                           XCH      DNECADR                               #  YES, IT IS A SNAPSHOT SUBLIST.
000236: 05,3551           54336                           TS       SUBLIST                               #  C(DNECADR) INTO SUBLIST
000237: 05,3552           35003                           CAF      ZERO                                  #       A     INTO   A
000238: 05,3553           56335                           XCH      TMINDEX                               #  (NOTE.. TMINDEX = DNECADR)
000239:
000240:                                                                                                  #  THE FOLLOWING CODING (FROM SNAPLOOP TO SNAPEND) IS FOR THE PURPOSE OF TAKING A SNAPSHOT OF 12 DP REGISTERS.
000241:                                                                                                  #  THIS IS DONE BY SAVING 11 DP REGISTERS IN DNTMBUFF AND SENDING THE FIRST DP WORD IMMEDIATELY.
000242:                                                                                                  #  THE SNAPSHOT PROCESSING IS THE MOST TIME CONSUMING AND THEREFORE THE CODING AND LIST STRUCTURE WERE DESIGNED
000243:                                                                                                  #  TO MINIMIZE TIME. THE TIME OPTIMIZATION RESULTS IN RULES UNIQUE TO THE SNAPSHOT PORTION OF THE DOWNLIST.
000244:                                                                                                  #  THESE RULES ARE......
000245:                                                                                                  #        1.      ONLY 1DNADR'S CAN APPEAR IN THE SNAPSHOT SUBLIST
000246:                                                                                                  #        2.      THE 1DNADR'S CANNOT REFER TO THE FIRST LOCATION IN ANY BANK.
000247:
000248: 05,3554           54003        SNAPLOOP           TS       EBANK                                 #  SET EBANK
000249: 05,3555           74350                           MASK     LOW8                                  #  ISOLATE RELATIVE ADDRESS
000250: 05,3556           00006                           EXTEND
000251: 05,3557           50000                           INDEX    A
000252: 05,3560  E3,1401                                  EBANK=   1401
000253: 05,3560           31402                           DCA      1401                                  #  PICK UP 2 SNAPSHOT WORDS.
000254: 05,3561     0337                                  EBANK=   DNTMBUFF
000255: 05,3561           50335                           INDEX    TMINDEX
000256: 05,3562           52340                           DXCH     DNTMBUFF                              #  STORE 2 SNAPSHOT WORDS IN BUFFER
000257: 05,3563           24335                           INCR     TMINDEX                               #  SET BUFFER INDEX FOR NEXT 2 WORDS.
000258: 05,3564           24335                           INCR     TMINDEX
000259: 05,3565           24336        SNAPAGN            INCR     SUBLIST                               #  SET POINTER TO NEXT 2 WORDS OF SNAPSHOT
000260: 05,3566           50336                           INDEX    SUBLIST
000261: 05,3567           00000                           0        0                                     #  = CA SSSS (SSSS = NEXT ENTRY IN SUBLIST)
000262: 05,3570           10000                           CCS      A                                     #  TEST FOR LAST TWO WORDS OF SNAPSHOT.
000263: 05,3571           13554                           TCF      SNAPLOOP                              #  NOT LAST TWO.
000264: 05,3572           03452        LDNPHAS2           GENADR   DNPHASE2
000265: 05,3573           54336                           TS       SUBLIST                               #  YES, LAST.  SAVE A.
000266: 05,3574           37702                           CA       NEGONE                                #  SET DNECADR AND
000267: 05,3575           54335                           TS       DNECADR                               #      SUBLIST POINTERS
000268: 05,3576           56336                           XCH      SUBLIST                               #          TO NEGATIVE VALUES.
000269: 05,3577           54003                           TS       EBANK
000270: 05,3600           74350                           MASK     LOW8
000271: 05,3601           00006                           EXTEND
000272: 05,3602           50000                           INDEX    A
000273: 05,3603  E3,1401                                  EBANK=   1401
000274: 05,3603           31402                           DCA      1401                                  #  PICK UP FIRST 2 WORDS OF SNAPSHOT.
000275: 05,3604     0337                                  EBANK=   DNTMBUFF
000276: 05,3604           13633        SNAPEND            TCF      DNTMEXIT                              #     NOW GO SEND THEM.
000277:
000278: 05,3605           30335        FETCH2WD           CA       DNECADR
000279: 05,3606           54003                           TS       EBANK                                 #  SET EBANK
000280: 05,3607           74350                           MASK     LOW8                                  #  ISOLATE RELATIVE ADDRESS
000281: 05,3610           54001                           TS       L
000282: 05,3611           33460                           CA       DNADRDCR                              #  DECREMENT COUNT AND ECADR
000283: 05,3612           26335                           ADS      DNECADR
000284: 05,3613           00006                           EXTEND
000285: 05,3614           50001                           INDEX    L
000286: 05,3615  E3,1400                                  EBANK=   1400
000287: 05,3615           31401                           DCA      1400                                  #  PICK UP 2 DATA WORDS
000288: 05,3616     0337                                  EBANK=   DNTMBUFF
000289: 05,3616           13633                           TCF      DNTMEXIT                              #     NOW GO SEND THEM.
000290:
000291: 05,3617           54336        DOSUBLST           TS       SUBLIST                               #  SET SUBLIST POINTER
000292: 05,3620           50336        NEXTINSL           INDEX    SUBLIST
000293: 05,3621           00000                           0        0                                     #  = CA SSSS (SSSS = NEXT ENTRY IN SUBLIST)
000294: 05,3622           10000                           CCS      A                                     #  IS IT THE END OF THE SUBLIST
000295: 05,3623           24336                           INCR     SUBLIST                               #  NO-
000296: 05,3624           13630                           TCF      +4
000297: 05,3625           54336                           TS       SUBLIST                               #  SAVE A.
000298: 05,3626           37702                           CA       NEGONE                                #  SET SUBLIST TO MINUS
000299: 05,3627           56336                           XCH      SUBLIST                               #  RETRIEVE A.
000300: 05,3630           24000                 +4        INCR     A
000301: 05,3631           54335                           TS       DNECADR                               #  SAVE DNADR
000302: 05,3632           13513                           TCF      SETWO      +2                         #  GO USE COMMON CODING (PROBLEMS WOULD
000303:                                                                                                  #  OCCUR IF THE PROGRAM ENCOUNTERED A
000304:                                                                                                  #  DNPTR NOW)
000305:
000306: 05,3633           00006        DNTMEXIT           EXTEND                                         #  DOWN-TELEMETRY EXIT
000307: 05,3634           01034                           WRITE    DNTM1                                 #  TO SEND A + L TO CHANNELS 34 + 35
000308: 05,3635           30001                           CA       L                                     #  RESPECTIVELY
000309: 05,3636           00006        TMEXITL            EXTEND
000310: 05,3637           01035                           WRITE    DNTM2
000311: 05,3640           15336        TMRESUME           TCF      RESUME                                #  EXIT TELEMETRY PROGRAM VIA RESUME.
000312: 05,3641     7674               MINB12             EQUALS   -1/8
000313:
000314:                                                                                                  #  SUBROUTINE NAME- DNDUMP
000315:                                                                                                  #  FUNCTIONAL DESCRIPTION - TO SEND (DUMP) ALL 8 BANKS OF ERASABLE STORAGE TWICE.  BANKS ARE SENT ONE AT A TIME
000316:                                                                                                  #        EACH BANK IS PRECEEDED BY AN ID WORD, SYNCH BITS, ECADR AND TIME1 FOLLOWED BY THE 256D WORDS OF EACH
000317:                                                                                                  #        EBANK. EBANKS ARE DUMPED IN ORDER (I.E. EBANK 0 FIRST, THEN EBANK1 ETC.)
000318:                                                                                                  #  CALLING SEQUENCE- THE GROUND OR ASTRONAUT BY KEYING V74E CAN INITIALIZE THE DUMP.
000319:                                                                                                  #        AFTER KEYING IN V74E THE CURRENT DOWNLIST WILL BE IMMEDIATELY TERMINATED AND THE DOWNLINK ERASABLE DUMP
000320:                                                                                                  #        WILL BEGIN.
000321:                                                                                                  #        ONCE INITIATED THE DOWNLINK ERASABLE DUMP CAN BE TERMINATED (AND INTERRUPTED DOWNLIST REINSTATED) ONLY
000322:                                                                                                  #        BY THE FOLLOWING:
000323:                                                                                                  #        1. A FRESH START
000324:                                                                                                  #        2. COMPLETION OF BOTH COMPLETE DUMPS
000325:                                                                                                  #        3. AND INVOLUNTARILY BY A RESTART.
000326:                                                                                                  #  NORMAL EXIT MODE- TCF DNPHASE1
000327:                                                                                                  #  ALARM OR ABORT MODE- NONE
000328:                                                                                                  #  *SUBROUTINES CALLED- NONE.
000329:                                                                                                  #  ERASABLE INITIALIZATION REQUIRED-
000330:                                                                                                  #        NONE
000331:                                                                                                  #  DEBRIS- DUMPLOC, DUMPSW, DNTMGOTO, EBANK AND CENTRAL REGISTERS
000332:                                                                                                  #  TIMING-    TIME (IN SECS) = ((NO.DUMPS)*(NO.EBANKS)* (WDSPEREBANK + NO.IDWDS)) / NO.WDSPERSEC
000333:                                                                                                  #             TIME (IN SECS) =  (   4    )*(    8    )* (    256     +     4   )  /     100
000334:                                                                                                  #        THUS TIME (IN SECS TO SEND DUMP OF ERASABLE 4 TIMES VIA DOWNLINK) = 83.2 SECONDS
000335:
000336:                                                                                                  #  STRUCTURE OF ONE EBANK AS IT IS SENT BY DOWNLINK PROGRAM-
000337:                                                                                                  #        (REMINDER- THIS ONLY DESCRIBES ONE OF THE 8 EBANKS X 4 (DUMPS) = 32 EBANKS WHICH WILL BE SENT BY DNDUMP)
000338:                                                                                                  #        DOWNLIST                                W
000339:                                                                                                  #          WORD  TAKEN FROM CONTENTS OF  EXAMPLE O       COMMENTS
000340:
000341:                                                                                                  #            1   ERASID                   0177X  0       DOWNLIST I.D. FOR DOWNLINK ERASABLE DUMP (X=7 CSM, 6 LM)
000342:                                                                                                  #            2   LOWIDCOD                 77340  1       DOWNLINK SYNCH BITS. (SAME ONE USED IN ALL OTHER DOWNLISTS)
000343:                                                                                                  #            3   DUMPLOC                  13400  1       (SEE NOTES ON DUMPLOC) 1 = 3RD ERAS DUMP, 3400=ECADR OF 5TH WD
000344:                                                                                                  #            4   TIME1                    14120  1       TIME IN CENTISECONDS
000345:                                                                                                  #            5   FIRST WORD OF EBANK X    03400  1       IN THIS EXAMPLE THIS WORD = CONTENTS OF E7,1400 (ECADR 3400)
000346:                                                                                                  #            6   2ND   WORD OF EBANK X    00142  1       IN THIS EXAMPLE THIS WORD = CONTENTS OF E7,1401 (ECADR 3401)
000347:                                                                                                  #            7   3RD   WORD OF EBANK X    00142  1       IN THIS EXAMPLE THIS WORD = CONTENTS OF E7,1402 (ECADR 3402)
000348:                                                                                                  #            .                                   1
000349:                                                                                                  #            .                                   1
000350:                                                                                                  #            .                                   1
000351:                                                                                                  #           260D 256TH WORD OF EBANK X    03777  1       IN THIS EXAMPLE THIS WORD = CONTENTS OF E7,1777 (ECADR 3777)
000352:
000353:                                                                                                  #  NOTE- DUMPLOC CONTAINS THE COUNTER AND ECADR FOR EACH WORD BEING SENT.
000354:                                                                                                  #        THE BIT STRUCTURE OF DUMPLOC IS FOLLOWS---
000355:                                                                                                  #                                               X = NOT USED
000356:                                                                                                  #                X ABC EEE RRRRRRRR           ABC = ERASABLE DUMP COUNTER (I.E. ABC = 0,1,2 OR 3 WHICH MEANS THAT
000357:                                                                                                  #                                                   COMPLETE ERASABLE DUMP NUMBER 1,2,3 OR 4 RESPECTIVELY IS IN PROGRESS)
000358:                                                                                                  #                                             EEE = EBANK BITS
000359:                                                                                                  #                                        RRRRRRRR = RELATIVE ADDRESS WITHIN AN EBANK.
000360:
000361: 05,3641           35003        DNDUMPI            CA       ZERO                                  #  INITIALIZE DOWNLINK
000362: 05,3642           54335                           TS       DUMPLOC                               #  ERASABLE DUMP
000363: 05,3643           03704                 +2        TC       SENDID                                #  GO SEND ID AND SYNCH BITS
000364: 05,3644           33653                           CA       LDNDUMP1                              #  SET DNTMGOTO
000365: 05,3645           54334                           TS       DNTMGOTO                              #  TO LOCATION FOR NEXT PASS
000366: 05,3646           30025                           CA       TIME1                                 #  PLACE TIME1
000367: 05,3647           56001                           XCH      L                                     #  INTO L
000368: 05,3650           30335                           CA       DUMPLOC                               #  AND ECADR OF THIS EBANK INTO A
000369: 05,3651           13633                           TCF      DNTMEXIT                              #  SEND DUMPLOC AND TIME1
000370:
000371: 05,3652           03654        LDNDUMP            ADRES    DNDUMP
000372: 05,3653           03666        LDNDUMP1           ADRES    DNDUMP1
000373:
000374: 05,3654           35000        DNDUMP             CA       TWO                                   #  INCREMENT ECADR IN DUMPLOC
000375: 05,3655           26335                           ADS      DUMPLOC                               #  TO NEXT DP WORD TO BE
000376: 05,3656           74350                           MASK     LOW8                                  #  DUMPED AND SAVE IT.
000377: 05,3657           10000                           CCS      A                                     #  IS THIS THE BEGINNING OF A NEW EBANK
000378: 05,3660           13670                           TCF      DNDUMP2                               #  NO- THEN CONTINUE DUMPING
000379: 05,3661           30335                           CA       DUMPLOC                               #  YES- IS THIS THE END OF THE
000380: 05,3662           74765                           MASK     BIT13                                 #  SECOND COMPLETE ERASABLE DUMP?
000381: 05,3663           00006                           EXTEND
000382: 05,3664           13643                           BZF      DNDUMPI    +2                         #  NO - GO BACK AND INITIALIZE NEXT BANK
000383: 05,3665           13444                           TCF      DNPHASE1                              #  YES - SEND DOWNLIST AGAIN
000384: 05,3666           33652        DNDUMP1            CA       LDNDUMP                               #  SET DNTMGOTO
000385: 05,3667           54334                           TS       DNTMGOTO                              #  FOR WORDS 3 TO 256D OF CURRENT EBANK
000386:
000387: 05,3670           30335        DNDUMP2            CA       DUMPLOC
000388: 05,3671           54003                           TS       EBANK                                 #  SET EBANK
000389: 05,3672           74350                           MASK     LOW8                                  #  ISOLATE RELATIVE ADDRESS.
000390: 05,3673           54002                           TS       Q                                     #  (NOTE: MASK INSTRUCTION IS USED TO PICK
000391: 05,3674           35002                           CA       NEG0                                  #  UP ERASABLE REGISTERS SO THAT EDITING
000392: 05,3675           54001                           TS       L                                     #  REGISTERS 20-23 WILL NOT BE ALTERED.)
000393: 05,3676           50002                           INDEX    Q
000394: 05,3677  E3,1400                                  EBANK=   1400                                  #  PICK UP LOW ORDER REGISTER OF PAIR
000395: 05,3677           71401                           MASK     1401                                  #  OF ERASABLE REGISTERS.
000396: 05,3700           56001                           XCH      L
000397: 05,3701           50002                           INDEX    Q                                     #  PICK UP HIGH ORDER REGISTER OF PAIR
000398: 05,3702           71400                           MASK     1400                                  #  OF ERASABLE REGISTERS.
000399: 05,3703     0337                                  EBANK=   DNTMBUFF
000400: 05,3703           13633                           TCF      DNTMEXIT                              #  GO SEND THEM
000401:
000402: 05,3704           00006        SENDID             EXTEND                                         #  **ENTRANCE USED BY ERASABLE DUMP PROG.**
000403: 05,3705           22334                           QXCH     DNTMGOTO                              #  SET DNTMGOTO SO NEXT TIME PROG WILL GO
000404: 05,3706           35053                           CAF      ERASID                                #  TO LOCATION FOLLOWING :TC SENDID:
000405:
000406: 05,3707           54061                 +3        TS       ITEMP1                                #  ** ENTRANCE USED BY REGULAR DOWNLINK
000407:                                                                                                  #                              PROGRAM  **
000408: 05,3710           03534                           TC       WOZERO                                #  GO SET WORD ORDER CODE TO ZERO
000409: 05,3711           32000                           CAF      LOWIDCOD                              #  PLACE SPECIAL ID CODE INTO L
000410: 05,3712           56001                           XCH      L                                     #  AND ID BACK INTO A
000411: 05,3713           30061                           CA       ITEMP1
000412: 05,3714           13633                           TCF      DNTMEXIT                              #  SEND DOWNLIST ID CODE(S).
000413:
000414:

End of include-file DOWN-TELEMETRY_PROGRAM.agc.  Parent file is MAIN.agc


