
Source Code


000002:                                                                                                  ## Copyright:   Public domain.
000003:                                                                                                  ## Filename:    DOWNLINK_LISTS.agc
000004:                                                                                                  ## Purpose:     A section of Skylark revision 048.
000005:                                                                                                  ##              It is part of the source code for the Apollo Guidance Computer (AGC)
000006:                                                                                                  ##              for Skylab-2, Skylab-3, Skylab-4, and ASTP. No original listings of
000007:                                                                                                  ##              this software are available; instead, this file was created via
000008:                                                                                                  ##              disassembly of dumps of the core rope modules actually flown on
000009:                                                                                                  ##              Skylab-2. Access to these modules was provided by the New Mexico
000010:                                                                                                  ##              Museum of Space History.
000011:                                                                                                  ## Assembler:   yaYUL
000012:                                                                                                  ## Contact:     Ron Burkey <info@sandroid.org>.
000013:                                                                                                  ## Website:     www.ibiblio.org/apollo/index.html
000014:                                                                                                  ## Mod history: 2023-09-04 MAS  Created from Artemis 072.
000015:                                                                                                  ##              2024-03-04 MAS  Updated for Skylark 48.
000016:
000017: 05,2000                                           SETLOC   DOWNTELM
000018: 05,2000                                           BANK
000019:
000020: 05,2000     0337                                  EBANK=   DNTMBUFF
000021:
000022:                                                                                                  #  SPECIAL DOWNLINK OP CODES
000023:                                                                                                  #        OP CODE          ADDRESS(EXAMPLE)         SENDS..               BIT 15          BITS 14-12      BITS 11
000024:                                                                                                  #                                                                                                             -0
000025:                                                                                                  #        ------          ----------              ----------              ------          ----------      -------
000026:                                                                                                  #                                                                                                             --
000027:                                                                                                  #        1DNADR          TIME2                   (2 AGC WDS)             0               0               ECADR
000028:                                                                                                  #        2DNADR          TEPHEM                  (4 AGC WDS)             0               1               ECADR
000029:                                                                                                  #        3DNADR          VGBODY                  (6 AGC WDS)             0               2               ECADR
000030:                                                                                                  #        4DNADR          STATE                   (8 AGC WDS)             0               3               ECADR
000031:                                                                                                  #        5DNADR          UPBUFF                  (10 AGC WDS)            0               4               ECADR
000032:                                                                                                  #        6DNADR          DSPTAB                  (12 AGC WDS)            0               5               ECADR
000033:                                                                                                  #        DNCHAN          30                      CHANNELS                0               7               CHANNEL
000034:                                                                                                  #                                                                                                        ADDRESS
000035:                                                                                                  #        DNPTR           NEXTLIST                POINTS TO NEXT          0               6               ADRES
000036:                                                                                                  #                                                LIST.
000037:
000038:                                                                                                  #  DOWNLIST FORMAT DEFINITIONS AND RULES -
000039:                                                                                                  #  1. END OF A LIST = -XDNADR (X = 1 TO 6), -DNPTR, OR -DNCHAN.
000040:                                                                                                  #  2. SNAPSHOT SUBLIST = LIST WHICH STARTS WITH A -1DNADR.
000041:                                                                                                  #  3. SNAPSHOT SUBLIST CAN ONLY CONTAIN 1DNADRS.
000042:                                                                                                  #  4. TIME2 1DNADR MUST BE LOCATED IN THE CONTROL LIST OF A DOWNLIST.
000043:                                                                                                  #  5. ERASABLE DOWN TELEMETRY WORDS SHOULD BE GROUPED IN SEQUENTIAL
000044:                                                                                                  #     LOCATIONS AS MUCH AS POSSIBLE TO SAVE STORAGE USED BY DOWNLINK LISTS.
000045:                                                                                                  #  6. THE DOWNLINK LISTS (INCLUDING SUBLISTS) ARE ORGANIZED SUCH THAT THE ITEMS LISTED FIRST (IN FRONT OF FBANK) ARE
000046:                                                                                                  #     SENT FIRST. EXCEPTION--- SNAPSHOT SUBLISTS. IN THE SNAPSHOT SUBLISTS THE DATA REPRESENTED BY THE FIRST
000047:                                                                                                  #     11 1DNADRS IS PRESERVED (IN ORDER) IN DNTMBUFF AND SENT BY THE NEXT 11 DOWNRUPTS.  THE DATA REPRESENTED BY THE
000048:                                                                                                  #     LIST IS SENT IMMEDIATELY.
000049:
000050: 05,2000                                           COUNT*   $$/DLIST
000051: 05,2000                        ERASZERO           EQUALS   7
000052: 05,2000  0000007               SPARE              EQUALS   ERASZERO                              #  USE SPARE TO INDICATE AVAILABLE SPACE
000053: 05,2000           77340        LOWIDCOD           OCT      77340                                 #  LOW ID CODE
000054:
000055: 05,2001  05,2120               NOMDNLST           EQUALS   CMCSTADL                              #  FRESH START AND POST P27 DOWNLIST
000056: 05,2001  05,2222               UPDNLIST           EQUALS   CMENTRDL                              #  UPDATE PROGRAM (P27) DOWNLIST
000057:
000058:
000059:                                                                                                  #  CSM POWERED FLIGHT DOWNLIST
000060:
000061:                                                                                                  #  --------------------------CONTROL LIST----------------------------------
000062:
000063: 05,2001                        CMPOWEDL           EQUALS
000064: 05,2001           32044                           DNPTR    CMPOWE01                              #  COLLECT SNAPSHOT
000065: 05,2002           24337                           6DNADR   DNTMBUFF                              #  SEND SNAPSHOT
000066: 05,2003           32053                           DNPTR    CMPOWE02                              #  COLLECT SECOND SNAPSHOT
000067: 05,2004           14337                           4DNADR   DNTMBUFF                              #  SEND SNAPSHOT
000068: 05,2005           32060                           DNPTR    CMPOWE03                              #  COMMON DATA
000069: 05,2006           03412                           1DNADR   TIG                                   #  TIG,+1
000070: 05,2007           32116                           DNPTR    CMPOWE11                              #  COMMON DATA
000071: 05,2010           03427                           1DNADR   TGO                                   #  TGO,+1
000072: 05,2011           01076                           1DNADR   PIPTIME1                              #  PIPTIME1,+1
000073: 05,2012           11304                           3DNADR   DELV                                  #  DELV,+1,...+4,+5
000074: 05,2013           03010                           1DNADR   PACTOFF                               #  PACTOFF,YACTOFF
000075: 05,2014           03252                           1DNADR   PCMD                                  #  PCMD,YCMD
000076: 05,2015           32114                           DNPTR    CMPOWE10                              #  COLLECT SNAPSHOT
000077: 05,2016           00337                           1DNADR   DNTMBUFF                              #  SEND SNAPSHOT
000078: 05,2017           01333                           1DNADR   FIXTIME                               #  FIXTIME,+1
000079: 05,2020           03425                           1DNADR   DVTOTAL                               #  DVOTAL,+1
000080: 05,2021           25717                           6DNADR   REFSMMAT                              #  REFSMMAT,+1,...+10,+11
000081: 05,2022           32062                           DNPTR    CMPOWE04                              #  COMMON DATA
000082: 05,2023           00024                           1DNADR   TIME2                                 #  TIME2,TIME1
000083: 05,2024           32064                           DNPTR    CMPOWE05                              #  COLLECT SNAPSHOT
000084: 05,2025           24337                           6DNADR   DNTMBUFF                              #  SEND SNAPSHOT
000085: 05,2026           32053                           DNPTR    CMPOWE02                              #  COLLECT SNAPSHOT
000086: 05,2027           14337                           4DNADR   DNTMBUFF                              #  SEND SNAPSHOT
000087: 05,2030           32060                           DNPTR    CMPOWE03                              #  COMMON DATA
000088: 05,2031           32076                           DNPTR    CMPOWE08                              #  COMMON DATA
000089: 05,2032           03640                           1DNADR   ELEV                                  #  ELEV,+1
000090: 05,2033           03753                           1DNADR   SVEC       +2                         #  SVEC+2,+3
000091: 05,2034           01516                           1DNADR   TET                                   #  TET,+1
000092: 05,2035           00106                           1DNADR   STATE      +10D                       #  FALGWRDS 10 AND 11
000093: 05,2036           01014                           1DNADR   TEVENT                                #  TEVENT,+1
000094: 05,2037           03252                           1DNADR   PCMD                                  #  PCMD,YCMD
000095: 05,2040           01327                           1DNADR   OPTMODES                              #  OPTMODES,HOLDFLAG
000096: 05,2041           32102                           DNPTR    CMPOWE07                              #  COMMON DATA
000097: 05,2042           13771                           3DNADR   VGTIG                                 #  VGTIG,+1,...+4,+5
000098: 05,2043           64373                           -3DNADR  DELVSLV                               #  DELVSLV,+1...+4,+5
000099:
000100:                                                                                                  #  ---------------------------SUB LISTS------------------------------------
000101:
000102: 05,2044           76754        CMPOWE01           -1DNADR  RN         +2                         #  RN+2,+3                       SNAPSHOT DATA
000103: 05,2045           01025                           1DNADR   RN         +4                         #  RN+4,+5
000104: 05,2046           01027                           1DNADR   VN                                    #  VN,+1
000105: 05,2047           01031                           1DNADR   VN         +2                         #  VN+2,+3
000106: 05,2050           01033                           1DNADR   VN         +4                         #  VN+4,+5
000107: 05,2051           01035                           1DNADR   PIPTIME                               #  PIPTIME,+1
000108: 05,2052           76756                           -1DNADR  RN                                    #  RN,+1
000109:
000110: 05,2053           77743        CMPOWE02           -1DNADR  CDUZ                                  #  CDUZ,CDUT                     SNAPSHOT DATA
000111: 05,2054           03162                           1DNADR   ADOT                                  #  ADOT,+1/OGARATE,+1
000112: 05,2055           03164                           1DNADR   ADOT       +2                         #  ADOT+2,+3/OMEGAB+2,+3
000113: 05,2056           03166                           1DNADR   ADOT       +4                         #  ADOT+4,+5/OMEGAB+4,+5
000114: 05,2057           77745                           -1DNADR  CDUX                                  #  CDUX,CDUY
000115:
000116: 05,2060           07125        CMPOWE03           2DNADR   AK                                    #  AK,AK1,AK2,RCSFLAGS           COMMON DATA
000117: 05,2061           70554                           -2DNADR  THETADX                               #  THETADX,THETADY,THETADZ,GARBAGE
000118:
000119: 05,2062           20074        CMPOWE04           5DNADR   STATE                                 #  FLAGWRD0 THRU FLAGWRD9        COMMON DATA
000120: 05,2063           52561                           -6DNADR  DSPTAB                                #  DISPLAY TABLES
000121:
000122: 05,2064           76072        CMPOWE05           -1DNADR  R-OTHER    +2                         #  R-OTHER+2,+3                  SNAPSHOT DATA
000123: 05,2065           01707                           1DNADR   R-OTHER    +4                         #  R-OTHER+4,+5
000124: 05,2066           01711                           1DNADR   V-OTHER                               #  V-OTHER,+1
000125: 05,2067           01713                           1DNADR   V-OTHER    +2                         #  V-OTHER+2,+3
000126: 05,2070           01715                           1DNADR   V-OTHER    +4                         #  V-OTHER+4,+5
000127: 05,2071           01642                           1DNADR   T-OTHER                               #  T-OTHER,+1
000128: 05,2072           76074                           -1DNADR  R-OTHER                               #  R-OTHER,+1
000129:
000130: 05,2073           00770        CMPOWE06           1DNADR   OPTION1                               #  OPTION1,2                     COMMON DATA
000131: 05,2074           01516                           1DNADR   TET                                   #  TET,+1
000132: 05,2075           07223                           2DNADR   THETADX                               #  THETADX,THETADY,THETEDZ,GARBAGE
000133: 05,2076           01432        CMPOWE08           1DNADR   RSBBQ                                 #  RSBBQ,+1
000134: 05,2077           34076                           DNCHAN   76                                    #  CHANNELS 76(GARBAGE),77
000135: 05,2100           04373                           2DNADR   C31FLWRD                              #  C31FLWRD,FAILREG,+1,+2
000136: 05,2101           73741                           -2DNADR  CDUS                                  #  CDUS,PIPAX,PIPAY,PIPAZ
000137:
000138: 05,2102           03121        CMPOWE07           1DNADR   LEMMASS                               #  LEMMASS,CSMMASS               COMMON DATA
000139: 05,2103           03114                           1DNADR   DAPDATR1                              #  DAPDATR1,DAPDATR2
000140: 05,2104           07220                           2DNADR   ERRORX                                #  ERRORX,ERRORY,ERRORZ,GARBAGE
000141: 05,2105           13154                           3DNADR   WBODY                                 #  WBODY,...+5/OMEGAC,...+5
000142: 05,2106           05276                           2DNADR   REDOCTR                               #  REDOCTR,THETAD,+1,+2
000143: 05,2107           01323                           1DNADR   IMODES30                              #  IMODES30,IMODES33
000144: 05,2110           34011        CMPOWE09           DNCHAN   11                                    #  CHANNELS 11,12
000145: 05,2111           34013                           DNCHAN   13                                    #  CHANNELS 13,14
000146: 05,2112           34030                           DNCHAN   30                                    #  CHANNELS 30,31
000147: 05,2113           43745                           -DNCHAN  32                                    #  CHANNELS 32,33
000148:
000149: 05,2114           76662        CMPOWE10           -1DNADR  MARKTIME                              #  MARKTIME,+1                SNAPSHOT DATA
000150: 05,2115           74115                           -1DNADR  CSTEER                                #  CSTEER,RM
000151:
000152: 05,2116           03305        CMPOWE11           1DNADR   SLOPE                                 #  SLOPE,ADB                    COMMON DATA
000153: 05,2117           64707                           -3DNADR  DAPDATR3                              #  DAPDATR3,CH5FAIL,CH6FAIL,
000154:                                                                                                  #  DKRATE,DKDB,WHICHDAP
000155:
000156:                                                                                                  #  ------------------------------------------------------------------------
000157:                                                                                                  #  *** THE FOLLOWING IS A LIST OF LOCATIONS IN DOWNLINK LISTS
000158:                                                                                                  #  *** BUT NOT REFERENCED IN THE DIRECTORY BECAUSE THEY ARE NOT
000159:                                                                                                  #  *** THE FIRST LOCATION REFERENCED IN AN INSTRUCTION
000160:                                                                                                  #  *** THIS LIST SHOULD BE UPDATED WHEN ANY CHANGES ARE MADE TO LISTS.
000161:
000162:                                                                                                  #                        LOCATION                          LIST NAME
000163:
000164: 05,2120  E6,1411               DL101              =        YACTOFF                               #  CMPOWEDL
000165: 05,2120  E6,1653               DL102              =        YCMD
000166: 05,2120  0000025               DL103              =        TIME1
000167: 05,2120  E6,1653               DL104              =        YCMD
000168: 05,2120     1330               DL105              =        HOLDFLAG
000169: 05,2120  E7,1722               DL1055             =        VMAGI
000170: 05,2120  0000035               DL106              =        CDUT                                  #  CMPOWE02
000171: 05,2120  E6,1562               DL107              =        OGARATE
000172: 05,2120  E6,1562               DL108              =        OMEGAB
000173: 05,2120  0000033               DL109              =        CDUY
000174: 05,2120  E6,1526               DL110              =        AK1                                   #  CMPOWE03
000175: 05,2120  E6,1527               DL111              =        AK2
000176: 05,2120  E6,1530               DL112              =        RCSFLAGS
000177: 05,2120  E6,1624               DL113              =        THETADY
000178: 05,2120  E6,1625               DL114              =        THETADZ
000179: 05,2120     0771               DL115              =        OPTION2                               #  CMPOWE06
000180: 05,2120  E6,1624               DL116              =        THETADY
000181: 05,2120  E6,1625               DL117              =        THETADZ
000182: 05,2120     0374               DL118              =        FAILREG                               #  CMPOWE08
000183: 05,2120  0000037               DL119              =        PIPAX
000184: 05,2120  0000040               DL120              =        PIPAY
000185: 05,2120  0000041               DL121              =        PIPAZ
000186: 05,2120  E6,1522               DL122              =        CSMMASS                               #  CMPOWE07
000187: 05,2120  E6,1515               DL123              =        DAPDATR2
000188: 05,2120  E6,1621               DL124              =        ERRORY
000189: 05,2120  E6,1622               DL125              =        ERRORZ
000190: 05,2120  E6,1554               DL126              =        OMEGAC
000191: 05,2120     1277               DL127              =        THETAD
000192: 05,2120     1324               DL128              =        IMODES33
000193: 05,2120  E7,1663               DL129              =        RM                                    #  CMPOWE10
000194: 05,2120  E6,1706               DL130              =        ADB                                   #  CMPOWE11
000195: 05,2120  E6,1471               DL131              =        CH5FAIL
000196: 05,2120  E6,1472               DL132              =        CH6FAIL
000197: 05,2120  E6,1473               DL133              =        DKRATE
000198: 05,2120  E6,1474               DL134              =        DKDB
000199: 05,2120  E6,1475               DL135              =        WHICHDAP
000200:
000201:
000202:                                                                                                  #  CSM COAST AND ALIGNMENT DOWNLIST
000203:
000204:                                                                                                  #  ------------------------------CONTROL LIST------------------------------
000205:
000206: 05,2120                        CMCSTADL           EQUALS                                         #  SEND ID BY SPECIAL CODING
000207: 05,2120           32044                           DNPTR    CMCSTA01                              #  COLLECT SNAPSHOT
000208: 05,2121           24337                           6DNADR   DNTMBUFF                              #  SEND SNAPSHOT
000209: 05,2122           32053                           DNPTR    CMCSTA02                              #  COLLECT SECOND SNAPSHOT
000210: 05,2123           14337                           4DNADR   DNTMBUFF                              #  SEND SNAPSHOT
000211: 05,2124           32060                           DNPTR    CMCSTA03                              #  COMMON DATA
000212: 05,2125           03412                           1DNADR   TIG                                   #  TIG,+1
000213: 05,2126           00302                           1DNADR   BESTI                                 #  BESTI,BESTJ
000214: 05,2127           17654                           4DNADR   MARKDOWN                              #  MARKDOWN,+1...+5,+6,GARBAGE
000215: 05,2130           17460                           4DNADR   MARK2DWN                              #  MARK2DWN,+1...+5,+6
000216: 05,2131           06203                           2DNADR   HAPOX                                 #  HAPOX,+1,HPERX,+1
000217: 05,2132           03010                           1DNADR   PACTOFF                               #  PACTOFF, YACTOFF                 (30)
000218: 05,2133           13771                           3DNADR   VGTIG                                 #  VGTIG,...+5
000219: 05,2134           25717                           6DNADR   REFSMMAT                              #  REFSMMAT,+1,...+10,+11
000220: 05,2135           32062                           DNPTR    CMCSTA04                              #  COMMON DATA
000221: 05,2136           00024                           1DNADR   TIME2                                 #  TIME2,TIME1
000222: 05,2137           32064                           DNPTR    CMCSTA05                              #  COLLECT SNAPSHOT
000223: 05,2140           24337                           6DNADR   DNTMBUFF                              #  SEND SNAPSHOT
000224: 05,2141           32053                           DNPTR    CMCSTA02                              #  COLLECT SNAPSHOT
000225: 05,2142           14337                           4DNADR   DNTMBUFF                              #  SEND SNAPSHOT
000226: 05,2143           32073                           DNPTR    CMCSTA06                              #  COMMON DATA
000227: 05,2144           12757                           3DNADR   OGC                                   #  OGC,+1,IGC,+1,MGC,+1
000228: 05,2145           00106                           1DNADR   STATE      +10D                       #  FALGWRDS 10 AND 11
000229: 05,2146           01014                           1DNADR   TEVENT                                #  TEVENT,+1
000230: 05,2147           02633                           1DNADR   LAUNCHAZ                              #  LAUNCHAZ,+1
000231: 05,2150           01327                           1DNADR   OPTMODES                              #  OPTMODES,HOLDFLAG
000232: 05,2151           32102                           DNPTR    CMCSTA07                              #  COMMON DATA
000233: 05,2152           05700                           2DNADR   TEPHEM                                #  TEPHEM,+1,+2,GARBAGE
000234: 05,2153           45661                           -DNPTR   CMCSTA11                              #  COMMON DATA
000235:
000236:                                                                                                  #  --------------------------SUB LISTS-------------------------------------
000237:
000238: 05,2154  05,2044               CMCSTA01           EQUALS   CMPOWE01                              #  COMMON DOWNLIST DATA
000239:
000240: 05,2154  05,2053               CMCSTA02           EQUALS   CMPOWE02                              #  COMMON DOWNLIST DATA
000241:
000242: 05,2154  05,2060               CMCSTA03           EQUALS   CMPOWE03                              #  COMMON DOWNLIST DATA
000243:
000244: 05,2154  05,2062               CMCSTA04           EQUALS   CMPOWE04                              #  COMMON DOWNLIST DATA
000245:
000246: 05,2154  05,2064               CMCSTA05           EQUALS   CMPOWE05                              #  COMMON DOWNLIST DATA
000247:
000248: 05,2154  05,2073               CMCSTA06           EQUALS   CMPOWE06                              #  COMMON DOWNLIST DATA
000249:
000250: 05,2154  05,2102               CMCSTA07           EQUALS   CMPOWE07                              #  COMMON DOWNLIST DATA
000251:
000252: 05,2154  05,2116               CMCSTA11           EQUALS   CMPOWE11                              #  COMMON DOWNLIST DATA
000253:
000254:                                                                                                  #  ------------------------------------------------------------------------
000255:                                                                                                  #  *** UNREFERENCED LOCATIONS USED IN LIST 2
000256:                                                                                                  #  *** UPDATE THIS LIST WHEN ANY CHANGES ARE MADE TO DOWNLINK LISTS
000257:
000258:                                                                                                  #                        LOCATION                          LIST NAME
000259:
000260: 05,2154     0303               DL201              =        BESTJ                                 #  CSMSTADL
000261: 05,2154  E4,1605               DL202              =        HPERX
000262: 05,2154  E6,1411               DL203              =        YACTOFF
000263: 05,2154  0000025               DL204              =        TIME1
000264: 05,2154  E5,1761               DL205              =        IGC
000265: 05,2154  E5,1763               DL206              =        MGC
000266: 05,2154  E6,1706               DL207              =        ADB                                   #  CMCSTA11
000267: 05,2154  E6,1471               DL208              =        CH5FAIL
000268: 05,2154  E6,1472               DL209              =        CH6FAIL
000269: 05,2154  E6,1473               DL210              =        DKRATE
000270: 05,2154  E6,1474               DL211              =        DKDB
000271: 05,2154  E6,1475               DL212              =        WHICHDAP
000272:
000273:
000274:                                                                                                  #  CSM RENDEZVOUS AND PRETHRUST LIST
000275:
000276:                                                                                                  #  ----------------------------CONTROL LIST--------------------------------
000277:
000278: 05,2154                        CMRENDDL           EQUALS                                         #  SEND ID BY SPECIAL CODING
000279: 05,2154           32044                           DNPTR    CMREND01                              #  COLLECT SNAPSHOT
000280: 05,2155           24337                           6DNADR   DNTMBUFF                              #  SEND SNAPSHOT
000281: 05,2156           32053                           DNPTR    CMREND02                              #  COLLECT SECOND SNAPSHOT
000282: 05,2157           14337                           4DNADR   DNTMBUFF                              #  SEND SNAPSHOT
000283: 05,2160           32060                           DNPTR    CMREND03                              #  COMMON DATA
000284: 05,2161           03412                           1DNADR   TIG                                   #  TIG,+1
000285: 05,2162           32116                           DNPTR    CMREND11                              #  COMMON DATA
000286: 05,2163           32214                           DNPTR    CMREND08                              #  COLLECT SNAPSHOT
000287: 05,2164           20337                           5DNADR   DNTMBUFF                              #  SEND SNAPSHOT
000288: 05,2165           03642                           1DNADR   TTPI                                  #  TTPI,+1
000289: 05,2166           03753                           1DNADR   SVEC       +2                         #  SVEC+2,+3
000290: 05,2167           02630                           1DNADR   DELVTPF                               #  DELVTPF,+1
000291: 05,2170           06460                           2DNADR   TCDH                                  #  CDH AND CSI TIME                      (32-33)
000292: 05,2171           03633                           1DNADR   TPASS4                                #  TPASS4,+1
000293: 05,2172           13404                           3DNADR   DELVSLV                               #  DELVSLV,+1...+4,+5
000294: 05,2173           06201                           2DNADR   RANGE                                 #  RANGE,+1,RRATE,+1
000295: 05,2174           32062                           DNPTR    CMREND04                              #  COMMON DATA
000296: 05,2175           00024                           1DNADR   TIME2                                 #  TIME2,TIME1
000297: 05,2176           32064                           DNPTR    CMREND05                              #  COLLECT SNAPSHOT
000298: 05,2177           24337                           6DNADR   DNTMBUFF                              #  SEND SNAPSHOT
000299: 05,2200           32053                           DNPTR    CMREND02                              #  COLLECT SNAPSHOT
000300: 05,2201           14337                           4DNADR   DNTMBUFF                              #  SEND SNAPSHOT
000301: 05,2202           32073                           DNPTR    CMREND06                              #  COMMON DATA
000302: 05,2203           07765                           2DNADR   NC1TIG                                #  NC1TIG,+1,NC2TIG,+1
000303: 05,2204           03547                           1DNADR   DHDSP                                 #  DHDSP,+1
000304: 05,2205           13623                           3DNADR   DELVEET3                              #  DELVEET3,+1,...+4,+5
000305: 05,2206           01327                           1DNADR   OPTMODES                              #  OPTMODES,HOLDFLAG
000306: 05,2207           32102                           DNPTR    CMREND07                              #  COMMON DATA
000307: 05,2210           02205                           1DNADR   RTHETA                                #  RTHETA,+1
000308: 05,2211           07573                           2DNADR   DVDSP1                                #  DVDSP1,DVDSP2
000309: 05,2212           07717                           2DNADR   UTPIT                                 #  UTPIT,+1,UTYAW,+1
000310: 05,2213           77671                           -1DNADR  STATE      +10D                       #  FALGWRDS 10 AND 11
000311:
000312:                                                                                                  #  ----------------------------SUB LISTS-----------------------------------
000313:
000314: 05,2214  05,2044               CMREND01           EQUALS   CMPOWE01                              #  COMMON DOWNLIST DATA
000315:
000316: 05,2214  05,2053               CMREND02           EQUALS   CMPOWE02                              #  COMMON DOWNLIST DATA
000317:
000318: 05,2214  05,2060               CMREND03           EQUALS   CMPOWE03                              #  COMMON DOWNLIST DATA
000319:
000320: 05,2214  05,2062               CMREND04           EQUALS   CMPOWE04                              #  COMMON DOWNLIST DATA
000321: 05,2214  05,2064               CMREND05           EQUALS   CMPOWE05                              #  COMMON DOWNLIST DATA
000322:
000323: 05,2214  05,2073               CMREND06           EQUALS   CMPOWE06                              #  COMMON DOWNLIST DATA
000324:
000325: 05,2214  05,2102               CMREND07           EQUALS   CMPOWE07                              #  COMMON DOWNLIST DATA
000326:
000327: 05,2214           74123        CMREND08           -1DNADR  MARKDOWN                              #  MARKDOWN,+1                  SNAPSHOT DATA
000328: 05,2215           03656                           1DNADR   MARKDOWN   +2                         #  MARKDOWN+2,+3
000329: 05,2216           03660                           1DNADR   MARKDOWN   +4                         #  MARKDOWN+4,+5
000330: 05,2217           03662                           1DNADR   MARKDOWN   +6                         #  MARKDOWN+6,RM
000331: 05,2220           00764                           1DNADR   VHFCNT                                #  VHFCNT,TRKMKCNT
000332: 05,2221           76775                           -1DNADR  VHFTIME                               #  VHFTIME,+1
000333:
000334: 05,2222  05,2116               CMREND11           EQUALS   CMPOWE11                              #  COMMON DOWNLIST DATA
000335:
000336:                                                                                                  #  ------------------------------------------------------------------------
000337:                                                                                                  #  *** UNREFERENCED LOCATIONS USED IN LIST 3
000338:                                                                                                  #  *** UPDATE THIS LIST WHEN ANY CHANGES ARE MADE TO DOWNLINK LISTS
000339:
000340:                                                                                                  #                        LOCATION                          LIST NAME
000341:
000342: 05,2222  E7,1663               DL301              =        RM                                    #  CMRENDDL
000343: 05,2222     0765               DL3015             =        TRKMKCNT
000344: 05,2222  E5,1462               DL302              =        TCSI
000345: 05,2222  E4,1603               DL303              =        RRATE
000346: 05,2222  0000025               DL304              =        TIME1
000347: 05,2222  E7,1740               DL306              =        GAMMAEI
000348: 05,2222  E7,1767               DL307              =        NC2TIG
000349: 05,2222  E7,1575               DL308              =        DVDSP2
000350: 05,2222  E7,1721               DL309              =        UTYAW
000351: 05,2222     0765               DL310              =        TRKMKCNT                              #  CMREND08
000352: 05,2222  E6,1706               DL311              =        ADB                                   #  CMREND11
000353: 05,2222  E6,1471               DL312              =        CH5FAIL
000354: 05,2222  E6,1472               DL313              =        CH6FAIL
000355: 05,2222  E6,1473               DL314              =        DKRATE
000356: 05,2222  E6,1474               DL315              =        DKDB
000357: 05,2222  E6,1475               DL316              =        WHICHDAP
000358:
000359:
000360:                                                                                                  #  CSM ENTRY AND UPDATE DOWNLIST
000361:
000362:                                                                                                  #  ---------------------------CONTROL LIST---------------------------------
000363:
000364: 05,2222                        CMENTRDL           EQUALS                                         #  SEND ID BY SPECIAL CODING
000365: 05,2222           32044                           DNPTR    CMENTR01                              #  COLLECT SNAPSHOT
000366: 05,2223           24337                           6DNADR   DNTMBUFF                              #  SEND SNAPSHOT
000367: 05,2224           32053                           DNPTR    CMENTR02                              #  COLLECT SECOND SNAPSHOT
000368: 05,2225           14337                           4DNADR   DNTMBUFF                              #  SEND SNAPSHOT
000369: 05,2226           32060                           DNPTR    CMENTR03                              #  COMMON DATA
000370: 05,2227           07331                           2DNADR   CMDAPMOD                              #  CMDAPMOD,PREL,QREL,RREL
000371: 05,2230           03635                           1DNADR   L/D1                                  #  L/D1,+1
000372: 05,2231           24304                           6DNADR   UPBUFF                                #  UPBUFF,+1...+10,+11
000373: 05,2232           14320                           4DNADR   UPBUFF     +12D                       #  UPBUFF+12,13...+18,19D
000374: 05,2233           04300                           2DNADR   COMPNUMB                              #  COMPNUMB,UPOLDMOD,UPVERB,UPCOUNT
000375: 05,2234           03344                           1DNADR   PAXERR1                               #  PAXERR1,ROLLTM
000376: 05,2235           13675                           3DNADR   LATANG                                #  LATANG,+1,RDOT,+1,THETAH,+1
000377: 05,2236           07400                           2DNADR   LAT(SPL)                              #  LAT(SPL),+1,LNG(SPL),+1
000378: 05,2237           03316                           1DNADR   ALFA/180                              #  ALFA/180,BETA/180
000379: 05,2240           32062                           DNPTR    CMENTR04                              #  COMMON DATA
000380: 05,2241           00024                           1DNADR   TIME2                                 #  TIME2,TIME1
000381: 05,2242           32271                           DNPTR    CMENTR05                              #  COLLECT SNAPSHOT
000382: 05,2243           24337                           6DNADR   DNTMBUFF                              #  SEND SNAPSHOT
000383: 05,2244           32053                           DNPTR    CMENTR02                              #  COLLECT SNAPSHOT
000384: 05,2245           14337                           4DNADR   DNTMBUFF                              #  SEND SNAPSHOT
000385: 05,2246           00770                           1DNADR   OPTION1                               #  OPTION1,OPTION2
000386: 05,2247           01516                           1DNADR   TET                                   #  TET,+1
000387: 05,2250           13220                           3DNADR   ERRORX                                #  ERRORX/Y/Z,THETADX/Y/Z
000388: 05,2251           07331                           2DNADR   CMDAPMOD                              #  CMDAPMOD,PREL,QREL,RREL
000389: 05,2252           24304                           6DNADR   UPBUFF                                #  UPBUFF+0,+1...+10,+11D
000390: 05,2253           14320                           4DNADR   UPBUFF     +12D                       #  UPBUFF+12,+13...+18,+19D
000391: 05,2254           03121                           1DNADR   LEMMASS                               #  LEMMASS,CSMMASS
000392: 05,2255           03114                           1DNADR   DAPDATR1                              #  DAPDATR1,DAPDATR2
000393: 05,2256           03345                           1DNADR   ROLLTM                                #  ROLLTM,ROLLC
000394: 05,2257           01327                           1DNADR   OPTMODES                              #  OPTMODES,HOLDFLAG
000395: 05,2260           13154                           3DNADR   WBODY                                 #  WBODY,...+5/OMEGAC,...+5
000396: 05,2261           05276                           2DNADR   REDOCTR                               #  REDOCTR,THETAD+0,+1,+2
000397: 05,2262           01323                           1DNADR   IMODES30                              #  IMODES30,IMODES33
000398: 05,2263           32110                           DNPTR    CMENTR09                              #  COMMON DATA
000399: 05,2264           01432                           1DNADR   RSBBQ                                 #  RSBBQ,+1
000400: 05,2265           34076                           DNCHAN   76                                    #  CHANNELS 76(GARBAGE),77
000401: 05,2266           04373                           2DNADR   C31FLWRD                              #  C31FLWRD,FAILREG,+1,+2
000402: 05,2267           00106                           1DNADR   STATE      +10D                       #  FALGWRDS 10 AND 11
000403: 05,2270           74037                           -1DNADR  GAMMAEI                               #  GAMMAEI,+1
000404:
000405:                                                                                                  #  ----------------------------SUB LISTS-----------------------------------
000406:
000407: 05,2271  05,2044               CMENTR01           EQUALS   CMPOWE01                              #  COMMON DOWNLIST DATA
000408:
000409: 05,2271  05,2053               CMENTR02           EQUALS   CMPOWE02                              #  COMMON DOWNLIST DATA
000410:
000411: 05,2271  05,2060               CMENTR03           EQUALS   CMPOWE03                              #  COMMON DOWNLIST DATA
000412:
000413: 05,2271  05,2062               CMENTR04           EQUALS   CMPOWE04                              #  COMMON DOWNLIST DATA
000414:
000415: 05,2271           76473        CMENTR05           -1DNADR  DELV                                  #  DELV,+1                       SNAPSHOT DATA
000416: 05,2272           01306                           1DNADR   DELV       +2                         #  DELV+2,+3
000417: 05,2273           01310                           1DNADR   DELV       +4                         #  DELV+4,+5
000418: 05,2274           03726                           1DNADR   TTE                                   #  TTE,+1
000419: 05,2275           03724                           1DNADR   VIO                                   #  VIO,+1
000420: 05,2276           03736                           1DNADR   VPRED                                 #  VPRED,+1
000421: 05,2277           76701                           -1DNADR  PIPTIME1                              #  PIPTIME1,+1
000422:
000423: 05,2300  05,2102               CMENTR07           EQUALS   CMPOWE07                              #  COMMON DOWNLIST DATA
000424:
000425: 05,2300  05,2110               CMENTR09           EQUALS   CMPOWE09                              #  COMMON DOWNLIST DATA
000426:
000427:                                                                                                  #  ------------------------------------------------------------------------
000428:                                                                                                  #  *** UNREFERENCED LOCATIONS USED IN LIST 4
000429:                                                                                                  #  *** UPDATE THIS LIST WHEN ANY CHANGES ARE MADE TO DOWNLINK LISTS
000430:
000431:                                                                                                  #                        LOCATION                          LIST NAME
000432:
000433: 05,2300  E6,1732               DL401              =        PREL                                  #  CMENTRDL
000434: 05,2300  E6,1733               DL402              =        QREL
000435: 05,2300  E6,1734               DL403              =        RREL
000436: 05,2300     0301               DL404              =        UPOLDMOD
000437: 05,2300     0302               DL405              =        UPVERB
000438: 05,2300     0303               DL406              =        UPCOUNT
000439: 05,2300  E6,1745               DL407              =        ROLLTM
000440: 05,2300  E7,1677               DL408              =        RDOT
000441: 05,2300  E7,1701               DL409              =        THETAH
000442: 05,2300  E7,1402               DL410              =        LNG(SPL)
000443: 05,2300  E6,1717               DL411              =        BETA/180
000444: 05,2300  0000025               DL412              =        TIME1
000445: 05,2300     0771               DL413              =        OPTION2
000446: 05,2300  E6,1621               DL414              =        ERRORY
000447: 05,2300  E6,1622               DL415              =        ERRORZ
000448: 05,2300  E6,1623               DL416              =        THETADX
000449: 05,2300  E6,1624               DL417              =        THETADY
000450: 05,2300  E6,1625               DL418              =        THETADZ
000451: 05,2300  E6,1732               DL419              =        PREL
000452: 05,2300  E6,1733               DL420              =        QREL
000453: 05,2300  E6,1734               DL421              =        RREL
000454: 05,2300  E6,1522               DL422              =        CSMMASS
000455: 05,2300  E6,1515               DL423              =        DAPDATR2
000456: 05,2300  E6,1746               DL424              =        ROLLC
000457: 05,2300     1330               DL425              =        HOLDFLAG
000458: 05,2300     0374               DL426              =        FAILREG
000459:
000460:
000461:                                                                                                  #  ------------------------------------------------------------------------
000462:
000463: 05,2300           02120        DNTABLE            GENADR   CMCSTADL
000464: 05,2301           02222                           GENADR   CMENTRDL
000465: 05,2302           02154                           GENADR   CMRENDDL
000466: 05,2303           02001                           GENADR   CMPOWEDL
000467:
000468:                                                                                                  #  ------------------------------------------------------------------------

End of include-file DOWNLINK_LISTS.agc.  Parent file is MAIN.agc


