
Source Code


000002:                                                                                                  ## Copyright:   Public domain.
000003:                                                                                                  ## Filename:    ERASABLE_ASSIGNMENTS.agc
000004:                                                                                                  ## Purpose:     A section of Skylark revision 048.
000005:                                                                                                  ##              It is part of the source code for the Apollo Guidance Computer (AGC)
000006:                                                                                                  ##              for Skylab-2, Skylab-3, Skylab-4, and ASTP. No original listings of
000007:                                                                                                  ##              this software are available; instead, this file was created via
000008:                                                                                                  ##              disassembly of dumps of the core rope modules actually flown on
000009:                                                                                                  ##              Skylab-2. Access to these modules was provided by the New Mexico
000010:                                                                                                  ##              Museum of Space History.
000011:                                                                                                  ## Assembler:   yaYUL
000012:                                                                                                  ## Contact:     Ron Burkey <info@sandroid.org>.
000013:                                                                                                  ## Website:     www.ibiblio.org/apollo/index.html
000014:                                                                                                  ## Mod history: 2023-09-04 MAS  Created from Artemis 072.
000015:                                                                                                  ##              2024-03-05 MAS  Updated for Skylark 48.
000016:
000017:
000018:                                                                                                  ## Erasable definitions have been very heavily changed from Artemis 72.
000019:                                                                                                  ## Unfortunately, since erasables can appear in any order, and a variable
000020:                                                                                                  ## sharing with several others could be equated to any of them, it is
000021:                                                                                                  ## not possible to exactly match what would have been in the original
000022:                                                                                                  ## listing. The order presented here roughly matches that shown in
000023:                                                                                                  ## the Skylark 48 Erasable Memory Map in the MIT Museum's collection.
000024:                                                                                                  ## Flagword definitions have been copied from Skylab/ASTP data cards.
000025:
000026:                                                                                                  #  CONVENTIONS AND NOTATIONS UTILIZED FOR ERASABLE ASSIGNMENTS.
000027:
000028:                                                                                                  #        EQUALS  IS USED IN TWO WAYS.  IT IS OFTEN USED TO CHAIN A GROUP
000029:                                                                                                  #                OF ASSIGNMENTS SO THAT THE GROUP MAY BE MOVED WITH THE
000030:                                                                                                  #                CHANGING OF ONLY ONE CARD.  EXAMPLE.
000031:
000032:                                                                                                  #                                        X       EQUALS  START
000033:                                                                                                  #                                        Y       EQUALS  X       +SIZE.X
000034:                                                                                                  #                                        Z       EQUALS  Y       +SIZE.Y
000035:
000036:                                                                                                  #                (X, Y, AND Z ARE CONSECUTIVE AND BEGIN AT START.       )
000037:                                                                                                  #                (SIZE.X AND SIZE.Y ARE THE RESPECTIVE SIZES OF X AND Y,
000038:                                                                                                  #                 USUALLY NUMERIC,  IE. 1, 2, 6, 18D ETC.               )
000039:
000040:
000041:                                                                                                  #        EQUALS  OFTEN IMPLIES THE SHARING OF REGISTERS (DIFFERENT NAMES
000042:                                                                                                  #                AND DIFFERENT DATA).  EXAMPLE.
000043:
000044:                                                                                                  #                                        X       EQUALS  Y
000045:
000046:
000047:                                                                                                  #        = MEANS THAT MULTIPLE NAMES HAVE BEEN GIVEN TO THE SAME DATA.
000048:                                                                                                  #                (THIS IS LOGICAL EQUIVALENCE, NOT SHARING)  EXAMPLE.
000049:
000050:                                                                                                  #                                        X       =       Y
000051:
000052:
000053:                                                                                                  #        THE SIZE AND UTILIZATION OF AN ERASABLE ARE OFTEN INCLUDED IN
000054:                                                                                                  #        THE COMMENTS IN THE FOLLOWING FORM.  M(SIZE)N.
000055:
000056:                                                                                                  #                M REFERS TO THE MOBILITY OF THE ASSIGNMENT.
000057:                                                                                                  #                     B   MEANS THAT THE SYMBOL IS REFERENCED BY BASIC
000058:                                                                                                  #                         INSTRUCTIONS AND THUS IS E-BANK SENSITIVE.
000059:                                                                                                  #                     I   MEANS THAT THE SYMBOL IS REFERENCED ONLY BY
000060:                                                                                                  #                         INTERPRETIVE INSTRUCTIONS, AND IS THUS E-BANK
000061:                                                                                                  #                         INSENSITIVE AND MAY APPEAR IN ANY E-BANK.
000062:
000063:                                                                                                  #                SIZE IS THE NUMBER OF REGISTERS INCLUDED BY THE SYMBOL.
000064:
000065:                                                                                                  #                N INDICATES THE NATURE OR PERMANENCE OF THE CONTENTS.
000066:                                                                                                  #                     PL MEANS THAT THE CONTENTS ARE PAD LOADED.
000067:                                                                                                  #                     DSP MEANS THAT THE REGISTER IS USED FOR A DISPLAY.
000068:                                                                                                  #                     PRM MEANS THAT THE REGISTER IS PERMANENT, IE. IT
000069:                                                                                                  #                         IS USED DURING THE ENTIRE MISSION FOR ONE
000070:                                                                                                  #                         PURPOSE AND CANNOT BE SHARED.
000071:                                                                                                  #                     TMP MEANS THAT THE REGISTER IS USED TEMPORARILY OR
000072:                                                                                                  #                         IS A SCRATCH REGISTER FOR THE ROUTINE TO WHICH
000073:                                                                                                  #                         IT IS ASSIGNED.  THAT IS, IT NEED NOT BE SET
000074:                                                                                                  #                         PRIOR TO INVOCATION OF THE ROUTINE NOR DOES IT
000075:                                                                                                  #                         CONTAIN USEFUL OUTPUT TO ANOTHER ROUTINE.  THUS
000076:                                                                                                  #                         IT MAY BE SHARED WITH ANY OTHER ROUTINE WHICH
000077:                                                                                                  #                         IS NOT ACTIVE IN PARALLEL.
000078:                                                                                                  #                     IN  MEANS INPUT TO THE ROUTINE AND IT IS PROBABLY
000079:                                                                                                  #                         TEMPORARY FOR A HIGHER-LEVEL ROUTINE/PROGRAM.
000080:                                                                                                  #                     OUT MEANS OUTPUT FROM THE ROUTINE, PROBABLY
000081:                                                                                                  #                         TEMPORARY FOR A HIGHER-LEVEL ROUTINE/PROGRAM.
000082:
000083:
000084:                                                                                                  #        SPECIAL REGISTERS.
000085:
000086: ???????                        A                  EQUALS   0
000087: ???????                        L                  EQUALS   1                                     #  L AND Q ARE BOTH CHANNELS AND REGISTERS.
000088: ???????                        Q                  EQUALS   2
000089: ???????                        EBANK              EQUALS   3
000090: ???????                        FBANK              EQUALS   4
000091: ???????                        Z                  EQUALS   5                                     #  ADJACENT TO FBANK AND BBANK FOR DXCH Z
000092: ???????                        BBANK              EQUALS   6                                     #  (DTCB) AND DXCH FBANK (DTCF).
000093:                                                                                                  #  REGISTER 7 IS A ZERO-SOURCE, USED BY ZL.
000094:
000095: ???????                        ARUPT              EQUALS   10                                    #  INTERRUPT STORAGE.
000096: ???????                        LRUPT              EQUALS   11
000097: ???????                        QRUPT              EQUALS   12
000098: ???????                        SAMPTIME           EQUALS   13                                    #  SAMPLED TIME 1 & 2.
000099: ???????                        ZRUPT              EQUALS   15                                    #  (13 AND 14 ARE SPARES.)
000100: ???????                        BANKRUPT           EQUALS   16                                    #  USUALLY HOLDS FBANK OR BBANK.
000101: ???????                        BRUPT              EQUALS   17                                    #  RESUME ADDRESS AS WELL.
000102:
000103: ???????                        CYR                EQUALS   20
000104: ???????                        SR                 EQUALS   21
000105: ???????                        CYL                EQUALS   22
000106: ???????                        EDOP               EQUALS   23                                    #  EDITS INTERPRETIVE OPERATION CODE PAIRS.
000107:
000108:
000109: ???????                        TIME2              EQUALS   24
000110: ???????                        TIME1              EQUALS   25
000111: ???????                        TIME3              EQUALS   26
000112: ???????                        TIME4              EQUALS   27
000113: ???????                        TIME5              EQUALS   30
000114: ???????                        TIME6              EQUALS   31
000115: ???????                        CDUX               EQUALS   32
000116: ???????                        CDUY               EQUALS   33
000117: ???????                        CDUZ               EQUALS   34
000118: ???????                        CDUT               EQUALS   35                                    #  OPTICS TRUNNION CDU (WAS OPTY).
000119: ???????                        CDUS               EQUALS   36                                    #  OPTICS SHAFT CDU (WAS OPTX).
000120: ???????                        PIPAX              EQUALS   37
000121: ???????                        PIPAY              EQUALS   40
000122: ???????                        PIPAZ              EQUALS   41
000123: ???????                        BMAGX              EQUALS   42
000124: ???????                        BMAGY              EQUALS   43
000125: ???????                        BMAGZ              EQUALS   44
000126: ???????                        INLINK             EQUALS   45
000127: ???????                        RNRAD              EQUALS   46
000128: ???????                        GYROCMD            EQUALS   47
000129: ???????                        CDUXCMD            EQUALS   50
000130: ???????                        CDUYCMD            EQUALS   51
000131: ???????                        CDUZCMD            EQUALS   52
000132: ???????                        CDUTCMD            EQUALS   53                                    #  OPTICS TRUNNION COMMAND (WAS OPTYCMD).
000133: ???????  0000053               TVCYAW             EQUALS   CDUTCMD                               #  SPS YAW COMMAND IN TVC MODE.
000134:
000135: ???????                        CDUSCMD            EQUALS   54                                    #  OPTICS SHAFT COMMAND (WAS OPTXCMD).
000136: ???????  0000054               TVCPITCH           EQUALS   CDUSCMD                               #  SPS PITCH COMMAND IN TVC MODE.
000137:                                                                                                  #  REGISTERS 55-60 ARE COUNTERS WHICH ARE NOT PRESENTLY WIRED, AND SO MAY BE USED WITH CARE
000138:
000139:
000140:                                                                                                  #        INTERPRETIVE REGISTERS ADDRESSED RELATIVE TO VAC AREA.
000141:
000142: ???????                        LVSQUARE           EQUALS   34D                                   #  SQUARE OF VECTOR INPUT TO ABVAL AND UNIT
000143: ???????                        LV                 EQUALS   36D                                   #  LENGTH OF VECTOR INPUT TO UNIT.
000144: ???????                        X1                 EQUALS   38D                                   #  INTERPRETIVE SPECIAL REGISTERS RELATIVE
000145: ???????                        X2                 EQUALS   39D                                   #  TO THE WORK AREA.
000146: ???????                        S1                 EQUALS   40D
000147: ???????                        S2                 EQUALS   41D
000148: ???????                        QPRET              EQUALS   42D
000149:
000150:
000151:                                                                                                  #  INPUT/OUTPUT CHANNELS
000152:
000153:                                                                                                  #   *** CHANNEL ZERO IS TO BE USED IN AN INDEXED OPERATION ONLY. ***
000154: ???????  0000001               LCHAN              EQUALS   L
000155: ???????  0000002               QCHAN              EQUALS   Q
000156: ???????                        HISCALAR           EQUALS   3
000157: ???????                        LOSCALAR           EQUALS   4
000158: ???????                        PYJETS             EQUALS   5
000159: ???????  0000005               CHAN5              =        PYJETS
000160: ???????                        ROLLJETS           EQUALS   6
000161: ???????  0000006               CHAN6              =        ROLLJETS
000162: ???????                        SUPERBNK           EQUALS   7
000163: ???????                        OUT0               EQUALS   10
000164: ???????                        DSALMOUT           EQUALS   11
000165: ???????                        CHAN12             EQUALS   12
000166: ???????                        CHAN13             EQUALS   13
000167: ???????                        CHAN14             EQUALS   14
000168: ???????                        MNKEYIN            EQUALS   15
000169: ???????                        NAVKEYIN           EQUALS   16
000170: ???????                        CHAN30             EQUALS   30
000171: ???????                        CHAN31             EQUALS   31
000172: ???????                        CHAN32             EQUALS   32
000173: ???????                        CHAN33             EQUALS   33
000174: ???????                        DNTM1              EQUALS   34
000175: ???????                        DNTM2              EQUALS   35
000176: ???????                        CHAN76             EQUALS   76
000177: ???????                        CHAN77             EQUALS   77
000178:                                                                                                  #  END OF CHANNEL ASSIGNMENTS
000179:
000180:
000181:                                                                                                  #        FLAGWORDS
000182:
000183:
000184:                                                                                                  #  FLAGWRD0      STATE +0        (000-014)
000185:                                                                                                  #  FLAGWRD1      STATE +1        (015-029)
000186:                                                                                                  #  FLAGWRD2      STATE +2        (030-044)
000187:                                                                                                  #  FLAGWRD3      STATE +3        (045-059)
000188:                                                                                                  #  FLAGWRD4      STATE +4        (060-074)
000189:                                                                                                  #  FLAGWRD5      STATE +5        (075-089)
000190:                                                                                                  #  FLAGWRD6      STATE +6        (090-104)
000191:                                                                                                  #  FLAGWRD7      STATE +7        (105-119)
000192:                                                                                                  #  FLAGWRD8      STATE +8D       (120-134)
000193:                                                                                                  #  FLAGWRD9      STATE +9D       (135-149)
000194:
000195:
000196:
000197:                                                                                                  #        SORTED LIST OF
000198:
000199:                                                                                                  #        INTERPITIVE SWITCH BIT ASSIGNMENTS
000200:
000201:                                                                                                  #  INTERPRETIVE SWITCH BIT ASSIGNMENTS
000202:                                                                                                  #  FLAGWORD      DEC NUM         BIT + FLAG      EQUIVALENT FLAGWORDS
000203:
000204:                                                                                                  #  .05GSW        102D            BIT 3 FLAG 6
000205:                                                                                                  #  360SW         134D            BIT 1 FLAG 8
000206:                                                                                                  #  3AXISFLG      084D            BIT 6 FLAG 5
000207:                                                                                                  #  45/46FLG      054D            BIT 6 FLAG 3
000208:                                                                                                  #  500**FLG      048D            BIT 12 FLAG 3
000209:                                                                                                  #  501**FLG      049D            BIT 11 FLAG 3
000210:                                                                                                  #  APSESW        130D            BIT 5 FLAG 8
000211:                                                                                                  #  ASTNFLAG      108D            BIT 12 FLAG 7
000212:                                                                                                  #  ATMFLAG       004D            BIT 11 FLAG 0
000213:                                                                                                  #  ATTCHFLG      118D            BIT 2 FLAG 7
000214:                                                                                                  #  AUTOSEQ       158D            BIT 7  FLAG 10
000215:                                                                                                  #  AVEGFLAG      029D            BIT 1 FLAG 1
000216:                                                                                                  #  AVEMIDSW      149D            BIT 1 FLAG 9
000217:                                                                                                  #  AZIMFLAG      172D            BIT 8 FLAG 11
000218:                                                                                                  #  CALCMAN2      043D            BIT 2 FLAG 2
000219:                                                                                                  #  CMDAPARM      093D            BIT 12 FLAG 6
000220:                                                                                                  #  CM/DSTBY      103D            BIT 2 FLAG 6
000221:                                                                                                  #  COGAFLAG      131D            BIT 4 FLAG 8
000222:                                                                                                  #  CULTFLAG      053D            BIT 7 FLAG 3
000223:                                                                                                  #  CYC61FLG      11D             BIT 4  FLAG 0
000224:                                                                                                  #  CYCLFLAG      169D            BIT 11  FLAG 11
000225:                                                                                                  #  DAPBIT1       090D            BIT 15 FLAG 6
000226:                                                                                                  #  DAPBIT2       091D            BIT 14 FLAG 6
000227:                                                                                                  #  DIM0FLAG      059D            BIT 1 FLAG 3
000228:                                                                                                  #  DRIFTFLG      030D            BIT 15 FLAG 2
000229:                                                                                                  #  DSKYFLAG      075D            BIT 15 FLAG 5
000230:                                                                                                  #  EGSW          97D             BIT 8 FLAG 6
000231:                                                                                                  #  ENG2FLAG      019D            BIT 11 FLAG 1
000232:                                                                                                  #  ENGONFLG      083D            BIT 7 FLAG 5
000233:                                                                                                  #  ENTRYDSP      047D            BIT 13 FLAG 6
000234:                                                                                                  #  ERADFLAG      017D            BIT 13 FLAG 1
000235:                                                                                                  #  ETPIFLAG      038D            BIT 7 FLAG 2    FIRSTFLG   OPTNSW
000236:                                                                                                  #  EXTRANGE      156D            BIT 9 FLAG 10
000237:                                                                                                  #  FINALFLG      039D            BIT 6 FLAG 2
000238:                                                                                                  #  FIRSTFLG      38D             BIT 7  FLAG 2   ETPIFLAG   OPTNSW
000239:                                                                                                  #  FIXFLAG       173D            BIT 7 FLAG 11
000240:                                                                                                  #  FREEFLAG      012D            BIT 3 FLAG 0
000241:                                                                                                  #  FULTKFLG      163D            BIT 2 FLAG 10
000242:                                                                                                  #  GAMDIFSW      094D            BIT 11 FLAG 6
000243:                                                                                                  #  GLOKFAIL      046D            BIT 14 FLAG 3
000244:                                                                                                  #  GONEBY        112D            BIT 8 FLAG 7
000245:                                                                                                  #  GONEPAST      095D            BIT 10 FLAG 6
000246:                                                                                                  #  GRRBKFLG      085D            BIT 5 FLAG 5
000247:                                                                                                  #  GUESSW        028D            BIT 2 FLAG 1
000248:                                                                                                  #  GYMDIFSW      104D            BIT 1 FLAG 6
000249:                                                                                                  #  HDSUPFLG      154D            BIT 11 FLAG 10
000250:                                                                                                  #  HIND          099D            BIT 6 FLAG 6
000251:                                                                                                  #  IDLEFAIL      024D            BIT 6 FLAG 1
000252:                                                                                                  #  IGNFLAG       107D            BIT 13 FLAG 7
000253:                                                                                                  #  IMPULSW       036D            BIT 9 FLAG 2
000254:                                                                                                  #  IMUSE         007D            BIT 8 FLAG 0
000255:                                                                                                  #  INCORFLG      079D            BIT 11 FLAG 5
000256:                                                                                                  #  INFINFLG      128D            BIT 7 FLAG 8
000257:                                                                                                  #  INRLSW        100D            BIT 5 FLAG 6
000258:                                                                                                  #  INTFLAG       151D            BIT 14 FLAG 10
000259:                                                                                                  #  INTYPFLG      056D            BIT 4 FLAG 3
000260:                                                                                                  #  ITERFLG       032D            BIT 13 FLAG 2
000261:                                                                                                  #  ITSWICH       106D            BIT 14 FLAG 7
000262:                                                                                                  #  JSWITCH       001D            BIT 14 FLAG 0
000263:                                                                                                  #  LATSW         101D            BIT 4  FLAG 6
000264:                                                                                                  #  MANEUFLG      160D            BIT 5 FLAG 10
000265:                                                                                                  #  MARKFLG       026D            BIT 4 FLAG 1
000266:                                                                                                  #  MAXDBFLG      138D            BIT 12 FLAG 9
000267:                                                                                                  #  MID1FLAG      147D            BIT 3 FLAG 9
000268:                                                                                                  #  MIDAVFLG      148D            BIT 2 FLAG 9
000269:                                                                                                  #  MKOVFLAG      072D            BIT 3 FLAG 4
000270:                                                                                                  #  MRKIDFLG      060D            BIT 15 FLAG 4
000271:                                                                                                  #  MRKNVFLG      066D            BIT 9 FLAG 4
000272:                                                                                                  #  MRUPTFLG      070D            BIT 5 FLAG 4
000273:                                                                                                  #  MWAITFLG      064D            BIT 11 FLAG 4
000274:                                                                                                  #  N22ORN17      144D            BIT 6 FLAG 9
000275:                                                                                                  #  N77FLAG       171D            BIT 9 FLAG 11
000276:                                                                                                  #  NC12FLG       010D            BIT 5 FLAG 0
000277:                                                                                                  #  NCINTFLG      013D            BIT 2 FLAG 0
000278:                                                                                                  #  NCLPFLG       021D            BIT 9 FLAG 1
000279:                                                                                                  #  NEEDLFLG      006D            BIT 9 FLAG 0
000280:                                                                                                  #  NEWIFLG       122D            BIT 13 FLAG 8
000281:                                                                                                  #  NEWTFLAG      80D             BIT 10 FLAG 5
000282:                                                                                                  #  NJETSFLG      015D            BIT 15 FLAG 1
000283:                                                                                                  #  NODOFLAG      044D            BIT 1 FLAG 2
000284:                                                                                                  #  NODOP01       018D            BIT 12 FLAG 1
000285:                                                                                                  #  NORMSW        110D            BIT 10 FLAG 7
000286:                                                                                                  #  NOSWITCH      098D            BIT 7 FLAG 6
000287:                                                                                                  #  NOUNFLG       170D            BIT 10 FLAG 11
000288:                                                                                                  #  NRMIDFLG      062D            BIT 13 FLAG 4
000289:                                                                                                  #  NRMNVFLG      067D            BIT 8 FLAG 4
000290:                                                                                                  #  NRUPTFLG      071D            BIT 4 FLAG 4
000291:                                                                                                  #  NWAITFLG      065D            BIT 10 FLAG 4
000292:                                                                                                  #  ORDERSW       129D            BIT 6 FLAG 8
000293:                                                                                                  #  P21FLAG       033D            BIT 12 FLAG 2
000294:                                                                                                  #  P25FLAG       176D            BIT 4 FLAG 11
000295:                                                                                                  #  P29FLAG       14D             BIT 1 FLAG 0
000296:                                                                                                  #  P35FLAG       157D            BIT 8 FLAG 10
000297:                                                                                                  #  P48FLAG       175D            BIT 5 FLAG 11
000298:                                                                                                  #  P50FLAG       005D            BIT 10 FLAG 0
000299:                                                                                                  #  P50.1FLG      003D            BIT 12 FLAG 0
000300:                                                                                                  #  P55.1FLG      002D            BIT 13 FLAG 0
000301:                                                                                                  #  PCFLAG        164D            BIT 1 FLAG 10
000302:                                                                                                  #  PCMANFLG      150D            BIT 15 FLAG 10
000303:                                                                                                  #  PDSPFLAG      063D            BIT 12 FLAG 4
000304:                                                                                                  #  PFRATFLG      041D            BIT 4 FLAG 2
000305:                                                                                                  #  PINBRFLG      069D            BIT 6 FLAG 4
000306:                                                                                                  #  POOFLAG       051D            BIT 9  FLAG 3
000307:                                                                                                  #  PRECIFLG      052D            BIT 8 FLAG 3
000308:                                                                                                  #  PRIODFLG      061D            BIT 14 FLAG 4
000309:                                                                                                  #  PRONVFLG      068D            BIT 7 FLAG 4
000310:                                                                                                  #  PTV93FLG      161D            BIT 4 FLAG 10
000311:                                                                                                  #  QUITFLAG      145D            BIT 5 FLAG 9
000312:                                                                                                  #  R21MARK       031D            BIT 14 FLAG 2
000313:                                                                                                  #  R22CAFLG      143D            BIT 7 FLAG 9
000314:                                                                                                  #  R27FLAG       168D            BIT 12 FLAG 11
000315:                                                                                                  #  R27UP1        179D            BIT 1 FLAG 11
000316:                                                                                                  #  R27UP2        178D            BIT 2 FLAG 11
000317:                                                                                                  #  R31FLAG       146D            BIT 4 FLAG 9
000318:                                                                                                  #  R53FLAG       009D            BIT 6 FLAG 0
000319:                                                                                                  #  R67FLAG       133D            BIT 2  FLAG 8
000320:                                                                                                  #  REFSMFLG      047D            BIT 13 FLAG 3
000321:                                                                                                  #  REINTFLG      152D            BIT 13 FLAG 10
000322:                                                                                                  #  REJCTFLG      153D            BIT 12 FLAG 10
000323:                                                                                                  #  RELVELSW      096D            BIT 9 FLAG 6
000324:                                                                                                  #  RENDWFLG      089D            BIT 1 FLAG 5
000325:                                                                                                  #  REVFLAG       040D            BIT 5 FLAG 2
000326:                                                                                                  #  RNDVZFLG      008D            BIT 7 FLAG 0
000327:                                                                                                  #  RVSW          111D            BIT 9 FLAG 7
000328:                                                                                                  #  SBFLAG        042D            BIT 3 FLAG 2
000329:                                                                                                  #  SKIPVHF       035D            BIT 10 FLAG 2
000330:                                                                                                  #  SLOPESW       027D            BIT 3 FLAG 1
000331:                                                                                                  #  SNAPFLAG      174D            BIT 6 FLAG 11
000332:                                                                                                  #  SOLNSW        087D            BIT 3 FLAG 5
000333:                                                                                                  #  SOURCFLG      142D            BIT 8 FLAG 9
000334:                                                                                                  #  STATEFLG      055D            BIT 5 FLAG 3
000335:                                                                                                  #  STEERSW       034D            BIT 11 FLAG 2
000336:                                                                                                  #  STIKFLAG      016D            BIT 14 FLAG 1
000337:                                                                                                  #  STRULLSW      92D             BIT 13 FLAG 6
000338:                                                                                                  #  SWTOVER       135D            BIT 15 FLAG 9
000339:                                                                                                  #  TARG1FLG      020D            BIT 10 FLAG 1
000340:                                                                                                  #  TCOMPFLG      159D            BIT 6 FLAG 10
000341:                                                                                                  #  TDFLAG        177D            BIT 3 FLAG 11
000342:                                                                                                  #  TERMIFLG      105D            BIT 15 FLAG 7
000343:                                                                                                  #  TFFSW         119D            BIT 1 FLAG 7
000344:                                                                                                  #  TIMRFLAG      109D            BIT 11 FLAG 7
000345:                                                                                                  #  TPIMNFLG      162D            BIT 3 FLAG 10
000346:                                                                                                  #  TRACKFLG      025D            BIT 5 FLAG 1
000347:                                                                                                  #  UPDATFLG      023D            BIT 7 FLAG 1
000348:                                                                                                  #  UPLOCKFL      116D            BIT 4 FLAG 7
000349:                                                                                                  #  UTFLAG        126D            BIT 9 FLAG 8
000350:                                                                                                  #  V37FLAG       114D            BIT 6 FLAG 7
000351:                                                                                                  #  V50N18FL      045D            BIT 15 FLAG 3
000352:                                                                                                  #  V96ONFLG      132D            BIT 3 FLAG 8
000353:                                                                                                  #  VEHUPFLG      022D            BIT 8 FLAG 1
000354:                                                                                                  #  VERIFLAG      117D            BIT 3 FLAG 7
000355:                                                                                                  #  VFLAG         050D            BIT 10 FLAG 3
000356:                                                                                                  #  VHFRFLAG      141D            BIT 9 FLAG 9
000357:                                                                                                  #  VINTFLAG      057D            BIT 3 FLAG 3
000358:                                                                                                  #  VNFLAG        073D            BIT 2 FLAG 4
000359:                                                                                                  #  XDELVFLG      037D            BIT 8 FLAG 2
000360:                                                                                                  #  XDSPFLAG      074D            BIT 1 FLAG 4
000361:
000362:
000363:                                                                                                  #  INTERPRETIVE SWITCH BIT ASSIGNMENTS
000364: ???????     0074               FLAGWRD0           =        STATE      +0                         #  (000-014)
000365:                                                                                                  #  (SET)                 (RESET)
000366:                                                                                                  #                        BIT 15 FLAG 0
000367:                                                                                                  #                =       000D
000368:                                                                                                  #                        BIT 14 FLAG 0
000369: ???????                        JSWITCH            =        001D                                  #  INTEGRATION OF W      INTEGRATION OF STATE
000370:                                                                                                  #  MATRIX                VECTOR
000371: ???????     4764               JSWCHBIT           =        BIT14
000372:
000373:                                                                                                  #                        BIT 13 FLAG 0
000374: ???????                        P55.1FLG           =        002D                                  #  OPTION = 1 IN P55     OPTION NOT = 1
000375:                                                                                                  #                        IN P55
000376: ???????     4765               P55.1BIT           =        BIT13
000377:
000378:                                                                                                  #                        BIT 12 FLAG 0
000379: ???????                        P50.1FLG           =        003D                                  #  OPTION = 1 IN P50     OPTION NOT = 1
000380:                                                                                                  #                        IN P50
000381: ???????     4766               P50.1BIT           =        BIT12
000382:
000383:                                                                                                  #                        BIT 11 FLAG 0
000384: ???????                        ATMFLAG            =        004D                                  #  ATMSM ENABLED         ATMSM DISABLED
000385:
000386: ???????     4767               ATMFBIT            =        BIT11
000387:
000388:                                                                                                  #                        BIT 10 FLAG 0
000389: ???????                        P50FLAG            =        005D                                  #  MODE = 50             MODE NOT 50
000390:
000391: ???????     4770               P50BIT             =        BIT10
000392:
000393:                                                                                                  #                        BIT 9 FLAG 0
000394: ???????                        NEEDLFLG           =        006D                                  #  TOTAL ATTIDUDE        A/P FOLLOWING ERROR
000395:                                                                                                  #  ERROR DISPLAYED       DISPLAYED
000396:
000397: ???????     4771               NEEDLBIT           =        BIT9
000398:
000399:                                                                                                  #                        BIT 8 FLAG 0
000400: ???????                        IMUSE              =        007D                                  #  IMU IN USE            IMU NOT IN USE
000401:
000402: ???????     4772               IMUSEBIT           =        BIT8
000403:
000404:                                                                                                  #                        BIT 7 FLAG 0
000405: ???????                        RNDVZFLG           =        008D                                  #  P20 RUNNING           P20 NOT RUNNING
000406: ???????     4773               RNDVZBIT           =        BIT7
000407:
000408:                                                                                                  #                        BIT 6 FLAG 0
000409: ???????                        R53FLAG            =        009D                                  #  V51 INITIATED         V51 NOT INITIATED
000410:
000411:
000412: ???????     4774               R53FLBIT           =        BIT6
000413:
000414:                                                                                                  #                        BIT 5 FLAG 0
000415: ???????                        NC12FLG            =        010D                                  #  P32 (NC 2)            P31 (NC 1)
000416:
000417: ???????     4775               NC12BIT            =        BIT5
000418:
000419:                                                                                                  #                        BIT 4 FLAG 0
000420: ???????                        CYC61FLG           =        11D                                   #  KALCMAN3 TO RETURN    KALCMAN3 TO DO
000421:                                                                                                  #  TO R61 AFTER          MANEUVER
000422:
000423: ???????     4776               CYC61BIT           =        BIT4                                  #  COMPUTING TM
000424:
000425:                                                                                                  #                        BIT 3 FLAG 0
000426: ???????                        FREEFLAG           =        012D                                  #  (TEMPORARY FLAG USED IN MANY ROUTINES)
000427:
000428: ???????     4777               FREEFBIT           =        BIT3
000429:
000430:                                                                                                  #                        BIT 2 FLAG 0
000431: ???????                        NCINTFLG           =        013D                                  #  CONIC INTEGRATION     PRECISION
000432:                                                                                                  #                        INTEGRATION
000433: ???????     5000               NCINTBIT           =        BIT2
000434:
000435:
000436:                                                                                                  #                        BIT 1 FLAG 0
000437: ???????                        P29FLAG            =        14D                                   #  P29 RUNNING. 1ST      P29 FINISHED WITH
000438: ???????     5001               P29BIT             =        BIT1                                  #  PASS IN PROGRESS.     1ST PASS.
000439:
000440:
000441: ???????     0075               FLAGWRD1           =        STATE      +1                         #  (015-029)
000442:
000443:                                                                                                  #  (SET)                 (RESET)
000444:
000445:                                                                                                  #                        BIT 15 FLAG 1
000446: ???????                        NJETSFLG           =        015D                                  #  TWO JET RCS BURN      FOUR JET RCS BURN
000447:
000448: ???????     4763               NJETSBIT           =        BIT15
000449:
000450:                                                                                                  #                        BIT 14 FLAG 1
000451: ???????                        STIKFLAG           =        016D                                  #  RHC CONTROL           CMC CONTROL
000452: ???????     4764               STIKBIT            =        BIT14
000453:
000454:                                                                                                  #                        BIT 13 FLAG 1
000455: ???????                        ERADFLAG           =        017D                                  #  EARTH, COMPUTE        EARTH, USE FIXED
000456:                                                                                                  #   FISCHER ELLIPSOID     RADIUS
000457:                                                                                                  #   RADIUS
000458:                                                                                                  #  MOON, USE FIXED       MOON, USE RLS FOR
000459:                                                                                                  #        RADIUS                LUNAR RADIUS
000460:
000461: ???????     4765               ERADFBIT           =        BIT13
000462:
000463:                                                                                                  #                        BIT 12 FLAG 1
000464: ???????                        NODOP01            =        018D                                  #  P01 NOT ALLOWED       P01 ALLOWED
000465:
000466: ???????     4766               NOP01BIT           =        BIT12
000467:
000468:
000469:                                                                                                  #                        BIT 11 FLAG 1
000470: ???????                        ENG2FLAG           =        019D                                  #  RCS BURN              SPS BURN
000471:
000472: ???????     4767               ENG2BIT            =        BIT11
000473:
000474:                                                                                                  #                        BIT 10 FLAG 1
000475: ???????                        TARG1FLG           =        020D                                  #  SIGHTING OWS          NOT SIGHTING OWS
000476:
000477: ???????     4770               TARG1BIT           =        BIT10
000478:
000479:                                                                                                  #                        BIT 9 FLAG 1
000480: ???????                        NCLPFLG            =        021D                                  #  COMPUTING EH2         COMPUTING EH1
000481:                                                                                                  #  IN P31/P32            IN P31/P32
000482: ???????     4771               NCPLBIT            =        BIT9
000483:
000484:                                                                                                  #                        BIT 8 FLAG 1
000485: ???????                        VEHUPFLG           =        022D                                  #  CSM STATE VECTOR      OWS STATE VECTOR
000486:                                                                                                  #  BEING UPDATED         BEING UPDATED
000487:
000488: ???????     4772               VEHUPBIT           =        BIT8
000489:
000490:                                                                                                  #                        BIT 7 FLAG 1
000491: ???????                        UPDATFLG           =        023D                                  #  UPDATING BY MARKS     UPDATING BY MARKS
000492:                                                                                                  #  ALLOWED               NOT ALLOWED
000493:
000494: ???????     4773               UPDATBIT           =        BIT7
000495:
000496:                                                                                                  #                        BIT 6 FLAG 1
000497: ???????                        IDLEFAIL           =        024D                                  #  INHIBIT R41           ENABLE R41 (ENGFAIL)
000498:
000499: ???????     4774               IDLEBIT            =        BIT6
000500:
000501:
000502:                                                                                                  #                        BIT 5 FLAG 1
000503: ???????                        TRACKFLG           =        025D                                  #  TRACKING ALLOWED      TRACKING NOT ALLOWED
000504:
000505: ???????     4775               TRACKBIT           =        BIT5
000506:
000507:                                                                                                  #                        BIT 4 FLAG 1
000508: ???????                        MARKFLG            =        026D                                  #  A MARK HAS BEEN       NO MARK HAS BEEN
000509: ???????     4776               MARKBIT            =        BIT4                                  #  ACCEPTED. ALLOW       ACCEPTED. DO NOT
000510:                                                                                                  #  MARK REJECT.          MARK REJECT.
000511:
000512:
000513:                                                                                                  #                        BIT 3 FLAG 1
000514: ???????                        SLOPESW            =        27D                                   #  ITERATE WITH BIAS     ITERATE WITH REGULA
000515:                                                                                                  #  METHOD IN ITERATOR    FALSI METHOD IN
000516:                                                                                                  #                        ITERATOR
000517:
000518:
000519: ???????     4777               SLOPEBIT           =        BIT3
000520:
000521:                                                                                                  #                        BIT 2 FLAG 1
000522: ???????                        GUESSW             =        028D                                  #  NO STARTING VALUE     STARTING VALUE FOR
000523:                                                                                                  #  FOR ITERATION         ITERATION EXISTS
000524:
000525: ???????     5000               GUESSBIT           =        BIT2
000526:
000527:                                                                                                  #                        BIT 1 FLAG 1
000528: ???????                        AVEGFLAG           =        029D                                  #  AVERAGEG (SERVICER)   AVERAGEG (SERVICER)
000529:                                                                                                  #  TO CONTINUE           TO CEASE
000530:
000531: ???????     5001               AVEGBIT            =        BIT1
000532:
000533: ???????     0076               FLAGWRD2           =        STATE      +2                         #  (030-044)
000534:
000535:                                                                                                  #  (SET)                 (RESET)
000536:
000537:                                                                                                  #                        BIT 15 FLAG 2
000538: ???????                        DRIFTFLG           =        030D                                  #  T3RUPT CALLS GYRO     T3RUPT DOES NO GYRO
000539:                                                                                                  #  COMPENSATION          COMPENSATION
000540:
000541: ???????     4763               DRFTBIT            =        BIT15
000542:
000543:                                                                                                  #                        BIT 14 FLAG 2
000544: ???????                        R21MARK            =        031D                                  #  OPTION ONE FOR        OPTION TWO FOR
000545:                                                                                                  #  MARKRUPT              MARKRUPT
000546:
000547: ???????     4764               R21BIT             =        BIT14
000548:
000549:                                                                                                  #                        BIT 13 FLAG 2
000550: ???????                        ITERFLG            =        032D                                  #  15 ITERATIONS HAVE    15 ITERATIONS HAVE
000551:                                                                                                  #  OCCURRED IN ITER      NOT OCCURRED IN ITER
000552: ???????     4765               ITERBIT            =        BIT13
000553:
000554:                                                                                                  #                        BIT 12 FLAG 2
000555: ???????                        P21FLAG            =        033D                                  #  SUCCEEDING PASS       1ST PASS THRU P21,
000556:                                                                                                  #  THRU P21, USE BASE    CALCULATE BASE
000557: ???????     4766               P21BIT             =        BIT12                                 #  VECTOR FOR CALC.      VECTOR
000558:
000559:                                                                                                  #                        BIT 11 FLAG 2
000560: ???????                        STEERSW            =        034D                                  #  STEERING TO BE DONE   STEERING OMITTED
000561:
000562: ???????     4767               STEERBIT           =        BIT11
000563:
000564:                                                                                                  #                        BIT 10 FLAG 2
000565: ???????                        SKIPVHF            =        035D                                  #  DISREGARD RADAR       RADAR READ TO
000566:                                                                                                  #  READ BECAUSE OF       PROCEED NORMALLY
000567: ???????     4770               SKIPVBIT           =        BIT10                                 #  SFTWRE OR HDWRE
000568:                                                                                                  #  RESTART
000569:
000570:                                                                                                  #                        BIT 9 FLAG 2
000571: ???????                        IMPULSW            =        036D                                  #  MINIMUM IMPULSE       STEERING BURN (NO
000572:                                                                                                  #  BURN (CUTOFF TIME     CUTOFF TIME YET
000573:                                                                                                  #  SPECIFIED)            AVAILABLE)
000574:
000575: ???????     4771               IMPULBIT           =        BIT9
000576:
000577:                                                                                                  #                        BIT 8 FLAG 2
000578: ???????                        XDELVFLG           =        037D                                  #  EXTERNAL DELTAV VG    LAMBERT (AIMPOINT)
000579:                                                                                                  #  COMPUTATION           VG COMPUTATION
000580:
000581: ???????     4772               XDELVBIT           =        BIT8
000582:                                                                                                  #                        BIT 7 FLAG 2
000583: ???????                        ETPIFLAG           =        038D                                  #  ELEVATION ANGLE       TPI TIME SUPPLIED
000584:                                                                                                  #  SUPPLIED FOR P34,74   FOR P34,74
000585:
000586: ???????     4773               ETPIBIT            =        BIT7
000587:
000588:                                                                                                  #                        BIT 7 FLAG 2
000589: ???????  0000046               FIRSTFLG           =        ETPIFLAG                              #  FIRST PASS            SUCCEEDING PASS THRU
000590:                                                                                                  #  THRU S40.9            S40.9
000591:
000592: ???????     4773               FIRSTBIT           =        BIT7
000593:
000594: ???????     4774               FINALBIT           =        BIT6
000595:
000596:                                                                                                  #                        BIT 6 FLAG 2
000597: ???????                        FINALFLG           =        039D                                  #  LSAT PASS THROUGH     INTERIM PASS THROUGH
000598:                                                                                                  #  RENDEZVOUS PROGRAM    RENDEZVOUS PROGRAM
000599:                                                                                                  #  COMPUTATIONS          COMPUTATIONS
000600:
000601:                                                                                                  #                        BIT 5 FLAG 2
000602:
000603: ???????                        REVFLAG            =        040D                                  #  ONLY COMPUTE MATRIX   COMPUTE MATRIX AND
000604:                                                                                                  #  IN GET. LVC           VECTOR IN GET. LVC
000605: ???????     4775               REVBIT             =        BIT5
000606:
000607:                                                                                                  #                        BIT 4 FLAG 2
000608: ???????                        PFRATFLG           =        041D                                  #  PREFERRED ATTITUDE    PREFERRED ATTITUDE
000609:                                                                                                  #  COMPUTED              NOT COMPUTED
000610:
000611: ???????     4776               PFRATBIT           =        BIT4
000612:
000613:                                                                                                  #                        BIT 3 FLAG 2
000614: ???????                        SBFLAG             =        042D                                  #  PERFORM COMPLEX       PERFORM SIMPLE
000615:                                                                                                  #  SHORT BURN LOGIC      SHORT BURN LOGIC
000616: ???????     4777               SBFLGBIT           =        BIT3
000617:
000618:                                                                                                  #                        BIT 2 FLAG 2
000619: ???????                        CALCMAN2           =        043D                                  #  PERFORM MANEUVER      BYPASS STARTING
000620:                                                                                                  #  STARTING PROCEDURE    PROCEDURE
000621:
000622: ???????     5000               CALC2BIT           =        BIT2
000623:
000624:                                                                                                  #                        BIT 1 FLAG 2
000625: ???????                        NODOFLAG           =        044D                                  #  V37 NOT PERMITTED     V37 PERMITTED
000626:
000627: ???????     5001               NODOBIT            =        BIT1
000628:
000629: ???????     0077               FLAGWRD3           =        STATE      +3                         #  (045-059)
000630:
000631:                                                                                                  #  (SET)                 (RESET)
000632:
000633:                                                                                                  #                        BIT 15 FLAG 3
000634: ???????                        V50N18FL           =        045D                                  #  ENABLE R60 ATT        INHIBIT R60 ATTITUDE
000635: ???????     4763               V50N18BT           =        BIT15                                 #   MANEUVER              MANEUVER
000636:
000637:                                                                                                  #                        BIT 14 FLAG 3
000638: ???????                        GLOKFAIL           =        046D                                  #  GIMBAL LOCK HAS       NOT IN GIMBAL LOCK
000639:                                                                                                  #  OCCURED
000640:
000641: ???????     4764               GLOKFBIT           =        BIT14
000642:
000643:                                                                                                  #                        BIT 13 FLAG 3
000644: ???????                        REFSMFLG           =        047D                                  #  REFSMMAT GOOD         REFSMMAT NO GOOD
000645:
000646: ???????     4765               REFSMBIT           =        BIT13
000647:
000648:                                                                                                  #                        BIT 12 FLAG 3
000649: ???????                        500**FLG           =        048D                                  #  THE 500 ALARM HAS     THE 500 ALARM HAS
000650:                                                                                                  #  BEEN SET TO INDI-     NOT YET BEEN SET.
000651: ???????     4766               500**BIT           =        BIT12                                 #  CATE THERE ARE        500**FLG IS RESET
000652:                                                                                                  #  NOT ENOUGH JETS       IN R04
000653:                                                                                                  #  UNINHIBITED FOR
000654:                                                                                                  #  SOME PITCH OR YAW
000655:                                                                                                  #  ROTATION WANTED
000656:                                                                                                  #  BY THE DAP
000657:
000658:                                                                                                  #                        BIT 11 FLAG 3
000659: ???????                        501**FLG           =        049D                                  #  THE 501 ALARM HAS     THE 501 ALARM HAS
000660:                                                                                                  #  BEEN SET TO INDI-     NOT YET BEEN SET.
000661: ???????     4767               501**BIT           =        BIT11                                 #  CATE THERE ARE        501**FLG IS RESET
000662:                                                                                                  #  NOT ENOUGH JETS       IN R04
000663:                                                                                                  #  UNINHIBITED FOR
000664:                                                                                                  #  SOME ROLL ROTATION
000665:                                                                                                  #  WANTED BY THE DAP
000666:
000667:                                                                                                  #                        BIT 10 FLAG 3
000668: ???????                        VFLAG              =        050D                                  #  LESS THAN TWO STARS   TWO STARS IN FIELD
000669:                                                                                                  #  IN FIELD OF VIEW      OF VIEW
000670:
000671: ???????     4770               VFLAGBIT           =        BIT10
000672:
000673:                                                                                                  #                        BIT 9 FLAG 3
000674: ???????                        POOFLAG            =        051D                                  #  INHIBIT BACKWARDS     ALLOW BACKWARDS
000675: ???????     4771               POOBIT             =        BIT9                                  #  INTEGRATION           INTEGRATION
000676:                                                                                                  #                        BIT 8 FLAG 3
000677: ???????                        PRECIFLG           =        052D                                  #  CSMPREC, LEMPREC      INTGRV CALLED
000678: ???????     4772               PRECIBIT           =        BIT8                                  #  OR INTEGRVS CALLED
000679:
000680:                                                                                                  #                        BIT 7 FLAG 3
000681: ???????                        CULTFLAG           =        053D                                  #  STAR OCCULTED         STAR NOT OCCULTED
000682:
000683: ???????     4773               CULTBIT            =        BIT7
000684:
000685:                                                                                                  #                        BIT 6 FLAG 3
000686: ???????                        45/46FLG           =        054D                                  #  V45 WAS LAST DAP      V46 WAS LAST DAP
000687:                                                                                                  #  TURN ON EXT VERB      TURN ON EXT VERB
000688: ???????     4774               45/46BIT           =        BIT6
000689:
000690:                                                                                                  #                        BIT 5 FLAG 3
000691: ???????                        STATEFLG           =        055D                                  #  PERMANENT STATE       PERMANENT STATE
000692:                                                                                                  #  VECTOR UPDATED        VECTOR NOT UPDATED
000693:
000694: ???????     4775               STATEBIT           =        BIT5
000695:
000696:                                                                                                  #                        BIT 4 FLAG 3
000697: ???????                        INTYPFLG           =        056D                                  #  CONIC INTEGRATION     ENCKE INTEGRATION
000698:
000699: ???????     4776               INTYBIT            =        BIT4
000700:
000701:                                                                                                  #                        BIT 3 FLAG 3
000702: ???????                        VINTFLAG           =        057D                                  #  CSM STATE VECTOR      OWS STATE VECTOR
000703:                                                                                                  #  BEING INTEGRATED      BEING INTEGRATED
000704:
000705: ???????     4777               VINTFBIT           =        BIT3
000706:
000707:                                                                                                  #                        BIT 2 FLAG 3
000708:                                                                                                  #                =       058D
000709:
000710:                                                                                                  #                        BIT 1 FLAG 3
000711: ???????                        DIM0FLAG           =        059D                                  #  W MATRIX IS TO BE     W MATRIX IS NOT TO
000712:                                                                                                  #  USED                  BE USED
000713:
000714: ???????     0100               FLAGWRD4           =        STATE      +4                         #  (060-074)
000715:
000716:                                                                                                  #  (SET)                 (RESET)
000717:
000718: ???????     5001               DIM0BIT            =        BIT1
000719:
000720:                                                                                                  #                        BIT 15 FLAG 4
000721: ???????                        MRKIDFLG           =        060D                                  #  MARK DISPLAY IN       NO MARK DISPLAY IN
000722:                                                                                                  #  ENDIDLE               ENDIDLE
000723:
000724: ???????     4763               MRKIDBIT           =        BIT15
000725:
000726:                                                                                                  #                        BIT 14 FLAG 4
000727: ???????                        PRIODFLG           =        061D                                  #  PRIORITY DISPLAY IN   NO PRIORITY DISPLAY
000728:                                                                                                  #  ENDIDLE               IN ENDIDLE
000729:
000730: ???????     4764               PRIODBIT           =        BIT14
000731:
000732:                                                                                                  #                        BIT 13 FLAG 4
000733: ???????                        NRMIDFLG           =        062D                                  #  NORMAL DISPLAY IN     NO NORMAL DISPLAY
000734:                                                                                                  #  ENDIDLE               IN ENDIDLE
000735:
000736: ???????     4765               NRMIDBIT           =        BIT13
000737:
000738:                                                                                                  #                        BIT 12 FLAG 4
000739: ???????                        PDSPFLAG           =        063D                                  #  CAN'T INTERRUPT       SEE M. HAMILTON
000740:                                                                                                  #  PRIORITY DISPLAY
000741:
000742: ???????     4766               PDSPFBIT           =        BIT12
000743:
000744:                                                                                                  #                        BIT 11 FLAG 4
000745: ???????                        MWAITFLG           =        064D                                  #  HIGHER PRIORITY       NO HIGHER PRIORITY
000746:                                                                                                  #  DISPLAY OPERATING     DISPLAY OPERATING
000747:                                                                                                  #  WHEN MARK DISPLAY     WHEN MARK DISPLAY
000748:                                                                                                  #  INITIATED             INITIATED
000749: ???????     4767               MWAITBIT           =        BIT11
000750:
000751:                                                                                                  #                        BIT 10 FLAG 4
000752: ???????                        NWAITFLG           =        065D                                  #  HIGHER PRIORITY       NO HIGHER PRIORITY
000753:                                                                                                  #  DISPLAY OPERATING     DISPLAY OPERATING
000754:                                                                                                  #  WHEN NORMAL           WHEN NORMAL DISPLAY
000755:                                                                                                  #  DISPLAY INITIATED     INITIATED
000756: ???????     4770               NWAITBIT           =        BIT10
000757:
000758:                                                                                                  #                        BIT 9 FLAG 4
000759: ???????                        MRKNVFLG           =        066D                                  #  ASTRONAUT USING       ASTRONAUT NOT USING
000760:                                                                                                  #  KEYBOARD WHEN MARK    KEYBOARD WHEN MARK
000761:                                                                                                  #  DISPLAY INITIATED     DISPLAY INITIATED
000762:
000763: ???????     4771               MRKNVBIT           =        BIT9
000764:
000765:                                                                                                  #                        BIT 8 FLAG 4
000766: ???????                        NRMNVFLG           =        067D                                  #  ASTRONAUT USING       ASTRONAUT NOT USING
000767:                                                                                                  #  KEYBOARD WHEN         KEYBOARD WHEN
000768:                                                                                                  #  NORMAL DISPLAY        NORMAL DISPLAY
000769:                                                                                                  #  INITIATED             INITIATED
000770:
000771: ???????     4772               NRMNVBIT           =        BIT8
000772:
000773:                                                                                                  #                        BIT 7 FLAG 4
000774: ???????                        PRONVFLG           =        068D                                  #  ASTRONAUT USING       ASTRONAUT NOT USING
000775:                                                                                                  #  KEYBOARD WHEN         KEYBOARD WHEN
000776:                                                                                                  #  PRIORITY DISPLAY      PRIORITY DISPLAY
000777:                                                                                                  #  INITIATED             INITIATED
000778:
000779: ???????     4773               PRONVBIT           =        BIT7
000780:
000781:                                                                                                  #                        BIT 6 FLAG 4
000782: ???????                        PINBRFLG           =        069D                                  #  ASTRONAUT HAS         ASTRONAUT HAS NOT
000783:                                                                                                  #  INTERFERED WITH       INTERFERED WITH
000784:                                                                                                  #  EXISTING DISPLAY      EXISTING DISPLAY
000785:
000786: ???????     4774               PINBRBIT           =        BIT6
000787:
000788:                                                                                                  #                        BIT 5 FLAG 4
000789: ???????                        MRUPTFLG           =        070D                                  #  MARK DISPLAY          MARK DISPLAY NOT
000790:                                                                                                  #  INTERRUPTED BY        INTERRUPTED BY
000791:                                                                                                  #  PRIORITY DISPLAY      PRIORITY DISPLAY
000792:
000793: ???????     4775               MRUPTBIT           =        BIT5
000794:
000795:                                                                                                  #                        BIT 4 FLAG 4
000796: ???????                        NRUPTFLG           =        071D                                  #  NORMAL DISPLAY        NORMAL DISPLAY NOT
000797:                                                                                                  #  INTERRUPTED BY        INTERRUPTED BY
000798:                                                                                                  #  PRIORITY OR MARK      PRIORITY OR MARK
000799:                                                                                                  #  DISPLAY               DISPLAY
000800:
000801: ???????     4776               NRUPTBIT           =        BIT4
000802:
000803:                                                                                                  #                        BIT 3 FLAG 4
000804: ???????                        MKOVFLAG           =        072D                                  #  MARK DISPLAY OVER     NO MARK DISPLAY OVER
000805:                                                                                                  #  NORMAL                NORMAL
000806: ???????     4777               MKOVBIT            =        BIT3
000807:
000808:                                                                                                  #                        BIT 2 FLAG 4    DISPLAY BIT
000809: ???????                        VNFLAG             =        073D                                  #  DISPLAY IS A          DISPLAY IS NOT A
000810: ???????     5000               VNBIT              =        BIT2                                  #  VNFLASH TYPE          VNFLASH TYPE
000811:
000812:                                                                                                  #                        BIT 1 FLAG 4    MARK DISPLAY NOT TO     NO SPECIAL MARK
000813: ???????                        XDSPFLAG           =        074D                                  #  BE INTERRUPTED        INFORMATION.
000814:
000815: ???????     5001               XDSPBIT            =        BIT1
000816:
000817: ???????     0101               FLAGWRD5           =        STATE      +5                         #  (075-099)
000818:
000819:                                                                                                  #  (SET)                 (RESET)
000820:
000821:                                                                                                  #                        BIT 15 FLAG 5
000822: ???????                        DSKYFLAG           =        075D                                  #  DISPLAYS SENT TO      NO DISPLAYS TO DSKY
000823:                                                                                                  #  DSKY
000824:
000825:
000826: ???????     4763               DSKYBIT            =        BIT15
000827:
000828:                                                                                                  #                        BIT 14 FLAG 5
000829:                                                                                                  #                =       076D
000830:
000831:                                                                                                  #                        BIT 13 FLAG 5
000832:                                                                                                  #                =       077D
000833:
000834:                                                                                                  #                        BIT 12 FLAG 5
000835:                                                                                                  #                =       078D
000836:
000837:                                                                                                  #                        BIT 11 FLAG 5
000838: ???????                        INCORFLG           =        079D                                  #  FIRST INCORPORATION   SECOND INCORPORATION
000839:
000840: ???????     4767               INCORBIT           =        BIT11
000841:
000842:                                                                                                  #                        BIT 10 FLAG 5
000843: ???????                        NEWTFLAG           =        80D                                   #  RETURN TO P29 SKIP-   NORMAL OPERATION
000844: ???????     4770               NEWTBIT            =        BIT10                                 #  PING LONGITUDE DIS-
000845:                                                                                                  #  PLAY
000846:
000847:                                                                                                  #                        BIT 9 FLAG 5
000848:                                                                                                  #                =       081D
000849:
000850:                                                                                                  #                        BIT 8 FLAG 5
000851:                                                                                                  #                =       082D
000852:
000853:                                                                                                  #                        BIT 7 FLAG 5
000854: ???????                        ENGONFLG           =        083D                                  #  ENGINE TURNED ON      ENGINE TURNED OFF
000855:
000856: ???????     4773               ENGONBIT           =        BIT7
000857:
000858:                                                                                                  #                        BIT 6 FLAG 5
000859: ???????                        3AXISFLG           =        084D                                  #  MANEUVER SPECIFIED    MANEUVER SPECIFIED
000860:                                                                                                  #  BY THREE AXES         BY ONE AXIS
000861:
000862: ???????     4774               3AXISBIT           =        BIT6
000863:
000864:                                                                                                  #                        BIT 5 FLAG 5
000865: ???????                        GRRBKFLG           =        085D                                  #  BACKUP GRR RECEIVED   BACKUP GRR NOT
000866:                                                                                                  #                        RECEIVED
000867:
000868: ???????     4775               GRRBKBIT           =        BIT5
000869:
000870:                                                                                                  #                        BIT 4 FLAG 5
000871:                                                                                                  #                =       086D
000872:
000873:
000874:                                                                                                  #                        BIT 3 FLAG 5
000875: ???????                        SOLNSW             =        87D                                   #  LAMBERT DOES NOT      LAMBERT CONVERGES OR
000876:                                                                                                  #  CONVERGE, OR TIME-    TIME-RADIUS NON
000877:                                                                                                  #  RADIUS NEARLY CIRC.   CIRCULAR.
000878:
000879:
000880: ???????     4777               SOLNSBIT           =        BIT3
000881:
000882:                                                                                                  #                        BIT 2 FLAG 5
000883:                                                                                                  #                =       088D
000884:
000885:                                                                                                  #                        BIT 1 FLAG 5
000886: ???????                        RENDWFLG           =        089D                                  #  W MATRIX VALID        W MATRIX INVALID
000887:                                                                                                  #  FOR RENDEZVOUS        FOR RENDEZVOUS
000888:                                                                                                  #  NAVIGATION            NAVIGATION
000889:
000890: ???????     5001               RENDWBIT           =        BIT1
000891:
000892:
000893: ???????     0102               FLAGWRD6           =        STATE      +6                         #  (090-104)
000894:
000895:                                                                                                  #  (SET)                 (RESET)
000896:
000897:                                                                                                  #                        BIT 15 FLAG 6
000898: ???????                        DAPBIT1            =        090D                                  #  1 SATURN 1 TVC        0 RCS   0 NO
000899:
000900:
000901: ???????     4763               DAP1BIT            =        BIT15
000902:
000903:                                                                                                  #                        BIT 14 FLAG 6
000904: ???????                        DAPBIT2            =        091D                                  #  1 A/P    0 A/P        1 A/P   0 A/P
000905:
000906: ???????     4764               DAP2BIT            =        BIT14
000907:
000908:                                                                                                  #                        BIT 13 FLAG 6
000909: ???????                        STRULLSW           =        92D                                   #  DO STEERULL           DO ULAGEOFF ONLY
000910:
000911: ???????     4765               STRULBIT           =        BIT13
000912:
000913:                                                                                                  #                        BIT 13 FLAG 6
000914: ???????  0000134               ENTRYDSP           =        STRULLSW                              #  DO ENTRY DISPLAY      OMIT ENTRY DISPLAY
000915:                                                                                                  #  VIA ENTRYVN.
000916:
000917: ???????     4765               ENDSPBIT           =        BIT13
000918:
000919:                                                                                                  #                        BIT 12 FLAG 6
000920: ???????                        CMDAPARM           =        093D                                  #  ALOW ENTRY FIRINGS    INHIBIT ENTRY FIRING
000921:                                                                                                  #  AND CALCULATIONS      AND CONTROL FUNCTION
000922: ???????     4766               CMARMBIT           =        BIT12
000923:
000924:                                                                                                  #                                DO NOT SHARE BIT12 WITH PROGRAMS USING SERVICER
000925:
000926:                                                                                                  #                        BIT 11 FLAG 6
000927: ???????                        GAMDIFSW           =        094D                                  #  CALCULATE GAMDOT      GAMDOT NOT TO BE
000928:                                                                                                  #                        CALCULATED
000929:
000930: ???????     4767               GMDIFBIT           =        BIT11
000931:
000932:                                                                                                  #                        BIT 10 FLAG 6
000933: ???????                        GONEPAST           =        095D                                  #  LATERAL CONTROL       LATERAL CONTROL
000934:                                                                                                  #  CALCULATIONS TO BE    CALCULATIONS TO BE
000935:                                                                                                  #  OMITTED               DONE
000936:
000937: ???????     4770               GONEBIT            =        BIT10
000938:
000939:                                                                                                  #                        BIT 9 FLAG 6
000940: ???????                        RELVELSW           =        096D                                  #  TARGETING USES        TARGETING USES
000941:                                                                                                  #  EARTH-RELATIVE        INERTIAL VELOCITY
000942:                                                                                                  #  VELOCITY
000943:
000944: ???????     4771               RELVBIT            =        BIT9
000945:
000946:                                                                                                  #                        BIT 8 FLAG 6
000947: ???????                        EGSW               =        097D                                  #  IN FINAL PHASE        NOT IN FINAL PHASE
000948:
000949: ???????     4772               EGFLGBIT           =        BIT8
000950:
000951:                                                                                                  #                        BIT 7 FLAG 6
000952: ???????                        NOSWITCH           =        098D                                  #  LATERAL ROLL          LATERAL ROLL MANUVER
000953: ???????     4773               NOSWBIT            =        BIT7                                  #  MANUVER INHIBITED     PERMITED IN ENTRY
000954:                                                                                                  #  IN ENTRY
000955:
000956:
000957:                                                                                                  #                        BIT 6 FLAG 6
000958: ???????                        HIND               =        099D                                  #  ITERATING HUNTEST     ITERATING OF HUNTEST
000959:                                                                                                  #  CALCULATIONS TO BE    CALCULATIONS TO BE
000960:                                                                                                  #  DONE AFTER RANGE      OMITTED AFTER RANGE
000961:                                                                                                  #  PREDICTION            PREDICTION
000962:
000963: ???????     4774               HINDBIT            =        BIT6
000964:
000965:                                                                                                  #                        BIT 5 FLAG 6
000966: ???????                        INRLSW             =        100D                                  #  INITIAL ROLL          INITIAL ROLL
000967:                                                                                                  #  V(LV)                 V(LV)
000968:
000969: ???????     4775               INRLBIT            =        BIT5
000970:
000971:                                                                                                  #  ATTITUDE NOT HELD     ATTITUDE HELD
000972:
000973:                                                                                                  #                        BIT 4 FLAG 6
000974: ???????                        LATSW              =        101D                                  #  DOWNLIFT NOT          DOWNLIFT INHIBITED
000975:                                                                                                  #  INHIBITED
000976:
000977: ???????     4776               LATSWBIT           =        BIT4
000978:
000979:                                                                                                  #                        BIT 3 FLAG 6
000980: ???????                        .05GSW             =        102D                                  #  DRAG OVER .05G        DRAG LESS THAN .05G
000981:
000982: ???????     4777               .05GBIT            =        BIT3
000983:
000984:                                                                                                  #                                DO NOT SHARE BIT3 WITH PROGRAMS USING SERVICER
000985:
000986:                                                                                                  #                        BIT 2 FLAG 6
000987: ???????                        CM/DSTBY           =        103D                                  #  ENTRY DAP ACTIVATED   ENTRY DAP NOT
000988:                                                                                                  #                        ACTIVATED
000989:
000990: ???????     5000               CM/DSBIT           =        BIT2
000991:
000992:                                                                                                  #                                DO NOT SHARE BIT2  WITH PROGRAMS USING SERVICER
000993:
000994:                                                                                                  #                        BIT 1 FLAG 6
000995: ???????                        GYMDIFSW           =        104D                                  #  CDU DIFFERENCES AND   CDU DIFFERENCES AND
000996:                                                                                                  #  BODY RATES COMPUTED   BODY RATES NOT
000997:                                                                                                  #                        COMPUTED
000998:
000999: ???????     5001               GYMDIBIT           =        BIT1
001000:
001001: ???????     0103               FLAGWRD7           =        STATE      +7                         #  (105-119)
001002:
001003:                                                                                                  #  (SET)                 (RESET)
001004:
001005:                                                                                                  #                        BIT 15 FLAG 7
001006: ???????                        TERMIFLG           =        105D                                  #  TERMINATE R52         DO NOT TERMINATE R52
001007: ???????     4763               TERMIBIT           =        BIT15
001008:
001009:                                                                                                  #                        BIT 14 FLAG 7
001010: ???????                        ITSWICH            =        106D                                  #  ACCEPT NEXT LAMBERT   TEST LAMBERT ANSWER
001011:                                                                                                  #  TPI SEARCH SOLUTION   AGAINST LIMITS
001012:
001013: ???????     4764               ITSWBIT            =        BIT14
001014:
001015:                                                                                                  #                        BIT 13 FLAG 7
001016: ???????                        IGNFLAG            =        107D                                  #  TIG HAS ARRIVED       TIG HAS NOT ARRIVED
001017:
001018: ???????     4765               IGNFLBIT           =        BIT13
001019:
001020:                                                                                                  #                        BIT 12 FLAG 7
001021: ???????                        ASTNFLAG           =        108D                                  #  ASTRONAUT HAS         ASTRONAUT HAS NOT
001022:                                                                                                  #  OKAYED IGNITION       OKAYED IGNITION
001023:
001024: ???????     4766               ASTNBIT            =        BIT12
001025:
001026:                                                                                                  #                        BIT 11 FLAG 7
001027: ???????                        TIMRFLAG           =        109D                                  #  CLOKTASK OPERATING    CLOKTASK INOPERATIVE
001028:
001029: ???????     4767               TIMRBIT            =        BIT11
001030:
001031:                                                                                                  #                        BIT 10 FLAG 7
001032: ???????                        NORMSW             =        110D                                  #  UNIT NORMAL INPUT     LAMBERT COMPUTE ITS
001033:                                                                                                  #  TO LAMBERT.           OWN UNIT NORMAL.
001034:
001035:
001036: ???????     4770               NDRMSBIT           =        BIT10
001037:
001038:                                                                                                  #                        BIT 9 FLAG 7
001039: ???????                        RVSW               =        111D                                  #  DO NOT COMPUTE FINAL  COMPUTE FINAL STATE
001040:                                                                                                  #  STATE VECTOR IN       VECTOR IN TIME-THETA
001041:                                                                                                  #  TIME-THETA.
001042:
001043:
001044: ???????     4771               RVSWBIT            =        BIT9
001045:
001046:                                                                                                  #                        BIT 8 FLAG 7
001047: ???????                        GONEBY             =        112D                                  #  PASSED TARGET         APPROACHING TARGET
001048:
001049: ???????     4772               G0NBYBIT           =        BIT8
001050:
001051:                                                                                                  #                        BIT 7 FLAG 7
001052:                                                                                                  #                =       113D
001053:
001054:                                                                                                  #                        BIT 6 FLAG 7
001055: ???????                        V37FLAG            =        114D                                  #  AVERAGEG (SERVICER)   AVERAGEG (SERVICER)
001056:                                                                                                  #  RUNNING               OFF
001057:
001058: ???????     4774               V37FLBIT           =        BIT6
001059:
001060:                                                                                                  #                        BIT 5 FLAG 7
001061:                                                                                                  #                =       115D
001062:
001063:                                                                                                  #                        BIT 4 FLAG 7
001064: ???????                        UPLOCKFL           =        116D                                  #  K-KBAR-K FAIL         NO K-KBAR-K FAIL
001065:
001066: ???????     4776               UPLOCBIT           =        BIT4
001067:
001068:                                                                                                  #                        BIT 3 FLAG 7
001069: ???????                        VERIFLAG           =        117D                                  #  CHANGED WHEN V33E OCCURS AT END OF P27
001070:
001071: ???????     4777               VERIFBIT           =        BIT3
001072:
001073:                                                                                                  #                        BIT 2 FLAG 7
001074: ???????                        ATTCHFLG           =        118D                                  #  LM,CM ATTACHED        LM,CM NOT ATTACHED
001075:
001076: ???????     5000               ATTCHBIT           =        BIT2
001077:
001078:                                                                                                  #                        BIT 1 FLAG 7
001079: ???????                        TFFSW              =        119D                                  #  CALCULATE TPERIGEE    CALCULATE TFF
001080:
001081: ???????     5001               TFFSWBIT           =        BIT1
001082:
001083: ???????     0104               FLAGWRD8           =        STATE      +8D                        #  (120-134)
001084:
001085:                                                                                                  #  (SET)                 (RESET)
001086:
001087:                                                                                                  #                        BIT 15 FLAG 8
001088:                                                                                                  #                =       120D
001089:
001090:                                                                                                  #                        BIT 14 FLAG 8
001091:                                                                                                  #                =       121D
001092:
001093:                                                                                                  #                        BIT 13 FLAG 8
001094: ???????                        NEWIFLG            =        122D                                  #  FIRST PASS THROUGH    SUCCEEDING ITERATION
001095:                                                                                                  #  INTEGRATION           OF INTEGRATION
001096:
001097: ???????     4765               NEWIBIT            =        BIT13
001098:
001099:                                                                                                  #                        BIT 12 FLAG 8
001100:                                                                                                  #                =       123D
001101:
001102:                                                                                                  #                        BIT 11 FLAG 8
001103:                                                                                                  #                =       124D
001104:
001105:                                                                                                  #                        BIT 10 FLAG 8
001106:                                                                                                  #                =       125D
001107:
001108:                                                                                                  #                        BIT 9 FLAG 8
001109: ???????                        UTFLAG             =        126D                                  #  UNIVERSAL TRACKING    NO UNIVERSAL TRACKING
001110: ???????     4771               UTBIT              =        BIT9
001111:
001112:                                                                                                  #                        BIT 8 FLAG 8
001113:                                                                                                  #                =       127D
001114:
001115:                                                                                                  #                        BIT 7 FLAG 8
001116: ???????                        INFINFLG           =        128D                                  #  NO CONIC SOLUTION     CONIC SOLUTION
001117:                                                                                                  #  (CLOSURE THROUGH      EXISTS.
001118:                                                                                                  #  INFINITY REQUIRED).
001119:
001120: ???????     4773               INFINBIT           =        BIT7
001121:
001122:                                                                                                  #                        BIT 6 FLAG 8
001123: ???????                        ORDERSW            =        129D                                  #  ITERATOR USES 2ND     ITERATOR USES 1ST
001124:                                                                                                  #  ORDER MINIMUM MODE.   ORDER STANDARD MODE.
001125: ???????     4774               ORDERBIT           =        BIT6
001126:
001127:                                                                                                  #                        BIT 5 FLAG 8
001128: ???????                        APSESW             =        130D                                  #  RDESIRED OUTSIDE      RDESIRED INSIDE
001129:                                                                                                  #  PERICENTER-APOCENTER  PERICENTER-APOCENTE
001130:                                                                                                  #  RANGE IN TIME-RAD     RANGE IN TIME-RADIUS
001131:
001132:
001133: ???????     4775               APSESBIT           =        BIT5
001134:
001135:                                                                                                  #                        BIT 4 FLAG 8
001136: ???????                        COGAFLAG           =        131D                                  #  NO CONIC SOLUTION     CONIC SOLUTION
001137:                                                                                                  #  TOO CLOSE TO          EXISTS (COGA DOES
001138:                                                                                                  #  RECTILINEAR (COGA     NOT OVERFLOW).
001139:                                                                                                  #  OVERFLOWS).
001140:
001141:
001142: ???????     4776               COGAFBIT           =        BIT4
001143:
001144:                                                                                                  #                        BIT 3 FLAG 8
001145: ???????                        V96ONFLG           =        132D                                  #  P00 INTEGRATION HAS   P00 INTEGRATION IS
001146:                                                                                                  #  BEEN INHIBITED BY     PROCEEDING REGULARLY
001147: ???????     4777               V96ONBIT           =        BIT3                                  #  V96
001148:
001149:                                                                                                  #                        BIT 2 FLAG 8
001150: ???????                        R67FLAG            =        133D                                  #  R67 CALLING R60       NOT R67 CALLING R60
001151: ???????     5000               R67BIT             =        BIT2
001152:
001153:                                                                                                  #                        BIT 1 FLAG 8
001154: ???????                        360SW              =        134D                                  #  TRANSFER ANGLE NEAR   TRANSFER ANGLE NOT
001155:                                                                                                  #  360 DEGREES           NEAR 360 DEGREES
001156:
001157: ???????     5001               360SWBIT           =        BIT1
001158:
001159: ???????     0105               FLAGWRD9           =        STATE      +9D                        #  (135-149)
001160:
001161:                                                                                                  #  (SET)                 (RESET)
001162:                                                                                                  #                        BIT 15 FLAG 9
001163: ???????                        SWTOVER            =        135D                                  #  SWITCHOVER HAS        NO SWITCHOVER YET
001164:                                                                                                  #  OCCURRED
001165:
001166: ???????     4763               SWTOVBIT           =        BIT15
001167:
001168:                                                                                                  #                        BIT 14 FLAG 9
001169:                                                                                                  #                =       136D
001170:
001171:                                                                                                  #                        BIT 13 FLAG 9
001172:                                                                                                  #                =       137D
001173:
001174:                                                                                                  #                        BIT 12 FLAG 9
001175: ???????                        MAXDBFLG           =        138D                                  #  MAX DB SELECTED       MIN DB SELECTED
001176:
001177:
001178: ???????     4766               MAXDBBIT           =        BIT12
001179:
001180:                                                                                                  #                        BIT 11 FLAG 9
001181:                                                                                                  #                =       139D
001182:
001183:                                                                                                  #                        BIT 10 FLAG 9
001184:                                                                                                  #                =       140D
001185:
001186:                                                                                                  #                        BIT 9 FLAG 9
001187: ???????                        VHFRFLAG           =        141D                                  #  ALLOW R22 TO          STOP ACCEPTANCE
001188:                                                                                                  #  ACCEPT RANGE          OF RANGE DATA
001189:                                                                                                  #  DATA
001190:
001191: ???????     4771               VHFRBIT            =        BIT9
001192:
001193:                                                                                                  #                        BIT 8 FLAG 9
001194: ???????                        SOURCFLG           =        142D                                  #  SOURCE OF INPUT       SOURCE OF INPUT
001195:                                                                                                  #  DATA IS FROM          DATA IS FROM
001196:                                                                                                  #  VHF RADAR             OPTICS MARK
001197:
001198: ???????     4772               SOURCBIT           =        BIT8
001199:
001200:                                                                                                  #                        BIT 7 FLAG 9
001201: ???????                        R22CAFLG           =        143D                                  #  R22 IS PROCESSING     R22 IS NOT PROCESSING
001202:                                                                                                  #  AN OPTICS MARK        AN OPTICS MARK
001203:
001204: ???????     4773               R22CABIT           =        BIT7
001205:
001206:                                                                                                  #                        BIT 6 FLAG 9
001207: ???????                        N22ORN17           =        144D                                  #  COMPUTE TOTAL         COMPUTE TOTAL
001208:                                                                                                  #  ATTITUDE ERRORS       ATTITUDE ERRORS
001209:                                                                                                  #  WRT N22 (V62)         WRT N17 (V63)
001210:
001211: ???????     4774               N2217BIT           =        BIT6
001212:
001213:                                                                                                  #                        BIT 5 FLAG 9
001214: ???????                        QUITFLAG           =        145D                                  #  TERMINATE AND EXIT    CONTINUE INTEGRATION
001215: ???????     4775               QUITBIT            =        BIT5                                  #  FROM INTEGRATION
001216:
001217:                                                                                                  #                        BIT 4 FLAG 9
001218: ???????                        R31FLAG            =        146D                                  #  R31 SELECTED (V83)    R34 SELECTED (V85)
001219:
001220: ???????     4776               R31FLBIT           =        BIT4
001221:
001222:                                                                                                  #                        BIT 3 FLAG 9
001223: ???????                        MID1FLAG           =        147D                                  #  INTEGRATE TO TDEC     INTEGRATE TO THE
001224:                                                                                                  #                        THEN-PRESENT TIME
001225:
001226: ???????     4777               MID1FBIT           =        BIT3
001227:
001228:                                                                                                  #                        BIT 2 FLAG 9
001229: ???????                        MIDAVFLG           =        148D                                  #  INTEGRATION ENTERED   INTEGRATION WAS
001230:                                                                                                  #  FROM ONE OF MIDTOAV   NOT ENTERED VIA
001231:                                                                                                  #  PORTALS               MIDTOAV
001232:
001233: ???????     5000               MIDAVBIT           =        BIT2
001234:
001235:                                                                                                  #                        BIT 1 FLAG 9
001236: ???????                        AVEMIDSW           =        149D                                  #  AVETOMID CALLING      NO AVETOMID W INTEGR
001237:                                                                                                  #  FOR W.MATRIX INTEGR   ALLOW SET UP RN,VN,
001238:                                                                                                  #  DONT WRITE OVER RN,   PIPTIME
001239:                                                                                                  #  VN,PIPTIME
001240:
001241: ???????     5001               AVEMDBIT           =        BIT1
001242:
001243:                                                                                                  #  (SET)                 (RESET)
001244:
001245: ???????     0106               FLGWRD10           =        STATE      +10D                       #  (150-164)
001246:
001247:
001248:                                                                                                  #                        BIT 15 FLAG 10
001249: ???????                        PCMANFLG           =        150D                                  #  P20 MANEUVER          NOT P20 PC
001250:                                                                                                  #  AT PLANE CHANGE       MANEUVER
001251: ???????     4763               PCMANBIT           =        BIT15
001252:
001253:                                                                                                  #                        BIT 14 FLAG 10
001254: ???????                        INTFLAG            =        151D                                  #  INTEGRATION IN        INTEGRATION NOT IN
001255:                                                                                                  #  PROGRESS              PROGRESS
001256:
001257: ???????     4764               INTFLBIT           =        BIT14
001258:
001259:                                                                                                  #                        BIT 13 FLAG 10
001260: ???????                        REINTFLG           =        152D                                  #  INTEGRATION ROUTINE   INTEGRATION ROUTINE
001261:                                                                                                  #  TO BE RESTARTED       NOT TO BE RESTARTED
001262: ???????     4765               REINTBIT           =        BIT13
001263:
001264:                                                                                                  #                        BIT 12 FLAG 10
001265: ???????                        REJCTFLG           =        153D                                  #  MARK TO BE REJECTED   NO MARK REJECT BY
001266:                                                                                                  #  IN R22                R22
001267: ???????     4766               REJCTBIT           =        BIT12
001268:
001269:
001270:                                                                                                  #                        BIT 11 FLAG 10
001271: ???????                        HDSUPFLG           =        154D
001272: ???????     4767               HDSUPBIT           =        BIT11                                 #  HEADS UP ATTITUDE     HEADS DOWN ATTITUDE
001273:
001274:
001275:                                                                                                  #                        BIT 10 FLAG 10
001276:                                                                                                  #                =       155D
001277:
001278:                                                                                                  #                        BIT 9 FLAG 10
001279: ???????                        EXTRANGE           =        156D                                  #  R63 RANGE VALID       R63 RANGE MEANINGLESS
001280: ???????     4771               EXTRBIT            =        BIT9
001281:
001282:                                                                                                  #                        BIT 8 FLAG 10
001283: ???????                        P35FLAG            =        157D                                  #  MCC TARGETING DONE    NOT YET MCC
001284: ???????     4772               P35BIT             =        BIT8
001285:
001286:                                                                                                  #                        BIT 7 FLAG 10
001287: ???????                        AUTOSEQ            =        158D                                  #  AUTOMATIC RENDEZVOUS  AUTOMATIC RENDEZ-
001288:
001289:                                                                                                  #  SEQUENCE IS RUNNING   VOUS NOT RUNNING
001290: ???????     4773               AUTSQBIT           =        BIT7
001291:
001292:                                                                                                  #                        BIT 6 FLAG 10
001293: ???????                        TCOMPFLG           =        159D                                  #  - THEN + TORQUE       + THEN - TORQUE
001294:
001295: ???????     4774               TCOMPBIT           =        BIT6
001296:
001297:                                                                                                  #                        BIT 5 FLAG 10
001298: ???????                        MANEUFLG           =        160D                                  #  MANEUVER,P76,         MARK INCORPORATED
001299:                                                                                                  #  OR PLANNED MANEUVER
001300: ???????     4775               MANEUBIT           =        BIT5
001301:
001302:                                                                                                  #                        BIT 4 FLAG 10
001303: ???????                        PTV93FLG           =        161D                                  #  V93 TO BE DONE        MANEUVER AND
001304:                                                                                                  #  AFTER MANEUVER        V93 DONE
001305: ???????     4776               PTV93BIT           =        BIT4
001306:
001307:                                                                                                  #                        BIT 3 FLAG 10
001308: ???????                        TPIMNFLG           =        162D                                  #  TPI MANEUVER HAS
001309:                                                                                                  #  BEEN DONE
001310: ???????     4777               TPIMNBIT           =        BIT3
001311:
001312:                                                                                                  #                        BIT 2 FLAG 10
001313: ???????                        FULTKFLG           =        163D                                  #  ONLY OPTICS OR VHF    OPTICS AND VHF
001314:                                                                                                  #  MARKS BEING TAKEN     MARKS TAKEN
001315: ???????     5000               FULTKBIT           =        BIT2
001316:
001317:                                                                                                  #                        BIT 1 FLAG 10
001318: ???????                        PCFLAG             =        164D                                  #  PLANE CHANGE          NOT PLANE CHANGE
001319:                                                                                                  #  TARGETTING
001320: ???????     5001               PCBIT              =        BIT1
001321: ???????     0107               FLGWRD11           =        STATE      +11D                       #  (165-179)
001322:
001323:                                                                                                  #  (SET)                 (RESET)
001324:
001325:                                                                                                  #                        BIT 15 FLAG 11
001326:                                                                                                  #                =       165D
001327:
001328:                                                                                                  #                        BIT 14 FLAG 11
001329:                                                                                                  #                =       166D
001330:
001331:                                                                                                  #                        BIT 13 FLAG 11
001332:                                                                                                  #                =       167D
001333:
001334:                                                                                                  #                        BIT 12 FLAG 11
001335: ???????                        R27FLAG            =        168D                                  #  ALLOW R27 IN P20      INHIBIT R27 IN P20
001336:
001337: ???????     4766               R27BIT             =        BIT12
001338:
001339:                                                                                                  #                        BIT 11 FLAG 11
001340: ???????                        CYCLFLAG           =        169D                                  #  R27 IS STILL PRO-     R27 READY FOR
001341:                                                                                                  #  CESSING MARK          A NEW MARK
001342: ???????     4767               CYCLFBIT           =        BIT11
001343:
001344:                                                                                                  #                        BIT 10 FLAG 11
001345: ???????                        NOUNFLG            =        170D                                  #  DISPLAY NOUN 77       DISPLAY NOUN 76
001346:
001347: ???????     4770               NOUNBIT            =        BIT10
001348:
001349:                                                                                                  #                        BIT 9 FLAG 11
001350: ???????                        N77FLAG            =        171D                                  #  NOUN 77 HOLDS         ALLOW CURRENT
001351:                                                                                                  #  OPTIMIZED RDOT        STATE TO BE STORED
001352: ???????     4771               N77FBIT            =        BIT9                                  #                        IN NOUN 77
001353:
001354:                                                                                                  #                        BIT 8 FLAG 11
001355: ???????                        AZIMFLAG           =        172D                                  #  3-AXIS UT             VECPOINT UT
001356: ???????     4772               AZIMBIT            =        BIT8
001357:
001358:                                                                                                  #                        BIT 7 FLAG 11
001359: ???????                        FIXFLAG            =        173D                                  #  R27 IN OPTIMIZING     R27 IN CURRENT MODE
001360: ???????     4773               FIXFBIT            =        BIT7                                  #  MODE PROGRAM
001361:
001362:                                                                                                  #                        BIT 6 FLAG 11
001363: ???????                        SNAPFLAG           =        174D                                  #  INHIBIT R22 MARK      ALLOW R22 MARK
001364:                                                                                                  #  PROCESSING            PROCESSING
001365: ???????     4774               SNAPBIT            =        BIT6
001366:
001367:                                                                                                  #                        BIT 5 FLAG 11
001368: ???????                        P48FLAG            =        175D                                  #  PROGRAM IS P48        NOT P48
001369:
001370: ???????     4775               P48BIT             =        BIT5
001371:
001372:                                                                                                  #                        BIT 4 FLAG 11
001373: ???????                        P25FLAG            =        176D                                  #  PROGRAM IS P25        NOT P25
001374:
001375: ???????     4776               P25BIT             =        BIT4
001376:
001377:                                                                                                  #                        BIT 3 FLAG 11
001378: ???????                        TDFLAG             =        177D                                  #  TD ANGLE IN R27 HAS   ANGLE HAS NOT YET
001379:                                                                                                  #  BEEN COMPUTED         BEEN COMPUTED
001380: ???????     4777               TDFLGBIT           =        BIT3
001381:
001382:                                                                                                  #                        BIT 2 FLAG 11
001383: ???????                        R27UP2             =        178D                                  #  2ND PASS IN R27       2ND PASS NOT
001384:                                                                                                  #  COMPLETE              COMPLETE
001385: ???????     5000               R27UP2BT           =        BIT2
001386:
001387:                                                                                                  #                        BIT 1 FLAG 11
001388: ???????                        R27UP1             =        179D                                  #  1ST PASS IN R27       1ST PASS NOT
001389:                                                                                                  #  COMPLETE              COMPLETE
001390: ???????     5001               R27UP1BT           =        BIT1
001391:
001392:                                                                                                  #  GENERAL ERASABLE ASSIGNMENTS.
001393:
001394:    0061                                           SETLOC   61
001395:                                                                                                  #        INTERRUPT TEMPORARY STORAGE POOL.  (11D)
001396:                                                                                                  #          (ITEMP1 THROUGH RUPTREG4)
001397:
001398:                                                                                                  #        ANY OF THESE MAY BE USED AS TEMPORARIES DURING INTERRUPT OR WITH INTERRUPT INHIBITED. THE ITEMP SERIES
001399:                                                                                                  #  IS USED DURING CALLS TO THE EXECUTIVE AND WAITLIST - THE RUPTREGS ARE NOT.
001400:
001401:    0061                        ITEMP1             ERASE
001402:    0062     0061               WAITEXIT           EQUALS   ITEMP1
001403:    0062     0061               EXECTEM1           EQUALS   ITEMP1
001404:
001405:    0062                        ITEMP2             ERASE
001406:    0063     0062               WAITBANK           EQUALS   ITEMP2
001407:    0063     0062               EXECTEM2           EQUALS   ITEMP2
001408:
001409:    0063                        ITEMP3             ERASE
001410:    0064     0063               WAITADR            EQUALS   ITEMP3
001411:    0064     0063               NEWPRIO            EQUALS   ITEMP3
001412:
001413:    0064                        ITEMP4             ERASE
001414:    0065     0064               LOCCTR             EQUALS   ITEMP4
001415:    0065     0064               WAITTEMP           EQUALS   ITEMP4
001416:
001417:    0065                        ITEMP5             ERASE
001418:    0066     0065               NEWLOC             EQUALS   ITEMP5
001419:
001420:    0066                        ITEMP6             ERASE
001421:                                                                                                  #  NEWLOC+1      EQUALS  ITEMP6          DP ADDRESS.
001422:
001423:    0067                                           SETLOC   67
001424:    0067                        NEWJOB             ERASE                                          #  MUST BE AT LOC 67 DUE TO WIRING.
001425:
001426:    0070                        RUPTREG1           ERASE
001427:    0071                        RUPTREG2           ERASE
001428:    0072                        RUPTREG3           ERASE
001429:    0073                        RUPTREG4           ERASE
001430:    0074     0073               KEYTEMP1           EQUALS   RUPTREG4
001431:    0074     0073               DSRUPTEM           EQUALS   RUPTREG4
001432:
001433:                                                                                                  #        FLAGWORD RESERVATIONS.                                          (12D)
001434:
001435:    0074                        STATE              ERASE    +11D
001436:
001437:                                                                                                  #        UNSWITCHED DAP ERASABLE.                                        (4D)
001438:    0110                        T6LOC              ERASE
001439:    0111                        T6ADR              ERASE
001440:    0112                        T5LOC              ERASE    +1
001441:
001442:
001443:                                                                                                  #        EXEC TEMPORARIES WHICH MAY BE USED BETWEEN CCS NEWJOBS.
001444:                                                                                                  #        (INTB15+ THROUGH RUPTMXM)                                       (32D)
001445:
001446:    0114                        INTB15+            ERASE                                          #  REFLECTS 15TH BIT OF INDEXABLE ADDRESSES
001447:    0115     0114               DSEXIT             EQUALS   INTB15+                               #  RETURN FOR DSPIN
001448:    0115     0114               EXITEM             EQUALS   INTB15+                               #  RETURN FOR SCALE FACTOR ROUTINE SELECT
001449:    0115                        INTBIT15           ERASE                                          #  SIMILAR TO ABOVE.
001450:    0116     0115               WDRET              EQUALS   INTBIT15                              #  RETURN FOR DSPWD
001451:    0116     0115               DECRET             EQUALS   INTBIT15                              #  RETURN FOR PUTCOM(DEC LOAD)
001452:    0116     0115               21/22REG           EQUALS   INTBIT15                              #  TEMP FOR CHARIN
001453:
001454:                                                                                                  #  THE REGISTERS BETWEEN ADDRWD AND PRIORITY MUST STAY IN THE FOLLOWING ORDER FOR INTERPRETIVE TRACE.
001455:
001456:    0116                        ADDRWD             ERASE                                          #  12 BIT INTERPRETIVE OPERAND SUB-ADDRESS.
001457:    0117                        POLISH             ERASE                                          #  HOLDS CADR MADE FROM POLISH ADDRESS.
001458:    0120     0117               UPDATRET           EQUALS   POLISH                                #  RETURN FOR UPDATNN, UPDATVB
001459:    0120     0117               CHAR               EQUALS   POLISH                                #  TEMP FOR CHARIN
001460:    0120     0117               ERCNT              EQUALS   POLISH                                #  COUNTER FOR ERROR LIGHT RESET
001461:    0120     0117               DECOUNT            EQUALS   POLISH                                #  COUNTER FOR SCALING AND DISPLAY (DEC)
001462:
001463:    0120                        FIXLOC             ERASE                                          #  WORK AREA ADDRESS.
001464:    0121                        OVFIND             ERASE                                          #  SET NON-ZERO ON OVERFLOW.
001465:
001466:    0122                        VBUF               ERASE    +5                                    #  TEMPORARY STORAGE USED FOR VECTORS.
001467:    0130     0122               SGNON              EQUALS   VBUF                                  #  TEMP FOR +,- ON
001468:    0130     0122               NOUNTEM            EQUALS   VBUF                                  #  COUNTER FOR MIXNOUN FETCH
001469:    0130     0122               DISTEM             EQUALS   VBUF                                  #  COUNTER FOR OCTAL DISPLAY VERBS
001470:    0130     0122               DECTEM             EQUALS   VBUF                                  #  COUNTER FOR FETCH (DEC DISPLAY VERBS)
001471:
001472:    0130     0123               SGNOFF             EQUALS   VBUF       +1                         #  TEMP FOR +,- ON
001473:    0130     0123               NVTEMP             EQUALS   VBUF       +1                         #  TEMP FOR NVSUB
001474:    0130     0123               SFTEMP1            EQUALS   VBUF       +1                         #  STORAGE FOR SF CONST HI PART(=SFTEMP2-1)
001475:    0130     0123               HITEMIN            EQUALS   VBUF       +1                         #  TEMP FOR LOAD OF HRS, MIN, SEC
001476:                                                                                                  #        MUST = LOTEMIN-1.
001477:    0130     0124               CODE               EQUALS   VBUF       +2                         #  FOR DSPIN
001478:    0130     0124               SFTEMP2            EQUALS   VBUF       +2                         #  STORAGE FOR SF CONST LO PART(=SFTEMP1+1)
001479:    0130     0124               LOTEMIN            EQUALS   VBUF       +2                         #  TEMP FOR LOAD OF HRS, MIN, SEC
001480:                                                                                                  #        MUST = HITEMIN+1.
001481:    0130     0125               MIXTEMP            EQUALS   VBUF       +3                         #  FOR MIXNOUN DATA
001482:                                                                                                  #  ALSO MIXTEMP+1 = VBUF+4, MIXTEMP+2 = VBUF+5.
001483:
001484:    0130                        BUF                ERASE    +2                                    #  TEMPORARY SCALAR STORAGE.
001485:    0133                        BUF2               ERASE    +1
001486:    0135     0130               INDEXLOC           EQUALS   BUF                                   #  CONTAINS ADDRESS OF SPECIFIED INDEX.
001487:    0135     0130               SWWORD             EQUALS   BUF                                   #  ADDRESS OF SWITCH WORD.
001488:    0135     0131               SWBIT              EQUALS   BUF        +1                         #  SWITCH BIT WITHIN SWITCH WORD.
001489:    0135                        MPTEMP             ERASE                                          #  TEMPORARY USED IN MULTIPLY AND SHIFT.
001490:    0136                        DOTINC             ERASE                                          #  COMPONENT INCREMENT FOR DOT SUBROUTINE.
001491:    0137     0136               DVSIGN             EQUALS   DOTINC                                #  DETERMINES SIGN OF DDV RESULT.
001492:    0137     0136               ESCAPE             EQUALS   DOTINC                                #  USED IN ARCSIN/ARCCOS.
001493:    0137     0136               ENTRET             EQUALS   DOTINC                                #  EXIT FROM ENTER
001494:
001495:    0137     0136               ENTEXIT            =        ENTRET
001496:
001497:    0137                        DOTRET             ERASE                                          #  RETURN FROM DOT SUBROUTINE.
001498:    0140     0137               DVNORMCT           EQUALS   DOTRET                                #  DIVIDEND NORMALIZATION COUNT IN DDV.
001499:    0140     0137               ESCAPE2            EQUALS   DOTRET                                #  ALTERNATE ARCSIN/ARCCOS SWITCH.
001500:    0140     0137               WDCNT              EQUALS   DOTRET                                #  CHAR COUNTER FOR DSPWD
001501:    0140     0137               INREL              EQUALS   DOTRET                                #  INPUT BUFFER SELECTOR ( X,Y,Z, REG )
001502:
001503:    0140                        MATINC             ERASE                                          #  VECTOR INCREMENT IN MXV AND VXM.
001504:    0141     0140               MAXDVSW            EQUALS   MATINC                                #  +0 IF DP QUOTIENT IS NEAR ONE - ELSE -1.
001505:    0141     0140               POLYCNT            EQUALS   MATINC                                #  POLYNOMIAL LOOP COUNTER
001506:    0141     0140               DSPMMTEM           EQUALS   MATINC                                #  DSPCOUNT SAVE FOR DSPMM
001507:    0141     0140               MIXBR              EQUALS   MATINC                                #  INDICATOR FOR MIXED OR NORMAL NOUN
001508:
001509:    0141                        TEM1               ERASE                                          #  EXEC TEMP
001510:    0142     0141               POLYRET            EQUALS   TEM1
001511:    0142     0141               DSREL              EQUALS   TEM1                                  #  REL ADDRESS FOR DSPIN
001512:
001513:    0142                        TEM2               ERASE                                          #  EXEC TEMP
001514:    0143     0142               DSMAG              EQUALS   TEM2                                  #  MAGNITUDE STORE FOR DSPIN
001515:    0143                        TEM3               ERASE                                          #  EXEC TEMP
001516:    0144     0143               COUNT              EQUALS   TEM3                                  #  FOR DSPIN
001517:
001518:    0144                        TEM4               ERASE                                          #  EXEC TEMP
001519:    0145     0144               RELRET             EQUALS   TEM4                                  #  RETURN FOR RELDSP
001520:    0145     0144               DSPWDRET           EQUALS   TEM4                                  #  RETURN FOR DSPSIGN
001521:    0145     0144               SEPSCRET           EQUALS   TEM4                                  #  RETURN FOR SEPSEC
001522:    0145     0144               SEPMNRET           EQUALS   TEM4                                  #  RETURN FOR SEPMIN
001523:
001524:    0145                        TEM5               ERASE                                          #  EXEC TEMP
001525:    0146     0145               NOUNADD            EQUALS   TEM5                                  #  TEMP STORAGE FOR NOUN ADDRESS
001526:
001527:    0146                        NNADTEM            ERASE                                          #  TEMP FOR NOUN ADDRESS TABLE ENTRY
001528:    0147                        NNTYPTEM           ERASE                                          #  TEMP FOR NOUN TYPE TABLE ENTRY
001529:    0150                        IDAD1TEM           ERASE                                          #  TEMP FOR INDIR ADRESS TABLE ENTRY(MIXNN)
001530:                                                                                                  #  MUST = IDAD2TEM-1, = IDAD3TEM-2.
001531:    0151                        IDAD2TEM           ERASE                                          #  TEMP FOR INDIR ADRESS TABLE ENTRY(MIXNN)
001532:                                                                                                  #  MUST = IDAD1TEM+1, = IDAD3TEM-1.
001533:    0152                        IDAD3TEM           ERASE                                          #  TEMP FOR INDIR ADRESS TABLE ENTRY(MIXNN)
001534:                                                                                                  #  MUST = IDAD1TEM+2, = IDAD2TEM+1.
001535:    0153                        RUTMXTEM           ERASE                                          #  TEMP FOR SF ROUT TABLE ENTRY(MIXNN ONLY)
001536:
001537:                                                                                                  #        AX*SR*T STORAGE.                                                (6D)
001538:    0154     0142               DEXDEX             EQUALS   TEM2                                  #  B(1)TMP
001539:    0154     0143               DEX1               EQUALS   TEM3                                  #  B(1)TMP
001540:    0154     0144               DEX2               EQUALS   TEM4                                  #  B(1)TMP
001541:    0154     0145               RTNSAVER           EQUALS   TEM5                                  #  B(1)TMP
001542:    0154     0133               TERM1TMP           EQUALS   BUF2                                  #  B(2)TMP
001543:
001544:    0154     0143               DEXI               =        DEX1
001545:
001546:                                                                                                  #        DYNAMICALLY ALLOCATED CORE SETS FOR JOBS.                       (84D)
001547:
001548:    0154                        MPAC               ERASE    +6                                    #  MULTI-PURPOSE ACCUMULATOR.
001549:    0163                        MODE               ERASE                                          #  +1 FOR TP, +0 FOR DP, OR -1 FOR VECTOR.
001550:    0164                        LOC                ERASE                                          #  LOCATION ASSOCIATED WITH JOB.
001551:    0165                        BANKSET            ERASE                                          #  USUALLY CONTAINS BBANK SETTING.
001552:    0166                        PUSHLOC            ERASE                                          #  WORD OF PACKED INTERPRETIVE PARAMETERS.
001553:    0167                        PRIORITY           ERASE                                          #  PRIORITY OF PRESENT JOB AND WORK AREA.
001554:
001555:    0170                                           ERASE    +71D                                  #  SEVEN SETS OF 12 REGISTERS EACH.
001556:
001557:                                                                                                  #        SPECIAL DOWNLINK BUFFER.-OVERLAYED BY P27 STORAGE-
001558:
001559:                                                                                                  #        P27(UPDATE PROGRAM) STORAGE. -OVERLAYS SPEC DNLNK BUFF-         (24D)
001560:
001561:    0300                        COMPNUMB           ERASE    +23D                                  #  B(1)TMP NUMBER OF ITEMS TO BE UPLINKED.
001562:    0330     0301               UPOLDMOD           EQUALS   COMPNUMB   +1                         #  B(1)TMP HOLDS INTERRUPTED PROGRAM NUMBER
001563:    0330     0302               UPVERB             EQUALS   UPOLDMOD   +1                         #  B(1)TMP VERB NUMBER
001564:    0330     0303               UPCOUNT            EQUALS   UPVERB     +1                         #  B(1)TMP UPBUFF INDEX
001565:    0330     0304               UPBUFF             EQUALS   UPCOUNT    +1                         #  B(20D)
001566:
001567:                                                                                                  #        MORE P27 STORAGE.                                               (2D)
001568:
001569:    0330                        UPTEMP             ERASE                                          #  B(1)TMP SCRATCH
001570:    0331                        UPVERBSV           ERASE                                          #  B(1)TMP
001571:
001572:
001573:                                                                                                  #        ENTRY DOWNLINK STORAGE
001574:
001575:                                                                                                  #                (20 REGISTERS OF ENTRY DOWNLINK WILL GO HERE.)
001576:
001577:                                                                                                  #                                                        THE FOLLOWING ARE INDEXED FOR TM. IN ENTRY DAP.
001578:
001579:    0332     0304               CMTMTIME           =        UPBUFF                                #  B(1) (VEHICLE BODY RATE INFO IS
001580:    0332     0305               SW/NDX             =        CMTMTIME   +1                         #  B(1)  TELEMETERED EACH 0.2 SEC. DURING
001581:    0332     0324               ENDBUF             =        CMTMTIME   +16D                       #  B(1)  ENTRY.)
001582:
001583:    0332     0325               V1                 =        ENDBUF     +1                         #  I(2) REENTRY, P64-P65
001584:    0332     0327               A0                 =        V1         +2                         #  I(2) REENTRY, P64-P65
001585:                                                                                                  #  HI-ORDER WORD ONLY ON DNLNK.
001586:
001587:                                                                                                  #        ALIGNMENT STORAGE.                                              (5D)
001588:                                                                                                  #        (CANNOT SHARE WITH PRECISION INTEGRATION OR KEPLER STORAGE.)
001589:
001590:    0332     0300               QMAJ               EQUALS   COMPNUMB                              #  B(1)TMP
001591:    0332     0301               MARKINDX           EQUALS   QMAJ       +1                         #  B(1)TMP
001592:    0332     0302               BESTI              EQUALS   MARKINDX   +1                         #  I(1)TMP
001593:    0332     0303               BESTJ              EQUALS   BESTI      +1                         #  I(1)TMP
001594:    0332     0304               STARIND            EQUALS   BESTJ      +1                         #  I(1)TMP
001595:
001596:                                                                                                  #        ALIGNMENT/S40.2,3 COMMON STORAGE.                               (18D)
001597:
001598:    0332     0306               XSMD               EQUALS   UPBUFF     +2                         #  I(6)TMP
001599:    0332     0314               YSMD               EQUALS   XSMD       +6                         #  I(6)TMP
001600:    0332     0322               ZSMD               EQUALS   YSMD       +6                         #  I(6)TMP
001601:
001602:    0332     0306               XSCREF             =        XSMD                                  #        SPACE CRAFT AXES IN REF COORDS.
001603:    0332     0314               YSCREF             =        YSMD
001604:    0332     0322               ZSCREF             =        ZSMD
001605:
001606:
001607:                                                                                                  #        ALIGNMENT TEMPS IN VAC
001608:
001609:    0332                        ZPRIME             =        22D
001610:    0332                        PDA                =        22D
001611:    0332                        COSTH              =        16D
001612:    0332                        SINTH              =        18D
001613:    0332                        THETA              =        20D
001614:    0332                        STARM              =        32D
001615:
001616:                                                                                                  #  R52 AUTO-OPTICS (1)
001617:
001618:    0332     0330               PACTEMP            EQUALS   ZSMD       +6D                        #  B(1)TMP
001619:
001620:                                                                                                  #        DOWNLINK STORAGE.                                               (17D)
001621:
001622:    0332     0332               DNLSTADR           EQUALS   DNLSTCOD                              #  CONTENTS NO LONGER AN ADDR BUT A CODE
001623:
001624:    0332                        DNLSTCOD           ERASE                                          #  B(1)PRM ID CODE OF DOWNLIST
001625:    0333                        CTLIST             ERASE
001626:    0334                        DNTMGOTO           ERASE                                          #  B(1)
001627:    0335                        TMINDEX            ERASE                                          #  B(1)
001628:    0336     0335               DNECADR            EQUALS   TMINDEX                               #  B(1) ADDRESS OF CURRENT DNLST WORD
001629:    0336     0335               DUMPLOC            EQUALS   TMINDEX                               #  CONTAINS ECADR OF AGC DP WORD BEING DUMP
001630:                                                                                                  #  ED AND COUNT OF COMPLETE DUMPS ALREADY S
001631:                                                                                                  #  ENT.
001632:    0336                        SUBLIST            ERASE                                          #  B(1)
001633:    0337                        DNTMBUFF           ERASE    +11D                                  #  B(12) PRM DOWNLINK SNAPSHOT BUFFER
001634:
001635:
001636:
001637:                                                                                                  #        OPTICS MARKING . UNSHARED.                                      (8D)
001638:
001639:    0353                        MKNDX              ERASE
001640:    0354                        MKT2T1             ERASE    +1
001641:    0356                        MKCDUY             ERASE
001642:    0357                        MKCDUS             ERASE
001643:    0360                        MKCDUZ             ERASE
001644:    0361                        MKCDUT             ERASE
001645:    0362                        MKCDUX             ERASE
001646:
001647:
001648:                                                                                                  #        VHF RADAR STORAGE                                               (1D)
001649:
001650:    0363                        RREADRET           ERASE                                          #  B(1)
001651:
001652:
001653:                                                                                                  #        UNSWITCHED FOR DISPLAY INTERFACE ROUTINES.                      (7D)
001654:
001655:    0364                        RESTREG            ERASE                                          #  B(1)PRM FOR DISPLAY RESTARTS
001656:    0365                        NVWORD             ERASE
001657:    0366                        MARKNV             ERASE
001658:    0367                        NVSAVE             ERASE                                          #   PURPOSES)
001659:    0370                        CADRFLSH           ERASE                                          #  B(1)TMP
001660:    0371                        CADRMARK           ERASE                                          #  B(1)TMP
001661:    0372                        TEMPFLSH           ERASE                                          #  B(1)TMP
001662:
001663:
001664:                                                                                                  #  CHANNEL FAIL REGISTER                                                 (1D)
001665:
001666:    0373                        C31FLWRD           ERASE                                          #  B(1)PRM
001667:
001668:
001669:                                                                                                  #  C31FLWRD HAS THE FOLLOWING OCTAL FORMAT AXXBX WHERE A + B HAVE THE FOLLOWING INTERPRETATION. IF THE ASTRONAUT
001670:                                                                                                  #  DESIRES TO BYPASS THE CHANNEL REPRESENTATION, HE SHOULD LOAD C31FLWRD   VIA V21 N01 TO THE VALUES SHOWN IN THE
001671:                                                                                                  #  FOLLOWING TABLES:
001672:
001673:                                                                                                  #     A VALUE      MEANING FOR CHANNEL 31                                     B VALUE      MEANING FOR CHANNEL 33
001674:
001675:                                                                                                  #     0 OR 4       BITS 15,14, + 13 OF CHANNEL 31 ARE VALID                   0 OR 4       BITS 4 + 5 OF CHANNEL 33
001676:                                                                                                  #     1            G&N CONTROL FREE                                           1 OR 5       OPTICS MODE CMC
001677:                                                                                                  #     2            G&N CONTROL ATT. HOLD                                      2 OR 6       OPTICS MODE ZERO
001678:                                                                                                  #     3            G&N CONTROL AUTO                                           3 OR 7       OPTICS MODE MANUAL
001679:                                                                                                  #     5            SCS CONTROL FREE
001680:                                                                                                  #     6            SCS CONTROL ATT. HOLD
001681:                                                                                                  #     7            SCS CONTROL AUTO
001682:
001683:
001684:                                                                                                  #  ALARM REGISTERS                                                       (3D)
001685:
001686:    0374                        FAILREG            ERASE    +2                                    #  B(3)PRM ALARM ABORT CODES
001687:
001688:
001689:                                                                                                  #        R27 STORAGE                                                     (1D)


001691:    0377                        PHIEXIT            ERASE                                          #  B(1) RETURN
001692:
001693:    0400                                           SETLOC   400
001694:                                                                                                  #  VAC AREAS. -BE CAREFUL OF PLACEMENT-                                  (220D)
001695:
001696:    0400                        VAC1USE            ERASE                                          #  B(1)PRM
001697:    0401                        VAC1               ERASE    +42D                                  #  B(43)PRM
001698:    0454                        VAC2USE            ERASE                                          #  B(1)PRM
001699:    0455                        VAC2               ERASE    +42D                                  #  B(43)PRM
001700:    0530                        VAC3USE            ERASE                                          #  B(1)PRM
001701:    0531                        VAC3               ERASE    +42D                                  #  B(43)PRM
001702:    0604                        VAC4USE            ERASE                                          #  B(1)PRM
001703:    0605                        VAC4               ERASE    +42D                                  #  B(43)PRM
001704:    0660                        VAC5USE            ERASE                                          #  B(1)PRM
001705:    0661                        VAC5               ERASE    +42D                                  #  B(43)PRM
001706:
001707:
001708:                                                                                                  #        TEMP STORAGE FOR RESTARTS ROUTINE -- STARTS AT VAC5 + 19D
001709:
001710:    0734     0705               GOLOC              EQUALS   VAC5       +20D                       #  B(4) GOLOC -1 THRU GOLOC +2 USED
001711:                                                                                                  #     TO SET EXEC AND WTLST CALL
001712:
001713:                                                                                                  #        V82, V90 STORAGE        (1D)
001714:
001715:    0734                        VEHRET             ERASE
001716:
001717:                                                                                                  #        SINGLE PRECISION SUBROUTINE TEMPORARIES.                        (2D)
001718:
001719:                                                                                                  #                                                                        SPSIN, SPCOS VARIABLES
001720:
001721:                                                                                                  #                                                                DO NOT SHARE. THESE ARE USED BY DAPS IN INTERRUPT
001722:                                                                                                  #                                                                AND CURRENTLY ARE NOT PROTECTED. IF OTHER USERS
001723:                                                                                                  #                                                                MATERIALIZE, THEN THIS CAN BE CHANGED.
001724:
001725:    0735                        TEMK               ERASE
001726:    0736                        SQ                 ERASE
001727:
001728:                                                                                                  #        UNSWITCHED FOR ORBIT INTEGRATION.                               (21D)
001729:
001730:    0737                        TDEC               ERASE    +20D                                  #  I(2)
001731:    0764     0741               LAT                EQUALS   TDEC       +2                         #  I(2)DSP NOUN 43,67 FOR P20,22,51,R52,53.
001732:    0764     0741               LANDLAT            =        LAT                                   #          NOUN 89    FOR P22.
001733:    0764     0743               LONG               EQUALS   LAT        +2                         #  I(2)DSP NOUN 43,67 FOR P20,22,51 R52,53.
001734:    0764     0745               ALT                EQUALS   LONG       +2                         #  I(2)DSP NOUN 43    FOR P20,22,51 R52,53.
001735:    0764     0747               YV                 EQUALS   ALT        +2                         #  I(6)
001736:    0764     0755               ZV                 EQUALS   YV         +6                         #  I(6)
001737:    0764     0763               COLREG             EQUALS   ZV         +6                         #  I(1)
001738:
001739:
001740:
001741:                                                                                                  #        MARK STORAGE.                                                   (2)
001742:
001743:    0764                        VHFCNT             ERASE                                          #  B(1) PRM NO. OF VHF MARKS(P20(R22)).
001744:    0765                        TRKMKCNT           ERASE                                          #  B(1) PRM NO. OF VHF MARKS (P20(R22)).
001745:
001746:                                                                                                  #        MISCELLANEOUS UNSWITCHED.                                       (15D)
001747:
001748:    0766                        IRETURN1           ERASE                                          #  B(1)  RET ADDR USED BY MIDTOAV1 AND 2
001749:                                                                                                  #  CALLED BY P40,P41,P42,  P61,P62
001750:    0767                        RATEINDX           ERASE                                          #   (1)    USED BY KALCMANU
001751:    0770                        OPTION1            ERASE                                          #  B(1)   NOUN 06 USES THIS
001752:    0771                        OPTION2            ERASE                                          #  B(1)   NOUN 06 USES THIS
001753:    0772                        NVWORD1            ERASE                                          #  B(1)
001754:    0773                        DELAYLOC           ERASE    +3
001755:    0777                        TEMPR60            ERASE                                          #  B(1)
001756:    1000                        PRIOTIME           ERASE                                          #  B(1)
001757:    1001                        TIME2SAV           ERASE    +1                                    #  B(2)TMP
001758:    1003                        SCALSAVE           ERASE    +1                                    #  B(2)TMP
001759:                                                                                                  #        P20, CONICS   (SHARING WITH TIME 2 SAVE AND SCAL SAV ONLY)      (3D)
001760:
001761:    1005     1001               POINTEX            EQUALS   TIME2SAV                              #  I(1) POINT AXS EXIT
001762:    1005     1002               VHFTIME            EQUALS   POINTEX    +1                         #  I(2) DOWNLINK OF VHF RANGE TIME +1M
001763:
001764:
001765:
001766:                                                                                                  #        MINKEY RENDEZVOUS                                               (1D)
001767:
001768:    1005                        AUTPOINT           ERASE                                          #  B(1) CONTROLLER RETURN
001769:
001770:
001771:                                                                                                  #        CRS61.1 STORAGE.  -USED IN R63 (VERB 89)-                       (3D)
001772:
001773:    1006                        CPHIX              ERASE    +2                                    #  B(3)DSP NOUN 95 CALCULATED BY CRS61.1
001774:
001775:                                                                                                  #        P34-P35 STORAGE                                                 (1D)
001776:    1011                        NORMEX             ERASE
001777:
001778:
001779:
001780:                                                                                                  #        KEPLER STORAGE                                                  (2D)
001781:
001782:    1012                        EPSILONT           ERASE    +1                                    #  I(2) TMP
001783:
001784:
001785:                                                                                                  #  DOWNLINK TIME OF EVENT
001786:
001787:    1014                        TEVENT             ERASE    +1                                    #  B(2)     TIME OF EVENT FOR DOWNLIST
001788:    1016     1014               TLIFTOFF           =        TEVENT
001789:
001790:
001791:
001792:                                                                                                  #        NOUN 26 ERASABLES                                               (3D)
001793:
001794:    1016                        N26/PRI            ERASE                                          #  B(1D)  PRIO/TIME DELAY
001795:    1017                        N26/2CAD           ERASE    +1                                    #  B(2D)  2CADR OF JOB/TASK
001796:
001797:
001798:
001799:                                                                                                  #        PERM STATE VECTORS FOR BOOST AND DOWNLINK -WHOLE MISSION-       (14D)
001800:
001801:    1021                        RN                 ERASE    +5                                    #  B(6)PRM
001802:    1027                        VN                 ERASE    +5                                    #  B(6)PRM
001803:    1035                        PIPTIME            ERASE    +1                                    #  B(2)PRM (MUST BE FOLLOWED BY GDT/2)
001804:
001805:
001806:                                                                                                  #        SERVICER STORAGE.                                               (45D)
001807:
001808:                                                                                                  #        (SERVICER STORAGE AND P11 STORAGE IN UNSWITHCHED SHOULD NOT
001809:                                                                                                  #        OVERLAY EACH OTHER AND THE TOTAL ERASABLE REQUIRED SHOULD NOT
001810:                                                                                                  #        EXCEED THE ERASABLE STORAGE REQUIRED BY RENDEZVOUS GUIDANCE)
001811:
001812:    1037     1037               GDT/2              EQUALS   PIPTIME    +2                         #  B(6)TMP       (MUST FOLLOW PIPTIME)
001813:    1037     1045               GOBL/2             EQUALS   GDT/2      +6                         #  B(6)TMP
001814:    1037     1053               AVEGEXIT           EQUALS   GOBL/2     +6                         #  B(2)TMP
001815:    1037     1053               AVGEXIT            =        AVEGEXIT
001816:    1037     1055               TEMX               EQUALS   AVEGEXIT   +2                         #  B(1)TMP
001817:    1037     1056               TEMY               EQUALS   TEMX       +1                         #  B(1)TMP
001818:    1037     1057               TEMZ               EQUALS   TEMY       +1                         #  B(1)TMP
001819:    1037     1060               PIPCTR             EQUALS   TEMZ       +1                         #  B(1)TMP
001820:    1037     1061               PIPAGE             EQUALS   PIPCTR     +1                         #  B(1)TMP
001821:
001822:
001823:    1037     1062               RN1                EQUALS   PIPAGE     +1                         #  B(6)TMP
001824:    1037     1070               VN1                EQUALS   RN1        +6                         #  B(6)TMP
001825:    1037     1076               PIPTIME1           EQUALS   VN1        +6                         #  B(2)TMP
001826:    1037     1100               GDT1/2             EQUALS   PIPTIME1   +2                         #  B(6)TMP
001827:    1037     1106               GOBL1/2            EQUALS   GDT1/2     +6                         #  B(6)TMP
001828:
001829:                                                                                                  #        ENTRY STORAGE.                                                  (1D)
001830:
001831:    1037     1114               ENTRYVN            EQUALS   GOBL1/2    +6                         #  B(1)TMP VN CODE FOR ENTRY DISPLAYS P60S.
001832:
001833:
001834:
001835:                                                                                                  #        RENDEZVOUS NAVIGATION STORAGE.(SEE COMMENT IN SERVICER STORAGE) (46D)
001836:
001837:    1037                        CSMPOS             ERASE    +45D                                  #  I(6)TMP
001838:    1115     1045               LEMPOS             EQUALS   CSMPOS     +6                         #  I(6)TMP
001839:    1115     1053               UM                 EQUALS   LEMPOS     +6                         #  I(6)TMP
001840:    1115     1061               USTAR              EQUALS   UM         +6                         #  I(6)TMP
001841:    1115     1067               WIXA               EQUALS   USTAR      +6                         #  B(1)TMP
001842:    1115     1070               WIXB               EQUALS   WIXA       +1                         #  B(1)TMP
001843:    1115     1071               ZIXA               EQUALS   WIXB       +1                         #  B(1)TMP
001844:    1115     1072               ZIXB               EQUALS   ZIXA       +1                         #  B(1)TMP
001845:    1115     1073               DELTAX             EQUALS   ZIXB       +1                         #  I(18)TMP
001846:
001847:    1115     1107               UCL                EQUALS   DELTAX     +12D                       #   (6)     LM-CSM LINE OF SIGHT 1/2 UNIT V
001848:
001849:
001850:                                                                                                  #        USED FOR SUMMATION OF UPRUPT DURING PRELAUNCH & SYS TEST LEADIN (3D)
001851:
001852:    1115     1110               UPSUM              EQUALS   UCL        +1                         #  (3)
001853:
001854:
001855:                                                                                                  #        R22 - R27 STORAGE                                               (8D)
001856:    1115                        MARKTIME           ERASE    +1                                    #  B(2) TEMP MUST PRECEDE VTEMP FOR GENTRAN
001857:    1117                        VTEMP              ERASE    +5                                    #  B(6)TMP
001858:
001859:
001860:                                                                                                  #        FOR STALL ROUTINE FOR VHF RADAR
001861:
001862:
001863:    1125     1117               RADTIME            EQUALS   VTEMP                                 #  B(1)
001864:    1125     1120               RADDEL             EQUALS   RADTIME    +1                         #  B(1)
001865:    1125     1121               VHFRANGE           EQUALS   RADDEL     +1                         #   (2)
001866:
001867:
001868:                                                                                                  #        P11 STORAGE.                                                    (9D)
001869:
001870:    1125     1115               LIFTTEMP           EQUALS   MARKTIME                              #  (2)TMP
001871:    1125     1117               TEPHEM1            EQUALS   LIFTTEMP   +2                         #   (3)TMP
001872:    1125     1122               PGNCSALT           EQUALS   TEPHEM1    +3                         #   (2)PL  ALTITUDE
001873:    1125     1124               PADLONG            EQUALS   PGNCSALT   +2                         #  (2)PL LONGITUDE F LAUNCH PAD
001874:
001875:
001876:                                                                                                  #     **** CONICSEX (MEAS INC) ****                                      (6D)
001877:
001878:    1125     1073               TRIPA              EQUALS   DELTAX
001879:    1125     1076               TEMPVAR            EQUALS   DELTAX     +3
001880:
001881:
001882:
001883:                                                                                                  #        P20-P22 PROCESSING STORAGE                                      (2D)
001884:
001885:    1125                        TEMPOR1            ERASE    +1                                    #  B(2)TMP
001886:
001887:
001888:                                                                                                  #        WAITLIST REPEAT FLAG.                                           (1D)
001889:
001890:    1127                        RUPTAGN            ERASE                                          #  B(1)PRM
001891:    1130     1127               KEYTEMP2           =        RUPTAGN
001892:
001893:
001894:                                                                                                  #        STARALIGN ERASABLES.                                            (13D)
001895:
001896:    1130                        STARCODE           ERASE                                          #  B(1)DSP NOUN 70 FOR P22,51 AND R52,53.
001897:    1131                        STARALGN           ERASE    +11D
001898:    1145     1131               SINCDU             =        STARALGN
001899:    1145     1137               COSCDU             =        STARALGN   +6
001900:
001901:    1145     1135               SINCDUX            =        SINCDU     +4
001902:    1145     1131               SINCDUY            =        SINCDU
001903:    1145     1133               SINCDUZ            =        SINCDU     +2
001904:    1145     1143               COSCDUX            =        COSCDU     +4
001905:    1145     1137               COSCDUY            =        COSCDU
001906:    1145     1141               COSCDUZ            =        COSCDU     +2
001907:
001908:
001909:                                                                                                  #        PHASE TABLE AND RESTART COUNTERS.                               (12D)
001910:
001911:    1145                        -PHASE1            ERASE                                          #  B(1)PRM
001912:    1146                        PHASE1             ERASE                                          #  B(1)PRM
001913:    1147                        -PHASE2            ERASE                                          #  B(1)PRM
001914:    1150                        PHASE2             ERASE                                          #  B(1)PRM
001915:    1151                        -PHASE3            ERASE                                          #  B(1)PRM
001916:    1152                        PHASE3             ERASE                                          #  B(1)PRM
001917:    1153                        -PHASE4            ERASE                                          #  B(1)PRM
001918:    1154                        PHASE4             ERASE                                          #  B(1)PRM
001919:    1155                        -PHASE5            ERASE                                          #  B(1)PRM
001920:    1156                        PHASE5             ERASE                                          #  B(1)PRM
001921:    1157                        -PHASE6            ERASE                                          #  B(1)PRM
001922:    1160                        PHASE6             ERASE                                          #  B(1)PRM
001923:
001924:
001925:                                                                                                  #        AX*SR*T STORAGE.                                                (6D)
001926:
001927:    1161                        CDUSPOT            ERASE    +5                                    #  B(6)
001928:
001929:    1167     1161               CDUSPOTY           =        CDUSPOT
001930:    1167     1163               CDUSPOTZ           =        CDUSPOT    +2
001931:    1167     1165               CDUSPOTX           =        CDUSPOT    +4
001932:
001933:
001934:                                                                                                  #        VERB 37 STORAGE.                                                (2D)
001935:
001936:    1167                        MINDEX             ERASE                                          #  B(1)TMP  INDEX FOR MAJOR MODE
001937:    1170                        MMNUMBER           ERASE                                          #  B(1)TMP  MAJOR MODE REQUESTED VIA V37
001938:
001939:
001940:                                                                                                  #        PINBALL INTERRUPT STORAGE.                                      (1D)
001941:
001942:    1171                        DSPCNT             ERASE                                          #  B(1)PRM DSPOUT COUNTER
001943:
001944:
001945:                                                                                                  #        PINBALL EXECUTIVE ACTION.                                       (44D)
001946:
001947:    1172                        DSPCOUNT           ERASE                                          #  DISPLAY POSITION INDICATOR
001948:    1173                        DECBRNCH           ERASE                                          #  +DEC, - DEC, OCT INDICATOR
001949:    1174                        VERBREG            ERASE                                          #  VERB CODE
001950:    1175                        NOUNREG            ERASE                                          #  NOUN CODE
001951:    1176                        XREG               ERASE                                          #  R1 INPUT BUFFER
001952:    1177                        YREG               ERASE                                          #  R2 INPUT BUFFER
001953:    1200                        ZREG               ERASE                                          #  R3 INPUT BUFFER
001954:    1201                        XREGLP             ERASE                                          #  LO PART OF XREG (FOR DEC CONV ONLY)
001955:    1202                        YREGLP             ERASE                                          #  LO PART OF YREG (FOR DEC CONV ONLY)
001956:    1203     1202               HITEMOUT           =        YREGLP                                #  TEMP FOR DISPLAY OF HRS, MIN, SEC
001957:                                                                                                  #        MUST = LOTEMOUT-1.
001958:    1203                        ZREGLP             ERASE                                          #  LO PART OF ZREG (FOR DEC CONV ONLY)
001959:    1204     1203               LOTEMOUT           =        ZREGLP                                #  TEMP FOR DISPLAY OF HRS, MIN, SEC
001960:                                                                                                  #        MUST = HITEMOUT+1.
001961:    1204                        MODREG             ERASE                                          #  MODE CODE
001962:    1205                        DSPLOCK            ERASE                                          #  KEYBOARD/SUBROUTINE CALL INTERLOCK
001963:    1206                        REQRET             ERASE                                          #  RETURN REGISTER FOR LOAD
001964:    1207                        LOADSTAT           ERASE                                          #  STATUS INDICATOR FOR LOADTST
001965:    1210                        CLPASS             ERASE                                          #  PASS INDICATOR CLEAR
001966:    1211                        NOUT               ERASE                                          #  ACTIVITY COUNTER FOR DSPTAB
001967:    1212                        NOUNCADR           ERASE                                          #  MACHINE CADR FOR NOUN
001968:    1213                        MONSAVE            ERASE                                          #  N/V CODE FOR MONITOR. (= MONSAVE1-1)
001969:    1214                        MONSAVE1           ERASE                                          #  NOUNCADR FOR MONITOR(MATBS) =MONSAVE +1
001970:    1215                        MONSAVE2           ERASE                                          #  B(1)PRM NVMONOPT OPTIONS
001971:    1216                        DSPTAB             ERASE    +11D                                  #  0-10D, DISPLAY PANEL BUFF. 11D, C/S LTS.
001972:    1232                        NVQTEM             ERASE                                          #  NVSUB STORAGE FOR CALLING ADDRESS
001973:                                                                                                  #  MUST = NVBNKTEM-1
001974:    1233                        NVBNKTEM           ERASE                                          #  NVSUB STORAGE FOR CALLING BANK
001975:                                                                                                  #  MUST = NVQTEM+1
001976:    1234                        VERBSAVE           ERASE                                          #  NEEDED FOR RECYCLE
001977:    1235                        CADRSTOR           ERASE                                          #  ENDIDLE STORAGE
001978:    1236                        DSPLIST            ERASE                                          #  WAITING REG FOR DSP SYST INTERNAL USE
001979:    1237                        EXTVBACT           ERASE                                          #  EXTENDED VERB ACTIVITY INTERLOCK
001980:    1240                        DSPTEM1            ERASE    +2                                    #  BUFFER STORAGE AREA 1 (MOSTLY FOR TIME)
001981:    1243                        DSPTEM2            ERASE    +2                                    #  BUFFER STORAGE AREA 2 (MOSTLY FOR DEG)
001982:
001983:
001984:    1246     1244               DSPTEMX            EQUALS   DSPTEM2    +1                         #  B(2) S-S DISPLAY BUFFER FOR EXT. VERBS.
001985:    1246     1240               NORMTEM1           EQUALS   DSPTEM1                               #  B(3)DSP NORMAL DISPLAY REGISTERS.
001986:
001987:
001988:
001989:                                                                                                  #        DISPLAY FOR EXTENDED VERBS                                      (2D)
001990:
001991:    1246     1245               OPTIONX            EQUALS   DSPTEMX    +1                         #  B(2) EXT VB OPTION CODE
001992:    1246                        OPTIONEV           ERASE
001993:
001994:
001995:
001996:                                                                                                  #        TBASE S AND PHSPRDT S.                                          (12D)
001997:
001998:    1247                        TBASE1             ERASE                                          #  B(1)PRM
001999:    1250                        PHSPRDT1           ERASE                                          #  B(1)PRM
002000:    1251                        TBASE2             ERASE                                          #  B(1)PRM
002001:    1252                        PHSPRDT2           ERASE                                          #  B(1)PRM
002002:    1253                        TBASE3             ERASE                                          #  B(1)PRM
002003:    1254                        PHSPRDT3           ERASE                                          #  B(1)PRM
002004:    1255                        TBASE4             ERASE                                          #  B(1)PRM
002005:    1256                        PHSPRDT4           ERASE                                          #  B(1)PRM
002006:    1257                        TBASE5             ERASE                                          #  B(1)PRM
002007:    1260                        PHSPRDT5           ERASE                                          #  B(1)PRM
002008:    1261                        TBASE6             ERASE                                          #  B(1)PRM
002009:    1262                        PHSPRDT6           ERASE                                          #  B(1)PRM
002010:
002011:
002012:                                                                                                  #  V37 TEMP STORAGE                                                      (2D)
002013:    1263     1254               MMTEMP             EQUALS   PHSPRDT3                              #  B(1)TMP
002014:    1263     1255               BASETEMP           EQUALS   TBASE4                                #  B(1)TMP
002015:
002016:                                                                                                  #        MORE UNSWITCHED FOR DISPLAY INF                                 (4D)
002017:
002018:    1263                        EBANKSAV           ERASE
002019:    1264     1263               DSPFLG             =        EBANKSAV
002020:    1264                        MARKFLAG           ERASE
002021:    1265                        EBANKTEM           ERASE
002022:    1266                        MARK2PAC           ERASE
002023:
002024:
002025:                                                                                                  #  MISCELLANEOUS UNSWITCHED                                              (19D)
002026:    1267                        1/PIPADT           ERASE                                          #  B(1)PRM
002027:    1270     1267               OLDBT1             =        1/PIPADT
002028:
002029:    1270                        LONGCADR           ERASE    +1                                    #  B(2)    LONGCALL REGISTER
002030:    1272                        LONGBASE           ERASE    +1                                    #  B(2)    LONGCALL REGISTER
002031:    1274                        LONGTIME           ERASE    +1                                    #  B(2)    LONGCALL REGISTER
002032:
002033:
002034:
002035:                                                                                                  #        MISC. INCLUDING RESTART COUNTER, GIMBAL ANGLE  SAVE  AND
002036:                                                                                                  #        STANDBY VERB ERASABLES. REDOCTR BEFORE THETAD (DWNLNK)
002037:
002038:    1276                        REDOCTR            ERASE                                          #  B(1)PRM CONTAINS NUMBER OF RESTARTS.
002039:    1277                        THETAD             ERASE    +2                                    #  B(3)PRM DESIRED GIM ANGLES FOR MANEUVER.
002040:    1302     1277               CPHI               =        THETAD                                #          (OUTER)
002041:    1302     1300               CTHETA             =        THETAD     +1                         #          (INNER)
002042:    1302     1301               CPSI               =        THETAD     +2                         #          (MIDDLE)
002043:
002044:                                                                                                  #        ENTRY VARIABLES SHARED FOR TM.                                  (4D)
002045:
002046:    1302     1277               RDOTREF            =        THETAD                                #  I(2)    P65
002047:    1302     1301               VREF               =        RDOTREF    +2                         #  I(2)    P65   HI-ORDER WORD ONLY DNLNK'D
002048:    1302                        DESOPTT            ERASE                                          #  B(1)DSP NOUN 92 FOR P20,22,52, R52.
002049:    1303                        DESOPTS            ERASE                                          #  B(1)DSP NOUN 92 FOR P20,22,52, R52.
002050:
002051:    1304                        DELV               ERASE    +5                                    #  I(6)
002052:    1312     1304               DELVX              =        DELV
002053:    1312     1306               DELVY              =        DELV       +2
002054:    1312     1310               DELVZ              =        DELV       +4
002055:
002056:
002057:                                                                                                  #        T4RUPT ERASABLE.                                                (6D)
002058:
002059:    1312                        DSRUPTSW           ERASE
002060:    1313                        OPTIND             ERASE
002061:    1314                        LGYRO              ERASE
002062:    1315                        COMMANDO           ERASE    +1
002063:    1317                        ZONE               ERASE                                          #  B(1)PRM USED IN SHAFT STOP MONITOR
002064:
002065:
002066:                                                                                                  #        MODE SWITCHING ERASABLE.                                        (09D)
002067:
002068:    1320                        DESOPMOD           ERASE                                          #  B(1)PRM
002069:    1321                        WTOPTION           ERASE                                          #  B(1)PRM
002070:    1322                        ZOPTCNT            ERASE                                          #  B(1)PRM
002071:
002072:
002073:    1323                        IMODES30           ERASE                                          #  B(1)PRM
002074:    1324     4763               TLIMBIT            =        BIT15                                 #  IMU TEMP NOT          IMU TEMP WITHIN
002075:                                                                                                  #  WITHIN LIMITS         LIMITS
002076:
002077:    1324     4764               TONISSBT           =        BIT14                                 #  ISS OFF               ISS ON
002078:
002079:    1324     4765               IMUFLBIT           =        BIT13                                 #  IMU OK                IMU FAIL IS ON
002080:
002081:    1324     4766               ICDUFLBT           =        BIT12                                 #  IMU CDU OK            IMU CDU FAIL IS ON
002082:
002083:    1324     4767               CAGEBIT            =        BIT11                                 #  IMU CAGE NOT ON       IMU CAGE ON
002084:
002085:    1324     4770               PIPAFLBT           =        BIT10                                 #  PIPA OK               PIPA FAIL IS ON
002086:
002087:    1324     4771               IMUOPBIT           =        BIT9                                  #  IMU OFF OR NOT OK     IMU ON AND OK
002088:
002089:    1324     4772               ITNON2BT           =        BIT8                                  #  IMU TURN ON DELAYED   IMU TURN ON ALLOWED
002090:
002091:    1324     4773               ITNON1BT           =        BIT7                                  #  IMU TURN ON DELAYED   IMU TURN ON ALLOWED
002092:
002093:    1324     4774               IMUNITBT           =        BIT6                                  #  IMU INIT IN PROCESS   IMU NOT BEING INIT.
002094:
002095:    1324     4775               NOACCALM           =        BIT5                                  #  INHIBIT PIPA ALARM    ALLOW PIPA ALARM
002096:
002097:    1324     4776               IMUFINHT           =        BIT4                                  #  INHIBIT IMU WARNING   ALLOW IMU WARNING
002098:
002099:    1324     4777               ICDUINHT           =        BIT3                                  #  INHIBIT CDU WARNING   ALLOW CDU WARNING
002100:
002101:    1324     5000               DLAYFAIL           =        BIT2                                  #  TURNON DELAY FAIL     TURN DELAY OK
002102:
002103:    1324     5001               ACCFINHT           =        BIT1                                  #  INHIBIT PIPA          ALLOW PIPA WARNING
002104:                                                                                                  #          WARNING
002105:
002106:    1324                        IMODES33           ERASE                                          #  B(1)PRM
002107:    1325     4764               PROCDBIT           =        BIT14                                 #  PROCEED OFF           PROCEED ON
002108:
002109:    1325     4765               PIP2FLBT           =        BIT13                                 #  PIPA OK               PIPA FAIL IS ON
002110:
002111:    1325     4766               DNLKFAIL           =        BIT12                                 #  DOWNLINK OK           DOWNLINK FAIL
002112:
002113:    1325     4767               UPLKFAIL           =        BIT11                                 #  UPLINK OK             UPLINK TOO FAST
002114:
002115:    1325     4774               NOIMUDAP           =        BIT6                                  #  DONT USE IMU FOR      OK TO USE IMU FOR
002116:                                                                                                  #   VEHICLE ATTITUDE        VEHICLE ATTITUDE
002117:
002118:    1325     4775               IMUZROBT           =        BIT5                                  #  IMU ZEROING           IMU NOT ZEROING
002119:
002120:    1325     5001               LMPTSTBT           =        BIT1                                  #  LAMP TEST REQUESTED   LAMP TEST NOT ON
002121:
002122:
002123:    1325                        MODECADR           ERASE    +1                                    #  B(2)TMP
002124:    1327     1325               IMUCADR            =        MODECADR
002125:    1327     1326               OPTCADR            =        MODECADR   +1
002126:
002127:    1327                        OPTMODES           ERASE                                          #  B(1)PRM *****MUST PRECEDE HOLDFLAG
002128:                                                                                                  #                FOR DOWNLINK
002129:    1330     4770               ZROPTFIN           =        BIT10                                 #  OPTICS ZERO FINISH    OPTICS BEING ZEROED
002130:
002131:    1330     4773               OCDUFBIT           =        BIT7                                  #  OPTICS CDU OK         OPTICS CDU FAIL
002132:
002133:    1330     4775               OPMD1BIT           =        BIT5                                  #  OPTICS MODE NOT SET   OPTICS MODE SET TO
002134:                                                                                                  #  TO COMPUTER CONTROL     COMPUTER CONTROL
002135:
002136:    1330     4776               OPMD2BIT           =        BIT4                                  #  OPTICS MODE NOT SET   OPTICS MODE SET TO
002137:                                                                                                  #    TO ZERO OPTICS        ZERO OPTICS
002138:
002139:    1330     4777               ZOPTCS             =        BIT3                                  #  OPTICS MODE           OPTICS MODE NOT
002140:                                                                                                  #  SWITCHED TO ZERO      SWITCHED TO ZERO
002141:                                                                                                  #  OPTICS                OPTICS
002142:
002143:    1330     5000               OCDUINHT           =        BIT2                                  #  INHIBIT TRACKER       ALLOW TRACKER ALARM
002144:                                                                                                  #   ALARM
002145:
002146:    1330                        HOLDFLAG           ERASE                                          #  B(1)PRM  **** MUST FOLLOW OPTMODES
002147:                                                                                                  #                FOR DOWNLINK
002148:
002149:
002150:                                                                                                  #        PRELAUNCH ERASABLE PROGRAM ENTRANCE                             (2D)
002151:
002152:    1331                        EBUF2              ERASE    +1                                    #  (2)
002153:
002154:
002155:                                                                                                  #        P20, R27 STORAGE                                                (8D)
002156:    1333                        FIXTIME            ERASE    +1                                    #  B(2)
002157:    1335                        BUFTIME            ERASE    +1                                    #  B(2)
002158:    1337                        TFO                ERASE    +1                                    #  B(2)
002159:    1341                        PHETA              ERASE    +1                                    #  B(2)
002160:
002161:
002162:                                                                                                  #        UNIVERSAL TRACKING STORAGE                                      (3D)
002163:
002164:    1343                        OPTNTYPE           ERASE                                          #  B(1)
002165:    1344                        AZIMANGL           ERASE    +1                                    #  B(2)
002166:
002167:                                                                                                  #        MODE SW. ERASABLE               (1D)
002168:
002169:    1346                        SWSAMPLE           ERASE                                          #  B(1)PRM
002170:
002171:
002172:                                                                                                  #        UT PERMANENT STORAGE                                            (2D)
002173:
002174:    1347                        R67TIME            ERASE    +1                                    #  B(2)
002175:    1351     1347               UTSTARNO           EQUALS   R67TIME                               #  B(1)
002176:
002177:
002178:                                                                                                  #        MINKEY RENDEZVOUS *** (1D)
002179:
002180:    1351     1347               TEMPMM             EQUALS   R67TIME                               #  B(1) MAJOR MODE DURING P20 STARTUP
002181:
002182:
002183:                                                                                                  #        MINKEY CONTROLLER TEMP RESTART STORAGE                          (1D)
002184:
002185:    1351     1350               AUTTEMP            EQUALS   R67TIME    +1                         #  B(1)
002186:
002187:
002188:                                                                                                  #        R27 STORAGE                                                     (5D)
002189:    1351                        CDUSNAPX           ERASE                                          #  B(1)
002190:    1352                        CDUSNAPY           ERASE                                          #  B(1)
002191:    1353                        CDUSNAPZ           ERASE                                          #  B(1)
002192:    1354                        CDUSNAPT           ERASE                                          #  B(1)
002193:    1355                        CDUSNAPS           ERASE                                          #  B(1)
002194:
002195:
002196:                                                                                                  #        ERASABLE FOR SXTMARK CDU CHECK DELAY.  -PAD LOADED-             (1D)
002197:
002198:    1356                        CDUCHKWD           ERASE                                          #  B(1) PL
002199:
002200:
002201:                                                                                                  #        SELF-CHECK ASSIGNMENTS.                                         (17D)
002202:
002203:                                                                                                  #                                (DO NOT MOVE, S-C IS ADDRESS SENSITIVE)
002204:
002205:    1357                        SELFERAS           ERASE    1357       -          1377            #  ***MUST NOT BE MOVED***
002206:    1357     1357               SFAIL              EQUALS   SELFERAS                              #  B(1)
002207:    1357     1360               ERESTORE           EQUALS   SFAIL      +1                         #  B(1)
002208:    1357     1361               SELFRET            EQUALS   ERESTORE   +1                         #  B(1)    RETURN
002209:    1357     1362               SMODE              EQUALS   SELFRET    +1                         #  B(1)
002210:    1357     1363               ALMCADR            EQUALS   SMODE      +1                         #  B(2)     ALARM-ABORT USER'S 2CADR
002211:    1357     1365               ERCOUNT            EQUALS   ALMCADR    +2                         #  B(1)
002212:    1357     1366               SCOUNT             EQUALS   ERCOUNT    +1                         #  B(3)
002213:    1357     1371               SKEEP1             EQUALS   SCOUNT     +3                         #  B(1)
002214:    1357     1372               SKEEP2             EQUALS   SKEEP1     +1                         #  B(1)
002215:    1357     1373               SKEEP3             EQUALS   SKEEP2     +1                         #  B(1)
002216:    1357     1374               SKEEP4             EQUALS   SKEEP3     +1                         #  B(1)
002217:    1357     1375               SKEEP5             EQUALS   SKEEP4     +1                         #  B(1)
002218:    1357     1376               SKEEP6             EQUALS   SKEEP5     +1                         #  B(1)
002219:    1357     1377               SKEEP7             EQUALS   SKEEP6     +1                         #  B(1)
002220:
002221:
002222:
002223:                                                                                                  #        EBANK-3 ASSIGNMENTS
002224:
002225: E3,1400                                           SETLOC   1400
002226:
002227:                                                                                                  #        WAITLIST TASK LISTS.                                            (26D)
002228:
002229: E3,1400                        LST1               ERASE    +7                                    #  B(8D)PRM  DELTA T S.
002230: E3,1410                        LST2               ERASE    +17D                                  #  B(18D)PRM TASK 2CADR ADDRESSES.
002231:
002232:
002233:                                                                                                  #        RESTART STORAGE.                                                (2D)
002234:
002235: E3,1432                        RSBBQ              ERASE    +1                                    #  B(2)PRM SAVE BB AND Q FOR RESTARTS.
002236:
002237:
002238:                                                                                                  #        MORE LONGCALL STORAGE. (MUST BE IN LST1 S BANK).                (2D)
002239:
002240: E3,1434                        LONGEXIT           ERASE    +1                                    #  B(2)TMP MAY BE SELDOM OVERLAYED.
002241:
002242:
002243:                                                                                                  #        PHASE-CHANGE LISTS PART II.                                     (12D)
002244:
002245: E3,1436                        PHSNAME1           ERASE                                          #  B(1)PRM
002246: E3,1437                        PHSBB1             ERASE                                          #  B(1)PRM
002247: E3,1440                        PHSNAME2           ERASE                                          #  B(1)PRM
002248: E3,1441                        PHSBB2             ERASE                                          #  B(1)PRM
002249: E3,1442                        PHSNAME3           ERASE                                          #  B(1)PRM
002250: E3,1443                        PHSBB3             ERASE                                          #  B(1)PRM
002251: E3,1444                        PHSNAME4           ERASE                                          #  B(1)PRM
002252: E3,1445                        PHSBB4             ERASE                                          #  B(1)PRM
002253: E3,1446                        PHSNAME5           ERASE                                          #  B(1)PRM
002254: E3,1447                        PHSBB5             ERASE                                          #  B(1)PRM
002255: E3,1450                        PHSNAME6           ERASE                                          #  B(1)PRM
002256: E3,1451                        PHSBB6             ERASE                                          #  B(1)PRM
002257:
002258:
002259:                                                                                                  #        IMU COMPENSATION PARAMETERS.                                            (22D)
002260:
002261: E3,1452                        PBIASX             ERASE                                          #  B(1)   PIPA BIAS, PIPA SCALE FACTR TERMS
002262: E3,1453  E3,1452               PIPABIAS           =        PBIASX                                #      INTERMIXED.
002263: E3,1453                        PIPASCFX           ERASE
002264: E3,1454  E3,1453               PIPASCF            =        PIPASCFX
002265: E3,1454                        PBIASY             ERASE
002266: E3,1455                        PIPASCFY           ERASE
002267: E3,1456                        PBIASZ             ERASE
002268: E3,1457                        PIPASCFZ           ERASE
002269:
002270: E3,1460                        NBDX               ERASE                                          #  GYRO BIAS DRIFTS
002271: E3,1461                        NBDY               ERASE
002272: E3,1462                        NBDZ               ERASE
002273:
002274: E3,1463                        ADIAX              ERASE                                          #  ACCELERATION SENSITIVE DRIFT ALONG THE
002275: E3,1464                        ADIAY              ERASE                                          #      INPUT AXIS
002276: E3,1465                        ADIAZ              ERASE
002277:
002278: E3,1466                        ADSRAX             ERASE                                          #  ACCELERATION SENSITIVE DRIFT ALONG THE
002279: E3,1467                        ADSRAY             ERASE                                          #      SPIN REFERENCE AXIS
002280: E3,1470                        ADSRAZ             ERASE
002281:
002282: E3,1471                        GCOMP              ERASE    +5                                    #  CONTAINS COMPENSATING TORQUES
002283:
002284: E3,1477                        GCOMPSW            ERASE
002285: E3,1500  E3,1471               COMMAND            EQUALS   GCOMP
002286: E3,1500  E3,1474               CDUIND             EQUALS   GCOMP      +3
002287:
002288:                                                                                                  #        STATE VECTORS FOR ORBIT INTEGRATION.                            (44D)
002289:
002290:                                                                                                  #                                (DIFEQCNT THRU XKEP MUST BE IN SAME
002291:                                                                                                  #                                  EBANK AS RRECTCSM, RRECTLEM ETC
002292:                                                                                                  #                                  BECAUSE THE COPY-CYCLES (ATOPCSM,
002293:                                                                                                  #                                  PTOACSM ETC) ARE EXECUTED IN BASIC.
002294:                                                                                                  #                                    ALL OTHER REFERENCES TO THIS GROUP
002295:                                                                                                  #                                  ARE BY INTERPRETIVE INSTRUCTIONS.)
002296:
002297: E3,1500                        DIFEQCNT           ERASE    +43D                                  #  B(1)TMP
002298:                                                                                                  #                                (UPSVFLAG...XKEP MUST BE KEPT IN ORDER)
002299:
002300: E3,1554  E3,1501               UPSVFLAG           EQUALS   DIFEQCNT   +1                         #  B(1)PRM UPDATE FLAG
002301: E3,1554  E3,1502               RRECT              EQUALS   UPSVFLAG   +1                         #  B(6)TMP POS AT RECT            KM*2(-14)
002302: E3,1554  E3,1510               VRECT              EQUALS   RRECT      +6                         #  B(6)TMP VEL AT RECT        KM(-1/2)*2(6)
002303: E3,1554  E3,1516               TET                EQUALS   VRECT      +6                         #  B(2)TMP TIME OF STATE VECT  CSECS*2(-28)
002304: E3,1554  E3,1520               TDELTAV            EQUALS   TET        +2                         #  B(6)TMP POSITION DEVIATION      KM*2(14)
002305: E3,1554  E3,1526               TNUV               EQUALS   TDELTAV    +6                         #  B(6)TMP VEL DEVIATION     KM(-1/2)*2(14)
002306: E3,1554  E3,1534               RCV                EQUALS   TNUV       +6                         #  B(6)TMP CONIC POSITION         KM*2(-14)
002307: E3,1554  E3,1542               VCV                EQUALS   RCV        +6                         #  B(6)TMP CONIC VELOCITY     KM(-1/2)*2(6)
002308: E3,1554  E3,1550               TC                 EQUALS   VCV        +6                         #  B(2)TMP TIME SINCE RECTIFICATION
002309: E3,1554  E3,1552               XKEP               EQUALS   TC         +2                         #  B(2)TMP ROOT OF KEPLER EQ KM(1/2.*2(-10)
002310:
002311: E3,1554  E3,1552               XPREV              =        XKEP                                  #  I(2)TMP
002312:                                                                                                  #      **** TEMP - IN VAC AREA ****
002313: E3,1554                        RRECT1             EQUALS   18D
002314: E3,1554                        VRECT1             EQUALS   24D
002315: E3,1554                        TET1               EQUALS   30D
002316:
002317:
002318:
002319:                                                                                                  #        PERMANENT STATE VECTORS AND TIMES.                              (99D)
002320:
002321:                                                                                                  #        (DO NOT OVERLAY WITH ANYTHING AFTER BOOST)
002322:
002323:                                                                                                  #        (RRECTCSM ...XKEPCSM MUST BE KEPT IN THIS ORDER)
002324:
002325: E3,1554                        RRECTCSM           ERASE    +5                                    #  B(6)PRM CSM VARIABLES.
002326: E3,1562  E3,1554               RRECTHIS           =        RRECTCSM
002327: E3,1562                        VRECTCSM           ERASE    +5                                    #  B(6)PRM
002328: E3,1570                        TETCSM             ERASE    +1                                    #  B(2)PRM
002329: E3,1572  E3,1570               TETTHIS            =        TETCSM
002330: E3,1572                        DELTACSM           ERASE    +5                                    #  B(6)PRM
002331: E3,1600                        NUVCSM             ERASE    +5                                    #  B(6)PRM
002332: E3,1606                        RCVCSM             ERASE    +5                                    #  B(6)PRM
002333: E3,1614                        VCVCSM             ERASE    +5                                    #  B(6)PRM
002334: E3,1622                        TCCSM              ERASE    +1                                    #  B(2)PRM
002335: E3,1624                        XKEPCSM            ERASE    +1                                    #  B(2)PRM
002336:
002337:                                                                                                  #        (RRECTLEM ...XKEPLEM MUST BE KEPT IN THIS ORDER)
002338:
002339: E3,1626                        RRECTLEM           ERASE    +5                                    #  B(6)PRM LEM VARIABLES
002340: E3,1634  E3,1626               RRECTOTH           =        RRECTLEM
002341: E3,1634                        VRECTLEM           ERASE    +5                                    #  B(6)PRM
002342: E3,1642                        TETLEM             ERASE    +1                                    #  B(2)PRM
002343: E3,1644  E3,1642               TETOTHER           =        TETLEM
002344: E3,1644                        DELTALEM           ERASE    +5                                    #  B(6)PRM
002345: E3,1652                        NUVLEM             ERASE    +5                                    #  B(6)PRM
002346: E3,1660                        RCVLEM             ERASE    +5                                    #  B(6)PRM
002347: E3,1666                        VCVLEM             ERASE    +5                                    #  B(6)PRM
002348: E3,1674                        TCLEM              ERASE    +1                                    #  B(2)PRM
002349: E3,1676                        XKEPLEM            ERASE    +1                                    #  B(2)PRM
002350:
002351: E3,1700                        TEPHEM             ERASE    +2
002352:
002353:
002354:
002355:                                                                                                  #        STATE VECTORS FOR DOWNLINK.                                     (12D)
002356:
002357: E3,1703                        R-OTHER            ERASE    +5                                    #  B(6)PRM POS VECT (OTHER VECH) FOR DNLINK
002358: E3,1711                        V-OTHER            ERASE    +5                                    #  B(6)PRM VEL VECT (OTHER VECH) FOR DNLINK
002359:
002360: E3,1717  E3,1642               T-OTHER            =        TETLEM                                #              TIME (OTHER VECH) FOR DNLINK
002361:
002362:
002363:                                                                                                  #        REFSMMAT.                                                       (18D)
002364:
002365: E3,1717                        REFSMMAT           ERASE    +17D                                  #  I(18D)PRM
002366:
002367:
002368:                                                                                                  #        PAD LOADED FOR DAP                                              (1D)
002369:
002370: E3,1741                        EMDOT              ERASE                                          #  I(1)PL  SPS FLOW RATE   KG/CS B+3
002371:
002372:
002373:                                                                                                  #        R22    PAD LOADS                                                ( 5D ).
002374:
002375: E3,1742                        RVAR               ERASE    +1                                    #  I(2) PL  VHF RADAR
002376: E3,1744                        RVARMIN            ERASE    +2                                    #  I(3) PL  VHF RADAR
002377:
002378:
002379:
002380:                                                                                                  #        P40 PAD LOADS                                                   (3D)
002381:
002382: E3,1747                        EIMP1SEC           ERASE                                          #  I(1)PL E-2 B-14 NEWT-SEC BR-PT AT 1 SEC
002383: E3,1750                        EFIMP01            ERASE                                          #  I(1)PL E-2 B-14 NEWT SLOPE 0-1 SEC SEG
002384: E3,1751                        EFIMP16            ERASE                                          #  I(1)PL E-2 B-14 NEWT SLOPE 1-6 SEC SEG
002385:
002386:
002387:
002388:                                                                                                  #  ******** PAD LOADED ENTRY DAP STEERING VARIABLES ********             (2D)
002389:
002390: E3,1752                        LADPAD             ERASE                                          #  I(1) PL FOR ENTRY.HOLDS CM  NOMINAL L/D
002391: E3,1753                        LODPAD             ERASE                                          #  I(1) PL FOR ENTRY.HOLDS CM  NOMINAL LOD
002392:
002393:
002394:
002395:                                                                                                  #        P40    ***STEERING ROUTINE*** PAD LOAD                          (1D)
002396:
002397: E3,1754                        DVTHRESH           ERASE                                          #  I(1)PL  DELTA V THRESHOLD FOR LOW THRUST
002398:                                                                                                  #          ROUTINE                       B-2
002399:
002400:                                                                                                  #        P-20       ALTERNATE LOS VARIANCE     PAD LOAD*****             (1D)
002401:                                                                                                  #                                  -16
002402: E3,1755                        ALTVAR             ERASE                                          #  I(2)PL MILLARD. SQUARED SCALED 2
002403:
002404:
002405:                                                                                                  #        R27 STORAGE.                                                    (18D)
Warning:  May overflow memory bank.
002406: E3,1756                        PMATRIX            ERASE    +17D                                  #  I(18)
002407: E3,1777  E3,1756               VHF.B              EQUALS   PMATRIX                               #  I(6)
002408: E3,1777  E3,1764               VHF.Z              EQUALS   PMATRIX    +6                         #  I(6)
002409: E3,1777  E3,1772               VHF.OMEG           EQUALS   PMATRIX    +12D                       #  I(6)
002410:
002411:
002412:                                                                                                  #      **** CONICSEX (PLANETARY INERT. ORIEN.) ****
002413:
002414: E3,1777  E3,1700               TIMSUBO            EQUALS   TEPHEM                                #  CSEC B-42 (TRIPLE PREC)
002415:
002416:
002417:
002418:                                                                                                  #                EBANK-4 ASSIGNMENTS
002419:
002420: E4,1400                                           SETLOC   2000
002421:
002422:
002423: E4,1400                        ERASPIP            EQUALS                                         #  ENTRANCE TO ERASABLE PIPA TEST PROGRAM
002424:                                                                                                  #        P20 STORAGE.            -PAD LOADED-                            (4D)
002425:
002426: E4,1400                        WRENDPOS           ERASE                                          #  B(1)PL                            M B-14
002427: E4,1401                        WRENDVEL           ERASE                                          #  B(1)PL                          M/CSECB0
002428: E4,1402                        RMAX               ERASE                                          #  B(1)PL                     METERS*2(-19)
002429: E4,1403                        VMAX               ERASE                                          #  B(1)PL                      M/CSEC*2(-7)
002430:
002431:                                                                                                  #        ENTRY STORAGE.          -PAD LOADED-                            (2D)
002432:
002433: E4,1404                        EMSALT             ERASE    +1                                    #  I(2)PL
002434:
002435:
002436:                                                                                                  #        LUNAR AND SOLAR EPHEMERIDES STORAGE  -PAD LOADED-               (6D)
002437: E4,1406                        LOSO               ERASE    +1                                    #  I(2)PL
002438: E4,1410                        CMOD               ERASE    +1                                    #  I(2)PL
002439: E4,1412                        CARG               ERASE    +1                                    #  I(2)PL
002440:
002441:
002442:                                                                                                  #        PLANETARY INERT. ORIENT. STORAGE    -PAD LOADED-                (20D)
002443: E4,1414                        LMATRIX            ERASE    +17D                                  #  I(18)PL
002444: E4,1436  E4,1430               UNITW              =        LMATRIX    +12D                       #  I(6)PL
002445: E4,1436                        AZO                ERASE    +1                                    #  I(2)PL
002446:
002447:
002448:                                                                                                  #        P31 - P33 STORAGE  -PAD LOADED-                                 (11D)
002449: E4,1440                        TCS                ERASE    +1                                    #  I(2)PL
002450: E4,1442                        EPS1               ERASE    +1                                    #  I(2)PL
002451: E4,1444                        DHNCC              ERASE    +1                                    #  I(2)PL
002452: E4,1446                        EPS2               ERASE    +1                                    #  I(2)PL
002453: E4,1450                        DELH1              ERASE    +1                                    #  I(2)PL
002454: E4,1452                        NH1                ERASE                                          #  I(1)PL
002455:
002456:
002457:                                                                                                  #        FULL INTEGRATION STORAGE.                                       (88D)
002458:
002459: E4,1453                        ALPHAV             ERASE    +5                                    #  I(6)TMP
002460: E4,1461  E4,1461               BETAV              EQUALS   ALPHAV     +6                         #  I(6)TMP
002461: E4,1461  E4,1467               PHIV               EQUALS   BETAV      +6                         #  I(6)TMP
002462: E4,1461  E4,1475               PSIV               EQUALS   PHIV       +6                         #  I(6)TMP
002463: E4,1461  E4,1503               FV                 EQUALS   PSIV       +6                         #  I(6)TMP
002464: E4,1461  E4,1511               BETAM              EQUALS   FV         +6                         #  I(6)TMP
002465: E4,1461  E4,1513               H                  EQUALS   BETAM      +2                         #  I(2)TMP
002466: E4,1461  E4,1515               IRETURN            EQUALS   H          +2                         #  I(1) TMP
002467: E4,1461  E4,1516               NORMGAM            EQUALS   IRETURN    +1                         #  I(1)TMP
002468: E4,1461  E4,1517               VECTAB             EQUALS   NORMGAM    +1                         #  I(36)TMP
002469: E4,1461  E4,1563               KEPRTN             EQUALS   VECTAB     +36D                       #          QSAVE FOR KEPLER
002470: E4,1461  E4,1564               XKEPNEW            EQUALS   KEPRTN     +1                         #   (2)TMP ROOT OF KEPLERS EQU FOR TIME TAU
002471:
002472:
002473:                                                                                                  #        THESE PROBABLY CAN SHARE INTEGRATION VARIABLES.                 (3D)
002474:
002475:                                                                                                  #        LAT-LONG STORAGE
002476:
002477: E4,1461  E4,1541               ERADM              EQUALS   VECTAB     +18D                       #  I(2)TMP
002478: E4,1461  E4,1543               INCORPEX           EQUALS   ERADM      +2                         #  I(1)TMP
002479:
002480:
002481:                                                                                                  #        R31(V83) STORAGE. -SHARES WITH INTEGRATION STORAGE-             (18D)
002482:
002483:
002484: E4,1461  E4,1525               BASEOTP            EQUALS   VECTAB     +6                         #  I(6) BASE POS VECTOR OTHER VEH
002485: E4,1461  E4,1541               BASEOTV            EQUALS   VECTAB     +18D                       #  I(6) BASE VEL VECTOR OTHER VEH
002486: E4,1461  E4,1555               BASETHP            EQUALS   VECTAB     +30D                       #  I(6) BASE POS VECTOR THIS VEH
002487:
002488:
002489:                                                                                                  #        CONIC INTEGRATION STORAGE.      -MAY NOT SHARE WITH SERVICER-   (6D)
002490:
002491: E4,1461  E4,1566               ALPHAM             EQUALS   XKEPNEW    +2                         #  I(2)TMP
002492: E4,1461  E4,1570               TAU.               EQUALS   ALPHAM     +2                         #  I(2)TMP
002493: E4,1461  E4,1572               DT/2               EQUALS   TAU.       +2                         #  I(2)TMP
002494:
002495:
002496:                                                                                                  #        R61 STORAGE                                                     (4D)
002497:
002498: E4,1461  E4,1574               R63TIME            EQUALS   DT/2       +2                         #  I(2)TMP
002499: E4,1461  E4,1576               R63RANGE           EQUALS   R63TIME    +2                         #  I(2)TMP
002500:
002501:
002502:
002503:                                                                                                  #        INTEGRATION STORAGE                                             (1D)
002504: E4,1461  E4,1600               EGRESS             EQUALS   R63RANGE   +2
002505:
002506:
002507:                                                                                                  #        VERB 83(N54)AND VERB 90 (N96) DISPLAYS                          (6D)
002508: E4,1461  E4,1601               RANGE              EQUALS   EGRESS     +1                         #  I(2)DSP NOUN 54 DISTANCE TO OPTICAL SUBJ
002509: E4,1461  E4,1603               RRATE              EQUALS   RANGE      +2                         #  I(2)DSP NOUN 54 RATE OF APPROACH
002510: E4,1461  E4,1605               RTHETA             EQUALS   RRATE      +2                         #  I(2)DSP NOUN 54
002511: E4,1461  E4,1605               RRATE2             EQUALS   RTHETA                                #  I(2) N96 LM OUT-OF-PLANE RATE
002512:
002513:
002514:                                                                                                  #  VERB 83  STORAGE                                                      (20D)
002515:
002516: E4,1461  E4,1607               RONE               EQUALS   RTHETA     +2                         #  I(6)TMP VECTOR STORAGE. (SCRATCH)
002517: E4,1461  E4,1615               VONE               EQUALS   RONE       +6                         #  I(6)TMP VECTOR STORAGE (SCRATCH)
002518: E4,1461  E4,1623               BASETIME           EQUALS   VONE       +6                         #  I(2)    BASE TIME  ASSOC WITH BASE VECS
002519: E4,1461  E4,1625               BASETHV            EQUALS   BASETIME   +2                         #  I(6) BASE VEL VECTOR THIS VEH
002520:
002521:
002522:
002523:                                                                                                  #        V 67 STORAGE                                                    (6D)
002524:
002525: E4,1461  E4,1601               WWPOS              EQUALS   RANGE                                 #  I(2)TMP
002526: E4,1461  E4,1603               WWVEL              EQUALS   RRATE                                 #  I(2)TMP
002527: E4,1461  E4,1605               WWOPT              EQUALS   RTHETA                                #  I(2)TMP
002528:
002529:
002530:                                                                                                  #        R 36 SCRATCHPAD STORAGE                                         (18D)
002531:
002532: E4,1461  E4,1607               VPASS36            EQUALS   RONE                                  #  I (6)S-S
002533: E4,1461  E4,1615               UNP36              EQUALS   VPASS36    +6                         #  I (6)S-S
002534: E4,1461  E4,1623               UNA36              EQUALS   UNP36      +6                         #  I (6)S-S
002535:
002536:
002537:
002538:                                                                                                  #        EXTENDED VERB 82 STORAGE.                                       (2D)
002539:
002540: E4,1461  E4,1601               TSTART82           EQUALS   RANGE                                 #  I(2) TEMP TIME STORAGE FOR V82.
002541:
002542:
002543:
002544:                                                                                                  #        MORE VERB 82 NOT SHARING WITH VERB 83                           (6D)
002545:
002546:
002547: E4,1461  E4,1525               TFF                EQUALS   BASEOTP                               #  I(2)  DSP NOUN 50,44
002548: E4,1461  E4,1527               -TPER              EQUALS   TFF        +2                         #  I(2)DSP NOUN 32
002549: E4,1461  E4,1531               THETA(1)           EQUALS   -TPER      +2                         #  I(2) TMP SET AT END OF V82
002550: E4,1461  E4,1555               V82FLAGS           EQUALS   BASETHP                               #   (1) FOR V 82 BITS
002551: E4,1461  E4,1556               RSP-RREC           EQUALS   V82FLAGS   +1                         #  DSP NOUN 50 FOR V82 DURING P00 AND P11
002552:
002553:
002554:
002555:                                                                                                  #        REENTRY CONICS                                                  (6D)
002556:
002557: E4,1461  E4,1555               URONE              EQUALS   V82FLAGS                              #  I(6) SAVE ACTUAL FOR CALCULATIONS
002558:
002559:
002560:                                                                                                  #        V 82 DISPLAY                                                    (4D)
002561:
002562: E4,1461  E4,1603               HAPOX              EQUALS   TSTART82   +2                         #  I(2) DSP NOUN 44
002563: E4,1461  E4,1605               HPERX              EQUALS   HAPOX      +2                         #  I(2) DSP NOUN 44
002564:
002565:
002566:
002567:                                                                                                  #        P31-P33 STORAGE.                                                (4D)
002568:
002569: E4,1461  E4,1633               NC                 EQUALS   BASETHV    +6                         #  I(2)
002570: E4,1461  E4,1635               DELH               EQUALS   NC         +2                         #  I(2)
002571:
002572: E4,1461  E4,1633               NOMTPI             EQUALS   NC                                    #  I(2)TMP NOMINAL TPI TIME FOR RECYCLE
002573:
002574:
002575:                                                                                                  #        S34/35.5,P34-P35 STORAGE.                                       (5D)
002576:
002577: E4,1461  E4,1635               RTRN               EQUALS   NC         +2                         #  B(1) RETURN
002578: E4,1461  E4,1636               SUBEXIT            EQUALS   RTRN       +1                         #  B(1) TMP
002579: E4,1461  E4,1637               QSAVED             EQUALS   SUBEXIT    +1                         #  B(1)TMP HOLDS RETURN
002580: E4,1461  E4,1637               ANEXIT             EQUALS   QSAVED                                #  I(1)
002581:
002582:
002583:                                                                                                  #        P 30 DISPLAY                                                    (4D)
002584:
002585: E4,1461  E4,1633               HAPO               EQUALS   NC                                    #  I(2) DSP NOUN 42, FOR P30.
002586: E4,1461  E4,1635               HPER               EQUALS   HAPO       +2                         #  I(2) DSP NOUN 42, FOR P30.
002587:
002588:
002589:
002590:                                                                                                  #  THE FOLLOWING ARE ERASABLES USED BY THE SYSTEM TESTS. 205 USES TRANSM1  GS ARE NOT USED IN 205 NOR ARE THEY
002591:                                                                                                  #  WHILE 504 USES TRANSM1 AND ALFDK .
002592:
002593: E4,1461                        TRANSM1            EQUALS   2000                                  #   (18) INITIALIZATION FOR IMU TESTS
002594: E4,1461  E4,1422               ALFDK              =        TRANSM1    +18D                       #   (144) ERASABLE LOAD IN 504
002595: E4,1461  E4,1641               ENDSYS-4           EQUALS   ALFDK      +143D                      #  LAST SYS.TEST STORAGE IN E-4
002596:
002597:                                                                                                  #  END OF PERF. TEST ERASABLE IN BANK 4
002598:
002599:                                                                                                  #      *-*-* V82 *-*-*                                                   (6D)
002600:
002601: E4,1461  E4,1625               VONE'              EQUALS   BASETHV                               #  I(6)TMP NORMAL VELOCITY VONE/ SQRT MU
002602:
002603:
002604:                                                                                                  #      MINKEY PAD LOADS                                                  (6D)
002605:
002606: E4,1461  E4,1640               WRDTIME            EQUALS   QSAVED     +1                         #  I(1)PL
002607: E4,1461  E4,1641               MINBLKTM           EQUALS   WRDTIME    +1                         #  I(1)PL
002608: E4,1461  E4,1642               TBEFCOMP           EQUALS   MINBLKTM   +1                         #  I(1)PL
002609: E4,1461  E4,1643               BRNBLKTM           EQUALS   TBEFCOMP   +1                         #  I(1)PL
002610: E4,1461  E4,1644               MAXWTIME           EQUALS   BRNBLKTM   +1                         #  I(1)PL
002611: E4,1461  E4,1645               FINCMPTM           EQUALS   MAXWTIME   +1                         #  I(1)PL
002612:
002613:
002614:                                                                                                  #        PAD LOAD INTEGRATION ERROR INCLUDED IN VARIANCE BY P20          (1D)
002615:
002616: E4,1461  E4,1646               INTVAR             EQUALS   FINCMPTM   +1                         #  I(1)PL  SQUARE OF EXPECTED INTEGRATION
002617:                                                                                                  #          POSITION EXTRAPOLATION ERROR.
002618:                                                                                                  #          SCALED  METERS(2) 2(15)
002619:
002620:
002621:                                                                                                  #        P50, P55 STORAGE                                                (18D)
002622: E4,1461  E4,1647               NBOA               EQUALS   INTVAR     +1                         #  I(18)
002623:
002624:
002625:                                                                                                  #        P50, P55 STORAGE  -PAD LOADED-                                  (12D)
002626: E4,1461  E4,1655               NBOA(YZ)           EQUALS   NBOA       +6                         #  I(12)PL
002627:
002628:
002629:                                                                                                  #        AVERAGEG INTEGRATOR STORAGE.                                    (6D)
002630:
002631: E4,1461  E4,1647               UNITR              EQUALS   NBOA
002632:
002633:
002634:
002635:                                                                                                  #        TEMP STORAGE FOR N90 DISPLAY IN RENDEZVOUS TARGETING PROGRAMS   (6D)
002636: E4,1461  E4,1647               YCSM               EQUALS   UNITR
002637: E4,1461  E4,1651               YDOTC              EQUALS   YCSM       +2
002638: E4,1461  E4,1653               YDOTL              EQUALS   YDOTC      +2
002639:
002640:
002641:                                                                                                  #        KALCMANU STORAGE.                                               (24D)
002642: E4,1461  E4,1671               MIS                EQUALS   NBOA       +18D                       #  I(18)  (THE REST MAY GO ANYWHERE)
002643: E4,1461  E4,1713               COF                EQUALS   MIS        +18D                       #  I(6)TMP
002644:
002645:
002646:                                                                                                  #        SOME P11 DISPLAY REGISTERS.                                     (4D)
002647:
002648: E4,1461  E4,1721               ALTI               EQUALS   COF        +6                         #  2P DSP NOUN 62 FOR P11
002649: E4,1461  E4,1723               HDOT               EQUALS   ALTI       +2                         #  2P DSP NOUN 62 FOR P11.
002650:
002651:
002652:
002653:                                                                                                  #        MORE CONICS STORAGE.                                            (4)
002654: E4,1461  E4,1725               COGA               EQUALS   HDOT       +2                         #  I(2) COTAN OF INITIAL FLT PATH ANGLE
002655: E4,1461  E4,1725               INDEP              EQUALS   COGA                                  #  I(1) USED BY SUBROUTINE:ITERATOR:
002656: E4,1461  E4,1727               EPSILONL           EQUALS   COGA       +2                         #  I(2) TMP
002657:
002658:
002659:
002660:                                                                                                  #        INITVEL STORAGE.                                                (3D)
002661: E4,1461  E4,1731               INTIME             EQUALS   EPSILONL   +2
002662: E4,1461  E4,1733               ITCTR              EQUALS   INTIME     +2                         #  I(1)TMP ITERATION COUNTER
002663:
002664:
002665:                                                                                                  #        R27 STORAGE.                                                    (19D)
002666: E4,1461  E4,1734               RTRIDOT            EQUALS   ITCTR      +1                         #  I(2)
002667: E4,1461  E4,1736               OPVEC              EQUALS   RTRIDOT    +2                         #  I(4)
002668: E4,1461  E4,1742               RBUF               EQUALS   OPVEC      +4                         #  I(2)
002669: E4,1461  E4,1744               NPASS              EQUALS   RBUF       +2                         #  I(1)


002671: E4,1461  E4,1745               RNGRET             EQUALS   NPASS      +1                         #  I(1)
002672: E4,1461  E4,1746               FIXTEMP            EQUALS   RNGRET     +1                         #  I(2)TMP
002673: E4,1461  E4,1750               R27END             EQUALS   FIXTEMP    +2                         #  I(1)
002674: E4,1461  E4,1751               VECLOS             EQUALS   R27END     +1                         #  I(6)
002675:
002676:
002677:                                                                                                  #        P31-P33 STORAGE.                                                (12D)
002678: E4,1461  E4,1757               VAH1               EQUALS   VECLOS     +6                         #  I(6)
002679: E4,1461  E4,1757               VPTPI              EQUALS   VAH1                                  #  I(6)TMP
002680: E4,1461  E4,1757               URPD               EQUALS   VAH1                                  #  I(6)TMP
002681: E4,1461  E4,1765               RAS                EQUALS   VAH1       +6                         #  I(6)
002682: E4,1461  E4,1765               COSE               EQUALS   RAS                                   #  I(2)TMP
002683: E4,1461  E4,1767               ITERCNT            EQUALS   COSE       +2                         #  I(2)TMP


002685: E4,1461  E4,1771               QRDOUT             EQUALS   ITERCNT    +2                         #  I(1)
002686:
002687:
002688:                                                                                                  #        DOCKED DAP STORAGE  -PAD LOADED-                                (2D)
002689: E4,1461  E4,1773               1/2ALPHA           EQUALS   RAS        +6                         #  I(2)PL
002690:
002691:
002692:                                                                                                  #  EBANK-5 ASSIGNMENTS
002693:
002694: E5,1400                                           SETLOC   2400
002695:
002696:
002697:                                                                                                  #        *-*-*-*-  OVERLAY 1 IN EBANK 5 -*-*-*-*
002698:
002699:                                                                                                  #        W-MATRIX STORAGE.                                               (162D)
002700:
002701: E5,1400                        W                  EQUALS   2400                                  #  B(162)
002702:
002703: E5,1400                        9X9LOC1            EQUALS   2444
002704: E5,1400                        9X9LOC2            EQUALS   2532
002705:
002706: E5,1400  E5,1570               EMATRIX            =        W          +120D                      #  B(42E    USED TO CONVERT W TO  6X6
002707: E5,1400  E5,1642               END-W              EQUALS   W          +162D                      #  **NEXT AVAILABLE LOC AFTER W MATRIX**
002708:
002709:
002710:                                                                                                  #        P31 - P33 STORAGE.                                              (17D)
002711: E5,1400  E5,1532               RPC                EQUALS   9X9LOC2
002712: E5,1400  E5,1540               DVO                EQUALS   RPC        +6
002713: E5,1400  E5,1542               EO                 EQUALS   DVO        +2
002714: E5,1400  E5,1544               VPC                EQUALS   EO         +2


002716: E5,1400  E5,1552               QSAVER             EQUALS   VPC        +6
002717:
002718:
002719:                                                                                                  #        MARK COUNT FOR MINKEY                                           (1D)
002720:
002721: E5,1400  E5,1553               COUNT3MK           EQUALS   QSAVER     +1                         #  I(1)
002722:
002723:
002724:                                                                                                  #        AUTO-OPTICS STORAGE -R52-
002725:
002726:                                                                                                  #  DO NOT MOVE FROM E5,1554. A DELICATE BALANCE EXISTS BETWEEN THIS AND P03
002727: E5,1400  E5,1554               XNB1               EQUALS   W          +108D                      #  B(6D) TMP
002728: E5,1400  E5,1562               YNB1               EQUALS   XNB1       +6                         #  B(6)TMP
002729: E5,1400  E5,1570               ZNB1               EQUALS   YNB1       +6                         #  B(6)TMP
002730: E5,1400  E5,1576               SAVQR52            EQUALS   ZNB1       +6                         #  I(2)TMP
002731:
002732:
002733: E5,1400  E5,1577               R52BNKSV           EQUALS   SAVQR52    +1                         #  USED TO SAVE EBANK IN R52
002734: E5,1400  E5,1600               PLANVEC            EQUALS   SAVQR52    +2                         #  B(6) S-S SIGHTING VECTOR IN REF. COOR.
002735: E5,1400  E5,1606               TSIGHT             EQUALS   PLANVEC    +6                         #  B(2) S-S TIME OF SIGHTING
002736:
002737:
002738:
002739:                                                                                                  #        RENDEZVOUS TARGETTING STORAGE                                   (6D)
002740:
002741: E5,1400  E5,1600               AUTOY              EQUALS   PLANVEC                               #  I(2)
002742: E5,1400  E5,1602               CMYDOT             EQUALS   AUTOY      +2                         #  I(2)
002743: E5,1400  E5,1604               LMYDOT             EQUALS   CMYDOT     +2                         #  I(2)
002744:
002745:
002746:                                                                                                  #        RENDEZVOUS P35-P36 STORAGE                                      (20D)
002747:
002748: E5,1400  E5,1610               DVLOS              EQUALS   TSIGHT     +2                         #  I(6) S-S DELTA VELOCITY,LOS COORD-DISPL1
002749: E5,1400  E5,1616               ULOS               EQUALS   DVLOS      +6                         #  I(6) S-S UNIT LINE OF SIGHT VECTOR
002750: E5,1400  E5,1624               ACTCENT            EQUALS   ULOS       +6                         #  I(2) S-S CENTRAL ANGLE BETWEEN ACTIVE
002751:                                                                                                  #           VEH AT TPI IGNITION TIME AND
002752:                                                                                                  #           TARGET VECTOR.
002753: E5,1400  E5,1626               DELVTPI            EQUALS   ACTCENT    +2                         #  I(2)    NOUN 58 FOR P34.
002754: E5,1400  E5,1630               DELVTPF            EQUALS   DELVTPI    +2                         #  I(2)    NOUN 58,59 FOR P34,35.
002755: E5,1400  E5,1632               POSTTPI            EQUALS   DELVTPF    +2                         #  I(2)    NOUN 58 FOR P34.
002756: E5,1400  E5,1626               TDEC2              EQUALS   DELVTPI                               #   (2)
002757:
002758:
002759:                                                                                                  #        ALIGNMENT                                                       (12D)
002760:
002761: E5,1400  E5,1610               STARSAV1           EQUALS   DVLOS                                 #  I(6)TMP RESTART STAR SAVE.
002762: E5,1400  E5,1616               STARSAV2           EQUALS   STARSAV1   +6                         #  I(6)TMP RESTART STAR SAVE.
002763:
002764:
002765:
002766:                                                                                                  #        ALIGNMENT/SYSTEST/CALCSMSC/CRS61.1 COMMON STORAGE.              (36D)
002767:                                                                                                  #        (CALCSMSC IS A SUBSET OF S41.1 AT LEAST)
002768:                                                                                                  #        (CRS61.1  IS A SUBSET OF P20)
002769:
002770: E5,1400  E5,1660               XSM                EQUALS   END-W      +14D                       #  B(6)
002771: E5,1400  E5,1666               YSM                EQUALS   XSM        +6                         #  B(6)TMP
002772: E5,1400  E5,1674               ZSM                EQUALS   YSM        +6                         #  B(6)TMP
002773:
002774: E5,1400  E5,1702               XDC                EQUALS   ZSM        +6                         #  B(6)TMP
002775: E5,1400  E5,1710               YDC                EQUALS   XDC        +6                         #  B(6)TMP
002776: E5,1400  E5,1716               ZDC                EQUALS   YDC        +6                         #  B(6)TMP
002777:
002778: E5,1400  E5,1702               XNB                =        XDC
002779: E5,1400  E5,1710               YNB                =        YDC
002780: E5,1400  E5,1716               ZNB                =        ZDC
002781:
002782:
002783:                                                                                                  #        ALIGNMENT/SYSTEST COMMON STORAGE.                               (18D)
002784:
002785: E5,1400  E5,1724               STARAD             EQUALS   ZDC        +6                         #  I(18D)TMP
002786:
002787:
002788:                                                                                                  #        ALIGNMENT/SYSTEST/AUTO OPTICS COMMON STORAGE.                   (17D)
002789:
002790: E5,1400  E5,1757               OGC                EQUALS   TPREV      +2D                        #  I(2)TMP
002791: E5,1400  E5,1761               IGC                EQUALS   OGC        +2                         #  I(2)TMP
002792: E5,1400  E5,1763               MGC                EQUALS   IGC        +2                         #  I(2)TMP
002793: E5,1400  E5,1765               STAR               EQUALS   MGC        +2                         #  I(6)TMP
002794: E5,1400  E5,1773               SAC                EQUALS   STAR       +6                         #  I(2)TMP
002795: E5,1400  E5,1775               PAC                EQUALS   SAC        +2                         #  I(2)TMP
002796: E5,1400  E5,1777               QMIN               EQUALS   PAC        +2                         #  B(1)TMP
002797:
002798:
002799:                                                                                                  #      **** COLP50S ****                                                 (1D)
002800:
002801: E5,1400  E5,1724               CULTRIX            EQUALS   VSUN                                  #  VSUN, VEARTH, SAX
002802:
002803:                                                                                                  #        OVERLAYS WITHIN ALIGNMENT/SYSTEST COMMON STORAGE.               (18D)
002804:
002805: E5,1400  E5,1724               VSUN               EQUALS   STARAD                                #   (6)TMP
002806: E5,1400  E5,1732               VEARTH             EQUALS   VSUN       +6                         #   (6)TMP
002807: E5,1400  E5,1740               SAX                EQUALS   VEARTH     +6                         #   (6)TMP
002808:
002809:                                                                                                  #        *-*-*-*-  OVERLAY 2 IN EBANK 5 -*-*-*-*
002810:
002811:
002812:                                                                                                  #  P34 STORAGE OVERLAYING 9X9 W-MATRIX LOCATIONS                         (18D)
002813:
002814: E5,1400  E5,1444               DELVEET1           EQUALS   9X9LOC1                               #  I(6) DELV FOR CSI
002815: E5,1400  E5,1452               RACT2              EQUALS   DELVEET1   +6                         #  I(6) POS. ACTIVE VEH. AT CDH TIME
002816: E5,1400  E5,1460               TCDH               EQUALS   RACT2      +6                         #  I(2)
002817: E5,1400  E5,1462               TCSI               EQUALS   TCDH       +2                         #  I(2)
002818: E5,1400  E5,1464               TTPI0              EQUALS   TCSI       +2                         #  I(2)
002819:
002820:
002821:
002822:                                                                                                  #        P34 STORAGE.                                                    (8D)
002823: E5,1400  E5,1532               VACT2              EQUALS   9X9LOC2                               #  I(6) VEL. ACTIVE VEH. AT CDH TIME
002824: E5,1400  E5,1540               T1TOT2             EQUALS   VACT2      +6                         #  I(2) TCDH - TCSI
002825:
002826:
002827:                                                                                                  #        P30, P35, P36 STORAGE.                                          (6D)
002828: E5,1400  E5,1542               UNRM               EQUALS   T1TOT2     +2                         #  I(6) S-S
002829:
002830:
002831:                                                                                                  #        CONIC ROUTINES STORAGE.                                         (87D)
002832:
002833: E5,1400  E5,1634               DELX               EQUALS   POSTTPI    +2                         #  I(2)TMP
002834: E5,1400  E5,1636               DELT               EQUALS   DELX       +2                         #  I(2)TMP
002835: E5,1400  E5,1640               URRECT             EQUALS   DELT       +2                         #  I(6)TMP
002836: E5,1400  E5,1646               RCNORM             EQUALS   URRECT     +6                         #  I(2)TMP
002837: E5,1400  E5,1650               R1VEC              EQUALS   RCNORM     +2                         #  I(6)TMP
002838: E5,1400  E5,1656               R2VEC              EQUALS   R1VEC      +6                         #  I(6)TMP
002839: E5,1400  E5,1664               TDESIRED           EQUALS   R2VEC      +6                         #  I(2)TMP
002840: E5,1400  E5,1666               GEOMSGN            EQUALS   TDESIRED   +2                         #  I(1)TMP
002841: E5,1400  E5,1667               UN                 EQUALS   GEOMSGN    +1                         #  I(6)TMP
002842: E5,1400  E5,1675               VTARGTAG           EQUALS   UN         +6                         #  I(1)TMP
002843: E5,1400  E5,1676               VTARGET            EQUALS   VTARGTAG   +1                         #  I(6)TMP
002844: E5,1400  E5,1704               RTNLAMB            EQUALS   VTARGET    +6                         #  I(1)TMP
002845: E5,1400  E5,1705               U2                 EQUALS   RTNLAMB    +1                         #  I(6)TMP
002846: E5,1400  E5,1713               MAGVEC2            EQUALS   U2         +6                         #  I(2)TMP
002847: E5,1400  E5,1715               UR1                EQUALS   MAGVEC2    +2                         #  I(6)TMP
002848: E5,1400  E5,1723               SNTH               EQUALS   UR1        +6                         #  I(2)TMP
002849: E5,1400  E5,1725               CSTH               EQUALS   SNTH       +2                         #  I(2)TMP
002850: E5,1400  E5,1727               1-CSTH             EQUALS   CSTH       +2                         #  I(2)TMP
002851: E5,1400  E5,1731               CSTH-RHO           EQUALS   1-CSTH     +2                         #  I(2)TMP
002852: E5,1400  E5,1733               P                  EQUALS   CSTH-RHO   +2                         #  I(2)TMP
002853: E5,1400  E5,1735               R1A                EQUALS   P          +2                         #  I(2)TMP
002854: E5,1400  E5,1650               RVEC               EQUALS   R1VEC                                 #  I(6)TMP
002855: E5,1400  E5,1737               VVEC               EQUALS   R1A        +2                         #  I(6)TMP
002856: E5,1400  E5,1704               RTNTT              EQUALS   RTNLAMB                               #  I(1)TMP
002857: E5,1400  E5,1745               ECC                EQUALS   VVEC       +6                         #  I(2)TMP
002858: E5,1400  E5,1704               RTNTR              EQUALS   RTNLAMB                               #  I(1)TMP
002859: E5,1400  E5,1704               RTNAPSE            EQUALS   RTNLAMB                               #  I(1)TMP
002860: E5,1400  E5,1713               R2                 EQUALS   MAGVEC2                               #  I(2)TMP
002861: E5,1400  E5,1747               RTNPRM             EQUALS   ECC        +2                         #  I(1)TMP
002862: E5,1400  E5,1750               SGNRDOT            EQUALS   RTNPRM     +1                         #  I(1)TMP
002863: E5,1400  E5,1751               RDESIRED           EQUALS   SGNRDOT    +1                         #  I(2)TMP
002864: E5,1400  E5,1753               DELDEP             EQUALS   RDESIRED   +2                         #  I(2)TMP
002865: E5,1400  E5,1755               DEPREV             EQUALS   DELDEP     +2                         #  I(2)TMP
002866: E5,1400  E5,1753               TERRLAMB           EQUALS   DELDEP                                #  I(2)TMP
002867: E5,1400  E5,1755               TPREV              EQUALS   DEPREV                                #  I(2)TMP
002868:
002869:
002870:                                                                                                  #        *-*-*-*-  OVERLAY 3 IN EBANK 5 -*-*-*-*
002871:
002872:
002873:                                                                                                  #  P31-P33 STORAGE OVERLAYING 9X9 W-MATRIX LOCATIONS                     (18D)
002874: E5,1400  E5,1444               RAH1               EQUALS   DELVEET1                              #  I(6)
002875: E5,1400  E5,1452               RNSR               EQUALS   RACT2                                 #  I(6)
002876: E5,1400  E5,1460               TNSR               EQUALS   TCDH                                  #  I(2)
002877: E5,1400  E5,1462               TNCC               EQUALS   TCSI                                  #  I(2)
002878: E5,1400  E5,1464               RJMAG              EQUALS   TTPI0                                 #  I(2)
002879:
002880: E5,1400  E5,1444               RPTPI              EQUALS   RAH1                                  #  I(6)
002881: E5,1400  E5,1452               RAC                EQUALS   RNSR                                  #  I(6)
002882:
002883:
002884:                                                                                                  #        P31-P33 STORAGE.                                                (20D)
002885: E5,1400  E5,1610               AM1                EQUALS   DVLOS                                 #  I(6)
002886: E5,1400  E5,1616               VGNSR              EQUALS   AM1        +6                         #  I(6)
002887: E5,1400  E5,1624               URJ                EQUALS   VGNSR      +6                         #  I(6)
002888: E5,1400  E5,1632               HALFREVS           EQUALS   URJ        +6                         #  I(1)
002889: E5,1400  E5,1633               NCINTOUT           EQUALS   HALFREVS   +1                         #  I(1)
002890:
002891:
002892:                                                                                                  #        MEASUREMENT INCORPORATION STORAGE.                              (36D)
002893:                                                                                                  #        (CALLED BY P20, P22, P23)
002894:
002895: E5,1400  E5,1634               OMEGAM1            EQUALS   DELX                                  #  I(6)TMP
002896: E5,1400  E5,1642               OMEGAM2            EQUALS   OMEGAM1    +6                         #  I(6)TMP
002897: E5,1400  E5,1650               HOLDW              EQUALS   OMEGAM2    +6                         #  I(12)TMP
002898: E5,1400  E5,1664               ZI                 EQUALS   HOLDW      +12D                       #  I(12)
002899:
002900:
002901:                                                                                                  #        *-*-*-*-  OVERLAY 0 IN EBANK 5 -*-*-*-*
002902:
002903:                                                                                                  #        SYSTEM TEST STORAGE.                                            (174)
002904:
002905: E5,1400                        AZIMUTH            ERASE    +1
002906: E5,1402                        LATITUDE           ERASE    +1
002907:
002908: E5,1404                        ERVECTOR           ERASE    +5
002909: E5,1412                        LENGTHOT           ERASE
002910: E5,1413                        LOSVEC             ERASE    +5
002911:
002912: E5,1421  E5,1413               SXTOPTN            =        LOSVEC
002913: E5,1421                        NDXCTR             ERASE
002914:
002915: E5,1422                        SYSTSPR1           ERASE                                          #  UNUSED
002916:
002917: E5,1423                        POSITON            ERASE
002918: E5,1424                        QPLAC              ERASE
002919: E5,1425                        QPLACE             ERASE
002920: E5,1426                        QPLACES            ERASE
002921: E5,1427                        RUN                ERASE
002922:
002923: E5,1430                        SYSTSPR2           ERASE                                          #  UNUSED
002924:
002925: E5,1431                        SOUTHDR            ERASE
002926: E5,1432  E5,1431               TARG1/2            =        SOUTHDR
002927: E5,1432                        TAZEL1             ERASE    +5
002928: E5,1440                        TEMPTIME           ERASE    +1
002929: E5,1442                        TMARK              ERASE    +1
002930: E5,1444                        AINLA              ERASE    +139D                                 #  OPTIMUM CALIB. AND ALIGNMENT
002931: E5,1660  E5,1444               GENPL              =        AINLA
002932: E5,1660  E5,1453               CDULIMIT           =        AINLA      +7
002933: E5,1660  E5,1552               COUNTPL            =        AINLA      +70D
002934: E5,1660  E5,1444               WANGO              EQUALS   AINLA
002935: E5,1660  E5,1446               WANGI              EQUALS   AINLA      +2D
002936: E5,1660  E5,1450               WANGT              EQUALS   AINLA      +4D
002937: E5,1660  E5,1450               TORQNDX            =        WANGT
002938: E5,1660  E5,1452               DRIFTT             EQUALS   AINLA      +6D
002939: E5,1660  E5,1454               ALX1S              EQUALS   AINLA      +8D
002940: E5,1660  E5,1455               CMPX1              EQUALS   AINLA      +9D
002941: E5,1660  E5,1456               ALK                EQUALS   AINLA      +10D
002942: E5,1660  E5,1472               VLAUNS             EQUALS   AINLA      +22D
002943: E5,1660  E5,1460               THETAX             =        ALK        +2
002944: E5,1660  E5,1474               WPLATO             EQUALS   AINLA      +24D
002945: E5,1660  E5,1500               INTY               EQUALS   AINLA      +28D
002946: E5,1660  E5,1466               THETAN             =        THETAX     +6
002947: E5,1660  E5,1502               ANGZ               EQUALS   AINLA      +30D
002948: E5,1660  E5,1504               INTZ               EQUALS   AINLA      +32D
002949: E5,1660  E5,1506               ANGY               EQUALS   AINLA      +34D
002950: E5,1660  E5,1510               ANGX               EQUALS   AINLA      +36D
002951: E5,1660  E5,1512               DRIFTO             EQUALS   AINLA      +38D
002952: E5,1660  E5,1514               DRIFTI             EQUALS   AINLA      +40D
002953: E5,1660  E5,1520               VLAUN              EQUALS   AINLA      +44D
002954: E5,1660  E5,1474               FILDELV            =        THETAN     +6
002955: E5,1660  E5,1522               ACCWD              EQUALS   AINLA      +46D
002956: E5,1660  E5,1476               INTVEC             =        FILDELV    +2
002957: E5,1660  E5,1530               POSNV              EQUALS   AINLA      +52D
002958: E5,1660  E5,1532               DPIPAY             EQUALS   AINLA      +54D
002959: E5,1660  E5,1536               DPIPAZ             EQUALS   AINLA      +58D
002960: E5,1660  E5,1540               ALTIM              EQUALS   AINLA      +60D
002961: E5,1660  E5,1541               ALTIMS             EQUALS   AINLA      +61D
002962: E5,1660  E5,1542               ALDK               EQUALS   AINLA      +62D
002963: E5,1660  E5,1560               DELM               EQUALS   AINLA      +76D
002964: E5,1660  E5,1570               WPLATI             EQUALS   AINLA      +84D
002965: E5,1660  E5,1577               RESTARPT           =        AINLA      +91D
002966: E5,1660  E5,1631               GEOSAVED           =        AINLA      +117D
002967: E5,1660  E5,1632               PREMTRXC           =        AINLA      +118D
002968: E5,1660  E5,1633               LAUNCHAZ           =        AINLA      +119D
002969: E5,1660  E5,1635               NEWAZMTH           =        AINLA      +121D
002970: E5,1660  E5,1637               OLDAZMTH           =        AINLA      +123D
002971: E5,1660  E5,1641               TOLDAZMT           =        AINLA      +125D
002972: E5,1660  E5,1643               GEOCOMPS           =        AINLA      +127D
002973: E5,1660  E5,1644               1SECXT             =        AINLA      +128D
002974: E5,1660  E5,1645               GTSWTLST           =        AINLA      +129D
002975: E5,1660  E5,1646               ERECTIME           =        AINLA      +130D
002976: E5,1660  E5,1647               ERCOMP             =        AINLA      +131D
002977: E5,1660  E5,1655               ZERONDX            =        AINLA      +137D
002978: E5,1660  E5,1655               GTSOPNDZ           =        ZERONDX
002979:
002980:
002981:                                                                                                  #  THE FOLLOWING TAGS ARE USED BY THE 504 IMU CALIBRATION AND ALIGNMENT PROGRAM ONLY.
002982:
002983: E5,1660  E5,1460               THETAX1            EQUALS   ALK        +2
002984: E5,1660  E5,1466               THETAN1            EQUALS   THETAX1    +6
002985: E5,1660  E5,1474               FILDELV1           EQUALS   THETAN1    +6
002986: E5,1660  E5,1476               INTVEC1            EQUALS   FILDELV1   +2
002987: E5,1660  E5,1631               GEOSAVE1           EQUALS   AINLA      +117D
002988: E5,1660  E5,1632               PREMTRX1           EQUALS   AINLA      +118D
002989: E5,1660  E5,1633               LUNCHAZ1           EQUALS   AINLA      +119D
002990: E5,1660  E5,1635               NEWAZ1             EQUALS   LUNCHAZ1   +2
002991: E5,1660  E5,1637               OLDAZ1             EQUALS   LUNCHAZ1   +4
002992: E5,1660  E5,1641               TOLDAZ1            EQUALS   LUNCHAZ1   +6
002993: E5,1660  E5,1643               GEOCOMP1           EQUALS   AINLA      +127D
002994: E5,1660  E5,1644               1SECXT1            EQUALS   AINLA      +128D
002995: E5,1660  E5,1645               GTSWTLT1           EQUALS   AINLA      +129D
002996: E5,1660  E5,1646               ERECTIM1           EQUALS   AINLA      +130D
002997: E5,1660  E5,1647               ERCOMP1            EQUALS   AINLA      +131D                      #  I(6)
002998: E5,1660  E5,1655               ZERONDX1           EQUALS   AINLA      +137D
002999: E5,1660  E5,1656               PERFDLAY           EQUALS   AINLA      +138D                      #  B(2).........
003000: E5,1660  E5,1657               ENDSYS-5           EQUALS   AINLA      +139D                      #  LAST SYS.TEST STORAGE IN E-5
003001:
003002:
003003:                                                                                                  #  END OF 504 CAL + ALIGN ERASE.
003004:
003005:
003006:                                                                                                  #        *-*-*-*-  OVERLAY 4 IN EBANK 5  -*-*-*-*
003007:
003008:                                                                                                  #        P34 STORAGE                                                     (20D)
003009:
003010: E5,1660  E5,1610               UP1                EQUALS   DVLOS                                 #  I(6)
003011: E5,1660  E5,1616               VPASS2             EQUALS   UP1        +6                         #  I(6)
003012: E5,1660  E5,1624               RPASS2             EQUALS   VPASS2     +6                         #  I(6)
003013: E5,1660  E5,1632               DIFFALT            EQUALS   RPASS2     +6                         #  I(2)
003014:
003015:
003016:
003017:                                                                                                  #                EBANK-6 ASSIGNMENTS
003018: E6,1400                                           SETLOC   3000
003019:
003020:
003021:                                                                                                  #  ******** PAD LOADED TVC DAP VARIABLES.********************************(25D)
003022:
003023: E6,1400                        ETDECAY            ERASE                                          #  I(1)PL
003024: E6,1401                        EKPRIME            ERASE    +1                                    #  B(2)PL
003025: E6,1403                        EKTLX/I            ERASE    +2                                    #  B(3)PL
003026: E6,1406                        EREPFRAC           ERASE    +1                                    #  B(2)PL
003027:
003028: E6,1410                        PACTOFF            ERASE                                          #  B(1)PL, DSP N48 R01 = PTRIM, R02 = YTRIM
003029: E6,1411                        YACTOFF            ERASE                                          #  B(1)PL, CONSECUTIVE WITH PACTOFF
003030:
003031: E6,1412                        HBN10              ERASE                                          #  B(1)
003032: E6,1413                        HBN11/2            ERASE                                          #  B(1)
003033: E6,1414                        HBN12              ERASE                                          #  B(1)
003034: E6,1415                        HBD11/2            ERASE                                          #  B(1)
003035: E6,1416                        HBD12              ERASE                                          #  B(1)
003036:
003037: E6,1417                        HBN20              ERASE                                          #  B(1)
003038: E6,1420                        HBN21/2            ERASE                                          #  B(1)
003039: E6,1421                        HBN22              ERASE                                          #  B(1)
003040: E6,1422                        HBD21/2            ERASE                                          #  B(1)
003041: E6,1423                        HBD22              ERASE                                          #  B(1)
003042: E6,1424                        HBN30              ERASE                                          #  B(1)
003043: E6,1425                        HBN31/2            ERASE                                          #  B(1)
003044: E6,1426                        HBN32              ERASE                                          #  B(1)
003045: E6,1427                        HBD31/2            ERASE                                          #  B(1)
003046: E6,1430                        HBD32              ERASE                                          #  B(1)
003047:
003048:
003049:                                                                                                  #  ******** PAD LOADED DOCKED DAP VARIABLES.*****************************(16D)
003050: E6,1431                        SLOPE2             ERASE    +1                                    #  B(2)PL
003051: E6,1433                        WLH/SLOP           ERASE    +1                                    #  B(2)PL
003052: E6,1435                        WL-H/SLP           ERASE    +1                                    #  B(2)PL
003053: E6,1437                        ECP                ERASE                                          #  B(1)PL
003054: E6,1440                        ECYW               ERASE                                          #  B(1)PL
003055: E6,1441                        ALPHAP             ERASE                                          #  B(1)PL
003056: E6,1442                        ALPHAYW            ERASE                                          #  B(1)PL
003057: E6,1443                        KMJDCKD            ERASE                                          #  B(1)PL
003058: E6,1444                        KMJ1DCKD           ERASE                                          #  B(1)PL
003059: E6,1445                        KMJ2DCKD           ERASE                                          #  B(1)PL
003060: E6,1446                        J/MDCKD            ERASE                                          #  B(1)PL
003061: E6,1447                        J/M1DCKD           ERASE                                          #  B(1)PL
003062: E6,1450                        J/M2DCKD           ERASE                                          #  B(1)PL
003063:
003064:                                                                                                  #  ******** EXCLUSIVE TVC DAP VARIABLES. **********************************(4D)
003065:
003066: E6,1451                        TEMPDAP            ERASE    +1                                    #  B(2)
003067: E6,1453  E6,1451               MRKRTMP            =        TEMPDAP                               #       ((B(1)))
003068: E6,1453                        CNTR               ERASE                                          #  B(1)
003069: E6,1454                        OGAD               ERASE                                          #  B(1)
003070:
003071:
003072:
003073:                                                                                                  #        CLOKTASK STORAGE. -PAD LOADED-                                  (1D)
003074: E6,1455                        CLOKDELT           ERASE                                          #  B(1)
003075:
003076:
003077:                                                                                                  #        DOCKED DAP STORAGE                                              (10D)
003078: E6,1456                        TIMEHOLD           ERASE                                          #  B(1)
003079: E6,1457                        DAPARUPT           ERASE                                          #  B(1)
003080: E6,1460                        DAPLRUPT           ERASE                                          #  B(1)
003081: E6,1461                        DAPBQRPT           ERASE    +1                                    #  B(2)
003082: E6,1463                        DAPZRUPT           ERASE    +1                                    #  B(2)
003083: E6,1465                        INHIBIT            ERASE                                          #  B(1)
003084: E6,1466                        5AXW               ERASE                                          #  B(1)
003085: E6,1467                        5BXW               ERASE                                          #  B(1)
003086:
003087:
003088:                                                                                                  #        MORE DOCKED DAP STORAGE.                                        (5D)
003089: E6,1470                        DAPDATR3           ERASE                                          #  B(1)
003090: E6,1471                        CH5FAIL            ERASE                                          #  B(1)
003091: E6,1472                        CH6FAIL            ERASE                                          #  B(1)
003092: E6,1473                        DKRATE             ERASE                                          #  B(1)
003093: E6,1474                        DKDB               ERASE                                          #  B(1)
003094:
003095:
003096:                                                                                                  #        RCS/DOCKED DAP SELECTION                                        (2D)
003097: E6,1475                        WHICHDAP           ERASE                                          #  B(1)
003098: E6,1476                        WHICHX2            ERASE                                          #  B(1)
003099:
003100:
003101:                                                                                                  #  ******** EXCLUSIVE RCS DAP VARIABLES. *********************************(13D)
003102:
003103: E6,1477                        RWORD1             ERASE    +12D                                  #  B(1)
003104: E6,1514  E6,1500               RWORD2             EQUALS   RWORD1     +1                         #  B(1)
003105: E6,1514  E6,1501               PWORD1             EQUALS   RWORD2     +1                         #  B(1)
003106: E6,1514  E6,1502               PWORD2             EQUALS   PWORD1     +1                         #  B(1)
003107: E6,1514  E6,1503               YWORD1             EQUALS   PWORD2     +1                         #  B(1)
003108: E6,1514  E6,1504               YWORD2             EQUALS   YWORD1     +1                         #  B(1)
003109: E6,1514  E6,1505               BLAST              EQUALS   YWORD2     +1                         #  B(2)
003110: E6,1514  E6,1507               BLAST1             EQUALS   BLAST      +2                         #  B(2)
003111: E6,1514  E6,1511               BLAST2             EQUALS   BLAST1     +2                         #  B(2)
003112: E6,1514  E6,1513               T5PHASE            EQUALS   BLAST2     +2                         #  B(1)
003113:
003114:
003115:
003116:                                                                                                  #  ******** EXCLUSIVE DOCKED DAP VARIABLES. ******************************(12D)
003117: E6,1514  E6,1477               5PT                EQUALS   RWORD1                                #  B(1)
003118: E6,1514  E6,1500               5YWT               EQUALS   5PT        +1                         #  B(1)
003119: E6,1514  E6,1501               61PT               EQUALS   5YWT       +1                         #  B(1)
003120: E6,1514  E6,1502               61YWT              EQUALS   61PT       +1                         #  B(1)
003121: E6,1514  E6,1503               62PT               EQUALS   61YWT      +1                         #  B(1)
003122: E6,1514  E6,1504               62YWT              EQUALS   62PT       +1                         #  B(1)
003123: E6,1514  E6,1505               5PW                EQUALS   62YWT      +1                         #  B(1)
003124: E6,1514  E6,1506               5YWW               EQUALS   5PW        +1                         #  B(1)
003125: E6,1514  E6,1507               61PW               EQUALS   5YWW       +1                         #  B(1)
003126: E6,1514  E6,1510               61YWW              EQUALS   61PW       +1                         #  B(1)
003127: E6,1514  E6,1511               62PW               EQUALS   61YWW      +1                         #  B(1)
003128:
003129:
003130:                                                                                                  #  ******** RCS/TVC DAP COMMON STORAGE.************************************(17D)
003131:
003132: E6,1514                        DAPDATR1           ERASE                                          #  B(1)DSP NOUN 46(R1)
003133: E6,1515                        DAPDATR2           ERASE                                          #  B(1)DSP NOUN 46(R2)
003134:
003135: E6,1516     4076               DPCONFIG           =        OCT60000                              #  DAP CONFIG BITS
003136:
003137: E6,1516                        IXX                ERASE                                          #  B(1) CONSECUTIVE WITH IAVG, IAVG/TLX FOR
003138: E6,1517                        IAVG               ERASE                                          #  B(1)                            MASSPROP
003139: E6,1520                        IAVG/TLX           ERASE                                          #  B(1)
003140:
003141: E6,1521                        LEMMASS            ERASE                                          #  B(1)DSP NOUN 47(R2)
003142: E6,1522                        CSMMASS            ERASE    +1                                    #  B(2)
003143: E6,1524                        WEIGHT/G           ERASE
003144: E6,1525                        AK                 ERASE
003145: E6,1526                        AK1                ERASE
003146: E6,1527                        AK2                ERASE
003147:
003148: E6,1530                        RCSFLAGS           ERASE                                          #  B(1) CONSECUTIVE WITH AK2 DOWNLINK
003149: E6,1531                        T5TEMP             ERASE                                          #  B(1)
003150: E6,1532                        EDRIVEX            ERASE
003151: E6,1533                        EDRIVEY            ERASE
003152: E6,1534                        EDRIVEZ            ERASE
003153:
003154:
003155:                                                                                                  #        INTEMP THRU INTEMP+14D  ARE RESERVED FOR OVERLAYED TVC/RCS INTERUP TRUE TEMPORIES
003156: E6,1535                        INTTEMP            ERASE    +14D                                  #   (15)
003157:
003158:
003159:                                                                                                  #        TVC/RCS THRU TVCRCS +11D RESERVED FOR DOWNLINKED VARIABLES
003160:
003161: E6,1554                        TVCRCS             ERASE    +11D                                  #  (12)
003162:                                                                                                  #  RCS (WBODYS,ADOTS)
003163:                                                                                                  #  TVC(OMEGACS,OMEGABS)
003164:
003165:
003166:                                                                                                  #        TVC DAP TEMPORARY VARIABLES************************************
003167:
003168:                                                                                                  #        TVC DAP INTERUPT TRUE TEMPORARIES******************************
003169:
003170: E6,1570  E6,1535               PHI333             EQUALS   INTTEMP                               #  B(1)     COUNTING REGISTER
003171: E6,1570  E6,1536               PSI333             EQUALS   PHI333     +1                         #  B(1)     COUNTING REGISTER
003172: E6,1570  E6,1537               TEMP333            EQUALS   PSI333     +1                         #  B(1)     MASS TEMPORARY
003173: E6,1570  E6,1540               VARST0             EQUALS   TEMP333    +1                         #  B(8)     BREAKPOINTS AND SLOPES
003174: E6,1570  E6,1545               VARST5             =        VARST0     +5
003175: E6,1570  E6,1551               LASTMASP           EQUALS   VARST0     +9D                        #  LAST VARST0 WORD
003176:
003177:
003178:
003179:
003180:                                                                                                  #        *******REGULAR TVC TEMPORARIES*************
003181:
003182:
003183:                                                                                                  #        TVC ZEROING LOOP STARTS HERE
003184:
003185:
003186: E6,1570  E6,1554               OMEGAC             EQUALS   TVCRCS                                #  I(6)
003187: E6,1570  E6,1554               OMEGAXC            =        OMEGAC
003188: E6,1570  E6,1556               OMEGAYC            =        OMEGAC     +2
003189: E6,1570  E6,1560               OMEGAZC            =        OMEGAC     +4
003190:
003191: E6,1570  E6,1562               OMEGAB             EQUALS   TVCRCS     +6                         #  B(6)
003192: E6,1570  E6,1562               OMEGAXB            =        OMEGAB
003193: E6,1570  E6,1564               OMEGAYB            =        OMEGAB     +2
003194: E6,1570  E6,1566               OMEGAZB            =        OMEGAB     +4
003195:
003196: E6,1570  E6,1570               PTMP1              EQUALS   OMEGAC     +12D                       #  B(2)
003197: E6,1570  E6,1572               PTMP2              EQUALS   PTMP1      +2                         #  B(2)
003198: E6,1570  E6,1574               PTMP3              EQUALS   PTMP2      +2                         #  B(2)
003199: E6,1570  E6,1576               PTMP4              EQUALS   PTMP3      +2                         #  B(2)
003200: E6,1570  E6,1600               PTMP5              EQUALS   PTMP4      +2                         #  B(2)
003201: E6,1570  E6,1602               PTMP6              EQUALS   PTMP5      +2                         #  B(2)
003202:
003203: E6,1570  E6,1604               YTMP1              EQUALS   PTMP6      +2                         #  B(2)
003204: E6,1570  E6,1606               YTMP2              EQUALS   YTMP1      +2                         #  B(2)
003205: E6,1570  E6,1610               YTMP3              EQUALS   YTMP2      +2                         #  B(2)
003206: E6,1570  E6,1612               YTMP4              EQUALS   YTMP3      +2                         #  B(2)
003207: E6,1570  E6,1614               YTMP5              EQUALS   YTMP4      +2                         #  B(2)
003208: E6,1570  E6,1616               YTMP6              EQUALS   YTMP5      +2                         #  B(2)
003209:
003210: E6,1570  E6,1620               ROLLFIRE           EQUALS   YTMP6      +2                         #  B(1)
003211: E6,1570  E6,1621               ROLLWORD           EQUALS   ROLLFIRE   +1                         #  B(1)
003212: E6,1570  E6,1622               TEMREG             EQUALS   ROLLWORD   +1                         #  B(1)
003213:
003214: E6,1570  E6,1623               TVCDUMMY           EQUALS   TEMREG     +1                         #  DUMMY (NEED EVEN NUMBER OF LOCATIONS)
003215: E6,1570  E6,1624               PERRB              EQUALS   TVCDUMMY   +1                         #  B(2)
003216: E6,1570  E6,1626               YERRB              EQUALS   PERRB      +2                         #  B(2)
003217:
003218: E6,1570  E6,1630               DELPBAR            EQUALS   YERRB      +2                         #  B(2)
003219: E6,1570  E6,1632               DELYBAR            EQUALS   DELPBAR    +2                         #  B(2)
003220:
003221: E6,1570  E6,1634               PDELOFF            EQUALS   DELYBAR    +2                         #  B(2)
003222: E6,1570  E6,1636               YDELOFF            EQUALS   PDELOFF    +2                         #  B(2)
003223:
003224:
003225:                                                                                                  #        TVC ZEROING LOOP ENDS HERE
003226:
003227:
003228: E6,1570  E6,1640               TTMP1              EQUALS   YDELOFF    +2                         #  B(2)
003229: E6,1570  E6,1642               TTMP2              EQUALS   TTMP1      +2                         #  B(2)
003230:
003231: E6,1570  E6,1644               DAP1               EQUALS   TTMP2      +2                         #  B(2)
003232: E6,1570  E6,1646               DAP2               EQUALS   DAP1       +2                         #  B(2)
003233: E6,1570  E6,1650               DAP3               EQUALS   DAP2       +2                         #  B(2)
003234:
003235: E6,1570  E6,1652               PCMD               EQUALS   DAP3       +2                         #  B(1)
003236: E6,1570  E6,1653               YCMD               EQUALS   PCMD       +1                         #  B(1),  CONSECUTIVE WITH PCMD
003237: E6,1570  E6,1654               T5TVCDT            EQUALS   YCMD       +1                         #  B(1)
003238: E6,1570  E6,1655               KPRIMEDT           EQUALS   T5TVCDT    +1                         #  I(2)
003239: E6,1570  E6,1657               KTLX/I             EQUALS   KPRIMEDT   +2                         #  B(1)
003240: E6,1570  E6,1660               1/CONACC           EQUALS   KTLX/I     +1                         #  B(1)
003241: E6,1570  E6,1661               VARK               EQUALS   1/CONACC   +1                         #  B(1)
003242: E6,1570  E6,1662               REPFRAC            EQUALS   VARK       +1                         #  B(1)
003243: E6,1570  E6,1663               VCNTR              EQUALS   REPFRAC    +1                         #  B(1)
003244: E6,1570  E6,1664               TVCPHASE           EQUALS   VCNTR      +1                         #  B(1)
003245: E6,1570  E6,1665               PCDUYPST           EQUALS   TVCPHASE   +1                         #  B(1)
003246: E6,1570  E6,1666               PCDUZPST           EQUALS   PCDUYPST   +1                         #  B(1)
003247: E6,1570  E6,1667               YCDUYPST           EQUALS   PCDUZPST   +1                         #  B(1)
003248: E6,1570  E6,1670               YCDUZPST           EQUALS   YCDUYPST   +1                         #  B(1)
003249: E6,1570  E6,1671               MCDUYDOT           EQUALS   YCDUZPST   +1                         #  B(1)
003250: E6,1570  E6,1672               MCDUZDOT           EQUALS   MCDUYDOT   +1                         #  B(1)
003251: E6,1570  E6,1673               TVCEXPHS           EQUALS   MCDUZDOT   +1                         #  B(1)
003252:                                                                                                  #        TVC ROLL DAP VARIABLES
003253:
003254:                                                                                                  #  (8D)
003255: E6,1570  E6,1674               OGANOW             EQUALS   TVCEXPHS   +1
003256: E6,1570  E6,1675               OGAPAST            EQUALS   OGANOW     +1                         #  B(1)
003257: E6,1570  E6,1676               OGA                EQUALS   OGAPAST    +1                         #  B(1)TMP
003258: E6,1570  E6,1676               OGAERR             =        OGA                                   #  (ROLL DAP USES OGA, MEANS OGAERROR)
003259: E6,1570  E6,1677               DELOGART           EQUALS   OGA        +1                         #  B(1)TMP
003260: E6,1570  E6,1700               SGNRT              EQUALS   DELOGART   +1                         #  SIGN OF OGA RATE
003261: E6,1570  E6,1701               DELOGA             EQUALS   SGNRT      +1                         #  USED IN ROLL LOGIC
003262: E6,1570  E6,1702               I                  EQUALS   DELOGA     +1                         #  USED IN ROLL LOGIC
003263: E6,1570  E6,1703               IOGARATE           EQUALS   I          +1                         #  USED IN ROLL LOGIC
003264:
003265:                                                                                                  #        TVC DAP RESTART TEMPORARIES.
003266:
003267: E6,1570  E6,1704               PACTTMP            EQUALS   IOGARATE   +1                         #  B(2)
003268: E6,1570  E6,1706               YACTTMP            EQUALS   PACTTMP    +2                         #  B(2)
003269: E6,1570  E6,1710               CNTRTMP            EQUALS   YACTTMP    +2                         #  B(1)
003270: E6,1570  E6,1711               DELBRTMP           EQUALS   CNTRTMP    +1                         #  B(2)
003271: E6,1570  E6,1713               ERRBTMP            EQUALS   DELBRTMP   +2                         #  B(2)
003272: E6,1570  E6,1715               CMDTMP             EQUALS   ERRBTMP    +2                         #  B(2)
003273:
003274: E6,1570  E6,1717               TMP1               EQUALS   CMDTMP     +2                         #  B(2)
003275: E6,1570  E6,1721               TMP2               EQUALS   TMP1       +2                         #  B(2)
003276: E6,1570  E6,1723               TMP3               EQUALS   TMP2       +2                         #  B(2)
003277: E6,1570  E6,1725               TMP4               EQUALS   TMP3       +2                         #  B(2)
003278: E6,1570  E6,1727               TMP5               EQUALS   TMP4       +2                         #  B(2)
003279: E6,1570  E6,1731               TMP6               EQUALS   TMP5       +2                         #  B(2)
003280:
003281:                                                                                                  #        TVC DAP FILTER COEFFICIENTS TEMPORARIES
003282:
003283: E6,1570  E6,1733               COEFFADR           EQUALS   TMP6       +2                         #  B(1)
003284: E6,1570  E6,1734               N10                EQUALS   COEFFADR   +1                         #  I(15)
003285:
003286:
003287:                                                                                                  #        OVERLAYS WITHIN TVC DAP
003288:
003289: E6,1570  E6,1562               OGARATE            =        OMEGAB                                #  B(2)
003290:
003291: E6,1570  E6,1640               PHASETMP           =        TTMP1                                 #  B(1) RESTART FOR CSM/LM V46 SWITCH-OVER
003292: E6,1570  E6,1642               RTRNLOC            =        TTMP2                                 #  B(1) RESTART FOR CSM/LM V46 SWITCH-OVER
003293:
003294:
003295:
003296:                                                                                                  #        S40.9 STORAGE..........
003297:
003298: E6,1570  E6,1753               NBRCYCLS           EQUALS   N10        +15D                       #  B(1) COUNTER FOR P40,41 STEERING
003299: E6,1570  E6,1754               NBRCYCLP           EQUALS   NBRCYCLS   +1                         #  B(1) MAINTAIN ORDER
003300: E6,1570  E6,1755               DELVSUM            EQUALS   NBRCYCLP   +1                         #  I(6)  P40,P41
003301: E6,1570  E6,1763               DELVSUMP           EQUALS   DELVSUM    +6                         #  I(6) P40,P41
003302:
003303:
003304:                                                                                                  #        S40.8 TEMPORARY
003305:
003306: E6,1570  E6,1763               MASSTMP            EQUALS   DELVSUMP                              #  I(2)
003307:
003308:
003309:                                                                                                  #  ******** RCS DAP TEMPORARY VARIABLES.**********************************(95D)
003310:
003311:                                                                                                  #           **RCS INTERUPT TRUE TEMPS*************************            15D
003312:
003313: E6,1570  E6,1535               SPNDX              EQUALS   INTTEMP                               #  B(1)
003314: E6,1570  E6,1536               DPNDX              EQUALS   SPNDX      +1                         #  B(1)TMP
003315: E6,1570  E6,1537               KMPAC              EQUALS   DPNDX      +1                         #  B(2)TMP
003316: E6,1570  E6,1541               KMPTEMP            EQUALS   KMPAC      +2                         #  B(1)TMP
003317:
003318: E6,1570  E6,1542               XNDX1              EQUALS   KMPTEMP    +1                         #  B(1)TMP  XNDX1 THRU NYJETS ARE OVERLAYED
003319: E6,1570  E6,1543               XNDX2              EQUALS   XNDX1      +1                         #  B(1)TMP  BY OTHER DAP ERASABLES SO
003320: E6,1570  E6,1544               YNDX               EQUALS   XNDX2      +1                         #  B(1)TMP  SHOULD ALWAYS BE DEFINED IN
003321: E6,1570  E6,1545               ZNDX               EQUALS   YNDX       +1                         #  B(1)TMP  A BLOCK
003322: E6,1570  E6,1546               RINDEX             EQUALS   ZNDX       +1                         #  B(1)TMP
003323: E6,1570  E6,1547               PINDEX             EQUALS   RINDEX     +1                         #  B(1)TMP
003324: E6,1570  E6,1550               YINDEX             EQUALS   PINDEX     +1                         #  B(1)TMP
003325: E6,1570  E6,1551               NRJETS             EQUALS   YINDEX     +1                         #  B(1)TMP
003326: E6,1570  E6,1552               NPJETS             EQUALS   NRJETS     +1                         #  B(1)TMP
003327: E6,1570  E6,1553               NYJETS             EQUALS   NPJETS     +1                         #  B(1)TMP
003328:
003329: E6,1570  E6,1542               WTEMP              EQUALS   XNDX1                                 #  B(2)TMP  WTEMP THRU DELTEMPZ OVERLAY
003330: E6,1570  E6,1544               DELTEMPX           EQUALS   WTEMP      +2                         #  B(2)TMP  XNDX1 THRU NRJETS AND EDOT THRU
003331: E6,1570  E6,1546               DELTEMPY           EQUALS   DELTEMPX   +2                         #  B(2)TMP  ADBVEL
003332: E6,1570  E6,1550               DELTEMPZ           EQUALS   DELTEMPY   +2                         #  B(2)TMP
003333:
003334: E6,1570  E6,1544               EDOT               EQUALS   YNDX                                  #  B(2)TMP  EDOT THRU ADBVEL OVERLAY
003335: E6,1570  E6,1546               AERR               EQUALS   EDOT       +2                         #  B(1)TMP  YNDX THRU NPJETS AND DELTEMPX
003336: E6,1570  E6,1547               EDOTVEL            EQUALS   AERR       +1                         #  B(2)TMP   THRU DELTEMPZ
003337: E6,1570  E6,1551               AERRVEL            EQUALS   EDOTVEL    +2                         #  B(1)TMP
003338: E6,1570  E6,1552               ADBVEL             EQUALS   AERRVEL    +1                         #  B(1)TMP
003339:
003340: E6,1570  E6,1550               TT                 EQUALS   YINDEX                                #  B(1)TMP
003341: E6,1570  E6,1551               TLEFT              EQUALS   TT         +1                         #  B(1)TMP
003342: E6,1570  E6,1553               DELFLG             EQUALS   TLEFT      +2                         #  B(1)TMP
003343:
003344:                                                                                                  #           *** REGULAR RCS TEMPS*****************************           (   ).
003345:
003346:                                                                                                  #            RCS ZEROING LOOP STARTS HERE**** ** **  ** ***   *** * *    (39)
003347:
003348: E6,1570  E6,1554               WBODY              EQUALS   TVCRCS                                #  B(2)TMP
003349: E6,1570  E6,1556               WBODY1             EQUALS   WBODY      +2                         #  B(2)TMP
003350: E6,1570  E6,1560               WBODY2             EQUALS   WBODY      +4                         #  B(2)TMP
003351: E6,1570  E6,1562               ADOT               EQUALS   WBODY2     +2                         #  B(2)TMP
003352: E6,1570  E6,1564               ADOT1              EQUALS   ADOT       +2                         #  B(2)TMP
003353: E6,1570  E6,1566               ADOT2              EQUALS   ADOT1      +2                         #  B(2)TMP
003354:
003355: E6,1570  E6,1570               MERRORX            EQUALS   ADOT2      +2                         #   (2)
003356: E6,1570  E6,1572               MERRORY            EQUALS   MERRORX    +2                         #   (2)
003357: E6,1570  E6,1574               MERRORZ            EQUALS   MERRORY    +2                         #   (2)
003358: E6,1570  E6,1576               DFT                EQUALS   MERRORZ    +2                         #          B(1)TMP
003359: E6,1570  E6,1577               DFT1               EQUALS   DFT        +1                         #  B(1)TMP
003360: E6,1570  E6,1600               DFT2               EQUALS   DFT1       +1                         #  B(1)TMP
003361: E6,1570  E6,1601               DRHO               EQUALS   DFT2       +1                         #  B(2)TMP
003362: E6,1570  E6,1603               DRHO1              EQUALS   DRHO       +2                         #  B(2)TMP
003363: E6,1570  E6,1605               DRHO2              EQUALS   DRHO1      +2                         #  B(2)TMP
003364: E6,1570  E6,1607               ATTSEC             EQUALS   DRHO2      +2                         #  B(1)TMP
003365: E6,1570  E6,1610               TAU                EQUALS   ATTSEC     +1                         #  B(1)TMP
003366: E6,1570  E6,1611               TAU1               EQUALS   TAU        +1                         #  B(1)TMP
003367: E6,1570  E6,1612               TAU2               EQUALS   TAU1       +1                         #  B(1)TMP
003368: E6,1570  E6,1613               TRCOMPAC           EQUALS   TAU2       +1                         #  B(1)TMP
003369: E6,1570  E6,1614               TRCOMPBD           EQUALS   TRCOMPAC   +1                         #  B(1)TMP
003370: E6,1570  E6,1615               BIAS               EQUALS   TRCOMPBD   +1                         #  B(1)TMP
003371: E6,1570  E6,1616               BIAS1              EQUALS   BIAS       +1                         #  B(1)TMP
003372: E6,1570  E6,1617               BIAS2              EQUALS   BIAS1      +1                         #  B(1)TMP
003373: E6,1570  E6,1620               ERRORX             EQUALS   BIAS2      +1                         #  B(1)TMP
003374: E6,1570  E6,1621               ERRORY             EQUALS   ERRORX     +1                         #  B(1)TMP
003375: E6,1570  E6,1622               ERRORZ             EQUALS   ERRORY     +1                         #  B(1)TMP
003376:
003377:
003378:
003379:                                                                                                  #        RCS ZERO LOOP ENDS HERE
003380:
003381:
003382:                                                                                                  #             MORE RCS                                                   (69D)
003383:
003384:
003385: E6,1570  E6,1623               THETADX            EQUALS   ERRORZ     +1                         #  B(1)TMP  MUST BE CONSECUTIVE WITH ERRORZ
003386: E6,1570  E6,1624               THETADY            EQUALS   THETADX    +1                         #  B(1)TMP
003387: E6,1570  E6,1625               THETADZ            EQUALS   THETADY    +1                         #  B(1)TMP
003388:
003389: E6,1570  E6,1626               DELCDUX            EQUALS   THETADZ    +1                         #  B(2)TMP
003390: E6,1570  E6,1630               DELCDUY            EQUALS   DELCDUX    +2                         #  B(2)TMP
003391: E6,1570  E6,1632               DELCDUZ            EQUALS   DELCDUY    +2                         #  B(2)TMP
003392:
003393: E6,1570  E6,1634               DCDU               EQUALS   DELCDUZ    +2                         #  B(6)TMP USED DURING P20
003394: E6,1570  E6,1642               DTHETASM           EQUALS   DCDU       +6                         #  B(6)TMP STEER LOW OUTPUT.
003395:
003396: E6,1570  E6,1650               ATTKALMN           EQUALS   DTHETASM   +6                         #  B(1)TMP
003397: E6,1570  E6,1651               KMJ                EQUALS   ATTKALMN   +1                         #  B(1)TMP
003398: E6,1570  E6,1652               KMJ1               EQUALS   KMJ        +1                         #  B(1)TMP
003399: E6,1570  E6,1653               KMJ2               EQUALS   KMJ1       +1                         #  B(1)TMP
003400: E6,1570  E6,1654               J/M                EQUALS   KMJ2       +1                         #  B(1)TMP
003401: E6,1570  E6,1655               J/M1               EQUALS   J/M        +1                         #  B(1)TMP
003402: E6,1570  E6,1656               J/M2               EQUALS   J/M1       +1                         #  B(1)TMP
003403: E6,1570  E6,1657               RACFAIL            EQUALS   J/M2       +1                         #  B(1)TMP
003404: E6,1570  E6,1660               RBDFAIL            EQUALS   RACFAIL    +1                         #  B(1)TMP
003405: E6,1570  E6,1661               ACORBD             EQUALS   RBDFAIL    +1                         #  B(1)TMP
003406: E6,1570  E6,1662               XTRANS             EQUALS   ACORBD     +1                         #  B(1)TMP
003407: E6,1570  E6,1663               CH31TEMP           EQUALS   XTRANS     +1                         #  B(1)TMP
003408: E6,1570  E6,1664               CHANTEMP           EQUALS   CH31TEMP   +1                         #  B(1)TMP
003409: E6,1570  E6,1665               T5TIME             EQUALS   CHANTEMP   +1                         #  B(1)TMP
003410: E6,1570  E6,1666               RHO                EQUALS   T5TIME     +1                         #  B(1)TMP
003411: E6,1570  E6,1667               RHO1               EQUALS   RHO        +1                         #  B(1)TMP
003412: E6,1570  E6,1670               RHO2               EQUALS   RHO1       +1                         #  B(1)TMP
003413: E6,1570  E6,1671               AMGB1              EQUALS   RHO2       +1                         #  B(1)TMP
003414: E6,1570  E6,1672               AMGB4              EQUALS   AMGB1      +1                         #  B(1)TMP
003415: E6,1570  E6,1673               AMGB5              EQUALS   AMGB4      +1                         #  B(1)TMP
003416: E6,1570  E6,1674               AMGB7              EQUALS   AMGB5      +1                         #  B(1)TMP
003417: E6,1570  E6,1675               AMGB8              EQUALS   AMGB7      +1                         #  B(1)TMP
003418: E6,1570  E6,1676               CAPSI              EQUALS   AMGB8      +1                         #  B(1)TMP
003419: E6,1570  E6,1677               CDUXD              EQUALS   CAPSI      +1                         #  B(2)TMP
003420: E6,1570  E6,1701               CDUYD              EQUALS   CDUXD      +2                         #  B(2)TMP
003421: E6,1570  E6,1703               CDUZD              EQUALS   CDUYD      +2                         #  B(2)TMP
003422: E6,1570  E6,1705               SLOPE              EQUALS   CDUZD      +2                         #  B(1)TMP
003423: E6,1570  E6,1706               ADB                EQUALS   SLOPE      +1                         #  B(1)TMP
003424: E6,1570  E6,1707               RMANNDX            EQUALS   ADB        +1                         #  B(1)TMP
003425: E6,1570  E6,1710               PMANNDX            EQUALS   RMANNDX    +1                         #  B(1)TMP
003426: E6,1570  E6,1711               YMANNDX            EQUALS   PMANNDX    +1                         #  B(1)TMP  MUST BE LAST VARIABLE IN RCS
003427:
003428:
003429:                                                                                                  #        MORE DOCKED DAP                                         (4D)
003430: E6,1570  E6,1657               T5TEMP2            EQUALS   RACFAIL                               #  B(1)TMP
003431: E6,1570  E6,1660               NEXT6INT           EQUALS   T5TEMP2    +1                         #  B(1)TMP
003432: E6,1570  E6,1661               5WORD              EQUALS   NEXT6INT   +1                         #  B(1)TMP
003433: E6,1570  E6,1662               6WORD              EQUALS   5WORD      +1                         #  B(1)TMP
003434:
003435: E6,1570  E6,1707               TAUZ               EQUALS   RMANNDX                               #  B(1)TMP
003436: E6,1570  E6,1710               TAUY               EQUALS   TAUZ       +1                         #  B(1)TMP
003437:
003438:
003439:                                                                                                  #  ******** ENTRY DAP TEMPORARY VARIABLES.*********************************(69D)
003440:
003441:                                                                                                  #   ANGLE REGISTERS FOR ENTRY DAPS
003442:
003443: E6,1570  E6,1712               AOG                EQUALS   BCDU                                  #  1P
003444: E6,1570  E6,1713               AIG                EQUALS   AOG        +1                         #  1P
003445: E6,1570  E6,1714               AMG                EQUALS   AIG        +1                         #  1P
003446: E6,1570  E6,1715               ROLL/180           EQUALS   AMG        +1                         #  1P
003447: E6,1570  E6,1716               ALFA/180           EQUALS   ROLL/180   +1                         #  1P
003448: E6,1570  E6,1717               BETA/180           EQUALS   ALFA/180   +1                         #  1P
003449: E6,1570  E6,1720               AOG/PIP            EQUALS   BETA/180   +1                         #  1P
003450: E6,1570  E6,1721               AIG/PIP            EQUALS   AOG/PIP    +1                         #  1P
003451: E6,1570  E6,1722               AMG/PIP            EQUALS   AIG/PIP    +1                         #  1P
003452: E6,1570  E6,1723               ROLL/PIP           EQUALS   AMG/PIP    +1                         #  1P
003453: E6,1570  E6,1724               ALFA/PIP           EQUALS   ROLL/PIP   +1                         #  1P
003454: E6,1570  E6,1725               BETA/PIP           EQUALS   ALFA/PIP   +1                         #  1P
003455:
003456:                                                                                                  #  GYMBAL DIFFERENCES OVER INTERVAL TCDU = .1 SEC.
003457:
003458: E6,1570  E6,1726               -DELAOG            EQUALS   BETA/PIP   +1                         #  1P
003459: E6,1570  E6,1727               -DELAIG            EQUALS   -DELAOG    +1                         #  1P
003460: E6,1570  E6,1730               -DELAMG            EQUALS   -DELAIG    +1                         #  1P
003461:
003462:                                                                                                  #  ESTIMATED BODY RATES
003463:
003464: E6,1570  E6,1731               CMDAPMOD           EQUALS   -DELAMG    +1                         #  1P  GOES BEFORE PREL FOR TM.
003465:
003466: E6,1570  E6,1732               PREL               EQUALS   CMDAPMOD   +1                         #  1P   P TCDU/180      (ROLLDOT)
003467: E6,1570  E6,1733               QREL               EQUALS   PREL       +1                         #  1P   Q TCDU/180     (PITCHDOT)
003468: E6,1570  E6,1734               RREL               EQUALS   QREL       +1                         #  1P   R TCDU/180     (YAWDOT)
003469:
003470: E6,1570  E6,1735               BETADOT            EQUALS   RREL       +1                         #  1P  MUST FOLLOW RREL. BETADOT TCDU/180
003471: E6,1570  E6,1736               PHIDOT             EQUALS   BETADOT    +1                         #  1P
003472:
003473:                                                                                                  #  OLD (UNAVERAGED) BODY RATE MEASURE
003474:
003475: E6,1570  E6,1737               OLDELP             EQUALS   PHIDOT     +1                         #  1P
003476: E6,1570  E6,1740               OLDELQ             EQUALS   OLDELP     +1                         #  1P
003477: E6,1570  E6,1741               OLDELR             EQUALS   OLDELQ     +1                         #  1P
003478:
003479: E6,1570  E6,1742               JETAG              EQUALS   OLDELR     +1                         #  1P
003480: E6,1570  E6,1743               TUSED              EQUALS   JETAG      +1                         #  1P   ELAPSED TIME SINCE NOMINAL UPDATE.
003481:
003482:
003483:
003484:                                                                                                  #        FOLLOWING 3 SP WORDS IN DOWNLINK.  ROLLTM SENT EACH 1 SEC.
003485:
003486: E6,1570  E6,1744               PAXERR1            EQUALS   TUSED      +1                         #  1P   INTEGRATED ROLL ERROR/360.
003487: E6,1570  E6,1745               ROLLTM             EQUALS   PAXERR1    +1                         #  1P   ROLL/180 FOR TM.
003488: E6,1570  E6,1746               ROLLC              EQUALS   ROLLTM     +1                         #  2P   ROLLCOM/360 FROM ENTRY (FOR TM)
003489:                                                                                                  #  >> KEEP ROLLC & ROLLHOLD ADJACENT FOR TP
003490: E6,1570  E6,1750               ROLLHOLD           EQUALS   ROLLC      +2                         #  1P FOR ATTITUDE HOLD IN CMDAPMOD = +1
003491:
003492:                                                                                                  #        ENTRY DAP QUANTITIES THAT SHARE WITH RCS DAP.
003493:
003494: E6,1570  E6,1634               ALFACOM            EQUALS   DCDU                                  #  1P  KEEP ADJACENT TO BETACOM.  <<
003495: E6,1570  E6,1635               BETACOM            EQUALS   ALFACOM    +1                         #  1P
003496:
003497:                                                                                                  #  JET LIST:   DT, JETBITS  IN THIS ORDER.
003498:
003499: E6,1570  E6,1636               TOFF               EQUALS   BETACOM    +1                         #  1P   DP PAIR
003500: E6,1570  E6,1637               TBITS              EQUALS   TOFF       +1                         #  1P
003501: E6,1570  E6,1640               TON2               EQUALS   TBITS      +1                         #  1P   DP PAIR
003502: E6,1570  E6,1641               T2BITS             EQUALS   TON2       +1                         #  1P
003503:
003504:                                                                                                  #   MISCELLANEOUS PERMANENT ERASEABLE.
003505:
003506: E6,1570  E6,1642               OUTTAG             EQUALS   T2BITS     +1                         #  1P
003507: E6,1570  E6,1643               NUJET              EQUALS   OUTTAG     +1                         #  1P
003508:                                                                                                  #     MORE ENTRY DAP QUANTITIES THAT  DO NOT SHARE WITH RCS DAP.
003509:
003510: E6,1570  E6,1751               JETEM              EQUALS   ROLLHOLD   +1                         #  2P  THIS DP USED IN RATEAVG.
003511: E6,1570  E6,1753               GAMA               EQUALS   JETEM      +2                         #  1P
003512: E6,1570  E6,1754               GAMDOT             EQUALS   GAMA       +1                         #  1P
003513: E6,1570  E6,1755               POSEXIT            EQUALS   GAMDOT     +1                         #  1P
003514: E6,1570  E6,1756               CM/GYMDT           EQUALS   POSEXIT    +1                         #  1P
003515: E6,1570  E6,1757               HEADSUP            EQUALS   CM/GYMDT   +1                         #  1P  DSP NOUN 61 FOR P62,63,64,67.
003516: E6,1570  E6,1760               P63FLAG            EQUALS   HEADSUP    +1                         #  1P  INTERLOCK FOR WAKEP62
003517:
003518:
003519:                                                                                                  #                                >> SHARE BELOW WITH RCS RUPT TEMPS (< 15D) <<<
003520: E6,1570  E6,1535               CALFA              EQUALS   SPNDX                                 #  1P
003521: E6,1570  E6,1536               SALFA              EQUALS   CALFA      +1                         #  1P
003522:
003523: E6,1570  E6,1537               SINM               EQUALS   SALFA      +1                         #  1P
003524: E6,1570  E6,1540               COSM               EQUALS   SINM       +1                         #  1P
003525: E6,1570  E6,1541               SINO               EQUALS   COSM       +1                         #  1P
003526: E6,1570  E6,1542               COSO               EQUALS   SINO       +1                         #  1P
003527: E6,1570  E6,1543               SINOCOSM           EQUALS   COSO       +1                         #  1P
003528: E6,1570  E6,1544               COSOCOSM           EQUALS   SINOCOSM   +1                         #  1P
003529:                                                                                                  #                                >> SHARE ABOVE WITH RCS RUPT TEMPS          <<<
003530:
003531:                                                                                                  #        THE FOLLOWING FEW REGISTERS USED ONCE EACH 2 SEC.
003532:
003533: E6,1570  E6,1644               -VT/180            EQUALS   NUJET      +1                         #  1P
003534: E6,1570  E6,1645               LCX/360            EQUALS   -VT/180    +1                         #  1P
003535: E6,1570  E6,1646               XD/360             EQUALS   LCX/360    +1                         #  1P
003536: E6,1570  E6,1647               VSQ/4API           EQUALS   XD/360     +1                         #  1P
003537: E6,1570  E6,1650               JNDX               EQUALS   VSQ/4API   +1                         #  1P
003538: E6,1570  E6,1651               JNDX1              EQUALS   JNDX       +1                         #  1P
003539: E6,1570  E6,1652               TON1               EQUALS   JNDX1      +1                         #  1P   DP PAIR
003540: E6,1570  E6,1653               T1BITS             EQUALS   TON1       +1                         #  1P
003541:
003542:                                                                                                  #        MISCELLANEOUS REGISTERS USED EACH UPDATE.
003543:
003544: E6,1570  E6,1654               CM/SAVE            EQUALS   T1BITS     +1                         #  1P
003545: E6,1570  E6,1655               JETEM2             EQUALS   CM/SAVE    +1                         #  1P  TEMPORARY STORAGE
003546:
003547:                                                                                                  #        DAP   QUANTITIES SHARED WITH RCS DAP FOR TM & FLIGHT RECORDER.
003548:
003549: E6,1570  E6,1620               VDT/180            =        ERRORX                                #  1P   (EDIT)
003550: E6,1570  E6,1621               -VT/180E           =        ERRORY                                #  1P   (EDIT)
003551:
003552: E6,1570  E6,1525               PAXERR             EQUALS   AK                                    #  1P  ROLL ERROR FOR NEEDLES
003553: E6,1570  E6,1623               QAXERR             =        THETADX                               #  1P  SINCE AK1 IS ZEROED IN ATM DAP.
003554: E6,1570  E6,1624               RAXERR             =        QAXERR     +1                         #  1P  SINCE AK2 IS ZEROED IN TM DAP.
003555:
003556:
003557:
003558:                                                                                                  #        **** COLMANU (R60,R62) ****
003559:
003560: E6,1570  E6,1741               VECQTEMP           EQUALS   COFSKEW
003561:
003562:
003563:                                                                                                  #  ******** KALCMANU VARIABLES. (71D) *************************************
003564: E6,1570  E6,1712               BCDU               EQUALS   YMANNDX    +1                         #  B(3) TMP
003565: E6,1570  E6,1715               KSPNDX             EQUALS   BCDU       +3                         #  B(1)TMP
003566: E6,1570  E6,1716               KDPNDX             EQUALS   KSPNDX     +1                         #  B(1)TMP
003567:
003568: E6,1570  E6,1717               TMIS               EQUALS   KDPNDX     +1                         #  I(18) MUST BE IN SAME BANK AS RCS DAP
003569: E6,1570  E6,1741               COFSKEW            EQUALS   TMIS       +18D                       #  I(6)  MUST BE IN SAME BANK AS RCS DAP
003570: E6,1570  E6,1747               CAM                EQUALS   COFSKEW    +6                         #  I(2)  MUST BE IN SAME BANK AS RCS DAP
003571:
003572: E6,1570  E6,1751               AM                 EQUALS   CAM        +2                         #  I(2)TMP
003573: E6,1570  E6,1753               SCAXIS             EQUALS   AM         +2                         #  I(6)TMP
003574: E6,1570  E6,1761               POINTVSM           EQUALS   SCAXIS     +6                         #  I(6)TMP
003575:
003576:
003577:                                                                                                  #  FIRST-ORDER OVERLAYS IN KALCMANU                                      (12D+8D)
003578:
003579: E6,1570  E6,1717               MFISYM             EQUALS   TMIS                                  #  I   TMP
003580: E6,1570  E6,1717               TMFI               EQUALS   TMIS                                  #  I   TMP
003581: E6,1570  E6,1717               NCDU               EQUALS   TMIS                                  #  B   TMP
003582: E6,1570  E6,1722               NEXTIME            EQUALS   TMIS       +3                         #  B   TMP
003583: E6,1570  E6,1723               TTEMP              EQUALS   TMIS       +4                         #  B   TMP
003584: E6,1570  E6,1725               BIASTEMP           EQUALS   TMIS       +6                         #  B   TMP
003585: E6,1570  E6,1741               BRATE              EQUALS   COFSKEW                               #  B   TMP
003586: E6,1570  E6,1747               TM                 EQUALS   CAM                                   #  B   TMP
003587:
003588:                                                                                                  #        UT TEMPS
003589:
003590: E6,1570  E6,1753               UTX                EQUALS   SCAXIS                                #  I(6)
003591: E6,1570  E6,1761               UTY                EQUALS   POINTVSM                              #  I(6)
003592:
003593:
003594:                                                                                                  #        SATURN BOOST STORAGE. SAVE TILL RCS DAP OPERATION.              (17D)
003595:
003596: E6,1570  E6,1712               POLYNUM            EQUALS   BCDU                                  #  B(15) PAD LOADED
003597: E6,1570  E6,1724               POLYLOC            =        POLYNUM    +10D
003598: E6,1570  E6,1731               SATRLRT            EQUALS   POLYNUM    +15D                       #  B(2)  PAD LOADED
003599:
003600:
003601:
003602:                                                                                                  #        MORE P11 STORAGE -PAD LOADED-                                   (2D)
003603:
003604:                                                                                                  #        (NOTE: THIS PAD LOAD WILL NOT BE PRESERVED THROUGHOUT THE MISSION AS IT SHARES STORAGE WITH KALCMANU,
003605:                                                                                                  #         ENTRY DAP AND TVC DAP)
003606:
003607: E6,1570  E6,1733               RPSTART            EQUALS   SATRLRT    +2                         #  B(1) PITCH ROLL START TIME
003608: E6,1570  E6,1734               POLYSTOP           EQUALS   RPSTART    +1                         #  B(1) POLY CUTOFF MINUS RPSTART SEC
003609:
003610:
003611:
003612:                                                                                                  #        P11 STORAGE                                                     (4D)
003613:
003614: E6,1570  E6,1735               SPOLYARG           EQUALS   POLYSTOP   +1                         #  B(1)TMP ARG FOR POLY
003615: E6,1570  E6,1736               BOOSTEMP           EQUALS   SPOLYARG   +1                         #  B(3)TEMP
003616:
003617:
003618:                                                                                                  #  P11 SATURN I/F                                                        (9D)
003619:
003620: E6,1570  E6,1741               SATRATE            EQUALS   BOOSTEMP   +3                         #  B(4)PL MANEUVER RATES FOR SATURN STICK
003621: E6,1570  E6,1745               SATSW              EQUALS   SATRATE    +4                         #  B(1)TEM STATUS SW FOR BOOST TAKEOVER
003622: E6,1570  E6,1746               BIASAK             EQUALS   SATSW      +1                         #  B(3)TEM STORE AK BIAS FOR BOOST TAKEOVER
003623: E6,1570  E6,1751               SATSCALE           EQUALS   BIASAK     +3                         #  B(1) SCALE FACTOR FOR SATURN STEERING
003624:
003625:
003626:
003627:                                                                                                  #        P21 STORAGE.                                                    (4D)
003628:
003629: E6,1570  E6,1767               THETTEMP           EQUALS   POINTVSM   +6                         #  I(3)TMP
003630: E6,1570  E6,1772               GENRET             EQUALS   THETTEMP   +3                         #  B(1)TMP
003631:
003632:
003633:                                                                                                  #        R61CSM STORAGE.                                                 (1D)
003634:
003635: E6,1570  E6,1773               SAVBNK             EQUALS   GENRET     +1                         #  B(1) S-S SAVE EBANK FOR R61 SUBROUTINE
003636:
003637:
003638:                                                                                                  #  R67 STORAGE                                                           (1D)
003639:
003640: E6,1570  E6,1774               RATEPTC            EQUALS   SAVBNK     +1                         #  B(1)
003641:
003642:
003643:                                                                                                  #        PERMANENT STORAGE FOR P20 DEADBAND                              (1D)
003644:
003645: E6,1570  E6,1775               DBPTC              EQUALS   RATEPTC    +1                         #  B(1)
003646:
003647:
003648:                                                                                                  #  R61,R67 STORAGE.                                                      (1D)
003649:
003650:
003651: E6,1570  E6,1776               R61CNTR            EQUALS   DBPTC      +1                         #  B(1)
003652:                                                                                                  #        ENTRY RESTART PROTECTION STORAGE. -KEEP TEMPS IN ORDER-         (12D)
003653:
003654: E6,1570  E6,1772               TEMPROLL           EQUALS   GENRET                                #  B(1)TMP COPY CYCLE REGISTER
003655: E6,1570  E6,1773               TEMPALFA           EQUALS   TEMPROLL   +1                         #  B(1)TMP COPY CYCLE REGISTER
003656: E6,1570  E6,1774               TEMPBETA           EQUALS   TEMPALFA   +1                         #  B(1)TMP COPY CYCLE REGISTER
003657: E6,1570  E6,1775               60GENRET           EQUALS   TEMPBETA   +1                         #  B(1)TMP QSAVE FOR S61.1 AND ENTRY.
003658: E6,1570  E6,1776               S61DT              EQUALS   60GENRET   +1                         #  B(1)TMP VARIABLE DT FOR S61.1 RESTART.
003659:
003660:
003661:
003662:                                                                                                  #  ******** PAD LOADED ENTRY DAP STEERING VARIABLES ********             (1D)
003663:
003664: E6,1570  E6,1777               ALFAPAD            EQUALS   S61DT      +1                         #  B(1) PL ALFA TRIM / 180
003665:
003666:
003667:
003668:                                                                                                  #        ENTRY TM SHARING FOR ACCELERATION PROFILE.
003669:
003670: E6,1570  E6,1562               XPIPBUF            EQUALS   ADOT                                  #  B(1) PIPA BUFFER FOR TM DURING ENTRY.
003671: E6,1570  E6,1563               YPIPBUF            EQUALS   XPIPBUF    +1                         #  B(1) PIPS FILED HERE EACH .5 SEC APPEAR
003672: E6,1570  E6,1564               ZPIPBUF            EQUALS   YPIPBUF    +1                         #  B(1) ON DOWNLIST ONCE PER SECOND DURING
003673: E6,1570  E6,1565               XOLDBUF            EQUALS   ZPIPBUF    +1                         #  B(1) ENTRY AFTER RCS DAP HAS BEEN DIS-
003674: E6,1570  E6,1566               YOLDBUF            EQUALS   XOLDBUF    +1                         #  B(1) ABLED. NEWEST PIP VALUE REPLACES
003675: E6,1570  E6,1567               ZOLDBUF            EQUALS   YOLDBUF    +1                         #  B(1) PIPBUF,WHICH IS MOVED INTO OLDBUF.
003676:
003677:
003678:                                                                                                  #        REENTRY VARIABLES SHARED WITH RCS DAP FOR TM & FLIGHT RECORDER.
003679:
003680: E6,1570  E6,1625               Q7                 =        THETADZ                               #  I(2)   HI-WORD ONLY ON DNLIST.
003681:
003682: E6,1570  E6,1554               ASPS(TM)           =        WBODY                                 #  I(6) DWN
003683:
003684:
003685:                                                                                                  #                EBANK-7 ASSIGNMENTS
003686:
003687: E7,1400                                           SETLOC   3400
003688:
003689:
003690:                                                                                                  #        *-*-*-*- OVERLAY 0 IN EBANK 7 -*-*-*-*
003691:
003692:                                                                                                  #        EXTERNAL DELTA-V UPDATE.                                        (20D)
003693:
003694:                                                                                                  #        (MUST BE IN ORDER FOR UPDATE PROGRAM. ALSO ENTRY PROGRAMS PICK UP 'LAT(SPL)' WITH A VLOAD.)
003695:
003696: E7,1400                        LAT(SPL)           ERASE    +19D                                  #  I(2)      DSP NOUN 61 FOR P62,63,64,67
003697: E7,1424  E7,1402               LNG(SPL)           EQUALS   LAT(SPL)   +2                         #  I(2)DSP NOUN 61 FOR P62,63,64,67.
003698:
003699: E7,1424  E7,1404               DELVSLV            EQUALS   LNG(SPL)   +2                         #  I(6)TMP DELTA VEL VECT, LOC VER COORDS
003700: E7,1424  E7,1412               TIG                EQUALS   DELVSLV    +6                         #  B(2)DSP NOUN 33 FOR X-V84(R32),P30,40.
003701: E7,1424  E7,1414               RTARG              EQUALS   TIG        +2                         #  I(6)IN  DESIRED VEHICHE RADIUS VECTOR
003702: E7,1424  E7,1422               DELLT4             EQUALS   RTARG      +6                         #  I(2)IN  TIME DIFFERENCE FOR INITVEL
003703: E7,1424  E7,1404               DELVLVC            =        DELVSLV
003704: E7,1424                        END-DELV           ERASE                                          #  *NEXT AVAIL LOC AFTER UNSHARED E7*
003705:
003706:
003707:
003708:                                                                                                  #        SHORT BURN STORAGE. -PAD LOADED-                                (1D)
003709: E7,1425  E7,1424               SBDELT             EQUALS   END-DELV                              #  B(1)PL   FOR P40 S
003710:
003711:
003712:                                                                                                  #        SERVICER STORAGE.                                               (12D)
003713:
003714: E7,1425  E7,1425               DVTOTAL            EQUALS   SBDELT     +1                         #  B(2) DSP NOUN 40,99 FOR P30,34,35,40
003715: E7,1425  E7,1427               TGO                EQUALS   DVTOTAL    +2                         #  B(2)
003716: E7,1425  E7,1431               DELVREF            EQUALS   TGO        +2                         #  I(6)TMP
003717: E7,1425  E7,1447               NOMTIG             EQUALS   END-KALC                              #  I(2) (CAN NOT SHARE WITH KALCMANU
003718:                                                                                                  #  OR DELVREF)
003719: E7,1425  E7,1451               END-SVCR           EQUALS   NOMTIG     +2                         #  ***NEXT AVAILABLE AFTER SERVICER
003720:
003721:
003722:
003723:                                                                                                  #        ALIGNMENT STORAGE.                                              (7D)
003724:
003725: E7,1425  E7,1451               VEL/C              EQUALS   END-SVCR                              #  I(6)TMP
003726: E7,1425  E7,1457               R53EXIT            EQUALS   VEL/C      +6                         #  I(1)TMP
003727:
003728:                                                                                                  #        ALIGNMENT MARKDATA (DOWNLNK) ******                             (7D)
003729: E7,1425  E7,1460               MARK2DWN           EQUALS   R53EXIT    +1                         #  (7)  USED BY ALLIGNMENT P50S
003730:
003731:
003732:                                                                                                  #        *-*-*-*- OVERLAY 1 IN EBANK 7 -*-*-*-*
003733:
003734:                                                                                                  #  REENTRY ERASABLES                                                     (181D+4D)
003735:
003736: E7,1425  E7,1451               RTINIT             EQUALS   END-SVCR                              #  6P
003737: E7,1425  E7,1457               RTEAST             EQUALS   RTINIT     +6                         #  6P
003738: E7,1425  E7,1465               RTNORM             EQUALS   RTEAST     +6                         #  6P
003739: E7,1425  E7,1473               RT                 EQUALS   RTNORM     +6                         #  6P
003740: E7,1425  E7,1501               UNI                EQUALS   RT         +6                         #  6P
003741: E7,1425  E7,1507               UNITV              EQUALS   UNI        +6                         #  6P
003742: E7,1425  E7,1515               VEL                EQUALS   UNITV      +6                         #  6P
003743:
003744: E7,1425  E7,1523               TIME/RTO           EQUALS   VEL        +6                         #  2P   TIME OF INITIAL TARGET, RTO.
003745: E7,1425  E7,1525               -VREL              EQUALS   TIME/RTO   +2                         #  6P
003746: E7,1425  E7,1533               OLDUYA             EQUALS   -VREL      +6                         #  6P   USED BY CM/POSE    (ENTRY DAP)
003747: E7,1425  E7,1541               UXA/2              EQUALS   OLDUYA     +6                         #  6P   USED BY CM/POSE  (ENTRY DAP)  -UVA
003748: E7,1425  E7,1541               URH                =        UXA/2                                 #            P61 DISPLAY NOUN
003749: E7,1425  E7,1547               UYA/2              EQUALS   UXA/2      +6                         #  6P   USED BY CM/POSE  (ENTRY DAP)   UYA
003750: E7,1425  E7,1555               UZA/2              EQUALS   UYA/2      +6                         #  6P   USED BY CM/POSE  (ENTRY DAP)   UNA
003751: E7,1425  E7,1563               UBX/2              EQUALS   UZA/2      +6                         #  6P   USED BY CM/POSE  (ENTRY DAP)
003752: E7,1425  E7,1571               UBY/2              EQUALS   UBX/2      +6                         #  6P   USED BY CM/POSE  (ENTRY DAP)
003753: E7,1425  E7,1577               UBZ/2              EQUALS   UBY/2      +6                         #  6P   USED BY CM/POSE  (ENTRY DAP)
003754:
003755: E7,1425  E7,1605               DTEAROT            EQUALS   UBZ/2      +6                         #  2P
003756: E7,1425  E7,1607               DIFF               EQUALS   DTEAROT    +2                         #  2P
003757: E7,1425  E7,1611               DIFFOLD            EQUALS   DIFF       +2                         #  2P
003758: E7,1425  E7,1613               FACTOR             EQUALS   DIFFOLD    +2                         #  2P
003759: E7,1425  E7,1615               FACT1              EQUALS   FACTOR     +2                         #  2P
003760: E7,1425  E7,1617               FACT2              EQUALS   FACT1      +2                         #  2P
003761:                                                                                                  # Q7             =       THETADZ           2P  SHARED FOR TM.   P64-P66
003762: E7,1425  E7,1621               VSQUARE            EQUALS   FACT2      +2                         #  2P
003763: E7,1425  E7,1623               LAD                EQUALS   VSQUARE    +2                         #  2P
003764: E7,1425  E7,1625               LOD                EQUALS   LAD        +2                         #  2P
003765: E7,1425  E7,1627               L/DCMINR           EQUALS   LOD        +2                         #  2P
003766: E7,1425  E7,1631               KLAT               EQUALS   L/DCMINR   +2                         #  2P
003767: E7,1425  E7,1633               L/D                EQUALS   KLAT       +2                         #  2P
003768: E7,1425  E7,1635               L/D1               EQUALS   L/D        +2                         #  2P
003769: E7,1425  E7,1724               LEWD               =        VIO                                   #  2P   SHARED FOR TM.  P64-P65
003770: E7,1425  E7,1637               D                  EQUALS   L/D1       +2                         #  2P   DSP NOUN 64,66,68 FOR P63,64,67
003771:                                                                                                  # V1             =       ENDBUF +1         2P   SHARED FOR TM.  P64-P65
003772: E7,1425  E7,1641               DLEWD              EQUALS   D          +2                         #  2P
003773: E7,1425  E7,1643               K2ROLL             EQUALS   DLEWD      +2                         #  2 P
003774: E7,1425  E7,1645               GOTOADDR           EQUALS   K2ROLL     +2                         #  1P
003775: E7,1425  E7,1646               TEM1B              EQUALS   GOTOADDR   +1                         #  2 P
003776: E7,1425  E7,1650               MM                 EQUALS   TEM1B      +2                         #  2 P
003777: E7,1425  E7,1651               GRAD               EQUALS   MM         +1                         #  1P
003778: E7,1425  E7,1652               FX                 EQUALS   GRAD       +1                         #  1P   OVERWRITES NEXT 5 LOCS IN P67.
003779: E7,1425  E7,1653               LEQ                EQUALS   FX         +1                         #  2P
003780: E7,1425  E7,1655               DHOOK              EQUALS   LEQ        +2                         #  2P
003781: E7,1425  E7,1657               AHOOKDV            EQUALS   DHOOK      +2                         #  2P
003782: E7,1425  E7,1661               DVL                EQUALS   AHOOKDV    +2                         #  2P
003783:                                                                                                  # A0             =       ENDBUF +3         2P    SHARED FOR TM.(HI-WD ) P64-P65
003784: E7,1425  E7,1663               A1                 EQUALS   DVL        +2                         #  2P
003785: E7,1425  E7,1665               VBARS              EQUALS   A1         +2                         #  2P
003786: E7,1425  E7,1667               COSG/2             EQUALS   VBARS      +2                         #  2P
003787: E7,1425                        GAMMAL1            =        22D                                   #  2P
003788: E7,1425  E7,1671               VS1                EQUALS   COSG/2     +2                         #  2P
003789: E7,1425  E7,1673               V                  EQUALS   VS1        +2                         #  2P
003790:                                                                                                  # VREF           =       THETAD +2         2P   SHARED FOR TM    P65
003791: E7,1425  E7,1675               LATANG             EQUALS   V          +2                         #  2P   ADJACENT FOR TM.
003792: E7,1425  E7,1677               RDOT               EQUALS   LATANG     +2                         #  2P   ADJACENT FOR TM.
003793: E7,1425  E7,1701               THETAH             EQUALS   RDOT       +2                         #  2P   DSP NOUN 64,67 FOR P63,64,67
003794:                                                                                                  # RDOTREF        =       THETAD            2P   SHARED FOR TM     P65
003795: E7,1425  E7,1703               ALP                EQUALS   THETAH     +2                         #  2P
003796:
003797: E7,1425  E7,1730               ASKEP              =        ASPS                                  #  2P)                 THESE ARE STORED IN
003798: E7,1425  E7,1731               ASP1               =        ASPS       +1                         #  2P)                 SEQUENCE,OVERLAPPING
003799: E7,1425  E7,1732               ASPUP              =        ASPS       +2                         #  2P)>HI-WD OF EACH<  HI-WORD ONLY APPEARS
003800: E7,1425  E7,1733               ASPDWN             =        ASPS       +3                         #  2P)                 ON DOWNLIST, EXCEPT
003801: E7,1425  E7,1734               ASP3               =        ASPS       +4                         #  2P)                 ASP3 IS COMPLETE.
003802:
003803: E7,1425  E7,1705               C/D0               EQUALS   ALP        +2                         #  2P   -1/D0
003804: E7,1425  E7,1707               D0                 EQUALS   C/D0       +2                         #  I(2)    CONSTANT DRAG
003805: E7,1425  E7,1711               Q2                 EQUALS   D0         +2                         #  2P
003806:
003807:                                                                                                  #        ROLLC IS LOCATED IN EBANK= AOG TO AID ENTRY DAP.
003808: E7,1425  E7,1713               RTGO               EQUALS   Q2         +2                         #  2P   DSP NOUN 66 FOR P64,P67.
003809: E7,1425  E7,1715               DNRNGERR           EQUALS   RTGO       +2                         #  2P DSP NOUN 66 FOR P64,67.
003810: E7,1425  E7,1675               XRNGERR            =        LATANG                                #       FOR DISKY DISPLAY
003811: E7,1425  E7,1717               KAT                EQUALS   DNRNGERR   +2                         #  2P
003812: E7,1425  E7,1721               GMAX               EQUALS   KAT        +2                         #  1P  DSP NOUN 60 FOR P61,62,63.
003813:                                                                                                  #  GMAX IS LOADED IN DOUBLE PRECISION
003814: E7,1425  E7,1726               L/DCALC            =        TTE                                   #  2P  CALCULATED L/D FOR TM:  P64 - P67.
003815:
003816:
003817: E7,1425  E7,1736               VL                 =        VPRED                                 #  2P  SHARED FOR TM  P64-P65
003818: E7,1425  E7,1740               GAMMAL             =        GAMMAEI                               #  2P  SHARED FOR TM  P64
003819: E7,1425  E7,1740               PREDANG            =        GAMMAEI                               #       FOR TM IN P67.
003820: E7,1425  E7,1741               JJ                 =        PREDANG    +1                         #       FOR TM IN P67.
003821:
003822:
003823:                                                                                                  #     ENTRY P11  P15
003824:
003825: E7,1425  E7,1722               VMAGI              EQUALS   GMAX       +1                         #  2P DSP NOUN 62,64,68 FOR P11,63,64.
003826:
003827: E7,1425  E7,1724               VIO                EQUALS   VMAGI      +2                         #  2P  DSP NOUN 63 FOR P61.
003828: E7,1425  E7,1726               TTE                EQUALS   VIO        +2                         #  2P  DSP NOUN 63 FOR P61.
003829:
003830:
003831: E7,1425  E7,1730               ASPS               EQUALS   TTE        +2                         #  I(2)     HI-WORD ONLY ON DNLIST FOR TEMP
003832: E7,1425  E7,1732               TTE1               EQUALS   ASPS       +2                         #  I(2ETMP HOLDS UNDECREMENTED TTE VALUE
003833:
003834:
003835: E7,1425  E7,1734               TTE2               EQUALS   TTE1       +2                         #  I(2) HOLDS COMPENSATED TTE VALUE DURING
003836:                                                                                                  #       P61 THRU P63 FOR  N63 DISPLAY
003837:
003838:                                                                                                  #        **** P6OS ****                                                  (2D)
003839:
003840: E7,1425  E7,1713               RTGON64            EQUALS   RTGO                                  #  RANGE ERRORS NEGATIVE IF FALLS SHORT
003841: E7,1425  E7,1713               RTGON67            EQUALS   RTGO                                  #     DSP NOUN 67
003842:
003843:
003844:
003845:                                                                                                  #        REENTRY, RETURN TO EARTH COMMON DISPLAY.                        (4D)
003846:
003847: E7,1425  E7,1736               VPRED              EQUALS   TTE2       +2                         #  DSP NOUN 60 FOR P61,   ,62,63.
003848: E7,1425  E7,1740               GAMMAEI            EQUALS   VPRED      +2                         #  DSP NOUN 60 FOR P61,   ,62,63.
003849:
003850:                                                                                                  #            41 VG DISPLAY
003851:
003852:
003853:                                                                                                  #        *-*-*-*- OVERLAY 2 IN EBANK 7 -*-*-*-*
003854:
003855:                                                                                                  #        KALCMANU STORAGE.                                               (18D)
003856:
003857: E7,1425  E7,1425               MFS                EQUALS   SBDELT     +1                         #  I(18)
003858: E7,1425  E7,1425               MFI                EQUALS   MFS                                   #  I   TMP
003859: E7,1425  E7,1425               DEL                EQUALS   MFS                                   #  I   TMP
003860: E7,1425  E7,1447               END-KALC           EQUALS   MFS        +18D                       #  **NEXT AVAIL LOC AFTER KALCMANU **
003861:
003862:
003863:                                                                                                  #        MEASUREMENT INCORPORATION STORAGE(R22) STORAGE.                 (40D)
003864:
003865: E7,1425  E7,1447               GAMMA              EQUALS   END-KALC                              #  I(2)TMP
003866: E7,1425  E7,1451               OMEGA              EQUALS   GAMMA      +2                         #  I(12)TMP
003867: E7,1425  E7,1465               BVECTOR            EQUALS   OMEGA      +12D                       #  I(12)TMP
003868: E7,1425  E7,1501               DELTAQ             EQUALS   BVECTOR    +12D                       #  I(2)TMP
003869: E7,1425  E7,1503               VARIANCE           EQUALS   DELTAQ     +2                         #  I(3)TMP
003870: E7,1425  E7,1506               RCLP               EQUALS   VARIANCE   +3                         #  I(6)TMP
003871: E7,1425  E7,1514               GRP2SVQ            EQUALS   RCLP       +6                         #  I(1)TMP QSAVE FOR RESTARTS
003872:
003873:
003874:                                                                                                  #        P30 - P31 STORAGE.                                              (58D)
003875: E7,1425  E7,1515               VAC                EQUALS   GRP2SVQ    +1                         #  I(6)
003876: E7,1425  E7,1523               VAS                EQUALS   VAC        +6                         #  I(6)
003877: E7,1425  E7,1531               VASF               EQUALS   VAS        +6                         #  I(6)
003878: E7,1425  E7,1537               RAFD               EQUALS   VASF       +6                         #  I(6)
003879: E7,1425  E7,1545               PI                 EQUALS   RAFD       +6                         #  I(2)
003880: E7,1425  E7,1547               DHDSP              EQUALS   PI         +2                         #  I(2)
003881: E7,1425  E7,1551               DVC                EQUALS   DHDSP      +2                         #  I(2)
003882: E7,1425  E7,1553               CF                 EQUALS   DVC        +2                         #  I(2)
003883: E7,1425  E7,1555               EOP                EQUALS   CF         +2                         #  I(2)
003884: E7,1425  E7,1557               DVOC               EQUALS   EOP        +2                         #  I(2)
003885: E7,1425  E7,1561               DELHTMP            EQUALS   DVOC       +2                         #  I(2)
003886: E7,1425  E7,1563               RATEMP             EQUALS   DELHTMP    +2                         #  I(2)
003887: E7,1425  E7,1565               RAH2               EQUALS   RATEMP     +2                         #  I(6)
003888: E7,1425  E7,1573               DVDSP1             EQUALS   RAH2       +6                         #  I(2)
003889: E7,1425  E7,1575               DVDSP2             EQUALS   DVDSP1     +2                         #  I(2)
003890: E7,1425  E7,1577               VAH2               EQUALS   DVDSP2     +2                         #  I(6)
003891: E7,1425  E7,1605               PSHFT1             EQUALS   VAH2       +6                         #  I(1)
003892: E7,1425  E7,1606               PSHFT2             EQUALS   PSHFT1     +1                         #  I(1)
003893:
003894: E7,1425  E7,1515               VNSRP              EQUALS   VAC                                   #  I(6)
003895: E7,1425  E7,1545               CI                 EQUALS   PI                                    #  I(2)
003896:
003897:
003898:                                                                                                  #        P20, P22, P23 DSP NOUN                                          (5D)
003899:
003900: E7,1425  E7,1465               N49DISP            EQUALS   BVECTOR                               #  B(5)TMP
003901:
003902:
003903:                                                                                                  #        *-*-*-*- OVERLAY 3 IN EBANK 7 -*-*-*-*
003904:
003905:                                                                                                  #        RENDEZVOUS GUIDANCE STORAGE. - P32...P35 -                      (8D)
003906:
003907: E7,1425  E7,1447               DELTEEO            EQUALS   END-KALC                              #  I(2) S-S BACK VALUES OF DELTA TIME
003908: E7,1425  E7,1451               DELEL              EQUALS   DELTEEO    +2                         #  I(2) S-S
003909: E7,1425  E7,1453               SECMAX             EQUALS   DELEL      +2                         #  I(2) S-S MAX STOP SIZE FOR ROUTINE
003910: E7,1425  E7,1455               XXXALT             EQUALS   SECMAX     +2                         #  I(2)
003911:
003912:
003913:
003914:                                                                                                  #        SHORT BURN STORAGE.                                             (16D)
003915: E7,1425  E7,1451               PIPAPIX            EQUALS   DELEL                                 #  B(1)
003916: E7,1425  E7,1452               PIPAPIY            EQUALS   PIPAPIX    +1                         #  B(1)
003917: E7,1425  E7,1453               PIPAPIZ            EQUALS   PIPAPIY    +1                         #  B(1)
003918: E7,1425  E7,1454               SBVGMAG            EQUALS   PIPAPIZ    +1                         #  B(1)
003919: E7,1425  E7,1455               DVTAIL             EQUALS   SBVGMAG    +1                         #  B(1)
003920: E7,1425  E7,1456               TDELTA             EQUALS   DVTAIL     +1                         #  B(1)
003921: E7,1425  E7,1457               TZEROED            EQUALS   TDELTA     +1                         #  B(1)
003922: E7,1425  E7,1460               PASTT              EQUALS   TZEROED    +1                         #  B(1)
003923: E7,1425  E7,1461               PASTDV             EQUALS   PASTT      +1                         #  B(1)
003924: E7,1425  E7,1462               PREST              EQUALS   PASTDV     +1                         #  B(1)
003925: E7,1425  E7,1463               PRESDV             EQUALS   PREST      +1                         #  B(1)


003927: E7,1425  E7,1464               PIPAPISV           EQUALS   PRESDV     +1                         #  B(3)
003928: E7,1425  E7,1467               VRSS-SL            EQUALS   PIPAPISV   +3                         #  B(1)


003930: E7,1425  E7,1470               SBTEMP             EQUALS   VRSS-SL    +1                         #  B(1)
003931:
003932: E7,1425  E7,1463               VELSS              EQUALS   PRESDV                                #  B(2)
003933:
003934:
003935:                                                                                                  #        S40.9 STORAGE.                                                  (16D)
003936:
003937: E7,1425  E7,1471               VG                 EQUALS   SBTEMP     +1                         #  I(6)TMP
003938: E7,1425  E7,1477               VRPREV             EQUALS   VG         +6                         #  I(6)
003939: E7,1425  E7,1505               TNIT               EQUALS   VRPREV     +6                         #  I(2)
003940: E7,1425  E7,1507               TNITPREV           EQUALS   TNIT       +2                         #  I(2)
003941:
003942:
003943:                                                                                                  #        P30'S COMMON STORAGE                                            (24D)
003944:
003945: E7,1425  E7,1515               RACT3              EQUALS   GRP2SVQ    +1                         #  I(6)TMP POSITION OF ACTIVE AT TPI TIME.
003946: E7,1425  E7,1523               VACT3              EQUALS   RACT3      +6                         #  I(6)TMP VELOCITY OF ACTIVE AT TPI TIME.
003947: E7,1425  E7,1531               RPASS3             EQUALS   VACT3      +6                         #  I(6)TMP POSITION OF PASSIVE AT TPI TIME.
003948: E7,1425  E7,1537               VPASS3             EQUALS   RPASS3     +6                         #  I(6)TMP VELOCITY OF PASSIVE AT TPI TIME.
003949:
003950:
003951:                                                                                                  #        INITVEL/MIDGIM STORAGE.                                         (34D)
003952:                                                                                                  #                (CALLED BY S34.1,2, S35.1,2, AND S40.9)
003953:                                                                                                  #                (CALLS LAMBERT, CONIC SUBROUTINES)
003954:
003955: E7,1425  E7,1545               RINIT              EQUALS   VPASS3     +6                         #  I(6)IN  ACTIVE VEHICLE RADIUS VECTOR
003956: E7,1425  E7,1553               VINIT              EQUALS   RINIT      +6                         #  I(6)IN  ACTIVE VEHICLE VELOCITY VECTOR
003957: E7,1425  E7,1561               RTARG1             EQUALS   VINIT      +6                         #  I(6)TMP SHIFTED RTARG
003958: E7,1425  E7,1567               VIPRIME            EQUALS   RTARG1     +6                         #  I(6)OUT   NEW VEL REQ AT INITIAL RADIUS
003959: E7,1425  E7,1575               VTPRIME            EQUALS   VIPRIME    +6                         #  I(6)OUT TOTAL VELOCITY AT DESIRED RADIUS
003960: E7,1425  E7,1603               +MGA               EQUALS   VTPRIME    +6                         #  I(2)DSP NOUN 45 FOR P30,34,35. +MID GIM.
003961: E7,1425  E7,1605               COZY4              EQUALS   +MGA       +2                         #  I(2)TMP COSINE OF ANGLE WHEN ROT STARTS
003962: E7,1425  E7,1607               END-IN/M           EQUALS   COZY4      +2                         #  **NEXT AVAIL LOC AFTER INITVEL/MIDGIM**
003963:
003964:                                                                                                  #        P34 AND P35 STORAGE.    (OVERLAYS INITVEL/MIDGIM)               (24D)
003965:
003966: E7,1425  E7,1545               VAPREC             EQUALS   RINIT                                 #  I(6) S-S PREC VEC FOR NOM TPI TIME (ACT V
003967: E7,1425  E7,1553               RAPREC             EQUALS   VINIT                                 #  I(6) S-S PREC VEC FOR NOM TPI TIME (ACT V
003968: E7,1425  E7,1567               VPPREC             EQUALS   VIPRIME                               #  I(6) S-S PREC VEC FOR NOM TPI TIME (PASS
003969: E7,1425  E7,1575               RPPREC             EQUALS   VTPRIME                               #  I(6) S-S PREC VEC FOR NOM TPI TIME (PASS
003970:
003971:
003972:
003973:                                                                                                  #        P30, P40 INTERFACE.                                             (20D)
003974:
003975: E7,1425  E7,1607               RTIG               EQUALS   END-IN/M                              #  I(6)TMP
003976: E7,1425  E7,1615               VTIG               EQUALS   RTIG       +6                         #  I(6)TMP
003977: E7,1425  E7,1623               DELVSIN            EQUALS   VTIG       +6                         #  I(6)TMP
003978: E7,1425  E7,1623               DELVEET3           EQUALS   DELVSIN                               #       TMP DELTA VEL VECT INERTIAL COORDS.
003979: E7,1425  E7,1623               VGTEMP             EQUALS   DELVEET3
003980: E7,1425  E7,1631               DELVSAB            EQUALS   DELVSIN    +6                         #  I(2)TMP
003981:
003982:
003983:
003984:                                                                                                  #        P35-P40 INTERFACE STORAGE. (OVERLAYS P30-P40 I/F STORAGE)       (6D)
003985:
003986: E7,1425  E7,1615               VPASS4             EQUALS   VTIG                                  #  I(6)TMP VELOCITY OF PASSIVE AT INTERCEPT
003987:
003988:
003989:                                                                                                  #        P31-P33 STORAGE.                                                (8D)
003990: E7,1425  E7,1623               RAF                EQUALS   VGTEMP                                #  I(6)
003991: E7,1425  E7,1631               TIMEC              EQUALS   RAF        +6                         #  I(2)
003992:
003993:
003994:                                                                                                  #        P30-P40 COMMON STORAGE.                                         (3D)
003995:
003996: E7,1425  E7,1633               TPASS4             EQUALS   DELVSAB    +2                         #  I(2)TMP
003997: E7,1425  E7,1635               QTEMP              EQUALS   TPASS4     +2                         #  I(1) TMP
003998:
003999:
004000:
004001:                                                                                                  #        P30-P40 STORAGE.                                                (6D)
004002:
004003: E7,1425  E7,1636               TTOGO              EQUALS   QTEMP      +1                         #  B(2)DSP NOUN 35,40,45,59,99
004004:                                                                                                  #          FOR P30,34,35,40,41,47,  R30.
004005: E7,1425  E7,1640               ELEV               EQUALS   TTOGO      +2                         #  I(2)TMP
004006: E7,1425  E7,1642               TTPI               EQUALS   ELEV       +2                         #  B(2)DSP NOUN 37 FOR P34 TPI TIME, CSECS.
004007:
004008: E7,1425  E7,1644               END-P30S           EQUALS   TTPI       +2                         #  **NEXT AVAIL LOC AFTER P30-40 STORAGE.**
004009:
004010:
004011:                                                                                                  #        P40 STORAGE.                                                    (8D)
004012:
004013: E7,1425  E7,1644               VGBODY             EQUALS   END-P30S                              #  B(6)DSP NOUN 85 FOR P40,41,42 VG-SC COOR
004014: E7,1425  E7,1644               DELVCTL            =        VGBODY
004015: E7,1425  E7,1652               P40TMP             EQUALS   VGBODY     +6                         #  B(2)TMP
004016:
004017:
004018:                                                                                                  #        P47 STORAGE.
004019:
004020: E7,1425  E7,1437               DV47TEMP           EQUALS   DELVREF    +6                         #  B(6)TMP
004021: E7,1425  E7,1654               DELVIMU            EQUALS   P40TMP     +2                         #  I(6)  DSP  NOUN 83 FOR P47 DELTAV(IMU)
004022:
004023:
004024:
004025:                                                                                                  #        S40.1 STORAGE.                                                  (17D)
004026:
004027: E7,1425  E7,1662               CSTEER             EQUALS   DELVIMU    +6                         #  I(2)IN
004028: E7,1425  E7,1664               BDT                EQUALS   CSTEER     +2                         #  I(6)IN
004029: E7,1425  E7,1672               UT                 EQUALS   BDT        +6                         #  I(6)OUT THRUST DIRECTION
004030: E7,1425  E7,1700               F                  EQUALS   UT         +6                         #  I(2)OUT S40.3 NEEDS THIS
004031:
004032: E7,1425  E7,1702               QTEMP1             EQUALS   F          +2                         #  I(1)TMP HOLDS RETURN
004033:
004034:
004035:                                                                                                  #        R41                                                             (2D)
004036:
004037: E7,1425  E7,1445               T-TO-ADD           EQUALS   DV47TEMP   +6                         #  I(2) FOR MIDTOAVE
004038:
004039:
004040:
004041:                                                                                                  #        *-*-*-*- OVERLAY 4 IN EBANK 7 -*-*-*-*
004042:
004043:                                                                                                  #        P55 STORAGE.                                                    (4D)
004044: E7,1425  E7,1515               TRKAZ              EQUALS   RACT3                                 #  B(1)
004045: E7,1425  E7,1516               TRKEL              EQUALS   TRKAZ      +1                         #  B(1)
004046: E7,1425  E7,1517               TRKAZOCT           EQUALS   TRKEL      +1                         #  B(2)
004047:
004048:
004049:                                                                                                  #        S35.1 STORAGE.                                                  (2D)
004050:
004051: E7,1425  E7,1644               TSTRT              EQUALS   END-P30S                              #  I(2)IN MIDCOURSE START TIME
004052:
004053:
004054:                                                                                                  #        S34.1 STORAGE.          (OVERLAYS S35.1 STORAGE)                (1D)
004055:
004056: E7,1425  E7,1644               TITER              EQUALS   TSTRT                                 #  I(1)TMP ITERATION COUNTER
004057:
004058:
004059:                                                                                                  #        DOWNLINK ERASABLES FOR P22,P20 MARK DATA.                       (8D)
004060:
004061: E7,1425  E7,1654               MARKDOWN           EQUALS   DELVIMU                               #  B(7)
004062: E7,1425  E7,1663               RM                 EQUALS   MARKDOWN   +7                         #  DOWNLINK OF VHF RANGE
004063:
004064:
004065:
004066:                                                                                                  #        P22 STORAGE                                                     (6D)
004067:
004068: E7,1425  E7,1664               STARSAV3           EQUALS   RM         +1                         #  I(6)TMP
004069:
004070:
004071:                                                                                                  #        CRS61.1 STORAGE.        -A SUBSET OF P20-                       (14D)
004072:
004073: E7,1425  E7,1664               Q611               EQUALS   RM         +1                         #  I(1) TMP QSAVE
004074: E7,1425  E7,1665               Q6111              EQUALS   Q611       +1                         #  I(1)TMP QSAVE
004075: E7,1425  E7,1666               SAVEPOS            EQUALS   Q6111      +1                         #  I(6)TMP LEM POSITION VECTOR-
004076: E7,1425  E7,1674               SAVEVEL            EQUALS   SAVEPOS    +6                         #  I(6)TMP LEM VELOCITY VECTOR-
004077:
004078:
004079:                                                                                                  #        MARK STORAGE AND W MATRIX INIT STORAGE (UNSHARED)               (13D)
004080:
004081: E7,1425  E7,1702               MRKBUF1            EQUALS   SAVEVEL    +6                         #  B(7)
004082: E7,1425  E7,1711               CNT3TEMP           EQUALS   MRKBUF1    +7                         #  I(2)
004083: E7,1425  E7,1713               OLDMKTME           EQUALS   CNT3TEMP   +2                         #  I(2)
004084: E7,1425  E7,1715               AGEOFW             EQUALS   OLDMKTME   +2                         #  I(2)
004085:
004086:
004087:
004088:                                                                                                  #        UNIVERSAL TRACKING STORAGE                                      (10D)
004089:
004090: E7,1425  E7,1711               PLANVCUT           EQUALS   CNT3TEMP                              #  I(6) PLANET VECTOR UT
004091: E7,1425  E7,1717               UTPIT              EQUALS   PLANVCUT   +6                         #  I(2)  N78 PITCH
004092: E7,1425  E7,1721               UTYAW              EQUALS   UTPIT      +2                         #     I(2)  N78 YAW
004093:
004094:
004095:
004096:                                                                                                  #        ADDITIONAL CSI - CDH STORAGE.                                   (2D)
004097: E7,1425  E7,1723               NN                 EQUALS   UTYAW      +2                         #  I(2)
004098:
004099:
004100:                                                                                                  #        P38 STORAGE.                                                    (2D)
004101: E7,1425  E7,1725               LASTTIG            EQUALS   NN         +2                         #  I(2)
004102:
004103:
004104:                                                                                                  #        R27 STORAGE.                                                    (28D)
004105: E7,1425  E7,1727               VHF.W              EQUALS   LASTTIG    +2                         #  B(18)
004106: E7,1425  E7,1751               SVEC               EQUALS   VHF.W      +18D                       #  B(8)
004107: E7,1425  E7,1761               VSAV               EQUALS   SVEC       +8D                        #  B(2)
004108:
004109:
004110:                                                                                                  #        DISPLAY REGISTER FOR VG                                         (2D)
004111:
004112: E7,1425  E7,1763               VGDISP             EQUALS   VSAV       +2                         #  B(2)DSP N.40,42,99 FOR P30,34,35,37,40,
004113:
004114:
004115:                                                                                                  #        P31-P32 STORAGE.                                                (4D)
004116: E7,1425  E7,1765               NC1TIG             EQUALS   VGDISP     +2                         #  I(2)
004117: E7,1425  E7,1767               NC2TIG             EQUALS   NC1TIG     +2                         #  I(2)
004118:
004119:
004120:                                                                                                  #        S40.1 STORAGE.                                                  (6D)
004121: E7,1425  E7,1771               VGTIG              EQUALS   NC2TIG     +2                         #  I(6)OUT
004122: E7,1425  E7,1771               VGPREV             =        VGTIG
004123:
004124:
004125:                                                                                                  #        *-*-*-*- OVERLAY 5 IN EBANK 7 -*-*-*-*
004126:
004127:                                                                                                  #        P31-P33 STORAGE.                                                (8D)
004128: E7,1425  E7,1447               DVH1               EQUALS   END-KALC                              #  I(2)
004129: E7,1425  E7,1451               DVH2               EQUALS   DVH1       +2                         #  I(2)
004130: E7,1425  E7,1453               PH1                EQUALS   DVH2       +2                         #  I(2)
004131: E7,1425  E7,1455               TPC                EQUALS   PH1        +2                         #  I(2)
004132:
004133:
004134:                                                                                                  #        R27 STORAGE.                                                    (28D)
004135: E7,1425  E7,1457               WMAT               EQUALS   TPC        +2                         #  B(18)
004136: E7,1425  E7,1501               SVTEM              EQUALS   WMAT       +18D                       #  I(6)
004137: E7,1425  E7,1507               TEMTYM             EQUALS   SVTEM      +6                         #  I(2)
004138: E7,1425  E7,1511               VSAVTEM            EQUALS   TEMTYM     +2                         #  I(2)
004139:
004140:
004141:                                                                                                  #        P50 STORAGE.                                                    (3D)
004142: E7,1425  E7,1515               N23TEMP            EQUALS   RACT3                                 #  I(3)
004143:
004144:
004145:                                                                                                  #        P31-P33 STORAGE.                                                (8D)
004146: E7,1425  E7,1644               TH1                EQUALS   END-P30S                              #  I(2)
004147: E7,1425  E7,1646               TH2                EQUALS   TH1        +2                         #  I(2)
004148: E7,1425  E7,1650               TAS                EQUALS   TH2        +2                         #  I(2)
004149: E7,1425  E7,1652               PH2                EQUALS   TAS        +2                         #  I(2)
004150:
004151: E7,1425  E7,1646               DTQRD              EQUALS   TH2                                   #  I(2)
004152:
004153:
004154:                                                                                                  #        P34                                                             (2D)
004155:
004156: E7,1425  E7,1723               NN1                =        NN                                    #  I(2) DSP NOUN 55, R1
004157:
004158:
004159:                                                                                                  #        *-*-*-*- OVERLAY 6 IN EBANK 7 -*-*-*-*
004160:
004161:                                                                                                  #        P34 STORAGE.                                                    (6D)
004162: E7,1425  E7,1523               UNVEC              EQUALS   VACT3                                 #  I(6)
004163: E7,1425  E7,1631               T2TOT3             EQUALS   DELVSAB                               #  I(2) TPI - TCDH
004164:
004165:
004166:                                                                                                  #        S35.1 STORAGE                                                   (1D)
004167: E7,1425  E7,1644               TN                 EQUALS   END-P30S                              #  I(1)
004168:
004169:
004170:                                                                                                  #        P34 STORAGE                                                     (6D)
004171: E7,1425  E7,1646               DELVEET2           EQUALS   TN         +2                         #  I(6) VACT3-VACT2 = DVCDH REF.COORD.
004172:
004173:
004174:                                                                                                  #        P21 STORAGE                                                     (2D)
004175:
004176: E7,1425  E7,1515               P21TIME            EQUALS   RACT3                                 #  I(2)
004177:
004178:
004179:                                                                                                  #        P21 STORAGE                                                     (18D)
004180:
004181: E7,1425  E7,1517               P21BASER           EQUALS   P21TIME    +2                         #  I(6)
004182: E7,1425  E7,1525               P21BASEV           EQUALS   P21BASER   +6                         #  I(6)
004183: E7,1425  E7,1533               P21ALT             EQUALS   P21BASEV   +6                         #  I(2) NOUN 73 R1 ALTITUDE
004184: E7,1425  E7,1535               P21VEL             EQUALS   P21ALT     +2                         #  I(2) NOUN 73 R2 VELOCITY
004185: E7,1425  E7,1537               P21GAM             EQUALS   P21VEL     +2                         #  I(2) NOUN 73 R3 FLIGHT PATH ANGLE
004186:
004187:
004188:
004189:                                                                                                  #        P29 ERASABLES                                                   (32D)
004190:
004191: E7,1425  E7,1541               PASSTIME           EQUALS   P21GAM     +2                         #  B(2)TMP
004192: E7,1425  E7,1543               LONGFOR            EQUALS   PASSTIME   +2                         #  B(2)TMP
004193: E7,1425  E7,1545               DELTLONG           EQUALS   LONGFOR    +2                         #  I(2)TMP
004194: E7,1425  E7,1547               FUDGE              EQUALS   DELTLONG   +2                         #  I(2)TMP
004195: E7,1425  E7,1551               MUSUBE             EQUALS   FUDGE      +2                         #  I(6)TMP
004196: E7,1425  E7,1557               MUSUBC             EQUALS   MUSUBE     +6                         #  I(6)TMP
004197: E7,1425  E7,1565               MUSUBS             EQUALS   MUSUBC     +6                         #  I(6)TMP
004198: E7,1425  E7,1573               MUSUBN             EQUALS   MUSUBS     +6                         #  I(6)TMP
004199:
004200: E7,1425  E7,1515               P29BASET           =        P21TIME
004201: E7,1425  E7,1517               P29BASER           =        P21BASER
004202: E7,1425  E7,1525               P29BASEV           =        P21BASEV
004203:
004204: E7,1425                        WHOCARES           =        3777                                  #  A DUMMY FOR E-BANK INSENSITIVE 2CADRS.
004205:
004206: E7,1425  0003777               END-E7             =        WHOCARES                              #  TAG NEEDED FOR EDITS

End of include-file ERASABLE_ASSIGNMENTS.agc.  Parent file is MAIN.agc


