
Source Code


000002:                                                                                                  ## Copyright:   Public domain.
000003:                                                                                                  ## Filename:    EXECUTIVE.agc
000004:                                                                                                  ## Purpose:     A section of Skylark revision 048.
000005:                                                                                                  ##              It is part of the source code for the Apollo Guidance Computer (AGC)
000006:                                                                                                  ##              for Skylab-2, Skylab-3, Skylab-4, and ASTP. No original listings of
000007:                                                                                                  ##              this software are available; instead, this file was created via
000008:                                                                                                  ##              disassembly of dumps of the core rope modules actually flown on
000009:                                                                                                  ##              Skylab-2. Access to these modules was provided by the New Mexico
000010:                                                                                                  ##              Museum of Space History.
000011:                                                                                                  ## Assembler:   yaYUL
000012:                                                                                                  ## Contact:     Ron Burkey <info@sandroid.org>.
000013:                                                                                                  ## Website:     www.ibiblio.org/apollo/index.html
000014:                                                                                                  ## Mod history: 2023-09-04 MAS  Created from Artemis 072.
000015:
000016:
000017:    4000                                           SETLOC   EXECF2
000018:    4000                                           BANK
000019:
000020:                                                                                                  #  TO ENTER A JOB REQUEST REQUIRING NO VAC AREA:
000021:
000022:    5133                                           COUNT*   $$/EXEC
000023:    5133           34346        NOVAC30            CAF      PRIO30
000024:    5134           00004        NOVAC              INHINT
000025:    5135           65226                           AD       FAKEPRET                              #  LOC(MPAC +6) - LOC(QPRET)
000026:    5136           54063                           TS       NEWPRIO                               #  PRIORITY OF NEW JOB + NOVAC C(FIXLOC)
000027:
000028:    5137           00006                           EXTEND
000029:    5140           50002                           INDEX    Q                                     #  Q WILL BE UNDISTURBED THROUGHOUT.
000030:    5141           30001                           DCA      0                                     #  2CADR OF JOB ENTERED.
000031:    5142           52066                           DXCH     NEWLOC
000032:    5143           34767                           CAF      EXECBANK
000033:    5144           56004                           XCH      FBANK
000034:    5145           54061                           TS       EXECTEM1
000035:    5146           12626                           TCF      NOVAC2                                #  ENTER EXECUTIVE BANK.
000036:
000037:                                                                                                  #  TO ENTER A JOB REQUEST REQUIRING A VAC AREA - E.G., ALL (PARTIALLY) INTERPRETIVE JOBS.
000038:
000039:    5147           34764        FINVAC20           CAF      PRIO20
000040:    5150           00004        FINDVAC            INHINT
000041:    5151           54063                           TS       NEWPRIO
000042:    5152           00006                           EXTEND
000043:    5153           50002                           INDEX    Q
000044:    5154           30001                           DCA      0
000045:    5155           52066        SPVACIN            DXCH     NEWLOC
000046:    5156           34767                           CAF      EXECBANK
000047:    5157           56004                           XCH      FBANK
000048:    5160           12604                           TCF      FINDVAC2                              #  OFF TO EXECUTIVE SWITCHED-BANK.
000049:
000050:                                                                                                  #  TO ENTER A FINDVAC WITH THE PRIORITY IN NEWPRIO TO THE 2CADR ARRIVING IN A AND L:
000051:
000052:                                                                                                  #  USERS OF SPVAC MUST INHINT BEFORE STORING IN NEWPRIO.
000053:
000054:    5161           56002        SPVAC              XCH      Q
000055:    5162           67701                           AD       NEG2
000056:    5163           56002                           XCH      Q
000057:    5164           15155                           TCF      SPVACIN
000058:
000059:                                                                                                  #  TO SUSPEND A BASIC JOB SO A HIGHER PRIORITY JOB MAY BE SERVICED:
000060:
000061:    5165           22002        CHANG1             LXCH     Q
000062:    5166           34767                           CAF      EXECBANK
000063:    5167           56006                           XCH      BBANK
000064:    5170           12705                           TCF      CHANJOB
000065:
000066:                                                                                                  #  TO SUSPEND AN INTERPRETIVE JOB:
000067:
000068:    5171           40164        CHANG2             CS       LOC                                   #  NEGATIVE LOC SHOWS JOB = INTERPRETIVE.
000069:                                                                                                  #  ITRACE (4) REFERS TO "CHANG2".
000070:    5172           54001                           TS       L
000071:    5173           34767                 +2        CAF      EXECBANK
000072:    5174           54006                           TS       BBANK
000073:    5175           12704                           TCF      CHANJOB    -1
000074:
000075:                                                                                                  #  TO VOLUNTARILY SUSPEND A JOB UNTIL THE COMPLETION OF SOME ANTICIPATED EVENT (I/O EVENT ETC.):
000076:
000077:    5176           54164        JOBSLEEP           TS       LOC
000078:    5177           34767                           CAF      EXECBANK
000079:    5200           54004                           TS       FBANK
000080:    5201           12775                           TCF      JOBSLP1
000081:
000082:                                                                                                  #  TO AWAKEN A JOB PUT TO SLEEP IN THE ABOVE FASHION:
000083:
000084:    5202           00004        JOBWAKE            INHINT
000085:    5203           54065                           TS       NEWLOC
000086:    5204           45000                           CS       TWO                                   #  EXIT IS VIA FINDVAC/NOVAC PROCEDURES.
000087:    5205           26002                           ADS      Q
000088:    5206           34767                           CAF      EXECBANK
000089:    5207           56004                           XCH      FBANK
000090:    5210           13022                           TCF      JOBWAKE2
000091:
000092:                                                                                                  #  TO CHANGE THE PRIORITY OF A JOB CURRENTLY UNDER EXECUTION:
000093:
000094:    5211           00004        PRIOCHNG           INHINT                                         #  NEW PRIORITY ARRIVES IN A. RETURNS TO
000095:    5212           54063                           TS       NEWPRIO                               #  CALLER AS SOON AS NEW JOB PRIORITY IS
000096:    5213           34767                           CAF      EXECBANK                              #  HIGHEST. PREPARE FOR POSSIBLE BASIC-
000097:    5214           56006                           XCH      BBANK                                 #  STYLE CHANGE-JOB.
000098:    5215           54165                           TS       BANKSET
000099:    5216           30002                           CA       Q
000100:    5217           13071                           TCF      PRIOCH2
000101:
000102:                                                                                                  #  TO REMOVE A JOB FROM EXECUTIVE CONSIDERATIONS:
000103:
000104:    5220           34767        ENDOFJOB           CAF      EXECBANK
000105:    5221           54004                           TS       FBANK
000106:    5222           13102                           TCF      ENDJOB1
000107:
000108:    5223           30061        ENDFIND            CA       EXECTEM1                              #  RETURN TO CALLER AFTER JOB ENTRY
000109:    5224           54004                           TS       FBANK                                 #  COMPLETE.
000110:    5225           16710                           TCF      Q+2
000111:    5226     4767               EXECBANK           EQUALS   BIT11                                 #  THIS IS TRUE IF FINDVAC2 STAYS IN BANK 01
000112:
000113:    5226           00110        FAKEPRET           ADRES    MPAC       -36D                       #  LOC(MPAC +6) - LOC(QPRET)
000114:
000115:                                                                                                  #  LOCATE AN AVAILABLE VAC AREA.
000116:
000117: 01,2000                                           SETLOC   EXECB1
000118: 01,2000                                           BANK
000119:
000120: 01,2604                                           COUNT*   $$/EXEC
000121:                                                                                                  #       ******** IF THE  EXECUTIVE IS
000122:                                                                                                  #                MOVED   OUT OF BANK 01
000123:                                                                                                  #                DONT    FORGET TO CHANGE
000124:                                                                                                  #                THE     VALUE OF
000125:                                                                                                  #                ******  EXECBANK ****
000126: 01,2604           54061        FINDVAC2           TS       EXECTEM1                              #  (SAVE CALLER'S BANK FIRST.)
000127: 01,2605           10400                           CCS      VAC1USE
000128: 01,2606           12621                           TCF      VACFOUND
000129: 01,2607           10454                           CCS      VAC2USE
000130: 01,2610           12621                           TCF      VACFOUND
000131: 01,2611           10530                           CCS      VAC3USE
000132: 01,2612           12621                           TCF      VACFOUND
000133: 01,2613           10604                           CCS      VAC4USE
000134: 01,2614           12621                           TCF      VACFOUND
000135: 01,2615           10660                           CCS      VAC5USE
000136: 01,2616           12621                           TCF      VACFOUND
000137: 01,2617           07750                           TC       BAILOUT
000138: 01,2620           31201                           OCT      31201                                 #  NO VAC AREAS
000139:
000140: 01,2621           65000        VACFOUND           AD       TWO                                   #  RESERVE THIS VAC AREA BY STORING A ZERO
000141: 01,2622           22007                           ZL                                             #  IN ITS VAC USE REGISTER AND STORE THE
000142: 01,2623           50000                           INDEX    A                                     #  ADDRESS OF THE FIRST WORD OF IT IN THE
000143: 01,2624           21777                           LXCH     0          -1                         #  LOW NINE BITS OF THE PRIORITY WORD.
000144: 01,2625           26063                           ADS      NEWPRIO
000145:
000146: 01,2626           35003        NOVAC2             CAF      ZERO                                  #  NOVAC ENTERS HERE. FIND A CORE SET.
000147: 01,2627           54064                           TS       LOCCTR
000148: 01,2630           32635                           CAF      NO.CORES                              #  SEVEN SETS OF ELEVEN REGISTERS EACH.
000149: 01,2631           54062        NOVAC3             TS       EXECTEM2
000150: 01,2632           50064                           INDEX    LOCCTR
000151: 01,2633           10167                           CCS      PRIORITY                              #  EACH PRIORITY REGISTER CONTAINS -0 IF
000152: 01,2634           12675                           TCF      NEXTCORE                              #  THE CORRESPONDING CORE SET IS AVAILABLE.
000153: 01,2635           00006        NO.CORES           DEC      6          B-14
000154: 01,2636           12675                           TCF      NEXTCORE                              #  AN ACTIVE JOB HAS A POSITIVE PRIORITY
000155:                                                                                                  #  BUT A DORMANT JOB'S PRIORITY IS NEGATIVE
000156:
000157: 01,2637           30063        CORFOUND           CA       NEWPRIO                               #  SET THE PRIORITY OF THIS JOB IN THE CORE
000158: 01,2640           50064                           INDEX    LOCCTR                                #  SET'S PRIORITY REGISTER AND SET THE
000159: 01,2641           54167                           TS       PRIORITY                              #  JOB'S PUSH-DOWN POINTER AT THE BEGINNING
000160: 01,2642           75034                           MASK     LOW9                                  #  OF THE WORK AREA AND OVERFLOW INDICATOR
000161: 01,2643           50064                           INDEX    LOCCTR
000162: 01,2644           54166                           TS       PUSHLOC                               #  OFF TO PREPARE FOR INTERPRETIVE PROGRAMS
000163:
000164: 01,2645           10064                           CCS      LOCCTR                                #  IF CORE SET ZERO IS BEING LOADED, SET UP
000165: 01,2646           12662                           TCF      SETLOC                                #  OVFIND AND FIXLOC IMMEDIATELY.
000166: 01,2647           54121                           TS       OVFIND
000167: 01,2650           30166                           CA       PUSHLOC
000168: 01,2651           54120                           TS       FIXLOC
000169:
000170: 01,2652           10067        SPECTEST           CCS      NEWJOB                                #  SEE IF ANY ACTIVE JOBS WAITING (RARE).
000171: 01,2653           12662                           TCF      SETLOC                                #  MUST BE AWAKENED BUT UNCHANGED JOB.
000172: 01,2654           12655                           NOOP                                           #  CANNOT GET HERE
000173: 01,2655           12656                           NOOP                                           #  CANNOT GET HERE
000174: 01,2656           54067                           TS       NEWJOB                                #  +0 SHOWS ACTIVE JOB ALREADY SET.
000175: 01,2657           52066                           DXCH     NEWLOC
000176: 01,2660           52165                           DXCH     LOC
000177: 01,2661           15223                           TCF      ENDFIND
000178:
000179: 01,2662           52066        SETLOC             DXCH     NEWLOC                                #  SET UP THE LOCATION REGISTERS FOR THIS
000180: 01,2663           50064                           INDEX    LOCCTR
000181: 01,2664           52165                           DXCH     LOC
000182: 01,2665           50067                           INDEX    NEWJOB                                #  THIS INDEX INSTRUCTION INSURES THAT THE
000183: 01,2666           40167                           CS       PRIORITY                              #  HIGHEST ACTIVE PRIORITY WILL BE COMPARED
000184: 01,2667           60063                           AD       NEWPRIO                               #  WITH THE NEW PRIORITY TO SEE IF NEWJOB
000185: 01,2670           00006                           EXTEND                                         #  SHOULD BE SET TO SIGNAL A SWITCH.
000186: 01,2671           65223                           BZMF     ENDFIND
000187: 01,2672           30064                           CA       LOCCTR                                #  LOCCTR IS LEFT SET AT THIS CORE SET IF
000188: 01,2673           54067                           TS       NEWJOB                                #  THE CALLER WANTS TO LOAD ANY MPAC
000189: 01,2674           15223                           TCF      ENDFIND                               #  REGISTERS, ETC.
000190:
000191: 01,2675           33032        NEXTCORE           CAF      COREINC
000192: 01,2676           26064                           ADS      LOCCTR
000193: 01,2677           10062                           CCS      EXECTEM2
000194: 01,2700           12631                           TCF      NOVAC3
000195: 01,2701           07750                           TC       BAILOUT                               #  NO CORE SETS.
000196: 01,2702           31202                           OCT      31202
000197:
000198:                                                                                                  #  THE FOLLOWING ROUTINE SWAPS CORE SET 0 WITH THAT WHOSE RELATIVE ADDRESS IS IN NEWJOB.
000199:
000200: 01,2703           22164                 -2        LXCH     LOC
000201: 01,2704           30165                 -1        CAE      BANKSET                               #  BANKSET, NOT BBANK, HAS RIGHT CONTENTS.
000202: 01,2705           00004        CHANJOB            INHINT
000203: 01,2706           00006                           EXTEND
000204: 01,2707           04007                           ROR      SUPERBNK                              #  PICK UP CURRENT SBANK FOR BBCON
000205: 01,2710           56001                           XCH      L                                     #  LOC IN A AND BBCON IN L.
000206: 01,2711           50067                 +4        INDEX    NEWJOB                                #  SWAP LOC AND BANKSET.
000207: 01,2712           52165                           DXCH     LOC
000208: 01,2713           52165                           DXCH     LOC
000209:
000210: 01,2714           30165                           CAE      BANKSET
000211: 01,2715           00006                           EXTEND
000212: 01,2716           01007                           WRITE    SUPERBNK                              #  SET SBANK FOR NEW JOB.
000213: 01,2717           52155                           DXCH     MPAC                                  #  SWAP MULTI-PURPOSE ACCUMULATOR AREAS.
000214: 01,2720           50067                           INDEX    NEWJOB
000215: 01,2721           52155                           DXCH     MPAC
000216: 01,2722           52155                           DXCH     MPAC
000217: 01,2723           52157                           DXCH     MPAC       +2
000218: 01,2724           50067                           INDEX    NEWJOB
000219: 01,2725           52157                           DXCH     MPAC       +2
000220: 01,2726           52157                           DXCH     MPAC       +2
000221: 01,2727           52161                           DXCH     MPAC       +4
000222: 01,2730           50067                           INDEX    NEWJOB
000223: 01,2731           52161                           DXCH     MPAC       +4
000224: 01,2732           52161                           DXCH     MPAC       +4
000225: 01,2733           52163                           DXCH     MPAC       +6
000226: 01,2734           50067                           INDEX    NEWJOB
000227: 01,2735           52163                           DXCH     MPAC       +6
000228: 01,2736           52163                           DXCH     MPAC       +6
000229:
000230: 01,2737           35003                           CAF      ZERO
000231: 01,2740           56121                           XCH      OVFIND                                #  MAKE PUSHLOC NEGATIVE IF OVFIND NZ.
000232: 01,2741           00006                           EXTEND
000233: 01,2742           12745                           BZF      +3
000234: 01,2743           40166                           CS       PUSHLOC
000235: 01,2744           54166                           TS       PUSHLOC
000236:
000237: 01,2745           52167                           DXCH     PUSHLOC
000238: 01,2746           50067                           INDEX    NEWJOB
000239: 01,2747           52167                           DXCH     PUSHLOC
000240: 01,2750           52167                           DXCH     PUSHLOC                               #  SWAPS PUSHLOC AND PRIORITY.
000241: 01,2751           35034                           CAF      LOW9                                  #  SET FIXLOC TO BASE OF VAC AREA.
000242: 01,2752           70167                           MASK     PRIORITY
000243: 01,2753           54120                           TS       FIXLOC
000244:
000245: 01,2754           10166                           CCS      PUSHLOC                               #  SET OVERFLOW INDICATOR ACCORDING TO
000246: 01,2755           35003                           CAF      ZERO
000247: 01,2756           12763                           TCF      ENDPRCHG   -1
000248: 01,2757           40166                           CS       PUSHLOC
000249: 01,2760           54166                           TS       PUSHLOC
000250: 01,2761           35001                           CAF      ONE
000251: 01,2762           56121                           XCH      OVFIND
000252: 01,2763           54067                 -1        TS       NEWJOB
000253: 01,2764           00003        ENDPRCHG           RELINT
000254: 01,2765           52165                           DXCH     LOC                                   #  BASIC JOBS HAVE POSITIVE ADDRESSES, SO
000255: 01,2766           00006                           EXTEND                                         #  DISPATCH WITH A DTCB.
000256: 01,2767           62771                           BZMF     +2                                    #  IF INTERPRETIVE, SET UP EBANK, ETC.
000257: 01,2770           52006                           DTCB
000258:
000259:
000260: 01,2771           40000                           COM                                            #  EPILOGUE TO JOB CHANGE FOR INTERPRETIVE
000261: 01,2772           65001                           AD       ONE
000262: 01,2773           54164                           TS       LOC                                   #  RESUME.
000263: 01,2774           16017                           TCF      INTRSM
000264:
000265:                                                                                                  #  COMPLETE JOBSLEEP PREPARATIONS.
000266:
000267: 01,2775           00004        JOBSLP1            INHINT
000268: 01,2776           40167                           CS       PRIORITY                              #  NNZ PRIORITY SHOWS JOB ASLEEP.
000269: 01,2777           54167                           TS       PRIORITY
000270: 01,3000           36043                           CAF      LOW7
000271: 01,3001           70006                           MASK     BBANK
000272: 01,3002           00006                           EXTEND
000273: 01,3003           04007                           ROR      SUPERBNK                              #  SAVE OLD SUPERBANK VALUE.
000274: 01,3004           54165                           TS       BANKSET
000275: 01,3005           45003                           CS       ZERO
000276: 01,3006           54131        JOBSLP2            TS       BUF        +1                         #  HOLDS - HIGHEST PRIORITY.
000277: 01,3007           13117                           TCF      EJSCAN                                #  SCAN FOR HIGHEST PRIORITY ALA ENDOFJOB.
000278:
000279: 01,3010           00004        NUCHANG2           INHINT                                         #  QUICK... DONT LET NEWJOB CHANGE TO +0.
000280: 01,3011           10067                           CCS      NEWJOB
000281: 01,3012           13015                           TCF      +3                                    #  NEWJOB STILL PNZ
000282: 01,3013           00003                           RELINT                                         #  NEW JOB HAS CHANGED TO +0. WAKE UP JOB
000283: 01,3014           13207                           TCF      ADVAN      +2                         #  VIA NUDIRECT. (VERY RARE CASE.)
000284:
000285: 01,3015           35000                           CAF      TWO
000286: 01,3016           00006                           EXTEND
000287: 01,3017           05011                           WOR      DSALMOUT                              #  TURN ON ACTIVITY LIGHT
000288: 01,3020           52165                           DXCH     LOC                                   #  AND SAVE ADDRESS INFO FOR BENEFIT OF
000289: 01,3021           12711                           TCF      CHANJOB    +4                         #   POSSIBLE SLEEPING JOB.
000290:
000291:                                                                                                  #  TO WAKE UP A JOB, EACH CORE SET IS FOUND TO LOCATE ALL JOBS WHICH ARE ASLEEP. IF THE FCADR IN THE
000292:                                                                                                  #  LOC REGISTER OF ANY SUCH JOB MATCHES THAT SUPPLIED BY THE CALLER, THAT JOB IS AWAKENED. IF NO JOB IS FOUND,
000293:                                                                                                  #  LOCCTR IS SET TO -1 AND NO FURTHER ACTION TAKES PLACE.
000294:
000295: 01,3022           54061        JOBWAKE2           TS       EXECTEM1
000296: 01,3023           35003                           CAF      ZERO                                  #  BEGIN CORE SET SCAN.
000297: 01,3024           54064                           TS       LOCCTR
000298: 01,3025           32635                           CAF      NO.CORES
000299: 01,3026           54062        JOBWAKE4           TS       EXECTEM2
000300: 01,3027           50064                           INDEX    LOCCTR
000301: 01,3030           10167                           CCS      PRIORITY
000302: 01,3031           13034                           TCF      JOBWAKE3                              #  ACTIVE JOB - CHECK NEXT CORE SET.
000303: 01,3032           00014        COREINC            DEC      12         B-14                       #  12 REGISTERS PER CORE SET.
000304: 01,3033           13043                           TCF      WAKETEST                              #  SLEEPING JOB - SEE IF CADR MATCHES.
000305:
000306: 01,3034           33032        JOBWAKE3           CAF      COREINC
000307: 01,3035           26064                           ADS      LOCCTR
000308: 01,3036           10062                           CCS      EXECTEM2
000309: 01,3037           13026                           TCF      JOBWAKE4
000310: 01,3040           45001                           CS       ONE                                   #  EXIT IF SLEEPING JOB NOT FOUND.
000311: 01,3041           54064                           TS       LOCCTR
000312: 01,3042           15223                           TCF      ENDFIND
000313:
000314: 01,3043           40065        WAKETEST           CS       NEWLOC
000315: 01,3044           50064                           INDEX    LOCCTR
000316: 01,3045           60164                           AD       LOC
000317: 01,3046           00006                           EXTEND
000318: 01,3047           13051                           BZF      +2                                    #  IF MATCH.
000319: 01,3050           13034                           TCF      JOBWAKE3                              #  EXAMINE NEXT CORE SET IF NO MATCH.
000320:
000321: 01,3051           50064                           INDEX    LOCCTR                                #  RE-COMPLEMENT PRIORITY TO SHOW JOB AWAKE
000322: 01,3052           40167                           CS       PRIORITY
000323: 01,3053           54063                           TS       NEWPRIO
000324: 01,3054           50064                           INDEX    LOCCTR
000325: 01,3055           54167                           TS       PRIORITY
000326:
000327: 01,3056           44344                           CS       FBANKMSK                              #  MAKE UP THE 2CADR OF THE WAKE ADDRESS
000328: 01,3057           70065                           MASK     NEWLOC                                #  USING THE CADR IN NEWLOC AND THE EBANK
000329: 01,3060           64767                           AD       2K                                    #  HALF OF BBANK SAVED IN BANKSET.
000330: 01,3061           56065                           XCH      NEWLOC
000331: 01,3062           74344                           MASK     FBANKMSK
000332: 01,3063           50064                           INDEX    LOCCTR
000333: 01,3064           60165                           AD       BANKSET
000334: 01,3065           54066                           TS       NEWLOC     +1
000335:
000336: 01,3066           10064                           CCS      LOCCTR                                #  SPECIAL TREATMENT IF THIS JOB WAS
000337: 01,3067           12662                           TCF      SETLOC                                #  ALREADY IN THE RUN (0) POSITION.
000338: 01,3070           12652                           TCF      SPECTEST
000339:
000340:                                                                                                  #  PRIORITY CHANGE. CHANGE THE CONTENTS OF PRIORITY AND SCAN FOR THE JOB OF HIGHEST PRIORITY.
000341:
000342: 01,3071           54164        PRIOCH2            TS       LOC
000343: 01,3072           35003                           CAF      ZERO                                  #  SET FLAG TO TELL ENDJOB SCANNER IF THIS
000344: 01,3073           54130                           TS       BUF                                   #  JOB IS STILL HIGHEST PRIORITY.
000345: 01,3074           35034                           CAF      LOW9
000346: 01,3075           70167                           MASK     PRIORITY
000347: 01,3076           60063                           AD       NEWPRIO
000348: 01,3077           54167                           TS       PRIORITY
000349: 01,3100           40000                           COM
000350: 01,3101           13006                           TCF      JOBSLP2                               #  AND TO EJSCAN.
000351:
000352:                                                                                                  #  RELEASE THIS CORE SET AND VAC AREA AND SCAN FOR THE JOB OF HIGHEST ACTIVE PRIORITY.
000353:
000354: 01,3102           00004        ENDJOB1            INHINT
000355: 01,3103           45003                           CS       ZERO
000356: 01,3104           54131                           TS       BUF        +1
000357: 01,3105           56167                           XCH      PRIORITY
000358: 01,3106           75034                           MASK     LOW9
000359: 01,3107           54001                           TS       L
000360:
000361: 01,3110           45226                           CS       FAKEPRET
000362: 01,3111           60001                           AD       L
000363:
000364: 01,3112           00006                           EXTEND
000365: 01,3113           63117                           BZMF     EJSCAN                                #  NOVAC ENDOFJOB
000366:
000367: 01,3114           10001                           CCS      L
000368: 01,3115           50000                           INDEX    A
000369: 01,3116           54000                           TS       0
000370:
000371: 01,3117           10203        EJSCAN             CCS      PRIORITY   +12D
000372: 01,3120           03164                           TC       EJ1
000373: 01,3121     1361                                  EBANK=   SELFRET
000374: 01,3121           66102        SELFBANK           BBCON    SELFCHK                               #  CANNOT GET HERE
000375: 01,3122           13123                           TCF      +1
000376:
000377: 01,3123           10217                           CCS      PRIORITY   +24D                       #  EXAMINE EACH PRIORITY REGISTER TO FIND
000378: 01,3124           03164                           TC       EJ1                                   #  THE JOB OF HIGHEST ACTIVE PRIORITY.
000379: 01,3125           40201        OCT40201           OCT      40201                                 #  CANNOT GET HERE
000380: 01,3126           13127                           TCF      +1
000381:
000382: 01,3127           10233                           CCS      PRIORITY   +36D
000383: 01,3130           03164                           TC       EJ1
000384: 01,3131           67610        -CCSPR             -CCS     PRIORITY
000385: 01,3132           13133                           TCF      +1
000386:
000387: 01,3133           10247                           CCS      PRIORITY   +48D
000388: 01,3134           03164                           TC       EJ1
000389: 01,3135           03732        PHS2CADR           GENADR   PHSPART2                              #  CANNOT GET HERE
000390: 01,3136           13137                           TCF      +1
000391:
000392: 01,3137           10263                           CCS      PRIORITY   +60D
000393: 01,3140           03164                           TC       EJ1
000394: 01,3141           03510        PRT2CADR           GENADR   GETPART2                              #  CANNOT GET HERE
000395: 01,3142           13143                           TCF      +1
000396:
000397: 01,3143           10277                           CCS      PRIORITY   +72D
000398: 01,3144           03164                           TC       EJ1
000399: 01,3145           05345        LGCLCADR           GENADR   LONGCALL                              #  CANNOT GET HERE
000400: 01,3146           13147                           TCF      +1
000401:
000402:                                                                                                  #  EVALUATE THE RESULTS OF THE SCAN.
000403:
000404: 01,3147           10131                           CCS      BUF        +1                         #  SEE IF THERE ARE ANY ACTIVE JOBS WAITING
000405:
000406: 01,3150           53271        GETCADR            DXCH     LONGCADR                              #  CANNOT GET HERE
000407: 01,3151           05227                           TC       SUPDXCHZ
000408: 01,3152           13154                           TCF      +2
000409: 01,3153           13177                           TCF      DUMMYJOB
000410: 01,3154           10130                           CCS      BUF                                   #  BUF IS ZERO IF THIS IS A PRIOCHNG AND
000411: 01,3155           13157                           TCF      +2                                    #  CHANGED PRIORITY IS STILL HIGHEST.
000412: 01,3156           12763                           TCF      ENDPRCHG   -1
000413:
000414: 01,3157           50000                           INDEX    A                                     #  OTHERWISE, SET NEWJOB TO THE RELATIVE
000415: 01,3160           27777                           CAF      0          -1                         #  ADDRESS OF THE NEW JOB'S CORE SET.
000416: 01,3161           63131                           AD       -CCSPR
000417: 01,3162           54067                           TS       NEWJOB
000418: 01,3163           12703                           TCF      CHANJOB    -2
000419:
000420: 01,3164           54132        EJ1                TS       BUF        +2
000421: 01,3165           60131                           AD       BUF        +1                         #  - OLD HIGH PRIORITY.
000422: 01,3166           10000                           CCS      A
000423: 01,3167           40132                           CS       BUF        +2
000424: 01,3170           13173                           TCF      EJ2                                   #  NEW HIGH PRIORITY.
000425: 01,3171           13172                           NOOP
000426: 01,3172           16710                           TCF      Q+2
000427:
000428: 01,3173           54131        EJ2                TS       BUF        +1
000429: 01,3174           30002                           CA       Q
000430: 01,3175           54130                           TS       BUF                                   #  FOR LOCATING CCS PRIORITY + X INSTR.
000431: 01,3176           16710                           TCF      Q+2
000432:
000433:                                                                                                  #  IDLING AND COMPUTER ACTIVITY (GREEN) LIGHT MAINTENANCE. THE IDLING ROUTINE IS NOT A JOB IN ITSELF,
000434:                                                                                                  #  BUT RATHER A SUBROUTINE OF THE EXECUTIVE.
000435:
000436: 01,3177     1361                                  EBANK=   SELFRET                               #  SELF-CHECK STORAGE IN EBANK.
000437:
000438: 01,3177           45003        DUMMYJOB           CS       ZERO                                  #  SET NEWJOB TO -0 FOR IDLING.
000439: 01,3200           54067                           TS       NEWJOB
000440: 01,3201           00003                 +2        RELINT
000441: 01,3202           45000                           CS       TWO                                   #  TURN OFF THE ACTIVITY LIGHT.
000442: 01,3203           00006                           EXTEND
000443: 01,3204           03011                           WAND     DSALMOUT
000444: 01,3205           10067        ADVAN              CCS      NEWJOB                                #  IS A NEWJOB ACTIVE ?
000445: 01,3206           13010                           TCF      NUCHANG2                              #  YES... ONE REQUIRING A CHANGE JOB.
000446: 01,3207           35000                 +2        CAF      TWO                                   #  NEW JOB ALREADY IN POSITION FOR
000447: 01,3210           13215                           TCF      NUDIRECT                              #  EXECUTION.
000448:
000449: 01,3211           31361                           CA       SELFRET
000450: 01,3212           54001                           TS       L                                     #  PUT RETURN ADDRESS IN L.
000451: 01,3213           33121                           CAF      SELFBANK
000452: 01,3214           15230                           TCF      SUPDXCHZ   +1                         #   AND DISPATCH JOB.
000453:
000454: 01,3215           00006        NUDIRECT           EXTEND                                         #  TURN THE GREEN LIGHT BACK ON.
000455: 01,3216           05011                           WOR      DSALMOUT
000456: 01,3217           52165                           DXCH     LOC                                   #  JOBS STARTED IN THIS FASHION MUST BE
000457: 01,3220           15227                           TCF      SUPDXCHZ
000458:
000459:    4000                                           SETLOC   EXECF2
000460:    4000                                           BANK
000461:
000462:    5227                                           COUNT*   $$/EXEC
000463:
000464:                                                                                                  #  SUPDXCHZ - ROUTINE TO TRANSFER TO SUPERBANK.
000465:                                                                                                  #  CALLING SEQUENCE
000466:                                                                                                  #                TCF     SUPDXCHZ        WITH 2CADR OF DESIRED LOCATION IN A + L.
000467:
000468:    5227           56001        SUPDXCHZ           XCH      L                                     #  BASIC.
000469:    5230           00006                 +1        EXTEND
000470:    5231           01007                           WRITE    SUPERBNK
000471:    5232           54006                           TS       BBANK
000472:    5233           00001                           TC       L
000473:
000474:    5234           77677        NEG100             OCT      77677

End of include-file EXECUTIVE.agc.  Parent file is MAIN.agc


