
Source Code


000002:                                                                                                  ## Copyright:   Public domain.
000003:                                                                                                  ## Filename:    EXTENDED_VERBS.agc
000004:                                                                                                  ## Purpose:     A section of Skylark revision 048.
000005:                                                                                                  ##              It is part of the source code for the Apollo Guidance Computer (AGC)
000006:                                                                                                  ##              for Skylab-2, Skylab-3, Skylab-4, and ASTP. No original listings of
000007:                                                                                                  ##              this software are available; instead, this file was created via
000008:                                                                                                  ##              disassembly of dumps of the core rope modules actually flown on
000009:                                                                                                  ##              Skylab-2. Access to these modules was provided by the New Mexico
000010:                                                                                                  ##              Museum of Space History.
000011:                                                                                                  ## Assembler:   yaYUL
000012:                                                                                                  ## Contact:     Ron Burkey <info@sandroid.org>.
000013:                                                                                                  ## Website:     www.ibiblio.org/apollo/index.html
000014:                                                                                                  ## Mod history: 2023-09-04 MAS  Created from Artemis 072.
000015:                                                                                                  ##              2024-03-05 MAS  Updated for Skylark 48.
000016:
000017:
000018: 43,2000                                           SETLOC   EXTVERBS
000019: 43,2000                                           BANK
000020:
000021: 43,2000  E5,1757                                  EBANK=   OGC
000022:
000023: 43,2000                                           COUNT*   $$/EXTVB
000024:
000025:                                                                                                  #  FAN-OUT
000026:
000027: 43,2000           50154        GOEXTVB            INDEX    MPAC                                  #  VERB-40 IS IN MPAC
000028: 43,2001           02002                           TC       LST2FAN                               #  FAN AS BEFORE.
000029:
000030: 43,2002           02121        LST2FAN            TC       VBZERO                                #  VB40 ZERO (USED WITH NOUN 20 ONLY).
000031: 43,2003           02133                           TC       VBCOARK                               #  VB41 COARSE ALIGN (USED WITH NOUN 20 OR
000032:                                                                                                  #                                91 ONLY)
000033: 43,2004           02227                           TC       IMUFINEK                              #  VB42 FINE ALIGN IMU
000034: 43,2005           02364                           TC       IMUATTCK                              #  VB43 LOAD IMU ATTITUDE ERROR METERS.
000035: 43,2006           02541                           TC       DKDISP                                #  VB44 LOAD DOCKED A/P DATA.
000036: 43,2007           02570                           TC       DKDAPON                               #  VB45 DOCKED DAP TURN ON.
000037: 43,2010           02443                           TC       STABLISH                              #  VB46 ESTABLISH G+C CONTROL.
000038: 43,2011           03047                           TC       LMTOCMSV                              #  VB47 MOVE LM STATE VECTOR INTO CM
000039: 43,2012           02614                           TC       DAPDISP                               #  VB48 LOAD A/P DATA.
000040: 43,2013           12532                           TCF      CREWMANU                              #  VB 49 START AUTOMATIC ATTITUDE MANEUVER
000041: 43,2014           02265                           TC       GOLOADLV                              #  VB50 PLEASE PERFORM
000042: 43,2015           02265                           TC       GOLOADLV                              #  VB51 PLEASE MARK
000043: 43,2016           02116                           TC       ALM/END                               #  VB52 SPARE
000044: 43,2017           02265                           TC       GOLOADLV                              #  VB53 PLEASE PERFORM COAS MARK
000045: 43,2020           02650                           TC       GOTOR23                               #  V54 START R23 (R21-BACKUP)
000046: 43,2021           02312                           TC       ALINTIME                              #  VB55 ALIGN TIME
000047: 43,2022           02711                           TC       TRACKTRM                              #  VB56 TERMINATE TRACKING (P20 +P25)
000048: 43,2023           03145                           TC       V57CALL                               #  V57  FULTKFLG SETTING OPTION
000049: 43,2024           02437                           TC       ENATMA                                #  VB58 ENABLE AUTOMATIC ATTITUDE MANEUVER
000050: 43,2025           02607                           TC       DKJTENBL                              #  VB59 ENABLE JETS INHIBITED BY DOCKED DAP
000051: 43,2026           02273                           TC       V60                                   #  VB60 SET CPHIX (N17) EQUAL TO CDU
000052: 43,2027           02301                           TC       V61                                   #  VB61 SELECT MODE I
000053: 43,2030           02304                           TC       V62                                   #  VB62 SELECT MODE II, ERROR WRT N22
000054: 43,2031           02307                           TC       V63                                   #  VB63 SELECT MODE III, ERROR WRT N17
000055: 43,2032           03077                           TC       R64                                   #  VB64 TRANSFORM OPTICS ANGLES TO TRACKING
000056: 43,2033           02342                           TC       CKOPTVB                               #  V 65 E OPTICAL VERIFICATION FOR PRELAUNC
000057: 43,2034           03042                           TC       ATTACHED                              #  VB 66 ATTACHED. MOVE THIS TO OTHER STATE
000058: 43,2035           03071                           TC       V67                                   #  VB67 WMATRIX MONITOR
000059: 43,2036           02116                           TC       ALM/END                               #  VB68 SPARE
000060: 43,2037           02037        VERB69             TC       VERB69                                #  VB 69 CAUSE RESTART
000061: 43,2040           03721                           TC       V70UPDAT                              #  VB70 UPDATE LIFTOFF TIME.
000062: 43,2041           03723                           TC       V71UPDAT                              #  VB71 UNIVERSAL UPDATE - BLOCK ADDRESS.
000063: 43,2042           03725                           TC       V72UPDAT                              #  VB72 UNIVERSAL UPDATE - SINGLE ADDRESS.
000064: 43,2043           03727                           TC       V73UPDAT                              #  VB73 UPDATE AGC TIME (OCTAL).
000065: 43,2044           02756                           TC       DNEDUMP                               #  VB74 INITIALIZE DOWN-TELEMETRY PROGRAM
000066:                                                                                                  #        FOR ERASABLE DUMP.
000067: 43,2045           02763                           TC       LFTFLGON                              #  VB75 SET LIFTOFF FLAG.
000068: 43,2046           13105                           TCF      V76CALL                               #  VB76 START R27 IN P20
000069: 43,2047           13125                           TCF      V77CALL                               #  VB77 KILL R27
000070: 43,2050           02352                           TC       CHAZFOGC                              #  CHANGE GYROCOMPASS LAUNCH AZIMUTH V78
000071: 43,2051           02116                           TC       ALM/END                               #  VB79 SPARE
000072: 43,2052           02753                           TC       LEMVEC                                #  VB80 UPDATE LEM STATE VECTOR
000073: 43,2053           02755                           TC       CSMVEC                                #  VB81 UPDATE CSM STATE VECTOR
000074: 43,2054           02627                           TC       V82PERF                               #  VB82 REQUEST ORBIT PARAM DISPLAY (R30)
000075: 43,2055           02634                           TC       V83PERF                               #  VB83 RANGE, RANGE RATE, +X AXIS  (R31)
000076: 43,2056           02116                           TC       ALM/END                               #  V84 SPARE
000077: 43,2057           02644                           TC       V85PERF                               #  VB85 RANGE, RANGE RATE, SLOS     (R34)
000078: 43,2060           02671                           TC       V86PERF                               #  VB86 BACKUP MARK REJECT
000079: 43,2061           03041                           TC       SETVHFLG                              #  VB87 SET VHF RANGE FLAG
000080: 43,2062           03036                           TC       RESETVHF                              #  VB88 RESET VHF RANGE FLAG
000081: 43,2063           02772                           TC       V89PERF                               #  V89-ALIGN X OR PRF CSM AXIS TO LOS (R63)
000082: 43,2064           03054                           TC       V90PERF                               #  VB90-OUT OF PLANE PARAMETERS     %R36"
000083: 43,2065           03003                           TC       GOSHOSUM                              #  VB91 TEMP FOR HYBRID AND STG.
000084: 43,2066           02116                           TC       ALM/END                               #  VB92 SPARE
000085: 43,2067           03001                           TC       WMATRXNG                              #  VB93 CLEAR RENDWFLG
000086: 43,2070           02116                           TC       ALM/END                               #  VB94 SPARE
000087: 43,2071           02116                           TC       ALM/END                               #  VB95 SPARE
000088: 43,2072           13062                           TCF      VERB96                                #  VB96 SET QUITFLAG TO STOP INTEGRATION
000089: 43,2073           02265                           TC       GOLOADLV                              #  V97 PLEASE PERFORM ENGINE-FAIL (R41)
000090: 43,2074           02116                           TC       ALM/END                               #  VB98 SPARE
000091: 43,2075           02265                           TC       GOLOADLV                              #  VB99 PLEASE ENABLE ENGINE
000092:
000093:                                                                                                  #  END OF EXTENDED VERB FAN
000094:
000095: 43,2076           11237        TESTXACT           CCS      EXTVBACT
000096: 43,2077           02116                           TC       ALM/END                               #  YES. TURN ON OPERATOR ERROR LIGHT
000097: 43,2100           30100                           CA       FLAGWRD4                              #  ARE PRIOS USING DSKY
000098: 43,2101           77646                           MASK     14,12,7
000099: 43,2102           10000                           CCS      A
000100: 43,2103           02116                           TC       ALM/END
000101:
000102: 43,2104           34124                           CAF      OCT24                                 #  SET BITS 3 AND 5
000103: 43,2105           55237        SETXTACT           TS       EXTVBACT                              #  NO. SET FLAG TO SHOW EXT VERB DISPLAY
000104:                                                                                                  #  SYSTEM BUSY
000105:
000106: 43,2106           30002                           CA       Q
000107: 43,2107           54155                           TS       MPAC       +1
000108:
000109: 43,2110           45000                           CS       TWO                                   #  BLANK EVERYTHING EXCEPT MM AND VERB
000110: 43,2111           04202                           TC       NVSUB
000111: 43,2112           02113                           TC       +1
000112: 43,2113           10067                           CCS      NEWJOB                                #  ALLOW POSSIBLE WAITING DISPLAY (FROM
000113: 43,2114           05165                           TC       CHANG1                                #     RELDSP) TO COME UP.
000114:
000115: 43,2115           00155                           TC       MPAC       +1
000116:
000117: 43,2116     5537               TERMEXTV           EQUALS   ENDEXT
000118:
000119:
000120: 43,2116     5537               ENDEXTVB           EQUALS   ENDEXT
000121:
000122: 43,2116           04362        ALM/END            TC       FALTON                                #  TURN ON OPERATOR ERROR LIGHT
000123: 43,2117           04666        GOPIN              TC       POSTJUMP
000124: 43,2120           21155                           CADR     PINBRNCH
000125:
000126:
000127:                                                                                                  #  VBZERO        VERB 40         DESCRIPTION
000128: 43,2121           31325        VBZERO             CA       MODECADR                              #  KEYBOARD REQUEST FOR ISS CDU ZERO
000129: 43,2122           00006                           EXTEND
000130: 43,2123           12125                           BZF      +2
000131: 43,2124           02116                           TC       ALM/END
000132: 43,2125           04647                           TC       BANKCALL
000133: 43,2126           16560                           CADR     IMUZERO
000134:
000135: 43,2127           04647                           TC       BANKCALL                              #  STALL
000136: 43,2130           17575                           CADR     IMUSTALL
000137: 43,2131           02132                           TC       +1
000138:
000139: 43,2132           02117                           TC       GOPIN
000140:
000141:
000142:                                                                                                  #  VBCOARK       VERB 41         DESCRIPTION
000143:                                                                                                  #        COURSE ALIGN IMU OR OPTICS
000144:
000145:                                                                                                  #        1. REQUIRE NOUN 20 OR NOUN 91 OR TURN ON OPERATOR ERROR
000146:                                                                                                  #        2. REQUIRE EXT VERB DISPLAY SYS AVAILABLE OR TURN ON OPERATOR ERROR LIGHT AND GO TO PINBRNCH.
000147:                                                                                                  #        CASE 1  NOUN 20 (ICDU ANGLES)
000148:                                                                                                  #        3. SET EXT VERB DISPLAY ACTIVE FLAG.
000149:                                                                                                  #        4. DISPLAY FLASHING V25,N22 (LOAD NEW ICDU ANGLES).
000150:                                                                                                  #           RESPONSES
000151:                                                                                                  #                A. TERMINATE
000152:                                                                                                  #                        1. RELEASE EXT VERB DISPLAY SYSTEM
000153:                                                                                                  #                B. PROCEED
000154:                                                                                                  #                        1. DISPLAY FLASHING V25,N23 (LOAD DELTA ICDU ANGLES).
000155:                                                                                                  #                                RESPONSES
000156:                                                                                                  #                                A. TERMINATE
000157:                                                                                                  #                                        1. RELEASE EXT VERB DISPLAY SYSTEM.
000158:                                                                                                  #                                B. PROCEED
000159:                                                                                                  #                                        1. EXECUTE ICORK2.
000160:                                                                                                  #                                C. ENTER
000161:                                                                                                  #                                        1. INCREMENT CDU ANGLES
000162:                                                                                                  #                                        2. EXECUTE ICORK2.
000163:                                                                                                  #                C. ENTER
000164:                                                                                                  #                        1. EXECUTE ICORK2.
000165:                                                                                                  #        ICORK2
000166:                                                                                                  #                1. RE-DISPLAY VERB 41.
000167:                                                                                                  #                2. EXECUTE IMUCOARS (IMU COARSE ALIGN).
000168:                                                                                                  #                3. EXECUTE IMUSTALL (ALLOW TIME FOR DATA TRANSFER).
000169:                                                                                                  #                4. RELEASE EXT VERB DISPLAY SYSTEM.
000170:                                                                                                  #        CASE 2  NOUN 91 (OCDU ANGLES)
000171:                                                                                                  #        5. (REQUIRE OPTICS SWITCH TO BE AT COMPUTER OR TURN ON OPERATOR ERROR AND ALARM 115) AND (REQUIRE
000172:                                                                                                  #           OPTICS AVAILABLE AND DISPLAY FLASHING V24,N92....LOAD NEW OPTICS ANGLES....OR TURN ON ALARM 117
000173:                                                                                                  #           AND RELEASE EXT VERB DISPLAY SYSTEM).
000174:                                                                                                  #        6. RESPONSES TO V29,N92.
000175:                                                                                                  #                A. TERMINATE
000176:                                                                                                  #                        RELEASE EXT VERB DISPLAY SYSTEM
000177:                                                                                                  #                B. PROCEED OR ENTER
000178:                                                                                                  #                        RE-DISPLAY V41, SET SWITCH TO INDICATE COURSE ALIGN OPTICS WORKING.
000179:                                                                                                  #                        RELEASE EXT VERB DISPLAY SYSTEM.
000180:
000181: 43,2133           44124        VBCOARK            CS       OCT24
000182: 43,2134           61175                           AD       NOUNREG
000183: 43,2135           00006                           EXTEND
000184: 43,2136           12143                           BZF      IMUCOARK                              #  NOUN 20
000185:
000186: 43,2137           62165                           AD       OPIMDIFF                              #  -71
000187: 43,2140           00006                           EXTEND
000188: 43,2141           12166                           BZF      OPTCOARK                              #  NOUN 91
000189:
000190: 43,2142           02116                           TC       ALM/END                               #  WRONG NOUN
000191:
000192: 43,2143           02076        IMUCOARK           TC       TESTXACT                              #  COARSE ALIGN FROM KEYBOARD
000193: 43,2144           32163                           CAF      VNLODCDU                              #  CALL FOR THETAD LOAD
000194: 43,2145           04647                           TC       BANKCALL
000195: 43,2146           20456                           CADR     GOXDSPF
000196: 43,2147           05537                           TC       TERMEXTV
000197: 43,2150           12151                           TCF      +1
000198:
000199: 43,2151           32164        ICORK2             CAF      IMUCOARV                              #  RE-DISPLAY COARSE ALIGN VERB.
000200: 43,2152           04647                           TC       BANKCALL
000201: 43,2153           20744                           CADR     EXDSPRET
000202:
000203: 43,2154           02260                           TC       CKMODCAD
000204: 43,2155           04647                           TC       BANKCALL                              #  CALL MODE SWITCHING PROG
000205: 43,2156           16655                           CADR     IMUCOARS
000206:
000207: 43,2157           04647                           TC       BANKCALL                              #  STALL
000208: 43,2160           17575                           CADR     IMUSTALL
000209: 43,2161           05537                           TC       ENDEXTVB
000210: 43,2162           05537                           TC       ENDEXTVB
000211:
000212: 43,2163           06226        VNLODCDU           VN       2522
000213: 43,2164           12200        IMUCOARV           VN       4100
000214: 43,2165           77670        OPIMDIFF           DEC      -71        B-14
000215:
000216:
000217:                                                                                                  #  TEMPORARY ROUTINE TO RUN THE OPTICS CDUS FROM THE KEYBOARD
000218:
000219: 43,2166           02764        OPTCOARK           TC       CHKPOOH                               #  ENSURE IN POO
000220: 43,2167           02076                           TC       TESTXACT
000221: 43,2170           35055                           CAF      EBANK5
000222: 43,2171           54003                           TS       EBANK
000223:
000224: 43,2172           11346                           CCS      SWSAMPLE                              #  SEE IF SWITCH AT COMPUTER
000225: 43,2173           02200                           TC       +5                                    #  SWITCH AT COMPUTER
000226: 43,2174           02175                           TC       +1                                    #  NOT ON COMPUTER
000227: 43,2175           04362                           TC       FALTON                                #  TURN ON OPERATOR ERR
000228: 43,2176           05644                           TC       ALARM                                 #  AND ALARM
000229: 43,2177           00115                           OCT      00115
000230:
000231: 43,2200           11313                           CCS      OPTIND                                #  SEE IF OPTICS AVAILABLE
000232: 43,2201           02207                           TC       OPTC1                                 #  IN USE
000233: 43,2202           02207                           TC       OPTC1                                 #  IN USE
000234: 43,2203           02207                           TC       OPTC1                                 #  IN USE
000235:
000236: 43,2204           05644                           TC       ALARM                                 #  OPTICS RESERVED (OPTIND=-0)
000237: 43,2205           00117                           OCT      00117
000238: 43,2206           05537                           TC       ENDEXT
000239:
000240: 43,2207           32226        OPTC1              CAF      VNLDOCDU                              #  VERB-NOUN TO LOAD OPTICS CDUS
000241: 43,2210           04647                           TC       BANKCALL
000242: 43,2211           20456                           CADR     GOXDSPF
000243: 43,2212           05537                           TC       TERMEXTV
000244: 43,2213           02214                           TC       +1                                    #  PROCEED
000245:
000246: 43,2214           31773                           CA       SAC
000247: 43,2215           55303                           TS       DESOPTS
000248: 43,2216           31775                           CA       PAC
000249: 43,2217           55302                           TS       DESOPTT
000250: 43,2220           32164                           CAF      OPTCOARV                              #  RE-DISPLAY OUR OWN VERB
000251: 43,2221           04647                           TC       BANKCALL
000252: 43,2222           20744                           CADR     EXDSPRET
000253:
000254: 43,2223           35001                           CAF      ONE
000255: 43,2224           55313                           TS       OPTIND                                #  SET COARS WORKING
000256:
000257: 43,2225           05537                           TC       ENDEXTVB
000258:
000259: 43,2226           06134        VNLDOCDU           VN       2492
000260: 43,2227  43,2164               OPTCOARV           EQUALS   IMUCOARV                              #  DIFFERENT NOUNS.
000261:
000262:
000263:                                                                                                  #  IMUFINEK      VERB 42         DESCRIPTION
000264:                                                                                                  #        FINE ALIGN IMU
000265:
000266:                                                                                                  #        1. REQUIRE EXT VERB DISPLAY AVAILABLE AND SET BUSY FLAG OR TURN ON OPER ERROR AND GO TO PINBRNCH.
000267:                                                                                                  #        2. DISPLAY FLASHING V25,N93....LOAD DELTA GYRO ANGLES....
000268:                                                                                                  #                RESPONSES
000269:                                                                                                  #                A. TERMINATE
000270:                                                                                                  #                        1. RELEASE EXT VERB DISPLAY SYSTEM.
000271:                                                                                                  #                B. PROCEED OR ENTER
000272:                                                                                                  #                        1. RE-DISPLAY VERB 42
000273:                                                                                                  #                        2. EXECUTE IMUFINE (IMU FIVE ALIGN MODE SWITCHING).
000274:                                                                                                  #                        3. EXECUTE IMUSTALL (ALLOW FOR DATA TRANSFER)
000275:                                                                                                  #                                A. FAILED
000276:                                                                                                  #                                        1. RELEASE EXT VERB DISPLAY SYSTEM.
000277:                                                                                                  #                                B. GOOD
000278:                                                                                                  #                                        1. EXECUTE IMUPULSE (TORQUE IRIGS).
000279:                                                                                                  #                                        2. EXECUTE IMUSTALL AND RELEASE EXT VERB DISPLAY SYSTEM.
000280:
000281: 43,2227           02076        IMUFINEK           TC       TESTXACT                              #  FINE ALIGN WITH GYRO TORQUING
000282: 43,2230           32256                           CAF      VNLODGYR                              #  CALL FOR LOAD OF GYRO COMMANDS
000283: 43,2231           04647                           TC       BANKCALL
000284: 43,2232           20456                           CADR     GOXDSPF
000285: 43,2233           05537                           TC       TERMEXTV
000286: 43,2234           02235                           TC       +1                                    #  PROCEED WITHOUT A LOAD
000287:
000288: 43,2235           32257                           CAF      IMUFINEV                              #  RE-DISPLAY OUR OWN VERB
000289: 43,2236           04647                           TC       BANKCALL
000290: 43,2237           20744                           CADR     EXDSPRET
000291:
000292: 43,2240           02260                           TC       CKMODCAD
000293: 43,2241           04647                           TC       BANKCALL                              #  CALL MODE SWITCH PROG
000294: 43,2242           17064                           CADR     IMUFINE
000295:
000296: 43,2243           04647                           TC       BANKCALL                              #  HIBERNATION
000297: 43,2244           17575                           CADR     IMUSTALL
000298: 43,2245           05537                           TC       ENDEXTVB
000299:
000300: 43,2246           32255        FINEK2             CAF      LGYROBIN                              #  PINBALL LEFT COMMANDS IN OGC REGIST5RS
000301: 43,2247           04647                           TC       BANKCALL
000302: 43,2250           17175                           CADR     IMUPULSE
000303:
000304: 43,2251           04647                           TC       BANKCALL                              #  WAIT FOR PULSES TO GET OUT.
000305: 43,2252           17575                           CADR     IMUSTALL
000306: 43,2253           05537                           TC       ENDEXTVB
000307: 43,2254           05537                           TC       ENDEXTVB
000308:
000309: 43,2255           02757        LGYROBIN           ECADR    OGC
000310: 43,2256           06335        VNLODGYR           VN       2593
000311: 43,2257           12400        IMUFINEV           VN       4200                                  #  FINE ALIGN VERB
000312:
000313: 43,2260           31325        CKMODCAD           CA       MODECADR
000314: 43,2261           00006                           EXTEND
000315: 43,2262           16711                           BZF      TCQ
000316: 43,2263           04362                           TC       FALTON
000317: 43,2264           05537                           TC       ENDEXTVB
000318:
000319:                                                                                                  #  GOLOADLV      VERB 50         DESCRIPTION
000320:                                                                                                  #                AND OTHER PLEASE
000321:                                                                                                  #                DO SOMETHING VERBS
000322:
000323:                                                                                                  #        PLEASE PERFORM, MARK, CALIBRATE, ETC.
000324:
000325:                                                                                                  #        1. PRESSING ENTER ON DSKY INDICATES REQUESTED ACTION HAS BEEN PERFORMED, AND THE PROGRAM DOES THE
000326:                                                                                                  #           SAME RECALL AS A COMPLETED LOAD.
000327:                                                                                                  #        2. THE EXECUTION OF A VERB 33 (PROCEED WITHOUT DATA) INDICATES THE REQUESTED ACTION IS NOT DESIRED.
000328:
000329: 43,2265           04417        GOLOADLV           TC       FLASHOFF
000330: 43,2266           34223                           CAF      PINSUPBT
000331: 43,2267           00006                           EXTEND
000332: 43,2270           01007                           WRITE    SUPERBNK                              #  TURN ON FE7
000333: 43,2271           04666                           TC       POSTJUMP
000334: 43,2272  40,2000                                  SBANK=   PINSUPER
000335: 43,2272           63003                           CADR     LOADLV1
000336:
000337:                                                                                                  #  V60   VERB 60
000338:
000339: 43,2273           00006        V60                EXTEND                                         #  SET ASTRONAUT TOTAL ATTITUDE (N17) EQUAL
000340: 43,2274           30033                           DCA      CDUX                                  #  TO PRESENT ATTITUDE
000341: 43,2275           53007                           DXCH     CPHIX
000342: 43,2276           30034                           CA       CDUZ
000343: 43,2277           55010                           TS       CPHIX      +2
000344: 43,2300           02117                           TC       GOPIN
000345:
000346:                                                                                                  #  V61   VERB 61
000347:
000348: 43,2301           03130        V61                TC       DOWNX                                 #  CLEAR NEEDLFLG, PHASE
000349: 43,2302           00006                           ADRES    NEEDLFLG                              #  PLANE A/P FOLLOWING ERROR DISPLAYED
000350: 43,2303           03134        SETNEEDL           TC       UPX                                   #  SET NEEDLFLG, TOTAL ATT ERR DISPLAYED
000351:
000352:                                                                                                  #  V62   VERB 62
000353:
000354: 43,2304           07710        V62                TC       UPFLAG
000355: 43,2305           00220                           ADRES    N22ORN17                              #  COMPUTE TOTAL ATTITUDE ERROR WRT N22
000356: 43,2306           02303                           TC       SETNEEDL
000357:
000358:                                                                                                  #  V63   VERB 63
000359:
000360: 43,2307           07722        V63                TC       DOWNFLAG
000361: 43,2310           00220                           ADRES    N22ORN17                              #  COMPUTE TOTAL ASTRONAUT ATTITUDE ERROR
000362: 43,2311           02303                           TC       SETNEEDL
000363:
000364:
000365:                                                                                                  #  ALINTIME      VERB 55         DESCRIPTION
000366:                                                                                                  #        1. SET EXT VERB DISPLAY BUSY FLAG.
000367:                                                                                                  #        2. DISPLAY FLASHING V25,N24 (LOAD DELTA TIME FOR AGC CLOCK.
000368:                                                                                                  #        3. REQUIRE EXECUTION OF VERB 23.
000369:                                                                                                  #        4. ADD DELTA TIME, RECEIVED FROM INPUT REGISTER, TO THE COMPUTER TIME.
000370:                                                                                                  #        5. RELEASE EXT VERB DISPLAY SYSTEM
000371:
000372: 43,2312                                           COUNT*   $$/R33
000373: 43,2312           02076        ALINTIME           TC       TESTXACT
000374:
000375: 43,2313           32341                           CAF      VNLODDT
000376: 43,2314           04647                           TC       BANKCALL
000377: 43,2315           20456                           CADR     GOMARKF
000378: 43,2316           05537                           TC       ENDEXT                                #  TERMINATE
000379: 43,2317           05537                           TC       ENDEXT                                #  PROCEED
000380: 43,2320           44626                           CS       DEC23                                 #  DATA IN OR RESEQUENCE (UNLIKELY)
000381: 43,2321           60154                           AD       MPAC                                  #  RECALL LEFT VERB IN MPAC
000382: 43,2322           00006                           EXTEND
000383: 43,2323           12325                           BZF      UPDATIME                              #  GO AHEAD WITH UPDATE ONLY IF RECALL
000384: 43,2324           05537                           TC       ENDEXT                                #        WITH V23 (DATA IN).
000385: 43,2325           00004        UPDATIME           INHINT                                         #  DELTA TIME IS IN DSPTEM1, +1.
000386: 43,2326           35003                           CAF      ZERO
000387: 43,2327           54001                           TS       L                                     #  ZERO T1 & 2 WHILE ALIGNING.
000388: 43,2330           52025                           DXCH     TIME2
000389: 43,2331           52155                           DXCH     MPAC
000390: 43,2332           53245                           DXCH     DSPTEM2    +1                         #  INCREMENT
000391: 43,2333           20155                           DAS      MPAC
000392:
000393: 43,2334           07224                           TC       DPAGREE                               #  FORCE SIGN AGREEMENT
000394: 43,2335           52155                           DXCH     MPAC                                  #  NEW CLOCK.
000395: 43,2336           20025                           DAS      TIME2
000396: 43,2337           00003                           RELINT
000397: 43,2340           05537        UPDTMEND           TC       ENDEXT
000398: 43,2341           06230        VNLODDT            VN       2524                                  #  V25N24 FOR LOAD DELTA TIME
000399:
000400:                                                                                                  #  REDO AND TSELECT ARE NOW IN SYSTEM TEST.
000401:
000402: 43,2342                                           COUNT*   $$/EXTVB
000403:                                                                                                  #  CKOPTVB       VERB 65         DESCRIPTION
000404:                                                                                                  #        OPTICAL VERIFICATION FOR PRELAUNCH.
000405:                                                                                                  #        1. SCHEDULE GCOMPVER, OPTICAL VERIFICATION SUBPROGRAM, WITH PRIORITY 17.
000406:
000407: 43,2342           05367        CKOPTVB            TC       CHECKMM
000408: 43,2343           00002                           MM       02         B-14                       #  I WONDER IF PRELAUNCH IS RUNNING
000409: 43,2344           02116                           TC       ALM/END                               #  NOT RUNNING OPERATOR ERROR
000410: 43,2345           35067                           CAF      PRIO16                                #  PRELAUNCH OPTICAL VERIFICATION
000411: 43,2346           05150                           TC       FINDVAC
000412: 43,2347  E5,1425                                  EBANK=   QPLACE
000413: 43,2347           02000 66065                     2CADR    COMPVER                               #  STANDARD LEADIN TO GCOMPVER.
000414:
000415: 43,2351           02117                           TC       GOPIN
000416:
000417:                                                                                                  #  V 78 ....     TO CHANGE GYROCOMPASS AZIMUTH
000418:
000419: 43,2352           05367        CHAZFOGC           TC       CHECKMM                               #  IS IT PRELAUNCH
000420: 43,2353           00002                           MM       02         B-14
000421: 43,2354           02116                           TC       ALM/END                               #  NO - OPERATOR ERROR
000422:
000423: 43,2355           35067                           CAF      PRIO16                                #  PRELAUNCH AZIMUTH CHANGE
000424: 43,2356           05150                           TC       FINDVAC
000425: 43,2357  E5,1660                                  EBANK=   XSM
000426: 43,2357           03175 66105                     2CADR    AZMTHCG1
000427:
000428: 43,2361           05415                           TC       PHASCHNG
000429: 43,2362           00174                           OCT      00174
000430: 43,2363  01,2154               4P17SPT1           =        4.17SPOT
000431: 43,2363           02117                           TC       GOPIN
000432:
000433:
000434:                                                                                                  #  IMUATTCK      VERB 43         DESCRIPTION
000435:                                                                                                  #        LOAD IMU ATTITUDE ERROR METERS
000436:                                                                                                  #        1. REQUIRE PROGRAM 00 ACTIVE, COARSE ALIGN ENABLE BIT OFF AND ZERO ICDU BIT OFF.
000437:                                                                                                  #        2. IF GUID REF RELEASE OR LIFTOFF HAS OCCURRED REQUIRE EXT VERB DISPLAY AVAILABLE AND SET BUSY
000438:                                                                                                  #           FLAG, OTHERWISE ALLOW CURRENT EXT VERB DISPLAY TO BE OVER-RIDDEN.
000439:                                                                                                  #        3. REMOVE COARSE ALIGN ENABLE AND IMU ERROR COUNTER ENABLE
000440:                                                                                                  #        4. DISPLAY FLASHING V25,N22 (LOAD NEW ICDU ANGLES).
000441:                                                                                                  #        5. UPON PROCEED OR ENTER RESPONSE, INITIALIZE CURRENT DAC AND COMMAND VALUES, ENABLE ERROR COUNTERS
000442:                                                                                                  #           TRANSFER LOADED VALUES TO REGISTERS, AND SEND COMMANDS.
000443:                                                                                                  #        6. IF BUSY FLAG SET, RESET IT TO RELEASE EXT VERB DISPLAY.
000444:
000445: 43,2364           02764        IMUATTCK           TC       CHKPOOH
000446:
000447: 43,2365           35012                           CAF      BITS4&5                               #  CHECK IF IMU ZERO AND IMU COARSE ARE ON
000448: 43,2366           00006                           EXTEND
000449: 43,2367           02012                           RAND     CHAN12
000450: 43,2370           10000                           CCS      A
000451: 43,2371           12116                           TCF      ALM/END                               #  NOT ALLOWED IF IMU COARSE OR IMU ZERO ON
000452:
000453: 43,2372           02427                           TC       CKLFTBTS                              #  IS IT BEFORE OR AFTER LIFTOFF
000454: 43,2373           02076                           TC       TESTXACT                              #  AFTER
000455: 43,2374           45016                           CS       OCT50                                 #  REMOVE COARSE AND ECTR ENABLE.
000456: 43,2375           00006                           EXTEND
000457: 43,2376           03012                           WAND     CHAN12
000458:
000459: 43,2377           32163                           CAF      VNLODCDU
000460: 43,2400           04647                           TC       BANKCALL
000461: 43,2401           20456                           CADR     GOXDSPF
000462: 43,2402           12414                           TCF      TRMATTCK
000463: 43,2403           02404                           TC       +1
000464: 43,2404           04611                           TC       E6SETTER                              #  FOR NEEDLES.
000465:
000466: 43,2405  E6,1525                                  EBANK=   AK
000467:
000468: 43,2405           04647                           TC       BANKCALL                              #  INITIALIZE CURRENT DAC AND
000469: 43,2406           31703                           CADR     NEEDLE11                              #  COMMAND VALUES
000470:
000471: 43,2407           04647                           TC       BANKCALL                              #  ENABLE ERROR COUNTERS.
000472: 43,2410           31722                           CADR     NEEDLER2
000473:
000474: 43,2411           35000                           CAF      TWO                                   #  4 MS MIN.
000475: 43,2412           05236                           TC       TWIDDLE
000476: 43,2413           02417                           ADRES    ATTCK1
000477: 43,2414           02427        TRMATTCK           TC       CKLFTBTS                              #  IS IT BEFORE OR AFRER LIFTOFF
000478: 43,2415           15537                           TCF      ENDEXT                                #  AFTER
000479: 43,2416           02117                           TC       GOPIN
000480:
000481: 43,2417           00006        ATTCK1             EXTEND                                         #  TRANSFER LOADED VALUES TO DESIRED REGS.
000482: 43,2420           31300                           DCA      THETAD
000483: 43,2421           53526                           DXCH     AK
000484: 43,2422           31301                           CAE      THETAD     +2
000485: 43,2423           55527                           TS       AK         +2
000486:
000487: 43,2424           04725                           TC       IBNKCALL                              #  SENDS COMMANDS LIMITED TO +,- 384 PULSES
000488: 43,2425           31736                           CADR     NEEDLES                               #  AND LEAVES ERROR COUNTERS ENABLED.
000489:
000490: 43,2426           05327                           TC       TASKOVER
000491:
000492: 43,2427           34775        CKLFTBTS           CAF      GRRBKBIT                              #  HAS LIFTOFF OCCURRED
000493: 43,2430           70101                           MASK     FLAGWRD5
000494: 43,2431           10000                           CCS      A
000495: 43,2432           00002        XACT0Q             TC       Q                                     #  YES
000496: 43,2433           34775                           CAF      BIT5
000497: 43,2434           00006                           EXTEND
000498: 43,2435           02030                           RAND     CHAN30
000499: 43,2436           15624                           TCF      INCRQCK
000500:
000501:                                                                                                  #  ENATMA        VERB 58         DESCRIPTION
000502:                                                                                                  #        ENABLE AUTOMATIC ATTITUDE MANEUVER
000503:
000504:                                                                                                  #  VERB58 RESETS STIKFLAG TO ENABLE R61 TO PERFORM AUTOMATIC TRACKING MANEUVERS, AFTER INTERUPTIONS BY RHC ACT-
000505:                                                                                                  #  IVITY.
000506:
000507: 43,2437           07710        ENATMA             TC       UPFLAG                                #  SET FLAG TO ENABLE R60 MANEUVER
000508: 43,2440           00055                           ADRES    V50N18FL
000509: 43,2441           03130                           TC       DOWNX                                 #  RESET STIKFLAG.
000510: 43,2442           00020                           ADRES    STIKFLAG
000511:
000512:                                                                                                  #  STABLISH      VERB 46         DESCRIPTION
000513:                                                                                                  #        ESTABLISH G & N AUTOPILOT CONTROL
000514:                                                                                                  #        1. SETS UP EITHER RCS, ENTRY, OR SATURN
000515:                                                                                                  #        2. IF TVC IS ON, SETS UP CSM/LM SWITCH-OVER
000516:                                                                                                  #                FROM HIGH BW TO LOW BW
000517:
000518:
000519: 43,2443           04611        STABLISH           TC       E6SETTER
000520:
000521: 43,2444           40102                           CS       FLAGWRD6                              #  TEST FOR TVC
000522: 43,2445           74076                           MASK     DPCONFIG
000523: 43,2446           00006                           EXTEND
000524: 43,2447           62457                           BZMF     DAPFIG
000525: 43,2450           31514                           CAE      DAPDATR1                              #  TET FOR CSM/LM
000526: 43,2451           74764                           MASK     BIT14
000527: 43,2452           00006                           EXTEND
000528: 43,2453           62116                           BZMF     ALM/END                               #  CSM, SO ALARM AND EXIT
000529:
000530: 43,2454           04647                           TC       BANKCALL                              #  CSM/LM, SO PERFORM HB TO LB SWITCH-OVER
000531: 43,2455           36402                           CADR     SWICHOVR
000532:
000533: 43,2456           02117                           TC       GOPIN
000534:
000535: 43,2457           44771        DAPFIG             CS       BIT9                                  #  TURN OFF SIVB TAKEOVER
000536: 43,2460           00006                           EXTEND
000537: 43,2461           03012                           WAND     CHAN12
000538: 43,2462           31514                           CAE      DAPDATR1                              #  DETERMINE VEHICLE CONFIGURATION
000539: 43,2463           00006                           EXTEND
000540: 43,2464           74777                           MP       BIT3                                  #  RIGHT SHIFT 4 OCTAL DIGITS
000541: 43,2465           76214                           MASK     THREE                                 #  (IN CASE BIT 15 IS USED)
000542: 43,2466           00004                           INHINT
000543: 43,2467           50000                           INDEX    A
000544: 43,2470           12471                           TCF      +1                                    #  BRANCH BASED ON CONFIG
000545: 43,2471           12517                           TCF      NODAPUP                               #  CM.. ACTIVATE NODAP
000546: 43,2472           12511                           TCF      RCSDAPUP                              #  CSM..ACTIVATE RCSDAP
000547: 43,2473           12511                           TCF      RCSDAPUP                              #  CSM/LM ACTIVATE RCSDAP
000548: 43,2474           00006        SATSTKON           EXTEND
000549: 43,2475           32510                           DCA      2REDOSAT
000550: 43,2476           52113                           DXCH     T5LOC
000551: 43,2477           34761                           CAF      POSMAX
000552: 43,2500           54030                           TS       TIME5
000553: 43,2501           40102                           CS       FLAGWRD6                              #  TURN ON BITS 15,14 OF FLAGWRD6
000554: 43,2502           74076                           MASK     DPCONFIG
000555: 43,2503           26102                           ADS      FLAGWRD6                              #  SATSTICK CONTROL OF T5
000556: 43,2504           04725                           TC       IBNKCALL                              #  ZERO JET CHANNELS IN 14MS AND THEN
000557: 43,2505           42515                           CADR     ZEROJET                               #  LEAVE THE T6 CLOCK DISABLED
000558: 43,2506           02117                           TC       GOPIN                                 #  EXIT THUS BECAUSE WE CAME VIA V46
000559:
000560: 43,2507  E6,1735                                  EBANK=   SPOLYARG
000561: 43,2507           02000 54106  2REDOSAT           2CADR    REDOSAT
000562:
000563: 43,2511           44774        RCSDAPUP           CS       45/46BIT
000564: 43,2512           70077                           MASK     FLAGWRD3
000565: 43,2513           54077                           TS       FLAGWRD3
000566: 43,2514           04725                           TC       IBNKCALL
000567: 43,2515           45504                           CADR     RCSDAPON
000568: 43,2516           12117                           TCF      GOPIN
000569:
000570: 43,2517           04725        NODAPUP            TC       IBNKCALL                              #  ZERO JET CHANNELS IN 14 MS. AND THEN
000571: 43,2520           42515                           CADR     ZEROJET                               #  LEAVE THE T6 CLOCK DISABLED.
000572: 43,2521           35001                           CAF      BIT1
000573: 43,2522           55330                           TS       HOLDFLAG                              #  KILL KALCMANU JOB
000574:
000575: 43,2523           00006        EXDAPOFF           EXTEND
000576: 43,2524           32771                           DCA      IDLECADR                              #  SET T5 TO IDLE
000577: 43,2525           52113                           DXCH     T5LOC
000578: 43,2526           44076                           CS       DPCONFIG
000579: 43,2527           70102                           MASK     FLAGWRD6
000580: 43,2530           54102                           TS       FLAGWRD6
000581:
000582: 43,2531           02117                           TC       GOPIN
000583:
000584:
000585:                                                                                                  #  CREWMANU      VERB 49         DESCRIPTION
000586:                                                                                                  #        START AUTOMATIC ATTITUDE MANEUVER
000587:                                                                                                  #        1. REQUIRE PROGRAM 00 ACTIVE.
000588:                                                                                                  #        2. SET EXT VERB DISPLAY BUSY FLAG.
000589:                                                                                                  #        3. SCHEDULE R62DISP WITH PRIORITY 10.
000590:                                                                                                  #        4. RELEASE EXT VERB DISPLAY.
000591:
000592:                                                                                                  #        R62DISP
000593:                                                                                                  #        1. DISPLAY FLASHING V06,N22 (DECIMAL DISPLAY NEW ICDU ANGLES). UPON IMMEDIATE RETURN, SET-UP GROUP
000594:                                                                                                  #           4 FOR RESTART OF DISPLAY SEQUENCE.
000595:                                                                                                  #                RESPONSES
000596:                                                                                                  #                A. TERMINATE
000597:                                                                                                  #                        1. GO TO GOTOPOOH.
000598:                                                                                                  #                B. PROCEED
000599:                                                                                                  #                        1. SET 3AXISFLG TO INDICATE MANEUVER IS SPECIFIED BY 3 AXIS.
000600:                                                                                                  #                        2. EXECUTE R60CSM (ATTITUDE MANEUVER).
000601:                                                                                                  #                        3. ZERO GROUP 4 (END R62).
000602:                                                                                                  #                C. ENTER
000603:                                                                                                  #                        1. REPEAT FLASHING V06,N22.
000604:
000605: 43,2532           02764        CREWMANU           TC       CHKPOOH                               #  DEMAND POO
000606:
000607: 43,2533           02076                           TC       TESTXACT
000608:
000609: 43,2534           34765                           CAF      PRIO10
000610: 43,2535           05150                           TC       FINDVAC
000611: 43,2536  E6,1776                                  EBANK=   R61CNTR
000612: 43,2536           02337 56106                     2CADR    R62DISP
000613:
000614: 43,2540           05220                           TC       ENDOFJOB
000615:
000616: 43,2541           02076        DKDISP             TC       TESTXACT
000617: 43,2542           34765                           CAF      PRIO10
000618: 43,2543           05211                           TC       PRIOCHNG
000619:
000620: 43,2544           32567        DONOUN87           CAF      V05N87
000621: 43,2545           04647                           TC       BANKCALL
000622: 43,2546           20456                           CADR     GOXDSPF
000623: 43,2547           05537                           TC       ENDEXT
000624: 43,2550           02552                           TC       DONOUN89
000625: 43,2551           02544                           TC       DONOUN87
000626:
000627: 43,2552           07722        DONOUN89           TC       DOWNFLAG
000628: 43,2553           00060                           ADRES    500**FLG
000629: 43,2554           07722                           TC       DOWNFLAG
000630: 43,2555           00061                           ADRES    501**FLG
000631:
000632: 43,2556           35051                           CAF      V06N89
000633: 43,2557           04647                           TC       BANKCALL
000634: 43,2560           20467                           CADR     GOMARKFR
000635: 43,2561           05537                           TC       ENDEXT
000636: 43,2562           05537                           TC       ENDEXT
000637: 43,2563           02552                           TC       DONOUN89
000638:
000639: 43,2564           34777                           CAF      BIT3
000640: 43,2565           05531                           TC       BLANKET
000641: 43,2566           15220                           TCF      ENDOFJOB
000642:
000643: 43,2567           01327        V05N87             VN       0587
000644:
000645: 43,2570           04611        DKDAPON            TC       E6SETTER
000646: 43,2571           05367                           TC       CHECKMM
000647: 43,2572           00050                           MM       40         B-14
000648: 43,2573           12575                           TCF      +2
000649: 43,2574           12116                           TCF      ALM/END
000650:
000651: 43,2575           44771                           CS       BIT9
000652: 43,2576           00006                           EXTEND
000653: 43,2577           03012                           WAND     CHAN12
000654:
000655: 43,2600           00004                           INHINT
000656: 43,2601           40077                           CS       FLAGWRD3
000657: 43,2602           74774                           MASK     45/46BIT
000658: 43,2603           26077                           ADS      FLAGWRD3
000659:
000660: 43,2604           04725                           TC       IBNKCALL
000661: 43,2605           45504                           CADR     RCSDAPON
000662:
000663: 43,2606           02117                           TC       GOPIN
000664:
000665: 43,2607           04611        DKJTENBL           TC       E6SETTER
000666: 43,2610           35003                           CAF      ZERO
000667: 43,2611           55471                           TS       CH5FAIL
000668: 43,2612           55472                           TS       CH6FAIL
000669: 43,2613           12117                           TCF      GOPIN
000670:
000671:
000672:
000673:                                                                                                  #  DAPDISP       VERB 48         DESCRIPTION
000674:                                                                                                  #        LOAD AUTOPILOT DATA (ROUTINE R03)
000675:                                                                                                  #        0.      CHECKFAIL AND RETURN IF TVC.
000676:                                                                                                  #        1.      REQUIRE EXT VERB DISPLAY AVAILABLE AND SET BUSY FLAG.
000677:                                                                                                  #        2.      LOWER PRIORITY TO 10.
000678:                                                                                                  #        3.      DISPLAY FLASHING V04,N46 (DISPLAY AUTOPILOT CONFIGURATION)
000679:                                                                                                  #        4.      UPON PROCEED RESPONSE, EXECUTE S41.2.
000680:                                                                                                  #        5.      DISPLAY FLASHING V06,N47 (DISPLAY CSM WGT., LEM WGT.)
000681:                                                                                                  #        6.      UPON PROCEED RESPONSE EXECUTE S40.14.
000682:                                                                                                  #        7.      DISPLAY FLASHING V06,N48 (DISPLAY PITCH TRIM, YAW TRIM)
000683:                                                                                                  #        8.      UPON PROCEED RESPONSE, RELEASE EXTENDED VERB DESPLAY SYSTEM
000684:
000685: 43,2614                                           COUNT*   $$/EXTVB
000686: 43,2614           40102        DAPDISP            CS       FLAGWRD6
000687: 43,2615           74076                           MASK     DPCONFIG
000688: 43,2616           00006                           EXTEND
000689: 43,2617           62621                           BZMF     +2                                    #  TVC = 10, CS YIELDS 01, BZMF TO CONTINUE
000690: 43,2620           02116                           TC       ALM/END                               #  RETURN IF TVC
000691:
000692: 43,2621           02076                           TC       TESTXACT
000693: 43,2622           34765                           CAF      PRIO10
000694: 43,2623           05134                           TC       NOVAC
000695: 43,2624  E6,1514                                  EBANK=   DAPDATR1
000696: 43,2624           02000 64106                     2CADR    DONOUN46
000697:
000698: 43,2626           05220                           TC       ENDOFJOB
000699:
000700: 42,2000                                           SETLOC   EXTVBS
000701: 42,2000                                           BANK
000702: 42,2000                                           COUNT*   $$/R03
000703: 42,2000           32061        DONOUN46           CAF      V04N46                                #     R1         R2
000704: 42,2001           04647                           TC       BANKCALL                              #   DAPDATR1   DAPDATR2
000705: 42,2002           20456                           CADR     GOXDSPF                               #  GOXDSP ROUTINES USED FOR EXTENDED VERBS.
000706:
000707: 42,2003           05537                           TC       ENDEXT                                #  EXT. VBS GO TO ENDEXT, NOT ENDOFJOB.
000708: 42,2004           02006                           TC       +2
000709: 42,2005           02000                           TC       DONOUN46
000710:
000711: 42,2006           31514                           CA       DAPDATR1
000712: 42,2007           74776                           MASK     BIT4
000713: 42,2010           10000                           CCS      A
000714: 42,2011           12054                           TCF      MAXIN
000715: 42,2012           07722                           TC       DOWNFLAG
000716: 42,2013           00212                           ADRES    MAXDBFLG
000717: 42,2014           51476        MAXOUT             INDEX    WHICHX2
000718: 42,2015           12016                           TCF      +1
000719: 42,2016           04647                           TC       BANKCALL
000720: 42,2017           40420                           CADR     S41.2
000721:
000722: 42,2020           32060        DONOUN47           CAF      V06N47                                #     R1         R2        R3
000723: 42,2021           04647                           TC       BANKCALL                              #  CSM WGT.   LEM WGT.    BLANK
000724: 42,2022           20456                           CADR     GOXDSPF
000725: 42,2023           05537                           TC       ENDEXT
000726: 42,2024           02026                           TC       +2
000727: 42,2025           02020                           TC       DONOUN47
000728: 42,2026           31514                           CAE      DAPDATR1                              #  DO MASS PROPERTIES CALCULATION ONLY IF
000729: 42,2027           74346                           MASK     PRIO30                                #  CONFIG = 1(CSM), 2(CSM/LM), 6(CSM/LMA)
000730: 42,2030           00006                           EXTEND
000731: 42,2031           12046                           BZF      DONOUN48                              #  SKIP IF 0, 4
000732: 42,2032           40000                           COM
000733: 42,2033           74346                           MASK     PRIO30
000734: 42,2034           00006                           EXTEND
000735: 42,2035           12046                           BZF      DONOUN48                              #  SKIP IF 3, 7
000736: 42,2036           00004                           INHINT
000737: 42,2037           04725                           TC       IBNKCALL
000738: 42,2040           13311                           CADR     MASSPROP                              #  UPDATE IXX, IAVG, IAVG/TLX
000739:
000740: 42,2041           00003                           RELINT
000741: 42,2042           51476                           INDEX    WHICHX2
000742: 42,2043           12044                           TCF      +1
000743: 42,2044           04647                           TC       BANKCALL
000744: 42,2045           40551                           CADR     S40.14                                #  COMPUTE RCS DAP STUFF
000745:
000746: 42,2046           32057        DONOUN48           CAF      V0648                                 #     R1         R2         R3
000747: 42,2047           04647                           TC       BANKCALL                              #    PTRIM      YTRIM      BLANK
000748: 42,2050           20456                           CADR     GOXDSPF
000749:
000750: 42,2051           05537                           TC       ENDEXT
000751: 42,2052           05537                           TC       ENDEXT
000752: 42,2053           02046                           TC       DONOUN48
000753:
000754: 42,2054           07710        MAXIN              TC       UPFLAG
000755: 42,2055           00212                           ADRES    MAXDBFLG
000756: 42,2056           02014                           TC       MAXOUT
000757:
000758: 42,2057           01460        V0648              VN       0648
000759: 42,2060           01457        V06N47             VN       0647
000760: 42,2061           01056        V04N46             VN       0446
000761: 43,2627                                           BANK     43
000762: 43,2000                                           SETLOC   EXTVERBS
000763: 43,2000                                           BANK
000764:
000765: 43,2627                                           COUNT*   $$/EXTVB
000766:
000767:                                                                                                  #  V82PERF       VERB82          DESCRIPTION
000768:                                                                                                  #        REQUEST ORBIT PARAMETERS DISPLAY (R30)
000769:                                                                                                  #        1. IF AVERAGE G IS OFF:
000770:                                                                                                  #                FLASH DISPLAY V04N06. R2 INDICATES WHICH SHIP'S STATE VECTOR IS
000771:                                                                                                  #                 TO BE UPDATED. INITIAL CHOICE IS THIS SHIP (R2=1). ASTRONAUT
000772:                                                                                                  #                 CAN CHANGE TO OTHER SHIP BY V22EXE, WHERE X NOT EQ 1.
000773:                                                                                                  #                SELECTED STATE VECTOR UPDATED BY THISPREC (OTHPREC).
000774:                                                                                                  #                CALLS SR30.1 (WHICH CALLS TFFCONMU + TFFRP/RA) TO CALCULATE
000775:                                                                                                  #                 RPER (PERIGEE RADIUS), RAPO (APOGEE RADIUS), HPER (PERIGEE
000776:                                                                                                  #                 HEIGHT ABOVE LAUNCH PAD OR LUNAR LANDING SITE), HAPO (APOGEE
000777:                                                                                                  #                 HEIGHT AS ABOVE), TPER (TIME TO PERIGEE), TFF (TIME TO
000778:                                                                                                  #                 INTERSECT 300 KFT ABOVE PAD OR 35KFT ABOVE LANDING SITE).
000779:                                                                                                  #                FLASH MONITOR V16N44 (HAPO, HPER, TFF). TFF IS -59M59S IF IT WAS
000780:                                                                                                  #                 NOT COMPUTABLE, OTHERWISE IT INCREMENTS ONCE PER SECOND.
000781:                                                                                                  #                 ASTRONAUT HAS OPTION TO MONITOR TPER BY KEYING IN N 32 E.
000782:                                                                                                  #                 DISPLAY IS IN HMS, IS NEGATIVE (AS WAS TFF), AND INCREMENTS
000783:                                                                                                  #                 ONCE PER SECOND ONLY IF TFF DISPLAY WAS -59M59S.
000784:
000785:                                                                                                  #        2.IF AVERAGE G IS ON:
000786:                                                                                                  #                CALLS SR30.1 APPROX EVERY TWO SECS.  STATE VECTOR IS ALWAYS
000787:                                                                                                  #                 FOR THIS VEHICLE. V82 DOES NOT DISTURB STATE VECTOR.  RESULTS
000788:                                                                                                  #                 OF SR30.1 ARE RAPO, RPER, HAPO, HPER, TPER, TFF.
000789:                                                                                                  #                FLASH MONITOR V16N44 (HAPO, HPER, TFF).
000790:                                                                                                  #                 IF MODE IS P11, THEN CALL DELRSPL SO ASTRONAUT CAN MONITOR
000791:                                                                                                  #                 RESULTS BY N50E.  SPLASH COMPUTATION DONE ONCE PER TWO SECS.
000792:
000793:                                                                                                  #  ADDENDUM: HAPO AND HPER SHOULD BE CHANGED TO READ HAPOX AND HPERX IN THE
000794:                                                                                                  #            ABOVE REMARKS.
000795:
000796: 43,2627           02076        V82PERF            TC       TESTXACT
000797: 43,2630           35063                           CAF      PRIO7
000798: 43,2631           05211                           TC       PRIOCHNG
000799: 43,2632           04666                           TC       POSTJUMP
000800: 43,2633           46434                           CADR     V82CALL                               #  ***** V82CALL MUST NOT BE A FINDVAC JOB.
000801:
000802:                                                                                                  #  VB83PERF      VERB 83         DESCRIPTION
000803:                                                                                                  #        REQUEST RENDEZVOUS PARAMETER DISPLAY (R31)
000804:                                                                                                  #        1. SET EXT VERB DISPLAY BUSY FLAG.
000805:                                                                                                  #        2. SCHEDULE V83CALL WITH PRIORITY 10.
000806:                                                                                                  #                A. DISPLAY
000807:                                                                                                  #                        R1  RANGE
000808:                                                                                                  #                        R2  RANGE RATE
000809:                                                                                                  #                        R3  THETA
000810:
000811: 43,2634           02076        V83PERF            TC       TESTXACT
000812: 43,2635           07710                           TC       UPFLAG
000813: 43,2636           00222                           ADRES    R31FLAG
000814: 43,2637           35061                 +3        CAF      PRIO5
000815: 43,2640           05134                           TC       NOVAC
000816: 43,2641  E4,1636                                  EBANK=   SUBEXIT
000817: 43,2641           02000 62064                     2CADR    R31CALL
000818:
000819: 43,2643           05220                           TC       ENDOFJOB
000820:
000821: 43,2644           02076        V85PERF            TC       TESTXACT
000822: 43,2645           07722                           TC       DOWNFLAG                              #  RESET R31 FLAG TO INDICATE R34
000823: 43,2646           00222                           ADRES    R31FLAG
000824: 43,2647           02637                           TC       V83PERF    +3
000825:
000826:                                                                                                  #  GOTOR23       VERB 54         DESCRIPTION
000827:                                                                                                  #        SET UP MARKING FOR R22 (REND TRACK DATA PROC)
000828:                                                                                                  #        1. SET EXT VERB DISPLAY BUSY FLAG
000829:                                                                                                  #        2. IF REND (P20 RUNNING) + TRACK (TRACKING ALLOWED) FLAGS ARE SET,
000830:                                                                                                  #            SCHEDULE R23 WITH PRIORITY 16, OTHERWISE TURN ON ALARM 406
000831:                                                                                                  #        3. RELEASE EXT VERB DISPLAY SYSTEM
000832:
000833: 43,2650           02076        GOTOR23            TC       TESTXACT
000834: 43,2651           30074                           CA       FLAGWRD0                              #  V54 UNACCEPTABLE UNLESS BOTH
000835: 43,2652           74773                           MASK     RNDVZBIT                              #        RENDEZVOUS AND TRACK FLAGS ON
000836: 43,2653           00006                           EXTEND
000837: 43,2654           12666                           BZF      R22ALARM
000838:
000839: 43,2655           30075                           CA       FLAGWRD1
000840: 43,2656           74775                           MASK     TRACKBIT
000841: 43,2657           00006                           EXTEND
000842: 43,2660           12666                           BZF      R22ALARM
000843:
000844: 43,2661           35067                           CAF      PRIO16                                #  LOWER THAN R22
000845: 43,2662           05134                           TC       NOVAC
000846: 43,2663  E7,1702                                  EBANK=   MRKBUF1
000847: 43,2663           02152 76067                     2CADR    R23CSM
000848:
000849: 43,2665           05220                           TC       ENDOFJOB
000850: 43,2666           05644        R22ALARM           TC       ALARM                                 #  VERB 57 WAS SELECTED AND NEITHER REND
000851: 43,2667           00406                           OCT      00406                                 #        NOR TRACK FLAG WERE ON.
000852: 43,2670           05537                           TC       ENDEXT
000853:
000854:                                                                                                  #  VERB 86       DESCRIPTION
000855:                                                                                                  #        V86 IS TO R23 AS MARK REJECT IS TO R21
000856:                                                                                                  #        V86 IS THE MARK REJECT FOR R23(THE BACKUP MARKING ROUTINE)
000857:
000858: 43,2671  E7,1702                                  EBANK=   MRKBUF1
000859: 43,2671           04606        V86PERF            TC       E7SETTER                              #  BACKUP MARK REJ.
000860: 43,2672           31702                           CA       MRKBUF1
000861: 43,2673           00006                           EXTEND
000862: 43,2674           12677                           BZF      +3
000863: 43,2675           00006                           EXTEND
000864: 43,2676           62702                           BZMF     BKRJCT
000865:
000866: 43,2677           37702                           CA       NEGONE
000867: 43,2700           55702                           TS       MRKBUF1
000868: 43,2701           02117                           TC       GOPIN
000869: 43,2702           34773        BKRJCT             CAF      R22CABIT
000870: 43,2703           70105                           MASK     FLAGWRD9
000871: 43,2704           00006                           EXTEND
000872: 43,2705           12117                           BZF      GOPIN
000873:
000874: 43,2706           07710                           TC       UPFLAG
000875: 43,2707           00231                           ADRES    REJCTFLG
000876: 43,2710           12117                           TCF      GOPIN
000877:
000878:                                                                                                  #  TRACKTRM      VERB 56         DESCRIPTION
000879:                                                                                                  #        TERMINATE TRACKING (P20)
000880:                                                                                                  #        1. KNOCK DOWN RENDEZVOUS, TRACK, AND UPDATE FLAGS.
000881:                                                                                                  #        2. REQUIRE P20 NOT RUNNING ALONE OR GO TO GOTOPOOH (REQUEST PROGRAM 00).
000882:                                                                                                  #        3. REQUIRE R22 RUNNING OR GO TO PINBRNCH.
000883:                                                                                                  #        4. IF INTEGRATION RUNNING, STALL UNTIL IT IS COMPLETED, THEN ZERO GROUPS 2 AND 3 TO KILL R21 + R22.
000884:                                                                                                  #        3. KNOCK DOWN RENDEZVOUS, R22, R21, TRACK, UPDATE, AND TARG1 FLAGS.
000885:                                                                                                  #        4. GO TO ENEMA (SOFTWARE RESTART).
000886:                                                                                                  #        REFERENCE
000887:                                                                                                  #                P20     RENDEZVOUS      NAVIGATION.
000888:                                                                                                  #                R21     RENDEZVOUS      TRACKING SIGHTING MARK.
000889:                                                                                                  #                R22     RENDEZVOUS      TRACKING DATA PROCESSING.
000890:
000891: 43,2711           06006        TRACKTRM           TC       INTPRET
000892: 43,2712           43014                           CLEAR    BON
000893: 43,2713           04275                                    R67FLAG
000894: 43,2714           04306                                    UTFLAG
000895: 43,2715           66725                                    TRACKCHK
000896: 43,2716           43014                           BOFF     CLEAR
000897: 43,2717           00350                                    RNDVZFLG
000898: 43,2720           66751                                    EXPIN1
000899: 43,2721           05270                                    AUTOSEQ
000900: 43,2722           43014                           CLEAR    CLEAR
000901: 43,2723           01261                                    R21MARK
000902: 43,2724           00670                                    UPDATFLG
000903: 43,2725           43014        TRACKCHK           BOFCLR   CLEAR
000904: 43,2726           00652                                    TRACKFLG
000905: 43,2727           66746                                    EXPIN
000906: 43,2730           00267                                    IMUSE
000907: 43,2731           43014                           CLEAR    CLEAR
000908: 43,2732           00270                                    RNDVZFLG
000909: 43,2733           04266                                    UTFLAG
000910: 43,2734           45034                           RTB      CALL
000911: 43,2735           10737                                    INITSUBB                              #  DO STOPRATE AND RESTOREDB
000912: 43,2736           11720                                    INTSTALL                              #  DONT INTERRUPT INTEGRATION
000913: 43,2737           77776                           EXIT
000914:
000915: 43,2740           05375                           TC       2PHSCHNG
000916: 43,2741           00002                           OCT      2                                     #  KILL GROUP 2 TO HALT P20 ACTIVITY
000917: 43,2742           00001                           OCT      1                                     #  ALSO KILL GROUP 1
000918:
000919: 43,2743           00004        CLEANOUT           INHINT
000920: 43,2744           04666                           TC       POSTJUMP
000921: 43,2745           12615                           CADR     ENEMA                                 #  CAUSE RESTART
000922:
000923: 43,2746           43014        EXPIN              CLEAR    CLEAR
000924: 43,2747           00270                                    RNDVZFLG
000925: 43,2750           04266                                    UTFLAG
000926: 43,2751           77776        EXPIN1             EXIT
000927: 43,2752           02117                           TC       GOPIN
000928:
000929:                                                                                                  #  LEMVEC        VERB 80         DESCRIPTION
000930:                                                                                                  #        UPDATE LEM STATE VECTOR
000931:                                                                                                  #                RESET VEHUPFLG TO 0
000932:
000933: 43,2753           03130        LEMVEC             TC       DOWNX
000934: 43,2754           00026                           ADRES    VEHUPFLG                              #  VEHUPFLG DOWN INDICATES LEM
000935:
000936: 43,2755           03134        CSMVEC             TC       UPX                                   #  VEHUPFLG UP INDICATES CM.
000937:
000938:                                                                                                  #  CSMVEC        VERB 81         DESCRIPTION
000939:                                                                                                  #        UPDATE CSM STATE VECTOR
000940:                                                                                                  #                SET VEHUPFLG TO 1
000941:
000942:                                                                                                  #  DNEDUMP       VERB 74         DESCRIPTION
000943:                                                                                                  #        INITIALIZE DOWN-TELEMETRY PROGRAM FOR ERASABLE MEMORY DUMP.
000944:                                                                                                  #        2. REPLACE CURRENT DOWNLIST WITH ERASABLE MEMORY.
000945:                                                                                                  #        3. RELEASE EXT VERB DISPLAY.
000946:
000947: 43,2756           32761        DNEDUMP            CAF      LDNDUMPI
000948: 43,2757           54334                           TS       DNTMGOTO
000949: 43,2760           02117                           TC       GOPIN
000950:
000951: 43,2761  43,2756               V74                EQUALS   DNEDUMP
000952: 43,2761           03641        LDNDUMPI           REMADR   DNDUMPI
000953:
000954:                                                                                                  #  LFTFLGON      VERB 75         DESCRIPTION
000955:                                                                                                  #        SET LIFT-OFF FLAG
000956:                                                                                                  #        1. SETUP GGRBKFLG, GUIDANCE REFERENCE RELEASE BACK-UP FLAG.
000957:                                                                                                  #        2. RETURN VIA PINBRNCH
000958:
000959: 43,2762           00125                           ADRES    GRRBKFLG                              #  MUST PRECEDE LFTFLGON
000960: 43,2763           03134        LFTFLGON           TC       UPX
000961:
000962: 43,2764           31204        CHKPOOH            CA       MODREG
000963: 43,2765           00006                           EXTEND
000964: 43,2766           16711                           BZF      TCQ
000965: 43,2767           12116                           TCF      ALM/END
000966:
000967: 43,2770  E6,1410                                  EBANK=   PACTOFF
000968: 43,2770           03132 12106  IDLECADR           2CADR    T5IDLOC
000969:
000970:                                                                                                  #  VERB 89       DESCRIPTION     RENDEZVOUS FINAL ATTITUDE ROUTINE (R63)
000971:
000972:                                                                                                  #  CALLED BY VERB 89 ENTER DURING P00. PRIO 10 USED. CALCULATES AND
000973:                                                                                                  #  DISPLAYS FINAL GIMBAL ANGLES TO POINT CSM +X AXIS OR PREFERRED AXIS
000974:                                                                                                  #  (UNIT(Z)COS55 DEG + UNIT(X)SIN55 DEG) AT LM.
000975:
000976:                                                                                                  #  1. KEY IN V 89 E ONLY IF IN PROG 00. IF NOT IN P00, OPERATOR ERROR AND
000977:                                                                                                  #  EXIT R63, OTHERWISE CONTINUE.
000978:
000979:                                                                                                  #  2. IF IN P00, DO IMU STATUS CHECK (R02BOTH). IF IMU ON AND ITS
000980:                                                                                                  #  ORIENTATION KNOWN TO CGC, CONTINUE.
000981:
000982:                                                                                                  #  3. FLASH DISPLAY V 04 N 06. R2 INDICATES WHICH SPACECRAFT AXIS IS TO
000983:                                                                                                  #  BE POINTED AT LM.  INITIAL CHOICE IS PREFERRED AXIS. (R2=1).
000984:                                                                                                  #  ASTRONAUT CAN CHANGE TO (+X) AXIS (R2 NOT= 1) BY V 22 E 2 E. CONTINUE
000985:                                                                                                  #  AFTER KEYING IN PROCEED.
000986:
000987:                                                                                                  #  4. SET PREFERRED ATTITUDE FLAG ACCORDING TO OPTION DESIRED. SET FLAG
000988:                                                                                                  #  FOR PREFERRED AXIS. RESET FLAG FOR X AXIS.
000989:
000990:                                                                                                  #  5. CURRENT TIME IS STORED AND R63COMP IS CALLED
000991:
000992:                                                                                                  #        R63COMP JOB:
000993:
000994:                                                                                                  #                UPDATES CSM AND LM STATE VECTORS USING CONIC EQUATIONS
000995:
000996:                                                                                                  #                CALCULATES BOTH PREFERRED AND X AXIS TRACKING ATT FROM CSM TO LM.
000997:
000998:                                                                                                  #                DESIRED GIMBAL ANGLES AS INDICATED BY PREFERRED ATTITUDE FLAG
000999:                                                                                                  #                ARE STORED FOR LATER R60CSM CALL.
001000:
001001:                                                                                                  #  6.  FLASH DISPLAY V 06 N18 AND AWAIT RESPONSE.
001002:
001003:                                                                                                  #  7.  RECYCLE- RETURN TO STEP 5.
001004:                                                                                                  #      TERMINATE- EXIT R63 ROUTINE
001005:                                                                                                  #      PROCEED- RESET 3AXISFLG AND CALL R60CSM FOR ATTITUDE MANEUVER.
001006:
001007: 43,2772           02764        V89PERF            TC       CHKPOOH                               #  DEMAND P00
001008: 43,2773           02076                           TC       TESTXACT
001009: 43,2774           34765                           CAF      PRIO10
001010: 43,2775           05150                           TC       FINDVAC
001011: 43,2776  E6,1776                                  EBANK=   R61CNTR
001012: 43,2776           02310 62066                     2CADR    V89CALL
001013:
001014: 43,3000           15220                           TCF      ENDOFJOB
001015:
001016: 43,3001           03130        WMATRXNG           TC       DOWNX                                 #  RESET RENDWFLG
001017: 43,3002           00131                           ADRES    RENDWFLG
001018:
001019: 43,3003  43,3003               GOSHOSUM           EQUALS   SHOWSUM
001020:
001021: 43,3003           02764        SHOWSUM            TC       CHKPOOH
001022: 43,3004           02076                           TC       TESTXACT                              #  *
001023: 43,3005           35001                           CAF      S+1                                   #  *
001024: 43,3006           55376                           TS       SKEEP6                                #  * SHOWSUM OPTION
001025: 43,3007           35003                           CAF      S+ZERO                                #  *
001026: 43,3010           55362                           TS       SMODE                                 #  * TURN OFF SELF-CHECK
001027: 43,3011           33242                           CA       SELFADRS                              #  *
001028: 43,3012           55361                           TS       SELFRET                               #  *
001029: 43,3013           03517                           TC       STSHOSUM                              #  * ENTER ROPECHK
001030:
001031: 43,3014           23372        SDISPLAY           LXCH     SKEEP2                                #  * BNK NO FOR DSP
001032: 43,3015           23373                           LXCH     SKEEP3                                #  * BUGGER WORD FOR DSP
001033: 43,3016           33241        NOKILL             CA       ADRS1                                 #  *
001034: 43,3017           54156                           TS       MPAC       +2                         #  *
001035: 43,3020           33031                           CA       VNCON                                 #  * 0501
001036: 43,3021           04647                           TC       BANKCALL                              #  *
001037: 43,3022           20456                           CADR     GOXDSPF                               #  *
001038: 43,3023           03026                           TC       +3                                    #  *
001039: 43,3024           03630                           TC       NXTBNK                                #  *
001040: 43,3025           03016                           TC       NOKILL                                #  *
001041: 43,3026           33242                           CA       SELFADRS
001042: 43,3027           55371                           TS       SKEEP1
001043:
001044: 43,3030           05537                           TC       ENDEXT                                #  *
001045:
001046: 43,3031           01201        VNCON              VN       501                                   #  *
001047:
001048: 43,3032           31376        ENDSUMS            CA       SKEEP6                                #  *
001049: 43,3033           00006                           EXTEND                                         #  *
001050: 43,3034           13333                           BZF      SELFCHK                               #  * ROPECHK, START SELFCHK AGAIN.
001051: 43,3035           03517                           TC       STSHOSUM                              #  * START SHOWSUM AGAIN.
001052:
001053:
001054:                                                                                                  #  VB 87  SET VHF RANGE FLAG - ALLOWS R22 TO ACCEPT RANGE DATA.
001055:
001056:                                                                                                  #  VB 88  RESET VHF RANGE FLAG - STOPS ACCEPTANCE OF RANGE DATA.
001057:
001058: 43,3036           05605        RESETVHF           TC       TRFAILOF                              #  TRACKER FAIL LIGHT
001059: 43,3037           03130                           TC       DOWNX
001060: 43,3040           00215                           ADRES    VHFRFLAG
001061: 43,3041           03134        SETVHFLG           TC       UPX                                   #  V87 SET VHF RANGE FLAG
001062:
001063:                                                                                                  #  VERB 66.      VEHICLES ARE ATTACHED. - MOVE THIS VEHICLE STATE VECTOR TO
001064:                                                                                                  #                OTHER VEHICLE STATE VECTOR.
001065:
001066:                                                                                                  #  USE SUBROUTINE GENTRAN.
001067:
001068: 43,3042  E3,1554                                  EBANK=   RRECTHIS
001069: 43,3042           34765        ATTACHED           CAF      PRIO10
001070: 43,3043           05150                           TC       FINDVAC
001071: 43,3044  E3,1554                                  EBANK=   RRECTHIS
001072: 43,3044           02030 36103                     2CADR    ATTACHIT
001073:
001074: 43,3046           05220                           TC       ENDOFJOB
001075:
001076: 17,2000                                           SETLOC   EXTVRBS1
001077: 17,2000                                           BANK
001078: 17,2030                                           COUNT*   $$/EXTVB
001079: 17,2030           06006        ATTACHIT           TC       INTPRET
001080: 17,2031           77624                           CALL
001081: 17,2032           11720                                    INTSTALL
001082: 17,2033           77776        CMMOVE             EXIT
001083: 17,2034           32053                           CAF      OCT51
001084: 17,2035           05562                           TC       GENTRAN
001085: 17,2036           01554                           ADRES    RRECTHIS                              #  OUR STATE VECTOR INTO OTHER VIA GENTRAN
001086: 17,2037           01626                           ADRES    RRECTOTH
001087:
001088: 17,2040           06006        TACHEXIT           TC       INTPRET
001089: 17,2041           77624                           CALL                                           #  UPDATE RN, VN, R-OTHER, V-OTHER
001090: 17,2042           11325                                    PTOACSM
001091: 17,2043           77624                           CALL
001092: 17,2044           20226                                    SVDWN1
001093: 17,2045           77624                           CALL
001094: 17,2046           20245                                    SVDWN2
001095: 17,2047           77624                           CALL
001096: 17,2050           11727                                    INTWAKE0
001097: 17,2051           77634        TCPIN              RTB
001098: 17,2052           21155                                    PINBRNCH
001099:
001100: 17,2053           00051        OCT51              OCT      51
001101:
001102: 43,2000                                           SETLOC   EXTVERBS
001103: 43,2000                                           BANK
001104: 43,3047                                           COUNT*   $$/EXTVB
001105:
001106:                                                                                                  #  VERB 47  MOVE LM STATE VECTOR INTO CM STATE VECTOR.
001107:
001108: 43,3047           34765        LMTOCMSV           CAF      PRIO10
001109: 43,3050           05150                           TC       FINDVAC
001110: 43,3051  E3,1554                                  EBANK=   RRECTHIS
001111: 43,3051           02054 36103                     2CADR    LMTOCM
001112:
001113: 43,3053           05220                           TC       ENDOFJOB
001114:
001115: 17,2000                                           SETLOC   EXTVRBS1
001116: 17,2000                                           BANK
001117:
001118: 17,2054                                           COUNT*   $$/EXTVB
001119: 17,2054           06006        LMTOCM             TC       INTPRET
001120: 17,2055           77624                           CALL
001121: 17,2056           11720                                    INTSTALL
001122: 17,2057           77776        LMMOVE             EXIT
001123: 17,2060           32053                           CAF      OCT51
001124: 17,2061           05562                           TC       GENTRAN
001125: 17,2062           01626                           ADRES    RRECTOTH                              #  LM STATE VECTOR INTO CM VIA GENTRAN
001126: 17,2063           01554                           ADRES    RRECTHIS
001127:
001128: 17,2064           12040                           TCF      TACHEXIT
001129:
001130: 43,2000                                           SETLOC   EXTVERBS
001131: 43,2000                                           BANK
001132: 43,3054                                           COUNT*   $$/EXTVB
001133:
001134:                                                                                                  #  V90PERF       VERB 90         DESCRIPTION
001135:                                                                                                  #        REQUEST RENDEZVOUS OUT-OF-PLANE DISPLAY (R36)
001136:                                                                                                  #        1. SET EXT VERB DISPLAY BUSY FLAG.
001137:                                                                                                  #        2. SCHEDULE R36 CALL WITH PRIORITY 10
001138:                                                                                                  #                A. DISPLAY
001139:                                                                                                  #                        TIME OF EVENT - HOURS , MINUTES , SECONDS
001140:                                                                                                  #                        Y       OUT-OF-PLANE POSITION - NAUTICAL MILES
001141:                                                                                                  #                        YDOT    OUT-OF-PLANE VELOCITY - FEET/SECOND
001142:                                                                                                  #                        PSI     ANGLE BTW LINE OF SIGHT AND FORWARD
001143:                                                                                                  #                                DIRECTION VECTOR IN HORIZONTAL PLANE - DEGREES
001144:
001145: 43,3054           02076        V90PERF            TC       TESTXACT
001146: 43,3055           35063                           CAF      PRIO7                                 #  R36.V90
001147: 43,3056           05150                           TC       FINDVAC
001148: 43,3057  40,2000                                  SBANK=   PINSUPER
001149: 43,3057  E7,1412                                  EBANK=   TIG
001150: 43,3057           02330 46107                     2CADR    R36
001151:
001152: 43,3061           15220                           TCF      ENDOFJOB
001153:
001154:                                                                                                  #  VERB 96  SET QUITFLAG TO STOP INTEGRATION.
001155:
001156: 43,3062           07710        VERB96             TC       UPFLAG                                #  QUITFLAG WILL CAUSE INTEGRATION TO EXIT
001157: 43,3063           00221                           ADRES    QUITFLAG                              #        AT NEXT TIMESTEP
001158:
001159: 43,3064           07710                           TC       UPFLAG
001160: 43,3065           00204                           ADRES    V96ONFLG
001161: 43,3066           35003                           CAF      ZERO
001162: 43,3067           04666                           TC       POSTJUMP
001163: 43,3070           10007                           CADR     V37                                   #  GO TO POO
001164:
001165:                                                                                                  #  VERB 67  ASTRONAUT DISPLAY OF W MATRIX
001166:
001167: 43,3071           02076        V67                TC       TESTXACT
001168: 43,3072           35061                           CAF      PRIO5
001169: 43,3073           05150                           TC       FINDVAC
001170: 43,3074  E5,1400                                  EBANK=   W
001171: 43,3074           03640 60105                     2CADR    V67CALL
001172:
001173: 43,3076           05220                           TC       ENDOFJOB
001174:
001175:
001176: 43,3077           02076        R64                TC       TESTXACT
001177: 43,3100           34765                           CAF      PRIO10
001178: 43,3101           05150                           TC       FINDVAC
001179: 43,3102  E7,1702                                  EBANK=   MRKBUF1
001180: 43,3102           03561 62107                     2CADR    V64PERF
001181:
001182: 43,3104           05220                           TC       ENDOFJOB
001183:
001184:
001185: 43,3105           02076        V76CALL            TC       TESTXACT
001186: 43,3106           33127                           CAF      V0672
001187: 43,3107           04647                           TC       BANKCALL
001188: 43,3110           20456                           CADR     GOXDSPF
001189: 43,3111           15537                           TCF      ENDEXT
001190: 43,3112           13114                           TCF      +2
001191: 43,3113           13106                           TCF      V76CALL    +1
001192:
001193: 43,3114           00004                           INHINT
001194: 43,3115           34766                           CAF      R27BIT
001195: 43,3116           65001                           AD       R27UP1BT
001196: 43,3117           65000                           AD       R27UP2BT
001197: 43,3120           40000                           COM
001198: 43,3121           70107                           MASK     FLGWRD11
001199: 43,3122           64766                           AD       R27BIT
001200: 43,3123           54107                           TS       FLGWRD11
001201: 43,3124           15537                           TCF      ENDEXTVB
001202:
001203: 43,3125           03130        V77CALL            TC       DOWNX
001204: 43,3126           00250                           ADRES    R27FLAG
001205:
001206: 43,3127           01510        V0672              VN       0672
001207:
001208:
001209:                                                                                                  #  DOWNX, UPX    FLAG SETTING AND RESETTING FOR EXTENDED VERBS.
001210:
001211:                                                                                                  #        RETURN IS TO GOPIN.
001212:
001213:                                                                                                  #        CALLING SEQUENCES:
001214:
001215:                                                                                                  #                FOR DOWNX
001216:
001217:                                                                                                  #                        TC      DOWNX
001218:                                                                                                  #                        ADRES   (FLAG NAME)
001219:
001220:                                                                                                  #                FOR UPX
001221:
001222:                                                                                                  #                        ADRES   (FLAG NAME)
001223:                                                                                                  #                        TC      UPX
001224:
001225: 43,3130                                           COUNT*   $$/FLAG
001226: 43,3130           30002        DOWNX              CA       Q
001227: 43,3131           07726                           TC       DEBIT
001228: 43,3132           70001                           MASK     L
001229: 43,3133           13142                           TCF      COMXFLG
001230:
001231: 43,3134           30002        UPX                CA       Q
001232: 43,3135           67701                           AD       NEG2
001233: 43,3136           07726                           TC       DEBIT
001234: 43,3137           40000                           COM
001235: 43,3140           00006                           EXTEND
001236: 43,3141           04001                           ROR      LCHAN
001237:
001238: 43,3142           50061        COMXFLG            INDEX    ITEMP1
001239: 43,3143           54074                           TS       FLAGWRD0
001240: 43,3144           12117                           TCF      GOPIN
001241:
001242:
001243:                                                                                                  #  VERB 57 SET FULL TRACK OPTION
001244:
001245: 43,3145                                           COUNT*   $$/EXTVB
001246: 43,3145           02076        V57CALL            TC       TESTXACT
001247:
001248: 43,3146           34777        PARTRACK           CAF      BIT3                                  #  OPTION 4 SPECIFY CONDITION OF FULTKFLG
001249: 43,3147           55245                           TS       OPTIONX
001250:
001251: 43,3150           35000        PRTRCK             CAF      FULTKBIT
001252: 43,3151           70106                           MASK     FLGWRD10
001253: 43,3152           00006                           EXTEND
001254: 43,3153           13155                           BZF      +2                                    #  FULTKFLG NOT SET
001255:
001256: 43,3154           35001                           CAF      BIT1                                  #  FULTKFLG SET
001257: 43,3155           55246                           TS       OPTIONX    +1
001258: 43,3156           33174                           CAF      V04N12
001259: 43,3157           04647                           TC       BANKCALL
001260: 43,3160           20456                           CADR     GOXDSPF
001261: 43,3161           05537                           TC       ENDEXT
001262: 43,3162           05537                           TC       ENDEXT
001263: 43,3163           31246                           CA       OPTIONX    +1
001264: 43,3164           00006                           EXTEND
001265: 43,3165           13171                           BZF      +4
001266: 43,3166           07710                           TC       UPFLAG
001267: 43,3167           00243                           ADRES    FULTKFLG
001268: 43,3170           13150                           TCF      PRTRCK
001269:
001270: 43,3171           07722                           TC       DOWNFLAG
001271: 43,3172           00243                           ADRES    FULTKFLG
001272: 43,3173           13150                           TCF      PRTRCK
001273:
001274: 43,3174           01014        V04N12             VN       0412

End of include-file EXTENDED_VERBS.agc.  Parent file is MAIN.agc


