
Source Code


000002:                                                                                                  ## Copyright:   Public domain.
000003:                                                                                                  ## Filename:    FIXED-FIXED_CONSTANT_POOL.agc
000004:                                                                                                  ## Purpose:     A section of Skylark revision 048.
000005:                                                                                                  ##              It is part of the source code for the Apollo Guidance Computer (AGC)
000006:                                                                                                  ##              for Skylab-2, Skylab-3, Skylab-4, and ASTP. No original listings of
000007:                                                                                                  ##              this software are available; instead, this file was created via
000008:                                                                                                  ##              disassembly of dumps of the core rope modules actually flown on
000009:                                                                                                  ##              Skylab-2. Access to these modules was provided by the New Mexico
000010:                                                                                                  ##              Museum of Space History.
000011:                                                                                                  ## Assembler:   yaYUL
000012:                                                                                                  ## Contact:     Ron Burkey <info@sandroid.org>.
000013:                                                                                                  ## Website:     www.ibiblio.org/apollo/index.html
000014:                                                                                                  ## Mod history: 2023-09-04 MAS  Created from Artemis 072.
000015:                                                                                                  ##              2024-02-27 MAS  Updated for Skylark 48.
000016:
000017:    4000                                           SETLOC   FFTAG1
000018:    4000                                           BANK
000019:
000020:    4760                                           COUNT*   $$/FCONS
000021:
000022:                                                                                                  #  THE FOLLOWING TABLE OF 18 VALUES IS INDEXED. DO NOT INSERT OR REMOVE ANY QUANTITIES.
000023:
000024:    4760           37777        DPOSMAX            OCT      37777                                 #  MUST PRECEDE POSMAX
000025:    4761           37777        POSMAX             OCT      37777
000026:
000027:    4762     4762               LIMITS             =        NEG1/2
000028:
000029:    4762           57777        NEG1/2             OCT      -20000                                #  USED BY SIN ROUTINE (MUST BE TWO
000030:                                                                                                  #  LOCATIONS IN FRONT OF BIT14)
000031:
000032:                                                                                                  #  BIT TABLE
000033:
000034:    4763           40000        BIT15              OCT      40000
000035:    4764           20000        BIT14              OCT      20000
000036:    4765           10000        BIT13              OCT      10000
000037:    4766           04000        BIT12              OCT      04000
000038:    4767           02000        BIT11              OCT      02000
000039:    4770           01000        BIT10              OCT      01000
000040:    4771           00400        BIT9               OCT      00400
000041:    4772           00200        BIT8               OCT      00200
000042:    4773           00100        BIT7               OCT      00100
000043:    4774           00040        BIT6               OCT      00040
000044:    4775           00020        BIT5               OCT      00020
000045:    4776           00010        BIT4               OCT      00010
000046:    4777           00004        BIT3               OCT      00004
000047:    5000           00002        BIT2               OCT      00002
000048:    5001           00001        BIT1               OCT      00001
000049:
000050:                                                                                                  #  DO NOT DESTROY THIS COMBINATION, SINCE IT IS USED IN DOUBLE PRECISION INSTRUCTIONS.
000051:
000052:    5002           77777        NEG0               OCT      -0                                    #  MUST PRECEDE ZERO
000053:    5003           00000        ZERO               OCT      0                                     #  MUST FOLLOW NEG0
000054:                                                                                                  #  BIT1          OCT     00001
000055:                                                                                                  #  NO.WDS        OCT     2               INTERPRETER
000056:                                                                                                  #  OCTAL3        OCT     3               INTERPRETER
000057:                                                                                                  #  R3D1          OCT     4               PINBALL
000058:    5004           00005        FIVE               OCT      5
000059:                                                                                                  #  REVCNT        OCT     6               INTERPRETER
000060:    5005           00007        SEVEN              OCT      7
000061:                                                                                                  #  BIT4          OCT     00010
000062:                                                                                                  #  R2D1          OCT     11              PINBALL
000063:    5006     4322               OCT11              =        R2D1                                  #  P20S
000064:                                                                                                  #  BINCON        DEC     10              PINBALL         (OCTAL 12)
000065:    5006           00013        ELEVEN             DEC      11         B-14
000066:                                                                                                  #  OCT14         OCT     14              ALARM AND ABORT (FILLER)
000067:    5007           00015        OCT15              OCT      15
000068:                                                                                                  #  R1D1          OCT     16              PINBALL
000069:    5010           00017        LOW4               OCT      17
000070:                                                                                                  #  BIT5          OCT     00020
000071:                                                                                                  #  ND1           OCT     21              PINBALL
000072:    5011           00022        OCT22              OCT      22
000073:                                                                                                  #  VD1           OCT     23              PINBALL
000074:                                                                                                  #  OCT24         OCT     24              SERVICE ROUTINES
000075:                                                                                                  #  MD1           OCT     25              PINBALL
000076:                                                                                                  #  VBSP2LD       DEC     22              PINBALL (OCT26)
000077:                                                                                                  #  DEC23         DEC     23              AUTO MAN.       (OCT27)
000078:    5012           00030        BITS4&5            OCT      30
000079:                                                                                                  #  OCT31         OCT     31              SERVICE ROUTINES
000080:    5013           00032        CALLCODE           OCT      00032
000081:    5014     4342               OCT37              =        LOW5
000082:                                                                                                  #  LOW5          OCT     37              PINBALL
000083:    5014           00041        33DEC              DEC      33         B-14
000084:                                                                                                  #  34DEC         DEC     34              PINBALL         (OCTAL 42)
000085:                                                                                                  #  BIT6          OCT     00040
000086:    5015           00046        OCT46              OCT      46
000087:    5016           00050        OCT50              OCT      50
000088:    5017           00054        LTHVACA            DEC      44         B-14
000089:    5020           00055        DEC45              DEC      45         B-14
000090:    5021           00056        MINDB              DEC      46         B-14                       #  OCT 56
000091:    5022           00060        SUPER011           OCT      60                                    #  BITS FOR SUPERBNK SETTING 011.
000092:    5023           00062        .5SEC              DEC      50         B-14
000093:    5024           00075        OCT75              OCT      75
000094:                                                                                                  #  BIT7          OCT     00100
000095:
000096:    5025     4773               SUPER100           =        BIT7                                  #  BITS FOR SUPERBNK SETTING 100
000097:                                                                                                  #  (LAST 4K OF ROPE)
000098:    5025           00110        BITS7+4            OCT      110
000099:    5026           00120        SUPER101           OCT      120                                   #  BITS FOR SUPERBNK SETTING 101
000100:                                                                                                  #  OCT121        OCT     121             SERVICE ROUTINES
000101:                                                                                                  #  (FIRST 8K OF ACM)
000102:    5027           00140        SUPER110           OCT      140                                   #  BITS FOR SUPERBNK SETTING 110.
000103:                                                                                                  #  (LAST 8K OF ACM)
000104:    5030           00144        1SEC               DEC      100        B-14
000105:                                                                                                  #  LOW7          OCT     177             INTERPRETER
000106:                                                                                                  #  BIT8          OCT     00200
000107:                                                                                                  #  OT215         OCT     215             ALARM AND ABORT
000108:                                                                                                  #  8,5           OCT     00220           P20-P25 SUNDANCE
000109:    5031           00306        V01N70             VN       0170
000110:    5032           00310        2SECS              DEC      200        B-14
000111:                                                                                                  #  LOW8          OCT     377             PINBALL
000112:                                                                                                  #  BIT9          OCT     00400
000113:    5033           00620        4SECS              DEC      400        B-14
000114:    5034           00777        LOW9               OCT      777
000115:                                                                                                  #  BIT10         OCT     01000
000116:                                                                                                  #  5.5DEGS       DEC     .03056          P20-P25 SUNDANCE        (OCTAL 00765)
000117:                                                                                                  #  OCT1103       OCT     1103            ALARM AND ABORT
000118:    5035           01124        C5/2               DEC      .0363551                              #                        (OCTAL 01124)
000119:    5036           01211        V05N09             VN       0509                                  #  (SAME AS OCTAL 1211)
000120:    5037           01400        OCT1400            OCT      01400
000121:    5040     5040               7.9SEC             EQUALS   V06N22
000122:    5040           01426        V06N22             VN       0622
000123:    5041           01441        V06N33             VN       0633
000124:    5042           01442        V06N34             VN       0634
000125:    5043           01461        V06N49             VN       0649
000126:    5044           01422        V06N18             VN       0618
000127:    5045           01451        V06N41             VN       0641
000128:    5046           01474        V06N60             VN       0660
000129:    5047           01475        V06N61             VN       0661
000130:    5050           01530        V06N88             VN       0688
000131:    5051           01531        V06N89             VN       0689
000132:    5052           01535        V06N93             VN       0693
000133:                                                                                                  #  MID5          OCT     1740            PINBALL
000134:    5053           01777        LOW10              OCT      1777
000135:                                                                                                  #  BIT11         OCT     02000
000136:                                                                                                  #  2K+3          OCT     2003            PINBALL
000137:    5054           02177        LOW7+2K            OCT      2177
000138:    5055           02400        EBANK5             OCT      02400
000139:    5056           02600        OCT2600            OCT      2600
000140:    5057           03000        PRIO3              OCT      03000
000141:    5060           03400        EBANK7             OCT      03400
000142:                                                                                                  #  LOW11         OCT     3777            PINBALL
000143:                                                                                                  #  BIT12         OCT     04000
000144:                                                                                                  #  RELTAB        OCT     04025           T4RUPT
000145:    5061           05000        PRIO5              OCT      05000
000146:    5062           06000        PRIO6              OCT      06000
000147:    5063           07000        PRIO7              OCT      07000
000148:
000149:                                                                                                  #  BIT13         OCT     10000
000150:                                                                                                  #                OCT     10003           T4RUPT  RELTAB +1D
000151:                                                                                                  #  13,7,2        OCT     10102           P20-P25 SUNDANCE
000152:                                                                                                  #  PRIO12        OCT     12000           BANKCALL
000153:    5064           13000        PRIO13             OCT      13000
000154:    5065           14000        PRIO14             OCT      14000
000155:                                                                                                  #                OCT     14031           T4RUPT  RELTAB +2D
000156:    5066           15000        PRIO15             OCT      15000
000157:    5067           16000        PRIO16             OCT      16000
000158:    5070           17000        PRIO17             OCT      17000
000159:                                                                                                  #  85DEGS        DEC     .45556          P20-P25 SUNDANCE        (OCTAL 16450)
000160:    5071           17770        OCT17770           OCT      17770
000161:                                                                                                  #  BIT14         OCT     20000
000162:                                                                                                  #                OCT     20033           T4RUPT  RELTAB +3D
000163:    5072           21000        PRIO21             OCT      21000
000164:    6000                                           SETLOC   FFTAG6
000165:    6000                                           BANK
000166:
000167:    7644                                           COUNT*   $$/FCONS
000168:    7644           22000        PRIO22             OCT      22000                                 #  SERVICE ROUTINES
000169:    7645           24000        PRIO24             OCT      24000
000170:                                                                                                  #  5/8+1         OCT     24001           SINGLE PRECISION SUBROUTINES
000171:                                                                                                  #                OCT     24017           T4RUPT  RELTAB +4D
000172:    7646           24100        14,12,7            OCT      24100
000173:    7647           25000        PRIO25             OCT      25000
000174:    7650           26000        PRIO26             OCT      26000
000175:    7651           27000        PRIO27             OCT      27000
000176:                                                                                                  #  CHRPRIO       OCT     30000           PINBALL
000177:                                                                                                  #                OCT     30036           T4RUPT  RELTAB +5D
000178:    7652           31000        PRIO31             OCT      31000
000179:    7653           31103        C1/2               DEC      .7853134                              #                        (OCTAL 31103)
000180:    7654           32000        PRIO32             OCT      32000
000181:    7655           33000        PRIO33             OCT      33000
000182:    7656           34000        PRIO34             OCT      34000
000183:                                                                                                  #                OCT     34034           T4RUPT  RELTAB +6D
000184:    7657           35000        PRIO35             OCT      35000
000185:    7660           37000        PRIO37             OCT      37000
000186:                                                                                                  #  MID7          OCT     37600           PINBALL
000187:    7661           37766        OCT37766           OCT      37766
000188:    7662           37774        OCT37774           OCT      37774
000189:    7663           37776        OCT37776           OCT      37776
000190:                                                                                                  #  DPOSMAX       OCT     37777
000191:                                                                                                  #  BIT15         OCT     40000
000192:                                                                                                  #  OCT40001      OCT     40001           INTERPRETER (CS 1 INSTRUCTION)
000193:    7664           40010        OT40010            OCT      40010
000194:    7665           40014        DLOADCOD           OCT      40014
000195:    7666           40015        DLOAD*             OCT      40015
000196:                                                                                                  #                OCT     40023           T4RUPT  RELTAB +7D
000197:    7667           40040        BIT15+6            OCT      40040
000198:    7670           40200        OCT40200           OCT      40200
000199:                                                                                                  #                OCT     44035           T4RUPT  RELTAB +8D
000200:    7671           47777        NEG30000           OCT      47777
000201:                                                                                                  #                OCT     50037           T4RUPT  RELTAB +9D
000202:                                                                                                  #                OCT     54000           T4RUPT  RELTAB +10D
000203:    7672     4762               -BIT14             EQUALS   NEG1/2
000204:                                                                                                  #  RELTAB11      OCT     60000           T4RUPT
000205:    7672           65552        C3/2               DEC      -.3216147                             #                        (OCTAL 65552)
000206:    7673           70000        13,14,15           OCT      70000
000207:    7674           73777        -1/8               OCT      73777
000208:    7675           74000        HIGH4              OCT      74000
000209:    7676           74056        -ENDERAS           DEC      -2001      B-14                       #                        (OCTAL 74056)
000210:                                                                                                  #  HI5           OCT     76000           PINBALL
000211:    7677           77700        HIGH9              OCT      77700
000212:                                                                                                  #  -ENDVAC       DEC     -45             INTERPRETER             (OCTAL 77722)
000213:                                                                                                  #  DECNEG23      DEC     -23             AUTO MAN. (OCT77750)
000214:                                                                                                  #  -OCT10        OCT     -10                                     (OCT 77767)
000215:                                                                                                  #  NEG4          DEC     -4                                      (OCTAL 77773)
000216:    7700           77774        NEG3               DEC      -3         B-14
000217:    7701           77775        NEG2               OCT      77775
000218:    7702           77776        NEGONE             DEC      -1         B-14
000219:
000220:
000221:                                                                                                  #  DEFINED BY EQUALS
000222:
000223:                                                                                                  #  IT WOULD BE TO THE USERS ADVANTAGE TO OCCASIONALLY CHECK ANY OF THESE SYMBOLS IN ORDER TO PREVENT ANY
000224:                                                                                                  #  ACCIDENTAL DEFINITION CHANGES.
000225:
000226:    7703     7702               MINUS1             =        NEG1
000227:    7703     7702               NEG1               =        NEGONE
000228:    7703     5001               ONE                =        BIT1
000229:    7703     5000               TWO                =        BIT2
000230:    7703     6214               THREE              =        OCTAL3
000231:    7703     6214               LOW2               =        THREE
000232:    7703     4777               FOUR               =        BIT3
000233:    7703     6211               SIX                =        REVCNT
000234:    7703     5005               LOW3               =        SEVEN
000235:    7703     4776               EIGHT              =        BIT4
000236:    7703     4322               NINE               =        R2D1
000237:    7703     4355               TEN                =        BINCON
000238:    7703     5006               NOUTCON            =        ELEVEN
000239:    7703     4351               OCT23              =        VD1
000240:    7703     4353               OCT25              =        MD1
000241:    7703     4770               PRIO1              =        BIT10
000242:    7703     5037               EBANK3             =        OCT1400
000243:    7703     4767               PRIO2              =        BIT11
000244:    7703     5026               OCT120             =        SUPER101
000245:    7703     5027               OCT140             =        SUPER110
000246:    7703     4767               2K                 =        BIT11
000247:    7703     4767               EBANK4             =        BIT11
000248:    7703     4766               PRIO4              =        BIT12
000249:    7703     5057               EBANK6             =        PRIO3
000250:    7703     4765               QUARTER            =        BIT13
000251:    7703     4765               PRIO10             =        BIT13
000252:    7703     7617               OCT10001           =        CCSL
000253:    7703     4764               POS1/2             =        HALF
000254:    7703     4764               PRIO20             =        BIT14
000255:    7703     4764               HALF               =        BIT14
000256:    7703     4346               PRIO30             =        CHRPRIO
000257:    7703     4346               BIT13-14           =        PRIO30                                #  INTERPRETER USES IN PROCESSING STORECODE
000258:    7703     6440               OCT30002           =        TLOAD      +1
000259:    7703     7656               B12T14             =        PRIO34
000260:    7703     4763               NEGMAX             =        BIT15
000261:    7703     4763               VLOADCOD           =        BIT15
000262:    7703     6056               VLOAD*             =        OCT40001
000263:    7703     4076               OCT60000           =        RELTAB11
000264:    7703     4344               BANKMASK           =        HI5
000265:

End of include-file FIXED-FIXED_CONSTANT_POOL.agc.  Parent file is MAIN.agc


