
Source Code


000002:                                                                                                  ## Copyright:   Public domain.
000003:                                                                                                  ## Filename:    FRESH_START_AND_RESTART.agc
000004:                                                                                                  ## Purpose:     A section of Skylark revision 048.
000005:                                                                                                  ##              It is part of the source code for the Apollo Guidance Computer (AGC)
000006:                                                                                                  ##              for Skylab-2, Skylab-3, Skylab-4, and ASTP. No original listings of
000007:                                                                                                  ##              this software are available; instead, this file was created via
000008:                                                                                                  ##              disassembly of dumps of the core rope modules actually flown on
000009:                                                                                                  ##              Skylab-2. Access to these modules was provided by the New Mexico
000010:                                                                                                  ##              Museum of Space History.
000011:                                                                                                  ## Assembler:   yaYUL
000012:                                                                                                  ## Contact:     Ron Burkey <info@sandroid.org>.
000013:                                                                                                  ## Website:     www.ibiblio.org/apollo/index.html
000014:                                                                                                  ## Mod history: 2023-09-04 MAS  Created from Artemis 072.
000015:                                                                                                  ##              2024-02-27 MAS  Updated for Skylark 48.
000016:
000017:
000018:                                                                                                  #  PROGRAM DESCRIPTION                                           8 APRIL, 1967
000019:                                                                                                  #                                                                SUNDISK REV 120
000020:                                                                                                  #  FUNCTIONAL DESCRIPTION
000021:
000022:                                                                                                  #  SLAP1         MAN INITIATED FRESH START
000023:                                                                                                  #        1.      EXECUTE STARTSUB
000024:                                                                                                  #        2.      TURN OFF DSKY DISCRETE-LAMPS
000025:                                                                                                  #        3.      CLEAR FAIL REGISTERS,SELF CHECK ERROR COUNTER AND RESTART
000026:                                                                                                  #                COUNTER
000027:                                                                                                  #        4.      INITIALIZE OUTBIT CHANNEL 77
000028:                                                                                                  #        5.      EXECUTE DOFSTART
000029:
000030:                                                                                                  #  DOFSTART      MACHINE INITIATED FRESH START
000031:
000032:                                                                                                  #        1.      CLEAR SELF-CHECK REGISTERS, MODE REGISTER AND CDUZ REGISTER
000033:                                                                                                  #        2.      CLEAR PHASE TABLE
000034:                                                                                                  #        3.      INITIALIZE IMU FLAGS
000035:                                                                                                  #        4.      INITIALIZE FLAGWORDS
000036:                                                                                                  #        5.      TRANSFER CONTROL TO IDLE LOOP IN DUMMYJOB
000037:
000038:                                                                                                  #  GOPROG        HARDWARE RESTART
000039:
000040:                                                                                                  #        0.      EXECUTE STARTSUB
000041:                                                                                                  #        1.      TRANSFER CONTROL TO DOFSTART IF ANY OF THE FOLLOWING CONDITIONS
000042:                                                                                                  #                EXIST.
000043:                                                                                                  #                A.      RESTART OCCURED DURING EXECUTION OF ERASCHK
000044:                                                                                                  #                B.      BOTH OSCILLATOR FAIL AND AGC WARNING ARE ON
000045:                                                                                                  #                C.      MARK REJECT AND EITHER NAV OR MAIN DSKY ERROR LIGHT RESET
000046:                                                                                                  #                        ARE ON.
000047:                                                                                                  #        2.      SCHEDULE A T5RUPT PROGRAM FOR THE DAP
000048:                                                                                                  #        3.      SET FLAGWRD5 BITS FOR INTWAKE ROUTINE
000049:                                                                                                  #        4.      EXTINGUISH ALL DSKY LAMPS, EXCEPT PROGRAM ALARM, GIMBAL LOCK AND
000050:                                                                                                  #                NO ATT
000051:                                                                                                  #        5.      INITIALIZE IMU FLAGS
000052:                                                                                                  #        6.      IF ENGINE COMMAND IS ON (FLAGWRD5, BIT 7), SET ENGINE ON (CHAN-
000053:                                                                                                  #                NEL 11, BIT 13)
000054:                                                                                                  #        7.      TRANSFER CONTROL TO GOPROG3
000055:
000056:                                                                                                  #  ENEMA         SOFTWARE RESTART    INITIATED BY MAJOR MODE CHANGE
000057:
000058:                                                                                                  #        1.      EXECUTE STARTSB2
000059:                                                                                                  #        2.      KILL PROGRAMS THAT WERE INTEGRATING OR WAITING FOR INTEGRATION
000060:                                                                                                  #                ROUTINE
000061:                                                                                                  #        3.      TRANSFER CONTROL TO GOPROG3
000062:
000063:                                                                                                  #  GOPROG3       SUBROUTINE COMMON TO GOPROG AND ENEMA
000064:
000065:                                                                                                  #        1.      TEST PHASE TABLES - IF INCORRECT, DISPLAY ALARM 1107 AND
000066:                                                                                                  #                TRANSFER CONTROL TO DOFSTART
000067:                                                                                                  #        2.      DISPLAY MAJOR MODE
000068:
000069:
000070:                                                                                                  #        3.      IF ANY GROUPS WERE ACTIVE UPON RESTART, TRANSFER CONTROL TO THE
000071:                                                                                                  #                RESTARTS SUBROUTINE TO RESCHEDULE PENDING TASKS, LONGCALLS, AND
000072:                                                                                                  #                JOBS (P20 IS RESTARTED VIA FINDVAC)
000073:                                                                                                  #        4.      IF NO GROUPS WERE ACTIVE UPON RESTART, DISPLAY ALARM CODE
000074:                                                                                                  #                1110 (RESTART WITH NO ACTIVE GROUPS).
000075:                                                                                                  #        5.      TRANSFER CONTROL TO IDLE LOOP IN DUMMYJOB
000076:
000077:                                                                                                  #  STARTSUB      SUBROUTINE COMMON TO SLAP1 AND GOPROG
000078:
000079:                                                                                                  #        1.      CLEAR OUTBIT CHANNELS 5 AND 6
000080:                                                                                                  #        2.      INITIALIZE TIME5, TIME4, TIME3
000081:                                                                                                  #        3.      TRANSFER CONTROL TO STARTSB2
000082:
000083:                                                                                                  #  STARTSB2      SUBROUTINE COMMON TO STARTSUB AND ENEMA
000084:
000085:                                                                                                  #        1.      INITIALIZE OUTBIT CHANNELS 11,12,13 AND 14
000086:                                                                                                  #        2.      REPLACE ALL TASKS ON WAITLIST WITH ENDTASK
000087:                                                                                                  #        3.      MAKE ALL EXECUTIVE REGISTERS AVAILABLE
000088:                                                                                                  #        4.      MAKE ALL VAC AREAS AVAILABLE
000089:                                                                                                  #        5.      CLEAR DSKY REGISTERS
000090:                                                                                                  #        6.      ZERO NUMEROUS SWITCHES
000091:                                                                                                  #        7.      INITIALIZE OPTICS FLAGS
000092:                                                                                                  #        8.      INITIALIZE PIPA AND TELEMETRY FAIL FLAGS
000093:                                                                                                  #        9.      INITIALIZE DOWN TELEMETRY
000094:
000095:                                                                                                  #  INPUT/OUTPUT INITIALIZATION
000096:
000097:                                                                                                  #        A.      CALLING SEQUENCE
000098:
000099:                                                                                                  #                SLAP1 - TC POSTJUMP     OR      VERB 36,ENTER
000100:                                                                                                  #                        CADR SLAP1
000101:
000102:                                                                                                  #                ENEMA - TC POSTJUMP     ***  DO NOT CALL ENEMA WITHOUT  ***
000103:                                                                                                  #                        CADR ENEMA      ***  CONSULTING POOH PEOPLE     ***
000104:
000105:                                                                                                  #        B.      OUTPUT
000106:
000107:                                                                                                  #                ERASABLE MEMORY INITIALIZATION
000108:
000109:                                                                                                  #  PROGRAM ANALYSIS
000110:
000111:                                                                                                  #        A.      SUBROUTINES CALLED
000112:
000113:                                                                                                  #                MR.KLEAN,WAITLIST,DSPMM,ALARM,RESTARTS,FINDVAC
000114:
000115:                                                                                                  #        B.      ALARMS
000116:
000117:                                                                                                  #                1107    PHASE TABLE ERROR
000118:                                                                                                  #                1110    RESTART WITH NO ACTIVE GROUPS
000119:
000120: 05,2000                                           SETLOC   FRANDRES
000121: 05,2000                                           BANK
000122:
000123: 05,2304  E3,1400                                  EBANK=   LST1
000124:
000125: 05,2304                                           COUNT*   $$/START
000126: 05,2304           00004        SLAP1              INHINT                                         #  FRESH START. COMES HERE FROM PINBALL.
000127: 05,2305           02751                           TC       STARTSUB                              #  SUBROUTINE DOES MOST OF THE WORK.
000128:
000129: 05,2306           12313        STARTSW            TCF      SKIPSIM
000130:
000131: 05,2307           34764        STARTSIM           CAF      BIT14
000132:
000133: 05,2310           05150                           TC       FINDVAC
000134:
000135: 05,2311           77777        SIM2CADR           OCT      77777
000136:
000137: 05,2312           77777                           OCT      77777
000138: 05,2313           31231        SKIPSIM            CA       DSPTAB     +11D
000139: 05,2314           75016                           MASK     BITS4&6
000140: 05,2315           64763                           AD       BIT15
000141: 05,2316           55231                           TS       DSPTAB     +11D                       #  REQUESTED FRESH START.
000142:
000143: 05,2317           35003                           CAF      ZERO                                  #  SAME STORY ON ZEROING FAILREG.
000144: 05,2320           55365                           TS       ERCOUNT
000145: 05,2321           54374                           TS       FAILREG
000146: 05,2322           54375                           TS       FAILREG    +1
000147: 05,2323           54376                           TS       FAILREG    +2
000148: 05,2324           55276                           TS       REDOCTR
000149:
000150: 05,2325           00006                           EXTEND
000151: 05,2326           01077                           WRITE    CHAN77                                #  ZERO CHANNEL 77
000152: 05,2327           44675                           CS       PRIO12
000153: 05,2330           55312                           TS       DSRUPTSW
000154:
000155: 05,2331           35003        DOFSTART           CAF      ZERO                                  #  DO A FRESH START.
000156: 05,2332           55360                           TS       ERESTORE                              #  ***** MUST NOT BE REMOVED FROM DOFSTART
000157: 05,2333           55362                           TS       SMODE                                 #  ***** MUST NOT BE REMOVED FROM DOFSTART
000158: 05,2334           55501                           TS       UPSVFLAG                              #  UPDATE STATE VECTOR REQUEST FLAGWORD
000159: 05,2335           00006                           EXTEND
000160: 05,2336           01005                           WRITE    CHAN5                                 #  TURN OFF RCS JETS
000161: 05,2337           00006                           EXTEND
000162: 05,2340           01006                           WRITE    CHAN6                                 #  TURN OFF RCS JETS
000163: 05,2341           00006                           EXTEND
000164: 05,2342           01011                           WRITE    DSALMOUT                              #  ZERO CHANNEL 11
000165: 05,2343           00006                           EXTEND
000166: 05,2344           01012                           WRITE    CHAN12                                #  ZERO CHANNEL 12
000167: 05,2345           00006                           EXTEND
000168: 05,2346           01013                           WRITE    CHAN13                                #  ZERO CHANNEL 13
000169: 05,2347           00006                           EXTEND
000170: 05,2350           01014                           WRITE    CHAN14                                #  ZERO CHANNEL 14
000171: 05,2351           55321                           TS       WTOPTION
000172: 05,2352           54332                           TS       DNLSTCOD
000173:
000174: 05,2353           54367                           TS       NVSAVE
000175: 05,2354           55265                           TS       EBANKTEM
000176: 05,2355           54765                           TS       TRKMKCNT
000177: 05,2356           54764                           TS       VHFCNT
000178: 05,2357           55237                           TS       EXTVBACT
000179:
000180: 05,2360           41231                           CS       DSPTAB     +11D
000181: 05,2361           75016                           MASK     BITS4&6
000182: 05,2362           10000                           CCS      A
000183: 05,2363           02367                           TC       +4
000184: 05,2364           35016                           CA       BITS4&6
000185: 05,2365           00006                           EXTEND                                         #  THE IMU WAS IN COARSE ALIGN IN GIMBAL
000186: 05,2366           05012                           WOR      CHAN12                                #  LOCK, SO PUT IT BACK INTO COARSE ALIGN.
000187: 05,2367           02444                           TC       MR.KLEAN
000188:
000189: 05,2370           45003                           CS       ZERO
000190: 05,2371           55204                           TS       MODREG
000191:
000192: 05,2372           34346                           CAF      PRIO30
000193: 05,2373           54364                           TS       RESTREG
000194:
000195: 05,2374           33153                           CAF      IM30INIF                              #  FRESH START IMU INITIALIZATION.
000196: 05,2375           55323                           TS       IMODES30
000197:
000198: 05,2376           37702                           CAF      NEGONE
000199: 05,2377           55313                           TS       OPTIND                                #  KILL COARSE OPTICS
000200:
000201: 05,2400           33155                           CAF      OPTINITF
000202: 05,2401           55327                           TS       OPTMODES
000203:
000204: 05,2402           35067                           CAF      IM33INIT
000205: 05,2403           55324                           TS       IMODES33
000206:
000207: 05,2404           00006                           EXTEND                                         #  LET T5 IDLE.
000208: 05,2405           33135                           DCA      T5IDLER
000209: 05,2406           52113                           DXCH     T5LOC
000210:
000211: 05,2407           33156                           CA       SWINIT
000212: 05,2410           54074                           TS       STATE
000213:
000214: 05,2411           30075                           CA       FLAGWRD1
000215: 05,2412           74766                           MASK     NOP01BIT                              #  LEAVE NODOP01 FLAG UNTOUCHED
000216: 05,2413           63157                           AD       SWINIT     +1
000217: 05,2414           54075                           TS       FLAGWRD1
000218:
000219: 05,2415           33160                           CA       SWINIT     +2
000220: 05,2416           54076                           TS       STATE      +2
000221:
000222: 05,2417           30077                           CA       FLAGWRD3
000223: 05,2420           74765                           MASK     REFSMBIT
000224: 05,2421           63161                           AD       SWINIT     +3
000225: 05,2422           54077                           TS       FLAGWRD3
000226:
000227: 05,2423           00006                           EXTEND
000228: 05,2424           33163                           DCA      SWINIT     +4
000229: 05,2425           52101                           DXCH     STATE      +4
000230: 05,2426           00006                           EXTEND
000231: 05,2427           33165                           DCA      SWINIT     +6
000232: 05,2430           52103                           DXCH     STATE      +6
000233: 05,2431           00006                           EXTEND
000234: 05,2432           33167                           DCA      SWINIT     +8D
000235: 05,2433           52105                           DXCH     STATE      +8D
000236:
000237: 05,2434           34767                           CAF      HDSUPBIT
000238: 05,2435           70106                           MASK     FLGWRD10
000239: 05,2436           63170                           AD       SWINIT     +10D
000240: 05,2437           54106                           TS       FLGWRD10
000241:
000242: 05,2440           33171                           CAF      SWINIT     +11D
000243: 05,2441           54107                           TS       FLGWRD11
000244:
000245: 05,2442           04666        ENDRSTRT           TC       POSTJUMP
000246: 05,2443           03201                           CADR     DUMMYJOB   +2                         #  DOES A RELINT.  (IN A SWITCHED BANK.)
000247:
000248: 05,2444           00004        MR.KLEAN           INHINT
000249: 05,2445           00006                           EXTEND
000250: 05,2446           35003                           DCA      NEG0
000251: 05,2447           53150                           DXCH     -PHASE2
000252: 05,2450           00006        POOKLEAN           EXTEND
000253: 05,2451           35003                           DCA      NEG0
000254: 05,2452           53154                           DXCH     -PHASE4
000255: 05,2453           00006                           EXTEND
000256: 05,2454           35003                           DCA      NEG0
000257: 05,2455           53146                           DXCH     -PHASE1
000258: 05,2456           00006        V37KLEAN           EXTEND
000259: 05,2457           35003                           DCA      NEG0
000260: 05,2460           53152                           DXCH     -PHASE3
000261: 05,2461           00006                           EXTEND
000262: 05,2462           35003                           DCA      NEG0
000263: 05,2463           53156                           DXCH     -PHASE5
000264: 05,2464           00006        UPKLEAN            EXTEND
000265: 05,2465           35003                           DCA      NEG0
000266: 05,2466           53160                           DXCH     -PHASE6
000267: 05,2467           00002                           TC       Q
000268:
000269: 05,2470           06200        OCT6200            OCT      6200
000270:
000271:                                                                                                  #  COMES HERE FROM LOCATION 4000, GOJAM. RESTART ANY PROGRAMS WHICH MAY HAVE BEEN RUNNING AT THE TIME.
000272:
000273: 05,2471           25276        GOPROG             INCR     REDOCTR                               #  ADVANCE RESTART COUNTER.
000274:
000275: 05,2472           22002                           LXCH     Q
000276: 05,2473           00006                           EXTEND
000277: 05,2474           04007                           ROR      SUPERBNK
000278: 05,2475           53433                           DXCH     RSBBQ
000279: 05,2476           04647                           TC       BANKCALL                              #  STORE ERASABLES FOR DEBUGGING PURPOSES.
000280: 05,2477           40000                           CADR     VAC5STOR
000281: 05,2500           34763                           CA       BIT15                                 #  TEST OSC FAIL BIT TO SEE IF WE HAVE
000282: 05,2501           00006                           EXTEND                                         #  HAD A POWER TRANSIENT. IF SO, ATTEMPT
000283: 05,2502           03033                           WAND     CHAN33                                #  A RESTART. IF NOT, CHECK THE PRESENT
000284: 05,2503           00006                           EXTEND                                         #  STATE OF AGC WARNING BIT.
000285: 05,2504           12512                           BZF      BUTTONS
000286:
000287: 05,2505           34764                           CA       BIT14                                 #  IF AGC WARNING ON (BIT = 0), DO A
000288: 05,2506           00006                           EXTEND                                         #  FRESH START ON ASSUMPTION THAT
000289: 05,2507           02033                           RAND     CHAN33                                #  WE ARE IN A RESTART LOOP.
000290: 05,2510           00006                           EXTEND
000291: 05,2511           12747                           BZF      NONAVKEY   +1
000292:
000293: 05,2512           02726        BUTTONS            TC       LIGHTSET                              #  MAKE FRESH START CHECKS BEFORE ERESTORE.
000294:
000295:                                                                                                  #  ERASCHK TEMPORARILY STORES THE CONTENTS OF TWO ERASABLE LOCATIONS, X
000296:                                                                                                  #  AND X+1 INTO SKEEP5 AND SKEEP6. IT ALSO STORES X INTO SKEEP7 AND
000297:                                                                                                  #  ERESTORE. IF ERASCHK IS INTERRUPTED BY A RESTART, C(ERESTORE) SHOULD
000298:                                                                                                  #  EQUAL C(SKEEP7),AND BE A + NUMBER LESS THAN 2000 OCT.  OTHERWISE
000299:                                                                                                  #  C(ERESTORE) SHOULD EQUAL +0.
000300:
000301: 05,2513           34344                           CAF      HI5
000302: 05,2514           71360                           MASK     ERESTORE
000303: 05,2515           00006                           EXTEND
000304: 05,2516           12520                           BZF      +2                                    #  IF ERESTORE NOT = +0 OR +N LESS THAN 2K,
000305: 05,2517           12747                           TCF      NONAVKEY   +1                         #  DOUBT E MEMORY AND DO FRESH START.
000306: 05,2520           41360                           CS       ERESTORE
000307: 05,2521           00006                           EXTEND
000308: 05,2522           12537                           BZF      ELRSKIP    -1
000309: 05,2523           61377                           AD       SKEEP7
000310: 05,2524           00006                           EXTEND
000311: 05,2525           12527                           BZF      +2                                    #  = SKEEP7, RESTORE E MEMORY.
000312: 05,2526           12747                           TCF      NONAVKEY   +1                         #  NOT = SKEEP7, DOUBT EMEM, DO FRESH START
000313: 05,2527           31374                           CA       SKEEP4
000314: 05,2530           54003                           TS       EBANK                                 #  EBANK OF E MEMORY THAT WAS UNDER TEST.
000315: 05,2531           00006                           EXTEND                                         #  (NOT DXCH SINCE THIS MIGHT HAPPEN AGAIN)
000316: 05,2532           31376                           DCA      SKEEP5
000317: 05,2533           51377                           INDEX    SKEEP7
000318: 05,2534           52001                           DXCH     0000                                  #  E MEMORY RESTORED.
000319: 05,2535           35003                           CA       ZERO
000320: 05,2536           55360                           TS       ERESTORE
000321: 05,2537           02751                 -1        TC       STARTSUB                              #  DO INITIALIZATION AFTER ERASE RESTORE.
000322: 05,2540           30102        ELRSKIP            CA       FLAGWRD6                              #  RESTART AUTOPILOTS
000323: 05,2541           74076                           MASK     DPCONFIG
000324: 05,2542           00006                           EXTEND
000325: 05,2543           74777                           MP       BIT3                                  #  BITS 15,14    00      T5IDLOC
000326: 05,2544           76211                           MASK     SIX                                   #                01      REDORCS
000327: 05,2545           00006                           EXTEND                                         #                10      REDOTVC
000328: 05,2546           50000                           INDEX    A                                     #                11      REDOSAT
000329: 05,2547           33135                           DCA      T5IDLER
000330: 05,2550           52113                           DXCH     T5LOC
000331:
000332: 05,2551           44764                           CS       INTFLBIT
000333: 05,2552           70106                           MASK     FLGWRD10
000334: 05,2553           54106                           TS       FLGWRD10
000335:
000336: 05,2554           31327                           CA       OPTMODES
000337: 05,2555           75012                           MASK     OPTINITR
000338: 05,2556           64773                           AD       OCDUFBIT
000339: 05,2557           55327                           TS       OPTMODES
000340:
000341: 05,2560           34774                           CAF      NOIMUDAP
000342: 05,2561           71324                           MASK     IMODES33
000343: 05,2562           65067                           AD       IM33INIT
000344: 05,2563           55324                           TS       IMODES33
000345:
000346: 05,2564           33154                           CA       9,6,4                                 #  LEAVE PROG ALARM, GIMBAL LOCK, NO ATT
000347: 05,2565           71231                           MASK     DSPTAB     +11D                       #  LAMPS INTACT ON HARDWARE RESTART
000348: 05,2566           64763                           AD       BIT15
000349: 05,2567           57231                           XCH      DSPTAB     +11D
000350: 05,2570           74776                           MASK     BIT4                                  #  IF NO ATT LAMP WAS ON, LEAVE ISS IN
000351: 05,2571           00006                           EXTEND                                         #  COURSE ALIGN
000352: 05,2572           12601                           BZF      NOCOARSE
000353: 05,2573           04725                           TC       IBNKCALL                              #  IF NO ATT LAMP ON, RETURN ISS TO
000354: 05,2574           17021                           CADR     SETCOARS                              #        COARSE ALIGN
000355:
000356: 05,2575           36211                           CAF      SIX
000357: 05,2576           05246                           TC       WAITLIST
000358: 05,2577  E3,1474                                  EBANK=   CDUIND
000359: 05,2577           03015 16063                     2CADR    CA+ECE
000360:
000361: 05,2601           33144        NOCOARSE           CAF      IFAILINH                              #  LEAVE FAILURE INHIBITS INTACT ON
000362: 05,2602           71323                           MASK     IMODES30                              #        HARDWARE RESTART. RESET ALL
000363: 05,2603           67660                           AD       IM30INIR                              #        FAILURE CODES.
000364: 05,2604           55323                           TS       IMODES30
000365:
000366: 05,2605           40101                           CS       FLAGWRD5
000367: 05,2606           74773                           MASK     ENGONBIT
000368: 05,2607           10000                           CCS      A
000369: 05,2610           12633                           TCF      GOPROG3
000370: 05,2611           34765                           CAF      BIT13
000371: 05,2612           00006                           EXTEND
000372: 05,2613           05011                           WOR      DSALMOUT                              #  TURN ENGINE ON
000373: 05,2614           12633                           TCF      GOPROG3
000374: 05,2615           00004        ENEMA              INHINT
000375: 05,2616           02726                           TC       LIGHTSET                              #  EXIT TO DOFSTART IF ERROR RESET AND
000376: 05,2617           02757                           TC       STARTSB2                              #  MARK REJECT DEPRESSED SIMULTANEOUSLY
000377: 05,2620           44764                           CS       INTFLBIT
000378: 05,2621           70106                           MASK     FLGWRD10
000379: 05,2622           54106                           TS       FLGWRD10
000380:
000381: 05,2623           40102                           CS       FLAGWRD6                              #  IS TVC ON
000382: 05,2624           74076                           MASK     DPCONFIG
000383: 05,2625           00006                           EXTEND
000384: 05,2626           62633                           BZMF     GOPROG3                               #  NO
000385:
000386: 05,2627           35023                           CAF      .5SEC                                 #  YES, CALL TVCEXEC TASK WHICH WAS KILLED
000387: 05,2630           05246                           TC       WAITLIST                              #        IN STARTSB2.
000388: 05,2631  E6,1453                                  EBANK=   CNTR
000389: 05,2631           03013 34066                     2CADR    TVCEXEC
000390:
000391: 05,2633           30102        GOPROG3            CA       FLAGWRD6
000392: 05,2634           74076                           MASK     DPCONFIG
000393: 05,2635           00006                           EXTEND
000394: 05,2636           62647                           BZMF     GOPROG4
000395: 05,2637           34775                           CAF      TRACKBIT
000396: 05,2640           70075                           MASK     FLAGWRD1
000397: 05,2641           10000                           CCS      A
000398: 05,2642           12647                           TCF      GOPROG4
000399: 05,2643           04611                           TC       E6SETTER
000400: 05,2644           04463                           TC       STOPRATE
000401: 05,2645           35037                           CAF      EBANK3
000402: 05,2646           54003                           TS       EBANK
000403: 05,2647           35004        GOPROG4            CAF      NUMGRPS                               #  VERIFY PHASE TABLE AGREEMENTS
000404: 05,2650           54161        PCLOOP             TS       MPAC       +5
000405: 05,2651           60000                           DOUBLE
000406: 05,2652           00006                           EXTEND
000407: 05,2653           50000                           INDEX    A
000408: 05,2654           31146                           DCA      -PHASE1                               #  COMPLEMENT INTO A, DIRECT INTO L.
000409: 05,2655           00006                           EXTEND
000410: 05,2656           06001                           RXOR     LCHAN                                 #  RESULT MUST BE -0 FOR AGREEMENT.
000411: 05,2657           10000                           CCS      A
000412: 05,2660           12715                           TCF      PTBAD                                 #  RESTART FAILURE.
000413: 05,2661           12715                           TCF      PTBAD
000414: 05,2662           12715                           TCF      PTBAD
000415:
000416: 05,2663           10161                           CCS      MPAC       +5                         #  PROCESS ALL RESTART GROUPS.
000417: 05,2664           12650                           TCF      PCLOOP
000418: 05,2665           54162                           TS       MPAC       +6                         #  SET TO +0.
000419: 05,2666           05363                           TC       MMDSPLAY                              #  DISPLAY MAJOR MODE
000420:
000421: 05,2667           00004                           INHINT                                         #  RELINT DONE IN MMDSPLAY
000422:
000423: 05,2670           35004                           CAF      NUMGRPS                               #  SEE IF ANY GROUPS RUNNING.
000424: 05,2671           54161        NXTRST             TS       MPAC       +5
000425: 05,2672           60000                           DOUBLE
000426: 05,2673           50000                           INDEX    A
000427: 05,2674           11146                           CCS      PHASE1
000428: 05,2675           12677                           TCF      PACTIVE                               #  PNZ - GROUP ACTIVE.
000429: 05,2676           12704                           TCF      PINACT                                #  +0 - GROUP NOT RUNNING.
000430:
000431: 05,2677           54154        PACTIVE            TS       MPAC
000432: 05,2700           24154                           INCR     MPAC                                  #  ABS OF PHASE.
000433: 05,2701           24162                           INCR     MPAC       +6                         #  INDICATE GROUP DEMANDS PRESENT.
000434: 05,2702           04647                           TC       BANKCALL
000435: 05,2703           03475                           CADR     RESTARTS
000436:
000437: 05,2704           10161        PINACT             CCS      MPAC       +5                         #  PROCESS ALL RESTART GROUPS.
000438: 05,2705           12671                           TCF      NXTRST
000439:
000440: 05,2706           10162                           CCS      MPAC       +6                         #  NO, CHECK PHASE ACTIVITY FLAG
000441: 05,2707           12442                           TCF      ENDRSTRT                              #  PHASE ACTIVE
000442: 05,2710           34763                           CAF      BIT15                                 #  IS MODE -0
000443: 05,2711           71204                           MASK     MODREG
000444: 05,2712           00006                           EXTEND
000445: 05,2713           14103                           BZF      GOTOPOOH                              #  NO
000446: 05,2714           12442                           TCF      ENDRSTRT                              #  YES
000447: 05,2715           05644        PTBAD              TC       ALARM                                 #  SET ALARM TO SHOW PHASE TABLE FAILURE.
000448: 05,2716           01107                           OCT      1107
000449:
000450: 05,2717           12331                           TCF      DOFSTART                              #  IN R2).
000451:
000452:                                                                                                  #  ******** ****** ******
000453:
000454:                                                                                                  #  DO NOT USE GOPROG2 OR ENEMA WITHOUT CONSULTING POOH PEOPLE
000455:
000456: 05,2720           00004        GOPROG2            INHINT
000457: 05,2721           02757                           TC       STARTSB2
000458: 05,2722           44764                           CS       INTFLBIT
000459: 05,2723           70106                           MASK     FLGWRD10
000460: 05,2724           54106                           TS       FLGWRD10
000461: 05,2725           12647                           TCF      GOPROG4
000462: 05,2726     4765               OCT10000           =        BIT13
000463: 05,2726     4346               OCT30000           =        PRIO30
000464: 05,2726           34773        LIGHTSET           CAF      BIT7                                  #  DOFSTART IF MARK REJECT AND EITHER
000465: 05,2727           00006                           EXTEND                                         #  ERROR LIGHT RESET BUTTONS ARE DEPRESSED
000466: 05,2730           02016                           RAND     NAVKEYIN
000467: 05,2731           00006                           EXTEND
000468: 05,2732           12746                           BZF      NONAVKEY                              #  NO MARK REJECT
000469: 05,2733           34342                           CAF      OCT37
000470: 05,2734           00006                           EXTEND
000471: 05,2735           02016                           RAND     NAVKEYIN                              #  NAV DSKY KEYCODES,MARK,MARK REJECT
000472: 05,2736           63152                           AD       -ELR
000473: 05,2737           00006                           EXTEND
000474: 05,2740           12747                           BZF      NONAVKEY   +1
000475: 05,2741           00006                           EXTEND
000476: 05,2742           00015                           READ     MNKEYIN                               #  MAIN DSKY KEYCODES
000477: 05,2743           63152                           AD       -ELR
000478: 05,2744           00006                           EXTEND
000479: 05,2745           12747                           BZF      +2
000480:
000481: 05,2746           00002        NONAVKEY           TC       Q
000482:
000483: 05,2747           02751                 +1        TC       STARTSUB
000484: 05,2750           12331                           TCF      DOFSTART
000485: 05,2751           33145        STARTSUB           CAF      LDNPHAS1                              #  SET POINTER SO NEXT 20MS DOWNRUPT WILL
000486: 05,2752           54334                           TS       DNTMGOTO                              #  CAUSE THE CURRENT DOWNLIST TO BE
000487:                                                                                                  #  INTERRUPTED AND START SENDING FROM THE
000488:                                                                                                  #  BEGINNING OF THE CURRENT DOWNLIST.
000489:
000490: 05,2753           37662                           CAF      OCT37774                              #  37774 TO TIME5
000491: 05,2754           54030                           TS       TIME5
000492: 05,2755           65001                           AD       ONE                                   #  37775 TO TIME4
000493: 05,2756           54027                           TS       TIME4
000494:
000495: 05,2757           33150        STARTSB2           CAF      OCT77603                              #  TURN OFF UPLINK ACTY, TEMP CAUTION, KR,
000496: 05,2760           00006                           EXTEND                                         #  FLASH, OP. ERROR, LEAVE OTHERS UNCHANGED
000497: 05,2761           03011                           WAND     DSALMOUT
000498:
000499: 05,2762           34761                           CAF      POSMAX                                #  37777 to TIME3.
000500: 05,2763           54026                           TS       TIME3
000501:
000502: 05,2764           33151                           CAF      OCT74777                              #  TURN OFF TEST ALARMS, STANDBY ENABLE.
000503: 05,2765           00006                           EXTEND
000504: 05,2766           03013                           WAND     CHAN13
000505: 05,2767           34764                           CAF      R21BIT                                #  CLEAR BITS
000506: 05,2770           64766                           AD       P21BIT
000507: 05,2771           64770                           AD       SKIPVBIT
000508: 05,2772           64775                           AD       REVBIT
000509: 05,2773           40000                           COM
000510: 05,2774           70076                           MASK     FLAGWRD2
000511: 05,2775           64770                           AD       SKIPVBIT                              #  NOW SET SKIPVHF FLAG.
000512: 05,2776           54076                           TS       FLAGWRD2
000513: 05,2777           44776                           CS       MARKBIT
000514: 05,3000           70075                           MASK     FLAGWRD1
000515: 05,3001           54075                           TS       FLAGWRD1
000516:
000517: 05,3002           44776                           CS       CYC61BIT
000518: 05,3003           70074                           MASK     FLAGWRD0
000519: 05,3004           54074                           TS       FLAGWRD0
000520: 05,3005  E3,1400                                  EBANK=   LST1
000521: 05,3005           35037                           CAF      EBANK3
000522: 05,3006           54003                           TS       EBANK                                 #  SET FOR E3
000523:
000524: 05,3007           34762                           CAF      NEG1/2                                #  INITIALIZE WAITLIST DELTA-TS.
000525: 05,3010           55407                           TS       LST1       +7
000526: 05,3011           55406                           TS       LST1       +6
000527: 05,3012           55405                           TS       LST1       +5
000528: 05,3013           55404                           TS       LST1       +4
000529: 05,3014           55403                           TS       LST1       +3
000530: 05,3015           55402                           TS       LST1       +2
000531: 05,3016           55401                           TS       LST1       +1
000532: 05,3017           55400                           TS       LST1
000533:
000534: 05,3020           45307                           CS       ENDTASK
000535: 05,3021           55410                           TS       LST2
000536: 05,3022           55412                           TS       LST2       +2
000537: 05,3023           55414                           TS       LST2       +4
000538: 05,3024           55416                           TS       LST2       +6
000539: 05,3025           55420                           TS       LST2       +8D
000540: 05,3026           55422                           TS       LST2       +10D
000541: 05,3027           55424                           TS       LST2       +12D
000542: 05,3030           55426                           TS       LST2       +14D
000543: 05,3031           55430                           TS       LST2       +16D
000544: 05,3032           45310                           CS       ENDTASK    +1
000545: 05,3033           55411                           TS       LST2       +1
000546: 05,3034           55413                           TS       LST2       +3
000547: 05,3035           55415                           TS       LST2       +5
000548: 05,3036           55417                           TS       LST2       +7
000549: 05,3037           55421                           TS       LST2       +9D
000550: 05,3040           55423                           TS       LST2       +11D
000551: 05,3041           55425                           TS       LST2       +13D
000552: 05,3042           55427                           TS       LST2       +15D
000553: 05,3043           55431                           TS       LST2       +17D
000554:
000555: 05,3044           45003                           CS       ZERO                                  #  MAKE ALL EXECUTIVE REGISTER SETS
000556: 05,3045           54167                           TS       PRIORITY                              #  AVAILABLE.
000557: 05,3046           54203                           TS       PRIORITY   +12D
000558: 05,3047           54217                           TS       PRIORITY   +24D
000559: 05,3050           54233                           TS       PRIORITY   +36D
000560: 05,3051           54247                           TS       PRIORITY   +48D
000561: 05,3052           54263                           TS       PRIORITY   +60D
000562: 05,3053           54277                           TS       PRIORITY   +72D
000563:
000564: 05,3054           55312                           TS       DSRUPTSW
000565: 05,3055           54067                           TS       NEWJOB                                #  SHOWS NO ACTIVE JOBS.
000566:
000567: 05,3056           33147                           CAF      VAC1ADRC                              #  MAKE ALL VAC AREAS AVAILABLE.
000568: 05,3057           54400                           TS       VAC1USE
000569: 05,3060           65017                           AD       LTHVACA
000570: 05,3061           54454                           TS       VAC2USE
000571: 05,3062           65017                           AD       LTHVACA
000572: 05,3063           54530                           TS       VAC3USE
000573: 05,3064           65017                           AD       LTHVACA
000574: 05,3065           54604                           TS       VAC4USE
000575: 05,3066           65017                           AD       LTHVACA
000576: 05,3067           54660                           TS       VAC5USE
000577:
000578: 05,3070           34355                           CAF      TEN                                   #  BLANK DSKY REGISTERS (PROGRAM,VERB,NOUN,
000579:                                                                                                  #  R1,R2,R3)
000580: 05,3071           54154        DSPOFF             TS       MPAC
000581: 05,3072           44766                           CS       BIT12
000582: 05,3073           50154                           INDEX    MPAC
000583: 05,3074           55216                           TS       DSPTAB
000584: 05,3075           10154                           CCS      MPAC
000585: 05,3076           13071                           TCF      DSPOFF
000586:
000587: 05,3077           54773                           TS       DELAYLOC
000588: 05,3100           54774                           TS       DELAYLOC   +1
000589: 05,3101           54775                           TS       DELAYLOC   +2
000590: 05,3102           54776                           TS       DELAYLOC   +3
000591: 05,3103           54045                           TS       INLINK
000592: 05,3104           55171                           TS       DSPCNT
000593: 05,3105           55235                           TS       CADRSTOR
000594: 05,3106           55206                           TS       REQRET
000595: 05,3107           55210                           TS       CLPASS
000596: 05,3110           55205                           TS       DSPLOCK
000597: 05,3111           55213                           TS       MONSAVE                               #  KILL MONITOR
000598: 05,3112           55214                           TS       MONSAVE1
000599: 05,3113           55174                           TS       VERBREG
000600: 05,3114           55175                           TS       NOUNREG
000601: 05,3115           55236                           TS       DSPLIST
000602: 05,3116           55325                           TS       IMUCADR
000603: 05,3117           55314                           TS       LGYRO
000604: 05,3120           54100                           TS       FLAGWRD4                              #  KILL INTERFACE DISPLAYS
000605: 05,3121           54301                           TS       MARKINDX
000606: 05,3122           55237                           TS       EXTVBACT
000607: 05,3123           35006                           CAF      NOUTCON
000608: 05,3124           55211                           TS       NOUT
000609:
000610: 05,3125           33146                           CAF      LESCHK                                #  SELF CHECK GO-TO REGISTER.
000611: 05,3126           55361                           TS       SELFRET
000612:
000613: 05,3127           44351                           CS       VD1
000614: 05,3130           55172                           TS       DSPCOUNT
000615:
000616: 05,3131           00002                           TC       Q
000617: 05,3132           30001        T5IDLOC            CA       L                                     #  T5RUPT COMES HERE EVERY 163.84 SECS
000618: 05,3133           15341                           TCF      NOQRSM     +1                         #  WHEN NOBODY IS USING IT.
000619:
000620: 05,3134  E6,1674                                  EBANK=   OGANOW
000621: 05,3134           03132 12066  T5IDLER            2CADR    T5IDLOC
000622:
000623: 05,3136  E6,1674                                  EBANK=   OGANOW
000624: 05,3136           02043 42066                     2CADR    REDORCS
000625:
000626: 05,3140  E6,1674                                  EBANK=   OGANOW
000627: 05,3140           03176 34066                     2CADR    REDOTVC
000628:
000629: 05,3142  E6,1674                                  EBANK=   OGANOW
000630: 05,3142           02000 54066                     2CADR    REDOSAT
000631:
000632: 05,3144           00435        IFAILINH           OCT      435
000633: 05,3145           03444        LDNPHAS1           GENADR   DNPHASE1
000634: 05,3146           03333        LESCHK             GENADR   SELFCHK
000635: 05,3147           00400        VAC1ADRC           ADRES    VAC1USE
000636: 05,3150           77603        OCT77603           OCT      77603
000637: 05,3151           74777        OCT74777           OCT      74777
000638: 05,3152     5004               NUMGRPS            EQUALS   FIVE
000639: 05,3152           77755        -ELR               OCT      -22                                   #  -ERROR LIGHT RESET KEY CODE.
000640: 05,3153           37411        IM30INIF           OCT      37411                                 #  INHIBITS IMU FAIL FOR 5 SEC AND PIP ISSW
000641: 05,3154     7660               IM30INIR           =        PRIO37
000642: 05,3154     5067               IM33INIT           =        PRIO16                                #  NO PIP OR TM FAIL SIGNALS.
000643: 05,3154           00450        9,6,4              OCT      450
000644: 05,3155           00130        OPTINITF           OCT      130
000645: 05,3156     5012               OPTINITR           =        BITS4&5
000646: 05,3156           00000        SWINIT             OCT      0
000647: 05,3157           00000                           OCT      0
000648: 05,3160           00000                           OCT      0
000649: 05,3161           00000                           OCT      0
000650:
000651: 05,3162           00000                           OCT      0
000652: 05,3163           00000                           OCT      0
000653: 05,3164           00004                           OCT      00004                                 #  .05GSW
000654: 05,3165           00000                           OCT      0
000655: 05,3166           00000                           OCT      0
000656: 05,3167           00000                           OCT      0
000657: 05,3170           00000                           OCT      0
000658: 05,3171           00000                           OCT      0
000659:                                                                                                  #  ROUTINE NAME          GOTOPOOH -- ENTRANCE TO ROUTINE R00 (SELECTION OF NEW PROGRAM VIA V37)
000660:                                                                                                  #  FUNCTIONAL DESCRIPTION
000661:
000662:                                                                                                  #        1. FLASH V37    TO REQUEST SELECTION OF NEW PROGRAM
000663:
000664:    4000                                           SETLOC   FFTAG10
000665:    4000                                           BANK
000666:
000667:    4103                                           COUNT*   $$/POO
000668:    4103           07722        GOTOPOOH           TC       DOWNFLAG
000669:    4104           00236                           ADRES    AUTOSEQ
000670:    4105           05415        MNKGOPOO           TC       PHASCHNG
000671:    4106           05024                           OCT      05024
000672:    4107           13000                           OCT      13000
000673:    4110           04666                           TC       POSTJUMP
000674:    4111           10000                           CADR     GOPOOFIX
000675:    4112           34773        AUTOCHK            CAF      AUTSQBIT                              #  IS THIS AN AUTO SEQUENCE
000676:    4113           70106                           MASK     FLGWRD10
000677:    4114           00006                           EXTEND
000678:    4115           16711                           BZF      TCQ                                   #  NO, RETURN TO CALLER
000679:    4116           05415        AUTOCHK1           TC       PHASCHNG
000680:    4117           05024                           OCT      05024
000681:    4120           13000                           OCT      13000
000682:
000683:                                                                                                  #  GROUP 4 USE IS OK SINCE V37 TO FOLLOW
000684:    4121           34765                           CAF      BIT13
000685:    4122           56004                           XCH      FBANK                                 #  INCORRECT IF P80'S NOT IN BANK 4 (BIT13)
000686:    4123           01005                           TC       AUTPOINT
000687: 04,2000                                           SETLOC   VERB37
000688: 04,2000                                           BANK
000689:
000690: 04,2000                                           COUNT*   $$/POO
000691: 04,2000           02676        GOPOOFIX           TC       INITSUB
000692: 04,2001           05544                           TC       CLEARMRK   +2
000693: 04,2002           04112                           TC       AUTOCHK
000694: 04,2003           32006                           CAF      V37N99
000695: 04,2004           05550                           TC       VNFLASH
000696: 04,2005           02003                           TC       -2
000697:
000698: 04,2006           11343        V37N99             VN       3799
000699:
000700:                                                                                                  #  PROGRAM NAME          V37                             ASSEMBLY        SUNDISK
000701:                                                                                                  #  LOG SECTION           FRESH START AND RESTART
000702:
000703:                                                                                                  #  FUNCTIONAL DESCRIPTION
000704:
000705:                                                                                                  #        1. CHECK IF NEW PROGRAM ALLOWED. IF BIT 1 OF FLAGWRD2 (NODOFLAG) IS SET, AN ALARM 1520 IS CALLED.
000706:                                                                                                  #        2. CHECK FOR VALIDITY OF PROGRAM SELECTED. IF AN INVALID PROGRAM IS SELECTED, THE OPERATOR ERROR LIGHT IS
000707:                                                                                                  #           SET AND CURRENT ACTIVITY, IF ANY, CONTINUES.
000708:                                                                                                  #        3. SERVICER IS TERMINATED IF IT HAS BEEN RUNNING.
000709:                                                                                                  #        4. INSTALL IS EXECUTED TO AVOID INTERRUPTING INTEGRATION.
000710:                                                                                                  #        5. THE ENGINE IS TURNED OFF AND THE DAP IS INITIALIZED FOR COAST.
000711:                                                                                                  #        6. TRACK, UPDATE AND TARG1 FLAGS ARE SET TO ZERO.
000712:                                                                                                  #        7. DISPLAY SYSTEM IS RELEASED.
000713:                                                                                                  #        8. THE FOLLOWING ARE PERFORMED FOR EACH OF THE THREE CASES.
000714:                                                                                                  #                A. PROGRAM SELECTED IS P00.
000715:                                                                                                  #                        1. RENDEZVOUS FLAG IS RESET (KILL P20).
000716:                                                                                                  #                        2. STATINT1 IS SCHEDULED BY SETTING RESTART GROUP 2.
000717:                                                                                                  #                        3. MAJOR MODE 00 IS STORED IN THE MODE REGISTER (MODREG).
000718:                                                                                                  #                        4. SUPERBANK 3 IS SELECTED.
000719:                                                                                                  #                        5. NODOFLAG IS RESET.
000720:                                                                                                  #                        6. ALL RESTART GROUPS EXCEPT GROUP 2 ARE CLEARED. CONTROL IS TRANSFERRED TO RESTART PROGRAM (GOPROG2)
000721:                                                                                                  #                           WHICH CAUSES ALL CURRENT ACTIVITY TO BE DISCONTINUED AND A 9 MINUTE INTEGRATION CYCLE TO BE
000722:                                                                                                  #                           INITIATED.
000723:                                                                                                  #                B. PROGRAM SELECTED IS P20
000724:                                                                                                  #                        1. IF THE CURRENT MAJOR MODE IS THE SAME AS THE SELECTED NEWPROGRAM, THE PROGRAM IS RE-INITIALIZED
000725:                                                                                                  #                           VIA V37XEQ, ALL RESTART GROUPS, EXCEPT GROUP 4 ARE CLEARED.
000726:                                                                                                  #                        2. IF THE CURRENT MAJOR MODE IS NOT EQUAL TO THE NEW REQUEST, A CHECK IS MADE TO SEE IF THE REQUEST-
000727:                                                                                                  #                           ED MAJOR MODE HAS BEEN RUNNING IN THE BACKGROUND,
000728:                                                                                                  #                           AND IF IT HAS, NO NEW PROGRAM IS SCHEDULED, THE EXISTING
000729:                                                                                                  #                           P20 IS RESTARTED TO CONTINUE, AND ITS MAJOR MODE IS SET.
000730:                                                                                                  #                        3. CONTROL IS TRANSFERRED TO GOPROG2.
000731:                                                                                                  #                C. PROGRAM SELECTED IS NEITHER P00 NOR P20
000732:                                                                                                  #                        1. V37XEQ IS SCHEDULED (AS A JOB) BY SETTING RESTART GROUP 4
000733:                                                                                                  #                        2. ALL CURRENT ACTIVITY EXCEPT RENDEZVOUS AND TRACKING IS DISCONTINUED BY CLEARING ALL RESTART
000734:                                                                                                  #                           GROUPS. GROUP 2 IS CLEARED. IF THE RENDEZVOUS FLAG IS ON P20 IS RESTARTED IN GOPROG2 VIA REDOP20.
000735:                                                                                                  #                           TO CONTINUE.
000736:
000737:                                                                                                  #  INPUT/OUTPUT INFORMATION
000738:
000739:                                                                                                  #        A. CALLING SEQUENCE
000740:
000741:                                                                                                  #                CONTROL IS DIRECTED TO V37 BY THE VERBFAN ROUTINE.
000742:                                                                                                  #                VERBFAN GOES TO C(VERBTAB+C(VERBREG)). VERB 37 = MMCHANG.
000743:                                                                                                  #                MMCHANG EXECUTES A      TC POSTJUMP, CADR V37.
000744:
000745:                                                                                                  #        B. ERASABLE INITIALIZATION              NONE
000746:
000747:                                                                                                  #        C. OUTPUT
000748:                                                                                                  #                MAJOR MODE CHANGE
000749:
000750:                                                                                                  #        D. DEBRIS
000751:                                                                                                  #                MMNUMBER, MPAC +1, MINDEX, BASETEMP +C(MINDEX), FLAGWRD0, FLAGWRD1, FLAGWRD2, MODREG, GOLOC -1,
000752:                                                                                                  #                GOLOC, GOLOC +1, GOLOC +2, BASETEMP, -PHASE2, PHASE2, -PHASE4
000753:
000754:                                                                                                  #  PROGRAM ANALYSIS
000755:
000756:                                                                                                  #        A. SUBROUTINES CALLED
000757:                                                                                                  #                ALARM, RELDSP, PINBRNCH, INTSTALL, ENGINOF2, ALLCOAST, V37KLEAN, GOPROG2, FALTON, FINDVAC, SUPERSW,
000758:                                                                                                  #                DSPMM
000759:
000760:                                                                                                  #        B. NORMAL EXIT                          TC ENDOFJOB
000761:
000762:                                                                                                  #        C. ALARMS                               1520 (MAJOR MODE CHANGE NOT PERMITTED)
000763:
000764:    4000                                           SETLOC   FFTAG10
000765:    4000                                           BANK
000766:
000767:    4124                                           COUNT*   $$/V37
000768:    4124           00024        OCT24              MM       20         B-14
000769:    4125           00031        OCT31              MM       25         B-14
000770: 04,2000                                           SETLOC   VERB37
000771: 04,2000                                           BANK
000772:
000773: 04,2007                                           COUNT*   $$/V37
000774: 04,2007           55170        V37                TS       MMNUMBER                              #  SAVE MAJOR MODE
000775: 04,2010           07722                           TC       DOWNFLAG
000776: 04,2011           00236                           ADRES    AUTOSEQ
000777: 04,2012           07722                           TC       DOWNFLAG
000778: 04,2013           00242                           ADRES    TPIMNFLG
000779: 04,2014           07722                           TC       DOWNFLAG
000780: 04,2015           00226                           ADRES    PCMANFLG
000781: 04,2016           07722                           TC       DOWNFLAG
000782: 04,2017           00215                           ADRES    VHFRFLAG
000783: 04,2020           04606                           TC       E7SETTER
000784: 04,2021  E7,1702                                  EBANK=   MRKBUF1
000785: 04,2021           37702                           CAF      NEGONE
000786: 04,2022           55702                           TS       MRKBUF1                               #  TO PREVENT P20 FROM PROCESSING P50'S MRK
000787: 04,2023           41170                           CS       MMNUMBER
000788: 04,2024           65026                           AD       DEC80
000789: 04,2025           00006                           EXTEND
000790: 04,2026           62400                           BZMF     V37NONO
000791: 04,2027           40077                           CS       FLAGWRD3
000792: 04,2030           74765                           MASK     REFSMBIT
000793: 04,2031           10000                           CCS      A
000794: 04,2032           12042                           TCF      AUTO37
000795: 04,2033           31170        MMOK               CA       MMNUMBER
000796: 04,2034           62412                           AD       NEG30
000797: 04,2035           00006                           EXTEND
000798: 04,2036           62042                           BZMF     AUTO37                                #  P01 - P30
000799: 04,2037           66171                           AD       NEG8
000800: 04,2040           00006                           EXTEND
000801: 04,2041           62413                           BZMF     REND30S                               #  P31 - P38 RENDEZVOUS
000802: 04,2042           34346        AUTO37             CAF      PRIO30
000803: 04,2043           54364                           TS       RESTREG
000804:
000805: 04,2044           31323                           CA       IMODES30                              #  IS IMU BEING INITIALIZED
000806: 04,2045           74774                           MASK     IMUNITBT
000807: 04,2046           10000                           CCS      A
000808: 04,2047           12114                           TCF      CANTROO
000809:
000810: 04,2050           34773                           CAF      ENGONBIT                              #  IS ENGINE ON
000811: 04,2051           70101                           MASK     FLAGWRD5
000812: 04,2052           10000                           CCS      A
000813: 04,2053           12060                           TCF      ROOTOPOO                              #  YES, SET UP FOR POO
000814:
000815: 04,2054           40102                           CS       FLAGWRD6                              #  NO, IS TVC DAP ON
000816: 04,2055           74076                           MASK     DPCONFIG
000817: 04,2056           00006                           EXTEND
000818: 04,2057           62105                           BZMF     ISITPOO                               #  NO, CONTINUE WITH ROO
000819:
000820: 04,2060           04611        ROOTOPOO           TC       E6SETTER
000821:
000822: 04,2061  E6,1514                                  EBANK=   DAPDATR1
000823: 04,2061           04647                           TC       BANKCALL                              #  SPSOFF DOES AN INHINT
000824: 04,2062           50677                           CADR     SPSOFF
000825: 04,2063           04725                           TC       IBNKCALL
000826: 04,2064           13311                           CADR     MASSPROP
000827: 04,2065           32763                           CAF      3.1SEC
000828: 04,2066           04725                           TC       IBNKCALL
000829: 04,2067           45505                           CADR     RCSDAPON   +1
000830:
000831: 04,2070           04725                           TC       IBNKCALL
000832: 04,2071           51013                           CADR     TVCZAP                                #  DISABLE TVC
000833: 04,2072           35003                           CAF      ZERO
000834: 04,2073           55170                           TS       MMNUMBER
000835: 04,2074           00003                           RELINT
000836: 04,2075           35004                           CAF      FIVE
000837: 04,2076           04647                           TC       BANKCALL
000838: 04,2077           01731                           CADR     DELAYJOB
000839: 04,2100           35003                           CAF      ZERO
000840: 04,2101           00006                           EXTEND
000841: 04,2102           01005                           WRITE    5
000842: 04,2103           00006                           EXTEND
000843: 04,2104           01006                           WRITE    6
000844: 04,2105           31170        ISITPOO            CA       MMNUMBER
000845: 04,2106           00006                           EXTEND
000846: 04,2107           12140                           BZF      ISSERVON                              #  YES, CHECK SERVICER STATUS
000847:
000848: 04,2110           40076                           CS       FLAGWRD2                              #  NO, IS NODO V37 FLAG SET
000849: 04,2111           75001                           MASK     NODOBIT
000850: 04,2112           10000                           CCS      A
000851: 04,2113           12121                           TCF      CHECKTAB                              #  NO
000852: 04,2114           05644        CANTROO            TC       ALARM
000853: 04,2115           01520                           OCT      1520
000854:
000855: 04,2116           04432        V37BAD             TC       RELDSP                                #  RELEASES DISPLAY FROM ASTRONAUT
000856:
000857: 04,2117           04666                           TC       POSTJUMP                              #  BRING BACK LAST NORMAL DISPLAY IF THERE
000858: 04,2120           21155                           CADR     PINBRNCH                              #  WAS ONE. OY
000859:
000860: 04,2121           33074        CHECKTAB           CA       NOV37MM                               #  THE NO. OF MM
000861: 04,2122           54155        AGAINMM            TS       MPAC       +1
000862: 04,2123           50155                           NDX      MPAC       +1
000863: 04,2124           33030                           CA       PREMM1                                #  OBTAIN WHICH MM THIS IS FOR
000864: 04,2125           76043                           MASK     LOW7
000865: 04,2126           40000                           COM
000866: 04,2127           61170                           AD       MMNUMBER
000867: 04,2130           10000                           CCS      A
000868: 04,2131           10155                           CCS      MPAC       +1                         #  IF GR, SEE IF ANY MORE IN LIST
000869: 04,2132           12122                           TCF      AGAINMM                               #  YES, GET NEXT ONE
000870: 04,2133           12400                           TCF      V37NONO                               #  LAST TIME OR PASSED MM
000871:
000872: 04,2134           30155                           CA       MPAC       +1
000873: 04,2135           55167                           TS       MINDEX                                #  SAVE INDEX FOR LATER
000874:
000875: 04,2136           07710                           TC       UPFLAG
000876: 04,2137           00055                           ADRES    V50N18FL                              #  66935 55  518 490731Y
000877:
000878: 04,2140           40103        ISSERVON           CS       FLAGWRD7                              #  V37 FLAG SET - I.E. IS SERVICER GOING
000879: 04,2141           74774                           MASK     V37FLBIT
000880: 04,2142           10000                           CCS      A
000881: 04,2143           12151                           TCF      CANV37                                #  NO
000882:
000883: 04,2144           00004                           INHINT
000884: 04,2145           45001                           CS       AVEGBIT                               #  YES TURN OFF AVERAGE G FLAG AND WAIT
000885: 04,2146           70075                           MASK     FLAGWRD1                              #  FOR SERVICER TO RETURN TO CANV37
000886: 04,2147           54075                           TS       FLAGWRD1
000887:
000888: 04,2150           15220                           TCF      ENDOFJOB
000889:
000890: 04,2151           32762        CANV37             CAF      ROOAD
000891: 04,2152           54372                           TS       TEMPFLSH
000892:
000893: 04,2153           05415                           TC       PHASCHNG
000894: 04,2154           00014                           OCT      14
000895:
000896: 04,2155           06006        ROO                TC       INTPRET
000897:
000898: 04,2156           77624                           CALL                                           #  WAIT FOR INTEGRATION TO FINISH
000899: 04,2157           11720                                    INTSTALL
000900: 04,2160           77776        DUMMYAD            EXIT
000901:
000902: 04,2161           45037                           CS       OCT1400                               #  CLEAR CAUTION RESET
000903: 04,2162           00006                           EXTEND                                         #    AND TEST CONNECTOR OUTBIT
000904: 04,2163           03011                           WAND     11
000905:
000906: 04,2164           32755                           CAF      OCT44571                              #  CLEAR ENABLE OPTICS ERROR COUNTER, STAR
000907: 04,2165           00006                           EXTEND                                         #  TRAKERS ON BIT, TVC ENABLE, ZERO OPTICS,
000908: 04,2166           03012                           WAND     12                                    #  DISENGAGE OPTICS DAP, SIVB INJ SEQUENCE
000909:                                                                                                  #  START, AND SIVB CUTOFF BIT.
000910:
000911: 04,2167           42756                           CS       OCT600                                #  CLEAR UNUSED BITS
000912: 04,2170           00006                           EXTEND
000913: 04,2171           03013                           WAND     13
000914:
000915: 04,2172           02676                           TC       INITSUB
000916:
000917: 04,2173           05542                           TC       CLEARMRK
000918:
000919: 04,2174           35003                           CAF      ZERO
000920: 04,2175           54304                           TS       STARIND
000921:
000922: 04,2176           07722                           TC       DOWNFLAG
000923: 04,2177           00020                           ADRES    STIKFLAG
000924:
000925: 04,2200           04415                           TC       UPACTOFF                              #  TURN OFF UPLINK ACTIV LIGHT
000926:
000927: 04,2201           07722                           TC       DOWNFLAG
000928: 04,2202           00037                           ADRES    R21MARK
000929:
000930: 04,2203           07722                           TC       DOWNFLAG
000931: 04,2204           00234                           ADRES    EXTRANGE
000932:
000933: 04,2205           11170                           CCS      MMNUMBER                              #  IS THIS A POOH REQUEST
000934: 04,2206           12355                           TCF      NOUVEAU                               #  NO, PICK UP NEW PROGRAM
000935:
000936: 04,2207                                           COUNT*   $$/POO
000937: 04,2207           04432        POOH               TC       RELDSP                                #  RELEASE DISPLAY SYSTEM
000938:
000939: 04,2210           35061                           CAF      PRIO5                                 #  SET VARIABLE RESTART REGISTER FOR P00.
000940: 04,2211           55252                           TS       PHSPRDT2
000941:
000942: 04,2212           00004                           INHINT
000943: 04,2213           45001                           CS       NODOBIT                               #  TURN OFF NODOFLAG
000944: 04,2214           70076                           MASK     FLAGWRD2
000945: 04,2215           54076                           TS       FLAGWRD2
000946:
000947: 04,2216           35004                           CA       FIVE                                  #  SET 2.5 RESTART FOR STATEINT1
000948: 04,2217           54001                           TS       L
000949: 04,2220           40000                           COM
000950: 04,2221  01,2036               2P5SPT1            =        2.5SPOT
000951: 04,2221           53150                           DXCH     -PHASE2
000952:
000953: 04,2222           34772                           CA       IMUSEBIT                              #  RESET IMUSE AND
000954: 04,2223           64773                           AD       RNDVZBIT                              #  KILL P20
000955: 04,2224           40000                           COM
000956: 04,2225           70074                           MASK     FLAGWRD0
000957: 04,2226           54074                           TS       FLAGWRD0                              #                         RENDFLG
000958:
000959: 04,2227           44771                           CS       UTBIT
000960: 04,2230           70104                           MASK     FLAGWRD8
000961: 04,2231           54104                           TS       FLAGWRD8
000962:
000963: 04,2232           35003                           CAF      DNLADP00
000964:
000965: 04,2233                                           COUNT*   $$/V37
000966: 04,2233           54332        SEUDOPOO           TS       DNLSTCOD                              #  SET UP APPROPRIATE DOWNLIST.
000967:                                                                                                  #  (OLD ONE WILL BE FINISHED FIRST)
000968:
000969: 04,2234           34775                           CA       TRACKBIT
000970: 04,2235           64770                           AD       TARG1BIT
000971: 04,2236           64773                           AD       UPDATBIT
000972: 04,2237           40000                           COM
000973: 04,2240           55265                           TS       EBANKTEM
000974: 04,2241           70075                           MASK     FLAGWRD1
000975: 04,2242           54075                           TS       FLAGWRD1
000976:
000977: 04,2243           45000                           CS       R67BIT                                #  CLEAR R67FLAG. P20 WILL SET IT AGAIN
000978: 04,2244           70104                           MASK     FLAGWRD8                              #  IF APPROPRIATE
000979: 04,2245           54104                           TS       FLAGWRD8
000980:
000981: 04,2246           35001                           CAF      R27UP1BT
000982: 04,2247           65000                           AD       R27UP2BT
000983: 04,2250           64777                           AD       TDFLGBIT
000984: 04,2251           64776                           AD       P25BIT
000985: 04,2252           64775                           AD       P48BIT
000986: 04,2253           64774                           AD       SNAPBIT
000987: 04,2254           64767                           AD       CYCLFBIT
000988: 04,2255           40000                           COM
000989: 04,2256           70107                           MASK     FLGWRD11
000990: 04,2257           54107                           TS       FLGWRD11
000991:
000992: 04,2260           04725        GROUPKIL           TC       IBNKCALL                              #  KILL GROUPS 3(5,6
000993: 04,2261           12456                           CADR     V37KLEAN
000994:
000995: 04,2262           11170                           CCS      MMNUMBER                              #  IS IT POOH
000996: 04,2263           12273                           TCF      RENDVOO                               #  NO
000997: 04,2264           04725                           TC       IBNKCALL
000998: 04,2265           12450                           CADR     POOKLEAN                              #  REDUNDANT EXCEPT FOR GROUP 4.
000999:
001000: 04,2266           02711                           TC       INITSUBA
001001: 04,2267           31170        GOMOD              CA       MMNUMBER
001002: 04,2270           55204                           TS       MODREG
001003:
001004:
001005: 04,2271           04666        GOGOPROG           TC       POSTJUMP
001006: 04,2272           12720                           CADR     GOPROG2
001007:
001008: 04,2273           41170        RENDVOO            CS       MMNUMBER                              #  IS NEW PROG = 20
001009: 04,2274           64124                           AD       OCT24                                 #  20
001010: 04,2275           00006                           EXTEND
001011: 04,2276           12300                           BZF      RENDNOO                               #  YES
001012: 04,2277           12314                           TCF      POOFIZZ
001013:
001014: 04,2300           41170        RENDNOO            CS       MMNUMBER
001015: 04,2301           61204                           AD       MODREG
001016: 04,2302           00006                           EXTEND
001017: 04,2303           12324                           BZF      KILL20
001018:
001019: 04,2304           30104                           CA       FLAGWRD8
001020: 04,2305           74771                           MASK     UTBIT
001021: 04,2306           10000                           CCS      A
001022: 04,2307           12336                           TCF      STATQUO1
001023:
001024: 04,2310           30074                           CA       FLAGWRD0                              #  IS RENDEZVOO FLAG SET
001025: 04,2311           74773                           MASK     RNDVZBIT
001026: 04,2312           10000                           CCS      A
001027: 04,2313           12343                           TCF      STATQUO
001028:
001029: 04,2314           30104        POOFIZZ            CA       FLAGWRD8
001030: 04,2315           74771                           MASK     UTBIT
001031: 04,2316           10000                           CCS      A
001032: 04,2317           12330                           TCF      KILL20     +4
001033: 04,2320           34773                           CAF      RNDVZBIT
001034: 04,2321           70074                           MASK     FLAGWRD0
001035: 04,2322           10000                           CCS      A
001036: 04,2323           12333                           TCF      REV37
001037: 04,2324           00006        KILL20             EXTEND                                         #  NO, KILL GROUPS 1 + 2
001038: 04,2325           35003                           DCA      NEG0
001039: 04,2326           53146                           DXCH     -PHASE1
001040:
001041: 04,2327           02711                           TC       INITSUBA
001042: 04,2330           00006                 +4        EXTEND
001043: 04,2331           35003                           DCA      NEG0
001044: 04,2332           53150                           DXCH     -PHASE2
001045:
001046: 04,2333           32761        REV37              CAF      V37QCAD                               #  SET RESTART POINT
001047: 04,2334           54372                           TS       TEMPFLSH
001048:
001049: 04,2335           12271                           TCF      GOGOPROG
001050:
001051: 04,2336           35004        STATQUO1           CAF      FIVE                                  #  SET 2.5 RESTART for STATEINT1
001052: 04,2337           54001                           TS       L
001053: 04,2340  01,2036               2P5SPT2            =        2.5SPOT
001054: 04,2340           40000                           COM
001055: 04,2341           53150                           DXCH     -PHASE2
001056: 04,2342           12346                           TCF      STATQUO    +3
001057: 04,2343           40075        STATQUO            CS       FLAGWRD1                              #  SET TRACK FLAG AND UPDATE FLAG
001058: 04,2344           74773                           MASK     UPDATBIT
001059: 04,2345           26075                           ADS      FLAGWRD1
001060: 04,2346           40075                 +3        CS       FLAGWRD1
001061: 04,2347           74775                           MASK     TRACKBIT
001062: 04,2350           26075                           ADS      FLAGWRD1
001063:
001064: 04,2351           00006                           EXTEND                                         #  KILL GROUP 4
001065: 04,2352           35003                           DCA      NEG0
001066: 04,2353           53154                           DXCH     -PHASE4
001067:
001068: 04,2354           12267                           TCF      GOMOD
001069:
001070: 04,2355           34773        NOUVEAU            CAF      RNDVZBIT
001071: 04,2356           70074                           MASK     FLAGWRD0
001072: 04,2357           10000                           CCS      A
001073: 04,2360           12367                           TCF      +7
001074: 04,2361           34771                           CAF      UTBIT
001075: 04,2362           70104                           MASK     FLAGWRD8
001076: 04,2363           10000                           CCS      A
001077: 04,2364           12367                           TCF      +3
001078: 04,2365           07722                           TC       DOWNFLAG                              #  NO, RESET IMUSE FLAG.
001079: 04,2366           00007                           ADRES    IMUSE                                 #  BIT 8 FLAG 0
001080: 04,2367           51167                 +3        INDEX    MINDEX
001081: 04,2370           33030                           CAF      PREMM1                                #  EXTRACT DOWNLIST ADDRESS
001082: 04,2371           54022                           TS       CYL                                   #  SHIFT BITS 15 - 13 TO BITS 3 - 1
001083: 04,2372           40022                           CS       CYL
001084: 04,2373           40022                           CS       CYL
001085: 04,2374           56022                           XCH      CYL
001086: 04,2375           75005                           MASK     SEVEN                                 #  KEEP DOWNLIST CODE BITS
001087: 04,2376           00004                           INHINT
001088: 04,2377           12233                           TCF      SEUDOPOO
001089:
001090: 04,2400           04362        V37NONO            TC       FALTON                                #  COME HERE IF MM REQUESTED DOESNT EXIST
001091:
001092: 04,2401           12116                           TCF      V37BAD
001093:
001094: 04,2000                                           SETLOC   VERB37                                #  MUST BE IN BANK 4 BECAUSE OF AUTOCHK
001095: 04,2000                                           BANK
001096: 04,2402                                           COUNT*   $$/MNKEY
001097: 04,2402           00051        DEC41              DEC      41         B-14
001098: 04,2403           00064        DEC52              DEC      52         B-14
001099: 04,2404     4124               DEC20              =        OCT24
001100: 04,2404     4342               DEC31              =        LOW5
001101: 04,2404     4774               DEC32              =        BIT6
001102: 04,2404     5016               DEC40              =        OCT50
001103: 04,2404     5014               DEC33              =        33DEC
001104: 04,2404     4260               DEC34              =        34DEC
001105: 04,2404           00044        DEC36              DEC      36         B-14
001106: 04,2405           00043        DEC35              DEC      35         B-14
001107: 04,2406           00045        DEC37              DEC      37         B-14
001108: 04,2407           00046        DEC38              DEC      38         B-14
001109: 04,2410           00060        DEC48              DEC      48         B-14
001110: 04,2411     5026               DEC80              =        SUPER101
001111: 04,2411     6171               NEG8               =        -OCT10
001112: 04,2411           00130        DEC88              DEC      88         B-14
001113: 04,2412           77741        NEG30              DEC      -30        B-14
001114: 04,2413     5023               DEC50              =        OCT62
001115: 04,2413     5010               CKLSTAUT           =        LOW4
001116: 04,2413           62411        REND30S            AD       DEC88                                 #  CHANGE P3X to P8X
001117: 04,2414           55347                 +1        TS       TEMPMM                                #       AND SAVE
001118: 04,2415           34771                           CAF      UTBIT
001119: 04,2416           70104                           MASK     FLAGWRD8
001120: 04,2417           00006                           EXTEND
001121: 04,2420           12425                           BZF      UTOFF
001122:
001123: 04,2421           07722                           TC       DOWNFLAG
001124: 04,2422           00031                           ADRES    TRACKFLG
001125:
001126: 04,2423           07722                           TC       DOWNFLAG
001127: 04,2424           00176                           ADRES    UTFLAG
001128:
001129: 04,2425           40074        UTOFF              CS       FLAGWRD0                              #  HAS P20 BEEN ON
001130: 04,2426           74773                           MASK     RNDVZBIT
001131: 04,2427           00006                           EXTEND
001132: 04,2430           12435                           BZF      NOP20                                 #  YES
001133: 04,2431           07710                           TC       UPFLAG
001134: 04,2432           00236                           ADRES    AUTOSEQ                               #  SET TO CAUSE RETURN FROM P20
001135:
001136: 04,2433           34124                           CAF      DEC20                                 #  NO - TURN ON P20
001137: 04,2434           02511                           TC       AUTOSET
001138: 04,2435           31347        NOP20              CA       TEMPMM
001139: 04,2436           55170        AUTOSETA           TS       MMNUMBER
001140: 04,2437           02042                           TC       AUTO37
001141: 04,2440           30002        MINKDISP           CA       Q
001142: 04,2441           55005                           TS       AUTPOINT
001143: 04,2442           45023                           CS       DEC50
001144: 04,2443           61170                           AD       MMNUMBER
001145: 04,2444           05362                           TC       NEWMODEA                              #  CHANGE MAJOR MODE TO 30'S
001146: 04,2445           04432                           TC       RELDSP
001147: 04,2446           35010                           CAF      CKLSTAUT
001148: 04,2447           04647                           TC       BANKCALL
001149: 04,2450           20747                           CADR     GOPERF1
001150: 04,2451           14103                           TCF      GOTOPOOH
001151: 04,2452           02456                           TC       STARTAUT                              #  PRO - DO MINKEY
001152: 04,2453           07722                           TC       DOWNFLAG                              #  ENTER - NO MINKEY
001153: 04,2454           00236                           ADRES    AUTOSEQ
001154: 04,2455           01005                           TC       AUTPOINT
001155: 04,2456           30107        STARTAUT           CA       FLGWRD11                              #  INITIALIZE MINKEY
001156: 04,2457           74772                           MASK     AZIMBIT
001157: 04,2460           10000                           CCS      A
001158: 04,2461           12474                           TCF      STRTAUT1
001159: 04,2462           07710                           TC       UPFLAG
001160: 04,2463           00254                           ADRES    AZIMFLAG
001161: 04,2464           22007                           ZL
001162: 04,2465           40106                           CS       FLGWRD10
001163: 04,2466           74767                           MASK     HDSUPBIT
001164: 04,2467           00006                           EXTEND
001165: 04,2470           12473                           BZF      +3
001166: 04,2471           22007                           ZL
001167: 04,2472           34764                           CA       HALF
001168: 04,2473           53345                           DXCH     AZIMANGL
001169: 04,2474           40101        STRTAUT1           CS       FLAGWRD5
001170: 04,2475           75001                           MASK     RENDWBIT
001171: 04,2476           00006                           EXTEND
001172: 04,2477           12504                           BZF      +5                                    #  YES
001173: 04,2500           07710                           TC       UPFLAG                                #  NO
001174: 04,2501           00240                           ADRES    MANEUFLG
001175: 04,2502           07710                           TC       UPFLAG
001176: 04,2503           00241                           ADRES    PTV93FLG
001177: 04,2504           07722                           TC       DOWNFLAG
001178: 04,2505           00244                           ADRES    PCFLAG
001179: 04,2506           07710                           TC       UPFLAG
001180: 04,2507           00236                           ADRES    AUTOSEQ
001181:
001182: 04,2510           01005                           TC       AUTPOINT
001183: 04,2511           00006        AUTOSET            EXTEND
001184: 04,2512           23350                           QXCH     AUTTEMP
001185: 04,2513           55170                 +2        TS       MMNUMBER
001186: 04,2514           05415                           TC       PHASCHNG
001187: 04,2515           04024                           OCT      04024
001188:
001189: 04,2516           31350                           CA       AUTTEMP
001190: 04,2517           55005                           TS       AUTPOINT
001191:
001192: 04,2520           02042                           TC       AUTO37
001193:
001194: 04,2521           00006        BURNHOW            EXTEND
001195: 04,2522           23350                           QXCH     AUTTEMP
001196: 04,2523           06006                           TC       INTPRET
001197: 04,2524           51575                           VLOAD    ABVAL
001198: 04,2525           03405                                    DELVLVC
001199: 04,2526           51025                           DSU      BPL
001200: 04,2527           10540                                    DV40/41                               #  THRESHHOLD DELTA V FOR SPS BURN
001201: 04,2530           10534                                    P40BURN
001202: 04,2531           77776                           EXIT
001203: 04,2532           32402                           CAF      DEC41                                 #  CALL P41
001204:
001205:
001206: 04,2533           02513                           TC       AUTOSET    +2
001207: 04,2534           77776        P40BURN            EXIT
001208: 04,2535           35016                           CAF      DEC40                                 #  CALL P40
001209: 04,2536           02513                           TC       AUTOSET    +2
001210: 04,2537           00003 34661  DV40/41            2DEC     .03048     B-7                        #  10 FPS IN M/CS B-7
001211:
001212: 04,2541           02440        P81                TC       MINKDISP
001213: 04,2542           34342        P81CONT1           CAF      DEC31
001214: 04,2543           02511                           TC       AUTOSET
001215: 04,2544           02521                           TC       BURNHOW
001216: 04,2545           12547                           TCF      P82CONT1
001217: 04,2546           02440        P82                TC       MINKDISP
001218: 04,2547           34774        P82CONT1           CAF      DEC32
001219: 04,2550           02511                           TC       AUTOSET
001220: 04,2551           02521                           TC       BURNHOW
001221: 04,2552           12554                           TCF      P83CONT1
001222: 04,2553           02440        P83                TC       MINKDISP
001223: 04,2554           35014        P83CONT1           CAF      DEC33
001224: 04,2555           02511                           TC       AUTOSET
001225: 04,2556           02521                           TC       BURNHOW
001226: 04,2557           12561                           TCF      P84CONT1
001227: 04,2560           02440        P84                TC       MINKDISP
001228: 04,2561           34260        P84CONT1           CAF      DEC34
001229: 04,2562           02511                           TC       AUTOSET
001230: 04,2563           02521                           TC       BURNHOW
001231: 04,2564           12566                           TCF      P85CONT1
001232: 04,2565           02440        P85                TC       MINKDISP
001233: 04,2566           32405        P85CONT1           CA       DEC35
001234: 04,2567           02511                           TC       AUTOSET
001235: 04,2570           02521                           TC       BURNHOW
001236: 04,2571           02573                           TC       P86CONT1
001237: 04,2572           02440        P86                TC       MINKDISP
001238: 04,2573           32404        P86CONT1           CAF      DEC36
001239: 04,2574           02511                           TC       AUTOSET
001240: 04,2575           02521                           TC       BURNHOW
001241: 04,2576           32404                           CAF      DEC36
001242: 04,2577           02511                           TC       AUTOSET
001243: 04,2600           02521                           TC       BURNHOW
001244: 04,2601           02603                           TC       P87CONT1
001245: 04,2602           02440        P87                TC       MINKDISP
001246: 04,2603           32406        P87CONT1           CAF      DEC37
001247: 04,2604           02511                           TC       AUTOSET
001248: 04,2605           32410                           CAF      DEC48
001249: 04,2606           02511                           TC       AUTOSET
001250: 04,2607           04103                           TC       GOTOPOOH
001251: 04,2610           02440        P88                TC       MINKDISP
001252: 04,2611           32407                           CAF      DEC38
001253: 04,2612           02511                           TC       AUTOSET
001254: 04,2613           06006                           TC       INTPRET
001255: 04,2614           51575                           VLOAD    ABVAL
001256: 04,2615           03405                                    DELVLVC
001257: 04,2616           77454                           BZE      EXIT
001258: 04,2617           10643                                    NOPC
001259: 04,2620           32403                           CAF      DEC52
001260: 04,2621           02511                           TC       AUTOSET
001261: 04,2622           40106                           CS       FLGWRD10
001262: 04,2623           75001                           MASK     PCBIT
001263: 04,2624           00006                           EXTEND
001264: 04,2625           12640                           BZF      DOP41                                 #  PULSE TORQUING NOT DONE - CALL P41
001265: 04,2626           02521                           TC       BURNHOW                               #  P40 OR P41
001266: 04,2627           07710        P86CONT2           TC       UPFLAG
001267: 04,2630           00226                           ADRES    PCMANFLG
001268: 04,2631           34124                           CAF      DEC20                                 #  MANEUVER TO TRACK ATTITUDE
001269: 04,2632           02511                           TC       AUTOSET
001270: 04,2633           07722                           TC       DOWNFLAG
001271: 04,2634           00226                           ADRES    PCMANFLG
001272: 04,2635           32403                           CAF      DEC52
001273: 04,2636           02511                           TC       AUTOSET
001274: 04,2637           04103                           TC       GOTOPOOH
001275: 04,2640           32402        DOP41              CAF      DEC41
001276: 04,2641           02511                           TC       AUTOSET
001277: 04,2642           04103                           TC       GOTOPOOH
001278: 04,2643           77776        NOPC               EXIT
001279: 04,2644           04103        PCP76              TC       GOTOPOOH
001280:
001281: 04,2645  30,2000                                  SBANK=   LOWSUPER
001282: 04,2000                                           SETLOC   VERB37
001283: 04,2000                                           BANK
001284:
001285: 04,2645                                           COUNT*   $$/V37
001286: 04,2645     4776               OCT00010           EQUALS   BIT4
001287: 04,2645           00004        V37XEQ             INHINT
001288: 04,2646           35064                           CAF      PRIO13
001289: 04,2647           55256                           TS       PHSPRDT4                              #  PRESET GROUP4 RESTART PRIORITY
001290: 04,2650           54063        V37XEQ+3           TS       NEWPRIO                               #  STORE PRIO FOR SPVAC
001291: 04,2651           51167                           INDEX    MINDEX
001292: 04,2652           33030                           CAF      PREMM1
001293: 04,2653           55254                           TS       MMTEMP                                #  OBTAIN PRIORITY BITS 15 - 11
001294: 04,2654           00006                           EXTEND
001295: 04,2655           74772                           MP       BIT8
001296: 04,2656           75005                           MASK     LOW3
001297: 04,2657           54001                           TS       L
001298: 04,2660           51167                           INDEX    MINDEX
001299: 04,2661           32764                           CAF      FCADRMM1
001300: 04,2662           55255                           TS       BASETEMP
001301: 04,2663           74344                           MASK     HI5
001302: 04,2664           26001                           ADS      L
001303:
001304: 04,2665           31255                           CA       BASETEMP                              #  OBTAIN GENADR PORTION OF 2CADR.
001305: 04,2666           75053                           MASK     LOW10
001306: 04,2667           64767                           AD       BIT11
001307:
001308: 04,2670           05161                           TC       SPVAC
001309:
001310: 04,2671           31254        V37XEQC            CA       MMTEMP                                #  UPON RETURN FROM FINDVAC PLACE THE
001311: 04,2672           76043                           MASK     LOW7                                  #  NEW MM IN MODREG (THE LOW 7 BITS OF
001312: 04,2673           05362                           TC       NEWMODEA                              #  PHSBRDT1)
001313:
001314: 04,2674           04432                           TC       RELDSP                                #  RELEASE DISPLAY
001315: 04,2675           05220                           TC       ENDOFJOB                              #  AND EXIT
001316:
001317: 04,2676           00004        INITSUB            INHINT
001318: 04,2677           35006                           CAF      ELEVEN                                #  CLEAR INDICATED FLAG BITS
001319: 04,2700           54154        RAKE               TS       MPAC                                  #  LOOP STARTS HERE
001320: 04,2701           50154                           INDEX    MPAC
001321: 04,2702           42741                           CS       FLAGTABL
001322: 04,2703           50154                           INDEX    MPAC
001323: 04,2704           70074                           MASK     FLAGWRD0
001324: 04,2705           50154                           INDEX    MPAC                                  #  RESTORE REVISED FLAGWORD
001325: 04,2706           54074                           TS       FLAGWRD0
001326:
001327: 04,2707           10154                           CCS      MPAC
001328: 04,2710           12700                           TCF      RAKE
001329:
001330: 04,2711           00006        INITSUBA           EXTEND
001331: 04,2712           22155                           QXCH     MPAC       +1
001332:
001333: 04,2713           00004                           INHINT
001334: 04,2714           34775                           CAF      TRACKBIT                              #  BYPASS IF TRACKFLG ON
001335: 04,2715           70075                           MASK     FLAGWRD1
001336: 04,2716           10000                           CCS      A
001337: 04,2717           12733                           TCF      INITRET
001338: 04,2720           04611                           TC       E6SETTER                              #  FOR DB CODE.. STARTSB2 WILL RESET.
001339: 04,2721           04463                           TC       STOPRATE
001340:
001341: 04,2722           30105                           CA       FLAGWRD9                              #  RESTORE DEADBAND
001342: 04,2723           74766                           MASK     MAXDBBIT
001343: 04,2724           10000                           CCS      A
001344: 04,2725           12731                           TCF      SETMAXER                              #  MAX DB SELECTED
001345: 04,2726           04647                           TC       BANKCALL                              #  MIN DB SELECTED
001346: 04,2727           51035                           CADR     SETMINDB
001347: 04,2730           12733                           TCF      INITRET
001348:
001349: 04,2731           04647        SETMAXER           TC       BANKCALL
001350: 04,2732           51057                           CADR     SETMAXDB
001351:
001352: 04,2733           00003        INITRET            RELINT
001353: 04,2734           37702                           CA       NEGONE
001354: 04,2735           55313                           TS       OPTIND
001355: 04,2736           00155                           TC       MPAC       +1                         #  RETURN FROM INITSUB
001356:
001357: 04,2737           02711        INITSUBB           TC       INITSUBA                              #  ENTRANCE USED BY RTB CALL FROM V56
001358: 04,2740           06030                           TC       DANZIG
001359:
001360: 04,2741           17001        FLAGTABL           OCT      17001                                 #  P55.1FLG,P50.1FLG,ATMFLAG,P50FLAG,P29FLAG
001361: 04,2742           00040                           OCT      40                                    #  IDLEFAIL
001362: 04,2743           06404                           OCT      06404                                 #  P21FLAG,STEERSW,IMPULSW,SBFLAG
001363: 04,2744           20400                           OCT      20400                                 #  GLOKFAIL, POOFLAG
001364: 04,2745           00000                           OCT      0
001365: 04,2746           01100                           OCT      01100                                 #  NEWTFLAG,ENGONFLG
001366: 04,2747           10000                           OCT      10000                                 #  STRULLSW
001367: 04,2750           16000                           OCT      16000                                 #  IGNFLAG,ASTNFLAG,TIMRFLAG
001368: 04,2751           00000                           OCT      0
001369: 04,2752           40000                           OCT      40000                                 #  SWTOVER
001370: 04,2753           00000                           OCT      0
001371: 04,2754           00000                           OCT      0
001372:
001373: 20,2000                                           SETLOC   VAC5LOC
001374: 20,2000                                           BANK
001375: 20,2000                                           COUNT*   $$/START
001376: 20,2000           35003        VAC5STOR           CA       ZERO                                  #  INITIALIZE INDEX REGISTERS
001377: 20,2001           54061                           TS       ITEMP1
001378: 20,2002           54062                           TS       ITEMP2
001379:
001380: 20,2003           00006        V5LOOP1            EXTEND                                         #  LOOP TO STORE LOCS, BANKSETS, AND PRIOS.
001381: 20,2004           50061                           INDEX    ITEMP1
001382: 20,2005           30165                           DCA      LOC
001383: 20,2006           50062                           INDEX    ITEMP2
001384: 20,2007           52662                           DXCH     VAC5
001385:
001386: 20,2010           50061                           INDEX    ITEMP1
001387: 20,2011           30167                           CA       PRIORITY
001388: 20,2012           50062                           INDEX    ITEMP2
001389: 20,2013           54663                           TS       VAC5       +2
001390:
001391: 20,2014           40062                           CS       ITEMP2                                #  HAVE WE STORED THEM ALL?
001392: 20,2015           65011                           AD       EIGHTEEN
001393: 20,2016           00006                           EXTEND
001394: 20,2017           12025                           BZF      V5OUT1                                #  YES, GET PHASE INFORMATION.
001395:
001396: 20,2020           35750                           CA       TWELVE                                #  NO, INCREMENT INDEXES AND LOOP.
001397: 20,2021           26061                           ADS      ITEMP1
001398: 20,2022           36214                           CA       THREE
001399: 20,2023           26062                           ADS      ITEMP2
001400: 20,2024           12003                           TCF      V5LOOP1
001401:
001402: 20,2025  E3,1436                                  EBANK=   PHSNAME1
001403: 20,2025           35037        V5OUT1             CA       EBANK3                                #  PHSNAME REGISTERS ARE IN EBANK3.
001404: 20,2026           54003                           TS       EBANK
001405:
001406: 20,2027           35006                           CA       ELEVEN                                #  GET PHASE 2CADRS.
001407: 20,2030           05562                           TC       GENTRAN
001408: 20,2031           01436                           ADRES    PHSNAME1
001409: 20,2032           00706                           ADRES    VAC5       +21D
001410:
001411: 20,2033           35003                           CA       ZERO                                  #  NOW INITIALIZE INDEXES AGAIN.
001412: 20,2034           54061                           TS       ITEMP1
001413: 20,2035           54062                           TS       ITEMP2
001414:
001415: 20,2036           50061        V5LOOP2            INDEX    ITEMP1                                #  LOOP TO GET PHASE TABLES.
001416: 20,2037           31146                           CA       PHASE1
001417: 20,2040           50062                           INDEX    ITEMP2
001418: 20,2041           54722                           TS       VAC5       +33D
001419: 20,2042           40062                           CS       ITEMP2                                #  DO WE HAVE THEM ALL?
001420: 20,2043           65004                           AD       FIVE
001421: 20,2044           00006                           EXTEND
001422: 20,2045           12052                           BZF      V5OUT2                                #  YES, GO FINISH UP.
001423:
001424: 20,2046           35000                           CA       TWO                                   #  NO, INCREMENT INDEXES AND LOOP.
001425: 20,2047           26061                           ADS      ITEMP1
001426: 20,2050           24062                           INCR     ITEMP2
001427: 20,2051           12036                           TCF      V5LOOP2
001428:
001429: 20,2052           30157        V5OUT2             CA       MPAC       +3
001430: 20,2053           54730                           TS       VAC5       +39D
001431:
001432: 20,2054           00006                           EXTEND
001433: 20,2055           30066                           DCA      NEWLOC
001434: 20,2056           52732                           DXCH     VAC5       +40D
001435:
001436: 20,2057           30067                           CA       NEWJOB
001437: 20,2060           54707                           TS       VAC5       +22D
001438:
001439: 20,2061           30063                           CA       NEWPRIO
001440: 20,2062           54713                           TS       VAC5       +26D
001441:
001442: 20,2063           04662                           TC       SWRETURN
001443:
001444: 20,2064     5011               EIGHTEEN           EQUALS   OCT22
001445: 04,2000                                           SETLOC   VERB37
001446: 04,2000                                           BANK
001447:
001448: 04,2755                                           COUNT*   $$/V37
001449: 04,2755     5711               NEG7               EQUALS   OCT77770
001450:
001451: 04,2755           44571        OCT44571           OCT      44571                                 #  CONSTANTS TO CLEAR CHANNEL BITS IN V37
001452: 04,2756           00600        OCT600             OCT      600
001453: 04,2757           00300        BIT7-8             OCT      300
001454: 04,2760           01120        OCT01120           OCT      01120
001455:
001456: 04,2761           10650        V37QCAD            CADR     V37XEQ+3
001457: 04,2762           10160        ROOAD              CADR     DUMMYAD
001458: 04,2763           37312        3.1SEC             OCT      37312                                 #  2.5 + 0.6 SEC
001459:
001460:                                                                                                  #  FOR VERB 37 TWO TABLES ARE MAINTAINED. EACH TABLE HAS AN ENTRY FOR EACH
001461:                                                                                                  #  MAJOR MODE THAT CAN BE STARTED FROM THE KEYBOARD. THE ENTRIES ARE PUT
001462:                                                                                                  #  INTO THE TABLE WITH THE ENTRY FOR THE HIGHEST MAJOR MODE COMING FIRST,
001463:                                                                                                  #  TO THE LOWEST MAJOR MODE WHICH IS THE LAST ENTRY IN EACH TABLE.
001464:
001465:                                                                                                  #  THE FCADRMM TABLE CONTAINS THE FCADR OF THE STARTING JOB OF
001466:                                                                                                  #  THE MAJOR MODE.  FOR EXAMPLE,
001467:
001468:                                                                                                  #        FCADRMM1        FCADR   P79             START OF P 79
001469:                                                                                                  #                        FCADR   PROG18          START OF P 18
001470:                                                                                                  #                        FCADR   P01             START OF P 01
001471:
001472: 04,2764                        FCADRMM1           EQUALS
001473: 04,2764           10610                           FCADR    P88
001474: 04,2765           10602                           FCADR    P87
001475: 04,2766           10572                           FCADR    P86
001476: 04,2767           10565                           FCADR    P85
001477: 04,2770           10560                           FCADR    P84
001478: 04,2771           10553                           FCADR    P83
001479: 04,2772           10546                           FCADR    P82
001480: 04,2773           10541                           FCADR    P81
001481: 04,2774           13172                           FCADR    P77
001482: 04,2775           54170                           FCADR    P62
001483: 04,2776           54103                           FCADR    P61
001484: 04,2777           16312                           FCADR    P55
001485: 04,3000           30002                           FCADR    P54
001486: 04,3001           31255                           FCADR    P53
001487: 04,3002           30002                           FCADR    PROG52
001488: 04,3003           31255                           FCADR    P51
001489: 04,3004           22167                           FCADR    P50
001490: 04,3005           61557                           FCADR    P48CSM
001491: 04,3006           61554                           FCADR    P47CSM
001492: 04,3007           51705                           FCADR    P41CSM
001493: 04,3010           50000                           FCADR    P40CSM
001494: 04,3011           45271                           FCADR    P38
001495: 04,3012           11127                           FCADR    P37
001496: 04,3013           72626                           FCADR    P36
001497: 04,3014           72367                           FCADR    P35
001498: 04,3015           62444                           FCADR    P34
001499: 04,3016           65355                           FCADR    P33
001500: 04,3017           64013                           FCADR    P32
001501: 04,3020           64000                           FCADR    P31
001502: 04,3021           72250                           FCADR    P30
001503: 04,3022           60000                           FCADR    P29
001504: 04,3023           60161                           FCADR    P25CSM
001505: 04,3024           76000                           FCADR    PROG21
001506: 04,3025           74243                           FCADR    PROG20
001507: 04,3026           55320                           FCADR    P06
001508: 04,3027           66001                           FCADR    GTSCPSS1                              #  GYROCOMPASS STANDARD LEAD IN.
001509:
001510:                                                                                                  #           THE PREMM TABLE CONTAINS THE EBANK,MAJOR MODE AND DOWNLINK INFO.
001511:                                                                                                  #  IT IS IN THE FOLLOWING FORMAT
001512:                                                                                                  #           DDD 00E EEM MMM MMM
001513:                                                                                                  #           WHERE THE 7 M BITS CONTAIN THE MAJOR MODE NUMBER
001514:                                                                                                  #                      3 E BITS CONTAIN THE E-BANK NUMBER
001515:                                                                                                  #                      3 D BITS CONTAIN THE DOWNLIST ID
001516:
001517:                                                                                                  #           COAST AND ALIGN LIST =  0
001518:                                                                                                  #           EUTRY LIST           =  1
001519:                                                                                                  #           RENDEZVOUS LIST      =  2
001520:                                                                                                  #           POWERED FLIGHT LIST  =  3
001521:                                                                                                  #           P22 LIST             =  4
001522:
001523:                                                                                                  #           FOR EXAMPLE,
001524:
001525:                                                                                                  #                                                   OCT     21137        DOWNLIST   = 2 (RENDEZVOUS)
001526:                                                                                                  #                                                                        E-BANK     = 4
001527:                                                                                                  #                                                                        MAJOR MODE = 95
001528:
001529:                                                                                                  #                                                   OCT     11476        DOWNLIST   = 1 (ENTRY)
001530:                                                                                                  #                                                                        E-BANK     = 6
001531:                                                                                                  #                                                                        MAFOR MODE = 62
001532:
001533: 04,3030                        PREMM1             EQUALS
001534: 04,3030           21530                           OCT      21530                                 #  MM 88  EBANK 6  DOWNLIST 2
001535: 04,3031           21527                           OCT      21527                                 #  MM 87  EBANK 6  DOWNLIST 2
001536: 04,3032           21526                           OCT      21526                                 #  MM 86  EBANK 6  DOWNLIST 2
001537: 04,3033           21525                           OCT      21525                                 #  MM 85  EBANK 6  DOWNLIST 2
001538: 04,3034           21524                           OCT      21524                                 #  MM 84  EBANK 6  DOWNLIST 2
001539: 04,3035           21523                           OCT      21523                                 #  MM 83  EBANK 6  DOWNLIST 2
001540: 04,3036           21522                           OCT      21522                                 #  MM 82  EBANK 6  DOWNLIST 2
001541: 04,3037           21521                           OCT      21521                                 #  MM 81  EBANK 6  DOWNLIST 2
001542: 04,3040           21715                           OCT      21715                                 #  MM 77  EBANK 7  DOWNLIST 2
001543: 04,3041           11476                           OCT      11476                                 #  MM 62  EBANK 6  DOWNLIST 1
001544: 04,3042           31475                           OCT      31475                                 #  MM 61  EBANK 6  DOWNLIST 3
001545: 04,3043           01667                           OCT      01667                                 #  MM 55  EBANK 7  DOWNLIST 0
001546: 04,3044           01266                           OCT      01266                                 #  MM 54  EBANK 5  DOWNLIST 0
001547: 04,3045           01265                           OCT      01265                                 #  MM 53  EBANK 5  DOWNLIST 0
001548: 04,3046           01264                           OCT      01264                                 #  MM 52  EBANK 5  DOWNLIST 0
001549: 04,3047           01263                           OCT      01263                                 #  MM 51  EBANK 5  DOWNLIST 0
001550: 04,3050           01662                           OCT      01662                                 #  MM 50  EBANK 7  DOWNLIST 0
001551: 04,3051           31460                           OCT      31460                                 #  MM 48  EBANK 6  DOWNLIST 3
001552: 04,3052           31457                           OCT      31457                                 #  MM 47  EBANK 6  DOWNLIST 3
001553: 04,3053           31451                           OCT      31451                                 #  MM 41  EBANK 6  DOWNLIST 3
001554: 04,3054           31450                           OCT      31450                                 #  MM 40  EBANK 6  DOWNLIST 3
001555: 04,3055           21046                           OCT      21046                                 #  MM 38  EBANK 4  DOWNLIST 2
001556: 04,3056           21645                           OCT      21645                                 #  MM 37  EBANK 7  DOWNLIST 2
001557: 04,3057           21044                           OCT      21044                                 #  MM 36  EBANK 4  DOWNLIST 2
001558: 04,3060           21043                           OCT      21043                                 #  MM 35  EBANK 4  DOWNLIST 2
001559: 04,3061           21042                           OCT      21042                                 #  MM 34  EBANK 4  DOWNLIST 2
001560: 04,3062           21041                           OCT      21041                                 #  MM 33  EBANK 4  DOWNLIST 2
001561: 04,3063           21040                           OCT      21040                                 #  MM 32  EBANK 4  DOWNLIST 2
001562: 04,3064           21037                           OCT      21037                                 #  MM 31  EBANK 4  DOWNLIST 2
001563: 04,3065           21636                           OCT      21636                                 #  MM 30  EBANK 7  DOWNLIST 2
001564: 04,3066           21635                           OCT      21635                                 #  MM 29  EBANK 7  DOWNLIST 2
001565: 04,3067           21431                           OCT      21431                                 #  MM 25  EBANK 6  DOWNLIST 2
001566: 04,3070           21025                           OCT      21025                                 #  MM 21  EBANK 4  DOWNLIST 2
001567: 04,3071           21424                           OCT      21424                                 #  MM 20  EBANK 6  DOWNLIST 2
001568: 04,3072           01006                           OCT      01006                                 #  MM 06  EBANK 4  DOWNLIST 0
001569: 04,3073           01201                           OCT      01201                                 #  MM 01  EBANK 5  DOWNLIST 0
001570:
001571:                                                                                                  #  NOTE,    THE FOLLOWING CONSTANT IS THE NUMBER OF ENTRIES IN EACH OF
001572:                                                                                                  #  ----     THE ABOVE LISTS-1 (IE, THE NUMBER OF MAJOR MODES(EXCEPT P00)
001573:                                                                                                  #           THAT CAN BE CALLED FROM THE KEYBOARD MINUS ONE)
001574:
001575: 04,3074                        EPREMM1            EQUALS                                         #  END OF PREMM1 TABLE
001576: 04,3030                                           SETLOC   PREMM1                                #  THIS CODING WILL AUTOMATICALLY CHANGE
001577: 04,3030                        NO.MMS             =MINUS   EPREMM1                               #  THE 'NOV37MM' CONSTANT AS ENTRIES ARE
001578: 04,2000                                           SETLOC   VERB37                                #  INSERTED(IN) OR DELETED(FROM) THE
001579: 04,2000                                           BANK                                           #  'PREMM1' TABLE.
001580:
001581: 04,3074           00043        NOV37MM            ADRES    NO.MMS     -1                         #  ITEMS IN 'PREMM1' TABLE - 1. *DON'T MOVE*
001582:
001583: 04,3075     5003               DNLADP00           =        ZERO
001584:
001585: 17,2000                                           SETLOC   INTINIT3
001586: 17,2000                                           BANK
001587:
001588: 17,2000                                           COUNT*   $$/INTIN
001589:
001590: 17,2000  E3,1554                                  EBANK=   RRECTCSM
001591:
001592: 17,2000           77614        STATEUP            SET                                            #  EXTRAPOLATE CM STATE VECTOR
001593: 17,2001           01474                                    VINTFLAG
001594: 17,2002           45014                           CLEAR    CALL
001595: 17,2003           01667                                    PRECIFLG
001596: 17,2004           11460                                    INTEGRV
001597: 17,2005           77745                           DLOAD
001598: 17,2006           01571                                    TETCSM
001599: 17,2007           34041                           STCALL   TDEC1
001600: 17,2010           11720                                    INTSTALL
001601: 17,2011           45014                           CLEAR    CALL                                  #  EXTRAPOLATE LM STATE VECTOR
001602: 17,2012           01674                                    VINTFLAG
001603: 17,2013           11272                                    SETIFLGS                              #        AND 6X6 W-MATRIX IF VALID
001604: 17,2014           43014                           BOF      SET
001605: 17,2015           02756                                    RENDWFLG                              #        FOR RENDEZVOUS NAVIGATION
001606: 17,2016           36020                                    +2
001607: 17,2017           01476                                    DIM0FLAG
001608: 17,2020           45014                           SET      CALL
001609: 17,2021           01467                                    PRECIFLG
001610: 17,2022           11460                                    INTEGRV
001611: 17,2023           77614        STATEND            CLRGO
001612: 17,2024           01236                                    NODOFLAG
001613: 17,2025           11260                                    ENDINT
001614:
001615:                                                                                                  #  THISVINT IS CALLED BY MIDTOAV1 AND 2
001616:
001617: 17,2026           43414        THISVINT           SET      RVQ
001618: 17,2027           01474                                    VINTFLAG

End of include-file FRESH_START_AND_RESTART.agc.  Parent file is MAIN.agc


