
Source Code


000002:                                                                                                  ## Copyright:   Public domain.
000003:                                                                                                  ## Filename:    GROUND_TRACKING_DETERMINATION_PROGRAM_-_P21.agc
000004:                                                                                                  ## Purpose:     A section of Skylark revision 048.
000005:                                                                                                  ##              It is part of the source code for the Apollo Guidance Computer (AGC)
000006:                                                                                                  ##              for Skylab-2, Skylab-3, Skylab-4, and ASTP. No original listings of
000007:                                                                                                  ##              this software are available; instead, this file was created via
000008:                                                                                                  ##              disassembly of dumps of the core rope modules actually flown on
000009:                                                                                                  ##              Skylab-2. Access to these modules was provided by the New Mexico
000010:                                                                                                  ##              Museum of Space History.
000011:                                                                                                  ## Assembler:   yaYUL
000012:                                                                                                  ## Contact:     Ron Burkey <info@sandroid.org>.
000013:                                                                                                  ## Website:     www.ibiblio.org/apollo/index.html
000014:                                                                                                  ## Mod history: 2023-09-04 MAS  Created from Artemis 072.
000015:                                                                                                  ##              2024-03-04 MAS  Updated for Skylark 48.
000016:
000017:                                                                                                  #  GROUND TRACKING DETERMINATION PROGRAM P21
000018:
000019:                                                                                                  #  PROGRAM DESCRIPTION
000020:                                                                                                  #  MOD NO - 1
000021:                                                                                                  #  MOD BY - N. M. NEVILLE
000022:
000023:                                                                                                  #  FUNCTIONAL DECRIPTION-
000024:
000025:                                                                                                  #        TO PROVIDE THE ASTRONAUT DETAILS OF THE LM OR CSM GROUND TRACK WITHOUT
000026:                                                                                                  #        THE NEED FOR GROUND COMMUNICATION (REQUESTED BY DSKY).
000027:
000028:                                                                                                  #  CALLING SEQUENCE -
000029:
000030:                                                                                                  #        ASTRONAUT REQUEST THROUGH DSKY V37E21E
000031:
000032:                                                                                                  #  SUBROUTINES CALLED-
000033:
000034:                                                                                                  #        GOPERF4
000035:                                                                                                  #        GOFLASH
000036:                                                                                                  #        THISPREC
000037:                                                                                                  #        OTHPREC
000038:                                                                                                  #        LAT-LONG
000039:
000040:                                                                                                  #  NORMAL EXIT MODES-
000041:
000042:                                                                                                  #        ASTRONAUT REQUEST TROUGH DSKY TO TERMINATE PROGRAM V34E
000043:
000044:                                                                                                  #  ALARM OR ABORT EXIT MODES-
000045:                                                                                                  #
000046:                                                                                                  #        NONE
000047:
000048:                                                                                                  #  OUTPUT -
000049:
000050:                                                                                                  #        OCTAL DISPLAY OF OPTION CODE AND VEHICLE WHOSE GROUND TRACK IS TO BE
000051:                                                                                                  #        COMPUTED
000052:                                                                                                  #                OPTION CODE     00002
000053:                                                                                                  #                THIS            00001
000054:                                                                                                  #                OTHER           00002
000055:                                                                                                  #        DECIMAL DISPLAY OF TIME TO BE INTEGRATED TO HOURS , MINUTES , SECONDS
000056:                                                                                                  #        DECIMAL DISPLAY OF LAT,LONG,ALT
000057:
000058:                                                                                                  #  ERASABLE INITIALIZATION REQUIRED
000059:
000060:                                                                                                  #        AX0      2DEC   4.652459653 E-5   RADIANS       %68-69 CONSTANTS"
000061:
000062:                                                                                                  #        -AY0     2DEC   2.147535898 E-5   RADIANS
000063:
000064:                                                                                                  #        AZ0      2DEC   .7753206164       REVOLUTIONS
000065:
000066:                                                                                                  #        NONE
000067:
000068:                                                                                                  #  DEBRIS
000069:
000070:                                                                                                  #        CENTRALS - A,Q,L
000071:                                                                                                  #        OTHER - THOSE USED BY THE ABOVE LISTED SUBROUTINES
000072:                                                                                                  #        SEE LEMPREC,LAT-LONG
000073:
000074: 43,3231  30,2000                                  SBANK=   LOWSUPER                              #  FOR LOW 2CADR'S.
000075:
000076: 37,2000                                           SETLOC   P20S
000077: 37,2000                                           BANK
000078:
000079: 37,2000  E7,1515                                  EBANK=   P21TIME
000080: 37,2000                                           COUNT*   $$/P21
000081: 37,2000           35001        PROG21             CAF      ONE
000082: 37,2001           54771                           TS       OPTION2                               #  ASSUMED VEHICLE IS LM, R2 = 00001
000083: 37,2002           07710                           TC       UPFLAG
000084: 37,2003           00031                           ADRES    TRACKFLG
000085:
000086: 37,2004           35000                           CAF      BIT2                                  #   OPTION 2
000087: 37,2005           04647                           TC       BANKCALL
000088: 37,2006           20754                           CADR     GOPERF4
000089: 37,2007           04103                           TC       GOTOPOOH                              #  TERMINATE
000090: 37,2010           02012                           TC       +2                                    #  PROCEED VALUE OF ASSUMED VEHICLE OK
000091: 37,2011           02004                           TC       -5                                    #  R2 LOADED THROUGH DSKY
000092: 37,2012           35003                           CAF      ZERO                                  #  ZERO DSPTEM
000093: 37,2013           55240                           TS       DSPTEM1
000094: 37,2014           55241                           TS       DSPTEM1    +1
000095: 37,2015           35042        P21PROG1           CAF      V6N34                                 #  LOAD DESIRED TIME OF LAT-LONG.
000096: 37,2016           05550                           TC       VNFLASH
000097: 37,2017           06006                           TC       INTPRET
000098: 37,2020           53145                           DLOAD    BZE
000099: 37,2021           01241                                    DSPTEM1
000100: 37,2022           76140                                    P21PRTM                               #  SET TO INTEG TO PRES TIME
000101: 37,2023           34041        P21PROG2           STCALL   TDEC1                                 #  INTEG TO TIME SPECIFIED IN TDEC
000102: 37,2024           11720                                    INTSTALL
000103: 37,2025           43014                           BON      SET
000104: 37,2026           01303                                    P21FLAG
000105: 37,2027           76045                                    P21CONT                               #  ON...RECYCLE USING BASE VECTOR
000106: 37,2030           01474                                    VINTFLAG                              #  OFF..1ST PASS CALC BASE VECTOR
000107: 37,2031           70535                           SLOAD    SR1
000108: 37,2032           00772                                    OPTION2
000109: 37,2033           43030                           BHIZ     CLEAR
000110: 37,2034           76036                                    +2                                    #  ZERO..THIS VEHICLE (CM)
000111: 37,2035           01674                                    VINTFLAG                              #  ONE...OTHER VEHICLE(LM)
000112: 37,2036           43014                           CLEAR    CLEAR
000113: 37,2037           01676                                    DIM0FLAG
000114: 37,2040           01673                                    INTYPFLG                              #  PRECISION
000115: 37,2041           77624                           CALL
000116: 37,2042           11460                                    INTEGRV                               #  CALCULATE
000117: 37,2043           77650                           GOTO                                           #  .AND
000118: 37,2044           76060                                    P21VSAVE                              #  ..SAVE BASE VECTOR
000119: 37,2045           77775        P21CONT            VLOAD                                          #  RECYCLE..INTEG FROM BASE VECTOR
000120: 37,2046           03520                                    P21BASER
000121: 37,2047           25535                           STOVL    RCV                                   #  ..POS
000122: 37,2050           03526                                    P21BASEV
000123: 37,2051           15543                           STODL    VCV                                   #  ..VEL
000124: 37,2052           03516                                    P21TIME
000125: 37,2053           01517                           STORE    TET                                   #  ..TIME
000126: 37,2054           77614                           CLEAR
000127: 37,2055           01676                                    DIM0FLAG
000128: 37,2056           77624                           CALL
000129: 37,2057           11444                                    INTEGRVS
000130: 37,2060           77745        P21VSAVE           DLOAD                                          #  SAVE CURRENT BASE VECTOR
000131: 37,2061           00015                                    TAT
000132: 37,2062           27516                           STOVL    P21TIME                               #  ..TIME
000133: 37,2063           00017                                    RATT1
000134: 37,2064           27520                           STOVL    P21BASER                              #  ..POS B-29 OR B-27
000135: 37,2065           00025                                    VATT1
000136: 37,2066           03526                           STORE    P21BASEV                              #  ..VEL B-7  OR B-5
000137: 37,2067           77614                           BONCLR                                         #  WITH ADJUSTED P29 BASE TIME, SKIP
000138: 37,2070           02605                                    NEWTFLAG                              #       P29 DISPLAYS
000139: 37,2071           60015                                    HOP29DSP
000140: 37,2072           47014                           BOFF     RTB                                   #  RETURN TO P29 IF P29FLAG IS SET
000141: 37,2073           00356                                    P29FLAG
000142: 37,2074           76076                                    +2
000143: 37,2075           60004                                    LONGPASS
000144: 37,2076           53646                           ABVAL    SL*
000145: 37,2077           57576                                    0,2
000146: 37,2100           27536                           STOVL    P21VEL                                #  /VEL/ FOR N73 DSP
000147: 37,2101           00001                                    RATT
000148: 37,2102           50256                           UNIT     DOT
000149: 37,2103           00007                                    VATT                                  #  U(R).(V)
000150: 37,2104           67471                           DDV      ASIN                                  #  U(R).U(V)
000151: 37,2105           03536                                    P21VEL
000152: 37,2106           03540                           STORE    P21GAM                                #  SIN-1 U(R).U(V), -90 TO +90
000153: 37,2107           77614                           SET
000154: 37,2110           01063                                    P21FLAG
000155: 37,2111           77775        P21DSP             VLOAD                                          #  GENERATE DISPLAY DATA
000156: 37,2112           00001                                    RATT
000157: 37,2113           16054                           STODL    ALPHAV
000158: 37,2114           00015                                    TAT
000159: 37,2115           45014                           CLEAR    CALL
000160: 37,2116           00662                                    ERADFLAG
000161: 37,2117           22461                                    LAT-LONG
000162: 37,2120           77605                           DMP                                            #  MPAC = ALT, METERS B-29
000163: 37,2121           36151                                    K.01
000164: 37,2122           03534                           STORE    P21ALT                                #  ALT/100 FOR N73 DSP
000165: 37,2123           77776                           EXIT
000166: 37,2124           32147                           CAF      V06N43                                #  DISPLAY LAT,LONG,ALT
000167: 37,2125           04647                           TC       BANKCALL                              #  LAT,LONG = REVS B0    BOTH EARTH/MOON
000168: 37,2126           20623                           CADR     GOFLASH                               #  ALT = METERS B-29     BOTH EARTH/MOON
000169: 37,2127           04103                           TC       GOTOPOOH                              #  TERM
000170: 37,2130           04103                           TC       GOTOPOOH
000171: 37,2131           06006                           TC       INTPRET                               #  V32E RECYCLE
000172: 37,2132           43345                           DLOAD    DAD
000173: 37,2133           03516                                    P21TIME
000174: 37,2134           36144                                    600SEC                                #  600 SECONDS OR 10 MIN
000175: 37,2135           01241                           STORE    DSPTEM1
000176: 37,2136           77634                           RTB
000177: 37,2137           76015                                    P21PROG1
000178: 37,2140           52034        P21PRTM            RTB      GOTO
000179: 37,2141           45563                                    LOADTIME
000180: 37,2142           76023                                    P21PROG2
000181: 37,2143           00003 25140  600SEC             2DEC     60000      B-28                       #  10 MIN
000182:
000183: 37,2145           00001        P21ONENN           OCT      00001                                 #  NEEDED TO DETERMINE VEHICLE
000184: 37,2146           00000                           OCT      00000                                 #  TO BE INTEGRATED
000185: 37,2147           01453        V06N43             VN       00643
000186: 37,2150     5042               V6N34              =        V06N34
000187: 37,2150           00243 32703  K.01               2DEC     .01
000188:
000189: 30,2000                                           SETLOC   P29TAG1
000190: 30,2000                                           BANK
000191:
000192: 30,2000                                           COUNT*   $$/P29
000193: 30,2000  E7,1543                                  EBANK=   LONGFOR
000194:
000195: 30,2000           06006        P29                TC       INTPRET                               #  TIME-TO-LONGITUDE PROGRAM
000196: 30,2001           47014                           SET      RTB                                   #  SET=P29,CLEARED=P21--CHECKED IN P21
000197: 30,2002           00076                                    P29FLAG                               #  FLAG ALSO MARKS FIRST PASS THRU P29
000198: 30,2003           76000                                    PROG21                                #  GET BASE TIME + STATE VECTOR FROM P21
000199: 30,2004           32127        LONGPASS           CAF      V06N43LP
000200: 30,2005           05553                           TC       VNFLASHR                              #  ASTRONAUT LOADS DESIRED LONGITUDE
000201: 30,2006           12012                           TCF      +4
000202: 30,2007           35004                           CAF      FIVE                                  #  BLANK R1,R3
000203: 30,2010           05531                           TC       BLANKET
000204: 30,2011           05220                           TC       ENDOFJOB
000205: 30,2012           52744                           DXCH     LONG
000206: 30,2013           53544                           DXCH     LONGFOR                               #  STORE DESIRED LONGITUDE
000207: 30,2014           06006                           TC       INTPRET
000208: 30,2015           65375        HOP29DSP           VLOAD    PDDL                                  #  STORE UNIT NORTH(IN PLANETARY COORDS )
000209: 30,2016           15176                                    UNITZ                                 #       AND BASE TIME ON PUSHLIST FOR
000210: 30,2017           03516                                    P29BASET                              #       RP-TO-R
000211: 30,2020           03542                           STORE    PASSTIME                              #  INITIALIZE TIME OF CROSSING
000212: 30,2021           43125                           PDDL     SET
000213: 30,2022           15204                                    ZEROVECS
000214: 30,2023           00076                                    P29FLAG                               #  IN CASE OF RESTART OR REPEAT INTEGRATION
000215: 30,2024           37546                           STCALL   DELTLONG                              #  INITIALIZE LONGITUDE DIFFERENCE TO ZERO
000216: 30,2025           55213                                    RP-TO-R                               #  GET UNIT PLANETARY NORTH IN BASE COORDS.
000217: 30,2026           41406                           PUSH     PUSH                                  #  PD=12D,MUSUBZ(UNIT PLANETARY NORTH)
000218: 30,2027           53435                           VXV      UNIT
000219: 30,2030           03520                                    P29BASER
000220: 30,2031           27552                           STOVL    MUSUBE                                #  PD=6D,MUSUBE=UNIT LOCAL EAST AT P29BASER
000221: 30,2032           53435                           VXV      UNIT
000222: 30,2033           03552                                    MUSUBE
000223: 30,2034           27560                           STOVL    MUSUBC                                #  UNIT EQUATORIAL CENTRAL-DIRECTED VECTOR
000224: 30,2035           03520                                    P29BASER
000225: 30,2036           53435                           VXV      UNIT                                  #  FORM MUSUBN(UNIT ORBITAL LOCAL NORTH)
000226: 30,2037           03526                                    P29BASEV
000227: 30,2040           41406                           PUSH     PUSH                                  #  PD=18D
000228: 30,2041           53435                           VXV      UNIT
000229: 30,2042           03520                                    P29BASER
000230: 30,2043           27566                           STOVL    MUSUBS                                #  PD=12D,MUSUBS=UNIT ORBITAL TANG. VEL.
000231: 30,2044           63241                           DOT      PDVL                                  #  PD=8D,MUSUBZ AT 0D, EXCHANGE DOT-PRODUCT
000232: 30,2045           00001                                    0D                                    #       WITH MUSUBN IN PUSHLIST
000233: 30,2046           45565                           SIGN     STADR                                 #  PD=6D, PUT MUSUBN IN HEMI. OF MUSUBZ
000234: 30,2047           50203                           STOVL    MUSUBN
000235: 30,2050           03520                                    P29BASER
000236: 30,2051           16054        HOPALONG           STODL    ALPHAV                                #  STORE FOR LAT-LONG
000237: 30,2052           03542                                    PASSTIME
000238: 30,2053           45014                           CLEAR    CALL                                  #  FIND LONGITUDE FOR PRESENT ITERATION OF
000239: 30,2054           00662                                    ERADFLAG                              #       POSITION VECTOR
000240: 30,2055           22461                                    LAT-LONG
000241: 30,2056           45345                           DLOAD    DSU                                   #  COMPARE WITH DESIRED LONGITUDE
000242: 30,2057           03544                                    LONGFOR
000243: 30,2060           00744                                    LONG
000244: 30,2061           51406                           PUSH     ABS                                   #  PD=2D, SAVE DELTA
000245: 30,2062           50025                           DSU      BMN                                   #  IF WITHIN EPSILONG, DISPLAY RESULTS
000246: 30,2063           20122                                    EPSILONG                              #  .01 DEGREES
000247: 30,2064           60102                                    PASSOUT
000248: 30,2065           77600                           BOV                                            #  CLEAR OVERFLOW INDICATOR
000249: 30,2066           60067                                    +1
000250: 30,2067           40015                           DAD      BOV                                   #  CHECK WHETHER WITHIN EPSILON OF 360 DEG.
000251: 30,2070           20124                                    TWICEEPS                              #  .02 DEGREES
000252: 30,2071           60102                                    PASSOUT
000253: 30,2072           71214                           BOFCLR   DLOAD                                 #  P29FLAG CLEARED FOR LATER PASSES
000254: 30,2073           00256                                    P29FLAG                               #  PD=0D
000255: 30,2074           40273                                    MODULO
000256: 30,2075           43244                           BPL      DAD                                   #  MAKE DELTA>0
000257: 30,2076           60100                                    +2
000258: 30,2077           15212                                    DPPOSMAX
000259: 30,2100           77650                           GOTO
000260: 30,2101           40220                                    HOP1
000261: 20,2000                                           SETLOC   P29TAG2
000262: 20,2000                                           BANK
000263:
000264: 20,2220                                           COUNT*   $$/P29
000265: 20,2220           77725        HOP1               PDDL                                           #  PD=2D
000266: 20,2221           20126                                    FEARTH                                #  16/15, B+1
000267: 20,2222           03550        HOP2               STORE    FUDGE
000268: 20,2223           77745        DELTLOAD           DLOAD                                          #  PD=0D, LOAD DELTA
000269: 20,2224           40005        THETCOMP           DMP      BOV
000270: 20,2225           03550                                    FUDGE
000271: 20,2226           40227                                    +1                                    #  CLEAR OVERFLOW INDICATOR
000272: 20,2227           43352                           SL1      DAD                                   #  SHIFT TO GET B0, SINCE FUDGE IS B+1
000273: 20,2230           03546                                    DELTLONG
000274: 20,2231           40006                           PUSH     BOV                                   #  PD=2D, IF FUDGE FACTOR MAKES DELTLONG>
000275: 20,2232           40304                                    ADDTEN                                #       360, MODIFY BASE TIME
000276: 20,2233           03546                           STORE    DELTLONG                              #  CUMULATIVE EQUATORIAL DELTA
000277: 20,2234           74346                           COS      VXSC
000278: 20,2235           03552                                    MUSUBE
000279: 20,2236           73525                           PDDL     SIN                                   #  PD=6D
000280: 20,2237           53361                           VXSC     VAD                                   #  PD=0D
000281: 20,2240           03560                                    MUSUBC                                #  ROTATE MUSUBE THRU ANGLE DELTLONG
000282: 20,2241           53435                           VXV      UNIT                                  #  FORM MUSUBD=ROTATED ORBITAL UNIT
000283: 20,2242           03574                                    MUSUBN                                #       POSITION VECTOR, OUTWARD-DIRECTED
000284: 20,2243           63206                           PUSH     PDVL                                  #  PD=12D
000285: 20,2244           03520                                    P29BASER
000286: 20,2245           50256                           UNIT     DOT                                   #  PD=6D, DOT PRODUCT IS B+2
000287: 20,2246           63352                           SL1      PDVL                                  #  PD=2D, MAKE B+1 FOR ACOS, EXCHANGE
000288: 20,2247           65241                           DOT      PDDL                                  #  PD=2D, EXCHANGE WITH PUSHLIST
000289: 20,2250           03566                                    MUSUBS
000290: 20,2251           75326                           ACOS     SIGN                                  #  PD=0D
000291: 20,2252           73406                           PUSH     SIN                                   #  PD=2D, FORM THETA=ORBITAL DELTA
000292: 20,2253           16724                           STODL    SNTH                                  #  PD=0D
000293: 20,2254           77746                           COS
000294: 20,2255           26726                           STOVL    CSTH                                  #  STORE ANGLE DATA AND BASE STATE VECTOR
000295: 20,2256           03520                                    P29BASER                              #       FOR TIME-THETA
000296: 20,2257           26651                           STOVL    RVEC
000297: 20,2260           03526                                    P29BASEV
000298: 20,2261           02740                           STORE    VVEC
000299: 20,2262           45014                           CLEAR    CALL                                  #  INTEGRATE BASE STATE VECTOR THRU THETA
000300: 20,2263           03666                                    RVSW
000301: 20,2264           25004                                    TIMETHET
000302: 20,2265           43345                           DLOAD    DAD
000303: 20,2266           00037                                    T                                     #  T=TIME TO TRAVERSE THETA
000304: 20,2267           03516                                    P29BASET
000305: 20,2270           27542                           STOVL    PASSTIME                              #  TIME OF LONGITUDE CROSSING
000306: 20,2271           77650                           GOTO                                           #  UPDATED POSITION VECTOR LOADED FOR
000307: 20,2272           60051                                    HOPALONG                              #       LAT-LONG
000308: 20,2273           50025        MODULO             DSU      BMN                                   #  MPAC CONTAINS ABS(DELTA)+EPSILONG
000309: 20,2274           15202                                    DPHALF                                #  IF THIS IS NEAR 360, MUST ADJUST DELTA
000310: 20,2275           40223                                    DELTLOAD                              #       BY 360 TO GET ANGLE NEAR ZERO
000311: 20,2276           77625                           DSU                                            #  TO ADJUST, SUBTRACT DPHALF (TWICE) AND
000312: 20,2277           20122                                    EPSILONG                              #       EPSILONG TO GET NEGATIVE NUMBER,
000313: 20,2300           75225                           DSU      SIGN                                  #       AND SIGN BY UNADJUSTED DIFFERENCE,
000314: 20,2301           15202                                    DPHALF                                #       AT TOP OF PUSHLIST, PD=0D.
000315: 20,2302           77650                           GOTO
000316: 20,2303           40224                                    THETCOMP
000317: 20,2304           43345        ADDTEN             DLOAD    DAD                                   #  ADD 10 MINUTES TO BASE TIME
000318: 20,2305           03516                                    P29BASET
000319: 20,2306           36144                                    600SEC
000320: 20,2307           52014                           SET      GOTO                                  #  SET FLAG TO SKIP DISPLAYS ON RETURN TO
000321: 20,2310           02465                                    NEWTFLAG                              #        P29
000322: 20,2311           76023                                    P21PROG2                              #  GO TO P21 FOR INTEGRATION
000323: 30,2000                                           SETLOC   P29TAG1
000324: 30,2000                                           BANK
000325:
000326: 30,2102                                           COUNT*   $$/P29
000327: 30,2102           77776        PASSOUT            EXIT
000328: 30,2103           53542                           DXCH     PASSTIME
000329: 30,2104           53241                           DXCH     DSPTEM1
000330: 30,2105           35042                           CAF      V06N34LP
000331: 30,2106           04647                           TC       BANKCALL
000332: 30,2107           20623                           CADR     GOFLASH                               #  DISPLAY PASSTIME
000333: 30,2110           04103                           TC       GOTOPOOH
000334: 30,2111           02113                           TC       +2
000335: 30,2112           02004                           TC       LONGPASS                              #  RECYCLE TO LONGITUDE INPUT
000336: 30,2113           32127                           CAF      V06N43LP
000337: 30,2114           04647                           TC       BANKCALL                              #  DISPLAY LAT,LONG,ALT AT DESIRED
000338: 30,2115           20623                           CADR     GOFLASH                               #       LONGITUDE
000339: 30,2116           04103                           TC       GOTOPOOH
000340: 30,2117           04103                           TC       GOTOPOOH
000341: 30,2120           02000                           TC       P29                                   #  RECYCLE TO START OF PROGRAM
000342: 30,2121           00000 16441  EPSILONG           2DEC     .2777778                              #  .01 DEGREES
000343: 30,2123           00000 35101  TWICEEPS           2DEC     .5555556                              #  .02 DEGREES
000344: 30,2125           21042 04211  FEARTH             2DEC     1.06666667 B-01                       #  16/15
000345: 30,2127     5042               V06N34LP           =        V06N34
000346: 30,2127           01453        V06N43LP           VN       0643

End of include-file GROUND_TRACKING_DETERMINATION_PROGRAM_-_P21.agc.  Parent file is MAIN.agc


