
Source Code


000002:                                                                                                  ## Copyright:   Public domain.
000003:                                                                                                  ## Filename:    IMU_COMPENSATION_PACKAGE.agc
000004:                                                                                                  ## Purpose:     A section of Skylark revision 048.
000005:                                                                                                  ##              It is part of the source code for the Apollo Guidance Computer (AGC)
000006:                                                                                                  ##              for Skylab-2, Skylab-3, Skylab-4, and ASTP. No original listings of
000007:                                                                                                  ##              this software are available; instead, this file was created via
000008:                                                                                                  ##              disassembly of dumps of the core rope modules actually flown on
000009:                                                                                                  ##              Skylab-2. Access to these modules was provided by the New Mexico
000010:                                                                                                  ##              Museum of Space History.
000011:                                                                                                  ## Assembler:   yaYUL
000012:                                                                                                  ## Contact:     Ron Burkey <info@sandroid.org>.
000013:                                                                                                  ## Website:     www.ibiblio.org/apollo/index.html
000014:                                                                                                  ## Mod history: 2023-09-04 MAS  Created from Artemis 072.
000015:
000016:
000017: 06,2000                                           SETLOC   IMUCOMP
000018: 06,2000                                           BANK
000019: 06,3273  E3,1460                                  EBANK=   NBDX
000020:
000021: 06,3273                                           COUNT*   $$/ICOMP
000022: 06,3273           33532        1/PIPA             CAF      LGCOMP                                #  SAVE EBANK OF CALLING PROGRAM
000023: 06,3274           56003                           XCH      EBANK
000024: 06,3275           54163                           TS       MODE
000025:
000026: 06,3276           11477                           CCS      GCOMPSW                               #  BYPASS IF GCOMPSW NEGATIVE
000027: 06,3277           13302                           TCF      +3
000028: 06,3300           13302                           TCF      +2
000029: 06,3301           13417                           TCF      IRIG1                                 #  RETURN
000030:
000031: 06,3302           00004                           INHINT                                         #  ASSURE COMPLETE COMPENSATION OF DELV'S
000032:                                                                                                  #  FOR DOWNLINK.
000033:
000034: 06,3303           34777        1/PIPA1            CAF      FOUR                                  #  PIPAZ, PIPAY, PIPAX
000035: 06,3304           77702                 +1        MASK     NEGONE
000036: 06,3305           54132                           TS       BUF        +2
000037:
000038: 06,3306           50132                           INDEX    BUF        +2
000039: 06,3307           31453                           CA       PIPASCF                               #  (P.P.M.) X 2(-9)
000040: 06,3310           00006                           EXTEND
000041: 06,3311           50132                           INDEX    BUF        +2
000042: 06,3312           71304                           MP       DELVX                                 #  (PP) X 2(+14) NOW (PIPA PULSES) X 2(+5)
000043: 06,3313           54002                           TS       Q                                     #  SAVE MAJOR PART
000044:
000045: 06,3314           30001                           CA       L                                     #  MINOR PART
000046: 06,3315           00006                           EXTEND
000047: 06,3316           74774                           MP       BIT6                                  #  SCALE 2(+9)   SHIFT RIGHT 9
000048: 06,3317           50132                           INDEX    BUF        +2
000049: 06,3320           55305                           TS       DELVX      +1                         #  FRACTIONAL PIPA PULSES SCALED 2(+14)
000050:
000051: 06,3321           30002                           CA       Q                                     #  MAJOR PART
000052: 06,3322           00006                           EXTEND
000053: 06,3323           74774                           MP       BIT6                                  #  SCALE 2(+9)   SHIFT RIGHT 9
000054: 06,3324           50132                           INDEX    BUF        +2
000055: 06,3325           21305                           DAS      DELVX                                 #  (PIPAI) + (PIPAI)(SFE)
000056:
000057: 06,3326           50132                           INDEX    BUF        +2
000058: 06,3327           41452                           CS       PIPABIAS                              #  (PIPA PULSES)/(CS) X 2(-6)
000059: 06,3330           00006                           EXTEND
000060: 06,3331           71267                           MP       1/PIPADT                              #  (CS) X 2(+8) NOW (PIPA PULSES) X 2(+2)
000061: 06,3332           00006                           EXTEND
000062: 06,3333           74777                           MP       BIT3                                  #  SCALE 2(+12) SHIFT RIGHT 12
000063: 06,3334           50132                           INDEX    BUF        +2
000064: 06,3335           21305                           DAS      DELVX                                 #  (PIPAI) + (PIPAI)(SFE) - (BIAS)(DELTAT)
000065:
000066: 06,3336           10132                           CCS      BUF        +2                         #  PIPAZ, PIPAY, PIPAX
000067: 06,3337           13304                           TCF      1/PIPA1    +1
000068: 06,3340           00003                           RELINT
000069:
000070: 06,3341           55477        IRIGCOMP           TS       GCOMPSW                               #  INDICATE COMMANDS 2 PULSES OR LESS
000071: 06,3342           54130                           TS       BUF                                   #  INDEX COUNTER - IRIGX, IRIGY, IRIGZ
000072:
000073: 06,3343           00006        IRIGX              EXTEND
000074: 06,3344           41305                           DCS      DELVX                                 #  (PIPA PULSES) X 2(+14)
000075: 06,3345           52155                           DXCH     MPAC
000076: 06,3346           31463                           CA       ADIAX                                 #  (GYRO PULSES)/(PIPA PULSE) X 2(-3)            *
000077: 06,3347           03422                           TC       GCOMPSUB                              #  -(ADIAX)(PIPAX)       (GYRO PULSES) X 2(+14)
000078:
000079: 06,3350           00006                           EXTEND
000080: 06,3351           41307                           DCS      DELVY                                 #  (PIPA PULSES) X 2(+14)
000081: 06,3352           52155                           DXCH     MPAC
000082: 06,3353           41466                           CS       ADSRAX                                #  (GYRO PULSES)/(PIPA PULSE) X 2(-3)            *
000083: 06,3354           03422                           TC       GCOMPSUB                              #  +(ADSRAX)(PIPAY)      (GYRO PULSES) X 2(+14)
000084:
000085:                                                                                                  #                EXTEND                  ***
000086:                                                                                                  #                DCS     DELVZ           *** (PIPA PULSES) X 2(+14)
000087:                                                                                                  #                DXCH    MPAC            ***
000088:                                                                                                  #                CA      ADOAX           *** (GYRO PULSES)/(PIPA PULSE) X 2(-3)  *
000089:                                                                                                  #                TC      GCOMPSUB        *** -(ADOAX)(PIPAZ)     (GYRO PULSES) X 2(+14)
000090:
000091: 06,3355           41460                           CS       NBDX                                  #  (GYRO PULSES)/(CS) X 2(-5)
000092: 06,3356           03451                           TC       DRIFTSUB                              #  -(NBDX)(DELTAT)       (GYRO PULSES) X 2(+14)
000093:
000094: 06,3357           00006        IRIGY              EXTEND
000095: 06,3360           41307                           DCS      DELVY                                 #  (PIPA PULSES) X 2(+14)
000096: 06,3361           52155                           DXCH     MPAC
000097: 06,3362           31464                           CA       ADIAY                                 #  (GYRO PULSES)/(PIPA PULSE) X 2(-3)            *
000098: 06,3363           03422                           TC       GCOMPSUB                              #  -(ADIAY)(PIPAY)       (GYRO PULSES) X 2(+14)
000099:
000100: 06,3364           00006                           EXTEND
000101: 06,3365           41311                           DCS      DELVZ                                 #  (PIPA PULSES) X 2(+14)
000102: 06,3366           52155                           DXCH     MPAC
000103: 06,3367           41467                           CS       ADSRAY                                #  (GYRO PULSES)/(PIPA PULSE) X 2(-3)            *
000104: 06,3370           03422                           TC       GCOMPSUB                              #  +(ADSRAY)(PIPAZ)      (GYRO PULSES) X 2(+14)
000105:
000106:                                                                                                  #                EXTEND                  ***
000107:                                                                                                  #                DCS     DELVX           *** (PIPA PULSES) X 2(+14)
000108:                                                                                                  #                DXCH    MPAC            ***
000109:                                                                                                  #                CA      ADOAY           *** (GYRO PULSES)/(PIPA PULSE) X 2(-3)  *
000110:                                                                                                  #                TC      GCOMPSUB        *** -(ADOAY)(PIPAX)     (GYRO PULSES) X 2(+14)
000111:
000112: 06,3371           41461                           CS       NBDY                                  #  (GYRO PULSES)/(CS) X 2(-5)
000113: 06,3372           03451                           TC       DRIFTSUB                              #  -(NBDY)(DELTAT)       (GYRO PULSES) X 2(+14)
000114:
000115: 06,3373           00006        IRIGZ              EXTEND
000116: 06,3374           41307                           DCS      DELVY                                 #  (PIPA PULSES) X 2(+14)
000117: 06,3375           52155                           DXCH     MPAC
000118: 06,3376           31470                           CA       ADSRAZ                                #  (GYRO PULSES)/(PIPA PULSE) X 2(-3)            *
000119: 06,3377           03422                           TC       GCOMPSUB                              #  -(ADSRAZ)(PIPAY)      (GYRO PULSES) X 2(+14)
000120:
000121: 06,3400           00006                           EXTEND
000122: 06,3401           41311                           DCS      DELVZ                                 #  (PIPA PULSES) X 2(+14)
000123: 06,3402           52155                           DXCH     MPAC
000124: 06,3403           31465                           CA       ADIAZ                                 #  (GYRO PULSES)/(PIPA PULSE) X 2(-3)            *
000125: 06,3404           03422                           TC       GCOMPSUB                              #  -(ADIAZ)(PIPAZ)       (GYRO PULSES) X 2(+14)
000126:
000127:                                                                                                  #                EXTEND                  ***
000128:                                                                                                  #                DCS     DELVX           *** (PIPA PULSE) X 2(+14)
000129:                                                                                                  #                DXCH    MPAC            ***
000130:                                                                                                  #                CS      ADOAZ           *** (GYRO PULSES)/(PIPA PULSE) X 2(-3)  *
000131:                                                                                                  #                TC      GCOMPSUB        *** +(ADOAZ)(PIPAX)     (GYRO PULSES) X 2(+14)
000132:
000133: 06,3405           31462                           CA       NBDZ                                  #  (GYRO PULSES)/(CS) X 2(-5)
000134: 06,3406           03451                           TC       DRIFTSUB                              #  +(NBDZ)(DELTAT)       (GYRO PULSES) X 2(+14)
000135:
000136: 06,3407           11477                           CCS      GCOMPSW                               #  ARE GYRO COMMANDS GREATER THAN 2 PULSES
000137: 06,3410           13412                           TCF      +2                                    #  YES
000138: 06,3411           13417                           TCF      IRIG1                                 #  NO
000139:
000140: 06,3412           35072                           CA       PRIO21                                #  HIGHER THAN SERVICER-LESS THAN PRELAUNCH
000141: 06,3413           05134                           TC       NOVAC
000142: 06,3414  E3,1460                                  EBANK=   NBDX
000143: 06,3414           03504 14063                     2CADR    1/CHECK
000144:
000145: 06,3416           00003                           RELINT
000146: 06,3417           30163        IRIG1              CA       MODE                                  #  SET EBANK FOR RETURN
000147: 06,3420           54003                           TS       EBANK
000148: 06,3421           14662                           TCF      SWRETURN
000149:
000150: 06,3422           56154        GCOMPSUB           XCH      MPAC                                  #  ADIA OR ADSRA COEFFICIENT ARRIVES IN A
000151: 06,3423           00006                           EXTEND                                         #  C(MPAC) = (PIPA PULSES) X 2(+14)
000152: 06,3424           70154                           MP       MPAC                                  #  (GYRO PULSES)/(PIPA PULSE) X 2(-3)            *
000153: 06,3425           52123                           DXCH     VBUF                                  #  NOW = (GYRO PULSES) X 2(+11)                  *
000154:
000155: 06,3426           30155                           CA       MPAC       +1                         #  MINOR PART PIPA PULSES
000156: 06,3427           00006                           EXTEND
000157: 06,3430           70154                           MP       MPAC                                  #  ADIA OR ADSRA
000158: 06,3431           54001                           TS       L
000159: 06,3432           35003                           CAF      ZERO
000160: 06,3433           20123                           DAS      VBUF                                  #  NOW = (GYRO PULSES) X 2(+11)                  *
000161:
000162: 06,3434           30122                           CA       VBUF                                  #  PARTIAL RESULT - MAJOR
000163: 06,3435           00006                           EXTEND
000164: 06,3436           74766                           MP       BIT12                                 #  SCALE 2(+3)   SHIFT RIGHT 3                   *
000165: 06,3437           50130                           INDEX    BUF                                   #  RESULT = (GYRO PULSES) X 2(+14)
000166: 06,3440           21472                           DAS      GCOMP                                 #  HI(ADIA)(PIPAI)  OR  HI(ADSRA)(PIPAI)
000167:
000168: 06,3441           30123                           CA       VBUF       +1                         #  PARTIAL RESULT - MINOR
000169: 06,3442           00006                           EXTEND
000170: 06,3443           74766                           MP       BIT12                                 #  SCALE 2(+3)   SHIFT RIGHT 3                   *
000171: 06,3444           54001                           TS       L
000172: 06,3445           35003                           CAF      ZERO
000173: 06,3446           50130                           INDEX    BUF                                   #  RESULT = (GYRO PULSES) X 2(+14)
000174: 06,3447           21472                           DAS      GCOMP                                 #  (ADIA)(PIPAI)  OR  (ADSRA)(PIPAI)
000175:
000176: 06,3450           00002                           TC       Q
000177:
000178: 06,3451           00006        DRIFTSUB           EXTEND
000179: 06,3452           22131                           QXCH     BUF        +1
000180:
000181: 06,3453           00006                           EXTEND                                         #  C(A) = NBD    (GYRO PULSES)/(CS) X 2(-5)
000182: 06,3454           71267                           MP       1/PIPADT                              #  (CS) X 2(+8)   NOW (GYRO PULSES) X 2(+3)
000183: 06,3455           22155                           LXCH     MPAC       +1                         #  SAVE FOR FRACTIONAL COMPENSATION
000184: 06,3456           00006                           EXTEND
000185: 06,3457           74776                           MP       BIT4                                  #  SCALE 2(+11)          SHIFT RIGHT 11
000186: 06,3460           50130                           INDEX    BUF
000187: 06,3461           21472                           DAS      GCOMP                                 #  HI(NBD)(DELTAT)       (GYRO PULSES) X 2(+14)
000188:
000189: 06,3462           30155                           CA       MPAC       +1                         #  NOW MINOR PART
000190: 06,3463           00006                           EXTEND
000191: 06,3464           74776                           MP       BIT4                                  #  SCALE 2(+11)          SHIFT RIGHT 11
000192: 06,3465           54001                           TS       L
000193: 06,3466           35003                           CAF      ZERO
000194: 06,3467           50130                           INDEX    BUF                                   #  ADD IN FRACTIONAL COMPENSATION
000195: 06,3470           21472                           DAS      GCOMP                                 #  (NBD)(DELTAT)         (GYRO PULSES) X 2(+14)
000196:
000197: 06,3471           35000        DRFTSUB2           CAF      TWO                                   #  PIPAX, PIPAY, PIPAZ
000198: 06,3472           60130                           AD       BUF
000199: 06,3473           56130                           XCH      BUF
000200: 06,3474           50000                           INDEX    A
000201: 06,3475           11471                           CCS      GCOMP                                 #  ARE GYRO COMMANDS 1 PULSE OR GREATER
000202: 06,3476           13500                           TCF      +2                                    #  YES
000203: 06,3477           00131                           TC       BUF        +1                         #  NO
000204:
000205: 06,3500           77702                           MASK     NEGONE
000206: 06,3501           10000                           CCS      A                                     #  ARE GYRO COMMANDS GREATER THAN 2 PULSES
000207: 06,3502           55477                           TS       GCOMPSW                               #  YES - SET GCOMPSW POSITIVE
000208: 06,3503           00131                           TC       BUF        +1                         #  NO
000209:
000210: 06,3504           31325        1/CHECK            CA       MODECADR
000211: 06,3505           00006                           EXTEND
000212: 06,3506           13510                           BZF      1/GYRO
000213: 06,3507           15220                           TCF      ENDOFJOB
000214:
000215: 06,3510           34777        1/GYRO             CAF      FOUR                                  #  PIPAZ, PIPAY, PIPAX
000216: 06,3511           54130                 +1        TS       BUF
000217:
000218: 06,3512           50130                           INDEX    BUF                                   #  SCALE GYRO COMMANDS FOR IMUPULSE
000219: 06,3513           31472                           CA       GCOMP      +1                         #  FRACTIONAL PULSES
000220: 06,3514           00006                           EXTEND
000221: 06,3515           74772                           MP       BIT8                                  #  SHIFT RIGHT 7
000222: 06,3516           50130                           INDEX    BUF
000223: 06,3517           55472                           TS       GCOMP      +1                         #  FRACTIONAL PULSES SCALED
000224:
000225: 06,3520           35003                           CAF      ZERO                                  #  SET GCOMP = 0 FOR DAS INSTRUCTION
000226: 06,3521           50130                           INDEX    BUF
000227: 06,3522           57471                           XCH      GCOMP                                 #  GYRO PULSES
000228: 06,3523           00006                           EXTEND
000229: 06,3524           74772                           MP       BIT8                                  #  SHIFT RIGHT 7
000230: 06,3525           50130                           INDEX    BUF
000231: 06,3526           21472                           DAS      GCOMP                                 #  ADD THESE TO FRACTIONAL PULSES ABOVE
000232:
000233: 06,3527           10130                           CCS      BUF                                   #  PIPAZ, PIPAY, PIPAX
000234: 06,3530           67702                           AD       NEG1
000235: 06,3531           13511                           TCF      1/GYRO     +1
000236: 06,3532           01471        LGCOMP             ECADR    GCOMP                                 #  LESS THAN ZERO IMPOSSIBLE
000237:
000238: 06,3533           33532                           CAF      LGCOMP
000239: 06,3534           04647                           TC       BANKCALL
000240: 06,3535           17175                           CADR     IMUPULSE                              #  CALL GYRO TORQUING ROUTINE
000241: 06,3536           04647                           TC       BANKCALL
000242: 06,3537           17575                           CADR     IMUSTALL                              #  WAIT FOR PULSES TO GET OUT
000243: 06,3540           13541                           TCF      +1
000244:
000245: 06,3541           34777        GCOMP1             CAF      FOUR                                  #  PIPAZ, PIPAY, PIPAX
000246: 06,3542           54130                 +1        TS       BUF
000247:
000248: 06,3543           50130                           INDEX    BUF                                   #  RESCALE
000249: 06,3544           31472                           CA       GCOMP      +1
000250: 06,3545           00006                           EXTEND
000251: 06,3546           74772                           MP       BIT8                                  #  SHIFT MINOR PART LEFT 7 - MAJOR PART = 0
000252: 06,3547           50130                           INDEX    BUF
000253: 06,3550           23472                           LXCH     GCOMP      +1                         #  BITS 8-14 OF MINOR PART WERE = 0
000254:
000255: 06,3551           10130                           CCS      BUF                                   #  PIPAZ, PIPAY, PIPAX
000256: 06,3552           67702                           AD       NEG1
000257: 06,3553           13542                           TCF      GCOMP1     +1
000258: 06,3554           75252        OCT75252           OCT      75252                                 #  -15 DEGREES USED BY T4RUPT
000259: 06,3555           15220                           TCF      ENDOFJOB
000260:
000261: 06,3556           11477        NBDONLY            CCS      GCOMPSW                               #  BYPASS IF GCOMPSW NEGATIVE
000262: 06,3557           13562                           TCF      +3
000263: 06,3560           13562                           TCF      +2
000264: 06,3561           15220                           TCF      ENDOFJOB
000265:
000266: 06,3562           00004                           INHINT
000267: 06,3563           30076                           CA       FLAGWRD2
000268: 06,3564           74763                           MASK     DRFTBIT
000269: 06,3565           00006                           EXTEND
000270: 06,3566           15220                           BZF      ENDOFJOB
000271:
000272: 06,3567           30025                           CA       TIME1                                 #  (CS) X 2(+14)
000273: 06,3570           57267                           XCH      1/PIPADT                              #  PREVIOUS TIME
000274: 06,3571           00003                           RELINT
000275: 06,3572           40000                           COM
000276: 06,3573           61267                           AD       1/PIPADT
000277: 06,3574           10000        NBD2               CCS      A                                     #  CALCULATE ELAPSED TIME
000278: 06,3575           65001                           AD       ONE                                   #  NO TIME1 OVERFLOW
000279: 06,3576           13603                           TCF      NBD3                                  #  RESTORE TIME DIFFERENCE AND JUMP
000280: 06,3577           13601                           TCF      +2                                    #  TIME1 OVERFLOW
000281: 06,3600           15220                           TCF      ENDOFJOB                              #  IF ELAPSED TIME = 0 (DIFFERENCE = -0)
000282:
000283: 06,3601           40000                           COM                                            #  CALCULATE ABSOLUTE DIFFERENCE
000284: 06,3602           64761                           AD       POSMAX
000285:
000286: 06,3603           00006        NBD3               EXTEND                                         #  C(A) = DELTAT         (CS) X 2(+14)
000287: 06,3604           74770                           MP       BIT10                                 #  SHIFT RIGHT 5
000288: 06,3605           52123                           DXCH     VBUF
000289: 06,3606           00006                           EXTEND
000290: 06,3607           30123                           DCA      VBUF
000291: 06,3610           52155                           DXCH     MPAC                                  #  DELTAT NOW SCALED (CS) X 2(+19)
000292:
000293: 06,3611           35003                           CAF      ZERO
000294: 06,3612           55477                           TS       GCOMPSW                               #  INDICATE COMMANDS 2 PULSES OR LESS
000295: 06,3613           54130                           TS       BUF                                   #  PIPAX, PIPAY, PIPAZ
000296:
000297: 06,3614           41460                           CS       NBDX                                  #  (GYRO PULSES)/(CS) X 2(-5)
000298: 06,3615           03633                           TC       FBIASSUB                              #  -(NBDX)(DELTAT)       (GYRO PULSES) X 2(+14)
000299:
000300: 06,3616           00006                           EXTEND
000301: 06,3617           40123                           DCS      VBUF
000302: 06,3620           52155                           DXCH     MPAC                                  #  DELTAT SCALED (CS) X 2(+19)
000303: 06,3621           31461                           CA       NBDY                                  #  (GYRO PULSES)/(CS) X 2(-5)
000304: 06,3622           03633                           TC       FBIASSUB                              #  -(NBDY)(DELTAT)       (GYRO PULSES) X 2(+14)
000305:
000306: 06,3623           00006                           EXTEND
000307: 06,3624           40123                           DCS      VBUF
000308: 06,3625           52155                           DXCH     MPAC                                  #  DELTAT SCALED (CS) X 2(+19)
000309: 06,3626           41462                           CS       NBDZ                                  #  (GYRO PULSES)/(CS) X 2(-5)
000310: 06,3627           03633                           TC       FBIASSUB                              #  +(NBDZ)(DELTAT)       (GYRO PULSES) X 2(+14)
000311: 06,3630           11477                           CCS      GCOMPSW                               #  ARE GYRO COMMANDS GREATER THAN 2 PULSES
000312: 06,3631           13510                           TCF      1/GYRO                                #  YES
000313: 06,3632           15220                           TCF      ENDOFJOB                              #  NO
000314:
000315: 06,3633           56002        FBIASSUB           XCH      Q
000316: 06,3634           54131                           TS       BUF        +1
000317:
000318: 06,3635           30002                           CA       Q                                     #  NBD SCALED (GYRO PULSES)/(CS) X 2(-5)
000319: 06,3636           00006                           EXTEND
000320: 06,3637           70154                           MP       MPAC                                  #  DELTAT SCALED (CS) X 2(+19)
000321: 06,3640           50130                           INDEX    BUF
000322: 06,3641           21472                           DAS      GCOMP                                 #  HI(NBD)(DELTAT)       (GYRO PULSES) X 2(+14)
000323:
000324: 06,3642           30002                           CA       Q                                     #  NOW FRACTIONAL PART
000325: 06,3643           00006                           EXTEND
000326: 06,3644           70155                           MP       MPAC       +1
000327: 06,3645           54001                           TS       L
000328: 06,3646           35003                           CAF      ZERO
000329: 06,3647           50130                           INDEX    BUF
000330: 06,3650           21472                           DAS      GCOMP                                 #  (NBD)(DELTAT)         (GYRO PULSES) X 2(+14)
000331:
000332: 06,3651           13471                           TCF      DRFTSUB2                              #  CHECK MAGNITUDE OF COMPENSATION
000333:
000334: 06,3652           04647        LASTBIAS           TC       BANKCALL
000335: 06,3653           17145                           CADR     PIPUSE
000336:
000337: 06,3654           11477                           CCS      GCOMPSW                               #  BYPASS IF GCOMPSW NEGATIVE
000338: 06,3655           13660                           TCF      +3
000339: 06,3656           13660                           TCF      +2
000340: 06,3657           15220                           TCF      ENDOFJOB
000341:
000342: 06,3660           37652                           CAF      PRIO31                                #  2 SECONDS SCALED (CS) X 2(+8)
000343: 06,3661           57267                           XCH      1/PIPADT
000344: 06,3662           40000                           COM
000345: 06,3663           61077                           AD       PIPTIME1   +1                         #  TIME AT PIPA1 =0
000346: 06,3664           13574                           TCF      NBD2
000347:
000348: 06,3665           21450        90SECS             DEC      9000       B-14
000349: 06,3666           16037        20DEGS             DEC      7199       B-14

End of include-file IMU_COMPENSATION_PACKAGE.agc.  Parent file is MAIN.agc


