
Source Code


000002:                                                                                                  ## Copyright:   Public domain.
000003:                                                                                                  ## Filename:    IMU_CALIBRATION_AND_ALIGNMENT.agc
000004:                                                                                                  ## Purpose:     A section of Skylark revision 048.
000005:                                                                                                  ##              It is part of the source code for the Apollo Guidance Computer (AGC)
000006:                                                                                                  ##              for Skylab-2, Skylab-3, Skylab-4, and ASTP. No original listings of
000007:                                                                                                  ##              this software are available; instead, this file was created via
000008:                                                                                                  ##              disassembly of dumps of the core rope modules actually flown on
000009:                                                                                                  ##              Skylab-2. Access to these modules was provided by the New Mexico
000010:                                                                                                  ##              Museum of Space History.
000011:                                                                                                  ## Assembler:   yaYUL
000012:                                                                                                  ## Contact:     Ron Burkey <info@sandroid.org>.
000013:                                                                                                  ## Website:     www.ibiblio.org/apollo/index.html
000014:                                                                                                  ## Mod history: 2023-09-04 MAS  Created from Artemis 072.
000015:
000016:
000017:                                                                                                  #  NAME- IMU PERFORMANCE TESTS 2
000018:
000019:                                                                                                  #  DATE- MARCH 20,1967
000020:
000021:                                                                                                  #  BY- SYSTEM TEST GROUP 864-6900 EXT. 1274
000022:
000023:                                                                                                  #  MODNO.- ZERO
000024:
000025:                                                                                                  #  FUNCTIONAL DESCRIPTION
000026:
000027:                                                                                                  #  POSITIONING ROUTINES FOR THE IMU PERFORMANCE TESTS AS WELL AS SOME OF
000028:                                                                                                  #  THE TESTS THEMSELVES. FOR A DESCRIPTION OF THESE SUBROUTINES AND THE
000029:                                                                                                  #  OPERATING PROCEDURES (TYPICALLY) SEE STG MEMO 685. THEORETICAL REF. E-1973
000030:
000031: 33,2000                                           SETLOC   IMUCAL
000032: 33,2000                                           BANK
000033:
000034: 33,2002  E5,1423                                  EBANK=   POSITON
000035: 33,2002                                           COUNT*   $$/COMST
000036: 33,2002           04647        GEOIMUTT           TC       BANKCALL                              #  GYROCOMPASS COMES IN HERE
000037: 33,2003           16560                           CADR     IMUZERO
000038: 33,2004           02126                           TC       IMUSTLLG
000039: 33,2005           35003        IMUBACK            CA       ZERO
000040: 33,2006           55421                           TS       NDXCTR
000041: 33,2007           55450                           TS       TORQNDX
000042: 33,2010           55451                           TS       TORQNDX    +1
000043: 33,2011           34352        NBPOSPL            CA       DEC17
000044: 33,2012           55655                           TS       ZERONDX1
000045: 33,2013           32240                           CA       XNBADR
000046: 33,2014           02134                           TC       ZEROING
000047: 33,2015           34764                           CA       HALF
000048: 33,2016           55702                           TS       XNB
000049: 33,2017           06006                           TC       INTPRET
000050: 33,2020           73545                           DLOAD    SIN
000051: 33,2021           02401                                    AZIMUTH
000052: 33,2022           02713                           STORE    YNB        +2
000053: 33,2023           16723                           STODL    ZNB        +4
000054: 33,2024           02401                                    AZIMUTH
000055: 33,2025           77746                           COS
000056: 33,2026           02715                           STORE    YNB        +4
000057: 33,2027           77676                           DCOMP
000058: 33,2030           02721                           STORE    ZNB        +2
000059: 33,2031           77776                           EXIT
000060: 33,2032           05367                           TC       CHECKMM
000061: 33,2033           00003                           MM       03         B-14                       #  SEE IF IN OPTICAL VERIFICATION
000062: 33,2034           12036                           TCF      +2                                    #  NO
000063: 33,2035           13236                           TCF      SETNBPOS   +1                         #  YES
000064: 33,2036           06006                           TC       INTPRET
000065: 33,2037           77624                           CALL
000066: 33,2040           47303                                    CALCGA
000067: 33,2041           77776                           EXIT
000068: 33,2042           04647                           TC       BANKCALL
000069: 33,2043           16655                           CADR     IMUCOARS
000070: 33,2044           34764                           CAF      GLOKFBIT                              #  IF GLOKFAIL SET, GIMBAL LOCK
000071: 33,2045           70077                           MASK     FLAGWRD3
000072: 33,2046           00006                           EXTEND
000073: 33,2047           12051                           BZF      +2
000074: 33,2050           25421                           INCR     NDXCTR                                #  +1 IF IN GIMBAL LOCK, OTHERWISE 0
000075: 33,2051           07722                           TC       DOWNFLAG                              #  RESET GIMBAL LOCK FLAG
000076: 33,2052           00056                           ADRES    GLOKFAIL                              #  BIT 14 FLAG 3
000077: 33,2053           02126                           TC       IMUSTLLG
000078: 33,2054           11421                           CCS      NDXCTR                                #  IF ONE GO AND DO A PIPA TEST ONLY
000079: 33,2055           02103                           TC       PIPACHK                               #  ALIGN AND MEASURE VERTICAL PIPA RATE
000080: 33,2056           04647                           TC       BANKCALL
000081: 33,2057           17064                           CADR     IMUFINE
000082: 33,2060           02126                           TC       IMUSTLLG
000083: 33,2061           00006                           EXTEND
000084: 33,2062           31657                           DCA      PERFDLAY
000085: 33,2063           05345                           TC       LONGCALL
000086: 33,2064  E5,1423                                  EBANK=   POSITON
000087: 33,2064           02070 66065                     2CADR    GOESTIMS
000088:
000089: 33,2066           32073                           CA       ESTICADR
000090: 33,2067           05176                           TC       JOBSLEEP
000091: 33,2070           32073        GOESTIMS           CA       ESTICADR
000092: 33,2071           05202                           TC       JOBWAKE
000093: 33,2072           05327                           TC       TASKOVER
000094: 33,2073           66246        ESTICADR           CADR     ESTIMS
000095:
000096: 33,2074           35003        TORQUE             CA       ZERO
000097: 33,2075           55243                           TS       DSPTEM2
000098: 33,2076           31514                           CA       DRIFTI
000099: 33,2077           55244                           TS       DSPTEM2    +1
000100: 33,2100           51423                           INDEX    POSITON
000101: 33,2101           55430                           TS       SOUTHDR    -1
000102: 33,2102           02224                           TC       SHOW
000103:
000104: 33,2103           34767        PIPACHK            CA       EBANK4
000105: 33,2104           54003                           TS       EBANK
000106: 33,2105  E4,1400                                  EBANK=   ERASPIP
000107: 33,2105           01400                           TC       ERASPIP
000108: 33,2106  E5,1512                                  EBANK=   DRIFTO
000109: 33,2106           31512        VALMIS             CA       DRIFTO
000110: 33,2107           55244                           TS       DSPTEM2    +1
000111: 33,2110           35003                           CA       ZERO
000112: 33,2111           55243                           TS       DSPTEM2
000113: 33,2112           02224                           TC       SHOW
000114:
000115: 33,2113           07722        ENDTEST1           TC       DOWNFLAG                              #  IMU NOT IN USE
000116: 33,2114           00007                           ADRES    IMUSE                                 #  BIT 8 FLAG 0
000117: 33,2115           45003                           CS       ZERO
000118: 33,2116           05362                           TC       NEWMODEA
000119: 33,2117           04647                           TC       BANKCALL
000120: 33,2120           16057                           CADR     MKRELEAS
000121: 33,2121           05537                           TC       ENDEXT
000122: 33,2122           43215        OVERFFIX           DAD      DAD
000123: 33,2123           15212                                    DPPOSMAX
000124: 33,2124           26707                                    ONEDPP
000125: 33,2125           77616                           RVQ
000126:
000127: 33,2126           00006        IMUSTLLG           EXTEND
000128: 33,2127           23425                           QXCH     QPLACE
000129: 33,2130           04647                           TC       BANKCALL
000130: 33,2131           17575                           CADR     IMUSTALL
000131: 33,2132           02674                           TC       SOMERR2
000132: 33,2133           01425                           TC       QPLACE
000133: 33,2134           54001        ZEROING            TS       L
000134: 33,2135           12137                           TCF      +2
000135: 33,2136           55655        ZEROING1           TS       ZERONDX1
000136: 33,2137           35003                           CAF      ZERO
000137: 33,2140           50001                           INDEX    L
000138: 33,2141           54000                           TS       0
000139: 33,2142           24001                           INCR     L
000140: 33,2143           11655                           CCS      ZERONDX1
000141: 33,2144           12136                           TCF      ZEROING1
000142: 33,2145           00002                           TC       Q
000143:
000144: 33,2000                                           SETLOC   IMUCAL3
000145: 33,2000                                           BANK
000146: 33,2146                                           COUNT*   $$/COMST
000147: 33,2146           65345        ERTHRVSE           DLOAD    PDDL
000148: 33,2147           26702                                    SCHZEROS                              #  PD24 = (SIN           -COS    0)(OMEG/MS)
000149: 33,2150           02403                                    LATITUDE
000150: 33,2151           57546                           COS      DCOMP
000151: 33,2152           73525                           PDDL     SIN
000152: 33,2153           02403                                    LATITUDE
000153: 33,2154           74266                           VDEF     VXSC
000154: 33,2155           26243                                    OMEG/MS
000155: 33,2156           02405                           STORE    ERVECTOR
000156: 33,2157           77634                           RTB
000157: 33,2160           45563                                    LOADTIME
000158: 33,2161           26443                           STOVL    TMARK
000159: 33,2162           26702                                    SCHZEROS
000160: 33,2163           02650                           STORE    ERCOMP1
000161: 33,2164           77616                           RVQ
000162: 33,2000                                           SETLOC   IMUCAL
000163: 33,2000                                           BANK
000164: 33,2165                                           COUNT*   $$/COMST
000165: 33,2165           47020        EARTHR             ITA      RTB                                   #  CALCULATES AND COMPENSATES EARTH RATE
000166: 33,2166           00051                                    S2
000167: 33,2167           45563                                    LOADTIME
000168: 33,2170           02441                 +3        STORE    TEMPTIME
000169: 33,2171           51025                           DSU      BPL
000170: 33,2172           02443                                    TMARK
000171: 33,2173           66176                                    ERTHR
000172: 33,2174           77624                           CALL
000173: 33,2175           66122                                    OVERFFIX
000174: 33,2176           74261        ERTHR              SL       VXSC
000175: 33,2177           20212                                    9D
000176: 33,2200           02405                                    ERVECTOR
000177: 33,2201           53321                           MXV      VAD
000178: 33,2202           02661                                    XSM
000179: 33,2203           02650                                    ERCOMP1
000180: 33,2204           16650                           STODL    ERCOMP1
000181: 33,2205           02441                                    TEMPTIME
000182: 33,2206           02443                           STORE    TMARK
000183: 33,2207           47170                           AXT,1    RTB
000184: 33,2210           02647                           ECADR    ERCOMP1
000185: 33,2211           45703                                    PULSEIMU
000186: 33,2212           77650                           GOTO
000187: 33,2213           00051                                    S2
000188: 33,2214           00006        EARTHR*            EXTEND
000189: 33,2215           23426                           QXCH     QPLACES
000190: 33,2216           06006                           TC       INTPRET
000191: 33,2217           77624                           CALL
000192: 33,2220           66165                                    EARTHR
000193: 33,2221           77776        PROUT              EXIT
000194: 33,2222           02126                           TC       IMUSTLLG
000195: 33,2223           01426                           TC       QPLACES
000196: 33,2224           00006        SHOW               EXTEND
000197: 33,2225           23425                           QXCH     QPLACE
000198: 33,2226           31423        SHOW1              CA       POSITON
000199: 33,2227           55245                           TS       DSPTEM2    +2
000200: 33,2230           32236                           CA       VB06N98
000201: 33,2231           04647                           TC       BANKCALL
000202: 33,2232           20623                           CADR     GOFLASH
000203: 33,2233           02113                           TC       ENDTEST1                              #  V34
000204: 33,2234           01425                           TC       QPLACE                                #  V33
000205: 33,2235           12226                           TCF      SHOW1
000206:
000207:
000208: 33,2236  33,2242               3990DEC            =        OMEG/MS
000209: 33,2236           01542        VB06N98            VN       0698
000210: 33,2237     4352               DEC17              =        ND1
000211: 33,2237           02757        OGCPL              ECADR    OGC
000212: 33,2240     5030               1SECX              =        1SEC
000213: 33,2240     4351               DEC57              =        VD1
000214: 33,2240           01702        XNBADR             GENADR   XNB
000215: 33,2241           01660        XSMADR             GENADR   XSM
000216: 33,2242           07623 26552  OMEG/MS            2DEC     .24339048
000217:
000218:
000219: 33,2244           04647        P11OUT             TC       BANKCALL
000220: 33,2245           70115                           CADR     MATRXJOB                              #  RETURN TO P11
000221:
000222:    4000                                           SETLOC   FFTAG1
000223:    4000                                           BANK
000224:
000225:    4527                                           COUNT*   $$/COMST
000226:    4527           00004        FINETIME           INHINT                                         #  RETURNS WITH INTERRUPT INHIBITED
000227:    4530           00006                 +1        EXTEND
000228:    4531           00004                           READ     LOSCALAR
000229:    4532           54001                           TS       L
000230:    4533           00006                           EXTEND
000231:    4534           06004                           RXOR     LOSCALAR
000232:    4535           00006                           EXTEND
000233:    4536           14542                           BZF      +4
000234:    4537           00006                           EXTEND
000235:    4540           00004                           READ     LOSCALAR
000236:    4541           54001                           TS       L
000237:    4542           44761                 +4        CS       POSMAX
000238:    4543           60001                           AD       L
000239:    4544           00006                           EXTEND
000240:    4545           14530                           BZF      FINETIME   +1
000241:    4546           00006                           EXTEND
000242:    4547           00003                           READ     HISCALAR
000243:    4550           00002                           TC       Q
000244:
000245:
000246:                                                                                                  #  PROGRAM NAME-  OPTIMUM PRELAUNCH ALIGNMENT CALIBRATION
000247:                                                                                                  #  DATE- NOVEMBER 2  1966
000248:                                                                                                  #  BY- GEORGE SCHMIDT IL 7-146 EXT. 126
000249:                                                                                                  #  MOD NO 3
000250:
000251:                                                                                                  #  FUNCTIONAL DESCRIPTION
000252:
000253:                                                                                                  #  THIS SECTION CONSISTS OF PRELAUNCH ALIGNMENT AND GYRO DRIFT TESTS
000254:                                                                                                  #  INTEGRATED TOGETHER TO SAVE WORDS. COMPASS IS COMPLETELY RESTART
000255:                                                                                                  #  PROOFED EXCEPT FOR THE FIRST 30 SECONDS OR SO. PERFORMANCE TESTS OF
000256:                                                                                                  #  THE IRIGS IS RESTART PROOFED ENOUGH TO GIVE 75 PERCENT CONFIDENCE THAT
000257:                                                                                                  #  IF A RESTART OCCURS THE DATA WILL STILL BE GOOD. GOOD PRACTICE TO RECYCL
000258:                                                                                                  #  WHEN A RESTART OCCURS UNLESS IT HAPPENS NEAR THE END OF A TEST - THEN WAIT
000259:                                                                                                  #  FOR THE DATA TO FLASH.
000260:
000261:                                                                                                  #  A RESTART IN GYROCOMPASS DURING GYRO TORQUING CAUSES PULSES TO BE LOST
000262:                                                                                                  #  THE PRELAUNCH ALIGNMENT TECHNIQUE IS BASICALLY THE SAME AS IN BLOCK 1
000263:                                                                                                  #  EXCEPT THAT IT HAS BEEN SIMPLIFIED IN THE SENSE THAT SMALL ANGLE APPROX.
000264:                                                                                                  #  HAVE BEEN USED. THE DRIFT TESTS USE A UNIQUE IMPLEMENTATION OF THE
000265:                                                                                                  #  OPTIMUM STATISTICAL FILTER. FOR A DESCRIPTION SEE E-1973. BOTH OF THESE
000266:                                                                                                  #  ROUTINES USE STANDARD SYSTEM TEST LEADIN PROCEDURES. THE INITIALIZATION
000267:                                                                                                  #  PROCEDURE FOR THE DRIFT TESTS IS IN THE JDC S. THE INITIALIZATION METHOD
000268:                                                                                                  #  FOR GYROCOMPASS IS AN ERAS LOAD THEN A MISSION PHASE CALL.
000269:                                                                                                  #  THE COMPASS ALIGNS TO Z DOWN, X DOWNRANGE, HAS THE CAPABILITY
000270:                                                                                                  #  CHANGE AZIMUTH WHILE RUNNING, IS COMPENSATED FOR
000271:                                                                                                  #  COMPONENT ERRORS, IS CAPABLE OF OPTICAL VERIFICATION (CSM ONLY).
000272:
000273:                                                                                                  #  COMPASS ERASABLE LOAD REQUIRED
000274:
000275:                                                                                                  #  1- LAUNCHAZ -DP AZIMUTH IN REV FROM NORTH OF XSM DESIRED      (NOM=.2)
000276:                                                                                                  #  2- LATITUDE -DP-OF LAUNCH PAD
000277:                                                                                                  #  3- AZIMUTH-DP-OF ZNB OF VEHICLE
000278:                                                                                                  #  4- IMU COMPENSATION PARAMETERS
000279:                                                                                                  #  5- AZ AND ELEVATION OF TARGETS 1,2            ****OPTIONAL****
000280:
000281:                                                                                                  #  TO PERFORM AS PART OF COMPASS
000282:
000283:                                                                                                  #  1-OPTICAL VERIFICATION- V 65 E
000284:                                                                                                  #  2-AZIMUTH CHANGE- V 78 E
000285:
000286:                                                                                                  #  SUBROUTINES CALLED
000287:
000288:                                                                                                  #  DURING OPTICAL VERIFICATION (CSM ONLY) ESSENTIALLY ALL OF INFLIGHT ALIGN
000289:                                                                                                  #  IS CALLED IN ONE WAY OR ANOTHER. SEE THE LISTING.
000290:
000291:                                                                                                  #  NORMAL EXIT
000292:
000293:                                                                                                  #  DRIFT TESTS- LENGTHOT GOES TO ZERO-RETURN TO IMU PERF TEST2 CONTROL
000294:                                                                                                  #  GYROCOMPASS-MANY,SEE THE LISTING
000295:
000296:                                                                                                  #  ALARMS
000297:
000298:                                                                                                  #  1600     OVERFLOW IN DRIFT TEST
000299:                                                                                                  #  1601     BAD IMU TORQUE ABORT
000300:                                                                                                  #  1602     BAD OPTICS DURING VERIFICATION-RETURN TO COMPASS     CSM ONLY
000301:
000302:                                                                                                  #  OUTPUT
000303:
000304:                                                                                                  #  DRIFT TESTS- FLASHING DISPLAYS OF RESULTS-CONTROLLED IN IMU PERF TESTS 2
000305:                                                                                                  #  COMPASS-PROGRAM MODE LIGHTS TELL YOU WHAT PHASE OF PROGRAM YOU ARE IN
000306:                                                                                                  #     01    INITIALIZING THE PLATFORM POSITION AND ERASABLE
000307:                                                                                                  #     02    GYROCOMPASSING
000308:                                                                                                  #     03    DOING OPTICAL VERIFICATION (CSM)
000309:
000310:
000311:                                                                                                  #  DEBRIS
000312:
000313:                                                                                                  #  ALL CENTRALS,ALL OF EBANK XSM
000314:
000315:                                                                                                  #  MOST OF THE ROUTINES COMMON TO ALIGNMENT AND CALIBRATION APPEAR
000316:                                                                                                  #  ON THE NEXT FEW PAGES.
000317:
000318:    4551  E5,1660                                  EBANK=   XSM
000319: 33,2000                                           SETLOC   IMUCAL
000320: 33,2000                                           BANK
000321:
000322: 33,2246                                           COUNT*   $$/P02
000323: 33,2246           05375        ESTIMS             TC       2PHSCHNG                              #  COMES HERE FROM IMU2
000324: 33,2247           00075                           OCT      00075
000325: 33,2250           00004                           OCT      00004                                 #  TURN OFF GROUP 4 IF ON
000326: 33,2251  01,2261               5P7SPT1            =        5.7SPOT
000327: 33,2251           00004        RSTGTS1            INHINT                                         #  COMES HERE PHASE1 RESTART
000328: 33,2252           30025                           CA       TIME1
000329: 33,2253           55645                           TS       GTSWTLT1
000330: 33,2254           35003                           CAF      ZERO                                  #  ZERO THE PIPAS
000331: 33,2255           54037                           TS       PIPAX
000332: 33,2256           54040                           TS       PIPAY
000333: 33,2257           54041                           TS       PIPAZ
000334: 33,2260           00003                           RELINT
000335: 33,2261           32720                           CA       77DECML                               #  ZERO ALL NECESSARY LOCATIONS
000336: 33,2262           55655                           TS       ZERONDX1
000337: 33,2263           32721                           CA       ALXXXZ
000338: 33,2264           02134                           TC       ZEROING
000339: 33,2265           06006                           TC       INTPRET
000340: 33,2266           77735                           SLOAD
000341: 33,2267           26702                                    SCHZEROS
000342: 33,2270           25477                           STOVL    GCOMPSW    -1
000343: 33,2271           26713                                    INTVAL     +2                         #  LOAD SOME INITIAL DRIFT GAINS
000344: 33,2272           26455                           STOVL    ALX1S
000345: 33,2273           26702                                    SCHZEROS
000346: 33,2274           01472                           STORE    GCOMP
000347: 33,2275           01305                           STORE    DELVX                                 #  GCOMPZER SUBROUTINE NO LONGER NEEDED
000348: 33,2276           77776                           EXIT
000349:
000350: 33,2277           11643                           CCS      GEOCOMP1                              #  NON ZERO IF COMPASS.
000351: 33,2300           02302                           TC       +2
000352: 33,2301           02316                           TC       SLEEPIE    +1
000353: 33,2302           06006                           TC       INTPRET
000354: 33,2303           77624                           CALL
000355: 33,2304           66146                                    ERTHRVSE
000356: 33,2305           77776                           EXIT
000357: 33,2306           31412                           CA       LENGTHOT                              #  TIMES FIVE IS THE NUM OF SEC ERECTING
000358: 33,2307           55646                           TS       ERECTIME
000359:
000360: 33,2310           05357                           TC       NEWMODEX
000361: 33,2311           00002                           MM       02         B-14
000362: 33,2312           04647                           TC       BANKCALL                              #  SET UP PIPA FAIL TO CAUSE ISS ALARM
000363: 33,2313           17145                           CADR     PIPUSE                                #  COMPASS NEVER TURNS THIS OFF
000364: 33,2314           03176                           TC       ANNNNNN                               #  END OF FIRST TIME THROUGH
000365:
000366:                                                                                                  #  COMES HERE AT THE END OF EVERY ITERATION THROUGH DRIFT TEST OR COMPASS
000367:
000368:                                                                                                  #  SET UP WAITLIST SECTION
000369: 33,2315           55412        SLEEPIE            TS       LENGTHOT                              #  TEST NOT OVER-DECREMENT LENGTHOT
000370: 33,2316           05415                 +1        TC       PHASCHNG                              #  CHANGE PHASE
000371: 33,2317           00135                           OCT      00135
000372: 33,2320  01,2267               5P13SPT1           =        5.13SPOT
000373: 33,2320           11450                           CCS      TORQNDX                               #  ARE WE DOING VERTDRIFT
000374: 33,2321           02214                           TC       EARTHR*                               #  TRUE TORQUE SOUTH GYRO
000375: 33,2322           03201        WTLISTNT           TC       CHKCOMED                              #  SEE IF COMPASS OVER
000376: 33,2323           02325                           TC       SETGWLST
000377: 33,2324           05220                           TC       ENDOFJOB
000378:
000379: 33,2325           00006        SETGWLST           EXTEND
000380: 33,2326           22154                           QXCH     MPAC                                  #  CALLED EVERY WAITLIST OR AZIMUTH CHANGE
000381: 33,2327           00004                           INHINT
000382: 33,2330           40025                           CS       TIME1
000383: 33,2331           61645                           AD       GTSWTLT1
000384: 33,2332           00006                           EXTEND
000385: 33,2333           62335                           BZMF     +2
000386: 33,2334           64763                           AD       NEGMAX                                #  10 MS ERROR OK
000387: 33,2335           61644                           AD       1SECXT1                               #  1 SEC FOR CALIBRATION, .5 SEC IN COMPASS
000388: 33,2336           00006                           EXTEND
000389: 33,2337           62343                           BZMF     RIGHTGTS
000390: 33,2340           05236        WTGTSMPL           TC       TWIDDLE
000391: 33,2341           02367                           ADRES    ALLOOP
000392: 33,2342           00154                           TC       MPAC
000393: 33,2343           34777        RIGHTGTS           CAF      FOUR                                  #  SET UP NEXT WAITLIST-ALLOW SOME TIME
000394: 33,2344           02340                           TC       WTGTSMPL                              #  END OF WAITLIST SECTION
000395:
000396:                                                                                                  #  STORE AND LOAD DATA SECTIONS FOR RESTART PROOFING
000397:
000398: 33,2345     4125               25DECML            EQUALS   OCT31
000399: 33,2345           34125        STOREDTA           CAF      25DECML
000400: 33,2346           54154                 +1        TS       MPAC
000401: 33,2347           50154                           INDEX    MPAC
000402: 33,2350           31460                           CAE      THETAX1
000403: 33,2351           50154                           INDEX    MPAC
000404: 33,2352           55577                           TS       RESTARPT
000405: 33,2353           10154                           CCS      MPAC
000406: 33,2354           12346                           TCF      STOREDTA   +1
000407: 33,2355           00002                           TC       Q
000408:
000409: 33,2356           34125        LOADSTDT           CAF      25DECML
000410: 33,2357           54154                 +1        TS       MPAC
000411: 33,2360           50154                           INDEX    MPAC
000412: 33,2361           31577                           CA       RESTARPT
000413: 33,2362           50154                           INDEX    MPAC
000414: 33,2363           55460                           TS       THETAX1
000415: 33,2364           10154                           CCS      MPAC
000416: 33,2365           12357                           TCF      LOADSTDT   +1
000417: 33,2366           00002                           TC       Q
000418:
000419:                                                                                                  #  COMES HERE EVERY ITERATION BY A WAITLIST CALL SET IN SLEEPIE
000420:
000421: 33,2367           30025        ALLOOP             CA       TIME1
000422: 33,2370           55645                           TS       GTSWTLT1                              #  STORE TIME TO SET UP NEXT WAITLIST.
000423: 33,2371           31540        ALLOOP3            CA       ALTIM
000424: 33,2372           55631                           TS       GEOSAVE1
000425: 33,2373           05415                           TC       PHASCHNG
000426: 33,2374           00115                           OCT      00115
000427: 33,2375  01,2264               5P11SPT1           =        5.11SPOT
000428: 33,2375           31631        ALLOOP1            CAE      GEOSAVE1
000429: 33,2376           55540                           TS       ALTIM
000430: 33,2377           10000                           CCS      A
000431: 33,2400           30000                           CA       A                                     #  SHOULD NEVER HIT THIS LOCATION
000432: 33,2401           55541                           TS       ALTIMS
000433: 33,2402           40000                           CS       A
000434: 33,2403           55540                           TS       ALTIM
000435: 33,2404           35003                           CAF      ZERO
000436: 33,2405           56037                           XCH      PIPAX
000437: 33,2406           55304                           TS       DELVX
000438: 33,2407           35003                           CAF      ZERO
000439: 33,2410           56040                           XCH      PIPAY
000440: 33,2411           55306                           TS       DELVY
000441: 33,2412           35003                           CAF      ZERO
000442: 33,2413           56041                           XCH      PIPAZ
000443: 33,2414           55310                           TS       DELVZ
000444: 33,2415           34351                           CAF      19DECML                               #  23 OCT
000445: 33,2416           04126                           TC       NEWPHASE
000446: 33,2417           00005                           OCT      00005
000447: 33,2420  01,2303               5P23SPT1           =        5.23SPOT
000448: 33,2420           37644        SPECSTS            CAF      PRIO22
000449: 33,2421           05150                           TC       FINDVAC
000450: 33,2422  E5,1631                                  EBANK=   GEOSAVE1
000451: 33,2422           02425 66065                     2CADR    ALFLT                                 #  START THE JOB
000452:
000453: 33,2424           05327                           TC       TASKOVER
000454:
000455:                                                                                                  #  THIS IS PART OF THE JOB DONE EVERY ITERATION
000456:
000457: 33,2425           02345        ALFLT              TC       STOREDTA                              #  STORE DATA IN CASE OF RESTART IN JOB
000458: 33,2426           05415                           TC       PHASCHNG                              #  THIS IS THE JOB DONE EVERY ITERATION
000459: 33,2427           00215                           OCT      00215
000460: 33,2430  01,2300               5P21SPT1           =        5.21SPOT
000461: 33,2430           12432                           TCF      +2
000462: 33,2431           02356        ALFLT1             TC       LOADSTDT                              #  COMES HERE ON RESTART
000463:
000464: 33,2432           11643                           CCS      GEOCOMP1
000465: 33,2433           02435                           TC       +2
000466: 33,2434           02440                           TC       NORMLOP
000467: 33,2435           03201                           TC       CHKCOMED                              #  SEE IF PRELAUNCH OVER
000468: 33,2436           04647                           TC       BANKCALL                              #  COMPENSATION IF IN COMPASS
000469: 33,2437           15273                           CADR     1/PIPA
000470:
000471: 33,2440           06006        NORMLOP            TC       INTPRET
000472: 33,2441           77745                           DLOAD
000473: 33,2442           26711                                    INTVAL
000474: 33,2443           24051                           STOVL    S1
000475: 33,2444           01305                                    DELVX
000476: 33,2445           76505                           VXM      VSL1
000477: 33,2446           02661                                    XSM
000478: 33,2447           57545                           DLOAD    DCOMP
000479: 33,2450           00160                                    MPAC       +3
000480: 33,2451           16533                           STODL    DPIPAY
000481: 33,2452           00162                                    MPAC       +5
000482: 33,2453           02537                           STORE    DPIPAZ
000483:
000484: 33,2454           76001                           SETPD    AXT,1
000485: 33,2455           00001                                    0
000486: 33,2456           00010                                    8D
000487: 33,2457           57535                           SLOAD    DCOMP
000488: 33,2460           02644                                    GEOCOMP1
000489: 33,2461           77640                           BMN
000490: 33,2462           67003                                    ALWAYSG                               #  DO A QUICK COMPASS
000491:
000492:                                                                                                  #  NOW WE HAVE JUST THE CALIBRATION PARTS OF THE PROGRAM-NEXT PAGES
000493:
000494: 33,2463                                           COUNT*   $$/COMST
000495: 33,2463           50135        ALCGKK             SLOAD    BMN
000496: 33,2464           02542                                    ALTIMS
000497: 33,2465           66500                                    ALFLT3                                #  NO NEW GAINS NEEDED
000498: 33,2466           72174        ALKCG              AXT,2    LXA,1                                 #  LOADS SLOPES AND TIME CONSTANTS AT RQST
000499: 33,2467           00014                                    12D
000500: 33,2470           02454                                    ALX1S
000501: 33,2471           62143        ALKCG2             DLOAD*   INCR,1
000502: 33,2472           02243                                    ALFDK      +144D,1
000503: 33,2473           77775                           DEC      -2         B-14
000504: 33,2474           12555                           STORE    ALDK       +10D,2
000505: 33,2475           66104                           TIX,2    SXA,1
000506: 33,2476           66471                                    ALKCG2
000507: 33,2477           02454                                    ALX1S
000508:
000509: 33,2500           77770        ALFLT3             AXT,1                                          #  MEASUREMENT INCORPORATION ROUTINES
000510: 33,2501           00010                                    8D                                    #  AND GAIN UPDATES
000511: 33,2502           41343        DELMLP             DLOAD*   DMP
000512: 33,2503           02543                                    DPIPAY     +8D,1
000513: 33,2504           27446                                    PIPASC
000514: 33,2505           43661                           SLR      BDSU*
000515: 33,2506           21212                                    9D
000516: 33,2507           02511                                    INTY       +8D,1
000517: 33,2510           06511                           STORE    INTY       +8D,1
000518: 33,2511           40725                           PDDL     DMP*
000519: 33,2512           27450                                    VELSC
000520: 33,2513           02531                                    VLAUN      +8D,1
000521: 33,2514           77732                           SL2R
000522: 33,2515           45425                           DSU      STADR
000523: 33,2516           71206                           STORE    DELM       +8D,1
000524: 33,2517           06573                           STORE    DELM       +10D,1
000525: 33,2520           77100                           TIX,1    AXT,2
000526: 33,2521           66502                                    DELMLP
000527: 33,2522           00004                                    4
000528: 33,2523           56743        ALILP              DLOAD*   DMPR*
000529: 33,2524           75314                                    ALK        +4,2
000530: 33,2525           75230                                    ALDK       +4,2
000531: 33,2526           12463                           STORE    ALK        +4,2
000532: 33,2527           77104                           TIX,2    AXT,2
000533: 33,2530           66523                                    ALILP
000534: 33,2531           00010                                    8D
000535: 33,2532           66140        ALKLP              LXC,1    SXA,1
000536: 33,2533           02455                                    CMPX1
000537: 33,2534           02455                                    CMPX1
000538: 33,2535           56743                           DLOAD*   DMPR*
000539: 33,2536           02460                                    ALK        +1,1
000540: 33,2537           75206                                    DELM       +8D,2
000541: 33,2540           77613                           DAD*
000542: 33,2541           75266                                    INTY       +8D,2
000543: 33,2542           12511                           STORE    INTY       +8D,2
000544: 33,2543           42743                           DLOAD*   DAD*
000545: 33,2544           75304                                    ALK        +12D,2
000546: 33,2545           75220                                    ALDK       +12D,2
000547: 33,2546           12473                           STORE    ALK        +12D,2
000548: 33,2547           42673                           DMPR*    DAD*
000549: 33,2550           75206                                    DELM       +8D,2
000550: 33,2551           75256                                    INTY       +16D,2
000551: 33,2552           12521                           STORE    INTY       +16D,2
000552: 33,2553           40743                           DLOAD*   DMP*
000553: 33,2554           27453                                    ALSK       +1,1
000554: 33,2555           75206                                    DELM       +8D,2
000555: 33,2556           42772                           SL1R     DAD*
000556: 33,2557           75246                                    VLAUN      +8D,2
000557: 33,2560           12531                           STORE    VLAUN      +8D,2
000558: 33,2561           76104                           TIX,2    AXT,1
000559: 33,2562           66532                                    ALKLP
000560: 33,2563           00010                                    8D
000561:
000562: 33,2564           64743        LOOSE              DLOAD*   PDDL*                                 #  EXTRAPOLATE SWAY VARIABLES
000563: 33,2565           02533                                    ACCWD      +8D,1
000564: 33,2566           02531                                    VLAUN      +8D,1
000565: 33,2567           55523                           PDDL*    VDEF
000566: 33,2570           02541                                    POSNV      +8D,1
000567: 33,2571           76521                           MXV      VSL1
000568: 33,2572           02001                                    TRANSM1
000569: 33,2573           77745                           DLOAD
000570: 33,2574           00155                                    MPAC
000571: 33,2575           06541                           STORE    POSNV      +8D,1
000572: 33,2576           77745                           DLOAD
000573: 33,2577           00160                                    MPAC       +3
000574: 33,2600           06531                           STORE    VLAUN      +8D,1
000575: 33,2601           77745                           DLOAD
000576: 33,2602           00162                                    MPAC       +5
000577: 33,2603           06533                           STORE    ACCWD      +8D,1
000578: 33,2604           77700                           TIX,1
000579: 33,2605           66564                                    LOOSE
000580:
000581: 33,2606           76174                           AXT,2    AXT,1                                 #  EVALUATE SINES AND COSINES
000582: 33,2607           00006                                    6
000583: 33,2610           00002                                    2
000584: 33,2611           57343        BOOP               DLOAD*   DMPR
000585: 33,2612           02513                                    ANGX       +2,1
000586: 33,2613           27456                                    GEORGEJ
000587: 33,2614           77722                           SR2R
000588: 33,2615           73406                           PUSH     SIN
000589: 33,2616           56072                           SL3R     XAD,1
000590: 33,2617           00046                                    X1
000591: 33,2620           10021                           STORE    16D,2
000592: 33,2621           77745                           DLOAD
000593: 33,2622           77746                           COS
000594: 33,2623           10027                           STORE    22D,2                                 #  COSINES
000595: 33,2624           77704                           TIX,2
000596: 33,2625           66611                                    BOOP
000597: 33,2626           77776        PERFERAS           EXIT
000598: 33,2627           04606                           TC       E7SETTER
000599: 33,2630  E7,1400                                  EBANK=   LAT(SPL)
000600: 33,2630           01400                           TC       LAT(SPL)                              #  GO TO ERASABLE ONLY TO RETURN
000601:
000602:                                                                                                  #        CAUTION
000603:
000604:                                                                                                  #  THE ERASABLE PROGRAM THAT DOES THE CALCULATIONS MUST BE LOADED
000605:                                                                                                  #  BEFORE ANY ATTEMPT IS MADE TO RUN THE IMU PERFORMANCE TEST
000606:
000607: 33,2631  E5,1412                                  EBANK=   LENGTHOT
000608: 33,2631           11412        ONCEMORE           CCS      LENGTHOT
000609: 33,2632           02315                           TC       SLEEPIE                               #  TEST NOT OVER SET UP NEXT WAITLIST
000610:
000611: 33,2633           11450                           CCS      TORQNDX
000612: 33,2634           12636                           TCF      +2
000613: 33,2635           02640                           TC       SETUPER1
000614: 33,2636           30032                           CA       CDUX
000615: 33,2637           55414                           TS       LOSVEC     +1                         #  FOR TROUBLESHOOTING POSNS 2$4 VD
000616: 33,2640           06006        SETUPER1           TC       INTPRET                               #  DRIFT TEST OVER
000617: 33,2641           65345                           DLOAD    PDDL                                  #  ANGLES FROM DRIFT TEST ONLY
000618: 33,2642           02503                                    ANGZ
000619: 33,2643           02507                                    ANGY
000620: 33,2644           55525                           PDDL     VDEF
000621: 33,2645           02511                                    ANGX
000622: 33,2646           74276                           VCOMP    VXSC
000623: 33,2647           27456                                    GEORGEJ
000624: 33,2650           74521                           MXV      VSR1
000625: 33,2651           02661                                    XSM
000626: 33,2652           02760                           STORE    OGC
000627: 33,2653           77776                           EXIT
000628:
000629: 33,2654           05415        TORQINCH           TC       PHASCHNG
000630: 33,2655           00005                           OCT      00005
000631: 33,2656           32237                           CA       OGCPL
000632: 33,2657           04647                           TC       BANKCALL
000633: 33,2660           17175                           CADR     IMUPULSE
000634: 33,2661           02126                           TC       IMUSTLLG
000635: 33,2662           11450                           CCS      TORQNDX                               #  + IF IN VERTICAL DRIFT TEST
000636: 33,2663           02106                           TC       VALMIS                                #  VERT DRIFT TEST OVER
000637: 33,2664           06006                           TC       INTPRET
000638: 33,2665           77624                           CALL                                           #  SET UP ERATE FOR PIP TEST OR COMPASS
000639: 33,2666           66146                                    ERTHRVSE
000640: 33,2667           77776                           EXIT
000641: 33,2670           02074                           TC       TORQUE                                #  GO TO IMU2 FOR A PIPA TEST AND DISPLAY
000642:
000643:
000644: 33,2671           05644        SOMEERRR           TC       ALARM
000645: 33,2672           01600                           OCT      1600
000646: 33,2673           02676                           TC       +3
000647: 33,2674           05644        SOMERR2            TC       ALARM
000648: 33,2675           01601                           OCT      1601
000649: 33,2676           05415                           TC       PHASCHNG
000650: 33,2677           00005                           OCT      00005
000651: 33,2700           02113                           TC       ENDTEST1
000652:
000653:
000654:                                                                                                  #  THE FAMOUS MAGIC NUMBERS OF SCHMIDT ARE NOW PART OF AN ERASABLE LOAD.
000655:
000656:
000657: 33,2701           00000 00000  SCHZEROS           2DEC     .00000000
000658: 33,2703           00000 00000                     2DEC     .00000000
000659: 33,2705           00000                           OCT      00000
000660: 33,2706           00000        ONEDPP             OCT      00000
000661: 33,2707           00001                 +1        OCT      00001                                 #  ABOVE ORDER IS IMPORTANT
000662:
000663: 33,2710           00004        INTVAL             OCT      4
000664: 33,2711           00002                           OCT      2
000665: 33,2712           00220                           DEC      144        B-14
000666: 33,2713           77776                           DEC      -1         B-14
000667: 33,2714           35730 00035  SOUPLY             2DEC     .93505870                             #  INITIAL GAINS FOR PIP OUTPUTS
000668: 33,2716           10317 17550                     2DEC     .26266423                             #  INITIAL GAINS/4 FOR ERECTION ANGLES
000669:
000670:
000671: 33,2720           00115        77DECML            DEC      77         B-14
000672: 33,2721           01453        ALXXXZ             GENADR   ALX1S      -1
000673:
000674:                                                                                                  #  GYROCOMPASS PORTIONS FINISH THIS LOG SECTION
000675:
000676: 33,2722                                           COUNT*   $$/P01
000677:
000678:                                                                                                  #  INITIALIZATION SECTION
000679:
000680: 33,2722           30075        GTSCPSS            CA       FLAGWRD1                              #  CALLED BY V37
000681: 33,2723           74766                           MASK     NOP01BIT
000682: 33,2724           00006                           EXTEND
000683: 33,2725           12730                           BZF      GTSCPSSA
000684: 33,2726           05701                           TC       POODOO
000685: 33,2727           21521                           OCT      21521                                 #  NO DO ALARM FOR P01 - P11 ALREADY DONE
000686: 33,2730           34764        GTSCPSSA           CAF      PRIO20                                #  INITIAL PRIORITY ONLY 13
000687: 33,2731           05211                           TC       PRIOCHNG                              #  CHANGE TO 20
000688:
000689: 33,2732           35001                           CAF      ONE
000690: 33,2733           55643                           TS       GEOCOMP1                              #  THIS IS THE LEAD IN FOR COMPASS.
000691: 33,2734           33230                           CA       1/PIPAGT
000692: 33,2735           55267                           TS       1/PIPADT
000693: 33,2736           34772        NXXTBNN            CA       BIT8
000694: 33,2737           55412                           TS       LENGTHOT
000695: 33,2740           35023                           CAF      1/2SECX                               #  COMPASS IS A .5 SEC LOOP
000696: 33,2741           55644                           TS       1SECXT1
000697: 33,2742           35001                           CAF      ONE
000698: 33,2743           55632                           TS       PREMTRX1
000699: 33,2744           55657                           TS       PERFDLAY   +1
000700: 33,2745           35003                           CAF      ZERO
000701: 33,2746           55656                           TS       PERFDLAY
000702: 33,2747           00006                           EXTEND
000703: 33,2750           31634                           DCA      LUNCHAZ1
000704: 33,2751           53636                           DXCH     NEWAZ1
000705: 33,2752           00006                           EXTEND
000706: 33,2753           31634                           DCA      LUNCHAZ1
000707: 33,2754           53640                           DXCH     OLDAZMTH
000708: 33,2755           34352        SETUPGC            CA       DEC17
000709: 33,2756           55655                           TS       ZERONDX1
000710: 33,2757           32241                           CA       XSMADR
000711: 33,2760           02134                           TC       ZEROING
000712: 33,2761           02763                           TC       POSN17C
000713: 33,2762           02002                           TC       GEOIMUTT                              #  GO TO IMU2 FOR FURTHER INITIALIZATION
000714:
000715:
000716: 33,2763           00006        POSN17C            EXTEND                                         #  COMPASS POSITION Z DOWN,X DOWNRANGE
000717: 33,2764           23425                           QXCH     QPLACE                                #  FROM NORTH IN REVOLUTIONS + CLOCKWSE
000718: 33,2765           44764                           CS       HALF                                  #  ALL THIS TO INITIALIZE MATRIX
000719: 33,2766           55674                           TS       ZSM
000720: 33,2767           06006                           TC       INTPRET
000721: 33,2770           41545                           DLOAD    PUSH
000722: 33,2771           02636                                    NEWAZ1
000723: 33,2772           77756                           SIN
000724: 33,2773           02665                           STORE    XSM        +4
000725: 33,2774           16671                           STODL    YSM        +2
000726: 33,2775           77746                           COS
000727: 33,2776           02673                           STORE    YSM        +4
000728: 33,2777           77676                           DCOMP
000729: 33,3000           02663                           STORE    XSM        +2
000730: 33,3001           77776                           EXIT
000731: 33,3002           01425                           TC       QPLACE
000732:
000733:                                                                                                  #  JOB DONE EVERY ITERATION THROUGH COMPASS PROGRAM. SET BY TASK ALLOOP
000734:
000735: 33,3003                                           COUNT*   $$/P02
000736: 33,3003           44743        ALWAYSG            DLOAD*   DSU*                                  #  COMPASS AND ERECT
000737: 33,3004           02543                                    DPIPAY     +8D,1
000738: 33,3005           02505                                    FILDELV1   +8D,1
000739: 33,3006           42675                           DMPR     DAD*
000740: 33,3007           27460                                    GEOCONS1
000741: 33,3010           02505                                    FILDELV1   +8D,1
000742: 33,3011           06505                           STORE    FILDELV1   +8D,1
000743: 33,3012           77613                           DAD*
000744: 33,3013           02507                                    INTVEC1    +8D,1
000745: 33,3014           06507                           STORE    INTVEC1    +8D,1
000746: 33,3015           42675                           DMPR     DAD*
000747: 33,3016           27462                                    GEOCONS2
000748: 33,3017           02505                                    FILDELV1   +8D,1
000749: 33,3020           41475                           DMPR     PUSH
000750: 33,3021           15202                                    GEOCONS5
000751: 33,3022           67300                           TIX,1    SLOAD
000752: 33,3023           67003                                    ALWAYSG
000753: 33,3024           02647                                    ERECTIM1
000754: 33,3025           71254                           BZE      DLOAD
000755: 33,3026           67037                                    COMPGS
000756: 33,3027           02471                                    THETAN1    +2
000757: 33,3030           45425                           DSU      STADR
000758: 33,3031           61306                           STODL    THETAN1    +2                         #  ERECTION ONLY.
000759: 33,3032           77621                           BDSU
000760: 33,3033           02473                                    THETAN1    +4
000761: 33,3034           02473                           STORE    THETAN1    +4
000762: 33,3035           77650                           GOTO
000763: 33,3036           67061                                    ADDINDRF
000764: 33,3037           43345        COMPGS             DLOAD    DAD                                   #  COMPASS
000765: 33,3040           02467                                    THETAN1
000766: 33,3041           02475                                    FILDELV1
000767: 33,3042           16467                           STODL    THETAN1
000768: 33,3043           02475                                    FILDELV1
000769: 33,3044           44275                           DMPR     BDSU
000770: 33,3045           27464                                    GEOCONS3
000771: 33,3046           02473                                    THETAN1    +4
000772: 33,3047           16473                           STODL    THETAN1    +4
000773: 33,3050           02501                                    FILDELV1   +4
000774: 33,3051           44275                           DMPR     BDSU
000775: 33,3052           27464                                    GEOCONS3
000776: 33,3053           02471                                    THETAN1    +2
000777: 33,3054           57325                           PDDL     DMPR
000778: 33,3055           02503                                    INTVEC1    +4
000779: 33,3056           27466                                    GEOCONS4
000780: 33,3057           45421                           BDSU     STADR
000781: 33,3060           75306                           STORE    THETAN1    +2
000782: 33,3061           77776        ADDINDRF           EXIT
000783:
000784:
000785: 33,3062           11412        ENDGTSAL           CCS      LENGTHOT                              #  IS 5 SEC OVER-THE TIME TO TORQ PLATFORM
000786: 33,3063           02315                           TC       SLEEPIE                               #  NO-SET UP NEXT WAITLIST CALL FOR .5 SEC
000787: 33,3064           03201                           TC       CHKCOMED
000788: 33,3065           11314                           CCS      LGYRO                                 #  YES BUT ARE GYROS BUSY
000789: 33,3066           12316                           TCF      SLEEPIE    +1                         #  BUSY-GET THEM .5 SECONDS FROM NOW
000790:
000791: 33,3067           06006        LASTGTS            TC       INTPRET
000792: 33,3070           77775                           VLOAD
000793: 33,3071           02650                                    ERCOMP1
000794: 33,3072           16461                           STODL    THETAX1
000795: 33,3073           02443                                    TMARK
000796: 33,3074           02457                           STORE    ALK
000797: 33,3075           77776                           EXIT                                           #  PREVIOUS SECTION WAS FOR RESTARTS
000798:
000799: 33,3076           05415        RESTAIER           TC       PHASCHNG
000800: 33,3077           00275                           OCT      00275
000801: 33,3100  01,2311               5P27SPT1           =        5.27SPOT
000802: 33,3100           06006                           TC       INTPRET                               #  ADD COMPASS COMMANDS INTO ERATE
000803: 33,3101           64375                           VLOAD    MXV
000804: 33,3102           02467                                    THETAN1
000805: 33,3103           02661                                    XSM
000806: 33,3104           53372                           VSL1     VAD
000807: 33,3105           02461                                    THETAX1
000808: 33,3106           16650                           STODL    ERCOMP1
000809: 33,3107           02457                                    ALK
000810: 33,3110           02443                           STORE    TMARK
000811: 33,3111           77776                           EXIT
000812: 33,3112           02214                           TC       EARTHR*                               #  TORQUE IT ALL IN
000813: 33,3113           31646                           CAE      ERECTIM1
000814: 33,3114           55631                           TS       GEOSAVE1
000815: 33,3115           05415                           TC       PHASCHNG
000816: 33,3116           00155                           OCT      00155
000817: 33,3117  01,2272               5P15SPT1           =        5.15SPOT
000818: 33,3117           06006        RESTEST1           TC       INTPRET
000819: 33,3120           77775                           VLOAD
000820: 33,3121           26702                                    SCHZEROS
000821: 33,3122           02467                           STORE    THETAN1
000822: 33,3123           77776                           EXIT
000823: 33,3124           11632                           CCS      PREMTRXC
000824: 33,3125           03174                           TC       NOCHORLD
000825: 33,3126           05415                           TC       PHASCHNG
000826: 33,3127           00255                           OCT      00255
000827: 33,3130  01,2306               5P25SPT1           =        5.25SPOT
000828: 33,3130           06006        RESTEST3           TC       INTPRET
000829: 33,3131           77745                           DLOAD
000830: 33,3132           02634                                    LAUNCHAZ
000831: 33,3133           53025                           DSU      BZE
000832: 33,3134           02640                                    OLDAZMTH
000833: 33,3135           67171                                    NOAZCHGE
000834: 33,3136           00001                           STORE    0D
000835: 33,3137           43335                           SLOAD    DAD
000836: 33,3140           26710                                    ONEDPP     +1
000837: 33,3141           02633                                    PREMTRXC                              #  DOES NOT CHANGE LAUNCHAZ
000838: 33,3142           16633                           STODL    PREMTRXC
000839: 33,3143           02634                                    LAUNCHAZ
000840: 33,3144           16636                           STODL    NEWAZMTH
000841: 33,3145           00001                                    0D
000842: 33,3146           02654        ADERCOMP           STORE    ERCOMP     +4
000843: 33,3147           77776                           EXIT
000844: 33,3150           02763                           TC       POSN17C
000845: 33,3151           05415                           TC       PHASCHNG
000846: 33,3152           00335                           OCT      00335
000847: 33,3153  01,2317               5P33SPT1           =        5.33SPOT
000848: 33,3153           00006        RESCHNG            EXTEND
000849: 33,3154           31636                           DCA      NEWAZMTH
000850: 33,3155           53640                           DXCH     OLDAZMTH
000851: 33,3156           34773                           CA       BIT7                                  #  SPEND 320 SEC ERECTING
000852: 33,3157           55412                           TS       LENGTHOT
000853: 33,3160           05415                           TC       PHASCHNG
000854: 33,3161           00075                           OCT      00075
000855: 33,3162  01,2261               5P7SPT2            =        5.7SPOT
000856: 33,3162           33227        SPITGYRO           CA       ERCOMPPL
000857: 33,3163           04647                           TC       BANKCALL
000858: 33,3164           17175                           CADR     IMUPULSE
000859: 33,3165           04647                           TC       BANKCALL
000860: 33,3166           17575                           CADR     IMUSTALL
000861: 33,3167           02674                           TC       SOMERR2
000862: 33,3170           02246                           TC       ESTIMS                                #  RE-INITIALIZE
000863:
000864:
000865: 33,3171           77776        NOAZCHGE           EXIT
000866: 33,3172           35001                           CA       ONE
000867: 33,3173           55632                           TS       PREMTRXC
000868: 33,3174           11631        NOCHORLD           CCS      GEOSAVE1
000869: 33,3175           55646                           TS       ERECTIM1                              #  COUNTS DOWN FOR ERECTION.
000870:
000871: 33,3176           34322        ANNNNNN            CAF      NINE
000872: 33,3177           55412                           TS       LENGTHOT
000873: 33,3200           02316                           TC       SLEEPIE    +1
000874:
000875:
000876: 33,3201           00004        CHKCOMED           INHINT
000877: 33,3202           41204                           CS       MODREG                                #  CHECK FOR MM 07 FIRST
000878: 33,3203           65005                           AD       SEVEN
000879: 33,3204           00006                           EXTEND
000880: 33,3205           13221                           BZF      GOBKCALB                              #  IF MM 07 RETURN TO PERF TEST
000881: 33,3206           45003                           CS       ZERO
000882: 33,3207           00006                           EXTEND
000883: 33,3210           06030                           RXOR     CHAN30                                #  READ AND INVERT BITS IN CHANNEL 30
000884: 33,3211           74775                           MASK     BIT5                                  #  LIFTOFF BIT
000885: 33,3212           10000                           CCS      A
000886: 33,3213           13222                           TCF      PRELTERM                              #  LIFTOFF HAS OCCURRED
000887:
000888: 33,3214           34775                           CA       GRRBKBIT                              #  CHECK FOR BACKUP LIFTOFF
000889: 33,3215           70101                           MASK     FLAGWRD5                              #  BIT5 FLAGWRD5
000890: 33,3216           10000                           CCS      A
000891: 33,3217           13222                           TCF      PRELTERM                              #  BACKUP RECEIVED
000892:
000893: 33,3220           00003                           RELINT
000894: 33,3221           00002        GOBKCALB           TC       Q
000895:
000896: 33,3222           37644        PRELTERM           CA       PRIO22                                #  PRELAUNCH DONE - SET UP P11
000897: 33,3223           05211                           TC       PRIOCHNG                              #  INCREASE PRIORITY HIGHER THAN SERVICER
000898: 33,3224           00004                           INHINT
000899: 33,3225           04666                           TC       POSTJUMP
000900: 33,3226           70000                           CADR     P11
000901:
000902:
000903: 33,3227           02647        ERCOMPPL           ECADR    ERCOMP
000904:
000905: 33,3230  26,3201               GEOCONS5           EQUALS   HIDPHALF
000906: 33,3230           06200        1/PIPAGT           OCT      06200
000907: 33,3231     4352               17DECML            =        ND1                                   #  OCT 21
000908: 33,3231     4351               19DECML            =        VD1                                   #  OCT 23
000909: 33,3231     5023               1/2SECX            =        .5SEC
000910:
000911:                                                                                                  #  OPTICAL VERIFICATION ROUTINES FOR GYROCOMPASS
000912:
000913: 33,3231                                           COUNT*   $$/P03
000914: 33,3231           05415        GCOMPVER           TC       PHASCHNG                              #  OPTICAL VERIFICATION ROUTINE
000915: 33,3232           00154                           OCT      00154
000916: 33,3233  01,2151               4P15SPT1           =        4.15SPOT
000917: 33,3233           05357                           TC       NEWMODEX                              #  ENTERED BY VERB 65 ENTER
000918: 33,3234           00003                           MM       03         B-14
000919: 33,3235           02011        SETNBPOS           TC       NBPOSPL
000920: 33,3236           04647                 +1        TC       BANKCALL
000921: 33,3237           16057                           CADR     MKRELEAS
000922: 33,3240           35001        OPTDATA            CAF      BIT1                                  #  CALLS FOR AZIMUTH AND ELEVATION OF TARGE
000923: 33,3241           22007                           ZL                                             #  T 1,THEN TARGET 2
000924: 33,3242           23427                 +2        LXCH     RUN
000925: 33,3243           55242                           TS       DSPTEM1    +2                         #  ELEVATION MEASURED FROM HORIZONTAL
000926: 33,3244           00006                           EXTEND
000927: 33,3245           51427                           INDEX    RUN
000928: 33,3246           31433                           DCA      TAZEL1
000929: 33,3247           53241                           DXCH     DSPTEM1
000930: 33,3250           33271        OPTDATA8           CAF      V05N30E
000931: 33,3251           04647                           TC       BANKCALL
000932: 33,3252           20565                           CADR     GODSPRET
000933: 33,3253           35045                           CAF      V06N41
000934: 33,3254           04647                           TC       BANKCALL
000935: 33,3255           20623                           CADR     GOFLASH
000936: 33,3256           03407                           TC       GCOMP5
000937: 33,3257           03261                           TC       +2
000938: 33,3260           13250                           TCF      OPTDATA8
000939:
000940: 33,3261           53241                           DXCH     DSPTEM1                               #  TAZEL1  TARGET 1 AZIMUTH
000941: 33,3262           51427                           INDEX    RUN
000942: 33,3263           53433                           DXCH     TAZEL1                                #  TAZEL1 +2 TARGET 2 AZIMUTH
000943: 33,3264           11427                           CCS      RUN
000944: 33,3265           13332                           TCF      CONTIN33
000945: 33,3266           35000                           CAF      TWO
000946: 33,3267           54001                           TS       L
000947: 33,3270           13242                           TCF      OPTDATA    +2                         #  MPAC    1ST PASS=0  2ND PASS=2
000948:
000949: 33,3271           01236        V05N30E            VN       0530
000950:
000951: 33,3272           06006                           TC       INTPRET                               #  UNDYNAMIC ASSEMBLER
000952: 33,3273           77170        TAR/EREF           AXT,1    AXT,2                                 #  TARGET VECTOR
000953: 33,3274           00002                                    2                                     #  SIN(EL)  -COS(AZ)COS(EL)   SIN(AZ)COS(EL
000954: 33,3275           00014                                    12D
000955: 33,3276           40331                           SSP      SETPD
000956: 33,3277           00052                                    S2
000957: 33,3300           00006                                    6
000958: 33,3301           00001                                    0
000959: 33,3302           60533        TAR1               SLOAD*   SR2                                   #  X1=2 X2=12 S2=6 X1=0 X2=6 S2=6
000960: 33,3303           02436                                    TAZEL1     +3,1
000961: 33,3304           00001                           STORE    0                                     #  PD00    ELEVATION    PD00
000962: 33,3305           77756                           SIN
000963: 33,3306           10023                           STORE    18D,2                                 #  PD06 ***    SIN(EL)   ***PD12
000964: 33,3307           77745                           DLOAD
000965: 33,3310           00001                                    0
000966: 33,3311           41546                           COS      PUSH                                  #  PD00     COS(EL)   PD00
000967: 33,3312           47133                           SLOAD*   RTB
000968: 33,3313           02435                                    TAZEL1     +2,1
000969: 33,3314           45566                                    CDULOGIC
000970: 33,3315           00003                           STORE    2                                     #  PD02        AZIMUTH   PD02
000971: 33,3316           41356                           SIN      DMP
000972: 33,3317           00001                                    0
000973: 33,3320           77752                           SL1
000974: 33,3321           10027                           STORE    22D,2                                 #  PD10  *** SIN(AZ)COS(EL)  ***PD16
000975: 33,3322           71545                           DLOAD    COS
000976: 33,3323           00003                                    2
000977: 33,3324           72405                           DMP      SL1
000978: 33,3325           76076                           DCOMP    AXT,1
000979: 33,3326           00000                                    0
000980: 33,3327           10025                           STORE    20D,2                                 #  PD08 ***   -COS(AZ)COS(EL)  ***PD14
000981: 33,3330           43504                           TIX,2    RVQ
000982: 33,3331           67302                                    TAR1
000983:
000984:
000985: 33,2000                                           SETLOC   IMUCAL
000986: 33,2000                                           BANK
000987: 33,3332                                           COUNT*   $$/P03
000988: 33,3332           35001        CONTIN33           CA       ONE
000989: 33,3333           55130                           TS       STARCODE
000990: 33,3334           35003                           CA       ZERO
000991: 33,3335           03414                           TC       TARGDRVE
000992: 33,3336           06006                           TC       INTPRET
000993: 33,3337           77624                           CALL
000994: 33,3340           67273                                    TAR/EREF
000995: 33,3341           64375        NEXTBNKS           VLOAD    MXV
000996: 33,3342           00007                                    6D
000997: 33,3343           02661                                    XSM
000998: 33,3344           77772                           VSL1
000999: 33,3345           26725                           STOVL    STARAD
001000: 33,3346           00015                                    12D
001001: 33,3347           76521                           MXV      VSL1
001002: 33,3350           02661                                    XSM
001003: 33,3351           36733                           STCALL   STARAD     +6
001004: 33,3352           67467                                    LITTLSUB
001005: 33,3353           02414                           STORE    LOSVEC
001006: 33,3354           77776                           EXIT
001007: 33,3355           35000        NEXBNKSS           CAF      TWO
001008: 33,3356           55130                           TS       STARCODE
001009: 33,3357           36211                           CAF      SIX
001010: 33,3360           03414                           TC       TARGDRVE
001011: 33,3361           06006                           TC       INTPRET
001012: 33,3362           77624                           CALL
001013: 33,3363           67467                                    LITTLSUB
001014: 33,3364           24015                           STOVL    12D
001015: 33,3365           02414                                    LOSVEC
001016: 33,3366           34007                           STCALL   06D
001017: 33,3367           47373                                    AXISGEN
001018: 33,3370           77624                           CALL
001019: 33,3371           47177                                    CALCGTA
001020: 33,3372           77776                           EXIT
001021: 33,3373           35052        GCOMP4             CAF      V06N93
001022: 33,3374           04647                           TC       BANKCALL
001023: 33,3375           20623                           CADR     GOFLASH
001024: 33,3376           03407                           TC       GCOMP5
001025: 33,3377           13401                           TCF      +2
001026: 33,3400           13373                           TCF      GCOMP4
001027: 33,3401           06006                           TC       INTPRET
001028: 33,3402           53375                           VLOAD    VAD
001029: 33,3403           02760                                    OGC
001030: 33,3404           02650                                    ERCOMP1
001031: 33,3405           02650                           STORE    ERCOMP1
001032: 33,3406           77776                           EXIT
001033: 33,3407           05357        GCOMP5             TC       NEWMODEX
001034: 33,3410           00002                           MM       02         B-14
001035: 33,3411           05415                           TC       PHASCHNG
001036: 33,3412           00004                           OCT      00004
001037: 33,3413           05220                           TC       ENDOFJOB
001038: 33,2000                                           SETLOC   IMUCAL
001039: 33,2000                                           BANK
001040:
001041:
001042: 33,3414                                           COUNT*   $$/P03
001043: 33,3414           00006        TARGDRVE           EXTEND
001044: 33,3415           23424                           QXCH     QPLAC
001045: 33,3416           55431                           TS       TARG1/2
001046: 33,3417           06006                           TC       INTPRET
001047: 33,3420           77624                           CALL
001048: 33,3421           67273                                    TAR/EREF
001049: 33,3422           76740                           LXC,1    VLOAD*
001050: 33,3423           02431                                    TARG1/2
001051: 33,3424           00007                                    6D,1
001052: 33,3425           36766                           STCALL   STAR
001053: 33,3426           46053                                    SXTANG
001054: 33,3427           77776                           EXIT
001055: 33,3430           31773                           CA       SAC
001056: 33,3431           55303                           TS       DESOPTS
001057: 33,3432           31775                           CA       PAC
001058: 33,3433           55302                           TS       DESOPTT
001059: 33,3434           35003        RETARG             CAF      ZERO
001060: 33,3435           55313                           TS       OPTIND
001061: 33,3436           04647                           TC       BANKCALL
001062: 33,3437           16000                           CADR     SXTMARK
001063: 33,3440           10301                           CCS      MARKINDX
001064: 33,3441           03434                           TC       RETARG                                #  NO MARK TAKEN - DO AGAIN
001065:
001066: 33,3442           04647                           TC       BANKCALL
001067: 33,3443           16057                           CADR     MKRELEAS
001068:
001069: 33,3444           01424                           TC       QPLAC
001070:
001071:
001072: 33,2000                                           SETLOC   IMUCAL
001073: 33,2000                                           BANK
001074: 33,3445                                           COUNT*   $$/P03
001075: 33,3445           30341 22444  PIPASC             2DEC     .76376833
001076: 33,3447           57223 66451  VELSC              2DEC     -.52223476
001077: 33,3451           05427 12577  ALSK               2DEC     .17329931
001078: 33,3453           77567 44202                     2DEC     -.00835370
001079: 33,3455           24276 14066  GEORGEJ            2DEC     .63661977
001080: 33,3457           03146 14632  GEOCONS1           2DEC     .1
001081: 33,3461           00121 35341  GEOCONS2           2DEC     .005
001082: 33,3463           01767 31666  GEOCONS3           2DEC     .062
001083: 33,3465           00004 35223  GEOCONS4           2DEC     .0003
001084:
001085: 33,3467                                           COUNT*   $$/P02
001086: 33,3467           74020        LITTLSUB           STQ      AXC,1
001087: 33,3470           00300                                    QMAJ
001088: 33,3471           03702                                    MRKBUF1
001089: 33,3472           77650                           GOTO
001090: 33,3473           36107                                    SXTSM2
001091:
001092:
001093: 43,2000                                           SETLOC   EXTVERBS
001094: 43,2000                                           BANK
001095:
001096: 43,3175                                           COUNT*   $$/EXTVB
001097: 43,3175           06006        AZMTHCG1           TC       INTPRET
001098: 43,3176           47145                           DLOAD    RTB
001099: 43,3177           02636                                    NEWAZMTH
001100: 43,3200           45621                                    1STO2S
001101: 43,3201           77776                           EXIT
001102: 43,3202           56154                           XCH      MPAC
001103: 43,3203           55240                           TS       DSPTEM1
001104: 43,3204           04647                           TC       BANKCALL
001105: 43,3205           20575                           CADR     CLEANDSP
001106: 43,3206           33230                           CAF      VN0629
001107: 43,3207           04647                           TC       BANKCALL
001108: 43,3210           20623                           CADR     GOFLASH
001109: 43,3211           13222                           TCF      +11
001110: 43,3212           13214                           TCF      +2
001111: 43,3213           13206                           TCF      -5
001112: 43,3214           06006                           TC       INTPRET
001113: 43,3215           47135                           SLOAD    RTB
001114: 43,3216           01241                                    DSPTEM1
001115: 43,3217           45566                                    CDULOGIC
001116: 43,3220           02634                           STORE    LAUNCHAZ
001117: 43,3221           77776                           EXIT
001118: 43,3222           35003                 +11       CAF      ZERO
001119: 43,3223           55632                           TS       PREMTRXC
001120: 43,3224           05415                           TC       PHASCHNG
001121: 43,3225           00004                           OCT      00004
001122: 43,3226           04666                           TC       POSTJUMP
001123: 43,3227           21155                           CADR     PINBRNCH
001124:
001125: 43,3230           01435        VN0629             VN       0629

End of include-file IMU_CALIBRATION_AND_ALIGNMENT.agc.  Parent file is MAIN.agc


