
Source Code


000002:                                                                                                  ## Copyright:   Public domain.
000003:                                                                                                  ## Filename:    INFLIGHT_ALIGNMENT_ROUTINES.agc
000004:                                                                                                  ## Purpose:     A section of Skylark revision 048.
000005:                                                                                                  ##              It is part of the source code for the Apollo Guidance Computer (AGC)
000006:                                                                                                  ##              for Skylab-2, Skylab-3, Skylab-4, and ASTP. No original listings of
000007:                                                                                                  ##              this software are available; instead, this file was created via
000008:                                                                                                  ##              disassembly of dumps of the core rope modules actually flown on
000009:                                                                                                  ##              Skylab-2. Access to these modules was provided by the New Mexico
000010:                                                                                                  ##              Museum of Space History.
000011:                                                                                                  ## Assembler:   yaYUL
000012:                                                                                                  ## Contact:     Ron Burkey <info@sandroid.org>.
000013:                                                                                                  ## Website:     www.ibiblio.org/apollo/index.html
000014:                                                                                                  ## Mod history: 2023-09-04 MAS  Created from Artemis 072.
000015:                                                                                                  ##              2024-02-27 MAS  Updated for Skylark 48.
000016:
000017:
000018: 23,2000                                           SETLOC   INFLIGHT
000019: 23,2000                                           BANK
000020:
000021: 23,3177  E5,1660                                  EBANK=   XSM
000022:
000023:                                                                                                  #  CALCGTA COMPUTES THE GYRO TORQUE ANGLES REQUIRED TO BRING THE STABLE MEMBER INTO THE DESIRED ORIENTATION.
000024:
000025:                                                                                                  #  THE INPUT IS THE DESIRED STABLE MEMBER COORDINATES REFERRED TO PRESENT STABLE MEMBER COORDINATES. THE THREE
000026:                                                                                                  #  HALF-UNIT VECTORS ARE STORED AT XDC, YDC, AND ZDC.
000027:
000028:                                                                                                  #  THE OUTPUTS ARE THE THREE GYRO TORQUING ANGLES TO BE APPLIED TO THE Y, Z, AND X GYROS AND ARE STORED DP AT IGC,
000029:                                                                                                  #  MGC, AND OGC RESPECTIVELY.
000030:
000031: 23,3177                                           COUNT*   $$/INFLT
000032: 23,3177           71220        CALCGTA            ITA      DLOAD                                 #  PUSHDOWN 00-03,16D-27D,34D-37D
000033: 23,3200           00051                                    S2                                    #  XDC = (XD1 XD2 XD3)
000034: 23,3201           02703                                    XDC                                   #  YDC = (YD1 YD2 YD3)
000035: 23,3202           65325                           PDDL     PDDL                                  #  ZDC = (ZD1 ZD2 ZD3)
000036: 23,3203           15204                                    HI6ZEROS
000037: 23,3204           02707                                    XDC        +4
000038: 23,3205           55476                           DCOMP    VDEF
000039: 23,3206           77656                           UNIT
000040: 23,3207           14027                           STODL    ZPRIME                                #  ZP = UNIT(-XD3 0 XD1) = (ZP1 ZP2 ZP3)
000041: 23,3210           00027                                    ZPRIME
000042:
000043: 23,3211           77742                           SR1
000044: 23,3212           14023                           STODL    SINTH                                 #  SIN(IGC) = ZP1
000045: 23,3213           00033                                    ZPRIME     +4
000046: 23,3214           77742                           SR1
000047: 23,3215           34021                           STCALL   COSTH                                 #  COS(IGC) = ZP3
000048: 23,3216           47250                                    ARCTRIG
000049:
000050: 23,3217           16762                           STODL    IGC                                   #  Y GYRO TORQUING ANGLE   FRACTION OF REV.
000051: 23,3220           02705                                    XDC        +2
000052: 23,3221           77742                           SR1
000053: 23,3222           14023                           STODL    SINTH                                 #  SIN(MGC) = XD2
000054: 23,3223           00027                                    ZPRIME
000055:
000056: 23,3224           65205                           DMP      PDDL
000057: 23,3225           02707                                    XDC        +4                         #  PD00 = (ZP1)(XD3)
000058: 23,3226           00033                                    ZPRIME     +4
000059:
000060: 23,3227           45205                           DMP      DSU
000061: 23,3230           02703                                    XDC                                   #  MPAC = (ZP3)(XD1)
000062: 23,3231           77626                           STADR
000063: 23,3232           43756                           STCALL   COSTH                                 #  COS(MGC) = MPAC - PD00
000064: 23,3233           47250                                    ARCTRIG
000065: 23,3234           26764                           STOVL    MGC                                   #  Z GYRO TORQUING ANGLE   FRACTION OF REV.
000066: 23,3235           00027                                    ZPRIME
000067: 23,3236           77641                           DOT
000068: 23,3237           02717                                    ZDC
000069: 23,3240           24021                           STOVL    COSTH                                 #  COS(OGC) = ZP . ZDC
000070: 23,3241           00027                                    ZPRIME
000071: 23,3242           77641                           DOT
000072: 23,3243           02711                                    YDC
000073: 23,3244           34023                           STCALL   SINTH                                 #  SIN(OGC) = ZP . YDC
000074: 23,3245           47250                                    ARCTRIG
000075:
000076: 23,3246           36760                           STCALL   OGC                                   #  X GYRO TORQUING ANGLE   FRACTION OF REV.
000077: 23,3247           00051                                    S2
000078:
000079:
000080:                                                                                                  #  ARCTRIG COMPUTES AN ANGLE GIVEN THE SINE AND COSINE OF THIS ANGLE.
000081:
000082:                                                                                                  #  THE INPUTS ARE SIN/4 AND COS/4 STORED DP AT SINTH AND COSTH.
000083:
000084:                                                                                                  #  THE OUTPUT IS THE CALCULATED ANGLE BETWEEN +.5 AND -.5 REVOLUTIONS AND STORED AT THETA. THE OUTPUT IS ALSO
000085:                                                                                                  #  AVAILABLE AT MPAC.
000086:
000087: 23,3250           51545        ARCTRIG            DLOAD    ABS                                   #  PUSHDOWN  16D-21D
000088: 23,3251           00023                                    SINTH
000089: 23,3252           50025                           DSU      BMN
000090: 23,3253           07466                                    QTSN45                                #  ABS(SIN/4) - SIN(45)/4
000091: 23,3254           47263                                    TRIG1                                 #  IF (-45,45) OR (135,-135)
000092:
000093: 23,3255           72545                           DLOAD    SL1                                   #  (45,135) OR (-135,-45)
000094: 23,3256           00021                                    COSTH
000095: 23,3257           75326                           ACOS     SIGN
000096: 23,3260           00023                                    SINTH
000097: 23,3261           00025                           STORE    THETA                                 #  X = ARCCOS(COS) WITH SIGN(SIN)
000098: 23,3262           77616                           RVQ
000099:
000100: 23,3263           72545        TRIG1              DLOAD    SL1                                   #  (-45,45) OR (135,-135)
000101: 23,3264           00023                                    SINTH
000102: 23,3265           77736                           ASIN
000103: 23,3266           14025                           STODL    THETA                                 #  X = ARCSIN(SIN) WITH SIGN(SIN)
000104: 23,3267           00021                                    COSTH
000105: 23,3270           77640                           BMN
000106: 23,3271           47274                                    TRIG2                                 #  IF (135,-135)
000107:
000108: 23,3272           43545                           DLOAD    RVQ
000109: 23,3273           00025                                    THETA                                 #  X = ARCSIN(SIN)   (-45,45)
000110:
000111: 23,3274           75345        TRIG2              DLOAD    SIGN                                  #  (135,-135)
000112: 23,3275           15202                                    HIDPHALF
000113: 23,3276           00023                                    SINTH
000114: 23,3277           77625                           DSU
000115: 23,3300           00025                                    THETA
000116: 23,3301           00025                           STORE    THETA                                 #  X = .5 WITH SIGN(SIN) - ARCSIN(SIN)
000117: 23,3302           77616                           RVQ                                            #        (+) - (+) OR (-) - (-)
000118:
000119:                                                                                                  #  SMNB, NBSM, AND AXISROT, WHICH USED TO APPEAR HERE, HAVE BEEN
000120:                                                                                                  #  COMBINED IN A ROUTINE CALLED AX*SR*T, WHICH APPEARS AMONG THE POWERED
000121:                                                                                                  #  FLIGHT SUBROUTINES.
000122:
000123:                                                                                                  #  CALCGA COMPUTES THE CDU DRIVING ANGLES REQUIRED TO BRING THE STABLE MEMBER INTO THE DESIRED ORIENTATION.
000124:
000125:                                                                                                  #  THE INPUTS ARE  1) THE NAVIGATION BASE COORDINATES REFERRED TO ANY COORDINATE SYSTEM. THE THREE HALF-UNIT
000126:                                                                                                  #  VECTORS ARE STORED AT XNB, YNB, AND ZNB.  2) THE DESIRED STABLE MEMBER COORDINATES REFERRED TO THE SAME
000127:                                                                                                  #  COORDINATE SYSTEM ARE STORED AT XSM, YSM, AND ZSM.
000128:
000129:                                                                                                  #  THE OUTPUTS ARE THE THREE CDU DRIVING ANGLES AND ARE STORED SP AT THETAD, THETAD +1, AND THETAD +2.
000130:
000131: 23,3303           77601        CALCGA             SETPD                                          #  PUSHDOWN 00-05, 16D-21D, 34D-37D
000132: 23,3304           00001                                    0
000133: 23,3305           47375                           VLOAD    VXV
000134: 23,3306           02703                                    XNB                                   #  XNB = OGA (OUTER GIMBAL AXIS)
000135: 23,3307           02667                                    YSM                                   #  YSM = IGA (INNER GIMBAL AXIS)
000136: 23,3310           41456                           UNIT     PUSH                                  #  PD0 = UNIT(OGA X IGA) = MGA
000137:
000138: 23,3311           44041                           DOT      ITA
000139: 23,3312           02717                                    ZNB
000140: 23,3313           00051                                    S2
000141: 23,3314           24021                           STOVL    COSTH                                 #  COS(OG) = MGA . ZNB
000142: 23,3315           00001                                    0
000143: 23,3316           77641                           DOT
000144: 23,3317           02711                                    YNB
000145: 23,3320           34023                           STCALL   SINTH                                 #  SIN(OG) = MGA . YNB
000146: 23,3321           47250                                    ARCTRIG
000147: 23,3322           26760                           STOVL    OGC
000148: 23,3323           00001                                    0
000149:
000150: 23,3324           50235                           VXV      DOT                                   #  PROVISION FOR MG ANGLE OF 90 DEGREES
000151: 23,3325           02703                                    XNB
000152: 23,3326           02667                                    YSM
000153: 23,3327           77752                           SL1
000154: 23,3330           24021                           STOVL    COSTH                                 #  COS(MG) = IGA . (MGA X OGA)
000155: 23,3331           02667                                    YSM
000156: 23,3332           77641                           DOT
000157: 23,3333           02703                                    XNB
000158: 23,3334           34023                           STCALL   SINTH                                 #  SIN(MG) = IGA . OGA
000159: 23,3335           47250                                    ARCTRIG
000160: 23,3336           02764                           STORE    MGC
000161:
000162: 23,3337           45246                           ABS      DSU
000163: 23,3340           07470                                    .166...
000164: 23,3341           51014                           BONCLR   BPL
000165: 23,3342           00205                                    P50FLAG
000166: 23,3343           47345                                    CALCGA1
000167: 23,3344           47363                                    GIMLOCK1                              #  IF ANGLE GREATER THAN 60 DEGREES
000168:
000169: 23,3345           50375        CALCGA1            VLOAD    DOT
000170: 23,3346           02675                                    ZSM
000171: 23,3347           00001                                    0
000172: 23,3350           24021                           STOVL    COSTH                                 #  COS(IG) = ZSM . MGA
000173: 23,3351           02661                                    XSM
000174: 23,3352           45441                           DOT      STADR
000175: 23,3353           43754                           STCALL   SINTH                                 #  SIN(IG) = XSM . MGA
000176: 23,3354           47250                                    ARCTRIG
000177:
000178: 23,3355           26762                           STOVL    IGC
000179: 23,3356           02760                                    OGC
000180: 23,3357           77634                           RTB
000181: 23,3360           45625                                    V1STO2S
000182: 23,3361           35300                           STCALL   THETAD
000183: 23,3362           00051                                    S2
000184:
000185: 23,3363           77776        GIMLOCK1           EXIT
000186: 23,3364           05644                           TC       ALARM
000187: 23,3365           00401                           OCT      00401
000188: 23,3366           07710                           TC       UPFLAG                                #  GIMBAL LOCK HAS OCCURED
000189: 23,3367           00056                           ADRES    GLOKFAIL
000190:
000191: 23,3370           06006                           TC       INTPRET
000192: 23,3371           77650                           GOTO
000193: 23,3372           47345                                    CALCGA1
000194:
000195:
000196:                                                                                                  #  AXISGEN COMPUTES THE COORDINATES OF ONE COORDINATE SYSTEM REFERRED TO ANOTHER COORDINATE SYSTEM.
000197:
000198:                                                                                                  #  THE INPUTS ARE  1) THE STAR1 VECTOR REFERRED TO COORDINATE SYSTEM A STORED AT STARAD.  2) THE STAR2 VECTOR
000199:                                                                                                  #  REFERRED TO COORDINATE SYSTEM A STORED AT STARAD +6.  3) THE STAR1 VECTOR REFERRED TO COORDINATE SYSTEM B STORED
000200:                                                                                                  #  AT LOCATION 6 OF THE VAC AREA.  4) THE STAR2 VECTOR REFERRED TO COORDINATE SYSTEM B STORED AT LOCATION 12D OF
000201:                                                                                                  #  THE VAC AREA.
000202:
000203:                                                                                                  #  THE OUTPUT DEFINES COORDINATE SYSTEM A REFERRED TO COORDINATE SYSTEM B. THE THREE HALF-UNIT VECTORS ARE STORED
000204:                                                                                                  #  AT LOCATIONS XDC, XDC +6, XDC +12D, AND STARAD, STARAD +6, STARAD +12D.
000205:
000206: 23,3373           66370        AXISGEN            AXT,1    SSP                                   #  PUSHDOWN 00-30D,34D-37D
000207: 23,3374           02732                                    STARAD     +6
000208: 23,3375           00051                                    S1
000209: 23,3376           02716                                    STARAD     -6
000210:
000211: 23,3377           77601                           SETPD
000212: 23,3400           00001                                    0
000213: 23,3401           46773        AXISGEN1           VLOAD*   VXV*                                  #  06D   UA = S1
000214: 23,3402           02741                                    STARAD     +12D,1                     #        STARAD +00D     UB = S1
000215: 23,3403           02747                                    STARAD     +18D,1
000216: 23,3404           77656                           UNIT                                           #  12D   VA = UNIT(S1 X S2)
000217: 23,3405           06747                           STORE    STARAD     +18D,1                     #        STARAD +06D     VB = UNIT(S1 X S2)
000218: 23,3406           77773                           VLOAD*
000219: 23,3407           02741                                    STARAD     +12D,1
000220:
000221: 23,3410           76433                           VXV*     VSL1
000222: 23,3411           02747                                    STARAD     +18D,1                     #  18D   WA = UA X VA
000223: 23,3412           06755                           STORE    STARAD     +24D,1                     #        STARAD +12D     WB = UB X VB
000224:
000225: 23,3413           77700                           TIX,1
000226: 23,3414           47401                                    AXISGEN1
000227:
000228: 23,3415           66160                           AXC,1    SXA,1
000229: 23,3416           00006                                    6
000230: 23,3417           00036                                    30D
000231:
000232: 23,3420           66370                           AXT,1    SSP
000233: 23,3421           00022                                    18D
000234: 23,3422           00051                                    S1
000235: 23,3423           00006                                    6
000236:
000237: 23,3424           66374                           AXT,2    SSP
000238: 23,3425           00006                                    6
000239: 23,3426           00052                                    S2
000240: 23,3427           00002                                    2
000241:
000242: 23,3430           76720        AXISGEN2           XCHX,1   VLOAD*
000243: 23,3431           00036                                    30D                                   #  X1=-6 X2=+6   X1=-6 X2=+4     X1=-6 X2=+2
000244: 23,3432           00001                                    0,1
000245:
000246: 23,3433           62757                           VXSC*    PDVL*                                 #  J=(UA)(UB1)   J=(UA)(UB2)     J=(UA)(UB3)
000247: 23,3434           75044                                    STARAD     +6,2
000248: 23,3435           00007                                    6,1
000249: 23,3436           77757                           VXSC*
000250: 23,3437           75036                                    STARAD     +12D,2
000251: 23,3440           30031                           STOVL*   24D                                   #  K=(VA)(VB1)   J=(VA)(VB2)     J=(VA)(VB3)
000252: 23,3441           00015                                    12D,1
000253:
000254: 23,3442           53357                           VXSC*    VAD
000255: 23,3443           75030                                    STARAD     +18D,2                     #  L=(WA)(WB1)   J=(WA)(WB2)     J=(WA)(WB3)
000256: 23,3444           76455                           VAD      VSL1
000257: 23,3445           00031                                    24D
000258: 23,3446           53520                           XCHX,1   UNIT
000259: 23,3447           00036                                    30D
000260: 23,3450           06725                           STORE    XDC        +18D,1                     #  XDC = L+J+K   YDC = L+J+K     ZDC = L+J+K
000261:
000262: 23,3451           77700                           TIX,1
000263: 23,3452           47453                                    AXISGEN3
000264:
000265: 23,3453           77704        AXISGEN3           TIX,2
000266: 23,3454           47430                                    AXISGEN2
000267:
000268: 23,3455           77775                           VLOAD
000269: 23,3456           02703                                    XDC
000270: 23,3457           26725                           STOVL    STARAD
000271: 23,3460           02711                                    YDC
000272: 23,3461           26733                           STOVL    STARAD     +6
000273: 23,3462           02717                                    ZDC
000274: 23,3463           02741                           STORE    STARAD     +12D
000275:
000276: 23,3464           77616                           RVQ
000277:
000278: 23,3465           05520 26075  QTSN45             2DEC     .1768
000279: 23,3467           05252 25253  .166...            2DEC     .1666666667

End of include-file INFLIGHT_ALIGNMENT_ROUTINES.agc.  Parent file is MAIN.agc


