
Source Code


000002:                                                                                                  ## Copyright:   Public domain.
000003:                                                                                                  ## Filename:    INTER-BANK_COMMUNICATION.agc
000004:                                                                                                  ## Purpose:     A section of Skylark revision 048.
000005:                                                                                                  ##              It is part of the source code for the Apollo Guidance Computer (AGC)
000006:                                                                                                  ##              for Skylab-2, Skylab-3, Skylab-4, and ASTP. No original listings of
000007:                                                                                                  ##              this software are available; instead, this file was created via
000008:                                                                                                  ##              disassembly of dumps of the core rope modules actually flown on
000009:                                                                                                  ##              Skylab-2. Access to these modules was provided by the New Mexico
000010:                                                                                                  ##              Museum of Space History.
000011:                                                                                                  ## Assembler:   yaYUL
000012:                                                                                                  ## Contact:     Ron Burkey <info@sandroid.org>.
000013:                                                                                                  ## Website:     www.ibiblio.org/apollo/index.html
000014:                                                                                                  ## Mod history: 2023-09-04 MAS  Created from Artemis 072.
000015:
000016:
000017:                                                                                                  #  THE FOLLOWING ROUTINE CAN BE USED TO CALL A SUBROUTINE IN ANOTHER BANK. IN THE BANKCALL VERSION, THE
000018:                                                                                                  #  CADR OF THE SUBROUTINE IMMEDIATELY FOLLOWS THE  TC BANKCALL  INSTRUCTION, WITH C(A) AND C(L) PRESERVED.
000019:
000020:    4000                                           SETLOC   FFTAG1
000021:    4000                                           BANK
000022:
000023:    4647                                           COUNT*   $$/BANK
000024:    4647           52134        BANKCALL           DXCH     BUF2                                  #  SAVE INCOMING A,L.
000025:    4650           50002                           INDEX    Q                                     #  PICK UP CADR.
000026:    4651           30000                           CA       0
000027:    4652           24002                 -1        INCR     Q                                     #  SO WE RETURN TO THE LOC. AFTER THE CADR.
000028:
000029:                                                                                                  #  SWCALL IS  IDENTICAL TO BANKCALL, EXCEPT THAT THE CADR ARRIVES IN A.
000030:
000031:    4653           54001        SWCALL             TS       L
000032:    4654           22004                           LXCH     FBANK                                 #  SWITCH BANKS, SAVING RETURN.
000033:    4655           75053                           MASK     LOW10                                 #  GET SUB-ADDRESS OF CADR.
000034:    4656           56002                           XCH      Q                                     #  A,L NOW CONTAINS DP RETURN.
000035:    4657           52134                           DXCH     BUF2                                  #  RESTORING INPUTS IF THIS IS A BANKCALL.
000036:    4660           50002                           INDEX    Q
000037:    4661           02000                           TC       10000                                 #  SETTING Q TO SWRETURN.
000038:
000039:    4662           56134        SWRETURN           XCH      BUF2       +1                         #  COMES HERE TO RETURN TO CALLER. C(A,L)
000040:    4663           56004                           XCH      FBANK                                 #  ARE PRESERVED FOR RETURN.
000041:    4664           56134                           XCH      BUF2       +1
000042:    4665           00133                           TC       BUF2
000043:
000044:                                                                                                  #  THE FOLLOWING ROUTINE CAN BE USED AS A UNILATERAL JUMP WITH C(A,L) PRESERVED AND THE CADR IMMEDIATELY
000045:                                                                                                  #  FOLLOWING THE TC POSTJUMP INSTRUCTION.
000046:
000047:    4666           56002        POSTJUMP           XCH      Q                                     #  SAVE INCOMING C(A).
000048:    4667           50000                           INDEX    A                                     #  GET CADR.
000049:    4670           30000                           CA       0
000050:
000051:                                                                                                  #  BANKJUMP IS THE SAME AS POSTJUMP, EXCEPT THAT THE CADR ARRIVES IN A.
000052:
000053:    4671           54004        BANKJUMP           TS       FBANK
000054:    4672           75053                           MASK     LOW10
000055:    4673           56002                           XCH      Q                                     #  RESTORING INPUT C(A) IF THIS WAS A
000056:    4674           50002        Q+10000            INDEX    Q                                     #  POSTJUMP.
000057:    4675           12000        PRIO12             TCF      10000                                 #  PRIO12 = TCF  10000 = 12000
000058:
000059:
000060:                                                                                                  #  THE FOLLOWING ROUTINE GETS THE RETURN CADR SAVED BY SWCALL OR BANKCALL AND LEAVES IT IN A.
000061:
000062:    4676           35053        MAKECADR           CAF      LOW10
000063:    4677           70133                           MASK     BUF2
000064:    4700           60134                           AD       BUF2       +1
000065:    4701           00002                           TC       Q
000066:
000067:    4702           54135        SUPDACAL           TS       MPTEMP
000068:    4703           56004                           XCH      FBANK                                 #  SET FBANK FOR DATA.
000069:    4704           00006                           EXTEND
000070:    4705           04007                           ROR      SUPERBNK                              #  SAVE FBANK IN BITS 15-11, AND
000071:    4706           56135                           XCH      MPTEMP                                #  SUPERBANK IN BITS 7-5.
000072:    4707           75053                           MASK     LOW10
000073:    4710           56001                           XCH      L                                     #  SAVE REL. ADR. IN BANK, FETCH SUPERBITS.
000074:    4711           00004                           INHINT                                         #  BECAUSE RUPT DOES NOT SAVE SUPERBANK.
000075:    4712           00006                           EXTEND
000076:    4713           01007                           WRITE    SUPERBNK                              #  SET SUPERBANK FOR DATA.
000077:    4714           50001                           INDEX    L
000078:    4715           32000                           CA       10000                                 #  PINBALL (FIX MEM DISP) PREVENTS DCA HERE
000079:    4716           56135                           XCH      MPTEMP                                #  SAVE 1ST WD, FETCH OLD FBANK AND SBANK.
000080:    4717           00006                           EXTEND
000081:    4720           01007                           WRITE    SUPERBNK                              #  RESTORE SUPERBANK.
000082:    4721           00003                           RELINT
000083:    4722           54004                           TS       FBANK                                 #  RESTORE FBANK.
000084:    4723           30135                           CA       MPTEMP                                #  RECOVER FIRST WORD OF DATA.
000085:    4724           00002                           RETURN                                         #  24 WDS. DATACALL 516 MU, SUPDACAL 432 MU
000086:
000087:
000088:                                                                                                  #  THE FOLLOWING ROUTINES ARE IDENTICAL TO BANKCALL AND SWCALL EXCEPT THAT THEY ARE USED IN INTERRUPT.
000089:
000090:    4725           52073        IBNKCALL           DXCH     RUPTREG3                              #  USES RUPTREG3,4 FOR DP RETURN ADDRESS.
000091:    4726           50002                           INDEX    Q
000092:    4727           30000                           CAF      0
000093:    4730           24002                           INCR     Q
000094:
000095:    4731           54001        ISWCALL            TS       L
000096:    4732           22004                           LXCH     FBANK
000097:    4733           75053                           MASK     LOW10
000098:    4734           56002                           XCH      Q
000099:    4735           52073                           DXCH     RUPTREG3
000100:    4736           50002                           INDEX    Q
000101:    4737           02000                           TC       10000
000102:
000103:    4740           56073        ISWRETRN           XCH      RUPTREG4
000104:    4741           56004                           XCH      FBANK
000105:    4742           56073                           XCH      RUPTREG4
000106:    4743           00072                           TC       RUPTREG3
000107:
000108:                                                                                                  #  2. USPRCADR ACCESSES INTERPRETIVE CODING IN OTHER THAN THE USER'S FBANK. THE CALLING SEQUENCE IS AS FOLLOWS:
000109:
000110:                                                                                                  #        L       TC      USPRCADR
000111:                                                                                                  #        L+1     CADR    INTPRETX        INTPRETX IS THE INTERPRETIVE CODING
000112:                                                                                                  #                                        RETURN IS TO L+2
000113:
000114:    4744           54164        USPRCADR           TS       LOC                                   #  SAVE A
000115:    4745           34772                           CA       BIT8
000116:    4746           54023                           TS       EDOP                                  #  EXIT INSTRUCTION TO EDOP
000117:    4747           30006                           CA       BBANK
000118:    4750           54165                           TS       BANKSET                               #  USER'S BBANK TO BANKSET
000119:    4751           50002                           INDEX    Q
000120:    4752           30000                           CA       0
000121:    4753           54004                           TS       FBANK                                 #  INTERPRETIVE BANK TO FBANK
000122:    4754           75053                           MASK     LOW10                                 #  YIELDS INTERPRETIVE RELATIVE ADDRESS
000123:    4755           56002                           XCH      Q                                     #  INTERPRETIVE ADDRESS TO Q, FETCHING L+1
000124:    4756           56164                           XCH      LOC                                   #  L+1 TO LOC, RETRIEVING ORIGINAL A
000125:    4757           14674                           TCF      Q+10000
000126:
000127:
000128:                                                                                                  #  THERE ARE FOUR POSSIBLE SETTINGS FOR CHANNEL 07.  (CHANNEL 07 CONTAINS THE SUPERBANK SETTING.)
000129:
000130:                                                                                                  #                                                PSEUDO-FIXED    OCTAL PSEUDO
000131:                                                                                                  #  SUPERBANK     SETTING         S-REG. VALUE    BANK NUMBERS    ADDRESSES
000132:                                                                                                  #  ----------    -------         ------------     ------------    ------------
000133:                                                                                                  #  SUPERBANK 3     0XX            2000 - 3777       30 - 37      70000 - 107777          (WHERE XX CAN BE ANYTHING AND
000134:                                                                                                  #                                                                                        WILL USUALLY BE SEEN AS 11)
000135:                                                                                                  #  SUPERBANK 4     100            2000 - 3777       40 - 47      110000 - 127777         (AS FAR AS IT CAN BE SEEN,
000136:                                                                                                  #                                                                                        ONLY BANKS 40-43 WILL EVER BE
000137:                                                                                                  #                                                                                        AND ARE PRESENTLY AVAILABLE)
000138:                                                                                                  #  SUPERBANK 5     101            2000 - 3777       50 - 57      130000 - 147777         (PRESENTLY NOT AVAILABLE TO
000139:                                                                                                  #                                                                                        THE USER)
000140:                                                                                                  #  SUPERBANK 6     110            2000 - 3777       60 - 67      150000 - 167777         (PRESENTLY NOT AVAILABLE TO
000141:                                                                                                  #                                                                                        THE USER)
000142:

End of include-file INTER-BANK_COMMUNICATION.agc.  Parent file is MAIN.agc


