
Source Code


000002:                                                                                                  ## Copyright:   Public domain.
000003:                                                                                                  ## Filename:    INTERPRETER.agc
000004:                                                                                                  ## Purpose:     A section of Skylark revision 048.
000005:                                                                                                  ##              It is part of the source code for the Apollo Guidance Computer (AGC)
000006:                                                                                                  ##              for Skylab-2, Skylab-3, Skylab-4, and ASTP. No original listings of
000007:                                                                                                  ##              this software are available; instead, this file was created via
000008:                                                                                                  ##              disassembly of dumps of the core rope modules actually flown on
000009:                                                                                                  ##              Skylab-2. Access to these modules was provided by the New Mexico
000010:                                                                                                  ##              Museum of Space History.
000011:                                                                                                  ## Assembler:   yaYUL
000012:                                                                                                  ## Contact:     Ron Burkey <info@sandroid.org>.
000013:                                                                                                  ## Website:     www.ibiblio.org/apollo/index.html
000014:                                                                                                  ## Mod history: 2023-09-04 MAS  Created from Artemis 072.
000015:
000016:
000017:                                                                                                  #  SECTION 1   DISPATCHER
000018:
000019:                                                                                                  #           ENTRY TO THE INTERPRETER.  INTPRET SETS LOC TO THE FIRST INSTRUCTION, BANKSET TO THE BBANK OF THE
000020:                                                                                                  #  OBJECT INTERPRETIVE PROGRAM, AND INTBIT15 TO THE BIT15 CONTENTS OF FBANK. INTERPRETIVE PROGRAMS MAY BE IN
000021:                                                                                                  #  VIRTUALLY ALL BANKS PRESENT UNDER ANY SUPER-BANK SETTING, WITH THE RESTRICTION THAT PROGRAMS IN HIGH BANKS
000022:                                                                                                  #  (BIT15 OF FBANK = 1) DO NOT REFER TO LOWBANKS, AND VICE-VERSA. THE INTERPRETER DOES NOT SWITCH SUPERBANKS.
000023:                                                                                                  #  E-BANK SWITCHING OCCURS WHENEVER GENERAL ERASABLE (100-3777) IS ADDRESSED.
000024:
000025:    6000                                           SETLOC   INTERF3
000026:    6000                                           BANK
000027:
000028:    6006                                           COUNT*   $$/INTER
000029:    6006           00003        INTPRET            RELINT
000030:    6007           00006                           EXTEND                                         #  SET LOC TO THE WORD FOLLOWING THE TC.
000031:    6010           22164                 +2        QXCH     LOC
000032:
000033:    6011           30006                 +3        CA       BBANK                                 #  INTERPRETIVE BRANCHES FINISH HERE.
000034:    6012           54165                           TS       BANKSET
000035:    6013           74763                           MASK     BIT15                                 #  GET 15TH BIT FOR INDEXABLE ADDRESSES.
000036:    6014           54115                           TS       INTBIT15
000037:
000038:    6015           54023                           TS       EDOP                                  #  MAKE SURE NO INSTRUCTIONS LEFT OVER
000039:
000040:    6016           16037                           TCF      NEWOPS                                #  PICK UP OP CODE PAIR AND BEGIN.
000041:
000042:    6017           22006        INTRSM             LXCH     BBANK                                 #  RESUME SUSPENDED INTERPRETIVE JOB
000043:    6020           16011                           TCF      INTPRET    +3
000044:
000045:                                                                                                  #  DLOAD LOADS MPAC, MPAC +1, LEAVING ZERO IN MPAC +2.
000046:
000047:    6021           00006        DLOAD              EXTEND
000048:    6022           50116                           INDEX    ADDRWD
000049:    6023           30001                           DCA      0                                     #  LOAD DP C(C(ADDRWD)) INTO MPAC,MPAX +1
000050:    6024           52155        SLOAD2             DXCH     MPAC
000051:    6025           35003                           CAF      ZERO                                  #  ZERO MPAC +2
000052:
000053:                                                                                                  #  AT THE END OF MOST INSTRUCTIONS, CONTROL IS GIVEN TO DANZIG TO DISPATCH THE NEXT OPERATION.
000054:
000055:    6026           54156                 +2        TS       MPAC       +2                         #  AND DECLARE DP MODE
000056:    6027           54163        NEWMODE            TS       MODE                                  #  PROLOGUE FOR MODE-CHANGING INSTRUCTIONS.
000057:
000058:    6030           30165        DANZIG             CA       BANKSET                               #  SET BBANK BEFORE TESTING NEWJOB SO THAT
000059:    6031           54006                           TS       BBANK                                 #  IT MAY BE SAVED DIRECTLY BY CHANJOB.
000060:
000061:    6032           10023        NOIBNKSW           CCS      EDOP                                  #  SEE IF AN ORDER CODE IS LEFT OVER FROM
000062:    6033           16046                           TCF      OPJUMP                                #  THE LAST PAIR RETRIEVED. IF SO, EXECUTE.
000063:                                                                                                  #  EDOP IS SET TO ZERO ON ITS RE-EDITING.
000064:
000065:    6034           10067                           CCS      NEWJOB                                #  SEE IF A JOB OF HIGHER PRIORITY IS
000066:    6035           15171                           TCF      CHANG2                                #  PRESENT, AND IF SO, CHANGE JOBS.
000067:
000068:    6036           24164                           INCR     LOC                                   #  ADVANCE THE LOCATION COUNTER.
000069:                                                                                                  #           ITRACE (1) REFERS TO "NEWOPS".
000070:    6037           50164        NEWOPS             INDEX    LOC                                   #  ENTRY TO BEGIN BY PICKING OP CODE PAIR.
000071:    6040           30000                           CA       0                                     #  MAY BE AN OPCODE PAIR OR A STORE CODE.
000072:    6041           10000                           CCS      A                                     #  TEST SIGN AND GET DABS(A).
000073:    6042           16331                           TCF      DOSTORE                               #  PROCESS STORE CODE.
000074:
000075:    6043           00177        LOW7               OCT      177
000076:
000077:    6044           54023                           TS       EDOP                                  #  OP CODE PAIR. LEAVE THE OTHER IN EDOP
000078:    6045           76043                           MASK     LOW7                                  #  WHERE  CCS EDOP  WILL HONOR IT NEXT.
000079:
000080:    6046           54020        OPJUMP             TS       CYR                                   #  LOWWD ENTERS HERE IF A RIGHT-HAND OP
000081:    6047           10020                           CCS      CYR                                   #  CODE IS TO BE PROCESSED. TEST PREFICES.
000082:    6050           16216                           TCF      OPJUMP2                               #  TEST SECOND PREFIX BIT.
000083:
000084:    6051           16712                           TCF      EXIT                                  #  +0 OP CODE IS EXIT.
000085:                                                                                                  #  PROCESS ADDRESSES WHICH MAY BE DIRECT, INDEXED, OR REFERENCE THE PUSHDOWN LIST.
000086:
000087:    6052           75001        ADDRESS            MASK     BIT1                                  #  SEE IF ADDRESS IS INDEXED. CYR CONTAINED
000088:    6053           10000                           CCS      A                                     #  400XX, SO BIT 1 IS NOW AS IT WAS IN CYR.
000089:    6054           16115                           TCF      INDEX                                 #  FORM INDEXED ADDRESS.
000090:
000091:    6055           50164        DIRADRES           INDEX    LOC                                   #  LOOK AHEAD TO NEXT WORD TO SEE IF
000092:    6056           40001        OCT40001           CS       1                                     #  ADDRESS IS GIVEN.
000093:    6057           10000                           CCS      A
000094:    6060           16164                           TCF      PUSHUP                                #  IF NOT.
000095:
000096:    6061           77773        NEG4               DEC      -4         B-14
000097:
000098:    6062           24164                           INCR     LOC                                   #  IF SO, TO SHOW WE PICKED UP A WORD.
000099:    6063           54116                           TS       ADDRWD
000100:
000101:                                                                                                  #  FINAL DIGESTION OF DIRECT ADDRESSES OF OP CODES WITH 01 PREFIX IS DONE HERE.  IN EACH CASE, THE
000102:                                                                                                  #  REQUIRED 12-BIT SUB-ADDRESS IS LEFT IN ADDRWD, WITH ANY REQUIRED E OR F BANK SWITCHING DONE. ADDRESSES LESS
000103:                                                                                                  #  THAN 45D ARE TAKEN TO BE RELATIVE TO THE WORK AREA. THE OP CODE IS NOW IN BITS 1-5 OF CYR WITH BIT 14 = 1.
000104:
000105:    6064           66220                           AD       -ENDVAC                               #  SEE IF ADDRESS RELATIVE TO WORK AREA.
000106:    6065           10000                           CCS      A
000107:    6066           67676                           AD       -ENDERAS                              #  IF NOT, SEE IF IN GENERAL ERASABLE.
000108:    6067           16074                           TCF      IERASTST
000109:
000110:    6070           30120        NETZERO            CA       FIXLOC                                #  IF SO, LEAVE THE MODIFIED ADDRESS IN
000111:    6071           26116                           ADS      ADDRWD                                #  ADDRWD AND DISPATCH.
000112:    6072           50020        ITR15              INDEX    CYR                                   #  THIS INDEX MAKES THE NEXT INSTRUCTION
000113:    6073           76242                           7        INDJUMP    -1                         #  TCF INDJUMP + OP, EDITING CYR.
000114:
000115:    6074           00006        IERASTST           EXTEND
000116:    6075           66105                           BZMF     GEADDR                                #  GO PROCESS GENERAL-ERASABLE ADDRESS.
000117:
000118:    6076           75053                           MASK     LOW10                                 #  FIXED BANK ADDRESS. RESTORE AND ADD B15.
000119:    6077           65053                           AD       LOW10                                 #  SWITCH BANKS AND LEAVE SUBADDRESS IN
000120:    6100           56116                           XCH      ADDRWD                                #  ADDRWD FOR OPERAND RETRIEVAL. (THIS
000121:    6101           60115                           AD       INTBIT15                              #  METHOD PRECLUDES USE OF THE LAST
000122:    6102           54004                           TS       FBANK                                 #  LOCATION IN EACH FBANK.)
000123:    6103           50020        ITR12              INDEX    CYR
000124:    6104           76242                           7        INDJUMP    -1
000125:
000126:    6105           74350        GEADDR             MASK     LOW8
000127:    6106           65037                           AD       OCT1400
000128:    6107           56116                           XCH      ADDRWD
000129:    6110           54003                           TS       EBANK
000130:    6111           50020        ITR10              INDEX    CYR
000131:    6112           76242                           7        INDJUMP    -1
000132:
000133:                                                                                                  #  THE FOLLOWING ROUTINE PROCESSES INTERPRETIVE INDEXED ADDRESSES. AN INTERPRETER INDEX REGISTER MAY
000134:                                                                                                  #  CONTAIN THE ADDRESS OF ANY ERASABLE REGISTER (0-42 BEING RELATIVE TO THE VAC AREA) OR ANY INTERPRETIVE PROGRAM
000135:                                                                                                  #  BANK, OR ANY INTEGER IN THAT RANGE.
000136:
000137:    6113           37666        DODLOAD*           CAF      DLOAD*                                #  STODL* COMES HERE TO PROCESS LOAD ADR.
000138:    6114           54020                 +1        TS       CYR                                   #  (STOVL* ENTERS HERE).
000139:    6115           30120        INDEX              CA       FIXLOC                                #  SET UP INDEX LOCATION.
000140:    6116           54130                           TS       INDEXLOC
000141:    6117           24164                           INCR     LOC                                   #  (ADDRESS ALWAYS GIVEN).
000142:    6120           50164                           INDEX    LOC
000143:    6121           40000                           CS       0
000144:    6122           10000                           CCS      A                                     #  INDEX 2 IF ADDRESS STORED COMPLEMENTED.
000145:    6123           24130                           INCR     INDEXLOC
000146:    6124           16125                           NOOP
000147:
000148:    6125           54116                           TS       ADDRWD                                #  14 BIT ADDRESS TO ADDRWD.
000149:    6126           77675                           MASK     HIGH4                                 #  IF ADDRESS GREATER THAN 2K, ADD INTBIT15
000150:    6127           00006                           EXTEND
000151:    6130           16133                           BZF      INDEX2
000152:    6131           30115                           CA       INTBIT15
000153:    6132           26116                           ADS      ADDRWD
000154:
000155:    6133           50130        INDEX2             INDEX    INDEXLOC
000156:    6134           40046                           CS       X1
000157:    6135           26116                           ADS      ADDRWD                                #  DO AUGMENT, IGNORING AND CORRECTING OVF.
000158:
000159:    6136           77677                           MASK     HIGH9                                 #  SEE IF ADDRESS IS IN WORK AREA.
000160:    6137           00006                           EXTEND
000161:    6140           16153                           BZF      INDWORK
000162:    6141           77675                           MASK     HIGH4                                 #  SEE IF IN FIXED BANK.
000163:    6142           00006                           EXTEND
000164:    6143           16155                           BZF      INDERASE
000165:
000166:    6144           30116                           CA       ADDRWD                                #  IN FIXED - SWITCH BANKS AND CREATE
000167:    6145           54004                           TS       FBANK                                 #  SUB-ADDRESS.
000168:    6146           75053                           MASK     LOW10
000169:    6147           64767                           AD       2K
000170:    6150           54116                           TS       ADDRWD
000171:    6151           50020        ITR11              INDEX    CYR
000172:    6152           36242                           3        INDJUMP    -1
000173:
000174:    6153           30120        INDWORK            CA       FIXLOC                                #  MAKE ADDRWD RELATIVE TO WORK AREA.
000175:    6154           16161                           TCF      ITR13      -1
000176:
000177:    6155           35037        INDERASE           CA       OCT1400
000178:    6156           56116                           XCH      ADDRWD
000179:    6157           54003                           TS       EBANK
000180:    6160           74350                           MASK     LOW8
000181:    6161           26116                 -1        ADS      ADDRWD
000182:    6162           50020        ITR13              INDEX    CYR
000183:    6163           36242                           3        INDJUMP    -1
000184:
000185:                                                                                                  #  PUSH-UP ROUTINES. WHEN NO OPERAND ADDRESS IS GIVEN, THE APPROPRIATE OPERAND IS TAKEN FROM THE PUSH-DOWN
000186:                                                                                                  #  LIST. IN MOST CASES THE MODE OF THE RESULT (VECTOR OR SCALAR) OF THE LAST ARITHMETIC OPERATION PERFORMED
000187:                                                                                                  #  IS THE SAME AS THE TYPE OF OPERAND DESIRED (ALL ADD/SUBTRACT ETC.). EXCEPTIONS TO THIS GENERAL RULE ARE LISTED
000188:                                                                                                  #  BELOW (NOTE THAT IN EVERY CASE THE MODE REGISTER IS LEFT INTACT):
000189:
000190:                                                                                                  #        1.      VXSC AND V/SC WANT THE OPPOSITE TYPE OF OPERAND, E.G., IF THE LAST OPERATION YIELDED A VECTOR
000191:                                                                                                  #                RESULT, VXSC WANTS A SCALAR.
000192:
000193:                                                                                                  #        2.      THE LOAD CODES SHOULD LOAD THE ACCUMULATOR INDEPENDENT OF THE RESULT OF THE LAST OPERATION. THIS
000194:                                                                                                  #                INCLUDES VLOAD, DLOAD, TLOAD, PDDL, AND PDVL (NO PUSHUP WITH SLOAD).
000195:
000196:                                                                                                  #        3.      SOME ARITHMETIC OPERATIONS REQUIRE A STANDARD TYPE OF OPERAND REGARDLESS OF THE PREVIOUS OPERATION.
000197:                                                                                                  #                THIS INCLUDES SIGN WANTING DP AND TAD REQUIRING TP.
000198:
000199:    6164           34351        PUSHUP             CAF      OCT23                                 #  IF THE LOW 5 BITS OF CYR ARE LESS THAN
000200:    6165           70020                           MASK     CYR                                   #  20, THIS OP REQUIRES SPECIAL ATTENTION.
000201:    6166           66171                           AD       -OCT10                                #  (NO -0).
000202:    6167           10000                           CCS      A
000203:    6170           16202                           TCF      REGUP                                 #  FOR ALL CODES GREATER THAN OCT 7.
000204:
000205:    6171           77767        -OCT10             OCT      -10
000206:
000207:    6172           66061                           AD       NEG4                                  #  WE NOW HAVE 7 - OP CODE(MOD4).  SEE IF
000208:    6173           10000                           CCS      A                                     #  THE OP CODE (MOD4) IS THREE (REVERSE).
000209:    6174           50000                           INDEX    A                                     #  NO - THE MODE IS DEFINITE. PICK UP THE
000210:    6175           46213                           CS       NO.WDS
000211:    6176           16204                           TCF      REGUP      +2
000212:
000213:    6177           50163                           INDEX    MODE                                  #  FOR VXSC AND V/SC WE WANT THE REQUIRED
000214:    6200           46211                           CS       REVCNT                                #  PUSHLOC DECREMENT WITHOUT CHANGING THE
000215:    6201           16204                           TCF      REGUP      +2                         #  MODE AT THIS TIME.
000216:
000217:    6202           50163        REGUP              INDEX    MODE                                  #  MOST ALL OP CODES PUSHUP HERE.
000218:    6203           46213                           CS       NO.WDS
000219:    6204           26166                 +2        ADS      PUSHLOC
000220:    6205           54116                           TS       ADDRWD
000221:    6206           50020        ITR14              INDEX    CYR
000222:    6207           76242                           7        INDJUMP    -1                         #  (THE INDEX MAKES THIS A TCF.)
000223:
000224:    6210           00002                           OCT      2                                     #  REVERSE PUSHUP DECREMENT. VECTOR TAKES 2
000225:    6211           00006        REVCNT             OCT      6                                     #  WORDS, SCALAR TAKES 6.
000226:    6212           00006                           OCT      6
000227:    6213           00002        NO.WDS             OCT      2                                     #  CONVENTIONAL DECREMENT IS 6 WORDS VECTOR
000228:    6214           00003        OCTAL3             OCT      3                                     #  2 IN DP, AND 3 IN TP.
000229:    6215           00006                           OCT      6
000230:
000231:                                                                                                  #  TEST THE SECOND PREFIX BIT TO SEE IF THIS IS A MISCELLANEOUS OR A UNARY/SHORT SHIFT OPERATION.
000232:
000233:    6216           10020        OPJUMP2            CCS      CYR                                   #  TEST SECOND PREFIX BIT.
000234:    6217           16232                           TCF      OPJUMP3                               #  TEST THIRD BIT TO SEE IF UNARY OR SHIFT.
000235:
000236:    6220           77722        -ENDVAC            DEC      -45        B-14
000237:
000238:                                                                                                  #  THE FOLLOWING ROUTINE PROCESSES ADDRESSES OF SUFFIX CLASS 10. THEY ARE BASICALLY WORK AREA ADDRESSES
000239:                                                                                                  #  IN THE RANGE 0 - 52, ERASABLE ECADR CONSTANTS FROM 100 - 3777, AND FCADRS ABOVE THAT. ALL 15 BITS ARE AVAILABLE
000240:                                                                                                  #  IN CONTRAST TO SUFFIX 1, IN WHICH ONLY THE LOW ORDER 14 ARE AVAILABLE.
000241:
000242:    6221           24164        15BITADR           INCR     LOC                                   #  (ENTRY HERE FROM STCALL).
000243:    6222           50164                           INDEX    LOC                                   #  PICK UP ADDRESS WORD.
000244:    6223           30000                           CA       0
000245:    6224           54117                           TS       POLISH                                #  WE MAY NEED A SUBADDRESS LATER.
000246:
000247:    6225           35054                           CAF      LOW7+2K                               #  THESE INSTRUCTIONS ARE IN BANK 1.
000248:    6226           54004                           TS       FBANK
000249:    6227           70020                           MASK     CYR
000250:    6230           50000        ITR7               INDEX    A
000251:    6231           16303                           TCF      MISCJUMP
000252:
000253:                                                                                                  #  COMPLETE THE DISPATCHING OF UNARY AND SHORT SHIFT OPERATIONS.
000254:
000255:    6232           54004        OPJUMP3            TS       FBANK                                 #  CALL IN BANK 0 (BITS 11-15 OF A ARE 0.)
000256:
000257:    6233           10020                           CCS      CYR                                   #  TEST THIRD PREFIX BIT.
000258:    6234           50000                           INDEX    A                                     #  THE DECREMENTED UNARY CODE IS IN BITS
000259:    6235           12000                           TCF      UNAJUMP                               #  1-4 OF A (ZERO, EXIT, HAS BEEN DETECTED)
000260:
000261:    6236           10163                           CCS      MODE                                  #  ITS A SHORT SHIFT CODE. SEE IF PRESENT
000262:    6237           12017                           TCF      SHORTT                                #  SCALAR OR VECTOR.
000263:    6240           12017                           TCF      SHORTT
000264:    6241           12121                           TCF      SHORTV                                #  CALLS THE APPROPRIATE ROUTINE.
000265:
000266:    6242     4344               FBANKMSK           EQUALS   BANKMASK
000267:    6242           00122        LVBUF              ADRES    VBUF
000268:
000269:                                                                                                  #  THE FOLLOWING IS THE JUMP TABLE FOR OP CODES WHICH MAY HAVE INDEXABLE ADDRESSES OR MAY PUSH UP.
000270:
000271:    6243           16454        INDJUMP            TCF      VLOAD                                 #  00 - LOAD MPAC WITH A VECTOR.
000272:    6244           17040                           TCF      TAD                                   #  01 - TRIPLE PRECISION ADD TO MPAC.
000273:    6245           17611                           TCF      SIGN                                  #  02 - COMPLEMENT MPAC (V OR SC) IF X NEG.
000274:    6246           17335                           TCF      VXSC                                  #  03 - VECTOR TIMES SCALAR.
000275:    6247           16652                           TCF      CGOTO                                 #  04 - COMPUTED GO TO.
000276:    6250           16437                           TCF      TLOAD                                 #  05 - LOAD MPAC WITH TRIPLE PRECISION.
000277:    6251           16021                           TCF      DLOAD                                 #  06 - LOAD MPAC WITH A DP SCALAR.
000278:    6252           17560                           TCF      V/SC                                  #  07 - VECTOR DIVIDED BY SCALAR.
000279:
000280:    6253           16450                           TCF      SLOAD                                 #  10 - LOAD MPAC IN SINGLE PRECISION.
000281:    6254           16567                           TCF      SSP                                   #  11 - SET SINGLE PRECISION INTO X.
000282:    6255           16472                           TCF      PDDL                                  #  12 - PUSH DOWN MPAC AND RE-LOAD IN DP.
000283:    6256           17270                           TCF      MXV                                   #  13 - MATRIX POST-MULTIPLIED BY VECTOR.
000284:    6257           16526                           TCF      PDVL                                  #  14 - PUSH DOWN AND VECTOR LOAD.
000285:    6260           16575                           TCF      CCALL                                 #  15 - COMPUTED CALL.
000286:    6261           17273                           TCF      VXM                                   #  16 - MATRIX PRE-MULTIPLIED BY VECTOR.
000287:    6262           17552                           TCF      TSLC                                  #  17 - NORMALIZE MPAC (SCALAR ONLY).
000288:
000289:    6263           17530                           TCF      DMPR                                  #  20 - DP MULTIPLY AND ROUND.
000290:    6264           17533                           TCF      DDV                                   #  21 - DP DIVIDE BY.
000291:    6265           17537                           TCF      BDDV                                  #  22 - DP DIVIDE INTO.
000292:    6266           17555                           TCF      GSHIFT                                #  23 - GENERAL SHIFT INSTRUCTION.
000293:    6267           16720                           TCF      VAD                                   #  24 - VECTOR ADD.
000294:    6270           16716                           TCF      VSU                                   #  25 - VECTOR SUBTRACT.
000295:    6271           17005                           TCF      BVSU                                  #  26 - VECTOR SUBTRACT FROM.
000296:    6272           17265                           TCF      DOT                                   #  27 - VECTOR DOT PRODUCT.
000297:
000298:    6273           17414                           TCF      VXV                                   #  30 - VECTOR CROSS PRODUCT.
000299:    6274           17361                           TCF      VPROJ                                 #  31 - VECTOR PROJECTION.
000300:    6275           16754                           TCF      DSU                                   #  32 - DP SUBTRACT.
000301:    6276           17031                           TCF      BDSU                                  #  33 - DP SUBTRACT FROM.
000302:    6277           16744                           TCF      DAD                                   #  34 - DP ADD.
000303:    6300           16300                           TCF      +0                                    #  35 - AVAILABLE
000304:    6301           17526                           TCF      DMP1                                  #  36 - DP MULTIPLY.
000305:    6302           17547                           TCF      SETPD                                 #  37 - SET PUSH DOWN POINTER (DIRECT ONLY)
000306:
000307:                                                                                                  #  CODES 10 AND 14 MUST NOT PUSH UP. CODE 04 MAY BE USED FOR VECTOR DECLARE BEFORE PUSHUP IF DESIRED.
000308:
000309:                                                                                                  #  THE FOLLOWING JUMP TABLE APPLIES TO INDEX, BRANCH, AND MISCELLANEOUS INSTRUCTIONS.
000310:
000311:    6303           12347        MISCJUMP           TCF      AXT                                   #  00 - ADDRESS TO INDEX TRUE.
000312:    6304           12354                           TCF      AXC                                   #  01 - ADDRESS TO INDEX COMPLEMENTED.
000313:    6305           12357                           TCF      LXA                                   #  02 - LOAD INDEX FROM ERASABLE.
000314:    6306           12363                           TCF      LXC                                   #  03 - LOAD INDEX FROM COMPLEMENT OF ERAS.
000315:    6307           12367                           TCF      SXA                                   #  04 - STORE INDEX IN ERASABLE.
000316:    6310           12375                           TCF      XCHX                                  #  05 - EXCHANGE INDEX WITH ERASABLE.
000317:    6311           12411                           TCF      INCR                                  #  06 - INCREMENT INDEX REGISTER.
000318:    6312           12420                           TCF      TIX                                   #  07 - TRANSFER ON INDEX.
000319:
000320:    6313           12403                           TCF      XAD                                   #  10 - INDEX REGISTER ADD FROM ERASABLE.
000321:    6314           12414                           TCF      XSU                                   #  11 - INDEX SUBTRACT FROM ERASABLE.
000322:    6315           12472                           TCF      BZE/GOTO                              #  12 - BRANCH ZERO AND GOTO.
000323:    6316           12477                           TCF      BPL/BMN                               #  13 - BRANCH PLUS AND BRANCH MINUS.
000324:    6317           12452                           TCF      RTB/BHIZ                              #  14 - RETURN TO BASIC AND BRANCH HI ZERO.
000325:    6320           12512                           TCF      CALL/ITA                              #  15 - CALL AND STORE QPRET.
000326:    6321           12521                           TCF      SW/                                   #  16 - SWITCH INSTRUCTIONS AND AVAILABLE.
000327:    6322           12462                           TCF      BOV(B)                                #  17 - BRANCH ON OVERFLOW TO BASIC OR INT.
000328:
000329:                                                                                                  #  THE FOLLOWING JUMP TABLE APPIES TO UNARY INSTRUCTIONS.
000330:
000331: 00,2000                                           SETLOC   INTERB0
000332: 00,2000                                           BANK
000333:
000334: 00,2000                                           COUNT*   $$/INTER
000335: 00,2000           13206        UNAJUMP            TCF      SQRT                                  #  01 - SQUARE ROOT.
000336: 00,2001           13525                           TCF      SINE                                  #  02 - SIN.
000337: 00,2002           13514                           TCF      COSINE                                #  03 - COS.
000338: 00,2003           13605                           TCF      ARCSIN                                #  04 - ARC SIN.
000339: 00,2004           13607                           TCF      ARCCOS                                #  05 - ARC COS.
000340: 00,2005           13173                           TCF      DSQ                                   #  06 - DP SQUARE.
000341: 00,2006           12116                           TCF      ROUND                                 #  07 - ROUND TO DP.
000342:
000343: 00,2007           17624                           TCF      COMP                                  #  10 - COMPLEMENT VECTOR OR SCALAR.
000344: 00,2010           13231                           TCF      VDEF                                  #  11 - VECTOR DEFINE.
000345: 00,2011           13022                           TCF      UNIT                                  #  12 - UNIT VECTOR.
000346: 00,2012           13175                           TCF      ABVALABS                              #  13 - LENGTH OF VECTOR OR MAG OF SCALAR.
000347: 00,2013           13244                           TCF      VSQ                                   #  14 - SQUARE OF LENGTH OF VECTOR.
000348: 00,2014           16323                           TCF      STADR                                 #  15 - PUSH UP ON STORE CODE.
000349: 00,2015           13273                           TCF      RVQ                                   #  16 - RETURN VIA QPRET.
000350: 00,2016           13246                           TCF      PUSH                                  #  17 - PUSH MPAC DOWN.
000351:
000352:                                                                                                  #  SECTION 2     LOAD AND STORE PACKAGE.
000353:
000354:                                                                                                  #  A SET OF EIGHT STORE CODES IS PROVIDED AS THE PRIMARY METHOD OF STORING THE MULTI-PURPOSE
000355:                                                                                                  #  ACCUMULATOR (MPAC). IF IN THE DANZIG SECTION LOC REFERS TO AN ALGEBRAICALLY POSITIVE WORD, IT IS TAKEN AS A
000356:                                                                                                  #  STORE CODE WITH A CORRESPONDING ERASABLE ADDRESS. MOST OF THESE CODES ARE TWO ADDRESS, SPECIFYING THAT THE WORD
000357:                                                                                                  #  FOLLOWING THE STORE CODE IS TO BE USED AS AN ADDRESS FROM WHICH TO RE-LOAD MPAC. FOUR OPTIONS ARE AVAILABLE:
000358:
000359:                                                                                                  #        1. STORE        STORE MPAC. THE E ADDRESS MAY BE INDEXED.
000360:                                                                                                  #        2. STODL        STORE MPAC AND RE-LOAD IT IN DP WITH THE NEXT ADDRESS (THE LOAD MAY BE INDEXED).
000361:                                                                                                  #        3. STOVL        STORE MPAC AND RE-LOAD A VECTOR (AS ABOVE).
000362:                                                                                                  #        4. STCALL       STORE AND DO A CALL (BOTH ADDRESSES MUST BE DIRECT HERE).
000363:
000364:                                                                                                  #  STODL AND STOVL WILL TAKE FROM THE PUSH-DOWN LIST IF NO LOAD ADDRESS IS GIVEN.
000365:
000366:    6000                                           SETLOC   INTERF3
000367:    6000                                           BANK
000368:
000369:    6323                                           COUNT*   $$/INTER
000370:    6323           30165        STADR              CA       BANKSET                               #  THE STADR CODE (PUSHUP UP ON STORE
000371:    6324           54004                           TS       FBANK                                 #  ADDRESS) ENTERS HERE.
000372:    6325           24164                           INCR     LOC
000373:    6326           50164        ITR1               INDEX    LOC                                   #  THE STORECODE WAS STORED COMPLEMENTED TO
000374:    6327           40000                           CS       0                                     #  MAKE IT LOOK LIKE AN OPCODE PAIR.
000375:    6330           67702                           AD       NEGONE                                #  (YUL CANT REMOVE 1 BECAUSE OF EARLY CCS)
000376:
000377:    6331           54116        DOSTORE            TS       ADDRWD
000378:    6332           74347                           MASK     LOW11                                 #  ENTRY FROM DISPATCHER. SAVE THE ERASABLE
000379:    6333           56116                           XCH      ADDRWD                                #  ADDRESS AND JUMP ON THE STORE CODE NO.
000380:    6334           77656                           MASK     B12T14
000381:    6335           00006                           EXTEND
000382:    6336           74775                           MP       BIT5                                  #  EACH TRANSFER VECTOR ENTRY IS TWO WORDS.
000383:    6337           50000        ITR0               INDEX    A
000384:    6340           16341                           TCF      STORJUMP
000385:
000386:                                                                                                  #  STORE CODE JUMP TABLE. CALLS THE APPROPRIATE STORING ROUTINE AND EXITS TO DANZIG OR TO ADDRESS WITH
000387:                                                                                                  #  A SUPPLIED OPERATION CODE.
000388:
000389:                                                                                                  #  STORE STORE,1 AND STORE,2 RETURN TO DANZIG, THUS RESETTING THE EBANK TO ITS STATE AT INTPRET.
000390:
000391:    6341           06371        STORJUMP           TC       STORE                                 #  STORE.
000392:    6342           16030                           TCF      DANZIG                                #  PICK UP NEW OP CODE(S).
000393:    6343           06363                           TC       STORE,1
000394:    6344           16030                           TCF      DANZIG
000395:    6345           06366                           TC       STORE,2
000396:    6346           16030                           TCF      DANZIG
000397:
000398:    6347           06371                           TC       STORE                                 #  STODL.
000399:    6350           16427                           TCF      DODLOAD
000400:
000401:    6351           06371                           TC       STORE                                 #  STODL WITH INDEXED LOAD ADDRESS.
000402:    6352           16113                           TCF      DODLOAD*
000403:
000404:    6353           06371                           TC       STORE                                 #  STOVL.
000405:    6354           16432                           TCF      DOVLOAD
000406:
000407:    6355           06371                           TC       STORE                                 #  STOVL WITH INDEXED LOAD ADDRESS.
000408:    6356           16435                           TCF      DOVLOAD*
000409:    6357           06371                           TC       STORE                                 #  STOTC.
000410:    6360           35013                           CAF      CALLCODE
000411:    6361           54020                           TS       CYR
000412:    6362           16221                           TCF      15BITADR                              #  GET A 15 BIT ADDRESS.
000413:
000414:                                                                                                  #  STORE CODE ADDRESS PROCESSOR.
000415:
000416:    6363           50120        STORE,1            INDEX    FIXLOC
000417:    6364           40046                           CS       X1
000418:    6365           16370                           TCF      PRESTORE
000419:
000420:    6366           50120        STORE,2            INDEX    FIXLOC
000421:    6367           40047                           CS       X2
000422:    6370           26116        PRESTORE           ADS      ADDRWD                                #  RESULTANT ADDRESS IS IN ERASABLE.
000423:
000424:    6371           40116        STORE              CS       ADDRWD
000425:    6372           65020                           AD       DEC45
000426:    6373           10000                           CCS      A                                     #  DOES THE ADDRESS POINT TO THE WORK AREA?
000427:    6374           30120                           CA       FIXLOC                                #  YES.
000428:    6375           16402                           TCF      AHEAD5
000429:    6376           35037                           CA       OCT1400                               #  NO.  SET EBANK & MAKE UP SUBADDRESS.
000430:    6377           56116                           XCH      ADDRWD
000431:    6400           54003                           TS       EBANK
000432:    6401           74350                           MASK     LOW8
000433:    6402           26116        AHEAD5             ADS      ADDRWD
000434:
000435:                                                                                                  #  STORING ROUTINES. STORE DP, TP, OR VECTOR AS INDICATED BY MODE.
000436:
000437:    6403           00006        STARTSTO           EXTEND                                         #  MPAC,+1 MUST BE STORED IN ANY EVENT.
000438:                                                                                                  #  ITRACE (5) REFERS TO "STARTSTO".
000439:    6404           30155                           DCA      MPAC
000440:    6405           50116                           INDEX    ADDRWD
000441:    6406           52001                           DXCH     0
000442:
000443:    6407           10163                           CCS      MODE
000444:    6410           16423                           TCF      TSTORE
000445:    6411           00002                           TC       Q
000446:
000447:    6412           00006        VSTORE             EXTEND
000448:    6413           30160                           DCA      MPAC       +3
000449:    6414           50116                           INDEX    ADDRWD
000450:    6415           52003                           DXCH     2
000451:
000452:    6416           00006                           EXTEND
000453:    6417           30162                           DCA      MPAC       +5
000454:    6420           50116                           INDEX    ADDRWD
000455:    6421           52005                           DXCH     4
000456:    6422           00002                           TC       Q
000457:
000458:    6423           30156        TSTORE             CA       MPAC       +2
000459:    6424           50116                           INDEX    ADDRWD
000460:    6425           54002                           TS       2
000461:    6426           00002                           TC       Q
000462:
000463:                                                                                                  #  ROUTINES TO BEGIN PROCESSING OF THE SECOND ADDRESS ASSOCIATED WITH ALL STORE-TYPE CODES EXCEPT STORE
000464:                                                                                                  #  ITSELF.
000465:
000466:    6427           37665        DODLOAD            CAF      DLOADCOD
000467:    6430           54020                           TS       CYR
000468:    6431           16055                           TCF      DIRADRES                              #  GO GET A DIRECT ADDRESS.
000469:
000470:    6432           34763        DOVLOAD            CAF      VLOADCOD
000471:    6433           54020                           TS       CYR
000472:    6434           16055                           TCF      DIRADRES
000473:
000474:    6435           36056        DOVLOAD*           CAF      VLOAD*
000475:    6436           16114                           TCF      DODLOAD*   +1                         #  PROLOGUE TO INDEX ROUTINE.
000476:
000477:                                                                                                  #  THE FOLLOWING LOAD INSTRUCTIONS ARE PROVIDED FOR LOADING THE MULTI-PURPOSE ACCUMULATOR MPAC.
000478:
000479:    6437           50116        TLOAD              INDEX    ADDRWD
000480:    6440           30002                           CA       2                                     #  LOAD A TRIPLE PRECISION ARGUMENT INTO
000481:    6441           54156                           TS       MPAC       +2                         #  THE FIRST THREE MPAC REGISTERS, WITH THE
000482:    6442           00006                           EXTEND                                         #  CONTENTS OF THE OTHER FOUR IRRELEVANT.
000483:    6443           50116                           INDEX    ADDRWD
000484:    6444           30001                           DCA      0
000485:    6445           52155                           DXCH     MPAC
000486:    6446           35001        TMODE              CAF      ONE
000487:    6447           16027                           TCF      NEWMODE                               #  DECLARE TRIPLE PRECISION MODE.
000488:
000489:    6450           22007        SLOAD              ZL                                             #  LOAD A SINGLE PRECISION NUMBER INTO
000490:    6451           50116                           INDEX    ADDRWD                                #  MPAC, SETTING MPAC+1,2 TO ZERO. THE
000491:    6452           30000                           CA       0                                     #  CONTENTS OF THE REMAINING MPAC REGISTERS
000492:    6453           16024                           TCF      SLOAD2                                #  ARE IRRELEVANT.
000493:
000494:    6454           00006        VLOAD              EXTEND                                         #  LOAD A DOUBLE PRECISION VECTOR INTO
000495:    6455           50116                           INDEX    ADDRWD                                #  MPAC,+1, MPAC+3,4, AND MPAC+5,6. THE
000496:    6456           30001                           DCA      0                                     #  CONTENTS OF MPAC +2 ARE IRRELEVANT.
000497:    6457           52155                           DXCH     MPAC
000498:
000499:    6460           00006        ENDVLOAD           EXTEND                                         #  PDVL COMES HERE TO FINISH UP FOR DP, TP.
000500:    6461           50116                           INDEX    ADDRWD
000501:    6462           30003                           DCA      2
000502:    6463           52160                           DXCH     MPAC       +3
000503:
000504:    6464           00006                 +4        EXTEND                                         #  TPDVL FINISHES HERE.
000505:    6465           50116                           INDEX    ADDRWD
000506:    6466           30005                           DCA      4
000507:    6467           52162                           DXCH     MPAC       +5
000508:
000509:    6470           45001        VMODE              CS       ONE                                   #  DECLARE VECTOR MODE.
000510:    6471           16027                           TCF      NEWMODE
000511:
000512:                                                                                                  #  THE FOLLOWING INSTRUCTIONS ARE PROVIDED FOR STORING OPERANDS IN THE PUSHDOWN LIST:
000513:                                                                                                  #        1.      PUSH            PUSHDOWN AND NO LOAD.
000514:                                                                                                  #        2.      PDDL            PUSHDOWN AND DOUBLE PRECISION LOAD.
000515:                                                                                                  #        3.      PDVL            PUSHDOWN AND VECTOR LOAD.
000516:
000517:    6472           00006        PDDL               EXTEND
000518:    6473           50116                           INDEX    ADDRWD                                #  LOAD MPAC,+1, PUSHING THE FORMER
000519:    6474           30001                           DCA      0                                     #  CONTENTS DOWN.
000520:    6475           52155                           DXCH     MPAC
000521:    6476           50166                           INDEX    PUSHLOC
000522:    6477           52001                           DXCH     0
000523:
000524:    6500           50163                           INDEX    MODE                                  #  ADVANCE THE PUSHDOWN POINTER APPRO-
000525:    6501           36213                           CAF      NO.WDS                                #  PRIATELY.
000526:    6502           26166                           ADS      PUSHLOC
000527:
000528:    6503           10163                           CCS      MODE
000529:    6504           16521                           TCF      ENDTPUSH
000530:    6505           16517                           TCF      ENDDPUSH
000531:
000532:    6506           54163                           TS       MODE                                  #  NOW DP.
000533:    6507           54156        ENDVPUSH           TS       MPAC       +2
000534:    6510           52160                           DXCH     MPAC       +3                         #  PUSH DOWN THE REST OF THE VECTOR HERE.
000535:    6511           50166                           INDEX    PUSHLOC
000536:    6512           51775                           DXCH     0          -4
000537:
000538:    6513           52162                           DXCH     MPAC       +5
000539:    6514           50166                           INDEX    PUSHLOC
000540:    6515           51777                           DXCH     0          -2
000541:
000542:    6516           16030                           TCF      DANZIG
000543:
000544:    6517           54156        ENDDPUSH           TS       MPAC       +2                         #  SET MPAC +2 TO ZERO AND EXIT ON DP.
000545:    6520           16030                           TCF      DANZIG
000546:
000547:    6521           54163        ENDTPUSH           TS       MODE
000548:    6522           56156                           XCH      MPAC       +2                         #  ON TRIPLE, SET MPAC +2 TO ZERO, PUSHING
000549:    6523           50166                 +2        INDEX    PUSHLOC                               #  DOWN THE OLD CONTENTS
000550:    6524           53777                           TS       0          -1
000551:    6525           16030                           TCF      DANZIG
000552:
000553:                                                                                                  #  PDVL - PUSHDOWN AND VECTOR LOAD.
000554:
000555:    6526           00006        PDVL               EXTEND                                         #  RELOAD MPAC AND PUSH DOWN ITS CONTENTS.
000556:    6527           50116                           INDEX    ADDRWD
000557:    6530           30001                           DCA      0
000558:    6531           52155                           DXCH     MPAC
000559:    6532           50166                           INDEX    PUSHLOC
000560:    6533           52001                           DXCH     0
000561:
000562:    6534           50163                           INDEX    MODE                                  #  ADVANCE THE PUSHDOWN POINTER.
000563:    6535           36213                           CAF      NO.WDS
000564:    6536           26166                           ADS      PUSHLOC
000565:
000566:    6537           10163                           CCS      MODE                                  #  TEST PAST MODE.
000567:    6540           16557                           TCF      TPDVL
000568:    6541           16460                           TCF      ENDVLOAD                              #  JUST LOAD LAST FOUR REGISTERS ON DP.
000569:
000570:    6542           00006        VPDVL              EXTEND                                         #  PUSHDOWN AND RE-LOAD LAST TWO COMPONENTS
000571:    6543           50116                           INDEX    ADDRWD
000572:    6544           30003                           DCA      2
000573:    6545           52160                           DXCH     MPAC       +3
000574:    6546           50166                           INDEX    PUSHLOC
000575:    6547           51775                           DXCH     0          -4
000576:
000577:    6550           00006                           EXTEND
000578:    6551           50116                           INDEX    ADDRWD
000579:    6552           30005                           DCA      4
000580:    6553           52162                           DXCH     MPAC       +5
000581:    6554           50166                           INDEX    PUSHLOC
000582:    6555           51777                           DXCH     0          -2
000583:
000584:    6556           16030                           TCF      DANZIG
000585:
000586:    6557           00006        TPDVL              EXTEND                                         #  ON TP, WE MUST LOAD THE Y COMPONENT
000587:    6560           50116                           INDEX    ADDRWD                                #  BEFORE STORING MPAC +2 IN CASE THIS IS A
000588:    6561           30003                           DCA      2                                     #  PUSHUP.
000589:    6562           52160                           DXCH     MPAC       +3
000590:
000591:    6563           30156                           CA       MPAC       +2
000592:    6564           50166                           INDEX    PUSHLOC                               #  IN DP.
000593:    6565           53777                           TS       0          -1
000594:    6566           16464                           TCF      ENDVLOAD   +4
000595:
000596:                                                                                                  #  SSP (STORE SINGLE PRECISION) IS EXECUTED HERE.
000597:
000598:    6567           24164        SSP                INCR     LOC                                   #  PICK UP THE WORD FOLLOWING THE GIVEN
000599:    6570           50164                           INDEX    LOC                                   #  ADDRESS AND STORE IT AT X.
000600:    6571           30000                           CA       0
000601:    6572           50116        STORE1             INDEX    ADDRWD                                #  SOME INDEX AND MISCELLANEOUS OPS END
000602:    6573           54000                           TS       0                                     #  HERE.
000603:    6574           16030                           TCF      DANZIG
000604:
000605:                                                                                                  #  SEQUENCE CHANGING AND SUBROUTINE CALLING OPTIONS.
000606:
000607:                                                                                                  #  THE FOLLOWING OPERATIONS ARE AVAILABLE FOR SEQUENCING CHANGING, BRANCHING, AND CALLING SUBROUTINES:
000608:
000609:                                                                                                  #        1.      GOTO            GO TO.
000610:                                                                                                  #        2.      CALL            CALL SUBROUTINE SETTING QPRET.
000611:                                                                                                  #        3.      CGOTO           COMPUTED GO TO.
000612:                                                                                                  #        4.      CCALL           COMPUTED CALL.
000613:                                                                                                  #        7.      BPL             BRANCH IF MPAC POSITIVE OR ZERO.
000614:                                                                                                  #        8.      BZE             BRANCH IF MPAC ZERO.
000615:                                                                                                  #        9.      BMN             BRANCH IF MPAC NEGATIVE NON-ZERO.
000616:
000617:    6575           24164        CCALL              INCR     LOC                                   #  MAINTAIN LOC FOR QPRET COMPUTATION.
000618:    6576           50164                           INDEX    LOC
000619:    6577           30000                           CAF      0                                     #  GET BASE ADDRESS OF CADR LIST.
000620:    6600           50116                           INDEX    ADDRWD
000621:    6601           60000                           AD       0                                     #  ADD INCREMENT.
000622:    6602           54004                           TS       FBANK                                 #  SELECT DESIRED CADR.
000623:    6603           75053                           MASK     LOW10
000624:    6604           50000                           INDEX    A
000625:    6605           32000                           CAF      10000
000626:    6606           54117                           TS       POLISH
000627:
000628:    6607           30165        CALL               CA       BANKSET                               #  FOR ANY OF THE CALL OPTIONS, MAKE UP THE
000629:    6610           74344                           MASK     BANKMASK                              #  ADDRESS OF THE NEXT OP-CODE PAIR/STORE
000630:    6611           64344                           AD       BANKMASK                              #  CODE AND LEAVE IT IN QPRET.  NOTE THAT
000631:    6612           60164                           AD       LOC                                   #  BANKMASK = -(2000 - 1).
000632:    6613           50120                           INDEX    FIXLOC
000633:    6614           54052                           TS       QPRET
000634:
000635:    6615           30117        GOTO               CA       POLISH                                #  BASIC BRANCHING SEQUENCE.
000636:    6616           77675                 +1        MASK     HIGH4
000637:    6617           00006                           EXTEND
000638:    6620           16631                           BZF      GOTOERS                               #  SEE IF ADDRESS POINTS TO FIXED OR ERAS.
000639:    6621           30165                 +4        CA       BANKSET                               #  SET EBANK PART OF BBANK. NEXT, SET UP
000640:    6622           54006                           TS       BBANK                                 #  FBANK. THE COMBINATION IS PICKED UP &
000641:    6623           30117                           CA       POLISH                                #  PUT INTO BANKSET AT INTPRET +2.
000642:    6624           54004                           TS       FBANK
000643:    6625           75053                           MASK     LOW10
000644:    6626           64767                           AD       2K
000645:    6627           54164                           TS       LOC
000646:    6630           16011                           TCF      INTPRET    +3
000647:
000648:    6631  E3,1400                                  EBANK=   1400                                  #  SO YUL DOESN'T CUSS THE "CA 1400" BELOW.
000649:
000650:    6631           30117        GOTOERS            CA       POLISH                                #  THE GIVEN ADDRESS IS IN ERASABLE - SEE
000651:    6632           66220                           AD       -ENDVAC                               #  IF RELATIVE TO THE WORK AREA.
000652:    6633           10000                           CCS      A
000653:    6634           30117                           CA       POLISH                                #  GENERAL ERASABLE.
000654:    6635           16644                           TCF      GOTOGE
000655:    6636           30120                           CA       FIXLOC                                #  WORK AREA.
000656:    6637           60117                           AD       POLISH
000657:    6640           50000                           INDEX    A                                     #  USE THE GIVEN ADDRESS AS THE ADDRESS OF
000658:    6641           30000                           CA       0                                     #  THE BRANCH ADDRESS.
000659:    6642           54117                           TS       POLISH
000660:    6643           16616                           TCF      GOTO       +1                         #  ALLOWS ARBITRARY INDIRECTNESS LEVELS.
000661:
000662:    6644           54003        GOTOGE             TS       EBANK
000663:    6645           74350                           MASK     LOW8
000664:    6646           50000                           INDEX    A                                     #  USE THE GIVEN ADDRESS AS THE ADDRESS OF
000665:    6647           31400                           CA       1400                                  #  THE BRANCH ADDRESS.
000666:    6650           54117                           TS       POLISH
000667:    6651           16616                           TCF      GOTO       +1
000668:
000669:    6652           50164        CGOTO              INDEX    LOC                                   #  COMPUTED GO TO. PICK UP ADDRESS OF CADR
000670:    6653           30001                           CA       1                                     #  LIST.
000671:    6654           50116                           INDEX    ADDRWD                                #  ADD MODIFIER.
000672:    6655           60000                           AD       0
000673:    6656           54004                           TS       FBANK                                 #  SELECT GOTO ADDRESS.
000674:    6657           75053                           MASK     LOW10
000675:    6660           50000                           INDEX    A
000676:    6661           32000                           CA       10000
000677:    6662           54117                           TS       POLISH
000678:    6663           16616                           TCF      GOTO       +1                         #  WITH ADDRESS IN A.
000679:
000680:    6664           30165        SWBRANCH           CA       BANKSET                               #  SWITCH INSTRUCTIONS WHICH ELECT TO
000681:    6665           54004                           TS       FBANK                                 #  BRANCH COME HERE TO DO SO.
000682:    6666           50164                           INDEX    LOC
000683:    6667           30001                           CA       1
000684:    6670           54117                           TS       POLISH
000685:    6671           16616                           TCF      GOTO       +1
000686:
000687:                                                                                                  #  TRIPLE PRECISION BRANCHING ROUTINE. IF CALLING TC IS AT L, RETURN IS AS FOLLOWS:
000688:
000689:                                                                                                  #        L+1     IF MPAC IS GREATER THAN ZERO.
000690:                                                                                                  #        L+2     IF MPAC IS EQUAL TO +0 OR -0.
000691:                                                                                                  #        L+3     IF MPAC IS LESS THAN ZERO.
000692:
000693:    6672           10154        BRANCH             CCS      MPAC
000694:    6673           00002                           TC       Q
000695:    6674           16676                           TCF      +2                                    #  ON ZERO.
000696:    6675           16710                           TCF      NEG
000697:
000698:    6676           10155                           CCS      MPAC       +1
000699:    6677           00002                           TC       Q
000700:    6700           16702                           TCF      +2
000701:    6701           16710                           TCF      NEG
000702:
000703:    6702           10156                           CCS      MPAC       +2
000704:    6703           00002                           TC       Q
000705:    6704           16706                           TCF      +2
000706:    6705           16710                           TCF      NEG
000707:
000708:    6706           50002        Q+1                INDEX    Q
000709:    6707           00001                           TC       1
000710:
000711:    6710           50002        NEG                INDEX    Q                                     #  IF FIRST NON-ZERO REGISTER WAS NEGATIVE.
000712:    6711           00002        TCQ                TC       2
000713:
000714:    6712     6710               Q+2                =        NEG
000715:
000716:                                                                                                  #  ITRACE (3) REFERS TO "EXIT".
000717:
000718:    6712           30165        EXIT               CA       BANKSET                               #  RESTORE USER'S BANK SETTING, AND LEAVE
000719:    6713           54006                           TS       BBANK                                 #  INTERPRETIVE MODE.
000720:    6714           50164                           INDEX    LOC
000721:    6715           00001                           TC       1
000722:
000723:                                                                                                  #  SECTION 3 - ADD/SUBTRACT PACKAGE.
000724:
000725:                                                                                                  #  THE FOLLOWING OPERATIONS ARE PROVIDED FOR ADDING TO AND SUBTRACTING FROM THE MULTI-PURPOSE ACCUMULATOR
000726:                                                                                                  #  MPAC:
000727:
000728:                                                                                                  #        1.      DAD             DOUBLE PRECISION ADD.
000729:                                                                                                  #        2.      DSU             DOUBLE PRECISION SUBTRACT.
000730:                                                                                                  #        3.      BDSU            DOUBLE PRECISION SUBTRACT FROM.
000731:
000732:                                                                                                  #        4.      TAD             TRIPLE PRECISION ADD.
000733:
000734:                                                                                                  #        5.      VAD             VECTOR ADD.
000735:                                                                                                  #        6.      VSU             VECTOR SUBTRACT.
000736:                                                                                                  #        7.      BVSU            VECTOR SUBTRACT FROM.
000737:
000738:                                                                                                  #  THE INTERPRETIVE OVERFLOW INDICATOR OVFIND IS SET NON-ZERO IF OVERFLOW OCCURS IN ANY OF THE ABOVE.
000739:
000740:    6716           34763        VSU                CAF      BIT15                                 #  CHANGES 0 TO DCS.
000741:    6717           16721                           TCF      +2
000742:
000743:    6720           34346        VAD                CAF      PRIO30                                #  CHANGES 0 TO DCA.
000744:    6721           26116                           ADS      ADDRWD
000745:    6722           00006                           EXTEND
000746:    6723           50116                           INDEX    ADDRWD
000747:    6724           00003                           READ     HISCALAR                              #  DCA  2   OR   DCS  2
000748:    6725           20160                           DAS      MPAC       +3
000749:    6726           00006                           EXTEND                                         #  CHECK OVERFLOW.
000750:    6727           16731                           BZF      +2
000751:    6730           06763                           TC       OVERFLWY
000752:
000753:    6731           00006                           EXTEND
000754:    6732           50116                           INDEX    ADDRWD
000755:    6733           00005                           READ     CHAN5                                 #  DCA  4   OR   DCS  4
000756:    6734           20162                           DAS      MPAC       +5
000757:    6735           00006                           EXTEND
000758:    6736           16740                           BZF      +2
000759:    6737           06760                           TC       OVERFLWZ
000760:
000761:    6740           00006                           EXTEND
000762:    6741           50116                           INDEX    ADDRWD
000763:    6742           00001                           READ     LCHAN                                 #  DCA  0   OR   DCS  0
000764:    6743           16747                           TCF      ENDVXV
000765:
000766:    6744           00006        DAD                EXTEND
000767:    6745           50116                           INDEX    ADDRWD
000768:    6746           30001                           DCA      0
000769:    6747           20155        ENDVXV             DAS      MPAC                                  #  VXV FINISHES HERE.
000770:    6750           00006                           EXTEND
000771:    6751           16030                           BZF      DANZIG
000772:
000773:    6752           06766        SETOVF             TC       OVERFLOW
000774:    6753           16030                           TCF      DANZIG
000775:
000776:    6754           00006        DSU                EXTEND
000777:    6755           50116                           INDEX    ADDRWD
000778:    6756           40001                           DCS      0
000779:    6757           16747                           TCF      ENDVXV
000780:
000781:    6760           54001        OVERFLWZ           TS       L                                     #  ENTRY FOR THIRD COMPONENT.
000782:    6761           35004                           CAF      FIVE
000783:    6762           16765                           TCF      +3
000784:
000785:    6763           54001        OVERFLWY           TS       L                                     #  ENTRY FOR SECOND COMPONENT.
000786:    6764           36214                           CAF      THREE
000787:    6765           56001                           XCH      L
000788:
000789:    6766           50000        OVERFLOW           INDEX    A                                     #  ENTRY FOR 1ST COMP OR DP (L=0).
000790:    6767           44762                           CS       LIMITS                                #  PICK UP POSMAX OR NEGMAX.
000791:    6770           54130                           TS       BUF
000792:    6771           00006                           EXTEND
000793:    6772           24000                           AUG      A
000794:    6773           50001                           INDEX    L
000795:    6774           26155                           ADS      MPAC       +1
000796:    6775           54007                           TS       7
000797:    6776           35003                           CAF      ZERO
000798:    6777           60130                           AD       BUF
000799:    7000           50001                           INDEX    L
000800:    7001           26154                           ADS      MPAC
000801:    7002           54007                           TS       7
000802:    7003           00002                           TC       Q                                     #  NO OVERFLOW EXIT.
000803:    7004           17121                           TCF      SETOVF2                               #  SET OVFIND AND EXIT.
000804:
000805:    7005           00006        BVSU               EXTEND
000806:    7006           50116                           INDEX    ADDRWD
000807:    7007           30003                           DCA      2
000808:    7010           52160                           DXCH     MPAC       +3
000809:    7011           00006                           EXTEND
000810:    7012           40001                           DCOM
000811:    7013           20160                           DAS      MPAC       +3
000812:    7014           00006                           EXTEND
000813:    7015           17017                           BZF      +2
000814:    7016           06763                           TC       OVERFLWY
000815:
000816:    7017           00006                           EXTEND
000817:    7020           50116                           INDEX    ADDRWD
000818:    7021           30005                           DCA      4
000819:    7022           52162                           DXCH     MPAC       +5
000820:    7023           00006                           EXTEND
000821:    7024           40001                           DCOM
000822:    7025           20162                           DAS      MPAC       +5
000823:    7026           00006                           EXTEND
000824:    7027           17031                           BZF      +2
000825:    7030           06760                           TC       OVERFLWZ
000826:
000827:    7031           00006        BDSU               EXTEND
000828:    7032           50116                           INDEX    ADDRWD
000829:    7033           30001                           DCA      0
000830:    7034           52155                           DXCH     MPAC
000831:    7035           00006                           EXTEND
000832:    7036           40001                           DCOM
000833:    7037           16747                           TCF      ENDVXV
000834:
000835:                                                                                                  #  TRIPLE PRECISION ADD ROUTINE.
000836:
000837:    7040           00006        TAD                EXTEND
000838:    7041           50116                           INDEX    ADDRWD
000839:    7042           30002                           DCA      1                                     #  ADD MINOR PARTS FIRST.
000840:    7043           20156                           DAS      MPAC       +1
000841:    7044           50116                           INDEX    ADDRWD
000842:    7045           60000                           AD       0
000843:    7046           60154                           AD       MPAC
000844:    7047           54154                           TS       MPAC
000845:    7050           16030                           TCF      DANZIG
000846:
000847:    7051           16752                           TCF      SETOVF                                #  SET OVFIND IF SUCH OCCURS.
000848:
000849:                                                                                                  #  ARITHMETIC SUBROUTINES REQUIRED IN FIXED-FIXED.
000850:
000851:                                                                                                  #        1.  DMPSUB      DOUBLE PRECISION MULTIPLY. MULTIPLY THE CONTENTS OF MPAC,+1 BY THE DP WORD WHOSE ADDRESS
000852:                                                                                                  #                        IS IN ADDRWD AND LEAVE A TRIPLE PRECISION RESULT IN MPAC.
000853:                                                                                                  #        2.  ROUNDSUB    ROUND THE TRIPLE PRECISON CONTENTS OF MPAC TO DOUBLE PRECISION.
000854:                                                                                                  #        3.  DOTSUB      TAKE THE DOT PRODUCT OF THE VECTOR IN MPAC AND THE VECTOR WHOSE ADDRESS IS IN ADDRWD
000855:                                                                                                  #                        AND LEAVE THE TRIPLE PRECISION RESULT IN MPAC.
000856:                                                                                                  #        4.  POLY        USING THE CONTENTS OF MPAC AS A DP ARGUMENT, EVALUATE THE POLYNOMIAL WHOSE DEGREE AND
000857:                                                                                                  #                        COEFFICIENTS IMMEDIATELY FOLLOW THE TC POLY INSTRUCTION (SEE ROUTINE FOR DETAILS.)
000858:
000859:    7052           50002        DMP                INDEX    Q                                     #  BASIC SUBROUTINE FOR USE BY PINBALL, ETC
000860:    7053           30000                           CAF      0                                     #  ADRES OF ARGUMENT FOLLOWS  TC DMP  .
000861:    7054           24002                           INCR     Q
000862:    7055           54116                 -1        TS       ADDRWD                                #  (PROLOGUE FOR SETTING ADDRWD.)
000863:
000864:    7056           50116        DMPSUB             INDEX    ADDRWD                                #  GET MINOR PART OF OPERAND AT C(ADDRWD).
000865:    7057           30001                           CA       1
000866:    7060           54156                           TS       MPAC       +2                         #  THIS WORKS FOR SQUARING MPAC AS WELL.
000867:    7061           35003                           CAF      ZERO                                  #  SET MPAC +1 TO ZERO SO WE CAN ACCUMULATE
000868:    7062           56155                           XCH      MPAC       +1                         #  THE PARTIAL PRODUCTS WITH DAS
000869:    7063           54135                           TS       MPTEMP                                #  INSTRUCTIONS.
000870:    7064           00006                           EXTEND
000871:    7065           70156                           MP       MPAC       +2                         #  MINOR OF MPAC X MINOR OF C(ADDRWD).
000872:
000873:    7066           56156                           XCH      MPAC       +2                         #  DISCARD MINOR PART OF ABOVE RESULT AND
000874:    7067           00006                           EXTEND                                         #  FORM MAJOR OF MPAC X MINOR OF C(ADDRWD).
000875:    7070           70154                           MP       MPAC
000876:    7071           20156                           DAS      MPAC       +1                         #  GUARANTEED NO OVERFLOW.
000877:
000878:    7072           50116                           INDEX    ADDRWD                                #  GET MAJOR PART OF ARGUMENT AT C(ADDRWD).
000879:    7073           30000                           CA       0
000880:    7074           56135                           XCH      MPTEMP                                #  SAVE AND BRING OUT MINOR OF MPAC.
000881:    7075           00006        DMPSUB2            EXTEND
000882:    7076           70135                           MP       MPTEMP                                #  MAJOR OF C(ADDRWD) X MINOR OF MPAC.
000883:    7077           20156                           DAS      MPAC       +1                         #  ACCUMULATE, SETTING A TO NET OVERFLOW.
000884:
000885:    7100           56154                           XCH      MPAC                                  #  SETTING MPAC TO 0 OR +-1.
000886:    7101           00006                           EXTEND
000887:    7102           70135                           MP       MPTEMP                                #  MAJOR OF MPAC X MAJOR OF C(ADDRWD).
000888:    7103           20155                           DAS      MPAC                                  #  GUARANTEED NO OVERFLOW.
000889:    7104           00002                           TC       Q                                     #  49 MCT = .573 MS. INCLUDING RETURN.
000890:
000891:                                                                                                  #  ROUND MPAC TO DOUBLE PRECISION, SETTING OVFIND ON THE RARE EVENT OF OVERFLOW.
000892:
000893:    7105           35003        ROUNDSUB           CAF      ZERO                                  #  SET MPAC +2 = 0 FOR SCALARS AND CHANGE
000894:    7106           54163                 +1        TS       MODE                                  #  MODE TO DP.
000895:
000896:    7107           56156        VROUND             XCH      MPAC       +2                         #  BUT WE NEEDNT TAKE THE TIME FOR VECTORS.
000897:    7110           60000                           DOUBLE
000898:    7111           54001                           TS       L
000899:    7112           00002                           TC       Q
000900:
000901:    7113           60155                           AD       MPAC       +1                         #  ADD ROUNDING BIT IF MPAC +2 WAS GREATER
000902:    7114           54155                           TS       MPAC       +1                         #  THAN .5 IN MAGNITUDE.
000903:    7115           00002                           TC       Q
000904:
000905:    7116           60154                           AD       MPAC                                  #  PROPAGATE INTERFLOW.
000906:    7117           54154                           TS       MPAC
000907:    7120           00002                           TC       Q
000908:
000909:    7121           54121        SETOVF2            TS       OVFIND                                #  (RARE).
000910:    7122           00002                           TC       Q
000911:
000912:                                                                                                  #  THE DOT PRODUCT SUBROUTINE USUALLY FORMS THE DOT PRODUCT OF THE VECTOR IN MPAC WITH A STANDARD SIX
000913:                                                                                                  #  REGISTER VECTOR WHOSE ADDRESS IS IN ADDRWD. IN THIS CASE C(DOTINC) ARE SET TO 2. VXM, HOWEVER, SETS C(DOTINC) TO
000914:                                                                                                  #  6 SO THAT DOTSUB DOTS MPAC WITH A COLUMN VECTOR OF THE MATRIX IN QUESTION IN THIS CASE.
000915:
000916:    7123           35000        PREDOT             CAF      TWO                                   #  PROLOGUE TO SET DOTINC TO 2.
000917:    7124           54136                           TS       DOTINC
000918:
000919:    7125           00006        DOTSUB             EXTEND
000920:    7126           22137                           QXCH     DOTRET                                #  SAVE RETURN.
000921:    7127           07056                           TC       DMPSUB                                #  DOT X COMPONENTS.
000922:    7130           52160                           DXCH     MPAC       +3                         #  POSITION Y COMPONENT OF MPAC FOR
000923:    7131           52155                           DXCH     MPAC                                  #  MULTIPLICATION WHILE SAVING RESULT IN
000924:    7132           52131                           DXCH     BUF                                   #  THREE WORD BUFFER, BUF.
000925:    7133           30156                           CA       MPAC       +2
000926:    7134           54132                           TS       BUF        +2
000927:
000928:    7135           30136                           CA       DOTINC                                #  ADVANCE ADDRWD TO Y COMPONENT OF
000929:    7136           26116                           ADS      ADDRWD                                #  OTHER ARGUMENT.
000930:    7137           07056                           TC       DMPSUB
000931:    7140           52156                           DXCH     MPAC       +1                         #  ACCUMULATE PARTIAL PRODUCTS.
000932:    7141           20132                           DAS      BUF        +1
000933:    7142           60154                           AD       MPAC
000934:    7143           60130                           AD       BUF
000935:    7144           54130                           TS       BUF
000936:    7145           17147                           TCF      +2
000937:    7146           54121                           TS       OVFIND                                #  IF OVERFLOW OCCURS.
000938:
000939:    7147           52162                           DXCH     MPAC       +5                         #  MULTIPLY Z COMPONENTS.
000940:    7150           52155                           DXCH     MPAC
000941:    7151           30136                           CA       DOTINC
000942:    7152           26116                           ADS      ADDRWD
000943:    7153           07056                           TC       DMPSUB
000944:    7154           52132        ENDDOT             DXCH     BUF        +1                         #  LEAVE FINAL ACCUMULATION IN MPAC.
000945:    7155           20156                           DAS      MPAC       +1
000946:    7156           60154                           AD       MPAC
000947:    7157           60130                           AD       BUF
000948:    7160           54154                           TS       MPAC
000949:    7161           00137                           TC       DOTRET
000950:
000951:    7162           06766                           TC       OVERFLOW                              #  ON OVERFLOW HERE.
000952:    7163           00137                           TC       DOTRET
000953:
000954:                                                                                                  #  DOUBLE PRECISION POLYNOMIAL EVALUATOR
000955:
000956:                                                                                                  #                                  N        N-1
000957:                                                                                                  #        THIS ROUTINE EVALUATES A X  + A   X    + ... + A  X + A  LEAVING THE DP RESULT IN MPAC ON EXIT.
000958:                                                                                                  #                                N      N-1              1      0
000959:
000960:                                                                                                  #  THE ROUTINE HAS TWO ENTRIES
000961:
000962:                                                                                                  #        1. ENTRY THRU POWRSERS. THE COEFFICIENTS MAY BE EITHER IN FIXED OR ERASABLE, THE CALL IS BY
000963:                                                                                                  #           TC POWRSERS, AND THE RETURN IS TO LOC(TC POWRSERS)+1. THE ENTERING DATA MUST BE AS FOLLOWS
000964:
000965:                                                                                                  #                        A       SP      LOC-3           ADDRESS FOR REFERENCING COEF TABLE
000966:                                                                                                  #                        L       SP      N-1             N IS THE DEGREE OF THE POWER SERIES
000967:                                                                                                  #                        MPAC    DP      X               ARGUMENT
000968:
000969:                                                                                                  #                        LOC-2N  DP      A(0)
000970:                                                                                                  #                                ...
000971:                                                                                                  #                        LOC     DP      A(N)
000972:
000973:                                                                                                  #        2. ENTRY THRU POLY. THE CALL TO POLY AND THE ENTERING DATA MUST BE AS FOLLOWS
000974:
000975:                                                                                                  #                        MPAC            DP              X               ARGUMENT
000976:
000977:                                                                                                  #                        LOC             TC              POLY
000978:                                                                                                  #                        LOC+1           SP              N-1
000979:                                                                                                  #                        LOC+2           DP              A(0)
000980:                                                                                                  #                                        ...
000981:                                                                                                  #                        LOC+2N+2        DP              A(N)            RETURN IS TO LOC+2N+4
000982:
000983:    7164           00006        POWRSERS           EXTEND
000984:    7165           22141                           QXCH     POLYRET                               #  RETURN ADDRESS
000985:    7166           54117                           TS       POLISH                                #  POWER SERIES ADDRESS
000986:    7167           22140                           LXCH     POLYCNT                               #  N-1 TO COUNTER
000987:    7170           17201                           TCF      POLYCOM                               #  SKIP SET UP BY POLY
000988:
000989:    7171           50002        POLY               INDEX    Q
000990:    7172           30000                           CAF      0
000991:    7173           54140                           TS       POLYCNT                               #  N-1 TO COUNTER
000992:    7174           60000                           DOUBLE
000993:    7175           60002                           AD       Q
000994:    7176           54117                           TS       POLISH                                #  L(A(N))-3 TO POLISH
000995:    7177           65004                           AD       FIVE
000996:    7200           54141                           TS       POLYRET                               #  STORE RETURN ADDRESS
000997:
000998:    7201           36242        POLYCOM            CAF      LVBUF                                 #  INCOMING X WILL BE MOVED TO VBUF, SO
000999:    7202           54116                           TS       ADDRWD                                #  SET ADDRWD SO DMPSUB WILL MPY BY VBUF.
001000:
001001:    7203           00006                           EXTEND
001002:    7204           50117                           INDEX    POLISH
001003:    7205           30004                           DCA      3
001004:    7206           52155                           DXCH     MPAC                                  #  LOAD A(N) INTO MPAC,
001005:    7207           52123                           DXCH     VBUF                                  #  SAVING X IN VBUF
001006:    7210           17214                           TCF      POLY2
001007:
001008:    7211           54140        POLYLOOP           TS       POLYCNT                               #  SAVE DECREMENTED LOOP COUNTER
001009:    7212           45000                           CS       TWO
001010:    7213           26117                           ADS      POLISH                                #  REGRESS COEFFICIENT POINTER
001011:
001012:    7214           07056        POLY2              TC       DMPSUB                                #  MULTIPLY BY X
001013:    7215           00006                           EXTEND
001014:    7216           50117                           INDEX    POLISH
001015:    7217           30002                           DCA      1                                     #  ADD IN NEXT COEFFICIENT
001016:    7220           20155                           DAS      MPAC                                  #  USERS RESPONSIBILITY TO ASSURE NO OVFLOW
001017:
001018:    7221           10140                           CCS      POLYCNT
001019:    7222           17211                           TCF      POLYLOOP
001020:    7223           00141                           TC       POLYRET                               #  RETURN CALLER
001021:
001022:                                                                                                  #  MISCELLANEOUS MULTI-PRECISION ROUTINES REQUIRED IN FIXED-FIXED BUT NOT USED BY THE INTERPRETER.
001023:
001024:    7224           35003        DPAGREE            CAF      ZERO                                  #  DOUBLE PRECISION ENTRY -
001025:    7225           54156        BUFAGREE           TS       MPAC       +2                         #  ZERO LOW-ORDER WORD
001026:    7226           22002        TPAGREE            LXCH     Q                                     #  FORCE SIGN AGREEMENT AMONG THE TRIPLE
001027:    7227           06672                           TC       BRANCH                                #  PRECISION CONTENTS OF MPAC.  RETURNING
001028:    7230           17234                           TCF      ARG+                                  #  WITH SIGNUM OF THE INPUT IN A.
001029:    7231           17254                           TCF      ARGZERO
001030:
001031:    7232           44761                           CS       POSMAX                                #  IF NEGATIVE.
001032:    7233           17235                           TCF      +2
001033:
001034:    7234           34761        ARG+               CAF      POSMAX
001035:    7235           54002                           TS       Q
001036:    7236           00006                           EXTEND
001037:    7237           24000                           AUG      A                                     #  FORMS +-1.0.
001038:    7240           60156                           AD       MPAC       +2
001039:    7241           54156                           TS       MPAC       +2
001040:    7242           35003                           CAF      ZERO
001041:    7243           60002                           AD       Q
001042:    7244           60155                           AD       MPAC       +1
001043:    7245           54155                           TS       MPAC       +1
001044:    7246           35003                           CAF      ZERO
001045:    7247           60002                           AD       Q                                     #  Q STILL HAS POSMAX OR NEGMAX IN IT.
001046:    7250           60154                           AD       MPAC
001047:    7251           54154        ARGZERO2           TS       MPAC                                  #  ALWAYS SKIPPING UNLESS ARGZERO.
001048:    7252           54155                           TS       MPAC       +1
001049:    7253           00001                           TC       L                                     #  RETURN VIA L.
001050:
001051:    7254           54156        ARGZERO            TS       MPAC       +2                         #  SET ALL THREE MPAC REGISTERS TO ZERO.
001052:    7255           17251                           TCF      ARGZERO2
001053:
001054:                                                                                                  #  SHORTMP MULTIPLIES THE TP CONTENTS OF MPAC BY THE SINGLE PRECISION NUMBER ARRIVING IN A.
001055:
001056:    7256           54135        SHORTMP            TS       MPTEMP
001057:    7257           00006                 +1        EXTEND
001058:    7260           70156                           MP       MPAC       +2
001059:    7261           54156                           TS       MPAC       +2
001060:    7262           35003        SHORTMP2           CAF      ZERO                                  #  SO SUBSEQUENT DAS WILL WORK.
001061:    7263           56155                           XCH      MPAC       +1
001062:    7264           17075                           TCF      DMPSUB2
001063:
001064:                                                                                                  #  MISCELLANEOUS VECTOR OPERATIONS. INCLUDED HERE ARE THE FOLLOWING:
001065:
001066:                                                                                                  #        1.      DOT             DP VECTOR DOT PRODUCT.
001067:                                                                                                  #        2.      VXV             DP VECTOR CROSS PRODUCT.
001068:                                                                                                  #        3.      VXSC            DP VECTOR TIMES SCALAR.
001069:                                                                                                  #        4.      V/SC            DP VECTOR DIVIDED BY SCALAR.
001070:                                                                                                  #        5.      VPROJ           DP VECTOR PROJECTION. ( (MPAC.X)MPAC ).
001071:                                                                                                  #        6.      VXM             DP VECTOR POST-MULTIPLIED BY MATRIX.
001072:                                                                                                  #        7.      MXV             DP VECTOR PRE-MULTIPLIED BY MATRIX.
001073:
001074:    7265           07123        DOT                TC       PREDOT                                #  DO THE DOT PRODUCT AND EXIT, CHANGING
001075:    7266           35003        DMODE              CAF      ZERO                                  #  THE MODE TO DP SCALAR.
001076:    7267           16027                           TCF      NEWMODE
001077:
001078:    7270           35000        MXV                CAF      TWO                                   #  SET UP MATINC AND DOTINC FOR ROW
001079:    7271           54140                           TS       MATINC                                #  VECTORS.
001080:    7272           17276                           TCF      VXM/MXV                               #  GO TO COMMON PORTION.
001081:
001082:    7273           44355        VXM                CS       TEN                                   #  SET MATINC AND DOTINC TO REFER TO MATRIX
001083:    7274           54140                           TS       MATINC                                #  AS THREE COLUMN VECTORS.
001084:    7275           36211                           CAF      SIX
001085:
001086:                                                                                                  #  COMMON PORTION OF MXV AND VXM.
001087:
001088:    7276           54136        VXM/MXV            TS       DOTINC
001089:
001090:                                                                                                  #  ITRACE (2) REFERS TO "VXM/MXV".
001091:
001092:    7277           07466                           TC       MPACVBUF                              #  SAVE VECTOR IN MPAC FOR FURTHER USE.
001093:
001094:    7300           07125                           TC       DOTSUB                                #  GO DOT TO GET X COMPONENT OF ANSWER.
001095:    7301           00006                           EXTEND
001096:    7302           30123                           DCA      VBUF                                  #  MOVE MPAC VECTOR BACK INTO MPAC, SAVING
001097:    7303           52155                           DXCH     MPAC                                  #  NEW X COMPONENT IN BUF2.
001098:    7304           52134                           DXCH     BUF2
001099:    7305           00006                           EXTEND
001100:    7306           30125                           DCA      VBUF       +2
001101:    7307           52160                           DXCH     MPAC       +3
001102:    7310           00006                           EXTEND
001103:    7311           30127                           DCA      VBUF       +4
001104:    7312           52162                           DXCH     MPAC       +5
001105:    7313           30140                           CA       MATINC                                #  INITIALIZE ADDRWD FOR NEXT DOT PRODUCT.
001106:    7314           26116                           ADS      ADDRWD                                #  FORMS BASE ADDRESS OF NEXT COLUMN(ROW).
001107:
001108:    7315           07125                           TC       DOTSUB
001109:    7316           52123                           DXCH     VBUF                                  #  MOVE GIVEN VECTOR BACK TO MPAC, SAVING Y
001110:    7317           52155                           DXCH     MPAC                                  #  COMPONENT OF ANSWER IN VBUF +2.
001111:    7320           52125                           DXCH     VBUF       +2
001112:    7321           52160                           DXCH     MPAC       +3
001113:    7322           52127                           DXCH     VBUF       +4
001114:    7323           52162                           DXCH     MPAC       +5
001115:    7324           30140                           CA       MATINC                                #  FORM ADDRESS OF LAST COLUMN OR ROW.
001116:    7325           26116                           ADS      ADDRWD
001117:
001118:    7326           07125                           TC       DOTSUB
001119:    7327           52134                           DXCH     BUF2                                  #  ANSWER NOW COMPLETE. PUT COMPONENTS INTO
001120:    7330           52155                           DXCH     MPAC                                  #  PROPER MPAC REGISTERS.
001121:    7331           52162                           DXCH     MPAC       +5
001122:    7332           52125                           DXCH     VBUF       +2
001123:    7333           52160                           DXCH     MPAC       +3
001124:    7334           16030                           TCF      DANZIG                                #  EXIT.
001125:
001126:                                                                                                  #  VXSC - VECTOR TIMES SCALAR.
001127:
001128:    7335           10163        VXSC               CCS      MODE                                  #  TEST PRESENT MODE.
001129:    7336           17364                           TCF      DVXSC                                 #  SEPARATE ROUTINE WHEN SCALAR IS IN MPAC.
001130:    7337           17364                           TCF      DVXSC
001131:
001132:    7340           07056        VVXSC              TC       DMPSUB                                #  COMPUTE X COMPONENT
001133:    7341           07107                           TC       VROUND                                #  AND ROUND IT.
001134:    7342           52160                           DXCH     MPAC       +3                         #  PUT Y COMPONENT INTO MPAC SAVING MPAC IN
001135:    7343           52155                           DXCH     MPAC                                  #  MPAC +3.
001136:    7344           52160                           DXCH     MPAC       +3
001137:
001138:    7345           07056                           TC       DMPSUB                                #  DO SAME FOR Y AND Z COMPONENTS.
001139:    7346           07107                           TC       VROUND
001140:    7347           52162                           DXCH     MPAC       +5
001141:    7350           52155                           DXCH     MPAC
001142:    7351           52162                           DXCH     MPAC       +5
001143:
001144:    7352           07056                           TC       DMPSUB
001145:    7353           07107                           TC       VROUND
001146:    7354           52155        VROTATEX           DXCH     MPAC                                  #  EXIT USED TO RESTORE MPAC AFTER THIS
001147:    7355           52162                           DXCH     MPAC       +5                         #  TYPE OF ROTATION. CALLED BY VECTOR SHIFT
001148:    7356           52160                           DXCH     MPAC       +3                         #  RIGHT, V/SC, ETC.
001149:    7357           52155                           DXCH     MPAC
001150:    7360           16030                           TCF      DANZIG
001151:
001152:                                                                                                  #  DP VECTOR PROJECTION ROUTINE.
001153:
001154:    7361           07123        VPROJ              TC       PREDOT                                #  (MPAC.X)MPAC IS COMPUTED AND LEFT IN
001155:    7362           44777                           CS       FOUR                                  #  MPAC. DO DOT AND FALL INTO DVXSC.
001156:    7363           26116                           ADS      ADDRWD
001157:
001158:                                                                                                  #  VXSC WHEN SCALAR ARRIVES IN MPAC AND VECTOR IS AT X.
001159:
001160:    7364           00006        DVXSC              EXTEND                                         #  SAVE SCALAR IN MPAC +3 AND GET X
001161:    7365           30155                           DCA      MPAC                                  #  COMPONENT OF ANSWER.
001162:    7366           52160                           DXCH     MPAC       +3
001163:    7367           07056                           TC       DMPSUB
001164:    7370           07107                           TC       VROUND
001165:
001166:    7371           35000                           CAF      TWO                                   #  ADVANCE ADDRWD TO Y COMPONENT OF X.
001167:    7372           26116                           ADS      ADDRWD
001168:    7373           00006                           EXTEND
001169:    7374           30160                           DCA      MPAC       +3                         #  PUT SCALAR BACK INTO MPAC AND SAVE
001170:    7375           52155                           DXCH     MPAC                                  #  X RESULT IN MPAC +5.
001171:    7376           52162                           DXCH     MPAC       +5
001172:    7377           07056                           TC       DMPSUB
001173:    7400           07107                           TC       VROUND
001174:
001175:    7401           35000                           CAF      TWO
001176:    7402           26116                           ADS      ADDRWD                                #  TO Z COMPONENT.
001177:    7403           52160                           DXCH     MPAC       +3                         #  BRING SCALAR BACK, PUTTING Y RESULT IN
001178:    7404           52155                           DXCH     MPAC                                  #  THE PROPER PLACE.
001179:    7405           52160                           DXCH     MPAC       +3
001180:    7406           07056                           TC       DMPSUB
001181:    7407           07107                           TC       VROUND
001182:
001183:    7410           52155                           DXCH     MPAC                                  #  PUT Z COMPONENT IN PROPER PLACE, ALSO
001184:    7411           52162                           DXCH     MPAC       +5                         #  POSITIONING X.
001185:    7412           52155                           DXCH     MPAC
001186:
001187:    7413           16470                           TCF      VMODE                                 #  MODE HAS CHANGED TO VECTOR.
001188:
001189:                                                                                                  #  THE VECTOR CROSS PRODUCT ROUTINE CALCULATES (X M -X M ,X M -X M ,X M -X M ) WHERE M IS THE VECTOR IN
001190:                                                                                                  #                                                3 2  2 3  1 3  3 1  2 1  1 2
001191:                                                                                                  #  MPAC AND X THE VECTOR AT THE GIVEN ADDRESS.
001192:
001193:    7414           00006        VXV                EXTEND
001194:    7415           30162                           DCA      MPAC       +5                         #  FORM UP M3X1, LEAVING M1 IN VBUF.
001195:    7416           52155                           DXCH     MPAC
001196:    7417           52123                           DXCH     VBUF
001197:    7420           07056                           TC       DMPSUB                                #  BY X1.
001198:
001199:    7421           00006                           EXTEND
001200:    7422           40160                           DCS      MPAC       +3                         #  CALCULATE -X1M2, SAVING X1M3 IN VBUF +2.
001201:    7423           52155                           DXCH     MPAC
001202:    7424           52125                           DXCH     VBUF       +2
001203:    7425           07056                           TC       DMPSUB
001204:
001205:    7426           35000                           CAF      TWO                                   #  ADVANCE ADDRWD TO X2.
001206:    7427           26116                           ADS      ADDRWD
001207:    7430           00006                           EXTEND
001208:    7431           40162                           DCS      MPAC       +5                         #  PREPARE TO GET -X2M3, SAVING -X1M2 IN
001209:    7432           52155                           DXCH     MPAC                                  #  MPAC +5.
001210:    7433           52162                           DXCH     MPAC       +5
001211:    7434           07056                           TC       DMPSUB
001212:
001213:    7435           00006                           EXTEND
001214:    7436           30123                           DCA      VBUF                                  #  GET X2M1, SAVING -X2M3 IN VBUF +4.
001215:    7437           52155                           DXCH     MPAC
001216:    7440           52127                           DXCH     VBUF       +4
001217:    7441           07056                           TC       DMPSUB
001218:
001219:    7442           35000                           CAF      TWO                                   #  ADVANCE ADDRWD TO X3.
001220:    7443           26116                           ADS      ADDRWD
001221:    7444           00006                           EXTEND
001222:    7445           40123                           DCS      VBUF                                  #  GET -X3M1, ADDING X2M1 TO MPAC +5 TO
001223:    7446           52155                           DXCH     MPAC                                  #  COMPLETE THE Z COMPONENT OF THE ANSWER.
001224:    7447           20162                           DAS      MPAC       +5
001225:
001226:    7450           00006                           EXTEND
001227:    7451           17453                           BZF      +2
001228:    7452           06760                           TC       OVERFLWZ
001229:
001230:    7453           07056                           TC       DMPSUB
001231:    7454           52125                           DXCH     VBUF       +2                         #  MOVE X1M3 TO MPAC +3 SETTING UP FOR X3M2
001232:    7455           52160                           DXCH     MPAC       +3                         #  AND ADD -X3M1 TO MPAC +3 TO COMPLETE THE
001233:    7456           52155                           DXCH     MPAC                                  #  Y COMPONENT OF THE RESULT.
001234:    7457           20160                           DAS      MPAC       +3
001235:
001236:    7460           00006                           EXTEND
001237:    7461           17463                           BZF      +2
001238:    7462           06763                           TC       OVERFLWY
001239:
001240:    7463           07056                           TC       DMPSUB
001241:    7464           52127                           DXCH     VBUF       +4                         #  GO ADD -X2M3 TO X3M2 TO COMPLETE THE X
001242:    7465           16747                           TCF      ENDVXV                                #  COMPONENT (TAIL END OF DAD).
001243:
001244:                                                                                                  #  THE MPACVBUF SUBROUTINE SAVES THE VECTOR IN MPAC IN VBUF WITHOUT CLOBBERING MPAC.
001245:
001246:    7466           00006        MPACVBUF           EXTEND                                         #  CALLED BY MXV, VXM, AND UNIT.
001247:    7467           30155                           DCA      MPAC
001248:    7470           52123                           DXCH     VBUF
001249:    7471           00006                           EXTEND
001250:    7472           30160                           DCA      MPAC       +3
001251:    7473           52125                           DXCH     VBUF       +2
001252:    7474           00006                           EXTEND
001253:    7475           30162                           DCA      MPAC       +5
001254:    7476           52127                           DXCH     VBUF       +4
001255:    7477           00002                           TC       Q                                     #  RETURN TO CALLER.
001256:
001257:                                                                                                  #  DOUBLE PRECISION SIGN AGREE ROUTINE. ARRIVE WITH INPUT IN A+L. OUTPUT IS IN A + L.
001258:
001259:    7500           10000        ALSIGNAG           CCS      A                                     #  TEST UPPER PART.
001260:    7501           17505                           TCF      UPPOS                                 #  IT IS POSITIVE
001261:    7502           00002                           TC       Q                                     #  ZERO
001262:    7503           17515                           TCF      UPNEG                                 #  NEGATIVE
001263:    7504           00002                           TC       Q                                     #  ZERO
001264:
001265:    7505           56001        UPPOS              XCH      L                                     #  SAVE DECREMENTED UPPER PART.
001266:    7506           64764                           AD       HALF
001267:    7507           64764                           AD       HALF
001268:    7510           54000                           TS       A                                     #  SKIPS ON OVERFLOW
001269:    7511           17513                           TCF      +2
001270:    7512           24001                           INCR     L                                     #  RESTORE UPPER TO ROIGINAL VALUE
001271:    7513           56001                           XCH      L                                     #  SWAP A + L BACK.
001272:    7514           00002                           TC       Q
001273:
001274:    7515           56001        UPNEG              XCH      L                                     #  SAVE COMPLEMENTED + DECREMENTED UPPER PT
001275:    7516           64763                           AD       NEGMAX
001276:    7517           67702                           AD       NEGONE
001277:    7520           54000                           TS       A
001278:    7521           17523                           TCF      +2                                    #  DONT INCREMENT IF NO OVERFLOW.
001279:    7522           24001                           INCR     L
001280:    7523           56001                           XCH      L
001281:    7524           40000                           COM                                            #  MAKE NEGATIVE AGAIN.
001282:    7525           00002                           TC       Q
001283:
001284:                                                                                                  #  INTERPRETIVE INSTRUCTIONS WHOSE EXECUTION CONSISTS OF PRINCIPALLY CALLING SUBROUTINES.
001285:
001286:    7526           07056        DMP1               TC       DMPSUB                                #  DMP INSTRUCTION.
001287:    7527           16030                           TCF      DANZIG
001288:
001289:    7530           07056        DMPR               TC       DMPSUB
001290:    7531           07106                           TC       ROUNDSUB   +1                         #  (C(A) = +0).
001291:    7532           16030                           TCF      DANZIG
001292:
001293:    7533           00006        DDV                EXTEND
001294:    7534           50116                           INDEX    ADDRWD                                #  MOVE DIVIDEND INTO BUF.
001295:    7535           30001                           DCA      0
001296:    7536           17543                           TCF      BDDV       +4
001297:
001298:    7537           00006        BDDV               EXTEND                                         #  MOVE DIVISOR INTO MPAC SAVING MPAC, THE
001299:    7540           50116                           INDEX    ADDRWD                                #  DIVIDEND, IN BUF.
001300:    7541           30001                           DCA      0
001301:    7542           52155                           DXCH     MPAC
001302:    7543           52131                 +4        DXCH     BUF
001303:    7544           35003                           CAF      ZERO                                  #  DIVIDE ROUTINES IN BANK 0.
001304:    7545           54004                           TS       FBANK
001305:    7546           12353                           TCF      DDV/BDDV
001306:
001307:    7547           30116        SETPD              CA       ADDRWD                                #  MUST SET TO WORK AREA, OR EBANK TROUBLE.
001308:    7550           54166                           TS       PUSHLOC
001309:    7551           16032                           TCF      NOIBNKSW                              #  NO FBANK SWITCH REQUIRED.
001310:
001311:    7552           35003        TSLC               CAF      ZERO                                  #  SHIFTING ROUTINES LOCATED IN BANK 00.
001312:    7553           54004                           TS       FBANK
001313:    7554           12172                           TCF      TSLC2
001314:
001315:    7555           36043        GSHIFT             CAF      LOW7                                  #  USED AS MASK AT GENSHIFT. THIS PROCESSES
001316:    7556           54004                           TS       FBANK                                 #  ANY SHIFT INSTRUCTION (EXCEPT TSLC) WITH
001317:    7557           12214                           TCF      GENSHIFT                              #  AN ADDRESS (ROUTINES IN BANK 0).
001318:
001319:                                                                                                  #  THE FOLLOWING IS THE PROLOGUE TO V/SC. IF THE PRESENT MODE IS VECTOR, IT SAVES THE SCALAR AT X IN BUF
001320:                                                                                                  #  AND CALLS THE V/SC ROUTINE IN BANK 0. IF THE PRESENT MODE IS SCALAR, IT MOVES THE VECTOR AT X INTO MPAC, SAVING
001321:                                                                                                  #  THE SCALAR IN MPAC IN BUF BEFORE CALLING THE V/SC ROUTINE IN BANK 0.
001322:
001323:    7560           10163        V/SC               CCS      MODE
001324:    7561           17572                           TCF      DV/SC                                 #  MOVE VECTOR INTO MPAC.
001325:    7562           17572                           TCF      DV/SC
001326:
001327:    7563           00006        VV/SC              EXTEND
001328:    7564           50116                           INDEX    ADDRWD
001329:    7565           30001                           DCA      0
001330:    7566           52131        V/SC1              DXCH     BUF                                   #  IN BOTH CASES, VECTOR IS NOW IN MPAC AND
001331:    7567           35003                           CAF      ZERO                                  #  SCALAR IN BUF.
001332:    7570           54004                           TS       FBANK
001333:    7571           12653                           TCF      V/SC2
001334:
001335:    7572           00006        DV/SC              EXTEND
001336:    7573           50116                           INDEX    ADDRWD
001337:    7574           30003                           DCA      2
001338:    7575           52160                           DXCH     MPAC       +3
001339:    7576           00006                           EXTEND
001340:    7577           50116                           INDEX    ADDRWD
001341:    7600           30005                           DCA      4
001342:    7601           52162                           DXCH     MPAC       +5
001343:
001344:    7602           45001                           CS       ONE                                   #  CHANGE MODE TO VECTOR.
001345:    7603           54163                           TS       MODE
001346:
001347:    7604           00006                           EXTEND
001348:    7605           50116                           INDEX    ADDRWD
001349:    7606           30001                           DCA      0
001350:    7607           52155                           DXCH     MPAC
001351:    7610           17566                           TCF      V/SC1                                 #  FINISH PROLOGUE AT COMMON SECTION.
001352:
001353:                                                                                                  #  SIGN AND COMPLEMENT INSTRUCTIONS.
001354:
001355:    7611           50116        SIGN               INDEX    ADDRWD                                #  CALL COMP INSTRUCTION IF WORD AT X IS
001356:    7612           10000                           CCS      0                                     #  NEGATIVE NON-ZERO.
001357:    7613           16030                           TCF      DANZIG
001358:    7614           17616                           TCF      +2
001359:    7615           17624                           TCF      COMP                                  #  DO THE COMPLEMENT.
001360:
001361:    7616           50116                           INDEX    ADDRWD
001362:    7617           10001        CCSL               CCS      1
001363:    7620           16030                           TCF      DANZIG
001364:    7621           16030                           TCF      DANZIG
001365:    7622           17624                           TCF      COMP
001366:    7623           16030                           TCF      DANZIG
001367:    7624           00006        COMP               EXTEND                                         #  COMPLEMENT DP MPAC IN EVERY CASE.
001368:    7625           40155                           DCS      MPAC
001369:    7626           52155                           DXCH     MPAC
001370:
001371:    7627           10163                           CCS      MODE                                  #  EITHER COMPLEMENT MPAC +3 OR THE REST OF
001372:    7630           17641                           TCF      DCOMP                                 #  THE VECTOR ACCUMULATOR.
001373:    7631           17641                           TCF      DCOMP
001374:
001375:    7632           00006                           EXTEND                                         #  VECTOR COMPLEMENT.
001376:    7633           40160                           DCS      MPAC       +3
001377:    7634           52160                           DXCH     MPAC       +3
001378:    7635           00006                           EXTEND
001379:    7636           40162                           DCS      MPAC       +5
001380:    7637           52162                           DXCH     MPAC       +5
001381:    7640           16030                           TCF      DANZIG
001382:
001383:    7641           40156        DCOMP              CS       MPAC       +2
001384:    7642           54156                           TS       MPAC       +2
001385:    7643           16030                           TCF      DANZIG
001386:
001387:                                                                                                  #  THE FOLLOWING SHORT SHIFT CODES REQUIRE NO ADDRESS WORD:
001388:
001389:                                                                                                  #        1.      SR1 TO SR4      SCALAR SHIFT RIGHT.
001390:                                                                                                  #        2.      SR1R TO SR4R    SCALAR SHIFT RIGHT AND ROUND.
001391:                                                                                                  #        3.      SL1 TO SL4      SCALAR SHIFT LEFT.
001392:                                                                                                  #        4.      SL1R TO SL4R    SCALAR SHIFT LEFT AND ROUND.
001393:
001394:                                                                                                  #        5.      VSR1 TO VSR8    VECTOR SHIFT RIGHT (ALWAYS ROUNDS).
001395:                                                                                                  #        6.      VSL1 TO VSL8    VECTOR SHIFT LEFT (NEVER ROUNDS).
001396:
001397:                                                                                                  #  THE FOLLOWING CODES REQUIRE AN ADDRESS WHICH MAY BE INDEXED:*
001398:
001399:                                                                                                  #        1.      SR              SCALAR SHIFT RIGHT.
001400:                                                                                                  #        2.      SRR             SCALAR SHIFT RIGHT AND ROUND.
001401:                                                                                                  #        3.      SL              SCALAR SHIFT LEFT.
001402:                                                                                                  #        4.      SLR             SCALAR SHIFT LEFT AND ROUND.
001403:
001404:                                                                                                  #        5.      VSR             VECTOR SHIFT RIGHT.
001405:                                                                                                  #        6.      VSL             VECTOR SHIFT LEFT.
001406:
001407:                                                                                                  #  * IF THE ADDRESS IS INDEXED, AND THE INDEX MODIFICATION RESULTS IN A NEGATIVE SHIFT COUNT, A SHIFT OF THE
001408:                                                                                                  #  ABSOLUTE VALUE OF THE COUNT IS DONE IN THE OPPOSITE DIRECTION.
001409:
001410: 00,2000                                           SETLOC   INTERB0
001411: 00,2000                                           BANK
001412:
001413: 00,2017                                           COUNT*   $$/INTER
001414: 00,2017           36211        SHORTT             CAF      SIX                                   #  SCALAR SHORT SHIFTS COME HERE. THE SHIFT
001415: 00,2020           70020                           MASK     CYR                                   #  COUNT-1 IS NOW IN BITS 2-3 OF CYR. THE
001416: 00,2021           54021                           TS       SR                                    #  ROUNDING BIT IS IN BIT1 AT THIS POINT.
001417:
001418: 00,2022           10020                           CCS      CYR                                   #  SEE IF RIGHT OR LEFT SHIFT DESIRED.
001419: 00,2023           12101                           TCF      TSSL                                  #  SHIFT LEFT.
001420:
001421: 00,2024           00024        SRDDV              DEC      20         B-14                       #  MPTEMP SETTING FOR SR BEFORE DDV.
001422:
001423: 00,2025           50021        TSSR               INDEX    SR                                    #  GET SHIFTING BIT.
001424: 00,2026           34764                           CAF      BIT14
001425: 00,2027           54135                           TS       MPTEMP
001426:
001427: 00,2030           10020                           CCS      CYR                                   #  SEE IF A ROUND IS DESIRED.
001428: 00,2031           02050        RIGHTR             TC       MPACSRND                              #  YES - SHIFT RIGHT AND ROUND.
001429: 00,2032           16027                           TCF      NEWMODE                               #  SET MODE TO DP (C(A) = 0).
001430: 00,2033           30135        MPACSHR            CA       MPTEMP                                #  DO A TRIPLE PRECISION SHIFT RIGHT.
001431: 00,2034           00006                           EXTEND
001432: 00,2035           70156                           MP       MPAC       +2
001433: 00,2036           54156                 +3        TS       MPAC       +2                         #  (EXIT FROM SQRT AND ABVAL).
001434: 00,2037           30135                           CA       MPTEMP
001435: 00,2040           00006                           EXTEND
001436: 00,2041           70154                           MP       MPAC                                  #  SHIFT MAJOR PART INTO A,L AND PLACE IN
001437: 00,2042           52155                           DXCH     MPAC                                  #  MPAC,+1.
001438: 00,2043           30135                           CA       MPTEMP
001439: 00,2044           00006                           EXTEND
001440: 00,2045           70001                           MP       L                                     #  ORIGINAL C(MPAC +1).
001441: 00,2046           20156                           DAS      MPAC       +1                         #  GUARANTEED NO OVERFLOW.
001442: 00,2047           16030                           TCF      DANZIG
001443:
001444:                                                                                                  #  MPAC SHIFT RIGHT AND ROUND SUBROUTINES.
001445:
001446: 00,2050           30156        MPACSRND           CA       MPAC       +2                         #  WE HAVE TO DO ALL THREE MULTIPLIES SINCE
001447: 00,2051           00006                           EXTEND                                         #  MPAC +1 AND MPAC +2 MIGHT HAVE SIGN
001448: 00,2052           70135                           MP       MPTEMP                                #  DISAGREEMENT WITH A SHIFT RIGHT OF 1.
001449: 00,2053           56155                           XCH      MPAC       +1
001450: 00,2054           00006                           EXTEND
001451: 00,2055           70135                           MP       MPTEMP
001452: 00,2056           56155                           XCH      MPAC       +1                         #  TRIAL MINOR PART.
001453: 00,2057           60001                           AD       L
001454:
001455: 00,2060           60000        VSHR2              DOUBLE                                         #  (FINISH VECTOR COMPONENT SHIFT RIGHT
001456: 00,2061           54156                           TS       MPAC       +2                         #  AND ROUND.
001457: 00,2062           12064                           TCF      +2
001458: 00,2063           26155                           ADS      MPAC       +1                         #  GUARANTEED NO OVERFLOW.
001459:
001460: 00,2064           35003                           CAF      ZERO
001461: 00,2065           54156                           TS       MPAC       +2
001462: 00,2066           56154                           XCH      MPAC                                  #  SETTING TO ZERO SO FOLLOWING DAS WORKS.
001463: 00,2067           00006                           EXTEND
001464: 00,2070           70135                           MP       MPTEMP
001465: 00,2071           20155                           DAS      MPAC                                  #  AGAIN NO OVERFLOW.
001466: 00,2072           00002                           TC       Q
001467:
001468: 00,2073           30135        VSHRRND            CA       MPTEMP                                #  ENTRY TO SHIFT RIGHT AND ROUND MPAC WHEN
001469: 00,2074           00006                           EXTEND                                         #  MPAC CONTAINS A VECTOR COMPONENT.
001470: 00,2075           70155                           MP       MPAC       +1
001471: 00,2076           54155                           TS       MPAC       +1
001472: 00,2077           56001                           XCH      L
001473: 00,2100           12060                           TCF      VSHR2                                 #  GO ADD ONE IF NECESSARY AND FINISH.
001474:
001475:                                                                                                  #  ROUTINE FOR SHORT SCALAR SHIFT LEFT (AND MAYBE ROUND).
001476:
001477: 00,2101           30021        TSSL               CA       SR                                    #  GET SHIFT COUNT FOR SR.
001478: 00,2102           54135                 +1        TS       MPTEMP
001479:
001480: 00,2103           00006                 +2        EXTEND                                         #  ENTRY HERE FROM SL FOR SCALARS.
001481: 00,2104           30156                           DCA      MPAC       +1                         #  SHIFTING LEFT ONE PLACE AT A TIME IS
001482: 00,2105           20156                           DAS      MPAC       +1                         #  FASTER THAN DOING THE WHOLE SHIFT WITH
001483: 00,2106           60154                           AD       MPAC                                  #  MULTIPLIES ASSUMING THAT FREQUENCY OF
001484: 00,2107           60154                           AD       MPAC                                  #  SHIFT COUNTS GOES DOWN RAPIDLY AS A
001485: 00,2110           54154                           TS       MPAC                                  #  FUNCTION OF THEIR MAGNITUDE.
001486: 00,2111           12113                           TCF      +2
001487: 00,2112           54121                           TS       OVFIND                                #  OVERFLOW. (LEAVES OVERFLOW-CORRECTED
001488:                                                                                                  #  RESULT ANYWAY).
001489: 00,2113           10135                           CCS      MPTEMP                                #  LOOP ON DECREMENTED SHIFT COUNT.
001490: 00,2114           12102                           TCF      TSSL       +1
001491:
001492: 00,2115           10020                           CCS      CYR                                   #  SEE IF ROUND WANTED.
001493: 00,2116           07105        ROUND              TC       ROUNDSUB                              #  YES - ROUND AND EXIT.
001494: 00,2117           16030                           TCF      DANZIG                                #  SL LEAVES A ZERO IN CYR FOR NO ROUND.
001495: 00,2120           16030                           TCF      DANZIG                                #  NO - EXIT IMMEDIATL
001496:
001497:                                                                                                  #  VECTOR SHIFTING ROUTINES.
001498:
001499: 00,2121           35005        SHORTV             CAF      LOW3                                  #  SAVE 3 BIT SHIFT COUNT - 1 WITHOUT
001500: 00,2122           70020                           MASK     CYR                                   #  EDITING CYR.
001501: 00,2123           54135                           TS       MPTEMP
001502: 00,2124           10020                           CCS      CYR                                   #  SEE IF LEFT OR RIGHT SHIFT.
001503: 00,2125           12145                           TCF      VSSL                                  #  VECTOR SHIFT LEFT.
001504: 00,2126           00176        OCT176             OCT      176                                   #  USED IN PROCESSED SHIFTS WITH - COUNT.
001505:
001506: 00,2127           50135        VSSR               INDEX    MPTEMP                                #  (ENTRY FROM SR).  PICK UP SHIFTING BIT.
001507: 00,2130           34764                           CAF      BIT14                                 #  MPTEMP CONTAINS THE SHIFT COUNT - 1.
001508: 00,2131           54135                           TS       MPTEMP
001509: 00,2132           02073                           TC       VSHRRND                               #  SHIFT X COMPONENT.
001510:
001511: 00,2133           52155                           DXCH     MPAC                                  #  SWAP X AND Y COMPONENTS.
001512: 00,2134           52160                           DXCH     MPAC       +3
001513: 00,2135           52155                           DXCH     MPAC
001514: 00,2136           02073                           TC       VSHRRND                               #  SHIFT Y COMPONENT.
001515:
001516: 00,2137           52155                           DXCH     MPAC                                  #  SWAP Y AND Z COMPONENTS.
001517: 00,2140           52162                           DXCH     MPAC       +5
001518: 00,2141           52155                           DXCH     MPAC
001519: 00,2142           02073                           TC       VSHRRND                               #  SHIFT Z COMPONENT.
001520:
001521: 00,2143           17354                           TCF      VROTATEX                              #  RESTORE COMPONENTS TO PROPER PLACES.
001522:
001523:                                                                                                  #  VECTOR SHIFT LEFT - DONE ONE PLACE AT A TIME.
001524:
001525: 00,2144           54135                 -1        TS       MPTEMP                                #  SHIFTING LOOP.
001526:
001527: 00,2145           00006        VSSL               EXTEND
001528: 00,2146           30155                           DCA      MPAC
001529: 00,2147           20155                           DAS      MPAC
001530: 00,2150           00006                           EXTEND
001531: 00,2151           12153                           BZF      +2
001532: 00,2152           06766                           TC       OVERFLOW
001533:
001534: 00,2153           00006                           EXTEND
001535: 00,2154           30160                           DCA      MPAC       +3
001536: 00,2155           20160                           DAS      MPAC       +3
001537: 00,2156           00006                           EXTEND
001538: 00,2157           12161                           BZF      +2
001539: 00,2160           06763                           TC       OVERFLWY
001540:
001541: 00,2161           00006                           EXTEND
001542: 00,2162           30162                           DCA      MPAC       +5
001543: 00,2163           20162                           DAS      MPAC       +5
001544: 00,2164           00006                           EXTEND
001545: 00,2165           12167                           BZF      +2
001546: 00,2166           06760                           TC       OVERFLWZ
001547:
001548: 00,2167           10135                           CCS      MPTEMP                                #  LOOP ON DECREMENTED SHIFT COUNTER.
001549: 00,2170           12144                           TCF      VSSL       -1
001550: 00,2171           16030                           TCF      DANZIG                                #  EXIT.
001551:
001552:                                                                                                  #  TSLC - TRIPLE SHIFT LEFT AND COUNT. SHIFTS MPAC LEFT UNTIL GREATER THAN .5 IN MAGNITUDE, LEAVING
001553:                                                                                                  #  THE COMPLEMENT OF THE NUMBER OF SHIFTS REQUIRED IN X.
001554:
001555: 00,2172           54135        TSLC2              TS       MPTEMP                                #  START BY ZEROING SHIFT COUNT (IN A NOW).
001556: 00,2173           06672                           TC       BRANCH                                #  EXIT WITH NO SHIFTING IF ARGUMENT ZERO.
001557: 00,2174           12176                           TCF      +2
001558: 00,2175           12212                           TCF      ENDTSLC                               #  STORES ZERO SHIFT COUNT IN THIS CASE.
001559:
001560: 00,2176           07226                           TC       TPAGREE                               #  MAY CAUSE UPSHIFT OF ONE EXTRA PLACE.
001561:
001562: 00,2177           30154                           CA       MPAC                                  #  BEGIN NORMALIZATION LOOP.
001563: 00,2200           12207                           TCF      TSLCTEST
001564:
001565: 00,2201           24135        TSLCLOOP           INCR     MPTEMP                                #  INCREMENT SHIFT COUNTER.
001566: 00,2202           00006                           EXTEND
001567: 00,2203           30156                           DCA      MPAC       +1
001568: 00,2204           20156                           DAS      MPAC       +1
001569: 00,2205           60154                           AD       MPAC
001570: 00,2206           26154                           ADS      MPAC
001571: 00,2207           60000        TSLCTEST           DOUBLE                                         #  SEE IF (ANOTHER) SHIFT IS REQUIRED.
001572: 00,2210           54000                           OVSK
001573: 00,2211           12201                           TCF      TSLCLOOP                              #  YES - INCREMENT COUNT AND SHIFT AGAIN.
001574:
001575: 00,2212           40135        ENDTSLC            CS       MPTEMP
001576: 00,2213           16572                           TCF      STORE1                                #  STORE SHIFT COUNT AND RETURN TO DANZIG.
001577:
001578:                                                                                                  #           THE FOLLOWING ROUTINES PROCESSES THE GENERAL SHIFT INSTRUCTIONS SR, SRR, SL, AND SLR.
001579:                                                                                                  #  THE GIVEN ADDRESS IS DECODED AS FOLLOWS:
001580:
001581:                                                                                                  #        BITS 1-7        SHIFT COUNT (SUBADDRESS) LESS THAN 125 DECIMAL.
001582:                                                                                                  #        BIT 8           PSEUDO SIGN BIT (DETECTS CHANGE IN SIGN IN INDEXED SHIFTS).
001583:                                                                                                  #        BIT 9           0 FOR LEFT SHIFT, AND 1 FOR RIGHT SHIFT.
001584:                                                                                                  #        BIT 10          1 FOR TERMINAL ROUND ON SCALAR SHIFTS, 0 OTHERWISE.
001585:                                                                                                  #        BITS 11-13      0.
001586:                                                                                                  #        BIT 14          1.
001587:                                                                                                  #        BIT 15          0.
001588:
001589:                                                                                                  #  THE ABOVE ENCODING IS DONE BY THE YUL SYSTEM.
001590:
001591: 00,2214           70116        GENSHIFT           MASK     ADDRWD                                #  GET SHIFT COUNT, TESTING FOR ZERO.
001592: 00,2215           10000                           CCS      A                                     #  (ARRIVES WITH C(A) = LOW7).
001593: 00,2216           12224                           TCF      GENSHFT2                              #  IF NON-ZERO, PROCEED WITH DECREMENTED CT
001594:
001595: 00,2217           34770                           CAF      BIT10                                 #  ZERO SHIFT COUNT. NO SHIFTS NEEDED BUT
001596: 00,2220           70116                           MASK     ADDRWD                                #  WE MIGHT HAVE TO ROUND MPAC ON SLR AND
001597: 00,2221           10000                           CCS      A                                     #  SRR (SCALAR ONLY).
001598: 00,2222           07105                           TC       ROUNDSUB
001599: 00,2223           16030                           TCF      DANZIG
001600:
001601: 00,2224           54135        GENSHFT2           TS       MPTEMP                                #  DECREMENTED SHIFT COUNT TO MPTEMP.
001602: 00,2225           34772                           CAF      BIT8                                  #  TEST MEANING OF LOW SEVEN BIT COUNT IN
001603: 00,2226           00006                           EXTEND                                         #  MPTEMP NOW.
001604: 00,2227           70116                           MP       ADDRWD
001605: 00,2230           76214                           MASK     LOW2                                  #  JUMPS ON SHIFT DIRECTION (BIT8) AND
001606: 00,2231           50000                           INDEX    A
001607: 00,2232           12233                           TCF      +1                                    #  ORIGINAL SHIFT DIRECTION (BIT 9).
001608: 00,2233           12332                           TCF      RIGHT-                                #  NEGATIVE SHIFT COUNT FOR SL OR SLR.
001609: 00,2234           12342                           TCF      LEFT                                  #  SL OR SLR.
001610: 00,2235           12336                           TCF      LEFT-                                 #  NEGATIVE SHIFT COUNT WITH SR OR SRR.
001611:
001612:                                                                                                  #  GENERAL SHIFT RIGHT.
001613:
001614: 00,2236           10163        RIGHT              CCS      MODE                                  #  SEE IF VECTOR OR SCALAR.
001615: 00,2237           12277                           TCF      GENSCR
001616: 00,2240           12277                           TCF      GENSCR
001617:
001618: 00,2241           30135                           CA       MPTEMP                                #  SEE IF SHIFT COUNT LESS THAN 14D.
001619: 00,2242           63726        VRIGHT2            AD       NEG12
001620: 00,2243           00006                           EXTEND
001621: 00,2244           62127                           BZMF     VSSR                                  #  IF SO, BRANCH AND SHIFT IMMEDIATELY.
001622:
001623: 00,2245           67702                           AD       NEGONE                                #  IF NOT, REDUCE MPTEMP BY A TOTAL OF 14,
001624: 00,2246           54135                           TS       MPTEMP                                #  AND DO A SHIFT RIGHT AND ROUND BY 14.
001625: 00,2247           35003                           CAF      ZERO                                  #  THE ROUND AT THIS STAGE MAY INTRODUCE A
001626: 00,2250           54001                           TS       L                                     #  ONE BIT ERROR IN A SHIFT RIGHT 15D.
001627: 00,2251           56154                           XCH      MPAC
001628: 00,2252           56155                           XCH      MPAC       +1
001629: 00,2253           02272                           TC       SETROUND                              #  X COMPONENT NOW SHIFTED, SO MAKE UP THE
001630: 00,2254           20155                           DAS      MPAC                                  #  ROUNDING QUANTITY (0 IN A AND 0 OR +-1
001631:                                                                                                  #  IN L).
001632: 00,2255           56157                           XCH      MPAC       +3                         #  REPEAT THE ABOVE PROCESS FOR Y AND Z.
001633: 00,2256           56160                           XCH      MPAC       +4
001634: 00,2257           02272                           TC       SETROUND
001635: 00,2260           20160                           DAS      MPAC       +3                         #  NO OVERFLOW ON THESE ADDS.
001636:
001637: 00,2261           56161                           XCH      MPAC       +5
001638: 00,2262           56162                           XCH      MPAC       +6
001639: 00,2263           02272                           TC       SETROUND
001640: 00,2264           20162                           DAS      MPAC       +5
001641:
001642: 00,2265           10135                           CCS      MPTEMP                                #  SEE IF DONE, DOING FINAL DECREMENT.
001643: 00,2266           54135                           TS       MPTEMP
001644: 00,2267           12242                           TCF      VRIGHT2
001645: 00,2270           04604        BIASLO             DEC      .2974      B-1                        #  SQRT CONSTANT
001646:
001647: 00,2271           16030                           TCF      DANZIG
001648:
001649: 00,2272           60000        SETROUND           DOUBLE                                         #  MAKES UP ROUNDING QUANTITY FROM ARRIVING
001650: 00,2273           54156                           TS       MPAC       +2                         #  C(A). L IS ZERO INITIALLY.
001651: 00,2274           35003                           CAF      ZERO
001652: 00,2275           56001                           XCH      L
001653: 00,2276           00002                           TC       Q                                     #  RETURN AND DO THE DAS, RESETTING L TO 0.
001654:
001655:                                                                                                  #  PROCESS SR AND SRR FOR SCALARS.
001656:
001657: 00,2277           30135        GENSCR             CA       MPTEMP                                #  SEE IF THE ORIGINAL SHIFT COUNT WAS LESS
001658: 00,2300           63726                 +1        AD       NEG12                                 #  THAN 14D.
001659: 00,2301           00006                           EXTEND
001660: 00,2302           62322                           BZMF     DOSSHFT                               #  DO THE SHIFT IMMEDIATELY IF SO.
001661:
001662: 00,2303           67702                 +4        AD       NEGONE                                #  IF NOT, DECREMENT SHIFT COUNT BY 14D AND
001663: 00,2304           54135                           TS       MPTEMP                                #  SHIFT MPAC RIGHT 14 PLACES.
001664: 00,2305           35003                           CAF      ZERO
001665: 00,2306           56154                           XCH      MPAC
001666: 00,2307           56155                           XCH      MPAC       +1
001667: 00,2310           54156                           TS       MPAC       +2
001668: 00,2311           10135                           CCS      MPTEMP                                #  SEE IF FINISHED, DO FINAL DECREMENT.
001669: 00,2312           54135                           TS       MPTEMP
001670: 00,2313           02300                           TC       GENSCR     +1
001671: 00,2314           22650        SLOPEHI            DEC      .5884                                 #  SQRT CONSTANT.
001672: 00,2315           34770                           CAF      BIT10                                 #  FINISHED WITH SHIFT. SEE IF ROUND
001673: 00,2316           70116                           MASK     ADDRWD                                #  WANTED.
001674: 00,2317           10000                           CCS      A
001675: 00,2320           07105                           TC       ROUNDSUB
001676: 00,2321           16030                           TCF      DANZIG                                #  DO SO AND/OR EXIT.
001677:
001678: 00,2322           50135        DOSSHFT            INDEX    MPTEMP                                #  PICK UP SHIFTING BIT.
001679: 00,2323           34764                           CAF      BIT14
001680: 00,2324           54135                           TS       MPTEMP
001681: 00,2325           34770                           CAF      BIT10                                 #  SEE IF TERMINAL ROUND DESIRED.
001682: 00,2326           70116                           MASK     ADDRWD
001683: 00,2327           10000                           CCS      A
001684: 00,2330           12031                           TCF      RIGHTR                                #  YES.
001685: 00,2331           12033                           TCF      MPACSHR                               #  JUST SHIFT RIGHT.
001686:
001687:                                                                                                  #  PROCESS THE RIGHT- (SL(R) WITH A NEGATIVE COUNT), LEFT-, AND LEFT OPTIONS.
001688:
001689: 00,2332           40135        RIGHT-             CS       MPTEMP                                #  GET ABSOLUTE VALUE - 1 OF SHIFT COUNT
001690: 00,2333           62126                           AD       OCT176                                #  UNDERSTANDING THAT BIT8 (PSEUDO-SIGN)
001691: 00,2334           54135                           TS       MPTEMP                                #  WAS 1 INITIALLY.
001692: 00,2335           12236                           TCF      RIGHT                                 #  DO NORMAL SHIFT RIGHT.
001693:
001694: 00,2336           42126        LEFT-              CS       OCT176                                #  SAME PROLOGUE TO LEFT FOR INDEXED RIGHT
001695: 00,2337           60135                           AD       MPTEMP                                #  SHIFTS WHOSE NET SHIFT COUNT IS NEGATIVE
001696: 00,2340           40000                           COM
001697: 00,2341           54135                           TS       MPTEMP
001698:
001699: 00,2342           10163        LEFT               CCS      MODE                                  #  SINCE LEFT SHIFTING IS SONE ONE PLACE AT
001700: 00,2343           12346                           TCF      GENSCL                                #  A TIME, NO COMPARISON WITH 14 NEED BE
001701: 00,2344           12346                           TCF      GENSCL                                #  DONE. FOR SCALARS, SEE IF TERMINAL ROUND
001702: 00,2345           12145                           TCF      VSSL                                  #  DESIRED. FOR VECTORS, SHIFT IMMEDIATELY.
001703:
001704: 00,2346           40116        GENSCL             CS       ADDRWD                                #  PUT ROUNDING BIT (BIT 10 OF ADDRWD) INTO
001705: 00,2347           00006                           EXTEND                                         #  BIT 15 OF CYR WHERE THE ROUNDING BIT OF
001706: 00,2350           74774                           MP       BIT6                                  #  A SHORT SHIFT LEFT WOULD BE
001707: 00,2351           54020                           TS       CYR
001708: 00,2352           12103                           TCF      TSSL       +2                         #  DO THE SHIFT.
001709:
001710:                                                                                                  #           SCALAR DIVISION INSTRUCTIONS, DDV AND BDDV, ARE EXECUTED HERE. AT THIS POINT, THE DIVIDEND IS IN MPAC
001711:                                                                                                  #  AND THE DIVISOR IN BUF.
001712:
001713: 00,2353           45001        DDV/BDDV           CS       ONE                                   #  INITIALIZATION.
001714: 00,2354           54136                           TS       DVSIGN                                #  +-1 FOR POSITIVE QUOTIENT - -0 FOR NEG.
001715: 00,2355           54137                           TS       DVNORMCT                              #  DIVIDEND NORMALIZATION COUNT.
001716: 00,2356           54140                           TS       MAXDVSW                               #  NEAR-ONE DIVIDE FLAG.
001717:
001718: 00,2357           10130                           CCS      BUF                                   #  FORCE BUF POSITIVE WITH THE MAJOR PART
001719: 00,2360           12515                           TCF      BUFPOS                                #  NON-ZERO.
001720: 00,2361           12363                           TCF      +2
001721: 00,2362           12530                           TCF      BUFNEG
001722:
001723: 00,2363           07225        BUFZERO            TC       BUFAGREE
001724: 00,2364           10154                           CCS      MPAC                                  #  TEST TO SEE IF MPAC NON-ZERO.  (TOO BIG)
001725: 00,2365           12413                           TCF      OVF+                                  #  MAJOR PART OF DIVIDEND IS POSITIVE NON-0
001726: 00,2366           12370                           TCF      +2
001727: 00,2367           12412                           TCF      OVF+       -1                         #  MAJOR PART OF DIVIDEND IS NEG. NON-ZERO
001728:
001729: 00,2370           56131                           XCH      BUF        +1                         #  SHIFT DIVIDEND AND DIVISOR LEFT 14.
001730: 00,2371           56130                           XCH      BUF
001731: 00,2372           56155                           XCH      MPAC       +1
001732: 00,2373           56154                           XCH      MPAC
001733: 00,2374           10130                           CCS      BUF                                   #  TRY AGAIN ON FORMER MINOR PART.
001734: 00,2375           12421                           TCF      BUF+
001735: 00,2376           12400                           TCF      +2                                    #  OVERFLOW ON ZERO DIVISOR.
001736: 00,2377           12415                           TCF      BUF-
001737:
001738: 00,2400           40154                           CS       MPAC                                  #  SIGN OF MPAC DETERMINES SIGN OF RESULT.
001739: 00,2401           00006        SGNDVOVF           EXTEND
001740: 00,2402           62404                           BZMF     +2
001741: 00,2403           24136                           INCR     DVSIGN                                #  NEGMAX IN MPAC PERHAPS.
001742: 00,2404           34761        DVOVF              CAF      POSMAX                                #  ON DIVISION OVERFLOW OF ANY SORT, SET
001743: 00,2405           54154                           TS       MPAC                                  #  SET DP MPAC TO +-POSMAX.
001744: 00,2406           02627                           TC       FINALDV    +3
001745: 00,2407           35001                           CAF      ONE                                   #  SET OVERFLOW INDICATOR AND EXIT.
001746: 00,2410           54121                           TS       OVFIND
001747: 00,2411           06030                           TC       DANZIG
001748:
001749: 00,2412           24136                 -1        INCR     DVSIGN
001750: 00,2413           40131        OVF+               CS       BUF        +1                         #  LOAD LOWER ORDER PART OF DIVISOR.
001751: 00,2414           12401                           TCF      SGNDVOVF                              #  GET SIGN OF RESULT.
001752:
001753: 00,2415           00006        BUF-               EXTEND                                         #  IF BUF IS NEGATIVE, COMPLEMENT IT AND
001754: 00,2416           40131                           DCS      BUF                                   #  MAINTAIN DVSIGN FOR FINAL QUOTIENT SIGN.
001755: 00,2417           52131                           DXCH     BUF
001756: 00,2420           24136                           INCR     DVSIGN                                #  NOW -0.
001757: 00,2421           10154        BUF+               CCS      MPAC                                  #  FORCE MPAC POSITIVE, CHECKING FOR ZERO
001758: 00,2422           12436                           TCF      MPAC+                                 #  DIVIDEND IN THE PROCESS.
001759: 00,2423           12425                           TCF      +2
001760: 00,2424           12432                           TCF      MPAC-
001761: 00,2425           10155                           CCS      MPAC       +1
001762: 00,2426           12436                           TCF      MPAC+
001763: 00,2427           16030                           TCF      DANZIG                                #  EXIT IMMEDIATELY ON ZERO DIVIDEND.
001764: 00,2430           12432                           TCF      MPAC-
001765: 00,2431           16030                           TCF      DANZIG
001766:
001767: 00,2432           00006        MPAC-              EXTEND                                         #  FORCE MPAC POSITIVE AS BUF IN BUF-.
001768: 00,2433           40155                           DCS      MPAC
001769: 00,2434           52155                           DXCH     MPAC
001770: 00,2435           24136                           INCR     DVSIGN                                #  NOW +1 OR -0.
001771:
001772: 00,2436           40154        MPAC+              CS       MPAC                                  #  CHECK FOR DIVISION OVERFLOW. IF THE
001773: 00,2437           67702                           AD       NEGONE                                #  MAJOR PART OF THE DIVIDEND IS LESS THAN
001774: 00,2440           60130                           AD       BUF                                   #  THE MAJOR PART OF THE DIVISOR BY AT
001775: 00,2441           10000                           CCS      A                                     #  LEAST TWO, WE CAN PROCEED IMMEDIATELY
001776: 00,2442           12504                           TCF      DVNORM                                #  WITHOUT NORMALIZATION PRODUCING A DVMAX.
001777: 00,2443           60001        -1/2+2             OCT      60001                                 #  USED IN SQRTSUB.
001778:
001779: 00,2444           12445                           TCF      +1                                    #  IF THE ABOVE DOES NOT HOLD, FORCE SIGN
001780: 00,2445           34764                           CAF      HALF                                  #  AGREEMENT IN NUMERATOR AND DENOMINATOR
001781: 00,2446           60000                           DOUBLE                                         #  TO FACILITATE OVERFLOW AND NEAR-ONE
001782: 00,2447           60155                           AD       MPAC       +1                         #  CHECKING.
001783: 00,2450           54155                           TS       MPAC       +1
001784: 00,2451           35003                           CAF      ZERO
001785: 00,2452           64761                           AD       POSMAX
001786: 00,2453           26154                           ADS      MPAC
001787:
001788: 00,2454           34764                           CAF      HALF                                  #  SAME FOR BUF.
001789: 00,2455           60000                           DOUBLE
001790: 00,2456           60131                           AD       BUF        +1
001791: 00,2457           54131                           TS       BUF        +1
001792: 00,2460           35003                           CAF      ZERO
001793: 00,2461           64761                           AD       POSMAX
001794: 00,2462           26130                           ADS      BUF
001795:
001796: 00,2463           40154                           CS       MPAC                                  #  CHECK MAGNITUDE OF SIGN-CORRECTED
001797: 00,2464           60130                           AD       BUF                                   #  OPERANDS.
001798: 00,2465           10000                           CCS      A
001799: 00,2466           12504                           TCF      DVNORM                                #  DIVIDE OK - WILL NOT BECOME MAXDV CASE.
001800: 00,2467           00133        LBUF2              ADRES    BUF2
001801: 00,2470           12404                           TCF      DVOVF                                 #  DIVISOR NOT LESS THAN DIVIDEND - OVF.
001802:
001803: 00,2471           54140                           TS       MAXDVSW                               #  IF THE MAJOR PARTS OF THE DIVIDEND AND
001804: 00,2472           40155                           CS       MPAC       +1                         #  DIVISOR ARE EQUAL, A SPECIAL APPROXIMA-
001805: 00,2473           60131                           AD       BUF        +1                         #  TION IS USED (PROVIDED THE DIVISION IS
001806: 00,2474           00006                           EXTEND                                         #  POSSIBLE, OF COURSE).
001807: 00,2475           62404                           BZMF     DVOVF
001808: 00,2476           12504                           TCF      DVNORM                                #  IF NO OVERFLOW.
001809:
001810: 00,2477           00006        BUFNORM            EXTEND                                         #  ADD -1 TO AUGMENT SHIFT COUNT AND SHIFT
001811: 00,2500           24137                           AUG      DVNORMCT                              #  LEFT ONE PLACE.
001812: 00,2501           00006                           EXTEND
001813: 00,2502           30131                           DCA      BUF
001814: 00,2503           20131                           DAS      BUF
001815:
001816: 00,2504           30130        DVNORM             CA       BUF                                   #  SEE IF DIVISOR NORMALIZED YET.
001817: 00,2505           60000                           DOUBLE
001818: 00,2506           54000                           OVSK
001819: 00,2507           12477                           TCF      BUFNORM                               #  NO - SHIFT LEFT ONE AND TRY AGAIN.
001820:
001821: 00,2510           52155                           DXCH     MPAC                                  #  CALL DIVIDEND NORMALIZATION SEQUENCE
001822: 00,2511           50137                           INDEX    DVNORMCT                              #  PRIOR TO DOING THE DIVIDE.
001823: 00,2512           02564                           TC       MAXTEST
001824:
001825: 00,2513           54156                           TS       MPAC       +2                         #  RETURNS WITH DIVISION DONE AND C(A) = 0.
001826: 00,2514           16030                           TCF      DANZIG
001827:
001828: 00,2515           10000        BUFPOS             CCS      A
001829: 00,2516           12421                           TCF      BUF+                                  #  TO BUF+ IF BUF IS GREATER THAN +1.
001830:
001831: 00,2517           40131                           CS       BUF        +1                         #  IF BUF IS +1, FORCING SIGN AGREEMENT
001832: 00,2520           00006                           EXTEND                                         #  MAY CAUSE BUF TO BECOME ZERO.
001833: 00,2521           62421                           BZMF     BUF+                                  #  BRANCH IF SIGNS AGREE.
001834:
001835: 00,2522           34764                           CA       HALF                                  #  SIGNS DISAGREE.  FORCE AGREEMENT.
001836: 00,2523           60000                 +6        DOUBLE
001837: 00,2524           26131                           ADS      BUF        +1
001838: 00,2525           35003                           CA       ZERO
001839: 00,2526           54130                           TS       BUF
001840: 00,2527           12363                           TCF      BUFZERO
001841:
001842: 00,2530           10000        BUFNEG             CCS      A
001843: 00,2531           12415                           TCF      BUF-                                  #  TO BUF- IF BUF IS LESS THAN -1.
001844:
001845: 00,2532           30131                           CA       BUF        +1                         #  IF BUF IS -1, FORCING SIGN AGREEMENT
001846: 00,2533           00006                           EXTEND                                         #  MAY CAUSE BUF TO BECOME ZERO.
001847: 00,2534           62415                           BZMF     BUF-                                  #  BRANCH IF SIGNS AGREE.
001848:
001849: 00,2535           44764                           CS       HALF                                  #  SIGNS DISAGREE.  FORCE AGREEMENT.
001850: 00,2536           12523                           TCF      BUFPOS     +6
001851:
001852:                                                                                                  #  THE FOLLOWING ARE PROLOGUES TO SHIFT THE DIVIDEND ARRIVING IN A AND L BEFORE THE DIVIDE.
001853:
001854: 00,2537           22021                 -21D      LXCH     SR                                    #  SPECIAL PROLOGUE FOR UNIT WHEN THE
001855: 00,2540           00006                           EXTEND                                         #  LENGTH OF THE ARGUMENT WAS NOT LESS THAN
001856: 00,2541           74764                           MP       HALF                                  #  .5. IN THIS CASE, EACH COMPONENT MUST BE
001857: 00,2542           56001                           XCH      L                                     #  SHIFTED RIGHT ONE TO PRODUCE A HALF-UNIT
001858: 00,2543           60021                           AD       SR                                    #  VECTOR.
001859: 00,2544           56001                           XCH      L
001860: 00,2545           12570                           TCF      GENDDV     +1                         #  WITH DP DIVIDEND IN A,L.
001861:
001862: 00,2546           20001                           DDOUBL                                         #  PROLOGUE WHICH NORMALIZES THE DIVIDEND
001863: 00,2547           20001                           DDOUBL                                         #  WHEN IT IS KNOWN THAT NO DIVISION
001864: 00,2550           20001                           DDOUBL                                         #  OVERFLOW WILL OCCUR.
001865: 00,2551           20001                           DDOUBL
001866: 00,2552           20001                           DDOUBL
001867: 00,2553           20001                           DDOUBL
001868: 00,2554           20001                           DDOUBL
001869: 00,2555           20001                           DDOUBL
001870: 00,2556           20001                           DDOUBL
001871: 00,2557           20001                           DDOUBL
001872: 00,2560           20001                           DDOUBL
001873: 00,2561           20001                           DDOUBL
001874: 00,2562           20001                           DDOUBL
001875: 00,2563           52155                 -1        DXCH     MPAC
001876: 00,2564           10140        MAXTEST            CCS      MAXDVSW                               #  0 IF MAJORS MIGHT BE =, -1 OTHERWISE.
001877: 00,2565           06552        BIASHI             DEC      .4192      B-1                        #  SQRT CONSTANTS
001878:
001879: 00,2566           12641                           TCF      MAXDV                                 #  CHECK TO SEE IF THEY ARE NOW EQUAL.
001880:
001881:                                                                                                  #  THE FOLLOWING IS A GENERAL PURPOSE DOUBLE PRECISION DIVISION ROUTINE. IT DIVIDES MPAC BY BUF AND LEAVES
001882:                                                                                                  #  THE RESULT IN MPAC. THE FOLLOWING CONDITIONS MUST BE SATISFIED:
001883:
001884:                                                                                                  #        1.      THE DIVISOR (BUF) MUST BE POSITIVE AND NOT LESS THAN .5.
001885:
001886:                                                                                                  #        2.      THE DIVIDEND (MPAC) MUST BE POSITIVE WITH THE MAJOR PART OF MPAC STRICTLY LESS THAN THAT OF BUF
001887:                                                                                                  #                (A SPECIAL APPROXIMATION, MAXDV, IS USED WHEN THE MAJOR PARTS ARE EQUAL).
001888:
001889:                                                                                                  #  UNDERSTANDING THAT A/B = Q + S(R/B) WHERE S = 2(-14) AND Q AND R ARE QUOTIENT AND REMAINDER, RESPEC-
001890:                                                                                                  #  TIVELY, THE FOLLOWING APPROXIMATION IS OBTAINED BY MULTIPLYING ABOVE AND BELOW BY C - SD AND NEGLECTING TERMS OF
001891:                                                                                                  #  ORDER S-SQUARED (POSSIBLY INTRODUCING ERROR INTO THE LOW TWO BITS OF THE RESULT). SIGN AGREEMENT IS UNNECESSARY.
001892:
001893:                                                                                                  #        A + SB .      (R - QD)                                             A + SB
001894:                                                                                                  #        ------ = Q + S(------) WHERE Q AND R ARE QUOTIENT AND REMAINDER OF ------ RESPECTIVELY.
001895:                                                                                                  #        C + SD        (  C   )                                                C
001896:
001897: 00,2567           52155        GENDDV             DXCH     MPAC                                  #  WE NEED A AND B ONLY FOR FIRST DV.
001898: 00,2570           00006                 +1        EXTEND                                         #  (SPECIAL UNIT PROLOGUE ENTERS HERE).
001899: 00,2571           10130                           DV       BUF                                   #  A NOW CONTAINS Q AND L, R.
001900: 00,2572           52155                           DXCH     MPAC
001901:
001902: 00,2573           40154                           CS       MPAC                                  #  FORM DIVIDEND FOR MINOR PART OF RESULT.
001903: 00,2574           00006                           EXTEND
001904: 00,2575           70131                           MP       BUF        +1
001905: 00,2576           60155                           AD       MPAC       +1                         #  OVERFLOW AT THIS POINT IS POSITIVE SINCE
001906: 00,2577           54000                           OVSK                                           #  R IS POSITIVE IN EVERY CASE.
001907: 00,2600           12605                           TCF      +5
001908:
001909: 00,2601           00006                           EXTEND                                         #  OVERFLOW CAN BE REMOVED BY SUBTRACTING C
001910: 00,2602           60130                           SU       BUF                                   #  (BUF) ONCE SINCE R IS ALWAYS LESS THAN C
001911: 00,2603           24154                           INCR     MPAC                                  #  IN THIS CASE. INCR COMPENSATES SUBTRACT.
001912: 00,2604           12607                           TCF      +DOWN                                 #  (SINCE C(A) IS STILL POSITIVE).
001913:
001914: 00,2605           00006                 +5        EXTEND                                         #  C(A) CAN BE MADE LESS THAN C IN MAGNI-
001915: 00,2606           62617                           BZMF     -UP                                   #  TUDE BY DIMINISHING IT BY C (SINCE C IS
001916:                                                                                                  #  NOT LESS THAN .5) UNLESS C(A) = 0.
001917:
001918: 00,2607           00006        +DOWN              EXTEND
001919: 00,2610           60130                           SU       BUF                                   #  IF POSITIVE, REDUCE ONLY IF NECESSARY
001920: 00,2611           00006                           EXTEND                                         #  SINCE THE COMPENSATING INCR MIGHT CAUSE
001921: 00,2612           12615                           BZF      +3                                    #  OVERFLOW.
001922: 00,2613           00006                           EXTEND                                         #  DONT SUBTRACT UNLESS RESULT IS POSITIVE
001923: 00,2614           62623                           BZMF     ENDMAXDV                              #  OR ZERO.
001924:
001925: 00,2615           24154                 +3        INCR     MPAC                                  #  KEEP SUBTRACT HERE AND COMPENSATE.
001926: 00,2616           12624                           TCF      FINALDV
001927:
001928: 00,2617           00006        -UP                EXTEND                                         #  IF ZERO, SET MINOR PART OF RESULT TO
001929: 00,2620           12627                           BZF      FINALDV    +3                         #  ZERO.
001930:
001931: 00,2621           00006                           EXTEND                                         #  IF NEGATIVE, ADD C TO A, SUBTRACTING ONE
001932: 00,2622           26154                           DIM      MPAC                                  #  TO COMPENSATE. DIM IS OK HERE SINCE THE
001933: 00,2623           60130        ENDMAXDV           AD       BUF                                   #  MAJOR PART NEVER GOES NEGATIVE.
001934:
001935: 00,2624           22007        FINALDV            ZL                                             #  DO DV TO OBTAIN MINOR PART OF RESULT.
001936: 00,2625           00006                           EXTEND
001937: 00,2626           10130                           DV       BUF
001938: 00,2627           54155                 +3        TS       MPAC       +1
001939:
001940: 00,2630           10136                           CCS      DVSIGN                                #  LEAVE RESULT POSITIVE UNLESS C(DVSIGN)=
001941: 00,2631           00002                           TC       Q                                     #  -0.
001942: 00,2632           00002                           TC       Q
001943: 00,2633           00002                           TC       Q
001944:
001945: 00,2634           00006                           EXTEND
001946: 00,2635           40155                           DCS      MPAC
001947: 00,2636           52155                           DXCH     MPAC
001948: 00,2637           35003                           CAF      ZERO                                  #  SO WE ALWAYS RETURN WITH C(A) = 0.
001949: 00,2640           00002                           TC       Q
001950:
001951:                                                                                                  #  IF THE MAJOR PARTS OF THE DIVISOR AND DIVIDEND ARE EQUAL, BUT THE MINOR PARTS ARE SUCH THAT THE
001952:                                                                                                  #  DIVIDEND IS STRICTLY LESS THAN THE DIVISOR IN MAGNITUDE, THE FOLLOWING APPROXIMATION IS USED. THE ASSUMPTIONS
001953:                                                                                                  #  ARE THE SAME AS THE GENERAL ROUTINE WITH THE ADDITION THAT SIGN AGREEMENT IS NECESSARY (B, C, & D POSITIVE).
001954:
001955:                                                                                                  #        C + SB .          (C + B - D)
001956:                                                                                                  #        ------ = 37777 + S(---------)
001957:                                                                                                  #        C + SD            (    C    )
001958:
001959:                                                                                                  #  THE DIVISION MAY BE PERFORMED IMMEDIATELY SINCE B IS STRICTLY LESS THAN D AND C IS NOT LESS THAN .5.
001960:
001961: 00,2641           40154        MAXDV              CS       MPAC                                  #  SEE IF MAXDV CASE STILL HOLDS AFTER
001962: 00,2642           60130                           AD       BUF                                   #  NORMALIZATION.
001963: 00,2643           00006                           EXTEND
001964: 00,2644           12646                           BZF      +2
001965: 00,2645           12567                           TCF      GENDDV                                #  MPAC NOW LESS THAN BUF - DIVIDE AS USUAL
001966:
001967: 00,2646           34761                 +2        CAF      POSMAX                                #  SET MAJOR PART OF RESULT.
001968: 00,2647           54154                           TS       MPAC
001969:
001970: 00,2650           40131                           CS       BUF        +1                         #  FORM DIVIDEND OF MINOR PART OF RESULT.
001971: 00,2651           60155                           AD       MPAC       +1
001972: 00,2652           12623                           TCF      ENDMAXDV                              #  GO ADD C AND DO DIVIDE, ATTACHING SIGN
001973:                                                                                                  #  BEFORE EXITING.
001974:
001975:                                                                                                  #  VECTOR DIVIDED BY SCALAR, V/SC, IS EXECUTED HERE. THE VECTOR IS NOW IN MPAC WITH SCALAR IN BUF.
001976:
001977: 00,2653           45001        V/SC2              CS       ONE                                   #  INITIALIZE DIVIDEND NORMALIZATION COUNT
001978: 00,2654           54137                           TS       DVNORMCT                              #  AND DIVISION SIGN REGISTER.
001979: 00,2655           54127                           TS       VBUF       +5
001980:
001981: 00,2656           03007                           TC       VECAGREE                              #  FORCE SIGN AGREEMENT IN VECTOR
001982:
001983: 00,2657           52131                           DXCH     BUF
001984: 00,2660           07500                           TC       ALSIGNAG                              #  SIGN AGREE BUF
001985: 00,2661           52131                           DXCH     BUF
001986: 00,2662           10130                           CCS      BUF                                   #  FORCE DIVISOR POSITIVE WITH MAJOR PART
001987: 00,2663           12720                           TCF      /BUF+                                 #  NON-ZERO (IF POSSIBLE).
001988: 00,2664           12666                           TCF      +2
001989: 00,2665           12714                           TCF      /BUF-
001990:
001991: 00,2666           56131                           XCH      BUF        +1                         #  SHIFT VECTOR AND SCALAR LEFT 14.
001992: 00,2667           56130                           XCH      BUF
001993: 00,2670           56155                           XCH      MPAC       +1
001994: 00,2671           56154                           XCH      MPAC
001995: 00,2672           00006                           EXTEND                                         #  CHECK FOR OVERFLOW IN EACH CASE.
001996: 00,2673           12675                           BZF      +2
001997: 00,2674           12404                           TCF      DVOVF
001998:
001999: 00,2675           56160                           XCH      MPAC       +4
002000: 00,2676           56157                           XCH      MPAC       +3
002001: 00,2677           00006                           EXTEND
002002: 00,2700           12702                           BZF      +2
002003: 00,2701           12404                           TCF      DVOVF
002004:
002005: 00,2702           56162                           XCH      MPAC       +6
002006: 00,2703           56161                           XCH      MPAC       +5
002007: 00,2704           00006                           EXTEND
002008: 00,2705           12707                           BZF      +2
002009: 00,2706           12404                           TCF      DVOVF
002010:
002011: 00,2707           10130                           CCS      BUF
002012: 00,2710           12720                           TCF      /BUF+
002013: 00,2711           12404                           TCF      DVOVF                                 #  ZERO DIVISOR - OVERFLOW.
002014: 00,2712           12714                           TCF      /BUF-
002015: 00,2713           12404                           TCF      DVOVF
002016:
002017: 00,2714           00006        /BUF-              EXTEND                                         #  ON NEGATIVE, COMPLEMENT BUF AND MAINTAIN
002018: 00,2715           40131                           DCS      BUF                                   #  DVSIGN IN VBUF +5.
002019: 00,2716           52131                           DXCH     BUF
002020: 00,2717           24127                           INCR     VBUF       +5
002021:
002022: 00,2720           00006        /BUF+              EXTEND
002023: 00,2721           30131                           DCA      BUF                                   #  LEAVE ABS(ORIG DIVISOR) IN BUF2
002024: 00,2722           52134                           DXCH     BUF2                                  #  FOR OVERFLOW TESTING
002025: 00,2723           12731                           TCF      /NORM                                 #  NORMALIZE DIVISOR IN BUF.
002026:
002027: 00,2724           00006        /NORM2             EXTEND                                         #  IF LESS THAN .5, AUGMENT DVNORMCT AND
002028: 00,2725           24137                           AUG      DVNORMCT                              #  DOUBLE DIVISOR.
002029: 00,2726           00006                           EXTEND
002030: 00,2727           30131                           DCA      BUF
002031: 00,2730           20131                           DAS      BUF
002032:
002033: 00,2731           30130        /NORM              CA       BUF                                   #  SEE IF DIVISOR NORMALIZED.
002034: 00,2732           60000                           DOUBLE
002035: 00,2733           54000                           OVSK
002036: 00,2734           12724                           TCF      /NORM2                                #  DOUBLE AND TRY AGAIN IF NOT.
002037:
002038: 00,2735           02747                           TC       V/SCDV                                #  DO X COMPONENT DIVIDE.
002039: 00,2736           52160                           DXCH     MPAC       +3                         #  SUPPLY ARGUMENTS IN USUAL SEQUENCE.
002040: 00,2737           52155                           DXCH     MPAC
002041: 00,2740           52160                           DXCH     MPAC       +3
002042:
002043: 00,2741           02747                           TC       V/SCDV                                #  Y COMPONENT.
002044: 00,2742           52162                           DXCH     MPAC       +5
002045: 00,2743           52155                           DXCH     MPAC
002046: 00,2744           52162                           DXCH     MPAC       +5
002047:
002048: 00,2745           02747                           TC       V/SCDV                                #  Z COMPONENT.
002049: 00,2746           17354                           TCF      VROTATEX                              #  GO RE-ARRANGE COMPONENTS BEFORE EXIT.
002050:
002051:                                                                                                  #  SUBROUTINE USED BY V/SC TO DIVIDE VECTOR COMPONENT IN MPAC,+1 BY THE SCALAR GIVEN IN BUF.
002052:
002053: 00,2747           30127        V/SCDV             CA       VBUF       +5                         #  REFLECTS SIGN OF SCALAR.
002054: 00,2750           54136                           TS       DVSIGN
002055:
002056: 00,2751           10154                           CCS      MPAC                                  #  FORCE MPAC POSITIVE, EXITING ON ZERO.
002057: 00,2752           12766                           TCF      /MPAC+
002058: 00,2753           12755                           TCF      +2
002059: 00,2754           12762                           TCF      /MPAC-
002060:
002061: 00,2755           10155                           CCS      MPAC       +1
002062: 00,2756           12766                           TCF      /MPAC+
002063: 00,2757           00002                           TC       Q
002064: 00,2760           12762                           TCF      /MPAC-
002065: 00,2761           00002                           TC       Q
002066:
002067: 00,2762           00006        /MPAC-             EXTEND                                         #  USUAL COMPLEMENTING AND SETTING OF SIGN.
002068: 00,2763           40155                           DCS      MPAC
002069: 00,2764           52155                           DXCH     MPAC
002070: 00,2765           24136                           INCR     DVSIGN
002071:
002072: 00,2766           45001        /MPAC+             CS       ONE                                   #  INITIALIZE NEAR-ONE SWITCH.
002073: 00,2767           54140                           TS       MAXDVSW
002074:
002075: 00,2770           40154                           CS       MPAC                                  #  CHECK POSSIBLE OVERFLOW.
002076: 00,2771           60133                           AD       BUF2                                  #  UNNORMALIZED INPUT DIVISOR.
002077: 00,2772           10000                           CCS      A
002078: 00,2773           13003                           TCF      DDVCALL                               #  NOT NEAR-ONE
002079: 00,2774           12776                           TCF      +2                                    #  +0 IS JUST POSSIBLE
002080: 00,2775           12404                           TCF      DVOVF                                 #  NO HOPE
002081: 00,2776           54140                           TS       MAXDVSW                               #  SIGNAL POSSIBLE NEAR-ONE CASE
002082: 00,2777           40155                           CS       MPAC       +1                         #  SEE IF DIVISION CAN BE DONE
002083: 00,3000           60134                           AD       BUF2       +1
002084: 00,3001           00006                           EXTEND
002085: 00,3002           62404                           BZMF     DVOVF
002086:
002087: 00,3003           52155        DDVCALL            DXCH     MPAC                                  #  CALL PRE-DIVIDE NORMALIZATION.
002088: 00,3004           50137                           INDEX    DVNORMCT
002089: 00,3005           12564                           TCF      MAXTEST
002090:
002091: 00,3006           32506        SLOPELO            DEC      .8324
002092:
002093: 00,3007           56002        VECAGREE           XCH      Q                                     #  SAVE Q IN A
002094: 00,3010           52155                           DXCH     MPAC
002095: 00,3011           07500                           TC       ALSIGNAG                              #  SIGNAGREE MPAC
002096: 00,3012           52155                           DXCH     MPAC
002097: 00,3013           52160                           DXCH     MPAC       +3
002098: 00,3014           07500                           TC       ALSIGNAG                              #  SIGN AGREE MPAC +3
002099: 00,3015           52160                           DXCH     MPAC       +3
002100: 00,3016           52162                           DXCH     MPAC       +5
002101: 00,3017           07500                           TC       ALSIGNAG                              #  SIGNAGREE MPAC +5
002102: 00,3020           52162                           DXCH     MPAC       +5
002103: 00,3021           00000                           TC       A
002104:
002105:                                                                                                  #  THE FOLLOWING ROUTINE EXECUTES THE UNIT INSTRUCTION, WHICH TAKES THE UNIT OF THE VECTOR IN MPAC.
002106:
002107: 00,3022           03007        UNIT               TC       VECAGREE                              #  FORCE SIGN AGREEMENT IN VECTOR
002108: 00,3023           07466                           TC       MPACVBUF                              #  SAVE ARGUMENT IN VBUF
002109: 00,3024           35003                           CAF      ZERO                                  #  MUST SENSE OVERFLOW IN FOLLOWING DOT.
002110: 00,3025           56121                           XCH      OVFIND
002111: 00,3026           54141                           TS       TEM1
002112: 00,3027           03316                           TC       VSQSUB                                #  DOT MPAC WITH ITSELF.
002113: 00,3030           30141                           CA       TEM1
002114: 00,3031           56121                           XCH      OVFIND
002115: 00,3032           00006                           EXTEND
002116: 00,3033           13035                           BZF      +2
002117: 00,3034           12404                           TCF      DVOVF
002118: 00,3035           00006                           EXTEND
002119: 00,3036           30155                           DCA      MPAC                                  #  LEAVE THE SQUARE OF THE LENGTH OF THE
002120: 00,3037           50120                           INDEX    FIXLOC                                #  ARGUMENT IN LVSQUARE.
002121: 00,3040           52043                           DXCH     LVSQUARE
002122:
002123: 00,3041           03342                           TC       SQRTSUB                               #  GO TAKE THE NORMALIZED SQUARE ROOT.
002124:
002125: 00,3042           10154                           CCS      MPAC                                  #  CHECK FOR UNIT OVERFLOW.
002126: 00,3043           13050                           TCF      +5                                    #  MPAC IS NOT LESS THAN .5 UNLESS
002127: 00,3044           54001                           TS       L
002128: 00,3045           50120                           INDEX    FIXLOC
002129: 00,3046           52045                           DXCH     LV
002130: 00,3047           12404                           TCF      DVOVF                                 #  INPUT TO SQRTSUB WAS 0.
002131:
002132: 00,3050           44321                           CS       FOURTEEN                              #  SEE IF THE INPUT WAS SO SMALL THE THE
002133: 00,3051           60135                           AD       MPTEMP                                #  FIRST TWO REGISTERS OF THE SQUARE WERE 0
002134: 00,3052           10000                           CCS      A
002135: 00,3053           40000                           COM                                            #  IF SO, SAVE THE NEGATIVE OF THE SHIFT
002136: 00,3054           13132                           TCF      SMALL                                 #  COUNT -15D.
002137:
002138: 00,3055           13064                           TCF      LARGE                                 #  (THIS IS USUALLY THE CASE.)
002139:
002140: 00,3056           45007                           CS       THIRTEEN                              #  IF THE SHIFT COUNT WAS EXACTLY 14, SET
002141: 00,3057           54135                           TS       MPTEMP                                #  THE PRE-DIVIDE NORM COUNT TO -13D.
002142:
002143: 00,3060           30154                           CA       MPAC                                  #  SHIFT THE LENGTH RIGHT 14 BEFORE STORING
002144: 00,3061           54001        SMALL2             TS       L                                     #  (SMALL EXITS TO THIS POINT).
002145: 00,3062           35003                           CAF      ZERO
002146: 00,3063           13111                           TCF      LARGE2                                #  GO TO STORE LENGTH AND PROCEED.
002147:
002148: 00,3064           10135        LARGE              CCS      MPTEMP                                #  MOST ALL CASES COME HERE.
002149: 00,3065           13073                           TCF      LARGE3                                #  SEE IF NO NORMALIZATION WAS REQUIRED BY
002150: 00,3066           42024                           CS       SRDDV                                 #  SQRT, AND IF SO, SET UP FOR A SHIFT
002151: 00,3067           54135                           TS       MPTEMP                                #  RIGHT 1 BEFORE DIVIDING TO PRODUCE
002152: 00,3070           00006                           EXTEND                                         #  THE DESIRED HALF UNIT VECTOR.
002153: 00,3071           30155                           DCA      MPAC
002154: 00,3072           13111                           TCF      LARGE2
002155:
002156: 00,3073           40000        LARGE3             COM                                            #  LEAVE NEGATIVE OF SHIFT COUNT-1 FOR
002157: 00,3074           54135                           TS       MPTEMP                                #  PREDIVIDE LEFT SHIFT.
002158:
002159: 00,3075           40000                           COM                                            #  PICK UP REQUIRED SHIFTING BIT TO UNNORM-
002160: 00,3076           50000                           INDEX    A                                     #  ALIZE THE SQRT RESULT.
002161: 00,3077           34764                           CAF      BIT14
002162: 00,3100           54130                           TS       BUF
002163: 00,3101           00006                           EXTEND
002164: 00,3102           70155                           MP       MPAC       +1
002165: 00,3103           56130                           XCH      BUF
002166: 00,3104           00006                           EXTEND                                         #  (UNNORMALIZE THE SQRT FOR LV).
002167: 00,3105           70154                           MP       MPAC
002168: 00,3106           56001                           XCH      L
002169: 00,3107           60130                           AD       BUF
002170: 00,3110           56001                           XCH      L
002171:
002172: 00,3111           50120        LARGE2             INDEX    FIXLOC
002173: 00,3112           52045                           DXCH     LV                                    #  LENGTH NOW STORED IN WORK AREA.
002174:
002175: 00,3113           45001                           CS       ONE
002176: 00,3114           54140                           TS       MAXDVSW                               #  NO MAXDV CASES IN UNIT.
002177:
002178: 00,3115           52123                           DXCH     VBUF                                  #  PREPARE X COMPONENT FOR DIVIDE, SETTING
002179: 00,3116           52155                           DXCH     MPAC                                  #  LENGTH OF VECTOR AS DIVISOR IN BUF.
002180: 00,3117           52131                           DXCH     BUF
002181: 00,3120           03150                           TC       UNITDV
002182:
002183: 00,3121           52125                           DXCH     VBUF       +2                         #  DO Y AND Z IN USUAL FASHION SO WE CAN
002184: 00,3122           52155                           DXCH     MPAC                                  #  EXIT THROUGH VROTATEX.
002185: 00,3123           52160                           DXCH     MPAC       +3
002186: 00,3124           03150                           TC       UNITDV
002187:
002188: 00,3125           52127                           DXCH     VBUF       +4
002189: 00,3126           52155                           DXCH     MPAC
002190: 00,3127           52162                           DXCH     MPAC       +5
002191: 00,3130           03150                           TC       UNITDV
002192: 00,3131           17354                           TCF      VROTATEX                              #  AND EXIT.
002193:
002194:                                                                                                  #           IF THE LENGTH OF THE ARGUMENT VECTOR WAS LESS THAN 2(-28), EACH COMPONENT MUST BE SHIFTED LEFT AT LEAST
002195:                                                                                                  #  14 PLACES BEFORE THE DIVIDE. NOTE THAT IN THIS CASE, THE MAJOR PART OF EACH COMPONENT IS ZERO.
002196:
002197: 00,3132           54135        SMALL              TS       MPTEMP                                #  NEGATIVE OF PRE-DIVIDE SHIFT COUNT.
002198:
002199: 00,3133           35003                           CAF      ZERO                                  #  SHIFT EACH COMPONENT LEFT 14.
002200: 00,3134           56123                           XCH      VBUF       +1
002201: 00,3135           56122                           XCH      VBUF
002202: 00,3136           56125                           XCH      VBUF       +3
002203: 00,3137           56124                           XCH      VBUF       +2
002204: 00,3140           56127                           XCH      VBUF       +5
002205: 00,3141           56126                           XCH      VBUF       +4
002206:
002207: 00,3142           40135                           CS       MPTEMP
002208: 00,3143           50000                           INDEX    A
002209: 00,3144           34764                           CAF      BIT14
002210: 00,3145           00006                           EXTEND
002211: 00,3146           70154                           MP       MPAC
002212: 00,3147           13061                           TCF      SMALL2
002213:
002214: 00,3150     5007               THIRTEEN           =        OCT15
002215: 00,3150     4321               FOURTEEN           =        OCT16
002216: 00,3150     4321               OCT16              =        R1D1
002217:
002218:                                                                                                  #  THE FOLLOWING ROUTINE SETS UP THE CALL TO THE DIVIDE ROUTINES.
002219:
002220: 00,3150           10154        UNITDV             CCS      MPAC                                  #  FORCE MPAC POSITIVE IF POSSIBLE, SETTING
002221: 00,3151           13167                           TCF      UMPAC+                                #  DVSIGN ACCORDING TO THE SIGN OF MPAC
002222: 00,3152           13154                           TCF      +2                                    #  SINCE THE DIVISOR IS ALWAYS POSITIVE
002223: 00,3153           13161                           TCF      UMPAC-                                #  HERE.
002224:
002225: 00,3154           10155                           CCS      MPAC       +1
002226: 00,3155           13167                           TCF      UMPAC+
002227: 00,3156           00002                           TC       Q                                     #  EXIT IMMEDIATELY ON ZERO.
002228: 00,3157           13161                           TCF      UMPAC-
002229: 00,3160           00002                           TC       Q
002230:
002231: 00,3161           45003        UMPAC-             CS       ZERO                                  #  IF NEGATIVE, SET -0 IN DVSIGN FOR FINAL
002232: 00,3162           54136                           TS       DVSIGN                                #  COMPLEMENT.
002233: 00,3163           00006                           EXTEND
002234: 00,3164           40155                           DCS      MPAC                                  #  PICK UP ABSOLUTE VALUE OF ARG AND JUMP.
002235: 00,3165           50135                           INDEX    MPTEMP
002236: 00,3166           12563                           TCF      MAXTEST    -1
002237:
002238: 00,3167           54136        UMPAC+             TS       DVSIGN                                #  SET DVSIGN FOR POSITIVE QUOTIENT.
002239: 00,3170           52155                           DXCH     MPAC
002240: 00,3171           50135                           INDEX    MPTEMP
002241: 00,3172           12563                           TCF      MAXTEST    -1
002242:
002243:                                                                                                  #  MISCELLANEOUS UNARY OPERATIONS.
002244:
002245: 00,3173           03277        DSQ                TC       DSQSUB                                #  SQUARE THE DP CONTENTS OF MPAC.
002246: 00,3174           16030                           TCF      DANZIG
002247:
002248: 00,3175           10163        ABVALABS           CCS      MODE                                  #  ABVAL OR ABS INSTRUCTION.
002249: 00,3176           13225                           TCF      ABS                                   #  DO ABS ON SCALAR.
002250: 00,3177           13225                           TCF      ABS
002251:
002252: 00,3200           03316        ABVAL              TC       VSQSUB                                #  DOT MPAC WITH ITSELF.
002253: 00,3201           22163                           LXCH     MODE                                  #  MODE IS NOW DP (L ZERO AFTER DAS).
002254:
002255: 00,3202           00006                           EXTEND                                         #  STORE SQUARE OF LENGTH IN WORK AREA.
002256: 00,3203           30155                           DCA      MPAC
002257: 00,3204           50120                           INDEX    FIXLOC
002258: 00,3205           52043                           DXCH     LVSQUARE
002259:
002260:                                                                                                  #  PROGRAM DESCRIPTION - SUBROUTINE SQRT
002261:                                                                                                  #
002262:                                                                                                  #  FUNCTIONAL DESCRIPTION - DOUBLE PRECISION SQUARE ROOT ROUTINE
002263:                                                                                                  #
002264:                                                                                                  #        THIS PROGRAM TAKES THE SQUARE ROOT OF THE 27 OR 28 MOST SIGNIFICANT BITS IN THE TRIPLE PRECISION SET OF
002265:                                                                                                  #        NUMBERS - MPAC, MPAC+1, AND MPAC+2.  THE ROOT IS RETURNED DOUBLE PRECISION IN MPAC AND MPAC+1.
002266:                                                                                                  #
002267:                                                                                                  #  WARNING - THIS SUBROUTINE USES A TRIPLE PRECISION INPUT. THE PROGRAMMER MUST ASSURE THE CONTENTS OF MPAC+2
002268:                                                                                                  #        ESPECIALLY IF THE CONTENTS OF MPAC IS SMALL OR ZERO.  FOR DETAILS SEE STG MEMO NO.949.
002269:                                                                                                  #
002270:                                                                                                  #  CALLING SEQUENCE - IN INTERPRETIVE MODE I.E., FOLLOWING TC  INTPRET, SQRT   NO ADDRESS IS ALLOWED
002271:
002272:                                                                                                  #  INPUT SCALING  THE BINARY POINT IS ASSUMED TO THE RIGHT OF BIT 15. THE ANSWER IS RETURNED WITH THE SAME SCALING
002273:
002274:                                                                                                  #  SUBROUTINES - GENSCR, MPACSHR, SQRTSUB, ABORT
002275:
002276:                                                                                                  #  ABORT EXIT MODE - ABORTS ON NEGATIVE INPUT -1.2X10E-4 (77775  OCTAL) OR LESS.
002277:                                                                                                  #        DISPLAYS ERROR CODE 1302
002278:                                                                                                  #                TC      ABORT
002279:                                                                                                  #                OCT     1302
002280:
002281:                                                                                                  #  DEBRIS - LOCATIONS BUF, MPTEMP, ADDRWD ARE USED
002282:
002283: 00,3206           03342        SQRT               TC       SQRTSUB                               #  TAKE THE SQUARE ROOT OF MPAC.
002284: 00,3207           10135                           CCS      MPTEMP                                #  RETURNED NORMALIZED SQUARE ROOT. SEE IF
002285: 00,3210           13212                           TCF      +2                                    #  ANY UN-NORMALIZATION REQUIRED AND EXIT
002286: 00,3211           16030                           TCF      DANZIG                                #  IF NOT.
002287:
002288: 00,3212           63726                           AD       NEG12                                 #  A RIGHT SHIFT OF MORE THAN 13 COULD BE
002289: 00,3213           00006                           EXTEND                                         #  REQUIRED IF INPUT WAS ZERO IN MPAC,+1.
002290: 00,3214           63220                           BZMF     SQRTSHFT                              #  GOES HERE IN MOST CASES.
002291: 00,3215           22007                           ZL                                             #  IF A LONG SHIFT IS REQUIRED, GO TO
002292: 00,3216           22116                           LXCH     ADDRWD                                #  GENERAL RIGHT SHIFT ROUTINES.
002293: 00,3217           12303                           TCF      GENSCR     +4                         #  ADDRWD WAS ZERO TO PREVENT ROUND.
002294:
002295: 00,3220           50135        SQRTSHFT           INDEX    MPTEMP                                #  SELECT SHIFTING BIT AND EXIT THROUGH
002296: 00,3221           34763                           CAF      BIT15                                 #  SHIFT ROUTINES.
002297: 00,3222           54135                           TS       MPTEMP
002298: 00,3223           35003                           CAF      ZERO                                  #  TO ZERO MPAC +2 IN THE PROCESS.
002299: 00,3224           12036                           TCF      MPACSHR    +3
002300:
002301: 00,3225           06672        ABS                TC       BRANCH                                #  TEST SIGN OF MPAC AND COMPLEMENT IF
002302: 00,3226           16030                           TCF      DANZIG
002303: 00,3227           16030                           TCF      DANZIG
002304: 00,3230           17624                           TCF      COMP
002305:
002306: 00,3231           44777        VDEF               CS       FOUR                                  #  VECTOR DEFINE - ESSENTIALLY TREATS
002307: 00,3232           26166                           ADS      PUSHLOC                               #  SCALAR IN MPAC AS X COMPONENT, PUSHES UP
002308: 00,3233           00006                           EXTEND                                         #  FOR Y AND THEN AGAIN FOR Z.
002309: 00,3234           50000                           INDEX    A
002310: 00,3235           30003                           DCA      2
002311: 00,3236           52160                           DXCH     MPAC       +3
002312: 00,3237           00006                           EXTEND
002313: 00,3240           50166                           INDEX    PUSHLOC
002314: 00,3241           30001                           DCA      0
002315: 00,3242           52162                           DXCH     MPAC       +5
002316: 00,3243           16470                           TCF      VMODE                                 #  MODE IS NON VECTOR.
002317:
002318: 00,3244           03316        VSQ                TC       VSQSUB                                #  DOT MPAC WITH ITSELF.
002319: 00,3245           17266                           TCF      DMODE                                 #  MODE IS NOW DP.
002320:
002321: 00,3246           00006        PUSH               EXTEND                                         #  PUSH DOWN MPAC LEAVING IT LOADED.
002322: 00,3247           30155                           DCA      MPAC
002323: 00,3250           50166                           INDEX    PUSHLOC                               #  PUSH DOWN FIRST TWO REGISTERS IN EACH
002324: 00,3251           52001                           DXCH     0
002325:
002326: 00,3252           50163                           INDEX    MODE                                  #  INCREMENT PUSHDOWN POINTER.
002327: 00,3253           36213                           CAF      NO.WDS
002328: 00,3254           26166                           ADS      PUSHLOC
002329:
002330: 00,3255           10163                           CCS      MODE
002331: 00,3256           13271                           TCF      TPUSH                                 #  PUSH DOWN MPAC +2.
002332: 00,3257           16030                           TCF      DANZIG                                #  DONE FOR DP.
002333:
002334: 00,3260           00006                           EXTEND                                         #  ON VECTOR, PUSH DOWN Y AND Z COMPONENTS.
002335: 00,3261           30160                           DCA      MPAC       +3
002336: 00,3262           50166                           INDEX    PUSHLOC
002337: 00,3263           51775                           DXCH     0          -4
002338: 00,3264           00006                           EXTEND
002339: 00,3265           30162                           DCA      MPAC       +5
002340: 00,3266           50166                           INDEX    PUSHLOC
002341: 00,3267           51777                           DXCH     0          -2
002342: 00,3270           16030                           TCF      DANZIG
002343:
002344: 00,3271           30156        TPUSH              CA       MPAC       +2
002345: 00,3272           16523                           TCF      ENDTPUSH   +2
002346:
002347: 00,3273           50120        RVQ                INDEX    FIXLOC                                #  RVQ - RETURN IVA QPRET.
002348: 00,3274           30052                           CA       QPRET
002349: 00,3275           54117                           TS       POLISH
002350: 00,3276           16621                           TCF      GOTO       +4                         #  (ASSUME QPRET POINTS TO FIXED ONLY.)
002351:
002352:                                                                                                  #           THE FOLLOWING SUBROUTINES ARE USED IN SQUARING MPAC, IN BOTH THE SCALAR AND VECTOR SENSE. THEY ARE
002353:                                                                                                  #  SPECIAL CASES OF DMPSUB AND DOTSUB, PUT IN TO SAVE SOME TIME.
002354:
002355: 00,3277           30155        DSQSUB             CA       MPAC       +1                         #  SQUARES THE SCALAR CONTENTS OF MPAC.
002356: 00,3300           00006                           EXTEND
002357: 00,3301           70000                           SQUARE
002358: 00,3302           54156                           TS       MPAC       +2
002359: 00,3303           35003                           CAF      ZERO                                  #  FORM 2(CROSS TERM).
002360: 00,3304           56155                           XCH      MPAC       +1
002361: 00,3305           00006                           EXTEND
002362: 00,3306           70154                           MP       MPAC
002363: 00,3307           20001                           DDOUBL                                         #  AND MAYBE OVERFLOW.
002364: 00,3310           20156                           DAS      MPAC       +1                         #  AND SET A TO NET OVERFLOW.
002365: 00,3311           56154                           XCH      MPAC
002366: 00,3312           00006                           EXTEND
002367: 00,3313           70000                           SQUARE
002368: 00,3314           20155                           DAS      MPAC
002369: 00,3315           00002                           TC       Q
002370:
002371: 00,3316           00006        VSQSUB             EXTEND                                         #  DOTS THE VECTOR IN MPAC WITH ITSELF.
002372: 00,3317           22137                           QXCH     DOTRET
002373: 00,3320           03277                           TC       DSQSUB                                #  SQUARE THE X COMPONENT.
002374: 00,3321           52160                           DXCH     MPAC       +3
002375: 00,3322           52155                           DXCH     MPAC
002376: 00,3323           52131                           DXCH     BUF                                   #  SO WE CAN END IN DOTSUB.
002377: 00,3324           30156                           CA       MPAC       +2
002378: 00,3325           54132                           TS       BUF        +2
002379:
002380: 00,3326           03277                           TC       DSQSUB                                #  SQUARE Y COMPONENT.
002381: 00,3327           52156                           DXCH     MPAC       +1
002382: 00,3330           20132                           DAS      BUF        +1
002383: 00,3331           60154                           AD       MPAC
002384: 00,3332           60130                           AD       BUF
002385: 00,3333           54130                           TS       BUF
002386: 00,3334           13336                           TCF      +2
002387: 00,3335           54121                           TS       OVFIND                                #  IF OVERFLOW.
002388:
002389: 00,3336           52162                           DXCH     MPAC       +5
002390: 00,3337           52155                           DXCH     MPAC
002391: 00,3340           03277                           TC       DSQSUB                                #  SQUARE Z COMPONENT.
002392: 00,3341           17154                           TCF      ENDDOT                                #  END AS IN DOTSUB.
002393:
002394:                                                                                                  #  DOUBLE PRECISION SQUARE ROOT ROUTINE. TAKE THE SQUARE ROOT OF THE TRIPLE PRECISION (MPAC +2 USED ONLY
002395:                                                                                                  #  IN NORMALIZATION) CONTENTS OF MPAC AND LEAVE THE NORMALIZED RESULT IN MPAC (C(MPAC) GREATER THAN OR EQUAL TO
002396:                                                                                                  #  .5). THE RIGHT SHIFT COUNT (TO UNNORMALIZE) IS LEFT IN MPTEMP.
002397:
002398: 00,3342           35003        SQRTSUB            CAF      ZERO                                  #  START BY ZEROING RIGHT SHIFT COUNT.
002399: 00,3343           54135                           TS       MPTEMP
002400:
002401: 00,3344           10154                           CCS      MPAC                                  #  CHECK FOR POSITIVE ARGUMENT, SHIFTING
002402: 00,3345           13403                           TCF      SMPAC+                                #  FIRST SIGNIFICANT MPAC REGISTER INTO
002403: 00,3346           13350                           TCF      +2                                    #  MPAC ITSELF.
002404: 00,3347           13372                           TCF      SQRTNEG                               #  SEE IF MAG OF ARGUMENT LESS THAN 10(-4).
002405:
002406: 00,3350           56156                           XCH      MPAC       +2                         #  MPAC IS ZERO - SHIFT LEFT 14.
002407: 00,3351           56155                           XCH      MPAC       +1
002408: 00,3352           54154                           TS       MPAC
002409: 00,3353           35005                           CAF      SEVEN                                 #  AUGMENT RIGHT SHIFT COUNTER.
002410: 00,3354           54135                           TS       MPTEMP
002411:
002412: 00,3355           10154                           CCS      MPAC                                  #  SEE IF MPAC NOW PNZ.
002413: 00,3356           13403                           TCF      SMPAC+
002414: 00,3357           13361                           TCF      +2
002415: 00,3360           13375                           TCF      ZEROANS                               #  NEGATIVE BUT LESS THAN 10(-4) IN MAG.
002416:
002417: 00,3361           56155                           XCH      MPAC       +1                         #  ZERO - SHIFT LEFT 14 AGAIN.
002418: 00,3362           54154                           TS       MPAC
002419: 00,3363           35005                           CAF      SEVEN                                 #  AUGMENT RIGHT SHIFT COUNTER.
002420: 00,3364           26135                           ADS      MPTEMP
002421:
002422: 00,3365           10154                           CCS      MPAC
002423: 00,3366           13403                           TCF      SMPAC+
002424: 00,3367           00002                           TC       Q                                     #  SQRT(0) = 0.
002425: 00,3370           13375                           TCF      ZEROANS
002426: 00,3371           13450                           TCF      FIXROOT                               #  DO NOT LEAVE SQRTSUB WITH -0 IN MPAC.
002427:
002428: 00,3372           10000        SQRTNEG            CCS      A                                     #  ARGUMENT IS NEGATIVE, BUT SEE IF SIGN-
002429: 00,3373           13401                           TCF      SQRTABRT                              #  CORRECTED ARGUMENT IS LESS THAN 10(-4)
002430:
002431: 00,3374           10155                           CCS      MPAC       +1                         #  IN MAGNITUDE. IF SO, CALL ANSWER ZERO.
002432: 00,3375           35003        ZEROANS            CAF      ZERO                                  #  FORCE ANSWER TO ZERO HERE.
002433: 00,3376           13450                           TCF      FIXROOT
002434: 00,3377           13401                           TCF      SQRTABRT
002435: 00,3400           13450                           TCF      FIXROOT
002436:
002437: 00,3401           05701        SQRTABRT           TC       POODOO
002438: 00,3402           21302                           OCT      21302                                 #  SQRT CALLED WITH NEGATIVE ARGUMENT
002439:
002440: 00,3403           62443        SMPAC+             AD       -1/2+2                                #  SEE IF ARGUMENT GREATER THAN OR EQUAL TO
002441: 00,3404           00006                           EXTEND                                         #  .5.
002442: 00,3405           63453                           BZMF     SRTEST                                #  IF SO, SEE IF LESS THAN .25.
002443:
002444: 00,3406           52155                           DXCH     MPAC                                  #  WE WILL TAKE THE SQUARE ROOT OF MPAC/2.
002445: 00,3407           22021                           LXCH     SR                                    #  SHIFT RIGHT 1 AND GO TO THE SQRT ROUTINE
002446: 00,3410           00006                           EXTEND
002447: 00,3411           74764                           MP       HALF
002448: 00,3412           52155                           DXCH     MPAC
002449: 00,3413           56021                           XCH      SR
002450: 00,3414           26155                           ADS      MPAC       +1                         #  GUARANTEED NO OVERFLOW.
002451:
002452: 00,3415           32314        ARGHI              CAF      SLOPEHI                               #  ARGUMENT BETWEEN .25 AND .5. GET A
002453: 00,3416           00006                           EXTEND                                         #  LINEAR APPROXIMATION FOR THIS RANGE.
002454: 00,3417           70154                           MP       MPAC
002455: 00,3420           62565                           AD       BIASHI                                #  X0/2 = (MPAC/2)(SLOPEHI) + BIASHI/2.
002456:
002457: 00,3421           54130                 +4        TS       BUF                                   #  X0/2 (ARGLO ENTERS HERE).
002458: 00,3422           30154                           CA       MPAC                                  #  SINGLE-PRECISION THROUGHOUT.
002459: 00,3423           00006                           EXTEND
002460: 00,3424           74764                           MP       HALF                                  #  .5(MPAC/2)
002461: 00,3425           00006                           EXTEND
002462: 00,3426           10130                           DV       BUF                                   #  .5(MPAC/2)/(X0/2)
002463: 00,3427           26130                           ADS      BUF                                   #  X1 = X0/2 + .5(MPAC/2)/(X0/2).
002464:
002465: 00,3430           00006                           EXTEND
002466: 00,3431           74764                           MP       HALF                                  #  FORM UP X1/2.
002467: 00,3432           52155                           DXCH     MPAC                                  #  SAVE AND BRING OUT ARGUMENT.
002468: 00,3433           00006                           EXTEND                                         #  TAKE DP QUOTIENT WITH X1.
002469: 00,3434           10130                           DV       BUF
002470: 00,3435           54131                           TS       BUF        +1                         #  SAVE MAJOR PART OF QUOTIENT.
002471: 00,3436           35003                           CAF      ZERO                                  #  FORM MINOR PART OF QUOTIENT USING
002472: 00,3437           56001                           XCH      L                                     #  (REMAINDER,0).
002473: 00,3440           00006                           EXTEND
002474: 00,3441           10130                           DV       BUF
002475: 00,3442           54001                           TS       L                                     #  IN PREPARATION FOR DAS.
002476: 00,3443           30131                           CA       BUF        +1
002477: 00,3444           20155                           DAS      MPAC                                  #  X2 = X1/2 + (MPAC/2)X1
002478:
002479: 00,3445           00006                           EXTEND                                         #  OVERFLOWS IF ARG. NEAR POSMAX.
002480: 00,3446           13452                           BZF      TCQBNK00
002481: 00,3447           34761                           CAF      POSMAX
002482: 00,3450           54154        FIXROOT            TS       MPAC
002483: 00,3451           54155                           TS       MPAC       +1
002484: 00,3452           00002        TCQBNK00           TC       Q                                     #  RETURN TO CALLER TO UNNORMALIZE, ETC.
002485:
002486: 00,3453           64765        SRTEST             AD       QUARTER                               #  ARGUMENT WAS LESS THAN .5, SEE IF LESS
002487: 00,3454           00006                           EXTEND                                         #  THAN .25.
002488: 00,3455           63477                           BZMF     SQRTNORM                              #  IF SO, BEGIN NORMALIZATION.
002489:
002490: 00,3456           52155                           DXCH     MPAC                                  #  IF BETWEEN .5 AND .25, SHIFT RIGHT 1 AND
002491: 00,3457           22021                           LXCH     SR                                    #  START AT ARGLO.
002492: 00,3460           00006                           EXTEND
002493: 00,3461           74764                           MP       HALF
002494: 00,3462           52155                           DXCH     MPAC
002495: 00,3463           56021                           XCH      SR
002496: 00,3464           26155                           ADS      MPAC       +1                         #  NO OVERFLOW.
002497:
002498: 00,3465           33006        ARGLO              CAF      SLOPELO                               #  (NORMALIZED) ARGUMENT BETWEEN .125 AND
002499: 00,3466           00006                           EXTEND                                         #  .25
002500: 00,3467           70154                           MP       MPAC
002501: 00,3470           62270                           AD       BIASLO
002502: 00,3471           13421                           TCF      ARGHI      +4                         #  BEGIN SQUARE ROOT.
002503:
002504: 00,3472           00006        SQRTNM2            EXTEND                                         #  SHIFT LEFT 2 AND INCREMENT RIGHT SHIFT
002505: 00,3473           30156                           DCA      MPAC       +1                         #  COUNT (FOR TERMINAL UNNORMALIZATION).
002506: 00,3474           20156                           DAS      MPAC       +1
002507: 00,3475           60154                           AD       MPAC
002508: 00,3476           26154                           ADS      MPAC                                  #  (NO OVERFLOW).
002509:
002510: 00,3477           24135        SQRTNORM           INCR     MPTEMP                                #  FIRST TIME THROUGH, JUST SHIFT LEFT 1
002511: 00,3500           00006                           EXTEND                                         #  (PUTS IN EFFECTIVE RIGHT SHIFT SINCE
002512: 00,3501           30156                           DCA      MPAC       +1                         #  WE WANT MPAC/2).
002513: 00,3502           20156                           DAS      MPAC       +1
002514: 00,3503           60154                           AD       MPAC
002515: 00,3504           26154                           ADS      MPAC                                  #  (AGAIN NO OVERFLOW).
002516: 00,3505           60000                           DOUBLE
002517: 00,3506           54022                           TS       CYL
002518:
002519: 00,3507           10022        NORMTEST           CCS      CYL                                   #  SEE IF ARGUMENT NOW NORMALIZED AT
002520: 00,3510           10022                           CCS      CYL                                   #  GREATER THAN .125.
002521: 00,3511           13472                           TCF      SQRTNM2                               #  NO - SHIFT LEFT 2 MORE AND TRY AGAIN.
002522: 00,3512           13415                           TCF      ARGHI                                 #  YES - NOW BETWEEN .5 AND .25.
002523: 00,3513           13465                           TCF      ARGLO                                 #  ARGUMENT NOW BETWEEN .25 AND .125.
002524:
002525:                                                                                                  #  TRIGONOMETRIC FUNCTION PACKAGE.
002526:
002527:                                                                                                  #        THE FOLLOWING TRIGONOMETRIC FUNCTIONS ARE AVAILABLE AS INTERPRETIVE OPERATIONS:
002528:
002529:                                                                                                  #        1.      SIN             COMPUTES (1/2)SINE(2 PI MPAC).
002530:                                                                                                  #        2.      COS             COMPUTES (1/2)COSINE(2 PI MPAC).
002531:
002532:                                                                                                  #        3.      ASIN            COMPUTES (1/2PI)ARCSINE(2 MPAC).
002533:                                                                                                  #        4.      ACOS            COMPUTES (1/2PI)ARCCOSINE(2 MPAC).
002534:
002535:                                                                                                  #  SIN-ASIN AND COS-ACOS ARE MUTUALLY INVERSE, IE SIN(ASIN(X)) = X.
002536:
002537: 00,3514           06672        COSINE             TC       BRANCH                                #  FINDS COSINE USING THE IDENTITY
002538: 00,3515           13520                           TCF      +3                                    #  COS(X) = SIN(PI/2 - ABS(X)).
002539: 00,3516           13523                           TCF      PRESINE
002540: 00,3517           13523                           TCF      PRESINE
002541:
002542: 00,3520           00006                 +3        EXTEND
002543: 00,3521           40155                           DCS      MPAC
002544: 00,3522           52155                           DXCH     MPAC
002545:
002546: 00,3523           34765        PRESINE            CAF      QUARTER                               #  PI/2 SCALED.
002547: 00,3524           26154                           ADS      MPAC
002548:
002549: 00,3525           52155        SINE               DXCH     MPAC                                  #  DOUBLE ARGUMENT.
002550: 00,3526           20001                 +1        DDOUBL
002551: 00,3527           54000                           OVSK                                           #  SEE IF OVERFLOW PRESENT.
002552: 00,3530           13533                           TCF      +3                                    #  IF NOT, ARGUMENT OK AS IS.
002553:
002554: 00,3531           00006                           EXTEND                                         #  IF SO, WE LOST (OR GAINED) PI, SO
002555: 00,3532           40001                           DCOM                                           #  COMPLEMENT MPAC USING THE IDENTITY
002556:                                                                                                  #  SIN(X-(+)PI) = SIN(-X).
002557: 00,3533           52155                 +3        DXCH     MPAC
002558: 00,3534           30154                           CA       MPAC                                  #  SEE IF ARGUMENT GREATER THAN .5 IN
002559: 00,3535           60000                           DOUBLE                                         #  MAGNITUDE. IF SO, REDUCE IT TO LESS THAN
002560: 00,3536           54001                           TS       L                                     #  .5 (+-PI/2 SCALED) AS FOLLOWS:
002561: 00,3537           13550                           TCF      SN1
002562:
002563: 00,3540           50000                           INDEX    A                                     #  IF POSITIVE, FORM PI - X, IF NEGATIVE
002564: 00,3541           34763                           CAF      NEG1/2     +1                         #  USE -PI -X.
002565: 00,3542           60000                           DOUBLE
002566: 00,3543           00006                           EXTEND
002567: 00,3544           60154                           SU       MPAC                                  #  GUARANTEED NO OVERFLOW.
002568: 00,3545           54154                           TS       MPAC
002569: 00,3546           40155                           CS       MPAC       +1
002570: 00,3547           54155                           TS       MPAC       +1
002571:
002572: 00,3550           00006        SN1                EXTEND                                         #  SET UP TO EVALUATE HASTINGS POLYNOMIAL
002573: 00,3551           30155                           DCA      MPAC
002574: 00,3552           52134                           DXCH     BUF2
002575: 00,3553           03277                           TC       DSQSUB                                #  SQUARE MPAC.
002576:
002577: 00,3554           07171                           TC       POLY                                  #  EVALUATE FOURTH ORDER POLYNOMIAL.
002578: 00,3555           00003                           DEC      3          B-14
002579: 00,3556           14441 37325                     2DEC     +.3926990796
002580: 00,3560           53250 60764                     2DEC     -.6459637111
002581: 00,3562           12146 21276                     2DEC     +.318758717
002582: 00,3564           75466 71471                     2DEC     -.074780249
002583: 00,3566           00236 32757                     2DEC     +.009694988
002584:
002585: 00,3570           32467                           CAF      LBUF2                                 #  MULTIPLY BY ARGUMENT AND SHIFT LEFT 2.
002586: 00,3571           07055                           TC       DMPSUB     -1
002587:
002588: 00,3572           00006                           EXTEND
002589: 00,3573           30156                           DCA      MPAC       +1
002590: 00,3574           20156                           DAS      MPAC       +1
002591: 00,3575           60154                           AD       MPAC
002592: 00,3576           26154                           ADS      MPAC                                  #  NEITHER SHIFT OVERFLOWS.
002593: 00,3577           00006                           EXTEND
002594: 00,3600           30156                           DCA      MPAC       +1
002595: 00,3601           20156                           DAS      MPAC       +1
002596: 00,3602           60154                           AD       MPAC
002597: 00,3603           26154                           ADS      MPAC
002598: 00,3604           16030                           TCF      DANZIG
002599:
002600:                                                                                                  #  ARCSIN/ARCCOS ROUTINE.
002601:
002602: 00,3605           33626        ARCSIN             CAF      LASINEX                               #  COMPUTE ARCSIN BY USING THE IDENTITY
002603: 00,3606           13610                           TCF      +2                                    #  ARCSIN(X) = PI/2 - ARCCOS(X).
002604:
002605: 00,3607           33710        ARCCOS             CAF      LDANZIG                               #  (EXITS IMMEDIATELY).
002606: 00,3610           54136                           TS       ESCAPE
002607: 00,3611           06672                           TC       BRANCH                                #  TEST SIGN OF INPUT.
002608: 00,3612           13622                           TCF      ACOSST                                #  START IMMEDIATELY IF POSITIVE.
002609: 00,3613           13724                           TCF      ACOSZERO                              #  ARCCOS(0) = PI/2 = .25.
002610: 00,3614           00006                           EXTEND                                         #  IF NEGATIVE, USE THE IDENTITY
002611: 00,3615           40155                           DCS      MPAC                                  #  ARCCOS(X) = PI - ARCCOS(-X), FORCING
002612: 00,3616           52155                           DXCH     MPAC                                  #  ARGUMENT POSITIVE.
002613: 00,3617           33727                           CAF      TCSUBTR                               #  SET EXIT TO DO ABOVE BEFORE
002614: 00,3620           56136                           XCH      ESCAPE                                #  ARCSIN/ARCCOS CONSIDERATIONS.
002615: 00,3621           54137                           TS       ESCAPE2
002616:
002617: 00,3622           44764        ACOSST             CS       HALF                                  #  TEST MAGNITUDE OF INPUT.
002618: 00,3623           60154                           AD       MPAC
002619: 00,3624           10000                           CCS      A
002620: 00,3625           13716                           TCF      ACOSOVF                               #  THIS IS PROBABLY AN OVERFLOW CASE.
002621:
002622: 00,3626           13704        LASINEX            TCF      ASINEX
002623:
002624: 00,3627           13637                           TCF      ACOSST2                               #  NO OVERFLOW - PROCEED.
002625:
002626: 00,3630           10155                           CCS      MPAC       +1                         #  IF MAJOR PART IS .5, CALL ANSWER 0
002627: 00,3631           35003                           CAF      ZERO                                  #  UNLESS MINOR PART NEGATIVE.
002628: 00,3632           13634                           TCF      ACOS=0
002629:
002630: 00,3633           13637                           TCF      ACOSST2
002631:
002632: 00,3634           54155        ACOS=0             TS       MPAC       +1
002633: 00,3635           54154                 +1        TS       MPAC
002634: 00,3636           00136                           TC       ESCAPE
002635:
002636: 00,3637           00006        ACOSST2            EXTEND                                         #  NOW THAT ARGUMENT IS IN PROPER RANGE,
002637: 00,3640           40155                           DCS      MPAC                                  #  BEGIN COMPUTATION. USE HASTINGS
002638: 00,3641           64764                           AD       HALF                                  #  APPROXIMATION ARCCOS(X) = SQRT(1-X)P(X)
002639: 00,3642           52155                           DXCH     MPAC                                  #  IN A SCALED VERSION WHERE P(X) IS A
002640: 00,3643           52134                           DXCH     BUF2                                  #  SEVENTH ORDER POLYNOMIAL.
002641:
002642: 00,3644           03342                           TC       SQRTSUB                               #  RETURNS WITH NORMALIZED SQUARE ROOT.
002643:
002644: 00,3645           10135                           CCS      MPTEMP                                #  SEE IF UN-NORMALIZATION REQUIRED.
002645: 00,3646           13711                           TCF      ACOSSHR                               #  IF SO.
002646:
002647: 00,3647           52155        ACOS3              DXCH     MPAC                                  #  SET UP FOR POLYNOMIAL EVALUATION.
002648: 00,3650           52134                           DXCH     BUF2
002649: 00,3651           52155                           DXCH     MPAC
002650:
002651: 00,3652           07171                           TC       POLY
002652: 00,3653           00006                           DEC      6          B-14
002653: 00,3654           13240 23630                     2DEC     +.353553385                            #  COEFFICIENTS ARE C 2(+I)/PISQRT(2) WHERE
002654: 00,3656           74721 47775                     2DEC*    -.0483017006 B+1*                       #             I
002655: 00,3660           02440 20237                     2DEC*    +.0200273085 B+2*                       #  WHERE C STANDS FOR ORIGINAL COEFFS.
002656: 00,3662           75067 70742                     2DEC*    -.0112931863 B+3*
002657: 00,3664           03436 26756                     2DEC*    +.00695311612 B+4*
002658: 00,3666           74037 57640                     2DEC*    -.00384617957 B+5*
002659: 00,3670           03046 07143                     2DEC*    +.001501297736 B+6*
002660: 00,3672           76654 42244                     2DEC*    -.000284160334 B+7*
002661:
002662: 00,3674           32467                           CAF      LBUF2                                 #  DO FINAL MULTIPLY AND GO TO ANY
002663: 00,3675           07055                           TC       DMPSUB     -1                         #  EPILOGUE SEQUENCES.
002664: 00,3676           00136                           TC       ESCAPE
002665:
002666: 00,3677           00006        SUBTR              EXTEND                                         #  EPILOGUE FOR NEGATIVE INPUTS TO ARCCOS.
002667: 00,3700           40155                           DCS      MPAC
002668: 00,3701           64764                           AD       HALF                                  #  FORMS PI - ARCCOS(-X) = ARCCOS(X).
002669: 00,3702           52155                           DXCH     MPAC
002670: 00,3703           00137                           TC       ESCAPE2                               #  GO TO POSSIBLE ARCSIN EPILOGUE.
002671:
002672: 00,3704           00006        ASINEX             EXTEND
002673: 00,3705           40155                           DCS      MPAC                                  #  ARCSIN EPILOGUE - GET ARCSIN(X)
002674: 00,3706           64765                           AD       QUARTER                               #  = PI/2 - ARCCOS(X).
002675: 00,3707           52155                           DXCH     MPAC
002676: 00,3710           16030        LDANZIG            TCF      DANZIG
002677:
002678: 00,3711           50000        ACOSSHR            INDEX    A                                     #  THE SHIFT RIGHT IS LESS THAN 14 SINCE
002679: 00,3712           34764                           CAF      BIT14                                 #  THE INPUT WAS NON-ZERO DP.
002680: 00,3713           54135                           TS       MPTEMP
002681: 00,3714           02073                           TC       VSHRRND                               #  DP SHIFT RIGHT AND ROUND.
002682: 00,3715           13647                           TCF      ACOS3                                 #  PROCEED.
002683:
002684: 00,3716           00006        ACOSOVF            EXTEND                                         #  IF MAJOR PART WAS ONLY 1 MORE THAN .5,
002685: 00,3717           13634                           BZF      ACOS=0                                #  CALL ANSWER ZERO.
002686:
002687: 00,3720           05644        ACOSABRT           TC       ALARM                                 #  IF OVERFLOW, CALL ANSWER ZERO BUT
002688: 00,3721           01301                           OCT      1301                                  #  SOUND AN ALARM.
002689:
002690: 00,3722           35003                           CAF      ZERO
002691: 00,3723           13634                           TCF      ACOS=0
002692:
002693: 00,3724           34765        ACOSZERO           CAF      QUARTER                               #  ACOS(0) = PI/2.
002694: 00,3725           13635                           TCF      ACOS=0     +1                         #  SET MPAC AND EXIT VIA ESCAPE.
002695:
002696: 00,3726           77763        NEG12              DEC      -12        B-14
002697: 00,3727           13677        TCSUBTR            TCF      SUBTR
002698:
002699:                                                                                                  #  THE FOLLOWING INSTRUCTIONS ARE AVAILABLE FOR SETTING, MODIFYING, AND BRANCHING ON INDEX REGISTERS:
002700:
002701:                                                                                                  #         1.     AXT             ADDRESS TO INDEX TRUE.
002702:                                                                                                  #         1.     AXC             ADDRESS TO INDEX COMPLEMENTED.
002703:                                                                                                  #         3.     LXA             LOAD INDEX FROM ERASABLE.
002704:                                                                                                  #         4.     LXC             LOAD INDEX COMPLEMENTED FROM ERASABLE.
002705:                                                                                                  #         5.     SXA             STORE INDEX IN ERASABLE.
002706:                                                                                                  #         6.     XCHX            EXCHANGE INDEX REIGSTER WITH ERASABLE.
002707:
002708:                                                                                                  #         7.     INCR            INCREMENT INDEX REGISTER.
002709:                                                                                                  #         8.     XAD             ERASABLE ADD TO INDEX REGISTER.
002710:                                                                                                  #         9.     XSU             ERASABLE SUBTRACT FROM INDEX REGISTER.
002711:
002712:                                                                                                  #        10.     TIX             BRANCH ON INDEX REGISTER AND DECREMENT.
002713:
002714: 01,2000                                           SETLOC   INTERB1
002715: 01,2000                                           BANK
002716:
002717: 01,2347                                           COUNT*   $$/INTER
002718: 01,2347           02444        AXT                TC       TAGSUB                                #  SELECT APPROPRIATE INDEX REGISTER.
002719: 01,2350           30117                           CA       POLISH
002720: 01,2351           50130        XSTORE             INDEX    INDEXLOC                              #  CONTAINS C(FIXLOC) OR C(FIXLOC)+1.
002721: 01,2352           54046                           TS       X1
002722: 01,2353           16030                           TCF      DANZIG
002723:
002724: 01,2354           02444        AXC                TC       TAGSUB
002725: 01,2355           40117                           CS       POLISH
002726: 01,2356           02351                           TC       XSTORE
002727:
002728: 01,2357           02432        LXA                TC       15ADRERS                              #  LOAD INDEX REGISTER FROM ERASABLE.
002729: 01,2360           50117                           INDEX    POLISH
002730: 01,2361           30000                           CA       0
002731: 01,2362           12351                           TCF      XSTORE
002732:
002733: 01,2363           02432        LXC                TC       15ADRERS                              #  LOAD NDX REG FROM ERASABLE COMPLEMENTED.
002734: 01,2364           50117                           INDEX    POLISH
002735: 01,2365           40000                           CS       0
002736: 01,2366           12351                           TCF      XSTORE
002737:
002738: 01,2367           02432        SXA                TC       15ADRERS                              #  STORE INDEX REGISTER IN ERASABLE.
002739: 01,2370           50130                           INDEX    INDEXLOC
002740: 01,2371           30046                           CA       X1
002741: 01,2372           50117        MSTORE1            INDEX    POLISH
002742: 01,2373           54000                           TS       0
002743: 01,2374           16030                           TCF      DANZIG
002744:
002745: 01,2375           02432        XCHX               TC       15ADRERS                              #  EXCHANGE INDEX REGISTER WITH ERASABLE.
002746: 01,2376           50117                           INDEX    POLISH
002747: 01,2377           30000                           CA       0
002748: 01,2400           50130                           INDEX    INDEXLOC
002749: 01,2401           56046                           XCH      X1
002750: 01,2402           12372                           TCF      MSTORE1
002751:
002752: 01,2403           02432        XAD                TC       15ADRERS                              #  ADD ERASABLE TO INDEX REGISTER.
002753: 01,2404           50117                           INDEX    POLISH
002754: 01,2405           30000                           CA       0
002755: 01,2406           50130        XAD2               INDEX    INDEXLOC
002756: 01,2407           26046                           ADS      X1                                    #  IGNORING OVERFLOWS.
002757: 01,2410           16030                           TCF      DANZIG
002758:
002759: 01,2411           02444        INCR               TC       TAGSUB                                #  INCREMENT INDEX REGISTER.
002760: 01,2412           30117                           CA       POLISH
002761: 01,2413           12406                           TCF      XAD2
002762:
002763: 01,2414           02432        XSU                TC       15ADRERS                              #  SUBTRACT ERASABLE FROM INDEX REGISTER.
002764: 01,2415           50117                           INDEX    POLISH
002765: 01,2416           40000                           CS       0
002766: 01,2417           12406                           TCF      XAD2
002767:
002768: 01,2420           02444        TIX                TC       TAGSUB                                #  BRANCH AND DECREMENT ON INDEX.
002769: 01,2421           50130                           INDEX    INDEXLOC
002770: 01,2422           40050                           CS       S1
002771: 01,2423           50130                           INDEX    INDEXLOC
002772: 01,2424           60046                           AD       X1
002773: 01,2425           00006                           EXTEND                                         #  NO OPERATION IF DECREMENTED INDEX IS
002774: 01,2426           66030                           BZMF     DANZIG                                #  NEGATIVE OR ZERO.
002775:
002776: 01,2427           50130        DOTIXBR            INDEX    INDEXLOC
002777: 01,2430           56046                           XCH      X1                                    #  IGNORING OVERFLOWS.
002778:
002779: 01,2431           16615                           TCF      GOTO                                  #  DO THE BRANCH USING THE CADR IN POLISH.
002780:
002781:                                                                                                  #  SUBROUTINE TO CONVERT AN ERASABLE ADDRESS (11 BITS) TO AN EBANK SETTING AND SUBADDRESS.
002782:
002783: 01,2432           40117        15ADRERS           CS       POLISH
002784: 01,2433           65020                           AD       DEC45
002785: 01,2434           10000                           CCS      A                                     #  DOES THE ADDRESS POINT TO THE WORK AREA?
002786: 01,2435           30120                           CA       FIXLOC                                #  YES.  ADD FIXLOC.  EBANK OK AS IS.
002787: 01,2436           12443                           TCF      +5
002788:
002789: 01,2437           35037                           CA       OCT1400                               #  NO.  SET EBANK & MAKE UP SUBADDRESS.
002790: 01,2440           56117                           XCH      POLISH
002791: 01,2441           54003                           TS       EBANK
002792: 01,2442           74350                           MASK     LOW8
002793: 01,2443           26117                 +5        ADS      POLISH                                #  FALL INTO TAGSUB, AND RETURN VIA Q.
002794:
002795:                                                                                                  #  SUBROUTINE WHICH SETS THE ADDRESS OF THE SPECIFIED INDEX IN INDEXLOC. (ACTUALLY, THE ADDRESS -38D.)
002796:
002797: 01,2444           30120        TAGSUB             CA       FIXLOC
002798: 01,2445           54130                           TS       INDEXLOC
002799:
002800: 01,2446           10020                           CCS      CYR                                   #  BIT 15 SPECIFIES INDEX.
002801: 01,2447           24130                           INCR     INDEXLOC                              #  0 MEANS USE X2.
002802: 01,2450           00002                           TC       Q
002803: 01,2451           00002                           TC       Q                                     #  1 FOR X1.
002804:
002805:                                                                                                  #  MISCELLANEOUS OPERATION CODES WITH DIRECT ADDRESSES. INCLUDED HERE ARE:
002806:
002807:                                                                                                  #        1.      ITA             STORE QPRET (RETURN ADDRESS) IN ERASABLE.
002808:                                                                                                  #        2.      CALL            CALL A SUBROUTINE, LEAVING RETURN IN QPRET.
002809:                                                                                                  #        3.      RTB             RETURN TO BASIC LANGUAGE AT THE GIVEN ADDRESS.
002810:                                                                                                  #        4.      BHIZ            BRANCH IF THE HIGHORDER OF MPAC IS ZERO (SINGLE PRECISION).
002811:                                                                                                  #        5.      BOV             BRANCH ON OVERFLOW.
002812:                                                                                                  #        6.      GOTO            SIMPLE SEQUENCE CHANGE.
002813:
002814: 01,2452           10020        RTB/BHIZ           CCS      CYR
002815: 01,2453           30117        RTB                CA       POLISH
002816: 01,2454           04652                           TC       SWCALL     -1                         #  SO A "TC Q" FROM ROUTINE LEADS TO DANZIG
002817:
002818: 01,2455           10154        BHIZ               CCS      MPAC
002819: 01,2456           16030                           TCF      DANZIG
002820: 01,2457           16615                           TCF      GOTO
002821: 01,2460           16030                           TCF      DANZIG
002822: 01,2461           16615                           TCF      GOTO
002823:
002824: 01,2462           10121        BOV(B)             CCS      OVFIND                                #  BRANCH ON OVERFLOW TO BASIC OR INTERP.
002825: 01,2463           12465                           TCF      +2
002826: 01,2464           16030                           TCF      DANZIG
002827: 01,2465           54121                           TS       OVFIND
002828: 01,2466           10020                           CCS      CYR
002829: 01,2467           12453                           TCF      RTB                                   #  IF BASIC.
002830: 01,2470           00360        B5TOB8             OCT      360
002831: 01,2471           16615                           TCF      GOTO
002832:
002833: 01,2472           10020        BZE/GOTO           CCS      CYR                                   #  SEE WHICH OP-CODE IS DESIRED.
002834: 01,2473           06672                           TC       BRANCH                                #  DO BZE.
002835: 01,2474           16030                           TCF      DANZIG
002836: 01,2475           16615                           TCF      GOTO                                  #  DO GOTO.
002837: 01,2476           16030                           TCF      DANZIG
002838:
002839: 01,2477           10020        BPL/BMN            CCS      CYR
002840: 01,2500           12506                           TCF      BPL
002841: 01,2501           12000        5B10               DEC      5          B+10                       #  SHIFTS OP CODE IN SWITCH INSTRUCTION ADR
002842:
002843: 01,2502           06672                           TC       BRANCH                                #  DO BMN.
002844: 01,2503           16030                           TCF      DANZIG
002845: 01,2504           16030                           TCF      DANZIG
002846: 01,2505           16615                           TCF      GOTO                                  #  ONLY IF NNZ.
002847:
002848: 01,2506           06672        BPL                TC       BRANCH
002849: 01,2507           16615                           TCF      GOTO                                  #  IF POSITIVE OR ZERO.
002850: 01,2510           16615                           TCF      GOTO
002851: 01,2511           16030                           TCF      DANZIG
002852:
002853: 01,2512           10020        CALL/ITA           CCS      CYR
002854: 01,2513           16607                           TCF      CALL
002855:
002856: 01,2514           12515                           NOOP                                           #  CANNOT GET HERE
002857: 01,2515           02432                           TC       15ADRERS                              #  STORE QPRET. (TAGSUB AFTER 15ADRERS IS
002858: 01,2516           50120                           INDEX    FIXLOC                                #  SLOW IN THIS CASE, BUT SAVES STORAGE.)
002859: 01,2517           30052                           CA       QPRET
002860: 01,2520           12372                           TCF      MSTORE1
002861:
002862:                                                                                                  #  THE FOLLOWING OPERATIONS ARE AVAILABLE FOR ALTERING AND TESTING INTERPRETIVE SWITCHES:
002863:                                                                                                  #
002864:                                                                                                  #        00      BONSET          SET A SWITCH AND DO A GOTO IF IT WAS ON.
002865:                                                                                                  #        01      SETGO           SET A SWITCH AND DO A GOTO.
002866:                                                                                                  #        02      BOFSET          SET A SWITCH AND DO A GOTO IF IT WAS OFF
002867:                                                                                                  #        03      SET             SET A SWITCH.
002868:
002869:                                                                                                  #        04      BONINV          INVERT A SWITCH AND BRANCH IF IT WAS ON.
002870:                                                                                                  #        05      INVGO           INVERT A SWITCH AND DO A GOTO.
002871:                                                                                                  #        06      BOFINV          INVERT A SWITCH AND BRANCH IF IT WAS OFF
002872:                                                                                                  #        07      INVERT          INVERT A SWITCH.
002873:
002874:                                                                                                  #        10      BONCLR          CLEAR A SWITCH AND BRANCH IF IT WAS ON.
002875:                                                                                                  #        11      CLRGO           CLEAR A SWITCH AND DO A GOTO.
002876:                                                                                                  #        12      BOFCLR          CLEAR A SWITCH AND BRANCH IF IT WAS OFF.
002877:                                                                                                  #        13      CLEAR           CLEAR A SWITCH.
002878:
002879:                                                                                                  #        14      BON             BRANCH IF A SWITCH WAS ON.
002880:                                                                                                  #        16      BOFF            BRANCH IF A SWITCH WAS OFF.
002881:
002882:                                                                                                  #  THE ADDRESS SUPPLIED WITH THE SWITCH INSTRUCTION IS INTERPRETED AS FOLLOWS:
002883:
002884:                                                                                                  #        BITS 1-4        SWITCH BIT NUMBER (1-15).
002885:                                                                                                  #        BITS 5-8        SWITCH OPERATION NUMBER.
002886:                                                                                                  #        BITS 9-         SWITCH WORD NUMBER (UP TO 64 SWITCH WORDS).
002887:
002888:                                                                                                  #  THE ADDRESS ITSELF IS MADE UP BY THE YUL SYSTEM ASSEMBLER. THE BRANCH INSTRUCTIONS REQUIRE TWO
002889:                                                                                                  #  ADDRESSES, THE SECOND TAKEN AS THE DIRECT (OR INDIRECT IF IN ERASABLE) ADDRESS OF THE BRANCH.
002890:
002891: 01,2521           35010        SWITCHES           CAF      LOW4                                  #  LEAVE THE SWITCH BIT IN  SWBIT  .
002892: 01,2522           70117                           MASK     POLISH
002893: 01,2523           50000                           INDEX    A
002894: 01,2524           34763                           CAF      BIT15                                 #  (NUMBER FROM LEFT TO RIGHT.)
002895: 01,2525           54131                           TS       SWBIT
002896:
002897: 01,2526           34773                           CAF      BIT7                                  #  LEAVE THE SWITCH NUMBER IN SWWORD.
002898: 01,2527           00006                           EXTEND
002899: 01,2530           70117                           MP       POLISH
002900: 01,2531           54130                           TS       SWWORD
002901:
002902: 01,2532           00004                           INHINT                                         #  DURING SWITCH CHANGE SO RUPT CAN USE TOO
002903: 01,2533           50000                           INDEX    A                                     #  LEAVE THE SWITCH WORD ITSELF IN L.
002904: 01,2534           30074                           CA       STATE
002905: 01,2535           54002                           TS       Q                                     #  Q WILL BE USED AS A CHANNEL.
002906: 01,2536           34767                           CAF      BIT11
002907: 01,2537           00006                           EXTEND                                         #  DISPATCH SWITCH BIT OPERATION AS IN BITS
002908: 01,2540           70117                           MP       POLISH                                #  7-8 OF POLISH.
002909: 01,2541           73032                           MASK     B3TOB4                                #  GETS 4X2-BIT CODE.
002910: 01,2542           50000                           INDEX    A
002911: 01,2543           12544                           TCF      +1
002912:
002913: 01,2544           30131                 +1        CA       SWBIT                                 #  00 - SET SWITCH IN QUESTION.
002914: 01,2545           00006                           EXTEND
002915: 01,2546           04002                           ROR      QCHAN
002916: 01,2547           12556                           TCF      SWSTORE
002917:
002918: 01,2550           30131                 +5        CA       SWBIT                                 #  01 - INVERT SWITCH.
002919: 01,2551           00006                           EXTEND
002920: 01,2552           06002                           RXOR     QCHAN
002921: 01,2553           12556                           TCF      SWSTORE
002922:
002923: 01,2554           40131                 +9D       CS       SWBIT                                 #  10 - CLEAR.
002924: 01,2555           70002                           MASK     Q
002925: 01,2556           50130        SWSTORE            INDEX    SWWORD
002926: 01,2557           54074                           TS       STATE                                 #  NEW SWITCH WORD.
002927: 01,2560           00003                 +13D      RELINT                                         #  11 - NOOP.
002928: 01,2561           34765                           CAF      BIT13
002929: 01,2562           00006                           EXTEND                                         #  DISPATCH SEQUCE CHANGING OR BRANCHING
002930: 01,2563           70117                           MP       POLISH                                #  CODE.
002931: 01,2564           73032                           MASK     B3TOB4
002932: 01,2565           50000                           INDEX    A
002933: 01,2566           12567                           TCF      +1                                    #  ORIGINALLY STORED IN BITS 5-6.
002934:
002935: 01,2567           40002                 +1        CS       Q                                     #  00 - BRANCH IF ON.
002936: 01,2570           70131        TEST               MASK     SWBIT
002937: 01,2571           10000                           CCS      A
002938: 01,2572           12602                           TCF      SWSKIP
002939:
002940: 01,2573           16664                 +5        TCF      SWBRANCH                              #  01 - GO TO.
002941:
002942: 01,2574           12602                           TCF      SWSKIP                                #  HERE ONLY ON BIT 15.
002943:
002944: 01,2575           12576                           NOOP                                           #  CANNOT GET HERE
002945: 01,2576           12577                           NOOP                                           #  CANNOT GET HERE
002946: 01,2577           30002                 +9D       CA       Q                                     #  10 - BRANCH IF OFF.
002947: 01,2600           12570                           TCF      TEST
002948:
002949: 01,2601           12602                 +11D      NOOP                                           #  CANNOT GET HERE
002950: 01,2602           24164        SWSKIP             INCR     LOC
002951:
002952: 01,2603           16030                 +13D      TCF      DANZIG                                #  11 - NOOP.
002953:
002954: 01,2604  01,3032               B3TOB4             EQUALS   COREINC
002955: 01,2604  01,2521               SW/                EQUALS   SWITCHES

End of include-file INTERPRETER.agc.  Parent file is MAIN.agc


