
Source Code


000002:                                                                                                  ## Copyright:   Public domain.
000003:                                                                                                  ## Filename:    INTERRUPT_LEAD_INS.agc
000004:                                                                                                  ## Purpose:     A section of Skylark revision 048.
000005:                                                                                                  ##              It is part of the source code for the Apollo Guidance Computer (AGC)
000006:                                                                                                  ##              for Skylab-2, Skylab-3, Skylab-4, and ASTP. No original listings of
000007:                                                                                                  ##              this software are available; instead, this file was created via
000008:                                                                                                  ##              disassembly of dumps of the core rope modules actually flown on
000009:                                                                                                  ##              Skylab-2. Access to these modules was provided by the New Mexico
000010:                                                                                                  ##              Museum of Space History.
000011:                                                                                                  ## Assembler:   yaYUL
000012:                                                                                                  ## Contact:     Ron Burkey <info@sandroid.org>.
000013:                                                                                                  ## Website:     www.ibiblio.org/apollo/index.html
000014:                                                                                                  ## Mod history: 2023-09-04 MAS  Created from Artemis 072.
000015:
000016:    4000                                           SETLOC   4000
000017:
000018:    4000                                           COUNT*   $$/RUPTS
000019:
000020:    4000           00004                           INHINT                                         #  GO
000021:    4001           34051                           CAF      GOBB
000022:    4002           56006                           XCH      BBANK
000023:    4003           12471                           TCF      GOPROG
000024:
000025:    4004           52011                           DXCH     ARUPT                                 #  T6RUPT
000026:    4005           00006                           EXTEND
000027:    4006           30111                           DCA      T6LOC
000028:    4007           52006                           DTCB
000029:
000030:    4010           52011                           DXCH     ARUPT                                 #  T5RUPT
000031:    4011           40030                           CS       TIME5
000032:    4012           65023                           AD       .5SEC
000033:    4013           14056                           TCF      T5RUPT
000034:
000035:    4014           52011                           DXCH     ARUPT                                 #  T3RUPT
000036:    4015           35267                           CAF      T3RPTBB
000037:    4016           56006                           XCH      BBANK
000038:    4017           13370                           TCF      T3RUPT
000039:
000040:    4020           52011                           DXCH     ARUPT                                 #  T4RUPT
000041:    4021           34054                           CAF      T4RPTBB
000042:    4022           56006                           XCH      BBANK
000043:    4023           12000                           TCF      T4RUPT
000044:
000045:    4024           52011                           DXCH     ARUPT                                 #  KEYRUPT1
000046:    4025           34052                           CAF      KEYRPTBB
000047:    4026           56006                           XCH      BBANK
000048:    4027           13617                           TCF      KEYRUPT1
000049:
000050:    4030           52011                           DXCH     ARUPT                                 #  KEYRUPT2
000051:    4031           34052                           CAF      MKRUPTBB
000052:    4032           56006                           XCH      BBANK
000053:    4033           12071                           TCF      MARKRUPT
000054:
000055:    4034           52011                           DXCH     ARUPT                                 #  UPRUPT
000056:    4035           34052                           CAF      UPRPTBB
000057:    4036           56006                           XCH      BBANK
000058:    4037           13641                           TCF      UPRUPT
000059:
000060:    4040           52011                           DXCH     ARUPT                                 #  DOWNRUPT
000061:    4041           34051                           CAF      DWNRPTBB
000062:    4042           56006                           XCH      BBANK
000063:    4043           14632                           TCF      DODOWNTM
000064:
000065:    4044           52011                           DXCH     ARUPT                                 #  RADAR RUPT
000066:    4045           34053                           CAF      RDRPTBB
000067:    4046           56006                           XCH      BBANK
000068:    4047           12440                           TCF      VHFREAD
000069:
000070:    4050           50017                           RESUME
000071:
000072:    4051  E3,1400                                  EBANK=   LST1                                  #  RESTART USES E0,E3
000073:    4051           12063        GOBB               BBCON    GOPROG
000074:
000075:    4052  E3,1400                                  EBANK=   LST1
000076:    4052     5267               T3RPTBB            EQUALS   WAITBB
000077:    4052     4052               KEYRPTBB           =        MKRUPTBB
000078:
000079:    4052  E7,1702                                  EBANK=   MRKBUF1
000080:    4052           16067        MKRUPTBB           BBCON    MARKRUPT
000081:    4053     4052               UPRPTBB            =        KEYRPTBB
000082:    4053     4051               DWNRPTBB           =        GOBB
000083:
000084:    4053  E7,1663                                  EBANK=   RM
000085:    4053           56067        RDRPTBB            BBCON    VHFREAD
000086:    4054     1312                                  EBANK=   DSRUPTSW
000087:    4054           14062        T4RPTBB            BBCON    T4RUPT
000088:    4055     0025                                  EBANK=   TIME1
000089:    4055           04060        T5RPTBB            BBCON    T5RUPT
000090:
000091:    4056           00006        T5RUPT             EXTEND
000092:    4057           65342                           BZMF     NOQBRSM
000093:    4060           00006                           EXTEND
000094:    4061           30113                           DCA      T5LOC
000095:    4062           52006                           DTCB

End of include-file INTERRUPT_LEAD_INS.agc.  Parent file is MAIN.agc


