
Source Code


000002:                                                                                                  ## Copyright:   Public domain.
000003:                                                                                                  ## Filename:    INTEGRATION_INITIALIZATION.agc
000004:                                                                                                  ## Purpose:     A section of Skylark revision 048.
000005:                                                                                                  ##              It is part of the source code for the Apollo Guidance Computer (AGC)
000006:                                                                                                  ##              for Skylab-2, Skylab-3, Skylab-4, and ASTP. No original listings of
000007:                                                                                                  ##              this software are available; instead, this file was created via
000008:                                                                                                  ##              disassembly of dumps of the core rope modules actually flown on
000009:                                                                                                  ##              Skylab-2. Access to these modules was provided by the New Mexico
000010:                                                                                                  ##              Museum of Space History.
000011:                                                                                                  ## Assembler:   yaYUL
000012:                                                                                                  ## Contact:     Ron Burkey <info@sandroid.org>.
000013:                                                                                                  ## Website:     www.ibiblio.org/apollo/index.html
000014:                                                                                                  ## Mod history: 2023-09-04 MAS  Created from Artemis 072.
000015:                                                                                                  ##              2024-03-04 MAS  Updated for Skylark 48.
000016:
000017:                                                                                                  #  1.0 INTRODUCTION
000018:                                                                                                  #  ----------------
000019:
000020:                                                                                                  #  FROM A USERS POINT OF VIEW, ORBITAL INTEGRATION IS ESSENTIALLY THE SAME AS THE 278 INTEGRATION
000021:                                                                                                  #  PROGRAM. THE SAME ENTRANCES TO THE PROGRAM WILL BE MAINTAINED, THE SAME STALLING ROUTINE WILL BE USED AND
000022:                                                                                                  #  OUTPUT WILL STILL BE VIA THE PUSHLIST. THE PRIMARY DIFFERENCES TO A USER INVOLVE THE ADDED CAPABILITY OF
000023:                                                                                                  #  TERMINATING INTEGRATION AT A SPECIFIC FINAL RADIUS AND THE DIFFERENCE IN STATE VECTOR SCALING INSIDE AND OUT-
000024:                                                                                                  #  SIDE THE LUNAR SPHERE OF INFLUENCE.
000025:
000026:                                                                                                  #  IN ORDER TO MAKE THE CSM(LEM)PREC AND CSM(LEM)CONIC ENTRANCES SIMILAR TO FLIGHT 278, THE INTEGRATION PROGRAM
000027:                                                                                                  #  WILL ITSELF SET THE FINAL RADIUS (RFINAL) TO 0 SO THAT REACHING THE DESIRED TIME ONLY WILL TERMINATE
000028:                                                                                                  #  INTEGRATION. THE DP REGISTER RFINAL MUST BE SET BY USERS OF INTEGRVS AND INTEGRV, AND MUST BE DONE AFTER THE
000029:                                                                                                  #  CALL TC INTSTALL.
000030:
000031:                                                                                                  #  WHEN THE LM IS ON THE LUNAR SURFACE (INDICATED BY LUNAR SURFACE FLAG SET) CALLS TO LEMCONIC, LEMPREC, AND
000032:                                                                                                  #  INTEGRV WITH VINFLAG = 0 WILL RESULT IN THE USE OF THE PLANETARY INERTIAL ORIENTATION SUBROUTINES TO PROVIDE
000033:                                                                                                  #  BOTH THE LMS POSITION AND VELOCITY IN THE REFERENCE COORDINATE SYSTEM.
000034:                                                                                                  #  THE PROGRAM WILL PROVIDE OUTPUT AS IF INTEGRATION WAS USED. THAT IS, THE PUSHLIST WILL BE SET AS NOTED BELOW AND
000035:                                                                                                  #  THE PERMANENT STATE VECTOR UPDATED WHEN SPECIFIED BY AN INTEGRV CALL.
000036:
000037:                                                                                                  #  USERS OF INTEGRVS DESIRING INTEGRATION (INTYPFLG = 0) SHOULD NOTE THAT THE OBLATENESS PERTURBATION COMPUTATION
000038:                                                                                                  #  IN LUNAR ORBIT IS TIME DEPENDENT. THEREFORE, THE USER SHOULD SUPPLY AN INITIAL STATE VECTOR VALID AT SOME REAL
000039:                                                                                                  #  TIME AND THE DESIRED TIME (TDEC1) ALSO AT SOME REAL TIME. FOR CONIC ,,INTEGRATION,, THE USER MAY STILL USE ZERO
000040:                                                                                                  #  AS THE INITIAL TIME AND DELTA TIME AS THE DESIRED TIME.
000041:
000042:                                                                                                  #  2.0 GENERAL DESCRIPTION
000043:                                                                                                  #  -----------------------
000044:
000045:                                                                                                  #  THE INTEGRATION PROGRAM OPERATES AS A CLOSED INTERPRETIVE SUBROUTINE AND PERFORMS THESE FUNCTIONS---
000046:                                                                                                  #        1) INTEGRATES (PRECISION OR CONIC) EITHER CSM OR LM STATE VECTOR
000047:                                                                                                  #        2) INTEGRATES THE W-MATRIX
000048:                                                                                                  #        3) PERMANENT OR TEMPORARY UPDATE OF THE STATE VECTOR
000049:
000050:                                                                                                  #  THERE ARE SIX ENTRANCES TO THE INTEGRATION PROGRAM. FOUR OF THESE (CSMPREC, LEMPREC, CSMCONIC, LEMCONIC) SET
000051:                                                                                                  #  ALL THE FLAGS REQUIRED IN THE INTEGRATION PROGRAM ITSELF TO CAUSE THE PRECISION OR CONIC INTEGRATION (KEPLER) OF
000052:                                                                                                  #  THE LM OR CSM STATE VECTOR, AS THE NAMES SUGGEST. ONE ENTRANCE (INTEGRVS) PERMITS THE CALLING PROGRAM TO
000053:                                                                                                  #  PROVIDE A STATE VECTOR TO BE INTEGRATED. THE CALLING PROGRAM MUST SET THE FLAGS INDICATING (1) PRECISION OR
000054:                                                                                                  #  CONIC INTEGRATION, (2) IN OR OUT OF LUNAR SPHERE, (3) MIDCOURSE OR NOT, AND THE INTEGRATION PROGRAM COMPLETES
000055:                                                                                                  #  THE FLAG SETTING TO BYPASS W-MATRIX INTEGRATION. THE LAST ENTRANCE (INTEGRV, USED IN GENERAL BY THE
000056:                                                                                                  #  NAVIGATION PROGRAMS) PERMITS THE CALLER TO SET FIVE FLAGS (NOT MOONFLAG OR MIDFLAG) BUT NOT TO INPUT A STATE
000057:                                                                                                  #  VECTOR. ANY PROGRAM WHICH CALLS INTEGRVS OR INTEGRV MUST CALL INTSTALL BEFORE IT SETS THE INTEGRATION FLAGS
000058:                                                                                                  #  AND/OR STATE VECTOR.
000059:
000060:                                                                                                  #  THREE SETS OF 42 REGISTERS AND 2 FLAGS ARE USED FOR THE STATE VECTORS. TWO SETS, WHICH MAY NOT BE OVERLAYED, ARE
000061:                                                                                                  #  USED FOR THE PERMANENT STATE VECTORS FOR THE CSM AND LM. THE THIRD SET, WHICH MAY BE OVERLAYED WHEN INTEGRATION
000062:                                                                                                  #  IS NOT BEING DONE, IS USED IN THE COMPUTATIONS.
000063:
000064:                                                                                                  #  THE PERMANENT STATE VECTORS WILL BE PERIODICALLY UPDATED SO THAT THE VECTORS WILL NOT BE OLDER THAN 4 TIMESTEPS.
000065:                                                                                                  #  THE PERMANENT STATE VECTORS WILL ALSO BE UPDATED WHENEVER THE W-MATRIX IS INTEGRATED OR WHEN A CALLER OF INTEGRV
000066:                                                                                                  #  SETS STATEFLG (THE NAVIGATION PROGRAMS P20, P22.)
000067:
000068:                                                                                                  #  APPENDIX B OF THE USERS GUIDE LISTS THE STATE VECTOR QUANTITIES.
000069:
000070:                                                                                                  #  2.1 RESTARTS
000071:
000072:                                                                                                  #  PHASE CHANGES WILL BE MADE IN THE INTEGRATION PROGRAM ONLY FOR THE INTEGRV ENTRANCE (I.E., WHEN THE W-MATRIX IS
000073:                                                                                                  #  INTEGRATED OR PERMANENT STATE VECTOR IS UPDATED.) THE GROUP NUMBER USED WILL BE THAT FOR THE P20-25 PROGRAMS
000074:                                                                                                  #  (I.E., GROUP2) SINCE THE INTEGRV ENTRANCE WILL ONLY BE USED BY THESE PROGRAMS. IF A RESTART OCCURS DURING AN
000075:                                                                                                  #  INTEGRATION OF THE STATE VECTOR ONLY, THE RECOVERY WILL BE TO THE LAST PHASE IN THE CALLING PROGRAM. CALLING
000076:                                                                                                  #  PROGRAMS WHICH USE THE INTEGRV OR INTEGRVS ENTRANCE OF INTEGRATION SHOULD ENSURE THAT IF PHASE CHANGING IS DONE
000077:                                                                                                  #  THAT IT IS PRIOR TO SETTING THE INTEGRATION INPUTS IN THE PUSHLIST.
000078:                                                                                                  #  THIS IS BECAUSE THE PUSHLIST IS LOST DURING A RESTART.
000079:
000080:                                                                                                  #  2.2 SCALING
000081:
000082:                                                                                                  #  THE INTEGRATION ROUTINE WILL MAINTAIN THE PERMANENT MEMORY STATE VECTORS IN THE SCALING AND UNITS DEFINED IN
000083:                                                                                                  #  APPENDIX B OF THE USERS GUIDE. THE SCALING OF THE OUTPUT POSITION VECTOR DEPENDS ON THE ORIGIN OF THE COORDINATE
000084:                                                                                                  #  SYSTEM AT THE DESIRED INTEGRATION TIME. THE COORDINATE SYSTEM TRANSFORMATION WILL BE DONE AUTOMATICALLY ON
000085:                                                                                                  #  MULTIPLE TIMESTEP ENCKE INTEGRATION ONLY. THUS IT IS POSSIBLE TO HAVE OUTPUT FROM SUCCESSIVE INTEGRATIONS IN
000086:                                                                                                  #  DIFFERENT SCALING.
000087:                                                                                                  #  HOWEVER, RATT, VATT WILL ALWAYS BE SCALED THE SAME.
000088:
000089:                                                                                                  #  3.0 INPUT/OUTPUT
000090:                                                                                                  #  ----------------
000091:
000092:                                                                                                  #  PROGRAM INPUTS ARE THE FLAGS DESCRIBED IN APPENDIX A AND THE PERMANENT STATE VECTOR QUANTITIES DESCRIBED IN AP-
000093:                                                                                                  #  PENDIX B OF THE USERS GUIDE, PLUS THE DESIRED TIME TO INTEGRATE TO IN TDEC1 (A PUSH LIST LOCATION).
000094:                                                                                                  #  FOR INTEGRVS, THE RCV,VCV, TET OF THE TEMPORARY STATE VECTOR MUST BE SET.
000095:
000096:                                                                                                  #  FOR SIMULATION THE FOLLOWING QUANTITIES MUST BE PRESET ---
000097:                                                                                                  #                                                                EARTH   MOON
000098:                                                                                                  #                                                                 29      27
000099:                                                                                                  #        RRECTCSM(LEM)   - RECTIFIED POSITION VECTOR     METERS  2       2
000100:
000101:                                                                                                  #                                                                 7       5
000102:                                                                                                  #        VRECTCSM(LEM)   - RECTIFIED VELOCITY VECTOR     M/CSEC  2       2
000103:
000104:                                                                                                  #                                                                 28      28
000105:                                                                                                  #        TETCSM(LEM)     - TIME STATE VECTOR IS VALID    CSEC    2       2
000106:                                                                                                  #                          CUSTOMARILY 0, BUT NOTE LUNAR
000107:                                                                                                  #                          ORBIT DEPENDENCE ON REAL TIME.
000108:
000109:                                                                                                  #                                                                 22      18
000110:                                                                                                  #        DELTAVCSM(LEM)  - POSITION DEVIATION            METERS  2       2
000111:                                                                                                  #                          0 IF TCCSM(LEM) = 0
000112:
000113:                                                                                                  #                                                                 3       -1
000114:                                                                                                  #        NUVCSM(LEM)     - VELOCITY DEVIATION            M/CSEC  2       2
000115:                                                                                                  #                          0 IF TCCSM(LEM) = 0
000116:                                                                                                  #                                                                 29      27
000117:                                                                                                  #        RCVCSM(LEM)     - CONIC POSITION                METERS  2       2
000118:                                                                                                  #                          EQUALS RRECTCSM(LEM) IF
000119:                                                                                                  #                          TCCSM(LEM) = 0
000120:
000121:                                                                                                  #                                                                 7       5
000122:                                                                                                  #        VCVCSM(LEM)     - CONIC VELOCITY                M/CSEC  2       2
000123:                                                                                                  #                          EQUALS VRECTCSM(LEM) IF
000124:                                                                                                  #                          TCCSM(LEM) = 0
000125:
000126:                                                                                                  #                                                                 28      28
000127:                                                                                                  #        TCCSM(LEM)      - TIME SINCE RECTIFICATION      CSECS   2       2
000128:                                                                                                  #                          CUSTOMARILY 0
000129:
000130:                                                                                                  #                                                         1/2     17      16
000131:                                                                                                  #        XKEPCSM(LEM)    - ROOT OF KEPLERS EQUATION      M       2       2
000132:                                                                                                  #                          0 IF TCCSM(LEM) = 0
000133:
000134:                                                                                                  #        CMOONFLG        - PERMANENT FLAGS CORRESPONDING         0       0
000135:                                                                                                  #        CMIDFLAG          TO MOONFLAG AND MIDFLAG               0,1     0,1
000136:                                                                                                  #        LMOONFLG          C = CSM, L = LM                       0       0
000137:                                                                                                  #        LMIDFLG                                                 0,1     0,1
000138:
000139:                                                                                                  #        SURFFLAG        - LUNAR SURFACE FLAG                    0,1     0,1
000140:
000141:                                                                                                  #  IN ADDITION, IF (L)CMIDFLAG IS SET, THE INITIAL INPUT VALUES FOR LUNAR
000142:                                                                                                  #  SOLAR EPHEMERIDES SUBROUTINE AND PLANETARY INERTIAL ORIENTATION SUB-
000143:                                                                                                  #  ROUTINE MUST BE PRESET.
000144:
000145:                                                                                                  #  OUTPUT
000146:                                                                                                  #        AFTER EVERY CALL TO INTEGRATION
000147:                                                                                                  #                                                                EARTH   MOON
000148:                                                                                                  #                                                                 29      29
000149:                                                                                                  #        0D      RATT    POSITION                        METERS  2       2
000150:                                                                                                  #                                                                 7       7
000151:                                                                                                  #        6D      VATT    VELOCITY                        M/CSEC  2       2
000152:                                                                                                  #                                                                 28      28
000153:                                                                                                  #        12D     TAT     TIME                                    2       2
000154:                                                                                                  #                                                                 29      27
000155:                                                                                                  #        14D     RATT1   POSITION                        METERS  2       2
000156:                                                                                                  #                                                                 7       5
000157:                                                                                                  #        20D     VATT1   VELOCITY                        M/CSEC  2       2
000158:                                                                                                  #                                                         3   2   36      30
000159:                                                                                                  #        26D     MU(P)   MU                              M /CS   2       2
000160:
000161:                                                                                                  #        X1              MUTABLE ENTRY                           -2      -10D
000162:
000163:                                                                                                  #        X2              COORDINT
000164:                                                                                                  #        X2              COORDINATE SYSTEM ORIGEN                0       2
000165:                                                                                                  #                        (THIS, NOT MOONFLAG, SHOULD BE
000166:                                                                                                  #                        USED TO DETERMINE ORIGIN.)
000167:
000168:                                                                                                  #  IN ADDITION TO THE ABOVE, THE PERMANENT STATE VECTOR IS UPDATED WHENEVER
000169:                                                                                                  #  STATEFLG WAS SET AND WHENEVER A W-MATRIX IS TO BE INTEGRATED. THE PUSH
000170:                                                                                                  #  COUNTER IS SET TO 0 AND OVERFLOW IS CLEARED BEFORE RETURNING TO THE
000171:                                                                                                  #  CALLING PROGRAM.
000172:
000173:                                                                                                  #  4.0 CALLING SEQUENCES AND SAMPLE CODE
000174:                                                                                                  #  -------------------------------------
000175:
000176:                                                                                                  #        A) PRECISION ORBITAL INTEGRATION. CSMPREC,LEMPREC ENTRANCES
000177:                                                                                                  #                L-X     STORE TIME TO 95T5791T5 T  95 PUS L9ST (T4531)
000178:                                                                                                  #                L       CALL
000179:                                                                                                  #                L+1             CSMPREC (OR LEMPREC)
000180:                                                                                                  #                L+2     RETURN
000181:                                                                                                  #           INPUT                                                           28
000182:                                                                                                  #                TDEC1 (PD 32D) TIME TO INTEGRATE TO...CENTISECONDS SCALED 2
000183:                                                                                                  #           OUTPUT
000184:                                                                                                  #                THE DATA LISTED IN SECTION 3.0 PLUS
000185:                                                                                                  #                RQVV    POSITION VECTOR OF VEHICLE WITH RESPECT TO SECONDARY
000186:                                                                                                  #                BODY... METERS B-29 ONLY IF MIDFLAG = DIMOFLAG = 1
000187:                                                                                                  #        B) CONIC INTEGRATION. CSMCONIC, LEMCONIC ENTRANCES
000188:                                                                                                  #                L-X     STORE TIME IN PUSH LIST (TDEC1)
000189:                                                                                                  #                L       CALL
000190:                                                                                                  #                L+1             CSMCONIC (OR LEMCONIC)
000191:                                                                                                  #           INPUT/OUTPUT
000192:                                                                                                  #                SAME AS PRECISION INTEGRATION, EXCEPT RQVV NOT SET
000193:                                                                                                  #        C) INTEGRATE GIVEN STATE VECTOR.  INTEGRVS ENTRANCE
000194:                                                                                                  #                        CALL
000195:                                                                                                  #                                INTSTALL
000196:                                                                                                  #                        VLOAD
000197:                                                                                                  #                                POSITION VECTOR
000198:                                                                                                  #                        STOVL   RCV
000199:                                                                                                  #                                VELOCITY VECTOR
000200:                                                                                                  #                        STODL   VCV
000201:                                                                                                  #                                TIME STATE VECTOR VALID
000202:                                                                                                  #                        STODL   TET
000203:                                                                                                  #                                FINAL RADIUS
000204:                                                                                                  #                        STORE   RFINAL
000205:                                                                                                  #                        SET(CLEAR)      SET(CLEAR)
000206:                                                                                                  #                                        INTYPFLAG
000207:                                                                                                  #                                        MOONFLAG
000208:                                                                                                  #                        SET(CLEAR)      DLOAD
000209:                                                                                                  #                                        DESIRED TIME
000210:                                                                                                  #                        STCALL          TDEC1
000211:                                                                                                  #                                        INTEGRVS
000212:                                                                                                  #           INPUT
000213:                                                                                                  #                RCV     POSITION VECTOR                 METERS
000214:                                                                                                  #                VCV     VELOCITY VECTOR                 M/CSEC
000215:                                                                                                  #                TET     TIME OF STATE VECTOR (MAY = 0)  CSEC B-28
000216:                                                                                                  #                TDEC1   TIME TO INTEGRATE TO            CSEC B-28 (PD 32D)
000217:                                                                                                  #                        (MAY BE INCREMENT IF TET=0)
000218:                                                                                                  #           OUTPUT
000219:                                                                                                  #                SAME AS FOR PRECISION OR CONIC INTEGRATION,
000220:                                                                                                  #                DEPENDING ON INTYPFLG.
000221:                                                                                                  #        D) INTEGRATE STATE VECTOR.  INTGRV ENTRANCE
000222:                                                                                                  #                L-X     STORE TIME IN PUSH LIST (TDEC1) (MAY BE DONE AFTER CALL TO INTSTALL)
000223:                                                                                                  #                L-8     CALL
000224:                                                                                                  #                L-7
000225:                                                                                                  #                L-6     SET(CLEAR)      SET(CLEAR)
000226:                                                                                                  #                L-5                     VINTFLAG        1=CSM, 0=LM
000227:                                                                                                  #                L-4                     INTYPFLAG       1=CONIC, 0=PRECISION
000228:                                                                                                  #                L-3     SET(CLEAR)
000229:                                                                                                  #                L-2                     DIMOFLAG        1=W-MATRIX, 0=NO W-MATRIX
000230:                                                                                                  #                L       SET             DLOAD
000231:                                                                                                  #                L+1                     STATEFLG        DESIRE PERMANENT UPDATE
000232:                                                                                                  #                L+2                     FINAL RAD. OF STATE VECTOR
000233:                                                                                                  #                L+3     STCALL          RFINAL
000234:                                                                                                  #                L+4                     INTEGRV
000235:                                                                                                  #                L       CALL                            NORMAL USE-- WILL UPDATE STATE
000236:                                                                                                  #                L+1                     INTEGRV         VECTOR IF DIMOFLAG=1. (STATEFLG IS
000237:                                                                                                  #                L+2     RETURN                          ALWAYS RESET IN INTEGRATION AFTER
000238:                                                                                                  #                                                        IT IS USED.)
000239:                                                                                                  #          INPUT
000240:                                                                                                  #                TDEC1 (PD 32D) TIME TO INTEGRATE TO     CSEC B-28
000241:                                                                                                  #          OUTPUT
000242:                                                                                                  #                SAME AS FOR PRECISION OR CONIC INTEGRATION
000243:                                                                                                  #          THE PROGRAM WILL SET MOONFLAG, MIDFLAG DEPENDING ON
000244:                                                                                                  #          THE PERMANENT STATE VECTOR REPRESENTATION.
000245:
000246: 04,2000                                           SETLOC   INTINIT1
000247: 04,2000                                           BANK
000248: 04,3230  E3,1554                                  EBANK=   RRECTCSM
000249: 04,3230                                           COUNT*   $$/INTIN
000250: 04,3230           05415        STATEINT           TC       PHASCHNG
000251: 04,3231           00052                           OCT      00052
000252: 04,3232  01,2036               2P5SPT4            =        2.5SPOT
000253: 04,3232           35061                           CAF      PRIO5
000254: 04,3233           05150                           TC       FINDVAC
000255: 04,3234  E3,1554                                  EBANK=   RRECTCSM
000256: 04,3234           03237 10063                     2CADR    STATINT1
000257:
000258: 04,3236           05327                           TC       TASKOVER
000259: 04,3237           06006        STATINT1           TC       INTPRET
000260: 04,3240           47014                           BON      RTB
000261: 04,3241           04712                                    QUITFLAG
000262: 04,3242           11277                                    NOINT                                 #  NO STATEINT IF V96
000263: 04,3243           45563                                    LOADTIME
000264: 04,3244           00041                           STORE    TDEC1
000265: 04,3245           45014                           CLEAR    CALL
000266: 04,3246           04274                                    V96ONFLG
000267: 04,3247           11720                                    INTSTALL
000268: 04,3250           45014                           SET      CALL
000269: 04,3251           01076                                    NODOFLAG
000270: 04,3252           11272                                    SETIFLGS
000271: 04,3253           52014                           SET      GOTO                                  #  INHIBIT BACKWARDS INTEGRATION
000272: 04,3254           01466                                    POOFLAG
000273: 04,3255           36000                                    STATEUP
000274: 04,3256           00003 25140  600SECS            2DEC     60000      B-28
000275:
000276: 04,3260           77414        ENDINT             CLEAR    EXIT
000277: 04,3261           01672                                    STATEFLG
000278: 04,3262           05415                           TC       PHASCHNG
000279: 04,3263           20032                           OCT      20032
000280: 04,3264  01,2033               2P3SPT1            =        2.3SPOT
000281: 04,3264           00006                           EXTEND
000282: 04,3265           33257                           DCA      600SECS
000283: 04,3266           05345                           TC       LONGCALL
000284: 04,3267  E3,1554                                  EBANK=   RRECTHIS
000285: 04,3267           03230 10063                     2CADR    STATEINT
000286:
000287: 04,3271           05220                           TC       ENDOFJOB
000288: 04,3272           43014        SETIFLGS           SET      CLEAR
000289: 04,3273           01472                                    STATEFLG
000290: 04,3274           01673                                    INTYPFLG
000291: 04,3275           43414                           CLEAR    RVQ
000292: 04,3276           01676                                    DIM0FLAG
000293: 04,3277           77776        NOINT              EXIT
000294: 04,3300           05415                           TC       PHASCHNG
000295: 04,3301           00002                           OCT      2
000296:
000297: 04,3302           07722                           TC       DOWNFLAG
000298: 04,3303           00221                           ADRES    QUITFLAG
000299:
000300: 04,3304           05220                           TC       ENDOFJOB
000301:
000302:                                                                                                  #  ATOPCSM TRANSFERS RRECT TO RRECT +41 TO RRECTCSM TO RRECTCSM +41
000303:
000304:                                                                                                  #  CALLING SEQUENCE
000305:                                                                                                  #        L       CALL
000306:                                                                                                  #        L+1             ATOPCSM
000307:
000308:                                                                                                  #  NORMAL EXIT AT L+2
000309:
000310: 04,3305           47020        ATOPCSM            STQ      RTB
000311: 04,3306           00051                                    S2
000312: 04,3307           11314                                    MOVEACSM
000313: 04,3310           77624                           CALL
000314: 04,3311           20226                                    SVDWN1
000315: 04,3312           77650                           GOTO
000316: 04,3313           00051                                    S2
000317: 04,3314           03373        MOVEACSM           TC       SETBANK
000318: 04,3315           55500                 +1        TS       DIFEQCNT                              #  INITIALIZE INDEX
000319: 04,3316           51500                           INDEX    DIFEQCNT
000320: 04,3317           31502                           CA       RRECT
000321: 04,3320           51500                           INDEX    DIFEQCNT
000322: 04,3321           55554                           TS       RRECTCSM
000323: 04,3322           11500                           CCS      DIFEQCNT                              #  IS TRANSFER COMPLETE
000324: 04,3323           13315                           TCF      MOVEACSM   +1                         #  NO-LOOP
000325: 04,3324           06030                           TC       DANZIG                                #  COMPLETE- RETURN
000326:
000327:
000328:                                                                                                  #  PTOACSM TRANSFERS RRECTCSM TO RRECTCSM +41 TO RRECT TO RRECT +41
000329:
000330:                                                                                                  #  CALLING SEQUENCE
000331:                                                                                                  #        L       CALL
000332:                                                                                                  #                        PTOACSM
000333:
000334:                                                                                                  #  NORMAL EXIT AT L+2
000335:
000336: 04,3325           43434        PTOACSM            RTB      RVQ
000337: 04,3326           11327                                    MOVEPCSM
000338: 04,3327           03373        MOVEPCSM           TC       SETBANK
000339: 04,3330           55500                 +1        TS       DIFEQCNT
000340: 04,3331           51500                           INDEX    DIFEQCNT
000341: 04,3332           31554                           CA       RRECTCSM
000342: 04,3333           51500                           INDEX    DIFEQCNT
000343: 04,3334           55502                           TS       RRECT
000344: 04,3335           11500                           CCS      DIFEQCNT
000345: 04,3336           13330                           TCF      MOVEPCSM   +1
000346: 04,3337           06030                           TC       DANZIG
000347:
000348:                                                                                                  #  ATOPLEM TRANSFERS RRECT TO RRECT +41 TO RRECTLEM TO RRECTLEM +41
000349: 04,3340           47020        ATOPLEM            STQ      RTB
000350: 04,3341           00051                                    S2
000351: 04,3342           11347                                    MOVEALEM
000352: 04,3343           77624                           CALL
000353: 04,3344           20245                                    SVDWN2
000354: 04,3345           77650                           GOTO
000355: 04,3346           00051                                    S2
000356: 04,3347           03373        MOVEALEM           TC       SETBANK
000357: 04,3350           55500                 +1        TS       DIFEQCNT
000358: 04,3351           51500                           INDEX    DIFEQCNT
000359: 04,3352           31502                           CA       RRECT
000360: 04,3353           51500                           INDEX    DIFEQCNT
000361: 04,3354           55626                           TS       RRECTLEM
000362: 04,3355           11500                           CCS      DIFEQCNT
000363: 04,3356           13350                           TCF      MOVEALEM   +1
000364: 04,3357           06030                           TC       DANZIG
000365:
000366:
000367:                                                                                                  #  PTOALEM TRANSFERS RRECTLEM TO RRECTLEM +41 TO RRECT TO RRECT +41
000368:
000369: 04,3360           43434        PTOALEM            RTB      RVQ
000370: 04,3361           11362                                    MOVEPLEM
000371: 04,3362           03373        MOVEPLEM           TC       SETBANK
000372: 04,3363           55500                 +1        TS       DIFEQCNT
000373: 04,3364           51500                           INDEX    DIFEQCNT
000374: 04,3365           31626                           CA       RRECTLEM
000375: 04,3366           51500                           INDEX    DIFEQCNT
000376: 04,3367           55502                           TS       RRECT
000377: 04,3370           11500                           CCS      DIFEQCNT
000378: 04,3371           13363                           TCF      MOVEPLEM   +1
000379: 04,3372           06030                           TC       DANZIG
000380:
000381:
000382: 04,3373           33377        SETBANK            CAF      INTBANK
000383: 04,3374           54006                           TS       BBANK
000384: 04,3375           33755                           CAF      FORTYONE
000385: 04,3376           00002                           TC       Q
000386: 04,3377  E3,1554                                  EBANK=   RRECTCSM
000387: 04,3377           10063        INTBANK            BBCON    INTEGRV
000388:
000389:
000390:                                                                                                  #  SPECIAL PURPOSE ENTRIES TO ORBITAL INTEGRATION. THESE ROUTINES PROVIDE ENTRANCES TO INTEGRATION WITH
000391:                                                                                                  #  APPROPRIATE SWITCHES SET OR CLEARED FOR THE DESIRED INTEGRATION.
000392:
000393:                                                                                                  #  CSMPREC AND LEMPREC PERFORM ORBIT INTEGRATION BY THE ENCKE METHOD TO THE TIME INDICATED IN TDEC1
000394:                                                                                                  #  ACCELERATIONS DUE TO OBLATENESS ARE INCLUDED. NO W-MATRIX INT. IS DONE.
000395:                                                                                                  #  THE PERMANENT STATE VECTOR IS NOT UPDATED.
000396:                                                                                                  #  CSMCONIC AND LEMCONIC PERFORM ORBIT INTEG. BY KEPLERS METHOD TO THE TIME INDICATED IN TDEC1
000397:                                                                                                  #  NO DISTURBING ACCELERATIONS ARE INCLUDED. IN THE PROGRAM FLOW THE GIVEN
000398:                                                                                                  #  STATE VECTOR IS RECTIFIED BEFORE SOLUTION OF KEPLERS EQUATION
000399:
000400:                                                                                                  #  THE ROUTINES ASSUME THAT THE CSM (LEM) STATE VECTOR IN P-MEM IS VALID.
000401:                                                                                                  #  SWITCHES SET PRIOR TO ENTRY TO THE MAIN INTEG. PROG ARE AS FOLLOWS
000402:                                                                                                  #               CSMPREC  CSMCONIC   LEMPREC  LEMCONIC
000403:                                                                                                  #  VINTFLAG      SET       SET       CLEAR    CLEAR
000404:                                                                                                  #  INTYPFLG      CLEAR     SET       CLEAR    SET
000405:                                                                                                  #  DIM0FLAG      CLEAR     CLEAR     CLEAR    CLEAR
000406:
000407:                                                                                                  #  CALLING SEQUENCE
000408:                                                                                                  #        L-X     STORE   TDEC1
000409:                                                                                                  #        L       CALL                    (STCALL TDEC1)
000410:                                                                                                  #        L+1             CSMPREC         (CSMCONIC, LEMPREC, LEMCONIC)
000411:
000412:                                                                                                  #   NORMAL EXIT TO L+2
000413:
000414:                                                                                                  #  SUBROUTINES CALLED
000415:                                                                                                  #    INTEGRV1
000416:                                                                                                  #    PRECOUT FOR CSMPREC AND LEMPREC
000417:                                                                                                  #    CONICOUT FOR CSMCONIC AND LEMCONIC
000418:
000419:
000420:                                                                                                  #  OUTPUT - SEE PAGE 2 OF THIS LOG SECTION
000421:                                                                                                  #  INPUT
000422:                                                                                                  #   TDEC1        TIME TO INTEGRATE TO . CSECS B-28
000423:
000424: 04,3400           45020        CSMPREC            STQ      CALL
000425: 04,3401           00046                                    X1
000426: 04,3402           11720                                    INTSTALL
000427: 04,3403           43130                           SXA,1    SET
000428: 04,3404           02115                                    IRETURN
000429: 04,3405           01474                                    VINTFLAG
000430:
000431: 04,3406           43014        IFLAGP             SET      CLEAR
000432: 04,3407           01467                                    PRECIFLG
000433: 04,3410           01676                                    DIM0FLAG
000434: 04,3411           77614                           CLRGO
000435: 04,3412           01633                                    INTYPFLG
000436: 04,3413           11462                                    INTEGRV1
000437: 04,3414           45020        LEMPREC            STQ      CALL
000438: 04,3415           00046                                    X1
000439: 04,3416           11720                                    INTSTALL
000440: 04,3417           43130                           SXA,1    CLRGO
000441: 04,3420           02115                                    IRETURN
000442: 04,3421           01634                                    VINTFLAG
000443: 04,3422           11406                                    IFLAGP
000444:
000445: 04,3423           45020        CSMCONIC           STQ      CALL
000446: 04,3424           00046                                    X1
000447: 04,3425           11720                                    INTSTALL
000448: 04,3426           43130                           SXA,1    SET
000449: 04,3427           02115                                    IRETURN
000450: 04,3430           01474                                    VINTFLAG
000451: 04,3431           43014        IFLAGC             CLEAR    SETGO
000452: 04,3432           01676                                    DIM0FLAG
000453: 04,3433           01433                                    INTYPFLG
000454: 04,3434           11462                                    INTEGRV1
000455: 04,3435           45020        LEMCONIC           STQ      CALL
000456: 04,3436           00046                                    X1
000457: 04,3437           11720                                    INTSTALL
000458: 04,3440           43130                           SXA,1    CLRGO
000459: 04,3441           02115                                    IRETURN
000460: 04,3442           01634                                    VINTFLAG
000461: 04,3443           11431                                    IFLAGC
000462:
000463: 04,3444           44014        INTEGRVS           SET      STQ
000464: 04,3445           01467                                    PRECIFLG
000465: 04,3446           02115                                    IRETURN
000466: 04,3447           77775                           VLOAD
000467: 04,3450           15726                                    ZEROVEC
000468: 04,3451           01521                           STORE    TDELTAV
000469: 04,3452           35527                           STCALL   TNUV
000470: 04,3453           23437                                    RECTIFY
000471: 04,3454           43014                           CLEAR    SETGO
000472: 04,3455           01676                                    DIM0FLAG
000473: 04,3456           04022                                    NEWIFLG
000474: 04,3457           11473                                    ALOADED
000475:
000476:                                                                                                  #  INTEGRV IS AN ENTRY TO ORBIT INTEGRATION WHICH PERMITS THE CALLER,
000477:                                                                                                  #  NORMALLY THE NAVIGATION PROGRAM, TO SET THE INTEG. FLAGS. THE ROUTINE
000478:                                                                                                  #  IS ENTERED AT INTEGRV1 BY CSMPREC ET.AL. AND AT ALOADED BY INTEGRVS.
000479:                                                                                                  #  THE ROUTINE SETS UP A-MEMORY IF ENTERED AT INTEGRV,1 AND SETS THE INTEG.
000480:                                                                                                  #  PROGRAM FOR PRECISION OR CONIC
000481:
000482:                                                                                                  #  THE CALLER MUST FIRST CALL INTSTALL TO CHECK IF INTEG. IS IN USE BEFORE
000483:                                                                                                  #  SETTING ANY FLAGS.
000484:                                                                                                  #  THE FLAGS WHICH SHOULD BE SET OR CLEARED ARE
000485:                                                                                                  #        VINTFLAG    (IGNORED WHEN ENTERED FROM INTEGRVS)
000486:                                                                                                  #        INTYPFLG
000487:                                                                                                  #        DIM0FLAG
000488:
000489:                                                                                                  #  CALLING SEQUENCE
000490:                                                                                                  #        L-X     CALL
000491:                                                                                                  #        L-Y             INTSTALL
000492:                                                                                                  #        L-1     SET OR CLEAR ALL FOUR FLAGS. ALSO CAN SET STATEFLG IF DESIRED
000493:                                                                                                  #                AND DIM0FLAG IS CLEAR.
000494:                                                                                                  #        L       CALL
000495:                                                                                                  #        L+1             INTEGRV
000496:
000497:                                                                                                  #  INITIALIZATION
000498:                                                                                                  #        FLAGS AS ABOVE
000499:                                                                                                  #        STORE TIME TO INTEGRATE TO IN TDEC1
000500:
000501:                                                                                                  #  OUTPUT
000502:                                                                                                  #        RATT    AS
000503:                                                                                                  #        VATT       DEFINED
000504:                                                                                                  #        TAT                BEFORE
000505:
000506:
000507: 04,3460           77620        INTEGRV            STQ
000508: 04,3461           02115                                    IRETURN
000509: 04,3462           77614        INTEGRV1           SET
000510: 04,3463           04062                                    NEWIFLG
000511: 04,3464           77731        INTEGRV2           SSP
000512: 04,3465           00053                                    QPRET
000513: 04,3466           11473                                    ALOADED
000514: 04,3467           52014                           BON      GOTO
000515: 04,3470           01714                                    VINTFLAG
000516: 04,3471           11325                                    PTOACSM
000517: 04,3472           11360                                    PTOALEM
000518: 04,2000                                           SETLOC   INTINIT1
000519: 04,2000                                           BANK
000520: 04,3473                                           COUNT*   $$/INTIN
000521: 04,3473           40145        ALOADED            DLOAD    BOV
000522: 04,3474           00041                                    TDEC1
000523: 04,3475           11476                                    +1
000524: 04,3476           00740                           STORE    TDEC
000525: 04,3477           52014                           BOFF     GOTO
000526: 04,3500           01753                                    INTYPFLG
000527: 04,3501           11577                                    TESTLOOP
000528: 04,3502           11563                                    RVCON
000529: 04,3503           77414        A-PCHK             BOFCLR   EXIT
000530: 04,3504           01652                                    STATEFLG
000531: 04,3505           11524                                    RECTOUT
000532: 04,3506           05415                           TC       PHASCHNG
000533: 04,3507           04022                           OCT      04022
000534: 04,3510           07710                           TC       UPFLAG                                #  PHASE CHANGE HAS OCCURRED BETWEEN
000535: 04,3511           00230                           ADRES    REINTFLG                              #  INTSTALL AND INTWAKE
000536: 04,3512           06006                           TC       INTPRET
000537: 04,3513           77731                           SSP
000538: 04,3514           00053                                    QPRET
000539: 04,3515           11522                                    PHEXIT
000540: 04,3516           52014                           BON      GOTO
000541: 04,3517           01714                                    VINTFLAG
000542: 04,3520           11305                                    ATOPCSM
000543: 04,3521           11340                                    ATOPLEM
000544: 04,3522           77624        PHEXIT             CALL
000545: 04,3523           57046                                    GRP2PC
000546: 04,3524           45001        RECTOUT            SETPD    CALL
000547: 04,3525           00001                                    0
000548: 04,3526           23437                                    RECTIFY
000549: 04,3527           63375                           VLOAD    PDVL                                  #  RATT TO PD0
000550: 04,3530           01503                                    RRECT
000551: 04,3531           01511                                    VRECT
000552: 04,3532           63325                           PDDL     PDVL                                  #  VATT TO PD6   TAT TO PD12
000553: 04,3533           01517                                    TET
000554: 04,3534           01503                                    RRECT
000555: 04,3535           65315                           PDVL     PDDL
000556: 04,3536           01511                                    VRECT
000557: 04,3537           22722                                    MUEARTH
000558: 04,3540           76006                           PUSH     AXT,1
000559: 04,3541           77775                           DEC      -2         B-14
000560: 04,3542           40001        INTEXIT            SETPD    BOV
000561: 04,3543           00001                                    0
000562: 04,3544           11545                                    +1
000563: 04,3545           43014                           CLEAR    CLEAR
000564: 04,3546           04675                                    MIDAVFLG
000565: 04,3547           01672                                    STATEFLG
000566: 04,3550           43014                           CLEAR    CLEAR
000567: 04,3551           04676                                    AVEMIDSW                              #  ALLOW UPDATE OF DOWNLINK STATE VECTOR
000568: 04,3552           01667                                    PRECIFLG
000569: 04,3553           67374                           AXT,2    SLOAD
000570: 04,3554           00000                                    0
000571: 04,3555           02116                                    IRETURN
000572: 04,3556           77776                           EXIT
000573: 04,3557           30154                           CA       MPAC
000574: 04,3560           50120                           INDEX    FIXLOC
000575: 04,3561           54052                           TS       QPRET
000576: 04,3562           03731                           TC       INTWAKE
000577:
000578:                                                                                                  #  RVCON SETS UP ORBIT INTEGRATION TO DO A CONIC SOLUTION FOR POSITION AND
000579:                                                                                                  #  VELOCITY FOR THE INTERVAL (TET-TDEC)
000580:
000581: 04,3563           45345        RVCON              DLOAD    DSU
000582: 04,3564           00740                                    TDEC
000583: 04,3565           01517                                    TET
000584: 04,3566           36171                           STCALL   TAU.
000585: 04,3567           23437                                    RECTIFY
000586: 04,3570           77624                           CALL
000587: 04,3571           22731                                    KEPPREP
000588: 04,3572           43345                           DLOAD    DAD
000589: 04,3573           01551                                    TC
000590: 04,3574           01517                                    TET
000591: 04,3575           35517                           STCALL   TET
000592: 04,3576           11524                                    RECTOUT
000593:
000594: 04,3577           43014        TESTLOOP           BOF      CLRGO
000595: 04,3600           04752                                    QUITFLAG
000596: 04,3601           11604                                    +3
000597: 04,3602           01632                                    STATEFLG
000598: 04,3603           11542                                    INTEXIT                               #  STOP INTEGRATION
000599: 04,3604           77201                 +3        SETPD    VLOAD
000600: 04,3605           00013                                    10D
000601: 04,3606           01535                                    RCV
000602: 04,3607           41446                           ABVAL    PUSH
000603: 04,3610           74405        NORFINAL           DMP      SR1R
000604: 04,3611           00043                                    34D
000605: 04,3612           75471                           DDV      SQRT
000606: 04,3613           22722                                    MUEARTH
000607: 04,3614           54205                           DMP      SR
000608: 04,3615           23732                                    .3D
000609: 04,3616           20610                                    7                                     #  DT IS TRUNCATED TO A MULTIPLE
000610: 04,3617           54345                           DLOAD    SL
000611: 04,3620           00155                                    MPAC
000612: 04,3621           20220                                    15D                                   #        OF 128 CSECS.
000613: 04,3622           40006                           PUSH     BOV
000614: 04,3623           11650                                    MAXDT
000615: 04,3624           50021                           BDSU     BMN
000616: 04,3625           11717                                    DT/2MAX
000617: 04,3626           11650                                    MAXDT
000618: 04,3627           45345        DT/2COMP           DLOAD    DSU
000619: 04,3630           00740                                    TDEC
000620: 04,3631           01517                                    TET
000621: 04,3632           54234                           RTB      SL
000622: 04,3633           45617                                    SGNAGREE
000623: 04,3634           20211                                    8D
000624: 04,3635           02173                           STORE    DT/2                                  #  B-19
000625: 04,3636           51400                           BOV      ABS
000626: 04,3637           11654                                    GETMAXDT
000627: 04,3640           50025                           DSU      BMN                                   #  IS TIME TO INTEG. TO GR THAN MAXTIME
000628: 04,3641           00015                                    12D
000629: 04,3642           11660                                    P00HCHK
000630: 04,3643           75345        USEMAXDT           DLOAD    SIGN
000631: 04,3644           00015                                    12D
000632: 04,3645           02173                                    DT/2
000633: 04,3646           36173                           STCALL   DT/2
000634: 04,3647           11660                                    P00HCHK
000635: 04,3650           65345        MAXDT              DLOAD    PDDL                                  #  EXCHANGE DT/2MAX WITH COMPUTED MAX.
000636: 04,3651           11717                                    DT/2MAX
000637: 04,3652           77650                           GOTO
000638: 04,3653           11627                                    DT/2COMP
000639: 04,3654           77634        GETMAXDT           RTB
000640: 04,3655           45742                                    SIGNMPAC
000641: 04,3656           36173                           STCALL   DT/2
000642: 04,3657           11643                                    USEMAXDT
000643: 04,3660           51545        P00HCHK            DLOAD    ABS
000644: 04,3661           02173                                    DT/2
000645: 04,3662           50025                           DSU      BMN
000646: 04,3663           11715                                    DT/2MIN
000647: 04,3664           11503                                    A-PCHK
000648: 04,3665           43014                           BOFF     BON
000649: 04,3666           01746                                    POOFLAG                               #  IS BACKWARDS INTEGRATION INHIBITED
000650: 04,3667           23367                                    TIMESTEP                              #  NO
000651: 04,3670           01707                                    PRECIFLG                              #  WAS THIS CALL VIA CSM(LEM)PREC
000652: 04,3671           23367                                    TIMESTEP                              #  YES
000653: 04,3672           45345                           DLOAD    DSU
000654: 04,3673           02173                                    DT/2
000655: 04,3674           00015                                    12D
000656: 04,3675           43040                           BMN      BOFCLR
000657: 04,3676           11503                                    A-PCHK
000658: 04,3677           04242                                    NEWIFLG
000659: 04,3700           23367                                    TIMESTEP
000660: 04,3701           45345                           DLOAD    DSU
000661: 04,3702           00740                                    TDEC
000662: 04,3703           01517                                    TET
000663: 04,3704           77640                           BMN                                            #  NO BACKWARD INTEGRATION
000664: 04,3705           11542                                    INTEXIT
000665: 04,3706           40525                           PDDL     SR4
000666: 04,3707           02173                                    DT/2                                  #  IS 4(DT) LS (TDEC - TET)
000667: 04,3710           44322                           SR2R     BDSU                                  #  NO
000668: 04,3711           52040                           BMN      GOTO
000669: 04,3712           11542                                    INTEXIT
000670: 04,3713           23367                                    TIMESTEP
000671: 04,3714           00000 01400  DT/2MIN            2DEC     3          B-20
000672: 04,3716           14152 00000  DT/2MAX            2DEC     4000       E2         B-20
000673: 04,3720           77776        INTSTALL           EXIT
000674: 04,3721           30106                 +1        CA       FLGWRD10
000675: 04,3722           74346                           MASK     PRIO30
000676: 04,3723           00006                           EXTEND
000677: 04,3724           13763                           BZF      OKTOGRAB                              #  YES
000678: 04,3725           33767                           CAF      WAKESTAL
000679: 04,3726           05176                           TC       JOBSLEEP
000680: 04,3727           77776        INTWAKE0           EXIT
000681: 04,3730           13751                           TCF      INTWAKE1
000682:
000683: 04,3731           40106        INTWAKE            CS       FLGWRD10                              #  IS THIS INTSTALLED ROUTINE TO BE
000684: 04,3732           74765                           MASK     REINTBIT                              #       RESTARTED
000685: 04,3733           10000                           CCS      A
000686: 04,3734           03751                           TC       INTWAKE1                              #  NO
000687:
000688: 04,3735           50120                           INDEX    FIXLOC
000689: 04,3736           30052                           CA       QPRET
000690: 04,3737           55251                           TS       TBASE2                                #  YES, DONT RESTART WITH SOMEONE ELSES Q
000691:
000692: 04,3740           05415                           TC       PHASCHNG
000693: 04,3741           04022                           OCT      04022
000694:
000695: 04,3742           31251                           CA       TBASE2
000696: 04,3743           50120                           INDEX    FIXLOC
000697: 04,3744           54052                           TS       QPRET
000698:
000699: 04,3745           34765                           CAF      REINTBIT
000700: 04,3746           70106                           MASK     FLGWRD10
000701: 04,3747           00006                           EXTEND
000702: 04,3750           13765                           BZF      GOBAC                                 #  DONT INTWAKE IF WE CAME HERE VIA RESTART
000703:
000704: 04,3751           33767        INTWAKE1           CAF      WAKESTAL
000705: 04,3752           05202                           TC       JOBWAKE
000706: 04,3753           10064                           CCS      LOCCTR
000707: 04,3754           13751                           TCF      INTWAKE1
000708: 04,3755           00051        FORTYONE           DEC      41         B-14
000709: 04,3756           44346                           CS       PRIO30
000710: 04,3757           70106                           MASK     FLGWRD10
000711: 04,3760           54106                           TS       FLGWRD10                              #  RELEASE STALL AREA
000712: 04,3761           00003                           RELINT
000713: 04,3762           13765                           TCF      GOBAC
000714: 04,3763           34764        OKTOGRAB           CAF      INTFLBIT
000715: 04,3764           26106                           ADS      FLGWRD10
000716: 04,3765           06006        GOBAC              TC       INTPRET
000717: 04,3766           77616                           RVQ
000718: 04,3767           11721        WAKESTAL           CADR     INTSTALL   +1
000719:                                                                                                  #  AVETOMID
000720:
000721:                                                                                                  #  THIS ROUTINE PERFORMS THE TRANSITION FROM A THRUSTING PHASE TO THE COAST
000722:                                                                                                  #  PHASE BY INITIALIZING THIS VEHICLES PERMANENT STATE VECTOR WITH THE
000723:                                                                                                  #  VALUES LEFT BY THE AVERAGEG ROUTINE IN RN,VN,PIPTIME.
000724:
000725:                                                                                                  #  BEFORE THIS IS DONE THE W-MATRIX, IF ITS VALID (ORWFLAG OR RENDWFLG IS
000726:                                                                                                  #  SET) IS INTEGRATED FORWARD TO PIPTIME WITH THE PRE-THRUST STATE VECTOR.
000727:
000728:                                                                                                  #  IN ADDITION, THE OTHER VEHICLE IS INTEGRATED (PERMANENT) TO PIPTIME.
000729:
000730:                                                                                                  #  FINALLY TRKMKCNT IS ZEROED
000731:
000732: 35,2000                                           SETLOC   INTINIT2
000733: 35,2000                                           BANK
000734:
000735: 35,3556                                           COUNT*   $$/INTIN
000736: 35,3556           43020        AVETOMID           STQ      BON
000737: 35,3557           02200                                    EGRESS
000738: 35,3560           02716                                    RENDWFLG
000739: 35,3561           73607                                    INT/W                                 #  W-MATRIX VALID, GO INTEGRATE IT
000740:
000741: 35,3562           45174        SETCOAST           AXT,2    CALL                                  #  NOW MOVE PROPERLY SCALED RN,VN AND
000742: 35,3563           00000                                    0                                     #  PIPTIME TO INTEGRATION ERASABLES.
000743: 35,3564           11720                                    INTSTALL
000744: 35,3565           77214                           CLEAR    VLOAD
000745: 35,3566           01674                                    VINTFLAG
000746: 35,3567           01022                                    RN
000747: 35,3570           01503                           STORE    RRECT
000748: 35,3571           15535                           STODL    RCV
000749: 35,3572           01036                                    PIPTIME
000750: 35,3573           00041                           STORE    TDEC1
000751: 35,3574           25517                           STOVL    TET
000752: 35,3575           01030                                    VN
000753: 35,3576           77624                           CALL
000754: 35,3577           23452                                    MINIRECT                              #  FINISH SETTING UP STATE VECTOR
000755: 35,3600           45034                           RTB      CALL
000756: 35,3601           11314                                    MOVATHIS                              #  PUT TEMP STATE VECTOR INTO PERMANENT
000757: 35,3602           11272                                    SETIFLGS
000758:
000759: 35,3603           77624                           CALL                                           #  NOW DO LM
000760: 35,3604           11460                                    INTEGRV
000761: 35,3605           77650                           GOTO
000762: 35,3606           02200                                    EGRESS
000763: 35,3607           45145        INT/W              DLOAD    CALL
000764: 35,3610           01036                                    PIPTIME                               #  INTEGRATE W THRU BURN
000765: 35,3611           11720                                    INTSTALL
000766: 35,3612           43014                           SET      SET
000767: 35,3613           01476                                    DIM0FLAG                              #  DO W-MATRIX
000768: 35,3614           04476                                    AVEMIDSW                              #  SO WONT CLOBBER RN,VN,PIPTIME
000769: 35,3615           77614                           SET
000770: 35,3616           01474                                    VINTFLAG
000771: 35,3617           34041                           STCALL   TDEC1
000772: 35,3620           11460                                    INTEGRV
000773: 35,3621           77650                           GOTO
000774: 35,3622           73562                                    SETCOAST
000775:
000776:                                                                                                  #  MIDTOAV1
000777:
000778:                                                                                                  #  THIS ROUTINE INTEGRATES (PRECISION) TO THE TIME SPECIFIED IN TDEC1.
000779:                                                                                                  #  IF, AT THE END OF AN INTEGRATION TIME STEP, CURRENT TIME PLUS A DELTA
000780:                                                                                                  #  TIME (SEE TIMEDELT.....BASED ON THE COMPUTATUON TIME FOR ONE TIME STEP)
000781:                                                                                                  #  IS GREATER THAN THE DESIRED TIME, ALARM 1703 IS SET AND THE INTEGRATION
000782:                                                                                                  #  IS DONE AS IT IS FOR MIDTOAV2.
000783:                                                                                                  #  RETURN IS IN BASIC TO THE RETURN ADDRESS PLUS ONE.
000784:
000785:                                                                                                  #  IF THE INTEGRATION IS FINISHED TO THE DESIRED TIME, RETURN IS IN BASIC
000786:                                                                                                  #  TO THE RETURN ADDRESS
000787:
000788:                                                                                                  #  IN EITHER CASE, BEFORE RETURNING, THE EXTRAPOLATED STATE VECTOR IS TRAN
000789:                                                                                                  #  FERRED FROM R,VATT TO R,VN1-PIPTIME1 IS SET TO THE FINISHING INTEGRA-
000790:                                                                                                  #  TION TIME AND MPAC IS SET TO THE DELTA TIME---
000791:                                                                                                  #                                        TAT MINUS CURRENT TIME.
000792:
000793:
000794:                                                                                                  #  MIDTOAV2
000795:
000796:                                                                                                  #  THIS ROUTINE INTEGRATES THE CSM STATE VECTOR TO CURRENT TIME PLUS
000797:                                                                                                  #  INCREMENTS OF TIMEDELT SUCH THAT THE DIFFERENCE BETWEEN CURRENT TIME
000798:                                                                                                  #  AND THE STATE VECTOR TIME AT THE END OF THE LAST STEP IS AT LEAST 5.6
000799:                                                                                                  #  SECS.
000800:                                                                                                  #  NO INPUTS ARE REQUIRED OF THE CALLER. RETURN IS IN BASIC TO THE RETURN
000801:                                                                                                  #  ADDRESS WITH THE ABOVE TRANSFERS TO R,VN1-PIPTIME1-AND MPAC DONE
000802:
000803: 13,2000                                           SETLOC   INTINIT
000804: 13,2000                                           BANK
000805: 13,3535                                           COUNT*   $$/R41
000806: 13,3535     0766                                  EBANK=   IRETURN1
000807: 13,3535           45020        MIDTOAV2           STQ      CALL
000808: 13,3536           00766                                    IRETURN1
000809: 13,3537           11720                                    INTSTALL
000810: 13,3540           43145                           DLOAD    CLEAR
000811: 13,3541           27672                                    TIMEDELT
000812: 13,3542           04674                                    MID1FLAG
000813: 13,3543           37446                           STCALL   T-TO-ADD
000814: 13,3544           27561                                    ENTMID2
000815:
000816: 13,3545           45020        MIDTOAV1           STQ      CALL
000817: 13,3546           00766                                    IRETURN1
000818: 13,3547           11720                                    INTSTALL
000819: 13,3550           47014                           SET      RTB
000820: 13,3551           04474                                    MID1FLAG
000821: 13,3552           45563                                    LOADTIME
000822: 13,3553           44215                           DAD      BDSU                                  #  INITIAL CHECK, IS TDEC1 IN THE FUTURE.
000823: 13,3554           27672                                    TIMEDELT
000824: 13,3555           00041                                    TDEC1
000825: 13,3556           45044                           BPL      CALL
000826: 13,3557           27565                                    ENTMID1
000827: 13,3560           27655                                    NOTIME                                #  NO SET ALARM.SWITCH TO MIDTOAV2
000828:
000829: 13,3561           43234        ENTMID2            RTB      DAD
000830: 13,3562           45563                                    LOADTIME
000831: 13,3563           03446                                    T-TO-ADD
000832: 13,3564           00041                           STORE    TDEC1
000833:
000834: 13,3565           45014        ENTMID1            CLEAR    CALL
000835: 13,3566           01676                                    DIM0FLAG                              #  NO W-MATRIX
000836: 13,3567           36026                                    THISVINT
000837: 13,3570           43014                           CLEAR    SET
000838: 13,3571           01673                                    INTYPFLG
000839: 13,3572           04475                                    MIDAVFLG                              #  LET INTEG. KNOW THE CALL IS FOR MIDTOAV.
000840: 13,3573           77624                           CALL
000841: 13,3574           11460                                    INTEGRV                               #  GO INTEGRATE
000842: 13,3575           77775                           VLOAD
000843: 13,3576           00001                                    RATT
000844: 13,3577           25063                           STOVL    RN1
000845: 13,3600           00007                                    VATT
000846: 13,3601           15071                           STODL    VN1
000847: 13,3602           00015                                    TAT
000848: 13,3603           01077                           STORE    PIPTIME1
000849: 13,3604           77776                           EXIT
000850:
000851: 13,3605           00004                           INHINT
000852: 13,3606           00006                           EXTEND
000853: 13,3607           40025                           DCS      TIME2
000854: 13,3610           20155                           DAS      MPAC
000855: 13,3611           07226                           TC       TPAGREE
000856:
000857: 13,3612           30766                           CA       IRETURN1
000858: 13,3613           04671                           TC       BANKJUMP
000859: 13,3614           47014        CKMID2             BOF      RTB
000860: 13,3615           04754                                    MID1FLAG
000861: 13,3616           27633                                    MID2
000862: 13,3617           45563                                    LOADTIME
000863: 13,3620           44215                           DAD      BDSU
000864: 13,3621           27672                                    TIMEDELT
000865: 13,3622           00740                                    TDEC
000866: 13,3623           45044                           BPL      CALL
000867: 13,3624           11577                                    TESTLOOP                              #  YES
000868: 13,3625           27655                                    NOTIME
000869:
000870: 13,3626           43234        TIMEINC            RTB      DAD
000871: 13,3627           45563                                    LOADTIME
000872: 13,3630           03446                                    T-TO-ADD
000873: 13,3631           34740                           STCALL   TDEC
000874: 13,3632           11577                                    TESTLOOP
000875:
000876: 13,3633           45345        MID2               DLOAD    DSU
000877: 13,3634           00740                                    TDEC
000878: 13,3635           01517                                    TET
000879: 13,3636           45246                           ABS      DSU
000880: 13,3637           27670                                    3CSECS
000881: 13,3640           77644                           BPL
000882: 13,3641           27626                                    TIMEINC
000883:
000884: 13,3642           44234                           RTB      BDSU                                  #  SEE IF 5.6 SECS. AVAILABLE TO CALLER.
000885: 13,3643           45563                                    LOADTIME
000886: 13,3644           01517                                    TET
000887: 13,3645           51025                           DSU      BPL
000888: 13,3646           27674                                    5.6SECS
000889: 13,3647           11503                                    A-PCHK                                #  YES,GET OUT.
000890:
000891: 13,3650           43345                           DLOAD    DAD                                   #  NO, ADD TIMEDELT TO T-TO-ADD AND TRY
000892: 13,3651           03446                                    T-TO-ADD                              #  AGAIN.
000893: 13,3652           27672                                    TIMEDELT
000894: 13,3653           37446                           STCALL   T-TO-ADD
000895: 13,3654           27626                                    TIMEINC
000896:
000897: 13,3655           77414        NOTIME             CLEAR    EXIT                                  #  TOO LATE
000898: 13,3656           04674                                    MID1FLAG
000899: 13,3657           24766                           INCR     IRETURN1                              #  SET ERROR EXIT (CALLOC +2)
000900: 13,3660           05644                           TC       ALARM                                 #  INSUFFICIENT TIME FOR INTEGRATION --
000901: 13,3661           01703                           OCT      1703                                  #     TIG WILL BE SLIPPED...
000902: 13,3662           06006                           TC       INTPRET
000903: 13,3663           77745                           DLOAD
000904: 13,3664           27672                                    TIMEDELT
000905: 13,3665           03446                           STORE    T-TO-ADD
000906: 13,3666           77616                           RVQ
000907:
000908: 13,3667           00000 00003  3CSECS             2DEC     3          B-28
000909: 13,3671           00000 02342  TIMEDELT           2DEC     1250       B-28
000910: 13,3673           00000 01060  5.6SECS            2DEC     560        B-28
000911: 27,2000                                           SETLOC   UPDATE2
000912: 27,2000                                           BANK
000913: 27,3006                                           COUNT*   $$/INTIN
000914:
000915: 27,3006  E3,1700                                  EBANK=   TEPHEM
000916: 27,3006           06006        INTWAKEU           TC       INTPRET
000917:
000918: 27,3007           53135                           SLOAD    BZE                                   #  IS THIS A CSM/LEM STATE VECTOR UPDATE
000919: 27,3010           01502                                    UPSVFLAG                              #  REQUEST. IF NOT GO TO INTWAKUP.
000920: 27,3011           57040                                    INTWAKUP
000921:
000922: 27,3012           77775                           VLOAD                                          #  MOVE RRECT(6) AND VRECT(6) INTO
000923: 27,3013           01503                                    RRECT                                 #       RCV(6)   AND VCV(6)   RESPECTIVELY.
000924: 27,3014           25535                           STOVL    RCV
000925: 27,3015           01511                                    VRECT                                 #  NOW GO TO 'RECTIFY +13D' TO
000926: 27,3016           77624                           CALL                                           #  STORE VRECT INTO VCV AND ZERO OUT
000927: 27,3017           23453                                    TINIRECT                              #  TDELTAV(6),TNUV(6),TC(2) AND XKEP(2)
000928: 27,3020           50135        INTWAKEC           SLOAD    BMN                                   #  COMMON CODING AFTER X2 INITIALIZED AND
000929:                                                                                                  #  MOONFLAG SET (OR CLEARED).
000930: 27,3021           01502                                    UPSVFLAG                              #  IS THIS A REQUEST FOR A LEM OR CSM
000931: 27,3022           57027                                    INTWAKLM                              #   STATE VECTOR UPDATE......
000932: 27,3023           77624                           CALL                                           #  UPDATE CSM STATE VECTOR
000933: 27,3024           11305                                    ATOPCSM
000934:
000935: 27,3025           77650                           GOTO
000936: 27,3026           57031                                    INTWAKEX
000937:
000938: 27,3027           77624        INTWAKLM           CALL                                           #  UPDATE LM STATE VECTOR
000939: 27,3030           11340                                    ATOPLEM
000940:
000941: 27,3031           77414        INTWAKEX           CLEAR    EXIT
000942: 27,3032           02676                                    RENDWFLG
000943:
000944: 27,3033           35003                           CAF      ZERO
000945: 27,3034           00006                           EXTEND
000946:
000947: 27,3035           01077                           WRITE    CHAN77                                #  ZERO CHANNEL 77
000948: 27,3036           55501                           TS       UPSVFLAG
000949:
000950: 27,3037           06006                           TC       INTPRET
000951: 27,3040           77624        INTWAKUP           CALL
000952: 27,3041           11727                                    INTWAKE0                              #  RELEASE :GRAB: OF ORBIT INTEG
000953: 27,3042           77776                           EXIT
000954:
000955: 27,3043           05415                           TC       PHASCHNG
000956: 27,3044           04026                           OCT      04026
000957: 27,3045           03626                           TC       UPOUT      +1
000958:
000959: 27,2000                                           SETLOC   ORBITAL2
000960: 27,2000                                           BANK
000961:
000962: 27,3046                                           COUNT*   $$/ORBIT
000963: 27,3046           77420        GRP2PC             STQ      EXIT
000964: 27,3047           03514                                    GRP2SVQ
000965: 27,3050           05415                           TC       PHASCHNG
000966: 27,3051           04022                           OCT      04022
000967: 27,3052           06006                           TC       INTPRET
000968: 27,3053           77650                           GOTO
000969: 27,3054           03514                                    GRP2SVQ

End of include-file INTEGRATION_INITIALIZATION.agc.  Parent file is MAIN.agc


