
Source Code


000002:                                                                                                  ## Copyright:   Public domain.
000003:                                                                                                  ## Filename:    INTERPRETIVE_CONSTANTS.agc
000004:                                                                                                  ## Purpose:     A section of Skylark revision 048.
000005:                                                                                                  ##              It is part of the source code for the Apollo Guidance Computer (AGC)
000006:                                                                                                  ##              for Skylab-2, Skylab-3, Skylab-4, and ASTP. No original listings of
000007:                                                                                                  ##              this software are available; instead, this file was created via
000008:                                                                                                  ##              disassembly of dumps of the core rope modules actually flown on
000009:                                                                                                  ##              Skylab-2. Access to these modules was provided by the New Mexico
000010:                                                                                                  ##              Museum of Space History.
000011:                                                                                                  ## Assembler:   yaYUL
000012:                                                                                                  ## Contact:     Ron Burkey <info@sandroid.org>.
000013:                                                                                                  ## Website:     www.ibiblio.org/apollo/index.html
000014:                                                                                                  ## Mod history: 2023-09-04 MAS  Created from Artemis 072.
000015:
000016: 26,2000                                           SETLOC   INTPRET1
000017: 26,2000                                           BANK
000018:
000019: 26,3173                                           COUNT*   $$/ICONS
000020: 26,3173           10000 00000  DP1/4TH            2DEC     .25
000021: 26,3175           00000 00000  UNITZ              2DEC     0          B-28
000022: 26,3177           00000 00000  UNITY              2DEC     0          B-28
000023: 26,3201           20000 00000  UNITX              2DEC     .5
000024: 26,3203           00000 00000  ZEROVECS           2DEC     0          B-28
000025: 26,3205           00000 00000                     2DEC     0          B-28
000026: 26,3207           00000 00000                     2DEC     0          B-28
000027: 26,3211  26,3201               DPHALF             =        UNITX
000028: 26,3211           37777        DPPOSMAX           OCT      37777
000029: 26,3212           37777                           OCT      37777
000030:
000031:
000032:                                                                                                  #  INTERPRETIVE CONSTANTS IN THE OTHER HALF-MEMORY
000033:
000034: 06,2000                                           SETLOC   INTPRET2
000035: 06,2000                                           BANK
000036:
000037: 06,3717                                           COUNT*   $$/ICONS
000038: 06,3717           00000 00000  ZUNIT              2DEC     0          B-28
000039: 06,3721           00000 00000  YUNIT              2DEC     0          B-28
000040: 06,3723           20000 00000  XUNIT              2DEC     .5
000041: 06,3725           00000 00000  ZEROVEC            2DEC     0          B-28
000042: 06,3727           00000 00000                     2DEC     0          B-28
000043: 06,3731           00000 00000                     2DEC     0          B-28
000044:
000045: 06,3733           77777                           OCT      77777                                 #  -0, -6, -12 MUST REMAIN IN THIS ORDER
000046: 06,3734           77771        DEC-6              DEC      -6         B-14
000047: 06,3735           77763        DEC-12             DEC      -12        B-14
000048: 06,3736           37777 37777  LODPMAX            2OCT     3777737777                            #  THESE TWO CONSTANTS MUST REMAIN
000049: 06,3740           37777 37777  LODPMAX1           2OCT     3777737777                            #  ADJACENT AND THE SAME FOR INTEGRATION
000050:
000051: 06,3742  06,3725               ZERODP             =        ZEROVEC
000052: 06,3742  06,3723               HALFDP             =        XUNIT

End of include-file INTERPRETIVE_CONSTANTS.agc.  Parent file is MAIN.agc


