
Source Code


000002:                                                                                                  ## Copyright:   Public domain.
000003:                                                                                                  ## Filename:    JET_SELECTION_LOGIC.agc
000004:                                                                                                  ## Purpose:     A section of Skylark revision 048.
000005:                                                                                                  ##              It is part of the source code for the Apollo Guidance Computer (AGC)
000006:                                                                                                  ##              for Skylab-2, Skylab-3, Skylab-4, and ASTP. No original listings of
000007:                                                                                                  ##              this software are available; instead, this file was created via
000008:                                                                                                  ##              disassembly of dumps of the core rope modules actually flown on
000009:                                                                                                  ##              Skylab-2. Access to these modules was provided by the New Mexico
000010:                                                                                                  ##              Museum of Space History.
000011:                                                                                                  ## Assembler:   yaYUL
000012:                                                                                                  ## Contact:     Ron Burkey <info@sandroid.org>.
000013:                                                                                                  ## Website:     www.ibiblio.org/apollo/index.html
000014:                                                                                                  ## Mod history: 2023-09-04 MAS  Created from Artemis 072.
000015:                                                                                                  ##              2024-03-04 MAS  Updated for Skylark 48.
000016:
000017: 17,2000                                           SETLOC   DAPS4
000018: 17,2000                                           BANK
000019:
000020: 17,2577                                           COUNT*   $$/DAPJS
000021: 17,2577  E6,1537                                  EBANK=   KMPAC
000022:
000023:                                                                                                  #  EXAMINE CHANNEL 31 FOR TRANSLATION COMMANDS
000024:
000025: 17,2577           22016        JETSLECT           LXCH     BANKRUPT
000026: 17,2600           32662                           CAF      DELTATT3                              #  = 60 MS   RESET TO EXECUTE PHASE1
000027: 17,2601           61665                           AD       T5TIME
000028: 17,2602           54030                           TS       TIME5
000029: 17,2603           12606                           TCF      +3
000030: 17,2604           37663                           CAF      DELATT20                              #  = 20 MS   TO ASSURE A T5RUPT
000031: 17,2605           54030                           TS       TIME5
000032: 17,2606           33340                           CAF      =14MS                                 #  RESET T6 TO INITIALIZE THE JET CHANNELS
000033: 17,2607           54031                           TS       TIME6                                 #  IN 14 MS
000034: 17,2610           00006                           EXTEND
000035: 17,2611           22012                           QXCH     QRUPT
000036: 17,2612           04553                           TC       C13STALL
000037: 17,2613           34763                           CAF      NEGMAX
000038: 17,2614           00006                           EXTEND
000039: 17,2615           05013                           WOR      CHAN13
000040: 17,2616           32661                           CAF      XLNMASK                               #  = 7700 OCT
000041: 17,2617           00006                           EXTEND                                         #  EXAMINE THE TRANSLATION
000042: 17,2620           06031                           RXOR     CHAN31                                #  HAND CONTROLLER
000043: 17,2621           72661                           MASK     XLNMASK
000044: 17,2622           00006                           EXTEND
000045: 17,2623           12663                           BZF      NOXLNCMD
000046: 17,2624           55531                           TS       T5TEMP
000047: 17,2625           00006                           EXTEND
000048: 17,2626           74771                           MP       BIT9
000049: 17,2627           76214                           MASK     THREE
000050: 17,2630           55542                           TS       XNDX1                                 #  AC QUAD  X-TRANSLATION INDEX
000051: 17,2631           55543                           TS       XNDX2                                 #  BD QUAD  X-TRANSLATION INDEX
000052: 17,2632           31531                           CA       T5TEMP
000053: 17,2633           00006                           EXTEND                                         #  1 = + XLN
000054: 17,2634           74773                           MP       BIT7                                  #  2 = - XLN
000055: 17,2635           76214                           MASK     THREE                                 #  3 = NO XLN
000056: 17,2636           55544                           TS       YNDX                                  #  Y-TRANSLATION INDEX
000057:
000058: 17,2637           31531                           CA       T5TEMP
000059: 17,2640           00006                           EXTEND
000060: 17,2641           74775                           MP       BIT5
000061: 17,2642           76214                           MASK     THREE
000062: 17,2643           55545                           TS       ZNDX                                  #  Z-TRANSLATION INDEX
000063:
000064: 17,2644           31514                           CA       DAPDATR1                              #  SET ATTKALMN TO PICK UP FILTER GAINS FOR
000065: 17,2645           74764                           MASK     BIT14                                 #  TRANSLATIONS.
000066: 17,2646           00006                           EXTEND                                         #  CHECK DAPDATR1 BIT 14 FOR LEM ATTACHED.
000067: 17,2647           12652                           BZF      NOLEM
000068: 17,2650           46214                           CS       THREE                                 #  IF LEM IS ON, SET ATTKALMN = -3
000069: 17,2651           12653                           TCF      +2
000070: 17,2652           45000        NOLEM              CS       TWO                                   #  IF LEM IS OFF, SET ATTKALMN = -2.
000071: 17,2653           55650                           TS       ATTKALMN
000072: 17,2654           11662                           CCS      XTRANS                                #  (+, -1, 0)
000073: 17,2655           55542                           TS       XNDX1                                 #  USING BD-X  ZERO XNDX1
000074: 17,2656           12667                           TCF      PWORD
000075: 17,2657           55543                           TS       XNDX2                                 #  USING AC-X  ZERO XNDX2
000076: 17,2660           12667                           TCF      PWORD
000077: 17,2661           07700        XLNMASK            OCT      7700
000078:
000079: 17,2662           37772        DELTATT3           DEC      16378      B-14                       #  = 60 MS
000080: 17,2663     7663               DELATT20           =        OCT37776                              #  = 20 MS
000081: 17,2663           55542        NOXLNCMD           TS       XNDX1                                 #  ZERO ALL REQUESTS FOR TRANSLATION
000082: 17,2664           55543                           TS       XNDX2
000083: 17,2665           55544                           TS       YNDX
000084: 17,2666           55545                           TS       ZNDX
000085:
000086:                                                                                                  #  PITCH COMMANDS  TIMING(NO X-TRANS, NO QUAD FAILS) 32MCT
000087:
000088: 17,2667           11611        PWORD              CCS      TAU1                                  #  CHECK FOR PITCH COMMANDS
000089: 17,2670           35001                           CAF      ONE
000090: 17,2671           12673                           TCF      +2                                    #   0 = NO PITCH
000091: 17,2672           35000                           CAF      TWO                                   #  +1 =  + PITCH
000092: 17,2673           55547                           TS       PINDEX                                #  +2 =  - PITCH
000093:
000094: 17,2674           11657                           CCS      RACFAIL                               #  FLAG FOR REAL AC QUAD FAILURES
000095: 17,2675           12701                           TCF      AFAILP
000096: 17,2676           12711                           TCF      TABPCOM                               #  0 = NO REAL AC FAILURES
000097: 17,2677           12703                           TCF      CFAILP                                #  + = A QUAD FAILED
000098: 17,2700           12711                           TCF      TABPCOM                               #  - = C QUAD FAILED
000099:                                                                                                  #  IF FAILURES ARE PRESENT IGNORE
000100:                                                                                                  #  X-TRANSLATIONS ON THIS AXIS
000101:
000102: 17,2701           34322        AFAILP             CAF      NINE                                  #  IF FAILURE IS PRESENT 1JET OPERATION
000103: 17,2702           12713                           TCF      TABPCOM    +2                         #  IS ASSUMED. IGNORE X-TRANSLATION
000104: 17,2703           35750        CFAILP             CAF      TWELVE
000105: 17,2704           12713                           TCF      TABPCOM    +2
000106:
000107: 17,2705           00000        XLNNDX             DEC      0          B-14                       #  INDECES FOR TRANSLATION COMMANDS
000108: 17,2706           00003                           DEC      3          B-14                       #  FOR USE IN TABLE LOOK UP
000109: 17,2707           00006                           DEC      6          B-14
000110: 17,2710           00000                           DEC      0          B-14
000111:
000112: 17,2711     5750               TWELVE             =        OCT14
000113:
000114:                                                                                                  #  TABLE LOOK UP FOR PITCH COMMANDS WITH AND WITHOUT X-TRANSLATION AND AC QUAD FAILURES PRESENT.
000115:                                                                                                  #  BITS 9, 10 CONTAIN THE NUMBER OF PITCH JETS USED TO PERFORM THE PITCH ROTATION
000116:
000117: 17,2711           51542        TABPCOM            INDEX    XNDX1
000118: 17,2712           32705                           CA       XLNNDX
000119: 17,2713           61547                 +2        AD       PINDEX
000120: 17,2714           50000                           INDEX    A
000121: 17,2715           32741                           CA       PYTABLE
000122: 17,2716           72760                           MASK     PJETS                                 #  =1417 OCT
000123: 17,2717           55501                           TS       PWORD1
000124: 17,2720           00006                           EXTEND
000125: 17,2721           74773                           MP       BIT7
000126: 17,2722           55552                           TS       NPJETS                                #  = NO. OF PITCH JETS
000127:
000128:                                                                                                  #  YAW JET COMMANDS  TIMING(NO X-TRANS, NO QUAD FAILURES)  32MCT
000129:
000130: 17,2723           11612        YWORD              CCS      TAU2                                  #  CHECK FOR YAW COMMANDS
000131: 17,2724           35001                           CAF      ONE
000132: 17,2725           12727                           TCF      +2
000133: 17,2726           35000                           CAF      TWO
000134: 17,2727           55550                           TS       YINDEX                                #  YAW ROTATION INDEX
000135:
000136: 17,2730           11660                           CCS      RBDFAIL                               #  FLAG FOR B OR D QUAD FAILURES
000137: 17,2731           12735                           TCF      BFAILY                                #  0 = NO BD FAILURE
000138: 17,2732           12762                           TCF      TABYCOM                               #  + = B QUAD FAILED
000139: 17,2733           12737                           TCF      DFAILY                                #  - = D QUAD FAILED
000140: 17,2734           12762                           TCF      TABYCOM
000141:
000142: 17,2735           34322        BFAILY             CAF      NINE
000143: 17,2736           12764                           TCF      TABYCOM    +2
000144: 17,2737           35750        DFAILY             CAF      TWELVE
000145: 17,2740           12764                           TCF      TABYCOM    +2
000146:
000147:                                                                                                  #  TABLE FOR PITCH(YAW) COMMANDS
000148:                                                                                                  #  BITS 4,3,2,1 = PITCH, X-TRANSLATION JETS SELECTED
000149:                                                                                                  #  BITS    10,9 = NO. PITCH JETS USED TO PERFORM ROTATION
000150:                                                                                                  #  BITS 8,7,6,5 = YAW, X-TRANSLATION JETS SELECTED
000151:                                                                                                  #  BITS 12,11:  NO. YAW JETS USED TO PERFORM ROTATION
000152:
000153:                                                                                                  #  ROT   TRANS   QUAD    BIAS
000154: 17,2741           00000        PYTABLE            OCT      0                                     #  0     0               0
000155: 17,2742           05125                           OCT      5125                                  #  +     0               0
000156: 17,2743           05252                           OCT      5252                                  #  -     0               0
000157: 17,2744           00231                           OCT      0231                                  #  0     +               3
000158: 17,2745           02421                           OCT      2421                                  #  +     +               3
000159: 17,2746           02610                           OCT      2610                                  #  -     +               3
000160: 17,2747           00146                           OCT      0146                                  #  0     -               6
000161: 17,2750           02504                           OCT      2504                                  #  +     -               6
000162: 17,2751           02442                           OCT      2442                                  #  -     -               6
000163: 17,2752           00000                           OCT      0                                     #  0             A(B)    9
000164: 17,2753           02421                           OCT      2421                                  #  +             A(B)    9
000165: 17,2754           02442                           OCT      2442                                  #  -             A(B)    9
000166: 17,2755           00000                           OCT      0                                     #  0             C(D)    12
000167: 17,2756           02504                           OCT      2504                                  #  +             C(D)    12
000168: 17,2757           02610                           OCT      2610                                  #  -             C(D)    12
000169:
000170:                                                                                                  #  MASKS FOR PITCH AND YAW COMMANDS
000171:
000172: 17,2760           01417        PJETS              OCT      1417
000173: 17,2761           06360        YJETS              OCT      6360
000174:
000175:                                                                                                  #  TABLE LOOK UP FOR YAW COMMANDS WITH AND WITHOUT X-TRANSLATION AND AC QUAD FAILURES PRESENT
000176:                                                                                                  #  BITS 11, 12 CONTAIN THE NUMBER OF YAW JETS USED TO PERFORM THE YAW ROTATION
000177:
000178: 17,2762           51543        TABYCOM            INDEX    XNDX2
000179: 17,2763           32705                           CA       XLNNDX
000180: 17,2764           61550                 +2        AD       YINDEX
000181: 17,2765           50000                           INDEX    A
000182: 17,2766           32741                           CA       PYTABLE
000183: 17,2767           72761                           MASK     YJETS                                 #  = 6360 OCT
000184: 17,2770           55503                           TS       YWORD1
000185: 17,2771           00006                           EXTEND
000186: 17,2772           74775                           MP       BIT5
000187: 17,2773           55553                           TS       NYJETS                                #  NO. OF YAW JETS USED TO PERFORM ROTATION
000188:
000189:
000190:                                                                                                  #  ROLL COMMANDS  TIMING(NO Y,Z TRANS, NO QUAD FAILS)   45MCT
000191:
000192: 17,2774           11610        RWORD              CCS      TAU                                   #  CHECK FOR ROLL COMMANDS
000193: 17,2775           35001                           CAF      ONE
000194: 17,2776           13000                           TCF      +2
000195: 17,2777           35000                           CAF      TWO
000196: 17,3000           55546                           TS       RINDEX
000197:
000198: 17,3001           11661                           CCS      ACORBD                                #  FLAG FOR AC OR BD QUAD SELECTION FOR
000199: 17,3002           13073                           TCF      BDROLL                                #  ROLL COMMANDS
000200: 17,3003           13073                           TCF      BDROLL                                #  +, +0 = BD ROLL
000201: 17,3004           13005                           TCF      +1                                    #  -, -0 = AC ROLL
000202:
000203: 17,3005           11657        ACROLL             CCS      RACFAIL                               #  CHECK FOR REAL FAILURES
000204: 17,3006           13012                           TCF      RAFAIL                                #  ON AC QUADS
000205: 17,3007           13022                           TCF      RXLNS
000206: 17,3010           13014                           TCF      RCFAIL
000207: 17,3011           13022                           TCF      RXLNS
000208:
000209: 17,3012           34322        RAFAIL             CAF      NINE                                  #  QUAD FAILURE  WILL GET
000210: 17,3013           13024                           TCF      TABRCOM                               #  1-JET OPERATION
000211: 17,3014           35750        RCFAIL             CAF      TWELVE
000212: 17,3015           13024                           TCF      TABRCOM
000213:
000214: 17,3016           00000        XLN1NDX            DEC      0          B-14
000215: 17,3017           00001                           DEC      1          B-14                       #  INDECES FOR TRANSLATION
000216: 17,3020           00002                           DEC      2          B-14
000217: 17,3021           00000                           DEC      0          B-14
000218:
000219:                                                                                                  #  TABLE LOOK UP FOR AC-ROLL COMMANDS WITH AND WITHOUT Y-TRANSLATION AND ACQUAD FAILURES PRESENT
000220:                                                                                                  #  BITS 9,10,11 CONTAIN THE MAGNITUDE AND DIRECTION OF THE ROLL
000221:
000222: 17,3022           51544        RXLNS              INDEX    YNDX                                  #  NO AC QUAD FAILURES
000223: 17,3023           32705                           CA       XLNNDX                                #  INCLUDE +,-,0, Y-TRANSLATION
000224: 17,3024           61546        TABRCOM            AD       RINDEX
000225: 17,3025           50000                           INDEX    A
000226: 17,3026           33155                           CA       RTABLE
000227: 17,3027           73174                           MASK     ACRJETS                               #  = 3760 OCT
000228: 17,3030           55477                           TS       RWORD1
000229:
000230:                                                                                                  #  CHECK FOR Z-TRANSLATIONS ON BD
000231:
000232: 17,3031           31545        BDZCHECK           CA       ZNDX
000233: 17,3032           00006                           EXTEND
000234: 17,3033           63065                           BZMF     NOBDZ                                 #  NO Z-TRANSLATION
000235:
000236:                                                                                                  #  TABLE LOOK UP FOR BD Z-TRANSLATION WITH AND WITHOUT REAL BD QUAD FAILURES.  Z-TRANSLATION WILL BE POSS-
000237:                                                                                                  #  IBLE AS LONG AS ROLL COMMANDS CAN BE SATISFIED WITH THE AC ROLL JETS.  CRITERION.. IF THE RESULTANT NET ROLL
000238:                                                                                                  #  COMMANDS = 0 (WITH Z-TRANSLATION) AND IF TAU = 0, THEN INCLUDE THE BD Z-TRANSLATION COMMANDS. IF THE RESULTANT
000239:                                                                                                  #  ROLL COMMAND = 0, AND IF TAU NZ, THEN IGNORE THE BD Z-TRANSLATION
000240:
000241: 17,3034           11660                           CCS      RBDFAIL
000242: 17,3035           36214                           CAF      THREE
000243: 17,3036           13040                           TCF      +2
000244: 17,3037           36211                           CAF      SIX
000245: 17,3040           51545                           INDEX    ZNDX
000246: 17,3041           63016                           AD       XLN1NDX
000247: 17,3042           50000                           INDEX    A
000248: 17,3043           33176                           CA       YZTABLE
000249: 17,3044           73207                           MASK     BDZJETS                               #  = 3417 OCT
000250: 17,3045           61477                           AD       RWORD1                                #  ADD TO ROLL COMMANDS
000251: 17,3046           55531                           TS       T5TEMP                                #  IF POSSIBLE.  MUST CHECK TAU FIRST
000252:
000253: 17,3047           00006                           EXTEND
000254: 17,3050           74773                           MP       BIT7                                  #  DETERMINE THE NET ROLL COMMAND WITH
000255: 17,3051           66061                           AD       =-4                                   #  Z-TRANSLATION ADDED ON
000256: 17,3052           55551                           TS       NRJETS                                #  NET NO. OF +,- ROLL JETS ON
000257: 17,3053           00006                           EXTEND
000258: 17,3054           13060                           BZF      TAUCHECK
000259:
000260: 17,3055           31531        ACRBDZ             CA       T5TEMP                                #  Z-TRANSLATION ACCEPTED EVEN THO WE MAY
000261: 17,3056           55477                           TS       RWORD1                                #  HAVE INTRODUCED AN UNDESIREABLE ROLL
000262: 17,3057           13321                           TCF      ROLLTIME                              #  BRANCH TO JET ON-TIME CALCULATIONS
000263:
000264: 17,3060           11610        TAUCHECK           CCS      TAU
000265: 17,3061           13065                           TCF      NOBDZ
000266: 17,3062           13055                           TCF      ACRBDZ
000267: 17,3063           13065                           TCF      NOBDZ
000268: 17,3064           13055                           TCF      ACRBDZ
000269:
000270: 17,3065           31477        NOBDZ              CA       RWORD1                                #  Z-TRANSLATION NOT ACCEPTED
000271: 17,3066           00006                           EXTEND
000272: 17,3067           74773                           MP       BIT7
000273: 17,3070           67701                           AD       =-2
000274: 17,3071           55551                           TS       NRJETS
000275: 17,3072           13321                           TCF      ROLLTIME                              #  BRANCH TO JET ON-TIME CALCULATION
000276:
000277:                                                                                                  #  BD QUAD SELECTION FOR ROLL COMMANDS
000278:
000279: 17,3073           11660        BDROLL             CCS      RBDFAIL
000280: 17,3074           13100                           TCF      RBFAIL
000281: 17,3075           13104                           TCF      RZXLNS
000282: 17,3076           13102                           TCF      RDFAIL
000283: 17,3077           13104                           TCF      RZXLNS
000284: 17,3100           34322        RBFAIL             CAF      NINE
000285: 17,3101           13106                           TCF      TABRZCMD
000286: 17,3102           35750        RDFAIL             CAF      TWELVE
000287: 17,3103           13106                           TCF      TABRZCMD
000288:
000289: 17,3104           51545        RZXLNS             INDEX    ZNDX                                  #  NO BD FAILURES
000290: 17,3105           32705                           CA       XLNNDX                                #  +,-,0 Z-TRANSLATION PRESENT
000291: 17,3106           61546        TABRZCMD           AD       RINDEX
000292: 17,3107           50000                           INDEX    A
000293: 17,3110           33155                           CA       RTABLE
000294: 17,3111           73175                           MASK     BDRJETS                               #  = 34017 OCT
000295: 17,3112           55477                           TS       RWORD1
000296:
000297: 17,3113           31544        ACYCHECK           CA       YNDX                                  #  ANY Y-TRANSLATION
000298: 17,3114           00006                           EXTEND
000299: 17,3115           13147                           BZF      NOACY                                 #  NO Y-TRANSLATION
000300: 17,3116           11657                           CCS      RACFAIL
000301: 17,3117           36214                           CAF      THREE
000302: 17,3120           13122                           TCF      +2
000303: 17,3121           36211                           CAF      SIX
000304: 17,3122           51544                           INDEX    YNDX
000305: 17,3123           63016                           AD       XLN1NDX
000306: 17,3124           50000                           INDEX    A
000307: 17,3125           33176                           CA       YZTABLE
000308: 17,3126           73210                           MASK     ACYJETS                               #  = 34360 OCT
000309: 17,3127           61477                           AD       RWORD1
000310: 17,3130           55531                           TS       T5TEMP
000311: 17,3131           00006                           EXTEND                                         #  FOR EXPLANATION SEE CODING ON RTABLE
000312: 17,3132           74776                           MP       BIT4
000313: 17,3133           66061                           AD       =-4
000314: 17,3134           55551                           TS       NRJETS                                #  NO. OF NET ROLL JETS
000315: 17,3135           00006                           EXTEND
000316: 17,3136           13142                           BZF      TAUCHCK                               #  IF NRJETS = 0
000317:
000318: 17,3137           31531        BDRACZ             CA       T5TEMP                                #  Y-TRANSLATION ACCEPTED
000319: 17,3140           55477                           TS       RWORD1
000320: 17,3141           13321                           TCF      ROLLTIME                              #  BRANCH TO JET ON-TIME CALCULATIONS
000321:
000322: 17,3142           11610        TAUCHCK            CCS      TAU
000323: 17,3143           13147                           TCF      NOACY
000324: 17,3144           13137                           TCF      BDRACZ
000325: 17,3145           13147                           TCF      NOACY
000326: 17,3146           13137                           TCF      BDRACZ
000327:
000328: 17,3147           31477        NOACY              CA       RWORD1                                #  Y-TRANSLATION NOT ACCEPTED
000329: 17,3150           00006                           EXTEND
000330: 17,3151           74776                           MP       BIT4
000331: 17,3152           67701                           AD       =-2
000332: 17,3153           55551                           TS       NRJETS
000333: 17,3154           13321                           TCF      ROLLTIME
000334:
000335:
000336:                                                                                                  #                TABLE FOR ROLL, Y AND Z-TRANSLATION COMMANDS
000337:
000338:                                                                                                  #     EITHER AC OR BD ROLL MAY BE SELECTED. IF AC ROLL IS SELECTED, Y-TRANSLATIONS MAY BE SATISFIED SIMULTANEOUSLY
000339:                                                                                                  #  PROVIDED THAT THERE ARE NO AC QUAD FAILURES. IF THERE ARE AC FAILURES, Y-TRANSLATION COMMANDS WILL BE IGNORED,
000340:                                                                                                  #  IN WHICH CASE THE ASTRONAUT SHOULD SWITCH TO BD ROLL.
000341:                                                                                                  #     IF BDROLL IS SELECTED, Z-TRANSLATIONS MAY BE SATISFIED SIMULTANEOUSLY PROVIDED THAT THERE ARE NO BD QUAD
000342:                                                                                                  #  FAILURES. IF THERE ARE BD FAILURES, Z-TRANSLATION COMMANDS WILL BE IGNORED, IN WHICH CASE THE ASTRONAUT SHOULD
000343:                                                                                                  #  SWITCH TO AC ROLL.
000344:                                                                                                  #     NOTE THAT IF ONE QUAD FAILS (E.G. B FAILED), Z-TRANSLATION IS STILL POSSIBLE AND THAT THE UNDESIREABLE ROLL
000345:                                                                                                  #  INTRODUCED BY THIS TRANSLATION WILL BE COMPENSATED BY THE TWO AC ROLL JETS ACTUATED BY THE AUTOPILOT LOGIC.
000346:
000347:                                                                                                  #                WORD MAKE UP....RTABLE
000348:
000349:                                                                                                  #     TWO WORDS, CORRESPONDING TO AC OR BD ROLL SELECTION, HAVE BEEN COMBINED INTO ONE TABLE.  THE WORD CORRESPOND-
000350:                                                                                                  #  ING TO AC ROLL HAS THE FOLLOWING INTERPRETATION..
000351:                                                                                                  #     BITS 9,10,11 ARE CODED TO GIVE THE NET ROLL TORQUE FOR THE WORD SELECTED. THE CODING IS..
000352:
000353:                                                                                                  #                        BIT NO.  11 10 9        NO. OF ROLL JETS
000354:
000355:                                                                                                  #                                  0 0 0                 -2
000356:                                                                                                  #                                  0 0 1                 -1
000357:                                                                                                  #                                  0 1 0                  0
000358:                                                                                                  #                                  0 1 1                 +1
000359:                                                                                                  #                                  1 0 0                 +2
000360:
000361:
000362:                                                                                                  #     THIS WORD MAY THEN BE ADDED TO THE WORD SELECTED FROM THE YZ-TRANSLATION TABLE, WHICH HAS THE SAME TYPE OF
000363:                                                                                                  #  CODING AS ABOVE, AND THE NET ROLL DETERMINED BY SHIFTING THE RESULTANT WORD RIGHT 8 PLACES AND SUBTRACTING FOUR.
000364:
000365:                                                                                                  #     THE WORD CORRESPONDING TO BD ROLL HAS A SIMILIAR INTERPRETATION, EXCEPT THAT BITS 12, 13, 14 ARE CODED
000366:                                                                                                  #  (AS ABOVE) TO GIVE THE NET ROLL TORQUE.
000367:
000368:
000369:                                                                                                  #  ROLL   TRANS   QUADFAIL   BIAS
000370:
000371: 17,3155           11000        RTABLE             OCT      11000                                 #   0                         0
000372: 17,3156           22125                           OCT      22125                                 #   +                         0
000373: 17,3157           00252                           OCT      00252                                 #   -                         0
000374: 17,3160           11231                           OCT      11231                                 #   0     +Y(+Z)              3
000375: 17,3161           15421                           OCT      15421                                 #   +     +Y(+Z)              3
000376: 17,3162           04610                           OCT      04610                                 #   -     +Y(+Z)              3
000377: 17,3163           11146                           OCT      11146                                 #   0     -Y(-Z)              6
000378: 17,3164           15504                           OCT      15504                                 #   +     -Y(-Z)              6
000379: 17,3165           04442                           OCT      04442                                 #   -     -Y(-Z)              6
000380: 17,3166           11000                           OCT      11000                                 #   0               A(B)      9
000381: 17,3167           15504                           OCT      15504                                 #   +               A(B)      9
000382: 17,3170           04610                           OCT      04610                                 #   -               A(B)      9
000383: 17,3171           11000                           OCT      11000                                 #   0               C(D)     12
000384: 17,3172           15421                           OCT      15421                                 #   +               C(D)     12
000385: 17,3173           04442                           OCT      04442                                 #   -               C(D)     12
000386:
000387:                                                                                                  #                RTABLE MASKS -
000388:
000389: 17,3174           03760        ACRJETS            OCT      03760
000390: 17,3175           34017        BDRJETS            OCT      34017
000391:
000392:                                                                                                  #                Y, Z TRANSLATION TABLE
000393:
000394:                                                                                                  #      ONCE AC OR BD ROLL IS SELECTED THE QUAD PAIR WHICH IS NOT BEING USED TO SATISFY THE ROLL COMMANDS MAY BE
000395:                                                                                                  #  USED TO SATISFY THE REMAINING TRANSLATION COMMANDS.  HOWEVER, WE MUST MAKE SURE THAT ROLL COMMANDS ARE SATISFIED
000396:                                                                                                  #  WHEN THEY OCCUR.  THEREFORE, THE Y-Z TRANSLATIONS FROM THIS TABLE WILL BE IGNORED IF THE NET ROLL TORQUE OF THE
000397:                                                                                                  #  COMBINED WORD IS ZERO AND THE ROLL COMMANDS ARE NON-ZERO.  THIS SITUATION WOULD OCCUR, FOR EXAMPLE, IF WE EN-
000398:                                                                                                  #  COUNTER SIMULTANEOUS +R +Y -Z COMMANDS AND A QUAD D FAILURE WHILE USING AC FOR ROLL.
000399:                                                                                                  #     TO FACILITATE THE LOGIC, THE Y-Z TRANSLATION TABLE HAS BEEN CODED IN A MANNER SIMILIAR TO THE ROLL TABLE
000400:                                                                                                  #  ABOVE.
000401:                                                                                                  #     BITS 9,10,11 ARE CODED TO GIVE THE NET ROLL TORQUE INCURRED BY Z-TRANSLATIONS.  THE WORD SELECTED CAN THEN BE
000402:                                                                                                  #  ADDED TO THE AC-ROLL WORD AND THE RESULTANT ROLL TORQUE DETERMINED FROM THE COMBINED WORD.  SIMILIARLY BITS
000403:                                                                                                  #  12,13,14 ARE CODED TO GIVE THE NET ROLL TORQUE INCURRED BY Y-TRANSLATIONS WHEN BD-ROLL IS SELECTED.
000404:
000405:                                                                                                  #  TRANSLATION    QUADFAIL    BIAS
000406:
000407: 17,3176           11000        YZTABLE            OCT      11000                                 #       0                       0
000408: 17,3177           11231                           OCT      11231                                 #    +Z(+Y)                     0
000409: 17,3200           11146                           OCT      11146                                 #    -Z(-Y)                     0
000410: 17,3201           11000                           OCT      11000                                 #       0           B(A)        3
000411: 17,3202           04610                           OCT      04610                                 #    +Z(+Y)         B(A)        3
000412: 17,3203           15504                           OCT      15504                                 #    -Z(-Y)         B(A)        3
000413: 17,3204           11000                           OCT      11000                                 #       0           D(C)        6
000414: 17,3205           15421                           OCT      15421                                 #    +Z(+Y)         D(C)        6
000415: 17,3206           04442                           OCT      04442                                 #    -Z(-Y)         D(C)        6
000416:
000417:                                                                                                  #                YZ-TABLE MASKS-
000418:
000419: 17,3207           03417        BDZJETS            OCT      03417
000420: 17,3210           34360        ACYJETS            OCT      34360
000421:
000422:                                                                                                  #                ADDITIONAL CONSTANTS
000423:
000424: 17,3211     7701               =-2                =        NEG2
000425: 17,3211     6061               =-4                =        NEG4
000426:
000427:                                                                                                  #                CALCULATION OF JET ON-TIMES
000428:
000429:                                                                                                  #     THE ROTATION COMMANDS (TAU:S), WHICH WERE DETERMINED FROM THE JET SWITCHING LOGIC ON THE BASIS OF SINGLE JET
000430:                                                                                                  #  OPERATION, MUST NOW BE UPDATED BY THE ACTUAL NUMBER OF JETS TO BE USED IN SATISFYING THESE COMMANDS.  TAU MUST
000431:                                                                                                  #  ALSO BE DECREMENTED ACCORDING TO THE EXPECTED TORQUE GENERATED BY THE NEW COMMANDS ACTING OVER THE NEXT T5 INT-
000432:                                                                                                  #  ERVAL.
000433:                                                                                                  #     IN ORDER TO MAINTAIN ACCURATE KNOWLEDGE OF VEHICLE ANGULAR RATES, WE MUST ALSO PROVIDE EXPECTED FIRING TIMES
000434:                                                                                                  #  (DFT:S, ALSO IN TERMS OF 1-JET OPERATION) FOR THE RATE FILTER.
000435:                                                                                                  #     NOTE THAT TRANSLATIONS CAN PRODUCE ROTATIONS EVEN THOUGH NO ROTATIONS WERE CALLED FOR.  NEVERTHELESS, WE MUST
000436:                                                                                                  #  UPDATE DFT.
000437:                                                                                                  #     WHEN THE ROTATIONS HAVE FINISHED, WE MUST PROVIDE CHANNEL INFORMATION TO THE T6 PROGRAM TO CONTINUE ON WITH
000438:                                                                                                  #  THE TRANSLATIONS.  THIS WILL BE DONE IN THE NEXT SECTION.  HOWEVER, TO INSURE THAT JETS ARE NOT FIRED FOR LESS
000439:                                                                                                  #  THAN A MINIMUM IMPULSE (14MS), ALL JET CHANNEL COMMANDS WILL BE HELD FIXED FROM THE START OF THE T5 PROGRAM FOR
000440:                                                                                                  #  AT LEAST 14MS UNTIL THE INITIALIZATION OF NEW COMMANDS.  MOREOVER, A 14MS ON-TIME WILL BE ADDED TO ANY ROTATIONAL
000441:                                                                                                  #  COMMANDS GENERATED BY THE MANUAL CONTROLS OR THE JET SWITCHING LOGIC, AND ALL TRANSLATION COMMANDS WILL BE
000442:                                                                                                  #  ACTIVE FOR AT LEAST ONE CYCLE OF THE T5 PROGRAM (.1SEC)
000443:
000444:                                                                                                  #                PITCH JET ON-TIME CALCULATION
000445:
000446: 17,3211           11611        PITCHTIM           CCS      TAU1
000447: 17,3212           13221                           TCF      PTAUPOS
000448: 17,3213           13215                           TCF      +2
000449: 17,3214           13217                           TCF      PTAUNEG
000450: 17,3215           55577                           TS       DFT1                                  #  NO PITCH ROTATION
000451: 17,3216           13417                           TCF      PBYPASS                               #  COMMANDS
000452:
000453: 17,3217           41552        PTAUNEG            CS       NPJETS
000454: 17,3220           55552                           TS       NPJETS
000455: 17,3221           31611        PTAUPOS            CA       TAU1
000456: 17,3222           00006                           EXTEND
000457: 17,3223           51552                           INDEX    NPJETS
000458: 17,3224           73400                           MP       NJET
000459: 17,3225           55507                           TS       BLAST1
000460: 17,3226           63333                           AD       =-.1SEC
000461: 17,3227           00006                           EXTEND
000462: 17,3230           63241                           BZMF     AD14MSP
000463: 17,3231           51552                           INDEX    NPJETS
000464: 17,3232           33334                           CA       DFTMAX                                #  THE PITCH ON-TIME IS GREATER THAN .1 SEC
000465: 17,3233           55577                           TS       DFT1
000466: 17,3234           40000                           COM
000467: 17,3235           27611                           ADS      TAU1                                  #  UPDATE TAU1
000468: 17,3236           33335                           CAF      =+.1SEC                               #  LIMIT THE LENGTH OF PITCH ROTATION
000469: 17,3237           55507                           TS       BLAST1                                #  COMMANDS TO 0.1 SEC SO THAT ONLY
000470: 17,3240           13404                           TCF      ASMBLWP                               #  X-TRANSLATIONS WILL CONTINUE ON SWITCH
000471:                                                                                                  #  OVER TO TVC
000472: 17,3241           41507        AD14MSP            CS       BLAST1                                #  SEE IF JET ON TIME LESS THAN
000473: 17,3242           63340                           AD       =14MS                                 #  MINIMUM IMPULSE TIME
000474: 17,3243           00006                           EXTEND
000475: 17,3244           63247                           BZMF     PBLASTOK                              #  IF SO LIMIT MINIMUM ON TIME TO 14 MS
000476: 17,3245           33340                           CAF      =14MS
000477: 17,3246           55507                           TS       BLAST1
000478: 17,3247           31507        PBLASTOK           CA       BLAST1
000479: 17,3250           00006                           EXTEND                                         #  THE PITCH COMMANDS WILL BE COMPLETED
000480: 17,3251           71552                           MP       NPJETS                                #  WITHIN THE TS-CYCLE TIME
000481: 17,3252           23577                           LXCH     DFT1                                  #  FOR USE IN UPDATING RATE FILTER
000482: 17,3253           55611                           TS       TAU1                                  #  ZERO TAU1 (ACC CONTAINS ZERO)
000483: 17,3254           13404                           TCF      ASMBLWP
000484:
000485:                                                                                                  #                YAW JET ON-TIME CALCULATION
000486:
000487: 17,3255           11612        YAWTIME            CCS      TAU2
000488: 17,3256           13265                           TCF      YTAUPOS
000489: 17,3257           13261                           TCF      +2
000490: 17,3260           13263                           TCF      YTAUNEG
000491: 17,3261           55600                           TS       DFT2                                  #  NO YAW ROTATION COMMANDS
000492: 17,3262           13563                           TCF      YBYPASS
000493:
000494: 17,3263           41553        YTAUNEG            CS       NYJETS
000495: 17,3264           55553                           TS       NYJETS
000496: 17,3265           31612        YTAUPOS            CA       TAU2
000497: 17,3266           00006                           EXTEND
000498: 17,3267           51553                           INDEX    NYJETS
000499: 17,3270           73400                           MP       NJET
000500: 17,3271           55511                           TS       BLAST2
000501: 17,3272           63333                           AD       =-.1SEC
000502: 17,3273           00006                           EXTEND
000503: 17,3274           63305                           BZMF     AD14MSY
000504: 17,3275           51553                           INDEX    NYJETS
000505: 17,3276           33334                           CA       DFTMAX                                #  YAW COMMANDS WILL LAST LONGER THAN .1SEC
000506: 17,3277           55600                           TS       DFT2
000507: 17,3300           40000                           COM
000508: 17,3301           27612                           ADS      TAU2                                  #  DECREMENT TAU2
000509: 17,3302           33335                           CAF      =+.1SEC                               #  LIMIT THE LENGTH OF YAW ROTATION COMMAND
000510: 17,3303           55511                           TS       BLAST2                                #  TO 0.1 SEC SO THAT ONLY X-TRANSLATION
000511: 17,3304           13550                           TCF      ASMBLWY                               #  WILL CONTINUE ON SWITCH OVER TO TVC
000512:
000513: 17,3305           41511        AD14MSY            CS       BLAST2                                #  SEE IF JET ON-TIME LESS THAN
000514: 17,3306           63340                           AD       =14MS                                 #  MINIMUM IMPULSE TIME
000515: 17,3307           00006                           EXTEND
000516: 17,3310           63313                           BZMF     YBLASTOK                              #  IF SO, LIMIT MINIMUM ON-TIME TO 14 MS
000517: 17,3311           33340                           CAF      =14MS
000518: 17,3312           55511                           TS       BLAST2
000519: 17,3313           31511        YBLASTOK           CA       BLAST2                                #  YAW COMMANDS WILL BE COMPLETED WITHIN
000520: 17,3314           00006                           EXTEND                                         #  THE T5CYCLE TIME
000521: 17,3315           71553                           MP       NYJETS
000522: 17,3316           23600                           LXCH     DFT2
000523: 17,3317           55612                           TS       TAU2                                  #  ZERO TAU2
000524: 17,3320           13550                           TCF      ASMBLWY
000525:
000526:                                                                                                  #                ROLL ON-TIME CALCULATION-
000527:
000528: 17,3321           11610        ROLLTIME           CCS      TAU
000529: 17,3322           13341                           TCF      RBLAST
000530: 17,3323           13325                           TCF      +2
000531: 17,3324           13341                           TCF      RBLAST
000532: 17,3325           51551                           INDEX    NRJETS
000533: 17,3326           33334                           CA       DFTMAX                                #  UPDATE DFT EVEN THO NO ROLL COMMANDS ARE
000534: 17,3327           55576                           TS       DFT                                   #  PRESENT
000535: 17,3330           13543                           TCF      RBYPASS
000536:
000537: 17,3331           77037                           DEC      -480       B-14                       #  = -.3SEC
000538: 17,3332           77277                           DEC      -320       B-14                       #  = -.2SEC
000539: 17,3333           77537        =-.1SEC            DEC      -160       B-14                       #  = -.1SEC
000540: 17,3334           00000        DFTMAX             DEC      0          B-14                       #  0
000541: 17,3335           00240        =+.1SEC            DEC      160        B-14                       #  = +.1SEC
000542: 17,3336           00500                           DEC      320        B-14                       #  = +.2SEC
000543: 17,3337           00740                           DEC      480        B-14                       #  = +.3SEC
000544: 17,3340           00027        =14MS              DEC      23         B-14                       #  =14MS
000545:
000546: 17,3341           31610        RBLAST             CA       TAU
000547: 17,3342           00006                           EXTEND
000548: 17,3343           51551                           INDEX    NRJETS
000549: 17,3344           73400                           MP       NJET
000550: 17,3345           55505                           TS       BLAST                                 #  BLAST IS AN INTERMEDIATE VARIABLE
000551:                                                                                                  #  USED IN DETERMINING THE JET ON-TIMES
000552: 17,3346           63333                           AD       =-.1SEC
000553: 17,3347           00006                           EXTEND
000554: 17,3350           63361                           BZMF     AD14MSR
000555: 17,3351           51551                           INDEX    NRJETS                                #  THE ROLL ROTATION WILL LAST LONGER
000556: 17,3352           33334                           CA       DFTMAX                                #  THAN THE T5 CYCLE TIME
000557: 17,3353           55576                           TS       DFT
000558: 17,3354           40000                           COM
000559: 17,3355           27610                           ADS      TAU
000560: 17,3356           33335                           CAF      =+.1SEC                               #  LIMIT THE LENGTH OF ROLL ROTATION
000561: 17,3357           55505                           TS       BLAST                                 #  COMMANDS TO 0.1 SEC SO THAT ONLY Y-Z
000562: 17,3360           13424                           TCF      ASMBLWR                               #  TRANSLATION COMMANDS CONTINUE
000563:
000564: 17,3361           41505        AD14MSR            CS       BLAST                                 #  SEE IF THE JET ON-TIME LESS THAN
000565: 17,3362           63340                           AD       =14MS                                 #  MINIMUM IMPULSE TIME
000566: 17,3363           00006                           EXTEND
000567: 17,3364           63367                           BZMF     RBLASTOK
000568: 17,3365           33340                           CAF      =14MS                                 #  IF SO, LIMIT MINIMUM ON-TIME TO 14 MS
000569: 17,3366           55505                           TS       BLAST
000570: 17,3367           31505        RBLASTOK           CA       BLAST
000571: 17,3370           00006                           EXTEND
000572: 17,3371           71551                           MP       NRJETS
000573: 17,3372           23576                           LXCH     DFT
000574: 17,3373           55610                           TS       TAU                                   #  ZERO TAU
000575: 17,3374           13424                           TCF      ASMBLWR
000576:
000577: 17,3375           65252                           DEC      -.333333                              #  = -1/3
000578: 17,3376           57777                           DEC      -.500000                              #  = -1/2
000579: 17,3377           40000                           DEC      -.999999                              #  = -1 (NEGMAX)
000580: 17,3400           00000        NJET               DEC      0          B-14
000581: 17,3401           37777                           DEC      .999999                               #  = +1 (POSMAX)
000582: 17,3402           20000                           DEC      .500000                               #  = +1/2
000583: 17,3403           12525                           DEC      .333333                               #  = +1/3
000584:
000585:                                                                                                  #     WHEN THE ROTATION COMMANDS ARE COMPLETED, IT IS NECESSARY TO REPLACE THESE COMMANDS BY NEW COMMANDS WHICH
000586:                                                                                                  #  CONTINUE ON WITH THE TRANSLATIONS IF ANY ARE PRESENT.
000587:                                                                                                  #     IN THIS SECTION THESE NEW COMMANDS ARE GENERATED AND STORED FOR REPLACEMENT OF THE CHANNEL COMMANDS WHEN THE
000588:                                                                                                  #  CORRESPONDING ROTATIONS ARE COMPLETED.
000589:
000590:                                                                                                  #  GENERATION OF THE SECOND PITCH(X-TRANS) WORD...PWORD2
000591:
000592: 17,3404           11657        ASMBLWP            CCS      RACFAIL
000593: 17,3405           13413                           TCF      FPX2                                  #  IF FAILURE ON AC IGNORE X-TRANSLATION
000594: 17,3406           13410                           TCF      +2
000595: 17,3407           13413                           TCF      FPX2
000596: 17,3410           51542                           INDEX    XNDX1
000597: 17,3411           32705                           CA       XLNNDX
000598: 17,3412           50000                           INDEX    A
000599: 17,3413           32741        FPX2               CA       PYTABLE
000600: 17,3414           72760                           MASK     PJETS
000601: 17,3415           55502                           TS       PWORD2
000602: 17,3416           13255                           TCF      YAWTIME
000603:
000604: 17,3417           31501        PBYPASS            CA       PWORD1                                #  THE T6 PROGRAM WILL LOAD PWORD2
000605: 17,3420           55502                           TS       PWORD2                                #  UPON ENTRY
000606: 17,3421           35003                           CAF      ZERO
000607: 17,3422           55507                           TS       BLAST1                                #  THERE IS NO PWORD2
000608: 17,3423           13255                           TCF      YAWTIME
000609:
000610:                                                                                                  #  GENERATION OF THE SECOND ROLL (Y,Z) WORD (RWORD2)
000611:
000612: 17,3424           11544        ASMBLWR            CCS      YNDX                                  #  CHECK FOR Y-TRANS
000613: 17,3425           13435                           TCF      ACBD2Y
000614: 17,3426           35003        NO2Y               CAF      ZERO
000615: 17,3427           55500                 +1        TS       RWORD2
000616: 17,3430           11545                           CCS      ZNDX                                  #  CHECK FOR Z-TRANS
000617: 17,3431           13500                           TCF      ACBD2Z
000618: 17,3432           35003        NO2Z               CAF      ZERO
000619: 17,3433           27500                 +1        ADS      RWORD2
000620: 17,3434           13211                           TCF      PITCHTIM                              #  RWORD2 ASSEMBLED
000621:
000622: 17,3435           11661        ACBD2Y             CCS      ACORBD
000623: 17,3436           13453                           TCF      AC2Y                                  #  CAN DO Y-TRANS
000624: 17,3437           13453                           TCF      AC2Y
000625: 17,3440           13441                           TCF      +1                                    #  USING AC FOR ROLL
000626: 17,3441           11657                           CCS      RACFAIL
000627: 17,3442           13426                           TCF      NO2Y                                  #  USING AC AND AC HAS FAILED
000628: 17,3443           13445                           TCF      +2
000629: 17,3444           13426                           TCF      NO2Y                                  #  DITTO
000630:
000631: 17,3445           51544                           INDEX    YNDX                                  #  NO FAILURES, CAN DO Y
000632: 17,3446           32705                           CA       XLNNDX
000633: 17,3447           50000                           INDEX    A
000634: 17,3450           33155                           CA       RTABLE
000635: 17,3451           73174                           MASK     ACRJETS
000636: 17,3452           13427                           TCF      NO2Y       +1
000637:
000638: 17,3453           11657        AC2Y               CCS      RACFAIL
000639: 17,3454           36214                           CAF      THREE
000640: 17,3455           13457                           TCF      +2
000641: 17,3456           36211                           CAF      SIX
000642: 17,3457           51544                           INDEX    YNDX
000643: 17,3460           63016                           AD       XLN1NDX
000644: 17,3461           50000                           INDEX    A
000645: 17,3462           33176                           CA       YZTABLE
000646: 17,3463           73210                           MASK     ACYJETS
000647: 17,3464           55500                           TS       RWORD2
000648: 17,3465           00006                           EXTEND
000649: 17,3466           74776                           MP       BIT4
000650: 17,3467           67701                           AD       =-2
000651: 17,3470           55551                           TS       NRJETS
000652: 17,3471           41505                           CS       BLAST
000653: 17,3472           63335                           AD       =+.1SEC
000654: 17,3473           00006                           EXTEND
000655: 17,3474           71551                           MP       NRJETS
000656: 17,3475           30001                           CA       L
000657: 17,3476           27576                           ADS      DFT
000658: 17,3477           13430                           TCF      NO2Y       +2
000659: 17,3500           11661        ACBD2Z             CCS      ACORBD
000660: 17,3501           13531                           TCF      BDF2Z                                 #  USING BD-ROLL
000661: 17,3502           13531                           TCF      BDF2Z                                 #  MUST CHECK FOR BD FAILURES
000662: 17,3503           13504                           TCF      +1
000663: 17,3504           11660                           CCS      RBDFAIL                               #  USING AC FOR ROLL, CAN DO Z-TRANS
000664: 17,3505           36214                           CAF      THREE
000665: 17,3506           13510                           TCF      +2
000666: 17,3507           36211                           CAF      SIX
000667: 17,3510           51545                           INDEX    ZNDX
000668: 17,3511           63016                           AD       XLN1NDX
000669: 17,3512           50000                           INDEX    A
000670: 17,3513           33176                           CA       YZTABLE
000671: 17,3514           73207                           MASK     BDZJETS
000672: 17,3515           27500                           ADS      RWORD2
000673: 17,3516           00006                           EXTEND
000674: 17,3517           74773                           MP       BIT7
000675: 17,3520           67701                           AD       =-2
000676: 17,3521           55551                           TS       NRJETS
000677: 17,3522           41505                           CS       BLAST
000678: 17,3523           63335                           AD       =+.1SEC
000679: 17,3524           00006                           EXTEND
000680: 17,3525           71551                           MP       NRJETS
000681: 17,3526           30001                           CA       L
000682: 17,3527           27576                           ADS      DFT
000683: 17,3530           13211                           TCF      PITCHTIM
000684:
000685: 17,3531           11660        BDF2Z              CCS      RBDFAIL
000686: 17,3532           13432                           TCF      NO2Z                                  #  USING BD-ROLL AND BD HAS FAILED
000687: 17,3533           13535                           TCF      +2
000688: 17,3534           13432                           TCF      NO2Z                                  #  DITTO
000689: 17,3535           51545                           INDEX    ZNDX
000690: 17,3536           32705                           CA       XLNNDX
000691: 17,3537           50000                           INDEX    A
000692: 17,3540           33155                           CA       RTABLE
000693: 17,3541           73175                           MASK     BDRJETS
000694: 17,3542           13433                           TCF      NO2Z       +1
000695:
000696: 17,3543           31477        RBYPASS            CA       RWORD1
000697: 17,3544           55500                           TS       RWORD2
000698: 17,3545           35003                           CAF      ZERO
000699: 17,3546           55505                           TS       BLAST
000700: 17,3547           13211                           TCF      PITCHTIM
000701:
000702:                                                                                                  #                GENERATION OF THE SECOND YAW (X-TRANS) WORD...YWORD2
000703:
000704: 17,3550           11660        ASMBLWY            CCS      RBDFAIL
000705: 17,3551           13557                           TCF      FYX2                                  #  IF FAILURE ON BD IGNORE X-TRANSLATION
000706: 17,3552           13554                           TCF      +2
000707: 17,3553           13557                           TCF      FYX2
000708: 17,3554           51543                           INDEX    XNDX2
000709: 17,3555           32705                           CA       XLNNDX
000710: 17,3556           50000                           INDEX    A
000711: 17,3557           32741        FYX2               CA       PYTABLE
000712: 17,3560           72761                           MASK     YJETS
000713: 17,3561           55504                           TS       YWORD2
000714: 17,3562           13567                           TCF      T6SETUP
000715:
000716: 17,3563           31503        YBYPASS            CA       YWORD1
000717: 17,3564           55504                           TS       YWORD2
000718: 17,3565           35003                           CAF      ZERO
000719: 17,3566           55511                           TS       BLAST2
000720:
000721:                                                                                                  #                SORT THE JET ON-TIMES
000722:
000723:                                                                                                  #     AT THIS POINT ALL THE CHANNEL COMMANDS AND JET ON-TIMES HAVE BEEN DETERMINED. IN SUMMARY THESE ARE-
000724:
000725:                                                                                                  #                RWORD1
000726:                                                                                                  #                RWORD2          BLAST
000727:
000728:                                                                                                  #                PWORD1
000729:                                                                                                  #                PWORD2          BLAST1
000730:
000731:                                                                                                  #                YWORD1
000732:                                                                                                  #                YWORD2          BLAST2
000733:
000734:                                                                                                  #      IN THIS SECTION THE JET ON-TIMES ARE SORTED AND THE SEQUENCE OF T6 INTERRUPTS IS DETERMINED.  TO FACILITATE
000735:                                                                                                  #  THE SORTING PROCESS AND THE T6 PROGRAM, THE VARIABLES BLAST, BLAST1, BLAST2, ARE RESERVED AS DOUBLE PRECISION
000736:                                                                                                  #  WORDS.  THE LOWER PART OF THESE WORDS CONTAIN A BRANCH INDEX ASSOCIATED WITH THE ROTATION AXIS OF THE HIGHER
000737:                                                                                                  #  ORDER WORD.
000738:
000739: 17,3567           35003        T6SETUP            CAF      ZERO                                  #  BRANCH INDEX FOR ROLL
000740: 17,3570           55506                           TS       BLAST      +1
000741: 17,3571           34777                           CAF      FOUR                                  #  BRANCH INDEX FOR PITCH
000742: 17,3572           55510                           TS       BLAST1     +1
000743: 17,3573           35006                           CAF      ELEVEN                                #  BRANCH INDEX FOR YAW
000744: 17,3574           55512                           TS       BLAST2     +1
000745:
000746: 17,3575           41505                           CS       BLAST
000747: 17,3576           61507                           AD       BLAST1
000748: 17,3577           00006                           EXTEND
000749: 17,3600           63624                           BZMF     DXCHT12                               #  T1 GR T2
000750: 17,3601           41507        CHECKT23           CS       BLAST1
000751: 17,3602           61511                           AD       BLAST2
000752: 17,3603           00006                           EXTEND
000753: 17,3604           63630                           BZMF     DXCHT23
000754: 17,3605           41507        CALCDT6            CS       BLAST1
000755: 17,3606           27511                           ADS      BLAST2
000756: 17,3607           41505                           CS       BLAST
000757: 17,3610           27507                           ADS      BLAST1                                #  END OF SORTING PROCEDURE
000758: 17,3611           00006                           EXTEND                                         #  RESET T5LOC TO BEGIN PHASE1
000759: 17,3612           33623                           DCA      RCS2CADR
000760: 17,3613           52113                           DXCH     T5LOC
000761: 17,3614           45001        ENDJETS            CS       BIT1                                  #  RESET BIT1 FOR INITIALIZATION OF
000762: 17,3615           71530                           MASK     RCSFLAGS                              #  T6 PROGRAM
000763: 17,3616           55530                           TS       RCSFLAGS
000764: 17,3617           45003                           CS       ZERO                                  #  RESET T5PHASE FOR PHASE1
000765: 17,3620           55513                           TS       T5PHASE
000766: 17,3621           15336                           TCF      RESUME                                #  RESUME INTERRUPTED PROGRAM
000767:
000768: 17,3622  E6,1537                                  EBANK=   KMPAC
000769: 17,3622           02060 42066  RCS2CADR           2CADR    RCSATT
000770:
000771: 17,3624           53506        DXCHT12            DXCH     BLAST
000772: 17,3625           53510                           DXCH     BLAST1
000773: 17,3626           53506                           DXCH     BLAST
000774: 17,3627           13601                           TCF      CHECKT23
000775:
000776: 17,3630           53510        DXCHT23            DXCH     BLAST1
000777: 17,3631           53512                           DXCH     BLAST2
000778: 17,3632           53510                           DXCH     BLAST1
000779: 17,3633           41505                           CS       BLAST
000780: 17,3634           61507                           AD       BLAST1
000781: 17,3635           00006                           EXTEND
000782: 17,3636           63640                           BZMF     +2
000783: 17,3637           13605                           TCF      CALCDT6
000784: 17,3640           53506                           DXCH     BLAST
000785: 17,3641           53510                           DXCH     BLAST1
000786: 17,3642           53506                           DXCH     BLAST
000787: 17,3643           13605                           TCF      CALCDT6
000788:
000789:                                                                                                  #                T6 PROGRAM AND CHANNEL SETUP
000790:
000791: 17,2000                                           SETLOC   DAPS5
000792: 17,2000                                           BANK
000793:
000794: 17,3644                                           COUNT*   $$/T6RPT
000795: 17,3644           22016        T6START            LXCH     BANKRUPT
000796: 17,3645           00006                           EXTEND
000797: 17,3646           22012                           QXCH     QRUPT
000798: 17,3647           10031                           CCS      TIME6                                 #  CHECK TO SEE IF TIME6 WAS RESET
000799: 17,3650           15336                           TCF      RESUME                                #  AFTER T6RUPT OCCURED(IN T5RUPT)
000800: 17,3651           13653                           TCF      +2                                    #  IF SO WAIT FOR NEXT T6RUPT BEFORE
000801: 17,3652           15336                           TCF      RESUME                                #  TAKING ACTION
000802:
000803: 17,3653           51475                           INDEX    WHICHDAP
000804: 17,3654           13655                           TCF      +1
000805: 17,3655           13660                           TCF      +3
000806: 17,3656           04666                           TC       POSTJUMP
000807: 17,3657           27471                           CADR     DKT6
000808:
000809: 17,3660           41530                           CS       RCSFLAGS
000810: 17,3661           75001                           MASK     BIT1                                  #  IF BIT1 IS 0 RESET TO 1
000811: 17,3662           00006                           EXTEND                                         #  AND INITIALIZE CHANNEL
000812: 17,3663           13674                           BZF      T6RUPTOR
000813: 17,3664           27530                           ADS      RCSFLAGS
000814: 17,3665           31477                           CA       RWORD1
000815: 17,3666           00006                           EXTEND                                         #  INITIALIZE CHANNELS 5,6 WITH WORD1
000816: 17,3667           01006                           WRITE    CHAN6
000817: 17,3670           31501                           CA       PWORD1
000818: 17,3671           61503                           AD       YWORD1
000819: 17,3672           00006                           EXTEND
000820: 17,3673           01005                           WRITE    CHAN5
000821:
000822: 17,3674           11505        T6RUPTOR           CCS      BLAST
000823: 17,3675           13754                           TCF      ZBLAST                                #  ZERO BLAST1
000824: 17,3676           13713                           TCF      REPLACE                               #  REPLACE WORD1
000825: 17,3677           13701                           TCF      +2
000826: 17,3700           13713                           TCF      REPLACE
000827: 17,3701           11507        T6L1               CCS      BLAST1
000828: 17,3702           13757                           TCF      ZBLAST1
000829: 17,3703           13720                           TCF      REPLACE1
000830: 17,3704           13706                           TCF      +2
000831: 17,3705           13720                           TCF      REPLACE1
000832: 17,3706           11511        T6L2               CCS      BLAST2
000833: 17,3707           13762                           TCF      ZBLAST2
000834: 17,3710           13725                           TCF      REPLACE2
000835: 17,3711           15336                           TCF      RESUME
000836: 17,3712           13725                           TCF      REPLACE2
000837:
000838: 17,3713           51506        REPLACE            INDEX    BLAST      +1
000839: 17,3714           03732                           TC       REPLACER
000840: 17,3715           45001                           CS       ONE
000841: 17,3716           55505                           TS       BLAST
000842: 17,3717           13701                           TCF      T6L1
000843:
000844: 17,3720           51510        REPLACE1           INDEX    BLAST1     +1
000845: 17,3721           03732                           TC       REPLACER
000846: 17,3722           45001                           CS       ONE
000847: 17,3723           55507                           TS       BLAST1
000848: 17,3724           13706                           TCF      T6L2
000849:
000850: 17,3725           51512        REPLACE2           INDEX    BLAST2     +1
000851: 17,3726           03732                           TC       REPLACER
000852: 17,3727           45001                           CS       ONE
000853: 17,3730           55511                           TS       BLAST2
000854: 17,3731           15336                           TCF      RESUME
000855:
000856: 17,3732           31500        REPLACER           CA       RWORD2                                #  INITIALIZE CHANNELS 5,6 WITH WORD2
000857: 17,3733           00006                           EXTEND
000858: 17,3734           01006                           WRITE    CHAN6
000859: 17,3735           00002                           TC       Q
000860:
000861: 17,3736           32761        REPLACEP           CA       YJETS
000862: 17,3737           00006                           EXTEND
000863: 17,3740           02005                           RAND     CHAN5
000864: 17,3741           61502                           AD       PWORD2
000865: 17,3742           00006                           EXTEND
000866: 17,3743           01005                           WRITE    CHAN5
000867: 17,3744           00002                           TC       Q
000868:
000869: 17,3745           32760        REPLACEY           CA       PJETS
000870: 17,3746           00006                           EXTEND
000871: 17,3747           02005                           RAND     CHAN5
000872: 17,3750           61504                           AD       YWORD2
000873: 17,3751           00006                           EXTEND
000874: 17,3752           01005                           WRITE    CHAN5
000875: 17,3753           00002                           TC       Q
000876:
000877: 17,3754           35003        ZBLAST             CAF      ZERO
000878: 17,3755           57505                           XCH      BLAST
000879: 17,3756           13764                           TCF      ENABT6
000880: 17,3757           35003        ZBLAST1            CAF      ZERO
000881: 17,3760           57507                           XCH      BLAST1
000882: 17,3761           13764                           TCF      ENABT6
000883: 17,3762           35003        ZBLAST2            CAF      ZERO
000884: 17,3763           57511                           XCH      BLAST2
000885: 17,3764           54031        ENABT6             TS       TIME6
000886: 17,3765           04553                           TC       C13STALL
000887: 17,3766           34763                           CAF      NEGMAX
000888: 17,3767           00006                           EXTEND
000889: 17,3770           05013                           WOR      CHAN13                                #  ENABLE T6RUPT
000890: 17,3771           15336                           TCF      RESUME
000891:
000892:                                                                                                  #  END OF T6 INTERRUPT
000893:
000894: 17,3772                        ENDSLECT           EQUALS

End of include-file JET_SELECTION_LOGIC.agc.  Parent file is MAIN.agc


