
Source Code


000002:                                                                                                  ## Copyright:   Public domain.
000003:                                                                                                  ## Filename:    KALCMANU_STEERING.agc
000004:                                                                                                  ## Purpose:     A section of Skylark revision 048.
000005:                                                                                                  ##              It is part of the source code for the Apollo Guidance Computer (AGC)
000006:                                                                                                  ##              for Skylab-2, Skylab-3, Skylab-4, and ASTP. No original listings of
000007:                                                                                                  ##              this software are available; instead, this file was created via
000008:                                                                                                  ##              disassembly of dumps of the core rope modules actually flown on
000009:                                                                                                  ##              Skylab-2. Access to these modules was provided by the New Mexico
000010:                                                                                                  ##              Museum of Space History.
000011:                                                                                                  ## Assembler:   yaYUL
000012:                                                                                                  ## Contact:     Ron Burkey <info@sandroid.org>.
000013:                                                                                                  ## Website:     www.ibiblio.org/apollo/index.html
000014:                                                                                                  ## Mod history: 2023-09-04 MAS  Created from Artemis 072.
000015:                                                                                                  ##              2024-03-01 MAS  Updated for Skylark 48.
000016:
000017:
000018:                                                                                                  #  GENERATION OF STEERING COMMANDS FOR DIGITAL AUTOPILOT FREE FALL MANEUVERS
000019:
000020:                                                                                                  #  NEW COMMANDS WILL BE GENERATED EVERY ONE SECOND DURING THE MANEUVER
000021:
000022: 22,2000                                           SETLOC   KALCMON1
000023: 22,2000                                           BANK
000024:
000025: 22,3104  E6,1712                                  EBANK=   BCDU
000026:
000027: 22,3104                                           COUNT*   $$/KALC
000028: 22,3104           35000        NEWDELHI           CAF      R67BIT
000029: 22,3105           70104                           MASK     FLAGWRD8
000030: 22,3106           00006                           EXTEND
000031: 22,3107           13114                           BZF      NEWANGL    -3                         #  NON-R67 SEQUENCE
000032:
000033: 22,3110           34775                           CAF      TRACKBIT
000034: 22,3111           70075                           MASK     FLAGWRD1
000035: 22,3112           00006                           EXTEND                                         #  CHECK TRACKFLAG
000036: 22,3113           13226                           BZF      MYSTEND                               #  IF OFF DO MYSTEND
000037:
000038: 22,3114           41330                 -3        CS       HOLDFLAG
000039: 22,3115           00006                           EXTEND                                         #  CHECK HOLDFLAG
000040: 22,3116           62720                           BZMF     NOGOM2                                #  IF POS, DO STOPRATE
000041:
000042: 22,3117           06006        NEWANGL            TC       INTPRET
000043: 22,3120           75160                 +1        AXC,1    AXC,2
000044: 22,3121           02271                                    MIS                                   #  COMPUTE THE NEW MATRIX FROM S/C TO
000045: 22,3122           03425                                    DEL                                   #  STABLE MEMBER AXES
000046: 22,3123           77624                           CALL
000047: 22,3124           44304                                    MXM3
000048: 22,3125           45575                           VLOAD    STADR
000049: 22,3126           51471                           STOVL    MIS        +12D                       #  CALCULATE NEW DESIRED CDU ANGLES
000050: 22,3127           77626                           STADR
000051: 22,3130           51477                           STOVL    MIS        +6D
000052: 22,3131           77626                           STADR
000053: 22,3132           75505                           STORE    MIS
000054: 22,3133           45160                           AXC,1    CALL
000055: 22,3134           02271                                    MIS
000056: 22,3135           44647                                    DCMTOCDU                              #  PICK UP THE NEW CDU ANGLES FROM MATRIX
000057: 22,3136           77634                           RTB
000058: 22,3137           45625                                    V1STO2S
000059: 22,3140           03320        NWNGL17D           STORE    NCDU                                  #  NEW CDU ANGLES (TAG IS USED BY EDIT)
000060: 22,3141           77414                           BONCLR   EXIT
000061: 22,3142           01215                                    CALCMAN2
000062: 22,3143           40064                                    MANUSTAT                              #  TO START MANEUVER
000063: 22,3144           35000                 -1        CAF      TWO                                   #           +0 OTHERWISE
000064: 22,3145           55715        INCRDCDU           TS       KSPNDX
000065: 22,3146           60000                           DOUBLE
000066: 22,3147           55716                           TS       KDPNDX
000067: 22,3150           51715                           INDEX    KSPNDX
000068: 22,3151           31717                           CA       NCDU                                  #  NEW DESIRED CDU ANGLES
000069: 22,3152           00006                           EXTEND
000070: 22,3153           51715                           INDEX    KSPNDX
000071: 22,3154           21712                           MSU      BCDU                                  #  INITIAL S/C ANGLE OR PREVIOUS DESIRED
000072: 22,3155           00006                           EXTEND                                         #  CDU ANGLES
000073: 22,3156           73056                           MP       QUADROT
000074: 22,3157           51716                           INDEX    KDPNDX
000075: 22,3160           53627                           DXCH     DELCDUX                               #  ANGLE INCREMENTS TO BE ADDED TO
000076: 22,3161           51715                           INDEX    KSPNDX                                #  DCDU EVERY TENTH SEC
000077: 22,3162           31717                           CA       NCDU                                  #  BY LEM DAP
000078: 22,3163           51715                           INDEX    KSPNDX
000079: 22,3164           57712                           XCH      BCDU
000080: 22,3165           51716                           INDEX    KDPNDX
000081: 22,3166           55677                           TS       CDUXD
000082: 22,3167           11715                           CCS      KSPNDX
000083: 22,3170           13145                           TCF      INCRDCDU                              #  LOOP FOR THREE AXES
000084:
000085: 22,3171           00003                           RELINT
000086:
000087:                                                                                                  #  COMPARE PRESENT TIME WITH TIME TO TERMINATE MANEUVER
000088:
000089: 22,3172           03202        TMANUCHK           TC       TIMECHK
000090: 22,3173           04666                           TC       POSTJUMP
000091: 22,3174           40151                           CADR     CONTMANU
000092:
000093: 22,3175           35001                           CAF      ONE
000094: 22,3176           05246        MANUSTAL           TC       WAITLIST
000095: 22,3177  E6,1712                                  EBANK=   BCDU
000096: 22,3177           02257 20066                     2CADR    MANUSTOP
000097:
000098: 22,3201           15220                           TCF      ENDOFJOB
000099:
000100:
000101: 22,3202           00006        TIMECHK            EXTEND
000102: 22,3203           40025                           DCS      TIME2
000103: 22,3204           53724                           DXCH     TTEMP
000104: 22,3205           00006                           EXTEND
000105: 22,3206           31750                           DCA      TM
000106: 22,3207           21724                           DAS      TTEMP
000107: 22,3210           11723                           CCS      TTEMP
000108: 22,3211           00002                           TC       Q
000109: 22,3212           13214                           TCF      +2
000110: 22,3213           13224                           TCF      2NDRETRN
000111: 22,3214           11724                           CCS      TTEMP      +1
000112: 22,3215           00002                           TC       Q
000113: 22,3216           13220                           TCF      MANUOFF
000114: 22,3217           40000                           COM
000115: 22,3220           65030        MANUOFF            AD       1SEC
000116: 22,3221           00006                           EXTEND
000117: 22,3222           63224                           BZMF     2NDRETRN
000118: 22,3223           24002                           INCR     Q
000119: 22,3224           24002        2NDRETRN           INCR     Q
000120: 22,3225           16706                           TCF      Q+1
000121: 22,3226           04666        MYSTEND            TC       POSTJUMP
000122: 22,3227           74662                           CADR     FIXDB
000123:
000124: 20,2000                                           SETLOC   MANUSTUF
000125: 20,2000                                           BANK
000126:
000127: 20,2064                                           COUNT*   $$/KALC
000128: 20,2064           77776        MANUSTAT           EXIT                                           #  INITIALIZATION ROUTINE FOR AUTO
000129: 20,2065           35000                           CAF      R67BIT                                #                      MANEUVERS
000130: 20,2066           70104                           MASK     FLAGWRD8
000131: 20,2067           00006                           EXTEND
000132: 20,2070           12075                           BZF      +5
000133: 20,2071           00006                           EXTEND                                         #  R67 RUNNING
000134: 20,2072           34761                           DCA      DPOSMAX
000135: 20,2073           53750                           DXCH     TM
000136: 20,2074           12104                           TCF      TMDON
000137: 20,2075           00006                           EXTEND                                         #  NON-R67 PROGRAM
000138: 20,2076           30025                           DCA      TIME2
000139: 20,2077           21750                           DAS      TM                                    #  TM+T0    MANEUVER COMPLETION TIME
000140: 20,2100           45030                           CS       1SEC
000141: 20,2101           54001                           TS       L
000142: 20,2102           45003                           CS       ZERO
000143: 20,2103           21750                           DAS      TM                                    #  (TM+T0)-1
000144: 20,2104           00004        TMDON              INHINT
000145: 20,2105           45001                           CS       ONE                                   #  ENABLE AUTOPILOT TO PERFORM
000146: 20,2106           55330                           TS       HOLDFLAG                              #  AUTOMATIC MANEUVERS
000147: 20,2107           51475                           INDEX    WHICHDAP
000148: 20,2110           12111                           TCF      +1
000149: 20,2111           12115                           TCF      +4
000150: 20,2112           44353                           CS       OCT25
000151: 20,2113           55663                           TS       CH31TEMP
000152: 20,2114           12125                           TCF      HIGHGAIN   +3
000153: 20,2115           40767                           CS       RATEINDX                              #  SEE IF MANEUVERING AT HIGH RATE
000154: 20,2116           66211                           AD       SIX
000155: 20,2117           00006                           EXTEND
000156: 20,2120           62122                           BZMF     HIGHGAIN
000157: 20,2121           12125                           TCF      +4
000158: 20,2122           41530        HIGHGAIN           CS       RCSFLAGS                              #  IF SO, SET HIGH RATE FLAG (BIT 15 OF
000159: 20,2123           74763                           MASK     BIT15                                 #  RCSFLAGS)
000160: 20,2124           27530                           ADS      RCSFLAGS
000161: 20,2125           00006                           EXTEND
000162: 20,2126           31742                           DCA      BRATE                                 #  X-AXIS MANEUVER RATE
000163: 20,2127           53555                           DXCH     WBODY
000164: 20,2130           00006                           EXTEND
000165: 20,2131           31744                           DCA      BRATE      +2                         #  Y-AXIS MANEUVER RATE
000166: 20,2132           53557                           DXCH     WBODY1
000167: 20,2133           00006                           EXTEND
000168: 20,2134           31746                           DCA      BRATE      +4                         #  Z-AXIS MANEUVER RATE
000169: 20,2135           53561                           DXCH     WBODY2
000170: 20,2136           31726                           CA       BIASTEMP   +1                         #  INSERT ATTITUDE ERROR BIASES
000171: 20,2137           55615                           TS       BIAS                                  #  INTO AUTOPILOT
000172: 20,2140           31730                           CA       BIASTEMP   +3
000173: 20,2141           55616                           TS       BIAS1
000174: 20,2142           31732                           CA       BIASTEMP   +5
000175: 20,2143           55617                           TS       BIAS2
000176: 20,2144           30025                           CA       TIME1
000177: 20,2145           65030                           AD       1SEC
000178: 20,2146           57722                           XCH      NEXTIME
000179: 20,2147           04666                           TC       POSTJUMP
000180: 20,2150           45144                           CADR     INCRDCDU   -1
000181:
000182: 20,2151           00004        CONTMANU           INHINT                                         #  CONTINUE WITH UPDATE PROCESS
000183: 20,2152           40025                           CS       TIME1
000184: 20,2153           61722                           AD       NEXTIME
000185: 20,2154           10000                           CCS      A
000186: 20,2155           65001                           AD       ONE
000187: 20,2156           12161                           TCF      MANUCALL
000188: 20,2157           64763                           AD       NEGMAX
000189: 20,2160           40000                           COM
000190: 20,2161           05236        MANUCALL           TC       TWIDDLE
000191: 20,2162           02167                           ADRES    UPDTCALL
000192: 20,2163           00003                           RELINT
000193: 20,2164           35030                           CAF      1SEC                                  #  INCREMENT TIME FOR NEXT UPDATE
000194: 20,2165           27722                           ADS      NEXTIME
000195: 20,2166           15220                           TCF      ENDOFJOB
000196:
000197: 20,2167           35000        UPDTCALL           CAF      R67BIT
000198: 20,2170           70104                           MASK     FLAGWRD8
000199: 20,2171           00006                           EXTEND
000200: 20,2172           12177                           BZF      +5
000201:
000202: 20,2173           11776                           CCS      R61CNTR
000203: 20,2174           12176                           TCF      +2
000204: 20,2175           12204                           TCF      DOREMIS
000205: 20,2176           55776                           TS       R61CNTR
000206:
000207: 20,2177           37650                           CAF      PRIO26
000208: 20,2200           05150                           TC       FINDVAC                               #  OF STEERING COMMANDS
000209: 20,2201  E6,1712                                  EBANK=   BCDU
000210: 20,2201           03104 44066                     2CADR    NEWDELHI
000211:
000212: 20,2203           05327                           TC       TASKOVER
000213:
000214: 20,2204           37650        DOREMIS            CAF      PRIO26
000215: 20,2205           05150                           TC       FINDVAC
000216: 20,2206  E6,1712                                  EBANK=   BCDU
000217: 20,2206           02640 74066                     2CADR    R67RSTRT                              #  MAKE SURE MIS DOES DEGRADE
000218:
000219: 20,2210           05327                           TC       TASKOVER
000220:
000221:                                                                                                  #  ROUTINE FOR TERMINATING AUTOMATIC MANEUVERS
000222:
000223: 10,2000                                           SETLOC   KALCMON3
000224: 10,2000                                           BANK
000225:
000226: 10,2257                                           COUNT*   $$/KALC
000227: 10,2257           04513        MANUSTOP           TC       STOPYZ
000228: 10,2260           04725                           TC       IBNKCALL
000229: 10,2261           45232                           CADR     LOADYZ
000230:
000231: 10,2262           31277        ENDROLL            CA       CPHI
000232: 10,2263           55677                           TS       CDUXD                                 #  SET CDUXD TO THE COMMANDED OUTER GIMBAL
000233: 10,2264           04463                           TC       STOPRATE
000234: 10,2265           35065        ENDMANU            CAF      PRIO14
000235: 10,2266           05150                           TC       FINDVAC
000236: 10,2267  E6,1776                                  EBANK=   R61CNTR
000237: 10,2267           02045 56066                     2CADR    ENDMANUV
000238:
000239: 10,2271           05327                           TC       TASKOVER
000240:
000241:    4000                                           SETLOC   STOPRAT
000242:    4000                                           BANK
000243:    4463                                           COUNT*   $$/KALC
000244:    4463           35003        STOPRATE           CAF      ZERO
000245:    4464           55626                           TS       DELCDUX
000246:    4465           55627                           TS       DELCDUX    +1                         #  ZERO ROLL INCREMENTAL ANGLES
000247:    4466           55554                           TS       WBODY                                 #  RATE
000248:    4467           55555                           TS       WBODY      +1
000249:    4470           55615                           TS       BIAS                                  #  BIAS
000250:
000251:    4471           44763                           CS       BIT15                                 #  MAKE SURE HIGH RATE FLAG (BIT 15 OF
000252:    4472           71530                           MASK     RCSFLAGS                              #  RCSFLAGS) IS RESET.
000253:    4473           55530                           TS       RCSFLAGS
000254:
000255:    4474           11330                           CCS      HOLDFLAG
000256:    4475           14513                           TCF      STOPYZ
000257:    4476           14513                           TCF      STOPYZ
000258:    4477           55330                           TS       HOLDFLAG
000259:    4500           31677                           CA       CDUXD
000260:    4501           55623                           TS       THETADX
000261:    4502           31701                           CA       CDUYD
000262:    4503           55624                           TS       THETADY
000263:    4504           31703                           CA       CDUZD
000264:    4505           55625                           TS       THETADZ
000265:    4506           51475                           INDEX    WHICHDAP
000266:    4507           14510                           TCF      +1
000267:    4510           14513                           TCF      STOPYZ
000268:    4511           44353                           CS       OCT25
000269:    4512           55663                           TS       CH31TEMP
000270:
000271:    4513           35003        STOPYZ             CAF      ZERO
000272:    4514           55630                           TS       DELCDUY                               #  ZERO PITCH, YAW
000273:    4515           55631                           TS       DELCDUY    +1                         #  INCREMENTAL ANGLES
000274:    4516           55632                           TS       DELCDUZ
000275:    4517           55633                           TS       DELCDUZ    +1
000276:    4520           55556                           TS       WBODY1                                #  RATES
000277:    4521           55557                           TS       WBODY1     +1
000278:    4522           55560                           TS       WBODY2
000279:    4523           55561                           TS       WBODY2     +1
000280:    4524           55616                           TS       BIAS1                                 #  BIASES
000281:    4525           55617                           TS       BIAS2
000282:    4526           00002                           TC       Q
000283:
000284: 20,2000                                           SETLOC   MANUSTUF
000285: 20,2000                                           BANK
000286:
000287: 20,2211                                           COUNT*   $$/KALC
000288: 20,2211           30032        ZEROEROR           CA       CDUX                                  #  PICK UP CDU ANGLES AND STORE IN
000289: 20,2212           55677                           TS       CDUXD                                 #  CDU DESIRED
000290: 20,2213           30033                           CA       CDUY
000291: 20,2214           55701                           TS       CDUYD
000292: 20,2215           30034                           CA       CDUZ
000293: 20,2216           55703                           TS       CDUZD
000294: 20,2217           00002                           TC       Q
000295:
000296: 22,2000                                           SETLOC   KALCMON1
000297: 22,2000                                           BANK
000298:
000299: 22,3230                                           COUNT*   $$/KALC
000300: 22,3230           31277        LOADCDUD           CA       CPHI                                  #  STORE TERMINAL ANGLES INTO
000301: 22,3231           55677                           TS       CDUXD                                 #  COMMAND ANGLES
000302: 22,3232           31300        LOADYZ             CA       CTHETA
000303: 22,3233           55701                           TS       CDUYD
000304: 22,3234           31301                           CA       CPSI
000305: 22,3235           55703                           TS       CDUZD
000306: 22,3236           00002                           TC       Q

End of include-file KALCMANU_STEERING.agc.  Parent file is MAIN.agc


