
Source Code


000002:                                                                                                  ## Copyright:   Public domain.
000003:                                                                                                  ## Filename:    KEYRUPT,_UPRUPT.agc
000004:                                                                                                  ## Purpose:     A section of Skylark revision 048.
000005:                                                                                                  ##              It is part of the source code for the Apollo Guidance Computer (AGC)
000006:                                                                                                  ##              for Skylab-2, Skylab-3, Skylab-4, and ASTP. No original listings of
000007:                                                                                                  ##              this software are available; instead, this file was created via
000008:                                                                                                  ##              disassembly of dumps of the core rope modules actually flown on
000009:                                                                                                  ##              Skylab-2. Access to these modules was provided by the New Mexico
000010:                                                                                                  ##              Museum of Space History.
000011:                                                                                                  ## Assembler:   yaYUL
000012:                                                                                                  ## Contact:     Ron Burkey <info@sandroid.org>.
000013:                                                                                                  ## Website:     www.ibiblio.org/apollo/index.html
000014:                                                                                                  ## Mod history: 2023-09-04 MAS  Created from Artemis 072.
000015:
000016:
000017: 07,2000                                           SETLOC   KEYRUPT
000018: 07,2000                                           BANK
000019: 07,3617                                           COUNT*   $$/KEYUP
000020:
000021: 07,3617           54016        KEYRUPT1           TS       BANKRUPT
000022: 07,3620           56002                           XCH      Q
000023: 07,3621           54012                           TS       QRUPT
000024: 07,3622           04366                           TC       LODSAMPT                              #  TIME IS SNATCHED IN RUPT FOR NOUN 65.
000025: 07,3623           34342                           CAF      LOW5
000026: 07,3624           00006                           EXTEND
000027: 07,3625           02015                           RAND     MNKEYIN                               #  CHECK IF KEYS 5M-1M ON
000028: 07,3626           54073        KEYCOM             TS       RUPTREG4
000029: 07,3627           40101                           CS       FLAGWRD5
000030: 07,3630           74763                           MASK     DSKYBIT
000031: 07,3631           26101                           ADS      FLAGWRD5
000032:
000033: 07,3632           05133        ACCEPTUP           TC       NOVAC30                               #  (NOTE: RUPTREG4 = KEYTEMP1)
000034: 07,3633     1172                                  EBANK=   DSPCOUNT
000035: 07,3633           02000 60102                     2CADR    CHARIN
000036:
000037: 07,3635           30073                           CA       RUPTREG4
000038: 07,3636           50064                           INDEX    LOCCTR
000039: 07,3637           54154                           TS       MPAC                                  #  LEAVE 5 BIT KEY CDE IN MPAC FOR CHARIN
000040: 07,3640           05336                           TC       RESUME
000041:
000042:
000043:                                                                                                  #  UPRUPT PROGRAM
000044:
000045: 07,3641           54016        UPRUPT             TS       BANKRUPT
000046: 07,3642           56002                           XCH      Q
000047: 07,3643           54012                           TS       QRUPT
000048: 07,3644           04366                           TC       LODSAMPT                              #  TIME IS SNATCHED IN RUPT FOR NOUN 65.
000049: 07,3645           35003                           CAF      ZERO
000050: 07,3646           56045                           XCH      INLINK
000051: 07,3647           54073                           TS       KEYTEMP1
000052: 07,3650           30075                           CA       FLAGWRD1
000053: 07,3651           74766                           MASK     NOP01BIT                              #  IF = , MISSION IS IN
000054: 07,3652           10000                           CCS      A                                     #  PRELAUNCH AND UPLINK DATA SUM IS ENABLED
000055: 07,3653           13657                           TCF      +4                                    #  IF FLAGWORD1 BIT 12 =1, IT IS NOT
000056: 07,3654           30073                           CA       KEYTEMP1                              #  ALLOWED.
000057: 07,3655           27110                           ADS      UPSUM
000058: 07,3656           25111                           INCR     UPSUM      +1
000059: 07,3657           34777                           CAF      BIT3                                  #  TURN ON UPACT LIGHT
000060: 07,3660           00006                           EXTEND                                         #  (BIT 3 OF CHANNEL 11)
000061: 07,3661           05011                           WOR      DSALMOUT
000062: 07,3662           34342        UPRPT1             CAF      LOW5                                  #  TEST FOR TRIPLE CHAR REDUNDANCY
000063: 07,3663           70073                           MASK     KEYTEMP1                              #  LOW5 OF WORD
000064: 07,3664           56073                           XCH      KEYTEMP1                              #  LOW5 INTO KEYTEMP1
000065: 07,3665           00006                           EXTEND
000066: 07,3666           74770                           MP       BIT10                                 #  SHIFT RIGHT 5
000067: 07,3667           55127                           TS       KEYTEMP2
000068: 07,3670           74342                           MASK     LOW5                                  #  MID 5
000069: 07,3671           63725                           AD       HI10
000070: 07,3672           03722                           TC       UPTEST
000071: 07,3673           34770                           CAF      BIT10
000072: 07,3674           00006                           EXTEND
000073: 07,3675           71127                           MP       KEYTEMP2                              #  SHIFT RIGHT 5
000074: 07,3676           74342                           MASK     LOW5                                  #  HIGH 5
000075: 07,3677           40000                           COM
000076: 07,3700           03722                           TC       UPTEST
000077:
000078: 07,3701           45011        UPOK               CS       ELRCODE                               #  CODE IS GOOD. IF CODE = 'ERROR RESET',
000079: 07,3702           60073                           AD       KEYTEMP1                              #  CLEAR UPLOCKFL (SET BIT4 OF FLAGWRD7 = 0)
000080: 07,3703           00006                           EXTEND                                         #  IF CODE DOES NOT = 'ERROR RESET', ACCEPT
000081: 07,3704           13712                           BZF      CLUPLOCK                              #  CODE ONLY IF UPLOCKFL IS CLEAR (=0).
000082:
000083: 07,3705           34776                           CAF      UPLOCBIT                              #  TEST UPLOCKFL FOR 0 OR 1
000084: 07,3706           70103                           MASK     FLAGWRD7
000085: 07,3707           10000                           CCS      A
000086: 07,3710           05336                           TC       RESUME                                #  UPLOCKFL = 1
000087: 07,3711           03632                           TC       ACCEPTUP                              #  UPLOCKFL = 0
000088:
000089: 07,3712           44776        CLUPLOCK           CS       UPLOCBIT                              #  CLEAR UPLOCKFL (I.E., SET BIT 4 OF
000090: 07,3713           70103                           MASK     FLAGWRD7                              #  FLAGWRD7 = 0)
000091: 07,3714           54103                           TS       FLAGWRD7
000092: 07,3715           03632                           TC       ACCEPTUP
000093:                                                                                                  #  CODE IS BAD
000094: 07,3716           40103        TMFAIL2            CS       FLAGWRD7                              #  LOCK OUT FURTHER UPLINK ACTIVITY
000095: 07,3717           74776                           MASK     UPLOCBIT                              #  (BY SETTING UPLOCKFL = 1) UNTIL
000096: 07,3720           26103                           ADS      FLAGWRD7                              #  'ERROR RESET' IS SENT VIA UPLINK.
000097: 07,3721           05336                           TC       RESUME
000098: 07,3722           60073        UPTEST             AD       KEYTEMP1
000099: 07,3723           10000                           CCS      A
000100: 07,3724           03716                           TC       TMFAIL2
000101: 07,3725           77740        HI10               OCT      77740
000102: 07,3726           03716                           TC       TMFAIL2
000103: 07,3727           00002                           TC       Q
000104:
000105: 07,3730     5011               ELRCODE            EQUALS   OCT22
000106:
000107:                                                                                                  #  'UPLINK ACTIVITY LIGHT' IS TURNED OFF BY .....
000108:                                                                                                  #        1.      VBRELDSP
000109:                                                                                                  #        2.      ERROR RESET
000110:                                                                                                  #        3.      UPDATE PROGRAM (P27) ENTERED BY V70,V71,V72, AND V73.
000111:
000112:                                                                                                  #                                      -
000113:                                                                                                  #  THE RECEPTION OF A BAD CODE (I.E   CCC FAILURE) LOCKS OUT FURTHER UPLINK ACTIVITY BY SETTING BIT4 OF FLAGWRD7 = 1.
000114:                                                                                                  #  THIS INDICATION WILL BE TRANSFERRED TO THE GROUND BY THE DOWNLINK WHICH DOWNLINKS ALL FLAGWORDS.
000115:                                                                                                  #  WHEN UPLINK ACTIVITY IS LOCKED OUT, IT CAN BE ALLOWED WHEN THE GROUND UPLINKS AND 'ERROR RESET' CODE.
000116:                                                                                                  #  (IT IS RECOMMENDED THAT THE 'ERROR LIGHT RESET' CODE IS PRECEEDED BY 16 BITS THE FIRST OF WHICH IS 1 FOLLOWED
000117:                                                                                                  #  BY 15 ZEROES. THIS WILL ELIMINATE EXTRANEOUS BITS FROM INLINK WHICH MAY HAVE BEEN LEFT OVER FROM THE ORIGINAL
000118:                                                                                                  #  FAILURE)
000119:
000120:                                                                                                  #  UPLINK ACTIVITY IS ALSO ALLOWED (UNLOCKED) DURING FRESH START WHEN FRESH START SETS BIT4 OF FLAGWRD7 = 0.

End of include-file KEYRUPT,_UPRUPT.agc.  Parent file is MAIN.agc


