
Source Code


000002:                                                                                                  ## Copyright:   Public domain.
000003:                                                                                                  ## Filename:    LATITUDE_LONGITUDE_SUBROUTINES.agc
000004:                                                                                                  ## Purpose:     A section of Skylark revision 048.
000005:                                                                                                  ##              It is part of the source code for the Apollo Guidance Computer (AGC)
000006:                                                                                                  ##              for Skylab-2, Skylab-3, Skylab-4, and ASTP. No original listings of
000007:                                                                                                  ##              this software are available; instead, this file was created via
000008:                                                                                                  ##              disassembly of dumps of the core rope modules actually flown on
000009:                                                                                                  ##              Skylab-2. Access to these modules was provided by the New Mexico
000010:                                                                                                  ##              Museum of Space History.
000011:                                                                                                  ## Assembler:   yaYUL
000012:                                                                                                  ## Contact:     Ron Burkey <info@sandroid.org>.
000013:                                                                                                  ## Website:     www.ibiblio.org/apollo/index.html
000014:                                                                                                  ## Mod history: 2023-09-04 MAS  Created from Artemis 072.
000015:                                                                                                  ##              2024-03-04 MAS  Updated for Skylark 48.
000016:
000017:                                                                                                  #  SUBROUTINE TO CONVERT RAD VECTOR AT GIVEN TIME TO LAT,LONG AND ALT
000018:
000019:                                                                                                  #  CALLING SEQUENCE
000020:
000021:                                                                                                  #        L-1     CALL
000022:                                                                                                  #        L               LAT-LONG
000023:
000024:                                                                                                  #  SUBROUTINES USED
000025:
000026:                                                                                                  #        R-TO-RP, ARCTAN, SETGAMMA, SETRE
000027:
000028:                                                                                                  #  ERASABLE INIT. REQ.
000029:
000030:                                                                                                  #        AXO, -AYO, AZO, TEPHEM (SET AT LAUNCH TIME)
000031:                                                                                                  #        ALPHAV = POSITION VECTOR METERS B-29
000032:                                                                                                  #        MPAC -- TIME (CSECS B-28)
000033:                                                                                                  #        ERADFLAG =1, TO COMPUTE EARTH RADIUS, =0 FOR FIXED EARTH RADIUS
000034:
000035:                                                                                                  #  OUTPUT
000036:
000037:                                                                                                  #        LATITUDE IN LAT         (REVS. B-0)
000038:                                                                                                  #        LONGITUDE IN LONG       (REVS. B-0)
000039:                                                                                                  #        ALTITUDE IN ALT METERS B-29
000040:
000041: 11,2000                                           SETLOC   LATLONG
000042: 11,2000                                           BANK
000043:
000044: 11,2461                                           COUNT*   $$/LT-LG
000045: 11,2461  E4,1453                                  EBANK=   ALPHAV
000046: 11,2461           40220        LAT-LONG           STQ      SETPD
000047: 11,2462           02143                                    INCORPEX
000048: 11,2463           00001                                    0D
000049: 11,2464           24007                           STOVL    6D                                    #  SAVE TIME IN 6-7D FOR R-TO-RP
000050: 11,2465           02054                                    ALPHAV
000051: 11,2466           51406                           PUSH     ABVAL                                 #  0-5D= R FOR R-TO-RP
000052: 11,2467           36167                           STCALL   ALPHAM                                #  ABS. VALUE OF R FOR ALT FORMULA BELOW
000053: 11,2470           55224                                    R-TO-RP                               #  RP VECTOR CONVERTED FROM R B-29
000054: 11,2471           77656                           UNIT                                           #  UNIT RP B-1
000055: 11,2472           36054                           STCALL   ALPHAV                                #  U2= 1/2 SINL FOR SETRE SUBR BELOW
000056: 11,2473           22645                                    SETRE                                 #  CALC RE METERS B-29
000057: 11,2474           63545                           DLOAD    DSQ
000058: 11,2475           02054                                    ALPHAV
000059: 11,2476           63525                           PDDL     DSQ
000060: 11,2477           02056                                    ALPHAV     +2
000061: 11,2500           75415                           DAD      SQRT
000062: 11,2501           76405                           DMP      SL1R
000063: 11,2502           22600                                    B2/A2
000064: 11,2503           14021                           STODL    COSTH                                 #  COS(LAT) B-1
000065: 11,2504           02060                                    ALPHAV     +4
000066: 11,2505           34023                           STCALL   SINTH                                 #  SIN(LAT) B-1
000067: 11,2506           22605                                    ARCTAN
000068: 11,2507           14742                           STODL    LAT                                   #  LAT B0
000069: 11,2510           02054                                    ALPHAV
000070: 11,2511           14021                           STODL    COSTH                                 #  COS(LONG) B-1
000071: 11,2512           02056                                    ALPHAV     +2
000072: 11,2513           34023                           STCALL   SINTH                                 #  SIN(LONG) B-1
000073: 11,2514           22605                                    ARCTAN
000074: 11,2515           14744                           STODL    LONG                                  #  LONG. REVS B-0 IN RANGE -1/2 TO 1/2
000075: 11,2516           02167                                    ALPHAM
000076: 11,2517           77625                           DSU                                            #  ALT= R-RE METERS B-29
000077: 11,2520           02142                                    ERADM
000078: 11,2521           34746                           STCALL   ALT                                   #  EXIT WITH ALT METERS B-29
000079: 11,2522           02143                                    INCORPEX
000080:
000081:                                                                                                  #  SUBROUTINE TO CONVERT LAT,LONG,ALT AT GIVEN TIME TO RADIUS VECTOR
000082:
000083:                                                                                                  #  CALLING SEQUENCE
000084:
000085:                                                                                                  #        L-1     CALL
000086:                                                                                                  #        L               LALOTORV
000087:
000088:                                                                                                  #  SUBROUTINES USED
000089:
000090:                                                                                                  #        SETGAMMA, SETRE, RP-TO-R
000091:
000092:                                                                                                  #  ERASABLE INIT. REQ.
000093:
000094:                                                                                                  #        AXO, AYO, AZO, TEPHEM  SET AT LAUNCH TIME
000095:                                                                                                  #        LAT -- LATITUDE         (REVS B0)
000096:                                                                                                  #        LONG -- LONGITUDE       (REVS B0)
000097:                                                                                                  #        ALT -- ALTITUDE         (METERS) B-29
000098:                                                                                                  #        MPAC -- TIME            (CSECS B-28)
000099:                                                                                                  #        ERADFLAG =1 TO COMPUTE EARTH RADIUS, =0 FOR FIXED EARTH RADIUS
000100:
000101:                                                                                                  #  OUTPUT
000102:
000103:                                                                                                  #        R-VECTOR IN ALPHAV (METERS B-29)
000104:
000105: 11,2523           40220        LALOTORV           STQ      SETPD                                 #  LAT,LONG,ALT TO R VECTOR
000106: 11,2524           02143                                    INCORPEX
000107: 11,2525           00001                                    0D
000108: 11,2526           00007                           STORE    6D                                    #  6-7D = TIME FOR RP-TO-R
000109: 11,2527           73545                           DLOAD    SIN                                   #                   COS(LONG)COS(LAT) IN MPAC
000110: 11,2530           00742                                    LAT                                   #        UNIT  RP = SIN(LONG)COS(LAT)    2-3D
000111: 11,2531           65275                           DMPR     PDDL                                  #  PD 2             GAMMA*SIN(LAT)       0-1D
000112: 11,2532           22600                                    B2/A2
000113: 11,2533           00742                                    LAT                                   #            0-1D = GAMMA*SIN(LAT) B-2
000114: 11,2534           65346                           COS      PDDL                                  #  PD4       2-3D = COS(LAT) B-1 TEMPORARILY
000115: 11,2535           00744                                    LONG
000116: 11,2536           57356                           SIN      DMPR                                  #  PD 2
000117: 11,2537           71525                           PDDL     COS                                   #  PD 4      2-3D = SIN(LONG)COS(LAT) B-2
000118: 11,2540           00742                                    LAT
000119: 11,2541           71525                           PDDL     COS                                   #  PD 6      4-5D = COS(LAT) B-1 TEMPORARILY
000120: 11,2542           00744                                    LONG
000121: 11,2543           55475                           DMPR     VDEF                                  #  PD4       MPAC = COS(LONG)COS(LAT) B-2
000122: 11,2544           41456                           UNIT     PUSH                                  #  0-5D = UNIT RP FOR RP-TO-R SUBR.
000123: 11,2545           36054                           STCALL   ALPHAV                                #  ALPHAV +4= SINL FOR SETRE SUBR.
000124: 11,2546           22645                                    SETRE                                 #  RE METERS B-29
000125: 11,2547           77624        CALLRPRT           CALL
000126: 11,2550           55213                                    RP-TO-R                               #  EXIT WITH UNIT R VECTOR IN MPAC
000127: 11,2551           16054                           STODL    ALPHAV
000128: 11,2552           02142                                    ERADM
000129: 11,2553           74215                           DAD      VXSC                                  #  (RE + ALT)(UNIT R) METERS B-30
000130: 11,2554           00746                                    ALT
000131: 11,2555           02054                                    ALPHAV
000132: 11,2556           77772                           VSL1                                           #  R METERS B-29
000133: 11,2557           36054                           STCALL   ALPHAV                                #  EXIT WITH R IN METERS B-29
000134: 11,2560           02143                                    INCORPEX
000135:
000136:                                                                                                  #  SUBROUTINE TO COMPUTE EARTH RADIUS
000137:
000138:                                                                                                  #  INPUT
000139:
000140:                                                                                                  #        1/2 SIN LAT IN ALPHAV +4
000141:
000142:                                                                                                  #  OUTPUT
000143:
000144:                                                                                                  #        EARTH RADIUS IN ERADM AND MPAC  (METERS B-29)
000145:
000146: 11,2561           63545        GETERAD            DLOAD    DSQ
000147: 11,2562           02060                                    ALPHAV     +4                         #  SIN**2(L)
000148: 11,2563           44352                           SL1      BDSU
000149: 11,2564           15724                                    DP1/2                                 #  COS**2(L)
000150: 11,2565           44275                           DMPR     BDSU
000151: 11,2566           22602                                    EE
000152: 11,2567           15724                                    DP1/2
000153: 11,2570           75465                           BDDV     SQRT
000154: 11,2571           22576                                    B2XSC
000155: 11,2572           77622                           SR4R
000156: 11,2573           02142                           STORE    ERADM
000157: 11,2574           77616                           RVQ
000158:
000159:                                                                                                  #  THE FOLLOWING CONSTANTS WERE COMPUTED WITH A=6378166, B=6356784 METERS
000160:                                                                                                  #  B2XSC = B**2 SCALED B-51
000161:                                                                                                  #  B2/A2 = B**2/A**2  SCALED B-1
000162:                                                                                                  #  EE = (1-B**2/A**2) SCALED B-0
000163:
000164: 11,2575           00446 00305  B2XSC              2DEC     .0179450689                            #  B**2 SCALED B-51
000165: 11,2577  06,3723               DP1/2              =        XUNIT
000166: 11,2577           17711 05254  B2/A2              2DEC     .9933064884 B-1                        #  GAMMA= B**2/A**2 B-1
000167: 11,2601           00155 25250  EE                 2DEC     6.6935116  E-3                        #  (1-B**2/A**2) B-0
000168: 11,2603           00302 17755  ERAD               2DEC     6373338    B-29                       #  PAD RADIUS
000169:
000170:                                                                                                  #  ARCTAN SUBROUTINE
000171:
000172:                                                                                                  #  CALLING SEQUENCE
000173:
000174:                                                                                                  #        SIN THETA IN SINTH B-1
000175:                                                                                                  #        COS THETA IN COSTH B-1
000176:                                                                                                  #        CALL ARCTAN
000177:
000178:                                                                                                  #  OUTPUT
000179:                                                                                                  #        ARCTAN THETA IN MPAC AND THETA B-0 IN RANGE -1/2 TO +1/2
000180:
000181: 11,2605           77600        ARCTAN             BOV
000182: 11,2606           22607                                    CLROVFLW
000183: 11,2607           63545        CLROVFLW           DLOAD    DSQ
000184: 11,2610           00023                                    SINTH
000185: 11,2611           63525                           PDDL     DSQ
000186: 11,2612           00021                                    COSTH
000187: 11,2613           77615                           DAD
000188: 11,2614           75454                           BZE      SQRT
000189: 11,2615           22633                                    ARCTANXX                              #  ATAN=0/0  SET THETA=0
000190: 11,2616           40065                           BDDV     BOV
000191: 11,2617           00023                                    SINTH
000192: 11,2620           22640                                    ATAN=90
000193: 11,2621           67542                           SR1      ASIN
000194: 11,2622           00025                           STORE    THETA
000195: 11,2623           50125                           PDDL     BMN
000196: 11,2624           00021                                    COSTH
000197: 11,2625           22627                                    NEGCOS
000198: 11,2626           43545                           DLOAD    RVQ
000199: 11,2627           57545        NEGCOS             DLOAD    DCOMP
000200: 11,2630           43244                           BPL      DAD
000201: 11,2631           22635                                    NEGOUT
000202: 11,2632           15724                                    DP1/2
000203: 11,2633           00025        ARCTANXX           STORE    THETA
000204: 11,2634           77616                           RVQ
000205:
000206: 11,2635           52025        NEGOUT             DSU      GOTO
000207: 11,2636           15724                                    DP1/2
000208: 11,2637           22633                                    ARCTANXX
000209: 11,2640           75345        ATAN=90            DLOAD    SIGN
000210: 11,2641           33412                                    LODP1/4
000211: 11,2642           00023                                    SINTH
000212: 11,2643           00025                           STORE    THETA
000213: 11,2644           77616                           RVQ
000214:
000215: 11,2645  06,3725               2DZERO             =        DPZERO
000216:
000217:
000218:                                                                                                  #  ..... SETRE SUBROUTINE .....
000219:                                                                                                  #  SUBROUTINE TO SET RE (EARTH RADIUS)
000220:
000221:                                                                                                  #   RE = RREF FOR FIXED EARTH RADIUS OR COMPUTED RF FOR FISCHER ELLIPSOID
000222:
000223:                                                                                                  #  CALLING SEQUENCE
000224:                                                                                                  #   L    CALL
000225:                                                                                                  #   L+1          SETRE
000226:
000227:                                                                                                  #  SUBROUTINES USED
000228:                                                                                                  #   GETERAD
000229:
000230:                                                                                                  #  INPUT
000231:                                                                                                  #   ERADFLAG = 0 FOR FIXED RE, 1 FOR COMPUTED RE
000232:                                                                                                  #   ALPHAV +4 = 1/2 SINL IF GETERAD IS CALLED
000233:
000234:                                                                                                  #  OUTPUT
000235:                                                                                                  #   ERADM = ERAD OR COMPUTED RF FOR EARTH (METERS B-29)
000236:
000237: 11,2645           71220        SETRE              STQ      DLOAD
000238: 11,2646           00051                                    SETREX
000239: 11,2647           22604                                    ERAD
000240: 11,2650           45014                           BOFF     CALL                                  #  ERADFLAG=0 FOR FIXED RE, 1 FOR COMPUTED
000241: 11,2651           00742                                    ERADFLAG
000242: 11,2652           22654                                    SETRXX
000243: 11,2653           22561                                    GETERAD
000244: 11,2654           36142        SETRXX             STCALL   ERADM                                 #  EXIT WITH RE OR RM METERS B-29
000245: 11,2655           00051                                    SETREX
000246: 11,2656  0000051               SETREX             =        S2

End of include-file LATITUDE_LONGITUDE_SUBROUTINES.agc.  Parent file is MAIN.agc


