
Source Code


000002:                                                                                                  ## Copyright:   Public domain.
000003:                                                                                                  ## Filename:    LUNAR_AND_SOLAR_EPHEMERIDES_SUBROUTINES.agc
000004:                                                                                                  ## Purpose:     A section of Skylark revision 048.
000005:                                                                                                  ##              It is part of the source code for the Apollo Guidance Computer (AGC)
000006:                                                                                                  ##              for Skylab-2, Skylab-3, Skylab-4, and ASTP. No original listings of
000007:                                                                                                  ##              this software are available; instead, this file was created via
000008:                                                                                                  ##              disassembly of dumps of the core rope modules actually flown on
000009:                                                                                                  ##              Skylab-2. Access to these modules was provided by the New Mexico
000010:                                                                                                  ##              Museum of Space History.
000011:                                                                                                  ## Assembler:   yaYUL
000012:                                                                                                  ## Contact:     Ron Burkey <info@sandroid.org>.
000013:                                                                                                  ## Website:     www.ibiblio.org/apollo/index.html
000014:                                                                                                  ## Mod history: 2024-02-19 MAS  Created from Luminary 131.
000015:                                                                                                  ##              2024-03-04 MAS  Updated for Skylark 48.
000016:
000017:                                                                                                  #  NAME - LSPOS - LOCATE SUN AND MOON                    DATE - 25 OCT 67
000018:                                                                                                  #  MOD NO.1
000019:                                                                                                  #  MOD BY NEVILLE                                        ASSEMBLY SUNDANCE
000020:
000021:                                                                                                  #  FUNCTIONAL DESCRIPTION
000022:
000023:                                                                                                  #  COMPUTES UNIT POSITION VECTOR OF THE SUN AND MOON IN THE BASIC REFERENCE SYSTEM.  THE SUN VECTOR S IS
000024:                                                                                                  #  LOCATED VIA TWO ANGLES.  THE FIRST ANGLE (OBLIQUITY) IS THE ANGLE BETWEEN THE EARTH EQUATOR AND THE ECLIPTIC. THE
000025:                                                                                                  #  SECOND ANGLE IS THE LONGITUDE OF THE SUN MEASURED IN THE ECLIPTIC.
000026:                                                                                                  #  THE POSITION VECTOR OF THE SUN IS
000027:                                                                                                  #        -
000028:                                                                                                  #        S = (COS(LOS), COS(OBL)*SIN(LOS), SIN(OBL)*SIN(LOS)), WHERE
000029:
000030:                                                                                                  #        LOS = LOS +LOS *T-(C *SIN(2PI*T)/365.24 +C *COS(2PI*T)/365.24)
000031:                                                                                                  #                 0    R     0                     1
000032:                                                                                                  #        LOS  (RAD) IS THE LONGITUDE OF THE SUN FOR MIDNIGHT JUNE 30TH OF THE PARTICULAR YEAR.
000033:                                                                                                  #           0
000034:                                                                                                  #        LOS  (RAD/DAY) IS THE MEAN RATE FOR THE PARTICULAR YEAR.
000035:                                                                                                  #           R
000036:
000037:                                                                                                  #  LOS  AND LOS  ARE STORED AS LOSC AND LOSR IN RATESP.
000038:                                                                                                  #     0        R
000039:                                                                                                  #  COS(OBL) AND SIN(OBL) ARE STORED IN THE MATRIX KONMAT.
000040:
000041:                                                                                                  #  T, TIME MEASURED IN DAYS (24 HOURS), IS STORED IN TIMEP.
000042:
000043:                                                                                                  #  C  AND C  ARE FUDGE FACTORS TO MINIMIZE THE DEVIATION.  THEY ARE STORED AS ONE CONSTANT (CMOD), SINCE
000044:                                                                                                  #   0      1                               2  2 1/2
000045:                                                                                                  #  C *SIN(X)+C *COS(X) CAN BE WRITTEN AS (C +C )   *SIN(X+PHI), WHERE PHI=ARCTAN(C /C ).
000046:                                                                                                  #   0         1                            0  1                                   1  0
000047:
000048:                                                                                                  #  THE MOON IS LOCATED VIA FOUR ANGLES. THE FIRST IS THE OBLIQUITY. THE SECOND IS THE MEAN LONGITUDE OF THE MOON,
000049:                                                                                                  #  MEASURED IN THE ECLIPTIC FROM THE MEAN EQUINOX TO THE MEAN ASCENDING NODE OF THE LUNAR ORBIT, AND THEN ALONG THE
000050:                                                                                                  #  ORBIT.  THE THIRD ANGLE IS THE ANGLE BETWEEN THE ECLIPTIC AND THE LUNAR ORBIT.  THE FOURTH ANGLE IS THE LONGITUDE
000051:                                                                                                  #  OF THE NODE OF THE MOON, MEASURED IN THE LUNAR ORBIT.  LET THESE ANGLES BE OBL,LOM,IM, AND LON RESPECTIVELY.
000052:
000053:                                                                                                  #  THE SIMPLIFIED POSITION VECTOR OF THE MOON IS
000054:                                                                                                  #        -
000055:                                                                                                  #        M=(COS(LOM), COS(OBL)*SIN(LOM)-SIN(OBL)*SIN(IM)*SIN(LOM-LON), SIN(OBL)*SIN(LOM)+COS(OBL)*SIN(IM)*SIN(LOM-LON))
000056:
000057:                                                                                                  #  WHERE
000058:                                                                                                  #        LOM=LOM +LOM *T-(A *SIN 2PI*T/27.5545+A *COS(2PI*T/27.5545)+B *SIN 2PI*T/32+B *COS(2PI*T/32)), AND
000059:                                                                                                  #               0    R     0                    1                     0               1
000060:                                                                                                  #        LON=LON +LON
000061:                                                                                                  #               0    R
000062:                                                                                                  #  A , A , B  AND B  ARE STORED AS AMOD AND BMOD (SEE DESCRIPTION OF CMOD, ABOVE).  COS(OBL), SIN(OBL)*SIN(IM),
000063:                                                                                                  #   0   1   0      1
000064:                                                                                                  #  SIN(OBL), AND COS(OBL)*SIN(IM) ARE STORED IN KONMAT AS K1, K2, K3  AND K4, RESPECTIVELY.  LOM , LOM , LON , LON
000065:                                                                                                  #  ARE STORED AS LOMO, LOMR, LONO, AND LONR IN RATESP.                                          0     R     0     R
000066:
000067:                                                                                                  #  THE THREE PHIS ARE STORED AS AARG, BARG, AND CARG(SUN).  ALL CONSTANTS ARE UPDATED BY YEAR.
000068:
000069:                                                                                                  #  CALLING SEQUENCE
000070:                                                                                                  #        CALL LSPOS.  RETURN IS VIA CPRET.
000071:
000072:                                                                                                  #  ALARMS OR ABORTS
000073:                                                                                                  #        NONE
000074:
000075:                                                                                                  #  ERASABLE INITIALIZATION REQUIRED
000076:                                                                                                  #        TEPHEM - TIME FROM MIDNIGHT 1 JULY PRECEDING THE LAUNCH TO THE TIME OF THE LAUNCH (WHEN THE AGC CLOCK WENT
000077:                                                                                                  #        TO ZERO).  TEPHEM IS TP WITH UNITS OF CENTI-SECONDS.
000078:
000079:                                                                                                  #        TIME2 AND TIME1 ARE IN MPAC AND MPAC +1 WHEN PROGRAM IS CALLED.
000080:
000081:                                                                                                  #  OUTPUT
000082:                                                                                                  #        UNIT POSITIONAL VECTOR OF SUN IN VSUN.  (SCALED B-1)
000083:                                                                                                  #        UNIT POSITIONAL VECTOR OF MOON IN VMOON.  (SCALED B-1)
000084:
000085:                                                                                                  #  SUBROUTINES USED
000086:                                                                                                  #        NONE
000087:
000088:                                                                                                  #  DEBRIS
000089:                                                                                                  #        CURRENT CORE SET, WORK AREA AND FREEFLAG
000090:
000091: 04,3206                                           BANK     04
000092: 26,2000                                           SETLOC   EPHEM
000093: 26,2000                                           BANK
000094:
000095: 26,2034  E5,1724                                  EBANK=   VSUN
000096: 26,2034                                           COUNT*   $$/EPHEM
000097:
000098: 26,2034           54201        LSPOS              SETPD    SR
000099: 26,2035           00001                                    0
000100: 26,2036           20617                                    14D                                   #  TP
000101: 26,2037           56371                           TAD      DDV
000102: 26,2040           01701                                    TEPHEM                                #  TIME OF LAUNCH
000103: 26,2041           14076                                    CSTODAY                               #  24 HOURS-8640000 CENTI-SECS/DAY B-33
000104: 26,2042           41206                           PUSH     DMP                                   #  T IN DAYS
000105: 26,2043           14074                                    KOMEGAC
000106: 26,2044           43261                           SL       DAD
000107: 26,2045           20212                                    9D
000108: 26,2046           02013                                    CARG
000109: 26,2047           41356                           SIN      DMP
000110: 26,2050           02011                                    CMOD
000111: 26,2051           77725                           PDDL
000112: 26,2052           54205                           DMP      SL
000113: 26,2053           14072                                    LOSR
000114: 26,2054           20207                                    6
000115: 26,2055           45215                           DAD      DSU
000116: 26,2056           02007                                    LOSO
000117: 26,2057           73406                           PUSH     SIN
000118: 26,2060           41206                           PUSH     DMP
000119: 26,2061           14102                                    KONMAT3
000120: 26,2062           65352                           SL1      PDDL
000121: 26,2063           72405                           DMP      SL1
000122: 26,2064           14100                                    KONMAT1
000123: 26,2065           71525                           PDDL     COS
000124: 26,2066           00001                                    0
000125: 26,2067           53466                           VDEF     UNIT
000126: 26,2070           43406                           PUSH     RVQ
000127:
000128: 26,2071           01315 26267  LOSR               2DEC*    .00273780317 B+4*
000129: 26,2073           00131 26612  KOMEGAC            2DEC*    .00273777859 B+1*
000130: 26,2075           00040 36540  CSTODAY            2DEC     8640000    B-32
000131: 26,2077           16533 32024  KONMAT1            2DEC*    .91745773  B-1*
000132: 26,2101           06273 01466  KONMAT3            2DEC*    .397833274 B-1*

End of include-file LUNAR_AND_SOLAR_EPHEMERIDES_SUBROUTINES.agc.  Parent file is MAIN.agc


