
Source Code


000002:                                                                                                  ## Copyright:   Public domain.
000003:                                                                                                  ## Filename:    MEASUREMENT_INCORPORATION.agc
000004:                                                                                                  ## Purpose:     A section of Skylark revision 048.
000005:                                                                                                  ##              It is part of the source code for the Apollo Guidance Computer (AGC)
000006:                                                                                                  ##              for Skylab-2, Skylab-3, Skylab-4, and ASTP. No original listings of
000007:                                                                                                  ##              this software are available; instead, this file was created via
000008:                                                                                                  ##              disassembly of dumps of the core rope modules actually flown on
000009:                                                                                                  ##              Skylab-2. Access to these modules was provided by the New Mexico
000010:                                                                                                  ##              Museum of Space History.
000011:                                                                                                  ## Assembler:   yaYUL
000012:                                                                                                  ## Contact:     Ron Burkey <info@sandroid.org>.
000013:                                                                                                  ## Website:     www.ibiblio.org/apollo/index.html
000014:                                                                                                  ## Mod history: 2023-09-04 MAS  Created from Artemis 072.
000015:                                                                                                  ##              2024-03-04 MAS  Updated for Skylark 48.
000016:
000017:                                                                                                  #   INCORP1--PERFORMS THE SIX DIMENSIONAL STATE VECTOR DEVIATION FOR POSITI
000018:                                                                                                  #  ON AND VELOCITY OR THE NINE DIMENSIONAL DEVIATION OF POSITION,VELOCITY,A
000019:                                                                                                  #  ND RADAR OR LANDMARK BIAS.THE OUTPUT OF THE BVECTOR ROUTINE ALONG WITH T
000020:                                                                                                  #  HE ERROR TRANSITION MATRIX(W) ARE USED AS INPUT TO THE ROUTINE.THE DEVIA
000021:                                                                                                  #  TION IS OBTAINED BY COMPUTING AN ESTIMATED TRACKING MEASUREMENT FROM THE
000022:                                                                                                  #  CURRENT STATE VECTOR AND COMPARING IT WITH AN ACTUAL TRACKING MEASUREMEN
000023:                                                                                                  #  T AND APPLYING A STATISTICAL WEIGHTING VECTOR.
000024:
000025:                                                                                                  #  INPUT
000026:                                                                                                  #               W = ERROR TRANSITION MATRIX 6X6
000027:                                                                                                  #        VARIANCE = VARIANCE (SCALAR)
000028:                                                                                                  #          DELTAQ = MEASURED DEVIATION (SCALAR)
000029:                                                                                                  #         BVECTOR = 6 DIMENSIONAL BVECTOR
000030:
000031:                                                                                                  #  OUTPUT
000032:                                                                                                  #          DELTAX = STATE VECTOR DEVIATIONS 6 DIMENSIONAL
000033:                                                                                                  #              ZI = VECTOR USED FOR THE INCORPORATION 6 DIMENSIONAL
000034:                                                                                                  #           GAMMA = SCALAR
000035:                                                                                                  #           OMEGA = OMEGA WEIGHTING VECTOR 6 DIMENTIONAL
000036:
000037:                                                                                                  #  CALLING SEQUENCE
000038:                                                                                                  #        L       CALL    INCORP1
000039:
000040:                                                                                                  #  NORMAL EXIT
000041:                                                                                                  #        L+1 OF CALLING SEQUENCE
000042:
000043: 36,2000                                           SETLOC   MEASINC
000044: 36,2000                                           BANK
000045:
000046: 36,2775                                           COUNT*   $$/INCOR
000047:
000048: 36,2775  E5,1400                                  EBANK=   W
000049:
000050: 36,2775           77620        INCORP1            STQ
000051: 36,2776           02200                                    EGRESS
000052: 36,2777           66370                           AXT,1    SSP
000053: 36,3000           00044                                    36D
000054: 36,3001           00051                                    S1
000055: 36,3002           00022                                    18D                                   #  IX1 = 36      S1= 18
000056: 36,3003           66374                           AXT,2    SSP
000057: 36,3004           00014                                    12D
000058: 36,3005           00052                                    S2
000059: 36,3006           00006                                    6                                     #  IX2 = 12      S2=6
000060: 36,3007           63775        Z123               VLOAD    MXV*
000061: 36,3010           03466                                    BVECTOR                               #  BVECTOR (0)
000062: 36,3011           02445                                    W          +36D,1
000063: 36,3012           12701                           STORE    ZI         +12D,2
000064: 36,3013           77775                           VLOAD
000065: 36,3014           03474                                    BVECTOR    +6                         #  BVECTOR (1)
000066: 36,3015           52717                           MXV*     VAD*
000067: 36,3016           02533                                    W          +90D,1
000068: 36,3017           75076                                    ZI         +12D,2
000069: 36,3020           12701                           STORE    ZI         +12D,2
000070: 36,3021           77700                           TIX,1
000071: 36,3022           75023                                    INCOR1
000072: 36,3023           77704        INCOR1             TIX,2
000073: 36,3024           75007                                    Z123                                  #  LOOP FOR Z1,Z2,Z3
000074: 36,3025           77201        INCOR1A            SETPD    VLOAD
000075: 36,3026           00001                                    0
000076: 36,3027           02665                                    ZI
000077: 36,3030           47036                           VSQ      RTB
000078: 36,3031           45640                                    TPMODE
000079: 36,3032           47515                           PDVL     VSQ
000080: 36,3033           02673                                    ZI         +6
000081: 36,3034           76234                           RTB      TAD
000082: 36,3035           45640                                    TPMODE
000083: 36,3036           77171                           TAD      AXT,2
000084: 36,3037           03504                                    VARIANCE
000085: 36,3040           00000                                    0
000086: 36,3041           01074                           STORE    TRIPA                                 #  ZI*2 + Z2*2 + Z3*2 + VARIANCE
000087: 36,3042           40151                           TLOAD    BOV
000088: 36,3043           03504                                    VARIANCE                              #  CLEAR OVFIND
000089: 36,3044           75045                                    +1
000090: 36,3045           01077                           STORE    TEMPVAR                               #  TEMP STORAGE FOR VARIANCE
000091: 36,3046           77654                           BZE
000092: 36,3047           75056                                    INCOR1C
000093: 36,3050           40112        INCOR1B            SL2      BOV
000094: 36,3051           75056                                    INCOR1C
000095: 36,3052           01077                           STORE    TEMPVAR
000096: 36,3053           52114                           INCR,2   GOTO
000097: 36,3054           00001                           DEC      1          B-14
000098: 36,3055           75050                                    INCOR1B
000099: 36,3056           61551        INCOR1C            TLOAD    ROUND
000100: 36,3057           01074                                    TRIPA
000101: 36,3060           75405                           DMP      SQRT
000102: 36,3061           01077                                    TEMPVAR
000103: 36,3062           76257                           SL*      TAD
000104: 36,3063           57576                                    0,2
000105: 36,3064           01074                                    TRIPA
000106: 36,3065           63101                           NORM     INCR,2
000107: 36,3066           00050                                    X2
000108: 36,3067           77775                           DEC      -2         B-14
000109: 36,3070           77134                           SXA,2    AXT,2
000110: 36,3071           02116                                    NORMGAM                               #  NORMALIZATION COUNT -2 FOR GAMMA
000111: 36,3072           00154                                    108D
000112: 36,3073           40265                           BDDV     SETPD
000113: 36,3074           15174                                    DP1/4TH
000114: 36,3075           00001                                    0
000115: 36,3076           03450                           STORE    GAMMA
000116: 36,3077           60351                           TLOAD    NORM
000117: 36,3100           01074                                    TRIPA
000118: 36,3101           00047                                    X1
000119: 36,3102           65345                           DLOAD    PDDL                                  #  PD 0-1 = NORM (A)
000120: 36,3103           00155                                    MPAC
000121: 36,3104           03502                                    DELTAQ
000122: 36,3105           77701                           NORM
000123: 36,3106           00051                                    S1
000124: 36,3107           70460                           XSU,1    SR1
000125: 36,3110           00050                                    S1
000126: 36,3111           41471                           DDV      PUSH                                  #  PD 0-1 = DELTAQ/A
000127: 36,3112           77650                           GOTO
000128: 36,3113           62642                                    NEWZCOMP
000129: 36,3114           77731                 -3        SSP
000130: 36,3115           00052                                    S2
000131: 36,3116           00066                                    54D
000132: 36,3117           60775        INCOR2             VLOAD    VXM*                                  #  COMPUTE OMEGA1,2,3
000133: 36,3120           02665                                    ZI
000134: 36,3121           75222                                    W          +108D,2
000135: 36,3122           77206                           PUSH     VLOAD
000136: 36,3123           02673                                    ZI         +6
000137: 36,3124           53303                           VXM*     VAD
000138: 36,3125           75200                                    W          +126D,2
000139: 36,3126           61006                           PUSH     TIX,2                                 #  PD 2-7=OMEGA1,8-13=OMEGA2,14-19=OMEGA3
000140: 36,3127           75117                                    INCOR2
000141: 36,3130           45575                           VLOAD    STADR
000142: 36,3131           74317                           STORE    OMEGA      +6
000143: 36,3132           45575                           VLOAD    STADR
000144: 36,3133           74325                           STORE    OMEGA
000145: 36,3134           66374        INCOR2AB           AXT,2    SSP
000146: 36,3135           00014                                    12D
000147: 36,3136           00052                                    S2
000148: 36,3137           00006                                    6
000149: 36,3140           77773        INCOR3             VLOAD*
000150: 36,3141           74311                                    OMEGA      +12D,2
000151: 36,3142           53761                           VXSC     VSL*
000152: 36,3143           00001                                    0                                     #  DELTAQ/A
000153: 36,3144           20201                                    0,1
000154: 36,3145           11110                           STORE    DELTAX     +12D,2
000155: 36,3146           77304                           TIX,2    VLOAD
000156: 36,3147           75140                                    INCOR3
000157: 36,3150           01102                                    DELTAX     +6
000158: 36,3151           77732                           VSL3
000159: 36,3152           01102                           STORE    DELTAX     +6
000160: 36,3153           77650                           GOTO
000161: 36,3154           02200                                    EGRESS
000162:
000163:                                                                                                  #  INCORP2 - INCORPORATES THE COMPUTED STATE VECTOR DEVIATIONS INTO THE
000164:                                                                                                  #  ESTIMATED STATE VECTOR. THE STATE VECTOR UPDATED MAY BE FOR EITHER THE
000165:                                                                                                  #  LEM OR THE CSM. DETERMINED BY FLAG VEHUPFLG. (ZERO = LEM) (1 = CSM)
000166:
000167:                                                                                                  #  INPUT
000168:                                                                                                  #        PERMANENT STATE VECTOR FOR EITHER THE LEM OR CSM
000169:                                                                                                  #        VEHUPFLG = UPDATE VEHICLE 0=LEM  1=CSM
000170:                                                                                                  #        W =        ERROR TRANSITION MATRIX
000171:                                                                                                  #        DELTAX  =  COMPUTED STATE VECTOR DEVIATIONS
000172:                                                                                                  #        GAMMA   =  SCALAR FOR INCORPORATION
000173:                                                                                                  #        ZI      =  VECTOR USED IN INCORPORATION
000174:                                                                                                  #        OMEGA   =  WEIGHTING VECTOR
000175:
000176:                                                                                                  #  OUTPUT
000177:                                                                                                  #        UPDATED PERMANENT STATE VECTOR
000178:
000179:                                                                                                  #  CALLING SEQUENCE
000180:                                                                                                  #        L       CALL    INCORP2
000181:
000182:                                                                                                  #  NORMAL EXIT
000183:                                                                                                  #        L+1 OF CALLING SEQUENCE
000184:
000185:
000186: 36,2000                                           SETLOC   MEASINC1
000187: 36,2000                                           BANK
000188:
000189: 36,3155                                           COUNT*   $$/INCOR
000190:
000191: 36,3155           45020        INCORP2            STQ      CALL
000192: 36,3156           02200                                    EGRESS
000193: 36,3157           11720                                    INTSTALL
000194: 36,3160           74375                           VLOAD    VXSC                                  #  CALC. GAMMA * OMEGA1,2,3
000195: 36,3161           03452                                    OMEGA
000196: 36,3162           03450                                    GAMMA
000197: 36,3163           26635                           STOVL    OMEGAM1
000198: 36,3164           03460                                    OMEGA      +6
000199: 36,3165           77761                           VXSC
000200: 36,3166           03450                                    GAMMA
000201: 36,3167           02643                           STORE    OMEGAM2
000202: 36,3170           77776                           EXIT
000203: 36,3171           33372                           CAF      36DD                                  #  INITIAL IX 1 SETTING FOR W MATRIX
000204: 36,3172           55067                           TS       WIXA
000205: 36,3173           55070                           TS       WIXB
000206: 36,3174           35003                           CAF      ZERO
000207: 36,3175           55071                           TS       ZIXA                                  #  INITIAL IX 2 SETTING FOR Z COMPONENT
000208: 36,3176           55072                           TS       ZIXB
000209: 36,3177           05415        FAZA               TC       PHASCHNG
000210: 36,3200           04022                           OCT      04022
000211: 36,3201           07710                           TC       UPFLAG
000212: 36,3202           00230                           ADRES    REINTFLG
000213: 36,3203           31070        FAZA1              CA       WIXB                                  #  START FIRST PHASE OF INCORP2
000214: 36,3204           55067                           TS       WIXA                                  #   TO UPDATE 6 OR 9 DIM. W MATRIX IN TEMP
000215: 36,3205           31072                           CA       ZIXB
000216: 36,3206           55071                           TS       ZIXA
000217: 36,3207           06006                           TC       INTPRET
000218: 36,3210           73150                           LXA,1    LXA,2
000219: 36,3211           01067                                    WIXA
000220: 36,3212           01071                                    ZIXA
000221: 36,3213           70731                           SSP      DLOAD*
000222: 36,3214           00051                                    S1
000223: 36,3215           00006                                    6
000224: 36,3216           75112                                    ZI,2
000225: 36,3217           60276                           DCOMP    NORM                                  #  CALC UPPER 3X9 PARTITION OF W MATRIX
000226: 36,3220           00052                                    S2
000227: 36,3221           45161                           VXSC     CALL
000228: 36,3222           02635                                    OMEGAM1
000229: 36,3223           75362                                    FAZA2
000230: 36,3224           77653                           VAD*
000231: 36,3225           02445                                    W          +36D,1
000232: 36,3226           02651                           STORE    HOLDW
000233: 36,3227           57543                           DLOAD*   DCOMP                                 #  CALC MIDDLE 3X9 PARTITION OF W MATRIX
000234: 36,3230           75112                                    ZI,2
000235: 36,3231           74301                           NORM     VXSC
000236: 36,3232           00052                                    S2
000237: 36,3233           02643                                    OMEGAM2
000238: 36,3234           77624                           CALL
000239: 36,3235           75362                                    FAZA2
000240: 36,3236           77653                           VAD*
000241: 36,3237           02533                                    W          +90D,1
000242: 36,3240           02657                           STORE    HOLDW      +6
000243: 36,3241           77624        FAZB               CALL
000244: 36,3242           57046                                    GRP2PC
000245: 36,3243           77776                           EXIT
000246: 36,3244           31067        FAZB1              CA       WIXA                                  #  START 2ND PHASE OF INCORP2 TO TRANSFER
000247: 36,3245           63373                           AD       6DD                                   #        TEMP REG TO PERM W MATRIX
000248: 36,3246           55070                           TS       WIXB
000249: 36,3247           31071                           CA       ZIXA
000250: 36,3250           67701                           AD       MINUS2
000251: 36,3251           55072                           TS       ZIXB
000252: 36,3252           06006                           TC       INTPRET
000253: 36,3253           66350                           LXA,1    SSP
000254: 36,3254           01067                                    WIXA
000255: 36,3255           00051                                    S1
000256: 36,3256           00006                                    6
000257: 36,3257           77775                           VLOAD
000258: 36,3260           02651                                    HOLDW
000259: 36,3261           06445                           STORE    W          +36D,1
000260: 36,3262           77775                           VLOAD
000261: 36,3263           02657                                    HOLDW      +6
000262: 36,3264           06533                           STORE    W          +90D,1
000263: 36,3265           52100        FAZB2              TIX,1    GOTO
000264: 36,3266           75270                                    +2
000265: 36,3267           75272                                    FAZC                                  #  DONE WITH W MATRIX. UPDATE STATE VECTOR
000266: 36,3270           77634                           RTB
000267: 36,3271           75177                                    FAZA
000268: 36,3272           77624        FAZC               CALL
000269: 36,3273           57046                                    GRP2PC
000270: 36,3274           47014                           BON      RTB
000271: 36,3275           00707                                    VEHUPFLG
000272: 36,3276           75352                                    DOCSM
000273: 36,3277           11362                                    MOVEPLEM
000274: 36,3300           77604        FAZAB              BOVB
000275: 36,3301           57450                                    TCDANZIG
000276: 36,3302           54375                           VLOAD    VSL
000277: 36,3303           01074                                    DELTAX                                #  B29
000278: 36,3304           20210                                    7
000279: 36,3305           40055                           VAD      BOV
000280: 36,3306           01521                                    TDELTAV
000281: 36,3307           75320                                    FAZAB1
000282: 36,3310           25521                           STOVL    TDELTAV
000283: 36,3311           01102                                    DELTAX     +6                         #  B7
000284: 36,3312           53312                           VSL4     VAD
000285: 36,3313           01527                                    TNUV
000286: 36,3314           77600                           BOV
000287: 36,3315           75324                                    FAZAB2
000288: 36,3316           35527                           STCALL   TNUV
000289: 36,3317           75332                                    FAZAB3
000290: 36,3320           53375        FAZAB1             VLOAD    VAD
000291: 36,3321           01535                                    RCV
000292: 36,3322           01074                                    DELTAX
000293: 36,3323           01535                           STORE    RCV
000294: 36,3324           53375        FAZAB2             VLOAD    VAD
000295: 36,3325           01543                                    VCV
000296: 36,3326           01102                                    DELTAX     +6
000297: 36,3327           01543                           STORE    VCV
000298: 36,3330           77624                           CALL
000299: 36,3331           23437                                    RECTIFY
000300: 36,3332           77624        FAZAB3             CALL
000301: 36,3333           57046                                    GRP2PC
000302: 36,3334           47014                           BON      RTB
000303: 36,3335           00707                                    VEHUPFLG
000304: 36,3336           75355                                    DOCSM1
000305: 36,3337           11347                                    MOVEALEM
000306: 36,3340           77624                           CALL
000307: 36,3341           20245                                    SVDWN2                                #  STORE DOWNLINK STATE VECTOR
000308: 36,3342           77624        FAZAB4             CALL
000309: 36,3343           57046                                    GRP2PC                                #  PHASE CHANGE
000310: 36,3344           66150        FAZAB5             LXA,1    SXA,1
000311: 36,3345           02200                                    EGRESS
000312: 36,3346           00052                                    QPRET
000313: 36,3347           77776                           EXIT
000314: 36,3350           04666                           TC       POSTJUMP                              #  EXIT
000315: 36,3351           11731                           CADR     INTWAKE
000316: 36,3352           52034        DOCSM              RTB      GOTO
000317: 36,3353           11327                                    MOVEPCSM
000318: 36,3354           75300                                    FAZAB
000319: 36,3355           45034        DOCSM1             RTB      CALL
000320: 36,3356           11314                                    MOVEACSM
000321: 36,3357           20226                                    SVDWN1                                #  STORE DOWNLINK STATE VECTOR
000322: 36,3360           77650                           GOTO
000323: 36,3361           75342                                    FAZAB4
000324: 36,3362           71124        FAZA2              XCHX,2   LXC,2
000325: 36,3363           00051                                    S2
000326: 36,3364           00047                                    X2
000327: 36,3365           53674                           XAD,2    VSL*
000328: 36,3366           02116                                    NORMGAM
000329: 36,3367           57576                                    0,2
000330: 36,3370           43524                           XCHX,2   RVQ
000331: 36,3371           00051                                    S2
000332: 36,3372  26,3203               ZEROO              =        ZEROVECS
000333: 36,3372           00044        36DD               DEC      36         B-14
000334: 36,3373           77771        6DD                DEC      -6         B-14
000335: 36,3374           00014        12DD               DEC      12         B-14
000336:
000337:
000338: 31,2000                                           SETLOC   MEASINC3
000339: 31,2000                                           BANK
000340: 31,2642                                           COUNT*   $$/INCOR
000341:
000342: 31,2642           51575        NEWZCOMP           VLOAD    ABVAL
000343: 31,2643           02665                                    ZI
000344: 31,2644           24045                           STOVL    NORMZI
000345: 31,2645           02673                                    ZI         +6
000346: 31,2646           41446                           ABVAL    PUSH
000347: 31,2647           50025                           DSU      BMN
000348: 31,2650           00045                                    NORMZI
000349: 31,2651           62654                                    +3
000350: 31,2652           45545                           DLOAD    STADR
000351: 31,2653           77732                           STORE    NORMZI
000352:
000353: 31,2654           66145        NEWZCMP1           DLOAD    SXA,1
000354: 31,2655           00045                                    NORMZI
000355: 31,2656           00044                                    NORMZI                                #  SAVE X1
000356: 31,2657           62101                           NORM     INCR,1
000357: 31,2660           00047                                    X1
000358: 31,2661           00002                           DEC      2          B-14
000359: 31,2662           53775                           VLOAD    VSL*
000360: 31,2663           02665                                    ZI
000361: 31,2664           20201                                    0,1
000362: 31,2665           26665                           STOVL    ZI
000363: 31,2666           02673                                    ZI         +6
000364: 31,2667           66057                           VSL*     SXA,1
000365: 31,2670           20201                                    0,1
000366: 31,2671           00045                                    NORMZI     +1                         #  SAVE SHIFT
000367: 31,2672           02673                           STORE    ZI         +6D
000368: 31,2673           54150                           LXA,1    XSU,1
000369: 31,2674           02116                                    NORMGAM
000370: 31,2675           00045                                    NORMZI     +1
000371: 31,2676           77660                           XSU,1
000372: 31,2677           00045                                    NORMZI     +1
000373: 31,2700           70130                           SXA,1    LXC,1
000374: 31,2701           02116                                    NORMGAM
000375: 31,2702           00045                                    NORMZI     +1
000376: 31,2703           40270                           XAD,1    SETPD
000377: 31,2704           00044                                    NORMZI
000378: 31,2705           00003                                    2D
000379: 31,2706           77650                           GOTO
000380: 31,2707           75114                                    INCOR2     -3
000381: 31,2710                        NORMZI             =        36D

End of include-file MEASUREMENT_INCORPORATION.agc.  Parent file is MAIN.agc


