
Source Code


000002:                                                                                                  ## Copyright:   Public domain.
000003:                                                                                                  ## Filename:    MYSUBS.agc
000004:                                                                                                  ## Purpose:     A section of Skylark revision 048.
000005:                                                                                                  ##              It is part of the source code for the Apollo Guidance Computer (AGC)
000006:                                                                                                  ##              for Skylab-2, Skylab-3, Skylab-4, and ASTP. No original listings of
000007:                                                                                                  ##              this software are available; instead, this file was created via
000008:                                                                                                  ##              disassembly of dumps of the core rope modules actually flown on
000009:                                                                                                  ##              Skylab-2. Access to these modules was provided by the New Mexico
000010:                                                                                                  ##              Museum of Space History.
000011:                                                                                                  ## Assembler:   yaYUL
000012:                                                                                                  ## Contact:     Ron Burkey <info@sandroid.org>.
000013:                                                                                                  ## Website:     www.ibiblio.org/apollo/index.html
000014:                                                                                                  ## Mod history: 2023-09-04 MAS  Created from Artemis 072.
000015:
000016:
000017: 21,2000                                           SETLOC   MYSUBS
000018: 21,2000                                           BANK
000019:
000020: 21,2000  E6,1537                                  EBANK=   KMPAC
000021: 21,2000     5073               SPCOS1             EQUALS   SPCOS
000022: 21,2000     5074               SPSIN1             EQUALS   SPSIN
000023: 21,2000     5073               SPCOS2             EQUALS   SPCOS
000024: 21,2000     5074               SPSIN2             EQUALS   SPSIN
000025:
000026: 21,2000                                           COUNT*   $$/DAPMS
000027:
000028:                                                                                                  #  ONE AND ONE HALF PRECISION MULTIPLICATION ROUTINE
000029:
000030: 21,2000           55541        SMALLMP            TS       KMPTEMP                               #  A(X+Y)
000031: 21,2001           00006                           EXTEND
000032: 21,2002           71540                           MP       KMPAC      +1
000033: 21,2003           55540                           TS       KMPAC      +1                         #  AY
000034: 21,2004           35003                           CAF      ZERO
000035: 21,2005           57537                           XCH      KMPAC
000036: 21,2006           00006                           EXTEND
000037: 21,2007           71541                           MP       KMPTEMP                               #  AX
000038: 21,2010           21540                           DAS      KMPAC                                 #  AX+AY
000039: 21,2011           00002                           TC       Q
000040:
000041:                                                                                                  #  SUBROUTINE FOR DOUBLE PRECISION ADDITIONS OF ANGLES
000042:                                                                                                  #  A AND L CONTAIN A DP(1S) ANGLE SCALED BY 180 DEGS TO BE ADDED TO KMPAC.
000043:                                                                                                  #  RESULT IS PLACED IN KMPAC.  TIMING = 6 MCT (22 MCT ON OVERFLOW)
000044:
000045: 21,2012           21540        DPADD              DAS      KMPAC
000046: 21,2013           00006                           EXTEND
000047: 21,2014           12031                           BZF      TSK        +1                         #  NO OVERFLOW
000048: 21,2015           11537                           CCS      KMPAC
000049: 21,2016           12032                           TCF      DPADD+                                #  + OVERFLOW
000050: 21,2017           12021                           TCF      +2
000051: 21,2020           12034                           TCF      DPADD-                                #  - OVERFLOW
000052: 21,2021           11540                           CCS      KMPAC      +1
000053: 21,2022           12037                           TCF      DPADD2+                               #  UPPER = 0, LOWER +
000054: 21,2023           12025                           TCF      +2
000055: 21,2024           40000                           COM                                            #  UPPER = 0, LOWER -
000056: 21,2025           64761                           AD       POSMAX                                #  LOWER = 0, A=0
000057: 21,2026           55540                           TS       KMPAC      +1                         #  CAN NOT OVERFLOW
000058: 21,2027           34761                           CA       POSMAX                                #  UPPER WAS = 0
000059: 21,2030           55537        TSK                TS       KMPAC
000060: 21,2031           00002                 +1        TC       Q
000061: 21,2032           64763        DPADD+             AD       NEGMAX                                #  KMPAC GREATER THAN 0
000062: 21,2033           12030                           TCF      TSK
000063:
000064: 21,2034           40000        DPADD-             COM
000065: 21,2035           64761                           AD       POSMAX                                #  KMPAC LESS THAN 0
000066: 21,2036           12030                           TCF      TSK
000067:
000068: 21,2037           64763        DPADD2+            AD       NEGMAX                                #  CAN NOT OVERFLOW
000069: 21,2040           55540                           TS       KMPAC      +1
000070: 21,2041           34763                           CA       NEGMAX                                #  UPPER WAS = 0
000071: 21,2042           12030                           TCF      TSK

End of include-file MYSUBS.agc.  Parent file is MAIN.agc


