
Source Code


000002:                                                                                                  ## Copyright:   Public domain.
000003:                                                                                                  ## Filename:    P30,P38.agc
000004:                                                                                                  ## Purpose:     A section of Skylark revision 048.
000005:                                                                                                  ##              It is part of the source code for the Apollo Guidance Computer (AGC)
000006:                                                                                                  ##              for Skylab-2, Skylab-3, Skylab-4, and ASTP. No original listings of
000007:                                                                                                  ##              this software are available; instead, this file was created via
000008:                                                                                                  ##              disassembly of dumps of the core rope modules actually flown on
000009:                                                                                                  ##              Skylab-2. Access to these modules was provided by the New Mexico
000010:                                                                                                  ##              Museum of Space History.
000011:                                                                                                  ## Assembler:   yaYUL
000012:                                                                                                  ## Contact:     Ron Burkey <info@sandroid.org>.
000013:                                                                                                  ## Website:     www.ibiblio.org/apollo/index.html
000014:                                                                                                  ## Mod history: 2023-09-04 MAS  Created from Artemis 072.
000015:                                                                                                  ##              2024-03-05 MAS  Updated for Skylark 48.
000016:
000017:                                                                                                  #  PROGRAM DESCRIPTION   P30     DATE 5-1-69
000018:
000019:                                                                                                  #  MOD.I BY S. ZELDIN-  TO ADD P31 AND ADAPT P30 FOR P31 USE.    22DEC67
000020:                                                                                                  #  MOD.II BY P.WOLFF TO REDUCE CODING AND DELETE RESTART PROTECTION      4-30-69
000021:                                                                                                  #  MOD.III BY C.BEALS TO DELETE P31      1NOV69
000022:
000023:                                                                                                  #  FUNCTIONAL DESCRIPTION
000024:                                                                                                  #        P30 (EXTERNAL DELTA-V TARGETTING PROGRAM)
000025:                                                                                                  #                ACCEPTS ASTRONAUT INPUTS OF TIG,DELV(LV) AND COMPUTES, FOR DISPLAY,
000026:                                                                                                  #                APOGEE, PERIGEE, DELV(MAG), MGA ASSOCIATED WITH DESIRED MANEUVER
000027:
000028:                                                                                                  #  THE FOLLOWING SUBROUTINES ARE USED IN P30
000029:                                                                                                  #        S30/31.1  COMPUTES APOGEE AND PERIGEE ALTITUDE
000030:                                                                                                  #        P30/P31 - DISPLAYS TIG
000031:                                                                                                  #        CNTUP30 - DISPLAYS DELV(LV)
000032:                                                                                                  #        COMPTGO   CLOCKTASK COMPUTE TTOGO
000033:                                                                                                  #        LOMAT     COMPUTE X,Y,Z IN LV COORDS
000034:                                                                                                  #        PARAM30 - DISPLAYS APOGEE, PERIGEE, DELV(MAG), MGA, TIME FROM TIG,
000035:                                                                                                  #                  MARKS SINCE LAST THRUSTING MANEUVER
000036:
000037:                                                                                                  #  CALLING SEQUENCE VIA JOB FROM V37
000038:
000039:                                                                                                  #  EXIT VIA V37 CALL OR GOTOPOOH
000040:
000041:                                                                                                  #  OUTPUT FOR POWERED FLIGHT
000042:                                                                                                  #        VTIG    X
000043:                                                                                                  #        RTIG
000044:                                                                                                  #        DELVSIN X
000045:
000046:                                                                                                  #  P30 CALCULATIONS
000047:
000048:                                                                                                  #  P30 CALC BASED ON STORED TARGET PARAMETERS (R OF IGNITION (RTIG), V OF
000049:                                                                                                  #  IGNITION (VTIG), TIME OF IGNITION (TIG), DELV(LV), COMPUTE PERIGEE ALTITUDE
000050:                                                                                                  #  APOGEE ALTITUDE AND DELTA-V REQUIRED IN REF. COORDS. (DELVSIN)
000051:                                                                                                  #
000052:                                                                                                  #  ERASABLE INITIALIZATION REQUIRED
000053:                                                                                                  #        TIG             TIME OF IGNITION                        DP      B28CS
000054:                                                                                                  #        DELVSLV         SPECIFIED DELTA-V IN LOCAL VERT.
000055:                                                                                                  #                        COORDS. OF ACTIVE VEHICLE AT
000056:                                                                                                  #                        TIME OF IGNITION                        VCT.    B+7M/CS
000057:
000058:                                                                                                  #  SUBROUTINES CALLED
000059:                                                                                                  #        THISPREC
000060:
000061:                                                                                                  #  OUTPUT
000062:                                                                                                  #        RTIG            POSITION AT TIG                         VCT.    B+29M
000063:                                                                                                  #        VTIG            VELOCITY AT TIG                         VCT.    B+7M
000064:                                                                                                  #        DELVSIN         DELVSLV IN REF COORDS                   VCT.    B+7M/CS
000065:
000066:                                                                                                  #  DEBRIS QTEMP    TEMP. ERASABLE
000067:                                                                                                  #         QPRET, MPAC
000068:                                                                                                  #         PUSHLIST
000069:
000070: 35,2000                                           SETLOC   P30S1
000071: 35,2000                                           BANK
000072:
000073: 35,2250  E7,1603                                  EBANK=   +MGA
000074:
000075: 35,2250                                           COUNT*   $$/P30
000076: 35,2250           07710        P30                TC       UPFLAG
000077: 35,2251           00027                           ADRES    UPDATFLG                              #  SET UPDATFLG
000078: 35,2252           07710                           TC       UPFLAG
000079: 35,2253           00031                           ADRES    TRACKFLG                              #  SET TRACKFLG
000080: 35,2254           35041        DSP0633            CAF      V06N33                                #  DISPLAY TIME OF IGNITION
000081: 35,2255           05550                           TC       VNFLASH
000082: 35,2256           34603                           CAF      V06N81
000083: 35,2257           05550                           TC       VNFLASH
000084: 35,2260           07710                           TC       UPFLAG
000085: 35,2261           00045                           ADRES    XDELVFLG                              #  BIT 8 FLAG 2
000086: 35,2262           06006                           TC       INTPRET
000087: 35,2263           71214                           CLEAR    DLOAD
000088: 35,2264           00670                                    UPDATFLG                              #  RESET UPDATFLG
000089: 35,2265           03413                                    TIG                                   #  TIME IGNITION SCALED AT 2(+28)CS
000090: 35,2266           34041                           STCALL   TDEC1
000091: 35,2267           11400                                    THISPREC                              #  ENCKE ROUTINE FOR
000092:
000093: 35,2270           77775                           VLOAD
000094: 35,2271           00007                                    VATT
000095: 35,2272           27616                           STOVL    VTIG
000096: 35,2273           00001                                    RATT
000097: 35,2274           03610                           STORE    RTIG
000098: 35,2275           03516                           STORE    RACT3
000099: 35,2276           53435                           VXV      UNIT
000100: 35,2277           03616                                    VTIG
000101: 35,2300           36543                           STCALL   UNRM
000102: 35,2301           73333                                    LOMAT
000103: 35,2302           61375                           VLOAD    VXM
000104: 35,2303           03405                                    DELVSLV
000105: 35,2304           00001                                    0
000106: 35,2305           77772                           VSL1
000107: 35,2306           03624                           STORE    DELVSIN
000108: 35,2307           77646                           ABVAL
000109: 35,2310           27764                           STOVL    VGDISP                                #  MAG DELV
000110: 35,2311           03610                                    RTIG
000111: 35,2312           53315                           PDVL     VAD
000112: 35,2313           03624                                    DELVSIN
000113: 35,2314           03616                                    VTIG
000114: 35,2315           77624                           CALL
000115: 35,2316           54021                                    S30/31.1
000116: 35,2317           77776                           EXIT
000117: 35,2320           32366        PARAM30            CAF      V06N42                                #  DISPLAY HAPO, HPER, DELTAV
000118: 35,2321           05550                           TC       VNFLASH
000119: 35,2322           06006        REFTEST            TC       INTPRET
000120: 35,2323           77214                           BOFF     VLOAD
000121: 35,2324           01742                                    REFSMFLG                              #  TEST FOR REFSMFLAG ON
000122: 35,2325           72357                                    NOTSET
000123: 35,2326           03624                                    DELVSIN
000124: 35,2327           45006                           PUSH     CALL
000125: 35,2330           56734                                    GET+MGA
000126: 35,2331           77776                           EXIT
000127: 35,2332           02340        DISPMGA            TC       COMPTGO
000128:
000129: 35,2333           34604        DISP45             CAF      V16N45                                #  DISPLAY MARK CNT, TFI, +MGA
000130: 35,2334           05550                           TC       VNFLASH
000131: 35,2335           07722                           TC       DOWNFLAG
000132: 35,2336           00155                           ADRES    TIMRFLAG                              #  RESET TIMRFLAG
000133: 35,2337           14103                           TCF      GOTOPOOH
000134:
000135: 35,2340           00006        COMPTGO            EXTEND
000136: 35,2341           23262                           QXCH     PHSPRDT6
000137:
000138: 35,2342           07710                           TC       UPFLAG                                #  SET TIMRFLAG
000139: 35,2343           00155                           ADRES    TIMRFLAG
000140: 35,2344           35003                           CAF      ZERO
000141: 35,2345           54772                           TS       NVWORD1
000142:
000143: 35,2346           35001                           CAF      ONE
000144: 35,2347           05246                           TC       WAITLIST
000145: 35,2350  E7,1412                                  EBANK=   TIG
000146: 35,2350           03071 50067                     2CADR    CLOKTASK
000147:
000148: 35,2352           05375                           TC       2PHSCHNG
000149: 35,2353           40036                           OCT      40036                                 #  6.3SPOT FOR CLOKTASK
000150: 35,2354           05024                           OCT      05024                                 #  GROUP 4 CONTINUES HERE
000151: 35,2355           13000                           OCT      13000
000152:
000153: 35,2356  01,2333               6P3SPT1            =        6.3SPOT
000154: 35,2356           01262                           TC       PHSPRDT6
000155:
000156: 35,2357           57545        NOTSET             DLOAD    DCOMP
000157: 35,2360           32365                                    MARSDP
000158: 35,2361           03604                           STORE    +MGA
000159: 35,2362           77634                           RTB
000160: 35,2363           72332                                    DISPMGA
000161: 35,2364           00000        MARSDP             OCT      00000                                 #  (00000) (16440) = (+00001)
000162: 35,2365           35100                           OCT      35100
000163:                                                                                                  #  ( .01 ) DEGREES IN THE LOW ORDER REGISTE
000164:
000165: 35,2366           01452        V06N42             VN       0642
000166:
000167:
000168:                                                                                                  #  S30/31.1      SUBROUTINE USED BY P30/P31 CALCULATIONS
000169:                                                                                                  #  MOD NO 1              LOG SECTION P30,P37
000170:
000171:                                                                                                  #  FUNCTIONAL DESCRIPTION
000172:                                                                                                  #        THROUGH A SERIES OF CALLS COMPUTES APOGEE AND PERIGEE ALTITUDE
000173:
000174:                                                                                                  #  SUBROUTINES CALLED
000175:                                                                                                  #        PERIAPO1
000176:                                                                                                  #        MAXCHK
000177:
000178:                                                                                                  #  CALLING SEQUENCE
000179:                                                                                                  #        L       CALL
000180:                                                                                                  #        L+1             S30/31.1
000181:
000182:                                                                                                  #  NORMAL EXIT MODE
000183:                                                                                                  #        AT L+2 OR CALLING SEQUENCE
000184:
000185:                                                                                                  #  OUTPUT
000186:                                                                                                  #        HAPO            APOGEE ALT.             DP      B+29 M
000187:                                                                                                  #        HPER            PERIGEE ALT.            DP      B+29 M
000188:
000189: 26,2000                                           SETLOC   P30S1A
000190: 26,2000                                           BANK
000191:
000192: 26,2021                                           COUNT*   $$/P30
000193: 26,2021           45020        S30/31.1           STQ      CALL
000194: 26,2022           03635                                    QTEMP
000195: 26,2023           45375                                    PERIAPO1
000196: 26,2024           77624                           CALL
000197: 26,2025           46764                                    MAXCHK
000198: 26,2026           16236                           STODL    HPER                                  #  PERIGEE ALT B+29
000199: 26,2027           00005                                    4D
000200: 26,2030           77624                           CALL
000201: 26,2031           46764                                    MAXCHK
000202: 26,2032           36234                           STCALL   HAPO                                  #  APOGEE ALT B+29
000203: 26,2033           03635                                    QTEMP
000204:
000205:
000206:
000207:    4000                                           SETLOC   P30SUBS
000208:    4000                                           BANK
000209:    4564                                           COUNT*   $$/P30
000210:    4564  E4,1636                                  EBANK=   SUBEXIT
000211:    4564           00006        P20FLGON           EXTEND
000212:    4565           23636                           QXCH     SUBEXIT
000213:    4566           07710                           TC       UPFLAG
000214:    4567           00031                           ADRES    TRACKFLG
000215:    4570           07710                           TC       UPFLAG
000216:    4571           00027                           ADRES    UPDATFLG
000217:    4572           07722                           TC       DOWNFLAG
000218:    4573           00244                           ADRES    PCFLAG
000219:    4574           01636                           TC       SUBEXIT
000220:
000221: 22,2000                                           SETLOC   P38TAG
000222: 22,2000                                           BANK
000223:                                                                                                  #  PLANE CHANGE TARGETING PROGRAM        P38
000224:                                                                                                  #
000225:                                                                                                  #  PURPOSE
000226:                                                                                                  #        TO COMPUTE PARAMETERS FOR PLANE CHANGE MANEUVER
000227:
000228:                                                                                                  #  INPUT
000229:                                                                                                  #        LASTTIG
000230:                                                                                                  #
000231:                                                                                                  #  OUTPUT
000232:                                                                                                  #        TIG             TIME OF PLANE CHANGE MANEUVER  COMPUTED TO BE
000233:                                                                                                  #                        LASTTIG + 90 DEG TRANSFER TIME
000234:                                                                                                  #        DELVLVC         DELTA VELOCITY AT PC - LOCAL VERTICAL
000235:                                                                                                  #        DELVSIN         DELTA VELOCITY AT PC - REFERENCE
000236:
000237: 22,3271                                           COUNT*   $$/P38
000238: 22,3271           04564        P38                TC       P20FLGON                              #  SET TRACK,UPDATE - CLEAR PC FLAGS
000239: 22,3272           07710                           TC       UPFLAG
000240: 22,3273           00244                           ADRES    PCFLAG
000241:
000242: 22,3274           06006                           TC       INTPRET
000243: 22,3275           71214                           CLEAR    DLOAD
000244: 22,3276           01271                                    FINALFLG
000245: 22,3277           03413                                    TIG
000246: 22,3300           03726                           STORE    LASTTIG
000247: 22,3301           77776                           EXIT
000248: 22,3302           33372                           CAF      V06N39
000249: 22,3303           05550                           TC       VNFLASH
000250: 22,3304           06006                           TC       INTPRET
000251: 22,3305           71214        P38A               SET      DLOAD
000252: 22,3306           01067                                    XDELVFLG
000253: 22,3307           03726                                    LASTTIG
000254: 22,3310           34041                           STCALL   TDEC1
000255: 22,3311           11400                                    CSMPREC                               #  INTEGRATE STATES TO LASTTIG
000256: 22,3312           43145                           DLOAD    SET
000257: 22,3313           15204                                    ZEROVECS
000258: 22,3314           03466                                    RVSW
000259: 22,3315           16726                           STODL    CSTH                                  #  COS 90 DEGREES
000260: 22,3316           05371                                    CS359+
000261: 22,3317           26724                           STOVL    SNTH                                  #  SINE 90 DEGREES
000262: 22,3320           00001                                    RATT
000263: 22,3321           26651                           STOVL    RVEC
000264: 22,3322           00007                                    VATT
000265: 22,3323           36740                           STCALL   VVEC                                  #  COMPUTE TRANSFER TIME OF 90 DEG
000266: 22,3324           25004                                    TIMETHET
000267: 22,3325           77615                           DAD
000268: 22,3326           03726                                    LASTTIG
000269: 22,3327           03413                           STORE    TIG
000270: 22,3330           77776                           EXIT
000271: 22,3331           35041                           CAF      V06N33
000272: 22,3332           05550                           TC       VNFLASH
000273: 22,3333           06006                           TC       INTPRET
000274: 22,3334           77624                           CALL
000275: 22,3335           73430                                    VN1645
000276: 22,3336           77775        P38RECYC           VLOAD
000277: 22,3337           15204                                    ZEROVECS
000278: 22,3340           17405                           STODL    DELVLVC
000279: 22,3341           03413                                    TIG
000280: 22,3342           34041                           STCALL   TDEC1
000281: 22,3343           45416                                    PRECSET
000282: 22,3344           43014                           BON      SET
000283: 22,3345           01311                                    FINALFLG
000284: 22,3346           45350                                    +2
000285: 22,3347           00470                                    UPDATFLG
000286: 22,3350           77775                 +2        VLOAD
000287: 22,3351           03524                                    VACT3
000288: 22,3352           27616                           STOVL    VTIG
000289: 22,3353           03516                                    RACT3
000290: 22,3354           37610                           STCALL   RTIG
000291: 22,3355           15667                                    DISPN90
000292: 22,3356           77624                           CALL
000293: 22,3357           73333                                    LOMAT
000294: 22,3360           61375                           VLOAD    VXM
000295: 22,3361           03405                                    DELVLVC                               #  ROTATE DV (LV TO REF)
000296: 22,3362           00001                                    0D
000297: 22,3363           77772                           VSL1
000298: 22,3364           37624                           STCALL   DELVSIN
000299: 22,3365           73430                                    VN1645
000300: 22,3366           77650                           GOTO
000301: 22,3367           45336                                    P38RECYC
000302:
000303: 22,3370           17777 37776  CS359+             2DEC     +.499999992
000304: 22,3372           01447        V06N39             VN       0639

End of include-file P30,P38.agc.  Parent file is MAIN.agc


