
Source Code


000002:                                                                                                  ## Copyright:   Public domain.
000003:                                                                                                  ## Filename:    P31-P33.agc
000004:                                                                                                  ## Purpose:     A section of Skylark revision 048.
000005:                                                                                                  ##              It is part of the source code for the Apollo Guidance Computer (AGC)
000006:                                                                                                  ##              for Skylab-2, Skylab-3, Skylab-4, and ASTP. No original listings of
000007:                                                                                                  ##              this software are available; instead, this file was created via
000008:                                                                                                  ##              disassembly of dumps of the core rope modules actually flown on
000009:                                                                                                  ##              Skylab-2. Access to these modules was provided by the New Mexico
000010:                                                                                                  ##              Museum of Space History.
000011:                                                                                                  ## Assembler:   yaYUL
000012:                                                                                                  ## Contact:     Ron Burkey <info@sandroid.org>.
000013:                                                                                                  ## Website:     www.ibiblio.org/apollo/index.html
000014:                                                                                                  ## Mod history: 2024-02-25 MAS  Created.
000015:
000016:
000017:                                                                                                  ## This log section is entirely new in Skylark. Names have been taken from
000018:                                                                                                  ## the Programmed Guidance Equations for Skylark wherever possible.
000019:
000020: 32,2000                                           SETLOC   NCPROGS
000021: 32,2000                                           BANK
000022: 32,2000  E4,1440                                  EBANK=   TCS
000023: 32,2000                                           COUNT*   $$/P3133
000024:
000025: 32,2000           04564        P31                TC       P20FLGON
000026: 32,2001           07722                           TC       DOWNFLAG
000027: 32,2002           00012                           ADRES    NC12FLG
000028:
000029: 32,2003           32010                           CAF      V06N95
000030: 32,2004           05550                           TC       VNFLASH
000031:
000032: 32,2005           32012                           CAF      V06N57
000033: 32,2006           05550                           TC       VNFLASH
000034:
000035: 32,2007           02026                           TC       GETTPI
000036:
000037: 32,2010           01537        V06N95             VN       0695
000038: 32,2011           01434        V06N28             VN       0628
000039: 32,2012           01471        V06N57             VN       0657
000040:
000041: 32,2013           04564        P32                TC       P20FLGON
000042: 32,2014           07710                           TC       UPFLAG
000043: 32,2015           00012                           ADRES    NC12FLG
000044:
000045: 32,2016           32011                           CAF      V06N28
000046: 32,2017           05550                           TC       VNFLASH
000047:
000048: 32,2020           32012                           CAF      V06N57
000049: 32,2021           05553                           TC       VNFLASHR
000050:
000051: 32,2022           02026                           TC       GETTPI
000052:
000053: 32,2023           35001                           CAF      BIT1
000054: 32,2024           05531                           TC       BLANKET
000055: 32,2025           05220                           TC       ENDOFJOB
000056:
000057: 32,2026           34600        GETTPI             CAF      V06N37
000058: 32,2027           05550                           TC       VNFLASH
000059:
000060: 32,2030           06006                           TC       INTPRET
000061: 32,2031           43145                           DLOAD    BOFF
000062: 32,2032           03766                                    NC1TIG
000063: 32,2033           00352                                    NC12FLG
000064: 32,2034           64037                                    +3
000065: 32,2035           77745                           DLOAD
000066: 32,2036           03770                                    NC2TIG
000067: 32,2037           77614                           CLEAR
000068: 32,2040           01271                                    FINALFLG
000069: 32,2041           03632                           STORE    TIMEC
000070: 32,2042           03413                           STORE    TIG
000071:
000072: 32,2043           54335                           SLOAD    SL
000073: 32,2044           02633                                    HALFREVS
000074: 32,2045           20211                                    8D
000075: 32,2046           36234                           STCALL   NC
000076: 32,2047           73430                                    VN1645
000077:
000078: 32,2050           40335        NC12ST             SLOAD    SETPD
000079: 32,2051           25346                                    25F/S
000080: 32,2052           00001                                    0
000081: 32,2053           17454                           STODL    PH1
000082: 32,2054           15204                                    HI6ZEROS
000083: 32,2055           03554                           STORE    CF
000084: 32,2056           17653                           STODL    PH2
000085: 32,2057           25342                                    165F/S
000086: 32,2060           03450                           STORE    DVH1
000087:
000088: 32,2061           41414                           BOFF     PUSH
000089: 32,2062           00352                                    NC12FLG
000090: 32,2063           64071                                    +6
000091:
000092: 32,2064           77735                           SLOAD
000093: 32,2065           02053                                    NH1
000094: 32,2066           16234                           STODL    NC
000095: 32,2067           77650                           GOTO
000096: 32,2070           64073                                    +3
000097:
000098: 32,2071           77745                           DLOAD
000099: 32,2072           25344                                    225F/S
000100:
000101: 32,2073           17552                           STODL    DVC
000102: 32,2074           25346                                    25F/S
000103: 32,2075           17452                           STODL    DVH2
000104: 32,2076           15202                                    DPHALF
000105: 32,2077           17546                           STODL    PI
000106: 32,2100           03632                                    TIMEC
000107: 32,2101           03645                           STORE    TN
000108: 32,2102           34041                           STCALL   TDEC1
000109: 32,2103           11400                                    CSMPREC
000110:
000111: 32,2104           77214                           CLEAR    VLOAD
000112: 32,2105           01262                                    ITERFLG
000113: 32,2106           00001                                    RATT
000114: 32,2107           03610                           STORE    RTIG
000115: 32,2110           26453                           STOVL    RAC
000116: 32,2111           00007                                    VATT
000117: 32,2112           03616                           STORE    VTIG
000118: 32,2113           17516                           STODL    VAC
000119: 32,2114           03632                                    TIMEC
000120: 32,2115           34041                           STCALL   TDEC1
000121: 32,2116           11435                                    LEMCONIC
000122:
000123: 32,2117           77775                           VLOAD
000124: 32,2120           00007                                    VATT
000125: 32,2121           26545                           STOVL    VPC
000126: 32,2122           00001                                    RATT
000127: 32,2123           02533                           STORE    RPC
000128:
000129: 32,2124           53435        PHSMCH             VXV      UNIT
000130: 32,2125           02545                                    VPC
000131: 32,2126           77606                           PUSH
000132: 32,2127           26611                           STOVL    AM1
000133: 32,2130           02453                                    RAC
000134: 32,2131           47206                           PUSH     VXV
000135: 32,2132           03516                                    VAC
000136: 32,2133           47256                           UNIT     VXV
000137: 32,2134           53435                           VXV      UNIT
000138: 32,2135           77606                           PUSH
000139: 32,2136           26360                           STOVL    URPD
000140: 32,2137           02533                                    RPC
000141: 32,2140           50256                           UNIT     DOT
000142: 32,2141           65552                           SL1      ACOS
000143: 32,2142           63221                           BDSU     PDVL
000144: 32,2143           03546                                    PI
000145: 32,2144           02360                                    URPD
000146: 32,2145           50235                           VXV      DOT
000147: 32,2146           02533                                    RPC
000148: 32,2147           02611                                    AM1
000149: 32,2150           75325                           PDDL     SIGN
000150: 32,2151           40221                           BDSU     SETPD
000151: 32,2152           03546                                    PI
000152: 32,2153           00003                                    2
000153: 32,2154           17647                           STODL    TH2
000154:
000155: 32,2155           71240                           BMN      DLOAD
000156: 32,2156           64210                                    NC12B
000157: 32,2157           02234                                    NC
000158: 32,2160           50025                           DSU      BMN
000159: 32,2161           25354                                    18B5
000160: 32,2162           64210                                    NC12B
000161: 32,2163           53145                           DLOAD    BZE
000162: 32,2164           03546                                    PI
000163: 32,2165           64210                                    NC12B
000164: 32,2166           63375                           VLOAD    PDVL
000165: 32,2167           02533                                    RPC
000166: 32,2170           02545                                    VPC
000167: 32,2171           65325                           PDDL     PDDL
000168: 32,2172           03632                                    TIMEC
000169: 32,2173           25330                                    1B5
000170: 32,2174           45006                           PUSH     CALL
000171: 32,2175           65105                                    REVUP
000172: 32,2176           45345                           DLOAD    DSU
000173: 32,2177           03564                                    RATEMP
000174: 32,2200           03632                                    TIMEC
000175: 32,2201           77621                           BDSU
000176: 32,2202           03645                                    TN
000177: 32,2203           17645                           STODL    TN
000178: 32,2204           03647                                    TH2
000179: 32,2205           41446                           ABS      PUSH
000180: 32,2206           77650                           GOTO
000181: 32,2207           64224                                    NC12J
000182:
000183: 32,2210           51545        NC12B              DLOAD    ABS
000184: 32,2211           03647                                    TH2
000185: 32,2212           41406                           PUSH     PUSH
000186: 32,2213           50025                           DSU      BMN
000187: 32,2214           02043                                    EPS1
000188: 32,2215           64301                                    NC12F
000189: 32,2216           53145                           DLOAD    BZE
000190: 32,2217           03454                                    PH1
000191: 32,2220           65021                                    PSMALRM
000192: 32,2221           77625                           DSU
000193: 32,2222           16336                                    DPB-14
000194: 32,2223           17454                           STODL    PH1
000195:
000196: 32,2224           43146        NC12J              COS      SET
000197: 32,2225           03466                                    RVSW
000198: 32,2226           16726                           STODL    CSTH
000199: 32,2227           77756                           SIN
000200: 32,2230           26724                           STOVL    SNTH
000201: 32,2231           02533                                    RPC
000202: 32,2232           26651                           STOVL    RVEC
000203: 32,2233           02545                                    VPC
000204: 32,2234           77765                           SIGN
000205: 32,2235           03647                                    TH2
000206: 32,2236           36740                           STCALL   VVEC
000207: 32,2237           25004                                    TIMETHET
000208:
000209: 32,2240           53145                           DLOAD    BZE
000210: 32,2241           03546                                    PI
000211: 32,2242           64254                                    NC12C
000212:
000213: 32,2243           77745                           DLOAD
000214: 32,2244           15204                                    HI6ZEROS
000215: 32,2245           27546                           STOVL    PI
000216: 32,2246           01704                                    R-OTHER
000217: 32,2247           26533                           STOVL    RPC
000218: 32,2250           01712                                    V-OTHER
000219: 32,2251           16545                           STODL    VPC
000220: 32,2252           01643                                    T-OTHER
000221: 32,2253           03456                           STORE    TPC
000222:
000223: 32,2254           40214        NC12C              CLEAR    SETPD
000224: 32,2255           00275                                    NCINTFLG
000225: 32,2256           00001                                    0
000226:
000227: 32,2257           63375                           VLOAD    PDVL
000228: 32,2260           02533                                    RPC
000229: 32,2261           02545                                    VPC
000230: 32,2262           65325                           PDDL     PDDL
000231: 32,2263           03456                                    TPC
000232: 32,2264           00037                                    30D
000233: 32,2265           44365                           SIGN     BDSU
000234: 32,2266           03647                                    TH2
000235: 32,2267           03645                                    TN
000236: 32,2270           03645                           STORE    TN
000237: 32,2271           03456                           STORE    TPC
000238: 32,2272           34041                           STCALL   TDEC1
000239: 32,2273           65062                                    NCINT
000240:
000241: 32,2274           45575                           VLOAD    STADR
000242: 32,2275           51232                           STOVL    VPC
000243: 32,2276           77626                           STADR
000244: 32,2277           41244                           STCALL   RPC
000245: 32,2300           64124                                    PHSMCH
000246:
000247: 32,2301           40345        NC12F              DLOAD    SETPD
000248: 32,2302           15204                                    HI6ZEROS
000249: 32,2303           00001                                    0
000250: 32,2304           27454                           STOVL    PH1
000251: 32,2305           02453                                    RAC
000252: 32,2306           77624                           CALL
000253: 32,2307           65173                                    VECPROJ
000254: 32,2310           26453                           STOVL    RAC
000255: 32,2311           03516                                    VAC
000256: 32,2312           77624                           CALL
000257: 32,2313           65173                                    VECPROJ
000258: 32,2314           27516                           STOVL    VAC
000259: 32,2315           02533                                    RPC
000260: 32,2316           65315                           PDVL     PDDL
000261: 32,2317           02545                                    VPC
000262: 32,2320           03456                                    TPC
000263: 32,2321           43125                           PDDL     SET
000264: 32,2322           03643                                    TTPI
000265: 32,2323           00075                                    NCINTFLG
000266: 32,2324           34041                           STCALL   TDEC1
000267: 32,2325           65062                                    NCINT
000268:
000269: 32,2326           77214                           SET      VLOAD
000270: 32,2327           00075                                    NCINTFLG
000271:
000272: 32,2330           77626                           STADR
000273: 32,2331           51417                           STOVL    VPTPI
000274: 32,2332           77626                           STADR
000275: 32,2333           61332                           STODL    RPTPI
000276: 32,2334           02051                                    DELH1
000277: 32,2335           36236                           STCALL   DELH
000278: 32,2336           65605                                    QRDTPI
000279: 32,2337           77775                           VLOAD
000280: 32,2340           53575                           VLOAD    UNIT
000281: 32,2341           00001                                    0
000282: 32,2342           76561                           VXSC     VSL1
000283: 32,2343           02051                                    DELH1
000284: 32,2344           45445                           BVSU     STADR
000285: 32,2345           74237                           STORE    RAFD
000286:
000287: 32,2346           41575        NC1LOOP            VLOAD    PUSH
000288: 32,2347           02453                                    RAC
000289: 32,2350           47315                           PDVL     VXV
000290: 32,2351           02611                                    AM1
000291: 32,2352           74256                           UNIT     VXSC
000292: 32,2353           03552                                    DVC
000293: 32,2354           53372                           VSL1     VAD
000294: 32,2355           03516                                    VAC
000295: 32,2356           65325                           PDDL     PDDL
000296: 32,2357           03632                                    TIMEC
000297: 32,2360           02234                                    NC
000298: 32,2361           45006                           PUSH     CALL
000299: 32,2362           65105                                    REVUP
000300:
000301: 32,2363           43175                           VLOAD    BON
000302: 32,2364           00001                                    RATT
000303: 32,2365           00312                                    NC12FLG
000304: 32,2366           64433                                    NC2A
000305: 32,2367           26445                           STOVL    RAH1
000306: 32,2370           00007                                    VATT
000307: 32,2371           16360                           STODL    VAH1
000308: 32,2372           03564                                    RATEMP
000309: 32,2373           17645                           STODL    TH1
000310: 32,2374           03554                                    CF
000311: 32,2375           71254                           BZE      DLOAD
000312: 32,2376           64400                                    +2
000313: 32,2377           25326                                    0.5B5
000314: 32,2400           03546                           STORE    CI
000315:
000316: 32,2401           41575        NC2LOOP            VLOAD    PUSH
000317: 32,2402           02445                                    RAH1
000318: 32,2403           47315                           PDVL     VXV
000319: 32,2404           02611                                    AM1
000320: 32,2405           74256                           UNIT     VXSC
000321: 32,2406           03450                                    DVH1
000322: 32,2407           53372                           VSL1     VAD
000323: 32,2410           02360                                    VAH1
000324: 32,2411           41525                           PDDL     PUSH
000325: 32,2412           03645                                    TH1
000326: 32,2413           41535                           SLOAD    PUSH
000327: 32,2414           02053                                    NH1
000328: 32,2415           77624                           CALL
000329: 32,2416           65105                                    REVUP
000330:
000331: 32,2417           77775                           VLOAD
000332: 32,2420           00007                                    VATT
000333: 32,2421           17600                           STODL    VAH2
000334: 32,2422           03564                                    RATEMP
000335: 32,2423           27647                           STOVL    TH2
000336: 32,2424           00001                                    RATT
000337: 32,2425           43006                           PUSH     CLEAR
000338: 32,2426           00666                                    NCLPFLG
000339: 32,2427           17566                           STODL    RAH2
000340: 32,2430           02045                                    DHNCC
000341: 32,2431           37562                           STCALL   DELHTMP
000342: 32,2432           64577                                    EHCOMP
000343:
000344: 32,2433           27566        NC2A               STOVL    RAH2
000345: 32,2434           00007                                    VATT
000346: 32,2435           17600                           STODL    VAH2
000347: 32,2436           03564                                    RATEMP
000348: 32,2437           03647                           STORE    TH2
000349:
000350: 32,2440           53145        NC12D              DLOAD    BZE
000351: 32,2441           03554                                    CF
000352: 32,2442           64445                                    +3
000353: 32,2443           77745                           DLOAD
000354: 32,2444           25326                                    0.5B5
000355: 32,2445           03546                           STORE    CI
000356:
000357: 32,2446           41575        NCCLOOP            VLOAD    PUSH
000358: 32,2447           03566                                    RAH2
000359: 32,2450           47315                           PDVL     VXV
000360: 32,2451           02611                                    AM1
000361: 32,2452           74256                           UNIT     VXSC
000362: 32,2453           03452                                    DVH2
000363: 32,2454           53372                           VSL1     VAD
000364: 32,2455           03600                                    VAH2
000365: 32,2456           41525                           PDDL     PUSH
000366: 32,2457           03647                                    TH2
000367: 32,2460           43015                           DAD      SET
000368: 32,2461           02041                                    TCS
000369: 32,2462           00075                                    NCINTFLG
000370: 32,2463           03651                           STORE    TAS
000371: 32,2464           34041                           STCALL   TDEC1
000372: 32,2465           65062                                    NCINT
000373:
000374: 32,2466           45575                           VLOAD    STADR
000375: 32,2467           50253                           STOVL    VAS
000376: 32,2470           00001                                    RATT
000377: 32,2471           36366                           STCALL   RAS
000378: 32,2472           65142                                    RADUP
000379:
000380: 32,2473           51406                           PUSH     ABS
000381: 32,2474           51515                           PDVL     ABS
000382: 32,2475           02366                                    RAS
000383: 32,2476           45421                           BDSU     STADR
000384: 32,2477           51541                           STOVL    DELH
000385: 32,2500           77624                           CALL
000386: 32,2501           62355                                    COE
000387:
000388: 32,2502           43175                           VLOAD    SET
000389: 32,2503           02366                                    RAS
000390: 32,2504           00075                                    NCINTFLG
000391: 32,2505           45515                           PDVL     STADR
000392: 32,2506           74245                           STORE    VASF
000393: 32,2507           65325                           PDDL     PDDL
000394: 32,2510           03651                                    TAS
000395: 32,2511           03643                                    TTPI
000396: 32,2512           34041                           STCALL   TDEC1
000397: 32,2513           65062                                    NCINT
000398:
000399: 32,2514           40375                           VLOAD    SETPD
000400: 32,2515           00001                                    RATT
000401: 32,2516           00001                                    0
000402: 32,2517           03624                           STORE    RAF
000403:
000404: 32,2520           43125                           PDDL     SET
000405: 32,2521           02051                                    DELH1
000406: 32,2522           00466                                    NCLPFLG
000407: 32,2523           37562                           STCALL   DELHTMP
000408: 32,2524           64577                                    EHCOMP
000409:
000410: 32,2525           53575        NC12G              VLOAD    UNIT
000411: 32,2526           03540                                    RAFD
000412: 32,2527           53515                           PDVL     UNIT
000413: 32,2530           03624                                    RAF
000414: 32,2531           72441                           DOT      SL1
000415: 32,2532           63326                           ACOS     PDVL
000416: 32,2533           03624                                    RAF
000417: 32,2534           50235                           VXV      DOT
000418: 32,2535           03540                                    RAFD
000419: 32,2536           02611                                    AM1
000420: 32,2537           75325                           PDDL     SIGN
000421: 32,2540           77626                           STADR
000422: 32,2541           77774                           STORE    2
000423:
000424: 32,2542           65246                           ABS      PDDL
000425: 32,2543           02043                                    EPS1
000426: 32,2544           44312                           SL2      BDSU
000427: 32,2545           40240                           BMN      SETPD
000428: 32,2546           64700                                    NC12OUT
000429: 32,2547           00005                                    4
000430:
000431: 32,2550           65345                           DLOAD    PDDL
000432: 32,2551           03552                                    DVC
000433: 32,2552           41525                           PDDL     PUSH
000434: 32,2553           03554                                    CF
000435: 32,2554           77745                           DLOAD
000436: 32,2555           03556                                    EOP
000437: 32,2556           16543                           STODL    EO
000438: 32,2557           03560                                    DVOC
000439: 32,2560           36541                           STCALL   DVO
000440: 32,2561           65203                                    ITER
000441:
000442: 32,2562           77614                           BON
000443: 32,2563           01302                                    ITERFLG
000444: 32,2564           65055                                    OLPALRM
000445:
000446: 32,2565           45545                           DLOAD    STADR
000447: 32,2566           60223                           STODL    CF
000448: 32,2567           77626                           STADR
000449: 32,2570           60225                           STODL    DVC
000450: 32,2571           77745                           DLOAD
000451: 32,2572           02541                                    DVO
000452: 32,2573           17560                           STODL    DVOC
000453: 32,2574           02543                                    EO
000454: 32,2575           37556                           STCALL   EOP
000455: 32,2576           64346                                    NC1LOOP
000456:
000457: 32,2577           51575        EHCOMP             VLOAD    ABS
000458: 32,2600           00001                                    0
000459: 32,2601           37564                           STCALL   RATEMP
000460: 32,2602           65142                                    RADUP
000461: 32,2603           45246                           ABS      DSU
000462: 32,2604           03564                                    RATEMP
000463: 32,2605           41425                           DSU      PUSH
000464: 32,2606           03562                                    DELHTMP
000465: 32,2607           14003                           STODL    2
000466: 32,2610           03454                                    PH1
000467: 32,2611           71214                           BOFF     DLOAD
000468: 32,2612           00746                                    NCLPFLG
000469: 32,2613           64615                                    +2
000470: 32,2614           03653                                    PH2
000471: 32,2615           00001                           STORE    0
000472:
000473: 32,2616           71254                           BZE      DLOAD
000474: 32,2617           64624                                    ITERUP
000475: 32,2620           45246                           ABS      DSU
000476: 32,2621           02047                                    EPS2
000477: 32,2622           77640                           BMN
000478: 32,2623           64672                                    LOOPX
000479:
000480: 32,2624           71201        ITERUP             SETPD    DLOAD
000481: 32,2625           00005                                    4
000482: 32,2626           03450                                    DVH1
000483: 32,2627           71214                           BOFF     DLOAD
000484: 32,2630           00746                                    NCLPFLG
000485: 32,2631           64633                                    +2
000486: 32,2632           03452                                    DVH2
000487: 32,2633           77725                           PDDL
000488: 32,2634           41525                           PDDL     PUSH
000489: 32,2635           03546                                    CI
000490: 32,2636           43150                           LXA,1    BOFF
000491: 32,2637           03605                                    PSHFT1
000492: 32,2640           00746                                    NCLPFLG
000493: 32,2641           64644                                    +3
000494: 32,2642           77750                           LXA,1
000495: 32,2643           03606                                    PSHFT2
000496: 32,2644           77624                           CALL
000497: 32,2645           65203                                    ITER
000498:
000499: 32,2646           77614                           BON
000500: 32,2647           01302                                    ITERFLG
000501: 32,2650           65047                                    ILPALRM
000502:
000503: 32,2651           45545                           DLOAD    STADR
000504: 32,2652           74231                           STORE    CI
000505:
000506: 32,2653           71214                           BOFF     DLOAD
000507: 32,2654           00746                                    NCLPFLG
000508: 32,2655           64664                                    NC2ITR
000509: 32,2656           77730                           SXA,1
000510: 32,2657           03606                                    PSHFT2
000511: 32,2660           17452                           STODL    DVH2
000512: 32,2661           77626                           STADR
000513: 32,2662           40124                           STCALL   PH2
000514: 32,2663           64446                                    NCCLOOP
000515:
000516: 32,2664           45545        NC2ITR             DLOAD    STADR
000517: 32,2665           60327                           STODL    DVH1
000518: 32,2666           77730                           SXA,1
000519: 32,2667           03605                                    PSHFT1
000520: 32,2670           37454                           STCALL   PH1
000521: 32,2671           64401                                    NC2LOOP
000522:
000523: 32,2672           43001        LOOPX              SETPD    BOFF
000524: 32,2673           00001                                    0
000525: 32,2674           00746                                    NCLPFLG
000526: 32,2675           64440                                    NC12D
000527: 32,2676           77650                           GOTO
000528: 32,2677           64525                                    NC12G
000529:
000530: 32,2700           65375        NC12OUT            VLOAD    PDDL
000531: 32,2701           15204                                    ZEROVECS
000532: 32,2702           03552                                    DVC
000533: 32,2703           77666                           VDEF
000534: 32,2704           27405                           STOVL    DELVLVC
000535: 32,2705           02611                                    AM1
000536: 32,2706           40276                           VCOMP    SETPD
000537: 32,2707           00007                                    6
000538: 32,2710           53515                           PDVL     UNIT
000539: 32,2711           02366                                    RAS
000540: 32,2712           41476                           VCOMP    PUSH
000541: 32,2713           76435                           VXV      VSL1
000542: 32,2714           02611                                    AM1
000543: 32,2715           24001                           STOVL    0
000544: 32,2716           03532                                    VASF
000545: 32,2717           64251                           VSU      MXV
000546: 32,2720           03524                                    VAS
000547: 32,2721           00001                                    0
000548: 32,2722           77772                           VSL1
000549: 32,2723           16617                           STODL    VGNSR
000550: 32,2724           03651                                    TAS
000551: 32,2725           16461                           STODL    TNSR
000552: 32,2726           03647                                    TH2
000553: 32,2727           16463                           STODL    TNCC
000554: 32,2730           03452                                    DVH2
000555: 32,2731           40214                           BON      SETPD
000556: 32,2732           00312                                    NC12FLG
000557: 32,2733           64752                                    NC2N80
000558: 32,2734           00001                                    0
000559: 32,2735           17576                           STODL    DVDSP2
000560: 32,2736           03450                                    DVH1
000561: 32,2737           17574                           STODL    DVDSP1
000562: 32,2740           03645                                    TH1
000563: 32,2741           27770                           STOVL    NC2TIG
000564: 32,2742           02445                                    RAH1
000565: 32,2743           45006                           PUSH     CALL
000566: 32,2744           65142                                    RADUP
000567:
000568: 32,2745           63246                           ABS      PDVL
000569: 32,2746           02445                                    RAH1
000570: 32,2747           44246                           ABS      BDSU
000571: 32,2750           77650                           GOTO
000572: 32,2751           64757                                    NC12DH
000573:
000574: 32,2752           27574        NC2N80             STOVL    DVDSP1
000575: 32,2753           02617                                    VGNSR
000576: 32,2754           77646                           ABS
000577: 32,2755           17576                           STODL    DVDSP2
000578: 32,2756           02045                                    DHNCC
000579:
000580: 32,2757           03550        NC12DH             STORE    DHDSP
000581:
000582: 32,2760           43014                           BON      SET
000583: 32,2761           01311                                    FINALFLG
000584: 32,2762           64764                                    +2
000585: 32,2763           00470                                    UPDATFLG
000586: 32,2764           77776                           EXIT
000587:
000588: 32,2765           33020                           CAF      V06N84
000589: 32,2766           04647                           TC       BANKCALL
000590: 32,2767           20623                           CADR     GOFLASH
000591: 32,2770           04103                           TC       GOTOPOOH
000592: 32,2771           12773                           TCF      +2
000593: 32,2772           12765                           TCF      -5
000594:
000595: 32,2773           06006                           TC       INTPRET
000596: 32,2774           71214                           BOFF     DLOAD
000597: 32,2775           00352                                    NC12FLG
000598: 32,2776           65001                                    NC12H      -1
000599: 32,2777           03550                                    DHDSP
000600: 32,3000           02045                           STORE    DHNCC
000601: 32,3001           77776                           EXIT
000602:
000603: 32,3002           34603        NC12H              CAF      V06N81
000604: 32,3003           05550                           TC       VNFLASH
000605:
000606: 32,3004           06006                           TC       INTPRET
000607: 32,3005           77624                           CALL
000608: 32,3006           32050                                    S32/33.X
000609: 32,3007           61375                           VLOAD    VXM
000610: 32,3010           03405                                    DELVLVC
000611: 32,3011           00001                                    0
000612: 32,3012           76414                           SET      VSL1
000613: 32,3013           01067                                    XDELVFLG
000614: 32,3014           37624                           STCALL   DELVSIN
000615: 32,3015           73430                                    VN1645
000616: 32,3016           77650                           GOTO
000617: 32,3017           64050                                    NC12ST
000618:
000619: 32,3020           01524        V06N84             VN       0684
000620:
000621: 32,3021           45175        PSMALRM            VLOAD    CALL
000622: 32,3022           02453                                    RAC
000623: 32,3023           65173                                    VECPROJ
000624: 32,3024           02453                           STORE    RAC
000625:
000626: 32,3025           77735                           SLOAD
000627: 32,3026           25350                                    ALARM/TB
000628:
000629: 32,3027           43014        DISPALM            BON      SET
000630: 32,3030           01311                                    FINALFLG
000631: 32,3031           65033                                    +2
000632: 32,3032           00470                                    UPDATFLG
000633: 32,3033           77624                           CALL
000634: 32,3034           65273                                    NCALARM
000635:
000636: 32,3035           77775                           VLOAD
000637: 32,3036           15204                                    ZEROVECS
000638: 32,3037           03405                           STORE    DELVLVC
000639: 32,3040           77776                           EXIT
000640:
000641: 32,3041           05367                           TC       CHECKMM
000642: 32,3042           00041                           MM       33         B-14
000643: 32,3043           13002                           TCF      NC12H
000644:
000645: 32,3044           07722                           TC       DOWNFLAG
000646: 32,3045           00045                           ADRES    XDELVFLG
000647:
000648: 32,3046           13545                           TCF      N81DISP
000649:
000650: 32,3047           52135        ILPALRM            SLOAD    GOTO
000651: 32,3050           25351                                    ALARM/TB   +1
000652: 32,3051           65027                                    DISPALM
000653:
000654: 32,3052           52135        QRDALRM            SLOAD    GOTO
000655: 32,3053           25353                                    ALARM/TB   +3
000656: 32,3054           65027                                    DISPALM
000657:
000658: 32,3055           45135        OLPALRM            SLOAD    CALL
000659: 32,3056           25352                                    ALARM/TB   +2
000660: 32,3057           65273                                    NCALARM
000661: 32,3060           77650                           GOTO
000662: 32,3061           64700                                    NC12OUT
000663:
000664: 32,3062           45020        NCINT              STQ      CALL
000665: 32,3063           02633                                    NCINTOUT
000666: 32,3064           11720                                    INTSTALL
000667:
000668: 32,3065           43014                           CLEAR    BOFF
000669: 32,3066           01673                                    INTYPFLG
000670: 32,3067           00355                                    NCINTFLG
000671: 32,3070           65073                                    +3
000672: 32,3071           77614                           SET
000673: 32,3072           01473                                    INTYPFLG
000674: 32,3073           45545                           DLOAD    STADR
000675: 32,3074           52260                           STOVL    TET
000676: 32,3075           77626                           STADR
000677: 32,3076           52234                           STOVL    VCV
000678: 32,3077           77626                           STADR
000679: 32,3100           42242                           STCALL   RCV
000680: 32,3101           11444                                    INTEGRVS
000681: 32,3102           52001                           SETPD    GOTO
000682: 32,3103           00015                                    12D
000683: 32,3104           02633                                    NCINTOUT
000684:
000685: 32,3105           77220        REVUP              STQ      VLOAD
000686: 32,3106           02552                                    QSAVER
000687: 32,3107           00007                                    6
000688: 32,3110           41241                           DOT      DMP
000689: 32,3111           00007                                    6
000690: 32,3112           25320                                    1/MUE
000691: 32,3113           51515                           PDVL     ABS
000692: 32,3114           00001                                    0
000693: 32,3115           55301                           NORM     BDDV
000694: 32,3116           00047                                    X1
000695: 32,3117           15174                                    2B3
000696: 32,3120           45257                           SL*      DSU
000697: 32,3121           20173                                    0          -6,1
000698: 32,3122           41465                           BDDV     PUSH
000699: 32,3123           25322                                    1B4
000700: 32,3124           41366                           SQRT     DMP
000701: 32,3125           25324                                    1/SQMU
000702: 32,3126           70405                           DMP      SR1
000703: 32,3127           41205                           DMP      DMP
000704: 32,3130           25332                                    2PIB3
000705: 32,3131           43015                           DAD      SET
000706: 32,3132           00015                                    12D
000707: 32,3133           00075                                    NCINTFLG
000708: 32,3134           03564                           STORE    RATEMP
000709: 32,3135           34041                           STCALL   TDEC1
000710: 32,3136           65062                                    NCINT
000711:
000712: 32,3137           52001                           SETPD    GOTO
000713: 32,3140           00001                                    0
000714: 32,3141           02552                                    QSAVER
000715:
000716: 32,3142           77220        RADUP              STQ      VLOAD
000717: 32,3143           02552                                    QSAVER
000718: 32,3144           02545                                    VPC
000719: 32,3145           26740                           STOVL    VVEC
000720: 32,3146           02533                                    RPC
000721: 32,3147           02651                           STORE    RVEC
000722: 32,3150           47206                           PUSH     VXV
000723: 32,3151           02740                                    VVEC
000724: 32,3152           77715                           PDVL
000725: 32,3153           50235                           VXV      DOT
000726: 32,3154           00001                                    0
000727: 32,3155           53515                           PDVL     UNIT
000728: 32,3156           53515                           PDVL     UNIT
000729: 32,3157           02651                                    RVEC
000730: 32,3160           72441                           DOT      SL1
000731: 32,3161           75326                           ACOS     SIGN
000732: 32,3162           71406                           PUSH     COS
000733: 32,3163           16726                           STODL    CSTH
000734: 32,3164           43156                           SIN      CLEAR
000735: 32,3165           03666                                    RVSW
000736: 32,3166           36724                           STCALL   SNTH
000737: 32,3167           25004                                    TIMETHET
000738: 32,3170           77715                           PDVL
000739: 32,3171           77650                           GOTO
000740: 32,3172           02552                                    QSAVER
000741:


000743: 32,3173           41406        VECPROJ            PUSH     PUSH
000744: 32,3174           74241                           DOT      VXSC
000745: 32,3175           02611                                    AM1
000746: 32,3176           02611                                    AM1
000747: 32,3177           51352                           SL1      BVSU
000748: 32,3200           63256                           UNIT     PDVL
000749: 32,3201           74246                           ABS      VXSC
000750: 32,3202           43572                           VSL1     RVQ
000751:
000752: 32,3203           77745        ITER               DLOAD
000753: 32,3204           45254                           BZE      DSU
000754: 32,3205           65240                                    ITER0
000755: 32,3206           25326                                    0.5B5
000756: 32,3207           71254                           BZE      DLOAD
000757: 32,3210           65246                                    ITER2
000758: 32,3211           53025                           DSU      BZE
000759: 32,3212           02543                                    EO
000760: 32,3213           65243                                    ITER1
000761: 32,3214           70501                           NORM     SR1
000762: 32,3215           00047                                    X1
000763: 32,3216           14011                           STODL    8D
000764: 32,3217           60225                           DSU      NORM
000765: 32,3220           02541                                    DVO
000766: 32,3221           00050                                    X2
000767: 32,3222           54065                           BDDV     XSU,1
000768: 32,3223           00011                                    8D
000769: 32,3224           00047                                    X2
000770: 32,3225           56101                           NORM     XAD,1
000771: 32,3226           00050                                    X2
000772: 32,3227           00047                                    X2
000773: 32,3230           77725                           PDDL
000774: 32,3231           45345                           DLOAD    DSU
000775: 32,3232           00007                                    6D
000776: 32,3233           25334                                    14B5
000777: 32,3234           43040                           BMN      SET
000778: 32,3235           65246                                    ITER2
000779: 32,3236           01062                                    ITERFLG
000780: 32,3237           77616                           RVQ
000781:


000783: 32,3240           52145        ITER0              DLOAD    GOTO
000784: 32,3241           25340                                    1F/S
000785: 32,3242           65256                                    ITER3
000786:
000787: 32,3243           52145        ITER1              DLOAD    GOTO
000788: 32,3244           25336                                    0.3F/S
000789: 32,3245           65256                                    ITER3
000790:
000791: 32,3246           60345        ITER2              DLOAD    NORM
000792: 32,3247           00005                                    4D
000793: 32,3250           00050                                    X2
000794: 32,3251           56342                           SR1      DDV
000795: 32,3252           00001                                    0
000796: 32,3253           53664                           XSU,2    SR*
000797: 32,3254           00046                                    X1
000798: 32,3255           57176                                    0,2
000799:
000800: 32,3256           77601        ITER3              SETPD
000801: 32,3257           00005                                    4
000802: 32,3260           14011                           STODL    8D
000803: 32,3261           00005                                    4
000804: 32,3262           16543                           STODL    EO
000805: 32,3263           77626                           STADR
000806: 32,3264           75236                           STORE    DVO
000807: 32,3265           65225                           DSU      PDDL
000808: 32,3266           00011                                    8D
000809: 32,3267           00007                                    6D
000810: 32,3270           41415                           DAD      PUSH
000811: 32,3271           25330                                    1B5
000812: 32,3272           77616                           RVQ
000813:


000815: 32,3273           77420        NCALARM            STQ      EXIT
000816: 32,3274           02552                                    QSAVER
000817:
000818: 32,3275           30154                           CA       MPAC
000819: 32,3276           05743                           TC       VARALARM
000820:
000821: 32,3277           35036                           CAF      V05N09
000822: 32,3300           04647                           TC       BANKCALL
000823: 32,3301           20623                           CADR     GOFLASH
000824: 32,3302           04103                           TC       GOTOPOOH
000825: 32,3303           03314                           TC       NCALMOUT
000826:
000827: 32,3304           05367                           TC       CHECKMM
000828: 32,3305           00041                           MM       33         B-14
000829: 32,3306           13310                           TCF      +2
000830: 32,3307           13355                           TCF      P33
000831:
000832: 32,3310           05367                           TC       CHECKMM
000833: 32,3311           00040                           MM       32         B-14
000834: 32,3312           12000                           TCF      P31
000835:
000836: 32,3313           12013                           TCF      P32
000837:


000839: 32,3314           06006        NCALMOUT           TC       INTPRET
000840: 32,3315           77650                           GOTO
000841: 32,3316           02552                                    QSAVER
000842:
000843: 32,3317           15625 21042  1/MUE              2DEC*    .25087606  E-10       B+34*
000844: 32,3321           02000 00000  1B4                2DEC     1          B-4
000845: 32,3323           25004 06702  1/SQMU             2DEC*    .50087529  E-5        B+17*
000846: 32,3325           00400 00000  0.5B5              2DEC     .5         B-5
000847: 32,3327           01000 00000  1B5                2DEC     1          B-5
000848: 32,3331  26,3173               2B3                =        DP1/4TH
000849: 32,3331           31103 36652  2PIB3              2DEC     6.2831853  B-3
000850: 32,3333           16000 00000  14B5               2DEC     14         B-5
000851: 32,3335           00001 05350  0.3F/S             2DEC     0.009144   B-7
000852: 32,3337           00000 14370  1F/S               2DEC     0.003048   B-7
000853: 32,3341           00100 13754  165F/S             2DEC     0.50292    B-7
000854: 32,3343           00127 31023  225F/S             2DEC     0.68580    B-7
000855: 32,3345           00011 30073  25F/S              2DEC     0.07620    B-7
000856:


000858: 32,3347           00600        ALARM/TB           OCT      00600                                 #  NO 1
000859: 32,3350           00601                           OCT      00601                                 #     2
000860: 32,3351           00602                           OCT      00602                                 #     3
000861: 32,3352           00603                           OCT      00603                                 #     4
000862:
000863: 32,3353           22000 00000  18B5               2DEC     18         B-5
000864:
000865: 32,3355           04564        P33                TC       P20FLGON
000866:
000867: 32,3356           34575                           CAF      V06N11
000868: 32,3357           05550                           TC       VNFLASH
000869:
000870: 32,3360           06006                           TC       INTPRET
000871: 32,3361           43345                           DLOAD    DAD
000872: 32,3362           02463                                    TNCC
000873: 32,3363           02041                                    TCS
000874: 32,3364           02461                           STORE    TNSR
000875: 32,3365           77776                           EXIT
000876:
000877: 32,3366           34576                           CAF      V06N13
000878: 32,3367           05550                           TC       VNFLASH
000879:
000880: 32,3370           34600                           CAF      V06N37
000881: 32,3371           05550                           TC       VNFLASH
000882:
000883: 32,3372           06006                           TC       INTPRET
000884: 32,3373           43145                           DLOAD    CLEAR
000885: 32,3374           02463                                    TNCC
000886: 32,3375           01271                                    FINALFLG
000887: 32,3376           03413                           STORE    TIG
000888:
000889: 32,3377           77624        DISP45A            CALL
000890: 32,3400           73430                                    VN1645
000891: 32,3401           77745                           DLOAD
000892: 32,3402           02463                                    TNCC
000893: 32,3403           00041                           STORE    TDEC1
000894: 32,3404           36332                           STCALL   INTIME
000895: 32,3405           11400                                    CSMPREC
000896:
000897: 32,3406           77775                           VLOAD
000898: 32,3407           00001                                    RATT
000899: 32,3410           03546                           STORE    RINIT
000900: 32,3411           27532                           STOVL    RPASS3
000901: 32,3412           00007                                    VATT
000902: 32,3413           03554                           STORE    VINIT
000903: 32,3414           17524                           STODL    VACT3
000904: 32,3415           02461                                    TNSR
000905: 32,3416           34041                           STCALL   TDEC1
000906: 32,3417           11414                                    LEMPREC
000907:
000908: 32,3420           43175                           VLOAD    CLEAR
000909: 32,3421           00007                                    VATT
000910: 32,3422           01262                                    ITERFLG
000911: 32,3423           25543                           STOVL    VCV
000912: 32,3424           00001                                    RATT
000913: 32,3425           01535                           STORE    RCV
000914:
000915: 32,3426           53435                           VXV      UNIT
000916: 32,3427           01543                                    VCV
000917: 32,3430           16611                           STODL    UP1
000918: 32,3431           03643                                    TTPI
000919:
000920: 32,3432           34041        NCCDMP4            STCALL   TDEC1
000921: 32,3433           11414                                    LEMPREC
000922:
000923: 32,3434           43175                           VLOAD    CLEAR
000924: 32,3435           00001                                    RATT
000925: 32,3436           00275                                    NCINTFLG
000926: 32,3437           26445                           STOVL    RPTPI
000927: 32,3440           00007                                    VATT
000928: 32,3441           16360                           STODL    VPTPI
000929: 32,3442           02051                                    DELH1
000930: 32,3443           36236                           STCALL   DELH
000931: 32,3444           65605                                    QRDTPI
000932:
000933: 32,3445           77775                           VLOAD
000934: 32,3446           77715                           PDVL
000935: 32,3447           77624                           CALL
000936: 32,3450           62355                                    COE
000937: 32,3451           77624                           CALL
000938: 32,3452           11720                                    INTSTALL
000939:
000940: 32,3453           25535                           STOVL    RCV
000941: 32,3454           77626                           STADR
000942: 32,3455           62234                           STODL    VCV
000943: 32,3456           03643                                    TTPI
000944: 32,3457           01517                           STORE    TET
000945: 32,3460           71214                           CLEAR    DLOAD
000946: 32,3461           01673                                    INTYPFLG
000947: 32,3462           02461                                    TNSR
000948: 32,3463           34041                           STCALL   TDEC1
000949: 32,3464           11444                                    INTEGRVS
000950:
000951: 32,3465           77775                           VLOAD
000952: 32,3466           00001                                    RATT
000953: 32,3467           02453                           STORE    RNSR
000954: 32,3470           27415                           STOVL    RTARG
000955: 32,3471           00007                                    VATT
000956: 32,3472           17516                           STODL    VNSRP
000957: 32,3473           02461                                    TNSR
000958: 32,3474           77625                           DSU
000959: 32,3475           02463                                    TNCC
000960: 32,3476           17423                           STODL    DELLT4
000961: 32,3477           07155                                    HIGH2
000962: 32,3500           41525                           PDDL     PUSH
000963: 32,3501           25603                                    15DEG
000964: 32,3502           77624                           CALL
000965: 32,3503           22000                                    INITVEL
000966:
000967: 32,3504           52375        NCCDMP7            VLOAD    VSU
000968: 32,3505           03516                                    VNSRP
000969: 32,3506           03576                                    VTPRIME
000970: 32,3507           77715                           PDVL
000971: 32,3510           03576                                    VTPRIME
000972: 32,3511           27554                           STOVL    VINIT
000973: 32,3512           02453                                    RNSR
000974: 32,3513           37546                           STCALL   RINIT
000975: 32,3514           11151                                    GET.LVC
000976:
000977: 32,3515           50375                           VLOAD    DOT
000978: 32,3516           03576                                    VTPRIME
000979: 32,3517           02611                                    UP1
000980: 32,3520           40352                           SL1      SETPD
000981: 32,3521           00001                                    0
000982: 32,3522           27407                           STOVL    DELVLVC    +2
000983: 32,3523           03405                                    DELVLVC
000984: 32,3524           02617                           STORE    VGNSR
000985:
000986: 32,3525           43014                           BON      SET
000987: 32,3526           01311                                    FINALFLG
000988: 32,3527           65531                                    +2
000989: 32,3530           00470                                    UPDATFLG
000990: 32,3531           77776                           EXIT
000991:
000992: 32,3532           33604                           CAF      V06N82
000993: 32,3533           05550                           TC       VNFLASH
000994:
000995: 32,3534           06006                           TC       INTPRET
000996: 32,3535           63375                           VLOAD    PDVL
000997: 32,3536           03624                                    DELVEET3
000998: 32,3537           03524                                    VACT3
000999: 32,3540           27554                           STOVL    VINIT
001000: 32,3541           03532                                    RPASS3
001001: 32,3542           37546                           STCALL   RINIT
001002: 32,3543           11151                                    GET.LVC
001003: 32,3544           77776                           EXIT
001004:
001005: 32,3545           34603        N81DISP            CAF      V06N81
001006: 32,3546           05550                           TC       VNFLASH
001007:
001008: 32,3547           06006                           TC       INTPRET
001009: 32,3550           45014                           SET      CALL
001010: 32,3551           01072                                    REVFLAG
001011: 32,3552           11151                                    GET.LVC
001012:
001013: 32,3553           61375                           VLOAD    VXM
001014: 32,3554           03405                                    DELVLVC
001015: 32,3555           00007                                    6
001016: 32,3556           77772                           VSL1
001017: 32,3557           03624                           STORE    DELVSIN
001018:
001019: 32,3560           45055                           VAD      CALL
001020: 32,3561           03554                                    VINIT
001021: 32,3562           11720                                    INTSTALL
001022: 32,3563           25543                           STOVL    VCV
001023: 32,3564           03546                                    RINIT
001024: 32,3565           15535                           STODL    RCV
001025: 32,3566           02463                                    TNCC
001026: 32,3567           15517                           STODL    TET
001027: 32,3570           02461                                    TNSR
001028: 32,3571           77614                           SET
001029: 32,3572           01473                                    INTYPFLG
001030: 32,3573           03634                           STORE    TPASS4
001031: 32,3574           34041                           STCALL   TDEC1
001032: 32,3575           11444                                    INTEGRVS
001033:
001034: 32,3576           77775                           VLOAD
001035: 32,3577           00001                                    RATT
001036: 32,3600           37415                           STCALL   RTARG
001037: 32,3601           65377                                    DISP45A
001038:
001039: 32,3602           01252 25254  15DEG              2DEC     0.04166667
001040:
001041: 32,3604           01522        V06N82             VN       0682
001042:
001043: 32,3605           71220        QRDTPI             STQ      DLOAD
001044: 32,3606           02371                                    QRDOUT
001045: 32,3607           15204                                    HI6ZEROS
001046: 32,3610           03647                           STORE    DTQRD
001047: 32,3611           16370                           STODL    ITERCNT
001048: 32,3612           03641                                    ELEV
001049: 32,3613           51025                           DSU      BPL
001050: 32,3614           15202                                    DPHALF
001051: 32,3615           65620                                    +3
001052: 32,3616           77745                           DLOAD
001053: 32,3617           03641                                    ELEV
001054: 32,3620           03641                           STORE    ELEV
001055:
001056: 32,3621           77746                           COS
001057: 32,3622           02366                           STORE    COSE
001058:
001059: 32,3623           77624        GETRJ              CALL
001060: 32,3624           11720                                    INTSTALL
001061: 32,3625           43175                           VLOAD    CLEAR
001062: 32,3626           02445                                    RPTPI
001063: 32,3627           01673                                    INTYPFLG
001064: 32,3630           25535                           STOVL    RCV
001065: 32,3631           02360                                    VPTPI
001066: 32,3632           15543                           STODL    VCV
001067: 32,3633           03643                                    TTPI
001068: 32,3634           01517                           STORE    TET
001069:
001070: 32,3635           77615                           DAD
001071: 32,3636           03647                                    DTQRD
001072: 32,3637           00041                           STORE    TDEC1
001073:
001074: 32,3640           43014                           BOFF     SET
001075: 32,3641           00355                                    NCINTFLG
001076: 32,3642           65644                                    GOPREC
001077: 32,3643           01473                                    INTYPFLG
001078:
001079: 32,3644           77624        GOPREC             CALL
001080: 32,3645           11444                                    INTEGRVS
001081:
001082: 32,3646           53575                           VLOAD    UNIT
001083: 32,3647           00001                                    RATT
001084: 32,3650           77601                           SETPD
001085: 32,3651           00015                                    12D
001086: 32,3652           16625                           STODL    URJ
001087: 32,3653           00045                                    36D
001088: 32,3654           26465                           STOVL    RJMAG
001089: 32,3655           02445                                    RPTPI
001090: 32,3656           41456                           UNIT     PUSH
001091: 32,3657           63235                           VXV      PDVL
001092: 32,3660           02625                                    URJ
001093: 32,3661           02360                                    VPTPI
001094: 32,3662           50235                           VXV      DOT
001095: 32,3663           02445                                    RPTPI
001096: 32,3664           63254                           BZE      PDVL
001097: 32,3665           65671                                    +4
001098: 32,3666           72441                           DOT      SL1
001099: 32,3667           02625                                    URJ
001100: 32,3670           75326                           ACOS     SIGN
001101: 32,3671           45325                           PDDL     DSU
001102: 32,3672           02465                                    RJMAG
001103: 32,3673           02236                                    DELH
001104: 32,3674           56205                           DMP      DDV
001105: 32,3675           02366                                    COSE
001106: 32,3676           00045                                    36D
001107: 32,3677           43336                           ASIN     DAD
001108: 32,3700           03641                                    ELEV
001109: 32,3701           45221                           BDSU     DSU
001110: 32,3702           15174                                    DP1/4TH
001111: 32,3703           77601                           SETPD
001112: 32,3704           00015                                    12D
001113: 32,3705           00015                           STORE    12D
001114:
001115: 32,3706           45246                           ABS      DSU
001116: 32,3707           02043                                    EPS1
001117: 32,3710           40240                           BMN      SETPD
001118: 32,3711           02371                                    QRDOUT
001119: 32,3712           00003                                    2
001120: 32,3713           65345                           DLOAD    PDDL
001121: 32,3714           03647                                    DTQRD
001122: 32,3715           00015                                    12D
001123: 32,3716           41525                           PDDL     PUSH
001124: 32,3717           02370                                    ITERCNT
001125: 32,3720           77624                           CALL
001126: 32,3721           65203                                    ITER
001127:
001128: 32,3722           43145                           DLOAD    BON
001129: 32,3723           00005                                    4
001130: 32,3724           01302                                    ITERFLG
001131: 32,3725           65052                                    QRDALRM
001132: 32,3726           16370                           STODL    ITERCNT
001133: 32,3727           00003                                    2
001134: 32,3730           37647                           STCALL   DTQRD
001135: 32,3731           65623                                    GETRJ
001136:
001137:
001138: 31,2000                                           SETLOC   NCPROGS2
001139: 31,2000                                           BANK
001140: 31,2355                                           COUNT*   $$/P3133
001141:
001142: 31,2355           65256        COE                UNIT     PDDL
001143: 31,2356           00045                                    36D
001144: 31,2357           41425                           DSU      PUSH
001145: 31,2360           02236                                    DELH
001146: 31,2361           76561                           VXSC     VSL1
001147: 31,2362           00007                                    6
001148: 31,2363           50315                           PDVL     DOT
001149: 31,2364           00007                                    6
001150: 31,2365           00001                                    0
001151: 31,2366           00033                           STORE    26D
001152:
001153: 31,2367           63552                           SL1      DSQ
001154: 31,2370           47515                           PDVL     VSQ
001155: 31,2371           00001                                    0
001156: 31,2372           56325                           PDDL     DDV
001157: 31,2373           22443                                    MU(-42)
001158: 31,2374           00045                                    36D
001159: 31,2375           77625                           DSU
001160: 31,2376           70465                           BDDV     SR1
001161: 31,2377           22443                                    MU(-42)
001162: 31,2400           45206                           PUSH     DSU
001163: 31,2401           02236                                    DELH
001164: 31,2402           77752                           SL1
001165: 31,2403           00041                           STORE    32D
001166:
001167: 31,2404           41465                           BDDV     PUSH
001168: 31,2405           41316                           DSQ      DMP
001169: 31,2406           52405                           DMP      SL3
001170: 31,2407           75406                           PUSH     SQRT
001171: 31,2410           77765                           SIGN
001172: 31,2411           00033                                    26D
001173: 31,2412           14037                           STODL    30D
001174: 31,2413           00041                                    32D
001175: 31,2414           70425                           DSU      SR1
001176: 31,2415           00015                                    12D
001177: 31,2416           41271                           DDV      DMP
001178: 31,2417           00015                                    12D
001179: 31,2420           22443                                    MU(-42)
001180: 31,2421           56352                           SL1      DDV
001181: 31,2422           00041                                    32D
001182: 31,2423           75425                           DSU      SQRT
001183: 31,2424           47315                           PDVL     VXV
001184: 31,2425           00007                                    6
001185: 31,2426           00001                                    0
001186: 31,2427           53435                           VXV      UNIT
001187: 31,2430           00007                                    6
001188: 31,2431           77761                           VXSC
001189: 31,2432           74315                           PDVL     VXSC
001190: 31,2433           00007                                    6
001191: 31,2434           00037                                    30D
001192: 31,2435           76455                           VAD      VSL1
001193: 31,2436           63201                           SETPD    PDVL
001194: 31,2437           00001                                    0
001195: 31,2440           00017                                    14D
001196: 31,2441           77616                           RVQ
001197:
001198: 31,2442           00224 17561  MU(-42)            2DEC     3.986032   E10        B-42

End of include-file P31-P33.agc.  Parent file is MAIN.agc


