
Source Code


000002:                                                                                                  ## Copyright:   Public domain.
000003:                                                                                                  ## Filename:    P34.agc
000004:                                                                                                  ## Purpose:     A section of Skylark revision 048.
000005:                                                                                                  ##              It is part of the source code for the Apollo Guidance Computer (AGC)
000006:                                                                                                  ##              for Skylab-2, Skylab-3, Skylab-4, and ASTP. No original listings of
000007:                                                                                                  ##              this software are available; instead, this file was created via
000008:                                                                                                  ##              disassembly of dumps of the core rope modules actually flown on
000009:                                                                                                  ##              Skylab-2. Access to these modules was provided by the New Mexico
000010:                                                                                                  ##              Museum of Space History.
000011:                                                                                                  ## Assembler:   yaYUL
000012:                                                                                                  ## Contact:     Ron Burkey <info@sandroid.org>.
000013:                                                                                                  ## Website:     www.ibiblio.org/apollo/index.html
000014:                                                                                                  ## Mod history: 2024-02-18 MAS  Created.
000015:                                                                                                  ##              2024-03-05 MAS  Finished filling out.
000016:
000017:
000018:                                                                                                  ## This log section is derived from Artemis's P32-P33, P72-P73.
000019:
000020:                                                                                                  #  CONSTANT DELTA HEIGHT (CDH) PROGRAMS (P33 AND P73)
000021:                                                                                                  #  MOD NO -1             LOG SECTION - P32-P35, P72-P75
000022:                                                                                                  #  MOD BY WHITE.P        DATE  1 JUNE 67
000023:
000024:                                                                                                  #  PURPOSE
000025:
000026:                                                                                                  #        (1) TO CALCULATE PARAMETERS ASSOCIATED WITH THE CONSTANT DELTA
000027:                                                                                                  #            ALTITUDE MANEUVER (CDH).
000028:
000029:                                                                                                  #        (2) TO CALCULATE THESE PARAMETERS BASED UPON MANEUVER DATA
000030:                                                                                                  #            APPROVED AND KEYED INTO THE DSKY BY THE ASTRONAUT.
000031:
000032:                                                                                                  #        (3) TO DISPLAY TO THE ASTRONAUT AND THE GROUND DEPENDENT VARIABLES
000033:                                                                                                  #            ASSOCIATED WITH THE CDH MANEUVER FOR APPROVAL BY THE
000034:                                                                                                  #            ASTRONAUT/GROUND.
000035:
000036:                                                                                                  #        (4) TO STORE THE CDH TARGET PARAMETERS FOR USE BY THE DESIRED
000037:                                                                                                  #            THRUSTING PROGRAM.
000038:
000039:                                                                                                  #  ASSUMPTIONS
000040:
000041:                                                                                                  #        (1) THIS PROGRAM IS BASED UPON PREVIOUS COMPLETION OF THE
000042:                                                                                                  #            CO-ELLIPTIC SEQUENCE INITIATION (CSI) PROGRAM (P32/P72).
000043:                                                                                                  #            THERFORE -
000044:
000045:                                                                                                  #                (A) AT A SELECTED TPI TIME (NOW IN STORAGE) THE LINE OF SIGHT
000046:                                                                                                  #                    BETWEEN THE ACTIVE AND PASSIVE VEHICLES WAS SELECTED TO BE
000047:                                                                                                  #                    A PRESCRIBED ANGLE (E) (NOW IN STORAGE) FROM THE
000048:                                                                                                  #                    HORIZONTAL PLANE DEFINED BY THE ACTIVE VEHICLE POSITION.
000049:
000050:                                                                                                  #                (B) THE TIME BETWEEN CSI IGNITION AND CDH IGNITION WAS
000051:                                                                                                  #                    COMPUTED TO BE GREATER THAN 10 MINUTES.
000052:
000053:                                                                                                  #                (C) THE TIME BETWEEN CDH IGNITION AND TPI IGNITION WAS
000054:                                                                                                  #                    COMPUTED TO BE GREATER THAN 10 MINUTES.
000055:
000056:                                                                                                  #                (D) THE VARIATION OF THE ALTITUDE DIFFERENCE BETWEEN THE
000057:                                                                                                  #                    ORBITS WAS MINMIZED.
000058:
000059:                                                                                                  #                (E) CSI BURN WAS DEFINED SUCH THAT THE IMPULSIVE DELTA V WAS
000060:                                                                                                  #                    IN THE HORIZONTAL PLANE DEFINED BY ACTIVE VEHICLE
000061:                                                                                                  #                    POSITION AT CSI IGNITION.
000062:
000063:                                                                                                  #                (F) THE PERICENTER ALTITUDES OF THE ORBITS FOLLOWING CSI AND
000064:                                                                                                  #                    CDH WERE COMPUTED TO BE GREATER THAN 35,000 FT FOR LUNAR
000065:                                                                                                  #                    ORBIT OR 85 NM FOR EARTH ORBIT.
000066:
000067:                                                                                                  #                (G) THE CSI AND CDH MANEUVERS WERE ASSUMED TO BE PARALLEL TO
000068:                                                                                                  #                    THE PLANE OF THE PASSIVE VEHICLE ORBIT.  HOWEVER, CREW
000069:                                                                                                  #                    MODIFICATION OF DELTA V (LV) COMPONENTS MAY HAVE RESULTED
000070:                                                                                                  #                    IN AN OUT-OF-PLANE MANEUVER.
000071:
000072:                                                                                                  #        (2) STATE VECTOR UPDATES BY P27 ARE DISALLOWED DURING AUTOMATIC
000073:                                                                                                  #            STATE VECTOR UPDATING INITIATED BY P20 (SEE ASSUMPTION 4).
000074:
000075:                                                                                                  #        (3) COMPUTED VARIABLES MAY BE STORED FOR LATER VERIFICATION BY
000076:                                                                                                  #            THE GROUND.  THESE STORAGE CAPABILITES ARE NORMALLY LIMITED
000077:                                                                                                  #            ONLY TO THE PARAMETERS FOR ONE THRUSTING MANEUVER AT A TIME
000078:                                                                                                  #            EXCEPT FOR CONCENTRIC FLIGHT PLAN MANEUVER SEQUENCES.
000079:
000080:                                                                                                  #        (4) THE RENDEZVOUS RADAR MAY OR MAY NOT BE USED TO UPDATE THE LM
000081:                                                                                                  #            OR CSM STATE VECTORS FOR THIS PROGRAM.  IF RADAR USE IS
000082:                                                                                                  #            DESIRED THE RADAR WAS TURNED ON AND LOCKED ON THE CSM BY
000083:                                                                                                  #            PREVIOUS SELECTION OF P20.  RADAR SIGHTING MARKS WILL BE MADE
000084:                                                                                                  #            AUTOMATICALLY APPROXIMATELY ONCE A MINUTE WHEN ENABLED BY THE
000085:                                                                                                  #            TRACK AND UPDATE FLAGS (SEE P20).  THE RENDEZVOUS TRACKING
000086:                                                                                                  #            MARK COUNTER IS ZEROED BY THE SELECTION OF P20 AND AFTER EACH
000087:                                                                                                  #            THRUSTING MANEUVER.
000088:
000089:                                                                                                  #        (5) THE ISS NEED NOT BE ON TO COMPLETE THIS PROGRAM.
000090:
000091:                                                                                                  #        (6) THE OPERATION OF THE PROGRAM UTILIZES THE FOLLOWING FLAGS -
000092:
000093:                                                                                                  #                ACTIVE VEGICLE FLAG - DESIGNATES THE VEHICLE WHICH IS
000094:                                                                                                  #                DOING RENDEZVOUS THRUSTING MANEUVERS TO THE PROGRAM WHICH
000095:                                                                                                  #                CALCULATES THE MANEUVER PARAMETERS.  SET AT THE START OF
000096:                                                                                                  #                EACH RENDEZVOUS PRE-THRUSTING PROGRAM.
000097:
000098:                                                                                                  #                FINAL FLAG - SELECTS FINAL PROGRAM DISPLAYS AFTER CREW HAS
000099:                                                                                                  #                COMPLETED THE FINAL MANEUVER COMPUTATION AND DISPLAY
000100:                                                                                                  #                CYCLE.
000101:
000102:                                                                                                  #                EXTERNAL DELTA V STEERING FLAG - DESIGNATES THE TYPE OF
000103:                                                                                                  #                STEERING REQUIRED FOR EXECUTION OF THIS MANEUVER BY THE
000104:                                                                                                  #                THRUSTING PROGRAM SELECTED AFTER COMPLETION OF THIS
000105:                                                                                                  #                PROGRAM.
000106:
000107:                                                                                                  #        (7) IT IS NORMALLY REQUIRED THAT THE ISS BE ON FOR 1 HOUR PRIOR TO
000108:                                                                                                  #            A THRUSTING MANEUVER.
000109:
000110:                                                                                                  #        (8) THIS PROGRAM IS SELECTED BY THE ASTRONAUT BY DSKY ENTRY -
000111:
000112:                                                                                                  #                P33 IF THIS VEHICLE IS ACTIVE VEHICLE.
000113:
000114:                                                                                                  #                P73 IF THIS VEHICLE IS PASSIVE VEHICLE.
000115:
000116:                                                                                                  #  INPUT
000117:
000118:                                                                                                  #        (1) TTPI0       TIME OF THE TPI MANEUVER - SAVED FROM P32/P72
000119:                                                                                                  #        (2) ELEV        DESIRED LOS ANGLE AT TPI - SAVED FROM P32/P72
000120:                                                                                                  #        (3) TCDH        TIME OF THE CDH MANEUVER
000121:
000122:                                                                                                  #  OUTPUT
000123:
000124:                                                                                                  #        (1) TRKMKCNT    NUMBER OF MARKS
000125:                                                                                                  #        (2) TTOGO       TIME TO GO
000126:                                                                                                  #        (3) +MGA        MIDDLE GIMBAL ANGLE
000127:                                                                                                  #        (4) DIFFALT     DELTA ALTITUDE AT CDH
000128:                                                                                                  #        (5) T2TOT3      DELTA TIME FROM CDH TO COMPUTED TPI
000129:                                                                                                  #        (6) NOMTPI      DELTA TIME FROM NOMINAL TPI TO COMPUTED TPI
000130:                                                                                                  #        (7) DELVLVC     DELTA VELOCITY AT CDH - LOCAL VERTICAL COORDINATES
000131:
000132:                                                                                                  #  DOWNLINK
000133:
000134:                                                                                                  #        (1) TCDH        TIME OF THE CDH MANEUVER
000135:                                                                                                  #        (2) TTPI        TIME OF THE TPI MANEUVER
000136:                                                                                                  #        (3) TIG         TIME OF THE CDH MANEUVER
000137:                                                                                                  #        (4) DELVEET2    DELTA VELOCITY AT CDH - REFERENCE COORDINATES
000138:                                                                                                  #        (5) DIFFALT     DELTA ALTITUDE AT CDH
000139:                                                                                                  #        (6) ELEV        DESIRED LOS ANGLE AT TPI
000140:
000141:                                                                                                  #  COMMUNICATION TO THRUSTING PROGRAMS
000142:
000143:                                                                                                  #        (1) TIG         TIME OF THE CDH MANEUVER
000144:                                                                                                  #        (2) RTIG        POSITION OF ACTIVE VEHICLE AT CDH - BEFORE ROTATION
000145:                                                                                                  #                        INTO PLANE OF PASSIVE VEHICLE
000146:                                                                                                  #        (3) VTIG        VELOCITY OF ACTIVE VEHICLE AT CDH - BEFORE ROTATION
000147:                                                                                                  #                        INTO PLANE OF PASSIVE VEHICLE
000148:                                                                                                  #        (4) DELVSIN     DELTA VELOCITY AT CDH - REFERENCE COORDINATES
000149:                                                                                                  #        (5) DELVSAB     MAGNITUDE OF DELTA VELOCITY AT CDH
000150:                                                                                                  #        (6) XDELVFLG    SET TO INDICATE EXTERNAL DELTA V VG COMPUTATION
000151:
000152:                                                                                                  #  SUBROUTINES USED
000153:
000154:                                                                                                  #        P20FLGON
000155:                                                                                                  #        VNPOOH
000156:                                                                                                  #        ADVANCE
000157:                                                                                                  #        CDHMVR
000158:                                                                                                  #        INTINT3P
000159:                                                                                                  #        ACTIVE
000160:                                                                                                  #        PASSIVE
000161:                                                                                                  #        S33/34.1
000162:                                                                                                  #        ALARM
000163:                                                                                                  #        BANKCALL
000164:                                                                                                  #        GOFLASH
000165:                                                                                                  #        GOTOPOOH
000166:                                                                                                  #        S32/33.1
000167:                                                                                                  #        VN1645
000168:
000169: 31,2000                                           SETLOC   CSI/CDH1
000170: 31,2000                                           BANK
000171: 31,2444  E4,1636                                  EBANK=   SUBEXIT
000172: 31,2444                                           COUNT*   $$/P34
000173: 31,2444           04564        P34                TC       P20FLGON
000174: 31,2445           34576                           CAF      V06N13                                #  TCDH
000175: 31,2446           05550                           TC       VNFLASH
000176: 31,2447           06006                           TC       INTPRET
000177: 31,2450           43145                           DLOAD    CLEAR
000178: 31,2451           03643                                    TTPI
000179: 31,2452           01271                                    FINALFLG
000180: 31,2453           16465                           STODL    TTPI0
000181: 31,2454           02461                                    TCDH
000182: 31,2455           37413                           STCALL   TIG
000183: 31,2456           73430                                    VN1645
000184: 31,2457           45145        P33/P73B           DLOAD    CALL
000185: 31,2460           03413                                    TIG
000186: 31,2461           76424                                    ADVANCE
000187: 31,2462           77624                           CALL
000188: 31,2463           56602                                    CDHMVR
000189: 31,2464           02445                           STORE    DELVEET1                              #  CDH DV TO USE DISDVLVC SUB FOR N81 DISP
000190: 31,2465           77201                           SETPD    VLOAD
000191: 31,2466           00001                                    0D
000192: 31,2467           03524                                    VACT3
000193: 31,2470           45115                           PDVL     CALL
000194: 31,2471           02453                                    RACT2
000195: 31,2472           62565                                    INTINT3P
000196: 31,2473           77624                           CALL
000197: 31,2474           45462                                    ACTIVE
000198: 31,2475           77201                           SETPD    VLOAD
000199: 31,2476           00001                                    0D
000200: 31,2477           02617                                    VPASS2
000201: 31,2500           45115                           PDVL     CALL
000202: 31,2501           02625                                    RPASS2
000203: 31,2502           62565                                    INTINT3P
000204: 31,2503           77624                           CALL
000205: 31,2504           45470                                    PASSIVE
000206: 31,2505           43145                           DLOAD    SET
000207: 31,2506           15204                                    ZEROVECS
000208: 31,2507           03461                                    ITSWICH
000209: 31,2510           36234                           STCALL   NOMTPI
000210: 31,2511           72713                                    S33/34.1
000211: 31,2512           77454                           BZE      EXIT
000212: 31,2513           62530                                    P33/P73C
000213: 31,2514           05644                           TC       ALARM
000214: 31,2515           00611                           OCT      611
000215: 31,2516           35036                           CAF      V05N09
000216: 31,2517           04647                           TC       BANKCALL
000217: 31,2520           20623                           CADR     GOFLASH
000218: 31,2521           04103                           TC       GOTOPOOH
000219: 31,2522           02524                           TC       +2
000220: 31,2523           02444                           TC       P34
000221: 31,2524           06006                           TC       INTPRET
000222: 31,2525           77745                           DLOAD
000223: 31,2526           15204                                    ZEROVECS
000224: 31,2527           02234                           STORE    NOMTPI
000225: 31,2530           43014        P33/P73C           BON      SET
000226: 31,2531           01311                                    FINALFLG
000227: 31,2532           62534                                    P33/P73D
000228: 31,2533           00470                                    UPDATFLG
000229: 31,2534           43345        P33/P73D           DLOAD    DAD
000230: 31,2535           02234                                    NOMTPI
000231: 31,2536           03643                                    TTPI
000232: 31,2537           03643                           STORE    TTPI
000233: 31,2540           77625                           DSU
000234: 31,2541           02461                                    TCDH
000235: 31,2542           51025        P33/P73E           DSU      BPL
000236: 31,2543           22564                                    60MIN
000237: 31,2544           62542                                    P33/P73E
000238: 31,2545           77615                           DAD
000239: 31,2546           22564                                    60MIN
000240: 31,2547           36541                           STCALL   T1TOT2
000241: 31,2550           56566                                    P33/73F
000242: 31,2551           77776                           EXIT
000243:
000244: 31,2552           34577                           CAF      V06N75
000245: 31,2553           05550                           TC       VNFLASH
000246: 31,2554           06006                           TC       INTPRET
000247: 31,2555           77624        SKIP75             CALL
000248: 31,2556           76403                                    DISDVLVC                              #  PUT UP N81, COMPUTE DELVSIN
000249: 31,2557           77624                           CALL
000250: 31,2560           73430                                    VN1645
000251: 31,2561           77650                           GOTO
000252: 31,2562           62457                                    P33/P73B
000253:
000254: 31,2563           00025 37100  60MIN              2DEC     360000     B-28
000255:
000256:
000257:    4000                                           SETLOC   FFTAG12
000258:    4000                                           BANK
000259:
000260:    4575                                           COUNT*   $$/P34
000261:    4575           01413        V06N11             VN       0611
000262:    4576           01415        V06N13             VN       0613
000263:    4577           01513        V06N75             VN       0675
000264:
000265:
000266:                                                                                                  #  ..... DISDVLVC  .....
000267:
000268:                                                                                                  #  SUBROUTINES USED
000269:
000270:                                                                                                  #        S32/33.X
000271:                                                                                                  #        VNPOOH
000272:
000273: 37,2000                                           SETLOC   CDHTAG3
000274: 37,2000                                           BANK
000275:
000276: 37,2403                                           COUNT*   $$/CSI
000277: 37,2403           45020        DISDVLVC           STQ      CALL
000278: 37,2404           01011                                    NORMEX
000279: 37,2405           32050                                    S32/33.X
000280: 37,2406           64375                           VLOAD    MXV
000281: 37,2407           02445                                    DELVEET1
000282: 37,2410           00001                                    0D
000283: 37,2411           77772                           VSL1
000284: 37,2412           37405                           STCALL   DELVLVC                               #  REF TO L V
000285: 37,2413           15667                                    DISPN90
000286: 37,2414           77624                           CALL
000287: 37,2415           32050                                    S32/33.X
000288: 37,2416           61375                           VLOAD    VXM
000289: 37,2417           03405                                    DELVLVC
000290: 37,2420           00001                                    0D
000291: 37,2421           77772                           VSL1
000292: 37,2422           37624                           STCALL   DELVSIN                               #  L V TO REF
000293: 37,2423           01011                                    NORMEX
000294:
000295:                                                                                                  #  ..... ADVANCE   .....
000296:
000297:                                                                                                  #  SUBROUTINES USED
000298:                                                                                                  #        PRECSET
000299:                                                                                                  #        ROTATE
000300:
000301: 37,2000                                           SETLOC   CDHTAG3
000302: 37,2000                                           BANK
000303:
000304: 37,2424                                           COUNT*   $$/CDH
000305: 37,2424           77620        ADVANCE            STQ
000306: 37,2425           02236                                    SUBEXIT
000307: 37,2426           34041                           STCALL   TDEC1
000308: 37,2427           45416                                    PRECSET
000309: 37,2430           77214                           SET      VLOAD
000310: 37,2431           01067                                    XDELVFLG
000311: 37,2432           03540                                    VPASS3
000312: 37,2433           26617                           STOVL    VPASS2
000313: 37,2434           03532                                    RPASS3
000314: 37,2435           26625                           STOVL    RPASS2
000315: 37,2436           03516                                    RACT3
000316: 37,2437           37610                           STCALL   RTIG
000317: 37,2440           16302                                    ROTATE
000318: 37,2441           26453                           STOVL    RACT2
000319: 37,2442           03524                                    VACT3
000320: 37,2443           37616                           STCALL   VTIG
000321: 37,2444           16302                                    ROTATE
000322: 37,2445           36533                           STCALL   VACT2
000323: 37,2446           02236                                    SUBEXIT
000324:
000325:                                                                                                  #  ..... ROTATE    .....
000326:
000327: 07,2000                                           SETLOC   CSIPROG6
000328: 07,2000                                           BANK
000329:
000330: 07,2302                                           COUNT*   $$/CSI
000331: 07,2302           41406        ROTATE             PUSH     PUSH
000332: 07,2303           74241                           DOT      VXSC
000333: 07,2304           02611                                    UP1
000334: 07,2305           02611                                    UP1
000335: 07,2306           51352                           VSL2     BVSU
000336: 07,2307           63256                           UNIT     PDVL
000337: 07,2310           74246                           ABVAL    VXSC
000338: 07,2311           43572                           VSL1     RVQ
000339:
000340:                                                                                                  #  .... DISPN90 .....
000341:
000342: 06,2000                                           SETLOC   CSIPROG
000343: 06,2000                                           BANK
000344: 06,3667                                           COUNT*   $$/CSI
000345: 06,3667           77620        DISPN90            STQ
000346: 06,3670           02237                                    ANEXIT
000347: 06,3671           57575                           VLOAD    VCOMP
000348: 06,3672           02601                                    AUTOY
000349: 06,3673           16250                           STODL    YCSM                                  #  COMPLEMENT VALUES FOR N90 DISPLAYS.
000350: 06,3674           02603                                    CMYDOT
000351: 06,3675           03407                           STORE    DELVLVC    +2
000352: 06,3676           51414                           BOFF     ABS
000353: 06,3677           05356                                    PCFLAG
000354: 06,3700           15707                                    OKN81                                 #  NOT IN P36
000355: 06,3701           51025                           DSU      BPL                                   #  IS YDOT LESS THAN .1 FPS
000356: 06,3702           15716                                    1/10FPS
000357: 06,3703           15707                                    OKN81                                 #  NO
000358: 06,3704           77775                           VLOAD                                          #  YES - FORCE DSKY DISPLAY TO BE 0
000359: 06,3705           15726                                    ZEROVEC
000360: 06,3706           03405                           STORE    DELVLVC
000361: 06,3707           77776        OKN81              EXIT
000362:
000363: 06,3710           34603                           CAF      V06N81
000364: 06,3711           05550                           TC       VNFLASH
000365:
000366: 06,3712           06006                           TC       INTPRET
000367: 06,3713           77650                           GOTO
000368: 06,3714           02237                                    ANEXIT
000369:
000370: 06,3715           00000 01177  1/10FPS            2DEC     .0003048   B-7                        #  .1 FPS
000371:
000372:                                                                                                  #  ..... INTINTNA  .....
000373:
000374: 31,2000                                           SETLOC   CDHTAG2
000375: 31,2000                                           BANK
000376:
000377: 31,2565                                           COUNT*   $$/CDH
000378: 31,2565           65325        INTINT3P           PDDL     PDDL
000379: 31,2566           02461                                    TCDH
000380: 31,2567           03643                                    TTPI
000381: 31,2570           41525                           PDDL     PUSH
000382: 31,2571           33542                                    TWOPI                                 #  FOR CONIC INTEGRATION
000383: 31,2572           77650                           GOTO
000384: 31,2573           73352                                    INTINT
000385:
000386:                                                                                                  #  ..... S32/33.X  .....
000387:
000388: 15,2000                                           SETLOC   CDHTAGS
000389: 15,2000                                           BANK
000390:
000391: 15,2050                                           COUNT*   $$/CDH
000392: 15,2050           77201        S32/33.X           SETPD    VLOAD
000393: 15,2051           00007                                    6D
000394: 15,2052           02611                                    UP1
000395: 15,2053           63276                           VCOMP    PDVL
000396: 15,2054           02453                                    RACT2
000397: 15,2055           57456                           UNIT     VCOMP
000398: 15,2056           47206                           PUSH     VXV
000399: 15,2057           02611                                    UP1
000400: 15,2060           77772                           VSL1
000401: 15,2061           00001                           STORE    0D
000402: 15,2062           77616                           RVQ
000403:
000404: 27,2000                                           SETLOC   CDHTAG
000405: 27,2000                                           BANK
000406:
000407: 27,2566                                           COUNT*   $$/CDH
000408:
000409:                                                                                                  #  The name of the following label is a guess.
000410: 27,2566           45345        P33/73F            DLOAD    DSU
000411: 27,2567           03643                                    TTPI
000412: 27,2570           02465                                    TTPI0
000413: 27,2571           77606                           PUSH
000414: 27,2572           45246        P33/P73F           ABS      DSU
000415: 27,2573           33555                                    60MINH
000416: 27,2574           43244                           BPL      DAD
000417: 27,2575           56572                                    P33/P73F
000418: 27,2576           33555                                    60MINH
000419: 27,2577           45565                           SIGN     STADR
000420: 27,2600           74145                           STORE    T2TOT3
000421: 27,2601           77616                           RVQ
000422:
000423:
000424:                                                                                                  #  ..... CDHMVR    .....
000425:
000426:                                                                                                  #  SUBROUTINES USED
000427:                                                                                                  #        TIMETHET
000428:
000429:
000430: 27,2602           77220        CDHMVR             STQ      VLOAD
000431: 27,2603           02236                                    SUBEXIT
000432: 27,2604           02453                                    RACT2
000433: 27,2605           53406                           PUSH     UNIT
000434: 27,2606           27524                           STOVL    UNVEC                                 #  UR SUB A
000435: 27,2607           02625                                    RPASS2
000436: 27,2610           50256                           UNIT     DOT
000437: 27,2611           03524                                    UNVEC
000438: 27,2612           72406                           PUSH     SL1
000439: 27,2613           16726                           STODL    CSTH
000440: 27,2614           65316                           DSQ      PDDL
000441: 27,2615           15174                                    DP1/4TH
000442: 27,2616           45302                           SR2      DSU
000443: 27,2617           72566                           SQRT     SL1
000444: 27,2620           57515                           PDVL     VCOMP
000445: 27,2621           77635                           VXV
000446: 27,2622           02625                                    RPASS2
000447: 27,2623           65241                           DOT      PDDL
000448: 27,2624           02611                                    UP1
000449: 27,2625           45565                           SIGN     STADR
000450: 27,2626           51053                           STOVL    SNTH
000451: 27,2627           02625                                    RPASS2
000452: 27,2630           26651                           STOVL    RVEC
000453: 27,2631           02617                                    VPASS2
000454: 27,2632           77614                           CLEAR
000455: 27,2633           03666                                    RVSW
000456: 27,2634           36740                           STCALL   VVEC
000457: 27,2635           25004                                    TIMETHET
000458: 27,2636           00023                           STORE    18D
000459: 27,2637           76441                           DOT      SL1R
000460: 27,2640           03524                                    UNVEC
000461: 27,2641           51515                           PDVL     ABVAL                                 #  0D = V SUB PV
000462: 27,2642           77715                           PDVL
000463: 27,2643           02453                                    RACT2
000464: 27,2644           65246                           ABVAL    PDDL                                  #  2D = LENGTH OF R SUB A
000465: 27,2645           77625                           DSU
000466: 27,2646           00003                                    02D
000467: 27,2647           16633                           STODL    DIFFALT                               #  DELTA H IN METERS             B+29
000468: 27,2650           02736                                    R1A
000469: 27,2651           65301                           NORM     PDDL                                  #  2 - R V**/MU                          04D
000470: 27,2652           00047                                    X1
000471: 27,2653           00041                                    R1
000472: 27,2654           56362                           SR1R     DDV
000473: 27,2655           41457                           SL*      PUSH
000474: 27,2656           20174                                    0          -5,1
000475: 27,2657           65225                           DSU      PDDL                                  #  A SUB A                       B+29    04D
000476: 27,2660           02633                                    DIFFALT
000477: 27,2661           56302                           SR2      DDV                                   #  A SUB P                       B+31
000478: 27,2662           00005                                    04D                                   #                                B+2
000479: 27,2663           75406                           PUSH     SQRT                                  #  A SUB P/A SUB A                       06D
000480: 27,2664           41275                           DMPR     DMP
000481: 27,2665           00007                                    06D
000482: 27,2666           00001                                    00D
000483: 27,2667           65272                           SL3R     PDDL                                  #  V SUB AV METERS/CS            B+7     08D
000484: 27,2670           00003                                    02D                                   #  R SUB A MAGNITUDE             B+29
000485: 27,2671           65301                           NORM     PDDL
000486: 27,2672           00047                                    X1
000487: 27,2673           16731                                    RTMU
000488: 27,2674           56342                           SR1      DDV                                   #  2MU                           B+38
000489: 27,2675           65257                           SL*      PDDL                                  #  2 MU/R SUBAA                  B+14    10D
000490: 27,2676           20174                                    0          -5,1
000491: 27,2677           00005                                    04D                                   #  ASUBA                         B+29
000492: 27,2700           65301                           NORM     PDDL
000493: 27,2701           00050                                    X2
000494: 27,2702           16731                                    RTMU
000495: 27,2703           56342                           SR1      DDV
000496: 27,2704           44257                           SL*      BDSU
000497: 27,2705           57604                                    0          -6,2                       #  2U/R - U/A     B+14  (METERS/CS)SQ
000498: 27,2706           63525                           PDDL     DSQ                                   #                                        10D
000499: 27,2707           00011                                    08D
000500: 27,2710           75421                           BDSU     SQRT
000501: 27,2711           47315                           PDVL     VXV                                   #  SQRT(MU(2/R SUB A-1/A SUB A)-VSUBA2)  10D
000502: 27,2712           02611                                    UP1
000503: 27,2713           03524                                    UNVEC
000504: 27,2714           74256                           UNIT     VXSC
000505: 27,2715           00013                                    10D
000506: 27,2716           74315                           PDVL     VXSC
000507: 27,2717           03524                                    UNVEC
000508: 27,2720           00011                                    08D
000509: 27,2721           76455                           VAD      VSL1
000510: 27,2722           77626                           STADR
000511: 27,2723           74253                           STORE    VACT3
000512: 27,2724           77651                           VSU
000513: 27,2725           02533                                    VACT2
000514: 27,2726           37647                           STCALL   DELVEET2                              #  DELTA VCDH - REFERENCE COORDINATES
000515: 27,2727           02236                                    SUBEXIT
000516:
000517: 27,2730           22437 16067  RTMU               2DEC*    3.986032   E10        B-36*

End of include-file P34.agc.  Parent file is MAIN.agc


