
Source Code


000002:                                                                                                  ## Copyright:   Public domain.
000003:                                                                                                  ## Filename:    P35-P37.agc
000004:                                                                                                  ## Purpose:     A section of Skylark revision 048.
000005:                                                                                                  ##              It is part of the source code for the Apollo Guidance Computer (AGC)
000006:                                                                                                  ##              for Skylab-2, Skylab-3, Skylab-4, and ASTP. No original listings of
000007:                                                                                                  ##              this software are available; instead, this file was created via
000008:                                                                                                  ##              disassembly of dumps of the core rope modules actually flown on
000009:                                                                                                  ##              Skylab-2. Access to these modules was provided by the New Mexico
000010:                                                                                                  ##              Museum of Space History.
000011:                                                                                                  ## Assembler:   yaYUL
000012:                                                                                                  ## Contact:     Ron Burkey <info@sandroid.org>.
000013:                                                                                                  ## Website:     www.ibiblio.org/apollo/index.html
000014:                                                                                                  ## Mod history: 2023-09-04 MAS  Created from Artemis 072.
000015:                                                                                                  ##              2024-03-05 MAS  Updated for Skylark 48.
000016:
000017:
000018:                                                                                                  ## This log section is derived from Artemis's P34-P35, P74-P75.
000019:
000020:                                                                                                  #  TRANSFER PHASE INITIATION (TPI) PROGRAMS (P34 AND P74)
000021:
000022:                                                                                                  #  MOD NO -1             LOG SECTION - P32-P35, P72-P75
000023:                                                                                                  #  MOD BY WHITE.P        DATE 1JUNE67
000024:
000025:                                                                                                  #  PURPOSE
000026:
000027:                                                                                                  #        (1) TO CALCULATE THE REQUIRED DELTA V AND OTHER INITIAL CONDITIONS
000028:                                                                                                  #            REQUIRED BY THE ACTIVE VEHICLE FOR EXECUTION OF THE TRANSFER
000029:                                                                                                  #            PHASE INITIATION (TPI) MANEUVER, GIVEN -
000030:
000031:                                                                                                  #            (A) TIME OF IGNITION TIG (TPI) OR THE ELEVATION ANGLE (E) OF
000032:                                                                                                  #                THE ACTIVE/PASSIVE VEHICLE LOS AT TIG (TPI).
000033:
000034:                                                                                                  #            (B) CENTRAL ANGLE OF TRANSFER (CENTANG) FROM TIG (TPI) TO
000035:                                                                                                  #                INTERCEPT TIME (TIG (TPF)).
000036:
000037:                                                                                                  #        (2) TO CALCULATE TIG (TPI) GIVEN E OR E GIVEN TIG (TPI).
000038:
000039:                                                                                                  #        (3) TO CALCULATE THESE PARAMETERS BASED UPON MANEUVER DATA
000040:                                                                                                  #            APPROVED AND KEYED INTO THE DSKY BY THE ASTRONAUT.
000041:
000042:                                                                                                  #        (4) TO DISPLAY TO THE ASTRONAUT AND THE GROUND CERTAIN DEPENDENT
000043:                                                                                                  #            VARIABLES ASSOCIATED WITH THE MANEUVER FOR APPROVAL BY THE
000044:                                                                                                  #            ASTRONAUT/GROUND.
000045:
000046:                                                                                                  #        (5) TO STORE THE TPI TARGET PARAMETERS FOR USE BY THE DESIRED
000047:                                                                                                  #            THRUSTING PROGRAM.
000048:
000049:                                                                                                  #  ASSUMPTIONS
000050:
000051:                                                                                                  #        (1) LM ONLY - THIS PROGRAM IS BASED UPON PREVIOUS COMPLETION OF
000052:                                                                                                  #            THE CONSTANT DELTA ALTITUDE (CDH) PROGRAM (P33/P73).
000053:                                                                                                  #            THEREFORE -
000054:
000055:                                                                                                  #            (A) AT A SELECTED TPI TIME (NOW IN STORAGE) THE LINE OF SIGHT
000056:                                                                                                  #                BETWEEN THE ACTIVE AND PASSIVE VEHICLES WAS SELECTED TO BE
000057:                                                                                                  #                A PRESCRIBED ANGLE (E) (NOW IN STORAGE) FROM THE
000058:                                                                                                  #                HORIZONTAL PLANE DEFINED BY THE ACTIVE VEHICLE POSITION.
000059:
000060:                                                                                                  #            (B) THE TIME BETWEEN CDH IGNITION AND TPI IGNITION WAS
000061:                                                                                                  #                COMPUTED TO BE GREATER THAN 10 MINUTES.
000062:
000063:                                                                                                  #            (C) THE VARIATION OF THE ALTITUDE DIFFERENCE BETWEEN THE
000064:                                                                                                  #                ORBITS WAS MINIMIZED.
000065:
000066:                                                                                                  #            (D) THE PERICENTER ALTITUDES OF ORBITS FOLLOWING CSI AND
000067:
000068:                                                                                                  #                CDH WERE COMPUTED TO BE GREATER THAN 35,000 FT FOR LUNAR
000069:                                                                                                  #                ORBIT OR 85 NM FOR EARTH ORBIT.
000070:
000071:                                                                                                  #            (E) THE CSI AND CDH MANEUVERS WERE ASSUMED TO BE PARALLEL TO
000072:                                                                                                  #                THE PLANE OF THE PASSIVE VEHICLE ORBIT.  HOWEVER, CREW
000073:                                                                                                  #                MODIFICATION OF DELTA V (LV) COMPONENTS MAY HAVE RESULTED
000074:                                                                                                  #                IN AN OUT-OF-PLANE MANEUVER.
000075:
000076:                                                                                                  #        (2) STATE VECTOR UPDATED BY P27 ARE DISALLOWED DURING AUTOMATIC
000077:                                                                                                  #            STATE VECTOR UPDATING INITIATED BY P20 (SEE ASSUMPTION (4)).
000078:
000079:                                                                                                  #        (3) THIS PROGRAM MUST BE DONE OVER A TRACKING STATION FOR REAL
000080:                                                                                                  #            TIME GROUND PARTICIPATION IN DATA INPUT AND OUTPUT.  COMPUTED
000081:                                                                                                  #            VARIABLES MAY BE STORED FOR LATER VERIFICATION BY THE GROUND.
000082:                                                                                                  #            THESE STORAGE CAPABILITIES ARE LIMITED ONLY TO THE PARAMETERS
000083:                                                                                                  #            FOR ONE THRUSTING MANEUVER AT A TIME EXCEPT FOR CONCENTRIC
000084:                                                                                                  #            FLIGHT PLAN MANEUVER SEQUENCES.
000085:
000086:                                                                                                  #        (4) THE RENDEZVOUS RADAR MAY OR MAY NOT BE USED TO UPDATE THE LM
000087:                                                                                                  #            OR CSM STATE VECTORS FOR THIS PROGRAM.  IF RADAR USE IS
000088:                                                                                                  #            DESIRED THE RADAR WAS TURNED ON AND LOCKED ON THE CSM BY
000089:                                                                                                  #            PREVIOUS SELECTION OF P20.  RADAR SIGHTING MARKS WILL BE MADE
000090:                                                                                                  #            AUTOMATICALLY APPROXIMATELY ONCE A MINUTE WHEN ENABLED BY THE
000091:                                                                                                  #            TRACK AND UPDATE FLAGS (SEE P20).  THE RENDEZVOUS TRACKING
000092:                                                                                                  #            MARK COUNTER IS ZEROED BY THE SELECTION OF P20 AND AFTER EACH
000093:                                                                                                  #            THRUSTING MANEUVER.
000094:
000095:                                                                                                  #        (5) THE ISS NEED NOT BE ON TO COMPLETE THIS PROGRAM.
000096:
000097:                                                                                                  #        (6) THE OPERATION OF THE PROGRAM UTILIZES THE FOLLOWING FLAGS -
000098:
000099:                                                                                                  #                ACTIVE VEHICLE FLAG - DESIGNATES THE VEHICLE WHICH IS
000100:                                                                                                  #                DOING RENDEZVOUS THRUSTING MANEUVERS TO THE PROGRAM WHICH
000101:                                                                                                  #                CALCULATES THE MANEUVER PARAMETERS.  SET AT THE START OF
000102:                                                                                                  #                EACH RENDEZVOUS PRE-THRUSTING PROGRAM.
000103:
000104:                                                                                                  #                FINAL FLAG - SELECTS FINAL PROGRAM DISPLAYS AFTER CREW HAS
000105:                                                                                                  #                SELECTED THE FINAL MANEUVER COMPUTATION CYCLE.
000106:
000107:                                                                                                  #                EXTERNAL DELTA V FLAG - DESIGNATES THE TYPE OF STEERING
000108:                                                                                                  #                REQUIRED FOR EXECUTION OF THIS MANEUVER BY THE THRUSTING
000109:                                                                                                  #                PROGRAM SELECTED AFTER COMPLETION OF THIS PROGRAM.
000110:
000111:                                                                                                  #        (7) ONCE THE PARAMETWRS REQUIRED FOR COMPUTION OF THE MANEUVER
000112:                                                                                                  #            HAVE BEEN COMPLETELY SPECIFIED, THE VALUE OF THE ACTIVE
000113:                                                                                                  #            VEHICLE CENTRAL ANGLE OF TRANSFER IS COMPUTED AND STORED.
000114:                                                                                                  #            THIS NUMBER WILL BE AVAILABLE FOR DISPLAY TO THE ASTRONAUT
000115:                                                                                                  #            THROUGH THE USE OF V06N52.
000116:
000117:                                                                                                  #            THE ASTRONAUT WILL CALL THIS DISPLAY TO VERIFY THAT THE
000118:                                                                                                  #            CENTRAL ANGLE OF TRANSFER OF THE ACTIVE VEHICLE IS NOT WITHIN
000119:                                                                                                  #            170 TO 190 DEGREES.  IF THE ANGLE IS WITHIN THIS ZONE THE
000120:                                                                                                  #            ASTRONAUT SHOULD REASSESS THE INPUT TARGETING PARAMETERS BASED
000121:                                                                                                  #            UPON DELTA V AND EXPECTED MANEUVER TIME.
000122:
000123:                                                                                                  #        (8) THIS PROGRAM IS SELECTED BY THE ASTRONAUT BY DSKY ENTRY -
000124:
000125:                                                                                                  #                P34 IF THIS VEHICLE IS ACTIVE VEHICLE.
000126:
000127:                                                                                                  #                P74 IF THIS VEHICLE IS PASSIVE VEHICLE.
000128:
000129:                                                                                                  #  INPUT
000130:
000131:                                                                                                  #        (1) TTPI        TIME OF THE TPI MANEUVER
000132:                                                                                                  #        (2) ELEV        DESIRED LOS ANGLE AT TPI
000133:                                                                                                  #        (3) CENTANG     ORBITAL CENTRAL ANGLE OF THE PASSIVE VEHICLE DURING
000134:                                                                                                  #                        TRANSFER FROM TPI TO TIME OF INTERCEPT
000135:
000136:                                                                                                  #  OUTPUT
000137:
000138:                                                                                                  #        (1) TRKMKCNT    NUMBER OF MARKS
000139:                                                                                                  #        (2) TTOGO       TIME TO GO
000140:                                                                                                  #        (3) +MGA        MIDDLE GIMBAL ANGLE
000141:                                                                                                  #        (4) TTPI        COMPUTED TIME OF TPI MANEUVER
000142:                                                                                                  #             OR
000143:                                                                                                  #            ELEV        COMPUTED LOS ANGLE AT TPI
000144:                                                                                                  #        (5) POSTTPI     PERIGEE ALTITUDE AFTER THE TPI MANEUVER
000145:                                                                                                  #        (6) DELVTPI     MAGNITUDE OF DELTA V AT TPI
000146:                                                                                                  #        (7) DELVTPF     MAGNITUDE OF DELTA V AT INTERCEPT
000147:                                                                                                  #        (8) DVLOS       DELTA VELOCITY AT TPI - LINE OF SIGHT
000148:                                                                                                  #        (9) DELVLVC     DELTA VELOCITY AT TPI - LOCAL VERTICAL COORDINATES
000149:
000150:                                                                                                  #  DOWNLINK
000151:
000152:                                                                                                  #        (1) TTPI        TIME OF THE TPI MANEUVER
000153:                                                                                                  #        (2) TIG         TIME OF THE TPI MANEUVER
000154:                                                                                                  #        (3) ELEV        DESIRED LOS ANGLE AT TPI
000155:                                                                                                  #        (4) CENTANG     ORBITAL CENTRAL ANGLE OF THE PASSIVE VEHICLE DURING
000156:                                                                                                  #                        TRANSFER FROM TPI TO TIME OF INTERCEPT
000157:                                                                                                  #        (5) DELVEET3    DELTA VELOCITY AT TPI - REFERENCE COORDINATES
000158:                                                                                                  #        (6) TPASS4      TIME OF INTERCEPT
000159:
000160:                                                                                                  #  COMMUNICATION TO THRUSTING PROGRAMS
000161:
000162:                                                                                                  #        (1) TIG         TIME OF THE TPI MANEUVER
000163:                                                                                                  #        (2) RTARG       OFFSET TARGET POSITION
000164:                                                                                                  #        (3) TPASS4      TIME OF INTERCEPT
000165:                                                                                                  #        (4) XDELVFLG    RESET TO INDICATE LAMBERT (AIMPOINT) VG COMPUTATION
000166:
000167:                                                                                                  #  SUBROUTINES USED
000168:
000169:                                                                                                  #        VNPOOH
000170:                                                                                                  #        DISPLAYE
000171:                                                                                                  #        PRECSET
000172:                                                                                                  #        S33/34.1
000173:                                                                                                  #        ALARM
000174:                                                                                                  #        BANKCALL
000175:                                                                                                  #        GOFLASH
000176:                                                                                                  #        GOTOPOOH
000177:                                                                                                  #        TIMETHET
000178:                                                                                                  #        S34/35.2
000179:                                                                                                  #        PERIAPO1
000180:                                                                                                  #        SHIFTR1
000181:                                                                                                  #        S34/35.5
000182:                                                                                                  #        VN1645
000183:
000184: 35,2000                                           SETLOC   CSI/CDH
000185: 35,2000                                           BANK
000186: 35,2367  E4,1636                                  EBANK=   SUBEXIT
000187: 35,2367                                           COUNT*   $$/P3474
000188: 35,2367           04564        P35                TC       P20FLGON
000189: 35,2370           06006                           TC       INTPRET
000190: 35,2371           71214                           CLEAR    DLOAD
000191: 35,2372           05274                                    TPIMNFLG
000192: 35,2373           15204                                    ZEROVECS
000193: 35,2374           03724                           STORE    NN
000194: 35,2375           77776                           EXIT
000195:
000196: 35,2376           34600                           CAF      V06N37
000197: 35,2377           05550                           TC       VNFLASH
000198: 35,2400           34601                           CAF      V06N55
000199: 35,2401           05550                           TC       VNFLASH
000200: 35,2402           06006                           TC       INTPRET
000201: 35,2403           71214                           CLEAR    DLOAD
000202: 35,2404           01270                                    ETPIFLAG
000203: 35,2405           03643                                    TTPI
000204: 35,2406           02465                           STORE    TTPI0
000205: 35,2407           17413                           STODL    TIG
000206: 35,2410           03641                                    ELEV
000207: 35,2411           43054                           BZE      SET
000208: 35,2412           72414                                    P34/P74B
000209: 35,2413           01070                                    ETPIFLAG
000210: 35,2414           45014        P34/P74B           CLEAR    CALL
000211: 35,2415           01271                                    FINALFLG
000212: 35,2416           73430                                    VN1645
000213: 35,2417                        DELELO             EQUALS   26D
000214: 35,2417           43145        P34/P74C           DLOAD    SET
000215: 35,2420           15204                                    ZEROVECS
000216: 35,2421           03461                                    ITSWICH
000217: 35,2422           43014                           BON      CLEAR
000218: 35,2423           01310                                    ETPIFLAG
000219: 35,2424           72426                                    SWCHSET
000220: 35,2425           03661                                    ITSWICH
000221: 35,2426           02234        SWCHSET            STORE    NOMTPI
000222: 35,2427           43345        INTLOOP            DLOAD    DAD
000223: 35,2430           03643                                    TTPI
000224: 35,2431           02234                                    NOMTPI
000225: 35,2432           34041                           STCALL   TDEC1
000226: 35,2433           45416                                    PRECSET
000227: 35,2434           77624                           CALL
000228: 35,2435           72713                                    S33/34.1
000229: 35,2436           77454                           BZE      EXIT
000230: 35,2437           72450                                    SWCHCLR
000231: 35,2440           05644        INTALM             TC       ALARM
000232: 35,2441           00611                           OCT      611
000233: 35,2442           35036                           CAF      V05N09
000234: 35,2443           04647                           TC       BANKCALL
000235: 35,2444           20623                           CADR     GOFLASH
000236: 35,2445           04103                           TC       GOTOPOOH
000237: 35,2446           02367                           TC       P35                                   #  PROCEED
000238: 35,2447           02440                           TC       INTALM                                #  V32
000239: 35,2450           43014        SWCHCLR            BONCLR   BON
000240: 35,2451           03601                                    ITSWICH
000241: 35,2452           72427                                    INTLOOP
000242: 35,2453           01310                                    ETPIFLAG
000243: 35,2454           72463                                    P34/P74D                              #  DISPLAY TTPI
000244: 35,2455           77776                           EXIT
000245: 35,2456           34601                           CAF      V06N55
000246: 35,2457           05550                           TC       VNFLASH
000247: 35,2460           06006                           TC       INTPRET
000248: 35,2461           77650                           GOTO
000249: 35,2462           72513                                    P34/74E
000250: 35,2463           77745        P34/P74D           DLOAD
000251: 35,2464           03643                                    TTPI
000252: 35,2465           03576                           STORE    VTPRIME
000253: 35,2466           77776                           EXIT
000254: 35,2467           34600                           CAF      V06N37                                #  TTPI
000255: 35,2470           05550                           TC       VNFLASH
000256: 35,2471           06006        P34/P74E           TC       INTPRET
000257: 35,2472           43014                           BOFF     BOFF
000258: 35,2473           01351                                    FINALFLG
000259: 35,2474           72513                                    P34/74E                               #  LAST PASS
000260: 35,2475           05350                                    AUTOSEQ
000261: 35,2476           72513                                    P34/74E
000262: 35,2477           45345                           DLOAD    DSU
000263: 35,2500           03576                                    VTPRIME
000264: 35,2501           03643                                    TTPI
000265: 35,2502           53046                           ABVAL    BZE
000266: 35,2503           72513                                    P34/74E
000267: 35,2504           43145                           DLOAD    CLEAR                                 #  IT IS FINAL COMP IN MINKEY
000268: 35,2505           15204                                    ZEROVECS                              #    SET UP FOR TIG OPTION
000269: 35,2506           01270                                    ETPIFLAG
000270: 35,2507           17641                           STODL    ELEV
000271: 35,2510           03643                                    TTPI
000272: 35,2511           37413                           STCALL   TIG
000273: 35,2512           72417                                    P34/P74C
000274: 35,2513           71201        P34/74E            SETPD    DLOAD
000275: 35,2514           00001                                    0D
000276: 35,2515           32625                                    130DEG
000277: 35,2516           71406                           PUSH     COS
000278: 35,2517           16726                           STODL    CSTH
000279: 35,2520           77756                           SIN
000280: 35,2521           26724                           STOVL    SNTH
000281: 35,2522           03532                                    RPASS3
000282: 35,2523           26651                           STOVL    RVEC
000283: 35,2524           03540                                    VPASS3
000284: 35,2525           77614                           SET
000285: 35,2526           03466                                    RVSW
000286: 35,2527           36740                           STCALL   VVEC
000287: 35,2530           25004                                    TIMETHET
000288: 35,2531           77745                           DLOAD
000289: 35,2532           03643                                    TTPI
000290: 35,2533           02332                           STORE    INTIME                                #  FOR INITVEL
000291: 35,2534           77615                           DAD
000292: 35,2535           00037                                    T                                     #  RENDEZVOUS TIME
000293: 35,2536           37634                           STCALL   TPASS4                                #  FOR INITVEL
000294: 35,2537           73223                                    S34/35.2
000295: 35,2540           51575                           VLOAD    ABVAL
000296: 35,2541           03624                                    DELVEET3
000297: 35,2542           26627                           STOVL    DELVTPI
000298: 35,2543           03616                                    VPASS4
000299: 35,2544           51451                           VSU      ABVAL
000300: 35,2545           03576                                    VTPRIME
000301: 35,2546           26631                           STOVL    DELVTPF
000302: 35,2547           03516                                    RACT3
000303: 35,2550           45115                           PDVL     CALL
000304: 35,2551           03570                                    VIPRIME
000305: 35,2552           45375                                    PERIAPO1
000306: 35,2553           16633                           STODL    POSTTPI
000307: 35,2554           03643                                    TTPI
000308: 35,2555           03413                           STORE    TIG
000309: 35,2556           77624                           CALL
000310: 35,2557           56566                                    P33/73F
000311: 35,2560           77776                           EXIT
000312: 35,2561           34602                           CAF      V06N58
000313: 35,2562           05550                           TC       VNFLASH
000314: 35,2563           06006                           TC       INTPRET
000315: 35,2564           43014                           BON      SET
000316: 35,2565           01311                                    FINALFLG
000317: 35,2566           72572                                    +4
000318: 35,2567           00470                                    UPDATFLG
000319: 35,2570           77650                           GOTO
000320: 35,2571           72574                                    +3
000321: 35,2572           77614                           SET
000322: 35,2573           05074                                    TPIMNFLG
000323: 35,2574           77775                           VLOAD
000324: 35,2575           03405                                    DELVLVC
000325: 35,2576           03576                           STORE    VTPRIME
000326: 35,2577           77776                           EXIT
000327:
000328: 35,2600           34603                           CAF      V06N81
000329: 35,2601           05550                           TC       VNFLASH
000330:
000331: 35,2602           06006                           TC       INTPRET
000332: 35,2603           52375                           VLOAD    VSU
000333: 35,2604           03405                                    DELVLVC
000334: 35,2605           03576                                    VTPRIME
000335: 35,2606           53046                           ABVAL    BZE
000336: 35,2607           72620                                    NOWRT35
000337: 35,2610           77624                           CALL
000338: 35,2611           73333                                    LOMAT                                 #  GET MATRIX IN PUSH LIST
000339: 35,2612           77775                           VLOAD
000340: 35,2613           03405                                    DELVLVC                               #  NEW DEL V TPI
000341: 35,2614           76505                           VXM      VSL1
000342: 35,2615           00001                                    0D
000343: 35,2616           77624                           CALL
000344: 35,2617           73307                                    S34/35.3
000345: 35,2620           77624        NOWRT35            CALL
000346: 35,2621           73430                                    VN1645
000347: 35,2622           77650                           GOTO
000348: 35,2623           72417                                    P34/P74C
000349: 35,2624           13434        130DEG             OCT      13434                                 #  13  DEG - CENTANG
000350: 35,2625           16163                           OCT      16163
000351:
000352:                                                                                                  #  RENDEZVOUS MID-COURSE MANEUVER PROGRAMS (P35 AND P75)
000353:
000354:                                                                                                  #  MOD NO -1             LOG SECTION - P32-P35, P72-P75
000355:                                                                                                  #  MOD BY WHITE.P        DATE  1JUNE67
000356:
000357:                                                                                                  #  PURPOSE
000358:
000359:                                                                                                  #        (1) TO CALCULATE THE REQUIRED DELTA V AND OTHER INITIAL CONDITIONS
000360:                                                                                                  #            REQUIRED BY THE ACTIVE VEHICLE FOR EXECUTION OF THE NEXT
000361:                                                                                                  #            MIDCOURSE CORRECTION OF THE TRANSFER PHASE OF AN ACTIVE
000362:                                                                                                  #            VEHICLE RENDEZVOUS.
000363:
000364:                                                                                                  #        (2) TO DISPLAY TO THE ASTRONAUT AND THE GROUND CERTAIN DEPENDENT
000365:                                                                                                  #            VARIABLES ASSOCIATED WITH THE MANEUVER FOR APPROVAL BY THE
000366:                                                                                                  #            ASTRONAUT/GROUND.
000367:
000368:                                                                                                  #        (3) TO STORE THE TPM TARGET PARAMETERS FOR USE BY THE DESIRED
000369:                                                                                                  #            THRUSTING PROGRAM.
000370:
000371:                                                                                                  #  ASSUMPTIONS
000372:
000373:                                                                                                  #        (1) THE ISS NEED NOT BE ON TO COMPLETE THIS PROGRAM.
000374:
000375:                                                                                                  #        (2) STATE VECTOR UPDATES BY P27 ARE DISALLOWED DURING AUTOMATIC
000376:                                                                                                  #            STATE VECTOR UPDATING INITIATED BY P20 (SEE ASSUMPTION (3)).
000377:
000378:                                                                                                  #        (3) THE RENDEZVOUS RADAR IS ON AND IS LOCKED ON THE CSM.  THIS WAS
000379:                                                                                                  #            DONE DURING PREVIOUS SELECTION OF P20.  RADAR SIGHTING MARKS
000380:                                                                                                  #            WILL BE MADE AUTOMATICALLY APPROXIMATELY ONCE A MINUTE WHEN
000381:                                                                                                  #            ENABLED BY THE TRACK AND UPDATE FLAGS (SEE P20). THE
000382:                                                                                                  #            RENDEZVOUS TRACKING MARK COUNTER IS ZEROED BY THE SELECTION OF
000383:                                                                                                  #            P20 AND AFTER EACH THRUSTING MANEUVER.
000384:
000385:                                                                                                  #        (4) THE OPERATION OF THE PROGRAM UTILIZES THE FOLLOWING FLAGS -
000386:
000387:                                                                                                  #                ACTIVE VEHICLE FLAG - DESIGNATES THE VEHICLE WHICH IS
000388:                                                                                                  #                DOING RENDEZVOUS THRUSTING MANEUVERS TO THE PROGRAM WHICH
000389:                                                                                                  #                CALCULATES THE MANEUVER PARAMETERS.  SET AT THE START OF
000390:                                                                                                  #                EACH RENDEZVOUS PRE-THRUSTING PROGRAM.
000391:
000392:                                                                                                  #                FINAL FLAG - SELECTS FINAL PROGRAM DISPLAYS AFTER CREW HAS
000393:                                                                                                  #                SELECTED THE FINAL MANEUVER COMPUTATION CYCLE.
000394:
000395:                                                                                                  #                EXTERNAL DELTA V FLAG - DESIGNATES THE TYPE OF STEERING
000396:                                                                                                  #                REQUIRED FOR EXECUTION OF THIS MANEUVER BY THE THRUSTING
000397:                                                                                                  #                PROGRAM SELECTED AFTER COMPLETION OF THIS PROGRAM.
000398:
000399:                                                                                                  #        (5) THE TIME OF INTERCEPT (T(INT)) WAS DEFINED BY PREVIOUS
000400:                                                                                                  #            COMPLETION OF THE TRANSFER PHASE INITIATION (TPI) PROGRAM
000401:                                                                                                  #            (P34/P74) AND IS PRESENTLY AVAILABLE IN STORAGE.
000402:
000403:                                                                                                  #        (6) ONCE THE PARAMETERS REQUIRED FOR COMPUTION OF THE MANEUVER
000404:                                                                                                  #            HAVE BEEN COMPLETELY SPECIFIED, THE VALUE OF THE ACTIVE
000405:                                                                                                  #            VEHICLE CENTRAL ANGLE OF TRANSFER IS COMPUTED AND STORED.
000406:                                                                                                  #            THIS NUMBER WILL BE AVAILABLE FOR DISPLAY TO THE ASTRONAUT
000407:                                                                                                  #            THROUGH THE USE OF V06N52.
000408:
000409:                                                                                                  #            THE ASTRONAUT WILL CALL THIS DISPLAY TO VERIFY THAT THE
000410:                                                                                                  #            CENTRAL ANGLE OF TRANSFER OF THE ACTIVE VEHICLE IS NOT WITHIN
000411:                                                                                                  #            170 TO 190 DEGREES.  IF THE ANGLE IS WITHIN THIS ZONE THE
000412:                                                                                                  #            ASTRONAUT SHOULD REASSESS THE INPUT TARGETING PARAMETERS BASED
000413:                                                                                                  #            UPON DELTA V AND EXPECTED MANEUVER TIME.
000414:
000415:                                                                                                  #        (7) THIS PROGRAM IS SELECTED BY THE ASTRONAUT BY DSKY ENTRY -
000416:
000417:                                                                                                  #                P35 IF THIS VEHICLE IS ACTIVE VEHICLE.
000418:
000419:                                                                                                  #                P75 IF THIS VEHICLE IS PASSIVE VEHICLE.
000420:
000421:                                                                                                  #  INPUT
000422:
000423:                                                                                                  #        (1) TPASS4      TIME OF INTERCEPT - SAVED FROM P34/P74
000424:
000425:                                                                                                  #  OUTPUT
000426:
000427:                                                                                                  #        (1) TRKMKCNT    NUMBER OF MARKS
000428:                                                                                                  #        (2) TTOGO       TIME TO GO
000429:                                                                                                  #        (3) +MGA        MIDDLE GIMBAL ANGLE
000430:                                                                                                  #        (4) DVLOS       DELTA VELOCITY AT MID - LINE OF SIGHT
000431:                                                                                                  #        (5) DELVLVC     DELTA VELOCITY AT MID - LOCAL VERTICAL COORDINATES
000432:
000433:                                                                                                  #  DOWNLINK
000434:
000435:                                                                                                  #        (1) TIG         TIME OF THE TPM MANEUVER
000436:                                                                                                  #        (2) DELVEET3    DELTA VELOCITY AT TPM - REFERENCE COORDINATES
000437:                                                                                                  #        (3) TPASS4      TIME OF INTERCEPT
000438:
000439:                                                                                                  #  COMMUNICATION TO THRUSTING PROGRAMS
000440:
000441:                                                                                                  #        (1) TIG         TIME OF THE TPM MANEUVER
000442:                                                                                                  #        (2) RTARG       OFFSET TARGET POSITION
000443:                                                                                                  #        (3) TPASS4      TIME OF INTERCEPT
000444:                                                                                                  #        (4) XDELVFLG    RESET TO INDICATE LAMBERT (AIMPOINT) VG COMPUTATION
000445:
000446:                                                                                                  #  SUBROUTINES USED
000447:
000448:                                                                                                  #        LOADTIME
000449:                                                                                                  #        PRECSET
000450:                                                                                                  #        S34/35.1
000451:                                                                                                  #        S34/35.2
000452:                                                                                                  #        S34/35.5
000453:                                                                                                  #        VN1645
000454:
000455: 35,2626                                           COUNT*   $$/P3537
000456: 35,2626  E7,1412                                  EBANK=   TIG
000457:
000458: 35,2626           04564        P36                TC       P20FLGON                              #  SET UPDATFLG, TRACKFLG
000459: 35,2627           06006                           TC       INTPRET
000460: 35,2630           43014                           SET      CLEAR
000461: 35,2631           05074                                    TPIMNFLG
000462: 35,2632           01271                                    FINALFLG
000463: 35,2633           77624                           CALL
000464: 35,2634           73430                                    VN1645
000465: 35,2635           77634        P35/P75B           RTB
000466: 35,2636           45563                                    LOADTIME
000467: 35,2637           03645                           STORE    TSTRT
000468: 35,2640           77615                           DAD
000469: 35,2641           32712                                    ATIGINC
000470: 35,2642           03413                           STORE    TIG
000471: 35,2643           02332                           STORE    INTIME                                #  FOR INITVEL
000472: 35,2644           34041                           STCALL   TDEC1
000473: 35,2645           45416                                    PRECSET                               #  ADVANCE BOTH VEHICLES
000474: 35,2646           77624                           CALL
000475: 35,2647           74763                                    S34/35.1                              #  GET NORM AND LOS FOR TRANSFORM
000476: 35,2650           77624                           CALL
000477: 35,2651           73223                                    S34/35.2                              #  GET DELTA V(LV)
000478: 35,2652           43014                           BON      SET
000479: 35,2653           01311                                    FINALFLG
000480: 35,2654           72660                                    +4
000481: 35,2655           00470                                    UPDATFLG
000482: 35,2656           77650                           GOTO
000483: 35,2657           72662                                    +3
000484: 35,2660           77614                           SET
000485: 35,2661           05067                                    P35FLAG
000486: 35,2662           77775                           VLOAD
000487: 35,2663           02611                                    DVLOS
000488: 35,2664           03576                           STORE    VTPRIME
000489: 35,2665           77776                           EXIT
000490:
000491: 35,2666           33553                           CAF      V06N59
000492: 35,2667           05550                           TC       VNFLASH
000493:
000494: 35,2670           06006                           TC       INTPRET
000495: 35,2671           52375                           VLOAD    VSU
000496: 35,2672           02611                                    DVLOS
000497: 35,2673           03576                                    VTPRIME
000498: 35,2674           53046                           ABVAL    BZE
000499: 35,2675           72705                                    NOWRT36
000500: 35,2676           77624                           CALL
000501: 35,2677           73376                                    LSMAT
000502: 35,2700           61375                           VLOAD    VXM
000503: 35,2701           02611                                    DVLOS
000504: 35,2702           00001                                    0
000505: 35,2703           45172                           VSL1     CALL
000506: 35,2704           73307                                    S34/35.3
000507: 35,2705           77624        NOWRT36            CALL
000508: 35,2706           73430                                    VN1645
000509: 35,2707           77650                           GOTO
000510: 35,2710           72635                                    P35/P75B
000511:
000512: 35,2711           00001 03120  ATIGINC            2DEC     18000      B-28
000513:
000514: 04,2000                                           SETLOC   P37LOC
000515: 04,2000  E7,1717                                  EBANK=   UTPIT
000516: 04,2000                                           BANK
000517:
000518: 04,3127           04564        P37                TC       P20FLGON
000519:
000520: 04,3130           35003                           CAF      ZERO
000521: 04,3131           54001                           TS       L
000522: 04,3132           53720                           DXCH     UTPIT
000523:
000524: 04,3133           35003                           CAF      ZERO
000525: 04,3134           54001                           TS       L
000526: 04,3135           53722                           DXCH     UTYAW
000527:
000528: 04,3136           05415                           TC       PHASCHNG
000529: 04,3137           04024                           OCT      04024
000530:
000531: 04,3140           34124                           CAF      OCT24
000532: 04,3141           55237                           TS       EXTVBACT
000533:
000534: 04,3142           07710                           TC       UPFLAG
000535: 04,3143           00222                           ADRES    R31FLAG
000536: 04,3144           35061                           CAF      PRIO5
000537: 04,3145           05150                           TC       FINDVAC
000538: 04,3146  E4,1636                                  EBANK=   SUBEXIT
000539: 04,3146           02000 62064                     2CADR    R31CALL
000540:
000541: 04,3150           05220                           TC       ENDOFJOB
000542:
000543: 35,2000                                           SETLOC   CSI/CDH
000544: 35,2000                                           BANK
000545: 35,2713  E7,1412                                  EBANK=   TIG
000546: 35,2713                                           COUNT*   $$/P3537
000547:
000548:                                                                                                  #  ..... S33/34.1  .....
000549:
000550: 35,2713           66220        S33/34.1           STQ      SSP
000551: 35,2714           01011                                    NORMEX
000552: 35,2715           03645                                    TITER
000553: 35,2716           40000                           OCT      40000
000554: 35,2717           40345                           DLOAD    SETPD
000555: 35,2720           33544                                    MAX250
000556: 35,2721           00001                                    0D
000557: 35,2722           27454                           STOVL    SECMAX
000558: 35,2723           03516                                    RACT3
000559: 35,2724           27554                           STOVL    RAPREC
000560: 35,2725           03524                                    VACT3
000561: 35,2726           27546                           STOVL    VAPREC
000562: 35,2727           03532                                    RPASS3
000563: 35,2730           27576                           STOVL    RPPREC
000564: 35,2731           03540                                    VPASS3
000565: 35,2732           03570                           STORE    VPPREC
000566: 35,2733           77624        ELCALC             CALL
000567: 35,2734           74763                                    S34/35.1                              #  NORMAL AND LOS
000568: 35,2735           63235                           VXV      PDVL
000569: 35,2736           03516                                    RACT3                                 #  (RA*VA)*RA 0D
000570: 35,2737           53515                           PDVL     UNIT                                  #  ULOS AT 6D
000571: 35,2740           03516                                    RACT3
000572: 35,2741           46315                           PDVL     VPROJ                                 #  XCHNJ AND UP
000573: 35,2742           51352                           VSL2     BVSU
000574: 35,2743           02617                                    ULOS
000575: 35,2744           63256                           UNIT     PDVL                                  #  UP AT 0D
000576: 35,2745           63241                           DOT      PDVL                                  #  UP.UN*RA AT 0D
000577: 35,2746           00001                                    0D                                    #  UP IN MPAC
000578: 35,2747           75241                           DOT      SIGN
000579: 35,2750           02617                                    ULOS
000580: 35,2751           65552                           SL1      ACOS
000581: 35,2752           50315                           PDVL     DOT                                   #  EA AT 0D
000582: 35,2753           02617                                    ULOS
000583: 35,2754           03516                                    RACT3
000584: 35,2755           71244                           BPL      DLOAD
000585: 35,2756           72761                                    TESTY
000586: 35,2757           15212                                    DPPOSMAX
000587: 35,2760           41425                           DSU      PUSH
000588: 35,2761           71214        TESTY              BOFF     DLOAD
000589: 35,2762           03741                                    ITSWICH
000590: 35,2763           73210                                    ELEX
000591: 35,2764           03452                                    DELEL
000592: 35,2765           14033                           STODL    DELELO
000593: 35,2766           77625                           DSU
000594: 35,2767           03641                                    ELEV
000595: 35,2770           03452                           STORE    DELEL
000596: 35,2771           45246                           ABS      DSU
000597: 35,2772           33550                                    ELEPS
000598: 35,2773           77640                           BMN
000599: 35,2774           73220                                    TIMEX                                 #  COMMERCIALS EVERYWHERE
000600: 35,2775           70535        FIGTIME            SLOAD    SR1
000601: 35,2776           03645                                    TITER
000602: 35,2777           72030                           BHIZ     LXA,1
000603: 35,3000           01011                                    NORMEX                                #  TOO MANY ITERATIONS
000604: 35,3001           00154                                    MPAC
000605: 35,3002           77330                           SXA,1    VLOAD
000606: 35,3003           03644                                    TITER
000607: 35,3004           03532                                    RPASS3
000608: 35,3005           65256                           UNIT     PDDL
000609: 35,3006           00045                                    36D
000610: 35,3007           53515                           PDVL     UNIT
000611: 35,3010           03516                                    RACT3
000612: 35,3011           77725                           PDDL
000613: 35,3012           41525                           PDDL     PUSH
000614: 35,3013           00045                                    36D
000615: 35,3014           77621                           BDSU
000616: 35,3015           00015                                    12D
000617: 35,3016           14037                           STODL    30D                                   #  RP - RA MAGNITUDES
000618: 35,3017           15202                                    DPHALF
000619: 35,3020           41425                           DSU      PUSH
000620: 35,3021           03641                                    ELEV
000621: 35,3022           50165                           SIGN     BMN
000622: 35,3023           00037                                    30D
000623: 35,3024           01011                                    NORMEX
000624: 35,3025           71545                           DLOAD    COS
000625: 35,3026           56205                           DMP      DDV
000626: 35,3027           00017                                    14D
000627: 35,3030           00015                                    12D
000628: 35,3031           77676                           DCOMP                                          #  SINCE COS(180-A)=-COS A
000629: 35,3032           00035                           STORE    28D
000630: 35,3033           44246                           ABS      BDSU
000631: 35,3034           15202                                    DPHALF
000632: 35,3035           77240                           BMN      VLOAD
000633: 35,3036           01011                                    NORMEX
000634: 35,3037           02543                                    UNRM
000635: 35,3040           53435                           VXV      UNIT
000636: 35,3041           00007                                    6D                                    #  UN*RA
000637: 35,3042           41241                           DOT      DMP
000638: 35,3043           03524                                    VACT3
000639: 35,3044           00015                                    12D
000640: 35,3045           47315                           PDVL     VXV
000641: 35,3046           00001                                    0D
000642: 35,3047           03540                                    VPASS3
000643: 35,3050           53435                           VXV      UNIT
000644: 35,3051           00001                                    0D                                    #  (RP*VP)*RP
000645: 35,3052           41241                           DOT      DMP
000646: 35,3053           03540                                    VPASS3
000647: 35,3054           00017                                    14D
000648: 35,3055           77621                           BDSU
000649: 35,3056           63301                           NORM     PDVL                                  #  NORMALIZED WA - WP 12D
000650: 35,3057           00047                                    X1
000651: 35,3060           00007                                    6D
000652: 35,3061           50235                           VXV      DOT
000653: 35,3062           00001                                    0D
000654: 35,3063           02543                                    UNRM                                  #  RA*RP.UN 14D
000655: 35,3064           50315                           PDVL     DOT
000656: 35,3065           00001                                    0D
000657: 35,3066           00007                                    6D
000658: 35,3067           65552                           SL1      ACOS
000659: 35,3070           77765                           SIGN
000660: 35,3071           43225                           DSU      DAD                                   #    ALPHA   PI
000661: 35,3072           15202                                    DPHALF
000662: 35,3073           03641                                    ELEV
000663: 35,3074           65525                           PDDL     ACOS
000664: 35,3075           00035                                    28D
000665: 35,3076           75221                           BDSU     SIGN
000666: 35,3077           15202                                    DPHALF
000667: 35,3100           00037                                    30D                                   #  CONTAINS RP-RA
000668: 35,3101           77615                           DAD
000669: 35,3102           56205                           DMP      DDV
000670: 35,3103           33542                                    TWOPI
000671: 35,3104           77605                           DMP
000672: 35,3105           41257                           SL*      DMP
000673: 35,3106           20176                                    0          -3,1
000674: 35,3107           51406                           PUSH     ABS
000675: 35,3110           50025                           DSU      BMN
000676: 35,3111           03454                                    SECMAX
000677: 35,3112           73116                                    OKMAX
000678: 35,3113           75345                           DLOAD    SIGN                                  #  REPLACE TIME WITH MAX TIME SIGNED
000679: 35,3114           03454                                    SECMAX
000680: 35,3115           77606                           PUSH
000681: 35,3116           51135        OKMAX              SLOAD    BPL                                   #  TEST FIRST ITERATION
000682: 35,3117           03645                                    TITER
000683: 35,3120           73126                                    REPETE
000684: 35,3121           71331                           SSP      DLOAD
000685: 35,3122           03645                                    TITER
000686: 35,3123           37777                           OCT      37777
000687: 35,3124           77650                           GOTO
000688: 35,3125           73164                                    STORDELT
000689: 35,3126           41345        REPETE             DLOAD    DMP
000690: 35,3127           03452                                    DELEL
000691: 35,3130           00033                                    DELELO
000692: 35,3131           71244                           BPL      DLOAD
000693: 35,3132           73142                                    NEXTES
000694: 35,3133           03454                                    SECMAX
000695: 35,3134           77605                           DMP
000696: 35,3135           33546                                    THIRD
000697: 35,3136           17454                           STODL    SECMAX
000698: 35,3137           70446                           ABS      SR1                                   #  CROSSED OVER SOLUTION
000699: 35,3140           52076                           DCOMP    GOTO                                  #  DT=(-SIGN(DTO)//DT//)/2
000700: 35,3141           73152                                    RESIGN
000701: 35,3142           51545        NEXTES             DLOAD    ABS
000702: 35,3143           03452                                    DELEL
000703: 35,3144           51525                           PDDL     ABS
000704: 35,3145           00033                                    DELELO
000705: 35,3146           77625                           DSU
000706: 35,3147           71240                           BMN      DLOAD
000707: 35,3150           73155                                    REVERS                                #  WRONG DIRECTION
000708: 35,3151           77646                           ABS
000709: 35,3152           52165        RESIGN             SIGN     GOTO
000710: 35,3153           03450                                    DELTEEO
000711: 35,3154           73164                                    STORDELT
000712: 35,3155           57545        REVERS             DLOAD    DCOMP
000713: 35,3156           03450                                    DELTEEO
000714: 35,3157           70406                           PUSH     SR1
000715: 35,3160           03450                           STORE    DELTEEO
000716: 35,3161           77615                           DAD
000717: 35,3162           77650                           GOTO
000718: 35,3163           73165                                    ADTIME
000719: 35,3164           03450        STORDELT           STORE    DELTEEO
000720: 35,3165           77615        ADTIME             DAD
000721: 35,3166           02234                                    NOMTPI                                #  SUM OF DELTA T:S
000722: 35,3167           02234                           STORE    NOMTPI
000723: 35,3170           63375                           VLOAD    PDVL
000724: 35,3171           03546                                    VAPREC
000725: 35,3172           03554                                    RAPREC
000726: 35,3173           77624                           CALL
000727: 35,3174           73346                                    GOINT
000728: 35,3175           77624                           CALL
000729: 35,3176           45462                                    ACTIVE                                #  STORE NEW RACT3 VACT3
000730: 35,3177           63375                           VLOAD    PDVL
000731: 35,3200           03570                                    VPPREC
000732: 35,3201           03576                                    RPPREC
000733: 35,3202           77624                           CALL
000734: 35,3203           73346                                    GOINT
000735: 35,3204           77624                           CALL
000736: 35,3205           45470                                    PASSIVE                               #  STORE NEW RPASS3 VPASS3
000737: 35,3206           77650                           GOTO
000738: 35,3207           72733                                    ELCALC
000739: 35,3210           43345        ELEX               DLOAD    DAD
000740: 35,3211           03643                                    TTPI
000741: 35,3212           02234                                    NOMTPI
000742: 35,3213           17643                           STODL    TTPI
000743: 35,3214           77614                           BON
000744: 35,3215           01310                                    ETPIFLAG
000745: 35,3216           73220                                    TIMEX
000746: 35,3217           03641                           STORE    ELEV
000747: 35,3220           52145        TIMEX              DLOAD    GOTO
000748: 35,3221           15204                                    ZEROVECS
000749: 35,3222           01011                                    NORMEX
000750:
000751:                                                                                                  #  ..... S34/35.1  .....
000752:
000753:                                                                                                  #  COMPUTE UNIT NORMAL AND LINE OF SIGHT VECTORS GIVEN THE ACTIVE AND
000754:                                                                                                  #  PASSIVE POS AND VEL AT TIME T3
000755:
000756: 36,2000                                           SETLOC   S3435LOC
000757: 36,2000                                           BANK
000758:
000759: 36,2763                                           COUNT*   $$/P3474
000760: 36,2763           52375        S34/35.1           VLOAD    VSU
000761: 36,2764           03532                                    RPASS3
000762: 36,2765           03516                                    RACT3
000763: 36,2766           41456                           UNIT     PUSH
000764: 36,2767           26617                           STOVL    ULOS
000765: 36,2770           03516                                    RACT3
000766: 36,2771           53435                           VXV      UNIT
000767: 36,2772           03524                                    VACT3
000768: 36,2773           02543                           STORE    UNRM
000769: 36,2774           77616                           RVQ
000770:
000771:                                                                                                  #  ..... S34/35.2  .....
000772:
000773:                                                                                                  #  ADVANCE PASSIVE VEH TO RENDEZVOUS TIME AND GET REQ VEL FROM LAMBERT
000774:
000775: 35,2000                                           SETLOC   CSI/CDH
000776: 35,2000                                           BANK
000777:
000778: 35,3223                                           COUNT*   $$/P3474
000779: 35,3223           77220        S34/35.2           STQ      VLOAD
000780: 35,3224           02236                                    SUBEXIT
000781: 35,3225           03540                                    VPASS3
000782: 35,3226           65315                           PDVL     PDDL
000783: 35,3227           03532                                    RPASS3
000784: 35,3230           02332                                    INTIME
000785: 35,3231           65325                           PDDL     PDDL
000786: 35,3232           03634                                    TPASS4
000787: 35,3233           33542                                    TWOPI                                 #  CONIC
000788: 35,3234           46125                           PDDL     BHIZ
000789: 35,3235           03724                                    NN
000790: 35,3236           73241                                    S3435.23
000791: 35,3237           65345                           DLOAD    PDDL
000792: 35,3240           15204                                    ZEROVECS                              #  PRECISION
000793: 35,3241           77624        S3435.23           CALL
000794: 35,3242           73352                                    INTINT                                #  GET TARGET VECTOR
000795: 35,3243           27415        S3435.25           STOVL    RTARG
000796: 35,3244           00007                                    VATT
000797: 35,3245           27616                           STOVL    VPASS4
000798: 35,3246           03415                                    RTARG
000799:                                                                                                  #  COMPUTE PHI = PI + (ACOS(UNIT RA.UNIT RP)-PI)SIGN(RA*RP.U)
000800: 35,3247           63256                           UNIT     PDVL                                  #  UNIT RP
000801: 35,3250           03516                                    RACT3
000802: 35,3251           41456                           UNIT     PUSH                                  #  UNIT RA
000803: 35,3252           50235                           VXV      DOT
000804: 35,3253           00001                                    0D
000805: 35,3254           02543                                    UNRM                                  #  RA*RP.U
000806: 35,3255           77715                           PDVL
000807: 35,3256           72441                           DOT      SL1                                   #  UNIT RA.UNIT RP
000808: 35,3257           00001                                    0D
000809: 35,3260           75326                           ACOS     SIGN
000810: 35,3261           43244                           BPL      DAD
000811: 35,3262           73264                                    NOPIE
000812: 35,3263           15212                                    DPPOSMAX                              #  REASONABLE TWO PI
000813: 35,3264           16625        NOPIE              STODL    ACTCENT
000814: 35,3265           03634                                    TPASS4
000815: 35,3266           77625                           DSU
000816: 35,3267           02332                                    INTIME
000817: 35,3270           03423                           STORE    DELLT4
000818: 35,3271           40335                           SLOAD    SETPD
000819: 35,3272           03724                                    NN                                    #  NUMBER OF OFFSETS
000820: 35,3273           00001                                    0D
000821: 35,3274           63325                           PDDL     PDVL
000822: 35,3275           33552                                    EPSFOUR
000823: 35,3276           03516                                    RACT3
000824: 35,3277           27546                           STOVL    RINIT
000825: 35,3300           03524                                    VACT3
000826: 35,3301           37554                           STCALL   VINIT
000827: 35,3302           22000                                    INITVEL
000828: 35,3303           77624                           CALL
000829: 35,3304           73411                                    DVCONV
000830: 35,3305           77650                           GOTO
000831: 35,3306           02236                                    SUBEXIT
000832:
000833:                                                                                                  #  ..... S34/35.3  .....
000834:
000835: 35,3307           77620        S34/35.3           STQ
000836: 35,3310           01011                                    NORMEX
000837: 35,3311           03624                           STORE    DELVEET3                              #  SAVE FOR TRANSFORM
000838: 35,3312           63255                           VAD      PDVL
000839: 35,3313           03524                                    VACT3                                 #  NEW V REQ
000840: 35,3314           03516                                    RACT3
000841: 35,3315           65325                           PDDL     PDDL
000842: 35,3316           03413                                    TIG
000843: 35,3317           03634                                    TPASS4
000844: 35,3320           41525                           PDDL     PUSH
000845: 35,3321           15212                                    DPPOSMAX
000846: 35,3322           77624                           CALL                                           #  INTEG. FOR NEW TARGET VEC
000847: 35,3323           73352                                    INTINT
000848: 35,3324           77775                           VLOAD
000849: 35,3325           00001                                    RATT
000850: 35,3326           03415                           STORE    RTARG
000851: 35,3327           77624                           CALL
000852: 35,3330           73411                                    DVCONV
000853: 35,3331           77650                           GOTO
000854: 35,3332           01011                                    NORMEX
000855:
000856:                                                                                                  #  ..... LOMAT     .....
000857:
000858: 35,3333           57575        LOMAT              VLOAD    VCOMP
000859: 35,3334           02543                                    UNRM
000860: 35,3335           24007                           STOVL    6D                                    #  Y
000861: 35,3336           03516                                    RACT3
000862: 35,3337           57456                           UNIT     VCOMP
000863: 35,3340           00015                           STORE    12D
000864: 35,3341           76435                           VXV      VSL1
000865: 35,3342           02543                                    UNRM                                  #  Z*-Y
000866: 35,3343           00001                           STORE    0D
000867: 35,3344           43401                           SETPD    RVQ
000868: 35,3345           00023                                    18D
000869: 35,3346           65325        GOINT              PDDL     PDDL                                  #  DO
000870: 35,3347           15204                                    ZEROVECS                              #    NOT
000871: 35,3350           02234                                    NOMTPI
000872: 35,3351           41406                           PUSH     PUSH                                  #                ORDER OR INSERT BEFORE INTINT
000873: 35,3352           45020        INTINT             STQ      CALL
000874: 35,3353           02235                                    RTRN
000875: 35,3354           11720                                    INTSTALL
000876: 35,3355           71214                           CLEAR    DLOAD
000877: 35,3356           01673                                    INTYPFLG
000878: 35,3357           43054                           BZE      SET
000879: 35,3360           73362                                    +2
000880: 35,3361           01473                                    INTYPFLG
000881: 35,3362           45545                           DLOAD    STADR
000882: 35,3363           63736                           STODL    TDEC1
000883: 35,3364           77626                           STADR
000884: 35,3365           52260        ALLSET             STOVL    TET
000885: 35,3366           77626                           STADR
000886: 35,3367           52242                           STOVL    RCV
000887: 35,3370           77626                           STADR
000888: 35,3371           42234                           STCALL   VCV
000889: 35,3372           11444                                    INTEGRVS
000890: 35,3373           52175                           VLOAD    GOTO
000891: 35,3374           00001                                    RATT
000892: 35,3375           02235                                    RTRN
000893:


000895: 35,3376           77601        LSMAT              SETPD
000896: 35,3377           00001                                    0
000897: 35,3400           41575                           VLOAD    PUSH
000898: 35,3401           02617                                    ULOS
000899: 35,3402           57435                           VXV      VCOMP
000900: 35,3403           02543                                    UNRM
000901: 35,3404           41456                           UNIT     PUSH
000902: 35,3405           76435                           VXV      VSL1
000903: 35,3406           02617                                    ULOS
000904: 35,3407           77715                           PDVL
000905: 35,3410           43406                           PUSH     RVQ
000906:
000907:
000908: 35,3411           45020        DVCONV             STQ      CALL
000909: 35,3412           02237                                    QSAVED
000910: 35,3413           73333                                    LOMAT
000911: 35,3414           64375                           VLOAD    MXV
000912: 35,3415           03624                                    DELVEET3
000913: 35,3416           00001                                    0
000914: 35,3417           77772                           VSL1
000915: 35,3420           37405                           STCALL   DELVLVC
000916: 35,3421           73376                                    LSMAT
000917: 35,3422           64375                           VLOAD    MXV
000918: 35,3423           03624                                    DELVEET3
000919: 35,3424           00001                                    0
000920: 35,3425           77772                           VSL1
000921: 35,3426           36611                           STCALL   DVLOS
000922: 35,3427           02237                                    QSAVED
000923:
000924:
000925:                                                                                                  #  ..... VN1645    .....
000926:
000927:                                                                                                  #  SUBROUTINES USED
000928:
000929:                                                                                                  #        P3XORP7X
000930:                                                                                                  #        GET+MGA
000931:                                                                                                  #        BANKCALL
000932:                                                                                                  #        DELAYJOB
000933:                                                                                                  #        COMPTGO
000934:                                                                                                  #        GOFLASHR
000935:                                                                                                  #        GOTOPOOH
000936:                                                                                                  #        FLAGUP
000937:
000938: 35,3430           71220        VN1645             STQ      DLOAD
000939: 35,3431           02236                                    SUBEXIT
000940: 35,3432           20510                                    DP-.01
000941: 35,3433           03604                           STORE    +MGA                                  #  MGA = -.01
000942: 35,3434           71214                           BOFF     DLOAD
000943: 35,3435           01351                                    FINALFLG
000944: 35,3436           73452                                    GET45
000945: 35,3437           20510                                    DP-.01
000946: 35,3440           77615                           DAD
000947: 35,3441           20510                                    DP-.01
000948: 35,3442           03604                           STORE    +MGA                                  #  MGA = -.02
000949: 35,3443           77614                           BOFF
000950: 35,3444           01742                                    REFSMFLG
000951: 35,3445           73452                                    GET45
000952: 35,3446           41575                           VLOAD    PUSH
000953: 35,3447           03624                                    DELVSIN
000954: 35,3450           77624                           CALL                                           #  COMPUTE MGA
000955: 35,3451           56734                                    GET+MGA
000956: 35,3452           77776        GET45              EXIT
000957: 35,3453           02340                 +1        TC       COMPTGO                               #  INITIATE TASK TO UPDATE TTOGO
000958: 35,3454           31636                           CA       SUBEXIT
000959: 35,3455           55637                           TS       QSAVED
000960: 35,3456           04647                           TC       BANKCALL
000961: 35,3457           01730                           CADR     1SECDELY
000962: 35,3460           34604                           CAF      V16N45                                #  TRKMKCNT, TTOGO, +MGA
000963: 35,3461           04647                           TC       BANKCALL
000964: 35,3462           20623                           CADR     GOFLASH
000965: 35,3463           04103                           TC       GOTOPOOH                              #  TERMINATE
000966: 35,3464           03466                           TC       N45PROC                               #  PROCEED
000967: 35,3465           03476                           TC       CLUPDATE                              #  RECYCLE - RETURN FOR INITIAL COMPUTATION
000968: 35,3466           40076        N45PROC            CS       FLAGWRD2
000969: 35,3467           74774                           MASK     FINALBIT
000970: 35,3470           00006                           EXTEND
000971: 35,3471           13515                           BZF      N45ENAJ                               #  FINAL FLAG SET - FINAL PASS
000972: 35,3472           05415        N45NORM            TC       PHASCHNG
000973: 35,3473           04024                           OCT      04024
000974: 35,3474           07710                           TC       UPFLAG                                #  SET
000975: 35,3475           00047                           ADRES    FINALFLG                              #  FINALFLG
000976: 35,3476           07722        CLUPDATE           TC       DOWNFLAG
000977: 35,3477           00155                           ADRES    TIMRFLAG                              #  TERMINATE CLOKTASK
000978: 35,3500           33540                           CAF      VN1645AD                              #  CHANGE BACK TO 4.1 FOR
000979: 35,3501           54372                           TS       TEMPFLSH                              #  FUTURE DISPLAYS
000980: 35,3502           05415                           TC       PHASCHNG
000981: 35,3503           00014                           OCT      14
000982: 35,3504           03511                           TC       VN1645R
000983:
000984: 35,3505           35063        VNRSTART           CAF      PRIO7
000985: 35,3506           05211                           TC       PRIOCHNG
000986: 35,3507           35064                           CAF      PRIO13
000987: 35,3510           05211                           TC       PRIOCHNG
000988:
000989: 35,3511           06006        VN1645R            TC       INTPRET
000990: 35,3512           52014                           CLEAR    GOTO
000991: 35,3513           00670                                    UPDATFLG
000992: 35,3514           02237                 +3                 QSAVED
000993: 35,3515           05415        N45ENAJ            TC       PHASCHNG                              #  PROTECT MANEVFLG, WRENDPOS
000994: 35,3516           04024                           OCT      04024
000995: 35,3517           06006                           TC       INTPRET
000996: 35,3520           77745                           DLOAD
000997: 35,3521           03413                                    TIG
000998: 35,3522           03450                           STORE    NOMTIG
000999: 35,3523           43014                           BON      SET
001000: 35,3524           05316                                    PCFLAG
001001: 35,3525           73527                                    CHGRMS
001002: 35,3526           05072                                    MANEUFLG                              #  DONT SET FLAG IF PC MANEUVER
001003: 35,3527           71214        CHGRMS             BOFF     DLOAD
001004: 35,3530           05350                                    AUTOSEQ
001005: 35,3531           73534                                    SAMERMS
001006: 35,3532           33537                                    POSVEL2                               #  CHANGE RMS ONLY IN MINKEY
001007: 35,3533           02001                           STORE    WRENDPOS
001008: 35,3534           77776        SAMERMS            EXIT
001009: 35,3535           14105                           TCF      MNKGOPOO
001010: 35,3536           00023        POSVEL2            DEC      608        B-19                       #  2000 FT IN METERS
001011: 35,3537           00144        POSVEL3            DEC      .00608                                #  2 FT/SEC IN M/CS
001012: 35,3540           73510        VN1645AD           CADR     VNRSTART   +3
001013:
001014:    4000                                           SETLOC   P30SUBS
001015:    4000                                           BANK
001016:
001017:    4600                                           COUNT*   $$/P3474
001018:
001019:                                                                                                  #  ..... CONSTANTS .....
001020:
001021:    4600           01445        V06N37             VN       0637
001022:    4601           01467        V06N55             VN       0655
001023:    4602           01472        V06N58             VN       0658
001024:    4603           01521        V06N81             VN       0681
001025:    4604           04055        V16N45             VN       1645
001026:    4605           01006        V04N06             VN       0406
001027:
001028: 35,2000                                           SETLOC   CSI/CDH
001029: 35,2000                                           BANK
001030:
001031: 35,3541                                           COUNT*   $$/P3474
001032: 35,3541           14441 37325  TWOPI              2DEC     6.283185307 B-4
001033: 35,3543           00001 20650  MAX250             2DEC     25         E3
001034: 35,3545           12525 12525  THIRD              2DEC     .333333333
001035: 35,3547           00004 21505  ELEPS              2DEC     .27777777  E-3
001036: 35,3551           01252 25253  EPSFOUR            2DEC     .0416666666
001037: 35,3553           01473        V06N59             VN       0659
001038: 35,3554           00025 37100  60MINH             2DEC     360000     B-28
001039:
001040:                                                                                                  #  ..... INITVEL .....
001041:
001042:                                                                                                  #  MOD NO -1             LOG SECTION - P34-P35, P74-P75
001043:                                                                                                  #  MOD BY WHITE.P        DATE  21NOV67
001044:
001045:                                                                                                  #  FUNCTIONAL DESCRIPTION
001046:
001047:                                                                                                  #        THIS SUBROUTINE COMPUTES THE REQUIRED INITIAL VELOCITY VECTOR FOR
001048:                                                                                                  #        A TRAJECTORY OF SPECIFIED TRANSFER TIME BETWEEN SPECIFIED INITIAL
001049:                                                                                                  #        AND TARGET POSITIONS.  THE TRAJECTORY MAY BE EITHER CONIC OR
001050:                                                                                                  #        PRECISION DEPENDING ON AN INPUT PARAMETER (NAMELY, NUMBER OF
001051:                                                                                                  #        OFFSETS).  IN ADDITION, IN THE PRECISION TRAJECTORY CASE, THE
001052:                                                                                                  #        SUBROUTINE ALSO COMPUTES AN OFFSET TARGET VECTOR, TO BE USED
001053:                                                                                                  #        DURING PURE-CONIC CROSS-PRODUCT STEERING.  THE OFFSET TARGET
001054:                                                                                                  #        VECTOR IS THE TERMINAL POSITION VECTOR OF A CONIC TRAJECTORY WHICH
001055:                                                                                                  #        HAS THE SAME INITIAL STATE AS A PRECISION TRAJECTORY WHOSE
001056:                                                                                                  #        TERMINAL POSITION VECTOR IS THE SPECIFIED TARGET VECTOR.
001057:
001058:                                                                                                  #        IN ORDER TO AVOID THE INHERENT SINGULARITIES IN THE 180 DEGREE
001059:                                                                                                  #        TRANSFER CASE WHEN THE (TRUE OR OFFSET) TARGET VECTOR MAY BE
001060:                                                                                                  #        SLIGHTLYOUT OF THE ORBITAL PLANE, THIS SUBROUTINE ROTATES THIS
001061:                                                                                                  #        VECTOR INTO A PLANE DEFINED BY THE INPUT INITIAL POSITION VECTOR
001062:                                                                                                  #        AND ANOTHER INPUT VECTOR (USUALLY THE INITIAL VELOCITY VECTOR),
001063:                                                                                                  #        WHENEVER THE INPUT TARGET VECTOR LIES INSIDE A CONE WHOSE VERTEX
001064:                                                                                                  #        IS THE ORIGIN OF COORDINATES, WHOSE AXIS IS THE 180 DEGREE
001065:                                                                                                  #        TRANSFER DIRECTION, AND WHOSE CONE ANGLE IS SPECIFIED BY THE USER.
001066:
001067:                                                                                                  #        THE LAMBERT SUBROUTINE IS UTILIZED FOR THE CONIC COMPUTATIONS AND
001068:                                                                                                  #        THE COASTING INTEGRATION SUBROUTINE IS UTILIZED FOR THE PRECISION
001069:                                                                                                  #        TRAJECTORY COMPUTATIONS.
001070:
001071:                                                                                                  #  CALLING SEQUENCE
001072:
001073:                                                                                                  #        L       CALL
001074:                                                                                                  #        L+1             INITVEL
001075:                                                                                                  #        L+2     (RETURN - ALWAYS)
001076:
001077:                                                                                                  #  INPUT
001078:
001079:                                                                                                  #        (1) RINIT       INITIAL POSITION RADIUS VECTOR
001080:                                                                                                  #        (2) VINIT       INITIAL POSITION VELOCITY VECTOR
001081:                                                                                                  #        (3) RTARG       TARGET POSITION RADIUS VECTOR
001082:                                                                                                  #        (4) DELLT4      DESIRED TIME OF FLIGHT FROM RINIT TO RTARG
001083:                                                                                                  #        (5) INTIME      TIME OF RINIT
001084:                                                                                                  #        (6) 0D          NUMBER OF ITERATIONS OF LAMBERT/INTEGRVS
001085:                                                                                                  #        (7) 2D          ANGLE TO 180 DEGREES WHEN ROTATION STARTS
001086:                                                                                                  #        (8) RTX1        -2 FOR EARTH, -10D FOR LUNAR
001087:                                                                                                  #        (9) RTX2        COORDINATE SYSTEM ORIGIN - 0 FOR EARTH, 2 FOR LUNAR
001088:                                                                                                  #        PUSHLOC SET AT 4D
001089:
001090:                                                                                                  #  OUTPUT
001091:
001092:                                                                                                  #        (1) RTARG       OFFSET TARGET POSITION VECTOR
001093:                                                                                                  #        (2) VIPRIME     MANEUVER VELOCITY REQUIRED
001094:                                                                                                  #        (3) VTPRIME     VELOCITY AT TARGET AFTER MANEUVER
001095:                                                                                                  #        (4) DELVEET3    DELTA VELOCITY REQUIRED FOR MANEUVER
001096:
001097:                                                                                                  #  SUBROUTINES USED
001098:
001099:                                                                                                  #        LAMBERT
001100:                                                                                                  #        INTSTALL
001101:                                                                                                  #        INTEGRVS
001102:
001103: 11,2000                                           SETLOC   INTVEL
001104: 11,2000                                           BANK
001105:
001106: 11,2000                                           COUNT*   $$/INITV
001107: 11,2000           77614        INITVEL            SET                                            #  COGA GUESS NOT AVAILABLE
001108: 11,2001           00475                                    GUESSW
001109: 11,2002           44175        HAVEGUES           VLOAD    STQ
001110: 11,2003           03415                                    RTARG
001111: 11,2004           01011                                    NORMEX
001112: 11,2005           03562                           STORE    RTARG1
001113:
001114:                                                                                                  #  INITIALIZATION
001115:
001116: 11,2006           71331        INITVEL1           SSP      DLOAD                                 #  SET ITCTR TO -1,LOAD MPAC WITH E4(PL 2D)
001117: 11,2007           02334                                    ITCTR
001118: 11,2010           77776                                    0          -1
001119: 11,2011           70546                           COSINE   SR1                                   #  CALCULATE COSINE (E4) (+2)
001120: 11,2012           17606                           STODL    COZY4                                 #  SET COZY4 TO COSINE (E4)         (PL 0D)
001121: 11,2013           67154                           LXA,2    SXA,2
001122: 11,2014           00154                                    MPAC
001123: 11,2015           02675                                    VTARGTAG                              #  SET VTARGTAG TO 0D (SP)
001124: 11,2016           77775                           VLOAD
001125: 11,2017           03546                                    RINIT
001126: 11,2020           26651                           STOVL    R1VEC                                 #  R1VEC EQ RINIT
001127: 11,2021           03562                                    RTARG1
001128: 11,2022           16657                           STODL    R2VEC                                 #  R2VEC EQ RTARG
001129: 11,2023           03423                                    DELLT4
001130: 11,2024           02665                           STORE    TDESIRED                              #  TDESIRED EQ DELLT4
001131: 11,2025           77201                           SETPD    VLOAD
001132: 11,2026           00001                                    0D                                    #  INITIALIZE PL TO 0D
001133: 11,2027           03546                                    RINIT                                 #  MPAC EQ RINIT (+29)
001134: 11,2030           41456                           UNIT     PUSH                                  #  UNIT(RI)  (+1)                   (PL 6D)
001135: 11,2031           53435                           VXV      UNIT
001136: 11,2032           03554                                    VINIT                                 #  MPAC EQ UNIT(RI) X VI   (+8)
001137: 11,2033           26670                           STOVL    UN
001138: 11,2034           03562                                    RTARG1
001139: 11,2035           50256                           UNIT     DOT                                   #  TEMP=URT.URI (+2)                (PL 0D)
001140: 11,2036           43015                           DAD      CLEAR
001141: 11,2037           03606                                    COZY4
001142: 11,2040           03665                                    NORMSW
001143: 11,2041           03606                           STORE    COZY4
001144: 11,2042           43044        INITVEL2           BPL      SET
001145: 11,2043           22065                                    INITVEL3                              #  UN CALCULATED IN LAMBERT
001146: 11,2044           03465                                    NORMSW
001147:
001148:                                                                                                  #  ROTATE RC INTO YC PLANE - SET UNIT NORMAL TO YC
001149:
001150: 11,2045           41575                           VLOAD    PUSH                                  #                                   (PL 6D)
001151: 11,2046           02657                                    R2VEC                                 #  RC TO 6D (+29)
001152: 11,2047           63246                           ABVAL    PDVL                                  #  RC TO MPAC, ABVAL(RC) (+29) TO OD(PL 2D)
001153: 11,2050           46206                           PUSH     VPROJ                                 #                                   (PL 8D)
001154: 11,2051           02670                                    UN
001155: 11,2052           51352                           VSL2     BVSU
001156: 11,2053           74256                           UNIT     VXSC                                  #                                   (PL 0D)
001157: 11,2054           77772                           VSL1
001158: 11,2055           02657                           STORE    R2VEC
001159: 11,2056           67351                           TLOAD    SLOAD
001160: 11,2057           15726                                    ZEROVEC
001161: 11,2060           02334                                    ITCTR
001162: 11,2061           77244                           BPL      VLOAD
001163: 11,2062           22065                                    INITVEL3
001164: 11,2063           02657                                    R2VEC
001165: 11,2064           03562                           STORE    RTARG1
001166: 11,2065           63345        INITVEL3           DLOAD    PDVL                                  #                                   (PL 2D)
001167: 11,2066           22722                                    MUEARTH                               #  POSITIVE VALUE
001168: 11,2067           02657                                    R2VEC
001169: 11,2070           63256                           UNIT     PDVL                                  #  2D = UNIT(R2VEC)                 (PL 8D)
001170: 11,2071           02651                                    R1VEC
001171: 11,2072           41456                           UNIT     PUSH                                  #  8D = UNIT(R1VEC)                 (PL14D)
001172: 11,2073           57435                           VXV      VCOMP                                 #  -N = UNIT(R2VEC) X UNIT(R1VEC)
001173: 11,2074           00003                                    2D
001174: 11,2075           77606                           PUSH                                           #                                   (PL20D)
001175: 11,2076           51145                           DLOAD    BPL
001176: 11,2077           00023                                    18D
001177: 11,2100           22103                                    +3
001178: 11,2101           77775                           VLOAD                                          #                                   (PL14D)
001179: 11,2102           41476                           VCOMP    PUSH                                  #                                   (PL20D)
001180: 11,2103           77775                           VLOAD                                          #                                   (PL14D)
001181: 11,2104           50235                           VXV      DOT                                   #                                   (PL 2D)
001182: 11,2105           71244                           BPL      DLOAD                                 #                                   (PL 0D)
001183: 11,2106           22110                                    INITVEL4
001184: 11,2107           41476                           DCOMP    PUSH                                  #                                   (PL 2D)
001185: 11,2110           67154        INITVEL4           LXA,2    SXA,2
001186: 11,2111           00000                                    0D
001187: 11,2112           02666                                    GEOMSGN
001188:
001189:                                                                                                  #  SET INPUTS UP FOR LAMBERT
001190:
001191: 11,2113           77624                           CALL
001192:
001193:                                                                                                  #   OPERATE THE LAMBERT CONIC ROUTINE (COASTFLT SUBROUTINE)
001194:
001195: 11,2114           25257                                    LAMBERT
001196:
001197: 11,2115           77214                           CLEAR    VLOAD
001198: 11,2116           00675                                    GUESSW
001199: 11,2117           02740                                    VVEC
001200:
001201:                                                                                                  #  STORE CALCULATED INITIAL VELOCITY REQUIRED IN VIPRIME
001202:
001203: 11,2120           17570                           STODL    VIPRIME                               #  INITIAL VELOCITY REQUIRED (+7)
001204:
001205:                                                                                                  #  IF NUMIT IS ZERO, CONTINUE AT INITVELB, OTHERWISE
001206:                                                                                                  #  SET UP INPUTS FOR ENCKE INTEGRATION (INTEGRVS).
001207:
001208: 11,2121           02676                                    VTARGTAG
001209: 11,2122           45030                           BHIZ     CALL
001210: 11,2123           34003                                    INITVEL7
001211: 11,2124           11720                                    INTSTALL
001212: 11,2125           77775        INITVEL5           VLOAD
001213: 11,2126           03546                                    RINIT
001214: 11,2127           02651                           STORE    R1VEC
001215: 11,2130           25535                           STOVL    RCV
001216: 11,2131           03570                                    VIPRIME
001217: 11,2132           15543                           STODL    VCV
001218: 11,2133           02332                                    INTIME
001219: 11,2134           01517                           STORE    TET
001220: 11,2135           43015                           DAD      CLEAR
001221: 11,2136           03423                                    DELLT4
001222: 11,2137           01673                                    INTYPFLG
001223: 11,2140           34041                           STCALL   TDEC1
001224: 11,2141           11444                                    INTEGRVS
001225: 11,2142           77775                           VLOAD
001226: 11,2143           00025                                    VATT1
001227: 11,2144           02677                           STORE    VTARGET
001228:
001229:                                                                                                  #  IF ITERATION COUNTER (ITCTR) EQ NO. ITERATIONS (NUMIT), CONTINUE AT
001230:                                                                                                  #  INITVELC, OTHERWISE REITERATE LAMBERT AND ENCKE
001231:
001232: 11,2145           63154                           LXA,2    INCR,2
001233: 11,2146           02333                                    ITCTR
001234: 11,2147           00001                                    1D                                    #  INCREMENT ITCTR
001235: 11,2150           55134                           SXA,2    XSU,2
001236: 11,2151           02333                                    ITCTR
001237: 11,2152           02675                                    VTARGTAG
001238: 11,2153           46135                           SLOAD    BHIZ                                  #  IF SP(MPAC) EQ 0, CONTINUE AT INITVELC
001239: 11,2154           00050                                    X2
001240: 11,2155           34000                                    INITVEL6
001241:
001242:                                                                                                  #  OFFSET CONIC TARGET VECTOR
001243:
001244: 11,2156           52375                           VLOAD    VSU
001245: 11,2157           03562                                    RTARG1
001246: 11,2160           00017                                    RATT1
001247: 11,2161           77655                           VAD
001248: 11,2162           02657                                    R2VEC
001249: 11,2163           16657                           STODL    R2VEC
001250: 11,2164           03606                                    COZY4
001251: 11,2165           77650                           GOTO
001252: 11,2166           22042                                    INITVEL2                              #  CONTINUE ITERATING AT INITVEL2
001253: 16,2000                                           SETLOC   INTVEL1
001254: 16,2000                                           BANK
001255:
001256: 16,2000                                           COUNT*   $$/INITV
001257:
001258:                                                                                                  #  COMPUTE THE DELTA VELOCITY
001259:
001260: 16,2000           77775        INITVEL6           VLOAD
001261: 16,2001           02657                                    R2VEC
001262: 16,2002           03562                           STORE    RTARG1
001263: 16,2003           52375        INITVEL7           VLOAD    VSU
001264: 16,2004           03570                                    VIPRIME
001265: 16,2005           03554                                    VINIT
001266: 16,2006           27624                           STOVL    DELVEET3                              #  DELVEET3 = VIPRIME-VINIT  (+7)
001267: 16,2007           02677                                    VTARGET
001268: 16,2010           03576                           STORE    VTPRIME
001269: 16,2011           77201        INITVELX           SETPD    VLOAD
001270: 16,2012           00001                                    0D
001271: 16,2013           03562                                    RTARG1
001272: 16,2014           03415                           STORE    RTARG
001273: 16,2015           77614                           CLRGO
001274: 16,2016           01227                                    XDELVFLG
001275: 16,2017           01011                                    NORMEX
001276:
001277:                                                                                                  #  ..... END OF INITVEL ROUTINE .....
001278:
001279:
001280:                                                                                                  #  MIDDLE GIMBAL ANGLE COMPUTATION.
001281:
001282: 27,2000                                           SETLOC   MGIM
001283: 27,2000                                           BANK
001284:
001285: 27,2732                                           COUNT*   $$/MIDG
001286:
001287: 27,2732           20000 00000  HALFREV            2DEC     1          B-1
001288:
001289: 27,2734           53575        GET+MGA            VLOAD    UNIT                                  #  (PL 0D) V (+7) TO MPAC, UNITIZE  UV (+1)
001290: 27,2735           72441                           DOT      SL1                                   #  DOT UV WITH Y(STABLE MEMBER) AND RESCALE
001291: 27,2736           01726                                    REFSMMAT   +6                         #   FROM +2 TO +1 FOR ASIN ROUTINE
001292: 27,2737           51136                           ARCSIN   BPL
001293: 27,2740           56744                                    SETMGA
001294: 27,2741           43215                           DAD      DAD                                   #  CONVERT -MGA TO +MGA BY
001295: 27,2742           16733                                    HALFREV                               #  ADDING ONE REVOLUTION
001296: 27,2743           16733                                    HALFREV
001297: 27,2744           03604        SETMGA             STORE    +MGA
001298: 27,2745           77616                           RVQ
001299:
001300: 04,2000                                           SETLOC   MIDDGIM
001301: 04,2000                                           BANK
001302:
001303: 04,3151                                           COUNT*   $$/MIDG
001304:
001305:                                                                                                  #  TRANSFORM INPUT VECTOR INTO LOCAL VERTICAL COORDINATES.
001306:
001307: 04,3151           53575        GET.LVC            VLOAD    UNIT                                  #  (PL 6D)   R (+29) IN MPAC, UNITIZE  UR
001308: 04,3152           03546                                    RINIT
001309: 04,3153           77676                           VCOMP                                          #  U(-R)
001310: 04,3154           00023                           STORE    18D                                   #  U(-R) TO 18D
001311: 04,3155           53435                           VXV      UNIT                                  #  U(-R)*V EQ V*U(R), U(V*R)
001312: 04,3156           03554                                    VINIT
001313: 04,3157           00015                           STORE    12D                                   #  U(V*R) TO 12D
001314: 04,3160           53435                           VXV      UNIT                                  #  U(V*R)*U(-R), U((V*R)*(-R))
001315: 04,3161           00023                                    18D
001316: 04,3162           00007                           STORE    6D                                    #  TRANSFORMATION MATRIX IS IN 6D (+1)
001317: 04,3163           77214                           BONCLR   VLOAD
001318: 04,3164           01212                                    REVFLAG
001319: 04,3165           00052                                    QPRET
001320: 04,3166           00001                                    0D                                    #  DELTA V (+7) IN 0D
001321: 04,3167           76521                           MXV      VSL1                                  #  CONVERT FROM INER COOR TO LV COOR (+8)
001322: 04,3170           00007                                    6D                                    #   AND SCALE +7 IN MPAC
001323: 04,3171           03405                           STORE    DELVLVC                               #  STORE IN DELVLVC (+7)
001324: 04,3172           77616                           RVQ
001325:
001326:                                                                                                  #  ..... PERIAPO .....
001327:                                                                                                  #  MOD NO -1             LOG SECTION - P34-P35, P74-P75
001328:                                                                                                  #  MOD BY WHITE.P        DATE  18JAN68
001329:
001330:                                                                                                  #  FUNCTIONAL DESCRIPTION
001331:
001332:                                                                                                  #        THIS SUBROUTINE COMPUTES THE TWO BODY APOCENTER AND PERICENTER
001333:                                                                                                  #        ALTITUDES GIVEN THE POSITION AND VELOCITY VECTORS FOR A POINT ON
001334:                                                                                                  #        THE TRAJECTORY AND THE PRIMARY BODY.
001335:
001336:                                                                                                  #        SETRAD IS CALLED TO DETERMINE THE RADIUS OF THE PRIMARY BODY.
001337:
001338:                                                                                                  #        APSIDES IS CALLED TO SOLVE FOR THE TWO BODY RADII OF APOCENTER AND
001339:                                                                                                  #        PERICENTER AND THE ECCENTRICITY OF THE TRAJECTORY.
001340:
001341:                                                                                                  #  CALLING SEQUENCE
001342:
001343:                                                                                                  #        L       CALL
001344:                                                                                                  #        L+1             PERIAPO
001345:                                                                                                  #        L+2     (RETURN - ALWAYS)
001346:
001347:                                                                                                  #  INPUT
001348:
001349:                                                                                                  #        (1) RVEC        POSITION VECTOR IN METERS
001350:                                                                                                  #                        SCALE FACTOR - EARTH +29, MOON +27
001351:                                                                                                  #        (2) VVEC        VELOCITY VECTOR IN METERS/CENTISECOND
001352:                                                                                                  #                        SCALE FACTOR - EARTH +7, MOON +5
001353:                                                                                                  #        (3) X1          PRIMARY BODY INDICATOR
001354:                                                                                                  #                        EARTH -2, MOON -10
001355:
001356:                                                                                                  #  OUTPUT
001357:
001358:                                                                                                  #        (1) 2D          APOCENTER RADIUS IN METERS
001359:                                                                                                  #                        SCALE FACTOR - EARTH +29, MOON +27
001360:                                                                                                  #        (2) 4D          APOCENTER ALTITUDE IN METERS
001361:                                                                                                  #                        SCALE FACTOR - EARTH +29, MOON P27
001362:                                                                                                  #        (3) 6D          PERICENTER RADIUS IN METERS
001363:                                                                                                  #                        SCALE FACTOR - EARTH +29, MOON +27
001364:                                                                                                  #        (4) 8D          PERICENTER ALTITUDE IN METERS
001365:                                                                                                  #                        SCALE FACTOR - EARTH +29, MOON +27
001366:                                                                                                  #        (5) ECC         ECCENTRICITY OF CONIC TRAJECTORY
001367:                                                                                                  #                        SCALE FACTOR - +3
001368:                                                                                                  #        (6) XXXALT      RADIUS OF THE PRIMARY BODY IN METERS
001369:                                                                                                  #                        SCALE FACTOR - EARTH +29, MOON +27
001370:                                                                                                  #        (7) PUSHLOC     EQUALS 10D
001371:
001372:                                                                                                  #  SUBROUTINES USED
001373:
001374:                                                                                                  #        SETRAD
001375:                                                                                                  #        APSIDES
001376:
001377: 22,2000                                           SETLOC   APOPERI
001378: 22,2000                                           BANK
001379:
001380: 22,3373                                           COUNT*   $$/PERAP
001381:
001382: 22,3373           00302 17755  RPAD               2DEC     6373338    B-29                       #  STANDARD RADIUS  OF PAD 37-B.
001383:                                                                                                  #  = 20 909 901.57 FT
001384:
001385: 22,3375           26740        PERIAPO1           STOVL    VVEC
001386: 22,3376           77626                           STADR
001387: 22,3377           75126                           STORE    RVEC
001388: 22,3400           71220        PERIAPO            STQ      DLOAD
001389: 22,3401           01011                                    NORMEX
001390: 22,3402           05374                                    RPAD
001391: 22,3403           37456                           STCALL   XXXALT
001392: 22,3404           25721                                    APSIDES
001393: 22,3405           41401                           SETPD    PUSH                                  #  2D = APOCENTER RADIUS         B29 OR B27
001394: 22,3406           00003                                    2D
001395: 22,3407           65225                           DSU      PDDL                                  #  4D = APOGEE ALTITUDE          B29 OR B27
001396: 22,3410           03456                                    XXXALT
001397: 22,3411           00001                                    0D
001398: 22,3412           45206                           PUSH     DSU                                   #  6D = PERICENTER RADIUS        B29 OR B27
001399: 22,3413           03456                                    XXXALT
001400: 22,3414           52006                           PUSH     GOTO                                  #  8D = PERIGEE ALTITUDE         B29 OR B27
001401: 22,3415           01011                                    NORMEX
001402:                                                                                                  #  PRECSET
001403: 22,3416           77620        PRECSET            STQ
001404: 22,3417           01011                                    NORMEX
001405: 22,3420           36627                           STCALL   TDEC2
001406: 22,3421           11414                                    LEMPREC
001407: 22,3422           77624                           CALL
001408: 22,3423           45466                                    LEMSTORE
001409: 22,3424           77745                           DLOAD
001410: 22,3425           02627                                    TDEC2
001411: 22,3426           34041                           STCALL   TDEC1
001412: 22,3427           11400                                    CSMPREC
001413: 22,3430           77624                           CALL
001414: 22,3431           45460                                    CSMSTORE
001415: 22,3432           53575                           VLOAD    UNIT
001416: 22,3433           03532                                    RPASS3
001417: 22,3434           53435                           VXV      UNIT
001418: 22,3435           03540                                    VPASS3
001419: 22,3436           26611                           STOVL    UP1                                   #  UNIT(RPASS3) X VPASS3
001420: 22,3437           03524                                    VACT3
001421: 22,3440           72441                           DOT      SL1
001422: 22,3441           02611                                    UP1
001423: 22,3442           26603                           STOVL    CMYDOT                                #  -YDOT (CSM)
001424: 22,3443           03516                                    RACT3
001425: 22,3444           72441                           DOT      SL1
001426: 22,3445           02611                                    UP1
001427: 22,3446           26601                           STOVL    AUTOY                                 #  -Y(CSM)
001428: 22,3447           03516                                    RACT3
001429: 22,3450           53435                           VXV      UNIT
001430: 22,3451           03524                                    VACT3
001431: 22,3452           26543                           STOVL    UNRM
001432: 22,3453           03540                                    VPASS3
001433: 22,3454           72441                           DOT      SL1
001434: 22,3455           02543                                    UNRM                                  #  RACT3 X VACT3
001435: 22,3456           36605                           STCALL   LMYDOT                                #  -YDOT(LM)
001436: 22,3457           01011                                    NORMEX
001437: 22,3460           77775        CSMSTORE           VLOAD
001438: 22,3461           00001                                    RATT
001439: 22,3462           27516        ACTIVE             STOVL    RACT3
001440: 22,3463           00007                                    VATT
001441: 22,3464           03524                           STORE    VACT3
001442: 22,3465           77616                           RVQ
001443: 22,3466           77775        LEMSTORE           VLOAD
001444: 22,3467           00001                                    RATT
001445: 22,3470           27532        PASSIVE            STOVL    RPASS3
001446: 22,3471           00007                                    VATT
001447: 22,3472           03540                           STORE    VPASS3
001448: 22,3473           77616                           RVQ
001449:
001450:
001451:
001452: 22,3474  30,2000                                  SBANK=   LOWSUPER

End of include-file P35-P37.agc.  Parent file is MAIN.agc


