
Source Code


000002:                                                                                                  ## Copyright:   Public domain.
000003:                                                                                                  ## Filename:    P40-P47.agc
000004:                                                                                                  ## Purpose:     A section of Skylark revision 048.
000005:                                                                                                  ##              It is part of the source code for the Apollo Guidance Computer (AGC)
000006:                                                                                                  ##              for Skylab-2, Skylab-3, Skylab-4, and ASTP. No original listings of
000007:                                                                                                  ##              this software are available; instead, this file was created via
000008:                                                                                                  ##              disassembly of dumps of the core rope modules actually flown on
000009:                                                                                                  ##              Skylab-2. Access to these modules was provided by the New Mexico
000010:                                                                                                  ##              Museum of Space History.
000011:                                                                                                  ## Assembler:   yaYUL
000012:                                                                                                  ## Contact:     Ron Burkey <info@sandroid.org>.
000013:                                                                                                  ## Website:     www.ibiblio.org/apollo/index.html
000014:                                                                                                  ## Mod history: 2023-09-04 MAS  Created from Artemis 072.
000015:                                                                                                  ##              2024-03-05 MAS  Updated for Skylark 48.
000016:
000017:
000018:                                                                                                  #  NAME          P40 - TVC (SPS BURN)
000019:                                                                                                  #                MOD BY ALBERT, BEALS, AND DEMERY TO REORGANIZE
000020:                                                                                                  #                AND REDUCE CODING 15AUG69
000021:
000022:                                                                                                  #  FUNCTION      TO CONTROL THE SEQUENCE OF THE CMC DURING THE COUNTDOWN
000023:                                                                                                  #                AND THRUSTING MANEUVER OF AN SPS BURN
000024:
000025:                                                                                                  #                CLOKTASK        COMPUTE TIME-TO-GO TO IGNITION (FOR N35/40),
000026:                                                                                                  #                                RECALL CLOKTASK, AND AFTER S40.6 COMPLETION
000027:                                                                                                  #                                CALL CLOCKJOB TO DISPLAY V06N40
000028:
000029:                                                                                                  #                R02BOTH         CHECK STATUS OF IMU
000030:
000031:                                                                                                  #                S40.1           COMPUTE: INTIAL THRUST DIRECTION AND
000032:                                                                                                  #                                         INTIAL VALUE OF VELOCITY-TO-BE-
000033:                                                                                                  #                                         GAINED VECTOR (VGTIG)
000034:
000035:                                                                                                  #                S40.2,3         COMPUTE: GIMBAL ANGLES IF THRUSTING WILL
000036:                                                                                                  #                                         OCCUR WITH PRESENT IMU ORIENTATION,
000037:                                                                                                  #                                         XAXIS OF ENGINE BELL,
000038:                                                                                                  #                                         PREFERRED IMU ORIENTATION, AND
000039:                                                                                                  #                                         DESIRED THRUST DIRECTION IN SM COORDS
000040:
000041:                                                                                                  #                R60CSM          PERFORM ATTITUDE MANEUVER
000042:
000043:                                                                                                  #                S40.6           HANDLE GIMBAL TEST AND TRIM OR TRIM ONLY
000044:
000045:                                                                                                  #                MIDTOAV1        EXTRAPOLATE CSM STATE VECTOR TO TIG-29.96 SECS
000046:
000047:                                                                                                  #                TIGBLNK         BLANK DSKY AT TIG-35 SECS AND
000048:                                                                                                  #                                WAITLIST TIGAVEG IN 5 SECS
000049:
000050:                                                                                                  #                TIGAVEG         UNBLANK DSKY,
000051:                                                                                                  #                                WAITLIST TIG-5 IN 24.96 SECS, AND
000052:                                                                                                  #                                START SERVICER
000053:
000054:                                                                                                  #                TIG-5           DISPLAY FLASHING V99N40:
000055:                                                                                                  #                                ENGINE IGNITION ENABLE,
000056:                                                                                                  #                                WAITLIST TIG-0 IN 5 SECS, AND
000057:                                                                                                  #                                FINDVAC S40.13 TO DETERMINE IF THIS IS
000058:                                                                                                  #                                AN IMPULSIVE OR STEERING BURN
000059:
000060:                                                                                                  #                TIG-0           CHECK IF ASTRONAUT HAS O.K.ED IGNITION (PRIOR
000061:                                                                                                  #                                PROCEED TO V99N40) - IF NOT, IGNITION WILL BE
000062:                                                                                                  #                                ENTERED BY CLOCKJOB IN RESPONSE TO V99N40
000063:
000064:                                                                                                  #                CLOCKJOB        (CALLED EVERY SEC)
000065:                                                                                                  #                                DISPLAY V06N40 EXCEPT WHEN SIGNALED BY TIG-5
000066:                                                                                                  #                                TO FLASH V99N40 AND
000067:                                                                                                  #                                CALL IGNITION WHEN PROCEED RESPONSE TO V99N40
000068:                                                                                                  #                                HAS OCCURRED AND TIG HAS PASSED
000069:                                                                                                  #                IGNITION        TURN ON ENGINE,
000070:                                                                                                  #                                CHECK IF IMPULSIVE BURN, AND IF SO
000071:                                                                                                  #                                SET UP ENGINOFF COMMAND
000072:
000073:                                                                                                  #                S40.8           UPDATE VELOCITY TO-BE-GAINED VECTOR,
000074:                                                                                                  #                                GENERATE ANGULAR RATE STEERING COMMANDS
000075:                                                                                                  #                                FOR AUTO PILOT,
000076:                                                                                                  #                                UPDATE CSMMASS,
000077:                                                                                                  #                                ESTABLISH ENGINE CUT-OFF SIGNAL AT
000078:                                                                                                  #                                APPROPRIATE TIME, AND
000079:                                                                                                  #                                INITIATE R40, IF THRUST FAILS
000080:
000081:                                                                                                  #                S40.9           (AIMPOINT MANEUVERS ONLY)
000082:                                                                                                  #                                GENERATE REQUIRED VEL-TO-BE-GAINED VECTOR AND
000083:                                                                                                  #                                UPDATE B-VECTOR WHICH IS USED IN FINAL
000084:                                                                                                  #                                CALCULATION OF EXTRAPOLATING THE VG VECTOR
000085:
000086:                                                                                                  #                ENGINOFF        WIPE OUT TVC,
000087:                                                                                                  #                                TURN OFF CLOKTASK,
000088:                                                                                                  #                                SHUT DOWN ENGINE,
000089:                                                                                                  #                                ADJUST VEHICLE MASS PROPERTIES,
000090:                                                                                                  #                                TURN ON RCS DAP, AND
000091:                                                                                                  #                                UPDATE ENGINE TRIMS
000092:
000093:                                                                                                  #                POSTBURN        DISPLAY FLASHING V16N40,
000094:                                                                                                  #                                CLEAN UP AFTER ENGINE CUT-OFF, AND
000095:                                                                                                  #                                MAINTAIN VG COMP FOR POSSIBLE RCS TRIM
000096:
000097:                                                                                                  #                *************************************************
000098:                                                                                                  #                PROVIDE RESTART PROTECTION AT ALL CRITICAL POINTS
000099:                                                                                                  #                *************************************************
000100:
000101:                                                                                                  #  INPUT         XDELVFLG = 1 EXTERNAL DELTA V
000102:
000103:                                                                                                  #                    DELVSIN     CHANGE OF VELOCITY (VECTOR)
000104:                                                                                                  #                    RTIG        CSM POSITION AT TIG
000105:                                                                                                  #                    VTIG        CSM VELOCITY AT TIG
000106:                                                                                                  #                    TIG         IGNITION TIME
000107:                                                                                                  #                    CSTEER =    0
000108:
000109:                                                                                                  #                XDELVFLG = 0 LAMBERT (AIMPOINT)
000110:
000111:                                                                                                  #                    RTARG       AIMPOINT POSITION VECTOR
000112:                                                                                                  #                    TPASS4      TIME OF ARRIVAL AT AIMPOINT
000113:                                                                                                  #                    TIG         IGNITION TIME
000114:                                                                                                  #                    CSTEER =    1
000115:
000116:                                                                                                  #  ALARMS        1407            VG INCREASING
000117:                                                                                                  #                1703            INSUFFICIENT TIME FOR INTEGRATION
000118:                                                                                                  #                                TIG WAS SLIPPED
000119:
000120: 22,3474  E6,1514                                  EBANK=   DAPDATR1
000121: 24,2000                                           SETLOC   P40S
000122: 24,2000                                           BANK
000123: 24,2000                                           COUNT*   $$/P40
000124: 24,2000           06006        P40CSM             TC       INTPRET
000125: 24,2001           67214                           CLEAR    SLOAD
000126: 24,2002           00664                                    ENG2FLAG
000127: 24,2003           15174                                    DP1/4TH
000128: 24,2004           77614                           SET
000129: 24,2005           01074                                    SBFLAG
000130: 24,2006           71214                           BOFF     DLOAD
000131: 24,2007           01347                                    XDELVFLG                              #  EXTERNAL DELTA V ?
000132: 24,2010           50012                                    P40S/C                                #  NO CSTEER = ECSTEER
000133: 24,2011           15204                                    HI6ZEROS                              #  YES CSTEER = ZERO
000134: 24,2012           17663        P40S/C             STODL    CSTEER
000135: 24,2013           11377                                    FENG                                  #  SET UP THRUST FOR S40.1
000136: 24,2014           17701        P40S/F             STODL    F                                     #  P41 ENTERS HERE
000137: 24,2015           03413                                    TIG                                   #  ORIGINAL TIG MAY BE SLIPPED BY P40S/SV
000138: 24,2016           03450                           STORE    NOMTIG                                #  SET ORIGINAL TIME OF IGNITION FOR S40.9
000139: 24,2017           44234                           RTB      BDSU
000140: 24,2020           45563                                    LOADTIME
000141: 24,2021           03413                                    TIG
000142: 24,2022           77414                           SET      EXIT
000143: 24,2023           03464                                    TIMRFLAG
000144:
000145: 24,2024           35003                           CAF      ZERO
000146: 24,2025           54772                           TS       NVWORD1
000147: 24,2026           35030                           CAF      1SEC
000148: 24,2027           52155                           DXCH     MPAC
000149: 24,2030           00006                           EXTEND
000150: 24,2031           10154                           DV       MPAC
000151: 24,2032           30001                           CA       L
000152: 24,2033           61455                           AD       CLOKDELT
000153: 24,2034           05246                           TC       WAITLIST
000154: 24,2035  E7,1412                                  EBANK=   TIG
000155: 24,2035           03071 50067                     2CADR    CLOKTASK
000156:
000157: 24,2037           05375                           TC       2PHSCHNG
000158: 24,2040           40036                           OCT      40036
000159: 24,2041           04024                           OCT      04024
000160: 24,2042  01,2333               6P3SPT1            =        6.3SPOT
000161:
000162: 24,2042           04647                 +2        TC       BANKCALL
000163: 24,2043           03737                           CADR     R02BOTH                               #  IMU STATUS CHECK
000164:
000165:                                                                                                  #  NAME  S40.1
000166:
000167:                                                                                                  #  FUNCTIONAL DESCRIPTION
000168:                                                                                                  #        COMPUTE INITIAL THRUST DIRECTION (UT) AND INITIAL VALUE OF VG
000169:                                                                                                  #        VECTOR (VGTIG).
000170:
000171:                                                                                                  #  SUBROUTINES CALLED
000172:                                                                                                  #        CSMPREC
000173:                                                                                                  #        INITVEL
000174:                                                                                                  #        CALCGRAV
000175:                                                                                                  #        MIDGIM
000176:
000177:                                                                                                  #  ERASABLE INITIALIZATION REQUIRED
000178:                                                                                                  #        WEIGHT/G        ANTICIPATED MAG. OF VEHICLE MASS        SP      B16 KGM
000179:                                                                                                  #        XDELVFLG        1=DELTA-V MANEUVER, 0=AIMPT STEER
000180:                                                                                                  #    IF DELTA-V MANEUVER
000181:                                                                                                  #        DELVSIN         SPECIFIED DELTA-V REQUIRED IN
000182:                                                                                                  #                        INERTIAL COORDS. OF ACTIVE VEHICLE
000183:                                                                                                  #                        AT TIME OF IGNITION                     VECTOR  B7 M/CS
000184:                                                                                                  #        RTIG            POSITION AT TIME OF IGNITION            VECTOR  B29 M
000185:                                                                                                  #        VTIG            VELOCITY AT TIME OF IGNITION            VECTOR  B7 M/CS
000186:                                                                                                  #        CSTEER = 0                                              DP
000187:                                                                                                  #    IF AIMPOINT STEERING
000188:                                                                                                  #        TIG             TIME OF IGNITION                        DP      B28 CS
000189:                                                                                                  #        RTARG           POSITION TARGET TIME                    VECTOR  B29 M
000190:                                                                                                  #        TPASS4          TIME OF ARRIVAL AT AIMPOINT
000191:                                                                                                  #        CSTEER = ECSTEER (GR 0)                                 DP      B1
000192:
000193:                                                                                                  #  OUTPUT
000194:                                                                                                  #        UT              1/2 UNIT VECTOR ALIGNED WITH THRUST DIRECTION IN REF COOR
000195:                                                                                                  #        VGTIG           INITIAL VALUE OF VELOCITY
000196:                                                                                                  #                        TO BE GAINED (INERT. COORD.)            VECTOR  B7 M/CS
000197:                                                                                                  #        DELVLVC         VGTIG IN LOC. VERT. COORDS.
000198:                                                                                                  #        F               NOMINAL THRUST FOR ENGINE               DP      B7 M-NEWT
000199:                                                                                                  #        BDT             V REQUIRED AT TIG -V REQUIRED AT (TIG-2SEC)
000200:                                                                                                  #        -GDT            FOR S40.13                              VECT    B7 M/CS
000201:                                                                                                  #        RTIG            CALC IN S40.1B (AIMPT) FOR S40.2,3      VECTOR  B29M
000202:                                                                                                  #                        POSITION AT TIME OF IGNITION
000203:
000204: 24,2044                                           COUNT*   $$/S40.1
000205: 24,2044           06006        S40.1              TC       INTPRET
000206: 24,2045           77214                           SET      VLOAD
000207: 24,2046           01070                                    FIRSTFLG
000208: 24,2047           15204                                    HI6ZEROS
000209: 24,2050           03665                           STORE    BDT
000210: 24,2051           77614                           BOFF
000211: 24,2052           01347                                    XDELVFLG
000212: 24,2053           34020                                    S40.1B                                #  LAMBERT
000213: 24,2054           51575                           VLOAD    ABVAL                                 #  EXTERNAL DELTA-V
000214: 24,2055           03624                                    DELVSIN
000215: 24,2056           27632                           STOVL    DELVSAB
000216: 24,2057           03616                                    VTIG
000217: 24,2060           03554                           STORE    VINIT
000218: 24,2061           53435                           VXV      UNIT
000219: 24,2062           03610                                    RTIG
000220: 24,2063           27673                           STOVL    UT                                    #  UP IN UT
000221: 24,2064           03610                                    RTIG
000222: 24,2065           03546                           STORE    RINIT
000223: 24,2066           65236                           VSQ      PDDL
000224: 24,2067           00045                                    36D
000225: 24,2070           56275                           DMPR     DDV
000226: 24,2071           16765                                    THETACON
000227: 24,2072           41205                           DMP      DMP
000228: 24,2073           03632                                    DELVSAB
000229: 24,2074           03125                                    WEIGHT/G
000230: 24,2075           77671                           DDV
000231: 24,2076           03701                                    F
000232: 24,2077           24017                           STOVL    14D
000233: 24,2100           03624                                    DELVSIN
000234: 24,2101           74241                           DOT      VXSC
000235: 24,2102           03673                                    UT
000236: 24,2103           03673                                    UT
000237: 24,2104           41552                           VSL2     PUSH                                  #  (DELTAV.UP)UP SCALED AT 2(+7) P.D.L. 0
000238: 24,2105           65245                           BVSU     PDDL                                  #  DELTA VP SCALED AT 2(+7) P.D.L. 6
000239: 24,2106           03624                                    DELVSIN
000240: 24,2107           00017                                    14D
000241: 24,2110           63356                           SIN      PDVL
000242: 24,2111           00007                                    6D
000243: 24,2112           53435                           VXV      UNIT
000244: 24,2113           03673                                    UT
000245: 24,2114           45561                           VXSC     STADR
000246: 24,2115           50005                           STOVL    VGTIG                                 #  UNIT(VP X UP)SIN(THETAT) IN VGTIG
000247: 24,2116           65256                           UNIT     PDDL                                  #  UNIT(DELTA VP) IN P.D.L. 6
000248: 24,2117           00017                                    14D
000249: 24,2120           74346                           COS      VXSC
000250: 24,2121           74255                           VAD      VXSC
000251: 24,2122           03772                                    VGTIG
000252: 24,2123           00045                                    36D
000253: 24,2124           53352                           VSL2     VAD
000254: 24,2125           77626                           STADR
000255: 24,2126           74005                           STORE    VGTIG                                 #  VG IGNITION SCALED AT 2(+7) M/CS
000256: 24,2127           77656                           UNIT
000257: 24,2130           27673                           STOVL    UT                                    #  THRUST DIRECTION SCALED AT 2(+1)
000258: 24,2131           03772                                    VGTIG
000259: 24,2132           45006                           PUSH     CALL
000260: 24,2133           11151                                    GET.LVC                               #  VGTIG IN LV COOR AT 2(+7)M/CS IN DELVLVC
000261:
000262:                                                                                                  #  NAME  S40.2,3
000263:
000264:                                                                                                  #  FUNCTIONAL DESCRIPTION
000265:                                                                                                  #        COMPUTE GIMBAL ANGLES IF THRUSTING OCCURRED WITH PRESENT IMU
000266:                                                                                                  #        ORIENTATION, WINGS LEVEL SPACECRAFT, HEADS UP
000267:                                                                                                  #        COMPUTE X AXIS OF ENGINE BELL
000268:                                                                                                  #        COMPUTE PREFERRED IMU ORIENTATION (XSCREF)
000269:                                                                                                  #        FOR THIS CALCULATION, ASSUME X AXIS OF SC ALONG UT INITIALLY,
000270:                                                                                                  #        YSC=UNIT(XXR), ZSC=UNIT(XX(XXR)) AND ROTATE ENGINE BELL ALONG UT
000271:                                                                                                  #        NEW SC AXES WILL BE APPROX. WINGS LEVEL AND NEW SC AXES IN REF.
000272:                                                                                                  #        COORDS. WILL BE PREFERRED IMU ORIENTATION.
000273:                                                                                                  #        COMPUTE DESIRED THRUST DIRECTION IN SM COORDS.
000274:
000275:                                                                                                  #  SUBROUTINES CALLED
000276:                                                                                                  #        CALCGA
000277:
000278:                                                                                                  #  ERASABLE INITIALIZATION REQUIRED
000279:                                                                                                  #        PACTOFF         TOTAL PITCH TRIM ANGLE                  SP AT 1.0795111 REV.
000280:                                                                                                  #        YACTOFF         TOTAL YAW   TRIM ANGLE                  SP AT 1.0795111 REV.
000281:                                                                                                  #        UT              DESIRED THRUST DIRECTION                VECT.   B2 M/(CS.CS)
000282:                                                                                                  #        RTIG            POSITION AT TIME OF IGNITION            VECT.   B29 M
000283:                                                                                                  #        ENG2FLAG        ON=RCS OFF=SPS
000284:
000285:                                                                                                  #  OUTPUT
000286:                                                                                                  #        SCAXIS          UNIT VECT. ALIGNED WITH ENG BELL IN SC COOR     B1
000287:                                                                                                  #        XSCREF          UNIT VECTORS ALIGNED WITH PREFERRED IMU         B1
000288:                                                                                                  #        YSCREF
000289:                                                                                                  #        ZSCREF
000290:                                                                                                  #        GIMBAL ANGLES IN THETAD
000291:                                                                                                  #        POINTVSM        UNIT VECT ALONG DESIRED THRUST DIRECTION IN SM  B1
000292:
000293: 24,2134                                           COUNT*   $$/S40.2
000294: 24,2134           64375        S40.2,3            VLOAD    MXV
000295: 24,2135           03673                                    UT
000296: 24,2136           01720                                    REFSMMAT
000297: 24,2137           40372                           VSL1     SETPD
000298: 24,2140           00001                                    00D
000299: 24,2141           17362                           STODL    POINTVSM
000300: 24,2142           15204                                    HI6ZEROS
000301: 24,2143           41414                           BON      PUSH
000302: 24,2144           00704                                    ENG2FLAG
000303: 24,2145           34112                                    S40.2,3B
000304: 24,2146           41335                           SLOAD    DMP
000305: 24,2147           03012                                    YACTOFF
000306: 24,2150           11407                                    TRIMSCAL
000307: 24,2151           43352                           SL1      DAD
000308: 24,2152           11411                                    YBIAS
000309: 24,2153           71406                           PUSH     COS
000310: 24,2154           73525                           PDDL     SIN
000311: 24,2155           67206                           PUSH     SLOAD
000312: 24,2156           03011                                    PACTOFF
000313: 24,2157           72405                           DMP      SL1
000314: 24,2160           11407                                    TRIMSCAL
000315: 24,2161           41415                           DAD      PUSH
000316: 24,2162           11413                                    PBIAS
000317: 24,2163           65346                           COS      PDDL                                  #  COS(P +P0) PDL 6
000318: 24,2164           41556                           SIN      PUSH                                  #  SIN(P +P0) PDL 8D
000319: 24,2165           14323                           STODL    ZSCREF                                #  SIN(P +P0)
000320: 24,2166           00007                                    6
000321: 24,2167           72405                           DMP      SL1
000322: 24,2170           00005                                    4
000323: 24,2171           65276                           DCOMP    PDDL                                  #  -SIN(Y+Y0)COS(P+P0) PDL 10
000324: 24,2172           00007                                    6
000325: 24,2173           72405                           DMP      SL1
000326: 24,2174           00003                                    2
000327: 24,2175           77666                           VDEF
000328: 24,2176           14307                           STODL    XSCREF                                #  PD POINTER AT 6 NEW SC X AXIS SCALED AT
000329: 24,2177           00323                                    ZSCREF
000330: 24,2200           72405                           DMP      SL1
000331: 24,2201           00005                                    4
000332: 24,2202           41325                           PDDL     DMP
000333: 24,2203           00323                                    ZSCREF
000334: 24,2204           00003                                    2
000335: 24,2205           57552                           SL1      DCOMP
000336: 24,2206           77666                           VDEF
000337: 24,2207           14323                           STODL    ZSCREF                                #  PD POINTER AT 4 NEW SC Z AXIS SCALED AT 2
000338: 24,2210           77666                           VDEF
000339: 24,2211           14315                           STODL    YSCREF                                #  PD POINTER AT 0 NEW SC Y AXIS SCALED AT 2
000340: 24,2212           00323                                    ZSCREF
000341: 24,2213           65325                           PDDL     PDDL
000342: 24,2214           00315                                    YSCREF
000343: 24,2215           00307                                    XSCREF
000344: 24,2216           77666                           VDEF
000345: 24,2217           27354                           STOVL    SCAXIS                                #  ENGINE BELL SCALED AT 2
000346: 24,2220           03673                                    UT
000347: 24,2221           53515                           PDVL     UNIT
000348: 24,2222           03610                                    RTIG
000349: 24,2223           57435                           VXV      VCOMP
000350: 24,2224           00001                                    0
000351: 24,2225           41456                           UNIT     PUSH
000352: 24,2226           77624                           CALL
000353: 24,2227           62623                                    TSTRXUT
000354: 24,2230           57435                           VXV      VCOMP
000355: 24,2231           00001                                    0
000356: 24,2232           63372                           VSL1     PDVL                                  #  2 RF/SC IN PDL 12D
000357: 24,2233           00307                                    XSCREF
000358: 24,2234           76505                           VXM      VSL1
000359: 24,2235           00001                                    0
000360: 24,2236           24307                           STOVL    XSCREF                                #  X OF PREF IMU,X OF SC IN REF COOR. AT 2
000361: 24,2237           00315                                    YSCREF
000362: 24,2240           76505                           VXM      VSL1
000363: 24,2241           00001                                    0
000364: 24,2242           24315                           STOVL    YSCREF                                #  Y OF PREF.IMU,Y OF SC IN REF COOR. AT 2
000365: 24,2243           00323                                    ZSCREF
000366: 24,2244           76505                           VXM      VSL1
000367: 24,2245           00001                                    0
000368: 24,2246           00323                           STORE    ZSCREF                                #  Z OF PREF. IMU,Z OF SC IN REF COOR. AT 2
000369: 24,2247                                           COUNT*   $$/P40
000370:
000371: 24,2247           77414        P40SXTY            SET      EXIT
000372: 24,2250           01073                                    PFRATFLG
000373: 24,2251           35030                           CAF      1SEC
000374: 24,2252           04647                           TC       BANKCALL
000375: 24,2253           01731                           CADR     DELAYJOB
000376: 24,2254           03034                           TCR      SETMINDB   -1                         #  NARROW DEADBAND FOR MANEUVER (EBANK6)
000377: 24,2255           07722                           TC       DOWNFLAG
000378: 24,2256           00124                           ADRES    3AXISFLG
000379: 24,2257           04647                           TC       BANKCALL
000380: 24,2260           56000                           CADR     R60CSM                                #  ATTITUDE MANEUVER
000381: 24,2261           05415                           TC       PHASCHNG                              #  COMPTGO DESTROYS
000382: 24,2262           00014                           OCT      00014                                 #  4.1 RESTART SETUP
000383: 24,2263           45001                           CS       ONE                                   #  FOR UPDATEVG
000384: 24,2264           55753                           TS       NBRCYCLS
000385: 24,2265           06006                           TC       INTPRET
000386: 24,2266           77614                           BON
000387: 24,2267           00704                                    ENG2FLAG                              #  P40 OR P41 ?
000388: 24,2270           51740                                    P41/DSP
000389: 24,2271           51575                           VLOAD    ABVAL                                 #  FOR R2
000390: 24,2272           03772                                    VGTIG
000391: 24,2273           17764                           STODL    VGDISP
000392: 24,2274           15204                                    HI6ZEROS
000393: 24,2275           17426                           STODL    DVTOTAL
000394: 24,2276           11423                                    S40.8ADS
000395: 24,2277           01054                           STORE    AVEGEXIT
000396: 24,2300           77776                           EXIT
000397: 24,2301           33363        P40GMB             CAF      P40CKLS2                              #  (4.1 PROTECTION)
000398: 24,2302           04647                           TC       BANKCALL
000399: 24,2303           20747                           CADR     GOPERF1
000400: 24,2304           13251                           TCF      POST41                                #  V34
000401: 24,2305           12366                           TCF      TST,TRIM                              #  V33
000402: 24,2306           45001        TRIMONLY           CS       BIT1                                  #  SET MRKRTEMP FOR GIMBAL TRIM (-1)
000403: 24,2307           55451                 +1        TS       MRKRTMP                               #  ENTRY FROM TST,TRIM
000404: 24,2310           35003                           CAF      ZERO                                  #  SET CNTR  +0 FOR RESTART LOGIC IN S40.6
000405: 24,2311           55453                           TS       CNTR                                  #        +0 SAYS NORMAL ENTRY.
000406:                                                                                                  #        +1 (PRE40.6) SAYS RESTART ENTRY
000407: 24,2312           35001                           CAF      ONE
000408: 24,2313           05246                           TC       WAITLIST
000409: 24,2314  E6,1514                                  EBANK=   DAPDATR1
000410: 24,2314           02323 40066                     2CADR    S40.6
000411:
000412: 24,2316           11451                           CCS      MRKRTMP                               #  TEST TO FIND TIME TO WAIT FOR GIMBAL TEST
000413: 24,2317           33367                           CAF      18SEC                                 #  PLUS, DELAY FOR 18 SECONDS
000414: 24,2320           12322                           TCF      +2                                    #  HOLE
000415: 24,2321           33371                           CAF      5SEC                                  #  DELAY FOR TRIM ONLY TASK
000416: 24,2322           04647                           TC       BANKCALL
000417: 24,2323           01731                           CADR     DELAYJOB
000418: 24,2324           33361                           CAF      V06N40
000419: 24,2325           54772                           TS       NVWORD1                               #  FORCE CLOCKJOB
000420: 24,2326           05375                           TC       2PHSCHNG
000421: 24,2327           00026                           OCT      00026                                 #  6.2 = PRE40.6(-0CS), CLOKTASK(100CS)
000422: 24,2330           00234                           OCT      00234                                 #  4.23 = P40S/SV (PRIO12)
000423: 24,2331  01,2162               4P23SPT1           =        4.23SPOT
000424: 24,2331  01,2325               6P2SPT1            =        6.2SPOT
000425: 24,2331           04606        P40S/SV            TCR      E7SETTER                              #  JOB, 4.23 PROTECTS, PRIO12
000426: 24,2332  E7,1412                                  EBANK=   TIG
000427: 24,2332           06006                           TC       INTPRET
000428: 24,2333           45345                           DLOAD    DSU
000429: 24,2334           03413                                    TIG
000430: 24,2335           11375                                    SEC29.96
000431: 24,2336           00041                           STORE    TDEC1
000432: 24,2337           77624                           CALRB                                          #  RETURN IN BASIC
000433: 24,2340           27545                                    MIDTOAV1
000434: 24,2341           02350                           TC       P40SET                                #  P15 INTEGRATION ALWAYS RETURNS HERE
000435: 24,2342           00006        P40SNEWM           EXTEND                                         #  INTEGRATION TIME GREATER THAN ALLOWED
000436: 24,2343           31077                           DCA      PIPTIME1
000437: 24,2344           53413                           DXCH     TIG
000438: 24,2345           00006                           EXTEND
000439: 24,2346           33375                           DCA      SEC29.96
000440: 24,2347           21413                           DAS      TIG                                   #  SET NEW TIG FOR V06N40
000441: 24,2350           00006        P40SET             EXTEND
000442: 24,2351           30155                           DCA      MPAC                                  #  DELTA TIME TO PREREAD
000443: 24,2352           53653                           DXCH     P40TMP
000444: 24,2353           00006                           EXTEND
000445: 24,2354           43371                           DCS      5SECDP                                #  FOR TIGBLNK
000446: 24,2355           21653                           DAS      P40TMP
000447: 24,2356           00006                           EXTEND
000448: 24,2357           31653                           DCA      P40TMP
000449: 24,2360           05345                           TC       LONGCALL
000450: 24,2361  E7,1412                                  EBANK=   TIG
000451: 24,2361           02373 50067                     2CADR    TIGBLNK
000452:
000453: 24,2363           05415                           TC       PHASCHNG
000454: 24,2364           20214                           OCT      20214                                 #  4.21 = TIGBLNK (P40TMP CS)
000455: 24,2365  01,2157               4P21SPT1           =        4.21SPOT
000456: 24,2365           15220                           TCF      ENDOFJOB
000457:
000458: 24,2366           35001        TST,TRIM           CAF      BIT1                                  #  SET UP FOR GIMB DRIVE TEST AND TRIM (+1)
000459: 24,2367           12307                           TCF      TRIMONLY   +1
000460:
000461: 24,2370           04647        P40BLNKR           TC       BANKCALL
000462: 24,2371           20575                           CADR     CLEANDSP                              #  REMOVE RESIDUE
000463: 24,2372           15220                           TCF      ENDOFJOB
000464:
000465: 24,2373           33371        TIGBLNK            CAF      5SEC                                  #  CALL TIGAVEG IN 5 SEC AT TIG - AVEGDT
000466: 24,2374           05236                           TC       TWIDDLE
000467: 24,2375           02410                           ADRES    TIGAVEG
000468: 24,2376           35003                           CAF      ZERO                                  #  DISABLE HERE, NOT IN P40BLNKR
000469: 24,2377           54772                           TS       NVWORD1
000470: 24,2400           35065                           CAF      PRIO14
000471: 24,2401           05134                           TC       NOVAC
000472: 24,2402  E7,1412                                  EBANK=   TIG
000473: 24,2402           02370 50067                     2CADR    P40BLNKR                              #  DONT PROTECT - RESTARTS BLANK DSKY
000474:
000475: 24,2404           44342                           CS       OCT37                                 #  4.37 = TIGAVEG (500CS)
000476: 24,2405           04126        P40TSK             TC       NEWPHASE
000477: 24,2406           00004                           OCT      4
000478: 24,2407  01,2204               4P37SPT1           =        4.37SPOT
000479: 24,2407           05327                           TC       TASKOVER
000480:
000481: 24,2410  E7,1412                                  EBANK=   TIG
000482: 24,2410           44776        TIGAVEG            CS       PFRATBIT                              #  TASK (4.37 PROTECTS)
000483: 24,2411           70076                           MASK     FLAGWRD2
000484: 24,2412           54076                           TS       FLAGWRD2
000485: 24,2413           30075                           CAE      FLAGWRD1
000486: 24,2414           74767                           MASK     ENG2BIT
000487: 24,2415           10000                           CCS      A                                     #  P40 OR P41 ?
000488: 24,2416           13754                           TCF      P41REDSP
000489: 24,2417           33361                           CAF      V06N40                                #  UNBLANK DISPLAY
000490: 24,2420           54772                           TS       NVWORD1
000491: 24,2421           33366                           CAF      SEC24.96
000492: 24,2422           05236                           TC       TWIDDLE
000493: 24,2423           02433                           ADRES    TIG-5
000494: 24,2424           46211                           CS       SIX                                   #  4.6 = TIG-5 (2496CS), PRECHECK (-0CS)
000495: 24,2425           04126        TTGPHS             TC       NEWPHASE                              #  ENTRY FROM P41REDSP (P41) WITH A=-4, OR
000496: 24,2426           00004                           OCT      4                                     #        FROM TIGON    (P47) WITH A=-2
000497: 24,2427  01,2110               4P2SPT1            =        4.2SPOT
000498: 24,2427  01,2116               4P4SPT1            =        4.4SPOT
000499: 24,2427  01,2124               4P6SPT1            =        4.6SPOT
000500: 24,2427           11156        PRECHECK           CCS      PHASE5                                #  HAS SERVICER BEEN RESTARTED
000501: 24,2430           15327                           TCF      TASKOVER                              #  YES, DONT START ANOTHER ONE
000502: 24,2431           04666                           TC       POSTJUMP
000503: 24,2432           76447                           CADR     PREREAD
000504:
000505: 24,2433  E7,1412                                  EBANK=   TIG
000506: 24,2433           33371        TIG-5              CAF      5SEC
000507: 24,2434           05246                           TC       WAITLIST
000508: 24,2435  E6,1514                                  EBANK=   DAPDATR1
000509: 24,2435           02450 50066                     2CADR    TIG-0
000510:
000511: 24,2437           44771                           CS       BIT9                                  #  WILL CAUSE V99 FLASH
000512: 24,2440           54772                           TS       NVWORD1
000513: 24,2441           05375                           TC       2PHSCHNG
000514: 24,2442           40074                           OCT      40074                                 #  A, 4.7 = TIG-0 (500CS)
000515: 24,2443           00033                           OCT      00033                                 #  A, 3.3 = S40.13 (PRIO20)
000516: 24,2444  01,2060               3P3SPT1            =        3.3SPOT
000517: 24,2444  01,2140               4P7SPT1            =        4.7SPOT
000518: 24,2444           05147                           TC       FINVAC20
000519: 24,2445  E7,1427                                  EBANK=   TGO
000520: 24,2445           02463 34067                     2CADR    S40.13
000521:
000522: 24,2447           15327                           TCF      TASKOVER
000523:
000524:
000525: 24,2450  E6,1514                                  EBANK=   DAPDATR1                              #  TASK, 4.7 PHASE OR 4.11 (-0 CS IN R40)
000526: 24,2450           40103        TIG-0              CS       FLAGWRD7                              #  SET IGN FLAG
000527: 24,2451           74765                           MASK     IGNFLBIT
000528: 24,2452           26103                           ADS      FLAGWRD7
000529: 24,2453           30103                           CAE      FLAGWRD7                              #  CHECK ASTN FLAG FOR V99 RESPONSE
000530: 24,2454           74766                           MASK     BIT12
000531: 24,2455           00006                           EXTEND
000532: 24,2456           15327                           BZF      TASKOVER                              #  WAIT FOR V99P
000533: 24,2457           33361                           CAF      V06N40                                #  CLEAR THE V99 (IN CASE OF A RESTART
000534: 24,2460           54772                           TS       NVWORD1                               #        DURING THE V99 SEQUENCE)
000535: 24,2461           05415                           TC       PHASCHNG                              #  V99P HAS COME ALREADY, DO IGNITION NOW
000536: 24,2462           00274                           OCT      00274                                 #  A, 4.27 = IGNITION (-0CS) TBASE OLD
000537: 24,2463  01,2170               4P27SPT1           =        4.27SPOT
000538: 24,2463           30032        IGNITION           CAE      CDUX                                  #  SAVE FOR ROLL DAP REFERENCE OGAD
000539: 24,2464           55454                           TS       OGAD                                  #        V99PJOB (CLOCKJOB) SETS UP IGNITION
000540: 24,2465           00006                           EXTEND                                         #        TASK (4.61 PROTECTION)
000541: 24,2466           30025                           DCA      TIME2                                 #        FOR RESTARTS
000542: 24,2467           53015                           DXCH     TEVENT
000543: 24,2470           40101                           CS       FLAGWRD5                              #  SET ENGONFLG
000544: 24,2471           74773                           MASK     ENGONBIT
000545: 24,2472           26101                           ADS      FLAGWRD5
000546: 24,2473           34765        SPSON              CAF      BIT13                                 #  TURN ON SPS ENGINE
000547: 24,2474           00006                           EXTEND
000548: 24,2475           05011                           WOR      DSALMOUT
000549:
000550: 24,2476           34771        IMPULCHK           CAF      IMPULBIT                              #  CHECK FOR IMPULSIVE BURN
000551: 24,2477           70076                           MASK     FLAGWRD2
000552: 24,2500           10000                           CCS      A
000553: 24,2501           12567                           TCF      IMPLBURN                              #  IMPULSIVE
000554: 24,2502           40102                           CS       FLAGWRD6                              #  NON-IMPULSIVE, SET STRULLSW FOR STEERULL
000555: 24,2503           74765                           MASK     STRULBIT
000556: 24,2504           26102                           ADS      FLAGWRD6
000557: 24,2505           44076        PREPTVC            CS       DPCONFIG                              #  RESET T5 BITS
000558: 24,2506           70102                           MASK     FLAGWRD6
000559: 24,2507           54102                           TS       FLAGWRD6
000560: 24,2510           00006                           EXTEND                                         #  KILL RCS
000561: 24,2511           33415                           DCA      T5IDL24
000562: 24,2512           52113                           DXCH     T5LOC
000563: 24,2513           46214                           CS       THREE                                 #  4.3 = DOTVCON (40CS)
000564: 24,2514           04126                           TC       NEWPHASE
000565: 24,2515           00004                           OCT      4
000566: 24,2516  01,2132               4P3SPT1            =        4.3SPOT
000567: 24,2516           05270                           TC       FIXDELAY
000568: 24,2517           00050                           DEC      40         B-14                       #  0.4 SECOND DELAY FOR THRUST BUILDUP
000569: 24,2520           45001        DOTVCON            CS       BIT1                                  #  SET TVCPHASE = TVCDAPON CALL (FRESHDAP)
000570: 24,2521           55664                           TS       TVCPHASE
000571: 24,2522           35003                           CAF      ZERO                                  #  SET TVCEXECUTIVE PHASE
000572: 24,2523           55673                           TS       TVCEXPHS
000573: 24,2524           44076                           CS       DPCONFIG                              #  SET T5 BITS TO INDICATE TVC TAKEOVER....
000574: 24,2525           70102                           MASK     FLAGWRD6                              #        BITS 15,14 = 10
000575: 24,2526           64763                           AD       DAP1BIT
000576: 24,2527           54102                           TS       FLAGWRD6
000577: 24,2530           36214                           CAF      THREE                                 #  6.3 = CLOKTASK (100CS), DROPPING PRE40.6
000578: 24,2531           54001                           TS       L                                     #        WHICH IS HANDLED NOW BY REDOTVC
000579: 24,2532           40000                           COM
000580: 24,2533           53160                           DXCH     -PHASE6
000581: 24,2534  01,2333               6P3SPT2            =        6.3SPOT
000582: 24,2534           00006                           EXTEND                                         #  STORE RCS ATTITUDE ERRORS FOR USE IN
000583: 24,2535           41622                           DCS      ERRORY                                #  INITIALIZING TVC ATTITUDE ERRORS
000584: 24,2536           53714                           DXCH     ERRBTMP
000585: 24,2537           45004                           CS       FIVE                                  #  4.5 = DOSTRULL (160 CS)
000586: 24,2540           04126                           TC       NEWPHASE
000587: 24,2541           00004                           OCT      4
000588: 24,2542  01,2135               4P5SPT1            =        4.5SPOT
000589: 24,2542           34761                           CAF      POSMAX                                #  SET TIME5 FOR STARTING RIGHT AWAY
000590: 24,2543           54030                           TS       TIME5
000591: 24,2544           00006                           EXTEND
000592: 24,2545           33425                           DCA      TVCON2C                               #  (TVCDAPON)
000593: 24,2546           52113                           DXCH     T5LOC                                 #  (KILLS RCS DAP)
000594: 24,2547           05270                           TC       FIXDELAY                              #  0.4 + 1.6 = 2.0 SEC FOR ULLAGE-OFF AND
000595: 24,2550           00240                           DEC      160        B-14                       #        STEERING (IF NON-IMPULSIVE)
000596: 24,2551           40102        DOSTRULL           CS       FLAGWRD6                              #  CHECK STRULLSW FOR IMPULSIVE BURN
000597: 24,2552           74765                           MASK     STRULBIT
000598: 24,2553           10000                           CCS      A
000599: 24,2554           02560                           TC       ULAGEOFF                              #  ULLAGE OFF
000600: 24,2555           40076        STEERULL           CS       FLAGWRD2                              #  SET STEERSW
000601: 24,2556           74767                           MASK     STEERBIT
000602: 24,2557           26076                           ADS      FLAGWRD2
000603: 24,2560           35003        ULAGEOFF           CAF      ZERO
000604: 24,2561           00006                           EXTEND
000605: 24,2562           01005                           WRITE    CHAN5                                 #  ZERO CHANNEL 5
000606: 24,2563           00006                           EXTEND
000607: 24,2564           35003                           DCA      NEG0                                  #  KILL GROUP 4 (DP NEG0 = -0, +0)
000608: 24,2565           53154                           DXCH     -PHASE4
000609: 24,2566           15327        ENDIGN             TCF      TASKOVER
000610:
000611: 24,2567           44765        IMPLBURN           CS       STRULBIT                              #  RESET STRULLSW (COULD BE AN IMPULSIVE
000612: 24,2570           70102                           MASK     FLAGWRD6                              #        ENGINE FAIL)
000613: 24,2571           54102                           TS       FLAGWRD6
000614: 24,2572           04606                           TCR      E7SETTER
000615: 24,2573  E7,1412                                  EBANK=   TIG
000616: 24,2573           00006                           EXTEND                                         #  PREPARE FOR R1 OF V06N40 (CLOCKTASK)
000617: 24,2574           31430                           DCA      TGO
000618: 24,2575           53413                           DXCH     TIG
000619: 24,2576           00006                           EXTEND
000620: 24,2577           30025                           DCA      TIME2
000621: 24,2600           21413                           DAS      TIG
000622: 24,2601           40076                           CS       FLAGWRD2
000623: 24,2602           74777                           MASK     SBFLGBIT
000624: 24,2603           10000                           CCS      A
000625: 24,2604           12637                           TCF      LONGBURN
000626: 24,2605           31430                           CA       TGO        +1
000627: 24,2606           00006                           EXTEND
000628: 24,2607           73373                           MP       DEC.1
000629: 24,2610           00006                           EXTEND
000630: 24,2611           74355                           MP       TEN
000631: 24,2612           41424                           CS       SBDELT
000632: 24,2613           60001                           AD       L
000633: 24,2614           00006                           EXTEND
000634: 24,2615           62617                           BZMF     +2
000635: 24,2616           12627                           TCF      SBCALL
000636: 24,2617           54001                           TS       L
000637: 24,2620           34355                           CAF      TEN
000638: 24,2621           54002                           TS       Q
000639: 24,2622           35002                           CAF      NEG0
000640: 24,2623           00006                           EXTEND
000641: 24,2624           10002                           DV       Q
000642: 24,2625           34124                           CAF      DEC20
000643: 24,2626           60001                           AD       L


000645: 24,2627           55470        SBCALL             TS       SBTEMP
000646: 24,2630           05236                           TC       TWIDDLE
000647: 24,2631           03474                           ADRES    SBTASK
000648: 24,2632           05375                           TC       2PHSCHNG
000649: 24,2633           40153                           OCT      40153
000650: 24,2634           05014                           OCT      05014
000651: 24,2635  01,2077               3P15SPT1           =        3.15SPOT
000652: 24,2635           77777                           DEC      -0         B-14                       #  -0 CS
000653: 24,2636           12650                           TCF      IMPLCONT
000654:


000656: 24,2637           05375        LONGBURN           TC       2PHSCHNG
000657: 24,2640           40053                           OCT      40053                                 #  A, 3.5 = ENGINOFF (TGO+1)....NOTE GROUP
000658: 24,2641           07014                           OCT      07014                                 #  C, DELTAT AND 2CADR FOLLOW FOR TASK BELO
000659: 24,2642  01,2063               3P5SPT1            =        3.5SPOT
000660: 24,2642           77777                           DEC      -0         B-14                       #  -0 CS
000661: 24,2643  E6,1514                                  EBANK=   DAPDATR1
000662: 24,2643           02650 50066                     2CADR    IMPLCONT
000663:
000664: 24,2645           31430                           CAE      TGO        +1                         #  (TPAGREE IN S40.13, LESS THAN 600CS)
000665: 24,2646           05236                           TC       TWIDDLE
000666: 24,2647           02655                           ADRES    ENGINOFF
000667: 24,2650           44771        IMPLCONT           CS       IMPULBIT                              #  RESET IMPULSW, ENGINOFF IS NOW SET UP
000668: 24,2651           70076                           MASK     FLAGWRD2
000669: 24,2652           54076                           TS       FLAGWRD2
000670: 24,2653           04611                           TCR      E6SETTER
000671: 24,2654  E6,1514                                  EBANK=   DAPDATR1
000672: 24,2654           12505                           TCF      PREPTVC
000673:
000674: 24,2655  E7,1427                                  EBANK=   TGO                                   #  E7 FORCED BY 3.15SPOT VARIABLE DELTA-T
000675: 24,2655           04611        ENGINOFF           TCR      E6SETTER                              #  TASK, 3.15 PHASE (TGO+1 CS)   GET E6
000676: 24,2656  E6,1514                                  EBANK=   DAPDATR1
000677: 24,2656           02677        DOSPSOFF           TCR      SPSOFF                                #  SHUT DOWN SPS
000678: 24,2657           05270                           TC       FIXDELAY                              #  2.5 SECOND DELAY FOR SPS TAILOFF
000679: 24,2660           00372                           DEC      250        B-14                       #  RESTART MAY DOUBLE THE DELAY, HIT TEVENT
000680: 24,2661           03057        DOTVCRCS           TCR      SETMAXDB                              #  WIDE DEADBAND FOR CUTOFF TRANSIENT
000681: 24,2662           04725                           TC       IBNKCALL                              #  SET UP RCS DAP (KILLS TVCDAPS, SETS T5
000682: 24,2663           45504                           CADR     RCSDAPON                              #        BITS, WAITS 0.6SEC FOR TVCEXEC DIE)
000683: 24,2664           04725                           TC       IBNKCALL                              #  UPDATE WEIGHT/G AND MASS-PROPERTIES FOR
000684: 24,2665           13311                           CADR     MASSPROP                              #        RCS DAP STARTUP IN 0.6 SECONDS
000685: 24,2666           03013                           TCR      TVCZAP                                #  WIPE OUT TVC, TURN OFF CLOKTASK
000686: 24,2667           05375                           TC       2PHSCHNG
000687: 24,2670           00003                           OCT      00003                                 #  KILL GROUP 3 PROTECTION OF ENGINOFF
000688: 24,2671           00354                           OCT      00354                                 #  A, 4.35 = POSTBURN (NOVAC, PRIO12)
000689: 24,2672  01,2201               4P35SPT1           =        4.35SPOT
000690: 24,2672           34675                           CAF      PRIO12                                #  SET UP POSTBURN V16N40 JOB
000691: 24,2673           05134                           TC       NOVAC
000692: 24,2674  E6,1514                                  EBANK=   DAPDATR1                              #  (SET MAXDB IN POST41)
000693: 24,2674           03026 50066                     2CADR    POSTBURN
000694:
000695: 24,2676           15327                           TCF      TASKOVER
000696:
000697: 24,2677  E6,1514                                  EBANK=   DAPDATR1
000698: 24,2677           00004        SPSOFF             INHINT
000699: 24,2700           00006                           EXTEND                                         #  ESTABLISH SPSOFF TEVENT
000700: 24,2701           30025                           DCA      TIME2
000701: 24,2702           53015                           DXCH     TEVENT
000702: 24,2703           44773                           CS       ENGONBIT                              #  RESET ENGONFLG
000703: 24,2704           70101                           MASK     FLAGWRD5
000704: 24,2705           54101                           TS       FLAGWRD5                              #  (RESTARTS WILL SHUT DOWN SPS NOW)
000705: 24,2706           44765                           CS       BIT13                                 #  SHUT DOWN SPS ENGINE
000706: 24,2707           00006                           EXTEND
000707: 24,2710           03011                           WAND     DSALMOUT
000708: 24,2711           34764                           CAF      BIT14                                 #  ISSUE SIV CUTOFF COMMAND
000709: 24,2712           00006                           EXTEND                                         #  FOR POSSIBLE BACK-UP USE
000710: 24,2713           05012                           WOR      CHAN12
000711: 24,2714           31664                           CA       TVCPHASE                              #  CHECK IF OK FOR TRIM UPDATE
000712: 24,2715           65001                           AD       ONE                                   #        THESE CHECKS ARE ONLY NEEDED
000713: 24,2716           00006                           EXTEND                                         #        FOR A LESS THAN 0.4 SEC BURN
000714: 24,2717           12733                           BZF      BTRIMR                                #  NO, INITIALIZATION NOT COMPLETE
000715: 24,2720           40102                           CS       FLAGWRD6                              #  YES, CHECK IF TVC
000716: 24,2721           74076                           MASK     DPCONFIG
000717: 24,2722           00006                           EXTEND
000718: 24,2723           62733                           BZMF     BTRIMR                                #  NO, NOT TVC YET
000719: 24,2724           31662                           CAE      REPFRAC                               #  NO TRIM UPDATES IF R40 (ENGFAIL) ACTIVE
000720: 24,2725           00006                           EXTEND                                         #       (LOTHRUST SETS REPFRAC = 77777)
000721: 24,2726           12733                           BZF      BTRIMR
000722: 24,2727           31630        BESTTRIM           CAE      DELPBAR                               #  UPDATE TRIMS WITH DELFILTER VALUES
000723: 24,2730           55410                           TS       PACTOFF
000724: 24,2731           31632                           CAE      DELYBAR
000725: 24,2732           55411                           TS       YACTOFF
000726: 24,2733           00002        BTRIMR             TC       Q
000727:
000728: 24,2734                                           COUNT*   $$/S40.8
000729: 24,2734  E6,1453                                  EBANK=   CNTR
000730: 24,2734           77775        S40.81             VLOAD                                          #  TGO LESS THAN 4 SECONDS
000731: 24,2735           15204                                    HI6ZEROS
000732: 24,2736           03155        RATEZRO            STORE    OMEGAC                                #  TVC TO ATTITUDE HOLD
000733: 24,2737           77776                           EXIT
000734: 24,2740           34761                           CAF      POSMAX                                #  INHIBIT SWITCHOVER/TVC EG TRACKING
000735: 24,2741           55453                           TS       CNTR
000736: 24,2742           04606                           TCR      E7SETTER
000737: 24,2743  E7,1412                                  EBANK=   TIG
000738: 24,2743           00004                           INHINT
000739: 24,2744           00006                           EXTEND
000740: 24,2745           31413                           DCA      TIG
000741: 24,2746           52155                           DXCH     MPAC
000742: 24,2747           00006                           EXTEND
000743: 24,2750           40025                           DCS      TIME2
000744: 24,2751           20155                           DAS      MPAC
000745: 24,2752           07224                           TCR      DPAGREE
000746: 24,2753           30155                           CAE      MPAC       +1                         #  (LESS THAN 6 (OR 4) SECONDS TO GO)
000747: 24,2754           00006                           EXTEND
000748: 24,2755           62757                           BZMF     +2
000749: 24,2756           12760                           TCF      +2
000750: 24,2757           35001                           CAF      ONE
000751: 24,2760           55430                           TS       TGO        +1
000752: 24,2761           05236                           TC       TWIDDLE
000753: 24,2762           02655                           ADRES    ENGINOFF
000754: 24,2763           05375                           TC       2PHSCHNG
000755: 24,2764           40053                           OCT      40053                                 #  A,3.5 = ENGINOFF (TGO+1)....NOTE GROUP
000756: 24,2765           10035                           OCT      10035                                 #  B, 5.3 = REREADAC, AND START BELOW
000757: 24,2766  01,2063               3P5SPT2            =        3.5SPOT
000758: 24,2766  01,2253               5P3SPT2            =        5.3SPOT
000759: 24,2766           07722        CLEARSTR           TC       DOWNFLAG                              #  CLEAR IMPULSW, ENGINOFF IS NOW SET UP
000760: 24,2767           00042                           ADRES    STEERSW                               #  RESTARTS OK
000761: 24,2770           13726                           TCF      SERVXT
000762:
000763: 24,2771           77776        INCRSVG            EXIT                                           #  ALARM INDICATING THAT THRUST IS POINTING
000764: 24,2772           05644                           TC       ALARM                                 #  IN WRONG DIRECTION.
000765: 24,2773           01407                           OCT      01407
000766: 24,2774           13726                           TCF      SERVXT
000767:
000768: 24,2775                                           COUNT*   $$/R40
000769: 24,2775           77614        LOTHRUST           BOFF
000770: 24,2776           01344                                    STEERSW
000771: 24,2777           51725                                    SERVXT1                               #  NO STEERING. EXIT
000772: 24,3000           77214        R40CHECK           BON      VLOAD                                 #  THRUST FAILURE (LO-OR-NO) INDICATED
000773: 24,3001           00711                                    IDLEFAIL                              #  SET BY V97P. ALLOWS 1 BYPASS IN CASE OF
000774: 24,3002           51725                                    SERVXT1                               #  UNFAVORABLE STEERING SYNCH
000775: 24,3003           15204        R40START                    HI6ZEROS                              #  START OF ENGINE-FAIL (R40) OPERATIONS
000776: 24,3004           03155                           STORE    OMEGAC                                #  PUT TVC IN ATTITUDE HOLD
000777: 24,3005           77776                           EXIT
000778: 24,3006  E6,1514                                  EBANK=   DAPDATR1
000779: 24,3006           45003                           CS       ZERO
000780: 24,3007           55662                           TS       REPFRAC                               #  KILL TVCDAP CG TRIM TRACKING
000781: 24,3010           54772                           TS       NVWORD1                               #  SET UP ENGINE-FAIL V97FLASH (CLOCKJOB)
000782: 24,3011           12766                           TCF      CLEARSTR
000783:
000784: 24,3012                                           COUNT*   $$/P40
000785: 24,3012           00004                 -1        INHINT
000786: 24,3013           43364        TVCZAP             CS       OCT02202                              #  DISABLE TVC AND OPT ERR CNTRS, REENGAGE
000787: 24,3014           00006                           EXTEND                                         #        OPTICS DAC
000788: 24,3015           03012                           WAND     CHAN12
000789: 24,3016           45001                           CS       BIT1                                  #  ENABLE T4RUPT OPTICS MONITOR....PERMIT
000790: 24,3017           55313                           TS       OPTIND                                #        OPTICS-ZERO BUT NOT OPTICS-DRIVE
000791: 24,3020           35003                           CAF      ZERO                                  #  CLEAR NVWORD1 IN CASE CLOCKJOB WAITING
000792: 24,3021           54772                           TS       NVWORD1
000793: 24,3022           44767                           CS       TIMRBIT                               #  CLEAR TIMRFLAG TO STOP CLOKTASK
000794: 24,3023           70103                           MASK     FLAGWRD7
000795: 24,3024           54103                           TS       FLAGWRD7
000796: 24,3025           00002                           TC       Q
000797:
000798: 24,3026  E6,1514                                  EBANK=   DAPDATR1
000799: 24,3026           33362        POSTBURN           CAF      V16N40                                #  NOVAC, PRIO 12
000800: 24,3027           04647                           TC       BANKCALL
000801: 24,3030           20576                           CADR     REFLASH
000802: 24,3031           13251                           TCF      POST41                                #  V34 GO FINISH
000803: 24,3032           13307                           TCF      P40RCS                                #  PROCEED
000804: 24,3033           13026                           TCF      POSTBURN                              #  RECYCLE
000805:
000806: 24,3034  E6,1514                                  EBANK=   DAPDATR1
000807: 24,3034           00004                 -1        INHINT
000808: 24,3035           51475        SETMINDB           INDEX    WHICHDAP
000809: 24,3036           13037                           TCF      +1
000810: 24,3037           13043                           TCF      +4
000811: 24,3040           31474                           CA       DKDB
000812: 24,3041           55706                           TS       ADB
000813: 24,3042           00002                           TC       Q
000814:
000815: 24,3043           30032                           CA       CDUX                                  #  ROUTINE FOR SETTING
000816: 24,3044           55623                           TS       THETADX                               #  THE MINIMUM DEADBAND
000817: 24,3045           00006                           EXTEND                                         #  IN AUTOPILOT
000818: 24,3046           30034                           DCA      CDUY
000819: 24,3047           53625                           DXCH     THETADY
000820: 24,3050           35021                           CA       MINDB                                 #  SHOULD BE CALLED UNDER
000821: 24,3051           55706                           TS       ADB                                   #  INTERRUPT INHIBITED
000822: 24,3052           44776                           CS       BIT4                                  #  EBANK = E6
000823: 24,3053           71514                           MASK     DAPDATR1
000824: 24,3054           55514                           TS       DAPDATR1
000825: 24,3055           00002                           TC       Q
000826:
000827: 24,3056  E6,1514                                  EBANK=   DAPDATR1
000828: 24,3056           00004                 -1        INHINT
000829: 24,3057           51475        SETMAXDB           INDEX    WHICHDAP
000830: 24,3060           13061                           TCF      +1
000831: 24,3061           13063                           TCF      +2
000832: 24,3062           13040                           TCF      SETMINDB   +3
000833:
000834: 24,3063           33365                           CA       MAXDB                                 #  ROUTINE FOR SETTING
000835: 24,3064           55706                           TS       ADB                                   #  THE MAXIMUM DEADBAND IN AUTOPILOT
000836: 24,3065           41514                           CS       DAPDATR1
000837: 24,3066           74776                           MASK     BIT4                                  #  SHOULD BE CALLED UNDER
000838: 24,3067           27514                           ADS      DAPDATR1                              #  INTERRUPT INHIBITED
000839: 24,3070           00002                           TC       Q                                     #  EBANK = E6
000840:
000841: 24,3071  E7,1412                                  EBANK=   TIG
000842: 24,3071           34767        CLOKTASK           CAF      TIMRBIT                               #  IS TIMRFLAG SET
000843: 24,3072           70103                           MASK     FLAGWRD7
000844: 24,3073           10000                           CCS      A
000845: 24,3074           13100                           TCF      CLOCKON
000846: 24,3075           05415                           TC       PHASCHNG
000847: 24,3076           00006                           OCT      00006                                 #  KILL RESTART
000848: 24,3077           05327                           TC       TASKOVER
000849: 24,3100           00006        CLOCKON            EXTEND
000850: 24,3101           30025                           DCA      TIME2
000851: 24,3102           53637                           DXCH     TTOGO
000852: 24,3103           00006                           EXTEND
000853: 24,3104           41413                           DCS      TIG
000854: 24,3105           21637                           DAS      TTOGO
000855: 24,3106           35030        SETCLOCK           CAF      1SEC
000856: 24,3107           05236                           TC       TWIDDLE
000857: 24,3110           03071                           ADRES    CLOKTASK
000858: 24,3111           10772                           CCS      NVWORD1
000859: 24,3112           13115                           TCF      +3
000860: 24,3113           13125                           TCF      SETTB6
000861: 24,3114           13115                           TCF      +1
000862: 24,3115           43357                           CS       V06N85B                               #  CHECK FOR V06N85B (P41)
000863: 24,3116           60772                           AD       NVWORD1
000864: 24,3117           00006                           EXTEND
000865: 24,3120           13130                           BZF      SETUPDYN                              #  V06N85, SO UPDATE N85 FOR DYNAMIC DISP
000866: 24,3121           37651                           CAF      PRIO27
000867: 24,3122           05134                           TC       NOVAC
000868: 24,3123  E6,1514                                  EBANK=   DAPDATR1
000869: 24,3123           03142 50066                     2CADR    CLOCKJOB
000870:
000871: 24,3125           40025        SETTB6             CS       TIME1                                 #  SET GROUP6 TIMEBASE
000872: 24,3126           55261                           TS       TBASE6
000873: 24,3127           15327                           TCF      TASKOVER
000874:
000875: 24,3130           37651        SETUPDYN           CAF      PRIO27                                #  SET UP A JOB TO UPDATE N85 (FOR P41=V06)
000876: 24,3131           05150                           TC       FINDVAC
000877: 24,3132  E6,1514                                  EBANK=   DAPDATR1
000878: 24,3132           03135 50066                     2CADR    DYNDISP
000879:
000880: 24,3134           13125                           TCF      SETTB6                                #  CLOSE OUT CLOCKTASK
000881:
000882: 24,3135           06006        DYNDISP            TC       INTPRET                               #  UPDATE N85 FOR A DYNAMIC V06N85 IN P41.
000883: 24,3136           77624                           CALL                                           #        PRIOR TO BLANKING AND AVEG (V16N85)
000884: 24,3137           51763                                    P40CNV85
000885: 24,3140           77776                           EXIT
000886: 24,3141           13152                           TCF      CKNVWRD1
000887:
000888: 24,3142  E6,1514                                  EBANK=   DAPDATR1
000889: 24,3142           30032        CLOCKJOB           CA       CDUX                                  #  NOVAC, PRIO27
000890: 24,3143           55165                           TS       CDUSPOTX
000891: 24,3144           30033                           CA       CDUY
000892: 24,3145           55161                           TS       CDUSPOTY
000893: 24,3146           30034                           CA       CDUZ
000894: 24,3147           55163                           TS       CDUSPOTZ
000895: 24,3150           04647                           TC       BANKCALL
000896: 24,3151           47547                           CADR     QUICTRIG
000897: 24,3152           00004        CKNVWRD1           INHINT
000898: 24,3153           10772                           CCS      NVWORD1                               #  DETERMINE FUNCTION, INDICATED BY NVWORD1
000899: 24,3154           13334                           TCF      NOFLASH
000900: 24,3155           15220                           TCF      ENDOFJOB
000901: 24,3156           13275                           TCF      ENGREQST
000902: 24,3157           33361        FAILDSP            CAF      V06N40                                #  SPS ENGINE FAILED - FLASH V97
000903: 24,3160           04647                           TC       BANKCALL
000904: 24,3161           20607                           CADR     CLOCPLAY
000905: 24,3162           13231                           TCF      V97T                                  #  TERMINATE
000906: 24,3163           13255                           TCF      V97P                                  #  PROCEED
000907: 24,3164           05415        V97E               TC       PHASCHNG                              #  ENTER
000908: 24,3165           00534                           OCT      00534                                 #  A, 4.53 = V97EJOB (PRIO 30 NOVAC)
000909: 24,3166  01,2226               4P53SPT1           =        4.53SPOT
000910:                                                                                                  #  IF RESTART, FORCE V97EJOB BEFORE CLOCKJOB
000911: 24,3166           33361        V97EJOB            CAF      V06N40                                #  REDISPLAY V06N40
000912: 24,3167           54772                           TS       NVWORD1
000913: 24,3170           04606                           TCR      E7SETTER
000914: 24,3171  E7,1412                                  EBANK=   TIG
000915: 24,3171           44124                           CS       OCT24                                 #  FORCE R1 OF V06N40 TO READ  59X59
000916: 24,3172           55412                           TS       TIG
000917: 24,3173           04611                           TCR      E6SETTER
000918: 24,3174  E6,1522                                  EBANK=   CSMMASS
000919: 24,3174           02677        SPSOFF97           TCR      SPSOFF
000920: 24,3175           33372                           CAF      SEC2.5                                #  DELAY 2.5 SECS FOR POSSIBLE TAILOFF
000921: 24,3176           04647                           TC       BANKCALL
000922: 24,3177           01731                           CADR     DELAYJOB                              #  **** RESTART CAN DOUBLE DELAY ****
000923:                                                                                                  #  **** RESTART WILL ALTER TEVENT ****
000924: 24,3200           35001        V97E40.6           CAF      BIT1
000925: 24,3201           05246                           TC       WAITLIST
000926: 24,3202  E6,1453                                  EBANK=   CNTR
000927: 24,3202           02312 40066                     2CADR    PRE40.6                               #  USE S40.6 RESTART ENTRY TO TRIM ENGINE
000928:
000929: 24,3204           04725                           TC       IBNKCALL                              #  RCS DAP IN 0.6SEC, SETTING T5 BITS TO
000930: 24,3205           45504                           CADR     RCSDAPON                              #        KILL TVCEXEC/TVCROLLDAP STARTS.
000931:                                                                                                  #        LEAVE NARROW DEADBAND FOR REIGNITE
000932: 24,3206           05375                           TC       2PHSCHNG
000933: 24,3207           00026                           OCT      00026                                 #  A, 6.2 = PRE40.6 (-0 CS), CLOKTASK (1 SEC)
000934: 24,3210           05024                           OCT      05024                                 #  NOVAC BELOW, PRIO NEXT
000935: 24,3211           50777                           OCT      50777                                 #  PRIO 27 NOVAC
000936: 24,3212  01,2325               6P2SPT2            =        6.2SPOT
000937: 24,3212           07722        QUICKIGN           TC       DOWNFLAG                              #  CLEAR ASTNFLAG
000938: 24,3213           00154                           ADRES    ASTNFLAG
000939: 24,3214           07710                           TC       UPFLAG                                #  AND SET IGNFLAG
000940: 24,3215           00153                           ADRES    IGNFLAG                               #  FOR IMMEDIATE V99 RESPONSE
000941: 24,3216           07710                           TC       UPFLAG
000942: 24,3217           00052                           ADRES    SBFLAG
000943: 24,3220           44771        V99FLASH           CS       BIT9                                  #  CAUSE V99 TO FLASH
000944: 24,3221           54772                           TS       NVWORD1
000945: 24,3222           05375                           TC       2PHSCHNG
000946: 24,3223           40114                           OCT      40114                                 #  A, 4.11 = TIG-0 (-0 CS) TBASE FOR PREPTVC
000947: 24,3224           00033                           OCT      00033                                 #  A, 3.3 = S40.13 (PRIO 20)
000948: 24,3225  01,2060               3P3SPT2            =        3.3SPOT
000949: 24,3225  01,2143               4P11SPT1           =        4.11SPOT
000950: 24,3225           05147                           TC       FINVAC20                              #  SET UP TIMEBURN
000951: 24,3226  E7,1427                                  EBANK=   TGO
000952: 24,3226           02463 34067                     2CADR    S40.13
000953:
000954: 24,3230           15220        ENDV97E            TCF      ENDOFJOB                              #  WAIT FOR CLOCKJOB (IMMEDIATE) REACTION
000955:
000956: 24,3231  E6,1522                                  EBANK=   CSMMASS
000957: 24,3231           05415        V97T               TC       PHASCHNG                              #  KILL CLOKTASK
000958: 24,3232           00076                           OCT      00076                                 #  A, 6.7 = V97TJOB (PRIO 27 NOVAC)
000959: 24,3233  01,2341               6P7SPT1            =        6.7SPOT
000960: 24,3233           35003        V97TJOB            CAF      ZERO                                  #  DISABLE CLOCKJOB
000961: 24,3234           54772                           TS       NVWORD1
000962: 24,3235           02677                           TCR      SPSOFF                                #  SHUTDOWN SPS ENGINE
000963: 24,3236           33372                           CAF      SEC2.5                                #  DELAY 2.5 SECS FOR POSSIBLE TAILOFF :
000964: 24,3237           04647                           TC       BANKCALL                              #  FALSE THRUST LOSS
000965: 24,3240           01731                           CADR     DELAYJOB                              #  **** RESTART CAN DOUBLE DELAY ****
000966:                                                                                                  #  **** RESTART WILL ALTER TEVENT ****
000967: 24,3241           00004                           INHINT
000968: 24,3242           04725        V97TRCS            TC       IBNKCALL                              #  RCS DAP IN 0.6SEC, SETTING T5 BITS TO
000969: 24,3243           45504                           CADR     RCSDAPON                              #        KILL TVCEXEC/TVCROLLDAP STARTS
000970: 24,3244           05375        V99T               TC       2PHSCHNG                              #  (ENTRY FROM V97T FLOW TOO)
000971: 24,3245           00006                           OCT      00006                                 #  KILL PRE40.6/CLOKTASK PROTECTION
000972: 24,3246           05024                           OCT      05024                                 #  C, PRIORITY NEXT, JOB BELOW
000973: 24,3247           50777                           OCT      50777                                 #  PRIO 27 NOVAC
000974: 24,3250           03012        V99TJOB            TCR      TVCZAP     -1                         #  WIPE OUT TVC, CLOKTASK
000975: 24,3251           00006        POST41             EXTEND
000976: 24,3252           33417                           DCA      SERVCADR
000977: 24,3253           53054                           DXCH     AVEGEXIT
000978: 24,3254           14103                           TCF      GOTOPOOH
000979:
000980: 24,3255  E6,1522                                  EBANK=   CSMMASS
000981: 24,3255           05415        V97P               TC       PHASCHNG
000982: 24,3256           00134                           OCT      00134                                 #  A, 4.13 = V97PJOB (PRIO 30 NOVAC)
000983: 24,3257  01,2146               4P13SPT1           =        4.13SPOT
000984:                                                                                                  #  IF RESTART, FORCE V97PJOB BEFORE CLOCKJOB
000985: 24,3257           33361        V97PJOB            CAF      V06N40                                #  REDISPLAY V06N40
000986: 24,3260           54772                           TS       NVWORD1
000987: 24,3261           07710                           TC       UPFLAG                                #  SET IDLEFAIL TO ALLOW R40-BYPASS, IN
000988: 24,3262           00030                           ADRES    IDLEFAIL                              #        CASE OF UNFAVORABLE STEERING SYNCH
000989: 24,3263           07710                           TC       UPFLAG                                #  SET STEERSW TO RE-ENABLE STEERING
000990: 24,3264           00042                           ADRES    STEERSW
000991: 24,3265           35032                           CAF      2SECS
000992: 24,3266           04647                           TC       BANKCALL
000993: 24,3267           01731                           CADR     DELAYJOB                              #  WAIT 2 SECONDS
000994:                                                                                                  #  **** RESTART CAN DOUBLE DELAY ****
000995:                                                                                                  #  **** RESTART WILL ALTER TEVENT ****
000996: 24,3270           07722        R40ENABL           TC       DOWNFLAG                              #  THEN RE-ENABLE R40 BY CLEARING IDLEFLAIL
000997: 24,3271           00030                           ADRES    IDLEFAIL
000998: 24,3272           05415                           TC       PHASCHNG
000999: 24,3273           00004                           OCT      00004                                 #  KILL GROUP 4
001000: 24,3274           15220        ENDV97P            TCF      ENDOFJOB
001001:
001002:
001003: 24,3275           33361        ENGREQST           CAF      V06N40
001004: 24,3276           04647                           TC       BANKCALL
001005: 24,3277           20607                           CADR     CLOCPLAY
001006: 24,3300           13244                           TCF      V99T                                  #  TERMINATE
001007: 24,3301           13337                           TCF      V99P                                  #  PROCEED
001008: 24,3302           05375        V99E               TC       2PHSCHNG                              #  ENTER
001009: 24,3303           00006                           OCT      00006                                 #  KILL PRE40.6/CLOKTASK PROTECTION
001010: 24,3304           05024                           OCT      05024                                 #  C, PRIORITY NEXT, JOB BELOW
001011: 24,3305           50777                           OCT      50777                                 #  PRIO 27 NOVAC
001012: 24,3306           03012        V99EJOB            TCR      TVCZAP     -1                         #  WIPE OUT TVC, CLOKTASK
001013: 24,3307           00006        P40RCS             EXTEND                                         #  V16N40 ENTERS HERE
001014: 24,3310           33421                           DCA      ACADN85
001015: 24,3311           53054                           DXCH     AVEGEXIT
001016: 24,3312           35032                           CAF      2SECS
001017: 24,3313           04647                           TC       BANKCALL
001018: 24,3314           01731                           CADR     DELAYJOB
001019: 24,3315           03034        P40MINDB           TCR      SETMINDB   -1
001020: 24,3316           00003                           RELINT
001021: 24,3317           05415        TIGNOW             TC       PHASCHNG
001022: 24,3320           05024                           OCT      05024                                 #  TYPE C GROUP 4 BELOW FOR NOUN 85
001023: 24,3321           57777                           OCT      57777                                 #  PRIO 20 NOVAC
001024: 24,3322           33360                           CAF      V16N85B
001025: 24,3323           04647                           TC       BANKCALL
001026: 24,3324           20576                           CADR     REFLASH
001027: 24,3325           13251                           TCF      POST41                                #  FINISH P40/41
001028: 24,3326           13330                           TCF      MNKPST41
001029: 24,3327           13317                           TCF      TIGNOW                                #  V32 NOT GSOP RESPONSE BUT REDISPLAY N85
001030:
001031: 24,3330           00006        MNKPST41           EXTEND
001032: 24,3331           33417                           DCA      SERVCADR
001033: 24,3332           53054                           DXCH     AVEGEXIT
001034: 24,3333           14105                           TCF      MNKGOPOO
001035:
001036: 24,3334           30772        NOFLASH            CAE      NVWORD1                               #  DISPLAY NVWORD1 NORMALLY
001037: 24,3335           04647                           TC       BANKCALL
001038: 24,3336           20601                           CADR     REGODSP
001039:
001040:    4000                                           SETLOC   FFTAG12
001041:    4000                                           BANK
001042:
001043:    4606                                           COUNT*   $$/R40
001044:    4606           35060        E7SETTER           CAF      EBANK7
001045:    4607           56003                           XCH      EBANK
001046:    4610  E7,1412                                  EBANK=   TIG
001047:    4610           00002                           TC       Q
001048:
001049:    4611           35057        E6SETTER           CAF      EBANK6                                #  SET UP EBANK6
001050:    4612           56003                           XCH      EBANK
001051:    4613  E6,1514                                  EBANK=   DAPDATR1
001052:    4613           00002                           TC       Q
001053:
001054: 24,2000                                           SETLOC   P40S
001055: 24,2000                                           BANK
001056:
001057: 24,3337                                           COUNT*   $$/R40
001058: 24,3337  E6,1514                                  EBANK=   DAPDATR1
001059: 24,3337           00004        V99P               INHINT
001060: 24,3340           30103                           CAE      FLAGWRD7                              #  CHECK ASTN FLAG FOR PRIOR V99P
001061: 24,3341           74766                           MASK     ASTNBIT
001062: 24,3342           10000                           CCS      A
001063: 24,3343           13354                           TCF      V99P/TIG                              #  YES, THIS MUST BE A RESTART ENTRY
001064:
001065: 24,3344           34766        ASTNV99P           CAF      ASTNBIT                               #  SET ASTNFLAG
001066: 24,3345           26103                           ADS      FLAGWRD7
001067: 24,3346           30103                           CAE      FLAGWRD7                              #  CHECK IGN FLAG FOR TIG-0 ARRIVAL
001068: 24,3347           74765                           MASK     IGNFLBIT
001069: 24,3350           00006                           EXTEND
001070: 24,3351           13354                           BZF      V99P/TIG                              #  NO, CLEAR THE V99 AND WAIT FOR TIG-0
001071:
001072: 24,3352           05235        ENDV99P1           TC       TWIDBIT1                              #  TIG-0 HAS COME ALREADY SET UP IGNTN HERE
001073: 24,3353           02463                           ADRES    IGNITION
001074: 24,3354           33361        V99P/TIG           CAF      V06N40                                #  CLEAR THE V99 FLASH AND WAIT FOR TIG-0
001075: 24,3355           54772                           TS       NVWORD1
001076: 24,3356           15220        ENDV99P            TCF      ENDOFJOB
001077:
001078: 24,3357                                           COUNT*   $$/P40
001079: 24,3357           01525        V06N85B            VN       0685
001080: 24,3360           04125        V16N85B            VN       1685
001081: 24,3361           01450        V06N40             VN       0640
001082: 24,3362           04050        V16N40             VN       1640
001083: 24,3363     4355               OCT12              =        TEN
001084: 24,3363           00204        P40CKLS2           OCT      204
001085: 24,3364     4626               OCT27/24           =        VBSP3LD
001086: 24,3364           02202        OCT02202           OCT      02202                                 #  BITS 2,8,11 FOR CHANNEL 12 TVC/OPTICS
001087:                                                                                                  # MINDB          DEC     46
001088: 24,3365           00707        MAXDB              DEC      455        B-14
001089: 24,3366           04700        SEC24.96           DEC      2496       B-14
001090: 24,3367           03410        18SEC              DEC      1800       B-14
001091: 24,3370           00000        5SECDP             DEC      0          B-14                       #  MAKE DP 5SEC
001092: 24,3371           00764        5SEC               DEC      500        B-14
001093: 24,3372           00372        SEC2.5             DEC      250        B-14
001094: 24,3373           03146        DEC.1              DEC      .1
001095: 24,3374           00000 05664  SEC29.96           2DEC     2996       B-28
001096: 24,3376           02217 06650  FENG               2DEC     9.1188544  B-7                        #  SPS THRUST (20500LBS), SC.AT B+7 NEWT/E4
001097:
001098: 24,3400           00013 06112  FRCS2              2DEC     .087437837 B-7                        #  RCS ULLAGE (199.6COS10 LBS), SC.AT
001099:                                                                                                  #        B+7 NEWTONS/E+4
001100: 24,3402           04000 00000  EP4(45)H           2DEC     .125
001101:
001102: 24,3404           00707 03434  EP4(10)H           2DEC     .027777777
001103:
001104: 24,3406           21215 12215  TRIMSCAL           2DEC     1.07975111 B-1
001105:
001106: 24,3410           00053 07423  YBIAS              2DEC     +.00263888889                            #  YAW   MECH BIAS (+0.95 DEG, THRUST ON)
001107:
001108: 24,3412           77636 44653  PBIAS              2DEC     -.00597222222                            #  PITCH MECH BIAS (-2.15 DEG, THRUST ON)
001109:
001110:                                                                                                  #  REFERENCE, TRW 68.6520.3.3-40 27FEB,1968
001111: 24,3414  E6,1514                                  EBANK=   DAPDATR1
001112: 24,3414           03132 12066  T5IDL24            2CADR    T5IDLOC
001113:
001114: 24,3416  E7,1412                                  EBANK=   TIG
001115: 24,3416           03033 76067  SERVCADR           2CADR    SERVEXIT
001116:
001117: 24,3420  E6,1514                                  EBANK=   DAPDATR1
001118: 24,3420           03720 50066  ACADN85            2CADR    CALCN85
001119:
001120: 24,3422  E6,1514                                  EBANK=   DAPDATR1
001121: 24,3422           02131 34066  S40.8ADS           2CADR    S40.8
001122:
001123: 24,3424  E6,1514                                  EBANK=   DAPDATR1
001124: 24,3424           02221 36066  TVCON2C            2CADR    TVCDAPON
001125:
001126: 31,2000                                           SETLOC   P40S4
001127: 31,2000                                           BANK
001128: 31,2574                                           COUNT*   $$/P40
001129: 31,2574           45020        AGAIN              STQ      CALL
001130: 31,2575           03702                                    QTEMP1
001131: 31,2576           11400                                    THISPREC
001132: 31,2577           40375                           VLOAD    SETPD
001133: 31,2600           00001                                    RATT
001134: 31,2601           00001                                    00D
001135: 31,2602           03610                           STORE    RTIG
001136: 31,2603           27546                           STOVL    RINIT
001137: 31,2604           00007                                    VATT
001138: 31,2605           03616                           STORE    VTIG
001139: 31,2606           03554                           STORE    VINIT
001140: 31,2607           65335                           SLOAD    PDDL
001141: 31,2610           15204                                    HI6ZEROS
001142: 31,2611           11403                                    EP4(45)H
001143: 31,2612           71214                           BON      DLOAD
001144: 31,2613           03705                                    NORMSW
001145: 31,2614           62616                                    +2
001146: 31,2615           11405                                    EP4(10)H
001147: 31,2616           45006                           PUSH     CALL
001148: 31,2617           22000                                    INITVEL
001149: 31,2620           52001                           SETPD    GOTO
001150: 31,2621           00001                                    0
001151: 31,2622           03702                                    QTEMP1
001152:
001153: 31,2623           46145        TSTRXUT            DLOAD    BHIZ
001154: 31,2624           00045                                    36D
001155: 31,2625           62630                                    BADVCTOR
001156: 31,2626           43575                           VLOAD    RVQ
001157: 31,2627           00007                                    6D
001158: 31,2630           53575        BADVCTOR           VLOAD    UNIT
001159: 31,2631           03610                                    RTIG
001160: 31,2632           53515                           PDVL     UNIT
001161: 31,2633           03616                                    VTIG
001162: 31,2634           53322                           VSR3     VAD
001163: 31,2635           53435                           VXV      UNIT
001164: 31,2636           03673                                    UT
001165: 31,2637           77676                           VCOMP
001166: 31,2640           00007                           STORE    6D
001167: 31,2641           77616                           RVQ
001168:
001169: 24,2000                                           SETLOC   P40S
001170: 24,2000                                           BANK
001171: 24,3426                                           COUNT*   $$/P40
001172:
001173: 24,3426           67214        SETUP.9            BON      SLOAD
001174: 24,3427           01310                                    FIRSTFLG
001175: 24,3430           51443                                    SURELY.9
001176: 24,3431           03355                                    NBRCYCLP
001177: 24,3432           74301                           NORM     VXSC                                  #  (NORM HANDLES ZERO PROPERLY)
001178: 24,3433           00047                                    X1
001179: 24,3434           03665                                    BDT
001180: 24,3435           53257                           VSR*     VAD
001181: 24,3436           20563                                    0          -14D,1
001182: 24,3437           03624                                    VGTEMP
001183: 24,3440           77651                           VSU
001184: 24,3441           03356                                    DELVSUM
001185: 24,3442           03772                           STORE    VGPREV
001186: 24,3443           77776        SURELY.9           EXIT
001187: 24,3444           34765                           CAF      PRIO10
001188: 24,3445           05150                           TC       FINDVAC
001189: 24,3446  E6,1514                                  EBANK=   DAPDATR1
001190: 24,3446           02333 34066                     2CADR    S40.9
001191:
001192: 24,3450           05375                           TC       2PHSCHNG
001193: 24,3451           00051                           OCT      00051                                 #  A, 1.5 = REDO40.9, PRIO 10
001194: 24,3452           10035                           OCT      10035
001195: 24,3453  01,2017               1P5SPT1            =        1.5SPOT
001196: 24,3453  01,2253               5P3SPT3            =        5.3SPOT
001197: 24,3453           06006                           TC       INTPRET
001198: 24,3454           77775                           VLOAD
001199: 24,3455           01022                                    RN                                    #  ACTIVE VEHICLE RADIUS VECTOR AT T1
001200: 24,3456           27546                           STOVL    RINIT
001201: 24,3457           01030                                    VN                                    #  ACTIVE VEHICLE VELOCITY VECTOR AT T1
001202: 24,3460           17554                           STODL    VINIT
001203: 24,3461           01036                                    PIPTIME
001204: 24,3462           03506                           STORE    TNIT
001205: 24,3463           77621                           BDSU
001206: 24,3464           03634                                    TPASS4
001207: 24,3465           27423                           STOVL    DELLT4
001208: 24,3466           15204                                    HI6ZEROS
001209: 24,3467           17356                           STODL    DELVSUM
001210: 24,3470           15204                                    HI6ZEROS
001211: 24,3471           03354                           STORE    NBRCYCLS
001212: 24,3472           77650                           GOTO
001213: 24,3473           34313                                    VGCOMP
001214:
001215:                                                                                                  #  NAME          S40.6 GIMBAL DRIVE TEST AND/OR GIMBAL TRIM
001216:
001217:                                                                                                  #  FUNCTIONAL DESCRIPTION
001218:                                                                                                  #        GIMBAL DRIVE TEST....0,+2,-2,0 DEGREE ENGINE COMMANDS, AT 2 SECOND
001219:                                                                                                  #                INTERVALS, FIRST IN PITCH, THEN IN YAW. ASTRONAUT VERIFICATION
001220:                                                                                                  #                OF GIMBAL MOTION ON GPI
001221:                                                                                                  #        GIMBAL TRIM....AFTER A 4 SECOND DELAY, ENGINE COMMANDED TO
001222:                                                                                                  #                PRE-COMPUTED TRIM POSITION. ASTRONAUT VERIFICATION ON GPI.
001223:                                                                                                  #        PRE40.6....RESTART ENTRY TO RE-DO S40.6, ONLY IF RCS IS ON - IF TVC
001224:                                                                                                  #                IS NOT ON - PRIMARILY TO GET ACTUATORS TRIMMED FOR IGNITION.
001225:                                                                                                  #                BYPASS 4 SEC DELAY. SPEED IS CRITICAL NEAR IGNITION.
001226:                                                                                                  #                IF TVC IS ON (TVCDAPON OR LATER)  THEN REDOTVC WILL TAKE CARE
001227:                                                                                                  #                OF RESTARTING ACTUATORS.
001228:
001229:                                                                                                  #  CALLING SEQUENCE....
001230:                                                                                                  #        WAITLIST, WITH 2CADR FOR S40.6 (OR PRE40.6), WITH EBANK= CNTR
001231:
001232:                                                                                                  #  NORMAL EXIT MODE - FIXDELAY, TASKOVER
001233:
001234:                                                                                                  #  SUBROUTINES CALLED....
001235:                                                                                                  #        FIXDELAY
001236:
001237:                                                                                                  #  ERASEABLE INITIALIZATION REQUIRED
001238:                                                                                                  #        CNTR = +0, NORMALLY SET BY THE P40 CALL AT TST,TRIM
001239:                                                                                                  #        MRKRTMP...POSITIVE FOR GIMBAL DRIVE TEST AND GIMBAL TRIM (BOTH)
001240:                                                                                                  #                   NEGATIVE FOR GIMBAL TRIM ONLY
001241:                                                                                                  #        PACTOFF, YACTOFF SC.AT 85.41 ARCSEC/BIT (V48N48 P,YTRIM)
001242:                                                                                                  #        ..SC CONT.. SWITCH AT ..CMC.. (A/P CONTROL SWITCH AT ..GNC..)
001243:                                                                                                  #        ACTIVE SPS GIMBAL MOTOR POWER(S), PITCH, YAW
001244:
001245:                                                                                                  #  OUTPUT
001246:                                                                                                  #        TVCYAW, TVCPITCH (BITS RELEASED)
001247:                                                                                                  #        TVC ENABLE  AND  OPTICS ERROR COUNTER ENABLE
001248:
001249: 20,2000                                           SETLOC   DAPS6
001250: 20,2000                                           BANK
001251: 20,2312  E6,1453                                  EBANK=   CNTR
001252: 20,2312                                           COUNT*   $$/S40.6
001253: 20,2312           40102        PRE40.6            CS       FLAGWRD6                              #  RESTART ENTRY TO S40.6 (DO NOT PERMIT
001254: 20,2313           74076                           MASK     DPCONFIG                              #  IF TVC, BITS 15,14 = 1,0)
001255: 20,2314           00006                           EXTEND
001256: 20,2315           62317                           BZMF     +2
001257: 20,2316           15327                           TCF      TASKOVER                              #  TVC, REDOTVC WILL REESTABLISH INTERFACE
001258: 20,2317           45001                           CS       BIT1                                  #  RCS, SO DO S40.6, GIMTRIM ONLY
001259: 20,2320           55451                           TS       MRKRTMP
001260: 20,2321           35001                           CAF      BIT1                                  #  FOR REVISED S40.6 TIMING FOR RESTARTS...
001261: 20,2322           55453                           TS       CNTR                                  #  TO INDICATE A RESTART ENTRY (CNTR 1S
001262:                                                                                                  #        NORMALLY +0, BY S40.6)
001263: 20,2323  E6,1453                                  EBANK=   CNTR
001264: 20,2323           45003        S40.6              CS       ZERO                                  #  INHIBIT OPTICS ACTIVITY
001265: 20,2324           55313                           TS       OPTIND
001266: 20,2325           45000                           CS       BIT2                                  #  DISABLE OPTICS ERROR COUNTERS
001267: 20,2326           00006                           EXTEND
001268: 20,2327           03012                           WAND     CHAN12
001269:
001270: 20,2330           32415                           CAF      OCT02200                              #  TVC ENABLE (SPS SERVO AMPS SEE DAC
001271: 20,2331           00006                           EXTEND                                         #        VOLTAGES) AND DISENGAGE OPTICS/DAC
001272: 20,2332           05012                           WOR      CHAN12
001273: 20,2333           05270                           TC       FIXDELAY                              #  60MS PROCEDURAL DELAY (40MS MINIMUM) FOR
001274: 20,2334           00006                           DEC      6          B-14                       #        RELAY LATCHING
001275: 20,2335           35000                           CAF      BIT2                                  #  ENABLE OPTICS ERROR COUNTERS
001276: 20,2336           00006                           EXTEND
001277: 20,2337           05012                           WOR      CHAN12
001278: 20,2340           05270                           TC       FIXDELAY                              #  20MS PROCEDURAL DELAY (4MS MINIMUM) FOR
001279: 20,2341           00002                           DEC      2          B-14                       #        RELAY LATCHING
001280: 20,2342           11453        RSTRTST            CCS      CNTR                                  #  CHECK FOR RESTART ENTRY (PRE40.6)
001281: 20,2343           12403                           TCF      GIMTRIM    +2                         #  RESTART ENTRY....BYPASS 4 SECOND DELAY
001282:                                                                                                  #        TST,TRIM SETS +0 ON NORMAL ENTRY
001283: 20,2344           31451                           CAE      MRKRTMP                               #  CHECK FOR TEST/TRIM OR TRIM ONLY
001284: 20,2345           55453                           TS       CNTR                                  #        MRKRTMP SAVES CNTR FOR RESTARTS
001285: 20,2346           00006                           EXTEND
001286: 20,2347           62401                           BZMF     GIMTRIM                               #  (TRIM ONLY)
001287: 20,2350           45003        GDTSETUP           CS       ZERO                                  #  GIMBAL DRIVE TEST SETUP, FOR PITCH
001288: 20,2351           55453                           TS       CNTR
001289: 20,2352           32417        GIMDTEST           CAF      +2ACTDEG                              #  GIMBAL DRIVE TEST, 1ST INCREMENT
001290: 20,2353           02366                           TC       OUTPUT                                #        (LEAVES GIMBAL AT +2 DEG)
001291: 20,2354           32416                           CAF      -4ACTDEG                              #  2ND INCREMENT (LEAVES GIMBAL AT -2)
001292: 20,2355           02366                           TC       OUTPUT
001293: 20,2356           32417                           CAF      +2ACTDEG                              #  3RD INCREMENT (LEAVES GIMBAL AT -0)
001294: 20,2357           02366                           TC       OUTPUT
001295: 20,2360           41453                           CS       CNTR                                  #  CHECK FOR COMPLETION OF YAW TEST
001296: 20,2361           10000                           CCS      A
001297: 20,2362           12401                           TCF      GIMTRIM                               #  COMPLETED, GO TO GIMBAL TRIM ROUTINE
001298: 20,2363           45001                           CS       BIT1                                  #  SET UP YAW TEST
001299: 20,2364           55453                           TS       CNTR
001300: 20,2365           12352                           TCF      GIMDTEST                              #  FOR YAW TEST
001301: 20,2366           00006        OUTPUT             EXTEND                                         #  OUTPUT THE INCREMENT....SAVE Q
001302: 20,2367           22777                           QXCH     TEMPR60
001303: 20,2370           51453                           INDEX    CNTR
001304: 20,2371           54054                           TS       TVCPITCH
001305: 20,2372           51453                           INDEX    CNTR
001306: 20,2373           34767                           CAF      BIT11
001307: 20,2374           00006                           EXTEND
001308: 20,2375           05014                           WOR      CHAN14
001309: 20,2376           05270                           TC       FIXDELAY                              #  WAIT 2SEC, WHILE ASTRONAUT VERIFIES
001310: 20,2377           00310                           DEC      200        B-14                       #        GIMBAL MOTION ON GPI
001311: 20,2400           00777                           TC       TEMPR60
001312: 20,2401           05270        GIMTRIM            TC       FIXDELAY                              #  WAIT 4 SECONDS BEFORE GIMBAL TRIM
001313: 20,2402           00620                           DEC      400        B-14
001314: 20,2403           45003                 +2        CS       ZERO                                  #  PICK UP TRIM VALUES AND OUTPUT THEM
001315: 20,2404           61410                           AD       PACTOFF                               #        (AVOID +0) ENTRY POINT FROM RSTRTST
001316: 20,2405           54054                           TS       TVCPITCH                              #        ON A RESTART, TO AVOID 4SEC DELAY
001317: 20,2406           45003                           CS       ZERO
001318: 20,2407           61411                           AD       YACTOFF
001319: 20,2410           54053                           TS       TVCYAW
001320: 20,2411           35062                           CAF      PRIO6                                 #  RELEASE THE COUNTERS, BITS 11,12
001321: 20,2412           00006                           EXTEND
001322: 20,2413           05014                           WOR      CHAN14
001323: 20,2414           15327        ENDS40.6           TCF      TASKOVER
001324:
001325: 20,2415           02200        OCT02200           OCT      02200                                 #  BITS 8,11 FOR CHANNEL 12 TVC/OPTICS
001326: 20,2416           77527        -4ACTDEG           DEC      -168       B-14                       #  -2(+2ACTDEG), WHOLE BITS, NO ROUNDUP
001327: 20,2417           00124        +2ACTDEG           DEC      +84        B-14                       #  +2 DEG, SC.AT 85.41 ARCSEC/BIT (+84D)
001328:
001329:
001330: 27,2000                                           SETLOC   P40S5
001331: 27,2000                                           BANK
001332: 27,2746                                           COUNT*   $$/S41.1
001333: 27,2746           45020        S41.1              STQ      CALL
001334: 27,2747           03635                                    QTEMP
001335: 27,2750           47471                                    CDUTRIG
001336: 27,2751           77775                           VLOAD
001337: 27,2752           45121                           MXV      CALL
001338: 27,2753           01720                                    REFSMMAT
001339: 27,2754           47623                                    *SMNB*
001340: 27,2755           74321                           MXV      VXSC
001341: 27,2756           05057                                    QUADROT
001342: 27,2757           16763                                    TENBNK14                              #  VG IN CONTROL COORD IN MPAC SCALED AT
001343: 27,2760           52072                           VSL5     GOTO                                  #  VG IN CONTROL COORDS. IN MPAC AT 2(+7)
001344: 27,2761           03635                                    QTEMP
001345: 27,2762           24000 00000  TENBNK14           2DEC     10.        B-4
001346:
001347: 27,2764           00024 13714  THETACON           2DEC     .31830989  B-8
001348:
001349:
001350:                                                                                                  #  CALLED BY ..DONOUN46.. (VERB 48), OR DIRECTLY BY ..FRESHDAP.. (RCS DAP)
001351:
001352: 20,2000                                           SETLOC   DAPS6
001353: 20,2000                                           BANK                                           #  VIA IBNKCALL
001354: 20,2420                                           COUNT*   $$/S41.2
001355: 20,2420           31514        S41.2              CA       DAPDATR1
001356: 20,2421           76214                           MASK     THREE
001357: 20,2422           60000                           AD       A
001358: 20,2423           54767                           TS       RATEINDX
001359: 20,2424           00004                           INHINT
001360: 20,2425           31514                           CAE      DAPDATR1                              #  IS LEM ATTACHED (BITS 14,13 OF DAPDATR1
001361: 20,2426           74346                           MASK     PRIO30                                #                        =10)
001362: 20,2427           64762                           AD       -BIT14                                #  (OCT57777)
001363: 20,2430           00006                           EXTEND
001364: 20,2431           12436                           BZF      TOGETHER                              #  YES
001365: 20,2432           45000                           CS       ATTCHBIT                              #  NO, UNSET FLAG
001366: 20,2433           70103                           MASK     FLAGWRD7
001367: 20,2434           54103                           TS       FLAGWRD7
001368: 20,2435           12441                           TCF      +4
001369: 20,2436           40103        TOGETHER           CS       FLAGWRD7                              #  ATTACHED, SET FLAG FOR INTEGRATION
001370: 20,2437           75000                           MASK     ATTCHBIT
001371: 20,2440           26103                           ADS      FLAGWRD7
001372: 20,2441           00003                           RELINT
001373: 20,2442           31514                           CA       DAPDATR1
001374: 20,2443           74776                           MASK     BIT4
001375: 20,2444           00006                           EXTEND
001376: 20,2445           62447                           BZMF     +2                                    #  DEC 46 MEANS NARROW DB
001377: 20,2446           32547                           CA       DEC409
001378: 20,2447           62550                           AD       DEC46                                 #  DEC 455 MEANS WIDE DB
001379: 20,2450           55706                           TS       ADB
001380: 20,2451           31514                           CA       DAPDATR1
001381: 20,2452           74773                           MASK     BIT7                                  #  QUAD BD
001382: 20,2453           00006                           EXTEND
001383: 20,2454           62456                           BZMF     +2
001384: 20,2455           35001                           CA       ONE
001385: 20,2456           55662                           TS       XTRANS
001386: 20,2457           31514                           CA       DAPDATR1
001387: 20,2460           74770                           MASK     BIT10                                 #  QUAD AC
001388: 20,2461           00006                           EXTEND
001389: 20,2462           62464                           BZMF     +2
001390: 20,2463           45001                           CS       ONE
001391: 20,2464           27662                           ADS      XTRANS
001392: 20,2465           00004                           INHINT
001393: 20,2466           00006                           EXTEND
001394: 20,2467           12474                           BZF      +5                                    #  CLEAR NJETSFLG (4 JETS, OR NO JETS)
001395: 20,2470           40075                           CS       FLAGWRD1                              #  SET NJETSFLG   (2 JETS, AC OR BD QUADS)
001396: 20,2471           74763                           MASK     NJETSBIT                              #  NJETSFLG=1 FOR 2 JET ULLAGE (AC OR BD)
001397: 20,2472           26075                           ADS      FLAGWRD1
001398: 20,2473           12477                           TCF      +4
001399: 20,2474           44763                           CS       NJETSBIT                              #  NJETSFLG=0 FOR 4 JET (OR 0 JET) ULLAGE
001400: 20,2475           70075                           MASK     FLAGWRD1
001401: 20,2476           54075                           TS       FLAGWRD1
001402: 20,2477           00003                           RELINT
001403: 20,2500           31515                           CA       DAPDATR2
001404: 20,2501           74765                           MASK     BIT13
001405: 20,2502           00006                           EXTEND
001406: 20,2503           62505                           BZMF     +2
001407: 20,2504           12506                           TCF      +2
001408: 20,2505           45001                           CS       ONE
001409: 20,2506           40000                           COM
001410: 20,2507           55661                           TS       ACORBD                                #  MINUS FOR A-C, PLUS FOR B-D
001411: 20,2510           31515                           CA       DAPDATR2
001412: 20,2511           74770                           MASK     BIT10
001413: 20,2512           10000                           CCS      A
001414: 20,2513           12517                           TCF      +4
001415: 20,2514           35001                           CA       ONE
001416: 20,2515           55657                           TS       RACFAIL
001417: 20,2516           12527                           TCF      BDFAIL
001418: 20,2517           35003                           CA       ZERO
001419: 20,2520           55657                           TS       RACFAIL
001420: 20,2521           31515                           CA       DAPDATR2
001421: 20,2522           74776                           MASK     BIT4
001422: 20,2523           10000                           CCS      A
001423: 20,2524           12527                           TCF      BDFAIL
001424: 20,2525           45001                           CS       ONE
001425: 20,2526           55657                           TS       RACFAIL
001426: 20,2527           31515        BDFAIL             CA       DAPDATR2
001427: 20,2530           74773                           MASK     BIT7
001428: 20,2531           10000                           CCS      A
001429: 20,2532           12536                           TCF      +4
001430: 20,2533           35001                           CA       ONE
001431: 20,2534           55660                           TS       RBDFAIL
001432: 20,2535           00002                           TC       Q
001433: 20,2536           35003                           CA       ZERO
001434: 20,2537           55660                           TS       RBDFAIL
001435: 20,2540           31515                           CA       DAPDATR2
001436: 20,2541           75001                           MASK     BIT1
001437: 20,2542           10000                           CCS      A
001438: 20,2543           00002                           TC       Q
001439: 20,2544           45001                           CS       ONE
001440: 20,2545           55660                           TS       RBDFAIL
001441: 20,2546           00002                           TC       Q
001442:
001443: 16,2000                                           SETLOC   P40S1
001444: 16,2000                                           BANK
001445: 16,2020  E6,1753                                  EBANK=   NBRCYCLS
001446: 16,2020                                           COUNT*   $$/S40.1
001447: 16,2020           45345        S40.1B             DLOAD    DSU                                   #  LAMBERT
001448: 16,2021           03413                                    TIG
001449: 16,2022           34460                                    TWODT
001450: 16,2023           14041                           STODL    TDEC1
001451: 16,2024           03634                                    TPASS4
001452: 16,2025           77625                           DSU
001453: 16,2026           00041                                    TDEC1
001454: 16,2027           37423                           STCALL   DELLT4
001455: 16,2030           62574                                    AGAIN
001456: 16,2031           77775                           VLOAD
001457: 16,2032           03570                                    VIPRIME
001458: 16,2033           17673                           STODL    UT
001459: 16,2034           03413                                    TIG
001460: 16,2035           00041                           STORE    TDEC1
001461: 16,2036           77621                           BDSU
001462: 16,2037           03634                                    TPASS4
001463: 16,2040           37423                           STCALL   DELLT4
001464: 16,2041           62574                                    AGAIN
001465: 16,2042           41575                           VLOAD    PUSH
001466: 16,2043           03624                                    DELVEET3
001467: 16,2044           37772                           STCALL   VGTIG
001468: 16,2045           11151                                    GET.LVC
001469: 16,2046           77601                           SETPD
001470: 16,2047           00001                                    00D
001471: 16,2050           45175        CALCUT             VLOAD    CALL
001472: 16,2051           03610                                    RTIG
001473: 16,2052           77160                                    CALCGRAV                              #  GDELTAT IN MPAC AT 2(+7) M/CS
001474: 16,2053           70372                           VSL1     V/SC
001475: 16,2054           34452                                    200CS                                 #  G AT 2(-5) M/CS.CS
001476: 16,2055           52315                           PDVL     VSU
001477: 16,2056           03570                                    VIPRIME
001478: 16,2057           03673                                    UT
001479: 16,2060           52341                           V/SC     VSU
001480: 16,2061           34452                                    200CS
001481: 16,2062           72561                           VXSC     VSL2
001482: 16,2063           03663                                    CSTEER
001483: 16,2064           24015                           STOVL    12D                                   #  B.C SCALED AT 2(-5) PDL 12D
001484: 16,2065           03772                                    VGTIG
001485: 16,2066           41456                           UNIT     PUSH                                  #  UG PDL 0 SCALED AT 2(+1)
001486: 16,2067           74241                           DOT      VXSC
001487: 16,2070           00015                                    12D
001488: 16,2071           00001                                    0
001489: 16,2072           51352                           VSL2     BVSU
001490: 16,2073           00015                                    12D
001491: 16,2074           14015                           STODL    12D                                   #  Q PDL 12D SCALED AT 2(-5)
001492: 16,2075           03701                                    F
001493: 16,2076           56261                           SRR      DDV
001494: 16,2077           21605                                    4
001495: 16,2100           03125                                    WEIGHT/G
001496: 16,2101           63316                           DSQ      PDVL                                  #  F/MASS SQUARED PDL 6 AT 2(-10)M/(CS.CS)
001497: 16,2102           00015                                    12D
001498: 16,2103           77636                           VSQ
001499: 16,2104           75421                           BDSU     SQRT
001500: 16,2105           76561                           VXSC     VSL1
001501: 16,2106           53455                           VAD      UNIT
001502: 16,2107           00015                                    12D
001503: 16,2110           37673                           STCALL   UT
001504: 16,2111           50134                                    S40.2,3                               #  **** NO RETURN **** SAME AS GOTO S40.2,3
001505:
001506: 16,2112                                           COUNT*   $$/S40.2
001507: 16,2112           77775        S40.2,3B           VLOAD
001508: 16,2113           15724                                    XUNIT
001509: 16,2114           27354                           STOVL    SCAXIS
001510: 16,2115           03673                                    UT
001511: 16,2116           00307                           STORE    XSCREF
001512: 16,2117           53435                           VXV      UNIT
001513: 16,2120           03610                                    RTIG
001514: 16,2121           34007                           STCALL   6D
001515: 16,2122           62623                                    TSTRXUT
001516: 16,2123           00315                           STORE    YSCREF
001517: 16,2124           57435                           VXV      VCOMP
001518: 16,2125           00307                                    XSCREF
001519: 16,2126           77772                           VSL1
001520: 16,2127           34323                           STCALL   ZSCREF                                #  ZNB AXIS IN REF COOR
001521: 16,2130           50247                                    P40SXTY                               #  **** NO RETURN **** SAME AS GOTO P40SXTY
001522:
001523:
001524:                                                                                                  #  NAME          S40.8 - CROSS PRODUCT STEERING
001525:                                                                                                  #  FUNCTION      (1) UPDATES THE VELOCITY-TO-BE-GAINED VECTOR.
001526:                                                                                                  #                (2) GENERATES ANGULAR RATE STEERING COMMANDS FOR AUTOPILOT.
001527:                                                                                                  #                (3) ESTABLISHES ENGINE CUT-OFF SIGNALS AT APPROPRIATE TIMES.
001528:                                                                                                  #                (4) INITIATES THRUST-FAIL ROUTINE, R40
001529:                                                                                                  #                (5) UPDATES CSMMASS
001530:
001531:                                                                                                  #  INPUT         VGPREV  - LAST VALUE OF THE VELOCITY-TO-BE-GAINED VECTOR
001532:                                                                                                  #                          PRIOR TO UPDATING IN METERS/CS AT +7.
001533:                                                                                                  #                DELVREF - CHANGE IN VEHICLE VELOCITY SINCE LAST MEASUMEMENT
001534:                                                                                                  #                          IN METERS/CS AT +7.
001535:                                                                                                  #                BDT     - EFFECT OF RATE OF CHANGE OF REQUIRED VELOCITY AND
001536:                                                                                                  #                          GRAVITY DURING DT UPON VELOCITY-TO-BE-GAINED IN
001537:                                                                                                  #                          METERS/CS AT +7.
001538:                                                                                                  #                CSTEER  - A SCALAR OF THE STEERING LAW, SC.AT B+1, USED FOR
001539:                                                                                                  #                          SPS AIMPOINT STEERING MANEUVERS
001540:                                                                                                  #                IDLEFAIL- A FLAG TO INHIBIT (IDLE) THE THRUST-FAIL ROUTINE
001541:                                                                                                  #                STEERSW - A SWITCH TO PRECLUDE NEEDLESS CONDUCT OF STEERING
001542:                                                                                                  #                REFSMMAT, DAPDATR1, PIPTIME
001543:                                                                                                  #                EREPFRAC, ETDECAY, KPRIMEDT FOR TVC
001544:
001545:                                                                                                  #  OUTPUT        TTOGO   - TIME REMAINING FOR ENGINE BURN IN CS AT +28
001546:                                                                                                  #                OMEGAC  - DP VECTOR RATE COMMAND, SC.AT 1/(2TVCDT) REVS/SEC
001547:                                                                                                  #                VG, VGPREV, VGDISP, TGO, TIG, SCALED AS NOTED IN CODING
001548:                                                                                                  #                STEERSW, IMPULSW, NVWORD1
001549:                                                                                                  #                REPFRAC, CNTR, VCNTR, VCNTRTMP FOR TVC (R40 INTERFACING)
001550:
001551:                                                                                                  #  SUBROUTINES USED      - *SMNB*, ALARM
001552:
001553: 16,2131  E6,1514                                  EBANK=   DAPDATR1
001554: 16,2131                                           COUNT*   $$/S40.8
001555: 16,2131           06006        S40.8              TC       INTPRET
001556: 16,2132           45001                           SETPD    CALL
001557: 16,2133           00001                                    00D
001558: 16,2134           34264                                    UPDATEVG
001559: 16,2135           77745                           DLOAD
001560: 16,2136           03123                                    CSMMASS                               #                                KG      B-16
001561: 16,2137           03364                           STORE    MASSTMP
001562: 16,2140           77776                           EXIT
001563: 16,2141           05415                           TC       PHASCHNG
001564: 16,2142           10035                           OCT      10035                                 #  TYPE B RESTART BELOW AND 5.3 REREADAC
001565: 16,2143  01,2253               5P3SPT4            =        5.3SPOT
001566: 16,2143           06006                           TC       INTPRET
001567: 16,2144           51575                           VLOAD    ABVAL
001568: 16,2145           03432                                    DELVREF                               #  DELTA V                       M/CS    B-7
001569: 16,2146           67206                           PUSH     SLOAD                                 #  00D = DELTA V MAG             M/CS    B-7
001570: 16,2147           01755                                    DVTHRESH                              #                                M/CS    B+2
001571: 16,2150           44205                           DMP      BDSU
001572: 16,2151           34462                                    DPB-9                                 #  DVTHRESH                      M/CS    B-7
001573: 16,2152           67240        LOCHECK            BMN      SLOAD
001574: 16,2153           50775                                    LOTHRUST                              #  ** MAYBE THRUST BAD **
001575:                                                                                                  #  THRUST GOOD : UPDATE CSMMASS
001576: 16,2154           01742                                    EMDOT                                 #  FLOW RATE                     KG/CS   B-3
001577: 16,2155           44205                           DMP      BDSU
001578: 16,2156           34457                                    FOURSEC    +1                         #  20D B-13 : MPAC = 2 SECS MASS LOSS
001579: 16,2157           03364                                    MASSTMP
001580: 16,2160           03123        UPD8MASS           STORE    CSMMASS                               #  CSMMASS UPDATED FOR LAST 2 SECS
001581: 16,2161           77614                           BOFF
001582: 16,2162           01344                                    STEERSW                               #  NO STEERING :
001583: 16,2163           51725                                    SERVXT1                               #  BYPASS TGOCALC AND X-PRODUT
001584: 16,2164           77414        CGTRACK            BON      EXIT                                  #  ENABLE TVCDAP CG TRACKING
001585: 16,2165           04700                                    SWTOVER
001586: 16,2166           34260                                    FREPSET                               #  V46 SWITCHOVER HAS OCCURRED (CSM/LM)
001587: 16,2167           31514                           CAE      DAPDATR1                              #  ENABLE TVCDAP CG TRACKING
001588: 16,2170           74764                           MASK     BIT14
001589: 16,2171           10000                           CCS      A
001590: 16,2172           35001                           CAF      BIT1
001591: 16,2173           50000                           INDEX    A                                     #  LM-OFF, LM-ON VALUE
001592: 16,2174           31406                           CAE      EREPFRAC
001593: 16,2175           55662        REPFRACS           TS       REPFRAC
001594:
001595: 16,2176           06006                           TC       INTPRET
001596: 16,2177           51375        TGOCALC            VLOAD    BVSU                                  #  GET DELVG
001597: 16,2200           03432                                    DELVREF
001598: 16,2201           03665                                    BDT
001599: 16,2202           77656                           UNIT
001600: 16,2203           41441                           DOT      PUSH                                  #  (00D)
001601: 16,2204           03472                                    VG
001602: 16,2205           56244                           BPL      DDV                                   #  ANGLE SHOULD BE GREATER THAN PI/2
001603: 16,2206           50771                                    INCRSVG                               #        DISPLAY ALARM IF NOT
001604: 16,2207           34621                                    2VEXHUST
001605: 16,2210           41215                           DAD      DMP                                   #  (DOT PRODUCT UP FROM 00D)
001606: 16,2211           15724                                    LODPHALF
001607: 16,2212           70501                           NORM     SR1
001608: 16,2213           00047                                    X1
001609: 16,2214           60325                           PDDL     NORM
001610: 16,2215           00045                                    36D                                   #  (MAG DELVG)
001611: 16,2216           00050                                    X2
001612: 16,2217           77665                           BDDV
001613: 16,2220           53664                           XSU,2    SL*
001614: 16,2221           00046                                    X1
001615: 16,2222           57607                                    0          -9D,2
001616: 16,2223           41405                           DMP      PUSH                                  #  (00D)
001617: 16,2224           34454                                    -FOURDT
001618: 16,2225           54335                           SLOAD    SR
001619: 16,2226           03001                                    ETDECAY                               #  ETDECAY SC.AT B+14 CS
001620: 16,2227           20617                                    14D
001621: 16,2230           45421                           BDSU     STADR
001622: 16,2231           74347                           STORE    TGO                                   #  TIME TO GO IN CS. AT +28
001623: 16,2232           77615                           DAD
001624: 16,2233           01036                                    PIPTIME
001625: 16,2234           17413                           STODL    TIG
001626: 16,2235           03430                                    TGO
001627: 16,2236           50025                           DSU      BMN
001628: 16,2237           34456                                    FOURSEC
001629: 16,2240           50734                                    S40.81
001630:
001631: 16,2241           74375        XPRODUCT           VLOAD    VXSC
001632: 16,2242           03665        STEERING                    BDT
001633: 16,2243           03663                                    CSTEER
001634: 16,2244           52352                           VSL2     VSU
001635: 16,2245           03432                                    DELVREF
001636: 16,2246           63256                           UNIT     PDVL
001637: 16,2247           03472                                    VG
001638: 16,2250           47256                           UNIT     VXV
001639: 16,2251           45121                           MXV      CALL
001640: 16,2252           01720                                    REFSMMAT                              #  (REFSMMAT/2)
001641: 16,2253           47623                                    *SMNB*
001642: 16,2254           77761                           VXSC
001643: 16,2255           03256                                    KPRIMEDT                              #  (KPRIMEDT SCIAT PI/8 RAD)
001644: 16,2256           37155        OMEGACLC           STCALL   OMEGAC
001645: 16,2257           51725                                    SERVXT1
001646: 16,2260           77545        FREPSET            DLOAD    EXIT                                  #  POST-SQITCHOVER CSM/LM.  LOAD FROM LOW-
001647: 16,2261           36572                                    FREPFRAC                              #        BANDWIDTH PARAMETER IN FIXED MEMORY
001648: 16,2262           30154                           CAE      MPAC
001649: 16,2263           12175                           TCF      REPFRACS
001650:
001651:
001652: 16,2264           43020        UPDATEVG           STQ      BON
001653: 16,2265           03376                                    R61CNTR
001654: 16,2266           01307                                    XDELVFLG
001655: 16,2267           34313                                    VGCOMP
001656: 16,2270           50135                           SLOAD    BMN
001657: 16,2271           03354                                    NBRCYCLS
001658: 16,2272           51426                                    SETUP.9
001659: 16,2273           53375                           VLOAD    VAD
001660: 16,2274           03356                                    DELVSUM
001661: 16,2275           03432                                    DELVREF
001662: 16,2276           03364                           STORE    DELVSUMP
001663: 16,2277           77776                           EXIT
001664: 16,2300           35001                           CA       ONE
001665: 16,2301           61753                           AD       NBRCYCLS
001666: 16,2302           55754                           TS       NBRCYCLP
001667: 16,2303           05415                           TC       PHASCHNG                              #  TYPE B RESTART BELOW AND 5.3 REREADACCS
001668: 16,2304           10035                           OCT      10035
001669: 16,2305  01,2253               5P3SPT5            =        5.3SPOT
001670: 16,2305           31754                           CA       NBRCYCLP
001671: 16,2306           55753                           TS       NBRCYCLS
001672: 16,2307           06006                           TC       INTPRET
001673: 16,2310           77775                           VLOAD
001674: 16,2311           03364                                    DELVSUMP
001675: 16,2312           03356                           STORE    DELVSUM
001676: 16,2313           77775        VGCOMP             VLOAD
001677: 16,2314           03432                                    DELVREF                               #  CONSTRUCT DELVG, SC.AT B-7 M/CS
001678: 16,2315           53245                           BVSU     VAD
001679: 16,2316           03665                                    BDT
001680: 16,2317           03772                                    VGPREV
001681: 16,2320           03472                           STORE    VG                                    #  VELOCITY-TO-BE-GAINED, SC.AT B-7  M/CS
001682: 16,2321           77646                           ABVAL
001683: 16,2322           03764                           STORE    VGDISP                                #  FOR DISPLAY PURPOSES
001684: 16,2323           77776                           EXIT
001685: 16,2324           05415                           TC       PHASCHNG
001686: 16,2325           10035                           OCT      10035                                 #  TYPE B RESTART BELOW AND 5.3 REREADAC
001687: 16,2326  01,2253               5P3SPT6            =        5.3SPOT
001688: 16,2326           06006                           TC       INTPRET
001689: 16,2327           77775                           VLOAD
001690: 16,2330           03472                                    VG
001691: 16,2331           37772                           STCALL   VGPREV
001692: 16,2332           03376                                    R61CNTR
001693:
001694:
001695:                                                                                                  #  NAME          S40.9 - VTOGAIN (AIMPOINT MANEUVERS ONLY)
001696:
001697:                                                                                                  #  FUNCTION      (1) GENERATES REQUIRED VELOCITY AND VELOCITY-TO-BE-GAINED
001698:                                                                                                  #                VECTORS FOR USE DURING AIMPOINT MANEUVERS
001699:                                                                                                  #                (2) UPDATES THE B VECTOR WHICH IS USED IN THE FINAL
001700:                                                                                                  #                CALCULATION OF EXTRAPOLATING THE VELOCITY-TO-BE-GAINED
001701:
001702:                                                                                                  #  CALLING SEQ   VIA FINDVAC AS NEW JOB.
001703:
001704:                                                                                                  #  INPUT         RNIT    - ACTIVE VEHICLE RADIUS VECTOR IN METERS AT +29.
001705:                                                                                                  #                VNIT    - ACTIVE VEHICLE VELOCITY VECTOR IN METERS/CS AT +7
001706:                                                                                                  #                VRPREV  - LAST COMPUTED VELOCITY REQUIRED VECTOR IN
001707:                                                                                                  #                          METERS/CS AT +7.
001708:                                                                                                  #                NOMTIG  - TIME OF IGN. USED IN TARGETTING ROUTINES@+28"
001709:                                                                                                  #                DELLT4  - TRANSFER TIME FROM PIPTIME TO TARGET@+28"
001710:                                                                                                  #                TNIT    - TIME OF RNIT AND VNIT IN CS AT +28
001711:                                                                                                  #                GDT/2   - HALF OF VELOCITY GAINED IN DELTA T TIME DUE TO
001712:                                                                                                  #                          ACCERERATION OF GRAVITY IN METERS/CS AT +7.
001713:                                                                                                  #                DELVREF - CHANGE IN VELOCITY DURING LAST 2 SEC IN
001714:                                                                                                  #                          METERS/CS AT +7.
001715:                                                                                                  #                NORMSW  SET=CENTRAL ANGLE BETWEEN RTARG AND RTIG IS BETWEEN
001716:                                                                                                  #                        165 TO 195 DEGREES
001717:                                                                                                  #                        RESET=CENTRAL ANGLE OUTSIDE CONE DESCRIBED ABOVE
001718:
001719:                                                                                                  #  OUTPUT        VGTEMP  - VELOCITY TO BE GAINED VECTOR IN METERS/CS AT +7.
001720:                                                                                                  #                COGA    - INPUT OF INITIAL GUESS FOR LAMBERT FROM S40.1
001721:                                                                                                  #                          OR PREVIOUS PASS THRU S40.9
001722:                                                                                                  #                GOBL/2  - OBLATENESS TERM IN AVG GRAV CALC - GOBL*RSQ/MU
001723:                                                                                                  #                VRPREV  - VELOCITY REQUIRED VECTOR IN METERS/CS AT +7.
001724:                                                                                                  #                BDT     - B VECTOR IN METERS/CS AT +7.
001725:
001726:                                                                                                  #  SUBROUTINES USED  -  INITVEL
001727:
001728: 16,2333                                           COUNT*   $$/S40.9
001729: 16,2333           06006        S40.9              TC       INTPRET
001730: 16,2334           71201                           SETPD    DLOAD
001731: 16,2335           00001                                    00D
001732: 16,2336           15726                                    LO6ZEROS
001733: 16,2337           43125                           PDDL     BON
001734: 16,2340           34446                                    EP4(45)L
001735: 16,2341           03705                                    NORMSW
001736: 16,2342           34345                                    +3
001737: 16,2343           77745                           DLOAD
001738: 16,2344           34450                                    EP4(10)L
001739: 16,2345           77606                           PUSH
001740: 16,2346           45014                           CLEAR    CALL
001741: 16,2347           00675                                    GUESSW
001742: 16,2350           22002                                    HAVEGUES
001743: 16,2351           77776                           EXIT
001744: 16,2352           05415                           TC       PHASCHNG                              #  SAVE TIME BY NOT REDOING LAMBERT CALCS
001745: 16,2353           05021                           OCT      05021                                 #  C, PRIORITY NEXT, JOB BELOW
001746: 16,2354           10000                           OCT      10000
001747: 16,2355           06006                           TC       INTPRET
001748: 16,2356           77214        ENDLAMB            BON      VLOAD
001749: 16,2357           01310                                    FIRSTFLG
001750: 16,2360           34375                                    FIRSTTME
001751: 16,2361           03570                                    VIPRIME
001752: 16,2362           65251                           VSU      PDDL
001753: 16,2363           03500                                    VRPREV
001754: 16,2364           03506                                    TNIT
001755: 16,2365           54225                           DSU      SL
001756: 16,2366           03510                                    TNITPREV
001757: 16,2367           20222                                    17D
001758: 16,2370           74265                           BDDV     VXSC
001759: 16,2371           34452                                    200CS
001760: 16,2372           76451                           VSU      VSL1
001761: 16,2373           01040                                    GDT/2
001762: 16,2374           03665                           STORE    BDT
001763: 16,2375           53575        FIRSTTME           VLOAD    UNIT
001764: 16,2376           01022                                    RN
001765: 16,2377           45345                           DLOAD    DSU
001766: 16,2400           01036                                    PIPTIME
001767: 16,2401           03450                                    NOMTIG
001768: 16,2402           56205                           DMP      DDV
001769: 16,2403           34444                                    EARTHMU
001770: 16,2404           00043                                    34D
001771: 16,2405           53361                           VXSC     VAD
001772: 16,2406           01046                                    GOBL/2
001773: 16,2407           03624                                    VGTEMP                                #  NOTE  NO TEST IS MADE TO SUBTRACT GOBL
001774: 16,2410           03624                           STORE    VGTEMP                                #  INSIDE 165-195 DEGREE CONE AREA.
001775: 16,2411           77776                           EXIT
001776: 16,2412           05415                           TC       PHASCHNG
001777: 16,2413           04021                           OCT      04021                                 #  C, JOB BELOW
001778: 16,2414           06006        COPY40.9           TC       INTPRET
001779: 16,2415           77745                           DLOAD
001780: 16,2416           03506                                    TNIT
001781: 16,2417           27510                           STOVL    TNITPREV
001782: 16,2420           03570                                    VIPRIME
001783: 16,2421           03500                           STORE    VRPREV
001784: 16,2422           77414                           CLEAR    EXIT
001785: 16,2423           01270                                    FIRSTFLG
001786: 16,2424           45001                 -2        CS       ONE                                   #  REDO40.9 (RESTART) ENTRY TO END S40.9
001787: 16,2425           55753                           TS       NBRCYCLS
001788: 16,2426           05415        ENDS40.9           TC       PHASCHNG
001789: 16,2427           00001                           OCT      00001
001790: 16,2430           15220                           TCF      ENDOFJOB
001791:
001792: 16,2431           06006        REDO40.9           TC       INTPRET                               #  S40.9 RESTARTS COME HERE TO GRACEFULLY
001793: 16,2432           77775                           VLOAD                                          #        TERMINATE S40.9 SO THAT IT CAN BE
001794: 16,2433           15726                                    LO6ZEROS                              #        SET UP WITH LATEST R,V,T NEXT PASS
001795: 16,2434           17356                           STODL    DELVSUM                               #        (TYPE C PHASE POINTS '04021' WILL
001796: 16,2435           15726                                    LO6ZEROS                              #        FORCE NORMAL S40.9 TERMINATIONS,
001797: 16,2436           27354                           STOVL    NBRCYCLS                              #        RATHER THAN LOSE TIME OF BRAND NEW
001798: 16,2437           03772                                    VGPREV                                #        PASS -- QUICK OLD DATA BETTER THAN
001799: 16,2440           03624                           STORE    VGTEMP                                #        NONE) NOW CAN GO THRU SETUP.9
001800: 16,2441           77776                           EXIT                                           #        WITHOUT DISTURBING VGPREV
001801: 16,2442           12424                           TCF      ENDS40.9   -2                         #  STORE 0,0 COVERED NBRCYCLS,P -- FIX UP S
001802:
001803: 16,2443           55340 61710  EARTHMU            2DEC*    -3.986032  E10        B-36*
001804:
001805: 16,2445           04000 00000  EP4(45)L           2DEC     .125
001806:
001807: 16,2447           00707 03434  EP4(10)L           2DEC     .027777777
001808:
001809: 16,2451           01440 00000  200CS              2DEC     200        B-12
001810:
001811: 16,2453           77715 77777  -FOURDT            2DEC     -800       B-18                       #  -4(200CS), AT B+18CS (-4 FOR SCALING)
001812:
001813: 16,2455           00000 00620  FOURSEC            2DEC     400.0      B-28                       #  4 SEC
001814:
001815: 16,2457           00000 00310  TWODT              2DEC     200.0      B-28                       #  **** MUST FOLLOW 2DEC FOURSEC TO   ****
001816:                                                                                                  #  **** MAKE FOURSEC +1 2DEC 200 B-13 ****
001817:
001818: 16,2461           00040 00000  DPB-9              2DEC     1          B-9
001819:
001820:
001821:                                                                                                  #  NAME                  S40.13 - TIMEBURN
001822:
001823:                                                                                                  #  FUNCTION              TO DETERMINE
001824:                                                                                                  #                        (1) WHETHER A GIVEN COMBINATION OF VELOCITY-TO-
001825:                                                                                                  #                        BE-GAINED AND ENGINE CHOICE RESULT IN A BURN TIME SUFFICIENT
001826:                                                                                                  #                        TO ALLOW STEERING AT THE VEHICLE DURING THE BURN
001827:                                                                                                  #                        (2) THE MAGNITUDE OF THE RESULTING BURN TIME, AND
001828:                                                                                                  #                        (3) IF THE BURN TIME IS < 6 SECONDS,
001829:                                                                                                  #                        THE ASSOCIATED TIME OF THE ENGINE-OFF SIGNAL
001830:
001831:                                                                                                  #  CALLING SEQ           VIA FINDVAC AS NEW JOB.
001832:
001833:                                                                                                  #  INPUT                 VGDISP   - MAGNITUDE OF VGTIG IN M/CS AT +7
001834:                                                                                                  #                        WEIGHT/G - MASS OF VEHICLE IN KG AT TIG (+16)
001835:                                                                                                  #                        F        - ENGINE THRUST IN M.NEWTONS AT +7
001836:                                                                                                  #                        MDOT     - RATE OF DECREASE OF VEHICLE MASS DURING
001837:                                                                                                  #                                   BURN IN KG/CS AT +3
001838:
001839:                                                                                                  #  OUTPUT                IMPULSW  - ZERO FOR STEERING
001840:                                                                                                  #                                 - ONE FOR ATTITUDE HOLD
001841:                                                                                                  #                        TGO      - BURN TIME IN CS AT +28
001842:
001843:                                                                                                  #        THE QUANTITY M.NEWTON SHALL BE USED TO EXPRESS WEIGHT IN TERMS OF
001844:                                                                                                  #        (KILOGRAM*METER)/(CENTISECOND*CENTISECOND)
001845:                                                                                                  #        (1) M.NEWTON = (10000) NEWTONS
001846:
001847: 16,2463                                           COUNT*   $$/40.13
001848: 16,2463           34773        S40.13             CAF      BIT7                                  #  TEST +X TRANSLATION
001849: 16,2464           00006                           EXTEND
001850: 16,2465           06031                           RXOR     CHAN31
001851: 16,2466           74773                           MASK     BIT7
001852: 16,2467           54157                           TS       MPAC       +3
001853: 16,2470           06006                           TC       INTPRET
001854: 16,2471           41545                           DLOAD    PUSH                                  #  00D = |VGTIG| AT +7
001855: 16,2472           03764                                    VGDISP
001856: 16,2473           77671                           DDV
001857: 16,2474           34623                                    KPIP2
001858: 16,2475           03455                           STORE    SBVGMAG
001859: 16,2476           03462                           STORE    PASTDV
001860: 16,2477           53135                           SLOAD    BZE
001861: 16,2500           00160                                    MPAC       +3                         #  BIT7 CHAN31
001862: 16,2501           34511                                    S40.130    +1                         #  DO NOT COMPENSATE FOR 7 SECS OF ULLAGE
001863: 16,2502           56345                           DLOAD    DDV
001864: 16,2503           34617                                    S40.135                               #  COMPENSATION FOR 2 JET ULLAGE AT +24
001865: 16,2504           03125                                    WEIGHT/G                              #  MASS IN KGMS AT +16
001866: 16,2505           72414                           BON      SL1                                   #  DOUBLE CORRECTION IF FOUR JETS
001867: 16,2506           00700                                    NJETSFLG
001868: 16,2507           34510                                    S40.130
001869: 16,2510           41421        S40.130            BDSU     PUSH                                  #  00D = MAG(VGTIG) @ B+7 M/CS, ADJUSTED
001870:                                                                                                  #        FOR ULLAGE.
001871: 16,2511           56345                 +1        DLOAD    DDV                                   #  ENTRY POINT IF ULLAGE OFF
001872: 16,2512           00001                                    00D                                   #  MAKE SURE MPAC CONTAINS MAG(VGTIG)
001873: 16,2513           34621                                    2VEXHUST                              #  2 VEXHAUST (=2G ISP) @ B+7 M/CS
001874: 16,2514           44342                           SR1      BDSU
001875: 16,2515           15724                                    LODPHALF                              #  0.5
001876: 16,2516           41205                           DMP      DMP
001877: 16,2517           03125                                    WEIGHT/G                              #  TOTAL MASS @ B+16 KG
001878: 16,2520           00001                                    00D                                   #  MAG(VGTIG) @ B+7 M/CS
001879: 16,2521           40061                           SL       BOV
001880: 16,2522           20213                                    10D                                   #  SCALING
001881: 16,2523           34607                                    S40.136                               #  LARGE VG : STEERING BURN INDICATED
001882: 16,2524           41225                           DSU      DMP
001883: 16,2525           01750                                    EIMP1SEC                              #  IMP BURN LOGIC B.P. @ E+2B+14 NEWT-SEC
001884: 16,2526           34613                                    100B-14                               #  1SEC @ B+14CS
001885: 16,2527           41471                           DDV      PUSH                                  #  02D=(DELTET-1SEC) @ B+14CS, FIMP16 SLOPE
001886: 16,2530           01752                                    EFIMP16                               #  IMP B.LOGIC 1-6SEC SLOPE @ E+2B+14 NEWT
001887: 16,2531           51025                           DSU      BPL
001888: 16,2532           34615                                    500B-14                               #  5SEC @ B+14CS
001889: 16,2533           34607                                    S40.136                               #  STEERING BURN INDICATED, DELTAT > 6 SEC
001890: 16,2534           51145                           DLOAD    BPL
001891: 16,2535           00003                                    02D                                   #  (DELTAT-1SEC) @ B+14CS, FIMP16 SLOPE
001892: 16,2536           34560                                    S40.134                               #  1<DELTAT<6SEC, SO FIMP16 SLOPE USE IS OK
001893: 16,2537           56205                           DMP      DDV                                   #  0<DELTAT<1SEC, SO USE FIMP01 NOT FIMP16
001894: 16,2540           01752                                    EFIMP16                               #  IMP B.LOGIC 1-6SEC SLOPE @ E+2B+14 NEWT
001895: 16,2541           01751                                    EFIMP01                               #  IMP B.LOGIC 0-1SEC SLOPE @ E+2B+14 NEWT
001896: 16,2542           77614                           CLEAR
001897: 16,2543           01274                                    SBFLAG
001898: 16,2544           77414        S40.132            SET      EXIT
001899: 16,2545           01066                                    IMPULSW                               #  IMPULSIVE BURN
001900: 16,2546           07224                           TC       DPAGREE
001901: 16,2547           06006                           TC       INTPRET
001902: 16,2550           54215                           DAD      SR                                    #  MPAC CONTAINS (DELTA-1SEC), GET DELTAT
001903: 16,2551           34613                                    100B-14                               #  1SEC @ B+14CS
001904: 16,2552           20617                                    14D                                   #  DELTAT @ B+28CS
001905: 16,2553           03430                           STORE    TGO
001906: 16,2554           77776        S40.133            EXIT
001907: 16,2555           05415                           TC       PHASCHNG
001908: 16,2556           00003                           OCT      3
001909: 16,2557           15220                           TCF      ENDOFJOB
001910:
001911: 16,2560           41414        S40.134            BOFF     PUSH
001912: 16,2561           01354                                    SBFLAG
001913: 16,2562           34544                                    S40.132
001914: 16,2563           41215                           DAD      DMP
001915: 16,2564           34613                                    100B-14
001916: 16,2565           01742                                    EMDOT
001917: 16,2566           44352                           SL1      BDSU
001918: 16,2567           03125                                    WEIGHT/G
001919: 16,2570           56325                           PDDL     DDV
001920: 16,2571           01752                                    EFIMP16
001921: 16,2572           34624                                    100B+8
001922: 16,2573           56205                           DMP      DDV
001923: 16,2574           03001                                    ETDECAY
001924: 16,2575           56242                           SR3      DDV
001925: 16,2576           34623                                    KPIP2
001926: 16,2577           17456                           STODL    DVTAIL
001927: 16,2600           15726                                    DPZERO
001928: 16,2601           03452                           STORE    PIPAPIX
001929: 16,2602           17453                           STODL    PIPAPIY
001930: 16,2603           01100                                    PIPTIME1   +1
001931: 16,2604           17460                           STODL    TZEROED
001932: 16,2605           77650                           GOTO
001933: 16,2606           34544                                    S40.132
001934:
001935: 16,2607           52014        S40.136            CLEAR    GOTO
001936: 16,2610           01274                                    SBFLAG
001937: 16,2611           34554                                    S40.133
001938:
001939: 16,2612                                           COUNT    17/40.13
001940:
001941: 16,2612           00144 00000  100B-14            2DEC     100.00     B-14                       #  1SEC @ B+14CS
001942:
001943: 16,2614  16,2612               1SEC2D             =        100B-14
001944:
001945: 16,2614           00764 00000  500B-14            2DEC     500.00     B-14                       #  5SEC @ B+14CS
001946: 16,2616  16,2614               5SECOND            =        500B-14
001947: 16,2616           00000 04263  S40.135            2DEC     69.6005183 B-23                       #  IMPULSE FROM 7.96 SECS OF 2-JET FIRING
001948:                                                                                                  #        7.96 (199.6)COS(10) LB-SEC, SC.AT
001949:                                                                                                  #        B+23 NEWTON-SEC/E+2 (7 SEC ULLAGE
001950:                                                                                                  #        TO GO, PLUS 0.96 SEC FROM PIPTIME)
001951:
001952: 16,2620           17602 25124  2VEXHUST           2DEC     63.020792  B-7                        #  2(10338.0564 FPS), AT B+7 M/CS
001953: 16,2622           02313        KPIP2              DEC      5.85       E-4        B7
001954: 16,2623           14400        100B+8             DEC      100        B-8
001955:
001956: 16,2624  30,2000                                  SBANK=   LOWSUPER
001957: 20,2000                                           SETLOC   DAPS6
001958: 20,2000                                           BANK
001959:
001960: 20,2547                                           COUNT*   $$/40.14
001961: 20,2547           00631        DEC409             DEC      409        B-14
001962: 20,2550           00056        DEC46              DEC      46         B-14
001963:
001964:
001965:                                                                                                  #  CALLED BY ..DONOUN47.. (VERB 48), OR DIRECTLY BY ..FRESHDAP.. (RCS DAP)
001966:
001967: 20,2551  E6,1514                                  EBANK=   DAPDATR1
001968: 20,2551           31516        S40.14             CAE      IXX                                   #  RCS ENTRY
001969: 20,2552           00006                           EXTEND
001970: 20,2553           72576                           MP       CONTONE
001971: 20,2554           55654                           TS       J/M
001972: 20,2555           31517                           CA       IAVG
001973: 20,2556           00006                           EXTEND
001974: 20,2557           72576                           MP       CONTONE
001975: 20,2560           55655                           TS       J/M1
001976: 20,2561           55656                           TS       J/M2
001977: 20,2562           00006                           EXTEND
001978: 20,2563           32600                           DCA      CONTTWO
001979: 20,2564           00006                           EXTEND
001980: 20,2565           11516                           DV       IXX
001981: 20,2566           55651                           TS       KMJ
001982: 20,2567           00006                           EXTEND
001983: 20,2570           32600                           DCA      CONTTWO
001984: 20,2571           00006                           EXTEND
001985: 20,2572           11517                           DV       IAVG
001986: 20,2573           55652                           TS       KMJ1
001987:
001988: 20,2574           55653                           TS       KMJ2
001989: 20,2575           00002                           TC       Q
001990:
001991: 20,2576           25137        CONTONE            DEC      .662034                               #  2PI/M
001992: 20,2577           00023 12522  CONTTWO            2DEC     .00118
001993:
001994: 22,2000                                           SETLOC   DAPS8
001995: 22,2000                                           BANK
001996: 22,3474                                           COUNT*   $$/RCSUP
001997: 22,3474           22016        RCSUP              LXCH     BANKRUPT
001998: 22,3475           00006                           EXTEND
001999: 22,3476           22012                           QXCH     QRUPT
002000: 22,3477           03504                           TCR      RCSDAPON                              #  ACTIVATE RCS DAP
002001: 22,3500           15336                           TCF      RESUME
002002:
002003: 22,3501  E6,1514                                  EBANK=   DAPDATR1
002004: 22,3501           02060 42066  RCSADDR            2CADR    RCSATT
002005:
002006: 22,3503           37704        0.6SECT5           OCT      37704
002007:
002008: 22,3504  E6,1514                                  EBANK=   DAPDATR1
002009:                                                                                                  #  RCSDAPON ENTRY MUST BE UNDER INT-INHIBIT
002010: 22,3504           33503        RCSDAPON           CAF      0.6SECT5                              #  0.6 SEC ALLOWS TVCEXEC/ROLLDAP TO DIE
002011: 22,3505           54030                 +1        TS       TIME5                                 #  ENTRY FROM ROOTOPOO
002012: 22,3506           55513                           TS       T5PHASE                               #  WILL CAUSE FRESHDAP (+1)
002013: 22,3507           41530                           CS       RCSFLAGS                              #  SET BIT3 TO REINITIALIZE FDAI ERROR
002014: 22,3510           74777                           MASK     BIT3                                  #        DISPLAY, IN CASE SC CONT SWITCH
002015: 22,3511           27530                           ADS      RCSFLAGS                              #        IN SCS NOT GNC (GUIDEMODE PRIMARY)
002016: 22,3512           00006                           EXTEND
002017: 22,3513           33502                           DCA      RCSADDR                               #  (RCSATT)
002018: 22,3514           52113                           DXCH     T5LOC
002019: 22,3515           44076                           CS       DPCONFIG                              #  SET BITS 15,14 TO 01 TO INDICATE
002020: 22,3516           70102                           MASK     FLAGWRD6                              #        T5 TAKEOVER BY RCSDAP
002021: 22,3517           64764                           AD       DAP2BIT
002022: 22,3520           54102                           TS       FLAGWRD6                              #  KILLS TVCEXEC AND ROLLDAP STARTS
002023: 22,3521           00002                           TC       Q                                     #  RETURN TO CALLER (TVCDAPOFF OR RCSDAPUP)
002024:
002025:
002026: 24,2000                                           SETLOC   P40S
002027: 24,2000                                           BANK
002028: 24,3474                                           COUNT*   $$/P40
002029: 24,3474           30025        SBTASK             CA       TIME1
002030: 24,3475           55462                           TS       PREST
002031: 24,3476           41457                           CS       TZEROED
002032: 24,3477           61462                           AD       PREST
002033: 24,3500           03574                           TC       FIXOVFLW
002034: 24,3501           55456                           TS       TDELTA
002035: 24,3502           35003                           CAF      ZERO
002036: 24,3503           55463                           TS       VELSS
002037: 24,3504           55464                           TS       VELSS      +1
002038:


002040: 24,3505           35000                           CAF      TWO
002041: 24,3506           54061        VELSLOOP           TS       ITEMP1
002042: 24,3507           50061                           INDEX    ITEMP1
002043:
002044: 24,3510           30037                           CA       PIPAX
002045: 24,3511           50061                           INDEX    ITEMP1
002046: 24,3512           61451                           AD       PIPAPIX
002047: 24,3513           54062                           TS       ITEMP2
002048:
002049: 24,3514           35037                           CAF      EBANK3
002050: 24,3515           54003                           TS       EBANK
002051: 24,3516  E6,1514                                  EBANK=   DAPDATR1
002052:
002053: 24,3516           30061                           CA       ITEMP1
002054: 24,3517           60000                           DOUBLE
002055: 24,3520           54063                           TS       ITEMP3
002056:
002057: 24,3521           30062                           CA       ITEMP2
002058: 24,3522           00006                           EXTEND
002059: 24,3523           50063                           INDEX    ITEMP3
002060: 24,3524           71453                           MP       PIPASCFX
002061: 24,3525           00006                           EXTEND
002062: 24,3526           74774                           MP       BIT6
002063: 24,3527           26062                           ADS      ITEMP2
002064:
002065: 24,3530           50063                           INDEX    ITEMP3
002066: 24,3531           41452                           CS       PBIASX
002067: 24,3532           56001                           XCH      L
002068:
002069: 24,3533           04606                           TC       E7SETTER
002070: 24,3534  E7,1412                                  EBANK=   TIG
002071:
002072: 24,3534           56001                           XCH      L
002073: 24,3535           00006                           EXTEND
002074: 24,3536           71456                           MP       TDELTA
002075: 24,3537           00006                           EXTEND
002076: 24,3540           74771                           MP       BIT9
002077: 24,3541           60062                           AD       ITEMP2
002078: 24,3542           00006                           EXTEND
002079: 24,3543           70000                           SQUARE
002080: 24,3544           21464                           DAS      VELSS
002081:
002082: 24,3545           10061                           CCS      ITEMP1
002083: 24,3546           13506                           TCF      VELSLOOP
002084:
002085: 24,3547           11463                           CCS      VELSS
002086: 24,3550           13554                           TCF      +4
002087: 24,3551           31464                           CA       VELSS      +1
002088: 24,3552           00006                           EXTEND
002089: 24,3553           13564                           BZF      BURNMORE
002090:
002091: 24,3554           03631                           TC       SQRTTASK
002092: 24,3555           60000                           DOUBLE
002093: 24,3556           61455                           AD       DVTAIL
002094: 24,3557           40000                           COM
002095: 24,3560           61454                           AD       SBVGMAG
002096: 24,3561           61461                           AD       PASTDV
002097: 24,3562           00006                           EXTEND
002098: 24,3563           63602                           BZMF     ENGOFF
002099:
002100: 24,3564           00006        BURNMORE           EXTEND
002101: 24,3565           31463                           DCA      PREST
002102: 24,3566           53461                           DXCH     PASTT
002103:
002104: 24,3567           34355                           CAF      TEN
002105: 24,3570           05246                           TC       WAITLIST
002106: 24,3571  E7,1463                                  EBANK=   VELSS
002107: 24,3571           03474 50067                     2CADR    SBTASK
002108:
002109: 24,3573           05327                           TC       TASKOVER
002110:


002112: 24,3574           00006        FIXOVFLW           EXTEND
002113: 24,3575           63577                           BZMF     +2
002114: 24,3576           00002                           TC       Q
002115: 24,3577           74761                           MASK     POSMAX
002116: 24,3600           65001                           AD       ONE
002117: 24,3601           00002                           TC       Q
002118:
002119: 24,3602           54061        ENGOFF             TS       ITEMP1
002120:
002121: 24,3603           41460                           CS       PASTT
002122: 24,3604           61462                           AD       PREST
002123: 24,3605           03574                           TC       FIXOVFLW
002124: 24,3606           55456                           TS       TDELTA
002125:
002126: 24,3607           41461                           CS       PASTDV
002127: 24,3610           61463                           AD       PRESDV
002128: 24,3611           54062                           TS       ITEMP2
002129: 24,3612           60061                           AD       ITEMP1
002130: 24,3613           00006                           EXTEND
002131: 24,3614           71456                           MP       TDELTA
002132: 24,3615           00006                           EXTEND
002133: 24,3616           10062                           DV       ITEMP2
002134: 24,3617           00006                           EXTEND
002135: 24,3620           62655                           BZMF     ENGINOFF
002136:
002137: 24,3621           55430                           TS       TGO        +1
002138: 24,3622           05246                           TC       WAITLIST
002139: 24,3623  E7,1427                                  EBANK=   TGO
002140: 24,3623           02655 50067                     2CADR    ENGINOFF
002141:
002142: 24,3625           45004                           CS       FIVE
002143: 24,3626           04126                           TC       NEWPHASE
002144: 24,3627           00003                           OCT      3
002145: 24,3630  01,2063               3P5SPT1            =        3.5SPOT
002146: 24,3630           05327                           TC       TASKOVER
002147:
002148: 24,3631           35003        SQRTTASK           CAF      ZERO
002149: 24,3632           55467                           TS       VRSS-SL
002150: 24,3633           13637                           TCF      +4
002151:
002152: 24,3634           00006                 +3        EXTEND
002153: 24,3635           31464                           DCA      VELSS
002154: 24,3636           21464                           DAS      VELSS
002155:
002156: 24,3637           25467                           INCR     VRSS-SL
002157: 24,3640           00006                           EXTEND
002158: 24,3641           31464                           DCA      VELSS
002159: 24,3642           21464                           DAS      VELSS
002160:
002161: 24,3643           31463                           CA       VELSS
002162: 24,3644           60000                           DOUBLE
002163: 24,3645           60000                           DOUBLE
002164: 24,3646           54001                           TS       L
002165: 24,3647           13651                           TCF      +2
002166: 24,3650           13661                           TCF      HIARG
002167:
002168: 24,3651           60000                           DOUBLE
002169: 24,3652           54001                           TS       L
002170: 24,3653           13634                           TCF      SQRTTASK   +3
002171:
002172: 24,3654           33702        LOARG              CAF      LOSLOPE
002173: 24,3655           00006                           EXTEND
002174: 24,3656           71463                           MP       VELSS
002175: 24,3657           63704                           AD       LOBIAS
002176: 24,3660           13665                           TCF      HIARG      +4
002177:
002178: 24,3661           33701        HIARG              CAF      HISLOPE
002179: 24,3662           00006                           EXTEND
002180: 24,3663           71463                           MP       VELSS
002181: 24,3664           63703                           AD       HIBIAS
002182:
002183: 24,3665           54070                 +4        TS       RUPTREG1
002184: 24,3666           31463                           CA       VELSS
002185: 24,3667           00006                           EXTEND
002186: 24,3670           74764                           MP       HALF
002187: 24,3671           00006                           EXTEND
002188: 24,3672           10070                           DV       RUPTREG1
002189: 24,3673           60070                           AD       RUPTREG1
002190: 24,3674           00006                           EXTEND
002191: 24,3675           51467                           INDEX    VRSS-SL
002192: 24,3676           74763                           MP       BIT15
002193: 24,3677           55463                           TS       PRESDV
002194: 24,3700           00002                           TC       Q
002195:
002196: 24,3701           22650        HISLOPE            DEC      .5884
002197: 24,3702           32506        LOSLOPE            DEC      .8324
002198: 24,3703           06552        HIBIAS             DEC      .4192      B-1
002199: 24,3704           04604        LOBIAS             DEC      .2974      B-1
002200:
002201:
002202:                                                                                                  #  NAME          P41 - RCS BURN
002203:
002204:                                                                                                  #  FUNCTION      TO CONTROL THE SEQUENCE OF THE CMC DURING THE COUNTDOWN
002205:                                                                                                  #                AND THRUSTING MANEUVER OF AN RCS BURN
002206:
002207:                                                                                                  #                        R02BOTH         CHECK STATUS OF IMU
002208:
002209:                                                                                                  #                        S40.1           COMPUTE: INTIAL THRUST DIRECTION AND
002210:                                                                                                  #                                                 INTIAL VALUE OF VELOCITY-TO-BE-
002211:                                                                                                  #                                                 GAINED VECTOR (VGTIG)
002212:
002213:                                                                                                  #                        S40.2,3         COMPUTE: GIMBAL ANGLES IF THRUSTING WILL
002214:                                                                                                  #                                                 OCCUR WITH PRESENT IMU ORIENTATION,
002215:                                                                                                  #                                                 PREFERRED IMU ORIENTATION, AND
002216:                                                                                                  #                                                 DESIRED THRUST DIRECTION IN SM COORDS
002217:
002218:                                                                                                  #                        R60CSM          PERFORM ATTITUDE MANEUVER
002219:
002220:                                                                                                  #                        MIDTOAV1        EXTRAPOLATE CSM STATE VECTOR TO TIG-29.96 SECS
002221:
002222:                                                                                                  #                        CLOKTASK        COMPUTE TIME-TO-GO TO IGNITION,
002223:                                                                                                  #                                        RECALL CLOKTASK,
002224:                                                                                                  #                                        UPDATE N 85, AND
002225:                                                                                                  #                                        CALL CLOCKJOB TO DISPLAY V06N85
002226:
002227:                                                                                                  #                        TIGBLNK         BLANK DSKY AT TIG-35 SECS AND
002228:                                                                                                  #                                        WAITLIST TIGAVEG IN 5 SECS
002229:
002230:                                                                                                  #                        TIGAVEG         UNBLANK DSKY,
002231:                                                                                                  #                                        CAUSE CLOCKJOB TO DISPLAY NON FLASH V16N85,
002232:                                                                                                  #                                        WAITLIST TTG/0 IN 29.96 SECS, AND
002233:                                                                                                  #                                        START SERVICER
002234:
002235:                                                                                                  #                        CLOCKJOB        (CALLED EVERY SEC)
002236:                                                                                                  #                                        DISPLAY NON FLASH V06N85 UNTIL TIG - 29.96:
002237:                                                                                                  #                                        THEN DISPLAY NON FLASH V16N85
002238:
002239:                                                                                                  #                        TTG/0           NOVAC TIGNOW
002240:
002241:                                                                                                  #                        TIGNOW          DISPLAY FLASHING V16N85
002242:
002243:                                                                                                  #                        POST41          CLEAN UP AFTER BURN
002244:
002245:                                                                                                  #                        *************************************************
002246:                                                                                                  #                        PROVIDE RESTART PROTECTION AT ALL CRITICAL POINTS
002247:                                                                                                  #                        *************************************************
002248:
002249:                                                                                                  #  INPUT         SAME AS P40
002250:
002251:                                                                                                  #  ALARMS        1703            INSUFFICIENT TIME FOR INTEGRATION
002252:                                                                                                  #                                TIG WAS SLIPPED
002253:
002254: 24,3705  E6,1514                                  EBANK=   DAPDATR1
002255: 24,2000                                           SETLOC   P40S
002256: 24,2000                                           BANK
002257: 24,3705                                           COUNT*   $$/P41
002258: 24,3705           06006        P41CSM             TC       INTPRET
002259: 24,3706           71214                           SET      DLOAD
002260: 24,3707           00464                                    ENG2FLAG                              #  SET FOR RCS
002261: 24,3710           15204                                    HI6ZEROS                              #  CSTEER = 0 FOR P41
002262: 24,3711           03663                           STORE    CSTEER
002263: 24,3712           43145                           DLOAD    BON
002264: 24,3713           11401                                    FRCS2                                 #  2JET THRUST FOR S40.1
002265: 24,3714           00700                                    NJETSFLG
002266: 24,3715           50014                                    P40S/F                                #  NJETS = 1 2-JET
002267: 24,3716           52152                           SL1      GOTO                                  #  NJETS = 0 4-JET
002268: 24,3717           50014                                    P40S/F
002269: 24,3720  E6,1514                                  EBANK=   DAPDATR1
002270: 24,3720           06006        CALCN85            TC       INTPRET
002271: 24,3721           77624                           CALL
002272: 24,3722           34264                                    UPDATEVG                              #  NEW VG FROM VGCOMP (+ MAYBE S40.9)
002273: 24,3723           77624                           CALL
002274: 24,3724           51763                                    P40CNV85                              #  COMPUTE VGBODY
002275: 24,3725           77776        SERVXT1            EXIT
002276:
002277: 24,3726           04666        SERVXT             TC       POSTJUMP
002278: 24,3727           77033                           CADR     SERVEXIT
002279:
002280: 24,3730           07700        NEJETBTS           OCT      07700
002281:
002282: 24,3731           34764        TTG/0              CAF      PRIO20                                #  TASK (4.4 PROTECTS IN P41)
002283: 24,3732           05134                           TC       NOVAC
002284: 24,3733  E6,1514                                  EBANK=   DAPDATR1
002285: 24,3733           03317 50066                     2CADR    TIGNOW
002286:
002287: 24,3735           07722        P40CLK             TC       DOWNFLAG
002288: 24,3736           00155                           ADRES    TIMRFLAG
002289: 24,3737           15327                           TCF      TASKOVER
002290:
002291: 24,3740           77624        P41/DSP            CALL                                           #  COMPUTE
002292: 24,3741           51763                                    P40CNV85                              #        VGTIG IN CTRL COORDS
002293: 24,3742           77776                           EXIT
002294: 24,3743           00006                           EXTEND                                         #  DO CONTROL COORD CALCULATION AFTER AVEG
002295: 24,3744           33421                           DCA      ACADN85
002296: 24,3745           53054                           DXCH     AVEGEXIT
002297: 24,3746           33357                           CAF      V06N85B
002298: 24,3747           54772                           TS       NVWORD1                               #  FORCE CLOCKJOB
002299: 24,3750           05375                           TC       2PHSCHNG
002300: 24,3751           40036                           OCT      40036                                 #  6.3=CLOKTASK(100CS)
002301: 24,3752           00234                           OCT      234                                   #  4.23=P40S/SV(PRIO12)
002302: 24,3753  01,2162               4P23SPT2           =        4.23SPOT
002303: 24,3753  01,2333               6P3SPT3            =        6.3SPOT
002304: 24,3753           12331                           TCF      P40S/SV
002305: 24,3754           33360        P41REDSP           CAF      V16N85B                               #  ENTER FROM P41 SIDE OF TIGAVEG
002306: 24,3755           54772                           TS       NVWORD1                               #  REDISPLAY NONFLASHING
002307: 24,3756           33375                           CAF      SEC29.96   +1
002308: 24,3757           05236                           TC       TWIDDLE
002309: 24,3760           03731                           ADRES    TTG/0
002310: 24,3761           44777                           CS       BIT3                                  #  4.4 = TTG/0(2996CS), PRECHECK(-0CS)
002311: 24,3762           12425                           TCF      TTGPHS
002312:
002313: 24,3763           40220        P40CNV85           STQ      SETPD
002314: 24,3764           03702                                    QTEMP1
002315: 24,3765           00001                                    0
002316: 24,3766           41575                           VLOAD    PUSH
002317: 24,3767           03772                                    VGPREV                                #  EQUALS VGTIG (TARGETTING INPUT)
002318: 24,3770           77624                           CALL
002319: 24,3771           56746                                    S41.1
002320: 24,3772           37645                           STCALL   VGBODY
002321: 24,3773           03702                                    QTEMP1
002322:
002323:
002324:                                                                                                  #  NAME          P47 - DELTA V MONITOR
002325:
002326:                                                                                                  #  FUNCTION      TO MONITOR VEHICLE ACCELERATION AND
002327:                                                                                                  #                DISPLAY ACCUMULATED VG IN CONTROL COORDINATES
002328:
002329:                                                                                                  #                        R02BOTH         CHECK STATUS OF IMU
002330:
002331:                                                                                                  #                        MIDTOAV2        EXTRAPOLATE STATE VECTOR TO CURRENT TIME
002332:                                                                                                  #                                        + INCREMENT OF TIMEDELT
002333:
002334:                                                                                                  #                        SETUPTIG        WAITLIST TIGON IN NO. OF CS FOUND
002335:                                                                                                  #                                        IN MPAC +1 AFTER MIDTOAV2 RETURN
002336:
002337:                                                                                                  #                        TIGON           SET CALCN83 INTO AVGGEXIT,
002338:                                                                                                  #                                        NOVAC P47BODY, AND
002339:                                                                                                  #                                        START SERVICER
002340:
002341:                                                                                                  #                        CALCN83         ADD PIPA CONTENTS TO ACCUMULATED DELTA V AND
002342:                                                                                                  #                                        CONVERT TO CONTROL COORDINATES AND
002343:                                                                                                  #                                        CALCULATE INERTIAL VELOCITY, R, AND
002344:                                                                                                  #                                        HDOT FOR NOUN 62
002345:
002346:                                                                                                  #                        P47BODY         ZERO DELVIMU INITIALLY AND
002347:                                                                                                  #                                        GENERATE MONITORING DISPLAY OF ACCUMULATED
002348:                                                                                                  #                                        DELTA V IN CONTROL COORDINATES
002349:
002350:                                                                                                  #                        *************************************************
002351:                                                                                                  #                        PROVIDE RESTART PROTECTION AT ALL CRITICAL POINTS
002352:                                                                                                  #                        *************************************************
002353:
002354: 30,2000                                           SETLOC   P40S3
002355: 30,2000                                           BANK
002356: 30,3554                                           COUNT*   $$/P47
002357: 30,3554  E7,1412                                  EBANK=   TIG
002358: 30,3554           07722        P47CSM             TC       DOWNFLAG
002359: 30,3555           00257                           ADRES    P48FLAG
002360: 30,3556           03567                           TC       ASKIMU
002361:
002362: 30,3557           07710        P48CSM             TC       UPFLAG
002363: 30,3560           00257                           ADRES    P48FLAG
002364: 30,3561           07722                           TC       DOWNFLAG
002365: 30,3562           00010                           ADRES    RNDVZFLG
002366:
002367: 30,3563           22007                           ZL
002368: 30,3564           35003                           CAF      ZERO
002369: 30,3565           53334                           DXCH     FIXTIME
002370: 30,3566           02325                           TC       N72STUFF
002371:
002372: 30,3567           04606        ASKIMU             TC       E7SETTER
002373: 30,3570           04647                           TC       BANKCALL                              #  IMU STATUS CHECK
002374: 30,3571           03737                           CADR     R02BOTH
002375: 30,3572           06006                           TC       INTPRET
002376: 30,3573           77624                           CALRB
002377: 30,3574           27535                                    MIDTOAV2
002378: 30,3575           30155        SETUPTIG           CAE      MPAC       +1                         #  DELTA TIME TO RPEREAD (LESS THAN 100
002379: 30,3576           55652                           TS       P40TMP                                #        CS, WITH A TPAGREE, INT.INIT.)
002380: 30,3577           05236                           TC       TWIDDLE
002381: 30,3600           03620                           ADRES    TIGON
002382: 30,3601           34775                           CAF      P48BIT
002383: 30,3602           70107                           MASK     FLGWRD11
002384: 30,3603           10000                           CCS      A
002385: 30,3604           03610                           TC       +4
002386: 30,3605           05415                           TC       PHASCHNG
002387: 30,3606           40574                           OCT      40574                                 #  A, 4.57 = TIGON (P40TMP CS)
002388: 30,3607  01,2234               4P57SPT1           =        4.57SPOT
002389: 30,3607           15220                           TCF      ENDOFJOB
002390:
002391: 30,3610           35001                           CAF      BIT1
002392: 30,3611           05246                           TC       WAITLIST
002393: 30,3612     1333                                  EBANK=   FIXTIME
002394: 30,3612           02264 60062                     2CADR    CTASK
002395:
002396: 30,3614           05375                           TC       2PHSCHNG
002397: 30,3615           00213                           OCT      00213
002398: 30,3616           40574                           OCT      40574
002399: 30,3617  01,2105               3P21SPT1           =        3.21SPOT
002400: 30,3617           15220                           TCF      ENDOFJOB
002401:
002402: 30,3620  E7,1652                                  EBANK=   P40TMP
002403: 30,3620           00006        TIGON              EXTEND
002404: 30,3621           33761                           DCA      ACADN83
002405: 30,3622           53054                           DXCH     AVEGEXIT
002406: 30,3623           05133                           TC       NOVAC30                               #  FORCE ZEROING OF N83 BEFORE SERVICER
002407: 30,3624  E7,1412                                  EBANK=   TIG
002408: 30,3624           03705 60067                     2CADR    P47BODY
002409:
002410: 30,3626           45000                           CS       BIT2                                  #  4.2 = PRECHECK (-0CS), P47BODY (PRIO30)
002411: 30,3627           04666                           TC       POSTJUMP
002412: 30,3630           50425                           CADR     TTGPHS
002413:
002414: 30,3631  E7,1412                                  EBANK=   TIG
002415: 30,3631           06006        CALCN83            TC       INTPRET
002416: 30,3632           77201                           SETPD    VLOAD
002417: 30,3633           00001                                    0
002418: 30,3634           03645                                    DELVCTL
002419: 30,3635           41455                           VAD      PUSH
002420: 30,3636           03432                                    DELVREF
002421: 30,3637           37440                           STCALL   DV47TEMP
002422: 30,3640           56746                                    S41.1
002423: 30,3641           03655                           STORE    DELVIMU
002424: 30,3642           45014                           BON      CALL
002425: 30,3643           05712                                    P48FLAG
002426: 30,3644           61657                                    R27CHECK
002427: 30,3645           70536                                    S11.1                                 #  CALC. VI, H, HDOT FOR NOUN 62
002428: 30,3646           77776                           EXIT
002429: 30,3647           05415        CLOZUP             TC       PHASCHNG
002430: 30,3650           10035                           OCT      10035
002431: 30,3651  01,2253               5P3SPT7            =        5.3SPOT
002432: 30,3651           35004                           CAF      FIVE
002433: 30,3652           05562                           TC       GENTRAN
002434: 30,3653           01437                           ADRES    DV47TEMP
002435: 30,3654           01644                           ADRES    DELVCTL
002436: 30,3655           04666                           TC       POSTJUMP
002437: 30,3656           77033                           CADR     SERVEXIT
002438:


002440: 30,3657           77776        R27CHECK           EXIT
002441: 30,3660           34767                           CAF      CYCLFBIT
002442: 30,3661           70107                           MASK     FLGWRD11
002443: 30,3662           10000                           CCS      A
002444: 30,3663           03647                           TC       CLOZUP
002445:
002446: 30,3664           35070                           CAF      PRIO17
002447: 30,3665           05150                           TC       FINDVAC
002448: 30,3666  E7,1702                                  EBANK=   MRKBUF1
002449: 30,3666           03671 60067                     2CADR    R27JOBA
002450:
002451: 30,3670           03647                           TC       CLOZUP
002452:
002453: 30,3671           05415        R27JOBA            TC       PHASCHNG
002454: 30,3672           05022                           OCT      05022
002455: 30,3673           17000                           OCT      17000
002456:
002457: 30,3674           06006                           TC       INTPRET
002458: 30,3675           45014                           SET      CALL
002459: 30,3676           05464                                    CYCLFLAG
002460: 30,3677           60512                                    R27GO
002461: 30,3700           77624                           CALL
002462: 30,3701           57046                                    GRP2PC
002463: 30,3702           77414                           CLEAR    EXIT
002464: 30,3703           05664                                    CYCLFLAG
002465: 30,3704           05220                           TC       ENDOFJOB
002466:
002467: 30,3705           06006        P47BODY            TC       INTPRET
002468: 30,3706           77775                           VLOAD
002469: 30,3707           15204                                    HI6ZEROS
002470: 30,3710           03655                           STORE    DELVIMU                               #  CLEAR DISPLAY AND ACCUMULATOR STORAGE
002471: 30,3711           03645                           STORE    DELVCTL                               #  UPON INITIATION OR-ENTER-RESPONSE
002472: 30,3712           03762                           STORE    VSAV
002473: 30,3713           77776                           EXIT
002474: 30,3714           35066        P47BOD             CAF      PRIO15                                #  LOWER PRIO THAN CALCN83 (20)
002475: 30,3715           05211                           TC       PRIOCHNG                              #        TO PREVENT INTERRUPTION OF CALCN83
002476: 30,3716           05415                           TC       PHASCHNG
002477: 30,3717           05024                           OCT      05024                                 #  TYPE C GROUP 4 BELOW FOR NOUN 83
002478: 30,3720           62777                           OCT      62777                                 #  PRIO 15 NOVAC
002479: 30,3721           34775        P47/DSP            CAF      P48BIT
002480: 30,3722           70107                           MASK     FLGWRD11
002481: 30,3723           10000                           CCS      A
002482: 30,3724           13726                           TCF      +2
002483: 30,3725           13752                           TCF      SHOW83
002484:
002485: 30,3726           34770                           CAF      NOUNBIT
002486: 30,3727           70107                           MASK     FLGWRD11
002487: 30,3730           10000                           CCS      A
002488: 30,3731           13740                           TCF      SHOWOPT
002489:
002490: 30,3732           33763                           CAF      V1676
002491: 30,3733           04647                           TC       BANKCALL
002492: 30,3734           20623                           CADR     GOFLASH
002493: 30,3735           04103                           TC       GOTOPOOH
002494: 30,3736           03740                           TC       SHOWOPT
002495: 30,3737           13705                           TCF      P47BODY
002496:
002497: 30,3740           05415        SHOWOPT            TC       PHASCHNG
002498: 30,3741           04024                           OCT      04024
002499:
002500: 30,3742           33764                           CAF      V1677
002501: 30,3743           04647                           TC       BANKCALL
002502: 30,3744           20623                           CADR     GOFLASH
002503: 30,3745           04103                           TC       GOTOPOOH
002504: 30,3746           03750                           TC       +2
002505: 30,3747           13705                           TCF      P47BODY
002506:
002507: 30,3750           05415                           TC       PHASCHNG
002508: 30,3751           04024                           OCT      04024
002509:
002510: 30,3752           33762        SHOW83             CAF      V1683
002511: 30,3753           04647                           TC       BANKCALL
002512: 30,3754           20623                           CADR     GOFLASH
002513: 30,3755           04103                           TC       GOTOPOOH
002514: 30,3756           04103                           TC       GOTOPOOH
002515: 30,3757           13705                           TCF      P47BODY                               #  RECYCLE - CLEAR ACCUMULATED VELOCITY
002516:
002517: 30,3760  E7,1412                                  EBANK=   TIG
002518: 30,3760           03631 60067  ACADN83            2CADR    CALCN83
002519:
002520: 30,3762           04123        V1683              VN       1683
002521: 30,3763           04114        V1676              VN       1676
002522: 30,3764           04115        V1677              VN       1677

End of include-file P40-P47.agc.  Parent file is MAIN.agc


