
Source Code


000002:                                                                                                  ## Copyright:   Public domain.
000003:                                                                                                  ## Filename:    P50,P55.agc
000004:                                                                                                  ## Purpose:     A section of Skylark revision 048.
000005:                                                                                                  ##              It is part of the source code for the Apollo Guidance Computer (AGC)
000006:                                                                                                  ##              for Skylab-2, Skylab-3, Skylab-4, and ASTP. No original listings of
000007:                                                                                                  ##              this software are available; instead, this file was created via
000008:                                                                                                  ##              disassembly of dumps of the core rope modules actually flown on
000009:                                                                                                  ##              Skylab-2. Access to these modules was provided by the New Mexico
000010:                                                                                                  ##              Museum of Space History.
000011:                                                                                                  ## Assembler:   yaYUL
000012:                                                                                                  ## Contact:     Ron Burkey <info@sandroid.org>.
000013:                                                                                                  ## Website:     www.ibiblio.org/apollo/index.html
000014:                                                                                                  ## Mod history: 2024-02-18 MAS  Created.
000015:                                                                                                  ##              2024-03-05 MAS  Finished filling out.
000016:
000017:                                                                                                  ## This log section is entirely new for Skylark. Names have been taken from
000018:                                                                                                  ## the Programmed Guidance Equations for Skylark wherever possible.
000019:
000020: 11,2000                                           SETLOC   P50LOC
000021: 11,2000                                           BANK
000022: 11,2167  E7,1702                                  EBANK=   MRKBUF1
000023: 11,2167                                           COUNT*   $$/P50
000024:
000025: 11,2167           35001        P50                CAF      ONE
000026: 11,2170           54771                           TS       OPTION2
000027:
000028: 11,2171           34355                           CAF      OCT12
000029: 11,2172           04647                           TC       BANKCALL
000030: 11,2173           20754                           CADR     GOPERF4
000031: 11,2174           04103                           TC       GOTOPOOH
000032: 11,2175           12177                           TCF      +2
000033: 11,2176           12171                           TCF      P50        +2
000034:
000035: 11,2177           30771                           CA       OPTION2
000036: 11,2200           76214                           MASK     THREE
000037: 11,2201           50000                           INDEX    A
000038: 11,2202           12203                           TCF      +1
000039: 11,2203           12207                           TCF      +4
000040: 11,2204           12211                           TCF      P50.1
000041: 11,2205           12213                           TCF      P50.2
000042: 11,2206           12271                           TCF      P50.3
000043:
000044: 11,2207           04362                           TC       FALTON
000045: 11,2210           12171                           TCF      P50        +2
000046:
000047: 11,2211           07710        P50.1              TC       UPFLAG
000048: 11,2212           00003                           ADRES    P50.1FLG
000049:
000050: 11,2213           04647        P50.2              TC       BANKCALL
000051: 11,2214           03737                           CADR     R02BOTH
000052:
000053: 11,2215           35003                           CAF      ZERO
000054: 11,2216           54304                           TS       STARIND
000055:
000056: 11,2217           35015                           CAF      OCT46
000057: 11,2220           55130                           TS       STARCODE
000058:
000059: 11,2221           06006                           TC       INTPRET
000060: 11,2222           77624                           CALL
000061: 11,2223           31433                                    R53
000062: 11,2224           77775                           VLOAD
000063: 11,2225           03705                                    MRKBUF1    +2
000064: 11,2226           15162                           STODL    CDUSPOT
000065: 11,2227           03703                                    MRKBUF1
000066: 11,2230           36607                           STCALL   TSIGHT
000067: 11,2231           31545                                    PLANET
000068: 11,2232           53521                           MXV      UNIT
000069: 11,2233           01720                                    REFSMMAT
000070: 11,2234           77624                           CALL
000071: 11,2235           47603                                    TRG*SMNB
000072: 11,2236           24015                           STOVL    12D
000073: 11,2237           02725                                    VSUN
000074: 11,2240           53521                           MXV      UNIT
000075: 11,2241           01720                                    REFSMMAT
000076: 11,2242           77624                           CALL
000077: 11,2243           47623                                    *SMNB*
000078: 11,2244           00007                           STORE    6D
000079: 11,2245           45014                           BON      CALL
000080: 11,2246           00303                                    P50.1FLG
000081: 11,2247           22253                                    P50.1A
000082: 11,2250           22375                                    OASTAR
000083: 11,2251           36733                           STCALL   STARAD     +6
000084: 11,2252           22260                                    P50GEN
000085:
000086: 11,2253           77775        P50.1A             VLOAD
000087: 11,2254           15722                                    YUNIT
000088: 11,2255           26733                           STOVL    STARAD     +6
000089: 11,2256           02256                                    NBOA       +6
000090: 11,2257           00015                           STORE    12D
000091:
000092: 11,2260           77775        P50GEN             VLOAD
000093: 11,2261           15720                                    ZUNIT
000094: 11,2262           36725                           STCALL   STARAD
000095: 11,2263           47373                                    AXISGEN
000096: 11,2264           75160                           AXC,1    AXC,2
000097: 11,2265           02702                                    XDC
000098: 11,2266           02660                                    XSM
000099: 11,2267           77650                           GOTO
000100: 11,2270           22277                                    OAVECS
000101:
000102: 11,2271           06006        P50.3              TC       INTPRET
000103: 11,2272           77624                           CALL
000104: 11,2273           22421                                    CALCNBOA
000105: 11,2274           75160                           AXC,1    AXC,2
000106: 11,2275           02247                                    NBOA
000107: 11,2276           02660                                    XSM
000108:
000109: 11,2277           77624        OAVECS             CALL
000110: 11,2300           34721                                    MATMOVE
000111: 11,2301           77214                           SET      VLOAD
000112: 11,2302           00065                                    P50FLAG
000113: 11,2303           15724                                    XUNIT
000114: 11,2304           26703                           STOVL    XDC
000115: 11,2305           15722                                    YUNIT
000116: 11,2306           26711                           STOVL    YDC
000117: 11,2307           15720                                    ZUNIT
000118: 11,2310           36717                           STCALL   ZDC
000119: 11,2311           47303                                    CALCGA
000120: 11,2312           77751                           TLOAD
000121: 11,2313           01300                                    THETAD
000122: 11,2314           03516                           STORE    N23TEMP
000123: 11,2315           77776                           EXIT
000124:
000125: 11,2316           02370                           TC       INVTHDX
000126:
000127: 11,2317           32427                           CAF      V06N23
000128: 11,2320           04647                           TC       BANKCALL
000129: 11,2321           20623                           CADR     GOFLASH
000130: 11,2322           04103                           TC       GOTOPOOH
000131: 11,2323           12325                           TCF      DOVECS
000132: 11,2324           12317                           TCF      -5
000133:
000134: 11,2325           02370        DOVECS             TC       INVTHDX
000135:
000136: 11,2326           06006                           TC       INTPRET
000137: 11,2327           57551                           TLOAD    DCOMP
000138: 11,2330           03516                                    N23TEMP
000139: 11,2331           53171                           TAD      BZE
000140: 11,2332           01300                                    THETAD
000141: 11,2333           22361                                    P50OUT
000142: 11,2334           77776                           EXIT
000143:
000144: 11,2335           31277                           CA       THETAD
000145: 11,2336           55165                           TS       CDUSPOT    +4
000146: 11,2337           31300                           CA       THETAD     +1
000147: 11,2340           55161                           TS       CDUSPOT
000148: 11,2341           31301                           CA       THETAD     +2
000149: 11,2342           55163                           TS       CDUSPOT    +2
000150:
000151: 11,2343           06006                           TC       INTPRET
000152: 11,2344           77624                           CALL
000153: 11,2345           47475                                    CD*TR*G
000154: 11,2346           77624                           CALL
000155: 11,2347           34747                                    CALCSMSC
000156: 11,2350           64375                           VLOAD    MXV
000157: 11,2351           15722                                    YUNIT
000158: 11,2352           02703                                    XDC
000159: 11,2353           77656                           UNIT
000160: 11,2354           26667                           STOVL    YSM
000161: 11,2355           15720                                    ZUNIT
000162: 11,2356           53521                           MXV      UNIT
000163: 11,2357           02703                                    XDC
000164: 11,2360           02675                           STORE    ZSM
000165:
000166: 11,2361           75160        P50OUT             AXC,1    AXC,2
000167: 11,2362           02660                                    XSM
000168: 11,2363           02247                                    NBOA
000169: 11,2364           77624                           CALL
000170: 11,2365           34721                                    MATMOVE
000171: 11,2366           77776                           EXIT
000172:
000173: 11,2367           04103                           TC       GOTOPOOH
000174:


000176: 11,2370           34763        INVTHDX            CAF      NEGMAX
000177: 11,2371           00006                           EXTEND
000178: 11,2372           21277                           MSU      THETAD
000179: 11,2373           55277                           TS       THETAD
000180: 11,2374           00002                           TC       Q
000181:
000182: 11,2375           67201        OASTAR             SETPD    SLOAD
000183: 11,2376           00001                                    0
000184: 11,2377           03710                                    MRKBUF1    +5
000185: 11,2400           41434                           RTB      PUSH
000186: 11,2401           45566                                    CDULOGIC
000187: 11,2402           57556                           SIN      DCOMP
000188: 11,2403           71525                           PDDL     COS
000189: 11,2404           77626                           STADR
000190: 11,2405           63772                           STODL    4
000191: 11,2406           03706                                    MRKBUF1    +3
000192: 11,2407           41434                           RTB      PUSH
000193: 11,2410           45566                                    CDULOGIC
000194: 11,2411           41346                           COS      DMP
000195: 11,2412           00005                                    4
000196: 11,2413           72476                           DCOMP    SL1
000197: 11,2414           73525                           PDDL     SIN
000198: 11,2415           72405                           DMP      SL1
000199: 11,2416           00005                                    4
000200: 11,2417           53466                           VDEF     UNIT
000201: 11,2420           77616                           RVQ
000202:


000204: 11,2421           47375        CALCNBOA           VLOAD    VXV
000205: 11,2422           02256                                    NBOA       +6
000206: 11,2423           02264                                    NBOA       +12D
000207: 11,2424           77656                           UNIT
000208: 11,2425           02250                           STORE    NBOA
000209: 11,2426           77616                           RVQ
000210:
000211: 11,2427           01427        V06N23             VN       0623
000212:
000213: 07,2000                                           SETLOC   P55LOC
000214: 07,2000                                           BANK
000215: 07,2312  E7,1702                                  EBANK=   MRKBUF1
000216: 07,2312                                           COUNT*   $$/P55
000217:
000218: 07,2312           35001        P55                CAF      ONE
000219: 07,2313           54771                           TS       OPTION2
000220:
000221: 07,2314           35006                           CAF      OCT13
000222: 07,2315           04647                           TC       BANKCALL
000223: 07,2316           20754                           CADR     GOPERF4
000224: 07,2317           04103                           TC       GOTOPOOH
000225: 07,2320           12322                           TCF      +2
000226: 07,2321           12314                           TCF      -5
000227:
000228: 07,2322           30771                           CA       OPTION2
000229: 07,2323           76214                           MASK     THREE
000230: 07,2324           50000                           INDEX    A
000231: 07,2325           12326                           TCF      +1
000232: 07,2326           12331                           TCF      +3
000233: 07,2327           12364                           TCF      P55.1
000234: 07,2330           12333                           TCF      P55.2
000235:
000236: 07,2331           04362                           TC       FALTON
000237: 07,2332           12314                           TCF      P55        +2
000238:
000239: 07,2333           35003        P55.2              CAF      ZERO
000240: 07,2334           54304                           TS       STARIND
000241:
000242: 07,2335           35015                           CAF      OCT46
000243: 07,2336           55130                           TS       STARCODE
000244:
000245: 07,2337           06006                           TC       INTPRET
000246: 07,2340           77624                           CALL
000247: 07,2341           31433                                    R53
000248: 07,2342           45145                           DLOAD    CALL
000249: 07,2343           03703                                    MRKBUF1
000250: 07,2344           31545                                    PLANET
000251: 07,2345           24015                           STOVL    12D
000252: 07,2346           02725                                    VSUN
000253: 07,2347           34007                           STCALL   6D
000254: 07,2350           22421                                    CALCNBOA
000255: 07,2351           45160                           AXC,1    CALL
000256: 07,2352           03702                                    MRKBUF1
000257: 07,2353           46000                                    SXTNB
000258: 07,2354           53521                           MXV      UNIT
000259: 07,2355           02250                                    NBOA
000260: 07,2356           26733                           STOVL    STARAD     +6
000261: 07,2357           15720                                    ZUNIT
000262: 07,2360           36725                           STCALL   STARAD
000263: 07,2361           47373                                    AXISGEN
000264: 07,2362           77776                           EXIT
000265:
000266: 07,2363           12370                           TCF      TRKSTAR
000267:
000268: 07,2364           04647        P55.1              TC       BANKCALL
000269: 07,2365           03737                           CADR     R02BOTH
000270:
000271: 07,2366           07710                           TC       UPFLAG
000272: 07,2367           00002                           ADRES    P55.1FLG
000273:
000274: 07,2370           35031        TRKSTAR            CAF      V01N70
000275: 07,2371           04647                           TC       BANKCALL
000276: 07,2372           20623                           CADR     GOFLASH
000277: 07,2373           04103                           TC       GOTOPOOH
000278: 07,2374           12376                           TCF      +2
000279: 07,2375           12370                           TCF      TRKSTAR
000280:
000281: 07,2376           11130                           CCS      STARCODE
000282: 07,2377           12404                           TCF      +5
000283: 07,2400           12410                           TCF      GOODSTAR
000284: 07,2401           12402                           NOOP


000286: 07,2402           04362        BADSTAR            TC       FALTON
000287: 07,2403           12370                           TCF      TRKSTAR
000288:
000289: 07,2404           62557                           AD       NEG46
000290: 07,2405           00006                           EXTEND
000291: 07,2406           62410                           BZMF     GOODSTAR
000292: 07,2407           12402                           TCF      BADSTAR
000293:


000295: 07,2410           06006        GOODSTAR           TC       INTPRET
000296: 07,2411           45034                           RTB      CALL
000297: 07,2412           45563                                    LOADTIME
000298: 07,2413           31545                                    PLANET
000299: 07,2414           64214                           BON      MXV
000300: 07,2415           00302                                    P55.1FLG
000301: 07,2416           16422                                    P55.1A
000302: 07,2417           02703                                    XDC
000303: 07,2420           52056                           UNIT     GOTO
000304: 07,2421           16433                                    P55GIMS
000305:
000306: 07,2422           53521        P55.1A             MXV      UNIT
000307: 07,2423           01720                                    REFSMMAT
000308: 07,2424           36611                           STCALL   STARSAV1
000309: 07,2425           22421                                    CALCNBOA
000310: 07,2426           45175                           VLOAD    CALL
000311: 07,2427           02611                                    STARSAV1
000312: 07,2430           47600                                    CDU*SMNB
000313: 07,2431           53521                           MXV      UNIT
000314: 07,2432           02250                                    NBOA
000315:
000316: 07,2433           16611        P55GIMS            STODL    STARSAV1
000317: 07,2434           15726                                    ZERODP
000318: 07,2435           65325                           PDDL     PDDL
000319: 07,2436           02613                                    STARSAV1   +2
000320: 07,2437           02611                                    STARSAV1
000321: 07,2440           53466                           VDEF     UNIT
000322: 07,2441           26617                           STOVL    STARSAV2
000323: 07,2442           15722                                    YUNIT
000324: 07,2443           50276                           VCOMP    DOT
000325: 07,2444           02617                                    STARSAV2
000326: 07,2445           24021                           STOVL    COSTH
000327: 07,2446           02617                                    STARSAV2
000328: 07,2447           77641                           DOT
000329: 07,2450           15724                                    XUNIT
000330: 07,2451           34023                           STCALL   SINTH
000331: 07,2452           47250                                    ARCTRIG
000332: 07,2453           27516                           STOVL    TRKAZ
000333: 07,2454           02617                                    STARSAV2
000334: 07,2455           77641                           DOT
000335: 07,2456           02611                                    STARSAV1
000336: 07,2457           24021                           STOVL    COSTH
000337: 07,2460           15720                                    ZUNIT
000338: 07,2461           50276                           VCOMP    DOT
000339: 07,2462           02611                                    STARSAV1
000340: 07,2463           34023                           STCALL   SINTH
000341: 07,2464           47250                                    ARCTRIG
000342: 07,2465           03517                           STORE    TRKEL
000343: 07,2466           77776                           EXIT
000344:
000345: 07,2467           11515                           CCS      TRKAZ
000346: 07,2470           62553                           AD       -87DEG
000347: 07,2471           12473                           TCF      +2
000348: 07,2472           12470                           TCF      -2
000349: 07,2473           00006                           EXTEND
000350: 07,2474           62476                           BZMF     +2
000351: 07,2475           12504                           TCF      P55ALARM
000352:
000353: 07,2476           11516                           CCS      TRKEL
000354: 07,2477           62552                           AD       -40DEG
000355: 07,2500           12502                           TCF      +2
000356: 07,2501           12477                           TCF      -2
000357: 07,2502           00006                           EXTEND
000358: 07,2503           62506                           BZMF     N14DISP
000359:


000361: 07,2504           05644        P55ALARM           TC       ALARM
000362: 07,2505           00107                           OCT      00107
000363:
000364: 07,2506           32554        N14DISP            CA       VB06N14
000365: 07,2507           04647                           TC       BANKCALL
000366: 07,2510           20623                           CADR     GOFLASH
000367: 07,2511           04103                           TC       GOTOPOOH
000368: 07,2512           12514                           TCF      +2
000369: 07,2513           12370                           TCF      TRKSTAR
000370:
000371: 07,2514           11515                           CCS      TRKAZ
000372: 07,2515           65001                           AD       ONE
000373: 07,2516           12520                           TCF      +2
000374: 07,2517           12515                           TCF      -2
000375: 07,2520           00006                           EXTEND
000376: 07,2521           72556                           MP       D21600
000377:
000378: 07,2522           23520                           LXCH     TRKAZOCT   +1
000379: 07,2523           00006                           EXTEND
000380: 07,2524           74766                           MP       BIT12
000381: 07,2525           55517                           TS       TRKAZOCT
000382: 07,2526           23520                           LXCH     TRKAZOCT   +1
000383: 07,2527           30001                           CA       L
000384: 07,2530           77656                           MASK     PRIO34
000385: 07,2531           00006                           EXTEND
000386: 07,2532           74766                           MP       BIT12
000387: 07,2533           61520                           AD       TRKAZOCT   +1
000388: 07,2534           00006                           EXTEND
000389: 07,2535           74770                           MP       BIT10
000390: 07,2536           55520                           TS       TRKAZOCT   +1
000391: 07,2537           41515                           CS       TRKAZ
000392: 07,2540           00006                           EXTEND
000393: 07,2541           62544                           BZMF     +3
000394: 07,2542           34770                           CAF      BIT10
000395: 07,2543           27517                           ADS      TRKAZOCT
000396:
000397: 07,2544           32555                           CAF      V04N19
000398: 07,2545           04647                           TC       BANKCALL
000399: 07,2546           20623                           CADR     GOFLASH
000400: 07,2547           04103                           TC       GOTOPOOH
000401: 07,2550           14103                           TCF      GOTOPOOH
000402: 07,2551           12370                           TCF      TRKSTAR
000403:
000404: 07,2552           74343        -40DEG             DEC      -.111111
000405: 07,2553           70210        -87DEG             DEC      -.241666
000406: 07,2554           01416        VB06N14            VN       0614
000407: 07,2555           01023        V04N19             VN       0419
000408: 07,2556           05214        D21600             DEC      21600      B-17
000409: 07,2557           77731        NEG46              OCT      -46

End of include-file P50,P55.agc.  Parent file is MAIN.agc


