
Source Code


000002:                                                                                                  ## Copyright:   Public domain.
000003:                                                                                                  ## Filename:    P51-P53.agc
000004:                                                                                                  ## Purpose:     A section of Skylark revision 048.
000005:                                                                                                  ##              It is part of the source code for the Apollo Guidance Computer (AGC)
000006:                                                                                                  ##              for Skylab-2, Skylab-3, Skylab-4, and ASTP. No original listings of
000007:                                                                                                  ##              this software are available; instead, this file was created via
000008:                                                                                                  ##              disassembly of dumps of the core rope modules actually flown on
000009:                                                                                                  ##              Skylab-2. Access to these modules was provided by the New Mexico
000010:                                                                                                  ##              Museum of Space History.
000011:                                                                                                  ## Assembler:   yaYUL
000012:                                                                                                  ## Contact:     Ron Burkey <info@sandroid.org>.
000013:                                                                                                  ## Website:     www.ibiblio.org/apollo/index.html
000014:                                                                                                  ## Mod history: 2023-09-04 MAS  Created from Artemis 072.
000015:                                                                                                  ##              2024-03-05 MAS  Updated for Skylark 48.
000016:
000017:
000018:                                                                                                  #  PROGRAM NAME - PROG52                         DATE - AUGUST 1,1969
000019:                                                                                                  #  MODIFICATION BY ALBERT,BARNERT,HASLAM         LOG SECTION - P51-P5
000020:
000021:                                                                                                  #  FUNCTION -
000022:
000023:                                                                                                  #  ALIGNS THE IMU TO ONE OF THREE ORIENTATIONS SELECTED BY THE ASTRONAUT. THE PRESENT IMU ORIENTATION IS KNOWN
000024:                                                                                                  #  AND IS STORED IN REFSMMAT. THE THREE POSSIBLE ORIENTATIONS MAY BE_
000025:
000026:                                                                                                  #        (A) PREFERRED ORIENTATION
000027:
000028:                                                                                                  #        AN OPTIMUM ORIENTATION FOR A PREVIOUSLY CALCULATED MANUEVER. THIS ORIENTATION MUST BE CALCULATED AND
000029:                                                                                                  #        STORED BY A PREVIOUSLY SELECTED PROGRAM.
000030:
000031:                                                                                                  #        (B) NOMINAL (LOCAL VERTICAL) ORIENTATION
000032:
000033:                                                                                                  #                X   = UNIT ( Y   X Z   )
000034:                                                                                                  #                -SM          -SM   -SM
000035:
000036:                                                                                                  #                Y   = UNIT (V X R)
000037:                                                                                                  #                -SM         -   -
000038:
000039:                                                                                                  #                Z   = UNIT ( -R )
000040:                                                                                                  #                -SM           -
000041:
000042:                                                                                                  #                WHERE_
000043:
000044:                                                                                                  #                R = THE GEOCENTRIC RADIUS VECTOR AT TIME T(ALIGN) SELECTED BY THE ASTRONAUT
000045:                                                                                                  #                -
000046:
000047:                                                                                                  #                V = THE INERTIAL VELOCITY VECTOR AT TIME T(ALIGN) SELECTED BY THE ASTRONAUT
000048:                                                                                                  #                -
000049:
000050:                                                                                                  #        (C) REFSMMAT ORIENTATION
000051:
000052:                                                                                                  #        THIS ORIENTATION IS SELECTED AUTOMATICALLY UNLESS THE ASTRONAUT KEYS IN A DIFFERENT OPTION CODE
000053:
000054:                                                                                                  #        THIS SELECTION CORRECTS THE PRESENT IMU ORIENTATION. THE PRESENT ORIENTATION DIFFERS FROM THAT TO WHICH IT
000055:                                                                                                  #        WAS LAST ALIGNED ONLY DUE TO GYRO DRIFT (I.E. NEITHER GIMBAL LOCK NOR IMU POWER INTERRUPTION HAS OCCURED
000056:                                                                                                  #        SINCE THE LAST ALIGNMENT).
000057:
000058:                                                                                                  #  AFTER A IMU ORIENTATION HAS BEEN SELECTED ROUTINE S52.2 IS OPERATED TO COMPUTE THE GIMBAL ANGLES USING THE
000059:                                                                                                  #  NEW ORIENTATION AND THE PRESENT VEHICLE ATTITUDE.  CAL52A THEN USES THESE ANGLES, STORED IN THETAD,+1,+2, TO
000060:                                                                                                  #  COARSE ALIGN THE IMU. THE STAR SELECTION ROUTINE, R56, IS THEN OPERATED. IF 2 STARS ARE NOT AVAILABLE AN ALARM
000061:                                                                                                  #  IS FLASHED TO NOTIFY THE ASTRONAUT. AT THIS POINT THE ASTRONAUT WILL MANUEVER THE VEHICLE AND SELECT 2 STARS
000062:                                                                                                  #  EITHER MANUALLY OR AUTOMATICALLY. AFTER 2 STARS HAVE BEEN SELECTED THE IMU IS FINE ALIGNED USING ROUTINE R51. IF
000063:                                                                                                  #  THE RENDEZVOUS NAVIGATION PROCESS IS OPERATING (INDICATED BY RNDVZFLG) P20 IS DISPLAYED. OTHERWISE P00 IS
000064:                                                                                                  #  REQUESTED.
000065:
000066:                                                                                                  #  CALLING SEQUENCE -
000067:
000068:                                                                                                  #        THE PROGRAM IS CALLED BY THE ASTRONAUT BY DSKY ENTRY.
000069:
000070:                                                                                                  #  SUBROUTINES CALLED -
000071:
000072:                                                                                                  #        1. FLAGDOWN              6. S52.2               11. GOPERF3
000073:                                                                                                  #        2. R02BOTH               7. CAL53A              12. NEWMODEX
000074:                                                                                                  #        3. GOPERF4               8. FLAGUP              13. PRIOLARM
000075:                                                                                                  #        4. MATMOVE               9. R56
000076:                                                                                                  #        5. GOFLASH              10. R51
000077:
000078:                                                                                                  #  NORMAL EXIT MODES -
000079:
000080:                                                                                                  #        EXITS TO ENDOFJOB
000081:
000082:                                                                                                  #  ALARM OR ABORT EXIT MODES -
000083:
000084:                                                                                                  #        NONE
000085:
000086:                                                                                                  #  OUTPUT -
000087:
000088:                                                                                                  #        THE FOLLOWING MAY BE FLASHED ON THE DSKY
000089:                                                                                                  #                1. IMU ORIENTATION CODE
000090:                                                                                                  #                2. ALARM CODE 215 - PREFERRED IMU ORIENTATION NOT SPECIFIED
000091:                                                                                                  #                3. TIME OF NEXT IGNITION
000092:                                                                                                  #                4. GIMBAL ANGLES
000093:                                                                                                  #                5. ALARM CODE 405 - TWO STARS NOT AVAILABLE
000094:                                                                                                  #                6. PLEASE PERFORM P00
000095:                                                                                                  #        THE MODE DISPLAY MAY BE CHANGED TO 20
000096:
000097:                                                                                                  #  ERASABLE INITIALIZATION REQUIRED -
000098:
000099:                                                                                                  #        PFRATFLG SHOULD BE SET IF A PREFERRED ORIENTATION HAS BEEN COMPUTED. IF IT HAS BEEN COMPUTED IT IS STORED IN
000100:                                                                                                  #        XSMD, YSMD, ZSMD.
000101:                                                                                                  #        RNDVZFLG INDICATES WHETHER THE RENDEZVOUS NAVIGATION PROCESS IS OPERATING.
000102:
000103:                                                                                                  #  DEBRIS -
000104:
000105:                                                                                                  #        WORK AREA
000106:
000107: 07,2560  14,2002               P54                =        PROG52
000108: 14,2000                                           SETLOC   P50S
000109: 14,2000                                           BANK
000110:
000111: 14,2002  30,2000                                  SBANK=   LOWSUPER
000112: 14,2002  E5,1773                                  EBANK=   SAC
000113: 14,2002                                           COUNT*   $$/P52
000114: 14,2002           07722        PROG52             TC       DOWNFLAG
000115: 14,2003           00027                           ADRES    UPDATFLG                              #  BIT 7 FLAG 1
000116: 14,2004           07722                           TC       DOWNFLAG
000117: 14,2005           00031                           ADRES    TRACKFLG                              #  BIT 5 FLAG 1
000118: 14,2006           04647                           TC       BANKCALL
000119: 14,2007           03737                           CADR     R02BOTH                               #  IMU STATUS CHECK
000120: 14,2010           06006                           TC       INTPRET
000121: 14,2011           77414                           BON      EXIT                                  #  MINKEY SEQUENCE?
000122: 14,2012           05310                                    AUTOSEQ
000123: 14,2013           30217                                    P52AUTO                               #  YES
000124:
000125: 14,2014           30104                           CA       FLAGWRD8
000126: 14,2015           74771                           MASK     UTBIT
000127: 14,2016           00006                           EXTEND
000128: 14,2017           12025                           BZF      +6
000129:
000130: 14,2020           11343                           CCS      OPTNTYPE
000131: 14,2021           12023                           TCF      +2
000132: 14,2022           12025                           TCF      +3
000133: 14,2023           07710                           TC       UPFLAG
000134: 14,2024           00031                           ADRES    TRACKFLG
000135:
000136: 14,2025           34776                           CAF      PFRATBIT
000137: 14,2026           70076                           MASK     FLAGWRD2                              #  PREFERRED ORIENTATION
000138: 14,2027           10000                           CCS      A
000139: 14,2030           02033                           TC       P52A
000140: 14,2031           36214                           CAF      THREE                                 #  ION
000141: 14,2032           02034                           TC       P52A       +1
000142: 14,2033           35001        P52A               CAF      BIT1                                  #  YES - SET OPTION 2 = 1
000143: 14,2034           54771                 +1        TS       OPTION2
000144: 14,2035           35001        P52B               CAF      BIT1
000145: 14,2036           04647                           TC       BANKCALL                              #  FLASH OPTION CODE AND ORIENTATION CODE
000146: 14,2037           20754                           CADR     GOPERF4
000147: 14,2040           04103                           TC       GOTOPOOH
000148: 14,2041           02043                           TC       +2
000149: 14,2042           02035                           TC       P52B                                  #  NEW CODE - NEW ORIENTATION CODE INPUT
000150: 14,2043           40771                           CS       OPTION2
000151: 14,2044           76214                           MASK     THREE
000152: 14,2045           00006                           EXTEND
000153: 14,2046           12417                           BZF      P52C                                  #  REFERENCE
000154: 14,2047           75001                           MASK     BIT1
000155: 14,2050           00006                           EXTEND
000156: 14,2051           12110                           BZF      P52J                                  #  PREFERRED
000157: 14,2052           00006                           EXTEND                                         #  NOMINAL (LOCAL VERTICAL), LANDING SIGHT
000158: 14,2053           35003                           DCA      NEG0
000159: 14,2054           53241                           DXCH     DSPTEM1
000160: 14,2055           35042                           CAF      V06N34                                #  PREFERRED
000161: 14,2056           05550                           TC       VNFLASH
000162: 14,2057           31240                           CA       DSPTEM1
000163: 14,2060           00006                           EXTEND
000164: 14,2061           12063                           BZF      +2
000165: 14,2062           12066                           TCF      +4
000166:
000167: 14,2063           00006                           EXTEND
000168: 14,2064           30025                           DCA      TIME2
000169: 14,2065           53241                           DXCH     DSPTEM1
000170:
000171:                                                                                                  #  NAME - S52.3
000172:                                                                                                  #  FUNCTION - TO COMPUTE AMD DISPLAY THE
000173:                                                                                                  #  GIMBAL ANGLES, ALLOW ASTRONAUT TO CHOOSE
000174:                                                                                                  #  BETWEEN FAST AND ACCURATE IMU REALIGNMENT.
000175:                                                                                                  #  NOMINAL (LOCAL VERTICAL) ORIENTATION IS:
000176:                                                                                                  #                XSMD= UNIT(YSMD X ZSMD)
000177:                                                                                                  #                YSMD= UNIT(V X R)
000178:                                                                                                  #                ZSMD= UNIT(-R)
000179:
000180:                                                                                                  #  INPUT -       TIME OF ALIGNMENT IN MPAC
000181:
000182:                                                                                                  #  OUTPUT -      X,Y,ZSMD
000183:
000184:                                                                                                  #  SUBROUTINES - CSMCONIC
000185:
000186: 14,2066           06006        S52.3              TC       INTPRET
000187: 14,2067           77745                           DLOAD
000188: 14,2070           01241                                    DSPTEM1
000189: 14,2071           34041                           STCALL   TDEC1
000190: 14,2072           11400                                    CSMPREC
000191: 14,2073           77201                           SETPD    VLOAD
000192: 14,2074           00001                                    0
000193: 14,2075           00001                                    RATT
000194: 14,2076           53476                           VCOMP    UNIT
000195: 14,2077           24323                           STOVL    ZSMD
000196: 14,2100           00007                                    VATT
000197: 14,2101           53435                           VXV      UNIT
000198: 14,2102           00001                                    RATT
000199: 14,2103           00315                           STORE    YSMD
000200: 14,2104           53435                           VXV      UNIT
000201: 14,2105           00323                                    ZSMD
000202: 14,2106           00307                           STORE    XSMD
000203: 14,2107           77776                           EXIT
000204: 14,2110           06006        P52J               TC       INTPRET
000205: 14,2111           77624        P52D               CALL                                           #  READ VEHICLE ATTITUDE AND
000206: 14,2112           22430                                    S52.2                                 #   COMPUTE GIMBAL ANGLES
000207: 14,2113           77776                           EXIT
000208: 14,2114           35040                           CAF      V06N22
000209: 14,2115           04647                           TC       BANKCALL                              #  DISPLAY GIMBAL ANGLES
000210: 14,2116           20623                           CADR     GOFLASH
000211: 14,2117           04103                           TC       GOTOPOOH
000212: 14,2120           02122                           TC       COARSTYP
000213: 14,2121           02110                           TC       P52J                                  #  RECYCLE - VEHICLE HAS BEEN MANEUVERED
000214: 14,2122           40106        COARSTYP           CS       FLGWRD10
000215: 14,2123           74773                           MASK     AUTSQBIT
000216: 14,2124           00006                           EXTEND
000217: 14,2125           12261                           BZF      PERF20                                #  IF MINKEY
000218: 14,2126           35006                           CAF      OCT13                                 #  PLEASE PERFORM NORMAL/GYRO TORQUE
000219: 14,2127           04647                           TC       BANKCALL
000220: 14,2130           20747                           CADR     GOPERF1
000221: 14,2131           14103                           TCF      GOTOPOOH                              #  V34
000222: 14,2132           12275                           TCF      P52K                                  #  NORMAL COARSE
000223: 14,2133           06006        GYCRS              TC       INTPRET
000224: 14,2134           64375                           VLOAD    MXV
000225: 14,2135           00307                                    XSMD
000226: 14,2136           01720                                    REFSMMAT
000227: 14,2137           77656                           UNIT
000228: 14,2140           26703                           STOVL    XDC
000229: 14,2141           00315                                    YSMD
000230: 14,2142           53521                           MXV      UNIT
000231: 14,2143           01720                                    REFSMMAT
000232: 14,2144           26711                           STOVL    YDC
000233: 14,2145           00323                                    ZSMD
000234: 14,2146           53521                           MXV      UNIT
000235: 14,2147           01720                                    REFSMMAT
000236: 14,2150           36717                           STCALL   ZDC
000237: 14,2151           47177                                    CALCGTA
000238: 14,2152           43014                           CLEAR    CLEAR
000239: 14,2153           01260                                    DRIFTFLG
000240: 14,2154           01662                                    REFSMFLG
000241: 14,2155           77776                           EXIT
000242: 14,2156           32216                           CAF      V16N20
000243: 14,2157           04647                           TC       BANKCALL
000244: 14,2160           20570                           CADR     GODSPR
000245: 14,2161           33006                           CAF      R55CDR
000246: 14,2162           04647                           TC       BANKCALL
000247: 14,2163           17175                           CADR     IMUPULSE
000248: 14,2164           04647                           TC       BANKCALL
000249: 14,2165           17575                           CADR     IMUSTALL
000250: 14,2166           03653                           TC       217ALARM                              #  BAD END
000251: 14,2167           05415                           TC       PHASCHNG
000252: 14,2170           04024                           OCT      04024
000253: 14,2171           06006                           TC       INTPRET
000254: 14,2172           75160                           AXC,1    AXC,2
000255: 14,2173           00306                                    XSMD
000256: 14,2174           01717                                    REFSMMAT
000257: 14,2175           77624                           CALL
000258: 14,2176           34721                                    MATMOVE
000259: 14,2177           43014                           CLEAR    SET
000260: 14,2200           01273                                    PFRATFLG
000261: 14,2201           01462                                    REFSMFLG
000262: 14,2202           77234                           RTB      VLOAD
000263: 14,2203           31430                                    SET1/PDT
000264: 14,2204           15726                                    ZEROVEC
000265: 14,2205           01472                           STORE    GCOMP
000266: 14,2206           43014                           SET      BOF
000267: 14,2207           01060                                    DRIFTFLG
000268: 14,2210           05350                                    AUTOSEQ
000269: 14,2211           31004                                    R51K                                  #  CONTINUE FINE ALIGN IF NOT MINKEY
000270: 14,2212           77614                           CLEAR
000271: 14,2213           05276                                    PCFLAG
000272: 14,2214           77776        P50SEXIT           EXIT
000273: 14,2215           14105                           TCF      MNKGOPOO
000274: 14,2216           04024        V16N20             VN       1620
000275: 14,2217     5007               ALRM15             EQUALS   OCT15
000276: 14,2217           47014        P52AUTO            BOFF     RTB
000277: 14,2220           05356                                    PCFLAG
000278: 14,2221           30234                                    P52AUTO1
000279: 14,2222           34735                                    RDCDUS
000280: 14,2223           70535                           SLOAD    SR1
000281: 14,2224           00003                                    2
000282: 14,2225           77746                           COS
000283: 14,2226           43165                           SIGN     CLEAR
000284: 14,2227           03407                                    DELVLVC    +2
000285: 14,2230           05271                                    TCOMPFLG
000286: 14,2231           43044                           BPL      SET
000287: 14,2232           30234                                    P52AUTO1
000288: 14,2233           05071                                    TCOMPFLG
000289: 14,2234           74575        P52AUTO1           VLOAD    VSR1                                  #  XDES = UNIT(XREF COS45 + YERF SIN45) (1)
000290: 14,2235           01720                                    REFSMMAT                              #                         -             (2)
000291: 14,2236           74515                           PDVL     VSR1
000292: 14,2237           01726                                    REFSMMAT   +6                         #  (1) FOR 1ST, +45-DEGREE MANEUVER
000293: 14,2240           57414                           BON      VCOMP                                 #  (2)     2ND  -
000294: 14,2241           05316                                    PCFLAG                                #  IN EITHER CASE, COS45 = SIN45, AND
000295: 14,2242           30243                                    +1                                    #        'UNIT' OBVIATES NEED FOR THEN.
000296: 14,2243           57414                           BOFF     VCOMP
000297: 14,2244           05351                                    TCOMPFLG
000298: 14,2245           30246                                    P52AUTOX
000299:
000300: 14,2246           53455        P52AUTOX           VAD      UNIT
000301: 14,2247           77626                           STADR
000302: 14,2250           53470                           STOVL    XSMD
000303: 14,2251           01734                                    REFSMMAT   +12D
000304: 14,2252           00323                           STORE    ZSMD                                  #  ZDES = ZREF
000305: 14,2253           53435                           VXV      UNIT
000306: 14,2254           00307                                    XSMD
000307: 14,2255           00315                           STORE    YSMD                                  #  YDES = UNIT(ZDES * ZDES)
000308: 14,2256           52014                           SET      GOTO
000309: 14,2257           01073                                    PFRATFLG
000310: 14,2260           30111                                    P52D
000311:
000312: 14,2261           34775        PERF20             CAF      BIT5                                  #  =OCT 20, PLEASE PERF MINKEY PC TORQUE
000313: 14,2262           04647                           TC       BANKCALL
000314: 14,2263           20747                           CADR     GOPERF1
000315: 14,2264           04103                           TC       GOTOPOOH                              #  V 34
000316: 14,2265           02133                           TC       GYCRS                                 #  PRO - DO IT
000317: 14,2266           06006                           TC       INTPRET                               #  ENTR
000318: 14,2267           77414                           BON      EXIT
000319: 14,2270           05316                                    PCFLAG
000320: 14,2271           30214                                    P50SEXIT                              #  OK TO FLUSH IT 1ST TIME ONLY
000321: 14,2272           05644                           TC       ALARM                                 #  BUT MAKE HIM DO 2ND
000322: 14,2273           00402                           OCT      00402
000323: 14,2274           02261                           TC       PERF20
000324:                                                                                                  #  NAME - CAL53A
000325:                                                                                                  #  FUNCTION - COARSE ALIGN THE IMU, IF NECESSARY,
000326:                                                                                                  #  INPUT - PRESENT GIMBAL ANGLES - CDUX, CDUY, CDUZ
000327:                                                                                                  #          DESIRED GIMBAL ANGLES - THETAD,+1,+2
000328:                                                                                                  #  OUTPUT - THE IMU COORDINATES ARE STORED IN REFSMMAT
000329:                                                                                                  #  SUBROUTINES USED - 1.IMUCOARS 2.IMUSTALL 3.CURTAINS
000330:
000331: 14,2275                                           COUNT*   $$/R50
000332: 14,2275           06006        P52K               TC       INTPRET
000333: 14,2276           77624        CAL53A             CALL
000334: 14,2277           22430                                    S52.2                                 #  MAKE FINAL COMP OF GIMBAL ANGLES
000335: 14,2300           66234                           RTB      SSP
000336: 14,2301           34735                                    RDCDUS                                #  READ CDUS
000337: 14,2302           00051                                    S1
000338: 14,2303           00001                                    1
000339: 14,2304           40370                           AXT,1    SETPD
000340: 14,2305           00003                                    3
000341: 14,2306           00005                                    4
000342:
000343: 14,2307           70543        CALOOP             DLOAD*   SR1
000344: 14,2310           01303                                    THETAD     +3D,1
000345: 14,2311           70523                           PDDL*    SR1
000346: 14,2312           00005                                    4,1
000347: 14,2313           51425                           DSU      ABS
000348: 14,2314           45206                           PUSH     DSU
000349: 14,2315           34734                                    DEGREE1
000350: 14,2316           71240                           BMN      DLOAD
000351: 14,2317           30332                                    CALOOP1
000352: 14,2320           51025                           DSU      BPL
000353: 14,2321           34735                                    DEG359
000354: 14,2322           30332                                    CALOOP1
000355: 14,2323           77776        COARFINE           EXIT
000356: 14,2324           05415                           TC       PHASCHNG
000357: 14,2325           04024                           OCT      04024
000358: 14,2326           03627                           TC       COARSUB                               #  PERFORM ALIGNMENT
000359: 14,2327           06006                           TC       INTPRET
000360: 14,2330           77650                           GOTO
000361: 14,2331           30334                                    FINEONLY
000362: 14,2332           77700        CALOOP1            TIX,1
000363: 14,2333           30307                                    CALOOP
000364: 14,2334           77735        FINEONLY           SLOAD
000365: 14,2335           01300                                    THETAD
000366: 14,2336           15166                           STODL    CDUSPOT    +4
000367: 14,2337           01301                                    THETAD     +1
000368: 14,2340           15162                           STODL    CDUSPOT
000369: 14,2341           01302                                    THETAD     +2
000370: 14,2342           25164                           STOVL    CDUSPOT    +2
000371: 14,2343           15724                                    XUNIT
000372: 14,2344           77624                           CALL
000373: 14,2345           47616                                    TRG*NBSM
000374: 14,2346           26725                           STOVL    STARAD
000375: 14,2347           15722                                    YUNIT
000376: 14,2350           77624                           CALL
000377: 14,2351           47625                                    *NBSM*
000378: 14,2352           36733                           STCALL   STARAD     +6
000379: 14,2353           47471                                    CDUTRIG
000380: 14,2354           77624                           CALL
000381: 14,2355           34747                                    CALCSMSC
000382: 14,2356           77775                           VLOAD
000383: 14,2357           02703                                    XDC
000384: 14,2360           24007                           STOVL    6D
000385: 14,2361           02711                                    YDC
000386: 14,2362           34015                           STCALL   12D
000387: 14,2363           47373                                    AXISGEN
000388: 14,2364           77624                           CALL
000389: 14,2365           47177                                    CALCGTA
000390: 14,2366           43014                           CLEAR    CLEAR
000391: 14,2367           01662                                    REFSMFLG
000392: 14,2370           01260                                    DRIFTFLG
000393: 14,2371           77776                           EXIT
000394: 14,2372           33006                           CA       R55CDR
000395: 14,2373           04647                           TC       BANKCALL
000396: 14,2374           17175                           CADR     IMUPULSE
000397: 14,2375           04647                           TC       BANKCALL
000398: 14,2376           17575                           CADR     IMUSTALL
000399: 14,2377           03653                           TC       217ALARM                              #  BAD END
000400: 14,2400           05415                           TC       PHASCHNG
000401: 14,2401           04024                           OCT      04024
000402: 14,2402           06006                           TC       INTPRET
000403: 14,2403           77234                           RTB      VLOAD
000404: 14,2404           31430                                    SET1/PDT
000405: 14,2405           15726                                    ZEROVEC
000406: 14,2406           01472                           STORE    GCOMP
000407: 14,2407           74014                           SET      AXC,1
000408: 14,2410           01060                                    DRIFTFLG
000409: 14,2411           00306                                    XSMD
000410: 14,2412           45164                           AXC,2    CALL
000411: 14,2413           01717                                    REFSMMAT
000412: 14,2414           34721                                    MATMOVE
000413: 14,2415           77414        CAL53RET           SET      EXIT
000414: 14,2416           01462                                    REFSMFLG
000415: 14,2417                                           COUNT*   $$/P52
000416: 14,2417           05415        P52C               TC       PHASCHNG
000417: 14,2420           04024                           OCT      04024
000418: 14,2421           04606                           TC       E7SETTER
000419: 14,2422           35007                           CAF      ALRM15
000420: 14,2423           04647                           TC       BANKCALL
000421: 14,2424           20747                           CADR     GOPERF1
000422: 14,2425           04103                           TC       GOTOPOOH
000423: 14,2426           02430                           TC       +2                                    #  V33
000424: 14,2427           02627                           TC       R51                                   #  FINE ALIGN
000425: 14,2430           06006                           TC       INTPRET
000426: 14,2431           43234                           RTB      DAD
000427: 14,2432           45563                                    LOADTIME
000428: 14,2433           34641                                    TSIGHT1
000429: 14,2434           77624                           CALL
000430: 14,2435           24040                                    LOCSAM
000431: 14,2436                                           COUNT*   $$/PICAP
000432:
000433:                                                                                                  #  NAME - PICAPAR        NOW IN-LINE
000434:
000435:                                                                                                  #  FUNCTION -
000436:                                                                                                  #  THIS PROGRAM READ THE IMU-CDUS AND COMPUTES THE VEHICLE ORIENTATION
000437:                                                                                                  #  WITH RESPECT TO INERTIAL SPACE. IT THEN COMPUTES THE SHAFT AXIS (SAX)
000438:                                                                                                  #  WITH RESPECT TO REFERENCE INERTIAL. EACH STAR IN THE CATALOG IS TESTED
000439:                                                                                                  #  TO DETERMINE IF IT IS OCCULTED BY EITHER THE EARTH, SUN OR MOON. IF A
000440:                                                                                                  #  STAR IS NOT OCCULTED THEN IT IS PAIRED WITH ALL STAR OF LOWER INDEX.
000441:                                                                                                  #  THE PAIRED STAR IS TESTED FOR OCCULTATION. PAIRS OF STARS THAT PASS
000442:                                                                                                  #  THE OCCULTATION TESTS ARE TESTED FOR GOOD SEPARATION. A PAIR OF STARS
000443:                                                                                                  #  HAVE GOOD SEPARATION IF THE ANGLE BETWEEN THEM IS LESS THAN 76 DEGREES
000444:                                                                                                  #  AND MORE THAN 30 DEGREES. THOSE PAIRS OF STARS WITH GOOD SEPARATION
000445:                                                                                                  #  ARE THEN TESTED TO SEE IF THEY LIE IN CURRENT FIELD OF VIEW. (WITHIN
000446:                                                                                                  #  38 DEGREES OF SAX). THE PAIR WITH MAXIMUM SEPARATION IS CHOSEN FROM
000447:                                                                                                  #  THOSE WITH GOOD SEPARATION, AND IN FIELD OF VIEW.
000448:
000449:                                                                                                  #  OUTPUT
000450:                                                                                                  #        BESTI, BESTJ - SINGLE PREC, INTEGERS, STAR NUMBERS TIMES 6
000451:                                                                                                  #        VFLAG - FLAG BIT  SET IMPLIES NO STARS IN FIELD OF VIEW
000452:
000453:                                                                                                  #  INITIALIZATION
000454:                                                                                                  #        1) A CALL TO LOCSAM MUST BE MADE
000455:                                                                                                  #        2) VEARTH = -UNIT(R) WHERE R HAS BEEN UPDATED TOO APPROXIMATE TIME OF
000456:                                                                                                  #                SIGHTINGS.
000457:
000458:                                                                                                  #  DEBRIS
000459:                                                                                                  #        WORK AREA
000460:                                                                                                  #        X,Y,ZNB
000461:                                                                                                  #        SINCDU, COSCDU
000462:                                                                                                  #        STARAD - STAR +5
000463:
000464: 14,2436           77624                           CALL
000465: 14,2437           47471                                    CDUTRIG
000466: 14,2440           45001                           SETPD    CALL
000467: 14,2441           00001                                    0
000468: 14,2442           34747                                    CALCSMSC
000469: 14,2443           71214                           SET      DLOAD                                 #  VFLAG = 1
000470: 14,2444           01465                                    VFLAG
000471: 14,2445           15726                                    DPZERO
000472: 14,2446           24303                           STOVL    BESTI
000473: 14,2447           02703                                    XNB
000474: 14,2450           63361                           VXSC     PDVL
000475: 14,2451           30601                                    SIN33
000476: 14,2452           02717                                    ZNB
000477: 14,2453           74370                           AXT,1    VXSC
000478: 14,2454           00344                                    228D                                  #  X1 = 37 X 6 + 6
000479: 14,2455           30603                                    COS33
000480: 14,2456           77655                           VAD
000481: 14,2457           53505                           VXM      UNIT
000482: 14,2460           01720                                    REFSMMAT
000483: 14,2461           02741                           STORE    SAX                                   #  SAX = SHAFT AXIS
000484: 14,2462           66331                           SSP      SSP                                   #  S1 = S2 = 6
000485: 14,2463           00051                                    S1
000486: 14,2464           00006                                    6
000487: 14,2465           00052                                    S2
000488: 14,2466           00006                                    6
000489: 14,2467           52100        PIC1               TIX,1    GOTO                                  #  MAJOR STAR
000490: 14,2470           30472                                    PIC2
000491: 14,2471           30612                                    PICEND
000492: 14,2472           45173        PIC2               VLOAD*   CALL
000493: 14,2473           33776                                    CATLOG,1
000494: 14,2474           30563                                    OCCULT
000495: 14,2475           73014                           BON      LXA,2
000496: 14,2476           01710                                    CULTFLAG
000497: 14,2477           30467                                    PIC1
000498: 14,2500           00046                                    X1
000499: 14,2501           52104        PIC3               TIX,2    GOTO
000500: 14,2502           30504                                    PIC4
000501: 14,2503           30467                                    PIC1
000502: 14,2504           45173        PIC4               VLOAD*   CALL
000503: 14,2505           44001                                    CATLOG,2
000504: 14,2506           30563                                    OCCULT
000505: 14,2507           76614                           BON      VLOAD*
000506: 14,2510           01710                                    CULTFLAG
000507: 14,2511           30501                                    PIC3
000508: 14,2512           33776                                    CATLOG,1
000509: 14,2513           45237                           DOT*     DSU
000510: 14,2514           44001                                    CATLOG,2
000511: 14,2515           30605                                    CSS66                                 #  SEPARATION LESS THAN 76 DEG.
000512: 14,2516           43240                           BMN      DAD
000513: 14,2517           30501                                    PIC3
000514: 14,2520           30607                                    CSS6640                               #  SEPARATION MORE THAN 30 DEG.
000515: 14,2521           77644                           BPL
000516: 14,2522           30501                                    PIC3
000517: 14,2523           50373                           VLOAD*   DOT
000518: 14,2524           33776                                    CATLOG,1
000519: 14,2525           02741                                    SAX
000520: 14,2526           50025                           DSU      BMN                                   #  MAJOR STAR IN CONE
000521: 14,2527           30611                                    CSS33
000522: 14,2530           30467                                    PIC1
000523: 14,2531           50373                           VLOAD*   DOT
000524: 14,2532           44001                                    CATLOG,2
000525: 14,2533           02741                                    SAX
000526: 14,2534           50025                           DSU      BMN
000527: 14,2535           30611                                    CSS33
000528: 14,2536           30501                                    PIC3
000529: 14,2537           77614        STRATGY            BONCLR
000530: 14,2540           01605                                    VFLAG
000531: 14,2541           30556                                    NEWPAR
000532: 14,2542           65120                 -3        XCHX,1   XCHX,2
000533: 14,2543           00302                                    BESTI
000534: 14,2544           00303                                    BESTJ
000535: 14,2545           47773        STRAT              VLOAD*   DOT*
000536: 14,2546           33776                                    CATLOG,1
000537: 14,2547           44001                                    CATLOG,2
000538: 14,2550           43006                           PUSH     BOFINV
000539: 14,2551           01545                                    VFLAG
000540: 14,2552           30542                                    STRAT      -3
000541: 14,2553           45345                           DLOAD    DSU
000542: 14,2554           77644                           BPL
000543: 14,2555           30501                                    PIC3
000544: 14,2556           67130        NEWPAR             SXA,1    SXA,2
000545: 14,2557           00302                                    BESTI
000546: 14,2560           00303                                    BESTJ
000547: 14,2561           77650                           GOTO
000548: 14,2562           30501                                    PIC3
000549: 14,2563           51321        OCCULT             MXV      BVSU
000550: 14,2564           02725                                    CULTRIX
000551: 14,2565           00017                                    CSS
000552: 14,2566           71240                           BMN      DLOAD
000553: 14,2567           30575                                    CULTED
000554: 14,2570           00160                                    MPAC       +3
000555: 14,2571           43040                           BMN      CLRGO
000556: 14,2572           30575                                    CULTED
000557: 14,2573           01630                                    CULTFLAG
000558: 14,2574           00052                                    QPRET
000559: 14,2575           77614        CULTED             SETGO
000560: 14,2576           01430                                    CULTFLAG
000561: 14,2577           00052                                    QPRET
000562: 14,2600  0000016               CSS                =        CSUN
000563: 14,2600           21150 25157  SIN33              2DEC     .5376381241
000564:
000565: 14,2602           32766 22713  COS33              2DEC     .8431756920
000566:
000567: 14,2604           01736 35137  CSS66              2DEC     .060480472                            #  (COS76)/4
000568:
000569: 14,2606           73003 65403  CSS6640            2DEC     -.15602587                            #  (COS76 - COS30)/4
000570:
000571: 14,2610           06233 26112  CSS33              2DEC     .197002688                            #  COS(1/2(76))/4
000572:
000573:                                                                                                  # V1             =       12D
000574: 14,2612           77414        PICEND             BOF      EXIT
000575: 14,2613           01745                                    VFLAG
000576: 14,2614           30625                                    P52F
000577: 14,2615           05644        P52I               TC       ALARM
000578: 14,2616           00405                           OCT      405
000579: 14,2617           35036                           CAF      V05N09
000580: 14,2620           04647                           TC       BANKCALL
000581: 14,2621           20623                           CADR     GOFLASH
000582: 14,2622           04103                           TC       GOTOPOOH
000583: 14,2623           02627                           TC       R51                                   #  PROCEED - DO R51 FINE ALIGN
000584: 14,2624           02417                           TC       P52C                                  #  RECYCLE - VEHICLE HAS BEEN MANUEVERED
000585: 14,2625           77776        P52F               EXIT
000586: 14,2626           12627                           TCF      R51
000587:
000588:
000589:                                                                                                  #  NAME - R51    FINE ALIGN
000590:                                                                                                  #  FUNCTION - TO ALIGN THE STABLE MEMBER TO REFSMMAT
000591:                                                                                                  #  INPUT - BESTI, BESTJ (PAIR OF STAR NO )
000592:                                                                                                  #  OUTPUT - GYRO TORQUE PULSES
000593:                                                                                                  #  SUBROUTINES - R52, R54, R55 (SXTNB, NBSM, AXISGEN
000594:
000595: 14,2627                                           COUNT*   $$/R51
000596: 14,2627           35001        R51                CAF      BIT1
000597: 14,2630           54304        R51.3              TS       STARIND
000598:
000599: 14,2631           05415                           TC       PHASCHNG
000600: 14,2632           05024                           OCT      05024                                 #  RESTART  GR 4  FOR R52-R53
000601: 14,2633           13000                           OCT      13000
000602: 14,2634           50304                           INDEX    STARIND
000603: 14,2635           30302                           CA       BESTI
000604: 14,2636           00006                           EXTEND
000605: 14,2637           73007                           MP       1/6TH
000606: 14,2640           55130                           TS       STARCODE
000607:
000608: 14,2641           35031        R51DSP             CAF      V01N70
000609: 14,2642           05553                           TC       VNFLASHR
000610: 14,2643           02647                           TC       +4
000611: 14,2644           36211                           CAF      SIX
000612: 14,2645           05531                           TC       BLANKET
000613: 14,2646           15220                           TCF      ENDOFJOB
000614: 14,2647           03520                           TC       CHKSCODE
000615: 14,2650           04362                           TC       FALTON
000616: 14,2651           02641                           TC       R51DSP
000617: 14,2652           06006                           TC       INTPRET
000618: 14,2653           45034                           RTB      CALL
000619: 14,2654           45563                                    LOADTIME
000620: 14,2655           31545                                    PLANET
000621: 14,2656           72131                           SSP      LXA,1
000622: 14,2657           00051                                    S1
000623: 14,2660           00000                                    0
000624: 14,2661           00304                                    STARIND
000625: 14,2662           77700                           TIX,1
000626: 14,2663           30666                                    R51ST
000627: 14,2664           36617                           STCALL   STARSAV2                              #  2ND STAR
000628: 14,2665           30667                                    R51ST      +1
000629: 14,2666           02611        R51ST              STORE    STARSAV1                              #  1ST STAR
000630: 14,2667           54335                 +1        SLOAD    SL                                    #  IS THIS P54
000631: 14,2670           01205                                    MODREG
000632: 14,2671           20215                                    12D
000633: 14,2672           45030                           BHIZ     CALL
000634: 14,2673           30770                                    R51A1                                 #  NO
000635: 14,2674           36146                                    R56
000636: 14,2675           77624        R51B               CALL
000637: 14,2676           36065                                    SXTSM
000638: 14,2677           02617                           STORE    STARSAV2
000639: 14,2700           45145                           DLOAD    CALL
000640: 14,2701           02607                                    TSIGHT
000641: 14,2702           31545                                    PLANET
000642: 14,2703           53521                           MXV      UNIT
000643: 14,2704           01720                                    REFSMMAT
000644: 14,2705           77776                           EXIT
000645: 14,2706           10304                           CCS      STARIND
000646: 14,2707           02761                           TC       R51.4
000647: 14,2710           06006                           TC       INTPRET
000648: 14,2711           26725                           STOVL    STARAD
000649: 14,2712           02617                                    STARSAV2
000650: 14,2713           24007                           STOVL    6D
000651: 14,2714           02611                                    STARSAV1
000652: 14,2715           24015                           STOVL    12D
000653: 14,2716           02601                                    PLANVEC
000654: 14,2717           36733                           STCALL   STARAD     +6
000655: 14,2720           34644                                    R54                                   #  STAR DATA TEST
000656: 14,2721           45014                           BOFF     CALL
000657: 14,2722           00354                                    FREEFLAG
000658: 14,2723           31004                                    R51K
000659: 14,2724           47373                                    AXISGEN
000660:
000661:                                                                                                  #  NAME - R55 - GYRO TORQUE
000662:                                                                                                  #  FUNCTION - COMPUTE AND SEND GYRO PULSES
000663:                                                                                                  #  INPUT - X,Y,ZDC - REFSMMAT WRT PRESENT STABLE MEMBER
000664:                                                                                                  #  OUTPUT - GYRO PULSES
000665:                                                                                                  #  SUBROUTINES - CALCGTA, GOFLASH, GODSPR, IMUFINE, IMUPULSE, GOPERF1
000666:
000667: 14,2725                                           COUNT*   $$/R55
000668: 14,2725           77624        R55                CALL                                           #  COMPUTE AND SEND GYRO PULSES
000669: 14,2726           47177                                    CALCGTA
000670: 14,2727           77776        PULSEM             EXIT
000671: 14,2730           35052        R55.1              CAF      V06N93
000672: 14,2731           04647                           TC       BANKCALL
000673: 14,2732           20623                           CADR     GOFLASH
000674: 14,2733           04103                           TC       GOTOPOOH
000675: 14,2734           02736                           TC       R55.2
000676: 14,2735           02751                           TC       R55RET
000677: 14,2736           05415        R55.2              TC       PHASCHNG
000678: 14,2737           00314                           OCT      00314
000679: 14,2740  01,2173               4P31SPT1           =        4.31SPOT
000680: 14,2740           33006                           CA       R55CDR
000681: 14,2741           04647                           TC       BANKCALL
000682: 14,2742           17175                           CADR     IMUPULSE
000683: 14,2743           04647                           TC       BANKCALL
000684: 14,2744           17575                           CADR     IMUSTALL
000685: 14,2745           03653                           TC       217ALARM                              #  BAD END
000686: 14,2746           05415                           TC       PHASCHNG
000687: 14,2747           05024                           OCT      05024
000688: 14,2750           13000                           OCT      13000
000689: 14,2751           07722        R55RET             TC       DOWNFLAG
000690: 14,2752           00051                           ADRES    PFRATFLG
000691: 14,2753                                           COUNT*   $$/R51
000692: 14,2753           35750        R51KA              CAF      OCT14
000693: 14,2754           04647                           TC       BANKCALL
000694: 14,2755           20747                           CADR     GOPERF1
000695: 14,2756           04103                           TC       GOTOPOOH
000696: 14,2757           02417                           TC       P52C                                  #  V33
000697: 14,2760           04103                           TC       GOTOPOOH
000698: 14,2761           06006        R51.4              TC       INTPRET
000699: 14,2762           26601                           STOVL    PLANVEC
000700: 14,2763           02617                                    STARSAV2
000701: 14,2764           02611                           STORE    STARSAV1
000702: 14,2765           77776                           EXIT
000703: 14,2766           35003                           CAF      ZERO
000704: 14,2767           12630                           TCF      R51.3                                 #  CLEAR STARIND
000705: 14,2770           54335        R51A1              SLOAD    SR
000706: 14,2771           01131                                    STARCODE
000707: 14,2772           20607                                    6
000708: 14,2773           45030                           BHIZ     CALL
000709: 14,2774           31000                                    R51A
000710: 14,2775           31433                                    R53
000711: 14,2776           77650                           GOTO
000712: 14,2777           30675                                    R51B
000713: 14,3000           77624        R51A               CALL
000714: 14,3001           31010                                    R52
000715: 14,3002           77650                           GOTO
000716: 14,3003           30675                                    R51B
000717: 14,3004           77776        R51K               EXIT
000718: 14,3005           02753                           TC       R51KA
000719: 14,3006           02757        R55CDR             ECADR    OGC
000720: 14,3007           05253        1/6TH              DEC      .1666667
000721:
000722:                                                                                                  #  NAME - R52 - AUTOMATIC OPTICS POSITIONING ROUTINE
000723:
000724:                                                                                                  #  FUNCTION-  (1) TO POINT THE STAR LOS OF THE OPTICS AT A STAR OR LANDMARK DEFINED BY THE PROGRAM OR BY DSKY INPUT.
000725:                                                                                                  #             (2) TO POINT THE STAR LOS OF THE OPTICS AT THE LEM DURING RENDEZVOUS TRACKING OPERATIONS.
000726:
000727:                                                                                                  #  CALLING SEQUENCE- CALL R52
000728:
000729:                                                                                                  #  INPUT- 1. TARG1FLG AND TARG2FLG - PRESET BY CALLER
000730:                                                                                                  #         2. RNDVZFLG AND TRACKFLG - PRESET BY CALLER
000731:                                                                                                  #         3. STAR CODE - PRESET BY CALLER. ALSO INPUT THROUGH DSKY
000732:                                                                                                  #         4. LAT, LONG AND ALT OF LANDMARK - INPUT THROUGH DSKY
000733:                                                                                                  #         5. NO. OF MARKS (MARKINDX) - PRESET BY CALLER
000734:
000735:                                                                                                  #  OUTPUT- DRIVE SHAFT AND TRUNNION CDUS
000736:
000737:                                                                                                  #  SUBROUTINES-  1.  FIXDELAY            7.  CLEANDSP
000738:                                                                                                  #                2.  GOPERF1             8.  GODSPR
000739:                                                                                                  #                3.  GOFLASH             9.  REFLASHR
000740:                                                                                                  #                4.  R53                 10. R52.2
000741:                                                                                                  #                5.  ALARM               11. R52.3
000742:                                                                                                  #                6.  SR52.1
000743:
000744: 14,3010                                           COUNT*   $$/R52
000745: 14,3010           77420        R52                STQ      EXIT
000746: 14,3011           02576                                    SAVQR52
000747: 14,3012           35055                           CAF      EBANK5                                #  CALLER NOT ALWAYS IN E5.
000748: 14,3013           56003                           XCH      EBANK
000749: 14,3014           55577                           TS       R52BNKSV
000750: 14,3015           00006                           EXTEND
000751: 14,3016           30036                           DCA      CDUT
000752: 14,3017           53303                           DXCH     DESOPTT
000753: 14,3020           06006                           TC       INTPRET
000754: 14,3021           43131                           SSP      CLEAR
000755: 14,3022           01314                                    OPTIND
000756: 14,3023           00000                                    0
000757: 14,3024           00271                                    R53FLAG
000758: 14,3025           43014                           BON      CLEAR
000759: 14,3026           00705                                    TARG1FLG
000760: 14,3027           31161                                    R52H
000761: 14,3030           03660                                    TERMIFLG
000762: 14,3031           77776                           EXIT
000763: 14,3032           31346        R52C               CA       SWSAMPLE                              #  IS OPTICS MODE IN AGC
000764: 14,3033           00006                           EXTEND
000765: 14,3034           63204                           BZMF     R52M                                  #  MANUAL
000766: 14,3035           06006        R52D               TC       INTPRET                               #  THIS IS SR52.1 - NOW IN-LINE
000767:                                                                                                  #  NAME - SR52.1
000768:
000769:                                                                                                  #  FUNCTION
000770:                                                                                                  #   TARG1 AND TARG2 FLAGS ARE LOOKED AT TO DETERMINE IF THE TARGET IS THE
000771:                                                                                                  #   LEM, STAR OR LANDMARK. IN CASE OF LEM OR LMK, THE PRESENT TIME PLUS
000772:                                                                                                  #   2 SECONDS IS SAVED IN AOPTIME (ALIAS STARAD, +1). IF THE LEM IS
000773:                                                                                                  #   THE TARGET THEN CONIC UPDATES OF THE CSM AND LEM ARE MADE TO
000774:                                                                                                  #   THE TIME IN AOPTIME. THE UNIT OF THE DIFFERENCE OF LEM AND CSM
000775:                                                                                                  #   POSITION VECTORS BECOMES THE REFERENCE SIGHTING VECTOR USED IN THE
000776:                                                                                                  #   COMMON PART OF THIS PROGRAM.
000777:
000778:                                                                                                  #   IN THE CASE OF LANDMARK, THE CSM IS UPDATED CONICALLY. THE RADIUS
000779:                                                                                                  #   VECTOR FOR THE LANDMARK IS OBTAINED FROM LALOTORV. BOTH OF THESE ARE
000780:                                                                                                  #   FOUND FOR THE TIME IN AOPTIME. THE UNIT OF THE DIFFERENCE BETWEEN
000781:                                                                                                  #   THE LANDMARK AND CSM RADIUS VECTORS BECOMES THE REFERENCE SIGHTING
000782:                                                                                                  #   VECTOR FOR THE COMMON PART OF THIS ROUTINE.
000783:
000784:                                                                                                  #   IF A STAR IS THE TARGET, THE PROPER STAR IS OBTAINED FROM THE CATALOG
000785:                                                                                                  #   AND THIS VECTOR BECOMES THE REFERENCE SIGHTING VECTOR.
000786:
000787:                                                                                                  #   THE COMMON PART OF THIS PROGRAM TRANSFORMS THE REFERENCE SIGHTING
000788:                                                                                                  #   VECTOR INTO STABLE MEMBER COORDINATES. IT READS THE IMU-CDUS AND USES
000789:                                                                                                  #   THIS DATA IN A CALL TO CALCSXA. ON RETURN FROM CALCSXA A TEST IS
000790:                                                                                                  #   MADE TO SEE IF THE TRUNNION ANGLE IS GREATER THAN 90DEG. OR 50DEG.
000791:
000792:                                                                                                  #  OUTPUT
000793:                                                                                                  #   SAC - SINGLE PREC, 2S COMP, SCALED AT HALF REVS - SHAFT ANGLE DESIRED
000794:                                                                                                  #   PAC - SINGLE PREC, 2S COMP SCALED AT EIGTH REVS - TRUNNION ANGLE DESIRED
000795:
000796:                                                                                                  #  INITIALIZATION
000797:                                                                                                  #   IF TARG1FLG =1 THEN TARGET IS LEM - NO OTHER INPUT REQUIRED
000798:                                                                                                  #   IF TARG1FLG =0 AND TARG2FLG =0 THE TARGET IS STAR, STARIND SHOULD
000799:                                                                                                  #   0 OR 1 DENOTING BESTI OR BESTJ RESPECTIVELY AS STAR CODE. STAR CODES
000800:                                                                                                  #   ARE 6 TIMES STAR NUMBER.
000801:                                                                                                  #   IF TARG1FLG =0 AND TARG2FLG =1 THEN TARGET IS LANDMARK. SEE ROUTINE
000802:                                                                                                  #   LALOTORV FOR INPUT REQUIREMENTS. HERE FIXERAD=1 FOR CONSTANT EARTH
000803:                                                                                                  #   RADIUS
000804:
000805:                                                                                                  #  DEBRIS
000806:                                                                                                  #   WORK AREA
000807:                                                                                                  #   STARAD - STAR+5 (STAR IS DESIRED LOS IN STABLE MEMBER COORDINATES)
000808:
000809: 14,3036           66214                 +1        BON      SSP
000810: 14,3037           00705                                    TARG1FLG
000811: 14,3040           31051                                    LEM52
000812: 14,3041           00051                                    S1
000813: 14,3042           00000                                    0
000814: 14,3043           60150                           LXA,1    TIX,1
000815: 14,3044           00304                                    STARIND
000816: 14,3045           31071                                    ST52ST
000817: 14,3046           52175                           VLOAD    GOTO
000818: 14,3047           02617                                    STARSAV2
000819: 14,3050           31073                                    COM52
000820: 14,3051           43234        LEM52              RTB      DAD
000821: 14,3052           45563                                    LOADTIME
000822: 14,3053           31230                                    2.4SECDP
000823: 14,3054           34041                           STCALL   TDEC1
000824: 14,3055           11435                                    LEMCONIC
000825: 14,3056           77775                           VLOAD
000826: 14,3057           00001                                    RATT
000827: 14,3060           16766        LMKLMCOM           STODL    STAR
000828: 14,3061           00015                                    TAT
000829: 14,3062           34041                           STCALL   TDEC1
000830: 14,3063           11423                                    CSMCONIC
000831: 14,3064           52375                           VLOAD    VSU
000832: 14,3065           02766                                    STAR
000833: 14,3066           00001                                    RATT
000834: 14,3067           52056                           UNIT     GOTO
000835: 14,3070           31073                                    COM52
000836: 14,3071           77775        ST52ST             VLOAD
000837: 14,3072           02611                                    STARSAV1
000838: 14,3073           53521        COM52              MXV      UNIT
000839: 14,3074           01720                                    REFSMMAT
000840: 14,3075           02766                           STORE    STAR
000841: 14,3076           45001                           SETPD    CALL
000842: 14,3077           00001                                    0
000843: 14,3100           47471                                    CDUTRIG                               #  COMPUTES SINES AND COSINES FOR CALCSXA
000844: 14,3101           77624                           CALL                                           #        NOW EXPECT TO SEE THE CDU ANGLES
000845: 14,3102           46034                                    CALCSXA
000846: 14,3103           71214                           BON      DLOAD
000847: 14,3104           01710                                    CULTFLAG
000848: 14,3105           31235                                    R52L                                  #  GR 90 DEGREES
000849: 14,3106           02776                                    PAC
000850: 14,3107           51025                           DSU      BPL
000851: 14,3110           31226                                    38TRDEG
000852: 14,3111           31200                                    R52J                                  #  GR 50 DEGREES
000853: 14,3112           45345                           DLOAD    DSU
000854: 14,3113           02776                                    PAC
000855: 14,3114           31234                                    20DEGSMN
000856: 14,3115           77440                           BMN      EXIT
000857: 14,3116           31200                                    R52J
000858: 14,3117           31775                           CA       PAC
000859: 14,3120           54330                           TS       PACTEMP
000860: 14,3121           06006        R52JA              TC       INTPRET
000861: 14,3122           77614                           BON
000862: 14,3123           00705                                    TARG1FLG
000863: 14,3124           31134                                    R52E
000864: 14,3125           77414        R53CHK             BON      EXIT
000865: 14,3126           00311                                    R53FLAG
000866: 14,3127           31134                                    R52E
000867: 14,3130           33224                           CAF      V06N92                                #  NO
000868: 14,3131           04647                           TC       BANKCALL
000869: 14,3132           20570                           CADR     GODSPR
000870: 14,3133           06006                           TC       INTPRET
000871: 14,3134           77776        R52E               EXIT
000872: 14,3135           30330                           CA       PACTEMP
000873: 14,3136           55302                           TS       DESOPTT
000874: 14,3137           31773                           CA       SAC
000875: 14,3140           55303                           TS       DESOPTS
000876: 14,3141           35023        R52F               CAF      .5SEC                                 #  WAIT .5 SEC
000877: 14,3142           04647                 +1        TC       BANKCALL
000878: 14,3143           01731                           CADR     DELAYJOB
000879: 14,3144           34770                           CAF      TARG1BIT
000880: 14,3145           70075                           MASK     FLAGWRD1
000881: 14,3146           10000                           CCS      A
000882: 14,3147           03162                           TC       R52HA
000883:
000884: 14,3150           34763                           CAF      TERMIBIT
000885: 14,3151           70103                           MASK     FLAGWRD7
000886: 14,3152           00006                           EXTEND
000887: 14,3153           13032                           BZF      R52C
000888:
000889: 14,3154           31577        R52Q               CA       R52BNKSV
000890: 14,3155           54003                           TS       EBANK
000891:
000892: 14,3156           06006                           TC       INTPRET
000893: 14,3157           77650                           GOTO
000894: 14,3160           02576                                    SAVQR52
000895:
000896: 14,3161           77776        R52H               EXIT                                           #  LEM
000897: 14,3162           04647        R52HA              TC       BANKCALL
000898: 14,3163           76222                           CADR     R61CSM
000899: 14,3164           34775                           CAF      TRACKBIT
000900: 14,3165           70075                           MASK     FLAGWRD1
000901: 14,3166           00006                           EXTEND
000902: 14,3167           13154                           BZF      R52Q
000903: 14,3170           06006                           TC       INTPRET
000904: 14,3171           52014                           BOF      GOTO
000905: 14,3172           00750                                    UPDATFLG
000906: 14,3173           31175                                    R52SYNC
000907: 14,3174           31036                                    R52D       +1
000908: 14,3175           77776        R52SYNC            EXIT
000909: 14,3176           33250                           CAF      1.8SEC
000910: 14,3177           13142                           TCF      R52F       +1
000911: 14,3200           77776        R52J               EXIT
000912: 14,3201           33225                           CA       38TRDEG
000913: 14,3202           54330                           TS       PACTEMP
000914: 14,3203           03121                           TC       R52JA
000915: 14,3204           34774        R52M               CAF      R53FLBIT                              #  IS R53FLAG SET
000916: 14,3205           70074                           MASK     FLAGWRD0
000917: 14,3206           10000                           CCS      A
000918: 14,3207           03141                           TC       R52F                                  #  YES
000919: 14,3210           00004                           INHINT                                         #  NO
000920: 14,3211           37645                           CAF      PRIO24
000921: 14,3212           05150                           TC       FINDVAC
000922: 14,3213  E7,1702                                  EBANK=   MRKBUF1
000923: 14,3213           03217 30067                     2CADR    R53JOB
000924:
000925: 14,3215           00003                           RELINT
000926: 14,3216           03141                           TC       R52F
000927: 14,3217           06006        R53JOB             TC       INTPRET
000928: 14,3220           77624                           CALL
000929: 14,3221           31433                                    R53
000930: 14,3222           77776        ENDPLAC            EXIT                                           #  INTERPRETER RETURN TO ENDOFJOB (R22 USES)
000931: 14,3223           05220                           TC       ENDOFJOB
000932: 14,3224           01534        V06N92             VN       00692
000933: 14,3225           25252 25254  38TRDEG            2DEC     .66666667                             #  CORRESPONDS TO 50 DEGS IN TRUNNION
000934:
000935: 14,3227           00000 00360  2.4SECDP           2DEC     240        B-28
000936:
000937: 14,3231           00000 00062  .5SECDP            2DEC     50         B-28
000938:
000939: 14,3233           61740        20DEGSMN           DEC      -07199     B-14
000940: 14,3234           77777                           DEC      -0         B-14
000941: 14,3235           77414        R52L               BON      EXIT
000942: 14,3236           00705                                    TARG1FLG
000943: 14,3237           31200                                    R52J
000944: 14,3240           33247                           CAF      OCT404
000945: 14,3241           04647                           TC       BANKCALL
000946: 14,3242           21646                           CADR     PRIOLARM
000947: 14,3243           13251                           TCF      TERM52                                #  TERMINATE
000948: 14,3244           13141                           TCF      R52F                                  #  PROCEED
000949: 14,3245           13141                           TCF      R52F                                  #  NO PROVISION FOR NEW DATA
000950: 14,3246           15220                           TCF      ENDOFJOB
000951:
000952: 14,3247           00404        OCT404             OCT      404
000953:
000954: 14,3250           00264        1.8SEC             DEC      180        B-14
000955:
000956: 14,3251           04647        TERM52             TC       BANKCALL
000957: 14,3252           20455                           CADR     KLEENEX
000958:
000959: 14,3253           04666                           TC       POSTJUMP
000960: 14,3254           16015                           CADR     TERMSXT
000961:
000962:                                                                                                  #  NAME - LOCSAM ALIAS S50
000963:
000964:                                                                                                  #  FUNCTION - TO COMPUTE QUATITIGS LISTED BELOW, USED IN THE
000965:                                                                                                  #             IMU ALIGNMENT PROGRAMS
000966:
000967:                                                                                                  #  DEFINE:
000968:                                                                                                  #        RATT    = POSITION VECTOR OF CM  WRT PRIMARY BODY
000969:                                                                                                  #        VATT    = VELOCITY VECTOR OF CM  WRT PRIMARY BODY
000970:                                                                                                  #        RE      = RADIUS OF EARTH
000971:                                                                                                  #        RM      = RADIUS OF MOON
000972:                                                                                                  #        ECLIPOL = POLE OF ECLIPTIC SCALED BY TANGENTIAL VELOCITY OF EARTH
000973:                                                                                                  #                  WRT TO SUN  OVER  THE VELOCITY OF LIGHT
000974:                                                                                                  #        REM     = POSITION OF MOON  WRT  EARTH
000975:                                                                                                  #        RES     = POSITION OF SUN  WRT  EARTH
000976:                                                                                                  #        C       = VELOCITY OF LIGHT
000977:
000978:
000979:                                                                                                  #                EARTH IS PRIMARY                        MOON IS PRIMARY
000980:                                                                                                  #                        -                                       -
000981:                                                                                                  #                VEARTH=-1(RATT)                         VEARTH=-1(REM+RATT)
000982:                                                                                                  #                        -                                       -
000983:                                                                                                  #                VMOON = 1(REM-RATT)                     VMOON =-1(RATT)
000984:                                                                                                  #                        -                                       -
000985:                                                                                                  #                VSUN  = 1(RES)                          VSUN  = 1(RES-REM)
000986:                                                                                                  #                              -1
000987:                                                                                                  #                CEARTH=COS(SIN  (RE/RATT)+5)            CEARTH=COS 5
000988:                                                                                                  #                                                                      -1
000989:                                                                                                  #                CMOON =COS 5                            CMOON =COS(SIN  CRM/RATT)+5)
000990:
000991:                                                                                                  #                CSUN  =COS 15                           CSUN  =COS 15
000992:
000993:                                                                                                  #                            VEL/C = VSUN X ECLIPOL + VATT/C
000994:
000995:
000996:                                                                                                  #  CALL -        DLOAD   CALL
000997:                                                                                                  #                        DESIRED TIME
000998:                                                                                                  #                        LOCSAM
000999:
001000:                                                                                                  #  INPUTS - MPAC = TIME
001001:
001002:                                                                                                  #  OUTPUTS- VEARTH,VMOON,VSUN,CEARTH,CMOON,CSUN,VEL/C
001003:
001004:                                                                                                  #  SUBROUTINES- LSPOS,CSMCONIC
001005:
001006:                                                                                                  #  DEBRIS - VAC AREA, SEE SUBROUTINES
001007:
001008: 12,2000                                           SETLOC   SR52/1
001009: 12,2000                                           BANK
001010:
001011: 12,2040                                           COUNT*   $$/S50
001012:
001013: 12,2040  12,2040               LOCSAM             =        S50
001014: 12,2040           77620        S50                STQ
001015: 12,2041           00300                                    QMAJ
001016: 12,2042           36607                           STCALL   TSIGHT
001017: 12,2043           54034                                    LSPOS
001018: 12,2044           77775                           VLOAD
001019: 12,2045           00003                                    2D
001020: 12,2046           16725                           STODL    VSUN
001021: 12,2047           02607                                    TSIGHT
001022: 12,2050           34041                           STCALL   TDEC1
001023: 12,2051           11423                                    CSMCONIC
001024: 12,2052           77775        EARTCNTR           VLOAD
001025: 12,2053           00001                                    RATT
001026: 12,2054           57456                           UNIT     VCOMP
001027: 12,2055           16733                           STODL    VEARTH
001028: 12,2056           34625                                    RSUBE
001029: 12,2057           70471        OCCOS              DDV      SR1
001030: 12,2060           00045                                    36D
001031: 12,2061           43336                           ASIN     DAD
001032: 12,2062           34627                                    5DEGREES
001033: 12,2063           70546                           COS      SR1
001034: 12,2064           24021                           STOVL    CEARTH
001035: 12,2065           02725                                    VSUN
001036: 12,2066           77635        ENDSAM             VXV
001037: 12,2067           34633                                    ECLIPOL
001038: 12,2070           27452                           STOVL    VEL/C
001039: 12,2071           00007                                    VATT
001040: 12,2072           53361                           VXSC     VAD
001041: 12,2073           34631                                    1/C
001042: 12,2074           03452                                    VEL/C
001043: 12,2075           17452                           STODL    VEL/C
001044: 12,2076           34643                                    CSSUN
001045: 12,2077           34017                           STCALL   CSUN
001046: 12,2100           00300                                    QMAJ
001047: 16,2000                                           SETLOC   P50S2
001048: 16,2000                                           BANK
001049: 16,2624                                           COUNT*   $$/S50
001050: 16,2624           00302 24533  RSUBE              2DEC     6378166    B-29
001051:
001052: 16,2626           00343 21616  5DEGREES           2DEC     .013888889                            #  SCALED IN REVS
001053:
001054: 16,2630           00000 13143  1/C                2DEC     .000042696 B-1                        #  1/(9835712 FT/CS) SCALED CSEC/M B+7
001055:
001056: 16,2632           00000 00000  ECLIPOL            2DEC     0          B-28                       #  POLE OF ECLIPTIC FOR B0=.409157363336 RAD
001057:
001058: 16,2634           77777 53213                     2DEC     -.0000395319722                            #  AND CONST.AB = 20.496 ARC-SEC
001059:
001060: 16,2636           00001 17630                     2DEC     +.0000911652662                            #  ECLIPOL = CONST.AB.(0, -SIN B0, COS B0)
001061:
001062: 16,2640           00001 16700  TSIGHT1            2DEC     24000      B-28
001063:
001064: 16,2642                        CSUN               =        14D
001065: 16,2642                        CEARTH             =        16D
001066:
001067: 16,2642           07564 15042  CSSUN              2DEC     .24148                                #  COS 15 /4
001068:
001069: 16,2644  16,2644               R54                =        CHKSDATA
001070:
001071:                                                                                                  #  NAME - CHKSDATA
001072:
001073:                                                                                                  #  FUNCTIONAL DESCRIPTION - CHECKS THE VALIDITY OF A PAIR OF STAR SIGHTINGS. WHEN A PAIR OF STAR SIGHTINGS ARE MADE
001074:                                                                                                  #  BY THE ASTRONAUT THIS ROUTINE OPERATES AND CHECKS THE OBSERVED SIGHTINGS AGAINST STORED STAR VECTORS IN THE
001075:                                                                                                  #  COMPUTER TO INSURE A PROPER SIGHTING WAS MADE. THE FOLLOWING COMPUTATIONS ARE PERFORMED_
001076:
001077:                                                                                                  #        OS1 = OBSERVED STAR 1 VECTOR
001078:                                                                                                  #        OS2 = OBSERVED STAR 2 VECTOR
001079:                                                                                                  #        SS1 = STORED STAR 1 VECTOR
001080:                                                                                                  #        SS2 = STORED STAR 2 VECTOR
001081:                                                                                                  #         A1 = ARCCOS(OS1 - OS2)
001082:                                                                                                  #         A2 = ARCCOS(SS1 - SS2)
001083:                                                                                                  #          A = ABS(2(A1 - A2))
001084:
001085:                                                                                                  #  THE ANGULAR DIFFERENCE IS DISPLAYED FOR ASTRONAUT ACCEPTENCE
001086:                                                                                                  #  EXIT MODE 1. FREEFLAG SET  IMPLIES ASTRONAUT WANTS TO PROCEED
001087:                                                                                                  #            2. FREEFLAG RESET IMPLIES ASTRONAUT WANTS TO RECYCLE            ERANCE)
001088:                                                                                                  #  OUTPUT - 1. VERB 6,NOUN 3 - DISPLAYS ANGULAR DIFFERENCE BETWEEN 2 SETS OF STARS.
001089:                                                                                                  #           2. STAR VECTORS FROM STAR CATALOG ARE LEFT IN 6D AND 12D.
001090:
001091:                                                                                                  #  ERASABLE INITIALIZATION REQUIRED -
001092:                                                                                                  #        1. MARK VECTORS ARE STORED IN STARAD AND STARAD +6.
001093:                                                                                                  #        2. CATALOG VECTORS ARE STORED IN 6D AND 12D.
001094:
001095:                                                                                                  #  DEBRIS -
001096:
001097: 16,2644  0003777                                  EBANK=   WHOCARES
001098: 16,2644                                           COUNT*   $$/R54
001099: 16,2644           43020        CHKSDATA           STQ      SET
001100: 16,2645           02777                                    QMIN
001101: 16,2646           00074                                    FREEFLAG
001102: 16,2647           77760        CHKSAB             AXC,1                                          #  SET X1 TO STORE EPHEMERIS DATA
001103: 16,2650           02724                                    STARAD
001104:
001105: 16,2651           47773        CHKSB              VLOAD*   DOT*                                  #  CAL. ANGLE THETA
001106: 16,2652           00001                                    0,1
001107: 16,2653           00007                                    6,1
001108: 16,2654           65552                           SL1      ACOS
001109: 16,2655           00025                           STORE    THETA
001110: 16,2656           43014                           BOFF     INVERT                                #  BRANCH TO CHKSD IF THIS IS 2ND PASS
001111: 16,2657           00354                                    FREEFLAG
001112: 16,2660           34667                                    CHKSD
001113: 16,2661           00174                                    FREEFLAG                              #  CLEAR FREEFLAG
001114: 16,2662           71360                           AXC,1    DLOAD                                 #  SET X1 TO MARK ANGLES
001115: 16,2663           00006                                    6D
001116: 16,2664           00025                                    THETA
001117: 16,2665           34023                           STCALL   18D
001118: 16,2666           34651                                    CHKSB
001119: 16,2667           45345        CHKSD              DLOAD    DSU
001120: 16,2670           00025                                    THETA
001121: 16,2671           00023                                    18D                                   #  COMPUTE POS DIFF
001122: 16,2672           47046                           ABS      RTB
001123: 16,2673           45617                                    SGNAGREE
001124: 16,2674           77752                           SL1
001125: 16,2675           15241                           STODL    NORMTEM1
001126: 16,2676           00023                                    18D
001127: 16,2677           77752                           SL1
001128: 16,2700           01242                           STORE    DSPTEM1    +1
001129: 16,2701           77414                           SET      EXIT
001130: 16,2702           00074                                    FREEFLAG
001131: 16,2703           35003                           CAF      ZERO
001132: 16,2704           04647                           TC       BANKCALL
001133: 16,2705           20575                           CADR     CLEANDSP
001134:
001135: 16,2706           32720                           CAF      VB6N5
001136: 16,2707           04647                           TC       BANKCALL
001137: 16,2710           20623                           CADR     GOFLASH
001138: 16,2711           14103                           TCF      GOTOPOOH
001139: 16,2712           02715                           TC       CHKSDA                                #  PROCEED
001140: 16,2713           07722                           TC       DOWNFLAG
001141: 16,2714           00014                           ADRES    FREEFLAG
001142: 16,2715           06006        CHKSDA             TC       INTPRET
001143: 16,2716           77650                           GOTO
001144: 16,2717           02777                                    QMIN
001145: 16,2720           01405        VB6N5              VN       605
001146:
001147: 16,2721                                           COUNT*   $$/R50
001148: 16,2721           77773        MATMOVE            VLOAD*                                         #  TRANSFER MATRIX
001149: 16,2722           00001                                    0,1
001150: 16,2723           10001                           STORE    0,2
001151: 16,2724           77773                           VLOAD*
001152: 16,2725           00007                                    6D,1
001153: 16,2726           10007                           STORE    6D,2
001154: 16,2727           77773                           VLOAD*
001155: 16,2730           00015                                    12D,1
001156: 16,2731           10015                           STORE    12D,2
001157: 16,2732           77616                           RVQ
001158: 16,2733           00056        DEGREE1            DEC      46         B-14
001159: 16,2734           37722        DEG359             DEC      16338      B-14
001160: 16,2735           00004        RDCDUS             INHINT                                         #  READ CDUS
001161: 16,2736           00006                           EXTEND
001162: 16,2737           30033                           DCA      CDUX
001163: 16,2740           50120                           INDEX    FIXLOC
001164: 16,2741           52002                           DXCH     1
001165: 16,2742           30034                           CA       CDUZ
001166: 16,2743           50120                           INDEX    FIXLOC
001167: 16,2744           54003                           TS       3
001168: 16,2745           00003                           RELINT
001169: 16,2746           06030                           TC       DANZIG
001170:
001171:                                                                                                  #  NAME - CALCSMSC
001172:
001173:                                                                                                  #  FUNCTION - DETERMINE AND COMPUTE THE DESIRED GIMBAL ANGLES TO BE USED FOR COARSE ALIGNMENT.
001174:
001175:                                                                                                  #  CALLING SEQUENCE - CALL CALCSMSC
001176:
001177:                                                                                                  #  INPUT - DESIRED IMU INERTIAL ORIENTATION VECTORS - XSMD, YSMD, ZSMD
001178:
001179:                                                                                                  #  OUTPUT - GIMBAL ANGLES LEFT IN THETAD, +1, +2                         +
001180:
001181:                                                                                                  #  SUBROUTINES USED - 1.CDUTRIG 2.CALCSMSC 3.CALCGA
001182:
001183: 16,2000                                           SETLOC   P50S2
001184: 16,2000                                           BANK
001185: 16,2747                                           COUNT*   $$/R51
001186: 16,2747           41345        CALCSMSC           DLOAD    DMP
001187: 16,2750           01132                                    SINCDUY
001188: 16,2751           01142                                    COSCDUZ
001189: 16,2752           77676                           DCOMP
001190: 16,2753           70525                           PDDL     SR1
001191: 16,2754           01134                                    SINCDUZ
001192: 16,2755           41325                           PDDL     DMP
001193: 16,2756           01140                                    COSCDUY
001194: 16,2757           01142                                    COSCDUZ
001195: 16,2760           76466                           VDEF     VSL1
001196: 16,2761           16703                           STODL    XNB
001197: 16,2762           01136                                    SINCDUX
001198: 16,2763           72405                           DMP      SL1
001199: 16,2764           01134                                    SINCDUZ
001200: 16,2765           00033                           STORE    26D
001201: 16,2766           65205                           DMP      PDDL
001202: 16,2767           01132                                    SINCDUY
001203: 16,2770           01144                                    COSCDUX
001204: 16,2771           45205                           DMP      DSU
001205: 16,2772           01140                                    COSCDUY
001206: 16,2773           41325                           PDDL     DMP
001207: 16,2774           01136                                    SINCDUX
001208: 16,2775           01142                                    COSCDUZ
001209: 16,2776           65276                           DCOMP    PDDL
001210: 16,2777           01144                                    COSCDUX
001211: 16,3000           65205                           DMP      PDDL
001212: 16,3001           01132                                    SINCDUY
001213: 16,3002           01140                                    COSCDUY
001214: 16,3003           43205                           DMP      DAD
001215: 16,3004           00033                                    26D
001216: 16,3005           76466                           VDEF     VSL1
001217: 16,3006           02717                           STORE    ZNB
001218: 16,3007           76435                           VXV      VSL1
001219: 16,3010           02703                                    XNB
001220: 16,3011           02711                           STORE    YNB
001221: 16,3012           77616                           RVQ
001222:
001223:                                                                                                  #  PROGRAM NAME - P51 - IMU ORIENTATION DETERMINATION            DATE - AUGUST 1,1969
001224:                                                                                                  #  MODIFICATION BY ALBERT,BARNERT,HASLAM                         LOG SECTION - P51-P5
001225:
001226:                                                                                                  #  FUNCTION -
001227:
001228:                                                                                                  #  DETERMINES THE INERTIAL ORIENTATION OF THE IMU. THE PROGRAM IS SELECTED BY DSKY ENTRY. THE SIGHTING
001229:                                                                                                  #  ROUTINE IS CALLED TO COLLECT THE CDU COUNTERS AND SHAFT AND TRUNNION ANGLES FOR A SIGHTED STAR. THE DATA IS
001230:                                                                                                  #  THEN PROCESSED AS FOLLOWS.
001231:
001232:                                                                                                  #        1. SEXTANT ANGLES ARE COMPUTED IN TERMS OF NAVIGATIONAL BASE COORDINATES. LET SA AND TA BE THE SHAFT AND
001233:                                                                                                  #        TRUNNION ANGLES, RESPECTIVELY. THEN,
001234:                                                                                                  #                -
001235:                                                                                                  #                V  = (SIN(TA)*COS(SA), SIN(TA)*SIN(SA), COS(TA))        (A COLUMN VECTOR)
001236:                                                                                                  #                 NB
001237:                                                                                                  #        THE OUTPUT IS A HALF-UNIT VECTOR STORED IN STARM.
001238:
001239:                                                                                                  #        2. THIS VECTOR IN NAV. BASE COORDS. IS THEN TRANSFORMED TO ONE IN STABLE MEMBER COORDINATES.
001240:
001241:                                                                                                  #                -    T  T  T -
001242:                                                                                                  #                V = Q *Q *Q *V  , WHERE
001243:                                                                                                  #                     1  2  3  NB
001244:
001245:                                                                                                  #                     ( COS(IG)   0    -SIN(IG) )
001246:                                                                                                  #                     (                         )                                THE GIMBAL ANGLES ARE COMPUTED FROM
001247:                                                                                                  #                Q  = (   0       1       0     ), IG= INNER GIMBAL ANGLE        THE CDU COUNTERS AT NBSM (USING AXIS-
001248:                                                                                                  #                 1   (                         )                                ROT AND CDULOGIC)
001249:                                                                                                  #                     ( SIN(IG)   0     COS(IG) )
001250:
001251:
001252:                                                                                                  #                     ( COS(MG) SIN(MG)   0     )
001253:                                                                                                  #                     (                         )
001254:                                                                                                  #                Q  = (-SIN(MG) COS(MG)   0     ), MG= MIDDLE GIMBAL ANGLE
001255:                                                                                                  #                 2   (                         )
001256:                                                                                                  #                     (   0       0       1     )
001257:
001258:
001259:                                                                                                  #                     (   1       0       0     )
001260:                                                                                                  #                     (                         )
001261:                                                                                                  #                Q  = (   0     COS(OG) SIN(OG) ), OG= OUTER GIMBAL ANGLE
001262:                                                                                                  #                 3   (                         )
001263:                                                                                                  #                     (   0    -SIN(OG) COS(OG) )
001264:
001265:                                                                                                  #        3. THE STAR NUMBER IS SAVED AND THE SECOND STAR IS THEN SIMILARLY PROCESSED.
001266:
001267:                                                                                                  #        4. THE ANGLE BETWEEN THE TWO STARS IS THEN CHECKED AT CKSDATA.
001268:
001269:                                                                                                  #        5. REFSMMAT IS THEN COMPUTED AT AXISGEN AS FOLLOWS.
001270:                                                                                                  #                    -      -
001271:                                                                                                  #           LET S  AND S  BE TWO STAR VECTORS EXPRESSED IN TWO COORDINATE SYSTEMS, A AND B (BASIC AND STABLE MEMBER).
001272:                                                                                                  #                     1      2
001273:
001274:                                                                                                  #      DEFINE,   -    -
001275:                                                                                                  #                U  = S
001276:                                                                                                  #                 A    A1
001277:
001278:                                                                                                  #                -         -    -
001279:                                                                                                  #                V  = UNIT(S  X S  )
001280:                                                                                                  #                 A         A1   A2
001281:
001282:                                                                                                  #                -    -   -
001283:                                                                                                  #                W  = U X V
001284:                                                                                                  #                 A    A   A
001285:
001286:                                                                                                  #          AND
001287:                                                                                                  #                -    -
001288:                                                                                                  #                U  = S
001289:                                                                                                  #                 B    B1
001290:
001291:                                                                                                  #                -         -    -
001292:                                                                                                  #                V  = UNIT(S  X S  )
001293:                                                                                                  #                 B         B1   B2
001294:
001295:                                                                                                  #                -    -   -
001296:                                                                                                  #                W  = U X V
001297:                                                                                                  #                 B    B   B
001298:
001299:                                                                                                  #         THEN   -        -       -       -
001300:                                                                                                  #                X  = U  *U + V  *V + W  *W
001301:                                                                                                  #                      B1  A   B1  A   B1  A
001302:
001303:                                                                                                  #                -        -       -       -              (REFSMMAT)
001304:                                                                                                  #                Y  = U  *U + V  *V + W  *W
001305:                                                                                                  #                      B2  A   B2  A   B2  A
001306:
001307:                                                                                                  #                -        -       -       -
001308:                                                                                                  #                Z  = U  *U + V  *V + W  *W
001309:                                                                                                  #                      B3  A   B3  A   B3  A
001310:
001311:                                                                                                  #           THE INPUTS CONSIST OF THE FOUR HALF-UNIT VECTORS STORED AS FOLLOWS
001312:                                                                                                  #                -
001313:                                                                                                  #                S   IN 6-11 OF THE VAC AREA
001314:                                                                                                  #                 A1
001315:
001316:                                                                                                  #                -
001317:                                                                                                  #                S   IN 12-17 OF THE VAC AREA
001318:                                                                                                  #                 A2
001319:
001320:                                                                                                  #                -
001321:                                                                                                  #                S   IN STARAD
001322:                                                                                                  #                 B1
001323:
001324:                                                                                                  #                -
001325:                                                                                                  #                S   IN STARAD +6
001326:                                                                                                  #                 B2
001327:
001328:                                                                                                  #  CALLING SEQUENCE
001329:
001330:                                                                                                  #        THE PROGRAM IS CALLED BY THE ASTRONAUT BY DSKY ENTRY.
001331:
001332:                                                                                                  #  SUBROUTINES CALLED.
001333:
001334:                                                                                                  #        GOPERF3
001335:                                                                                                  #        GOPERF1R
001336:                                                                                                  #        GODSPR
001337:                                                                                                  #        IMUCOARS
001338:                                                                                                  #        IMUFIN20
001339:                                                                                                  #        R53
001340:                                                                                                  #        SXTNB
001341:                                                                                                  #        NBSM
001342:                                                                                                  #        MKRELEAS
001343:                                                                                                  #        CHKSDATA
001344:                                                                                                  #        MATMOVE
001345:
001346:                                                                                                  #  ALARMS
001347:
001348:                                                                                                  #        NONE.
001349:
001350:                                                                                                  #  ERASABLE INITIALIZATION
001351:
001352:                                                                                                  #        IMU ZERO FLAG SHOULD BE SET.
001353:
001354:                                                                                                  #  OUTPUT
001355:
001356:                                                                                                  #        REFSMMAT
001357:                                                                                                  #        REFSMFLG
001358:
001359:                                                                                                  #  DEBRIS
001360:
001361:                                                                                                  #        WORK AREA
001362:                                                                                                  #        STARAD
001363:                                                                                                  #        STARIND
001364:                                                                                                  #        BESTI
001365:                                                                                                  #        BESTJ
001366:
001367: 14,2000                                           SETLOC   P50S1
001368: 14,2000                                           BANK
001369: 14,3255                                           COUNT*   $$/P5153
001370: 14,3255  14,3255               P53                EQUALS   P51
001371: 14,3255           41323        P51                CS       IMODES30
001372: 14,3256           74771                           MASK     IMUOPBIT
001373: 14,3257           10000                           CCS      A
001374: 14,3260           03264                           TC       P51A
001375: 14,3261           05644                           TC       ALARM
001376: 14,3262           00210                           OCT      210
001377: 14,3263           04103                           TC       GOTOPOOH
001378: 14,3264           04647        P51A               TC       BANKCALL
001379: 14,3265           03753                           CADR     R02ZERO
001380:
001381: 14,3266           35007        P51AA              CAF      PRFMSTAQ
001382: 14,3267           04647                           TC       BANKCALL
001383: 14,3270           20747                           CADR     GOPERF1
001384: 14,3271           04103                           TC       GOTOPOOH                              #  TERM.
001385: 14,3272           03315                           TC       P51B                                  #  V 33
001386: 14,3273           05415                           TC       PHASCHNG
001387: 14,3274           05024                           OCT      05024
001388: 14,3275           13000                           OCT      13000
001389: 14,3276           35003                           CAF      P51ZERO
001390: 14,3277           55277                           TS       THETAD                                #  ZERO THE GIMBALS
001391: 14,3300           55300                           TS       THETAD     +1
001392: 14,3301           55301                           TS       THETAD     +2
001393: 14,3302           35040                           CAF      V06N22
001394: 14,3303           04647                           TC       BANKCALL
001395: 14,3304           20565                           CADR     GODSPRET
001396: 14,3305           33427                           CAF      V41K                                  #  NOW DISPLAY COARSE ALIGN VERB 41
001397: 14,3306           04647                           TC       BANKCALL
001398: 14,3307           20565                           CADR     GODSPRET
001399: 14,3310           03627                           TC       COARSUB                               #  PERFORM ALIGNMENT
001400: 14,3311           05415                           TC       PHASCHNG
001401: 14,3312           05024                           OCT      05024
001402: 14,3313           13000                           OCT      13000
001403: 14,3314           13266                           TCF      P51AA                                 #  COARSE ALIGN DONE - RECYCLE FOR FINE
001404:
001405:
001406:                                                                                                  #     DO STAR SIGHTING AND COMPUTE NEW REFSMMAT
001407:
001408: 14,3315           04606        P51B               TC       E7SETTER
001409: 14,3316           06006                           TC       INTPRET
001410: 14,3317           40331                           SSP      SETPD
001411: 14,3320           00305                                    STARIND                               #  INDEX - STAR 1 OR 2
001412: 14,3321           00000                                    0
001413: 14,3322           00001                                    0
001414: 14,3323           77234                           RTB      VLOAD
001415: 14,3324           31430                                    SET1/PDT
001416: 14,3325           15726                                    ZEROVEC
001417: 14,3326           01472                           STORE    GCOMP
001418: 14,3327           77414                           SET      EXIT
001419: 14,3330           01060                                    DRIFTFLG                              #  ENABLE T4 COMPENSATION
001420: 14,3331           05415        P51C               TC       PHASCHNG
001421: 14,3332           05024                           OCT      05024
001422: 14,3333           13000                           OCT      13000
001423: 14,3334           05367                           TC       CHECKMM
001424: 14,3335           00065                           MM       53         B-14                       #  BACKUP PROGRAM
001425: 14,3336           13344                           TCF      P51C.1                                #  NOT P53
001426: 14,3337           06006                           TC       INTPRET
001427: 14,3340           77624                           CALL
001428: 14,3341           36146                                    R56
001429: 14,3342           77650                           GOTO
001430: 14,3343           31347                                    P51C.2
001431: 14,3344           06006        P51C.1             TC       INTPRET
001432: 14,3345           77624                           CALL
001433: 14,3346           31433                                    R53                                   #  SIGHTING ROUTINE
001434: 14,3347           77624        P51C.2             CALL                                           #  COMPUTE LOS IN SM FROM MARK DATA
001435: 14,3350           36065                                    SXTSM
001436: 14,3351           77606                           PUSH
001437: 14,3352           53135                           SLOAD    BZE
001438: 14,3353           00305                                    STARIND
001439: 14,3354           31360                                    P51D
001440: 14,3355           45575                           VLOAD    STADR
001441: 14,3356           41160                           STCALL   STARSAV2                              #  DOWNLINK
001442: 14,3357           31366                                    P51E
001443: 14,3360           45575        P51D               VLOAD    STADR
001444: 14,3361           61166                           STODL    STARSAV1
001445: 14,3362           02607                                    TSIGHT
001446: 14,3363           77624                           CALL
001447: 14,3364           31545                                    PLANET
001448: 14,3365           02601                           STORE    PLANVEC
001449: 14,3366           77776        P51E               EXIT
001450: 14,3367           05415                           TC       PHASCHNG
001451: 14,3370           05024                           OCT      05024
001452: 14,3371           13000                           OCT      13000
001453: 14,3372           10304                           CCS      STARIND
001454: 14,3373           13402                           TCF      P51F                                  #  STAR 2
001455: 14,3374           05415                           TC       PHASCHNG
001456: 14,3375           05024                           OCT      05024
001457: 14,3376           13000                           OCT      13000
001458: 14,3377           35001                           CAF      BIT1
001459: 14,3400           54304                           TS       STARIND
001460: 14,3401           13331                           TCF      P51C                                  #  GO DO SECOND STAR
001461: 14,3402           05415        P51F               TC       PHASCHNG
001462: 14,3403           05024                           OCT      05024
001463: 14,3404           13000                           OCT      13000
001464: 14,3405           06006                           TC       INTPRET
001465: 14,3406           45145                           DLOAD    CALL
001466: 14,3407           02607                                    TSIGHT
001467: 14,3410           31545                                    PLANET
001468: 14,3411           24015                           STOVL    12D
001469: 14,3412           02601                                    PLANVEC
001470: 14,3413           24007                           STOVL    6D
001471: 14,3414           02611                                    STARSAV1
001472: 14,3415           26725                           STOVL    STARAD
001473: 14,3416           02617                                    STARSAV2
001474: 14,3417           36733                           STCALL   STARAD     +6
001475: 14,3420           34644                                    CHKSDATA                              #  CHECK STAR ANGLES IN STARAD AND
001476: 14,3421           77414                           BON      EXIT
001477: 14,3422           00314                                    FREEFLAG
001478: 14,3423           11173                                    P51G
001479: 14,3424           35055                           CAF      EBANK5
001480: 14,3425           54003                           TS       EBANK
001481: 14,3426           03266                           TC       P51AA
001482: 04,2000                                           SETLOC   P50S4
001483: 04,2000                                           BANK
001484:
001485: 04,3173                                           COUNT*   $$/P5153
001486: 04,3173           77624        P51G               CALL
001487: 04,3174           47373                                    AXISGEN                               #  COME BACK WITH REFSMMAT IN XDC
001488: 04,3175           75160                           AXC,1    AXC,2
001489: 04,3176           02702                                    XDC
001490: 04,3177           01717                                    REFSMMAT
001491: 04,3200           45014                           CLEAR    CALL
001492: 04,3201           01662                                    REFSMFLG
001493: 04,3202           34721                                    MATMOVE
001494: 04,3203           77414                           SET      EXIT
001495: 04,3204           01462                                    REFSMFLG
001496: 04,3205           04103                           TC       GOTOPOOH
001497: 14,2000                                           SETLOC   P50S1
001498: 14,2000                                           BANK
001499:
001500: 14,3427                                           COUNT*   $$/P5153
001501: 14,3427     5007               PRFMSTAQ           =        OCT15
001502: 14,3427     5003               P51ZERO            =        ZERO
001503: 14,3427     5004               P51FIVE            =        FIVE
001504: 14,3427           12200        V41K               VN       4100
001505: 14,3430           30025        SET1/PDT           CA       TIME1
001506: 14,3431           55267                           TS       1/PIPADT
001507: 14,3432           16030                           TCF      DANZIG
001508:
001509:                                                                                                  #  SXTSM COMPUTES AN LOS VECTOR IN SM COORD FROM OCDU AND ICDU MARK DATA
001510:
001511: 17,2000                                           SETLOC   P50S3
001512: 17,2000                                           BANK
001513: 17,2065                                           COUNT*   $$/R51
001514: 17,2065           71214        SXTSM              SET      DLOAD
001515: 17,2066           00064                                    ATMFLAG
001516: 17,2067           03703                                    MRKBUF1
001517: 17,2070           02607                           STORE    TSIGHT
001518: 17,2071           77760                           AXC,1
001519: 17,2072           03702                                    MRKBUF1                               #  ADDRESS OF MARK DATA FOR P50'S
001520: 17,2073           77620        SXTSM1             STQ                                            #  CALLED HERE FROM GETUM (P20 AND P22)
001521: 17,2074           00300                                    QMAJ
001522: 17,2075           66744                           LXC,2    SLOAD*
001523: 17,2076           00304                                    STARIND
001524: 17,2077           41632                                    MKDNCDR,2
001525: 17,2100           76744                           LXC,2    VLOAD*
001526: 17,2101           00154                                    MPAC
001527: 17,2102           00001                                    0,1
001528: 17,2103           10001                           STORE    0,2
001529: 17,2104           77743                           DLOAD*
001530: 17,2105           00006                                    5,1
001531: 17,2106           10006                           STORE    5,2
001532: 17,2107           77773        SXTSM2             VLOAD*
001533: 17,2110           00003                                    2,1
001534: 17,2111           01162                           STORE    CDUSPOT
001535: 17,2112           77614                           BOFCLR
001536: 17,2113           00244                                    ATMFLAG
001537: 17,2114           36136                                    STARSM
001538: 17,2115           54335                           SLOAD    SR
001539: 17,2116           01131                                    STARCODE
001540: 17,2117           20607                                    6
001541: 17,2120           70430                           BHIZ     SR1
001542: 17,2121           36136                                    STARSM
001543: 17,2122           45030                           BHIZ     CALL
001544: 17,2123           36133                                    ATMSS
001545: 17,2124           22421                                    CALCNBOA
001546: 17,2125           77624        ATMST              CALL
001547: 17,2126           22375                                    OASTAR
001548: 17,2127           53505                           VXM      UNIT
001549: 17,2130           02250                                    NBOA
001550: 17,2131           77650                           GOTO
001551: 17,2132           36140                                    ATMSM
001552: 17,2133           52175        ATMSS              VLOAD    GOTO
001553: 17,2134           02264                                    NBOA       +12D
001554: 17,2135           36140                                    ATMSM


001556: 17,2136           77624        STARSM             CALL
001557: 17,2137           46000                                    SXTNB
001558: 17,2140           77624        ATMSM              CALL
001559: 17,2141           47616                                    TRG*NBSM                              #  TRANSFER LOS TO SM
001560: 17,2142           34041                           STCALL   32D
001561: 17,2143           00300                                    QMAJ
001562: 17,2144           03654        MKDNCDR            ECADR    MARKDOWN
001563: 17,2145           03460                           ECADR    MARK2DWN
001564:
001565:                                                                                                  #  NAME - R53 - SIGHTING MARK ROUTINE
001566:
001567:                                                                                                  #  FUNCTION -
001568:                                                                                                  #   TO PERFORM A SATISFACTORY NUMBER OF SIGHTING MARKS FOR THE REQUESTING PROGRAM (OR ROUTINE). SIGHTINGS
001569:                                                                                                  #   CAN BE MADE ON A STAR OR LANDMARK. WHEN THE CMC ACCEPTS A MARK IT RECORDS AND STORES 5 ANGLES (3 ICDUS AND 2
001570:                                                                                                  #   OCDUS) AND THE TIME OF THE MARK.
001571:
001572:                                                                                                  #  CALLING SEQUENCE
001573:                                                                                                  #   R53 IS CALLED AND RETURNS IN INTERPRETIVE CODE. RETURN IS VIA QPRET.
001574:                                                                                                  #   THERE IS NO ERROR EXIT IN THIS ROUTINE ITSELF.
001575:
001576:                                                                                                  #  SUBROUTINES CALLED
001577:                                                                                                  #   SXTMARK
001578:                                                                                                  #   OPTSTALL
001579:                                                                                                  #   GOFLASH
001580:
001581:                                                                                                  #  ERASABLE INITIALIZATION
001582:                                                                                                  #   TARGET FLAG - STAR OR LANDMARK
001583:                                                                                                  #   MARKINDX - NUMBER OF MARKS WANTED
001584:                                                                                                  #   STARIND - INDEX TO BESTI OR BESTJ (STAR NUMBER)
001585:
001586:                                                                                                  #  OUTPUT
001587:                                                                                                  #   MARKSTAT CONTAINS INDEX TO VACANT AREA WHERE MARK DATA IS STORED
001588:                                                                                                  #   BESTI (INDEXED BY STARIND) CONTAINS STAR NUMBER SIGHTED
001589:
001590:                                                                                                  #  DEBRIS
001591:                                                                                                  #   MARKINDX CONTAINS NUMBER OF MARKS DESIRED
001592:
001593: 14,2000                                           SETLOC   RT53
001594: 14,2000                                           BANK
001595:
001596: 14,3433                                           COUNT*   $$/R53
001597: 14,3433           43020        R53                STQ      SET                                   #  SET SIGHTING MARK FLAG
001598: 14,3434           03457                                    R53EXIT
001599: 14,3435           00071                                    R53FLAG
001600: 14,3436           77776                           EXIT
001601: 14,3437           04647        R53A               TC       BANKCALL
001602: 14,3440           16000                           CADR     SXTMARK
001603: 14,3441           10301                           CCS      MARKINDX
001604: 14,3442           13437                           TCF      R53A                                  #  NO MARKS TAKEN.  DO AGAIN.
001605: 14,3443           04647        R53A1              TC       BANKCALL
001606: 14,3444           16057                           CADR     MKRELEAS
001607: 14,3445           35003        R53C1              CAF      ZERO
001608: 14,3446           04647                           TC       BANKCALL
001609: 14,3447           20575                           CADR     CLEANDSP
001610: 14,3450           44774        R53B               CS       BIT6                                  #  CUT BETWEEN P20S AND P50S
001611: 14,3451           61204                           AD       MODREG                                #  P22,P23 CALL
001612: 14,3452           00006                           EXTEND
001613: 14,3453           63512                           BZMF     R53D                                  #  YES
001614: 14,3454           40074                           CS       FLAGWRD0
001615: 14,3455           74766                           MASK     P50.1BIT
001616: 14,3456           00006                           EXTEND
001617: 14,3457           13512                           BZF      R53D
001618: 14,3460           33516        R53C               CAF      V01N71
001619: 14,3461           05550                           TC       VNFLASH
001620: 14,3462           03520        R53Z               TC       CHKSCODE
001621:                                                                                                  #  ROUTINE TO ALLOW ONLY +0 <= STARCODE <= +50, OTHERWISE 'OPERATOR ERROR'
001622: 14,3463           04362                           TC       FALTON
001623: 14,3464           03460                           TC       R53C
001624: 14,3465           03617                           TC       STORIJ                                #  SET BESTI(BESTJ) = 1ST(2ND) STARCODE
001625: 14,3466           05367                           TC       CHECKMM
001626: 14,3467           00062                           MM       50         B-14
001627: 14,3470           13472                           TCF      +2
001628: 14,3471           13476                           TCF      R53DISP
001629: 14,3472           34772                           CAF      BIT8
001630: 14,3473           71130                           MASK     STARCODE
001631: 14,3474           00006                           EXTEND
001632: 14,3475           13512                           BZF      R53D
001633: 14,3476           33517        R53DISP            CAF      V06N14
001634: 14,3477           05550                           TC       VNFLASH
001635: 14,3500           31515                           CA       TRKAZ
001636: 14,3501           60000                           DOUBLE
001637: 14,3502           55705                           TS       MRKBUF1    +3
001638: 14,3503           13505                           TCF      +2
001639: 14,3504           04614                           TC       R53FALT
001640: 14,3505           31516                           CA       TRKEL
001641: 14,3506           60000                           DOUBLE
001642: 14,3507           55707                           TS       MRKBUF1    +5
001643: 14,3510           13512                           TCF      R53D
001644: 14,3511           04614                           TC       R53FALT
001645: 14,3512           06006        R53D               TC       INTPRET
001646: 14,3513           77614        R53OUT             SETGO
001647: 14,3514           03420                                    TERMIFLG                              #  SET TERMINATE FOR R52
001648: 14,3515           03457                                    R53EXIT
001649: 14,3516     6211               SIGHTSIX           =        SIX
001650: 14,3516           00307        V01N71             VN       0171
001651: 14,3517           01416        V06N14             VN       0614
001652:
001653:    4000                                           SETLOC   FFTAG5
001654:    4000                                           BANK
001655:


001657:    4614           04362        R53FALT            TC       FALTON
001658:    4615           03476                           TC       R53DISP
001659:
001660: 14,2000                                           SETLOC   RT53
001661: 14,2000                                           BANK
001662:
001663:                                                                                                  #  ****** KEEP IN SAME BANK AS R51 AND R53 *********
001664: 14,3520           41130        CHKSCODE           CS       STARCODE
001665: 14,3521           74763                           MASK     BIT15
001666: 14,3522           00006                           EXTEND                                         #  NEGATIVE STARCODE OF ANY
001667: 14,3523           16711                           BZF      TCQ                                   #  MAGNITUDE IS IMPROPER
001668: 14,3524           47677                           CS       HIGH9
001669: 14,3525           71130                           MASK     STARCODE
001670: 14,3526           63543                           AD       NEG47
001671: 14,3527           00006                           EXTEND
001672: 14,3530           63532                           BZMF     +2                                    #  <= 50, OK
001673: 14,3531           00002                           TC       Q                                     #  > 50, IMPROPER
001674: 14,3532           34773                           CAF      BIT7
001675: 14,3533           71130                           MASK     STARCODE
001676: 14,3534           00006                           EXTEND
001677: 14,3535           16710                           BZF      Q+2
001678: 14,3536           31130                           CA       STARCODE
001679: 14,3537           63544                           AD       NEG146
001680: 14,3540           00006                           EXTEND
001681: 14,3541           16710                           BZF      Q+2
001682: 14,3542           00002                           TC       Q
001683: 14,3543           77730        NEG47              OCT      77730
001684: 14,3544           77631        NEG146             OCT      77631
001685:
001686:                                                                                                  #  NAME - S52.2
001687:                                                                                                  #  FUNCTION - COMPUTE GIMBAL ANGLES FOR DESIRED SM AND PRESENT VEHICLE
001688:                                                                                                  #  CALL - CALL S52.2
001689:                                                                                                  #  INPUT - X,Y,ZSMD
001690:                                                                                                  #  OUTPUT - OGC,IGC,MGC,THETAD,+1,+2
001691:                                                                                                  #  SUBROUTINES - CDUTRIG, CALCSMSC, MATMOVE, CALCGA
001692:
001693: 11,2000                                           SETLOC   S52/2
001694: 11,2000                                           BANK
001695:
001696: 11,2430                                           COUNT*   $$/S52.2
001697: 11,2430           45020        S52.2              STQ      CALL
001698: 11,2431           00300                                    QMAJ
001699: 11,2432           47471                                    CDUTRIG
001700: 11,2433           77624                           CALL
001701: 11,2434           34747                                    CALCSMSC
001702: 11,2435           66370                           AXT,1    SSP
001703: 11,2436           00022                                    18D
001704: 11,2437           00051                                    S1
001705: 11,2440           00006                                    6D
001706: 11,2441           61373        S52.2A             VLOAD*   VXM
001707: 11,2442           02725                                    XNB        +18D,1
001708: 11,2443           01720                                    REFSMMAT
001709: 11,2444           77656                           UNIT
001710: 11,2445           06725                           STORE    XNB        +18D,1
001711: 11,2446           77700                           TIX,1
001712: 11,2447           22441                                    S52.2A
001713: 11,2450           75160        S52.2.1            AXC,1    AXC,2
001714: 11,2451           00306                                    XSMD
001715: 11,2452           02660                                    XSM
001716: 11,2453           77624                           CALL
001717: 11,2454           34721                                    MATMOVE
001718: 11,2455           77624                           CALL
001719: 11,2456           47303                                    CALCGA
001720: 11,2457           77650                           GOTO
001721: 11,2460           00300                                    QMAJ
001722:
001723:
001724:                                                                                                  #  NAME - R56 - ALTERNATE LOS SIGHTING MARK ROUTINE
001725:
001726:                                                                                                  #  FUNCTIONAL DESCRIPTION
001727:                                                                                                  #  TO PERFORM SIGHTING MARKS FOR THE BACK-UP ALIGNMENT PROGRAMS (P53,P54).  THE ASTRONAUT KNOWS THE
001728:                                                                                                  #  COORDINATES (OPTICS) OF THE ALTERNATE LINE OF SIGHT HE MUST USE FOR THIS ROUTINE.  WHEN THE ASTRONAUT KEYS IN
001729:                                                                                                  #  ENTER IN RESPONSE TO THE FLASHING V50 N25 R1-XXXXX THE CMC STORES THE THREE ICDU ANGLES AND TWO ANGLES DISPLAYED
001730:                                                                                                  #  IN N92.
001731:
001732:                                                                                                  #  CALLING SEQUENCE
001733:                                                                                                  #        CALL
001734:                                                                                                  #                R56
001735:
001736:                                                                                                  #  SUBROUTINES CALLED
001737:                                                                                                  #        A PORTION OF SXTMARK (VAC.AREA SEARCH)
001738:                                                                                                  #        GOFLASH
001739:                                                                                                  #        GOPERF1
001740:
001741:                                                                                                  #  ERASABLE INITIALIZATION
001742:                                                                                                  #        STARIND - INDEX TO STAR NUMBER
001743:
001744:                                                                                                  #  OUTPUT
001745:                                                                                                  #        MARKSTAT - INDEX TO VAC.AREA WHERE OUTPUT IS STORED.
001746:                                                                                                  #        BESTI (INDEXED BY STARIND) CONTAINS STAR NUMBER.
001747:                                                                                                  #        ICDU AND OCDU ANGLES IN VAC. AREA AS FOLLOWS-
001748:                                                                                                  #                VAC +2  CDUY
001749:                                                                                                  #                VAC +3  CDUS
001750:                                                                                                  #                VAC +4  CDUZ
001751:                                                                                                  #                VAC +5  CDUT
001752:                                                                                                  #                VAC +6  CDUX
001753:
001754: 17,2000                                           SETLOC   P50S3
001755: 17,2000                                           BANK
001756: 17,2146                                           COUNT*   $$/R56
001757: 17,2146           77420        R56                STQ      EXIT
001758: 17,2147           03457                                    R53EXIT
001759: 17,2150           32220                           CAF      V06N94B
001760: 17,2151           05550                           TC       VNFLASH
001761: 17,2152           04647        R56A               TC       BANKCALL
001762: 17,2153           16046                           CADR     TESTMARK
001763:
001764: 17,2154           35003                           CAF      ZERO
001765: 17,2155           04647                           TC       BANKCALL
001766: 17,2156           20575                           CADR     CLEANDSP
001767:
001768: 17,2157           32217        R56A1              CAF      VB53                                  #  DISPLAY V53 REQUESTING ALTERNATE MARK
001769: 17,2160           04647                           TC       BANKCALL
001770: 17,2161           20461                           CADR     GOMARK2
001771: 17,2162           14103                           TCF      GOTOPOOH                              #  V34-TERMINATE
001772: 17,2163           12157                           TCF      R56A1                                 #  V33-DONT PROCEED-JUST ENTER TO MARK
001773: 17,2164           06006                           TC       INTPRET
001774: 17,2165           77745                           DLOAD
001775: 17,2166           03706                                    MRKBUF1    +3
001776: 17,2167           16774                           STODL    SAC
001777: 17,2170           03710                                    MRKBUF1    +5
001778: 17,2171           02776                           STORE    PAC
001779: 17,2172           77776                           EXIT
001780: 17,2173           00004                           INHINT
001781: 17,2174           00006                           EXTEND
001782: 17,2175           30025                           DCA      TIME2
001783: 17,2176           53703                           DXCH     MRKBUF1
001784: 17,2177           30033                           CA       CDUY                                  #  ENTER-THIS IS A BACKUP SYSTEM MARK
001785: 17,2200           55704                           TS       MRKBUF1    +2
001786: 17,2201           30034                           CA       CDUZ
001787: 17,2202           55706                           TS       MRKBUF1    +4
001788: 17,2203           30032                           CA       CDUX
001789: 17,2204           55710                           TS       MRKBUF1    +6
001790: 17,2205           00003                           RELINT
001791: 17,2206           05542                           TC       CLEARMRK                              #  ENABLE EXTENDED VERBS
001792: 17,2207           34321                           CAF      OCT16
001793: 17,2210           04647                           TC       BANKCALL
001794: 17,2211           20747                           CADR     GOPERF1
001795: 17,2212           04103                           TC       GOTOPOOH                              #  TERM.
001796: 17,2213           12215                           TCF      R56B                                  #  PROCEED-MARK COMPLETED
001797: 17,2214           12152                           TCF      R56A                                  #  RECYCLE - DO ANOTHER MARK - LIKE REJECT
001798: 17,2215           04647        R56B               TC       BANKCALL
001799: 17,2216           31445                           CADR     R53C1
001800: 17,2217           15200        VB53               VN       05300                                 #  ALTERNATE MARK VERB
001801: 17,2220           01536        V06N94B            VN       00694
001802: 14,2000                                           SETLOC   P50S1
001803: 14,2000                                           BANK
001804:
001805: 14,3545                                           COUNT*   $$/PLNET
001806: 14,3545           02607        PLANET             STORE    TSIGHT
001807: 14,3546           45020                           STQ      CALL
001808: 14,3547           02777                                    QMIN
001809: 14,3550           24040                                    LOCSAM
001810: 14,3551           77776        NOSAM              EXIT
001811: 14,3552           03617                           TC       STORIJ                                #  SET BESTI(BESTJ) = 1ST(2ND) STARCODE
001812: 14,3553           10000                           CCS      A
001813: 14,3554           13565                           TCF      NOTPLAN
001814: 14,3555           35050                           CAF      VNPLANV
001815: 14,3556           05550                           TC       VNFLASH
001816: 14,3557           06006                           TC       INTPRET
001817: 14,3560           74375                           VLOAD    VXSC
001818: 14,3561           03665                                    STARSAV3
001819: 14,3562           31616                                    1/SQR3
001820: 14,3563           52056                           UNIT     GOTO
001821: 14,3564           31610                                    CORPLAN
001822: 14,3565           40000        NOTPLAN            CS       A
001823: 14,3566           63614                           AD       DEC227
001824: 14,3567           00006                           EXTEND
001825: 14,3570           63601                           BZMF     CALSAM1
001826: 14,3571           50304                           INDEX    STARIND
001827: 14,3572           30302                           CA       BESTI
001828: 14,3573           50120                           INDEX    FIXLOC
001829: 14,3574           54046                           TS       X1
001830: 14,3575           06006                           TC       INTPRET
001831: 14,3576           52173                           VLOAD*   GOTO
001832: 14,3577           33776                                    CATLOG,1
001833: 14,3600           31610                                    CORPLAN
001834: 14,3601           06006        CALSAM1            TC       INTPRET
001835: 14,3602           70740                           LXC,1    DLOAD*
001836: 14,3603           00304                                    STARIND
001837: 14,3604           00303                                    BESTI,1
001838: 14,3605           76740                           LXC,1    VLOAD*
001839: 14,3606           00154                                    MPAC
001840: 14,3607           02361                                    STARAD     -228D,1
001841: 14,3610           53455        CORPLAN            VAD      UNIT
001842: 14,3611           03452                                    VEL/C
001843: 14,3612           77650                           GOTO
001844: 14,3613           02777                                    QMIN
001845: 14,3614           00343        DEC227             DEC      227        B-14
001846: 14,3615     5050               VNPLANV            =        V06N88
001847: 14,3615           22363 11623  1/SQR3             2DEC     .57735021
001848:
001849: 14,3617           47677        STORIJ             CS       HIGH9                                 #  CALLED AT R53Z, NOSAM(PLANET)
001850: 14,3620           71130                           MASK     STARCODE
001851: 14,3621           00006                           EXTEND
001852: 14,3622           76211                           MP       SIGHTSIX
001853: 14,3623           56001                           XCH      L
001854: 14,3624           50304                           INDEX    STARIND
001855: 14,3625           54302                           TS       BESTI
001856: 14,3626           00002                           TC       Q                                     #  RETURN TO CALLER
001857: 14,3627                                           COUNT*   $$/R50
001858: 14,3627           30002        COARSUB            CA       Q
001859: 14,3630           55777                           TS       QMIN
001860: 14,3631           31325        STALLOOP           CA       MODECADR                              #  IS IMU IN USE?
001861: 14,3632           00006                           EXTEND
001862: 14,3633           13640                           BZF      CORSCALL                              #  NO, GO AHEAD WITH COARSE ALIGN
001863: 14,3634           35030                           CAF      1SEC                                  #  YES, SO WAIT A SEC
001864: 14,3635           04647                           TC       BANKCALL
001865: 14,3636           01731                           CADR     DELAYJOB
001866: 14,3637           03631                           TC       STALLOOP                              #                        AND TRY AGAIN
001867: 14,3640           04647        CORSCALL           TC       BANKCALL
001868: 14,3641           16655                           CADR     IMUCOARS                              #  PERFORM COARSE ALIGN
001869: 14,3642           04647                           TC       BANKCALL
001870: 14,3643           17575                           CADR     IMUSTALL
001871: 14,3644           03653                           TC       217ALARM                              #  BAD END
001872: 14,3645           04647                           TC       BANKCALL
001873: 14,3646           17064                           CADR     IMUFIN20                              #  PERFORM FINE ALIGN
001874: 14,3647           04647                           TC       BANKCALL
001875: 14,3650           17575                           CADR     IMUSTALL
001876: 14,3651           03653                           TC       217ALARM                              #  BAD END
001877: 14,3652           01777                           TC       QMIN
001878: 14,3653           00004        217ALARM           INHINT                                         #  JUST LIKE 'CURTAINS', NOW DEPARTED
001879: 14,3654           30002                           CA       Q
001880: 14,3655           05646                           TC       ALARM2
001881: 14,3656           00217                           OCT      00217
001882: 14,3657           01363                           TC       ALMCADR                               #  RETURN TO USER

End of include-file P51-P53.agc.  Parent file is MAIN.agc


