
Source Code


000002:                                                                                                  ## Copyright:   Public domain.
000003:                                                                                                  ## Filename:    P61-P67.agc
000004:                                                                                                  ## Purpose:     A section of Skylark revision 048.
000005:                                                                                                  ##              It is part of the source code for the Apollo Guidance Computer (AGC)
000006:                                                                                                  ##              for Skylab-2, Skylab-3, Skylab-4, and ASTP. No original listings of
000007:                                                                                                  ##              this software are available; instead, this file was created via
000008:                                                                                                  ##              disassembly of dumps of the core rope modules actually flown on
000009:                                                                                                  ##              Skylab-2. Access to these modules was provided by the New Mexico
000010:                                                                                                  ##              Museum of Space History.
000011:                                                                                                  ## Assembler:   yaYUL
000012:                                                                                                  ## Contact:     Ron Burkey <info@sandroid.org>.
000013:                                                                                                  ## Website:     www.ibiblio.org/apollo/index.html
000014:                                                                                                  ## Mod history: 2023-09-04 MAS  Created from Artemis 072.
000015:                                                                                                  ##              2024-03-05 MAS  Updated for Skylark 48.
000016:
000017:
000018:                                                                                                  #  PROGRAM:              P61
000019:                                                                                                  #  MOD NO.:              0       MAR. 13, 1967
000020:                                                                                                  #  MOD BY:               R. HIRSCHKOP
000021:                                                                                                  #  MOD NO: 1             MOD BY:  RR BAIRNSFATHER        DATE: 22 JUN 67         RESTARTS.
000022:                                                                                                  #  MOD NO: 2             MOD BY:  RR BAIRNSFATHER        DATE: 17 JAN 68         COLOSSUS GSOP CHANGES.
000023:                                                                                                  #  MOD NO: 3             MOD BY:  RR BAIRNSFATHER        DATE:  8 MAY 68         DELETE CMSM MANEUVER (PCR 50)
000024:                                                                                                  #  MOD NO: 4             MOD BY:  RR BAIRNSFATHER        DATE:  1 JUL 69         PCR 787: TICK TTE
000025:                                                                                                  #  FUNCTION:             TO CALCULATE AND DISPLAY EMS INITIALIZATION DATA
000026:                                                                                                  #  CALLING SEQUENCE-     BY V37
000027:                                                                                                  #  EXIT-                 TO P62
000028:                                                                                                  #  SUBROUTINE CALLS-     S61.1 , S61.3 , GOFLASH , FLAGUP , R02BOTH
000029:                                                                                                  #  ERASABLE INITIALIZATION:
000030:                                                                                                  #        EMSALT (-29) M          .05G ALTITUDE ABOVE FISCHER ELLIPSOID   PAD LOADED.
000031:                                                                                                  #        ALFAPAD /180            HYPERSONIC CM TRIM ANGLE OF ATTACK      PAD LOADED
000032:                                                                                                  #  OUTPUT:       THE FOLLOWING REGISTERS ARE WRITTEN IN FOR USE BY DISPLAYS
000033:                                                                                                  #                GMAX    100 GMAX  (-14) G,S     MAXIMUM ACCELERATION
000034:                                                                                                  #                VPRED   (-7)  M/CS              PREDICTED VELOCITY AT 400K FT
000035:                                                                                                  #                GAMMAEI GAMMA/360               PREDICTED GAMMA    AT 400K FT
000036:                                                                                                  #                RTGO    THETAH/360              RANGE ANGLE TO SPLASH FROM EMSALT       EMSALT IS PAD LOADED
000037:                                                                                                  #                VIO     (-7) M/CS               INERTIAL VELOCITY AT       EMSALT       EMSALT IS PAD LOADED
000038:                                                                                                  #                TTE     (-28) CS                TIME    TO                 EMSALT       EMSALT IS PAD LOADED
000039:                                                                                                  #                LAT(SPL) /360                   TARGET LOCATION                         LEFT BY DSKY
000040:                                                                                                  #                LNG(SPL) /360                   TARGET LOCATION                         LEFT BY DSKY
000041:                                                                                                  #                HEADSUP (0)                     +1 = LIFT DOWN, -1 = LIFT UP            LEFT BY DSKY
000042:                                                                                                  #  DEBRIS:       SEE SUBROUTINES.
000043:
000044: 26,2000                                           SETLOC   P60S
000045: 26,2000                                           BANK
000046:
000047: 26,2103  E6,1712                                  EBANK=   AOG
000048:
000049: 26,2103                                           COUNT*   $$/P61
000050:
000051: 26,2103           34764        P61                CA       BIT14                                 #  EXTENDED VERB SHOULD BE FREE THIS CLOSE
000052: 26,2104           55237                           TS       EXTVBACT                              #  TO V37
000053:                                                                                                  #  LOCK OUT EXTENDED VERBS SO CAN USE TFF
000054:                                                                                                  #  ROUTINES.EXT VERB ERASE IS USED
000055:
000056: 26,2105           45001                           CS       ONE                                   #  REMOVE IF HEADSUP EVER ON UPLINK DATA
000057: 26,2106           55757                           TS       HEADSUP                               #  PRELOAD
000058:
000059: 26,2107           02414                           TC       S61.1                                 #  CHECK STATE VECTOR AND IMU ORIENTATION
000060:                                                                                                  #  RV 60GENRET. DOES PHASCHNG, GROUP 4.
000061:
000062: 26,2110           35047                           CA       V06N61                                #  LAT(SPL)      LNG(SPL)        HEADSUP
000063:                                                                                                  #  XXX.XX DEG    XXX.XX DEG      XXXXX.
000064: 26,2111           05553                           TC       VNFLASHR
000065: 26,2112           02116                           TC       P61.4
000066: 26,2113           05415        P61.3              TC       PHASCHNG
000067: 26,2114           00014                           OCT      00014
000068:
000069: 26,2115           05220                           TC       ENDOFJOB
000070:
000071: 26,2116           22007        P61.4              ZL
000072: 26,2117           11757                           CCS      HEADSUP                               #  C(HEADSUP)= +1/-1
000073: 26,2120           34764                           CA       BIT14                                 #  IF HEADSUP POS,ROLLC =180 DEG.(LIFT DWN)
000074: 26,2121           12122                           NOOP                                           #  IF HEADSUP NEG,ROLLC =0 (LIFT UP)
000075: 26,2122           53747                           DXCH     ROLLC                                 #  ROLLC IS USED BY S62.3: GIM ANG AT .05G
000076:
000077: 26,2123           34764        AGIN,MON           CA       BIT14                                 #  LOCK OUT EXTENDED VERBS.(REDUNDANT ON
000078: 26,2124           55237                           TS       EXTVBACT                              #   INITIAL PASS)
000079:
000080: 26,2125           06006                           TC       INTPRET
000081: 26,2126           77745        NEWRNVN            DLOAD
000082: 26,2127           01036                                    PIPTIME                               #  SAVE TIME OF RN,VN TO DETERMINE IF AN
000083: 26,2130           37651                           STCALL   MM                                    #  UPDATE HAS OCCURRED
000084: 26,2131           52063                                    STARTEN1                              #  INITIALIZE
000085: 26,2132           43175                           VLOAD    CLEAR                                 #  'TTE' WILL BE DECREMENTED UNTIL
000086: 26,2133           01022                                    RN
000087: 26,2134           03274                                    .05GSW                                #  THE DRAG > 0.05 G .
000088:                                                                                                  #  .05GSW SET =1 BY  FRESH START.
000089:
000090: 26,2135           02210                           STORE    RONE
000091: 26,2136           77656                           UNIT
000092: 26,2137           26156                           STOVL    URONE
000093: 26,2140           01030                                    VN
000094: 26,2141           02216                           STORE    VONE
000095: 26,2142           53435                           VXV      UNIT
000096: 26,2143           02156                                    URONE
000097: 26,2144           03502                           STORE    UNI
000098: 26,2145           45345        DUMPP61            DLOAD    DSU
000099: 26,2146           03651                                    MM                                    #  INITIAL VALUE OF PIPTIME
000100: 26,2147           01036                                    PIPTIME
000101: 26,2150           45040                           BMN      CALRB
000102: 26,2151           54126                                    NEWRNVN                               #  UPDATED... GO TRY AGAIN
000103: 26,2152           54520                                    S61.2                                 #  GET DISPLAY DATA FOR N60 AND N63
000104:                                                                                                  #  AND RETURN IN BASIC, BELOW.
000105: 26,2153           05542        P61.1              TC       CLEARMRK
000106: 26,2154           35046                           CA       V06N60                                #  GMAX          VPRED           GAMMAEI
000107:                                                                                                  #  XXX.XX G      XXXXX. FPS      XXX.XX DEG
000108: 26,2155           05550                           TC       VNFLASH
000109:
000110:                                                                                                  #  'TICKTTE' DECREMENTS 'TTE' DISPLAY NOUN N63 AT A 2 SECOND RATE. 'TICKTTE' IS LOCATED IN 'SERVICER' AND
000111:                                                                                                  #  OPERATES ONLY DURING P61 THROUGH P63. THUS N63 IS 'ON CALL' & ON ENTRY  DOWNLIST THROUGH P63.
000112:                                                                                                  #  'TICKTTE' WILL GIVE PROPER ANSWER IN EVENT OF RESTART OR A RECYCLE VIA   V32.
000113:
000114: 26,2156           32274                           CA       V16N63                                #  RTGO          VIO             TTE
000115:                                                                                                  #  XXXX.X NM     XXXXX. FPS      XXBXX M,S
000116: 26,2157           04647                           TC       BANKCALL
000117: 26,2160           20623                           CADR     GOFLASH
000118: 26,2161           04103                           TC       GOTOPOOH
000119: 26,2162           02164                           TC       +2
000120: 26,2163           02123                           TC       AGIN,MON                              #  REDO CONIC CALC. ASSUME EXT VB INACTIVE
000121:
000122:                                                                                                  #                .... THEN FALL INTO P62
000123:
000124:
000125:                                                                                                  #  PROGRAM-              P62
000126:                                                                                                  #  MOD NO.-              0       MAR. 13, 1967
000127:                                                                                                  #  MOD BY-               R. HIRSCHKOP
000128:                                                                                                  #  MOD NO:  1            MOD BY:  RR BAIRNSFATHER        DATE: 21 MAR 67
000129:                                                                                                  #  MOD NO:  2            MOD BY:  RR BAIRNSFATHER        DATE: 22 JUN 67         RESTARTS.
000130:                                                                                                  #  MOD NO:  3            MOD BY:  RR BAIRNSFATHER        DATE: 17 JAN 68         COLOSSUS GSOP CHANGES.
000131:                                                                                                  #  MOD NO:  4            MOD BY:  RR BAIRNSFATHER        DATE:  8 MAY 68         MOVE START OF DESIRED GIMBAL CALC.
000132:                                                                                                  #  FUNCTION-             1) TO NOTIFY CREW WHEN GNC SYSTEM IS PREPARED FOR CM/SM SEPARATION
000133:                                                                                                  #                        2) TO ORIENT THE CM TO THE CORRECT ATTITUDE FOR ATMOSPHERIC ENTRY
000134:                                                                                                  #  CALLING SEQUENCE-     BY V37 OR DIRECTLY FROM P61
000135:                                                                                                  #  EXIT-                 TO P63
000136:                                                                                                  #  ERASABLE INITIALIZATION:
000137:                                                                                                  #        ALFAPAD                                         LEFT BY PAD LOAD
000138:                                                                                                  #        LADPAD                                          LEFT BY PAD LOAD
000139:                                                                                                  #        LODPAD                                          LEFT BY PAD LOAD
000140:                                                                                                  #        LAT(SPL)        (MAY BE CHANGED BELOW)          LEFT BY DSKY, VIA P61
000141:                                                                                                  #        LNG(SPL)        (MAY BE CHANGED BELOW)          LEFT BY DSKY, VIA P61
000142:                                                                                                  #        HEADSUP         (MAY BE CHANGED BELOW)          LEFT BY DSKY, VIA P61
000143:                                                                                                  #  SUBROUTINE CALLS:     NEWMODEX , S61.1 , CM/DAPIC , CM/DAPON , R02BOTH , GOPERF1 , GOFLASH , GODSPR
000144:
000145: 26,2164                                           COUNT*   $$/P62
000146:
000147: 26,2164           05357                 +2        TC       NEWMODEX                              #  MODE CHANGE IF ENTERED FROM P61
000148: 26,2165           00076                           MM       62         B-14                       #  MODE CHANGE AUTOMATIC VIA V 37.
000149: 26,2166           35001                           CA       ONE
000150: 26,2167           54332                           TS       DNLSTCOD
000151:
000152: 26,2170           02414        P62                TC       S61.1                                 #  CHECK STATE VECTOR AND IMU ORIENTATION.
000153:
000154: 26,2171           06006                           TC       INTPRET
000155: 26,2172           47131                           SSP      RTB
000156: 26,2173           03356                                    POSEXIT
000157: 26,2174           54251                                    P62.3                                 #  CALCULATE DESIRED .05G GIMBAL ANGLES,
000158:                                                                                                  #  WITHOUT DISPLAY.
000159: 26,2175           41730                                    CM/DAPIC                              #  START CM/POSE AND BODY RATE CALC
000160:
000161:                                                                                                  #  DOES 2PHSCHNG, OCT 40116, OCT 05024, OCT 13000.
000162:                                                                                                  #  CM/DAPIC SETS EBANK = EBAOG
000163:                                                                                                  #  AND RETURNS IN BASIC TO P62.2.
000164: 26,2176           00006        P62.2              EXTEND
000165: 26,2177           32300                           DCA      POSECADR                              #  CONTINUE WITH CM/POSE AFTER AV G.
000166: 26,2200           53054                           DXCH     AVEGEXIT
000167:
000168: 26,2201           32413                           CAF      OCT41                                 #  REQUEST SEPARATION
000169: 26,2202           04647                           TC       BANKCALL
000170: 26,2203           21027                           CADR     GOPERF1R
000171: 26,2204           04103                           TC       GOTOPOOH
000172: 26,2205           02210                           TC       +3                                    #  PROCEED
000173:                                                                                                  #  NOTE:  NODOFLAG WILL BE SET IN CM/DAPON. <<<
000174: 26,2206           02201                           TC       -5                                    #  ENTER
000175: 26,2207           02113                           TC       P61.3                                 #  FOR PHASCHNG AND ENDOFJOB.
000176:
000177: 26,2210           04666                 +3        TC       POSTJUMP
000178: 26,2211           41651                           CADR     CM/DAPON                              #  DISABLE RCS DAP, ENABLE ENTRY DAP AND
000179:                                                                                                  #  DO ATTITUDE HOLD.
000180:
000181:                                                                                                  #  WILL IDLE UNTIL CM/POSE DOES ONE UPDATE.
000182:                                                                                                  #  CM/DAPON DOES NO PHASCHNG.
000183:
000184: 26,2212           35047        P62.1              CA       V06N61                                #  LAT(SPL)      LNG(SPL)        HEADSUP
000185:                                                                                                  #  XXX.XX DEG    XXX.XX DEG      0000X.
000186:
000187:                                                                                                  #  TERMINATE  ATTITUDE HOLD. SET UP COMMANDS:
000188:                                                                                                  #  ROLLC,  ALFACOM,  BETACOM.   BEGIN MANUVER TO
000189:                                                                                                  #  ENTRY ATTITUDE.
000190:
000191: 26,2213           04647                           TC       BANKCALL
000192: 26,2214           20623                           CADR     GOFLASH
000193: 26,2215           02212                           TC       -3
000194: 26,2216           02220                           TC       +2
000195: 26,2217           02212                           TC       -5
000196:
000197: 26,2220           05415                           TC       PHASCHNG
000198: 26,2221           04024                           OCT      04024                                 #  USE ENTRYVN FOR DISPLAY BELOW.
000199:
000200:                                                                                                  #  EBANK WAS SET IN CM/DAPON TO EBAOG
000201:
000202: 26,2222           11757                           CCS      HEADSUP                               #  C(HEADSUP) = +/- 1
000203: 26,2223           34764                           CA       BIT14                                 #  IF HEADSUP POS, ROLLC=180 DEG (LIFT DWN)
000204: 26,2224           12225                           NOOP                                           #  IF HEADSUP NEG, ROLLC=0 DEG (LIFT UP)
000205: 26,2225           55746                           TS       ROLLC
000206: 26,2226           31777                           CA       ALFAPAD                               #  NOMINAL ALFATRIM PAD LOADED, NEG. NO.
000207: 26,2227           22007                           ZL
000208: 26,2230           53635                           DXCH     ALFACOM                               #  SET ALFACOM = ALFA TRIM, BETACOM=0
000209:
000210: 26,2231           35001                           CA       ONE                                   #  PERMITS EXDAP2 TO CHANGE FLAG TO +0
000211: 26,2232           55760                           TS       P63FLAG                               #  AS INDICATOR. STARTS UP P63.
000212:
000213: 26,2233           35040                           CA       V06N22                                #  SET UP DISPLAY FOR CDU DESIRED VALUES
000214: 26,2234           55114                           TS       ENTRYVN                               #  FROM ENTRY ATTITUDE CALC, THAT IS
000215:                                                                                                  #  ALREADY GOING.
000216: 26,2235           07710                           TC       UPFLAG                                #  TURN ON ENTRY DISPLAY
000217: 26,2236           00134                           ADRES    ENTRYDSP                              #  ENTRYDSP = 92D BIT 13 FLAG 6
000218:                                                                                                  #  SKIP
000219: 26,2237           41731                           CS       CMDAPMOD                              #  GO DIRECTLY TO P63 IF BODY ATTITUDE
000220: 26,2240           75001                           MASK     ONE                                   #  IS SUCH THAT THE DELAY TASK: WAKEP62
000221: 26,2241           00006                           EXTEND                                         #  WILL BE OMITTED.
000222: 26,2242           12271                           BZF      P63.1                                 #  DISABLE GRP 4, GO TO ENDOFJOB.
000223:                                                                                                  #  (IE, CONTINUE IF CMDAPMOD = -1, OR +0)
000224: 26,2243           02255                           TC       P63
000225:
000226:                                                                                                  #  PUT JOB TO SLEEP UNTIL VEHICLE MANUVER HAS
000227:                                                                                                  #  REDUCED ALFA TO +/-45 DEG. CONSIDER REMAINING
000228:                                                                                                  #  65 DEG (25 DEG IF ALFA NEG) TO ALFA TRIM TO
000229:                                                                                                  #  OCCUR AT 3 DEG/SEC, AND TERMINATE P62 AT THAT
000230:                                                                                                  #  TIME.
000231:                                                                                                  #  TASK WAKEP62 IS CALLED FROM ENTRY DAP.
000232:
000233: 26,2244           35064        WAKEP62            CA       PRIO13
000234: 26,2245           05134                           TC       NOVAC
000235: 26,2246  E6,1712                                  EBANK=   AOG
000236: 26,2246           02255 54066                     2CADR    P63
000237:
000238: 26,2250           05327                           TC       TASKOVER
000239:
000240:                                                                                                  #  EACH 2 SEC, CALCULATE GIMBAL ANGLES FOR ENTRY CON-
000241:                                                                                                  #  DITIONS THAT WILL HOLD IF REORIENTATION WERE MADE
000242:                                                                                                  #  AT PRESENT RN, VN. COME HERE FROM CM/POSE AND ALSO
000243:                                                                                                  #  IN KEPLER PHASE OF ENTRY.
000244:
000245: 26,2251           52131        P62.3              SSP      GOTO                                  #  SET RETURN ADDRESS SO THAT   ROUTINE
000246: 26,2252           00053                                    QPRET                                 #  GOES DIRECTLY TO ENTRY GUIDANCE EXIT
000247: 26,2253           53573                                    ENDEXIT                               #  THAT DOES ENTRY DISPLAY, GRP 5.
000248: 26,2254           20272                                    S62.3                                 #  PUT DESIRED CDU VALUES IN CPHI'S FOR
000249:                                                                                                  #  N22 DISPLAY.
000250:
000251:                                                                                                  #        P63
000252:                                                                                                  #  PROGRAM-              P63
000253:                                                                                                  #  MOD NO.-              0       MAR. 13, 1967
000254:                                                                                                  #  MOD BY-               R. HIRSCHKOP
000255:                                                                                                  #  MOD NO: 1             MOD BY: RR BAIRNSFATHER         DATE: 22 JIN 67         RESTARTS.
000256:                                                                                                  #  MOD NO: 2             MOD BY: RR BAIRNSFATHER         DATE: 14 JUL 67         REVISED RESTARTS
000257:                                                                                                  #  FUNCTION-             1) TO INITIALIZE THE ENTRY EQUATIONS
000258:                                                                                                  #                        2) TO CONTINUE TO HOLD THE CM TO THE CORRECT ATTITUDE WITH RESPECT TO THE ATMOSPHERE FOR
000259:                                                                                                  #                           THE ONSET OF ENTRY DECELERATION. ROLL ANGLE IS LIFT UP/DOWN AS SPECIFIED BY HEADSUP.
000260:                                                                                                  #                        3) TO SENSE .05G
000261:                                                                                                  #  CALLING SEQUENCE-     DIRECTLY FROM P62
000262:                                                                                                  #  EXIT-                 TO ENDOFJOB
000263:                                                                                                  #  SUBROUTINE CALLS-     NEWMODEX , GODSPR
000264:
000265: 26,2255                                           COUNT*   $$/P63
000266:
000267: 26,2255           05357        P63                TC       NEWMODEX
000268: 26,2256           00077                           MM       63         B-14
000269:
000270:                                                                                                  #  ARRIVE WITH EBANK = AOG.
000271:
000272: 26,2257           32276                           CA       ENTCADR                               #  CONTINUE AT STARTENT AFTER CM/POSE.
000273:
000274:                                                                                                  #  AT END OF STARTENT, CHANGE ADDRESS IN GOTOADDR
000275:                                                                                                  #  TO CONTINUE AT  SCALEPOP  THEREAFTER.
000276:
000277: 26,2260           55755                           TS       POSEXIT
000278:
000279: 26,2261           32275                           CA       V06N64                                #  G             VI              R TO SPLSH
000280:                                                                                                  #  XXX.XX G      XXXXX. FPS      XXXX.X NM
000281: 26,2262           55114                           TS       ENTRYVN                               #  FOR DISPLAY CALL IN OVERNOUT.
000282:
000283: 26,2263           45001                           CS       ONE                                   #  IN CASE FLAG IS LEFT AT +1 BY DAP. THE
000284: 26,2264           55760                           TS       P63FLAG                               #  -1 ASSURES THAT EXO-ATM DAP WILL NOT
000285:                                                                                                  #  CALL P63 OUT OF SEQUENCE IN P66.
000286:
000287: 26,2265           05415                           TC       PHASCHNG                              #  THIS IS REQUIRED TO PRESERVE CLEANDSP
000288: 26,2266           00004                           OCT      00004                                 #  RETURN IN EVENT OF AN EXTENDED VERB..
000289:
000290: 26,2267           04647                           TC       BANKCALL                              #  FLUSH 'N22' DISPLAY, IF ON. (OMIT
000291: 26,2270           20575                           CADR     CLEANDSP                              #  DISPLAY DURING 'STARTENT' PASS.)
000292:
000293: 26,2271           05415        P63.1              TC       PHASCHNG
000294: 26,2272           00004                           OCT      00004                                 #  DISABLE. DISPLAY RESTARTED VIA ENTRY.
000295:
000296: 26,2273           05220                           TC       ENDOFJOB
000297:
000298: 26,2274           04077        V16N63             VN       1663
000299: 26,2275           01500        V06N64             VN       0664
000300: 26,2276           52000        ENTCADR            CADR     STARTENT
000301: 26,2277  E7,1451                                  EBANK=   RTINIT                                #  TO CARY OVER INTO ENTRY STEERING.
000302: 26,2277           03265 76067  POSECADR           2CADR    CM/POSE
000303:
000304:
000305:                                                                                                  #  PROGRAM-              P64
000306:                                                                                                  #  MOD NO.-              1       SEPT. 19, 1967
000307:                                                                                                  #  MOD BY-               R. HIRSCHKOP
000308:                                                                                                  #  MOD NO: 2             MOD BY: RR BAIRNSFATHER         DATE: 8 MAY 68          REVISED COMMENTS FOR COLOSSUS
000309:                                                                                                  #  MOD NO: 3             MOD BY: RR BAIRNSFATHER         DATE: 1 MAR '69         N74
000310:                                                                                                  #  FUNCTION-             1. TO START ENTRY GUIDANCE AT .05G SELECTING ROLL ATTITUDE, CONSTANT DRAG LEVEL, AND
000311:                                                                                                  #                        DRAG THRESHOLD,  KA  , WHICH ARE KEYED TO THE .05G POINT.
000312:                                                                                                  #                        2. SELECT FINAL PHASE P67 IF V < 27000 FPS WHEN .2G OCCURS.
000313:                                                                                                  #                        3. ITERATE FOR UP-CONTROL SOLUTION  P65  IF V > 27000 FPS AND IF ALTITUDE RATE AND DRAG
000314:                                                                                                  #                        LEVEL CONDITIONS ARE SATISFIED. ENTER P65 WHEN CONSTANT DRAG CONTROLLER HAS BROUGHT RANGE
000315:                                                                                                  #                        AS PREDICTED TO WITHIN 25 NM OF DESIRED RANGE.
000316:                                                                                                  #                        4. SELECT FINAL PHASE  P67  IF NO UP-CONTROL SOLUTION EXISTS WITH VL > 18000 FPS.
000317:                                                                                                  #  CALLING SEQUENCE-     BY RTB FROM REENTRY CONTROL
000318:                                                                                                  #  EXIT-                 BACK TO REENTRY CONTROL
000319:                                                                                                  #  SUBROUTINE CALLS-     NEWMODEX
000320:
000321: 26,2000                                           SETLOC   P60S1
000322: 26,2000                                           BANK
000323:
000324:                                                                                                  #  THIS DISPLAY IS CALLED EACH PASS THROUGH STEERING. RESTART PROTECTION IS VIA STEERING.
000325:
000326: 26,2301                                           COUNT*   $$/P64
000327:
000328: 26,2301           05357        P64                TC       NEWMODEX                              #  ENTER VIA RTB WHEN .05G IS EXCEEDED.
000329: 26,2302           00100                           MM       64         B-14
000330: 26,2303           32306                           CA       V06N74                                #  ROLLC         VI              D
000331:                                                                                                  #  XXX.XX DEG    XXXXX. FPS      XXX.XX G
000332: 26,2304           55114                           TS       ENTRYVN                               #  DISPLAY VIA OVERNOUT.
000333:
000334: 26,2305           06030                           TC       DANZIG                                #  ... AND CONTINUE IN INITROLL ...
000335:
000336: 26,2306           01512        V06N74             VN       0674
000337:
000338:                                                                                                  #  PROGRAM:              P65
000339:                                                                                                  #  MOD NO:  0            MOD BY:  RR BAIRNSFATHER        DATE:  17 JAN 68        COLOSSUS GSOP ADDITION.
000340:                                                                                                  #  FUNCTION:             TO CONTINUE ENTRY GUIDANCE, USING THE UP-CONTROL PHASE TO STEER TO A CONTROLLED EXIT
000341:                                                                                                  #                        CONDITION. THIS PHASE TERMINATES  A) IF D < Q7 FPSS, GO TO P66   ,
000342:                                                                                                  #                                                          B) IF RDOT NEG, AND IF V < VL +500 FPS, GO TO P67.
000343:
000344:                                                                                                  #  CALLING SEQUENCE:     BY RTB FROM REENTRY CONTROL
000345:                                                                                                  #  EXIT:                 BACK TO REENTRY CONTROL, OR TO ENDOFJOB.
000346:                                                                                                  #  SUBROUTINE CALLS:     NEWMODEX
000347:
000348: 26,2307                                           COUNT*   $$/P65
000349:
000350: 26,2307           05357        P65                TC       NEWMODEX                              #  ENTER VIA RTB WHEN RANGE < 25 N M OF
000351: 26,2310           00101                           MM       65         B-14                       #  TARGET.
000352:
000353: 26,2311           35064                           CA       PRIO13
000354: 26,2312           05134                           TC       NOVAC
000355: 26,2313     1114                                  EBANK=   ENTRYVN
000356: 26,2313           02325 54062                     2CADR    P65.1
000357:
000358: 26,2315           05375                           TC       2PHSCHNG                              #  2 PHASE CHG REQUIRED TO PREVENT RE-
000359: 26,2316           00554                           OCT      00554                                 #  STARTING FLASHING DISPLAY TWICE.
000360: 26,2317           10035                           OCT      10035                                 #  4.55 SPOT AND SERVICER, HERE.
000361: 26,2320  01,2231               4P55SPT1           =        4.55SPOT
000362: 26,2320  01,2253               5P3SPT8            =        5.3SPOT
000363: 26,2320           06006                           TC       INTPRET
000364: 26,2321           47131                           SSP      RTB
000365: 26,2322           03646                                    GOTOADDR                              #  CHANGE ENTRY MODE TO UPCONTRL.
000366: 26,2323           53033                                    UPCONTRL
000367: 26,2324           52117                                    REFAZE10                              #  GO HERE TO REESTABLISH ENTRY SEQUENCER.
000368:                                                                                                  #  AND CONTINUE AT UPCONTRL...
000369:
000370: 26,2325           07722        P65.1              TC       DOWNFLAG
000371: 26,2326           00134                           ADRES    ENTRYDSP                              #  ENTRYDSP = 92D  BIT 13 FLAG 6
000372:
000373: 26,2327           32341                           CA       V16N69                                #  ROLLC         DL  (Q7)        VL
000374: 26,2330           04647                           TC       BANKCALL                              #  XXX.XX DEG    XXX.XX G        XXXXX. FPS
000375: 26,2331           20761                           CADR     GOFLASHR
000376: 26,2332           02327                           TC       -3                                    #  NODOFLAG IS SET..
000377: 26,2333           02336                           TC       +3
000378: 26,2334           02327                           TC       -5
000379: 26,2335           02113                           TC       P61.3                                 #  EST. GRP 4 FOR DSPLAY AND DO ENDOFJOB
000380:                                                                                                  #  IF PROCEED, CONTINUE.
000381: 26,2336           07710                           TC       UPFLAG
000382: 26,2337           00134                           ADRES    ENTRYDSP                              #  ENTRYDSP = 92D   BIT 13 FLAG 6
000383:
000384: 26,2340           02271                           TC       P63.1                                 #  DISABLE GRP 4, START UP ENTRY DISPLAY
000385:                                                                                                  #  N06V68 VIA OVERNOUT, AS USED IN P64.
000386: 26,2341           04105        V16N69             VN       1669
000387:
000388:                                                                                                  #  PROGRAM:              P66
000389:                                                                                                  #  MOD NO: 0             MOD BY: RR BAIRNSFATHER         DATE: 17 JAN 68         COLOSSUS GSOP ADDITIONS.
000390:                                                                                                  #  FUNCTION:             KEEP CM ATTITUDE IN TRIM TO THE RELATIVE VELOCITY VECTOR. ENTRY GUIDANCE STOPS GENERATING
000391:                                                                                                  #                        ROLL COMMANDS UNTIL DRAG BUILDS UP TO Q7+0.5 FPSS.
000392:                                                                                                  #  CALLING SEQUENCE:     VIA RTB FROM REENTRY CONTROL.
000393:                                                                                                  #  EXIT:                 BACK TO REENTRY CONTROL.
000394:                                                                                                  #  SUBROUTINE CALLS:     NEWMODEX
000395:
000396: 26,2342                                           COUNT*   $$/P66
000397:
000398: 26,2342           05357        P66                TC       NEWMODEX                              #  ENTER VIA RTB WHEN D < Q7 FPSS
000399: 26,2343           00102                           MM       66         B-14
000400:
000401: 26,2344           35040                           CA       V06N22                                #  OGA           IGA             MGA
000402:                                                                                                  #  XXX.XX DEG    XXX.XX DEG      XXX.XX DEG
000403: 26,2345           02351                           TC       P66END                                #  IN CASE CAME FROM P65, GO DISABLE GRP4,
000404:                                                                                                  #  AND SET ENTRYDSP TO DO DISPLAY VIA
000405:                                                                                                  #  OVERNOUT.
000406:
000407:                                                                                                  #  ... AND CONTINUE AT KEP2
000408:
000409:                                                                                                  #  P67
000410:
000411:                                                                                                  #  PROGRAM-              P67
000412:                                                                                                  #  MOD NO.-              0       MAR. 16, 1967
000413:                                                                                                  #  MOD BY-               R. HIRSCHKOP
000414:                                                                                                  #  FUNCTION-             TO TERMINATE STEERING WHEN THE CM VELOCITY WRT EARTH = 1000 FT/SEC
000415:                                                                                                  #  CALLING SEQUENCE-
000416:                                                                                                  #  EXIT-                 TO POOH
000417:                                                                                                  #  SUBROUTINE CALLS-     GOFLASH
000418:
000419:                                                                                                  #  THIS DISPLAY IS CALLED EACH PASS THROUGH STEERING. RESTART PROTECTION IS VIA STEERING.
000420:
000421: 26,2346                                           COUNT*   $$/P67
000422:
000423: 26,2346           05357        P67                TC       NEWMODEX                              #  ENTER VIA RTB
000424: 26,2347           00103                           MM       67         B-14
000425: 26,2350           32357                           CA       V06N66                                #  ROLLC         XRNGERR         DNRNGERR
000426:                                                                                                  #  XXX.XX DEG    XXXX.X NM       XXXX.X NM
000427: 26,2351           55114        P66END             TS       ENTRYVN                               #  DISPLAY VIA OVERNOUT.
000428:
000429: 26,2352           07710                           TC       UPFLAG                                #  (IN CASE CAME FROM P65. ENTRY DISPLAY
000430: 26,2353           00134                           ADRES    ENTRYDSP                              #  WILL FLUSH FLASHING DISP. IF STILL ON)
000431:                                                                                                  #  BIT 13 FLAG 6
000432: 26,2354           05415        KILLGRP4           TC       PHASCHNG                              #  DISABLE GRP4, IN CASE CAME FROM HUNTEST.
000433: 26,2355           00004                           OCT      00004                                 #  (COME TO KILLGRP4 VIA RTB, RET TO CALLER)
000434:
000435: 26,2356           06030                           TC       DANZIG                                #  ... AND CONTINUE AT PREDICT3 ...
000436:
000437: 26,2357           01502        V06N66             VN       0666
000438:
000439: 26,2000                                           SETLOC   P60S2
000440: 26,2000                                           BANK
000441:
000442: 26,2360           32412        P67.1              CA       V16N67                                #  RTOGO         LAT             LONG
000443:                                                                                                  #  XXXX.X NM     XXX.XX DEG      XXX.XX DEG
000444: 26,2361           04647                           TC       BANKCALL
000445: 26,2362           20623                           CADR     GOFLASH
000446: 26,2363           02366                           TC       +3                                    #  EFFECTIVE GOTOPOOH
000447: 26,2364           02366                           TC       +2
000448: 26,2365           02360                           TC       P67.1                                 #  REDO
000449:
000450: 26,2366           00004                           INHINT
000451: 26,2367           35000                           CA       CM/DSBIT
000452: 26,2370           65001                           AD       GYMDIBIT
000453: 26,2371           40000                           COM
000454: 26,2372           70102                           MASK     CM/FLAGS                              #  CM/DSTBY, GAMDIFSW
000455: 26,2373           54102                           TS       CM/FLAGS
000456: 26,2374           00003                           RELINT
000457: 26,2375           00006                           EXTEND
000458: 26,2376           32512                           DCA      SERVCAD2
000459: 26,2377           53054                           DXCH     AVEGEXIT
000460:
000461: 26,2400           14103                           TCF      GOTOPOOH
000462:
000463: 26,2401           43175        P67.2              VLOAD    CLEAR                                 #  CALC PRESENT LAT, LONG, ALT.
000464: 26,2402           01022                                    RN
000465: 26,2403           00662                                    ERADFLAG                              #  USE PAD RAD FOR ALT. (NOT SEEN ANYWAY)
000466: 26,2404           16054                           STODL    ALPHAV
000467: 26,2405           01036                                    PIPTIME                               #  USE TIME OF RN
000468: 26,2406           77624                           CALL
000469: 26,2407           22461                                    LAT-LONG
000470: 26,2410           77634        P67.3              RTB                                            #  ENTRY EXIT THAT OMITS DISPLAY.
000471: 26,2411           53606                                    SERVNOUT
000472:
000473: 26,2412           04103        V16N67             VN       1667
000474: 26,2413           00041        OCT41              OCT      41
000475: 26,2414  26,2511               SERVCAD2           =        SERVCAD1
000476:
000477:                                                                                                  #  SUBROUTINE NAME:      S61.1
000478:                                                                                                  #  MOD NO:       0                                                               DATE:           21 FEB 67
000479:                                                                                                  #  MOD BY:       RR BAIRNSFATHER                                                 LOG SECTION:    P61-P67
000480:                                                                                                  #  MOD NO:       1       MOD BY: RR BAIRNSFATHER         DATE:   22 JUN 67       RESTARTS.
000481:                                                                                                  #  FUNCTIONAL DESCRIPTION:       CALLED BY BOTH P61 AND P62
000482:                                                                                                  #        FIRST, TEST TO SEE IF   AVERAGEG   IS ON. IF NOT, UPDATE THE STATE VECTOR TO PRESENT TIME + TOLERANCE
000483:                                                                                                  #        AND TURN ON   AVERAGEG   AT THAT TIME, AND CONTINUE.   OTHERWISE CONTINUE:   SEE IF   IMU Y AXIS IS
000484:                                                                                                  #        WITHIN 30 DEG OF V*R.  IF YES, EXIT SUBROUTINE S61.1.    IF NO,  SEE IF -Y AXIS OF IMU IS WITHIN
000485:                                                                                                  #        30 DEG OF V*R.  IF YES, DISPLAY ALARM:  01427   IMU REVERSED.
000486:                                                                                                  #                        IF NO, DISPLAY ALARM:   01426   IMU UNSATISFACTORY.
000487:                                                                                                  #        IN EITHER OF THESE LAST 2 CASES, WAIT  10 SEC  AND THEN EXIT SUBROUTINE  S61.1.
000488:
000489:                                                                                                  #  REMARK:       THERE WILL BE A SHORT 10 SEC DELAY IF AN ALARM EXIT IS TAKEN. THE DELAY FOR INTEGRATION IS
000490:                                                                                                  #                AS SHORT AS CAN BE MADE, BUT IS ARBITRARY SINCE IT DEPENDS ON THE AGE OF THE STATE VECTOR.
000491:
000492:                                                                                                  #  CALLING SEQUENCE:     CALL
000493:                                                                                                  #                                S61.1
000494:                                                                                                  #                        C(MPAC) UNSPECIFIED
000495:                                                                                                  #                        PUSHLOC UNSPECIFIED
000496:
000497:                                                                                                  #  SUBROUTINES CALLED:   LOADTIME, CSMPREC, TPAGREE,
000498:                                                                                                  #                        WAITLIST, JOBSLEEP, JOBWAKE, PREREAD, ALARM, GODSPR, BANKCALL, DELAYJOB
000499:                                                                                                  #  NORMAL EXIT MODES:    RVQ
000500:                                                                                                  #  ALARMS:       01426   IMU UNSATISFACTORY
000501:                                                                                                  #                01427   IMU REVERSED
000502:                                                                                                  #  OUTPUT:       POSSIBLE ALARMS
000503:                                                                                                  #                POSSIBLY TDEC1, RATT, VATT, RN, VN
000504:                                                                                                  #  ERASABLE INITIALIZATION REQUIRED:
000505:                                                                                                  #        AVEGFLAG                AVERAGEG ON OR OFF                              LEFT BY SERVICER
000506:                                                                                                  #        PIPTIME   (-28) CS      TIME OF PIPA UPDATE                             LEFT BY READACCS
000507:                                                                                                  #        RN        (-29) M       STATE VECTOR                                    LEFT BY AVERAGEG
000508:                                                                                                  #        VN        (-7) M/CS     STATE VECTOR                                    LEFT BY AVERAGEG
000509:                                                                                                  #        REFSMMAT  (-1)          .5 REF TO SM MATRIX                             LEFT BY LAST IMU ALIGNMENT
000510:
000511:                                                                                                  #  DEBRIS:       QPRET
000512:                                                                                                  #                POSSIBLY PIPTIME1, RATT, VATT, TDEC1, RN1, VN1, QTEMP, X1       IF UPDATED
000513:                                                                                                  #                PUSH LIST LOCS USED BY CSMPREC
000514:
000515: 26,2414  E6,1712                                  EBANK=   AOG                                   #  FOR 60GENRET, S61DT
000516: 26,2000                                           SETLOC   P60S3
000517: 26,2000                                           BANK
000518:
000519: 26,2414                                           COUNT*   $$/S61.1
000520:
000521: 26,2414           00006        S61.1              EXTEND
000522: 26,2415           23775                           QXCH     60GENRET                              #  SAVE RET ADDR IN EB 6
000523: 26,2416           04647                           TC       BANKCALL
000524: 26,2417           03737                           CADR     R02BOTH
000525: 26,2420           06006                           TC       INTPRET
000526:
000527: 26,2421           45014                           BON      CALRB
000528: 26,2422           00716                                    AVEGFLAG                              #  IS AVERAGEG ON
000529: 26,2423           54453                                    S61.1A                                #  YES
000530: 26,2424           27535                                    MIDTOAV2                              #  GET FUTURE STATE VECTOR SOON AS CAN
000531:
000532: 26,2425           30155                           CA       MPAC       +1                         #  RETURN INHINTED ***
000533: 26,2426           55776                           TS       S61DT                                 #  FOR RESTART.
000534: 26,2427           05246                           TC       WAITLIST
000535: 26,2430  E7,1425                                  EBANK=   DVTOTAL
000536: 26,2430           02435 54067                     2CADR    S61.1C
000537:
000538: 26,2432           05415                           TC       PHASCHNG
000539: 26,2433           40434                           OCT      40434
000540: 26,2434  01,2212               4P43SPT1           =        4.43SPOT
000541: 26,2434           05220                           TC       ENDOFJOB
000542:
000543: 26,2435           35064        S61.1C             CA       PRIO13
000544: 26,2436           05150                           TC       FINDVAC
000545: 26,2437  E6,1712                                  EBANK=   AOG
000546: 26,2437           02452 54066                     2CADR    S61.1A-1
000547:
000548: 26,2441           00006                           EXTEND
000549: 26,2442           32512                           DCA      SERVCAD1                              #  HE WHO STARTS AVERAGEG MUST SERVICE
000550: 26,2443           53054                           DXCH     AVEGEXIT                              #  THE EXIT.
000551:
000552: 26,2444           05375                           TC       2PHSCHNG
000553: 26,2445           00454                           OCT      00454
000554: 26,2446           00175                           OCT      00175
000555: 26,2447  01,2215               4P45SPT1           =        4.45SPOT
000556: 26,2447  01,2275               5P17SPT1           =        5.17SPOT
000557: 26,2447           04606                           TC       E7SETTER
000558:
000559: 26,2450           04666                           TC       POSTJUMP
000560: 26,2451           76447                           CADR     PREREAD                               #  PREREAD DOES TC TASKOVER.
000561:
000562: 26,2452           06006        S61.1A-1           TC       INTPRET
000563: 26,2453           77204        S61.1A             BOVB     VLOAD
000564: 26,2454           57450                                    TCDANZIG                              #  TURN OFF OVFIND, IF ON
000565: 26,2455           01030                                    VN                                    #  VN     (-7) M/CS
000566: 26,2456           64235                           VXV      MXV
000567: 26,2457           01022                                    RN                                    #  RN    (-29) M
000568: 26,2460           01720                                    REFSMMAT                              #  .5 UNIT MATRIX
000569: 26,2461           71256                           UNIT     DLOAD
000570: 26,2462           00160                                    MPAC       +3                         #  GET COS(THETA)/2
000571: 26,2463           43240                           BMN      DAD
000572: 26,2464           54471                                    S61.1B                                #  DO TEST ON -YSM
000573: 26,2465           14514                                    C(30)LIM                              #  = 1.0 -.5 COS(30)
000574: 26,2466           47004                           BOVB     RTB
000575: 26,2467           54510                                    RETRN1
000576: 26,2470           54475                                    RETRN3
000577: 26,2471           43276        S61.1B             DCOMP    DAD
000578: 26,2472           14514                                    C(30)LIM                              #  = 1.0 - .5 COS(30)
000579: 26,2473           77404                           BOVB     EXIT
000580: 26,2474           54500                                    RETRN2
000581:
000582: 26,2475           05644        RETRN3             TC       ALARM
000583: 26,2476           01426                           OCT      01426                                 #  IMU UNSATISFACTORY
000584: 26,2477           02502                           TC       RETRN2     +2
000585:
000586: 26,2500           05644        RETRN2             TC       ALARM
000587: 26,2501           01427                           OCT      01427                                 #  IMU REVERSED
000588:
000589: 26,2502           35036                 +2        CAF      V05N09
000590: 26,2503           04647                           TC       BANKCALL
000591: 26,2504           20570                           CADR     GODSPR                                #  DO DISPLAY
000592: 26,2505           32515                           CA       10SECS
000593: 26,2506           04647                           TC       BANKCALL
000594: 26,2507           01731                           CADR     DELAYJOB
000595:
000596: 26,2510           01775        RETRN1             TC       60GENRET
000597:
000598: 26,2511  E7,1425                                  EBANK=   DVTOTAL
000599: 26,2511           03033 76067  SERVCAD1           2CADR    SERVEXIT
000600: 26,2513           22111 17335  C(30)LIM           2DEC     .566985                               #  = 1.0 - .5 COS(30)
000601: 26,2515           01750        10SECS             DEC      1000       B-14                       #  1000 CS
000602: 26,2516           00000 13560  60SECDP            2DEC     6000       B-28                       #  6000 CS
000603:
000604:                                                                                                  #  PROGRAM NAME:         S61.2                                           DATE:           14 FEB 67
000605:                                                                                                  #  MOD NO:       1                                                       LOG SECTION:    P61-P67
000606:                                                                                                  #  MOD BY:       MORTH / BAIRNSFATHER
000607:                                                                                                  #  MOD NO: 2     MOD BY: MORTH/BAIRNSFATHER      DATE: 11 MAY 67         ADD 2ND ITER FOR ERAD AT 400K FT.
000608:                                                                                                  #  MOD NO: 3     MOD BY: RR BAIRNSFATHER         DATE: 21 NOV 67         VARIABLE MU ADDED.
000609:                                                                                                  #  MOD NO: 4     MOD BY: RR BAIRNSFATHER         DATE: 21 MAR 68         DIFFERENT EARTH/MOON SCALES IN TFF'S
000610:                                                                                                  #  FUNCTIONAL DESCRIPTION:       CALLED BY P61.  PROVIDES DISPLAYS FOR NOUNS  N60  AND  N63  .
000611:                                                                                                  #        PROGRAM CALCULATES ENTRY DISPLAY OF MAXIMUM ACCELERATION EXPECTED  (GMAX)  AND ALSO THE EXPECTED
000612:                                                                                                  #        INERTIAL VELOCITY (VPRED) AND ENTRY ANGLE  (GAMMAEI)  THAT WILL OBTAIN AT 400K FT ABOVE THE FISCHER
000613:                                                                                                  #        ELLIPSOID.  PROGRAM ALSO CALCULATES A SECOND DISPLAY RELATIVE  TO THE EMSALT  ABOVE FISCHER ELLIPSOID
000614:                                                                                                  #        AND CONSISTS OF RANGE TO SPLASH FROM NOW (RTGO) , PREDICTED INERTIAL VELOCITY (VIO) , AND THE TIME TO
000615:                                                                                                  #        GO FROM NOW (TTE) .
000616:                                                                                                  #  CALLING SEQUENCE:     CALL
000617:                                                                                                  #                                S61.2
000618:                                                                                                  #                C(MPAC) UNSPECIFIED
000619:                                                                                                  #                PUSHLOC WILL BE SET TO ZERO.
000620:
000621:                                                                                                  #  SUBROUTINES CALLED:   TFFCONIC,  CALCTFF,  TFF/TRIG,  FISHCALC,  GETERAD,  VGAMCALC
000622:                                                                                                  #  NORMAL EXIT MODES:    RTB     P61.1
000623:                                                                                                  #  ALARMS:       NONE
000624:                                                                                                  #  OUTPUT:       THE FOLLOWING REGISTERS ARE WRITTEN IN FOR USE BY DISPLAYS
000625:                                                                                                  #                GMAX    100 GMAX (-14) G,S      MAXIMUM ACCELERATION
000626:                                                                                                  #                VPRED   (-7) M/CS               PREDICTED VELOCITY AT 400K FT
000627:                                                                                                  #                GAMMAEI GAMMA/360               PREDICTED GAMMA    AT 400K FT
000628:                                                                                                  #                                                FOR TM, DP(GAMMAEI) = (GAMMAEI, RTGO) / 360
000629:                                                                                                  #                RTGO    THETAH/360              RANGE ANGLE TO SPLASH FROM EMSALT       EMSALT IS PAD LOADED
000630:                                                                                                  #                VIO     (-7) M/CS               INERTIAL VELOCITY  AT      EMSALT       EMSALT IS PAD LOADED
000631:                                                                                                  #                TTE     (-28) CS                TIME    TO                 EMSALT       EMSALT IS PAD LOADED
000632:
000633:                                                                                                  #                PUSHLOC = 0
000634:                                                                                                  #                CONIC PARAMETERS STORED IN VAC AREA (SEE TFF SUBROUTINES)
000635:                                                                                                  #  ERASABLE INITIALIZATION REQUIRED:
000636:                                                                                                  #                RONE    (-29) M                 STATE VECTOR                            LEFT BY USER
000637:                                                                                                  #                VONE    (-7)  M/CS              STATE VECTOR                            LEFT BY USER
000638:                                                                                                  #                URONE   UR/2                                                            LEFT BY USER
000639:                                                                                                  #                UNI     (-1)                    UNIT NORMAL V*R                         LEFT BY ENTRY / P61
000640:                                                                                                  #                THETAH  THETAH/360              RANGE ANGLE                             LEFT BY ENTRY / P61
000641:                                                                                                  #                UNITW   (0)                     UNIT POLAR VECTOR                       LEFT BY PAD LOAD
000642:                                                                                                  #                EMSALT  (-29) M                 EMS INTERFACE ALTITUDE                  LEFT BY PAD LOAD
000643:                                                                                                  #                                                ORBITAL REENTRY: 284643 FT,  LUNAR REENTRY: 297431 FT.
000644:                                                                                                  #  DEBRIS:       QPRET,
000645:                                                                                                  #                ALL PDL LOCATIONS ABOVE 12D, INCLUDING X1,X2,S1,S2
000646:                                                                                                  #                ALSO PDL+0 ... PDL+5, WHERE INITIAL PUSHLOC = PDL
000647:
000648:
000649:                                                                                                  #  THE FOLLOWING PUSH LIST LOCATIONS HAVE BEEN RESERVED FOR TFF ROUTINES AND ARE REPEATED HERE FOR CONVENIENCE.
000650:                                                                                                  #  OF COURSE FOR S61.2 USAGE, EARTH ORIGIN SCALING IS USED.
000651:
000652:                                                                                                  #                                BELOW   E:  IS USED FOR EARTH ORIGIN SCALE
000653:                                                                                                  #                                        M:  IS USED FOR MOON ORIGIN SCALE
000654:
000655:                                                                                                  #        RTERM   =       18D             TERMINAL RADIUS M       E:  (-29)       M:  (-27)
000656:                                                                                                  #        NRTERM  =       16D             TERMINAL RADIUS M       E:  (-29+NR)
000657:                                                                                                  #                                                                M:  (-27+NR)
000658:                                                                                                  #        RMAG1   =       12D             PRESENT RADIUS M        E:  (-29)       M:  (-27)
000659:                                                                                                  #        NRMAG   =       32D             PRESENT RADIUS M        E:  (-29+NR)
000660:                                                                                                  #                                                                M:  (-27+NR)
000661:                                                                                                  #        SDELF/2                         SIN(THETA) / 2
000662:                                                                                                  #        CDELF/2 =       14D             COS(THETA) / 2
000663:                                                                                                  #        TFFX    =       34D             X, ARGUMENT OF SERIES T(X).
000664:                                                                                                  #        TFFTEM  =       36D             ARG FOR TRANSFER ANGLE CALCULATION.
000665:                                                                                                  #        TFFNP   =       28D             LC P  M                 E:  (-38+2NR)   M:  (-36+2NR)
000666:                                                                                                  #        TFF/RTMU=       30D             1/SQRT(MU)              E:  (17)        M:  (14)
000667:                                                                                                  #        TFFVSQ  =       20D             -(VN.VN/MU)     1/M     E:  (20)        M:  (18)
000668:
000669: 26,2000                                           SETLOC   P60S2
000670: 26,2000                                           BANK
000671:
000672: 26,2520                                           COUNT*   $$/S61.2
000673:
000674:                                                                                                  #  PDL LEFT AT ZERO BY TARGETNG
000675:
000676: 26,2520           45345        S61.2              DLOAD    DSU
000677: 26,2521           02005                                    EMSALT
000678: 26,2522           14654                                    290KFT
000679: 26,2523           71244                           BPL      DLOAD
000680: 26,2524           54650                                    LUNENT
000681: 26,2525           17452                                    1/RTMU                                #  ESTABLISH MU FOR ORBITAL ENTRIES
000682: 26,2526           77624        CALLCON            CALL
000683: 26,2527           57055                                    TFFCONIC                              #  FILL VAC AREA WITH CONIC PARAMETERS
000684:
000685: 26,2530           45145                           DLOAD    CALL
000686: 26,2531           14672                                    RTRIAL                                #  1 ST GUESS AT TERMINAL RADIUS (-29)
000687: 26,2532           57165                                    CALCTFF                               #  SAVES MPAC IN RTERM  (18D)
000688:
000689: 26,2533           77624                           CALL                                           #  CALC SDELF/2, CDELF/2
000690: 26,2534           56766                                    TFF/TRIG                              #  RETURN WITH S(THETA) IN MPAC
000691:
000692: 26,2535           77624                           CALL                                           #  GET FISCHER RADIUS (-29) M
000693: 26,2536           54701                                    FISHCALC                              #  ANS IN MPAC AND IN ERADM.
000694:
000695: 26,2537           45015                           DAD      CALL
000696: 26,2540           02005                                    EMSALT
000697: 26,2541           57165                                    CALCTFF                               #  SAVES MPAC IN  RTERM  (18D)
000698:
000699: 26,2542           03733                           STORE    TTE1                                  #  USED IN TARGET ITERATION (DISPTARG)
000700: 26,2543           57415                           DAD      DCOMP                                 #  DECR 'TTE' FROM BASE 'TTE2' IN 'SERVICER
000701: 26,2544           03651                                    MM                                    #  'PIPTIME' FOR STATE VECTOR
000702:                                                                                                  #  DNLIST AND DSKY WILL USE TTE.
000703: 26,2545           03735                           STORE    TTE2                                  #  TTE=PIPTIME+TTE2=-(TTE1+MM-PIPTIME)
000704: 26,2546           77615                           DAD                                            #  DECREMENT 'TTE' FOR DISPLAY AND DOWNLINK
000705: 26,2547           01036                                    PIPTIME                               #  UNTIL SERVICER COMES ALONG.
000706: 26,2550           37727                           STCALL   TTE                                   #  'TTE' IS NEGATIVE AS IN COUNTDOWN.
000707:
000708:                                                                                                  #  TTE= TIME FROM NOW TO EMSALT +FISCHER
000709:
000710: 26,2551           56766                                    TFF/TRIG                              #  S(THETA) IN MPAC ON RETURNING
000711:                                                                                                  #  AND THETA= RANGE FROM NOW TO EMSALT
000712:
000713: 26,2552           77624                           CALL
000714: 26,2553           54701                                    FISHCALC
000715: 26,2554           77624                           CALL
000716: 26,2555           11221                                    VRCALC
000717: 26,2556           77624                           CALL
000718: 26,2557           11206                                    DISPTARG
000719: 26,2560           77624                           CALL
000720: 26,2561           11206                                    DISPTARG
000721: 26,2562           37714                           STCALL   RTGO
000722: 26,2563           54722                                    VGAMCALC
000723:
000724: 26,2564           77605                           DMP                                            #  MPAC = GAMMA
000725:                                                                                                  #  PDL0 HAS VGAM.
000726: 26,2565           43265                           BDDV     DAD
000727: 26,2566           14700                                    VEMSCON                               #  -HS D 180/PI (-14)
000728: 26,2567           00001                                    0                                     #  VGAM FROM PDL0.
000729: 26,2570           17725                           STODL    VIO                                   #  PREDICTED VELOCITY AT EMSALT.
000730:
000731:                                                                                                  #  GAMMA AND VGAM AT 300K FT ARE REQUIRED BY  GMAX
000732:                                                                                                  #  ALGORITHM.
000733:
000734: 26,2571           02142                                    ERADM                                 #  EARTH RADIUS FROM GETERAD             (-29) M
000735:                                                                                                  #  = FISCHER RADIUS  (-29)
000736: 26,2572           77615                           DAD
000737: 26,2573           06551                                    300KFT                                #  M  (-29)
000738: 26,2574           34023                           STCALL   RTERM                                 #  TERMINAL RADIUS  M  (-29)
000739:
000740: 26,2575           54717                                    PREVGAM                               #  VGAMCALC WITH NEW RTERM
000741:
000742:                                                                                                  #  VBAR = (V(FPS) - 36KF/S) / 20KF/S
000743:                                                                                                  #  GMAX = (4/(1 + 4.8 VBARSQ))(GAM -6.05 -2.4 VBARSQ) - 10(L/D - .3) + 10        ASSUME L/D = 0.3, BANK =0.
000744:
000745:                                                                                                  #  GMAXCALC
000746: 26,2576           45325                           PDDL     DSU                                   #  GAM TO PDL2
000747: 26,2577           00001                                    0                                     #  VGAM IS IN PDL0  (-7)
000748: 26,2600           14656                                    36KFT/S                               #  (-7)   M/CS
000749: 26,2601           63471                           DDV      DSQ
000750: 26,2602           14660                                    20KFT/S                               #  (-6)   M/CS
000751: 26,2603           00001                           STORE    0                                     #  VBARSQ  (-2)  TO PDL0
000752:
000753: 26,2604           43205                           DMP      DAD
000754: 26,2605           14662                                    KR1
000755:                                                                                                  #  GAM,    POS DOWN, FROM PDL2
000756: 26,2606           41215                           DAD      DMP
000757: 26,2607           14664                                    -6.05DEG
000758: 26,2610           14666                                    KR2
000759: 26,2611           77725                           PDDL                                           #  XCH PDL+0 FOR VBARSQ  (-2)
000760: 26,2612           43271                           DDV      DAD
000761: 26,2613           14676                                    KR4
000762: 26,2614           17464                                    DP2(-4)
000763: 26,2615           77665                           BDDV
000764:                                                                                                  #  NUM FROM PDL+0
000765: 26,2616           51015                           DAD      BPL
000766: 26,2617           14670                                    KR3
000767: 26,2620           54623                                    +3
000768: 26,2621           77745                           DLOAD
000769: 26,2622           15204                                    HI6ZEROS
000770: 26,2623           17722                           STODL    GMAX                                  #  100 GMAX  (-14)
000771:
000772:                                                                                                  #  DISPLAY USES GMAX AS SP, SO LO WORD IS WRITTEN OVER BY VPRED.
000773:
000774: 26,2624           02142                                    ERADM                                 #  = FISCHER RADIUS  (-29) M
000775: 26,2625           45015                           DAD      CALL                                  #  2 ND ITERATION FOR FISCHER RADIUS
000776: 26,2626           14674                                    400KFT
000777: 26,2627           57165                                    CALCTFF                               #  ESTABLISH TRANSFER ANGLE DATA.
000778: 26,2630           77624                           CALL
000779: 26,2631           56766                                    TFF/TRIG                              #  GET SIN, COS DELF
000780: 26,2632           77624                           CALL
000781: 26,2633           54701                                    FISHCALC                              #  GET CORRESPONDING FISCHER RADIUS.
000782:
000783: 26,2634           73015                           DAD      LXA,2                                 #  SAVE HI-WORD FOR DOWNLIST.
000784: 26,2635           14674                                    400KFT                                #  M  (-29)
000785: 26,2636           03713                                    RTGO                                  #  (RANGE ANGLE FROM EMSALT)/360
000786: 26,2637           34023                           STCALL   RTERM
000787: 26,2640           54717                                    PREVGAM                               #  VGAMCALC WITH NEW RTERM
000788:
000789: 26,2641           67076                           DCOMP    SXA,2                                 #  HI-WORD OF EACH ON DOWNLIST.
000790: 26,2642           00155                                    MPAC       +1
000791: 26,2643           17741                           STODL    GAMMAEI                               #  CONIC GAMMA/360 AT 400K FT.   ( HI-WORD)
000792:                                                                                                  #  CONIC RTGO/360 FROM EMSALT    (LOW-WORD)
000793:                                                                                                  #  FOR TM, DP(GAMMAEI) = (GAMMA, RTGO)/360
000794:
000795:                                                                                                  #  VGAM FROM PDL+0   (-7)
000796: 26,2644           77626                           STADR
000797: 26,2645           74040                           STORE    VPRED                                 #  CONIC VELOCITY AT 400K FT
000798:
000799: 26,2646           77634                           RTB
000800: 26,2647           54153                                    P61.1
000801:                                                                                                  #  PDL BACK TO ZERO.
000802:
000803: 26,2650           52145        LUNENT             DLOAD    GOTO
000804: 26,2651           06547                                    1/RTMUE                               #  ESTABLISH MU FOR LUNAR TYPE ENTRIES
000805: 26,2652           54526                                    CALLCON
000806: 26,2653           00002 26244  290KFT             2DEC     88392.0    B-29
000807: 26,2655           33335 05707  36KFT/S            2DEC     109.728    B-7                        #  (-7) M/CS = 36 KFT/S (-7)
000808: 26,2657           36365 30244  20KFT/S            2DEC     121.92     B-7                        #  (-6) M/CS = 2 20KFT/S  (-7)
000809: 26,2661           77113 42770  KR1                2DEC     -.026666667                            #  = -2.4 4 / 360
000810: 26,2663           77354 65030  -6.05DEG           2DEC     -.016805556                            #  = -6.05 / 360
000811: 26,2665           21450 00001  KR2                2DEC     .54931641                             #  = (360/4) 100 (-14) = 9000 B-14
000812: 26,2667           01750 00000  KR3                2DEC     1000       B-14                       #  = 100 (10.0) (-14) G,S
000813:                                                                                                  #  ASSUMES L/D = 0.3, BANK =0.
000814: 26,2671           00305 04541  RTRIAL             2DEC     6460097.18 B-29                       #  RPAD +284643 FT =21 194 545 FT
000815:                                                                                                  #  RPAD DEFINED AS 20 909 901.57 FT =6 373 338 M
000816: 26,2673           00003 27040  400KFT             2DEC     121920     B-29                       #  METERS
000817:
000818:                                                                                                  #  300KFT        2DEC    91440 B-29      (-29)  M
000819:
000820:                                                                                                  #  EMSALT        2DEC    86759.2 B-29    284643 FT (-29) M       (ORBITAL REENTRY)
000821:
000822:                                                                                                  #  EMSALT        2DEC    90657 B-29      297431 FT (-29) M       (LUNAR REENTRY)
000823:
000824: 26,2675           32525 12525  KR4                2DEC     .833333333
000825: 26,2677  23,2550               300KFT             EQUALS   MINPERE
000826: 26,2677           77777 76601  VEMSCON            2DEC     -.0389676  B-14                       #  = -HS D / 2 PI (-14)  M SQ / CS SQ
000827:                                                                                                  #  =- 16369      .05G    32.2    .3048   .3048/2 PI      (-14)
000828:
000829:                                                                                                  #  SUBROUTINE NAME:  FISHCALC            (USED BY S61.2)                 DATE:           01.21.67
000830:                                                                                                  #  MOD NO: 0                                                             LOG SECTION:    P61-P67
000831:                                                                                                  #  MOD BY: MORTH / BAIRNSFATHER
000832:                                                                                                  #  MOD NO: 1     MOD BY: RR BAIRNSFATHER         DATE:   11 MAY 67       INCLUDE GETERAD CALL
000833:                                                                                                  #  FUNCTIONAL DESCRIPTION:  GIVEN THE PRESENT POSITION, UNITR, CALCULATE A NEW UNITR THAT IS ROTATED THROUGH
000834:                                                                                                  #        TRANSFER ANGLE, THETA, ALONG TRAJECTORY. THEN CALCULATE  SIN(LAT)  AND USE TO OBTAIN FISCHER RADIUS.
000835:
000836:                                                                                                  #        SINCE FISHCALC USES UNI (LEFT BY ENTRY) EARTH SCALING IS ASSUMED. (WILL IMPROVE FOR SUITABLE TENNANT)
000837:
000838:                                                                                                  #  CALLING SEQUENCE:     CALL
000839:                                                                                                  #                                FISHCALC
000840:                                                                                                  #        ENTER WITH .5 SIN(THETA) IN MPAC.
000841:                                                                                                  #        PUSHLOC IS AT PDL+0, AN ARBITRARY BASE VALUE IF LEQ 8D
000842:
000843:                                                                                                  #  SUBROUTINES CALLED:   GET ERAD
000844:                                                                                                  #  NORMAL EXIT MODE:     RVQ
000845:                                                                                                  #  EXIT MODES:           NONE
000846:                                                                                                  #  OUTPUT:       ERADM  (-29) M   IN MPAC ON RETURNING
000847:                                                                                                  #                NEW UNIT VECTOR NOT SAVED.
000848:                                                                                                  #                SIN(LAT) NOT SAVED.
000849:                                                                                                  #                PUSHLOC AT PDL+0
000850:
000851:                                                                                                  #  ERASEABLE INITIALIZATION REQUIRED:
000852:                                                                                                  #                SDELF/2         =SIN(THETA) /2, IN MPAC                 LEFT BY TFF/TRIG
000853:                                                                                                  #                CDELF/2         =COS(THETA) /2, STORED IN PDL 14D       LEFT BY TFF/TRIG
000854:                                                                                                  #                RONE            (-29) M                                 LEFT BY USER
000855:                                                                                                  #                VONE            (-7)  M/CS                              LEFT BY USER
000856:                                                                                                  #                URONE           UR/2                                    LEFT BY USER
000857:                                                                                                  #                UNI             .5 UNIT(V*R)                            LEFT BY ENTRY / P61
000858:                                                                                                  #                UNITW           UNIT NORTH POLE                         LEFT BY PAD LOAD
000859:                                                                                                  #  DEBRIS:       QPRET, PDL+0 ... PDL+5
000860:
000861:                                                                                                  #  -      -          -
000862: 26,2701           47315        FISHCALC           PDVL     VXV                                   #  URPR = UR CDELF + UHOR SDELF
000863: 26,2702           02156                                    URONE
000864: 26,2703           03502                                    UNI
000865: 26,2704           76561                           VXSC     VSL1
000866:                                                                                                  #  SIN(THETA) / 2 FROM PDL+0
000867: 26,2705           74315                           PDVL     VXSC                                  #  TO PDL+0, +5
000868: 26,2706           02156                                    URONE
000869: 26,2707           00017                                    CDELF/2                               #  COS(THETA) /2
000870: 26,2710           45455                           VAD      STADR
000871: 26,2711           74235                           STORE    URH                                   #  FOR USE IN RTGO FROM EMS DISPLAY
000872: 26,2712           72441                           DOT      SL1
000873: 26,2713           02031                                    UNITW                                 #  FULL UNIT VECTOR      UNIT NORTH
000874: 26,2714           02060                           STORE    ALPHAV     +4                         #  = .5 SIN(LAT)
000875: 26,2715           77650        DUMPFISH           GOTO
000876: 26,2716           22561                                    GETERAD                               #  SAVES FISCHER RAD (-29) M IN ERADM AND
000877:                                                                                                  #  IN MPAC. RETURNS TO CALLER VIQ QPRET.
000878:
000879:                                                                                                  #  SUBROUTINE NAME:  VGAMCALC            (USED BY S61.2)                 DATE:           01.21.67
000880:                                                                                                  #  MOD NO: 0                                                             LOG SECTION:    P61-P67
000881:                                                                                                  #  MOD BY: MORTH / BAIRNSFATHER
000882:                                                                                                  #  MOD NO: 1     MOD BY: RR BAIRNSFATHER         DATE: 11 APR 67
000883:                                                                                                  #  MOD NO: 2     MOD BY: RR BAIRNSFATHER         DATE: 21 NOV 67         VARIABLE MU ADDED.
000884:                                                                                                  #  MOD NO: 3     MOD BY: RR BAIRNSFATHER         DATE: 21 MAR 68         ACCEPT DIFFERENT EARTH/MOON SCALE
000885:                                                                                                  #  FUNCTIONAL DESCRIPTION:       EARTH CENTERED VIS VIVA CALCULATION OF TERMINAL VELOCITY AND GAMMA (REL TO
000886:                                                                                                  #        HORIZONTAL)  GIVEN  THE SCALAR QUANTITIES:  PRESENT RADIUS AND VELOCITY AND THE TERMINAL RADIUS.
000887:                                                                                                  #        THE USER MUST APPEND PROPER SIGN TO GAMMA, SINCE IT IS CALCULATED AS A POSITIVE NUMBER.
000888:                                                                                                  #        THE EQUATIONS ARE
000889:
000890:                                                                                                  #                VGAM = SQRT(VN VN/MU + 2(RN-RTERM)/(RN RTERM) ) RTMU
000891:
000892:                                                                                                  #                COSGAM = H /RTERM VGAM = SQRT(LCP)/ (RTERM VGAM/RTMU)
000893:
000894:                                                                                                  #        VGAMCALC ASSUMES THAT THE TERMINAL RADIUS IS LESS THAN THE PRESENT RADIUS. BOTH CALCTFF AND CALCTPER
000895:                                                                                                  #        MAKE THIS ASSUMPTION.
000896:
000897:                                                                                                  #  CALLING SEQUENCE:     CALL                    STCALL  RTERM
000898:                                                                                                  #                                VGAMCALC                PREVGAM
000899:                                                                                                  #        PUSHLOC AT PDL+0, ARBITRARY  IF LEQ 12D
000900:                                                                                                  #        C(MPAC) UNSPECIFIED                     C(MPAC)=NEW RTERM
000901:
000902:                                                                                                  #  SUBROUTINES CALLED:   NONE
000903:                                                                                                  #  NORMAL EXIT MODE:     RVQ
000904:                                                                                                  #  ALARMS:       NONE
000905:                                                                                                  #  OUTPUT:       GAMMA / 360 IN MPAC, POSITIVE NUMBER
000906:                                                                                                  #                VGAM    E:(-7)    M:(-5)        M/CS  IN PDL+0
000907:                                                                                                  #                PUSHLOC AT PDL+2
000908:                                                                                                  #  ERASABLE INITIALIZATION REQD:
000909:                                                                                                  #        TFF/RTMU  E:(17)  M:(14)        1/SQRT(MU)                              LEFT BY TFFCONIC.
000910:                                                                                                  #        RMAG1     E:(-29) M:(-27)       M  PRESENT RADIUS LENGTH                LEFT BY TFFCONIC
000911:                                                                                                  #        NRMAG     E:(-29+NR)            M  NORM LENGTH OF PRESENT POSITION      LEFT BY TFFCONIC
000912:                                                                                                  #                  M:(-27+NR)
000913:                                                                                                  #        RTERM     E:(-29) M:(-27)       M  TERMINAL RADIUS LENGTH               LEFT BY CALCTFF
000914:                                                                                                  #        NRTERM    E:(-29+NR)            M  NORM LENGTH OF TERMINAL RADIUS       LEFT BY CALCTFF
000915:                                                                                                  #                  M:(-27+NR)
000916:                                                                                                  #        TFFVSQ    E:(20)  M:(18)        1/M  -(V SQ/MU): PRESENT VELOCITY, NORM LEFT BY TFFCONIC
000917:                                                                                                  #        TFFNP     E:(-38+2NR)           M  LCP, SEMI-LATUS RECTUM, WEIGHT NR    LEFT BY TFFCONIC
000918:                                                                                                  #                  M:(-36+2NR)
000919:                                                                                                  #  DEBRIS:       QPRET,   PDL+0 ... PDL+3
000920:                                                                                                  #                RTERM,  NRTERM  IF PREVGAM ENTERED.
000921:
000922: 26,2717           77657        PREVGAM            SL*                                            #  ENTER WITH NEW RTERM IN MPAC
000923:                                                                                                  #  E: (-29)  M: (-27)
000924: 26,2720           20201                                    0,1                                   #  X1 = -NR
000925: 26,2721           00021                           STORE    NRTERM                                #  RTERM  M              E: (-29+NR)     M: (-27+NR)
000926:
000927: 26,2722           41345        VGAMCALC           DLOAD    DMP
000928: 26,2723           00041                                    NRMAG                                 #  RMAG  M               E: (-29+NR)     M: (-27+NR)
000929: 26,2724           00021                                    NRTERM                                #  RTERM  M              E: (-29+NR)     M: (-27+NR)
000930: 26,2725           45325                           PDDL     DSU                                   #  RMAG RTERM M          E: (-58+2NR)    M: (-54+2NR)
000931: 26,2726           00041                                    NRMAG                                 #  RMAG  M               E: (-29+NR)     M: (-27+NR)
000932: 26,2727           00021                                    NRTERM                                #  RTERM  M              E: (-29+NR)     M: (-27+NR)
000933: 26,2730           56257                           SL*      DDV                                   #  2(RN-RTERM)           E: (-30+NR)     M: (-28+NR)
000934: 26,2731           20171                                    0          -8D,1                      #  (-8+NR)
000935:                                                                                                  #  PUSH UP PRODUCT.
000936: 26,2732           77625                           DSU
000937: 26,2733           00025                                    TFFVSQ                                #  -(V SQ/MU)            E: (20)         M: (18)
000938: 26,2734           41566                           SQRT     PUSH                                  #  SAVE VGAM/RT(MU) FOR NOW. E: (10)     M: (9)
000939: 26,2735           65271                           DDV      PDDL                                  #  XCH PDL+0, LEAVING VGAM FOR OUTPUT.
000940:                                                                                                  #  VGAM TO PDL M/CS      E: (-7)         M: (-2)
000941: 26,2736           00037                                    TFF/RTMU                              #                        E: (17)         M: (14)
000942: 26,2737           65205                           DMP      PDDL                                  #  RTERM VGAM/RTMU       E: (-19+NR)     M: (-18+NR)
000943: 26,2740           00021                                    NRTERM                                #  RTERM  M              E: (-29+NR)     M: (-27+NR)
000944: 26,2741           00035                                    TFFNP                                 #  LC P =H.H/MU  M       E: (-38+2NR)    M: (-36+2NR)
000945: 26,2742           56366                           SQRT     DDV                                   #                        E: (-19+NR)     M: (-18+NR)
000946:                                                                                                  #  PUSH UP DEN           E: (-19+NR)     M: (-18+NR)
000947:                                                                                                  #  USE DDV OVFL AS LIMITER (|COS| <1.0)
000948: 26,2743           65542                           SR1      ACOS
000949: 26,2744           77616        DUMPVGAM           RVQ
000950:                                                                                                  #  CALLER MUST SUPPLY OWN SIGN ...
000951:                                                                                                  #                        22W     27MS
000952:
000953:                                                                                                  #  SUBROUTINE NAME:      TFF/TRIG        (USED BY S61.2)         DATE            01.17.67
000954:                                                                                                  #  MOD NO: 0                                                     LOG SECTION:    P61-P67
000955:                                                                                                  #  MOD BY: RR BAIRNSFATHER
000956:                                                                                                  #  MOD NO: 1     MOD BY: RR BAIRNSFATHER         DATE: 14 APR 67
000957:                                                                                                  #  MOD NO: 2     MOD BY: RR BAIRNSFATHER         DATE: 21 MAR 68         ACCEPT DIFFERENT EARTH/MOON SCALE
000958:                                                                                                  #  FUNCTIONAL DESCRIPTION:       USED BY ENTRY DISPLAY TO CALCULATE SIN(THETA), COS(THETA) FROM DATA LEFT IN
000959:                                                                                                  #        PDL BY TFF SUBROUTINES.  THE EQNS ARE
000960:
000961:                                                                                                  #                COS(THETA) = 1-2 ABS(ARG) / (RN RTERM (1+X) )
000962:                                                                                                  #                                                2
000963:                                                                                                  #                SIN(THETA) = SGN(ARG) SQRT(1-COS (THETA) )
000964:
000965:                                                                                                  #        WHERE   THETA = TRANSFER ANGLE
000966:                                                                                                  #        AND     ARG = P Z ABS(Z)                        IF ALFA ZZ   LEQ 1
000967:                                                                                                  #                ARG = (P / ALFA) SGN(Q1 + R 1/Z)        IF ALFA Z Z   G  1
000968:                                                                                                  #        AND  ARG  HAS BEEN AFFIXED WITH THE SIGN OF SIN(THETA).
000969:                                                                                                  #  CALLING SEQUENCE:     CALL
000970:                                                                                                  #                                TFF/TRIG
000971:                                                                                                  #                PUSHLOC AT PDL+0, ARBITRARY IF NOT EQ 14D
000972:                                                                                                  #                C(MPAC) UNSPECIFIED
000973:
000974:                                                                                                  #  SUBROUTINES CALLED:   NONE
000975:                                                                                                  #  NORMAL EXIT MODES:    RVQ
000976:                                                                                                  #  ALARMS:       NONE
000977:                                                                                                  #  OUTPUT:       C(MPAC) = .5 SIN(THETA)
000978:                                                                                                  #                CDELF/2 = .5 COS(THETA)         (IN PDL 14D)
000979:                                                                                                  #                PUSHLOC AT PDL+0
000980:                                                                                                  #  ERASABLE INITIALIZATION REQUIRED:
000981:                                                                                                  #                TFFX                    X                                       LEFT BY CALCTFF OR CALCTPER
000982:                                                                                                  #                TFFTEM  E: (-59+2NR)    ARG                                     LEFT BY CALCTFF OR CALCTPER
000983:                                                                                                  #                        M: (-55+2NR)    WHERE ARG = LCP ZZ SGN(DELF) OR ARG = LCP/ALFA SGN(DELF)
000984:                                                                                                  #                NRTERM  E: (-29+NR)     M  NORM LENGTH OF TERMINAL RADIUS       LEFT BY CALCTFF OR CALCTPER
000985:                                                                                                  #                        M: (-27+NR)
000986:                                                                                                  #                NRMAG   E: (-29+NR)     M  NORM LENGTH OF PRESENT POSITION      LEFT BY TFFCONIC
000987:                                                                                                  #                        M: (-27+NR)
000988:                                                                                                  #  DEBRIS:       QPRET, CDELF/2
000989:
000990: 27,2000                                           SETLOC   P60S5
000991: 27,2000                                           BANK
000992: 27,2766                                           COUNT*   $$/S61.2
000993: 27,2766           70545        TFF/TRIG           DLOAD    SR1
000994: 27,2767           00043                                    TFFX
000995: 27,2770           41215                           DAD      DMP
000996: 27,2771           15202                                    HIDPHALF
000997: 27,2772           00041                                    NRMAG                                 #  RMAG  M               E: (-29+NR)     M: (-27+NR)
000998: 27,2773           55205                           DMP      BDDV
000999: 27,2774           00021                                    NRTERM                                #  RTERM  M              E: (-29+NR)     M: (-27+NR)
001000: 27,2775           00045                                    TFFTEM                                #  P ZSQ OR P/ALFA       E: (-59+2NR)    M: (-55+2NR)
001001: 27,2776           44246                           ABS      BDSU                                  #  THE SIGN IS FOR SDELF.
001002: 27,2777           15202                                    HIDPHALF
001003: 27,3000           00017                           STORE    CDELF/2                               #  .5 COS(THETA)
001004: 27,3001           57516                           DSQ      DCOMP                                 #  KEEP HONEST FOR SQRT.
001005: 27,3002           75415                           DAD      SQRT
001006: 27,3003           15174                                    HIDP1/4
001007: 27,3004           43565        DUMPTRIG           SIGN     RVQ
001008: 27,3005           00045                                    TFFTEM                                #  AFFIX SIGN(DELE/2)
001009:                                                                                                  #  RETURN WITH .5 SIN(THETA) IN MPAC
001010:
001011: 04,2000                                           SETLOC   P60S6
001012: 04,2000                                           BANK
001013:
001014: 04,3206                                           COUNT*   $$/S61.1
001015:                                                                                                  #                        16W     15MS
001016:
001017: 04,3206           77620        DISPTARG           STQ                                            #  C(MPAC) = TRGO ESTIMATE
001018: 04,3207           03375                                    60GENRET
001019: 04,3210           43205                           DMP      DAD                                   #  (TTE1 IS POSITIVE)
001020: 04,3211           11227                                    KTETA1
001021: 04,3212           03733                                    TTE1
001022: 04,3213           37606                           STCALL   DTEAROT
001023: 04,3214           46223                                    EARROT2
001024: 04,3215           77624                           CALL
001025: 04,3216           11221                                    VRCALC
001026: 04,3217           77650                           GOTO
001027: 04,3220           03375                                    60GENRET
001028: 04,3221           50375        VRCALC             VLOAD    DOT
001029: 04,3222           03542                                    URH
001030: 04,3223           03474                                    RT
001031: 04,3224           65512                           SL2      ACOS
001032: 04,3225           77616                           RVQ
001033: 04,3226           00052 05716  KTETA1             2DEC*    .421844723 E2         B-14*           #  1100 2PI/16384(163.84)
001034:                                                                                                  #  END OF PROGRAM S61.2
001035:
001036:                                                                                                  #  PROGRAM DESCRIPTION S62.3     DATE 10JAN67
001037:                                                                                                  #  MOD NO 1                      LOG SECTION P60-P67
001038:                                                                                                  #  MOD BY ZELDIN
001039:                                                                                                  #  MOD NO: 2     MOD BY: RR BAIRNSFATHER         DATE: 15 MAY 67         CHANGED TO REF COORDS.
001040:                                                                                                  #  MOD NO: 3     MOD BY: RR BAIRNSFATHER         DATE: 17 JAN 68         ALFAPAD CHANGES MADE.
001041:                                                                                                  #  FUNCTIONAL DESCRIPTION
001042:                                                                                                  #        COMPUTE DESIRED GIMBOL ANGLES FOR ENTRY ATTITUDE
001043:                                                                                                  #        THE FOLLOWING TRAJECTORY TRIAD IS AVAILABLE IN MEMORY AND IS COMPUTED EACH 2 SECONDS BY  CM/POSE  IN
001044:                                                                                                  #        REFERENCE COORDINATES (V = VELOCITY RELATIVE TO EARTH) :
001045:
001046:                                                                                                  #                UXA = -UNIT(V)
001047:                                                                                                  #                UYA =  UNIT(V*R)
001048:                                                                                                  #                UZA =  UXA*UYA
001049:
001050:                                                                                                  #        GENERATE A DESIRED BODY TRIAD FOR TRIMMED FLIGHT WITH RESPECT TO THE RELATIVE VELOCITY VECTOR, USING
001051:                                                                                                  #        ROLL COMMAND AND TRIM ANGLE OF ATTACK:
001052:
001053:                                                                                                  #                UXD = UNIT(UYD*UXA) SIN(ALFATRIM) + UXA COS(ALFATRIM)
001054:                                                                                                  #                UYD = UYA COS(ROLLC) + UZA SIN(ROLLC)
001055:                                                                                                  #                UZD = UXD * UYD
001056:
001057:                                                                                                  #        USE THE DESIRED SET (IN REFERENCE COORDS) AND  REFSMMAT  TO CALL  CALCGA  AND OBTAIN GIMBAL ANGLES
001058:                                                                                                  #        IN 2S,C IN MPAC, +2 AND THETAD, +2.
001059:
001060:                                                                                                  #  CALLING SEQUENCE
001061:                                                                                                  #        L       CALL
001062:                                                                                                  #        L+1             S62.3
001063:                                                                                                  #  NORMAL EXIT MODE
001064:                                                                                                  #        RETURN VIA QPRET DIRECTLY FROM CALCGA.
001065:                                                                                                  #  SUBROUTINES CALLED
001066:                                                                                                  #        CALCGA
001067:                                                                                                  #  ALARM OR ABORT MODES
001068:                                                                                                  #        NONE
001069:                                                                                                  #  ERASABLE INITIALIZATION REQUIRED
001070:                                                                                                  #        ROLLC   ROLL COMMAND            DP 1:S COMP AT 1REV
001071:                                                                                                  #        ALFAPAD SP 1S,C /180            LEFT BY PAD LOAD        ALFATRIM IS NEGATIVE.
001072:                                                                                                  #        UXA/2   REF COORDS              LEFT BY CM/POSE
001073:                                                                                                  #        UYA/2   REF COORDS              LEFT BY CM/POSE
001074:                                                                                                  #        UZA/2   REF COORDS              LEFT BY CM/POSE
001075:                                                                                                  #  OUTPUT
001076:                                                                                                  #        CPHI    GIMBAL ANGLES (O,I,M) 2:S COMP TP (O,I,M)/180
001077:                                                                                                  #  DEBRIS
001078:                                                                                                  #        QTEMP, QPRET, PUSHLIST
001079:
001080: 10,2000                                           SETLOC   P60S4
001081: 10,2000                                           BANK
001082:
001083: 10,2272                                           COUNT*   $$/S62.3
001084:
001085: 10,2272           67201        S62.3              SETPD    SLOAD
001086: 10,2273           00001                                    0
001087: 10,2274           03400                                    ALFAPAD                               #  ALFATRIM /180, ALFA IS NEG.
001088: 10,2275           41542                           SR1      PUSH
001089: 10,2276           65346                           COS      PDDL                                  #  XCH PDL, COS TO PDL0
001090: 10,2277           65356                           SIN      PDDL                                  #  SIN TO PDL2
001091: 10,2300           03347                                    ROLLC
001092: 10,2301           74346                           COS      VXSC
001093: 10,2302           03550                                    UYA/2                                 #                                REF COORDS
001094: 10,2303           73525                           PDDL     SIN                                   #  PUSH VECTOR INTO PDL4,.9
001095: 10,2304           03347                                    ROLLC
001096: 10,2305           53361                           VXSC     VAD
001097: 10,2306           03556                                    UZA/2                                 #                                REF COORDS
001098:                                                                                                  #  VECTOR FROM PDL4, 9
001099: 10,2307           77772                           VSL1
001100: 10,2310           02711                           STORE    YNB                                   #  = UYD                         REF COORDS
001101:
001102: 10,2311           76435                           VXV      VSL1
001103: 10,2312           03542                                    UXA/2                                 #                                REF COORDS
001104: 10,2313           65361                           VXSC     PDDL
001105:                                                                                                  #  SIN TRIM FROM PDL2
001106:                                                                                                  #  XCH PDL0 FOR COS TRIM
001107: 10,2314           53361                           VXSC     VAD
001108: 10,2315           03542                                    UXA/2                                 #                                REF COORDS
001109:                                                                                                  #  FROM PDL0
001110: 10,2316           77772                           VSL1
001111: 10,2317           02703                           STORE    XNB                                   #  X SC AXIS (.5 UNIT)           REF COORDS
001112:
001113: 10,2320           76435                           VXV      VSL1
001114: 10,2321           02711                                    YNB
001115: 10,2322           26717                           STOVL    ZNB                                   #  Z SC IN REF COOR. SCALED AT 2
001116: 10,2323           01720                                    REFSMMAT
001117: 10,2324           26661                           STOVL    XSM
001118: 10,2325           01726                                    REFSMMAT   +6
001119: 10,2326           26667                           STOVL    YSM
001120: 10,2327           01734                                    REFSMMAT   +12D
001121: 10,2330           02675                           STORE    ZSM
001122:
001123: 10,2331           77650                           GOTO
001124: 10,2332           47303                                    CALCGA
001125:                                                                                                  #  CALCGA WILL RETURN TO ORIGINAL CALLER
001126:                                                                                                  #  VIA QPRET WITH 2,S COMP. ANGLES IN CPHI

End of include-file P61-P67.agc.  Parent file is MAIN.agc


