
Source Code


000002:                                                                                                  ## Copyright:   Public domain.
000003:                                                                                                  ## Filename:    P76.agc
000004:                                                                                                  ## Purpose:     A section of Skylark revision 048.
000005:                                                                                                  ##              It is part of the source code for the Apollo Guidance Computer (AGC)
000006:                                                                                                  ##              for Skylab-2, Skylab-3, Skylab-4, and ASTP. No original listings of
000007:                                                                                                  ##              this software are available; instead, this file was created via
000008:                                                                                                  ##              disassembly of dumps of the core rope modules actually flown on
000009:                                                                                                  ##              Skylab-2. Access to these modules was provided by the New Mexico
000010:                                                                                                  ##              Museum of Space History.
000011:                                                                                                  ## Assembler:   yaYUL
000012:                                                                                                  ## Contact:     Ron Burkey <info@sandroid.org>.
000013:                                                                                                  ## Website:     www.ibiblio.org/apollo/index.html
000014:                                                                                                  ## Mod history: 2024-02-20 MAS  Created from Artemis 072.
000015:                                                                                                  ##              2024-03-05 MAS  Updated for Skylark 48.
000016:
000017:                                                                                                  #  1) PROGRAM NAME - TARGET DELTA V PROGRAM (P76).
000018:                                                                                                  #  2) FUNCTIONAL DESCRIPTION - UPON ENTRY BY ASTRONAUT ACTION, P76 FLASHES DSKY REQUESTS TO THE ASTRONAUT
000019:                                                                                                  #        TO PROVIDE VIA DSKY (1) THE DELTA V TO BE APPLIED TO THE OTHER VEHICLE STATE VECTOR AND (2) THE
000020:                                                                                                  #        TIME (TIG) AT WHICH THE OTHER VEHICLE VELOCITY WAS CHANGED BY  EXECUTION OF A THRUSTING MANEUVER. THE
000021:                                                                                                  #        OTHER VEHICLE STATE VECTOR IS INTEGRATED TO TIG AND UPDATED BY THE ADDITION OF DELTA V (DELTA V HAVING
000022:                                                                                                  #        BEEN TRANSFORMED FROM LV TO REF COSYS). USING INTEGRVS, THE PROGRAM THEN INTEGRATES THE OTHER
000023:                                                                                                  #        VEHICLE STATE VECTOR TO THE STATE VECTOR OF THIS VEHICLE, THUS INSURING THAT THE W-MATRIX AND BOTH VEHICLE
000024:                                                                                                  #        STATES CORRESPOND TO THE SAME TIME.
000025:                                                                                                  #  3) ERASABLE INITIALIZATION REQUIRED - NONE.
000026:                                                                                                  #  4) CALLING SEQUENCES AND EXIT MODES - CALLED BY ASTRONAUT REQUEST THRU DSKY V 37 E 76 E.
000027:                                                                                                  #        EXITS BY TCF ENDOFJOB.
000028:                                                                                                  #  5) OUTPUT - OTHER VEHICLE STATE VECTOR INTEGRATED TO TIG AND INCREMENTED BY DELTA V IN REF COSYS.
000029:                                                                                                  #        THE PUSHLIST CONTAINS THE MATRIX BY WHICH THE INPUT DELTA V MUST BE POST-MULTIPLIED TO CONVERT FROM LV
000030:                                                                                                  #        TO REF COSYS.
000031:                                                                                                  #  6) DEBRIS - OTHER VEHICLE STATE VECTOR.
000032:                                                                                                  #  7) SUBROUTINES CALLED - BANKCALL,GOXDSPF,CSMPREC (OR LEMPREC),ATOPCSM (OR ATOPLEM),INTSTALL,INTWAKE, PHASCHNG
000033:                                                                                                  #        INTPRET, INTEGRVS, AND MINIRECT.
000034:                                                                                                  #  8) FLAG USE - MOONFLAG,CMOONFLAG,INTYPFLG,RASFLAG, AND MARKCTR.
000035:
000036: 05,2000                                           SETLOC   P76LOC
000037: 05,2000                                           BANK
000038:
000039: 05,3172                                           COUNT*   $$/P7677
000040: 05,3172  E7,1412                                  EBANK=   TIG
000041:
000042: 05,3172           00006        P77                EXTEND
000043: 05,3173           31450                           DCA      NOMTIG
000044: 05,3174           53413                           DXCH     TIG
000045:
000046: 05,3175           35041                           CAF      V06N33
000047: 05,3176           04647                           TC       BANKCALL                              #  AND WAIT FOR KEYBOARD ACTION
000048: 05,3177           20623                           CADR     GOFLASH
000049: 05,3200           13306                           TCF      ENDP76
000050: 05,3201           03203                           TC       +2                                    #  PROCEED
000051: 05,3202           03175                           TC       -5                                    #  STORE DATA AND REPEAT FLASHING
000052: 05,3203           34603                           CAF      V06N81                                #  FLASH V06 N81
000053: 05,3204           04647                           TC       BANKCALL                              #  AND WAIT FOR KEYBOARD ACTION.
000054: 05,3205           20623                           CADR     GOFLASH
000055: 05,3206           13306                           TCF      ENDP76
000056: 05,3207           03211                           TC       +2
000057: 05,3210           03203                           TC       -5                                    #  STORE DATA AND REPEAT FLASHING
000058: 05,3211           06006                           TC       INTPRET                               #  RETURN TO INTERPRETIVE CODE
000059: 05,3212           43145                           DLOAD    SET                                   #  SET D(MPAC)=TIG IN CSEC B28
000060: 05,3213           03413                                    TIG
000061: 05,3214           01076                                    NODOFLAG                              #  DISALLOW V37
000062: 05,3215           34041                           STCALL   TDEC1
000063: 05,3216           11400                                    CSMPREC
000064: 05,3217           53575        COMPMAT            VLOAD    UNIT
000065: 05,3220           00001                                    RATT
000066: 05,3221           77676                           VCOMP                                          #  U(-R)
000067: 05,3222           00031                           STORE    24D                                   #  U(-R) TO 24D
000068: 05,3223           53435                           VXV      UNIT                                  #  U(-R)XV = U(VXR)
000069: 05,3224           00007                                    VATT
000070: 05,3225           00023                           STORE    18D
000071: 05,3226           53435                           VXV      UNIT                                  #  U(VXR)XU(-R) = U((RXV)XR)
000072: 05,3227           00031                                    24D
000073: 05,3230           24015                           STOVL    12D
000074: 05,3231           03405                                    DELVLVC                               #  FROM CSM
000075: 05,3232           76505        DVTRANS            VXM      VSL1                                  #  V(MPAC)=DELTA-V IN REFCOSYS
000076: 05,3233           00015                                    12D
000077: 05,3234           77655                           VAD
000078: 05,3235           00007                                    VATT
000079: 05,3236           00007                           STORE    6                                     #  V(PD6)=VATT + DELTA V
000080: 05,3237           77624                           CALL                                           #  PREVENT WOULD-BE USER OF ORBITAL
000081: 05,3240           11720                                    INTSTALL                              #  INTEG FROM INTERFERING WITH UPDATING
000082: 05,3241           77775                           VLOAD
000083: 05,3242           00007                                    6
000084: 05,3243           25543                           STOVL    VCV
000085: 05,3244           00001                                    RATT
000086: 05,3245           15535                           STODL    RCV
000087: 05,3246           03413                                    TIG
000088: 05,3247           01517                           STORE    TET
000089: 05,3250           71214                           CLEAR    DLOAD
000090: 05,3251           01673                                    INTYPFLG
000091: 05,3252           01571                                    TETTHIS
000092: 05,3253           34041        INTOTHIS           STCALL   TDEC1
000093: 05,3254           11444                                    INTEGRVS
000094: 05,3255           77624                           CALL
000095: 05,3256           11720                                    INTSTALL
000096: 05,3257           77775                           VLOAD
000097: 05,3260           00017                                    RATT1
000098: 05,3261           01503                           STORE    RRECT
000099: 05,3262           15535                           STODL    RCV
000100: 05,3263           00015                                    TAT
000101: 05,3264           25517                           STOVL    TET
000102: 05,3265           00025                                    VATT1
000103: 05,3266           77624                           CALL
000104: 05,3267           23452                                    MINIRECT
000105: 05,3270           77776                           EXIT
000106: 05,3271           05415                           TC       PHASCHNG
000107: 05,3272           04024                           OCT      04024
000108:
000109: 05,3273           06006                           TC       INTPRET
000110: 05,3274           45014                           SET      CALL
000111: 05,3275           05062                                    REINTFLG
000112: 05,3276           11305                                    ATOPCSM
000113: 05,3277           77624                           CALL
000114: 05,3300           11727                                    INTWAKE0                              #  PERMIT USE OF ORBITAL INTEGRATION
000115: 05,3301           77414        OUT                CLEAR    EXIT                                  #  ALLOW V37, NO NEED TO CLEAR NODOFLAG AT
000116: 05,3302           01276                                    NODOFLAG                              #   ENDP76 SINCE FLAG NOT SET WHEN DISPLAY
000117:                                                                                                  #   RESPONSES TRANSFER THERE FROM P76+.
000118: 05,3303           37702                           CAF      NEGONE
000119: 05,3304           55702                           TS       MRKBUF1
000120: 05,3305           14105                           TCF      MNKGOPOO
000121:
000122: 05,3306           37702        ENDP76             CAF      NEGONE
000123: 05,3307           55702                           TS       MRKBUF1                               #  INVALIDATE MARK BUFFER
000124:
000125: 05,3310           14103                           TCF      GOTOPOOH

End of include-file P76.agc.  Parent file is MAIN.agc


