
Source Code


000002:                                                                                                  ## Copyright:   Public domain.
000003:                                                                                                  ## Filename:    PINBALL_NOUN_TABLES.agc
000004:                                                                                                  ## Purpose:     A section of Skylark revision 048.
000005:                                                                                                  ##              It is part of the source code for the Apollo Guidance Computer (AGC)
000006:                                                                                                  ##              for Skylab-2, Skylab-3, Skylab-4, and ASTP. No original listings of
000007:                                                                                                  ##              this software are available; instead, this file was created via
000008:                                                                                                  ##              disassembly of dumps of the core rope modules actually flown on
000009:                                                                                                  ##              Skylab-2. Access to these modules was provided by the New Mexico
000010:                                                                                                  ##              Museum of Space History.
000011:                                                                                                  ## Assembler:   yaYUL
000012:                                                                                                  ## Contact:     Ron Burkey <info@sandroid.org>.
000013:                                                                                                  ## Website:     www.ibiblio.org/apollo/index.html
000014:                                                                                                  ## Mod history: 2023-09-04 MAS  Created from Artemis 072.
000015:                                                                                                  ##              2024-03-05 MAS  Updated for Skylark 48.
000016:
000017:
000018:                                                                                                  #  THE FOLLOWING REFERS TO THE NOUN TABLES
000019:
000020:                                                                                                  #        COMPONENT CODE NUMBER   INTERPRETATION
000021:
000022:                                                                                                  #        00000                   1 COMPONENT
000023:                                                                                                  #        00001                   2 COMPONENT
000024:                                                                                                  #        00010                   3 COMPONENT
000025:                                                                                                  #        X1XXX                   BIT 4 = 1. DECIMAL ONLY
000026:                                                                                                  #        1XXXX                   BIT 5 = 1. NO LOAD
000027:
000028:                                                                                                  #        END OF COMPONENT CODE NUMBERS
000029:
000030:                                                                                                  #        SF ROUTINE CODE NUMBER  INTERPRETATION
000031:
000032:                                                                                                  #        00000                   OCTAL ONLY
000033:                                                                                                  #        00001                   STRAIGHT FRACTIONAL
000034:                                                                                                  #        00010                   CDU DEGREES (XXX.XX)
000035:                                                                                                  #        00011                   ARITHMETIC SF
000036:                                                                                                  #        00100                   ARITH DP1       OUT (MULT BY 2EXP14 AT END)     IN (STRAIGHT)
000037:                                                                                                  #        00101                   ARITH DP2       OUT (STRAIGHT)                  IN (SL 7 AT END)
000038:                                                                                                  #        00110                   Y OPTICS DEGREES (XX.XXX MAX 89.999)
000039:                                                                                                  #        00111                   ARITH DP3       OUT (SL 7 AT END)               IN ( STRAIGHT)
000040:                                                                                                  #        01000                   WHOLE HOURS IN R1, WHOLE MINUTES (MOD 60) IN R2,
000041:                                                                                                  #                                        SECONDS (MOD 60) 0XX.XX IN R3.  *** ALARMS IF USED WITH OCTAL
000042:                                                                                                  #        01001                   MINUTES (MOD 60) IN D1D2, D3 BLANK, SECONDS (MOD 60) IN D4D5
000043:                                                                                                  #                                        LIMITS TO 59B59 IF MAG EXCEEDS THIS VALUE.
000044:                                                                                                  #                                        ALARMS IF USED WITH OCTAL  ********  IN (ALARM)
000045:                                                                                                  #        01010                   ARITH DP4       OUT (STRAIGHT)                  IN (SL 3 AT END)
000046:                                                                                                  #        01011                   ARITH1 SF       OUT (MULT BY 2EXP14 AT END)     IN (STRAIGHT)
000047:                                                                                                  #        01100                   2 INTEGERS IN D1D2, D4D5, D3 BLANK.
000048:                                                                                                  #                                        ALARMS IF USED WITH OCTAL  ********  IN (ALARM)
000049:                                                                                                  #        01101                   DP STRAIGHT FRACTIONAL
000050:                                                                                                  #        01110                   ATTITUDE ERROR
000051:
000052:                                                                                                  #        END OF SF ROUTINE CODE NUMBERS
000053:
000054:                                                                                                  #        SF CONSTANT CODE NUMBER INTERPRETATION
000055:
000056:                                                                                                  #        00000                   WHOLE                           USE ARITH
000057:                                                                                                  #        00000                   DP TIME SEC (XXX.XX SEC)        USE ARITHDP1
000058:                                                                                                  #        00001                   SPARE
000059:                                                                                                  #        00010                   CDU DEGREES                     USE CDU DEGREES
000060:                                                                                                  #        00010                   Y OPTICS DEGREES                USE Y OPTICS DEGREES
000061:                                                                                                  #        00011                   DP DEGREES (90) XX.XXX DEG      USE ARITHDP3
000062:                                                                                                  #        00100                   DP DEGREES (360) XXX.XX DEG     USE ARITHDP4
000063:                                                                                                  #        00101                   DEGREES (180) XXX.XX DEG        USE ARITH
000064:                                                                                                  #        00110                   WEIGHT2 (XXXXX. LBS)            USE ARITH1
000065:                                                                                                  #        00111                   POSITION5 (XXX.XX NAUTICAL MILES)
000066:                                                                                                  #                                                                USE ARITHDP1
000067:                                                                                                  #        01000                   POSITION4 (XXXX.X NAUTICAL MILES)
000068:                                                                                                  #                                                                USE ARITHDP3
000069:                                                                                                  #        01001                   VELOCITY2 (XXXXX. FT/SEC)       USE ARITHDP4
000070:                                                                                                  #        01010                   VELOCITY3 (XXXX.X FT/SEC)       USE ARITHDP3
000071:                                                                                                  #        01011                   ELEVATION DEGREES (89.999 MAX)  USE ARITH
000072:                                                                                                  #        01100                   TRIM DEGREES (XXX.XX DEG)       USE ARITH
000073:                                                                                                  #        01101                   INERTIA (XXXXXBB. SLUG FT FT)   USE ARITH
000074:                                                                                                  #        01101                   THRUST MOMENT (XXXXXBB. FT LBS) USE ARITH
000075:                                                                                                  #        01110                   VELOCITY/2VS (XXXXX. FT/SEC)    USE ARITHDP4
000076:                                                                                                  #        01111                   POSITION6 (XXXX.X NAUT MI)      USE ARITHDP3
000077:                                                                                                  #        10000                   DRAG ACCELERATION (XXX.XX G)    USE ARITHDP2
000078:                                                                                                  #        10001                   POSITION8 (XXXX.X NAUT MI)      USE ARITHDP3
000079:                                                                                                  #        10010                   POSITION9 (XXXXX. FT)           USE ARITHDP3
000080:                                                                                                  #        10011                   VELOCITY4 (XXXX.X FT/SEC)       USE ARITHDP2
000081:                                                                                                  #        10100                   RATE1 (X.XXXX DEG/SEC)          USE ARITH
000082:                                                                                                  #        10101                   ARC MINUTES (XXXXX. MIN)        USE ARITH
000083:                                                                                                  #        10110                   VELOCITY5 (XXXX.X FT/SEC)       USE ARITHDP3
000084:                                                                                                  #        10111                   POSITION10 (XXX.XX NAUT MI)     USE ARITHDP4
000085:                                                                                                  #        11000                   RATE2 (X.XXXX DEG/SEC)          USE ARITHDP3
000086:
000087:                                                                                                  #        END OF SF CONSTANT CODE NUMBERS
000088:
000089:                                                                                                  #  FOR GREATER THAN SINGLE PRECISION SCALES, PUT ADDRESS OF MAJOR PART INTO
000090:                                                                                                  #  NOUN TABLES.
000091:
000092:                                                                                                  #  OCTAL LOADS PLACE +0 INTO MAJOR PART, DATA INTO MINOR PART.
000093:                                                                                                  #  OCTAL DISPLAYS SHOW MINOR PART ONLY.
000094:                                                                                                  #  TO GET AT BOTH MAJOR AND MINOR PARTS (IN OCTAL), USE NOUN 01.
000095:
000096:                                                                                                  #  A NOUN MAY BE DECLARED :DECIMAL ONLY: BY MAKING BIT4=1 OF ITS COMPONENT
000097:                                                                                                  #  CODE NUMBER. IF THIS NOUN IS USED WITH ANY OCTAL DISPLAY VERB, OR IF
000098:                                                                                                  #  DATA IS LOADED IN OCTAL, IT ALARMS.
000099:
000100:                                                                                                  #  IN LOADING AN :HOURS, MINUTES, SECONDS: NOUN, ALL 3 WORDS MUST BE
000101:                                                                                                  #  LOADED, OR ALARM.
000102:
000103:                                                                                                  #  ALARM IF AN ATTEMPT IS MADE TO LOAD :SPLIT MINUTES/SECONDS: (MMBSS).
000104:                                                                                                  #  THIS IS USED FOR DISPLAY ONLY.
000105:
000106:                                                                                                  #  THE FOLLOWING ROUTINES ARE FOR READING THE NOUN TABLES AND THE SF TABLES
000107:                                                                                                  #  (WHICH ARE IN A SEPARATE BANK FROM THE REST OF PINBALL). THESE READING
000108:                                                                                                  #  ROUTINES ARE IN THE SAME BANK AS THE TABLES. THEY ARE CALLED BY DXCH Z.
000109:
000110:                                                                                                  #  LODNNTAB LOADS NNADTEM WITH THE NNADTAB ENTRY, NNTYPTEM WITH THE
000111:                                                                                                  #  NNTYPTAB ENTRY. IF THE NOUN IS MIXED, IDAD1TEM IS LOADED WITH THE FIRST
000112:                                                                                                  #  IDADDTAB ENTRY, IDAD2TEM THE SECOND IDADDTAB ENTRY, IDAD3TEM THE THIRD
000113:                                                                                                  #  IDADDTAB ENTRY, RUTMXTEM WITH THE RUTMXTAB ENTRY. MIXBR IS SET FOR
000114:                                                                                                  #  MIXED OR NORMAL NOUN.
000115:
000116: 42,2000                                           SETLOC   PINBALL3
000117: 42,2000                                           BANK
000118:
000119: 42,2062                                           COUNT*   $$/NOUNS
000120: 42,2062           52152        LODNNTAB           DXCH     IDAD2TEM                              #  SAVE RETURN INFO IN IDAD2TEM, IDAD3TEM.
000121: 42,2063           51175                           INDEX    NOUNREG
000122: 42,2064           32133                           CAF      NNADTAB
000123: 42,2065           54146                           TS       NNADTEM
000124: 42,2066           51175                           INDEX    NOUNREG
000125: 42,2067           32277                           CAF      NNTYPTAB
000126: 42,2070           54147                           TS       NNTYPTEM
000127: 42,2071           41175                           CS       NOUNREG
000128: 42,2072           65016                           AD       MIXCON
000129: 42,2073           00006                           EXTEND
000130: 42,2074           62100                           BZMF     LODMIXNN                              #  NOUN NUMBER G/E FIRST MIXED NOUN
000131: 42,2075           35001                           CAF      ONE                                   #  NOUN NUMBER L/ FIRST MIXED NOUN
000132: 42,2076           54140                           TS       MIXBR                                 #  NORMAL.  +1 INTO MIXBR.
000133: 42,2077           02116                           TC       LODNLV
000134: 42,2100           35000        LODMIXNN           CAF      TWO                                   #  MIXED.  +2 INTO MIXBR.
000135: 42,2101           54140                           TS       MIXBR
000136: 42,2102           51175                           INDEX    NOUNREG
000137: 42,2103           33023                           CAF      RUTMXTAB   -40D                       #  FIRST MIXED NOUN = 40.
000138: 42,2104           54153                           TS       RUTMXTEM
000139: 42,2105           35053                           CAF      LOW10
000140: 42,2106           70146                           MASK     NNADTEM
000141: 42,2107           54002                           TS       Q                                     #  TEMP
000142: 42,2110           50000                           INDEX    A
000143: 42,2111           32607                           CAF      IDADDTAB
000144: 42,2112           54150                           TS       IDAD1TEM                              #  LOAD IDAD1TEM WITH FIRST IDADDTAB ENTRY
000145: 42,2113           00006                           EXTEND
000146: 42,2114           50002                           INDEX    Q                                     #  LOAD IDAD2TEM WITH 2ND IDADDTAB ENTRY
000147: 42,2115           32611                           DCA      IDADDTAB   +1                         #  LOAD IDAD3TEM WITH 3RD IDADDTAB ENTRY.
000148: 42,2116           52152        LODNLV             DXCH     IDAD2TEM                              #  PUT RETURN INFO INTO A, L.
000149: 42,2117           52006                           DXCH     Z
000150:
000151: 42,2120     5016               MIXCON             =        OCT50                                 #  FIRST MIXED NOUN =40.  (DEC 40)
000152:
000153:                                                                                                  #  GTSFOUT LOADS SFTEMP1, SFTEMP2 WITH THE DP SFOUTAB ENTRIES.
000154: 42,2120           52124        GTSFOUT            DXCH     SFTEMP1                               #  2X(SFCONUM) ARRIVES IN SFTEMP1.
000155: 42,2121           00006                           EXTEND
000156: 42,2122           50000                           INDEX    A
000157: 42,2123           32526                           DCA      SFOUTAB
000158: 42,2124           52124        SFCOM              DXCH     SFTEMP1
000159: 42,2125           52006                           DXCH     Z
000160:
000161:                                                                                                  #  GTSFIN LOADS SFTEMP1, SFTEMP2 WITH THE DP SFINTAB ENTRIES.
000162:
000163: 42,2126           52124        GTSFIN             DXCH     SFTEMP1                               #  2X(SFCONUM) ARRIVES IN SFTEMP1.
000164: 42,2127           00006                           EXTEND
000165: 42,2130           50000                           INDEX    A
000166: 42,2131           32444                           DCA      SFINTAB
000167: 42,2132           12124                           TCF      SFCOM
000168:
000169:                                                                                                  #  NN    NORMAL NOUNS
000170:
000171: 42,2133           00000        NNADTAB            OCT      00000                                 #  00    NOT IN USE
000172: 42,2134           40000                           OCT      40000                                 #  01    SPECIFY MACHINE ADDRESS (FRACTIONAL)
000173: 42,2135           40000                           OCT      40000                                 #  02    SPECIFY MACHINE ADDRESS (WHOLE)
000174: 42,2136           40000                           OCT      40000                                 #  03    SPECIFY MACHINE ADDRESS (DEGREES)
000175: 42,2137           03125                           ECADR    AK                                    #  04    ATTITUDE ERRORS
000176: 42,2140           01240                           ECADR    DSPTEM1                               #  05    ANGULAR ERROR/DIFFERENCE
000177:                                                                                                  #        CELESTIAL ANGLE
000178: 42,2141           00770                           ECADR    OPTION1                               #  06    OPTION CODE
000179: 42,2142           01176                           ECADR    XREG                                  #  07    ECADR OF WORD TO BE MODIFIED
000180:                                                                                                  #        ONES FOR BITS TO BE MODIFIED
000181:                                                                                                  #        1 TO SET OR 0 TO RESET SELECTED BITS
000182: 42,2143           01363                           ECADR    ALMCADR                               #  08    ALARM DATA
000183: 42,2144           00374                           ECADR    FAILREG                               #  09    ALARM CODES
000184: 42,2145           77776                           OCT      77776                                 #  10    CHANNEL TO BE SPECIFIED
000185: 42,2146           02462                           ECADR    TCSI                                  #  11    TIG OF CSI (HRS,MIN,SEC)
000186: 42,2147           01245                           ECADR    OPTIONX                               #  12    OPTION CODE
000187:                                                                                                  #        (USED BY EXTENDED VERBS ONLY)
000188: 42,2150           02460                           ECADR    TCDH                                  #  13    TIG OF CDH (HRS,MIN,SEC)
000189: 42,2151           03515                           ECADR    TRKAZ                                 #  14    STAR TRACKER AZIMUTH
000190:                                                                                                  #                     ELEVATION
000191: 42,2152           77777                           OCT      77777                                 #  15    INCREMENT MACHINE ADDRESS
000192: 42,2153           01244                           ECADR    DSPTEMX                               #  16    TIME OF EVENT (HRS,MIN,SEC)
000193: 42,2154           01006                           ECADR    CPHIX                                 #  17    ASTRONAUT TOTAL ATTITUDE
000194: 42,2155           01277                           ECADR    THETAD                                #  18    AUTO MANEUVER BALL ANGLES
000195: 42,2156           03517                           ECADR    TRKAZOCT                              #  19    STAR TRACKER AZIMUTH IN 2-WORD OCTAL
000196:                                                                                                  #        FORMAT
000197: 42,2157           00032                           ECADR    CDUX                                  #  20    ICDU ANGLES
000198: 42,2160           00037                           ECADR    PIPAX                                 #  21    PIPAS
000199: 42,2161           01277                           ECADR    THETAD                                #  22    NEW ICDU ANGLES
000200: 42,2162           01277                           ECADR    THETAD                                #  23    NAV BASE TO ATM EULER ANGLES
000201: 42,2163           01244                           ECADR    DSPTEM2    +1                         #  24    DELTA TIME FOR AGC CLOCK (HRS,MIN,SEC)
000202: 42,2164           01240                           ECADR    DSPTEM1                               #  25    CHECKLIST
000203:                                                                                                  #           (USED WITH PLEASE PERFORM ONLY)
000204: 42,2165           01016                           ECADR    N26/PRI                               #  26    PRIO/DELAY, ADRES, BBCON
000205: 42,2166           01362                           ECADR    SMODE                                 #  27    SELF TEST ON/OFF SWITCH
000206: 42,2167           03767                           ECADR    NC2TIG                                #  28    TIG OF NC2
000207: 42,2170           01240                           ECADR    DSPTEM1                               #  29    XSM LAUNCH AZIMUTH
000208: 42,2171           01240                           ECADR    DSPTEM1                               #  30    TARGET CODES
000209: 42,2172           03715                           ECADR    AGEOFW                                #  31    TIME OF W-MATRIX INIT (P20)
000210: 42,2173           02127                           ECADR    -TPER                                 #  32    TIME TO PERIGEE (HRS,MIN,SEC)
000211: 42,2174           03412                           ECADR    TIG                                   #  33    TIME OF IGNITION (HRS,MIN(SEC)
000212: 42,2175           01240                           ECADR    DSPTEM1                               #  34    TIME OF EVENT (HRS,MIN,SEC)
000213: 42,2176           03636                           ECADR    TTOGO                                 #  35    TIME TO GO TO EVENT (HRS,MIN,SEC)
000214: 42,2177           00024                           ECADR    TIME2                                 #  36    TIME OF AGC CLOCK (HRS,MIN,SEC)
000215: 42,2200           03642                           ECADR    TTPI                                  #  37    TIG OF TPI (HRS,MIN,SEC)
000216: 42,2201           01516                           ECADR    TET                                   #  38    TIME OF STATE VECTOR
000217: 42,2202           03725                           ECADR    LASTTIG                               #  39    TIG OF LAST MANEUVER
000218:
000219:                                                                                                  #  END OF NNADTAB FOR NORMAL NOUNS
000220:
000221:                                                                                                  #  NN    MIXED NOUNS
000222:
000223: 42,2203           64000                           OCT      64000                                 #  40    TIME TO IGNITION/CUTOFF
000224:                                                                                                  #        VG
000225:                                                                                                  #        DELTA V (ACCUMULATED)
000226: 42,2204           02003                           OCT      02003                                 #  41    TARGET  AZIMUTH
000227:                                                                                                  #                ELEVATION
000228: 42,2205           24006                           OCT      24006                                 #  42    APOGEE
000229:                                                                                                  #        PERIGEE
000230:                                                                                                  #        DELTA V (REQUIRED)
000231: 42,2206           24011                           OCT      24011                                 #  43    LATITUDE
000232:                                                                                                  #        LONGITUDE
000233:                                                                                                  #        ALTITUDE
000234: 42,2207           64014                           OCT      64014                                 #  44    APOGEE
000235:                                                                                                  #        PERIGEE
000236:                                                                                                  #        TFF
000237: 42,2210           64017                           OCT      64017                                 #  45    MARKS (VHF - OPTICS)
000238:                                                                                                  #        TTI OF NEXT BURN
000239:                                                                                                  #        MGA
000240: 42,2211           02022                           OCT      02022                                 #  46    AUTOPILOT CONFIGURATION
000241: 42,2212           22025                           OCT      22025                                 #  47    THIS VEHICLE WEIGHT
000242:                                                                                                  #        OTHER VEHICLE WEIGHT
000243: 42,2213           22030                           OCT      22030                                 #  48    PITCH TRIM
000244:                                                                                                  #        YAW TRIM
000245: 42,2214           24033                           OCT      24033                                 #  49    DELTA R
000246:                                                                                                  #        DELTA V
000247:                                                                                                  #        VHF OR OPTICS CODE
000248: 42,2215           64036                           OCT      64036                                 #  50    SPLASH ERROR
000249:                                                                                                  #        PERIGEE
000250:                                                                                                  #        TFF
000251: 42,2216           00000                           OCT      00000                                 #  51    SPARE
000252: 42,2217           00044                           OCT      00044                                 #  52    CENTRAL ANGLE OF ACTIVE VEHICLE
000253: 42,2220           24047                           OCT      24047                                 #  53    RANGE
000254:                                                                                                  #        RANGE RATE
000255:                                                                                                  #        PHI
000256: 42,2221           24052                           OCT      24052                                 #  54    RANGE
000257:                                                                                                  #        RANGE RATE
000258:                                                                                                  #        THETA
000259: 42,2222           22055                           OCT      22055                                 #  55    PERIGEE CODE
000260:                                                                                                  #        ELEVATION ANGLE
000261: 42,2223           64060                           OCT      64060                                 #  56    VEHICLE RATE
000262: 42,2224           24063                           OCT      24063                                 #  57    NO. OF HALF REVS
000263:                                                                                                  #        DELTA ALT NCC
000264:                                                                                                  #        DELTA ALT NSR
000265: 42,2225           24066                           OCT      24066                                 #  58    DELTA V TPI
000266:                                                                                                  #        DELTA V TPF
000267:                                                                                                  #        DELTA TIME (TPI - NOMTPI)
000268: 42,2226           24071                           OCT      24071                                 #  59    DELTA VELOCITY LOS
000269: 42,2227           24074                           OCT      24074                                 #  60    GMAX
000270:                                                                                                  #        VPRED
000271:                                                                                                  #        GAMMA EI
000272: 42,2230           24077                           OCT      24077                                 #  61    IMPACT LATITUDE
000273:                                                                                                  #        IMPACT LONGITUDE
000274:                                                                                                  #        HEADS UP/DOWN
000275: 42,2231           24102                           OCT      24102                                 #  62    INERTIAL VEL MAG (VI)
000276:                                                                                                  #        ALT RATE CHANGE (HDOT)
000277:                                                                                                  #        ALT ABOVE PAD RADIUS (H)
000278: 42,2232           64105                           OCT      64105                                 #  63    RANGE  297,431 TO SPLASH (RTGO)
000279:                                                                                                  #        PREDICTED INERT VEL (VIO)
000280:                                                                                                  #        TIME TO GO TO 297,431 (TTE)
000281: 42,2233           24110                           OCT      24110                                 #  64    DRAG ACCELERATION
000282:                                                                                                  #        INERTIAL VELOCITY (VI)
000283:                                                                                                  #        RANGE TO SPLASH
000284: 42,2234           24113                           OCT      24113                                 #  65    SAMPLED AGC TIME (HRS,MIN,SEC)
000285:                                                                                                  #        (FETCHED IN INTERRUPT)
000286: 42,2235           24116                           OCT      24116                                 #  66    COMMAND BANK ANGLE (BETA)
000287:                                                                                                  #        CROSS RANGE ERROR
000288:                                                                                                  #        DOWN RANGE ERROR
000289: 42,2236           24121                           OCT      24121                                 #  67    RANGE TO TARGET
000290:                                                                                                  #        PRESENT LATITUDE
000291:                                                                                                  #        PRESENT LONGITUDE
000292: 42,2237           24124                           OCT      24124                                 #  68    COMMAND BANK ANGLE (BETA)
000293:                                                                                                  #        INERTIAL VELOCITY (VI)
000294:                                                                                                  #        ALT RATE CHANGE (RDOT)
000295: 42,2240           24127                           OCT      24127                                 #  69    BETA
000296:                                                                                                  #        DL
000297:                                                                                                  #        VL
000298: 42,2241           00132                           OCT      00132                                 #  70    STAR CODE
000299: 42,2242           00135                           OCT      00135                                 #  71    STAR CODE
000300: 42,2243           24140                           OCT      24140                                 #  72    TIME OF R27 OPTIMIZATION
000301: 42,2244           04143                           OCT      04143                                 #  73    ALTITUDE
000302:                                                                                                  #        VELOCITY
000303:                                                                                                  #        FLIGHT PATH ANGLE
000304: 42,2245           04146                           OCT      04146                                 #  74    COMMAND BANK ANGLE (BETA)
000305:                                                                                                  #        INERTIAL VELOCITY (VI)
000306:                                                                                                  #        DRAG ACCELERATION
000307: 42,2246           64151                           OCT      64151                                 #  75    DELTA ALTITUDE CDH
000308:                                                                                                  #        DELTA TIME (CDH-CSI OR TPI-CDH)
000309:                                                                                                  #        DELTA TIME (TPI-CDH OR TPI-NOMTPI)
000310: 42,2247           64154                           OCT      64154                                 #  76    CURRENT R27 RANGE
000311:                                                                                                  #        CURRENT R27 RANGE-RATE
000312:                                                                                                  #        TIME FROM R27 OPTIMIZATION
000313: 42,2250           24157                           OCT      24157                                 #  77    OPTIMIZED R27 RANGE
000314:                                                                                                  #        OPTIMIZED R27 RANGE-RATE
000315:                                                                                                  #        R27 THETA/PHI
000316: 42,2251           24162                           OCT      24162                                 #  78    YAW ANGLE FOR P20
000317:                                                                                                  #  78    PITCH ANGLE FOR P20
000318:                                                                                                  #  78    AZIMUTH CONSTRAINT FOR P20
000319: 42,2252           22165                           OCT      22165                                 #  79    ORBRATE OR PTC RATE
000320:                                                                                                  #        P20 ROTATION DEADBAND
000321: 42,2253           64170                           OCT      64170                                 #  80    TIME TO IGNITION/CUTOFF
000322:                                                                                                  #        VG
000323:                                                                                                  #        DELTA V (ACCUMULATED)
000324: 42,2254           24173                           OCT      24173                                 #  81    DELTA V (LV)
000325: 42,2255           24176                           OCT      24176                                 #  82    NSR DELTA V (LV)
000326: 42,2256           24201                           OCT      24201                                 #  83    DELTA V (BODY)
000327: 42,2257           24204                           OCT      24204                                 #  84    DELTA V NEXT MANEUVER
000328:                                                                                                  #        DELTA ALT - NEXT MANEUVER
000329:                                                                                                  #        DELTA V THIRD MANEUVER
000330: 42,2260           24207                           OCT      24207                                 #  85    VG (BODY)
000331: 42,2261           24212                           OCT      24212                                 #  86    DELTA V (LV)
000332: 42,2262           04215                           OCT      04215                                 #  87    DOCKED DAP FLAG SPECIFICATION
000333:                                                                                                  #        CHANNEL 5 JETS INHIBITED BY DOCKED DAP
000334:                                                                                                  #        CHANNEL 6 JETS INHIBITED BY DOCKED DAP
000335: 42,2263           24220                           OCT      24220                                 #  88    HALF UNIT SUN OR PLANET VECTOR
000336: 42,2264           02223                           OCT      02223                                 #  89    MANUAL/AUTO DOCKED DAP MANEUVER RATES
000337:                                                                                                  #        DEAD BAND FOR DOCKED DAP
000338: 42,2265           24226                           OCT      24226                                 #  90    Y       (ACT VEH)
000339:                                                                                                  #        YDOT    (ACT VEH)
000340:                                                                                                  #        YDOT    (PAS VEH)
000341: 42,2266           02231                           OCT      02231                                 #  91    OCDU ANGLES     SHAFT
000342:                                                                                                  #                        TRUNION
000343: 42,2267           02234                           OCT      02234                                 #  92    NEW OPTICS ANGLES  SHAFT
000344:                                                                                                  #                           TRUNION
000345: 42,2270           04237                           OCT      04237                                 #  93    DELTA GYRO ANGLES
000346: 42,2271           02242                           OCT      02242                                 #  94    NEW OPTICS ANGLES  SHAFT
000347:                                                                                                  #                           TRUNNION
000348: 42,2272           24245                           OCT      24245                                 #  95    TIG OF NC1
000349: 42,2273           24250                           OCT      24250                                 #  96    Y       (CM)
000350:                                                                                                  #        YDOT    (CM)
000351:                                                                                                  #        YDOT    (LM)
000352: 42,2274           04253                           OCT      04253                                 #  97    SYSTEM TEST INPUTS
000353: 42,2275           04256                           OCT      04256                                 #  98    SYSTEM TEST RESULTS
000354: 42,2276           24261                           OCT      24261                                 #  99    RMS IN POSITION
000355:                                                                                                  #        RMS IN VELOCITY
000356:                                                                                                  #        RMS OPTION
000357:                                                                                                  #  END OF NNADTAB FOR MIXED NOUNS
000358:
000359:                                                                                                  #  NN            NORMAL NOUNS
000360: 42,2277           00000        NNTYPTAB           OCT      00000                                 #  00            NOT IN USE
000361: 42,2300           04040                           OCT      04040                                 #  01    3COMP   FRACTIONAL
000362: 42,2301           04140                           OCT      04140                                 #  02    3COMP   WHOLE
000363: 42,2302           04102                           OCT      04102                                 #  03    3COMP   CDU DEGREES
000364: 42,2303           64705                           OCT      64705                                 #  04    3COMP   DEG(180) (NO LOAD, DEC ONLY)
000365: 42,2304           02145                           OCT      02145                                 #  05    2COMP   DEG(180)
000366: 42,2305           02000                           OCT      02000                                 #  06    2COMP   OCTAL ONLY
000367: 42,2306           04000                           OCT      04000                                 #  07    3COMP   OCTAL ONLY
000368: 42,2307           04000                           OCT      04000                                 #  08    3COMP   OCTAL ONLY
000369: 42,2310           04000                           OCT      04000                                 #  09    3COMP   OCTAL ONLY
000370: 42,2311           00000                           OCT      00000                                 #  10    1COMP   OCTAL ONLY
000371: 42,2312           24400                           OCT      24400                                 #  11    3COMP   HMS (DEC ONLY)
000372: 42,2313           02000                           OCT      02000                                 #  12    2COMP   OCTAL ONLY
000373: 42,2314           24400                           OCT      24400                                 #  13    3COMP   HMS (DEC ONLY)
000374: 42,2315           02165                           OCT      02165                                 #  14    2COMP   ARC MINUTES
000375: 42,2316           00000                           OCT      00000                                 #  15    1COMP   OCTAL ONLY
000376: 42,2317           24400                           OCT      24400                                 #  16    3COMP   HMS (DEC ONLY)
000377: 42,2320           04102                           OCT      04102                                 #  17    3COMP   CDU DEG
000378: 42,2321           04102                           OCT      04102                                 #  18    3COMP   CDU DEG
000379: 42,2322           02000                           OCT      02000                                 #  19    2COMP   OCTAL ONLY
000380: 42,2323           04102                           OCT      04102                                 #  20    3COMP   CDU DEGREES
000381: 42,2324           04140                           OCT      04140                                 #  21    3COMP   WHOLE
000382: 42,2325           04102                           OCT      04102                                 #  22    3COMP   CDU DEGREES
000383: 42,2326           04102                           OCT      04102                                 #  23    3COMP   CDU DEGREES
000384: 42,2327           24400                           OCT      24400                                 #  24    3COMP   HMS (DEC ONLY)
000385: 42,2330           04140                           OCT      04140                                 #  25    3COMP   WHOLE
000386: 42,2331           04000                           OCT      04000                                 #  26    3COMP   OCTAL ONLY
000387: 42,2332           00140                           OCT      00140                                 #  27    1COMP   WHOLE
000388: 42,2333           24400                           OCT      24400                                 #  28    3COMP   HMS (DEC ONLY)
000389: 42,2334           20102                           OCT      20102                                 #  29    1COMP   CDU DEG (DEC ONLY)
000390: 42,2335           04140                           OCT      04140                                 #  30    3COMP   WHOLE
000391: 42,2336           24400                           OCT      24400                                 #  31    3COMP   HMS (DEC ONLY)
000392: 42,2337           24400                           OCT      24400                                 #  32    3COMP   HMS (DEC ONLY)
000393: 42,2340           24400                           OCT      24400                                 #  33    3COMP   HMS (DEC ONLY)
000394: 42,2341           24400                           OCT      24400                                 #  34    3COMP   HMS (DEC ONLY)
000395: 42,2342           24400                           OCT      24400                                 #  35    3COMP   HMS (DEC ONLY)
000396: 42,2343           24400                           OCT      24400                                 #  36    3COMP   HMS (DEC ONLY)
000397: 42,2344           24400                           OCT      24400                                 #  37    3COMP   HMS (DEC ONLY)
000398: 42,2345           24400                           OCT      24400                                 #  38    3COMP   HMS (DEC ONLY)
000399: 42,2346           24400                           OCT      24400                                 #  39    3COMP   HMS (DEC ONLY)
000400:
000401:                                                                                                  #  END OF NNTYPTAB FOR NORMAL NOUNS
000402:
000403:                                                                                                  #  NN            MIXED NOUNS
000404:
000405: 42,2347           24500                           OCT      24500                                 #  40    3COMP   MIN/SEC, VEL3, VEL3
000406:                                                                                                  #                (NO LOAD, DEC ONLY)
000407: 42,2350           00542                           OCT      00542                                 #  41    2COMP   CDU DEG, ELEV DEG
000408: 42,2351           24410                           OCT      24410                                 #  42    3COMP   POS4, POS4, VEL3
000409:                                                                                                  #                (DEC ONLY)
000410: 42,2352           20204                           OCT      20204                                 #  43    3COMP   DPDEG(360), DPDEG(360), POS4
000411:                                                                                                  #                (DEC ONLY)
000412: 42,2353           00410                           OCT      00410                                 #  44    3COMP   POS4, POS4, MIN/SEC
000413:                                                                                                  #                (NO LOAD, DEC ONLY)
000414: 42,2354           10000                           OCT      10000                                 #  45    3COMP   2INT, MIN/SEC, DPDEG(360)
000415:                                                                                                  #                (NO LOAD, DEC ONLY)
000416: 42,2355           00000                           OCT      00000                                 #  46    2COMP   OCTAL ONLY FOR EACH
000417: 42,2356           00306                           OCT      00306                                 #  47    2COMP   WEIGHT2 FOR EACH
000418:                                                                                                  #                (DEC ONLY)
000419: 42,2357           00614                           OCT      00614                                 #  48    2COMP   TRIM DEG, TRIM DEG
000420:                                                                                                  #                (DEC ONLY)
000421: 42,2360           00507                           OCT      00507                                 #  49    3COMP   POS4, VEL3, WHOLE
000422:                                                                                                  #                (DEC ONLY)
000423: 42,2361           00417                           OCT      00417                                 #  50    3COMP   POS6, POS4, MIN/SEC
000424:                                                                                                  #                (NO LOAD, DEC ONLY)
000425: 42,2362           00000                           OCT      00000                                 #  51            SPARE
000426: 42,2363           00004                           OCT      00004                                 #  52    1COMP   DPDEG(360)
000427: 42,2364           10507                           OCT      10507                                 #  53    3COMP   POS5, VEL3, DPDEG(360)
000428:                                                                                                  #                (DEC ONLY)
000429: 42,2365           10507                           OCT      10507                                 #  54    3COMP   POS5, VEL3, DPDEG(360)
000430:                                                                                                  #                (DEC ONLY)
000431: 42,2366           00200                           OCT      00200                                 #  55    2COMP   WHOLE, DPDEG(360)
000432:                                                                                                  #                (DEC ONLY)
000433: 42,2367           61430                           OCT      61430                                 #  56    3COMP   RATE2 FOR EACH
000434:                                                                                                  #                (NO LOAD, DEC ONLY)
000435: 42,2370           20400                           OCT      20400                                 #  57    3COMP   WHOLE, POS4, POS4
000436:                                                                                                  #                (DEC ONLY)
000437: 42,2371           00512                           OCT      00512                                 #  58    3COMP   VEL3, VEL3, MIN/SEC
000438:                                                                                                  #                (DEC ONLY)
000439: 42,2372           24512                           OCT      24512                                 #  59    3COMP   VEL3 FOR EACH
000440:                                                                                                  #                (DEC ONLY)
000441: 42,2373           10440                           OCT      10440                                 #  60    3COMP   WHOLE, VEL2, DPDEG(360)
000442:                                                                                                  #                (DEC ONLY)
000443: 42,2374           00204                           OCT      00204                                 #  61    3COMP   DPDEG(360), DPDEG(360), WHOLE
000444:                                                                                                  #                (DEC ONLY)
000445: 42,2375           20451                           OCT      20451                                 #  62    3COMP   VEL2, VEL2, POS4
000446:                                                                                                  #                (DEC ONLY)
000447: 42,2376           00457                           OCT      00457                                 #  63    3COMP   POS6, VEL2, MIN/SEC
000448:                                                                                                  #                (NO LOAD, DEC ONLY)
000449: 42,2377           36460                           OCT      36460                                 #  64    3COMP   DRAG ACCEL, VEL2, POS6
000450:                                                                                                  #                (DEC ONLY)
000451: 42,2400           00000                           OCT      00000                                 #  65    3COMP   HMS (DEC ONLY)
000452: 42,2401           37044                           OCT      37044                                 #  66    3COMP   DPDEG(360), POS8, POS6
000453:                                                                                                  #                (DEC ONLY)
000454: 42,2402           10217                           OCT      10217                                 #  67    3COMP   POS6, DPDEG(360), DPDEG(360)
000455:                                                                                                  #                (DEC ONLY)
000456: 42,2403           34444                           OCT      34444                                 #  68    3COMP   DPDEG(360), VEL2, VEL/2VS
000457:                                                                                                  #                (DEC ONLY)
000458: 42,2404           35004                           OCT      35004                                 #  69    3COMP   DPDEG(360), DRAG ACCEL, VEL/2VS
000459:                                                                                                  #                (DEC ONLY)
000460: 42,2405           00000                           OCT      00000                                 #  70    1COMP   OCTAL ONLY
000461: 42,2406           00000                           OCT      00000                                 #  71    1COMP   OCTAL ONLY
000462: 42,2407           00000                           OCT      00000                                 #  72    3COMP   HMS (DEC ONLY)
000463: 42,2410           10450                           OCT      10450                                 #  73    3COMP   POS4, VEL2, DPDEG(360)
000464: 42,2411           40444                           OCT      40444                                 #  74    3COMP   DPDEG(360), VEL2, DRAG ACCEL
000465: 42,2412           00010                           OCT      00010                                 #  75    3COMP   POS4, MIN/SEC, MIN/SEC
000466:                                                                                                  #                (NO LOAD, DEC ONLY)
000467: 42,2413           01327                           OCT      01327                                 #  76    3COMP   POS10, VEL5, MIN/SEC
000468:                                                                                                  #                (NO LOAD, DEC ONLY)
000469: 42,2414           11327                           OCT      11327                                 #  77    3COMP   POS10, VEL5, DPDEG(360)
000470:                                                                                                  #                (DEC ONLY)
000471: 42,2415           10204                           OCT      10204                                 #  78    3COMP   DPDEG(360) FOR EACH
000472: 42,2416           00113                           OCT      00113                                 #  79    2COMP   ELEVDEG, CDUDEG
000473: 42,2417           22440                           OCT      22440                                 #  80    3COMP   MIN/SEC, VEL2, VEL2
000474:                                                                                                  #                (NO LOAD, DEC ONLY)
000475: 42,2420           24512                           OCT      24512                                 #  81    3COMP   VEL3 FOR EACH
000476:                                                                                                  #                (DEC ONLY)
000477: 42,2421           24512                           OCT      24512                                 #  82    3COMP   VEL3 FOR EACH
000478:                                                                                                  #                (DEC ONLY)
000479: 42,2422           24512                           OCT      24512                                 #  83    3COMP   VEL3 FOR EACH
000480:                                                                                                  #                (DEC ONLY)
000481: 42,2423           24412                           OCT      24412                                 #  84    3COMP   VEL3, POS4, VEL3
000482:                                                                                                  #                (DEC ONLY)
000483: 42,2424           24512                           OCT      24512                                 #  85    3COMP   VEL3 FOR EACH
000484:                                                                                                  #                (DEC ONLY)
000485: 42,2425           22451                           OCT      22451                                 #  86    3COMP   VEL2 FOR EACH
000486:                                                                                                  #                (DEC ONLY)
000487: 42,2426           00000                           OCT      0                                     #  87    3COMP   OCTAL ONLY FOR EACH
000488: 42,2427           00000                           OCT      0                                     #  88    3COMP   FRAC FOR EACH
000489:                                                                                                  #                (DEC ONLY)
000490: 42,2430           00264                           OCT      00264                                 #  89    2COMP   RATE1, DEG(180)
000491: 42,2431           24507                           OCT      24507                                 #  90    3COMP   POS5, VEL3, VEL3
000492:                                                                                                  #                (DEC ONLY)
000493: 42,2432           00102                           OCT      00102                                 #  91    2COMP   CDUDEG, Y OPTICS DEG
000494: 42,2433           00102                           OCT      00102                                 #  92    2COMP   CDUDEG, Y OPTICS DEG
000495: 42,2434           06143                           OCT      06143                                 #  93    3COMP   DPDEG(90) FOR EACH
000496: 42,2435           00102                           OCT      00102                                 #  94    2COMP   CDUDEG, Y OPTICS DEG
000497: 42,2436           00000                           OCT      00000                                 #  95    3COMP   HMS (DEC ONLY)
000498: 42,2437           24507                           OCT      24507                                 #  96            POS5, VEL3, VEL3
000499:                                                                                                  #                (DEC ONLY)
000500: 42,2440           00000                           OCT      00000                                 #  97    3COMP   WHOLE FOR EACH
000501: 42,2441           00000                           OCT      00000                                 #  98    3COMP   WHOLE, FRAC, WHOLE
000502: 42,2442           01162                           OCT      01162                                 #  99    3COMP   POS9, VEL4, WHOLE
000503:                                                                                                  #                (DEC ONLY)
000504:
000505:                                                                                                  #  END OF NNTYPTAB FOR MIXED NOUNS
000506:
000507: 42,2443           00006        SFINTAB            OCT      00006                                 #  WHOLE, DP TIME (SEC)
000508: 42,2444           03240                           OCT      03240
000509: 42,2445           00000                           OCT      00000                                 #  SPARE
000510: 42,2446           00000                           OCT      00000
000511: 42,2447           00000                           OCT      00000                                 #  CDU DEGREES, Y OPTICS DEGREES
000512: 42,2450           00000                           OCT      00000                                 #        (SFCONS IN DEGINSF, OPTDEGIN)
000513: 42,2451           10707                           OCT      10707                                 #  DP DEGREES (90)
000514: 42,2452           03435                           OCT      03435                                 #        UPPED BY 1
000515: 42,2453           13070                           OCT      13070                                 #  DP DEGREES (360) (POINT BETWN BITS 11-12)
000516: 42,2454           34345                           OCT      34345                                 #        UPPED BY 1
000517: 42,2455           00005                           OCT      00005                                 #  DEGREES (180)
000518: 42,2456           21616                           OCT      21616
000519: 42,2457           26113                           OCT      26113                                 #  WEIGHT2
000520: 42,2460           31713                           OCT      31713
000521: 42,2461           00070                           OCT      00070                                 #  POSITION5
000522: 42,2462           20460                           OCT      20460
000523: 42,2463           01065                           OCT      01065                                 #  POSITION4
000524: 42,2464           05740                           OCT      05740
000525: 42,2465           11414                           OCT      11414                                 #  VELOCITY2     (POINT BETWN BITS 11-12)
000526: 42,2466           31463                           OCT      31463
000527: 42,2467           07475                           OCT      07475                                 #  VELOCITY3
000528: 42,2470           16051                           OCT      16051
000529: 42,2471           00001                           OCT      00001                                 #  ELEVATION DEGREES
000530: 42,2472           03434                           OCT      03434
000531: 42,2473           00002                           OCT      00002                                 #  TRIM DEGREES
000532: 42,2474           22245                           OCT      22245
000533: 42,2475           00014                           OCT      00014                                 #  INERTIA, THRUST MOMENT
000534: 42,2476           35607                           OCT      35607
000535: 42,2477           07606                           OCT      07606                                 #  VELOCITY/2VS
000536: 42,2500           06300                           OCT      06300
000537: 42,2501           16631                           OCT      16631                                 #  POSITION 6
000538: 42,2502           11307                           OCT      11307
000539: 42,2503           12000                           OCT      12000                                 #  DRAG ACCELERATION (POINT BETWN BITS 7-8)
000540: 42,2504           00000                           OCT      00000
000541: 42,2505           27176                           OCT      27176                                 #  POSITION 8
000542: 42,2506           14235                           OCT      14235
000543: 42,2507           01670 20000                     2DEC     30480      B-19                       #  POSITION 9
000544:
000545: 42,2511           07475 16051                     2DEC     30.48      B-7                        #  VELOCITY4
000546:
000547: 42,2513           00001 15404                     2DEC     1.42213543 B-14                       #  RATE1
000548:
000549: 42,2515           00004 24114                     2DEC     4.62962963 B-14                       #  ARC MINUTES
000550:
000551: 42,2517           17172 34122                     2DEC     .3048      E2         B-6             #  VELOCITY5
000552:
000553: 42,2521           07041 06000                     2DEC     1852       E3         B-23            #  POSITION10
000554:
000555: 42,2523           00554 02660                     2DEC     .022222222                            #  RATE2
000556:
000557:                                                                                                  #  END OF SFINTAB
000558:
000559:
000560: 42,2525           05174        SFOUTAB            OCT      05174                                 #  WHOLE, DP TIME (SEC)
000561: 42,2526           13261                           OCT      13261
000562: 42,2527           00000                           OCT      00000                                 #  SPARE
000563: 42,2530           00000                           OCT      00000
000564: 42,2531           00000                           OCT      00000                                 #  CDU DEGREES, Y OPTICS DEGREES
000565: 42,2532           00000                           OCT      00000                                 #        (SFCONS IN DEGOUTSF, OPTDEGOUT)
000566: 42,2533           00714                           OCT      00714                                 #  DP DEGREES (90) (POINT BETWN BITS 7-8)
000567: 42,2534           31463                           OCT      31463
000568: 42,2535           13412                           OCT      13412                                 #  DP DEGREES (360)
000569: 42,2536           07534                           OCT      07534
000570: 42,2537           05605                           OCT      05605                                 #  DEGREES (180)
000571: 42,2540           03656                           OCT      03656
000572: 42,2541           00001                           OCT      00001                                 #  WEIGHT2
000573: 42,2542           16170                           OCT      16170
000574: 42,2543           00441                           OCT      00441                                 #  POSITION5
000575: 42,2544           34306                           OCT      34306
000576: 42,2545           07176                           OCT      07176                                 #  POSITION4
000577: 42,2546           21603                           OCT      21603
000578: 42,2547           15340                           OCT      15340                                 #  VELOCITY2
000579: 42,2550           15340                           OCT      15340
000580: 42,2551           01031                           OCT      01031                                 #  VELOCITY3     (POINT BETWN BITS 7-8)
000581: 42,2552           21032                           OCT      21032
000582: 42,2553           34631                           OCT      34631                                 #  ELEVATION DEGREES
000583: 42,2554           23146                           OCT      23146
000584: 42,2555           14340                           OCT      14340                                 #  TRIM DEGREES
000585: 42,2556           24145                           OCT      24145
000586: 42,2557           02363                           OCT      02363                                 #  INERTIA, THRUST MOMENT
000587: 42,2560           03721                           OCT      03721
000588: 42,2561           20373                           OCT      20373                                 #  VELOCITY/2VS
000589: 42,2562           02122                           OCT      02122
000590: 42,2563           00424                           OCT      00424                                 #  POSITION 6    (POINT BETWN BITS 7-8)
000591: 42,2564           30446                           OCT      30446
000592: 42,2565           00631                           OCT      00631                                 #  DRAG ACCELERATION
000593: 42,2566           23146                           OCT      23146
000594: 42,2567           00260                           OCT      00260                                 #  POSITION 8
000595: 42,2570           06213                           OCT      06213
000596: 42,2571           04231 27400                     2DEC     17.2010499 B-7                        #  POSITION 9
000597:
000598: 42,2573           01031 21032                     2DEC     .032808399                            #  VELOCITY4
000599:
000600: 42,2575           26400 26400                     2DEC     .703167914                            #  RATE1
000601:
000602: 42,2577           06722 36152                     2DEC     .216                                  #  ARC MINUTES
000603:
000604: 42,2601           00414 30415                     2DEC*    3.280839896 E-2        B-1*            #  VELOCITY5
000605:
000606: 42,2603           22074 14310                     2DEC*    .5399568   E-6        B20*            #  POSITION10
000607:
000608: 42,2605           13200 00000                     2DEC     45         B-7                        #  RATE2
000609:
000610:                                                                                                  #  END OF SFOUTAB
000611:
000612:
000613:                                                                                                  #  NN    SF CONSTANT             SF ROUTINE
000614:
000615: 42,2607           03636        IDADDTAB           ECADR    TTOGO                                 #  40    MIN/SEC                 M/S
000616: 42,2610           03763                           ECADR    VGDISP                                #  40    VEL3                    DP3
000617: 42,2611           03425                           ECADR    DVTOTAL                               #  40    VEL3                    DP3
000618: 42,2612           01240                           ECADR    DSPTEM1                               #  41    CDU DEG                 CDU
000619: 42,2613           01241                           ECADR    DSPTEM1    +1                         #  41    ELEV DEG                ARTH
000620: 42,2614           00000                           OCT      0                                     #  41    SPARE COMPONENT
000621: 42,2615           02233                           ECADR    HAPO                                  #  42    POS4                    DP3
000622: 42,2616           02235                           ECADR    HPER                                  #  42    POS4                    DP3
000623: 42,2617           03763                           ECADR    VGDISP                                #  42    VEL3                    DP3
000624: 42,2620           00741                           ECADR    LAT                                   #  43    DPDEG(360)              DP4
000625: 42,2621           00743                           ECADR    LONG                                  #  43    DPDEG(360)              DP4
000626: 42,2622           00745                           ECADR    ALT                                   #  43    POS4                    DP3
000627: 42,2623           02203                           ECADR    HAPOX                                 #  44    POS4                    DP3
000628: 42,2624           02205                           ECADR    HPERX                                 #  44    POS4                    DP3
000629: 42,2625           02125                           ECADR    TFF                                   #  44    MIN/SEC                 M/S
000630: 42,2626           00764                           ECADR    VHFCNT                                #  45    2INT                    2INT
000631: 42,2627           03636                           ECADR    TTOGO                                 #  45    MIN/SEC                 M/S
000632: 42,2630           03603                           ECADR    +MGA                                  #  45    DPDEG(360)              DP4
000633: 42,2631           03114                           ECADR    DAPDATR1                              #  46    OCTAL ONLY              OCT
000634: 42,2632           03115                           ECADR    DAPDATR2                              #  46    OCTAL ONLY              OCT
000635: 42,2633           00000                           OCT      0                                     #  46    SPARE COMPONENT
000636: 42,2634           03122                           ECADR    CSMMASS                               #  47    WEIGHT2                 ARTH1
000637: 42,2635           03121                           ECADR    LEMMASS                               #  47    WEIGHT2                 ARTH1
000638: 42,2636           00000                           OCT      00000                                 #  47    SPARE COMPONENT
000639: 42,2637           03010                           ECADR    PACTOFF                               #  48    TRIM DEG                ARTH
000640: 42,2640           03011                           ECADR    YACTOFF                               #  48    TRIM DEG                ARTH
000641: 42,2641           00000                           OCT      00000                                 #  48    SPARE COMPONENT
000642: 42,2642           03465                           ECADR    N49DISP                               #  49    POS5                    DP1
000643: 42,2643           03467                           ECADR    N49DISP    +2                         #  49    VEL3                    DP3
000644: 42,2644           03471                           ECADR    N49DISP    +4                         #  49    WHOLE                   ARTH
000645: 42,2645           02156                           ECADR    RSP-RREC                              #  50    POS6                    DP3
000646: 42,2646           02205                           ECADR    HPERX                                 #  50    POS4                    DP3
000647: 42,2647           02125                           ECADR    TFF                                   #  50    MIN/SEC                 M/S
000648: 42,2650           00000                           OCT      0                                     #  51    SPARE
000649: 42,2651           00000                           OCT      0                                     #  51    SPARE
000650: 42,2652           00000                           OCT      0                                     #  51    SPARE
000651: 42,2653           02624                           ECADR    ACTCENT                               #  52    DPDEG(360)              DP4
000652: 42,2654           00000                           OCT      00000                                 #  52    SPARE COMPONENT
000653: 42,2655           00000                           OCT      00000                                 #  52    SPARE COMPONENT
000654: 42,2656           02201                           ECADR    RANGE                                 #  53    POS5                    DP1
000655: 42,2657           02203                           ECADR    RRATE                                 #  53    VEL3                    DP3
000656: 42,2660           02205                           ECADR    RTHETA                                #  53    DPDEG(360)              DP4
000657: 42,2661           02201                           ECADR    RANGE                                 #  54    POS5                    DP1
000658: 42,2662           02203                           ECADR    RRATE                                 #  54    VEL3                    DP3
000659: 42,2663           02205                           ECADR    RTHETA                                #  54    DPDEG(360)              DP4
000660: 42,2664           03723                           ECADR    NN1                                   #  55    WHOLE                   ARTH
000661: 42,2665           03640                           ECADR    ELEV                                  #  55    DPDEG(360)              DP4
000662: 42,2666           00000                           OCT      0                                     #  55    SPARE COMPONENT
000663: 42,2667           03162                           ECADR    ADOT                                  #  56    RATE2                   DP3
000664: 42,2670           03164                           ECADR    ADOT       +2                         #  56    RATE2                   DP3
000665: 42,2671           03166                           ECADR    ADOT       +4                         #  56    RATE2                   DP3
000666: 42,2672           02632                           ECADR    HALFREVS                              #  57    WHOLE                   ARTH
000667: 42,2673           02044                           ECADR    DHNCC                                 #  57    POS4                    DP3
000668: 42,2674           02050                           ECADR    DELH1                                 #  57    POS4                    DP3
000669: 42,2675           02626                           ECADR    DELVTPI                               #  58    VEL3                    DP3
000670: 42,2676           02630                           ECADR    DELVTPF                               #  58    VEL3                    DP3
000671: 42,2677           03631                           ECADR    T2TOT3                                #  58    MIN/SEC                 M/S
000672: 42,2700           02610                           ECADR    DVLOS                                 #  59    VEL3                    DP3
000673: 42,2701           02612                           ECADR    DVLOS      +2                         #  59    VEL3                    DP3
000674: 42,2702           02614                           ECADR    DVLOS      +4                         #  59    VEL3                    DP3
000675: 42,2703           03721                           ECADR    GMAX                                  #  60    WHOLE                   ARTH
000676: 42,2704           03736                           ECADR    VPRED                                 #  60    VEL2                    DP4
000677: 42,2705           03740                           ECADR    GAMMAEI                               #  60    DPDEG(360)              DP4
000678: 42,2706           03400                           ECADR    LAT(SPL)                              #  61    DPDEG(360)              DP4
000679: 42,2707           03402                           ECADR    LNG(SPL)                              #  61    DPDEG(360)              DP4
000680: 42,2710           03357                           ECADR    HEADSUP                               #  61    WHOLE                   ARTH
000681: 42,2711           03722                           ECADR    VMAGI                                 #  62    VEL2                    DP4
000682: 42,2712           02323                           ECADR    HDOT                                  #  62    VEL2                    DP4
000683: 42,2713           02321                           ECADR    ALTI                                  #  62    POS4                    DP3
000684: 42,2714           03713                           ECADR    RTGO                                  #  63    POS6                    DP3
000685: 42,2715           03724                           ECADR    VIO                                   #  63    VEL2                    DP4
000686: 42,2716           03726                           ECADR    TTE                                   #  63    MIN/SEC                 M/S
000687: 42,2717           03637                           ECADR    D                                     #  64    DRAG ACCEL              DP2
000688: 42,2720           03722                           ECADR    VMAGI                                 #  64    VEL2                    DP4
000689: 42,2721           03713                           ECADR    RTGON64                               #  64    POS6                    DP3
000690: 42,2722           00013                           ECADR    SAMPTIME                              #  65    HMS (MIXED ONLY TO KEEP CODE 65) HMS
000691: 42,2723           00013                           ECADR    SAMPTIME                              #  65    HMS                     HMS
000692: 42,2724           00013                           ECADR    SAMPTIME                              #  65    HMS                     HMS
000693: 42,2725           03346                           ECADR    ROLLC                                 #  66    DPDEG(360)              DP4
000694: 42,2726           03675                           ECADR    XRNGERR                               #  66    POS8                    DP3
000695: 42,2727           03715                           ECADR    DNRNGERR                              #  66    POS6                    DP3
000696: 42,2730           03713                           ECADR    RTGON67                               #  67    POS6                    DP3
000697: 42,2731           00741                           ECADR    LAT                                   #  67    DPDEG(360)              DP4
000698: 42,2732           00743                           ECADR    LONG                                  #  67    DPDEG(360)              DP4
000699: 42,2733           03346                           ECADR    ROLLC                                 #  68    DPDEG(360)              DP4
000700: 42,2734           03722                           ECADR    VMAGI                                 #  68    VEL2                    DP4
000701: 42,2735           03677                           ECADR    RDOT                                  #  68    VEL/2VS                 DP4
000702: 42,2736           03346                           ECADR    ROLLC                                 #  69    DPDEG(360)              DP4
000703: 42,2737           03225                           ECADR    Q7                                    #  69    DRAG ACCEL              DP2
000704: 42,2740           03736                           ECADR    VL                                    #  69    VEL/2VS                 DP4
000705: 42,2741           01130                           ECADR    STARCODE                              #  70    OCTAL ONLY              OCT
000706: 42,2742           00000                           OCT      0                                     #  70    SPARE COMPONENT
000707: 42,2743           00000                           OCT      0                                     #  70    SPARE COMPONENT
000708: 42,2744           01130                           ECADR    STARCODE                              #  71    OCTAL ONLY              OCT
000709: 42,2745           00000                           OCT      0                                     #  71    SPARE COMPONENT
000710: 42,2746           00000                           OCT      0                                     #  71    SPARE COMPONENT
000711: 42,2747           01333                           ECADR    FIXTIME                               #  72    HMS                     HMS
000712: 42,2750           01333                           ECADR    FIXTIME                               #  72    HMS                     HMS
000713: 42,2751           01333                           ECADR    FIXTIME                               #  72    HMS                     HMS
000714: 42,2752           03533                           ECADR    P21ALT                                #  73    POS4                    DP3
000715: 42,2753           03535                           ECADR    P21VEL                                #  73    VEL2                    DP4
000716: 42,2754           03537                           ECADR    P21GAM                                #  73    DPDEG(360)              DP4
000717: 42,2755           03346                           ECADR    ROLLC                                 #  74    DPDEG(360)              DP4
000718: 42,2756           03722                           ECADR    VMAGI                                 #  74    VEL2                    DP4
000719: 42,2757           03637                           ECADR    D                                     #  74    DRAG ACCEL              DP2
000720: 42,2760           02632                           ECADR    DIFFALT                               #  75    POS4                    DP3
000721: 42,2761           02540                           ECADR    T1TOT2                                #  75    MIN/SEC                 M/S
000722: 42,2762           03631                           ECADR    T2TOT3                                #  75    MIN/SEC                 M/S
000723: 42,2763           03751                           ECADR    SVEC                                  #  76    POS10                   DP4
000724: 42,2764           03753                           ECADR    SVEC       +2                         #  76    VEL5                    DP3
000725: 42,2765           01337                           ECADR    TFO                                   #  76    MIN/SEC                 M/S
000726: 42,2766           02336                           ECADR    OPVEC                                 #  77    POS10                   DP4
000727: 42,2767           02340                           ECADR    OPVEC      +2                         #  77    VEL5                    DP3
000728: 42,2770           01341                           ECADR    PHETA                                 #  77    DPDEG(360)              DP4
000729: 42,2771           03721                           ECADR    UTYAW                                 #  78    DPDEG(360)
000730: 42,2772           03717                           ECADR    UTPIT                                 #  78    DPDEG(360)
000731: 42,2773           01344                           ECADR    AZIMANGL                              #  78    DPDEG(360)
000732: 42,2774           03374                           ECADR    RATEPTC                               #  79    ELEV DEG                ARTH
000733: 42,2775           03375                           ECADR    DBPTC                                 #  79    CDU DEG                 CDU
000734: 42,2776           00000                           OCT      0                                     #  79    SPARE COMPONENT
000735: 42,2777           03636                           ECADR    TTOGO                                 #  80    MIN/SEC                 M/S
000736: 42,3000           03763                           ECADR    VGDISP                                #  80    VEL2                    DP4
000737: 42,3001           03425                           ECADR    DVTOTAL                               #  80    VEL2                    DP4
000738: 42,3002           03404                           ECADR    DELVLVC                               #  81    VEL3                    DP3
000739: 42,3003           03406                           ECADR    DELVLVC    +2                         #  81    VEL3                    DP3
000740: 42,3004           03410                           ECADR    DELVLVC    +4                         #  81    VEL3                    DP3
000741: 42,3005           02616                           ECADR    VGNSR                                 #  82    VEL3                    DP3
000742: 42,3006           02620                           ECADR    VGNSR      +2                         #  82    VEL3                    DP3
000743: 42,3007           02622                           ECADR    VGNSR      +4                         #  82    VEL3                    DP3
000744: 42,3010           03654                           ECADR    DELVIMU                               #  83    VEL3                    DP3
000745: 42,3011           03656                           ECADR    DELVIMU    +2                         #  83    VEL3                    DP3
000746: 42,3012           03660                           ECADR    DELVIMU    +4                         #  83    VEL3                    DP3
000747: 42,3013           03573                           ECADR    DVDSP1                                #  84    VEL3                    DP3
000748: 42,3014           03547                           ECADR    DHDSP                                 #  84    POS4                    DP3
000749: 42,3015           03575                           ECADR    DVDSP2                                #  84    VEL3                    DP3
000750: 42,3016           03644                           ECADR    VGBODY                                #  85    VEL3                    DP3
000751: 42,3017           03646                           ECADR    VGBODY     +2                         #  85    VEL3                    DP3
000752: 42,3020           03650                           ECADR    VGBODY     +4                         #  85    VEL3                    DP3
000753: 42,3021           03404                           ECADR    DELVLVC                               #  86    VEL2                    DP4
000754: 42,3022           03406                           ECADR    DELVLVC    +2                         #  86    VEL2                    DP4
000755: 42,3023           03410                           ECADR    DELVLVC    +4                         #  86    VEL2                    DP4
000756: 42,3024           03070                           ECADR    DAPDATR3                              #  87    OCTAL ONLY              OCT
000757: 42,3025           03071                           ECADR    CH5FAIL                               #  87    OCTAL ONLY              OCT
000758: 42,3026           03072                           ECADR    CH6FAIL                               #  87    OCTAL ONLY              OCT
000759: 42,3027           03664                           ECADR    STARSAV3                              #  88    DPFRAC                  DPFRAC
000760: 42,3030           03666                           ECADR    STARSAV3   +2                         #  88    DPFRAC                  DPFRAC
000761: 42,3031           03670                           ECADR    STARSAV3   +4                         #  88    DPFRAC                  DPFRAC
000762: 42,3032           03073                           ECADR    DKRATE                                #  89    RATE1                   ARTH
000763: 42,3033           03074                           ECADR    DKDB                                  #  89    DEG(180)                ARTH
000764: 42,3034           00000                           OCT      0                                     #  89    SPARE COMPONENT
000765: 42,3035           02247                           ECADR    YCSM                                  #  90    POS5                    DP1
000766: 42,3036           02251                           ECADR    YDOTC                                 #  90    VEL3                    DP3
000767: 42,3037           02253                           ECADR    YDOTL                                 #  90    VEL3                    DP3
000768: 42,3040           00036                           ECADR    CDUS                                  #  91    CDU DEG                 CDU
000769: 42,3041           00035                           ECADR    CDUT                                  #  91    Y OPTICS DEG            YOPT
000770: 42,3042           00000                           OCT      0                                     #  91    SPARE COMPONENT
000771: 42,3043           02773                           ECADR    SAC                                   #  92    CDU DEG                 CDU
000772: 42,3044           02775                           ECADR    PAC                                   #  92    Y OPTICS DEG            YOPT
000773: 42,3045           00000                           OCT      0                                     #  92    SPARE COMPONENT
000774: 42,3046           02757                           ECADR    OGC                                   #  93    DPDEG(90)               DP3
000775: 42,3047           02761                           ECADR    OGC        +2                         #  93    DPDEG(90)               DP3
000776: 42,3050           02763                           ECADR    OGC        +4                         #  93    DPDEG(90)               DP3
000777: 42,3051           03705                           ECADR    MRKBUF1    +3                         #  94    CDU DEG                 CDU
000778: 42,3052           03707                           ECADR    MRKBUF1    +5                         #  94    Y OPTICS DEG            YOPT
000779: 42,3053           00000                           OCT      00000                                 #  94    SPARE
000780: 42,3054           03765                           ECADR    NC1TIG                                #  95    HMS                     HMS
000781: 42,3055           03765                           ECADR    NC1TIG                                #  95    HMS                     HMS
000782: 42,3056           03765                           ECADR    NC1TIG                                #  95    HMS                     HMS
000783: 42,3057           02201                           ECADR    RANGE                                 #  96    POS5                    DP1
000784: 42,3060           02203                           ECADR    RRATE                                 #  96    VEL3                    DP3
000785: 42,3061           02205                           ECADR    RRATE2                                #  96    VEL3                    DP3
000786: 42,3062           01240                           ECADR    DSPTEM1                               #  97    WHOLE                   ARTH
000787: 42,3063           01241                           ECADR    DSPTEM1    +1                         #  97    WHOLE                   ARTH
000788: 42,3064           01242                           ECADR    DSPTEM1    +2                         #  97    WHOLE                   ARTH
000789: 42,3065           01243                           ECADR    DSPTEM2                               #  98    WHOLE                   ARTH
000790: 42,3066           01244                           ECADR    DSPTEM2    +1                         #  98    FRAC                    FRAC
000791: 42,3067           01245                           ECADR    DSPTEM2    +2                         #  98    WHOLE                   ARTH
000792: 42,3070           02201                           ECADR    WWPOS                                 #  99    POS9                    DP3
000793: 42,3071           02203                           ECADR    WWVEL                                 #  99    VEL4                    DP2
000794: 42,3072           02205                           ECADR    WWOPT                                 #  99    WHOLE                   ARTH
000795:
000796:                                                                                                  #  END OF IDADDTAB
000797:
000798:                                                                                                  #  NN    SF ROUTINES
000799:
000800: 42,3073           16351        RUTMXTAB           OCT      16351                                 #  40    M/S, DP3, DP3
000801: 42,3074           00142                           OCT      00142                                 #  41    CDU, ARTH
000802: 42,3075           16347                           OCT      16347                                 #  42    DP3, DP3, DP3
000803: 42,3076           16512                           OCT      16512                                 #  43    DP4, DP4, DP3
000804: 42,3077           22347                           OCT      22347                                 #  44    DP3, DP3, M/S
000805: 42,3100           24454                           OCT      24454                                 #  45    2INT, M/S, DP4
000806: 42,3101           00000                           OCT      00000                                 #  46    OCT, OCT
000807: 42,3102           00553                           OCT      00553                                 #  47    ARITH1, ARITH1
000808: 42,3103           00143                           OCT      00143                                 #  48    ARTH, ARTH
000809: 42,3104           06344                           OCT      06344                                 #  49    DP1, DP3, ARTH
000810: 42,3105           22347                           OCT      22347                                 #  50    DP3, DP3, M/S
000811: 42,3106           00000                           OCT      0                                     #  51    SPARE
000812: 42,3107           00012                           OCT      00012                                 #  52    DP4
000813: 42,3110           24344                           OCT      24344                                 #  53    DP1, DP3, DP4
000814: 42,3111           24344                           OCT      24344                                 #  54    DP1, DP3, DP4
000815: 42,3112           00503                           OCT      00503                                 #  55    ARTH, DP4
000816: 42,3113           16347                           OCT      16347                                 #  56    DP3, DP3, DP3
000817: 42,3114           16343                           OCT      16343                                 #  57    ARTH, DP3, DP3
000818: 42,3115           22347                           OCT      22347                                 #  58    DP3, DP3, M/S
000819: 42,3116           16347                           OCT      16347                                 #  59    DP3, DP3, DP3
000820: 42,3117           24503                           OCT      24503                                 #  60    ARTH, DP4, DP4
000821: 42,3120           06512                           OCT      06512                                 #  61    DP4, DP4, ARTH
000822: 42,3121           16512                           OCT      16512                                 #  62    DP4, DP4, DP3
000823: 42,3122           22507                           OCT      22507                                 #  63    DP3, DP4, M/S
000824: 42,3123           16505                           OCT      16505                                 #  64    DP2, DP4, DP3
000825: 42,3124           20410                           OCT      20410                                 #  65    HMS, HMS, HMS
000826: 42,3125           16352                           OCT      16352                                 #  66    DP4, DP3, DP3
000827: 42,3126           24507                           OCT      24507                                 #  67    DP3, DP4, DP4
000828: 42,3127           24512                           OCT      24512                                 #  68    DP4, DP4, DP4
000829: 42,3130           24252                           OCT      24252                                 #  69    DP4, DP2, DP4
000830: 42,3131           00000                           OCT      00000                                 #  70    OCT
000831: 42,3132           00000                           OCT      00000                                 #  71    OCT
000832: 42,3133           20410                           OCT      20410                                 #  72    HMS, HMS, HMS
000833: 42,3134           24507                           OCT      24507                                 #  73    DP3, DP4, DP4
000834: 42,3135           12512                           OCT      12512                                 #  74    DP4, DP4, DP2
000835: 42,3136           22447                           OCT      22447                                 #  75    DP3, M/S, M/S
000836: 42,3137           22352                           OCT      22352                                 #  76    DP4, DP3, M/S
000837: 42,3140           24352                           OCT      24352                                 #  77    DP4, DP3, DP4
000838: 42,3141           24512                           OCT      24512                                 #  78    DP4, DP4, DP4
000839: 42,3142           00103                           OCT      103                                   #  79    ARTH, CDU
000840: 42,3143           24511                           OCT      24511                                 #  80    M/S, DP4, DP4
000841: 42,3144           16347                           OCT      16347                                 #  81    DP3, DP3, DP3
000842: 42,3145           16347                           OCT      16347                                 #  82    DP3, DP3, DP3
000843: 42,3146           16347                           OCT      16347                                 #  83    DP3, DP3, DP3
000844: 42,3147           16347                           OCT      16347                                 #  84    DP3, DP3, DP3
000845: 42,3150           16347                           OCT      16347                                 #  85    DP3, DP3, DP3
000846: 42,3151           24512                           OCT      24512                                 #  86    DP4, DP4, DP4
000847: 42,3152           00000                           OCT      00000                                 #  87    OCT, OCT, OCT
000848: 42,3153           32655                           OCT      32655                                 #  88    DPFRAC FOR EACH
000849: 42,3154           00143                           OCT      00143                                 #  89    ARTH, ARTH
000850: 42,3155           16344                           OCT      16344                                 #  90    DP1, DP3, DP3
000851: 42,3156           00302                           OCT      00302                                 #  91    CDU, YOPT
000852: 42,3157           00302                           OCT      00302                                 #  92    CDU, YOPT
000853: 42,3160           16347                           OCT      16347                                 #  93    DP3, DP3, DP3
000854: 42,3161           00302                           OCT      00302                                 #  94    CDU, YOPT
000855: 42,3162           20410                           OCT      20410                                 #  95    HMS, HMS, HMS
000856: 42,3163           16344                           OCT      16344                                 #  96    DP1, DP3, DP3
000857: 42,3164           06143                           OCT      06143                                 #  97    ARTH, ARTH, ARTH
000858: 42,3165           06043                           OCT      06043                                 #  98    ARTH, FRAC, ARTH
000859: 42,3166           06247                           OCT      06247                                 #  99    DP3, DP2, ARTH
000860:
000861:                                                                                                  #  END OF RUTMXTAB
000862:
000863: 42,3167  30,2000                                  SBANK=   LOWSUPER
000864:

End of include-file PINBALL_NOUN_TABLES.agc.  Parent file is MAIN.agc


