
Source Code


000002:                                                                                                  ## Copyright:   Public domain.
000003:                                                                                                  ## Filename:    PLANETARY_INERTIAL_ORIENTATION.agc
000004:                                                                                                  ## Purpose:     A section of Skylark revision 048.
000005:                                                                                                  ##              It is part of the source code for the Apollo Guidance Computer (AGC)
000006:                                                                                                  ##              for Skylab-2, Skylab-3, Skylab-4, and ASTP. No original listings of
000007:                                                                                                  ##              this software are available; instead, this file was created via
000008:                                                                                                  ##              disassembly of dumps of the core rope modules actually flown on
000009:                                                                                                  ##              Skylab-2. Access to these modules was provided by the New Mexico
000010:                                                                                                  ##              Museum of Space History.
000011:                                                                                                  ## Assembler:   yaYUL
000012:                                                                                                  ## Contact:     Ron Burkey <info@sandroid.org>.
000013:                                                                                                  ## Website:     www.ibiblio.org/apollo/index.html
000014:                                                                                                  ## Mod history: 2023-09-04 MAS  Created from Artemis 072.
000015:                                                                                                  ##              2024-03-05 MAS  Updated for Skylark 48.
000016:
000017:                                                                                                  #  ..... RP-TO-R SUBROUTINE .....
000018:                                                                                                  #  SUBROUTINE TO CONVERT RP (VECTOR IN PLANETARY COORDINATE SYSTEM, EITHER
000019:                                                                                                  #  EARTH-FIXED OR MOON-FIXED) TO R (SAME VECTOR IN THE BASIC REF. SYSTEM)
000020:
000021:                                                                                                  #        R = MT(T) * (RP + LP X RP)      MT = M MATRIX TRANSPOSE
000022:
000023:                                                                                                  #  CALLING SEQUENCE
000024:                                                                                                  #        L       CALL
000025:                                                                                                  #        L+1             RP-TO-R
000026:
000027:                                                                                                  #  SUBROUTINES USED
000028:                                                                                                  #        EARTHMX, MOONMX, EARTHL
000029:
000030:                                                                                                  #        ITEMS AVAILABLE FROM LAUNCH DATA
000031:                                                                                                  #                504LM = THE LIBRATION VECTOR L OF THE MOON AT TIME TIMSUBL, EXPRESSED
000032:                                                                                                  #                IN THE MOON-FIXED COORD. SYSTEM         RADIANS  B0
000033:
000034:                                                                                                  #        ITEMS NECESSARY FOR SUBR. USED (SEE DESCRIPTION OF SUBR.)
000035:
000036:                                                                                                  #  INPUT
000037:                                                                                                  #        MPAC = 0 FOR EARTH, NON-ZERO FOR MOON
000038:                                                                                                  #        0-5D = RP VECTOR
000039:                                                                                                  #        6-7D = TIME
000040:
000041:                                                                                                  #  OUTPUT
000042:                                                                                                  #        MPAC = R VECTOR METERS B-29 FOR EARTH, B-27 FOR MOON
000043:
000044: 26,2000                                           SETLOC   PLANTIN
000045: 26,2000                                           BANK
000046:
000047: 26,3213                                           COUNT*   $$/LUROT
000048:
000049: 26,3213           45020        RP-TO-R            STQ      CALL
000050: 26,3214           00050                                    RPREXIT
000051: 26,3215           55264                                    EARTHMX                               #  M MATRIX B-1
000052:                                                                                                  #  AND L VECTOR RADIANS B0
000053: 26,3216           61375                           VLOAD    VXM
000054: 26,3217           00001                                    504RPR
000055: 26,3220           00025                                    MMATRIX                               #  MPAC=R=MT(T)*(RP+LPXRP)
000056: 26,3221           52105                           VXM      GOTO
000057: 26,3222           02015                                    LMATRIX
000058: 26,3223           55234                                    RPRPXXXX                              #  RESET PUSHLOC TO 0 BEFORE EXITING
000059:
000060:                                                                                                  #  ..... R-TO-RP SUBROUTINE .....
000061:                                                                                                  #  SUBROUTINE TO CONVERT R (VECTOR IN REFERENCE COORD. SYSTEM) TO RP
000062:                                                                                                  #  (VECTOR IN PLANETARY COORD SYSTEM) EITHER EARTH-FIXED OR MOON-FIXED
000063:
000064:                                                                                                  #        RP = M(T) * (R - L X R)
000065:
000066:                                                                                                  #  CALLING SEQUENCE
000067:                                                                                                  #        L       CALL
000068:                                                                                                  #        L+1             R-TO-RP
000069:
000070:                                                                                                  #  SUBROUTINES USED
000071:                                                                                                  #        EARTHMX, MOONMX, EARTHL
000072:
000073:                                                                                                  #  INPUT
000074:                                                                                                  #        MPAC = 0 FOR EARTH, NON-ZERO FOR MOON
000075:                                                                                                  #        0-5D = R VECTOR
000076:                                                                                                  #        6-7D = TIME
000077:
000078:                                                                                                  #        ITEMS AVAILABLE FROM LAUNCH DATA
000079:                                                                                                  #                504LM = THE LIBRATION VECTOR L OF THE MOON AT TIME TIMSUBL, EXPRESSED
000080:                                                                                                  #                IN THE MOON-FIXED COORD. SYSTEM   RADIANS B0
000081:
000082:                                                                                                  #        ITEMS NECESSARY FOR SUBROUTINES USED (SEE DESCRIPTION OF SUBR.)
000083:
000084:                                                                                                  #  OUTPUT
000085:                                                                                                  #        MPAC = RP VECTOR METERS B-29 FOR EARTH, B-27 FOR MOON
000086:
000087: 26,3224           45020        R-TO-RP            STQ      CALL
000088: 26,3225           00050                                    RPREXIT
000089: 26,3226           55264                                    EARTHMX
000090: 26,3227           64375                           VLOAD    MXV
000091: 26,3230           00001                                    504RPR
000092: 26,3231           02015                                    LMATRIX
000093: 26,3232           77721                           MXV                                            #  M(T)*(R-LXR)  B-2
000094: 26,3233           00025                                    MMATRIX
000095: 26,3234           40372        RPRPXXXX           VSL1     SETPD
000096: 26,3235           00001                                    0D
000097: 26,3236           77650                           GOTO
000098: 26,3237           00050                                    RPREXIT
000099:
000100:                                                                                                  #  COMPUTE X=X0+(XDOT)(T+T0)
000101:                                                                                                  #  8-9D= XO (REVS B-0), PUSHLOC SET AT 12D
000102:                                                                                                  #  10-11D=XDOT (REVS/CSEC) SCALED B+23 FOR WEARTH,B+28 FOR NODDOT AND BDOT
000103:                                                                                                  #                        AND B+27 FOR FDOT
000104:                                                                                                  #  X1=DIFFERENCE IN 23 AND SCALING OF XDOT, =0 FOR WEARTH, 5 FOR NODDOT AND
000105:                                                                                                  #                                        BDOT AND 4 FOR FDOT
000106:                                                                                                  #  6-7D=T (CSEC B-28), TIMSUBO= (CSEC B-42 TRIPLE PREC.)
000107:
000108: 26,3240           54345        NEWANGLE           DLOAD    SR                                    #  ENTER PD 12D
000109: 26,3241           00007                                    6D
000110: 26,3242           20617                                    14D
000111: 26,3243           72371                           TAD      TLOAD                                 #  CHANGE MODE TO TP
000112: 26,3244           01701                                    TIMSUBO
000113: 26,3245           00155                                    MPAC
000114: 26,3246           14017                           STODL    TIMSUBM                               #  T+T0 CSEC B-42
000115: 26,3247           00020                                    TIMSUBM    +1
000116: 26,3250           77605                           DMP                                            #  PD 10D  MULT BY XDOT IN 10-11D
000117: 26,3251           43257                           SL*      DAD                                   #  PD 8D   ADD XO IN 8-9D AFTER SHIFTING
000118: 26,3252           20206                                    5,1                                   #          SUCH THAT SCALING IS B-0
000119: 26,3253           67206                           PUSH     SLOAD                                 #  PD 10D SAVE PARTIAL (X0+XDOT*T) IN 8-9D
000120: 26,3254           00017                                    TIMSUBM
000121: 26,3255           41261                           SL       DMP
000122: 26,3256           20212                                    9D
000123: 26,3257           00013                                    10D                                   #  XDOT
000124: 26,3260           43257                           SL*      DAD                                   #  PD 8D   SHIFT SUCH THAT THIS PART OF X
000125: 26,3261           20213                                    10D,1                                 #          IS SCALED REVS/CSEC B-0
000126: 26,3262           43400        HERE               BOV      RVQ                                   #  TURN OFF OVERFLOW IF SET BY SHIFT
000127: 26,3263           55262                                    HERE                                  #        INSTRUCTION BEFORE EXITING
000128:                                                                                                  #  MPAC=X=X0+(XDOT)(T+T0)  REVS B0
000129:
000130:                                                                                                  #  ..... EARTHMX SUBROUTINE .....
000131:                                                                                                  #  SUBROUTINE TO COMPUTE THE TRANSFORMATION MATRIX M FOR THE EARTH
000132:
000133:                                                                                                  #  CALLING SEQUENCE
000134:                                                                                                  #        L       CALL
000135:                                                                                                  #        L+1             EARTHMX
000136:
000137:                                                                                                  #  SUBROUTINES USED
000138:                                                                                                  #        NEWANGLE
000139:
000140:                                                                                                  #  INPUT
000141:                                                                                                  #        INPUT AVAILABLE FROM LAUNCH DATA        AZO  REVS B-0
000142:                                                                                                  #                                                TEPHEM  CSEC B-42
000143:                                                                                                  #        6-7D= TIME CSEC B-28
000144:
000145:                                                                                                  #  OUTPUT
000146:                                                                                                  #        MMATRIX= 3X3 M MATRIX B-1   (STORED IN VAC AREA)
000147:
000148: 26,3264           40220        EARTHMX            STQ      SETPD                                 #  SET 8-9D=AZO
000149: 26,3265           00051                                    EARTHMXX
000150: 26,3266           00011                                    8D                                    #  10-11D=WEARTH
000151: 26,3267           77770                           AXT,1                                          #  FOR SL 5, AND SL 10  IN NEWANGLE
000152: 26,3270           00000                                    0
000153: 26,3271           65345                           DLOAD    PDDL                                  #    LEAVING PD SET AT 12D FOR NEWANGLE
000154: 26,3272           02037                                    AZO
000155: 26,3273           15317                                    WEARTH
000156: 26,3274           45006                           PUSH     CALL
000157: 26,3275           55240                                    NEWANGLE
000158: 26,3276           41401                           SETPD    PUSH                                  #  18-19D=504AZ
000159: 26,3277           00023                                    18D                                   #                     COS(AZ) SIN(AZ) 0
000160: 26,3300           65346                           COS      PDDL                                  #  20-37D=  MMATRIX= -SIN(AZ) COS(AZ) 0 B-1
000161: 26,3301           00023                                    504AZ                                 #                      0       0      1
000162: 26,3302           65356                           SIN      PDDL
000163: 26,3303           15204                                    HI6ZEROS
000164: 26,3304           73525                           PDDL     SIN
000165: 26,3305           00023                                    504AZ
000166: 26,3306           65276                           DCOMP    PDDL
000167: 26,3307           00023                                    504AZ
000168: 26,3310           63346                           COS      PDVL
000169: 26,3311           15204                                    HI6ZEROS
000170: 26,3312           41525                           PDDL     PUSH
000171: 26,3313           15202                                    HIDPHALF
000172: 26,3314           77650                           GOTO
000173: 26,3315           00051                                    EARTHMXX
000174:                                                                                                  #  CONSTANTS AND ERASABLE ASSIGNMENTS
000175:
000176: 26,3316  06,3723               1B1                =        DP1/2                                 #  1  SCALED B-1
000177: 26,3316  0000050               RPREXIT            =        S1                                    #  R-TO-RP AND RP-TO-R SUBR EXIT
000178: 26,3316  0000051               EARTHMXX           =        S2                                    #  EARTHMX,MOONMX SUBR. EXITS
000179: 26,3316                        504RPR             =        0D                                    #  6 REGS  R OR RP VECTOR
000180: 26,3316                        504AZ              =        18D                                   #  2      AZ
000181: 26,3316                        TIMSUBM            =        14D                                   #  3       TIME SUB M (MOON) T+T0 IN GETAZ
000182: 26,3316                        MMATRIX            =        20D                                   #  18      M MATRIX
000183: 26,3316           37116 32631  WEARTH             2DEC*    +1.160576171 E-7        B23*            #  REV/CS.

End of include-file PLANETARY_INERTIAL_ORIENTATION.agc.  Parent file is MAIN.agc


