
Source Code


000002:                                                                                                  ## Copyright:   Public domain.
000003:                                                                                                  ## Filename:    POWERED_FLIGHT_SUBROUTINES.agc
000004:                                                                                                  ## Purpose:     A section of Skylark revision 048.
000005:                                                                                                  ##              It is part of the source code for the Apollo Guidance Computer (AGC)
000006:                                                                                                  ##              for Skylab-2, Skylab-3, Skylab-4, and ASTP. No original listings of
000007:                                                                                                  ##              this software are available; instead, this file was created via
000008:                                                                                                  ##              disassembly of dumps of the core rope modules actually flown on
000009:                                                                                                  ##              Skylab-2. Access to these modules was provided by the New Mexico
000010:                                                                                                  ##              Museum of Space History.
000011:                                                                                                  ## Assembler:   yaYUL
000012:                                                                                                  ## Contact:     Ron Burkey <info@sandroid.org>.
000013:                                                                                                  ## Website:     www.ibiblio.org/apollo/index.html
000014:                                                                                                  ## Mod history: 2023-09-04 MAS  Created from Artemis 072.
000015:                                                                                                  ##              2024-03-05 MAS  Finished updating for Skylark 48. All of the
000016:                                                                                                  ##                              changes here involved restoring functions that
000017:                                                                                                  ##                              had been deleted from earlier programs.
000018:
000019:
000020: 23,2000                                           SETLOC   POWFLITE
000021: 23,2000                                           BANK
000022:
000023: 23,3471     0142                                  EBANK=   DEXDEX
000024: 23,3471                                           COUNT*   $$/POWFL
000025:
000026:                                                                                                  #  CDUTRIG, CDUTRIG1, CDUTRIG2, AND CD*TR*GS ALL COMPUTE THE SINES AND
000027:                                                                                                  #  COSINES OF THREE 2'S COMPLEMENT ANGLES AND PLACE THE RESULT, DOUBLE
000028:                                                                                                  #  PRECISION, IN THE SAME ORDER AS THE INPUTS, AT SINCDU AND COSCDU.  AN
000029:                                                                                                  #  ADDITIONAL OUTPUT IS THE 1'S COMPLEMENT ANGLES AT CDUSPOT.  THESE
000030:                                                                                                  #  ROUTINES GO OUT OF THEIR WAY TO LEAVE THE MPAC AREA AS THEY FIND IT,
000031:                                                                                                  #  EXCEPT FOR THE GENERALLY UNIMPORTANT MPAC +2.  THEY DIFFER ONLY IN
000032:                                                                                                  #  WHERE THEY GET THE ANGLES, AND IN METHOD OF CALLING.
000033:
000034:                                                                                                  #  CDUTRIG (AND CDUTRIG1, WHICH CAN BE CALLED IN BASIC) COMPUTE THE
000035:                                                                                                  #  SINES AND COSINES FROM THE CURRENT CONTENTS OF THE CDU REGISTERS.
000036:                                                                                                  #  THE CONTENTS OF CDUTEMP, ETC., ARE NOT TOUCHED SO THAT THEY MAY
000037:                                                                                                  #  CONTINUE TO FORM A CONSISTENT SET WITH THE LATEST PIPA READINGS.
000038:
000039:                                                                                                  #  CDUTRIG1 IS LIKE CDUTRIG EXCEPT THAT IT CAN BE CALLED IN BASIC.
000040:
000041:                                                                                                  #  CD*TR*GS FINDS CDU VALUES IN CDUSPOT RATHER THAN IN CDUTEMP.  THIS
000042:                                                                                                  #  ALLOWS USERS TO MAKE TRANSFORMATIONS USING ARBITRARY ANGLES, OR REAL
000043:                                                                                                  #  ANGLES IN AN ORDER OTHER THAN X Y Z.  A CALL TO THIS ROUTINE IS
000044:                                                                                                  #  NECESSARY IN PREPARATION FOR A CALL TO AX*SR*T IN EITHER OF ITS TWO
000045:                                                                                                  #  MODES (SMNB OR NBSM).  SINCE AX*SR*T EXPECTS TO FIND THE SINES AND
000046:                                                                                                  #  COSINES IN THE ORDER Y Z X THE ANGLES MUST HAVE BEEN PLACED IN CDUSPOT
000047:                                                                                                  #  IN THIS ORDER.  CD*TR*GS NEED NOT BE REPEATED WHEN AX*SR*T IS CALLED
000048:                                                                                                  #  MORE THAN ONCE, PROVIDED THE ANGLES HAVE NOT CHANGED.  NOTE THAT SINCE
000049:                                                                                                  #  IT CLOBBERS BUF2 (IN THE SINE AND COSINE ROUTINES) CD*TR*GS CANNOT BE
000050:                                                                                                  #  CALLED USING BANKCALL.  SORRY.
000051:
000052:                                                                                                  #  CD*TR*G IS LIKE CD*TR*GS EXCEPT THAT IT CAN BE CALLED IN
000053:                                                                                                  #  INTERPRETIVE.
000054:
000055: 23,3471           77776        CDUTRIG            EXIT
000056: 23,3472           03501                           TC       CDUTRIGS
000057: 23,3473           06006                           TC       INTPRET
000058: 23,3474           77616                           RVQ
000059:
000060: 23,3475           77776        CD*TR*G            EXIT
000061: 23,3476           03507                           TC       CD*TR*GS
000062: 23,3477           06006                           TC       INTPRET
000063: 23,3500           77616                           RVQ
000064:
000065: 23,3501           30032        CDUTRIGS           CA       CDUX
000066: 23,3502           55165                           TS       CDUSPOT    +4
000067: 23,3503           30033                           CA       CDUY
000068: 23,3504           55161                           TS       CDUSPOT
000069: 23,3505           30034                           CA       CDUZ
000070: 23,3506           55163                           TS       CDUSPOT    +2
000071:
000072: 23,3507           00006        CD*TR*GS           EXTEND
000073: 23,3510           22142                           QXCH     TEM2
000074: 23,3511           34777                           CAF      FOUR
000075: 23,3512           76211        TR*GL**P           MASK     SIX                                   #  MAKE IT EVEN AND SMALLER
000076: 23,3513           54143                           TS       TEM3
000077: 23,3514           50143                           INDEX    TEM3
000078: 23,3515           31161                           CA       CDUSPOT
000079: 23,3516           52155                           DXCH     MPAC                                  #  STORING 2'S COMP ANGLE, LOADING MPAC
000080: 23,3517           52127                           DXCH     VBUF       +4                         #  STORING MPAC FOR LATER RESTORATION
000081: 23,3520           04744                           TC       USPRCADR
000082: 23,3521           45566                           CADR     CDULOGIC
000083: 23,3522           00006                           EXTEND
000084: 23,3523           30155                           DCA      MPAC
000085: 23,3524           50143                           INDEX    TEM3
000086: 23,3525           53162                           DXCH     CDUSPOT                               #  STORING 1'S COMPLEMENT ANGLE
000087: 23,3526           04744                           TC       USPRCADR
000088: 23,3527           01514                           CADR     COSINE
000089: 23,3530           52155                           DXCH     MPAC
000090: 23,3531           50143                           INDEX    TEM3
000091: 23,3532           53140                           DXCH     COSCDU                                #  STORING COSINE
000092: 23,3533           00006                           EXTEND
000093: 23,3534           50143                           INDEX    TEM3
000094: 23,3535           31162                           DCA      CDUSPOT                               #  LOADING 1'S COMPLEMENT ANGLE
000095: 23,3536           04744                           TC       USPRCADR
000096: 23,3537           01526                           CADR     SINE       +1                         #  SINE +1 EXPECTS ARGUMENT IN A AND L
000097: 23,3540           52127                           DXCH     VBUF       +4                         #  BRINGING UP PRIOR MPAC TO BE RESTORED
000098: 23,3541           52155                           DXCH     MPAC
000099: 23,3542           50143                           INDEX    TEM3
000100: 23,3543           53132                           DXCH     SINCDU
000101: 23,3544           10143                           CCS      TEM3
000102: 23,3545           13512                           TCF      TR*GL**P
000103: 23,3546           00142                           TC       TEM2
000104:
000105:
000106:                                                                                                  #  ****************************************************************************************************************
000107:
000108:                                                                                                  #  QUICTRIG, INTENDED FOR GUIDANCE CYCLE USE WHERE TIME IS CRITICAL, IS A MUCH FASTER VERSION OF CD*TR*GS.
000109:                                                                                                  #  QUICTRIG COMPUTES AND STORES THE SINES AND COSINES OF THE 2'S COMPLEMENT ANGLES AT CDUSPOT, CDUSPOT +2,
000110:                                                                                                  #  AND CDUSPOT +4.  UNLIKE CD*TR*GS, QUICTRIG DOES NOT LEAVE THE 1'S COMPLEMENT VERSIONS OF THE ANGLES IN
000111:                                                                                                  #  CDUSPOT.  QUICTRIG'S EXECUTION TIME IS 4.1 MS;    THIS IS 10 TIMES AS FAST AS CD*TR*GS.    QUICTRIG MAY BE
000112:                                                                                                  #  CALLED FROM INTERPRETIVE AS AN RTB OP-CODE, OR FROM BASIC VIA BANKCALL OR IBNKCALL.
000113:
000114: 23,3547           00004        QUICTRIG           INHINT                                         #  INHINT SINCE DAP USES THE SAME TEMPS
000115: 23,3550           00006                           EXTEND
000116: 23,3551           22061                           QXCH     ITEMP1
000117: 23,3552           34777                           CAF      FOUR
000118: 23,3553           76211                 +4        MASK     SIX
000119: 23,3554           54062                           TS       ITEMP2
000120: 23,3555           50062                           INDEX    ITEMP2
000121: 23,3556           31161                           CA       CDUSPOT
000122: 23,3557           05074                           TC       SPSIN
000123: 23,3560           00006                           EXTEND
000124: 23,3561           74764                           MP       BIT14                                 #  SCALE DOWN TO MATCH INTERPRETER OUTPUTS
000125: 23,3562           50062                           INDEX    ITEMP2
000126: 23,3563           53132                           DXCH     SINCDU
000127: 23,3564           50062                           INDEX    ITEMP2
000128: 23,3565           31161                           CA       CDUSPOT
000129: 23,3566           05073                           TC       SPCOS
000130: 23,3567           00006                           EXTEND
000131: 23,3570           74764                           MP       BIT14
000132: 23,3571           50062                           INDEX    ITEMP2
000133: 23,3572           53140                           DXCH     COSCDU
000134: 23,3573           10062                           CCS      ITEMP2
000135: 23,3574           13553                           TCF      QUICTRIG   +4
000136: 23,3575           30061                           CA       ITEMP1
000137: 23,3576           00003                           RELINT
000138: 23,3577           00000                           TC       A
000139:
000140:
000141:                                                                                                  #  ****************************************************************************************************************
000142:
000143:                                                                                                  #  THESE INTERFACE ROUTINES MAKE IT POSSIBLE TO CALL AX*SR*T, ETC., IN
000144:                                                                                                  #  INTERPRETIVE.  LATER, WHERE POSSIBLE, THEY WILL BE ELIMINATED.
000145:
000146:                                                                                                  #  THESE INTERFACE ROUTINES ARE PERMANENT.  ALL RESTORE USER'S EBANK
000147:                                                                                                  #  SETTING.  ALL ARE STRICT INTERPRETIVE SUBROUTINES, CALLED USING "CALL",
000148:                                                                                                  #  RETURNING VIA QPRET.  ALL EXPECT AND RETURN THE VECTOR TO BE TRANSFOR-
000149:                                                                                                  #  MED INTERPRETER-STYLE IN MPAC; COMPONENTS AT MPAC, MPAC +3, AND MPAC +5.
000150:
000151:                                                                                                  #  TRG*SMNB AND TRG*NBSM BOTH EXPECT TO SEE THE 2'S COMPLEMENT ANGLES
000152:                                                                                                  #  AT CDUSPOT (ORDER Y Z X, AT CDUSPOT, CDUSPOT +2, AND CDUSPOT +4; ODD
000153:                                                                                                  #  LOCATIONS NEED NOT BE ZEROED).  TRG*NBSM DOES THE NB TO SM TRANSFOR-
000154:                                                                                                  #  MATION;  TRG*SMNB, VICE VERSA.
000155:
000156:                                                                                                  #  CDU*NBSM DOES ITS TRANSFORMATION USING THE PRESENT CONTENTS OF
000157:                                                                                                  #  THE CDU COUNTERS.  OTHERWISE IT IS LIKE TRG*NBSM.
000158:
000159:                                                                                                  #  CDU*SMNB IS THE COMPLEMENT OF CDU*NBSM.
000160:
000161: 23,3600           77776        CDU*SMNB           EXIT
000162: 23,3601           03501                           TC       CDUTRIGS
000163: 23,3602           13605                           TCF      C*MM*N1
000164:
000165: 23,3603           77776        TRG*SMNB           EXIT
000166: 23,3604           03507                           TC       CD*TR*GS
000167: 23,3605           07466        C*MM*N1            TC       MPACVBUF                              #  AX*SR*T EXPECTS VECTOR IN VBUF
000168: 23,3606           46214                           CS       THREE                                 #  SIGNAL FOR SM TO NB TRANSFORMATION
000169: 23,3607           03627        C*MM*N2            TC       AX*SR*T
000170: 23,3610           06006                           TC       INTPRET
000171: 23,3611           43575                           VLOAD    RVQ
000172: 23,3612           00123                                    VBUF
000173:
000174: 23,3613           77776        CDU*NBSM           EXIT
000175: 23,3614           03501                           TC       CDUTRIGS
000176: 23,3615           13620                           TCF      C*MM*N3
000177:
000178: 23,3616           77776        TRG*NBSM           EXIT
000179: 23,3617           03507                           TC       CD*TR*GS
000180: 23,3620           07466        C*MM*N3            TC       MPACVBUF                              #  FOR AX*SR*T
000181: 23,3621           36214                           CA       THREE                                 #  SIGNAL FOR NB TO SM TRANSFORMATION
000182: 23,3622           13607                           TCF      C*MM*N2
000183:
000184:                                                                                                  #  *NBSM* AND *SMNB* EXPECT TO SEE THE SINES AND COSINES (AT SINCDU
000185:                                                                                                  #  AND COSCDU) RATHER THAN THE ANGLES THEMSELVES.  OTHERWISE THEY ARE
000186:                                                                                                  #  LIKE TRG*NBSM AND TRG*SMNB.
000187:
000188:                                                                                                  #  NOTE THAT JUST AS CD*TR*GS NEED BE CALLED ONLY ONCE FOR EACH SERIES
000189:                                                                                                  #  OF TRANSFORMATIONS USING THE SAME ANGLES, SO TOO ONLY ONE OF TRG*NBSM
000190:                                                                                                  #  AND TRG*SMNB NEED BE CALLED FOR EACH SERIES.  FOR SUBSEQUENT TRANSFOR-
000191:                                                                                                  #  MATIONS USE *NBSM* AND *SMNB*.
000192:
000193: 23,3623           77776        *SMNB*             EXIT
000194: 23,3624           13605                           TCF      C*MM*N1
000195:
000196: 23,3625           77776        *NBSM*             EXIT
000197: 23,3626           13620                           TCF      C*MM*N3
000198:
000199:                                                                                                  #  AX*SR*T COMBINES THE OLD SMNB AND NBSM.  FOR THE NB TO SM
000200:                                                                                                  #  TRANSFORMATION, ENTER WITH +3 IN A.  FOR SM TO NB, ENTER WITH -3.
000201:                                                                                                  #  THE VECTOR TO BE TRANSFORMED ARRIVES, AND IS RETURNED, IN VBUF.
000202:                                                                                                  #  AX*SR*T EXPECTS TO FIND THE SINES AND COSINES OF THE ANGLES OF ROTATION
000203:                                                                                                  #  AT SINCDU AND COSCDU, IN THE ORDER Y Z X.  A CALL TO CD*TR*GS, WITH
000204:                                                                                                  #  THE 2'S COMPLEMENT ANGLES (ORDER Y Z X) AT CDUSPOT, WILL TAKE CARE OF
000205:                                                                                                  #  THIS.  HERE IS A SAMPLE CALLING SEQUENCE:-
000206:
000207:                                                                                                  #                TC      CDUTRIGS
000208:                                                                                                  #                CS      THREE           ("CA THREE" FOR NBSM)
000209:                                                                                                  #                TC      AX*SR*T
000210:
000211:                                                                                                  #  THE CALL TO CD*TR*GS NEED NOT BE REPEATED, WHEN AX*SR*T IS CALLED MORE
000212:                                                                                                  #  THAN ONCE, UNLESS THE ANGLES HAVE CHANGED.
000213:
000214:                                                                                                  #  AX*SR*T IS GUARANTEED SAFE ONLY FOR VECTORS OF MAGNITUDE LESS THAN
000215:                                                                                                  #  UNITY.  A LOOK AT THE CASE IN WHICH A VECTOR OF GREATER MAGNITUDE
000216:                                                                                                  #  HAPPENS TO LIE ALONG AN AXIS OF THE SYSTEM TO WHICH IT IS TO BE TRANS-
000217:                                                                                                  #  FORMED CONVINCES ONE THAT THIS IS A RESTRICTION WHICH MUST BE ACCEPTED.
000218:
000219: 23,3627           54142        AX*SR*T            TS       DEXDEX                                #  WHERE IT BECOMES THE INDEX OF INDEXES
000220: 23,3630           00006                           EXTEND
000221: 23,3631           22145                           QXCH     RTNSAVER
000222:
000223: 23,3632           10142        R*TL**P            CCS      DEXDEX                                #                +3 --> 0        -3 --> 2
000224: 23,3633           40142                           CS       DEXDEX                                #  THUS:         +2 --> 1        -2 --> 1
000225: 23,3634           66214                           AD       THREE                                 #                +1 --> 2        -1 --> 0
000226: 23,3635           00006                           EXTEND
000227: 23,3636           50000                           INDEX    A
000228: 23,3637           33716                           DCA      INDEXI
000229: 23,3640           52144                           DXCH     DEXI
000230:
000231: 23,3641           35001                           CA       ONE
000232: 23,3642           54130                           TS       BUF
000233: 23,3643           00006                           EXTEND
000234: 23,3644           50143                           INDEX    DEX1
000235: 23,3645           40123                           DCS      VBUF
000236: 23,3646           13650                           TCF      LOOP1                                 #  REALLY BE A SUBTRACT, AND VICE VERSA
000237:
000238: 23,3647           52131        LOOP2              DXCH     BUF                                   #  LOADING VECTOR COMPONENT, STORING INDEX
000239:
000240: 23,3650           52155        LOOP1              DXCH     MPAC
000241: 23,3651           33714                           CA       SINESLOC
000242: 23,3652           60143                           AD       DEX1
000243: 23,3653           54116                           TS       ADDRWD
000244:
000245: 23,3654           07056                           TC       DMPSUB                                #  MULTIPLY BY SIN(CDUANGLE)
000246: 23,3655           10142                           CCS      DEXDEX
000247: 23,3656           52155                           DXCH     MPAC                                  #  NBSM CASE
000248: 23,3657           13662                           TCF      +3
000249: 23,3660           00006                           EXTEND                                         #  SMNB CASE
000250: 23,3661           40155                           DCS      MPAC
000251: 23,3662           52134                           DXCH     TERM1TMP
000252:
000253: 23,3663           36211                           CA       SIX                                   #  SINCDU AND COSCDU (EACH 6 WORDS) MUST
000254: 23,3664           26116                           ADS      ADDRWD                                #        BE CONSECUTIVE AND IN THAT ORDER
000255:
000256: 23,3665           00006                           EXTEND
000257: 23,3666           50130                           INDEX    BUF
000258: 23,3667           50143                           INDEX    DEX1
000259: 23,3670           30123                           DCA      VBUF
000260: 23,3671           52155                           DXCH     MPAC
000261: 23,3672           07056                           TC       DMPSUB                                #  MULTIPLY BY COS(CDUANGLE)
000262: 23,3673           52155                           DXCH     MPAC
000263: 23,3674           20134                           DAS      TERM1TMP
000264: 23,3675           52134                           DXCH     TERM1TMP
000265: 23,3676           20001                           DDOUBL
000266: 23,3677           50130                           INDEX    BUF
000267: 23,3700           50143                           INDEX    DEX1
000268: 23,3701           52123                           DXCH     VBUF
000269: 23,3702           52131                           DXCH     BUF                                   #  LOADING INDEX, STORING VECTOR COMPONENT
000270:
000271: 23,3703           10000                           CCS      A                                     #  'CAUSE THAT'S WHERE THE INDEX NOW IS
000272: 23,3704           13647                           TCF      LOOP2
000273:
000274: 23,3705           00006                           EXTEND
000275: 23,3706           26142                           DIM      DEXDEX                                #  DECREMENT MAGNITUDE PRESERVING SIGN
000276:
000277: 23,3707           10142        TSTPOINT           CCS      DEXDEX                                #  ONLY THE BRANCHING FUNCTION IS USED
000278: 23,3710           13632                           TCF      R*TL**P
000279: 23,3711           00145                           TC       RTNSAVER
000280: 23,3712           13632                           TCF      R*TL**P
000281: 23,3713           00145                           TC       RTNSAVER
000282:
000283: 23,3714           01131        SINESLOC           ADRES    SINCDU                                #  FOR USE IN SETTING ADDRWD
000284:
000285: 23,3715           00004        INDEXI             DEC      4          B-14                       #  **********   DON'T   **********
000286: 23,3716           00002                           DEC      2          B-14                       #  **********   TOUCH   **********
000287: 23,3717           00000                           DEC      0          B-14                       #  **********   THESE   **********
000288: 23,3720           00004                           DEC      4          B-14                       #  ********** CONSTANTS **********
000289:
000290:                                                                                                  #  ****************************************************************************************************************
000291:
000292:
000293:                                                                                                  #  THIS SUBROUTINE COMPUTES INCREMENTAL CHANGES IN CDU(GIMBAL) ANGLES FROM INCREMENTAL CHANGES ABOUT SM AXES. IT
000294:                                                                                                  #  REQUIRES SM INCREMENTS AS A DP VECTOR SCALED AT ONE REVOLUTION(DTHETASM,+2,+4).  SIN,COS(CDUY,Z,X) ARE IN
000295:                                                                                                  #  SINCDU,+2,+4 AND COSCDU,+2,+4 RESPECTIVELY, SCALED TO ONE HALF. CDU INCREENTS ARE PLACED IN DCDU,+2,+4 SCALED TO
000296:                                                                                                  #  ONE REVOLUTION.
000297:
000298:                                                                                                  #        *  COS(IGA)SEC(MGA)             0               -SIN(IGA)SEC(MGA) *
000299:                                                                                                  #        *                                                                 *
000300:                                                                                                  #        * -COS(IGA)TAN(MGA)             1                SIN(IGA)TAN(MGA) *
000301:                                                                                                  #        *                                                                 *
000302:                                                                                                  #        *      SIN(IGA)                 0                    COS(IGA)     *
000303:
000304: 23,2000                                           SETLOC   POWFLIT1
000305: 23,2000                                           BANK
000306: 23,3721                                           COUNT*   $$/POWFL
000307: 23,3721           41345        SMCDURES           DLOAD    DMP
000308: 23,3722           03243                                    DTHETASM
000309: 23,3723           01140                                    COSCDUY
000310:
000311: 23,3724           41325                           PDDL     DMP
000312: 23,3725           03247                                    DTHETASM   +4
000313: 23,3726           01132                                    SINCDUY
000314:
000315: 23,3727           77621                           BDSU
000316: 23,3730           77671                           DDV
000317: 23,3731           01142                                    COSCDUZ
000318: 23,3732           03235                           STORE    DCDU
000319:
000320: 23,3733           72405                           DMP      SL1                                   #  SCALE
000321: 23,3734           01134                                    SINCDUZ
000322: 23,3735           77621                           BDSU
000323:
000324: 23,3736           03245                                    DTHETASM   +2
000325: 23,3737           17237                           STODL    DCDU       +2
000326: 23,3740           03243                                    DTHETASM
000327:
000328: 23,3741           65205                           DMP      PDDL
000329: 23,3742           01132                                    SINCDUY
000330: 23,3743           03247                                    DTHETASM   +4
000331:
000332: 23,3744           43205                           DMP      DAD
000333: 23,3745           01140                                    COSCDUY
000334: 23,3746           77752                           SL1
000335: 23,3747           03241                           STORE    DCDU       +4
000336: 23,3750           77616                           RVQ

End of include-file POWERED_FLIGHT_SUBROUTINES.agc.  Parent file is MAIN.agc


