
Source Code


000002:                                                                                                  ## Copyright:   Public domain.
000003:                                                                                                  ## Filename:    R30.agc
000004:                                                                                                  ## Purpose:     A section of Skylark revision 048.
000005:                                                                                                  ##              It is part of the source code for the Apollo Guidance Computer (AGC)
000006:                                                                                                  ##              for Skylab-2, Skylab-3, Skylab-4, and ASTP. No original listings of
000007:                                                                                                  ##              this software are available; instead, this file was created via
000008:                                                                                                  ##              disassembly of dumps of the core rope modules actually flown on
000009:                                                                                                  ##              Skylab-2. Access to these modules was provided by the New Mexico
000010:                                                                                                  ##              Museum of Space History.
000011:                                                                                                  ## Assembler:   yaYUL
000012:                                                                                                  ## Contact:     Ron Burkey <info@sandroid.org>.
000013:                                                                                                  ## Website:     www.ibiblio.org/apollo/index.html
000014:                                                                                                  ## Mod history: 2023-09-04 MAS  Created from Artemis 072.
000015:                                                                                                  ##              2024-03-05 MAS  Updated for Skylark 48.
000016:
000017:                                                                                                  #  SUBROUTINE NAME:  V82CALL
000018:                                                                                                  #  MOD NO:  0                                                            DATE:           16 FEB 67
000019:                                                                                                  #  MOD BY:  RR BAIRNSFATHER                                              LOG SECTION:    R30
000020:                                                                                                  #  MOD NO: 1             MOD BY: RR BAIRNSFATHER         DATE: 11 APR 67         SR30.1 CHANGED TO ALLOW MONITOR OPERN
000021:                                                                                                  #  MOD  NO: 2            MOD  BY ALONSO                  DATE : 11 DEC 67        VB82 PROGRAM REWRITTEN
000022:                                                                                                  #  MOD NO: 3             MOD  BY ALONSO                  DATE: 26 MAR 68         PROG MOD TO HANDLE DIF EARTH/MOON SCALE
000023:                                                                                                  #  MOD NO- 4             MOD  BY CROCKER                 DATE- 27 AUG 69         PROG MOD FOR TIME OPTION.
000024:                                                                                                  #   NEW FUNCTIONAL DESCRIPTION-     CALLED BY VERB 82 ENTER.  PRIORITY 7
000025:                                                                                                  #     USED THROUGHOUT.              CALCULATE AND DISPLAY ORBITAL PARAMETERS
000026:
000027:                                                                                                  #  1. IF AVERAGE G IS OFF:
000028:                                                                                                  #          FLASH DISPLAY V04N12. R2 INDICATES WHICH SHIP'S STATE VECTOR IS
000029:                                                                                                  #           TO BE UPDATED. INITIAL CHOICE IS THIS SHIP (R2=1). ASTRONAUT
000030:                                                                                                  #           CAN CHANGE TO OTHER SHIP BY V22EXE, WHERE X NOT EQ 1.
000031:                                                                                                  #           FLASH DISPLAY TIME V06N16. INITIAL CHOICE = 0 = PRESENT TIME.
000032:                                                                                                  #           ASTRONAUT CAN INSERT A TIME BY V25E, R1=HR R2=MIN R3=CSEC.
000033:                                                                                                  #           CHOSEN STATE VECTOR UPDATED TO CHOSEN TIME BY THISPREC/OTHPREC
000034:                                                                                                  #          CALLS SR30.1 (WHICH CALLS TFFCONMU + TFFRP/RA) TO CALCULATE
000035:                                                                                                  #           RPER (PERIGEE RADIUS), RAPO (APOGEE RADIUS), HPER (PERIGEE
000036:                                                                                                  #           HEIGHT ABOVE LAUNCH PAD OR LUNAR LANDING SITE), HAPO (APOGEE
000037:                                                                                                  #           HEIGHT AS ABOVE), TPER (TIME TO PERIGEE), TFF (TIME TO
000038:                                                                                                  #           INTERSECT 300 KFT ABOVE PAD OR 35KFT ABOVE LANDING SITE).
000039:                                                                                                  #          FLASH MONITOR V16N44 (HAPO, HPER, TFF).TFF IS -59M59S IF IT WAS
000040:                                                                                                  #           NOT COMPUTABLE, OTHERWISE IT INCREMENTS ONCE PER SECOND.
000041:                                                                                                  #           IF P00 IS RUNNING, CALL DELRSPL SPLASH ERROR COMPUTATION.
000042:                                                                                                  #           ASTRONAUT HAS OPTION TO MONITOR TPER BY KEYING IN N 32 E.
000043:                                                                                                  #           DISPLAY IS IN HMS, IS NEGATIVE (AS WAS TFF), AND INCREMENTS
000044:                                                                                                  #           ONCE PER SECOND ONLY IF TFF DISPLAY WAS -59M59S.
000045:
000046:                                                                                                  #  2. IF AVERAGE G IS ON:
000047:                                                                                                  #          CALLS SR30.1 APPROX EVERY TWO SECS.  STATE VECTOR IS ALWAYS
000048:                                                                                                  #           FOR THIS VEHICLE. V82 DOES NOT DISTURB STATE VECTOR.  RESULTS
000049:                                                                                                  #           OF SR30.1 ARE RAPO, RPER, HAPO, HPER, TPER, TFF.
000050:                                                                                                  #          FLASH MONITOR V16N44 (HAPO, HPER, TFF).
000051:                                                                                                  #           IF MODE IS P11, THEN CALL DELRSPL SO ASTRONAUT CAN MONITOR
000052:                                                                                                  #           RESULTS BY N50E. SPLASH COMPUTATION DONE ONCE PER TWO SECS.
000053:
000054:
000055:                                                                                                  #  ADDENDUM: HAPO AND HPER SHOULD BE CHANGED TO READ HAPOX AND HPERX IN THE
000056:                                                                                                  #            ABOVE REMARKS.
000057:
000058:                                                                                                  #  CALLING SEQUENCE:  VERB 82 ENTER.
000059:
000060:
000061:                                                                                                  #  SUBROUTINES CALLED:   SR30.1, GOXDSPF
000062:                                                                                                  #                        MAYBE - THISPREC, OTHPREC, LOADTIME, DELRSPL,
000063:                                                                                                  #                                VEHOPT, TIMEOPT
000064:                                                                                                  #  NORMAL EXIT MODES:  TC ENDEXT
000065:
000066:                                                                                                  #  ALARMS:  NONE
000067:
000068:                                                                                                  #  OUTPUT:  HAPOX    (-29) M
000069:                                                                                                  #           HPERX    (-29) M
000070:                                                                                                  #           RAPO     (-29) M EARTH
000071:                                                                                                  #                    (-27) M MOON
000072:                                                                                                  #           RPER     (-29) M EARTH
000073:                                                                                                  #                    (-27) M MOON
000074:                                                                                                  #           TFF      (-28) CS      CONTAINS NEGATIVE QUANTITY
000075:                                                                                                  #           -TPER    (-28) CS      CONTAINS NEGATIVE QUANTITY
000076:                                                                                                  #           RSP-RREC (-29) M       IF DELRSPL CALLED
000077:
000078:                                                                                                  #  ERASABLE INITIALIZATION REQUIRED: STATE VECTOR.
000079:
000080:                                                                                                  #  DEBRIS:  QPRET, RONE, VONE, TFF/RTMU, HPERMIN, RPADTEM.
000081:                                                                                                  #           MAYBE:  TSTART82, V82FLAGS, TDEC1.
000082:
000083:
000084: 05,3311  E4,1603                                  EBANK=   HAPOX
000085: 05,3311  40,2000                                  SBANK=   PINSUPER
000086: 23,2000                                           SETLOC   R30LOC
000087: 23,2000                                           BANK
000088: 23,2434                                           COUNT*   $$/R30
000089:
000090: 23,2434           06006        V82CALL            TC       INTPRET
000091: 23,2435           45014                           BON      CALL
000092: 23,2436           00716                                    AVEGFLAG
000093: 23,2437           46642                                    V82GON                                #  IF AVERAGE G ON
000094: 23,2440           46414                                    VEHOPT                                #  IF OFF, ALLOW VEHICLE OPTION
000095: 23,2441           77776                           EXIT
000096: 23,2442           34776                           CAF      BIT4                                  #  80 MS
000097: 23,2443           05246                           TC       WAITLIST
000098: 23,2444  E4,1525                                  EBANK=   TFF
000099: 23,2444           02605 46104                     2CADR    TICKTEST
000100: 23,2446           00003                           RELINT
000101: 23,2447  30,2000                                  SBANK=   LOWSUPER
000102: 23,2447           32476        V82GOFLP           CAF      TFFBANK                               #  MAJOR RECYCLE LOOP ENTRY
000103: 23,2450           54003                           TS       EBANK
000104: 23,2451           35003                           CAF      ZERO
000105: 23,2452           55555                           TS       V82FLAGS                              #  ZERO FLAGS FOR TICKTEST. INHIBITS
000106:                                                                                                  #  DECREMENTING OF TFF AND -TPER.
000107: 23,2453           35063                           CAF      PRIO7
000108: 23,2454           05150                           TC       FINDVAC                               #  V82GOFF1 WILL EXECUTE STATE VECTOR
000109: 23,2455  E4,1525                                  EBANK=   TFF                                   #  UPDATE AND ORBIT CALCULATIONS FOR
000110: 23,2455           02477 46064                     2CADR    V82GOFF1                              #  SELECTED VEHICLE ABOUT PROPER BODY.
000111: 23,2457           00003                           RELINT
000112: 23,2460           36214        V82STALL           CAF      THREE                                 #  STALL IN THIS LOOP AND WITHOLD V 16 N 44
000113: 23,2461           71555                           MASK     V82FLAGS                              #  UNTIL STATE VECTOR UPDATE SETS ONE OF
000114: 23,2462           10000                           CCS      A                                     #  OUR FLAG BITS.
000115: 23,2463           02467                           TC       FLAGGON                               #  EXIT FROM STALL LOOP.
000116: 23,2464           04647                           TC       BANKCALL
000117: 23,2465           01730                           CADR     1SECDELY
000118: 23,2466           02460                           TC       V82STALL
000119:
000120: 23,2467           32475        FLAGGON            CAF      V16N44                                #  MONITOR HAPO,HPER,TFF.
000121: 23,2470           04647                           TC       BANKCALL
000122: 23,2471           20456                           CADR     GOXDSPF
000123: 23,2472           05601                           TC       B5OFF                                 #  TERM THIS TELLS TICKTEST TO KILL ITSELF
000124: 23,2473           05601                           TC       B5OFF                                 #  PROCEED  DITTO
000125: 23,2474           02447                           TC       V82GOFLP                              #  RECYCLE  RECOMPUTE STATE VECT + DISPLAY
000126:
000127: 23,2475           04054        V16N44             VN       1644
000128: 23,2476           02125        TFFBANK            ECADR    TFF
000129:
000130:
000131: 23,2477           06006        V82GOFF1           TC       INTPRET
000132: 23,2500           45145                           DLOAD    CALL
000133: 23,2501           15204                                    ZEROVECS                              #  INITIAL TIME = 0 = PRES. TIME
000134: 23,2502           46523                                    TIMEOPT                               #  ALLOW TIME SELECTION
000135: 23,2503           16202                           STODL    TSTART82                              #  TIME FOR INTERNAL USE (=TDEC1 TIME)
000136: 23,2504           01247                                    OPTIONEV
000137: 23,2505           46142                           SR1      BHIZ
000138: 23,2506           46517                                    THISSHIP
000139: 23,2507           77624                           CALL                                           #  CALL STATE VECTOR UPDATE FOR OTHER SHIP.
000140: 23,2510           11414                                    OTHPREC
000141: 23,2511           77775        BOTHSHIP           VLOAD                                          #  MOVE RESULTS INTO TFFCONIC STORAGE AREAS
000142: 23,2512           00001                                    RATT                                  #   TO BE CALLED BY SR30.1.
000143: 23,2513           26210                           STOVL    RONE                                  #  RATT AT (-29)M FOR EARTH OR MOON
000144: 23,2514           00007                                    VATT
000145: 23,2515           36216                           STCALL   VONE
000146: 23,2516           46552                                    EARTHPAD
000147: 23,2517           77624        THISSHIP           CALL                                           #  CALL STATE VECTOR UPDATE FOR THIS SHIP.
000148: 23,2520           11400                                    THISPREC
000149: 23,2521           77650                           GOTO
000150: 23,2522           46511                                    BOTHSHIP
000151:
000152: 23,2523           01245        TIMEOPT            STORE    DSPTEMX
000153: 23,2524           77420                 +1        STQ      EXIT
000154: 23,2525           00734                                    VEHRET
000155: 23,2526           32545                           CAF      V06N16X
000156: 23,2527           04647                           TC       BANKCALL
000157: 23,2530           20456                           CADR     GOXDSPF
000158: 23,2531           05537                           TC       ENDEXT
000159: 23,2532           02534                           TC       +2
000160: 23,2533           02526                           TC       -5
000161: 23,2534           06006                           TC       INTPRET
000162: 23,2535           53145                           DLOAD    BZE
000163: 23,2536           01245                                    DSPTEMX
000164: 23,2537           46542                                    GETNOW
000165: 23,2540           34041        STRTDEC1           STCALL   TDEC1
000166: 23,2541           00734                                    VEHRET
000167: 23,2542           52034        GETNOW             RTB      GOTO
000168: 23,2543           45563                                    LOADTIME
000169: 23,2544           46540                                    STRTDEC1
000170: 23,2545           01420        V06N16X            VN       0616
000171:                                                                                                  #  THE FOLLOWING CONSTANTS ARE PAIRWISE INDEXED. DO NOT SEPARATE PAIRS.
000172:
000173: 23,2546           25004 06702  1/RTMUE            2DEC*    .50087529  E-5        B17*
000174:
000175: 23,2550           00002 31230  MINPERE            2DEC     91440      B-29                       #  300 KFT (-29)M FOR EARTH
000176:
000177: 23,2552           77624        EARTHPAD           CALL
000178: 23,2553           46716                                    SR30.1                                #  CALCULATE ORBITAL PARAMETERS
000179: 23,2554           46135                           SLOAD    BHIZ
000180: 23,2555           01205                                    MODREG                                #  ARE WE IN POO
000181: 23,2556           46676                                    CANDEL                                #  YES, DO DELRSPL
000182: 23,2557           45234        SPLRET1            RTB      DSU
000183: 23,2560           45563                                    LOADTIME
000184: 23,2561           02202                                    TSTART82                              #  PRESENT TIME - TIME V82GOFF1 BEGAN
000185: 23,2562           16202                           STODL    TSTART82                              #                 SAVE IT.
000186: 23,2563           02130                                    -TPER                                 #  SR30.1 SETS -TPER=0 IF HPER L/
000187: 23,2564           77654                           BZE                                            #   HPERMIN (300 OR 35) KFT.
000188: 23,2565           46575                                    TICKTFF                               #  (-TPER = 0)
000189: 23,2566           43345        TICKTPER           DLOAD    DAD                                   #  (-TPER NON ZERO)  TFF WAS NOT COMPUTED,
000190: 23,2567           02130                                    -TPER                                 #  BUT WAS SET TO 59M59S.DONT TICK TFF, DO
000191: 23,2570           02202                                    TSTART82                              #  TICK -TPER. DISPLAY BOTH.
000192: 23,2571           02130                           STORE    -TPER                                 #  -TPER CORRECTED FOR TIME SINCE V82GOFF1
000193: 23,2572           77776                           EXIT                                           #  BEGAN.
000194: 23,2573           35001                           CAF      BIT1                                  #  INFORMS TICKTEST TO INCREMENT ONLY -TPER
000195: 23,2574           02603                           TC       TICKTFF    +6
000196: 23,2575           43345        TICKTFF            DLOAD    DAD                                   #  (-TPER=0)  TFF WAS COMPUTED.TICK TFF.
000197: 23,2576           02126                                    TFF                                   #  DO NOT TICK -TPER.DISPLAY TFF, BUT NOT
000198: 23,2577           02202                                    TSTART82                              #  -TPER.
000199: 23,2600           02126                           STORE    TFF                                   #  TFF CORRECTED FOR TIME SINCE V82GOFF1
000200: 23,2601           77776                           EXIT                                           #  BEGAN.
000201: 23,2602           35000                           CAF      BIT2
000202: 23,2603           55555                 +6        TS       V82FLAGS                              #  INFORMS TICKTEST TO INCREMENT ONLY TFF.
000203: 23,2604           05220                           TC       ENDOFJOB
000204: 23,2605           34775        TICKTEST           CAF      BIT5                                  #  THIS WAITLIST PROGRAM PERPETUATES ITSELF
000205: 23,2606           71237                           MASK     EXTVBACT                              #  ONCE A SEC UNTIL BIT 5 OF EXTVBACT =0.
000206: 23,2607           10000                           CCS      A
000207: 23,2610           02616                           TC       DOTICK
000208: 23,2611           37647                           CAF      PRIO25
000209: 23,2612           05134                           TC       NOVAC                                 #  TERMINATE V 82.CANT CALL ENDEXT IN RUPT.
000210: 23,2613     1237                                  EBANK=   EXTVBACT
000211: 23,2613           05537 04062                     2CADR    ENDEXT
000212:
000213: 23,2615           05327                           TC       TASKOVER
000214: 23,2616           35030        DOTICK             CAF      1SEC                                  #  RE-REQUEST TICKTEST.
000215: 23,2617           05246                           TC       WAITLIST
000216: 23,2620  E4,1525                                  EBANK=   TFF
000217: 23,2620           02605 46064                     2CADR    TICKTEST
000218:
000219: 23,2622           36214                           CAF      THREE
000220: 23,2623           71555                           MASK     V82FLAGS
000221: 23,2624           50000                           INDEX    A
000222: 23,2625           02626                           TC       +1
000223: 23,2626           05327                           TC       TASKOVER                              #  IF NO FLAGBITS SET DONT CHANGE TFF OR
000224:                                                                                                  #  -TPER, BUT CONTINUE LOOP.
000225: 23,2627           02635                           TC       TPERTICK                              #  ONLY BIT 1 SET. INCR -TPER BY 1 SEC.
000226: 23,2630           35030        TFFTICK            CAF      1SEC                                  #  ONLY BIT 2 SET. INCR TFF BY 1 SEC.
000227: 23,2631           54001                           TS       L
000228: 23,2632           35003                           CAF      ZERO
000229: 23,2633           21526                           DAS      TFF
000230: 23,2634           05327                           TC       TASKOVER
000231: 23,2635           35030        TPERTICK           CAF      1SEC
000232: 23,2636           54001                           TS       L
000233: 23,2637           35003                           CAF      ZERO
000234: 23,2640           21530                           DAS      -TPER
000235: 23,2641           05327                           TC       TASKOVER
000236: 23,2642           77776        V82GON             EXIT                                           #   AVERAGE G ON. USE CURRENT STATE VECTOR
000237:                                                                                                  #  FOR ORBITAL PARAMETER CALCULATIONS.
000238: 23,2643           35063                           CAF      PRIO7                                 #  LESS THAN LAMBERT
000239: 23,2644           05150                           TC       FINDVAC                               #  V82GON1 WILL PERFORM ORBIT CALCULATIONS
000240: 23,2645  E4,1525                                  EBANK=   TFF                                   #  ABOUT PROPER BODY APPROX ONCE PER SEC.
000241: 23,2645           02660 46064                     2CADR    V82GON1
000242:
000243: 23,2647           00003                           RELINT
000244: 23,2650           10067                           CCS      NEWJOB                                #  WITHOLD V16 N44 UNTIL FIRST ORBIT CALC
000245: 23,2651           05165                           TC       CHANG1                                #  IS DONE. NOTE:V82GON1 (PRIO7, FINDVAC
000246:                                                                                                  #  JOB) IS COMPLETED BEFORE V82GON (PRIO7,
000247:                                                                                                  #  NOVAC JOB).
000248: 23,2652           32475        V82REDSP           CAF      V16N44                                #  MONITOR HAPO, HPER, TFF
000249: 23,2653           04647                           TC       BANKCALL
000250: 23,2654           20456                           CADR     GOXDSPF
000251: 23,2655           05601                           TC       B5OFF                                 #  TERM THIS TELLS V82GON1 TO KILL ITSELF.
000252: 23,2656           05601                           TC       B5OFF                                 #  PROC DITTO.
000253: 23,2657           02652                           TC       V82REDSP                              #  RECYCLE
000254:
000255: 23,2660           06006        V82GON1            TC       INTPRET                               #  THIS EXEC PROGRAM PERPETUATES ITSELF
000256:                                                                                                  #  ONCE A SEC UNTIL BIT 5 OF EXTVBACT =0.
000257: 23,2661           52175                           VLOAD    GOTO                                  #  HOLDS OFF CCS NEWJOB BETWEEN RN AND
000258: 23,2662           01022                                    RN                                    #    VN FETCH SO RN , VN ARE FROM SAME
000259: 23,2663           46664                                    NEXTLINE                              #    STATE VECTOR UPDATE.
000260: 23,2664           26210        NEXTLINE           STOVL    RONE                                  #   RN AT (-29)M FOR EARTH OR MOON
000261: 23,2665           01030                                    VN
000262: 23,2666           02216                           STORE    VONE                                  #  VN AT (-7)M/CS FOR EARTH OR MOON
000263:
000264: 23,2667           77624        V82GON2            CALL
000265: 23,2670           46716                                    SR30.1
000266: 23,2671           77776                           EXIT
000267: 23,2672           05367                           TC       CHECKMM
000268: 23,2673           00013                           DEC      11         B-14
000269: 23,2674           02707                           TC       V82GON3                               #  NOT IN MODE 11.
000270: 23,2675           06006                           TC       INTPRET                               #  IN MODE 11 OR P00
000271: 23,2676           77624        CANDEL             CALL
000272: 23,2677           11720                                    INTSTALL                              #  DELRSPL DOES INTWAKE
000273: 23,2700           45145                           DLOAD    CALL
000274: 23,2701           02126                                    TFF
000275: 23,2702           74000                                    DELRSPL                               #  RETURN IS TO NEXT LINE ( SPLRET ).
000276: 23,2703           46135        SPLRET             SLOAD    BHIZ
000277: 23,2704           01205                                    MODREG
000278: 23,2705           46557                                    SPLRET1
000279: 23,2706           77776                           EXIT
000280: 23,2707           34775        V82GON3            CAF      BIT5
000281: 23,2710           71237                           MASK     EXTVBACT                              #  SEE IF ASTRONAUT HAS SIGNALLED TERMINATE
000282: 23,2711           00006                           EXTEND
000283: 23,2712           15537                           BZF      ENDEXT                                #  YES, TERMINATE VB 82 LOOP
000284: 23,2713           04647                           TC       BANKCALL                              #  WAIT ONE SECOND BEFORE REPEATING
000285: 23,2714           01730                           CADR     1SECDELY                              #     ORBITAL PARAMETER COMPUTATION.
000286: 23,2715           02660                           TC       V82GON1
000287:
000288:                                                                                                  #  SUBROUTINE NAME:      SR30.1
000289:                                                                                                  #  MOD NO:  0                                                                    DATE:           16 FEB 67
000290:                                                                                                  #  MOD BY:  RR BAIRNSFATHER                                                      LOG SECTION:    R32
000291:                                                                                                  #  MOD NO:  1            MOD BY:  RR BAIRNSFATHER        DATE: 11 APR 67         SR30.1 CHANGED TO ALLOW MONITOR OPERN
000292:                                                                                                  #  MOD NO:  2            MOD BY:  RR BAIRNSFATHER        DATE:  14 APR 67        ADD OVFL CK FOR RAPO
000293:                                                                                                  #  MOD NO:  3            MOD BY ALONSO                   DATE: 11 DEC 67         SUBROUTINE REWRITTEN
000294:                                                                                                  #  MOD NO: 4             MOD BY ALONSO                   DATE: 26 MAR 68         PROG MOD TO HANDLE DIF EARTH/MOON SCALE
000295:                                                                                                  #  MOD NO:  5            MOD BY:  RR BAIRNSFATHER        DATE:  6 AUG 68         OVFL CK FOR HAPO & HPER.VOIDS MOD #2.
000296:
000297:                                                                                                  #  NEW FUNCTIONAL DESCRIPTION:   ORBITAL PARAMETERS DISPLAY FOR NOUNS 32  AND 44.
000298:                                                                                                  #  SR30.1 CALLS TFFCONMU AND TFFRP/RA TO CALCULATE RPER (PERIGEE RADIUS),
000299:                                                                                                  #  RAPO (APOGEE RADIUS), HPER (PERIGEE HEIGHT ABOVE LAUNCH PAD OR LUNAR
000300:                                                                                                  #  LANDING SITE), HAPO (APOGEE HEIGHT AS ABOVE), TPER (TIME TO PERIGEE),
000301:                                                                                                  #  TFF (TIME TO INTERSECT 300 KFT ABOVE PAD OR 35KFT ABOVE LANDING SITE).
000302:                                                                                                  #  IF HPER IS GREATER THAN OR EQUAL TO HPERMIN, CALCULATES TPER AND STORES
000303:                                                                                                  #  NEGATIVE    IN -TPER. OTHERWISE STORES +0 IN -TPER. WHENEVER TPER IS
000304:                                                                                                  #  CALCULATED, TFF IS NOT COMPUTABLE AND DEFAULTS TO -59MIN 59SEC. IF HAPO
000305:                                                                                                  #  WOULD EXCEED 9999.9 NM, IT IS LIMITED TO THAT VALUE FOR DISPLAY.
000306:
000307:                                                                                                  #  ADDENDUM: HAPO AND HPER SHOULD BE CHANGED TO READ HAPOX AND HPERX IN THE
000308:                                                                                                  #            ABOVE REMARKS.
000309:
000310:                                                                                                  #  CALLING SEQUENCE:     CALL
000311:                                                                                                  #                                SR30.1
000312:                                                                                                  #  SUBROUTINES CALLED:   TFFCONMU, TFFRP/RA, CALCTPER, CALCTFF
000313:                                                                                                  #  NORMAL EXIT MODE:     CALLING LINE +1 (STILL IN INTERPRETIVE MODE)
000314:                                                                                                  #  ALARMS:               NONE
000315:                                                                                                  #  OUTPUT:  RAPO   (-29) M EARTH   APOGEE RADIUS   EARTH CENTERED COORD.
000316:                                                                                                  #                  (-27) M MOON                    MOON CENTERED COORD.
000317:                                                                                                  #           RPER   (-29) M EARTH   PERIGEE RADIUS  EARTH CENTERED COORD.
000318:                                                                                                  #                  (-27) M MOON                    MOON CENTERED COORD.
000319:                                                                                                  #           HAPOX  (-29) M         APOGEE ALTITUDE ABOVE PAD OR LAND. SITE MAX VALUE LIMITED TO 9999.9 NM.
000320:                                                                                                  #           HPERX  (-29) M         PERIGEE ALT. ABOVE PAD OR LAND. SITE    MAX VALUE LIMITED TO 9999.9 NM.
000321:                                                                                                  #           TFF    (-28) CS        TIME TO 300KFT OR 35KFT ALTITUDE
000322:                                                                                                  #           -TPER  (-28) CS        TIME TO PERIGEE
000323:                                                                                                  #  ERASABLE INITIALIZATION REQUIRED -
000324:                                                                                                  #           TFF/RTMU (+17) EARTH   RECIPROCAL OF PROPER GRAV CONSTANT FOR
000325:                                                                                                  #                    (+14) MOON    EARTH OR MOON = 1/SQRT(MU).
000326:                                                                                                  #           RONE    (-29) M        STATE VECTOR
000327:                                                                                                  #           VONE    (-7)  M/CS     STATE VECTOR
000328:                                                                                                  #           RPADTEM (-29) M EARTH  RADIUS OF LAUNCH PAD OR LUNAR LANDING
000329:                                                                                                  #                   (-27) M MOON   SITE.
000330:                                                                                                  #           HPERMIN (-29) M EARTH  (300 OR 35)KFT MINIMUM PERIGEE ALTITUDE
000331:                                                                                                  #                   (-27) M MOON   ABOVE LAUNCH PAD OR LUNAR LANDING SITE.
000332:
000333:                                                                                                  #  DEBRIS:  QPRET, PDL, S2
000334:
000335: 23,2716                                           COUNT*   $$/SR30S
000336:
000337: 23,2716           44001        SR30.1             SETPD    STQ                                   #  INITIALIZE PUSHDOWN LIST.
000338: 23,2717           00001                                    0
000339: 23,2720           00051                                    S2
000340:                                                                                                  #  SR30.1 INPUT: RONE AT (-29)M EARTH/MOON
000341:                                                                                                  #                VONE AT (-7)M/CS
000342:                                                                                                  #  TFFCONMU,TFFRP/RA,CALCTPER AND CALCTFF
000343:                                                                                                  #  CALLS REQUIRE :
000344:                                                                                                  #  EARTH CENTERED (NO RESCALING REQUIRED)
000345:                                                                                                  #                RONE SCALED TO B-29 M
000346:                                                                                                  #                VONE SCALED TO B-7 M/CS
000347: 23,2721           45145        TFFCALLS           DLOAD    CALL
000348: 23,2722           06547                                    1/RTMUE
000349: 23,2723           57055                                    TFFCONIC
000350: 23,2724           77624                           CALL                                           #  TFFRP/RA COMPUTES RAPO,RPER.
000351: 23,2725           57124                                    TFFRP/RA
000352:                                                                                                  #  RETURNS WITH RAPO IN D(MPAC).
000353: 23,2726           45025                           DSU      CALL
000354: 23,2727           05374                                    RPAD                                  #  IF HAPO > MAXNM, SET HAPO =9999.9 NM.
000355: 23,2730           46764                                    MAXCHK                                #  OTHERWISE STORE (RAPO-RPAD) IN HAPO.
000356: 23,2731           16204        STORHAPO           STODL    HAPOX
000357: 23,2732           00017                                    RPER
000358: 23,2733           77625                           DSU
000359: 23,2734           05374                                    RPAD                                  #  GIVES HPER AT (-29)M.
000360: 23,2735           00161                           STORE    MPAC       +4                         #  SAVE THIS FOR COMPARISON TO MINPERE.
000361: 23,2736           77624                           CALL                                           #  IF HPER > MAXNM, SET HPER = 9999.9 NM.
000362: 23,2737           46764                                    MAXCHK
000363: 23,2740           16206        STORHPER           STODL    HPERX                                 #  STORE (RPER - RPAD) INTO HPERX.
000364: 23,2741           00161                                    MPAC       +4
000365: 23,2742           51025                           DSU      BPL                                   #  MINPERE AT (-29)M
000366: 23,2743           06551                                    MINPERE                               #  IF HPER L/   MINPERE (300)KFT,
000367: 23,2744           46750                                    DOTPER                                #   THEN ZERO INTO -TPER.
000368: 23,2745           52145                           DLOAD    GOTO                                  #    OTHERWISE CALCULATE TPER.
000369: 23,2746           15204                                    HI6ZEROS
000370: 23,2747           46754                                    SKIPTPER
000371: 23,2750           45145        DOTPER             DLOAD    CALL
000372: 23,2751           00017                                    RPER
000373: 23,2752           57162                                    CALCTPER
000374: 23,2753           77676                           DCOMP                                          #  TPER IS PUT NEG INTO -TPER.
000375: 23,2754           16130        SKIPTPER           STODL    -TPER
000376: 23,2755           06551                                    MINPERE                               #  MINPERE AT (-29)M FOR EARTH
000377: 23,2756           45015                           DAD      CALL
000378: 23,2757           05374                                    RPAD                                  #  RPAD AT (-29)M FOR EARTH
000379: 23,2760           57165                                    CALCTFF                               #  GIVES 59M59S FOR TFF IF RPER G/
000380: 23,2761           77676                           DCOMP                                          #    MINPERE + RPAD. (TPER WAS NON ZERO)
000381: 23,2762           36126                           STCALL   TFF                                   #  OTHERWISE COMPUTES TFF.       (GOTO)
000382: 23,2763           00051                                    S2
000383:
000384: 23,2764           51025        MAXCHK             DSU      BPL                                   #  IF C(MPAC) > 9999.9 NM, MPAC = 9999.9 NM
000385: 23,2765           06774                                    MAXNM
000386: 23,2766           46771                                    +3                                    #  OTHERWISE C(MPAC) = B(MPAC).
000387: 23,2767           43415                           DAD      RVQ
000388: 23,2770           06774                                    MAXNM
000389: 23,2771           43545                 +3        DLOAD    RVQ                                   #  (USED BY P30 - P37 ALSO)
000390: 23,2772           06774                                    MAXNM
000391:
000392: 23,2773           01065 05603  MAXNM              2OCT     0106505603
000393:


000396:
000397:                                                                                                  #  SUBROUTINE NAME:      DELRSPL         (CONTINUATION OF V 82 IN CSM IF P11 ACTI
000398:                                                                                                  #  TRANSFERRED COMPLETELY FROM SUNDISK, P30S REV 33. 9 SEPT 67.
000399:                                                                                                  #  MOD NO: 0     MOD BY: ZELDIN          DATE:
000400:                                                                                                  #  MOD NO: 1     MOD BY: RR BAIRNSFATHER DATE: 11 APR 67
000401:                                                                                                  #  MOD NO: 2     MOD BY: RR BAIRNSFATHER DATE: 12 MAY 67         ADD UR.RT CALC WHEN BELOW 300K FT
000402:                                                                                                  #  MOD NO: 2.1   MOD BY: RR BAIRNSFATHER DATE: 5 JULY 67         FIX ERROR IN MOD. 2.
000403:                                                                                                  #  MOD NO: 3     MOD BY: RR BAIRNSFATHER DATE: 12 JUL 67         CHANGE SIGN OF DISPLAYED ERROR.
000404:                                                                                                  #  MOD 4         MOD BY  S.ZELDIN        DATE  3 APRIL 68        CHANGE EQUATIONS FOR L/D=.18 WHICH REPLA
000405:
000406:                                                                                                  #  FUNCTION:     CALCULATE (FOR DISPLAY ON CALL) AN APPROXIMATE MEASURE OF IN-PLANE SPLASH DOWN
000407:                                                                                                  #                ERROR. IF THE FREE-FALL TRANSFER ANGLE TO 300K FT ABOVE PAD RADIUS IS POSITIVE:
000408:                                                                                                  #                SPLASH ERROR= -RANGE TO TARGET + FREE-FALL TRANSFER ANGLE + ESTIMATED ENTRY ANGLE.
000409:                                                                                                  #                THE TARGET LOCATION AT ESTIMATED TIME OF IMPACT IS USED.  IF THE FREE-FALL TRANSFER
000410:                                                                                                  #                ANGLE IS NEGATIVE:  SPLASH ERROR= -RANGE TO TARGET
000411:                                                                                                  #                THE PRESENT TARGET LOCATION IS USED.
000412:
000413:                                                                                                  #  CALLING SEQUENCE  CALLED AFTER SR30.1 IF IN CSM AND IF P11 OPERATING (UNDER CONTROL OF V82)
000414:
000415:                                                                                                  #  SUBROUTINES CALLED:  VGAMCALC, TFF/TRIG, LALOTORV.
000416:
000417:                                                                                                  #  EXIT          RETURN DIRECTLY TO V 82 PROG. AT SPLRET
000418:
000419:                                                                                                  #  ERASABLE INITIALIZATION   LEFT BY SR30.1 AND V82GON1
000420:
000421:                                                                                                  #  OUTPUT:       RSP-RREC  RANGE IN REVOLUTIONS                  DSKY DISPLAY IN N. MI.
000422:
000423:                                                                                                  #  DEBRIS:       QPRET, PDL0 ... PDL7, PDL10
000424:                                                                                                  #                THETA(1)
000425:
000426: 36,2000                                           SETLOC   DELRSPL1
000427: 36,2000                                           BANK
000428: 36,2000                                           COUNT*   $$/P30                                #  PROGRAMS: P30 EXTERNAL DELTA V
000429:
000430: 36,2000           00011        DELRSPL            STORE    8D
000431: 36,2001           45244                           BPL      DSU
000432: 36,2002           74050                                    CANTDO                                #  GONE PAST 300K FT ALT
000433: 36,2003           16335                                    1BITDP
000434: 36,2004           45000                           BOV      CALL
000435: 36,2005           74050                                    CANTDO                                #  POSMAX INDICATES NO 300K FT SOLUTION.
000436: 36,2006           54722                                    VGAMCALC                              #  +GAMMA(REV) IN PMAC,V300 MAG(B-7)=PDL 0
000437: 36,2007           45006                           PUSH     CALL
000438: 36,2010           56766                                    TFF/TRIG
000439: 36,2011           77624                           CALL
000440: 36,2012           74056                                    AUGEKUGL
000441: 36,2013           65525                           PDDL     ACOS                                  #  T ENTRY PDL 6
000442: 36,2014           00017                                    CDELF/2
000443: 36,2015           77615                           DAD
000444: 36,2016           00005                                    4
000445: 36,2017           26132        GETARG             STOVL    THETA(1)
000446: 36,2020           03401                                    LAT(SPL)
000447: 36,2021           14742                           STODL    LAT
000448: 36,2022           15204                                    HI6ZEROS
000449: 36,2023           14746                           STODL    ALT                                   #  ALT=0 = LAT +4
000450: 36,2024           01036                                    PIPTIME
000451: 36,2025           71214                           BON      DLOAD
000452: 36,2026           03711                                    V37FLAG
000453: 36,2027           74031                                    +2
000454: 36,2030           02202                                    TSTART82
000455: 36,2031           43225                           DSU      DAD
000456: 36,2032           00011                                    8D
000457: 36,2033           45014                           CLEAR    CALL
000458: 36,2034           00662                                    ERADFLAG
000459: 36,2035           22523                                    LALOTORV                              #  R RECOV. IN ALPHAV AND MPAC
000460:
000461: 36,2036           63256                           UNIT     PDVL
000462: 36,2037           02210                                    RONE
000463: 36,2040           50256                           UNIT     DOT
000464: 36,2041           65552                           SL1      ARCCOS
000465: 36,2042           77621                           BDSU                                           #  ERROR = THETA EST - THETA TARG
000466:                                                                                                  #  NEGATIVE NUMBER SIGNIFIES THAT WILL FALL SHORT.
000467:                                                                                                  #  POSITIVE NUMBER SIGNIFIES THAT WILL OVERSHOOT.
000468: 36,2043           02132                                    THETA(1)
000469: 36,2044           36157        DELRDONE           STCALL   RSP-RREC                              #  DOWNRANGE RECOVERY RANGE ERROR        /360
000470: 36,2045           11727                                    INTWAKE0
000471: 36,2046           77624                           CALL
000472: 36,2047           46703                                    SPLRET
000473: 36,2050           65345        CANTDO             DLOAD    PDDL                                  #  INITIALIZE ERASE TO DOT TARGET AND UR
000474:                                                                                                  #  FOR RANGE ANGLE.
000475: 36,2051           15202                                    HIDPHALF                              #  TO PDL 0 FOR DEN IN DDV.
000476: 36,2052           15204                                    HI6ZEROS
000477: 36,2053           77606                           PUSH                                           #  ZERO TO PDL 2 FOR PHI ENTRY
000478: 36,2054           34011                           STCALL   8D
000479: 36,2055           74017                                    GETARG                                #  GO SET RSP-RREC =0
000480:
000481: 36,2056           77775        AUGEKUGL           VLOAD
000482: 36,2057           34237                                    X1CON      -2
000483: 36,2060           14045                           STODL    X1         -2
000484: 36,2061           00001                                    0
000485: 36,2062           50025                           DSU      BMN
000486: 36,2063           34231                                    V(21K)
000487: 36,2064           74111                                    LOOPSET
000488: 36,2065           65060                           XSU,1    XCHX,2
000489: 36,2066           00050                                    S1
000490: 36,2067           00046                                    X1
000491: 36,2070           45324                           XCHX,2   DSU
000492: 36,2071           00050                                    S1
000493: 36,2072           34217                                    V(3K)
000494: 36,2073           65040                           BMN      XCHX,2
000495: 36,2074           74111                                    LOOPSET
000496: 36,2075           00050                                    S1
000497: 36,2076           50025                           DSU      BMN
000498: 36,2077           34227                                    V(4K)
000499: 36,2100           74111                                    LOOPSET
000500: 36,2101           65124                           XCHX,2   XCHX,2
000501: 36,2102           00050                                    S1
000502: 36,2103           00046                                    X1
000503: 36,2104           50025                           DSU      BMN
000504: 36,2105           34213                                    V(400)
000505: 36,2106           74111                                    LOOPSET
000506: 36,2107           77730                           SXA,1
000507: 36,2110           00050                                    S1
000508: 36,2111           52110        LOOPSET            INCR,1   GOTO
000509: 36,2112           00001                           DEC      1          B-14
000510: 36,2113           74116                                    K1K2LOOP
000511: 36,2114           77730        K2CALC             SXA,1
000512: 36,2115           00050                                    S1
000513: 36,2116           44745        K1K2LOOP           DLOAD    DSU*
000514: 36,2117           00001                                    0
000515: 36,2120           34226                                    V(32K)     +1,1
000516: 36,2121           42603                           DMP*     DAD*
000517: 36,2122           34212                                    YK1K2      +1,1
000518: 36,2123           34176                                    CK1K2      +1,1
000519: 36,2124           60125                           PDDL     TIX,1
000520: 36,2125           00003                                    2
000521: 36,2126           74114                                    K2CALC
000522: 36,2127           55225                           DSU      BDDV
000523: 36,2130           40006                           PUSH     BOV                                   #  PHI ENTRY PDL 4D
000524: 36,2131           74154                                    MAXPHI
000525: 36,2132           45240                           BMN      DSU
000526: 36,2133           74154                                    MAXPHI
000527: 36,2134           34161                                    MAXPHIC
000528: 36,2135           77644                           BPL
000529: 36,2136           74154                                    MAXPHI
000530: 36,2137           45345        PHICALC            DLOAD    DSU
000531: 36,2140           00001                                    0
000532: 36,2141           34237                                    V(26K)
000533: 36,2142           71244                           BPL      DLOAD
000534: 36,2143           74151                                    TGR26
000535: 36,2144           34233                                    TLESS26
000536: 36,2145           77671                           DDV
000537: 36,2146           00001                                    0
000538: 36,2147           43405        TENT               DMP      RVQ
000539: 36,2150           00005                                    4D
000540: 36,2151           52145        TGR26              DLOAD    GOTO
000541: 36,2152           34235                                    TGR26CON
000542: 36,2153           74147                                    TENT
000543:
000544: 36,2154           65345        MAXPHI             DLOAD    PDDL
000545: 36,2155           34161                                    MAXPHIC
000546: 36,2156           77650                           GOTO
000547: 36,2157           74137                                    PHICALC
000548: 36,2160           02755 01307  MAXPHIC            2DEC     .09259298                             #  2000 NM FOR MAXIMUM PHI ENTRY
000549:
000550: 36,2162                                           COUNT*   $$/P30
000551:
000552:
000553:                                                                                                  #                BELOW
000554:                                                                                                  #  <<<< TABLE IS INDEXED. KEEP IN ORDER >>>
000555:
000556: 36,2162           00013 22652                     2DEC     7.07304526 E-4                        #  5500
000557:
000558: 36,2164           00005 01642                     2DEC     3.08641975 E-4                        #  2400
000559:
000560: 36,2166           00005 01642                     2DEC     3.08641975 E-4                        #  2400
000561:
000562: 36,2170           77556 53522                     2DEC     -8.8888888 E-3                        #  -3.2
000563:
000564: 36,2172           00055 20266                     2DEC     2.7777777  E-3                        #  1
000565:
000566: 36,2174           00155 07202  CK1K2              2DEC     6.6666666  E-3                        #  2.4
000567:
000568: 36,2176           00000 00000                     2DEC     0          B-28                       #  0
000569:
000570: 36,2200           77730 71525                     2DEC*    -1.86909989 E-5        B7*             #  -.443
000571:
000572: 36,2202           00000 00000                     2DEC     0          B-28
000573:
000574: 36,2204           04445 10102                     2DEC*    1.11639691 E-3        B7*             #  .001225
000575:
000576: 36,2206           03726 31201                     2DEC*    9.56911636 E-4        B7*             #  .00105
000577:
000578: 36,2210           01040 26313  YK1K2              2DEC*    2.59733157 E-4        B7*             #  .000285
000579:
000580: 36,2212           00234 01660  V(400)             2DEC     1.2192     B-7
000581:
000582: 36,2214           25254 01014  V(28K)             2DEC     85.344     B-7
000583:
000584: 36,2216           02222 15646  V(3K)              2DEC     9.144      B-7
000585:
000586: 36,2220           22223 16457  V(24K)             2DEC     73.152     B-7
000587:
000588: 36,2222           25254 01014                     2DEC     85.344     B-7
000589:
000590: 36,2224           30304 23351  V(32K)             2DEC     97.536     B-7
000591:
000592: 36,2226           03030 22335  V(4K)              2DEC     12.192     B-7
000593:
000594: 36,2230           20001 00611  V(21K)             2DEC     64.008     B-7
000595:
000596: 36,2232           00033 05763  TLESS26            2DEC*    5.70146688 E7         B-35*           #  8660PHI/V
000597:
000598: 36,2234           00053 36200  TGR26CON           2DEC     7.2        E5         B-28            #  PHI/3
000599:
000600: 36,2236           23637 27636  V(26K)             2DEC     79.248     B-7                        #  26000
000601:
000602: 36,2240           00012        X1CON              DEC      10         B-14
000603:
000604:
000605: 36,2241           00010                           DEC      8          B-14
000606: 36,2242           00006                           DEC      6          B-14
000607:                                                                                                  #  <<<< TABLE IS INDEXED. KEEP IN ORDER >>>
000608:                                                                                                  #                ABOVE

End of include-file R30.agc.  Parent file is MAIN.agc


