
Source Code


000002:                                                                                                  ## Copyright:   Public domain.
000003:                                                                                                  ## Filename:    R31.agc
000004:                                                                                                  ## Purpose:     A section of Skylark revision 048.
000005:                                                                                                  ##              It is part of the source code for the Apollo Guidance Computer (AGC)
000006:                                                                                                  ##              for Skylab-2, Skylab-3, Skylab-4, and ASTP. No original listings of
000007:                                                                                                  ##              this software are available; instead, this file was created via
000008:                                                                                                  ##              disassembly of dumps of the core rope modules actually flown on
000009:                                                                                                  ##              Skylab-2. Access to these modules was provided by the New Mexico
000010:                                                                                                  ##              Museum of Space History.
000011:                                                                                                  ## Assembler:   yaYUL
000012:                                                                                                  ## Contact:     Ron Burkey <info@sandroid.org>.
000013:                                                                                                  ## Website:     www.ibiblio.org/apollo/index.html
000014:                                                                                                  ## Mod history: 2023-09-04 MAS  Created from Artemis 072.
000015:                                                                                                  ##              2024-03-05 MAS  Updated for Skylark 48.
000016:
000017: 31,2000                                           SETLOC   R31
000018: 31,2000                                           BANK
000019:
000020: 31,2000                                           COUNT*   $$/R3134
000021: 31,2000           35057        R31CALL            CAF      PRIO3
000022: 31,2001           05150                           TC       FINDVAC
000023: 31,2002  E4,1636                                  EBANK=   SUBEXIT
000024: 31,2002           02031 62064                     2CADR    V83CALL
000025:
000026: 31,2004           04647        DSPDELAY           TC       BANKCALL
000027: 31,2005           01730                           CADR     1SECDELY
000028: 31,2006           31237                           CA       EXTVBACT
000029: 31,2007           74766                           MASK     BIT12
000030: 31,2010           00006                           EXTEND
000031: 31,2011           12004                           BZF      DSPDELAY
000032:
000033: 31,2012           30105        DISPN5X            CA       FLAGWRD9                              #  TEST R31FLAG (IN SUNDANCE R31FLAG WILL
000034: 31,2013           74776                           MASK     R31FLBIT                              #  ALWAYS BE SET AS R34 DOES NOT EXIST
000035: 31,2014           00006                           EXTEND
000036: 31,2015           12020                           BZF      +3
000037: 31,2016           32135                           CAF      V16N54                                #  R31    USE NOUN 54
000038: 31,2017           02021                           TC       +2
000039: 31,2020           32136                           CAF      V16N53                                #  R34    USE NOUN 53
000040: 31,2021           04647                           TC       BANKCALL
000041: 31,2022           20456                           CADR     GOMARKF
000042: 31,2023           05601                           TC       B5OFF
000043: 31,2024           05601                           TC       B5OFF
000044: 31,2025           12012                           TCF      DISPN5X
000045:
000046: 31,2026           06006        V83                TC       INTPRET
000047: 31,2027           77650                           GOTO
000048: 31,2030           62175                                    HAVEBASE                              #  INTEG STATE VECTORS
000049: 31,2031           06006        V83CALL            TC       INTPRET
000050: 31,2032           77650                           GOTO
000051: 31,2033           62144                                    STATEXTP                              #  EXTRAPOLATE STATE VECTORS
000052: 31,2034           52375        COMPDISP           VLOAD    VSU
000053: 31,2035           00001                                    RATT
000054: 31,2036           02210                                    RONE
000055: 31,2037           51406                           PUSH     ABVAL                                 #  RATT-RONE TO 0D               PD= 6
000056: 31,2040           02202                           STORE    RANGE                                 #  METERS B-29
000057: 31,2041           77301                           NORM     VLOAD
000058: 31,2042           00047                                    X1                                    #  RATT-RONE                     PD= 0
000059: 31,2043           77762                           VSR1
000060: 31,2044           53457                           VSL*     UNIT
000061: 31,2045           20201                                    0,1
000062: 31,2046           52315                           PDVL     VSU                                   #  UNIT(LOS) TO 0D               PD= 6
000063: 31,2047           00007                                    VATT
000064: 31,2050           02216                                    VONE
000065: 31,2051           77641                           DOT                                            #  (VATT-VONE).UNIT(LOS)         PD= 0
000066: 31,2052           77752                           SL1
000067: 31,2053           36204                           STCALL   RRATE                                 #  RANGE RATE M/CS B-7
000068: 31,2054           47471                                    CDUTRIG                               #  TO INITIALIZE FOR *NBSM*
000069: 31,2055           77624                           CALL
000070: 31,2056           62267                                    R34LOS                                #  NOTE. PDL MUST = 0.
000071: 31,2057           53575        R34ANG             VLOAD    UNIT
000072: 31,2060           02210                                    RONE
000073: 31,2061           77715                           PDVL                                           #  UR TO 0D                      PD= 6
000074: 31,2062           15202                                    THISAXIS                              #  UNITX FOR CM, UNITZ FOR LM
000075: 31,2063           77214                           BON      VLOAD                                 #  CHK R31FLAG. ON=R31 THETA, OFF=R34 PHI
000076: 31,2064           04713                                    R31FLAG
000077: 31,2065           62067                                    +2                                    #        R31-THETA
000078: 31,2066           00015                                    12D
000079: 31,2067           77624                           CALL
000080: 31,2070           47625                                    *NBSM*
000081: 31,2071           41505                           VXM      PUSH                                  #  UXORZ TO 6D                   PD=12D
000082: 31,2072           01720                                    REFSMMAT
000083: 31,2073           72431                           VPROJ    VSL2
000084: 31,2074           00001                                    0D
000085: 31,2075           53445                           BVSU     UNIT
000086: 31,2076           00007                                    6D
000087: 31,2077           47315                           PDVL     VXV                                   #  UP/2 TO 12D                   PD=18D
000088: 31,2100           02210                                    RONE
000089: 31,2101           02216                                    VONE
000090: 31,2102           47256                           UNIT     VXV
000091: 31,2103           02210                                    RONE
000092: 31,2104           63241                           DOT      PDVL                                  #  SIGN TO 12D, UP/2 TO MPAC     PD=18D
000093: 31,2105           00015                                    12D
000094: 31,2106           50372                           VSL1     DOT                                   #  UP.UXORZ
000095: 31,2107           00007                                    6D
000096: 31,2110           72565                           SIGN     SL1
000097: 31,2111           00015                                    12D
000098: 31,2112           77726                           ACOS
000099: 31,2113           26206                           STOVL    RTHETA
000100: 31,2114           02210                                    RONE
000101: 31,2115           51041                           DOT      BPL
000102: 31,2116           00007                                    6D
000103: 31,2117           62124                                    +5
000104: 31,2120           44345                           DLOAD    BDSU                                  #  IF UXORZ.R NEG, RTHETA = 1 - RTHETA
000105: 31,2121           02206                                    RTHETA
000106: 31,2122           15212                                    DPPOSMAX
000107: 31,2123           02206                           STORE    RTHETA                                #  RTHETA BETWEEN 0 AND 1 REV.
000108: 31,2124           77776                 +5        EXIT
000109: 31,2125           34775                           CAF      BIT5                                  #  HAVE WE BEEN ANSWERED
000110: 31,2126           71237                           MASK     EXTVBACT
000111: 31,2127           00006                           EXTEND
000112: 31,2130           12137                           BZF      ISITP37
000113:
000114: 31,2131           41237                           CS       EXTVBACT
000115: 31,2132           74766                           MASK     BIT12
000116: 31,2133           27237                           ADS      EXTVBACT
000117:
000118: 31,2134           12026                           TCF      V83
000119: 31,2135           04066        V16N54             VN       1654
000120: 31,2136           04065        V16N53             VN       1653
000121: 31,2137           05367        ISITP37            TC       CHECKMM
000122: 31,2140           00045                           MM       37         B-14
000123: 31,2141           15537                           TCF      ENDEXT                                #  NO, DIE
000124:
000125: 31,2142           05542                           TC       CLEARMRK
000126: 31,2143           14105                           TCF      MNKGOPOO
000127:
000128:                                                                                                  #  STATEXTP DOES AN INITIAL PRECISION EXTRAPOLATION OF THE
000129:                                                                                                  #  LEM STATE VECTOR TO PRESENT TIME OR TO PIPTIME IF AV G
000130:                                                                                                  #  IS ON AND SAVES AS BASE VECTOR. IF AV G IS ON RN + VN
000131:                                                                                                  #  ARE USED AS THE CM STATE VECTOR AND THE INITIAL R RDOT
000132:                                                                                                  #  RTHETA ARE COMPUTED WITH NO FURTHER INTEGRATION. IF AV
000133:                                                                                                  #  G IS OFF A PRECISION EXTRAPOLATION IS MADE OF THE CM
000134:                                                                                                  #  STATE VECTOR TO PRESENT TIME AND.....
000135:                                                                                                  #    THE CM + LM STATE VECTORS ARE INTEGRATED TO PRES TIME
000136:                                                                                                  #    USING PRECISION OR CONIC AS SURFFLAG IS SET OR CLEAR.
000137:                                                                                                  #    IF AV G IS ON THEN SUBSEQUENT PASSES WILL PROVIDE
000138:                                                                                                  #    USE OF RN + VN AS CM STATE VECTOR AND THE LM STATE
000139:                                                                                                  #    VECTOR WILL BE PRECISION INTEGRATED USING LEMPREC
000140:                                                                                                  #    IF SURFFLAG IS SET.
000141:                                                                                                  #      CM STATE VECTOR RONE VONE + LM STATE VECTOR RATT
000142:                                                                                                  #      VATT ARE USED IN COMPUTING R RDOT RTHETA.
000143:
000144: 31,2144           43034        STATEXTP           RTB      BOF                                   #  INITIAL INTEGRATION
000145: 31,2145           45563                                    LOADTIME
000146: 31,2146           03751                                    V37FLAG
000147: 31,2147           62152                                    BOTHGO                                #  AV G OFF, USE PRESENT TIME
000148: 31,2150           77624                           CALL
000149: 31,2151           62251                                    GETRVN                                #       ON,  USE RN, VN, PIPTIME
000150: 31,2152           02224        BOTHGO             STORE    BASETIME
000151: 31,2153           34041                           STCALL   TDEC1
000152: 31,2154           11414                                    LEMPREC
000153: 31,2155           77775                           VLOAD                                          #  BASE VECTOR, LM
000154: 31,2156           00017                                    RATT1
000155: 31,2157           26126                           STOVL    BASEOTP                               #    POS.
000156: 31,2160           00025                                    VATT1
000157: 31,2161           02142                           STORE    BASEOTV                               #    VEL.
000158: 31,2162           71214                           BON      DLOAD
000159: 31,2163           03711                                    V37FLAG
000160: 31,2164           62034                                    COMPDISP                              #  COMPUTE R RDOT RTHETA FROM
000161:                                                                                                  #  RONE(RN) VONE(VN) RATT+VATT(LEMPREC)
000162: 31,2165           00015                                    TAT
000163: 31,2166           34041                           STCALL   TDEC1
000164: 31,2167           11400                                    CSMPREC
000165: 31,2170           77775                           VLOAD                                          #  BASE VECTOR, CM
000166: 31,2171           00017                                    RATT1
000167: 31,2172           26156                           STOVL    BASETHP                               #   POS.
000168: 31,2173           00025                                    VATT1
000169: 31,2174           02226                           STORE    BASETHV                               #   VEL.
000170: 31,2175           47014        HAVEBASE           BON      RTB                                   #  SUBSEQUENT INTEGRATIONS
000171: 31,2176           03711                                    V37FLAG
000172: 31,2177           62242                                    GETRVN5
000173: 31,2200           45563                                    LOADTIME
000174: 31,2201           34041                           STCALL   TDEC1                                 #  AV G OFF. SET INTEG. OF CM
000175: 31,2202           11720                                    INTSTALL
000176: 31,2203           77775                           VLOAD
000177: 31,2204           02156                                    BASETHP
000178: 31,2205           25535                           STOVL    RCV
000179: 31,2206           02226                                    BASETHV
000180: 31,2207           15543                           STODL    VCV
000181: 31,2210           02224                                    BASETIME
000182: 31,2211           77614                           SET
000183: 31,2212           01473                                    INTYPFLG
000184: 31,2213           35517                           STCALL   TET
000185: 31,2214           11444                                    INTEGRVS                              #  INTEGRATION --- AT LAST---
000186: 31,2215           77775                           VLOAD
000187: 31,2216           00001                                    RATT
000188: 31,2217           26210                           STOVL    RONE
000189: 31,2220           00007                                    VATT
000190: 31,2221           16216                           STODL    VONE                                  #  GET SET FOR CONIC EXTRAP.,OTHER
000191: 31,2222           00015                                    TAT
000192: 31,2223           77624                           CALL
000193: 31,2224           11720                                    INTSTALL                              #  LEMCONIC IF NOT DOWN
000194: 31,2225           77614                           SET
000195: 31,2226           01473                                    INTYPFLG
000196: 31,2227           00041        OTHINT             STORE    TDEC1                                 #  ENTERED IF AV G ON TO INTEG LM
000197: 31,2230           77775                           VLOAD
000198: 31,2231           02126                                    BASEOTP
000199: 31,2232           25535                           STOVL    RCV
000200: 31,2233           02142                                    BASEOTV
000201: 31,2234           15543                           STODL    VCV
000202: 31,2235           02224                                    BASETIME
000203: 31,2236           35517                           STCALL   TET
000204: 31,2237           11444                                    INTEGRVS
000205: 31,2240           77650                           GOTO
000206: 31,2241           62034                                    COMPDISP                              #  COMPUTE R RDOT RTHETA
000207: 31,2242           77624        GETRVN5            CALL                                           #  AV G ON
000208: 31,2243           62251                                    GETRVN
000209: 31,2244           77624                           CALL
000210: 31,2245           11720                                    INTSTALL
000211: 31,2246           52014                           CLEAR    GOTO                                  #  INTEGRVS (PREC) IF LM NOT DOWN
000212: 31,2247           01673                                    INTYPFLG
000213: 31,2250           62227                                    OTHINT
000214: 31,2251           77620        GETRVN             STQ
000215: 31,2252           00000                                    0D
000216: 31,2253           52175                           VLOAD    GOTO                                  #  AV G ON, RONE = RN  VONE = VN
000217: 31,2254           01022                                    RN                                    #   AND USE PIPTIME
000218: 31,2255           62256                                    +1
000219: 31,2256           36210                           STCALL   RONE
000220: 31,2257           62260                                    +1
000221: 31,2260           52175                           VLOAD    GOTO
000222: 31,2261           01030                                    VN
000223: 31,2262           62263                                    +1
000224: 31,2263           16216                           STODL    VONE
000225: 31,2264           01036                                    PIPTIME
000226: 31,2265           77650                           GOTO
000227: 31,2266           00000                                    0D
000228: 31,2000                                           SETLOC   R34
000229: 31,2000                                           BANK
000230: 31,2267                                           COUNT*   $$/R3134
000231: 31,2267           77776        R34LOS             EXIT
000232: 31,2270           30036                           CA       CDUS
000233: 31,2271           50120                           INDEX    FIXLOC
000234: 31,2272           54011                           TS       9D
000235: 31,2273           30035                           CA       CDUT
000236: 31,2274           50120                           INDEX    FIXLOC
000237: 31,2275           54013                           TS       11D
000238: 31,2276           30120                           CA       FIXLOC
000239: 31,2277           66211                           AD       SIX
000240: 31,2300           40000                           COM
000241: 31,2301           50120                           INDEX    FIXLOC
000242: 31,2302           54046                           TS       X1
000243: 31,2303           06006                           TC       INTPRET
000244: 31,2304           77624                           CALL
000245: 31,2305           46000                                    SXTNB
000246: 31,2306           34015                           STCALL   12D
000247: 31,2307           62057                                    R34ANG

End of include-file R31.agc.  Parent file is MAIN.agc


