
Source Code


000002:                                                                                                  ## Copyright:   Public domain.
000003:                                                                                                  ## Filename:    R36.agc
000004:                                                                                                  ## Purpose:     A section of Skylark revision 048.
000005:                                                                                                  ##              It is part of the source code for the Apollo Guidance Computer (AGC)
000006:                                                                                                  ##              for Skylab-2, Skylab-3, Skylab-4, and ASTP. No original listings of
000007:                                                                                                  ##              this software are available; instead, this file was created via
000008:                                                                                                  ##              disassembly of dumps of the core rope modules actually flown on
000009:                                                                                                  ##              Skylab-2. Access to these modules was provided by the New Mexico
000010:                                                                                                  ##              Museum of Space History.
000011:                                                                                                  ## Assembler:   yaYUL
000012:                                                                                                  ## Contact:     Ron Burkey <info@sandroid.org>.
000013:                                                                                                  ## Website:     www.ibiblio.org/apollo/index.html
000014:                                                                                                  ## Mod history: 2024-02-26 MAS  Created.
000015:
000016:                                                                                                  ## All code in this file was part of the P34-P35, P74-P75 log section in Artemis.
000017:                                                                                                  ## It has been moved to its own log section to match Skylark bank ordering.
000018:
000019:                                                                                                  #  PROGRAM DESCRIPTION
000020:                                                                                                  #  SUBROUTINE NAME       R36  OUT-OF-PLANE RENDEZVOUS ROUTINE
000021:                                                                                                  #  MOD NO.  3      DATE    18 NOVEMBER 1969
000022:                                                                                                  #  MOD BY   T.E.CROCKER
000023:
000024:                                                                                                  #  FUNCTIONAL DESCRIPTION
000025:
000026:                                                                                                  #  TO DISPLAY AT ASTRONAUT REQUEST LGC CALCULATED RENDEZVOUS
000027:                                                                                                  #        OUT-OF-PLANE PARAMETERS (YDOT CSM,YDOT LEM,Y).
000028:
000029:                                                                                                  #  CALLING SEQUENCE
000030:
000031:                                                                                                  #  ASTRONAUT REQUEST THROUGH DSKY  V 90 E
000032:
000033:                                                                                                  #  SUBROUTINES CALLED
000034:
000035:                                                                                                  #  EXDSPRET  TIMEOPT
000036:                                                                                                  #  GOMARKF   VEHOPT
000037:                                                                                                  #  CSMCONIC
000038:                                                                                                  #  LEMCONIC
000039:                                                                                                  #  LOADTIME
000040:
000041:                                                                                                  #  NORMAL EXIT MODES
000042:
000043:                                                                                                  #  ASTRONAUT REQUEST THROUGH DSKY TO TERMINATE PROGRAM V 34 E
000044:
000045:                                                                                                  #  ALARM OR ABORT EXIT MODES
000046:
000047:                                                                                                  #  NONE
000048:
000049:                                                                                                  #  OUTPUT
000050:                                                                                                  #
000051:                                                                                                  #  DECIMAL DISPLAY OF YDOT CSM, YDOT LEM, Y, TIME.
000052:                                                                                                  #  DISPLAYED VALUES YDOT, YDOT, Y ARE STORED IN ERASABLE
000053:                                                                                                  #  REGISTERS RRATE, RRATE2, RANGE RESPECTIVELY.
000054:
000055:                                                                                                  #  ERASABLE INITIALIZATION REQUIRED
000056:
000057:                                                                                                  #  CSM AND LEM STATE VECTORS
000058:
000059:                                                                                                  #  DEBRIS
000060:
000061:                                                                                                  #  CENTRALS A,Q,L
000062:
000063:                                                                                                  #  OTHER  THOSE USED BY THE ABOVE LISTED SUBROUTINES
000064:
000065: 23,2000                                           SETLOC   R36CM
000066: 23,2000                                           BANK
000067:
000068: 23,2330  E7,1412                                  EBANK=   TIG
000069: 23,2330                                           COUNT*   $$/R36
000070:
000071: 23,2330           06006        R36                TC       INTPRET
000072:
000073: 23,2331           45145                           DLOAD    CALL
000074: 23,2332           03413                                    TIG
000075: 23,2333           46523                                    TIMEOPT
000076: 23,2334           77624        R36A               CALL
000077: 23,2335           11414                                    LEMPREC
000078: 23,2336           63375                           VLOAD    PDVL                                  #  VL TO PDLO
000079: 23,2337           00007                                    VATT
000080: 23,2340           00001                                    RATT
000081: 23,2341           63256                           UNIT     PDVL                                  #  UNIT RL TO PDL0, VL TO MPAC
000082: 23,2342           77626                           STADR
000083: 23,2343           75567                           STORE    VPASS36                               #  VL TO VPASS36
000084: 23,2344           53435                           VXV      UNIT                                  #  VL(MPAC) X RL(PDL0)
000085: 23,2345           77626                           STADR
000086: 23,2346           61561                           STODL    UNP36                                 #  UNIT(VL X RL) TO UNP36
000087: 23,2347           00015                                    TAT
000088: 23,2350           34041                           STCALL   TDEC1
000089: 23,2351           11400                                    CSMPREC
000090: 23,2352           63375                           VLOAD    PDVL                                  #  VC TO PDL0
000091: 23,2353           00007                                    VATT
000092: 23,2354           00001                                    RATT
000093: 23,2355           00007                           STORE    6D                                    #  RC TO PDL6
000094: 23,2356           63256                           UNIT     PDVL                                  #  UNIT(RC) TO PDL0, VC TO MPAC
000095: 23,2357           77626                           STADR
000096: 23,2360           77762                           STORE    12D                                   #  VC TO PDL12
000097: 23,2361           53435                           VXV      UNIT                                  #  VC(MPAC) X RC(PDL0)
000098: 23,2362           77626                           STADR
000099: 23,2363           51553                           STOVL    UNA36                                 #  UNIT(VC X RC) TO UNA36
000100: 23,2364           00007                                    6D                                    #  RC TO MPAC
000101: 23,2365           72441                           DOT      SL1
000102: 23,2366           02216                                    UNP36                                 #  RC . UNIT(VL X RL)
000103: 23,2367           26202                           STOVL    RANGE                                 #   EQUALS RANGE
000104: 23,2370           00015                                    12D                                   #  VC TO MPAC
000105: 23,2371           72441                           DOT      SL1
000106: 23,2372           02216                                    UNP36                                 #  VC . UNIT(VL X RL)
000107: 23,2373           26204                           STOVL    RRATE                                 #   EQUALS R. RATE OF CSM
000108: 23,2374           02210                                    VPASS36                               #  VL TO MPAC
000109: 23,2375           72441                           DOT      SL1
000110: 23,2376           02224                                    UNA36
000111: 23,2377           02206                           STORE    RRATE2                                #  VL . UNIT(VC X RC)
000112: 23,2400           77776                           EXIT                                           #   EQUALS R. RATE OF LEM
000113: 23,2401           32433                           CAF      V06N96                                #  DISPLAY Y, YDOTCM,YDOTLM
000114: 23,2402           04647                           TC       BANKCALL
000115: 23,2403           20456                           CADR     GOMARKF
000116: 23,2404           15537                           TCF      ENDEXT                                #  T OR
000117: 23,2405           15537                           TCF      ENDEXT                                #   P....EXIT R36
000118:                                                                                                  #    R...DISPLAY TIME
000119: 23,2406           06006                           TC       INTPRET
000120: 23,2407           77624                           CALL
000121: 23,2410           46524                                    TIMEOPT    +1
000122: 23,2411           77650                           GOTO
000123: 23,2412           46334                                    R36A
000124: 23,2413           01420        V06N16N            VN       0616
000125: 23,2414           77420        VEHOPT             STQ      EXIT                                  #  ALLOW VEHICLE OPTION
000126: 23,2415           00734                                    VEHRET
000127: 23,2416           00006                           EXTEND
000128: 23,2417           35001                           DCA      TWO
000129: 23,2420           53246                           DXCH     OPTIONX
000130: 23,2421           32432                           CAF      OPTIONVN
000131: 23,2422           04647                           TC       BANKCALL
000132: 23,2423           20456                           CADR     GOXDSPF
000133: 23,2424           05537                           TC       ENDEXT
000134: 23,2425           02427                           TC       +2
000135: 23,2426           02421                           TC       -5
000136:
000137: 23,2427           06006                           TC       INTPRET
000138: 23,2430           77650                           GOTO
000139: 23,2431           00734                                    VEHRET
000140: 23,2432           01014        OPTIONVN           VN       0412
000141: 23,2433           01540        V06N96             VN       0696
000142:

End of include-file R36.agc.  Parent file is MAIN.agc


