
Source Code


000002:                                                                                                  ## Copyright:   Public domain.
000003:                                                                                                  ## Filename:    R60,R62.agc
000004:                                                                                                  ## Purpose:     A section of Skylark revision 048.
000005:                                                                                                  ##              It is part of the source code for the Apollo Guidance Computer (AGC)
000006:                                                                                                  ##              for Skylab-2, Skylab-3, Skylab-4, and ASTP. No original listings of
000007:                                                                                                  ##              this software are available; instead, this file was created via
000008:                                                                                                  ##              disassembly of dumps of the core rope modules actually flown on
000009:                                                                                                  ##              Skylab-2. Access to these modules was provided by the New Mexico
000010:                                                                                                  ##              Museum of Space History.
000011:                                                                                                  ## Assembler:   yaYUL
000012:                                                                                                  ## Contact:     Ron Burkey <info@sandroid.org>.
000013:                                                                                                  ## Website:     www.ibiblio.org/apollo/index.html
000014:                                                                                                  ## Mod history: 2023-09-04 MAS  Created from Artemis 072.
000015:                                                                                                  ##              2024-03-05 MAS  Updated for Skylark 48.
000016:
000017: 27,2000                                           SETLOC   MANUVER
000018: 27,2000                                           BANK
000019:
000020: 27,2000     0777                                  EBANK=   TEMPR60
000021:
000022: 27,2000                                           COUNT*   $$/R60
000023:
000024:                                                                                                  #  R60CSM
000025:                                                                                                  #  REV 13   CONFORMS TO GSOP CHAPTER FOUR REVISION LOGIC  09  JAN 18,1968
000026:
000027: 27,2000           04676        R60CSM             TC       MAKECADR
000028: 27,2001           54777                           TS       TEMPR60
000029:
000030: 27,2002           06006        REDOMANN           TC       INTPRET
000031: 27,2003           45014                           BON      CALL                                  #  IS 3-AXIS FLAG SET
000032: 27,2004           02711                                    3AXISFLG
000033: 27,2005           56010                                    TOBALL1                               #  YES
000034: 27,2006           56135                                    VECPOINT                              #  NO CALL VECPOINT
000035: 27,2007           01300                           STORE    CPHI
000036: 27,2010           77776        TOBALL1            EXIT
000037:
000038: 27,2011           35044        TOBALL             CAF      V06N18
000039: 27,2012           04647                           TC       BANKCALL
000040: 27,2013           21034                           CADR     GOPERF2R                              #  DISPLAY PLEASE PERFORM AUTO MANEUVER
000041: 27,2014           02125                           TC       R61TEST
000042: 27,2015           02021                           TC       REDOMANC   -1
000043: 27,2016           12054                           TCF      ENDMANU1                              #  ENTER I.E. FINISHED WITH R60
000044:
000045: 27,2017           02056                           TC       CHKLINUS                              #  TO CHECK FOR PRIORITY DISPLAYS
000046: 27,2020           05220                           TC       ENDOFJOB
000047:
000048: 27,2021           06006                 -1        TC       INTPRET
000049: 27,2022           45014        REDOMANC           BON      CALL                                  #  IS 3-AXIS FLAG SET
000050: 27,2023           02711                                    3AXISFLG
000051: 27,2024           56027                                    +3                                    #  YES
000052: 27,2025           56135                                    VECPOINT                              #  NO CALL VECPOINT
000053: 27,2026           01300                           STORE    CPHI                                  #  STORE ANGLES
000054: 27,2027           77776                           EXIT
000055:
000056: 27,2030           37673        TOBALLC            CAF      FURST3                                #  BITS 15,14,13 OF CHAN31 = 011
000057: 27,2031           05627                           TC       C31BTCHK                              #  FOR AUTO AND G&N CONTROL
000058: 27,2032           12033                           TCF      +1
000059: 27,2033           67671                           AD       NEG30000
000060: 27,2034           00006                           EXTEND
000061: 27,2035           12037                           BZF      +2                                    #  AUTO, NON-FLASH N18
000062: 27,2036           12011                           TCF      TOBALL                                #  NOT AUTO
000063: 27,2037           35044                           CAF      V06N18                                #  SET UP NON-FLASHING V06 N18
000064: 27,2040           04647                           TC       BANKCALL
000065: 27,2041           20570                           CADR     GODSPR
000066: 27,2042           02056                           TC       CHKLINUS
000067:
000068: 27,2043           04666        STARTMNV           TC       POSTJUMP
000069: 27,2044           44000                           CADR     KALCMAN3
000070:
000071: 27,2045           06006        ENDMANUV           TC       INTPRET
000072: 27,2046           43014                           BOFF     BOFF
000073: 27,2047           05350                                    AUTOSEQ
000074: 27,2050           56010                                    TOBALL1
000075: 27,2051           00752                                    TRACKFLG
000076: 27,2052           56010                                    TOBALL1
000077: 27,2053           77776                           EXIT
000078:
000079: 27,2054           30777        ENDMANU1           CA       TEMPR60
000080: 27,2055           04671                           TC       BANKJUMP                              #                                        -
000081:
000082: 27,2056           40100        CHKLINUS           CS       FLAGWRD4
000083: 27,2057           74766                           MASK     PDSPFBIT                              #  IS PRIORITY DISPLAY FLAG SET
000084: 27,2060           10000                           CCS      A                                     #                                        -
000085: 27,2061           00002                           TC       Q                                     #  NO - EXIT
000086: 27,2062           30002                           CA       Q
000087: 27,2063           54156                           TS       MPAC       +2                         #  SAVE RETURN
000088: 27,2064           46214                           CS       THREE                                 #  OBTAIN LOCATION FOR RESTART.
000089: 27,2065           60133                           AD       BUF2                                  #  HOLDS Q OF LAST DISPALY
000090: 27,2066           55247                           TS       TBASE1
000091:
000092: 27,2067           05415                           TC       PHASCHNG
000093: 27,2070           00071                           OCT      71                                    #  1.7SPOT FOR RELINUS
000094:
000095: 27,2071  01,2022               1P7SPT1            =        1.7SPOT
000096: 27,2071           34773                           CAF      BIT7
000097: 27,2072           05531                           TC       LINUS                                 #  GO SET BITS FOR PRIORITY DISPLAY      -
000098: 27,2073           00156                           TC       MPAC       +2
000099:
000100: 27,2074           34775        RELINUS            CAF      TRACKBIT                              #  IS TRACK FLAG ON
000101: 27,2075           70075                           MASK     FLAGWRD1
000102: 27,2076           00006                           EXTEND
000103: 27,2077           12123                           BZF      GOREDO20                              #  NO
000104:
000105: 27,2100           07710                           TC       UPFLAG
000106: 27,2101           00077                           ADRES    PDSPFLAG                              #  R60 PRIODSP FLAG
000107:
000108: 27,2102           30104                           CA       FLAGWRD8
000109: 27,2103           74771                           MASK     UTBIT
000110: 27,2104           10000                           CCS      A
000111: 27,2105           02120                           TC       RELINUSX                              #  UTFLAG SET,DO NOT SET TARG1FLG,OPTIND
000112: 27,2106           07710                           TC       UPFLAG
000113: 27,2107           00024                           ADRES    TARG1FLG                              #  FOR R52
000114:
000115: 27,2110           35003                           CAF      ZERO                                  #  RESET TO ZERO, SINCE
000116: 27,2111           55313                           TS       OPTIND                                #  OPTIND WAS SET TO -1 BY V379
000117:
000118: 27,2112           35001                           CAF      BIT1
000119: 27,2113           05246                           TC       WAITLIST
000120: 27,2114     1333                                  EBANK=   FIXTIME
000121: 27,2114           02264 60062                     2CADR    CTASK
000122:
000123: 27,2116           07710                           TC       UPFLAG
000124: 27,2117           00037                           ADRES    R21MARK                               #  ALLOW OPTICS MARKING DURING P2
000125:
000126: 27,2120           35065        RELINUSX           CAF      PRIO14                                #  RESTORE ORIGINAL PRIORITY
000127: 27,2121           05211                           TC       PRIOCHNG
000128:
000129: 27,2122           01247                           TC       TBASE1
000130:
000131: 27,2123           04666        GOREDO20           TC       POSTJUMP                              #  RESTORE R03 DEADBAND, DO STOPRATE,
000132: 27,2124           74662                           CADR     FIXDB                                 #   SET UP 1.11 RESTART, EOJ.
000133: 27,2125           31204        R61TEST            CA       MODREG                                #  ARE WE IN P00.  IF YES THIS MUST BE
000134: 27,2126           00006                           EXTEND                                         #      VERB49 OR VERB89 SO DO ENDEXT.
000135: 27,2127           12054                           BZF      ENDMANU1                              #  RESET 3-AXIS & RUTURN.  USER DOES ENDEXT
000136: 27,2130           30100                           CA       FLAGWRD4                              #  ARE WE IN R61 (P20)
000137: 27,2131           74766                           MASK     PDSPFBIT
000138: 27,2132           00006                           EXTEND
000139: 27,2133           14103                           BZF      GOTOPOOH                              #  NO
000140: 27,2134           04557                           TC       GOTOV56                               #  YES
000141:
000142:                                                                                                  #  PROGRAM DESCRIPTION - VECPOINT
000143:
000144:
000145:                                                                                                  #           THIS INTERPRETIVE SUBROUTINE MAY BE USED TO POINT A SPACECRAFT AXIS IN A DESIRED DIRECTION.  THE AXIS
000146:                                                                                                  #  TO BE POINTED MUST APPEAR AS A HALF UNIT DOUBLE PRECISION VECTOR IN SUCCESSIVE LOCATIONS OF ERASABLE MEMORY
000147:                                                                                                  #  BEGINNING WITH THE LOCATION CALLED SCAXIS.  THE COMPONENTS OF THIS VECTOR ARE GIVEN IN SPACECRAFT COORDINATES.
000148:                                                                                                  #  THE DIRECTION IN WHICH THIS AXIS IS TO BE POINTED MUST APPEAR AS A HALF UNIT DOUBLE PRECISION VECTOR IN
000149:                                                                                                  #  SUCCESSIVE LOCATIONS OF ERASABLE MEMORY BEGINNING WITH THE ADDRESS CALLED POINTVSM.  THE COMPONENTS OF THIS
000150:                                                                                                  #  VECTOR ARE GIVEN IN STABLE MEMBER COORDINATES.  WITH THIS INFORMATION VECPOINT COMPUTES A SET OF THREE GIMBAL
000151:                                                                                                  #  ANGLES (2S COMPLEMENT) CORRESPONDING TO THE CROSS-PRODUCT ROTATION BETWEEN SCAXIS AND POINTVSM AND STORES THEM
000152:                                                                                                  #  IN T(MPAC) BEFORE RETURNING TO THE CALLER.
000153:                                                                                                  #          THIS ROTATION, HOWEVER, MAY BRING THE S/C INTO GIMBAL LOCK.  WHEN POINTING A VECTOR IN THE Y-Z PLANE,
000154:                                                                                                  #  THE TRANSPONDER AXIS, OR THE AOT FOR THE LEM, THE PROGRAM WILL CORRECT THIS PROBLEM BY ROTATING THE CROSS-
000155:                                                                                                  #  PRODUCT ATTITUDE ABOUT POINTVSM BY A FIXED AMOUNT SUFFICIENT TO ROTATE THE DESIRED S/C ATTITUDE OUT OF GIMBAL
000156:                                                                                                  #  LOCK.  IF THE AXIS TO BE POINTED IS MORE THAN 40.6 DEGREES BUT LESS THAN 60.5 DEG FROM THE +X (OR -X) AXIS,
000157:                                                                                                  #  THE ADDITIONAL ROTATION TO AVOID GIMAL LOCK IS 35 DEGREES.  IF THE AXIS IS MORE THAN 60.5 DEGEES FROM +X (OR -X)
000158:                                                                                                  #  THE ADDITIONAL ROTATION IS 35 DEGREES.  THE GIMBAL ANGLES CORRESPONDING TO THIS ATTITUDE ARE THEN COMPUTED AND
000159:                                                                                                  #  STORED AS 2S COMPLIMENT ANGLES IN T(MPAC) BEFORE RETURNING TO THE CALLER.
000160:                                                                                                  #           WHEN POINTING THE X-AXIS, OR THE THRUST VECTOR, OR ANY VECTOR WITHIN 40.6 DEG OF THE X-AXIS, VECPOINT
000161:                                                                                                  #  CANNOT CORRECT FOR A CROSS-PRODUCT ROTATION INTO GIMBAL LOCK.  IN THIS CASE A PLATFORM REALIGNMENT WOULD BE
000162:                                                                                                  #  REQUIRED TO POINT THE VECTOR IN THE DESIRED DIRECTION.  AT PRESENT NO INDICATION IS GIVEN FOR THIS SITUATION
000163:                                                                                                  #  EXCEPT THAT THE FINAL MIDDLE GIMBAL ANGLE IN MPAC +2 IS GREATER THAN 59 DEGREES.
000164:
000165:                                                                                                  #  CALLING SEQUENCE -
000166:
000167:                                                                                                  #        1) LOAD SCAXIS, POINTVSM
000168:                                                                                                  #        2) CALL
000169:                                                                                                  #                VECPOINT
000170:
000171:                                                                                                  #  RETURNS WITH
000172:
000173:                                                                                                  #        1) DESIRED OUTER  GIMBAL ANGLE IN MPAC
000174:                                                                                                  #        2) DESIRED INNER  GIMBAL ANGLE IN MPAC +1
000175:                                                                                                  #        3) DESIRED MIDDLE GIMBAL ANGLE IN MPAC +2
000176:
000177:                                                                                                  #  ERASABLES USED -
000178:
000179:                                                                                                  #        1) SCAXIS                6
000180:                                                                                                  #        2) POINTVSM              6
000181:                                                                                                  #        3) MIS                  18
000182:                                                                                                  #        4) DEL                  18
000183:                                                                                                  #        5) COF                   6
000184:                                                                                                  #        6) VECQTEMP              1
000185:                                                                                                  #        7) ALL OF VAC AREA      43
000186:
000187:                                                                                                  #                        TOTAL   99
000188:
000189: 27,2000                                           SETLOC   VECPT
000190: 27,2000                                           BANK
000191: 27,2135  E6,1712                                  EBANK=   BCDU
000192:
000193: 27,2135                                           COUNT*   $$/VECPT
000194: 27,2135           40020        VECPOINT           STQ      BOV                                   #  SAVE RETURN ADDRESS
000195: 27,2136           03341                                    VECQTEMP
000196: 27,2137           56140                                    VECLEAR                               #  AND CLEAR OVFIND
000197: 27,2140           47164        VECLEAR            AXC,2    RTB
000198: 27,2141           02271                                    MIS                                   #  READ THE PRESENT CDU ANGLES AND
000199: 27,2142           44370                                    READCDUK                              #  STORE THEM IN PD25, 26, 27
000200: 27,2143           34032                           STCALL   25D
000201: 27,2144           44377                                    CDUTODCM                              #  S/C AXES TO STABLE MEMBER AXES (MIS)
000202: 27,2145           61375                           VLOAD    VXM
000203: 27,2146           03362                                    POINTVSM                              #  RESOLVE THE POINTING DIRECTION VF INTO
000204: 27,2147           02272                                    MIS                                   #  INITIAL S/C AXES (VF = POINTVSM)
000205: 27,2150           77656                           UNIT
000206: 27,2151           00035                           STORE    28D
000207:                                                                                                  #  PD 28 29 30 31 32 33
000208: 27,2152           53435                           VXV      UNIT                                  #  TAKE THE CROSS PRODUCT VF X VI
000209: 27,2153           03354                                    SCAXIS                                #  WHERE VI = SCAXIS
000210: 27,2154           57400                           BOV      VCOMP
000211: 27,2155           56265                                    PICKAXIS
000212: 27,2156           16314                           STODL    COF                                   #  CHECK MAGNITUDE
000213: 27,2157           00045                                    36D                                   #  OF CROSS PRODUCT
000214: 27,2160           50025                           DSU      BMN                                   #  VECTOR, IF LESS
000215: 27,2161           16336                                    DPB-14                                #  THAN B-14 ASSUME
000216: 27,2162           56265                                    PICKAXIS                              #  UNIT OPERATION
000217: 27,2163           50375                           VLOAD    DOT                                   #           INVALID.
000218: 27,2164           03354                                    SCAXIS
000219: 27,2165           00035                                    28D
000220: 27,2166           65552                           SL1      ARCCOS
000221: 27,2167           77624        COMPMATX           CALL                                           #  NOW COMPUTE THE TRANSFORMATION FROM
000222: 27,2170           44522                                    DELCOMP                               #  FINAL S/C AXES TO INITIAL S/C AXES    MFI
000223: 27,2171           75160                           AXC,1    AXC,2
000224: 27,2172           02271                                    MIS                                   #  COMPUTE THE TRANSFORMATION FROM FINAL
000225: 27,2173           03425                                    DEL                                   #  S/C AXES TO STABLE MEMBER AXES
000226: 27,2174           77624                           CALL                                           #  MFS = MIS MFI
000227: 27,2175           44304                                    MXM3                                  #  (IN PD LIST)
000228:
000229: 27,2176           51545                           DLOAD    ABS
000230: 27,2177           00007                                    6                                     #  MFS6 = SIN(CPSI)                      $2
000231: 27,2200           50025                           DSU      BMN
000232: 27,2201           16323                                    SINGIMLC                              #  = SIN(59 DEGS)                        $2
000233: 27,2202           56255                                    FINDGIMB                              #  /CPSI/ LESS THAN 59 DEGS
000234:                                                                                                  #  I.E. DESIRED ATTITUDE NOT IN GIMBAL LOCK
000235:
000236: 27,2203           51545                           DLOAD    ABS                                   #  CHECK TO SEE IF WE ARE POINTING
000237: 27,2204           03354                                    SCAXIS                                #  THE THRUST AXIS
000238: 27,2205           51025                           DSU      BPL
000239: 27,2206           16325                                    SINVEC1                               #  SIN 49.4 DEGS                         $2
000240: 27,2207           56255                                    FINDGIMB                              #  IF SO, WE ARE TRYING TO POINT IT INTO
000241: 27,2210           77775                           VLOAD                                          #  GIMBAL LOCK, ABORT COULD GO HERE
000242: 27,2211           77626                           STADR
000243: 27,2212           51471                           STOVL    MIS        +12D
000244: 27,2213           77626                           STADR                                          #  STORE MFS (IN PD LIST) IN MIS
000245: 27,2214           51477                           STOVL    MIS        +6
000246: 27,2215           77626                           STADR
000247: 27,2216           51505                           STOVL    MIS
000248: 27,2217           02300                                    MIS        +6                         #  INNER GIMBAL AXIS IN FINAL S/C AXES
000249: 27,2220           57444                           BPL      VCOMP                                 #  LOCATE THE IG AXIS DIRECTION CLOSEST TO
000250: 27,2221           56222                                    IGSAMEX                               #  FINAL X S/C AXIS
000251:
000252: 27,2222           50035        IGSAMEX            VXV      BMN                                   #  FIND THE SHORTEST WAY OF ROTATING THE
000253: 27,2223           03354                                    SCAXIS                                #  S/C OUT OF GIMBAL LOCK BY A ROTATION
000254: 27,2224           56231                                    U=SCAXIS                              #  ABOUT +- SCAXIS, I.E. IF  (IG (SGN MFS3)
000255:                                                                                                  #  X SCAXIS . XF) LESS THAN 0, U = SCAXIS
000256:                                                                                                  #  OTHERWISE U = -SCAXIS
000257:
000258: 27,2225           57575                           VLOAD    VCOMP
000259: 27,2226           03354                                    SCAXIS
000260: 27,2227           36314                           STCALL   COF                                   #  ROTATE ABOUT -SCAXIS
000261: 27,2230           56234                                    CHEKAXIS
000262: 27,2231           77775        U=SCAXIS           VLOAD
000263: 27,2232           03354                                    SCAXIS
000264: 27,2233           02314                           STORE    COF                                   #  ROTATE ABOUT + SCAXIS
000265: 27,2234           51545        CHEKAXIS           DLOAD    ABS
000266: 27,2235           03354                                    SCAXIS                                #  SEE IF WE ARE POINTING THE AOT
000267: 27,2236           51025                           DSU      BPL
000268: 27,2237           16327                                    SINVEC2                               #  SIN 29.5 DEGS                         $2
000269: 27,2240           56244                                    PICKANG1                              #  IF SO, ROTATE 50 DEGS ABOUT +- SCAXIS
000270: 27,2241           52145                           DLOAD    GOTO                                  #  IF NOT, MUST BE POINTING THE TRANSPONDER
000271: 27,2242           16333                                    VECANG2                               #  OR SOME VECTOR IN THE Y, OR Z PLANE
000272: 27,2243           56246                                    COMPMFSN                              #  IN THIS CASE ROTATE 35 DEGS TO GET OUT
000273:                                                                                                  #  OF GIMBAL LOCK (VECANG2  $360)
000274: 27,2244           77745        PICKANG1           DLOAD
000275: 27,2245           16331                                    VECANG1                               #  = 50 DEGS                           $ 360
000276: 27,2246           77624        COMPMFSN           CALL
000277: 27,2247           44522                                    DELCOMP                               #  COMPUTE THE ROTATION ABOUT SCAXIS TO
000278: 27,2250           75160                           AXC,1    AXC,2                                 #  BRING MFS OUT OF GIMBAL LOCK
000279: 27,2251           02271                                    MIS
000280: 27,2252           03425                                    DEL
000281: 27,2253           77624                           CALL                                           #  COMPUTE THE NEW TRANSFORMATION FROM
000282: 27,2254           44304                                    MXM3                                  #  DESIRED S/C AXES TO STABLE MEMBER AXES
000283:                                                                                                  #  WHICH WILL ALIGN VI WITH VF AND AVOID
000284:                                                                                                  #  GIMBAL LOCK
000285: 27,2255           45160        FINDGIMB           AXC,1    CALL
000286: 27,2256           00000                                    0                                     #  EXTRACT THE COMMANDED CDU ANGLES FROM
000287: 27,2257           44647                                    DCMTOCDU                              #  THIS MATRIX
000288: 27,2260           77634                           RTB
000289: 27,2261           45625                                    V1STO2S                               #  CONVERT TO 2:S COMPLEMENT
000290: 27,2262           52001        VECPTRET           SETPD    GOTO
000291: 27,2263           00001                                    0
000292: 27,2264           03341                                    VECQTEMP                              #  RETURN TO CALLER
000293:
000294: 27,2265           50375        PICKAXIS           VLOAD    DOT                                   #  IF VF X VI = 0, FIND VF . VI
000295: 27,2266           00035                                    28D
000296: 27,2267           03354                                    SCAXIS
000297: 27,2270           72240                           BMN      TLOAD
000298: 27,2271           56275                                    ROT180
000299: 27,2272           00032                                    25D
000300: 27,2273           77650                           GOTO                                           #  IF VF = VI, CDU DESIRED = PRESENT CDU
000301: 27,2274           56262                                    VECPTRET                              #  PRESENT CDU ANGLES
000302: 27,2275           47375        ROT180             VLOAD    VXV                                   #  IF VF, VI ANTIPARALLEL, 180 DEG ROTATION
000303: 27,2276           02300                                    MIS        +6                         #  IS REQUIRED. Y STABLE MEMBER AXIS IN
000304: 27,2277           15202                                    HIUNITX                               #  INITIAL S/C AXIS.
000305: 27,2300           47256                           UNIT     VXV                                   #  FIND Y(SM) X X(I)
000306: 27,2301           03354                                    SCAXIS                                #  FIND UNIT(VI X UNIT(Y(SM) X X(I)))
000307: 27,2302           40056                           UNIT     BOV                                   #  I.E. PICK A VECTOR IN THE PLANE OF X(I),
000308: 27,2303           56317                                    PICKX                                 #  Y(SM) PERPENDICULAR TO VI
000309: 27,2304           16314                           STODL    COF
000310: 27,2305           00045                                    36D                                   #  CHECK MAGNITUDE
000311: 27,2306           50025                           DSU      BMN                                   #  OF THIS VECTOR.
000312: 27,2307           16336                                    DPB-14                                #  IF LESS THAN B-14,
000313: 27,2310           56317                                    PICKX                                 #  PICK X-AXIS.
000314: 27,2311           77775                           VLOAD
000315: 27,2312           02314                                    COF
000316: 27,2313           16314        XROT               STODL    COF
000317: 27,2314           15202                                    HIDPHALF
000318: 27,2315           77650                           GOTO
000319: 27,2316           56167                                    COMPMATX
000320: 27,2317           52175        PICKX              VLOAD    GOTO                                  #  PICK THE XAXIS IN THIS CASE
000321: 27,2320           15202                                    HIUNITX
000322: 27,2321           56313                                    XROT
000323: 27,2000                                           SETLOC   MANUVER1
000324: 27,2000                                           BANK
000325:
000326: 27,2322                                           COUNT*   $$/VECPT
000327: 27,2322           15555 35172  SINGIMLC           2DEC     .4285836003                            #  = SIN(59)             $2
000328: 27,2324           14113 36326  SINVEC1            2DEC     .3796356537                            #  = SIN(49.4)           $2
000329: 27,2326           07701 35703  SINVEC2            2DEC     .2462117800                            #  = SIN(29.5)           $2
000330: 27,2330           04343 21616  VECANG1            2DEC     .1388888889                            #  = 50 DEGREES                        $360
000331: 27,2332           03070 34344  VECANG2            2DEC     .09722222222                            #  = 35 DEGREES                        $360
000332:
000333: 27,2334           00000        1BITDP             OCT      0                                     #  KEEP THIS BEFORE DPB(-14)      *********
000334: 27,2335           00001        DPB-14             OCT      00001
000335: 27,2336           00000                           OCT      00000
000336: 27,2000                                           SETLOC   MANUVER
000337: 27,2000                                           BANK
000338:
000339:                                                                                                  #  ROUTINE FOR INITIATING AUTOMATIC MANEUVER VIA KEYBOARD (V49)
000340:
000341: 27,2337     1277                                  EBANK=   CPHI
000342:
000343: 27,2337                                           COUNT*   $$/R62
000344: 27,2337           35040        R62DISP            CAF      V06N22                                #  DISPLAY COMMAND ICDUS CPHI, CTHETA, CPHI
000345: 27,2340           04647                           TC       BANKCALL
000346: 27,2341           20623                           CADR     GOFLASH
000347: 27,2342           15537                           TCF      ENDEXT
000348: 27,2343           12345                           TCF      GOMOVE                                #  PROCEED
000349: 27,2344           12337                           TCF      R62DISP                               #  ENTER
000350:
000351:                                                                                                  #  ASTRONAUT MAY LOAD NEW ICDUS AT THIS
000352:                                                                                                  #  POINT
000353: 27,2345           07710        GOMOVE             TC       UPFLAG                                #  SET 3-AXIS FLAG
000354: 27,2346           00124                           ADRES    3AXISFLG                              #  BIT 6  FLAG 5
000355: 27,2347           04647                           TC       BANKCALL
000356: 27,2350           56000                           CADR     R60CSM
000357:
000358: 27,2351           15537                           TCF      ENDEXT

End of include-file R60,R62.agc.  Parent file is MAIN.agc


