
Source Code


000002:                                                                                                  ## Copyright:   Public domain.
000003:                                                                                                  ## Filename:    RCS-CSM_DIGITAL_AUTOPILOT.agc
000004:                                                                                                  ## Purpose:     A section of Skylark revision 048.
000005:                                                                                                  ##              It is part of the source code for the Apollo Guidance Computer (AGC)
000006:                                                                                                  ##              for Skylab-2, Skylab-3, Skylab-4, and ASTP. No original listings of
000007:                                                                                                  ##              this software are available; instead, this file was created via
000008:                                                                                                  ##              disassembly of dumps of the core rope modules actually flown on
000009:                                                                                                  ##              Skylab-2. Access to these modules was provided by the New Mexico
000010:                                                                                                  ##              Museum of Space History.
000011:                                                                                                  ## Assembler:   yaYUL
000012:                                                                                                  ## Contact:     Ron Burkey <info@sandroid.org>.
000013:                                                                                                  ## Website:     www.ibiblio.org/apollo/index.html
000014:                                                                                                  ## Mod history: 2023-09-04 MAS  Created from Artemis 072.
000015:                                                                                                  ##              2024-03-05 MAS  Updated for Skylark 48.
000016:
000017:
000018:                                                                                                  #  T5 INTERRUPT PROGRAM FOR THE RCS-CSM AUTOPILOT
000019:                                                                                                  #        START OF T5 INTERRUPT PROGRAM
000020:
000021: 21,2000                                           SETLOC   DAPS3
000022: 21,2000                                           BANK
000023:
000024: 21,2043                                           COUNT*   $$/DAPRC
000025: 21,2043  E6,1537                                  EBANK=   KMPAC
000026: 21,2043           22016        REDORCS            LXCH     BANKRUPT                              #  RESTART OF AUTOPILOT COMES HERE
000027: 21,2044           31513                           CA       T5PHASE                               #  ON A T5 RUPT.
000028: 21,2045           00006                           EXTEND
000029: 21,2046           62050                           BZMF     +2                                    #  IF T5PHASE +0, -0, OR -, RESET TO -
000030: 21,2047           12052                           TCF      +3                                    #  IF T5PHASE +, LEAVE IT +.  DO A FRESHDAP
000031: 21,2050           45001                           CS       ONE
000032: 21,2051           55513                           TS       T5PHASE
000033: 21,2052           00006                           EXTEND
000034: 21,2053           32057                           DCA      RCSLOC
000035: 21,2054           52113                           DXCH     T5LOC                                 #  HOOK UP T5RUPT TO AUTOPILOT
000036: 21,2055           12061                           TCF      RCSATT     +1
000037: 21,2056  E6,1537                                  EBANK=   KMPAC
000038: 21,2056           02060 42066  RCSLOC             2CADR    RCSATT
000039:
000040:
000041: 21,2060           22016        RCSATT             LXCH     BANKRUPT                              #  SAVE BB
000042: 21,2061           00006                 +1        EXTEND                                         #  SAVE Q
000043: 21,2062           22012                           QXCH     QRUPT
000044: 21,2063           34763                           CAF      BIT15                                 #  BIT15 CHAN31 = 0 IF IMU POWER IS ON AND
000045: 21,2064           05627                           TC       C31BTCHK                              #  S/C CONT SW IS IN CMC (I.E. IF G/C DAP
000046: 21,2065           12110                           TCF      SETT5                                 #  IS FULLY ENABLED).     IF SO8
000047:                                                                                                  #  GO TO SETT5
000048:
000049: 21,2066           41530                           CS       RCSFLAGS                              #  IF G/C AUTOPILOT IS NOT FULLY ENABLED,
000050: 21,2067           74764                           MASK     BIT14
000051: 21,2070           27530                           ADS      RCSFLAGS                              #  SET NORATE FLAG,
000052: 21,2071           34761                           CAF      POSMAX
000053: 21,2072           55330                           TS       HOLDFLAG                              #  SET HOLDFLAG +,
000054: 21,2073           35003                           CAF      ZERO                                  #  ZERO ERRORX, ERRORY, AND ERRORZ,
000055: 21,2074           55620                           TS       ERRORX
000056: 21,2075           55621                           TS       ERRORY
000057: 21,2076           55622                           TS       ERRORZ
000058: 21,2077           34764                           CAF      BIT14
000059: 21,2100           05627                           TC       C31BTCHK                              #  AND CHECK FREE FUNCTION (BIT14 CHAN31)
000060: 21,2101           12110                           TCF      SETT5
000061: 21,2102           55513                           TS       T5PHASE                               #  IF NOT IN FREE MODE,
000062: 21,2103           37661                           CAF      OCT37766                              #  SCHEDULE REINITIALIZATION (FRESHDAP)
000063: 21,2104           54030                           TS       TIME5                                 #  IN 100 MS VIA T5RUPT
000064:
000065: 21,2105           02515                           TCR      ZEROJET                               #  ZERO JET CHANNELS IN 14 MS VIA ZEROJET
000066: 21,2106           12275                           TCF      KMATRIX
000067: 21,2107           37770        DELTATT            OCT      37770                                 #  80MS (TIME5)
000068: 21,2110     7663               DELTATT2           =        OCT37776                              #  20 MS (TIME5)
000069:
000070:                                                                                                  #  CHECK PHASE OF T5 PROGRAM
000071:
000072:                                                                                                  #      BECAUSE OF THE LENGTH OF THE T5 PROGRAM, IT HAS BEEN DIVIDED INTO
000073:                                                                                                  #  THREE PARTS, T5PHASE1, T5PHASE2, AND THE JET SELECTION LOGIC,
000074:                                                                                                  #  TO ALLOW FOR THE EXECUTION OF OTHER
000075:                                                                                                  #  INTERRUPTS.  T5PHASE IS ALSO USED IN THE INITIALIZATION OF THE AUTOPILOT
000076:                                                                                                  #  VARIABLES AT TURN ON.
000077:                                                                                                  #  THE CODING OF T5PHASE IS...
000078:
000079:                                                                                                  #             + = INITIALIZE T5 RCS-CSM AUTOPILOT
000080:                                                                                                  #  T5PHASE = +0 = PHASE2 OF THE T5 PROGRAM
000081:                                                                                                  #             - = RESTART DAP
000082:                                                                                                  #            -0 = PHASE1 OF THE T5 PROGRAM
000083:
000084: 21,2110           11513        SETT5              CCS      T5PHASE
000085: 21,2111           12353                           TCF      FRESHDAP                              #  TURN ON AUTOPILOT
000086: 21,2112           12553                           TCF      T5PHASE2                              #  BRANCH TO PHASE2 OF PROGRAM
000087: 21,2113           12355                           TCF      REDAP                                 #  RESTART AUTOPILOT
000088:
000089: 21,2114           55513                           TS       T5PHASE                               #  PHASE 1  RESET  FOR PHASE 2
000090: 21,2115           30030                           CA       TIME5
000091: 21,2116           55665                           TS       T5TIME                                #  USED IN COMPENSATING FOR DELAYS IN T5
000092: 21,2117           37663                           CAF      DELTATT2                              #  RESET FOR T5RUPT IN 20MS FOR PHASE2
000093: 21,2120           54030                           TS       TIME5                                 #  OF PROGRAM
000094:
000095:
000096:                                                                                                  #  IMU STATUS CHECK
000097:
000098: 21,2121           41324                           CS       IMODES33                              #  CHECK IMU STATUS
000099: 21,2122           74774                           MASK     NOIMUDAP                              #  BIT6 = 0 IMU OK
000100: 21,2123           10000                           CCS      A                                     #  BIT6 = 1 NO IMU
000101: 21,2124           12135                           TCF      RATEFILT
000102: 21,2125           41530        FREECHK            CS       RCSFLAGS                              #  BIT14 INDICATES THAT RATES HAVE NOT BEEN
000103: 21,2126           74764                           MASK     BIT14                                 #  INITIALIZED
000104: 21,2127           27530                           ADS      RCSFLAGS
000105: 21,2130           34764                           CAF      BIT14                                 #  NO ATTITUDE REFERENCE
000106: 21,2131           55330                           TS       HOLDFLAG                              #  STOP ANY AUTOMATIC STEERING AND PREPARE
000107:                                                                                                  #  TO PICK UP CDU ANGLES UPON RESUMPTION OF
000108:                                                                                                  #  ATTITUDE HOLD
000109: 21,2132           05627                           TC       C31BTCHK                              #  CHECK FOR FREE MODE
000110: 21,2133           12345                           TCF      KRESUME1                              #  IN FREE, PROVIDE FREE CONTROL ONLY
000111: 21,2134           12346                           TCF      REINIT                                #  .....TILT...............................
000112: 21,2135     5012               BITS4,5            =        BITS4&5
000113:
000114: 21,2135           31530        RATEFILT           CA       RCSFLAGS                              #  SEE IF RATEFILTER HAS BEEN INITIALIZED
000115: 21,2136           74764                           MASK     BIT14
000116: 21,2137           00006                           EXTEND                                         #  IF SO, PROCEED WITH RATE DERIVATION
000117: 21,2140           12142                           BZF      +2
000118: 21,2141           12275                           TCF      KMATRIX                               #  IF NOT, SKIP RATE DERIVATION
000119:
000120:                                                                                                  #                RATE FILTER     TIMING = 7.72 MS
000121:
000122:                                                                                                  #  RATE FILTER EQUATIONS
000123:                                                                                                  #  DRHO = DELRHO - (.1)ADOT + (1 - GAIN1)DRHO
000124:                                                                                                  #                                            -1
000125:                                                                                                  #  ADOT = ADOT   + GAIN2 DRHO + KMJ DFT
000126:                                                                                                  #             -1
000127:                                                                                                  #        -        *     -     -
000128:                                                                                                  #  WHERE DELRHO = AMGB (CDU - CDU  )
000129:                                                                                                  #                                -1
000130:
000131: 21,2142           35000                 +2        CAF      TWO
000132: 21,2143           55535        DRHOLOOP           TS       SPNDX
000133: 21,2144           60000                           DOUBLE
000134: 21,2145           55536                           TS       DPNDX
000135: 21,2146           51536                           INDEX    DPNDX
000136: 21,2147           41601                           CS       DRHO                                  #  DRHO SCALED 180 DEGS
000137: 21,2150           00006                           EXTEND
000138: 21,2151           51650                           INDEX    ATTKALMN                              #  PICK UP DESIRED FILTER GAIN
000139: 21,2152           73063                           MP       GAIN1
000140: 21,2153           51536                           INDEX    DPNDX
000141: 21,2154           21602                           DAS      DRHO                                  #  (1 -.064) DRHO
000142: 21,2155           00006                           EXTEND
000143: 21,2156           51536                           INDEX    DPNDX
000144: 21,2157           41563                           DCS      ADOT
000145: 21,2160           53540                           DXCH     KMPAC                                 #  -(.1)ADOT
000146: 21,2161           34765                           CA       QUARTER
000147: 21,2162           02000                           TC       SMALLMP
000148: 21,2163           53540                           DXCH     KMPAC
000149: 21,2164           51536                           INDEX    DPNDX
000150: 21,2165           21602                           DAS      DRHO
000151: 21,2166           11535                           CCS      SPNDX
000152: 21,2167           12143                           TCF      DRHOLOOP
000153:
000154: 21,2170           30032                           CA       CDUX                                  #  MEASURED BODY RATES--
000155: 21,2171           57666                           XCH      RHO
000156: 21,2172           00006                           EXTEND
000157: 21,2173           21666                           MSU      RHO                                   #  -        *     -     -
000158: 21,2174           40000                           COM                                            #  DELRHO = AMGB (CDU - CDU  )
000159:                                                                                                  #                          -1
000160: 21,2175           22007                           ZL
000161: 21,2176           53545                           DXCH     DELTEMPX
000162: 21,2177           30033                           CA       CDUY
000163: 21,2200           57667                           XCH      RHO1
000164: 21,2201           00006                           EXTEND
000165: 21,2202           21667                           MSU      RHO1
000166: 21,2203           40000                           COM
000167: 21,2204           55531                           TS       T5TEMP                                #  (CDUY - RHO1)    SCALED 90 DEGS
000168: 21,2205           00006                           EXTEND
000169: 21,2206           71671                           MP       AMGB1
000170: 21,2207           21545                           DAS      DELTEMPX                              #  DELTEMPX = (CDUX-RHO) + AMGB1(CDUY-RHO1)
000171:                                                                                                  #  MUST BE DOUBLE PRECISION OR WILL LOSE
000172:                                                                                                  #  PULSES
000173: 21,2210           31672                           CA       AMGB4
000174: 21,2211           00006                           EXTEND
000175: 21,2212           71531                           MP       T5TEMP
000176: 21,2213           53547                           DXCH     DELTEMPY
000177: 21,2214           31674                           CA       AMGB7
000178: 21,2215           00006                           EXTEND
000179: 21,2216           71531                           MP       T5TEMP
000180: 21,2217           53551                           DXCH     DELTEMPZ
000181: 21,2220           30034                           CA       CDUZ
000182: 21,2221           57670                           XCH      RHO2
000183: 21,2222           00006                           EXTEND
000184: 21,2223           21670                           MSU      RHO2
000185: 21,2224           40000                           COM
000186: 21,2225           55531                           TS       T5TEMP                                #  (CDUZ - RHO2)    SCALED 90 DEGS
000187: 21,2226           00006                           EXTEND
000188: 21,2227           71673                           MP       AMGB5
000189: 21,2230           21547                           DAS      DELTEMPY                              #  DELTEMPY = AMGB4(CDUY-RHO1)
000190:                                                                                                  #                   + AMGB5(CDUZ-RHO2)
000191: 21,2231           31675                           CA       AMGB8
000192: 21,2232           00006                           EXTEND
000193: 21,2233           71531                           MP       T5TEMP
000194: 21,2234           21551                           DAS      DELTEMPZ                              #  DELTEMPZ = AMGB7(CDUY-RHO1)
000195:                                                                                                  #                  + AMGB8(CDUZ-RHO2)
000196: 21,2235           35000                           CAF      TWO
000197: 21,2236           55535        ADOTLOOP           TS       SPNDX
000198: 21,2237           60000                           DOUBLE
000199: 21,2240           55536                           TS       DPNDX
000200: 21,2241           00006                           EXTEND
000201: 21,2242           51536                           INDEX    DPNDX
000202: 21,2243           31545                           DCA      DELTEMPX
000203: 21,2244           51536                           INDEX    DPNDX
000204: 21,2245           21602                           DAS      DRHO
000205: 21,2246           00006                           EXTEND
000206: 21,2247           51536                           INDEX    DPNDX
000207: 21,2250           31545                           DCA      DELTEMPX
000208: 21,2251           51536                           INDEX    DPNDX
000209: 21,2252           21571                           DAS      MERRORX
000210: 21,2253           51536                           INDEX    DPNDX
000211: 21,2254           31601                           CA       DRHO
000212: 21,2255           60000                           DOUBLE                                         #  N.B.
000213: 21,2256           60000                           DOUBLE                                         #  N.B.
000214: 21,2257           00006                           EXTEND
000215: 21,2260           51650                           INDEX    ATTKALMN                              #  PICK UP DESIRED FILTER GAINS
000216: 21,2261           73103                           MP       GAIN2
000217: 21,2262           51536                           INDEX    DPNDX                                 #  ADOT   + (.16)(.1)DRHO
000218: 21,2263           21563                           DAS      ADOT                                  #      -1
000219: 21,2264           51535                           INDEX    SPNDX                                 #  S/C TORQUE TO INERTIA RATIO
000220: 21,2265           31651                           CA       KMJ                                   #  SCALED (450)(1600)/(57.3)(16384)=1/1.3
000221: 21,2266           00006                           EXTEND
000222: 21,2267           51535                           INDEX    SPNDX
000223: 21,2270           71576                           MP       DFT
000224: 21,2271           51536                           INDEX    DPNDX
000225: 21,2272           21563                           DAS      ADOT                                  #  KMJ(DFT)
000226: 21,2273           11535                           CCS      SPNDX
000227: 21,2274           12236                           TCF      ADOTLOOP                              #  END CALCULATION OF VEHICLE RATES
000228: 21,2275           31607        KMATRIX            CA       ATTSEC
000229: 21,2276           75010                           MASK     LOW4
000230: 21,2277           10000                           CCS      A
000231: 21,2300           12306                           TCF      TENTHSEK
000232: 21,2301           37656                           CAF      PRIO34                                #  CALL FOR 1 SEC UPDATE OF TRANSFORMATION
000233: 21,2302           05134                           TC       NOVAC                                 #  MATRIX FROM GIMBAL AXES TO BODY AXES
000234: 21,2303  E6,1537                                  EBANK=   KMPAC
000235: 21,2303           03522 44066                     2CADR    AMBGUPDT
000236:
000237: 21,2305           34322                           CAF      NINE
000238:
000239: 21,2306           55607        TENTHSEK           TS       ATTSEC
000240:
000241:                                                                                                  #  WHEN AUTOMATIC MANEUVERS ARE BEING PERFORMED, THE FOLLOWING ANGLE ADDITION MUST BE MADE TO PROVIDE A SMOOTH
000242:                                                                                                  #  SEQUENCE OF ANGULAR COMMANDS TO THE AUTOPILOT--
000243:
000244:                                                                                                  #        CDUXD = CDUXD + DELCDUX         (DOUBLE PRECISION)
000245:                                                                                                  #        CDUYD = CDUYD + DELCDUY         (DOUBLE PRECISION)
000246:                                                                                                  #        CDUZD = CDUZD + DELCDUZ         (DOUBLE PRECISION)
000247:
000248:                                                                                                  #  THE STEERING PROGRAMS-
000249:                                                                                                  #        1) ATTITUDE MANEUVER ROUTINE
000250:                                                                                                  #        2) LEM TRACKING
000251:
000252:                                                                                                  #  SHOULD GENERATE THE DESIRED ANGLES (CDUXD, CDUYD, CDUZD) AS WELL AS THE INCREMENTAL ANGLES (DELCDUX, DELCDUY,
000253:                                                                                                  #  DELCDUZ) SO THAT THE GIMBAL ANGLE COMMANDS CAN BE INTERPOLATED BETWEEN UPDATES.
000254:
000255:                                                                                                  #  HOLDFLAG CODING-
000256:
000257:                                                                                                  #      + = GRAB PRESENT CDU ANGLES AND STORE IN THETADX, THETADY, THETADZ
000258:                                                                                                  #          AND PERFORM ATTITUDE HOLD ABOUT THESE ANGLES
000259:                                                                                                  #          ALSO IGNORE AUTOMATIC STEERING
000260:                                                                                                  #          SET = + BY
000261:                                                                                                  #                 1) INITIALIZATION PHASE OF AUTOPILOT
000262:                                                                                                  #                 2) OCCURANCE OF RHC COMMANDS
000263:                                                                                                  #                 3) FREE MODE
000264:                                                                                                  #                 4) SWITCH OVER TO ATTITUDE HOLD FROM AUTO
000265:                                                                                                  #                    WHILE DOING AUTOMATIC STEERING (IN THIS CASE
000266:                                                                                                  #                    HOLDFLAG IS NOT ACTUALLY SET TO +, BUT THE LOGIC
000267:                                                                                                  #                    FUNCTIONS AS IF IT WERE.)
000268:                                                                                                  #                 5) S/C CONTROL SWITCH IN SCS
000269:                                                                                                  #                 6) IMU POWER OFF
000270:                                                                                                  #      +0 = IN ATTITUDE HOLD ABOUT A PREVIOUSLY ESTABLISHED REFERENCE
000271:                                                                                                  #       - = PERFORMING AUTOMATIC MANEUVER
000272:                                                                                                  #      -0 = NOT USED AT PRESENT
000273:
000274:                                                                                                  #        NOTE THAT THIS FLAG MUST BE  SET = -  BY THE STEERING PROGRAM IF IT IS TO COMMAND THE AUTOPILOT.
000275:                                                                                                  #  SINCE ASTRONAUT ACTION MAY CHANGE THE HOLDFLAG SETTING, IT SHOULD BE MONITORED BY THE STEERING PROGRAM TO
000276:                                                                                                  #  DETERMINE IF THE AUTOMATIC SEQUENCE HAS BEEN INTERRUPTED AND IF SO, TAKE APPROPRIATE ACTION.
000277:
000278:
000279: 21,2307           41330                           CS       HOLDFLAG
000280: 21,2310           00006                           EXTEND
000281: 21,2311           62336                           BZMF     DACNDLS                               #  IF HOLDFLAG +0,-0,+, BYPASS AUTOMATIC
000282:                                                                                                  #  COMMANDS
000283: 21,2312           35000        DCDUINCR           CAF      TWO
000284: 21,2313           55535        DELOOP             TS       SPNDX
000285: 21,2314           60000                           DOUBLE
000286: 21,2315           55536                           TS       DPNDX
000287: 21,2316           00006                           EXTEND
000288: 21,2317           50000                           INDEX    A
000289: 21,2320           31700                           DCA      CDUXD
000290: 21,2321           53540                           DXCH     KMPAC
000291: 21,2322           00006                           EXTEND
000292: 21,2323           51536                           INDEX    DPNDX
000293: 21,2324           31627                           DCA      DELCDUX
000294: 21,2325           02012                           TC       DPADD
000295: 21,2326           00006                           EXTEND
000296: 21,2327           31540                           DCA      KMPAC
000297: 21,2330           51535                           INDEX    SPNDX
000298: 21,2331           55623                           TS       THETADX
000299: 21,2332           51536                           INDEX    DPNDX
000300: 21,2333           53700                           DXCH     CDUXD
000301: 21,2334           11535                           CCS      SPNDX
000302: 21,2335           12313                           TCF      DELOOP
000303:
000304:
000305:                                                                                                  #  RCS-CSM AUTOPILOT ATTITUDE ERROR DISPLAY
000306:
000307:                                                                                                  #  THREE TYPES OF ATTITUDE ERRORS MAY BE DISPLAYED ON THE FDAI-
000308:
000309:                                                                                                  #                MODE 1) AUTOPILOT FOLLOWING ERRORS              SELECTED BY V61E
000310:                                                                                                  #                        GENERATED INTERNALLY BY THE AUTOPILOT
000311:
000312:                                                                                                  #                MODE 2) TOTAL ATTITUDE ERRORS                   SELECTED BY V62E
000313:                                                                                                  #                        WITH RESPECT TO THE CONTENTS OF N22
000314:
000315:                                                                                                  #                MODE 3) TOTAL ASTRONAUT ATTITUDE ERRORS         SELECTED BY V63E
000316:                                                                                                  #                        WITH RESPECT TO THE CONTENTS OF N17
000317:
000318:                                                                                                  #  MODE 1 IS PROVIDED AS A MONITOR OF THE RCS DAP AND ITS ABILITY TO TRACK AUTOMATIC STEERING COMMANDS.  IN THIS
000319:                                                                                                  #  MODE THE ATTITUDE ERRORS WILL BE ZEROED WHEN THE CMC MODE SWITCH IS IN FREE
000320:
000321:                                                                                                  #  MODE 2 IS PROVIDED TO ASSIST THE CREW IN MANUALLY MANEUVERING THE S/C TO THE ATTITUDE (GIMBAL ANGLES) SPECIFIED
000322:                                                                                                  #  IN N22.  THE ATTITUDE ERRORS WRT THESE ANGLES AND THE CURRENT CDU ANGLES ARE RESOLVED INTO S/C CONTROL AXES
000323:                                                                                                  #  AS A FLY-TO INDICATOR.
000324:
000325:                                                                                                  #  MODE 3 IS PROVIDED TO ASSIST THE CREW IN MANUALLY MANEUVERING THE S/C TO THE ATTITUDE (GIMBAL ANGLES) SPECIFIED
000326:                                                                                                  #  IN N17.  THE ATTITUDE ERRORS WRT THESE ANGLES AND THE CURRENT CDU ANGLES ARE RESOLVED INTO S/C CONTROL AXES
000327:                                                                                                  #  AS A FLY-TO INDICATOR.
000328:
000329:                                                                                                  #     V60 IS PROVIDED TO LOAD N17 WITH A SNAPSHOT OF THE CURRENT CDU ANGLES, THUS SYNCHRONIZING THE MODE 3 DISPLAY
000330:                                                                                                  #  WITH THE CURRENT S/C ATTITUDE.  THIS VERB MAY BE USED AT ANY TIME.
000331:
000332:                                                                                                  #     THESE DISPLAYS WILL BE AVAILIABLE IN ANY MODE (AUTO, HOLD, FREE, G+N, OR SCS) ONCE THE RCS DAP HAS BEEN
000333:                                                                                                  #  INITIATED VIA V46E.  MODE 1, HOWEVER, WILL BE MEANINGFUL ONLY IN G+N AUTO OR HOLD.  THE CREW MAY PRESET (VIA
000334:                                                                                                  #  V25N17) AN ATTITUDE REFERENCE (DESIRED GIMBAL ANGLES) INTO N17 AT ANY TIME.
000335:
000336: 21,2336           41530        DACNDLS            CS       RCSFLAGS                              #  ALTERNATE  BETWEEN FDAIDSP1 AND FDAIDSP2
000337: 21,2337           74776                           MASK     BIT4
000338: 21,2340           00006                           EXTEND
000339: 21,2341           13146                           BZF      GOFDAI2
000340:
000341: 21,2342           27530        FDAIDSP1           ADS      RCSFLAGS
000342: 21,2343           04725                           TC       IBNKCALL
000343: 21,2344           31660                           CADR     NEEDLER
000344: 21,2345           15336        KRESUME1           TCF      RESUME                                #  END PHASE 1
000345:
000346:
000347:                                                                                                  #  FDAI ATTITUDE ERROR DISPLAY SUBROUTINE
000348:
000349:                                                                                                  #  PROGRAM DESCRIPTION:    D. KEENE   5/24/67
000350:
000351:                                                                                                  #      THIS SUBROUTINE IS USED TO DISPLAY ATTITUDE ERRORS ON THE FDAI VIA THE DIGITAL TO ANALOG CONVERTERS (DACS)
000352:                                                                                                  #  IN THE CDUS.  CARE IS TAKEN TO METER OUT THE APPROPRIATE NUMBER OF PULSES TO THE IMU ERROR COUNTERS AND PREVENT
000353:                                                                                                  #  OVERFLOW, TO CONTROL THE RELAY SEQUENCING, AND TO AVOID INTERFERENCE WITH THE COARSE ALIGN LOOP WHICH ALSO USES
000354:                                                                                                  #  THE DACS.
000355:
000356:
000357:                                                                                                  #  CALLING SEQUENCE:
000358:
000359:                                                                                                  #      DURING THE INITIALIZATION SECTION OF THE USER'S PROGRAM, BIT3 OF RCSFLAGS SHOULD BE SET TO INITIATE THE
000360:                                                                                                  #  TURN-ON SEQUENCE WITHIN THE NEEDLES PROGRAM:
000361:
000362:                                                                                                  #                CS      RCSFLAGS        IN EBANK6
000363:                                                                                                  #                MASK    BIT3
000364:                                                                                                  #                ADS     RCSFLAGS
000365:
000366:                                                                                                  #  THEREAFTER, THE ATTITUDE ERRORS GENERATED BY THE USER SHOULD BE TRANSFERED TO THE FOLLOWING LOCATIONS IN EBANK6:
000367:
000368:                                                                                                  #                AK      SCALED 180 DEGREES  NOTE: THESE LOCATIONS ARE SUBJECT
000369:                                                                                                  #                AK1     SCALED 180 DEGREES        TO CHANGE
000370:                                                                                                  #                AK2     SCALED 180 DEGREES
000371:
000372:                                                                                                  #  FULL SCALED DEFLECTION CORRESPONDS TO 16 7/8 DEGREES OF ATTITUDE ERROR
000373:                                                                                                  #                (= 384 BITS IN IMU ERROR COUNTER)
000374:
000375:                                                                                                  #  A CALL TO NEEDLER WILL THEN UPDATE THE DISPLAY:
000376:
000377:                                                                                                  #                INHINT
000378:                                                                                                  #                TC      IBNKCALL        NOTE: EBANK SHOULD BE SET TO E6
000379:                                                                                                  #                CADR    NEEDLER
000380:                                                                                                  #                RELINT
000381:
000382:                                                                                                  #      THIS PROCESS SHOULD BE REPEATED EACH TIME THE ERRORS ARE UPDATED.  AT LEAST 3 PASSES THRU THE PROGRAM ARE
000383:                                                                                                  #  REQUIRED BEFORE ANYTHING IS ACTUALLY DISPLAYED ON THE ERROR METERS.
000384:                                                                                                  #  NOTE: EACH CALL TO NEEDLER MUST BE SEPARATED BY AT LEAST 50MS TO ASSURE PROPER RELAY SEQUENCING.
000385:
000386:                                                                                                  #  ERASABLE USED:
000387:                                                                                                  #                        AK              CDUXCMD
000388:                                                                                                  #                        AK1             CDUYCMD
000389:                                                                                                  #                        AK2             CDUZCMD
000390:                                                                                                  #                        EDRIVEX         A,L,Q
000391:                                                                                                  #                        EDRIVEY         T5TEMP
000392:                                                                                                  #                        EDRIVEZ         SPNDX
000393:
000394:                                                                                                  #  SWITCHES:             RCSFLAGS        BITS 3,2
000395:
000396:                                                                                                  #  I/O CHANNELS:         CHAN12          BIT 4 (COARSE ALIGN - READ ONLY)
000397:                                                                                                  #                        CHAN12          BIT 6 (IMU ERROR COUNTER ENABLE)
000398:                                                                                                  #                        CHAN14          BIT 13,14,15 (DAC ACTIVITY)
000399:
000400:                                                                                                  #  SIGN CONVENTION<      AK = THETAC - THETA
000401:                                                                                                  #            WHERE       THETAC = COMMAND ANGLE
000402:                                                                                                  #                        THETA = PRESENT ANGLE
000403: 14,2000                                           SETLOC   DAPS9
000404: 14,2000                                           BANK
000405: 14,3660                                           COUNT*   $$/DAPRC
000406:
000407: 14,3660           34776        NEEDLER            CAF      BIT4                                  #  CHECK FOR COARSE ALIGN ENABLE
000408: 14,3661           00006                           EXTEND                                         #  IF IN COARSE ALIGN DO NOT USE IMU
000409: 14,3662           02012                           RAND     CHAN12                                #  ERROR COUNTERS. DONT USE NEEDLES
000410: 14,3663           00006                           EXTEND
000411: 14,3664           13671                           BZF      NEEDLER1
000412: 14,3665           41530        RCSINT             CS       RCSFLAGS                              #  SET BIT3 FOR INITIALIZATION PASS
000413: 14,3666           74777                           MASK     BIT3
000414: 14,3667           27530                           ADS      RCSFLAGS
000415: 14,3670           00002                           TC       Q
000416:
000417: 14,3671           31530        NEEDLER1           CA       RCSFLAGS
000418: 14,3672           76211                           MASK     SIX
000419: 14,3673           00006                           EXTEND
000420: 14,3674           13731                           BZF      NEEDLES3
000421: 14,3675           74777                           MASK     BIT3
000422: 14,3676           00006                           EXTEND
000423: 14,3677           13722                           BZF      NEEDLER2                              #  BIT3 = 0, BIT2 = 1
000424:
000425: 14,3700           44774                           CS       BIT6                                  #  FIRST PASS BIT3 = 1
000426: 14,3701           00006                           EXTEND                                         #  DISABLE IMU ERROR COUNTER TO ZERO DACS
000427: 14,3702           03012                           WAND     CHAN12                                #  MUST WAIT AT LEAST 60 MS BEFORE
000428: 14,3703           45003        NEEDLE11           CS       ZERO                                  #  ENABLING COUNTERS.
000429: 14,3704           55525                           TS       AK                                    #  ZERO THE INPUTS ON FIRST PASS
000430: 14,3705           55526                           TS       AK1
000431: 14,3706           55527                           TS       AK2
000432: 14,3707           55532                           TS       EDRIVEX                               #  ZERO THE DISPLAY REGISTERS
000433: 14,3710           55533                           TS       EDRIVEY
000434: 14,3711           55534                           TS       EDRIVEZ
000435: 14,3712           54050                           TS       CDUXCMD                               #  ZERO THE OUT COUNTERS
000436: 14,3713           54051                           TS       CDUYCMD
000437: 14,3714           54052                           TS       CDUZCMD
000438: 14,3715           46211                           CS       SIX                                   #  RESET RCSFLAGS FOR PASS2
000439: 14,3716           71530                           MASK     RCSFLAGS
000440: 14,3717           65000                           AD       BIT2
000441: 14,3720           55530                           TS       RCSFLAGS
000442: 14,3721           00002                           TC       Q                                     #  END PASS1
000443:
000444: 14,3722           34774        NEEDLER2           CAF      BIT6                                  #  ENABLE IMU ERROR COUNTERS
000445: 14,3723           00006                           EXTEND
000446: 14,3724           05012                           WOR      CHAN12
000447: 14,3725           46211                           CS       SIX                                   #  RESET RCSFLAGS TO DISPLAY ATTITUDE
000448: 14,3726           71530                           MASK     RCSFLAGS                              #  ERRORS    WAIT AT LEAST 4 MS FOR
000449: 14,3727           55530                           TS       RCSFLAGS                              #  RELAY CLOSURE
000450: 14,3730           00002                           TC       Q
000451:
000452:
000453: 14,3731           34774        NEEDLES3           CAF      BIT6                                  #  CHECK TO SEE IF IMU ERROR COUNTER
000454: 14,3732           00006                           EXTEND                                         #  IS ENABLED
000455: 14,3733           02012                           RAND     CHAN12
000456: 14,3734           00006                           EXTEND                                         #  IF NOT RECYCLE NEEDLES
000457: 14,3735           13665                           BZF      RCSINT
000458: 14,3736           35000        NEEDLES            CAF      TWO
000459: 14,3737           55535        DACLOOP            TS       SPNDX
000460: 14,3740           44765                           CS       QUARTER
000461: 14,3741           00006                           EXTEND
000462: 14,3742           51535                           INDEX    SPNDX
000463: 14,3743           71525                           MP       AK
000464: 14,3744           54001                           TS       L
000465: 14,3745           10000                           CCS      A
000466: 14,3746           33775                           CA       DACLIMIT
000467: 14,3747           13751                           TCF      +2
000468: 14,3750           43775                           CS       DACLIMIT
000469: 14,3751           60001                           AD       L
000470: 14,3752           55531                           TS       T5TEMP                                #  OVFLO CHK
000471: 14,3753           13757                           TCF      OVSPOT
000472: 14,3754           50000                           INDEX    A                                     #  ON OVERFLOW LIMIT OUTPUT TO +-384
000473: 14,3755           33775                           CAF      DACLIMIT
000474: 14,3756           54001                           TS       L
000475: 14,3757           51535        OVSPOT             INDEX    SPNDX
000476: 14,3760           41532                           CS       EDRIVEX                               #  CURRENT VALUE OF DAC
000477: 14,3761           60001                           AD       L
000478: 14,3762           51535                           INDEX    SPNDX
000479: 14,3763           26050                           ADS      CDUXCMD
000480: 14,3764           51535                           INDEX    SPNDX
000481: 14,3765           23532                           LXCH     EDRIVEX
000482: 14,3766           11535                           CCS      SPNDX
000483: 14,3767           13737                           TCF      DACLOOP
000484: 14,3770           37673                           CAF      13,14,15
000485: 14,3771           00006                           EXTEND
000486: 14,3772           05014        DRIVEDAC           WOR      CHAN14                                #  SET DAC ACTIVITY BITS
000487: 14,3773           00002                           TC       Q
000488:
000489: 14,3774           77177                           DEC      -384       B-14
000490: 14,3775           37200        DACLIMIT           DEC      16000      B-14
000491: 14,3776           00600                           DEC      384        B-14
000492:
000493: 21,2000                                           SETLOC   DAPS3
000494: 21,2000                                           BANK
000495: 21,2346                                           COUNT*   $$/DAPRC
000496:
000497: 21,2346           32352        REINIT             CAF      DELAY200                              #  ........TILT LOGIC
000498: 21,2347           54030                           TS       TIME5                                 #  REINITIALIZE DAP IN 200MS
000499: 21,2350           55513                           TS       T5PHASE
000500: 21,2351           15336                           TCF      RESUME
000501: 21,2352           37754        DELAY200           DEC      16364      B-14                       #  200MS
000502:
000503:
000504:                                                                                                  #  INITIALIZATION PROGRAM FOR RCS-CSM AUTOPILOT
000505:
000506:                                                                                                  #  THE FOLLOWING QUANTITIES WILL BE ZEROED AND SHOULD APPEAR IN CONSECUTIVE LOCATIONS IN MEMORY AFTER WBODY
000507:
000508:                                                                                                  #  WBODY   (+1)    DFT             TAU2
000509:                                                                                                  #  WBODY1  (+1)    DFT1            BIAS
000510:                                                                                                  #  WBODY2  (+1)    DFT2            BIAS1
000511:                                                                                                  #  ADOT    (+1)    DRHO   (+1)     BIAS2
000512:                                                                                                  #  ADOT1   (+1)    DRHO1  (+1)     ERRORX
000513:                                                                                                  #  ADOT2   (+1)    DRHO2  (+1)     ERRORY
000514:                                                                                                  #  MERRORX (+1)    ATTSEC          ERRORZ
000515:                                                                                                  #  MERRORY (+1)    TAU
000516:                                                                                                  #  MERRORZ (+1)    TAU1
000517:
000518: 21,2353           35001        FRESHDAP           CAF      ONE                                   #  RESET HOLDFLAG TO STOP AUTOMATIC
000519: 21,2354           55330                           TS       HOLDFLAG                              #  STEERING AND PREPARE TO PICK UP AN
000520:                                                                                                  #  ATTITUDE HOLD REFERENCE
000521:
000522: 21,2355           30077        REDAP              CA       FLAGWRD3
000523: 21,2356           74774                           MASK     45/46BIT
000524: 21,2357           00006                           EXTEND
000525: 21,2360           12362                           BZF      +2
000526: 21,2361           12434                           TCF      DKDLOAD
000527: 21,2362           54001                           TS       L
000528: 21,2363           53476                           DXCH     WHICHDAP
000529:
000530: 21,2364           04725                           TC       IBNKCALL                              #  DECODE DAPDATR1, DAPDATR2 FOR DEADBANDS
000531: 21,2365           40420                           CADR     S41.2                                 #  RATES, QUADFAILS, QUAD MANAGEMENT
000532:
000533: 21,2366           04725                           TC       IBNKCALL                              #  DECODE IXX, IAVG AND CONVERT
000534: 21,2367           40551                           CADR     S40.14                                #  TO AUTOPILOT GAINS
000535:
000536: 21,2370           32472                           CAF      NO.T5VAR                              #  NO. LOCATIONS TO BE ZEROED MINUS 2
000537:                                                                                                  #  NO.T5VAR MUST BE ODD *************
000538: 21,2371           10000        ZEROT5             CCS      A
000539: 21,2372           55535                           TS       SPNDX
000540: 21,2373           35003                           CAF      ZERO
000541: 21,2374           54001                           TS       L
000542: 21,2375           51535                           INDEX    SPNDX
000543: 21,2376           53556                           DXCH     WBODY      +1
000544: 21,2377           11535                           CCS      SPNDX
000545: 21,2400           12371                           TCF      ZEROT5
000546: 21,2401           55554                           TS       WBODY                                 #  ZERO LAST (FIRST) ONE
000547:
000548: 21,2402           02515                           TC       ZEROJET
000549: 21,2403           45003                           CS       ZERO
000550: 21,2404           55664                           TS       CHANTEMP                              #  INITIALIZE MINIMUM IMPULSE CONTROL
000551:
000552: 21,2405           55663                           TS       CH31TEMP                              #  INITIALIZE RHC POSITION MEMORY FOR
000553:                                                                                                  #  MANUAL RATE MODES
000554:
000555: 21,2406           51475                           INDEX    WHICHDAP
000556: 21,2407           32473                           CAF      =.24
000557: 21,2410           55705                           TS       SLOPE                                 #  INITIALIZE SWITCHING LOGIC SLOPE
000558:
000559: 21,2411           34777                           CAF      FOUR
000560: 21,2412           55665                           TS       T5TIME                                #  PHASE 0 RESETS FOR PHASE 2 INTERRUPT IN
000561:                                                                                                  #  60 MS. PHASE 2 RESETS FOR PHASE 1 RUPT
000562:                                                                                                  #  IN (80MS - T5TIME(40MS)). THEREFORE
000563:                                                                                                  #  PHASE 1 (RATEFILTER) BEGINS CYCLING 100
000564:                                                                                                  #  MS FROM NOW AND EVERY 100MS THEREAFTER
000565: 21,2413           35006                           CAF      ELEVEN
000566: 21,2414           55650                           TS       ATTKALMN                              #  RESET TO PICK UP KALMAN FILTER GAINS
000567:                                                                                                  #  TO INITIALIZE THE S/C ANGULAR RATES
000568: 21,2415           30032                           CA       CDUX
000569: 21,2416           55666                           TS       RHO
000570: 21,2417           30033                           CA       CDUY
000571: 21,2420           55667                           TS       RHO1
000572: 21,2421           30034                           CA       CDUZ
000573: 21,2422           55670                           TS       RHO2
000574: 21,2423           35003                           CAF      ZERO                                  #  RESET AUTOPILOT TO BEGIN EXECUTING
000575: 21,2424           55513                           TS       T5PHASE                               #  PHASE2 OF PROGRAM
000576:
000577: 21,2425           41324                           CS       IMODES33                              #  CHECK IMU STATUS
000578: 21,2426           74774                           MASK     NOIMUDAP                              #  IF BIT6 =0 IMU IN FINE ALIGN
000579: 21,2427           10000                           CCS      A                                     #  IF BIT6 = 1 IMU NOT READY
000580: 21,2430           12461                           TCF      IMUAOK
000581: 21,2431           55650                           TS       ATTKALMN                              #  CANNOT USE IMU
000582: 21,2432           32475                           CAF      RCSINITB                              #  PROVIDE FREE CONTROL ONLY
000583: 21,2433           12466                           TCF      RCSSWIT                               #  DONT START UP RATE FILTER
000584:                                                                                                  #  SIGNAL NO RATE FILTER
000585:
000586: 21,2434           35000        DKDLOAD            CAF      TWO
000587: 21,2435           54001                           TS       L
000588: 21,2436           35001                           CAF      ONE
000589: 21,2437           53476                           DXCH     WHICHDAP
000590:
000591: 21,2440           00006                           EXTEND
000592: 21,2441           31444                           DCA      KMJDCKD
000593: 21,2442           53652                           DXCH     KMJ
000594:
000595: 21,2443           00006                           EXTEND
000596: 21,2444           31446                           DCA      KMJ2DCKD
000597: 21,2445           53654                           DXCH     KMJ2
000598:
000599: 21,2446           00006                           EXTEND
000600: 21,2447           31450                           DCA      J/M1DCKD
000601: 21,2450           53656                           DXCH     J/M1
000602:
000603: 21,2451           31474                           CA       DKDB
000604: 21,2452           55706                           TS       ADB
000605: 21,2453           34763                           CA       NEGMAX
000606: 21,2454           55463                           TS       DAPZRUPT
000607: 21,2455           32460                           CA       OCT240
000608: 21,2456           55456                           TS       TIMEHOLD
000609: 21,2457           12370                           TCF      ZEROT5     -1
000610:
000611: 21,2460           00240        OCT240             OCT      240
000612:
000613: 21,2461           37656        IMUAOK             CAF      PRIO34                                #  START MATRIX INITIALIZATION
000614: 21,2462           05134                           TC       NOVAC                                 #  BYPASS IF IMU NOT IN FINE ALIGN
000615: 21,2463  E6,1537                                  EBANK=   KMPAC
000616: 21,2463           03522 44066                     2CADR    AMBGUPDT
000617:
000618: 21,2465           34777                           CAF      RCSINIT                               #  CLEAR BIT14 -ASSUME WE HAVE A GOOD IMU
000619: 21,2466           55530        RCSSWIT            TS       RCSFLAGS                              #  CLEAR BIT1  -INITIALIZE T6 PROGRAM
000620:                                                                                                  #    SET BIT3  -INITIALIZE NEEDLES
000621:                                                                                                  #  CLEAR BIT4  -RESET FOR FDAIDSP1
000622: 21,2467           32476                           CAF      T5WAIT60                              #  NEXT T5RUPT 60 MS FROM NOW TO ALLOW IMU
000623:                                                                                                  #  ERROR COUNTER TO ZERO.
000624:                                                                                                  #  (MINIMUM DELAY = 15 MS)
000625: 21,2470           54030                           TS       TIME5                                 #  SINCE ATTKALMN IS +11, PROGRAM WILL THEN
000626: 21,2471           05336                           TC       RESUME                                #  PICK UP THE KALMAN FILTER GAINS. RATE
000627:                                                                                                  #  FILTER WILL BEGIN OPERATING ZOOMS FROM
000628:                                                                                                  #  NOW
000629:
000630:                                                                                                  #  CONSTANTS USED IN INITIALIZATION PROGRAM
000631:
000632:
000633: 21,2472           00045        NO.T5VAR           DEC      37         B-14                       #  NO. OF LOCATIONS TO BE ZEROED
000634:                                                                                                  #  MINUS 2...MUST BE ODD
000635:
000636:                                                                                                  #  FOR AN EVEN NUMBER OF VARIABLES TO BE ZEROED....
000637:                                                                                                  #   * SET NO.T5VAR EQUAL TO NUMBER OF VARIABLES MINUS 1
000638:                                                                                                  #   * DO DXCH WBODY INSTEAD OF WBODY + 1
000639:                                                                                                  #   * DELETE TS WBODY
000640:
000641: 21,2473           07534        =.24               DEC      .24                                   #  = SLOPE OF 0.6/SEC
000642: 21,2474           03656                           DEC      .12                                   #  = SLOPE OF 0.3/SEC
000643: 21,2475     4777               RCSINIT            =        BIT3
000644: 21,2475           20004        RCSINITB           OCT      20004
000645:
000646:
000647: 21,2476           37772        T5WAIT60           DEC      16378      B-14                       #  = 6 CS
000648: 21,2477  E6,1537                                  EBANK=   KMPAC
000649: 21,2477           03644 36066  T6ADDR             2CADR    T6START
000650:
000651: 21,2501           35003        DKDZERO            CAF      ZERO
000652: 21,2502           55661                           TS       5WORD
000653: 21,2503           55662                           TS       6WORD
000654: 21,2504           55466                           TS       5AXW
000655: 21,2505           55467                           TS       5BXW
000656: 21,2506           55465                           TS       INHIBIT
000657: 21,2507           34771                           CAF      BIT9
000658: 21,2510           55660                           TS       NEXT6INT
000659: 21,2511           12534                           TCF      ZOT
000660:
000661: 21,2512           62524        -75DEGS            DEC      -.41666                               #  -75 DEGS IN REVS * 2
000662:


000664: 21,2513           44777        DOCKED             CS       FOUR
000665: 21,2514           12612                           TCF      NOHIAUTO
000666:
000667:
000668: 21,2515           35006        ZEROJET            CAF      ELEVEN                                #  ZERO  BLAST2, BLAST1, BLAST, YWORD2,
000669: 21,2516           55535                 +1        TS       SPNDX                                 #  YWORD1,PWORD2,PWORD1,RWORD2,
000670: 21,2517           35003                           CAF      ZERO                                  #  AND RWORD1.
000671: 21,2520           51535                           INDEX    SPNDX
000672: 21,2521           55477                           TS       RWORD1
000673: 21,2522           11535                           CCS      SPNDX
000674: 21,2523           12516                           TCF      ZEROJET    +1
000675:
000676: 21,2524           51475                           INDEX    WHICHDAP
000677: 21,2525           12526                           TCF      +1
000678: 21,2526           12530                           TCF      +2
000679: 21,2527           12501                           TCF      DKDZERO
000680:
000681: 21,2530           34777                           CAF      FOUR
000682: 21,2531           55510                           TS       BLAST1     +1
000683: 21,2532           35006                           CAF      ELEVEN
000684: 21,2533           55512                           TS       BLAST2     +1
000685:
000686: 21,2534           45001        ZOT                CS       BIT1
000687: 21,2535           71530                           MASK     RCSFLAGS
000688: 21,2536           55530                           TS       RCSFLAGS                              #  RESET BIT1 OF RCSFLAGS TO 0
000689:
000690: 21,2537           00006                           EXTEND
000691: 21,2540           32500                           DCA      T6ADDR
000692: 21,2541           52111                           DXCH     T6LOC
000693: 21,2542           34626                           CAF      =+14MS                                #  ENABLE T6RUPT TO SHUT OFF JETS IN 14 MS.
000694: 21,2543           54031                           TS       TIME6
000695: 21,2544           00006                           EXTEND
000696: 21,2545           22070                           QXCH     RUPTREG1
000697: 21,2546           04553                           TC       C13STALL
000698: 21,2547           34763                           CAF      BIT15
000699: 21,2550           00006                           EXTEND
000700: 21,2551           05013                           WOR      CHAN13
000701:
000702: 21,2552           00070                           TC       RUPTREG1
000703:
000704: 21,2553           11650        T5PHASE2           CCS      ATTKALMN                              #  IF (+) INITIALIZE RATE ESTIMATE
000705: 21,2554           13134                           TCF      KALUPDT
000706:
000707:
000708: 21,2555           12557                           TCF      +2                                    #  ONLY IF ATTKALMN POSITIVE
000709: 21,2556           12557                           TCF      +1
000710: 21,2557           37663                           CA       DELTATT2                              #  RESET FOR PHASE3 IN 20 MS
000711: 21,2560           56030                           XCH      TIME5                                 #  (JET SELECTION LOGIC )
000712: 21,2561           27665                           ADS      T5TIME                                #  TO COMPENSATE FOR DELAYS IN T5RUPT
000713:
000714:
000715: 21,2562           10034                           CCS      CDUZ
000716: 21,2563           12567                           TCF      GIMBY                                 #  +(
000717: 21,2564           12601                           TCF      OKGIMB                                #  +0
000718: 21,2565           12567                           TCF      GIMBY                                 #  -N
000719: 21,2566           12601                           TCF      OKGIMB                                #  -0
000720: 21,2567           62512        GIMBY              AD       -75DEGS
000721: 21,2570           00006                           EXTEND
000722: 21,2571           62601                           BZMF     OKGIMB
000723:
000724: 21,2572           07710                           TC       UPFLAG                                #  ATTITUDE HOLD WHEN MIDDLE GIMBAL ANGLE
000725: 21,2573           00020                           ADRES    STIKFLAG                              #    GREATER THAN 75 DEGREES
000726: 21,2574           11330                           CCS      HOLDFLAG
000727: 21,2575           12601                           TCF      OKGIMB
000728: 21,2576           12601                           TCF      OKGIMB
000729: 21,2577           35003                           CAF      ZERO
000730: 21,2600           55330                           TS       HOLDFLAG
000731:
000732: 21,2601           51475        OKGIMB             INDEX    WHICHDAP
000733: 21,2602           12603                           TCF      +1
000734: 21,2603           12605                           TCF      +2
000735: 21,2604           12513                           TCF      DOCKED
000736:
000737: 21,2605           31530                           CA       RCSFLAGS                              #  IF A HIGH RATE AUTO MANEUVER IS IN
000738: 21,2606           74763                           MASK     BIT15                                 #  PROGRESS (BIT 15 OF RCSFLAGS SET), SET
000739: 21,2607           00006                           EXTEND                                         #  ATTKALMN TO -1
000740: 21,2610           12612                           BZF      NOHIAUTO                              #  OTHERWISE SET ATTKALMN TO 0.
000741: 21,2611           45001                           CS       ONE
000742: 21,2612           55650        NOHIAUTO           TS       ATTKALMN
000743:
000744:
000745:                                                                                                  #        MANUAL ROTATION COMMANDS
000746:
000747: 21,2613           43001                           CS       OCT01760                              #  RESET FORCED FIRING BITS (BITS 10 TO 5
000748: 21,2614           71530                           MASK     RCSFLAGS                              #  OF RCSFLAGS) TO ZERO
000749: 21,2615           55530                           TS       RCSFLAGS
000750:
000751: 21,2616           00006                           EXTEND
000752: 21,2617           00031                           READ     CHAN31
000753: 21,2620           54001                           TS       L
000754: 21,2621           31663                           CA       CH31TEMP
000755: 21,2622           00006                           EXTEND
000756: 21,2623           06001                           RXOR     LCHAN
000757: 21,2624           73005                           MASK     MANROT                                #  = OCT00077
000758: 21,2625           00006                           EXTEND
000759: 21,2626           62646                           BZMF     NOCHANGE
000760:
000761: 21,2627           22000                           LXCH     A
000762: 21,2630           55663                           TS       CH31TEMP                              #  SAVE CONTENTS OF CHANNEL 31 IN CH31TEMP
000763:
000764: 21,2631           30001                           CA       L
000765: 21,2632           00006                           EXTEND
000766: 21,2633           74775                           MP       BIT5                                  #  PUT BITS 6-1 OF A IN BITS 10-5 OF L
000767: 21,2634           30001                           CA       L
000768: 21,2635           27530                           ADS      RCSFLAGS                              #  SET FORCED FIRING BITS FOR AXES WITH
000769:                                                                                                  #  WITH CHANGES IN COMMAND. BITS 10,9 FOR
000770:                                                                                                  #  ROLL, BITS 8,7 FOR YAW, BITS 6,5 FOR
000771:                                                                                                  #  PITCH
000772:
000773: 21,2636           41530                           CS       RCSFLAGS                              #  SET RATE DAMPING FLAGS (BITS 13,12,AND
000774: 21,2637           75067                           MASK     OCT16000                              #  11 OF RCSFLAGS)
000775: 21,2640           27530                           ADS      RCSFLAGS
000776:
000777: 21,2641           51475                           INDEX    WHICHDAP
000778: 21,2642           12643                           TCF      +1
000779: 21,2643           12646                           TCF      NOCHANGE
000780:
000781: 21,2644           45003                           CS       ZERO
000782: 21,2645           55465                           TS       INHIBIT
000783:
000784: 21,2646           41663        NOCHANGE           CS       CH31TEMP
000785: 21,2647           73005                           MASK     MANROT
000786: 21,2650           00006                           EXTEND
000787: 21,2651           63150                           BZMF     AHFNOROT                              #  IF NO MANUAL COMMANDS, GO TO AHFNOROT
000788:
000789: 21,2652           55330                           TS       HOLDFLAG                              #  SET HOLDFLAG +
000790:
000791: 21,2653           03116                           TC       STICKCHK                              #  WHEN THE RHC IS OUT OF DETENT, PMANNDX,
000792:                                                                                                  #  YMANNDX, AND RMANNDX ARE ALL SET, BY
000793:                                                                                                  #  MEANS OF STICKCHK, TO 0, 1, OR 2 FOR NO,
000794:                                                                                                  #  +, OR - ROTATION RESPECTIVELY AS
000795:                                                                                                  #  COMMANDED BY THE RHC.
000796:
000797:                                                                                                  #  HOWEVER, IT IS WELL TO NOTE THAT AFTER
000798:                                                                                                  #  THE RHC IS RETURNED TO DETENT, THE
000799:                                                                                                  #  PROGRAM BRANCHES TO AHFNOROT AND AVOIDS
000800:                                                                                                  #  STICKCHK SO PMANNDX, YMANNDX, AND
000801:                                                                                                  #  RMANNDX ARE NOT RESET TO ZERO BUT RATHER
000802:                                                                                                  #  LEFT SET TO THEIR LAST OUT OF DETENT
000803:                                                                                                  #  VALUES.
000804:
000805: 21,2654           40075                           CS       FLAGWRD1                              #  SET STIKFLAG TO INFORM STEERING
000806: 21,2655           74764                           MASK     STIKBIT                               #  PROGRAMS (P20) THAT ASTRONAUT HAS
000807: 21,2656           26075                           ADS      FLAGWRD1                              #  ASSUMED ROTATIONAL CONTROL OF SPACECRAFT
000808:
000809: 21,2657           34764                           CAF      BIT14
000810: 21,2660           05627                           TC       C31BTCHK
000811: 21,2661           13016                           TCF      FREEFUNC
000812: 21,2662           31530                           CA       RCSFLAGS                              #  EXAMINE RCSFLAGS TO SEE IF RATE FILTER
000813: 21,2663           74764                           MASK     BIT14                                 #  HAS BEEN INITIALIZED
000814: 21,2664           10000                           CCS      A                                     #  IF SO, PROCEED WITH MANUAL RATE COMMANDS
000815: 21,2665           12346                           TCF      REINIT                                #  .....TILT, RECYCLE TO INITIALIZE FILTER
000816:
000817: 21,2666           45004                           CS       FIVE                                  #  IF MANUAL MANEUVER IS AT HIGH RATE, SET
000818: 21,2667           60767                           AD       RATEINDX                              #  ATTKALMN TO -1.
000819: 21,2670           00006                           EXTEND                                         #  OTHERWISE, LEAVE ATTKALMN ALONE.
000820: 21,2671           62674                           BZMF     +3
000821: 21,2672           45001                           CS       ONE
000822: 21,2673           55650                           TS       ATTKALMN
000823:
000824:
000825: 21,2674           35000                           CAF      TWO                                   #  AUTO-HOLD MANUAL ROTATION
000826: 21,2675           55535        SETWBODY           TS       SPNDX
000827: 21,2676           60000                           DOUBLE
000828: 21,2677           55536                           TS       DPNDX
000829: 21,2700           51535                           INDEX    SPNDX                                 #  RMANNDX = 0 NO ROTATION
000830: 21,2701           31707                           CA       RMANNDX                               #          = 1  + ROTATION
000831: 21,2702           00006                           EXTEND                                         #          = 2  - ROTATION
000832: 21,2703           12731                           BZF      NORATE                                #  IF NO ROTATION COMMAND ON THIS AXIS,
000833:                                                                                                  #  GO TO NORATE.
000834:
000835: 21,2704           51475                           INDEX    WHICHDAP
000836: 21,2705           12706                           TCF      +1
000837: 21,2706           12710                           TCF      +2
000838: 21,2707           12762                           TCF      GETDKRAT
000839:
000840: 21,2710           60767                           AD       RATEINDX                              #  RATEINDX = 0  0.05 DEG/SEC
000841: 21,2711           54002                           TS       Q                                     #           = 2  0.2 DEG/SEC
000842: 21,2712           50002                           INDEX    Q                                     #           = 4  0.5 DEG/SEC
000843: 21,2713           33005                           CA       MANTABLE   -1                         #           = 6  2.0 DEG/SEC


000845: 21,2714           00006        WBODYSET           EXTEND
000846: 21,2715           74771                           MP       BIT9                                  #  MULTIPLY MANTABLE BY 2 TO THE -6
000847: 21,2716           51536                           INDEX    DPNDX                                 #  TO GET COMMANDED RATE.
000848: 21,2717           53555                           DXCH     WBODY                                 #  SET WBODY TO COMMANDED RATE.
000849:
000850: 21,2720           31530                           CA       RCSFLAGS
000851: 21,2721           75067                           MASK     OCT16000                              #  IS RATE DAMPING COMPLETED (BITS 13,12 AND
000852: 21,2722           00006                           EXTEND                                         #  11 OF RCSFLAGS ALL ZERO.)  IF SO, GO TO
000853: 21,2723           12741                           BZF      MERUPDAT                              #  MERUPDAT TO UPDATE CUMULATIVE ATTITUDE
000854:                                                                                                  #  ERROR.
000855:
000856: 21,2724           35003        ZEROER             CA       ZERO                                  #  ZEROER ZEROS MERRORS
000857: 21,2725           22007                           ZL
000858: 21,2726           51536                           INDEX    DPNDX
000859: 21,2727           53571                           DXCH     MERRORX
000860: 21,2730           12753                           TCF      SPNDXCHK
000861:
000862: 21,2731           22007        NORATE             ZL
000863: 21,2732           51536                           INDEX    DPNDX
000864: 21,2733           53555                           DXCH     WBODY                                 #  ZERO WBODY FOR THIS AXIS
000865: 21,2734           31530                           CA       RCSFLAGS
000866: 21,2735           75067                           MASK     OCT16000
000867: 21,2736           00006                           EXTEND                                         #  IS RATE DAMPING COMPLETED
000868: 21,2737           12753                           BZF      SPNDXCHK                              #  YES, KEEP CURRENT MERRORX GO TO SPNDXCHK
000869: 21,2740           12724                           TCF      ZEROER                                #  NO, GO TO ZEROER
000870:
000871: 21,2741           51475        MERUPDAT           INDEX    WHICHDAP
000872: 21,2742           12743                           TCF      +1
000873: 21,2743           12745                           TCF      +2
000874: 21,2744           12771                           TCF      GETDKCMD
000875:
000876: 21,2745           50002                           INDEX    Q                                     #  MERRORX=MERRORX+MEASURED CHANGE IN ANGLE
000877: 21,2746           43005                           CS       MANTABLE   -1                         #  -COMMANDED CHANGE IN ANGLE


000879: 21,2747           00006        UPDATMER           EXTEND                                         #  THE ADDITION OF MEASURED CHANGE IN ANGLE
000880: 21,2750           74773                           MP       BIT7                                  #  HAS ALREADY BEEN DONE IN THE RATE FILTER
000881: 21,2751           51536                           INDEX    DPNDX                                 #  COMMANDED CHANGE IN ANGLE = WBODY TIMES
000882: 21,2752           21571                           DAS      MERRORX                               #  .1SEC = MANTABLE ENTRY TIMES 2 TO THE -8
000883:
000884: 21,2753           51536        SPNDXCHK           INDEX    DPNDX
000885: 21,2754           31570                           CA       MERRORX
000886: 21,2755           51535                           INDEX    SPNDX
000887: 21,2756           55620                           TS       ERRORX                                #  ERRORX = HIGH ORDER WORD OF MERRORX
000888: 21,2757           11535                           CCS      SPNDX
000889: 21,2760           12675                           TCF      SETWBODY
000890: 21,2761           13366                           TCF      JETS
000891:
000892: 21,2762           50000        GETDKRAT           INDEX    A
000893: 21,2763           12763                           TCF      +0
000894: 21,2764           12767                           TCF      +3
000895:
000896: 21,2765           41473                           CS       DKRATE
000897: 21,2766           12714                           TCF      WBODYSET
000898:
000899: 21,2767           31473                           CA       DKRATE
000900: 21,2770           12714                           TCF      WBODYSET
000901:


000903: 21,2771           51535        GETDKCMD           INDEX    SPNDX
000904: 21,2772           51707                           INDEX    RMANNDX
000905: 21,2773           12773                           TCF      +0
000906: 21,2774           12777                           TCF      +3
000907:
000908: 21,2775           31473                           CA       DKRATE
000909: 21,2776           12747                           TCF      UPDATMER
000910:
000911: 21,2777           41473                           CS       DKRATE
000912: 21,3000           12747                           TCF      UPDATMER
000913:
000914: 21,3001           01760        OCT01760           OCT      01760                                 #  FORCED FIRING BITS MASK
000915:
000916: 21,3002           01400        OCT01400           OCT      01400                                 #  ROLL FORCED FIRING MASK       ORDER OF
000917: 21,3003           00060        OCT00060           OCT      00060                                 #  PITCH FORCED FIRING MASK      DEFINITION
000918: 21,3004           00300        OCT00300           OCT      00300                                 #  YAW FORCED FIRING MASK        MUST BE
000919:                                                                                                  #                                PRESERVED
000920:                                                                                                  #                              FOR INDEXING
000921: 21,3005           00077        MANROT             OCT      77
000922: 21,3006     5067               OCT16000           =        PRIO16                                #  RATE DAMPING FLAGS MASK
000923: 21,3006           00165        MANTABLE           DEC      .0071111
000924: 21,3007           77612                           DEC      -.0071111
000925: 21,3010           00722                           DEC      .028444
000926: 21,3011           77055                           DEC      -0.028444
000927: 21,3012           02215                           DEC      .071111
000928: 21,3013           75562                           DEC      -.071111
000929: 21,3014           11064                           DEC      .284444
000930: 21,3015           66713                           DEC      -.284444
000931: 21,3016     4626               =+14MS             =        DEC23
000932: 21,3016           31530        FREEFUNC           CA       RCSFLAGS
000933: 21,3017           00006                           EXTEND
000934: 21,3020           74767                           MP       BIT11                                 #  SHIFT RIGHT 4 BITS
000935: 21,3021           55531                           TS       T5TEMP
000936: 21,3022           41663                           CS       CH31TEMP
000937: 21,3023           71531                           MASK     T5TEMP                                #  A= COMPLEMENT OF NEW CH 31 COMMANDS
000938: 21,3024           51475                           INDEX    WHICHDAP
000939: 21,3025           13026                           TCF      +1
000940: 21,3026           13176                           TCF      RHCMINP
000941:
000942: 21,3027           73005        DKRHCIMP           MASK     MANROT
000943: 21,3030           03116                           TC       STICKCHK
000944: 21,3031           51707                           INDEX    RMANNDX
000945: 21,3032           34616                           CAF      200MST6    -1
000946: 21,3033           55610                           TS       TAU
000947: 21,3034           51710                           INDEX    PMANNDX
000948: 21,3035           34616                           CAF      200MST6    -1
000949: 21,3036           55611                           TS       TAU1
000950: 21,3037           55707                           TS       TAUZ
000951: 21,3040           51711                           INDEX    YMANNDX
000952: 21,3041           34616                           CAF      200MST6    -1
000953: 21,3042           55612                           TS       TAU2
000954: 21,3043           40000                           COM
000955: 21,3044           55710                           TS       TAUY
000956:
000957: 21,3045           35003        T6PROGM            CAF      ZERO                                  #  FOR MANUAL ROTATIONS
000958: 21,3046           55620                           TS       ERRORX
000959: 21,3047           55621                           TS       ERRORY
000960: 21,3050           55622                           TS       ERRORZ
000961: 21,3051           13740                           TCF      T6PROG
000962:
000963:
000964: 21,3052           00000        FREETAU            DEC      0          B-14
000965: 21,3053           00740                           DEC      480        B-14
000966: 21,3054           77037                           DEC      -480       B-14
000967: 21,3055           00000                           DEC      0          B-14
000968:
000969:
000970: 21,3056           02031                           DEC      .0640
000971: 21,3057           02031                           DEC      .0640
000972: 21,3060           06604                           DEC      .2112                                 #  FILTER GAIN FOR TRANSLATION, LEM ON
000973: 21,3061           32703                           DEC      .8400                                 #  FILTER GAIN FOR TRANSLATION 2(ZETA)WN DT
000974: 21,3062           06604                           DEC      .2112                                 #  FILTER GAIN FOR 2 DEGREES/SEC MANEUVERS
000975: 21,3063           02031        GAIN1              DEC      .0640                                 #  KALMAN FILTER GAINS FOR INITIALIZATION
000976: 21,3064           12132                           DEC      .3180                                 #  OF ATTITUDE RATES
000977: 21,3065           13030                           DEC      .3452
000978: 21,3066           14047                           DEC      .3774
000979: 21,3067           15241                           DEC      .4161
000980: 21,3070           16650                           DEC      .4634
000981: 21,3071           20555                           DEC      .5223
000982: 21,3072           23065                           DEC      .5970
000983: 21,3073           26137                           DEC      .6933
000984: 21,3074           32053                           DEC      .8151
000985: 21,3075           35712                           DEC      .9342
000986:
000987: 21,3076           00032                           DEC      .0016
000988: 21,3077           00032                           DEC      .0016
000989: 21,3100           00435                           DEC      .0174                                 #  FILTER GAIN FOR TRANSLATION, LEM ON
000990: 21,3101           13412                           DEC      .3600                                 #  FILTER GAIN FOR TRANSLATION (WN)(WN)DT
000991: 21,3102           00435                           DEC      .0174                                 #  FILTER GAIN FOR 2 DEGREES/SEC MANEUVERS
000992: 21,3103           00032        GAIN2              DEC      .0016                                 #  SCALED 10
000993: 21,3104           01350                           DEC      .0454
000994: 21,3105           01575                           DEC      .0545
000995: 21,3106           02103                           DEC      .0666
000996: 21,3107           02523                           DEC      .0832
000997: 21,3110           03327                           DEC      .1069
000998: 21,3111           04432                           DEC      .1422
000999: 21,3112           06264                           DEC      .1985
001000: 21,3113           11351                           DEC      .2955
001001: 21,3114           17324                           DEC      .4817
001002: 21,3115           33622                           DEC      .8683
001003: 21,3116           55531        STICKCHK           TS       T5TEMP
001004: 21,3117           76214                           MASK     THREE                                 #  INDECES FOR MANUAL ROTATION
001005: 21,3120           55710                           TS       PMANNDX
001006: 21,3121           31531                           CA       T5TEMP
001007: 21,3122           00006                           EXTEND                                         #  MAN RATE 0   0 RATE (DP)
001008: 21,3123           74765                           MP       QUARTER                               #           +1   +RATE (DP)
001009: 21,3124           55531                           TS       T5TEMP                                #           +2   -RATE (DP)
001010: 21,3125           76214                           MASK     THREE                                 #          (+3)  0 RATE (DP)
001011: 21,3126           55711                           TS       YMANNDX
001012: 21,3127           31531                           CA       T5TEMP
001013: 21,3130           00006                           EXTEND
001014: 21,3131           74765                           MP       QUARTER
001015: 21,3132           55707                           TS       RMANNDX
001016: 21,3133           00002                           TC       Q
001017:
001018: 21,3134           55650        KALUPDT            TS       ATTKALMN                              #  INITIALIZATION OF ATTITUDE RATES USING
001019:                                                                                                  #  KALMAN FILTER TAKES 1.1 SEC
001020:
001021: 21,3135           32107                           CA       DELTATT                               #  =1SEC - 80MS
001022: 21,3136           61665                           AD       T5TIME                                #  + DELAYS
001023: 21,3137           54030                           TS       TIME5
001024: 21,3140           13143                           TCF      +3
001025: 21,3141           37663                           CAF      DELTATT2                              #  SAFETY PLAY TO ASSURE
001026: 21,3142           54030                           TS       TIME5                                 #  A T5RUPT
001027:
001028:
001029: 21,3143           45003        KRESUME2           CS       ZERO                                  #  RESET FOR PHASE1
001030: 21,3144           55513                           TS       T5PHASE                               #  RESUME INTERRUPTED PROGRAM
001031: 21,3145           15336                           TCF      RESUME
001032:


001034: 21,3146           04725        GOFDAI2            TC       IBNKCALL
001035: 21,3147           41561                           CADR     FDAIDSP2
001036:
001037: 20,2000                                           SETLOC   DAPS2
001038: 20,2000                                           BANK
001039: 20,3561                                           COUNT*   $$/DAPRC
001040:
001041: 20,3561           44776        FDAIDSP2           CS       BIT4                                  #  RESET FOR FDAIDSP1
001042: 20,3562           71530                           MASK     RCSFLAGS
001043: 20,3563           55530                           TS       RCSFLAGS
001044:
001045: 20,3564           40074                           CS       FLAGWRD0                              #  ON - DISPLAY ONE OF THE TOTAL ATTITUDE
001046: 20,3565           74771                           MASK     NEEDLBIT                              #  ERRORS
001047: 20,3566           00006                           EXTEND
001048: 20,3567           13576                           BZF      FDAITOTL
001049: 20,3570           00006                           EXTEND
001050: 20,3571           41621                           DCS      ERRORX                                #  OFF - DISPLAY AUTOPILOT FOLLOWING ERROR
001051: 20,3572           53526                           DXCH     AK
001052: 20,3573           41622                           CS       ERRORZ
001053: 20,3574           55527                           TS       AK2
001054: 20,3575           15336                           TCF      RESUME                                #  END PHASE 1
001055:
001056:
001057: 20,3576           30105        FDAITOTL           CA       FLAGWRD9
001058: 20,3577           74774                           MASK     N2217BIT
001059: 20,3600           00006                           EXTEND
001060: 20,3601           13644                           BZF      WRTN17                                #  IS N22ORN17 (BIT6 OF FLAGWRD9) = 0
001061:                                                                                                  #  IF SO, GO TO WRTN17
001062: 20,3602           00006        WRTN22             EXTEND                                         #  OTHERWISE, CONTINUE ON TO WRTN22 AND
001063: 20,3603           31301                           DCA      CTHETA                                #  GET SET TO COMPUTE TOTAL ATTITUDE
001064: 20,3604           53543                           DXCH     WTEMP                                 #  ERROR WRT N22 BY PICKING UP THE THREE
001065: 20,3605           31277                           CA       CPHI                                  #  COMPONENTS OF N22
001066:
001067: 20,3606           00006        GETAKS             EXTEND                                         #  COMPUTE TOTAL ATTITUDE ERROR FOR
001068: 20,3607           20032                           MSU      CDUX                                  #  DISPLAY ON FDAI ERROR NEEDLES
001069: 20,3610           55525                           TS       AK
001070: 20,3611           31542                           CA       WTEMP
001071: 20,3612           00006                           EXTEND
001072: 20,3613           20033                           MSU      CDUY
001073: 20,3614           55531                           TS       T5TEMP
001074: 20,3615           00006                           EXTEND
001075: 20,3616           71671                           MP       AMGB1
001076: 20,3617           27525                           ADS      AK
001077: 20,3620           31531                           CA       T5TEMP
001078: 20,3621           00006                           EXTEND
001079: 20,3622           71672                           MP       AMGB4
001080: 20,3623           55526                           TS       AK1
001081: 20,3624           31531                           CA       T5TEMP
001082: 20,3625           00006                           EXTEND
001083: 20,3626           71674                           MP       AMGB7
001084: 20,3627           55527                           TS       AK2
001085: 20,3630           31543                           CA       WTEMP      +1
001086: 20,3631           00006                           EXTEND
001087: 20,3632           20034                           MSU      CDUZ
001088: 20,3633           55531                           TS       T5TEMP
001089: 20,3634           00006                           EXTEND
001090: 20,3635           71673                           MP       AMGB5
001091: 20,3636           27526                           ADS      AK1
001092: 20,3637           31531                           CA       T5TEMP
001093: 20,3640           00006                           EXTEND
001094: 20,3641           71675                           MP       AMGB8
001095: 20,3642           27527                           ADS      AK2
001096: 20,3643           15336                           TCF      RESUME                                #  END PHASE1 OF RCS DAP
001097:
001098: 20,3644           00006        WRTN17             EXTEND                                         #  GET SET TO COMPUTE TOTAL ASTRONAUT
001099: 20,3645           31010                           DCA      CPHIX      +1                         #  ATTITUDE ERROR WRT N17 BY PICKING UP
001100: 20,3646           53543                           DXCH     WTEMP                                 #  THE THREE COMPONENTS OF N17
001101: 20,3647           31006                           CA       CPHIX
001102: 20,3650           13606                           TCF      GETAKS

End of include-file RCS-CSM_DIGITAL_AUTOPILOT.agc.  Parent file is MAIN.agc


