
Source Code


000002:                                                                                                  ## Copyright:   Public domain.
000003:                                                                                                  ## Filename:    RCS-CSM_DAP_EXECUTIVE_PROGRAMS.agc
000004:                                                                                                  ## Purpose:     A section of Skylark revision 048.
000005:                                                                                                  ##              It is part of the source code for the Apollo Guidance Computer (AGC)
000006:                                                                                                  ##              for Skylab-2, Skylab-3, Skylab-4, and ASTP. No original listings of
000007:                                                                                                  ##              this software are available; instead, this file was created via
000008:                                                                                                  ##              disassembly of dumps of the core rope modules actually flown on
000009:                                                                                                  ##              Skylab-2. Access to these modules was provided by the New Mexico
000010:                                                                                                  ##              Museum of Space History.
000011:                                                                                                  ## Assembler:   yaYUL
000012:                                                                                                  ## Contact:     Ron Burkey <info@sandroid.org>.
000013:                                                                                                  ## Website:     www.ibiblio.org/apollo/index.html
000014:                                                                                                  ## Mod history: 2023-09-04 MAS  Created from Artemis 072.
000015:
000016:                                                                                                  #  CALCULATION OF  AMGB, AMBG     ONCE EVERY SECOND
000017:
000018:                                                                                                  #   AMGB =  1    SIN(PSI)                0
000019:                                                                                                  #           0    COS(PSI)COS(PHI)        SIN(PHI)
000020:                                                                                                  #           0    -COS(PSI)SIN(PHI)       COS(PHI)
000021:
000022:                                                                                                  #   AMBG =  1    -TAN(PSI)COS(PHI)       TAN(PSI)SIN(PHI)
000023:                                                                                                  #           0    COS(PHI)/COS(PSI)       -SIN(PHI)/COS(PSI)
000024:                                                                                                  #           0    SIN(PHI)                COS(PHI)
000025:
000026:                                                                                                  #   WHERE PHI AND PSI ARE CDU ANGLES
000027:
000028: 22,2000                                           SETLOC   DAPS8
000029: 22,2000                                           BANK
000030:
000031: 22,3522                                           COUNT*   $$/DAPEX
000032: 22,3522  E6,1537                                  EBANK=   KMPAC
000033: 22,3522           30102        AMBGUPDT           CA       FLAGWRD6                              #  CHECK FOR RCS AUTOPILOT
000034: 22,3523           74076                           MASK     DPCONFIG
000035: 22,3524           00006                           EXTEND
000036: 22,3525           65220                           BZMF     ENDOFJOB                              #  BIT15 = 0, BIT14 = 1
000037: 22,3526           74764                           MASK     DAP2BIT                               #  IF NOT RCS, EXIT
000038: 22,3527           00006                           EXTEND
000039: 22,3530           15220                           BZF      ENDOFJOB                              #  TO PROTECT TVC DAP ON SWITCHOVER
000040:
000041: 22,3531           30034                           CA       CDUZ
000042: 22,3532           05074                           TC       SPSIN2
000043: 22,3533           55671                           TS       AMGB1                                 #  CALCULATE AMGB
000044: 22,3534           30034                           CA       CDUZ
000045: 22,3535           05073                           TC       SPCOS2
000046: 22,3536           55676                           TS       CAPSI                                 #  MUST CHECK FOR GIMBAL LOCK
000047: 22,3537           34631                           CAF      QUADANGL                              #  = 7.25  DEGREES JET QUAD ANGULAR OFFSET
000048: 22,3540           00006                           EXTEND
000049: 22,3541           20032                           MSU      CDUX
000050: 22,3542           40000                           COM                                            #  CDUX - 7.25 DEG
000051: 22,3543           05073                           TC       SPCOS1
000052: 22,3544           55675                           TS       AMGB8
000053: 22,3545           00006                           EXTEND
000054: 22,3546           71676                           MP       CAPSI
000055: 22,3547           55672                           TS       AMGB4
000056: 22,3550           34631                           CAF      QUADANGL
000057: 22,3551           00006                           EXTEND
000058: 22,3552           20032                           MSU      CDUX
000059: 22,3553           40000                           COM                                            #  CDUX - 7.25 DEG
000060: 22,3554           05074                           TC       SPSIN1
000061: 22,3555           55673                           TS       AMGB5
000062: 22,3556           00006                           EXTEND
000063: 22,3557           71676                           MP       CAPSI
000064: 22,3560           40000                           COM
000065: 22,3561           55674                           TS       AMGB7
000066: 22,3562           15220                           TCF      ENDOFJOB
000067:    4000                                           SETLOC   FFTAG12
000068:    4000                                           BANK
000069:
000070:    4631                                           COUNT*   $$/DAPEX
000071:    4631           01224        QUADANGL           DEC      660        B-14                       #  = 7.25 DEGREES

End of include-file RCS-CSM_DAP_EXECUTIVE_PROGRAMS.agc.  Parent file is MAIN.agc


