
Source Code


000002:                                                                                                  ## Copyright:   Public domain.
000003:                                                                                                  ## Filename:    REENTRY_CONTROL.agc
000004:                                                                                                  ## Purpose:     A section of Skylark revision 048.
000005:                                                                                                  ##              It is part of the source code for the Apollo Guidance Computer (AGC)
000006:                                                                                                  ##              for Skylab-2, Skylab-3, Skylab-4, and ASTP. No original listings of
000007:                                                                                                  ##              this software are available; instead, this file was created via
000008:                                                                                                  ##              disassembly of dumps of the core rope modules actually flown on
000009:                                                                                                  ##              Skylab-2. Access to these modules was provided by the New Mexico
000010:                                                                                                  ##              Museum of Space History.
000011:                                                                                                  ## Assembler:   yaYUL
000012:                                                                                                  ## Contact:     Ron Burkey <info@sandroid.org>.
000013:                                                                                                  ## Website:     www.ibiblio.org/apollo/index.html
000014:                                                                                                  ## Mod history: 2023-09-04 MAS  Created from Artemis 072.
000015:                                                                                                  ##              2024-03-05 MAS  Updated for Skylark 48.
000016:
000017:
000018:                                                                                                  #  ENTRY INITIALIZATION ROUTINE
000019:                                                                                                  #   -----------------------------
000020:
000021: 25,2000                                           SETLOC   REENTRY
000022: 25,2000                                           BANK
000023:
000024: 25,2000                                           COUNT*   $$/ENTRY
000025: 25,2000  E7,1451                                  EBANK=   RTINIT
000026:
000027: 25,2000     0102               CM/FLAGS           EQUALS   STATE      +6
000028:
000029: 25,2000           77776        STARTENT           EXIT                                           #  MM = 63
000030:                                                                                                  #  COME HERE FROM CM/POSE. RESTARTED IN CM/POSE.
000031:
000032: 25,2001           42112                           CS       ENTMASK                               #  INITIALIZE ALL SWITCHES TO ZERO
000033:                                                                                                  #  EXCEPT LATSW, ENTRYDSP AND GONEPAST.
000034:                                                                                                  #  GONEBY 112D BIT8 FLAG7, SELF INITIALIZING
000035: 25,2002           00004                           INHINT
000036: 25,2003           70102                           MASK     CM/FLAGS
000037:                                                                                                  #  ENTRYDSP = 92D B13
000038:                                                                                                  #  GONEPAST=95D B10,  RELVELSW=96D B9
000039:                                                                                                  #  EGSW = 97D B8         NOSWITCH = 98D  B7
000040:                                                                                                  #  HIND=99D B6           INRLSW=100D B5
000041:                                                                                                  #  LATSW=101D B4         .05GSW=102D B3
000042:
000043: 25,2004           62113                           AD       ENTRYSW                               #  SET ENTRYDSP, LATSW, GONEPAST.
000044: 25,2005           54102                           TS       CM/FLAGS
000045:
000046: 25,2006           00003                           RELINT
000047:
000048: 25,2007           06006                           TC       INTPRET
000049:
000050: 25,2010           77735                           SLOAD
000051: 25,2011           01754                                    LODPAD
000052: 25,2012           03626                           STORE    LOD
000053:
000054: 25,2013           77735                           SLOAD
000055: 25,2014           01753                                    LADPAD
000056: 25,2015           03624                           STORE    LAD
000057:
000058: 25,2016           77605                           DMP                                            #  L/DCMINR = LAD COS(15)
000059: 25,2017           15172                                    COS15
000060: 25,2020           17630                           STODL    L/DCMINR
000061: 25,2021           15017                                    LATSLOPE
000062: 25,2022           70405                           DMP      SR1                                   #  KLAT = LAD/24
000063: 25,2023           03624                                    LAD
000064: 25,2024           17632                           STODL    KLAT
000065: 25,2025           15046                                    Q7F
000066: 25,2026           17226                           STODL    Q7                                    #  Q7 = Q7F
000067: 25,2027           15212                                    NEARONE                               #  1.0 -1BIT
000068: 25,2030           17614                           STODL    FACTOR
000069: 25,2031           03624                                    LAD
000070: 25,2032           57565                           SIGN     DCOMP
000071: 25,2033           03360                                    HEADSUP                               #  MAY BE NOISE FOR DISPLAY P61
000072: 25,2034           37634                           STCALL   L/D                                   #  L/D = - LAD SGN(HEADSUP)
000073:
000074: 25,2035           52063                                    STARTEN1                              #  RETURN VIA GOTOADDR
000075: 25,2036           47375                           VLOAD    VXV
000076: 25,2037           01030                                    VN                                    #  (-7) M/CS
000077: 25,2040           02250                                    UNITR                                 #  .5 UNIT               REF COORDS
000078: 25,2041           50256                           UNIT     DOT
000079: 25,2042           03474                                    RT                                    #  RT/2 TARGET VECTOR    REF COORDS
000080: 25,2043           03676                           STORE    LATANG                                #  LATANG = UNI.RT /4
000081: 25,2044           47076                           DCOMP    RTB
000082: 25,2045           45742                                    SIGNMPAC
000083: 25,2046           17644                           STODL    K2ROLL                                #  K2ROLL = -SGN(LATANG)
000084:
000085: 25,2047           03624                                    LAD
000086: 25,2050           43205                           DMP      DAD
000087: 25,2051           15050                                    Q21
000088: 25,2052           15052                                    Q22
000089: 25,2053           03712                           STORE    Q2                                    #  Q2 = -1992 + 3500 LAD
000090:
000091: 25,2054           66331                           SSP      SSP
000092: 25,2055           03646                                    GOTOADDR                              #  SET SELECTOR FOR INITIAL PASS
000093: 25,2056           52257                                    INITROLL
000094: 25,2057           03356                                    POSEXIT
000095: 25,2060           52114                                    SCALEPOP                              #  SET CM/POSE TO CONTINUE AT SCALEPOP
000096:
000097: 25,2061           77634                           RTB
000098: 25,2062           53606                                    SERVNOUT                              #  OMIT INITIAL DISPLAY, SINCE 1ST GUESSBAD
000099:
000100:                                                                                                  #  CALCULATE THE INITIAL TARGET VECTOR:  RTINIT,  ALSO RTEAST, RTNORM  AND  RT.   ALL ARE .5 UNIT AND IN
000101:                                                                                                  #  REFERENCE COORDINATES.
000102:
000103: 25,2063           77220        STARTEN1           STQ      VLOAD
000104: 25,2064           03645                                    GOTOADDR
000105: 25,2065           03401                                    LAT(SPL)                              #  TARGET COORDINATES
000106: 25,2066           77614                           CLEAR                                          #  DO CALL USING PAD RADIUS. WILL UNIT IT.
000107: 25,2067           00662                                    ERADFLAG                              #  ANYWAY.
000108: 25,2070           14742                           STODL    LAT
000109: 25,2071           15204                                    3ZEROS
000110:
000111: 25,2072           14746                           STODL    LAT        +4                         #  SET ALT=0.
000112: 25,2073           01036                                    PIPTIME                               #  ESTABLISH RTINIT AT TIME OF PRESENT
000113:                                                                                                  #  RN AND VN.
000114: 25,2074           37524                           STCALL   TIME/RTO                              #  SAVE TIME BASE OF RTINIT.
000115: 25,2075           22523                                    LALOTORV                              #  C(MPAC) =TIME  (PIPTIME)
000116: 25,2076           77656                           UNIT                                           #  ANSWER IN ALPHAV ALSO
000117: 25,2077           17452                           STODL    RTINIT                                #  .5 UNIT TARGET                REF COORDS
000118: 25,2100           12111                                    500SEC                                #  NOMINAL ENTRY TIME FOR P63
000119:                                                                                                  #  TIME/RTO = PIPTIME, STILL.
000120: 25,2101           37606                           STCALL   DTEAROT                               #  INITIALIZE EARROT
000121: 25,2102           46213                                    EARROT1                               #  GET RT
000122: 25,2103           72441                           DOT      SL1
000123: 25,2104           02250                                    UNITR                                 #  RT/2 IN MPAC
000124: 25,2105           77726                           ACOS
000125: 25,2106           37702                           STCALL   THETAH                                #  RANGE ANGLE /360
000126: 25,2107           03645                                    GOTOADDR                              #  RETURN TO CALLER
000127:
000128: 25,2110           00003 01520  500SEC             2DEC     50000      B-28                       #  CS
000129:
000130: 25,2112           11774        ENTMASK            OCT      11774
000131: 25,2113           11010        ENTRYSW            OCT      11010                                 #  ENTRYDSP B13, GONEPAST B10, LATSW B4
000132:
000133: 25,2114           77624        SCALEPOP           CALL
000134: 25,2115           52124                                    TARGETNG
000135:
000136: 25,2116           77776                           EXIT
000137:
000138: 25,2117           05415        REFAZE10           TC       PHASCHNG
000139: 25,2120           10035                           OCT      10035                                 #  SERVICER 5.3 RESTART AT REFAZE10
000140:
000141: 25,2121  01,2253               5P3SPT14           =        5.3SPOT
000142: 25,2121           06006                           TC       INTPRET
000143:
000144:                                                                                                  #  JUMP TO PARTICULAR RE-ENTRY PHASE:
000145:
000146:                                                                                                  # SEQUENCE
000147: 25,2122           77650                           GOTO
000148: 25,2123           03645                                    GOTOADDR
000149:
000150:                                                                                                  #  GOTOADDR CONTAINS THE ADDRESS OF THE ROLL COMMAND EQUATIONS APPROPRIATE TO THE CURRENT PHASE OF
000151:                                                                                                  #  RE-ENTRY.  SEQUENCING IS AS FOLLOWS:
000152:
000153:                                                                                                  #  INITROLL      ADDRESS IS SET HERE INITIALLY. HOLDS INITIAL ROLL ATTITUDE UNTIL KAT  IS EXCEEDED. THEN HOLDS NEW ROLL
000154:                                                                                                  #                ATTITUDE UNTIL  VRTHRESH  IS EXCEEDED.  THEN BRANCHES TO
000155:
000156:                                                                                                  #  HUNTEST       THIS SECTION CHECKS TO SEE IF THE PREDICTED RANGE AT NOMINAL   L/D FROM PRESENT CONDITIONS IS LESS
000157:                                                                                                  #                THAN THE DESIRED RANGE.
000158:                                                                                                  #                  IF NOT - A ROLL COMMAND IS GENERATED BY THE CONSTANT DRAG CONTROLLER.
000159:                                                                                                  #                  IF SO - CONTROL AND GOTOADDR ARE SET TO  UPCONTRL.
000160:                                                                                                  #                USUALLY NO ITERATION IS INVOLVED EXCEPT IF THE RANGE DESIRED IS TOO LONG ON THE FIRST PASS THROUGH
000161:                                                                                                  #                HUNTEST.
000162:
000163:                                                                                                  #  UPCONTRL      CONTROLS ROLL DURING THE SUPER-CIRCULAR PHASE.  UPCONTRL IS TERMINATED EITHER
000164:                                                                                                  #                  (A)  WHEN THE DRAG (AS MEASURED BY THE PIPAS) FALLS BELOW Q7, OR
000165:                                                                                                  #                  (B)  IF RDOT IS NEGATIVE AND REFERENCE VL EXCEEDS V.
000166:                                                                                                  #                IN CASE (A),  GOTOADDR  IS SET TO  KEP2  AND IN CASE (B), TO  PREDICT3  SKIPPING THE KEPLER PHASE OF
000167:                                                                                                  #                ENTRY.
000168:
000169:                                                                                                  #  KEP2          GOTOADDR IS SET HERE DURING THE KEPLER PHASE TO MONITOR DRAG. THE SPACECRAFT IS INSTANTANEOUSLY
000170:                                                                                                  #                TRIMMED IN PITCH AND YAW TO THE COMPUTED RELATIVE VELOCITY. THE LAST COMPUTED ROLL ANGLE IS MAINTAINED.
000171:                                                                                                  #                WHEN THE MEASURED DRAG EXCEEDS Q7 +0.5,  GOTOADDR  IS SET TO
000172:
000173:                                                                                                  #  PREDICT3      THIS CONTROLS THE FINAL SUB-ORBITAL PHASE. ROLL COMMANDS CEASE
000174:                                                                                                  #                WHEN  V  IS LESS THAN VQUIT. AN EXIT IS MADE TO
000175:
000176:                                                                                                  #  P67.1         THE LAST COMPUTED ROLL ANGLE IS MAINTAINED. RATE DAMPING IS DONE IN PITCH AND YAW. PRESENT LATITUDE
000177:                                                                                                  #                AND LONGITUDE ARE COMPUTED FOR DISPLAY.
000178:                                                                                                  #                ENTRY IS TERMINATED WHEN DISKY RESPONSE IS MADE TO TO THIS FINAL FLASHING DISPLAY.
000179:
000180:                                                                                                  #  PROCESS AVERAGE G OUTPUT...SCALE IT AND GET INPUT DATA
000181:
000182:
000183:                                                                                                  #  * START  TARGETING ...
000184:
000185: 25,2124  E7,1451                                  EBANK=   RTINIT
000186:
000187:                                                                                                  #  TARGETNG IS CALLED BY P61, FROM GROUP 4.
000188:                                                                                                  #  TARGETNG IS CALLED BY ENTRY, FROM GROUP 5.
000189:
000190:                                                                                                  #  ALL MM COME HERE.
000191: 25,2124           77214        TARGETNG           BOFF     VLOAD                                 #  ENTER WITH PROPER EB FROM CM/POSE(TEST)
000192: 25,2125           03346                                    RELVELSW                              #  RELVELSW = 96D BIT9
000193: 25,2126           52132                                    GETVEL                                #  WANT INERTIAL VEL. GO GET IT.
000194: 25,2127           03526                                    -VREL                                 #  NEW V   IS RELATIVE, CONTINUE
000195:
000196: 25,2130           52076                           VCOMP    GOTO                                  #  (VREL) = (V) + KWE UNITR*UNITW
000197: 25,2131           52135                                    GETUNITV   -1                         #  - VREL WAS LEFT BY CM/POSE
000198:
000199: 25,2132           74375        GETVEL             VLOAD    VXSC                                  #  INERTIAL V WANTED
000200: 25,2133           01030                                    VN                                    #  KVSCALE = (12800 / .3048) / 2VS
000201: 25,2134           15100                                    KVSCALE                               #  KVSCALE = .81491944
000202: 25,2135           03516                 -1        STORE    VEL                                   #  V/2 VS
000203: 25,2136           44056        GETUNITV           UNIT     STQ
000204: 25,2137           03375                                    60GENRET
000205: 25,2140           17510                           STODL    UNITV
000206: 25,2141           00043                                    34D
000207: 25,2142           03622                           STORE    VSQUARE                               #  VSQ/4
000208:
000209: 25,2143           77625                           DSU                                            #  LEQ = VSQUARE - 1
000210: 25,2144           15174                                    FOURTH                                #  4 G-S FULL SCALE
000211: 25,2145           17654                           STODL    LEQ                                   #  LEQ/4
000212:
000213: 25,2146           00045                                    36D
000214: 25,2147           27674                           STOVL    V                                     #  V/2 VS = VEL/2 VS
000215:
000216: 25,2150           03516                                    VEL
000217: 25,2151           72441                           DOT      SL1                                   #  RDOT= V.UNITR
000218: 25,2152           02250                                    UNITR
000219: 25,2153           27700                           STOVL    RDOT                                  #  RDOT / 2 VS
000220:
000221: 25,2154           01305                                    DELV                                  #  PIPA COUNTS IN PLATFORM COORDS.
000222: 25,2155           41246                           ABVAL    DMP
000223: 25,2156           15102                                    KASCALE
000224: 25,2157           53152                           SL1      BZE
000225: 25,2160           55004                                    SETMIND
000226: 25,2161           27640        DSTORE             STOVL    D                                     #  ACCELERATION USED TO APPROX DRAG
000227: 25,2162           03516                                    VEL
000228: 25,2163           53435                           VXV      UNIT                                  #  UNI = UNIT(V*R)
000229: 25,2164           02250                                    UNITR
000230: 25,2165           03502                           STORE    UNI                                   #  .5 UNI                REF COORDS.
000231:
000232: 25,2166           71214                           BOFF     DLOAD
000233: 25,2167           03346                                    RELVELSW
000234: 25,2170           54745                                    GETETA
000235: 25,2171           15204                                    3ZEROS
000236: 25,2172           43225        UPDATERT           DSU      DAD                                   #  PIPTIME-TIME/RTO =ELAPSED TIME SINCE
000237:                                                                                                  #  RTINIT  WAS ESTABLISHED.
000238: 25,2173           03524                                    TIME/RTO
000239: 25,2174           01036                                    PIPTIME
000240: 25,2175           37606                           STCALL   DTEAROT                               #  GET PREDICTED TARGET VECTOR  RT
000241:
000242: 25,2176           46223                                    EARROT2
000243: 25,2177           40241                           DOT      SETPD                                 #  SINCE (RT) UNIT VECT, THIS IS 1/4 MAX
000244: 25,2200           03502                                    UNI                                   #  LATANG = RT.UNI
000245: 25,2201           00001                                    0
000246: 25,2202           27676                           STOVL    LATANG                                #  LATANG = MAC LATANG / 4
000247:
000248: 25,2203           03474                                    RT
000249: 25,2204           77614                           CLEAR
000250: 25,2205           03667                                    GONEBY                                #  SHOW HAVE NOT GONE PAST TARGET.
000251: 25,2206           50235                           VXV      DOT                                   #  IF RT*UNITR.UNI NEG, GONEBY=1
000252: 25,2207           02250                                    UNITR                                 #  GONEPAST IS CONDITIONAL SW SET IN
000253: 25,2210           03502                                    UNI                                   #  FINAL PHASE.
000254: 25,2211           43044                           BPL      SET
000255: 25,2212           52214                                    +2
000256: 25,2213           03467                                    GONEBY                                #  SHOW HAVE     GONE PAST TARGET.
000257:
000258: 25,2214           77775                           VLOAD
000259: 25,2215           03474                                    RT
000260: 25,2216           45241        GETANGLE           DOT      DSU                                   #  THETA = ARCCOS(RT.UNITR)
000261: 25,2217           02250                                    UNITR
000262: 25,2220           15032                                    NEAR1/4                               #  TO IMPROVE ACCURACY, CALC RANGE BY
000263: 25,2221           43244                           BPL      DAD                                   #  TINYTHET IF HIGH ORDER PART OF
000264: 25,2222           55007                                    TINYTHET                              #  ARCCOS ARGUMENT IS ZERO
000265: 25,2223           15032                                    NEAR1/4
000266: 25,2224           65552                           SL1      ACOS
000267: 25,2225           03702        THETDONE           STORE    THETAH                                #  THETAH/360
000268:                                                                                                  #  HI WORD, LO BIT =1.32 NM=360 60/16384
000269:
000270: 25,2226           57414                           BON      DCOMP
000271: 25,2227           03707                                    GONEBY                                #  =1 IF HAVE GONE PAST TARGET.
000272:                                                                                                  #  (SIGN MAY BECOME ERRATIC VERY NEAR
000273:                                                                                                  #  TARGET DUE TO LOSS OF PRECISION.)
000274: 25,2230           52231                                    +1
000275: 25,2231           17714                           STODL    RTGON67                               #  RANGE ERROR:  NEG IF WILL FALL SHORT.
000276:
000277: 25,2232           03640                                    D
000278: 25,2233           50025                           DSU      BMN
000279: 25,2234           15110                                    .05G
000280: 25,2235           52254                                    NO.05G
000281: 25,2236           77214                           SET      VLOAD
000282: 25,2237           03074                                    .05GSW
000283: 25,2240           03432                                    DELVREF
000284: 25,2241           50206                           PUSH     DOT
000285: 25,2242           03542                                    UXA/2
000286: 25,2243           63552                           SL1      DSQ
000287: 25,2244           47515                           PDVL     VSQ                                   #  EXCHANGE WITH PDL.
000288: 25,2245           56225                           DSU      DDV
000289: 25,2246           00001                                    0
000290: 25,2247           75400                           BOV      SQRT
000291: 25,2250           52252                                    NOLDCALC                              #  OVFL LAST CLEARED IN EARROT2 ABOVE.
000292: 25,2251           03727                           STORE    L/DCALC
000293:
000294: 25,2252           77650        NOLDCALC           GOTO
000295: 25,2253           03375                                    60GENRET
000296:
000297: 25,2254           52014        NO.05G             CLEAR    GOTO                                  #  THIS WAY FOR DAP.(MAY INTERRUPT)
000298: 25,2255           03274                                    .05GSW                                #  .05GSW = 102D B3
000299: 25,2256           52252                                    NOLDCALC                              #  KEEP SINGLE EXIT FOR TARGETNG
000300:
000301:                                                                                                  #  SUBROUTINES CALLED BY SCALEPOP (TARGETING):
000302:
000303: 26,2000                                           SETLOC   REENTRY1
000304: 26,2000                                           BANK
000305:
000306: 26,2745                                           COUNT*   $$/ENTRY
000307:
000308: 26,2745           56345        GETETA             DLOAD    DDV                                   #  D = D +D(-RDOT/HS -2D/V)  DT/2
000309:                                                                                                  #  DT/2 = 2/2 =1
000310: 26,2746           03700                                    RDOT
000311: 26,2747           15166                                    -HSCALED
000312: 26,2750           41325                           PDDL     DMP
000313: 26,2751           03640                                    D
000314: 26,2752           15170                                    -KSCALE
000315: 26,2753           43271                           DDV      DAD
000316: 26,2754           03674                                    V
000317:                                                                                                  #  -RDOT/HS FROM PDL.
000318: 26,2755           43205                           DMP      DAD
000319: 26,2756           03640                                    D
000320: 26,2757           03640                                    D
000321: 26,2760           03640                           STORE    D
000322:
000323: 26,2761           71214                           BON      DLOAD                                 #  EGSW INDICATES FINAL PHASE.
000324: 26,2762           03307                                    EGSW
000325: 26,2763           54770                                    SUBETA
000326: 26,2764           03702                                    THETAH
000327: 26,2765           52005                           DMP      GOTO
000328: 26,2766           15104                                    KTETA                                 #  = 1000X2PI/(2)E14 163.84
000329: 26,2767           52172                                    UPDATERT
000330:
000331: 26,2770           45345        SUBETA             DLOAD    DSU                                   #  SWITCH FROM INERTIAL TO RELATIVE VEL.
000332: 26,2771           03674                                    V
000333: 26,2772           15174                                    VMIN
000334: 26,2773           43044                           BPL      SET
000335: 26,2774           54776                                    SUBETA2
000336: 26,2775           03066                                    RELVELSW
000337:
000338: 26,2776           41345        SUBETA2            DLOAD    DMP
000339:
000340: 26,2777           03702                                    THETAH
000341: 26,3000           15106                                    KT1                                   #  KT1 = KT
000342: 26,3001           52071                           DDV      GOTO
000343: 26,3002           03674                                    V                                     #  KT = RE(2 PI)/2 VS 16384 163.84/ 2 VSAT
000344: 26,3003           52172                                    UPDATERT
000345:
000346: 26,3004           52145        SETMIND            DLOAD    GOTO
000347: 26,3005           16335                                    1BITDP
000348: 26,3006           52161                                    DSTORE
000349:
000350: 26,3007           51425        TINYTHET           DSU      ABS                                   #  ENTER WITH X-.249
000351: 26,3010           16336                                    1BITDP     +1                         #  GET 1/4 - MPAC
000352: 26,3011           75461                           SL       SQRT                                  #  SCALE UP BEFORE SQRT
000353: 26,3012           20216                                    13D                                   #  HAS FACTOR FOR UP SCALING
000354: 26,3013           52005                           DMP      GOTO
000355: 26,3014           15116                                    KACOS
000356: 26,3015           52225                                    THETDONE
000357:
000358:                                                                                                  #  * START       INITIAL ROLL ...
000359:
000360: 25,2000                                           SETLOC   REENTRY
000361: 25,2000                                           BANK
000362:
000363: 25,2257                                           COUNT*   $$/ENTRY
000364:
000365:                                                                                                  #  MM = 63 , 64 ..
000366: 25,2257           43014        INITROLL           BON      BOFF                                  #  IF D- .05G NEG, GO TO LIMITL/D
000367: 25,2260           03312                                    INRLSW
000368: 25,2261           52361                                    INITRL1
000369: 25,2262           03354                                    .05GSW
000370: 25,2263           53523                                    LIMITL/D
000371:
000372:                                                                                                  #  MM = 64, NOW
000373:
000374:                                                                                                  #              3
000375:                                                                                                  #  KA = KA1 LEQ  + KA2
000376: 25,2264           63545                           DLOAD    DSQ
000377: 25,2265           03654                                    LEQ
000378: 25,2266           56205                           DMP      DDV
000379: 25,2267           03654                                    LEQ
000380: 25,2270           15154                                    1/KA1                                 #  = 25 /(64  1.8)
000381: 25,2271           47015                           DAD      RTB
000382: 25,2272           15156                                    KA2                                   #  = .2
000383: 25,2273           54301                                    P64                                   #  ROLLC         VI              RDOT
000384:                                                                                                  #  XXX.XX DEG    XXXXX. FPS      XXXXX. FPS
000385: 25,2274           03720                           STORE    KAT
000386:
000387: 25,2275           50025                           DSU      BMN
000388: 25,2276           15164                                    KALIM
000389: 25,2277           52303                                    +4
000390: 25,2300           77745                           DLOAD
000391: 25,2301           15164                                    KALIM
000392: 25,2302           03720                           STORE    KAT
000393: 25,2303           45345                           DLOAD    DSU                                   #  IF V-VFINAL1 NEG, GO TO FINAL PHASE.
000394: 25,2304           03674                                    V
000395: 25,2305           15152                                    VFINAL1
000396: 25,2306           51014                           CLEAR    BPL                                   #  (CAN'T CLEAR INRLSW AFTER HERE: RESTARTS)
000397: 25,2307           03265                                    GONEPAST                              #  GONEPAST WAS INITIALLY SET=1 TO FORCE
000398:                                                                                                  #  ROLLC TO REMAIN AS DEFINED BY HEADSUP
000399:                                                                                                  #  UNTIL START OF P64. (UNTIL D > .05G)
000400: 25,2310           52315                                    D0EQ
000401: 25,2311           52131                           SSP      GOTO
000402: 25,2312           03646                                    GOTOADDR
000403: 25,2313           53315                                    KEP2                                  #  AND IDLE UNTIL D>0.2 G.  (NO P66 HERE)
000404: 25,2314           52350                                    INROLOUT                              #  GO TO LIMITL/D AFTER SETTING INRLSW.
000405:
000406: 25,2315           41345        D0EQ               DLOAD    DMP                                   #  D0 = KA3 LEQ + KA4
000407: 25,2316           03654                                    LEQ
000408: 25,2317           15160                                    KA3
000409: 25,2320           77615                           DAD
000410: 25,2321           15162                                    KA4
000411: 25,2322           03710                           STORE    D0                                    #  D0/805
000412: 25,2323           40065                           BDDV     BOV
000413: 25,2324           15136                                    C001                                  #  (-4/25 G) B-8
000414: 25,2325           52326                                    +1                                    #  CLEAR OVFIND, IF ON.
000415: 25,2326           17706                           STODL    C/D0                                  #  (-4/D0) B-8
000416: 25,2327           03624                                    LAD                                   #  IF V-VFINAL +K(RDOT/V)CUBED POS,L/D=-LAD
000417: 25,2330           17634                           STODL    L/D
000418: 25,2331           03700                                    RDOT
000419: 25,2332           41471                           DDV      PUSH
000420: 25,2333           03674                                    V
000421: 25,2334           41316                           DSQ      DMP
000422: 25,2335           45271                           DDV      DSU
000423: 25,2336           15146                                    1/K44
000424: 25,2337           15150                                    VFINAL
000425:                                                                                                  #                    3
000426:                                                                                                  #  V-VFINAL +(RDOT/V)  / K44     OVFL $
000427:
000428: 25,2340           40015                           DAD      BOV
000429: 25,2341           03674                                    V
000430: 25,2342           52350                                    INROLOUT                              #  GO TO LIMITL/D AFTER SETTING INRLSW.
000431: 25,2343           71240                           BMN      DLOAD
000432: 25,2344           52350                                    INROLOUT                              #  GO TO LIMITL/D AFTER SETTING INRLSW.
000433: 25,2345           03624                                    LAD
000434: 25,2346           77676                           DCOMP
000435: 25,2347           03634                           STORE    L/D
000436:
000437:                                                                                                  #  SET INRLSW AT END FOR RESTART PROTECTION
000438: 25,2350           77614        INROLOUT           BOFSET                                         #  END OF PRE .05G PATH OF INITROLL.
000439: 25,2351           03052                                    INRLSW                                #  SWITCH IS ZERO INITIALLY.
000440: 25,2352           53523                                    LIMITL/D                              #  (GO TO)
000441:
000442: 25,2353           45345        KATEST             DLOAD    DSU                                   #  IF KAT - D POS, GO TO CONSTD
000443: 25,2354           03720                                    KAT
000444: 25,2355           03640                                    D                                     #  IF POS, OUT WITH COMMAND VIA LIMITL/D
000445: 25,2356           52044                           BPL      GOTO
000446: 25,2357           53523                                    LIMITL/D
000447: 25,2360           53230                                    CONSTD
000448:
000449: 25,2361           43345        INITRL1            DLOAD    DAD                                   #  IF RDOT + VRCONT POS, GO TO HUNTEST
000450: 25,2362           03700                                    RDOT
000451: 25,2363           15130                                    VRCONT
000452: 25,2364           45040                           BMN      CALL                                  #  IF POSITIVE, FALL INTO HUNTEST.
000453: 25,2365           52353                                    KATEST
000454:
000455: 25,2366           53020                                    FOREHUNT                              #  INITIALIZE HUNTEST.
000456:
000457:
000458:                                                                                                  #  * START       HUNT TEST  ..
000459:
000460:                                                                                                  #  MM = 64
000461: 25,2367           77731                           SSP                                            #  INITIALIZE HUNTEST ON FIRST PASS
000462: 25,2370           03646                                    GOTOADDR
000463: 25,2371           52372                                    HUNTEST                               #  MUST GO AFTER FOREHUNT FOR RESTARTS.
000464:
000465: 25,2372           77745        HUNTEST            DLOAD
000466: 25,2373           03640                                    D
000467: 25,2374           17664                           STODL    A1                                    #  A1/805 = A1/25G
000468:
000469: 25,2375           03624                                    LAD
000470: 25,2376           17647                           STODL    TEM1B
000471: 25,2377           03700                                    RDOT
000472: 25,2400           71240                           BMN      DLOAD                                 #  IF RDOT NEG,TEM1B=LAD, OTHERWISE = LEWD
000473: 25,2401           52405                                    A0CALC
000474: 25,2402           03725                                    LEWD
000475: 25,2403           17647                           STODL    TEM1B
000476:
000477: 25,2404           03700                                    RDOT
000478: 25,2405           43271        A0CALC             DDV      DAD                                   #  V1 = V + RDOT/TEM1B
000479: 25,2406           03647                                    TEM1B
000480: 25,2407           03674                                    V
000481: 25,2410           14326                           STODL    V1                                    #  V1/2 VS
000482:
000483: 25,2411           03700                                    RDOT
000484: 25,2412           56316                           DSQ      DDV                                   #  A0=(V1/V)SQ(D+RDOT SQ/(TEM1B 2 C1 HS)
000485: 25,2413           03647                                    TEM1B
000486: 25,2414           43271                           DDV      DAD
000487: 25,2415           15142                                    2C1HS
000488: 25,2416           03640                                    D
000489: 25,2417           41205                           DMP      DMP
000490: 25,2420           00326                                    V1
000491: 25,2421           00326                                    V1
000492: 25,2422           77671                           DDV
000493: 25,2423           03622                                    VSQUARE
000494: 25,2424           14330                           STODL    A0                                    #  A0/805 = A0/25G
000495:
000496: 25,2425           03700                                    RDOT
000497: 25,2426           71244                           BPL      DLOAD
000498: 25,2427           52432                                    V1LEAD
000499: 25,2430           00330                                    A0
000500: 25,2431           03664                           STORE    A1                                    #  A1/25G
000501:
000502: 25,2432           51145        V1LEAD             DLOAD    BPL                                   #  IF L/D NEG, V1=V1 - 1000
000503: 25,2433           03634                                    L/D
000504: 25,2434           52441                                    HUNTEST1
000505:
000506: 25,2435           45345                           DLOAD    DSU
000507: 25,2436           00326                                    V1
000508: 25,2437           15064                                    VQUIT
000509: 25,2440           00326                           STORE    V1
000510:
000511: 25,2441           41345        HUNTEST1           DLOAD    DMP                                   #  ALP = 2 C1 HS A0/LEWD V1 V1
000512: 25,2442           00330                                    A0
000513: 25,2443           15142                                    2C1HS
000514: 25,2444           40271                           DDV      SETPD
000515: 25,2445           00326                                    V1
000516: 25,2446           00001                                    0
000517: 25,2447           56271                           DDV      DDV
000518: 25,2450           00326                                    V1
000519: 25,2451           03725                                    LEWD
000520: 25,2452           03704                           STORE    ALP
000521:
000522: 25,2453           55221                           BDSU     BDDV                                  #  FACT1 = V1 / (1 - ALP)
000523: 25,2454           15212                                    BARELY1
000524: 25,2455           00326                                    V1
000525: 25,2456           17616                           STODL    FACT1                                 #  FACT1 / 2VS
000526:
000527: 25,2457           03704                                    ALP
000528: 25,2460           41225                           DSU      DMP                                   #  FACT2 = ALP(ALP - 1) / A0
000529: 25,2461           15212                                    BARELY1
000530: 25,2462           03704                                    ALP
000531: 25,2463           77671                           DDV
000532: 25,2464           00330                                    A0
000533: 25,2465           03620                           STORE    FACT2                                 #  FACT2 (25G)
000534:
000535: 25,2466           43205                           DMP      DAD
000536: 25,2467           03226                                    Q7                                    #  Q7 /805 = Q7 / 25G
000537: 25,2470           03704                                    ALP                                   #  VL=FACT1 (1-SQRT(Q7 FACT2 +ALP) )
000538: 25,2471           44366                           SQRT     BDSU
000539: 25,2472           15212                                    BARELY1
000540: 25,2473           77605                           DMP
000541: 25,2474           03616                                    FACT1
000542: 25,2475           03737                           STORE    VL                                    #  VL / 2 VS
000543:
000544: 25,2476           41221                           BDSU     DMP                                   #  GAMMAL1 = LEWD (V1-VL)/VL
000545: 25,2477           00326                                    V1
000546: 25,2500           03725                                    LEWD
000547: 25,2501           77671                           DDV
000548: 25,2502           03737                                    VL
000549: 25,2503           14027                           STODL    GAMMAL1                               #  GAMMAL1 USED IN UPCONTROL
000550:
000551:                                                                                                  #  GAMMAL1 = PDL 22D.
000552: 25,2504           03737                                    VL
000553: 25,2505           50025                           DSU      BMN                                   #  IF VL-VLMIN NEG, GO TO PREFINAL
000554: 25,2506           15054                                    VLMIN
000555: 25,2507           53331                                    PREFINAL
000556:
000557: 25,2510           63545                           DLOAD    DSQ
000558: 25,2511           03737                                    VL
000559: 25,2512           17666                           STODL    VBARS                                 #  VBARS / 4 VS VS
000560:
000561: 25,2513           15202                                    HALVE                                 #  IF VSAT-VL NEG, GO TO CONSTD
000562: 25,2514           50025                           DSU      BMN
000563: 25,2515           03737                                    VL
000564: 25,2516           53224                                    BECONSTD                              #  SET MODE=HUNTEST, CONTINUE IN CONSTD
000565: 25,2517           17662                           STODL    DVL                                   #  DVL / 2VS
000566:
000567: 25,2520           15202                                    HALVE
000568: 25,2521           03672                           STORE    VS1                                   #  VS1 = VSAT
000569:
000570: 25,2522           50025                           DSU      BMN                                   #  IF V1 GREATER THAN VSAT, GO ON
000571: 25,2523           00326                                    V1
000572: 25,2524           52532                                    GETDHOOK
000573: 25,2525           77621                           BDSU
000574: 25,2526           03662                                    DVL
000575: 25,2527           17662                           STODL    DVL                                   #  DVL = DVL - (VSAT-V1) = V1 - VL
000576: 25,2530           00326                                    V1
000577: 25,2531           03672                           STORE    VS1                                   #  VS1 = V1, IN THIS CASE
000578:
000579: 25,2532           45145        GETDHOOK           DLOAD    CALL                                  #  DHOOK=((1-VS1/FACT1) SQ -ALP)/FACT2
000580: 25,2533           03672                                    VS1                                   #  VS1 / 2 VS
000581: 25,2534           53002                                    DHOOKYQ7                              #  GO CALC DHOOK
000582: 25,2535           03656                           STORE    DHOOK                                 #  DHOOK / 25G
000583:
000584: 25,2536           56261                           SR       DDV
000585: 25,2537           20607                                    6                                     #  CHOOK
000586: 25,2540           03226                                    Q7
000587: 25,2541           77625                           DSU
000588: 25,2542           15120                                    CHOOK                                 #  = .25/16 = (-6)
000589: 25,2543           03660                           STORE    AHOOKDV
000590:
000591: 25,2544           41215                           DAD      DMP                                   #  GAMMAL= GAMMAL1-CH1 DVL SQ(1+AHOOK DVL)
000592: 25,2545           17464                                    1/16TH
000593: 25,2546           15124                                    CH1
000594: 25,2547           41205                           DMP      DMP
000595: 25,2550           03662                                    DVL
000596: 25,2551           03662                                    DVL
000597: 25,2552           56271                           DDV      DDV
000598: 25,2553           03656                                    DHOOK
000599: 25,2554           03666                                    VBARS
000600: 25,2555           50021                           BDSU     BMN
000601: 25,2556           00027                                    GAMMAL1
000602: 25,2557           52747                                    NEGAMA
000603: 25,2560           03741        HUNTEST3           STORE    GAMMAL
000604:
000605: 25,2561           77625                           DSU                                            #  GAMMAL1=GAMMAL1 +Q19 (GAMMAL-GAMMAL1)
000606: 25,2562           00027                                    GAMMAL1
000607: 25,2563           43205                           DMP      DAD
000608: 25,2564           15202                                    Q19
000609: 25,2565           00027                                    GAMMAL1
000610: 25,2566           14027                           STODL    GAMMAL1
000611: 25,2567           03741                                    GAMMAL
000612:
000613:
000614:                                                                                                  #  *START        RANGE PREDICTION ...
000615:
000616:                                                                                                  #  C(MPAC) = GAMMAL
000617: 25,2570           60516        RANGER             DSQ      SR2                                   #  COSG = 1-GAMMAL SQ/2, TRUNCATED SERIES
000618: 25,2571           77621                           BDSU
000619: 25,2572           15202                                    HALVE
000620: 25,2573           17670                           STODL    COSG/2
000621: 25,2574           03666                                    VBARS                                 #  E=SQRT(1+VBARS........
000622:
000623: 25,2575           41225                           DSU      DMP
000624: 25,2576           15202                                    HALVE
000625: 25,2577           03666                                    VBARS
000626: 25,2600           41205                           DMP      DMP
000627: 25,2601           03670                                    COSG/2
000628: 25,2602           03670                                    COSG/2
000629: 25,2603           43312                           SL2      DAD
000630: 25,2604           17464                                    C1/16                                 #  C1/16 = 1/16
000631: 25,2605           65366                           SQRT     PDDL                                  #  E/4 INTO PDL
000632:
000633: 25,2606           03666                                    VBARS
000634: 25,2607           41205                           DMP      DMP                                   #  ASKEP/2 = ARCSIN(VBARS COSG SING/E)
000635: 25,2610           03670                                    COSG/2
000636: 25,2611           03741                                    GAMMAL
000637: 25,2612           67471                           DDV      ASIN
000638: 25,2613           41552                           SL1      PUSH                                  #  ASKEP TO PDL 0.
000639: 25,2614           17731                           STODL    ASKEP                                 #  BALLISTIC RANGE       ASKEP/2PI
000640:
000641:                                                                                                  #  FOR TM, STORE RANGE COMPONENTS OVERLAPPING (SP)
000642: 25,2615           03737                                    VL
000643: 25,2616           43205                           DMP      DAD                                   #  ASP1 = Q2 + Q3 VL
000644: 25,2617           15040                                    Q3
000645: 25,2620           03712                                    Q2
000646: 25,2621           03732                           STORE    ASP1                                  #  FINAL PHASE RANGE     ASP1/2 PI
000647:
000648: 25,2622           63525                           PDDL     DSQ                                   #  ASP1 TO PDL 2.
000649: 25,2623           00326                                    V1
000650:                                                                                                  #                    2
000651:                                                                                                  #  ASPUP= -C12 LOG(V1 Q7/VBARS A0)/GAMMAL1
000652: 25,2624           56205                           DMP      DDV
000653: 25,2625           03226                                    Q7
000654: 25,2626           03666                                    VBARS
000655: 25,2627           45071                           DDV      CALL
000656: 25,2630           00330                                    A0
000657: 25,2631           46155                                    LOG                                   #  RETURN WITH -LOG IN MPAC
000658:
000659: 25,2632           56205                           DMP      DDV
000660: 25,2633           15056                                    C12
000661: 25,2634           00027                                    GAMMAL1
000662: 25,2635           03733                           STORE    ASPUP                                 #  UP PHASE RANGE        ASPUP / 2 PI
000663: 25,2636           41325                           PDDL     DMP                                   #  ASPUP TO PDL 4.
000664: 25,2637           15126                                    KC3                                   #  KC3 =-4 VS VS/ 2 PI 805 RE
000665:                                                                                                  #  ASPDWN = KC3 RDOT V / A0
000666: 25,2640           03700                                    RDOT
000667: 25,2641           56205                           DMP      DDV
000668: 25,2642           03674                                    V
000669: 25,2643           00330                                    A0
000670: 25,2644           41471                           DDV      PUSH                                  #  ASPDWN TO PDL 6.
000671: 25,2645           03624                                    LAD
000672: 25,2646           17734                           STODL    ASPDWN                                #  RANGE TO PULL OUT     ASPDWN /2 PI
000673:
000674: 25,2647           15044                                    Q6
000675: 25,2650           41225                           DSU      DMP                                   #  ASP3 = Q5(Q6-GAMMAL)
000676: 25,2651           03741                                    GAMMAL
000677: 25,2652           15042                                    Q5
000678: 25,2653           27735                           STOVL    ASP3                                  #  GAMMA CORRECTION      ASP3/2PI
000679:
000680: 25,2654           03731                                    ASKEP                                 #  GET HI-WD AND
000681: 25,2655           17155                           STODL    ASPS(TM)                              #  SAVE HI-WORD OF ASP'S FOR TM.
000682:
000683: 25,2656           03735                                    ASP3
000684: 25,2657           43215                           DAD      DAD
000685:                                                                                                  #  ASPDWN FROM PDL 6.
000686:                                                                                                  #  ASPUP FROM PDL 4.
000687: 25,2660           43215                           DAD      DAD
000688:                                                                                                  #  ASP1 FROM PDL 2.
000689:                                                                                                  #  ASKEP FROM PDL 0.
000690: 25,2661           41025                           DSU      BOVB                                  #  CLEAR OVFIND.
000691: 25,2662           03702                                    THETAH
000692: 25,2663           57450                                    TCDANZIG
000693: 25,2664           03610                           STORE    DIFF                                  #  DIFF = (ASP-THETAH) / 2 PI
000694:                                                                                                  #  ASP=ASKEP+ASP1+ASPUP+ASP3+ASPDWN = TOTAL RANGE
000695:
000696: 25,2665           45246                           ABS      DSU                                   #  IF ABS(THETAH-ASP) -25NM NEG, GO TO UPSY
000697: 25,2666           15072                                    25NM
000698: 25,2667           43040                           BMN      BON
000699: 25,2670           53031                                    GOTOUPSY
000700: 25,2671           03311                                    HIND
000701: 25,2672           52676                                    GETDLEWD
000702:
000703: 25,2673           51145                           DLOAD    BPL
000704: 25,2674           03610                                    DIFF
000705: 25,2675           53217                                    DCONSTD                               #  EVENTUALLY SETS MODE = HUNTEST.
000706: 25,2676           41345        GETDLEWD           DLOAD    DMP
000707:                                                                                                  #  DLEWD = DLEWD (DIFF/(DIFFOLD-DIFF))
000708: 25,2677           03642                                    DLEWD
000709: 25,2700           03610                                    DIFF
000710: 25,2701           45325                           PDDL     DSU
000711: 25,2702           03612                                    DIFFOLD
000712: 25,2703           03610                                    DIFF
000713: 25,2704           77665                           BDDV
000714: 25,2705           77626        LWDSTORE           STADR
000715: 25,2706           74135                           STORE    DLEWD
000716: 25,2707           50015                           DAD      BMN                                   #  IF LEWD+DLEWD NEG, DLEWD=-LEWD/2
000717: 25,2710           03725                                    LEWD
000718: 25,2711           52743                                    LEWDPTR
000719: 25,2712           77600                           BOV
000720: 25,2713           52737                                    LEWDOVFL
000721: 25,2714           03725                           STORE    LEWD
000722:
000723: 25,2715           77776        SIDETRAK           EXIT
000724:
000725: 25,2716           04606                           TC       E7SETTER
000726:
000727: 25,2717           35067                           CA       PRIO16                                #  DROP GRP 5 RESTART PRIO TO 1 LESS THAN
000728: 25,2720           55260                           TS       PHSPRDT5                              #  GRP 4.
000729:
000730: 25,2721           05415                           TC       PHASCHNG
000731: 25,2722           00474                           OCT      00474                                 #  RESTART GRP 4 AT PRE-HUNT.
000732:                                                                                                  #  FORCE RESTART TO PICK UP IN GRP 4:
000733:                                                                                                  #  USE PRIO 17 FOR GRP 4 (< SERVICER PRIO)
000734: 25,2723  01,2220               4P47SPT1           =        4.47SPOT
000735: 25,2723           35067                           CA       PRIO16                                #  CONTINUE GRP 5 AT LOWER PRIO THAN EITHER
000736:                                                                                                  #  GRP 4 OR SERVICER.
000737: 25,2724           05211                           TC       PRIOCHNG
000738:
000739: 25,2725           33030                           CAF      ADENDEXT                              #  SIDETRACK NEXT PASS UNTIL THIS ONE DONE.
000740: 25,2726           55645                           TS       GOTOADDR                              #  ONLY AFTER RESTART IS LEFT AFTER DETOUR.
000741:
000742: 25,2727           06006                           TC       INTPRET
000743:
000744: 25,2730           43145                           DLOAD    SET
000745: 25,2731           03610                                    DIFF
000746: 25,2732           03071                                    HIND
000747: 25,2733           17612                           STODL    DIFFOLD                               #  DIFFOLD / 2 PI
000748:
000749: 25,2734           15046                                    Q7F
000750: 25,2735           37226                           STCALL   Q7                                    #  Q7 / 805 FPSS
000751: 25,2736           52372                                    HUNTEST                               #   (GO TO)
000752:
000753: 25,2737           77745        LEWDOVFL           DLOAD
000754: 25,2740           15212                                    NEARONE
000755: 25,2741           37725                           STCALL   LEWD
000756: 25,2742           53217                                    DCONSTD                               #  (GO TO)  ALSO WILL SET MODE = HUNTEST
000757:
000758: 25,2743           70545        LEWDPTR            DLOAD    SR1
000759: 25,2744           03725                                    LEWD
000760: 25,2745           52076                           DCOMP    GOTO
000761: 25,2746           52705                                    LWDSTORE
000762:
000763:                                                                                                  #  NEGAMA IS PART OF HUNTEST ...
000764:
000765: 25,2747           41205        NEGAMA             DMP      DMP                                   #  ENTER WITH GAMMAL IN MPAC
000766: 25,2750           03737                                    VL
000767: 25,2751           15020                                    1/3RD
000768: 25,2752           41325                           PDDL     DMP                                   #  PUSH GAMMAL VL/3
000769: 25,2753           03725                                    LEWD
000770: 25,2754           15020                                    1/3RD
000771: 25,2755           43325                           PDDL     DAD                                   #  PUSH LEWD/3
000772: 25,2756           03660                                    AHOOKDV
000773: 25,2757           15122                                    1/24TH
000774: 25,2760           41205                           DMP      DMP                                   #  DEL VL = (GAMMAL VL/3)/(LEWD/3-DVL
000775: 25,2761           03662                                    DVL                                   #  (2/3 + AHOOKDV)(CH1 GS/DHOOK VL))
000776: 25,2762           15124                                    CH1
000777: 25,2763           56271                           DDV      DDV
000778: 25,2764           03656                                    DHOOK
000779: 25,2765           03737                                    VL
000780: 25,2766           55221                           BDSU     BDDV
000781:                                                                                                  #  LEWD/3
000782:                                                                                                  #  GAMMAL VL /3
000783: 25,2767           77615                           DAD
000784: 25,2770           03737                                    VL
000785: 25,2771           37737                           STCALL   VL                                    #  VL/2 VS
000786:
000787: 25,2772           53002                                    DHOOKYQ7                              #  GO CALC Q7
000788:                                                                                                  #  Q7=((1-VL/FACT1)SQ - ALP)/FACT2
000789: 25,2773           17226                           STODL    Q7                                    #  Q7 / 25G
000790:
000791: 25,2774           03737                                    VL
000792: 25,2775           77716                           DSQ
000793: 25,2776           17666                           STODL    VBARS                                 #  VBARS / 4 VS VS
000794:
000795: 25,2777           15204                                    3ZEROS
000796: 25,3000           77650                           GOTO                                           #  SET GAMMAL = 0
000797: 25,3001           52560                                    HUNTEST3
000798:
000799: 25,3002           56342        DHOOKYQ7           SR1      DDV                                   #  SUBROUTINE TO CALC DHOOK OR Q7)
000800: 25,3003           03616                                    FACT1
000801: 25,3004           72421                           BDSU     SL1
000802: 25,3005           15202                                    HALVE
000803: 25,3006           45316                           DSQ      DSU
000804: 25,3007           03704                                    ALP
000805: 25,3010           43471                           DDV      RVQ
000806: 25,3011           03620                                    FACT2
000807:
000808:                                                                                                  #  COME TO PRE-HUNT WHEN RESTART OCCURS AFTER
000809:                                                                                                  #  HUNTEST IS SIDE-TRACKED AT SIDETRAK.
000810:                                                                                                  #  PICK UP IN GROUP 4.
000811:
000812: 25,3012           06006        PRE-HUNT           TC       INTPRET
000813: 25,3013           45014                           CLEAR    CALL
000814: 25,3014           03271                                    HIND                                  #  HIND          99D  BIT 6  FLAG 6
000815: 25,3015           53020                                    FOREHUNT                              #  RE-INITIALIZE HUNTEST AFTER RE-START.
000816: 25,3016           77650                           GOTO
000817: 25,3017           52372                                    HUNTEST
000818:
000819: 25,3020           77745        FOREHUNT           DLOAD                                          #  INITIALIZE HUNTEST.
000820: 25,3021           15204                                    3ZEROS
000821: 25,3022           17612                           STODL    DIFFOLD
000822: 25,3023           15026                                    DLEWD0
000823: 25,3024           17642                           STODL    DLEWD
000824: 25,3025           15022                                    LEWD1
000825: 25,3026           03725                           STORE    LEWD
000826: 25,3027           77616                           RVQ
000827:
000828: 25,3030           53573        ADENDEXT           CADR     ENDEXIT
000829:
000830:
000831:                                                                                                  #  * START       UP CONTROL ...
000832:
000833:                                                                                                  #  MM = 65
000834: 25,3031           77634        GOTOUPSY           RTB                                            #  END OF HUNTEST
000835: 25,3032           54307                                    P65                                   #  HUNTEST USE OF GRP4 IS DISABLED BY P65
000836:                                                                                                  #  USE FOR DISPLAY.
000837:                                                                                                  #  SET MODE = UPCONTRL.
000838:                                                                                                  #  RETURN FROM P65 DIRECTLY TO UPCONTRL
000839:                                                                                                  #  VIA THE GOTOADDR AT REFAZE10.
000840:
000841: 25,3033           45345        UPCONTRL           DLOAD    DSU                                   #  IF D-140 POS, NOSWITCH =1
000842: 25,3034           03640                                    D                                     #  (SUPPRESS LATERAL SWITCH)
000843: 25,3035           15070                                    C21
000844: 25,3036           43040                           BMN      SET
000845: 25,3037           53041                                    +2
000846: 25,3040           03070                                    NOSWITCH
000847:
000848: 25,3041           45345                           DLOAD    DSU                                   #  IF V-V1 POS, GO TO DOWN CONTROL.
000849: 25,3042           03674                                    V
000850: 25,3043           00326                                    V1
000851: 25,3044           71244                           BPL      DLOAD
000852: 25,3045           53256                                    DOWNCNTL
000853: 25,3046           03640                                    D
000854: 25,3047           50025                           DSU      BMN                                   #  IF D- Q7 NEG, GO TO KEP
000855: 25,3050           03226                                    Q7
000856: 25,3051           53311                                    KEP
000857: 25,3052           51145                           DLOAD    BPL                                   #  IF RDOT NEG, DO VLTEST
000858: 25,3053           03700                                    RDOT
000859: 25,3054           53063                                    CONT1
000860:
000861: 25,3055           45345        VLTEST             DLOAD    DSU                                   #  IF V-VL-C18 NEG,EGSW=1,MODE=PREDICT3
000862: 25,3056           03674                                    V
000863: 25,3057           03737                                    VL
000864: 25,3060           50025                           DSU      BMN
000865: 25,3061           15034                                    C18
000866: 25,3062           53331                                    PREFINAL
000867:
000868: 25,3063           77745        CONT1              DLOAD                                          #  IF D-A0 POS, L/D = LAD, GO TO LIMITL/D
000869: 25,3064           03640                                    D
000870: 25,3065           50025                           DSU      BMN
000871: 25,3066           00330                                    A0
000872: 25,3067           53073                                    CONT3
000873: 25,3070           52145                           DLOAD    GOTO
000874: 25,3071           03624                                    LAD
000875: 25,3072           53522                                    STOREL/D
000876:
000877: 25,3073           41345        CONT3              DLOAD    DMP                                   #  VREF=FACT1(1-SQRT(FACT2 D + ALP))
000878: 25,3074           03640                                    D
000879: 25,3075           03620                                    FACT2
000880: 25,3076           75415                           DAD      SQRT
000881: 25,3077           03704                                    ALP
000882: 25,3100           41221                           BDSU     DMP
000883: 25,3101           15212                                    BARELY1
000884: 25,3102           03616                                    FACT1
000885: 25,3103           01302                           STORE    VREF                                  #  VREF / 2VS
000886:
000887: 25,3104           41221                           BDSU     DMP                                   #  RDOTREF = LEWD(V1-VREF)
000888: 25,3105           00326                                    V1
000889: 25,3106           03725                                    LEWD
000890: 25,3107           15300                           STODL    RDOTREF                               #  RDOTREF / 2VS
000891:
000892: 25,3110           03672                                    VS1
000893: 25,3111           50025                           DSU      BMN                                   #  IF VSAT-VREF NEG, GO TO CONTINU2
000894: 25,3112           01302                                    VREF
000895: 25,3113           53132                                    CONTINU2
000896:
000897: 25,3114           41406                           PUSH     PUSH                                  #  VS1-VREF  TO PDL TWICE
000898: 25,3115           56205                           DMP      DDV                                   #  RDHOOK=CH1(1+DV AHOOKDV/DVL) DV DV
000899: 25,3116           03660                                    AHOOKDV                               #        /DHOOK VREF
000900: 25,3117           03662                                    DVL                                   #  WHERE  DV = (VS1-VREF)
000901: 25,3120           41215                           DAD      DMP
000902: 25,3121           17464                                    1/16TH
000903: 25,3122           15124                                    CH1
000904: 25,3123           41205                           DMP      DMP
000905:                                                                                                  #  VS1-VREF  FROM PDL TWICE.
000906: 25,3124           77671                           DDV
000907: 25,3125           03656                                    DHOOK
000908: 25,3126           44271                           DDV      BDSU
000909: 25,3127           01302                                    VREF
000910: 25,3130           01300                                    RDOTREF                               #  C(RDOTREF)= LEWD (V1-VREF)
000911: 25,3131           01300                           STORE    RDOTREF                               #  RDOTREF = RDOTREF - RDHOOK
000912:
000913: 25,3132           45345        CONTINU2           DLOAD    DSU
000914: 25,3133           03640                                    D
000915: 25,3134           15212                                    Q7MIN
000916: 25,3135           50004                           BOVB     BMN
000917: 25,3136           57450                                    TCDANZIG                              #  CLEAR OVFL IND, IF ON.
000918: 25,3137           53150                                    UPCNTRL3
000919: 25,3140           45345                           DLOAD    DSU
000920: 25,3141           03664                                    A1
000921: 25,3142           03226                                    Q7
000922: 25,3143           45325                           PDDL     DSU
000923: 25,3144           03640                                    D
000924: 25,3145           03226                                    Q7
000925: 25,3146           45471                           DDV      STADR
000926: 25,3147           74163                           STORE    FACTOR                                #  FACTOR / 25G
000927:
000928:
000929:                                                                                                  #  SKIPPER
000930:
000931:                                                                                                  #  DELTA L/D=-((RDOT-RDOTREF)F1 KB1+V-VREF)F1 KB2
000932:                                                                                                  #        WHERE F1 = FACTOR
000933:
000934: 25,3150           77745        UPCNTRL3           DLOAD
000935: 25,3151           03700                                    RDOT
000936: 25,3152           41225                           DSU      DMP                                   #  L/D = LEWD
000937: 25,3153           01300                                    RDOTREF                               #  -((RDOT-RDOTREF)F1/KB1+V-VREF)F1/KB2
000938: 25,3154           03614                                    FACTOR
000939: 25,3155           43271                           DDV      DAD
000940: 25,3156           15060                                    1/KB1
000941: 25,3157           03674                                    V
000942: 25,3160           41225                           DSU      DMP
000943: 25,3161           01302                                    VREF
000944: 25,3162           03614                                    FACTOR
000945: 25,3163           41471                           DDV      PUSH
000946:
000947: 25,3164           15062                                    -1/KB2                                #  DELTA L/D INTO PDL
000948: 25,3165           51400                           BOV      ABS                                   #  NONLINEAR CIRCUIT FOR REDUCING HIGH GAIN
000949: 25,3166           53467                                    GOMAXL/D
000950: 25,3167           50025                           DSU      BMN
000951: 25,3170           15144                                    PT1/16
000952: 25,3171           53176                                    NEXT1
000953: 25,3172           43205                           DMP      DAD
000954: 25,3173           15024                                    POINT1
000955: 25,3174           15144                                    PT1/16
000956: 25,3175           41565                           SIGN     PUSH                                  #  ATTACH SIGN OF PUSH TO MPAC THEN PUSH
000957:
000958: 25,3176           42545        NEXT1              DLOAD    SL4
000959:                                                                                                  #  DELTA L/D FROM PDL.
000960: 25,3177           77615                           DAD
000961: 25,3200           03725                                    LEWD
000962: 25,3201           41400        NEGTESTS           BOV      PUSH                                  #  L/D TO PDL FOR USE IN NEGTESTS.
000963: 25,3202           53467                                    GOMAXL/D
000964: 25,3203           17634                           STODL    L/D
000965:                                                                                                  #  IF D-C20 POS, LATSW =0
000966:                                                                                                  #  AND IF L/D NEG, L/D = 0.
000967: 25,3204           03640                                    D
000968: 25,3205           50025                           DSU      BMN
000969: 25,3206           15066                                    C20
000970: 25,3207           53523                                    LIMITL/D
000971: 25,3210           71214                           CLEAR    DLOAD
000972: 25,3211           03273                                    LATSW                                 #  =21D.  ROLL OVER TOP, REGARDLESS.
000973:                                                                                                  #  L/D FROM PDL.
000974: 25,3212           71244                           BPL      DLOAD
000975: 25,3213           53523                                    LIMITL/D
000976: 25,3214           15204                                    3ZEROS
000977: 25,3215           37634                           STCALL   L/D
000978: 25,3216           53523                                    LIMITL/D                              #  (GO TO)
000979:
000980: 25,3217           77745        DCONSTD            DLOAD                                          #  TWO RANGER ENTRIES TO CONSTD HERE
000981: 25,3220           03610                                    DIFF
000982:                                                                                                  #  SAVE OLD VALUE OF DIFF FOR NEXT PASS.
000983: 25,3221           17612                           STODL    DIFFOLD                               #  DIFFOLD / 2 PI
000984:
000985: 25,3222           15046                                    Q7F
000986: 25,3223           03226                           STORE    Q7
000987:
000988: 25,3224           47131        BECONSTD           SSP      RTB                                   #  A HUNTEST ENTRY INTO CONSTD.
000989: 25,3225           03646                                    GOTOADDR                              #  RESET MODE TO HUNTEST
000990: 25,3226           52372                                    HUNTEST
000991: 25,3227           54354                                    KILLGRP4                              #  DEACTIVATE GRP4 FROM HUNTEST.
000992:
000993: 25,3230           77604        CONSTD             BOVB
000994: 25,3231           57450                                    TCDANZIG                              #  CLEAR OVF IND IF ON.
000995:
000996: 25,3232           41345                           DLOAD    DMP
000997: 25,3233           03654                                    LEQ
000998: 25,3234           03706                                    C/D0                                  #  C/D0 = -4/D0  B-8
000999: 25,3235           41325                           PDDL     DMP                                   #  LEQ C/D0  INTO PDL
001000: 25,3236           15132                                    2HS                                   #  2HS / 4 VS VS
001001: 25,3237           03710                                    D0
001002: 25,3240           43271                           DDV      DAD                                   #  RDOTREF = -2 HS D0/V
001003: 25,3241           03674                                    V
001004: 25,3242           03700                                    RDOT
001005: 25,3243           43205                           DMP      DAD
001006: 25,3244           15076                                    K2D                                   #  C/D0 LEQ + K2D(RDOT-RDOTREF) INTO PD
001007: 25,3245           77725                           PDDL
001008: 25,3246           03710                                    D0                                    #  D0 /805
001009:
001010: 25,3247           77621        CONSTD1            BDSU                                           #  ENTER WITH  DREF  IN MPAC
001011: 25,3250           03640                                    D
001012: 25,3251           43205                           DMP      DAD
001013: 25,3252           15074                                    K1D                                   #  K2D TERM FROM PUSH
001014: 25,3253           52061                           SL       GOTO
001015: 25,3254           20211                                    8D
001016: 25,3255           53201                                    NEGTESTS                              #  (GO TO)
001017:
001018:
001019: 25,3256           77604        DOWNCNTL           BOVB                                           #  INITIAL PART OF UPCONTROL.
001020: 25,3257           57450                                    TCDANZIG                              #  CLEAR OVFIND, IF ON.
001021:
001022: 25,3260           54345                           DLOAD    SR
001023: 25,3261           03624                                    LAD
001024: 25,3262           20611                                    8D
001025: 25,3263           45325                           PDDL     DSU                                   #  RDTR = LAD(V1-V)
001026: 25,3264           03674                                    V
001027: 25,3265           00326                                    V1
001028: 25,3266           43205                           DMP      DAD
001029: 25,3267           03624                                    LAD
001030: 25,3270           03700                                    RDOT
001031: 25,3271           43205                           DMP      DAD
001032: 25,3272           15076                                    K2D
001033:                                                                                                  #  PUSH UP LAD.
001034: 25,3273           45325                           PDDL     DSU                                   #  LAD + K2D(RDOT-RDTR) INTO PD
001035: 25,3274           00326                                    V1
001036: 25,3275           03674                                    V
001037: 25,3276           41316                           DSQ      DMP
001038: 25,3277           03624                                    LAD
001039: 25,3300           65271                           DDV      PDDL                                  #  (V1-V)SQ LAD/(2 C1 HS) INTO PD
001040: 25,3301           15142                                    2C1HS
001041: 25,3302           00326                                    V1
001042: 25,3303           56316                           DSQ      DDV
001043: 25,3304           03622                                    VSQUARE
001044: 25,3305           45265                           BDDV     DSU                                   #  DREF = (V/V1)SQ A0 - PD
001045: 25,3306           00330                                    A0
001046:                                                                                                  #  PUSH UP HERE
001047: 25,3307           77650                           GOTO                                           #  C(MPAC) = DREF
001048: 25,3310           53247                                    CONSTD1
001049:
001050:                                                                                                  #               2           2
001051:                                                                                                  #  DREF = (V/V1)  A0 -(V-V1)  LAD/2 C1 HS
001052:
001053:                                                                                                  #  * START       BALLISTIC PHASE ...
001054:
001055:                                                                                                  #  MM = 66       UPCONTRL ENTRY INTO KEP2.
001056: 25,3311           66234        KEP                RTB      SSP
001057: 25,3312           54342                                    P66                                   #  DISPLAY TRIM GIMBAL ANGLE VALUES.
001058: 25,3313           03646                                    GOTOADDR                              #  SET GOTOADDR TO KEPLER PHASE.
001059: 25,3314           53315                                    KEP2
001060:
001061:                                                                                                  #  KEP2 CAN ALSO BE STARTED UP DIRECTLY FROM INITROLL
001062:                                                                                                  #  IN P64. PROGRAM WILL IDLE IN P64 UNTIL D EXCEEDS
001063:                                                                                                  #  .2 G BEFORE GOING ON TO P67.
001064:
001065: 25,3315           45345        KEP2               DLOAD    DSU                                   #  IF Q7F+KDMIN -D NEG, GO TO FINAL PHASE.
001066: 25,3316           15036                                    Q7FKDMIN                              #  (Q7F + KDMIN)/805
001067: 25,3317           03640                                    D
001068: 25,3320           72240                           BMN      TLOAD
001069: 25,3321           53331                                    PREFINAL
001070:
001071:
001072:                                                                                                  #  SET ROLLHOLD = ROLLC, IN CASE CMDAPMOD
001073: 25,3322           03347                                    ROLLC                                 #  = +1 EVER ENTERED.
001074: 25,3323           72214                           BON      TLOAD                                 #  IF D > .05G, KEEP PRESENT ROLL COMMAND.
001075: 25,3324           03314                                    .05GSW                                #  IF D < .05G, SET ROLL COMMAND = 0.
001076: 25,3325           53327                                    +2
001077: 25,3326           15204                                    3ZEROS                                #  SET ROLLC & ROLLHOLD =0.
001078: 25,3327           37347                 +2        STCALL   ROLLC                                 #  (SP ROLLHOLD FOLLOWS DP ROLLC)
001079: 25,3330           54251                                    P62.3                                 #  CALC DESIRED GIMBAL ANGLES AT PRESENT
001080:                                                                                                  #  RN, VN TO YIELD TRIM ATTITUDE.
001081:                                                                                                  #  AVAILABLE IN CPHI'S FOR N22.
001082:
001083:                                                                                                  #  START         FINAL PHASE  ..
001084:
001085:                                                                                                  #  MM = 67
001086: 25,3331           47131        PREFINAL           SSP      RTB
001087: 25,3332           03646                                    GOTOADDR                              #  RESTART PROTECT: RESET GOTOADDR IF CAME
001088: 25,3333           53331                                    PREFINAL                              #  FROM HUNTEST.
001089: 25,3334           54346                                    P67                                   #  DISABLES GRP4. FINE IF FROM HUNTEST. BUT
001090:                                                                                                  #  MAY ALSO REMOVE RESTART PROTECTION OF
001091:                                                                                                  #  N69 (P65).
001092:                                                                                                  #  ROLLC         XRNGERR         DNRNGERR
001093:                                                                                                  #  XXX.XX DEG    XXXX.X NM       XXXX.X NM
001094:
001095: 25,3335           66214                           SET      SSP
001096: 25,3336           03067                                    EGSW
001097: 25,3337           03646                                    GOTOADDR
001098: 25,3340           53341                                    PREDICT3
001099:
001100:
001101: 25,3341           45345        PREDICT3           DLOAD    DSU                                   #  IF V-VQUIT NEG, STOP STEERING
001102: 25,3342           03674                                    V
001103: 25,3343           15064                                    VQUIT
001104: 25,3344           77440                           BMN      EXIT
001105: 25,3345           53610                                    STEEROFF
001106:
001107: 25,3346           04606                           TC       E7SETTER                              #  PRECAUTIONARY
001108:
001109: 25,3347           35750                           CA       TWELVE
001110: 25,3350           55741        BACK               TS       JJ
001111:
001112: 25,3351           41673                           CS       V
001113: 25,3352           51741                           INDEX    JJ
001114: 25,3353           63633                           AD       VREFER                                #  VREF - V, HIGHEST VREF AT END OF TABLE.
001115: 25,3354           10000                           CCS      A                                     #  IF VREF-V POS LOOP BACK
001116: 25,3355           11741                           CCS      JJ                                    #  DECREMENT JJ, JJ CANNOT BE ZERO
001117: 25,3356           13350                           TCF      BACK
001118: 25,3357           65001                           AD       ONE
001119: 25,3360           55646                           TS       TEM1B                                 #  V-VREF IN TEM1B (MUST BE POSITIVE NUM)
001120:
001121: 25,3361           51741                           INDEX    JJ
001122: 25,3362           43633                           CS       VREFER
001123: 25,3363           51741                           INDEX    JJ
001124: 25,3364           63634                           AD       VREFER     +1                         #  V(K+1) - V(K)                 (POS NUM)
001125: 25,3365           57646                           XCH      TEM1B
001126: 25,3366           22007                           ZL
001127: 25,3367           00006                           EXTEND
001128: 25,3370           11646                           DV       TEM1B
001129: 25,3371           55651                           TS       GRAD                                  #  GRAD = (V-VREF)/(VK+1 - VK)   (POS NUM
001130:
001131: 25,3372           35004                           CAF      FIVE
001132: 25,3373           55650        BACK2              TS       MM
001133: 25,3374           35007                           CAF      THIRTEEN
001134: 25,3375           27741                           ADS      JJ
001135: 25,3376           50000                           INDEX    A
001136: 25,3377           43633                           CS       VREFER
001137: 25,3400           51741                           INDEX    JJ
001138: 25,3401           63634                           AD       VREFER     +1                         #  X(K+1) - X(K)
001139: 25,3402           00006                           EXTEND
001140: 25,3403           71651                           MP       GRAD
001141: 25,3404           51741                           INDEX    JJ
001142: 25,3405           63633                           AD       VREFER
001143: 25,3406           51650                           INDEX    MM
001144: 25,3407           55652                           TS       FX                                    #  FX = AK + GRAD (AK+1 - AK)
001145: 25,3410           11650                           CCS      MM
001146: 25,3411           13373                           TCF      BACK2
001147: 25,3412           57653                           XCH      FX         +1                         #  ZERO FX +1 AND GET DREFR
001148: 25,3413           61637                           AD       D
001149: 25,3414           00006                           EXTEND
001150: 25,3415           71657                           MP       FX         +5                         #  F1
001151: 25,3416           52155                           DXCH     MPAC                                  #  MPAC = F1(D-DREF)
001152:
001153: 25,3417           00006                           EXTEND
001154: 25,3420           41700                           DCS      RDOT                                  #  FORM RDOTREF - RDOT
001155: 25,3421           20001                           DDOUBL
001156: 25,3422           20001                           DDOUBL
001157: 25,3423           20001                           DDOUBL                                         #  SCALE UP BY 8 FOR THIS PHASE.
001158: 25,3424           61655                           AD       FX         +3                         #  RDOTREF
001159: 25,3425           00006                           EXTEND
001160: 25,3426           71656                           MP       FX         +4                         #  F2
001161: 25,3427           61654                           AD       FX         +2                         #  RTOGO
001162: 25,3430           20155                           DAS      MPAC                                  #  ADD F2(DADV1-DADVR)
001163: 25,3431           30154                           CA       MPAC
001164: 25,3432           55740                           TS       PREDANG
001165:                                                                                                  #  L/D = LOD + (THETA- PREDANG)/ Y
001166: 25,3433           06006                           TC       INTPRET
001167:
001168: 25,3434           45242                           SR3      DSU
001169: 25,3435           03702                                    THETAH
001170: 25,3436           43014                           BON      BOFF
001171: 25,3437           03305                                    GONEPAST
001172: 25,3440           53465                                    GONEGLAD
001173: 25,3441           03747                                    GONEBY
001174: 25,3442           53450                                    HAVDNRNG
001175: 25,3443           43145                           DLOAD    SET                                   #  SET GONEPAST IF GONEBY SET & LATCH IN -
001176: 25,3444           13767                                    MAXRNG                                #  DISPLAY = 9999.9 IF GONEBY         PLACE
001177: 25,3445           03065                                    GONEPAST
001178: 25,3446           37716                           STCALL   DNRNGERR
001179: 25,3447           53465                                    GONEGLAD
001180:
001181: 25,3450           03716        HAVDNRNG           STORE    DNRNGERR                              #  = (PREDANG - THETA) /360
001182: 25,3451           77676                           DCOMP                                          #    FALL SHORT IF NEG, OVERSHOOT IF POS
001183: 25,3452           56204                           BOVB     DDV
001184: 25,3453           57450                                    TCDANZIG                              #  CLEAR OVFIND IF ON.
001185: 25,3454           03653                                    FX                                    #  FX= DRANGE/D L/D = Y
001186: 25,3455           40061                           SL       BOV
001187: 25,3456           20206                                    5
001188: 25,3457           53467                                    GOMAXL/D
001189: 25,3460           40015                           DAD      BOV
001190: 25,3461           03626                                    LOD
001191: 25,3462           53467                                    GOMAXL/D
001192: 25,3463           37634                           STCALL   L/D
001193: 25,3464           53473                                    GLIMITER                              #  (GO TO)
001194:
001195:
001196:                                                                                                  #  GONEGLAD AND GOPOSMAX ENTRY POINTS FOR GLIMITER ...
001197:
001198: 25,3465           77745        GONEGLAD           DLOAD                                          #  SET L/D = -LAD
001199: 25,3466           13466                                    GONEGLAD                              #  (ANY NEGATIVE NUMBER WILL DO)
001200:
001201: 25,3467           41234        GOMAXL/D           RTB      DMP                                   #  L/D = LAD SIGN(MPAC)
001202: 25,3470           45742                                    SIGNMPAC
001203: 25,3471           03624                                    LAD
001204: 25,3472           03634                           STORE    L/D                                   #  AND FALL INTO GLIMITER SECTION
001205:
001206: 25,3473           45345        GLIMITER           DLOAD    DSU                                   #  IF GMAX/2-D POS, GO TO LIMITL/D
001207: 25,3474           15030                                    GMAX/2
001208: 25,3475           03640                                    D
001209: 25,3476           43244                           BPL      DAD                                   #  IF GMAX  -D NEG, GO TO GOPOSLAD
001210: 25,3477           53523                                    LIMITL/D
001211: 25,3500           15030                                    GMAX/2
001212: 25,3501           41240                           BMN      DMP
001213: 25,3502           53520                                    GOPOSLAD
001214: 25,3503           15132                                    2HS
001215: 25,3504           41325                           PDDL     DMP                                   #  2HS(GMAX-D) INTO PD
001216: 25,3505           03654                                    LEQ
001217: 25,3506           15202                                    1/GMAX
001218: 25,3507           41215                           DAD      DMP
001219: 25,3510           03624                                    LAD
001220: 25,3511           56325                           PDDL     DDV                                   #  2HS(GMAX-D) (LEQ/GMAX+LAD) INTO PD
001221: 25,3512           15134                                    2HSGMXSQ
001222: 25,3513           03622                                    VSQUARE
001223: 25,3514           75415                           DAD      SQRT                                  #  XLIM = SQRT(PD+(2HSGMAX/V)SQ)
001224: 25,3515           51015                           DAD      BPL                                   #  IF RDOT+XLIM POS, GO TO LIMITL/D
001225: 25,3516           03700                                    RDOT
001226: 25,3517           53523                                    LIMITL/D
001227:
001228: 25,3520           77745        GOPOSLAD           DLOAD
001229: 25,3521           03624                                    LAD
001230: 25,3522           03634        STOREL/D           STORE    L/D
001231:
001232: 25,3523           77745        LIMITL/D           DLOAD
001233: 25,3524           03634                                    L/D
001234: 25,3525           17636                           STODL    L/D1
001235: 25,3526           03622                                    VSQUARE
001236:
001237: 25,3527           77614                           BON                                            #  NO LATERAL CONTROL IF PAST TARGET
001238: 25,3530           03305                                    GONEPAST
001239: 25,3531           53563                                    L355
001240: 25,3532           43205                           DMP      DAD                                   #  Y= KLAT VSQUARE + LATBIAS
001241: 25,3533           03632                                    KLAT
001242: 25,3534           15112                                    LATBIAS                               #  Y INTO PD
001243: 25,3535           51525        L350               PDDL     ABS                                   #  IF ABS(L/D)-L/DCMINR NEG, GO TO L353
001244: 25,3536           03634                                    L/D
001245: 25,3537           50025                           DSU      BMN
001246: 25,3540           03630                                    L/DCMINR
001247: 25,3541           53550                                    L353
001248: 25,3542           75345                           DLOAD    SIGN                                  #  IF K2ROLL LATANG NEG, GO TO L357
001249: 25,3543           03676                                    LATANG
001250: 25,3544           03644                                    K2ROLL
001251: 25,3545           71240                           BMN      DLOAD
001252: 25,3546           53626                                    L357
001253: 25,3547           41542                           SR1      PUSH                                  #  Y = Y/2
001254: 25,3550           75345        L353               DLOAD    SIGN                                  #  IF LATANG SIGN(K2ROLL)-Y POS, SWITCH
001255: 25,3551           03676                                    LATANG
001256: 25,3552           03644                                    K2ROLL
001257: 25,3553           77625                           DSU
001258: 25,3554           71240                           BMN      DLOAD
001259: 25,3555           53563                                    L355
001260: 25,3556           03644                                    K2ROLL
001261: 25,3557           57414                           BONCLR   DCOMP                                 #  IF NOSWITCH =1, K2ROLL= K2ROLL
001262: 25,3560           03210                                    NOSWITCH
001263: 25,3561           53563                                    L355
001264: 25,3562           03644                           STORE    K2ROLL                                #  K2ROLL = -K2ROLL
001265:
001266: 25,3563           56345        L355               DLOAD    DDV                                   #  ROLLC = ACOS( (L/D1) / LAD)
001267: 25,3564           03636                                    L/D1
001268: 25,3565           03624                                    LAD                                   #  MPAC SET TO +-1 IF OVERFLOW***
001269: 25,3566           65542                           SR1      ACOS
001270: 25,3567           43165                           SIGN     CLEAR
001271: 25,3570           03644                                    K2ROLL
001272: 25,3571           03270                                    NOSWITCH
001273: 25,3572           03347                           STORE    ROLLC
001274:
001275: 25,3573           77776        ENDEXIT            EXIT
001276:
001277: 25,3574           34765        OVERNOUT           CAF      ENDSPBIT                              #  ENTRYDSP = 92D BIT13
001278: 25,3575           70102                           MASK     CM/FLAGS
001279: 25,3576           00006                           EXTEND
001280: 25,3577           13603                           BZF      NODISKY                               #  OMIT DISPLAY.
001281: 25,3600           31114                           CA       ENTRYVN                               #  ALL ENTRY DISPLAYS ARE DONE HERE.
001282: 25,3601           04647                           TC       BANKCALL
001283: 25,3602           20604                           CADR     REGODSPR                              #  NO ABORT IF DISKY IN USE
001284:
001285: 25,3603           00004        NODISKY            INHINT
001286: 25,3604           10067                           CCS      NEWJOB                                #  PROTECT READACCS GRP 5, IF SIDETRACKED.
001287: 25,3605           05165                           TC       CHANG1
001288: 25,3606           04666        SERVNOUT           TC       POSTJUMP                              #  ( COME HERE FROM P67.3)
001289: 25,3607           77033                           CADR     SERVEXIT                              #  AND END AVERAGEG JOB VIA  ENDOFJOB.
001290:
001291:
001292:                                                                                                  #  DISPLAY WHEN V IS LESS THAN VQUIT.
001293:
001294: 25,3610           77776        STEEROFF           EXIT
001295: 25,3611           04606                           TC       E7SETTER
001296:
001297: 25,3612           35067                           CA       PRIO16                                #  2 LESS THAN NTRYPRIO.
001298: 25,3613           05134                           TC       NOVAC
001299: 25,3614  E6,1712                                  EBANK=   AOG                                   #  ANY EB HERE
001300: 25,3614           02360 54066                     2CADR    P67.1                                 #  START UP REMAINDER OF P67
001301:
001302:                                                                                                  #  RTOGO         LAT             LONG
001303:                                                                                                  #  XXXX.X NM     XXX.XX DEG      XXX.XX DEG
001304:
001305: 25,3616           05375                           TC       2PHSCHNG                              #  INHINT/RELINT DONE.
001306: 25,3617           00414                           OCT      00414                                 #  4.41 RESTART FOR P67.1 DISPLAY JOB.
001307: 25,3620           10035                           OCT      10035                                 #  SERVICER 5.3 RESTART.
001308:
001309: 25,3621  01,2207               4P41SPT1           =        4.41SPOT
001310: 25,3621  01,2253               5P3SPT15           =        5.3SPOT
001311: 25,3621           33625                           CA       P67.2CAD                              #  HEREAFTER, DO LAT, LONG.
001312: 25,3622           55645                           TS       GOTOADDR
001313:
001314: 25,3623           06006                           TC       INTPRET
001315: 25,3624           77650                           GOTO
001316: 25,3625           54401        P67.2CAD                    P67.2                                 #  CONTINUE FOR LAT, LONG THIS TIME.
001317:
001318: 25,3626           75345        L357               DLOAD    SIGN                                  #  L/D = L/DCMINR SIGN(L/D)
001319: 25,3627           03630                                    L/DCMINR
001320: 25,3630           03634                                    L/D
001321: 25,3631           37636                           STCALL   L/D1
001322: 25,3632           53563                                    L355                                  #  (GO TO)
001323:
001324:
001325:                                                                                                  #  TABLE USED FOR SUB-ORBITAL REFERENCE TRAJECTORY CONTROL.
001326:
001327: 25,3633           00474        VREFER             DEC      .019288                               #  REFERENCE VELOCITY SCALED V/51532.3946
001328: 25,3634           01235                           DEC      .040809                               #  13 POINTS ARE STORED AS THE INDEPENDENT
001329: 25,3635           02337                           DEC      .076107                               #  VARIABLE AND THEN SIX 13 POINT FUNCTIONS
001330: 25,3636           03721                           DEC      .122156                               #  OF V ARE STORED CONSECUTIVELY
001331: 25,3637           05230                           DEC      .165546
001332: 25,3640           06213                           DEC      .196012
001333: 25,3641           10550                           DEC      .271945
001334: 25,3642           11717                           DEC      .309533
001335: 25,3643           13314                           DEC      .356222
001336: 25,3644           14736                           DEC      .404192
001337: 25,3645           16255                           DEC      .448067
001338: 25,3646           16457                           DEC      .456023
001339: 25,3647           25570                           DEC      .67918                                #  HIGH VELOCITY FOR SAFETY
001340:
001341: 25,3650           77526                           DEC      -.010337                              #  DRANGE/DA     SCALED DRDA/(2700/805)
001342: 25,3651           77360                           DEC      -.016550
001343: 25,3652           77106                           DEC      -.026935
001344: 25,3653           76516                           DEC      -.042039
001345: 25,3654           76071                           DEC      -.058974
001346: 25,3655           75570                           DEC      -.070721
001347: 25,3656           74661                           DEC      -.098538
001348: 25,3657           74436                           DEC      -.107482
001349: 25,3660           73212                           DEC      -.147762
001350: 25,3661           71640                           DEC      -.193289
001351: 25,3662           54557                           DEC      -.602557
001352: 25,3663           40000                           DEC      -.99999
001353: 25,3664           40000                           DEC      -.99999
001354:
001355: 25,3665           77635                           DEC      -.0478599  B-3                        #  -DRANGE/DRDOT
001356: 25,3666           77563                           DEC      -.0683663  B-3                        #  SCALED ((2VS/8 2700) DR/DRDOT)
001357: 25,3667           77354                           DEC      -.1343468  B-3
001358: 25,3670           76712                           DEC      -.2759846  B-3
001359: 25,3671           76066                           DEC      -.4731437  B-3
001360: 25,3672           75322                           DEC      -.6472087  B-3
001361: 25,3673           73237                           DEC      -1.171693  B-3
001362: 25,3674           72104                           DEC      -1.466382  B-3
001363: 25,3675           70301                           DEC      -1.905171  B-3
001364: 25,3676           65635                           DEC      -2.547990  B-3
001365: 25,3677           57311                           DEC      -4.151220  B-3
001366: 25,3700           50575                           DEC      -5.813617  B-3
001367: 25,3701           50575                           DEC      -5.813617  B-3
001368:
001369: 25,3702           74443                           DEC      -.0134001  B3                         #  RDOTREF       SCALED (8 RDT/2VS)
001370: 25,3703           74333                           DEC      -.013947   B3
001371: 25,3704           74433                           DEC      -.013462   B3
001372: 25,3705           74763                           DEC      -.011813   B3
001373: 25,3706           75432                           DEC      -.0095631  B3
001374: 25,3707           75735                           DEC      -.00806946 B3
001375: 25,3710           76200                           DEC      -.006828   B3
001376: 25,3711           75735                           DEC      -.00806946 B3
001377: 25,3712           75140                           DEC      -.0109791  B3
001378: 25,3713           74075                           DEC      -.0151496  B3
001379: 25,3714           73312                           DEC      -.0179817  B3
001380: 25,3715           73732                           DEC      -.0159061  B3
001381: 25,3716           73732                           DEC      -.0159061  B3
001382:
001383: 25,3717           00026                           DEC      .00137037                             #   3.7  RTOGO SCALED RTOGO/2700
001384: 25,3720           00077                           DEC      .00385185                             #  10.4
001385: 25,3721           00217                           DEC      .00874074                             #  23.6
001386: 25,3722           00431                           DEC      .017148
001387: 25,3723           00712                           DEC      .027926
001388: 25,3724           01136                           DEC      .037
001389: 25,3725           02015                           DEC      .063296
001390: 25,3726           02374                           DEC      .077889
001391: 25,3727           03123                           DEC      .098815
001392: 25,3730           04051                           DEC      .127519
001393: 25,3731           05767                           DEC      .186963
001394: 25,3732           07476                           DEC      .238148
001395: 25,3733           11324                           DEC      .294185185
001396:
001397: 25,3734           76272                           DEC      -.051099                              #  -AREF/805
001398: 25,3735           75472                           DEC      -.074534
001399: 25,3736           74604                           DEC      -.101242
001400: 25,3737           74210                           DEC      -.116646
001401: 25,3740           74052                           DEC      -.122360
001402: 25,3741           73735                           DEC      -.127081
001403: 25,3742           73217                           DEC      -.147453
001404: 25,3743           73013                           DEC      -.155528
001405: 25,3744           73155                           DEC      -.149565
001406: 25,3745           74151                           DEC      -.118509
001407: 25,3746           76703                           DEC      -.034907
001408: 25,3747           77575                           DEC      -.007950
001409: 25,3750           77575                           DEC      -.007950
001410:
001411: 25,3751           00112                           DEC      .004491                               #  DRANGE/D L/D SCALED Y/2700
001412: 25,3752           00204                           DEC      .008081
001413: 25,3753           00407                           DEC      .016030
001414: 25,3754           01113                           DEC      .035815
001415: 25,3755           02161                           DEC      .069422
001416: 25,3756           03260                           DEC      .104519
001417: 25,3757           03717                           DEC      .122
001418: 25,3760           05411                           DEC      .172407
001419: 25,3761           10057                           DEC      .252852
001420: 25,3762           13476                           DEC      .363148
001421: 25,3763           20324                           DEC      .512963
001422: 25,3764           21677                           DEC      .558519
001423: 25,3765           21677                           DEC      .558519                               #  END OF STORED REFERENCE
001424:
001425:
001426:                                                                                                  #  REENTRY CONSTANTS.
001427:
001428:                                                                                                  #  DEFINED BY EQUALS
001429:
001430: 25,3766     5010               DEC15              =        LOW4
001431:                                                                                                  # GAMMAL1        =       22D
001432:
001433: 25,3766           16631 06755  MAXRNG             2OCT     1663106755                            #  DNRNGERR = 9999.9 IF GONEPAST=1
001434:
001435: 26,2000                                           SETLOC   REENTRY1
001436: 26,2000                                           BANK
001437:
001438: 26,3016                                           COUNT*   $$/ENTRY
001439:
001440: 26,3016  26,3211               BARELY1            =        NEARONE                               #  COMMON TO BOTH DISK,DANCE.DEFND IN TFF
001441:                                                                                                  # 1BITDP                                 COMMON TO BOTH DISK AND DANCE. DEFND IN VECPOINT.
001442:
001443: 26,3016           02525        1/12TH             DEC      .083333                               #  DP 1/12 USES HI WORD IN 1/3 BELOW
001444:
001445: 26,3017           12525 12525  1/3RD              2DEC     .3333333333                            #  DP 1/3
001446:
001447: 26,3021  27,3463               1/16TH             =        DP2(-4)
001448:
001449:                                                                                                  #  BELOW:  VS = VSAT = 25766.1973 FT/SEC
001450:
001451:                                                                                                  #          RE = 21,202,900 FEET
001452:
001453: 26,3021           04631 23146  LEWD1              2DEC     .15
001454:
001455: 26,3023           03146 14632  POINT1             2DEC     .1
001456:
001457: 26,3025           76314 71462  DLEWD0             2DEC     -.05                                  #  -.05
001458:
001459: 26,3027           05075 16051  GMAX/2             2DEC     .16                                   #  8 GS / 2
001460:
001461: 26,3031  26,3203               3ZEROS             EQUALS   HI6ZEROS
001462:
001463: 26,3031           07777 00000  NEAR1/4            2OCT     0777700000                            #  1/4 LESS 1 BIT IN UPPER PART.
001464:
001465: 26,3033           00236 36763  C18                2DEC     .0097026346                            #  500/2VS
001466:
001467: 26,3035           00204 11303  Q7FKDMIN           2DEC     .0080745342                            #  6.5/805  (Q7F +KDMIN) = 6 + .5)
001468:
001469: 26,3037  27,3463               C1/16              =        DP2(-4)
001470:
001471: 26,3037           05260 05572  Q3                 2DEC     .167003132                            #  .07 2VS/21600
001472:
001473: 26,3041           12343 21616  Q5                 2DEC     .326388889                            #  .3 23500/21600
001474:
001475:
001476: 26,3043           01073 31515  Q6                 2DEC     .0349                                 #  2 DEG, APPROX 820/23500
001477:
001478: 26,3045           00172 03571  Q7F                2DEC     .0074534161                            #  6/805    (VALUE OF Q7 IN FIXED MEM.)
001479:
001480: 26,3047  26,3201               Q19                =        HALVE                                 #  Q19 = .5
001481:
001482: 26,3047           05136 32046  Q21                2DEC     .1620370370                            #  3500/21600
001483:
001484: 26,3051           75031 40775  Q22                2DEC     -.092222222                            #  -1992/21600
001485:
001486: 26,3053           13132 33062  VLMIN              2DEC     .34929485                             #  18000/2 VS
001487:
001488: 26,3055  26,3173               VMIN               =        FOURTH                                #  (VS/2) / 2VS
001489:
001490: 26,3055           00160 05104  C12                2DEC     .00684572901                            #  32 28500/(21202900 2 PI)
001491:
001492: 26,3057           14631 23146  1/KB1              2DEC     .4                                    #  1 / 2.5
001493:
001494: 26,3061           74015 46560  -1/KB2             2DEC     -.0077621078 B4                         #  - 1/(.0025 2 VS) EXP +4
001495:
001496: 26,3063           00475 35746  VQUIT              2DEC     .019405269                            #  1000 /2VS
001497:
001498: 26,3065           10262 02622  C20                2DEC     .26086957                             #  210/805  90 DEG MAX ROLL IF ABOVE C20
001499:
001500: 26,3067           05441 14412  C21                2DEC     .17391304                             #  140/805
001501:
001502: 26,3071           00022 36641  25NM               2DEC     .0011574074                            #  25/21600      (25 NAUT MILES)
001503:
001504: 26,3073           01003 06315  K1D                2DEC     .0314453125                            #  =C16 805/256 = .01 805/256
001505:
001506: 26,3075           63073 73236  K2D                2DEC     -.402596836                            #  -C17 2VS/256 = -.002 2VS/256
001507:
001508: 26,3077           32047 24367  KVSCALE            2DEC     .81491944                             #  12800/(2 VS .3048)
001509:
001510: 26,3101           37200 05636  KASCALE            2DEC     .97657358                             #  5.85 16384/(4 .3048 100 805)
001511:
001512: 26,3103           00046 13137  KTETA              2DEC*    .383495203 E2         B-14*           #  1000 2PI/16384(163.84)
001513:
001514: 26,3105           00017 30730  KT1                2DEC*    .157788327 E2         B-14*           #  RE(2PI)/2 VS(16384) 163.84
001515:
001516: 26,3107           00040 30447  .05G               2DEC     .002                                  #  .05/25
001517:
001518: 26,3111           00000 17565  LATBIAS            2DEC     .00003                                #  APPRX .5 NM/ 4(21600/2 PI)
001519:
001520: 26,3113           01727 20103  KWE                2DEC     .120056652 B-1
001521:
001522: 26,3115           00121 17460  KACOS              2DEC     .004973592                            #  1/32(2PI)
001523:
001524: 26,3117           00400 00000  CHOOK              2DEC     1          B-6                        #  .25/16
001525: 26,3121           01252 25253  1/24TH             2DEC     .0833333333 B-1
001526:
001527: 26,3123           24365 30244  CH1                2DEC     .32        B1                         #  16 CH1/25 = 16 (1) /25
001528:
001529: 26,3125           77152 51354  KC3                2DEC     -.0247622232                            #  -(4 VS VS/ 2 PI 805 RE)
001530:
001531: 26,3127           00336 21610  VRCONT             2DEC     .0135836886                            #  700/2 VSAT
001532:
001533: 26,3131  26,3201               HALVE              EQUALS   HIDPHALF
001534: 26,3131  26,3173               FOURTH             EQUALS   HIDP1/4
001535:
001536: 26,3131  26,3201               1/GMAX             EQUALS   HALVE                                 #  4/GMAX = 4 / 8
001537: 26,3131           00433 02775  2HS                2DEC     .0172786611                            #   2 28500 25 32.2/(4 VS VS)
001538:
001539: 26,3133           00000 20017  2HSGMXSQ           2DEC     .0000305717                            #  (2 28500 8 32.2/ 4 VS VS)SQ
001540:
001541: 26,3135           77765 70243  C001               2DEC     -.000625                              #  -(4/25)/256    LEQ/D0 CONST
001542:
001543: 26,3137           31463 06315  POINT8             2DEC     .8
001544:
001545: 26,3141           00541 33575  2C1HS              2DEC     .0215983264                            #  2 1.25 28500 805/(2 VS)SQ
001546:
001547: 26,3143           00146 14632  PT1/16             2DEC     .1         B-4
001548:
001549: 26,3145           00052 30013  1/K44              2DEC     .00260929464                            #  2 VS/19749550
001550:
001551: 26,3147           20411 03041  VFINAL             2DEC     .51618016                             #  26600/2 VS
001552:
001553: 26,3151           20610 10513  VFINAL1            2DEC     .523942273                            #  = 27000 / 2 VS
001554:
001555: 26,3153           11473 02355  1/KA1              2DEC     .30048077                             #  25/(1.3 64)
001556:
001557: 26,3155           00203 02234  KA2                2DEC     .008                                  #  .2/25
001558:
001559: 26,3157           16237 00146  KA3                2DEC     .44720497                             #  = 90 4/805
001560:
001561: 26,3161           01456 03450  KA4                2DEC     .049689441                            #  40/805
001562:
001563: 26,3163           01727 01217  KALIM              2DEC     .06                                   #  1.5/25
001564:
001565: 26,3165  26,3211               Q7MIN              =        NEARONE                               #  805/805       (DISABLE FACTOR CALC)
001566: 26,3165           56232 72332  -HSCALED           2DEC     -.55305018                            #  -28500/2 VS
001567:
001568: 26,3167           77000 43741  -KSCALE            2DEC     -.0312424837                            #  -805/VS
001569:
001570: 26,3171           36702 21727  COS15              2DEC     .965
001571:
001572: 26,3173  26,3016               LATSLOPE           EQUALS   1/12TH
001573:
001574:                                                                                                  #        ... END OF RE-ENTRY CONSTANTS ...
001575:

End of include-file REENTRY_CONTROL.agc.  Parent file is MAIN.agc


