
Source Code


000002:                                                                                                  ## Copyright:   Public domain.
000003:                                                                                                  ## Filename:    RESTART_TABLES.agc
000004:                                                                                                  ## Purpose:     A section of Skylark revision 048.
000005:                                                                                                  ##              It is part of the source code for the Apollo Guidance Computer (AGC)
000006:                                                                                                  ##              for Skylab-2, Skylab-3, Skylab-4, and ASTP. No original listings of
000007:                                                                                                  ##              this software are available; instead, this file was created via
000008:                                                                                                  ##              disassembly of dumps of the core rope modules actually flown on
000009:                                                                                                  ##              Skylab-2. Access to these modules was provided by the New Mexico
000010:                                                                                                  ##              Museum of Space History.
000011:                                                                                                  ## Assembler:   yaYUL
000012:                                                                                                  ## Contact:     Ron Burkey <info@sandroid.org>.
000013:                                                                                                  ## Website:     www.ibiblio.org/apollo/index.html
000014:                                                                                                  ## Mod history: 2023-09-04 MAS  Created from Artemis 072.
000015:                                                                                                  ##              2024-03-05 MAS  Updated for Skylark 48.
000016:
000017:
000018:                                                                                                  #  RESTART TABLES
000019:
000020:                                                                                                  #  ------------------
000021:
000022:                                                                                                  #  THERE ARE TWO FORMS OF RESTART TABLES FOR EACH GROUP.  THEY ARE KNOWN AS THE EVEN RESTART TABLES AND THE ODD
000023:                                                                                                  #  RESTART TABLES.  THE ODD TABLES HAVE ONLY ONE ENTRY OF THREE LOCATIONS WHILE THE EVEN TABLES HAVE TWO ENTRIES
000024:                                                                                                  #  EACH USING THREE LOCATIONS. THE INFORMATION AS TO WHETHER IT IS A JOB, WAITLIST, OR A LONGCALL IS GIVEN BY THE
000025:                                                                                                  #  WAY THINGS ARE PUT INTO THE TABLES.
000026:                                                                                                  #       A JOB HAS ITS PRIORITY STORED IN PRDTTAB OF THE CORRECT PHASE SPOT - A POSITIVE PRIORITY INDICATES A
000027:                                                                                                  #  FINDVAC JOB, A NEGATIVE PRIORITY A NOVAC.  THE 2CADR OF THE JOB IS STORED IN THE CADRTAB.
000028:                                                                                                  #  FOR EXAMPLE,
000029:
000030:                                                                                                  #                5.7SPOT         OCT     23000
000031:                                                                                                  #                                2CADR   SOMEJOB
000032:
000033:                                                                                                  #  A RESTART OF GROUP 5 WITH PHASE SEVEN WOULD THEN CAUSE SOMEJOB TO BE RESTARTED AS A FINDVAC WITH PRIORITY 23.
000034:
000035:                                                                                                  #                5.5SPOT         OCT     -23000
000036:                                                                                                  #                                2CADR   ANYJOB
000037:
000038:                                                                                                  #  HERE A RESTART OF GROUP 5 WITH PHASE 7 WOULD CAUSE ANYJOB TO BE RESTARTED AS A NOVAC WITH PRIORITY 23.
000039:                                                                                                  #  A LONGCALL HAS ITS GENADR OF ITS 2CADR STORED NEGATIVELY AND ITS BBCON STORED POSITIVELY.  IN ITS PRDTTAB IS
000040:                                                                                                  #  PLACED THE LOCATION OF A DP REGISTER THAT CONTAINS THE DELTA TIME THAT LONGCALL HAD BEEN ORIGINALLY STARTED
000041:                                                                                                  #  WITH.  EXAMPLE,
000042:
000043:                                                                                                  #                3.6SPOT         GENADR  DELTAT
000044:                                                                                                  #                                -GENADR LONGTASK
000045:                                                                                                  #                                BBCON   LONGTASK
000046:
000047:                                                                                                  #                                OCT     31000
000048:                                                                                                  #                                2CADR   JOBAGAIN
000049:
000050:                                                                                                  #  THIS WOULD START UP LONGTASK AT THE APPROPRIATE TIME, OR IMMEDIATELY IF THE TIME HAD ALREADY PASSED. IT SHOULD
000051:                                                                                                  #  BE NOTED THAT IF DELTAT IS IN A SWITCHED E BANK, THIS INFORMATOIN SHOULD BE IN THE BBCON OF THE 2CADR OF THE
000052:                                                                                                  #  TASK.  FROM ABOVE, WE SEE THAT THE SECOND PART OF THIS PHASE WOULD BE STARTED AS A JOB WITH A PRIORITY OF 31.
000053:
000054:                                                                                                  #  WAITLIST CALLS ARE IDENTIFIED BY THE FACT THAT THEIR 2CADR IS STORED NEGATIVELY.  IF PRDTTAB OF THE PHASE SPOT
000055:                                                                                                  #  IS POSITIVE, THEN IT CONTAINS THE DELTA TIME, IF PRDTTAB IS NEGATIVE THEN IT IS THE -GENADR OF AN ERASABLE
000056:                                                                                                  #  LOCATION CONTAINING THE DELTA TIME, THAT IS, THE TIME IS STORED INDIRECTLY. IT SHOULD BE NOTED AS ABOVE, THAT
000057:                                                                                                  #  IF THE TIME IS STORED INDIRECTLY, THE BBCON MUST CONTAIN THE NECESSARY E BANK INFORMATION IF APPLICABLE.  WITH
000058:                                                                                                  #  WAITLIST WE HAVE ONE FURTHER OPTION, IF -0 IS STORED IN PRDTTAB, IT WILL CAUSE AN IMMEDIATE RESTART OF THE
000059:                                                                                                  #  TASK.  EXAMPLES,
000060:
000061:                                                                                                  #                                OCT     77777           THIS WILL CAUSE AN IMMEDIATE RESTART
000062:                                                                                                  #                                -2CADR  ATASK           OF THE TASK :ATASK:
000063:
000064:                                                                                                  #                                DEC     200             IF THE TIME OF THE 2 SECONDS SINCE DUMMY
000065:                                                                                                  #                                -2CADR  DUMMY           WAS PUT ON WAITLIST IS UP, IT WILL BEGIN
000066:                                                                                                  #                                                        IN 10 MS, OTHERWISE IT WILL BEGIN WHEN
000067:                                                                                                  #                                                        IT NORMALLY WOULD HAVE BEGUN.
000068:
000069:
000070:
000071:                                                                                                  #                                -GENADR DTIME           WHERE DTIME CONTAINS THE DELTA TIME
000072:                                                                                                  #                                -2CADR  TASKTASK        OTHERWISE THIS IS AS ABOVE
000073:
000074:                                                                                                  #  *****    NOW THE TABLES THEMSELVES    *****
000075:
000076: 01,2000                                           SETLOC   RESTART
000077: 01,2000                                           BANK
000078:
000079: 01,2000                                           COUNT*   $$/RSTAB
000080: 01,2000                        PRDTTAB            EQUALS   12000                                 #  USED TO FIND THE PRIORITY OR DELTATIME
000081: 01,2000                        CADRTAB            EQUALS   12001                                 #  THIS AND THE NEXT RELATIVE LOC CONTAIN
000082:                                                                                                  #  RESTART 2CADR
000083:
000084: 01,2000           00102        SIZETAB            TC       1.2SPOT    -12006
000085: 01,2001           00010                           TC       1.3SPOT    -12004
000086: 01,2002           00102                           TC       2.2SPOT    -12006
000087: 01,2003           00027                           TC       2.3SPOT    -12004
000088: 01,2004           00102                           TC       3.2SPOT    -12006
000089: 01,2005           00054                           TC       3.3SPOT    -12004
000090: 01,2006           00102                           TC       4.2SPOT    -12006
000091: 01,2007           00126                           TC       4.3SPOT    -12004
000092: 01,2010           00231                           TC       5.2SPOT    -12006
000093: 01,2011           00247                           TC       5.3SPOT    -12004
000094: 01,2012           00317                           TC       6.2SPOT    -12006
000095: 01,2013           00327                           TC       6.3SPOT    -12004
000096: 01,2014  01,2110               1.2SPOT            EQUALS   4.2SPOT
000097:
000098:                                                                                                  #  ANY MORE GROUP 1.EVEN RESTART VALUES SHOULD GO HERE
000099:
000100: 01,2014           00170        1.3SPOT            DEC      120        B-14                       #  THIS NUMBER MUST EQUAL C(JTAGTIME)
000101: 01,2015  E6,1712                                  EBANK=   AOG
000102: 01,2015           75141 45711                     -2CADR   SETJTAG
000103:
000104: 01,2017           10000        1.5SPOT            OCT      10000
000105: 01,2020  E6,1514                                  EBANK=   DAPDATR1
000106: 01,2020           02431 34066                     2CADR    REDO40.9
000107:
000108: 01,2022           10000        1.7SPOT            OCT      10000
000109: 01,2023  E6,1776                                  EBANK=   R61CNTR
000110: 01,2023           02074 56066                     2CADR    RELINUS
000111:
000112: 01,2025           10000        1.11SPOT           OCT      10000
000113: 01,2026  E6,1776                                  EBANK=   R61CNTR
000114: 01,2026           02406 74066                     2CADR    PIKUP20
000115:
000116: 01,2030           10000        1.13SPOT           OCT      10000
000117: 01,2031  E6,1776                                  EBANK=   R61CNTR
000118: 01,2031           02640 74066                     2CADR    R67RSTRT
000119:
000120:                                                                                                  #  ANY MORE GROUP 1.ODD RESTART VALUES SHOULD GO HERE
000121:
000122:
000123: 01,2033  01,2110               2.2SPOT            EQUALS   1.2SPOT
000124:
000125:                                                                                                  #  ANY MORE GROUP 2.EVEN RESTART VALUES SHOULD GO HERE
000126:
000127: 01,2033           03256        2.3SPOT            GENADR   600SECS
000128: 01,2034           74547                           -GENADR  STATEINT
000129: 01,2035  E3,1554                                  EBANK=   RRECTCSM
000130: 01,2035           10063                           BBCON    STATEINT
000131:
000132: 01,2036           05000        2.5SPOT            OCT      05000
000133: 01,2037  E3,1554                                  EBANK=   RRECTCSM
000134: 01,2037           03237 10063                     2CADR    STATINT1
000135:
000136: 01,2041           10000        2.7SPOT            OCT      10000
000137: 01,2042  E7,1702                                  EBANK=   MRKBUF1
000138: 01,2042           02617 70067                     2CADR    R22
000139:
000140: 01,2044           26000        2.11SPOT           OCT      26000
000141: 01,2045  E7,1702                                  EBANK=   MRKBUF1
000142: 01,2045           03471 60067                     2CADR    STARTFIX
000143:
000144: 01,2047           10000        2.13SPOT           OCT      10000
000145: 01,2050  E7,1702                                  EBANK=   MRKBUF1
000146: 01,2050           02420 56067                     2CADR    REDOR22
000147:
000148: 01,2052           77777        2.15SPOT           OCT      77777
000149: 01,2053     1333                                  EBANK=   FIXTIME
000150: 01,2053           75546 17715                     -2CADR   READCYCL
000151:
000152: 01,2055           26000        2.17SPOT           OCT      26000
000153: 01,2056  E7,1702                                  EBANK=   MRKBUF1
000154: 01,2056           03475 60067                     2CADR    ENDFIX
000155:
000156:                                                                                                  #  ANY MORE GROUP 2.ODD RESTART VALUES SHOULD GO HERE
000157:
000158: 01,2060  01,2110               3.2SPOT            EQUALS   1.2SPOT
000159:
000160:                                                                                                  #  ANY MORE GROUP 3.EVEN RESTART VALUES SHOULD GO HERE
000161:
000162: 01,2060           20000        3.3SPOT            OCT      20000
000163: 01,2061  E7,1427                                  EBANK=   TGO
000164: 01,2061           02463 34067                     2CADR    S40.13
000165:
000166: 01,2063           76347        3.5SPOT            -GENADR  TGO        +1
000167: 01,2064  E7,1427                                  EBANK=   TGO
000168: 01,2064           75122 27710                     -2CADR   ENGINOFF
000169:
000170: 01,2066           22000        3.7SPOT            OCT      22000
000171: 01,2067  E5,1757                                  EBANK=   OGC
000172: 01,2067           02115 70065                     2CADR    MATRXJOB
000173:
000174:
000175: 01,2071           22000        3.11SPOT           OCT      22000
000176: 01,2072  E3,1700                                  EBANK=   TEPHEM
000177: 01,2072           02245 70063                     2CADR    REP11
000178:
000179: 01,2074           22000        3.13SPOT           OCT      22000
000180: 01,2075  E3,1700                                  EBANK=   TEPHEM
000181: 01,2075           02024 70063                     2CADR    REP11A
000182:
000183: 01,2077           76307        3.15SPOT           -GENADR  SBTEMP
000184: 01,2100  E7,1470                                  EBANK=   SBTEMP
000185: 01,2100           74303 27710                     -2CADR   SBTASK
000186:
000187: 01,2102           77777        3.17SPOT           OCT      77777
000188: 01,2103     1333                                  EBANK=   FIXTIME
000189: 01,2103           75471 17715                     -2CADR   REDOCTSK
000190:
000191: 01,2105           77777        3.21SPOT           OCT      77777
000192: 01,2106     1333                                  EBANK=   FIXTIME
000193: 01,2106           75513 17715                     -2CADR   CTASK
000194:
000195:                                                                                                  #  ANY MORE GROUP 3.ODD RESTART VALUES SHOULD GO HERE
000196:
000197: 01,2110           77777        4.2SPOT            OCT      77777
000198: 01,2111  E7,1412                                  EBANK=   TIG
000199: 01,2111           75350 27710                     -2CADR   PRECHECK
000200:
000201: 01,2113           47777                           OCT      47777                                 #  PRIO 30 NOVAC
000202: 01,2114  E7,1654                                  EBANK=   DELVIMU
000203: 01,2114           03705 60067                     2CADR    P47BODY
000204:
000205: 01,2116           77777        4.4SPOT            OCT      77777
000206: 01,2117  E7,1412                                  EBANK=   TIG
000207: 01,2117           75350 27710                     -2CADR   PRECHECK
000208:
000209: 01,2121           05664                           DEC      2996       B-14
000210: 01,2122  E6,1514                                  EBANK=   DAPDATR1
000211: 01,2122           74046 27711                     -2CADR   TTG/0
000212:
000213: 01,2124           77777        4.6SPOT            OCT      77777
000214: 01,2125  E7,1412                                  EBANK=   TIG
000215: 01,2125           75350 27710                     -2CADR   PRECHECK
000216:
000217: 01,2127           04700                           DEC      2496       B-14
000218: 01,2130  E7,1412                                  EBANK=   TIG
000219: 01,2130           75344 27710                     -2CADR   TIG-5
000220:
000221:                                                                                                  #  ANY MORE GROUP 4.EVEN RESTART VALUES SHOULD GO HERE
000222:
000223: 01,2132           00050        4.3SPOT            DEC      40         B-14
000224: 01,2133  E6,1410                                  EBANK=   PACTOFF
000225: 01,2133           75257 27711                     -2CADR   DOTVCON
000226:
000227: 01,2135           00240        4.5SPOT            DEC      160        B-14
000228: 01,2136  E6,1410                                  EBANK=   PACTOFF
000229: 01,2136           75226 27711                     -2CADR   DOSTRULL
000230:
000231: 01,2140           00764        4.7SPOT            DEC      500        B-14
000232: 01,2141  E6,1410                                  EBANK=   PACTOFF
000233: 01,2141           75327 27711                     -2CADR   TIG-0
000234:
000235: 01,2143           77777        4.11SPOT           DEC      -0         B-14
000236: 01,2144  E6,1410                                  EBANK=   PACTOFF
000237: 01,2144           75327 27711                     -2CADR   TIG-0
000238:
000239: 01,2146           47777        4.13SPOT           OCT      47777                                 #  PRIO 30 NOVAC
000240: 01,2147  E6,1522                                  EBANK=   CSMMASS
000241: 01,2147           03257 50066                     2CADR    V97PJOB
000242:
000243: 01,2151           16000        4.15SPOT           OCT      16000                                 #  PRELAUNCH OPTICAL VERIFICATION
000244: 01,2152  E5,1757                                  EBANK=   OGC
000245: 01,2152           02000 66065                     2CADR    COMPVER                               #  CALLS FOR OPTICS DATA AGAIN (STD LEADIN)
000246:
000247: 01,2154           16000        4.17SPOT           OCT      16000                                 #  PRELAUNCH AZIMUTH CHANGE
000248: 01,2155  E5,1660                                  EBANK=   XSM
000249: 01,2155           03175 66105                     2CADR    AZMTHCG1
000250:
000251: 01,2157           01652        4.21SPOT           GENADR   P40TMP                                #  DELTA TIME USED IN SETTING UP
000252: 01,2160           75404                           -GENADR  TIGBLNK                               #  LONG CALL OF TIGBLNK BY P40,P41
000253: 01,2161  E7,1652                                  EBANK=   P40TMP
000254: 01,2161           50067                           BBCON    TIGBLNK
000255:
000256: 01,2162           12000        4.23SPOT           OCT      12000                                 #  PROTECT P40S/SV BY P40 P41
000257: 01,2163  E7,1412                                  EBANK=   TIG
000258: 01,2163           02331 50067                     2CADR    P40S/SV
000259:
000260: 01,2165           24000        4.25SPOT           OCT      24000
000261: 01,2166     0302                                  EBANK=   BESTI
000262: 01,2166           02002 30060                     2CADR    PROG52
000263:
000264: 01,2170           77777        4.27SPOT           DEC      -0         B-14
000265: 01,2171  E6,1410                                  EBANK=   PACTOFF
000266: 01,2171           75314 27711                     -2CADR   IGNITION
000267:
000268: 01,2173           13000        4.31SPOT           OCT      13000
000269: 01,2174  E7,1702                                  EBANK=   MRKBUF1
000270: 01,2174           02627 30067                     2CADR    R51
000271:
000272: 01,2176           04064        4.33SPOT           DEC      2100       B-14                       #  PROTECT CONTINUING JOB TO START P63
000273: 01,2177  E6,1712                                  EBANK=   AOG
000274: 01,2177           75533 23711                     -2CADR   WAKEP62
000275:
000276: 01,2201           65777        4.35SPOT           OCT      65777                                 #  PRIO 12 NOVAC
000277: 01,2202  E6,1514                                  EBANK=   DAPDATR1
000278: 01,2202           03026 50066                     2CADR    POSTBURN
000279:
000280: 01,2204           00764        4.37SPOT           DEC      500        B-14
000281: 01,2205  E7,1412                                  EBANK=   TIG
000282: 01,2205           75367 27710                     -2CADR   TIGAVEG
000283:
000284: 01,2207           17000        4.41SPOT           OCT      17000                                 #  PROTECT DISPLAY JOB IN P67
000285: 01,2210  E6,1712                                  EBANK=   AOG
000286: 01,2210           02360 54066                     2CADR    P67.1
000287:
000288: 01,2212           76001        4.43SPOT           -GENADR  S61DT                                 #  PROTECT TASK TO START PREREAD,ENTRY
000289: 01,2213  E6,1776                                  EBANK=   S61DT                                 #  S61.1C WILL CHANGE EBANK=EB7 FOR PREREAD
000290: 01,2213           75342 23711                     -2CADR   S61.1C
000291:
000292: 01,2215           13000        4.45SPOT           OCT      13000                                 #  PROTECT CONTINUING JOB S61.1
000293: 01,2216  E6,1712                                  EBANK=   AOG                                   #  (ENTRY IMU ALIGNMENT)
000294: 01,2216           02452 54066                     2CADR    S61.1A     -1
000295:
000296: 01,2220           17000        4.47SPOT           OCT      17000                                 #  PROTECT HUNTEST ITERATION.
000297: 01,2221  E6,1712                                  EBANK=   AOG
000298: 01,2221           03012 52066                     2CADR    PRE-HUNT
000299:
000300: 01,2223           77777        4.51SPOT           OCT      77777                                 #  PROTECT FDAI ATTITUDE
000301: 01,2224  E6,1735                                  EBANK=   SPOLYARG
000302: 01,2224           75465 07711                     -2CADR   ATERTASK
000303:
000304: 01,2226           47777        4.53SPOT           OCT      47777                                 #  PRIO 30 NOVAC
000305: 01,2227  E6,1522                                  EBANK=   CSMMASS
000306: 01,2227           03166 50066                     2CADR    V97EJOB
000307:
000308: 01,2231           64777        4.55SPOT           OCT      -13000                                #  PROTECT P65 RESPONSIVE DISPLAY
000309: 01,2232  E7,1451                                  EBANK=   RTINIT
000310: 01,2232           02325 54067                     2CADR    P65.1
000311:
000312: 01,2234           76125        4.57SPOT           -GENADR  P40TMP
000313: 01,2235  E7,1652                                  EBANK=   P40TMP
000314: 01,2235           74157 17710                     -2CADR   TIGON
000315:
000316:                                                                                                  #  ANY MORE GROUP 4.ODD RESTART VALUES SHOULD GO HERE
000317:
000318: 01,2237           32000        5.2SPOT            OCT      32000
000319: 01,2240  E7,1425                                  EBANK=   DVTOTAL
000320: 01,2240           03044 76067                     2CADR    NORMLIZE
000321:
000322: 01,2242           00310                           DEC      200        B-14
000323: 01,2243  E6,1712                                  EBANK=   AOG
000324: 01,2243           74665 01711                     -2CADR   REREADAC
000325:
000326: 01,2245           20000        5.4SPOT            OCT      20000
000327: 01,2246  E7,1425                                  EBANK=   DVTOTAL
000328: 01,2246           02700 76067                     2CADR    SERVICER
000329:
000330: 01,2250           00310                           DEC      200        B-14
000331: 01,2251  E6,1712                                  EBANK=   AOG
000332: 01,2251           74665 01711                     -2CADR   REREADAC
000333:
000334:                                                                                                  #  ANY MORE GROUP 5.EVEN RESTART VALUES SHOULD GO HERE
000335:
000336: 01,2253           00310        5.3SPOT            DEC      200        B-14
000337: 01,2254  E6,1712                                  EBANK=   AOG
000338: 01,2254           74665 01711                     -2CADR   REREADAC
000339:
000340: 01,2256           77777        5.5SPOT            OCT      77777
000341: 01,2257  E6,1712                                  EBANK=   AOG
000342: 01,2257           75260 01711                     -2CADR   REDO5.5
000343:
000344: 01,2261           20000        5.7SPOT            OCT      20000                                 #  USED BY PRELAUNCH
000345: 01,2262  E5,1660                                  EBANK=   XSM
000346: 01,2262           02251 66065                     2CADR    RSTGTS1
000347:
000348: 01,2264           77777        5.11SPOT           OCT      77777
000349: 01,2265  E5,1660                                  EBANK=   XSM
000350: 01,2265           75402 11712                     -2CADR   ALLOOP1
000351:
000352: 01,2267           20000        5.13SPOT           OCT      20000
000353: 01,2270  E5,1660                                  EBANK=   XSM
000354: 01,2270           02322 66065                     2CADR    WTLISTNT
000355:
000356: 01,2272           20000        5.15SPOT           OCT      20000
000357: 01,2273  E5,1660                                  EBANK=   XSM
000358: 01,2273           03117 66065                     2CADR    RESTEST1
000359:
000360: 01,2275           77777        5.17SPOT           OCT      77777
000361: 01,2276  E7,1425                                  EBANK=   DVTOTAL
000362: 01,2276           75330 01710                     -2CADR   PREREAD
000363:
000364: 01,2300           22000        5.21SPOT           OCT      22000
000365: 01,2301  E5,1660                                  EBANK=   XSM
000366: 01,2301           02431 66065                     2CADR    ALFLT1
000367:
000368: 01,2303           77777        5.23SPOT           OCT      77777
000369: 01,2304  E5,1660                                  EBANK=   XSM
000370: 01,2304           75357 11712                     -2CADR   SPECSTS
000371:
000372: 01,2306           20000        5.25SPOT           OCT      20000
000373: 01,2307  E5,1660                                  EBANK=   XSM
000374: 01,2307           03130 66065                     2CADR    RESTEST3
000375:
000376: 01,2311           20000        5.27SPOT           OCT      20000
000377: 01,2312  E5,1660                                  EBANK=   XSM
000378: 01,2312           03076 66065                     2CADR    RESTAIER
000379:
000380: 01,2314           77777        5.31SPOT           OCT      77777
000381: 01,2315  E6,1712                                  EBANK=   AOG
000382: 01,2315           75147 01711                     -2CADR   CHEKAVEG
000383:
000384: 01,2317           20000        5.33SPOT           OCT      20000
000385: 01,2320  E5,1660                                  EBANK=   XSM
000386: 01,2320           03153 66065                     2CADR    RESCHNG
000387:
000388: 01,2322           77777        5.35SPOT           OCT      77777
000389: 01,2323  E7,1451                                  EBANK=   PIPAPIX
000390: 01,2323           75236 01710                     -2CADR   REDO5.35
000391:
000392:                                                                                                  #  ANY MORE GROUP 5.ODD RESTART VALUES SHOULD GO HERE
000393:
000394: 01,2325           77777        6.2SPOT            OCT      77777                                 #  USED BY P40 AFTER GIMB DR TST TO REPOS'N
000395: 01,2326  E6,1525                                  EBANK=   AK                                    #  ENGINE UNTIL TVCDAPON
000396: 01,2326           75465 37711                     -2CADR   PRE40.6
000397:
000398: 01,2330           00144                           DEC      100        B-14
000399: 01,2331  E7,1636                                  EBANK=   TTOGO
000400: 01,2331           74706 27710                     -2CADR   CLOKTASK
000401:
000402:                                                                                                  #  ANY MORE 6.ODD RESTART VALUES SHOULD GO HERE
000403:
000404: 01,2333           00144        6.3SPOT            DEC      100        B-14
000405: 01,2334  E7,1412                                  EBANK=   TIG
000406: 01,2334           74706 27710                     -2CADR   CLOKTASK
000407:
000408: 01,2336           30000        6.5SPOT            OCT      30000                                 #  PROTECT INCREMENTING OF TIME2,TIME1 BY
000409: 01,2337  E3,1700                                  EBANK=   TEPHEM                                #  P27NUPDATE PROGRAM)
000410: 01,2337           03515 56063                     2CADR    TIMEDIDR
000411:
000412: 01,2341           50777        6.7SPOT            OCT      50777                                 #  PRIO 27 NOVAC
000413: 01,2342  E6,1522                                  EBANK=   CSMMASS
000414: 01,2342           03233 50066                     2CADR    V97TJOB
000415:
000416: 01,2344           76021        6.11SPOT           -GENADR  CM/GYMDT                              #  PROTECT TASK TO READ CDUS.
000417: 01,2345  E6,1756                                  EBANK=   CM/GYMDT                              #  FOR ENTRY DAP
000418: 01,2345           75714 45711                     -2CADR   READGYMB
000419:
000420:
000421:                                                                                                  #  PROGRAM DESCRIPTION: NEWPHASE                                         DATE: 11 NOV 1966
000422:                                                                                                  #  MOD: 1                                                                ASSEMBLY: SUNBURST REV
000423:                                                                                                  #  MOD BY: COPPS                                                         LOG SECTION: PHASE TABLE MAINTENANCE
000424:
000425:                                                                                                  #  FUNCTIONAL DESCRIPTION:
000426:
000427:                                                                                                  #        NEWPHASE IS THE QUICK WAY TO MAKE A NON VARIABLE PHASE CHANGE.  IT INCLUDES THE OPTION OF SETTING
000428:                                                                                                  #        TBASE OF THE GROUP. IF TBASE IS TO BE SET,  -C(TIME1) IS STORED IN THE TBASE TABLE AS FOLLOWS:
000429:
000430:                                                                                                  #                (L-1)   TBASE0
000431:                                                                                                  #                (L)     TBASE1  (IF GROUP=1)
000432:                                                                                                  #                (L+1)
000433:                                                                                                  #                (L+2)   TBASE2  (IF GROUP=2)
000434:                                                                                                  #                -----
000435:                                                                                                  #                (L+6)   TBASE4  (IF GROUP=4)
000436:                                                                                                  #                (L+7)
000437:                                                                                                  #                (L+8)   TBASE5  (IF GROUP=5)
000438:
000439:                                                                                                  #        IN ANY CASE, THE NEGATIVE OF THE PHASE, FOLLOWED (IN THE NEXT REGISTER) BY THE PHASE, IS STORED IN THE
000440:                                                                                                  #        PHASE TABLE AS FOLLOWS:
000441:
000442:                                                                                                  #                (L)     -PHASE1 (IF GROUP=1)
000443:                                                                                                  #                (L+1)   PHASE1
000444:                                                                                                  #                (L+2)   -PHASE2 (IF GROUP=2)
000445:                                                                                                  #                (L+3)   PHASE2
000446:                                                                                                  #                -----
000447:                                                                                                  #                (L+7)   PHASE4
000448:                                                                                                  #                (L+8)   -PHASE5 (IF GROUP=5)
000449:                                                                                                  #                (L+9)   PHASE5
000450:
000451:                                                                                                  #  CALLING SEQUENCE:
000452:
000453:                                                                                                  #        EXAMPLE IS FOR PLACING A PHASE OF FIVE INTO GROUP THREE:
000454:
000455:                                                                                                  #        1)      IF TBASE IS NOT TO BE SET:
000456:                                                                                                  #                        L-1     CA      FIVE
000457:                                                                                                  #                        L       TC      NEWPHASE
000458:                                                                                                  #                        L+1     OCT     00003
000459:
000460:                                                                                                  #        2)      IF TBASE IS TO BE SET:
000461:                                                                                                  #                        L-1     CS      FIVE
000462:                                                                                                  #                        L       TC      NEWPHASE
000463:                                                                                                  #                        L+1     OCT     00003
000464:
000465:                                                                                                  #  SUBROUTINES CALLED:  NONE
000466:
000467:                                                                                                  #  NORMAL EXIT MODE:  AT L+2 OF CALLING SEQUENCE
000468:
000469:                                                                                                  #  ALARM OR ABORT EXITS:  NONE
000470:
000471:                                                                                                  #  OUTPUT:  PHASE TABLE AND TBASE TABLE UPDATED
000472:
000473:                                                                                                  #  ERASABLE INITIALIZATION REQ,D:  NONE
000474:                                                                                                  #  DEBRIS: A,L,TEMPG
000475:
000476:                                                                                                  #  *** WARNING *** THIS PROGRAM IS TO BE PLACED IN FIXED-FIXED AND UNSWITCHED ERASABLE.
000477:
000478:    4000                                           SETLOC   FFTAG1
000479:    4000                                           BANK
000480:
000481:    4126                                           COUNT*   $$/PHASE
000482:
000483:    4126           00004        NEWPHASE           INHINT
000484:
000485:    4127           54001                           TS       L                                     #  SAVE FOR FURTHER USE
000486:
000487:    4130           50002                           NDX      Q                                     #  OBTAIN THE GROUP NUMBER
000488:    4131           30000                           CA       0
000489:    4132           24002                           INCR     Q                                     #  OBTAIN THE RETURN ADDRESS
000490:    4133           60000                           DOUBLE                                         #  SAVE THE GROUP IN A FORM USED FOR
000491:    4134           54061                           TS       TEMPG                                 #  INDEXING
000492:
000493:    4135           10001                           CCS      L                                     #  SEE IF WE ARE TO SET TBASE
000494:    4136           14145                           TCF      +7                                    #  NO, THE DELTA T WAS POSITIVE
000495:    4137           14145                           TCF      +6
000496:
000497:    4140           24000        NUFAZ+10           INCR     A                                     #  SET TBASE AND STORE PHASE CORRECTLY
000498:    4141           54001                           TS       L
000499:
000500:    4142           40025                           CS       TIME1                                 #  SET TBASE
000501:    4143           50061                           NDX      TEMPG
000502:    4144           55245                           TS       TBASE1     -2
000503:
000504:    4145           40001                           CS       L                                     #  NOW PUT THE PHASE IN THE RIGHT TABLE LOC
000505:    4146           50061                           NDX      TEMPG
000506:    4147           53144                           DXCH     -PHASE1    -2
000507:
000508:    4150           15615                           TCF      REQ                                   #  NOW RETURN TO CALL
000509:
000510:

End of include-file RESTART_TABLES.agc.  Parent file is MAIN.agc


