
Source Code


000002:                                                                                                  ## Copyright:   Public domain.
000003:                                                                                                  ## Filename:    RTB_OP_CODES.agc
000004:                                                                                                  ## Purpose:     A section of Skylark revision 048.
000005:                                                                                                  ##              It is part of the source code for the Apollo Guidance Computer (AGC)
000006:                                                                                                  ##              for Skylab-2, Skylab-3, Skylab-4, and ASTP. No original listings of
000007:                                                                                                  ##              this software are available; instead, this file was created via
000008:                                                                                                  ##              disassembly of dumps of the core rope modules actually flown on
000009:                                                                                                  ##              Skylab-2. Access to these modules was provided by the New Mexico
000010:                                                                                                  ##              Museum of Space History.
000011:                                                                                                  ## Assembler:   yaYUL
000012:                                                                                                  ## Contact:     Ron Burkey <info@sandroid.org>.
000013:                                                                                                  ## Website:     www.ibiblio.org/apollo/index.html
000014:                                                                                                  ## Mod history: 2023-09-04 MAS  Created from Artemis 072.
000015:
000016:
000017: 22,2000                                           SETLOC   RTBCODE1
000018: 22,2000                                           BANK
000019:
000020: 22,3563  E5,1702                                  EBANK=   XNB
000021: 22,3563                                           COUNT*   $$/RTB
000022:
000023:                                                                                                  #  LOAD TIME2, TIME1 INTO MPAC:
000024:
000025: 22,3563           00006        LOADTIME           EXTEND
000026: 22,3564           30025                           DCA      TIME2
000027: 22,3565           16024                           TCF      SLOAD2
000028:
000029:                                                                                                  #  CONVERT THE SINGLE PRECISION 2'S COMPLEMENT NUMBER ARRIVING IN MPAC (SCALED IN HALF-REVOLUTIONS) TO A
000030:                                                                                                  #  DP 1'S COMPLEMENT NUMBER SCALED IN REVOLUTIONS.
000031:
000032: 22,3566           10154        CDULOGIC           CCS      MPAC
000033: 22,3567           35003                           CAF      ZERO
000034: 22,3570           13573                           TCF      +3
000035: 22,3571           13572                           NOOP
000036: 22,3572           44764                           CS       HALF
000037:
000038: 22,3573           54155                           TS       MPAC       +1
000039: 22,3574           35003                           CAF      ZERO
000040: 22,3575           56154                           XCH      MPAC
000041: 22,3576           00006                           EXTEND
000042: 22,3577           74764                           MP       HALF
000043: 22,3600           20155                           DAS      MPAC
000044: 22,3601           16030                           TCF      DANZIG                                #  MODE IS ALREADY AT DOUBLE-PRECISION
000045:
000046: 22,2000                                           SETLOC   RTBCODES
000047: 22,2000                                           BANK
000048:
000049: 22,3602                                           COUNT*   $$/RTB
000050:
000051:                                                                                                  #  READ THE PIPS INTO MPAC WITHOUT CHANGING THEM:
000052:
000053: 22,3602           00004        READPIPS           INHINT
000054: 22,3603           30037                           CA       PIPAX
000055: 22,3604           54154                           TS       MPAC
000056: 22,3605           30040                           CA       PIPAY
000057: 22,3606           54157                           TS       MPAC       +3
000058: 22,3607           30041                           CA       PIPAZ
000059: 22,3610           00003                           RELINT
000060: 22,3611           54161                           TS       MPAC       +5
000061:
000062: 22,3612           35003                           CAF      ZERO
000063: 22,3613           54155                           TS       MPAC       +1
000064: 22,3614           54160                           TS       MPAC       +4
000065: 22,3615           54162                           TS       MPAC       +6
000066: 22,3616           16470        VECMODE            TCF      VMODE
000067:
000068:
000069:                                                                                                  #  FORCE TP SIGN AGREEMENT IN MPAC:
000070:
000071: 22,3617           07226        SGNAGREE           TC       TPAGREE
000072: 22,3620           16030                           TCF      DANZIG
000073:
000074:                                                                                                  #  CONVERT THE DP 1'S COMPLEMENT ANGLE SCALED IN REVOLUTIONS TO A SINGLE PRECISION 2'S COMPLEMENT ANGLE
000075:                                                                                                  #  SCALED IN HALF-REVOLUTIONS.
000076:
000077: 22,3621           03642        1STO2S             TC       1TO2SUB
000078: 22,3622           35003                           CAF      ZERO
000079: 22,3623           54155                           TS       MPAC       +1
000080: 22,3624           16027                           TCF      NEWMODE
000081:
000082:                                                                                                  #  DO 1STO2S ON A VECTOR OF ANGLES:
000083:
000084: 22,3625           03642        V1STO2S            TC       1TO2SUB                               #  ANSWER ARRIVES IN A AND MPAC.
000085:
000086: 22,3626           52162                           DXCH     MPAC       +5
000087: 22,3627           52155                           DXCH     MPAC
000088: 22,3630           03642                           TC       1TO2SUB
000089: 22,3631           54156                           TS       MPAC       +2
000090:
000091: 22,3632           52160                           DXCH     MPAC       +3
000092: 22,3633           52155                           DXCH     MPAC
000093: 22,3634           03642                           TC       1TO2SUB
000094: 22,3635           54155                           TS       MPAC       +1
000095:
000096: 22,3636           30161                           CA       MPAC       +5
000097: 22,3637           54154                           TS       MPAC
000098:
000099: 22,3640           35001        TPMODE             CAF      ONE                                   #  MODE IS TP.
000100: 22,3641           16027                           TCF      NEWMODE
000101:
000102:                                                                                                  #  SUBROUTINE TO DO DOUBLING AND 1'S TO 2'S CONVERSION:
000103:
000104: 22,3642           52155        1TO2SUB            DXCH     MPAC                                  #  FINAL MPAC +1 UNSPECIFIED.
000105: 22,3643           20001                           DDOUBL
000106: 22,3644           10000                           CCS      A
000107: 22,3645           65001                           AD       ONE
000108: 22,3646           13650                           TCF      +2
000109: 22,3647           40000                           COM                                            #  THIS WAS REVERSE OF MSU.
000110:
000111: 22,3650           54154                           TS       MPAC                                  #  AND SKIP ON OVERFLOW.
000112: 22,3651           00002                           TC       Q
000113:
000114: 22,3652           50000                           INDEX    A                                     #  OVERFLOW UNCORRECT AND IN MSU.
000115: 22,3653           34762                           CAF      LIMITS
000116: 22,3654           26154                           ADS      MPAC
000117: 22,3655           00002                           TC       Q
000118:
000119:
000120:                                                                                                  #  THE FOLLOWING ROUTINE INCREMENTS IN 2S COMPLEMENT THE REGISTER WHOSE ADDRESS IS IN BUF BY THE 1S COMPL.
000121:                                                                                                  #  QUANTITY FOUND IN TEM2. THIS MAY BE USED TO INCREMENT DESIRED IMU AND OPTICS CDU ANGLES OR ANY OTHER 2S COMPL.
000122:                                                                                                  #  (+0 UNEQUAL TO -0) QUANTITY. MAY BE CALLED BY BANKCALL/SWCALL.
000123:
000124: 22,3656           54142        CDUINC             TS       TEM2                                  #  1S COMPL.QUANT. ARRIVES IN ACC. STORE IT
000125: 22,3657           50130                           INDEX    BUF
000126: 22,3660           10000                           CCS      0                                     #  CHANGE 2S COMPL. ANGLE(IN BUF)INTO 1S
000127: 22,3661           65001                           AD       ONE
000128: 22,3662           13666                           TCF      +4
000129: 22,3663           65001                           AD       ONE
000130: 22,3664           65001                           AD       ONE                                   #  OVERFLOW HERE IF 2S COMPL. IS 180 DEG.
000131: 22,3665           40000                           COM
000132:
000133: 22,3666           60142                           AD       TEM2                                  #  SULT MOVES FROM 2ND TO 3D QUAD. (OR BACK)
000134: 22,3667           10000                           CCS      A                                     #  BACK TO 2S COMPL.
000135: 22,3670           65001                           AD       ONE
000136: 22,3671           13673                           TCF      +2
000137: 22,3672           40000                           COM
000138: 22,3673           54142                           TS       TEM2                                  #  STORE 14BIT QUANTITY WITH PRESENT SIGN
000139: 22,3674           13700                           TCF      +4
000140: 22,3675           50000                           INDEX    A                                     #  SIGN.
000141: 22,3676           34762                           CAF      LIMITS                                #  FIX IT, BY ADDING IN 37777 OR 40000
000142: 22,3677           60142                           AD       TEM2
000143:
000144: 22,3700           50130                           INDEX    BUF
000145: 22,3701           54000                           TS       0                                     #  STORE NEW ANGLE IN 2S COMPLEMENT.
000146: 22,3702           00002                           TC       Q
000147:
000148:
000149:                                                                                                  #  RTB TO TORQUE GYROS, EXCEPT FOR THE CALL TO IMUSTALL. ECADR OF COMMANDS ARRIVES IN X1.
000150:
000151: 22,3703           50120        PULSEIMU           INDEX    FIXLOC                                #  ADDRESS OF GYRO COMMANDS SHOULD BE IN X1
000152: 22,3704           30046                           CA       X1
000153: 22,3705           04647                           TC       BANKCALL
000154: 22,3706           17175                           CADR     IMUPULSE
000155: 22,3707           16030                           TCF      DANZIG
000156:
000157:
000158:                                                                                                  #  EACH ROUTINE TAKES A 3X3 MATRIX STORED IN DOUBLE PRECISION IN A FIXED AREA OF ERASABLE MEMORY AND REPLACES IT
000159:                                                                                                  #  WITH THE TRANSPOSE MATRIX. TRANSP1 USES LOCATIONS XNB+0,+1 THROUGH XNB+16D, 17D AND TRANSP2 USES LOCATIONS
000160:                                                                                                  #  XNB1+0,+1 THROUGH XNB1+16D, 17D. EACH MATRIX IS STORED BY ROWS.
000161:
000162: 22,3710           02702        XNBEB              ECADR    XNB
000163: 22,3711           02554        XNB1EB             ECADR    XNB1
000164:
000165: 22,3712  E5,1702                                  EBANK=   XNB
000166:
000167: 22,3712           33710        TRANSP1            CAF      XNBEB
000168: 22,3713           54003                           TS       EBANK
000169: 22,3714           53705                           DXCH     XNB        +2
000170: 22,3715           53711                           DXCH     XNB        +6
000171: 22,3716           53705                           DXCH     XNB        +2
000172:
000173: 22,3717           53707                           DXCH     XNB        +4
000174: 22,3720           53717                           DXCH     XNB        +12D
000175: 22,3721           53707                           DXCH     XNB        +4
000176:
000177: 22,3722           53715                           DXCH     XNB        +10D
000178: 22,3723           53721                           DXCH     XNB        +14D
000179: 22,3724           53715                           DXCH     XNB        +10D
000180: 22,3725           16030                           TCF      DANZIG
000181:
000182: 22,3726  E5,1554                                  EBANK=   XNB1
000183:
000184: 22,3726           33711        TRANSP2            CAF      XNB1EB
000185: 22,3727           54003                           TS       EBANK
000186: 22,3730           53557                           DXCH     XNB1       +2
000187: 22,3731           53563                           DXCH     XNB1       +6
000188: 22,3732           53557                           DXCH     XNB1       +2
000189:
000190: 22,3733           53561                           DXCH     XNB1       +4
000191: 22,3734           53571                           DXCH     XNB1       +12D
000192: 22,3735           53561                           DXCH     XNB1       +4
000193:
000194: 22,3736           53567                           DXCH     XNB1       +10D
000195: 22,3737           53573                           DXCH     XNB1       +14D
000196: 22,3740           53567                           DXCH     XNB1       +10D
000197: 22,3741           16030                           TCF      DANZIG
000198:
000199:
000200:                                                                                                  #  THE SUBROUTINE  SIGNMPAC  SETS C(MPAC, MPAC +1) TO SIGN(MPAC).
000201:                                                                                                  #  FOR THIS, ONLY THE CONTENTS OF MPAC ARE EXAMINED. ALSO +0 YIELDS POSMAX AND -0 YIELDS NEGMAX.
000202:
000203:                                                                                                  #  ENTRY MAY BE BY EITHER OF THE FOLLOWING:
000204:
000205:                                                                                                  #        1.      LIMIT THE SIZE OF MPAC ON INTERPRETIVE OVERFLOW:
000206:                                                                                                  #        ENTRY:          BOVB
000207:                                                                                                  #                                SIGNMPAC
000208:                                                                                                  #        2.      GENERATE IN MPAC THE SIGNUM FUNCTION OF MPAC:
000209:                                                                                                  #        ENTRY:          RTB
000210:                                                                                                  #                                SIGNMPAC
000211:
000212:                                                                                                  #  IN EITHER CASE, RETURN IS TO THE NEXT INTERPRETIVE INSTRUCTION IN THE CALLING SEQUENCE.
000213:
000214: 22,3742           00006        SIGNMPAC           EXTEND
000215: 22,3743           34761                           DCA      DPOSMAX
000216: 22,3744           52155                           DXCH     MPAC
000217: 22,3745           10000                           CCS      A
000218: 22,3746           35003        DPMODE             CAF      ZERO                                  #  SETS MPAC +2 TO ZERO IN THE PROCESS
000219: 22,3747           16026                           TCF      SLOAD2     +2
000220: 22,3750           13751                           TCF      +1
000221: 22,3751           00006                           EXTEND
000222: 22,3752           44761                           DCS      DPOSMAX
000223: 22,3753           16024                           TCF      SLOAD2
000224:
000225:

End of include-file RTB_OP_CODES.agc.  Parent file is MAIN.agc


