
Source Code


000002:                                                                                                  ## Copyright:   Public domain.
000003:                                                                                                  ## Filename:    SERVICE_ROUTINES.agc
000004:                                                                                                  ## Purpose:     A section of Skylark revision 048.
000005:                                                                                                  ##              It is part of the source code for the Apollo Guidance Computer (AGC)
000006:                                                                                                  ##              for Skylab-2, Skylab-3, Skylab-4, and ASTP. No original listings of
000007:                                                                                                  ##              this software are available; instead, this file was created via
000008:                                                                                                  ##              disassembly of dumps of the core rope modules actually flown on
000009:                                                                                                  ##              Skylab-2. Access to these modules was provided by the New Mexico
000010:                                                                                                  ##              Museum of Space History.
000011:                                                                                                  ## Assembler:   yaYUL
000012:                                                                                                  ## Contact:     Ron Burkey <info@sandroid.org>.
000013:                                                                                                  ## Website:     www.ibiblio.org/apollo/index.html
000014:                                                                                                  ## Mod history: 2023-09-04 MAS  Created from Artemis 072.
000015:                                                                                                  ##              2024-03-05 MAS  Updated for Skylark 48.
000016:
000017:
000018: 10,2000                                           SETLOC   DISPLAYS
000019: 10,2000                                           BANK
000020: 10,3635                                           COUNT*   $$/DSPLA
000021: 10,3635           54001        UPENT2             TS       L
000022: 10,3636           40100                           CS       FLAGWRD4
000023: 10,3637           70001                           MASK     L
000024: 10,3640           26100                           ADS      FLAGWRD4
000025: 10,3641           00002                           TC       Q                                     #  RETURN
000026:
000027: 10,3642           40000        DOWNENT2           COM                                            #  START TO PROCESS INFORMATION
000028: 10,3643           70100                           MASK     FLAGWRD4
000029: 10,3644           54100                           TS       FLAGWRD4
000030: 10,3645           00002                           TC       Q                                     #  RETURN
000031:
000032: 10,3646     5005               OCT7               EQUALS   SEVEN
000033:
000034:
000035:    7706                                           BLOCK    3
000036:    6000                                           SETLOC   FFTAG6
000037:    6000                                           BANK
000038:
000039:    7706                                           COUNT*   $$/DKDAP
000040:
000041:    7706           00006        MAKERUPT           EXTEND
000042:    7707           07706                           EDRUPT   MAKERUPT
000043:
000044:
000045:                                                                                                  #  UPFLAG AND DOWNFLAG ARE ENTIRELY GENERAL FLAG SETTING AND CLEARING SUBROUTINES.  USING THEM, WHETHER OR
000046:                                                                                                  #  NOT IN INTERRUPT, ONE MAY SET OR CLEAR ANY SINGLE, NAMED BIT IN ANY ERASABLE REGISTER, SUBJECT OF COURSE TO
000047:                                                                                                  #  EBANK SETTING.  A "NAMED" BIT, AS THE WORD IS USED HERE, IS ANY BIT WITH A NAME FORMALLY ASSIGNED BY THE YUL
000048:                                                                                                  #  ASSEMBLER.
000049:
000050:                                                                                                  #  AT PRESENT THE ONLY NAMED BITS ARE THOSE IN THE FLAGWORDS.  ASSEMBLER CHANGES WILL MAKE IT POSSIBLE TO
000051:                                                                                                  #  NAME ANY BIT IN ERASABLE MEMORY.
000052:
000053:                                                                                                  #  CALLING SEQUENCES ARE AS FOLLOWS:-
000054:                                                                                                  #                TC      UPFLAG                  TC      DOWNFLAG
000055:                                                                                                  #                ADRES   NAME OF FLAG            ADRES   NAME OF FLAG
000056:
000057:                                                                                                  #  RETURN IS TO THE LOCATION FOLLOWING THE "ADRES" ABOUT .58 MS AFTER THE "TC".
000058:                                                                                                  #  UPON RETURN A CONTAINS THE CURRENT FLAGWRD SETTING.
000059:
000060:    6000                                           SETLOC   FFTAG13
000061:    6000                                           BANK
000062:    7710                                           COUNT*   $$/FLAG
000063:
000064:    7710           30002        UPFLAG             CA       Q
000065:    7711           07726                           TC       DEBIT
000066:    7712           40000                           COM                                            #  +(15 - BIT)
000067:    7713           00006                           EXTEND
000068:    7714           04001                           ROR      LCHAN                                 #  SET BIT
000069:    7715           50061        COMFLAG            INDEX    ITEMP1
000070:    7716           54074                           TS       FLAGWRD0
000071:    7717           22063                           LXCH     ITEMP3
000072:    7720           00003                           RELINT
000073:    7721           00001                           TC       L
000074:
000075:    7722           30002        DOWNFLAG           CA       Q
000076:    7723           07726                           TC       DEBIT
000077:    7724           70001                           MASK     L                                     #  RESET BIT
000078:    7725           17715                           TCF      COMFLAG
000079:
000080:    7726           65001        DEBIT              AD       ONE                                   #  GET DE BITS
000081:    7727           00004                           INHINT
000082:    7730           54063                           TS       ITEMP3
000083:    7731           35010                           CA       LOW4                                  #  DEC15
000084:    7732           54061                           TS       ITEMP1
000085:    7733           50063                           INDEX    ITEMP3
000086:    7734           27777                           CA       0          -1                         #  ADRES
000087:    7735           54001                           TS       L
000088:    7736           35003                           CA       ZERO
000089:    7737           00006                           EXTEND
000090:    7740           10061                           DV       ITEMP1                                #  A = FLAGWRD, L = (15 - BIT)
000091:    7741           52062                           DXCH     ITEMP1
000092:    7742           50061                           INDEX    ITEMP1
000093:    7743           30074                           CA       FLAGWRD0
000094:    7744           54001                           TS       L                                     #  CURRENT STATE
000095:    7745           50062                           INDEX    ITEMP2
000096:    7746           44763                           CS       BIT15                                 #  -(15 - BIT)
000097:    7747           00002                           TC       Q
000098:
000099:
000100:                                                                                                  #  DELAYJOB - A GENERAL ROUTINE TO DELAY A JOB A SPECIFIC AMOUNT OF TIME BEFORE PICKING UP AGAIN.
000101:
000102:                                                                                                  #  ENTRANCE REQUIREMENTS ...
000103:                                                                                                  #                CAF     DT              DELAY JOB FOR DT CENTISECS
000104:                                                                                                  #                TC      BANKCALL
000105:                                                                                                  #                CADR    DELAYJOB
000106:
000107: 00,2000                                           SETLOC   DLAYJOB
000108: 00,2000                                           BANK
000109:
000110:                                                                                                  #  THIS MUST REMAIN IN BANK 0 *****************************************
000111: 00,3730                                           COUNT*   $$/DELAY
000112: 00,3730           35030        1SECDELY           CAF      1SEC
000113: 00,3731           00004        DELAYJOB           INHINT
000114: 00,3732           54002                           TS       Q                                     #  STORE DELAY DT IN Q FOR DLY -1 IN
000115:
000116: 00,3733           36214                           CAF      DELAYNUM                              #  WAITLIST
000117: 00,3734           54070        DELLOOP            TS       RUPTREG1
000118: 00,3735           50000                           INDEX    A
000119: 00,3736           30773                           CA       DELAYLOC                              #  IS THIS DELAYLOC AVAILABLE
000120: 00,3737           00006                           EXTEND
000121: 00,3740           13745                           BZF      OK2DELAY                              #  YES
000122:
000123: 00,3741           10070                           CCS      RUPTREG1                              #  NO, TRY NEXT DELAYLOC
000124: 00,3742           13734                           TCF      DELLOOP
000125:
000126: 00,3743           07750                           TC       BAILOUT                               #  NO AVAILABLE LOCS AVAILABLE.
000127: 00,3744           31104                           OCT      31104
000128:
000129: 00,3745           33765        OK2DELAY           CA       TCSLEEP                               #  SET WAITLIST IMMEDIATE RETURN
000130: 00,3746           54061                           TS       WAITEXIT
000131:
000132: 00,3747           30004                           CA       FBANK
000133: 00,3750           60070                           AD       RUPTREG1                              #  STORE BBANK FOR TASK CALL
000134: 00,3751           54001                           TS       L
000135:
000136: 00,3752           33766                           CAF      WAKECAD                               #  STORE CADR FOR TASK CALL
000137: 00,3753           15256                           TCF      DLY2       -1                         #  DLY IS IN WAITLIST ROUTINE
000138:
000139: 00,3754           04676        TCGETCAD           TC       MAKECADR                              #  GET CALLERS FCADR
000140:
000141: 00,3755           50070                           INDEX    RUPTREG1
000142: 00,3756           54773                           TS       DELAYLOC                              #  SAVE DELAY CADRS
000143:
000144: 00,3757           05176                           TC       JOBSLEEP
000145:
000146: 00,3760           35003        WAKER              CAF      ZERO
000147: 00,3761           50006                           INDEX    BBANK
000148: 00,3762           56773                           XCH      DELAYLOC                              #  MAKE DELAYLOC AVAILABLE
000149: 00,3763           05202                           TC       JOBWAKE
000150: 00,3764           05327                           TC       TASKOVER
000151:
000152: 00,3765           03752        TCSLEEP            GENADR   TCGETCAD   -2
000153: 00,3766           03760        WAKECAD            GENADR   WAKER
000154:
000155:
000156:                                                                                                  #  GENTRAN, A BLOCK TRANSFER ROUTINE.
000157:
000158:                                                                                                  #  WRITTEN BY D. EYLES
000159:                                                                                                  #  MOD 1 BY KERNAN                                               UTILITYM REV 17 11/18/67
000160:
000161:                                                                                                  #  MOD 2 BY SCHULENBERG  (REMOVE RELINT)   SKIPPER REV 4 2/28/68
000162:
000163:                                                                                                  #  THIS ROUTINE IS USEFULL FOR TRANSFERING N CONSECUTIVE ERASABLE OR FIXED QUANTITIES TO SOME OTHER N
000164:                                                                                                  #  CONSECUTIVE ERASABLE LOCATIONS.  IF BOTH BLOCKS OF DATA ARE IN SWITCHABLE EBANKS, THEY MUST BE IN THE SAME ONE.
000165:
000166:                                                                                                  #  GENTRAN IS CALLABLE IN A JOB AS WELL AS A RUPT.  THE CALLING SEQUENCE IS:
000167:
000168:                                                                                                  #        I       CA      N-1             # OF QUANTITIES MINUS ONE.
000169:                                                                                                  #        I +1    TC      GENTRAN         IN FIXED-FIXED.
000170:                                                                                                  #        I +2    ADRES   L               STARTING ADRES OF DATA TO BE MOVED.
000171:                                                                                                  #        I +3    ADRES   M               STARTING ADRES OF DUPLICATION BLOCK.
000172:                                                                                                  #        I +4                            RETURNS HERE.
000173:
000174:                                                                                                  #  GENTRAN TAKES 25 MCT'S (300 MICROSECONDS) PER ITEM + 5 MCT'S (60 MICS) FOR ENTERING AND EXITING.
000175:
000176:                                                                                                  #  A, L AND ITEMP1 ARE NOT PRESERVED.
000177:
000178:    4000                                           SETLOC   FFTAG4
000179:    4000                                           BANK
000180:
000181:    5562     0061                                  EBANK=   ITEMP1
000182:
000183:    5562                                           COUNT*   $$/TRAN
000184:
000185:    5562           00004        GENTRAN            INHINT
000186:    5563           54061                 +1        TS       ITEMP1                                #  SAVE N-1
000187:    5564           50002                           INDEX    Q                                     #  C(Q) = ADRES L.
000188:    5565           60000                           AD       0                                     #  ADRES (L + N - 1).
000189:    5566           50000                           INDEX    A
000190:    5567           30000                           CA       0                                     #  C(ABOVE).
000191:    5570           54001                           TS       L                                     #  SAVE DATA.
000192:    5571           30061                           CA       ITEMP1
000193:    5572           50002                           INDEX    Q
000194:    5573           60001                           AD       1                                     #  ADRES (M + N - 1).
000195:    5574           50000                           INDEX    A
000196:    5575           22000                           LXCH     0                                     #  STUFF IT.
000197:    5576           10061                           CCS      ITEMP1                                #  LOOP UNTIL N-1 = 0.
000198:    5577           15563                           TCF      GENTRAN    +1
000199:    5600           16710                           TCF      Q+2                                   #  RETURN TO CALLER.
000200:
000201:
000202:                                                                                                  #  B5OFF         ZERO BIT 5 OF EXTVBACT, WHICH IS SET BY TESTXACT.
000203:                                                                                                  #  MAY BE USED AS NEEDED BY ANY EXTENDED VERB WHICH HAS DONE TESTXACT
000204:
000205:    5601                                           COUNT*   $$/EXTVB
000206:
000207:    5601           44775        B5OFF              CS       BIT5
000208:    5602           71237                           MASK     EXTVBACT
000209:    5603           55237                           TS       EXTVBACT
000210:    5604           05220                           TC       ENDOFJOB
000211:
000212:
000213:                                                                                                  #  SUBROUTINES TO TURN OFF AND TURN ON TRACKER FAIL LIGHT.
000214:
000215:    5605                                           COUNT*   $$/DSPLA
000216:    5605           00004        TRFAILOF           INHINT
000217:    5606           47670                           CS       OCT40200                              #  TURN OFF TRACKER LIGHT
000218:    5607           71231                           MASK     DSPTAB     +11D
000219:    5610           64763                           AD       BIT15
000220:    5611           55231                           TS       DSPTAB     +11D
000221:    5612           41327                           CS       OPTMODES                              #  TO INSURE THAT OCDU FAIL WILL GO ON
000222:    5613           74773                           MASK     OCDUFBIT                              #  AGAIN IF IT WAS ON IN ADDITION TO
000223:    5614           27327                           ADS      OPTMODES                              #  TRACKER FAIL.
000224:
000225:    5615           00003        REQ                RELINT
000226:    5616           00002                           TC       Q
000227:
000228:    5617           00004        TRFAILON           INHINT
000229:    5620           41231                           CS       DSPTAB     +11D                       #  TURN ON
000230:    5621           77670                           MASK     OCT40200
000231:    5622           27231                           ADS      DSPTAB     +11D
000232:    5623           15615                           TCF      REQ
000233:
000234:    5624           10000        INCRQCK            CCS      A
000235:    5625           24002                           INCR     Q
000236:    5626           00002                           TC       Q
000237:    5627                                           COUNT*   $$/CFAIL
000238:    5627           54001        C31BTCHK           TS       L                                     #  SAVE MASK
000239:    5630           30373                           CA       C31FLWRD
000240:    5631           74346                           MASK     FAILBIT
000241:    5632           10000                           CCS      A
000242:    5633           15642                           TCF      USEFLBTS
000243:    5634           00006                           EXTEND
000244:    5635           00031                           READ     CHAN31
000245:    5636           70001        C31CMCHK           MASK     L
000246:    5637           00006                           EXTEND
000247:    5640           16711                           BZF      TCQ                                   #  BITS SET
000248:    5641           16706                           TCF      Q+1                                   #  BITS NOT SET
000249:
000250:    5642           30373        USEFLBTS           CA       C31FLWRD
000251:    5643           15636                           TCF      C31CMCHK
000252:
000253:    5644     4346               FAILBIT            =        PRIO30
000254:

End of include-file SERVICE_ROUTINES.agc.  Parent file is MAIN.agc


