
Source Code


000002:                                                                                                  ## Copyright:   Public domain.
000003:                                                                                                  ## Filename:    SINGLE_PRECISION_SUBROUTINES.agc
000004:                                                                                                  ## Purpose:     A section of Skylark revision 048.
000005:                                                                                                  ##              It is part of the source code for the Apollo Guidance Computer (AGC)
000006:                                                                                                  ##              for Skylab-2, Skylab-3, Skylab-4, and ASTP. No original listings of
000007:                                                                                                  ##              this software are available; instead, this file was created via
000008:                                                                                                  ##              disassembly of dumps of the core rope modules actually flown on
000009:                                                                                                  ##              Skylab-2. Access to these modules was provided by the New Mexico
000010:                                                                                                  ##              Museum of Space History.
000011:                                                                                                  ## Assembler:   yaYUL
000012:                                                                                                  ## Contact:     Ron Burkey <info@sandroid.org>.
000013:                                                                                                  ## Website:     www.ibiblio.org/apollo/index.html
000014:                                                                                                  ## Mod history: 2023-09-04 MAS  Created from Artemis 072.
000015:
000016:    4000                                           SETLOC   FFTAG1
000017:    4000                                           BANK
000018:
000019:                                                                                                  #  SINGLE PRECISION SINE AND COSINE
000020:
000021:    5073                                           COUNT*   $$/INTER
000022:    5073           64764        SPCOS              AD       HALF                                  #  ARGUMENTS SCALED AT PI
000023:    5074           54735        SPSIN              TS       TEMK
000024:    5075           15077                           TCF      SPT
000025:    5076           40735                           CS       TEMK
000026:    5077           60000        SPT                DOUBLE
000027:    5100           54735                           TS       TEMK
000028:    5101           15112                           TCF      POLLEY
000029:    5102           56735                           XCH      TEMK
000030:    5103           50735                           INDEX    TEMK
000031:    5104           64762                           AD       LIMITS
000032:    5105           40000                           COM
000033:    5106           60735                           AD       TEMK
000034:    5107           54735                           TS       TEMK
000035:    5110           15112                           TCF      POLLEY
000036:    5111           15130                           TCF      ARG90
000037:    5112           00006        POLLEY             EXTEND
000038:    5113           70735                           MP       TEMK
000039:    5114           54736                           TS       SQ
000040:    5115           00006                           EXTEND
000041:    5116           75035                           MP       C5/2
000042:    5117           67672                           AD       C3/2
000043:    5120           00006                           EXTEND
000044:    5121           70736                           MP       SQ
000045:    5122           67653                           AD       C1/2
000046:    5123           00006                           EXTEND
000047:    5124           70735                           MP       TEMK
000048:    5125           20001                           DDOUBL
000049:    5126           54735                           TS       TEMK
000050:    5127           00002                           TC       Q
000051:    5130           50000        ARG90              INDEX    A
000052:    5131           44762                           CS       LIMITS
000053:    5132           00002                           TC       Q                                     #  RESULT SCALED AT 1
000054:
000055:                                                                                                  #  SPROOT WAS DELETED IN REV 51 OF MASTER. ASS. CONT. HAS CARDS.

End of include-file SINGLE_PRECISION_SUBROUTINES.agc.  Parent file is MAIN.agc


