
Source Code


000002:                                                                                                  ## Copyright:   Public domain.
000003:                                                                                                  ## Filename:    SXTMARK.agc
000004:                                                                                                  ## Purpose:     A section of Skylark revision 048.
000005:                                                                                                  ##              It is part of the source code for the Apollo Guidance Computer (AGC)
000006:                                                                                                  ##              for Skylab-2, Skylab-3, Skylab-4, and ASTP. No original listings of
000007:                                                                                                  ##              this software are available; instead, this file was created via
000008:                                                                                                  ##              disassembly of dumps of the core rope modules actually flown on
000009:                                                                                                  ##              Skylab-2. Access to these modules was provided by the New Mexico
000010:                                                                                                  ##              Museum of Space History.
000011:                                                                                                  ## Assembler:   yaYUL
000012:                                                                                                  ## Contact:     Ron Burkey <info@sandroid.org>.
000013:                                                                                                  ## Website:     www.ibiblio.org/apollo/index.html
000014:                                                                                                  ## Mod history: 2023-09-04 MAS  Created from Artemis 072.
000015:                                                                                                  ##              2024-03-05 MAS  Updated for Skylark 48.
000016:
000017:
000018:                                                                                                  #  PROGRAM NAME     -     SXTMARK
000019:
000020:                                                                                                  #  MOD. 1        8 AUG. 69       BY P.RYE
000021:
000022:                                                                                                  #  FUNCTIONAL DESCRIPTION
000023:
000024:                                                                                                  #        SXTMARK IS CALLED BY P03 AND BY P22, P23, P51, AND P52 VIA R53.
000025:                                                                                                  #        THE REGISTER MARKINDX IS SET TO 5 IF THE CALLING PROGRAM IS P22, OR TO 1 FOR OTHER USERS.
000026:                                                                                                  #           THIS REGISTER INDICATES THE NUMBER OF MARKS DESIRED.
000027:                                                                                                  #        THE REGISTER EXTVBACT IS CHECKED (SUBROUTINE TESTMARK) TO INSURE THAT THE MARK DISPLAY SYSTEM
000028:                                                                                                  #           IS FREE.  IF NOT, BAILOUT (31211) IS DONE.
000029:                                                                                                  #        BIT 2 OF THE REGISTER EXTVBACT IS SET BY SXTMARK, RESERVING THE MARKING AND EXTENDED VERB SYSTEM.
000030:                                                                                                  #        SXTMARK DISPLAYS A FLASHING VERB 51, CALLING FOR MARKS.  A PROCEED RESPONSE TO THIS DISPLAY
000031:                                                                                                  #           WILL RELEASE THE MARKING SYSTEM (SUBROUTINES MKRELEAS, CLEARMARK) AND RETURN TO THE
000032:                                                                                                  #           CALLING PROGRAM.
000033:
000034:                                                                                                  #        WHEN SUFFICIENT MARKS HAVE BEEN MADE (MARKINDX = 0) A FLASHING V50N25, R1 = 16, IS DISPLAYED.
000035:                                                                                                  #           A PROCEED RESPONSE TO THIS DISPLAY WILL RETURN TO THE CALLING PROGRAM AFTER RELEASING THE
000036:                                                                                                  #           MARKING SYSTEM.
000037:
000038:                                                                                                  #        MARKS ARE PROCESSED BY THE ROUTINE MARKRUPT AS FOLLOWS:
000039:                                                                                                  #                IF NO MARKS ARE CALLED FOR, ALARM CODE 114 IS SENT AND THE MARKRUPT ROUTINE EXITS.
000040:                                                                                                  #                IF A MARK IS ACCEPTED, MARKFLG IS SET TO ENABLE A REJECT.
000041:                                                                                                  #                IF R21(P20) IS RUNNING, DATA IS MOVED FROM STORAGE MRKBUF1 INTO MRKBUF2.  NEW MARK DATA
000042:                                                                                                  #                        IS STORED INTO MRKBUF1.
000043:                                                                                                  #                IF P22 IS RUNNING, MARK DATA IS STORED INTO SVMRKDAT, USING THE REGISTER P22DEX AS AN
000044:                                                                                                  #                        INDEX AND THE REGISTER 8NN AS A COUNTER.  MARKINDX IS DECREMENTED.
000045:                                                                                                  #                IF R57 IS RUNNING, MARK DATA IS STORED INTO MARKDOWN FOR DOWNLINK, THEN PROCESSED AS FOR
000046:                                                                                                  #                        R21.  MARKRUPT THEN CALLS MARKDISP (IN R57).
000047:                                                                                                  #                FOR OTHER USERS, MARK DATA IS STORED INTO MRKBUF1 AND MARKINDX IS DECREMENTED.
000048:
000049:                                                                                                  #        MARK REJECTS ARE PROCESSED BY THE ROUTINE MARKRUPT AS FOLLOWS:
000050:                                                                                                  #                IF MARKFLG IS CLEAR (I.E., NO MARK WAS TAKEN), ALARM CODE 110 IS SENT AND THE ROUTINE EXITS.
000051:                                                                                                  #                OTHERWISE, MARKINDX IS INCREMENTED, THE P22 INDICATORS 8NN AND P22DEX ARE DECREMENTED
000052:                                                                                                  #                        (IF THE USER IS P22), AND THE V51FL DISPLAY IN SXTMARK IS REESTABLISHED.
000053:
000054:                                                                                                  #        IF THE ERASABLE REGISTER CDUCHKWD IS SET TO A NON-ZERO VALUE, VALIDITY OF THE MARKS IS CHECKED
000055:                                                                                                  #           BY THE MARKRUPT ROUTINE AS FOLLOWS:
000056:                                                                                                  #                IF THE CDU'S CHANGE BY MORE THAN 3 BITS OVER THE TIME PERIOD INDICATED BY THE VALUE OF
000057:                                                                                                  #                        CDUCHKWD, ALARM CODE 121 IS SENT AND THE ROUTINE EXITS.
000058:
000059:                                                                                                  #  CALLING SEQUENCE -
000060:
000061:                                                                                                  #        TC      BANKCALL
000062:                                                                                                  #        CADR    SXTMARK
000063:
000064:
000065:
000066:                                                                                                  #  NORMAL EXIT MODE -
000067:
000068:                                                                                                  #        RETURN TO USER VIA BANKJUMP (RETURN ADDRESS IN OPTCADR).
000069:
000070:
000071:                                                                                                  #  ALARM OR ABORT EXIT MODES
000072:
000073:                                                                                                  #        1. ALARM 110 - MARK REJECT WITH NO MARK
000074:                                                                                                  #        2. ALARM 113 - NO INBITS
000075:                                                                                                  #        3. ALARM 121 - CDU'S NO GOOD AT MARK TIME
000076:                                                                                                  #        4. ALARM 114 - MARK MADE BUT NOT DESIRED
000077:                                                                                                  #        5. BAILOUT 31211 - MARK DISPLAY SYSTEM BUSY
000078:
000079:
000080:                                                                                                  #  ERASABLE INITIALIZATION REQUIRED -
000081:
000082:                                                                                                  #        NONE
000083:
000084:
000085:                                                                                                  #  OUTPUT -
000086:
000087:                                                                                                  #        FOR P22:
000088:                                                                                                  #                MARK DATA IN SVMRKDAT
000089:                                                                                                  #                MARKINDX DECREMENTED BY ONE FOR EACH MARK TAKEN
000090:                                                                                                  #                NO. OF MARKS IN 8NN
000091:                                                                                                  #        FOR R57:
000092:                                                                                                  #                MARK DATA IN MARKDOWN AND MRKBUF1
000093:                                                                                                  #        FOR OTHER USERS:
000094:                                                                                                  #                MARKINDX DECREMENTED TO ZERO IF A MARK WAS TAKEN
000095:                                                                                                  #                MARK DATA IN MRKBUF1
000096:
000097:
000098:                                                                                                  #  CONDITIONS AT EXIT -
000099:
000100:                                                                                                  #        MARKINDX = INITIAL VALUE - NO. MARKS TAKEN
000101:                                                                                                  #        MARKING SYSTEM IS RELEASED :
000102:                                                                                                  #                EXTVBACT = 0
000103:                                                                                                  #                BIT 9 OPTMODES = 0
000104:                                                                                                  #                OPTIND = -1
000105:                                                                                                  #                BIT 2 CHAN12 = 0
000106:                                                                                                  #        MARKFLG = 0
000107:                                                                                                  #        OPTCADR CONTAINS CADR OF SXTMARK CALLER
000108:
000109:
000110: 07,2000                                           SETLOC   SXTMARKE
000111: 07,2000                                           BANK
000112:
000113: 07,2000  E7,1702                                  EBANK=   MRKBUF1
000114: 07,2000                                           COUNT*   $$/SXTMK
000115: 07,2000           02046        SXTMARK            TC       TESTMARK
000116: 07,2001           35001        SETMRK             CAF      ONE                                   #  INITIALIZE MARK COUNTER
000117: 07,2002           54301                           TS       MARKINDX
000118:
000119: 07,2003           04676                           TC       MAKECADR                              #  STORE RETURN TO USER WHO CALLED
000120: 07,2004           55326                           TS       OPTCADR                               #     SXTMARK IN OPTCADR
000121:
000122: 07,2005           04647        MKVB51             TC       BANKCALL                              #  CLEAR DISPLAY FOR MARK VERB
000123: 07,2006           20455                           CADR     KLEENEX
000124: 07,2007           32045        MKVBDSP            CAF      VB51                                  #  DISPLAY MARK VERB 51
000125: 07,2010           04647                 +1        TC       BANKCALL
000126: 07,2011           20464                           CADR     GOMARK4
000127: 07,2012           12015                           TCF      TERMSXT                               #  VB34-TERMINATE
000128: 07,2013           12026                           TCF      ENTANSWR                              #  V33-PROCEED-MARKING DONE
000129: 07,2014           12036                           TCF      MKVB5X                                #  ENTER-RECYCLE TO INITIAL MARK DISPLAY
000130:
000131: 07,2015           05542        TERMSXT            TC       CLEARMRK                              #  CLEAR MARK ACTIVITY.
000132:
000133: 07,2016           02057                           TC       MKRLEES
000134:
000135: 07,2017           05367                           TC       CHECKMM
000136: 07,2020           00003                           MM       03         B-14
000137: 07,2021           12023                           TCF      +2
000138: 07,2022           02024                           TC       TERMP03
000139: 07,2023           04103                           TC       GOTOPOOH
000140:
000141: 07,2024           04666        TERMP03            TC       POSTJUMP
000142: 07,2025           67407                           CADR     GCOMP5
000143:
000144: 07,2026           37645        ENTANSWR           CAF      PRIO24
000145: 07,2027           05134                           TC       NOVAC
000146: 07,2030  0003777                                  EBANK=   WHOCARES
000147: 07,2030           05537 04067                     2CADR    ENDEXT
000148:
000149: 07,2032           35064                           CAF      PRIO13                                #  ALLOW LEFTOVER SLEEPING JOB IF ANY
000150: 07,2033           05211                           TC       PRIOCHNG
000151:
000152: 07,2034           31326        MKVRET             CA       OPTCADR                               #  OPTCADR HAS RETURN CADR OF USER WHO
000153: 07,2035           04671                           TC       BANKJUMP                              #     CALLED SXTMARK
000154:
000155: 07,2036           10301        MKVB5X             CCS      MARKINDX                              #  REDISPLAY VB51 IF MORE MARKS WANTED
000156: 07,2037           12005                           TCF      MKVB51
000157: 07,2040           34321        MKVB50             CAF      R1D1                                  #  OCT 16
000158: 07,2041           55240                           TS       DSPTEM1
000159: 07,2042           32044                           CAF      V50N25                                #  DISPLAY V50N25 IF MARKING DONE.
000160: 07,2043           12010                           TCF      MKVBDSP    +1
000161: 07,2044           14431        V50N25             VN       5025
000162: 07,2045           14600        VB51               VN       5100
000163:
000164: 07,2046           36211        TESTMARK           CAF      SIX
000165: 07,2047           71237                           MASK     EXTVBACT
000166: 07,2050           10000                           CCS      A
000167: 07,2051           12055                           TCF      MKABORT
000168: 07,2052           35000                           CAF      BIT2
000169: 07,2053           27237                           ADS      EXTVBACT
000170: 07,2054           00002                           TC       Q
000171:
000172: 07,2055           07750        MKABORT            TC       BAILOUT
000173: 07,2056           31211                           OCT      31211
000174:
000175: 07,2057  07,2057               MKRELEAS           EQUALS   MKRLEES
000176:
000177: 07,2057           00004        MKRLEES            INHINT
000178: 07,2060           37702                           CA       NEGONE
000179: 07,2061           55313                           TS       OPTIND                                #  KILL COARS OPTICS
000180:
000181: 07,2062           35003                           CAF      ZERO
000182: 07,2063           54301                           TS       MARKINDX
000183:
000184: 07,2064           44776                           CS       MARKBIT
000185: 07,2065           70075                           MASK     FLAGWRD1
000186: 07,2066           54075                           TS       FLAGWRD1
000187:
000188: 07,2067           00003                           RELINT
000189:
000190: 07,2070           00002                           TC       Q
000191:
000192:
000193: 07,2071           54016        MARKRUPT           TS       BANKRUPT                              #  STORE CDUS AND OPTICS NOW
000194: 07,2072           30035                           CA       CDUT
000195: 07,2073           54361                           TS       MKCDUT
000196: 07,2074           30036                           CA       CDUS
000197: 07,2075           54357                           TS       MKCDUS
000198: 07,2076           30033                           CA       CDUY
000199: 07,2077           54356                           TS       MKCDUY
000200: 07,2100           30034                           CA       CDUZ
000201: 07,2101           54360                           TS       MKCDUZ
000202: 07,2102           30032                           CA       CDUX
000203: 07,2103           54362                           TS       MKCDUX
000204: 07,2104           00006                           EXTEND
000205: 07,2105           30025                           DCA      TIME2                                 #  GET TIME
000206: 07,2106           52355                           DXCH     MKT2T1
000207: 07,2107           00006                           EXTEND
000208: 07,2110           30355                           DCA      MKT2T1
000209: 07,2111           52014                           DXCH     SAMPTIME                              #  RUPT TIME FOR NOUN 65.
000210:
000211: 07,2112           56002                           XCH      Q
000212: 07,2113           54012                           TS       QRUPT
000213:
000214: 07,2114           34774                           CAF      BIT6                                  #  SEE IF MARK OR MKREJECT
000215: 07,2115           00006                           EXTEND
000216: 07,2116           02016                           RAND     NAVKEYIN
000217: 07,2117           10000                           CCS      A
000218: 07,2120           02140                           TC       MARKIT                                #  ITS A MARK
000219:
000220: 07,2121           34773                           CAF      BIT7                                  #  NOT A MARK, SEE IF MKREJECT
000221: 07,2122           00006                           EXTEND
000222: 07,2123           02016                           RAND     NAVKEYIN
000223: 07,2124           10000                           CCS      A
000224: 07,2125           02240                           TC       MKREJECT                              #  ITS A MARK REJECT
000225:
000226: 07,2126           34342        KEYCALL            CAF      OCT37                                 #  NOT MARK OR MKREJECT, SEE IF KEYCODE
000227: 07,2127           00006                           EXTEND
000228: 07,2130           02016                           RAND     NAVKEYIN
000229: 07,2131           00006                           EXTEND
000230: 07,2132           12135                           BZF      +3                                    #  IF NO INBITS
000231: 07,2133           04666                           TC       POSTJUMP
000232: 07,2134           17626                           CADR     KEYCOM                                #  IT,S A KEY CODE, NOT A MARK.
000233:
000234: 07,2135           05644                 +3        TC       ALARM                                 #  ALARM IF NO INBITS
000235: 07,2136           00113                           OCT      113
000236: 07,2137           05336                           TC       RESUME
000237:
000238:
000239:                                                                                                  #  PROGRAM NAME - MARKIT                                 DATE- 19 SEPT 1967
000240:
000241:                                                                                                  #  CALLING SEQUENCE
000242:                                                                                                  #        FROM MARKRUPT IF CHAN 16 BIT 6 = 1
000243:
000244:                                                                                                  #  EXIT
000245:                                                                                                  #        RESUME
000246:
000247:                                                                                                  #  INPUT
000248:                                                                                                  #        CDUCHKWD. ALSO ALL INITIALIZATION FOR MARKCONT
000249:
000250:                                                                                                  #  OUTPUT
000251:                                                                                                  #        MKT2T1,MKCDUX,MKCDUY,MKCDUZ,MKCDUS,MKCDUT
000252:
000253:                                                                                                  #  ALARM EXIT
000254:                                                                                                  #        NONE
000255:
000256: 07,2140           11356        MARKIT             CCS      CDUCHKWD
000257: 07,2141           12144                           TCF      +3                                    #  DELAY OF CDUCHKWD CS IF PNZ
000258: 07,2142           12144                           TCF      +2
000259: 07,2143           35003                           CAF      ZERO
000260: 07,2144           65001                           AD       ONE                                   #  10 MS IF NO CHECK
000261: 07,2145           05246                           TC       WAITLIST
000262: 07,2146  E7,1702                                  EBANK=   MRKBUF1
000263: 07,2146           02151 16067                     2CADR    MARKDIF
000264:
000265: 07,2150           15336                           TCF      RESUME
000266:
000267: 07,2151           31356        MARKDIF            CA       CDUCHKWD                              #  IF DELAY CHECK IS ZERO OR NEG, ACP MARK
000268: 07,2152           00006                           EXTEND
000269: 07,2153           62164                           BZMF     MARKCONT
000270: 07,2154           45001                           CS       BIT1
000271: 07,2155           54353                           TS       MKNDX                                 #  SET INDEX -1
000272: 07,2156           30362                           CA       MKCDUX
000273: 07,2157           02221                           TC       DIFCHK                                #  SEE IF VEHICLE RATE TO MUCH AT MARK
000274: 07,2160           30356                           CA       MKCDUY
000275: 07,2161           02221                           TC       DIFCHK
000276: 07,2162           30360                           CA       MKCDUZ
000277: 07,2163           02221                           TC       DIFCHK
000278:
000279: 07,2164           34764        MARKCONT           CAF      R21BIT                                #  R21 MARKING
000280: 07,2165           70076                           MASK     FLAGWRD2
000281: 07,2166           10000                           CCS      A
000282: 07,2167           12210                           TCF      PUTMARK                               #  YES
000283:
000284: 07,2170           10301                           CCS      MARKINDX                              #  MARKS CALLED FOR
000285: 07,2171           12175                           TCF      MARK2                                 #  YES
000286:
000287: 07,2172           05644        114ALM             TC       ALARM
000288: 07,2173           00114                           OCT      114                                   #  MARKS NOT CALLED FOR
000289: 07,2174           05327                           TC       TASKOVER
000290:
000291: 07,2175           54301        MARK2              TS       MARKINDX                              #  DECREMENT NO. MARKS WANTED
000292:
000293: 07,2176           07710                           TC       UPFLAG
000294: 07,2177           00032                           ADRES    MARKFLG                               #  SET FLAG TO ENABLE REJECT
000295:
000296: 07,2200           12210                           TCF      PUTMARK
000297:
000298: 07,2201           10301        MARKDONE           CCS      MARKINDX                              #  ANY MORE MARKS TO BE TAKEN
000299: 07,2202           15327                           TCF      TASKOVER
000300: 07,2203           37644                           CAF      PRIO22
000301: 07,2204           05150                           TC       FINDVAC
000302: 07,2205  E7,1702                                  EBANK=   MRKBUF1
000303: 07,2205           02036 16067                     2CADR    MKVB5X
000304:
000305: 07,2207           15327                           TCF      TASKOVER
000306:
000307: 07,2210           36211        PUTMARK            CAF      SIX
000308: 07,2211           05562                           TC       GENTRAN
000309: 07,2212           00354                           ADRES    MKT2T1
000310: 07,2213           01702                           ADRES    MRKBUF1
000311:
000312: 07,2214           34764                           CAF      R21BIT                                #  DONT CALL VB50 DISPLAY FOR R21
000313: 07,2215           70076                           MASK     FLAGWRD2
000314: 07,2216           10000                           CCS      A
000315: 07,2217           15327                           TCF      TASKOVER
000316:
000317: 07,2220           12201                           TCF      MARKDONE
000318:
000319: 07,2221           24353        DIFCHK             INCR     MKNDX                                 #  INCREMENT INDEX
000320:
000321: 07,2222           00006                           EXTEND
000322: 07,2223           50353                           INDEX    MKNDX
000323: 07,2224           20032                           MSU      CDUX                                  #  GET MARK(ICDU) - CURRENT(ICDU)
000324: 07,2225           10000                           CCS      A
000325: 07,2226           12232                           TCF      +4
000326: 07,2227           00002                           TC       Q
000327: 07,2230           12232                           TCF      +2
000328: 07,2231           00002                           TC       Q
000329: 07,2232           67701                           AD       NEG2                                  #  SEE IF DIFFERENCE GREATER THAN 3 BITS
000330: 07,2233           00006                           EXTEND
000331: 07,2234           62231                           BZMF     -3                                    #  NOT GREATER
000332:
000333: 07,2235           05644                           TC       ALARM                                 #  COUPLED WITH PROGRAM ALARM
000334: 07,2236           00121                           OCT      00121
000335:
000336: 07,2237           15327                           TCF      TASKOVER                              #  DO NOT ACCEPT
000337:
000338: 07,2240           34764        MKREJECT           CAF      R21BIT
000339: 07,2241           70076                           MASK     FLAGWRD2                              #  R21 MARK (SPECIAL MARKING FOR R21)
000340: 07,2242           00006                           EXTEND
000341: 07,2243           12263                           BZF      MRKREJCT                              #  NOT SET THEREFORE REGULAR REJECT
000342: 07,2244           31702                           CA       MRKBUF1                               #  IS THERE A MARK IN THE BUFFER?
000343: 07,2245           00006                           EXTEND
000344: 07,2246           12251                           BZF      +3                                    #  YES - REJECT MARK IN BUFFER
000345:
000346: 07,2247           00006                           EXTEND
000347: 07,2250           62254                           BZMF     REJCTR22                              #  NO,SET FLAG TO REJECT MARK PROCESSED-R22
000348:
000349: 07,2251           37702                           CA       NEGONE                                #  -1 (FOR R22)
000350: 07,2252           55702                           TS       MRKBUF1                               #  -0 IN TIME IS FLAG TO R22 SIGNIFYING A
000351: 07,2253           05336                           TC       RESUME
000352:
000353: 07,2254           34773        REJCTR22           CAF      R22CABIT                              #  IS R22 PROCESSING A MARK?
000354: 07,2255           70105                           MASK     FLAGWRD9
000355: 07,2256           00006                           EXTEND
000356: 07,2257           15336                           BZF      RESUME                                #  NO IGNORE MARK REJECT
000357:
000358: 07,2260           07710                           TC       UPFLAG
000359: 07,2261           00231                           ADRES    REJCTFLG                              #  YES - SET FLAG FOR R22
000360: 07,2262           05336                           TC       RESUME
000361:
000362: 07,2263           34776        MRKREJCT           CAF      MARKBIT
000363: 07,2264           70075                           MASK     FLAGWRD1
000364: 07,2265           10000                           CCS      A
000365: 07,2266           02272                           TC       REJECT3
000366:
000367: 07,2267           05644                           TC       ALARM                                 #  DONT ACCEPT TWO REJECTS TOGETHER
000368: 07,2270           00110                           OCT      110
000369: 07,2271           05336                           TC       RESUME
000370:
000371: 07,2272           07722        REJECT3            TC       DOWNFLAG
000372: 07,2273           00032                           ADRES    MARKFLG
000373:
000374: 07,2274           24301        REJECT4            INCR     MARKINDX                              #  CALL FOR ANOTHER MARK
000375:
000376: 07,2275           37644        REJEXIT            CAF      PRIO22
000377: 07,2276           05150                           TC       FINDVAC
000378: 07,2277  E7,1702                                  EBANK=   MRKBUF1
000379: 07,2277           02007 16067                     2CADR    MKVBDSP
000380:
000381: 07,2301           15336                           TCF      RESUME

End of include-file SXTMARK.agc.  Parent file is MAIN.agc


