
Source Code


000002:                                                                                                  ## Copyright:   Public domain.
000003:                                                                                                  ## Filename:    SYSTEM_TEST_STANDARD_LEAD_INS.agc
000004:                                                                                                  ## Purpose:     A section of Skylark revision 048.
000005:                                                                                                  ##              It is part of the source code for the Apollo Guidance Computer (AGC)
000006:                                                                                                  ##              for Skylab-2, Skylab-3, Skylab-4, and ASTP. No original listings of
000007:                                                                                                  ##              this software are available; instead, this file was created via
000008:                                                                                                  ##              disassembly of dumps of the core rope modules actually flown on
000009:                                                                                                  ##              Skylab-2. Access to these modules was provided by the New Mexico
000010:                                                                                                  ##              Museum of Space History.
000011:                                                                                                  ## Assembler:   yaYUL
000012:                                                                                                  ## Contact:     Ron Burkey <info@sandroid.org>.
000013:                                                                                                  ## Website:     www.ibiblio.org/apollo/index.html
000014:                                                                                                  ## Mod history: 2023-09-04 MAS  Created from Artemis 072.
000015:
000016:
000017: 22,3237  E5,1660                                  EBANK=   XSM
000018:
000019: 12,2000                                           SETLOC   E/PROG1
000020: 12,2000                                           BANK
000021:
000022: 12,2000                                           COUNT*   $$/P07
000023:
000024:                                                                                                  #  SPECIAL PROGRAMS TO EASE THE PANGS OF ERASABLE MEMORY PROGRAMS.
000025:
000026:                                                                                                  #  E/BKCALL      FOR DOING BANKCALLS FROM AND RETURNING TO ERASABLE.
000027:
000028:                                                                                                  #  THIS ROUTINE IS CALLABLE FROM ERASABLE OR FIXED.  LIKE BANKCALL, HOWEVER, SWITCHING BETWEEN S3 AND S4
000029:                                                                                                  #  IS NOT POSSIBLE.
000030:
000031:                                                                                                  #  THE CALLING SEQUENCE IS:
000032:
000033:                                                                                                  #                TC      BANKCALL
000034:                                                                                                  #                CADR    E/BKCALL
000035:                                                                                                  #                CADR    ROUTINE         WHERE YOU WANT TO GO IN FIXED.
000036:                                                                                                  #                RETURN HERE FROM DISPLAY TERMINATE, BAD STALL OR TC Q.
000037:                                                                                                  #                RETURN HERE FROM DISPLAY PROCEED OR GOOD RETURN FROM STALL.
000038:                                                                                                  #                RETURN HERE FROM DISPLAY ENTER OR RECYCLE.
000039:
000040:                                                                                                  #  THIS ROUTINE REQUIRES TWO ERASABLES (EBUF2, +1) IN UNSWITCHED WHICH ARE UNSHARED BY INTERRUPTS AND
000041:                                                                                                  #  OTHER EMEMORY PROGRAMS.
000042:
000043:                                                                                                  #  A + L ARE PRESERVED THROUGH BANKCALL AND E/BKCALL.
000044:
000045: 12,2000           52134        E/BKCALL           DXCH     BUF2                                  #  SAVE A,L AND GET DP RETURN.
000046: 12,2001           53332                           DXCH     EBUF2                                 #  SAVE DP RETURN.
000047: 12,2002           25331                           INCR     EBUF2                                 #  RETURN +1 BECAUSE DOUBLE CADR.
000048: 12,2003           30006                           CA       BBANK
000049: 12,2004           75053                           MASK     LOW10                                 #  GET CURRENT EBANK.  (SBANK SOMEDAY)
000050: 12,2005           27332                           ADS      EBUF2      +1                         #  FORM BBCON.  (WAS FBANK)
000051: 12,2006           51331                           NDX      EBUF2
000052: 12,2007           27777                           CA       0          -1                         #  GET CADR OF ROUTINE.
000053: 12,2010           04653                           TC       SWCALL                                #  GO TO ROUTINE, SETTING Q TO SWRETURN
000054:                                                                                                  #  AND RESTORING A + L.
000055: 12,2011           02015                           TC       +4                                    #  TX Q, V34, OR BAD STALL RETURN.
000056: 12,2012           02014                           TC       +2                                    #  PROCEED OR GOOD STALL RETURN.
000057: 12,2013           25331                           INCR     EBUF2                                 #  ENTER OR RECYCLE RETURN.
000058: 12,2014           25331                           INCR     EBUF2
000059: 12,2015           53332        E/SWITCH           DXCH     EBUF2
000060: 12,2016           52006                           DTCB
000061:
000062:                                                                                                  #  E/CALL        FOR CALLING A FIXED MEMORY INTERPRETIVE SUBROUTINE FROM ERASABLE AND RETURNING TO ERASABLE.
000063:
000064:                                                                                                  #  THE CALLING SEQUENCE IS...
000065:
000066:                                                                                                  #                RTB
000067:                                                                                                  #                        E/CALL
000068:                                                                                                  #                CADR    ROUTINE         THE INTERPRETIVE SUBROUTINE YOU WANT.
000069:                                                                                                  #                                        RETURNS HERE IN INTERPRETIVE.
000070:
000071: 12,2017           22164        E/CALL             LXCH     LOC                                   #  ADRES -1 OF CADR.
000072: 12,2020           50001                           INDEX    L
000073: 12,2021           30001                           CA       L                                     #  CADR IN A.
000074: 12,2022           24001                           INCR     L
000075: 12,2023           24001                           INCR     L                                     #  RETURN ADRES IN L.
000076: 12,2024           53332                           DXCH     EBUF2                                 #  STORE CADR AND RETURN.
000077: 12,2025           06006                           TC       INTPRET
000078: 12,2026           77624                           CALL
000079: 12,2027           01331                                    EBUF2                                 #  INDIRECTLY EXECUTE ROUTINE.  IT MUST
000080: 12,2030           77776                           EXIT                                           #  LEAVE VIA RVQ OR EQUIVALENT.
000081: 12,2031           23332                           LXCH     EBUF2      +1                         #  PICK UP RETURN.
000082: 12,2032           16010                           TCF      INTPRET    +2                         #  SET LOC AND RETURB TO CALLER
000083:
000084:                                                                                                  #  E/JOBWAK      FOR WAKING UP ERASABLE MEMORY JOBS.
000085:
000086:                                                                                                  #  THIS ROUTINE MUST BE CALLED IN INTERRUPT OR WITH INTERRUPTS INHIBITED.
000087:
000088:                                                                                                  #  THE CALLING SEQUENCE IS:
000089:
000090:                                                                                                  #                INHINT
000091:                                                                                                  #                  .
000092:                                                                                                  #                  .
000093:                                                                                                  #                CA      WAKEADR         ADDRESS OF SLEEPING JOB
000094:                                                                                                  #                TC      IBNKCALL
000095:                                                                                                  #                CADR    E/JOBWAK
000096:                                                                                                  #                  .                     RETURNS HERE
000097:                                                                                                  #                  .
000098:                                                                                                  #                  .
000099:                                                                                                  #                RELINT                  IF YOU DID AN INHINT.
000100:
000101: 12,2000                                           SETLOC   E/PROG
000102: 12,2000                                           BANK
000103:
000104: 12,2033                                           COUNT*   $$/P07
000105:
000106: 12,2033           05202        E/JOBWAK           TC       JOBWAKE                               #  ARRIVE IWTH ADRES IN A.
000107: 12,2034           44767                           CS       BIT11
000108: 12,2035           50064                           NDX      LOCCTR
000109: 12,2036           26164                           ADS      LOC                                   #  KNOCK FIXED MEMORY BIT OUT OF ADRES.
000110: 12,2037           00072                           TC       RUPTREG3                              #  RETURN
000111:
000112:
000113:                                                                                                  #  THESE PROGRAMS ARE PROVIDED TO ALLOW OVERLAY OF BANKS 30 THRU 33 OF THE 205 VERSIONS OF SYSTEM TESTS AND
000114:                                                                                                  #  PRELAUNCH ALIGN.  THE INTENT IS TO ALLOW THE STG AND HYBRID LABS TO RUN ALL THE TESTS WITH COLOSSUS.
000115:
000116:
000117: 33,2000                                           SETLOC   TESTLEAD
000118: 33,2000                                           BANK
000119:
000120: 33,2000                                           COUNT*   $$/COMST
000121: 33,2000  E5,1425                                  EBANK=   QPLACE
000122:
000123: 33,2000           03231        COMPVER            TC       GCOMPVER                              #  MUST BE 33,2000.
000124:
000125: 33,2001           02722        GTSCPSS1           TC       GTSCPSS                               #  MUST BE AT 33,2001

End of include-file SYSTEM_TEST_STANDARD_LEAD_INS.agc.  Parent file is MAIN.agc


