
Source Code


000002:                                                                                                  ## Copyright:   Public domain.
000003:                                                                                                  ## Filename:    T4RUPT_PROGRAM.agc
000004:                                                                                                  ## Purpose:     A section of Skylark revision 048.
000005:                                                                                                  ##              It is part of the source code for the Apollo Guidance Computer (AGC)
000006:                                                                                                  ##              for Skylab-2, Skylab-3, Skylab-4, and ASTP. No original listings of
000007:                                                                                                  ##              this software are available; instead, this file was created via
000008:                                                                                                  ##              disassembly of dumps of the core rope modules actually flown on
000009:                                                                                                  ##              Skylab-2. Access to these modules was provided by the New Mexico
000010:                                                                                                  ##              Museum of Space History.
000011:                                                                                                  ## Assembler:   yaYUL
000012:                                                                                                  ## Contact:     Ron Burkey <info@sandroid.org>.
000013:                                                                                                  ## Website:     www.ibiblio.org/apollo/index.html
000014:                                                                                                  ## Mod history: 2023-09-04 MAS  Created from Artemis 072.
000015:                                                                                                  ##              2024-03-05 MAS  Updated for Skylark 48.
000016:
000017:
000018: 06,2000                                           SETLOC   T4RUP
000019: 06,2000                                           BANK
000020:
000021: 06,2000                                           COUNT*   $$/T4RPT
000022: 06,2000           54016        T4RUPT             TS       BANKRUPT
000023: 06,2001           00006                           EXTEND
000024: 06,2002           22012                           QXCH     QRUPT
000025:
000026: 06,2003           11312                           CCS      DSRUPTSW                              #  GOES 3(-1)0 AROUND AND AROUND
000027: 06,2004           12010                           TCF      NORMT4     +1
000028: 06,2005           12007                           TCF      NORMT4
000029:
000030: 06,2006           12132                           TCF      QUIKDSP
000031:
000032: 06,2007           36214        NORMT4             CAF      THREE
000033: 06,2010           54070                           TS       RUPTREG1
000034: 06,2011           55312                           TS       DSRUPTSW
000035:
000036: 06,2012     7675               74K                =        HIGH4
000037:
000038:                                                                                                  #  RELTAB IS A PACKED TABLE. RELAYWORD CODE IN UPPER 4 BITS, RELAY CODE
000039:                                                                                                  #  IN LOWER 5 BITS.
000040:
000041:    4000                                           SETLOC   FFTAG12
000042:    4000                                           BANK
000043:    4063                                           COUNT*   $$/PIN
000044:    4063           04025        RELTAB             OCT      04025
000045:    4064           10003                           OCT      10003
000046:    4065           14031                           OCT      14031
000047:    4066           20033                           OCT      20033
000048:    4067           24017                           OCT      24017
000049:    4070           30036                           OCT      30036
000050:    4071           34034                           OCT      34034
000051:    4072           40023                           OCT      40023
000052:    4073           44035                           OCT      44035
000053:    4074           50037                           OCT      50037
000054:    4075           54000                           OCT      54000
000055:    4076           60000        RELTAB11           OCT      60000
000056:
000057:
000058:                                                                                                  #  SWITCHED-BANK PORTION.
000059:
000060: 06,2000                                           SETLOC   T4RUP
000061: 06,2000                                           BANK
000062:
000063: 06,2012                                           COUNT*   $$/T4RPT
000064: 06,2012           11231        CDRVE              CCS      DSPTAB     +11D
000065: 06,2013           02063                           TC       DSPOUT
000066: 06,2014           02063                           TC       DSPOUT
000067:
000068: 06,2015           57231                           XCH      DSPTAB     +11D
000069: 06,2016           74347                           MASK     LOW11
000070: 06,2017           55231                           TS       DSPTAB     +11D
000071: 06,2020           64076                           AD       RELTAB11
000072: 06,2021           00006                           EXTEND
000073: 06,2022           01010                           WRITE    OUT0
000074: 06,2023           02072                           TC       HANG20
000075:
000076:
000077:                                                                                                  #  DSPOUT PROGRAM. PUTS OUT DISPLAYS.
000078:
000079: 06,2024           55211        DSPOUTSB           TS       NOUT
000080: 06,2025           45003                           CS       ZERO
000081: 06,2026           54073                           TS       DSRUPTEM                              #  SET TO -0 FOR 1ST PASS THRU DSPTAB
000082: 06,2027           57171                           XCH      DSPCNT
000083: 06,2030           65002                           AD       NEG0                                  #  TO PREVENT +0
000084: 06,2031           55171                           TS       DSPCNT
000085: 06,2032           51171        DSPSCAN            INDEX    DSPCNT
000086: 06,2033           11216                           CCS      DSPTAB
000087: 06,2034           11171                           CCS      DSPCNT                                #  IF DSPTAB ENTRY +, SKIP
000088: 06,2035           12030                           TCF      DSPSCAN    -2                         #  IF DSPCNT +, AGAIN
000089: 06,2036           12047                           TCF      DSPLAY                                #  IF DSPTAB ENTRY -, DISPLAY
000090: 06,2037           22400        11,14,9            OCT      22400                                 #  CANNOT GET HERE
000091: 06,2040           10073                           CCS      DSRUPTEM                              #  IF DSRUPTEM=+0, 2ND PASS THRU DSPTAB
000092: 06,2041           37764        120MRUPT           DEC      16372      B-14                       #  (DSPCNT = 0). +0 INTO NOUT.
000093: 06,2042           55211                           TS       NOUT
000094: 06,2043           00002                           TC       Q
000095: 06,2044           54073                           TS       DSRUPTEM                              #  IF DSRUPTEM=-0, 1ST PASS THRU DSPTAB
000096: 06,2045           34355                           CAF      TABLNTH                               #  (DSPCNT=0). +0 INTO DSRUPTEM. PASS AGAIN
000097: 06,2046           12031                           TCF      DSPSCAN    -1
000098:
000099: 06,2047           65001        DSPLAY             AD       ONE
000100: 06,2050           51171                           INDEX    DSPCNT
000101: 06,2051           55216                           TS       DSPTAB                                #  REPLACE POSITIVELY
000102: 06,2052           74347                           MASK     LOW11                                 #  REMOVE BITS 12 TO 15
000103: 06,2053           54073                           TS       DSRUPTEM
000104: 06,2054           34344                           CAF      HI5
000105: 06,2055           51171                           INDEX    DSPCNT
000106: 06,2056           74063                           MASK     RELTAB                                #  PICK UP BITS 12 TO 15 OF RELTAB ENTRY
000107: 06,2057           60073                           AD       DSRUPTEM
000108: 06,2060           00006                           EXTEND
000109: 06,2061           01010                           WRITE    OUT0                                  #  WRITE CHANNEL 10
000110: 06,2062           16706                           TCF      Q+1                                   #  *** NORMAL RETURN SKIPS ONE
000111:
000112: 06,2063     5017               OCT54              EQUALS   LTHVACA
000113: 06,2063     4355               TABLNTH            EQUALS   BINCON                                #  DEC 10 LENGTH OF DSPTAB
000114: 06,2063           30101        DSPOUT             CA       FLAGWRD5
000115: 06,2064           74763                           MASK     DSKYBIT
000116: 06,2065           00006                           EXTEND
000117: 06,2066           12126                           BZF      NODSPOUT
000118: 06,2067           11211                           CCS      NOUT
000119: 06,2070           02024                           TC       DSPOUTSB
000120: 06,2071           12126                           TCF      NODSPOUT                              #  NO DISPLAY REQUESTS
000121: 06,2072           42037        HANG20             CS       11,14,9
000122: 06,2073           27312                           ADS      DSRUPTSW
000123:
000124: 06,2074           37663                           CAF      20MRUPT
000125: 06,2075           54027        SETTIME4           TS       TIME4
000126:
000127:                                                                                                  #  THE STATUS OF THE PROCEED PUSHBUTTON IS MONITORED EVERY 120 MILLISECONDS VIA THE CHANNEL 32 BIT 14 INBIT.
000128:                                                                                                  #  THE STATE OF THIS INBIT IS COMPARED WITH ITS STATE DURING THE PREVIOUS T4RUPT AND IS PROCESSED AS FOLLOWS.
000129:                                                                                                  #        IF PREV ON AND NOW ON    -   BYPASS
000130:                                                                                                  #        IF PREV ON AND NOW OFF   -   UPDATE IMODES33
000131:                                                                                                  #        IF PREV OFF AND NOW ON   -   UPDATE IMODES33 AND PROCESS VIA PINBALL
000132:                                                                                                  #        IF PREV OFF AND NOW OFF  -   BYPASS
000133:                                                                                                  #  THE LOGIC EMPLOYED REQUIRES ONLY 9 MCT (APPROX. 108 MICROSECONDS) OF COMPUTER TIME WHEN NO CHANGES OCCUR.
000134:
000135: 06,2076           31324        PROCEEDE           CA       IMODES33                              #  MONITIOR FOR PROCEED BUTTON
000136: 06,2077           00006                           EXTEND
000137: 06,2100           06032                           RXOR     CHAN32                                #  CHECK IF BIT 14 DIFFERENT
000138: 06,2101           74764                           MASK     PROCDBIT
000139: 06,2102           00006                           EXTEND
000140: 06,2103           12116                           BZF      T4JUMP                                #  NO CHANGE
000141:
000142: 06,2104           23324                           LXCH     IMODES33
000143: 06,2105           00006                           EXTEND
000144: 06,2106           06001                           RXOR     LCHAN
000145: 06,2107           55324                           TS       IMODES33                              #  UPDATE IMODES33
000146: 06,2110           74764                           MASK     PROCDBIT
000147: 06,2111           10000                           CCS      A
000148: 06,2112           12116                           TCF      T4JUMP                                #  WAS ON - NOW OFF
000149:
000150: 06,2113           05133                           TC       NOVAC30                               #  WAS OFF - NOW ON
000151: 06,2114     1172                                  EBANK=   DSPCOUNT
000152: 06,2114           03313 60102                     2CADR    PROCKEY
000153:
000154:                                                                                                  #  JUMP TO APPROPRIATE ONCE-PER SECOND (.96 SEC ACTUALLY) ACTIVITY
000155:
000156: 06,2116           50070        T4JUMP             INDEX    RUPTREG1
000157: 06,2117           12120                           TCF      +1
000158:
000159: 06,2120           12124                           TCF      OPTTEST
000160: 06,2121           13001                           TCF      OPTMON
000161: 06,2122           12124                           TCF      OPTTEST
000162: 06,2123           12167                           TCF      IMUMON
000163: 06,2124           04725        OPTTEST            TC       IBNKCALL
000164: 06,2125           20000                           CADR     OPTDRIVE
000165:
000166: 06,2126     7663               20MRUPT            =        OCT37776                              #  (DEC 16382)
000167: 06,2126           00006        NODSPOUT           EXTEND                                         #  TURN OFF RELAYS
000168: 06,2127           01010                           WRITE    OUT0
000169:
000170: 06,2130           32041                           CAF      120MRUPT                              #  SET FOR NEXT CDRVE
000171: 06,2131           12075                           TCF      SETTIME4
000172:
000173: 06,2132           34764        QUIKDSP            CAF      BIT14
000174: 06,2133           71312                           MASK     DSRUPTSW
000175: 06,2134           00006                           EXTEND
000176: 06,2135           12163                           BZF      QUIKOFF                               #  WROTE LAST TIME, NOW TURN OFF RELAYS.
000177:
000178: 06,2136           11211                           CCS      NOUT
000179: 06,2137           02024                           TC       DSPOUTSB
000180: 06,2140           12150                           TCF      NODSPY                                #  NOUT=0 OR BAD RETURN FROM DSPOUTSB
000181: 06,2141           44764                           CS       BIT14                                 #  GOOD RETURN (WE DISPLAYED SOMETHING)
000182: 06,2142           27312        QUIKRUPT           ADS      DSRUPTSW
000183:
000184: 06,2143           37663                           CAF      20MRUPT
000185: 06,2144           54027                           TS       TIME4
000186:
000187: 06,2145           34771                           CAF      BIT9
000188: 06,2146           27312                           ADS      DSRUPTSW
000189:
000190: 06,2147           05336                           TC       RESUME
000191:
000192: 06,2150           00006        NODSPY             EXTEND
000193: 06,2151           01010                           WRITE    OUT0
000194:
000195: 06,2152           37663        SYNCT4             CAF      20MRUPT
000196: 06,2153           26027                           ADS      TIME4
000197:
000198: 06,2154           34771                           CAF      BIT9
000199: 06,2155           27312                           ADS      DSRUPTSW
000200: 06,2156           11312                           CCS      DSRUPTSW
000201: 06,2157           05336                           TC       RESUME
000202: 06,2160           37737        OCT37737           OCT      37737
000203: 06,2161           02152                           TC       SYNCT4
000204: 06,2162           05336                           TC       RESUME
000205:
000206: 06,2163           00006        QUIKOFF            EXTEND
000207: 06,2164           01010                           WRITE    OUT0
000208: 06,2165           34764                           CAF      BIT14                                 #  RESET DSRUPTSW TO SEND DISPLAY NEXT PASS
000209: 06,2166           12142                           TCF      QUIKRUPT
000210:
000211:                                                                                                  #  PROGRAM NAME:  IMUMON
000212:
000213:                                                                                                  #  FUNCTIONAL DESCRIPTION:  THIS PROGRAM IS ENTERED EVERY 480 MS.  IT DETECTS CHANGES OF THE IMU STATUS BITS IN
000214:                                                                                                  #  CHANNEL 30 AND CALLS THE APPROPRIATE SUBROUTINES.  THE BITS PROCESSED AND THEIR RELEVANT SUBROUTINES ARE:
000215:
000216:                                                                                                  #        FUNCTION                BIT     SUBROUTINE CALLED
000217:                                                                                                  #        --------                ---     -----------------
000218:                                                                                                  #        TEMP IN LIMITS           15     TLIM
000219:                                                                                                  #        ISS TURN-ON REQUEST      14     ITURNON
000220:                                                                                                  #        IMU FAIL                 13     IMUFAIL (SETISSW)
000221:                                                                                                  #        IMU CDU FAIL             12     ICDUFAIL (SETISSW)
000222:                                                                                                  #        IMU CAGE                 11     IMUCAGE
000223:                                                                                                  #        IMU OPERATE               9     IMUOP
000224:
000225:                                                                                                  #           THE LAST SAMPLED STATE OF THESE BITS IS LEFT IN IMODES30.  ALSO, EACH SUBROUTINE CALLED FINDS THE NEW
000226:                                                                                                  #  VALUE OF THE BIT IN A, WITH Q SET TO THE PROPER RETURN LOCATION, NXTIFAIL.
000227:
000228:                                                                                                  #  CALLING SEQUENCE:  T4RUPT EVERY 480 MILLISECONDS.
000229:
000230:                                                                                                  #  JOBS OR TASKS INITIATED:  NONE.
000231:
000232:                                                                                                  #  SUBROUTINES CALLED:  TLIM, ITURNON, SETISSW, IMUCAGE, IMUOP.
000233:
000234:                                                                                                  #  ERASABLE INITIALIZATION:
000235:                                                                                                  #        FRESH START OR RESTART WITH NO GROUPS ACTIVE:  C(IMODES30) = OCT 37411.
000236:                                                                                                  #        RESTART WITH ACTIVE GROUPS:     C(IMODES30) = (B(IMODES30)AND(OCT 00035)) PLUS OCT 37400.
000237:                                                                                                  #                                        THIS LEAVES IMU FAIL BITS INTACT.
000238:
000239:                                                                                                  #  ALARMS:  NONE.
000240:
000241:                                                                                                  #  EXIT:  TNONTEST.
000242:
000243:                                                                                                  #  OUTPUT:  UPDATED IMODES30 WITH CHANGES PROCESSED BY APPROPRIATE SUBROUTINE.
000244:
000245: 06,2167           31323        IMUMON             CA       IMODES30                              #  SEE IF THERE HAS BEEN A CHANGE IN THE
000246: 06,2170           00006                           EXTEND                                         #  RELEVANT BITS OF CHAN 30.
000247: 06,2171           06030                           RXOR     CHAN30                                #  CHECK IF BITS 9,11-15 CHANGED
000248: 06,2172           72764                           MASK     30RDMSK
000249: 06,2173           00006                           EXTEND
000250: 06,2174           12224                           BZF      TNONTEST                              #  NO CHANGE IN STATUS.
000251:
000252: 06,2175           54070                           TS       RUPTREG1                              #  SAVE BITS WHICH HAVE CHANGED.
000253: 06,2176           23323                           LXCH     IMODES30                              #  UPDATE IMODES30.
000254: 06,2177           00006                           EXTEND
000255: 06,2200           06001                           RXOR     LCHAN
000256: 06,2201           55323                           TS       IMODES30
000257:
000258: 06,2202           45001                           CS       ONE
000259: 06,2203           56070                           XCH      RUPTREG1
000260: 06,2204           00006                           EXTEND
000261: 06,2205           62517                           BZMF     TLIM                                  #  CHANGE IN IMU TEMP.
000262: 06,2206           12210                           TCF      NXTIFBIT                              #  BEGIN BIT SCAN.
000263:
000264: 06,2207           65001                 -1        AD       ONE                                   #  (RE-ENTERS HERE FROM NXTIFAIL.)
000265: 06,2210           24070        NXTIFBIT           INCR     RUPTREG1                              #  ADVANCE BIT POSITION NUMBER.
000266: 06,2211           60000                 +1        DOUBLE
000267: 06,2212           54000                           TS       A                                     #  SKIP IF OVERFLOW.
000268: 06,2213           12210                           TCF      NXTIFBIT                              #  LOOK FOR BIT.
000269:
000270: 06,2214           56071                           XCH      RUPTREG2                              #  SAVE OVERFLOW-CORRECTED DATA.
000271: 06,2215           50070                           INDEX    RUPTREG1                              #  SELECT NEW VALUE OF THIS BIT.
000272: 06,2216           34764                           CAF      TONISSBT
000273: 06,2217           71323                           MASK     IMODES30
000274: 06,2220           50070                           INDEX    RUPTREG1
000275: 06,2221           02760                           TC       IFAILJMP
000276:
000277: 06,2222           10071        NXTIFAIL           CCS      RUPTREG2                              #  PROCESS ANY ADDITIONAL CHANGES.
000278: 06,2223           12207                           TCF      NXTIFBIT   -1
000279:
000280:                                                                                                  #  PROGRAM NAME:  TNONTEST.
000281:
000282:                                                                                                  #  FUNCTIONAL DESCRIPTION:  THIS PROGRAM HONORS REQUESTS FOR ISS INITIALIZATION.  ISS TURN-ON (CHANNEL 30 BIT 14)
000283:                                                                                                  #  AND ISS OPERATE (CHANNEL 30 BIT 9) REQUESTS ARE TREATED AS A PAIR AND PROCESSING TAKES PLACE .480 SECONDS
000284:                                                                                                  #  AFTER EITHER ONE APPEARS.  THIS INITIALIZATION TAKES ON ONE OF THE FOLLOWING THREE FORMS:
000285:
000286:                                                                                                  #        1) ISS TURN-ON:  IN THIS SITUATION THE COMPUTER IS OPERATING WHEN THE ISS IS TURNED ON.  NOMINALLY,
000287:                                                                                                  #        BOTH ISS TURN-ON AND ISS OPERATE APPEAR.  THE PLATFORM IS CAGED FOR 90 SECONDS AND THE ICDU'S ZEROED
000288:                                                                                                  #        SO THAT AT THE END OF THE PROCESS THE GIMBAL LOCK MONITOR WILL FUNCTION PROPERLY.
000289:
000290:                                                                                                  #        2) ICDU INITIALIZATION:  IN THIS CASE THE COMPUTER WAS PROBABLY TURNED ON WITH THE ISS IN OPERATE OR
000291:                                                                                                  #        A FRESH START WAS DONE WITH THE ISS IN OPERATE.  IN THIS CASE ONLY ISS OPERATE IS ON.  THE ICDU'S ARE
000292:                                                                                                  #        ZEROED SO THE GIMBAL LOCK MONITOR WILL FUNCTION.  AN EXCEPTION IS IF THE ISS IS IN GIMBAL LOCK AFTER
000293:                                                                                                  #        A RESTART, THE ICDU'S WILL NOT BE ZEROED.
000294:
000295:                                                                                                  #        3) RESTART WITH RESTARTABLE PROGRAM USING THE IMU:  IN THIS CASE, NO INITIALIZATION TAKES PLACE SINCE
000296:                                                                                                  #        IT IS ASSUMED THAT THE USING PROGRAM DID THE INITIALIZATION AND THEREFORE T4RUPT SHOULD NOT INTERFERE.
000297:
000298:                                                                                                  #  IMODES30 BIT 7 IS SET = 1 BY THE FIRST BIT (CHANNEL 30 BIT 14 OR 9) WHICH ARRIVES.  FOLLOWING THIS. TNONTEST IS
000299:                                                                                                  #  ENTERED, FINDS BIT 7 = 1 BUT BIT 8 = 0, SO IT SETS BIT 8 = 1 AND EXITS.  THE NEXT TIME IT FINDS BIT 8 = 1 AND
000300:                                                                                                  #  PROCEEDS, SETTING BITS 8 AND 7 = 0.  AT PROCTNON, IF ISS TURN-ON REQUEST IS PRESENT, THE ISS IS CAGED (ZERO +
000301:                                                                                                  #  COARSE).  IF ISS OPERATE IS NOT PRESENT PROGRAM ALARM 00213 IS ISSUED.  AT THE END OF A 90 SECOND CAGE, BIT 2
000302:                                                                                                  #  OF IMODES30 IS TESTED.  IF IT IS = 1, ISS TURN-ON WAS NOT PRESENT FOR THE ENTIRE 90 SECONDS.  IN THAT CASE, IF
000303:                                                                                                  #  THE ISS TURN-ON REQUEST IS PRESENT THE 90 SECOND WAIT IS REPEATED,  OTHERWISE NO ACTION OCCURS UNLESS A PROGRAM
000304:                                                                                                  #  WAS WAITING FOR THE INITIALIZATION IN WHICH CASE THE PROGRAM IS GIVEN AN IMUSTALL ERROR RETURN.  IF THE DELAY
000305:                                                                                                  #  WENT PROPERLY, THE ISS DELAY OUTBIT IS SENT AND THE ICDU'S ZEROED.  A TASK IS INITIATED TO REMOVE THE PIPA FAIL
000306:                                                                                                  #  INHIBIT BIT IN 10.24 SECONDS.  IF A MISSION PROGRAM WAS WAITING IT IS INFORMED VIA ENDIMU.
000307:
000308:                                                                                                  #  AT PROCTNON, IF ONLY ISS OPERATE IS PRESENT (OPONLY), THE CDU'S ARE ZEROED UNLESS THE PLATFORM IS IN COARSE
000309:                                                                                                  #  ALIGN (= GIMBAL LOCK HERE) OR A MISSION PROGRAM IS USING THE IMU (IMUSEFLG = 1).
000310:
000311:                                                                                                  #  CALLING SEQUENCE:  T4RUPT EVERY 480 MILLISECONDS AFTER IMUMON.
000312:
000313:                                                                                                  #  JOBS OR TASKS INITIATED:  1) ENDTNON, 90 SECONDS AFTER CAGING STARTED.  2) ISSUP, 4 SECONDS AFTER CAGING DONE.
000314:                                                                                                  #        3) PFAILOK, 10.24 SECONDS AFTER INITIALIZATION COMPLETED.  4) UNZ2, 320 MILLISECONDS AFTER ZEROING
000315:                                                                                                  #        STARTED.
000316:
000317:                                                                                                  #  SUBROUTINES CALLED: CAGESUB, CAGESUB2, ZEROICDU, ENDIMU, IMUBAD, NOATTOFF, SETISSW, VARDELAY.
000318:
000319:                                                                                                  #  ERASABLE INITIALIZATION:  SEE IMUMON.
000320:
000321:                                                                                                  #  ALARMS:  PROGRAM ALARM 00213 IF ISS TURN-ON REQUESTED WITHOUT ISS OPERATE.
000322:
000323:                                                                                                  #  EXIT:  ENDTNON EXITS TO C33TEST.  TASKS HAVING TO DO WITH INITIALIZATION EXIT AS FOLLOWS:  MISSION PROGRAM
000324:                                                                                                  #  WAITING AND INITIALIZATION COMPLETE, EXIT TO ENDIMU, MISSION PROGRAM WAITING AND INITIALIZATION FAILED, EXIT TO
000325:                                                                                                  #  IMUBAD, IMU NOT IN USE, EXIT TO TASKOVER.
000326:
000327:                                                                                                  #  OUTPUT:  ISS INITIALIZED.
000328:
000329: 06,2224           41323        TNONTEST           CS       IMODES30                              #  AFTER PROCESSING ALL CHANGES, SEE IF IT
000330: 06,2225           74773                           MASK     ITNON1BT                              #  IS TIME TO ACT ON TURN-ON REQUEST
000331: 06,2226           10000                           CCS      A
000332: 06,2227           12366                           TCF      C33TEST                               #  NO - EXAMINE CHANNEL 33.
000333:
000334: 06,2230           34772                           CAF      ITNON2BT                              #  SEE IF FIRST OR 2ND SAMPLE
000335: 06,2231           71323                           MASK     IMODES30
000336: 06,2232           10000                           CCS      A
000337: 06,2233           12237                           TCF      PROCTNON                              #  REACT AFTER SECOND SAMPLE.
000338:
000339: 06,2234           34772                           CAF      ITNON2BT                              #  IF FIRST SAMPLE, SET BIT TO REACT
000340: 06,2235           27323                           ADS      IMODES30                              #  TIME.
000341: 06,2236           12366                           TCF      C33TEST
000342:
000343:                                                                                                  #  PROCESS IMU TURN-ON REQUESTS AFTER WAITING 1 SAMPLE FOR ALL SIGNALS TO ARRIVE.
000344:
000345: 06,2237           34772        PROCTNON           CA       ITNON2BT
000346: 06,2240           64773                           AD       ITNON1BT
000347: 06,2241           40000                           COM
000348: 06,2242           71323                           MASK     IMODES30
000349: 06,2243           55323                           TS       IMODES30
000350: 06,2244           74764                           MASK     TONISSBT                              #  SEE IF TURN-ON REQUEST
000351: 06,2245           10000                           CCS      A
000352: 06,2246           12342                           TCF      OPONLY                                #  OPERATE ON ONLY.
000353:
000354: 06,2247           41323                           CS       IMODES30                              #  IF TURN-ON REQUEST, WE SHOULD HAVE IMU
000355: 06,2250           74771                           MASK     IMUOPBIT                              #  OPERATE.
000356: 06,2251           10000                           CCS      A
000357: 06,2252           12255                           TCF      +3
000358:
000359: 06,2253           05644                           TC       ALARM                                 #  ALARM IF NOT.
000360: 06,2254           00213                           OCT      213
000361:
000362: 06,2255           02740                 +3        TC       CAGESUB
000363:
000364: 06,2256           33665                           CAF      90SECS
000365: 06,2257           05246                           TC       WAITLIST
000366: 06,2260  E3,1474                                  EBANK=   CDUIND
000367: 06,2260           02265 14063                     2CADR    ENDTNON
000368:
000369: 06,2262           12366                           TCF      C33TEST
000370:
000371: 06,2263           33665        RETNON             CAF      90SECS
000372: 06,2264           05273                           TC       VARDELAY
000373:
000374: 06,2265           45000        ENDTNON            CS       DLAYFAIL                              #  RESET TURN-ON REQUEST FAILBIT
000375: 06,2266           71323                           MASK     IMODES30
000376: 06,2267           57323                           XCH      IMODES30
000377: 06,2270           75000                           MASK     DLAYFAIL                              #  IF IT WAS OFF, SEND ISS DELAY COMPLETE
000378: 06,2271           00006                           EXTEND
000379: 06,2272           12305                           BZF      ENDTNON2
000380: 06,2273           34764                           CAF      TONISSBT                              #  IF IT WAS ON AND TURN-ON REQUEST NOW
000381: 06,2274           71323                           MASK     IMODES30                              #  PRESENT, RE-ENTER 90 SEC DELAY IN WL.
000382: 06,2275           00006                           EXTEND
000383: 06,2276           12263                           BZF      RETNON
000384:
000385: 06,2277           40074                           CS       FLAGWRD0                              #  IF IT IS NOT ON NOW, SEE IF A PROG WAS
000386: 06,2300           74772                           MASK     IMUSEFLG                              #  WAITING.
000387: 06,2301           10000                           CCS      A
000388: 06,2302           15327                           TCF      TASKOVER
000389: 06,2303           04666                           TC       POSTJUMP
000390: 06,2304           17556                           CADR     IMUBAD                                #  UNSUCCESSFUL TURN-ON.
000391:
000392: 06,2305           34763        ENDTNON2           CAF      BIT15                                 #  SEND ISS DELAY COMPLETE.
000393: 06,2306           00006                           EXTEND
000394: 06,2307           05012                           WOR      CHAN12                                #  TURN OFF ISS DELAY COUNTER
000395: 06,2310           04725                           TC       IBNKCALL                              #  TURN OFF NO ATT LAMP.
000396: 06,2311           17140                           CADR     NOATTOFF
000397:
000398: 06,2312           05524        UNZ2               TC       ZEROICDU
000399:
000400: 06,2313           45012                           CS       BITS4&5                               #  REMOVE ZERO AND COARSE.
000401: 06,2314           00006                           EXTEND
000402: 06,2315           03012                           WAND     CHAN12
000403:
000404: 06,2316           35040                           CAF      7.9SEC                                #  WAIT 7.9 SEC FOR CTRS TO FIND GIMBALS
000405: 06,2317           05273                           TC       VARDELAY
000406:
000407: 06,2320           34774        ISSUP              CA       IMUNITBT
000408: 06,2321           64776                           AD       IMUFINHT
000409: 06,2322           64777                           AD       ICDUINHT
000410: 06,2323           40000                           COM                                            #  REMOVE CAGING, IMUFAIL INHIBIT, AND
000411: 06,2324           71323                           MASK     IMODES30                              #  ICDUFAIL INHIBIT FLAGS.
000412: 06,2325           55323                           TS       IMODES30
000413:
000414: 06,2326           44774                           CS       NOIMUDAP                              #  ENABLE DAP
000415: 06,2327           71324                           MASK     IMODES33
000416: 06,2330           55324                           TS       IMODES33
000417:
000418: 06,2331           02706                           TC       SETISSW                               #  ISS WARNING MIGHT HAVE BEEN INHIBITED.
000419:
000420: 06,2332           44763                           CS       BIT15                                 #  REMOVE IMU DELAY COMPLETE DISCRETE.
000421: 06,2333           00006                           EXTEND
000422: 06,2334           03012                           WAND     CHAN12
000423:
000424: 06,2335           35033                           CAF      4SECS                                 #  DONT ENABLE PROG ALARM ON PIP FAIL FOR
000425: 06,2336           05246                           TC       WAITLIST                              #  ANOTHER 4 SECS.
000426: 06,2337  E3,1474                                  EBANK=   CDUIND
000427: 06,2337           03126 16063                     2CADR    PFAILOK
000428: 06,2341           15327                           TCF      TASKOVER
000429:
000430: 06,2342           34776        OPONLY             CAF      BIT4
000431: 06,2343           00006                           EXTEND                                         #  IF OPERATE ON ONLY AND WE ARE IN COARSE
000432: 06,2344           02012                           RAND     CHAN12                                #  ALIGN, DONT ZERO THE CDUS BECAUSE WE
000433: 06,2345           10000                           CCS      A                                     #  MIGHT BE IN GIMBAL LOCK. USE V41N20 TO
000434: 06,2346           12366                           TCF      C33TEST                               #  RECOVER.
000435:
000436: 06,2347           34772                           CAF      IMUSEFLG                              #  OTHERWISE, ZERO THE COUNTERS
000437: 06,2350           70074                           MASK     STATE                                 #  UNLESS SOMEONE IS USING THE IMU.
000438: 06,2351           10000                           CCS      A
000439: 06,2352           12366                           TCF      C33TEST
000440:
000441: 06,2353           02751                           TC       CAGESUB2                              #  SET TURNON FLAGS.
000442:
000443: 06,2354           04725        ISSZERO            TC       IBNKCALL                              #  TURN OFF NO ATT LAMP
000444: 06,2355           17140                           CADR     NOATTOFF                              #      IMU CAGE OFF ENTRY
000445:
000446: 06,2356           34775                           CAF      BIT5                                  #  ISS CDU ZERO
000447: 06,2357           00006                           EXTEND
000448: 06,2360           05012                           WOR      CHAN12
000449:
000450: 06,2361           05524                           TC       ZEROICDU
000451: 06,2362           34774                           CAF      BIT6                                  #  WAIT 300 MS FOR AGS TO RECEIVE SIGNAL.
000452: 06,2363           05236                           TC       TWIDDLE
000453: 06,2364           02312                           ADRES    UNZ2
000454: 06,2365           12366                           TCF      C33TEST
000455:
000456:                                                                                                  #  PROGRAM NAME:  C33TEST
000457:
000458:                                                                                                  #  FUNCTIONAL DESCRIPTION:  THIS PROGRAM MONITORS THREE FLIP-FLOP INBITS OF CHANNEL 33 AND CALLS THE APPROPRIATE
000459:                                                                                                  #  SUBROUTINE TO PROCESS A CHANGE.  IT IS ANALOGOUS TO IMUMON, WHICH MONITORS CHANNEL 30, EXCEPT THAT IT READS
000460:                                                                                                  #  CHANNEL 33 WITH A WAND INSTRUCTION BECAUSE A 'WRITE' PULSE IS REQUIRED TO RESET THE FLIP-FLOPS.  THE BITS
000461:                                                                                                  #  PROCESSED AND THE SUBROUTINES CALLED ARE:
000462:
000463:                                                                                                  #        BIT     FUNCTION                SUBROUTINE
000464:                                                                                                  #        ---     --------                ----------
000465:                                                                                                  #         13     PIPA FAIL               PIPFAIL
000466:                                                                                                  #         12     DOWNLINK TOO FAST       DNTMFAST
000467:                                                                                                  #         11     UPLINK TOO FAST         UPTMFAST
000468:
000469:                                                                                                  #  UPON ENTRY TO THE SUBROUTINE, THE NEW BIT STATE IS IN A.
000470:
000471:                                                                                                  #  CALLING SEQUENCE:  EVERY 480 MILLISECONDS AFTER TNONTEST.
000472:
000473:                                                                                                  #  JOBS OR TASKS INITIATED:  NONE.
000474:
000475:                                                                                                  #  SUBROUTINES CALLED:  PIPFAIL, DNTMFAST AND UPTMFAST ON BIT CHANGES.
000476:
000477:                                                                                                  #  ERASABLE INITIALIZATION:  C(IMODES33) = OCT 16000 ON A FRESH START OR RESTART, THEREFORE, THESE ALARMS WILL
000478:                                                                                                  #  REAPPEAR IF THE CONDITIONS PERSIST.
000479:
000480:                                                                                                  #  ALARMS:  NONE.
000481:
000482:                                                                                                  #  EXIT:  GLOCKMON.
000483:
000484:                                                                                                  #  OUTPUT:  UPDATED BITS 13, 12 AND 11 OF IMODES33 WITH CHANGES PROCESSED.
000485:
000486: 06,2366           31324        C33TEST            CA       IMODES33                              #  SEE IF RELEVANT CHAN33 BITS HAVE
000487: 06,2367           75067                           MASK     33RDMSK
000488: 06,2370           54001                           TS       L                                     #  CHANGED.
000489: 06,2371           35067                           CAF      33RDMSK
000490: 06,2372           00006                           EXTEND
000491: 06,2373           03033                           WAND     CHAN33                                #  RESETS FLIP-FLOP INPUTS.
000492: 06,2374           00006                           EXTEND
000493: 06,2375           06001                           RXOR     LCHAN
000494: 06,2376           00006                           EXTEND
000495: 06,2377           12426                           BZF      GLOCKMON                              #  ON NO CHANGE.
000496:
000497: 06,2400           54070                           TS       RUPTREG1                              #  SAVE BITS WHICH HAVE CHANGED.
000498: 06,2401           23324                           LXCH     IMODES33
000499: 06,2402           00006                           EXTEND
000500: 06,2403           06001                           RXOR     LCHAN
000501: 06,2404           55324                           TS       IMODES33                              #  UPDATED IMODES33.
000502:
000503: 06,2405           35003                           CAF      ZERO
000504: 06,2406           56070                           XCH      RUPTREG1
000505: 06,2407           60000                           DOUBLE
000506: 06,2410           12413                           TCF      NXTIBT     +1                         #  SCAN FOR BIT CHANGES.
000507:
000508: 06,2411           65001                 -1        AD       ONE
000509: 06,2412           24070        NXTIBT             INCR     RUPTREG1
000510: 06,2413           60000                 +1        DOUBLE
000511: 06,2414           54000                           TS       A                                     #  (CODING IDENTICAL TO CHAN 30).
000512: 06,2415           12412                           TCF      NXTIBT
000513:
000514: 06,2416           56071                           XCH      RUPTREG2
000515: 06,2417           50070                           INDEX    RUPTREG1                              #  GET NEW VALUE OF BIT WHICH CHANGED.
000516: 06,2420           34765                           CAF      PIP2FLBT
000517: 06,2421           71324                           MASK     IMODES33
000518: 06,2422           50070                           INDEX    RUPTREG1
000519: 06,2423           02766                           TC       C33JMP
000520:
000521: 06,2424           10071        NXTFL33            CCS      RUPTREG2                              #  PROCESS POSSIBLE ADDITIONAL CHANGES.
000522: 06,2425           12411                           TCF      NXTIBT     -1
000523:
000524:                                                                                                  #  PROGRAM NAME:  GLOCKMON
000525:
000526:                                                                                                  #  FUNCTIONAL DESCRIPTION:  THIS PROGRAM MONITORS THE CDUZ COUNTER TO DETERMINE WHETHER THE ISS IS IN GIMBAL LOCK
000527:                                                                                                  #  AND TAKES ACTION IF IT IS.  THREE REGIONS OF MIDDLE GIMBAL ANGLE (MGA) ARE USED:
000528:
000529:                                                                                                  #        1) ABS(MGA) LESS THAN OR EQUAL TO 70 DEGREES - NORMAL MODE.
000530:                                                                                                  #        2) ABS(MGA) GREATER THAN 70 DEGREES AND LESS THAN OR EQUAL TO 85 DEGREES - GIMBAL LOCK LAMP TURNED ON.
000531:                                                                                                  #        3) ABS(MGA) GREATER THAN 85 DEGREES - ISS PUT IN COARSE ALIGN AND NO ATT LAMP TURNED ON.
000532:
000533:                                                                                                  #  CALLING SEQUENCE:  EVERY 480 MILLISECONDS AFTER C33TEST.
000534:
000535:                                                                                                  #  JOBS OR TASKS INITIATED:  NONE.
000536:
000537:                                                                                                  #  SUBROUTINES CALLED:   1) SETCOARS WHEN ABS(MGA) GREATER THAN 85 DEGREES AND ISS NOT IN COARSE ALIGN.
000538:                                                                                                  #                        2) LAMPTEST BEFORE TURNING OFF GIMBAL LOCK LAMP.
000539:
000540:                                                                                                  #  ERASABLE INITIALIZATION:
000541:                                                                                                  #                1) FRESH START OR RESTART WITH NO GROUPS ACTIVE:  C(CDUZ) = 0, IMODES30 BIT 6 = 0, IMODES33 BIT 1 = 0.
000542:                                                                                                  #                2) RESTART WITH GROUPS ACTIVE:  SAME AS FRESH START EXCEPT C(CDUZ) NOT CHANGED SO GIMBAL MONITOR
000543:                                                                                                  #                                                PROCEEDS AS BEFORE.
000544:
000545:                                                                                                  #  ALARMS:       1) MGA REGION (2) CAUSES GIMBAL LOCK LAMP TO BE LIT.
000546:                                                                                                  #                2) MGA REGION (3) CAUSES THE ISS TO BE PUT IN COARSE ALIGN AND THE NO ATT LAMP TO BE LIT IF EITHER NOT
000547:                                                                                                  #                   SO ALREADY.
000548:
000549: 06,2426           10034        GLOCKMON           CCS      CDUZ
000550: 06,2427           12433                           TCF      GLOCKCHK                              #  SEE IF MAGNITUDE OF MGA IS GREATER THAN
000551: 06,2430           12471                           TCF      SETGLOCK                              #  70 DEGREES.
000552: 06,2431           12433                           TCF      GLOCKCHK
000553: 06,2432           12471                           TCF      SETGLOCK
000554:
000555: 06,2433           62516        GLOCKCHK           AD       -70DEGS
000556: 06,2434           00006                           EXTEND
000557: 06,2435           62470                           BZMF     SETGLOCK   -1                         #  NO LOCK.
000558:
000559: 06,2436           63554                           AD       -15DEGS                               #  SEE IF ABS(MGA) GREATER THAN 85 DEGS.
000560: 06,2437           00006                           EXTEND
000561: 06,2440           62466                           BZMF     NOGIMRUN
000562:
000563: 06,2441           34776                           CAF      BIT4                                  #  IF SO, SYSTEM SHOULD BE IN COARSE ALIGN
000564: 06,2442           00006                           EXTEND                                         #  TO PREVENT GIMBAL RUN-AWAY.
000565: 06,2443           02012                           RAND     CHAN12
000566: 06,2444           10000                           CCS      A
000567: 06,2445           12466                           TCF      NOGIMRUN
000568:
000569: 06,2446  E6,1514                                  EBANK=   DAPDATR1
000570: 06,2446           35057                           CAF      EBANK6
000571: 06,2447           54003                           TS       EBANK
000572: 06,2450           41514                           CS       DAPDATR1
000573: 06,2451           74346                           MASK     PRIO30
000574: 06,2452           10000                           CCS      A
000575: 06,2453           12460                           TCF      CALLCRS                               #  NO
000576:
000577: 06,2454           35001                           CAF      AVEGBIT                               #  YES, IS AVEG ON
000578: 06,2455           70075                           MASK     FLAGWRD1
000579: 06,2456           10000                           CCS      A
000580: 06,2457           12466                           TCF      NOGIMRUN                              #  YES, DON'T COARSE ALIGN
000581:
000582: 06,2460           04725        CALLCRS            TC       IBNKCALL                              #  GO INTO COARSE ALIGN
000583: 06,2461           17021                           CADR     SETCOARS
000584:
000585: 06,2462           36211                           CAF      SIX                                   #  ENABLE ISS ERROR COUNTERS IN 60 MS
000586: 06,2463           05246                           TC       WAITLIST
000587: 06,2464  E3,1474                                  EBANK=   CDUIND
000588: 06,2464           03015 16063                     2CADR    CA+ECE
000589:
000590: 06,2466           34774        NOGIMRUN           CAF      BIT6                                  #  TURN ON GIMBAL LOCK LAMP.
000591: 06,2467           12471                           TCF      SETGLOCK
000592:
000593: 06,2470           35003                 -1        CAF      ZERO
000594: 06,2471           61231        SETGLOCK           AD       DSPTAB     +11D                       #  SEE IF PRESENT STATE OF GIMBAL LOCK LAMP
000595: 06,2472           74774                           MASK     BIT6                                  #  AGREES WITH DESIRED STATE BY HALF ADDING
000596: 06,2473           00006                           EXTEND                                         #  THE TWO.
000597: 06,2474           15336                           BZF      GLOCKOK                               #  OK AS IS.
000598:
000599: 06,2475           71231                           MASK     DSPTAB     +11D                       #  IF OFF, DONT TURN ON IF IMU BEING CAGED.
000600: 06,2476           10000                           CCS      A
000601: 06,2477           12513                           TCF      GLAMPTST                              #  TURN OFF UNLESS LAMP TEST IN PROGRESS.
000602:
000603: 06,2500           34774                           CAF      IMUNITBT
000604: 06,2501           71323                           MASK     IMODES30
000605: 06,2502           10000                           CCS      A
000606: 06,2503           15336                           TCF      GLOCKOK
000607:
000608: 06,2504           41231        GLINVERT           CS       DSPTAB     +11D                       #  INVERT GIMBAL LOCK LAMP.
000609: 06,2505           74774                           MASK     BIT6
000610: 06,2506           64763                           AD       BIT15                                 #  TO INDICATE CHANGE IN DSPTAB +11D.
000611: 06,2507           57231                           XCH      DSPTAB     +11D
000612: 06,2510           72160                           MASK     OCT37737
000613: 06,2511           27231                           ADS      DSPTAB     +11D
000614: 06,2512           15336                           TCF      GLOCKOK
000615:
000616: 06,2513           02771        GLAMPTST           TC       LAMPTEST                              #  TURN OFF UNLESS LAMP TEST IN PROGRESS.
000617: 06,2514           15336                           TCF      GLOCKOK
000618: 06,2515           12504                           TCF      GLINVERT
000619:
000620: 06,2516           63434        -70DEGS            DEC      -.38888                               #  -70 DEGREES SCALED IN HALF-REVOLUTIONS.
000621: 06,2517  06,3554               -15DEGS            EQUALS   OCT75252                              #  SAME AS -.08333 DEC
000622:
000623:                                                                                                  #  PROGRAM NAME:  TLIM.
000624:
000625:                                                                                                  #  FUNCTIONAL DESCRIPTION:  THIS PROGRAM MAINTAINS THE TEMP LAMP (BIT 4 OF CHANNEL 11) ON THE DSKY TO AGREE WITH
000626:                                                                                                  #  THE TEMP SIGNAL FROM THE ISS (BIT 15 OF CHANNEL 30).  HOWEVER, THE LIGHT WILL NOT BE TURNED OFF IF A LAMP TEST
000627:                                                                                                  #  IS IN PROGRESS.
000628:
000629:                                                                                                  #  CALLING SEQUENCE:  CALLED BY IMUMON ON A CHANGE OF BIT 15 OF CHANNEL 30.
000630:
000631:                                                                                                  #  JOBS OR TASKS INITIATED:  NONE.
000632:
000633:                                                                                                  #  SUBROUTINES CALLED:  LAMPTEST.
000634:
000635:                                                                                                  #  ERASABLE INITIALIZATION:  FRESH START AND RESTART TURN THE TEMP LAMP OFF.
000636:
000637:                                                                                                  #  ALARMS:  TEMP LAMP TURNED ON WHEN IMU TEMP GOES OUT OF LIMITS.
000638:
000639:                                                                                                  #  EXIT:  NXTIFAIL.
000640:
000641:                                                                                                  #  OUTPUT:  SERVICE OF TEMP LAMP.                  IN A, EXCEPT FOR TLIM.
000642:
000643: 06,2517           74761        TLIM               MASK     POSMAX                                #  REMOVE BIT FROM WORD OF CHANGES AND SET
000644: 06,2520           54071                           TS       RUPTREG2                              #  DSKY TEMP LAMP ACCORDINGLY.
000645:
000646: 06,2521           31323                           CA       IMODES30
000647: 06,2522           74763                           MASK     TLIMBIT
000648: 06,2523           00006                           EXTEND
000649: 06,2524           12531                           BZF      TEMPOK
000650:
000651: 06,2525           34776                           CAF      BIT4                                  #  TURN ON LAMP.
000652: 06,2526           00006                           EXTEND
000653: 06,2527           05011                           WOR      DSALMOUT
000654: 06,2530           12222                           TCF      NXTIFAIL
000655:
000656: 06,2531           02771        TEMPOK             TC       LAMPTEST                              #  IF TEMP NOW OK, DONT TURN OFF LAMP IF
000657: 06,2532           12222                           TCF      NXTIFAIL                              #  LAMP TEST IN PROGRESS.
000658:
000659: 06,2533           44776                           CS       BIT4
000660: 06,2534           00006                           EXTEND
000661: 06,2535           03011                           WAND     DSALMOUT                              #  TURN OFF TEMP CAUTION
000662: 06,2536           12222                           TCF      NXTIFAIL
000663:
000664:                                                                                                  #  PROGRAM NAME:  ITURNON.
000665:
000666:                                                                                                  #  FUNCTIONAL DESCRIPTION:  THIS PROGRAM IS CALLED BY IMUMON WHEN A CHANGE OF BIT 14 OF CHANNEL 30 (ISS TURN-ON
000667:                                                                                                  #  REQUEST) IS DETECTED.  UPON ENTRY, ITURNON CHECKS IF A TURN-ON DELAY SEQUENCE HAS FAILED, AND IF SO, IT EXITS.
000668:                                                                                                  #  IF NOT, IT CHECKS WHETHER THE TURN-ON REQUEST CHANGE IS TO ON OR OFF.  IF ON, IT SETS BIT 7 OF IMODES30 TO 1 SO
000669:                                                                                                  #  THAT TNONTEST WILL INITIATE THE ISS INITIALIZATION SEQUENCE.  IF OFF, THE TURN-ON DELAY SIGNAL, CHANNEL 12 BIT
000670:                                                                                                  #  15, IS CHECKED AND IF IT IS ON, ITURNON EXITS.  IF THE DELAY SIGNAL IS OFF, PROGRAM ALARM 00207 IS ISSUED, BIT 2
000671:                                                                                                  #  OF IMODES30 IS SET TO 1 AND THE PROGRAM EXITS.
000672:
000673:                                                                                                  #  THE SETTING OF BIT 2 OF IMODES30 (ISS DELAY SEQUENCE FAIL) INHIBITS THIS ROUTINE AND IMUOP FROM
000674:                                                                                                  #  PROCESSING ANY CHANGES.  THIS BIT WILL BE RESET BY THE ENDTNON ROUTINE WHEN THE CURRENT 90 SECOND DELAY PERIOD
000675:                                                                                                  #  ENDS.
000676:
000677:                                                                                                  #  CALLING SEQUENCE:  FROM IMUMOM WHEN ISS TURN-ON REQUEST CHANGES STATE.
000678:
000679:                                                                                                  #  JOBS OR TASKS INITIATED:  NONE.
000680:
000681:                                                                                                  #  SUBROUTINES CALLED:  ALARM, IF THE ISS TURN-ON REQUEST IS NOT PRESENT FOR 90 SECONDS.
000682:
000683:                                                                                                  #  ERASABLE INITIALIZATION:  FRESH START AND RESTART SET BIT 15 OF CHANNEL 12 AND BITS 2 AND 7 OF IMODES30 TO 0,
000684:                                                                                                  #  AND BIT 14 OF IMODES30 TO 1.
000685:
000686:                                                                                                  #  ALARMS: PROGRAM ALARM 00207 IS ISSUED IF THE ISS TURN-ON REQUEST SIGNAL IS NOT PRESENT FOR 90 SECONDS.
000687:
000688:                                                                                                  #  EXIT:  NXTIFAIL.
000689:
000690:                                                                                                  #  OUTPUT:  BIT 7 OF IMODES30 TO START ISS INITIALIZATION, OR BIT 2 OF IMODES30 AND PROGRAM ALARM 00207 TO INDICATE
000691:                                                                                                  #  A FAILED TURN-ON SEQUENCE.
000692:
000693: 06,2537           35000        ITURNON            CAF      DLAYFAIL                              #  IF DELAY REQUEST HAS GONE OFF
000694: 06,2540           71323                           MASK     IMODES30                              #  PREMATURELY, DO NOT PROCESS ANY CHANGES
000695: 06,2541           10000                           CCS      A                                     #  UNTIL THE CURRENT 90 SEC WAIT EXPIRES.
000696: 06,2542           12222                           TCF      NXTIFAIL
000697:
000698: 06,2543           34764                           CAF      TONISSBT                              #  SEE IF JUST ON OR OFF
000699: 06,2544           71323                           MASK     IMODES30
000700: 06,2545           00006                           EXTEND
000701: 06,2546           12562                           BZF      ITURNON2                              #  IF JUST ON.
000702:
000703: 06,2547           34763                           CAF      BIT15
000704: 06,2550           00006                           EXTEND                                         #  SEE IF DELAY PRESENT DISCRETE HAS BEEN
000705: 06,2551           02012                           RAND     CHAN12                                #  SENT. IF SO, ACTION COMPLETE.
000706: 06,2552           00006                           EXTEND
000707: 06,2553           12555                           BZF      +2
000708: 06,2554           12222                           TCF      NXTIFAIL
000709:
000710: 06,2555           35000                           CAF      DLAYFAIL                              #  IF NOT, SET BIT TO INDICATE REQUEST NOT
000711: 06,2556           27323                           ADS      IMODES30                              #  PRESENT FOR FULL DURATION.
000712: 06,2557           05644                           TC       ALARM
000713: 06,2560           00207                           OCT      207
000714: 06,2561           12222                           TCF      NXTIFAIL
000715:
000716: 06,2562           41323        ITURNON2           CS       IMODES30                              #  SET BIT7 TO INDICATE WAIT OF 1 SAMPLE
000717: 06,2563           74773                           MASK     ITNON1BT
000718: 06,2564           27323                           ADS      IMODES30
000719: 06,2565           12222                           TCF      NXTIFAIL
000720:
000721:                                                                                                  #  PROGRAM NAME:  IMUCAGE.
000722:
000723:                                                                                                  #  FUNCTIONAL DESCRIPTION:  THIS PROGRAM PROCESSES CHANGES OF THE IMUCAGE INBIT, CHANNEL 30 BIT 11.  IF THE BIT
000724:                                                                                                  #  CHANGES TO 0 (CAGE BUTTON PRESSED), THE ISS IS CAGED (ICDU ZERO + COARSE ALIGN + NO ATT LAMP) UNTIL THE
000725:                                                                                                  #  ASTRONAUT SELECTS ANOTHER PROGRAM TO ALIGN THE ISS.  ANY PULSE TRAINS TO THE ICDU'S AND GYRO'S ARE TERMINATED,
000726:                                                                                                  #  THE ASSOCIATED OUTCOUNTERS ARE ZEROED AND THE GYRO'S ARE DE-SELECTED.  NO ACTION OCCURS WHEN THE BUTTON IS
000727:                                                                                                  #  RELEASED (INBIT CHANGES TO 1).
000728:
000729:                                                                                                  #  CALLING SEQUENCE:  BY IMUMON WHEN IMU CAGE BIT CHANGES.
000730:
000731:                                                                                                  #  JOBS OR TASKS INITIATED:  NONE.
000732:
000733:                                                                                                  #  SUBROUTINES CALLED:  CAGESUB.
000734:
000735:                                                                                                  #  ERASABLE INITIALIZATION:  FRESH START AND RESTART SET BIT 11 OF IMODES30 TO 1.
000736:
000737:                                                                                                  #  ALARMS: NONE.
000738:
000739:                                                                                                  #  EXIT:  NXTIFAIL.
000740:
000741:                                                                                                  #  OUTPUT:  ISS CAGED, COUNTERS ZEROED, PULSE TRAINS TERMINATED AND NO ATT LAMP LIT.
000742:
000743: 06,2566           10000        IMUCAGE            CCS      A                                     #  NO ACTION IF GOING OFF.
000744: 06,2567           12354                           TCF      ISSZERO
000745: 06,2570           35034                           CA       LOW9                                  #  TERMINATE ICDU, OPTICS, GYRO PULSE TRAINS
000746: 06,2571           00006                           EXTEND
000747: 06,2572           03014                           WAND     CHAN14
000748:
000749: 06,2573           42774                           CS       OCT272                                #  KNOCK DOWN TVC ENABLE, IMU ERROR COUNTER
000750: 06,2574           00006                           EXTEND                                         #    ENABLE, ZERO ICDU, COARSE ALIGN
000751: 06,2575           03012                           WAND     CHAN12                                #    ENABLE, OPTICS ERR CNTR ENABLE
000752:
000753: 06,2576           44773                           CS       ENGONBIT                              #  CLEAR ENGINE ON FLAG
000754: 06,2577           70101                           MASK     FLAGWRD5
000755: 06,2600           54101                           TS       FLAGWRD5
000756: 06,2601           44765                           CS       BIT13                                 #  TURN OFF ENGINE
000757: 06,2602           00006                           EXTEND
000758: 06,2603           03011                           WAND     DSALMOUT
000759:
000760: 06,2604           02746                           TC       CAGESUB1
000761:
000762: 06,2605           04725                           TC       IBNKCALL                              #  KNOCK DOWN TRACK, REFSMMAT, DRIFT FLAGS
000763: 06,2606           17052                           CADR     RNDREFDR
000764:
000765: 06,2607           45003                           CS       ZERO                                  #  ZERO COMMAND OUT-COUNTERS
000766: 06,2610           54050                           TS       CDUXCMD
000767: 06,2611           54051                           TS       CDUYCMD
000768: 06,2612           54052                           TS       CDUZCMD
000769: 06,2613           54047                           TS       GYROCMD
000770: 06,2614           42777                           CS       OCT740                                #  HAVING WAITED AT LEAST 27 MCT FROM
000771: 06,2615           00006                           EXTEND                                         #  GYRO PULSE TRAIN TERMINATION, WE CAN
000772: 06,2616           03014                           WAND     CHAN14                                #  DE-SELECT THE GYROS.
000773: 06,2617           12222                           TCF      NXTIFAIL
000774:
000775:                                                                                                  #  PROGRAM NAME:  IMUOP.
000776:
000777:                                                                                                  #  FUNCTIONAL DESCRIPTION:  THIS PROGRAM PROCESSES CHANGES IN THE ISS OPERATE DISCRETE, BIT 9 OF CHANNEL 30.
000778:                                                                                                  #  IF THE INBIT CHANGES TO 0, INDICATING ISS ON, IMUOP GENERALLY SETS BIT 7 OF IMODES30 TO 1 TO REQUEST ISS
000779:                                                                                                  #  INITIALIZATION VIA TNONTEST.  AN EXCEPTION IS DURING A FAILED ISS DELAY DURING WHICH BIT 2 OF IMODES30 IS SET
000780:                                                                                                  #  TO 1 AND NO FURTHER INITIALIZATION IS REQUIRED.  WHEN THE INBIT CHANGES TO 1, INDICATING ISS OFF, IMUSEFLG IS
000781:                                                                                                  #  TESTED TO SEE IF ANY PROGRAM WAS USING THE ISS.  IF SO, PROGRAM ALARM 00214 IS ISSUED.
000782:
000783:                                                                                                  #  CALLING SEQUENCE:  BY IMUMON WHEN BIT 9 OF CHANNEL 30 CHANGES.
000784:
000785:                                                                                                  #  JOBS OR TASKS INITIATED:  NONE.
000786:
000787:                                                                                                  #  SUBROUTINES CALLED:  ALARM, IF ISS IS TURNED OFF WHILE IN USE.
000788:
000789:                                                                                                  #  ERASABLE INITIALIZATION:  ON FRESH START AND RESTART, BIT 9 OF IMODES30 IS SET TO 1 EXCEPT WHEN THE GIMBAL LOCK
000790:                                                                                                  #  LAMP IS ON, IN WHICH CASE IT IS SET TO 0.  THIS PREVENTS ICDU ZERO BY TNONTEST WITH THE ISS IN GIMBAL LOCK.
000791:
000792:                                                                                                  #  ALARMS:  PROGRAM ALARM 00214 IF THE ISS IS TURNED OFF WHILE IN USE.
000793:
000794:                                                                                                  #  EXIT:  NXTIFAIL.
000795:
000796:                                                                                                  #  OUTPUT:  ISS INITIALIZATION REQUEST (IMODES30 BIT 7) OR PROGRAM ALARM 00214.
000797:
000798: 06,2620           00006        IMUOP              EXTEND                                         #  IF OPERATE JUST ON, WAIT 1 SAMPLE.
000799: 06,2621           12646                           BZF      IMUOP2
000800:
000801: 06,2622           41324                           CS       IMODES33                              #  DISABLE DAP
000802: 06,2623           74774                           MASK     NOIMUDAP
000803: 06,2624           27324                           ADS      IMODES33
000804:
000805: 06,2625           04725                           TC       IBNKCALL                              #  KNOCK DOWN TRACK, REFSMMAT, DRIFT FLAGS
000806: 06,2626           17052                           CADR     RNDREFDR
000807:
000808: 06,2627           44771                           CS       UTBIT
000809: 06,2630           70104                           MASK     FLAGWRD8
000810: 06,2631           54104                           TS       FLAGWRD8
000811:
000812: 06,2632           34773                           CA       RNDVZBIT                              #  TURN OFF FLAGS
000813: 06,2633           64772                           AD       IMUSEBIT
000814: 06,2634           40000                           COM
000815: 06,2635           70074                           MASK     FLAGWRD0
000816: 06,2636           56074                           XCH      FLAGWRD0                              #  IF GOING OFF, ALARM IF PROG USING IMU
000817: 06,2637           40000                           COM
000818: 06,2640           74772                           MASK     IMUSEFLG
000819: 06,2641           10000                           CCS      A
000820: 06,2642           12222                           TCF      NXTIFAIL
000821:
000822: 06,2643           05644                           TC       ALARM
000823: 06,2644           00214                           OCT      214
000824: 06,2645           12222                           TCF      NXTIFAIL
000825:
000826: 06,2646           35000        IMUOP2             CAF      DLAYFAIL
000827: 06,2647           71323                           MASK     IMODES30
000828: 06,2650           10000                           CCS      A
000829: 06,2651           12222                           TCF      NXTIFAIL                              #  IF SO, DONT PROCESS UNTIL PRESENT 90
000830: 06,2652           12562                           TCF      ITURNON2                              #  SECONDS EXPIRES.
000831:
000832:                                                                                                  #  PROGRAM NAME:  PIPFAIL
000833:
000834:                                                                                                  #  FUNCTIONAL DESCRIPTION:  THIS PROGRAM PROCESSES CHANGES OF BIT 13 OF CHANNEL 33, PIPA FAIL.  IT SETS BIT 10 OF
000835:                                                                                                  #  IMODES30 TO AGREE.  IT CALLS SETISSW IN CASE A PIPA FAIL NECESSITATES AN ISS WARNING.  IF NOT, I.E., IMODES30
000836:                                                                                                  #  BIT 1 = 1, AND A PIPA FAIL IS PRESENT AND THE ISS IS NOT BEING INITIALIZED, PROGRAM ALARM 00212 IS ISSUED.
000837:
000838:                                                                                                  #  CALLING SEQUENCE:  BY C33TEST ON CHANGES OF CHANNEL 33 BIT 13.
000839:
000840:                                                                                                  #  JOBS OR TASKS INITIATED:  NONE.
000841:
000842:                                                                                                  #  SUBROUTINES CALLED:  1) SETISSW, AND 2) ALARM (SEE FUNCTIONAL DESCRIPTION).
000843:
000844:                                                                                                  #  ERASABLE INITIALIZATION:  SEE IMUMON FOR INITIALIZATION OF IMODES30.  THE RELAVANT BITS ARE 5, 7, 8, 9, AND 10.
000845:
000846:                                                                                                  #  ALARMS:  PROGRAM ALARM 00212 IF PIPA FAIL IS PRESENT BUT NEITHER ISS WARNING IS TO BE ISSUED NOR THE ISS IS
000847:                                                                                                  #  BEING INITIALIZED.
000848:
000849:                                                                                                  #  EXIT:  NXTFL33.
000850:
000851:                                                                                                  #  OUTPUT:  PROGRAM ALARM 00212 AND ISS WARNING MAINTENANCE.
000852:
000853: 06,2653           10000        PIPFAIL            CCS      A                                     #  SET BIT10 IN IMODES30 SO ALL ISS WARNING
000854: 06,2654           34770                           CAF      PIPAFLBT                              #  INFO IS IN ONE REGISTER
000855: 06,2655           57323                           XCH      IMODES30
000856: 06,2656           73000                           MASK     -BIT10
000857: 06,2657           27323                           ADS      IMODES30
000858:
000859: 06,2660           02706                           TC       SETISSW
000860:
000861: 06,2661           41323                           CS       IMODES30                              #  IF PIP FAIL DOESNT LIGHT ISS WARNING, DO
000862: 06,2662           75001                           MASK     ACCFINHT                              #  A PROGRAM ALARM IF IMU OPERATING BUT NOT
000863: 06,2663           10000                           CCS      A                                     #  CAGED OR BEING TURNED ON.
000864: 06,2664           12424                           TCF      NXTFL33
000865:
000866: 06,2665           31323                           CA       IMODES30
000867: 06,2666           72776                           MASK     OCT1720
000868: 06,2667           10000                           CCS      A
000869: 06,2670           12424                           TCF      NXTFL33                               #  ABOVE CONDITION NOT MET.
000870:
000871: 06,2671           05644                           TC       ALARM
000872: 06,2672           00212                           OCT      212
000873: 06,2673           12424                           TCF      NXTFL33
000874:
000875:                                                                                                  #  PROGRAM NAMES:  DNTMFAST, UPTMFAST
000876:
000877:                                                                                                  #  FUNCTIONAL DESCRIPTION:  THESE PROGRAMS PROCESS CHANGES OF BITS 12 AND 11 OF CHANNEL 33.  IF A BIT CHANGES TO A
000878:                                                                                                  #  0, A PROGRAM ALARM IS ISSUED.  THE ALARMS ARE:
000879:
000880:                                                                                                  #        BIT     ALARM   CAUSE
000881:                                                                                                  #        ---     -----   -----
000882:                                                                                                  #         12     01105   DOWNLINK TOO FAST
000883:                                                                                                  #         11     01106   UPLINK TOO FAST
000884:
000885:                                                                                                  #  CALLING SEQUENCE:  BY C33TEST ON A BIT CHANGE.
000886:
000887:                                                                                                  #  SUBROUTINES CALLED:  ALARM, IF A BIT CHANGES TO A 0.
000888:
000889:                                                                                                  #  ERASABLE INITIALIZATION:  FRESH START OR RESTART, BITS 12 AND 11 OF IMODES33 ARE SET TO 1.
000890:
000891:                                                                                                  #  ALARMS:  SEE FUNCTIONAL DESCRIPTION.
000892:
000893:                                                                                                  #  EXIT:  NXTFL33.
000894:
000895:                                                                                                  #  OUTPUT:  PROGRAM ALARM ON A BIT CHANGE TO 0.
000896:
000897: 06,2674           10000        DNTMFAST           CCS      A                                     #  DO PROG ALARM IF TM TOO FAST.
000898: 06,2675           12424                           TCF      NXTFL33
000899:
000900: 06,2676           05644                           TC       ALARM
000901: 06,2677           01105                           OCT      1105
000902: 06,2700           12424                           TCF      NXTFL33
000903:
000904: 06,2701           10000        UPTMFAST           CCS      A                                     #  SAME AS DNLINK TOO FAST WITH DIFFERENT
000905: 06,2702           12424                           TCF      NXTFL33                               #  ALARM CODE.
000906:
000907: 06,2703           05644                           TC       ALARM
000908: 06,2704           01106                           OCT      1106
000909: 06,2705           12424                           TCF      NXTFL33
000910:
000911:                                                                                                  #  PROGRAM NAME:  SETISSW
000912:
000913:                                                                                                  #  FUNCTIONAL DESCRIPTION:  THIS PROGRAM TURNS THE ISS WARNING LAMP ON AND OFF (CHANNEL 11 BIT 1 = 1 FOR ON,
000914:                                                                                                  #  0 FOR OFF) DEPENDING ON THE STATUS OF IMODES30 BITS 13 (IMU FAIL) AND 4 (INHIBIT IMU FAIL), 12 (ICDU FAIL) AND
000915:                                                                                                  #  3 (INHIBIT ICDU FAIL), AND 10 (PIPA FAIL) AND 1 (INHIBIT PIPA FAIL).  THE LAMP IS LEFT ON IF A LAMP TEST IS IN
000916:                                                                                                  #  PROGRESS.
000917:
000918:                                                                                                  #  CALLING SEQUENCE:  CALLED BY IMUMON ON CHANGES TO IMU FAIL AND ICDU FAIL.  CALLED BY IFAILOK AND PFAILOK UPON
000919:                                                                                                  #  REMOVAL OF THE FAIL INHIBITS.  CALLED BY PIPFAIL WHEN THE PIPA FAIL DISCRETE CHANGES.  IT IS CALLED BY PIPUSE
000920:                                                                                                  #  SINCE THE PIPA FAIL PROGRAM ALARM MAY NECESSITATE AN ISS WARNING, AND LIKEWISE BY PIPFREE WHEN THE ALARM DEPARTS
000921:                                                                                                  #  AND IT IS CALLED BY IMUZERO3 AND ISSUP AFTER THE FAIL INHIBITS HAVE BEEN REMOVED.
000922:
000923:                                                                                                  #  JOBS OR TASKS INITIATED:  NONE.
000924:
000925:                                                                                                  #  SUBROUTINES CALLED:  NONE.
000926:
000927:                                                                                                  #  ERASABLE INITIALIZATION:
000928:
000929:                                                                                                  #        1) IMODES30 - SEE IMUMON.
000930:                                                                                                  #        2) IMODES33 BIT 1 = 0 (LAMP TEST NOT IN PROGRESS).
000931:
000932:                                                                                                  #  ALARMS:  ISS WARNING.
000933:
000934:                                                                                                  #  EXIT: VIA Q.
000935:
000936:                                                                                                  #  OUTPUT: ISS WARNING LAMP SET PROPERLY.
000937:
000938: 06,2706           35007        SETISSW            CAF      OCT15                                 #  SET ISS WARNING USING THE FAIL BITS IN
000939: 06,2707           71323                           MASK     IMODES30                              #  BITS 13, 12, AND 10 OF IMODES30 AND THE
000940: 06,2710           00006                           EXTEND                                         #  FAILURE INHIBIT BITS IN POSITIONS
000941: 06,2711           74770                           MP       BIT10                                 #  4, 3, AND 1.
000942: 06,2712           31323                           CA       IMODES30
000943: 06,2713           00006                           EXTEND
000944: 06,2714           04001                           ROR      LCHAN                                 #  0 INDICATES FAILURE.
000945: 06,2715           40000                           COM
000946: 06,2716           75066                           MASK     OCT15000
000947: 06,2717           10000                           CCS      A
000948: 06,2720           12731                           TCF      ISSWON                                #  FAILURE.
000949:
000950: 06,2721           35001        ISSWOFF            CAF      LMPTSTBT                              #  DONT TURN OFF ISS WARNING IF LAMP TEST
000951: 06,2722           71324                           MASK     IMODES33                              #  IN PROGRESS.
000952: 06,2723           10000                           CCS      A
000953: 06,2724           00002                           TC       Q
000954:
000955: 06,2725           45001                           CS       BIT1
000956: 06,2726           00006                           EXTEND
000957: 06,2727           03011                           WAND     DSALMOUT                              #  TURN OFF ISS WARNING
000958: 06,2730           00002                           TC       Q
000959:
000960: 06,2731           00006        ISSWON             EXTEND
000961: 06,2732           22066                           QXCH     ITEMP6
000962: 06,2733           05743                           TC       VARALARM                              #  TELL EVERYONE WHAT CAUSED THE ISSWARNING
000963: 06,2734           35001                           CAF      BIT1
000964: 06,2735           00006                           EXTEND
000965: 06,2736           05011                           WOR      DSALMOUT                              #  TURN ON ISS WARNING
000966: 06,2737           00066                           TC       ITEMP6
000967: 06,2740           47667        CAGESUB            CS       BIT15+6                               #  SET OUTBITS + INTERNAL FLAGS FOR
000968: 06,2741           00006                           EXTEND                                         #  SYSTEM TURN-ON OR CAGE. DISABLE THE
000969: 06,2742           03012                           WAND     CHAN12                                #  ERROR COUNTER AND REMOVE IMU DELAY COMP.
000970: 06,2743           35012                           CAF      BITS4&5                               #  SEND ZERO AND COARSE.
000971: 06,2744           00006                           EXTEND
000972: 06,2745           05012                           WOR      CHAN12
000973:
000974: 06,2746           41231        CAGESUB1           CS       DSPTAB     +11D                       #  TURN ON NO ATT LAMP
000975: 06,2747           77664                           MASK     OC40010
000976: 06,2750           27231                           ADS      DSPTAB     +11D
000977:
000978: 06,2751           41323        CAGESUB2           CS       IMODES30                              #  SET FLAGS TO INDICATE CAGING OR TURN-ON
000979: 06,2752           75024                           MASK     OCT75                                 #  AND INHIBIT ALL ISS WARNING INFO
000980: 06,2753           27323                           ADS      IMODES30
000981:
000982: 06,2754           41324                           CS       IMODES33                              #  DISABLE DAP AUTO AND HOLD MODES
000983: 06,2755           74774                           MASK     NOIMUDAP
000984: 06,2756           27324                           ADS      IMODES33
000985:
000986: 06,2757           00002                           TC       Q
000987:
000988: 06,2760  06,2706               IMUFAIL            EQUALS   SETISSW
000989: 06,2760  06,2706               ICDUFAIL           EQUALS   SETISSW
000990:
000991:                                                                                                  #  JUMP TABLES AND CONSTANTS.
000992:
000993: 06,2760           12537        IFAILJMP           TCF      ITURNON                               #  CHANNEL 30 DISPATCH.
000994: 06,2761           12706                           TCF      IMUFAIL
000995: 06,2762           12706                           TCF      ICDUFAIL
000996: 06,2763           12566                           TCF      IMUCAGE
000997: 06,2764           76400        30RDMSK            OCT      76400                                 #  (BIT 10 NOT SAMPLED HERE).
000998: 06,2765           12620                           TCF      IMUOP
000999:
001000: 06,2766           12653        C33JMP             TCF      PIPFAIL                               #  CHANNEL 33 DISPATCH.
001001: 06,2767           12674                           TCF      DNTMFAST
001002: 06,2770           12701                           TCF      UPTMFAST
001003:
001004:                                                                                                  #  SUBROUTINE TO SKIP IF LAMP TEST NOT IN PROGRESS.
001005:
001006: 06,2771           41324        LAMPTEST           CS       IMODES33                              #  BIT 1 OF IMODES33 = 1 IF LAMP TEST IN
001007: 06,2772           75001                           MASK     LMPTSTBT                              #  PROGRESS
001008: 06,2773           15624                           TCF      INCRQCK
001009: 06,2774     5067               33RDMSK            EQUALS   PRIO16
001010: 06,2774     7664               OC40010            EQUALS   OT40010
001011: 06,2774           00272        OCT272             OCT      00272
001012: 06,2775           00300        BITS7&8            OCT      300
001013: 06,2776           01720        OCT1720            OCT      1720
001014: 06,2777           00740        OCT740             OCT      00740
001015: 06,3000     5066               OCT15000           EQUALS   PRIO15
001016: 06,3000           76777        -BIT10             OCT      -1000
001017:
001018: 06,3001     5750               120MS              =        OCT14                                 #  (DEC 12)
001019: 06,3001     5336               GLOCKOK            EQUALS   RESUME
001020:
001021:                                                                                                  #  OPTICS MONITORING AND ZERO ROUTINES
001022: 06,3001           31327        OPTMON             CA       OPTMODES                              #  MONITOR OPTICS INBITS IN CHAN 30 AND 33
001023: 06,3002           00006                           EXTEND
001024: 06,3003           06030                           RXOR     CHAN30                                #  LOOK FOR OCDU FAIL BIT CHANGE
001025: 06,3004           74773                           MASK     OCDUFBIT
001026: 06,3005           54070                           TS       RUPTREG1                              #  STORE CHANGE BIT
001027: 06,3006           10000                           CCS      A
001028: 06,3007           03216                           TC       OCDUFTST                              #  PROCESS OCDUFAIL BIT CHANGE
001029:
001030: 06,3010           11313        33OPTMON           CCS      OPTIND                                #  BYPASS IF TVC TAKEOVER
001031: 06,3011           13015                           TCF      +4
001032: 06,3012           13015                           TCF      +3
001033: 06,3013           03253                           TC       OPDISAB                               #  DISABLE OPTICS ERR CNTRS
001034: 06,3014           15336                           TCF      RESUME
001035:
001036: 06,3015           31327                           CA       OPTMODES                              #  LOOK FOR OPTICS MODE SWITCH CHANGE
001037: 06,3016           00006                           EXTEND
001038: 06,3017           06033                           RXOR     CHAN33
001039: 06,3020           75012                           MASK     OCTHIRTY
001040: 06,3021           26070                           ADS      RUPTREG1                              #  STORE INBIT CHANGES
001041: 06,3022           23327                           LXCH     OPTMODES
001042: 06,3023           00006                           EXTEND
001043: 06,3024           06001                           RXOR     LCHAN
001044: 06,3025           55327                           TS       OPTMODES                              #  UPDATE OPTMODES TO SHOW BIT CHANGES
001045:
001046: 06,3026           30373                           CA       C31FLWRD
001047: 06,3027           75012                           MASK     OCTHIRTY
001048: 06,3030           00006                           EXTEND
001049: 06,3031           13037                           BZF      +6
001050: 06,3032           54001                           TS       L                                     #  USE FAILWORD INDICATORS
001051: 06,3033           45012                           CS       OCTHIRTY
001052: 06,3034           71327                           MASK     OPTMODES
001053: 06,3035           60001                           AD       L
001054: 06,3036           55327                           TS       OPTMODES
001055: 06,3037           41327                           CS       OPTMODES                              #  SAMPLE CURRENT SWITCH SETTING
001056: 06,3040           75012                           MASK     OCTHIRTY
001057: 06,3041           00006                           EXTEND
001058: 06,3042           13047                           BZF      SETSAMP                               #  MANUAL-SET ZERO IN SWSAMPLE
001059:
001060: 06,3043           74775                           MASK     OPMD1BIT                              #  SEE IF CSC
001061: 06,3044           10000                           CCS      A
001062: 06,3045           03047                           TC       +2                                    #  CSC-SET SWSAMPLE POS
001063: 06,3046           37702                           CAF      NEGONE                                #  ZOPTICS-SET SWSAMPLE (-1)
001064: 06,3047           55346        SETSAMP            TS       SWSAMPLE                              #  CURRENT OPTICS SWITCH SETTING
001065:
001066: 06,3050           11320        PROCESSW           CCS      DESOPMOD                              #  BRANCH ON PREVIOUS SETTING
001067: 06,3051           03143                           TC       CSCDES                                #  CSC
001068: 06,3052           03115                           TC       MANUDES                               #  MANUAL
001069: 06,3053           11346        ZOPTDES            CCS      SWSAMPLE                              #  IS SWITCH STILL AT ZOPTICS
001070: 06,3054           03132                           TC       ZTOCSC                                #  NOW AT CSC
001071: 06,3055           03071                           TC       ZTOMAN                                #  MANUAL
001072: 06,3056           03101                           TC       ZOPFINI                               #  ZOPTICS-SEE IF ZOPT PROCESSING
001073: 06,3057           03124                           TC       SETDESMD                              #  ZOPT NOT PROCESSING-NO ACTION
001074:
001075: 06,3060           11322                           CCS      ZOPTCNT                               #  ZOPT PROCESSING-CHECK COUNTER
001076: 06,3061           03123                           TC       SETCNT                                #  32 SAMPLE NOT FINISHED-SET COUNTER
001077: 06,3062           35001        SETZOEND           CAF      BIT1                                  #  32 SAMPLE WAIT COMPLETED-SET UP ENDZOPT
001078: 06,3063           00006                           EXTEND
001079: 06,3064           05012                           WOR      CHAN12                                #  SEND OCDU ZERO
001080: 06,3065           34124                           CAF      200MS                                 #  HOLD FOR 200MS
001081: 06,3066           05236                           TC       TWIDDLE
001082: 06,3067           03166                           ADRES    ENDZOPT
001083: 06,3070           03124                           TC       SETDESMD
001084: 06,3071           03101        ZTOMAN             TC       ZOPFINI                               #  ZOP TO MANUAL-IS ZOPT DONE
001085: 06,3072           03154                           TC       CSCTOMAN                              #  YES
001086: 06,3073           05644        ZOPALARM           TC       ALARM                                 #  ALARM-SWITCHED ALTERED WHILE ZOPTICS
001087: 06,3074           00116                           OCT      00116
001088: 06,3075           35006                           CAF      OCT13                                 #  PROCESSING-SET RETURN OPTION
001089: 06,3076           55321                           TS       WTOPTION
001090:
001091: 06,3077           03104                           TC       CANZOPT                               #  CANCEL ZOPT
001092:
001093: 06,3100           03154                           TC       CSCTOMAN
001094:                                                                                                  #  BIT 1 OF OPTMODES HAS BEEN ELIMINATED.
001095:                                                                                                  #  IF T4RUPT TIMING IS REDUCED, IT WILL
001096:                                                                                                  #  BE NECESSARY TO REINSTATE THE BIT AS
001097:                                                                                                  #  BEFORE, BUT PREVENT OPTICS LOCKOUT.
001098: 06,3101           34777        ZOPFINI            CAF      ZOPTCS
001099: 06,3102           71327        ZOPFIN2            MASK     OPTMODES                              #  RETURNS TO L+1 PROCESSING AND
001100: 06,3103           15624                           TCF      INCRQCK                               #  L+2 IF NOT
001101: 06,3104           34777        CANZOPT            CAF      ZOPTCS                                #  CANCEL ZERO OPTICS
001102: 06,3105           65000                           AD       OCDUINHT
001103: 06,3106           40000                           COM
001104: 06,3107           71327                           MASK     OPTMODES                              #  ZERO ZOPT PROCESSING BIT-ENABLE OCDUFAIL
001105: 06,3110           55327                           TS       OPTMODES
001106: 06,3111           45001                           CS       BIT1                                  #  MAKE SURE ZERO OCDU IS OFF
001107: 06,3112           00006                           EXTEND
001108: 06,3113           03012                           WAND     CHAN12
001109: 06,3114           00002                           TC       Q
001110:
001111: 06,3115           11346        MANUDES            CCS      SWSAMPLE                              #  SEE IF SWITCH STILL IN MANUAL MODE
001112: 06,3116           03137                           TC       MANTOCSC                              #  NOW AT CSC
001113: 06,3117           03127                           TC       MANTOMAN                              #  STILL MANUAL
001114: 06,3120           11321                           CCS      WTOPTION                              #  ZOPTICS-LOOK AT ZOPTICS RETURN OPTION
001115: 06,3121           03150                           TC       CSCTOZOP   +2                         #  5 SEC RETURN GOOD- CONTINUE ZOPTICS
001116: 06,3122           03146                           TC       CSCTOZOP
001117: 06,3123           55322        SETCNT             TS       ZOPTCNT
001118: 06,3124           31346        SETDESMD           CA       SWSAMPLE                              #  SET CURRENT SWITCH INDICATOR- RESUME
001119: 06,3125           55320                           TS       DESOPMOD
001120: 06,3126           05336                           TC       RESUME
001121: 06,3127           11321        MANTOMAN           CCS      WTOPTION                              #  DECREMENT RETURN OPTION TIME
001122: 06,3130           55321                           TS       WTOPTION
001123: 06,3131           03124                           TC       SETDESMD
001124:
001125: 06,3132           03101        ZTOCSC             TC       ZOPFINI                               #  SEE IF ZOPT PROCESSING
001126: 06,3133           03142                           TC       MANTOCSC   +3                         #  NO- RETURN TO COARS OPT
001127: 06,3134           05644                           TC       ALARM                                 #  ZOPT PROCESSING- ALARM
001128: 06,3135           00116                           OCT      00116
001129: 06,3136           03104                           TC       CANZOPT                               #  CANCEL ZOPT
001130: 06,3137           35003        MANTOCSC           CAF      ZERO                                  #  CANCEL ZOPT RETURN OPTION IF SET
001131: 06,3140           55321                           TS       WTOPTION
001132: 06,3141           55322                           TS       ZOPTCNT
001133:
001134: 06,3142           03154                 +3        TC       CSCTOMAN
001135: 06,3143           11346        CSCDES             CCS      SWSAMPLE                              #  SEE IF SWITCH STILL AT CSC
001136: 06,3144           03124                           TC       SETDESMD                              #  STILL AT CSC
001137: 06,3145           03154                           TC       CSCTOMAN                              #  MANUAL
001138: 06,3146           34774        CSCTOZOP           CAF      OCT40                                 #  ZOPTICS-INITIALIZE FOR ZOPT
001139: 06,3147           55322                           TS       ZOPTCNT
001140: 06,3150           03210                 +2        TC       INITZOPT
001141: 06,3151           04077                           TC       NOOPRATE
001142: 06,3152           03254                           TC       ECDISAB
001143: 06,3153           03124                           TC       SETDESMD
001144: 06,3154           11313        CSCTOMAN           CCS      OPTIND                                #  IS THE OPTICS IN USE
001145: 06,3155           03161                           TC       CANCOARS                              #  YES DISABLE OPTICS ERR CNTRS, SET TVC
001146: 06,3156           03161                           TC       CANCOARS                              #  ENABLE BIT IF IN MANUAL AND REENABLE
001147: 06,3157           03160                           TC       +1                                    #  OPTICS ERR CNTRS
001148: 06,3160           03124                           TC       SETDESMD                              #  NO NORMAL EXIT
001149: 06,3161           03254        CANCOARS           TC       ECDISAB                               #  DISABLE OP ERR CNTRS
001150: 06,3162           36211                           CA       SIX                                   #  ENABLE ERR CNTRS AFTER 60 MS
001151: 06,3163           05236                           TC       TWIDDLE
001152: 06,3164           03260                           ADRES    ECENAB
001153: 06,3165           03124                           TC       SETDESMD
001154: 06,3166           35003        ENDZOPT            CA       ZERO
001155: 06,3167           54036                           TS       CDUS                                  #  ZERO IN CDUS, -20 IN CDUT
001156: 06,3170           55317                           TS       ZONE                                  #  INITIALIZE SHAFT MONITOR ZONE
001157: 06,3171           43666                           CS       20DEGS
001158: 06,3172           54035                           TS       CDUT
001159: 06,3173           45001                           CS       BIT1                                  #  TURN OFF ZERO OCDU
001160: 06,3174           00006                           EXTEND
001161: 06,3175           03012                           WAND     CHAN12
001162: 06,3176           34124                           CAF      200MS                                 #  DELAY 200MS FOR CDUS TO RESYNCHRONIZE
001163: 06,3177           05273                           TC       VARDELAY
001164:
001165: 06,3200           41327                           CS       OPTMODES                              #  SHOW ZOPTICS SINCE LAST FRESH START
001166: 06,3201           74770                           MASK     ZROPTFIN                              #  OR RESTART
001167: 06,3202           27327                           ADS      OPTMODES
001168:
001169: 06,3203           46211                           CS       SIX
001170: 06,3204           71327                           MASK     OPTMODES
001171: 06,3205           55327                           TS       OPTMODES
001172:
001173: 06,3206           03216                           TC       OCDUFTST                              #  CHECK OCDU FAIL BIT AFTER ENABLE
001174:
001175: 06,3207           05327                           TC       TASKOVER
001176:
001177: 06,3210           35003        INITZOPT           CAF      ZERO                                  #  INITIALIZE ZOPTICS-INHIBIT OCDUFAIL
001178: 06,3211           55321                           TS       WTOPTION                              #  AND SHOW OPTICS PROCESSING
001179: 06,3212           41327                           CS       OPTMODES                              #  SET ZERO OPTICS PROCESSING
001180: 06,3213           76211                           MASK     SIX                                   #      OPTICS CDU FAIL INHIBITED
001181: 06,3214           27327                           ADS      OPTMODES
001182: 06,3215           00002                           TC       Q
001183:
001184: 06,3216           34773        OCDUFTST           CAF      BIT7                                  #  SEE IF OCDUFAIL ON OR OFF
001185: 06,3217           00006                           EXTEND
001186: 06,3220           02030                           RAND     CHAN30
001187: 06,3221           10000                           CCS      A
001188: 06,3222           13244                           TCF      OPFAILOF                              #  OCDUFAIL LIGHT OFF
001189:
001190: 06,3223           35000                           CAF      OCDUINHT                              #  OCDUFAIL LIGHT ON UNLESS INHIBITED
001191: 06,3224           71327                           MASK     OPTMODES
001192: 06,3225           10000                           CCS      A
001193: 06,3226           00002                           TC       Q                                     #  OCDUFAIL INHIBITED
001194:
001195: 06,3227           34772        OPFAILON           CAF      BIT8                                  #  ON BIT
001196: 06,3230           61231                           AD       DSPTAB     +11D
001197: 06,3231           74772                           MASK     BIT8
001198: 06,3232           00006        SETOFF             EXTEND
001199: 06,3233           16711                           BZF      TCQ                                   #  NO CHANGE
001200:
001201: 06,3234           54001                           TS       L
001202: 06,3235           31231                           CA       DSPTAB     +11D
001203: 06,3236           00006                           EXTEND
001204: 06,3237           06001                           RXOR     LCHAN
001205: 06,3240           74761                           MASK     POSMAX
001206: 06,3241           64763                           AD       BIT15                                 #  SHOW ACTION WANTED
001207: 06,3242           55231                           TS       DSPTAB     +11D
001208: 06,3243           00002                           TC       Q
001209:
001210: 06,3244           35001        OPFAILOF           CAF      LMPTSTBT                              #  DONT TURN OFF IF LAMP TEST
001211: 06,3245           71324                           MASK     IMODES33
001212: 06,3246           10000                           CCS      A
001213: 06,3247           00002                           TC       Q                                     #  LAMP TEST IN PROGRESS
001214:
001215: 06,3250           34772                           CAF      BIT8                                  #  TURN OFF OCDUFAIL LIGHT
001216: 06,3251           71231                           MASK     DSPTAB     +11D
001217: 06,3252           13232                           TCF      SETOFF
001218:
001219: 06,3253           24002        OPDISAB            INCR     Q
001220: 06,3254           45000        ECDISAB            CS       BIT2
001221: 06,3255           00006                           EXTEND
001222: 06,3256           03012                           WAND     CHAN12
001223: 06,3257           00002                           TC       Q
001224: 06,3260           31346        ECENAB             CA       SWSAMPLE
001225: 06,3261           00006                           EXTEND
001226: 06,3262           13264                           BZF      +2                                    #  MANUAL SET TVC ENABLE
001227: 06,3263           13267                           TCF      ECENAB1
001228: 06,3264           34772                           CAF      BIT8
001229: 06,3265           00006                           EXTEND
001230: 06,3266           05012                           WOR      CHAN12
001231: 06,3267           35000        ECENAB1            CAF      BIT2
001232: 06,3270           00006                           EXTEND
001233: 06,3271           05012                           WOR      CHAN12
001234: 06,3272           05327                           TC       TASKOVER
001235: 06,3273     5006               OCT13              =        ELEVEN
001236: 06,3273     5012               OCTHIRTY           EQUALS   BITS4&5
001237: 06,3273     4774               OCT40              EQUALS   BIT6
001238: 06,3273     4124               200MS              EQUALS   OCT24
001239:
001240:                                                                                                  #  OPTICS CDU DRIVING PROGRAM
001241:
001242: 10,2000                                           SETLOC   OPTDRV
001243: 10,2000                                           BANK
001244: 10,2000                                           COUNT*   $$/SXT
001245:
001246:                                                                                                  #  SHAFT STOP MONITOR-ZONE UPDATE
001247:
001248: 10,2000           30036        OPTDRIVE           CA       CDUS                                  #  GRAB OPTIC SHAFT CDU
001249: 10,2001           54001                           TS       L
001250: 10,2002           10000                           CCS      A                                     #  GET ABS(CDUS)
001251: 10,2003           67673                           AD       13,14,15
001252: 10,2004           12006                           TCF      +2                                    #  ABS(CDUS) - 45 DEG
001253: 10,2005           12003                           TCF      -2
001254: 10,2006           00006                           EXTEND
001255: 10,2007           62016                           BZMF     OZONE                                 #  LESS THAN 45 DEG-SET ZONE 0
001256: 10,2010           31317                           CA       ZONE                                  #  IF ZONE ZERO, CHANGE TO + OR - OTHERWISE
001257: 10,2011           00006                           EXTEND                                         #  DONT MESS WITH ZONE
001258: 10,2012           12014                           BZF      +2
001259: 10,2013           12020                           TCF      CONTDRVE                              #  JUST CONTINUE
001260: 10,2014           56001                           XCH      L                                     #  GREATER THAN 45 DEG-SET ZONE TO SIGN CDU
001261: 10,2015           12017                           TCF      OZONE      +1
001262: 10,2016           35003        OZONE              CAF      ZERO                                  #  ABS(CDUS) LESS THEN 90 DEG-ZONE ZERO
001263: 10,2017           55317                           TS       ZONE
001264: 10,2020                                           COUNT*   $$/T4RPT
001265: 10,2020           11313        CONTDRVE           CCS      OPTIND
001266: 10,2021           02025                           TC       +4                                    #  WORK COARS OPTICS
001267: 10,2022           02025                           TC       +3                                    #  WORK COARS OPTICS
001268: 10,2023           04077                           TC       NOOPRATE                              #  NO OPT  DISABLE   TVC
001269: 10,2024           05336                           TC       RESUME                                #  NO OPT
001270:
001271: 10,2025           31346                           CA       SWSAMPLE                              #  SEE IF SWITCH AT CMC
001272: 10,2026           00006                           EXTEND
001273: 10,2027           12214                           BZF      TVCBCK
001274: 10,2030           00006                           EXTEND
001275: 10,2031           65336                           BZMF     RESUME
001276: 10,2032           34770        RATEDRV1           CAF      ZROPTFIN                              #  SEE IF OCDUS ZEROED SINCE LAST FSTART
001277: 10,2033           71327                           MASK     OPTMODES
001278: 10,2034           10000                           CCS      A
001279: 10,2035           02040                           TC       +3
001280: 10,2036           05644                           TC       ALARM                                 #  OPTICS NOT ZEROED
001281: 10,2037           00120                           OCT      00120
001282:
001283: 10,2040           35000                           CA       BIT2                                  #  SEE IF ERR CNTS ENABLED
001284: 10,2041           00006                           EXTEND
001285: 10,2042           02012                           RAND     CHAN12
001286: 10,2043           00006                           EXTEND
001287: 10,2044           12202                           BZF      SETBIT                                #  CNTS NOT ENABLED-DO IT AND RESUME
001288:
001289: 10,2045           35001                           CAF      ONE                                   #  INITIALIZE OPTIND
001290: 10,2046           55313        OPT2               TS       OPTIND
001291: 10,2047           51313        GETOPCMD           INDEX    OPTIND
001292: 10,2050           31302                           CA       DESOPTT                               #  PICK UP DESIRED OPT ANGLE
001293: 10,2051           00006                           EXTEND
001294: 10,2052           51313                           INDEX    OPTIND
001295: 10,2053           20035                           MSU      CDUT                                  #  GET DIFFERENCE
001296: 10,2054           00006                           EXTEND
001297: 10,2055           74765                           MP       BIT13
001298: 10,2056           56001                           XCH      L
001299: 10,2057           60000                           DOUBLE
001300: 10,2060           54061                           TS       ITEMP1
001301: 10,2061           12063                           TCF      +2                                    #  NO OVFL
001302:
001303: 10,2062           26001                           ADS      L                                     #  WITH OVFL
001304: 10,2063           51313        STORCMD            INDEX    OPTIND
001305: 10,2064           23315                           LXCH     COMMANDO                              #  STORE COMMAND
001306: 10,2065           11313                           CCS      OPTIND
001307: 10,2066           12136                           TCF      TRUNCMD                               #  GET TRUN COMMAND
001308: 10,2067           54061                           TS       ITEMP1                                #  INITIALIZE SEND INDICATOR TO ZERO
001309: 10,2070                                           COUNT*   $$/SXT
001310:
001311:                                                                                                  #  SHAFT STOP AVOIDANCE
001312:
001313: 10,2070           10036                           CCS      CDUS                                  #  IF CDUS GREATER THAN + OR - 90 DEG CHECK
001314: 10,2071           64762                           AD       NEG1/2                                #  FOR POSSIBLE STOP PROBLEM
001315: 10,2072           12074                           TCF      +2
001316: 10,2073           12071                           TCF      -2
001317: 10,2074           00006                           EXTEND
001318: 10,2075           62122                           BZMF     CMDSETUP                              #  CDUS LESS THAN 90 DEG, NO PROBLEMS
001319:
001320: 10,2076           31317                           CA       ZONE
001321: 10,2077           00006                           EXTEND
001322: 10,2100           12122                           BZF      CMDSETUP                              #  ZONE=3, NORMAL COMMAND
001323: 10,2101           74763                           MASK     BIT15                                 #  GRAB SIGN OF ZONE
001324: 10,2102           54001                           TS       L
001325: 10,2103           31316                           CA       COMMANDO   +1
001326: 10,2104           74763                           MASK     BIT15                                 #  GRAB SIGN OF SHAFT COMMAND
001327: 10,2105           00006                           EXTEND
001328: 10,2106           06001                           RXOR     LCHAN
001329: 10,2107           10000                           CCS      A
001330: 10,2110           12122                           TCF      CMDSETUP                              #  SIGN ZONE NOT EQUAL TO SIGN COMMAND
001331: 10,2111           11303                           CCS      DESOPTS                               #  SEE IF DESOPTS BETWEEN -90 AND +90
001332: 10,2112           64762                           AD       NEG1/2
001333: 10,2113           12115                           TCF      +2                                    #  ABS(DESOPTS) - 90 DEG
001334: 10,2114           12112                           TCF      -2
001335: 10,2115           00006                           EXTEND
001336: 10,2116           62120                           BZMF     +2                                    #  DESOPTS IN FIRST OR FOURTH QUAD
001337: 10,2117           12122                           TCF      CMDSETUP
001338: 10,2120           41316                           CS       COMMANDO   +1                         #  REVERSE REGULAR COMMAND
001339: 10,2121           55316                           TS       COMMANDO   +1
001340: 10,2122                                           COUNT*   $$/T4RPT
001341:
001342: 10,2122           31346        CMDSETUP           CA       SWSAMPLE
001343: 10,2123           00006                           EXTEND
001344: 10,2124           12210                           BZF      RATEDRV2
001345: 10,2125           04077                           TC       NOOPRATE                              #  DISABLE   TVC DAP BIT
001346: 10,2126           35001                           CAF      ONE                                   #  SET OPTIND
001347: 10,2127           55313        CMDSET             TS       OPTIND
001348: 10,2130           50000                           INDEX    A
001349: 10,2131           11315                           CCS      COMMANDO                              #  GET SIGN OF COMMAND
001350: 10,2132           02151                           TC       POSOPCMD
001351: 10,2133           02156                           TC       NEXTOPT    +1                         #  ZERO COMMAND-SKIP SEND INDICATOR
001352: 10,2134           02166                           TC       NEGOPCMD
001353: 10,2135           02156                           TC       NEXTOPT    +1                         #  ZERO COMMAND
001354:
001355: 10,2136           55313        TRUNCMD            TS       OPTIND
001356: 10,2137           40035                           CS       CDUT                                  #  IF COMMAND GREATER THAN 45 DEG-COMMAND
001357: 10,2140           61302                           AD       DESOPTT                               #  45 DEG
001358: 10,2141           54002                           TS       Q
001359: 10,2142           02047                           TC       GETOPCMD                              #  LESS THAN 45 DEG-NORMAL OPERATION
001360:
001361: 10,2143           10000                           CCS      A                                     #  GREATER THAN 45 DEG-USE OPSMAX WITH
001362: 10,2144           34761                           CA       POSMAX                                #  CORRECT SIGN
001363: 10,2145           02147                           TC       +2
001364: 10,2146           44761                           CS       POSMAX
001365: 10,2147           54001                           TS       L
001366: 10,2150           02063                           TC       STORCMD
001367: 10,2151           62207        POSOPCMD           AD       MAXPLS1
001368: 10,2152           00006                           EXTEND
001369: 10,2153           62173                           BZMF     DELOPCMD                              #  COMMAND LESS THAN MAX PULSE
001370: 10,2154           42206                           CS       MAXPLS                                #  GREATER THAN MAX PULSE-USE MAX PULSE
001371:
001372: 10,2155           24061        NEXTOPT            INCR     ITEMP1                                #  SET SEND INDICATOR
001373: 10,2156           65002                 +1        AD       NEG0                                  #  MAKE SURE ZERO COMMAND IS -ZERO
001374: 10,2157           51313                           INDEX    OPTIND
001375: 10,2160           54053                           TS       CDUTCMD                               #  STORE PULSE IN SEND REG
001376:
001377: 10,2161           11313                           CCS      OPTIND
001378: 10,2162           02127                           TC       CMDSET                                #  GET NEXT OPT
001379: 10,2163           10061                           CCS      ITEMP1                                #  ARE ANY PULSES TO GO
001380: 10,2164           12176                           TCF      SENDOCMD                              #  YES-SEND EM
001381: 10,2165           05336                           TC       RESUME                                #  NO
001382:
001383: 10,2166           62207        NEGOPCMD           AD       MAXPLS1
001384: 10,2167           00006                           EXTEND
001385: 10,2170           62173                           BZMF     DELOPCMD                              #  LESS THAN MAX PULSE
001386: 10,2171           32206                           CA       MAXPLS                                #  MAX PULSES
001387: 10,2172           12155                           TCF      NEXTOPT
001388: 10,2173           51313        DELOPCMD           INDEX    OPTIND
001389: 10,2174           57315                           XCH      COMMANDO                              #  SET UP SMALL COMMAND
001390: 10,2175           12155                           TCF      NEXTOPT
001391:
001392: 10,2176           35062        SENDOCMD           CAF      11,12                                 #  SEND OCDU DRIVE COMMANDS
001393: 10,2177           00006                           EXTEND
001394: 10,2200           05014                           WOR      CHAN14
001395: 10,2201           05336                           TC       RESUME
001396:
001397: 10,2202           35000        SETBIT             CAF      BIT2                                  #  ENABLE OCDU ERR CNTS
001398: 10,2203           00006                           EXTEND
001399: 10,2204           05012                           WOR      CHAN12
001400: 10,2205           05336                           TC       RESUME                                #  START COARS NEXT TIME AROUND
001401:
001402: 10,2206           77654        MAXPLS             DEC      -83        B-14                       #  WAS -165
001403: 10,2207           77655        MAXPLS1            DEC      -82        B-14                       #  WAS -164
001404: 10,2210     5062               11,12              EQUALS   PRIO6
001405: 10,2210           45003        RATEDRV2           CS       ZERO
001406: 10,2211           54001                           TS       L
001407: 10,2212           52054                           DXCH     CDUTCMD
001408: 10,2213           02176                           TC       SENDOCMD
001409: 10,2214           34772        TVCBCK             CAF      BIT8                                  #  IS TVC BIT ENABLED
001410: 10,2215           00006                           EXTEND
001411: 10,2216           02012                           RAND     CHAN12
001412: 10,2217           00006                           EXTEND
001413: 10,2220           12222                           BZF      +2
001414: 10,2221           02032                           TC       RATEDRV1
001415: 10,2222           34772                           CAF      BIT8                                  #  NO TURN IT ON
001416: 10,2223           00006                           EXTEND
001417: 10,2224           05012                           WOR      CHAN12
001418: 10,2225           05336                           TC       RESUME
001419:    4000                                           SETLOC   STOPRAT
001420:    4000                                           BANK
001421:    4077                                           COUNT*   $$/T4RPT
001422:    4077           44772        NOOPRATE           CS       BIT8
001423:    4100           00006                           EXTEND
001424:    4101           03012                           WAND     CHAN12
001425:    4102           00002                           TC       Q

End of include-file T4RUPT_PROGRAM.agc.  Parent file is MAIN.agc


