
Source Code


000002:                                                                                                  ## Copyright:   Public domain.
000003:                                                                                                  ## Filename:    TAGS_FOR_RELATIVE_SETLOC_AND_BLANK_BANK_CARDS.agc
000004:                                                                                                  ## Purpose:     A section of Skylark revision 048.
000005:                                                                                                  ##              It is part of the source code for the Apollo Guidance Computer (AGC)
000006:                                                                                                  ##              for Skylab-2, Skylab-3, Skylab-4, and ASTP. No original listings of
000007:                                                                                                  ##              this software are available; instead, this file was created via
000008:                                                                                                  ##              disassembly of dumps of the core rope modules actually flown on
000009:                                                                                                  ##              Skylab-2. Access to these modules was provided by the New Mexico
000010:                                                                                                  ##              Museum of Space History.
000011:                                                                                                  ## Assembler:   yaYUL
000012:                                                                                                  ## Contact:     Ron Burkey <info@sandroid.org>.
000013:                                                                                                  ## Website:     www.ibiblio.org/apollo/index.html
000014:                                                                                                  ## Mod history: 2023-09-04 MAS  Created from Artemis 072.
000015:                                                                                                  ##              2024-03-05 MAS  Updated for Skylark 48.
000016:
000017:                                                                                                  ## This log section has received many changes to match Skylark. Unfortunately,
000018:                                                                                                  ## the names of all of the new tags, their relative ordering in the banks,
000019:                                                                                                  ## and exactly which pieces of code are associated with which tag is not
000020:                                                                                                  ## known at this time. As such, best guesses have been used, and changes from
000021:                                                                                                  ## Artemis have been minimized wherever possible.
000022:
000023: ???????                        FIXED              MEMORY   120000     -          167777
000024: ???????                                           COUNT    BANKSUM
000025:
000026:                                                                                                  #  MODULE 1 CONTAINS BANKS 0 THROUGH 5
000027:
000028:    4000                                           BLOCK    02
000029:    4000                        FFTAG1             EQUALS
000030:    4000                        FFTAG2             EQUALS
000031:    4000                        FFTAG3             EQUALS
000032:    4000                        FFTAG4             EQUALS
000033:    4000                        FFTAG5             EQUALS
000034:    4000                        FFTAG7             EQUALS
000035:    4000                        FFTAG8             EQUALS
000036:    4000                        EXECF2             EQUALS
000037:    4000                        WAITF2             EQUALS
000038:    4000                        FFTAG10            EQUALS
000039:    4000                        FFTAG12            EQUALS
000040:    4000                        P30SUBS            EQUALS
000041:    4000                        STOPRAT            EQUALS
000042:    4000                                           BNKSUM   02
000043:
000044:    6000                                           BLOCK    03
000045:    6000                        INTERF3            EQUALS
000046:    6000                        FFTAG6             EQUALS
000047:    6000                        FFTAG13            EQUALS
000048:    6000                                           BNKSUM   03
000049:
000050: 00,2000                                           BANK     00
000051: 00,2000                        DLAYJOB            EQUALS
000052: 00,2000                        INTERB0            EQUALS
000053: 00,2000                                           BNKSUM   00
000054:
000055: 01,2000                                           BANK     01
000056: 01,2000                        RESTART            EQUALS
000057: 01,2000                        R02                EQUALS
000058: 01,2000                                           BNKSUM   01
000059:
000060:
000061: 01,2000                        INTERB1            EQUALS
000062: 01,2000                        EXECB1             EQUALS
000063: 04,2000                                           BANK     4
000064: 04,2000                        VERB37             EQUALS
000065: 04,2000                        P50S4              EQUALS
000066:
000067: 04,2000                        MIDDGIM            EQUALS
000068: 04,2000                        C13BANK            EQUALS                                         #  C13STALL - CHANGE CODE IF THIS IS MOVED
000069: 04,2000                        P60S6              EQUALS
000070: 04,2000                        P37LOC             EQUALS
000071: 04,2000                        INTINIT1           EQUALS
000072: 04,2000                                           BNKSUM   04
000073:
000074: 05,2000                                           BANK     5
000075: 05,2000                        FRANDRES           EQUALS
000076: 05,2000                        DOWNTELM           EQUALS
000077: 05,2000                        DAPMASS            EQUALS
000078: 05,2000                        CONICS4            EQUALS
000079: 05,2000                        P76LOC             EQUALS
000080: 05,2000                                           BNKSUM   05
000081:
000082:                                                                                                  #  MODULE 2 CONTAINS BANKS 6 THROUGH 13
000083:
000084: 06,2000                                           BANK     6
000085: 06,2000                        IMUCOMP            EQUALS
000086: 06,2000                        T4RUP              EQUALS
000087: 06,2000                        CSIPROG            EQUALS
000088: 06,2000                        P60S7              EQUALS
000089: 06,2000                        INTPRET2           EQUALS
000090: 06,2000                                           BNKSUM   06
000091:
000092: 07,2000                                           BANK     7
000093: 07,2000                        SXTMARKE           EQUALS
000094: 07,2000                        MODESW             EQUALS
000095: 07,2000                        KEYRUPT            EQUALS
000096: 07,2000                        CSIPROG6           EQUALS
000097: 07,2000                        P55LOC             EQUALS
000098: 07,2000                                           BNKSUM   07
000099:
000100: 10,2000                                           BANK     10
000101: 10,2000                        DISPLAYS           EQUALS
000102: 10,2000                        PHASETAB           EQUALS
000103: 10,2000                        COMGEOM2           EQUALS
000104: 10,2000                        P60S4              EQUALS
000105: 10,2000                        OPTDRV             EQUALS
000106: 10,2000                        KALCMON3           EQUALS
000107: 10,2000                        CONICS5            EQUALS
000108: 10,2000                                           BNKSUM   10
000109:
000110: 11,2000                                           BANK     11
000111: 11,2000                        ORBITAL            EQUALS
000112: 11,2000                        ORBITAL1           EQUALS                                         #  CONSTANTS
000113: 11,2000                        INTVEL             EQUALS
000114: 11,2000                        S52/2              EQUALS
000115: 11,2000                        CONICS2            EQUALS
000116: 11,2000                        CONICS3            EQUALS
000117: 11,2000                        LATLONG            EQUALS
000118: 11,2000                        P50LOC
000119: 11,2000                                           BNKSUM   11
000120:
000121: 12,2000                                           BANK     12
000122: 12,2000                        CONICS             EQUALS
000123: 12,2000                        E/PROG             EQUALS
000124: 12,2000                        E/PROG1            EQUALS
000125: 12,2000                        SR52/1             EQUALS
000126: 12,2000                                           BNKSUM   12
000127:
000128: 13,2000                                           BANK     13
000129: 13,2000                        DKDAPS             EQUALS
000130: 13,2000                        INTINIT            EQUALS
000131: 13,2000                                           BNKSUM   13
000132:
000133:                                                                                                  #  SPACER
000134:
000135:                                                                                                  #           MODULE 3 CONTAINS BANKS 14 THROUGH 21
000136:
000137: 14,2000                                           BANK     14
000138: 14,2000                        P50S               EQUALS
000139: 14,2000                        RT53               EQUALS
000140: 14,2000                        P50S1              EQUALS
000141: 14,2000                        DAPS9              EQUALS
000142: 14,2000                                           BNKSUM   14
000143:
000144: 15,2000                                           BANK     15
000145: 15,2000                        STARTAB            EQUALS
000146: 15,2000                        ETRYDAP            EQUALS
000147: 15,2000                        CDHTAGS            EQUALS
000148: 15,2000                        CONICS1            EQUALS
000149: 15,2000                                           BNKSUM   15
000150:
000151: 16,2000                                           BANK     16
000152: 16,2000                        P40S1              EQUALS
000153: 16,2000                        DAPROLL            EQUALS
000154: 16,2000                        P50S2              EQUALS
000155: 16,2000                        INTVEL1            EQUALS
000156: 16,2000                                           BNKSUM   16
000157:
000158: 17,2000                                           BANK     17
000159: 17,2000                        EXTVRBS1           EQUALS
000160: 17,2000                        DAPS4              EQUALS
000161: 17,2000                        DAPS5              EQUALS
000162: 17,2000                        DAPS7              EQUALS
000163: 17,2000                        P50S3              EQUALS
000164: 17,2000                        INTINIT3           EQUALS
000165: 17,2000                                           BNKSUM   17
000166:
000167: 20,2000                                           BANK     20
000168: 20,2000                        DAPS6              EQUALS
000169: 20,2000                        DAPS1              EQUALS
000170: 20,2000                        DAPS2              EQUALS
000171: 20,2000                        MANUSTUF           EQUALS
000172: 20,2000                        VAC5LOC            EQUALS
000173: 20,2000                        P29TAG2            EQUALS
000174: 20,2000                                           BNKSUM   20
000175:
000176: 21,2000                                           BANK     21
000177: 21,2000                        DAPS3              EQUALS
000178: 21,2000                        MYSUBS             EQUALS
000179: 21,2000                                           BNKSUM   21
000180:
000181:                                                                                                  #  MODULE 4 CONTAINS BANKS 22 THROUGH 27
000182:
000183: 22,2000                                           BANK     22
000184: 22,2000                        RTBCODES           EQUALS
000185: 22,2000                        RTBCODE1           EQUALS
000186: 22,2000                        DAPS8              EQUALS
000187: 22,2000                        APOPERI            EQUALS
000188: 22,2000                        KALCMON2           EQUALS
000189: 22,2000                        KALCMON1           EQUALS
000190: 22,2000                        P38TAG             EQUALS
000191: 22,2000                        P11THREE           EQUALS
000192: 22,2000                                           BNKSUM   22
000193:
000194: 23,2000                                           BANK     23
000195: 23,2000                        P20S2              EQUALS
000196: 23,2000                        INFLIGHT           EQUALS
000197: 23,2000                        COMGEOM1           EQUALS
000198: 23,2000                        POWFLITE           EQUALS
000199: 23,2000                        POWFLIT1           EQUALS
000200: 23,2000                        POWFLIT2           EQUALS
000201: 23,2000                        R30LOC             EQUALS
000202: 23,2000                        R36CM              EQUALS
000203: 23,2000                        P20S5              EQUALS
000204: 23,2000                                           BNKSUM   23
000205:
000206: 24,2000                                           BANK     24
000207: 24,2000                        P40S               EQUALS
000208: 24,2000                                           BNKSUM   24
000209:
000210: 25,2000                                           BANK     25
000211: 25,2000                        REENTRY            EQUALS
000212: 25,2000                                           BNKSUM   25
000213:
000214: 26,2000                                           BANK     26
000215: 26,2000                        INTPRET1           EQUALS
000216: 26,2000                        REENTRY1           EQUALS
000217: 26,2000                        P60S               EQUALS
000218: 26,2000                        P60S1              EQUALS
000219: 26,2000                        P60S2              EQUALS
000220: 26,2000                        P60S3              EQUALS
000221: 26,2000                        PLANTIN            EQUALS                                         #  LUNAR ROT
000222: 26,2000                        EPHEM              EQUALS
000223: 26,2000                        P05P06             EQUALS
000224: 26,2000                        P30S1A             EQUALS
000225: 26,2000                        P11FOUR            EQUALS
000226: 26,2000                                           BNKSUM   26
000227:
000228: 27,2000                                           BANK     27
000229: 27,2000                        TOF-FF             EQUALS
000230: 27,2000                        MANUVER            EQUALS
000231: 27,2000                        MANUVER1           EQUALS
000232: 27,2000                        P40S5              EQUALS
000233: 27,2000                        VECPT              EQUALS
000234: 27,2000                        MGIM               EQUALS
000235: 27,2000                        UPDATE2            EQUALS
000236: 27,2000                        R22S1              EQUALS
000237: 27,2000                        P60S5              EQUALS
000238: 27,2000                        CDHTAG             EQUALS
000239: 27,2000                        ORBITAL2           EQUALS
000240: 27,2000                        P20S6              EQUALS
000241: 27,2000                        TOF-FF1            EQUALS
000242: 27,2000                                           BNKSUM   27
000243:
000244:                                                                                                  #  MODULE 5 CONTAINS BANKS 30 THROUGH 35
000245:
000246: 30,2000                                           BANK     30
000247: 30,2000                        LOWSUPER           EQUALS
000248: 30,2000                        P20S1              EQUALS
000249: 30,2000                        P40S3              EQUALS
000250: 30,2000                        P29TAG1            EQUALS
000251: 30,2000                                           BNKSUM   30
000252:
000253: 31,2000                                           BANK     31
000254: 31,2000                        CSI/CDH1           EQUALS
000255: 31,2000                        R34                EQUALS
000256: 31,2000                        CDHTAG2            EQUALS
000257: 31,2000                        R31                EQUALS
000258: 31,2000                        MEASINC3           EQUALS
000259: 31,2000                        V89TAG             EQUALS
000260: 31,2000                        P40S4              EQUALS
000261: 31,2000                        NCPROGS2           EQUALS
000262: 31,2000                                           BNKSUM   31
000263:
000264: 32,2000                                           BANK     32
000265: 32,2000                        NCPROGS            EQUALS
000266: 32,2000                                           BNKSUM   32
000267:
000268: 33,2000                                           BANK     33
000269: 33,2000                        TESTLEAD           EQUALS
000270: 33,2000                        IMUCAL             EQUALS
000271: 33,2000                        IMUCAL3            EQUALS
000272: 33,2000                        P11TWO             EQUALS
000273: 33,2000                                           BNKSUM   33
000274:
000275: 34,2000                                           BANK     34
000276: 34,2000                        P11ONE             EQUALS
000277: 34,2000                        P20S3              EQUALS
000278: 34,2000                        P20S4              EQUALS
000279: 34,2000                                           BNKSUM   34
000280:
000281: 35,2000                                           BANK     35
000282: 35,2000                        CSI/CDH            EQUALS
000283: 35,2000                        P30S1              EQUALS
000284: 35,2000                        P20S8              EQUALS
000285: 35,2000                        INTINIT2           EQUALS
000286: 35,2000                                           BNKSUM   35
000287:
000288:                                                                                                  #  MODULE 6 CONTAINS BANKS 36 THROUGH 43
000289:
000290: 36,2000                                           BANK     36
000291: 36,2000                        DELRSPL1           EQUALS
000292: 36,2000                        MEASINC            EQUALS
000293: 36,2000                        MEASINC1           EQUALS
000294: 36,2000                        P20S7              EQUALS
000295: 36,2000                        S3435LOC           EQUALS
000296: 36,2000                                           BNKSUM   36
000297:
000298: 37,2000                                           BANK     37
000299: 37,2000                        P20S               EQUALS
000300: 37,2000                        BODYATT            EQUALS
000301: 37,2000                        RENDEZ             EQUALS
000302: 37,2000                        SERVICES           EQUALS
000303: 37,2000                        CDHTAG3            EQUALS
000304: 37,2000                                           BNKSUM   37
000305:
000306: 40,2000                                           BANK     40
000307: 40,2000                        PINSUPER           EQUALS
000308: 40,2000                        PINBALL1           EQUALS
000309: 40,2000                                           BNKSUM   40
000310:
000311: 41,2000                                           BANK     41
000312: 41,2000                        PINBALL2           EQUALS
000313: 41,2000                        EXTVBS2            EQUALS
000314: 41,2000                                           BNKSUM   41
000315:
000316: 42,2000                                           BANK     42
000317: 42,2000                        PINBALL3           EQUALS
000318: 42,2000                        EXTVBS             EQUALS
000319: 42,2000                        UPDATE3            EQUALS
000320: 42,2000                                           BNKSUM   42
000321:
000322: 43,2000                                           BANK     43
000323: 43,2000                        SELFCHEC           EQUALS
000324: 43,2000                        EXTVERBS           EQUALS
000325: 43,2000                                           BNKSUM   43
000326:
000327: 43,2000  26,3203               HI6ZEROS           EQUALS   ZEROVECS                              #  ZERO VECTOR ALWAYS IN HIGH MEMORY
000328: 43,2000  06,3725               LO6ZEROS           EQUALS   ZEROVEC                               #  ZERO VECTOR ALWAYS IN LOW MEMORY
000329: 43,2000  26,3201               HIDPHALF           EQUALS   UNITX
000330: 43,2000  06,3723               LODPHALF           EQUALS   XUNIT
000331: 43,2000  26,3173               HIDP1/4            EQUALS   DP1/4TH
000332: 43,2000  15,3411               LODP1/4            EQUALS   D1/4                                  #  2DEC .25
000333: 43,2000  26,3201               HIUNITX            EQUALS   UNITX
000334: 43,2000  26,3177               HIUNITY            EQUALS   UNITY
000335: 43,2000  26,3175               HIUNITZ            EQUALS   UNITZ
000336: 43,2000  06,3723               LOUNITX            EQUALS   XUNIT                                 #  2DEC .5
000337: 43,2000  06,3721               LOUNITY            EQUALS   YUNIT                                 #  2DEC 0
000338: 43,2000  06,3717               LOUNITZ            EQUALS   ZUNIT                                 #  2DEC 0
000339: 43,2000  11,3741               3/4LOWDP           EQUALS   3/4                                   #  2DEC 3.0 B-2
000340: 43,2000  30,2000                                  SBANK=   LOWSUPER
000341:
000342:                                                                                                  #  ROPE SPECIFIC ASSIGNS OBVIATING NEED TO CHECK COMPUTER FLAG IN DETVRUZVING INTEGRATION AREA ENTRIES
000343: 43,2000  04,3414               OTHPREC            EQUALS   LEMPREC
000344: 43,2000  04,3340               ATOPOTH            EQUALS   ATOPLEM
000345: 43,2000  04,3305               ATOPTHIS           EQUALS   ATOPCSM
000346:
000347:
000348: 43,2000  04,3314               MOVATHIS           EQUALS   MOVEACSM
000349: 43,2000  31,2031               STATEST            EQUALS   V83CALL                               #  * TEMPORARY
000350: 43,2000  04,3400               THISPREC           EQUALS   CSMPREC
000351: 43,2000  26,3201               THISAXIS           =        UNITX
000352: 43,2000     5053               ERASID             EQUALS   LOW10                                 #  DOWNLINK ERASABLE DUMP ID
000353: 43,2000     6214               DELAYNUM           EQUALS   THREE
000354:
000355:                                                                                                  #  ****************************************************************************************************************

End of include-file TAGS_FOR_RELATIVE_SETLOC_AND_BLANK_BANK_CARDS.agc.  Parent file is MAIN.agc


