
Source Code


000002:                                                                                                  ## Copyright:   Public domain.
000003:                                                                                                  ## Filename:    TVCDAPS.agc
000004:                                                                                                  ## Purpose:     A section of Skylark revision 048.
000005:                                                                                                  ##              It is part of the source code for the Apollo Guidance Computer (AGC)
000006:                                                                                                  ##              for Skylab-2, Skylab-3, Skylab-4, and ASTP. No original listings of
000007:                                                                                                  ##              this software are available; instead, this file was created via
000008:                                                                                                  ##              disassembly of dumps of the core rope modules actually flown on
000009:                                                                                                  ##              Skylab-2. Access to these modules was provided by the New Mexico
000010:                                                                                                  ##              Museum of Space History.
000011:                                                                                                  ## Assembler:   yaYUL
000012:                                                                                                  ## Contact:     Ron Burkey <info@sandroid.org>.
000013:                                                                                                  ## Website:     www.ibiblio.org/apollo/index.html
000014:                                                                                                  ## Mod history: 2023-09-04 MAS  Created from Artemis 072.
000015:
000016:                                                                                                  #  PROGRAM NAME....TVCDAP, CONSISTING OF PITCHDAP, YAWDAP, ETC.
000017:                                                                                                  #  LOG SECTION...TVCDAPS                         SUBROUTINE...DAPCSM
000018:                                                                                                  #  MODIFIED BY SCHLUNDT                          21 OCTOBER 1968
000019:                                                                                                  #  FUNCTIONAL DESCRIPTION....
000020:
000021:                                                                                                  #        SELF-PERPETUATING T5 TASKS WHICH GENERATE THE COMMAND SIGNALS
000022:                                                                                                  #        FOR THE PITCH AND YAW SPS GIMBAL ACTUATORS DURING TVC (SPS) BURNS,
000023:                                                                                                  #        IN RESPONSE TO BODY-AXIS RATE COMMANDS FROM CROSS-PRODUCT STEERING
000024:                                                                                                  #        (S40.8).  IF NO STEERING (IMPULSIVE BURNS) MAINTAINS ATTITUDE-HOLD
000025:                                                                                                  #        ABOUT THE REFERENCE (INITIAL) DIRECTIONS (ZERO RATE COMMANDS).
000026:
000027:                                                                                                  #        THE PITCH AND YAW LOOPS ARE SEPARATE, BUT STRUCTURED IDENTICALLY.
000028:                                                                                                  #        EACH ATTITUDE-RATE LOOP INCLUDES GIMBAL ANGLE RATE DERIVATION,
000029:                                                                                                  #        GIMBAL/BODY AXIS TRANSFORMATION, BODY-AXIS ATTITUDE ERROR
000030:                                                                                                  #        INTEGRATION WITH ERROR LIMITING, THE GENERALIZED 6TH-ORDER FILTER
000031:                                                                                                  #        FOR CSM OR CSM/LM OPERATION, A FILTER OUTPUT LIMITER,
000032:                                                                                                  #        CG-OFFSET TRACKER FILTER, AND THE CG-TRACKER MINOR LOOP.
000033:
000034:                                                                                                  #        THE DAPS ARE CYCLIC, CALLING EACH OTHER AT 1/2 THE DAP SAMPLE
000035:                                                                                                  #        TIME, AS DETERMINED BY T5TVCDT. THE ACTUATOR COMMANDS ARE
000036:                                                                                                  #        REGENERATED AS ANALOG VOLTAGES BY THE OPTICS ERROR COUNTERS, WHICH
000037:                                                                                                  #        TRANSMIT THE SIGNAL TO THE ACTUATOR SERVOS WHEN THERE IS PROPER CDU
000038:                                                                                                  #        MODING.
000039:
000040:                                                                                                  #  CALLING SEQUENCE.... (TYPICALLY)
000041:
000042:                                                                                                  #        T5 CALL OF TVCDAPON (TVCINITIALIZE) BY DOTVCON (P40)
000043:                                                                                                  #        T5 CALL OF DAPINIT (TVCDAPS) BY TVCINIT4 (TVCINITIALIZE)
000044:                                                                                                  #        T5 CALL OF PITCHDAP BY DAPINIT
000045:                                                                                                  #        T5 CALL OF YAWDAP BY PITCHDAP
000046:                                                                                                  #        T5 CALL OF PITCHDAP BY YAWDAP
000047:                                                                                                  #                ETC.
000048:                                                                                                  #        (AUTOMATIC SEQUENCING FROM TVCDAPON)
000049:
000050:                                                                                                  #  NORMAL EXIT MODE....RESUME
000051:
000052:                                                                                                  #  ALARM OR ABORT EXIT MODES....NONE
000053:
000054:                                                                                                  #  SUBROUTINES CALLED....
000055:
000056:                                                                                                  #        HACK FOR STROKE TEST (V68) WAVEFORM GENERATION
000057:                                                                                                  #        PCOPY, YCOPY FOR COPY-CYCLES (USED ALSO BY TVC RESTART PACKAGE)
000058:                                                                                                  #        DAPINIT FOR INITIAL CDUS FOR RATE MEASUREMENTS
000059:                                                                                                  #        ERRORLIM, ACTLIM FOR INPUT (ATTITUDE-ERROR INTEGRATION) AND
000060:                                                                                                  #                OUTPUT (ACTUATOR COMMAND) LIMITING, COMMON TO PITCH AND
000061:                                                                                                  #                YAW DAPS
000062:                                                                                                  #        FWDFLTR (INCLUDING OPTVARK) AND PRECOMP, TO COMPUTE FILTER
000063:                                                                                                  #                OUTPUTS AND STORAGE VALUES
000064:                                                                                                  #        RESUME
000065:
000066:                                                                                                  #  OTHER INTERFACES....
000067:
000068:                                                                                                  #        S40.8 CROSS-PRODUCT STEERING FOR BODY AXIS RATE  COMMANDS OMEGAY,ZC
000069:                                                                                                  #        S40.15 FOR THE INITIAL DAP GAINS VARK AND 1/CONACC
000070:                                                                                                  #        TVCEXECUTIVE FOR DAP GAIN UPDATES AND TMC LOOP OPERATIONS
000071:                                                                                                  #        TVCRESTART PACKAGE FOR TVC RESTART PROTECTION.
000072:
000073:                                                                                                  #  ERASABLE INITIALIZATION REQUIRED....
000074:
000075:                                                                                                  #        PAD-LOAD ERASABLES ( SEE ERASABLE ASSIGNMENTS )
000076:                                                                                                  #        CONFIGURATION BITS  (14, 13)  OF DAPDATR1 AS IN R03
000077:                                                                                                  #        ENGINE-ON BIT (11.13) FOR RESTARTS
000078:                                                                                                  #        TVCPHASE FOR RESTARTS ( SEE DOTVCON, AND TVCINIT4 )
000079:                                                                                                  #        T5 BITS (15,14 OF FLAGWRD6) FOR RESTARTS
000080:                                                                                                  #        MISCELLANEOUS VARIABLES SET UP OR COMPUTED BY TVCDAPON....TVCINIT4,
000081:                                                                                                  #                INCLUDING THE ZEROING OF TEMPORARIES BY  MRCLEAN
000082:                                                                                                  #        CDUX,Y,Z AND SINCDUX....COSCDUZ AS PREPARED BY QUICTRIG (WITH
000083:                                                                                                  #                UPDATES EVERY 1/2 SECOND)
000084:                                                                                                  #        ALSO G+N PRIMARY, TVC ENABLE, AND OPTICS ERROR COUNTER ENABLE
000085:                                                                                                  #                UNLESS BENCH-TESTING.
000086:
000087:                                                                                                  #  OUTPUT....
000088:
000089:                                                                                                  #        TVCPITCH AND TVCYAW WITH COUNTER RELEASE (11.14 AND 11.13 INCREMEN-
000090:                                                                                                  #                TAL  COMMANDS TO OPTICS ERROR COUNTERS), FILTER NODES, BODY-
000091:                                                                                                  #                AXIS ATTITUDE ERROR INTEGRATOR, TOTAL ACTUATOR COMMANDS,
000092:                                                                                                  #                OFFSET-TRACKER-FILTER OUTPUTS, ETC.
000093:                                                                                                  #  DEBRIS....
000094:
000095:                                                                                                  #        MUCH, SHAREABLE WITH RCS/ENTRY, IN EBANK6 ONLY
000096:
000097: 20,2000                                           SETLOC   DAPS2
000098: 20,2000                                           BANK
000099:
000100: 20,2601  E6,1453                                  EBANK=   CNTR
000101:
000102:
000103: 20,2601                                           COUNT*   $$/DAPS
000104:
000105:
000106:                                                                                                  #  PITCH TVCDAP STARTS HERE....(INCORPORATES CSM/LEM DAP FILTER,  MODOR DESIGN)
000107:
000108:
000109: 20,2601           22016        PITCHDAP           LXCH     BANKRUPT                              #  T5 ENTRY, NORMAL OR VIA DAPINIT
000110: 20,2602           00006                           EXTEND
000111: 20,2603           22012                           QXCH     QRUPT
000112:
000113: 20,2604           33555                           CAF      YAWT5                                 #  SET UP T5 CALL FOR YAW AUTOPILOT (LOW-
000114: 20,2605           54112                           TS       T5LOC                                 #        ORDER PART OF 2CADR ALREADY THERE)
000115: 20,2606           31654                           CAE      T5TVCDT
000116: 20,2607           54030                           TS       TIME5
000117:
000118: 20,2610           30033        PCDUDOTS           CAE      CDUY                                  #  COMPUTE CDUYDOT
000119: 20,2611           57665                           XCH      PCDUYPST
000120: 20,2612           00006                           EXTEND
000121: 20,2613           21665                           MSU      PCDUYPST
000122: 20,2614           02625                           TCR      RLIMTEST                              #        RATE TEST
000123: 20,2615           55671                           TS       MCDUYDOT                              #        (MINUS,  SC.AT  1/2TVCDT REVS/SEC)
000124:
000125: 20,2616           30034                           CAE      CDUZ                                  #  COMPUTE CDUZDOT
000126: 20,2617           57666                           XCH      PCDUZPST
000127: 20,2620           00006                           EXTEND
000128: 20,2621           21666                           MSU      PCDUZPST
000129: 20,2622           02625                           TCR      RLIMTEST                              #        RATE TEST
000130: 20,2623           55672                           TS       MCDUZDOT                              #        (MINUS,  SC.AT  1/2TVCDT REVS/SEC)
000131: 20,2624           12636                           TCF      PINTEGRL
000132:
000133: 20,2625           55640        RLIMTEST           TS       TTMP1                                 #  TEST FOR EXCESSIVE CDU RATES (GREATER
000134: 20,2626           00006                           EXTEND                                         #        THAN 2.33 DEG IN ONE SAMPLE PERIOD)
000135: 20,2627           73556                           MP       1/RTLIM                               #        (USED BY PITCH AND YAW PASSES)
000136: 20,2630           00006                           EXTEND
000137: 20,2631           12634                           BZF      +3
000138: 20,2632           35003                           CAF      ZERO
000139: 20,2633           55640                           TS       TTMP1
000140: 20,2634           31640                           CAE      TTMP1
000141: 20,2635           00002                           TC       Q
000142:
000143: 20,2636           00006        PINTEGRL           EXTEND                                         #  COMPUTE INTEGRAL OF BODY-AXIS PITCH-RATE
000144: 20,2637           31625                           DCA      PERRB                                 #        ERROR, SC.AT B-1 REVS
000145: 20,2640           53714                           DXCH     ERRBTMP
000146:
000147: 20,2641           00006                           EXTEND
000148: 20,2642           31557                           DCA      OMEGAYC
000149: 20,2643           21714                           DAS      ERRBTMP
000150:
000151: 20,2644           41141                           CS       COSCDUZ                               #  PREPARE BODY-AXIS PITCH RATE, OMEGAYB
000152: 20,2645           00006                           EXTEND
000153: 20,2646           71143                           MP       COSCDUX
000154: 20,2647           20001                           DDOUBL
000155: 20,2650           00006                           EXTEND
000156: 20,2651           71671                           MP       MCDUYDOT
000157: 20,2652           20001                           DDOUBL
000158: 20,2653           53565                           DXCH     OMEGAYB
000159:
000160: 20,2654           41672                           CS       MCDUZDOT
000161: 20,2655           00006                           EXTEND
000162: 20,2656           71135                           MP       SINCDUX
000163: 20,2657           20001                           DDOUBL
000164: 20,2660           21565                           DAS      OMEGAYB                               #  OMEGAYB, SCALED (B-1)/TVCDT  REVS/SEC
000165:
000166: 20,2661           00006                           EXTEND                                         #  PICK UP -OMEGAYB (SIGN CHNG, INTEGRATE)
000167: 20,2662           41565                           DCS      OMEGAYB
000168: 20,2663           21714                           DAS      ERRBTMP
000169:
000170: 20,2664           03203        PERORLIM           TCR      ERRORLIM                              #  PITCH BODY-AXIS-ERROR  INPUT LIMITER
000171:
000172: 20,2665           00006        PFORWARD           EXTEND                                         #        PREPARE THE FILTER STORAGE LOCATIONS
000173: 20,2666           31571                           DCA      PTMP1                                 #        FOR THE PITCH CHANNEL
000174: 20,2667           53720                           DXCH     TMP1
000175: 20,2670           00006                           EXTEND
000176: 20,2671           31575                           DCA      PTMP3
000177: 20,2672           53724                           DXCH     TMP3
000178: 20,2673           00006                           EXTEND
000179: 20,2674           31601                           DCA      PTMP5
000180: 20,2675           53730                           DXCH     TMP5
000181:
000182: 20,2676           03235                           TCR      FWDFLTR                               #  GO COMPUTE PRESENT OUTPUT
000183:                                                                                                  #  (INCLUDES VARIABLE GAIN PACKAGE)
000184:
000185: 20,2677           00006        POFFSET            EXTEND
000186: 20,2700           31635                           DCA      PDELOFF
000187: 20,2701           21716                           DAS      CMDTMP                                #  NOW SCALED AT B+0 ASCREV
000188:
000189: 20,2702           03216        PACLIM             TCR      ACTLIM                                #  ROUND OFF & LIMIT PITCH ACTUATOR COMMAND
000190:
000191: 20,2703           41652        POUT               CS       PCMD                                  #  INCREMENTAL PITCH COMMAND
000192: 20,2704           61715                           AD       CMDTMP
000193: 20,2705           26054                           ADS      TVCPITCH                              #  UPDATE THE ERROR COUNTER (NO RESTART-
000194:                                                                                                  #        PROTECT, SINCE ERROR CNTR ZEROED)
000195:
000196: 20,2706           34767                           CAF      BIT11                                 #  BIT FOR TVCPITCH COUNT RELEASE
000197: 20,2707           00006                           EXTEND
000198: 20,2710           05014                           WOR      CHAN14
000199:
000200: 20,2711           00006        PPRECOMP           EXTEND                                         #        PREPARE THE FILTER STORAGE FOR PITCH
000201: 20,2712           31573                           DCA      PTMP2
000202: 20,2713           53722                           DXCH     TMP2
000203: 20,2714           00006                           EXTEND
000204: 20,2715           31577                           DCA      PTMP4
000205: 20,2716           53726                           DXCH     TMP4
000206: 20,2717           00006                           EXTEND
000207: 20,2720           31603                           DCA      PTMP6
000208: 20,2721           53732                           DXCH     TMP6
000209:
000210: 20,2722           03327                           TCR      PRECOMP                               #        TO THE FILTER FOR PRECOMPUTATION
000211:
000212: 20,2723           31631        DELBARP            CAE      DELPBAR    +1                         #  UPDATE PITCH OFFSET-TRACKER-FILTER
000213: 20,2724           00006                           EXTEND
000214: 20,2725           73560                           MP       E(-AT)
000215: 20,2726           55712                           TS       DELBRTMP   +1
000216: 20,2727           31630                           CAE      DELPBAR
000217: 20,2730           00006                           EXTEND
000218: 20,2731           73560                           MP       E(-AT)
000219: 20,2732           21712                           DAS      DELBRTMP
000220: 20,2733           31715                           CAE      CMDTMP
000221: 20,2734           00006                           EXTEND
000222: 20,2735           73557                           MP       1-E(-AT)
000223: 20,2736           21712                           DAS      DELBRTMP
000224:
000225: 20,2737           02741        PCOPYCYC           TCR      PCOPY                                 #  PITCH COPYCYCLE
000226:
000227: 20,2740           15336        PDAPEND            TCF      RESUME                                #  PITCH DAP COMPLETED
000228:
000229:
000230:                                                                                                  #  PITCH TVCDAP COPYCYCLE SUBROUTINE (CALLED VIA PITCH TVCDAP OR TVC RESTART PACKAGE)
000231:
000232: 20,2741           25664        PCOPY              INCR     TVCPHASE                              #  RESTART-PROTECT THE COPYCYCLE.        (1)
000233:                                                                                                  #        NOTE POSSIBLE RE-ENTRY FROM RESTART
000234:                                                                                                  #        PACKAGE, SHOULD A RESTART OCCUR
000235:                                                                                                  #        DURING PITCH COPYCYCLE.
000236:
000237: 20,2742           00006                           EXTEND
000238: 20,2743           31720                           DCA      TMP1
000239: 20,2744           53571                           DXCH     PTMP1
000240: 20,2745           00006                           EXTEND
000241: 20,2746           31722                           DCA      TMP2
000242: 20,2747           53573                           DXCH     PTMP2
000243: 20,2750           00006                           EXTEND
000244: 20,2751           31724                           DCA      TMP3
000245: 20,2752           53575                           DXCH     PTMP3
000246: 20,2753           00006                           EXTEND
000247: 20,2754           31726                           DCA      TMP4
000248: 20,2755           53577                           DXCH     PTMP4
000249: 20,2756           00006                           EXTEND
000250: 20,2757           31730                           DCA      TMP5
000251: 20,2760           53601                           DXCH     PTMP5
000252: 20,2761           00006                           EXTEND
000253: 20,2762           31732                           DCA      TMP6
000254: 20,2763           53603                           DXCH     PTMP6
000255:
000256: 20,2764           00006        PMISC              EXTEND                                         #  MISC....PITCH-RATE-ERROR INTEGRATOR
000257: 20,2765           31714                           DCA      ERRBTMP
000258: 20,2766           55526                           TS       AK1                                   #        FOR PITCH NEEDLES, SC.AT B-1 REVS
000259: 20,2767           53625                           DXCH     PERRB
000260:
000261: 20,2770           31715                           CAE      CMDTMP                                #        PITCH ACTUATOR COMMAND
000262: 20,2771           55652                           TS       PCMD
000263:
000264: 20,2772           00006                           EXTEND                                         #        PITCH OFFSET-TRACKER-FILTER
000265: 20,2773           31712                           DCA      DELBRTMP
000266: 20,2774           53631                           DXCH     DELPBAR
000267:
000268: 20,2775           25664                           INCR     TVCPHASE                              #  PITCH COPYCYCLE COMPLETED             (2)
000269:
000270: 20,2776           00002                           TC       Q
000271:
000272:
000273:                                                                                                  #  YAW TVCDAP STARTS HERE....(INCORPORATES CSM/LEM DAP FILTER,  MODOR DESIGN)
000274:
000275:
000276: 20,2777           22016        YAWDAP             LXCH     BANKRUPT                              #  T5 ENTRY,  NORMAL
000277: 20,3000           00006                           EXTEND
000278: 20,3001           22012                           QXCH     QRUPT
000279:
000280: 20,3002           33553                           CAF      PITCHT5                               #  SET UP T5 CALL FOR PITCH AUTOPILOT (LOW-
000281: 20,3003           54112                           TS       T5LOC                                 #        ORDER PART OF 2CADR ALREADY THERE)
000282: 20,3004           31654                           CAE      T5TVCDT
000283: 20,3005           54030                           TS       TIME5
000284:
000285: 20,3006           30033        YCDUDOTS           CAE      CDUY                                  #  COMPUTE CDUYDOT
000286: 20,3007           57667                           XCH      YCDUYPST
000287: 20,3010           00006                           EXTEND
000288: 20,3011           21667                           MSU      YCDUYPST
000289: 20,3012           02625                           TCR      RLIMTEST                              #        RATE TEST
000290: 20,3013           55671                           TS       MCDUYDOT                              #        (MINUS, SCALED 1/2TVCDT REV/SEC)
000291:
000292: 20,3014           30034                           CAE      CDUZ                                  #  COMPUTE CDUZDOT
000293: 20,3015           57670                           XCH      YCDUZPST
000294: 20,3016           00006                           EXTEND
000295: 20,3017           21670                           MSU      YCDUZPST
000296: 20,3020           02625                           TCR      RLIMTEST                              #        RATE TEST
000297: 20,3021           55672                           TS       MCDUZDOT                              #        (MINUS, SCALED 1/2TVCDT REV/SEC)
000298:
000299: 20,3022           00006        YINTEGRL           EXTEND                                         #  COMPUTE INTEGRAL OF BODY-AXIS YAW-RATE
000300: 20,3023           31627                           DCA      YERRB                                 #        ERROR, SC.AT B-1 REVS
000301: 20,3024           53714                           DXCH     ERRBTMP
000302:
000303: 20,3025           00006                           EXTEND
000304: 20,3026           31561                           DCA      OMEGAZC
000305: 20,3027           21714                           DAS      ERRBTMP
000306:
000307: 20,3030           31141                           CAE      COSCDUZ                               #  PREPARE BODY-AXIS YAW-RATE, OMEGAZB
000308: 20,3031           00006                           EXTEND
000309: 20,3032           71135                           MP       SINCDUX
000310: 20,3033           20001                           DDOUBL
000311: 20,3034           00006                           EXTEND
000312: 20,3035           71671                           MP       MCDUYDOT
000313: 20,3036           20001                           DDOUBL
000314: 20,3037           53567                           DXCH     OMEGAZB
000315:
000316: 20,3040           41672                           CS       MCDUZDOT
000317: 20,3041           00006                           EXTEND
000318: 20,3042           71143                           MP       COSCDUX
000319: 20,3043           20001                           DDOUBL
000320: 20,3044           21567                           DAS      OMEGAZB                               #  OMEGAZB, SCALED (B-1)/TVCDT  REVS/SEC
000321:
000322: 20,3045           00006                           EXTEND                                         #  PICK UP -OMEGAZB (SIGN CHNG, INTEGRATE)
000323: 20,3046           41567                           DCS      OMEGAZB
000324: 20,3047           21714                           DAS      ERRBTMP
000325:
000326: 20,3050           03203        YERORLIM           TCR      ERRORLIM                              #  YAW   BODY-AXIS-ERROR  INPUT LIMITER
000327:
000328: 20,3051           00006        YFORWARD           EXTEND                                         #        PREPARE THE FILTER STORAGE LOCATIONS
000329: 20,3052           31605                           DCA      YTMP1                                 #        FOR THE YAW CHANNEL
000330: 20,3053           53720                           DXCH     TMP1
000331: 20,3054           00006                           EXTEND
000332: 20,3055           31611                           DCA      YTMP3
000333: 20,3056           53724                           DXCH     TMP3
000334: 20,3057           00006                           EXTEND
000335: 20,3060           31615                           DCA      YTMP5
000336: 20,3061           53730                           DXCH     TMP5
000337:
000338: 20,3062           03235                           TCR      FWDFLTR                               #  GO COMPUTE PRESENT OUTPUT
000339:                                                                                                  #  (INCLUDES VARIABLE GAIN PACKAGE)
000340:
000341: 20,3063           00006        YOFFSET            EXTEND
000342: 20,3064           31637                           DCA      YDELOFF
000343: 20,3065           21716                           DAS      CMDTMP                                #  NOW SCALED AT B+0 ASCREV
000344:
000345: 20,3066           03216        YACLIM             TCR      ACTLIM                                #  ROUND OFF & LIMIT YAW ACTUATOR COMMAND
000346:
000347: 20,3067           41653        YOUT               CS       YCMD                                  #  INCREMENTAL YAW   COMMAND
000348: 20,3070           61715                           AD       CMDTMP
000349: 20,3071           26053                           ADS      TVCYAW                                #  UPDATE THE ERROR COUNTER (NO RESTART-
000350:                                                                                                  #        PROTECT, SINCE ERROR CNTR ZEROED)
000351:
000352: 20,3072           34766                           CAF      BIT12                                 #  BIT FOR TVCYAW COUNT RELEASE
000353: 20,3073           00006                           EXTEND
000354: 20,3074           05014                           WOR      CHAN14
000355:
000356: 20,3075           00006        YPRECOMP           EXTEND                                         #        PREPARE THE FILTER STORAGE FOR YAW
000357: 20,3076           31607                           DCA      YTMP2
000358: 20,3077           53722                           DXCH     TMP2
000359: 20,3100           00006                           EXTEND
000360: 20,3101           31613                           DCA      YTMP4
000361: 20,3102           53726                           DXCH     TMP4
000362: 20,3103           00006                           EXTEND
000363: 20,3104           31617                           DCA      YTMP6
000364: 20,3105           53732                           DXCH     TMP6
000365:
000366: 20,3106           03327                           TCR      PRECOMP                               #        TO THE FILTER FOR PRECOMPUTATION
000367:
000368: 20,3107           31633        DELBARY            CAE      DELYBAR    +1                         #  UPDATE YAW   OFFSET-TRACKER-FILTER
000369: 20,3110           00006                           EXTEND
000370: 20,3111           73560                           MP       E(-AT)
000371: 20,3112           55712                           TS       DELBRTMP   +1
000372: 20,3113           31632                           CAE      DELYBAR
000373: 20,3114           00006                           EXTEND
000374: 20,3115           73560                           MP       E(-AT)
000375: 20,3116           21712                           DAS      DELBRTMP
000376: 20,3117           31715                           CAE      CMDTMP
000377: 20,3120           00006                           EXTEND
000378: 20,3121           73557                           MP       1-E(-AT)
000379: 20,3122           21712                           DAS      DELBRTMP
000380:
000381: 20,3123           03125        YCOPYCYC           TCR      YCOPY                                 #  YAW   COPYCYCLE
000382:
000383: 20,3124           15336        YDAPEND            TCF      RESUME                                #  YAW   DAP COMPLETED
000384:
000385:
000386:                                                                                                  #  YAW   TVCDAP COPYCYCLE SUBROUTINE (CALLED VIA YAW   TVCDAP OR TVC RESTART PACKAGE)
000387:
000388: 20,3125           25664        YCOPY              INCR     TVCPHASE                              #  RESTART-PROTECT THE COPYCYCLE.        (3)
000389:                                                                                                  #        NOTE POSSIBLE RE-ENTRY FROM RESTART
000390:                                                                                                  #        PACKAGE, SHOULD A RESTART OCCUR
000391:                                                                                                  #        DURING YAW   COPYCYCLE.
000392:
000393: 20,3126           00006                           EXTEND
000394: 20,3127           31720                           DCA      TMP1
000395: 20,3130           53605                           DXCH     YTMP1
000396: 20,3131           00006                           EXTEND
000397: 20,3132           31722                           DCA      TMP2
000398: 20,3133           53607                           DXCH     YTMP2
000399: 20,3134           00006                           EXTEND
000400: 20,3135           31724                           DCA      TMP3
000401: 20,3136           53611                           DXCH     YTMP3
000402: 20,3137           00006                           EXTEND
000403: 20,3140           31726                           DCA      TMP4
000404: 20,3141           53613                           DXCH     YTMP4
000405: 20,3142           00006                           EXTEND
000406: 20,3143           31730                           DCA      TMP5
000407: 20,3144           53615                           DXCH     YTMP5
000408: 20,3145           00006                           EXTEND
000409: 20,3146           31732                           DCA      TMP6
000410: 20,3147           53617                           DXCH     YTMP6
000411:
000412: 20,3150           00006        YMISC              EXTEND                                         #  MISC....YAW-RATE-ERROR INTEGRATOR
000413: 20,3151           31714                           DCA      ERRBTMP
000414: 20,3152           55527                           TS       AK2                                   #        FOR YAW   NEEDLES, SC.AT B-1 REVS
000415: 20,3153           53627                           DXCH     YERRB
000416:
000417: 20,3154           31715                           CAE      CMDTMP
000418: 20,3155           55653                           TS       YCMD
000419:
000420: 20,3156           00006                           EXTEND
000421: 20,3157           31712                           DCA      DELBRTMP
000422: 20,3160           53633                           DXCH     DELYBAR
000423:
000424: 20,3161           35003                           CAF      ZERO                                  #  YAW   COPYCYCLE COMPLETED
000425: 20,3162           55664                           TS       TVCPHASE                              #        RESET TVCPHASE
000426:
000427: 20,3163           00002                           TC       Q
000428:
000429:
000430:                                                                                                  #  SUBROUTINES COMMON TO BOTH PITCH AND YAW DAPS....
000431:
000432:
000433:                                                                                                  #  INITIALIZATION PACKAGE FOR CDURATES....
000434:
000435: 20,3164           22016        DAPINIT            LXCH     BANKRUPT                              #  T5 RUPT ENTRY (CALLED BY TVCINT4)
000436:
000437: 20,3165           37702                           CAF      NEGONE                                #        SET UP
000438: 20,3166           61654                           AD       T5TVCDT                               #        T5 CALL FOR PITCHDAP IN TVCDT SECS
000439: 20,3167           64763                           AD       NEGMAX                                #        (T5TVCDT = POSMAX - TVCDT/2 +1)
000440: 20,3170           61654                           AD       T5TVCDT
000441: 20,3171           54030                           TS       TIME5
000442: 20,3172           33553                           CAF      PITCHT5                               #        (BBCON ALREADY THERE)
000443: 20,3173           54112                           TS       T5LOC
000444:
000445: 20,3174           30033                           CAE      CDUY                                  #  READ AND STORE CDUS FOR DIFFERENTIATOR
000446: 20,3175           55665                           TS       PCDUYPST                              #        PAST-VALUES
000447: 20,3176           55667                           TS       YCDUYPST
000448: 20,3177           30034                           CAE      CDUZ
000449: 20,3200           55666                           TS       PCDUZPST
000450: 20,3201           55670                           TS       YCDUZPST
000451:
000452: 20,3202           15340                           TCF      NOQRSM
000453:
000454:
000455:                                                                                                  #  BODY-AXIS-ERROR  INPUT LIMITER PACKAGE....
000456:
000457: 20,3203           31713        ERRORLIM           CAE      ERRBTMP                               #  CHECK FOR INPUT-ERROR LIMIT
000458: 20,3204           00006                           EXTEND                                         #        CHECKS UPPER WORD ONLY
000459: 20,3205           74777                           MP       1/ERRLIM
000460: 20,3206           00006                           EXTEND
000461: 20,3207           13215                           BZF      +6
000462: 20,3210           11713                           CCS      ERRBTMP
000463: 20,3211           34765                           CAF      ERRLIM
000464: 20,3212           13214                           TCF      +2
000465: 20,3213           44765                           CS       ERRLIM
000466: 20,3214           55713                           TS       ERRBTMP                               #  LIMIT WRITES OVER UPPER WORD ONLY
000467:
000468: 20,3215           00002                           TC       Q
000469:
000470:
000471:                                                                                                  #  ACTUATOR-COMMAND LIMITER PACKAGE....
000472:
000473: 20,3216           31716        ACTLIM             CAE      CMDTMP     +1                         #  ROUND UP FOR OUTPUT
000474: 20,3217           60000                           DOUBLE
000475: 20,3220           54001                           TS       L
000476: 20,3221           35003                           CAF      ZERO
000477: 20,3222           61715                           AD       CMDTMP
000478:
000479: 20,3223           00006                           EXTEND                                         #  CHECK FOR ACTUATOR COMMAND LIMIT
000480: 20,3224           73552                           MP       1/ACTSAT
000481: 20,3225           00006                           EXTEND
000482: 20,3226           13234                           BZF      +6
000483: 20,3227           11715                           CCS      CMDTMP                                #  APPLY LIMITS
000484: 20,3230           33551                           CAF      ACTSAT
000485: 20,3231           13233                           TCF      +2
000486: 20,3232           43551                           CS       ACTSAT
000487: 20,3233           55715                           TS       CMDTMP                                #  LIMITS WRITE OVER CMDTMP
000488:
000489: 20,3234           00002                           TC       Q
000490:
000491:                                                                                                  #  FILTER COMPUTATIONS FOR PRESENT OUTPUT................
000492:
000493: 20,3235           35003        FWDFLTR            CAF      ZERO
000494: 20,3236           55644                           TS       DAP1
000495: 20,3237           55646                           TS       DAP2
000496: 20,3240           55650                           TS       DAP3
000497: 20,3241           55715                           TS       CMDTMP
000498:
000499: 20,3242           55711                           TS       DELBRTMP
000500:
000501: 20,3243           31714        1DAPCAS            CAE      ERRBTMP    +1                         #  FIRST DAP CASCADE
000502: 20,3244           00006                           EXTEND
000503: 20,3245           71734                           MP       N10                                   #        N10
000504: 20,3246           55645                           TS       DAP1       +1
000505: 20,3247           31713                           CA       ERRBTMP
000506: 20,3250           00006                           EXTEND
000507: 20,3251           71734                           MP       N10                                   #        N10
000508: 20,3252           21645                           DAS      DAP1
000509: 20,3253           53720                           DXCH     TMP1
000510: 20,3254           21645                           DAS      DAP1
000511:
000512: 20,3255           31645        2DAPCAS            CAE      DAP1       +1                         #  SECOND DAP CASCADE
000513: 20,3256           00006                           EXTEND
000514: 20,3257           71741                           MP       N10        +5                         #        N20
000515: 20,3260           55647                           TS       DAP2       +1
000516: 20,3261           31644                           CA       DAP1
000517: 20,3262           00006                           EXTEND
000518: 20,3263           71741                           MP       N10        +5                         #        N20
000519: 20,3264           21647                           DAS      DAP2
000520: 20,3265           53724                           DXCH     TMP3
000521: 20,3266           21647                           DAS      DAP2
000522:
000523: 20,3267           31514                           CAE      DAPDATR1                              #  TEST FOR LEM ON OR OFF
000524: 20,3270           74764                           MASK     BIT14
000525: 20,3271           10000                           CCS      A
000526: 20,3272           13301                           TCF      3DAPCAS                               #  LEM ON
000527: 20,3273           00006                           EXTEND                                         #  LEM OFF
000528: 20,3274           31647                           DCA      DAP2
000529: 20,3275           20001                           DDOUBL
000530: 20,3276           20001                           DDOUBL
000531: 20,3277           53651                           DXCH     DAP3
000532: 20,3300           13313                           TCF      OPTVARK
000533:
000534: 20,3301           31647        3DAPCAS            CAE      DAP2       +1                         #  THIRD DAP CASCADE
000535: 20,3302           00006                           EXTEND
000536: 20,3303           71746                           MP       N10        +10D                       #        N30
000537: 20,3304           55651                           TS       DAP3       +1
000538: 20,3305           31646                           CA       DAP2
000539: 20,3306           00006                           EXTEND
000540: 20,3307           71746                           MP       N10        +10D                       #        N30
000541: 20,3310           21651                           DAS      DAP3
000542: 20,3311           53730                           DXCH     TMP5
000543: 20,3312           21651                           DAS      DAP3
000544:
000545: 20,3313           41651        OPTVARK            CS       DAP3       +1                         #  VARIABLE GAIN PACKAGE
000546: 20,3314           00006                           EXTEND                                         #  (ALSO, SIGN CHANGE IN FORWARD LOOP)
000547: 20,3315           71661                           MP       VARK                                  #        SCALED (1.08 B+2)   CSM/LM
000548: 20,3316           55716                           TS       CMDTMP     +1                         #               (  "  B+4)   CSM
000549: 20,3317           41650                           CS       DAP3
000550: 20,3320           00006                           EXTEND
000551: 20,3321           71661                           MP       VARK
000552: 20,3322           21716                           DAS      CMDTMP
000553:
000554: 20,3323           53716                           DXCH     CMDTMP                                #  FIX UP SCALING - SCALED B+1 ASCREV
000555: 20,3324           20001                           DDOUBL
000556: 20,3325           53716                           DXCH     CMDTMP                                #                 - SCALED B+0 ASCREV
000557:                                                                                                  #  NOTE - THERE IS AN INHERANT GAIN OF
000558:                                                                                                  #  (B+1 ASCREV/REV) ON THE OUTPUT DACS.
000559:
000560: 20,3326           00002                           TC       Q
000561:
000562:
000563:                                                                                                  #  FILTER PRECOMPUTATIONS FOR NEXT PASS...................
000564:
000565: 20,3327           35003        PRECOMP            CAF      ZERO                                  #  *****  FIRST CASCADE FILTER  **********
000566: 20,3330           55640                           TS       TTMP1
000567: 20,3331           55642                           TS       TTMP2
000568:
000569: 20,3332           31714                           CA       ERRBTMP    +1                         #  MULTIPLY INPUT BY
000570: 20,3333           00006                           EXTEND
000571: 20,3334           71735                           MP       N10        +1                         #        N11/2
000572: 20,3335           55641                           TS       TTMP1      +1
000573: 20,3336           31713                           CA       ERRBTMP
000574: 20,3337           00006                           EXTEND
000575: 20,3340           71735                           MP       N10        +1                         #        N11/2
000576: 20,3341           21641                           DAS      TTMP1
000577:
000578: 20,3342           41645                           CS       DAP1       +1                         #  MULTIPLY OUTPUT BY
000579: 20,3343           00006                           EXTEND
000580: 20,3344           71737                           MP       N10        +3                         #        D11/2
000581: 20,3345           55643                           TS       TTMP2      +1
000582: 20,3346           41644                           CS       DAP1
000583: 20,3347           00006                           EXTEND
000584: 20,3350           71737                           MP       N10        +3                         #        D11/2
000585: 20,3351           21643                           DAS      TTMP2
000586:
000587: 20,3352           53643                           DXCH     TTMP2
000588: 20,3353           21641                           DAS      TTMP1
000589: 20,3354           53641                           DXCH     TTMP1
000590: 20,3355           20001                           DDOUBL
000591: 20,3356           21722                           DAS      TMP2
000592:
000593: 20,3357           53722                           DXCH     TMP2
000594: 20,3360           53720                           DXCH     TMP1
000595:
000596: 20,3361           35003                           CAF      ZERO
000597: 20,3362           55640                           TS       TTMP1
000598: 20,3363           55721                           TS       TMP2
000599:
000600: 20,3364           31714                           CA       ERRBTMP    +1                         #  MULTIPLY INPUT  BY
000601: 20,3365           00006                           EXTEND                                         #  SECOND-ORDER NUMERATOR COEFF.
000602: 20,3366           71736                           MP       N10        +2                         #        N12
000603: 20,3367           55641                           TS       TTMP1      +1
000604: 20,3370           31713                           CA       ERRBTMP
000605: 20,3371           00006                           EXTEND
000606: 20,3372           71736                           MP       N10        +2                         #        N12
000607: 20,3373           21641                           DAS      TTMP1
000608:
000609: 20,3374           41645                           CS       DAP1       +1                         #  MULTIPLY OUTPUT BY
000610: 20,3375           00006                           EXTEND
000611: 20,3376           71740                           MP       N10        +4                         #        D12
000612: 20,3377           55722                           TS       TMP2       +1
000613: 20,3400           41644                           CS       DAP1
000614: 20,3401           00006                           EXTEND
000615: 20,3402           71740                           MP       N10        +4                         #        D12
000616: 20,3403           21722                           DAS      TMP2
000617:
000618: 20,3404           53641                           DXCH     TTMP1
000619: 20,3405           21722                           DAS      TMP2
000620:
000621: 20,3406           35003        2CASFLTR           CAF      ZERO                                  #  *****SECOND CASCADE FILTER*****
000622: 20,3407           55640                           TS       TTMP1
000623: 20,3410           55642                           TS       TTMP2
000624:
000625: 20,3411           31645                           CA       DAP1       +1                         #  MULTIPLY INPUT BY
000626: 20,3412           00006                           EXTEND
000627: 20,3413           71742                           MP       N10        +6                         #        N21/2
000628: 20,3414           55641                           TS       TTMP1      +1
000629: 20,3415           31644                           CA       DAP1
000630: 20,3416           00006                           EXTEND
000631: 20,3417           71742                           MP       N10        +6                         #        N21/2
000632: 20,3420           21641                           DAS      TTMP1
000633:
000634: 20,3421           41647                           CS       DAP2       +1                         #  MULTIPLY OUTPUT BY
000635: 20,3422           00006                           EXTEND
000636: 20,3423           71744                           MP       N10        +8D                        #        D21/2
000637: 20,3424           55643                           TS       TTMP2      +1
000638: 20,3425           41646                           CS       DAP2
000639: 20,3426           00006                           EXTEND
000640: 20,3427           71744                           MP       N10        +8D                        #        D21/2
000641: 20,3430           21643                           DAS      TTMP2
000642:
000643: 20,3431           53643                           DXCH     TTMP2
000644: 20,3432           21641                           DAS      TTMP1
000645: 20,3433           53641                           DXCH     TTMP1
000646: 20,3434           20001                           DDOUBL
000647: 20,3435           21726                           DAS      TMP4
000648:
000649: 20,3436           53726                           DXCH     TMP4
000650: 20,3437           53724                           DXCH     TMP3
000651:
000652: 20,3440           35003                           CAF      ZERO
000653: 20,3441           55640                           TS       TTMP1
000654: 20,3442           55725                           TS       TMP4
000655:
000656: 20,3443           31645                           CA       DAP1       +1                         #  MULTIPLY INPUT  BY
000657: 20,3444           00006                           EXTEND
000658: 20,3445           71743                           MP       N10        +7                         #        N22
000659: 20,3446           55641                           TS       TTMP1      +1
000660: 20,3447           31644                           CA       DAP1
000661: 20,3450           00006                           EXTEND
000662: 20,3451           71743                           MP       N10        +7                         #        N22
000663: 20,3452           21641                           DAS      TTMP1
000664:
000665: 20,3453           41647                           CS       DAP2       +1                         #  MULTIPLY OUTPUT BY
000666: 20,3454           00006                           EXTEND
000667: 20,3455           71745                           MP       N10        +9D                        #        D22
000668: 20,3456           55726                           TS       TMP4       +1
000669: 20,3457           41646                           CS       DAP2
000670: 20,3460           00006                           EXTEND
000671: 20,3461           71745                           MP       N10        +9D                        #        D22
000672: 20,3462           21726                           DAS      TMP4
000673:
000674: 20,3463           53641                           DXCH     TTMP1
000675: 20,3464           21726                           DAS      TMP4
000676: 20,3465           31514                           CAE      DAPDATR1                              #  TEST FOR LEM ON OR OFF
000677: 20,3466           74765                           MASK     BIT13
000678: 20,3467           10000                           CCS      A
000679: 20,3470           00002                           TC       Q                                     #  EXIT IF LEM OFF
000680:
000681: 20,3471           35003        3CASFLTR           CAF      ZERO                                  #  *****THIRD CASCADE FILTER*****
000682: 20,3472           55640                           TS       TTMP1
000683: 20,3473           55642                           TS       TTMP2
000684:
000685: 20,3474           31647                           CA       DAP2       +1                         #  MULTIPLY INPUT  BY (1/2)
000686: 20,3475           00006                           EXTEND
000687: 20,3476           71747                           MP       N10        +11D                       #        N31/2
000688: 20,3477           55641                           TS       TTMP1      +1
000689: 20,3500           31646                           CA       DAP2
000690: 20,3501           00006                           EXTEND
000691: 20,3502           71747                           MP       N10        +11D                       #        N31/2
000692: 20,3503           21641                           DAS      TTMP1
000693:
000694: 20,3504           41651                           CS       DAP3       +1
000695: 20,3505           00006                           EXTEND
000696: 20,3506           71751                           MP       N10        +13D                       #        D31/2
000697: 20,3507           55643                           TS       TTMP2      +1
000698: 20,3510           41650                           CS       DAP3
000699: 20,3511           00006                           EXTEND
000700: 20,3512           71751                           MP       N10        +13D                       #        D31/2
000701: 20,3513           21643                           DAS      TTMP2
000702:
000703: 20,3514           53643                           DXCH     TTMP2
000704: 20,3515           21641                           DAS      TTMP1
000705: 20,3516           53641                           DXCH     TTMP1
000706: 20,3517           20001                           DDOUBL
000707: 20,3520           21732                           DAS      TMP6
000708:
000709: 20,3521           53732                           DXCH     TMP6
000710: 20,3522           53730                           DXCH     TMP5
000711:
000712: 20,3523           35003                           CAF      ZERO
000713: 20,3524           55640                           TS       TTMP1
000714: 20,3525           55731                           TS       TMP6
000715:
000716: 20,3526           31647                           CA       DAP2       +1                         #  MULTIPLY INPUT  BY
000717: 20,3527           00006                           EXTEND
000718: 20,3530           71750                           MP       N10        +12D                       #        N32
000719: 20,3531           55641                           TS       TTMP1      +1
000720: 20,3532           31646                           CA       DAP2
000721: 20,3533           00006                           EXTEND
000722: 20,3534           71750                           MP       N10        +12D                       #        N32
000723: 20,3535           21641                           DAS      TTMP1
000724:
000725: 20,3536           41651                           CS       DAP3       +1
000726: 20,3537           00006                           EXTEND
000727: 20,3540           71752                           MP       N10        +14D                       #        D32
000728: 20,3541           55732                           TS       TMP6       +1
000729: 20,3542           41650                           CS       DAP3
000730: 20,3543           00006                           EXTEND
000731:
000732: 20,3544           71752                           MP       N10        +14D                       #        D32
000733: 20,3545           21732                           DAS      TMP6
000734:
000735: 20,3546           53641                           DXCH     TTMP1
000736: 20,3547           21732                           DAS      TMP6
000737:
000738: 20,3550           00002                           TC       Q
000739:
000740:
000741:                                                                                                  #  CONSTANTS FOR AUTOPILOTS
000742:
000743:                                                                                                  #  NOTE....1 ASCREV (ACTUATOR CMD SCALING) = 85.41 ARCSEC/BIT OR 1.07975111 REVS (85.41X16384/3600/360)
000744:
000745:                                                                                                  #          1 SPASCREV (SPECIAL ACTUATOR CMD SCALING) = 1.04620942 REVS
000746:
000747: 20,3551           00375        ACTSAT             DEC      253        B-14                       #  ACTUATOR LIMIT (6 DEG),  SC.AT 1ASCREV
000748: 20,3552           00101        1/ACTSAT           DEC      .0039525692                            #  RECIPROCAL (1/253)
000749:
000750: 20,3553     4765               ERRLIM             EQUALS   BIT13                                 #  FILTER INPUT LIMIT....B-3 REVS (45DEG),
000751: 20,3553     4777               1/ERRLIM           EQUALS   BIT3                                  #        SC.AT B-1 REV, AND ITS RECIPROCAL
000752:
000753: 20,3553           02601        PITCHT5            GENADR   PITCHDAP                              #  UPPER WORDS OF T5 2CADRS, LOWER WORDS
000754: 20,3554           03164        DAPT5              GENADR   DAPINIT                               #        (BBCON) ALREADY THERE.  ORDER IS
000755: 20,3555           02777        YAWT5              GENADR   YAWDAP                                #        REQUIRED.
000756:
000757:
000758: 20,3556           00115        1/RTLIM            DEC      0.004715                              #  .004715(CDUDIF) = 0 IF CDUDIF < 2.33 DEG
000759: 20,3557           00243        1-E(-AT)           OCT      00243                                 #  AT = .01SEC....EITHER(1/A=4SEC, T=40MS),
000760: 20,3560           37535        E(-AT)             OCT      37535                                 #                     OR(1/A=8SEC, T=80MS)

End of include-file TVCDAPS.agc.  Parent file is MAIN.agc


