
Source Code


000002:                                                                                                  ## Copyright:   Public domain.
000003:                                                                                                  ## Filename:    TVCEXECUTIVE.agc
000004:                                                                                                  ## Purpose:     A section of Skylark revision 048.
000005:                                                                                                  ##              It is part of the source code for the Apollo Guidance Computer (AGC)
000006:                                                                                                  ##              for Skylab-2, Skylab-3, Skylab-4, and ASTP. No original listings of
000007:                                                                                                  ##              this software are available; instead, this file was created via
000008:                                                                                                  ##              disassembly of dumps of the core rope modules actually flown on
000009:                                                                                                  ##              Skylab-2. Access to these modules was provided by the New Mexico
000010:                                                                                                  ##              Museum of Space History.
000011:                                                                                                  ## Assembler:   yaYUL
000012:                                                                                                  ## Contact:     Ron Burkey <info@sandroid.org>.
000013:                                                                                                  ## Website:     www.ibiblio.org/apollo/index.html
000014:                                                                                                  ## Mod history: 2023-09-04 MAS  Created from Artemis 072.
000015:
000016:                                                                                                  #  PROGRAM NAME.... TVCEXECUTIVE, CONSISTING OF TVCEXEC, NEEDLEUP, VARGAINS
000017:                                                                                                  #                   1SHOTCHK, REPCHEK, CG.CORR, COPYCYCLES, ETC.
000018:                                                                                                  #  LOG SECTION...TVCEXECUTIVE                    SUBROUTINE...DAPCSM
000019:                                                                                                  #  MODIFIED BY SCHLUNDT                          21 OCTOBER 1968
000020:                                                                                                  #  MODIFIED BY BEALS TO ELIMINATE CSMMASS UPDATE LOGIC (NOW DONE IN S40.8)
000021:                                                                                                  #  FUNCTIONAL DESCRIPTION....
000022:
000023:                                                                                                  #       *A SELF-PERPETUATING WAITLIST TASK AT 1/2 SECOND INTERVALS WHICH:
000024:                                                                                                  #        PREPARES THE ROLL DAP WITH OGA (CDUX)
000025:                                                                                                  #        PREPARES THE ROLL FDAI NEEDLE (FLY-TO  OGA ERROR)
000026:                                                                                                  #        PREPARES THE ROLL PHASE PLANE  OGAERR  (FLY-FROM  OGA ERROR)
000027:                                                                                                  #        PREPARES THE TVC ROLLDAP TASK WAITLIST CALL (3 CS DELAY)
000028:                                                                                                  #        UPDATES THE NEEDLES DISPLAY
000029:                                                                                                  #        CALLS MASSPROP TO UPDATE INERTIA DATA
000030:                                                                                                  #        UPDATES PITCH, YAW, AND ROLL DAP GAINS FROM MASSPROP DATA
000031:                                                                                                  #        PERFORMS ONE-SHOT CORRECTION FOR TMC LOOP 0-3 SEC AFTER IGNITION
000032:                                                                                                  #        PERFORMS REPETITIVE UPDATES FOR TMC LOOP AFTER THE ONE-SHOT CORR.
000033:
000034:                                                                                                  #  CALLING SEQUENCE....
000035:
000036:                                                                                                  #       *TVCEXEC CALLED AS A WAITLIST TASK, IN PARTICULAR BY TVCINIT4 AND BY
000037:                                                                                                  #        ITSELF, BOTH AT 1/2 SECOND INTERVALS
000038:
000039:                                                                                                  #  NORMAL EXIT MODE.... TASKOVER
000040:
000041:                                                                                                  #  ALARM OR ABORT EXIT MODES.... NONE
000042:
000043:                                                                                                  #  SUBROUTINES CALLED....NEEDLER, S40.15, MASSPROP, TASKOVER, IBNKCALL
000044:
000045:                                                                                                  #  OTHER INTERFACES....
000046:
000047:                                                                                                  #       *TVCRESTART PACKAGE FOR RESTARTS
000048:                                                                                                  #       *PITCHDAP, YAWDAP FOR VARIABLE GAINS AND ENGINE TRIM ANGLES
000049:                                                                                                  #  ERASABLE INITIALIZATION REQUIRED....
000050:
000051:                                                                                                  #       *SEE TVCDAPON....TVCINIT4
000052:                                                                                                  #       *VARK AND 1/CONACC (S40.15 OF TVCINITIALIZE)
000053:                                                                                                  #       *PAD LOAD EREPFRAC
000054:                                                                                                  #       *BITS 15,14 OF FLAGWRD6 (T5 BITS)
000055:                                                                                                  #       *TVCEXPHS FOR RESTARTS
000056:                                                                                                  #       *ENGINE-ON BIT (11.13) FOR RESTARTS
000057:                                                                                                  #       *CDUX, OGAD
000058:
000059:                                                                                                  #  OUTPUT....
000060:
000061:                                                                                                  #       *ROLL DAP OGANOW, FDAI NEEDLE (AK). AND PHASE PLANE OGAERR
000062:                                                                                                  #       *VARIABLE GAINS FOR PITCH/YAW AND ROLL TVC DAPS
000063:                                                                                                  #       *SINGLE-SHOT AND REPETITIVE CORRECTIONS TO ENGINE TRIM ANGLES
000064:                                                                                                  #        PACTOFF AND YACTOFF
000065:                                                                                                  #  DEBRIS.... MUCH, BUT SHAREABLE WITH RCS/ENTRY, ALL IN EBANK6
000066:
000067: 16,2000                                           SETLOC   DAPROLL
000068: 16,2000                                           BANK
000069: 16,3013  E6,1453                                  EBANK=   CNTR
000070: 16,3013                                           COUNT*   $$/TVCX
000071:
000072:
000073: 16,3013           40102        TVCEXEC            CS       FLAGWRD6                              #  CHECK FOR TERMINATION (BITS 15,14 READ
000074: 16,3014           74076                           MASK     DPCONFIG                              #  10 FROM TVCDAPON TO RCSDAPON
000075: 16,3015           00006                           EXTEND
000076: 16,3016           63173                           BZMF     TVCEXFIN                              #  TERMINATE
000077:
000078: 16,3017           35023                           CAF      .5SEC                                 #  W.L. CALL TO PERPETUATE TVCEXEC
000079: 16,3020           05236                           TC       TWIDDLE
000080: 16,3021           03013                           ADRES    TVCEXEC
000081: 16,3022           30032        ROLLPREP           CAE      CDUX                                  #  UPDATE ROLL LADDERS (NO NEED TO RESTART-
000082: 16,3023           57674                           XCH      OGANOW                                #        PROTECT, SINCE ROLL DAPS RE-START)
000083: 16,3024           57675                           XCH      OGAPAST
000084:
000085: 16,3025           31454                           CAE      OGAD                                  #  PREPARE ROLL FDAI NEEDLE  WITH FLY-TO
000086: 16,3026           00006                           EXTEND                                         #        ERROR (COMMAND - MEASURED)
000087: 16,3027           21674                           MSU      OGANOW
000088: 16,3030           55525                           TS       AK                                    #  FLY-TO OGA ERROR, SC.AT B-1 REVS
000089:
000090: 16,3031           00006                           EXTEND                                         #  PREPARE ROLL DAP PHASE PLANE  OGAERR
000091: 16,3032           74762                           MP       -BIT14
000092: 16,3033           55676                           TS       OGAERR                                #  PHASE-PLANE (FLY-FROM) OGAERROR,
000093:                                                                                                  #        SC.AT B+0 REVS
000094:
000095: 16,3034           36214                           CAF      THREE                                 #  SET UP ROLL DAP TASK (ALLOW SOME TIME)
000096: 16,3035           05236                           TC       TWIDDLE
000097: 16,3036           03316                           ADRES    ROLLDAP
000098: 16,3037           04725        NEEDLEUP           TC       IBNKCALL                              #  DO A NEEDLES UPDATE (RETURNS AFTER CADR)
000099: 16,3040           31660                           CADR     NEEDLER                               #        (NEEDLES RESTARTS ITSELF)
000100:
000101: 16,3041           11663        VARGAINS           CCS      VCNTR                                 #  TEST FOR GAIN UPDATE TIME
000102: 16,3042           13050                           TCF      EXECCOPY                              #  NOT YET
000103: 16,3043           04725        GAINCHNG           TC       IBNKCALL                              #  UPDATE IXX, IAVG, IAVG/TLX
000104: 16,3044           13345                           CADR     FIXCW                                 #  MASSPROP ENTRY  (ALREADY INITIALIZED)
000105: 16,3045           04725                           TC       IBNKCALL                              #  UPDATE 1/CONACC, VARK
000106: 16,3046           36510                           CADR     S40.15                                #        (S40.15 IS IN TVCINITIALIZE)
000107: 16,3047           34351                           CAF      NINETEEN                              #  RESET THE VARIABLE-GAIN UPDATE COUNTER
000108: 16,3050           55663        EXECCOPY           TS       VCNTR
000109: 16,3051           11453        1SHOTCHK           CCS      CNTR                                  #  CHECK TIME FOR ONE-SHOT OR REPCORR
000110: 16,3052           13056                           TCF      +4                                    #        NOT YET
000111: 16,3053           13071                           TCF      1SHOTOK                               #        NOW
000112: 16,3054           13062                           TCF      REPCHEK                               #        ONE-SHOT OVER, ON TO REPCORR
000113: 16,3055           13071                           TCF      1SHOTOK                               #        NOW  (ONE-SHOT ONLY, NO REPCORR)
000114:
000115: 16,3056           55710                 +4        TS       CNTRTMP                               #  COUNT DOWN
000116: 16,3057           34777                           CAF      FOUR                                  #  SET UP TVCEXPHS FOR ENTRY AT CNTRCOPY
000117: 16,3060           55673                           TS       TVCEXPHS
000118: 16,3061           13171                           TCF      CNTRCOPY
000119:
000120: 16,3062           31662        REPCHEK            CAE      REPFRAC                               #  CHECK FOR REPETITIVE UPDATES
000121: 16,3063           00006                           EXTEND
000122: 16,3064           63173                           BZMF     TVCEXFIN                              #        NO, OVER-AND-OUT
000123: 16,3065           55452                           TS       TEMPDAP    +1                         #        YES, SET UP CORRECTION FRACTION
000124: 16,3066           35000                           CAF      TWO                                   #  SET UP TVCEXPHS FOR ENTRY AT CORSETUP
000125: 16,3067           55673                           TS       TVCEXPHS
000126: 16,3070           13102                           TCF      CORSETUP
000127:
000128: 16,3071           34773        1SHOTOK            CAF      ENGONBIT
000129: 16,3072           70101                           MASK     FLAGWRD5
000130: 16,3073           10000                           CCS      A
000131: 16,3074           13076                           TCF      +2                                    #        ONE-SHOT OK
000132: 16,3075           13173                           TCF      TVCEXFIN                              #        NO, TERMINATE
000133:
000134: 16,3076           25673                           INCR     TVCEXPHS                              #                                        (1)
000135: 16,3077           34765        TEMPSET            CAF      FCORFRAC                              #        SET UP CORRECTION FRACTION
000136: 16,3100           55452                           TS       TEMPDAP    +1
000137:
000138: 16,3101           25673                           INCR     TVCEXPHS                              #  ENTRY FROM REPCHECK AT NEXT LOCATION  (2)
000139: 16,3102           31514        CORSETUP           CAE      DAPDATR1                              #  CHECK FOR LEM-OFF/ON
000140: 16,3103           74765                           MASK     BIT13                                 #  (NOTE, SHOWS LEM-OFF)
000141: 16,3104           00006                           EXTEND
000142: 16,3105           13107                           BZF      +2                                    #  LEM IS ON,  PICK UP   TEMPDAP+1
000143: 16,3106           31452                           CAE      TEMPDAP    +1                         #  LEM IS OFF, PICK UP 2(TEMPDAP+1)
000144: 16,3107           61452                           AD       TEMPDAP    +1
000145: 16,3110           55451                           TS       TEMPDAP                               #  CG.CORR USES TEMPDAP
000146:
000147: 16,3111           37702                           CAF      NEGONE                                #  SET UP FOR CNTR = -1 (ONE-SHOT DONE)
000148: 16,3112           55710                           TS       CNTRTMP                               #        (COPYCYCLE AT .CNTRCOPY.)
000149:
000150: 16,3113           00006        CG.CORR            EXTEND                                         #  PITCH TMC LOOP
000151: 16,3114           31635                           DCA      PDELOFF
000152: 16,3115           53705                           DXCH     PACTTMP
000153: 16,3116           00006                           EXTEND
000154: 16,3117           41635                           DCS      PDELOFF
000155: 16,3120           20001                           DDOUBL
000156: 16,3121           20001                           DDOUBL
000157: 16,3122           53641                           DXCH     TTMP1
000158: 16,3123           00006                           EXTEND
000159: 16,3124           31631                           DCA      DELPBAR
000160: 16,3125           20001                           DDOUBL
000161: 16,3126           20001                           DDOUBL
000162: 16,3127           21641                           DAS      TTMP1
000163: 16,3130           00006                           EXTEND
000164: 16,3131           31641                           DCA      TTMP1
000165: 16,3132           00006                           EXTEND
000166: 16,3133           71451                           MP       TEMPDAP
000167: 16,3134           21705                           DAS      PACTTMP
000168:
000169: 16,3135           00006                           EXTEND                                         #  YAW TMC LOOP
000170: 16,3136           31637                           DCA      YDELOFF
000171: 16,3137           53707                           DXCH     YACTTMP
000172: 16,3140           00006                           EXTEND
000173: 16,3141           41637                           DCS      YDELOFF
000174: 16,3142           20001                           DDOUBL
000175: 16,3143           20001                           DDOUBL
000176: 16,3144           53641                           DXCH     TTMP1
000177: 16,3145           00006                           EXTEND
000178: 16,3146           31633                           DCA      DELYBAR
000179: 16,3147           20001                           DDOUBL
000180: 16,3150           20001                           DDOUBL
000181: 16,3151           21641                           DAS      TTMP1
000182: 16,3152           00006                           EXTEND
000183: 16,3153           31641                           DCA      TTMP1
000184: 16,3154           00006                           EXTEND
000185: 16,3155           71451                           MP       TEMPDAP
000186: 16,3156           21707                           DAS      YACTTMP
000187:
000188: 16,3157           25673        CORCOPY            INCR     TVCEXPHS                              #  RESTART PROTECT THE COPYCYCLE         (3)
000189: 16,3160           00006                           EXTEND                                         #  TRIM-ESTIMATES, AND
000190: 16,3161           31705                           DCA      PACTTMP
000191: 16,3162           55410                           TS       PACTOFF                               #        TRIMS
000192: 16,3163           53635                           DXCH     PDELOFF
000193:
000194: 16,3164           00006                           EXTEND
000195: 16,3165           31707                           DCA      YACTTMP
000196: 16,3166           55411                           TS       YACTOFF
000197: 16,3167           53637                           DXCH     YDELOFF
000198:
000199: 16,3170           25673                           INCR     TVCEXPHS                              #  ENTRY FROM 1SHOTCHK AT NEXT LOCATION  (4)
000200: 16,3171           31710        CNTRCOPY           CAE      CNTRTMP                               #  UPDATE CNTR (RESTARTS OK, FOLLOWS CPYCY)
000201: 16,3172           55453                           TS       CNTR
000202:
000203: 16,3173           35003        TVCEXFIN           CAF      ZERO                                  #  RESET TVCEXPHS
000204: 16,3174           55673                           TS       TVCEXPHS
000205: 16,3175           15327                           TCF      TASKOVER                              #  TVCEXECUTIVE FINISHED
000206:
000207:
000208: 16,3176     4765               FCORFRAC           =        BIT13                                 #  ONE-SHOT CORRECTION FRACTION

End of include-file TVCEXECUTIVE.agc.  Parent file is MAIN.agc


