
Source Code


000002:                                                                                                  ## Copyright:   Public domain.
000003:                                                                                                  ## Filename:    TVCINITIALIZE.agc
000004:                                                                                                  ## Purpose:     A section of Skylark revision 048.
000005:                                                                                                  ##              It is part of the source code for the Apollo Guidance Computer (AGC)
000006:                                                                                                  ##              for Skylab-2, Skylab-3, Skylab-4, and ASTP. No original listings of
000007:                                                                                                  ##              this software are available; instead, this file was created via
000008:                                                                                                  ##              disassembly of dumps of the core rope modules actually flown on
000009:                                                                                                  ##              Skylab-2. Access to these modules was provided by the New Mexico
000010:                                                                                                  ##              Museum of Space History.
000011:                                                                                                  ## Assembler:   yaYUL
000012:                                                                                                  ## Contact:     Ron Burkey <info@sandroid.org>.
000013:                                                                                                  ## Website:     www.ibiblio.org/apollo/index.html
000014:                                                                                                  ## Mod history: 2023-09-04 MAS  Created from Artemis 072.
000015:                                                                                                  ##              2024-03-05 MAS  Updated for Skylark 48.
000016:
000017:                                                                                                  #  NAME          TVCDAPON (TVC DAP INITIALIZATION AND STARTUP CALL)
000018:                                                                                                  #  LOG SECTION...TVCINITIALIZE                   SUBROUTINE...DAPCSM
000019:                                                                                                  #  MODIFIED BY SCHLUNDT                          21 OCTOBER 1968
000020:                                                                                                  #  MODIFIED BY BEALS TO ELIMINATE CSMMASS UPDATE LOGIC (NOW DONE IN S40.8)
000021:                                                                                                  #  FUNCTIONAL DESCRIPTION
000022:                                                                                                  #        PERFORMS TVCDAP INITIALIZATION (GAINS, TIMING PARAMETERS, FILTER VARIABLES, ETC.)
000023:                                                                                                  #        COMPUTES STEERING (S40.8) GAIN KPRIMEDT, AND ZEROES PASTDELV,+1 VARIABLE
000024:                                                                                                  #        MAKES INITIALIZATION CALL TO ..NEEDLER.. FOR TVC DAP NEEDLES-SETUP
000025:                                                                                                  #        PERFORMS INITIALIZATION FOR ROLL DAP
000026:                                                                                                  #        CALLS TVCEXECUTIVE AT TVCEXEC, VIA WAITLIST
000027:                                                                                                  #        CALLS TVCDAP CDU-RATE INITIALIZATION PKG AT DAPINIT  VIA T5
000028:                                                                                                  #        PROVIDES FOR LOADING OF LOW-BANDWIDTH COEFFS AND GAINS AT SWICHOVR
000029:                                                                                                  #  CALLING SEQUENCE - T5LOC=2CADR(TVCDAPON,EBANK=BZERO), T5=.6SECT5
000030:                                                                                                  #        IN PARTICULAR, CALLED BY ..DOTVCON.. IN P40
000031:                                                                                                  #        MRCLEAN AND TVCINIT4 ARE POSSIBLE RESTART ENTRY POINTS
000032:                                                                                                  #  NORMAL EXIT MODE
000033:                                                                                                  #        TCF RESUME
000034:                                                                                                  #  SUBROUTINES CALLED
000035:                                                                                                  #        NEEDLER, MASSPROP
000036:                                                                                                  #  ALARM OR ABORT EXIT MODES
000037:                                                                                                  #        NONE
000038:                                                                                                  #  ERASABLE INITIALIZATION REQUIRED
000039:                                                                                                  #        CSMMASS, LEMMASS, DAPDATR1 (FOR MASSPROP SUBROUTINE)
000040:                                                                                                  #        TVC PAD LOADS (SEE EBANK6 IN ERASABLE ASSIGNMENTS)
000041:                                                                                                  #        PACTOFF, YACTOFF, CDUX
000042:                                                                                                  #        TVCPHASE AND THE T5 BITS OF FLAGWRD6 (SET AT DOTVCON IN P40)
000043:                                                                                                  #  OUTPUT
000044:                                                                                                  #        ALL TVC AND ROLL DAP ERASABLES, FLAGWRD6 (BITS 13,14), T5, WAITLIST
000045:                                                                                                  #  DEBRIS
000046:                                                                                                  #        NONE
000047:
000048: 17,2000                                           SETLOC   DAPS7
000049: 17,2000                                           BANK
000050:
000051: 17,2221                                           COUNT*   $$/INIT
000052: 17,2221  E6,1453                                  EBANK=   CNTR
000053: 17,2221           22016        TVCDAPON           LXCH     BANKRUPT                              #  T5 RUPT ARRIVAL (CALL BY DOTVCON - P40)
000054: 17,2222           00006                           EXTEND                                         #  SAVE Q REQUIRED IN RESTARTS (MRCLEAN AND
000055: 17,2223           22012                           QXCH     QRUPT                                 #        TVCINIT4 ARE ENTRIES)
000056: 17,2224           32562        MRCLEAN            CAF      NZERO                                 #  NUMBER TO ZERO, LESS ONE  (MUST BE ODD)
000057:                                                                                                  #        TVC RESTARTS ENTER HERE  (NEW BANK)
000058: 17,2225           10000                 +1        CCS      A
000059: 17,2226           55453                           TS       CNTR
000060: 17,2227           35003                           CAF      ZERO
000061: 17,2230           54001                           TS       L
000062: 17,2231           51453                           INDEX    CNTR
000063: 17,2232           53557                           DXCH     OMEGAYC                               #  FIRST (LAST) TWO LOCATIONS
000064: 17,2233           11453                           CCS      CNTR
000065: 17,2234           12225                           TCF      MRCLEAN    +1
000066: 17,2235           00006                           EXTEND                                         #  SET UP ANOTHER T5 RUPT TO CONTINUE
000067: 17,2236           32576                           DCA      INITLOC2                              #        INITIALIZATION AT TVCINIT1
000068: 17,2237           52113                           DXCH     T5LOC                                 #  THE PHSCHK2 ENTRY  (REDOTVC) AT TVCDAPON
000069: 17,2240           34761                           CAF      POSMAX                                #        +3 IS IN ANOTHER BANK. MUST RESET
000070: 17,2241           54030                           TS       TIME5                                 #        BBCON TOO (FULL 2CADR), FOR THAT
000071: 17,2242           15336        ENDMRC             TCF      RESUME                                #        ENTRY.
000072:
000073: 17,2243           22016        TVCINIT1           LXCH     BANKRUPT
000074: 17,2244           00006                           EXTEND
000075: 17,2245           22012                           QXCH     QRUPT
000076:
000077: 17,2246           04725                           TC       IBNKCALL                              #  UPDATE IXX, IAVG/TLX FOR DAP GAINS (R03
000078: 17,2247           13311                           CADR     MASSPROP                              #        OR NOUNS 46 AND 47 MUST BE CORRECT)
000079:
000080: 17,2250           31514                           CAE      DAPDATR1                              #  CHECK LEM-ON/OFF
000081: 17,2251           74764                           MASK     BIT14
000082: 17,2252           10000                           CCS      A
000083: 17,2253           35001                           CAF      BIT1                                  #  LEM-ON (BIT1)
000084: 17,2254           55453                           TS       CNTR                                  #  LEM-OFF (ZERO)
000085:
000086: 17,2255           51453                           INDEX    CNTR                                  #  LOAD THE FILTER COEFFICIENTS
000087: 17,2256           32557                           CAF      CSMCFADR
000088: 17,2257           55733                           TS       COEFFADR
000089: 17,2260           02450                           TC       LOADCOEF
000090:
000091: 17,2261           51453                           INDEX    CNTR                                  #  PICK UP LM-OFF,-ON KTLX/I
000092: 17,2262           31403                           CAE      EKTLX/I                               #        SCALED (1.08 B+2) 1/SECSQ CSM/LM
000093: 17,2263           55657                           TS       KTLX/I                                #               ( "   B+4)    "    CSM
000094:
000095: 17,2264           02510                           TCR      S40.15                                #  COMPUTE 1/CONACC, VARK
000096:
000097: 17,2265           41453        TVCINIT2           CS       CNTR                                  #  PICK LM-OFF,-ON VALUE FOR FILTER PERIOD
000098: 17,2266           50000                           INDEX    A                                     #  DETERMINATION:
000099: 17,2267           35000                           CAF      BIT2                                  #        BIT2 FOR CSM ONLY 40MS FILTER
000100: 17,2270           55655                           TS       KPRIMEDT                              #        BIT3 FOR CSM/LM 80MS FILTER
000101:
000102: 17,2271           40000                           COM                                            #  PREPARE T5TVCDT
000103: 17,2272           64761                           AD       POSMAX
000104: 17,2273           65001                           AD       BIT1
000105: 17,2274           55654                           TS       T5TVCDT
000106:
000107: 17,2275           44763                           CS       SWTOVBIT                              #  RESET SWTOVER FLAG
000108: 17,2276           70105                           MASK     FLAGWRD9
000109: 17,2277           54105                           TS       FLAGWRD9
000110: 17,2300           51453                           INDEX    CNTR                                  #  PICK UP LEM-OFF,-ON KPRIME
000111: 17,2301           31401                           CAE      EKPRIME                               #        SCALED (100 PI)/16
000112: 17,2302           00006                           EXTEND
000113: 17,2303           71655                           MP       KPRIMEDT                              #  (TVCDT/2, SC.AT B+14CS)
000114: 17,2304           22000                           LXCH     A                                     #        SC.AT PI/8      (DIMENSIONLESS)
000115: 17,2305           53656                           DXCH     KPRIMEDT
000116: 17,2306           51453                           INDEX    CNTR                                  #  PICK UP LEM-OFF,-ON REPFRAC
000117: 17,2307           31406                           CAE      EREPFRAC
000118: 17,2310           55662                           TS       REPFRAC
000119:
000120: 17,2311           51453                           INDEX    CNTR                                  #  PICK UP ONE-SHOT CORRECTION TIME
000121: 17,2312           32566                           CAF      TCORR
000122: 17,2313           55453                           TS       CNTR
000123:
000124: 17,2314           34351                           CAF      NINETEEN                              #  SET VCNTR FOR VARIABLE-GAIN UPDATES IN
000125: 17,2315           55663                           TS       VCNTR                                 #  10 SECS (TVCEXEC 1/2 SEC RATE)
000126: 17,2316           31410        TVCINIT3           CAE      PACTOFF                               #  TRIM VALUES TO TRIM-TRACKERS, OUTPUT
000127: 17,2317           55634                           TS       PDELOFF                               #        TRACKERS, OFFSET-UPDATES, AND
000128: 17,2320           55652                           TS       PCMD                                  #        OFFSET-TRACKER FILTERS
000129: 17,2321           55630                           TS       DELPBAR                               #        NOTE, LO-ORDER DELOFF,DELBAR ZEROED
000130:
000131: 17,2322           31411                           CAE      YACTOFF
000132: 17,2323           55636                           TS       YDELOFF
000133: 17,2324           55653                           TS       YCMD
000134: 17,2325           55632                           TS       DELYBAR
000135:
000136: 17,2326           31514        ATTINIT            CAE      DAPDATR1                              #  ATTITUDE-ERROR INITIALIZATION LOGIC
000137: 17,2327           74765                           MASK     BIT13                                 #        TEST FOR CSM OR CSM/LM
000138: 17,2330           00006                           EXTEND
000139: 17,2331           12357                           BZF      NEEDLEIN                              #        BYPASS INITIALIZATION FOR CSM/LM
000140:
000141: 17,2332           35001                           CAF      BIT1                                  #        SET UP TEMPORARY COUNTER
000142: 17,2333           55640                 +5        TS       TTMP1
000143:
000144: 17,2334           51640                           INDEX    TTMP1
000145: 17,2335           31713                           CA       ERRBTMP                               #  ERRBTMP CONTAINS RCS ATTITUDE ERRORS
000146: 17,2336           00006                           EXTEND                                         #        ERRORY & ERRORZ (P40 AT DOTVCON)
000147: 17,2337           72565                           MP       1/ATTLIM                              #  .007325(ERROR) = 0 IF ERROR < 1.5 DEG
000148: 17,2340           00006                           EXTEND
000149: 17,2341           12351                           BZF      +8D                                   #        |ERROR| LESS THAN 1.5 DEG
000150: 17,2342           00006                           EXTEND
000151: 17,2343           62346                           BZMF     +3                                    #        |ERROR| > 1.5 DEG, AND NEG
000152: 17,2344           32564                           CA       ATTLIM                                #        |ERROR| > 1.5 DEG, AND POS
000153: 17,2345           12347                           TCF      +2
000154: 17,2346           42564                 +3        CS       ATTLIM
000155: 17,2347           51640                 +2        INDEX    TTMP1
000156: 17,2350           55713                           TS       ERRBTMP
000157: 17,2351           11640                 +8        CCS      TTMP1                                 #        TEST TEMPORARY COUNTER
000158: 17,2352           12333                           TCF      ATTINIT    +5                         #        BACK TO REPEAT FOR PITCH ERROR
000159:
000160: 17,2353           31713                           CA       ERRBTMP                               #  ERRORS ESTABLISHED AND LIMITED
000161: 17,2354           55624                           TS       PERRB
000162: 17,2355           31714                           CA       ERRBTMP    +1
000163: 17,2356           55626                           TS       YERRB
000164:
000165: 17,2357           41530        NEEDLEIN           CS       RCSFLAGS                              #  SET BIT 3 FOR INITIALIZATION PASS AND GO
000166: 17,2360           74777                           MASK     BIT3                                  #        TO NEEDLER.  WILL CLEAR FOR TVC DAP
000167: 17,2361           27530                           ADS      RCSFLAGS                              #        (RETURNS AFTER CADR)
000168: 17,2362           04725                           TC       IBNKCALL
000169: 17,2363           31660                           CADR     NEEDLER
000170:
000171: 17,2364           35003        TVCINIT4           CAF      ZERO                                  #  SET TVCPHASE TO INDICATE TVCDAPON-THRU-
000172: 17,2365           55664                           TS       TVCPHASE                              #        NEEDLEIN INITIALIZATION FINISHED.
000173:                                                                                                  #        (POSSIBLE TVC-RESTART ENTRY)
000174:
000175: 17,2366           30032                           CAE      CDUX                                  #  PREPARE ROLL DAP
000176: 17,2367           55674                           TS       OGANOW
000177:
000178: 17,2370           35023                           CAF      .5SEC                                 #  CALL TVCEXECUTIVE IN 0.5 SEC
000179: 17,2371           05246                           TC       WAITLIST
000180: 17,2372  E6,1453                                  EBANK=   CNTR
000181: 17,2372           03013 34066                     2CADR    TVCEXEC
000182:
000183:
000184: 17,2374           00006                           EXTEND                                         #  CALL FOR DAPINIT
000185: 17,2375           32574                           DCA      DAPINIT5
000186: 17,2376           52113                           DXCH     T5LOC
000187: 17,2377           31654                           CAE      T5TVCDT                               #  (ALLOW TIME FOR RESTART COMPUTATIONS)
000188: 17,2400           54030                           TS       TIME5
000189:
000190: 17,2401           15336        ENDTVCIN           TCF      RESUME
000191:
000192:
000193: 17,2402           00004        SWICHOVR           INHINT
000194: 17,2403           31664                           CA       TVCPHASE                              #  SAVE TVCPHASE
000195: 17,2404           55640                           TS       PHASETMP
000196: 17,2405           45000                           CS       BIT2                                  #  SET TVCPHASE = -2 (INDICATES SWITCH-OVER
000197: 17,2406           55664                           TS       TVCPHASE                              #        TO RESTART LOGIC)
000198:
000199: 17,2407           00006                 +5        EXTEND                                         #  SAVE Q FOR RETURN (RESTART ENTRY POINT,
000200: 17,2410           23642                           QXCH     RTRNLOC                               #        TVCPHASE AND PHASETMP ALREADY SET)
000201:
000202: 17,2411           32563                           CAF      NZEROJR                               #  ZEROING LOOP FOR FILTER STORAGE LOCS
000203: 17,2412           55710                 +8        TS       CNTRTMP
000204:
000205: 17,2413           35003        MCLEANJR           CA       ZERO
000206: 17,2414           54001                           TS       L
000207: 17,2415           51710                           INDEX    CNTRTMP
000208: 17,2416           53570                           DXCH     PTMP1      -1
000209: 17,2417           11710                           CCS      CNTRTMP
000210: 17,2420           10000                           CCS      A
000211: 17,2421           12412                           TCF      SWICHOVR   +8D
000212:
000213: 17,2422           40105                           CS       FLAGWRD9                              #  SET SWITCHOVER FLAG FOR DOWNLINK
000214: 17,2423           74763                           MASK     SWTOVBIT
000215: 17,2424           26105                           ADS      FLAGWRD9
000216:
000217: 17,2425           31405                           CAE      EKTLX/I    +2                         #  LOW BANDWIDTH GAINS - DAP
000218: 17,2426           55657                           TS       KTLX/I
000219: 17,2427           02517                           TCR      S40.15     +7
000220:
000221: 17,2430           32570                           CAF      FKPRIMDT                              #                        - STEERING
000222: 17,2431           55655                           TS       KPRIMEDT
000223:
000224: 17,2432           32571                           CAF      FREPFRAC                              #                        - TMC LOOP
000225: 17,2433           55662                           TS       REPFRAC
000226:
000227: 17,2434           00006                           EXTEND                                         #  UPDATE TRIM ESTIMATES
000228: 17,2435           31631                           DCA      DELPBAR
000229: 17,2436           53635                           DXCH     PDELOFF
000230: 17,2437           00006                           EXTEND
000231: 17,2440           31633                           DCA      DELYBAR
000232: 17,2441           53637                           DXCH     YDELOFF
000233:
000234: 17,2442           32561                           CA       LBCFADR
000235: 17,2443           55733                           TS       COEFFADR
000236: 17,2444           02450                           TC       LOADCOEF
000237:
000238: 17,2445           31640                           CAE      PHASETMP                              #  RESTORE TVCPHASE
000239: 17,2446           55664                           TS       TVCPHASE
000240:
000241: 17,2447           01642                           TC       RTRNLOC                               #  BACK TO PRESWTCH OR TVCRESTARTS
000242:
000243:
000244: 17,2450           00006        LOADCOEF           EXTEND                                         #  LOAD DAP FILTER COEFFICIENTS
000245: 17,2451           51733                           INDEX    COEFFADR                              #    FROM: ERASABLE FOR CSM/LM HB
000246: 17,2452           30001                           DCA      0                                     #          FIXED    FOR CSM/LM LB
000247: 17,2453           53735                           DXCH     N10                                   #          FIXED    FOR CSM
000248:
000249: 17,2454           00006                           EXTEND                                         #  NOTE: FOR CSM/LM, NORMAL COEFFICIENT
000250: 17,2455           51733                           INDEX    COEFFADR                              #  LOAD WILL BE HIGH BANDWIDTH PAD LOAD
000251: 17,2456           30003                           DCA      2                                     #  ERASABLES. DURING CSM/LM SWITCHOVER,
000252: 17,2457           53737                           DXCH     N10        +2                         #  THIS LOGIC IS USED TO LOAD LOW BANDWIDTH
000253:                                                                                                  #  COEFFICIENTS FROM FIXED MEMORY.
000254:
000255: 17,2460           00006                           EXTEND
000256: 17,2461           51733                           INDEX    COEFFADR
000257: 17,2462           30005                           DCA      4
000258: 17,2463           53741                           DXCH     N10        +4
000259:
000260: 17,2464           00006                           EXTEND
000261: 17,2465           51733                           INDEX    COEFFADR
000262: 17,2466           30007                           DCA      6
000263: 17,2467           53743                           DXCH     N10        +6
000264: 17,2470           00006                           EXTEND
000265: 17,2471           51733                           INDEX    COEFFADR
000266: 17,2472           30011                           DCA      8D
000267: 17,2473           53745                           DXCH     N10        +8D
000268:
000269: 17,2474           00006                           EXTEND
000270: 17,2475           51733                           INDEX    COEFFADR
000271: 17,2476           30013                           DCA      10D
000272: 17,2477           53747                           DXCH     N10        +10D
000273:
000274: 17,2500           00006                           EXTEND
000275: 17,2501           51733                           INDEX    COEFFADR
000276: 17,2502           30015                           DCA      12D
000277: 17,2503           53751                           DXCH     N10        +12D
000278:
000279: 17,2504           51733                           INDEX    COEFFADR
000280: 17,2505           30016                           CA       14D
000281: 17,2506           55752                           TS       N10        +14D
000282:
000283: 17,2507           00002                           TC       Q
000284:
000285: 17,2510           31516        S40.15             CAE      IXX                                   #  GAIN COMPUTATIONS (1/CONACC, VARK)
000286: 17,2511           00006                           EXTEND                                         #  ENTERED FROM TVCINITIALIZE AND TVCEXEC
000287: 17,2512           72572                           MP       2PI/M                                 #        2PI/M SCALED 1/(B+8 N M)
000288: 17,2513           20001                           DDOUBL                                         #        IXX   SCALED B+20 KG-MSQ
000289: 17,2514           20001                           DDOUBL
000290: 17,2515           20001                           DDOUBL
000291: 17,2516           55660                           TS       1/CONACC                              #              SCALED B+9 SEC-SQ/REV
000292:
000293:                                                                                                  #  ENTRY FROM CSM/LM V46 SWITCHOVER
000294: 17,2517           31657                 +7        CAE      KTLX/I                                #        SCALED (1.08 B+2) 1/SECSQ CSM/LM
000295: 17,2520           00006                           EXTEND                                         #               (  "  B+4)   CSM
000296: 17,2521           71520                           MP       IAVG/TLX                              #              SCALED B+2 SECSQ
000297: 17,2522           20001                           DDOUBL
000298: 17,2523           20001                           DDOUBL
000299: 17,2524           55661                           TS       VARK                                  #        SCALED (1.08 B+2)   CSM/LM
000300: 17,2525           00002                           TC       Q                                     #               (  "  B+4)   CSM
000301:
000302:
000303: 17,2526           37777        CSMN10             DEC      .99999                                #  N10   CSM ONLY FILTER COEFFICIENTS
000304: 17,2527           67657                           DEC      -.2549                                #  N11/2
000305: 17,2530           01703                           DEC      .0588                                 #  N12
000306: 17,2531           47472                           DEC      -.7620                                #  D11/2
000307: 17,2532           27656                           DEC      .7450                                 #  D12
000308:
000309: 17,2533           37777                           DEC      .99999                                #  N20
000310: 17,2534           60361                           DEC      -.4852                                #  N21/2
000311: 17,2535           00000                           DEC      0          B-14                       #  N22
000312: 17,2536           67304                           DEC      -.2692                                #  D22/2
000313: 17,2537           00000                           DEC      0          B-14                       #  D22
000314:
000315: 17,2540           37777        LBN10              DEC      +.99999                               #  N10   LOW BANDWIDTH FILTER COEFFICIENTS
000316: 17,2541           65371                           DEC      -.3285                                #  N11/2
000317: 17,2542           65337                           DEC      -.3301                                #  N12
000318: 17,2543           42700                           DEC      -.9101                                #  D11/2
000319: 17,2544           33045                           DEC      +.8460                                #  D12
000320:
000321: 17,2545           01000                           DEC      +.03125                               #  N20
000322: 17,2546           00000                           DEC      0          B-14                       #  N21/2
000323: 17,2547           00000                           DEC      0          B-14                       #  N22
000324: 17,2550           42700                           DEC      -.9101                                #  D21/2
000325: 17,2551           33045                           DEC      +.8460                                #  D22
000326:
000327: 17,2552           20000                           DEC      +.5000                                #  N30
000328: 17,2553           60730                           DEC      -.47115                               #  N31/2
000329: 17,2554           17145                           DEC      +.4749                                #  N32
000330: 17,2555           41323                           DEC      -.9558                                #  D31/2
000331: 17,2556           35773                           DEC      +.9372                                #  D32
000332:
000333:
000334: 17,2557           02526        CSMCFADR           GENADR   CSMN10                                #  CSM ONLY COEFFICIENTS ADDRESS
000335: 17,2560           01412        HBCFADR            GENADR   HBN10                                 #  HIGH BANDWIDTH COEFFICIENTS ADDRESS
000336: 17,2561           02540        LBCFADR            GENADR   LBN10                                 #  LOW BANDWIDTH COEFFICIENTS ADDRESS
000337:
000338: 17,2562           00063        NZERO              DEC      51         B-14                       #  MUST BE ODD FOR MRCLEAN
000339: 17,2563           00027        NZEROJR            DEC      23         B-14                       #  MUST BE ODD FOR MCLEANJR
000340:
000341: 17,2564           00210        ATTLIM             DEC      0.00833                               #  INITIAL ATTITUDE ERROR LIMIT (1.5 DEG)
000342: 17,2565           00170        1/ATTLIM           DEC      0.007325                              #  .007325(ERROR) = 0 IF ERROR < 1.5 DEG
000343:
000344: 17,2566           00005        TCORR              OCT      00005                                 #  CSM
000345: 17,2567           00000                 +1        OCT      00000                                 #  CSM/LM (HB,LB)
000346:
000347: 17,2570           00247        FKPRIMDT           DEC      .0102                                 #  CSM/LM (LB), (.05 X .08) SCALED AT PI/8
000348: 17,2571           00232        FREPFRAC           DEC      .0375      B-2                        #  CSM/LM (LB),  0.0375 SCALED AT B+2
000349:
000350: 17,2572     4351               NINETEEN           =        VD1
000351: 17,2572           33074        2PI/M              DEC      .00331017  B+8                        #  2PI/M, SCALED AT 1/(B+8 N-M)
000352:
000353: 17,2573  E6,1453                                  EBANK=   CNTR
000354: 17,2573           03164 40066  DAPINIT5           2CADR    DAPINIT
000355:
000356:
000357: 17,2575  E6,1453                                  EBANK=   CNTR
000358: 17,2575           02243 36066  INITLOC2           2CADR    TVCINIT1

End of include-file TVCINITIALIZE.agc.  Parent file is MAIN.agc


