
Source Code


000002:                                                                                                  ## Copyright:   Public domain.
000003:                                                                                                  ## Filename:    TVCMASSPROP.agc
000004:                                                                                                  ## Purpose:     A section of Skylark revision 048.
000005:                                                                                                  ##              It is part of the source code for the Apollo Guidance Computer (AGC)
000006:                                                                                                  ##              for Skylab-2, Skylab-3, Skylab-4, and ASTP. No original listings of
000007:                                                                                                  ##              this software are available; instead, this file was created via
000008:                                                                                                  ##              disassembly of dumps of the core rope modules actually flown on
000009:                                                                                                  ##              Skylab-2. Access to these modules was provided by the New Mexico
000010:                                                                                                  ##              Museum of Space History.
000011:                                                                                                  ## Assembler:   yaYUL
000012:                                                                                                  ## Contact:     Ron Burkey <info@sandroid.org>.
000013:                                                                                                  ## Website:     www.ibiblio.org/apollo/index.html
000014:                                                                                                  ## Mod history: 2023-09-04 MAS  Created from Artemis 072.
000015:
000016:
000017:                                                                                                  #  PROGRAM NAME....MASSPROP
000018:                                                                                                  #  LOG SECTION....TVCMASSPROP            PROGRAMMER...MELANSON (ENGEL, SCHLUNDT)
000019:
000020:
000021:                                                                                                  #  FUNCTIONAL DESCRIPTION:
000022:
000023:                                                                                                  #        MASSPROP OPERATES IN TWO MODES:(1)IF LEM MASS OR CONFIGURATION ARE UPDATED (MASSPROP DOES NOT TEST
000024:                                                                                                  #  FOR THIS) THE ENTIRE PROGRAM MUST BE RUN THROUGH, BREAKPOINT VALUES AND DERIVATIVES OF THE OUTPUTS WITH
000025:                                                                                                  #  RESPECT TO CSM MASS BEING CALCULATED PRIOR TO CALCULATION OF THE OUTPUTS. (2)OTHERWISE, THE OUTPUTS CAN BE
000026:                                                                                                  #  CALCULATED USING PREVIOUSLY COMPUTED BREAKPOINT VALUES AND DERIVATIVES.
000027:
000028:                                                                                                  #  CALLING SEQUENCES
000029:
000030:                                                                                                  #        IF LEM MASS OR CONFIGURATION HAS BEEN UPDATED, TRANSFER TO MASSPROP, OTHERWISE TRANSFER TO FIXCW.
000031:                                                                                                  #                L       TC      BANKCALL OR IBNKCALL
000032:                                                                                                  #                L+1     CADR    MASSPROP
000033:                                                                                                  #                        OR
000034:                                                                                                  #                L+1     CADR    FIXCW
000035:
000036:                                                                                                  #                L+2     RETURNS VIA Q
000037:
000038:                                                                                                  #  CALLED   IN PARTICULAR BY DONOUN47 (JOB) AND TVCEXECUTIVE (TASK)
000039:
000040:                                                                                                  #  JOBS OR TASKS INITIATED - NONE
000041:
000042:                                                                                                  #  SUBROUTINES CALLED - NONE
000043:
000044:                                                                                                  #  ERASABLE INITIALIZATION REQUIRED
000045:
000046:                                                                                                  #        LEMMASS MUST CONTAIN LEM MASS SCALED AT B+16 IN KILOGRAMS
000047:                                                                                                  #        CSMMASS MUST CONTAIN CSM MASS SCALED AT B+16 IN KILOGRAMS
000048:
000049:                                                                                                  #        DAPDATR1 MUST BE SET TO INDICATE VEHICLE CONFIGURATION.
000050:                                                                                                  #                BITS (15,14,13)  =  ( 0 , 0 , 1 )       LEM OFF
000051:                                                                                                  #                                    ( 0 , 1 , 0 )       LEM ON (ASCNT,DSCNT)
000052:                                                                                                  #                                    ( 1 , 1 , 0 )       LEM ON (ASCNT ONLY)
000053:
000054:
000055:                                                                                                  #  ALARMS - NONE
000056:
000057:                                                                                                  #  EXIT -   TC     Q
000058:
000059:                                                                                                  #  OUTPUTS:
000060:
000061:                                                                                                  #        (1)IXX, SINGLE PRECISION SCALED AT B+20 IN KG-M SQ.
000062:                                                                                                  #        (2)IAVG, SINGLE PRECISION SCALED AT B+20 IN KG-M SQ.
000063:                                                                                                  #        (3)IAVG/TLX, SINGLE PRECISION, SCALED AT B+2 SEC-SQD
000064:                                                                                                  #        THEY ARE STORED IN CONSECUTIVE REGISTERS IXX0, IXX1, IXX2
000065:
000066:                                                                                                  #        CONVERSION FACTOR:  (SLUG-FTSQ) = 0.737562 (KG-MSQ)
000067:
000068:
000069:                                                                                                  #  OUTPUTS ARE CALCULATED AS FOLLOWS :
000070:
000071:                                                                                                  #   (1) IF LEM DOCKED, LEMMASS IS FIRST ELIMINATED AS A PARAMETER
000072:
000073:                                                                                                  #        VARST0 = INTVALUE0 + LEMMASS(SLOPEVAL0)         IXX             BREAKPOINT VALUE
000074:                                                                                                  #        VARST1 = INTVALUE1 + LEMMASS(SLOPEVAL1)         IAVG            BREAKPOINT VALUE
000075:                                                                                                  #        VARST2 = INTVALUE2 + LEMMASS(SLOPEVAL2)         IAVG/TLX        BREAKPOINT VALUE
000076:
000077:                                                                                                  #        VARST3 = INTVALUE3 + LEMMASS(SLOPEVAL3)         IAVG/TLX        SLOPE  FOR CSMMASS > 33956 LBS  ( SPS > 10000 LBS)
000078:                                                                                                  #        VARST4 = INTVALUE4 + LEMMASS(SLOPEVAL4)         IAVG            SLOPE  FOR CSMMASS > 33956 LBS  ( SPS > 10000 LBS)
000079:
000080:                                                                                                  #        VARST5 = INTVALUE5 + LEMMASS(SLOPEVAL5)         IXX             SLOPE  FOR ALL VALUES OF CSMMASS
000081:
000082:                                                                                                  #        VARST6 = INTVALUE6 + LEMMASS(SLOPEVAL6)         IAVG            SLOPE  FOR CSMMASS < 33956 LBS  ( SPS < 10000 LBS)
000083:                                                                                                  #        VARST7 = INTVALUE7 + LEMMASS(SLOPEVAL7)         IAVG/TLX        SLOPE  FOR CSMMASS < 33956 LBS  ( SPS < 10000 LBS)
000084:
000085:                                                                                                  #        VARST8 = INTVALUE8 + LEMMASS(SLOPEVAL8)         IAVG            DECREMENT  TO BRKPT VALUE WHEN LEM DSCNT STAGE OFF
000086:                                                                                                  #        VARST9 = INTVALUE9 + LEMMASS(SLOPEVAL9)         IAVG/TLX        DECREMENT  TO BRKPT VALUE WHEN LEM DSCNT STAGE OFF
000087:
000088:                                                                                                  #   (2) IF LEM NOT DOCKED
000089:
000090:                                                                                                  #        VARST0 = NOLEMVAL0      WHERE THE MEANING AND SCALING OF VARST0
000091:                                                                                                  #          .         .           TO VARST9 ARE THE SAME AS GIVEN ABOVE
000092:                                                                                                  #          .         .
000093:                                                                                                  #          .         .           NOTE... FOR THIS CASE, VARST8,9 HAVE NO
000094:                                                                                                  #        VARST9 = NOLEMVAL9      MEANING (THEY ARE COMPUTED BUT NOT USED)
000095:
000096:                                                                                                  #   (3) THE FINAL OUTPUT CALCULATIONS ARE THEN DONE
000097:
000098:                                                                                                  #        IXX0 =  VARST0 + (CSMMASS + NEGBPW)VARST5               IXX
000099:
000100:                                                                                                  #        IXX1 =  VARST1 + (CSMMASS + NEGBPW)VARST(4 OR 6)        IAVG
000101:
000102:                                                                                                  #        IXX2 =  VARST2 + (CSMMASS + NEGBPW)VARST(3 OR 7)        IAVG/TLX
000103:
000104:                                                                                                  #  THE DATA USED CAME FROM CSM/LM SPACECRAFT OPERATIONAL DATA BOOK.
000105:                                                                                                  #        VOL. 3, NASA DOCUMENT SNA-8-D-027 (MARCH 1968)
000106:
000107:                                                                                                  #  PERTINENT MASS DATA :         CSM WEIGHT  (FULL)  64100 LBS
000108:                                                                                                  #                                            (EMPTY) 23956 LBS
000109:                                                                                                  #                                LEM WEIGHT  (FULL)  32000 LBS
000110:                                                                                                  #                                            (EMPTY) 14116 LBS
000111:
000112:                                                                                                  #  (WEIGHTS ARE FROM AMENDMENT #1 (APRIL 24,1968) TO ABOVE DATA BOOK)
000113:
000114: 05,2000                                           SETLOC   DAPMASS
000115: 05,2000                                           BANK
000116: 05,3311  E6,1453                                  EBANK=   CNTR
000117: 05,3311                                           COUNT*   $$/MASP
000118:
000119:
000120: 05,3311           34322        MASSPROP           CAF      NINE                                  #  MASSPROP USES TVC/RCS INTERUPT TEMPS
000121: 05,3312           55535                 +1        TS       PHI333                                #  SET UP TEN PASSES
000122: 05,3313           31514        LEMTEST            CAE      DAPDATR1                              #  DETERMINE LEM STATUS
000123: 05,3314           74765                           MASK     BIT13
000124: 05,3315           00006                           EXTEND
000125: 05,3316           13322                           BZF      LEMYES
000126:
000127: 05,3317           51535        LEMNO              INDEX    PHI333                                #  LEM NOT ATTACHED
000128: 05,3320           33406                           CAF      NOLEMVAL
000129: 05,3321           13332                           TCF      STOINST
000130:
000131: 05,3322           31521        LEMYES             CAE      LEMMASS                               #  LEM IS ATTACHED
000132: 05,3323           60000                           DOUBLE
000133: 05,3324           00006                           EXTEND
000134: 05,3325           51535                           INDEX    PHI333
000135: 05,3326           73430                           MP       SLOPEVAL
000136: 05,3327           20001                           DDOUBL
000137: 05,3330           51535                           INDEX    PHI333
000138: 05,3331           63416                           AD       INTVALUE
000139:
000140: 05,3332           51535        STOINST            INDEX    PHI333                                #  STORAGE INST BEGIN HERE
000141: 05,3333           55540                           TS       VARST0
000142: 05,3334           11535                           CCS      PHI333                                #  ARE ALL TEN PASSES COMPLETED
000143: 05,3335           13312                           TCF      MASSPROP   +1                         #  NO - GO DECREMENT PHI333
000144:
000145: 05,3336           11514        DXTEST             CCS      DAPDATR1                              #  IF NEG, BIT15 IS 1, LEM DSCNT STAGE OFF
000146: 05,3337           13345                           TCF      FIXCW
000147: 05,3340           13345                           TCF      FIXCW
000148: 05,3341           53551                           DXCH     VARST0     +8D
000149: 05,3342           21542                           DAS      VARST0     +1
000150: 05,3343           33443                           CA       DXITFIX
000151: 05,3344           27547                           ADS      VARST0     +7
000152:
000153: 05,3345           35000        FIXCW              CAF      BIT2                                  #  COMPUTATION PHASE BEGINS HERE.  SET UP
000154: 05,3346           55535                           TS       PHI333                                #  THREE PASSES
000155: 05,3347           55536                           TS       PSI333
000156:
000157: 05,3350           31522                           CAE      CSMMASS                               #  GET DELTA CSM WEIGHT - SIGN DETERMINES
000158: 05,3351           63442                           AD       NEGBPW                                #  SLOPE LOCATIONS.
000159: 05,3352           60000                           DOUBLE
000160: 05,3353           55537                           TS       TEMP333
000161:
000162: 05,3354           00006                           EXTEND
000163: 05,3355           63360                           BZMF     PEGGY                                 #  DETERMINE CORRECT SLOPE
000164: 05,3356           37701                           CAF      NEG2
000165: 05,3357           55535                           TS       PHI333
000166:
000167: 05,3360           51535        PEGGY              INDEX    PHI333                                #  ALL IS READY - CALCULATE OUTPUTS NOW
000168: 05,3361           31545                           CAE      VARST5                                #  GET SLOPE
000169: 05,3362           00006                           EXTEND
000170: 05,3363           71537                           MP       TEMP333                               #  MULT BY DELTA CSM WEIGHT
000171: 05,3364           60000                           DOUBLE
000172: 05,3365           51536                           INDEX    PSI333
000173: 05,3366           61540                           AD       VARST0                                #  ADD BREAKPOINT VALUE
000174: 05,3367           51536                           INDEX    PSI333
000175: 05,3370           55516                           TS       IXX                                   #  ****** OUTPUTS (IXX0, IXX1, IXX2) ******
000176:
000177:
000178: 05,3371           11536                           CCS      PSI333                                #  BOOKKEEPING  - MASSPROP FINISHED OR NOT
000179: 05,3372           13402                           TCF      BOKKEP2                               #  NO - GO TAKE CARE OF INDEXING REGISTERS
000180:
000181: 05,3373           31514                           CAE      DAPDATR1                              #  UPDATE WEIGHT/G
000182: 05,3374           74764                           MASK     BIT14
000183: 05,3375           10000                           CCS      A
000184: 05,3376           31521                           CA       LEMMASS
000185: 05,3377           61522                           AD       CSMMASS
000186: 05,3400           55524                           TS       WEIGHT/G                              #  SCALED AT B+16 IN KILOGRAMS
000187: 05,3401           00002        ENDMASSP           TC       Q
000188:
000189: 05,3402           55536        BOKKEP2            TS       PSI333                                #  REDUCE PSI BY ONE
000190: 05,3403           00006                           EXTEND
000191: 05,3404           27535                           DIM      PHI333
000192: 05,3405           13360                           TCF      PEGGY
000193:
000194:
000195: 05,3406           00616        NOLEMVAL           DEC      25445.     B-20
000196: 05,3407           02526                           DEC      87450.     B-20
000197: 05,3410           02352                           DEC      .30715     B-2
000198: 05,3411           01471                           DEC      1.22877    E-5        B+12
000199: 05,3412           00634                           DEC      1.6096     B-6
000200: 05,3413           00612                           DEC      1.54       B-6
000201: 05,3414           03706                           DEC      7.77177    B-6
000202: 05,3415           04425                           DEC      3.46458    E-5        B+12
000203:
000204: 05,3416           00644        INTVALUE           DEC      26850      B-20
000205: 05,3417           03710                           DEC      127518     B-20
000206: 05,3420           04246                           DEC      .54059     B-2
000207: 05,3421           02011                           DEC      .153964    E-4        B+12
000208: 05,3422           77501                           DEC      -.742923   B-6
000209: 05,3423           00612                           DEC      1.5398     B-6
000210: 05,3424           04656                           DEC      9.68       B-6
000211: 05,3425           10372                           DEC      .647625    E-4        B+12
000212: 05,3426           77126                           DEC      -27228.    B-20
000213: 05,3427           76261                           DEC      -.206476   B-2
000214:
000215: 05,3430           00767        SLOPEVAL           DEC      1.96307    B-6
000216: 05,3431           15624                           DEC      27.5774    B-6
000217: 05,3432           03054                           DEC      2.3548     E-5        B+12
000218: 05,3433           04532                           DEC      2.1777     E-9        B+26
000219: 05,3434           10433                           DEC      1.044      E-3        B+8
000220: 05,3435           00000                           DEC      0          B-14
000221: 05,3436           22070                           DEC      2.21068    E-3        B+8
000222: 05,3437           03204                           DEC      1.5166     E-9        B+26
000223: 05,3440           77266                           DEC      -1.284     B-6
000224: 05,3441           02476                           DEC      2.         E-5        B+12
000225:
000226: 05,3442           70364        NEGBPW             DEC      -15402.17  B-16
000227: 05,3443           75420        DXITFIX            DEC*     -1.88275   E-5        B+12*

End of include-file TVCMASSPROP.agc.  Parent file is MAIN.agc


