
Source Code


000002:                                                                                                  ## Copyright:   Public domain.
000003:                                                                                                  ## Filename:    TVCROLLDAP.agc
000004:                                                                                                  ## Purpose:     A section of Skylark revision 048.
000005:                                                                                                  ##              It is part of the source code for the Apollo Guidance Computer (AGC)
000006:                                                                                                  ##              for Skylab-2, Skylab-3, Skylab-4, and ASTP. No original listings of
000007:                                                                                                  ##              this software are available; instead, this file was created via
000008:                                                                                                  ##              disassembly of dumps of the core rope modules actually flown on
000009:                                                                                                  ##              Skylab-2. Access to these modules was provided by the New Mexico
000010:                                                                                                  ##              Museum of Space History.
000011:                                                                                                  ## Assembler:   yaYUL
000012:                                                                                                  ## Contact:     Ron Burkey <info@sandroid.org>.
000013:                                                                                                  ## Website:     www.ibiblio.org/apollo/index.html
000014:                                                                                                  ## Mod history: 2023-09-04 MAS  Created from Artemis 072.
000015:
000016:
000017:                                                                                                  #  PROGRAM NAME...TVC ROLL AUTOPILOT
000018:                                                                                                  #  LOG SECTION...TVCROLLDAP                      SUBROUTINE...DAPCSM
000019:                                                                                                  #  MODIFIED BY SCHLUNDT                          21 OCTOBER 1968
000020:
000021:
000022:                                                                                                  #  FUNCTIONAL DESCRIPTION....
000023:
000024:                                                                                                  #       *AN ADAPTATION OF THE LEM P-AXIS CONTROLLER
000025:                                                                                                  #       *MAINTAIN OGA WITHIN 5 DEG DEADBND OF OGAD, WHERE OGAD = OGA AS SEEN
000026:                                                                                                  #        BY IGNITION (P40)
000027:                                                                                                  #       *MAINTAIN OGA RATE LESS THAN 0.1 DEG/SEC LIMIT CYCLE RATE
000028:                                                                                                  #       *SWITCHING LOGIC IN PHASE PLANE.... SEE GSOP CHAPTER 3
000029:                                                                                                  #       *USES T6 CLOCK TO TIME JET FIRINGS
000030:                                                                                                  #       *MAXIMUM JET FIRING TIME = 2.56 SECONDS, LIMITED TO 2.5 IF GREATER
000031:                                                                                                  #       *MINIMUM JET FIRING TIME = 15 MS
000032:                                                                                                  #       *JET PAIRS FIRE ALTERNATELY
000033:                                                                                                  #       *AT LEAST 1/2 SECOND DELAY BEFORE A NEW JET PAIR IS FIRED
000034:                                                                                                  #       *JET FIRINGS MAY NOT BE EXTENDED, ONLY SHORTENED, WHEN RE-EVALUATION
000035:                                                                                                  #        OF A JET FIRING TIME IS MADE ON A LATER PASS
000036:
000037:                                                                                                  #  CALLING SEQUENCE....
000038:
000039:                                                                                                  #       *ROLLDAP CALL VIA WAITLIST, IN PARTICULAR BY TVCEXEC (EVERY 1/2 SEC)
000040:                                                                                                  #        WITH A 3CS DELAY TO ALLOW FREE TIME FOR OTHER RUPTS (DWNRPT, ETC.)
000041:
000042:                                                                                                  #  NORMAL EXIT MODES.... ENDOFJOB
000043:
000044:                                                                                                  #  ALARM OR ABORT EXIT MODES.... NONE
000045:
000046:                                                                                                  #  SUBROUTINES CALLED.....NONE
000047:
000048:                                                                                                  #  OTHER INTERFACES....
000049:
000050:                                                                                                  #       *TVCEXEC SETS UP ROLLDAP TASK EVERY 1/2 SECOND AND UPDATES 1/CONACC
000051:                                                                                                  #        EVERY 10 SECONDS (VIA MASSPROP AND S40.15)
000052:                                                                                                  #       *RESTARTS SUSPEND ROLL DAP COMPUTATIONS UNTIL THE NEXT 1/2 SEC
000053:                                                                                                  #        SAMPLE PERIOD. (THE PART OF TVCEXECUTIVE THAT CALLS ROLL DAP IS
000054:                                                                                                  #        NOT RESTARTED.) THE OGAD FROM IGNITION IS MAINTAINED.
000055:
000056:                                                                                                  #  ERASABLE INITIALIZATION REQUIRED....
000057:
000058:                                                                                                  #       *1/CONACC   (S40.15)
000059:                                                                                                  #       *OGAD (CDUX AT IGNITION)
000060:                                                                                                  #       *OGANOW  (CDUX AT TVCINIT4 AND TVCEXECUTIVE)
000061:                                                                                                  #       *OGAPAST  (OGANOW AT TVCEXECUTIVE)
000062:                                                                                                  #       *ROLLFIRE = TEMREG = ROLLWORD = 0   (MRCLEAN LOOP IN TVCDAPON)
000063:                                                                                                  #  OUTPUT....
000064:
000065:                                                                                                  #       *ROLL JET PAIR FIRINGS
000066:
000067:                                                                                                  #  DEBRIS.... MISCELLANEOUS, SHAREABLE WITH RCS/ENTRY, IN EBANK6 ONLY
000068:
000069:                                                                                                  #  SOME NOTES ON THE ROLL AUTOPILOT, AND IN PARTICULAR, ON ITS SWITCHING
000070:                                                                                                  #  LOGIC.  SEE SECTION THREE OF THE GSOP (SUNDISK/COLOSSUS) FOR DETAILS.
000071:
000072:                                                                                                  #  SWITCHING LOGIC IN THE PHASE PLANE....
000073:
000074:                                                                                                  #                               OGARATE
000075:                                                                                                  #                                  *
000076:                                                                                                  #                                  *
000077:                                                                                                  #   * * * * * * * * * * *          *
000078:                                                                                                  #                                  *     (REGION 1, SEE TEXT BELOW)
000079:                                                                                                  #                             *    *
000080:                                                                                                  #                                  *
000081:                                                                                                  #  * * * * * * *     (COAST)       *     ...PARABOLA (SWITCHING = CONTROL)
000082:                                                                                                  #                *                 *    .
000083:                                                                                                  #                  *               *   *
000084:                                                                                                  #                    *             *                (FIRE NEG ROLL JETS)
000085:                                                                                                  #                      *           *      *
000086:                                                                                                  #      (-DB,+LMCRATE)....*         *
000087:                                                                                                  #                        *         *        *
000088:                                                                                                  #                        *         *                              OGAERROR
000089:                                                                                                  #  ************************************************************************
000090:                                                                                                  #                                  *         *                (-AK, OGAERR)
000091:                                                                                                  #                         *        *         *      (REGION 6-PRIME)
000092:                                                                                                  #                                  *         *      (SEE TEXT BELOW)
000093:                                                                                                  #                           *      *           *
000094:                                                                                                  #                                  *             *     ...STRAIGHT LINE
000095:                                                                                                  #     (FIRE POS ROLL JETS)     *   *               *  .
000096:                                                                                                  #                                  *   (COAST)       *
000097:                                                                                                  #                                  *                   * * * * * * * * * *
000098:                                                                                                  #                                  *                         -MINLIM
000099:                                                                                                  #                                  *    *
000100:                                                                                                  #                                  *
000101:                                                                                                  #                                  *          * * * * * * * * * * * * * * *
000102:                                                                                                  #                                  *                        -MAXLIM
000103:                                                                                                  #                                  *
000104:                                                                                                  #                                  *
000105:
000106:                                                                                                  #  SWITCHING PARABOLAS ARE CONTROL PARABOLAS, THUS REQUIRING KNOWLEDGE OF
000107:                                                                                                  #        CONTROL ACCELERATION CONACC, OR ITS RECIPROCAL, 1/CONACC, THE TVC
000108:                                                                                                  #        ROLL DAP GAIN  (SEE TVCEXECUTIVE VARIABLE GAIN PACKAGE).  JET
000109:                                                                                                  #        FIRING TIME IS SIMPLY THAT REQUIRED TO ACHIEVE THE DESIRED OGARATE,
000110:                                                                                                  #        SUBJECT TO THE LIMITATIONS DISCUSSED UNDER FUNCTIONAL DESCRIPTION,
000111:                                                                                                  #        ABOVE.
000112:
000113:                                                                                                  #  THE THREE CONTROL REGIONS  (+, -, AND ZERO TORQUE) ARE COMPRIZED OF
000114:                                                                                                  #        TWELVE SUBSET REGIONS  ( 1...6, AND THE CORRESPONDING 1-PRIME...
000115:                                                                                                  #        6-PRIME )  SEE SECTION 3 OF THE GSOP  (SUNDISK OR COLOSSUS)
000116:
000117:                                                                                                  #  GIVEN THE OPERATING POINT NOT IN THE COAST REGION, THE DESIRED OGARATE
000118:                                                                                                  #        IS AT THE POINT OF PENETRATION OF THE COAST REGION BY THE CONTROL
000119:                                                                                                  #        PARABOLA WHICH PASSES THROUGH THE OPERATING POINT. FOR REGION 3
000120:                                                                                                  #        DESIRED OGARATE IS SIMPLY +-MAXLIM. FOR REGIONS 1 OR 6 THE SOLUTION
000121:                                                                                                  #        TO A QUADRATIC IS REQUIRED (THE PENETRATION IS ALONG THE STRAIGHT
000122:                                                                                                  #        LINE OR MINLIM BOUNDRY SWITCH LINES). AN APPROXIMATION IS MADE
000123:                                                                                                  #        INSTEAD. TAKE AN OPERATING POINT IN REGION 6' . PASS A TANGENT TO
000124:                                                                                                  #        THE CONTROL PARABOLA THROUGH THE OPERATING POINT, AND FIND ITS
000125:                                                                                                  #        INTERSECTION WITH THE STRAIGHT LINE SECTION OF THE SWITCH CURVE...
000126:                                                                                                  #        THE INTERSECTION DEFINES DESIRED OGARATE. IF THE OPERATING POINT IS
000127:                                                                                                  #        CLOSE TO THE SWITCH LINE, THE APPROXIMATION IS QUITE GOOD (INDEED
000128:                                                                                                  #        THE APPROXIMATE AND QUADRATIC SOLUTIONS CONVERGE IN THE LIMIT AS
000129:                                                                                                  #        THE SWITCH LINE IS APPROACHED). IF THE OPERATING POINT IS NOT CLOSE
000130:                                                                                                  #        TO THE SWITCH LINE, THE APPROXIMATE SOLUTION GIVES VALID TREND
000131:                                                                                                  #        INFORMATION (DIRECTION OF DESIRED OGARATE) AT LEAST. THE
000132:                                                                                                  #        RE-EVALUATION OF DESIRED OGARATE IN SUBSEQUENT ROLL DAP PASSES (1/2
000133:                                                                                                  #        SECOND INTERVALS) WILL BENEFIT FROM THE CONVERGENT NATURE OF THE
000134:                                                                                                  #        APPROXIMATION.
000135:
000136:                                                                                                  #  FOR LARGE OGAERROR THE TANGENT INTERSECTS +-MINLIM SWITCH BOUNDRY BEFORE
000137:                                                                                                  #        INTERSECTING THE STRAIGHT LINE SWITCH. HOWEVER THE MINLIM IS
000138:                                                                                                  #        IGNORED IN COMPUTING THE FIRING TIME, SO THAT THE EXTENSION (INTO
000139:                                                                                                  #        THE COAST REGION) OF THE STRAIGHT LINE SWITCH IS WHAT IS FIRED TO.
000140:                                                                                                  #        IF THE ROLL DAP FINDS ITSELF IN THE COAST REGION BEFORE REACHING
000141:                                                                                                  #        THE DESIRED INTERSECTION (IE, IN THE REGION BETWEEN THE MINLIM
000142:                                                                                                  #        AND THE STRAIGHT LINE SWITCH) IT WILL EXIBIT NORMAL COAST-REGION
000143:                                                                                                  #        BEHAVIOR AND TURN OFF THE JETS. THE PURPOSE OF THIS FIRING POLICY
000144:                                                                                                  #        IS TO MAINTAIN STATIC ROLL STABILITY IN THE EVENT OF A JET
000145:                                                                                                  #        FAILED-ON.
000146:
000147:                                                                                                  #  WHEN THE OPERATING POINT IS IN REGION 1 THE SAME APPROXIMATION IS
000148:                                                                                                  #        MADE, BUT AT AN ARTIFICIALLY-CREATED OR DUMMY OPERATING POINT,
000149:                                                                                                  #        DEFINED BY.. OGAERROR = INTERSECTION OF CONTROL PARABOLA  AND
000150:                                                                                                  #        OGAERROR AXIS, OGARATE = +-LMCRATE WHERE SIGN IS OPPOSITE THAT OF
000151:                                                                                                  #        REAL OPERATING POINT RATE.  WHEN THE OPERATING POINT HAS PASSED
000152:                                                                                                  #        FROM REGION 1 TO REGION 6', THE DUMMY POINT IS NO LONGER REQUIRED,
000153:                                                                                                  #        AND THE SOLUTION REVERTS TO THAT OF A REGULAR REGION 6' POINT.
000154:
000155:
000156:                                                                                                  #  EQUATION FOR SWITCHING PARABOLA (SEE FIGURE ABOVE)....
000157:                                                                                                  #                                    2
000158:                                                                                                  #        SOGAERROR = (DB - (SOGARATE) (1/CONACC)/2) SGN(SOGARATE)
000159:
000160:
000161:                                                                                                  #  EQUATION FOR SWITCHING STRAIGHT LINE SEGMENT....
000162:
000163:                                                                                                  #        SOGARATE = -(-SLOPE)(SOGAERROR) - SGN(SOGARATE) INTERCEP
000164:
000165:                                                                                                  #                WHERE  INTERCEP = DB(-SLOPE) - LMCRATE
000166:
000167:                                                                                                  #  EQUATION FOR INTERSECTION, CONTROL PARABOLA AND STRAIGHT SWITCH LINE....
000168:
000169:                                                                                                  #        DOGADOT = NUM/DEN, WHERE
000170:                                                                                                  #                                       2
000171:                                                                                                  #                NUM = (-SLOPE)(OGARATE) (1/CONACC)
000172:                                                                                                  #                      +SGN(DELOGA)(-SLOPE)(OGAERROR - SGN(DELOGA)(DB))
000173:                                                                                                  #                      +LMCRATE
000174:
000175:                                                                                                  #                DEN = (-SLOPE)(LMCRATE)(1/CONACC) - SGN(DELOGA)
000176:
000177:                                                                                                  #                                                 2
000178:                                                                                                  #                DELOGA = OGAERROR - (DB - OGARATE (1/CONACC)/2) SGN(OGARATE)
000179:
000180:
000181:                                                                                                  #  FOR REGIONS 6 AND 6-PRIME  USE ACTUAL OPERATING POINT  (OGA, OGARATE)
000182:                                                                                                  #        FOR OGAERROR AND OGARATE IN THE INTERSECTION EQUATIONS ABOVE.
000183:                                                                                                  #        FOR REGIONS 1 AND 1-PRIME USE DUMMY OPERATING POINT FOR OGAERROR
000184:                                                                                                  #        AND OGARATE, WHERE THE DUMMY POINT IS GIVEN BY....
000185:                                                                                                  #        OGAERROR= DELOGA + DB SGN(OGARATE)
000186:                                                                                                  #        OGARATE= -LMCRATE SGN(OGARATE)
000187:
000188:                                                                                                  #  NOTE, OGAERROR = OGA - OGAD  USES DUMMY REGISTER  OGA  IN ROLL DAP CODING
000189:                                                                                                  #        ALSO, AT POINT WHERE DOGARATE IS COMPUTED, REGISTER DELOGA IS USED
000190:                                                                                                  #        AS A DUMMY REGISTER FOR THE OGAERROR IN THE NUM EQUATION ABOVE
000191:
000192:                                                                                                  #  ROLLDAP CODING....
000193:
000194: 16,2000                                           SETLOC   DAPROLL
000195: 16,2000                                           BANK
000196: 16,3316  E6,1674                                  EBANK=   OGANOW
000197: 16,3316                                           COUNT*   $$/ROLL
000198: 16,3316           31674        ROLLDAP            CAE      OGANOW                                #  OGA RATE ESTIMATOR...SIMPLE FIRST-ORDER
000199: 16,3317           00006                           EXTEND                                         #        DIFFERENCE (SAMPLE TIME = 1/2 SEC)
000200: 16,3320           21675                           MSU      OGAPAST
000201: 16,3321           00006                           EXTEND
000202: 16,3322           74775                           MP       BIT5
000203: 16,3323           22000                           LXCH     A
000204: 16,3324           55562                           TS       OGARATE                               #  SC.AT B-4 REV/SEC
000205:
000206:                                                                                                  #  COMPUTATIONS WHICH FOLLOW USE OGA FOR OGAERR  (SAME REGISTER)
000207:                                                                                                  #  EXAMINE DURATION OF LAST JET FIRING IF JETS NOW ON.
000208:
000209: 16,3325           31620        DURATION           CA       ROLLFIRE                              #  SAME SGN AS PRESENT TORQ,MAGN=POSMAX
000210: 16,3326           00006                           EXTEND
000211: 16,3327           13331                           BZF      +2                                    #  ROLL JETS ARE NOW OFF.
000212: 16,3330           13337                           TCF      ROLLOGIC                              #  ENTER LOGIC, JETS NOW ON.
000213:
000214: 16,3331           31622                           CAE      TEMREG                                #  EXAMINE LAST FIRING INTERVAL
000215: 16,3332           00006                           EXTEND                                         #  IF POSITIVE, DONT FIRE
000216: 16,3333           13337                           BZF      ROLLOGIC                              #  ENTER LOGIC, JETS NOW OFF.
000217:
000218: 16,3334           35003                           CAF      ZERO                                  #  JETS HAVE NOT BEEN OFF FOR 1/2 SEC. WAIT
000219: 16,3335           55622                           TS       TEMREG                                #  RESET TEMREG
000220: 16,3336           15327        WAIT1/2            TCF      TASKOVER                              #  EXIT ROLL DAP
000221:
000222:                                                                                                  #  COMPUTE DB-(1/2 CONACC) (OGARATE)SQ  (1/2 IN THE SCALING)
000223:
000224: 16,3337           41562        ROLLOGIC           CS       OGARATE                               #  SCALED AT 2(-4) REV/SEC
000225: 16,3340           00006                           EXTEND
000226: 16,3341           71660                           MP       1/CONACC                              #  SCALED AT 2(+9) SEC SQ /REV
000227: 16,3342           00006                           EXTEND
000228: 16,3343           71562                           MP       OGARATE
000229: 16,3344           63732                           AD       DB                                    #  SCALED AT 2(+0) REV
000230: 16,3345           55622                           TS       TEMREG                                #  QUANTITY SCALED AT 2(+0) REV.
000231:
000232:                                                                                                  #  GET SIGN OF OGARATE
000233:
000234: 16,3346           31562                           CA       OGARATE
000235: 16,3347           00006                           EXTEND
000236: 16,3350           63353                           BZMF     +3                                    #  LET SGN(0) BE NEGATIVE
000237: 16,3351           35001                           CA       BIT1
000238: 16,3352           13354                           TCF      +2
000239: 16,3353           45001                           CS       BIT1
000240: 16,3354           55700                           TS       SGNRT                                 #  + OR -  2(-14)
000241:
000242:                                                                                                  #  CALCULATE DISTANCE FROM SWITCH PARABOLA (DELOGA)
000243:
000244: 16,3355           00006                           EXTEND
000245: 16,3356           71622                           MP       TEMREG                                #  SGN(OGARATE) TEMREG NOW IN L
000246: 16,3357           40001                           CS       L
000247: 16,3360           61676                           AD       OGA                                   #  SCALED AT 2(+0) REV
000248: 16,3361           55701        DELOGAC            TS       DELOGA                                #  SCALE B+0 REV, PLUS TO RIGHT OF C-PARAB
000249:
000250:                                                                                                  #  EXAMINE SGN(DELOGA) AND CREATE CA OR CS INSTR. DEPENDING UPON SIGN.
000251:
000252: 16,3362           00006                           EXTEND
000253: 16,3363           63366                           BZMF     +3
000254: 16,3364           34346                           CAF      PRIO30                                #  =CA  (30000)
000255: 16,3365           13367                           TCF      +2
000256: 16,3366           34763                           CAF      BIT15                                 #  =CS  (40000)
000257: 16,3367           55702                           TS       I
000258:
000259: 16,3370           51702                           INDEX    I                                     #  TEST ON  I SGN(OGARATE)
000260: 16,3371           01700                           0        SGNRT                                 #  CA OR CS
000261: 16,3372           40000                           COM
000262: 16,3373           00006                           EXTEND
000263: 16,3374           63445        REG1TST            BZMF     ROLLON                                #  IF REGION 1 (DELOGA OGARATE SAME SIGN)
000264:
000265:                                                                                                  #  NO JET FIRE YET, TEST FOR MAX OGARATE
000266:
000267: 16,3375           51702                           INDEX    I
000268: 16,3376           01562                           0        OGARATE                               #  CA OR CS...BOTH MUST BE NEG. HERE
000269: 16,3377           55703                           TS       IOGARATE                              #  I.E. I OGARATE
000270: 16,3400           63737                           AD       MAXLIM                                #  SCALED AT 2(-4) REV/SEC
000271: 16,3401           00006                           EXTEND
000272: 16,3402           63524        REG3TST            BZMF     RATELIM                               #  IF REGION 3 (RATES TOO HIGH, FIRE JETS)
000273:
000274:                                                                                                  #  COMPUTATION OF I((-SLOPE)OGA + OGARATE) - INTERCEPT..NOTE THAT STR. LINE
000275:                                                                                                  #  SWITCH SLOPE IS (SLOPE) DEG/SEC/DEG, A NEG QUANTITY
000276:
000277: 16,3403           31562                           CA       OGARATE
000278: 16,3404           00006                           EXTEND
000279: 16,3405           74764                           MP       BIT14
000280: 16,3406           55622                           TS       TEMREG
000281: 16,3407           31676                           CA       OGA
000282: 16,3410           00006                           EXTEND
000283: 16,3411           73733                           MP       -SLOPE
000284: 16,3412           20001                           DDOUBL
000285: 16,3413           20001                           DDOUBL
000286: 16,3414           20001                           DDOUBL                                         #  (OGA ERROR MUST BE LESS THAN +-225 DEG)
000287: 16,3415           61622                           AD       TEMREG
000288:
000289: 16,3416           51702                           INDEX    I
000290: 16,3417           00000                           0        A                                     #  I((-SLOPE)OGA+OGARATE) AT 2(-3)REV/SEC
000291: 16,3420           40000                           COM
000292: 16,3421           63735                           AD       INTERCEP                              #  SCALED AT 2(-3) REV.
000293: 16,3422           40000                           COM
000294: 16,3423           00006                           EXTEND
000295: 16,3424           63635        REG2TST            BZMF     NOROLL                                #  IF REGION 2 (COAST SIDE OF STRT LINE)
000296:
000297:                                                                                                  #  CHECK TO SEE IF OGARATE IS ABOVE MINLIM BOUNDARY
000298:
000299: 16,3425           31703                           CA       IOGARATE                              #  ALWAYS NEGATIVE
000300: 16,3426           63736                           AD       MINLIM                                #  SCALED AT 2(-4) REV/SEC
000301: 16,3427           00006                           EXTEND
000302: 16,3430           63635        REG4TST            BZMF     NOROLL                                #  IF REGION 4 (COAST SIDE OF MINLIM)
000303:
000304:                                                                                                  #  ALL AREAS CHECKED EXCEPT LAST AREA...NO FIRE IN THIS SMALL SEGMENT
000305:
000306: 16,3431           51702                           INDEX    I
000307: 16,3432           01676                           0        OGA
000308: 16,3433           40000                           COM
000309: 16,3434           63732                           AD       DB
000310: 16,3435           40000                           COM
000311: 16,3436           00006                           EXTEND
000312: 16,3437           63635        REG5TST            BZMF     NOROLL                                #  IF REGION 5 (COAST SIDE OF DB)
000313:
000314:                                                                                                  #  JETS MUST FIRE NOW. OGARATE IS NEG. (OR VISA VERSA). USE DIRECT STR. LINE.
000315:                                                                                                  #  DELOGA AND DELOGART ARE USED AS DUMMY VARIABLES IN THE SOLUTION OF A
000316:                                                                                                  #  STRAIGHT LINE APPROXIMATION TO A QUADRATIC SOLUTION OF THE INTERSECTION
000317:                                                                                                  #  OF THE CONTROL PARABOLA AND THE STRAIGHT-LINE SWITCH LINE. THE STRAIGHT
000318:                                                                                                  #  LINE IS THE TANGENT TO THE CONTROL PARABOLA AT THE OPERATING POINT. (FOR
000319:                                                                                                  #  OPERATING POINTS IN REGIONS 6 OR 6')
000320:
000321: 16,3440           31676        REGION6            CAE      OGA                                   #  USE ACTUAL OPERATING POINT FOR TANGENT
000322: 16,3441           55701                           TS       DELOGA                                #  ACTUAL STATE
000323: 16,3442           31562                           CA       OGARATE
000324: 16,3443           55677                           TS       DELOGART                              #  ACTUAL STATE, I.E. DEL OGARATE
000325: 16,3444           13454                           TCF      ONROLL
000326:
000327:                                                                                                  #  JETS ALSO FIRE FROM HERE EXCEPT OGARATE IS POS (VISA VERSA), USE INDIRECT
000328:                                                                                                  #  STRAIGHT LINE ESTABLISHED BY TANGENT TO A CONTROL PARABOLA AT   ((DELOGA
000329:                                                                                                  #  + DB SGN(DELOGA) ), -LMCRATE SGN(DELOGA) )         (THIS IS THE DUMMY
000330:                                                                                                  #  OPERATING POINT FOR OPERATING POINTS IN REGIONS 1 AND 1')
000331:
000332: 16,3445           51702        ROLLON             INDEX    I
000333: 16,3446           03732                           0        DB
000334: 16,3447           27701                           ADS      DELOGA                                #  DELOGA WAS DIST. FROM SWITCH PARABOLA
000335:
000336: 16,3450           43734                           CS       LMCRATE                               #  LIMIT CYCLE RATE AT 2(-4) REV/SEC
000337: 16,3451           51702                           INDEX    I
000338: 16,3452           00000                           0        A
000339: 16,3453           55677                           TS       DELOGART                              #  EVALUATE STATE FOR INDIRECT LINE.
000340:
000341:
000342:                                                                                                  #  SOLVE STRAIGHT LINES SIMULTANEOUSLY TO OBTAIN DESIRED OGARATE.
000343:
000344: 16,3454           00006        ONROLL             EXTEND                                         #  DELOGART IN ACC. ON ARRIVAL
000345: 16,3455           71660                           MP       1/CONACC
000346: 16,3456           60000                           DOUBLE
000347: 16,3457           00006                           EXTEND
000348: 16,3460           73733                           MP       -SLOPE
000349: 16,3461           55622                           TS       TEMREG                                #  2(-SLOPE)RATE /CONACC
000350: 16,3462           00006                           EXTEND
000351: 16,3463           71677                           MP       DELOGART
000352: 16,3464           55677                           TS       DELOGART                              #  2(-SLOPE)(RATESQ)/CONACC
000353: 16,3465           44767                           CS       BIT11
000354: 16,3466           51702                           INDEX    I
000355: 16,3467           00000                           0        A
000356: 16,3470           27622        RATEDEN            ADS      TEMREG                                #  DENOMINATOR COMPLETED
000357:
000358: 16,3471           51702                           INDEX    I
000359: 16,3472           01701                           0        DELOGA
000360: 16,3473           40000                           COM
000361: 16,3474           63732                           AD       DB
000362: 16,3475           40000                           COM
000363: 16,3476           00006                           EXTEND
000364: 16,3477           73733                           MP       -SLOPE
000365: 16,3500           27677                           ADS      DELOGART
000366: 16,3501           33734                           CA       LMCRATE
000367: 16,3502           00006                           EXTEND
000368: 16,3503           74767                           MP       BIT11
000369: 16,3504           61677        RATENUM            AD       DELOGART                              #  NUMERATOR COMPLETED
000370:
000371: 16,3505           56001                           XCH      L                                     #  PLACE NUMERATOR IN L FOR OVERFL. CHECK
000372: 16,3506           35003                           CA       ZERO
000373: 16,3507           00006                           EXTEND
000374: 16,3510           11622                           DV       TEMREG                                #  OVERFLOW, IF ANYTHING, NOW APPEARS IN A
000375: 16,3511           00006                           EXTEND
000376: 16,3512           13520                           BZF      DVOK                                  #  NO OVERFLOW....(0,L)/TEMREG = 0,L
000377:
000378: 16,3513           10000        MINLIMAP           CCS      A
000379: 16,3514           34761                           CAF      POSMAX                                #        POSITIVE OVERFLOW
000380: 16,3515           13527                           TCF      ROLLSET
000381: 16,3516           44761                           CS       POSMAX                                #        NEGATIVE OVERFLOW
000382: 16,3517           13527                           TCF      ROLLSET
000383:
000384: 16,3520           22000        DVOK               LXCH     A                                     #  PUT NUMERATOR BACK INTO A, 0 IN L
000385: 16,3521           00006                           EXTEND
000386: 16,3522           11622                           DV       TEMREG                                #  RESULT OF DIVISION IS DESIRED OGARATE
000387: 16,3523           13527                           TCF      ROLLSET                               #        (SCALED AT B-4 REV/SEC)
000388:
000389: 16,3524           43737        RATELIM            CS       MAXLIM
000390: 16,3525           51702                           INDEX    I
000391: 16,3526           00000                           0        A                                     #  IF I = CA, DESIRED RATE IS   -MAXLIM
000392:
000393:                                                                                                  #  COMPUTE JET FIRE TIME, BASED ON DESIRED RATE MINUS PRESENT RATE
000394:
000395: 16,3527           55622        ROLLSET            TS       TEMREG                                #  STORE DESIRED OGARATE (SCALED B-4)
000396: 16,3530           00006                           EXTEND
000397: 16,3531           61562                           SU       OGARATE                               #  RATE DIFF. SCALED AT 2(-4) REV/SEC
000398: 16,3532           55622                           TS       TEMREG                                #        OVERFLOW PROTECT
000399: 16,3533           13536                           TCF      +3                                    #           "       "
000400: 16,3534           50000                           INDEX    A                                     #           "       "
000401: 16,3535           44762                           CS       LIMITS                                #           "       "
000402: 16,3536           00006                           EXTEND
000403: 16,3537           77652                           MP       T6SCALE                               #  T6SCALE = 8/10.24
000404: 16,3540           00006                           EXTEND
000405: 16,3541           71660                           MP       1/CONACC                              #  SCALED AT B+9 SECSQ/REV (MAX < .60)
000406: 16,3542           20001                           DDOUBL
000407: 16,3543           20001                           DDOUBL
000408: 16,3544           55622                           TS       TEMREG                                #        OVERFLOW PROTECT
000409: 16,3545           13550                           TCF      +3                                    #           "       "
000410: 16,3546           50000                           INDEX    A                                     #           "       "
000411: 16,3547           44762                           CS       LIMITS                                #           "       "
000412: 16,3550           55622                           TS       TEMREG                                #  JET FIRE TIME AT 625 MICROSEC/BIT
000413: 16,3551           00006                           EXTEND                                         #  POS MEANS POSITIVE ROLL TORQUE.
000414: 16,3552           13635                           BZF      NOROLL
000415:
000416:                                                                                                  #  JET FIRE TIME IS NZ, TEST FOR JETS NOW ON.
000417:
000418: 16,3553           31622                           CAE      TEMREG                                #  DESIRED CHANGE IN OGARATE
000419: 16,3554           00006                           EXTEND
000420: 16,3555           71620                           MP       ROLLFIRE                              #  (SGN OF TORQUE..ZERO IF JETS NOW OFF)
000421: 16,3556           10000                           CCS      A
000422: 16,3557           13563                           TCF      MOREROLL                              #  CONTINUE FIRING WITH PRESENT POLARITY
000423: 16,3560           13566                           TCF      NEWROLL                               #  START NEW FIRING NOW, PLUS
000424: 16,3561           13635                           TCF      NOROLL                                #  TERMINATE OLD FIRING, NEW SIGN REQUESTED
000425: 16,3562           13566                           TCF      NEWROLL                               #  START NEW FIRING NOW, MINUS
000426:
000427:                                                                                                  #  CONTINUE PRESENT FIRING
000428:
000429: 16,3563           35003        MOREROLL           CAF      ZERO
000430: 16,3564           55702                           TS       I                                     #  USE TEMP. AS MOREROLL SWITCH
000431: 16,3565           13577                           TCF      MAXTFIRE
000432:
000433:                                                                                                  #  START NEW FIRING, BUT CHECK IF GREATER THAN MIN FIRE TIME.
000434:
000435: 16,3566           11622        NEWROLL            CCS      TEMREG                                #  CALL THIS T6FIRE
000436: 16,3567           65001                           AD       ONE
000437: 16,3570           13572                           TCF      +2
000438: 16,3571           65001                           AD       ONE
000439: 16,3572           40000                           COM                                            #  -MAG(T6FIRE)
000440: 16,3573           65012                           AD       TMINFIRE                              #  TMINFIRE-MAG(T6FIRE)
000441: 16,3574           40000                           COM
000442: 16,3575           00006                           EXTEND
000443: 16,3576           63635        MINTST             BZMF     NOROLL                                #  IF NOT GREATER THAN TMINFIRE (NEW FIRE)
000444:
000445:                                                                                                  #  PROCEED WITH NEW FIRING, BUT NOT LONGER THAN TMAXFIRE.
000446:
000447: 16,3577           31622        MAXTFIRE           CA       TEMREG
000448: 16,3600           00006                           EXTEND
000449: 16,3601           74777                           MP       1/TMXFIR                              #  I.E. 1/TMAXFIRE
000450: 16,3602           00006                           EXTEND
000451: 16,3603           13611        MAXTST             BZF      NOMXFIRE                              #  IF LESS THAN TMAXFIRE
000452:
000453: 16,3604           10000                           CCS      A
000454: 16,3605           33740                           CAF      TMAXFIRE                              #  USE MAXIMUM
000455: 16,3606           13610                           TCF      +2
000456: 16,3607           43740                           CS       TMAXFIRE                              #  USE MAXIMUM
000457: 16,3610           55622                           TS       TEMREG
000458:
000459:                                                                                                  #  SET UP SIGN OF REQUIRED TORQUE.
000460:
000461: 16,3611           11622        NOMXFIRE           CCS      TEMREG                                #  FOR TORQUE SIGN
000462: 16,3612           34761                           CA       POSMAX                                #  POSITIVE TORQUE REQUIRED
000463: 16,3613           13615                           TCF      +2
000464: 16,3614           34763                           CA       NEGMAX                                #  NEGATIVE TORQUE REQUIRED
000465: 16,3615           55620                           TS       ROLLFIRE                              #  SET ROLLFIRE FOR + OR - TORQUE
000466:
000467: 16,3616           40000                           COM                                            #  COMPLEMENT... POS. FOR NEG. TORQUE
000468: 16,3617           00006                           EXTEND
000469: 16,3620           63623                           BZMF     +3                                    #  POSITIVE TORQUE REQUIRED
000470: 16,3621           41622                           CS       TEMREG
000471: 16,3622           55622                           TS       TEMREG
000472:
000473: 16,3623           31702        FIRELOOK           CA       I                                     #  IS IT MOREROLL
000474: 16,3624           00006                           EXTEND
000475: 16,3625           13627                           BZF      FIREPLUG                              #  YES
000476: 16,3626           13640                           TCF      JETROLL                               #  MAG(T6FIRE) NOW IN TEMREG
000477:
000478: 16,3627           30031        FIREPLUG           CAE      TIME6                                 #  CHECK FOR EXTENDED FIRING
000479: 16,3630           00006                           EXTEND
000480: 16,3631           61622                           SU       TEMREG
000481: 16,3632           00006                           EXTEND
000482: 16,3633           65327        EXTENTST           BZMF     TASKOVER                              #  IF EXTENSION WANTED, DONT, EXIT ROLL DAP
000483: 16,3634           13640                           TCF      JETROLL
000484:
000485: 16,3635           45003        NOROLL             CS       ZERO                                  #  COAST....(NEG ZERO FOR TIME6)
000486: 16,3636           55620                           TS       ROLLFIRE                              #  NOTE, JETS CAN FIRE NEXT PASS
000487: 16,3637           55622                           TS       TEMREG
000488:
000489: 16,3640           00006        JETROLL            EXTEND
000490: 16,3641           33731                           DCA      NOROL1T6
000491: 16,3642           52111                           DXCH     T6LOC
000492: 16,3643           31622                           CA       TEMREG                                #  ENTER JET FIRING TIME
000493: 16,3644           54031                           TS       TIME6
000494:
000495: 16,3645           31702                           CA       I                                     #  I=0 IF MOREROLL,KEEP SAME JETS ON
000496: 16,3646           00006                           EXTEND
000497: 16,3647           15327        SAMEJETS           BZF      TASKOVER                              #  IF JETS ON KEEP SAME JETS. EXIT ROLL DAP
000498:
000499: 16,3650           11620                           CCS      ROLLFIRE
000500: 16,3651           13655                           TCF      +TORQUE
000501: 16,3652           13716                           TCF      T6ENABL
000502: 16,3653           13676                           TCF      -TORQUE
000503: 16,3654           13716                           TCF      T6ENABL
000504:
000505:                                                                                                  #  PROCEED WITH PLUS TORQUE.
000506:
000507: 16,3655           31621        +TORQUE            CA       ROLLWORD                              #   WHAT WAS THE LAST +TORQUE COMBINATION
000508: 16,3656           75001                           MASK     BIT1                                  #  WAS IT NO.9-11
000509: 16,3657           00006                           EXTEND
000510: 16,3660           13670                           BZF      NO.9-11                               #  NOT 9-11, SO USE IT THIS TIME
000511:
000512: 16,3661           45001        NO.13-15           CS       BIT1
000513: 16,3662           71621                           MASK     ROLLWORD
000514: 16,3663           55621                           TS       ROLLWORD                              #  CHANGE BIT 1 TO ZERO
000515: 16,3664           35026                           CAF      +ROLL2
000516: 16,3665           00006                           EXTEND
000517: 16,3666           01006                           WRITE    CHAN6
000518: 16,3667           13716                           TCF      T6ENABL
000519:
000520: 16,3670           35001        NO.9-11            CAF      BIT1                                  #  1ST + JETS TO FIRE (MRCLEAN OS ROLLWORD)
000521: 16,3671           27621                           ADS      ROLLWORD                              #  CHANGE BIT 1 TO ONE
000522: 16,3672           35004                           CAF      +ROLL1
000523: 16,3673           00006                           EXTEND
000524: 16,3674           01006                           WRITE    CHAN6
000525: 16,3675           13716                           TCF      T6ENABL
000526:
000527: 16,3676           31621        -TORQUE            CA       ROLLWORD                              #   WHAT WAS LAST -TORQUE COMBINATION
000528: 16,3677           75000                           MASK     BIT2                                  #  WAS IT NO.12-10
000529: 16,3700           00006                           EXTEND
000530: 16,3701           13711                           BZF      NO.12-10                              #  NOT 12-10, SO USE IT THIS TIME
000531:
000532: 16,3702           45000        NO.16-14           CS       BIT2
000533: 16,3703           71621                           MASK     ROLLWORD
000534: 16,3704           55621                           TS       ROLLWORD                              #  CHANGE BIT 2 TO ZERO
000535: 16,3705           33741                           CAF      -ROLL2
000536: 16,3706           00006                           EXTEND
000537: 16,3707           01006                           WRITE    CHAN6
000538: 16,3710           13716                           TCF      T6ENABL
000539:
000540: 16,3711           35000        NO.12-10           CAF      BIT2                                  #  1ST -JETS TO FIRE (MRCLEAN OS ROLLWORD)
000541: 16,3712           27621                           ADS      ROLLWORD                              #  CHANGE BIT 2 TO ONE
000542: 16,3713           34355                           CAF      -ROLL1
000543: 16,3714           00006                           EXTEND
000544: 16,3715           01006                           WRITE    CHAN6
000545:
000546: 16,3716           34763        T6ENABL            CAF      BIT15
000547: 16,3717           00006                           EXTEND
000548: 16,3720           05013                           WOR      CHAN13
000549: 16,3721           15327        RDAPEND            TCF      TASKOVER                              #  EXIT ROLL DAP
000550:
000551:
000552:                                                                                                  #  THIS T6 TASK SHUTS OFF ALL ROLL JETS
000553:
000554: 16,3722           22016        NOROLL1            LXCH     BANKRUPT                              #  SHUT OFF ALL (ROLL) JETS, (A T6 TASK
000555: 16,3723           35003                           CAF      ZERO                                  #        CALLED BY ..JETROLL..)
000556: 16,3724           55620                           TS       ROLLFIRE                              #  ZERO INDICATES JETS NOW OFF
000557: 16,3725           00006                           EXTEND
000558: 16,3726           01006        KILLJETS           WRITE    CHAN6
000559: 16,3727           15340                           TCF      NOQRSM
000560:
000561:
000562:                                                                                                  #  CONSTANTS FOR ROLL AUTOPILOT....
000563:
000564: 16,3730  E6,1453                                  EBANK=   CNTR
000565: 16,3730           03722 34066  NOROL1T6           2CADR    NOROLL1
000566:
000567: 16,3732           00344        DB                 DEC      .01388889                             #  DEAD BAND (5 DEG), SC.AT B+0 REV
000568:
000569: 16,3733           06315        -SLOPE             DEC      0.2                                   #  -SWITCHLINE SLOPE(0.2 PER SEC) SC.AT B+0
000570:                                                                                                  #        PER SEC
000571: 16,3734           00111        LMCRATE            DEC      .00027778  B+4                        #  LIMIT CYCLE RATE (0.1 DEG/SEC) SC.AT
000572:                                                                                                  #        B-4 REV/SEC
000573: 16,3735           00510        INTERCEP           DEC      .0025      B+3                        #  DB(-SLOPE) - LMCRATE, SC.AT B-3 REV/SC
000574:
000575: 16,3736           01330        MINLIM             DEC      .00277778  B+4                        #  RATELIM,MIN (1DEG/SEC), SC.AT B-4 REV/SC
000576:
000577: 16,3737           07071        MAXLIM             DEC      .01388889  B+4                        #  RATELIM,MAX (5DEG/SEC), SC.AT B-4 REV/SC
000578:
000579:                                                                                                  # TMINFIRE       DEC     1.5 B+4         15 MS  (14MIN), SC.AT 16 BITS/CS
000580: 16,3740     5012               TMINFIRE           =        BITS4&5
000581:
000582: 16,3740           07640        TMAXFIRE           DEC      250        B+4                        #  2.5 SEC, SC.AT 16 BITS/CS
000583:
000584: 16,3741     4777               1/TMXFIR           =        BIT3                                  #  RECIPROCAL THEREOF, SHIFTED 14 RIGHT,
000585:                                                                                                  #        ROUNDS TO OCT00004, SO ALLOWS 2.56
000586:                                                                                                  #        SEC FIRINGS BEFORE APPLYING LIMIT
000587: 16,3741     7652               T6SCALE            =        PRIO31                                #  (B+3) (16 BITS/CS) (100CS/SEC)
000588:
000589: 16,3741     5004               +ROLL1             =        FIVE                                  #  ONBITS FOR JETS 9 AND 11
000590: 16,3741     5026               +ROLL2             =        OCT120                                #  ONBITS FOR JETS 13 AND 15
000591: 16,3741     4355               -ROLL1             =        TEN                                   #  ONBITS FOR JETS 12 NAD 10
000592: 16,3741           00240        -ROLL2             OCT      240                                   #  ONBITS FOR JETS 16 AND 14

End of include-file TVCROLLDAP.agc.  Parent file is MAIN.agc


