
Source Code


000002:                                                                                                  ## Copyright:   Public domain.
000003:                                                                                                  ## Filename:    UPDATE_PROGRAM.agc
000004:                                                                                                  ## Purpose:     A section of Skylark revision 048.
000005:                                                                                                  ##              It is part of the source code for the Apollo Guidance Computer (AGC)
000006:                                                                                                  ##              for Skylab-2, Skylab-3, Skylab-4, and ASTP. No original listings of
000007:                                                                                                  ##              this software are available; instead, this file was created via
000008:                                                                                                  ##              disassembly of dumps of the core rope modules actually flown on
000009:                                                                                                  ##              Skylab-2. Access to these modules was provided by the New Mexico
000010:                                                                                                  ##              Museum of Space History.
000011:                                                                                                  ## Assembler:   yaYUL
000012:                                                                                                  ## Contact:     Ron Burkey <info@sandroid.org>.
000013:                                                                                                  ## Website:     www.ibiblio.org/apollo/index.html
000014:                                                                                                  ## Mod history: 2023-09-04 MAS  Created from Artemis 072.
000015:
000016:
000017:                                                                                                  #  PROGRAM NAME:         P27
000018:                                                                                                  #  WRITTEN BY:           KILROY/ DE WOLF
000019:
000020:                                                                                                  #  MOD NO:               6
000021:                                                                                                  #  MOD BY:               KILROY
000022:                                                                                                  #  DATE:                 01DEC67
000023:
000024:                                                                                                  #  LOG SECTION:          UPDATE PROGRAM.
000025:
000026:                                                                                                  #  FUNCT. DESCR:         P27 (THE UPDATE PROGRAM) PROCESSES COMMANDS AND DATA
000027:                                                                                                  #                            INSERTIONS REQUESTED BY THE GROUND VIA UPLINK.
000028:                                                                                                  #                            THE P27 PROGRAM WILL ACCEPT UPDATES
000029:                                                                                                  #                            ONLY DURING P00 FOR THE LM, AND ONLY DURING P00,
000030:                                                                                                  #                        P02, AND FRESH START FOR THE CSM
000031:
000032:                                                                                                  #  CALLING SEQ:          PROGRAM IS INITIATED BY UPLINK ENTRY OF VERBS 70, 71, 72 AND 73.
000033:
000034:                                                                                                  #  SUBROUTINES:          TESTXACT, NEWMODEX, NEWMODEX +3, GOXDSPF, BANKCALL, FINDVAC, INTPRET, INTSTALL, TPAGREE,
000035:                                                                                                  #                        INTWAKEU, ENDEXT, POSTJUMP, FALTON, NEWPHASE, PHASCHNG
000036:
000037:                                                                                                  #  NORMAL EXIT:          TC ENDEXT
000038:
000039:                                                                                                  #  ALARM/ABORT:          TC FALTON FOLLOWED BY TC ENDEXT
000040:
000041:                                                                                                  #  RESTARTS:             P27 IS RESTART PROTECTED IN TWO WAYS...
000042:                                                                                                  #                        1. PRIOR TO VERIFLAG INVERSION (WHICH IS CAUSED BY THE GROUND/ASTRONAUT'S VERIFICATION OF UPDATE
000043:                                                                                                  #                           DATA BY SENDING A V33E WHEN V21N02 IS FLASHING)---
000044:                                                                                                  #                           NO PROTECTION EXCEPT PRE-P27 MODE IS RESTORED, COAST + ALIGN DOWNLIST IS SELECTED AND UPLINK
000045:                                                                                                  #                           ACTIVITY LIGHT IS TURNED OFF. (JUST AS IF A V34E WAS SENT DURING P27 DATA LOADS).
000046:                                                                                                  #                           V70,V71,V72 OR V73 WILL HAVE TO BE COMPLETELY RESENT BY USER.
000047:                                                                                                  #                        2. AFTER VERIFLAG INVERSION (WHEN UPDATE OF THE SPECIFIED ERASABLES IS BEING PERFORMED)---
000048:                                                                                                  #                           PROTECTED AGAINST RESTARTS.
000049:
000050:                                                                                                  #  DEBRIS:               UPBUFF  (20D)   TEMP STORAGE FOR ADDRESSES AND CONTENTS.
000051:                                                                                                  #                        UPVERB  (1)     VERB NUMBER MINUS 70D (E.G. FOR V72, UPVERB = 72D - 70D = 2)
000052:                                                                                                  #                        UPOLDMOD(1)     FOR MAJOR MODE INTERRUPTED BY P27.
000053:                                                                                                  #                        COMPNUMB(1)     TOTAL NUMBER OF COMPONENTS TO BE TRANSMITTED.
000054:                                                                                                  #                        UPCOUNT (1)     ACTUAL NUMBER OF COMPONENTS RECEIVED.
000055:                                                                                                  #                        UPTEMP  (1)     SCRATCH, BUT USUALLY CONTAINS COMPONENT NUMBER TO BE CHANGED DURING VERIFY CYCLE
000056:
000057:                                                                                                  #  INPUT:
000058:
000059:                                                                                                  #        ENTRY:                  DESCRIPTION
000060:
000061:                                                                                                  #        V70EXXXXXEXXXXXE        (LIFTOFF TIME INCREMENT) DOUBLE PRECISION OCTAL TIME INCREMENT, XXXXX XXXXX,
000062:                                                                                                  #                                IS ADDED TO TEPHEM, SUBTRACTED FROM AGC CLOCK(TIME2,TIME1), SUBTRACTED FROM CSM STATE
000063:                                                                                                  #                                VECTOR TIME(TETCSM) AND SUBTRACTED FROM LEM STATE VECTOR TIME (TETLEM).
000064:                                                                                                  #                                THE DP OCTAL TIME INCREMENT IS SCALED AT 2(28).
000065:
000066:                                                                                                  #        V71EIIEAAAAE            (CONTIGUOUS BLOCK UPDATE) II-2 OCTAL COMPONENTS, XXXXX,
000067:                                                                                                  #        XXXXXE                  ARE LOADED INTO ERASABLE STARTING AT ECADR, AAAA.
000068:                                                                                                  #        XXXXXE                  IT IS .GE. 3 .AND. .LE. 20D.,
000069:                                                                                                  #                                AND (AAAA + II - 3) DOES NOT PRODUCE AN ADDRESS IN THE
000070:                                                                                                  #        9 NEXT BANK
000071:                                                                                                  #          .                     SCALING IS SAME AS INTERNAL REGISTERS.
000072:
000073:                                                                                                  #        V72EIIE                 (SCATTER UPDATE) (II-1)/2 OCTAL COMPONENTS, XXXXX, ARE
000074:                                                                                                  #        AAAAEXXXXXE             LOADED INTO ERASABLE LOCATIONS, AAAA.
000075:                                                                                                  #        AAAAEXXXXXE             II IS .GE. 3 .AND. .LE. 19D, AND MUST BE ODD.
000076:                                                                                                  #          .                     SCALING IS SAME AS INTERNAL REGISTERS.
000077:
000078:                                                                                                  #        V73EXXXXXEXXXXXE        (OCTAL CLOCK INCREMENT) DOUBLE PRECISION OCTAL TIME
000079:                                                                                                  #                                INCREMENT XXXXX XXXXX, IS ADDED TO THE AGC CLOCK, IN
000080:                                                                                                  #                                CENTISECONDS SCALED AT (2)28.
000081:                                                                                                  #                                THIS LOAD IS THE OCTAL EQUIVALENT OF V55.
000082:
000083:                                                                                                  #  OUTPUT:               IN ADDITION TO THE ABOVE REGISTER LOADS, ALL UPDATES
000084:                                                                                                  #                        COMPLEMENT BIT3 OF FLAGWORD7.
000085:
000086:                                                                                                  #  ADDITIONAL NOTES:     VERB 71, JUST DEFINED ABOVE WILL BE USED TO PERFORM BUT NOT LIMITED TO THE FOLLOWING UPDATES --
000087:                                                                                                  #                        1. CSM/LM STATE VECTOR UPDATE
000088:                                                                                                  #                        2. REFSMMAT UPDATE
000089:
000090:
000091:                                                                                                  #        THE FOLLOWING COMMENTS DELINEATE EACH SPECIAL UPDATE----
000092:
000093:                                                                                                  #  1. CSM/LM STATE VECTOR UPDATE (ALL DATA ENTRIES IN OCTAL)
000094:
000095:                                                                                                  #  ENTRIES:      DATA DEFINITION:                                SCALE FACTORS:
000096:                                                                                                  #  V71E          CONTIGUOUS BLOCK UPDATE VERB
000097:                                                                                                  #     21E        NUMBER OF COMPONENTS FOR STATE VECTOR UPDATE
000098:                                                                                                  #   AAAAE        ECADR OF 'UPSVFLAG'
000099:                                                                                                  #  XXXXXE        STATE VECTOR IDENTIFIER: 00001 FOR CSM, 77776 FOR LEM - EARTH SPHERE OF INFLUENCE SCALING
000100:                                                                                                  #                                         00002 FOR CSM, 77775 FOR LEM - LUNAR SPHERE OF INFLUENCE SCALING
000101:                                                                                                  #  XXXXXEXXXXXE  X POSITION
000102:                                                                                                  #  XXXXXEXXXXXE  Y POSITION
000103:                                                                                                  #  XXXXXEXXXXXE  Z POSITION
000104:                                                                                                  #  XXXXXEXXXXXE  X VELOCITY
000105:                                                                                                  #  XXXXXEXXXXXE  Y VELOCITY
000106:                                                                                                  #  XXXXXEXXXXXE  Z VELOCITY
000107:                                                                                                  #  XXXXXEXXXXXE  TIME FROM AGC CLOCK ZERO
000108:                                                                                                  #  V33E          VERB 33 TO SIGNAL THAT THE STATE VECTOR IS READY TO BE STORED.
000109:
000110:
000111:                                                                                                  #  2. REFSMMAT (ALL DATA ENTRIES IN OCTAL)
000112:                                                                                                  #  ENTRIES:      DATA DEFINITIONS:                               SCALE FACTORS:
000113:                                                                                                  #  V71E          CONTIGUOUS BLOCK UPDATE VERB
000114:                                                                                                  #     24E        NUMBER OF COMPONENTS FOR REFSMMAT UPDATE
000115:                                                                                                  #   AAAAE        ECADR OF 'REFSMMAT'
000116:                                                                                                  #  XXXXXEXXXXXE  ROW 1 COLUMN 1                                  2(-1)
000117:                                                                                                  #  XXXXXEXXXXXE  ROW 1 COLUMN 2                                  2(-1)
000118:                                                                                                  #  XXXXXEXXXXXE  ROW 1 COLUMN 3                                  2(-1)
000119:                                                                                                  #  XXXXXEXXXXXE  ROW 2 COLUMN 1                                  2(-1)
000120:                                                                                                  #  XXXXXEXXXXXE  ROW 2 COLUMN 2                                  2(-1)
000121:                                                                                                  #  XXXXXEXXXXXE  ROW 2 COLUMN 3                                  2(-1)
000122:                                                                                                  #  XXXXXEXXXXXE  ROW 3 COLUMN 1                                  2(-1)
000123:                                                                                                  #  XXXXXEXXXXXE  ROW 3 COLUMN 2                                  2(-1)
000124:                                                                                                  #  XXXXXEXXXXXE  ROW 3 COLUMN 3                                  2(-1)
000125:                                                                                                  #  V33E          VERB 33 TO SIGNAL THAT REFSMMAT IS READY TO BE STORED.
000126:
000127: 43,2000                                           SETLOC   EXTVERBS
000128: 43,2000                                           BANK
000129:
000130: 43,3721  E3,1700                                  EBANK=   TEPHEM
000131:
000132: 43,3721                                           COUNT*   $$/P27
000133: 43,3721           35003        V70UPDAT           CAF      UP70                                  #  COMES HERE ON V70E
000134: 43,3722           13730                           TCF      V73UPDAT   +1
000135:
000136: 43,3723           35001        V71UPDAT           CAF      UP71                                  #  COMES HERE ON V71E
000137: 43,3724           13730                           TCF      V73UPDAT   +1
000138:
000139: 43,3725           35000        V72UPDAT           CAF      UP72                                  #  COMES HERE ON V72E
000140: 43,3726           13730                           TCF      V73UPDAT   +1
000141:
000142: 43,3727           36214        V73UPDAT           CAF      UP73                                  #  COMES HERE ON V73E
000143:
000144: 43,3730           54331                 +1        TS       UPVERBSV                              #  SAVE UPVERB UNTIL IT'S OK TO ENTER P27
000145:
000146: 43,3731           02076                           TC       TESTXACT                              #  GRAB DISPLAY IF AVAILABLE, OTHERWISE
000147:                                                                                                  #  TURN *OPERATOR ERROR* ON AND TERMINATE JOB
000148:
000149: 43,3732           31204                           CA       MODREG                                #  CHECK IF UPDATE ALLOWED
000150: 43,3733           00006                           EXTEND                                         #  FIRST CHECK FOR MODREG = +0, -0
000151: 43,3734           13752                           BZF      UPDATEOK                              #  FRESH START OR P00
000152: 43,3735           40104                           CS       FLAGWRD8
000153: 43,3736           74771                           MASK     UTBIT
000154: 43,3737           10000                           CCS      A
000155: 43,3740           13745                           TCF      +5
000156:
000157: 43,3741           41204                           CS       MODREG
000158: 43,3742           64124                           AD       OCT24
000159: 43,3743           00006                           EXTEND
000160: 43,3744           13752                           BZF      UPDATEOK
000161:
000162: 43,3745           45000                           CS       TWO
000163: 43,3746           71204                           MASK     MODREG
000164: 43,3747           00006                           EXTEND
000165: 43,3750           13752                           BZF      +2                                    #  P02
000166: 43,3751           13762                           TCF      UPERROR
000167: 43,3752           31204        UPDATEOK           CAE      MODREG                                #  UPDATE ALLOWED.
000168: 43,3753           54301                           TS       UPOLDMOD                              #  SAVE CURRENT MAJOR MODE
000169:
000170: 43,3754           30331                           CAE      UPVERBSV                              #  SET UPVERB TO INDICATE TO P27
000171: 43,3755           54302                           TS       UPVERB                                #  WHICH EXTENDED VERB CALLED IT.
000172:
000173: 43,3756           35001                           CAF      ONE
000174: 43,3757           54303                           TS       UPCOUNT                               #  INITIALIZE UPCOUNT TO 1
000175:
000176: 43,3760           04666                           TC       POSTJUMP                              #  LEAVE EXTENDED VERB BANK AND
000177: 43,3761           65534                           CADR     UPPART2                               #  GO TO UPDATE PROGRAM (P27) BANK.
000178:
000179: 43,3762           04362        UPERROR            TC       FALTON                                #  TURN ON OP. ERROR
000180: 43,3763           04415                           TC       UPACTOFF                              #  TURN OFF UPLINK ACT LITE
000181: 43,3764           15537                           TCF      ENDEXT                                #  (RESTART GROUP NOT ESTABLISHED YET)
000182:
000183: 43,3765     5003               UP70               EQUALS   ZERO
000184: 43,3765     5001               UP71               EQUALS   ONE
000185: 43,3765     5000               UP72               EQUALS   TWO
000186: 43,3765     6214               UP73               EQUALS   THREE
000187:
000188: 42,2000                                           SETLOC   UPDATE3
000189: 42,2000                                           BANK
000190:
000191: 42,3534                                           COUNT*   $$/P27
000192:
000193: 42,3534                        UPPART2            EQUALS                                         #  UPDATE PROGRAM - PART 2
000194:
000195: 42,3534           05415                           TC       PHASCHNG                              #  SET RESTART GROUP 6 TO RESTORE OLD MODE
000196: 42,3535           07026                           OCT      07026                                 #  AND DOWNLIST AND EXIT IF RESTART OCCURS.
000197: 42,3536           30000                           OCT      30000                                 #  PRIORITY SAME AS CHRPRIO
000198: 42,3537     0304                                  EBANK=   UPBUFF
000199: 42,3537           03626 56100                     2CADR    UPOUT      +1
000200:
000201: 42,3541           35001                           CAF      ONE
000202: 42,3542           54332                           TS       DNLSTCOD                              #  DOWNLIST
000203:
000204: 42,3543           05357                           TC       NEWMODEX                              #  SET MAJOR MODE = 27
000205: 42,3544           00033                           DEC      27         B-14
000206:
000207: 42,3545           50302                           INDEX    UPVERB                                #  BRANCH DEPENDING ON WHETHER THE UPDATE
000208: 42,3546           13547                           TCF      +1                                    #  VERB REQUIRES A FIXED OR VARIABLE NUMBER
000209: 42,3547           13552                           TCF      +3                                    #  V70 FIXED.               (OF COMPONENTS.
000210: 42,3550           13555                           TCF      OHWELL1                               #  V71 VARIABLE - GO GET NO. OF COMPONENTS
000211: 42,3551           13555                           TCF      OHWELL1                               #  V72 VARIABLE - GO GET NO. OF COMPONENTS
000212: 42,3552           35000                           CA       TWO                                   #  V73 (AND V70) FIXED
000213: 42,3553           54300                           TS       COMPNUMB                              #  SET NUMBER OF COMPONENTS TO 2.
000214: 42,3554           13600                           TCF      OHWELL2                               #  GO GET THE TWO UPDATE COMPONENTS
000215:
000216: 42,3555           33652        OHWELL1            CAF      ADUPBUFF                              #  * REQUEST USER TO SEND NUMBER  *
000217: 42,3556           54156                           TS       MPAC       +2                         #  * OF COMPONENTS PARAMETER(II). *
000218: 42,3557           33654                 +2        CAF      UPLOADNV                              #  (CK4V32 RETURNS HERE IF V32 ENCOUNTERED)
000219: 42,3560           04647                           TC       BANKCALL                              #  DISPLAY A FLASHING V21N01
000220: 42,3561           20456                           CADR     GOXDSPF                               #  TO REQUEST II.
000221: 42,3562           13641                           TCF      UPOUT4                                #  V34 TERMINATE UPDATE (P27) RETURN
000222: 42,3563           13557                           TCF      OHWELL1    +2
000223: 42,3564           03643                           TC       CK4V32                                #  DATA OR V32 RETURN
000224: 42,3565           45000                           CS       BIT2
000225: 42,3566           60304                           AD       UPBUFF                                #  IS II (NUMBER OF COMPONENTS PARAMETER)
000226: 42,3567           00006                           EXTEND                                         #  .GE. 3 AND .LE. 20D.
000227: 42,3570           63557                           BZMF     OHWELL1    +2
000228: 42,3571           40304                           CS       UPBUFF
000229: 42,3572           64353                           AD       UP21
000230: 42,3573           00006                           EXTEND
000231: 42,3574           63557                           BZMF     OHWELL1    +2
000232: 42,3575           30304                           CAE      UPBUFF
000233: 42,3576           54300                           TS       COMPNUMB                              #  SAVE II IN COMPNUMB
000234:
000235:                                                                                                  #  UPBUFF LOADING SEQUENCE
000236:
000237: 42,3577           24303                 -1        INCR     UPCOUNT                               #  INCREMENT COUNT OF COMPONENTS RECEIVED
000238: 42,3600           33653        OHWELL2            CAF      ADUPBFM1                              #  CALCULATE LOCATION (ECADR) IN UPBUFF
000239: 42,3601           60303                           AD       UPCOUNT                               #  WHERE NEXT COMPONENT SHOULD BE STORED.
000240: 42,3602           54156                 +2        TS       MPAC       +2                         #  PLACE ECADR INTO R3.
000241: 42,3603           33654                 +3        CAF      UPLOADNV                              #  (CK4V32 RETURNS HERE IF V32 ENCOUNTERED)
000242: 42,3604           04647                           TC       BANKCALL                              #  DISPLAY A FLASHING V21N01
000243: 42,3605           20456                           CADR     GOXDSPF                               #  TO REQUEST DATA.
000244: 42,3606           13641                           TCF      UPOUT4                                #  V34 TERMINATE UPDATE (P27) RETURN.
000245: 42,3607           13603                           TCF      OHWELL2    +3                         #  V33 PROCEED RETURN
000246: 42,3610           03643                           TC       CK4V32                                #  DATA OR V32 RETURN
000247: 42,3611           40303                           CS       UPCOUNT                               #  HAVE WE FINISHED RECEIVING ALL
000248: 42,3612           60300                           AD       COMPNUMB                              #  THE DATA WE EXPECTED.
000249: 42,3613           00006                           EXTEND
000250: 42,3614           63616                           BZMF     UPVERIFY                              #  YES - GO TO VERIFICATION SEQUENCE
000251: 42,3615           13577                           TCF      OHWELL2    -1                         #  NO - REQUEST ADDITIONAL DATA.
000252:
000253:                                                                                                  #  VERIFY SEQUENCE
000254: 42,3616           33651        UPVERIFY           CAF      ADUPTEMP                              #  PLACE ECADR WHERE COMPONENT NO. INDEX
000255: 42,3617           54156                           TS       MPAC       +2                         #  IS TO BE STORED INTO R3.
000256: 42,3620           33655                           CAF      UPVRFYNV                              #  (CK4V32 RETURNS HERE IF V32 ENCOUNTERED)
000257: 42,3621           04647                           TC       BANKCALL                              #  DISPLAY A FLASHING V21N02 TO REQUEST
000258: 42,3622           20456                           CADR     GOXDSPF                               #  DATA CORRECTION OR VERIFICATION.
000259: 42,3623           13641                           TCF      UPOUT4                                #  V34 TERMINATE UPDATE(P27) RETURN
000260: 42,3624           13656                           TCF      UPSTORE                               #  V33 DATA SENT IS GOOD. GO STORE IT.
000261: 42,3625           03643                           TC       CK4V32                                #  COMPONENT NO. INDEX OR V32 RETURN
000262: 42,3626           30330                           CA       UPTEMP                                #  DOES THE COMPONENT NO. INDEX JUST SENT
000263: 42,3627           00006                           EXTEND                                         #  SPECIFY A LEGAL COMPONENT NUMBER?
000264: 42,3630           63616                           BZMF     UPVERIFY                              #  NO, IT IS NOT POSITIVE NONZERO
000265: 42,3631           40330                           CS       UPTEMP
000266: 42,3632           60300                           AD       COMPNUMB
000267: 42,3633           65001                           AD       BIT1
000268: 42,3634           00006                           EXTEND
000269: 42,3635           63616                           BZMF     UPVERIFY                              #  NO
000270: 42,3636           33653                           CAF      ADUPBFM1                              #  YES - BASED ON THE COMPONENT NO. INDEX
000271: 42,3637           60330                           AD       UPTEMP                                #  CALCULATE THE ECADR OF LOCATION IN
000272: 42,3640           13602                           TCF      OHWELL2    +2                         #  UPBUFF WHICH USER WANTS TO CHANGE.
000273:
000274: 42,3641           04666        UPOUT4             TC       POSTJUMP                              #  COMES HERE ON V34 TO TERMINATE UPDATE
000275: 42,3642           57626                           CADR     UPOUT      +1
000276:
000277:                                                                                                  #  CHECK FOR VERB 32 SEQUENCE
000278:
000279: 42,3643           40154        CK4V32             CS       MPAC                                  #  ON DATA RETURN FROM 'GOXDSPF'
000280: 42,3644           74774                           MASK     BIT6                                  #  ON DATA RETURN FROM "GOXDSP"& THE CON-
000281: 42,3645           10000                           CCS      A                                     #  TENTS OF MPAC = VERB.  SO TEST FOR V32.
000282: 42,3646           00002                           TC       Q                                     #  IT'S NOT A V32, IT'S DATA.  PROCEED.
000283: 42,3647           50002                           INDEX    Q
000284: 42,3650           77771                           TC       0          -6                         #  V32 ENCOUNTERED - GO BACK AND GET DATA
000285:
000286: 42,3651           00330        ADUPTEMP           ADRES    UPTEMP                                #  ADDRESS OF TEMP STORAGE FOR CORRECTIONS
000287: 42,3652           00304        ADUPBUFF           ADRES    UPBUFF                                #  ADDRESS OF UPDATE DATA STORAGE BUFFER
000288: 42,3653           00303        ADUPBFM1           ADRES    UPBUFF     -1                         #  SAME AS ADUPBUFF BUT LESS ONE
000289: 42,3654           05201        UPLOADNV           VN       2101                                  #  VERB 21 NOUN 01
000290: 42,3655           05202        UPVRFYNV           VN       2102                                  #  VERB 21 NOUN 02
000291: 42,3656     4353               UP21               =        MD1                                   #  DEC 21 = MAX NO OF COMPONENTS +1
000292: 42,3656     5004               UPDTPHAS           EQUALS   FIVE
000293:
000294:                                                                                                  #  PRE-STORE AND FAN TO APPROPRIATE BRANCH SEQUENCE
000295:
000296: 42,3656                        UPSTORE            EQUALS                                         #  GROUND HAS VERIFIED UPDATE. STORE DATA.
000297:
000298: 42,3656           00004                           INHINT
000299:
000300: 42,3657           30103                           CAE      FLAGWRD7                              #  INVERT VERIFLAG(BIT3 OF FLAGWRD7) TO
000301: 42,3660           56001                           XCH      L                                     #  INDICATE TO THE GROUND(VIA DOWNLINK)
000302: 42,3661           34777                           CAF      VERIFBIT                              #  THAT THE V33 (WHICH THE GROUND SENT TO
000303: 42,3662           00006                           EXTEND                                         #  VERIFY THE UPDATE) HAS BEEN SUCCESSFULLY
000304: 42,3663           06001                           RXOR     LCHAN                                 #  RECEIVED BY THE UPDATE PROGRAM
000305: 42,3664           54103                           TS       FLAGWRD7
000306:
000307: 42,3665           05415                           TC       PHASCHNG                              #  SET RESTART GROUP 6 TO REDO THE UPDATE
000308: 42,3666           04026                           OCT      04026                                 #  DATA STORE IF A RESTART OCCURS.
000309: 42,3667           00004                           INHINT                                         #  (BECAUSE PHASCHNG DID A RELINT)
000310:
000311: 42,3670           45000                           CS       TWO                                   #  GO TO UPFNDVAC IF INSTALL IS REQUIRED,
000312: 42,3671           60302                           AD       UPVERB                                #  THAT IS, IF IT'S A V70 - V72.
000313: 42,3672           00006                           EXTEND                                         #  GO TO UPEND73 IF IT'S A V73.
000314: 42,3673           63676                           BZMF     UPFNDVAC
000315:
000316: 42,3674           04666                           TC       POSTJUMP
000317: 42,3675           57677                           CADR     UPEND73
000318:
000319: 42,3676           34346        UPFNDVAC           CAF      CHRPRIO                               #  (USE EXTENDED VERB PRIORITY)
000320: 42,3677           05150                           TC       FINDVAC                               #  GET VAC AREA FOR 'CALL INTSTALL'
000321: 42,3700  E3,1700                                  EBANK=   TEPHEM
000322: 42,3700           03465 56103                     2CADR    UPJOB                                 #  (NOTE: THIS WILL ALSO SET EBANK FOR
000323:
000324: 42,3702           05220                           TC       ENDOFJOB                              #  'TEPHEM' UPDATE BY V70)
000325:
000326: 27,2000                                           SETLOC   UPDATE2
000327: 27,2000                                           BANK
000328:
000329: 27,3465                                           COUNT*   $$/P27
000330: 27,3465           06006        UPJOB              TC       INTPRET                               #  THIS COULD BE A STATE VECTOR UPDATE--SO
000331: 27,3466           77624                           CALL                                           #  WAIT(PUT JOB TO SLEEP) IF ORBIT INT(OI)
000332: 27,3467           11720                                    INTSTALL                              #  IS IN PROGRESS--OR--GRAB OI AND RETURN
000333:                                                                                                  #  TO UPWAKE IF OI IS NOT IN PROGRESS.
000334:
000335: 27,3470           77776        UPWAKE             EXIT
000336:
000337: 27,3471           05415                           TC       PHASCHNG                              #  RESTART PROTECT(GROUP 6)
000338: 27,3472           04026                           OCT      04026
000339:
000340: 27,3473           07710                           TC       UPFLAG                                #  SET INTEGRATION RESTART BIT
000341: 27,3474           00230                           ADRES    REINTFLG
000342: 27,3475           00004                           INHINT
000343: 27,3476                        UPPART3            EQUALS
000344:
000345: 27,3476           50302                           INDEX    UPVERB                                #  BRANCH TO THE APPROPRIATE UPDATE VERB
000346: 27,3477           13500                           TCF      +1                                    #  ROUTINE TO ACTUALLY PERFORM THE UPDATE
000347: 27,3500           13642                           TCF      UPEND70                               #  V70
000348: 27,3501           13546                           TCF      UPEND71                               #  V71
000349: 27,3502           13600                           TCF      UPEND72                               #  V72
000350:
000351:                                                                                                  #  ROUTINE TO INCREMENT CLOCK (TIME2,TIME1) WITH CONTENTS OF DP WORD AT UPBUFF.
000352: 27,3503           00006        TIMEDIDL           EXTEND
000353: 27,3504           22330                           QXCH     UPTEMP                                #  SAVE Q FOR RETURN
000354: 27,3505           35003                           CAF      ZERO                                  #  ZERO AND SAVE TIME2,TIME1
000355: 27,3506           22007                           ZL
000356: 27,3507           52025                           DXCH     TIME2
000357: 27,3510           52327                           DXCH     UPBUFF     +18D                       #  STORE IN CASE OF OVERFLOW
000358:
000359: 27,3511           35004                           CAF      UPDTPHAS                              #  DO
000360: 27,3512           54001                           TS       L                                     #  A
000361: 27,3513           40000                           COM                                            #  QUICK
000362: 27,3514           53160                           DXCH     -PHASE6                               #  PHASCHNG
000363:
000364: 27,3515  01,2336               6P5SPT1            =        6.5SPOT
000365: 27,3515           00004        TIMEDIDR           INHINT
000366: 27,3516           35003                           CAF      ZERO
000367: 27,3517           22007                           ZL                                             #  PICK UP INCREMENTER(AND ZERO
000368: 27,3520           54156                           TS       MPAC       +2                         #  IT IN CASE OF RESTARTS) AND
000369: 27,3521           52315                           DXCH     UPBUFF     +8D                        #  STORE IT
000370: 27,3522           52155                           DXCH     MPAC                                  #  INTO MPAC FOR TPAGREE.
000371:
000372: 27,3523           00006                           EXTEND
000373: 27,3524           30327                           DCA      UPBUFF     +18D
000374: 27,3525           20155                           DAS      MPAC                                  #  FORM SUM IN MPAC
000375: 27,3526           00006                           EXTEND
000376: 27,3527           13536                           BZF      DELTATOK                              #  TEST FOR OVERFLOW
000377: 27,3530           35003                           CAF      ZERO
000378: 27,3531           52327                           DXCH     UPBUFF     +18D                       #  OVERFLOW, RESTORE OLD VALUE OF CLOCK
000379: 27,3532           20025                           DAS      TIME2                                 #  AND TURN ON OPERATOR ERROR
000380:
000381: 27,3533           05415                           TC       PHASCHNG                              #  RESTART PROTECT (GROUP 6)
000382: 27,3534           04026                           OCT      04026
000383:
000384: 27,3535           00330                           TC       UPTEMP                                #  GO TO ERROR EXIT
000385:
000386: 27,3536           07226        DELTATOK           TC       TPAGREE                               #  FORCE SIGN AGREEMENT
000387: 27,3537           52155                           DXCH     MPAC
000388: 27,3540           20025                           DAS      TIME2                                 #  INCREMENT TIME2,TIME1
000389:
000390: 27,3541           05415                           TC       PHASCHNG                              #  RESTART PROTECT (GROUP 6)
000391: 27,3542           04026                           OCT      04026
000392:
000393: 27,3543           00004                           INHINT
000394: 27,3544           50330                           INDEX    UPTEMP                                #  (CODED THIS WAY FOR RESTART PROTECTION)
000395: 27,3545           00001                           TC       1                                     #  NORMAL RETURN
000396:
000397:                                                                                                  #  VERB 71 BRANCH
000398:
000399: 27,3546           30305        UPEND71            CAE      UPBUFF     +1                         #  SET EBANK
000400: 27,3547           54003                           TS       EBANK                                 #     AND
000401: 27,3550           74350                           MASK     LOW8                                  #  CALCULATE
000402: 27,3551           54330                           TS       UPTEMP                                #  S-REG VALUE OF RECEIVING AREA
000403:
000404: 27,3552           67700                           AD       NEG3                                  #  IN THE PROCESS OF
000405: 27,3553           60300                           AD       COMPNUMB                              #  PERFORMING
000406: 27,3554           00006                           EXTEND                                         #  THIS UPDATE
000407: 27,3555           13563                           BZF      STORLP71                              #  WILL WE
000408: 27,3556           74771                           MASK     BIT9                                  #  OVERFLOW
000409: 27,3557           10000                           CCS      A                                     #  INTO THE NEXT EBANK....
000410: 27,3560           13576                           TCF      UPERROUT                              #  YES
000411:
000412: 27,3561           37700                           CA       NEG3                                  #  NO - CALCULATE NUMBER OF
000413: 27,3562           60300                           AD       COMPNUMB                              #  WORDS TO BE STORED MINUS ONE
000414: 27,3563           54154        STORLP71           TS       MPAC                                  #  SAVE NO. OF WORDS REMAINING MINUS ONE
000415: 27,3564           50000                           INDEX    A                                     #  TAKE NEXT UPDATE WORD FROM
000416: 27,3565           30306                           CA       UPBUFF     +2                         #  UPBUFF AND
000417: 27,3566           54001                           TS       L                                     #  SAVE IT IN L
000418: 27,3567           30154                           CA       MPAC                                  #  CALCULATE NEXT
000419: 27,3570           60330                           AD       UPTEMP                                #  RECEIVING ADDRESS
000420: 27,3571           50000                           INDEX    A
000421: 27,3572  E3,1400                                  EBANK=   1400
000422: 27,3572           23400                           LXCH     1400                                  #  UPDATE THE REGISTER BY CONTENTS OF L
000423: 27,3573  E3,1700                                  EBANK=   TEPHEM
000424: 27,3573           10154                           CCS      MPAC                                  #  ARE THERE ANY WORDS LEFT TO BE STORED
000425: 27,3574           13563                           TCF      STORLP71                              #  YES
000426: 27,3575           13625                           TCF      UPOUT                                 #  NO - THEN EXIT UPDATE PROGRAM
000427: 27,3576           04362        UPERROUT           TC       FALTON                                #  TURN ON OP ERROR, CCS CANT GET HERE
000428: 27,3577           13625                           TCF      UPOUT                                 #  NO - EXIT UPDATE (HERE WHEN COMPNUMB = 3)
000429:
000430:                                                                                                  #  VERB 72 BRANCH
000431:
000432: 27,3600           35001        UPEND72            CAF      BIT1                                  #  HAVE AN ODD NO. OF COMPONENTS
000433: 27,3601           70300                           MASK     COMPNUMB                              #  BEEN SENT FOR A V72 UPDATE...
000434: 27,3602           10000                           CCS      A
000435: 27,3603           13605                           TCF      +2                                    #  YES
000436: 27,3604           13576                           TCF      UPERROUT                              #  ERROR - SHOULD BE ODD NO. OF COMPONENTS
000437: 27,3605           45000                           CS       BIT2
000438: 27,3606           60300                           AD       COMPNUMB
000439: 27,3607           54154        LDLOOP72           TS       MPAC                                  #  NOW PERFORM THE UPDATE
000440: 27,3610           50000                           INDEX    A
000441: 27,3611           30305                           CAE      UPBUFF     +1                         #  PICK UP NEXT UPDATE WORD
000442: 27,3612           22000                           LXCH     A
000443: 27,3613           10154                           CCS      MPAC                                  #  SET POINTER TO ECADR (MUST BE CCS)
000444: 27,3614           54154                           TS       MPAC
000445: 27,3615           50000                           INDEX    A
000446: 27,3616           30305                           CAE      UPBUFF     +1                         #  PICK UP NEXT ECADR OF REG TO BE UPDATED
000447: 27,3617           54003                           TS       EBANK                                 #  SET EBANK
000448: 27,3620           74350                           MASK     LOW8                                  #  ISOLATE RELATIVE ADDRESS
000449: 27,3621           50000                           INDEX    A
000450: 27,3622  E3,1400                                  EBANK=   1400
000451: 27,3622           23400                           LXCH     1400                                  #  UPDATE THE REGISTER BY CONTENTS OF L
000452: 27,3623  E3,1700                                  EBANK=   TEPHEM
000453: 27,3623           10154                           CCS      MPAC                                  #  ARE WE THROUGH THE V72 UPDATE...
000454: 27,3624           13607                           TCF      LDLOOP72                              #  NO
000455:
000456:                                                                                                  #  NORMAL FINISH OF P27
000457:
000458: 27,3625                        UPOUT              EQUALS
000459: 27,3625           03006                           TC       INTWAKEU                              #  RELEASE  GRAB  OF ORBITAL INTEGRATION
000460: 27,3626           30301                 +1        CAE      UPOLDMOD                              #  RESTORE PRIOR P27 MODE
000461: 27,3627           05362                           TC       NEWMODEA
000462: 27,3630           45001                           CS       BIT1
000463: 27,3631           61204                           AD       MODREG
000464: 27,3632           10000                           CCS      A
000465: 27,3633           10000                           CCS      A
000466: 27,3634           35000                           CAF      TWO
000467: 27,3635           54332                           TS       DNLSTCOD
000468: 27,3636           04415                           TC       UPACTOFF                              #  TURN OFF 'UPLINK ACTIVITY' LIGHT
000469: 27,3637           04647                           TC       BANKCALL                              #  KILL GROUP 6
000470: 27,3640           12464                           CADR     UPKLEAN
000471:
000472: 27,3641           05537                           TC       ENDEXT                                #  EXTENDED VERB EXIT
000473:
000474:                                                                                                  #  VERB 70 BRANCH
000475:
000476: 27,3642           00006        UPEND70            EXTEND                                         #  V70 DOES THE FOLLOWING WITH DP DELTA
000477: 27,3643           40305                           DCS      UPBUFF                                #  TIME IN UPBUFF
000478: 27,3644           52315                           DXCH     UPBUFF     +8D
000479: 27,3645           03503                           TC       TIMEDIDL                              #  DECREMENT AGC CLOCK
000480:
000481: 27,3646           03576                           TC       UPERROUT                              #  ERROR WHILE DECREMENTING CLOCK -- EXIT
000482:
000483: 27,3647  E3,1700                                  EBANK=   TEPHEM
000484: 27,3647           00006                           EXTEND
000485: 27,3650           40305                           DCS      UPBUFF                                #  COPY DECREMENTERS FOR
000486: 27,3651           52317                           DXCH     UPBUFF     +10D                       #  RESTART PROTECTION
000487: 27,3652           00006                           EXTEND
000488: 27,3653           40305                           DCS      UPBUFF
000489: 27,3654           52321                           DXCH     UPBUFF     +12D
000490:
000491: 27,3655           05415                           TC       PHASCHNG                              #  RESTART PROTECT (GROUP 6)
000492: 27,3656           04026                           OCT      04026
000493:
000494: 27,3657           35003                           CAF      ZERO
000495: 27,3660           22007                           ZL
000496: 27,3661           52317                           DXCH     UPBUFF     +10D                       #  DECREMENT CSM STATE VECTOR TIME
000497: 27,3662           21571                           DAS      TETCSM
000498:
000499: 27,3663           35003                           CAF      ZERO
000500: 27,3664           22007                           ZL
000501: 27,3665           52321                           DXCH     UPBUFF     +12D                       #  DECREMENT LEM STATE VECTOR TIME
000502: 27,3666           21643                           DAS      TETLEM
000503:
000504: 27,3667           35003                           CAF      ZERO
000505: 27,3670           22007                           ZL
000506: 27,3671           52305                           DXCH     UPBUFF
000507: 27,3672           21702                           DAS      TEPHEM     +1                         #  INCREMENT TP TEPHEM
000508: 27,3673           27700                           ADS      TEPHEM
000509:
000510: 27,3674           05415                           TC       PHASCHNG                              #  RESTART PROTECT (GROUP 6)
000511: 27,3675           04026                           OCT      04026
000512:
000513: 27,3676     0304                                  EBANK=   UPBUFF
000514:
000515: 27,3676           03625                           TC       UPOUT                                 #  GO TO STANDARD UPDATE PROGRAM EXIT
000516:
000517:                                                                                                  #  VERB 73 BRANCH
000518:
000519: 27,3677           00006        UPEND73            EXTEND
000520: 27,3700           30305                           DCA      UPBUFF
000521: 27,3701           52315                           DXCH     UPBUFF     +8D
000522: 27,3702           03503                           TC       TIMEDIDL
000523: 27,3703           04362                           TC       FALTON
000524: 27,3704           03626                           TC       UPOUT      +1
000525:
000526:                                                                                                  #  ERROR SEQUENCE
000527:
000528: 27,3705  30,2000                                  SBANK=   LOWSUPER

End of include-file UPDATE_PROGRAM.agc.  Parent file is MAIN.agc


