
Source Code


000002:                                                                                                  ## Copyright:   Public domain.
000003:                                                                                                  ## Filename:    WAITLIST.agc
000004:                                                                                                  ## Purpose:     A section of Skylark revision 048.
000005:                                                                                                  ##              It is part of the source code for the Apollo Guidance Computer (AGC)
000006:                                                                                                  ##              for Skylab-2, Skylab-3, Skylab-4, and ASTP. No original listings of
000007:                                                                                                  ##              this software are available; instead, this file was created via
000008:                                                                                                  ##              disassembly of dumps of the core rope modules actually flown on
000009:                                                                                                  ##              Skylab-2. Access to these modules was provided by the New Mexico
000010:                                                                                                  ##              Museum of Space History.
000011:                                                                                                  ## Assembler:   yaYUL
000012:                                                                                                  ## Contact:     Ron Burkey <info@sandroid.org>.
000013:                                                                                                  ## Website:     www.ibiblio.org/apollo/index.html
000014:                                                                                                  ## Mod history: 2023-09-04 MAS  Created from Artemis 072.
000015:
000016:
000017:                                                                                                  #  PROGRAM DESCRIPTION                                                           DATE - 10 OCTOBER 1966
000018:                                                                                                  #  MOD NO - 2                                                                    LOG SECTION - WAITLIST
000019:                                                                                                  #  MOD BY - MILLER       (DTMAX INCREASED TO 162.5 SEC)                          ASSEMBLY SUNBURST REV 5
000020:                                                                                                  #  MOD 3 BY KERNAN       (INHINT INSERTED AT WAITLIST) 2/28/68 SKIPPER REV 4
000021:                                                                                                  #  MOD 4 BY KERNAN       (TWIDDLE IN 54) 3/28/68 SKIPPER REV 13.
000022:
000023:                                                                                                  #  FUNCTIONAL DESCRIPTION-
000024:                                                                                                  #        PART OF A SECTION OF PROGRAMS,-WAITLIST, TASKOVER, T3RUPT, USED TO CALL A PROGRAM, (CALLED A TASK),
000025:                                                                                                  #        WHICH IS TO BEGIN IN C(A) CENTISECONDS.  WAITLIST UPDATES TIME3, LST1 AND LST2. THE MEANING OF THESE LISTS
000026:                                                                                                  #        FOLLOW.
000027:
000028:                                                                                                  #                C(TIME3) = 16384 -(T1-T) CENTISECONDS, (T=PRESENT TIME, T1-TIME FOR TASK1)
000029:
000030:                                                                                                  #                        C(LST1)         =       -(T2-T1)+1
000031:                                                                                                  #                        C(LST1 +1)      =       -(T3-T2)+1
000032:                                                                                                  #                        C(LST1 +2)      =       -(T4-T3)+1
000033:                                                                                                  #                                        .
000034:                                                                                                  #                                        .
000035:                                                                                                  #                        C(LST1 +6)      =       -(T8-T7)+1
000036:                                                                                                  #                        C(LST1 +7)      =       -(T9-T8)+1
000037:
000038:                                                                                                  #                        C(LST2)         =       2CADR OF TASK1
000039:                                                                                                  #                        C(LST2 +2)      =       2CADR OF TASK2
000040:                                                                                                  #                                        .
000041:                                                                                                  #                                        .
000042:                                                                                                  #                        C(LST2 +14)     =       2CADR OF TASK8
000043:                                                                                                  #                        C(LST2 +16)     =       2CADR OF TASK9
000044:
000045:                                                                                                  #  WARNINGS-
000046:                                                                                                  #  --------
000047:                                                                                                  #                1) 1 <= C(A) <= 16250D (1 CENTISECOND TO 162.5 SEC)
000048:                                                                                                  #                2) 9 TASKS MAXIMUM
000049:                                                                                                  #                3) TASKS CALLED UNDER INTERRUPT INHIBITED
000050:                                                                                                  #                4) TASKS END BY TC TASKOVER
000051:
000052:                                                                                                  #  CALLING SEQUENCE-
000053:                                                                                                  #
000054:                                                                                                  #                L-1     CA      DELTAT  (TIME IN CENTISECONDS TO TASK START)
000055:                                                                                                  #                L       TC      WAITLIST
000056:                                                                                                  #                L+1     2CADR   DESIRED TASK
000057:                                                                                                  #                L+2     (MINOR OF 2CADR)
000058:                                                                                                  #                L+3     RELINT          (RETURNS HERE)
000059:
000060:                                                                                                  #  TWIDDLE-
000061:                                                                                                  #  -------
000062:                                                                                                  #        TWIDDLE IS FOR USE WHEN THE TASK BEING SET UP IS IN THE SAME EBANK AND FBANK AS THE USER.  IN
000063:                                                                                                  #        SUCH CASES, IT IMPROVES UPON WAITLIST BY ELIMINATING THE NEED FOR THE BBCON HALF OF THE 2CADR,
000064:                                                                                                  #        SAVING A WORD.  TWIDDLE IS LIKE WAITLIST IN EVERY RESPECT EXCEPT CALLING SEQUENCE, TO WIT-
000065:
000066:                                                                                                  #                L-1     CA      DELTAT
000067:                                                                                                  #                L       TC      TWIDDLE
000068:                                                                                                  #                L+1     ADRES   DESIRED TASK
000069:                                                                                                  #                L+2     RELINT                  (RETURNS HERE)
000070:
000071:                                                                                                  #  NORMAL EXIT MODES-
000072:
000073:                                                                                                  #                AT L+3 OF CALLING SEQUENCE
000074:
000075:                                                                                                  #  ALARM OR ABORT EXIT MODES-
000076:
000077:                                                                                                  #                TC      ABORT
000078:                                                                                                  #                OCT     1203    (WAITLIST OVERFLOW - TOO MANY TASKS)
000079:
000080:                                                                                                  #  ERASABLE INITIALIZATION REQUIRED-
000081:
000082:                                                                                                  #                ACCOMPLISHED BY FRESH START,--LST2,...,LST2 +16 = ENDTASK
000083:                                                                                                  #                                              LST1,...,LST1 +7  = NEG1/2
000084:
000085:                                                                                                  #  OUTPUT--
000086:                                                                                                  #                LST1 AND LST2 UPDATED WITH NEW TASK AND ASSOCIATED TIME.
000087:
000088:                                                                                                  #  DEBRIS-
000089:
000090:                                                                                                  #                CENTRALS - A,Q,L
000091:                                                                                                  #                OTHER    - WAITEXIT, WAITADR, WAITTEMP, WAITBANK
000092:
000093:                                                                                                  #  DETAILED ANALYSIS OF TIMING-
000094:
000095:                                                                                                  #        CONTROL WILL NOT BE RETURNED TO THE SPECIFIED ADDRESS (2CADR) IN EXACTLY DELTA T CENTISECONDS.
000096:                                                                                                  #        THE APPROXIMATE TIME MAY BE CALCULATED AS FOLLOWS
000097:                                                                                                  #                        LET TO = THE TIME OF THE TC WAITLIST
000098:                                                                                                  #                        LET TS = TO +147U + COUNTER INCREMENTS (SET UP TIME)
000099:                                                                                                  #                        LET X  = TS -(100TS)/100  (VARIANCE FROM COUNTERS)
000100:                                                                                                  #                        LET Y  = LENGTH OF TIME OF INHIBIT INTERRUPT AFTER T3RUPT
000101:                                                                                                  #                        LET Z  = LENGTH OF TIME TO PROCESS TASKS WHICH ARE DUE THIS T3RUPT BUT DISPATCHED EARLIER.
000102:                                                                                                  #        (Z=0, USUALLY)
000103:                                                                                                  #                        LET DELTD = THE ACTUAL TIME TAKEN TO GIVE CONTROL TO 2CADR
000104:                                                                                                  #                THEN DELTD = TS+DELTA T -X +Y +Z +1.05MS* +COUNTERS*
000105:                                                                                                  #        *-THE TIME TAKEN BY WAITLIST ITSELF AND THE COUNTER TICKING DURING THIS WAITLIST TIME.
000106:
000107:                                                                                                  #        IN SHORT, THE ACTUAL TIME TO RETURN CONTROL TO A 2CADR IS AUGMENTED BY THE TIME TO SET UP THE TASK:S
000108:                                                                                                  #        INTERRUPT, ALL COUNTERS TICKING, THE T3RUPT PROCESSING TIME, THE WAITLIST PROCESSING TIME AND THE POSSIBILITY
000109:                                                                                                  #        OF OTHER TASKS INHIBITING THE INTERRUPT.
000110:
000111:    4000                                           SETLOC   WAITF2
000112:    4000                                           BANK
000113:
000114:    5235  E3,1400                                  EBANK=   LST1                                  #  TASK LISTS IN SWITCHED E BANK.
000115:
000116:    5235                                           COUNT*   $$/WAIT
000117:    5235           35001        TWIDBIT1           CAF      ONE
000118:    5236           00004        TWIDDLE            INHINT
000119:    5237           54001                           TS       L                                     #  SAVE DELAY TIME IN L
000120:    5240           34761                           CA       POSMAX
000121:    5241           26002                           ADS      Q                                     #  CREATING OVERFLOW AND Q-1 IN Q
000122:    5242           30006                           CA       BBANK
000123:    5243           00006                           EXTEND
000124:    5244           04007                           ROR      SUPERBNK
000125:    5245           56001                           XCH      L
000126:
000127:    5246           00004        WAITLIST           INHINT
000128:    5247           00006                           EXTEND
000129:    5250           65262                           BZMF     WATLST0-
000130:    5251           56002                           XCH      Q                                     #  SAVE DELTA T IN Q AND RETURN IN
000131:    5252           54061                           TS       WAITEXIT                              #  WAITEXIT.
000132:    5253           00006                           EXTEND
000133:    5254           50061                           INDEX    WAITEXIT                              #  IF TWIDDLING, THE TS SKIPS TO HERE
000134:    5255           30001                           DCA      0                                     #  PICK UP 2CADR OF TASK.
000135:    5256           54063                 -1        TS       WAITADR                               #  BBCON WILL REMAIN IN L
000136:    5257           35267        DLY2               CAF      WAITBB                                #  ENTRY FROM FIXDELAY AND VARDELAY.
000137:    5260           56006                           XCH      BBANK
000138:    5261           13221                           TCF      WAIT2
000139:
000140:    5262           05701        WATLST0-           TC       POODOO
000141:    5263           21204                           OCT      21204
000142:
000143:                                                                                                  #  RETURN TO CALLER AFTER TASK INSERTION:
000144:
000145:    5264           52062        LVWTLIST           DXCH     WAITEXIT
000146:    5265           65000                           AD       TWO
000147:    5266           52006                           DTCB
000148:
000149:    5267  E3,1400                                  EBANK=   LST1
000150:    5267           02063        WAITBB             BBCON    WAIT2
000151:
000152:                                                                                                  #  RETURN TO CALLER +2 AFTER WAITING DT SPECIFIED AT CALLER +1.
000153:
000154:    5270           50002        FIXDELAY           INDEX    Q                                     #  BOTH ROUTINES MUST BE CALLED UNDER
000155:    5271           30000                           CAF      0                                     #  WAITLIST CONTROL AND TERMINATE THE TASK
000156:    5272           24002                           INCR     Q                                     #  IN WHICH THEY WERE CALLED.
000157:
000158:                                                                                                  #  RETURN TO CALLER +1 AFTER WAITING THE DT AS ARRIVING IN A.
000159:
000160:    5273           00006        VARDELAY           EXTEND
000161:    5274           65262                           BZMF     WATLST0-
000162:    5275           56002                           XCH      Q
000163:    5276           54063                           TS       WAITADR
000164:    5277           30006                           CA       BBANK                                 #  BBANK IS SAVED DURING DELAY.
000165:    5300           00006                           EXTEND
000166:    5301           04007                           ROR      SUPERBNK                              #  ADD SBANK TO BBCON.
000167:    5302           54001                           TS       L
000168:    5303           35306                           CAF      DELAYEX
000169:    5304           54061                           TS       WAITEXIT                              #  GO TO TASKOVER AFTER TASK ENTRY.
000170:    5305           15257                           TCF      DLY2
000171:
000172:    5306           15325        DELAYEX            TCF      TASKOVER   -2                         #  RETURNS TO TASKOVER
000173:
000174:                                                                                                  #  ENDTASK MUST BE ENTERED IN FIXED-FIXED SO IT IS DISTINGUISHABLE BY ITS ADRES ALONE.
000175:
000176:    5307  E3,1400                                  EBANK=   LST1
000177:    5307           72466 73714  ENDTASK            -2CADR   SVCT3
000178:
000179:    5311           30076        SVCT3              CA       FLAGWRD2
000180:    5312           74763                           MASK     DRFTBIT
000181:    5313           00006                           EXTEND
000182:    5314           15327                           BZF      TASKOVER
000183:    5315           11325                           CCS      IMUCADR                               #  DON'T DO NBDONLY IF SOMEONE ELSE IS IN
000184:    5316           17703                           TCF      SVCT3X
000185:    5317           15322                           TCF      +3
000186:    5320           17703                           TCF      SVCT3X
000187:    5321           17703                           TCF      SVCT3X
000188:    5322           37657                 +3        CAF      PRIO35                                #  COMPENSATE FOR NBD COEFFICIENTS ONLY.
000189:    5323           05134        NOVACADR           TC       NOVAC                                 #  ENABLE EVERY 81.93 SECONDS (=GENADR)
000190:    5324  E3,1460                                  EBANK=   NBDX
000191:    5324           03556 14063                     2CADR    NBDONLY
000192:
000193:    5326           05327        TSKOVCDR           TC       TASKOVER                              #  (=GENADR)
000194:    6000                                           SETLOC   FFTAG6
000195:    6000                                           BANK
000196:
000197:    7703                                           COUNT*   $$/WAIT
000198:    7703           05270        SVCT3X             TC       FIXDELAY                              #  DELAY MAX OF 2 TIMES FOR IMU ZERO
000199:    7704           00764        DEC500             DEC      500        B-14                       #  MUST COME AFTER SVCT3X
000200:    7705           05311                           TC       SVCT3                                 #  CHECK DRIFT FLAG AGAIN
000201:
000202:                                                                                                  #  BEGIN TASK INSERTION.
000203:
000204: 01,2000                                           SETLOC   EXECB1
000205: 01,2000                                           BANK
000206:
000207: 01,3221                                           COUNT*   $$/WAIT
000208: 01,3221           54062        WAIT2              TS       WAITBANK                              #  BBANK OF CALLING PROGRAM.
000209: 01,3222           40026                           CS       TIME3
000210: 01,3223           64772                           AD       BIT8                                  #  BIT 8 = OCT 200
000211: 01,3224           10000                           CCS      A                                     #  TEST 200 - C(TIME3).  IF POSITIVE,
000212:                                                                                                  #  IT MEANS THAT TIME3 OVERFLOW HAS OCCURRED PRIOR TO CS TIME3 AND THAT
000213:                                                                                                  #  C(TIME3) = T - T1, INSTEAD OF 1.0 - (T1 - T).  THE FOLLOWING FOUR
000214:                                                                                                  #  ORDERS SET C(A) = TD - T1 + 1 IN EITHER CASE.
000215:
000216: 01,3225           66056                           AD       OCT40001                              #  OVERFLOW HAS OCCURRED.  SET C(A) =
000217: 01,3226           40000                           CS       A                                     #  T - T1 + 1.0 - 201
000218:
000219:                                                                                                  #  NORMAL CASE (C(A) NNZ) YIELDS SAME C(A):  -( -(1.0-(T1-T)) + 200) - 1
000220:
000221: 01,3227           63125                           AD       OCT40201
000222: 01,3230           60002                           AD       Q                                     #  RESULT = TD - T1 + 1.
000223:
000224: 01,3231           10000                           CCS      A                                     #  TEST TD - T1 + 1
000225:
000226: 01,3232           61400                           AD       LST1                                  #  IF TD - T1 POS, GO TO WTLST5 WITH
000227: 01,3233           13275                           TCF      WTLST5                                #  C(A) = (TD - T1) + C(LST1) = TD-T2+1
000228:
000229: 01,3234           13235                           NOOP
000230: 01,3235           40002                           CS       Q
000231:
000232:                                                                                                  #  NOTE THAT THIS PROGRAM SECTION IS NEVER ENTERED WHEN T-T1 G/E -1,
000233:                                                                                                  #  SINCE TD-T1+1 = (TD-T) + (T-T1+1), AND DELTA T = TD-T G/E +1.  (G/E
000234:                                                                                                  #  SYMBOL MEANS GREATER THAN OR EQUAL TO).  THUS THERE NEED BE NO CON-
000235:                                                                                                  #  CERN OVER A PREVIOUS OR IMMINENT OVERFLOW OF TIME3 HERE.
000236:
000237: 01,3236           64764                           AD       POS1/2                                #  WHEN TD IS NEXT, FORM QUANTITY
000238: 01,3237           64764                           AD       POS1/2                                #    1.0 - DELTA T = 1.0 - (TD - T)
000239: 01,3240           56026                           XCH      TIME3
000240: 01,3241           64763                           AD       NEGMAX
000241: 01,3242           60002                           AD       Q                                     #  1.0 - DELTAT T NOW COMPLETE.
000242: 01,3243           00006                           EXTEND                                         #  ZERO INDEX Q.
000243: 01,3244           22007                           QXCH     7                                     #  (ZQ)
000244:
000245: 01,3245           57400        WTLST4             XCH      LST1
000246: 01,3246           57401                           XCH      LST1       +1
000247: 01,3247           57402                           XCH      LST1       +2
000248: 01,3250           57403                           XCH      LST1       +3
000249: 01,3251           57404                           XCH      LST1       +4
000250: 01,3252           57405                           XCH      LST1       +5
000251: 01,3253           57406                           XCH      LST1       +6
000252: 01,3254           57407                           XCH      LST1       +7
000253:
000254: 01,3255           30063                           CA       WAITADR                               #  (MINOR PART OF TASK CADR HAS BEEN IN L.)
000255: 01,3256           50002                           INDEX    Q
000256: 01,3257           13260                           TCF      +1
000257:
000258: 01,3260           53411                           DXCH     LST2
000259: 01,3261           53413                           DXCH     LST2       +2
000260: 01,3262           53415                           DXCH     LST2       +4
000261: 01,3263           53417                           DXCH     LST2       +6
000262: 01,3264           53421                           DXCH     LST2       +8D
000263: 01,3265           53423                           DXCH     LST2       +10D                       #  AT END, CHECK THAT C(LST2+10) IS STD
000264: 01,3266           53425                           DXCH     LST2       +12D
000265: 01,3267           53427                           DXCH     LST2       +14D
000266: 01,3270           53431                           DXCH     LST2       +16D
000267: 01,3271           65307                           AD       ENDTASK                               #    END ITEM, AS CHECK FOR EXCEEDING
000268:                                                                                                  #    THE LENGTH OF THE LIST.
000269: 01,3272           00006                           EXTEND                                         #  DUMMY TASK ADRES SHOULD BE IN FIXED-
000270: 01,3273           15264                           BZF      LVWTLIST                              #  FIXED SO ITS ADRES ALONE DISTINGUISHES
000271: 01,3274           13350                           TCF      WTABORT                               #  IT.
000272:
000273: 01,3275           10000        WTLST5             CCS      A                                     #  TEST TD - T2 + 1
000274: 01,3276           61401                           AD       LST1       +1
000275: 01,3277           13303                           TCF      +4
000276: 01,3300           65001                           AD       ONE
000277: 01,3301           03355                           TC       WTLST2
000278: 01,3302           00001                           OCT      1
000279:
000280: 01,3303           10000                 +4        CCS      A                                     #  TEST TD - T3 + 1
000281: 01,3304           61402                           AD       LST1       +2
000282: 01,3305           13311                           TCF      +4
000283: 01,3306           65001                           AD       ONE
000284: 01,3307           03355                           TC       WTLST2
000285: 01,3310           00002                           OCT      2
000286:
000287: 01,3311           10000                 +4        CCS      A                                     #  TEST TD - T4 + 1
000288: 01,3312           61403                           AD       LST1       +3
000289: 01,3313           13317                           TCF      +4
000290: 01,3314           65001                           AD       ONE
000291: 01,3315           03355                           TC       WTLST2
000292: 01,3316           00003                           OCT      3
000293:
000294: 01,3317           10000                 +4        CCS      A                                     #  TEST TD - T5 + 1
000295: 01,3320           61404                           AD       LST1       +4
000296: 01,3321           13325                           TCF      +4
000297: 01,3322           65001                           AD       ONE
000298: 01,3323           03355                           TC       WTLST2
000299: 01,3324           00004                           OCT      4
000300:
000301: 01,3325           10000                 +4        CCS      A                                     #  TEST TD - T6 + 1
000302: 01,3326           61405                           AD       LST1       +5
000303: 01,3327           13333                           TCF      +4
000304: 01,3330           65001                           AD       ONE
000305: 01,3331           03355                           TC       WTLST2
000306: 01,3332           00005                           OCT      5
000307:
000308: 01,3333           10000                 +4        CCS      A                                     #  TEST TD - T7 + 1
000309: 01,3334           61406                           AD       LST1       +6
000310: 01,3335           13341                           TCF      +4
000311: 01,3336           65001                           AD       ONE
000312: 01,3337           03355                           TC       WTLST2
000313: 01,3340           00006                           OCT      6
000314:
000315: 01,3341           10000                 +4        CCS      A
000316: 01,3342           61407                           AD       LST1       +7
000317: 01,3343           13347                           TCF      +4
000318: 01,3344           65001                           AD       ONE
000319: 01,3345           03355                           TC       WTLST2
000320: 01,3346           00007                           OCT      7
000321:
000322: 01,3347           10000                 +4        CCS      A
000323: 01,3350           07750        WTABORT            TC       BAILOUT                               #  NO ROOM IN THE INN.
000324: 01,3351           31203                           OCT      31203
000325:
000326: 01,3352           65001                           AD       ONE
000327: 01,3353           03355                           TC       WTLST2
000328: 01,3354           00010                           OCT      10
000329:
000330:                                                                                                  #  THE ENTRY TO WTLST2 JUST PRECEDING OCT  N  IS FOR T  LE TD LE T   -1.
000331:                                                                                                  #                                                     N           N+1
000332:
000333:                                                                                                  #  (LE MEANS LESS THAN OR EQUAL TO).  AT ENTRY, C(A) = -(TD - T   + 1)
000334:                                                                                                  #                                                              N+1
000335:
000336:                                                                                                  #  THE LST1 ENTRY -(T   -T +1) IS TO BE REPLACED BY -(TD - T + 1), AND
000337:                                                                                                  #                    N+1  N                                 N
000338:
000339:                                                                                                  #  THE ENTRY -(T   - TD + 1) IS TO BE INSERTED IMMEDIATELY FOLLOWING.
000340:                                                                                                  #               N+1
000341:
000342: 01,3355           54064        WTLST2             TS       WAITTEMP                              #  C(A) = -(TD - T + 1)
000343: 01,3356           50002                           INDEX    Q
000344: 01,3357           30000                           CAF      0
000345: 01,3360           54002                           TS       Q                                     #  INDEX VALUE INTO Q.
000346:
000347: 01,3361           35001                           CAF      ONE
000348: 01,3362           60064                           AD       WAITTEMP
000349: 01,3363           50002                           INDEX    Q                                     #  C(A) = -(TD - T ) + 1.
000350: 01,3364           27377                           ADS      LST1       -1                         #                 N
000351:
000352: 01,3365           40064                           CS       WAITTEMP
000353: 01,3366           50002                           INDEX    Q
000354: 01,3367           13245                           TCF      WTLST4
000355:
000356:                                                                                                  #  C(TIME3) = 1.0 - (T1 - T)
000357:
000358:                                                                                                  #  C(LST1  ) = - (T2 - T1) + 1
000359:                                                                                                  #  C(LST1+1) = - (T3 - T2) + 1
000360:                                                                                                  #  C(LST1+2) = - (T4 - T3) + 1
000361:                                                                                                  #  C(LST1+3) = - (T5 - T4) + 1
000362:                                                                                                  #  C(LST1+4) = - (T6 - T5) + 1
000363:
000364:                                                                                                  #  C(LST2   ) = 2CADR    TASK1
000365:                                                                                                  #  C(LST2+2 ) = 2CADR    TASK2
000366:                                                                                                  #  C(LST2+4 ) = 2CADR    TASK3
000367:                                                                                                  #  C(LST2+6 ) = 2CADR    TASK4
000368:                                                                                                  #  C(LST2+8 ) = 2CADR    TASK5
000369:                                                                                                  #  C(LST2+10) = 2CADR    TASK6
000370:
000371:                                                                                                  #  ENTERS HERE ON T3 RUPT TO DISPATCH WAITLISTED TASK.
000372:
000373: 01,3370           00006        T3RUPT             EXTEND
000374: 01,3371           04007                           ROR      SUPERBNK                              #  READ CURRENT SUPERBANK VALUE AND
000375: 01,3372           54016                           TS       BANKRUPT                              #  SAVE WITH E AND F BANK VALUES.
000376: 01,3373           00006                           EXTEND
000377: 01,3374           22012                           QXCH     QRUPT
000378:
000379: 01,3375           34762        T3RUPT2            CAF      NEG1/2                                #  DISPATCH WAITLIST TASK.
000380: 01,3376           57407                           XCH      LST1       +7
000381: 01,3377           57406                           XCH      LST1       +6
000382: 01,3400           57405                           XCH      LST1       +5
000383: 01,3401           57404                           XCH      LST1       +4                         #  1.  MOVE UP LST1 CONTENTS, ENTERING
000384: 01,3402           57403                           XCH      LST1       +3                         #      A VALUE OF 1/2 +1 AT THE BOTTOM
000385: 01,3403           57402                           XCH      LST1       +2                         #      FOR T6-T5, CORRESPONDING TO THE
000386: 01,3404           57401                           XCH      LST1       +1                         #      INTERVAL 81.91 SEC FOR ENDTASK.
000387: 01,3405           57400                           XCH      LST1
000388: 01,3406           64761                           AD       POSMAX                                #  2. SET T3 = 1.0 - T2 - T USING LIST 1.
000389: 01,3407           26026                           ADS      TIME3                                 #  SO T3 WONT TICK DURING UPDATE.
000390: 01,3410           55127                           TS       RUPTAGN
000391: 01,3411           45003                           CS       ZERO
000392: 01,3412           55127                           TS       RUPTAGN                               #  SETS RUPTAGN TO +1 ON OVERFLOW.
000393:
000394: 01,3413           00006                           EXTEND                                         #  DISPATCH TASK.
000395: 01,3414           45310                           DCS      ENDTASK
000396: 01,3415           53431                           DXCH     LST2       +16D
000397: 01,3416           53427                           DXCH     LST2       +14D
000398: 01,3417           53425                           DXCH     LST2       +12D
000399: 01,3420           53423                           DXCH     LST2       +10D
000400: 01,3421           53421                           DXCH     LST2       +8D
000401: 01,3422           53417                           DXCH     LST2       +6
000402: 01,3423           53415                           DXCH     LST2       +4
000403: 01,3424           53413                           DXCH     LST2       +2
000404: 01,3425           53411                           DXCH     LST2
000405:
000406: 01,3426           56001                           XCH      L
000407: 01,3427           00006                           EXTEND
000408: 01,3430           01007                           WRITE    SUPERBNK                              #  SET SUPERBANK FROM BBCON OF 2CADR
000409: 01,3431           56001                           XCH      L                                     #  RESTORE TO L FOR DXCH Z.
000410: 01,3432           52006                           DTCB
000411:
000412:                                                                                                  #  RETURN, AFTER EXECUTION OF T3 OVERFLOW TASK:
000413:
000414:    4000                                           SETLOC   WAITF2
000415:    4000                                           BANK
000416:
000417:    5327                                           COUNT*   $$/WAIT
000418:    5327           11127        TASKOVER           CCS      RUPTAGN                               #  IF +1 RETURN TO T3RUPT, IF -0 RESUME.
000419:    5330           35267                           CAF      WAITBB
000420:    5331           54006                           TS       BBANK
000421:    5332           13375                           TCF      T3RUPT2                               #  DISPATCH NEXT TASK IF IT WAS DUE.
000422:
000423:    5333           30016        SUPERRSM           CA       BANKRUPT
000424:    5334           00006                           EXTEND
000425:    5335           01007                           WRITE    SUPERBNK                              #  RESTORE SUPERBANK BEFORE RESUME IS DONE
000426:
000427:    5336           00006        RESUME             EXTEND
000428:    5337           22012                           QXCH     QRUPT
000429:    5340           30016        NOQRSM             CA       BANKRUPT
000430:    5341           56006                 +1        XCH      BBANK
000431:    5342           52011        NOQBRSM            DXCH     ARUPT
000432:    5343           00003                           RELINT
000433:    5344           50017                           RESUME
000434:
000435:                                                                                                  #  LONGCALL
000436:                                                                                                  #  PROGRAM DESCRIPTION                                         DATE- 17 MARCH 1967
000437:                                                                                                  #  PROGRAM WRITTEN BY W.H. VANDEVER                           LOG SECTION WAITLIST
000438:                                                                                                  #  MOD BY- R. MELANSON TO ADD DOCUMENTATION              ASSEMBLY SUNDISK REV. 100
000439:
000440:                                                                                                  #  FUNCTIONAL DESCRIPTION-
000441:                                                                                                  #  LONGCALL IS CALLED WITH THE DELTA TIME ARRIVING IN A,L SCALED AS TIME2,TIME1 WITH THE 2CADR OF THE TASK
000442:                                                                                                  #  IMMEDIATELY FOLLOWING THE TC LONGCALL.  FOR EXAMPLE, IT MIGHT BE DONE AS FOLLOWS WHERE TIMELOC IS THE NAME OF
000443:                                                                                                  #  A DP REGISTER CONTAINING A DELTA TIME AND WHERE TASKTODO IS THE NAME OF THE LOCATION AT WHICH LONGCALL IS TO
000444:                                                                                                  #  START
000445:
000446:                                                                                                  #  CALLING SEQUENCE-
000447:                                                                                                  #                                EXTEND
000448:                                                                                                  #                                DCA     TIMELOC
000449:                                                                                                  #                                TC      LONGCALL
000450:                                                                                                  #                                2CADR   TASKTODO
000451:
000452:                                                                                                  #  NORMAL EXIT MODE-
000453:                                                                                                  #        1). TC    WAITLIST
000454:                                                                                                  #        2). DTCB  (TO L+3 OF CALLING ROUTINE 1ST PASS THRU LONGCYCL)
000455:                                                                                                  #        3). DTCB  (TO TASKOVER ON SUBSEQUENT PASSES THRU LONGCYCL)
000456:
000457:                                                                                                  #  ALARM OR ABORT EXIT MODE-
000458:                                                                                                  #        NONE
000459:
000460:                                                                                                  #  OUTPUT-
000461:                                                                                                  #        LONGTIME AND LONGTIME+1 = DELTA TIME
000462:                                                                                                  #        LONGEXIT AND LONGEXIT+1 = RETURN 2CADR
000463:                                                                                                  #        LONGCADR AND LONGCADR+1 = TASK 2CADR
000464:                                                                                                  #        A = SINGLE PRECISION TIME FOR WAITLIST
000465:
000466:                                                                                                  #  ERASABLE INITIALIZATION-
000467:                                                                                                  #        A = MOST SIGNIFICANT PART OF DELTA TIME
000468:                                                                                                  #        L = LEAST SIGNIFICANT PART OF DELTA TIME
000469:                                                                                                  #        Q = ADDRESS OF 2CADR TASK VALUE
000470:
000471:                                                                                                  #  DEBRIS-
000472:                                                                                                  #        A,Q,L
000473:                                                                                                  #        LONGCADR AND LONGCADR+1
000474:                                                                                                  #        LONGEXIT AND LONGEXIT+1
000475:                                                                                                  #        LONGTIME AND LONGTIME+1
000476:
000477:                                                                                                  #  *** THE FOLLOWING IS TO BE IN FIXED-FIXED AND UNSWITCHED ERRASIBLE ***
000478:
000479:    4000                                           SETLOC   WAITF2
000480:    4000                                           BANK
000481:
000482:    5345                                           COUNT*   $$/WAIT
000483:    5345  E3,1400                                  EBANK=   LST1
000484:    5345           53275        LONGCALL           DXCH     LONGTIME                              #  OBTAIN THE DELTA TIME
000485:
000486:    5346           00006                           EXTEND                                         #  OBTAIN THE 2CADR
000487:    5347           50002                           NDX      Q
000488:    5350           30001                           DCA      0
000489:    5351           53271                           DXCH     LONGCADR
000490:
000491:    5352           00006                           EXTEND                                         #  NOW GO TO THE APPROPRIATE SWITCHED BANK
000492:    5353           35356                           DCA      LGCL2CDR                              #  FOR THE REST OF LONGCALL
000493:    5354           52006                           DTCB
000494:
000495:    5355  E3,1400                                  EBANK=   LST1
000496:    5355           03433 02063  LGCL2CDR           2CADR    LNGCALL2
000497:
000498:                                                                                                  #  *** THE FOLLOWING MAY BE IN A SWITCHED BANK, INCLUDING ITS ERASABLE ***
000499:
000500: 01,2000                                           SETLOC   EXECB1
000501: 01,2000                                           BANK
000502:
000503: 01,3433                                           COUNT*   $$/WAIT
000504: 01,3433           23435        LNGCALL2           LXCH     LONGEXIT   +1                         #  SAVE THE CORRECT BB FOR RETURN
000505: 01,3434           35000                           CA       TWO                                   #  OBTAIN THE RETURN ADDRESS
000506: 01,3435           26002                           ADS      Q
000507: 01,3436           55434                           TS       LONGEXIT
000508:
000509: 01,3437           11274        LGCLNGTM           CCS      LONGTIME                              #  TEST FOR NEG. TIME
000510: 01,3440           13446                           TCF      LONGCYCL                              #  HI-ORDER POS...OK
000511: 01,3441           13443                           TCF      +2                                    #           ZERO..TEST LO-ORDER
000512: 01,3442           15262                           TCF      WATLST0-                              #           NEG...POODOO
000513: 01,3443           31275                           CA       LONGTIME   +1                         #           ZERO..TEST LO-ORDER
000514: 01,3444           00006                           EXTEND
000515: 01,3445           65262                           BZMF     WATLST0-                              #  LO-ORDER ZERO/NEG...POODOO
000516:
000517:                                                                                                  #  *** WAITLIST TASK LONGCYCL ***
000518:
000519: 01,3446           00006        LONGCYCL           EXTEND                                         #  CAN WE SUCCESFULLY TAKE ABOUT 1.25
000520: 01,3447           43460                           DCS      DPBIT14                               #  MINUTES OFF OF LONGTIME
000521: 01,3450           21275                           DAS      LONGTIME
000522:
000523: 01,3451           11275                           CCS      LONGTIME   +1                         #  THE REASONIBG BEHIND THIS PART IS
000524: 01,3452           13470                           TCF      MUCHTIME                              #  INVOLVED, TAKING INTO ACCOUNT THAT THE
000525:                                                                                                  #  WORDS MAY NOT BE SIGNED CORRECTED (DP
000526:                                                                                                  #  BASIC INSTRUCTIONS
000527:                                                                                                  #  DO NOT SIGN CORRECT) AND THAT WE SUBTRAC
000528:                                                                                                  #  TED BIT14 (1 OVER HALF THE POS. VALUE
000529:                                                                                                  #  REPRESENTIBLE IN SINGLE WORD)
000530: 01,3453           13454                           NOOP                                           #  CAN:T GET HERE        **********
000531: 01,3454           13455                           TCF      +1
000532: 01,3455           11274                           CCS      LONGTIME
000533: 01,3456           13470                           TCF      MUCHTIME
000534: 01,3457           00000        DPBIT14            OCT      00000
000535: 01,3460           20000                           OCT      20000
000536:
000537:                                                                                                  #  LONGCALL
000538: 01,3461           34764        LASTTIME           CA       BIT14                                 #  GET BACK THE CORRECT DELTA T FOR WAITLIST
000539: 01,3462           27275                           ADS      LONGTIME   +1
000540: 01,3463           05236                           TC       TWIDDLE
000541: 01,3464           03150                           ADRES    GETCADR                               #  THE ENTRY TO OUR LONGCADR
000542: 01,3465           35326        LONGRTRN           CA       TSKOVCDR                              #  SET IT UP SO THAT ONLY THE FIRST EXIT IS
000543: 01,3466           53435                           DXCH     LONGEXIT                              #  TO THE CALLER OF LONGCALL
000544: 01,3467           52006                           DTCB                                           #  THE REST ARE TO TASKOVER
000545:
000546: 01,3470           34764        MUCHTIME           CA       BIT14                                 #  WE HAVE OVER OUR ABOUT 1.25 MINUTES
000547: 01,3471           05246        WTLTCADR           TC       WAITLIST                              #  SET UP ANOTHER CYCLE THRU HERE (=GENADR)
000548: 01,3472  E3,1400                                  EBANK=   LST1
000549: 01,3472           03446 02063                     2CADR    LONGCYCL
000550:
000551: 01,3474           13465                           TCF      LONGRTRN                              #  NOW EXIT PROPERLY

End of include-file WAITLIST.agc.  Parent file is MAIN.agc


