
Source Code


000002:                                                                                                  ## Copyright:   Public domain.
000003:                                                                                                  ## Filename:    ALARM_AND_ABORT.agc
000004:                                                                                                  ## Purpose:     A section of Artemis revision 071.
000005:                                                                                                  ##              It is part of the reconstructed source code for the first
000006:                                                                                                  ##              release of the flight software for the Command Module's
000007:                                                                                                  ##              (CM) Apollo Guidance Computer (AGC) for Apollo 15 through
000008:                                                                                                  ##              17. The code has been recreated from a copy of Artemis 072.
000009:                                                                                                  ##              It has been adapted such that the resulting bugger words
000010:                                                                                                  ##              exactly match those specified for Artemis 071 in NASA
000011:                                                                                                  ##              drawing 2021154-, which gives relatively high confidence
000012:                                                                                                  ##              that the reconstruction is correct.
000013:                                                                                                  ## Reference:   1486
000014:                                                                                                  ## Assembler:   yaYUL
000015:                                                                                                  ## Contact:     Ron Burkey <info@sandroid.org>.
000016:                                                                                                  ## Website:     www.ibiblio.org/apollo/index.html
000017:                                                                                                  ## Mod history: 2019-08-14 MAS  Created from Artemis 072.
000018:


000020:
000021:                                                                                                  #  THE FOLLOWING SUBROUTINE MAY BE CALLED TO DISPLAY A NON-ABORTIVE ALARM CONDITION. IT MAY BE CALLED
000022:                                                                                                  #  EITHER IN INTERRUPT OR UNDER EXECUTIVE CONTROL.
000023:
000024:                                                                                                  #        CALLING SEQUENCE IS AS FOLLOWS:
000025:
000026:                                                                                                  #        TC      ALARM
000027:                                                                                                  #        OCT     NNNNN
000028:                                                                                                  #                                (RETURNS HERE)
000029:
000030:    4000                                           SETLOC   FFTAG7
000031:    4000                                           BANK
000032:
000033:    5671     0375                                  EBANK=   FAILREG
000034:
000035:    5671                                           COUNT*   $$/ALARM
000036:
000037:                                                                                                  #  ALARM TURNS ON THE PROGRAM ALARM LIGHT, BUT DOES NOT DISPLAY.
000038:
000039:    5671           00004        ALARM              INHINT
000040:
000041:    5672           30002                           CA       Q
000042:    5673           55363        ALARM2             TS       ALMCADR
000043:    5674           50002                           INDEX    Q
000044:    5675           30000                           CA       0
000045:    5676           54001        BORTENT            TS       L
000046:
000047:    5677           30006        PRIOENT            CA       BBANK
000048:    5700           00006                 +1        EXTEND
000049:    5701           04007                           ROR      SUPERBNK                              #  ADD SUPER BITS.
000050:    5702           55364                           TS       ALMCADR    +1
000051:
000052:    5703           30002        LARMENT            CA       Q                                     #  STORE RETURN FOR ALARM
000053:    5704           54061                           TS       ITEMP1
000054:
000055:    5705           10375        CHKFAIL1           CCS      FAILREG                               #  IS ANYTHING IN FAILREG
000056:    5706           15712                           TCF      CHKFAIL2                              #  YES TRY NEXT REG
000057:    5707           30001                           CA       L
000058:    5710           54375                           TS       FAILREG
000059:    5711           15716                           TCF      PROGLARM                              #  TURN ALARM LIGHT ON FOR FIRST ALARM
000060:
000061:    5712           10376        CHKFAIL2           CCS      FAILREG    +1
000062:    5713           15716                           TCF      PROGLARM
000063:    5714           30001                           CA       L
000064:    5715           54376                           TS       FAILREG    +1
000065:
000066:    5716           22377        PROGLARM           LXCH     FAILREG    +2                         #  STORE AS "MOST RECENT" ALARM CODE
000067:
000068:    5717           41241                           CS       DSPTAB     +11D                       #  TURN ON PROGRAM ALARM IF OFF
000069:    5720           77716                           MASK     BIT15+9
000070:    5721           27241                           ADS      DSPTAB     +11D
000071:
000072:    5722           56061        MULTEXIT           XCH      ITEMP1                                #  OBTAIN RETURN ADDRESS IN A


000074:    5723           00003                           RELINT
000075:    5724           50000                           INDEX    A
000076:    5725           00001                           TC       1
000077:
000078:                                                                                                  #  PRIOLARM DISPLAYS V05N09 VIA PRIODSPR WITH 3 RETURNS TO THE USER FROM THE ASTRONAUT AT CALL LOC +1,+2,+3 AND
000079:                                                                                                  #  AN IMMEDIATE RETURN TO THE USER AT CALL LOC +4. EXAMPLE FOLLOWS,
000080:                                                                                                  #                CAF     OCTXX           ALARM CODE
000081:                                                                                                  #                TC      BANKCALL
000082:                                                                                                  #                CADR    PRIOLARM
000083:
000084:                                                                                                  #                ...     ...
000085:                                                                                                  #                ...     ...
000086:                                                                                                  #                ...     ...             ASTRONAUT RETURN
000087:                                                                                                  #                TC      PHASCHNG        IMMEDIATE RETURN TO USER. RESTART
000088:                                                                                                  #                OCT     X.1             PHASE CHANGE FOR PRIO DISPLAY
000089:
000090: 10,2000                                           SETLOC   DISPLAYS
000091: 10,2000                                           BANK
000092:
000093: 10,3766                                           COUNT*   $$/DSPLA
000094: 10,3766           00004        PRIOLARM           INHINT                                         #  * * * KEEP IN DISPLAY ROUTINES BANK
000095: 10,3767           54001                           TS       L                                     #  SAVE ALARM CODE
000096:
000097: 10,3770           30133                           CA       BUF2                                  #  2 CADR OF PRIOLARM USER
000098: 10,3771           55363                           TS       ALMCADR
000099: 10,3772           30134                           CA       BUF2       +1
000100: 10,3773           05700                           TC       PRIOENT    +1                         #  * LEAVE L ALONE
000101: 10,3774           77467        -2SEC              DEC      -200       B-14                       #  *** DONT MOVE
000102: 10,3775           35023                           CAF      V05N09
000103: 10,3776           12750                           TCF      PRIODSPR
000104:
000105:    6000                                           SETLOC   FFTAG13
000106:    6000                                           BANK
000107:
000108:    7706                                           COUNT*   $$/ALARM
000109:    7706           00004        BAILOUT            INHINT
000110:    7707           30002                           CA       Q
000111:    7710           55363                           TS       ALMCADR
000112:
000113:    7711           04636                           TC       BANKCALL
000114:    7712           40000                           CADR     VAC5STOR
000115:
000116:    7713           51363                           INDEX    ALMCADR
000117:    7714           30000                           CAF      0
000118:    7715           05676                           TC       BORTENT
000119:    7716           40400        BIT15+9            OCT      40400
000120:
000121:    7717           00004                 -1        INHINT
000122:    7720           34767        WHIMPER            CA       TWO
000123:    7721           60005                           AD       Z


000125:    7722           54017                           TS       BRUPT
000126:    7723           50017                           RESUME
000127:    7724           04655                           TC       POSTJUMP                              #  RESUME SENDS CONTROL HERE
000128:    7725           12712                           CADR     ENEMA
000129:
000130:    4000                                           SETLOC   FFTAG7
000131:    4000                                           COUNT*   $$/ALARM
000132:    4000                                           BANK
000133:
000134:    5726           00004        POODOO             INHINT
000135:    5727           30002                           CA       Q
000136:    5730           55363                           TS       ALMCADR
000137:
000138:    5731           04636                           TC       BANKCALL
000139:    5732           40000                           CADR     VAC5STOR                              #  STORE ERASABLES FOR DEBUGGING PURPOSES.
000140:
000141:    5733           51363                           INDEX    ALMCADR
000142:    5734           30000                           CAF      0
000143:    5735           05676        ABORT2             TC       BORTENT
000144:
000145:    5736           77770        OCT77770           OCT      77770                                 #  DONT MOVE
000146:    5737           34763                           CA       V37FLBIT                              #  IS AVERAGE G ON
000147:    5740           70103                           MASK     FLAGWRD7
000148:    5741           10000                           CCS      A
000149:    5742           07717                           TC       WHIMPER    -1                         #  YES.  DONT DO POODOO.  DO BAILOUT.
000150:
000151:    5743           44753                           CS       BIT14                                 #  DISREGARD ENTRY SETTING
000152:    5744           71247                           MASK     EXTVBACT                              #  EXTENDED VBS ACTIVE?
000153:    5745           10000                           CCS      A
000154:    5746           17717                           TCF      WHIMPER    -1                         #  YES  DONT DO POODOO  DO BAILOUT
000155:
000156:    5747           05561                           TC       DOWNFLAG
000157:    5750           00067                           ADRES    STATEFLG
000158:
000159:    5751           05561                           TC       DOWNFLAG
000160:    5752           00236                           ADRES    AUTOSEQ
000161:
000162:    5753           05561                           TC       DOWNFLAG
000163:    5754           00230                           ADRES    REINTFLG
000164:
000165:    5755           05561                           TC       DOWNFLAG
000166:    5756           00176                           ADRES    UTFLAG
000167:    5757           05561                           TC       DOWNFLAG
000168:    5760           00010                           ADRES    RNDVZFLG
000169:    5761           05561                           TC       DOWNFLAG
000170:    5762           00031                           ADRES    TRACKFLG                              #  FORCE STOPRATE
000171:    5763           05561                           TC       DOWNFLAG
000172:    5764           00054                           ADRES    NODOFLAG
000173:
000174:    5765           04636                           TC       BANKCALL


000176:    5766           12536                           CADR     MR.KLEAN
000177:    5767           07720                           TC       WHIMPER
000178:
000179:    5770     5205               DOALARM            EQUALS   ENDOFJOB
000180:
000181:                                                                                                  #  CALLING SEQUENCE FOR VARALARM
000182:                                                                                                  #                CAF     (ALARM)
000183:                                                                                                  #                TC      VARALARM
000184:
000185:                                                                                                  #  VARALARM TURNS ON PROGRAM ALARM LIGHT BUT DOES NOT DISPLAY
000186:
000187:    5770           00004        VARALARM           INHINT
000188:
000189:    5771           54001                           TS       L                                     #  SAVE USERS ALARM CODE
000190:
000191:    5772           30002                           CA       Q                                     #  SAVE USERS Q
000192:    5773           55363                           TS       ALMCADR
000193:
000194:    5774           05677                           TC       PRIOENT
000195:    5775           00014        OCT14              OCT      14                                    #  DONT MOVE
000196:
000197:    5776           01363                           TC       ALMCADR                               #  RETURN TO USER
000198:
000199:    5777     7706               ABORT              EQUALS   BAILOUT                               #  *** TEMPORARY UNTIL ABORT CALLS OUT

End of include-file ALARM_AND_ABORT.agc.  Parent file is MAIN.agc


