
Source Code


000002:                                                                                                  ## Copyright:   Public domain.
000003:                                                                                                  ## Filename:    AUTOMATIC_MANEUVERS.agc
000004:                                                                                                  ## Purpose:     A section of Artemis revision 071.
000005:                                                                                                  ##              It is part of the reconstructed source code for the first
000006:                                                                                                  ##              release of the flight software for the Command Module's
000007:                                                                                                  ##              (CM) Apollo Guidance Computer (AGC) for Apollo 15 through
000008:                                                                                                  ##              17. The code has been recreated from a copy of Artemis 072.
000009:                                                                                                  ##              It has been adapted such that the resulting bugger words
000010:                                                                                                  ##              exactly match those specified for Artemis 071 in NASA
000011:                                                                                                  ##              drawing 2021154-, which gives relatively high confidence
000012:                                                                                                  ##              that the reconstruction is correct.
000013:                                                                                                  ## Reference:   1024
000014:                                                                                                  ## Assembler:   yaYUL
000015:                                                                                                  ## Contact:     Ron Burkey <info@sandroid.org>.
000016:                                                                                                  ## Website:     www.ibiblio.org/apollo/index.html
000017:                                                                                                  ## Mod history: 2019-08-14 MAS  Created from Artemis 072.
000018:


000020: 21,2000                                           SETLOC   DAPS3
000021: 21,2000                                           BANK
000022:
000023: 21,3272                                           COUNT*   $$/DAPAM
000024: 21,3272  E6,1510                                  EBANK=   KMPAC
000025: 21,3272           34753        AHFNOROT           CAF      BIT14
000026: 21,3273           05654                           TC       C31BTCHK
000027: 21,3274           13310                           TCF      FREECONT
000028: 21,3275           31501                           CA       RCSFLAGS                              #  SEE IF RATE FILTER HAS BEEN INITIALIZED
000029: 21,3276           74753                           MASK     BIT14
000030: 21,3277           10000                           CCS      A                                     #  IF SO, PROCEED WITH ATTITUDE CONTROL
000031: 21,3300           12541                           TCF      REINIT                                #  IF NOT, RECYCLE TO INITIALIZE FILTER
000032:                                                                                                  #  AUTOMATIC CONTROL YET
000033: 21,3301           34754                           CAF      BIT13
000034: 21,3302           05654                           TC       C31BTCHK
000035: 21,3303           13404                           TCF      HOLDFUNC
000036: 21,3304           31340        AUTOCONT           CA       HOLDFLAG                              #  IF HOLDFLAG IS +, GO TO GRABANG.
000037: 21,3305           00006                           EXTEND                                         #  OTHERWISE, GO TO ATTHOLD.
000038: 21,3306           63334                           BZMF     ATTHOLD
000039: 21,3307           13410                           TCF      GRABANG
000040:
000041:                                                                                                  #  MINIMUM IMPULSE CONTROL
000042:
000043: 21,3310           34770        FREECONT           CAF      ONE
000044: 21,3311           55340                           TS       HOLDFLAG                              #  RESET HOLDFLAG
000045:                                                                                                  #  INHIBIT AUTOMATIC STEERING
000046: 21,3312           00006                           EXTEND
000047: 21,3313           00032                           READ     CHAN32
000048: 21,3314           54001                           TS       L
000049: 21,3315           40000                           COM
000050: 21,3316           71633                           MASK     CHANTEMP
000051: 21,3317           23633                           LXCH     CHANTEMP
000052: 21,3320           73063        RHCMINP            MASK     MANROT
000053: 21,3321           03152                           TC       STICKCHK
000054: 21,3322           51656                           INDEX    RMANNDX
000055: 21,3323           34614                           CA       MINTAU                                #  MINTAU  +0
000056: 21,3324           55561                           TS       TAU                                   #             +1   +14MS MINIMUM IMPULSE
000057: 21,3325           51657                           INDEX    PMANNDX                               #             +2   -14MS TIME
000058: 21,3326           34614                           CA       MINTAU                                #             +3   +0
000059: 21,3327           55562                           TS       TAU1
000060: 21,3330           51660                           INDEX    YMANNDX
000061: 21,3331           34614                           CA       MINTAU
000062: 21,3332           55563                           TS       TAU2
000063: 21,3333           13105                           TCF      T6PROGM
000064:
000065:
000066:    4000                                           SETLOC   FFTAG12
000067:    4000                                           BANK
000068:
000069:    4614                                           COUNT*   $$/DAPAM


000071:
000072:    4614           00000        MINTAU             DEC      0          B-14
000073:    4615           00027        DEC23              DEC      23         B-14                       #  = 14 MS
000074:    4616           77750        DECNEG23           DEC      -23        B-14                       #  = -14 MS
000075:    4617           00000                           DEC      0          B-14
000076:
000077:
000078: 21,2000                                           SETLOC   DAPS3
000079: 21,2000                                           BANK
000080:
000081: 21,3334                                           COUNT*   $$/DAPAM
000082:


000084:                                                                                                  #  CALCULATION OF ATTITUDE ERRORS-
000085:
000086:                                                                                                  #        -    *     -      -          -
000087:                                                                                                  #        AK = AMGB (CDUX - THETADX) + BIAS
000088:
000089:                                                                                                  #  IE    *AK *   * 1   SIN(PSI)            0     ** CDUX - THETADX *    *BIAS *
000090:                                                                                                  #        *   *   *                               **                *    *     *
000091:                                                                                                  #        *AK1* = * 0   COS(PSI)COS(PHI)  SIN(PHI)** CDUY - THETADY *  + *BIAS1*
000092:                                                                                                  #        *   *   *                               **                *    *     *
000093:                                                                                                  #        *AK2*   * 0  -COS(PSI)SIN(PHI)  COS(PHI)** CDUZ - THETADZ *    *BIAS2*
000094:
000095:                                                                                                  #  THE BIASES ARE ADDED ONLY WHILE PERFORMING AUTOMATIC MANEUVERS (ESP KALCMANU) TO PROVIDE ADDITIONAL LEAD
000096:                                                                                                  #  AND PREVENT OVERSHOOT WHEN STARTING AN AUTOMATIC MANEUVER. NORMALLY THE REQUIRED LEAD IS ONLY 1-2 DEGREES.
000097:                                                                                                  #  BUT DURING HIGH RATE MANEUVERS IT CAN BE AS MUCH AS 7 DEGREES.  THE BIASES ARE COMPUTED BY KALCMANU AND REMAIN
000098:                                                                                                  #  FIXED UNTIL THE MANEUVER IS COMPLETED AT WHICH TIME THEY ARE RESET TO ZERO.
000099:
000100: 21,3334           30032        ATTHOLD            CA       CDUX
000101: 21,3335           00006                           EXTEND
000102: 21,3336           21572                           MSU      THETADX
000103: 21,3337           55567                           TS       ERRORX
000104: 21,3340           30033                           CA       CDUY
000105: 21,3341           00006                           EXTEND
000106: 21,3342           21573                           MSU      THETADY
000107: 21,3343           55502                           TS       T5TEMP
000108: 21,3344           00006                           EXTEND
000109: 21,3345           71640                           MP       AMGB1
000110: 21,3346           27567                           ADS      ERRORX
000111: 21,3347           31502                           CA       T5TEMP
000112: 21,3350           00006                           EXTEND
000113: 21,3351           71641                           MP       AMGB4
000114: 21,3352           55570                           TS       ERRORY
000115: 21,3353           31502                           CA       T5TEMP
000116: 21,3354           00006                           EXTEND
000117: 21,3355           71643                           MP       AMGB7
000118: 21,3356           55571                           TS       ERRORZ
000119: 21,3357           30034                           CA       CDUZ
000120: 21,3360           00006                           EXTEND
000121: 21,3361           21574                           MSU      THETADZ
000122: 21,3362           55502                           TS       T5TEMP
000123: 21,3363           00006                           EXTEND
000124: 21,3364           71642                           MP       AMGB5
000125: 21,3365           27570                           ADS      ERRORY
000126: 21,3366           31502                           CA       T5TEMP
000127: 21,3367           00006                           EXTEND
000128: 21,3370           71644                           MP       AMGB8
000129: 21,3371           27571                           ADS      ERRORZ
000130: 21,3372           41340                           CS       HOLDFLAG
000131: 21,3373           00006                           EXTEND


000133: 21,3374           63452                           BZMF     JETS
000134: 21,3375           31564                           CA       BIAS                                  #  AD BIASES ONLY IF PERFORMING AUTOMATIC
000135: 21,3376           27567                           ADS      ERRORX
000136: 21,3377           31565                           CA       BIAS1
000137: 21,3400           27570                           ADS      ERRORY
000138: 21,3401           31566                           CA       BIAS2
000139: 21,3402           27571                           ADS      ERRORZ
000140: 21,3403           13452                           TCF      JETS
000141:
000142:
000143: 21,3404           11340        HOLDFUNC           CCS      HOLDFLAG
000144: 21,3405           13410                           TCF      +3
000145: 21,3406           13334                           TCF      ATTHOLD
000146: 21,3407           13410                           TCF      +1
000147: 21,3410           34772        GRABANG            CAF      ZERO                                  #  ZERO WBODYS AND BIASES
000148: 21,3411           55525                           TS       WBODY
000149: 21,3412           55526                           TS       WBODY      +1
000150: 21,3413           55527                           TS       WBODY1
000151: 21,3414           55530                           TS       WBODY1     +1
000152: 21,3415           55531                           TS       WBODY2
000153: 21,3416           55532                           TS       WBODY2     +1
000154: 21,3417           55564                           TS       BIAS
000155: 21,3420           55565                           TS       BIAS1
000156: 21,3421           55566                           TS       BIAS2
000157:
000158: 21,3422           31501                           CA       RCSFLAGS
000159: 21,3423           73064                           MASK     OCT16000
000160: 21,3424           00006                           EXTEND                                         #  IS RATE DAMPING COMPLETED
000161: 21,3425           13433                           BZF      ENDDAMP                               #  IF SO, GO TO ENDDAMP
000162: 21,3426           34772                           CAF      ZERO                                  #  OTHERWISE, ZERO ERRORS
000163: 21,3427           55567                           TS       ERRORX
000164: 21,3430           55570                           TS       ERRORY
000165: 21,3431           55571                           TS       ERRORZ
000166: 21,3432           13452                           TCF      JETS
000167:
000168: 21,3433           55340        ENDDAMP            TS       HOLDFLAG                              #  SET HOLDFLAG +0
000169: 21,3434           00006                           EXTEND
000170: 21,3435           30033                           DCA      CDUX                                  #  PICK UP CDU ANGLES FOR ATTITUDE HOLD
000171: 21,3436           53573                           DXCH     THETADX                               #  REFERENCES
000172: 21,3437           30034                           CA       CDUZ
000173: 21,3440           55574                           TS       THETADZ
000174: 21,3441           13334                           TCF      ATTHOLD
000175:


000177:                                                                                                  #  JET SWITCHING LOGIC AND CALCULATION OF REQUIRED ROTATION COMMANDS
000178:
000179:                                                                                                  #  DETERMINE THE LOCATION OF THE RATE ERROR AND THE ATTITUDE ERROR RELATIVE TO THE SWITCHING LOGIC IN THE PHASE
000180:                                                                                                  #  PLANE.
000181:                                                                                                  #  COMPUTE THE CHANGE IN RATE CORRESPONDING TO THE ATTITUDE ERROR NECESSARY TO DRIVE THE THE S/C INTO THE
000182:                                                                                                  #  APPROPRIATE DEADZONE.
000183:
000184:
000185:                                                                                                  #                                      .
000186:                                                                                                  #    R22                          RATE . ERROR
000187:                                                                                                  #         WL+H                         .
000188:                                                                                                  #  *********************************   .                                 ***** SWITCH LINES ENCLOSING DEADZONES
000189:                                                                                                  #    R23  WL                        *  .
000190:                                                                                                  #  --------------------------------- * .                                 ----- DESIRED RATE LINES
000191:                                                                                                  #    R23  WL-H       -                *.
000192:                                                                                                  #  ****************** -                .                                 R20, R21, R22, ETC  REGIONS IN PHASE
000193:                                                                                                  #                    * -               .* R18      R20       R21         PLANE FOF COMPUTING DESIRED RESPONSE
000194:                                                                                                  #                     *                . *
000195:                                                                                                  #                      *-              .  *
000196:                                                                                                  #    R22             R24*-     R23     .   *
000197:                                                                                                  #                        *-            .    *
000198:                                                                                                  #                         *            .     *
000199:                                                                                                  #                          + -ADB      .      * AF              ATTITUDE
000200:                                                                                                  #  .........................+--+---------------+--+........................
000201:                                                                                                  #                            AF *      .     +ADB  +             ERROR
000202:                                                                                                  #                                *     .            *
000203:                                                                                                  #                                 *    .            -*
000204:                                                                                                  #                                  *   .             -*
000205:                                                                                                  #                                   *  .              -*
000206:                                                                                                  #                                    * .                *
000207:                                                                                                  #                                     *.               - *
000208:                                                                                                  #                                      .                - *****************
000209:                                                                                                  #                                      .*                -
000210:                                                                                                  #                                      . * --------------------------------
000211:                                                                                                  #                                      .  *
000212:                                                                                                  #                                      .   ********************************
000213:                                                                                                  #                                      .
000214:
000215:                                                                                                  #                        FIG. 1  PHASE PLANE SWITCHING LOGIC
000216:
000217:
000218:                                                                                                  #  CONSTANTS FOR JET SWITCHING LOGIC
000219:
000220: 21,3442           00114        WLH/SLOP           DEC      .00463                                #  = WL+H/SLOPE = .83333 DEG     $180
000221: 21,3443     5006               WL-H/SLP           =        DEC45                                 #  = WL-H/SLOPE = .5 DEG          $180
000222: 21,3443           00022 06426  WLH                2DEC     .0011111111                            #  = WL+H = 0.5 DEG/SEC          $450
000223: 21,3445           00012 35415  WLMH               2DEC     .0006666666                            #  = WL-H = 0.3 DEG/SEC          $450
000224: 21,3447           00016 22021  WL                 2DEC     .0008888888                            #  = WL   = 0.4 DEG/SEC          $450
000225:


000227: 21,3451           12173        SLOPE2             DEC      .32                                   #  = 0.8 DEG/SEC/DEG             $450/180
000228: 21,3452           31655        JETS               CA       ADB
000229: 21,3453           64766                           AD       FOUR                                  #  AF = FLAT REGION = .044 DEG
000230: 21,3454           55502                           TS       T5TEMP                                #  ADB+AF
000231: 21,3455           34767                           CAF      TWO
000232: 21,3456           55506        JLOOP              TS       SPNDX
000233: 21,3457           60000                           DOUBLE
000234: 21,3460           55507                           TS       DPNDX
000235: 21,3461           00006                           EXTEND
000236: 21,3462           50000                           INDEX    A
000237: 21,3463           31534                           DCA      ADOT
000238: 21,3464           53516                           DXCH     EDOT
000239: 21,3465           31340                           CA       HOLDFLAG                              #  HOLDFLAG = +0 MEANS THAT DAP IS IN
000240: 21,3466           00006                           EXTEND                                         #  ATTITUDE HOLD AND RATE DAMPING IS OVER.
000241: 21,3467           13474                           BZF      INHOLD                                #  IF THIS IS THE CASE, BYPASS ADDITION
000242:                                                                                                  #  OF WBODY AND GO TO INHOLD
000243: 21,3470           00006                           EXTEND
000244: 21,3471           51507                           INDEX    DPNDX
000245: 21,3472           41526                           DCS      WBODY
000246: 21,3473           21516                           DAS      EDOT                                  #  = ADOT-WBODY
000247: 21,3474           51506        INHOLD             INDEX    SPNDX
000248: 21,3475           31567                           CA       ERRORX
000249: 21,3476           55517                           TS       AERR                                  #  AERR = BIAS + AK
000250:
000251: 21,3477           11515                           CCS      EDOT
000252: 21,3500           13510                           TCF      POSVEL
000253: 21,3501           13503                           TCF      SIGNCK1
000254: 21,3502           13520                           TCF      NEGVEL
000255: 21,3503           11516        SIGNCK1            CCS      EDOT       +1
000256: 21,3504           13510                           TCF      POSVEL
000257: 21,3505           13510                           TCF      POSVEL
000258: 21,3506           13520                           TCF      NEGVEL
000259: 21,3507           13520                           TCF      NEGVEL
000260: 21,3510           00006        POSVEL             EXTEND
000261: 21,3511           31516                           DCA      EDOT
000262: 21,3512           53521                           DXCH     EDOTVEL
000263: 21,3513           31502                           CA       T5TEMP
000264: 21,3514           55523                           TS       ADBVEL                                #  +(ADB+AF)
000265: 21,3515           31517                           CA       AERR
000266: 21,3516           55522                           TS       AERRVEL
000267: 21,3517           03527                           TC       J6.
000268: 21,3520           00006        NEGVEL             EXTEND
000269: 21,3521           41516                           DCS      EDOT
000270: 21,3522           53521                           DXCH     EDOTVEL
000271: 21,3523           41502                           CS       T5TEMP
000272: 21,3524           55523                           TS       ADBVEL                                #  -(ADB+AF)
000273: 21,3525           41517                           CS       AERR
000274: 21,3526           55522                           TS       AERRVEL
000275:
000276: 21,3527           00006        J6.                EXTEND


000278: 21,3530           61655                           SU       ADB
000279: 21,3531           63442                           AD       WLH/SLOP
000280: 21,3532           00006                           EXTEND
000281: 21,3533           63562                           BZMF     J8
000282:
000283: 21,3534           41502                           CS       T5TEMP                                #  (ADB+AF)
000284: 21,3535           61522                           AD       AERRVEL
000285: 21,3536           00006                           EXTEND
000286: 21,3537           63541                           BZMF     +2
000287: 21,3540           13553                           TCF      J7
000288: 21,3541           00006                           EXTEND
000289: 21,3542           41521                           DCS      EDOTVEL
000290: 21,3543           00006                           EXTEND
000291: 21,3544           11654                           DV       SLOPE
000292: 21,3545           00006                           EXTEND
000293: 21,3546           61522                           SU       AERRVEL
000294: 21,3547           61655                           AD       ADB
000295: 21,3550           00006                           EXTEND
000296: 21,3551           63641                           BZMF     J18
000297: 21,3552           13715                           TCF      J23
000298:
000299: 21,3553           45006        J7                 CS       WL-H/SLP
000300: 21,3554           00006                           EXTEND
000301: 21,3555           61502                           SU       T5TEMP                                #  (ADB+AF)
000302: 21,3556           61522                           AD       AERRVEL
000303: 21,3557           00006                           EXTEND
000304: 21,3560           63645                           BZMF     J20
000305: 21,3561           13656                           TCF      J21
000306:
000307: 21,3562           00006        J8                 EXTEND
000308: 21,3563           43444                           DCS      WLH
000309: 21,3564           53514                           DXCH     WTEMP
000310: 21,3565           00006                           EXTEND
000311: 21,3566           31521                           DCA      EDOTVEL
000312: 21,3567           21514                           DAS      WTEMP
000313: 21,3570           11513                           CCS      WTEMP
000314: 21,3571           13704                           TCF      J22
000315: 21,3572           13574                           TCF      SIGNCK2
000316: 21,3573           13600                           TCF      NJ22
000317: 21,3574           11514        SIGNCK2            CCS      WTEMP      +1
000318: 21,3575           13704                           TCF      J22
000319: 21,3576           13704                           TCF      J22
000320: 21,3577           13600                           TCF      NJ22
000321:
000322: 21,3600           00006        NJ22               EXTEND
000323: 21,3601           31521                           DCA      EDOTVEL
000324: 21,3602           00006                           EXTEND
000325: 21,3603           11654                           DV       SLOPE
000326: 21,3604           61502                           AD       T5TEMP                                #  (ADB+AF)
000327: 21,3605           61522                           AD       AERRVEL


000329: 21,3606           10000                           CCS      A
000330: 21,3607           13715                           TCF      J23
000331: 21,3610           13715                           TCF      J23
000332: 21,3611           13613                           TCF      +2
000333: 21,3612           13715                           TCF      J23
000334:
000335: 21,3613           00006                           EXTEND
000336: 21,3614           43446                           DCS      WLMH                                  #  WL - H
000337: 21,3615           53514                           DXCH     WTEMP
000338: 21,3616           00006                           EXTEND
000339: 21,3617           31521                           DCA      EDOTVEL
000340: 21,3620           21514                           DAS      WTEMP
000341: 21,3621           11513                           CCS      WTEMP
000342: 21,3622           13715                           TCF      J23
000343: 21,3623           13625                           TCF      SIGNCK3
000344: 21,3624           13631                           TCF      NJ23
000345: 21,3625           11514        SIGNCK3            CCS      WTEMP      +1
000346: 21,3626           13715                           TCF      J23
000347: 21,3627           13715                           TCF      J23
000348: 21,3630           13631                           TCF      NJ23
000349:
000350: 21,3631           31522        NJ23               CA       AERRVEL
000351: 21,3632           61502                           AD       T5TEMP                                #  (ADB+AF)
000352: 21,3633           65006                           AD       WL-H/SLP
000353: 21,3634           10000                           CCS      A
000354: 21,3635           13727                           TCF      J24
000355: 21,3636           13727                           TCF      J24
000356: 21,3637           13704                           TCF      J22
000357: 21,3640           13704                           TCF      J22
000358:
000359: 21,3641           00006        J18                EXTEND
000360: 21,3642           41516                           DCS      EDOT
000361: 21,3643           53511                           DXCH     KMPAC
000362: 21,3644           13740                           TCF      JTIME
000363:
000364: 21,3645           41517        J20                CS       AERR
000365: 21,3646           61523                           AD       ADBVEL
000366: 21,3647           00006                           EXTEND
000367: 21,3650           73451                           MP       SLOPE2                                #  (HYSTERESIS SLOPE)
000368: 21,3651           53511                           DXCH     KMPAC
000369: 21,3652           00006                           EXTEND
000370: 21,3653           41516                           DCS      EDOT
000371: 21,3654           21511                           DAS      KMPAC
000372: 21,3655           13740                           TCF      JTIME
000373:
000374: 21,3656           11515        J21                CCS      EDOT
000375: 21,3657           13675                           TCF      JP
000376: 21,3660           13662                           TCF      SIGNCK4
000377: 21,3661           13666                           TCF      JN
000378: 21,3662           11516        SIGNCK4            CCS      EDOT       +1


000380: 21,3663           13675                           TCF      JP
000381: 21,3664           13675                           TCF      JP
000382: 21,3665           13666                           TCF      JN
000383: 21,3666           00006        JN                 EXTEND
000384: 21,3667           41516                           DCS      EDOT
000385: 21,3670           53511                           DXCH     KMPAC
000386: 21,3671           00006                           EXTEND
000387: 21,3672           33450                           DCA      WL
000388: 21,3673           21511                           DAS      KMPAC
000389: 21,3674           13740                           TCF      JTIME
000390:
000391: 21,3675           00006        JP                 EXTEND
000392: 21,3676           41516                           DCS      EDOT
000393: 21,3677           53511                           DXCH     KMPAC
000394: 21,3700           00006                           EXTEND
000395: 21,3701           43450                           DCS      WL
000396: 21,3702           21511                           DAS      KMPAC
000397: 21,3703           13740                           TCF      JTIME
000398:
000399: 21,3704           11515        J22                CCS      EDOT
000400: 21,3705           13666                           TCF      JN
000401: 21,3706           13710                           TCF      SIGNCK5
000402: 21,3707           13675                           TCF      JP
000403: 21,3710           11516        SIGNCK5            CCS      EDOT       +1
000404: 21,3711           13666                           TCF      JN
000405: 21,3712           13666                           TCF      JN
000406: 21,3713           13675                           TCF      JP
000407: 21,3714           13675                           TCF      JP
000408:
000409: 21,3715           51506        J23                INDEX    SPNDX
000410: 21,3716           44754                           CS       BIT13                                 #  RESET RATE DAMPING FLAG
000411: 21,3717           71501                           MASK     RCSFLAGS                              #  BIT13 FOR ROLL  (SPNDX = 0)
000412: 21,3720           55501                           TS       RCSFLAGS                              #  BIT12 FOR PITCH (SPNDX = 1)
000413:                                                                                                  #  BIT11 FOR YAW   (SPNDX = 2)
000414:
000415: 21,3721           51506                           INDEX    SPNDX
000416: 21,3722           33060                           CAF      OCT01400                              #  IS THERE TO BE A FORCED FIRING ON THIS
000417: 21,3723           71501                           MASK     RCSFLAGS                              #  AXIS
000418: 21,3724           00006                           EXTEND
000419: 21,3725           13761                           BZF      DOJET      +2                         #  NO, GO TO DOJET +2 AND DO NOTHING
000420:
000421: 21,3726           13641                           TCF      J18                                   #  YES, GO TO J18 AND FORCE A FIRING
000422:
000423: 21,3727           41517        J24                CS       AERR
000424: 21,3730           00006                           EXTEND
000425: 21,3731           61523                           SU       ADBVEL
000426: 21,3732           00006                           EXTEND
000427: 21,3733           73451                           MP       SLOPE2                                #  (HYSTERESIS SLOPE)
000428: 21,3734           53511                           DXCH     KMPAC
000429: 21,3735           00006                           EXTEND


000431: 21,3736           41516                           DCS      EDOT
000432: 21,3737           21511                           DAS      KMPAC
000433:


000435:                                                                                                  #  COMPUTE THE JET ON TIME NECESSARY TO ACCOMPLISH THE DESIRED CHANGE IN RATE, IE
000436:
000437:                                                                                                  #             T  = J/M(DELTA W)
000438:                                                                                                  #              J
000439:
000440:                                                                                                  #        DELTA W = DESIRED CHANGE IN S/C ANGULAR RATE AS DETERMINED BY THE
000441:                                                                                                  #                  SWITCHING LOGIC,  AT THIS POINT STORED IN KMPAC.
000442:
000443:                                                                                                  #           J/M  = S/C INERTIA TO TORQUE 9ATIO SCALED BY
000444:                                                                                                  #                    (57.3/450)(B24/1600)(1/.8)
000445:                                                                                                  #                  FOR 1 JET OPERATION  (M = 700 FT-LB).
000446:                                                                                                  #                  IE J/M = J(SLUG-FTFT) X 0.00000085601606
000447:
000448:                                                                                                  #                  THE CORRESPONDING COMPUTER VARIABLES ESTABLISHED BY
000449:                                                                                                  #                  KEYBOARD ENTRY ARE
000450:                                                                                                  #                     J/M (ROLL)
000451:                                                                                                  #                     J/M1 (PITCH)
000452:                                                                                                  #                     J/M2 (YAW)
000453:
000454:                                                                                                  #            T   = JET ON-TIME     SCALED 16384/1600 SEC
000455:                                                                                                  #             J
000456:
000457:                                                                                                  #                  THE COMPUTER VARIABLES ARE
000458:                                                                                                  #                        TAU  (ROLL)
000459:                                                                                                  #                        TAU1 (PITCH)
000460:                                                                                                  #                        TAU2 (YAW)
000461:
000462:
000463: 21,3740           51506        JTIME              INDEX    SPNDX                                 #  PICK UP S/C INERTIA/TORQUE RATIO
000464: 21,3741           31623                           CA       J/M                                   #  SCALED (57.3/450)(B24/1600)
000465: 21,3742           02060                           TC       SMALLMP                               #  FOR 1-JET OPERATION
000466: 21,3743           34756                           CA       BIT11
000467: 21,3744           02060                           TC       SMALLMP
000468: 21,3745           11510                           CCS      KMPAC
000469: 21,3746           13752                           TCF      +4
000470: 21,3747           13756                           TCF      TAUNORM
000471: 21,3750           13754                           TCF      +4
000472: 21,3751           13756                           TCF      TAUNORM
000473: 21,3752           34750                           CA       POSMAX
000474: 21,3753           13757                           TCF      DOJET
000475: 21,3754           34752                           CA       NEGMAX
000476: 21,3755           13757                           TCF      DOJET
000477:
000478: 21,3756           31511        TAUNORM            CA       KMPAC      +1
000479: 21,3757           51506        DOJET              INDEX    SPNDX
000480: 21,3760           55561                           TS       TAU
000481: 21,3761           11506                 +2        CCS      SPNDX
000482: 21,3762           13456                           TCF      JLOOP
000483: 21,3763           00006        T6PROG             EXTEND                                         #  WHEN THE ROTATION COMMANDS (TAUS)
000484: 21,3764           33770                           DCA      JETADDR                               #  HAVE BEEN DETERMINED


000486: 21,3765           52113                           DXCH     T5LOC                                 #  RESET T5LOC FOR PHASE3
000487: 21,3766           15323                           TCF      RESUME
000488:
000489: 21,3767  E6,1510                                  EBANK=   KMPAC
000490: 21,3767           02541 36066  JETADDR            2CADR    JETSLECT

End of include-file AUTOMATIC_MANEUVERS.agc.  Parent file is MAIN.agc


