
Source Code


000002:                                                                                                  ## Copyright:   Public domain.
000003:                                                                                                  ## Filename:    DOWNLINK_LISTS.agc
000004:                                                                                                  ## Purpose:     A section of Artemis revision 071.
000005:                                                                                                  ##              It is part of the reconstructed source code for the first
000006:                                                                                                  ##              release of the flight software for the Command Module's
000007:                                                                                                  ##              (CM) Apollo Guidance Computer (AGC) for Apollo 15 through
000008:                                                                                                  ##              17. The code has been recreated from a copy of Artemis 072.
000009:                                                                                                  ##              It has been adapted such that the resulting bugger words
000010:                                                                                                  ##              exactly match those specified for Artemis 071 in NASA
000011:                                                                                                  ##              drawing 2021154-, which gives relatively high confidence
000012:                                                                                                  ##              that the reconstruction is correct.
000013:                                                                                                  ## Reference:   179
000014:                                                                                                  ## Assembler:   yaYUL
000015:                                                                                                  ## Contact:     Ron Burkey <info@sandroid.org>.
000016:                                                                                                  ## Website:     www.ibiblio.org/apollo/index.html
000017:                                                                                                  ## Mod history: 2019-08-14 MAS  Created from Artemis 072.
000018:


000020: 05,2000                                           SETLOC   DOWNTELM
000021: 05,2000                                           BANK
000022:
000023: 05,2000     0337                                  EBANK=   DNTMBUFF
000024:
000025:                                                                                                  #  SPECIAL DOWNLINK OP CODES
000026:                                                                                                  #        OP CODE          ADDRESS(EXAMPLE)         SENDS..               BIT 15          BITS 14-12      BITS 11
000027:                                                                                                  #                                                                                                             -0
000028:                                                                                                  #        ------          ----------              ----------              ------          ----------      -------
000029:                                                                                                  #                                                                                                             --
000030:                                                                                                  #        1DNADR          TIME2                   (2 AGC WDS)             0               0               ECADR
000031:                                                                                                  #        2DNADR          TEPHEM                  (4 AGC WDS)             0               1               ECADR
000032:                                                                                                  #        3DNADR          VGBODY                  (6 AGC WDS)             0               2               ECADR
000033:                                                                                                  #        4DNADR          STATE                   (8 AGC WDS)             0               3               ECADR
000034:                                                                                                  #        5DNADR          UPBUFF                  (10 AGC WDS)            0               4               ECADR
000035:                                                                                                  #        6DNADR          DSPTAB                  (12 AGC WDS)            0               5               ECADR
000036:                                                                                                  #        DNCHAN          30                      CHANNELS                0               7               CHANNEL
000037:                                                                                                  #                                                                                                        ADDRESS
000038:                                                                                                  #        DNPTR           NEXTLIST                POINTS TO NEXT          0               6               ADRES
000039:                                                                                                  #                                                LIST.
000040:
000041:                                                                                                  #  DOWNLIST FORMAT DEFINITIONS AND RULES -
000042:                                                                                                  #  1. END OF A LIST = -XDNADR (X = 1 TO 6), -DNPTR, OR -DNCHAN.
000043:                                                                                                  #  2. SNAPSHOT SUBLIST = LIST WHICH STARTS WITH A -1DNADR.
000044:                                                                                                  #  3. SNAPSHOT SUBLIST CAN ONLY CONTAIN 1DNADRS.
000045:                                                                                                  #  4. TIME2 1DNADR MUST BE LOCATED IN THE CONTROL LIST OF A DOWNLIST.
000046:                                                                                                  #  5. ERASABLE DOWN TELEMETRY WORDS SHOULD BE GROUPED IN SEQUENTIAL
000047:                                                                                                  #     LOCATIONS AS MUCH AS POSSIBLE TO SAVE STORAGE USED BY DOWNLINK LISTS.
000048:                                                                                                  #  6. THE DOWNLINK LISTS (INCLUDING SUBLISTS) ARE ORGANIZED SUCH THAT THE ITEMS LISTED FIRST (IN FRONT OF FBANK) ARE
000049:                                                                                                  #     SENT FIRST. EXCEPTION--- SNAPSHOT SUBLISTS. IN THE SNAPSHOT SUBLISTS THE DATA REPRESENTED BY THE FIRST
000050:                                                                                                  #     11 1DNADRS IS PRESERVED (IN ORDER) IN DNTMBUFF AND SENT BY THE NEXT 11 DOWNRUPTS.  THE DATA REPRESENTED BY THE
000051:                                                                                                  #     LIST IS SENT IMMEDIATELY.
000052:
000053: 05,2000                                           COUNT*   $$/DLIST
000054: 05,2000                        ERASZERO           EQUALS   7
000055: 05,2000  0000007               SPARE              EQUALS   ERASZERO                              #  USE SPARE TO INDICATE AVAILABLE SPACE
000056: 05,2000           77340        LOWIDCOD           OCT      77340                                 #  LOW ID CODE
000057:
000058: 05,2001  05,2113               NOMDNLST           EQUALS   CMCSTADL                              #  FRESH START AND POST P27 DOWNLIST
000059: 05,2001  05,2211               UPDNLIST           EQUALS   CMENTRDL                              #  UPDATE PROGRAM (P27) DOWNLIST
000060:


000062:
000063:                                                                                                  #  CSM POWERED FLIGHT DOWNLIST
000064:
000065:                                                                                                  #  --------------------------CONTROL LIST----------------------------------
000066:
000067: 05,2001                        CMPOWEDL           EQUALS
000068: 05,2001           32043                           DNPTR    CMPOWE01                              #  COLLECT SNAPSHOT
000069: 05,2002           24337                           6DNADR   DNTMBUFF                              #  SEND SNAPSHOT
000070: 05,2003           32052                           DNPTR    CMPOWE02                              #  COLLECT SECOND SNAPSHOT
000071: 05,2004           14337                           4DNADR   DNTMBUFF                              #  SEND SNAPSHOT
000072: 05,2005           32057                           DNPTR    CMPOWE03                              #  COMMON DATA
000073: 05,2006           03412                           1DNADR   TIG                                   #  TIG,+1
000074: 05,2007           03422                           1DNADR   DELLT4                                #  DELLT4,+1
000075: 05,2010           13414                           3DNADR   RTARG                                 #  RTARG,+1,+2,...+5
000076: 05,2011           03427                           1DNADR   TGO                                   #  TGO,+1
000077: 05,2012           01104                           1DNADR   PIPTIME1                              #  PIPTIME1,+1
000078: 05,2013           11314                           3DNADR   DELV                                  #  DELV,+1,...+4,+5
000079: 05,2014           03023                           1DNADR   PACTOFF                               #  PACTOFF,YACTOFF
000080: 05,2015           03223                           1DNADR   PCMD                                  #  PCMD,YCMD
000081: 05,2016           03702                           1DNADR   CSTEER                                #  CSTEER,GARBAGE
000082: 05,2017           12444                           3DNADR   DELVEET1                              #  CSI DELTA VELOCITY COMPONENTS   (31-33)
000083: 05,2020           25733                           6DNADR   REFSMMAT                              #  REFSMMAT,+1,...+10,+11
000084: 05,2021           32061                           DNPTR    CMPOWE04                              #  COMMON DATA
000085: 05,2022           00024                           1DNADR   TIME2                                 #  TIME2,TIME1
000086: 05,2023           32063                           DNPTR    CMPOWE05                              #  COLLECT SNAPSHOT
000087: 05,2024           24337                           6DNADR   DNTMBUFF                              #  SEND SNAPSHOT
000088: 05,2025           32052                           DNPTR    CMPOWE02                              #  COLLECT SNAPSHOT
000089: 05,2026           14337                           4DNADR   DNTMBUFF                              #  SEND SNAPSHOT
000090: 05,2027           32057                           DNPTR    CMPOWE03                              #  COMMON DATA
000091: 05,2030           32075                           DNPTR    CMPOWE08                              #  COMMON DATA
000092: 05,2031           03743                           1DNADR   ELEV                                  #  ELEV,+1
000093: 05,2032           03753                           1DNADR   CENTANG                               #  CENTANG,+1
000094: 05,2033           00007                           1DNADR   SPARE
000095: 05,2034           00106                           1DNADR   STATE      +10D                       #  FALGWRDS 10 AND 11
000096: 05,2035           01021                           1DNADR   TEVENT                                #  TEVENT,+1
000097: 05,2036           03223                           1DNADR   PCMD                                  #  PCMD,YCMD
000098: 05,2037           01337                           1DNADR   OPTMODES                              #  OPTMODES,HOLDFLAG
000099: 05,2040           32101                           DNPTR    CMPOWE07                              #  COMMON DATA
000100: 05,2041           13720                           3DNADR   VGTIG                                 #  VGTIG,+1,...+4,+5
000101: 05,2042           64111                           -3DNADR  DELVEET2                              #  CDH DELTA VELOCITY COMPONENTS   (98-100)
000102:
000103:                                                                                                  #  ---------------------------SUB LISTS------------------------------------
000104:
000105: 05,2043           76746        CMPOWE01           -1DNADR  RN         +2                         #  RN+2,+3                       SNAPSHOT DATA
000106: 05,2044           01033                           1DNADR   RN         +4                         #  RN+4,+5
000107: 05,2045           01035                           1DNADR   VN                                    #  VN,+1
000108: 05,2046           01037                           1DNADR   VN         +2                         #  VN+2,+3
000109: 05,2047           01041                           1DNADR   VN         +4                         #  VN+4,+5
000110: 05,2050           01043                           1DNADR   PIPTIME                               #  PIPTIME,+1
000111: 05,2051           76750                           -1DNADR  RN                                    #  RN,+1
000112:
000113: 05,2052           77743        CMPOWE02           -1DNADR  CDUZ                                  #  CDUZ,CDUT                     SNAPSHOT DATA


000115: 05,2053           03133                           1DNADR   ADOT                                  #  ADOT,+1/OGARATE,+1
000116: 05,2054           03135                           1DNADR   ADOT       +2                         #  ADOT+2,+3/OMEGAB+2,+3
000117: 05,2055           03137                           1DNADR   ADOT       +4                         #  ADOT+4,+5/OMEGAB+4,+5
000118: 05,2056           77745                           -1DNADR  CDUX                                  #  CDUX,CDUY
000119:
000120: 05,2057           07076        CMPOWE03           2DNADR   AK                                    #  AK,AK1,AK2,RCSFLAGS           COMMON DATA
000121: 05,2060           70605                           -2DNADR  THETADX                               #  THETADX,THETADY,THETADZ,GARBAGE
000122:
000123: 05,2061           20074        CMPOWE04           5DNADR   STATE                                 #  FLAGWRD0 THRU FLAGWRD9        COMMON DATA
000124: 05,2062           52551                           -6DNADR  DSPTAB                                #  DISPLAY TABLES
000125:
000126: 05,2063           76056        CMPOWE05           -1DNADR  R-OTHER    +2                         #  R-OTHER+2,+3                  SNAPSHOT DATA
000127: 05,2064           01723                           1DNADR   R-OTHER    +4                         #  R-OTHER+4,+5
000128: 05,2065           01725                           1DNADR   V-OTHER                               #  V-OTHER,+1
000129: 05,2066           01727                           1DNADR   V-OTHER    +2                         #  V-OTHER+2,+3
000130: 05,2067           01731                           1DNADR   V-OTHER    +4                         #  V-OTHER+4,+5
000131: 05,2070           01642                           1DNADR   T-OTHER                               #  T-OTHER,+1
000132: 05,2071           76060                           -1DNADR  R-OTHER                               #  R-OTHER,+1
000133:
000134: 05,2072           00775        CMPOWE06           1DNADR   OPTION1                               #  OPTION1,2                     COMMON DATA
000135: 05,2073           01516                           1DNADR   TET                                   #  TET,+1
000136: 05,2074           07172                           2DNADR   THETADX                               #  THETADX,THETADY,THETEDZ,GARBAGE
000137: 05,2075           01432        CMPOWE08           1DNADR   RSBBQ                                 #  RSBBQ,+1
000138: 05,2076           34076                           DNCHAN   76                                    #  CHANNELS 76(GARBAGE),77
000139: 05,2077           04374                           2DNADR   C31FLWRD                              #  C31FLWRD,FAILREG,+1,+2
000140: 05,2100           73741                           -2DNADR  CDUS                                  #  CDUS,PIPAX,PIPAY,PIPAZ
000141:
000142: 05,2101           03072        CMPOWE07           1DNADR   LEMMASS                               #  LEMMASS,CSMMASS               COMMON DATA
000143: 05,2102           03065                           1DNADR   DAPDATR1                              #  DAPDATR1,DAPDATR2
000144: 05,2103           07167                           2DNADR   ERRORX                                #  ERRORX,ERRORY,ERRORZ,GARBAGE
000145: 05,2104           13125                           3DNADR   WBODY                                 #  WBODY,...+5/OMEGAC,...+5
000146: 05,2105           05306                           2DNADR   REDOCTR                               #  REDOCTR,THETAD,+1,+2
000147: 05,2106           01333                           1DNADR   IMODES30                              #  IMODES30,IMODES33
000148: 05,2107           34011        CMPOWE09           DNCHAN   11                                    #  CHANNELS 11,12
000149: 05,2110           34013                           DNCHAN   13                                    #  CHANNELS 13,14
000150: 05,2111           34030                           DNCHAN   30                                    #  CHANNELS 30,31
000151: 05,2112           43745                           -DNCHAN  32                                    #  CHANNELS 32,33
000152:
000153:                                                                                                  #  ------------------------------------------------------------------------
000154:                                                                                                  #  *** THE FOLLOWING IS A LIST OF LOCATIONS IN DOWNLINK LISTS
000155:                                                                                                  #  *** BUT NOT REFERENCED IN THE DIRECTORY BECAUSE THEY ARE NOT
000156:                                                                                                  #  *** THE FIRST LOCATION REFERENCED IN AN INSTRUCTION
000157:                                                                                                  #  *** THIS LIST SHOULD BE UPDATED WHEN ANY CHANGES ARE MADE TO LISTS.
000158:
000159:                                                                                                  #                        LOCATION                          LIST NAME
000160:
000161: 05,2113  E6,1424               DL101              =        YACTOFF                               #  CMPOWEDL
000162: 05,2113  E6,1624               DL102              =        YCMD
000163: 05,2113  0000025               DL103              =        TIME1


000165: 05,2113  E6,1624               DL104              =        YCMD
000166: 05,2113     1340               DL105              =        HOLDFLAG
000167: 05,2113  E7,1722               DL1055             =        VMAGI
000168: 05,2113  E7,1724               DL1056             =        VGTLI
000169: 05,2113  0000035               DL106              =        CDUT                                  #  CMPOWE02
000170: 05,2113  E6,1533               DL107              =        OGARATE
000171: 05,2113  E6,1533               DL108              =        OMEGAB
000172: 05,2113  0000033               DL109              =        CDUY
000173: 05,2113  E6,1477               DL110              =        AK1                                   #  CMPOWE03
000174: 05,2113  E6,1500               DL111              =        AK2
000175: 05,2113  E6,1501               DL112              =        RCSFLAGS
000176: 05,2113  E6,1573               DL113              =        THETADY
000177: 05,2113  E6,1574               DL114              =        THETADZ
000178: 05,2113     0776               DL115              =        OPTION2                               #  CMPOWE06
000179: 05,2113  E6,1573               DL116              =        THETADY
000180: 05,2113  E6,1574               DL117              =        THETADZ
000181: 05,2113     0375               DL118              =        FAILREG                               #  CMPOWE08
000182: 05,2113  0000037               DL119              =        PIPAX
000183: 05,2113  0000040               DL120              =        PIPAY
000184: 05,2113  0000041               DL121              =        PIPAZ
000185: 05,2113  E6,1473               DL122              =        CSMMASS                               #  CMPOWE07
000186: 05,2113  E6,1466               DL123              =        DAPDATR2
000187: 05,2113  E6,1570               DL124              =        ERRORY
000188: 05,2113  E6,1571               DL125              =        ERRORZ
000189: 05,2113  E6,1525               DL126              =        OMEGAC
000190: 05,2113     1307               DL127              =        THETAD
000191: 05,2113     1334               DL128              =        IMODES33
000192:


000194:
000195:                                                                                                  #  CSM COAST AND ALIGNMENT DOWNLIST
000196:
000197:                                                                                                  #  ------------------------------CONTROL LIST------------------------------
000198:
000199: 05,2113                        CMCSTADL           EQUALS                                         #  SEND ID BY SPECIAL CODING
000200: 05,2113           32043                           DNPTR    CMCSTA01                              #  COLLECT SNAPSHOT
000201: 05,2114           24337                           6DNADR   DNTMBUFF                              #  SEND SNAPSHOT
000202: 05,2115           32052                           DNPTR    CMCSTA02                              #  COLLECT SECOND SNAPSHOT
000203: 05,2116           14337                           4DNADR   DNTMBUFF                              #  SEND SNAPSHOT
000204: 05,2117           32057                           DNPTR    CMCSTA03                              #  COMMON DATA
000205: 05,2120           03412                           1DNADR   TIG                                   #  TIG,+1
000206: 05,2121           00302                           1DNADR   BESTI                                 #  BESTI,BESTJ
000207: 05,2122           17674                           4DNADR   MARKDOWN                              #  MARKDOWN,+1...+5,+6,GARBAGE
000208: 05,2123           17460                           4DNADR   MARK2DWN                              #  MARK2DWN,+1...+5,+6
000209: 05,2124           06342                           2DNADR   HAPOX                                 #  HAPOX,+1,HPERX,+1
000210: 05,2125           03023                           1DNADR   PACTOFF                               #  PACTOFF, YACTOFF                 (30)
000211: 05,2126           13720                           3DNADR   VGTIG                                 #  VGTIG,...+5
000212: 05,2127           25733                           6DNADR   REFSMMAT                              #  REFSMMAT,+1,...+10,+11
000213: 05,2130           32061                           DNPTR    CMCSTA04                              #  COMMON DATA
000214: 05,2131           00024                           1DNADR   TIME2                                 #  TIME2,TIME1
000215: 05,2132           32063                           DNPTR    CMCSTA05                              #  COLLECT SNAPSHOT
000216: 05,2133           24337                           6DNADR   DNTMBUFF                              #  SEND SNAPSHOT
000217: 05,2134           32052                           DNPTR    CMCSTA02                              #  COLLECT SNAPSHOT
000218: 05,2135           14337                           4DNADR   DNTMBUFF                              #  SEND SNAPSHOT
000219: 05,2136           32072                           DNPTR    CMCSTA06                              #  COMMON DATA
000220: 05,2137           12757                           3DNADR   OGC                                   #  OGC,+1,IGC,+1,MGC,+1
000221: 05,2140           00106                           1DNADR   STATE      +10D                       #  FALGWRDS 10 AND 11
000222: 05,2141           01021                           1DNADR   TEVENT                                #  TEVENT,+1
000223: 05,2142           02633                           1DNADR   LAUNCHAZ                              #  LAUNCHAZ,+1
000224: 05,2143           01337                           1DNADR   OPTMODES                              #  OPTMODES,HOLDFLAG
000225: 05,2144           32101                           DNPTR    CMCSTA07                              #  COMMON DATA
000226: 05,2145           52551                           -6DNADR  DSPTAB                                #  DISPLAY TABLES
000227:
000228:                                                                                                  #  --------------------------SUB LISTS-------------------------------------
000229:
000230: 05,2146  05,2043               CMCSTA01           EQUALS   CMPOWE01                              #  COMMON DOWNLIST DATA
000231:
000232: 05,2146  05,2052               CMCSTA02           EQUALS   CMPOWE02                              #  COMMON DOWNLIST DATA
000233:
000234: 05,2146  05,2057               CMCSTA03           EQUALS   CMPOWE03                              #  COMMON DOWNLIST DATA
000235:
000236: 05,2146  05,2061               CMCSTA04           EQUALS   CMPOWE04                              #  COMMON DOWNLIST DATA
000237:
000238: 05,2146  05,2063               CMCSTA05           EQUALS   CMPOWE05                              #  COMMON DOWNLIST DATA
000239:
000240: 05,2146  05,2072               CMCSTA06           EQUALS   CMPOWE06                              #  COMMON DOWNLIST DATA
000241:
000242: 05,2146  05,2101               CMCSTA07           EQUALS   CMPOWE07                              #  COMMON DOWNLIST DATA
000243:
000244:                                                                                                  #  ------------------------------------------------------------------------


000246:                                                                                                  #  *** UNREFERENCED LOCATIONS USED IN LIST 2
000247:                                                                                                  #  *** UPDATE THIS LIST WHEN ANY CHANGES ARE MADE TO DOWNLINK LISTS
000248:
000249:                                                                                                  #                        LOCATION                          LIST NAME
000250:


000252: 05,2146     0303               DL201              =        BESTJ                                 #  CSMSTADL
000253: 05,2146  E4,1744               DL202              =        HPERX
000254: 05,2146  E6,1424               DL203              =        YACTOFF
000255: 05,2146  0000025               DL204              =        TIME1
000256: 05,2146  E5,1761               DL205              =        IGC
000257: 05,2146  E5,1763               DL206              =        MGC
000258:


000260:
000261:                                                                                                  #  CSM RENDEZVOUS AND PRETHRUST LIST
000262:
000263:                                                                                                  #  ----------------------------CONTROL LIST--------------------------------
000264:
000265: 05,2146                        CMRENDDL           EQUALS                                         #  SEND ID BY SPECIAL CODING
000266: 05,2146           32043                           DNPTR    CMREND01                              #  COLLECT SNAPSHOT
000267: 05,2147           24337                           6DNADR   DNTMBUFF                              #  SEND SNAPSHOT
000268: 05,2150           32052                           DNPTR    CMREND02                              #  COLLECT SECOND SNAPSHOT
000269: 05,2151           14337                           4DNADR   DNTMBUFF                              #  SEND SNAPSHOT
000270: 05,2152           32057                           DNPTR    CMREND03                              #  COMMON DATA
000271: 05,2153           03412                           1DNADR   TIG                                   #  TIG,+1
000272: 05,2154           03422                           1DNADR   DELLT4                                #  DELLT4,+1
000273: 05,2155           13414                           3DNADR   RTARG                                 #  RTARG,+1...+4,+5
000274: 05,2156           01007                           1DNADR   VHFTIME                               #  VHFTIME,+1
000275: 05,2157           17674                           4DNADR   MARKDOWN                              #  MARKDOWN,+1...+5,+6,RM
000276: 05,2160           00771                           1DNADR   VHFCNT                                #  VHFCNT,TRKMKCNT
000277: 05,2161           03662                           1DNADR   TTPI                                  #  TTPI,+1
000278: 05,2162           03424                           1DNADR   ECSTEER                               #  ECSTEER,GARBAGE
000279: 05,2163           02636                           1DNADR   DELVTPF                               #  DELVTPF,+1
000280: 05,2164           06460                           2DNADR   TCDH                                  #  CDH AND CSI TIME                      (32-33)
000281: 05,2165           03655                           1DNADR   TPASS4                                #  TPASS4,+1
000282: 05,2166           13404                           3DNADR   DELVSLV                               #  DELVSLV,+1...+4,+5
000283: 05,2167           06311                           2DNADR   RANGE                                 #  RANGE,+1,RRATE,+1
000284: 05,2170           32061                           DNPTR    CMREND04                              #  COMMON DATA
000285: 05,2171           00024                           1DNADR   TIME2                                 #  TIME2,TIME1
000286: 05,2172           32063                           DNPTR    CMREND05                              #  COLLECT SNAPSHOT
000287: 05,2173           24337                           6DNADR   DNTMBUFF                              #  SEND SNAPSHOT
000288: 05,2174           32052                           DNPTR    CMREND02                              #  COLLECT SNAPSHOT
000289: 05,2175           14337                           4DNADR   DNTMBUFF                              #  SEND SNAPSHOT
000290: 05,2176           32072                           DNPTR    CMREND06                              #  COMMON DATA
000291: 05,2177           02632                           1DNADR   DIFFALT                               #  CDH DELTA ALTITUDE                    (74)
000292: 05,2200           03753                           1DNADR   CENTANG                               #  CENTANG,+1
000293: 05,2201           00007                           1DNADR   SPARE
000294: 05,2202           13645                           3DNADR   DELVEET3                              #  DELVEET3,+1,...+4,+5
000295: 05,2203           01337                           1DNADR   OPTMODES                              #  OPTMODES,HOLDFLAG
000296: 05,2204           32101                           DNPTR    CMREND07                              #  COMMON DATA
000297: 05,2205           02315                           1DNADR   RTHETA                                #  RTHETA,+1
000298: 05,2206           07400                           2DNADR   LAT(SPL)                              #  LAT(SPL),LNG(SPL),+1
000299: 05,2207           07756                           2DNADR   VPRED                                 #  VPRED,+1,GAMMAEI,+1
000300: 05,2210           77671                           -1DNADR  STATE      +10D                       #  FALGWRDS 10 AND 11
000301:
000302:                                                                                                  #  ----------------------------SUB LISTS-----------------------------------
000303:
000304: 05,2211  05,2043               CMREND01           EQUALS   CMPOWE01                              #  COMMON DOWNLIST DATA
000305:
000306: 05,2211  05,2052               CMREND02           EQUALS   CMPOWE02                              #  COMMON DOWNLIST DATA
000307:
000308: 05,2211  05,2057               CMREND03           EQUALS   CMPOWE03                              #  COMMON DOWNLIST DATA
000309:
000310: 05,2211  05,2061               CMREND04           EQUALS   CMPOWE04                              #  COMMON DOWNLIST DATA


000312: 05,2211  05,2063               CMREND05           EQUALS   CMPOWE05                              #  COMMON DOWNLIST DATA
000313:
000314: 05,2211  05,2072               CMREND06           EQUALS   CMPOWE06                              #  COMMON DOWNLIST DATA
000315:
000316: 05,2211  05,2101               CMREND07           EQUALS   CMPOWE07                              #  COMMON DOWNLIST DATA
000317:
000318:                                                                                                  #  ------------------------------------------------------------------------
000319:                                                                                                  #  *** UNREFERENCED LOCATIONS USED IN LIST 3
000320:                                                                                                  #  *** UPDATE THIS LIST WHEN ANY CHANGES ARE MADE TO DOWNLINK LISTS
000321:
000322:                                                                                                  #                        LOCATION                          LIST NAME
000323:
000324: 05,2211  E7,1703               DL301              =        RM                                    #  CMRENDDL
000325: 05,2211     0772               DL3015             =        TRKMKCNT
000326: 05,2211  E5,1462               DL302              =        TCSI
000327: 05,2211  E4,1713               DL303              =        RRATE
000328: 05,2211  0000025               DL304              =        TIME1
000329: 05,2211  E7,1402               DL305              =        LNG(SPL)
000330: 05,2211  E7,1760               DL306              =        GAMMAEI
000331:


000333:
000334:                                                                                                  #  CSM ENTRY AND UPDATE DOWNLIST
000335:
000336:                                                                                                  #  ---------------------------CONTROL LIST---------------------------------
000337:
000338: 05,2211                        CMENTRDL           EQUALS                                         #  SEND ID BY SPECIAL CODING
000339: 05,2211           32043                           DNPTR    CMENTR01                              #  COLLECT SNAPSHOT
000340: 05,2212           24337                           6DNADR   DNTMBUFF                              #  SEND SNAPSHOT
000341: 05,2213           32052                           DNPTR    CMENTR02                              #  COLLECT SECOND SNAPSHOT
000342: 05,2214           14337                           4DNADR   DNTMBUFF                              #  SEND SNAPSHOT
000343: 05,2215           32057                           DNPTR    CMENTR03                              #  COMMON DATA
000344: 05,2216           07300                           2DNADR   CMDAPMOD                              #  CMDAPMOD,PREL,QREL,RREL
000345: 05,2217           03635                           1DNADR   L/D1                                  #  L/D1,+1
000346: 05,2220           24304                           6DNADR   UPBUFF                                #  UPBUFF,+1...+10,+11
000347: 05,2221           14320                           4DNADR   UPBUFF     +12D                       #  UPBUFF+12,13...+18,19D
000348: 05,2222           04300                           2DNADR   COMPNUMB                              #  COMPNUMB,UPOLDMOD,UPVERB,UPCOUNT
000349: 05,2223           03313                           1DNADR   PAXERR1                               #  PAXERR1,ROLLTM
000350: 05,2224           13675                           3DNADR   LATANG                                #  LATANG,+1,RDOT,+1,THETAH,+1
000351: 05,2225           07400                           2DNADR   LAT(SPL)                              #  LAT(SPL),+1,LNG(SPL),+1
000352: 05,2226           03265                           1DNADR   ALFA/180                              #  ALFA/180,BETA/180
000353: 05,2227           32061                           DNPTR    CMENTR04                              #  COMMON DATA
000354: 05,2230           00024                           1DNADR   TIME2                                 #  TIME2,TIME1
000355: 05,2231           32260                           DNPTR    CMENTR05                              #  COLLECT SNAPSHOT
000356: 05,2232           24337                           6DNADR   DNTMBUFF                              #  SEND SNAPSHOT
000357: 05,2233           32052                           DNPTR    CMENTR02                              #  COLLECT SNAPSHOT
000358: 05,2234           14337                           4DNADR   DNTMBUFF                              #  SEND SNAPSHOT
000359: 05,2235           00775                           1DNADR   OPTION1                               #  OPTION1,OPTION2
000360: 05,2236           01516                           1DNADR   TET                                   #  TET,+1
000361: 05,2237           13167                           3DNADR   ERRORX                                #  ERRORX/Y/Z,THETADX/Y/Z
000362: 05,2240           07300                           2DNADR   CMDAPMOD                              #  CMDAPMOD,PREL,QREL,RREL
000363: 05,2241           24304                           6DNADR   UPBUFF                                #  UPBUFF+0,+1...+10,+11D
000364: 05,2242           14320                           4DNADR   UPBUFF     +12D                       #  UPBUFF+12,+13...+18,+19D
000365: 05,2243           03072                           1DNADR   LEMMASS                               #  LEMMASS,CSMMASS
000366: 05,2244           03065                           1DNADR   DAPDATR1                              #  DAPDATR1,DAPDATR2
000367: 05,2245           03314                           1DNADR   ROLLTM                                #  ROLLTM,ROLLC
000368: 05,2246           01337                           1DNADR   OPTMODES                              #  OPTMODES,HOLDFLAG
000369: 05,2247           13125                           3DNADR   WBODY                                 #  WBODY,...+5/OMEGAC,...+5
000370: 05,2250           05306                           2DNADR   REDOCTR                               #  REDOCTR,THETAD+0,+1,+2
000371: 05,2251           01333                           1DNADR   IMODES30                              #  IMODES30,IMODES33
000372: 05,2252           32107                           DNPTR    CMENTR09                              #  COMMON DATA
000373: 05,2253           01432                           1DNADR   RSBBQ                                 #  RSBBQ,+1
000374: 05,2254           34076                           DNCHAN   76                                    #  CHANNELS 76(GARBAGE),77
000375: 05,2255           04374                           2DNADR   C31FLWRD                              #  C31FLWRD,FAILREG,+1,+2
000376: 05,2256           00106                           1DNADR   STATE      +10D                       #  FALGWRDS 10 AND 11
000377: 05,2257           74017                           -1DNADR  GAMMAEI                               #  GAMMAEI,+1
000378:
000379:                                                                                                  #  ----------------------------SUB LISTS-----------------------------------
000380:
000381: 05,2260  05,2043               CMENTR01           EQUALS   CMPOWE01                              #  COMMON DOWNLIST DATA
000382:
000383: 05,2260  05,2052               CMENTR02           EQUALS   CMPOWE02                              #  COMMON DOWNLIST DATA
000384:


000386: 05,2260  05,2057               CMENTR03           EQUALS   CMPOWE03                              #  COMMON DOWNLIST DATA
000387:
000388: 05,2260  05,2061               CMENTR04           EQUALS   CMPOWE04                              #  COMMON DOWNLIST DATA
000389:
000390: 05,2260           76463        CMENTR05           -1DNADR  DELV                                  #  DELV,+1                       SNAPSHOT DATA
000391: 05,2261           01316                           1DNADR   DELV       +2                         #  DELV+2,+3
000392: 05,2262           01320                           1DNADR   DELV       +4                         #  DELV+4,+5
000393: 05,2263           03726                           1DNADR   TTE                                   #  TTE,+1
000394: 05,2264           03724                           1DNADR   VIO                                   #  VIO,+1
000395: 05,2265           03756                           1DNADR   VPRED                                 #  VPRED,+1
000396: 05,2266           76673                           -1DNADR  PIPTIME1                              #  PIPTIME1,+1
000397:
000398: 05,2267  05,2101               CMENTR07           EQUALS   CMPOWE07                              #  COMMON DOWNLIST DATA
000399:
000400: 05,2267  05,2107               CMENTR09           EQUALS   CMPOWE09                              #  COMMON DOWNLIST DATA
000401:
000402:                                                                                                  #  ------------------------------------------------------------------------
000403:                                                                                                  #  *** UNREFERENCED LOCATIONS USED IN LIST 4
000404:                                                                                                  #  *** UPDATE THIS LIST WHEN ANY CHANGES ARE MADE TO DOWNLINK LISTS
000405:
000406:                                                                                                  #                        LOCATION                          LIST NAME
000407:
000408: 05,2267  E6,1701               DL401              =        PREL                                  #  CMENTRDL
000409: 05,2267  E6,1702               DL402              =        QREL
000410: 05,2267  E6,1703               DL403              =        RREL
000411: 05,2267     0301               DL404              =        UPOLDMOD
000412: 05,2267     0302               DL405              =        UPVERB
000413: 05,2267     0303               DL406              =        UPCOUNT
000414: 05,2267  E6,1714               DL407              =        ROLLTM
000415: 05,2267  E7,1677               DL408              =        RDOT
000416: 05,2267  E7,1701               DL409              =        THETAH
000417: 05,2267  E7,1402               DL410              =        LNG(SPL)
000418: 05,2267  E6,1666               DL411              =        BETA/180
000419: 05,2267  0000025               DL412              =        TIME1
000420: 05,2267     0776               DL413              =        OPTION2
000421: 05,2267  E6,1570               DL414              =        ERRORY
000422: 05,2267  E6,1571               DL415              =        ERRORZ
000423: 05,2267  E6,1572               DL416              =        THETADX
000424: 05,2267  E6,1573               DL417              =        THETADY
000425: 05,2267  E6,1574               DL418              =        THETADZ
000426: 05,2267  E6,1701               DL419              =        PREL
000427: 05,2267  E6,1702               DL420              =        QREL
000428: 05,2267  E6,1703               DL421              =        RREL
000429: 05,2267  E6,1473               DL422              =        CSMMASS
000430: 05,2267  E6,1466               DL423              =        DAPDATR2
000431: 05,2267  E6,1715               DL424              =        ROLLC
000432: 05,2267     1340               DL425              =        HOLDFLAG
000433: 05,2267     0375               DL426              =        FAILREG
000434:


000436:
000437:                                                                                                  #  P22 DOWNLISTS
000438:
000439:                                                                                                  #  ----------------------------CONTROL LIST--------------------------------
000440:
000441: 05,2267                        CMPG22DL           EQUALS                                         #  SEND ID BY SPECIAL CODING
000442: 05,2267           32043                           DNPTR    CMPG2201                              #  COLLECT SNAPSHOT
000443: 05,2270           24337                           6DNADR   DNTMBUFF                              #  SEND SNAPSHOT
000444: 05,2271           32052                           DNPTR    CMPG2202                              #  COLLECT SNAPSHOT
000445: 05,2272           14337                           4DNADR   DNTMBUFF                              #  SEND SNAPSHOT
000446: 05,2273           32057                           DNPTR    CMPG2203                              #  COMMON DATA
000447: 05,2274           32340                           DNPTR    MARK1/2                               #  MARK 1&2 DATA SNAPSHOT
000448: 05,2275           24337                           6DNADR   DNTMBUFF                              #  SEND SNAPSHOT
000449: 05,2276           32347                           DNPTR    MARK3/4                               #  MARK 3&4 DATA SNAPSHOT
000450: 05,2277           24337                           6DNADR   DNTMBUFF                              #  SEND SNAPSHOT
000451: 05,2300           32356                           DNPTR    MARK5                                 #  MARK5 DATA SNAPSHOT
000452: 05,2301           10337                           3DNADR   DNTMBUFF                              #  SEND SNAPSHOT
000453: 05,2302           03751                           1DNADR   LANDMARK                              #  LANDMARK,GARBAGE
000454: 05,2303           00007                           1DNADR   SPARE
000455: 05,2304           00007                           1DNADR   SPARE
000456: 05,2305           00007                           1DNADR   SPARE
000457: 05,2306           32061                           DNPTR    CMPG2204                              #  COMMON DATA
000458: 05,2307           00024                           1DNADR   TIME2                                 #  TIME2,TIME1
000459: 05,2310           32335                           DNPTR    CMPG2205                              #  COLLECT SNAPSHOT
000460: 05,2311           04337                           2DNADR   DNTMBUFF                              #  SEND SNAPSHOT
000461: 05,2312           00007                           1DNADR   SPARE
000462: 05,2313           00007                           1DNADR   SPARE
000463: 05,2314           00007                           1DNADR   SPARE
000464: 05,2315           00007                           1DNADR   SPARE
000465: 05,2316           32052                           DNPTR    CMPG2202                              #  COLLECT SNAPSHOT
000466: 05,2317           14337                           4DNADR   DNTMBUFF                              #  SEND SNAPSHOT
000467: 05,2320           32072                           DNPTR    CMPG2206                              #  COMMON DATA
000468: 05,2321           03747                           1DNADR   8NN                                   #  8NN,GARBAGE
000469: 05,2322           00106                           1DNADR   STATE      +10D                       #  FALGWRDS 10 AND 11
000470: 05,2323           12025                           3DNADR   RLS                                   #  RLS,+1,...+4,+5
000471: 05,2324           00007                           1DNADR   SPARE
000472: 05,2325           01337                           1DNADR   OPTMODES                              #  OPTMODES,HOLDFLAG
000473: 05,2326           32101                           DNPTR    CMPG2207                              #  COMMON DATA
000474: 05,2327           00007                           1DNADR   SPARE
000475: 05,2330           00007                           1DNADR   SPARE
000476: 05,2331           00007                           1DNADR   SPARE
000477: 05,2332           00007                           1DNADR   SPARE
000478: 05,2333           00007                           1DNADR   SPARE
000479: 05,2334           77770                           -1DNADR  SPARE
000480:
000481:                                                                                                  #  -----------------------------SUB LISTS----------------------------------
000482:
000483: 05,2335  05,2043               CMPG2201           EQUALS   CMPOWE01                              #  COMMON DOWNLIST DATA
000484:
000485: 05,2335  05,2052               CMPG2202           EQUALS   CMPOWE02                              #  COMMON DOWNLIST DATA
000486:


000488: 05,2335  05,2057               CMPG2203           EQUALS   CMPOWE03                              #  COMMON DOWNLIST DATA
000489:
000490: 05,2335  05,2061               CMPG2204           EQUALS   CMPOWE04                              #  COMMON DOWNLIST DATA
000491:
000492: 05,2335           77027        CMPG2205           -1DNADR  LONG                                  #  LONG,+1                       SNAPSHOT DATA
000493: 05,2336           00752                           1DNADR   ALT                                   #  ALT,+1
000494: 05,2337           77031                           -1DNADR  LAT                                   #  LAT,+1
000495:
000496: 05,2340  05,2072               CMPG2206           EQUALS   CMPOWE06                              #  COMMON DOWNLIST DATA
000497:
000498: 05,2340  05,2101               CMPG2207           EQUALS   CMPOWE07                              #  COMMON DOWNLIST DATA
000499:
000500: 05,2340           74236        MARK1/2            -1DNADR  SVMRKDAT   +2                         #  SVMRKDAT+2,+3                 SNAPSHOT DATA
000501: 05,2341           03543                           1DNADR   SVMRKDAT   +4                         #  SVMRKDAT+4,+5
000502: 05,2342           03545                           1DNADR   SVMRKDAT   +6                         #  SVMRKDAT+6,+7
000503: 05,2343           03547                           1DNADR   SVMRKDAT   +8D                        #  SVMRKDAT+8,+9
000504: 05,2344           03551                           1DNADR   SVMRKDAT   +10D                       #  SVMRKDAT+10,+11
000505: 05,2345           03553                           1DNADR   SVMRKDAT   +12D                       #  SVMRKDAT+12,+13
000506: 05,2346           74240                           -1DNADR  SVMRKDAT                              #  SVMRKDAT,+1
000507:
000508: 05,2347           74220        MARK3/4            -1DNADR  SVMRKDAT   +16D                       #  SVMRKDAT+16,+17               SNAPSHOT DATA
000509: 05,2350           03561                           1DNADR   SVMRKDAT   +18D                       #  SVMRKDAT+18,+19
000510: 05,2351           03563                           1DNADR   SVMRKDAT   +20D                       #  SVMRKDAT+20,+21
000511: 05,2352           03565                           1DNADR   SVMRKDAT   +22D                       #  SVMRKDAT+22,+23
000512: 05,2353           03567                           1DNADR   SVMRKDAT   +24D                       #  SVMRKDAT+24,+25
000513: 05,2354           03571                           1DNADR   SVMRKDAT   +26D                       #  SVMRKDAT+26,+27
000514: 05,2355           74222                           -1DNADR  SVMRKDAT   +14D                       #  SVMRKDAT+14,+15
000515:
000516: 05,2356           74202        MARK5              -1DNADR  SVMRKDAT   +30D                       #  SVMRKDAT+30,+31                       SNAPSHOT DATA
000517: 05,2357           03577                           1DNADR   SVMRKDAT   +32D                       #  SVMRKDAT+32,+33
000518: 05,2360           03601                           1DNADR   SVMRKDAT   +34D                       #  SVMRKDAT+34,GARBAGE
000519: 05,2361           74204                           -1DNADR  SVMRKDAT   +28D                       #  SVMRKDAT+28,+29
000520:
000521:                                                                                                  #  ------------------------------------------------------------------------
000522:                                                                                                  #  *** UNREFERENCED LOCATIONS USED IN LIST 5
000523:                                                                                                  #  *** UPDATE THIS LIST WHEN ANY CHANGES ARE MADE TO DOWNLINK LISTS
000524:
000525:                                                                                                  #                        LOCATION                          LIST NAME
000526:
000527: 05,2362  0000025               DL501              =        TIME1                                 #  CMPG22DL
000528:
000529:                                                                                                  #  ------------------------------------------------------------------------
000530:
000531: 05,2362           02113        DNTABLE            GENADR   CMCSTADL
000532: 05,2363           02211                           GENADR   CMENTRDL
000533: 05,2364           02146                           GENADR   CMRENDDL
000534: 05,2365           02001                           GENADR   CMPOWEDL
000535: 05,2366           02267                           GENADR   CMPG22DL
000536:
000537:                                                                                                  #  ------------------------------------------------------------------------
000538:

End of include-file DOWNLINK_LISTS.agc.  Parent file is MAIN.agc


