
Source Code


000002:                                                                                                  ## Copyright:   Public domain.
000003:                                                                                                  ## Filename:    EXTENDED_VERBS.agc
000004:                                                                                                  ## Purpose:     A section of Artemis revision 071.
000005:                                                                                                  ##              It is part of the reconstructed source code for the first
000006:                                                                                                  ##              release of the flight software for the Command Module's
000007:                                                                                                  ##              (CM) Apollo Guidance Computer (AGC) for Apollo 15 through
000008:                                                                                                  ##              17. The code has been recreated from a copy of Artemis 072.
000009:                                                                                                  ##              It has been adapted such that the resulting bugger words
000010:                                                                                                  ##              exactly match those specified for Artemis 071 in NASA
000011:                                                                                                  ##              drawing 2021154-, which gives relatively high confidence
000012:                                                                                                  ##              that the reconstruction is correct.
000013:                                                                                                  ## Reference:   249
000014:                                                                                                  ## Assembler:   yaYUL
000015:                                                                                                  ## Contact:     Ron Burkey <info@sandroid.org>.
000016:                                                                                                  ## Website:     www.ibiblio.org/apollo/index.html
000017:                                                                                                  ## Mod history: 2019-08-14 MAS  Created from Artemis 072.
000018:


000020:
000021: 43,2000                                           SETLOC   EXTVERBS
000022: 43,2000                                           BANK
000023:
000024: 43,2000  E5,1757                                  EBANK=   OGC
000025:
000026: 43,2000                                           COUNT*   $$/EXTVB
000027:
000028:                                                                                                  #  FAN-OUT
000029:
000030: 43,2000           50154        GOEXTVB            INDEX    MPAC                                  #  VERB-40 IS IN MPAC
000031: 43,2001           02002                           TC       LST2FAN                               #  FAN AS BEFORE.
000032:
000033: 43,2002           02121        LST2FAN            TC       VBZERO                                #  VB40 ZERO (USED WITH NOUN 20 ONLY).
000034: 43,2003           02133                           TC       VBCOARK                               #  VB41 COARSE ALIGN (USED WITH NOUN 20 OR
000035:                                                                                                  #                                91 ONLY)
000036: 43,2004           02227                           TC       IMUFINEK                              #  VB42 FINE ALIGN IMU
000037: 43,2005           02364                           TC       IMUATTCK                              #  VB43 LOAD IMU ATTITUDE ERROR METERS.
000038: 43,2006           03064                           TC       SETSURF                               #  VB44 SET SURFACE FLAG
000039: 43,2007           03062                           TC       RESTSRF                               #  VB45 RESET SURFACE FLAG
000040: 43,2010           02451                           TC       STABLISH                              #  VB46 ESTABLISH G+C CONTROL.
000041: 43,2011           03001                           TC       LMTOCMSV                              #  VB47 MOVE LM STATE VECTOR INTO CM
000042: 43,2012           02544                           TC       DAPDISP                               #  VB48 LOAD A/P DATA.
000043: 43,2013           12535                           TCF      CREWMANU                              #  VB 49 START AUTOMATIC ATTITUDE MANEUVER
000044: 43,2014           02265                           TC       GOLOADLV                              #  VB50 PLEASE PERFORM
000045: 43,2015           02265                           TC       GOLOADLV                              #  VB51 PLEASE MARK
000046: 43,2016           03037                           TC       V52                                   #  VB52 SET OFFSET NO. FOR P22
000047: 43,2017           02265                           TC       GOLOADLV                              #  VB53 PLEASE PERFORM COAS MARK
000048: 43,2020           02600                           TC       GOTOR23                               #  V54 START R23 (R21-BACKUP)
000049: 43,2021           02312                           TC       ALINTIME                              #  VB55 ALIGN TIME
000050: 43,2022           02641                           TC       TRACKTRM                              #  VB56 TERMINATE TRACKING (P20 +P25)
000051: 43,2023           03102                           TC       V57CALL                               #  V57  FULTKFLG SETTING OPTION
000052: 43,2024           02445                           TC       ENATMA                                #  VB58 ENABLE AUTOMATIC ATTITUDE MANEUVER
000053: 43,2025           02265                           TC       GOLOADLV                              #  VB59 PLEASE CALIBRATE
000054: 43,2026           02273                           TC       V60                                   #  VB60 SET CPHIX (N17) EQUAL TO CDU
000055: 43,2027           02301                           TC       V61                                   #  VB61 SELECT MODE I
000056: 43,2030           02304                           TC       V62                                   #  VB62 SELECT MODE II, ERROR WRT N22
000057: 43,2031           02307                           TC       V63                                   #  VB63 SELECT MODE III, ERROR WRT N17
000058: 43,2032           02437                           TC       VB64                                  #  VB64 CALCULATE,DISPLAY S-BAND ANT ANGLES
000059: 43,2033           02342                           TC       CKOPTVB                               #  V 65 E OPTICAL VERIFICATION FOR PRELAUNC
000060: 43,2034           02774                           TC       ATTACHED                              #  VB 66 ATTACHED. MOVE THIS TO OTHER STATE
000061: 43,2035           03054                           TC       V67                                   #  VB67 WMATRIX MONITOR
000062: 43,2036           02116                           TC       ALM/END                               #  VB68 SPARE
000063: 43,2037           02037        VERB69             TC       VERB69                                #  VB 69 CAUSE RESTART
000064: 43,2040           03656                           TC       V70UPDAT                              #  VB70 UPDATE LIFTOFF TIME.
000065: 43,2041           03660                           TC       V71UPDAT                              #  VB71 UNIVERSAL UPDATE - BLOCK ADDRESS.
000066: 43,2042           03662                           TC       V72UPDAT                              #  VB72 UNIVERSAL UPDATE - SINGLE ADDRESS.
000067: 43,2043           03664                           TC       V73UPDAT                              #  VB73 UPDATE AGC TIME (OCTAL).
000068: 43,2044           02706                           TC       DNEDUMP                               #  VB74 INITIALIZE DOWN-TELEMETRY PROGRAM
000069:                                                                                                  #        FOR ERASABLE DUMP.
000070: 43,2045           02713                           TC       LFTFLGON                              #  VB75 SET LIFTOFF FLAG.
000071: 43,2046           02116                           TC       ALM/END                               #  VB76 SPARE


000073: 43,2047           02116                           TC       ALM/END                               #  VB77 SPARE
000074: 43,2050           02352                           TC       CHAZFOGC                              #  CHANGE GYROCOMPASS LAUNCH AZIMUTH V78
000075: 43,2051           02116                           TC       ALM/END                               #  VB79 SPARE
000076: 43,2052           02703                           TC       LEMVEC                                #  VB80 UPDATE LEM STATE VECTOR
000077: 43,2053           02705                           TC       CSMVEC                                #  VB81 UPDATE CSM STATE VECTOR
000078: 43,2054           02557                           TC       V82PERF                               #  VB82 REQUEST ORBIT PARAM DISPLAY (R30)
000079: 43,2055           02564                           TC       V83PERF                               #  VB83 RANGE, RANGE RATE, +X AXIS  (R31)
000080: 43,2056           02116                           TC       ALM/END                               #  V84 SPARE
000081: 43,2057           02574                           TC       V85PERF                               #  VB85 RANGE, RANGE RATE, SLOS     (R34)
000082: 43,2060           02621                           TC       V86PERF                               #  VB86 BACKUP MARK REJECT
000083: 43,2061           02773                           TC       SETVHFLG                              #  VB87 SET VHF RANGE FLAG
000084: 43,2062           02770                           TC       RESETVHF                              #  VB88 RESET VHF RANGE FLAG
000085: 43,2063           02722                           TC       V89PERF                               #  V89-ALIGN X OR PRF CSM AXIS TO LOS (R63)
000086: 43,2064           03022                           TC       V90PERF                               #  VB90-OUT OF PLANE PARAMETERS     %R36"
000087: 43,2065           02735                           TC       GOSHOSUM                              #  VB91 TEMP FOR HYBRID AND STG.
000088: 43,2066           02116                           TC       ALM/END                               #  VB92 SPARE
000089: 43,2067           02731                           TC       WMATRXNG                              #  VB93 CLEAR RENDWFLG
000090: 43,2070           03006                           TC       VERB94                                #  VB94 DO R64
000091: 43,2071           02116                           TC       ALM/END                               #  VB95 SPARE
000092: 43,2072           13030                           TCF      VERB96                                #  VB96 SET QUITFLAG TO STOP INTEGRATION
000093: 43,2073           02265                           TC       GOLOADLV                              #  V97 PLEASE PERFORM ENGINE-FAIL (R41)
000094: 43,2074           02116                           TC       ALM/END                               #  VB98 SPARE
000095: 43,2075           02265                           TC       GOLOADLV                              #  VB99 PLEASE ENABLE ENGINE
000096:
000097:                                                                                                  #  END OF EXTENDED VERB FAN
000098:
000099: 43,2076           11247        TESTXACT           CCS      EXTVBACT
000100: 43,2077           02116                           TC       ALM/END                               #  YES. TURN ON OPERATOR ERROR LIGHT
000101: 43,2100           30100                           CA       FLAGWRD4                              #  ARE PRIOS USING DSKY
000102: 43,2101           77646                           MASK     14,12,7
000103: 43,2102           10000                           CCS      A
000104: 43,2103           02116                           TC       ALM/END
000105:
000106: 43,2104           34124                           CAF      OCT24                                 #  SET BITS 3 AND 5
000107: 43,2105           55247        SETXTACT           TS       EXTVBACT                              #  NO. SET FLAG TO SHOW EXT VERB DISPLAY
000108:                                                                                                  #  SYSTEM BUSY
000109:
000110: 43,2106           30002                           CA       Q
000111: 43,2107           54155                           TS       MPAC       +1
000112:
000113: 43,2110           44767                           CS       TWO                                   #  BLANK EVERYTHING EXCEPT MM AND VERB
000114: 43,2111           04202                           TC       NVSUB
000115: 43,2112           02113                           TC       +1
000116: 43,2113           10067                           CCS      NEWJOB                                #  ALLOW POSSIBLE WAITING DISPLAY (FROM
000117: 43,2114           05152                           TC       CHANG1                                #     RELDSP) TO COME UP.
000118:
000119: 43,2115           00155                           TC       MPAC       +1
000120:
000121: 43,2116     5524               TERMEXTV           EQUALS   ENDEXT
000122:


000124:
000125: 43,2116     5524               ENDEXTVB           EQUALS   ENDEXT
000126:
000127: 43,2116           04362        ALM/END            TC       FALTON                                #  TURN ON OPERATOR ERROR LIGHT
000128: 43,2117           04655        GOPIN              TC       POSTJUMP
000129: 43,2120           21275                           CADR     PINBRNCH
000130:


000132:
000133:                                                                                                  #  VBZERO        VERB 40         DESCRIPTION
000134: 43,2121           31335        VBZERO             CA       MODECADR                              #  KEYBOARD REQUEST FOR ISS CDU ZERO
000135: 43,2122           00006                           EXTEND
000136: 43,2123           12125                           BZF      +2
000137: 43,2124           02116                           TC       ALM/END
000138: 43,2125           04636                           TC       BANKCALL
000139: 43,2126           16627                           CADR     IMUZERO
000140:
000141: 43,2127           04636                           TC       BANKCALL                              #  STALL
000142: 43,2130           17644                           CADR     IMUSTALL
000143: 43,2131           02132                           TC       +1
000144:
000145: 43,2132           02117                           TC       GOPIN
000146:


000148:
000149:                                                                                                  #  VBCOARK       VERB 41         DESCRIPTION
000150:                                                                                                  #        COURSE ALIGN IMU OR OPTICS
000151:
000152:                                                                                                  #        1. REQUIRE NOUN 20 OR NOUN 91 OR TURN ON OPERATOR ERROR
000153:                                                                                                  #        2. REQUIRE EXT VERB DISPLAY SYS AVAILABLE OR TURN ON OPERATOR ERROR LIGHT AND GO TO PINBRNCH.
000154:                                                                                                  #        CASE 1  NOUN 20 (ICDU ANGLES)
000155:                                                                                                  #        3. SET EXT VERB DISPLAY ACTIVE FLAG.
000156:                                                                                                  #        4. DISPLAY FLASHING V25,N22 (LOAD NEW ICDU ANGLES).
000157:                                                                                                  #           RESPONSES
000158:                                                                                                  #                A. TERMINATE
000159:                                                                                                  #                        1. RELEASE EXT VERB DISPLAY SYSTEM
000160:                                                                                                  #                B. PROCEED
000161:                                                                                                  #                        1. DISPLAY FLASHING V25,N23 (LOAD DELTA ICDU ANGLES).
000162:                                                                                                  #                                RESPONSES
000163:                                                                                                  #                                A. TERMINATE
000164:                                                                                                  #                                        1. RELEASE EXT VERB DISPLAY SYSTEM.
000165:                                                                                                  #                                B. PROCEED
000166:                                                                                                  #                                        1. EXECUTE ICORK2.
000167:                                                                                                  #                                C. ENTER
000168:                                                                                                  #                                        1. INCREMENT CDU ANGLES
000169:                                                                                                  #                                        2. EXECUTE ICORK2.
000170:                                                                                                  #                C. ENTER
000171:                                                                                                  #                        1. EXECUTE ICORK2.
000172:                                                                                                  #        ICORK2
000173:                                                                                                  #                1. RE-DISPLAY VERB 41.
000174:                                                                                                  #                2. EXECUTE IMUCOARS (IMU COARSE ALIGN).
000175:                                                                                                  #                3. EXECUTE IMUSTALL (ALLOW TIME FOR DATA TRANSFER).
000176:                                                                                                  #                4. RELEASE EXT VERB DISPLAY SYSTEM.
000177:                                                                                                  #        CASE 2  NOUN 91 (OCDU ANGLES)
000178:                                                                                                  #        5. (REQUIRE OPTICS SWITCH TO BE AT COMPUTER OR TURN ON OPERATOR ERROR AND ALARM 115) AND (REQUIRE
000179:                                                                                                  #           OPTICS AVAILABLE AND DISPLAY FLASHING V24,N92....LOAD NEW OPTICS ANGLES....OR TURN ON ALARM 117
000180:                                                                                                  #           AND RELEASE EXT VERB DISPLAY SYSTEM).
000181:                                                                                                  #        6. RESPONSES TO V29,N92.
000182:                                                                                                  #                A. TERMINATE
000183:                                                                                                  #                        RELEASE EXT VERB DISPLAY SYSTEM
000184:                                                                                                  #                B. PROCEED OR ENTER
000185:                                                                                                  #                        RE-DISPLAY V41, SET SWITCH TO INDICATE COURSE ALIGN OPTICS WORKING.
000186:                                                                                                  #                        RELEASE EXT VERB DISPLAY SYSTEM.
000187:
000188: 43,2133           44124        VBCOARK            CS       OCT24
000189: 43,2134           61205                           AD       NOUNREG
000190: 43,2135           00006                           EXTEND
000191: 43,2136           12143                           BZF      IMUCOARK                              #  NOUN 20
000192:
000193: 43,2137           62165                           AD       OPIMDIFF                              #  -71
000194: 43,2140           00006                           EXTEND
000195: 43,2141           12166                           BZF      OPTCOARK                              #  NOUN 91
000196:
000197: 43,2142           02116                           TC       ALM/END                               #  WRONG NOUN
000198:
000199: 43,2143           02076        IMUCOARK           TC       TESTXACT                              #  COARSE ALIGN FROM KEYBOARD


000201: 43,2144           32163                           CAF      VNLODCDU                              #  CALL FOR THETAD LOAD
000202: 43,2145           04636                           TC       BANKCALL
000203: 43,2146           20576                           CADR     GOXDSPF
000204: 43,2147           05524                           TC       TERMEXTV
000205: 43,2150           12151                           TCF      +1
000206:
000207: 43,2151           32164        ICORK2             CAF      IMUCOARV                              #  RE-DISPLAY COARSE ALIGN VERB.
000208: 43,2152           04636                           TC       BANKCALL
000209: 43,2153           21064                           CADR     EXDSPRET
000210:
000211: 43,2154           02260                           TC       CKMODCAD
000212: 43,2155           04636                           TC       BANKCALL                              #  CALL MODE SWITCHING PROG
000213: 43,2156           16724                           CADR     IMUCOARS
000214:
000215: 43,2157           04636                           TC       BANKCALL                              #  STALL
000216: 43,2160           17644                           CADR     IMUSTALL
000217: 43,2161           05524                           TC       ENDEXTVB
000218: 43,2162           05524                           TC       ENDEXTVB
000219:
000220: 43,2163           06226        VNLODCDU           VN       2522
000221: 43,2164           12200        IMUCOARV           VN       4100
000222: 43,2165           77670        OPIMDIFF           DEC      -71        B-14
000223:


000225:
000226:                                                                                                  #  TEMPORARY ROUTINE TO RUN THE OPTICS CDUS FROM THE KEYBOARD
000227:
000228: 43,2166           02714        OPTCOARK           TC       CHKPOOH                               #  ENSURE IN POO
000229: 43,2167           02076                           TC       TESTXACT
000230: 43,2170           35043                           CAF      EBANK5
000231: 43,2171           54003                           TS       EBANK
000232:
000233: 43,2172           11354                           CCS      SWSAMPLE                              #  SEE IF SWITCH AT COMPUTER
000234: 43,2173           02200                           TC       +5                                    #  SWITCH AT COMPUTER
000235: 43,2174           02175                           TC       +1                                    #  NOT ON COMPUTER
000236: 43,2175           04362                           TC       FALTON                                #  TURN ON OPERATOR ERR
000237: 43,2176           05671                           TC       ALARM                                 #  AND ALARM
000238: 43,2177           00115                           OCT      00115
000239:
000240: 43,2200           11323                           CCS      OPTIND                                #  SEE IF OPTICS AVAILABLE
000241: 43,2201           02207                           TC       OPTC1                                 #  IN USE
000242: 43,2202           02207                           TC       OPTC1                                 #  IN USE
000243: 43,2203           02207                           TC       OPTC1                                 #  IN USE
000244:
000245: 43,2204           05671                           TC       ALARM                                 #  OPTICS RESERVED (OPTIND=-0)
000246: 43,2205           00117                           OCT      00117
000247: 43,2206           05524                           TC       ENDEXT
000248:
000249: 43,2207           32226        OPTC1              CAF      VNLDOCDU                              #  VERB-NOUN TO LOAD OPTICS CDUS
000250: 43,2210           04636                           TC       BANKCALL
000251: 43,2211           20576                           CADR     GOXDSPF
000252: 43,2212           05524                           TC       TERMEXTV
000253: 43,2213           02214                           TC       +1                                    #  PROCEED
000254:
000255: 43,2214           31773                           CA       SAC
000256: 43,2215           55313                           TS       DESOPTS
000257: 43,2216           31775                           CA       PAC
000258: 43,2217           55312                           TS       DESOPTT
000259: 43,2220           32164                           CAF      OPTCOARV                              #  RE-DISPLAY OUR OWN VERB
000260: 43,2221           04636                           TC       BANKCALL
000261: 43,2222           21064                           CADR     EXDSPRET
000262:
000263: 43,2223           34770                           CAF      ONE
000264: 43,2224           55323                           TS       OPTIND                                #  SET COARS WORKING
000265:
000266: 43,2225           05524                           TC       ENDEXTVB
000267:
000268: 43,2226           06134        VNLDOCDU           VN       2492
000269: 43,2227  43,2164               OPTCOARV           EQUALS   IMUCOARV                              #  DIFFERENT NOUNS.
000270:


000272:
000273:                                                                                                  #  IMUFINEK      VERB 42         DESCRIPTION
000274:                                                                                                  #        FINE ALIGN IMU
000275:
000276:                                                                                                  #        1. REQUIRE EXT VERB DISPLAY AVAILABLE AND SET BUSY FLAG OR TURN ON OPER ERROR AND GO TO PINBRNCH.
000277:                                                                                                  #        2. DISPLAY FLASHING V25,N93....LOAD DELTA GYRO ANGLES....
000278:                                                                                                  #                RESPONSES
000279:                                                                                                  #                A. TERMINATE
000280:                                                                                                  #                        1. RELEASE EXT VERB DISPLAY SYSTEM.
000281:                                                                                                  #                B. PROCEED OR ENTER
000282:                                                                                                  #                        1. RE-DISPLAY VERB 42
000283:                                                                                                  #                        2. EXECUTE IMUFINE (IMU FIVE ALIGN MODE SWITCHING).
000284:                                                                                                  #                        3. EXECUTE IMUSTALL (ALLOW FOR DATA TRANSFER)
000285:                                                                                                  #                                A. FAILED
000286:                                                                                                  #                                        1. RELEASE EXT VERB DISPLAY SYSTEM.
000287:                                                                                                  #                                B. GOOD
000288:                                                                                                  #                                        1. EXECUTE IMUPULSE (TORQUE IRIGS).
000289:                                                                                                  #                                        2. EXECUTE IMUSTALL AND RELEASE EXT VERB DISPLAY SYSTEM.
000290:
000291: 43,2227           02076        IMUFINEK           TC       TESTXACT                              #  FINE ALIGN WITH GYRO TORQUING
000292: 43,2230           32256                           CAF      VNLODGYR                              #  CALL FOR LOAD OF GYRO COMMANDS
000293: 43,2231           04636                           TC       BANKCALL
000294: 43,2232           20576                           CADR     GOXDSPF
000295: 43,2233           05524                           TC       TERMEXTV
000296: 43,2234           02235                           TC       +1                                    #  PROCEED WITHOUT A LOAD
000297:
000298: 43,2235           32257                           CAF      IMUFINEV                              #  RE-DISPLAY OUR OWN VERB
000299: 43,2236           04636                           TC       BANKCALL
000300: 43,2237           21064                           CADR     EXDSPRET
000301:
000302: 43,2240           02260                           TC       CKMODCAD
000303: 43,2241           04636                           TC       BANKCALL                              #  CALL MODE SWITCH PROG
000304: 43,2242           17133                           CADR     IMUFINE
000305:
000306: 43,2243           04636                           TC       BANKCALL                              #  HIBERNATION
000307: 43,2244           17644                           CADR     IMUSTALL
000308: 43,2245           05524                           TC       ENDEXTVB
000309:
000310: 43,2246           32255        FINEK2             CAF      LGYROBIN                              #  PINBALL LEFT COMMANDS IN OGC REGIST5RS
000311: 43,2247           04636                           TC       BANKCALL
000312: 43,2250           17244                           CADR     IMUPULSE
000313:
000314: 43,2251           04636                           TC       BANKCALL                              #  WAIT FOR PULSES TO GET OUT.
000315: 43,2252           17644                           CADR     IMUSTALL
000316: 43,2253           05524                           TC       ENDEXTVB
000317: 43,2254           05524                           TC       ENDEXTVB
000318:
000319: 43,2255           02757        LGYROBIN           ECADR    OGC
000320: 43,2256           06335        VNLODGYR           VN       2593
000321: 43,2257           12400        IMUFINEV           VN       4200                                  #  FINE ALIGN VERB
000322:
000323: 43,2260           31335        CKMODCAD           CA       MODECADR


000325: 43,2261           00006                           EXTEND
000326: 43,2262           16711                           BZF      TCQ
000327: 43,2263           04362                           TC       FALTON
000328: 43,2264           05524                           TC       ENDEXTVB
000329:
000330:                                                                                                  #  GOLOADLV      VERB 50         DESCRIPTION
000331:                                                                                                  #                AND OTHER PLEASE
000332:                                                                                                  #                DO SOMETHING VERBS
000333:
000334:                                                                                                  #        PLEASE PERFORM, MARK, CALIBRATE, ETC.
000335:
000336:                                                                                                  #        1. PRESSING ENTER ON DSKY INDICATES REQUESTED ACTION HAS BEEN PERFORMED, AND THE PROGRAM DOES THE
000337:                                                                                                  #           SAME RECALL AS A COMPLETED LOAD.
000338:                                                                                                  #        2. THE EXECUTION OF A VERB 33 (PROCEED WITHOUT DATA) INDICATES THE REQUESTED ACTION IS NOT DESIRED.
000339:
000340: 43,2265           04417        GOLOADLV           TC       FLASHOFF
000341: 43,2266           34223                           CAF      PINSUPBT
000342: 43,2267           00006                           EXTEND
000343: 43,2270           01007                           WRITE    SUPERBNK                              #  TURN ON FE7
000344: 43,2271           04655                           TC       POSTJUMP
000345: 43,2272  40,2000                                  SBANK=   PINSUPER
000346: 43,2272           63001                           CADR     LOADLV1
000347:
000348:                                                                                                  #  V60   VERB 60
000349:
000350: 43,2273           00006        V60                EXTEND                                         #  SET ASTRONAUT TOTAL ATTITUDE (N17) EQUAL
000351: 43,2274           30033                           DCA      CDUX                                  #  TO PRESENT ATTITUDE
000352: 43,2275           53014                           DXCH     CPHIX
000353: 43,2276           30034                           CA       CDUZ
000354: 43,2277           55015                           TS       CPHIX      +2
000355: 43,2300           02117                           TC       GOPIN
000356:
000357:                                                                                                  #  V61   VERB 61
000358:
000359: 43,2301           03065        V61                TC       DOWNX                                 #  CLEAR NEEDLFLG, PHASE
000360: 43,2302           00006                           ADRES    NEEDLFLG                              #  PLANE A/P FOLLOWING ERROR DISPLAYED
000361: 43,2303           03071        SETNEEDL           TC       UPX                                   #  SET NEEDLFLG, TOTAL ATT ERR DISPLAYED
000362:
000363:                                                                                                  #  V62   VERB 62
000364:
000365: 43,2304           05547        V62                TC       UPFLAG
000366: 43,2305           00220                           ADRES    N22ORN17                              #  COMPUTE TOTAL ATTITUDE ERROR WRT N22
000367: 43,2306           02303                           TC       SETNEEDL
000368:
000369:                                                                                                  #  V63   VERB 63
000370:
000371: 43,2307           05561        V63                TC       DOWNFLAG
000372: 43,2310           00220                           ADRES    N22ORN17                              #  COMPUTE TOTAL ASTRONAUT ATTITUDE ERROR
000373: 43,2311           02303                           TC       SETNEEDL
000374:


000376:
000377:                                                                                                  #  ALINTIME      VERB 55         DESCRIPTION
000378:                                                                                                  #        1. SET EXT VERB DISPLAY BUSY FLAG.
000379:                                                                                                  #        2. DISPLAY FLASHING V25,N24 (LOAD DELTA TIME FOR AGC CLOCK.
000380:                                                                                                  #        3. REQUIRE EXECUTION OF VERB 23.
000381:                                                                                                  #        4. ADD DELTA TIME, RECEIVED FROM INPUT REGISTER, TO THE COMPUTER TIME.
000382:                                                                                                  #        5. RELEASE EXT VERB DISPLAY SYSTEM
000383:
000384: 43,2312                                           COUNT*   $$/R33
000385: 43,2312           02076        ALINTIME           TC       TESTXACT
000386:
000387: 43,2313           32341                           CAF      VNLODDT
000388: 43,2314           04636                           TC       BANKCALL
000389: 43,2315           20576                           CADR     GOMARKF
000390: 43,2316           05524                           TC       ENDEXT                                #  TERMINATE
000391: 43,2317           05524                           TC       ENDEXT                                #  PROCEED
000392: 43,2320           44615                           CS       DEC23                                 #  DATA IN OR RESEQUENCE (UNLIKELY)
000393: 43,2321           60154                           AD       MPAC                                  #  RECALL LEFT VERB IN MPAC
000394: 43,2322           00006                           EXTEND
000395: 43,2323           12325                           BZF      UPDATIME                              #  GO AHEAD WITH UPDATE ONLY IF RECALL
000396: 43,2324           05524                           TC       ENDEXT                                #        WITH V23 (DATA IN).
000397: 43,2325           00004        UPDATIME           INHINT                                         #  DELTA TIME IS IN DSPTEM1, +1.
000398: 43,2326           34772                           CAF      ZERO
000399: 43,2327           54001                           TS       L                                     #  ZERO T1 & 2 WHILE ALIGNING.
000400: 43,2330           52025                           DXCH     TIME2
000401: 43,2331           52155                           DXCH     MPAC
000402: 43,2332           53255                           DXCH     DSPTEM2    +1                         #  INCREMENT
000403: 43,2333           20155                           DAS      MPAC
000404:
000405: 43,2334           07224                           TC       DPAGREE                               #  FORCE SIGN AGREEMENT
000406: 43,2335           52155                           DXCH     MPAC                                  #  NEW CLOCK.
000407: 43,2336           20025                           DAS      TIME2
000408: 43,2337           00003                           RELINT
000409: 43,2340           05524        UPDTMEND           TC       ENDEXT
000410: 43,2341           06230        VNLODDT            VN       2524                                  #  V25N24 FOR LOAD DELTA TIME
000411:
000412:                                                                                                  #  REDO AND TSELECT ARE NOW IN SYSTEM TEST.
000413:
000414: 43,2342                                           COUNT*   $$/EXTVB
000415:                                                                                                  #  CKOPTVB       VERB 65         DESCRIPTION
000416:                                                                                                  #        OPTICAL VERIFICATION FOR PRELAUNCH.
000417:                                                                                                  #        1. SCHEDULE GCOMPVER, OPTICAL VERIFICATION SUBPROGRAM, WITH PRIORITY 17.
000418:
000419: 43,2342           05354        CKOPTVB            TC       CHECKMM
000420: 43,2343           00002                           MM       02         B-14                       #  I WONDER IF PRELAUNCH IS RUNNING
000421: 43,2344           02116                           TC       ALM/END                               #  NOT RUNNING OPERATOR ERROR
000422: 43,2345           35055                           CAF      PRIO16                                #  PRELAUNCH OPTICAL VERIFICATION
000423: 43,2346           05135                           TC       FINDVAC
000424: 43,2347  E5,1425                                  EBANK=   QPLACE
000425: 43,2347           02000 66065                     2CADR    COMPVER                               #  STANDARD LEADIN TO GCOMPVER.
000426:


000428: 43,2351           02117                           TC       GOPIN
000429:
000430:                                                                                                  #  V 78 ....     TO CHANGE GYROCOMPASS AZIMUTH
000431:
000432: 43,2352           05354        CHAZFOGC           TC       CHECKMM                               #  IS IT PRELAUNCH
000433: 43,2353           00002                           MM       02         B-14
000434: 43,2354           02116                           TC       ALM/END                               #  NO - OPERATOR ERROR
000435:
000436: 43,2355           35055                           CAF      PRIO16                                #  PRELAUNCH AZIMUTH CHANGE
000437: 43,2356           05135                           TC       FINDVAC
000438: 43,2357  E5,1671                                  EBANK=   XSM
000439: 43,2357           03132 66105                     2CADR    AZMTHCG1
000440:
000441: 43,2361           05402                           TC       PHASCHNG
000442: 43,2362           00174                           OCT      00174
000443: 43,2363  01,2146               4P17SPT1           =        4.17SPOT
000444: 43,2363           02117                           TC       GOPIN
000445:


000447:
000448:                                                                                                  #  IMUATTCK      VERB 43         DESCRIPTION
000449:                                                                                                  #        LOAD IMU ATTITUDE ERROR METERS
000450:                                                                                                  #        1. REQUIRE PROGRAM 00 ACTIVE, COARSE ALIGN ENABLE BIT OFF AND ZERO ICDU BIT OFF.
000451:                                                                                                  #        2. IF GUID REF RELEASE OR LIFTOFF HAS OCCURRED REQUIRE EXT VERB DISPLAY AVAILABLE AND SET BUSY
000452:                                                                                                  #           FLAG, OTHERWISE ALLOW CURRENT EXT VERB DISPLAY TO BE OVER-RIDDEN.
000453:                                                                                                  #        3. REMOVE COARSE ALIGN ENABLE AND IMU ERROR COUNTER ENABLE
000454:                                                                                                  #        4. DISPLAY FLASHING V25,N22 (LOAD NEW ICDU ANGLES).
000455:                                                                                                  #        5. UPON PROCEED OR ENTER RESPONSE, INITIALIZE CURRENT DAC AND COMMAND VALUES, ENABLE ERROR COUNTERS
000456:                                                                                                  #           TRANSFER LOADED VALUES TO REGISTERS, AND SEND COMMANDS.
000457:                                                                                                  #        6. IF BUSY FLAG SET, RESET IT TO RELEASE EXT VERB DISPLAY.
000458:
000459: 43,2364           02714        IMUATTCK           TC       CHKPOOH
000460:
000461: 43,2365           35001                           CAF      BITS4&5                               #  CHECK IF IMU ZERO AND IMU COARSE ARE ON
000462: 43,2366           00006                           EXTEND
000463: 43,2367           02012                           RAND     CHAN12
000464: 43,2370           10000                           CCS      A
000465: 43,2371           12116                           TCF      ALM/END                               #  NOT ALLOWED IF IMU COARSE OR IMU ZERO ON
000466:
000467: 43,2372           02427                           TC       CKLFTBTS                              #  IS IT BEFORE OR AFTER LIFTOFF
000468: 43,2373           02076                           TC       TESTXACT                              #  AFTER
000469: 43,2374           45004                           CS       OCT50                                 #  REMOVE COARSE AND ECTR ENABLE.
000470: 43,2375           00006                           EXTEND
000471: 43,2376           03012                           WAND     CHAN12
000472:
000473: 43,2377           32163                           CAF      VNLODCDU
000474: 43,2400           04636                           TC       BANKCALL
000475: 43,2401           20576                           CADR     GOXDSPF
000476: 43,2402           12414                           TCF      TRMATTCK
000477: 43,2403           02404                           TC       +1
000478: 43,2404           04611                           TC       E6SETTER                              #  FOR NEEDLES.
000479:
000480: 43,2405  E6,1476                                  EBANK=   AK
000481:
000482: 43,2405           04636                           TC       BANKCALL                              #  INITIALIZE CURRENT DAC AND
000483: 43,2406           42450                           CADR     NEEDLE11                              #  COMMAND VALUES
000484:
000485: 43,2407           04636                           TC       BANKCALL                              #  ENABLE ERROR COUNTERS.
000486: 43,2410           42467                           CADR     NEEDLER2
000487:
000488: 43,2411           34767                           CAF      TWO                                   #  4 MS MIN.
000489: 43,2412           05223                           TC       TWIDDLE
000490: 43,2413           02417                           ADRES    ATTCK1
000491: 43,2414           02427        TRMATTCK           TC       CKLFTBTS                              #  IS IT BEFORE OR AFRER LIFTOFF
000492: 43,2415           15524                           TCF      ENDEXT                                #  AFTER
000493: 43,2416           02117                           TC       GOPIN
000494:
000495: 43,2417           00006        ATTCK1             EXTEND                                         #  TRANSFER LOADED VALUES TO DESIRED REGS.
000496: 43,2420           31310                           DCA      THETAD


000498: 43,2421           53477                           DXCH     AK
000499: 43,2422           31311                           CAE      THETAD     +2
000500: 43,2423           55500                           TS       AK         +2
000501:
000502: 43,2424           04714                           TC       IBNKCALL                              #  SENDS COMMANDS LIMITED TO +,- 384 PULSES
000503: 43,2425           42503                           CADR     NEEDLES                               #  AND LEAVES ERROR COUNTERS ENABLED.
000504:
000505: 43,2426           05314                           TC       TASKOVER
000506:
000507: 43,2427           34764        CKLFTBTS           CAF      GRRBKBIT                              #  HAS LIFTOFF OCCURRED
000508: 43,2430           70101                           MASK     FLAGWRD5
000509: 43,2431           10000                           CCS      A
000510: 43,2432           00002        XACT0Q             TC       Q                                     #  YES
000511: 43,2433           34764                           CAF      BIT5
000512: 43,2434           00006                           EXTEND
000513: 43,2435           02030                           RAND     CHAN30
000514: 43,2436           15651                           TCF      INCRQCK
000515: 43,2437           02076        VB64               TC       TESTXACT
000516: 43,2440           34755                           CAF      PRIO4
000517: 43,2441           05135                           TC       FINDVAC
000518: 43,2442  E4,1711                                  EBANK=   RHOSB
000519: 43,2442           03504 64104                     2CADR    SBANDANT                              #  CALC.,DISPLAY S-BAND ANTENNA ANGLES.
000520:
000521: 43,2444           05205                           TC       ENDOFJOB
000522:
000523:                                                                                                  #  ENATMA        VERB 58         DESCRIPTION
000524:                                                                                                  #        ENABLE AUTOMATIC ATTITUDE MANEUVER
000525:
000526:                                                                                                  #  VERB58 RESETS STIKFLAG TO ENABLE R61 TO PERFORM AUTOMATIC TRACKING MANEUVERS, AFTER INTERUPTIONS BY RHC ACT-
000527:                                                                                                  #  IVITY.
000528:
000529: 43,2445           05547        ENATMA             TC       UPFLAG                                #  SET FLAG TO ENABLE R60 MANEUVER
000530: 43,2446           00055                           ADRES    V50N18FL
000531: 43,2447           03065                           TC       DOWNX                                 #  RESET STIKFLAG.
000532: 43,2450           00020                           ADRES    STIKFLAG
000533:
000534:                                                                                                  #  STABLISH      VERB 46         DESCRIPTION
000535:                                                                                                  #        ESTABLISH G & N AUTOPILOT CONTROL
000536:                                                                                                  #        1. SETS UP EITHER RCS, ENTRY, OR SATURN
000537:                                                                                                  #        2. IF TVC IS ON, SETS UP CSM/LM SWITCH-OVER
000538:                                                                                                  #                FROM HIGH BW TO LOW BW
000539:
000540:
000541: 43,2451           04611        STABLISH           TC       E6SETTER
000542:
000543: 43,2452           40102                           CS       FLAGWRD6                              #  TEST FOR TVC
000544: 43,2453           74076                           MASK     DPCONFIG
000545: 43,2454           00006                           EXTEND
000546: 43,2455           62465                           BZMF     DAPFIG


000548: 43,2456           31465                           CAE      DAPDATR1                              #  TET FOR CSM/LM
000549: 43,2457           74753                           MASK     BIT14
000550: 43,2460           00006                           EXTEND
000551: 43,2461           62116                           BZMF     ALM/END                               #  CSM, SO ALARM AND EXIT
000552:
000553: 43,2462           04636                           TC       BANKCALL                              #  CSM/LM, SO PERFORM HB TO LB SWITCH-OVER
000554: 43,2463           36344                           CADR     SWICHOVR
000555:
000556: 43,2464           02117                           TC       GOPIN
000557:
000558: 43,2465           44760        DAPFIG             CS       BIT9                                  #  TURN OFF SIVB TAKEOVER
000559: 43,2466           00006                           EXTEND
000560: 43,2467           03012                           WAND     CHAN12
000561: 43,2470           31465                           CAE      DAPDATR1                              #  DETERMINE VEHICLE CONFIGURATION
000562: 43,2471           00006                           EXTEND
000563: 43,2472           74766                           MP       BIT3                                  #  RIGHT SHIFT 4 OCTAL DIGITS
000564: 43,2473           76214                           MASK     THREE                                 #  (IN CASE BIT 15 IS USED)
000565: 43,2474           00004                           INHINT
000566: 43,2475           50000                           INDEX    A
000567: 43,2476           12477                           TCF      +1                                    #  BRANCH BASED ON CONFIG
000568: 43,2477           12522                           TCF      NODAPUP                               #  CM.. ACTIVATE NODAP
000569: 43,2500           12517                           TCF      RCSDAPUP                              #  CSM..ACTIVATE RCSDAP
000570: 43,2501           12517                           TCF      RCSDAPUP                              #  CSM/LM ACTIVATE RCSDAP
000571: 43,2502           00006        SATSTKON           EXTEND
000572: 43,2503           32516                           DCA      2REDOSAT
000573: 43,2504           52113                           DXCH     T5LOC
000574: 43,2505           34750                           CAF      POSMAX
000575: 43,2506           54030                           TS       TIME5
000576: 43,2507           40102                           CS       FLAGWRD6                              #  TURN ON BITS 15,14 OF FLAGWRD6
000577: 43,2510           74076                           MASK     DPCONFIG
000578: 43,2511           26102                           ADS      FLAGWRD6                              #  SATSTICK CONTROL OF T5
000579: 43,2512           04714                           TC       IBNKCALL                              #  ZERO JET CHANNELS IN 14MS AND THEN
000580: 43,2513           42642                           CADR     ZEROJET                               #  LEAVE THE T6 CLOCK DISABLED
000581: 43,2514           02117                           TC       GOPIN                                 #  EXIT THUS BECAUSE WE CAME VIA V46
000582:
000583: 43,2515  E6,1704                                  EBANK=   SPOLYARG
000584: 43,2515           02000 54106  2REDOSAT           2CADR    REDOSAT
000585:
000586: 43,2517           04714        RCSDAPUP           TC       IBNKCALL
000587: 43,2520           42042                           CADR     RCSDAPON
000588: 43,2521           12117                           TCF      GOPIN
000589:
000590: 43,2522           04714        NODAPUP            TC       IBNKCALL                              #  ZERO JET CHANNELS IN 14 MS. AND THEN
000591: 43,2523           42642                           CADR     ZEROJET                               #  LEAVE THE T6 CLOCK DISABLED.
000592: 43,2524           34770                           CAF      BIT1
000593: 43,2525           55340                           TS       HOLDFLAG                              #  KILL KALCMANU JOB
000594:
000595: 43,2526           00006        EXDAPOFF           EXTEND
000596: 43,2527           32721                           DCA      IDLECADR                              #  SET T5 TO IDLE


000598: 43,2530           52113                           DXCH     T5LOC
000599: 43,2531           44076                           CS       DPCONFIG
000600: 43,2532           70102                           MASK     FLAGWRD6
000601: 43,2533           54102                           TS       FLAGWRD6
000602:
000603: 43,2534           02117                           TC       GOPIN
000604:


000606:
000607:                                                                                                  #  CREWMANU      VERB 49         DESCRIPTION
000608:                                                                                                  #        START AUTOMATIC ATTITUDE MANEUVER
000609:                                                                                                  #        1. REQUIRE PROGRAM 00 ACTIVE.
000610:                                                                                                  #        2. SET EXT VERB DISPLAY BUSY FLAG.
000611:                                                                                                  #        3. SCHEDULE R62DISP WITH PRIORITY 10.
000612:                                                                                                  #        4. RELEASE EXT VERB DISPLAY.
000613:
000614:                                                                                                  #        R62DISP
000615:                                                                                                  #        1. DISPLAY FLASHING V06,N22 (DECIMAL DISPLAY NEW ICDU ANGLES). UPON IMMEDIATE RETURN, SET-UP GROUP
000616:                                                                                                  #           4 FOR RESTART OF DISPLAY SEQUENCE.
000617:                                                                                                  #                RESPONSES
000618:                                                                                                  #                A. TERMINATE
000619:                                                                                                  #                        1. GO TO GOTOPOOH.
000620:                                                                                                  #                B. PROCEED
000621:                                                                                                  #                        1. SET 3AXISFLG TO INDICATE MANEUVER IS SPECIFIED BY 3 AXIS.
000622:                                                                                                  #                        2. EXECUTE R60CSM (ATTITUDE MANEUVER).
000623:                                                                                                  #                        3. ZERO GROUP 4 (END R62).
000624:                                                                                                  #                C. ENTER
000625:                                                                                                  #                        1. REPEAT FLASHING V06,N22.
000626:
000627: 43,2535           02714        CREWMANU           TC       CHKPOOH                               #  DEMAND POO
000628:
000629: 43,2536           02076                           TC       TESTXACT
000630:
000631: 43,2537           34754                           CAF      PRIO10
000632: 43,2540           05135                           TC       FINDVAC
000633: 43,2541  E6,1774                                  EBANK=   R61CNTR
000634: 43,2541           02427 56106                     2CADR    R62DISP
000635:
000636: 43,2543           05205                           TC       ENDOFJOB


000638:                                                                                                  #  DAPDISP       VERB 48         DESCRIPTION
000639:                                                                                                  #        LOAD AUTOPILOT DATA (ROUTINE R03)
000640:                                                                                                  #        0.      CHECKFAIL AND RETURN IF TVC.
000641:                                                                                                  #        1.      REQUIRE EXT VERB DISPLAY AVAILABLE AND SET BUSY FLAG.
000642:                                                                                                  #        2.      LOWER PRIORITY TO 10.
000643:                                                                                                  #        3.      DISPLAY FLASHING V04,N46 (DISPLAY AUTOPILOT CONFIGURATION)
000644:                                                                                                  #        4.      UPON PROCEED RESPONSE, EXECUTE S41.2.
000645:                                                                                                  #        5.      DISPLAY FLASHING V06,N47 (DISPLAY CSM WGT., LEM WGT.)
000646:                                                                                                  #        6.      UPON PROCEED RESPONSE EXECUTE S40.14.
000647:                                                                                                  #        7.      DISPLAY FLASHING V06,N48 (DISPLAY PITCH TRIM, YAW TRIM)
000648:                                                                                                  #        8.      UPON PROCEED RESPONSE, RELEASE EXTENDED VERB DESPLAY SYSTEM
000649:
000650: 43,2544                                           COUNT*   $$/EXTVB
000651: 43,2544           40102        DAPDISP            CS       FLAGWRD6
000652: 43,2545           74076                           MASK     DPCONFIG
000653: 43,2546           00006                           EXTEND
000654: 43,2547           62551                           BZMF     +2                                    #  TVC = 10, CS YIELDS 01, BZMF TO CONTINUE
000655: 43,2550           02116                           TC       ALM/END                               #  RETURN IF TVC
000656:
000657: 43,2551           02076                           TC       TESTXACT
000658: 43,2552           34754                           CAF      PRIO10
000659: 43,2553           05121                           TC       NOVAC
000660: 43,2554  E6,1465                                  EBANK=   DAPDATR1
000661: 43,2554           02000 64106                     2CADR    DONOUN46
000662:
000663: 43,2556           05205                           TC       ENDOFJOB
000664:
000665: 42,2000                                           SETLOC   EXTVBS
000666: 42,2000                                           BANK
000667: 42,2000                                           COUNT*   $$/R03
000668: 42,2000           32055        DONOUN46           CAF      V04N46                                #     R1         R2
000669: 42,2001           04636                           TC       BANKCALL                              #   DAPDATR1   DAPDATR2
000670: 42,2002           20576                           CADR     GOXDSPF                               #  GOXDSP ROUTINES USED FOR EXTENDED VERBS.
000671:
000672: 42,2003           05524                           TC       ENDEXT                                #  EXT. VBS GO TO ENDEXT, NOT ENDOFJOB.
000673: 42,2004           02006                           TC       +2
000674: 42,2005           02000                           TC       DONOUN46
000675:
000676: 42,2006           31465                           CA       DAPDATR1
000677: 42,2007           74765                           MASK     BIT4
000678: 42,2010           10000                           CCS      A
000679: 42,2011           12050                           TCF      MAXIN
000680: 42,2012           05561                           TC       DOWNFLAG
000681: 42,2013           00212                           ADRES    MAXDBFLG
000682: 42,2014           04636        MAXOUT             TC       BANKCALL
000683: 42,2015           40463                           CADR     S41.2
000684:
000685: 42,2016           32054        DONOUN47           CAF      V06N47                                #     R1         R2        R3
000686: 42,2017           04636                           TC       BANKCALL                              #  CSM WGT.   LEM WGT.    BLANK
000687: 42,2020           20576                           CADR     GOXDSPF


000689: 42,2021           05524                           TC       ENDEXT
000690: 42,2022           02024                           TC       +2
000691: 42,2023           02016                           TC       DONOUN47
000692: 42,2024           31465                           CAE      DAPDATR1                              #  DO MASS PROPERTIES CALCULATION ONLY IF
000693: 42,2025           74346                           MASK     PRIO30                                #  CONFIG = 1(CSM), 2(CSM/LM), 6(CSM/LMA)
000694: 42,2026           00006                           EXTEND
000695: 42,2027           12042                           BZF      DONOUN48                              #  SKIP IF 0, 4
000696: 42,2030           40000                           COM
000697: 42,2031           74346                           MASK     PRIO30
000698: 42,2032           00006                           EXTEND
000699: 42,2033           12042                           BZF      DONOUN48                              #  SKIP IF 3, 7
000700: 42,2034           00004                           INHINT
000701: 42,2035           04714                           TC       IBNKCALL
000702: 42,2036           13313                           CADR     MASSPROP                              #  UPDATE IXX, IAVG, IAVG/TLX
000703:
000704: 42,2037           00003                           RELINT
000705: 42,2040           04636                           TC       BANKCALL
000706: 42,2041           40614                           CADR     S40.14                                #  COMPUTE RCS DAP STUFF
000707:
000708: 42,2042           32053        DONOUN48           CAF      V0648                                 #     R1         R2         R3
000709: 42,2043           04636                           TC       BANKCALL                              #    PTRIM      YTRIM      BLANK
000710: 42,2044           20576                           CADR     GOXDSPF
000711:
000712: 42,2045           05524                           TC       ENDEXT
000713: 42,2046           05524                           TC       ENDEXT
000714: 42,2047           02042                           TC       DONOUN48
000715:
000716: 42,2050           05547        MAXIN              TC       UPFLAG
000717: 42,2051           00212                           ADRES    MAXDBFLG
000718: 42,2052           02014                           TC       MAXOUT
000719:
000720: 42,2053           01460        V0648              VN       0648
000721: 42,2054           01457        V06N47             VN       0647
000722: 42,2055           01056        V04N46             VN       0446
000723: 43,2557                                           BANK     43
000724: 43,2000                                           SETLOC   EXTVERBS
000725: 43,2000                                           BANK
000726:
000727: 43,2557                                           COUNT*   $$/EXTVB
000728:
000729:                                                                                                  #  V82PERF       VERB82          DESCRIPTION
000730:                                                                                                  #        REQUEST ORBIT PARAMETERS DISPLAY (R30)
000731:                                                                                                  #        1. IF AVERAGE G IS OFF:
000732:                                                                                                  #                FLASH DISPLAY V04N06. R2 INDICATES WHICH SHIP'S STATE VECTOR IS
000733:                                                                                                  #                 TO BE UPDATED. INITIAL CHOICE IS THIS SHIP (R2=1). ASTRONAUT
000734:                                                                                                  #                 CAN CHANGE TO OTHER SHIP BY V22EXE, WHERE X NOT EQ 1.
000735:                                                                                                  #                SELECTED STATE VECTOR UPDATED BY THISPREC (OTHPREC).
000736:                                                                                                  #                CALLS SR30.1 (WHICH CALLS TFFCONMU + TFFRP/RA) TO CALCULATE
000737:                                                                                                  #                 RPER (PERIGEE RADIUS), RAPO (APOGEE RADIUS), HPER (PERIGEE
000738:                                                                                                  #                 HEIGHT ABOVE LAUNCH PAD OR LUNAR LANDING SITE), HAPO (APOGEE
000739:                                                                                                  #                 HEIGHT AS ABOVE), TPER (TIME TO PERIGEE), TFF (TIME TO
000740:                                                                                                  #                 INTERSECT 300 KFT ABOVE PAD OR 35KFT ABOVE LANDING SITE).


000742:                                                                                                  #                FLASH MONITOR V16N44 (HAPO, HPER, TFF). TFF IS -59M59S IF IT WAS
000743:                                                                                                  #                 NOT COMPUTABLE, OTHERWISE IT INCREMENTS ONCE PER SECOND.
000744:                                                                                                  #                 ASTRONAUT HAS OPTION TO MONITOR TPER BY KEYING IN N 32 E.
000745:                                                                                                  #                 DISPLAY IS IN HMS, IS NEGATIVE (AS WAS TFF), AND INCREMENTS
000746:                                                                                                  #                 ONCE PER SECOND ONLY IF TFF DISPLAY WAS -59M59S.
000747:
000748:                                                                                                  #        2.IF AVERAGE G IS ON:
000749:                                                                                                  #                CALLS SR30.1 APPROX EVERY TWO SECS.  STATE VECTOR IS ALWAYS
000750:                                                                                                  #                 FOR THIS VEHICLE. V82 DOES NOT DISTURB STATE VECTOR.  RESULTS
000751:                                                                                                  #                 OF SR30.1 ARE RAPO, RPER, HAPO, HPER, TPER, TFF.
000752:                                                                                                  #                FLASH MONITOR V16N44 (HAPO, HPER, TFF).
000753:                                                                                                  #                 IF MODE IS P11, THEN CALL DELRSPL SO ASTRONAUT CAN MONITOR
000754:                                                                                                  #                 RESULTS BY N50E.  SPLASH COMPUTATION DONE ONCE PER TWO SECS.
000755:
000756:                                                                                                  #  ADDENDUM: HAPO AND HPER SHOULD BE CHANGED TO READ HAPOX AND HPERX IN THE
000757:                                                                                                  #            ABOVE REMARKS.
000758:
000759: 43,2557           02076        V82PERF            TC       TESTXACT
000760: 43,2560           35051                           CAF      PRIO7
000761: 43,2561           05176                           TC       PRIOCHNG
000762: 43,2562           04655                           TC       POSTJUMP
000763: 43,2563           46330                           CADR     V82CALL                               #  ***** V82CALL MUST NOT BE A FINDVAC JOB.
000764:
000765:                                                                                                  #  VB83PERF      VERB 83         DESCRIPTION
000766:                                                                                                  #        REQUEST RENDEZVOUS PARAMETER DISPLAY (R31)
000767:                                                                                                  #        1. SET EXT VERB DISPLAY BUSY FLAG.
000768:                                                                                                  #        2. SCHEDULE V83CALL WITH PRIORITY 10.
000769:                                                                                                  #                A. DISPLAY
000770:                                                                                                  #                        R1  RANGE
000771:                                                                                                  #                        R2  RANGE RATE
000772:                                                                                                  #                        R3  THETA
000773:
000774: 43,2564           02076        V83PERF            TC       TESTXACT
000775: 43,2565           05547                           TC       UPFLAG
000776: 43,2566           00222                           ADRES    R31FLAG
000777: 43,2567           35047                 +3        CAF      PRIO5
000778: 43,2570           05121                           TC       NOVAC
000779: 43,2571  E4,1760                                  EBANK=   SUBEXIT
000780: 43,2571           02000 62064                     2CADR    R31CALL
000781:
000782: 43,2573           05205                           TC       ENDOFJOB
000783:
000784: 43,2574           02076        V85PERF            TC       TESTXACT
000785: 43,2575           05561                           TC       DOWNFLAG                              #  RESET R31 FLAG TO INDICATE R34
000786: 43,2576           00222                           ADRES    R31FLAG
000787: 43,2577           02567                           TC       V83PERF    +3


000789:
000790:                                                                                                  #  GOTOR23       VERB 54         DESCRIPTION
000791:                                                                                                  #        SET UP MARKING FOR R22 (REND TRACK DATA PROC)
000792:                                                                                                  #        1. SET EXT VERB DISPLAY BUSY FLAG
000793:                                                                                                  #        2. IF REND (P20 RUNNING) + TRACK (TRACKING ALLOWED) FLAGS ARE SET,
000794:                                                                                                  #            SCHEDULE R23 WITH PRIORITY 16, OTHERWISE TURN ON ALARM 406
000795:                                                                                                  #        3. RELEASE EXT VERB DISPLAY SYSTEM
000796:
000797: 43,2600           02076        GOTOR23            TC       TESTXACT
000798: 43,2601           30074                           CA       FLAGWRD0                              #  V54 UNACCEPTABLE UNLESS BOTH
000799: 43,2602           74762                           MASK     RNDVZBIT                              #        RENDEZVOUS AND TRACK FLAGS ON
000800: 43,2603           00006                           EXTEND
000801: 43,2604           12616                           BZF      R22ALARM
000802:
000803: 43,2605           30075                           CA       FLAGWRD1
000804: 43,2606           74764                           MASK     TRACKBIT
000805: 43,2607           00006                           EXTEND
000806: 43,2610           12616                           BZF      R22ALARM
000807:
000808: 43,2611           35055                           CAF      PRIO16                                #  LOWER THAN R22
000809: 43,2612           05121                           TC       NOVAC
000810: 43,2613  E7,1722                                  EBANK=   MRKBUF1
000811: 43,2613           02263 76067                     2CADR    R23CSM
000812:
000813: 43,2615           05205                           TC       ENDOFJOB
000814: 43,2616           05671        R22ALARM           TC       ALARM                                 #  VERB 57 WAS SELECTED AND NEITHER REND
000815: 43,2617           00406                           OCT      00406                                 #        NOR TRACK FLAG WERE ON.
000816: 43,2620           05524                           TC       ENDEXT
000817:


000819:                                                                                                  #  VERB 86       DESCRIPTION
000820:                                                                                                  #        V86 IS TO R23 AS MARK REJECT IS TO R21
000821:                                                                                                  #        V86 IS THE MARK REJECT FOR R23(THE BACKUP MARKING ROUTINE)
000822:
000823: 43,2621  E7,1722                                  EBANK=   MRKBUF1
000824: 43,2621           04606        V86PERF            TC       E7SETTER                              #  BACKUP MARK REJ.
000825: 43,2622           31722                           CA       MRKBUF1
000826: 43,2623           00006                           EXTEND
000827: 43,2624           12627                           BZF      +3
000828: 43,2625           00006                           EXTEND
000829: 43,2626           62632                           BZMF     BKRJCT
000830:
000831: 43,2627           37702                           CA       NEGONE
000832: 43,2630           55722                           TS       MRKBUF1
000833: 43,2631           02117                           TC       GOPIN
000834: 43,2632           34762        BKRJCT             CAF      R22CABIT
000835: 43,2633           70105                           MASK     FLAGWRD9
000836: 43,2634           00006                           EXTEND
000837: 43,2635           12117                           BZF      GOPIN
000838:
000839: 43,2636           05547                           TC       UPFLAG
000840: 43,2637           00231                           ADRES    REJCTFLG
000841: 43,2640           12117                           TCF      GOPIN
000842:


000844:                                                                                                  #  TRACKTRM      VERB 56         DESCRIPTION
000845:                                                                                                  #        TERMINATE TRACKING (P20)
000846:                                                                                                  #        1. KNOCK DOWN RENDEZVOUS, TRACK, AND UPDATE FLAGS.
000847:                                                                                                  #        2. REQUIRE P20 NOT RUNNING ALONE OR GO TO GOTOPOOH (REQUEST PROGRAM 00).
000848:                                                                                                  #        3. REQUIRE R22 RUNNING OR GO TO PINBRNCH.
000849:                                                                                                  #        4. IF INTEGRATION RUNNING, STALL UNTIL IT IS COMPLETED, THEN ZERO GROUPS 2 AND 3 TO KILL R21 + R22.
000850:                                                                                                  #        3. KNOCK DOWN RENDEZVOUS, R22, R21, TRACK, UPDATE, AND TARG1 FLAGS.
000851:                                                                                                  #        4. GO TO ENEMA (SOFTWARE RESTART).
000852:                                                                                                  #        REFERENCE
000853:                                                                                                  #                P20     RENDEZVOUS      NAVIGATION.
000854:                                                                                                  #                R21     RENDEZVOUS      TRACKING SIGHTING MARK.
000855:                                                                                                  #                R22     RENDEZVOUS      TRACKING DATA PROCESSING.
000856:
000857: 43,2641           06006        TRACKTRM           TC       INTPRET
000858: 43,2642           43014                           CLEAR    BON
000859: 43,2643           04275                                    R67FLAG
000860: 43,2644           04306                                    UTFLAG
000861: 43,2645           66655                                    TRACKCHK
000862: 43,2646           43014                           BOFF     CLEAR
000863: 43,2647           00350                                    RNDVZFLG
000864: 43,2650           66701                                    EXPIN1
000865: 43,2651           05270                                    AUTOSEQ
000866: 43,2652           43014                           CLEAR    CLEAR
000867: 43,2653           01261                                    R21MARK
000868: 43,2654           00670                                    UPDATFLG
000869: 43,2655           43014        TRACKCHK           BOFCLR   CLEAR
000870: 43,2656           00652                                    TRACKFLG
000871: 43,2657           66676                                    EXPIN
000872: 43,2660           00267                                    IMUSE
000873: 43,2661           43014                           CLEAR    CLEAR
000874: 43,2662           00270                                    RNDVZFLG
000875: 43,2663           04266                                    UTFLAG
000876: 43,2664           45034                           RTB      CALL
000877: 43,2665           11030                                    INITSUBB                              #  DO STOPRATE AND RESTOREDB
000878: 43,2666           27516                                    INTSTALL                              #  DONT INTERRUPT INTEGRATION
000879: 43,2667           77776                           EXIT
000880:
000881: 43,2670           05362                           TC       2PHSCHNG
000882: 43,2671           00002                           OCT      2                                     #  KILL GROUP 2 TO HALT P20 ACTIVITY
000883: 43,2672           00001                           OCT      1                                     #  ALSO KILL GROUP 1
000884:
000885: 43,2673           00004        CLEANOUT           INHINT
000886: 43,2674           04655                           TC       POSTJUMP
000887: 43,2675           12712                           CADR     ENEMA                                 #  CAUSE RESTART
000888:
000889: 43,2676           43014        EXPIN              CLEAR    CLEAR
000890: 43,2677           00270                                    RNDVZFLG
000891: 43,2700           04266                                    UTFLAG
000892: 43,2701           77776        EXPIN1             EXIT


000894: 43,2702           02117                           TC       GOPIN
000895:
000896:                                                                                                  #  LEMVEC        VERB 80         DESCRIPTION
000897:                                                                                                  #        UPDATE LEM STATE VECTOR
000898:                                                                                                  #                RESET VEHUPFLG TO 0
000899:
000900: 43,2703           03065        LEMVEC             TC       DOWNX
000901: 43,2704           00026                           ADRES    VEHUPFLG                              #  VEHUPFLG DOWN INDICATES LEM
000902:
000903: 43,2705           03071        CSMVEC             TC       UPX                                   #  VEHUPFLG UP INDICATES CM.
000904:
000905:                                                                                                  #  CSMVEC        VERB 81         DESCRIPTION
000906:                                                                                                  #        UPDATE CSM STATE VECTOR
000907:                                                                                                  #                SET VEHUPFLG TO 1
000908:
000909:                                                                                                  #  DNEDUMP       VERB 74         DESCRIPTION
000910:                                                                                                  #        INITIALIZE DOWN-TELEMETRY PROGRAM FOR ERASABLE MEMORY DUMP.
000911:                                                                                                  #        2. REPLACE CURRENT DOWNLIST WITH ERASABLE MEMORY.
000912:                                                                                                  #        3. RELEASE EXT VERB DISPLAY.
000913:
000914: 43,2706           32711        DNEDUMP            CAF      LDNDUMPI
000915: 43,2707           54334                           TS       DNTMGOTO
000916: 43,2710           02117                           TC       GOPIN
000917:
000918: 43,2711  43,2706               V74                EQUALS   DNEDUMP
000919: 43,2711           03643        LDNDUMPI           REMADR   DNDUMPI
000920:
000921:                                                                                                  #  LFTFLGON      VERB 75         DESCRIPTION
000922:                                                                                                  #        SET LIFT-OFF FLAG
000923:                                                                                                  #        1. SETUP GGRBKFLG, GUIDANCE REFERENCE RELEASE BACK-UP FLAG.
000924:                                                                                                  #        2. RETURN VIA PINBRNCH
000925:
000926: 43,2712           00125                           ADRES    GRRBKFLG                              #  MUST PRECEDE LFTFLGON
000927: 43,2713           03071        LFTFLGON           TC       UPX
000928:
000929: 43,2714           31214        CHKPOOH            CA       MODREG
000930: 43,2715           00006                           EXTEND
000931: 43,2716           16711                           BZF      TCQ
000932: 43,2717           12116                           TCF      ALM/END
000933:
000934: 43,2720  E6,1423                                  EBANK=   PACTOFF
000935: 43,2720           03226 12106  IDLECADR           2CADR    T5IDLOC
000936:


000938:                                                                                                  #  VERB 89       DESCRIPTION     RENDEZVOUS FINAL ATTITUDE ROUTINE (R63)
000939:
000940:                                                                                                  #  CALLED BY VERB 89 ENTER DURING P00. PRIO 10 USED. CALCULATES AND
000941:                                                                                                  #  DISPLAYS FINAL GIMBAL ANGLES TO POINT CSM +X AXIS OR PREFERRED AXIS
000942:                                                                                                  #  (UNIT(Z)COS55 DEG + UNIT(X)SIN55 DEG) AT LM.
000943:
000944:                                                                                                  #  1. KEY IN V 89 E ONLY IF IN PROG 00. IF NOT IN P00, OPERATOR ERROR AND
000945:                                                                                                  #  EXIT R63, OTHERWISE CONTINUE.
000946:
000947:                                                                                                  #  2. IF IN P00, DO IMU STATUS CHECK (R02BOTH). IF IMU ON AND ITS
000948:                                                                                                  #  ORIENTATION KNOWN TO CGC, CONTINUE.
000949:
000950:                                                                                                  #  3. FLASH DISPLAY V 04 N 06. R2 INDICATES WHICH SPACECRAFT AXIS IS TO
000951:                                                                                                  #  BE POINTED AT LM.  INITIAL CHOICE IS PREFERRED AXIS. (R2=1).
000952:                                                                                                  #  ASTRONAUT CAN CHANGE TO (+X) AXIS (R2 NOT= 1) BY V 22 E 2 E. CONTINUE
000953:                                                                                                  #  AFTER KEYING IN PROCEED.
000954:
000955:                                                                                                  #  4. SET PREFERRED ATTITUDE FLAG ACCORDING TO OPTION DESIRED. SET FLAG
000956:                                                                                                  #  FOR PREFERRED AXIS. RESET FLAG FOR X AXIS.
000957:
000958:                                                                                                  #  5. CURRENT TIME IS STORED AND R63COMP IS CALLED
000959:
000960:                                                                                                  #        R63COMP JOB:
000961:
000962:                                                                                                  #                UPDATES CSM AND LM STATE VECTORS USING CONIC EQUATIONS
000963:
000964:                                                                                                  #                CALCULATES BOTH PREFERRED AND X AXIS TRACKING ATT FROM CSM TO LM.
000965:
000966:                                                                                                  #                DESIRED GIMBAL ANGLES AS INDICATED BY PREFERRED ATTITUDE FLAG
000967:                                                                                                  #                ARE STORED FOR LATER R60CSM CALL.
000968:
000969:                                                                                                  #  6.  FLASH DISPLAY V 06 N18 AND AWAIT RESPONSE.
000970:
000971:                                                                                                  #  7.  RECYCLE- RETURN TO STEP 5.
000972:                                                                                                  #      TERMINATE- EXIT R63 ROUTINE
000973:                                                                                                  #      PROCEED- RESET 3AXISFLG AND CALL R60CSM FOR ATTITUDE MANEUVER.
000974:
000975: 43,2722           02714        V89PERF            TC       CHKPOOH                               #  DEMAND P00
000976: 43,2723           02076                           TC       TESTXACT
000977: 43,2724           34754                           CAF      PRIO10
000978: 43,2725           05135                           TC       FINDVAC
000979: 43,2726  E6,1774                                  EBANK=   R61CNTR
000980: 43,2726           02377 62066                     2CADR    V89CALL
000981:
000982: 43,2730           15205                           TCF      ENDOFJOB
000983:
000984: 43,2731           05561        WMATRXNG           TC       DOWNFLAG                              #  RESET RENDWFLG
000985: 43,2732           00131                           ADRES    RENDWFLG
000986: 43,2733           03065                           TC       DOWNX


000988: 43,2734           00066                           ADRES    ORBWFLAG
000989:
000990: 43,2735  43,2735               GOSHOSUM           EQUALS   SHOWSUM
000991:
000992: 43,2735           02714        SHOWSUM            TC       CHKPOOH
000993: 43,2736           02076                           TC       TESTXACT                              #  *
000994: 43,2737           34770                           CAF      S+1                                   #  *
000995: 43,2740           55376                           TS       SKEEP6                                #  * SHOWSUM OPTION
000996: 43,2741           34772                           CAF      S+ZERO                                #  *
000997: 43,2742           55362                           TS       SMODE                                 #  * TURN OFF SELF-CHECK
000998: 43,2743           33177                           CA       SELFADRS                              #  *
000999: 43,2744           55361                           TS       SELFRET                               #  *
001000: 43,2745           03454                           TC       STSHOSUM                              #  * ENTER ROPECHK
001001:
001002: 43,2746           23372        SDISPLAY           LXCH     SKEEP2                                #  * BNK NO FOR DSP
001003: 43,2747           23373                           LXCH     SKEEP3                                #  * BUGGER WORD FOR DSP
001004: 43,2750           33176        NOKILL             CA       ADRS1                                 #  *
001005: 43,2751           54156                           TS       MPAC       +2                         #  *
001006: 43,2752           32763                           CA       VNCON                                 #  * 0501
001007: 43,2753           04636                           TC       BANKCALL                              #  *
001008: 43,2754           20576                           CADR     GOXDSPF                               #  *
001009: 43,2755           02760                           TC       +3                                    #  *
001010: 43,2756           03565                           TC       NXTBNK                                #  *
001011: 43,2757           02750                           TC       NOKILL                                #  *
001012: 43,2760           33177                           CA       SELFADRS
001013: 43,2761           55371                           TS       SKEEP1
001014:
001015: 43,2762           05524                           TC       ENDEXT                                #  *
001016:
001017: 43,2763           01201        VNCON              VN       501                                   #  *
001018:
001019: 43,2764           31376        ENDSUMS            CA       SKEEP6                                #  *
001020: 43,2765           00006                           EXTEND                                         #  *
001021: 43,2766           13270                           BZF      SELFCHK                               #  * ROPECHK, START SELFCHK AGAIN.
001022: 43,2767           03454                           TC       STSHOSUM                              #  * START SHOWSUM AGAIN.
001023:
001024:
001025:                                                                                                  #  VB 87  SET VHF RANGE FLAG - ALLOWS R22 TO ACCEPT RANGE DATA.
001026:
001027:                                                                                                  #  VB 88  RESET VHF RANGE FLAG - STOPS ACCEPTANCE OF RANGE DATA.
001028:
001029: 43,2770           05632        RESETVHF           TC       TRFAILOF                              #  TRACKER FAIL LIGHT
001030: 43,2771           03065                           TC       DOWNX
001031: 43,2772           00215                           ADRES    VHFRFLAG
001032: 43,2773           03071        SETVHFLG           TC       UPX                                   #  V87 SET VHF RANGE FLAG
001033:
001034:                                                                                                  #  VERB 66.      VEHICLES ARE ATTACHED. - MOVE THIS VEHICLE STATE VECTOR TO
001035:                                                                                                  #                OTHER VEHICLE STATE VECTOR.
001036:


001038:                                                                                                  #  USE SUBROUTINE GENTRAN.
001039:
001040: 43,2774  E3,1554                                  EBANK=   RRECTHIS
001041: 43,2774           34754        ATTACHED           CAF      PRIO10
001042: 43,2775           05135                           TC       FINDVAC
001043: 43,2776  E3,1554                                  EBANK=   RRECTHIS
001044: 43,2776           02000 36103                     2CADR    ATTACHIT
001045:
001046: 43,3000           05205                           TC       ENDOFJOB
001047:
001048: 17,2000                                           SETLOC   EXTVRBS1
001049: 17,2000                                           BANK
001050: 17,2000                                           COUNT*   $$/EXTVB
001051: 17,2000           06006        ATTACHIT           TC       INTPRET
001052: 17,2001           77624                           CALL
001053: 17,2002           27516                                    INTSTALL
001054: 17,2003           43014                           SET      BON
001055: 17,2004           04064                                    MOONOTH
001056: 17,2005           04303                                    MOONTHIS
001057: 17,2006           36011                                    CMMOVE
001058: 17,2007           77614                           CLEAR
001059: 17,2010           04264                                    MOONOTH
001060: 17,2011           77776        CMMOVE             EXIT
001061: 17,2012           32032                           CAF      OCT51
001062: 17,2013           05607                           TC       GENTRAN
001063: 17,2014           01554                           ADRES    RRECTHIS                              #  OUR STATE VECTOR INTO OTHER VIA GENTRAN
001064: 17,2015           01626                           ADRES    RRECTOTH
001065:
001066: 17,2016           06006        TACHEXIT           TC       INTPRET
001067: 17,2017           77624                           CALL                                           #  UPDATE RN, VN, R-OTHER, V-OTHER
001068: 17,2020           27005                                    PTOACSM
001069: 17,2021           45154                           LXA,2    CALL
001070: 17,2022           02150                                    PBODY
001071: 17,2023           20240                                    SVDWN1
001072: 17,2024           77624                           CALL
001073: 17,2025           20264                                    SVDWN2
001074: 17,2026           77624                           CALL
001075: 17,2027           27525                                    INTWAKE0
001076: 17,2030           77634        TCPIN              RTB
001077: 17,2031           21275                                    PINBRNCH
001078:
001079: 17,2032           00051        OCT51              OCT      51
001080:
001081: 43,2000                                           SETLOC   EXTVERBS
001082: 43,2000                                           BANK
001083: 43,3001                                           COUNT*   $$/EXTVB
001084:
001085:                                                                                                  #  VERB 47  MOVE LM STATE VECTOR INTO CM STATE VECTOR.
001086:
001087: 43,3001           34754        LMTOCMSV           CAF      PRIO10
001088: 43,3002           05135                           TC       FINDVAC


001090: 43,3003  E3,1554                                  EBANK=   RRECTHIS
001091: 43,3003           02033 36103                     2CADR    LMTOCM
001092:
001093: 43,3005           05205                           TC       ENDOFJOB
001094:
001095: 17,2000                                           SETLOC   EXTVRBS1
001096: 17,2000                                           BANK
001097:
001098: 17,2033                                           COUNT*   $$/EXTVB
001099: 17,2033           06006        LMTOCM             TC       INTPRET
001100: 17,2034           77624                           CALL
001101: 17,2035           27516                                    INTSTALL
001102: 17,2036           43014                           SET      BON
001103: 17,2037           04063                                    MOONTHIS
001104: 17,2040           04304                                    MOONOTH
001105: 17,2041           36044                                    LMMOVE
001106: 17,2042           77614                           CLEAR
001107: 17,2043           04263                                    MOONTHIS
001108: 17,2044           77776        LMMOVE             EXIT
001109: 17,2045           32032                           CAF      OCT51
001110: 17,2046           05607                           TC       GENTRAN
001111: 17,2047           01626                           ADRES    RRECTOTH                              #  LM STATE VECTOR INTO CM VIA GENTRAN
001112: 17,2050           01554                           ADRES    RRECTHIS
001113:
001114: 17,2051           12016                           TCF      TACHEXIT
001115:
001116:                                                                                                  #  VERB 94  DO R64 VIA ENEMA TO PICK UP IN P23.
001117:
001118: 43,2000                                           SETLOC   EXTVERBS
001119: 43,2000                                           BANK
001120: 43,3006                                           COUNT*   $$/EXTVB
001121: 43,3006           34756        VERB94             CAF      V94FLBIT
001122: 43,3007           70105                           MASK     FLAGWRD9                              #  IS V94FLAG SET
001123: 43,3010           00006                           EXTEND
001124: 43,3011           12116                           BZF      ALM/END                               #  NO - OPERATOR ERROR
001125:
001126: 43,3012           05561                           TC       DOWNFLAG
001127: 43,3013           00213                           ADRES    V94FLAG
001128:
001129: 43,3014           05354                           TC       CHECKMM                               #  IS IT P23
001130: 43,3015           00027                           MM       23         B-14
001131: 43,3016           02116                           TC       ALM/END                               #  NO - OPERATOR ERROR
001132: 43,3017           05402                           TC       PHASCHNG
001133: 43,3020           00112                           OCT      112                                   #  SET GROUP 2 TO DO R64
001134:
001135: 43,3021  01,2044               2P11SPT1           =        2.11SPOT
001136: 43,3021           02673                           TC       CLEANOUT                              #  CAUSE RESTART
001137:
001138:                                                                                                  #  V90PERF       VERB 90         DESCRIPTION
001139:                                                                                                  #        REQUEST RENDEZVOUS OUT-OF-PLANE DISPLAY (R36)


001141:                                                                                                  #        1. SET EXT VERB DISPLAY BUSY FLAG.
001142:                                                                                                  #        2. SCHEDULE R36 CALL WITH PRIORITY 10
001143:                                                                                                  #                A. DISPLAY
001144:                                                                                                  #                        TIME OF EVENT - HOURS , MINUTES , SECONDS
001145:                                                                                                  #                        Y       OUT-OF-PLANE POSITION - NAUTICAL MILES
001146:                                                                                                  #                        YDOT    OUT-OF-PLANE VELOCITY - FEET/SECOND
001147:                                                                                                  #                        PSI     ANGLE BTW LINE OF SIGHT AND FORWARD
001148:                                                                                                  #                                DIRECTION VECTOR IN HORIZONTAL PLANE - DEGREES
001149:
001150: 43,3022           02076        V90PERF            TC       TESTXACT
001151: 43,3023           35051                           CAF      PRIO7                                 #  R36.V90
001152: 43,3024           05135                           TC       FINDVAC
001153: 43,3025  40,2000                                  SBANK=   PINSUPER
001154: 43,3025  E7,1412                                  EBANK=   TIG
001155: 43,3025           02000 50107                     2CADR    R36
001156:
001157: 43,3027           15205                           TCF      ENDOFJOB
001158:
001159:                                                                                                  #  VERB 96  SET QUITFLAG TO STOP INTEGRATION.
001160:
001161: 43,3030           05547        VERB96             TC       UPFLAG                                #  QUITFLAG WILL CAUSE INTEGRATION TO EXIT
001162: 43,3031           00221                           ADRES    QUITFLAG                              #        AT NEXT TIMESTEP
001163:
001164: 43,3032           05547                           TC       UPFLAG
001165: 43,3033           00204                           ADRES    V96ONFLG
001166: 43,3034           34772                           CAF      ZERO
001167: 43,3035           04655                           TC       POSTJUMP
001168: 43,3036           10007                           CADR     V37                                   #  GO TO POO
001169:
001170: 43,3037  E7,1751                                  EBANK=   LANDMARK
001171: 43,3037           05354        V52                TC       CHECKMM                               #  IS P22 OPERATING
001172: 43,3040           00026                           MM       22         B-14
001173: 43,3041           02116                           TC       ALM/END                               #  NO
001174: 43,3042           04606                           TC       E7SETTER
001175: 43,3043           45051                           CS       PRIO7                                 #  YES  SET BITS 12,11,10 OF LANDMARK =
001176: 43,3044           71751                           MASK     LANDMARK                              #  NO. OF MARKS TO GET OFFSET MARK NO.
001177: 43,3045           55751                           TS       LANDMARK
001178:
001179: 43,3046           31747                           CA       8NN                                   #  NO. OF MARKS
001180: 43,3047           00006                           EXTEND
001181: 43,3050           74757                           MP       BIT10
001182: 43,3051           30001                           CA       L
001183: 43,3052           27751                           ADS      LANDMARK
001184: 43,3053           02117                           TC       GOPIN
001185:
001186:                                                                                                  #  VERB 67  ASTRONAUT DISPLAY OF W MATRIX
001187:
001188: 43,3054           02076        V67                TC       TESTXACT
001189: 43,3055           35047                           CAF      PRIO5
001190: 43,3056           05135                           TC       FINDVAC


001192: 43,3057  E5,1400                                  EBANK=   W
001193: 43,3057           03636 60105                     2CADR    V67CALL
001194:
001195: 43,3061           05205                           TC       ENDOFJOB
001196:
001197:                                                                                                  #  VB 45.     RESET SURFACE FLAG.
001198:
001199: 43,3062           03065        RESTSRF            TC       DOWNX
001200: 43,3063           00177                           ADRES    SURFFLAG
001201: 43,3064           03071        SETSURF            TC       UPX                                   #  VB 44. SET SURFACE FLAG
001202:


001204:
001205:                                                                                                  #  DOWNX, UPX    FLAG SETTING AND RESETTING FOR EXTENDED VERBS.
001206:
001207:                                                                                                  #        RETURN IS TO GOPIN.
001208:
001209:                                                                                                  #        CALLING SEQUENCES:
001210:
001211:                                                                                                  #                FOR DOWNX
001212:
001213:                                                                                                  #                        TC      DOWNX
001214:                                                                                                  #                        ADRES   (FLAG NAME)
001215:
001216:                                                                                                  #                FOR UPX
001217:
001218:                                                                                                  #                        ADRES   (FLAG NAME)
001219:                                                                                                  #                        TC      UPX
001220:
001221: 43,3065                                           COUNT*   $$/FLAG
001222: 43,3065           30002        DOWNX              CA       Q
001223: 43,3066           05565                           TC       DEBIT
001224: 43,3067           70001                           MASK     L
001225: 43,3070           13077                           TCF      COMXFLG
001226:
001227: 43,3071           30002        UPX                CA       Q
001228: 43,3072           67701                           AD       NEG2
001229: 43,3073           05565                           TC       DEBIT
001230: 43,3074           40000                           COM
001231: 43,3075           00006                           EXTEND
001232: 43,3076           04001                           ROR      LCHAN
001233:
001234: 43,3077           50061        COMXFLG            INDEX    ITEMP1
001235: 43,3100           54074                           TS       FLAGWRD0
001236: 43,3101           12117                           TCF      GOPIN
001237:


001239:
001240:                                                                                                  #  VERB 57 SET FULL TRACK OPTION
001241:
001242: 43,3102                                           COUNT*   $$/EXTVB
001243: 43,3102           02076        V57CALL            TC       TESTXACT
001244:
001245: 43,3103           34766        PARTRACK           CAF      BIT3                                  #  OPTION 4 SPECIFY CONDITION OF FULTKFLG
001246: 43,3104           55255                           TS       OPTIONX
001247:
001248: 43,3105           34767        PRTRCK             CAF      FULTKBIT
001249: 43,3106           70106                           MASK     FLGWRD10
001250: 43,3107           00006                           EXTEND
001251: 43,3110           13112                           BZF      +2                                    #  FULTKFLG NOT SET
001252:
001253: 43,3111           34770                           CAF      BIT1                                  #  FULTKFLG SET
001254: 43,3112           55256                           TS       OPTIONX    +1
001255: 43,3113           33131                           CAF      V04N12
001256: 43,3114           04636                           TC       BANKCALL
001257: 43,3115           20576                           CADR     GOXDSPF
001258: 43,3116           05524                           TC       ENDEXT
001259: 43,3117           05524                           TC       ENDEXT
001260: 43,3120           31256                           CA       OPTIONX    +1
001261: 43,3121           00006                           EXTEND
001262: 43,3122           13126                           BZF      +4
001263: 43,3123           05547                           TC       UPFLAG
001264: 43,3124           00243                           ADRES    FULTKFLG
001265: 43,3125           13105                           TCF      PRTRCK
001266:
001267: 43,3126           05561                           TC       DOWNFLAG
001268: 43,3127           00243                           ADRES    FULTKFLG
001269: 43,3130           13105                           TCF      PRTRCK
001270:
001271: 43,3131           01014        V04N12             VN       0412

End of include-file EXTENDED_VERBS.agc.  Parent file is MAIN.agc


