
Source Code


000002:                                                                                                  ## Copyright:   Public domain.
000003:                                                                                                  ## Filename:    IMU_MODE_SWITCHING_ROUTINES.agc
000004:                                                                                                  ## Purpose:     A section of Artemis revision 071.
000005:                                                                                                  ##              It is part of the reconstructed source code for the first
000006:                                                                                                  ##              release of the flight software for the Command Module's
000007:                                                                                                  ##              (CM) Apollo Guidance Computer (AGC) for Apollo 15 through
000008:                                                                                                  ##              17. The code has been recreated from a copy of Artemis 072.
000009:                                                                                                  ##              It has been adapted such that the resulting bugger words
000010:                                                                                                  ##              exactly match those specified for Artemis 071 in NASA
000011:                                                                                                  ##              drawing 2021154-, which gives relatively high confidence
000012:                                                                                                  ##              that the reconstruction is correct.
000013:                                                                                                  ## Reference:   1417
000014:                                                                                                  ## Assembler:   yaYUL
000015:                                                                                                  ## Contact:     Ron Burkey <info@sandroid.org>.
000016:                                                                                                  ## Website:     www.ibiblio.org/apollo/index.html
000017:                                                                                                  ## Mod history: 2019-08-14 MAS  Created from Artemis 072.
000018:


000020:    4000                                           SETLOC   FFTAG3
000021:    4000                                           BANK
000022:
000023:    5511  E3,1471                                  EBANK=   COMMAND
000024:
000025:                                                                                                  #  FIXED-FIXED ROUTINES.
000026:
000027:    5511                                           COUNT*   $$/IMODE
000028:    5511           34772        ZEROICDU           CAF      ZERO                                  #  ZERO ICDU COUNTERS.
000029:    5512           54032                           TS       CDUX
000030:    5513           54033                           TS       CDUY
000031:    5514           54034                           TS       CDUZ
000032:    5515           00002                           TC       Q
000033:
000034:    5516     4760               SPSCODE            =        BIT9
000035:


000037:                                                                                                  #  IMU ZEROING ROUTINE.
000038:
000039: 07,2000                                           SETLOC   MODESW
000040: 07,2000                                           BANK
000041:
000042: 07,2627                                           COUNT*   $$/IMODE
000043: 07,2627           00004        IMUZERO            INHINT                                         #  ROUTINE TO ZERO ICDUS.
000044: 07,2630           41241                           CS       DSPTAB     +11D                       #  DONT ZERO CDUS IF IMU IN GIMBAL LOCK AND
000045: 07,2631           75004                           MASK     BITS4&6                               #  COARSE ALIGN (GIMBAL RUNAWAY PROTECTION)
000046: 07,2632           10000                           CCS      A
000047: 07,2633           12637                           TCF      IMUZEROA
000048:
000049: 07,2634           05671                           TC       ALARM                                 #  IF SO.
000050: 07,2635           00206                           OCT      00206
000051:
000052: 07,2636           13622                           TCF      CAGETSTJ   +4                         #  IMMEDIATE FAILURE.
000053:
000054: 07,2637           03616        IMUZEROA           TC       CAGETSTJ
000055:                                                                                                  #  DO ALL THE WORK.
000056: 07,2640           41334                           CS       IMODES33                              #  DISABLE DAP AUTO AND HOLD MODES
000057: 07,2641           74763                           MASK     NOIMUDAP
000058: 07,2642           27334                           ADS      IMODES33
000059: 07,2643           40000                           COM
000060: 07,2644           74764                           MASK     IMUZROBT
000061: 07,2645           27334                           ADS      IMODES33
000062:
000063: 07,2646           41333                           CS       IMODES30                              #  INHIBIT ICDUFAIL AND IMUFAIL (IN CASE WE
000064: 07,2647           74765                           MASK     IMUFINHT
000065: 07,2650           27333                           ADS      IMODES30
000066: 07,2651           40000                           COM
000067: 07,2652           74766                           MASK     ICDUINHT
000068: 07,2653           27333                           ADS      IMODES30
000069:
000070: 07,2654           45004                           CS       BITS4&6                               #  SEND ZERO ENCODE WITH COARSE AND ERROR
000071: 07,2655           00006                           EXTEND                                         #  COUNTER DISABLED.
000072: 07,2656           03012                           WAND     CHAN12
000073:
000074: 07,2657           03207                           TC       NOATTOFF                              #  TURN OFF NO ATT LAMP.
000075:
000076: 07,2660           34764                           CAF      BIT5
000077: 07,2661           00006                           EXTEND
000078: 07,2662           05012                           WOR      CHAN12
000079:
000080: 07,2663           05511                           TC       ZEROICDU
000081: 07,2664           34763                           CAF      BIT6                                  #  WAIT 320 MS TO GIVE AGS ADEQUATE TIME TO
000082: 07,2665           05223                           TC       TWIDDLE                               #  RECEIVE ITS PULSE TRAIN.
000083: 07,2666  E3,1474                                  EBANK=   CDUIND
000084: 07,2666           02677                           ADRES    IMUZERO2
000085: 07,2667           41333                           CS       IMODES30                              #  SEE IF IMU OPERATING AND ALARM IF NOT.
000086: 07,2670           74760                           MASK     IMUOPBIT


000088: 07,2671           10000                           CCS      A
000089: 07,2672           12675                           TCF      MODEEXIT
000090:
000091: 07,2673           05671                           TC       ALARM
000092: 07,2674           00210                           OCT      210
000093:
000094: 07,2675           00003        MODEEXIT           RELINT                                         #  GENERAL MODE-SWITCHING EXIT.
000095: 07,2676           14651                           TCF      SWRETURN
000096:
000097:
000098: 07,2677           03606        IMUZERO2           TC       CAGETEST
000099: 07,2700           05511                           TC       ZEROICDU                              #  ZERO CDUX, CDUY, CDUZ
000100:
000101: 07,2701           44764                           CS       BIT5                                  #  REMOVE ZERO DISCRETE.
000102: 07,2702           00006                           EXTEND
000103: 07,2703           03012                           WAND     CHAN12
000104:
000105: 07,2704           35025                           CAF      7.9SEC                                #  WAIT 7.9 SECS FOR CTRS TO FIND GIMBALS
000106: 07,2705           05260                           TC       VARDELAY
000107:
000108: 07,2706           03606        IMUZERO3           TC       CAGETEST
000109: 07,2707           34765                           CA       IMUFINHT
000110: 07,2710           64766                           AD       ICDUINHT
000111: 07,2711           40000                           COM
000112: 07,2712           71333                           MASK     IMODES30
000113: 07,2713           55333                           TS       IMODES30
000114:
000115: 07,2714           34763                           CA       NOIMUDAP
000116: 07,2715           64764                           AD       IMUZROBT
000117: 07,2716           40000                           COM
000118: 07,2717           71334                           MASK     IMODES33                              #        BIT5 FOR GROUND
000119: 07,2720           55334                           TS       IMODES33
000120:
000121: 07,2721           04714                           TC       IBNKCALL                              #  SET ISS WARNING IF EITHER OF ABOVE ARE
000122: 07,2722           14706                           CADR     SETISSW                               #  PRESENT.
000123:
000124: 07,2723           13563                           TCF      ENDIMU
000125:


000127:                                                                                                  #  IMU COARSE ALIGN MODE.
000128:
000129: 07,2724           00004        IMUCOARS           INHINT
000130: 07,2725           03616                           TC       CAGETSTJ
000131: 07,2726           03070                           TC       SETCOARS
000132:
000133: 07,2727           36211                           CAF      SIX
000134: 07,2730           05233                           TC       WAITLIST
000135: 07,2731  E3,1474                                  EBANK=   CDUIND
000136: 07,2731           02734 16063                     2CADR    COARS
000137:
000138: 07,2733           12675                           TCF      MODEEXIT
000139:
000140: 07,2734           03606        COARS              TC       CAGETEST
000141: 07,2735           34763                           CAF      BIT6                                  #  ENABLE ALL THREE ISS CDU ERROR COUNTERS
000142: 07,2736           00006                           EXTEND
000143: 07,2737           05012                           WOR      CHAN12
000144:
000145: 07,2740           34767                           CAF      TWO                                   #  SET CDU INDICATOR
000146: 07,2741           55474        COARS1             TS       CDUIND
000147:
000148: 07,2742           51474                           INDEX    CDUIND                                #  COMPUTE THETAD - THETAA IN 1:S
000149: 07,2743           31307                           CA       THETAD                                #    COMPLEMENT FORM
000150: 07,2744           00006                           EXTEND
000151: 07,2745           51474                           INDEX    CDUIND
000152: 07,2746           20032                           MSU      CDUX
000153: 07,2747           00006                           EXTEND
000154: 07,2750           74754                           MP       BIT13                                 #  SHIFT RIGHT 2
000155: 07,2751           56001                           XCH      L                                     #  ROUND
000156: 07,2752           60000                           DOUBLE
000157: 07,2753           54061                           TS       ITEMP1
000158: 07,2754           12756                           TCF      +2
000159: 07,2755           26001                           ADS      L
000160:
000161: 07,2756           51474                           INDEX    CDUIND                                #  DIFFERENCE TO BE COMPUTED
000162: 07,2757           23471                           LXCH     COMMAND
000163: 07,2760           11474                           CCS      CDUIND
000164: 07,2761           02741                           TC       COARS1
000165:
000166: 07,2762           34767                           CAF      TWO                                   #  MINIMUM OF 4 MS WAIT
000167: 07,2763           05260                 -1        TC       VARDELAY
000168: 07,2764           03606        COARS2             TC       CAGETEST                              #  DONT CONTINUE IF CAGED.
000169: 07,2765           54061                           TS       ITEMP1                                #  SETS TO +0.
000170: 07,2766           34767                           CAF      TWO                                   #  SET CDU INDICATOR
000171: 07,2767           55474                 +3        TS       CDUIND
000172:
000173: 07,2770           51474                           INDEX    CDUIND
000174: 07,2771           11471                           CCS      COMMAND                               #  NUMBER OF PULSES REQUIRED
000175: 07,2772           02776                           TC       COMPOS                                #  GREATER THAN MAX ALLOWED


000177: 07,2773           03005                           TC       NEXTCDU    +1
000178: 07,2774           03043                           TC       COMNEG
000179: 07,2775           03005                           TC       NEXTCDU    +1
000180:
000181: 07,2776           63663        COMPOS             AD       -COMMAX                               #  COMMAX = MAX NUMBER OF PULSES ALLOWED
000182: 07,2777           00006                           EXTEND                                         #    MINUS ONE
000183: 07,3000           63053                           BZMF     COMZERO
000184: 07,3001           51474                           INDEX    CDUIND
000185: 07,3002           55471                           TS       COMMAND                               #  REDUCE COMMAND BY MAX NUMBER OF PULSES
000186: 07,3003           43664                           CS       -COMMAX-                              #    ALLOWED
000187:
000188: 07,3004           24061        NEXTCDU            INCR     ITEMP1
000189: 07,3005           64771                 +1        AD       NEG0
000190: 07,3006           51474                           INDEX    CDUIND
000191: 07,3007           54050                           TS       CDUXCMD                               #  SET UP COMMAND REGISTER.
000192:
000193: 07,3010           11474                           CCS      CDUIND
000194: 07,3011           02767                           TC       COARS2     +3
000195:
000196: 07,3012           10061                           CCS      ITEMP1                                #  SEE IF ANY PULSES TO GO OUT.
000197: 07,3013           13057                           TCF      SENDPULS
000198:
000199: 07,3014           05255                           TC       FIXDELAY                              #  WAIT FOR GIMBALS TO SETTLE.
000200: 07,3015           00226                           DEC      150        B-14
000201:
000202: 07,3016           34767                           CAF      TWO                                   #  AT END OF COMMAND, CHECK TO SEE THAT
000203: 07,3017           54061        CHKCORS            TS       ITEMP1                                #  GIMBALS ARE WITHIN 2 DEGREES OF THETAD.
000204: 07,3020           50000                           INDEX    A
000205: 07,3021           30032                           CA       CDUX
000206: 07,3022           00006                           EXTEND
000207: 07,3023           50061                           INDEX    ITEMP1
000208: 07,3024           21307                           MSU      THETAD
000209: 07,3025           10000                           CCS      A
000210: 07,3026           13034                           TCF      COARSERR
000211: 07,3027           13031                           TCF      CORSCHK2
000212: 07,3030           13034                           TCF      COARSERR
000213:


000215:
000216: 07,3031           10061        CORSCHK2           CCS      ITEMP1
000217: 07,3032           13017                           TCF      CHKCORS
000218: 07,3033           13563                           TCF      ENDIMU                                #  END OF COARSE ALIGNMENT.
000219:
000220: 07,3034           63042        COARSERR           AD       COARSTOL                              #  2 DEGREES.
000221: 07,3035           00006                           EXTEND
000222: 07,3036           63031                           BZMF     CORSCHK2
000223:
000224:
000225: 07,3037           05671                           TC       ALARM                                 #  COARSE ALIGN ERROR.
000226: 07,3040           00211                           OCT      211
000227:
000228: 07,3041           13625                           TCF      IMUBAD
000229:
000230: 07,3042           77511        COARSTOL           DEC      -.01111                               #  2 DEGREES SCALED AT HALF-REVOLUTIONS
000231:
000232:
000233: 07,3043           63663        COMNEG             AD       -COMMAX
000234: 07,3044           00006                           EXTEND
000235: 07,3045           63053                           BZMF     COMZERO
000236: 07,3046           40000                           COM
000237: 07,3047           51474                           INDEX    CDUIND
000238: 07,3050           55471                           TS       COMMAND
000239: 07,3051           33664                           CA       -COMMAX-
000240: 07,3052           03004                           TC       NEXTCDU
000241:
000242: 07,3053           34772        COMZERO            CAF      ZERO
000243: 07,3054           51474                           INDEX    CDUIND
000244: 07,3055           57471                           XCH      COMMAND
000245: 07,3056           03004                           TC       NEXTCDU
000246:
000247:
000248: 07,3057           37673        SENDPULS           CAF      13,14,15
000249: 07,3060           00006                           EXTEND
000250: 07,3061           05014                           WOR      CHAN14
000251: 07,3062           33665                           CAF      600MS
000252: 07,3063           12763                           TCF      COARS2     -1                         #  THEN TO VARDELAY
000253:
000254: 07,3064           34763        CA+ECE             CAF      BIT6                                  #  ENABLE ALL THREE ISS CDU ERROR COUNTERS
000255: 07,3065           00006                           EXTEND
000256: 07,3066           05012                           WOR      CHAN12
000257: 07,3067           05314                           TC       TASKOVER
000258:


000260: 07,3070           34765        SETCOARS           CAF      BIT4                                  #  BYPASS IF ALREADY IN COARSE ALIGN
000261: 07,3071           00006                           EXTEND
000262: 07,3072           02012                           RAND     CHAN12
000263: 07,3073           10000                           CCS      A
000264: 07,3074           00002                           TC       Q
000265:
000266: 07,3075           44763                           CS       BIT6                                  #  CLEAR ISS ERROR COUNTERS
000267: 07,3076           00006                           EXTEND
000268: 07,3077           03012                           WAND     CHAN12
000269:
000270: 07,3100           44757                           CS       BIT10                                 #  KNOCK DOWN GYRO ACTIVITY
000271: 07,3101           00006                           EXTEND
000272: 07,3102           03014                           WAND     CHAN14
000273: 07,3103           44772                           CS       ZERO
000274: 07,3104           54047                           TS       GYROCMD
000275:
000276: 07,3105           34765                           CAF      BIT4                                  #  PUT ISS IN COARSE ALIGN
000277: 07,3106           00006                           EXTEND
000278: 07,3107           05012                           WOR      CHAN12
000279:
000280: 07,3110           41241                           CS       DSPTAB     +11D                       #  TURN ON NO ATT LAMP
000281: 07,3111           77664                           MASK     OCT40010
000282: 07,3112           27241                           ADS      DSPTAB     +11D
000283:
000284: 07,3113           41334                           CS       IMODES33                              #  DISABLE DAP AUTO AND HOLD MODES
000285: 07,3114           74763                           MASK     NOIMUDAP
000286: 07,3115           27334                           ADS      IMODES33
000287:
000288: 07,3116           41333                           CS       IMODES30                              #  DISABLE IMUFAIL
000289: 07,3117           74765                           MASK     IMUFINHT
000290: 07,3120           27333                           ADS      IMODES30
000291:
000292: 07,3121           44764        RNDREFDR           CS       TRACKBIT                              #  KNOCK DOWN TRACK FLAG
000293: 07,3122           70075                           MASK     FLAGWRD1
000294: 07,3123           54075                           TS       FLAGWRD1
000295:
000296: 07,3124           44752                           CS       DRFTBIT                               #  KNOCK DOWN DRIFT FLAG
000297: 07,3125           70076                           MASK     FLAGWRD2
000298: 07,3126           54076                           TS       FLAGWRD2
000299:
000300: 07,3127           44754                           CS       REFSMBIT                              #  KNOCK DOWN REFSMMAT FLAG
000301: 07,3130           70077                           MASK     FLAGWRD3
000302: 07,3131           54077                           TS       FLAGWRD3
000303:
000304: 07,3132           00002                           TC       Q
000305:
000306: 07,3133     7664               OCT40010           EQUALS   OT40010
000307:


000309:
000310:                                                                                                  #  IMU FINE ALIGN MODE SWITCH.
000311:
000312: 07,3133           00004        IMUFINE            INHINT
000313: 07,3134           03616                           TC       CAGETSTJ                              #  SEE IF IMU BEING CAGED.
000314:
000315: 07,3135           45001                           CS       BITS4-5                               #  RESET ZERO AND COARSE
000316: 07,3136           00006                           EXTEND
000317: 07,3137           03012                           WAND     CHAN12
000318:
000319: 07,3140           44763                           CS       NOIMUDAP                              #  INSURE DAP AUTO AND HOLD MODES ENABLED
000320: 07,3141           71334                           MASK     IMODES33
000321: 07,3142           55334                           TS       IMODES33
000322:
000323: 07,3143           03207                           TC       NOATTOFF
000324:
000325: 07,3144           34757                           CAF      BIT10                                 #  IMU FAIL WAS INHIBITED DURING THE
000326: 07,3145           05223                           TC       TWIDDLE                               #  PRESUMABLY PRECEDING COARSE ALIGN. LEAVE
000327: 07,3146           03155                           ADRES    IFAILOK                               #  IT ON FOR THE FIRST 5 SECS OF FINE ALIGN
000328: 07,3147           35017                           CAF      2SECS
000329: 07,3150           05223                           TC       TWIDDLE
000330: 07,3151           03153                           ADRES    IMUFINED
000331: 07,3152           12675                           TCF      MODEEXIT
000332:
000333: 07,3153           03606        IMUFINED           TC       CAGETEST                              #  SEE THAT NO ONE HAS CAGED THE IMU.
000334: 07,3154           13563                           TCF      ENDIMU
000335:


000337: 07,3155           03613        IFAILOK            TC       CAGETSTQ                              #  ENABLE IMU FIAL UNLESS IMU BEING CAGED.
000338: 07,3156           15314                           TCF      TASKOVER                              #  IT IS.
000339:
000340: 07,3157           34765                           CAF      BIT4                                  #  DONT RESET IMU FAIL INHIBIT IF SOMEONE
000341: 07,3160           00006                           EXTEND                                         #  HAS GONE INTO COARSE ALIGN.
000342: 07,3161           02012                           RAND     CHAN12
000343: 07,3162           10000                           CCS      A
000344: 07,3163           15314                           TCF      TASKOVER
000345:
000346: 07,3164           41333                           CS       IMODES30                              #  RESET IMUFAIL.
000347: 07,3165           74754                           MASK     IMUFLBIT
000348: 07,3166           27333                           ADS      IMODES30
000349: 07,3167           44765                           CS       IMUFINHT
000350: 07,3170           71333        PFAILOK2           MASK     IMODES30
000351: 07,3171           55333                           TS       IMODES30
000352: 07,3172           04714                           TC       IBNKCALL                              #  THE ISS WARNING LIGHT MAY COME ON NOW
000353: 07,3173           14706                           CADR     SETISSW                               #  THAT THE INHIBIT HAS BEEN REMOVED.
000354: 07,3174           15314                           TCF      TASKOVER
000355:
000356: 07,3175           03613        PFAILOK            TC       CAGETSTQ                              #  ENABLE PIP FAIL PROG ALARM.
000357: 07,3176           15314                           TCF      TASKOVER
000358:
000359: 07,3177           41333                           CS       IMODES30                              #  RESET IMU AND PIPA FAIL BITS.
000360: 07,3200           74757                           MASK     PIPAFLBT
000361: 07,3201           27333                           ADS      IMODES30
000362:
000363: 07,3202           41334                           CS       IMODES33
000364: 07,3203           74754                           MASK     PIP2FLBT
000365: 07,3204           27334                           ADS      IMODES33
000366:
000367: 07,3205           44764                           CS       NOACCALM
000368: 07,3206           13170                           TCF      PFAILOK2
000369:
000370: 07,3207           47664        NOATTOFF           CS       OCT40010                              #  SUBROUTINE TO TURN OFF NO ATT LAMP.
000371: 07,3210           71241                           MASK     DSPTAB     +11D
000372: 07,3211           64752                           AD       BIT15
000373: 07,3212           55241                           TS       DSPTAB     +11D
000374: 07,3213           00002                           TC       Q
000375:


000377:
000378:                                                                                                  #  ROUITNES TO INITIATE AND TERMINATE PROGRAM USE OF THE PIPAS. NO IMUSTALL REQUIRED IN EITHER CASE.
000379:
000380: 07,3214           44772        PIPUSE             CS       ZERO
000381: 07,3215           54037                           TS       PIPAX
000382: 07,3216           54040                           TS       PIPAY
000383: 07,3217           54041                           TS       PIPAZ
000384:
000385: 07,3220           03613        PIPUSE1            TC       CAGETSTQ                              #  DO NOT ENABLE PIPA FAIL IF IMU IS CAGED
000386: 07,3221           14651                           TCF      SWRETURN
000387:
000388: 07,3222           00004                           INHINT
000389: 07,3223           44770                           CS       ACCFINHT                              #  IF PIPA FAILS FROM NOW ON (UNTIL
000390: 07,3224           71333                           MASK     IMODES30                              #  PIPFREE), LIGHT ISS WARNING.
000391: 07,3225           55333                           TS       IMODES30
000392:
000393: 07,3226           04714        PIPFREE2           TC       IBNKCALL                              #  ISS WARNING MIGHT COME ON NOW.
000394: 07,3227           14706                           CADR     SETISSW                               #  (OR GO OFF ON PIPFREE).
000395:
000396: 07,3230           12675                           TCF      MODEEXIT
000397:
000398: 07,3231           00004        PIPFREE            INHINT                                         #  PROGRAM DONE WITH PIPAS. DONT LIGHT
000399: 07,3232           41333                           CS       IMODES30                              #  ISS WARNING.
000400: 07,3233           74770                           MASK     ACCFINHT
000401: 07,3234           27333                           ADS      IMODES30
000402:
000403: 07,3235           74757                           MASK     PIPAFLBT                              #  IF PIP FAIL ON, DO PROG ALARM AND RESET
000404: 07,3236           10000                           CCS      A                                     #  ISS WARNING.
000405: 07,3237           12675                           TCF      MODEEXIT
000406:
000407: 07,3240           05671                           TC       ALARM
000408: 07,3241           00212                           OCT      212
000409:
000410: 07,3242           00004                           INHINT
000411:
000412: 07,3243           13226                           TCF      PIPFREE2
000413:


000415:
000416:                                                                                                  #           THE FOLLOWING ROUTINE TORQUES THE IRIGS ACCORDING TO DOUBLE PRECISION INPUTS IN THE SIX REGISTERS
000417:                                                                                                  #  BEGINNING AT THE ECADR ARRIVING IN A. THE MINIMUM SIZE OF ANY PULSE TRAIN IS 16 PULSES (.25 CDU COUNTS). THE
000418:                                                                                                  #  UNSENT PORTION OF THE COMMAND IS LEFT INTACT IN THE INPUT COMMAND REGISTERS.
000419:
000420: 07,3244           54161        IMUPULSE           TS       MPAC       +5                         #  SAVE ARRIVING ECADR.
000421: 07,3245           03616                           TC       CAGETSTJ                              #  DONT PROCEED IF IMU BEING CAGED.
000422:
000423: 07,3246           11324                           CCS      LGYRO                                 #  SEE IF GYROS BUSY.
000424: 07,3247           03307                           TC       GYROBUSY                              #  SLEEP.
000425:
000426: 07,3250           34763                           CAF      BIT6                                  #  ENABLE THE POWER SUPPLY.
000427: 07,3251           00006                           EXTEND
000428: 07,3252           05014                           WOR      CHAN14
000429:
000430: 07,3253           34766                           CAF      FOUR
000431: 07,3254           05233        GWAKE2             TC       WAITLIST                              #  (IF A JOB WAS PUT TO SLEEP, THE POWER
000432: 07,3255  E3,1474                                  EBANK=   CDUIND                                #  SUPPLY IS LEFT ON BY THE WAKING JOB).
000433: 07,3255           03324 16063                     2CADR    STRTGYRO
000434:
000435: 07,3257           30161                           CA       MPAC       +5                         #  SET UP EBANK, SAVING CALLER'S EBANK FOR
000436: 07,3260           56003                           XCH      EBANK                                 #  RESTORATION ON RETURN.
000437: 07,3261           56161                           XCH      MPAC       +5
000438: 07,3262           55324                           TS       LGYRO                                 #  RESERVES GYROS.
000439: 07,3263           74350                           MASK     LOW8
000440: 07,3264           54061                           TS       ITEMP1
000441:
000442: 07,3265           34767                           CAF      TWO                                   #  FORCE SIGN AGREEMENT ON INPUTS.
000443: 07,3266           54157        GYROAGRE           TS       MPAC       +3
000444: 07,3267           60000                           DOUBLE
000445: 07,3270           60061                           AD       ITEMP1
000446: 07,3271           54160                           TS       MPAC       +4
000447: 07,3272           00006                           EXTEND
000448: 07,3273           50000                           INDEX    A
000449: 07,3274           31401                           DCA      1400
000450: 07,3275           52155                           DXCH     MPAC
000451: 07,3276           07224                           TC       DPAGREE
000452: 07,3277           52155                           DXCH     MPAC
000453: 07,3300           50160                           INDEX    MPAC       +4
000454: 07,3301           53401                           DXCH     1400
000455:
000456: 07,3302           10157                           CCS      MPAC       +3
000457: 07,3303           13266                           TCF      GYROAGRE
000458:
000459: 07,3304           30161                           CA       MPAC       +5                         #  RESTORE CALLER'S EBANK.
000460: 07,3305           54003                           TS       EBANK
000461: 07,3306           12675                           TCF      MODEEXIT
000462:


000464:
000465:                                                                                                  #           ROUTINES TO ALLOW TORQUING BY ONLY ONE JOB AT A TIME.
000466:
000467: 07,3307           00006        GYROBUSY           EXTEND                                         #  SAVE RETURN 2FCADR.
000468: 07,3310           30134                           DCA      BUF2
000469: 07,3311           52155                           DXCH     MPAC
000470: 07,3312           33323        REGSLEEP           CAF      LGWAKE
000471: 07,3313           15163                           TCF      JOBSLEEP
000472:
000473: 07,3314           11324        GWAKE              CCS      LGYRO                                 #  WHEN AWAKENED, SEE IF GYROS STILL BUSY.
000474: 07,3315           13312                           TCF      REGSLEEP                              #  IF SO, SLEEP SOME MORE.
000475:
000476: 07,3316           00006                           EXTEND
000477: 07,3317           30155                           DCA      MPAC
000478: 07,3320           52134                           DXCH     BUF2                                  #  RESTORE SWRETURN INFO.
000479: 07,3321           34770                           CAF      ONE
000480: 07,3322           13254                           TCF      GWAKE2
000481:
000482: 07,3323           17314        LGWAKE             CADR     GWAKE
000483:


000485:
000486:                                                                                                  #  GYRO-TORQUING WAITLIST TASKS.
000487:
000488: 07,3324           43560        STRTGYRO           CS       GDESELCT                              #  DE-SELECT LAST GYRO.
000489: 07,3325           00006                           EXTEND
000490: 07,3326           03014                           WAND     CHAN14
000491:
000492: 07,3327           03575                           TC       CAGETSTG
000493:


000495: 07,3330           31324        STRTGYR2           CA       LGYRO                                 #  JUMP ON PHASE COUNTER IN BITS 13-14.
000496: 07,3331           00006                           EXTEND
000497: 07,3332           74765                           MP       BIT4
000498: 07,3333           50000                           INDEX    A
000499: 07,3334           13335                           TCF      +1
000500: 07,3335           03352                           TC       GSELECT                               #  =0. DO Y GYRO.
000501: 07,3336           00202                           OCT      00202
000502:
000503: 07,3337           03352                           TC       GSELECT                               #  =1. DO Z GYRO.
000504: 07,3340           00302                           OCT      00302
000505:
000506: 07,3341           03350                           TC       GSELECT    -2                         #  =2. DO X GYRO.
000507: 07,3342           00100                           OCT      00100
000508:
000509: 07,3343           34772                           CAF      ZERO                                  #  =3. DONE
000510: 07,3344           55324                           TS       LGYRO
000511: 07,3345           33323                           CAF      LGWAKE                                #  WAKE A POSSIBLE SLEEPING JOB.
000512: 07,3346           05167                           TC       JOBWAKE
000513:
000514: 07,3347           13153        NORESET            TCF      IMUFINED                              #  DO NOT RESET POWER SUPPLY
000515:


000517:


000519: 07,3350           44766                 -2        CS       FOUR                                  #  SPECIAL ENTRY TO REGRESS LGYRO FOR X.
000520: 07,3351           27324                           ADS      LGYRO
000521:
000522: 07,3352           50002        GSELECT            INDEX    Q                                     #  SELECT GYRO.
000523: 07,3353           30000                           CAF      0                                     #  PACKED WORD CONTAINS GYRO SELECT BITS
000524: 07,3354           54064                           TS       ITEMP4                                #  AND INCREMENT TO LGYRO.
000525: 07,3355           74774                           MASK     SEVEN
000526: 07,3356           64754                           AD       BIT13
000527: 07,3357           27324                           ADS      LGYRO
000528: 07,3360           54003                           TS       EBANK
000529: 07,3361           74350                           MASK     LOW8
000530: 07,3362           54061                           TS       ITEMP1
000531:
000532: 07,3363           44774                           CS       SEVEN
000533: 07,3364           70064                           MASK     ITEMP4
000534: 07,3365           54064                           TS       ITEMP4
000535:
000536: 07,3366           00006                           EXTEND                                         #  MOVE DP COMMAND TO RUPTREGS FOR TESTING.
000537: 07,3367           50061                           INDEX    ITEMP1
000538: 07,3370           31401                           DCA      1400
000539: 07,3371           52071                           DXCH     RUPTREG1
000540:
000541: 07,3372           10070                           CCS      RUPTREG1
000542: 07,3373           13406                           TCF      MAJ+
000543: 07,3374           13376                           TCF      +2
000544: 07,3375           13541                           TCF      MAJ-
000545:
000546: 07,3376           10071                           CCS      RUPTREG2
000547: 07,3377           13403                           TCF      MIN+
000548: 07,3400           13330                           TCF      STRTGYR2
000549: 07,3401           13536                           TCF      MIN-
000550: 07,3402           13330                           TCF      STRTGYR2
000551:


000553:
000554: 07,3403           63437        MIN+               AD       -GYROMIN                              #  SMALL POSITIVE COMMAND. SEE IF AT LEAST
000555: 07,3404           00006                           EXTEND                                         #  16 GYRO PULSES.
000556: 07,3405           63330                           BZMF     STRTGYR2
000557:
000558: 07,3406           00006        MAJ+               EXTEND                                         #  DEFINITE POSITIVE OUTPUT.
000559: 07,3407           33562                           DCA      GYROFRAC
000560: 07,3410           20071                           DAS      RUPTREG1
000561:
000562: 07,3411           30064                           CA       ITEMP4                                #  SELECT POSITIVE TORQUING FOR THIS GYRO.
000563: 07,3412           00006                           EXTEND
000564: 07,3413           05014                           WOR      CHAN14
000565:
000566: 07,3414           36043                           CAF      LOW7                                  #  LEAVE NUMBER OF POSSIBLE 8192 AUGMENTS
000567: 07,3415           70071                           MASK     RUPTREG2                              #  TO INITIAL COMMAND IN MAJOR PART OF LONG
000568: 07,3416           56071                           XCH      RUPTREG2                              #  TERM STORAGE AND TRUNCATED FRACTION
000569: 07,3417           00006        GMERGE             EXTEND                                         #  IN MINOR PART. THE MAJOR PART WILL BE
000570: 07,3420           74761                           MP       BIT8                                  #  COUNTED DOWN TO ZERO IN THE COURSE OF
000571: 07,3421           54062                           TS       ITEMP2                                #  PUTTING OUT THE ENTIRE COMMAND.
000572: 07,3422           30070                           CA       RUPTREG1
000573: 07,3423           00006                           EXTEND
000574: 07,3424           74760                           MP       BIT9
000575: 07,3425           54070                           TS       RUPTREG1
000576: 07,3426           30001                           CA       L
000577: 07,3427           00006                           EXTEND
000578: 07,3430           74753                           MP       BIT14
000579: 07,3431           26062                           ADS      ITEMP2                                #  INITIAL COMMAND.
000580:
000581: 07,3432           00006                           EXTEND                                         #  SEE IF MORE THAN ONE PULSE TRAIN NEEDED
000582: 07,3433           30071                           DCA      RUPTREG1                              #  (MORE THAN 16383 PULSES).
000583: 07,3434           67702                           AD       MINUS1
000584: 07,3435           10000                           CCS      A
000585: 07,3436           13503                           TCF      LONGGYRO
000586: 07,3437           77601        -GYROMIN           OCT      -176                                  #  MAY BE ADJUSTED TO SPECIFY MINIMUM CMD
000587: 07,3440           13444                           TCF      +4
000588:
000589: 07,3441           34753                           CAF      BIT14
000590: 07,3442           26062                           ADS      ITEMP2
000591: 07,3443           34772                           CAF      ZERO
000592:
000593: 07,3444           50061                 +4        INDEX    ITEMP1
000594: 07,3445           53401                           DXCH     1400
000595:


000597:
000598: 07,3446           30062                           CA       ITEMP2                                #  ENTIRE COMMAND.
000599: 07,3447           54047        LASTSEG            TS       GYROCMD
000600: 07,3450           03570                 +1        TC       COARSTST
000601:
000602: 07,3451           30047                           CA       GYROCMD
000603: 07,3452           00006                           EXTEND
000604: 07,3453           74757                           MP       BIT10                                 #  WAITLIST DT
000605: 07,3454           66214                           AD       THREE                                 #  TRUNCATION AND PHASE UNCERTAINTIES.
000606: 07,3455           05223                           TC       TWIDDLE
000607: 07,3456           03467                           ADRES    TWOPULSE
000608: 07,3457           03463        EXITGYRO           TC       GYROEXIT
000609: 07,3460           15314                           TCF      TASKOVER
000610: 07,3461           34767        OUTPULSE           CA       BIT2
000611: 07,3462           54047                           TS       GYROCMD
000612: 07,3463           34757        GYROEXIT           CAF      BIT10
000613: 07,3464           00006                           EXTEND
000614: 07,3465           05014                           WOR      CHAN14
000615: 07,3466           00002                           TC       Q
000616: 07,3467           44760        TWOPULSE           CS       BIT9
000617: 07,3470           00006                           EXTEND
000618: 07,3471           03014                           WAND     CHAN14
000619: 07,3472           03461                           TC       OUTPULSE
000620: 07,3473           34770                           CA       BIT1
000621: 07,3474           05223                           TC       TWIDDLE
000622: 07,3475           03324                           ADRES    STRTGYRO
000623: 07,3476           34760                           CA       BIT9
000624: 07,3477           00006                           EXTEND
000625: 07,3500           05014                           WOR      CHAN14
000626: 07,3501           03461                           TC       OUTPULSE
000627: 07,3502           15314                           TCF      TASKOVER
000628: 07,3503           50061        LONGGYRO           INDEX    ITEMP1
000629: 07,3504           53401                           DXCH     1400                                  #  INITIAL COMMAND OUT PLUS N AUGMENTS OF


000631: 07,3505           34753                           CAF      BIT14                                 #  8192. INITIAL COMMAND IS AT LEAST 8192.
000632: 07,3506           60062                           AD       ITEMP2
000633: 07,3507           54047                           TS       GYROCMD
000634:
000635: 07,3510           00006        AUG3               EXTEND                                         #  GET WAITLIST DT TO TIME WHEN TRAIN IS
000636: 07,3511           74757                           MP       BIT10                                 #  ALMOST OUT.
000637: 07,3512           67700                           AD       NEG3
000638: 07,3513           05223                           TC       TWIDDLE
000639: 07,3514           03516                           ADRES    8192AUG
000640: 07,3515           13457                           TCF      EXITGYRO
000641:
000642: 07,3516           03570        8192AUG            TC       COARSTST
000643:
000644: 07,3517           31324                           CA       LGYRO                                 #  ADD 8192 PULSES TO GYROCMD
000645: 07,3520           54003                           TS       EBANK
000646: 07,3521           74350                           MASK     LOW8
000647: 07,3522           54061                           TS       ITEMP1


000649: 07,3523           50061                           INDEX    ITEMP1                                #  SEE IF THIS IS THE LAST AUG.
000650: 07,3524           11400                           CCS      1400
000651: 07,3525           13531                           TCF      AUG2                                  #  MORE TO COME.
000652:
000653: 07,3526           34753                           CAF      BIT14
000654: 07,3527           26047                           ADS      GYROCMD
000655: 07,3530           13450                           TCF      LASTSEG    +1
000656:
000657: 07,3531           50061        AUG2               INDEX    ITEMP1
000658: 07,3532           55400                           TS       1400
000659: 07,3533           34753                           CAF      BIT14
000660: 07,3534           26047                           ADS      GYROCMD
000661: 07,3535           13510                           TCF      AUG3                                  #  COMPUTE DT.
000662:


000664:
000665: 07,3536           63437        MIN-               AD       -GYROMIN                              #  POSSIBLE NEGATIVE OUTPUT.
000666: 07,3537           00006                           EXTEND
000667: 07,3540           63330                           BZMF     STRTGYR2
000668:
000669: 07,3541           00006        MAJ-               EXTEND                                         #  DEFINITE NEGATIVE OUTPUT.
000670: 07,3542           43562                           DCS      GYROFRAC
000671: 07,3543           20071                           DAS      RUPTREG1
000672:
000673: 07,3544           30064                           CA       ITEMP4                                #  SELECT NEGATIVE TORQUING FOR THIS GYRO.
000674: 07,3545           64760                           AD       BIT9
000675: 07,3546           00006                           EXTEND
000676: 07,3547           05014                           WOR      CHAN14
000677:
000678: 07,3550           40070                           CS       RUPTREG1                              #  SET UP RUPTREGS TO FALL INTO GMERGE.
000679: 07,3551           54070                           TS       RUPTREG1                              #  ALL NUMBERS PUT INTO GYROCMD ARE
000680: 07,3552           40071                           CS       RUPTREG2                              #  POSITIVE - BIT9 OF CHAN 14 DETERMINES
000681: 07,3553           76043                           MASK     LOW7                                  #  THE SIGN OF THE COMMAND.
000682: 07,3554           40000                           COM
000683: 07,3555           56071                           XCH      RUPTREG2
000684: 07,3556           40000                           COM
000685: 07,3557           13417                           TCF      GMERGE
000686:
000687: 07,3560           01700        GDESELCT           OCT      1700                                  #  TURN OFF SELECT AND ACTIVITY BITS.
000688:
000689: 07,3561           00000 00034  GYROFRAC           2DEC     .215       B-21
000690:


000692:
000693:                                                                                                  #  IMU MODE SWITCHING ROUTINES COME HERE WHEN ACTION COMPLETE.
000694:
000695: 07,3563           00006        ENDIMU             EXTEND                                         #  MODE IS BAD IF CAGE HAS OCCURED OR IF
000696: 07,3564           00011                           READ     DSALMOUT                              #  ISS WARNING IS ON.
000697: 07,3565           74770                           MASK     BIT1
000698: 07,3566           67702                           AD       NEG1
000699: 07,3567           13626                           TCF      BADEND     +1
000700: 07,3570           34765        COARSTST           CAF      BIT4
000701: 07,3571           00006                           EXTEND
000702: 07,3572           02012                           RAND     CHAN12
000703: 07,3573           10000                           CCS      A
000704: 07,3574           13601                           TCF      DONTPULS
000705:
000706: 07,3575           41333        CAGETSTG           CS       IMODES30
000707: 07,3576           74763                           MASK     IMUNITBT
000708: 07,3577           10000                           CCS      A
000709: 07,3600           00002                           TC       Q
000710:
000711: 07,3601           34772        DONTPULS           CAF      ZERO
000712: 07,3602           55324                           TS       LGYRO
000713:
000714: 07,3603           33323                           CAF      LGWAKE
000715: 07,3604           05167                           TC       JOBWAKE
000716:
000717: 07,3605           13625                           TCF      IMUBAD
000718: 07,3606           34763        CAGETEST           CAF      IMUNITBT                              #  SUBROUTINE TO TERMINATE IMU MODE
000719: 07,3607           71333                           MASK     IMODES30                              #  SWITCH IF IMU HAS BEEN CAGED.
000720: 07,3610           10000                           CCS      A
000721: 07,3611           13625                           TCF      IMUBAD                                #  DIRECTLY.
000722: 07,3612           00002                           TC       Q                                     #  WITH C(A) = +0.
000723:
000724: 07,3613           41333        CAGETSTQ           CS       IMODES30                              #  SKIP IF IMU NOT BEING CAGED.
000725: 07,3614           74763                           MASK     IMUNITBT
000726: 07,3615           15651                           TCF      INCRQCK
000727: 07,3616           41333        CAGETSTJ           CS       IMODES30                              #  IF DURING MODE SWITCH INITIALIZATION
000728: 07,3617           74763                           MASK     IMUNITBT                              #  IT IS FOUND THAT THE IMU IS BEING CAGED,
000729: 07,3620           10000                           CCS      A                                     #  SET IMUCADR TO -0 TO INDICATE OPERATION
000730: 07,3621           00002                           TC       Q                                     #  COMPLETE BUT FAILED. RETURN IMMEDIATELY
000731:
000732: 07,3622           44772                 +4        CS       ZERO                                  #  TO SWRETURN
000733: 07,3623           55335                           TS       IMUCADR
000734: 07,3624           12675                           TCF      MODEEXIT
000735:
000736: 07,3625  07,3625               IMUBAD             EQUALS   BADEND
000737:


000739:
000740:                                                                                                  #           GENERALIZED MODE SWITCHING TERMINATION. ENTER AT GOODEND FOR SUCCESSFUL COMPLETION OF AN I/O OPERATION
000741:                                                                                                  #  OR AT BADEND FOR AN UNSUCCESSFUL ONE.
000742:
000743: 07,3625           44772        BADEND             CS       ZERO                                  #  FOR FAILURE.
000744: 07,3626           54072                 +1        TS       RUPTREG3                              #  -0 FAILURE -1 SUCCESS
000745: 07,3627           11335                           CCS      MODECADR
000746: 07,3630           13632                           TCF      +2                                    #  YES - WAKE IT UP.
000747: 07,3631           13641                           TCF      ENDMODE                               #  IF 0, PROGRAM NOT IN YET.
000748:
000749: 07,3632           34772                           CAF      ZERO                                  #  WAKE SLEEPING PROGRAM.
000750: 07,3633           57335                           XCH      MODECADR
000751: 07,3634           05167                           TC       JOBWAKE
000752:
000753: 07,3635           40072                           CS       RUPTREG3                              #  ADVANCE LOC IF SUCCESSFUL.
000754: 07,3636           50064                           INDEX    LOCCTR
000755: 07,3637           26164                           ADS      LOC
000756:
000757: 07,3640           15314                           TCF      TASKOVER
000758:
000759: 07,3641           30072        ENDMODE            CA       RUPTREG3                              #  -0 INDICATES OPERATION COMPLETE BUT
000760: 07,3642           55335                           TS       MODECADR                              #  SUCCESSFUL.
000761: 07,3643           15314                           TCF      TASKOVER
000762:


000764:
000765:                                                                                                  #  GENERAL STALLING ROUTINE. USING PROGRAMS COME HERE TO WAIT FOR I/O COMPLETION.
000766:
000767:                                                                                                  #  PROGRAM DESCRIPTION                                           DATE- 21 FEB 1967
000768:                                                                                                  #                                                   LOG SECTION IMU MODE SWITCHING
000769:                                                                                                  #  MOD BY- R.MELANSON TO ADD DOCUMENTATION                ASSEMBLY SUNDISK REV. 82
000770:
000771:                                                                                                  #  FUNCTIONAL DESCRIPTION-
000772:                                                                                                  #        TO DELAY FURTHER EXECUTION OF THE CALLING ROUTINE UNTIL ITS SELECTED
000773:                                                                                                  #        I/O FUNCTION IS COMPLETE. THE FOLLOWING CHECKS ON THE CALLING ROUTINE:S
000774:                                                                                                  #        MODECADR ARE MADE AND ACTED UPON.
000775:                                                                                                  #        1) +0 INDICATES INCOMPLETE I/O OPERATION. CALLING ROUTINE IS PUT TO
000776:                                                                                                  #           SLEEP.
000777:                                                                                                  #        2) -1 INDICATES COMPLETED I/O OPERATION. STALL BYPASSES JOBSLEEP
000778:                                                                                                  #           CALL AND RETURNS TO CALLING ROUTINE AT L+3
000779:                                                                                                  #        3) -0 INDICATES COMPLETED I/O WITH FAILURE. STALL CLEARS MODECADR
000780:                                                                                                  #           AND RETURNS TO CALLING ROUTINE AT L+2.
000781:                                                                                                  #        4) VALUE GREATER THAN 0 INDICATES TWO ROUTINES CALLING FOR USE OF
000782:                                                                                                  #           SAME DEVICE. STALL EXITS TO ABORT WHICH EXECUTES A PROGRAM
000783:                                                                                                  #           RESTART WHICH IN TURN CLEARS ALL MODECADR REGISTERS.
000784:
000785:                                                                                                  #  CALLING SEQUENCE-
000786:                                                                                                  #        L       TC      BANKCALL
000787:                                                                                                  #        L+1     CADR    IMUSTALL
000788:
000789:                                                                                                  #  NORMAL-EXIT MODE-
000790:                                                                                                  #        TCF JOBSLEEP    OR      TCF MODEXIT
000791:
000792:                                                                                                  #  ALARM OR ABORT EXIT MODE-
000793:                                                                                                  #        POODOO  21210
000794:
000795:                                                                                                  #  OUTPUT-
000796:                                                                                                  #        MODECADR= CADR  IF JOBSLEEP
000797:                                                                                                  #        MODECADR=+0     IF I/O COMPLETE
000798:                                                                                                  #        BUF2=L+3        IF I/O COMPLETE AND GOOD.
000799:                                                                                                  #        BUF2=L+2        IF I/O COMPLETE BUT FAILED.
000800:
000801:                                                                                                  #  ERASABLE INITIALIZATION-
000802:                                                                                                  #        BUF2 CONTAINS RETURN ADDRESS PLUS 1,(L+2)
000803:                                                                                                  #        BUF2+1 CONTAINS FBANK VALUE OF CALLING ROUTINE.
000804:                                                                                                  #        MODECADR CONTAINS +0, -1, -0 OR CADR RETURN ADDRESS.
000805:
000806:
000807: 07,3644           11335        IMUSTALL           CCS      MODECADR
000808: 07,3645           13661                           TCF      MODABORT                              #  ALLOWABLE STATES ARE +0, -1, AND -0.
000809: 07,3646           13656                           TCF      MODESLP                               #  OPERATION INCOMPLETE.
000810: 07,3647           13652                           TCF      MODEGOOD                              #  COMPLETE AND GOOD IF = -1.
000811:
000812: 07,3650           55335        MG2                TS       MODECADR                              #  COMPLETE AND FAILED IF -0. RESET TO +0.
000813: 07,3651           12675                           TCF      MODEEXIT                              #  RETURN TO CALLER.


000815: 07,3652           10000        MODEGOOD           CCS      A                                     #  MAKE SURE INITIAL STATE -1.
000816: 07,3653           13661                           TCF      MODABORT
000817:
000818: 07,3654           24133                           INCR     BUF2                                  #  IF SO, INCREMENT RETURN ADDRESS AND


000820: 07,3655           13650                           TCF      MG2                                   #  RETURN IMMEDIATELY, SETTING CADR = +0.
000821:
000822: 07,3656           04665        MODESLP            TC       MAKECADR                              #  CALL FROM SWITCHABLE FIXED ONLY.
000823: 07,3657           55335                           TS       MODECADR
000824: 07,3660           15163                           TCF      JOBSLEEP
000825:
000826: 07,3661           05726        MODABORT           TC       POODOO                                #  TWO PROGRAMS USING SAME DEVICE.
000827: 07,3662           21210                           OCT      21210
000828:


000830:
000831:                                                                                                  #  CONSTANTS FOR MODE SWITCHING ROUTINES
000832:
000833: 07,3663     5775               BITS3&4            =        OCT14
000834: 07,3663     5004               BITS4&6            =        OCT50
000835: 07,3663     5001               BITS4-5            EQUALS   BITS4&5
000836: 07,3663     4761               IMUSEFLG           EQUALS   BIT8                                  #  INTERPRETER SWITCH 7.
000837: 07,3663           77500        -COMMAX            DEC      -191       B-14
000838: 07,3664           77477        -COMMAX-           DEC      -192       B-14
000839: 07,3665           00074        600MS              DEC      60         B-14
000840: 07,3666  07,3133               IMUFIN20           =        IMUFINE
000841:


000843:
000844:                                                                                                  #  PROGRAM DESCRIPTION
000845:                                                                                                  #  IMU STATUS CHECK ROUTINE R02  (SUBROUTINE UTILITY)
000846:                                                                                                  #  MOD NO - 1
000847:                                                                                                  #  MOD BY - N.BRODEUR
000848:
000849:                                                                                                  #  FUNCTIONAL DESCRIPTION
000850:                                                                                                  #  TO CHECK WHETHER IMU IS ON AND IF ON WHETHER IT IS ALIGNED TO AN
000851:                                                                                                  #  ORIENTATION KNOWN BY THE CMC. TO REQUEST SELECTION OF THE APPROPRIATE
000852:                                                                                                  #  PROGRAM IF THE IMU IS OFF OR NOT ALIGNED TO AN ORIENTATION KNOWN BY THE
000853:                                                                                                  #  CMC. CALLED THROUGH BANKCALL
000854:
000855:                                                                                                  #  CALLING SEQUENCE-
000856:                                                                                                  #        L       TC      BANKCALL
000857:                                                                                                  #        L+1     CADR    R02BOTH
000858:
000859:                                                                                                  #  SUBROUTINES CALLED
000860:                                                                                                  #        VARALARM
000861:                                                                                                  #        FLAGUP
000862:
000863:                                                                                                  #  NORMAL EXIT MODES
000864:                                                                                                  #        AT L+2 OF CALLING SEQUENCE
000865:
000866:                                                                                                  #  ALARM OR ABORT EXIT MODES
000867:                                                                                                  #        GOTOPOOH, WITH ALARM
000868:
000869:                                                                                                  #  ERASABLE INITIALIZATION REQUIRED
000870:                                                                                                  #        NONE
000871:
000872:                                                                                                  #  DEBRIS
000873:                                                                                                  #        CENTRALS - A,Q,L
000874:
000875: 01,2000                                           SETLOC   R02
000876: 01,2000                                           BANK
000877: 01,3731                                           COUNT*   $$/R02
000878: 01,3731           34754        R02BOTH            CAF      REFSMBIT
000879: 01,3732           70077                           MASK     FLAGWRD3
000880: 01,3733           10000                           CCS      A
000881: 01,3734           03745                           TC       R02ZERO                               #  ZERO IMUS
000882:
000883: 01,3735           31333                           CA       IMODES30
000884: 01,3736           74760                           MASK     IMUOPBIT                              #  IS ISS INITIALIZED
000885: 01,3737           00006                           EXTEND
000886: 01,3740           13742                           BZF      +2
000887: 01,3741           44765                           CS       BIT4                                  #  SEND IMU ALARM CODE 210
000888: 01,3742           63750                           AD       OCT220                                #  SEND REFSMM ALARM
000889: 01,3743           05770                           TC       VARALARM
000890:
000891: 01,3744           04103                           TC       GOTOPOOH
000892: 01,3745           05547        R02ZERO            TC       UPFLAG
000893: 01,3746           00007                           ADRES    IMUSE
000894: 01,3747           14651                           TCF      SWRETURN
000895: 01,3750           00220        OCT220             OCT      220
000896:


000898:
000899:                                                                                                  #  PROGRAM DESCRIPTION   P06     10FEB67
000900:
000901:                                                                                                  #  TRANSFER THE ISS/CMC FROM THE OPERATE TO THE STANDBY CONDITION.
000902:
000903:                                                                                                  #  THE NORMAL CONDITION OF READINESS OF THE GNCS WHEN NOT IN USE IS STANDBY. IN THIS CONDITION THE IMU
000904:                                                                                                  #  HEATER POWER IS ON. THE IMU OPERATE POWER IS OFF. THE COMPUTER POWER IS ON. THE OPTICS POWER IS OFF. THE
000905:                                                                                                  #  CMC STANDBY ON THE MAIN AND LEB DISKYS IS ON.
000906:
000907:                                                                                                  #  CALLING SEQUENCE:
000908:                                                                                                  #        ASTRONAUT REQUEST THROUGH DSKY  V37E 06E.
000909:
000910:                                                                                                  #  SUBROUTINES CALLED:
000911:                                                                                                  #        GOPERF1
000912:                                                                                                  #        BANKCALL
000913:                                                                                                  #        FLAGDOWN
000914:


000916:                                                                                                  #  PRESTAND PREPARES FOR STANDBY BY SNAPSHOTTING THE SCALER AND TIME1 TIME2
000917:                                                                                                  #  THE LOW 5 BITS OF THE SCALER ARE INSPECTED TO INSURE COMPATABILITY
000918:                                                                                                  #  BETWEEN THE SCALER READING AND THE TIME1 TIME2 READING.
000919:
000920: 26,2000                                           SETLOC   P05P06
000921: 26,2000                                           BANK
000922:
000923: 26,3654     1006                                  EBANK=   TIME2SAV
000924: 26,3654                                           COUNT*   $$/P06
000925:
000926: 26,3654           05547        P06                TC       UPFLAG                                #  SET NODOV37 BIT
000927: 26,3655           00054                           ADRES    NODOFLAG
000928:
000929: 26,3656           00004        PRESTAND           INHINT
000930: 26,3657           00006                           EXTEND
000931: 26,3660           30025                           DCA      TIME2                                 #  SNAPSHOT TIME1 TIME2
000932: 26,3661           53007                           DXCH     TIME2SAV
000933: 26,3662           03715                           TC       SCALPREP
000934: 26,3663           03656                           TC       PRESTAND                              #  T1,T2,SCALER NOT COMPATIBLE
000935: 26,3664           52155                           DXCH     MPAC                                  #  T1,T2 AND SCALER OK
000936: 26,3665           53011                           DXCH     SCALSAVE                              #  STORE SCALER
000937: 26,3666           00004                           INHINT
000938: 26,3667           04636                           TC       BANKCALL
000939: 26,3670           17121                           CADR     RNDREFDR                              #  REFSMM, DRIFT, TRACK FLAGS DOWN
000940:
000941: 26,3671           05561                           TC       DOWNFLAG
000942: 26,3672           00007                           ADRES    IMUSE                                 #  IMUSE DOWN
000943: 26,3673           05561                           TC       DOWNFLAG
000944: 26,3674           00010                           ADRES    RNDVZFLG                              #  RNDVZFLG DOWN
000945:
000946: 26,3675           05561                           TC       DOWNFLAG
000947: 26,3676           00176                           ADRES    UTFLAG
000948: 26,3677           34756                           CAF      BIT11
000949: 26,3700           00006                           EXTEND
000950: 26,3701           05013                           WOR      CHAN13                                #  SET STANDBY ENABLE BIT
000951:
000952: 26,3702           05402                           TC       PHASCHNG                              #  SET RESTART TO POSTAND WHEN STANDBY
000953: 26,3703           07024                           OCT      07024                                 #        RECOVERS
000954: 26,3704           20000                           OCT      20000
000955: 26,3705     1010                                  EBANK=   SCALSAVE
000956: 26,3705           03735 54062                     2CADR    POSTAND
000957:
000958: 26,3707           35011                           CAF      OCT62
000959: 26,3710           04636                           TC       BANKCALL
000960: 26,3711           21067                           CADR     GOPERF1
000961: 26,3712           13707                           TCF      -3
000962: 26,3713           13707                           TCF      -4
000963: 26,3714           13707                           TCF      -5
000964:
000965: 26,3715     5011               OCT62              EQUALS   .5SEC                                 #  DEC 50 = OCT 62
000966:


000968:                                                                                                  #  THE LOW 5 BITS OF THE SCALER READS 10000 FOR THE FIRST INTERVAL AFTER A
000969:                                                                                                  #  T1 INCREMENT. IF SCALPREP DETECTS THIS INTERVAL THE T1,T2 AND SCALER
000970:                                                                                                  #  DATA ARE NOT COMPATABLE AND RETURN IS TO L+1 FOR ANOTHER READING OF THE
000971:                                                                                                  #  DATA. OTHERWISE, THE RETURN IS TO L+2 TO PROCEED. ROUTINE ALSO PREPARES
000972:                                                                                                  #  THE SCALER READING FOR COMPUTATION OF THE INCREMENT TO UPDATE T1T2. (THE
000973:                                                                                                  #  10 MS BIT (BIT 6) OF THE SCALER IS INCREMENTED 5 MS OUT OF PHASE FROM
000974:                                                                                                  #  T1.) ADDITION OF 5 MS (BIT 5) TO THE SCALER READING HAS THE EFFECT OF
000975:                                                                                                  #  ADJUSTING BIT 6 IN THE SCALER TO BE IN PHASE WITH BIT 1 OF T1. THE LOW 5
000976:                                                                                                  #  BITS OF THE SCALER READING ARE THEN SET TO ZERO, TO TRUNCATE THE SCALER
000977:                                                                                                  #  DATA TO 10 MS. RESULTS ARE STORED IN MPAC, +1.
000978:
000979: 26,3715           00006        SCALPREP           EXTEND
000980: 26,3716           22156                           QXCH     MPAC       +2
000981: 26,3717           04511                           TC       FINETIME   +1
000982: 26,3720           00003                           RELINT
000983: 26,3721           52155                           DXCH     MPAC


000985: 26,3722           34764                           CA       BIT5                                  #  ADD 5 MS TO THE SCALER READING.
000986: 26,3723           54001                           TS       L
000987: 26,3724           34772                           CA       ZERO
000988: 26,3725           20155                           DAS      MPAC
000989: 26,3726           44342                           CS       LOW5                                  #  SET LOW 5 BITS OF (SCALER+5MS) TO ZERO
000990: 26,3727           70155                           MASK     MPAC       +1                         #  AND STORE RESULTS IN MPAC,+1.
000991: 26,3730           56155                           XCH      MPAC       +1
000992: 26,3731           74342                           MASK     LOW5                                  #  TEST LOW 5 BITS OF SCALER FOR THE FIRST
000993:                                                                                                  #  INTERVAL AFTER THE T1 INCREMENT
000994:                                                                                                  #  (NOW = 00000, SINCE BIT 5 ADDED).
000995: 26,3732           10000                           CCS      A                                     #  IS IT 1ST INTERVAL AFTER T1 INCREMENT
000996: 26,3733           24156                           INCR     MPAC       +2                         #  NO
000997: 26,3734           00156                           TC       MPAC       +2                         #  YES
000998:
000999:                                                                                                  #  POSTAND RECOVERS TIME AFTER STANDBY. THE SCALER IS SNAPSHOTTED AND THE
001000:                                                                                                  #  TIME1 TIME2 COUNTER IS SET TO ZERO. THE LOW 5 BITS OF THE SCALER ARE
001001:                                                                                                  #  INSPECTED TO INSURE COMPATABILITY BETWEEN THE SCALER READING AND THE
001002:                                                                                                  #  CLEARING OF THE TIME COUNTER. IT THEN COMPUTES THE DIFFERENCE IN SCALER
001003:                                                                                                  #  VALUES (IN DP) AND ADDS THIS TO THE PREVIOUSLY SNAPSHOTTED VALUES OF
001004:                                                                                                  #  TIME1 TIME2 AND PLACES THIS NEW TIME INTO THE TIME1 TIME2 COUNTER.
001005:
001006: 26,3735                                           COUNT*   $$/P05
001007:
001008: 26,3735           44756        POSTAND            CS       BIT11                                 #  RECOVER TIME AFTER STANDBY.
001009: 26,3736           00006                           EXTEND
001010: 26,3737           03013                           WAND     CHAN13                                #  CLEAR STANDBY ENABLE BIT
001011: 26,3740           00004                 +3        INHINT
001012: 26,3741           34772                           CA       ZERO
001013: 26,3742           54001                           TS       L
001014: 26,3743           52025                           DXCH     TIME2                                 #  CLEAR TIME1 TIME2
001015: 26,3744           03715                           TC       SCALPREP                              #  STORE SCALER IN MPAC, MPAC+1
001016: 26,3745           03740                           TC       POSTAND    +3                         #  T1,T2,SCALER NOT COMPATIBLE
001017: 26,3746           00006                           EXTEND                                         #  T1,T2 AND SCALER OK
001018: 26,3747           41011                           DCS      SCALSAVE


001020: 26,3750           20155                           DAS      MPAC                                  #  FORM DP DIFFERENCE OF POSTSTANDBY SCALER
001021: 26,3751           34757                           CAF      BIT10                                 #  MINUS PRESTANDBY SCALER AND SHIFT RIGHT
001022: 26,3752           07256                           TC       SHORTMP                               #  5 TO ALIGN BITS WITH TIME1 TIME2.
001023: 26,3753           07224                           TC       DPAGREE
001024: 26,3754           10154                           CCS      MPAC
001025: 26,3755           03762                           TC       POSTCOM                               #  IF DP DIFF NET +, NO SCALER OVERFLOW
001026: 26,3756           03762                           TC       POSTCOM                               #  BETWEEN PRE AND POST STANDBY.
001027: 26,3757           03760                           TC       +1                                    #  IF DP DIFF NET -, SCALER OVERFLOWED. ADD
001028: 26,3760           34757                           CAF      BIT10                                 #  BIT 10 TO HIGH DIFF TO CORRECT.
001029: 26,3761           26154                           ADS      MPAC
001030: 26,3762           00006        POSTCOM            EXTEND                                         #  C(MPAC,+1) IS MAGNITUDE OF DELTA SCALER.
001031: 26,3763           31007                           DCA      TIME2SAV                              #  PRESTANDBY TIME1 TIME2
001032: 26,3764           20155                           DAS      MPAC
001033: 26,3765           07226                           TC       TPAGREE                               #  FORCE SIGN AGREEMENT
001034: 26,3766           52155                           DXCH     MPAC                                  #  UPDATED VALUE FOR T1,T2.
001035: 26,3767           20025                           DAS      TIME2                                 #  LOAD UPDATED VALUE INTO T1,T2, WITH
001036: 26,3770           05561                           TC       DOWNFLAG                              #  CLEAR NODOFLAG
001037: 26,3771           00054                           ADRES    NODOFLAG
001038:
001039: 26,3772           04103        TCGOPOOH           TC       GOTOPOOH

End of include-file IMU_MODE_SWITCHING_ROUTINES.agc.  Parent file is MAIN.agc


