
Source Code


000002:                                                                                                  ## Copyright:   Public domain.
000003:                                                                                                  ## Filename:    INTERPRETIVE_CONSTANTS.agc
000004:                                                                                                  ## Purpose:     A section of Artemis revision 071.
000005:                                                                                                  ##              It is part of the reconstructed source code for the first
000006:                                                                                                  ##              release of the flight software for the Command Module's
000007:                                                                                                  ##              (CM) Apollo Guidance Computer (AGC) for Apollo 15 through
000008:                                                                                                  ##              17. The code has been recreated from a copy of Artemis 072.
000009:                                                                                                  ##              It has been adapted such that the resulting bugger words
000010:                                                                                                  ##              exactly match those specified for Artemis 071 in NASA
000011:                                                                                                  ##              drawing 2021154-, which gives relatively high confidence
000012:                                                                                                  ##              that the reconstruction is correct.
000013:                                                                                                  ## Reference:   1205
000014:                                                                                                  ## Assembler:   yaYUL
000015:                                                                                                  ## Contact:     Ron Burkey <info@sandroid.org>.
000016:                                                                                                  ## Website:     www.ibiblio.org/apollo/index.html
000017:                                                                                                  ## Mod history: 2019-08-14 MAS  Created from Artemis 072.
000018:


000020: 26,2000                                           SETLOC   INTPRET1
000021: 26,2000                                           BANK
000022:
000023: 26,3325                                           COUNT*   $$/ICONS
000024: 26,3325           10000 00000  DP1/4TH            2DEC     .25
000025: 26,3327           00000 00000  UNITZ              2DEC     0          B-28
000026: 26,3331           00000 00000  UNITY              2DEC     0          B-28
000027: 26,3333           20000 00000  UNITX              2DEC     .5
000028: 26,3335           00000 00000  ZEROVECS           2DEC     0          B-28
000029: 26,3337           00000 00000                     2DEC     0          B-28
000030: 26,3341           00000 00000                     2DEC     0          B-28
000031: 26,3343  26,3333               DPHALF             =        UNITX
000032: 26,3343           37777        DPPOSMAX           OCT      37777
000033: 26,3344           37777                           OCT      37777
000034:


000036:
000037:                                                                                                  #  INTERPRETIVE CONSTANTS IN THE OTHER HALF-MEMORY
000038:
000039: 04,2000                                           SETLOC   INTPRET2
000040: 04,2000                                           BANK
000041:
000042: 04,3753                                           COUNT*   $$/ICONS
000043: 04,3753           00000 00000  ZUNIT              2DEC     0          B-28
000044: 04,3755           00000 00000  YUNIT              2DEC     0          B-28
000045: 04,3757           20000 00000  XUNIT              2DEC     .5
000046: 04,3761           00000 00000  ZEROVEC            2DEC     0          B-28
000047: 04,3763           00000 00000                     2DEC     0          B-28
000048: 04,3765           00000 00000                     2DEC     0          B-28
000049:
000050: 04,3767           77777                           OCT      77777                                 #  -0, -6, -12 MUST REMAIN IN THIS ORDER
000051: 04,3770           77771        DEC-6              DEC      -6         B-14
000052: 04,3771           77763        DEC-12             DEC      -12        B-14
000053: 04,3772           37777 37777  LODPMAX            2OCT     3777737777                            #  THESE TWO CONSTANTS MUST REMAIN
000054: 04,3774           37777 37777  LODPMAX1           2OCT     3777737777                            #  ADJACENT AND THE SAME FOR INTEGRATION
000055:
000056: 04,3776  04,3761               ZERODP             =        ZEROVEC
000057: 04,3776  04,3757               HALFDP             =        XUNIT

End of include-file INTERPRETIVE_CONSTANTS.agc.  Parent file is MAIN.agc


