
Source Code


000002:                                                                                                  ## Copyright:   Public domain.
000003:                                                                                                  ## Filename:    INTERRUPT_LEAD_INS.agc
000004:                                                                                                  ## Purpose:     A section of Artemis revision 071.
000005:                                                                                                  ##              It is part of the reconstructed source code for the first
000006:                                                                                                  ##              release of the flight software for the Command Module's
000007:                                                                                                  ##              (CM) Apollo Guidance Computer (AGC) for Apollo 15 through
000008:                                                                                                  ##              17. The code has been recreated from a copy of Artemis 072.
000009:                                                                                                  ##              It has been adapted such that the resulting bugger words
000010:                                                                                                  ##              exactly match those specified for Artemis 071 in NASA
000011:                                                                                                  ##              drawing 2021154-, which gives relatively high confidence
000012:                                                                                                  ##              that the reconstruction is correct.
000013:                                                                                                  ## Reference:   139
000014:                                                                                                  ## Assembler:   yaYUL
000015:                                                                                                  ## Contact:     Ron Burkey <info@sandroid.org>.
000016:                                                                                                  ## Website:     www.ibiblio.org/apollo/index.html
000017:                                                                                                  ## Mod history: 2019-08-14 MAS  Created from Artemis 072.
000018:


000020:    4000                                           SETLOC   4000
000021:
000022:    4000                                           COUNT*   $$/RUPTS
000023:
000024:    4000           00004                           INHINT                                         #  GO
000025:    4001           34051                           CAF      GOBB
000026:    4002           56006                           XCH      BBANK
000027:    4003           12563                           TCF      GOPROG
000028:
000029:    4004           52011                           DXCH     ARUPT                                 #  T6RUPT
000030:    4005           00006                           EXTEND
000031:    4006           30111                           DCA      T6LOC
000032:    4007           52006                           DTCB
000033:
000034:    4010           52011                           DXCH     ARUPT                                 #  T5RUPT
000035:    4011           40030                           CS       TIME5
000036:    4012           65011                           AD       .5SEC
000037:    4013           14056                           TCF      T5RUPT
000038:
000039:    4014           52011                           DXCH     ARUPT                                 #  T3RUPT
000040:    4015           35254                           CAF      T3RPTBB
000041:    4016           56006                           XCH      BBANK
000042:    4017           13362                           TCF      T3RUPT
000043:
000044:    4020           52011                           DXCH     ARUPT                                 #  T4RUPT
000045:    4021           34054                           CAF      T4RPTBB
000046:    4022           56006                           XCH      BBANK
000047:    4023           12000                           TCF      T4RUPT
000048:
000049:    4024           52011                           DXCH     ARUPT                                 #  KEYRUPT1
000050:    4025           34052                           CAF      KEYRPTBB
000051:    4026           56006                           XCH      BBANK
000052:    4027           13666                           TCF      KEYRUPT1
000053:
000054:    4030           52011                           DXCH     ARUPT                                 #  KEYRUPT2
000055:    4031           34052                           CAF      MKRUPTBB
000056:    4032           56006                           XCH      BBANK
000057:    4033           12105                           TCF      MARKRUPT
000058:
000059:    4034           52011                           DXCH     ARUPT                                 #  UPRUPT
000060:    4035           34052                           CAF      UPRPTBB
000061:    4036           56006                           XCH      BBANK
000062:    4037           13710                           TCF      UPRUPT
000063:
000064:    4040           52011                           DXCH     ARUPT                                 #  DOWNRUPT
000065:    4041           34051                           CAF      DWNRPTBB
000066:    4042           56006                           XCH      BBANK
000067:    4043           14621                           TCF      DODOWNTM
000068:
000069:    4044           52011                           DXCH     ARUPT                                 #  RADAR RUPT
000070:    4045           34053                           CAF      RDRPTBB


000072:    4046           56006                           XCH      BBANK
000073:    4047           12536                           TCF      VHFREAD
000074:
000075:    4050           50017                           RESUME
000076:
000077:    4051  E3,1400                                  EBANK=   LST1                                  #  RESTART USES E0,E3
000078:    4051           12063        GOBB               BBCON    GOPROG
000079:
000080:    4052  E3,1400                                  EBANK=   LST1
000081:    4052     5254               T3RPTBB            EQUALS   WAITBB
000082:    4052     4052               KEYRPTBB           =        MKRUPTBB
000083:
000084:    4052  E7,1722                                  EBANK=   MRKBUF1
000085:    4052           16067        MKRUPTBB           BBCON    MARKRUPT
000086:    4053     4052               UPRPTBB            =        KEYRPTBB
000087:    4053     4051               DWNRPTBB           =        GOBB
000088:
000089:    4053  E7,1703                                  EBANK=   RM
000090:    4053           56067        RDRPTBB            BBCON    VHFREAD
000091:    4054     1322                                  EBANK=   DSRUPTSW
000092:    4054           14062        T4RPTBB            BBCON    T4RUPT
000093:    4055     0025                                  EBANK=   TIME1
000094:    4055           04060        T5RPTBB            BBCON    T5RUPT
000095:
000096:    4056           00006        T5RUPT             EXTEND
000097:    4057           65327                           BZMF     NOQBRSM
000098:    4060           00006                           EXTEND
000099:    4061           30113                           DCA      T5LOC
000100:    4062           52006                           DTCB

End of include-file INTERRUPT_LEAD_INS.agc.  Parent file is MAIN.agc


