
Source Code


000002:                                                                                                  ## Copyright:   Public domain.
000003:                                                                                                  ## Filename:    INTER-BANK_COMMUNICATION.agc
000004:                                                                                                  ## Purpose:     A section of Artemis revision 071.
000005:                                                                                                  ##              It is part of the reconstructed source code for the first
000006:                                                                                                  ##              release of the flight software for the Command Module's
000007:                                                                                                  ##              (CM) Apollo Guidance Computer (AGC) for Apollo 15 through
000008:                                                                                                  ##              17. The code has been recreated from a copy of Artemis 072.
000009:                                                                                                  ##              It has been adapted such that the resulting bugger words
000010:                                                                                                  ##              exactly match those specified for Artemis 071 in NASA
000011:                                                                                                  ##              drawing 2021154-, which gives relatively high confidence
000012:                                                                                                  ##              that the reconstruction is correct.
000013:                                                                                                  ## Reference:   1104
000014:                                                                                                  ## Assembler:   yaYUL
000015:                                                                                                  ## Contact:     Ron Burkey <info@sandroid.org>.
000016:                                                                                                  ## Website:     www.ibiblio.org/apollo/index.html
000017:                                                                                                  ## Mod history: 2019-08-14 MAS  Created from Artemis 072.
000018:


000020:
000021:                                                                                                  #  THE FOLLOWING ROUTINE CAN BE USED TO CALL A SUBROUTINE IN ANOTHER BANK. IN THE BANKCALL VERSION, THE
000022:                                                                                                  #  CADR OF THE SUBROUTINE IMMEDIATELY FOLLOWS THE  TC BANKCALL  INSTRUCTION, WITH C(A) AND C(L) PRESERVED.
000023:
000024:    4000                                           SETLOC   FFTAG1
000025:    4000                                           BANK
000026:
000027:    4636                                           COUNT*   $$/BANK
000028:    4636           52134        BANKCALL           DXCH     BUF2                                  #  SAVE INCOMING A,L.
000029:    4637           50002                           INDEX    Q                                     #  PICK UP CADR.
000030:    4640           30000                           CA       0
000031:    4641           24002                 -1        INCR     Q                                     #  SO WE RETURN TO THE LOC. AFTER THE CADR.
000032:
000033:                                                                                                  #  SWCALL IS  IDENTICAL TO BANKCALL, EXCEPT THAT THE CADR ARRIVES IN A.
000034:
000035:    4642           54001        SWCALL             TS       L
000036:    4643           22004                           LXCH     FBANK                                 #  SWITCH BANKS, SAVING RETURN.
000037:    4644           75041                           MASK     LOW10                                 #  GET SUB-ADDRESS OF CADR.
000038:    4645           56002                           XCH      Q                                     #  A,L NOW CONTAINS DP RETURN.
000039:    4646           52134                           DXCH     BUF2                                  #  RESTORING INPUTS IF THIS IS A BANKCALL.
000040:    4647           50002                           INDEX    Q
000041:    4650           02000                           TC       10000                                 #  SETTING Q TO SWRETURN.
000042:
000043:    4651           56134        SWRETURN           XCH      BUF2       +1                         #  COMES HERE TO RETURN TO CALLER. C(A,L)
000044:    4652           56004                           XCH      FBANK                                 #  ARE PRESERVED FOR RETURN.
000045:    4653           56134                           XCH      BUF2       +1
000046:    4654           00133                           TC       BUF2
000047:
000048:                                                                                                  #  THE FOLLOWING ROUTINE CAN BE USED AS A UNILATERAL JUMP WITH C(A,L) PRESERVED AND THE CADR IMMEDIATELY
000049:                                                                                                  #  FOLLOWING THE TC POSTJUMP INSTRUCTION.
000050:
000051:    4655           56002        POSTJUMP           XCH      Q                                     #  SAVE INCOMING C(A).
000052:    4656           50000                           INDEX    A                                     #  GET CADR.
000053:    4657           30000                           CA       0
000054:
000055:                                                                                                  #  BANKJUMP IS THE SAME AS POSTJUMP, EXCEPT THAT THE CADR ARRIVES IN A.
000056:
000057:    4660           54004        BANKJUMP           TS       FBANK
000058:    4661           75041                           MASK     LOW10
000059:    4662           56002                           XCH      Q                                     #  RESTORING INPUT C(A) IF THIS WAS A
000060:    4663           50002        Q+10000            INDEX    Q                                     #  POSTJUMP.
000061:    4664           12000        PRIO12             TCF      10000                                 #  PRIO12 = TCF  10000 = 12000
000062:


000064:
000065:                                                                                                  #  THE FOLLOWING ROUTINE GETS THE RETURN CADR SAVED BY SWCALL OR BANKCALL AND LEAVES IT IN A.
000066:
000067:    4665           35041        MAKECADR           CAF      LOW10
000068:    4666           70133                           MASK     BUF2
000069:    4667           60134                           AD       BUF2       +1
000070:    4670           00002                           TC       Q
000071:
000072:    4671           54135        SUPDACAL           TS       MPTEMP
000073:    4672           56004                           XCH      FBANK                                 #  SET FBANK FOR DATA.
000074:    4673           00006                           EXTEND
000075:    4674           04007                           ROR      SUPERBNK                              #  SAVE FBANK IN BITS 15-11, AND
000076:    4675           56135                           XCH      MPTEMP                                #  SUPERBANK IN BITS 7-5.
000077:    4676           75041                           MASK     LOW10
000078:    4677           56001                           XCH      L                                     #  SAVE REL. ADR. IN BANK, FETCH SUPERBITS.
000079:    4700           00004                           INHINT                                         #  BECAUSE RUPT DOES NOT SAVE SUPERBANK.
000080:    4701           00006                           EXTEND
000081:    4702           01007                           WRITE    SUPERBNK                              #  SET SUPERBANK FOR DATA.
000082:    4703           50001                           INDEX    L
000083:    4704           32000                           CA       10000                                 #  PINBALL (FIX MEM DISP) PREVENTS DCA HERE
000084:    4705           56135                           XCH      MPTEMP                                #  SAVE 1ST WD, FETCH OLD FBANK AND SBANK.
000085:    4706           00006                           EXTEND
000086:    4707           01007                           WRITE    SUPERBNK                              #  RESTORE SUPERBANK.
000087:    4710           00003                           RELINT
000088:    4711           54004                           TS       FBANK                                 #  RESTORE FBANK.
000089:    4712           30135                           CA       MPTEMP                                #  RECOVER FIRST WORD OF DATA.
000090:    4713           00002                           RETURN                                         #  24 WDS. DATACALL 516 MU, SUPDACAL 432 MU
000091:


000093:
000094:                                                                                                  #  THE FOLLOWING ROUTINES ARE IDENTICAL TO BANKCALL AND SWCALL EXCEPT THAT THEY ARE USED IN INTERRUPT.
000095:
000096:    4714           52073        IBNKCALL           DXCH     RUPTREG3                              #  USES RUPTREG3,4 FOR DP RETURN ADDRESS.
000097:    4715           50002                           INDEX    Q
000098:    4716           30000                           CAF      0
000099:    4717           24002                           INCR     Q
000100:
000101:    4720           54001        ISWCALL            TS       L
000102:    4721           22004                           LXCH     FBANK
000103:    4722           75041                           MASK     LOW10
000104:    4723           56002                           XCH      Q
000105:    4724           52073                           DXCH     RUPTREG3
000106:    4725           50002                           INDEX    Q
000107:    4726           02000                           TC       10000
000108:
000109:    4727           56073        ISWRETRN           XCH      RUPTREG4
000110:    4730           56004                           XCH      FBANK
000111:    4731           56073                           XCH      RUPTREG4
000112:    4732           00072                           TC       RUPTREG3
000113:
000114:                                                                                                  #  2. USPRCADR ACCESSES INTERPRETIVE CODING IN OTHER THAN THE USER'S FBANK. THE CALLING SEQUENCE IS AS FOLLOWS:
000115:
000116:                                                                                                  #        L       TC      USPRCADR
000117:                                                                                                  #        L+1     CADR    INTPRETX        INTPRETX IS THE INTERPRETIVE CODING
000118:                                                                                                  #                                        RETURN IS TO L+2
000119:
000120:    4733           54164        USPRCADR           TS       LOC                                   #  SAVE A
000121:    4734           34761                           CA       BIT8
000122:    4735           54023                           TS       EDOP                                  #  EXIT INSTRUCTION TO EDOP
000123:    4736           30006                           CA       BBANK
000124:    4737           54165                           TS       BANKSET                               #  USER'S BBANK TO BANKSET
000125:    4740           50002                           INDEX    Q
000126:    4741           30000                           CA       0
000127:    4742           54004                           TS       FBANK                                 #  INTERPRETIVE BANK TO FBANK
000128:    4743           75041                           MASK     LOW10                                 #  YIELDS INTERPRETIVE RELATIVE ADDRESS
000129:    4744           56002                           XCH      Q                                     #  INTERPRETIVE ADDRESS TO Q, FETCHING L+1
000130:    4745           56164                           XCH      LOC                                   #  L+1 TO LOC, RETRIEVING ORIGINAL A
000131:    4746           14663                           TCF      Q+10000
000132:


000134:
000135:                                                                                                  #  THERE ARE FOUR POSSIBLE SETTINGS FOR CHANNEL 07.  (CHANNEL 07 CONTAINS THE SUPERBANK SETTING.)
000136:
000137:                                                                                                  #                                                PSEUDO-FIXED    OCTAL PSEUDO
000138:                                                                                                  #  SUPERBANK     SETTING         S-REG. VALUE    BANK NUMBERS    ADDRESSES
000139:                                                                                                  #  ----------    -------         ------------     ------------    ------------
000140:                                                                                                  #  SUPERBANK 3     0XX            2000 - 3777       30 - 37      70000 - 107777          (WHERE XX CAN BE ANYTHING AND
000141:                                                                                                  #                                                                                        WILL USUALLY BE SEEN AS 11)
000142:                                                                                                  #  SUPERBANK 4     100            2000 - 3777       40 - 47      110000 - 127777         (AS FAR AS IT CAN BE SEEN,
000143:                                                                                                  #                                                                                        ONLY BANKS 40-43 WILL EVER BE
000144:                                                                                                  #                                                                                        AND ARE PRESENTLY AVAILABLE)
000145:                                                                                                  #  SUPERBANK 5     101            2000 - 3777       50 - 57      130000 - 147777         (PRESENTLY NOT AVAILABLE TO
000146:                                                                                                  #                                                                                        THE USER)
000147:                                                                                                  #  SUPERBANK 6     110            2000 - 3777       60 - 67      150000 - 167777         (PRESENTLY NOT AVAILABLE TO
000148:                                                                                                  #                                                                                        THE USER)
000149:

End of include-file INTER-BANK_COMMUNICATION.agc.  Parent file is MAIN.agc


