
Source Code


000002:                                                                                                  ## Copyright:   Public domain.
000003:                                                                                                  ## Filename:    KALCMANU_STEERING.agc
000004:                                                                                                  ## Purpose:     A section of Artemis revision 071.
000005:                                                                                                  ##              It is part of the reconstructed source code for the first
000006:                                                                                                  ##              release of the flight software for the Command Module's
000007:                                                                                                  ##              (CM) Apollo Guidance Computer (AGC) for Apollo 15 through
000008:                                                                                                  ##              17. The code has been recreated from a copy of Artemis 072.
000009:                                                                                                  ##              It has been adapted such that the resulting bugger words
000010:                                                                                                  ##              exactly match those specified for Artemis 071 in NASA
000011:                                                                                                  ##              drawing 2021154-, which gives relatively high confidence
000012:                                                                                                  ##              that the reconstruction is correct.
000013:                                                                                                  ## Reference:   418
000014:                                                                                                  ## Assembler:   yaYUL
000015:                                                                                                  ## Contact:     Ron Burkey <info@sandroid.org>.
000016:                                                                                                  ## Website:     www.ibiblio.org/apollo/index.html
000017:                                                                                                  ## Mod history: 2019-08-14 MAS  Created from Artemis 072.
000018:


000020:
000021:                                                                                                  #  GENERATION OF STEERING COMMANDS FOR DIGITAL AUTOPILOT FREE FALL MANEUVERS
000022:
000023:                                                                                                  #  NEW COMMANDS WILL BE GENERATED EVERY ONE SECOND DURING THE MANEUVER
000024:
000025: 22,2000                                           SETLOC   KALCMON1
000026: 22,2000                                           BANK
000027:
000028: 22,3037  E6,1661                                  EBANK=   BCDU
000029:
000030: 22,3037                                           COUNT*   $$/KALC
000031: 22,3037           34767        NEWDELHI           CAF      R67BIT
000032: 22,3040           70104                           MASK     FLAGWRD8
000033: 22,3041           00006                           EXTEND
000034: 22,3042           13047                           BZF      NEWANGL    -3                         #  NON-R67 SEQUENCE
000035:
000036: 22,3043           34764                           CAF      TRACKBIT
000037: 22,3044           70075                           MASK     FLAGWRD1
000038: 22,3045           00006                           EXTEND                                         #  CHECK TRACKFLAG
000039: 22,3046           13161                           BZF      MYSTEND                               #  IF OFF DO MYSTEND
000040:
000041: 22,3047           41340                 -3        CS       HOLDFLAG
000042: 22,3050           00006                           EXTEND                                         #  CHECK HOLDFLAG
000043: 22,3051           62720                           BZMF     NOGOM2                                #  IF POS, DO STOPRATE
000044:
000045: 22,3052           06006        NEWANGL            TC       INTPRET
000046: 22,3053           75160                 +1        AXC,1    AXC,2
000047: 22,3054           03320                                    MIS                                   #  COMPUTE THE NEW MATRIX FROM S/C TO
000048: 22,3055           03425                                    DEL                                   #  STABLE MEMBER AXES
000049: 22,3056           77624                           CALL
000050: 22,3057           44304                                    MXM3
000051: 22,3060           45575                           VLOAD    STADR
000052: 22,3061           50442                           STOVL    MIS        +12D                       #  CALCULATE NEW DESIRED CDU ANGLES
000053: 22,3062           77626                           STADR
000054: 22,3063           50450                           STOVL    MIS        +6D
000055: 22,3064           77626                           STADR
000056: 22,3065           74456                           STORE    MIS
000057: 22,3066           45160                           AXC,1    CALL
000058: 22,3067           03320                                    MIS
000059: 22,3070           44647                                    DCMTOCDU                              #  PICK UP THE NEW CDU ANGLES FROM MATRIX
000060: 22,3071           77634                           RTB
000061: 22,3072           45644                                    V1STO2S
000062: 22,3073           03267        NWNGL17D           STORE    NCDU                                  #  NEW CDU ANGLES (TAG IS USED BY EDIT)
000063: 22,3074           77414                           BONCLR   EXIT
000064: 22,3075           01215                                    CALCMAN2
000065: 22,3076           40064                                    MANUSTAT                              #  TO START MANEUVER
000066: 22,3077           34767                 -1        CAF      TWO                                   #           +0 OTHERWISE
000067: 22,3100           55664        INCRDCDU           TS       KSPNDX
000068: 22,3101           60000                           DOUBLE
000069: 22,3102           55665                           TS       KDPNDX
000070: 22,3103           51664                           INDEX    KSPNDX


000072: 22,3104           31666                           CA       NCDU                                  #  NEW DESIRED CDU ANGLES
000073: 22,3105           00006                           EXTEND
000074: 22,3106           51664                           INDEX    KSPNDX
000075: 22,3107           21661                           MSU      BCDU                                  #  INITIAL S/C ANGLE OR PREVIOUS DESIRED
000076: 22,3110           00006                           EXTEND                                         #  CDU ANGLES
000077: 22,3111           73013                           MP       QUADROT
000078: 22,3112           51665                           INDEX    KDPNDX
000079: 22,3113           53576                           DXCH     DELCDUX                               #  ANGLE INCREMENTS TO BE ADDED TO
000080: 22,3114           51664                           INDEX    KSPNDX                                #  DCDU EVERY TENTH SEC
000081: 22,3115           31666                           CA       NCDU                                  #  BY LEM DAP
000082: 22,3116           51664                           INDEX    KSPNDX
000083: 22,3117           57661                           XCH      BCDU
000084: 22,3120           51665                           INDEX    KDPNDX
000085: 22,3121           55646                           TS       CDUXD
000086: 22,3122           11664                           CCS      KSPNDX
000087: 22,3123           13100                           TCF      INCRDCDU                              #  LOOP FOR THREE AXES
000088:
000089: 22,3124           00003                           RELINT
000090:
000091:                                                                                                  #  COMPARE PRESENT TIME WITH TIME TO TERMINATE MANEUVER
000092:
000093: 22,3125           03135        TMANUCHK           TC       TIMECHK
000094: 22,3126           04655                           TC       POSTJUMP
000095: 22,3127           40143                           CADR     CONTMANU
000096:
000097: 22,3130           34770                           CAF      ONE
000098: 22,3131           05233        MANUSTAL           TC       WAITLIST
000099: 22,3132  E6,1661                                  EBANK=   BCDU
000100: 22,3132           02303 20066                     2CADR    MANUSTOP
000101:
000102: 22,3134           15205                           TCF      ENDOFJOB
000103:
000104:
000105: 22,3135           00006        TIMECHK            EXTEND
000106: 22,3136           40025                           DCS      TIME2
000107: 22,3137           53673                           DXCH     TTEMP
000108: 22,3140           00006                           EXTEND
000109: 22,3141           31717                           DCA      TM
000110: 22,3142           21673                           DAS      TTEMP
000111: 22,3143           11672                           CCS      TTEMP
000112: 22,3144           00002                           TC       Q
000113: 22,3145           13147                           TCF      +2
000114: 22,3146           13157                           TCF      2NDRETRN
000115: 22,3147           11673                           CCS      TTEMP      +1
000116: 22,3150           00002                           TC       Q
000117: 22,3151           13153                           TCF      MANUOFF
000118: 22,3152           40000                           COM
000119: 22,3153           65016        MANUOFF            AD       1SEC
000120: 22,3154           00006                           EXTEND
000121: 22,3155           63157                           BZMF     2NDRETRN
000122: 22,3156           24002                           INCR     Q


000124: 22,3157           24002        2NDRETRN           INCR     Q
000125: 22,3160           16706                           TCF      Q+1
000126: 22,3161           04655        MYSTEND            TC       POSTJUMP
000127: 22,3162           74416                           CADR     FIXDB
000128:
000129: 20,2000                                           SETLOC   MANUSTUF
000130: 20,2000                                           BANK
000131:
000132: 20,2064                                           COUNT*   $$/KALC
000133: 20,2064           77776        MANUSTAT           EXIT                                           #  INITIALIZATION ROUTINE FOR AUTO
000134: 20,2065           34767                           CAF      R67BIT                                #                      MANEUVERS
000135: 20,2066           70104                           MASK     FLAGWRD8
000136: 20,2067           00006                           EXTEND
000137: 20,2070           12075                           BZF      +5
000138: 20,2071           00006                           EXTEND                                         #  R67 RUNNING
000139: 20,2072           34750                           DCA      DPOSMAX
000140: 20,2073           53717                           DXCH     TM
000141: 20,2074           12104                           TCF      TMDON
000142: 20,2075           00006                           EXTEND                                         #  NON-R67 PROGRAM
000143: 20,2076           30025                           DCA      TIME2
000144: 20,2077           21717                           DAS      TM                                    #  TM+T0    MANEUVER COMPLETION TIME
000145: 20,2100           45016                           CS       1SEC
000146: 20,2101           54001                           TS       L
000147: 20,2102           44772                           CS       ZERO
000148: 20,2103           21717                           DAS      TM                                    #  (TM+T0)-1
000149: 20,2104           00004        TMDON              INHINT
000150: 20,2105           44770                           CS       ONE                                   #  ENABLE AUTOPILOT TO PERFORM
000151: 20,2106           55340                           TS       HOLDFLAG                              #  AUTOMATIC MANEUVERS
000152: 20,2107           40774                           CS       RATEINDX                              #  SEE IF MANEUVERING AT HIGH RATE
000153: 20,2110           66211                           AD       SIX
000154: 20,2111           00006                           EXTEND
000155: 20,2112           62114                           BZMF     HIGHGAIN
000156: 20,2113           12117                           TCF      +4
000157: 20,2114           41501        HIGHGAIN           CS       RCSFLAGS                              #  IF SO, SET HIGH RATE FLAG (BIT 15 OF
000158: 20,2115           74752                           MASK     BIT15                                 #  RCSFLAGS)
000159: 20,2116           27501                           ADS      RCSFLAGS
000160: 20,2117           00006                           EXTEND
000161: 20,2120           31711                           DCA      BRATE                                 #  X-AXIS MANEUVER RATE
000162: 20,2121           53526                           DXCH     WBODY
000163: 20,2122           00006                           EXTEND
000164: 20,2123           31713                           DCA      BRATE      +2                         #  Y-AXIS MANEUVER RATE
000165: 20,2124           53530                           DXCH     WBODY1
000166: 20,2125           00006                           EXTEND
000167: 20,2126           31715                           DCA      BRATE      +4                         #  Z-AXIS MANEUVER RATE
000168: 20,2127           53532                           DXCH     WBODY2
000169: 20,2130           31675                           CA       BIASTEMP   +1                         #  INSERT ATTITUDE ERROR BIASES
000170: 20,2131           55564                           TS       BIAS                                  #  INTO AUTOPILOT
000171: 20,2132           31677                           CA       BIASTEMP   +3
000172: 20,2133           55565                           TS       BIAS1
000173: 20,2134           31701                           CA       BIASTEMP   +5


000175: 20,2135           55566                           TS       BIAS2
000176: 20,2136           30025                           CA       TIME1
000177: 20,2137           65016                           AD       1SEC
000178: 20,2140           57671                           XCH      NEXTIME
000179: 20,2141           04655                           TC       POSTJUMP
000180: 20,2142           45077                           CADR     INCRDCDU   -1
000181:
000182: 20,2143           00004        CONTMANU           INHINT                                         #  CONTINUE WITH UPDATE PROCESS
000183: 20,2144           40025                           CS       TIME1
000184: 20,2145           61671                           AD       NEXTIME
000185: 20,2146           10000                           CCS      A
000186: 20,2147           64770                           AD       ONE
000187: 20,2150           12153                           TCF      MANUCALL
000188: 20,2151           64752                           AD       NEGMAX
000189: 20,2152           40000                           COM
000190: 20,2153           05223        MANUCALL           TC       TWIDDLE
000191: 20,2154           02161                           ADRES    UPDTCALL
000192: 20,2155           00003                           RELINT
000193: 20,2156           35016                           CAF      1SEC                                  #  INCREMENT TIME FOR NEXT UPDATE
000194: 20,2157           27671                           ADS      NEXTIME
000195: 20,2160           15205                           TCF      ENDOFJOB
000196:
000197: 20,2161           34767        UPDTCALL           CAF      R67BIT
000198: 20,2162           70104                           MASK     FLAGWRD8
000199: 20,2163           00006                           EXTEND
000200: 20,2164           12171                           BZF      +5
000201:
000202: 20,2165           11774                           CCS      R61CNTR
000203: 20,2166           12170                           TCF      +2
000204: 20,2167           12176                           TCF      DOREMIS
000205: 20,2170           55774                           TS       R61CNTR
000206:
000207: 20,2171           37650                           CAF      PRIO26
000208: 20,2172           05135                           TC       FINDVAC                               #  OF STEERING COMMANDS
000209: 20,2173  E6,1661                                  EBANK=   BCDU
000210: 20,2173           03037 44066                     2CADR    NEWDELHI
000211:
000212: 20,2175           05314                           TC       TASKOVER
000213:
000214: 20,2176           37650        DOREMIS            CAF      PRIO26
000215: 20,2177           05135                           TC       FINDVAC
000216: 20,2200  E6,1661                                  EBANK=   BCDU
000217: 20,2200           02374 74066                     2CADR    R67RSTRT                              #  MAKE SURE MIS DOES DEGRADE
000218:
000219: 20,2202           05314                           TC       TASKOVER
000220:


000222:                                                                                                  #  ROUTINE FOR TERMINATING AUTOMATIC MANEUVERS
000223:
000224: 10,2000                                           SETLOC   KALCMON3
000225: 10,2000                                           BANK
000226:
000227: 10,2303                                           COUNT*   $$/KALC
000228: 10,2303           04474        MANUSTOP           TC       STOPYZ
000229: 10,2304           04714                           TC       IBNKCALL
000230: 10,2305           45165                           CADR     LOADYZ
000231:
000232: 10,2306           31307        ENDROLL            CA       CPHI
000233: 10,2307           55646                           TS       CDUXD                                 #  SET CDUXD TO THE COMMANDED OUTER GIMBAL
000234: 10,2310           04463                           TC       STOPRATE
000235: 10,2311           35053        ENDMANU            CAF      PRIO14
000236: 10,2312           05135                           TC       FINDVAC
000237: 10,2313  E6,1774                                  EBANK=   R61CNTR
000238: 10,2313           02141 56066                     2CADR    ENDMANUV
000239:
000240: 10,2315           05314                           TC       TASKOVER
000241:
000242:    4000                                           SETLOC   STOPRAT
000243:    4000                                           BANK
000244:    4463                                           COUNT*   $$/KALC
000245:    4463           34772        STOPRATE           CAF      ZERO
000246:    4464           55575                           TS       DELCDUX
000247:    4465           55576                           TS       DELCDUX    +1                         #  ZERO ROLL INCREMENTAL ANGLES
000248:    4466           55525                           TS       WBODY                                 #  RATE
000249:    4467           55526                           TS       WBODY      +1
000250:    4470           55564                           TS       BIAS                                  #  BIAS
000251:
000252:    4471           44752                           CS       BIT15                                 #  MAKE SURE HIGH RATE FLAG (BIT 15 OF
000253:    4472           71501                           MASK     RCSFLAGS                              #  RCSFLAGS) IS RESET.
000254:    4473           55501                           TS       RCSFLAGS
000255:
000256:    4474           34772        STOPYZ             CAF      ZERO
000257:    4475           55577                           TS       DELCDUY                               #  ZERO PITCH, YAW
000258:    4476           55600                           TS       DELCDUY    +1                         #  INCREMENTAL ANGLES
000259:    4477           55601                           TS       DELCDUZ
000260:    4500           55602                           TS       DELCDUZ    +1
000261:    4501           55527                           TS       WBODY1                                #  RATES
000262:    4502           55530                           TS       WBODY1     +1
000263:    4503           55531                           TS       WBODY2
000264:    4504           55532                           TS       WBODY2     +1
000265:    4505           55565                           TS       BIAS1                                 #  BIASES
000266:    4506           55566                           TS       BIAS2
000267:    4507           00002                           TC       Q
000268:
000269: 20,2000                                           SETLOC   MANUSTUF
000270: 20,2000                                           BANK
000271:


000273: 20,2203                                           COUNT*   $$/KALC
000274: 20,2203           30032        ZEROEROR           CA       CDUX                                  #  PICK UP CDU ANGLES AND STORE IN
000275: 20,2204           55646                           TS       CDUXD                                 #  CDU DESIRED
000276: 20,2205           30033                           CA       CDUY
000277: 20,2206           55650                           TS       CDUYD
000278: 20,2207           30034                           CA       CDUZ
000279: 20,2210           55652                           TS       CDUZD
000280: 20,2211           00002                           TC       Q
000281:
000282: 22,2000                                           SETLOC   KALCMON1
000283: 22,2000                                           BANK
000284:
000285: 22,3163                                           COUNT*   $$/KALC
000286: 22,3163           31307        LOADCDUD           CA       CPHI                                  #  STORE TERMINAL ANGLES INTO
000287: 22,3164           55646                           TS       CDUXD                                 #  COMMAND ANGLES
000288: 22,3165           31310        LOADYZ             CA       CTHETA
000289: 22,3166           55650                           TS       CDUYD
000290: 22,3167           31311                           CA       CPSI
000291: 22,3170           55652                           TS       CDUZD
000292: 22,3171           00002                           TC       Q

End of include-file KALCMANU_STEERING.agc.  Parent file is MAIN.agc


