
Source Code


000002:                                                                                                  ## Copyright:   Public domain.
000003:                                                                                                  ## Filename:    LUNAR_AND_SOLAR_EPHEMERIDES_SUBROUTINES.agc
000004:                                                                                                  ## Purpose:     A section of Artemis revision 071.
000005:                                                                                                  ##              It is part of the reconstructed source code for the first
000006:                                                                                                  ##              release of the flight software for the Command Module's
000007:                                                                                                  ##              (CM) Apollo Guidance Computer (AGC) for Apollo 15 through
000008:                                                                                                  ##              17. The code has been recreated from a copy of Artemis 072.
000009:                                                                                                  ##              It has been adapted such that the resulting bugger words
000010:                                                                                                  ##              exactly match those specified for Artemis 071 in NASA
000011:                                                                                                  ##              drawing 2021154-, which gives relatively high confidence
000012:                                                                                                  ##              that the reconstruction is correct.
000013:                                                                                                  ## Reference:   789
000014:                                                                                                  ## Assembler:   yaYUL
000015:                                                                                                  ## Contact:     Ron Burkey <info@sandroid.org>.
000016:                                                                                                  ## Website:     www.ibiblio.org/apollo/index.html
000017:                                                                                                  ## Mod history: 2019-08-14 MAS  Created from Artemis 072.
000018:


000020:
000021:                                                                                                  #  LUNAR AND SOLAR EPHEMERIDES SUBROUTINES
000022:
000023:                                                                                                  #  FUNCTIONAL DESCRIPTION
000024:
000025:                                                                                                  #        THESE SUBROUTINES ARE USED TO DETERMINE THE POSITION AND VELOCITY
000026:                                                                                                  #        VECTORS OF THE SUN AND THE MOON RELATIVE TO THE EARTH AT THE
000027:                                                                                                  #        SPECIFIED GROUND ELAPSED TIME INPUT BY THE USER.
000028:
000029:                                                                                                  #        THE POSITION OF THE MOON IS STORED IN THE COMPUTER IN THE FORM OF
000030:                                                                                                  #        A NINTH DEGREE POLYNOMIAL APPROXIMATION WHICH IS VALID OVER A 15
000031:                                                                                                  #        DAY INTERVAL BEGINNING SHORTLY BEFORE LAUNCH.  THEREFORE THE TIME
000032:                                                                                                  #        INPUT BY THE USER SHOULD FALL WITHIN THIS 15 DAY INTERVAL.
000033:                                                                                                  #


000041:
000042:                                                                                                  #        LSPOS COMPUTES THE POSITION VECTORS OF THE SUN AND THE MOON.
000043:
000044:                                                                                                  #        LUNPOS COMPUTES THE POSITION VECTOR OF THE MOON.
000045:
000046:                                                                                                  #        LUNVEL COMPUTES THE VELOCITY VECTOR OF THE MOON.
000047:
000048:                                                                                                  #  CALLING SEQUENCE
000049:
000050:                                                                                                  #        DLOAD   CALL
000051:                                                                                                  #                TIME            GROUND ELAPSED TIME
000052:                                                                                                  #                SUBROUTINE      LSPOS OR LUNPOS OR LUNVEL
000053:
000054:                                                                                                  #  INPUT
000055:
000056:                                                                                                  #        1) SPECIFIED GROUND ELAPSED TIME IN CS X B-28 LOADED IN MPAC.
000057:
000058:                                                                                                  #        2) TIMEMO - TIME AT THE CENTER OF THE RANGE OVER WHICH THE LUNAR
000059:                                                                                                  #           POSITION POLYNOMIAL IS VALID IN CS X B-42.
000060:
000061:                                                                                                  #        3) VECOEM - VECTOR COEFFICIENTS OF THE LUNAR POSITION POLYNOMIAL
000062:                                                                                                  #           LOADED IN DESCENDING SEQUENCE IN METERS/CS**N X B-2
000063:
000064:                                                                                                  #        4) RESO - POSITION VECTOR OF THE SUN RELATIVE TO THE EARTH AT
000065:                                                                                                  #           TIMEMO IN METERS X B-38.
000066:
000067:                                                                                                  #        5) VESO - VELOCITY VECTOR OF THE SUN RELATIVE TO THE EARTH AT
000068:                                                                                                  #           TIMEMO IN METERS/CS X B-9.
000069:                                                                                                  #
000070:                                                                                                  #        6) OMEGAES - ANGULAR VELOCITY OF THE VECTOR RESO AT TIMEMO IN
000071:                                                                                                  #           REV/CS X B+26.
000072:
000073:                                                                                                  #        ALL EXCEPT THE FIRST INPUT ARE INCLUDED IN THE PRE-LAUNCH
000074:                                                                                                  #        ERASABLE DATA LOAD.
000075:
000076:                                                                                                  #  OUTPUT - LSPOS
000077:
000078:                                                                                                  #        1) 2D OF VAC AREA CONTAINS THE POSITION VECTOR OF THE SUN RELATIVE


000080:                                                                                                  #           TO THE EARTH AT TIME INPUT BY THE USER IN METERS X B-38.
000081:
000082:                                                                                                  #        2) MPAC CONTAINS THE POSITION VECTOR OF THE MOON RELATIVE TO THE
000083:                                                                                                  #           EARTH AT TIME INPUT BY THE USER IN METERS X B-29.
000084:
000085:                                                                                                  #  OUTPUT - LUNPOS
000086:
000087:                                                                                                  #        MPAC CONTAINS THE POSITION VECTOR OF THE MOON RELATIVE TO THE
000088:                                                                                                  #        EARTH AT THE TIME INPUT BY USER IN METERS X B-29.
000089:
000090:                                                                                                  #  OUTPUT - LUNVEL
000091:
000092:                                                                                                  #        MPAC CONTAINS THE VELOCITY VECTOR OF THE MOON RELATIVE TO THE
000093:                                                                                                  #        EARTH AT TIME INPUT BY THE USER IN METERS/CS X B-7.
000094:
000095:                                                                                                  #  SUBROUTINES USED
000096:
000097:                                                                                                  #        NONE
000098:
000099:                                                                                                  #  REMARKS
000100:
000101:                                                                                                  #        THE VAC AREA IS USED FOR STORAGE OF INTERMEDIATE AND FINAL RESULTS
000102:                                                                                                  #        OF COMPUTATIONS.
000103:
000104:                                                                                                  #        S1, X1 AND X2 ARE USED BY THESE SUBROUTINES.
000105:                                                                                                  #        PRELAUNCH ERASABLE DATA LOAD ARE ONLY ERASABLE STORAGE USED BY
000106:                                                                                                  #        THESE SUBROUTINES.
000107:                                                                                                  #        RESTARTS DURING OPERATION OF THESE SUBROUTINES MUST BE HANDLED BY
000108:                                                                                                  #        THE USER.
000109:
000110: 26,2000                                           SETLOC   EPHEM
000111: 26,2000                                           BANK
000112:
000113: 26,2136                                           COUNT*   $$/EPHEM
000114: 26,2136  0003777                                  EBANK=   WHOCARES
000115: 26,2136           52170        LSPOS              AXT,1    GOTO
000116: 26,2137           54163                                    RES                                   #  AREA.  THE POSITION VECTOR OF THE MOON
000117: 26,2140           54146                                    LSTIME                                #  IS STORED IN MPAC.
000118: 26,2141           52170        LUNPOS             AXT,1    GOTO                                  #  COMPUTES THE POSITION VECTOR OF THE MOON
000119: 26,2142           54201                                    REM                                   #  AND STORES IT IN MPAC.
000120: 26,2143           54146                                    LSTIME
000121: 26,2144           77770        LUNVEL             AXT,1
000122: 26,2145           54212                                    VEM                                   #  AND STORES IT IN MPAC.
000123: 26,2146           54201        LSTIME             SETPD    SR
000124: 26,2147           00001                                    0D
000125: 26,2150           20617                                    14D
000126: 26,2151           57571                           TAD      DCOMP
000127: 26,2152           01707                                    TEPHEM
000128: 26,2153           57571                           TAD      DCOMP
000129: 26,2154           02034                                    TIMEMO


000131: 26,2155           66261                           SL       SSP
000132: 26,2156           20221                                    16D
000133: 26,2157           00051                                    S1
000134: 26,2160           00006                                    6D
000135: 26,2161           77650                           GOTO
000136: 26,2162           00046                                    X1
000137: 26,2163           41206        RES                PUSH     DMP                                   #                                        PD- 2
000138: 26,2164           02147                                    OMEGAES
000139: 26,2165           71406                           PUSH     COS                                   #                                        PD- 4
000140: 26,2166           65361                           VXSC     PDDL                                  #                                        PD- 8
000141: 26,2167           02133                                    RESO
000142: 26,2170           63356                           SIN      PDVL                                  #                                        PD-10
000143: 26,2171           02133                                    RESO
000144: 26,2172           53406                           PUSH     UNIT                                  #                                        PD-16
000145: 26,2173           53435                           VXV      UNIT
000146: 26,2174           02141                                    VESO
000147: 26,2175           76435                           VXV      VSL1                                  #                                        PD-10
000148: 26,2176           53361                           VXSC     VAD                                   #                                        PD-02
000149: 26,2177           77772                           VSL1
000150: 26,2200           14003        RESA               STODL    2D                                    #  RES IN METERS X B-38 IN 2D OF VAC.    PD- 0
000151: 26,2201           63370        REM                AXT,1    PDVL                                  #                                        PD- 2
000152: 26,2202           00066                                    54D
000153: 26,2203           02037                                    VECOEM
000154: 26,2204           52761        REMA               VXSC     VAD*
000155: 26,2205           00001                                    0D
000156: 26,2206           02133                                    VECOEM     +60D,1
000157: 26,2207           72500                           TIX,1    VSL2                                  #  REM IN METERS X B-29 IN MPAC.
000158: 26,2210           54204                                    REMA
000159: 26,2211           77616                           RVQ
000160: 26,2212           65370        VEM                AXT,1    PDDL                                  #                                        PD- 2
000161: 26,2213           00060                                    48D
000162: 26,2214           14233                                    NINEB4
000163: 26,2215           74206                           PUSH     VXSC                                  #                                        PD- 4
000164: 26,2216           02037                                    VECOEM
000165: 26,2217           77761        VEMA               VXSC
000166: 26,2220           00001                                    0D
000167: 26,2221           14005                           STODL    4D                                    #                                        PD- 2
000168: 26,2222           41425                           DSU      PUSH                                  #                                        PD- 4
000169: 26,2223           31771                                    ONEB4
000170: 26,2224           53357                           VXSC*    VAD
000171: 26,2225           02125                                    VECOEM     +54D,1
000172: 26,2226           00005                                    4D
000173: 26,2227           72500                           TIX,1    VSL2                                  #  VEM IN METERS/CS X B-7 IN MPAC.
000174: 26,2230           54217                                    VEMA
000175: 26,2231           77616                           RVQ
000176: 26,2232           22000 00000  NINEB4             2DEC     9.0        B-4
000177: 26,2234  34,3770               ONEB4              EQUALS   DP2(-4)                               #  1 B-4
000178:

End of include-file LUNAR_AND_SOLAR_EPHEMERIDES_SUBROUTINES.agc.  Parent file is MAIN.agc


