
Source Code


000002:                                                                                                  ## Copyright:   Public domain.
000003:                                                                                                  ## Filename:    MYSUBS.agc
000004:                                                                                                  ## Purpose:     A section of Artemis revision 071.
000005:                                                                                                  ##              It is part of the reconstructed source code for the first
000006:                                                                                                  ##              release of the flight software for the Command Module's
000007:                                                                                                  ##              (CM) Apollo Guidance Computer (AGC) for Apollo 15 through
000008:                                                                                                  ##              17. The code has been recreated from a copy of Artemis 072.
000009:                                                                                                  ##              It has been adapted such that the resulting bugger words
000010:                                                                                                  ##              exactly match those specified for Artemis 071 in NASA
000011:                                                                                                  ##              drawing 2021154-, which gives relatively high confidence
000012:                                                                                                  ##              that the reconstruction is correct.
000013:                                                                                                  ## Reference:   997
000014:                                                                                                  ## Assembler:   yaYUL
000015:                                                                                                  ## Contact:     Ron Burkey <info@sandroid.org>.
000016:                                                                                                  ## Website:     www.ibiblio.org/apollo/index.html
000017:                                                                                                  ## Mod history: 2019-08-14 MAS  Created from Artemis 072.
000018:


000020:
000021: 21,2000                                           SETLOC   MYSUBS
000022: 21,2000                                           BANK
000023:
000024: 21,2060  E6,1510                                  EBANK=   KMPAC
000025: 21,2060     5060               SPCOS1             EQUALS   SPCOS
000026: 21,2060     5061               SPSIN1             EQUALS   SPSIN
000027: 21,2060     5060               SPCOS2             EQUALS   SPCOS
000028: 21,2060     5061               SPSIN2             EQUALS   SPSIN
000029:
000030: 21,2060                                           COUNT*   $$/DAPMS
000031:
000032:                                                                                                  #  ONE AND ONE HALF PRECISION MULTIPLICATION ROUTINE
000033:
000034: 21,2060           55512        SMALLMP            TS       KMPTEMP                               #  A(X+Y)
000035: 21,2061           00006                           EXTEND
000036: 21,2062           71511                           MP       KMPAC      +1
000037: 21,2063           55511                           TS       KMPAC      +1                         #  AY
000038: 21,2064           34772                           CAF      ZERO
000039: 21,2065           57510                           XCH      KMPAC
000040: 21,2066           00006                           EXTEND
000041: 21,2067           71512                           MP       KMPTEMP                               #  AX
000042: 21,2070           21511                           DAS      KMPAC                                 #  AX+AY
000043: 21,2071           00002                           TC       Q
000044:
000045:                                                                                                  #  SUBROUTINE FOR DOUBLE PRECISION ADDITIONS OF ANGLES
000046:                                                                                                  #  A AND L CONTAIN A DP(1S) ANGLE SCALED BY 180 DEGS TO BE ADDED TO KMPAC.
000047:                                                                                                  #  RESULT IS PLACED IN KMPAC.  TIMING = 6 MCT (22 MCT ON OVERFLOW)
000048:
000049: 21,2072           21511        DPADD              DAS      KMPAC
000050: 21,2073           00006                           EXTEND
000051: 21,2074           12111                           BZF      TSK        +1                         #  NO OVERFLOW
000052: 21,2075           11510                           CCS      KMPAC
000053: 21,2076           12112                           TCF      DPADD+                                #  + OVERFLOW
000054: 21,2077           12101                           TCF      +2
000055: 21,2100           12114                           TCF      DPADD-                                #  - OVERFLOW
000056: 21,2101           11511                           CCS      KMPAC      +1
000057: 21,2102           12117                           TCF      DPADD2+                               #  UPPER = 0, LOWER +
000058: 21,2103           12105                           TCF      +2
000059: 21,2104           40000                           COM                                            #  UPPER = 0, LOWER -
000060: 21,2105           64750                           AD       POSMAX                                #  LOWER = 0, A=0
000061: 21,2106           55511                           TS       KMPAC      +1                         #  CAN NOT OVERFLOW
000062: 21,2107           34750                           CA       POSMAX                                #  UPPER WAS = 0
000063: 21,2110           55510        TSK                TS       KMPAC
000064: 21,2111           00002                 +1        TC       Q
000065: 21,2112           64752        DPADD+             AD       NEGMAX                                #  KMPAC GREATER THAN 0
000066: 21,2113           12110                           TCF      TSK
000067:
000068: 21,2114           40000        DPADD-             COM
000069: 21,2115           64750                           AD       POSMAX                                #  KMPAC LESS THAN 0


000071: 21,2116           12110                           TCF      TSK
000072:
000073: 21,2117           64752        DPADD2+            AD       NEGMAX                                #  CAN NOT OVERFLOW
000074: 21,2120           55511                           TS       KMPAC      +1
000075: 21,2121           34752                           CA       NEGMAX                                #  UPPER WAS = 0
000076: 21,2122           12110                           TCF      TSK
000077:


End of include-file MYSUBS.agc.  Parent file is MAIN.agc


