
Source Code


000002:                                                                                                  ## Copyright:   Public domain.
000003:                                                                                                  ## Filename:    P11.agc
000004:                                                                                                  ## Purpose:     A section of Artemis revision 071.
000005:                                                                                                  ##              It is part of the reconstructed source code for the first
000006:                                                                                                  ##              release of the flight software for the Command Module's
000007:                                                                                                  ##              (CM) Apollo Guidance Computer (AGC) for Apollo 15 through
000008:                                                                                                  ##              17. The code has been recreated from a copy of Artemis 072.
000009:                                                                                                  ##              It has been adapted such that the resulting bugger words
000010:                                                                                                  ##              exactly match those specified for Artemis 071 in NASA
000011:                                                                                                  ##              drawing 2021154-, which gives relatively high confidence
000012:                                                                                                  ##              that the reconstruction is correct.
000013:                                                                                                  ## Reference:   534
000014:                                                                                                  ## Assembler:   yaYUL
000015:                                                                                                  ## Contact:     Ron Burkey <info@sandroid.org>.
000016:                                                                                                  ## Website:     www.ibiblio.org/apollo/index.html
000017:                                                                                                  ## Mod history: 2019-08-14 MAS  Created from Artemis 072.
000018:


000020:
000021:                                                                                                  #  EARTH ORBIT INSERTION MONITOR PROGRAM
000022:                                                                                                  #  *************************************
000023:
000024:                                                                                                  #  PROGRAM DESCRIPTION -P11-
000025:
000026:                                                                                                  #        MOD NO. 1
000027:                                                                                                  #        MOD BY ELIASSEN
000028:
000029:                                                                                                  #  FUNCTIONAL DESCRIPTION
000030:
000031:                                                                                                  #        P11 IS INITIATED BY
000032:
000033:                                                                                                  #                A) GYROCOMPASS PRG P02 WHEN LIFTOFF DISCRETE IS RECEIVED OR
000034:                                                                                                  #                B) BACKUP THRU VERB 75 ENTER
000035:
000036:                                                                                                  #        PROGRAM WILL
000037:                                                                                                  #                1. ZERO CMC CLOCK AT LIFTOFF (OR UPON RECEIPT OF BACKUP)
000038:                                                                                                  #                2. UPDATE TEPHEM TO TIME CMC CLOCK WAS ZEROED
000039:                                                                                                  #                3. INITIATE SERVICER AT PREREAD1
000040:                                                                                                  #                4. CHANGE MAJOR MODE TO 11
000041:                                                                                                  #                5. CLEAR DSKY IN CASE OF V 75
000042:                                                                                                  #                6. STORE LIFTOFF IMU-CDU ANGLES FOR ATT. ERROR DISPLAY
000043:                                                                                                  #                7. TERMINATE GYROCOMPASSING -   -
000044:                                                                                                  #                8. COMPUTE INITIAL VECTORS  RN, VN                -  -  -
000045:                                                                                                  #                9. COMPUTE REFSMMAT FOR PRELAUNCH ALIGNMENT WHERE U ,U ,U  ARE
000046:                                                                                                  #                        -         -                                X  Y  Z
000047:                                                                                                  #                        U =UNIT(-R) LOCAL VERTICAL AT TIME OF LIFTOFF
000048:                                                                                                  #                         Z
000049:                                                                                                  #                        -        -   -
000050:                                                                                                  #                        U =UNIT (A), A=HOR VECTOR AT LAUNCH AZIMUTH
000051:                                                                                                  #                         X
000052:                                                                                                  #                        -  -   -
000053:                                                                                                  #                        U =U * U
000054:                                                                                                  #                         U  Z   X
000055:                                                                                                  #
000056:                                                                                                  #                10. SET REFSMMAT KNOWN FLAG
000057:                                                                                                  #                11. SET AVGEXIT IN SERVICER TO VHHDOT TO
000058:                                                                                                  #                    COMPUTE AND DISPLAY NOUN 62 EVERY 2 SECONDS
000059:
000060:                                                                                                  #                    R1  V1   - INTERTIAL VELOCITY MAGNITUDE IN FPS
000061:                                                                                                  #                    R2  HDOT - RATE OF CHANGE OF VEHICLE VEL IN FPS
000062:                                                                                                  #                    R3  H    - VEHICLE ALTITUDE ABOVE PAD IN NM
000063:                                                                                                  #
000064:                                                                                                  #                12. DISPLAY BODY AXES ATT. ERRORS ON FDAI NEEDLES
000065:
000066:                                                                                                  #                    A) FROM L.O. TO RPSTART (APPROX. 0 TO +10SECS AFTER L.O.)
000067:                                                                                                  #                       DESIRED ATTITUDE IS AS STORED AT L.O.
000068:                                                                                                  #                    B) FROM RPSTART TO POLYSTOP (APPROX.+10 TO +133SECS AFTER LO)
000069:                                                                                                  #                       DESIRED ATTITUDE IS SPECIFIED BY CMC PITCH AND ROLL
000070:                                                                                                  #                       POLYNOMIALS DURING SATURN ROLLOUT AND PITCHOVER


000072:                                                                                                  #                       THE DISPLAY IS RUN AS LOW PRIORITY JOB APPROX.
000073:                                                                                                  #                       EVERY 1/2 SEC OR LESS AND IS DISABLED UPON OVFLO OF TIME1
000074:
000075:                                                                                                  #  SUBROUTINES CALLED
000076:
000077:                                                                                                  #           2PHSCHNG  BANKCALL  CALCGRA   CDUTRIG   CLEANDSP  DANZIG
000078:                                                                                                  #           DELAYJOB  EARTHR    ENDOFJOB  FINDVAC   IBNKCALL
000079:                                                                                                  #           INTPRET   LALOTORV  NEEDLER   NEWMODEX  PHASCHNG
000080:                                                                                                  #           POSTJUMP  POWRSERS  PREREAD1  REGODSPR  S11.1
000081:                                                                                                  #           SERVEXIT  TASKOVER  TCDANZIG  V1ST02S   WAITLIST
000082:
000083:                                                                                                  #  ASTRONAUT REQUESTS (IF ALTITUDE ABOVE 300,000 FT)
000084:
000085:                                                                                                  #        DSKY -
000086:                                                                                                  #             MONITOR DISPLAY OF TIME TO PERIGEE R1 HOURS
000087:                                                                                                  #                                                R2 MINUTES
000088:
000089:                                                                                                  #        DSKY -
000090:                                                                                                  #             MONITOR DISPLAY OF R1 APOGEE ALTITUDE IN NAUTICAL MILES
000091:                                                                                                  #                                R2 PERIGEE ALTITUDE IN NAUTICAL MILES
000092:                                                                                                  #                                R3 TFF IN MINUTES/SECS
000093:
000094:                                                                                                  #        IF ASTRONAUT HAS REQUESTED ANY OF THESE DISPLAYS HE MUST
000095:                                                                                                  #  HIT PROCEED TO RETURN TO NORMAL NOUN 62 DISPLAY
000096:                                                                                                  #  NORMAL EXIT MODE
000097:
000098:                                                                                                  #        ASTRONAUT  VERB 37 ENTER 00 ENTER
000099:
000100:                                                                                                  #  ALARM MODES - NONE
000101:
000102:                                                                                                  #  ABORT EXIT MODES -
000103:
000104:                                                                                                  #  OUTPUT
000105:
000106:                                                                                                  #        TLIFTOFF (DP)  TEPHEM (TP)
000107:                                                                                                  #        REFSMMAT
000108:                                                                                                  #        DSKY DISPLAY
000109:                                                                                                  #        FDAI DISPLAY
000110:
000111:                                                                                                  #  ERASABLE INITIALIZATION
000112:
000113:                                                                                                  #        AZO, AXO, -AYO
000114:                                                                                                  #        LATITUDE
000115:                                                                                                  #        PADLONG
000116:                                                                                                  #        TEPHEM
000117:                                                                                                  #        PGNCSALT
000118:                                                                                                  #        POLYNUM THRU POLYNUM +14D)
000119:                                                                                                  #        RPSTART
000120:                                                                                                  #        POLYSTOP
000121:                                                                                                  #  FLAGS SET OR RESET


000123:                                                                                                  #        SET REFSMFLG
000124:                                                                                                  #        SET DVMON IDLE FLAG
000125:                                                                                                  #        CLEAR ERADFLAG
000126:
000127:                                                                                                  #  DEBRIS
000128:
000129:                                                                                                  #        LIFTTEMP
000130:                                                                                                  #        POLYNUM THRU POLYNUM +7
000131:                                                                                                  #        SPOLYARG
000132:                                                                                                  #        BODY1, BODY2, BODY3
000133:                                                                                                  #        VMAG2, ALTI, HDOT
000134:                                                                                                  #        CENTRALS, CORE SET AND VAC AREAS
000135: 36,2016     5010               BITS5-6            =        SUPER011
000136: 34,2000                                           SETLOC   P11ONE
000137: 34,2000                                           BANK
000138:
000139: 34,2000                                           COUNT*   $$/P11
000140: 34,2000  E3,1706                                  EBANK=   TEPHEM
000141: 34,2000           35024        P11                CA       EBANK3
000142: 34,2001           54003                           TS       EBANK
000143:
000144: 34,2002           00006                           EXTEND
000145: 34,2003           32274                           DCA      REP11S                                #  DIRECT RESTARTS TO REP11
000146: 34,2004           53162                           DXCH     -PHASE3
000147: 34,2005  01,2071               3P11SPT1           =        3.11SPOT
000148: 34,2005           44772                           CS       ZERO
000149: 34,2006           22007                           ZL
000150: 34,2007           55126                           TS       LIFTTEMP
000151: 34,2010           53166                           DXCH     -PHASE5                               #  INACTIVE GROUP 5, PRELAUNCH PROTECTION
000152: 34,2011           00006        P11+7              EXTEND
000153: 34,2012           32276                           DCA      REP11SA
000154: 34,2013           53022                           DXCH     TLIFTOFF
000155:
000156: 34,2014           00006                           EXTEND
000157: 34,2015           30025        ZROCLOCK           DCA      TIME2
000158: 34,2016           53127                           DXCH     LIFTTEMP                              #  FOR RESTARTS
000159:
000160: 34,2017           34772                 -5        CAF      ZERO
000161: 34,2020           22007                           ZL
000162: 34,2021           52025                           DXCH     TIME2
000163: 34,2022           53022        REP11A-2           DXCH     TLIFTOFF
000164: 34,2023           53162        REP11A-1           DXCH     -PHASE3                               #  RESET PHASE
000165:
000166: 34,2024  01,2074               3P13SPT1           =        3.13SPOT
000167: 34,2024           00004        REP11A             INHINT
000168: 34,2025           00006                           EXTEND
000169: 34,2026           31710                           DCA      TEPHEM     +1
000170: 34,2027           53132                           DXCH     TEPHEM1    +1
000171: 34,2030           31706                           CA       TEPHEM


000173: 34,2031           57130                           XCH      TEPHEM1
000174:
000175: 34,2032           00006                           EXTEND
000176: 34,2033           31022                           DCA      TLIFTOFF
000177: 34,2034           21132                           DAS      TEPHEM1    +1
000178: 34,2035           27130                           ADS      TEPHEM1                               #  CORRECTOFOR OVERFLOW
000179:
000180: 34,2036           05402                           TC       PHASCHNG
000181: 34,2037           05023                           OCT      05023
000182: 34,2040           22000                           OCT      22000
000183:
000184: 34,2041           00004                           INHINT
000185: 34,2042           00006                           EXTEND
000186: 34,2043           31131                           DCA      TEPHEM1
000187: 34,2044           53707                           DXCH     TEPHEM
000188: 34,2045           31132                           CA       TEPHEM1    +2
000189: 34,2046           57710                           XCH      TEPHEM     +2
000190:
000191: 34,2047           35046                           CAF      EBANK7
000192: 34,2050           54003                           TS       EBANK
000193: 34,2051  E7,1425                                  EBANK=   DVTOTAL
000194: 34,2051           04714                           TC       IBNKCALL
000195: 34,2052           76630                           CADR     PREREAD1                              #  ZERO PIPS AND INITIALIZE AVERAGEG
000196:
000197: 34,2053           05402                           TC       PHASCHNG
000198: 34,2054           05023                           OCT      05023                                 #  CONTINUE HERE ON RESTART
000199: 34,2055           22000                           OCT      22000
000200:
000201: 34,2056           35011                           CAF      .5SEC                                 #  START ATT ERROR DISPLAY
000202: 34,2057           05233                           TC       WAITLIST                              #  IN .5 SEC
000203: 34,2060  E6,1704                                  EBANK=   SPOLYARG
000204: 34,2060           02315 70066                     2CADR    ATERTASK
000205:
000206: 34,2062           05344                           TC       NEWMODEX                              #  DISPLAY MM 11
000207: 34,2063           00013                           MM       11         B-14
000208:
000209: 34,2064           05547                           TC       UPFLAG
000210: 34,2065           00022                           ADRES    NODOP01
000211:
000212: 34,2066           36214                           CA       POWDNCOD                              #  SWITCH TO POWERED FLIGHT DOWNLIST
000213: 34,2067           54332                           TS       DNLSTCOD
000214:
000215: 34,2070           04636                           TC       BANKCALL
000216: 34,2071           20715                           CADR     CLEANDSP                              #  CLEAR DSKY IN CASE OF V75
000217:
000218: 34,2072           05362                           TC       2PHSCHNG
000219: 34,2073           40514                           OCT      40514                                 #  PROTECT ATERTASK
000220: 34,2074           00073                           OCT      00073
000221: 34,2075  01,2066               3P7SPT1            =        3.7SPOT


000223: 34,2075  01,2215               4P51SPT1           =        4.51SPOT
000224: 34,2075           35043                           CAF      EBANK5
000225: 34,2076           54003                           TS       EBANK
000226:
000227: 34,2077  E5,1426                                  EBANK=   QPLACES
000228: 34,2077           32277                           CA       P11XIT                                #  SET EXIT FROM PROUT IN EARTHR
000229: 34,2100           55426                           TS       QPLACES
000230: 34,2101           06006                           TC       INTPRET
000231: 34,2102           64375                           VLOAD    MXV
000232: 34,2103           02467                                    THETAN
000233: 34,2104           02672                                    XSM
000234: 34,2105           53372                           VSL1     VAD
000235: 34,2106           02650                                    ERCOMP
000236: 34,2107           16650                           STODL    ERCOMP
000237: 34,2110           01022                                    TLIFTOFF
000238: 34,2111           52131                           SSP      GOTO
000239: 34,2112           00052                                    S2
000240: 34,2113           66202                           CADR     PROUT                                 #  RETURN FROM EARTHR
000241: 34,2114           66151                                    EARTHR     +3
000242: 34,2115           22007        MATRXJOB           ZL                                             #  STORE DP GIMBAL ANGLES FOR ATTITUDE
000243: 34,2116           30032                           CA       CDUX                                  #        ERROR DISPLAY AFTER LIFTOFF
000244: 34,2117           53760                           DXCH     OGC
000245: 34,2120           22007                           ZL
000246: 34,2121           30033                           CA       CDUY
000247: 34,2122           53762                           DXCH     IGC
000248: 34,2123           22007                           ZL
000249: 34,2124           30034                           CA       CDUZ
000250: 34,2125           53764                           DXCH     MGC
000251: 34,2126           06006                           TC       INTPRET                               #        -
000252: 34,2127           74575                           VLOAD    VSR1                                  #  SCALE OGC  B-1
000253: 34,2130           02760                                    OGC
000254: 34,2131           02760                           STORE    OGC
000255: 34,2132           77731                           SSP                                            #  ZERO RTX2
000256: 34,2133           03747                                    RTX2                                  #  FOR
000257: 34,2134           00000                                    0                                     #  EARTH
000258: 34,2135           65345                           DLOAD    PDDL
000259: 34,2136           01134                                    PGNCSALT                              #  ALTITUDE OF PGNCS
000260: 34,2137           01136                                    PADLONG                               #  LONGITUDE
000261: 34,2140           55525                           PDDL     VDEF
000262: 34,2141           02403                                    LATITUDE                              #  GEODETIC LATITUDE
000263: 34,2142           14747                           STODL    LAT                                   #  LAT,LONG,ALT ARE CONSECUTIVE
000264: 34,2143           15336                                    HI6ZEROS                              #  TIME = 0
000265: 34,2144           45014                           CLEAR    CALL
000266: 34,2145           00662                                    ERADFLAG
000267: 34,2146           26524                                    LALOTORV                              #  CONVERT TO POSITION VECTOR IN REF.COORDS
000268:
000269: 34,2147           35071                           STCALL   RN1                                   #               -
000270: 34,2150           70331                                    GETDOWN                               #  RETURN WITH VECTOR FOR DOWN DIRECTION
000271: 34,2151           53476                           VCOMP    UNIT
000272: 34,2152           25750                           STOVL    REFSMMAT   +12D                       #  UNITZ = UNIT(GRAV)


000274: 34,2153           01071                                    RN1
000275: 34,2154           74235                           VXV      VXSC
000276: 34,2155           01712                                    UNITW                                 #  SCALED AT 1
000277: 34,2156           30301                                    -ERTHRAT                              #  V = EARTHRATE X R
000278: 34,2157           77712                           VSL4                                           #  SCALE TO 2(7) M/CS
000279: 34,2160           25077                           STOVL    VN1
000280: 34,2161           01750                                    REFSMMAT   +12D
000281: 34,2162           53435                           VXV      UNIT
000282: 34,2163           01712                                    UNITW                                 #  (REF3 X UNITW) = EAST
000283: 34,2164           47206                           PUSH     VXV
000284: 34,2165           01750                                    REFSMMAT   +12D                       #   (EAST X REF3) = -SOUTH
000285: 34,2166           65256                           UNIT     PDDL
000286: 34,2167           02634                                    LAUNCHAZ                              #   COS(AZ)*SOUTH
000287: 34,2170           74346                           COS      VXSC
000288: 34,2171           77626                           STADR
000289: 34,2172           62043                           STODL    REFSMMAT                              #  TEMPORARY STORAGE
000290: 34,2173           02634                                    LAUNCHAZ
000291: 34,2174           74356                           SIN      VXSC                                  #   SIN(AZ)*EAST
000292: 34,2175           53455                           VAD      UNIT                                  #   SIN(AZ)*EAST - COS(AZ)*SOUTH = REF1
000293: 34,2176           01734                                    REFSMMAT
000294: 34,2177           01734                           STORE    REFSMMAT
000295:
000296: 34,2200           53435                           VXV      UNIT                                  #  (REF1 X REF3) = -REF3
000297: 34,2201           01750                                    REFSMMAT   +12D
000298: 34,2202           77676                           VCOMP
000299: 34,2203           01742                           STORE    REFSMMAT   +6
000300: 34,2204           45345        TRNVNREF           DLOAD    DSU
000301: 34,2205           15334                                    DPHALF                                #  1/2 REV
000302: 34,2206           02634                                    LAUNCHAZ
000303: 34,2207           65215                           DAD      PDDL
000304: 34,2210           02401                                    AZIMUTH
000305: 34,2211           03301                                    SATRLRT                               #  SET  SATRLRT = -SATRLRT IF
000306: 34,2212           45565                           SIGN     STADR                                 #  (1/2REV -LAVNCHAZ +AZIMUTH) IS NEGATIVE
000307: 34,2213           74476                           STORE    SATRLRT                               #  FOR ROLL CALC IN FDAI ATT. ERROR DISPLAY
000308: 34,2214           77414                           SET      EXIT
000309: 34,2215           01462                                    REFSMFLG                              #  SET REFSMMAT KNOWN FLAG
000310:
000311: 34,2216           05402                           TC       PHASCHNG
000312: 34,2217           04023                           OCT      04023
000313:
000314: 34,2220           00006                           EXTEND
000315: 34,2221           32303                           DCA      P11SCADR
000316: 34,2222           53062                           DXCH     AVGEXIT                               #  SET AVGEXIT
000317:
000318: 34,2223           37652                           CA       PRIO31                                #  2 SECONDS AT 2(+8)
000319: 34,2224           55277                           TS       1/PIPADT
000320:
000321: 34,2225  E6,1501                                  EBANK=   RCSFLAGS
000322: 34,2225           04611                           TC       E6SETTER
000323:


000325: 34,2226           00004                           INHINT
000326: 34,2227           44772                           CS       ZERO
000327: 34,2230           55267                           TS       TBASE5                                #  RESTART READACCS 2 SECONDS AFTER LIFTOFF
000328:
000329: 34,2231           40025                           CS       TIME1
000330: 34,2232           65017                           AD       2SECS                                 #  DO READACCS 2 SECONDS AFTER LIFTOFF
000331:
000332: 34,2233           10000                           CCS      A                                     #  CHECK TO INSURE DT IS POSITIVE
000333: 34,2234           12237                           TCF      +3                                    #  TIME POSITIVE
000334: 34,2235           12237                           TCF      +2                                    #  CANNOT GET HERE
000335: 34,2236           34772                           CA       ZERO                                  #  TIME NEGATIVE - SET TO 1
000336: 34,2237           64770                           AD       ONE                                   #  RESTORE TIME  -  OR MAKE POSITIVE
000337:
000338: 34,2240           05233                           TC       WAITLIST
000339: 34,2241  E6,1661                                  EBANK=   AOG
000340: 34,2241           02652 76066                     2CADR    READACCS
000341: 34,2243           05362                           TC       2PHSCHNG
000342: 34,2244           00003                           OCT      00003                                 #  TURN OFF GROUP 3
000343: 34,2245           00025                           OCT      00025                                 #  PROTECT NORMLIZE AND READACCS
000344:
000345: 34,2246  01,2234               5P2SPT1            =        5.2SPOT
000346: 34,2246           04655                           TC       POSTJUMP
000347: 34,2247           77154                           CADR     NORMLIZE                              #  DO NORMLIZE AND ENDOFJOB
000348:
000349:
000350: 34,2250  E3,1706                                  EBANK=   TEPHEM
000351: 34,2250           00004        REP11              INHINT
000352: 34,2251           11166                           CCS      PHASE5
000353: 34,2252           05205                           TC       ENDOFJOB
000354:
000355: 34,2253           11126                           CCS      LIFTTEMP
000356: 34,2254           12260                           TCF      +4
000357: 34,2255           12260                           TCF      +3
000358: 34,2256           12260                           TCF      +2
000359: 34,2257           12011                           TCF      P11+7
000360:
000361: 34,2260           41021                           CS       TLIFTOFF
000362: 34,2261           00006                           EXTEND
000363: 34,2262           62270                           BZMF     ENDREP11
000364:
000365: 34,2263           10024                           CCS      TIME2                                 #  **TIME2 MUST BE NON-ZERO AT LIFTOFF**
000366: 34,2264           12017                           TCF      REP11A     -5                         #  T2,T1 NOT YET ZEROED, GO AND DO IT
000367:
000368: 34,2265           00006                           EXTEND                                         #  T2,T1 ZEROED, SET TLIFTOFF
000369: 34,2266           31127                           DCA      LIFTTEMP
000370: 34,2267           12022                           TCF      REP11A-2
000371:
000372: 34,2270           00006        ENDREP11           EXTEND
000373: 34,2271           32276                           DCA      REP11SA


000375: 34,2272           12023                           TCF      REP11A-1
000376:
000377:
000378: 34,2273           77766 00011  REP11S             2OCT     7776600011
000379: 34,2275           77764 00013  REP11SA            2OCT     7776400013
000380:
000381:
000382: 34,2277           02225        P11XIT             GENADR   P11OUT
000383: 34,2300           71704 41735  -ERTHRAT           2DEC*    -7.292115138 E-7        B18*            #  - EARTH RATE AT 2(18)
000384: 34,2302  E6,1704                                  EBANK=   SPOLYARG
000385: 34,2302           02304 70066  P11SCADR           2CADR    VHHDOT
000386: 34,2304     6214               POWDNCOD           EQUALS   THREE
000387:
000388:
000389: 34,2304  E6,1704                                  EBANK=   SPOLYARG
000390:                                                                                                  #  VHHDOT IS EXECUTED EVERY 2 SECONDS TO DISPLAY ON DSKY
000391:                                                                                                  #                      VI INERTIAL VELOCITY MAGNITUDE
000392:                                                                                                  #                      HDOT  RATE OF CHANGE OF ALT ABOVE L PAD RADIUS
000393:                                                                                                  #                      H   ALTITUDE ABOVE L PAD RADIUS
000394:
000395: 34,2304           06006        VHHDOT             TC       INTPRET
000396: 34,2305           77624                           CALL                                           #  LOAD VMAGI, ALTI,
000397: 34,2306           70537                                    S11.1                                 #  HDOT FOR DISPLAY
000398: 34,2307           77776                           EXIT
000399: 34,2310           05402                           TC       PHASCHNG
000400: 34,2311           00035                           OCT      00035
000401:
000402: 34,2312  01,2250               5P3SPT1            =        5.3SPOT
000403: 34,2312           32617                           CAF      V06N62                                #  DISPLAY IN R1   R2    R3
000404: 34,2313           04636                           TC       BANKCALL                              #             VI   HDOT  H
000405: 34,2314           20721                           CADR     REGODSP
000406:
000407: 34,2315           34757        ATERTASK           CAF      PRIO1                                 #  ESTABLISH JOB TO DISPLAY ATT ERRORS
000408: 34,2316           05135                           TC       FINDVAC                               #  COMES HERE AT L.O. + .33 SEC
000409: 34,2317  E6,1704                                  EBANK=   SPOLYARG
000410: 34,2317           02342 70066                     2CADR    ATERJOB
000411: 34,2321           41501                           CS       RCSFLAGS                              #  SET BIT3 FOR
000412: 34,2322           74766                           MASK     BIT3                                  #  NEEDLER
000413: 34,2323           27501                           ADS      RCSFLAGS                              #  INITIALIZATION PASS
000414: 34,2324           04714                           TC       IBNKCALL                              #  AND GO
000415: 34,2325           42425                           CADR     NEEDLER                               #  DO IT
000416: 34,2326           34770                           CA       BIT1                                  #  SET SW
000417: 34,2327           55714                           TS       SATSW                                 #  FOR DISPLAY
000418: 34,2330           05314                           TC       TASKOVER
000419: 34,2331           40220        GETDOWN            STQ      SETPD


000421: 34,2332           02241                                    INCORPEX
000422: 34,2333           00001                                    0D
000423: 34,2334           77745                           DLOAD
000424: 34,2335           15336                                    HI6ZEROS
000425: 34,2336           14007                           STODL    6D
000426: 34,2337           15334                                    DPHALF
000427: 34,2340           34011                           STCALL   8D
000428: 34,2341           26531                                    LALOTORV   +5
000429:                                                                                                  #  THIS SECTION PROVIDES ATTITUDE ERROR DISPLAYS TO THE FDAI DURING SONE BOOST
000430:
000431:                                                                                                  #                                          COMPUTE DESIRED PITCH W.R.T. PAD LOCAL VERTICAL AT LIFTOFF
000432:                                                                                                  #                                                           2    3    4    5    6
000433:                                                                                                  #                                          PITCH= A0+A1T+A2T +A3T +A4T +A5T +A6T
000434:                                                                                                  #                                                 SCALED TO 32 REVS.                                   -14
000435:                                                                                                  #                                          IF TL = TIME IN SECS FROM L.O., THEN    T = 100(TL-RPSTART)2
000436:                                                                                                  #                                          WHERE    TL GE RPSTART
000437:                                                                                                  #                                                   TL LE (-POLYSTOP + RPSTART)
000438:                                                                                                  #                                          COMPUTE DESIRED ROLL WHERE ROLL EQUALS ANGLE FROM
000439:                                                                                                  #                                          LAUNCHAZ TO -Z(S/C) AS SEEN FROM X(S/C).
000440:                                                                                                  #                                          ROLL = LAUNCHAZ-AZIMUTH-.5 +SATRLRT*T      IN REV
000441:                                                                                                  #                                          SATRLRT = RATE OF ROLL IN REV/CENTI-SEC
000442:                                                                                                  #                                          T,IN CENTI-SEC,IS DEFINED AS ABOVE,INCLUSIVE OF TIME RESTRICTIONS
000443:
000444:                                                                                                  #                                          FOR SIMPLICITY, LET   P = 2*PI*PITCH
000445:                                                                                                  #                                                                R = 2*PI*ROLL
000446:
000447:                                                                                                  #                                          CONSTRUCT THE TRANSFORMATION MATRIX, TSMV, GIVING DESIRED S/C AXES IN
000448:                                                                                                  #                                          TERMS OF SM COORDINATES. LET THE RESULTING ROWS EQUAL THE VECTORS XDC,
000449:                                                                                                  #                                          YDC, AND ZDC.
000450:
000451:                                                                                                  #                                           *     (    SIN(P)          0         -COS(P)    )   (XDC)
000452:                                                                                                  #                                          TSMV = (-SIN(R)*COS(P)   -COS(R)   -SIN(R)*SIN(P)) = (YDC)
000453:                                                                                                  #                                                 (-COS(R)*COS(P)    SIN(R)   -COS(R)*SIN(P))   (ZDC)
000454:
000455:                                                                                                  #                                          XDC,YDC,ZDC ARE USED AS INPUT TO CALCGTA FOR THE EXTRACTION OF THE
000456:                                                                                                  #                                          EULER SET OF ANGLES WHICH WILL BRING THE SM INTO THE DESIRED
000457:                                                                                                  #                                          ORIENTATION. THIS EULER SET, OGC, IGC, AND MGC, MAY BE IDENTIFIED
000458:                                                                                                  #                                          AS THE DESIRED CDU ANGLES.
000459:
000460:                                                                                                  #                                          (XDC)                   (OGC)
000461:                                                                                                  #                                          (YDC) ---) CALCGTA ---) (IGC)
000462:                                                                                                  #                                          (ZDC)                   (MGC)
000463:                                                                                                  #                                                             -
000464:                                                                                                  #                                          DEFINE THE VECTOR DELTACDU.
000465:
000466:                                                                                                  #                                           -         (OGC)   (CDUX)
000467:                                                                                                  #                                          DELTACDU = (IGC) - (CDUY)
000468:                                                                                                  #                                                     (MGC)   (CDUZ)


000470:                                                                                                  #                                                                   -          -    *    -
000471:                                                                                                  #                                          COMPUTE ATTITUDE ERRORS, A, WHERE   A = TGSC*DELTACDU
000472:
000473:                                                                                                  #                                           *     (1        SIN(CDUZ)            0    )   THE GIMBAL ANGLES
000474:                                                                                                  #                                          TGSC = (0   COS(CDUX)*COS(CDUZ)   SIN(CDUX)) = TO SPACECRAFT AXES
000475:                                                                                                  #                                                 (0  -SIN(CDUX)*COS(CDUZ)   COS(CDUX))   CONVERSION MATRIX
000476:
000477:                                                                                                  #                                                               -
000478:                                                                                                  #                                          THE ATTITUDE ERRORS, A, ARE STORED ONE HALF SINGLE PRECISION IN
000479:                                                                                                  #                                          THE REGISTERS AK, AK1, AK2 AS INPUT TO NEEDLER, THE FDAI ATTITUDE
000480:                                                                                                  #                                          ERROR DISPLAY ROUTINE.
000481:
000482: 34,2342           30102        ATERJOB            CAE      FLAGWRD6                              #  CHECK FLAGWRD6
000483: 34,2343           74076                           MASK     DPCONFIG                              #  BITS 14,15
000484: 34,2344           00006                           EXTEND
000485: 34,2345           12347                           BZF      +2                                    #  OK - CONTINUE
000486: 34,2346           05205                           TC       ENDOFJOB                              #  SATURN STICK ON - KILL JOB
000487: 34,2347           34757                           CAF      BIT10                                 #  CHECK IF S/C CONTROL
000488: 34,2350           00006                           EXTEND                                         #  OF SATURN PANEL
000489: 34,2351           02030                           RAND     CHAN30                                #  SWITCH IS ON
000490: 34,2352           00006                           EXTEND
000491: 34,2353           12505                           BZF      STRSAT                                #  IT IS - GO STEER
000492: 34,2354           11714                           CCS      SATSW                                 #  IT IS NOT - WAS IT ON LAST CYCLE
000493: 34,2355           12360        WASIU              TCF      ATTDISP                               #  NO - CONTINUE
000494: 34,2356           12510        WASINIT            TCF      ATRESET                               #  YES - REINITIALIZE NEEDLER (2ND PASS)
000495: 34,2357           12510        WASCMC             TCF      ATRESET                               #  YES - REINITIALIZE NEEDLER
000496:
000497: 34,2360           41702        ATTDISP            CS       RPSTART                               #  PITCH/ROLL START TIME
000498: 34,2361           60025                           AD       TIME1
000499: 34,2362           00006                           EXTEND
000500: 34,2363           62612                           BZMF     NOPOLY                                #  IF MINUS THEN ATTITUDE HOLD
000501: 34,2364           54154                           TS       MPAC                                  #  MPAC=TIME1-RPSTART
000502: 34,2365           55704                           TS       SPOLYARG                              #  SAVE FOR USE IN ROLL CALUCLATION
000503: 34,2366           61703                           AD       POLYSTOP                              #  NEG PITCHOVER TIME IN CSECS
000504: 34,2367           00006                           EXTEND
000505: 34,2370           62372                           BZMF     +2
000506: 34,2371           02612        POSTPOLY           TC       NOPOLY                                #  GO TO ATTITUDE HOLD
000507: 34,2372           30024                           CA       TIME2
000508: 34,2373           00006                           EXTEND
000509: 34,2374           62376                           BZMF     +2
000510: 34,2375           02612                           TC       NOPOLY                                #  GO TO ATTITUDE HOLD
000511: 34,2376           31661                           CAE      POLYNUM
000512: 34,2377           54001                           TS       L
000513: 34,2400           32616                           CAF      COEFPOLY                              #  EVALUATE PITCH POLYNOMIAL
000514: 34,2401           07164                           TC       POWRSERS                              #  SCALED TO 32 REVOLUTIONS
000515:
000516: 34,2402           34772                           CA       ZERO                                  #  RETURN WITH PITCH(32REV)
000517: 34,2403           54163                           TS       MODE                                  #  STORED IN MPAC, MPAC +1
000518: 34,2404           06006                           TC       INTPRET
000519: 34,2405           54201                           SETPD    SL                                    #  32(PITCH(32REV))=PITCH(REV)


000521: 34,2406           00001                                    0
000522: 34,2407           20206                                    5
000523: 34,2410           77606                           PUSH                                           #  LET P(RAD)=2.PI.PITCH(REV)
000524: 34,2411           77650                           GOTO
000525: 34,2412           67671                                    ATTDISP1                              #  AROUND SETLOC
000526:                                                                                                  #                                                                       *
000527:                                                                                                  #                                          CONSTRUCT SM TO S/C MATRIX, TSMV
000528:
000529: 33,2000                                           SETLOC   P11TWO
000530: 33,2000                                           BANK                                           #  36 IN COL., 34 IN DISK
000531:
000532:
000533: 33,3671                                           COUNT*   $$/P11
000534: 33,3671           57546        ATTDISP1           COS      DCOMP
000535: 33,3672           14017                           STODL    14D                                   #  -.5*COS(P)
000536: 33,3673           77756                           SIN
000537: 33,3674           14013                           STODL    10D                                   #  .5*SIN(P)
000538: 33,3675           15336                                    ZEROVECS
000539: 33,3676           00015                           STORE    12D                                   #  0
000540:
000541:                                                                                                  #                                          EVALUATE ROLL = LAUNCHAZ-AZIMUTH-.5+SATRLRT*T
000542: 33,3677           41335                           SLOAD    DMP
000543: 33,3700           03305                                    SPOLYARG                              #  TIME1 - RPSTART ,CSECS B-14.
000544: 33,3701           03301                                    SATRLRT
000545: 33,3702           45261                           SL       DSU
000546: 33,3703           20217                                    14D
000547: 33,3704           15334                                    DPHALF
000548: 33,3705           45215                           DAD      DSU                                   #  ASSUMING X(SM) ALONG LAUNCH AZIMUTH,
000549: 33,3706           02634                                    LAUNCHAZ                              #  LAUNCHAZ = ANGLE FROM NORTH TO X(SM).
000550: 33,3707           02401                                    AZIMUTH                               #  AZIMUTH = -ANGLE FROM NORTH TO Z(S/C)
000551: 33,3710           77634                           RTB                                            #  DETERMINE IF ROLLOUT
000552: 33,3711           70601                                    RLTST                                 #  IS COMPLETED
000553: 33,3712           71406        ATTDISPR           PUSH     COS                                   #  CONTINUE COMPUTING TSMV
000554: 33,3713           77606                           PUSH                                           #  LET  R(RAD) = 2*PI*ROLL(REV)
000555: 33,3714           72405                           DMP      SL1
000556: 33,3715           00017                                    14D
000557: 33,3716           14027                           STODL    22D                                   #  -.5*COS(R)*COS(P)
000558: 33,3717           77676                           DCOMP
000559: 33,3720           00023                           STORE    18D                                   #  -.5*COS(R)
000560: 33,3721           72405                           DMP      SL1
000561: 33,3722           00013                                    10D
000562: 33,3723           14033                           STODL    26D                                   #  -.5*COS(R)*SIN(P)
000563: 33,3724           41556                           SIN      PUSH
000564: 33,3725           00031                           STORE    24D                                   #  .5*SIN(R)
000565: 33,3726           72405                           DMP      SL1
000566: 33,3727           00017                                    14D
000567: 33,3730           14021                           STODL    16D                                   #  -.5*SIN(R)*COS(P)
000568: 33,3731           77676                           DCOMP
000569: 33,3732           72405                           DMP      SL1
000570: 33,3733           00013                                    10D
000571: 33,3734           24025                           STOVL    20D                                   #  -.5*SIN(R)*SIN(P)


000573: 33,3735           00013                                    10D
000574:
000575:                                                                                                  #                                          FROM TSMV FIND THE HALF UNIT VECTORS  XDC,YDC,ZDC = INPUT TO CALCGTA
000576: 33,3736           77656                           UNIT
000577: 33,3737           26714                           STOVL    XDC                                   #  XDC = .5*UNIT(SIN(P),0,-COS(P))
000578: 33,3740           00021                                    16D
000579: 33,3741           77656                           UNIT
000580: 33,3742           26722                           STOVL    YDC                                   #  YDC = .5*UNIT(-SIN(R)*COS(P),-COS(R),
000581: 33,3743           00027                                    22D                                   #                           -SIN(R)*SIN(P))
000582: 33,3744           77656                           UNIT
000583: 33,3745           36730                           STCALL   ZDC                                   #  ZDC = .5*UNIT(-COS(R)*COS(P),SIN(R),
000584: 33,3746           47240                                    CALCGTA                               #                           -COS(R)*SIN(P))
000585:
000586:                                                                                                  #                                          CALL CALCGTA TO COMPUTE DESIRED SM ORIENTATION  OGC,IGC,AND MGC
000587:                                                                                                  #                                                                    -          -   -
000588:                                                                                                  #                                          FIND DIFFERENCE VECTOR   DELTACDU = OGC-CDUX
000589:
000590:                                                                                                  #                                          ENTER HERE IF ATTITUDE HOLD
000591:
000592: 33,3747           41575        NOPOLYM            VLOAD    PUSH                                  #         OGC      IGC
000593: 33,3750           02760                                    OGC                                   #  CHANGE IGC  TO  MGC FOR COMPATIBILITY
000594: 33,3751           45006                           PUSH     CALL                                  #         MGC      OGC
000595: 33,3752           47530                                    CDUTRIG                               #  WITH Y,Z,X ORDER OF CDUSPOT
000596: 33,3753           47175                           VLOAD    RTB                                   #   -         DPHI     OGC-CDUX ,PD4
000597: 33,3754           00003                                    2                                     #  DELTACDU = DTHETA = IGC-CDUY ,   0
000598: 33,3755           45644                                    V1STO2S                               #             DPSI     MGC-CDUZ ,   2
000599: 33,3756           27306                           STOVL    BOOSTEMP
000600: 33,3757           15336                                    ZEROVECS
000601: 33,3760           24001                           STOVL    0
000602: 33,3761           01172                                    CDUSPOT
000603: 33,3762           47034                           RTB      RTB
000604: 33,3763           45644                                    V1STO2S
000605: 33,3764           70561                                    DELSTOR
000606: 33,3765           14013                           STODL    10D
000607: 33,3766           01144                                    SINCDUZ
000608: 33,3767           72405                           DMP      SL1
000609: 33,3770           00001                                    0
000610: 33,3771           60415                           DAD      SR2                                   #  CHANGE SCALE OF AK TO 2REVS
000611: 33,3772           00005                                    4
000612: 33,3773           77650                           GOTO
000613: 33,3774           70413                                    ATTDISP2
000614:
000615: 34,2000                                           SETLOC   P11ONE
000616: 34,2000                                           BANK
000617: 34,2413                                           COUNT*   $$/P11
000618: 34,2413           14021        ATTDISP2           STODL    16D                                   #  16D,  .5(DPHI + DTHETA*SIN(CDUZ))
000619: 34,2414           01152                                    COSCDUZ
000620: 34,2415           41405                           DMP      PUSH
000621: 34,2416           00001                                    0


000623: 34,2417           72405                           DMP      SL1
000624: 34,2420           01154                                    COSCDUX
000625: 34,2421           41325                           PDDL     DMP
000626: 34,2422           01146                                    SINCDUX
000627: 34,2423           00003                                    2
000628: 34,2424           72415                           DAD      SL1
000629: 34,2425           77626                           STADR
000630: 34,2426           63755                           STODL    17D                                   #  17D,  .5(DTHETA*COS(CDUX)*COS(CDUZ)
000631: 34,2427           72405                           DMP      SL1                                   #                          +DPSI*SIN(CDUX))
000632: 34,2430           01146                                    SINCDUX
000633: 34,2431           41325                           PDDL     DMP
000634: 34,2432           01154                                    COSCDUX
000635: 34,2433           00003                                    2
000636: 34,2434           72425                           DSU      SL1
000637: 34,2435           77626                           STADR
000638: 34,2436           77754                           STORE    18D                                   #  18D,  .5(-DTHETA*SIN(CDUX)*COS(CDUZ)
000639: 34,2437           77751                           TLOAD                                          #                          +DPSI*COS(CDUX))
000640: 34,2440           00021                                    16D
000641: 34,2441           03077                           STORE    AK                                    #  STORE ATTITUDE ERRORS IN AK,AK1,AK2
000642: 34,2442           77776                           EXIT
000643:
000644: 34,2443           31714                           CA       SATSW
000645: 34,2444           10000                           CCS      A                                     #  CHK TAKEOVER STATUS
000646: 34,2445           02466                           TC       SATOUT                                #  POS - DISPLAY ONLY
000647: 34,2446           02474                           TC       AKLOAD                                #  0     STORE BIAS
000648: 34,2447           06006        STEERSAT           TC       INTPRET                               #  NEG   STEER L/V
000649: 34,2450           76351                           TLOAD    TAD
000650: 34,2451           03316                                    BIASAK
000651: 34,2452           03077                                    AK
000652: 34,2453           03077                           STORE    AK                                    #  AKS = AKS - STORED BIAS
000653: 34,2454           77776                           EXIT
000654: 34,2455           31476                           CA       AK
000655: 34,2456           02620                           TC       RESCALES
000656: 34,2457           55476                           TS       AK
000657: 34,2460           31477                           CA       AK1
000658: 34,2461           02620                           TC       RESCALES
000659: 34,2462           55477                           TS       AK1
000660: 34,2463           31500                           CA       AK2
000661: 34,2464           02620                           TC       RESCALES
000662: 34,2465           55500                           TS       AK2
000663:                                                                                                  #                                          DISPLAY ATTITUDE ERRORS ON FDAI VIA NEEDLER
000664:
000665: 34,2466           04636        SATOUT             TC       BANKCALL
000666: 34,2467           42425                           CADR     NEEDLER
000667: 34,2470           34125        ATERSET            CAF      OCT31                                 #  DELAY .25 SEC
000668: 34,2471           04636                           TC       BANKCALL                              #  EXECUTION + DELAY =.56SEC APPROX
000669: 34,2472           01731                           CADR     DELAYJOB
000670: 34,2473           02342                           TC       ATERJOB                               #  END OF ATT ERROR DISPLAY CYCLE
000671:
000672: 34,2474           41476        AKLOAD             CS       AK                                    #  STORE AKS


000674: 34,2475           55715                           TS       BIASAK                                #  INTO BIAS
000675: 34,2476           41477                           CS       AK1                                   #  COMPLEMENTED
000676: 34,2477           55716                           TS       BIASAK     +1
000677: 34,2500           41500                           CS       AK2
000678: 34,2501           55717                           TS       BIASAK     +2
000679: 34,2502           44770                           CS       BIT1                                  #  SET SW
000680: 34,2503           55714                           TS       SATSW                                 #  TO STEER
000681: 34,2504           02447                           TC       STEERSAT                              #  GO STEER
000682: 34,2505           31714        STRSAT             CA       SATSW                                 #  CHECK IF NEEDLER
000683: 34,2506           00006                           EXTEND                                         #  HAS BEEN INITIALIZED
000684: 34,2507           62360                           BZMF     ATTDISP                               #  YES - CONTINUE
000685: 34,2510           41501        ATRESET            CS       RCSFLAGS                              #  NO - SET
000686: 34,2511           74766                           MASK     BIT3                                  #  INITIALIZATION SW
000687: 34,2512           27501                           ADS      RCSFLAGS                              #  FOR NEEDLER
000688: 34,2513           04636                           TC       BANKCALL                              #  AND GO
000689: 34,2514           42425                           CADR     NEEDLER                               #  DO IT
000690: 34,2515           36211                           CAF      REVCNT                                #  OCT 6
000691: 34,2516           04636                           TC       BANKCALL                              #  DELAY JOB
000692: 34,2517           01731                           CADR     DELAYJOB                              #  60 MS -WAIT TILL IMUERRCNTR ZEROED
000693: 34,2520           11714                           CCS      SATSW                                 #  CHECK SW STATUS
000694: 34,2521           02531                           TC       TAKEON                                #  POS   STEER INIT.
000695: 34,2522           02523                           TC       +1                                    #  0     RETURN TO DISPLAY
000696: 34,2523           34770                           CA       BIT1                                  #  NEG   RETURN TO DISPLAY
000697: 34,2524           55714                           TS       SATSW                                 #  SW = DISPLAY ONLY
000698: 34,2525           44760                           CS       BIT9                                  #  DISABLE
000699: 34,2526           00006                           EXTEND                                         #  SIVB
000700: 34,2527           03012                           WAND     CHAN12                                #  TAKEOVER
000701: 34,2530           02466                           TC       SATOUT                                #  DISPLAY
000702: 34,2531           34760        TAKEON             CAF      BIT9                                  #  ENABLE
000703: 34,2532           00006                           EXTEND                                         #  SIVB
000704: 34,2533           05012                           WOR      CHAN12                                #  TAKEOVER
000705: 34,2534           34772                           CA       ZERO                                  #  INDICATE NEEDLER
000706: 34,2535           55714                           TS       SATSW                                 #  WAS INITIALIZED
000707: 34,2536           02466                           TC       SATOUT
000708: 34,2537           51575        S11.1              VLOAD    ABVAL
000709: 34,2540           01036                                    VN
000710: 34,2541           27723                           STOVL    VMAGI                                 #  VI     SCALED  2(7)  IN METERS/CSEC
000711: 34,2542           01030                                    RN
000712: 34,2543           50256                           UNIT     DOT
000713: 34,2544           01036                                    VN
000714: 34,2545           77752                           SL1
000715: 34,2546           17741                           STODL    HDOT
000716: 34,2547           05173                                    RPAD
000717: 34,2550           77214                           BOF      VLOAD
000718: 34,2551           00355                                    AMOONFLG
000719: 34,2552           70555                                    EARTHALT
000720: 34,2553           02026                                    RLS
000721: 34,2554           60446                           ABVAL    SR2
000722: 34,2555           77621        EARTHALT           BDSU
000723: 34,2556           00045                                    36D


000725: 34,2557           03737                           STORE    ALTI
000726: 34,2560           77616                           RVQ
000727: 34,2561           31705        DELSTOR            CA       BOOSTEMP
000728: 34,2562           00006                           EXTEND                                         #  STORE DELTACDU INTO PDL 0,2,4
000729: 34,2563           20154                           MSU      MPAC
000730: 34,2564           50120                           INDEX    FIXLOC
000731: 34,2565           54000                           TS       0
000732: 34,2566           31706                           CA       BOOSTEMP   +1
000733: 34,2567           00006                           EXTEND
000734: 34,2570           20155                           MSU      MPAC       +1
000735: 34,2571           50120                           INDEX    FIXLOC
000736: 34,2572           54002                           TS       2
000737: 34,2573           31707                           CA       BOOSTEMP   +2
000738: 34,2574           00006                           EXTEND
000739: 34,2575           20156                           MSU      MPAC       +2
000740: 34,2576           50120                           INDEX    FIXLOC
000741: 34,2577           54004                           TS       4
000742: 34,2600           16030                           TCF      DANZIG
000743: 34,2601           30154        RLTST              CA       MPAC                                  #  DETERMINE IF ROLLOUT
000744: 34,2602           00006                           EXTEND                                         #  IS COMPLETED
000745: 34,2603           71701                           MP       SATRLRT    +1
000746: 34,2604           00006                           EXTEND
000747: 34,2605           66030                           BZMF     DANZIG                                #  UNLIKE SIGNS  STILL ROLLING
000748: 34,2606           22007                           ZL                                             #  ROLLOUT COMPLETED
000749: 34,2607           34772                           CAF      ZERO                                  #  ZERO OUT ROLL CONTRIBUTION
000750: 34,2610           52155                           DXCH     MPAC
000751: 34,2611           06030                           TC       DANZIG
000752: 34,2612           06006        NOPOLY             TC       INTPRET                               #  COMES HERE IF
000753: 34,2613           52001                           SETPD    GOTO                                  #  ATTITUDE HOLD
000754: 34,2614           00001                                    0
000755: 34,2615           67747                                    NOPOLYM
000756: 34,2616           01673        COEFPOLY           ADRES    POLYLOC
000757: 34,2617           01476        V06N62             VN       0662
000758: 34,2620           00006        RESCALES           EXTEND                                         #  RESCALE AK S FOR
000759: 34,2621           71720                           MP       SATSCALE                              #  NEW HARDWARE
000760: 34,2622           20001                           DDOUBL                                         #  SCALING FOR
000761: 34,2623           20001                           DDOUBL                                         #  STEERING
000762: 34,2624           00002                           TC       Q                                     #  SATURN
000763:                                                                                                  #  SATURN TAKEOVER FUNCTION
000764:                                                                                                  #  ************************
000765:                                                                                                  #
000766:                                                                                                  #  PROGRAM DESCRIPTION
000767:
000768:                                                                                                  #        MOD NUMBER 1
000769:                                                                                                  #        MOD BY ELIASSEN
000770:
000771:                                                                                                  #  FUNCTIONAL DESCRIPTION
000772:
000773:                                                                                                  #        DURING THE COASTING PHASE OF SIVB ATTACHED, THE
000774:                                                                                                  #        ASTRONAUT MAY REQUEST SATURN TAKEOVER THROUGH


000776:                                                                                                  #        EXTENDED VERB 46 (BITS 13,14 OF DAPDATR1 SET ).
000777:                                                                                                  #        THE CMC REGARDS RHC COMMANDS AS BODY-AXES RATE
000778:                                                                                                  #        COMMANDS AND IT TRANSMITS THESE TO SATURN AS DC
000779:                                                                                                  #        VOLTAGES. THE VALUE OF THE CONSTANT RATE COMMAND
000780:                                                                                                  #        IS 0.5 DEG/SEC. AN ABSENCE OF RHC ACTIVITY RE-
000781:                                                                                                  #        SULTS IN A ZERO RATE COMMAND.
000782:
000783:                                                                                                  #        THE FDAI ERROR NEEDLES WILL INDICATE THE VALUE
000784:                                                                                                  #        OF THE RATE COMMAND.
000785:
000786:                                                                                                  #  CALLING SEQUENCE
000787:
000788:                                                                                                  #        DAPFIG +9D      TC      POSTJUMP
000789:                                                                                                  #                        CADR    SATSTKON
000790:
000791:                                                                                                  #  SUBROUTINES CALLED
000792:
000793:                                                                                                  #        ENDEXT
000794:                                                                                                  #        IBNKCALL
000795:                                                                                                  #        STICKCHK
000796:                                                                                                  #        NEEDLER
000797:                                                                                                  #        T5RUPT
000798:                                                                                                  #        RESUME
000799:
000800:                                                                                                  #  ASTRONAUT REQUESTS
000801:
000802:                                                                                                  #        ENTRY -  VERB 46 ENTER
000803:                                                                                                  #                 (CONDITION - BITS 13, 14 OF DAPDATR1 SET)
000804:
000805:                                                                                                  #        EXIT  -  VERB 48 ENTER  (FLASH V06N46)
000806:                                                                                                  #                 VERB 21 ENTER  AXXXX ENTER WHERE  A=0 OR 1
000807:                                                                                                  #                 VERB 34 ENTER
000808:                                                                                                  #                 VERB 46 ENTER
000809:
000810:                                                                                                  #  NORMAL EXIT MODE
000811:
000812:                                                                                                  #                 VERB 46 ENTER  (SEE ASTRONAUT ABOVE)
000813:
000814:                                                                                                  #  ALARM OR ABORT EXIT MODES
000815:
000816:                                                                                                  #        NONE
000817:
000818:                                                                                                  #  OUTPUT
000819:
000820:                                                                                                  #        SATURN RATES IN  CDUXCMD, CDUYCMD, CDUZCMD
000821:
000822:                                                                                                  #  ERASABLE INITIALIZATION
000823:
000824:                                                                                                  #        DAPDATR1  (BITS 13,14 MUST BE SET)
000825:


000827:                                                                                                  #  DEBRIS
000828:
000829:                                                                                                  #        CENTRALS
000830:                                                                                                  #        CDUXCMD, CDUYCMD, CDUZCMD
000831:
000832: 26,2000                                           SETLOC   P11FOUR
000833: 26,2000                                           BANK
000834:
000835: 26,2000                                           COUNT*   $$/P11
000836: 26,2000           22016        REDOSAT            LXCH     BANKRUPT                              #  ALSO COMES HERE FOR RESTARTS
000837: 26,2001           00006                           EXTEND
000838: 26,2002           22012                           QXCH     QRUPT
000839: 26,2003           41501                           CS       RCSFLAGS                              #  TURN ON BIT3 OF RCSFLAGX
000840: 26,2004           74766                           MASK     BIT3                                  #  FOR
000841: 26,2005           27501                           ADS      RCSFLAGS                              #  NEEDLER INITIALIZATION
000842: 26,2006           04714                           TC       IBNKCALL
000843: 26,2007           42425                           CADR     NEEDLER                               #  DISABLE IMU ERR COUNTERS ETC.
000844: 26,2010           34760                           CAF      BIT9                                  #  SIVB
000845: 26,2011           00006                           EXTEND                                         #  TAKEOVER
000846: 26,2012           05012                           WOR      CHAN12                                #  ENABLE
000847: 26,2013           00006                           EXTEND                                         #  SET UP T5 CYCLE
000848: 26,2014           34541                           DCA      2SATSTCK
000849: 26,2015           52113                           DXCH     T5LOC
000850: 26,2016           37661                           CAF      100MST5                               #  IN 100 MSECS
000851: 26,2017           54030                           TS       TIME5
000852: 26,2020           15323                           TCF      RESUME                                #  END OF SATURN STICK INITIALIZATION
000853:
000854:                                                                                                  #                                          THIS SECTION IS EXECUTED EVERY 100 MSECS
000855:
000856: 21,2000                                           SETLOC   P11THREE
000857: 21,2000                                           BANK
000858:
000859: 21,2000                                           COUNT*   $$/P11
000860: 21,2000           22016        SATSTICK           LXCH     BANKRUPT
000861: 21,2001           00006                           EXTEND
000862: 21,2002           22012                           QXCH     QRUPT
000863:
000864: 21,2003           34540                           CAF      2SATSTCK                              #  SET UP RUPT
000865: 21,2004           54112                           TS       T5LOC                                 #  LO ORDER LOC SET
000866: 21,2005           37661                           CAF      100MST5                               #  100 MSECS
000867: 21,2006           54030                           TS       TIME5
000868: 21,2007           32031                           CAF      STIKBITS
000869: 21,2010           00006                           EXTEND
000870: 21,2011           06031                           RXOR     CHAN31                                #  CHECK IF MAN ROT BITS SAME
000871: 21,2012           72031                           MASK     STIKBITS
000872: 21,2013           04714                           TC       IBNKCALL                              #  SET RATE INDICES
000873: 21,2014           43152                           CADR     STICKCHK                              #  FOR PITCH YAW AND ROLL
000874:
000875: 21,2015           51656                           INDEX    RMANNDX                               #  SET SATURN RATES
000876: 21,2016           31710                           CA       SATRATE


000878: 21,2017           55476                           TS       AK                                    #                   ROLL
000879: 21,2020           51657                           INDEX    PMANNDX
000880: 21,2021           31710                           CA       SATRATE
000881: 21,2022           55477                           TS       AK1                                   #                   PITCH
000882: 21,2023           51660                           INDEX    YMANNDX
000883: 21,2024           31710                           CA       SATRATE
000884: 21,2025           55500                           TS       AK2                                   #                   YAW
000885:
000886: 21,2026           04714                           TC       IBNKCALL                              #  FOR SATURN INTERFACE AND FDAI DISPLAY
000887: 21,2027           42425                           CADR     NEEDLER
000888: 21,2030           15323        STICKOUT           TCF      RESUME                                #  END OF SATURN STICK CONTROL
000889:
000890: 21,2031           00077        STIKBITS           OCT      00077
000891: 21,2032     7661               100MST5            =        OCT37766
000892:    4000                                           SETLOC   FFTAG2
000893:    4000                                           BANK
000894:
000895:    4540                                           COUNT*   $$/P11
000896:    4540  E6,1704                                  EBANK=   SPOLYARG
000897:    4540           02000 42066  2SATSTCK           2CADR    SATSTICK

End of include-file P11.agc.  Parent file is MAIN.agc


