
Source Code


000002:                                                                                                  ## Copyright:   Public domain.
000003:                                                                                                  ## Filename:    P61-P67.agc
000004:                                                                                                  ## Purpose:     A section of Artemis revision 071.
000005:                                                                                                  ##              It is part of the reconstructed source code for the first
000006:                                                                                                  ##              release of the flight software for the Command Module's
000007:                                                                                                  ##              (CM) Apollo Guidance Computer (AGC) for Apollo 15 through
000008:                                                                                                  ##              17. The code has been recreated from a copy of Artemis 072.
000009:                                                                                                  ##              It has been adapted such that the resulting bugger words
000010:                                                                                                  ##              exactly match those specified for Artemis 071 in NASA
000011:                                                                                                  ##              drawing 2021154-, which gives relatively high confidence
000012:                                                                                                  ##              that the reconstruction is correct.
000013:                                                                                                  ## Reference:   792
000014:                                                                                                  ## Assembler:   yaYUL
000015:                                                                                                  ## Contact:     Ron Burkey <info@sandroid.org>.
000016:                                                                                                  ## Website:     www.ibiblio.org/apollo/index.html
000017:                                                                                                  ## Mod history: 2019-08-14 MAS  Created from Artemis 072.
000018:                                                                                                  ##              2021-05-30 ABS  DEC -> DEC* for extended address field.
000019:


000021:
000022:                                                                                                  #  PROGRAM:              P61
000023:                                                                                                  #  MOD NO.:              0       MAR. 13, 1967
000024:                                                                                                  #  MOD BY:               R. HIRSCHKOP
000025:                                                                                                  #  MOD NO: 1             MOD BY:  RR BAIRNSFATHER        DATE: 22 JUN 67         RESTARTS.
000026:                                                                                                  #  MOD NO: 2             MOD BY:  RR BAIRNSFATHER        DATE: 17 JAN 68         COLOSSUS GSOP CHANGES.
000027:                                                                                                  #  MOD NO: 3             MOD BY:  RR BAIRNSFATHER        DATE:  8 MAY 68         DELETE CMSM MANEUVER (PCR 50)
000028:                                                                                                  #  MOD NO: 4             MOD BY:  RR BAIRNSFATHER        DATE:  1 JUL 69         PCR 787: TICK TTE
000029:                                                                                                  #  FUNCTION:             TO CALCULATE AND DISPLAY EMS INITIALIZATION DATA
000030:                                                                                                  #  CALLING SEQUENCE-     BY V37
000031:                                                                                                  #  EXIT-                 TO P62
000032:                                                                                                  #  SUBROUTINE CALLS-     S61.1 , S61.3 , GOFLASH , FLAGUP , R02BOTH
000033:                                                                                                  #  ERASABLE INITIALIZATION:
000034:                                                                                                  #        EMSALT (-29) M          .05G ALTITUDE ABOVE FISCHER ELLIPSOID   PAD LOADED.
000035:                                                                                                  #        ALFAPAD /180            HYPERSONIC CM TRIM ANGLE OF ATTACK      PAD LOADED
000036:                                                                                                  #  OUTPUT:       THE FOLLOWING REGISTERS ARE WRITTEN IN FOR USE BY DISPLAYS
000037:                                                                                                  #                GMAX    100 GMAX  (-14) G,S     MAXIMUM ACCELERATION
000038:                                                                                                  #                VPRED   (-7)  M/CS              PREDICTED VELOCITY AT 400K FT
000039:                                                                                                  #                GAMMAEI GAMMA/360               PREDICTED GAMMA    AT 400K FT
000040:                                                                                                  #                RTGO    THETAH/360              RANGE ANGLE TO SPLASH FROM EMSALT       EMSALT IS PAD LOADED
000041:                                                                                                  #                VIO     (-7) M/CS               INERTIAL VELOCITY AT       EMSALT       EMSALT IS PAD LOADED
000042:                                                                                                  #                TTE     (-28) CS                TIME    TO                 EMSALT       EMSALT IS PAD LOADED
000043:                                                                                                  #                LAT(SPL) /360                   TARGET LOCATION                         LEFT BY DSKY
000044:                                                                                                  #                LNG(SPL) /360                   TARGET LOCATION                         LEFT BY DSKY
000045:                                                                                                  #                HEADSUP (0)                     +1 = LIFT DOWN, -1 = LIFT UP            LEFT BY DSKY
000046:                                                                                                  #  DEBRIS:       SEE SUBROUTINES.
000047:
000048: 26,2000                                           SETLOC   P60S
000049: 26,2000                                           BANK
000050:
000051: 26,2234  E6,1661                                  EBANK=   AOG
000052:
000053: 26,2234                                           COUNT*   $$/P61
000054:
000055: 26,2234           34753        P61                CA       BIT14                                 #  EXTENDED VERB SHOULD BE FREE THIS CLOSE
000056: 26,2235           55247                           TS       EXTVBACT                              #  TO V37
000057:                                                                                                  #  LOCK OUT EXTENDED VERBS SO CAN USE TFF
000058:                                                                                                  #  ROUTINES.EXT VERB ERASE IS USED
000059:
000060: 26,2236           44770                           CS       ONE                                   #  REMOVE IF HEADSUP EVER ON UPLINK DATA
000061: 26,2237           55726                           TS       HEADSUP                               #  PRELOAD
000062:
000063: 26,2240           02546                           TC       S61.1                                 #  CHECK STATE VECTOR AND IMU ORIENTATION
000064:                                                                                                  #  RV 60GENRET. DOES PHASCHNG, GROUP 4.
000065:
000066: 26,2241           35034                           CA       V06N61                                #  LAT(SPL)      LNG(SPL)        HEADSUP
000067:                                                                                                  #  XXX.XX DEG    XXX.XX DEG      XXXXX.
000068: 26,2242           05540                           TC       VNFLASHR
000069: 26,2243           02247                           TC       P61.4
000070: 26,2244           05402        P61.3              TC       PHASCHNG


000072: 26,2245           00014                           OCT      00014
000073:
000074: 26,2246           05205                           TC       ENDOFJOB
000075:
000076: 26,2247           22007        P61.4              ZL
000077: 26,2250           11726                           CCS      HEADSUP                               #  C(HEADSUP)= +1/-1
000078: 26,2251           34753                           CA       BIT14                                 #  IF HEADSUP POS,ROLLC =180 DEG.(LIFT DWN)
000079: 26,2252           12253                           NOOP                                           #  IF HEADSUP NEG,ROLLC =0 (LIFT UP)
000080: 26,2253           53716                           DXCH     ROLLC                                 #  ROLLC IS USED BY S62.3: GIM ANG AT .05G
000081:
000082: 26,2254           34753        AGIN,MON           CA       BIT14                                 #  LOCK OUT EXTENDED VERBS.(REDUNDANT ON
000083: 26,2255           55247                           TS       EXTVBACT                              #   INITIAL PASS)
000084:
000085: 26,2256           06006                           TC       INTPRET
000086: 26,2257           77745        NEWRNVN            DLOAD
000087: 26,2260           01044                                    PIPTIME                               #  SAVE TIME OF RN,VN TO DETERMINE IF AN
000088: 26,2261           37651                           STCALL   MM                                    #  UPDATE HAS OCCURRED
000089: 26,2262           52063                                    STARTEN1                              #  INITIALIZE
000090: 26,2263           43175                           VLOAD    CLEAR                                 #  'TTE' WILL BE DECREMENTED UNTIL
000091: 26,2264           01030                                    RN
000092: 26,2265           03274                                    .05GSW                                #  THE DRAG > 0.05 G .
000093:                                                                                                  #  .05GSW SET =1 BY  FRESH START.
000094:
000095: 26,2266           02320                           STORE    RONE
000096: 26,2267           77656                           UNIT
000097: 26,2270           26334                           STOVL    URONE
000098: 26,2271           01036                                    VN
000099: 26,2272           02326                           STORE    VONE
000100: 26,2273           53435                           VXV      UNIT
000101: 26,2274           02334                                    URONE
000102: 26,2275           03502                           STORE    UNI
000103: 26,2276           45345        DUMPP61            DLOAD    DSU
000104: 26,2277           03651                                    MM                                    #  INITIAL VALUE OF PIPTIME
000105: 26,2300           01044                                    PIPTIME
000106: 26,2301           45040                           BMN      CALRB
000107: 26,2302           54257                                    NEWRNVN                               #  UPDATED... GO TRY AGAIN
000108: 26,2303           54652                                    S61.2                                 #  GET DISPLAY DATA FOR N60 AND N63
000109:                                                                                                  #  AND RETURN IN BASIC, BELOW.
000110: 26,2304           05527        P61.1              TC       CLEARMRK
000111: 26,2305           35033                           CA       V06N60                                #  GMAX          VPRED           GAMMAEI
000112:                                                                                                  #  XXX.XX G      XXXXX. FPS      XXX.XX DEG
000113: 26,2306           05535                           TC       VNFLASH
000114:
000115:                                                                                                  #  'TICKTTE' DECREMENTS 'TTE' DISPLAY NOUN N63 AT A 2 SECOND RATE. 'TICKTTE' IS LOCATED IN 'SERVICER' AND
000116:                                                                                                  #  OPERATES ONLY DURING P61 THROUGH P63. THUS N63 IS 'ON CALL' & ON ENTRY  DOWNLIST THROUGH P63.
000117:                                                                                                  #  'TICKTTE' WILL GIVE PROPER ANSWER IN EVENT OF RESTART OR A RECYCLE VIA   V32.
000118:
000119: 26,2307           32425                           CA       V16N63                                #  RTGO          VIO             TTE
000120:                                                                                                  #  XXXX.X NM     XXXXX. FPS      XXBXX M,S
000121: 26,2310           04636                           TC       BANKCALL
000122: 26,2311           20743                           CADR     GOFLASH
000123: 26,2312           04103                           TC       GOTOPOOH


000125: 26,2313           02315                           TC       +2
000126: 26,2314           02254                           TC       AGIN,MON                              #  REDO CONIC CALC. ASSUME EXT VB INACTIVE
000127:
000128:                                                                                                  #                .... THEN FALL INTO P62
000129:


000131:
000132:                                                                                                  #  PROGRAM-              P62
000133:                                                                                                  #  MOD NO.-              0       MAR. 13, 1967
000134:                                                                                                  #  MOD BY-               R. HIRSCHKOP
000135:                                                                                                  #  MOD NO:  1            MOD BY:  RR BAIRNSFATHER        DATE: 21 MAR 67
000136:                                                                                                  #  MOD NO:  2            MOD BY:  RR BAIRNSFATHER        DATE: 22 JUN 67         RESTARTS.
000137:                                                                                                  #  MOD NO:  3            MOD BY:  RR BAIRNSFATHER        DATE: 17 JAN 68         COLOSSUS GSOP CHANGES.
000138:                                                                                                  #  MOD NO:  4            MOD BY:  RR BAIRNSFATHER        DATE:  8 MAY 68         MOVE START OF DESIRED GIMBAL CALC.
000139:                                                                                                  #  FUNCTION-             1) TO NOTIFY CREW WHEN GNC SYSTEM IS PREPARED FOR CM/SM SEPARATION
000140:                                                                                                  #                        2) TO ORIENT THE CM TO THE CORRECT ATTITUDE FOR ATMOSPHERIC ENTRY
000141:                                                                                                  #  CALLING SEQUENCE-     BY V37 OR DIRECTLY FROM P61
000142:                                                                                                  #  EXIT-                 TO P63
000143:                                                                                                  #  ERASABLE INITIALIZATION:
000144:                                                                                                  #        ALFAPAD                                         LEFT BY PAD LOAD
000145:                                                                                                  #        LADPAD                                          LEFT BY PAD LOAD
000146:                                                                                                  #        LODPAD                                          LEFT BY PAD LOAD
000147:                                                                                                  #        LAT(SPL)        (MAY BE CHANGED BELOW)          LEFT BY DSKY, VIA P61
000148:                                                                                                  #        LNG(SPL)        (MAY BE CHANGED BELOW)          LEFT BY DSKY, VIA P61
000149:                                                                                                  #        HEADSUP         (MAY BE CHANGED BELOW)          LEFT BY DSKY, VIA P61
000150:                                                                                                  #  SUBROUTINE CALLS:     NEWMODEX , S61.1 , CM/DAPIC , CM/DAPON , R02BOTH , GOPERF1 , GOFLASH , GODSPR
000151:
000152: 26,2315                                           COUNT*   $$/P62
000153:
000154: 26,2315           05344                 +2        TC       NEWMODEX                              #  MODE CHANGE IF ENTERED FROM P61
000155: 26,2316           00076                           MM       62         B-14                       #  MODE CHANGE AUTOMATIC VIA V 37.
000156: 26,2317           34770                           CA       ONE
000157: 26,2320           54332                           TS       DNLSTCOD
000158:
000159: 26,2321           02546        P62                TC       S61.1                                 #  CHECK STATE VECTOR AND IMU ORIENTATION.
000160:
000161: 26,2322           06006                           TC       INTPRET
000162: 26,2323           47131                           SSP      RTB
000163: 26,2324           03325                                    POSEXIT
000164: 26,2325           54402                                    P62.3                                 #  CALCULATE DESIRED .05G GIMBAL ANGLES,
000165:                                                                                                  #  WITHOUT DISPLAY.
000166: 26,2326           41703                                    CM/DAPIC                              #  START CM/POSE AND BODY RATE CALC
000167:
000168:                                                                                                  #  DOES 2PHSCHNG, OCT 40116, OCT 05024, OCT 13000.
000169:                                                                                                  #  CM/DAPIC SETS EBANK = EBAOG
000170:                                                                                                  #  AND RETURNS IN BASIC TO P62.2.
000171: 26,2327           00006        P62.2              EXTEND
000172: 26,2330           32431                           DCA      POSECADR                              #  CONTINUE WITH CM/POSE AFTER AV G.
000173: 26,2331           53062                           DXCH     AVEGEXIT
000174:
000175: 26,2332           32545                           CAF      OCT41                                 #  REQUEST SEPARATION
000176: 26,2333           04636                           TC       BANKCALL
000177: 26,2334           21147                           CADR     GOPERF1R
000178: 26,2335           04103                           TC       GOTOPOOH
000179: 26,2336           02341                           TC       +3                                    #  PROCEED


000181:                                                                                                  #  NOTE:  NODOFLAG WILL BE SET IN CM/DAPON. <<<
000182: 26,2337           02332                           TC       -5                                    #  ENTER
000183: 26,2340           02244                           TC       P61.3                                 #  FOR PHASCHNG AND ENDOFJOB.
000184:
000185: 26,2341           04655                 +3        TC       POSTJUMP
000186: 26,2342           41624                           CADR     CM/DAPON                              #  DISABLE RCS DAP, ENABLE ENTRY DAP AND
000187:                                                                                                  #  DO ATTITUDE HOLD.
000188:
000189:                                                                                                  #  WILL IDLE UNTIL CM/POSE DOES ONE UPDATE.
000190:                                                                                                  #  CM/DAPON DOES NO PHASCHNG.
000191:
000192: 26,2343           35034        P62.1              CA       V06N61                                #  LAT(SPL)      LNG(SPL)        HEADSUP
000193:                                                                                                  #  XXX.XX DEG    XXX.XX DEG      0000X.
000194:
000195:                                                                                                  #  TERMINATE  ATTITUDE HOLD. SET UP COMMANDS:
000196:                                                                                                  #  ROLLC,  ALFACOM,  BETACOM.   BEGIN MANUVER TO
000197:                                                                                                  #  ENTRY ATTITUDE.
000198:
000199: 26,2344           04636                           TC       BANKCALL
000200: 26,2345           20743                           CADR     GOFLASH
000201: 26,2346           02343                           TC       -3
000202: 26,2347           02351                           TC       +2
000203: 26,2350           02343                           TC       -5
000204:
000205: 26,2351           05402                           TC       PHASCHNG
000206: 26,2352           04024                           OCT      04024                                 #  USE ENTRYVN FOR DISPLAY BELOW.
000207:
000208:                                                                                                  #  EBANK WAS SET IN CM/DAPON TO EBAOG
000209:
000210: 26,2353           11726                           CCS      HEADSUP                               #  C(HEADSUP) = +/- 1
000211: 26,2354           34753                           CA       BIT14                                 #  IF HEADSUP POS, ROLLC=180 DEG (LIFT DWN)
000212: 26,2355           12356                           NOOP                                           #  IF HEADSUP NEG, ROLLC=0 DEG (LIFT UP)
000213: 26,2356           55715                           TS       ROLLC
000214: 26,2357           31411                           CA       ALFAPAD                               #  NOMINAL ALFATRIM PAD LOADED, NEG. NO.
000215: 26,2360           22007                           ZL
000216: 26,2361           53604                           DXCH     ALFACOM                               #  SET ALFACOM = ALFA TRIM, BETACOM=0
000217:
000218: 26,2362           34770                           CA       ONE                                   #  PERMITS EXDAP2 TO CHANGE FLAG TO +0
000219: 26,2363           55727                           TS       P63FLAG                               #  AS INDICATOR. STARTS UP P63.
000220:
000221: 26,2364           35025                           CA       V06N22                                #  SET UP DISPLAY FOR CDU DESIRED VALUES
000222: 26,2365           55122                           TS       ENTRYVN                               #  FROM ENTRY ATTITUDE CALC, THAT IS
000223:                                                                                                  #  ALREADY GOING.
000224: 26,2366           05547                           TC       UPFLAG                                #  TURN ON ENTRY DISPLAY
000225: 26,2367           00134                           ADRES    ENTRYDSP                              #  ENTRYDSP = 92D BIT 13 FLAG 6
000226:                                                                                                  #  SKIP


000228: 26,2370           41700                           CS       CMDAPMOD                              #  GO DIRECTLY TO P63 IF BODY ATTITUDE
000229: 26,2371           74770                           MASK     ONE                                   #  IS SUCH THAT THE DELAY TASK: WAKEP62
000230: 26,2372           00006                           EXTEND                                         #  WILL BE OMITTED.
000231: 26,2373           12422                           BZF      P63.1                                 #  DISABLE GRP 4, GO TO ENDOFJOB.
000232:                                                                                                  #  (IE, CONTINUE IF CMDAPMOD = -1, OR +0)
000233: 26,2374           02406                           TC       P63
000234:
000235:                                                                                                  #  PUT JOB TO SLEEP UNTIL VEHICLE MANUVER HAS
000236:                                                                                                  #  REDUCED ALFA TO +/-45 DEG. CONSIDER REMAINING
000237:                                                                                                  #  65 DEG (25 DEG IF ALFA NEG) TO ALFA TRIM TO
000238:                                                                                                  #  OCCUR AT 3 DEG/SEC, AND TERMINATE P62 AT THAT
000239:                                                                                                  #  TIME.
000240:                                                                                                  #  TASK WAKEP62 IS CALLED FROM ENTRY DAP.
000241:
000242: 26,2375           35052        WAKEP62            CA       PRIO13
000243: 26,2376           05121                           TC       NOVAC
000244: 26,2377  E6,1661                                  EBANK=   AOG
000245: 26,2377           02406 54066                     2CADR    P63
000246:
000247: 26,2401           05314                           TC       TASKOVER
000248:
000249:                                                                                                  #  EACH 2 SEC, CALCULATE GIMBAL ANGLES FOR ENTRY CON-
000250:                                                                                                  #  DITIONS THAT WILL HOLD IF REORIENTATION WERE MADE
000251:                                                                                                  #  AT PRESENT RN, VN. COME HERE FROM CM/POSE AND ALSO
000252:                                                                                                  #  IN KEPLER PHASE OF ENTRY.
000253:
000254: 26,2402           52131        P62.3              SSP      GOTO                                  #  SET RETURN ADDRESS SO THAT   ROUTINE
000255: 26,2403           00053                                    QPRET                                 #  GOES DIRECTLY TO ENTRY GUIDANCE EXIT
000256: 26,2404           53574                                    ENDEXIT                               #  THAT DOES ENTRY DISPLAY, GRP 5.
000257: 26,2405           20412                                    S62.3                                 #  PUT DESIRED CDU VALUES IN CPHI'S FOR
000258:                                                                                                  #  N22 DISPLAY.
000259:


000261:                                                                                                  #        P63
000262:                                                                                                  #  PROGRAM-              P63
000263:                                                                                                  #  MOD NO.-              0       MAR. 13, 1967
000264:                                                                                                  #  MOD BY-               R. HIRSCHKOP
000265:                                                                                                  #  MOD NO: 1             MOD BY: RR BAIRNSFATHER         DATE: 22 JIN 67         RESTARTS.
000266:                                                                                                  #  MOD NO: 2             MOD BY: RR BAIRNSFATHER         DATE: 14 JUL 67         REVISED RESTARTS
000267:                                                                                                  #  FUNCTION-             1) TO INITIALIZE THE ENTRY EQUATIONS
000268:                                                                                                  #                        2) TO CONTINUE TO HOLD THE CM TO THE CORRECT ATTITUDE WITH RESPECT TO THE ATMOSPHERE FOR
000269:                                                                                                  #                           THE ONSET OF ENTRY DECELERATION. ROLL ANGLE IS LIFT UP/DOWN AS SPECIFIED BY HEADSUP.
000270:                                                                                                  #                        3) TO SENSE .05G
000271:                                                                                                  #  CALLING SEQUENCE-     DIRECTLY FROM P62
000272:                                                                                                  #  EXIT-                 TO ENDOFJOB
000273:                                                                                                  #  SUBROUTINE CALLS-     NEWMODEX , GODSPR
000274:
000275: 26,2406                                           COUNT*   $$/P63
000276:
000277: 26,2406           05344        P63                TC       NEWMODEX
000278: 26,2407           00077                           MM       63         B-14
000279:
000280:                                                                                                  #  ARRIVE WITH EBANK = AOG.
000281:
000282: 26,2410           32427                           CA       ENTCADR                               #  CONTINUE AT STARTENT AFTER CM/POSE.
000283:
000284:                                                                                                  #  AT END OF STARTENT, CHANGE ADDRESS IN GOTOADDR
000285:                                                                                                  #  TO CONTINUE AT  SCALEPOP  THEREAFTER.
000286:
000287: 26,2411           55724                           TS       POSEXIT
000288:
000289: 26,2412           32426                           CA       V06N64                                #  G             VI              R TO SPLSH
000290:                                                                                                  #  XXX.XX G      XXXXX. FPS      XXXX.X NM
000291: 26,2413           55122                           TS       ENTRYVN                               #  FOR DISPLAY CALL IN OVERNOUT.
000292:
000293: 26,2414           44770                           CS       ONE                                   #  IN CASE FLAG IS LEFT AT +1 BY DAP. THE
000294: 26,2415           55727                           TS       P63FLAG                               #  -1 ASSURES THAT EXO-ATM DAP WILL NOT
000295:                                                                                                  #  CALL P63 OUT OF SEQUENCE IN P66.
000296:
000297: 26,2416           05402                           TC       PHASCHNG                              #  THIS IS REQUIRED TO PRESERVE CLEANDSP
000298: 26,2417           00004                           OCT      00004                                 #  RETURN IN EVENT OF AN EXTENDED VERB..
000299:
000300: 26,2420           04636                           TC       BANKCALL                              #  FLUSH 'N22' DISPLAY, IF ON. (OMIT
000301: 26,2421           20715                           CADR     CLEANDSP                              #  DISPLAY DURING 'STARTENT' PASS.)
000302:
000303: 26,2422           05402        P63.1              TC       PHASCHNG
000304: 26,2423           00004                           OCT      00004                                 #  DISABLE. DISPLAY RESTARTED VIA ENTRY.
000305:
000306: 26,2424           05205                           TC       ENDOFJOB
000307:
000308: 26,2425           04077        V16N63             VN       1663
000309: 26,2426           01500        V06N64             VN       0664
000310: 26,2427           52000        ENTCADR            CADR     STARTENT


000312: 26,2430  E7,1451                                  EBANK=   RTINIT                                #  TO CARY OVER INTO ENTRY STEERING.
000313: 26,2430           03404 76067  POSECADR           2CADR    CM/POSE
000314:


000316:
000317:                                                                                                  #  PROGRAM-              P64
000318:                                                                                                  #  MOD NO.-              1       SEPT. 19, 1967
000319:                                                                                                  #  MOD BY-               R. HIRSCHKOP
000320:                                                                                                  #  MOD NO: 2             MOD BY: RR BAIRNSFATHER         DATE: 8 MAY 68          REVISED COMMENTS FOR COLOSSUS
000321:                                                                                                  #  MOD NO: 3             MOD BY: RR BAIRNSFATHER         DATE: 1 MAR '69         N74
000322:                                                                                                  #  FUNCTION-             1. TO START ENTRY GUIDANCE AT .05G SELECTING ROLL ATTITUDE, CONSTANT DRAG LEVEL, AND
000323:                                                                                                  #                        DRAG THRESHOLD,  KA  , WHICH ARE KEYED TO THE .05G POINT.
000324:                                                                                                  #                        2. SELECT FINAL PHASE P67 IF V < 27000 FPS WHEN .2G OCCURS.
000325:                                                                                                  #                        3. ITERATE FOR UP-CONTROL SOLUTION  P65  IF V > 27000 FPS AND IF ALTITUDE RATE AND DRAG
000326:                                                                                                  #                        LEVEL CONDITIONS ARE SATISFIED. ENTER P65 WHEN CONSTANT DRAG CONTROLLER HAS BROUGHT RANGE
000327:                                                                                                  #                        AS PREDICTED TO WITHIN 25 NM OF DESIRED RANGE.
000328:                                                                                                  #                        4. SELECT FINAL PHASE  P67  IF NO UP-CONTROL SOLUTION EXISTS WITH VL > 18000 FPS.
000329:                                                                                                  #  CALLING SEQUENCE-     BY RTB FROM REENTRY CONTROL
000330:                                                                                                  #  EXIT-                 BACK TO REENTRY CONTROL
000331:                                                                                                  #  SUBROUTINE CALLS-     NEWMODEX
000332:
000333: 26,2000                                           SETLOC   P60S1
000334: 26,2000                                           BANK
000335:
000336:                                                                                                  #  THIS DISPLAY IS CALLED EACH PASS THROUGH STEERING. RESTART PROTECTION IS VIA STEERING.
000337:
000338: 26,2432                                           COUNT*   $$/P64
000339:
000340: 26,2432           05344        P64                TC       NEWMODEX                              #  ENTER VIA RTB WHEN .05G IS EXCEEDED.
000341: 26,2433           00100                           MM       64         B-14
000342: 26,2434           32437                           CA       V06N74                                #  ROLLC         VI              D
000343:                                                                                                  #  XXX.XX DEG    XXXXX. FPS      XXX.XX G
000344: 26,2435           55122                           TS       ENTRYVN                               #  DISPLAY VIA OVERNOUT.
000345:
000346: 26,2436           06030                           TC       DANZIG                                #  ... AND CONTINUE IN INITROLL ...
000347:
000348: 26,2437           01512        V06N74             VN       0674
000349:


000351:                                                                                                  #  PROGRAM:              P65
000352:                                                                                                  #  MOD NO:  0            MOD BY:  RR BAIRNSFATHER        DATE:  17 JAN 68        COLOSSUS GSOP ADDITION.
000353:                                                                                                  #  FUNCTION:             TO CONTINUE ENTRY GUIDANCE, USING THE UP-CONTROL PHASE TO STEER TO A CONTROLLED EXIT
000354:                                                                                                  #                        CONDITION. THIS PHASE TERMINATES  A) IF D < Q7 FPSS, GO TO P66   ,
000355:                                                                                                  #                                                          B) IF RDOT NEG, AND IF V < VL +500 FPS, GO TO P67.
000356:
000357:                                                                                                  #  CALLING SEQUENCE:     BY RTB FROM REENTRY CONTROL
000358:                                                                                                  #  EXIT:                 BACK TO REENTRY CONTROL, OR TO ENDOFJOB.
000359:                                                                                                  #  SUBROUTINE CALLS:     NEWMODEX
000360:
000361: 26,2440                                           COUNT*   $$/P65
000362:
000363: 26,2440           05344        P65                TC       NEWMODEX                              #  ENTER VIA RTB WHEN RANGE < 25 N M OF
000364: 26,2441           00101                           MM       65         B-14                       #  TARGET.
000365:
000366: 26,2442           35052                           CA       PRIO13
000367: 26,2443           05121                           TC       NOVAC
000368: 26,2444     1122                                  EBANK=   ENTRYVN
000369: 26,2444           02456 54062                     2CADR    P65.1
000370:
000371: 26,2446           05362                           TC       2PHSCHNG                              #  2 PHASE CHG REQUIRED TO PREVENT RE-
000372: 26,2447           00554                           OCT      00554                                 #  STARTING FLASHING DISPLAY TWICE.
000373: 26,2450           10035                           OCT      10035                                 #  4.55 SPOT AND SERVICER, HERE.
000374: 26,2451  01,2223               4P55SPT1           =        4.55SPOT
000375: 26,2451  01,2250               5P3SPT8            =        5.3SPOT
000376: 26,2451           06006                           TC       INTPRET
000377: 26,2452           47131                           SSP      RTB
000378: 26,2453           03646                                    GOTOADDR                              #  CHANGE ENTRY MODE TO UPCONTRL.
000379: 26,2454           53034                                    UPCONTRL
000380: 26,2455           52120                                    REFAZE10                              #  GO HERE TO REESTABLISH ENTRY SEQUENCER.
000381:                                                                                                  #  AND CONTINUE AT UPCONTRL...
000382:
000383: 26,2456           05561        P65.1              TC       DOWNFLAG
000384: 26,2457           00134                           ADRES    ENTRYDSP                              #  ENTRYDSP = 92D  BIT 13 FLAG 6
000385:
000386: 26,2460           32472                           CA       V16N69                                #  ROLLC         DL  (Q7)        VL
000387: 26,2461           04636                           TC       BANKCALL                              #  XXX.XX DEG    XXX.XX G        XXXXX. FPS
000388: 26,2462           21101                           CADR     GOFLASHR
000389: 26,2463           02460                           TC       -3                                    #  NODOFLAG IS SET..
000390: 26,2464           02467                           TC       +3
000391: 26,2465           02460                           TC       -5
000392: 26,2466           02244                           TC       P61.3                                 #  EST. GRP 4 FOR DSPLAY AND DO ENDOFJOB
000393:                                                                                                  #  IF PROCEED, CONTINUE.
000394: 26,2467           05547                           TC       UPFLAG
000395: 26,2470           00134                           ADRES    ENTRYDSP                              #  ENTRYDSP = 92D   BIT 13 FLAG 6
000396:
000397: 26,2471           02422                           TC       P63.1                                 #  DISABLE GRP 4, START UP ENTRY DISPLAY
000398:                                                                                                  #  N06V68 VIA OVERNOUT, AS USED IN P64.


000400: 26,2472           04105        V16N69             VN       1669
000401:


000403:                                                                                                  #  PROGRAM:              P66
000404:                                                                                                  #  MOD NO: 0             MOD BY: RR BAIRNSFATHER         DATE: 17 JAN 68         COLOSSUS GSOP ADDITIONS.
000405:                                                                                                  #  FUNCTION:             KEEP CM ATTITUDE IN TRIM TO THE RELATIVE VELOCITY VECTOR. ENTRY GUIDANCE STOPS GENERATING
000406:                                                                                                  #                        ROLL COMMANDS UNTIL DRAG BUILDS UP TO Q7+0.5 FPSS.
000407:                                                                                                  #  CALLING SEQUENCE:     VIA RTB FROM REENTRY CONTROL.
000408:                                                                                                  #  EXIT:                 BACK TO REENTRY CONTROL.
000409:                                                                                                  #  SUBROUTINE CALLS:     NEWMODEX
000410:
000411: 26,2473                                           COUNT*   $$/P66
000412:
000413: 26,2473           05344        P66                TC       NEWMODEX                              #  ENTER VIA RTB WHEN D < Q7 FPSS
000414: 26,2474           00102                           MM       66         B-14
000415:
000416: 26,2475           35025                           CA       V06N22                                #  OGA           IGA             MGA
000417:                                                                                                  #  XXX.XX DEG    XXX.XX DEG      XXX.XX DEG
000418: 26,2476           02502                           TC       P66END                                #  IN CASE CAME FROM P65, GO DISABLE GRP4,
000419:                                                                                                  #  AND SET ENTRYDSP TO DO DISPLAY VIA
000420:                                                                                                  #  OVERNOUT.
000421:
000422:                                                                                                  #  ... AND CONTINUE AT KEP2
000423:


000425:                                                                                                  #  P67
000426:
000427:                                                                                                  #  PROGRAM-              P67
000428:                                                                                                  #  MOD NO.-              0       MAR. 16, 1967
000429:                                                                                                  #  MOD BY-               R. HIRSCHKOP
000430:                                                                                                  #  FUNCTION-             TO TERMINATE STEERING WHEN THE CM VELOCITY WRT EARTH = 1000 FT/SEC
000431:                                                                                                  #  CALLING SEQUENCE-
000432:                                                                                                  #  EXIT-                 TO POOH
000433:                                                                                                  #  SUBROUTINE CALLS-     GOFLASH
000434:
000435:                                                                                                  #  THIS DISPLAY IS CALLED EACH PASS THROUGH STEERING. RESTART PROTECTION IS VIA STEERING.
000436:
000437: 26,2477                                           COUNT*   $$/P67
000438:
000439: 26,2477           05344        P67                TC       NEWMODEX                              #  ENTER VIA RTB
000440: 26,2500           00103                           MM       67         B-14
000441: 26,2501           32510                           CA       V06N66                                #  ROLLC         XRNGERR         DNRNGERR
000442:                                                                                                  #  XXX.XX DEG    XXXX.X NM       XXXX.X NM
000443: 26,2502           55122        P66END             TS       ENTRYVN                               #  DISPLAY VIA OVERNOUT.
000444:
000445: 26,2503           05547                           TC       UPFLAG                                #  (IN CASE CAME FROM P65. ENTRY DISPLAY
000446: 26,2504           00134                           ADRES    ENTRYDSP                              #  WILL FLUSH FLASHING DISP. IF STILL ON)
000447:                                                                                                  #  BIT 13 FLAG 6
000448: 26,2505           05402        KILLGRP4           TC       PHASCHNG                              #  DISABLE GRP4, IN CASE CAME FROM HUNTEST.
000449: 26,2506           00004                           OCT      00004                                 #  (COME TO KILLGRP4 VIA RTB, RET TO CALLER)
000450:
000451: 26,2507           06030                           TC       DANZIG                                #  ... AND CONTINUE AT PREDICT3 ...
000452:
000453: 26,2510           01502        V06N66             VN       0666
000454:
000455: 26,2000                                           SETLOC   P60S2
000456: 26,2000                                           BANK
000457:
000458: 26,2511           32544        P67.1              CA       V16N67                                #  RTOGO         LAT             LONG
000459:                                                                                                  #  XXXX.X NM     XXX.XX DEG      XXX.XX DEG
000460: 26,2512           04636                           TC       BANKCALL
000461: 26,2513           20743                           CADR     GOFLASH
000462: 26,2514           02517                           TC       +3                                    #  EFFECTIVE GOTOPOOH
000463: 26,2515           02517                           TC       +2
000464: 26,2516           02511                           TC       P67.1                                 #  REDO
000465:
000466: 26,2517           00004                           INHINT
000467: 26,2520           34767                           CA       CM/DSBIT
000468: 26,2521           64770                           AD       GYMDIBIT
000469: 26,2522           40000                           COM
000470: 26,2523           70102                           MASK     CM/FLAGS                              #  CM/DSTBY, GAMDIFSW
000471: 26,2524           54102                           TS       CM/FLAGS
000472: 26,2525           00003                           RELINT


000474: 26,2526           00006                           EXTEND
000475: 26,2527           32644                           DCA      SERVCAD2
000476: 26,2530           53062                           DXCH     AVEGEXIT
000477:
000478: 26,2531           14103                           TCF      GOTOPOOH
000479:


000481: 26,2532           43175        P67.2              VLOAD    CLEAR                                 #  CALC PRESENT LAT, LONG, ALT.
000482: 26,2533           01030                                    RN
000483: 26,2534           00662                                    ERADFLAG                              #  USE PAD RAD FOR ALT. (NOT SEEN ANYWAY)
000484: 26,2535           16152                           STODL    ALPHAV
000485: 26,2536           01044                                    PIPTIME                               #  USE TIME OF RN
000486: 26,2537           45014                           CLEAR    CALL
000487: 26,2540           01663                                    LUNAFLAG
000488: 26,2541           26453                                    LAT-LONG
000489: 26,2542           77634        P67.3              RTB                                            #  ENTRY EXIT THAT OMITS DISPLAY.
000490: 26,2543           53607                                    SERVNOUT
000491:
000492: 26,2544           04103        V16N67             VN       1667
000493: 26,2545           00041        OCT41              OCT      41
000494: 26,2546  26,2643               SERVCAD2           =        SERVCAD1
000495:


000497:                                                                                                  #  SUBROUTINE NAME:      S61.1
000498:                                                                                                  #  MOD NO:       0                                                               DATE:           21 FEB 67
000499:                                                                                                  #  MOD BY:       RR BAIRNSFATHER                                                 LOG SECTION:    P61-P67
000500:                                                                                                  #  MOD NO:       1       MOD BY: RR BAIRNSFATHER         DATE:   22 JUN 67       RESTARTS.
000501:                                                                                                  #  FUNCTIONAL DESCRIPTION:       CALLED BY BOTH P61 AND P62
000502:                                                                                                  #        FIRST, TEST TO SEE IF   AVERAGEG   IS ON. IF NOT, UPDATE THE STATE VECTOR TO PRESENT TIME + TOLERANCE
000503:                                                                                                  #        AND TURN ON   AVERAGEG   AT THAT TIME, AND CONTINUE.   OTHERWISE CONTINUE:   SEE IF   IMU Y AXIS IS
000504:                                                                                                  #        WITHIN 30 DEG OF V*R.  IF YES, EXIT SUBROUTINE S61.1.    IF NO,  SEE IF -Y AXIS OF IMU IS WITHIN
000505:                                                                                                  #        30 DEG OF V*R.  IF YES, DISPLAY ALARM:  01427   IMU REVERSED.
000506:                                                                                                  #                        IF NO, DISPLAY ALARM:   01426   IMU UNSATISFACTORY.
000507:                                                                                                  #        IN EITHER OF THESE LAST 2 CASES, WAIT  10 SEC  AND THEN EXIT SUBROUTINE  S61.1.
000508:
000509:                                                                                                  #  REMARK:       THERE WILL BE A SHORT 10 SEC DELAY IF AN ALARM EXIT IS TAKEN. THE DELAY FOR INTEGRATION IS
000510:                                                                                                  #                AS SHORT AS CAN BE MADE, BUT IS ARBITRARY SINCE IT DEPENDS ON THE AGE OF THE STATE VECTOR.
000511:
000512:                                                                                                  #  CALLING SEQUENCE:     CALL
000513:                                                                                                  #                                S61.1
000514:                                                                                                  #                        C(MPAC) UNSPECIFIED
000515:                                                                                                  #                        PUSHLOC UNSPECIFIED
000516:
000517:                                                                                                  #  SUBROUTINES CALLED:   LOADTIME, CSMPREC, TPAGREE,
000518:                                                                                                  #                        WAITLIST, JOBSLEEP, JOBWAKE, PREREAD, ALARM, GODSPR, BANKCALL, DELAYJOB
000519:                                                                                                  #  NORMAL EXIT MODES:    RVQ
000520:                                                                                                  #  ALARMS:       01426   IMU UNSATISFACTORY
000521:                                                                                                  #                01427   IMU REVERSED
000522:                                                                                                  #  OUTPUT:       POSSIBLE ALARMS
000523:                                                                                                  #                POSSIBLY TDEC1, RATT, VATT, RN, VN
000524:                                                                                                  #  ERASABLE INITIALIZATION REQUIRED:
000525:                                                                                                  #        AVEGFLAG                AVERAGEG ON OR OFF                              LEFT BY SERVICER
000526:                                                                                                  #        PIPTIME   (-28) CS      TIME OF PIPA UPDATE                             LEFT BY READACCS
000527:                                                                                                  #        RN        (-29) M       STATE VECTOR                                    LEFT BY AVERAGEG
000528:                                                                                                  #        VN        (-7) M/CS     STATE VECTOR                                    LEFT BY AVERAGEG
000529:                                                                                                  #        REFSMMAT  (-1)          .5 REF TO SM MATRIX                             LEFT BY LAST IMU ALIGNMENT
000530:
000531:                                                                                                  #  DEBRIS:       QPRET
000532:                                                                                                  #                POSSIBLY PIPTIME1, RATT, VATT, TDEC1, RN1, VN1, QTEMP, X1       IF UPDATED
000533:                                                                                                  #                PUSH LIST LOCS USED BY CSMPREC
000534:
000535: 26,2546  E6,1661                                  EBANK=   AOG                                   #  FOR 60GENRET, S61DT
000536: 26,2000                                           SETLOC   P60S3
000537: 26,2000                                           BANK
000538:
000539: 26,2546                                           COUNT*   $$/S61.1
000540:
000541: 26,2546           00006        S61.1              EXTEND
000542: 26,2547           23773                           QXCH     60GENRET                              #  SAVE RET ADDR IN EB 6
000543: 26,2550           04636                           TC       BANKCALL
000544: 26,2551           03731                           CADR     R02BOTH
000545: 26,2552           06006                           TC       INTPRET
000546:
000547: 26,2553           45014                           BON      CALRB


000549: 26,2554           00716                                    AVEGFLAG                              #  IS AVERAGEG ON
000550: 26,2555           54605                                    S61.1A                                #  YES
000551: 26,2556           27566                                    MIDTOAV2                              #  GET FUTURE STATE VECTOR SOON AS CAN
000552:
000553: 26,2557           30155                           CA       MPAC       +1                         #  RETURN INHINTED ***
000554: 26,2560           55774                           TS       S61DT                                 #  FOR RESTART.
000555: 26,2561           05233                           TC       WAITLIST
000556: 26,2562  E7,1425                                  EBANK=   DVTOTAL
000557: 26,2562           02567 54067                     2CADR    S61.1C
000558:
000559: 26,2564           05402                           TC       PHASCHNG
000560: 26,2565           40434                           OCT      40434
000561: 26,2566  01,2204               4P43SPT1           =        4.43SPOT
000562: 26,2566           05205                           TC       ENDOFJOB
000563:
000564: 26,2567           35052        S61.1C             CA       PRIO13
000565: 26,2570           05135                           TC       FINDVAC
000566: 26,2571  E6,1661                                  EBANK=   AOG
000567: 26,2571           02604 54066                     2CADR    S61.1A-1
000568:
000569: 26,2573           00006                           EXTEND
000570: 26,2574           32644                           DCA      SERVCAD1                              #  HE WHO STARTS AVERAGEG MUST SERVICE
000571: 26,2575           53062                           DXCH     AVEGEXIT                              #  THE EXIT.
000572:
000573: 26,2576           05362                           TC       2PHSCHNG
000574: 26,2577           00454                           OCT      00454
000575: 26,2600           00175                           OCT      00175
000576: 26,2601  01,2207               4P45SPT1           =        4.45SPOT
000577: 26,2601  01,2272               5P17SPT1           =        5.17SPOT
000578: 26,2601           04606                           TC       E7SETTER
000579:
000580: 26,2602           04655                           TC       POSTJUMP
000581: 26,2603           76607                           CADR     PREREAD                               #  PREREAD DOES TC TASKOVER.
000582:
000583: 26,2604           06006        S61.1A-1           TC       INTPRET
000584: 26,2605           77204        S61.1A             BOVB     VLOAD
000585: 26,2606           57544                                    TCDANZIG                              #  TURN OFF OVFIND, IF ON
000586: 26,2607           01036                                    VN                                    #  VN     (-7) M/CS
000587: 26,2610           64235                           VXV      MXV
000588: 26,2611           01030                                    RN                                    #  RN    (-29) M
000589: 26,2612           01734                                    REFSMMAT                              #  .5 UNIT MATRIX
000590: 26,2613           71256                           UNIT     DLOAD
000591: 26,2614           00160                                    MPAC       +3                         #  GET COS(THETA)/2
000592: 26,2615           43240                           BMN      DAD
000593: 26,2616           54623                                    S61.1B                                #  DO TEST ON -YSM
000594: 26,2617           14646                                    C(30)LIM                              #  = 1.0 -.5 COS(30)
000595: 26,2620           47004                           BOVB     RTB
000596: 26,2621           54642                                    RETRN1
000597: 26,2622           54627                                    RETRN3


000599: 26,2623           43276        S61.1B             DCOMP    DAD
000600: 26,2624           14646                                    C(30)LIM                              #  = 1.0 - .5 COS(30)
000601: 26,2625           77404                           BOVB     EXIT
000602: 26,2626           54632                                    RETRN2
000603:
000604: 26,2627           05671        RETRN3             TC       ALARM
000605: 26,2630           01426                           OCT      01426                                 #  IMU UNSATISFACTORY
000606: 26,2631           02634                           TC       RETRN2     +2
000607:
000608: 26,2632           05671        RETRN2             TC       ALARM
000609: 26,2633           01427                           OCT      01427                                 #  IMU REVERSED
000610:
000611: 26,2634           35023                 +2        CAF      V05N09
000612: 26,2635           04636                           TC       BANKCALL
000613: 26,2636           20710                           CADR     GODSPR                                #  DO DISPLAY
000614: 26,2637           32647                           CA       10SECS
000615: 26,2640           04636                           TC       BANKCALL
000616: 26,2641           01731                           CADR     DELAYJOB
000617:
000618: 26,2642           01773        RETRN1             TC       60GENRET
000619:
000620: 26,2643  E7,1425                                  EBANK=   DVTOTAL
000621: 26,2643           03143 76067  SERVCAD1           2CADR    SERVEXIT
000622: 26,2645           22111 17335  C(30)LIM           2DEC     .566985                               #  = 1.0 - .5 COS(30)
000623: 26,2647           01750        10SECS             DEC      1000       B-14                       #  1000 CS
000624: 26,2650           00000 13560  60SECDP            2DEC     6000       B-28                       #  6000 CS
000625:


000627:                                                                                                  #  PROGRAM NAME:         S61.2                                           DATE:           14 FEB 67
000628:                                                                                                  #  MOD NO:       1                                                       LOG SECTION:    P61-P67
000629:                                                                                                  #  MOD BY:       MORTH / BAIRNSFATHER
000630:                                                                                                  #  MOD NO: 2     MOD BY: MORTH/BAIRNSFATHER      DATE: 11 MAY 67         ADD 2ND ITER FOR ERAD AT 400K FT.
000631:                                                                                                  #  MOD NO: 3     MOD BY: RR BAIRNSFATHER         DATE: 21 NOV 67         VARIABLE MU ADDED.
000632:                                                                                                  #  MOD NO: 4     MOD BY: RR BAIRNSFATHER         DATE: 21 MAR 68         DIFFERENT EARTH/MOON SCALES IN TFF'S
000633:                                                                                                  #  FUNCTIONAL DESCRIPTION:       CALLED BY P61.  PROVIDES DISPLAYS FOR NOUNS  N60  AND  N63  .
000634:                                                                                                  #        PROGRAM CALCULATES ENTRY DISPLAY OF MAXIMUM ACCELERATION EXPECTED  (GMAX)  AND ALSO THE EXPECTED
000635:                                                                                                  #        INERTIAL VELOCITY (VPRED) AND ENTRY ANGLE  (GAMMAEI)  THAT WILL OBTAIN AT 400K FT ABOVE THE FISCHER
000636:                                                                                                  #        ELLIPSOID.  PROGRAM ALSO CALCULATES A SECOND DISPLAY RELATIVE  TO THE EMSALT  ABOVE FISCHER ELLIPSOID
000637:                                                                                                  #        AND CONSISTS OF RANGE TO SPLASH FROM NOW (RTGO) , PREDICTED INERTIAL VELOCITY (VIO) , AND THE TIME TO
000638:                                                                                                  #        GO FROM NOW (TTE) .
000639:                                                                                                  #  CALLING SEQUENCE:     CALL
000640:                                                                                                  #                                S61.2
000641:                                                                                                  #                C(MPAC) UNSPECIFIED
000642:                                                                                                  #                PUSHLOC WILL BE SET TO ZERO.
000643:
000644:                                                                                                  #  SUBROUTINES CALLED:   TFFCONIC,  CALCTFF,  TFF/TRIG,  FISHCALC,  GETERAD,  VGAMCALC
000645:                                                                                                  #  NORMAL EXIT MODES:    RTB     P61.1
000646:                                                                                                  #  ALARMS:       NONE
000647:                                                                                                  #  OUTPUT:       THE FOLLOWING REGISTERS ARE WRITTEN IN FOR USE BY DISPLAYS
000648:                                                                                                  #                GMAX    100 GMAX (-14) G,S      MAXIMUM ACCELERATION
000649:                                                                                                  #                VPRED   (-7) M/CS               PREDICTED VELOCITY AT 400K FT
000650:                                                                                                  #                GAMMAEI GAMMA/360               PREDICTED GAMMA    AT 400K FT
000651:                                                                                                  #                                                FOR TM, DP(GAMMAEI) = (GAMMAEI, RTGO) / 360
000652:                                                                                                  #                RTGO    THETAH/360              RANGE ANGLE TO SPLASH FROM EMSALT       EMSALT IS PAD LOADED
000653:                                                                                                  #                VIO     (-7) M/CS               INERTIAL VELOCITY  AT      EMSALT       EMSALT IS PAD LOADED
000654:                                                                                                  #                TTE     (-28) CS                TIME    TO                 EMSALT       EMSALT IS PAD LOADED
000655:
000656:                                                                                                  #                PUSHLOC = 0
000657:                                                                                                  #                CONIC PARAMETERS STORED IN VAC AREA (SEE TFF SUBROUTINES)
000658:                                                                                                  #  ERASABLE INITIALIZATION REQUIRED:
000659:                                                                                                  #                RONE    (-29) M                 STATE VECTOR                            LEFT BY USER
000660:                                                                                                  #                VONE    (-7)  M/CS              STATE VECTOR                            LEFT BY USER
000661:                                                                                                  #                URONE   UR/2                                                            LEFT BY USER
000662:                                                                                                  #                UNI     (-1)                    UNIT NORMAL V*R                         LEFT BY ENTRY / P61
000663:                                                                                                  #                THETAH  THETAH/360              RANGE ANGLE                             LEFT BY ENTRY / P61
000664:                                                                                                  #                UNITW   (0)                     UNIT POLAR VECTOR                       LEFT BY PAD LOAD
000665:                                                                                                  #                EMSALT  (-29) M                 EMS INTERFACE ALTITUDE                  LEFT BY PAD LOAD
000666:                                                                                                  #                                                ORBITAL REENTRY: 284643 FT,  LUNAR REENTRY: 297431 FT.
000667:                                                                                                  #  DEBRIS:       QPRET,
000668:                                                                                                  #                ALL PDL LOCATIONS ABOVE 12D, INCLUDING X1,X2,S1,S2
000669:                                                                                                  #                ALSO PDL+0 ... PDL+5, WHERE INITIAL PUSHLOC = PDL
000670:


000672:
000673:                                                                                                  #  THE FOLLOWING PUSH LIST LOCATIONS HAVE BEEN RESERVED FOR TFF ROUTINES AND ARE REPEATED HERE FOR CONVENIENCE.
000674:                                                                                                  #  OF COURSE FOR S61.2 USAGE, EARTH ORIGIN SCALING IS USED.
000675:
000676:                                                                                                  #                                BELOW   E:  IS USED FOR EARTH ORIGIN SCALE
000677:                                                                                                  #                                        M:  IS USED FOR MOON ORIGIN SCALE
000678:
000679:                                                                                                  #        RTERM   =       18D             TERMINAL RADIUS M       E:  (-29)       M:  (-27)
000680:                                                                                                  #        NRTERM  =       16D             TERMINAL RADIUS M       E:  (-29+NR)
000681:                                                                                                  #                                                                M:  (-27+NR)
000682:                                                                                                  #        RMAG1   =       12D             PRESENT RADIUS M        E:  (-29)       M:  (-27)
000683:                                                                                                  #        NRMAG   =       32D             PRESENT RADIUS M        E:  (-29+NR)
000684:                                                                                                  #                                                                M:  (-27+NR)
000685:                                                                                                  #        SDELF/2                         SIN(THETA) / 2
000686:                                                                                                  #        CDELF/2 =       14D             COS(THETA) / 2
000687:                                                                                                  #        TFFX    =       34D             X, ARGUMENT OF SERIES T(X).
000688:                                                                                                  #        TFFTEM  =       36D             ARG FOR TRANSFER ANGLE CALCULATION.
000689:                                                                                                  #        TFFNP   =       28D             LC P  M                 E:  (-38+2NR)   M:  (-36+2NR)
000690:                                                                                                  #        TFF/RTMU=       30D             1/SQRT(MU)              E:  (17)        M:  (14)
000691:                                                                                                  #        TFFVSQ  =       20D             -(VN.VN/MU)     1/M     E:  (20)        M:  (18)
000692:


000694: 26,2000                                           SETLOC   P60S2
000695: 26,2000                                           BANK
000696:
000697: 26,2652                                           COUNT*   $$/S61.2
000698:
000699:                                                                                                  #  PDL LEFT AT ZERO BY TARGETNG
000700:
000701: 26,2652           45345        S61.2              DLOAD    DSU
000702: 26,2653           02020                                    EMSALT
000703: 26,2654           15006                                    290KFT
000704: 26,2655           71244                           BPL      DLOAD
000705: 26,2656           55002                                    LUNENT
000706: 26,2657           31757                                    1/RTMU                                #  ESTABLISH MU FOR ORBITAL ENTRIES
000707: 26,2660           77624        CALLCON            CALL
000708: 26,2661           57151                                    TFFCONIC                              #  FILL VAC AREA WITH CONIC PARAMETERS
000709:
000710: 26,2662           45145                           DLOAD    CALL
000711: 26,2663           15024                                    RTRIAL                                #  1 ST GUESS AT TERMINAL RADIUS (-29)
000712: 26,2664           57261                                    CALCTFF                               #  SAVES MPAC IN RTERM  (18D)
000713:
000714: 26,2665           77624                           CALL                                           #  CALC SDELF/2, CDELF/2
000715: 26,2666           57052                                    TFF/TRIG                              #  RETURN WITH S(THETA) IN MPAC
000716:
000717: 26,2667           77624                           CALL                                           #  GET FISCHER RADIUS (-29) M
000718: 26,2670           55033                                    FISHCALC                              #  ANS IN MPAC AND IN ERADM.
000719:
000720: 26,2671           45015                           DAD      CALL
000721: 26,2672           02020                                    EMSALT
000722: 26,2673           57261                                    CALCTFF                               #  SAVES MPAC IN  RTERM  (18D)
000723:
000724: 26,2674           03733                           STORE    TTE1                                  #  USED IN TARGET ITERATION (DISPTARG)
000725: 26,2675           57415                           DAD      DCOMP                                 #  DECR 'TTE' FROM BASE 'TTE2' IN 'SERVICER
000726: 26,2676           03651                                    MM                                    #  'PIPTIME' FOR STATE VECTOR
000727:                                                                                                  #  DNLIST AND DSKY WILL USE TTE.
000728: 26,2677           03735                           STORE    TTE2                                  #  TTE=PIPTIME+TTE2=-(TTE1+MM-PIPTIME)
000729: 26,2700           77615                           DAD                                            #  DECREMENT 'TTE' FOR DISPLAY AND DOWNLINK
000730: 26,2701           01044                                    PIPTIME                               #  UNTIL SERVICER COMES ALONG.
000731: 26,2702           37727                           STCALL   TTE                                   #  'TTE' IS NEGATIVE AS IN COUNTDOWN.
000732:
000733:                                                                                                  #  TTE= TIME FROM NOW TO EMSALT +FISCHER
000734:
000735: 26,2703           57052                                    TFF/TRIG                              #  S(THETA) IN MPAC ON RETURNING
000736:                                                                                                  #  AND THETA= RANGE FROM NOW TO EMSALT
000737:
000738: 26,2704           77624                           CALL
000739: 26,2705           55033                                    FISHCALC
000740: 26,2706           77624                           CALL
000741: 26,2707           11744                                    VRCALC
000742: 26,2710           77624                           CALL


000744: 26,2711           11731                                    DISPTARG
000745: 26,2712           77624                           CALL
000746: 26,2713           11731                                    DISPTARG
000747: 26,2714           37714                           STCALL   RTGO
000748: 26,2715           55054                                    VGAMCALC
000749:
000750: 26,2716           77605                           DMP                                            #  MPAC = GAMMA
000751:                                                                                                  #  PDL0 HAS VGAM.
000752: 26,2717           43265                           BDDV     DAD
000753: 26,2720           15032                                    VEMSCON                               #  -HS D 180/PI (-14)
000754: 26,2721           00001                                    0                                     #  VGAM FROM PDL0.
000755: 26,2722           17725                           STODL    VIO                                   #  PREDICTED VELOCITY AT EMSALT.
000756:
000757:                                                                                                  #  GAMMA AND VGAM AT 300K FT ARE REQUIRED BY  GMAX
000758:                                                                                                  #  ALGORITHM.
000759:
000760: 26,2723           02240                                    ERADM                                 #  EARTH RADIUS FROM GETERAD             (-29) M
000761:                                                                                                  #  = FISCHER RADIUS  (-29)
000762: 26,2724           77615                           DAD
000763: 26,2725           06456                                    300KFT                                #  M  (-29)
000764: 26,2726           34023                           STCALL   RTERM                                 #  TERMINAL RADIUS  M  (-29)
000765:
000766: 26,2727           55051                                    PREVGAM                               #  VGAMCALC WITH NEW RTERM
000767:
000768:                                                                                                  #  VBAR = (V(FPS) - 36KF/S) / 20KF/S
000769:                                                                                                  #  GMAX = (4/(1 + 4.8 VBARSQ))(GAM -6.05 -2.4 VBARSQ) - 10(L/D - .3) + 10        ASSUME L/D = 0.3, BANK =0.
000770:
000771:                                                                                                  #  GMAXCALC
000772: 26,2730           45325                           PDDL     DSU                                   #  GAM TO PDL2
000773: 26,2731           00001                                    0                                     #  VGAM IS IN PDL0  (-7)
000774: 26,2732           15010                                    36KFT/S                               #  (-7)   M/CS
000775: 26,2733           63471                           DDV      DSQ
000776: 26,2734           15012                                    20KFT/S                               #  (-6)   M/CS
000777: 26,2735           00001                           STORE    0                                     #  VBARSQ  (-2)  TO PDL0
000778:
000779: 26,2736           43205                           DMP      DAD
000780: 26,2737           15014                                    KR1
000781:                                                                                                  #  GAM,    POS DOWN, FROM PDL2
000782: 26,2740           41215                           DAD      DMP
000783: 26,2741           15016                                    -6.05DEG
000784: 26,2742           15020                                    KR2
000785: 26,2743           77725                           PDDL                                           #  XCH PDL+0 FOR VBARSQ  (-2)
000786: 26,2744           43271                           DDV      DAD
000787: 26,2745           15030                                    KR4
000788: 26,2746           31771                                    DP2(-4)
000789: 26,2747           77665                           BDDV
000790:                                                                                                  #  NUM FROM PDL+0
000791: 26,2750           51015                           DAD      BPL
000792: 26,2751           15022                                    KR3


000794: 26,2752           54755                                    +3
000795: 26,2753           77745                           DLOAD
000796: 26,2754           15336                                    HI6ZEROS
000797: 26,2755           17722                           STODL    GMAX                                  #  100 GMAX  (-14)
000798:
000799:                                                                                                  #  DISPLAY USES GMAX AS SP, SO LO WORD IS WRITTEN OVER BY VPRED.
000800:
000801: 26,2756           02240                                    ERADM                                 #  = FISCHER RADIUS  (-29) M
000802: 26,2757           45015                           DAD      CALL                                  #  2 ND ITERATION FOR FISCHER RADIUS
000803: 26,2760           15026                                    400KFT
000804: 26,2761           57261                                    CALCTFF                               #  ESTABLISH TRANSFER ANGLE DATA.
000805: 26,2762           77624                           CALL
000806: 26,2763           57052                                    TFF/TRIG                              #  GET SIN, COS DELF
000807: 26,2764           77624                           CALL
000808: 26,2765           55033                                    FISHCALC                              #  GET CORRESPONDING FISCHER RADIUS.
000809:
000810: 26,2766           73015                           DAD      LXA,2                                 #  SAVE HI-WORD FOR DOWNLIST.
000811: 26,2767           15026                                    400KFT                                #  M  (-29)
000812: 26,2770           03713                                    RTGO                                  #  (RANGE ANGLE FROM EMSALT)/360
000813: 26,2771           34023                           STCALL   RTERM
000814: 26,2772           55051                                    PREVGAM                               #  VGAMCALC WITH NEW RTERM
000815:
000816: 26,2773           67076                           DCOMP    SXA,2                                 #  HI-WORD OF EACH ON DOWNLIST.
000817: 26,2774           00155                                    MPAC       +1
000818: 26,2775           17761                           STODL    GAMMAEI                               #  CONIC GAMMA/360 AT 400K FT.   ( HI-WORD)
000819:                                                                                                  #  CONIC RTGO/360 FROM EMSALT    (LOW-WORD)
000820:                                                                                                  #  FOR TM, DP(GAMMAEI) = (GAMMA, RTGO)/360
000821:
000822:                                                                                                  #  VGAM FROM PDL+0   (-7)
000823: 26,2776           77626                           STADR
000824: 26,2777           74020                           STORE    VPRED                                 #  CONIC VELOCITY AT 400K FT
000825:
000826: 26,3000           77634                           RTB
000827: 26,3001           54304                                    P61.1
000828:                                                                                                  #  PDL BACK TO ZERO.
000829:
000830: 26,3002           52145        LUNENT             DLOAD    GOTO
000831: 26,3003           06452                                    1/RTMUE                               #  ESTABLISH MU FOR LUNAR TYPE ENTRIES
000832: 26,3004           54660                                    CALLCON
000833: 26,3005           00002 26244  290KFT             2DEC     88392.0    B-29
000834: 26,3007           33335 05707  36KFT/S            2DEC     109.728    B-7                        #  (-7) M/CS = 36 KFT/S (-7)
000835: 26,3011           36365 30244  20KFT/S            2DEC     121.92     B-7                        #  (-6) M/CS = 2 20KFT/S  (-7)
000836: 26,3013           77113 42770  KR1                2DEC     -.026666667                            #  = -2.4 4 / 360
000837: 26,3015           77354 65030  -6.05DEG           2DEC     -.016805556                            #  = -6.05 / 360
000838: 26,3017           21450 00001  KR2                2DEC     .54931641                             #  = (360/4) 100 (-14) = 9000 B-14


000840: 26,3021           01750 00000  KR3                2DEC     1000       B-14                       #  = 100 (10.0) (-14) G,S
000841:                                                                                                  #  ASSUMES L/D = 0.3, BANK =0.
000842: 26,3023           00305 04541  RTRIAL             2DEC     6460097.18 B-29                       #  RPAD +284643 FT =21 194 545 FT
000843:                                                                                                  #  RPAD DEFINED AS 20 909 901.57 FT =6 373 338 M
000844: 26,3025           00003 27040  400KFT             2DEC     121920     B-29                       #  METERS
000845:
000846:                                                                                                  #  300KFT        2DEC    91440 B-29      (-29)  M
000847:
000848:                                                                                                  #  EMSALT        2DEC    86759.2 B-29    284643 FT (-29) M       (ORBITAL REENTRY)
000849:
000850:                                                                                                  #  EMSALT        2DEC    90657 B-29      297431 FT (-29) M       (LUNAR REENTRY)
000851:
000852: 26,3027           32525 12525  KR4                2DEC     .833333333
000853: 26,3031  23,2455               300KFT             EQUALS   MINPERE
000854: 26,3031           77777 76601  VEMSCON            2DEC     -.0389676  B-14                       #  = -HS D / 2 PI (-14)  M SQ / CS SQ
000855:                                                                                                  #  =- 16369      .05G    32.2    .3048   .3048/2 PI      (-14)
000856:


000858:                                                                                                  #  SUBROUTINE NAME:  FISHCALC            (USED BY S61.2)                 DATE:           01.21.67
000859:                                                                                                  #  MOD NO: 0                                                             LOG SECTION:    P61-P67
000860:                                                                                                  #  MOD BY: MORTH / BAIRNSFATHER
000861:                                                                                                  #  MOD NO: 1     MOD BY: RR BAIRNSFATHER         DATE:   11 MAY 67       INCLUDE GETERAD CALL
000862:                                                                                                  #  FUNCTIONAL DESCRIPTION:  GIVEN THE PRESENT POSITION, UNITR, CALCULATE A NEW UNITR THAT IS ROTATED THROUGH
000863:                                                                                                  #        TRANSFER ANGLE, THETA, ALONG TRAJECTORY. THEN CALCULATE  SIN(LAT)  AND USE TO OBTAIN FISCHER RADIUS.
000864:
000865:                                                                                                  #        SINCE FISHCALC USES UNI (LEFT BY ENTRY) EARTH SCALING IS ASSUMED. (WILL IMPROVE FOR SUITABLE TENNANT)
000866:
000867:                                                                                                  #  CALLING SEQUENCE:     CALL
000868:                                                                                                  #                                FISHCALC
000869:                                                                                                  #        ENTER WITH .5 SIN(THETA) IN MPAC.
000870:                                                                                                  #        PUSHLOC IS AT PDL+0, AN ARBITRARY BASE VALUE IF LEQ 8D
000871:
000872:                                                                                                  #  SUBROUTINES CALLED:   GET ERAD
000873:                                                                                                  #  NORMAL EXIT MODE:     RVQ
000874:                                                                                                  #  EXIT MODES:           NONE
000875:                                                                                                  #  OUTPUT:       ERADM  (-29) M   IN MPAC ON RETURNING
000876:                                                                                                  #                NEW UNIT VECTOR NOT SAVED.
000877:                                                                                                  #                SIN(LAT) NOT SAVED.
000878:                                                                                                  #                PUSHLOC AT PDL+0
000879:
000880:                                                                                                  #  ERASEABLE INITIALIZATION REQUIRED:
000881:                                                                                                  #                SDELF/2         =SIN(THETA) /2, IN MPAC                 LEFT BY TFF/TRIG
000882:                                                                                                  #                CDELF/2         =COS(THETA) /2, STORED IN PDL 14D       LEFT BY TFF/TRIG
000883:                                                                                                  #                RONE            (-29) M                                 LEFT BY USER
000884:                                                                                                  #                VONE            (-7)  M/CS                              LEFT BY USER
000885:                                                                                                  #                URONE           UR/2                                    LEFT BY USER
000886:                                                                                                  #                UNI             .5 UNIT(V*R)                            LEFT BY ENTRY / P61
000887:                                                                                                  #                UNITW           UNIT NORTH POLE                         LEFT BY PAD LOAD
000888:                                                                                                  #  DEBRIS:       QPRET, PDL+0 ... PDL+5
000889:
000890:                                                                                                  #  -      -          -
000891: 26,3033           47315        FISHCALC           PDVL     VXV                                   #  URPR = UR CDELF + UHOR SDELF
000892: 26,3034           02334                                    URONE
000893: 26,3035           03502                                    UNI
000894: 26,3036           76561                           VXSC     VSL1
000895:                                                                                                  #  SIN(THETA) / 2 FROM PDL+0
000896: 26,3037           74315                           PDVL     VXSC                                  #  TO PDL+0, +5
000897: 26,3040           02334                                    URONE
000898: 26,3041           00017                                    CDELF/2                               #  COS(THETA) /2
000899: 26,3042           45455                           VAD      STADR
000900: 26,3043           74235                           STORE    URH                                   #  FOR USE IN RTGO FROM EMS DISPLAY
000901: 26,3044           72441                           DOT      SL1
000902: 26,3045           01712                                    UNITW                                 #  FULL UNIT VECTOR      UNIT NORTH
000903: 26,3046           02156                           STORE    ALPHAV     +4                         #  = .5 SIN(LAT)
000904: 26,3047           77650        DUMPFISH           GOTO
000905: 26,3050           26570                                    GETERAD                               #  SAVES FISCHER RAD (-29) M IN ERADM AND
000906:                                                                                                  #  IN MPAC. RETURNS TO CALLER VIQ QPRET.
000907:


000909:                                                                                                  #  SUBROUTINE NAME:  VGAMCALC            (USED BY S61.2)                 DATE:           01.21.67
000910:                                                                                                  #  MOD NO: 0                                                             LOG SECTION:    P61-P67
000911:                                                                                                  #  MOD BY: MORTH / BAIRNSFATHER
000912:                                                                                                  #  MOD NO: 1     MOD BY: RR BAIRNSFATHER         DATE: 11 APR 67
000913:                                                                                                  #  MOD NO: 2     MOD BY: RR BAIRNSFATHER         DATE: 21 NOV 67         VARIABLE MU ADDED.
000914:                                                                                                  #  MOD NO: 3     MOD BY: RR BAIRNSFATHER         DATE: 21 MAR 68         ACCEPT DIFFERENT EARTH/MOON SCALE
000915:                                                                                                  #  FUNCTIONAL DESCRIPTION:       EARTH CENTERED VIS VIVA CALCULATION OF TERMINAL VELOCITY AND GAMMA (REL TO
000916:                                                                                                  #        HORIZONTAL)  GIVEN  THE SCALAR QUANTITIES:  PRESENT RADIUS AND VELOCITY AND THE TERMINAL RADIUS.
000917:                                                                                                  #        THE USER MUST APPEND PROPER SIGN TO GAMMA, SINCE IT IS CALCULATED AS A POSITIVE NUMBER.
000918:                                                                                                  #        THE EQUATIONS ARE
000919:
000920:                                                                                                  #                VGAM = SQRT(VN VN/MU + 2(RN-RTERM)/(RN RTERM) ) RTMU
000921:
000922:                                                                                                  #                COSGAM = H /RTERM VGAM = SQRT(LCP)/ (RTERM VGAM/RTMU)
000923:
000924:                                                                                                  #        VGAMCALC ASSUMES THAT THE TERMINAL RADIUS IS LESS THAN THE PRESENT RADIUS. BOTH CALCTFF AND CALCTPER
000925:                                                                                                  #        MAKE THIS ASSUMPTION.
000926:
000927:                                                                                                  #  CALLING SEQUENCE:     CALL                    STCALL  RTERM
000928:                                                                                                  #                                VGAMCALC                PREVGAM
000929:                                                                                                  #        PUSHLOC AT PDL+0, ARBITRARY  IF LEQ 12D
000930:                                                                                                  #        C(MPAC) UNSPECIFIED                     C(MPAC)=NEW RTERM
000931:
000932:                                                                                                  #  SUBROUTINES CALLED:   NONE
000933:                                                                                                  #  NORMAL EXIT MODE:     RVQ
000934:                                                                                                  #  ALARMS:       NONE
000935:                                                                                                  #  OUTPUT:       GAMMA / 360 IN MPAC, POSITIVE NUMBER
000936:                                                                                                  #                VGAM    E:(-7)    M:(-5)        M/CS  IN PDL+0
000937:                                                                                                  #                PUSHLOC AT PDL+2
000938:                                                                                                  #  ERASABLE INITIALIZATION REQD:
000939:                                                                                                  #        TFF/RTMU  E:(17)  M:(14)        1/SQRT(MU)                              LEFT BY TFFCONIC.
000940:                                                                                                  #        RMAG1     E:(-29) M:(-27)       M  PRESENT RADIUS LENGTH                LEFT BY TFFCONIC
000941:                                                                                                  #        NRMAG     E:(-29+NR)            M  NORM LENGTH OF PRESENT POSITION      LEFT BY TFFCONIC
000942:                                                                                                  #                  M:(-27+NR)
000943:                                                                                                  #        RTERM     E:(-29) M:(-27)       M  TERMINAL RADIUS LENGTH               LEFT BY CALCTFF
000944:                                                                                                  #        NRTERM    E:(-29+NR)            M  NORM LENGTH OF TERMINAL RADIUS       LEFT BY CALCTFF
000945:                                                                                                  #                  M:(-27+NR)
000946:                                                                                                  #        TFFVSQ    E:(20)  M:(18)        1/M  -(V SQ/MU): PRESENT VELOCITY, NORM LEFT BY TFFCONIC
000947:                                                                                                  #        TFFNP     E:(-38+2NR)           M  LCP, SEMI-LATUS RECTUM, WEIGHT NR    LEFT BY TFFCONIC
000948:                                                                                                  #                  M:(-36+2NR)
000949:                                                                                                  #  DEBRIS:       QPRET,   PDL+0 ... PDL+3
000950:                                                                                                  #                RTERM,  NRTERM  IF PREVGAM ENTERED.


000952:
000953: 26,3051           77657        PREVGAM            SL*                                            #  ENTER WITH NEW RTERM IN MPAC
000954:                                                                                                  #  E: (-29)  M: (-27)
000955: 26,3052           20201                                    0,1                                   #  X1 = -NR
000956: 26,3053           00021                           STORE    NRTERM                                #  RTERM  M              E: (-29+NR)     M: (-27+NR)
000957:
000958: 26,3054           41345        VGAMCALC           DLOAD    DMP
000959: 26,3055           00041                                    NRMAG                                 #  RMAG  M               E: (-29+NR)     M: (-27+NR)
000960: 26,3056           00021                                    NRTERM                                #  RTERM  M              E: (-29+NR)     M: (-27+NR)
000961: 26,3057           45325                           PDDL     DSU                                   #  RMAG RTERM M          E: (-58+2NR)    M: (-54+2NR)
000962: 26,3060           00041                                    NRMAG                                 #  RMAG  M               E: (-29+NR)     M: (-27+NR)
000963: 26,3061           00021                                    NRTERM                                #  RTERM  M              E: (-29+NR)     M: (-27+NR)
000964: 26,3062           56257                           SL*      DDV                                   #  2(RN-RTERM)           E: (-30+NR)     M: (-28+NR)
000965: 26,3063           20171                                    0          -8D,1                      #  (-8+NR)
000966:                                                                                                  #  PUSH UP PRODUCT.
000967: 26,3064           77625                           DSU
000968: 26,3065           00025                                    TFFVSQ                                #  -(V SQ/MU)            E: (20)         M: (18)
000969: 26,3066           41566                           SQRT     PUSH                                  #  SAVE VGAM/RT(MU) FOR NOW. E: (10)     M: (9)
000970: 26,3067           65271                           DDV      PDDL                                  #  XCH PDL+0, LEAVING VGAM FOR OUTPUT.
000971:                                                                                                  #  VGAM TO PDL M/CS      E: (-7)         M: (-2)
000972: 26,3070           00037                                    TFF/RTMU                              #                        E: (17)         M: (14)
000973: 26,3071           65205                           DMP      PDDL                                  #  RTERM VGAM/RTMU       E: (-19+NR)     M: (-18+NR)
000974: 26,3072           00021                                    NRTERM                                #  RTERM  M              E: (-29+NR)     M: (-27+NR)
000975: 26,3073           00035                                    TFFNP                                 #  LC P =H.H/MU  M       E: (-38+2NR)    M: (-36+2NR)
000976: 26,3074           56366                           SQRT     DDV                                   #                        E: (-19+NR)     M: (-18+NR)
000977:                                                                                                  #  PUSH UP DEN           E: (-19+NR)     M: (-18+NR)
000978:                                                                                                  #  USE DDV OVFL AS LIMITER (|COS| <1.0)
000979: 26,3075           65542                           SR1      ACOS
000980: 26,3076           77616        DUMPVGAM           RVQ
000981:                                                                                                  #  CALLER MUST SUPPLY OWN SIGN ...
000982:                                                                                                  #                        22W     27MS
000983:


000985:                                                                                                  #  SUBROUTINE NAME:      TFF/TRIG        (USED BY S61.2)         DATE            01.17.67
000986:                                                                                                  #  MOD NO: 0                                                     LOG SECTION:    P61-P67
000987:                                                                                                  #  MOD BY: RR BAIRNSFATHER
000988:                                                                                                  #  MOD NO: 1     MOD BY: RR BAIRNSFATHER         DATE: 14 APR 67
000989:                                                                                                  #  MOD NO: 2     MOD BY: RR BAIRNSFATHER         DATE: 21 MAR 68         ACCEPT DIFFERENT EARTH/MOON SCALE
000990:                                                                                                  #  FUNCTIONAL DESCRIPTION:       USED BY ENTRY DISPLAY TO CALCULATE SIN(THETA), COS(THETA) FROM DATA LEFT IN
000991:                                                                                                  #        PDL BY TFF SUBROUTINES.  THE EQNS ARE
000992:
000993:                                                                                                  #                COS(THETA) = 1-2 ABS(ARG) / (RN RTERM (1+X) )
000994:                                                                                                  #                                                2
000995:                                                                                                  #                SIN(THETA) = SGN(ARG) SQRT(1-COS (THETA) )
000996:
000997:                                                                                                  #        WHERE   THETA = TRANSFER ANGLE
000998:                                                                                                  #        AND     ARG = P Z ABS(Z)                        IF ALFA ZZ   LEQ 1
000999:                                                                                                  #                ARG = (P / ALFA) SGN(Q1 + R 1/Z)        IF ALFA Z Z   G  1
001000:                                                                                                  #        AND  ARG  HAS BEEN AFFIXED WITH THE SIGN OF SIN(THETA).
001001:                                                                                                  #  CALLING SEQUENCE:     CALL
001002:                                                                                                  #                                TFF/TRIG
001003:                                                                                                  #                PUSHLOC AT PDL+0, ARBITRARY IF NOT EQ 14D
001004:                                                                                                  #                C(MPAC) UNSPECIFIED
001005:
001006:                                                                                                  #  SUBROUTINES CALLED:   NONE
001007:                                                                                                  #  NORMAL EXIT MODES:    RVQ
001008:                                                                                                  #  ALARMS:       NONE
001009:                                                                                                  #  OUTPUT:       C(MPAC) = .5 SIN(THETA)
001010:                                                                                                  #                CDELF/2 = .5 COS(THETA)         (IN PDL 14D)
001011:                                                                                                  #                PUSHLOC AT PDL+0
001012:                                                                                                  #  ERASABLE INITIALIZATION REQUIRED:
001013:                                                                                                  #                TFFX                    X                                       LEFT BY CALCTFF OR CALCTPER
001014:                                                                                                  #                TFFTEM  E: (-59+2NR)    ARG                                     LEFT BY CALCTFF OR CALCTPER
001015:                                                                                                  #                        M: (-55+2NR)    WHERE ARG = LCP ZZ SGN(DELF) OR ARG = LCP/ALFA SGN(DELF)
001016:                                                                                                  #                NRTERM  E: (-29+NR)     M  NORM LENGTH OF TERMINAL RADIUS       LEFT BY CALCTFF OR CALCTPER
001017:                                                                                                  #                        M: (-27+NR)
001018:                                                                                                  #                NRMAG   E: (-29+NR)     M  NORM LENGTH OF PRESENT POSITION      LEFT BY TFFCONIC
001019:                                                                                                  #                        M: (-27+NR)
001020:                                                                                                  #  DEBRIS:       QPRET, CDELF/2
001021:
001022: 27,2000                                           SETLOC   P60S5
001023: 27,2000                                           BANK
001024: 27,3052                                           COUNT*   $$/S61.2
001025: 27,3052           70545        TFF/TRIG           DLOAD    SR1
001026: 27,3053           00043                                    TFFX
001027: 27,3054           41215                           DAD      DMP
001028: 27,3055           15334                                    HIDPHALF
001029: 27,3056           00041                                    NRMAG                                 #  RMAG  M               E: (-29+NR)     M: (-27+NR)
001030: 27,3057           55205                           DMP      BDDV
001031: 27,3060           00021                                    NRTERM                                #  RTERM  M              E: (-29+NR)     M: (-27+NR)
001032: 27,3061           00045                                    TFFTEM                                #  P ZSQ OR P/ALFA       E: (-59+2NR)    M: (-55+2NR)
001033: 27,3062           44246                           ABS      BDSU                                  #  THE SIGN IS FOR SDELF.
001034: 27,3063           15334                                    HIDPHALF
001035: 27,3064           00017                           STORE    CDELF/2                               #  .5 COS(THETA)
001036: 27,3065           57516                           DSQ      DCOMP                                 #  KEEP HONEST FOR SQRT.


001038: 27,3066           75415                           DAD      SQRT
001039: 27,3067           15326                                    HIDP1/4
001040: 27,3070           43565        DUMPTRIG           SIGN     RVQ
001041: 27,3071           00045                                    TFFTEM                                #  AFFIX SIGN(DELE/2)
001042:                                                                                                  #  RETURN WITH .5 SIN(THETA) IN MPAC
001043:
001044: 04,2000                                           SETLOC   P60S6
001045: 04,2000                                           BANK
001046:
001047: 04,3731                                           COUNT*   $$/S61.1
001048:                                                                                                  #                        16W     15MS
001049:
001050: 04,3731           77620        DISPTARG           STQ                                            #  C(MPAC) = TRGO ESTIMATE
001051: 04,3732           03373                                    60GENRET
001052: 04,3733           43205                           DMP      DAD                                   #  (TTE1 IS POSITIVE)
001053: 04,3734           11752                                    KTETA1
001054: 04,3735           03733                                    TTE1
001055: 04,3736           37606                           STCALL   DTEAROT
001056: 04,3737           46223                                    EARROT2
001057: 04,3740           77624                           CALL
001058: 04,3741           11744                                    VRCALC
001059: 04,3742           77650                           GOTO
001060: 04,3743           03373                                    60GENRET
001061: 04,3744           50375        VRCALC             VLOAD    DOT
001062: 04,3745           03542                                    URH
001063: 04,3746           03474                                    RT
001064: 04,3747           65512                           SL2      ACOS
001065: 04,3750           77616                           RVQ
001066: 04,3751           00052 05716  KTETA1             2DEC*    .421844723 E2         B-14*           #  1100 2PI/16384(163.84)
001067:                                                                                                  #  END OF PROGRAM S61.2
001068:


001070:                                                                                                  #  PROGRAM DESCRIPTION S62.3     DATE 10JAN67
001071:                                                                                                  #  MOD NO 1                      LOG SECTION P60-P67
001072:                                                                                                  #  MOD BY ZELDIN
001073:                                                                                                  #  MOD NO: 2     MOD BY: RR BAIRNSFATHER         DATE: 15 MAY 67         CHANGED TO REF COORDS.
001074:                                                                                                  #  MOD NO: 3     MOD BY: RR BAIRNSFATHER         DATE: 17 JAN 68         ALFAPAD CHANGES MADE.
001075:                                                                                                  #  FUNCTIONAL DESCRIPTION
001076:                                                                                                  #        COMPUTE DESIRED GIMBOL ANGLES FOR ENTRY ATTITUDE
001077:                                                                                                  #        THE FOLLOWING TRAJECTORY TRIAD IS AVAILABLE IN MEMORY AND IS COMPUTED EACH 2 SECONDS BY  CM/POSE  IN
001078:                                                                                                  #        REFERENCE COORDINATES (V = VELOCITY RELATIVE TO EARTH) :
001079:
001080:                                                                                                  #                UXA = -UNIT(V)
001081:                                                                                                  #                UYA =  UNIT(V*R)
001082:                                                                                                  #                UZA =  UXA*UYA
001083:
001084:                                                                                                  #        GENERATE A DESIRED BODY TRIAD FOR TRIMMED FLIGHT WITH RESPECT TO THE RELATIVE VELOCITY VECTOR, USING
001085:                                                                                                  #        ROLL COMMAND AND TRIM ANGLE OF ATTACK:
001086:
001087:                                                                                                  #                UXD = UNIT(UYD*UXA) SIN(ALFATRIM) + UXA COS(ALFATRIM)
001088:                                                                                                  #                UYD = UYA COS(ROLLC) + UZA SIN(ROLLC)
001089:                                                                                                  #                UZD = UXD * UYD
001090:
001091:                                                                                                  #        USE THE DESIRED SET (IN REFERENCE COORDS) AND  REFSMMAT  TO CALL  CALCGA  AND OBTAIN GIMBAL ANGLES
001092:                                                                                                  #        IN 2S,C IN MPAC, +2 AND THETAD, +2.
001093:
001094:                                                                                                  #  CALLING SEQUENCE
001095:                                                                                                  #        L       CALL
001096:                                                                                                  #        L+1             S62.3
001097:                                                                                                  #  NORMAL EXIT MODE
001098:                                                                                                  #        RETURN VIA QPRET DIRECTLY FROM CALCGA.
001099:                                                                                                  #  SUBROUTINES CALLED
001100:                                                                                                  #        CALCGA
001101:                                                                                                  #  ALARM OR ABORT MODES
001102:                                                                                                  #        NONE
001103:                                                                                                  #  ERASABLE INITIALIZATION REQUIRED
001104:                                                                                                  #        ROLLC   ROLL COMMAND            DP 1:S COMP AT 1REV
001105:                                                                                                  #        ALFAPAD SP 1S,C /180            LEFT BY PAD LOAD        ALFATRIM IS NEGATIVE.
001106:                                                                                                  #        UXA/2   REF COORDS              LEFT BY CM/POSE
001107:                                                                                                  #        UYA/2   REF COORDS              LEFT BY CM/POSE
001108:                                                                                                  #        UZA/2   REF COORDS              LEFT BY CM/POSE
001109:                                                                                                  #  OUTPUT
001110:                                                                                                  #        CPHI    GIMBAL ANGLES (O,I,M) 2:S COMP TP (O,I,M)/180
001111:                                                                                                  #  DEBRIS
001112:                                                                                                  #        QTEMP, QPRET, PUSHLIST
001113:
001114: 10,2000                                           SETLOC   P60S4
001115: 10,2000                                           BANK
001116:
001117: 10,2412                                           COUNT*   $$/S62.3
001118:


001120: 10,2412           67201        S62.3              SETPD    SLOAD
001121: 10,2413           00001                                    0
001122: 10,2414           03012                                    ALFAPAD                               #  ALFATRIM /180, ALFA IS NEG.
001123: 10,2415           41542                           SR1      PUSH
001124: 10,2416           65346                           COS      PDDL                                  #  XCH PDL, COS TO PDL0
001125: 10,2417           65356                           SIN      PDDL                                  #  SIN TO PDL2
001126: 10,2420           03316                                    ROLLC
001127: 10,2421           74346                           COS      VXSC
001128: 10,2422           03550                                    UYA/2                                 #                                REF COORDS
001129: 10,2423           73525                           PDDL     SIN                                   #  PUSH VECTOR INTO PDL4,.9
001130: 10,2424           03316                                    ROLLC
001131: 10,2425           53361                           VXSC     VAD
001132: 10,2426           03556                                    UZA/2                                 #                                REF COORDS
001133:                                                                                                  #  VECTOR FROM PDL4, 9
001134: 10,2427           77772                           VSL1
001135: 10,2430           02722                           STORE    YNB                                   #  = UYD                         REF COORDS
001136:
001137: 10,2431           76435                           VXV      VSL1
001138: 10,2432           03542                                    UXA/2                                 #                                REF COORDS
001139: 10,2433           65361                           VXSC     PDDL
001140:                                                                                                  #  SIN TRIM FROM PDL2
001141:                                                                                                  #  XCH PDL0 FOR COS TRIM
001142: 10,2434           53361                           VXSC     VAD
001143: 10,2435           03542                                    UXA/2                                 #                                REF COORDS
001144:                                                                                                  #  FROM PDL0
001145: 10,2436           77772                           VSL1
001146: 10,2437           02714                           STORE    XNB                                   #  X SC AXIS (.5 UNIT)           REF COORDS
001147:
001148: 10,2440           76435                           VXV      VSL1
001149: 10,2441           02722                                    YNB
001150: 10,2442           26730                           STOVL    ZNB                                   #  Z SC IN REF COOR. SCALED AT 2
001151: 10,2443           01734                                    REFSMMAT
001152: 10,2444           26672                           STOVL    XSM
001153: 10,2445           01742                                    REFSMMAT   +6
001154: 10,2446           26700                           STOVL    YSM
001155: 10,2447           01750                                    REFSMMAT   +12D
001156: 10,2450           02706                           STORE    ZSM
001157:
001158: 10,2451           77650                           GOTO
001159: 10,2452           47344                                    CALCGA
001160:                                                                                                  #  CALCGA WILL RETURN TO ORIGINAL CALLER
001161:                                                                                                  #  VIA QPRET WITH 2,S COMP. ANGLES IN CPHI

End of include-file P61-P67.agc.  Parent file is MAIN.agc


