
Source Code


000002:                                                                                                  ## Copyright:   Public domain.
000003:                                                                                                  ## Filename:    P76.agc
000004:                                                                                                  ## Purpose:     A section of Artemis revision 071.
000005:                                                                                                  ##              It is part of the reconstructed source code for the first
000006:                                                                                                  ##              release of the flight software for the Command Module's
000007:                                                                                                  ##              (CM) Apollo Guidance Computer (AGC) for Apollo 15 through
000008:                                                                                                  ##              17. The code has been recreated from a copy of Artemis 072.
000009:                                                                                                  ##              It has been adapted such that the resulting bugger words
000010:                                                                                                  ##              exactly match those specified for Artemis 071 in NASA
000011:                                                                                                  ##              drawing 2021154-, which gives relatively high confidence
000012:                                                                                                  ##              that the reconstruction is correct.
000013:                                                                                                  ## Reference:   513
000014:                                                                                                  ## Assembler:   yaYUL
000015:                                                                                                  ## Contact:     Ron Burkey <info@sandroid.org>.
000016:                                                                                                  ## Website:     www.ibiblio.org/apollo/index.html
000017:                                                                                                  ## Mod history: 2019-08-14 MAS  Created from Artemis 072.
000018:


000020:                                                                                                  #  1) PROGRAM NAME - TARGET DELTA V PROGRAM (P76).
000021:                                                                                                  #  2) FUNCTIONAL DESCRIPTION - UPON ENTRY BY ASTRONAUT ACTION, P76 FLASHES DSKY REQUESTS TO THE ASTRONAUT
000022:                                                                                                  #        TO PROVIDE VIA DSKY (1) THE DELTA V TO BE APPLIED TO THE OTHER VEHICLE STATE VECTOR AND (2) THE
000023:                                                                                                  #        TIME (TIG) AT WHICH THE OTHER VEHICLE VELOCITY WAS CHANGED BY  EXECUTION OF A THRUSTING MANEUVER. THE
000024:                                                                                                  #        OTHER VEHICLE STATE VECTOR IS INTEGRATED TO TIG AND UPDATED BY THE ADDITION OF DELTA V (DELTA V HAVING
000025:                                                                                                  #        BEEN TRANSFORMED FROM LV TO REF COSYS). USING INTEGRVS, THE PROGRAM THEN INTEGRATES THE OTHER
000026:                                                                                                  #        VEHICLE STATE VECTOR TO THE STATE VECTOR OF THIS VEHICLE, THUS INSURING THAT THE W-MATRIX AND BOTH VEHICLE
000027:                                                                                                  #        STATES CORRESPOND TO THE SAME TIME.
000028:                                                                                                  #  3) ERASABLE INITIALIZATION REQUIRED - NONE.
000029:                                                                                                  #  4) CALLING SEQUENCES AND EXIT MODES - CALLED BY ASTRONAUT REQUEST THRU DSKY V 37 E 76 E.
000030:                                                                                                  #        EXITS BY TCF ENDOFJOB.
000031:                                                                                                  #  5) OUTPUT - OTHER VEHICLE STATE VECTOR INTEGRATED TO TIG AND INCREMENTED BY DELTA V IN REF COSYS.
000032:                                                                                                  #        THE PUSHLIST CONTAINS THE MATRIX BY WHICH THE INPUT DELTA V MUST BE POST-MULTIPLIED TO CONVERT FROM LV
000033:                                                                                                  #        TO REF COSYS.
000034:                                                                                                  #  6) DEBRIS - OTHER VEHICLE STATE VECTOR.
000035:                                                                                                  #  7) SUBROUTINES CALLED - BANKCALL,GOXDSPF,CSMPREC (OR LEMPREC),ATOPCSM (OR ATOPLEM),INTSTALL,INTWAKE, PHASCHNG
000036:                                                                                                  #        INTPRET, INTEGRVS, AND MINIRECT.
000037:                                                                                                  #  8) FLAG USE - MOONFLAG,CMOONFLAG,INTYPFLG,RASFLAG, AND MARKCTR.
000038:
000039: 13,2000                                           SETLOC   P76LOC
000040: 13,2000                                           BANK
000041:
000042: 13,2071                                           COUNT*   $$/P7677
000043: 13,2071  E7,1412                                  EBANK=   TIG
000044:
000045: 13,2071           31214        P76ER77            CA       MODREG
000046: 13,2072           74770                           MASK     BIT1
000047: 13,2073           55545                           TS       OPTFLAG                               #  OPTFLAG = 0  LM (P76)
000048: 13,2074           00006                           EXTEND                                         #          = 1 CSM (P77)
000049: 13,2075           31450                           DCA      NOMTIG
000050: 13,2076           53413                           DXCH     TIG
000051:
000052: 13,2077           35026                           CAF      V06N33
000053: 13,2100           04636                           TC       BANKCALL                              #  AND WAIT FOR KEYBOARD ACTION
000054: 13,2101           20743                           CADR     GOFLASH
000055: 13,2102           12234                           TCF      ENDP76
000056: 13,2103           02105                           TC       +2                                    #  PROCEED
000057: 13,2104           02077                           TC       -5                                    #  STORE DATA AND REPEAT FLASHING
000058: 13,2105           05402                           TC       PHASCHNG
000059: 13,2106           04024                           OCT      04024
000060: 13,2107           51545                           INDEX    OPTFLAG
000061: 13,2110           32237                           CAF      V06N84                                #  FLASH V06 N84 OR N81
000062: 13,2111           04636                           TC       BANKCALL                              #  AND WAIT FOR KEYBOARD ACTION.
000063: 13,2112           20743                           CADR     GOFLASH
000064: 13,2113           12234                           TCF      ENDP76
000065: 13,2114           02116                           TC       +2
000066: 13,2115           02107                           TC       -6                                    #  STORE DATA AND REPEAT FLASHING
000067: 13,2116           06006                           TC       INTPRET                               #  RETURN TO INTERPRETIVE CODE
000068: 13,2117           43145                           DLOAD    SET                                   #  SET D(MPAC)=TIG IN CSEC B28


000070: 13,2120           03413                                    TIG
000071: 13,2121           01076                                    NODOFLAG                              #  DISALLOW V37
000072: 13,2122           00041                           STORE    TDEC1
000073: 13,2123           77711                           CCALL
000074: 13,2124           03546                                    OPTFLAG
000075: 13,2125           26241                                    INTADR
000076: 13,2126           53575        COMPMAT            VLOAD    UNIT
000077: 13,2127           00001                                    RATT
000078: 13,2130           77676                           VCOMP                                          #  U(-R)
000079: 13,2131           00031                           STORE    24D                                   #  U(-R) TO 24D
000080: 13,2132           53435                           VXV      UNIT                                  #  U(-R)XV = U(VXR)
000081: 13,2133           00007                                    VATT
000082: 13,2134           00023                           STORE    18D
000083: 13,2135           53435                           VXV      UNIT                                  #  U(VXR)XU(-R) = U((RXV)XR)
000084: 13,2136           00031                                    24D
000085: 13,2137           00015                           STORE    12D
000086: 13,2140           46135                           SLOAD    BHIZ
000087: 13,2141           03546                                    OPTFLAG
000088: 13,2142           26146                                    +4
000089: 13,2143           52175                           VLOAD    GOTO
000090: 13,2144           03405                                    DELVLVC                               #  FROM CSM
000091: 13,2145           26150                                    DVTRANS
000092: 13,2146           77775                           VLOAD
000093: 13,2147           03540                                    DELVOV                                #  FROM LM
000094: 13,2150           76505        DVTRANS            VXM      VSL1                                  #  V(MPAC)=DELTA-V IN REFCOSYS
000095: 13,2151           00015                                    12D
000096: 13,2152           77655                           VAD
000097: 13,2153           00007                                    VATT
000098: 13,2154           00007                           STORE    6                                     #  V(PD6)=VATT + DELTA V
000099: 13,2155           77624                           CALL                                           #  PREVENT WOULD-BE USER OF ORBITAL
000100: 13,2156           27516                                    INTSTALL                              #  INTEG FROM INTERFERING WITH UPDATING
000101: 13,2157           77624                           CALL
000102: 13,2160           26245                                    P76SUB1
000103: 13,2161           53775                           VLOAD    VSR*
000104: 13,2162           00007                                    6
000105: 13,2163           57176                                    0,2
000106: 13,2164           25543                           STOVL    VCV
000107: 13,2165           00001                                    RATT
000108: 13,2166           77657                           VSR*
000109: 13,2167           57176                                    0,2
000110: 13,2170           15535                           STODL    RCV
000111: 13,2171           03413                                    TIG
000112: 13,2172           01517                           STORE    TET
000113: 13,2173           71214                           CLEAR    DLOAD
000114: 13,2174           01673                                    INTYPFLG
000115: 13,2175           01571                                    TETTHIS
000116: 13,2176           34041        INTOTHIS           STCALL   TDEC1
000117: 13,2177           27211                                    INTEGRVS
000118: 13,2200           77624                           CALL
000119: 13,2201           27516                                    INTSTALL


000121: 13,2202           77624                           CALL
000122: 13,2203           26245                                    P76SUB1                               #  SET/CLEAR MOONFLAG
000123: 13,2204           77775                           VLOAD
000124: 13,2205           00017                                    RATT1
000125: 13,2206           01503                           STORE    RRECT
000126: 13,2207           15535                           STODL    RCV
000127: 13,2210           00015                                    TAT
000128: 13,2211           25517                           STOVL    TET
000129: 13,2212           00025                                    VATT1
000130: 13,2213           77624                           CALL
000131: 13,2214           23434                                    MINIRECT
000132: 13,2215           77776                           EXIT
000133: 13,2216           05402                           TC       PHASCHNG
000134: 13,2217           04024                           OCT      04024
000135:
000136: 13,2220           06006                           TC       INTPRET
000137: 13,2221           62214                           SET      CCALL
000138: 13,2222           05062                                    REINTFLG
000139: 13,2223           03546                                    OPTFLAG
000140: 13,2224           26243                                    UPDATADR
000141: 13,2225           77624                           CALL
000142: 13,2226           27525                                    INTWAKE0                              #  PERMIT USE OF ORBITAL INTEGRATION
000143: 13,2227           77414        OUT                CLEAR    EXIT                                  #  ALLOW V37, NO NEED TO CLEAR NODOFLAG AT
000144: 13,2230           01276                                    NODOFLAG                              #   ENDP76 SINCE FLAG NOT SET WHEN DISPLAY
000145:                                                                                                  #   RESPONSES TRANSFER THERE FROM P76+.
000146: 13,2231           37702                           CAF      NEGONE
000147: 13,2232           55722                           TS       MRKBUF1
000148: 13,2233           14105                           TCF      MNKGOPOO
000149:
000150: 13,2234           37702        ENDP76             CAF      NEGONE
000151: 13,2235           55722                           TS       MRKBUF1                               #  INVALIDATE MARK BUFFER
000152:
000153: 13,2236           14103                           TCF      GOTOPOOH
000154:
000155: 13,2237           01524        V06N84             NV       0684
000156: 13,2240           01521                           NV       0681                                  #  MUST BE EQUAL TO V06N84 + 1
000157: 13,2241           27161        INTADR             CADR     OTHPREC
000158: 13,2242           27145                           CADR     THISPREC                              #  MUST BE EQUAL TO INTADR + 1
000159: 13,2243           27034        UPDATADR           CADR     ATOPOTH
000160: 13,2244           26761                           CADR     ATOPTHIS                              #  MUST BE EQUAL TO UPDATADR + 1
000161: 13,2245           67214        P76SUB1            CLEAR    SLOAD
000162: 13,2246           00263                                    MOONFLAG
000163: 13,2247           00050                                    X2
000164: 13,2250           43030                           BHIZ     SET                                   #  X2=0...CLEAR MOONFLAG
000165: 13,2251           26253                                    +2                                    #    =2.....SET MOONFLAG
000166: 13,2252           00063                                    MOONFLAG
000167: 13,2253           77616                           RVQ

End of include-file P76.agc.  Parent file is MAIN.agc


