
Source Code


000002:                                                                                                  ## Copyright:   Public domain.
000003:                                                                                                  ## Filename:    PINBALL_GAME__BUTTONS_AND_LIGHTS.agc
000004:                                                                                                  ## Purpose:     A section of Artemis revision 071.
000005:                                                                                                  ##              It is part of the reconstructed source code for the first
000006:                                                                                                  ##              release of the flight software for the Command Module's
000007:                                                                                                  ##              (CM) Apollo Guidance Computer (AGC) for Apollo 15 through
000008:                                                                                                  ##              17. The code has been recreated from a copy of Artemis 072.
000009:                                                                                                  ##              It has been adapted such that the resulting bugger words
000010:                                                                                                  ##              exactly match those specified for Artemis 071 in NASA
000011:                                                                                                  ##              drawing 2021154-, which gives relatively high confidence
000012:                                                                                                  ##              that the reconstruction is correct.
000013:                                                                                                  ## Reference:   318
000014:                                                                                                  ## Assembler:   yaYUL
000015:                                                                                                  ## Contact:     Ron Burkey <info@sandroid.org>.
000016:                                                                                                  ## Website:     www.ibiblio.org/apollo/index.html
000017:                                                                                                  ## Mod history: 2019-08-14 MAS  Created from Artemis 072.
000018:


000020:
000021:                                                                                                  #  PROGRAM NAME - KEYBOARD AND DISPLAY PROGRAM
000022:                                                                                                  #  MOD BY - BARNERT      DATE - 20 AUG 1969
000023:                                                                                                  #  LOG SECTION - PINBALL GAME BUTTONS AND LIGHTS
000024:
000025:                                                                                                  #  FUNCTIONAL DESCRIPTION-
000026:
000027:                                                                                                  #        THE KEYBOARD AND DISPLAY SYSTEM PROGRAM OPERATES UNDER EXECUTIVE
000028:                                                                                                  #        CONTROL AND PROCESSES INFORMATION EXCHANGED BETWEEN THE AGC AND THE
000029:                                                                                                  #        COMPUTER OPERATOR.  THE INPUTS TO THE PROGRAM ARE FROM THE KEYBOARD,
000030:                                                                                                  #        FROM INTERNAL PROGRAMS, AND FROM THE UPLINK.
000031:
000032:                                                                                                  #        THE LANGUAGE OF COMMUNICATION WITH THE PROGRAM IS A PAIR OF WORDS
000033:                                                                                                  #        KNOWN AS VERB AND NOUN.  EACH OF THESE IS REPRESENTED BY A 2 CHARACTER
000034:                                                                                                  #        DECIMAL NUMBER.  THE VERB CODE INDICATES WHAT ACTION IS TO BE TAKEN, THE
000035:                                                                                                  #        NOUN CODE INDICATES TO WHAT THIS ACTION IS APPLIED.  NOUNS USUALLY
000036:                                                                                                  #        REFER TO A GROUP OF ERASABLE REGISTERS.
000037:
000038:                                                                                                  #        VERBS ARE GROUPED INTO DISPLAYS, LOADS, MONITORS (DISPLAYS THAT ARE
000039:                                                                                                  #        UPDATED ONCE PER SECOND), SPECIAL FUNCTIONS, AND EXTENDED VERBS (THESE
000040:                                                                                                  #        ARE OUTSIDE OF THE DOMAIN OF PINBALL AND CAN BE FOUND UNDER LOG SECTION
000041:                                                                                                  #        :EXTENDED VERBS:).
000042:
000043:                                                                                                  #        A LIST OF VERBS AND NOUNS IS GIVEN IN LOG SECTION :ASSEMBLY AND
000044:                                                                                                  #        OPERATION INFORMATION:.
000045:
000046:                                                                                                  #  CALLING SEQUENCES-
000047:
000048:                                                                                                  #        KEYBOARD:
000049:                                                                                                  #        EACH DEPRESSION OF A MAIN (NAVIGATION) KEYBOARD BUTTON ACTIVATES
000050:                                                                                                  #        INTERRUPT KEYRUPT1 (KEYRUPT2) AND PLACES THE 5 BIT KEY CODE INTO
000051:                                                                                                  #        CHANNEL 15 (CHANNEL 16).  KEYRUPT1 (KEYRUPT2) PLACES THE KEY
000052:                                                                                                  #        CODE INTO MPAC, ENTERS AN EXECUTIVE REQUEST FOR THE KEYBOARD AND DISPLAY
000053:                                                                                                  #        PROGRAM (AT :CHARIN:), AND EXECUTES A RESUME.
000054:
000055:                                                                                                  #        UPLINK:
000056:                                                                                                  #        EACH WORD RECEIVED BY THE UPLINK ACTIVATES INTERRUPT UPRUPT WHICH
000057:                                                                                                  #        PLACES THE 5 BIT KEY CODE INTO MPAC, ENTERS AN EXECUTIVE REQUEST FOR THE
000058:                                                                                                  #        KEYBOARD AND DISPLAY PROGRAM (AT :CHARIN:) AND EXECUTES A RESUME.
000059:
000060:                                                                                                  #        INTERNAL PROGRAMS:
000061:                                                                                                  #        INTERNAL PROGRAMS CALL PINBALL AT :NVSUB: WITH THE DESIRED VERB/NOUN
000062:                                                                                                  #        CODE IN A (LOW 7 BITS FOR NOUN, NEXT 7 BITS FOR VERB).  DETAILS
000063:                                                                                                  #        DESCRIBED ON REMARKS CARDS JUST BEFORE :NVSUB: AND :NVSBWAIT: (SEE
000064:                                                                                                  #        SYMBOL TABLE FOR PAGE NUMBERS).
000065:
000066:                                                                                                  #  NORMAL EXIT MODES-
000067:
000068:                                                                                                  #        IF PINBALL WAS CALLED BY EXTERNAL ACTION, THERE ARE FOUR EXITS:
000069:                                                                                                  #                1) ALL BUT (2), (3), AND (4) EXIT DIRECTLY TO ENDOFJOB.
000070:                                                                                                  #                2) EXTENDED VERBS GO TO THE EXTENDED VERB FAN AS PART OF THE


000072:                                                                                                  #                   PINBALL EXECUTIVE JOB WITH PRIORITY 30000.  IT IS THE
000073:                                                                                                  #                   RESPONSIBILITY OF THE EXTENDED VERB CALLED TO EVENTUALLY
000074:                                                                                                  #                   CHANGE PRIORITY (IF NECESSARY) AND DO AN ENDOFJOB.
000075:                                                                                                  #                   ALSO PINBALL IS A NOVAC JOB. EBANK SET FOR COMMON.
000076:                                                                                                  #                3) VERB 37. CHANGE OF PROGRAM (MAJOR MODE) CALLS :V37: IN THE
000077:                                                                                                  #                   SERVICE ROUTINES AS PART OF THE PINBALL EXEC JOB WITH PRIO
000078:                                                                                                  #                   30000.  THE NEW PROGRAM CODE (MAJOR MODE) IS LEFT IN A.
000079:                                                                                                  #                4) KEY RELEASE BUTTON CALLS :PINBRNCH: IN THE DISPLAY INTERFACE
000080:                                                                                                  #                   ROUTINES AS PART OF THE PINBALL EXEC JOB WITH PRIO 30000 IF
000081:                                                                                                  #                   THE KEY RELEASE LIGHT IS OFF AND :CADRSTOR: IS NOT +0.
000082:
000083:                                                                                                  #        IF PINBALL WAS CALLED BY INTERNAL PROGRAMS, EXIT FROM PINBALL IS BACK
000084:                                                                                                  #        TO CALLING ROUTINE.  DETAILS DESCRIBED IN REMARKS CARDS JUST BEFORE
000085:                                                                                                  #        :NVSUB:
000086:
000087:                                                                                                  #  ALARM OR ABORT EXIT MODES-
000088:
000089:                                                                                                  #        EXTERNAL INITIATION:
000090:                                                                                                  #        IF SOME IMPROPER SEQUENCE OF KEY CODES IS DETECTED, THE OPERATOR
000091:                                                                                                  #        ERROR LIGHT IS TURNED ON AND EXIT IS TO :ENDOFJOB:.
000092:
000093:                                                                                                  #        INTERNAL PROGRAM INITIATION:
000094:                                                                                                  #        IF AN ILLEGAL V/N COMBINATION IS ATTEMPTED, AN ABORT IS CAUSED
000095:                                                                                                  #        (WITH OCTAL 21501).
000096:                                                                                                  #        IF A SECOND ATTEMPT IS MADE TO GO TO SLEEP IN PINBALL, AN ABORT IS
000097:                                                                                                  #        CAUSED (WITH OCTAL 21206). THERE ARE TWO WAYS TO GO TO SLEEP IN PINBALL:
000098:                                                                                                  #                1) ENDIDLE
000099:                                                                                                  #                2) NVSUBUSY
000100:
000101:                                                                                                  #  OUTPUT-
000102:
000103:                                                                                                  #  INFORMATION TO BE SENT TO THE DISPLAY PANEL IS LEFT IN THE :DSPTAB:
000104:                                                                                                  #  BUFFERS REGISTERS (UNDER EXEC CONTROL).  :DSPOUT: (A PART OF T4RUPT)
000105:                                                                                                  #  HANDLES THE PLACING OF THE :DSPTAB: INFORMATION INTO OUTPUT CHANNEL 10
000106:                                                                                                  #  IN INTERRUPT.
000107:
000108:                                                                                                  #  ERASABLE INITIALIZATION-
000109:
000110:                                                                                                  #  FRESH START AND RESTART INITIALIZE THE NECESSARY E REGISTERS FOR
000111:                                                                                                  #  PINBALL IN :STARTSUB:.  REGISTERS ARE:  DSPTAB BUFFER, CADRSTOR,
000112:                                                                                                  #  REQRET, CLPASS, DSPLOCK, MONSAVE, MONSAVE1, VERBREG, NOUNREG, DSPLIST,
000113:                                                                                                  #  DSPCOUNT, NOUT.
000114:
000115:                                                                                                  #  A COMPLETE LIST OF ALL THE ERASABLES (BOTH RESERVED AND TEMPORARIES) FOR
000116:                                                                                                  #  PINBALL IS GIVEN BELOW.
000117:
000118:                                                                                                  #  THE FOLLOWING ARE OF GENERAL INTEREST-
000119:
000120:                                                                                                  #  REMARKS CARDS PRECEDE THE REFERENCED SYMBOL DEFINITION.  SEE SYMBOL
000121:                                                                                                  #  TABLE TO FIND APPROPRIATE PAGE NUMBERS.
000122:


000124:                                                                                                  #        NVSUB           CALLING POINT FOR INTERNAL USE OF PINBALL.
000125:                                                                                                  #                        OF RELATED INTEREST - NVSUBUSY
000126:
000127:                                                                                                  #        ENDIDLE         ROUTINE FOR INTERNAL PROGRAMS WISHING TO GO TO SLEEP WHILE
000128:                                                                                                  #                        AWAITING OPERATORS RESPONSE.
000129:
000130:                                                                                                  #        DSPMMJOB        ROUTINE CALL WITH PRIO 30000, USED TO DISPLAY A DECIMAL
000131:                                                                                                  #                        PROGRAM CODE (MAJOR MODE) IN THE PROGRAM (MAJOR MODE) LIGHTS.
000132:
000133:                                                                                                  #        BLANKSUB        ROUTINE BY WHICH AN INTERNAL PROGRAM MAY BLANK ANY
000134:                                                                                                  #                        COMBINATION OF THE DISPLAY REGISTERS R1, R2, R3.
000135:
000136:                                                                                                  #        JAMTERM         ROUTINES BY WHICH AN INTERNAL PROGRAM MAY PERFORM THE
000137:                                                                                                  #                        TERMINATE (V 34) FUNCTION.
000138:
000139:                                                                                                  #        MONITOR         VERBS FOR PERIODIC (1 PER SEC) DISPLAY.
000140:
000141:                                                                                                  #        PLEASE PERFORM, PLEASE MARK SITUATIONS
000142:                                                                                                  #                REMARKS DESCRIBING HOW AN INTERNAL ROUTINE SHOULD HANDLE
000143:                                                                                                  #                THESE SITUATIONS CAN BE FOUND JUST BEFORE :NVSUB: (SEE
000144:                                                                                                  #                SYMBOL TABLE FOR PAGE NUMBER).
000145:
000146:                                                                                                  #        THE NOUN TABLE FORMAT IS DESCRIBED ON A PAGE OF REMARKS CARDS JUST
000147:                                                                                                  #        BEFORE :DSPABC: (SEE SYMBOL TABLE FOR PAGE NUMBER).
000148:
000149:                                                                                                  #        THE NOUN TABLES THEMSELVES ARE FOUND IN LOG SECTION :PINBALL NOUN
000150:                                                                                                  #        TABLES:.
000151:
000152:                                                                                                  #  FOR FURTHER DETAILS ABOUT OPERATION OF THE KEYBOARD AND DISPLAY SYSTEM
000153:                                                                                                  #  PROGRAM, SEE THE MISSION PLAN AND/OR MIT/IL E-2129
000154:                                                                                                  #  DESCRIBING KEYBOARD AND DISPLAY OPERATION FOR 278.
000155:
000156:                                                                                                  #  THE FOLLOWING QUOTATION IS PROVIDED THROUGH THE COURTESY OF THE AUTHORS.
000157:
000158:                                                                                                  #        ::IT WILL BE PROVED TO THY FACE THAT THOU HAST MEN ABOUT THEE THAT
000159:                                                                                                  #        USUALLY TALK OF A NOUN AND A VERB, AND SUCH ABOMINABLE WORDS AS NO
000160:                                                                                                  #        CHRISTIAN EAR CAN ENDURE TO HEAR.::
000161:                                                                                                  #                                        HENRY 6, ACT 2, SCENE 4
000162:
000163:                                                                                                  #  THE FOLLOWING ASSIGNMENTS FOR PINBALL ARE MADE ELSEWHERE
000164:
000165:                                                                                                  #  RESERVED FOR PINBALL EXECUTIVE ACTION
000166:
000167:                                                                                                  #  DSPCOUNT      ERASE                   DISPLAY POSITION INDICATOR
000168:                                                                                                  #  DECBRNCH      ERASE                   +DEC, -DEC, OCT INDICATOR
000169:                                                                                                  #  VERBREG       ERASE                   VERB CODE
000170:                                                                                                  #  NOUNREG       ERASE                   NOUN CODE
000171:                                                                                                  #  XREG          ERASE                   R1 INPUT BUFFER


000173:                                                                                                  #  YREG          ERASE                   R2 INPUT BUFFER
000174:                                                                                                  #  ZREG          ERASE                   R3 INPUT BUFFER
000175:                                                                                                  #  XREGLP        ERASE                   LO PART OF XREG (FOR DEC CONV ONLY)
000176:                                                                                                  #  YREGLP        ERASE                   LO PART OF YREG (FOR DEC CONV ONLY)
000177:                                                                                                  #  HITEMOUT      =       YREGLP          TEMP FOR DISPLAY OF HRS,MIN,SEC
000178:                                                                                                  #                                                MUST = LOTEMOUT-1.
000179:                                                                                                  #  ZREGLP        ERASE                   LO PART OF ZREG (FOR DEC CONV ONLY)
000180:                                                                                                  #  LOTEMOUT      =       ZREGLP          TEMP FOR DISPLAY OF HRS,MIN,SEC
000181:                                                                                                  #                                                MUST = HITEMOUT+1.
000182:                                                                                                  #  MODREG        ERASE                   MODE CODE
000183:                                                                                                  #  DSPLOCK       ERASE                   KEYBOARD/SUBROUTINE CALL INTERLOCK
000184:                                                                                                  #  REQRET        ERASE                   RETURN REGISTER FOR LOAD
000185:                                                                                                  #  LOADSTAT      ERASE                   STATUS INDICATOR FOR LOADTST
000186:                                                                                                  #  CLPASS        ERASE                   PASS INDICATOR CLEAR
000187:                                                                                                  #  NOUT          ERASE                   ACTIVITY COUNTER FOR DSPTAB
000188:                                                                                                  #  NOUNCADR      ERASE                   MACHINE CADR FOR NOUN
000189:                                                                                                  #  MONSAVE       ERASE                   N/V CODE FOR MONITOR. (= MONSAVE1-1)
000190:                                                                                                  #  MONSAVE1      ERASE                   NOUNCADR FOR MONITOR (MATBS) = MONSAVE+1
000191:                                                                                                  #  MONSAVE2      ERASE                   NVMONOPT OPTIONS
000192:                                                                                                  #  DSPTAB        ERASE   +13D            0-10, DISPLAY PANEL BUFFER. 11-13, C RELAYS
000193:                                                                                                  #  CADRSTOR      ERASE                   ENDIDLE STORAGE
000194:                                                                                                  #  NVQTEM        ERASE                   NVSUB STORAGE FOR CALLING ADDRESS
000195:                                                                                                  #                                        MUST = NVBNKTEM-1
000196:                                                                                                  #  NVBNKTEM      ERASE                   NVSUB STORAGE FOR CALLING BANK
000197:                                                                                                  #                                        MUST = NVQTEM+1
000198:                                                                                                  #  VERBSAVE      ERASE                   NEEDED FOR RECYCLE
000199:                                                                                                  #  DSPLIST       ERASE                   WAITING REG FOR DSP SYST INTERNAL USE
000200:                                                                                                  #  EXTVBACT      REASE                   EXTENDED VERB ACTIVITY INTERLOCK
000201:                                                                                                  #  DSPTEM1       ERASE   +2              BUFFER STORAGE AREA 1 (MOSTLY FOR TIME)
000202:                                                                                                  #  DSPTEM2       ERASE   +2              BUFFER STORAGE AREA 2 (MOSTLY FOR DEG)
000203:
000204:                                                                                                  #  END OF ERASABLES RESERVED FOR PINBALL EXECUTIVE ACTION
000205:
000206:                                                                                                  #  TEMPORARIES FOR PINBALL EXECUTIVE ACTION
000207:
000208:                                                                                                  #  DSEXIT        =       INTB15+         RETURN FOR DSPIN
000209:                                                                                                  #  EXITEM        =       INTB15+         RETURN FOR SCALE FACTOR ROUTINE SELECT
000210:                                                                                                  #  BLANKRET      =       INTB15+         RETURN FOR 2BLANK
000211:
000212:                                                                                                  #  WRDRET        =       INTBIT15        RETURN FOR 5BLANK
000213:                                                                                                  #  WDRET         =       INTBIT15        RETURN FOR DSPWD
000214:                                                                                                  #  DECRET        =       INTBIT15        RETURN FOR PUTCOM(DEC LOAD)
000215:                                                                                                  #  21/22REG      =       INTBIT15        TEMP FOR CHARIN
000216:
000217:                                                                                                  #  UPDATRET      =       POLISH          RETURN FOR UPDATNN, UPDATVB
000218:                                                                                                  #  CHAR          =       POLISH          TEMP FOR CHARIN
000219:                                                                                                  #  ERCNT         =       POLISH          COUNTER FOR ERROR LIGHT RESET
000220:                                                                                                  #  DECOUNT       =       POLISH          COUNTER FOR SCALING AND DISPLAY (DEC)
000221:
000222:                                                                                                  #  SGNON         =       VBUF            TEMP FOR +,- ON


000224:                                                                                                  #  NOUNTEM       =       VBUF            COUNTER FOR MIXNOUN FETCH
000225:                                                                                                  #  DISTEM        =       VBUF            COUNTER FOR OCTAL DISPLAY VERBS
000226:                                                                                                  #  DECTEM        =       VBUF            COUNTER FOR FETCH (DEC DISPLAY VERBS)
000227:
000228:                                                                                                  #  SGNOFF        =       VBUF +1         TEMP FOR +,- ON
000229:                                                                                                  #  NVTEMP        =       VBUF +1         TEMP FOR NVSUB
000230:                                                                                                  #  SFTEMP1       =       VBUF +1         STORAGE FOR SF CONST HI PART (=SFTEMP2-1)
000231:                                                                                                  #  HITEMIN       =       VBUF +1         TEMP FOR LOAD OF HRS, MIN, SEC
000232:                                                                                                  #                                                MUST = LOTEMIN-1.
000233:                                                                                                  #  CODE          =       VBUF +2         FOR DSPIN
000234:                                                                                                  #  SFTEMP2       =       VBUF +2         STORAGE FOR SF CONST LO PART (=SFTEMP1+1)
000235:                                                                                                  #  LOTEMIN       =       VBUF +2         TEMP FOR LOAD OF HRS, MIN, SEC
000236:                                                                                                  #                                                MUST = HITEMIN+1.
000237:                                                                                                  #  MIXTEMP       =       VBUF +3         FOR MIXNOUN DATA
000238:                                                                                                  #  SIGNRET       =       VBUF +3         RETURN FOR +,- ON
000239:
000240:                                                                                                  #  ALSO MIXTEMP+1 = VBUF+4, MIXTEMP+2 = VBUF+5.
000241:
000242:                                                                                                  #  ENTRET        =       DOTINC          EXIT FROM ENTER
000243:
000244:                                                                                                  #  WDCNT         =       DOTRET          CHAR COUNTER FOR DSPWD
000245:                                                                                                  #  INREL         =       DOTRET          INPUT BUFFER SELECTOR (X,Y,Z, REG)
000246:
000247:                                                                                                  #  DSPMMTEM      =       MATINC          DSPCOUNT SAVE FOR DSPMM
000248:                                                                                                  #  MIXBR         =       MATINC          INDICATOR FOR MIXED OR NORMAL NOUN
000249:
000250:                                                                                                  #  TEM1          ERASE                   EXEC TEMP
000251:                                                                                                  #  DSREL         =       TEM1            REL ADDRESS FOR DSPIN
000252:
000253:                                                                                                  #  TEM2          ERASE                   EXEC TEMP
000254:                                                                                                  #  DSMAG         =       TEM2            MAGNITUDE STORE FOR DSPIN
000255:                                                                                                  #  IDADDTEM      =       TEM2            MIXNOUN INDIRECT ADDRESS STORAGE
000256:
000257:                                                                                                  #  TEM3          ERASE                   EXEC TEMP
000258:                                                                                                  #  COUNT         =       TEM3            FOR DSPIN
000259:
000260:                                                                                                  #  TEM4          ERASE                   EXEC TEMP
000261:                                                                                                  #  LSTPTR        =       TEM4            LIST POINTER FOR GRABUSY
000262:                                                                                                  #  RELRET        =       TEM4            RETURN FOR RELDSP
000263:                                                                                                  #  FREERET       =       TEM4            RETURN FOR FREEDSP
000264:                                                                                                  #  DSPWDRET      =       TEM4            RETURN FOR DSPSIGN
000265:                                                                                                  #  SEPSCRET      =       TEM4            RETURN FOR SEPSEC
000266:                                                                                                  #  SEPMNRET      =       TEM4            RETURN FOR SEPMIN
000267:
000268:                                                                                                  #  TEM5          ERASE                   EXEC TEMP
000269:                                                                                                  #  NOUNADD       =       TEM5            TEMP STORAGE FOR NOUN ADDRESS
000270:
000271:                                                                                                  #  NNADTEM       ERASE                   TEMP FOR NOUN ADDRESS TABLE ENTRY
000272:                                                                                                  #  NNTYPTEM      ERASE                   TEMP FOR NOUN TYPE TABLE ENTRY
000273:                                                                                                  #  IDAD1TEM      ERASE                   TEMP FOR INDIR ADRESS TABLE ENTRY (MIXNN)


000275:                                                                                                  #                                        MUST = IDAD2TEM-1, = IDAD3TEM-2.
000276:                                                                                                  #  IDAD2TEM      ERASE                   TEMP FOR INDIR ADRESS TABLE ENTRY (MIXNN)
000277:                                                                                                  #                                        MUST = IDAD1TEM+1, = IDAD3TEM-1.
000278:                                                                                                  #  IDAD3TEM      ERASE                   TEMP FOR INDIR ADRESS TABLE ENTRY (MIXNN)
000279:                                                                                                  #                                        MUST = IDAD1TEM+2, = IDAD2TEM+1.
000280:                                                                                                  #  RUTMXTEM      ERASE                   TEMP FOR SF ROUT TABLE ENTRY (MIXNN ONLY)
000281:
000282:                                                                                                  #  END OF TEMPORARIES FOR PINBALL EXECUTIVE ACTION
000283:
000284:                                                                                                  #  ADDITIONAL TEMPORARIES FOR PINBALL EXECUTIVE ACTION
000285:
000286:                                                                                                  #        MPAC, THRU MPAC +6
000287:                                                                                                  #        BUF, +1, +2
000288:                                                                                                  #        BUF2, +1, +2
000289:                                                                                                  #        MPTEMP
000290:                                                                                                  #        ADDRWD
000291:
000292:                                                                                                  #  END OF ADDITIONAL TEMPS FOR PINBALL EXEC ACTION
000293:
000294:                                                                                                  #  RESERVED FOR PINBALL INTERRUPT ACTION
000295:
000296:                                                                                                  #  DSPCNT        ERASE                   COUNTER FOR DSPOUT
000297:                                                                                                  #  UPLOCK        ERASE                   BIT1 = UPLINK INTERLOCK (ACTIVATED BY
000298:                                                                                                  #                                        RECEPTION OF A BAD MESSAGE IN UPLINK)
000299:
000300:                                                                                                  #  END OF ERASABLES RESERVED FOR PINBALL INTERRUPT ACTION
000301:
000302:                                                                                                  #  TEMPORARIES FOR PINBALL INTERRUPT ACTION
000303:
000304:                                                                                                  #  KEYTEMP1      =       WAITEXIT        TEMP FOR KEYRUPT, UPRUPT
000305:                                                                                                  #  DSRUPTEM      =       WAITEXIT        TEMP FOR DSPOUT
000306:                                                                                                  #  KEYTEMP2      =       RUPTAGN         TEMP FOR KEYRUPT, UPRUPT
000307:
000308:                                                                                                  #  END OF TEMPORARIES FOR PINBALL INTERRUPT ACTION
000309:


000311:                                                                                                  #  THE INPUT CODES ASSUMED FOR THE KEYBOARD ARE,
000312:                                                                                                  #        0               10000
000313:                                                                                                  #        1               00001
000314:                                                                                                  #        9               01001
000315:                                                                                                  #        VERB            10001
000316:                                                                                                  #        ERROR RES       10010
000317:                                                                                                  #        KEY RLSE        11001
000318:                                                                                                  #        +               11010
000319:                                                                                                  #        -               11011
000320:                                                                                                  #        ENTER           11100
000321:                                                                                                  #        CLEAR           11110
000322:                                                                                                  #        NOUN            11111
000323:
000324:                                                                                                  #  OUTPUT FORMAT FOR DISPLAY PANEL. SET OUT0 TO AAAABCCCCCDDDDD.
000325:                                                                                                  #  A-S   SELECT A RELAYWORD. THIS DETERMINES WHICH PAIR OF CHARACTERS ARE
000326:                                                                                                  #        ENERGIZED.
000327:                                                                                                  #  B     FOR SPECIAL RELAYS SUCH AS SIGNS ETC.
000328:                                                                                                  #  C-S   5 BIT RELAY CODE FOR LEFT CHAR OF PAIR SELECTED BY RELAYWORD
000329:                                                                                                  #  D-S   5 BIT RELAY CODE FOR RIGHT CHAR OF PAIR SELECTED BY RELAYWORD.
000330:
000331:                                                                                                  #  THE PANEL APPEARS AS FOLLOWS,
000332:                                                                                                  #        MD1     MD2                             (MAJOR MODE)
000333:                                                                                                  #        VD1     VD2 (VERB)      ND1     ND2     (NOUN)
000334:                                                                                                  #        R1D1    R1D2    R1D3    R1D4    R1D5    (R1)
000335:                                                                                                  #        R2D1    R2D2    R2D3    R2D4    R2D5    (R2)
000336:                                                                                                  #        R3D1    R3D2    R3D3    R3D4    R3D5    (R3)
000337:
000338:                                                                                                  #  EACH OF THESE IS GIVEN A DSPCOUNT NUMBER FOR USE WITHIN COMPUTATION ONLY
000339:
000340:                                                                                                  #        MD1     25      R2D1    11              ALL ARE OCTAL
000341:                                                                                                  #        MD2     24      R2D2    10
000342:                                                                                                  #        VD1     23      R2D3    7
000343:                                                                                                  #        VD2     22      R2D4    6
000344:                                                                                                  #        ND1     21      R2D5    5
000345:                                                                                                  #        ND2     20      R3D1    4
000346:                                                                                                  #        R1D1    16      R3D2    3
000347:                                                                                                  #        R1D2    15      R3D3    2
000348:                                                                                                  #        R1D3    14      R3D4    1
000349:                                                                                                  #        R1D4    13      R3D5    0
000350:                                                                                                  #        R1D5    12
000351:
000352:                                                                                                  #  THERE IS AN 11 REGISTER TABLE (DSPTAB) FOR THE DISPLAY PANEL.
000353:
000354:                                                                                                  #        DSPTAB          RELAYWD         BIT11           BITS 10-6       BITS 5-1
000355:                                                                                                  #        RELADD
000356:                                                                                                  #        10              1011                            MD1 (25)        MD2  (24)
000357:                                                                                                  #        9               1010                            VD1 (23)        VD2  (22)
000358:                                                                                                  #        8               1001                            ND1 (21)        ND2  (20)
000359:                                                                                                  #        7               1000                                            R1D1 (16)


000361:                                                                                                  #        6               0111            +R1             R1D2 (15)       R1D3 (14)
000362:                                                                                                  #        5               0110            -R1             R1D4 (13)       R1D5 (12)
000363:                                                                                                  #        4               0101            +R2             R2D1 (11)       R2D2 (10)
000364:                                                                                                  #        3               0100            -R2             R2D3 (7)        R2D4 (6)
000365:                                                                                                  #        2               0011                            R2D5 (5)        R3D1 (4)
000366:                                                                                                  #        1               0010            +R3             R3D2 (3)        R3D3 (2)
000367:                                                                                                  #        0               0001            -R3             R3D4 (1)        R3D5 (0)
000368:                                                                                                  #                        0000        NO RELAYWORD
000369:
000370:                                                                                                  #  THE 5 BIT OUTPUT RELAY CODES ARE:
000371:
000372:                                                                                                  #        BLANK   00000
000373:                                                                                                  #        0       10101
000374:                                                                                                  #        1       00011
000375:                                                                                                  #        2       11001
000376:                                                                                                  #        3       11011
000377:                                                                                                  #        4       01111
000378:                                                                                                  #        5       11110
000379:                                                                                                  #        6       11100
000380:                                                                                                  #        7       10011
000381:                                                                                                  #        8       11101
000382:                                                                                                  #        9       11111
000383:
000384:                                                                                                  #  OUTPUT BITS USED BY PINBALL:
000385:
000386:                                                                                                  #        KEY RELEASE LIGHT       - BIT 5 OF CHANNEL 11
000387:                                                                                                  #        VERB/NOUN FLASH         - BIT 6 OF CHANNEL 11
000388:                                                                                                  #        OPERATOR ERROR LIGHT    - BIT 7 OF CHANNEL 11
000389:


000391:                                                                                                  #  START OF EXECUTIVE SECTION OF PINBALL
000392:
000393: 40,2000                                           SETLOC   PINBALL1
000394: 40,2000                                           BANK
000395:
000396: 40,2000                                           COUNT*   $$/PIN
000397: 40,2000           34770        CHARIN             CAF      ONE                                   #  BLOCK DISPLAY SYST
000398: 40,2001           57215                           XCH      DSPLOCK                               #  MAKE DSP SYST BUSY, BUT SAVE OLD
000399: 40,2002           54115                           TS       21/22REG                              #  C(DSPLOCK) FOR ERROR LIGHT RESET.
000400: 40,2003           11245                           CCS      CADRSTOR                              #  ALL KEYS EXCEPT ER TURN ON KR LITE IF
000401: 40,2004           02006                           TC       +2                                    #  CADRSTOR IS FULL.  THIS REMINDS OPERATOR
000402: 40,2005           02013                           TC       CHARIN2                               #  TO RE-ESTABLISH A FLASHING DISPLAY
000403: 40,2006           42212                           CS       ELRCODE1                              #  WHICH HE HAS OBSCURED WITH DISPLAYS OF
000404: 40,2007           60154                           AD       MPAC                                  #  HIS OWN (SEE REMARKS PRECEDING ROUTINE
000405: 40,2010           00006                           EXTEND                                         #  VBRELDSP).
000406: 40,2011           12013                           BZF      CHARIN2
000407: 40,2012           04356                           TC       RELDSPON
000408: 40,2013           56154        CHARIN2            XCH      MPAC
000409: 40,2014           54117                           TS       CHAR
000410: 40,2015           50000                           INDEX    A
000411: 40,2016           02017                           TC       +1                                    #    INPUT CODE      FUNCTION
000412: 40,2017           03275                           TC       CHARALRM                              #        0
000413: 40,2020           02074                           TC       NUM                                   #        1
000414: 40,2021           02074                           TC       NUM                                   #        2
000415: 40,2022           02074                           TC       NUM                                   #        3
000416: 40,2023           02074                           TC       NUM                                   #        4
000417: 40,2024           02074                           TC       NUM                                   #        5
000418: 40,2025           02074                           TC       NUM                                   #        6
000419: 40,2026           02074                           TC       NUM                                   #        7
000420: 40,2027           02064                           TC       89TEST                                #        10              8
000421: 40,2030           02064                           TC       89TEST                                #        11              9
000422: 40,2031           03275                           TC       CHARALRM                              #        12
000423: 40,2032           03275                           TC       CHARALRM                              #        13
000424: 40,2033           03275                           TC       CHARALRM                              #        14
000425: 40,2034           03275                           TC       CHARALRM                              #        15
000426: 40,2035           03275                           TC       CHARALRM                              #        16
000427: 40,2036           03275                           TC       CHARALRM                              #        17
000428: 40,2037           02072                           TC       NUM        -2                         #        20              0
000429: 40,2040           02251                           TC       VERB                                  #        21              VERB
000430: 40,2041           03553                           TC       ERROR                                 #        22              ERROR LIGHT RESET
000431: 40,2042           03275                           TC       CHARALRM                              #        23
000432: 40,2043           03275                           TC       CHARALRM                              #        24
000433: 40,2044           03275                           TC       CHARALRM                              #        25
000434: 40,2045           03275                           TC       CHARALRM                              #        26
000435: 40,2046           03275                           TC       CHARALRM                              #        27
000436: 40,2047           03275                           TC       CHARALRM                              #        30
000437: 40,2050           03325                           TC       VBRELDSP                              #        31              KEY RELEASE
000438: 40,2051           02304                           TC       POSGN                                 #        32              +
000439: 40,2052           02271                           TC       NEGSGN                                #        33              -


000441: 40,2053           04200                           TC       ENTERJMP                              #        34              ENTER
000442: 40,2054           03275                           TC       CHARALRM                              #        35
000443: 40,2055           02364                           TC       CLEAR                                 #        36              CLEAR
000444: 40,2056           02265                           TC       NOUN                                  #        37              NOUN
000445:
000446: 40,2057           11202        CHKDSP             CCS      DSPCOUNT
000447: 40,2060           00002                           TC       Q
000448: 40,2061           00002                           TC       Q
000449: 40,2062           15205                           TCF      ENDOFJOB                              #  BLOCK DATA IN IF DSPCOUNT NEG.
000450: 40,2063           15205                           TCF      ENDOFJOB
000451:
000452: 40,2064           02057        89TEST             TC       CHKDSP
000453: 40,2065           36214                           CAF      THREE
000454: 40,2066           71203                           MASK     DECBRNCH
000455: 40,2067           10000                           CCS      A
000456: 40,2070           02074                           TC       NUM                                   #  IF DECBRNCH IS +, 8 OR 9 OK
000457: 40,2071           03275                           TC       CHARALRM                              #  IF DECBRNCH IS +0, REJECT 8 OR 9
000458:
000459:                                                                                                  #  NUM ASSEMBLES OCTAL 3 BITS AT A TIME. FOR DECIMAL IT CONVERTS INCOMING
000460:                                                                                                  #  WORD AS A FRACTION, KEEPING RESULTS TO DP.
000461:                                                                                                  #  OCTAL RESULTS ARE LEFT IN XREG, YREG, OR ZREG. HI PART OF DEC IN XREG,
000462:                                                                                                  #  YREG, ZREG. THE LOW PARTS IN XREGLP, YREGLP, OR ZREGLP)
000463:                                                                                                  #  DECBRNCH IS LEFT AT +0 FOR OCT, +1 FOR + DEC, +2 FOR - DEC.
000464:                                                                                                  #  IF DSPCOUNT WAS LEFT -, NO MORE DATA IS ACCEPTED.
000465:
000466: 40,2072           34772                 -2        CAF      ZERO
000467: 40,2073           54117                           TS       CHAR
000468: 40,2074           02057        NUM                TC       CHKDSP
000469: 40,2075           02221                           TC       GETINREL
000470: 40,2076           11220                           CCS      CLPASS                                #  IF CLPASS IS + OR +0, MAKE IT +0.
000471: 40,2077           34772                           CAF      ZERO
000472: 40,2100           55220                           TS       CLPASS
000473: 40,2101           02102                           TC       +1
000474: 40,2102           30117                           CA       CHAR
000475: 40,2103           04423                           TC       CODSTOR
000476: 40,2104           03161                           TC       DSPIN
000477: 40,2105           36214                           CAF      THREE
000478: 40,2106           71203                           MASK     DECBRNCH
000479: 40,2107           10000                           CCS      A                                     #  +0, OCTAL.  +1, + DEC.  +2, - DEC.
000480: 40,2110           02121                           TC       DECTOBIN                              #  +
000481: 40,2111           50137                           INDEX    INREL                                 #  +0 OCTAL
000482: 40,2112           57204                           XCH      VERBREG
000483: 40,2113           54022                           TS       CYL
000484: 40,2114           40022                           CS       CYL
000485: 40,2115           40022                           CS       CYL
000486: 40,2116           56022                           XCH      CYL
000487: 40,2117           60117                           AD       CHAR
000488: 40,2120           02136                           TC       ENDNMTST


000490: 40,2121           50137        DECTOBIN           INDEX    INREL
000491: 40,2122           57204                           XCH      VERBREG
000492: 40,2123           54154                           TS       MPAC                                  #  SUM X 2EXP-14 IN MPAC
000493: 40,2124           34772                           CAF      ZERO
000494: 40,2125           54155                           TS       MPAC       +1
000495: 40,2126           34355                           CAF      TEN                                   #  10 X 2EXP-14
000496: 40,2127           07256                           TC       SHORTMP                               #  10SUM X 2EXP-28 IN MPAC, MPAC+1
000497: 40,2130           56155                           XCH      MPAC       +1
000498: 40,2131           60117                           AD       CHAR
000499: 40,2132           54155                           TS       MPAC       +1
000500: 40,2133           02136                           TC       ENDNMTST                              #  NO OF
000501: 40,2134           26154                           ADS      MPAC                                  #  OF MUST BE 5TH CHAR
000502: 40,2135           02156                           TC       DECCEND
000503: 40,2136           50137        ENDNMTST           INDEX    INREL
000504: 40,2137           55204                           TS       VERBREG
000505: 40,2140           41202                           CS       DSPCOUNT
000506: 40,2141           50137                           INDEX    INREL
000507: 40,2142           62212                           AD       CRITCON
000508: 40,2143           00006                           EXTEND
000509: 40,2144           12150                           BZF      ENDNUM                                #  -0, DSPCOUNT = CRITCON
000510: 40,2145           11202        MORNUM             CCS      DSPCOUNT                              #  -, DSPCOUNT G/ CRITCON
000511: 40,2146           55202                           TS       DSPCOUNT                              #  DECREMENT DSPCOUNT
000512: 40,2147           05205                           TC       ENDOFJOB
000513: 40,2150           36214        ENDNUM             CAF      THREE
000514: 40,2151           71203                           MASK     DECBRNCH
000515: 40,2152           10000                           CCS      A
000516: 40,2153           02156                           TC       DECCEND
000517: 40,2154           41202        ENDALL             CS       DSPCOUNT                              #  BLOCK NUMIN BY PLACING DSPCOUNT
000518: 40,2155           02146                           TC       MORNUM     +1                         #  NEGATIVELY
000519: 40,2156           04636        DECCEND            TC       BANKCALL
000520: 40,2157           60161                           CADR     DECEND
000521: 40,2160           02154                           TC       ENDALL
000522: 40,2161           44770        DECEND             CS       ONE
000523: 40,2162           60137                           AD       INREL
000524: 40,2163           00006                           EXTEND
000525: 40,2164           62154                           BZMF     ENDALL                                #  IF INREL=0,1 (VBREG,NNREG), LEAVE WHOLE
000526: 40,2165           02221                 +4        TC       GETINREL
000527: 40,2166           50137                           INDEX    INREL
000528: 40,2167           31204                           CA       VERBREG
000529: 40,2170           54155                           TS       MPAC       +1
000530: 40,2171           07052                           TC       DMP                                   #  IF INREL=2,3,4 (R1,R2,R3), CONVERT TO FRAC
000531:                                                                                                  #  MULT SUM X 2EXP-28 IN MPAC, MPAC+1 BY
000532: 40,2172           02217                           ADRES    DECON                                 #  2EXP14/10EXP5. GIVES (SUM/10EXP5)X2EXP-14
000533: 40,2173           36214                           CAF      THREE                                 #  IN MPAC, +1, +2.
000534: 40,2174           71203                           MASK     DECBRNCH
000535: 40,2175           50000                           INDEX    A
000536: 40,2176           02176                           TC       +0
000537: 40,2177           02203                           TC       +DECSGN
000538: 40,2200           00006                           EXTEND                                         #  - CASE
000539: 40,2201           40156                           DCS      MPAC       +1


000541: 40,2202           52156                           DXCH     MPAC       +1
000542: 40,2203           56156        +DECSGN            XCH      MPAC       +2
000543: 40,2204           50137                           INDEX    INREL
000544: 40,2205           55207                           TS       XREGLP     -2
000545: 40,2206           56155                           XCH      MPAC       +1
000546: 40,2207           50137                           INDEX    INREL
000547: 40,2210           55204                           TS       VERBREG
000548: 40,2211           04651                           TC       SWRETURN
000549: 40,2212  40,2212               ELRCODE1           EQUALS   CRITCON
000550: 40,2212           00022        CRITCON            OCT      22                                    #  (DEC 18)
000551: 40,2213           00020                           OCT      20                                    #  (DEC 16)
000552: 40,2214           00012                           OCT      12                                    #  (DEC 10)
000553: 40,2215           00005                           OCT      5
000554: 40,2216           00000                           OCT      0
000555:
000556: 40,2217           05174 13261  DECON              2DEC     1          E-5        B14             #  2EXP14/10EXP5 = .16384 DEC
000557:
000558:                                                                                                  #  GETINREL GETS PROPER DATA REG REL ADDRESS FOR CURRENT C(DSPCOUNT) AND
000559:                                                                                                  #  PUTS IN INTO INREL. +0 VERBREG, 1 NOUNREG, 2 XREG, 3 YREG, 4 ZREG.
000560:
000561: 40,2221           51202        GETINREL           INDEX    DSPCOUNT
000562: 40,2222           32225                           CAF      INRELTAB
000563: 40,2223           54137                           TS       INREL                                 #  (A TEMP, REG)
000564: 40,2224           00002                           TC       Q
000565:
000566: 40,2225           00004        INRELTAB           OCT      4                                     #  R3D5 (DSPCOUNT = 0)
000567: 40,2226           00004                           OCT      4                                     #  R3D4           =(1)
000568: 40,2227           00004                           OCT      4                                     #  R3D3           =(2)
000569: 40,2230           00004                           OCT      4                                     #  R3D2           =(3)
000570: 40,2231           00004                           OCT      4                                     #  R3D1           =(4)
000571: 40,2232           00003                           OCT      3                                     #  R2D5           =(5)
000572: 40,2233           00003                           OCT      3                                     #  R2D4           =(6)
000573: 40,2234           00003                           OCT      3                                     #  R2D3           =(7)
000574: 40,2235           00003                           OCT      3                                     #  R2D2           =(8D)
000575: 40,2236           00003                           OCT      3                                     #  R2D1           =(9D)
000576: 40,2237           00002                           OCT      2                                     #  R1D5           =(10D)
000577: 40,2240           00002                           OCT      2                                     #  R1D4           =(11D)
000578: 40,2241           00002                           OCT      2                                     #  R1D3           =(12D)
000579: 40,2242           00002                           OCT      2                                     #  R1D2           =(13D)
000580: 40,2243           00002                           OCT      2                                     #  R1D1           =(14D)
000581: 40,2244           00244        VNDSPCON           OCT      244                                   #  .01 ROUNDED UP. CANNOT GET HERE
000582: 40,2245           00001                           OCT      1                                     #  ND2            =(16D)
000583: 40,2246           00001                           OCT      1                                     #  ND1            =(17D)
000584: 40,2247           00000                           OCT      0                                     #  VD2            =(18D)
000585: 40,2250           00000                           OCT      0                                     #  VD1            =(19D)
000586: 40,2251           34772        VERB               CAF      ZERO


000588:
000589: 40,2252           55204                           TS       VERBREG
000590: 40,2253           34351                           CAF      VD1
000591: 40,2254           55202        NVCOM              TS       DSPCOUNT
000592: 40,2255           02473                           TC       2BLANK
000593: 40,2256           34770                           CAF      ONE
000594: 40,2257           55203                           TS       DECBRNCH                              #  SET FOR DEC V/N CODE
000595: 40,2260           34772                           CAF      ZERO
000596: 40,2261           55216                           TS       REQRET                                #  SET FOR ENTPAS0
000597: 40,2262           34170                           CAF      ENDINST                               #  IF DSPALARM OCCURS BEFORE FIRST ENTPAS0
000598: 40,2263           54136                           TS       ENTRET                                #  OR NVSUB, ENTRET MUST ALREADY BE SET
000599:                                                                                                  #  TO TC ENDOFJOB
000600: 40,2264           05205                           TC       ENDOFJOB
000601: 40,2265           34772        NOUN               CAF      ZERO
000602: 40,2266           55205                           TS       NOUNREG
000603: 40,2267           34352                           CAF      ND1                                   #  ND1, OCT 21 (DEC 17)
000604: 40,2270           02254                           TC       NVCOM
000605:
000606: 40,2271           02344        NEGSGN             TC       SIGNTEST
000607: 40,2272           02330                           TC       -ON
000608: 40,2273           34767                           CAF      TWO
000609: 40,2274           50137        BOTHSGN            INDEX    INREL                                 #  SET DEC COMP BIT TO 1 (IN DECBRNCH)
000610: 40,2275           64762                           AD       BIT7                                  #  BIT 5 FOR R1, BIT 4 FOR R2,
000611: 40,2276           27203                           ADS      DECBRNCH                              #  BIT 3 FOR R3.
000612: 40,2277           11220        FIXCLPAS           CCS      CLPASS                                #  IF CLPASS IS + OR +0, MAKE IT +0.
000613: 40,2300           34772                           CAF      ZERO
000614: 40,2301           55220                           TS       CLPASS
000615: 40,2302           02303                           TC       +1
000616: 40,2303           05205                           TC       ENDOFJOB
000617:
000618: 40,2304           02344        POSGN              TC       SIGNTEST
000619: 40,2305           02310                           TC       +ON
000620: 40,2306           34770                           CAF      ONE
000621: 40,2307           02274                           TC       BOTHSGN
000622:
000623: 40,2310           22002        +ON                LXCH     Q
000624: 40,2311           02221                           TC       GETINREL
000625: 40,2312           50137                           INDEX    INREL
000626: 40,2313           32336                           CAF      SGNTAB     -2
000627: 40,2314           54123                           TS       SGNOFF
000628: 40,2315           64770                           AD       ONE
000629: 40,2316           54122                           TS       SGNON
000630: 40,2317           34772        SGNCOM             CAF      ZERO
000631: 40,2320           54124                           TS       CODE
000632: 40,2321           56123                           XCH      SGNOFF
000633: 40,2322           03247                           TC       11DSPIN
000634: 40,2323           34756                           CAF      BIT11
000635: 40,2324           54124                           TS       CODE
000636: 40,2325           56122                           XCH      SGNON
000637: 40,2326           03247                           TC       11DSPIN


000639: 40,2327           00001                 -1        TC       L
000640: 40,2330           22002        -ON                LXCH     Q
000641: 40,2331           02221                           TC       GETINREL
000642: 40,2332           50137                           INDEX    INREL
000643: 40,2333           32336                           CAF      SGNTAB     -2
000644: 40,2334           54122                           TS       SGNON
000645: 40,2335           64770                           AD       ONE
000646: 40,2336           54123                           TS       SGNOFF
000647: 40,2337           02317                           TC       SGNCOM
000648:
000649: 40,2340           00005        SGNTAB             OCT      5                                     #  -R1
000650: 40,2341           00003                           OCT      3                                     #  -R2
000651: 40,2342           00000                 -1        OCT      00000                                 #  -R3
000652: 40,2343           02476        DECROUND           OCT      02476                                 #  MUST FOLLOW ZERO WORD
000653: 40,2344           22002        SIGNTEST           LXCH     Q                                     #  ALLOWS +,- ONLY WHEN DSPCOUNT=R1D1,
000654: 40,2345           36214                           CAF      THREE                                 #  R2D1, OR R3D1. ALLOWS ONLY FIRST OF
000655: 40,2346           71203                           MASK     DECBRNCH                              #  CONSECUTIVE +/- CHARACTERS.
000656: 40,2347           10000                           CCS      A                                     #  IF LOW2 BITS OF DECBRNCH NOT= 0, SIGN
000657: 40,2350           05205                           TC       ENDOFJOB                              #  FOR THIS WORD ALREADY IN. REJECT.
000658: 40,2351           44321                           CS       R1D1
000659: 40,2352           02360                           TC       SGNTST1
000660: 40,2353           44322                           CS       R2D1
000661: 40,2354           02360                           TC       SGNTST1
000662: 40,2355           44323                           CS       R3D1
000663: 40,2356           02360                           TC       SGNTST1
000664: 40,2357           05205                           TC       ENDOFJOB                              #  NO MATCH FOUND. SIGN ILLEGAL
000665: 40,2360           61202        SGNTST1            AD       DSPCOUNT
000666: 40,2361           00006                           EXTEND
000667: 40,2362           12327                           BZF      -ON        -1                         #  MATCH FOUND. SIGN LEGAL
000668: 40,2363           00002                           TC       Q
000669:
000670:                                                                                                  #  CLEAR BLANKS WHICH R1, R2, R3 IS CURRENT OR LAST TO BE DISPLAYED (PERTINE
000671:                                                                                                  #  NT XREG, YREG, ZREG IS CLEARED). SUCCESSIVE CLEARS TAKE CARE OF EACH RX
000672:                                                                                                  #  L/ RC UNTIL R1 IS DONE. THEN NO FURTHER ACTION
000673:
000674:                                                                                                  #  CLPASS        +0      PASS0, CAN BE BACKED UP
000675:                                                                                                  #                +NZ     HIPASS, CAN BE BACKED UP
000676:                                                                                                  #                -NZ     PASS0, CANNOT BE BACKED UP
000677:
000678: 40,2364           11202        CLEAR              CCS      DSPCOUNT
000679: 40,2365           64770                           AD       ONE
000680: 40,2366           02370                           TC       +2
000681: 40,2367           64770                           AD       ONE
000682: 40,2370           50000                           INDEX    A                                     #  DO NOT CHANGE DSPCOUNT BECAUSE MAY LATER
000683: 40,2371           32225                           CAF      INRELTAB                              #  FAIL LEGALTST.
000684: 40,2372           54137                           TS       INREL                                 #  MUST SET INREL, EVEN FOR HIPASS.
000685: 40,2373           11220                           CCS      CLPASS
000686: 40,2374           02402                           TC       CLPASHI                               #  +


000688: 40,2375           02377                           TC       +2                                    #  +0    IF CLPASS IS +0 OR -, IT IS PASS0
000689: 40,2376           02377                           TC       +1                                    #  -
000690: 40,2377           30137                           CA       INREL
000691: 40,2400           02424                           TC       LEGALTST
000692: 40,2401           02417                           TC       CLEAR1
000693: 40,2402           10137        CLPASHI            CCS      INREL
000694: 40,2403           54137                           TS       INREL
000695: 40,2404           02424                           TC       LEGALTST
000696: 40,2405           32472                           CAF      DOUBLK     +2                         #  +3 TO - NUMBER. BACKS DATA REQUESTS.
000697: 40,2406           27216                           ADS      REQRET
000698: 40,2407           30137                           CA       INREL
000699: 40,2410           54125                           TS       MIXTEMP                               #  TEMP STORAGE FOR INREL
000700: 40,2411           00006                           EXTEND
000701: 40,2412           27204                           DIM      VERBREG                               #  DECREMENT VERB AND RE-DISPLAY
000702: 40,2413           04636                           TC       BANKCALL
000703: 40,2414           62337                           CADR     UPDATVB
000704: 40,2415           30125                           CA       MIXTEMP
000705: 40,2416           54137                           TS       INREL                                 #  RESTORE INREL
000706: 40,2417           02422        CLEAR1             TC       CLR5
000707: 40,2420           25220                           INCR     CLPASS                                #  ONLY IF CLPASS IS + OR +0,
000708: 40,2421           05205                           TC       ENDOFJOB                              #  SET FOR HIGHER PASS.
000709: 40,2422           22002        CLR5               LXCH     Q                                     #  USES 5BLANK BUT AVOIDS ITS TC GETINREL
000710: 40,2423           02433                           TC       5BLANK     +2
000711: 40,2424           67702        LEGALTST           AD       NEG1
000712: 40,2425           00006                           EXTEND
000713: 40,2426           65205                           BZMF     ENDOFJOB                              #  ILLEGAL. INREL=0,1
000714: 40,2427           00002                           TC       Q                                     #  LEGAL. INREL GE 2
000715:
000716:                                                                                                  #  5BLANK BLANKS 5 CHAR DISPLAY WORD IN R1, R2, OR R3. IT ALSO ZEROES XREG,
000717:                                                                                                  #  YREG, OR ZREG. PLACE ANY + DSPCOUNT NUMBER FOR PERTINENT RC INTO DSPCOUNT
000718:                                                                                                  #  DSPCOUNT IS LEFT SET TO LEFT MOST DSP NUMB FOR RC JUST BLANKED.
000719:
000720: 40,2430           55202                 -1        TS       DSPCOUNT                              #  NEEDED FOR BLANKSUB
000721: 40,2431           22002        5BLANK             LXCH     Q
000722: 40,2432           02221                           TC       GETINREL
000723: 40,2433           34772                 +2        CAF      ZERO
000724: 40,2434           50137                           INDEX    INREL
000725: 40,2435           55204                           TS       VERBREG                               #  ZERO X, Y, Z REG.
000726: 40,2436           50137                           INDEX    INREL
000727: 40,2437           55207                           TS       XREGLP     -2
000728: 40,2440           54124                           TS       CODE
000729: 40,2441           50137                           INDEX    INREL                                 #  ZERO PERTINENT DEC COMP BIT.
000730: 40,2442           44762                           CS       BIT7                                  #  PROTECT OTHERS
000731: 40,2443           71203                           MASK     DECBRNCH
000732: 40,2444           77700                           MASK     BRNCHCON                              #  ZERO LOW 2 BITS.
000733: 40,2445           55203                           TS       DECBRNCH
000734: 40,2446           50137                           INDEX    INREL
000735: 40,2447           32463                           CAF      SINBLANK   -2                         #  BLANK ISOLATED CHAR SEPARATELY
000736: 40,2450           54143                           TS       COUNT
000737: 40,2451           03161                           TC       DSPIN
000738: 40,2452           50137        5BLANK1            INDEX    INREL


000740: 40,2453           32466                           CAF      DOUBLK     -2
000741: 40,2454           55202                           TS       DSPCOUNT
000742: 40,2455           02473                           TC       2BLANK
000743: 40,2456           44767                           CS       TWO
000744: 40,2457           27202                           ADS      DSPCOUNT
000745: 40,2460           02473                           TC       2BLANK
000746: 40,2461           50137                           INDEX    INREL
000747: 40,2462           34317                           CAF      R1D1       -2
000748: 40,2463           55202                           TS       DSPCOUNT                              #  SET DSPCOUNT TO LEFT MOST DSP NUMBER
000749: 40,2464           00001                           TC       L                                     #  OF REG. JUST BLANKED
000750:
000751: 40,2465           00016        SINBLANK           OCT      16                                    #  DEC 14
000752: 40,2466           00005                           OCT      5
000753: 40,2467           00004                           OCT      4
000754: 40,2470           00015        DOUBLK             OCT      15                                    #  DEC 13
000755: 40,2471           00011                           OCT      11                                    #  DEC 9
000756: 40,2472           00003                 +2        OCT      3
000757: 40,2473     7700               BRNCHCON           EQUALS   NEG3
000758:
000759:                                                                                                  #  2BLANK BLANKS TWO CHAR. PLACE DSP NUMBER OF LEFT CHAR OF THE PAIR INTO
000760:                                                                                                  #  DSPCOUNT. THIS NUMBER IS LEFT IN DSPCOUNT
000761:
000762: 40,2473           31202        2BLANK             CA       DSPCOUNT
000763: 40,2474           54021                           TS       SR
000764: 40,2475           44755                           CS       BLANKCON
000765: 40,2476           00004                           INHINT
000766: 40,2477           50021                           INDEX    SR
000767: 40,2500           57226                           XCH      DSPTAB
000768: 40,2501           00006                           EXTEND
000769: 40,2502           62504                           BZMF     +2                                    #  IF OLD CONTENTS -, NOUT OK
000770: 40,2503           25221                           INCR     NOUT                                  #  IF OLD CONTENTS +, +1 TO NOUT
000771: 40,2504           15642                           TCF      REQ                                   #  IF -, NOUT OK
000772: 40,2505     4755               BLANKCON           EQUALS   BIT12
000773:


000775:                                                                                                  #  ENTER PASS 0 IS THE EXECUTE FUNCTION. HIGHER ORDER ENTERS ARE TO LOAD
000776:                                                                                                  #  DATA. THE SIGN OF REQRET DETERMINES THE PASS, + FOR PASS 0, - FOR HIGHER
000777:                                                                                                  #  PASSES.
000778:
000779:                                                                                                  #  MACHINE CADR TO BE SPECIFIED (MCTBS) NOUNS DESIRE AN ECADR TO BE LOADED
000780:                                                                                                  #  WHEN USED WITH LOAD VERBS, MONITOR VERBS, OR DISPLAY VERBS (EXCEPT
000781:                                                                                                  #  VERB = FIXED MEMORY DISPLAY, WHICH REQUIRES AN FCADR).
000782:
000783: 41,2000                                           SETLOC   PINBALL2
000784: 41,2000                                           BANK
000785:
000786: 41,2000                                           COUNT*   $$/PIN
000787: 41,2000  41,3513               NVSUBB             EQUALS   NVSUB1
000788: 41,2000  41,3001               LOADLV1            EQUALS   LOADLV
000789: 41,2000           34772        ENTER              CAF      ZERO
000790: 41,2001           55220                           TS       CLPASS
000791: 41,2002           34170                           CAF      ENDINST
000792: 41,2003           54136                           TS       ENTRET
000793: 41,2004           11216                           CCS      REQRET
000794: 41,2005           02040                           TC       ENTPAS0                               #  IF +, PASS 0
000795: 41,2006           02040                           TC       ENTPAS0                               #  IF +, PASS 0
000796: 41,2007           02010                           TC       +1                                    #  IF -, NOT PASS 0
000797: 41,2010           32036        ENTPASHI           CAF      MMADREF
000798: 41,2011           61216                           AD       REQRET                                #  IF L/ 2 CHAR IN FOR MM CODE, ALARM
000799: 41,2012           00006                           EXTEND                                         #  AND RECYCLE (DECIDE AT MMCHANG+1).
000800: 41,2013           12025                           BZF      ACCEPTWD
000801: 41,2014           36214                           CAF      THREE                                 #  IF DEC, L/ 5 CHAR IN FOR DATA MUST BE
000802: 41,2015           71203                           MASK     DECBRNCH                              #  SCALED (DECEND); IF 5 CHAR IN, DATA
000803: 41,2016           10000                           CCS      A                                     #  HAS ALREADY BEEN SCALED. ANY NUMBER
000804: 41,2017           02021                           TC       +2                                    #  OF DECIMAL CHARACTERS ARE ACCEPTABLE.SCR
000805: 41,2020           02025                           TC       ACCEPTWD                              #  OCTAL. ANY NUMBER OF CHAR OK.
000806: 41,2021           11202                           CCS      DSPCOUNT
000807: 41,2022           02031                           TC       LT5
000808: 41,2023           02031                           TC       LT5
000809: 41,2024           02025                           TC       +1                                    #  5 CHAR IN (DSPCOUNT IS -)
000810: 41,2025           41216        ACCEPTWD           CS       REQRET                                #  5 CHAR IN (DSPCOUNT IS -)
000811: 41,2026           55216                           TS       REQRET                                #  SET REQRET +.
000812: 41,2027           04417                           TC       FLASHOFF
000813: 41,2030           01216                           TC       REQRET
000814:
000815: 41,2031           34772        LT5                CAF      ZERO
000816: 41,2032           54154                           TS       MPAC
000817: 41,2033           04636                           TC       BANKCALL
000818: 41,2034           60165                           CADR     DECEND     +4
000819: 41,2035           02025                           TC       ACCEPTWD
000820: 41,2036           03377        MMADREF            ADRES    MMCHANG    +1                         #  ASSUMES TC REQMM AT MMCHANG.
000821:
000822: 41,2037           00034        LOWVERB            DEC      28         B-14                       #  LOWER VERB THAT AVOIDS NOUN TEST.
000823:


000825: 41,2040           34772        ENTPAS0            CAF      ZERO                                  #  NOUN VERB SUB ENTERS HERE
000826: 41,2041           55203                           TS       DECBRNCH
000827: 41,2042           04261                           TC       -VD1SET
000828: 41,2043           41204        TESTVB             CS       VERBREG                               #  IF VERB IS G/E LOWVB, SKIP NOUN TEST.
000829: 41,2044           55244                           TS       VERBSAVE                              #  SAVE VERB FOR POSSIBLE RECYCLE.
000830: 41,2045           62037                           AD       LOWVERB                               #  LOWVERB - VB
000831: 41,2046           00006                           EXTEND
000832: 41,2047           62133                           BZMF     VERBFAN                               #  VERB G/E LOWVERB
000833: 41,2050           00006        TESTNN             EXTEND                                         #  VERB L/ LOWVERB
000834: 41,2051           32115                           DCA      LODNNLOC                              #  SWITCH BANKS TO NOUN TABLE READING
000835: 41,2052           52006                           DXCH     Z                                     #  ROUTINE.
000836: 41,2053           50140                           INDEX    MIXBR
000837: 41,2054           02054                           TC       +0
000838: 41,2055           02057                           TC       +2                                    #  NORMAL
000839: 41,2056           02220                           TC       MIXNOUN                               #  MIXED
000840: 41,2057           10146                           CCS      NNADTEM                               #  NORMAL
000841: 41,2060           02131                           TC       VERBFAN    -2                         #        NORMAL  IF +
000842: 41,2061           02350                           TC       GODSPALM                              #  NOT IN USE    IF +0
000843: 41,2062           02066                           TC       REQADD                                #  SPECIFY MACHINE CADR IF -
000844: 41,2063           25222                           INCR     NOUNCADR                              #  AUGMENT MACHINE CADR IF -0
000845: 41,2064           04313                           TC       SETNADD                               #  ECADR FROM NOUNCADR. SETS EB, NOUNADD.
000846: 41,2065           02120                           TC       INTMCTBS   +2
000847: 41,2066           34752        REQADD             CAF      BIT15                                 #  SET CLPASS FOR PASS 0 ONLY
000848: 41,2067           55220                           TS       CLPASS
000849: 41,2070           44170                           CS       ENDINST                               #  TEST IF REACHED HERE FROM INTERNAL OR
000850: 41,2071           60136                           AD       ENTEXIT                               #        FROM EXTERNAL
000851: 41,2072           00006                           EXTEND
000852: 41,2073           12075                           BZF      +2                                    #  EXTERNAL MACH CADR TO BE SPECIFIED
000853: 41,2074           02116                           TC       INTMCTBS
000854: 41,2075           02304                           TC       REQDATZ                               #  EXTERNAL MACH CADR TO BE SPECIFIED
000855: 41,2076           11203                           CCS      DECBRNCH                              #  ALARM AND RECYCLE IF DECIMAL USED
000856: 41,2077           04173                           TC       ALMCYCLE                              #  FOR MCTBS.
000857: 41,2100           04261                           TC       -VD1SET
000858: 41,2101           11245                           CCS      CADRSTOR
000859: 41,2102           02105                           TC       +3                                    #  EXTERNAL MCTBS DISPLAY WILL LEAVE FLASH
000860: 41,2103           02106                           TC       USEADD                                #  ON IF ENDIDLE NOT = +0.
000861: 41,2104           02105                           TC       +1
000862: 41,2105           04360                           TC       FLASHON
000863: 41,2106           57210        USEADD             XCH      ZREG
000864: 41,2107           04305                           TC       SETNCADR                              #  ECADR INTO NOUNCADR. SET EB, NOUNADD.
000865: 41,2110           00006                           EXTEND
000866: 41,2111           32115                           DCA      LODNNLOC                              #  SWITCH BANKS TO NOUN TABLE READING
000867: 41,2112           52006                           DXCH     Z                                     #  ROUTINE.
000868: 41,2113           02133                           TC       VERBFAN
000869:
000870: 41,2114     1202                                  EBANK=   DSPCOUNT
000871: 41,2114           02056 64102  LODNNLOC           2CADR    LODNNTAB
000872:
000873: 41,2116           30156        INTMCTBS           CA       MPAC       +2                         #  INTERNAL MACH CADR TO BE SPECIFIED.


000875: 41,2117           04305                           TC       SETNCADR                              #  ECADR INTO NOUNCADR. SET EB, NOUNADD.
000876: 41,2120           44773                 +2        CS       FIVE                                  #  NVSUB CALL LEFT CADR IN MPAC+2 FOR MACH
000877: 41,2121           61204                           AD       VERBREG                               #  CADR TO BE SPECIFIED.
000878: 41,2122           00006                           EXTEND
000879: 41,2123           12133                           BZF      VERBFAN                               #  DONT DISPLAY CADR IF VB = 05.
000880: 41,2124           34323                           CAF      R3D1                                  #  VB NOT = 05. DISPLAY CADR.
000881: 41,2125           55202                           TS       DSPCOUNT
000882: 41,2126           31222                           CA       NOUNCADR
000883: 41,2127           03351                           TC       DSPOCTWD
000884: 41,2130           02133                           TC       VERBFAN
000885:
000886: 41,2131           64770                 -2        AD       ONE
000887: 41,2132           04305                           TC       SETNCADR                              #  ECADR INTO NOUNCADR. SETS EB, NOUNADD.
000888: 41,2133           45004        VERBFAN            CS       LST2CON
000889: 41,2134           61204                           AD       VERBREG                               #  VERB-LST2CON
000890: 41,2135           10000                           CCS      A
000891: 41,2136           64770                           AD       ONE                                   #  VERB G/ LST2CON
000892: 41,2137           02141                           TC       +2
000893: 41,2140           02145                           TC       VBFANDIR                              #  VERB L/ LST2CON
000894: 41,2141           54154                           TS       MPAC
000895: 41,2142           04432                           TC       RELDSP                                #  RELEASE DISPLAY SYST
000896: 41,2143           04655                           TC       POSTJUMP                              #  GO TO GOEXTVB WITH VB-40 IN MPAC.
000897: 41,2144           66000                           CADR     GOEXTVB
000898: 41,2145     5004               LST2CON            EQUALS   OCT50                                 #  DEC40-FIRST EXTENDED VERB
000899: 41,2145           51204        VBFANDIR           INDEX    VERBREG
000900: 41,2146           32150                           CAF      VERBTAB
000901: 41,2147           04660                           TC       BANKJUMP
000902:
000903: 41,2150           62350        VERBTAB            CADR     GODSPALM                              #  VB00 ILLEGAL
000904: 41,2151           62364                           CADR     DSPA                                  #  VB01 DISPLAY OCT COMP 1 (R1)
000905: 41,2152           62372                           CADR     DSPB                                  #  VB02 DISPLAY OCT COMP 2 (R1)
000906: 41,2153           62377                           CADR     DSPC                                  #  VB03 DISPLAY OCT COMP 3 (R1)
000907: 41,2154           62357                           CADR     DSPAB                                 #  VB04 DISPLAY OCT COMP 1,2 (R1,R2)
000908: 41,2155           62352                           CADR     DSPABC                                #  VB05 DISPLAY OCT COMP 1,2,3 (R1,R2,R3)
000909: 41,2156           62516                           CADR     DECDSP                                #  VB06 DECIMAL DISPLAY
000910: 41,2157           60657                           CADR     DSPDPDEC                              #  VB07 DP DECIMAL DISPLAY (R1,R2)
000911: 41,2160           62350                           CADR     GODSPALM                              #  VB08 SPARE
000912: 41,2161           62350                           CADR     GODSPALM                              #  VB09 SPARE
000913: 41,2162           61261                           CADR     DSPALARM                              #  VB10 SPARE
000914: 41,2163           63224                           CADR     MONITOR                               #  VB11 MONITOR OCT COMP 1 (R1)
000915: 41,2164           63224                           CADR     MONITOR                               #  VB12 MONITOR OCT COMP 2 (R1)
000916: 41,2165           63224                           CADR     MONITOR                               #  VB13 MONITOR OCT COMP 3 (R1)
000917: 41,2166           63224                           CADR     MONITOR                               #  VB14 MONITOR OCT COMP 1,2 (R1,R2)
000918: 41,2167           63224                           CADR     MONITOR                               #  VB15 MONITOR OCT COMP 1,2,3 (R1,R2,R3)
000919: 41,2170           63224                           CADR     MONITOR                               #  VB16 MONITOR DECIMAL
000920: 41,2171           63224                           CADR     MONITOR                               #  VB17 MONITOR DP DEC (R1,R2)
000921: 41,2172           62350                           CADR     GODSPALM                              #  VB18 SPARE
000922: 41,2173           62350                           CADR     GODSPALM                              #  VB19 SPARE
000923: 41,2174           62350                           CADR     GODSPALM                              #  VB20 SPARE
000924: 41,2175           62741                           CADR     ALOAD                                 #  VB21 LOAD COMP 1 (R1)


000926: 41,2176           62750                           CADR     BLOAD                                 #  VB22 LOAD COMP 2 (R2)
000927: 41,2177           62765                           CADR     CLOAD                                 #  VB23 LOAD COMP 3 (R3)
000928: 41,2200           62716                           CADR     ABLOAD                                #  VB24 LOAD COMP 1,2 (R1,R2)
000929: 41,2201           62611                           CADR     ABCLOAD                               #  VB25 LOAD COMP 1,2,3 (R1,R2,R3)
000930: 41,2202           62350                           CADR     GODSPALM                              #  VB26 SPARE
000931: 41,2203           63341                           CADR     DSPFMEM                               #  VB27 FIXED MEMORY DISPLAY
000932:                                                                                                  #  THE FOLLOWING VERBS MAKE NO NOUN TEST
000933: 41,2204           62350                           CADR     GODSPALM                              #  VB28 SPARE
000934: 41,2205           62350                           CADR     GODSPALM                              #  VB29 SPARE
000935: 41,2206           63433        REQEXLQC           CADR     VBRQEXEC                              #  VB30 REQUEST EXECUTIVE
000936: 41,2207           63462                           CADR     VBRQWAIT                              #  VB31 REQUEST WAITLIST
000937: 41,2210           61323                           CADR     VBRESEQ                               #  VB32 RESEQUENCE
000938: 41,2211           61301                           CADR     VBPROC                                #  VB33 PROCEED WITHOUT DATA
000939: 41,2212           61307                           CADR     VBTERM                                #  VB34 TERMINATE CURRENT TEST OR LOAD REQ
000940: 41,2213           61432                           CADR     VBTSTLTS                              #  VB35 TEST LIGHTS
000941: 41,2214           12367                           CADR     SLAP1                                 #  VB36 FRESH START
000942: 41,2215           63376                           CADR     MMCHANG                               #  VB37 CHANGE MAJOR MODE
000943: 41,2216           62350                           CADR     GODSPALM                              #  VB38 SPARE
000944: 41,2217           62350                           CADR     GODSPALM                              #  VB39 SPARE
000945:
000946:                                                                                                  #  THE LIST2 VERBFAN IS LOCATED IN THE EXTENDED VERB BANK.
000947:


000949:
000950:                                                                                                  #  NNADTAB CONTAINS A RELATIVE ADDRESS, IDADDREL (IN LOW 10 BITS), REFERRING
000951:                                                                                                  #  TO WHERE 3 CONSECUTIVE ADDRESSES ARE STORED (IN IDADDTAB).
000952:                                                                                                  #  MIXNOUN GETS DATA AND STORES IN MIXTEMP,+1,+2. IT SETS NOUNADD FOR
000953:                                                                                                  #  MIXTEMP.
000954:
000955: 41,2220           10146        MIXNOUN            CCS      NNADTEM
000956: 41,2221           02225                           TC       +4                                    #  +  IN USE
000957: 41,2222           02350                           TC       GODSPALM                              #  +0 NOT IN USE
000958: 41,2223           02225                           TC       +2                                    #  -  IN USE
000959: 41,2224           02225                           TC       +1                                    #  -0 IN USE
000960: 41,2225           46211                           CS       SIX
000961: 41,2226           61204                           AD       VERBREG
000962: 41,2227           00006                           EXTEND
000963: 41,2230           62232                           BZMF     +2                                    #  VERB L/E 6
000964: 41,2231           02133                           TC       VERBFAN                               #  AVOID MIXNOUN SWAP IF VB NOT = DISPLAY
000965: 41,2232           34767                           CAF      TWO
000966: 41,2233           54117        MIXNN1             TS       DECOUNT
000967: 41,2234           62257                           AD       MIXAD
000968: 41,2235           54145                           TS       NOUNADD                               #  SET NOUNADD TO MIXTEMP + K
000969: 41,2236           50117                           INDEX    DECOUNT                               #  GET IDADDTAB ENTRY FOR COMPONENT K
000970: 41,2237           30150                           CA       IDAD1TEM                              #  OF NOUN.
000971: 41,2240           54122                           TS       NOUNTEM
000972:                                                                                                  #  TEST FOR DP (FOR OCT DISPLAY). IF SO, GET
000973:                                                                                                  #    MINOR PART ONLY.
000974: 41,2241           03033                           TC       SFRUTMIX                              #  GET SF ROUT NUMBER IN A
000975: 41,2242           02260                           TC       DPTEST
000976: 41,2243           02245                           TC       MIXNN2                                #  NO DP
000977: 41,2244           24122                           INCR     NOUNTEM                               #  DP  GET MINOR PART
000978: 41,2245           30122        MIXNN2             CA       NOUNTEM
000979: 41,2246           74347                           MASK     LOW11                                 #  ESUBK (NO DP) OR (ESUBK)+1  FOR DP
000980: 41,2247           04315                           TC       SETEBANK                              #  SET EBANK, LEAVE EADRES IN A.
000981: 41,2250           50000                           INDEX    A                                     #  PICK UP C(ESUBK)  NOT DP
000982: 41,2251           30000                           CA       0                                     #  OR C((ESUBK)+1)  FOR DP MINOR PART
000983: 41,2252           50145                           INDEX    NOUNADD
000984: 41,2253           56000                           XCH      0                                     #  STORE IN MIXTEM + K
000985: 41,2254           10117                           CCS      DECOUNT
000986: 41,2255           02233                           TC       MIXNN1
000987: 41,2256           02133                           TC       VERBFAN
000988:
000989: 41,2257           00125        MIXAD              TC       MIXTEMP
000990:
000991:                                                                                                  #  DPTEST        ENTER WITH SF ROUT NUMBER IN A.
000992:                                                                                                  #                RETURNS TO L+1 IF NO DP.
000993:                                                                                                  #                RETURNS TO L+2 IF DP.
000994:
000995: 41,2260           50000        DPTEST             INDEX    A
000996: 41,2261           12262                           TCF      +1
000997: 41,2262           00002                           TC       Q                                     #  OCTAL ONLY  NO DP
000998: 41,2263           00002                           TC       Q                                     #  FRACT NO DP


001000: 41,2264           00002                           TC       Q                                     #  DEG  NO DP
001001: 41,2265           00002                           TC       Q                                     #  ARITH  NO DP
001002: 41,2266           16706                           TCF      DPTEST1                               #  DP1OUT
001003: 41,2267           16706                           TCF      DPTEST1                               #  DP2OUT
001004: 41,2270           00002                           TC       Q                                     #  OPDEG  NO DP
001005: 41,2271           16706                           TCF      DPTEST1                               #  DP3OUT
001006: 41,2272           00002                           TC       Q                                     #  HMS   NO DP
001007: 41,2273           00002                           TC       Q                                     #  M/S   NO DP
001008: 41,2274           16706                           TCF      DPTEST1                               #  DP4OUT
001009: 41,2275           00002                           TC       Q                                     #  ARITH1   NO DP
001010: 41,2276           00002                           TC       Q                                     #  2INTOUT  NO DP TO GET HI PART IN MPAC
001011: 41,2277           16706                           TCF      DPTEST1                               #  DPFRACOT
001012: 41,2300     6706               DPTEST1            EQUALS   Q+1
001013: 41,2300           34321        REQDATX            CAF      R1D1
001014: 41,2301           12305                           TCF      REQCOM
001015: 41,2302           34322        REQDATY            CAF      R2D1
001016: 41,2303           12305                           TCF      REQCOM
001017: 41,2304           34323        REQDATZ            CAF      R3D1
001018: 41,2305           55202        REQCOM             TS       DSPCOUNT
001019: 41,2306           40002                           CS       Q
001020: 41,2307           55216                           TS       REQRET
001021: 41,2310           04636                           TC       BANKCALL
001022: 41,2311           60431                           CADR     5BLANK
001023: 41,2312           04360                           TC       FLASHON
001024: 41,2313           00136        ENDRQDAT           TC       ENTEXIT
001025:
001026: 41,2314           30157                 -2        CA       MPAC       +3
001027: 41,2315           55205                 -1        TS       NOUNREG
001028: 41,2316           56002        UPDATNN            XCH      Q
001029: 41,2317           54117                           TS       UPDATRET
001030: 41,2320           00006                           EXTEND
001031: 41,2321           32115                           DCA      LODNNLOC                              #  SWITCH BANKS TO NOUN TABLE READING
001032: 41,2322           52006                           DXCH     Z                                     #  ROUTINE.
001033: 41,2323           10146                           CCS      NNADTEM
001034: 41,2324           64770                           AD       ONE                                   #  NORMAL
001035: 41,2325           12330                           TCF      PUTADD
001036: 41,2326           12331                           TCF      PUTADD     +1                         #  MCTBS  DONT CHANGE NOUNADD
001037: 41,2327           12331                           TCF      PUTADD     +1                         #  MCTBI  DONT CHANGE NOUNADD
001038: 41,2330           04305        PUTADD             TC       SETNCADR                              #  ECADR INTO NOUNCADR. SETS EB, NOUNADD.
001039: 41,2331           34352                           CAF      ND1
001040: 41,2332           55202                           TS       DSPCOUNT
001041: 41,2333           31205                           CA       NOUNREG
001042: 41,2334           12344                           TCF      UPDAT1
001043:
001044: 41,2335           30160                 -2        CA       MPAC       +4
001045: 41,2336           55204                 -1        TS       VERBREG
001046: 41,2337           56002        UPDATVB            XCH      Q
001047: 41,2340           54117                           TS       UPDATRET
001048: 41,2341           34351                           CAF      VD1
001049: 41,2342           55202                           TS       DSPCOUNT


001051: 41,2343           31204                           CA       VERBREG
001052: 41,2344           04655        UPDAT1             TC       POSTJUMP                              #  CANT USE SWCALL TO GO TO DSPDECVN, SINCE
001053: 41,2345           61156                           CADR     GOVNUPDT                              #  UPDATVB CAN ITSELF BE CALLED BY SWCALL.
001054: 41,2346           00117                 +2        TC       UPDATRET
001055:
001056: 41,2347           04173        GOALMCYC           TC       ALMCYCLE                              #  NEEDED BECAUSE BANKJUMP CANT HANDLE F/F.
001057:
001058: 41,2350           04655        GODSPALM           TC       POSTJUMP
001059: 41,2351           61261                           CADR     DSPALARM
001060:


001062:
001063:                                                                                                  #  NOUN TABLES
001064:
001065:                                                                                                  #  NOUN CODE L/40, NORMAL NOUN CASE.  NOUN CODE G/E 40, MIXED NOUN CASE.
001066:                                                                                                  #  FOR NORMAL CASE, NNADTAB CONTAINS ONE  ECADR  FOR EACH NOUN.
001067:                                                                                                  #  +0 INDICATES NOUN NOT USED.  - ENTRY INDICATES MACHINE CADR (E OR F) TO
001068:                                                                                                  #  BE SPECIFIED. -1 INDICATES CHANNEL TO BE SPECIFIED. -0 INDICATES AUGMENT
001069:                                                                                                  #  OF LAST MACHINE CADR SUPPLIED.
001070:
001071:                                                                                                  #  FOR MIXED CASE, NNADTAB CONTAINS ONE INDIRECT ADDRESS (IDADDREL) IN LOW
001072:                                                                                                  #  10 BITS, AND THE COMPONENT CODE NUMBER IN THE HIGH 5 BITS.
001073:
001074:                                                                                                  #  NNTYPTAB IS A PACKED TABLE OF THE FORM MMMMMNNNNNPPPPP.
001075:
001076:                                                                                                  #  FOR THE NORMAL CASE,  M-S ARE THE COMPONENT CODE NUMBER.
001077:                                                                                                  #                        N-S ARE THE SF ROUTINE CODE NUMBER.
001078:                                                                                                  #                        P-S ARE THE SF CONSTANT CODE NUMBER.
001079:
001080:                                                                                                  #  MIXED CASE,           M-S ARE THE SF CONSTANT3 CODE NUMBER    3 COMPONENT CASE
001081:                                                                                                  #                        N-S ARE THE SF CONSTANT2 CODE NUMBER
001082:                                                                                                  #                        P-S ARE THE SF CONSTANT1 CODE NUMBER
001083:                                                                                                  #                        N-S ARE THE SF CONSTANT2 CODE NUMBER    2 COMPONENT CASE
001084:                                                                                                  #                        P-S ARE THE SF CONSTANT1 CODE NUMBER
001085:                                                                                                  #                        P-S ARE THE SF CONSTANT1 CODE NUMBER    1 COMPONENT CASE
001086:
001087:                                                                                                  #  THERE IS ALSO AN INDIRECT ADDRESS TABLE (IDADDTAB) FOR MIXED CASE ONLY.
001088:                                                                                                  #  EACH ENTRY CONTAINS ONE ECADR.  IDADDREL IS THE RELATIVE ADDRESS OF
001089:                                                                                                  #  THE FIRST OF THESE ENTRIES.
001090:                                                                                                  #  THERE IS ONE ENTRY IN THIS TABLE FOR EACH COMPONENT OF A MIXED NOUN
001091:                                                                                                  #  THEY ARE LISTED IN ORDER OF ASCENDING K.
001092:
001093:                                                                                                  #  THERE IS ALSO A SCALE FACTOR ROUTINE NUMBER TABLE (RUTMXTAB) FOR MIXED
001094:                                                                                                  #  CASE ONLY. THERE IS ONE ENTRY PER MIXED NOUN. THE FORM IS,
001095:
001096:                                                                                                  #        QQQQQRRRRRSSSSS
001097:
001098:                                                                                                  #  Q-S ARE THE SF ROUTINE 3 CODE NUMBER          3 COMPONENT CASE
001099:                                                                                                  #  R-S ARE THE SF ROUTINE 2 CODE NUMBER
001100:                                                                                                  #  S-S ARE THE SF ROUTINE 1 CODE NUMBER
001101:                                                                                                  #  R-S ARE THE SF ROUTINE 2 CODE NUMBER          2 COMPONENT CASE
001102:                                                                                                  #  S-S ARE THE SF ROUTINE 1 CODE NUMBER
001103:
001104:                                                                                                  #  IN OCTAL DISPLAY AND LOAD (OCT OR DEC) VERBS, EXCLUDE USE OF VERBS WHOSE
001105:                                                                                                  #  COMPONENT NUMBER IS GREATER THAN THE NUMBER OF COMPONENTS IN NOUN.
001106:                                                                                                  #  (ALL MACHINE ADDRESS TO BE SPECIFIED NOUNS ARE 3 COMPONENT.)
001107:
001108:                                                                                                  #  IN MULTI-COMPONENT LOAD VERBS, NO MIXING OF OCTAL AND DECIMAL DATA
001109:                                                                                                  #  COMPONENT WORDS IS ALLOWED. ALARM IF VIOLATION.
001110:
001111:                                                                                                  #  IN DECIMAL LOADS OF DATA, 5 NUMERICAL CHARACTERS MUST BE KEYED IN
001112:                                                                                                  #  BEFORE EACH ENTER. IF NOT, ALARM.
001113:


001115:
001116:                                                                                                  #  DISPLAY VERBS
001117:
001118: 41,2352           44767        DSPABC             CS       TWO
001119: 41,2353           02423                           TC       COMPTEST
001120: 41,2354           50145                           INDEX    NOUNADD
001121: 41,2355           40002                           CS       2
001122: 41,2356           56132                           XCH      BUF        +2
001123: 41,2357           44770        DSPAB              CS       ONE
001124: 41,2360           02423                           TC       COMPTEST
001125: 41,2361           50145                           INDEX    NOUNADD
001126: 41,2362           40001                           CS       1
001127: 41,2363           56131                           XCH      BUF        +1
001128: 41,2364           44772        DSPA               CS       ZERO
001129: 41,2365           02436                           TC       DCOMPTST
001130: 41,2366           02461                           TC       TSTFORDP
001131: 41,2367           50145                           INDEX    NOUNADD
001132: 41,2370           40000                           CS       0
001133: 41,2371           02403                           TC       DSPCOM1
001134: 41,2372           44770        DSPB               CS       ONE
001135: 41,2373           02436                           TC       DCOMPTST
001136: 41,2374           50145                           INDEX    NOUNADD
001137: 41,2375           40001                           CS       1
001138: 41,2376           02403                           TC       DSPCOM1
001139: 41,2377           44767        DSPC               CS       TWO
001140: 41,2400           02436                           TC       DCOMPTST
001141: 41,2401           50145                           INDEX    NOUNADD
001142: 41,2402           40002                           CS       2
001143: 41,2403           56130        DSPCOM1            XCH      BUF
001144: 41,2404           44767        DSPCOM2            CS       TWO                                   #  A  B  C  AB ABC
001145: 41,2405           61204                           AD       VERBREG                               #  -1 -0 +1 +2 +3  IN A
001146: 41,2406           10000                 +2        CCS      A                                     #  +0 +0 +0 +1 +2  IN A AFTER CCS
001147: 41,2407           02412                           TC       DSPCOM3
001148: 41,2410           00136                           TC       ENTEXIT
001149: 41,2411           02412                           TC       +1
001150: 41,2412           54122        DSPCOM3            TS       DISTEM                                #  +0,+1,+2 INTO DISTEM
001151: 41,2413           50000                           INDEX    A
001152: 41,2414           34321                           CAF      R1D1
001153: 41,2415           55202                           TS       DSPCOUNT
001154: 41,2416           50122                           INDEX    DISTEM
001155: 41,2417           40130                           CS       BUF
001156: 41,2420           03351                           TC       DSPOCTWD
001157: 41,2421           56122                           XCH      DISTEM
001158: 41,2422           02406                           TC       DSPCOM2    +2
001159:
001160:                                                                                                  #  COMPTEST ALARMS IF COMPONENT NUMBER OF VERB (LOAD OR OCT DISPLAY) IS
001161:                                                                                                  #  GREATER THAN THE HIGHEST COMPONENT NUMBER OF NOUN.
001162:
001163: 41,2423           54123        COMPTEST           TS       SFTEMP1                               #  - VERB COMP
001164: 41,2424           22002                           LXCH     Q
001165: 41,2425           02510        COMPTST1           TC       GETCOMP
001166: 41,2426           04333                           TC       LEFT5
001167: 41,2427           76214                           MASK     THREE                                 #  NOUN COMP


001169: 41,2430           60123                           AD       SFTEMP1                               #  NOUN COMP - VERB COMP
001170: 41,2431           10000                           CCS      A
001171: 41,2432           00001                           TC       L                                     #  NOUN COMP G/ VERB COMP
001172: 41,2433           04151        MONBACK            ADRES    PASTEVB                               #  CANNOT GET HERE
001173: 41,2434           02350                           TC       GODSPALM                              #  NOUN COMP L/ VERB COMP
001174: 41,2435           00001        NDCMPTST           TC       L                                     #  NOUN COMP = VERB COMP
001175:
001176:                                                                                                  #  DCOMPTST ALARMS IF DECIMAL ONLY BIT (BIT4 OF COMP CODE NUMBER) = 1.
001177:                                                                                                  #  IF NOT, IT PERFORMS REGULAR COMPTEST.
001178:
001179: 41,2436           54123        DCOMPTST           TS       SFTEMP1                               #  - VERB COMP
001180: 41,2437           22002                           LXCH     Q
001181: 41,2440           02510                           TC       GETCOMP
001182: 41,2441           74753                           MASK     BIT14
001183: 41,2442           10000                           CCS      A
001184: 41,2443           02350                           TC       GODSPALM
001185: 41,2444           02425                           TC       COMPTST1
001186: 41,2445           22002        DCTSTCYC           LXCH     Q                                     #  ALARMS AND RECYCLES IF DEC ONLY BIT = 1
001187: 41,2446           02510                           TC       GETCOMP                               #  (BIT4 OF COMP CODE NUMBER). RETURNS
001188: 41,2447           74753                           MASK     BIT14                                 #  IF NOT.  USED BY LOAD VERBS.
001189: 41,2450           10000                           CCS      A
001190: 41,2451           04173                           TC       ALMCYCLE
001191: 41,2452           00001                           TC       L
001192:
001193:                                                                                                  #  NOUNTEST ALARMS IF NO-LOAD BIT (BIT5 OF COMP CODE NUMBER) = 1.
001194:                                                                                                  #  IF NOT, IT RETURNS.
001195:
001196: 41,2453           22002        NOUNTEST           LXCH     Q
001197: 41,2454           02510                           TC       GETCOMP
001198: 41,2455           10000                           CCS      A
001199: 41,2456           00001                           TC       L
001200: 41,2457           00001                           TC       L
001201: 41,2460           02350                           TC       GODSPALM
001202:
001203: 41,2461           22002        TSTFORDP           LXCH     Q                                     #  TEST FOR DP. IF SO, GET MINOR PART ONLY.
001204: 41,2462           30146                           CA       NNADTEM
001205: 41,2463           64770                           AD       ONE                                   #  IF NNADTEM = -1, CHANNEL TO BE SPECIFIED
001206: 41,2464           00006                           EXTEND
001207: 41,2465           12477                           BZF      CHANDSP
001208: 41,2466           50140                           INDEX    MIXBR
001209: 41,2467           02467                           TC       +0
001210: 41,2470           02472                           TC       +2                                    #  NORMAL
001211: 41,2471           00001                           TC       L                                     #  MIXED CASE ALREADY HANDLED IN MIXNOUN
001212: 41,2472           03025                           TC       SFRUTNOR
001213: 41,2473           02260                           TC       DPTEST
001214: 41,2474           00001                           TC       L                                     #  NO DP
001215: 41,2475           24145                           INCR     NOUNADD                               #  DP    E+1 INTO NOUNADD FOR MINOR PART.
001216: 41,2476           00001                           TC       L
001217:


001219:
001220: 41,2477           31222        CHANDSP            CA       NOUNCADR
001221: 41,2500           75021                           MASK     LOW9
001222: 41,2501           00006                           EXTEND
001223: 41,2502           50000                           INDEX    A
001224: 41,2503           00000                           READ     0
001225: 41,2504           40000                           CS       A
001226: 41,2505           12403                           TCF      DSPCOM1
001227:
001228: 41,2506           00147        COMPICK            ADRES    NNTYPTEM
001229: 41,2507           00146                           ADRES    NNADTEM
001230:
001231: 41,2510           50140        GETCOMP            INDEX    MIXBR                                 #  NORMAL                        MIXED
001232: 41,2511           32505                           CAF      COMPICK    -1                         #  ADRES NNTYPTEM                ADRES NNADTEM
001233: 41,2512           50000                           INDEX    A
001234: 41,2513           30000                           CA       0                                     #  C(NNTYPTEM)                   C(NNADTEM)
001235: 41,2514           74344                           MASK     HI5                                   #  GET HI5 OF NNTYPTAB (NORM) OF NNADTAB (MIX)
001236: 41,2515           00002                           TC       Q
001237:
001238: 41,2516           02510        DECDSP             TC       GETCOMP
001239: 41,2517           04333                           TC       LEFT5
001240: 41,2520           76214                           MASK     THREE
001241: 41,2521           54117                           TS       DECOUNT                               #  COMP NUMBER INTO DECOUNT
001242: 41,2522           54122        DSPDCGET           TS       DECTEM                                #  PICKS UP DATA
001243: 41,2523           60145                           AD       NOUNADD                               #  DECTEM  1COMP +0, 2COMP +1, 3COMP +2
001244: 41,2524           50000                           INDEX    A
001245: 41,2525           40000                           CS       0
001246: 41,2526           50122                           INDEX    DECTEM
001247: 41,2527           57206                           XCH      XREG                                  #  CANT USE BUF SINCE DMP USES IT.
001248: 41,2530           10122                           CCS      DECTEM
001249: 41,2531           02522                           TC       DSPDCGET                              #  MORE TO GET
001250: 41,2532           34772        DSPDCPUT           CAF      ZERO                                  #  DISPLAYS DATA
001251: 41,2533           54155                           TS       MPAC       +1                         #  DECOUNT 1COMP +0, 2COMP +1, 3COMP +2
001252: 41,2534           54156                           TS       MPAC       +2
001253: 41,2535           50117                           INDEX    DECOUNT
001254: 41,2536           34321                           CAF      R1D1
001255: 41,2537           55202                           TS       DSPCOUNT
001256: 41,2540           50117                           INDEX    DECOUNT
001257: 41,2541           41206                           CS       XREG
001258: 41,2542           54154                           TS       MPAC
001259: 41,2543           03042                           TC       SFCONUM                               #  2X (SF CON NUMB) IN A
001260: 41,2544           54123                           TS       SFTEMP1
001261: 41,2545           00006                           EXTEND                                         #  SWITCH BANKS TO SF CONSTANT TABLE
001262: 41,2546           32560                           DCA      GTSFOUTL                              #     READING ROUTINE.
001263: 41,2547           52006                           DXCH     Z                                     #  LOADS SFTEMP1, SFTEMP2.
001264: 41,2550           50140                           INDEX    MIXBR
001265: 41,2551           02551                           TC       +0
001266: 41,2552           02555                           TC       DSPSFNOR
001267: 41,2553           03033                           TC       SFRUTMIX


001269: 41,2554           02570                           TC       DECDSP3
001270:
001271: 41,2555           03025        DSPSFNOR           TC       SFRUTNOR
001272: 41,2556           02570                           TC       DECDSP3
001273:
001274: 41,2557     1202                                  EBANK=   DSPCOUNT
001275: 41,2557           02114 64102  GTSFOUTL           2CADR    GTSFOUT
001276:
001277: 41,2561           04636        DSPDCEND           TC       BANKCALL                              #  ALL SFOUT ROUTINES END HERE
001278: 41,2562           61072                           CADR     DSPDECWD
001279: 41,2563           10117                 +2        CCS      DECOUNT
001280: 41,2564           02566                           TC       +2
001281: 41,2565           00136                           TC       ENTEXIT
001282: 41,2566           54117                           TS       DECOUNT
001283: 41,2567           02532                           TC       DSPDCPUT                              #  MORE TO DISPLAY
001284:
001285: 41,2570           50000        DECDSP3            INDEX    A
001286: 41,2571           32573                           CAF      SFOUTABR
001287: 41,2572           04660                           TC       BANKJUMP
001288:
001289: 41,2573           61260        SFOUTABR           CADR     PREDSPAL                              #  ALARM IF DEC DISP WITH OCTAL ONLY NOUN
001290: 41,2574           62561                           CADR     DSPDCEND
001291: 41,2575           60531                           CADR     DEGOUTSF
001292: 41,2576           60563                           CADR     ARTOUTSF
001293: 41,2577           60574                           CADR     DP1OUTSF
001294: 41,2600           60601                           CADR     DP2OUTSF
001295: 41,2601           60505                           CADR     OPDEGOUT
001296: 41,2602           60603                           CADR     DP3OUTSF
001297: 41,2603           65137                           CADR     HMSOUT
001298: 41,2604           65212                           CADR     M/SOUT
001299: 41,2605           60601                           CADR     DP2OUTSF
001300: 41,2606           60570                           CADR     AROUT1SF
001301: 41,2607           60616                           CADR     2INTOUT
001302: 41,2610           60633                           CADR     DPFRACOT
001303:
001304:                                                                                                  #  THE FOLLOWING IS A TYPICAL SF ROUTINE. IT USES MPAC. LEAVES RESU
001305:                                                                                                  #  LTS IN MPAC, MPAC+1. ENDS WITH TC DSPDCEND
001306:
001307: 40,2000                                           SETLOC   PINBALL1
001308: 40,2000                                           BANK
001309: 40,2505                                           COUNT*   $$/PIN
001310:
001311:                                                                                                  #  OPDEGOUT SCALES BY .45 (THE RANGE IS 90 DEGREES) AND ADDS A 20 DEG BIAS.
001312:
001313: 40,2505           10154        OPDEGOUT           CCS      MPAC                                  #  RANGE IS 90 DEG
001314: 40,2506           56154                           XCH      MPAC                                  #  IF POS OR POS 0 THEN ADD BIAS AND
001315: 40,2507           02512                           TC       +3                                    #  CORRECT FOR POSSIBLE OVERFLOW
001316: 40,2510           02521                           TC       NEGOPT                                #  IF NEG NON ZERO


001318: 40,2511           67702                           AD       NEG1                                  #  IF NEG ZERO SUBTRACT 1
001319: 40,2512           62562                           AD       20BIAS
001320: 40,2513           54154        BIASCOM            TS       MPAC                                  #  TEST FOR OVERFLOW
001321: 40,2514           02517                           TC       +3                                    #  NO OVFLOW
001322: 40,2515           34752                           CAF      BIT15                                 #  IF OVFLOW
001323: 40,2516           26154                           ADS      MPAC
001324: 40,2517           34767                           CAF      TWO                                   #  SET MULTIPLIER TO .45
001325: 40,2520           02532                           TC       DEGOUTSF   +1
001326:
001327: 40,2521           56154        NEGOPT             XCH      MPAC                                  #  NEGATIVE CASE
001328: 40,2522           62562                           AD       20BIAS
001329: 40,2523           10000                           CCS      A
001330: 40,2524           02513                           TC       BIASCOM                               #  IF POS THEN SUBTRACT 1 BECAUSE OF 2SCOM
001331: 40,2525           71527        NEG.2              OCT      -06250                                #  =.197753906 TRUN BIAS (CANNOT GET HERE)
001332: 40,2526           64770                           AD       ONE                                   #  IF NEG RESTORE SUM
001333: 40,2527           40000                           COM                                            #  IF NEG 0 LEAVE NEG 0
001334: 40,2530           02513                           TC       BIASCOM
001335:
001336:                                                                                                  #     DEGOUTSF SCALES BY .18 THE LOW 14 BITS OF ANGLE, ADDING .18 FOR
001337:                                                                                                  #  NUMBERS IN THE NEGATIVE (AGC) RANGE.
001338:
001339: 40,2531           34772        DEGOUTSF           CAF      ZERO
001340: 40,2532           54156                 +1        TS       MPAC       +2                         #  SET INDEX FOR FULL SCALE
001341: 40,2533           10154                           CCS      MPAC
001342: 40,2534           12546                           TCF      DEGCOM                                #  NO AUGMENT NEEDED (SFTEMP1,SFTEMP2 ARE 0,
001343: 40,2535           12546                           TCF      DEGCOM                                #  MPAC IS +)
001344: 40,2536           12537                           TCF      +1
001345: 40,2537           44752                           CS       BIT15                                 #  MPAC IS -, MASK OUT SIGN BIT AND ADD
001346: 40,2540           70154                           MASK     MPAC                                  #  AUGMENTER ACCORDING TO C(MPAC +2)
001347: 40,2541           54154                           TS       MPAC
001348: 40,2542           00006                           EXTEND
001349: 40,2543           50156                           INDEX    MPAC       +2
001350: 40,2544           32557                           DCA      DEGTAB                                #  LOADS SFTEMP1 AND SFTEMP2 WITH DP AUGMENTER
001351: 40,2545           52124                           DXCH     SFTEMP1                               #  CONSTANT
001352: 40,2546           00006        DEGCOM             EXTEND                                         #  LOADS MULTIPLIER, DOES SHORTMP, AND
001353: 40,2547           50156                           INDEX    MPAC       +2                         #  ADDS AUGMENTER.
001354: 40,2550           32557                           DCA      DEGTAB
001355: 40,2551           52155                           DXCH     MPAC                                  #  ADJUSTED ANGLE IN A
001356: 40,2552           07256                           TC       SHORTMP
001357: 40,2553           52124                           DXCH     SFTEMP1
001358: 40,2554           20155                           DAS      MPAC
001359: 40,2555           02566                           TC       SCOUTEND
001360:
001361: 40,2556           05605        DEGTAB             OCT      05605                                 #  HI PART OF    .18
001362: 40,2557           03656                           OCT      03656                                 #  LOW PART OF   .18
001363: 40,2560           16314                           OCT      16314                                 #  HI PART OF    .45
001364: 40,2561           31463                           OCT      31463                                 #  LO PART OF    .45
001365:
001366: 40,2562           16040        20BIAS             OCT      16040                                 #  20 DEG BIAS FOR OPTICS
001367:


001369:
001370: 40,2563           52124        ARTOUTSF           DXCH     SFTEMP1                               #  ASSUMES POINT AT LEFT OF DP SFCON
001371: 40,2564           52155                           DXCH     MPAC
001372: 40,2565           04403                           TC       PRSHRTMP                              #  IF C(A) = -0, SHORTMP FAILS TO GIVE -0.
001373: 40,2566           04655        SCOUTEND           TC       POSTJUMP
001374: 40,2567           62561                           CADR     DSPDCEND
001375:
001376: 40,2570           52124        AROUT1SF           DXCH     SFTEMP1                               #  ASSUMES POINT BETWEEN HI AND LO PARTS OF
001377: 40,2571           52155                           DXCH     MPAC                                  #  DP SFCON. SHIFTS RESULTS LEFT 14, BY
001378: 40,2572           04403                           TC       PRSHRTMP                              #  TAKING RESULTS FROM MPAC+1, MPAC+2.
001379: 40,2573           02575                           TC       L14/OUT
001380:
001381: 40,2574           02607        DP1OUTSF           TC       DPOUT                                 #  SCALES MPAC, MPAC +1 BY DP SCALE FACTOR
001382: 40,2575           56156        L14/OUT            XCH      MPAC       +2                         #  IN SFTEMP1, SFTEMP2. THEN SCALE RESULT
001383: 40,2576           56155                           XCH      MPAC       +1                         #  BY B14.
001384: 40,2577           54154                           TS       MPAC
001385: 40,2600           02566                           TC       SCOUTEND
001386:
001387: 40,2601           02607        DP2OUTSF           TC       DPOUT                                 #  SCALES MPAC, MPAC +1 BY DP SCALE FACTOR
001388: 40,2602           02566                           TC       SCOUTEND
001389:
001390: 40,2603           02607        DP3OUTSF           TC       DPOUT                                 #  ASSUMES POINT BETWEEN BITS 7-8 OF HIGH
001391: 40,2604           36211                           CAF      SIX                                   #  LEFT BY 7, ROUNDS MPAC+2 INTO MPAC+1.
001392: 40,2605           03034                           TC       TPLEFTN                               #  SHIFT LEFT 7.
001393: 40,2606           02566                           TC       SCOUTEND
001394:
001395: 40,2607     0162               MPAC+6             =        MPAC       +6                         #  USE MPAC +6 INSTEAD OF OVFIND
001396:
001397: 40,2607           56002        DPOUT              XCH      Q
001398: 40,2610           54162                           TS       MPAC+6
001399: 40,2611           02635                           TC       READLO                                #  GET FRESH DATA FOR BOTH HI AND LO.
001400: 40,2612           07226                           TC       TPAGREE                               #  MAKE DP DATA AGREE
001401: 40,2613           07052                           TC       DMP
001402: 40,2614           00123                           ADRES    SFTEMP1
001403: 40,2615           00162                           TC       MPAC+6
001404:
001405:                                                                                                  #  THE FOLLOWING ROUTINE DISPLAYS TWO CONTIGUOUS SP POSITIVE INTEGERS
001406:                                                                                                  #  AS TWO POSITIVE DECIMAL INTEGERS IN RXD1-RXD2 AND RXD4-RXD5 (RXD3 IS
001407:                                                                                                  #  BLANKED). THE INTEGER IN THE LOWER NUMBERED ADDRESS IS DISPLAYED IN
001408:                                                                                                  #  RXD1-RXD2.
001409:
001410: 40,2616           02431        2INTOUT            TC       5BLANK                                #  TO BLANK RXD3
001411: 40,2617           02310                           TC       +ON                                   #  TURN ON + SIGN
001412: 40,2620           30154                           CA       MPAC
001413: 40,2621           03146                           TC       DSPDECVN                              #  DISPLAY 1ST INTEGER (LIKE VERB AND NOUN)
001414: 40,2622           46214                           CS       THREE
001415: 40,2623           50117                           INDEX    DECOUNT
001416: 40,2624           64321                           AD       R1D1                                  #  RXD4


001418: 40,2625           55202                           TS       DSPCOUNT
001419: 40,2626           02635                           TC       READLO                                #  GET 2ND INTEGER
001420: 40,2627           30155                           CA       MPAC       +1
001421: 40,2630           03146                           TC       DSPDECVN                              #  DISPLAY 2ND INTEGER (LIKE VERB AND NOUN)
001422: 40,2631           04655                           TC       POSTJUMP
001423: 40,2632           62563                           CADR     DSPDCEND   +2
001424:
001425: 40,2633           02635        DPFRACOT           TC       READLO                                #  DP FRACTION TO MPAC,+1
001426: 40,2634           02566                           TC       SCOUTEND
001427:
001428:                                                                                                  #  READLO PICKS UP FRESH DATA FOR BOTH HI AND LO AND LEAVES IT IN
001429:                                                                                                  #  MPAC, MPAC+1. THIS IS NEEDED FOR TIME DISPLAY. IT ZEROES MPAC+2, BUT
001430:                                                                                                  #  DOES NOT FORCE TPAGREE.
001431:
001432: 40,2635           56002        READLO             XCH      Q
001433: 40,2636           54144                           TS       TEM4
001434: 40,2637           50140                           INDEX    MIXBR
001435: 40,2640           02640                           TC       +0
001436: 40,2641           02655                           TC       RDLONOR
001437: 40,2642           50117                           INDEX    DECOUNT
001438: 40,2643           30150                           CA       IDAD1TEM                              #  GET IDADDTAB ENTRY FOR COMP K OF NOUN.
001439: 40,2644           74347                           MASK     LOW11                                 #  E SUBK
001440: 40,2645           04315                           TC       SETEBANK                              #  SET EB, LEAVE EADRES IN A.
001441: 40,2646           00006        READLO1            EXTEND                                         #  MIXED                 NORMAL
001442: 40,2647           50000                           INDEX    A                                     #  C(ESUBK)              C(E)
001443: 40,2650           30001                           DCA      0                                     #  C((E SUBK)+1)         C(E+1)
001444: 40,2651           52155                           DXCH     MPAC
001445: 40,2652           34772                           CAF      ZERO
001446: 40,2653           54156                           TS       MPAC       +2
001447: 40,2654           00144                           TC       TEM4
001448:
001449: 40,2655           30145        RDLONOR            CA       NOUNADD                               #  E
001450: 40,2656           02646        ENDRDLO            TC       READLO1
001451:
001452:
001453: 42,2000                                           SETLOC   PINBALL3
001454: 42,2000                                           BANK
001455:
001456: 42,3137                                           COUNT*   $$/PIN
001457: 42,3137           04636        HMSOUT             TC       BANKCALL                              #  READ FRESH DATA FOR HI AND LO INTO MPAC,
001458: 42,3140           60635                           CADR     READLO                                #  MPAC+1.
001459: 42,3141           07226                           TC       TPAGREE                               #  MAKE DP DATA AGREE
001460: 42,3142           03326                           TC       SEPSECNR                              #  LEAVE FRACT SEC/60 IN MPAC, MPAC+1. LEAVE
001461:                                                                                                  #  WHOLE MIN IN BIT13 OF LOTEMOUT AND ABOVE
001462: 42,3143           07052                           TC       DMP                                   #  USE ONLY FRACT SEC/60 MOD 60
001463: 42,3144           03200                           ADRES    SECON2                                #  MULT BY .06
001464: 42,3145           34323                           CAF      R3D1                                  #  GIVES CENTI-SEC/10EXP5 MOD 60
001465: 42,3146           55202                           TS       DSPCOUNT


001467: 42,3147           04636                           TC       BANKCALL                              #  DISPLAY SEC MOD 60
001468: 42,3150           61072                           CADR     DSPDECWD
001469: 42,3151           03344                           TC       SEPMIN                                #  REMOVE REST OF SECONDS
001470: 42,3152           33202                           CAF      MINCON2                               #  LEAVE FRACT MIN/60 IN MPAC+1. LEAVE
001471: 42,3153           56154                           XCH      MPAC                                  #  WHOLE HOURS IN MPAC.
001472: 42,3154           55212                           TS       HITEMOUT                              #  SAVE WHOLE HOURS.
001473: 42,3155           33203                           CAF      MINCON2    +1
001474: 42,3156           56155                           XCH      MPAC       +1                         #  USE ONLY FRACT MIN/60 MOD 60
001475: 42,3157           04403                           TC       PRSHRTMP                              #  IF C(A) = -0, SHORTMP FAILS TO GIVE -0.
001476:                                                                                                  #  MULT BY .0006
001477: 42,3160           34322                           CAF      R2D1                                  #  GIVES MIN/10EXP5 MOD 60
001478: 42,3161           55202                           TS       DSPCOUNT
001479: 42,3162           04636                           TC       BANKCALL                              #  DISPLAY MIN MOD 60
001480: 42,3163           61072                           CADR     DSPDECWD
001481: 42,3164           00006                           EXTEND                                         #  MINUTES, SECONDS HAVE BEEN REMOVED
001482: 42,3165           33207                           DCA      HRCON1
001483: 42,3166           52155                           DXCH     MPAC
001484: 42,3167           31212                           CA       HITEMOUT                              #  USE WHOLE HOURS
001485: 42,3170           04403                           TC       PRSHRTMP                              #  IF C(A) = -0, SHORTMP FAILS TO GIVE -0.
001486:                                                                                                  #  MULT BY .16384
001487: 42,3171           34321                           CAF      R1D1                                  #  GIVES HOURS/10EXP5
001488: 42,3172           55202                           TS       DSPCOUNT
001489: 42,3173           04636                           TC       BANKCALL                              #  USE REGULAR DSPDECWD, WITH ROUND OFF.
001490: 42,3174           61072                           CADR     DSPDECWD
001491: 42,3175           00136                           TC       ENTEXIT
001492:
001493: 42,3176           25660 31742  SECON1             2DEC*    1.666666666 E-4        B12*            #  2EXP12/6000
001494:
001495: 42,3200           01727        SECON2             OCT      01727                                 #  .06 FOR SECONDS DISPLAY
001496: 42,3201           01217                           OCT      01217
001497: 42,3202           00011        MINCON2            OCT      00011                                 #  .0006 FOR MINUTES DISLPAY
001498: 42,3203           32445                 +1        OCT      32445
001499: 42,3204           02104        MINCON1            OCT      02104                                 #  .066..66 UPPED BY 2EXP-28
001500: 42,3205           10422                           OCT      10422
001501: 42,3206           05174 13261  HRCON1             2DEC     .16384
001502:
001503: 42,3210           00000                 -1        OCT      00000
001504: 42,3211           00062        RNDCON             DEC      50         B-14                       #  *** USED DP WITH PRECEDING ZERO ***
001505:
001506: 42,3212           04636        M/SOUT             TC       BANKCALL                              #  READ FRESH DATA FOR HI AND LO INTO MPAC,
001507: 42,3213           60635                           CADR     READLO                                #  MPAC+1.
001508: 42,3214           07226                           TC       TPAGREE                               #  MAKE DP DATA AGREE
001509: 42,3215           10154                           CCS      MPAC                                  #  IF MAG OF (MPAC, MPAC+1) G/ 59 M 59 S,
001510: 42,3216           03220                           TC       +2                                    #  DISPLAY 59B59, WITH PROPER SIGN.
001511: 42,3217           03251                           TC       M/SNORM                               #  MPAC = +0. L/ 59M58.5S
001512: 42,3220           63306                           AD       M/SCON1                               #  - HI PART OF (59M58.5S) +1  FOR CCS
001513: 42,3221           10000                           CCS      A                                     #  MAG OF MPAC - HI PART OF (59M58.5S)
001514: 42,3222           03235                           TC       M/SLIMIT                              #  G/ 59M58.5S
001515: 42,3223           03251                           TC       M/SNORM                               #  ORIGINAL MPAC = -0. L/ 59M58.5S
001516: 42,3224           03251                           TC       M/SNORM                               #  L/ 59M58.5S
001517: 42,3225           10155                           CCS      MPAC       +1                         #  MAG OF MPAC = HI PART OF 59M58.5S


001519: 42,3226           03230                           TC       +2
001520: 42,3227           03251                           TC       M/SNORM                               #  MPAC+1 = +0.  L/ 59M58.5S
001521: 42,3230           63307                           AD       M/SCON2                               #  - LO PART OF (59M58.5S) +1 FOR CCS
001522: 42,3231           10000                           CCS      A                                     #  MAG OF MPAC+1 - LO PART OF (59M58.5S)
001523: 42,3232           03235                           TC       M/SLIMIT                              #  G/ 59M58.5S
001524: 42,3233           03251                           TC       M/SNORM                               #  ORIGINAL MPAC+1 = -0. L/ 59M58.5S
001525: 42,3234           03251                           TC       M/SNORM                               #  L/ 59M58.5S
001526: 42,3235           10154        M/SLIMIT           CCS      MPAC                                  #  = 59M58.5S    LIMIT
001527: 42,3236           33311                           CAF      M/SCON3                               #  MPAC CANNOT BE +/- 0 AT THIS POINT.
001528: 42,3237           03246                           TC       +LIMIT                                #  FORCE MPAC, MPAC+1 TO +/- 59M59.5S
001529: 42,3240           43311                           CS       M/SCON3
001530: 42,3241           54154                           TS       MPAC                                  #  WILL DISPLAY 59M59S IN DSPDECNR
001531: 42,3242           43312                           CS       M/SCON3    +1
001532: 42,3243           54155        LIMITCOM           TS       MPAC       +1
001533: 42,3244           33310                           CAF      NORMADR                               #  SET RETURN TO M/SNORM+1.
001534: 42,3245           03327                           TC       SEPSECNR   +1
001535: 42,3246           54154        +LIMIT             TS       MPAC
001536: 42,3247           33312                           CAF      M/SCON3    +1
001537: 42,3250           03243                           TC       LIMITCOM
001538: 42,3251           03313        M/SNORM            TC       SEPSEC                                #  LEAVE FRACT SEC/60 IN MPAC,MPAC+1. LEAVE
001539:                                                                                                  #  WHOLE MIN IN BIT13 OF LOTEMOUT AND ABOVE
001540: 42,3252           33304                 +1        CAF      HISECON                               #  USE ONLY FRACT SEC/60 MOD 60
001541: 42,3253           07256                           TC       SHORTMP                               #  MULT BY .6 + 2EXP-14
001542: 42,3254           46214                           CS       THREE                                 #  GIVES SEC/100 MOD 60
001543: 42,3255           27202                           ADS      DSPCOUNT                              #  DSPCOUNT ALREADY SET TO RXD1
001544: 42,3256           04636                           TC       BANKCALL                              #  DISPLAY SEC MOD 60 IN D4D5.
001545: 42,3257           61126                           CADR     DSPDC2NR
001546: 42,3260           34772                           CAF      ZERO
001547: 42,3261           54124                           TS       CODE
001548: 42,3262           44767                           CS       TWO
001549: 42,3263           50117                           INDEX    DECOUNT
001550: 42,3264           64321                           AD       R1D1                                  #  RXD3
001551: 42,3265           54143                           TS       COUNT
001552: 42,3266           04636                           TC       BANKCALL                              #  BLANK MIDDLE CHAR
001553: 42,3267           61161                           CADR     DSPIN
001554: 42,3270           03344                           TC       SEPMIN                                #  REMOVE REST OF SECONDS
001555: 42,3271           56155                           XCH      MPAC       +1                         #  LEAVE FRACT MIN/60 IN MPAC+1
001556: 42,3272           00006                           EXTEND                                         #  USE ONLY FRACT MIN/60 MOD 60
001557: 42,3273           73305                           MP       HIMINCON                              #  MULT BY .6 + 2EXP-7
001558: 42,3274           52155                           DXCH     MPAC                                  #  GIVES MIN/100 MOD 60
001559: 42,3275           50117                           INDEX    DECOUNT
001560: 42,3276           34321                           CAF      R1D1                                  #  RXD1
001561: 42,3277           55202                           TS       DSPCOUNT
001562: 42,3300           04636                           TC       BANKCALL                              #  DISPLAY MIN MOD 60 IN D1D2.
001563: 42,3301           61126                           CADR     DSPDC2NR
001564: 42,3302           04655                           TC       POSTJUMP
001565: 42,3303           62563                           CADR     DSPDCEND   +2
001566:
001567: 42,3304           23147        HISECON            OCT      23147                                 #  .6 + 2EXP-14
001568: 42,3305           23346        HIMINCON           OCT      23346                                 #  .6 + 2EXP-7
001569:


001571:
001572: 42,3306           77753        M/SCON1            OCT      77753                                 #  - HI PART OF (59M58.5S) +1
001573: 42,3307           41126        M/SCON2            OCT      41126                                 #  - LO PART OF (59M58.5S) +1
001574: 42,3310           03252        NORMADR            ADRES    M/SNORM    +1
001575: 42,3311           00025        M/SCON3            OCT      00025                                 #  59M 59.5S
001576: 42,3312           37016                 +1        OCT      37016
001577: 42,3313           10155        SEPSEC             CCS      MPAC       +1                         #  IF +, ROUND BY ADDING .5 SEC
001578: 42,3314           13323                           TCF      POSEC                                 #  IF -, ROUND BY SUBTRACTING .5 SEC
001579: 42,3315           13323                           TCF      POSEC                                 #  FINDS TIME IN MPAC, MPAC+1
001580: 42,3316           13317                           TCF      +1                                    #  ROUNDS OFF BY +/- .5 SEC
001581: 42,3317           00006                           EXTEND                                         #  LEAVES WHOLE MIN IN BIT13 OF
001582: 42,3320           43211                           DCS      RNDCON     -1                         #  LOTEMOUT AND ABOVE.
001583: 42,3321           20155        SEPSEC1            DAS      MPAC                                  #  LEAVES FRACT SEC/60 IN MPAC, MPAC+1.
001584: 42,3322           13326                           TCF      SEPSECNR
001585: 42,3323           00006        POSEC              EXTEND
001586: 42,3324           33211                           DCA      RNDCON     -1
001587: 42,3325           13321                           TCF      SEPSEC1
001588: 42,3326           56002        SEPSECNR           XCH      Q                                     #  THIS ENTRY AVOIDS ROUNDING BY .5 SEC
001589: 42,3327           54144                 +1        TS       SEPSCRET
001590: 42,3330           07052                           TC       DMP                                   #  MULT BY 2EXP12/6000
001591: 42,3331           03176                           ADRES    SECON1                                #  GIVES FRACT SEC/60 IN BIT12 OF MPAC+1
001592: 42,3332           00006                           EXTEND                                         #  AND BELOW.
001593: 42,3333           30155                           DCA      MPAC                                  #  SAVE MINUTES AND HOURS
001594: 42,3334           53213                           DXCH     HITEMOUT
001595: 42,3335           04372                           TC       TPSL1
001596: 42,3336           04372                           TC       TPSL1                                 #  GIVES FRACT SEC/60 IN MPAC+1, MPAC+2.
001597: 42,3337           34772                           CAF      ZERO
001598: 42,3340           56156                           XCH      MPAC       +2                         #  LEAVE FRACT SEC/60 IN MPAC, MPAC+1.
001599: 42,3341           56155                           XCH      MPAC       +1
001600: 42,3342           56154                           XCH      MPAC
001601: 42,3343           00144                           TC       SEPSCRET
001602:
001603: 42,3344           56002        SEPMIN             XCH      Q                                     #  FINDS WHOLE MINUTES IN BIT13
001604: 42,3345           54144                           TS       SEPMNRET                              #  OF LOTEMOUT AND ABOVE.
001605: 42,3346           31213                           CA       LOTEMOUT                              #  REMOVES REST OF SECONDS.
001606: 42,3347           00006                           EXTEND                                         #  LEAVES FRACT MIN/60 IN MPAC+1.
001607: 42,3350           74766                           MP       BIT3                                  #  LEAVES WHOLE HOURS IN MPAC.
001608: 42,3351           00006                           EXTEND                                         #  SR 12, THROW AWAY LP.
001609: 42,3352           74754                           MP       BIT13                                 #  SR 2, TAKE FROM LP. = SL 12.
001610: 42,3353           22155                           LXCH     MPAC       +1                         #  THIS FORCES BITS 12-1 TO 0 IF +,
001611:                                                                                                  #  FORCES BITS 12-1 TO 1 IF -.
001612: 42,3354           31212                           CA       HITEMOUT
001613: 42,3355           54154                           TS       MPAC
001614: 42,3356           07052                           TC       DMP                                   #  MULT BY 1/15
001615: 42,3357           03204                           ADRES    MINCON1                               #  GIVES FRACT MIN/60 IN MPAC+1.
001616: 42,3360           00144        ENDSPMIN           TC       SEPMNRET                              #  GIVES WHOLE HOURS IN MPAC.
001617:
001618:                                                                                                  #  THIS IS A SPECIAL PURPOSE VERB FOR DISPLAYING A DOUBLE PRECISION AGC
001619:                                                                                                  #  WORD AS 10 DECIMAL DIGITS ON THE AGC DISPLAY PANEL.  IT CAN BE USED WITH


001621:                                                                                                  #  ANY NOUN, EXCEPT MIXED NOUNS. IT DISPLAYS THE CONTENTS
001622:                                                                                                  #  OF THE REGISTER NOUNADD IS POINTING TO.  IF USED WITH NOUNS WHICH ARE
001623:                                                                                                  #  INHERENTLY NOT DP SUCH AS THE CDU COUNTERS THE DISPLAY WILL BE GARBAGE.
001624:                                                                                                  #  DISPLAY IS IN R1 AND R2 ONLY WITH THE SIGN IN R1.
001625:
001626: 40,2000                                           SETLOC   PINBALL1
001627: 40,2000                                           BANK
001628: 40,2657                                           COUNT*   $$/PIN
001629: 40,2657           50140        DSPDPDEC           INDEX    MIXBR
001630: 40,2660           02660                           TC       +0
001631: 40,2661           02663                           TC       +2                                    #  NORMAL NOUN
001632: 40,2662           03261                           TC       DSPALARM
001633: 40,2663           00006                           EXTEND
001634: 40,2664           50145                           INDEX    NOUNADD
001635: 40,2665           30001                           DCA      0
001636: 40,2666           52155                           DXCH     MPAC
001637: 40,2667           34321                           CAF      R1D1
001638: 40,2670           55202                           TS       DSPCOUNT
001639: 40,2671           07224                           TC       DPAGREE
001640: 40,2672           03133                           TC       DSP2DEC
001641: 40,2673           00136        ENDDPDEC           TC       ENTEXIT
001642:


001644:                                                                                                  #  LOAD VERBS            IF ALARM CONDITION IS DETECTED DURING EXECUTE,
001645:                                                                                                  #  CHECK FAIL LIGHT IS TURNED ON AND ENDOFJOB. IF ALARM CONDITION IS
001646:                                                                                                  #  DETECTED DURING ENTER OF DATA, CHECK FAIL IS TURNED ON AND IT RECYCLES
001647:                                                                                                  #  TO EXECUTE OF ORIGINAL LOAD VERB.  RECYCLE CAUSED BY  1) DECIMAL MACHINE
001648:                                                                                                  #  CADR  2) MIXTURE OF OCTAL/DECIMAL DATA  3) OCTAL DATA INTO DECIMAL
001649:                                                                                                  #  ONLY NOUN  4) DEC DATA INTO OCT ONLY NOUN  5) DATA TOO LARGE FOR SCALE
001650:                                                                                                  #  6) FEWER THAN 3 DATA WORDS LOADED FOR HRS, MIN, SEC NOUN.8  (2)-(6) ALARM
001651:                                                                                                  #  AND RECYCLE OCCUR AT FINAL ENTER OF SET. (1) ALARM AND RECYCLE OCCUR AT
001652:                                                                                                  #  ENTER OF CADR.
001653:
001654: 41,2000                                           SETLOC   PINBALL2
001655: 41,2000                                           BANK
001656: 41,2611                                           COUNT*   $$/PIN
001657: 41,2611           44767        ABCLOAD            CS       TWO
001658: 41,2612           02423                           TC       COMPTEST
001659: 41,2613           02453                           TC       NOUNTEST                              #  TEST IF NOUN CAN BE LOADED.
001660: 41,2614           34353                           CAF      VBSP1LD
001661: 41,2615           02336                           TC       UPDATVB    -1
001662: 41,2616           02300                           TC       REQDATX
001663: 41,2617           34354                           CAF      VBSP2LD
001664: 41,2620           02336                           TC       UPDATVB    -1
001665: 41,2621           02302                           TC       REQDATY
001666: 41,2622           34615                           CAF      VBSP3LD
001667: 41,2623           02336                           TC       UPDATVB    -1
001668: 41,2624           02304                           TC       REQDATZ
001669:
001670: 41,2625           46211        PUTXYZ             CS       SIX                                   #  TEST THAT THE 3 DATA WORDS LOADED ARE
001671: 41,2626           03011                           TC       ALLDC/OC                              #  ALL DEC OR ALL OCT.
001672: 41,2627           00006                           EXTEND
001673: 41,2630           32115                           DCA      LODNNLOC                              #  SWITCH BANKS TO NOUN TABLE READING
001674: 41,2631           52006                           DXCH     Z                                     #  ROUTINE.
001675: 41,2632           34772                           CAF      ZERO                                  #  X COMP
001676: 41,2633           03071                           TC       PUTCOM
001677: 41,2634           50145                           INDEX    NOUNADD
001678: 41,2635           54000                           TS       0
001679: 41,2636           34770                           CAF      ONE                                   #  Y COMP
001680: 41,2637           03071                           TC       PUTCOM
001681: 41,2640           50145                           INDEX    NOUNADD
001682: 41,2641           54001                           TS       1
001683: 41,2642           34767                           CAF      TWO                                   #  Z COMP
001684: 41,2643           03071                           TC       PUTCOM
001685: 41,2644           50145                           INDEX    NOUNADD
001686: 41,2645           54002                           TS       2
001687: 41,2646           44774                           CS       SEVEN                                 #  IF NOUN 7 HAS JUST BEEN LOADED, SET
001688: 41,2647           61205                           AD       NOUNREG                               #   FLAG BITS AS SPECIFIED.
001689: 41,2650           00006                           EXTEND
001690: 41,2651           12653                           BZF      +2
001691: 41,2652           03001                           TC       LOADLV


001693: 41,2653           00004                           INHINT
001694: 41,2654           45001                           CS       OCT30                                 #  IS IT A CHANNEL (30 OR UNDER)
001695: 41,2655           61206                           AD       XREG
001696: 41,2656           00006                           EXTEND
001697: 41,2657           62667                           BZMF     CHANBITS                              #  YES
001698:
001699: 41,2660           31206                           CA       XREG                                  #  ECADR OF ERASABLE CELL
001700: 41,2661           04306                           TC       SETNCADR   +1                         #  SET EBANK, NOUNADD
001701:
001702: 41,2662           50145                           INDEX    NOUNADD
001703: 41,2663           30000                           CA       0
001704: 41,2664           54001                           TS       L
001705: 41,2665           34770                           CAF      ONE
001706: 41,2666           55206                           TS       XREG                                  #  MAKE IT LOOK LIKE A CHANNEL FOR A WHILE
001707:
001708: 41,2667           64352        CHANBITS           AD       OCT21
001709: 41,2670           00006                           EXTEND
001710: 41,2671           12714                           BZF      BITSOFF2                              #  DONT TOUCH CHAN7 (SUPERBANK)
001711:
001712: 41,2672           31210                           CA       ZREG
001713: 41,2673           00006                           EXTEND
001714: 41,2674           62702                           BZMF     BITSOFF                               #  R3 IS ZERO FOR OFF, NONZERO FOR ON
001715:
001716: 41,2675           31207                           CA       YREG
001717: 41,2676           00006                           EXTEND
001718: 41,2677           51206                           INDEX    XREG
001719: 41,2700           05000                           WOR      0
001720: 41,2701           12706                           TCF      BITSOFF1
001721:
001722: 41,2702           41207        BITSOFF            CS       YREG
001723: 41,2703           00006                           EXTEND
001724: 41,2704           51206                           INDEX    XREG
001725: 41,2705           03000                           WAND     0
001726:
001727: 41,2706           11206        BITSOFF1           CCS      XREG                                  #  WAS IT REALLY A CHANNEL
001728: 41,2707           10000                           CCS      A
001729: 41,2710           12714                           TCF      BITSOFF2                              #  YES
001730:
001731: 41,2711           22000                           LXCH     A
001732: 41,2712           50145                 -2        INDEX    NOUNADD
001733: 41,2713           54000                           TS       0
001734: 41,2714           00003        BITSOFF2           RELINT
001735: 41,2715           03001                           TC       LOADLV
001736:
001737: 41,2716     5001               OCT30              =        BITS4&5
001738: 41,2716     4352               OCT21              =        ND1
001739:
001740: 41,2716           44770        ABLOAD             CS       ONE
001741: 41,2717           02423                           TC       COMPTEST
001742: 41,2720           02453                           TC       NOUNTEST                              #  TEST IF NOUN CAN BE LOADED.


001744: 41,2721           34353                           CAF      VBSP1LD
001745: 41,2722           02336                           TC       UPDATVB    -1
001746: 41,2723           02300                           TC       REQDATX
001747: 41,2724           34354                           CAF      VBSP2LD
001748: 41,2725           02336                           TC       UPDATVB    -1
001749: 41,2726           02302                           TC       REQDATY
001750: 41,2727           44773        PUTXY              CS       FIVE                                  #  TEST THAT THE 2 DATA WORDS LOADED ARE
001751: 41,2730           03011                           TC       ALLDC/OC                              #  ALL DEC OR ALL OCT.
001752: 41,2731           00006                           EXTEND
001753: 41,2732           32115                           DCA      LODNNLOC                              #  SWITCH BANKS TO NOUN TABLE READING
001754: 41,2733           52006                           DXCH     Z                                     #  ROUTINE.
001755: 41,2734           34772                           CAF      ZERO                                  #  X COMP
001756: 41,2735           03071                           TC       PUTCOM
001757: 41,2736           50145                           INDEX    NOUNADD
001758: 41,2737           54000                           TS       0
001759: 41,2740           12760                           TCF      COMBLOAD                              #  Y COMP
001760: 41,2741           02300        ALOAD              TC       REQDATX
001761: 41,2742           00006                           EXTEND
001762: 41,2743           32115                           DCA      LODNNLOC                              #  SWITCH BANKS TO NOUN TABLE READING
001763: 41,2744           52006                           DXCH     Z                                     #  ROUTINE.
001764: 41,2745           34772                           CAF      ZERO                                  #  X COMP
001765: 41,2746           03071                           TC       PUTCOM
001766: 41,2747           12712                           TCF      BITSOFF2   -2
001767: 41,2750           44770        BLOAD              CS       ONE
001768: 41,2751           02423                           TC       COMPTEST
001769: 41,2752           34752                           CAF      BIT15                                 #  SET CLPASS FOR PASS0 ONLY
001770: 41,2753           55220                           TS       CLPASS
001771: 41,2754           02302                           TC       REQDATY
001772: 41,2755           00006                           EXTEND
001773: 41,2756           32115                           DCA      LODNNLOC                              #  SWITCH BANKS TO NOUN TABLE READING
001774: 41,2757           52006                           DXCH     Z                                     #  ROUTINE.
001775: 41,2760           34770        COMBLOAD           CAF      ONE
001776: 41,2761           03071                           TC       PUTCOM
001777: 41,2762           50145                           INDEX    NOUNADD
001778: 41,2763           54001                           TS       1
001779: 41,2764           03001                           TC       LOADLV
001780:
001781: 41,2765           44767        CLOAD              CS       TWO
001782: 41,2766           02423                           TC       COMPTEST
001783: 41,2767           34752                           CAF      BIT15                                 #  SET CLPASS FOR PASS0 ONLY
001784: 41,2770           55220                           TS       CLPASS
001785: 41,2771           02304                           TC       REQDATZ
001786: 41,2772           00006                           EXTEND
001787: 41,2773           32115                           DCA      LODNNLOC                              #  SWITCH BANKS TO NOUN TABLE READING
001788: 41,2774           52006                           DXCH     Z                                     #  ROUTINE.
001789: 41,2775           34767                           CAF      TWO
001790: 41,2776           03071                           TC       PUTCOM
001791: 41,2777           50145                           INDEX    NOUNADD
001792: 41,3000           54002                           TS       2
001793: 41,3001           34772        LOADLV             CAF      ZERO


001795: 41,3002           55203                           TS       DECBRNCH
001796: 41,3003           44772                           CS       ZERO
001797: 41,3004           55217                           TS       LOADSTAT


001799: 41,3005           04432                           TC       RELDSP                                #  RELEASE FOR PRIORITY DISPLAY PROBLEM.
001800: 41,3006           04261                           TC       -VD1SET
001801: 41,3007           04655                           TC       POSTJUMP                              #  AFTER COMPLETED LOAD, GO TO RECALTST
001802: 41,3010           61412                           CADR     RECALTST                              #  TO SEE IF THERE IS RECALL FROM ENDIDLE.
001803:
001804: 41,3011           54117        ALLDC/OC           TS       DECOUNT                               #  TESTS THAT DATA WORDS LOADED ARE EITHER
001805: 41,3012           41203                           CS       DECBRNCH                              #  ALL DEC OR ALL OCT. ALARMS IF NOT.
001806: 41,3013           54021                           TS       SR
001807: 41,3014           40021                           CS       SR
001808: 41,3015           40021                           CS       SR                                    #  SHIFTED RIGHT 2
001809: 41,3016           10000                           CCS      A                                     #  DEC COMP BITS IN LOW 3
001810: 41,3017           13021                           TCF      +2                                    #  SOME ONES IN LOW 3
001811: 41,3020           00002        GOQ                TC       Q                                     #  ALL ZEROS. ALL OCTAL. OK.
001812: 41,3021           60117                           AD       DECOUNT                               #  DEC COMP = 7 FOR 3COMP, =6 FOR 2COMP
001813: 41,3022           00006                           EXTEND                                         #  (BUT IT HAS BEEN DECREMENTED BY CCS)
001814: 41,3023           16711                           BZF      TCQ                                   #  MUST MATCH 6 FOR 3COMP, 5 FOR 2COMP
001815: 41,3024           04173                           TC       ALMCYCLE                              #  ALARM AND RECYCLE.
001816: 41,3025           56002        SFRUTNOR           XCH      Q                                     #  GETS SF ROUTINE NUMBER FOR NORMAL CASE
001817: 41,3026           54114                           TS       EXITEM                                #  CANT USE L FOR RETURN. TSTFORDP USES L.
001818: 41,3027           34343                           CAF      MID5
001819: 41,3030           70147                           MASK     NNTYPTEM
001820: 41,3031           04324                           TC       RIGHT5
001821: 41,3032           00114                           TC       EXITEM                                #  SF ROUTINE NUMBER IN A
001822:
001823: 41,3033           56002        SFRUTMIX           XCH      Q                                     #  GETS SF ROUTINE NUMBER FOR MIXED CASE
001824: 41,3034           54114                           TS       EXITEM
001825: 41,3035           03063                           TC       GETTCRLQ
001826: 41,3036           70153                           MASK     RUTMXTEM                              #  GET HI5, MID5, OR LOW5 OF RUTMXTAB ENTRY
001827: 41,3037           50001                           INDEX    L
001828: 41,3040           00000                           TC       0
001829:                                                                                                  #  DO TC GOQ(DECOUNT=0), DO TC RIGHT5(DECOUNT=1), DO TC LEFT5(DECOUNT=2).
001830: 41,3041           00114        SFRET1             TC       EXITEM                                #  SF ROUTINE NUMBER IN A
001831:
001832: 41,3042           56002        SFCONUM            XCH      Q                                     #  GETS 2X(SF CONSTANT NUMBER)
001833: 41,3043           54114                           TS       EXITEM
001834: 41,3044           50140                           INDEX    MIXBR
001835: 41,3045           03045                           TC       +0
001836: 41,3046           03060                           TC       CONUMNOR                              #  NORMAL NOUN
001837: 41,3047           03063                           TC       GETTCRLQ
001838: 41,3050           70147                           MASK     NNTYPTEM
001839: 41,3051           50001                           INDEX    L
001840: 41,3052           00000                           TC       0
001841:                                                                                                  #  DO TC GOQ(DECOUNT=0), DO TC RIGHT5(DECOUNT=1), DO TC LEFT5(DECOUNT=2).
001842: 41,3053           60000        SFRET              DOUBLE                                         #  2X(SF CONSTANT NUMBER) IN A
001843: 41,3054           00114                           TC       EXITEM
001844:
001845: 41,3055           03020        DISPLACE           TC       GOQ


001847: 41,3056           04324                           TC       RIGHT5
001848: 41,3057           04333                           TC       LEFT5
001849:
001850: 41,3060           34342        CONUMNOR           CAF      LOW5                                  #  NORMAL NOUN ALWAYS GETS LOW 5 OF
001851: 41,3061           70147                           MASK     NNTYPTEM                              #  NNTYPTAB FOR SF CONUM.
001852: 41,3062           13053                           TCF      SFRET
001853: 41,3063           50117        GETTCRLQ           INDEX    DECOUNT
001854: 41,3064           33055                           CAF      DISPLACE
001855: 41,3065           54001                           TS       L                                     #  PUT TC GOQ, TC RIGHT5, TC LEFT5 IN L
001856: 41,3066           50117                           INDEX    DECOUNT
001857: 41,3067           34342                           CAF      LOW5                                  #  LOW5, MID5, HI5 IN A
001858: 41,3070           00002                           TC       Q
001859: 41,3071           54117        PUTCOM             TS       DECOUNT
001860: 41,3072           56002                           XCH      Q
001861: 41,3073           54115                           TS       DECRET
001862: 41,3074           34772                           CAF      ZERO
001863: 41,3075           54162                           TS       MPAC+6
001864: 41,3076           50117                           INDEX    DECOUNT
001865: 41,3077           57211                           XCH      XREGLP
001866: 41,3100           54155                           TS       MPAC       +1
001867: 41,3101           50117                           INDEX    DECOUNT
001868: 41,3102           57206                           XCH      XREG
001869: 41,3103           54154                           TS       MPAC
001870: 41,3104           50140                           INDEX    MIXBR
001871: 41,3105           03105                           TC       +0
001872: 41,3106           03133                           TC       PUTNORM                               #  NORMAL NOUN
001873:                                                                                                  #  IF MIXNOUN, PLACE ADDRESS FOR COMPONENT K INTO NOUNADD, SET EBANK BITS.
001874: 41,3107           50117                           INDEX    DECOUNT                               #  GET IDADDTAB ENTRY FOR COMPONENT K
001875: 41,3110           30150                           CA       IDAD1TEM                              #        OF NOUN.
001876: 41,3111           74347                           MASK     LOW11                                 #  (ECADR)SUBK FOR CURRENT COMP OF NOUN
001877: 41,3112           04305                           TC       SETNCADR                              #  ECADR INTO NOUNCADR. SETS EB, NOUNADD.
001878: 41,3113           00006                           EXTEND                                         #  C(NOUNADD) IN A UPON RETURN
001879: 41,3114           60117                           SU       DECOUNT                               #  PLACE (ESUBK)-K INTO NOUNADD
001880: 41,3115           54145                           TS       NOUNADD
001881: 41,3116           11203                           CCS      DECBRNCH
001882: 41,3117           03170                           TC       PUTDECSF                              #  + DEC
001883: 41,3120           02445                           TC       DCTSTCYC                              #  +0 OCTAL
001884: 41,3121           03033                           TC       SFRUTMIX                              #  TEST IF DEC ONLY BIT = 1. IF SO,
001885: 41,3122           02260                           TC       DPTEST                                #  ALARM AND RECYCLE. IF NOT, CONTINUE.
001886: 41,3123           03151                           TC       PUTCOM2                               #  NO DP
001887:                                                                                                  #  TEST FOR DP SCALE FOR OCT LOAD. IF SO,
001888:                                                                                                  #  +0 INTO MAJOR PART. SET NOUNADD FOR


001890:                                                                                                  #  LOADING OCTAL WORD INTO MINOR PART.
001891: 41,3124           24145        PUTDPCOM           INCR     NOUNADD                               #  DP  (ESUBK)-K+1  OR  E+1
001892: 41,3125           30145                           CA       NOUNADD                               #  NOUNADD NOW SET FOR MINOR PART
001893: 41,3126           26117                           ADS      DECOUNT                               #  (ESUBK)+1  OR  E+1  INTO DECOUNT
001894: 41,3127           34772                           CAF      ZERO                                  #  NOUNADD SET FOR MINOR PART
001895: 41,3130           50117                           INDEX    DECOUNT
001896: 41,3131           53777                           TS       0          -1                         #  ZERO MAJOR PART(ESUBK OR E)
001897: 41,3132           03151                           TC       PUTCOM2
001898:


001900: 41,3133           04313        PUTNORM            TC       SETNADD                               #  ECADR FROM NOUNCADR. SETS EB, NOUNADD.
001901: 41,3134           11203                           CCS      DECBRNCH
001902: 41,3135           03170                           TC       PUTDECSF                              #  + DEC
001903: 41,3136           02445                           TC       DCTSTCYC                              #  +0 OCTAL
001904: 41,3137           03025                           TC       SFRUTNOR                              #  TEST IF DEC ONLY BIT = 1.  IF SO,
001905: 41,3140           02260                           TC       DPTEST                                #  ALARM AND RECYCLE. IF NOT, CONTINUE.
001906: 41,3141           03145                           TC       PUTCOM2    -4                         #  NO DP
001907: 41,3142           34772                           CAF      ZERO                                  #  DP
001908: 41,3143           54117                           TS       DECOUNT
001909: 41,3144           03124                           TC       PUTDPCOM
001910:
001911: 41,3145           30146                 -4        CA       NNADTEM
001912: 41,3146           64770                           AD       ONE                                   #  IF NNADTEM = -1, CHANNEL TO BE SPECIFIED
001913: 41,3147           00006                           EXTEND
001914: 41,3150           13155                           BZF      CHANLOAD
001915: 41,3151           56154        PUTCOM2            XCH      MPAC
001916: 41,3152           00115                           TC       DECRET
001917:
001918: 41,3153     1202                                  EBANK=   DSPCOUNT
001919: 41,3153           02122 64102  GTSFINLC           2CADR    GTSFIN
001920:


001922: 41,3155           44774        CHANLOAD           CS       SEVEN                                 #  DONT LOAD CHAN 7. (IT = SUPERBANK).
001923: 41,3156           61222                           AD       NOUNCADR
001924: 41,3157           00006                           EXTEND
001925: 41,3160           13001                           BZF      LOADLV
001926: 41,3161           31222                           CA       NOUNCADR
001927: 41,3162           75021                           MASK     LOW9
001928: 41,3163           56154                           XCH      MPAC
001929: 41,3164           00006                           EXTEND
001930: 41,3165           50154                           INDEX    MPAC
001931: 41,3166           01000                           WRITE    0
001932: 41,3167           03001                           TC       LOADLV
001933:
001934:                                                                                                  #  PUTDECSF FINDS MIXBR AND DECOUNT STILL SET FROM PUTCOM
001935:
001936: 41,3170           03042        PUTDECSF           TC       SFCONUM                               #  2X(SF CON NUMB) IN A
001937: 41,3171           54123                           TS       SFTEMP1
001938: 41,3172           00006                           EXTEND                                         #  SWITCH BANKS TO SF CONSTANT TABLE
001939: 41,3173           33154                           DCA      GTSFINLC                              #  READING ROUTINE.
001940: 41,3174           52006                           DXCH     Z                                     #  LOADS SFTEMP1, SFTEMP2.
001941: 41,3175           50140                           INDEX    MIXBR
001942: 41,3176           03176                           TC       +0
001943: 41,3177           03202                           TC       PUTSFNOR
001944: 41,3200           03033                           TC       SFRUTMIX
001945: 41,3201           03203                           TC       PUTDCSF2
001946: 41,3202           03025        PUTSFNOR           TC       SFRUTNOR
001947:


001949: 41,3203           50000        PUTDCSF2           INDEX    A
001950: 41,3204           33206                           CAF      SFINTABR
001951: 41,3205           04660                           TC       BANKJUMP                              #  SWITCH BANKS FOR EXPANSHION ROOM
001952: 41,3206           62347        SFINTABR           CADR     GOALMCYC                              #  ALARM AND RECYCLE IF DEC LOAD
001953:                                                                                                  #  WITH OCTAL ONLY NOUN.
001954: 41,3207           60753                           CADR     BINROUND
001955: 41,3210           60674                           CADR     DEGINSF
001956: 41,3211           60743                           CADR     ARTHINSF
001957: 41,3212           60776                           CADR     DPINSF
001958: 41,3213           61023                           CADR     DPINSF2
001959: 41,3214           60761                           CADR     OPTDEGIN
001960: 41,3215           60776                           CADR     DPINSF                                #  SAME AS ARITHDP1
001961: 41,3216           65361                           CADR     HMSIN
001962: 41,3217           61261                           CADR     DSPALARM                              #  MIN/SEC CANT BE LOADED.
001963: 41,3220           61027                           CADR     DPINSF4
001964: 41,3221           60756                           CADR     ARTIN1SF
001965: 41,3222           61261                           CADR     DSPALARM                              #  2INTOUT CANT BE LOADED.
001966: 41,3223           61007                           CADR     DPFRACIN
001967:
001968:                                                                                                  #  SCALE FACTORS FOR THOSE ROUTINES NEEDING THEM ARE AVAILABLE IN SFTEMP1.
001969:                                                                                                  #  ALL SFIN ROUTINES USE MPAC MPAC+1. LEAVE RESULT IN A. END WITH TC DECRET
001970:
001971: 40,2000                                           SETLOC   PINBALL1
001972: 40,2000                                           BANK
001973: 40,2674                                           COUNT*   $$/PIN
001974:
001975:                                                                                                  #  DEGINSF APPLIES 1000/180 = 5.55555(10) = 5.43434(8)
001976:
001977: 40,2674           07052        DEGINSF            TC       DMP                                   #  SF ROUTINE FOR DEC DEGREES
001978: 40,2675           02737                           ADRES    DEGCON1                               #  MULT BY 5.5 5(10)X2EXP-3
001979: 40,2676           10155                           CCS      MPAC       +1                         #  THIS ROUNDS OFF MPAC+1 BEFORE SHIFT
001980: 40,2677           34756                           CAF      BIT11                                 #  LEFT 3, AND CAUSES 360.00 TO OF/UF
001981: 40,2700           02702                           TC       +2                                    #  WHEN SHIFTED LEFT AND ALARM.
001982: 40,2701           44756                           CS       BIT11
001983: 40,2702           60155                           AD       MPAC       +1
001984: 40,2703           03046                           TC       2ROUND     +2
001985: 40,2704           04372                           TC       TPSL1                                 #  LEFT 1
001986: 40,2705           04372        DEGINSF2           TC       TPSL1                                 #  LEFT 2
001987: 40,2706           03051                           TC       TESTOFUF
001988: 40,2707           04372                           TC       TPSL1                                 #  RETURNS IF NO OF/UF (LEFT3)
001989: 40,2710           10154                           CCS      MPAC
001990: 40,2711           02715                           TC       SIGNFIX                               #  IF +, GO TO SIGNFIX
001991: 40,2712           02715                           TC       SIGNFIX                               #  IF +0, GO TO SIGNFIX
001992: 40,2713           40000                           COM                                            #  IF -, USE -MAGNITUDE +1
001993: 40,2714           54154                           TS       MPAC                                  #  IF -0, USE +0
001994: 40,2715           10162        SIGNFIX            CCS      MPAC+6
001995: 40,2716           02733                           TC       SGNTO1                                #  IF OVERFLOW
001996: 40,2717           02727                           TC       ENDSCALE                              #  NO OVERFLOW/UNDERFLOW
001997: 40,2720           10154                           CCS      MPAC                                  #  IF UF FORCE SIGN TO 0 EXCEPT -180
001998: 40,2721           04151        MONADR             GENADR   PASTEVB                               #  CANNOT GET HERE
001999: 40,2722           02731                           TC       NEG180


002001: 40,2723           02724                           TC       +1
002002: 40,2724           56154                           XCH      MPAC
002003: 40,2725           74750                           MASK     POSMAX
002004: 40,2726           54154                 -1        TS       MPAC
002005: 40,2727           04655        ENDSCALE           TC       POSTJUMP
002006: 40,2730           63151                           CADR     PUTCOM2
002007:
002008: 40,2731           44750        NEG180             CS       POSMAX
002009: 40,2732           02726                           TC       ENDSCALE   -1
002010:
002011: 40,2733           40154        SGNTO1             CS       MPAC                                  #  IF OF FORCE SIGN TO 1
002012: 40,2734           74750                           MASK     POSMAX
002013: 40,2735           40000                           CS       A
002014: 40,2736           02726                           TC       ENDSCALE   -1
002015:
002016: 40,2737           26161 30707  DEGCON1            2DEC     5.555555555 B-3
002017:
002018: 40,2741           21616 07071  DEGCON2            2DEC     2.222222222 B-2
002019:
002020: 40,2743           07052        ARTHINSF           TC       DMP                                   #  SCALES MPAC, +1 BY SFTEMP1, SFTEMP2.
002021: 40,2744           00123                           ADRES    SFTEMP1                               #  ASSUMES POINT BETWEEN HI AND LO PARTS
002022: 40,2745           56156                           XCH      MPAC       +2                         #  OF SFCON. SHIFTS RESULTS LEFT BY 14.
002023: 40,2746           56155                           XCH      MPAC       +1                         #  (BY TAKING RESULTS FROM MPAC+1, MPAC+2)
002024: 40,2747           56154                           XCH      MPAC
002025: 40,2750           00006                           EXTEND
002026: 40,2751           12753                           BZF      BINROUND
002027: 40,2752           04173                           TC       ALMCYCLE                              #  TOO LARGE A LOAD. ALARM AND RECYCLE.
002028: 40,2753           03044        BINROUND           TC       2ROUND
002029: 40,2754           03051                           TC       TESTOFUF
002030: 40,2755           02727                           TC       ENDSCALE                              #  RETURNS IF NO OF/UF
002031:
002032: 40,2756           07052        ARTIN1SF           TC       DMP                                   #  SCALES MPAC, +1 BY SFTEMP1, SFTEMP2.
002033: 40,2757           00123                           ADRES    SFTEMP1                               #  ROUNDS MPAC+1 INTO MPAC.
002034: 40,2760           02753                           TC       BINROUND
002035:
002036: 40,2761           10154        OPTDEGIN           CCS      MPAC                                  #  OPTICS SCALING ROUTINE
002037: 40,2762           02766                           TC       +4
002038: 40,2763           02766                           TC       +3
002039: 40,2764           04173                           TC       ALMCYCLE                              #  REJECT - INPUT. ALARM AND RECYCLE.
002040: 40,2765           04173                           TC       ALMCYCLE                              #  REJECT - INPUT. ALARM AND RECYCLE.
002041: 40,2766           32525        OPDEGIN2           CAF      NEG.2                                 #  RANGE IS 90 DEG
002042: 40,2767           26154                           ADS      MPAC                                  #  SUBTRACT BIAS
002043: 40,2770           07052                           TC       DMP                                   #  MULT BY 100 / 45 B-2
002044: 40,2771           02741                           ADRES    DEGCON2
002045: 40,2772           34755                           CAF      BIT12                                 #  ROUND AS IN DEGINSF
002046: 40,2773           60155                           AD       MPAC       +1
002047: 40,2774           03046                           TC       2ROUND     +2


002049: 40,2775           02705                           TC       DEGINSF2
002050:
002051: 40,2776           07052        DPINSF             TC       DMP                                   #  SCALES MPAC, MPAC +1 BY SFTEMP1,
002052: 40,2777           00123                           ADRES    SFTEMP1                               #  SFTEMP2. STORES LOW PART OF RESULT
002053: 40,3000           56156                 +2        XCH      MPAC       +2                         #  IN (E SUBK) +1 OR E+1
002054: 40,3001           60000                           DOUBLE
002055: 40,3002           54156                           TS       MPAC       +2
002056: 40,3003           34772                           CAF      ZERO
002057: 40,3004           60155                           AD       MPAC       +1
002058: 40,3005           03046                           TC       2ROUND     +2
002059: 40,3006           03051                           TC       TESTOFUF
002060: 40,3007           50140        DPFRACIN           INDEX    MIXBR                                 #  RETURNS IF NO OF/UF
002061: 40,3010           03010                           TC       +0
002062: 40,3011           03021                           TC       DPINORM
002063: 40,3012           30117                           CA       DECOUNT                               #  MIXED NOUN
002064: 40,3013           60145        DPINCOM            AD       NOUNADD                               #        MIXED           NORMAL
002065: 40,3014           54002                           TS       Q                                     #        E SUBK          E
002066: 40,3015           56155                           XCH      MPAC       +1
002067: 40,3016           50002                           INDEX    Q
002068: 40,3017           54001                           TS       1                                     #  PLACE LOW PART IN
002069: 40,3020           02727                           TC       ENDSCALE                              #  (E SUBK) +1   MIXED
002070: 40,3021           34772        DPINORM            CAF      ZERO                                  #  E +1          NORMAL
002071: 40,3022           03013                           TC       DPINCOM
002072:
002073: 40,3023           07052        DPINSF2            TC       DMP                                   #  ASSUMES POINT BETWEEN BITS 7-8 OF HIGH
002074: 40,3024           00123                           ADRES    SFTEMP1                               #  PART OF SF CONST. DPINSF2 SHIFTS RESULTS
002075: 40,3025           36211                           CAF      SIX                                   #  LEFT BY 7, ROUNDS MPAC+2 INTO MPAC+1
002076: 40,3026           13032                           TCF      +4                                    #  SHIFT LEFT 7
002077: 40,3027           07052        DPINSF4            TC       DMP                                   #  ASSUMES POINT BETWEEN BITS 11-12 OF HIGH
002078: 40,3030           00123                           ADRES    SFTEMP1                               #  PART OF SF CONST. DPINSF2 SHIFTS RESULTS
002079: 40,3031           34767                           CAF      TWO                                   #  LEFT BY 3, ROUNDS MPAC+2 INTO MPAC+1.
002080: 40,3032           03034                           TC       TPLEFTN                               #  SHIFT LEFT 3.
002081: 40,3033           03000                           TC       DPINSF     +2
002082:
002083: 40,3034           56002        TPLEFTN            XCH      Q                                     #  SHIFTS MPAC, +1, +2 LEFT N. SETS OVFIND
002084: 40,3035           54124                           TS       SFTEMP2                               #  TO +1 FOR OF, -1 FOR UF.
002085: 40,3036           56002                           XCH      Q                                     #  CALL WITH N-1 IN A.
002086: 40,3037           54123        LEFTNCOM           TS       SFTEMP1                               #        LOOP TIME .37 MSEC.
002087: 40,3040           04372                           TC       TPSL1
002088: 40,3041           10123                           CCS      SFTEMP1
002089: 40,3042           03037                           TC       LEFTNCOM
002090: 40,3043           00124                           TC       SFTEMP2
002091:
002092: 40,3044           56155        2ROUND             XCH      MPAC       +1
002093: 40,3045           60000                           DOUBLE
002094: 40,3046           54155                 +2        TS       MPAC       +1
002095: 40,3047           00002                           TC       Q                                     #  IF MPAC+1 DOES NOT OF/UF


002097: 40,3050           14376                           TCF      TPSL1      +4                         #  CHECK FOR MPAC OF/UF
002098: 40,3051           30162        TESTOFUF           CA       MPAC+6                                #  RETURNS IF NO OF/UF
002099: 40,3052           00006                           EXTEND
002100: 40,3053           16711                           BZF      TCQ
002101: 40,3054           04173                           TC       ALMCYCLE                              #  UF    ALARM AND RECYCLE.
002102:
002103: 42,2000                                           SETLOC   PINBALL3
002104: 42,2000                                           BANK
002105: 42,3361                                           COUNT*   $$/PIN
002106: 42,3361           41203        HMSIN              CS       DECBRNCH                              #  CHECK FOR ALL 3.COMPS DEC
002107: 42,3362           74172                           MASK     OCT34                                 #  BITS 3,4,5
002108: 42,3363           10000                           CCS      A
002109: 42,3364           03501                           TC       FORCEV25
002110: 42,3365           07052                           TC       DMP                                   #  XREG, XREGLP (=HOURS) WERE ALREADY PUT
002111: 42,3366           03444                           ADRES    WHOLECON                              #  INTO MPAC, MPAC+1.


002113: 42,3367           03453                           TC       RND/TST                               #  ROUND OFF TO WHOLE HRS IN MPAC+1.
002114: 42,3370           34772                           CAF      ZERO                                  #  ALARM IF MPAC NON ZERO (G/ 16383).
002115: 42,3371           54156                           TS       MPAC       +2
002116: 42,3372           33446                           CAF      HRCON
002117: 42,3373           54154                           TS       MPAC
002118: 42,3374           33447                           CAF      HRCON      +1
002119: 42,3375           56155                           XCH      MPAC       +1
002120: 42,3376           07256                           TC       SHORTMP
002121: 42,3377           03464                           TC       MPACTST                               #  ALARM IF MPAC NON ZERO (G/ 745)
002122: 42,3400           52156                           DXCH     MPAC       +1                         #  STORE HOURS CONTRIBUTION
002123: 42,3401           52124                           DXCH     HITEMIN
002124: 42,3402           31207                           CA       YREG                                  #  PUT YREG, YREGLP INTO MPAC, +1.
002125: 42,3403           23212                           LXCH     YREGLP
002126: 42,3404           52155                           DXCH     MPAC
002127: 42,3405           07052                           TC       DMP
002128: 42,3406           03444                           ADRES    WHOLECON
002129: 42,3407           03453                           TC       RND/TST                               #  ROUND OFF TO WHOLE MIN IN MPAC+1
002130: 42,3410           43451                           CS       59MIN                                 #  ALARM IF MPAC NON ZERO (G/16383)
002131: 42,3411           03470                           TC       SIZETST                               #  ALARM IF MPAC+1 G/ 59MIN
002132: 42,3412           56155                           XCH      MPAC       +1
002133: 42,3413           00006                           EXTEND
002134: 42,3414           73450                           MP       MINCON                                #  LEAVES MINUTES CONTRIBUTION IN A,L
002135: 42,3415           20124                           DAS      HITEMIN                               #  ADD IN MINUTES CONTRIBUTION
002136: 42,3416           00006                           EXTEND                                         #  IF THIS DAS OVERFLOWS, G/ 745 HR,39MIN
002137: 42,3417           13421                           BZF      +2
002138: 42,3420           04173                           TC       ALMCYCLE
002139: 42,3421           31210                           CA       ZREG                                  #  PUT ZREG, ZREGLP INTO MPAC, +1.
002140: 42,3422           23213                           LXCH     ZREGLP
002141: 42,3423           52155                           DXCH     MPAC
002142: 42,3424           07052                           TC       DMP
002143: 42,3425           03444                           ADRES    WHOLECON
002144: 42,3426           03453                           TC       RND/TST                               #  ROUND OFF TO WHOLE CENTI-SEC IN MPAC+1
002145: 42,3427           43452                           CS       59.99SEC                              #  ALARM IF MPAC NON ZERO (G/163.83 SEC)
002146: 42,3430           03470                           TC       SIZETST                               #  ALARM IF MPAC+1 G/59.99 SEC


002148: 42,3431           52124                           DXCH     HITEMIN                               #  ADD IN SECONDS CONTRIBUTION
002149: 42,3432           20155                           DAS      MPAC                                  #  IF THIS DAS OVERFLOWS,
002150: 42,3433           00006                           EXTEND                                         #  G/ 745 HR, 39 MIN, 14.55 SEC.
002151: 42,3434           13436                           BZF      +2
002152: 42,3435           04173                           TC       ALMCYCLE                              #  ALARM AND RECYCLE
002153: 42,3436           07224                           TC       DPAGREE
002154: 42,3437           52155                           DXCH     MPAC
002155: 42,3440           50145                           INDEX    NOUNADD
002156: 42,3441           52001                           DXCH     0
002157: 42,3442           04655                           TC       POSTJUMP
002158: 42,3443           63001                           CADR     LOADLV
002159:
002160: 42,3444           00006        WHOLECON           OCT      00006                                 #  (10EXP5/2EXP14)2EXP14
002161: 42,3445           03240                           OCT      03240
002162: 42,3446           00025        HRCON              OCT      00025                                 #  1 HOUR IN CENTI-SEC
002163: 42,3447           37100                 +1        OCT      37100
002164: 42,3450           13560        MINCON             OCT      13560                                 #  1 MINUTE IN CENTI-SEC
002165: 42,3451           00073        59MIN              OCT      00073                                 #  59 AS WHOLE
002166: 42,3452           13557        59.99SEC           OCT      13557                                 #  5999 CENTI-SEC
002167:
002168: 42,3453           56156        RND/TST            XCH      MPAC       +2                         #  ROUNDS MPAC+2 INTO MPAC+1.
002169: 42,3454           60000                           DOUBLE                                         #  ALARMS IF MPAC NOT 0
002170: 42,3455           54156                           TS       MPAC       +2
002171: 42,3456           34772                           CAF      ZERO
002172: 42,3457           60155                           AD       MPAC       +1
002173: 42,3460           54155                           TS       MPAC       +1
002174: 42,3461           34772                           CAF      ZERO
002175: 42,3462           60154                           AD       MPAC                                  #  CANT OVFLOW
002176: 42,3463           56154                           XCH      MPAC
002177: 42,3464           30154        MPACTST            CA       MPAC                                  #  ALARM IF MPAC NON ZERO
002178: 42,3465           00006                           EXTEND
002179: 42,3466           16711                           BZF      TCQ
002180: 42,3467           04173                           TC       ALMCYCLE                              #  ALARM AND RECYCLE.
002181: 42,3470           54156        SIZETST            TS       MPAC       +2                         #  CALLED WITH - CON IN A
002182: 42,3471           10155                           CCS      MPAC       +1                         #  GET MAG OF MPAC+1
002183: 42,3472           64770                           AD       ONE
002184: 42,3473           13475                           TCF      +2
002185: 42,3474           64770                           AD       ONE
002186: 42,3475           60156                           AD       MPAC       +2
002187: 42,3476           00006                           EXTEND                                         #  MAG OF MPAC+1 - CON
002188: 42,3477           66711                           BZMF     TCQ
002189: 42,3500           04173                           TC       ALMCYCLE                              #  MAG OF MPAC+1 G/ CON. ALARM AND RECYCLE.
002190: 42,3501           44125        FORCEV25           CS       OCT31                                 #  FORCE VERB 25 TO BE EXECUTED BY RECYCLE
002191: 42,3502           55244                           TS       VERBSAVE                              #   IN CASE OPERATOR EXECUTED A LOWER LOAD
002192: 42,3503           04173                           TC       ALMCYCLE                              #   VERB. ALARM AND RECYCLE.
002193:


002195:
002196:                                                                                                  #  MONITOR ALLOWS OTHER KEYBOARD ACTIVITY. IT IS ENDED BY VERB TERMINATE,
002197:                                                                                                  #  VERB PROCEED WITHOUT DATA, VERB RESEQUENCE,
002198:                                                                                                  #  ANOTHER MONITOR, OR ANY NVSUB CALL THAT PASSES THE DSPLOCK (PROVIDED
002199:                                                                                                  #  THAT THE OPERATOR HAS SOMEHOW ALLOWED THE ENDING OF A MONITOR WHICH
002200:                                                                                                  #  HE HAS INITIATED THROUGH THE KEYBOARD).
002201:
002202:                                                                                                  #  MONITOR ACTION IS SUSPENDED, BUT NOT ENDED, BY ANY KEYBOARD ACTION,
002203:                                                                                                  #  EXCEPT ERROR LIGHT RESET. IT BEGINS AGAIN WHEN KEY RELEASE IS PERFORMED.
002204:                                                                                                  #  MONITOR SAVES THE NOUN AND APPROPRIATE DISPLAY VERB IN MONSAVE. IT SAVES
002205:                                                                                                  #  NOUNCADR IN MONSAVE1, IF NOUN = MACHINE CADR TO BE SPECIFIED. BIT 15 OF
002206:                                                                                                  #  MONSAVE1 IS THE KILL MONITOR SIGNAL (KILLER BIT). BIT 14 OF MONSAVE1
002207:                                                                                                  #  INDICATES THE CURRENT MONITOR WAS EXTERNALLY INITIATED (EXTERNAL
002208:                                                                                                  #  MONITOR BIT). IT IS TURNED OFF BY RELDSP AND KILMONON.
002209:
002210:                                                                                                  #  MONSAVE INDICATES IF MONITOR IS ON (+=ON, +0=OFF)
002211:                                                                                                  #  IF MONSAVE IS +, MONITOR ENTERS NO REQUEST, BUT TURNS KILLER BIT OFF.
002212:                                                                                                  #  IF MONSAVE IS +0, MONITOR ENTERS REQUEST AND TURNS KILLER BIT OFF.
002213:
002214:                                                                                                  #  NVSUB (IF EXTERNAL MONITOR BIT IS OFF), VB=PROCEED WITHOUT DATA,
002215:                                                                                                  #  VB=RESEQUENCE, AND VB=TERMINATE TURN KILL MONITOR BIT ON.
002216:
002217:                                                                                                  #  IF KILLER BIT IS ON, MONREQ ENTERS NO FURTHER REQUESTS, ZEROS MONSAVE
002218:                                                                                                  #  AND MONSAVE1 (TURNING OFF KILLER BIT AND EXTERNAL MONITOR BIT).
002219:
002220:                                                                                                  #  MONITOR DOSENT TEST FOR MATBS SINCE NVSUB CAN HANDLE INTERNAL MATBS NOW
002221:
002222: 41,2000                                           SETLOC   PINBALL2
002223: 41,2000                                           BANK
002224: 41,3224                                           COUNT*   $$/PIN
002225: 41,3224           44076        MONITOR            CS       BIT15/14
002226: 41,3225           71222                           MASK     NOUNCADR
002227: 41,3226           54155        MONIT1             TS       MPAC       +1                         #  TEMP STORAGE
002228: 41,3227           40136                           CS       ENTEXIT
002229: 41,3230           64170                           AD       ENDINST
002230: 41,3231           10000                           CCS      A
002231: 41,3232           03241                           TC       MONIT2
002232: 41,3233           75377        MONREF             OCT      75377                                 #  -DEC10,STARTING IN BIT8. CANNOT GET HERE
002233: 41,3234           03241                           TC       MONIT2
002234: 41,3235           34753                           CAF      BIT14                                 #  EXTERNALLY INITIATED MONITOR,
002235: 41,3236           26155                           ADS      MPAC       +1                         #  SET BIT 14 FOR MONSAVE1.
002236: 41,3237           34772                           CAF      ZERO
002237: 41,3240           55225                           TS       MONSAVE2                              #  ZERO NVMONOPT OPTIONS
002238: 41,3241           36043        MONIT2             CAF      LOW7
002239: 41,3242           71204                           MASK     VERBREG
002240: 41,3243           04333                           TC       LEFT5
002241: 41,3244           54022                           TS       CYL
002242: 41,3245           40022                           CS       CYL
002243: 41,3246           56022                           XCH      CYL
002244: 41,3247           61205                           AD       NOUNREG
002245: 41,3250           54154                           TS       MPAC                                  #  TEMP STORAGE
002246: 41,3251           34772                           CAF      ZERO


002248: 41,3252           55215                           TS       DSPLOCK                               #  +0 INTO DSPLOCK SO MONITOR CAN RUN.
002249: 41,3253           11245                           CCS      CADRSTOR                              #  TURN OFF KR LITE IF CADRSTOR AND DSPLIST
002250: 41,3254           03256                           TC       +2                                    #  ARE BOTH EMPTY. (LITE COMES ON IF NEW
002251: 41,3255           04455                           TC       RELDSP1                               #  MONITOR IS KEYED IN OVER OLD MONITOR.)
002252: 41,3256           00004                           INHINT
002253: 41,3257           11223                           CCS      MONSAVE
002254: 41,3260           03263                           TC       +3                                    #  IF MONSAVE WAS +, NO REQUEST
002255: 41,3261           05222                           TC       TWIDBIT1                              #  IF MONSAVE WAS 0, REQUEST MONREQ
002256: 41,3262           03267                           ADRES    MONREQ
002257: 41,3263           52155                           DXCH     MPAC                                  #  PLACE MONITOR VERB AND NOUN INTO MONSAVE
002258: 41,3264           53224                           DXCH     MONSAVE                               #  ZERO THE KILL MONITOR BIT
002259: 41,3265           00003                           RELINT                                         #  SET UP EXTERNAL MONITOR BIT
002260: 41,3266           00136                           TC       ENTRET
002261:
002262: 41,3267           04366        MONREQ             TC       LODSAMPT                              #  CALLED BY WAITLIST
002263: 41,3270           03307                           TC       B15MONCK                              #  CHECK FOR KILLER BIT
002264: 41,3271           03303                           TC       KILLMON                               #  IF KILLER BIT = 1, NO REQUESTS
002265: 41,3272           35016                           CAF      MONDEL
002266: 41,3273           05233        TCWAIT             TC       WAITLIST                              #  ENTER WAITLIST REQUEST FOR MONREQ
002267: 41,3274     1202                                  EBANK=   DSPCOUNT
002268: 41,3274           03267 62102                     2CADR    MONREQ
002269:
002270: 41,3276           34346                           CAF      CHRPRIO
002271: 41,3277           05121        TCNOVAC            TC       NOVAC                                 #  ENTER EXEC REQUEST FOR MONDO
002272: 41,3300     1202                                  EBANK=   DSPCOUNT
002273: 41,3300           03314 62102                     2CADR    MONDO
002274:
002275: 41,3302           05314                           TC       TASKOVER
002276:
002277: 41,3303           34772        KILLMON            CAF      ZERO                                  #  ZERO MONSAVE AND TURN KILLER BIT OFF
002278: 41,3304           55223                           TS       MONSAVE
002279: 41,3305           55224                           TS       MONSAVE1                              #  TURN OFF KILL MONITOR BIT.
002280: 41,3306           05314                           TC       TASKOVER                              #  TURN OFF EXTERNAL MONITOR BIT.
002281: 41,3307     5016               MONDEL             EQUALS   1SEC
002282: 41,3307           11224        B15MONCK           CCS      MONSAVE1                              #  CHECK FOR KILLER BIT=1
002283: 41,3310           13311                           TCF      +1                                    #  =0
002284: 41,3311           24002                           INCR     Q                                     #  =0
002285: 41,3312           00002                           TC       Q                                     #  =1
002286: 41,3313           00002                           TC       Q                                     #  =1
002287: 41,3314           03307        MONDO              TC       B15MONCK                              #  CHECK FOR KILLER BIT
002288: 41,3315           05205                           TC       ENDOFJOB                              #  IN CASE TERMINATE CAME SINCE LAST MONREQ
002289: 41,3316           11215                           CCS      DSPLOCK
002290: 41,3317           03337                           TC       MONBUSY                               #  NVSUB IS BUSY
002291: 41,3320           36043                           CAF      LOW7
002292: 41,3321           71223                           MASK     MONSAVE
002293: 41,3322           02315                           TC       UPDATNN    -1                         #  PLACE NOUN INTO NOUNREG AND DISPLAY IT
002294: 41,3323           34171                           CAF      MID7
002295: 41,3324           71223                           MASK     MONSAVE                               #  CHANGE MONITOR VERB TO DISPLAY VERB
002296: 41,3325           63233                           AD       MONREF                                #  -DEC10, STARTING IN BIT8


002298: 41,3326           54023                           TS       EDOP                                  #  RIGHT 7
002299: 41,3327           30023                           CA       EDOP
002300: 41,3330           55204                           TS       VERBREG
002301: 41,3331           32433                           CAF      MONBACK                               #  SET RETURN TO PASTEVB AFTER DATA DISPLAY
002302: 41,3332           54136                           TS       ENTRET
002303: 41,3333           44076                           CS       BIT15/14
002304: 41,3334           71224                           MASK     MONSAVE1                              #  PUT ECADR INTO MPAC +2. INTMCTBS WILL
002305: 41,3335           54156                           TS       MPAC       +2                         #  DISPLAY IT AND SET NOUNCADR, NOUNADD,
002306: 41,3336           02050        ENDMONDO           TC       TESTNN                                #  EBANK.
002307:
002308: 41,3337     4076               BIT15/14           EQUALS   RELTAB11                              #  OCT 60000
002309:    4000                                           SETLOC   FFTAG8
002310:    4000                                           BANK
002311:
002312:    4151                                           COUNT*   $$/PIN
002313:    4151           34171        PASTEVB            CAF      MID7
002314:    4152           71225                           MASK     MONSAVE2                              #  NVMONOPT PASTE OPTION
002315:    4153           00006                           EXTEND
002316:    4154           14156                           BZF      +2
002317:    4155           04157                           TC       PASTEOPT                              #  PASTE PLEASE VERB FOR NVMONOPT
002318:    4156           31223                           CA       MONSAVE                               #  PASTE MONITOR VERB - PASTE OPTION IS 0
002319:    4157           54023        PASTEOPT           TS       EDOP                                  #  RIGHT 7
002320:    4160           30023                           CA       EDOP                                  #  PLACE MONITOR VERB OR PLEASE VERB INTO
002321:    4161           04636                           TC       BANKCALL                              #   VERBREG AND DISPLAY IT.
002322:    4162           62336                           CADR     UPDATVB    -1
002323:    4163           34772                           CAF      ZERO                                  #  ZERO REQRET SO THAT PASTED VERBS CAN
002324:    4164           55216                           TS       REQRET                                #   BE EXECUTED BY OPERATOR.
002325:    4165           31225                           CA       MONSAVE2
002326:    4166           04264                           TC       BLANKSUB                              #  PROCESS NVMONOPT BLANK OPTION IF ANY
002327:    4167           04170                           TC       +1
002328:    4170           05205        ENDPASTE           TC       ENDOFJOB
002329:
002330:    4171     4170               ENDINST            EQUALS   ENDPASTE
002331:
002332:    4171           37600        MID7               OCT      37600
002333:
002334:    4172           00034        OCT34              OCT      34
002335: 41,2000                                           SETLOC   PINBALL2
002336: 41,2000                                           BANK
002337: 41,3337                                           COUNT*   $$/PIN
002338: 41,3337           04356        MONBUSY            TC       RELDSPON                              #  TURN KEY RELEASE LIGHT
002339: 41,3340           05205                           TC       ENDOFJOB
002340:
002341:                                                                                                  #  DSPFMEM IS USED TO DISPLAY (IN OCTAL) ANY FIXED REGISTER.
002342:                                                                                                  #  IT IS USED WITH NOUN = MACHINE CADR TO BE SPECIFIED. THE FCADR OF THE
002343:                                                                                                  #  DESIRED LOCATION IS THEN PUNCHED IN. IT HANDLES F/F (FCADR 4000-7777)
002344:
002345:                                                                                                  #  FOR BANKS L/E 27, THIS IS ENOUGH.


002347:
002348:                                                                                                  #  FOR BANKS G/E 30, THE THIRD COMPONENT OF NOUN 26 (PRIO, ADRES, BBCON)
002349:                                                                                                  #  MUST BE PRELOADED WITH THE DESIRED SUPERBANK BITS (BITS 5,6,7).
002350:                                                                                                  #        V23N26 SHOULD BE USED.
002351:
002352:                                                                                                  #  SUMMARY
002353:                                                                                                  #  FOR BANKS L/E 27,                             V27N01E(FCADR)E
002354:                                                                                                  #  FOR BANKS G/E 30,     V23N26E(SUPERBITS)E     V27N01E(FCADR)E
002355:
002356: 41,3341           34321        DSPFMEM            CAF      R1D1                                  #  IF F/F, DATACALL USES BANK 02 OR 03.
002357: 41,3342           55202                           TS       DSPCOUNT
002358: 41,3343           31252                           CA       DSPTEM1    +2                         #  SUPERBANK BITS WERE PRELOADED INTO
002359: 41,3344           54001                           TS       L                                     #  3RD COMPONENT OF NOUN 26.
002360: 41,3345           31222                           CA       NOUNCADR                              #  ORIGINAL FCADR LOADED STILL IN NOUNCADR.
002361: 41,3346           04671                           TC       SUPDACAL                              #  CALL WITH FCADR IN A, SUPERBITS IN L.
002362: 41,3347           03351                           TC       DSPOCTWD
002363: 41,3350           05205        ENDSPF             TC       ENDOFJOB
002364:


002366:                                                                                                  #  WORD DISPLAY ROUTINES
002367: 40,2000                                           SETLOC   PINBALL1
002368: 40,2000                                           BANK
002369: 40,3055                                           COUNT*   $$/PIN
002370: 40,3055           56002        DSPSIGN            XCH      Q
002371: 40,3056           54144                           TS       DSPWDRET
002372: 40,3057           10154                           CCS      MPAC
002373: 40,3060           13070                           TCF      TCPLON
002374: 40,3061           13070                           TCF      TCPLON
002375: 40,3062           64770                           AD       ONE
002376: 40,3063           54154                           TS       MPAC
002377: 40,3064           02330                           TC       -ON
002378: 40,3065           40155                           CS       MPAC       +1
002379: 40,3066           54155                           TS       MPAC       +1
002380: 40,3067           00144                           TC       DSPWDRET
002381: 40,3070           02310        TCPLON             TC       +ON
002382: 40,3071           00144                           TC       DSPWDRET
002383:
002384:                                                                                                  #  DSPDECWD CONVERTS C(MPAC,MPAC+1) INTO A SIGN AND 5 CHAR DECIMAL
002385:                                                                                                  #  STARTING IN LOC SPECIFIED IN DSPCOUNT. IT ROUNDS BY 5 EXP-6.
002386:
002387: 40,3072           56002        DSPDECWD           XCH      Q
002388: 40,3073           54115                           TS       WDRET
002389: 40,3074           03055                           TC       DSPSIGN
002390: 40,3075           00006                           EXTEND                                         #  ROUND BY 5 EXP-6
002391: 40,3076           32343                           DCA      DECROUND   -1
002392: 40,3077           20155                           DAS      MPAC
002393: 40,3100           00006                           EXTEND
002394: 40,3101           13105                           BZF      +4
002395: 40,3102           00006                           EXTEND
002396: 40,3103           34750                           DCA      DPOSMAX
002397: 40,3104           52155                           DXCH     MPAC
002398: 40,3105           34766                           CAF      FOUR
002399: 40,3106           54137        DSPDCWD1           TS       WDCNT
002400: 40,3107           34355                           CAF      BINCON
002401: 40,3110           07256                           TC       SHORTMP
002402: 40,3111           30154                           CA       MPAC
002403: 40,3112           04423                           TC       CODSTOR
002404: 40,3113           34772                           CAF      ZERO
002405: 40,3114           56156                           XCH      MPAC       +2
002406: 40,3115           56155                           XCH      MPAC       +1
002407: 40,3116           54154                           TS       MPAC
002408: 40,3117           10143                           CCS      COUNT
002409: 40,3120           55202                           TS       DSPCOUNT
002410: 40,3121           03161                           TC       DSPIN
002411: 40,3122           10137                           CCS      WDCNT
002412: 40,3123           03106                           TC       DSPDCWD1
002413: 40,3124           04261                           TC       -VD1SET
002414: 40,3125           00115                           TC       WDRET
002415:


002417:
002418:                                                                                                  #  DSPDC2NR CONVERTS C(MPAC,MPAC+1) INTO A SIGN AND 2 CHAR DECIMAL
002419:                                                                                                  #  STARTING IN LOC SPECIFIED IN DSPCOUNT. IT DOES NOT ROUND
002420:
002421: 40,3126           56002        DSPDC2NR           XCH      Q
002422: 40,3127           54115                           TS       WDRET
002423: 40,3130           03055                           TC       DSPSIGN
002424: 40,3131           34770                 +3        CAF      ONE
002425: 40,3132           03106                           TC       DSPDCWD1
002426:
002427:                                                                                                  #  DSP2DEC CONVERTS C(MPAC) AND C(MPAC+1) INTO A SIGN AND 10 CHAR DECIMAL
002428:                                                                                                  #  STARTING IN THE LOC SPECIFIED IN DSPCOUNT.
002429:
002430: 40,3133           56002        DSP2DEC            XCH      Q
002431: 40,3134           54115                           TS       WDRET
002432: 40,3135           34772                           CAF      ZERO
002433: 40,3136           54124                           TS       CODE
002434: 40,3137           36214                           CAF      THREE
002435: 40,3140           03247                           TC       11DSPIN                               #  -R2 OFF
002436: 40,3141           34766                           CAF      FOUR
002437: 40,3142           03247                           TC       11DSPIN                               #  +R2 OFF
002438: 40,3143           03055                           TC       DSPSIGN
002439: 40,3144           34322                           CAF      R2D1
002440: 40,3145           03106        END2DEC            TC       DSPDCWD1
002441:
002442:                                                                                                  #  DSPDECVN DISPLAYS C(A) UPON ENTRY AS A 2 CHAR DECIMAL BEGINNING IN THE
002443:                                                                                                  #  DSP LOC SPECIFIED IN DSPCOUNT.
002444:                                                                                                  #  C(A) SHOULD BE IN FORM N X 2EXP-14. THIS IS SCALED TO FORM N/100 BEFORE
002445:                                                                                                  #  DISPLAY CONVERSION.
002446:
002447: 40,3146           00006        DSPDECVN           EXTEND
002448: 40,3147           72244                           MP       VNDSPCON                              #  MULT BY .01
002449: 40,3150           22154                           LXCH     MPAC                                  #  TAKE RESULTS FROM L. (MULT BY 2EXP14).
002450: 40,3151           34772                           CAF      ZERO
002451: 40,3152           54155                           TS       MPAC       +1
002452: 40,3153           56002                           XCH      Q
002453: 40,3154           54115                           TS       WDRET
002454: 40,3155           03131                           TC       DSPDC2NR   +3                         #  NO SIGN, NO ROUND, 2 CHAR
002455:
002456: 40,3156           03146        GOVNUPDT           TC       DSPDECVN                              #  THIS IS NOT FOR GENERAL USE. REALLY PART
002457: 40,3157           04655                           TC       POSTJUMP                              #  OF UPDATVB.
002458: 40,3160           62346                           CADR     UPDAT1     +2
002459:
002460: 41,2000                                           SETLOC   PINBALL2
002461: 41,2000                                           BANK
002462: 41,3351                                           COUNT*   $$/PIN
002463:
002464:                                                                                                  #  DSPOCTWD DISPLAYS C(A) UPON ENTRY AS A 5 CHAR OCT STARTING IN THE DSP
002465:                                                                                                  #  CHAR SPECIFIED IN DSPCOUNT. IT STOPS AFTER 5 CHAR HAVE BEEN DISPLAYED.


002467:
002468: 41,3351           54022        DSPOCTWD           TS       CYL
002469: 41,3352           56002                           XCH      Q
002470: 41,3353           54115                           TS       WDRET                                 #  MUST USE SAME RETURN AS DSP2BIT.
002471: 41,3354           34753                           CAF      BIT14                                 #  TO BLANK SIGNS
002472: 41,3355           27202                           ADS      DSPCOUNT
002473: 41,3356           34766                           CAF      FOUR
002474: 41,3357           54137        WDAGAIN            TS       WDCNT
002475: 41,3360           40022                           CS       CYL
002476: 41,3361           40022                           CS       CYL
002477: 41,3362           40022                           CS       CYL
002478: 41,3363           40000                           CS       A
002479: 41,3364           74774                           MASK     DSPMSK
002480: 41,3365           04423                           TC       CODSTOR
002481: 41,3366           10000                           CCS      A                                     #  DECREMENT DSPCOUNT EXCEPT AT +0
002482: 41,3367           55202                           TS       DSPCOUNT
002483: 41,3370           04655                           TC       POSTJUMP
002484: 41,3371           61255                           CADR     DSPOCTIN
002485: 41,3372           10137        OCTBACK            CCS      WDCNT
002486: 41,3373           03357                           TC       WDAGAIN                               #  +
002487: 41,3374           04261        DSPLV              TC       -VD1SET
002488: 41,3375           00115                           TC       WDRET
002489:
002490: 41,3376     4774               DSPMSK             =        SEVEN
002491:
002492:                                                                                                  #  FOR DSPIN PLACE 0/25 OCT INTO COUNT, 5 BIT RELAY CODE INTO CODE. BOTH
002493:                                                                                                  #  ARE DESTROYED. IF BIT14 OF COUNT IS 1, SIGN IS BLANKED WITH LEFT CHAR.
002494:                                                                                                  #  FOR DSPIN1 PLACE 0,1 INTO BIT11 OF CODE, 2 INTO COUNT, REL ADDRESS OF
002495:                                                                                                  #  DSPTAB ENTRY INTO DSREL.
002496:
002497: 40,2000                                           SETLOC   PINBALL1
002498: 40,2000                                           BANK
002499: 40,3161                                           COUNT*   $$/PIN
002500: 40,3161           56002        DSPIN              XCH      Q                                     #  CANT USE L FOR RETURN, SINCE MANY OF THE
002501: 40,3162           54114                           TS       DSEXIT                                #  ROUTINES CALLING DSPIN USE L AS RETURN.
002502: 40,3163           34342                           CAF      LOW5
002503: 40,3164           70143                           MASK     COUNT
002504: 40,3165           54021                           TS       SR
002505: 40,3166           56021                           XCH      SR
002506: 40,3167           54141                           TS       DSREL
002507: 40,3170           34770                           CAF      BIT1
002508: 40,3171           70143                           MASK     COUNT
002509: 40,3172           10000                           CCS      A
002510: 40,3173           03175                           TC       +2                                    #  LEFT IF COUNT IS ODD
002511: 40,3174           03211                           TC       DSPIN1     -1                         #  RIGHT IF COUNT IS EVEN
002512: 40,3175           56124                           XCH      CODE
002513: 40,3176           60000                           DOUBLE
002514: 40,3177           60000                           DOUBLE
002515: 40,3200           60000                           DOUBLE
002516: 40,3201           60000                           DOUBLE


002518: 40,3202           60000                           DOUBLE
002519: 40,3203           54124                           TS       CODE
002520: 40,3204           34753                           CAF      BIT14
002521: 40,3205           70143                           MASK     COUNT
002522: 40,3206           10000                           CCS      A
002523: 40,3207           34767                           CAF      TWO                                   #  BIT14 = 1, BLANK SIGN
002524: 40,3210           64770                           AD       ONE                                   #  BIT14 = 0, LEAVE SIGN ALONE
002525: 40,3211           54143                 -1        TS       COUNT                                 #  +0 INTO COUNT FOR RIGHT
002526:                                                                                                  #  +1 INTO COUNT FOR LEFT (SIGN LEFT ALONE)
002527:                                                                                                  #  +3 INTO COUNT FOR LEFT (TO BLANK SIGN)
002528: 40,3212           00004        DSPIN1             INHINT
002529: 40,3213           50141                           INDEX    DSREL
002530: 40,3214           11226                           CCS      DSPTAB
002531: 40,3215           03217                           TC       +2                                    #  IF +
002532: 40,3216           00104        ERCON              OCT      104                                   #  CHAN 11, BITS 3,7. CANNOT GET HERE
002533: 40,3217           64770                           AD       ONE                                   #  IF -
002534: 40,3220           54142                           TS       DSMAG
002535: 40,3221           50143                           INDEX    COUNT
002536: 40,3222           73243                           MASK     DSMSK
002537: 40,3223           00006                           EXTEND
002538: 40,3224           60124                           SU       CODE
002539: 40,3225           00006                           EXTEND
002540: 40,3226           13241                           BZF      DSLV                                  #  SAME
002541: 40,3227           50143        DFRNT              INDEX    COUNT
002542: 40,3230           43243                           CS       DSMSK                                 #  MASK WITH 77740,76037,75777, OR 74037
002543: 40,3231           70142                           MASK     DSMAG
002544: 40,3232           60124                           AD       CODE
002545: 40,3233           40000                           CS       A
002546: 40,3234           50141                           INDEX    DSREL
002547: 40,3235           57226                           XCH      DSPTAB
002548: 40,3236           00006                           EXTEND
002549: 40,3237           63241                           BZMF     DSLV                                  #  DSPTAB ENTRY WAS -
002550: 40,3240           25221                           INCR     NOUT                                  #  DSPTAB ENTRY WAS +
002551: 40,3241           00003        DSLV               RELINT
002552: 40,3242           00114                           TC       DSEXIT
002553:
002554: 40,3243           00037        DSMSK              OCT      37
002555: 40,3244           01740                           OCT      1740
002556: 40,3245           02000                           OCT      2000
002557: 40,3246           03740                           OCT      3740
002558:
002559:                                                                                                  #  FOR 11DSPIN, PUT REL ADDRESSS OF DSPTAB ENTRY INTO A, 1 IN BIT11 OR 0 IN
002560:                                                                                                  #  BIT11 OF CODE.
002561:
002562: 40,3247           54141        11DSPIN            TS       DSREL
002563: 40,3250           34767                           CAF      TWO
002564: 40,3251           54143                           TS       COUNT
002565: 40,3252           56002                           XCH      Q                                     #  MUST USE SAME RETURN AS DSPIN
002566: 40,3253           54114                           TS       DSEXIT


002568: 40,3254           03212                           TC       DSPIN1
002569:
002570: 40,3255           03161        DSPOCTIN           TC       DSPIN                                 #  SO DSPOCTWD DOESNT USE SWCALL
002571: 40,3256           04655                           TC       POSTJUMP
002572: 40,3257           63372        ENDSPOCT           CADR     OCTBACK
002573:
002574:                                                                                                  #  DSPALARM FINDS TC NVSUBEND IN ENTRET FOR NVSUB INITIATED ROUTINES.
002575:                                                                                                  #  ABORT WITH 21501
002576:                                                                                                  #  DSPALARM FINDS TC ENDOFJOB IN ENTRET FOR KEYBOARD INITIATED ROUTINES.
002577:                                                                                                  #  DO TC ENTRET.
002578:
002579: 40,3260           04261        PREDSPAL           TC       -VD1SET
002580: 40,3261           43431        DSPALARM           CS       NVSBENDL
002581: 40,3262           60136                           AD       ENTEXIT
002582: 40,3263           00006                           EXTEND
002583: 40,3264           13277                           BZF      CHARALRM   +2
002584: 40,3265           42721                           CS       MONADR                                #  IF THIS IS A MONITOR, KILL IT
002585: 40,3266           60136                           AD       ENTEXIT
002586: 40,3267           00006                           EXTEND
002587: 40,3270           13272                           BZF      +2
002588: 40,3271           03275                           TC       CHARALRM
002589: 40,3272           04235                           TC       KILMONON
002590: 40,3273           04362                           TC       FALTON
002591: 40,3274           04151                           TC       PASTEVB                               #  PUT MONITOR VERB BACK IN VERBREG
002592: 40,3275           04362        CHARALRM           TC       FALTON                                #  NOT NVSUB INITIATED. TURN ON OPR ERROR
002593: 40,3276           05205                           TC       ENDOFJOB
002594: 40,3277           05726                 +2        TC       POODOO
002595: 40,3300           21501                           OCT      21501                                 #  KEYBOARD + ALARM DISPLAY DURING NVSUB.
002596:
002597:                                                                                                  #  ALMCYCLE TURNS ON CHECK FAIL LIGHT, REDISPLAYS THE ORIGINAL VERB THAT
002598:                                                                                                  #  WAS EXECUTED, AND RECYCLES TO EXECUTE THE ORIGINAL VERB/NOUN COMBINATION
002599:                                                                                                  #  THAT WAS LAST EXECUTED. USED FOR BAD DATA DURING LOAD VERBS AND BY
002600:                                                                                                  #  MCTBS. ALSO BY MMCHANG IF 2 NUMERICAL CHARACTERS WERE NOT PUNCHED IN
002601:                                                                                                  #  FOR MM CODE.
002602:
002603:    4000                                           SETLOC   FFTAG8
002604:    4000                                           BANK
002605:    4173                                           COUNT*   $$/PIN
002606:    4173           04362        ALMCYCLE           TC       FALTON                                #  TURN ON CHECK FAIL LIGHT.
002607:    4174           41244                           CS       VERBSAVE                              #  GET ORIGINAL VERB THAT WAS EXECUTED
002608:    4175           55216                           TS       REQRET                                #  SET FOR ENTPAS0
002609:    4176           04636                           TC       BANKCALL                              #  PUTS ORIGINAL VERB INTO VERBREG AND
002610:    4177           62336                           CADR     UPDATVB    -1                         #  DISPLAYS IT IN VERB LIGHTS.
002611:    4200           04655        ENTERJMP           TC       POSTJUMP
002612:    4201           62000        ENDALM             CADR     ENTER
002613:
002614:                                                                                                  #  MMCHANG USES NOUN DISPLAY UNTIL ENTER.  THEN IT USES MODE DISP.


002616:                                                                                                  #  IT GOES TO MODROUT WITH THE NEW M M CODE IN A, BUT NOT DISPLAYED IN
002617:                                                                                                  #  MM LIGHTS.
002618:                                                                                                  #  IT DEMANDS 2 NUMERICAL CHARACTERS BE PUNCHED IN FOR NEW MM CODE.
002619:                                                                                                  #  IF NOT, IT RECYCLES.
002620:
002621: 41,2000                                           SETLOC   PINBALL2
002622: 41,2000                                           BANK
002623: 41,3376                                           COUNT*   $$/PIN
002624: 41,3376           03417        MMCHANG            TC       REQMM                                 #  ENTPASHI ASSUMES THE TC REQMM AT MMCHANG
002625:                                                                                                  #  IF THIS MOVES AT ALL, MUST CHANGE
002626:                                                                                                  #  MMADREF AT ENTPASHI.
002627: 41,3377           34764                 +1        CAF      BIT5                                  #  OCT20 = ND2.
002628: 41,3400           61202                           AD       DSPCOUNT                              #  DSPCOUNT MUST = -ND2.
002629: 41,3401           00006                           EXTEND                                         #  DEMAND THAT 2 NUM CHAR WERE PUNCHED IN.
002630: 41,3402           13404                           BZF      +2
002631: 41,3403           04173                           TC       ALMCYCLE                              #  DSPCOUNT NOT= -ND2. ALARM AND RECYCLE.
002632: 41,3404           34772                           CAF      ZERO                                  #  DSPCOUNT = -ND2.
002633: 41,3405           57205                           XCH      NOUNREG
002634: 41,3406           54154                           TS       MPAC
002635: 41,3407           34352                           CAF      ND1
002636: 41,3410           55202                           TS       DSPCOUNT
002637: 41,3411           04636                           TC       BANKCALL
002638: 41,3412           60473                           CADR     2BLANK
002639: 41,3413           04261                           TC       -VD1SET
002640: 41,3414           30154                           CA       MPAC
002641: 41,3415           04655                           TC       POSTJUMP
002642: 41,3416           10007                           CADR     MODROUTB                              #  GO THRU STANDARD LOC.
002643:
002644: 41,3417  04,2007               MODROUTB           =        V37
002645: 41,3417           40002        REQMM              CS       Q
002646: 41,3420           55216                           TS       REQRET
002647: 41,3421           34352                           CAF      ND1
002648: 41,3422           55202                           TS       DSPCOUNT
002649: 41,3423           34772                           CAF      ZERO
002650: 41,3424           55205                           TS       NOUNREG
002651: 41,3425           04636                           TC       BANKCALL
002652: 41,3426           60473                           CADR     2BLANK
002653: 41,3427           04360                           TC       FLASHON
002654: 41,3430           34770                           CAF      ONE
002655: 41,3431           55203                           TS       DECBRNCH                              #  SET FOR DEC
002656: 41,3432           00136                           TC       ENTEXIT
002657:
002658:                                                                                                  #  VBRQEXEC ENTERS REQUEST TO EXEC FOR ANY ADDRESS WITH ANY PRIORITY.
002659:                                                                                                  #  IT DOES ENDOFJOB AFTER ENTERING REQUEST. DISPLAY SYST IS RELEASED.
002660:                                                                                                  #  IT ASSUMES NOUN 26 HAS BEEN PRELOADED WITH
002661:                                                                                                  #        COMPONENT 1     PRIORITY (BITS 10-14) BIT1=0 FOR NOVAC, BIT1=1 FOR FINDVAC.
002662:                                                                                                  #        COMPONENT 2     JOB ADRES (12 BIT)
002663:                                                                                                  #        COMPONENT 3     BBCON
002664:


002666:
002667: 41,3433           34770        VBRQEXEC           CAF      BIT1
002668: 41,3434           71016                           MASK     N26/PRI
002669: 41,3435           10000                           CCS      A
002670: 41,3436           03460                           TC       SETVAC                                #  IF BIT1 = 1, FINDVAC
002671: 41,3437           33277                           CAF      TCNOVAC                               #  IF BIT1 = 0, NOVAC
002672: 41,3440           54154        REQEX1             TS       MPAC                                  #  TC NOVAC OR TC FINDVAC INTO MPAC
002673: 41,3441           37660                           CA       PRIO37
002674: 41,3442           71016                           MASK     N26/PRI
002675: 41,3443           54160                 -1        TS       MPAC       +4                         #  PRIO INTO MPAC+4 AS A TEMP
002676: 41,3444           04432        REQUESTC           TC       RELDSP
002677: 41,3445           31016                           CA       N26/PRI
002678: 41,3446           00006                           EXTEND
002679: 41,3447           12350                           BZF      GODSPALM                              #  OP ERROR AND EOJ IF R1 OF N26 = 0
002680: 41,3450           34170                           CA       ENDINST
002681: 41,3451           54157                           TS       MPAC       +3                         #  TC ENDOFJOB INTO MPAC+3
002682: 41,3452           00006                           EXTEND
002683: 41,3453           31020                           DCA      N26/2CAD                              #  JOB ADRES INTO MPAC+1
002684: 41,3454           52156                           DXCH     MPAC       +1                         #  BBCON INTO MPAC+2
002685: 41,3455           30160                           CA       MPAC       +4                         #  PRIO IN A
002686: 41,3456           00004                           INHINT
002687: 41,3457           00154                           TC       MPAC
002688:
002689: 41,3460           34345        SETVAC             CAF      TCFINDVC
002690: 41,3461           03440                           TC       REQEX1
002691:
002692:                                                                                                  #  VBRQWAIT ENTERS REQUEST TO WAITLIST FOR ANY ADDRESS WITH ANY DELAY.
002693:                                                                                                  #  IT DOES ENDOFJOB AFTER ENTERING REQUEST. DISPLAY SYST IS RELEASED.
002694:                                                                                                  #  IT ASSUMES NOUN 26 HAS BEEN PRELOADED WITH
002695:                                                                                                  #        COMPONENT 1     DELAY (LOW BITS)
002696:                                                                                                  #        COMPONENT 2     TASK ADRES (12 BIT)
002697:                                                                                                  #        COMPONENT 3     BBCON
002698:
002699: 41,3462           33273        VBRQWAIT           CAF      TCWAIT
002700: 41,3463           54154                           TS       MPAC                                  #  TC WAITLIST INTO MPAC
002701: 41,3464           31016                           CA       N26/PRI                               #  TIME DELAY
002702: 41,3465           03443        ENDRQWT            TC       REQUESTC   -1
002703:
002704:                                                                                                  #  REQUESTC WILL PUT TASK ADRES INTO MPAC+1, BBCON INTO MPAC+2,
002705:                                                                                                  #  TC ENDOFJOB INTO MPAC+3. IT WILL TAKE TIME DELAY OUT OF MPAC+4 AND
002706:                                                                                                  #  LEAVE IT IN A, INHINT AND TC MPAC.
002707:
002708: 40,2000                                           SETLOC   PINBALL1
002709: 40,2000                                           BANK
002710: 40,3301                                           COUNT*   $$/PIN
002711: 40,3301           44770        VBPROC             CS       ONE
002712: 40,3302           55217                 +1        TS       LOADSTAT
002713: 40,3303           04235                           TC       KILMONON                              #  TURN ON KILL MONITOR BIT
002714: 40,3304           04432                           TC       RELDSP
002715: 40,3305           04417                           TC       FLASHOFF


002717: 40,3306           03412                           TC       RECALTST                              #  SEE IF THERE IS ANY RECALL FROM ENDIDLE
002718:
002719: 40,3307           44767        VBTERM             CS       TWO
002720: 40,3310           03302                           TC       VBPROC     +1                         #  TERM VERB SETS LOADSTAT NEG
002721:
002722:                                                                                                  #  PROCKEY PERFORMS THE SAME FUNCTION AS VBPROC.  IT MUST BE CALLED UNDER
002723:                                                                                                  #  EXECUTIVE CONTROL, WITH CHRPRIO.
002724:
002725: 40,3311           41204        PROCKEY            CS       VERBREG                               #  DONT ALLOW PROCEED DURING LOAD.
002726: 40,3312           64354                           AD       VBSP2LD
002727: 40,3313           00006                           EXTEND
002728: 40,3314           26000                           DIM      A
002729: 40,3315           00006                           EXTEND
002730: 40,3316           13275                           BZF      CHARALRM
002731: 40,3317           34772        PROCKEY1           CAF      ZERO                                  #  SET REQRET FOR ENTER PASS 0.
002732: 40,3320           55216                           TS       REQRET
002733: 40,3321           04261                           TC       -VD1SET
002734: 40,3322           03301                           TC       VBPROC
002735:
002736:                                                                                                  #  VBRESEQ WAKES ENDIDLE AT SAME LINE AS FINAL ENTER OF LOAD (L+3).
002737:                                                                                                  #  (MAIN USE IS INTENDED AS RESPONSE TO INTERNALLY INITIATED FLASHING
002738:                                                                                                  #  DISPLAYS IN ENDIDLE. SHOULD NOT BE USED WITH LOAD VERBS, PLEASE PERFORM,
002739:                                                                                                  #  OR PLEASE MARK VERBS BECAUSE THEY ALREADY USE L+3 IN ANOTHER CONTEXT.)
002740:
002741: 40,3323           44772        VBRESEQ            CS       ZERO                                  #  MAKE IT LOOK LIKE DATA IN.
002742: 40,3324           03302                           TC       VBPROC     +1
002743:
002744:                                                                                                  #  FLASH IS TURNED OFF BY PROCEED WITHOUT DATA, TERMINATE, RESEQUENCE,
002745:                                                                                                  #  END OF LOAD.
002746:


002748:
002749:                                                                                                  #  KEY RELEASE ROUTINE
002750:
002751:                                                                                                  #  THIS ROUTINE ALWAYS TURNS OFF THE UPACT LIGHT AND ALWAYS CLEARS DSPLOCK.
002752:
002753:                                                                                                  #  THE HIGHEST PRIORITY FUNCTION OF THE KEY RELEASE BUTTON IS THE
002754:                                                                                                  #  UNSUSPENDING OF A SUSPENDED MONITOR WHICH WAS EXTERNALLY INITIATED.
002755:                                                                                                  #  THIS FUNCTION IS ACCOMPLISHED BY CLEARING DSPLOCK AND TURNING OFF
002756:                                                                                                  #  THE KEY RELEASE LIGHT IF BOTH DSPLIST AND CADRSTOR ARE EMPTY.
002757:
002758:                                                                                                  #  IF NO SUCH MONITOR EXISTS, THEN RELDSP IS EXECUTED TO CLEAR DSPLOCK
002759:                                                                                                  #  AND THE EXTERNAL MONITOR BIT (FREEING THE DISPLAY SYSTEM FOR INTERNAL
002760:                                                                                                  #  USE), TURN OFF THE KEY RELEASE LIGHT, AND WAKE UP ANY JOB IN DSPLIST.
002761:
002762:                                                                                                  #  IN ADDITION IF THERE IS A JOB IN ENDIDLE, THEN CONTROL IS TRANSFERRED
002763:                                                                                                  #  TO PINBRNCH (IN DISPLAY INTERFACE ROUTINE) TO RE-EXECUTE THE SERIES OF
002764:                                                                                                  #  NVSUB CALLS ETC. THAT PRECEDED THE ENDIDLE CALL STILL AWAITING RESPONSE.
002765:                                                                                                  #  THIS FEATURE IS INTENDED FOR USE WHEN THE OPERATOR HAS BEEN REQUESTED TO
002766:                                                                                                  #  RESPOND TO SOME INTERNAL ACTION THAT USED ENDIDLE, BUT HE HAS WRITTEN
002767:                                                                                                  #  OVER THE INFORMATION ON THE DISPLAY PANEL BY SOME DISPLAYS OF HIS OWN
002768:                                                                                                  #  INITIATION WHICH DO NOT SERVE AS RESPONSES. HITTING KEY RLSE WILL
002769:                                                                                                  #  RE-ESTABLISH THE DISPLAYS TO THE STATE THEY WERE IN BEFORE HE OBSCURED
002770:                                                                                                  #  THEM, SO THAT HE CAN SEE THE WAITING REQUEST.  THIS WORKS ONLY FOR
002771:                                                                                                  #  INTERNAL PROGRAMS THAT USED ENDIDLE THROUGH MARGARETS DISPLAY
002772:                                                                                                  #  SUBROUTINES.
002773:
002774: 40,3325           44766        VBRELDSP           CS       BIT3
002775: 40,3326           00006                           EXTEND
002776: 40,3327           03011                           WAND     DSALMOUT                              #  TURN OFF UPACT LITE
002777: 40,3330           10115                           CCS      21/22REG                              #  OLD DSPLOCK
002778: 40,3331           34753                           CAF      BIT14
002779: 40,3332           71224                           MASK     MONSAVE1                              #  EXTERNAL MONITOR BIT (EMB)
002780: 40,3333           10000                           CCS      A
002781: 40,3334           03343                           TC       UNSUSPEN                              #  OLD DSPLOCK AND EMB BOTH 1, UNSUSPEND.
002782: 40,3335           04432        TSTLTS4            TC       RELDSP                                #  NOT UNSUSPENDING EXTERNAL MONITOR,
002783: 40,3336           11245                           CCS      CADRSTOR                              #   RELEASE DISPLAY SYSTEM AND
002784: 40,3337           03341                           TC       +2                                    #   DO RE-ESTABLISH IF CADRSTOR IS FULL.
002785: 40,3340           05205                           TC       ENDOFJOB
002786: 40,3341           04655                           TC       POSTJUMP
002787: 40,3342           21275                           CADR     PINBRNCH
002788: 40,3343           34772        UNSUSPEN           CAF      ZERO                                  #  EXTERNAL MONITOR IS SUSPENDED,
002789: 40,3344           55215                           TS       DSPLOCK                               #   JUST UNSUSPEND IT BY CLEARING DSPLOCK.
002790: 40,3345           11245                           CCS      CADRSTOR                              #   TURN KEY RELEASE LIGHT OFF IF BOTH
002791: 40,3346           05205                           TC       ENDOFJOB                              #   CADRSTOR AND DSPLIST ARE EMPTY.
002792: 40,3347           04455                           TC       RELDSP1
002793: 40,3350           05205                           TC       ENDOFJOB
002794:


002796:
002797:                                                                                                  #  NVSUB IS USED FOR SUB ROUTINE CALLS FROM WITHIN COMPUTER. IT CAN BE
002798:                                                                                                  #  USED TO CALL THE COMBINATION OF ANY DISPLAY, LOAD, OR MONITOR VERB
002799:                                                                                                  #  TOGETHER WITH ANY NOUN AVAILABLE TO THE KEYBOARD.
002800:                                                                                                  #  PLACE 0VVVVVVVNNNNNNN INTO A.
002801:                                                                                                  #  V-S ARE THE 7 BIT VERB CODE.  N-S ARE THE 7 BIT NOUN CODE.
002802:
002803:                                                                                                  #  IF NVSUB IS CALLED WITH THE FOLLOWING NEGATIVE NUMBERS (RATHER THAN THE
002804:                                                                                                  #  VERB-NOUN CODE) IN A, THEN THE DISPLAY IS BLANKED AS FOLLOWS-
002805:                                                                                                  #  -4 FULL BLANK, -3 LEAVE MODE, -2 LEAVE MODE AND VERB, -1 BLANK R-S ONLY
002806:
002807:                                                                                                  #  NVSUB CAN BE USED WITH MACH CADR TO BE SPEC BY PLACING THE CADR INTO
002808:                                                                                                  #  MPAC+2 BEFORE THE STANDARD NVSUB CALL.
002809:
002810:                                                                                                  #  NVSUB RETURNS TO 2+ CALLING LOC AFTER PERFORMING TASK, IF DISPLAY
002811:                                                                                                  #  SYSTEM IS AVAILABLE. THE NEW NOUN AND VERB CODES ARE DISPLAYED.
002812:                                                                                                  #  IF V:S =0, THE NEW NOUN CODE IS DISPLAYED ONLY (RETURN WITH NO FURTHER
002813:                                                                                                  #  ACTION). IF N-S =0, THE NEW VERB CODE IS DISPLAYED ONLY (RETURN WITH NO
002814:                                                                                                  #  FURTHER ACTION).
002815:
002816:                                                                                                  #  IT RETURNS TO 1+ CALLING LOC WITHOUT PERFORMING TASK, IF DISPLAY
002817:                                                                                                  #  SYSTEM IS BLOCKED (NOTHING IS DISPLAYED IN THIS CASE).
002818:                                                                                                  #  IT DOES TC ABORT (WITH OCT 01501) IF IT ENCOUNTERS A DISPLAY PROGRAM
002819:                                                                                                  #  ALARM CONDITION BEFORE RETURN TO CALLER.
002820:
002821:                                                                                                  #  THE DISPLAY SYSTEM IS BLOCKED BY THE DEPRESSION OF ANY
002822:                                                                                                  #  KEY, EXCEPT ERROR LIGHT RESET
002823:                                                                                                  #  IT IS RELEASED BY THE KEY RELEASE BUTTON, ALL EXTENDED VERBS,
002824:                                                                                                  #  PROCEED WITHOUT DATA, TERMINATE, RESEQUENCE, INITIALIZE EXECUTIVE,
002825:                                                                                                  #  RECALL PART OF RECALTST IF ENDIDLE WAS USED,
002826:                                                                                                  #  VB = REQUEST EXECUTIVE, VB = REQUEST WAITLIST,
002827:                                                                                                  #  MONITOR SET UP.
002828:
002829:                                                                                                  #  THE DISPLAY SYSTEM IS ALSO BLOCKED BY THE EXTERNAL MONITOR BIT, WHICH
002830:                                                                                                  #  INDICATES AN EXTERNALLY INITIATED MONITOR IS RUNNING (SEE MONITOR)
002831:
002832:                                                                                                  #  A NVSUB CALL THAT PASSES DSPLOCK AND THE EXTERNAL MONITOR BIT ENDS OLD
002833:                                                                                                  #  MONITOR.
002834:
002835:                                                                                                  #  DSPLOCK IS THE INTERLOCK FOR USE OF KEYBOARD AND DISPLAY SYSTEM WHICH
002836:                                                                                                  #  LOCKS OUT INTERNAL USE WHENEVER THERE IS EXTERNAL KEYBOARD ACTION.
002837:
002838:                                                                                                  #  NVSUB SHOULD BE USED TWICE IN SUCCESSION FOR :PLEASE PERFORM: SITUATIONS
002839:                                                                                                  #  (SIMILARLY FOR PLEASE MARK). FIRST PLACE THE CODED NUMBER FOR WHAT
002840:                                                                                                  #  ACTION IS DESIRED OF OPERATOR INTO THE REGISTERS REFERRED TO BY THE
002841:                                                                                                  #  :CHECKLIST: NOUN. GO TO NVSUB WITH A DISPLAY VERB AND THE :CHECKLIST:
002842:                                                                                                  #  NOUN. GO TO NVSUB AGAIN WITH THE :PLEASE PERFORM: VERB AND ZEROS IN THE
002843:                                                                                                  #  LOW 7 BITS. THIS :PASTES UP: THE :PLEASE PERFORM: VERB INTO THE VERB
002844:                                                                                                  #  LIGHTS.
002845:
002846:                                                                                                  #  NVMONOPT IS AN ENTRY SIMILAR TO NVSUB, BUT REQUIRING AN ADDITIONAL


002848:                                                                                                  #  PARAMETER IN L. IT SHOULD BE USED ONLY WITH A MONITOR VERB-NOUN CODE IN
002849:                                                                                                  #  A. AFTER EACH MONITOR DISPLAY A *PLEASE* VERB WILL BE PASTED IN THE VERB
002850:                                                                                                  #  LIGHTS OR DATA WILL BE BLANKED (OR BOTH) ACCORDING TO THE OPTIONS
002851:                                                                                                  #  SPECIFIED IN L. IF BITS 8-14 OF L ARE OTHER THAN ZERO, THEN THEY WILL
002852:                                                                                                  #  BE INTERPRETED AS A VERB CODE AND PASTED IN THE VERB LIGHTS. (THIS VERB
002853:                                                                                                  #  CODE SHOULD DESIGNATE ONE OF THE *PLEASE* VERBS.) IF BITS 1-3 OF L ARE
002854:                                                                                                  #  OTHER THAN ZERO, THEN THEY WILL BE USED TO BLANK DATA BY BEING FED TO
002855:                                                                                                  #  BLANKSUB. IF NVMONOPT IS USED WITH A VERB OTHER THAN A MONITOR VERB,
002856:                                                                                                  #  THE PARAMETER IN L HAS NO EFFECT.
002857:
002858:                                                                                                  #  NVSUB IN FIXED-FIXED PLACES 2+CALLING LOC INTO NVQTEM, TC NVSUBEND INTO
002859:                                                                                                  #  ENTRET. (THIS WILL RESTORE OLD CALLING BANK BITS)
002860:
002861:    4000                                           SETLOC   FFTAG8
002862:    4000                                           BANK
002863:    4202                                           COUNT*   $$/PIN
002864:    4202           22007        NVSUB              LXCH     7                                     #  ZERO NVMONOPT OPTIONS
002865:    4203           54123        NVMONOPT           TS       NVTEMP
002866:    4204           23242                           LXCH     NVQTEM
002867:    4205           22002                           LXCH     Q
002868:    4206           04226                           TC       EMBDSPCK                              #  CHECK FOR DSP SYST AVAILABLE
002869:    4207           23242                           LXCH     NVQTEM                                #  2+ CALLING LOC INTO NVQTEM
002870:    4210           23225                           LXCH     MONSAVE2                              #  STORE NVMONOPT OPTIONS
002871:    4211           04235                           TC       KILMONON                              #  TURN ON KILL MONITOR BIT
002872:    4212           34223        NVSUBCOM           CAF      NVSBBBNK
002873:
002874:    4213           56006                           XCH      BBANK
002875:    4214           00006                           EXTEND                                         #  SAVE OLD SUPERBITS
002876:    4215           04007                           ROR      SUPERBNK
002877:    4216           55243                           TS       NVBNKTEM
002878:    4217           34223                           CAF      PINSUPBT
002879:    4220           00006                           EXTEND
002880:    4221           01007                           WRITE    SUPERBNK
002881:    4222           03513                           TC       NVSUBB                                #  GO TO NVSUB1 THRU STANDARD LOC
002882:    4223     1202                                  EBANK=   DSPCOUNT
002883:    4223           62102        NVSBBBNK           BBCON    NVSUB1
002884:
002885:    4224     4223               PINSUPBT           =        NVSBBBNK                              #  CONTAINS THE PINBALL SUPERBITS.
002886:
002887:    4224           53243        NVSUBEND           DXCH     NVQTEM                                #  NVBNKTEM MUST = NVQTEM+1
002888:    4225           05214                           TC       SUPDXCHZ                              #  DTCB WITH SUPERBIT SWITCHING
002889:
002890:    4226           34753        EMBDSPCK           CAF      BIT14
002891:    4227           71224                           MASK     MONSAVE1                              #  EXTERNAL MONITOR BIT
002892:    4230           61215                           AD       DSPLOCK
002893:    4231           10000                           CCS      A
002894:    4232           00001                           TC       L                                     #  DSP SYST BLOCKED. RET TO 1+ CALLING LOC
002895:    4233           24001                           INCR     L                                     #  DSP SYST OK. SET RET TO 2+ CALLING LOC
002896:    4234           00002                           TC       Q
002897: 41,2000                                           SETLOC   PINBALL2


002899:
002900: 41,2000                                           COUNT*   $$/PIN
002901: 41,2000                                           BANK
002902:
002903:                                                                                                  #  BLANKDSP BLANKS DISPLAY ACCORDING TO OPTION NUMBER IN NVTEMP AS FOLLOWS
002904:                                                                                                  #  -4 FULL BLANK, -3 LEAVE MODE, -2 LEAVE MODE AND VERB, -1 BLANK R-S ONLY
002905:
002906: 41,3466           64774        BLANKDSP           AD       SEVEN                                 #  7,8,9,OR 10 (A HAD 0,1,2,OR 3)
002907: 41,3467           00004                           INHINT
002908: 41,3470           54124                 +2        TS       CODE                                  #  BLANK SPECIFIED DSPTABS
002909: 41,3471           44755                           CS       BIT12
002910: 41,3472           50124                           INDEX    CODE
002911: 41,3473           57226                           XCH      DSPTAB
002912: 41,3474           10000                           CCS      A
002913: 41,3475           25221                           INCR     NOUT
002914: 41,3476           03477                           TC       +1
002915: 41,3477           10124                           CCS      CODE
002916: 41,3500           03470                           TC       BLANKDSP   +2
002917: 41,3501           00003                           RELINT
002918: 41,3502           50123                           INDEX    NVTEMP
002919: 41,3503           03510                           TC       +5
002920: 41,3504           03505                           TC       +1                                    #  NVTEMP HAS -4 (NEVER TOUCH MODREG)
002921: 41,3505           55204                           TS       VERBREG                               #             -3
002922: 41,3506           55205                           TS       NOUNREG                               #             -2
002923: 41,3507           55220                           TS       CLPASS                                #             -1
002924: 41,3510           04261                           TC       -VD1SET
002925: 41,3511           04417                           TC       FLASHOFF                              #  PROTECT AGAINST INVISIBLE FLASH
002926: 41,3512           03534                           TC       ENTSET     -2                         #  ZEROS REQRET
002927:
002928: 41,3513           33536        NVSUB1             CAF      ENTSET                                #  IN BANK
002929: 41,3514           54136                           TS       ENTRET                                #  SET RETURN TO NVSUBEND
002930: 41,3515           10123                           CCS      NVTEMP                                #  WHAT NOW
002931: 41,3516           03522                           TC       +4                                    #  NORMAL NVSUB CALL (EXECUTE VN OR PASTE)
002932: 41,3517           02350                           TC       GODSPALM
002933: 41,3520           03466                           TC       BLANKDSP                              #  BLANK DISPLAY AS SPECIFIED
002934: 41,3521           02350                           TC       GODSPALM
002935: 41,3522           36043                           CAF      LOW7
002936: 41,3523           70123                           MASK     NVTEMP
002937: 41,3524           54157                           TS       MPAC       +3                         #  TEMP FOR NOUN (CANT USE MPAC. DSPDECVN
002938: 41,3525           30123                           CA       NVTEMP                                #                 USES MPAC, +1, +2
002939: 41,3526           54023                           TS       EDOP                                  #  RIGHT 7
002940: 41,3527           30023                           CA       EDOP
002941: 41,3530           54160                           TS       MPAC       +4                         #  TEMP FOR VERB (CANT USE MPAC+1. DSPDECVN
002942:                                                                                                  #                 USES MPAC, +1, +2).
002943: 41,3531           10157                           CCS      MPAC       +3                         #  TEST NOUN
002944: 41,3532           03537                           TC       NVSUB2                                #  IF NOUN NOT +0, GO ON
002945: 41,3533           02335                           TC       UPDATVB    -2                         #  IF NOUN=+0, DISPLAY VERB, THEN RETURN
002946: 41,3534           34772                 -2        CAF      ZERO                                  #  ZERO REQRET SO THAT PASTED VERBS CAN
002947: 41,3535           55216                           TS       REQRET                                #  BE EXECUTED BY OPERATOR.
002948: 41,3536           04224        ENTSET             TC       NVSUBEND
002949: 41,3537           10160        NVSUB2             CCS      MPAC       +4                         #  TEST VERB
002950: 41,3540           13543                           TCF      +3                                    #  IF VERB NOT +0, GO ON


002952: 41,3541           02314                           TC       UPDATNN    -2                         #  IF VERB=+0, DISPLAY NOUN. THEN RETURN
002953: 41,3542           04224                           TC       NVSUBEND
002954: 41,3543           30156                           CA       MPAC       +2                         #  TEMP FOR MACH CADR TO BE SPEC. (DSPDECVN
002955: 41,3544           54161                           TS       MPAC       +5                         #        USES MPAC, +1, +2)
002956: 41,3545           02335                           TC       UPDATVB    -2                         #  IF BOTH NOUN AND VERB NOT +0, DISPLAY
002957: 41,3546           02314                           TC       UPDATNN    -2                         #  BOTH AND GO TO ENTPAS0.
002958: 41,3547           34772                           CAF      ZERO
002959: 41,3550           55217                           TS       LOADSTAT                              #  SET FOR WAITING FOR DATA CONDITION
002960: 41,3551           55220                           TS       CLPASS
002961: 41,3552           55216                           TS       REQRET                                #  SET REQRET FOR PASS 0.
002962: 41,3553           30161                           CA       MPAC       +5                         #  RESTORES MACH CADR TO BE SPEC TO MPAC+2
002963: 41,3554           54156                           TS       MPAC       +2                         #  FOR USE IN INTMCTBS (IN ENTPAS0).
002964: 41,3555           02040        ENDNVSB1           TC       ENTPAS0
002965:
002966:                                                                                                  #  IF INTERNAL MACH CADR TO BE SPECIFIED, MPAC+2 WILL BE PLACED INTO
002967:                                                                                                  #  NOUNCADR IN ENTPAS0 (INTMCTBS).
002968:
002969:    4000                                           SETLOC   FFTAG8
002970:    4000                                           BANK
002971:    4235                                           COUNT*   $$/PIN
002972:                                                                                                  #  FORCE BIT 15 OF MONSAVE1 TO 1.
002973:    4235           34752        KILMONON           CAF      BIT15                                 #     THIS IS THE KILL MONITOR BIT.
002974:    4236           55224                           TS       MONSAVE1                              #  TURN OFF BIT 14, THE EXTERNAL
002975:                                                                                                  #   MONITOR BIT.
002976:    4237           00002                           TC       Q
002977:
002978:                                                                                                  #  LOADSTAT      +0      INACTIVE (WAITING FOR DATA). SET BY NVSUB
002979:                                                                                                  #                +1      PROCEED NO DATA SET BY V33 OR PROCEED
002980:                                                                                                  #                -1      TERMINATE SET BY V34
002981:                                                                                                  #                -0        DATA IN       SET BY END OF LOAD ROUTINE
002982:                                                                                                  #                        OR RESEQUENCE   SET BY VERB 32
002983:
002984:                                                                                                  #  L TC ENDIDLE (FIXED FIXED)
002985:                                                                                                  #  ROUTINES THAT REQUEST LOADS THROUGH NVSUB SHOULD USE ENDIDLE WHILE
002986:                                                                                                  #  WAITING FOR THE DATA TO BE LOADED. ENDIDLE PUTS CURRENT JOB TO SLEEP.
002987:                                                                                                  #  ENDIDLE CANNOT BE CALLED FROM ERASABLE OR F/F MEMORY,
002988:                                                                                                  #  SINCE JOBSLEEP AND JOBWAKE CAN HANDLE ONLY FIXED BANKS.
002989:                                                                                                  #  RECALTST TESTS LOADSTAT AND WAKES JOB UP TO,
002990:                                                                                                  #  L+1 FOR TERMINATE, PROCEED WITHOUT DATA, DATA IN, OR RESEQUENCE
002991:                                                                                                  #  IT DOES NOTHING IF LOADSTAT INDICATES WAITING FOR DATA.
002992:
002993:                                                                                                  #  ENDIDLE ABORTS (WITH CODE 21206) IF A SECOND JOB ATTEMPTS TO GO TO SLEEP
002994:                                                                                                  #  IN PINBALL. IN PARTICULAR, IF AN ATTEMPT IS MADE TO GO TO ENDIDLE WHEN
002995:                                                                                                  #  1) CADRSTOR NOT= +0.  THIS IS THE CASE WHERE THE CAPACITY OF ENDIDLE IS
002996:                                                                                                  #  EXCEEDED. (+-NZ INDICATE A JOB IS ALREADY ASLEEP DUE TO ENDIDLE.)


002998:                                                                                                  #  2) DSPLIST NOT= +0. THIS INDICATES A JOB IS ALREADY ASLEEP DUE TO
002999:                                                                                                  #  NVSUBUSY.
003000:
003001:                                                                                                  #  ENDIDLE MOVED TO DISPLAY INTERFACE ROUTINES
003002:
003003:    4240           11245        ISCADR+0           CCS      CADRSTOR                              #  ABORTS (CODE 01206) IF CADRSTOR NOT= +0.
003004:    4241           04245                           TC       DSPABORT                              #  RETURNS IF CADRSTOR = +0.
003005:    4242           11246                           CCS      DSPLIST                               #  ABORT (CODE 01206) IF DSPLIST NOT = +0.
003006:    4243           04245                           TC       DSPABORT
003007:    4244           00002                           TC       Q
003008:    4245           05726        DSPABORT           TC       POODOO
003009:    4246           21206                           OCT      21206                                 #  SECOND JOB TRYING TO GO TO SLEEP
003010:
003011:                                                                                                  #  JAMTERM ALLOWS PROGRAMS TO PERFORM THE TERMINATE FUNCTION.
003012:                                                                                                  #  IT DOES ENDOFJOB.
003013:
003014:    4247           34223        JAMTERM            CAF      PINSUPBT
003015:    4250           00006                           EXTEND
003016:    4251           01007                           WRITE    SUPERBNK
003017:    4252           34260                           CAF      34DEC
003018:    4253           55216                           TS       REQRET                                #  LEAVE ENTER SET FOR ENTPASS0.
003019:    4254           55204                           TS       VERBREG
003020:    4255           04261                           TC       -VD1SET
003021:    4256           04655                           TC       POSTJUMP
003022:    4257           61307                           CADR     VBTERM
003023:
003024:    4260           00042        34DEC              DEC      34         B-14
003025:
003026:    4261           44351        -VD1SET            CS       VD1
003027:    4262           55202                           TS       DSPCOUNT
003028:    4263           00002                           TC       Q
003029:
003030:                                                                                                  #  BLANKSUB BLANKS ANY COMBINATION OF R1, R2, R3.
003031:                                                                                                  #  CALL WITH BLANKING CODE IN A.
003032:                                                                                                  #  BIT1=1 BLANKS R1, BIT2=1 BLANKS R2, BIT3=1 BLANKS R3.
003033:                                                                                                  #  ANY COMBINATION OF THESE BITS IS ACCEPTED.
003034:
003035:                                                                                                  #  DSPCOUNT IS RESTORED TO STATE IT WAS IN BEFORE BLANKSUB WAS EXECUTED.
003036:
003037:    4264           74774        BLANKSUB           MASK     SEVEN
003038:    4265           54123                           TS       NVTEMP                                #  STORE BLANKING CODE IN NVTEMP.
003039:    4266           22002                           LXCH     Q
003040:    4267           04226                           TC       EMBDSPCK                              #  CHECK FOR DSP SYST AVAILABLE
003041:    4270           10123                           CCS      NVTEMP
003042:    4271           14273                           TCF      +2
003043:    4272           00001                           TC       L                                     #  NOTHING TO BLANK. RET TO 2+ CALLING LOC
003044:    4273           34304                           CAF      BLNKBBNK
003045:    4274           56006                           XCH      BBANK
003046:    4275           00006                           EXTEND
003047:    4276           04007                           ROR      SUPERBNK                              #  SAVE OLD SUPERBITS.
003048:    4277           52131                           DXCH     BUF


003050:    4300           34223                           CAF      PINSUPBT
003051:    4301           00006                           EXTEND
003052:    4302           01007                           WRITE    SUPERBNK
003053:    4303           03351                           TC       BLNKSUB1
003054:
003055:    4304     1202                                  EBANK=   DSPCOUNT
003056:    4304           60102        BLNKBBNK           BBCON    BLNKSUB1
003057:    4305                        ENDBLFF            EQUALS
003058:
003059: 40,2000                                           SETLOC   PINBALL1
003060: 40,2000                                           BANK
003061: 40,3351                                           COUNT*   $$/PIN
003062: 40,3351           31202        BLNKSUB1           CA       DSPCOUNT                              #  SAVE OLD DSPCOUNT FOR LATER RESTORATION
003063: 40,3352           54132                           TS       BUF        +2
003064: 40,3353           34770                           CAF      BIT1                                  #  TEST BIT1. SEE IF R1 TO BE BLANKED.
003065: 40,3354           03373                           TC       TESTBIT
003066: 40,3355           34321                           CAF      R1D1
003067: 40,3356           02430                           TC       5BLANK     -1
003068: 40,3357           34767                           CAF      BIT2                                  #  TEST BIT 2. SEE IF R2 TO BE BLANKED.
003069: 40,3360           03373                           TC       TESTBIT
003070: 40,3361           34322                           CAF      R2D1
003071: 40,3362           02430                           TC       5BLANK     -1
003072: 40,3363           34766                           CAF      BIT3                                  #  TEST BIT3. SEE IF R3 TO BE BLANKED.
003073: 40,3364           03373                           TC       TESTBIT
003074: 40,3365           34323                           CAF      R3D1
003075: 40,3366           02430                           TC       5BLANK     -1
003076: 40,3367           30132                           CA       BUF        +2                         #  RESTORE DSPCOUNT TO STATE IT HAD
003077: 40,3370           55202                           TS       DSPCOUNT                              #        BEFORE BLANKSUB.
003078: 40,3371           52131                           DXCH     BUF                                   #  CALL L+2 DIRECTLY.
003079: 40,3372           05215                           TC       SUPDXCHZ   +1                         #  DTCB WITH SUPERBIT SWITCHING
003080:
003081: 40,3373           70123        TESTBIT            MASK     NVTEMP                                #  NVTEMP CONTAINS BLANKING CODE.
003082: 40,3374           10000                           CCS      A
003083: 40,3375           00002                           TC       Q                                     #  IF CURRENT BIT = 1, RETURN TO L+1.
003084: 40,3376           16710                           TCF      Q+2                                   #  IF CURRENT BIT = 0, RETURN TO L+3
003085: 40,3377           34353        DSPMMJB            CAF      MD1                                   #  GETS HERE THRU DSPMM
003086: 40,3400           57202                           XCH      DSPCOUNT
003087: 40,3401           54140                           TS       DSPMMTEM                              #  SAVE DSPCOUNT
003088: 40,3402           11214                           CCS      MODREG
003089: 40,3403           64770                           AD       ONE
003090: 40,3404           03146                           TC       DSPDECVN                              #  IF MODREG IS + OR +0, DISPLAY MODREG
003091: 40,3405           03407                           TC       +2                                    #  IF MODREG IS -NZ, DO NOTHING
003092: 40,3406           02473                           TC       2BLANK                                #  IF MODREG IS -0, BLANK MM
003093: 40,3407           56140                           XCH      DSPMMTEM                              #  RESTORE DSPCOUNT
003094: 40,3410           55202                           TS       DSPCOUNT
003095: 40,3411           05205                           TC       ENDOFJOB
003096:
003097:                                                                                                  #  RECALTST IS ENTERED DIRECTLY AFTER DATA IS LOADED (OR RESEQUENCE VERB IS
003098:                                                                                                  #  EXECUTED), TERMINATE VERB IS EXECUTED, OR PROCEED WITHOUT DATA VERB IS


003100:                                                                                                  #  EXECUTED.  IT WAKES UP JOB THAT DID TC ENDIDLE.
003101:
003102:                                                                                                  #  IF CADRSTOR NOT= +0, IT PUTS +0 INTO DSPLOCK, AND TURNS OFF KEY RLSE
003103:                                                                                                  #  LIGHT IF DSPLIST IS EMPTY (LEAVES KEY RLSE LIGHT ALONE IF NOT EMPTY).
003104:
003105: 40,3412           11245        RECALTST           CCS      CADRSTOR
003106: 40,3413           03415                           TC       RECAL1
003107: 40,3414           05205                           TC       ENDOFJOB                              #  NORMAL EXIT IF KEYBOARD INITIATED
003108: 40,3415           34772        RECAL1             CAF      ZERO
003109: 40,3416           57245                           XCH      CADRSTOR
003110: 40,3417           00004                           INHINT
003111: 40,3420           05167                           TC       JOBWAKE
003112: 40,3421           31205                           CA       NOUNREG                               #  SAVE VERB IN MPAC, NOUN IN MPAC+1 AT
003113: 40,3422           54001                           TS       L                                     #  TIME OF RESPONSE TO ENDIDLE FOR
003114: 40,3423           31204                           CA       VERBREG                               #  POSSIBLE LATER TESTING BY JOB THAT HAS
003115: 40,3424           50064                           INDEX    LOCCTR                                #  BEEN WAKED UP.
003116: 40,3425           52155                           DXCH     MPAC
003117: 40,3426           00003                           RELINT
003118: 40,3427           04432        RECAL3             TC       RELDSP
003119: 40,3430           05205                           TC       ENDOFJOB
003120:
003121: 40,3431           04224        NVSBENDL           TC       NVSUBEND
003122: 40,3432  30,2000                                  SBANK=   LOWSUPER
003123:


003125:
003126:                                                                                                  #  MISCELLANEOUS SERVICE ROUTINES IN FIXED/FIXED
003127:
003128:    4000                                           SETLOC   FFTAG8
003129:    4000                                           BANK
003130:    4305                                           COUNT*   $$/PIN
003131:
003132:                                                                                                  #  SETNCADR      E CADR ARRIVES IN A. IT IS STORED IN NOUNCADR. EBANK BITS
003133:                                                                                                  #                ARE SET. E ADRES IS DERIVED AND PUT INTO NOUNADD.
003134:
003135:    4305           55222        SETNCADR           TS       NOUNCADR                              #  STORE ECADR
003136:    4306           54003                 +1        TS       EBANK                                 #  SET EBANK BITS
003137:    4307           74350                           MASK     LOW8
003138:    4310           65024                           AD       OCT1400
003139:    4311           54145                           TS       NOUNADD                               #  PUT E ADRES INTO NOUNADD
003140:    4312           00002                           TC       Q
003141:
003142:                                                                                                  #  SETNADD       GETS E CADR FROM NOUNCADR, SETS EBANK BITS, DERIVES
003143:                                                                                                  #                E ADRES AND PUTS IT INTO NOUNADD.
003144:
003145:    4313           31222        SETNADD            CA       NOUNCADR
003146:    4314           14306                           TCF      SETNCADR   +1
003147:
003148:                                                                                                  #  SETEBANK      E CADR ARRIVES IN A. EBANK BITS ARE SET. E ADRES IS
003149:                                                                                                  #                DERIVED AND LEFT IN A.
003150:
003151:    4315           54003        SETEBANK           TS       EBANK                                 #  SET EBANK BITS
003152:    4316           74350                           MASK     LOW8
003153:    4317           65024                           AD       OCT1400                               #  E ADRES LEFT IN A
003154:    4320           00002                           TC       Q
003155:
003156:    4321           00016        R1D1               OCT      16                                    #  THESE 3 CONSTANTS FORM A PACKED TABLE.
003157:    4322           00011        R2D1               OCT      11                                    #  DONT SEPARATE.
003158:    4323           00004        R3D1               OCT      4
003159:
003160:    4324           54020        RIGHT5             TS       CYR
003161:    4325           40020                           CS       CYR
003162:    4326           40020                           CS       CYR
003163:    4327           40020                           CS       CYR
003164:    4330           40020                           CS       CYR
003165:    4331           56020                           XCH      CYR
003166:    4332           00002                           TC       Q
003167:
003168:    4333           54022        LEFT5              TS       CYL
003169:    4334           40022                           CS       CYL
003170:    4335           40022                           CS       CYL
003171:    4336           40022                           CS       CYL
003172:    4337           40022                           CS       CYL


003174:    4340           56022                           XCH      CYL
003175:    4341           00002                           TC       Q
003176:
003177:    4342           00037        LOW5               OCT      37                                    #  THESE 3 CONSTANTS FORM A PACKED TABLE.
003178:    4343           01740        MID5               OCT      1740                                  #  DONT SEPARATE.
003179:    4344           76000        HI5                OCT      76000                                 #  MUST STAY HERE
003180:
003181:    4345     5313               TCTSKOVR           EQUALS   TSKOVCDR
003182:    4345           05135        TCFINDVC           TC       FINDVAC
003183:
003184:    4346           30000        CHRPRIO            OCT      30000                                 #  EXEC PRIORITY OF CHARIN
003185:
003186:    4347           03777        LOW11              OCT      3777
003187:    4350           00377        LOW8               OCT      377
003188:
003189:    4351           00023        VD1                OCT      23                                    #  THESE 3 CONSTANTS FORM A PACKED TABLE.
003190:    4352           00021        ND1                OCT      21                                    #  DONT SEPARATE.
003191:    4353           00025        MD1                OCT      25
003192:
003193:    4354     4353               VBSP1LD            EQUALS   MD1                                   #  VB21 = ALOAD
003194:    4354           00026        VBSP2LD            DEC      22         B-14                       #  VB22 = BLOAD
003195:    4355     4615               VBSP3LD            EQUALS   DEC23                                 #  VB23 = CLOAD
003196:    4355           00012        BINCON             DEC      10         B-14
003197:
003198:    4356           34764        RELDSPON           CAF      BIT5
003199:    4357           14363                           TCF      +4
003200:    4360           34763        FLASHON            CAF      BIT6
003201:    4361           14363                           TCF      +2
003202:    4362           34762        FALTON             CA       BIT7                                  #  TURN ON OPERATOR ERROR LIGHT
003203:    4363           00006                           EXTEND
003204:    4364           05011                           WOR      DSALMOUT                              #  BIT 7 OF CHANNEL 11
003205:    4365           00002                           TC       Q
003206:
003207:    4366           00006        LODSAMPT           EXTEND
003208:    4367           30025                           DCA      TIME2
003209:    4370           52014                           DXCH     SAMPTIME
003210:    4371           00002                           TC       Q
003211:
003212:    4372           00006        TPSL1              EXTEND                                         #  SHIFTS MPAC, +1, +2 LEFT 1
003213:    4373           30156                           DCA      MPAC       +1                         #  LEAVES OVFIND SET TO +/- 1 FOR OF/UF
003214:    4374           20156                           DAS      MPAC       +1
003215:    4375           60154                           AD       MPAC
003216:    4376           26154                 +4        ADS      MPAC
003217:    4377           54007                           TS       7                                     #  TS A DOES NOT CHANGE A ON OF/UF.
003218:    4400           00002                           TC       Q                                     #  NO NET OF/UF
003219:    4401           54162                           TS       MPAC+6                                #  MPAC +6 SET TO +/-1 FOR OF/UF


003221:    4402           00002                           TC       Q
003222:
003223:                                                                                                  #  IF MPAC, +1 ARE EACH +NZ OR +0 AND C(A)=-0, SHORTMP WRONGLY GIVES +0.
003224:                                                                                                  #  IF MPAC, +1 ARE EACH -NZ OR -0 AND C(A)=+0, SHORTMP WRONGLY GIVES +0.
003225:                                                                                                  #  PRSHRTMP FIXES FIRST CASE ONLY, BY MERELY TESTING C(A) AND IF IT = -0,
003226:                                                                                                  #  SETTING RESULT TO -0.
003227:                                                                                                  #   (DO NOT USE PRSHRTMP UNLESS MPAC, +1 ARE EACH +NZ OR +0, AS THEY ARE
003228:                                                                                                  #   WHEN THEY CONTAIN THE SF CONSTANTS.)
003229:
003230:    4403           54135        PRSHRTMP           TS       MPTEMP
003231:    4404           10000                           CCS      A
003232:    4405           30135                           CA       MPTEMP                                #  C(A) +,  DO REGULAR SHORTMP
003233:    4406           17257                           TCF      SHORTMP    +1                         #  C(A) +0, DO REGULAR SHORTMP
003234:    4407           14405                           TCF      -2                                    #  C(A) -,  DO REGULAR SHORTMP
003235:    4410           44772                           CS       ZERO                                  #  C(A) -0, FORCE RESULT TO -0 AND RETURN.
003236:    4411           54154                           TS       MPAC
003237:    4412           54155                           TS       MPAC       +1
003238:    4413           54156                           TS       MPAC       +2
003239:    4414           00002                           TC       Q
003240:
003241:    4415           44766        UPACTOFF           CS       BIT3                                  #  TURN OFF UPLINK ACTIVITY
003242:    4416           14420                           TCF      +2
003243:
003244:    4417           44763        FLASHOFF           CS       BIT6                                  #  TURN OFF V/N FLASH
003245:    4420           00006                           EXTEND
003246:    4421           03011                           WAND     DSALMOUT                              #  BIT 6 OF CHANNEL 11
003247:    4422           00002                           TC       Q
003248:
003249:    4423           50000        CODSTOR            INDEX    A
003250:    4424           34063                           CAF      RELTAB
003251:    4425           74342                           MASK     LOW5
003252:    4426           54124                           TS       CODE
003253:    4427           31202                           CA       DSPCOUNT
003254:    4430           54143                           TS       COUNT
003255:    4431           00002                           TC       Q
003256:


003258:                                                                                                  #  INTERNAL USE OF KEYBOARD AND DISPLAY PROGRAM
003259:
003260:                                                                                                  #  USER MUST SCHEDULE CALLS TO NVSUB SO THAT THERE IS NO CONFLICT OF USE OR
003261:                                                                                                  #  CONFUSION TO OPERATOR. THE OLD GRABLOCK (INTERNAL/INTERNAL INTERLOCK)
003262:                                                                                                  #  HAS BEEN REMOVED AND THE INTERNAL USER NO LONGER HAS THE PROTECTION THIS
003263:                                                                                                  #  OFFERED.
003264:
003265:                                                                                                  #  THERE ARE TWO WAYS A JOB CAN BE PUT TO SLEEP BY THE KEYBOARD + DISPLAY
003266:                                                                                                  #  PROGRAM.      1) BY ENDIDLE
003267:                                                                                                  #                2) BY NVSUBUSY
003268:                                                                                                  #  THE BASIC CONVENTION IS THAT ONLY ONE JOB WILL BE PERMITTED ASLEEP VIA
003269:                                                                                                  #  THE KEYBOARD + DISPLAY PROGRAM AT A TIME. IF A JOB ATTEMPTS TO GO TO
003270:                                                                                                  #  SLEEP BY MEANS OF (1) OR (2) AND THERE IS ALREADY AJOB ASLEEP THAT WAS
003271:                                                                                                  #  PUT TO SLEEP BY (1) OR (2), THEN AN ABORT IS CAUSED.
003272:
003273:                                                                                                  #  THE CALLING SEQUENCE FOR NVSUB IS
003274:                                                                                                  #                CAF     V/N
003275:                                                                                                  #        L       TC      NVSUB
003276:                                                                                                  #        L+1     RETURN HERE IF OPERATOR HAS INTERVENED
003277:                                                                                                  #        L+2     RETURN HERE AFTER EXECUTION
003278:
003279:                                                                                                  #  A ROUTINE CALLED NVSUBUSY IS PROVIDED (USE IS OPTIONAL) TO PUT
003280:                                                                                                  #  YOUR JOB TO SLEEP UNTIL THE OPERATOR RELEASES THE KEYBOARD + DISPLAY
003281:                                                                                                  #  SYSTEM. NVSUBUSY ALSO TURNS ON THE KEY RELEASE LIGHT.
003282:                                                                                                  #  NVSUBUSY CANNOT BE CALLED FROM ERASABLE OR F/F MEMORY,
003283:                                                                                                  #  SINCE JOBSLEEP AND JOBWAKE CAN HANDLE ONLY FIXED BANKS.
003284:
003285:                                                                                                  #  THE CALLING SEQUENCE IS
003286:                                                                                                  #        CAF     WAKEFCADR
003287:                                                                                                  #        TC      NVSUBUSY
003288:                                                                                                  #  .
003289:
003290:                                                                                                  #  NVSUBUSY IS INTENDED FOR USE WHEN AN INTERNAL PROGRAM FINDS THE OPERATOR
003291:                                                                                                  #  IS USING THE KEYBOARD + DISPLAY PROGRAM (BY HIS OWN INITIATION). IT IS
003292:                                                                                                  #  NOT INTENDED FOR USE WHEN ONE INTERNAL PROGRAM FINDS ANOTHER INTERNAL
003293:                                                                                                  #  PROGRAM USING THE KEYBOARD + DISPLAY PROGRAM.
003294:
003295:                                                                                                  #  NVSUBUSY ABORTS (WITH CODE 21206) IF A SECOND JOB ATTEMPTS TO GO TO
003296:                                                                                                  #  SLEEP IN PINBALL. IN PARTICULAR, IF AN ATTEMPT IS MADE TO GO TO NVSUBUSY
003297:                                                                                                  #  WHEN
003298:                                                                                                  #  1) DSPLIST NOT= +0. THIS IS THE CASE WHERE THE CAPACITY OF THE DSPLIST
003299:                                                                                                  #     IS EXCEEDED.
003300:                                                                                                  #  2) CADRSTOR NOT= +0. THIS INDICATES THAT A JOB IS ALREADY USING


003302:                                                                                                  #  ENDIDLE. (+-NZ INDICATE A JOB IS ALREADY ASLEEP DUE TO ENDIDLE.)
003303:
003304:                                                                                                  #  NVSUBUSY MOVED TO DISPLAY INTERFACE ROUTINES
003305:
003306:                                                                                                  #  RELDSP IS USED BY VBPROC, VBTERM, VBRQEXEC, VBRQWAIT, VBRELDSP, EXTENDED
003307:                                                                                                  #  VERB DISPATCHER, VBRESEQ, RECALTST.
003308:                                                                                                  #  RELDSP1 IS USED BY MONITOR SET UP, VBRELDSP.
003309:
003310:    4432           56002        RELDSP             XCH      Q                                     #  SET DSPLOCK TO +0, TURN RELDSP LIGHT
003311:    4433           54144                           TS       RELRET                                #  OFF, SEARCH DSPLIST
003312:    4434           44753                           CS       BIT14
003313:    4435           00004                           INHINT
003314:    4436           71224                           MASK     MONSAVE1
003315:    4437           55224                           TS       MONSAVE1                              #  TURN OFF EXTERNAL MONITOR BIT
003316:    4440           11246                           CCS      DSPLIST
003317:    4441           04443                           TC       +2
003318:    4442           04446                           TC       RELDSP2                               #  LIST EMPTY
003319:    4443           34772                           CAF      ZERO
003320:    4444           57246                           XCH      DSPLIST
003321:    4445           05167                           TC       JOBWAKE
003322:    4446           00003        RELDSP2            RELINT
003323:    4447           44764                           CS       BIT5                                  #  TURN OFF KEY RELEASE LIGHT
003324:    4450           00006                           EXTEND                                         #  (BIT 5 OF CHANNEL 11)
003325:    4451           03011                           WAND     DSALMOUT
003326:    4452           34772                 +4        CAF      ZERO
003327:    4453           55215                           TS       DSPLOCK
003328:    4454           00144                           TC       RELRET
003329:    4455           56002        RELDSP1            XCH      Q                                     #  SET DSPLOCK TO +0. NO DSPLIST SEARCH.
003330:    4456           54144                           TS       RELRET                                #  TURN KEY RLSE LIGHT OFF IF DSPLIST IS
003331:                                                                                                  #  EMPTY. LEAVE KEY RLSE LIGHT ALONE IF
003332:                                                                                                  #  DSPLIST IS NOT EMPTY.
003333:    4457           11246                           CCS      DSPLIST
003334:    4460           04462                           TC       +2                                    #  +  NOT EMPTY. LEAVE KEY RLSE LIGHT ALONE
003335:    4461           04446                           TC       RELDSP2                               #  +0 EMPTY. TURN OFF KEY RLSE LIGHT
003336:    4462           14452                           TCF      RELDSP2    +4                         #  -  NOT EMPTY. LEAVE KEY RLSE LIGHT ALONE
003337:    4463                        ENDPINBF           EQUALS
003338:


003340:                                                                                                  #  PINTEST IS NEEDED FOR AUTO CHECK OF PINBALL.
003341:
003342:    4463  43,2002               PINTEST            EQUALS   LST2FAN
003343:


003345:                                                                                                  #  VBTSTLTS TURNS ON ALL DISPLAY PANEL LIGHTS. AFTER 5 SEC, IT TURNS
003346:                                                                                                  #  OFF THE CAUTION AND STATUS LIGHTS.
003347:
003348: 40,2000                                           SETLOC   PINBALL1
003349: 40,2000                                           BANK
003350: 40,3432                                           COUNT*   $$/PIN
003351: 40,3432           04636        VBTSTLTS           TC       BANKCALL
003352: 40,3433           66714                           CADR     CHKPOOH
003353:
003354: 40,3434           00004                           INHINT
003355: 40,3435           41334                           CS       IMODES33                              #  SET BIT 1 OF IMODES33 SO IMUMON WONT
003356: 40,3436           74770                           MASK     LMPTSTBT                              #  TURN OUT ANY LAMPS.
003357: 40,3437           27334                           ADS      IMODES33
003358: 40,3440           33550                           CAF      TSTCON1                               #  TURN ON UPLINK ACTIVITY, TEMP, KEY RLSE,
003359: 40,3441           00006                           EXTEND                                         #  V/N FLASH, OPERATOR ERROR.
003360: 40,3442           05011                           WOR      DSALMOUT
003361: 40,3443           33551                           CAF      TSTCON2                               #  TURN ON NO ATT, GIMBAL LOCK, TRACKER,
003362: 40,3444           55241                           TS       DSPTAB     +11D                       #  PROG ALM.
003363: 40,3445           34757                           CAF      BIT10                                 #  TURN ON TEST ALARM OUTBIT
003364: 40,3446           00006                           EXTEND
003365: 40,3447           05013                           WOR      CHAN13
003366: 40,3450           34355                           CAF      TEN
003367: 40,3451           54117        TSTLTS1            TS       ERCNT
003368: 40,3452           43546                           CS       FULLDSP
003369: 40,3453           50117                           INDEX    ERCNT
003370: 40,3454           55226                           TS       DSPTAB
003371: 40,3455           10117                           CCS      ERCNT
003372: 40,3456           03451                           TC       TSTLTS1
003373: 40,3457           43547                           CS       FULLDSP1
003374: 40,3460           55227                           TS       DSPTAB     +1                         #  TURN ON 3 PLUS SIGNS
003375: 40,3461           55232                           TS       DSPTAB     +4
003376: 40,3462           55234                           TS       DSPTAB     +6
003377: 40,3463           34775                           CAF      ELEVEN
003378: 40,3464           55221                           TS       NOUT
003379: 40,3465           37704                           CAF      SHOLTS
003380: 40,3466           04636                           TC       BANKCALL
003381: 40,3467           01731                           CADR     DELAYJOB
003382:                                                                                                  #  DSPLOCK IS LEFT BUSY (FROM KEYBOARD
003383:                                                                                                  #  ACTION) UNTIL TSTLTS3 TO INSURE THAT
003384:                                                                                                  #  LIGHTS TEST WILL BE SEEN.
003385:
003386: 40,3470     7704               SHOLTS             =        DEC500                                #  5 SEC
003387: 40,3470           43552        TSTLTS3            CS       TSTCON3                               #  CALLED BY EXECUTIVE
003388: 40,3471           00004                           INHINT
003389: 40,3472           00006                           EXTEND                                         #  TURN OFF UPLINK ACTIVITY, TEMP,
003390: 40,3473           03011                           WAND     DSALMOUT                              #  OPERATOR ERROR.
003391: 40,3474           44757                           CS       BIT10                                 #  TURN OFF TEST ALARM OUTBIT
003392: 40,3475           00006                           EXTEND
003393: 40,3476           03013                           WAND     CHAN13


003395: 40,3477           34765                           CAF      BIT4                                  #  MAKE NO ATT FOLLOW BIT 4 OF CHANNEL 12
003396: 40,3500           00006                           EXTEND                                         #    (NO ATT LIGHT ON IF IN COARSE ALIGN)
003397: 40,3501           02012                           RAND     CHAN12
003398: 40,3502           64752                           AD       BIT15                                 #  TURN OFF AUTO, HOLD, FREE, SPARE,
003399: 40,3503           55241                           TS       DSPTAB     +11D                       #  GIMBAL LOCK, SPARE, TRACKER, PROG ALM
003400: 40,3504           44770                           CS       LMPTSTBT
003401: 40,3505           71334                           MASK     IMODES33
003402: 40,3506           55334                           TS       IMODES33
003403: 40,3507           40000                           COM
003404: 40,3510           74754                           MASK     PIP2FLBT
003405: 40,3511           27334                           ADS      IMODES33
003406: 40,3512           40000                           COM
003407: 40,3513           74755                           MASK     DNLKFAIL
003408: 40,3514           27334                           ADS      IMODES33
003409: 40,3515           40000                           COM
003410: 40,3516           74756                           MASK     UPLKFAIL
003411: 40,3517           27334                           ADS      IMODES33
003412: 40,3520           44752                           CS       TLIMBIT
003413: 40,3521           71333                           MASK     IMODES30
003414: 40,3522           55333                           TS       IMODES30
003415: 40,3523           40000                           COM
003416: 40,3524           74754                           MASK     IMUFLBIT
003417: 40,3525           27333                           ADS      IMODES30
003418: 40,3526           40000                           COM
003419: 40,3527           74755                           MASK     ICDUFLBT
003420: 40,3530           27333                           ADS      IMODES30
003421: 40,3531           40000                           COM
003422: 40,3532           74757                           MASK     PIPAFLBT
003423: 40,3533           27333                           ADS      IMODES30
003424: 40,3534           41337                           CS       OPTMODES
003425: 40,3535           74762                           MASK     OCDUFBIT
003426: 40,3536           27337                           ADS      OPTMODES
003427: 40,3537           00003                           RELINT
003428:
003429: 40,3540           05120                           TC       NOVAC30
003430: 40,3541     1202                                  EBANK=   DSPCOUNT
003431: 40,3541           03377 60102                     2CADR    DSPMMJOB
003432:
003433: 40,3543           04235                           TC       KILMONON                              #  TURN ON KILL MONITOR BIT.
003434: 40,3544           04417                           TC       FLASHOFF                              #  TURN OFF V/N FLASH.
003435: 40,3545           13335                           TCF      TSTLTS4
003436: 40,3546           05675        FULLDSP            OCT      05675                                 #  DISPLAY ALL 8:S
003437: 40,3547           07675        FULLDSP1           OCT      07675                                 #  DISPLAY ALL 8:S AND +
003438: 40,3550           00175        TSTCON1            OCT      00175
003439:                                                                                                  #  UPLINK ACTIVITY, TEMP, KEY RLSE,
003440:                                                                                                  #  V/N FLASH, OPERATOR ERROR.
003441: 40,3551           40650        TSTCON2            OCT      40650                                 #  DSPTAB+11D  BITS 4,6,8,9.
003442:                                                                                                  #  NO ATT, GIMBAL LOCK, TRACKER, PROG ALM.
003443: 40,3552           00115        TSTCON3            OCT      00115                                 #  CHAN 11  BITS 1, 3, 4, 7.
003444:                                                                                                  #  UPLINK ACTIVITY, TEMP, OPERATOR ERROR.


003446:
003447:                                                                                                  #  ERROR LIGHT RESET (RSET) TURNS OFF,
003448:                                                                                                  #  UPLINK ACTIVITY, AUTO, HOLD, FREE, OPERATOR ERROR,
003449:                                                                                                  #  PROG ALM, TRACKER FAIL.
003450:                                                                                                  #  LEAVES GIMBAL LOCK AND NO ATT ALONE.
003451:                                                                                                  #  IT ALSO ZEROES THE :TEST ALARM: OUT BIT, WHICH TURNS OFF STBY, RESTART.
003452:                                                                                                  #  IT ALSO SETS :CAUTION RESET: TO 1.
003453:                                                                                                  #  IT ALSO FORCES BIT 12 OF ALL DSPTAB ENTRIES TO 1.
003454:
003455: 40,2000                                           SETLOC   PINBALL1
003456: 40,2000                                           BANK
003457: 40,3553                                           COUNT*   $$/PIN
003458: 40,3553           56115        ERROR              XCH      21/22REG                              #  RESTORE ORIGINAL C(DSPLOCK). THUS ERROR
003459: 40,3554           55215                           TS       DSPLOCK                               #  LIGHT RESET LEAVES DSPLOCK UNCHANGED.
003460: 40,3555           00004                           INHINT
003461: 40,3556           34757                           CAF      BIT10                                 #  TURN ON :CAUTION RESET: OUTBIT
003462: 40,3557           00006                           EXTEND
003463: 40,3560           05011                           WOR      DSALMOUT                              #  BIT10 CHAN 11
003464: 40,3561           35004                           CAF      GL+NOATT                              #  LEAVE GIMBAL LOCK AND NO ATT INTACT,
003465: 40,3562           71241                           MASK     DSPTAB     +11D                       #  TURNING OFF AUTO, HOLD, FREE,
003466: 40,3563           64752                           AD       BIT15                                 #  PROG ALARM, AND TRACKER.
003467: 40,3564           55241                           TS       DSPTAB     +11D
003468: 40,3565           41334                           CS       IMODES33                              #  RESET FAIL BITS WHICH GENERATE PROG
003469: 40,3566           75055                           MASK     PRIO16                                #  ALARM SO THAT IF THE FAILURE STILL
003470: 40,3567           27334                           ADS      IMODES33                              #  EXISTS, THE ALARM WILL COME BACK ON
003471: 40,3570           41333                           CS       IMODES30
003472: 40,3571           74757                           MASK     PIPAFLBT
003473: 40,3572           27333                           ADS      IMODES30
003474:
003475: 40,3573           41337                           CS       OPTMODES
003476: 40,3574           74762                           MASK     OCDUFBIT
003477: 40,3575           27337                           ADS      OPTMODES
003478: 40,3576           04542                           TC       C13STALL
003479: 40,3577           44757                           CS       BIT10                                 #  TURN OFF :TEST ALARM: OUTBIT.
003480: 40,3600           00006                           EXTEND
003481: 40,3601           03013                           WAND     CHAN13
003482: 40,3602           43216                           CS       ERCON                                 #  TURN OFF UPLINK ACTIVITY,
003483: 40,3603           00006                           EXTEND                                         #  OPERATOR ERROR.
003484: 40,3604           03011                           WAND     DSALMOUT
003485: 40,3605           34355        TSTAB              CAF      BINCON                                #  (DEC 10)
003486: 40,3606           54117                 +1        TS       ERCNT                                 #  ERCNT = COUNT
003487: 40,3607           00004                           INHINT
003488: 40,3610           50117                           INDEX    ERCNT
003489: 40,3611           11226                           CCS      DSPTAB
003490: 40,3612           64770                           AD       ONE
003491: 40,3613           03620                           TC       ERPLUS
003492: 40,3614           64770                           AD       ONE
003493: 40,3615           40000        ERMINUS            CS       A
003494: 40,3616           77674                           MASK     NOTBIT12
003495: 40,3617           03623                           TC       ERCOM
003496: 40,3620           40000        ERPLUS             CS       A


003498: 40,3621           77674                           MASK     NOTBIT12
003499: 40,3622           40000                           CS       A                                     #  MIGHT WANT TO RESET CLPASS, DECBRNCH,
003500: 40,3623           50117        ERCOM              INDEX    ERCNT                                 #  ETC.
003501: 40,3624           55226                           TS       DSPTAB
003502: 40,3625           00003                           RELINT
003503: 40,3626           10117                           CCS      ERCNT
003504: 40,3627           03606                           TC       TSTAB      +1
003505: 40,3630           54375                           TS       FAILREG
003506: 40,3631           54376                           TS       FAILREG    +1
003507: 40,3632           55357                           TS       SFAIL
003508: 40,3633           05205                           TC       ENDOFJOB
003509:
003510: 40,3634           55000        OCT55000           OCT      55000
003511: 40,3635           16001        13-11,1            OCT      16001
003512: 40,3636     5004               GL+NOATT           EQUALS   OCT50                                 #  NO ATT AND GIMBAL LOCK LAMPS
003513: 40,3636     7674               NOTBIT12           EQUALS   -1/8
003514: 40,3636                        ENDPINS1           EQUALS
003515:
003516: 40,3636  30,2000                                  SBANK=   LOWSUPER

End of include-file PINBALL_GAME__BUTTONS_AND_LIGHTS.agc.  Parent file is MAIN.agc


