
Source Code


000002:                                                                                                  ## Copyright:   Public domain.
000003:                                                                                                  ## Filename:    R31.agc
000004:                                                                                                  ## Purpose:     A section of Artemis revision 071.
000005:                                                                                                  ##              It is part of the reconstructed source code for the first
000006:                                                                                                  ##              release of the flight software for the Command Module's
000007:                                                                                                  ##              (CM) Apollo Guidance Computer (AGC) for Apollo 15 through
000008:                                                                                                  ##              17. The code has been recreated from a copy of Artemis 072.
000009:                                                                                                  ##              It has been adapted such that the resulting bugger words
000010:                                                                                                  ##              exactly match those specified for Artemis 071 in NASA
000011:                                                                                                  ##              drawing 2021154-, which gives relatively high confidence
000012:                                                                                                  ##              that the reconstruction is correct.
000013:                                                                                                  ## Reference:   507
000014:                                                                                                  ## Assembler:   yaYUL
000015:                                                                                                  ## Contact:     Ron Burkey <info@sandroid.org>.
000016:                                                                                                  ## Website:     www.ibiblio.org/apollo/index.html
000017:                                                                                                  ## Mod history: 2019-08-14 MAS  Created from Artemis 072.
000018:


000020: 31,2000                                           SETLOC   R31
000021: 31,2000                                           BANK
000022:
000023: 31,2000                                           COUNT*   $$/R3134
000024: 31,2000           35045        R31CALL            CAF      PRIO3
000025: 31,2001           05135                           TC       FINDVAC
000026: 31,2002  E4,1760                                  EBANK=   SUBEXIT
000027: 31,2002           02031 62064                     2CADR    V83CALL
000028:
000029: 31,2004           04636        DSPDELAY           TC       BANKCALL
000030: 31,2005           01730                           CADR     1SECDELY
000031: 31,2006           31247                           CA       EXTVBACT
000032: 31,2007           74755                           MASK     BIT12
000033: 31,2010           00006                           EXTEND
000034: 31,2011           12004                           BZF      DSPDELAY
000035:
000036: 31,2012           30105        DISPN5X            CA       FLAGWRD9                              #  TEST R31FLAG (IN SUNDANCE R31FLAG WILL
000037: 31,2013           74765                           MASK     R31FLBIT                              #  ALWAYS BE SET AS R34 DOES NOT EXIST
000038: 31,2014           00006                           EXTEND
000039: 31,2015           12020                           BZF      +3
000040: 31,2016           32135                           CAF      V16N54                                #  R31    USE NOUN 54
000041: 31,2017           02021                           TC       +2
000042: 31,2020           32136                           CAF      V16N53                                #  R34    USE NOUN 53
000043: 31,2021           04636                           TC       BANKCALL
000044: 31,2022           20576                           CADR     GOMARKF
000045: 31,2023           05626                           TC       B5OFF
000046: 31,2024           05626                           TC       B5OFF
000047: 31,2025           12012                           TCF      DISPN5X
000048:
000049: 31,2026           06006        V83                TC       INTPRET
000050: 31,2027           77650                           GOTO
000051: 31,2030           62177                                    HAVEBASE                              #  INTEG STATE VECTORS
000052: 31,2031           06006        V83CALL            TC       INTPRET
000053: 31,2032           77650                           GOTO
000054: 31,2033           62146                                    STATEXTP                              #  EXTRAPOLATE STATE VECTORS
000055: 31,2034           52375        COMPDISP           VLOAD    VSU
000056: 31,2035           00001                                    RATT
000057: 31,2036           02320                                    RONE
000058: 31,2037           51406                           PUSH     ABVAL                                 #  RATT-RONE TO 0D               PD= 6
000059: 31,2040           02312                           STORE    RANGE                                 #  METERS B-29
000060: 31,2041           77301                           NORM     VLOAD
000061: 31,2042           00047                                    X1                                    #  RATT-RONE                     PD= 0
000062: 31,2043           77762                           VSR1
000063: 31,2044           53457                           VSL*     UNIT
000064: 31,2045           20201                                    0,1
000065: 31,2046           52315                           PDVL     VSU                                   #  UNIT(LOS) TO 0D               PD= 6
000066: 31,2047           00007                                    VATT
000067: 31,2050           02326                                    VONE
000068: 31,2051           77641                           DOT                                            #  (VATT-VONE).UNIT(LOS)         PD= 0


000070: 31,2052           77752                           SL1
000071: 31,2053           36314                           STCALL   RRATE                                 #  RANGE RATE M/CS B-7
000072: 31,2054           47530                                    CDUTRIG                               #  TO INITIALIZE FOR *NBSM*
000073: 31,2055           77624                           CALL
000074: 31,2056           62317                                    R34LOS                                #  NOTE. PDL MUST = 0.
000075: 31,2057           53575        R34ANG             VLOAD    UNIT
000076: 31,2060           02320                                    RONE
000077: 31,2061           77715                           PDVL                                           #  UR TO 0D                      PD= 6
000078: 31,2062           15334                                    THISAXIS                              #  UNITX FOR CM, UNITZ FOR LM
000079: 31,2063           77214                           BON      VLOAD                                 #  CHK R31FLAG. ON=R31 THETA, OFF=R34 PHI
000080: 31,2064           04713                                    R31FLAG
000081: 31,2065           62067                                    +2                                    #        R31-THETA
000082: 31,2066           00015                                    12D
000083: 31,2067           77624                           CALL
000084: 31,2070           47647                                    *NBSM*
000085: 31,2071           41505                           VXM      PUSH                                  #  UXORZ TO 6D                   PD=12D
000086: 31,2072           01734                                    REFSMMAT
000087: 31,2073           72431                           VPROJ    VSL2
000088: 31,2074           00001                                    0D
000089: 31,2075           53445                           BVSU     UNIT
000090: 31,2076           00007                                    6D
000091: 31,2077           47315                           PDVL     VXV                                   #  UP/2 TO 12D                   PD=18D
000092: 31,2100           02320                                    RONE
000093: 31,2101           02326                                    VONE
000094: 31,2102           47256                           UNIT     VXV
000095: 31,2103           02320                                    RONE
000096: 31,2104           63241                           DOT      PDVL                                  #  SIGN TO 12D, UP/2 TO MPAC     PD=18D
000097: 31,2105           00015                                    12D
000098: 31,2106           50372                           VSL1     DOT                                   #  UP.UXORZ
000099: 31,2107           00007                                    6D
000100: 31,2110           72565                           SIGN     SL1
000101: 31,2111           00015                                    12D
000102: 31,2112           77726                           ACOS
000103: 31,2113           26316                           STOVL    RTHETA
000104: 31,2114           02320                                    RONE
000105: 31,2115           51041                           DOT      BPL
000106: 31,2116           00007                                    6D
000107: 31,2117           62124                                    +5
000108: 31,2120           44345                           DLOAD    BDSU                                  #  IF UXORZ.R NEG, RTHETA = 1 - RTHETA
000109: 31,2121           02316                                    RTHETA
000110: 31,2122           15344                                    DPPOSMAX
000111: 31,2123           02316                           STORE    RTHETA                                #  RTHETA BETWEEN 0 AND 1 REV.
000112: 31,2124           77776                 +5        EXIT
000113: 31,2125           34764                           CAF      BIT5                                  #  HAVE WE BEEN ANSWERED
000114: 31,2126           71247                           MASK     EXTVBACT
000115: 31,2127           00006                           EXTEND
000116: 31,2130           12137                           BZF      ISITP79
000117:
000118: 31,2131           41247                           CS       EXTVBACT
000119: 31,2132           74755                           MASK     BIT12


000121: 31,2133           27247                           ADS      EXTVBACT
000122:
000123: 31,2134           12026                           TCF      V83
000124: 31,2135           04066        V16N54             VN       1654
000125: 31,2136           04065        V16N53             VN       1653
000126: 31,2137           05354        ISITP79            TC       CHECKMM
000127: 31,2140           00117                           MM       79         B-14
000128: 31,2141           15524                           TCF      ENDEXT                                #  NO, DIE
000129:
000130: 31,2142           05527                           TC       CLEARMRK
000131: 31,2143           05561                           TC       DOWNFLAG
000132: 31,2144           00226                           ADRES    PCMANFLG
000133: 31,2145           14103                           TCF      GOTOPOOH
000134:


000136:                                                                                                  #  STATEXTP DOES AN INITIAL PRECISION EXTRAPOLATION OF THE
000137:                                                                                                  #  LEM STATE VECTOR TO PRESENT TIME OR TO PIPTIME IF AV G
000138:                                                                                                  #  IS ON AND SAVES AS BASE VECTOR. IF AV G IS ON RN + VN
000139:                                                                                                  #  ARE USED AS THE CM STATE VECTOR AND THE INITIAL R RDOT
000140:                                                                                                  #  RTHETA ARE COMPUTED WITH NO FURTHER INTEGRATION. IF AV
000141:                                                                                                  #  G IS OFF A PRECISION EXTRAPOLATION IS MADE OF THE CM
000142:                                                                                                  #  STATE VECTOR TO PRESENT TIME AND.....
000143:                                                                                                  #    THE CM + LM STATE VECTORS ARE INTEGRATED TO PRES TIME
000144:                                                                                                  #    USING PRECISION OR CONIC AS SURFFLAG IS SET OR CLEAR.
000145:                                                                                                  #    IF AV G IS ON THEN SUBSEQUENT PASSES WILL PROVIDE
000146:                                                                                                  #    USE OF RN + VN AS CM STATE VECTOR AND THE LM STATE
000147:                                                                                                  #    VECTOR WILL BE PRECISION INTEGRATED USING LEMPREC
000148:                                                                                                  #    IF SURFFLAG IS SET.
000149:                                                                                                  #      CM STATE VECTOR RONE VONE + LM STATE VECTOR RATT
000150:                                                                                                  #      VATT ARE USED IN COMPUTING R RDOT RTHETA.
000151:
000152: 31,2146           43034        STATEXTP           RTB      BOF                                   #  INITIAL INTEGRATION
000153: 31,2147           51751                                    LOADTIME
000154: 31,2150           03751                                    V37FLAG
000155: 31,2151           62154                                    BOTHGO                                #  AV G OFF, USE PRESENT TIME
000156: 31,2152           77624                           CALL
000157: 31,2153           62301                                    GETRVN                                #       ON,  USE RN, VN, PIPTIME
000158: 31,2154           02334        BOTHGO             STORE    BASETIME
000159: 31,2155           34041                           STCALL   TDEC1
000160: 31,2156           27161                                    LEMPREC
000161: 31,2157           77775                           VLOAD                                          #  BASE VECTOR, LM
000162: 31,2160           00017                                    RATT1
000163: 31,2161           26224                           STOVL    BASEOTP                               #    POS.
000164: 31,2162           00025                                    VATT1
000165: 31,2163           02240                           STORE    BASEOTV                               #    VEL.
000166: 31,2164           71214                           BON      DLOAD
000167: 31,2165           03711                                    V37FLAG
000168: 31,2166           62034                                    COMPDISP                              #  COMPUTE R RDOT RTHETA FROM
000169:                                                                                                  #  RONE(RN) VONE(VN) RATT+VATT(LEMPREC)
000170: 31,2167           00015                                    TAT
000171: 31,2170           34041                           STCALL   TDEC1
000172: 31,2171           27145                                    CSMPREC
000173: 31,2172           77775                           VLOAD                                          #  BASE VECTOR, CM
000174: 31,2173           00017                                    RATT1
000175: 31,2174           26254                           STOVL    BASETHP                               #   POS.
000176: 31,2175           00025                                    VATT1
000177: 31,2176           02262                           STORE    BASETHV                               #   VEL.
000178: 31,2177           47014        HAVEBASE           BON      RTB                                   #  SUBSEQUENT INTEGRATIONS
000179: 31,2200           03711                                    V37FLAG
000180: 31,2201           62264                                    GETRVN5
000181: 31,2202           51751                                    LOADTIME
000182: 31,2203           34041                           STCALL   TDEC1                                 #  AV G OFF. SET INTEG. OF CM
000183: 31,2204           27516                                    INTSTALL
000184: 31,2205           43175                           VLOAD    CLEAR
000185: 31,2206           02254                                    BASETHP


000187: 31,2207           00263                                    MOONFLAG
000188: 31,2210           25535                           STOVL    RCV
000189: 31,2211           02262                                    BASETHV
000190: 31,2212           15543                           STODL    VCV
000191: 31,2213           02334                                    BASETIME
000192: 31,2214           43014                           BOF      SET                                   #  GET APPROPRIATE MOONFLAG SETTING
000193: 31,2215           04343                                    MOONTHIS
000194: 31,2216           62220                                    +2
000195: 31,2217           00063                                    MOONFLAG
000196: 31,2220           77614                           CLEAR
000197: 31,2221           01673                                    INTYPFLG
000198: 31,2222           43014                           BON      SET
000199: 31,2223           04307                                    SURFFLAG
000200: 31,2224           62226                                    +2                                    #  PREC. IF LM DOWN
000201: 31,2225           01473                                    INTYPFLG                              #  CONIC IF LM NOT DOWN
000202: 31,2226           35517                           STCALL   TET
000203: 31,2227           27211                                    INTEGRVS                              #  INTEGRATION --- AT LAST---
000204: 31,2230           77775                           VLOAD
000205: 31,2231           00001                                    RATT
000206: 31,2232           26320                           STOVL    RONE
000207: 31,2233           00007                                    VATT
000208: 31,2234           16326                           STODL    VONE                                  #  GET SET FOR CONIC EXTRAP.,OTHER
000209: 31,2235           00015                                    TAT
000210: 31,2236           45014                           BON      CALL
000211: 31,2237           04307                                    SURFFLAG
000212: 31,2240           62275                                    GETRVN6                               #  LEMPREC IF LM DOWN
000213: 31,2241           27516                                    INTSTALL                              #  LEMCONIC IF NOT DOWN
000214: 31,2242           77614                           SET
000215: 31,2243           01473                                    INTYPFLG
000216: 31,2244           00041        OTHINT             STORE    TDEC1                                 #  ENTERED IF AV G ON TO INTEG LM
000217: 31,2245           43175                           VLOAD    CLEAR
000218: 31,2246           02224                                    BASEOTP
000219: 31,2247           00263                                    MOONFLAG
000220: 31,2250           25535                           STOVL    RCV
000221: 31,2251           02240                                    BASEOTV
000222: 31,2252           15543                           STODL    VCV
000223: 31,2253           02334                                    BASETIME
000224: 31,2254           43014                           BOF      SET
000225: 31,2255           04343                                    MOONTHIS
000226: 31,2256           62260                                    +2
000227: 31,2257           00063                                    MOONFLAG
000228: 31,2260           35517                           STCALL   TET
000229: 31,2261           27211                                    INTEGRVS
000230: 31,2262           77650                           GOTO
000231: 31,2263           62034                                    COMPDISP                              #  COMPUTE R RDOT RTHETA
000232: 31,2264           77624        GETRVN5            CALL                                           #  AV G ON
000233: 31,2265           62301                                    GETRVN
000234: 31,2266           45014                           BON      CALL
000235: 31,2267           04307                                    SURFFLAG
000236: 31,2270           62275                                    GETRVN6                               #  LM DOWN, LMPREC


000238: 31,2271           27516                                    INTSTALL
000239: 31,2272           52014                           CLEAR    GOTO                                  #  INTEGRVS (PREC) IF LM NOT DOWN
000240: 31,2273           01673                                    INTYPFLG
000241: 31,2274           62244                                    OTHINT
000242: 31,2275           34041        GETRVN6            STCALL   TDEC1
000243: 31,2276           27161                                    LEMPREC
000244: 31,2277           77650                           GOTO
000245: 31,2300           62034                                    COMPDISP                              #  COMPUTE R RDOT RTHETA
000246: 31,2301           77620        GETRVN             STQ
000247: 31,2302           00000                                    0D
000248: 31,2303           52175                           VLOAD    GOTO                                  #  AV G ON, RONE = RN  VONE = VN
000249: 31,2304           01030                                    RN                                    #   AND USE PIPTIME
000250: 31,2305           62306                                    +1
000251: 31,2306           36320                           STCALL   RONE
000252: 31,2307           62310                                    +1
000253: 31,2310           52175                           VLOAD    GOTO
000254: 31,2311           01036                                    VN
000255: 31,2312           62313                                    +1
000256: 31,2313           16326                           STODL    VONE
000257: 31,2314           01044                                    PIPTIME
000258: 31,2315           77650                           GOTO
000259: 31,2316           00000                                    0D
000260: 31,2000                                           SETLOC   R34
000261: 31,2000                                           BANK
000262: 31,2317                                           COUNT*   $$/R3134
000263: 31,2317           77776        R34LOS             EXIT
000264: 31,2320           30036                           CA       CDUS
000265: 31,2321           50120                           INDEX    FIXLOC
000266: 31,2322           54011                           TS       9D
000267: 31,2323           30035                           CA       CDUT
000268: 31,2324           50120                           INDEX    FIXLOC
000269: 31,2325           54013                           TS       11D
000270: 31,2326           30120                           CA       FIXLOC
000271: 31,2327           66211                           AD       SIX
000272: 31,2330           40000                           COM
000273: 31,2331           50120                           INDEX    FIXLOC
000274: 31,2332           54046                           TS       X1
000275: 31,2333           06006                           TC       INTPRET
000276: 31,2334           77624                           CALL
000277: 31,2335           46000                                    SXTNB
000278: 31,2336           34015                           STCALL   12D
000279: 31,2337           62057                                    R34ANG

End of include-file R31.agc.  Parent file is MAIN.agc


