
Source Code


000002:                                                                                                  ## Copyright:   Public domain.
000003:                                                                                                  ## Filename:    RCS-CSM_DAP_EXECUTIVE_PROGRAMS.agc
000004:                                                                                                  ## Purpose:     A section of Artemis revision 071.
000005:                                                                                                  ##              It is part of the reconstructed source code for the first
000006:                                                                                                  ##              release of the flight software for the Command Module's
000007:                                                                                                  ##              (CM) Apollo Guidance Computer (AGC) for Apollo 15 through
000008:                                                                                                  ##              17. The code has been recreated from a copy of Artemis 072.
000009:                                                                                                  ##              It has been adapted such that the resulting bugger words
000010:                                                                                                  ##              exactly match those specified for Artemis 071 in NASA
000011:                                                                                                  ##              drawing 2021154-, which gives relatively high confidence
000012:                                                                                                  ##              that the reconstruction is correct.
000013:                                                                                                  ## Reference:   1036
000014:                                                                                                  ## Assembler:   yaYUL
000015:                                                                                                  ## Contact:     Ron Burkey <info@sandroid.org>.
000016:                                                                                                  ## Website:     www.ibiblio.org/apollo/index.html
000017:                                                                                                  ## Mod history: 2019-08-14 MAS  Created from Artemis 072.
000018:


000020:                                                                                                  #  CALCULATION OF  AMGB, AMBG     ONCE EVERY SECOND
000021:
000022:                                                                                                  #   AMGB =  1    SIN(PSI)                0
000023:                                                                                                  #           0    COS(PSI)COS(PHI)        SIN(PHI)
000024:                                                                                                  #           0    -COS(PSI)SIN(PHI)       COS(PHI)
000025:
000026:                                                                                                  #   AMBG =  1    -TAN(PSI)COS(PHI)       TAN(PSI)SIN(PHI)
000027:                                                                                                  #           0    COS(PHI)/COS(PSI)       -SIN(PHI)/COS(PSI)
000028:                                                                                                  #           0    SIN(PHI)                COS(PHI)
000029:
000030:                                                                                                  #   WHERE PHI AND PSI ARE CDU ANGLES
000031:
000032: 22,2000                                           SETLOC   DAPS8
000033: 22,2000                                           BANK
000034:
000035: 22,3560                                           COUNT*   $$/DAPEX
000036: 22,3560  E6,1510                                  EBANK=   KMPAC
000037: 22,3560           30102        AMBGUPDT           CA       FLAGWRD6                              #  CHECK FOR RCS AUTOPILOT
000038: 22,3561           74076                           MASK     DPCONFIG
000039: 22,3562           00006                           EXTEND
000040: 22,3563           65205                           BZMF     ENDOFJOB                              #  BIT15 = 0, BIT14 = 1
000041: 22,3564           74753                           MASK     DAP2BIT                               #  IF NOT RCS, EXIT
000042: 22,3565           00006                           EXTEND
000043: 22,3566           15205                           BZF      ENDOFJOB                              #  TO PROTECT TVC DAP ON SWITCHOVER
000044:
000045: 22,3567           30034                           CA       CDUZ
000046: 22,3570           05061                           TC       SPSIN2
000047: 22,3571           55640                           TS       AMGB1                                 #  CALCULATE AMGB
000048: 22,3572           30034                           CA       CDUZ
000049: 22,3573           05060                           TC       SPCOS2
000050: 22,3574           55645                           TS       CAPSI                                 #  MUST CHECK FOR GIMBAL LOCK
000051: 22,3575           34620                           CAF      QUADANGL                              #  = 7.25  DEGREES JET QUAD ANGULAR OFFSET
000052: 22,3576           00006                           EXTEND
000053: 22,3577           20032                           MSU      CDUX
000054: 22,3600           40000                           COM                                            #  CDUX - 7.25 DEG
000055: 22,3601           05060                           TC       SPCOS1
000056: 22,3602           55644                           TS       AMGB8
000057: 22,3603           00006                           EXTEND
000058: 22,3604           71645                           MP       CAPSI
000059: 22,3605           55641                           TS       AMGB4
000060: 22,3606           34620                           CAF      QUADANGL
000061: 22,3607           00006                           EXTEND
000062: 22,3610           20032                           MSU      CDUX
000063: 22,3611           40000                           COM                                            #  CDUX - 7.25 DEG
000064: 22,3612           05061                           TC       SPSIN1
000065: 22,3613           55642                           TS       AMGB5
000066: 22,3614           00006                           EXTEND
000067: 22,3615           71645                           MP       CAPSI
000068: 22,3616           40000                           COM


000070: 22,3617           55643                           TS       AMGB7
000071: 22,3620           15205                           TCF      ENDOFJOB
000072:    4000                                           SETLOC   FFTAG12
000073:    4000                                           BANK
000074:
000075:    4620                                           COUNT*   $$/DAPEX
000076:    4620           01224        QUADANGL           DEC      660        B-14                       #  = 7.25 DEGREES

End of include-file RCS-CSM_DAP_EXECUTIVE_PROGRAMS.agc.  Parent file is MAIN.agc


