
Source Code


000002:                                                                                                  ## Copyright:   Public domain.
000003:                                                                                                  ## Filename:    REENTRY_CONTROL.agc
000004:                                                                                                  ## Purpose:     A section of Artemis revision 071.
000005:                                                                                                  ##              It is part of the reconstructed source code for the first
000006:                                                                                                  ##              release of the flight software for the Command Module's
000007:                                                                                                  ##              (CM) Apollo Guidance Computer (AGC) for Apollo 15 through
000008:                                                                                                  ##              17. The code has been recreated from a copy of Artemis 072.
000009:                                                                                                  ##              It has been adapted such that the resulting bugger words
000010:                                                                                                  ##              exactly match those specified for Artemis 071 in NASA
000011:                                                                                                  ##              drawing 2021154-, which gives relatively high confidence
000012:                                                                                                  ##              that the reconstruction is correct.
000013:                                                                                                  ## Reference:   852
000014:                                                                                                  ## Assembler:   yaYUL
000015:                                                                                                  ## Contact:     Ron Burkey <info@sandroid.org>.
000016:                                                                                                  ## Website:     www.ibiblio.org/apollo/index.html
000017:                                                                                                  ## Mod history: 2019-08-14 MAS  Created from Artemis 072.
000018:


000020:
000021:                                                                                                  #  ENTRY INITIALIZATION ROUTINE
000022:                                                                                                  #   -----------------------------
000023:
000024: 25,2000                                           SETLOC   REENTRY
000025: 25,2000                                           BANK
000026:
000027: 25,2000                                           COUNT*   $$/ENTRY
000028: 25,2000  E7,1451                                  EBANK=   RTINIT
000029:
000030: 25,2000     0102               CM/FLAGS           EQUALS   STATE      +6
000031:
000032: 25,2000           77776        STARTENT           EXIT                                           #  MM = 63
000033:                                                                                                  #  COME HERE FROM CM/POSE. RESTARTED IN CM/POSE.
000034:
000035: 25,2001           42113                           CS       ENTMASK                               #  INITIALIZE ALL SWITCHES TO ZERO
000036:                                                                                                  #  EXCEPT LATSW, ENTRYDSP AND GONEPAST.
000037:                                                                                                  #  GONEBY 112D BIT8 FLAG7, SELF INITIALIZING
000038: 25,2002           00004                           INHINT
000039: 25,2003           70102                           MASK     CM/FLAGS
000040:                                                                                                  #  ENTRYDSP = 92D B13
000041:                                                                                                  #  GONEPAST=95D B10,  RELVELSW=96D B9
000042:                                                                                                  #  EGSW = 97D B8         NOSWITCH = 98D  B7
000043:                                                                                                  #  HIND=99D B6           INRLSW=100D B5
000044:                                                                                                  #  LATSW=101D B4         .05GSW=102D B3
000045:
000046: 25,2004           62114                           AD       ENTRYSW                               #  SET ENTRYDSP, LATSW, GONEPAST.
000047: 25,2005           54102                           TS       CM/FLAGS
000048:
000049: 25,2006           00003                           RELINT
000050:
000051: 25,2007           06006                           TC       INTPRET
000052:
000053: 25,2010           77735                           SLOAD
000054: 25,2011           03011                                    LODPAD
000055: 25,2012           03626                           STORE    LOD
000056:
000057: 25,2013           77735                           SLOAD
000058: 25,2014           03010                                    LADPAD
000059: 25,2015           03624                           STORE    LAD
000060:
000061: 25,2016           77605                           DMP                                            #  L/DCMINR = LAD COS(15)
000062: 25,2017           15324                                    COS15
000063: 25,2020           17630                           STODL    L/DCMINR
000064: 25,2021           15151                                    LATSLOPE
000065: 25,2022           70405                           DMP      SR1                                   #  KLAT = LAD/24
000066: 25,2023           03624                                    LAD
000067: 25,2024           17632                           STODL    KLAT
000068: 25,2025           15200                                    Q7F
000069: 25,2026           17175                           STODL    Q7                                    #  Q7 = Q7F
000070: 25,2027           15344                                    NEARONE                               #  1.0 -1BIT


000072: 25,2030           17614                           STODL    FACTOR
000073: 25,2031           03624                                    LAD
000074: 25,2032           57565                           SIGN     DCOMP
000075: 25,2033           03327                                    HEADSUP                               #  MAY BE NOISE FOR DISPLAY P61
000076: 25,2034           37634                           STCALL   L/D                                   #  L/D = - LAD SGN(HEADSUP)
000077:
000078: 25,2035           52063                                    STARTEN1                              #  RETURN VIA GOTOADDR
000079: 25,2036           47375                           VLOAD    VXV
000080: 25,2037           01036                                    VN                                    #  (-7) M/CS
000081: 25,2040           01756                                    UNITR                                 #  .5 UNIT               REF COORDS
000082: 25,2041           50256                           UNIT     DOT
000083: 25,2042           03474                                    RT                                    #  RT/2 TARGET VECTOR    REF COORDS
000084: 25,2043           03676                           STORE    LATANG                                #  LATANG = UNI.RT /4
000085: 25,2044           47076                           DCOMP    RTB
000086: 25,2045           45761                                    SIGNMPAC
000087: 25,2046           17644                           STODL    K2ROLL                                #  K2ROLL = -SGN(LATANG)
000088:
000089: 25,2047           03624                                    LAD
000090: 25,2050           43205                           DMP      DAD
000091: 25,2051           15202                                    Q21
000092: 25,2052           15204                                    Q22
000093: 25,2053           03712                           STORE    Q2                                    #  Q2 = -1992 + 3500 LAD
000094:
000095: 25,2054           66331                           SSP      SSP
000096: 25,2055           03646                                    GOTOADDR                              #  SET SELECTOR FOR INITIAL PASS
000097: 25,2056           52260                                    INITROLL
000098: 25,2057           03325                                    POSEXIT
000099: 25,2060           52115                                    SCALEPOP                              #  SET CM/POSE TO CONTINUE AT SCALEPOP
000100:
000101: 25,2061           77634                           RTB
000102: 25,2062           53607                                    SERVNOUT                              #  OMIT INITIAL DISPLAY, SINCE 1ST GUESSBAD
000103:
000104:                                                                                                  #  CALCULATE THE INITIAL TARGET VECTOR:  RTINIT,  ALSO RTEAST, RTNORM  AND  RT.   ALL ARE .5 UNIT AND IN
000105:                                                                                                  #  REFERENCE COORDINATES.
000106:
000107: 25,2063           77220        STARTEN1           STQ      VLOAD
000108: 25,2064           03645                                    GOTOADDR
000109: 25,2065           03401                                    LAT(SPL)                              #  TARGET COORDINATES
000110: 25,2066           43014                           CLEAR    CLEAR                                 #  DO CALL USING PAD RADIUS. WILL UNIT IT.
000111: 25,2067           00662                                    ERADFLAG                              #  ANYWAY.
000112: 25,2070           01663                                    LUNAFLAG
000113: 25,2071           14747                           STODL    LAT
000114: 25,2072           15336                                    3ZEROS
000115:
000116: 25,2073           14753                           STODL    LAT        +4                         #  SET ALT=0.
000117: 25,2074           01044                                    PIPTIME                               #  ESTABLISH RTINIT AT TIME OF PRESENT
000118:                                                                                                  #  RN AND VN.
000119: 25,2075           37524                           STCALL   TIME/RTO                              #  SAVE TIME BASE OF RTINIT.
000120: 25,2076           26524                                    LALOTORV                              #  C(MPAC) =TIME  (PIPTIME)
000121: 25,2077           77656                           UNIT                                           #  ANSWER IN ALPHAV ALSO


000123: 25,2100           17452                           STODL    RTINIT                                #  .5 UNIT TARGET                REF COORDS
000124: 25,2101           12112                                    500SEC                                #  NOMINAL ENTRY TIME FOR P63
000125:                                                                                                  #  TIME/RTO = PIPTIME, STILL.
000126: 25,2102           37606                           STCALL   DTEAROT                               #  INITIALIZE EARROT
000127: 25,2103           46213                                    EARROT1                               #  GET RT
000128: 25,2104           72441                           DOT      SL1
000129: 25,2105           01756                                    UNITR                                 #  RT/2 IN MPAC
000130: 25,2106           77726                           ACOS
000131: 25,2107           37702                           STCALL   THETAH                                #  RANGE ANGLE /360
000132: 25,2110           03645                                    GOTOADDR                              #  RETURN TO CALLER
000133:
000134: 25,2111           00003 01520  500SEC             2DEC     50000      B-28                       #  CS
000135:
000136: 25,2113           11774        ENTMASK            OCT      11774
000137: 25,2114           11010        ENTRYSW            OCT      11010                                 #  ENTRYDSP B13, GONEPAST B10, LATSW B4


000139:
000140: 25,2115           77624        SCALEPOP           CALL
000141: 25,2116           52125                                    TARGETNG
000142:
000143: 25,2117           77776                           EXIT
000144:
000145: 25,2120           05402        REFAZE10           TC       PHASCHNG
000146: 25,2121           10035                           OCT      10035                                 #  SERVICER 5.3 RESTART AT REFAZE10
000147:
000148: 25,2122  01,2250               5P3SPT14           =        5.3SPOT
000149: 25,2122           06006                           TC       INTPRET
000150:
000151:                                                                                                  #  JUMP TO PARTICULAR RE-ENTRY PHASE:
000152:
000153:                                                                                                  # SEQUENCE
000154: 25,2123           77650                           GOTO
000155: 25,2124           03645                                    GOTOADDR
000156:
000157:                                                                                                  #  GOTOADDR CONTAINS THE ADDRESS OF THE ROLL COMMAND EQUATIONS APPROPRIATE TO THE CURRENT PHASE OF
000158:                                                                                                  #  RE-ENTRY.  SEQUENCING IS AS FOLLOWS:
000159:
000160:                                                                                                  #  INITROLL      ADDRESS IS SET HERE INITIALLY. HOLDS INITIAL ROLL ATTITUDE UNTIL KAT  IS EXCEEDED. THEN HOLDS NEW ROLL
000161:                                                                                                  #                ATTITUDE UNTIL  VRTHRESH  IS EXCEEDED.  THEN BRANCHES TO
000162:
000163:                                                                                                  #  HUNTEST       THIS SECTION CHECKS TO SEE IF THE PREDICTED RANGE AT NOMINAL   L/D FROM PRESENT CONDITIONS IS LESS
000164:                                                                                                  #                THAN THE DESIRED RANGE.
000165:                                                                                                  #                  IF NOT - A ROLL COMMAND IS GENERATED BY THE CONSTANT DRAG CONTROLLER.
000166:                                                                                                  #                  IF SO - CONTROL AND GOTOADDR ARE SET TO  UPCONTRL.
000167:                                                                                                  #                USUALLY NO ITERATION IS INVOLVED EXCEPT IF THE RANGE DESIRED IS TOO LONG ON THE FIRST PASS THROUGH
000168:                                                                                                  #                HUNTEST.
000169:
000170:                                                                                                  #  UPCONTRL      CONTROLS ROLL DURING THE SUPER-CIRCULAR PHASE.  UPCONTRL IS TERMINATED EITHER
000171:                                                                                                  #                  (A)  WHEN THE DRAG (AS MEASURED BY THE PIPAS) FALLS BELOW Q7, OR
000172:                                                                                                  #                  (B)  IF RDOT IS NEGATIVE AND REFERENCE VL EXCEEDS V.
000173:                                                                                                  #                IN CASE (A),  GOTOADDR  IS SET TO  KEP2  AND IN CASE (B), TO  PREDICT3  SKIPPING THE KEPLER PHASE OF
000174:                                                                                                  #                ENTRY.
000175:
000176:                                                                                                  #  KEP2          GOTOADDR IS SET HERE DURING THE KEPLER PHASE TO MONITOR DRAG. THE SPACECRAFT IS INSTANTANEOUSLY
000177:                                                                                                  #                TRIMMED IN PITCH AND YAW TO THE COMPUTED RELATIVE VELOCITY. THE LAST COMPUTED ROLL ANGLE IS MAINTAINED.
000178:                                                                                                  #                WHEN THE MEASURED DRAG EXCEEDS Q7 +0.5,  GOTOADDR  IS SET TO
000179:
000180:                                                                                                  #  PREDICT3      THIS CONTROLS THE FINAL SUB-ORBITAL PHASE. ROLL COMMANDS CEASE
000181:                                                                                                  #                WHEN  V  IS LESS THAN VQUIT. AN EXIT IS MADE TO
000182:
000183:                                                                                                  #  P67.1         THE LAST COMPUTED ROLL ANGLE IS MAINTAINED. RATE DAMPING IS DONE IN PITCH AND YAW. PRESENT LATITUDE
000184:                                                                                                  #                AND LONGITUDE ARE COMPUTED FOR DISPLAY.
000185:                                                                                                  #                ENTRY IS TERMINATED WHEN DISKY RESPONSE IS MADE TO TO THIS FINAL FLASHING DISPLAY.
000186:


000188:                                                                                                  #  PROCESS AVERAGE G OUTPUT...SCALE IT AND GET INPUT DATA
000189:
000190:
000191:                                                                                                  #  * START  TARGETING ...
000192:
000193: 25,2125  E7,1451                                  EBANK=   RTINIT
000194:
000195:                                                                                                  #  TARGETNG IS CALLED BY P61, FROM GROUP 4.
000196:                                                                                                  #  TARGETNG IS CALLED BY ENTRY, FROM GROUP 5.
000197:
000198:                                                                                                  #  ALL MM COME HERE.
000199: 25,2125           77214        TARGETNG           BOFF     VLOAD                                 #  ENTER WITH PROPER EB FROM CM/POSE(TEST)
000200: 25,2126           03346                                    RELVELSW                              #  RELVELSW = 96D BIT9
000201: 25,2127           52133                                    GETVEL                                #  WANT INERTIAL VEL. GO GET IT.
000202: 25,2130           03526                                    -VREL                                 #  NEW V   IS RELATIVE, CONTINUE
000203:
000204: 25,2131           52076                           VCOMP    GOTO                                  #  (VREL) = (V) + KWE UNITR*UNITW
000205: 25,2132           52136                                    GETUNITV   -1                         #  - VREL WAS LEFT BY CM/POSE
000206:
000207: 25,2133           74375        GETVEL             VLOAD    VXSC                                  #  INERTIAL V WANTED
000208: 25,2134           01036                                    VN                                    #  KVSCALE = (12800 / .3048) / 2VS
000209: 25,2135           15232                                    KVSCALE                               #  KVSCALE = .81491944
000210: 25,2136           03516                 -1        STORE    VEL                                   #  V/2 VS
000211: 25,2137           44056        GETUNITV           UNIT     STQ
000212: 25,2140           03373                                    60GENRET
000213: 25,2141           17510                           STODL    UNITV
000214: 25,2142           00043                                    34D
000215: 25,2143           03622                           STORE    VSQUARE                               #  VSQ/4
000216:
000217: 25,2144           77625                           DSU                                            #  LEQ = VSQUARE - 1
000218: 25,2145           15326                                    FOURTH                                #  4 G-S FULL SCALE
000219: 25,2146           17654                           STODL    LEQ                                   #  LEQ/4
000220:
000221: 25,2147           00045                                    36D
000222: 25,2150           27674                           STOVL    V                                     #  V/2 VS = VEL/2 VS
000223:
000224: 25,2151           03516                                    VEL
000225: 25,2152           72441                           DOT      SL1                                   #  RDOT= V.UNITR
000226: 25,2153           01756                                    UNITR
000227: 25,2154           27700                           STOVL    RDOT                                  #  RDOT / 2 VS
000228:
000229: 25,2155           01315                                    DELV                                  #  PIPA COUNTS IN PLATFORM COORDS.
000230: 25,2156           41246                           ABVAL    DMP
000231: 25,2157           15234                                    KASCALE
000232: 25,2160           53152                           SL1      BZE
000233: 25,2161           55136                                    SETMIND
000234: 25,2162           27640        DSTORE             STOVL    D                                     #  ACCELERATION USED TO APPROX DRAG
000235: 25,2163           03516                                    VEL
000236: 25,2164           53435                           VXV      UNIT                                  #  UNI = UNIT(V*R)
000237: 25,2165           01756                                    UNITR


000239: 25,2166           03502                           STORE    UNI                                   #  .5 UNI                REF COORDS.
000240:
000241: 25,2167           71214                           BOFF     DLOAD
000242: 25,2170           03346                                    RELVELSW
000243: 25,2171           55077                                    GETETA
000244: 25,2172           15336                                    3ZEROS
000245: 25,2173           43225        UPDATERT           DSU      DAD                                   #  PIPTIME-TIME/RTO =ELAPSED TIME SINCE
000246:                                                                                                  #  RTINIT  WAS ESTABLISHED.
000247: 25,2174           03524                                    TIME/RTO
000248: 25,2175           01044                                    PIPTIME
000249: 25,2176           37606                           STCALL   DTEAROT                               #  GET PREDICTED TARGET VECTOR  RT
000250:
000251: 25,2177           46223                                    EARROT2
000252: 25,2200           40241                           DOT      SETPD                                 #  SINCE (RT) UNIT VECT, THIS IS 1/4 MAX
000253: 25,2201           03502                                    UNI                                   #  LATANG = RT.UNI
000254: 25,2202           00001                                    0
000255: 25,2203           27676                           STOVL    LATANG                                #  LATANG = MAC LATANG / 4
000256:
000257: 25,2204           03474                                    RT
000258: 25,2205           77614                           CLEAR
000259: 25,2206           03667                                    GONEBY                                #  SHOW HAVE NOT GONE PAST TARGET.
000260: 25,2207           50235                           VXV      DOT                                   #  IF RT*UNITR.UNI NEG, GONEBY=1
000261: 25,2210           01756                                    UNITR                                 #  GONEPAST IS CONDITIONAL SW SET IN
000262: 25,2211           03502                                    UNI                                   #  FINAL PHASE.
000263: 25,2212           43044                           BPL      SET
000264: 25,2213           52215                                    +2
000265: 25,2214           03467                                    GONEBY                                #  SHOW HAVE     GONE PAST TARGET.
000266:
000267: 25,2215           77775                           VLOAD
000268: 25,2216           03474                                    RT
000269: 25,2217           45241        GETANGLE           DOT      DSU                                   #  THETA = ARCCOS(RT.UNITR)
000270: 25,2220           01756                                    UNITR
000271: 25,2221           15164                                    NEAR1/4                               #  TO IMPROVE ACCURACY, CALC RANGE BY
000272: 25,2222           43244                           BPL      DAD                                   #  TINYTHET IF HIGH ORDER PART OF
000273: 25,2223           55141                                    TINYTHET                              #  ARCCOS ARGUMENT IS ZERO
000274: 25,2224           15164                                    NEAR1/4
000275: 25,2225           65552                           SL1      ACOS
000276: 25,2226           03702        THETDONE           STORE    THETAH                                #  THETAH/360
000277:                                                                                                  #  HI WORD, LO BIT =1.32 NM=360 60/16384
000278:
000279: 25,2227           57414                           BON      DCOMP
000280: 25,2230           03707                                    GONEBY                                #  =1 IF HAVE GONE PAST TARGET.
000281:                                                                                                  #  (SIGN MAY BECOME ERRATIC VERY NEAR
000282:                                                                                                  #  TARGET DUE TO LOSS OF PRECISION.)
000283: 25,2231           52232                                    +1
000284: 25,2232           17714                           STODL    RTGON67                               #  RANGE ERROR:  NEG IF WILL FALL SHORT.
000285:
000286: 25,2233           03640                                    D
000287: 25,2234           50025                           DSU      BMN
000288: 25,2235           15242                                    .05G


000290: 25,2236           52255                                    NO.05G
000291: 25,2237           77214                           SET      VLOAD
000292: 25,2240           03074                                    .05GSW
000293: 25,2241           03432                                    DELVREF
000294: 25,2242           50206                           PUSH     DOT
000295: 25,2243           03542                                    UXA/2
000296: 25,2244           63552                           SL1      DSQ
000297: 25,2245           47515                           PDVL     VSQ                                   #  EXCHANGE WITH PDL.
000298: 25,2246           56225                           DSU      DDV
000299: 25,2247           00001                                    0
000300: 25,2250           75400                           BOV      SQRT
000301: 25,2251           52253                                    NOLDCALC                              #  OVFL LAST CLEARED IN EARROT2 ABOVE.
000302: 25,2252           03727                           STORE    L/DCALC
000303:
000304: 25,2253           77650        NOLDCALC           GOTO
000305: 25,2254           03373                                    60GENRET
000306:
000307: 25,2255           52014        NO.05G             CLEAR    GOTO                                  #  THIS WAY FOR DAP.(MAY INTERRUPT)
000308: 25,2256           03274                                    .05GSW                                #  .05GSW = 102D B3
000309: 25,2257           52253                                    NOLDCALC                              #  KEEP SINGLE EXIT FOR TARGETNG
000310:


000312:                                                                                                  #  SUBROUTINES CALLED BY SCALEPOP (TARGETING):
000313:
000314: 26,2000                                           SETLOC   REENTRY1
000315: 26,2000                                           BANK
000316:
000317: 26,3077                                           COUNT*   $$/ENTRY
000318:
000319: 26,3077           56345        GETETA             DLOAD    DDV                                   #  D = D +D(-RDOT/HS -2D/V)  DT/2
000320:                                                                                                  #  DT/2 = 2/2 =1
000321: 26,3100           03700                                    RDOT
000322: 26,3101           15320                                    -HSCALED
000323: 26,3102           41325                           PDDL     DMP
000324: 26,3103           03640                                    D
000325: 26,3104           15322                                    -KSCALE
000326: 26,3105           43271                           DDV      DAD
000327: 26,3106           03674                                    V
000328:                                                                                                  #  -RDOT/HS FROM PDL.
000329: 26,3107           43205                           DMP      DAD
000330: 26,3110           03640                                    D
000331: 26,3111           03640                                    D
000332: 26,3112           03640                           STORE    D
000333:
000334: 26,3113           71214                           BON      DLOAD                                 #  EGSW INDICATES FINAL PHASE.
000335: 26,3114           03307                                    EGSW
000336: 26,3115           55122                                    SUBETA
000337: 26,3116           03702                                    THETAH
000338: 26,3117           52005                           DMP      GOTO
000339: 26,3120           15236                                    KTETA                                 #  = 1000X2PI/(2)E14 163.84
000340: 26,3121           52173                                    UPDATERT
000341:
000342: 26,3122           45345        SUBETA             DLOAD    DSU                                   #  SWITCH FROM INERTIAL TO RELATIVE VEL.
000343: 26,3123           03674                                    V
000344: 26,3124           15326                                    VMIN
000345: 26,3125           43044                           BPL      SET
000346: 26,3126           55130                                    SUBETA2
000347: 26,3127           03066                                    RELVELSW
000348:
000349: 26,3130           41345        SUBETA2            DLOAD    DMP
000350:
000351: 26,3131           03702                                    THETAH
000352: 26,3132           15240                                    KT1                                   #  KT1 = KT
000353: 26,3133           52071                           DDV      GOTO
000354: 26,3134           03674                                    V                                     #  KT = RE(2 PI)/2 VS 16384 163.84/ 2 VSAT
000355: 26,3135           52173                                    UPDATERT
000356:
000357: 26,3136           52145        SETMIND            DLOAD    GOTO
000358: 26,3137           16425                                    1BITDP
000359: 26,3140           52162                                    DSTORE
000360:
000361: 26,3141           51425        TINYTHET           DSU      ABS                                   #  ENTER WITH X-.249


000363: 26,3142           16426                                    1BITDP     +1                         #  GET 1/4 - MPAC
000364: 26,3143           75461                           SL       SQRT                                  #  SCALE UP BEFORE SQRT
000365: 26,3144           20216                                    13D                                   #  HAS FACTOR FOR UP SCALING
000366: 26,3145           52005                           DMP      GOTO
000367: 26,3146           15250                                    KACOS
000368: 26,3147           52226                                    THETDONE
000369:


000371:                                                                                                  #  * START       INITIAL ROLL ...
000372:
000373: 25,2000                                           SETLOC   REENTRY
000374: 25,2000                                           BANK
000375:
000376: 25,2260                                           COUNT*   $$/ENTRY
000377:
000378:                                                                                                  #  MM = 63 , 64 ..
000379: 25,2260           43014        INITROLL           BON      BOFF                                  #  IF D- .05G NEG, GO TO LIMITL/D
000380: 25,2261           03312                                    INRLSW
000381: 25,2262           52362                                    INITRL1
000382: 25,2263           03354                                    .05GSW
000383: 25,2264           53524                                    LIMITL/D
000384:
000385:                                                                                                  #  MM = 64, NOW
000386:
000387:                                                                                                  #              3
000388:                                                                                                  #  KA = KA1 LEQ  + KA2
000389: 25,2265           63545                           DLOAD    DSQ
000390: 25,2266           03654                                    LEQ
000391: 25,2267           56205                           DMP      DDV
000392: 25,2270           03654                                    LEQ
000393: 25,2271           15306                                    1/KA1                                 #  = 25 /(64  1.8)
000394: 25,2272           47015                           DAD      RTB
000395: 25,2273           15310                                    KA2                                   #  = .2
000396: 25,2274           54432                                    P64                                   #  ROLLC         VI              RDOT
000397:                                                                                                  #  XXX.XX DEG    XXXXX. FPS      XXXXX. FPS
000398: 25,2275           03720                           STORE    KAT
000399:
000400: 25,2276           50025                           DSU      BMN
000401: 25,2277           15316                                    KALIM
000402: 25,2300           52304                                    +4
000403: 25,2301           77745                           DLOAD
000404: 25,2302           15316                                    KALIM
000405: 25,2303           03720                           STORE    KAT
000406: 25,2304           45345                           DLOAD    DSU                                   #  IF V-VFINAL1 NEG, GO TO FINAL PHASE.
000407: 25,2305           03674                                    V
000408: 25,2306           15304                                    VFINAL1
000409: 25,2307           51014                           CLEAR    BPL                                   #  (CAN'T CLEAR INRLSW AFTER HERE: RESTARTS)
000410: 25,2310           03265                                    GONEPAST                              #  GONEPAST WAS INITIALLY SET=1 TO FORCE
000411:                                                                                                  #  ROLLC TO REMAIN AS DEFINED BY HEADSUP
000412:                                                                                                  #  UNTIL START OF P64. (UNTIL D > .05G)
000413: 25,2311           52316                                    D0EQ
000414: 25,2312           52131                           SSP      GOTO
000415: 25,2313           03646                                    GOTOADDR
000416: 25,2314           53316                                    KEP2                                  #  AND IDLE UNTIL D>0.2 G.  (NO P66 HERE)
000417: 25,2315           52351                                    INROLOUT                              #  GO TO LIMITL/D AFTER SETTING INRLSW.
000418:
000419: 25,2316           41345        D0EQ               DLOAD    DMP                                   #  D0 = KA3 LEQ + KA4
000420: 25,2317           03654                                    LEQ


000422: 25,2320           15312                                    KA3
000423: 25,2321           77615                           DAD
000424: 25,2322           15314                                    KA4
000425: 25,2323           03710                           STORE    D0                                    #  D0/805
000426: 25,2324           40065                           BDDV     BOV
000427: 25,2325           15270                                    C001                                  #  (-4/25 G) B-8
000428: 25,2326           52327                                    +1                                    #  CLEAR OVFIND, IF ON.
000429: 25,2327           17706                           STODL    C/D0                                  #  (-4/D0) B-8
000430: 25,2330           03624                                    LAD                                   #  IF V-VFINAL +K(RDOT/V)CUBED POS,L/D=-LAD
000431: 25,2331           17634                           STODL    L/D
000432: 25,2332           03700                                    RDOT
000433: 25,2333           41471                           DDV      PUSH
000434: 25,2334           03674                                    V
000435: 25,2335           41316                           DSQ      DMP
000436: 25,2336           45271                           DDV      DSU
000437: 25,2337           15300                                    1/K44
000438: 25,2340           15302                                    VFINAL
000439:                                                                                                  #                    3
000440:                                                                                                  #  V-VFINAL +(RDOT/V)  / K44     OVFL $
000441:
000442: 25,2341           40015                           DAD      BOV
000443: 25,2342           03674                                    V
000444: 25,2343           52351                                    INROLOUT                              #  GO TO LIMITL/D AFTER SETTING INRLSW.
000445: 25,2344           71240                           BMN      DLOAD
000446: 25,2345           52351                                    INROLOUT                              #  GO TO LIMITL/D AFTER SETTING INRLSW.
000447: 25,2346           03624                                    LAD
000448: 25,2347           77676                           DCOMP
000449: 25,2350           03634                           STORE    L/D
000450:
000451:                                                                                                  #  SET INRLSW AT END FOR RESTART PROTECTION
000452: 25,2351           77614        INROLOUT           BOFSET                                         #  END OF PRE .05G PATH OF INITROLL.
000453: 25,2352           03052                                    INRLSW                                #  SWITCH IS ZERO INITIALLY.
000454: 25,2353           53524                                    LIMITL/D                              #  (GO TO)
000455:
000456: 25,2354           45345        KATEST             DLOAD    DSU                                   #  IF KAT - D POS, GO TO CONSTD
000457: 25,2355           03720                                    KAT
000458: 25,2356           03640                                    D                                     #  IF POS, OUT WITH COMMAND VIA LIMITL/D
000459: 25,2357           52044                           BPL      GOTO
000460: 25,2360           53524                                    LIMITL/D
000461: 25,2361           53231                                    CONSTD
000462:
000463: 25,2362           43345        INITRL1            DLOAD    DAD                                   #  IF RDOT + VRCONT POS, GO TO HUNTEST
000464: 25,2363           03700                                    RDOT
000465: 25,2364           15262                                    VRCONT
000466: 25,2365           45040                           BMN      CALL                                  #  IF POSITIVE, FALL INTO HUNTEST.
000467: 25,2366           52354                                    KATEST
000468:
000469: 25,2367           53021                                    FOREHUNT                              #  INITIALIZE HUNTEST.
000470:


000472:
000473:                                                                                                  #  * START       HUNT TEST  ..
000474:
000475:                                                                                                  #  MM = 64
000476: 25,2370           77731                           SSP                                            #  INITIALIZE HUNTEST ON FIRST PASS
000477: 25,2371           03646                                    GOTOADDR
000478: 25,2372           52373                                    HUNTEST                               #  MUST GO AFTER FOREHUNT FOR RESTARTS.
000479:
000480: 25,2373           77745        HUNTEST            DLOAD
000481: 25,2374           03640                                    D
000482: 25,2375           17664                           STODL    A1                                    #  A1/805 = A1/25G
000483:
000484: 25,2376           03624                                    LAD
000485: 25,2377           17647                           STODL    TEM1B
000486: 25,2400           03700                                    RDOT
000487: 25,2401           71240                           BMN      DLOAD                                 #  IF RDOT NEG,TEM1B=LAD, OTHERWISE = LEWD
000488: 25,2402           52406                                    A0CALC
000489: 25,2403           03725                                    LEWD
000490: 25,2404           17647                           STODL    TEM1B
000491:
000492: 25,2405           03700                                    RDOT
000493: 25,2406           43271        A0CALC             DDV      DAD                                   #  V1 = V + RDOT/TEM1B
000494: 25,2407           03647                                    TEM1B
000495: 25,2410           03674                                    V
000496: 25,2411           14326                           STODL    V1                                    #  V1/2 VS
000497:
000498: 25,2412           03700                                    RDOT
000499: 25,2413           56316                           DSQ      DDV                                   #  A0=(V1/V)SQ(D+RDOT SQ/(TEM1B 2 C1 HS)
000500: 25,2414           03647                                    TEM1B
000501: 25,2415           43271                           DDV      DAD
000502: 25,2416           15274                                    2C1HS
000503: 25,2417           03640                                    D
000504: 25,2420           41205                           DMP      DMP
000505: 25,2421           00326                                    V1
000506: 25,2422           00326                                    V1
000507: 25,2423           77671                           DDV
000508: 25,2424           03622                                    VSQUARE
000509: 25,2425           14330                           STODL    A0                                    #  A0/805 = A0/25G
000510:
000511: 25,2426           03700                                    RDOT
000512: 25,2427           71244                           BPL      DLOAD
000513: 25,2430           52433                                    V1LEAD
000514: 25,2431           00330                                    A0
000515: 25,2432           03664                           STORE    A1                                    #  A1/25G
000516:
000517: 25,2433           51145        V1LEAD             DLOAD    BPL                                   #  IF L/D NEG, V1=V1 - 1000
000518: 25,2434           03634                                    L/D
000519: 25,2435           52442                                    HUNTEST1
000520:
000521: 25,2436           45345                           DLOAD    DSU
000522: 25,2437           00326                                    V1


000524: 25,2440           15216                                    VQUIT
000525: 25,2441           00326                           STORE    V1
000526:
000527: 25,2442           41345        HUNTEST1           DLOAD    DMP                                   #  ALP = 2 C1 HS A0/LEWD V1 V1
000528: 25,2443           00330                                    A0
000529: 25,2444           15274                                    2C1HS
000530: 25,2445           40271                           DDV      SETPD
000531: 25,2446           00326                                    V1
000532: 25,2447           00001                                    0
000533: 25,2450           56271                           DDV      DDV
000534: 25,2451           00326                                    V1
000535: 25,2452           03725                                    LEWD
000536: 25,2453           03704                           STORE    ALP
000537:
000538: 25,2454           55221                           BDSU     BDDV                                  #  FACT1 = V1 / (1 - ALP)
000539: 25,2455           15344                                    BARELY1
000540: 25,2456           00326                                    V1
000541: 25,2457           17616                           STODL    FACT1                                 #  FACT1 / 2VS
000542:
000543: 25,2460           03704                                    ALP
000544: 25,2461           41225                           DSU      DMP                                   #  FACT2 = ALP(ALP - 1) / A0
000545: 25,2462           15344                                    BARELY1
000546: 25,2463           03704                                    ALP
000547: 25,2464           77671                           DDV
000548: 25,2465           00330                                    A0
000549: 25,2466           03620                           STORE    FACT2                                 #  FACT2 (25G)
000550:
000551: 25,2467           43205                           DMP      DAD
000552: 25,2470           03175                                    Q7                                    #  Q7 /805 = Q7 / 25G
000553: 25,2471           03704                                    ALP                                   #  VL=FACT1 (1-SQRT(Q7 FACT2 +ALP) )
000554: 25,2472           44366                           SQRT     BDSU
000555: 25,2473           15344                                    BARELY1
000556: 25,2474           77605                           DMP
000557: 25,2475           03616                                    FACT1
000558: 25,2476           03757                           STORE    VL                                    #  VL / 2 VS
000559:
000560: 25,2477           41221                           BDSU     DMP                                   #  GAMMAL1 = LEWD (V1-VL)/VL
000561: 25,2500           00326                                    V1
000562: 25,2501           03725                                    LEWD
000563: 25,2502           77671                           DDV
000564: 25,2503           03757                                    VL
000565: 25,2504           14027                           STODL    GAMMAL1                               #  GAMMAL1 USED IN UPCONTROL
000566:
000567:                                                                                                  #  GAMMAL1 = PDL 22D.
000568: 25,2505           03757                                    VL
000569: 25,2506           50025                           DSU      BMN                                   #  IF VL-VLMIN NEG, GO TO PREFINAL
000570: 25,2507           15206                                    VLMIN
000571: 25,2510           53332                                    PREFINAL
000572:
000573: 25,2511           63545                           DLOAD    DSQ


000575: 25,2512           03757                                    VL
000576: 25,2513           17666                           STODL    VBARS                                 #  VBARS / 4 VS VS
000577:
000578: 25,2514           15334                                    HALVE                                 #  IF VSAT-VL NEG, GO TO CONSTD
000579: 25,2515           50025                           DSU      BMN
000580: 25,2516           03757                                    VL
000581: 25,2517           53225                                    BECONSTD                              #  SET MODE=HUNTEST, CONTINUE IN CONSTD
000582: 25,2520           17662                           STODL    DVL                                   #  DVL / 2VS
000583:
000584: 25,2521           15334                                    HALVE
000585: 25,2522           03672                           STORE    VS1                                   #  VS1 = VSAT
000586:
000587: 25,2523           50025                           DSU      BMN                                   #  IF V1 GREATER THAN VSAT, GO ON
000588: 25,2524           00326                                    V1
000589: 25,2525           52533                                    GETDHOOK
000590: 25,2526           77621                           BDSU
000591: 25,2527           03662                                    DVL
000592: 25,2530           17662                           STODL    DVL                                   #  DVL = DVL - (VSAT-V1) = V1 - VL
000593: 25,2531           00326                                    V1
000594: 25,2532           03672                           STORE    VS1                                   #  VS1 = V1, IN THIS CASE
000595:
000596: 25,2533           45145        GETDHOOK           DLOAD    CALL                                  #  DHOOK=((1-VS1/FACT1) SQ -ALP)/FACT2
000597: 25,2534           03672                                    VS1                                   #  VS1 / 2 VS
000598: 25,2535           53003                                    DHOOKYQ7                              #  GO CALC DHOOK
000599: 25,2536           03656                           STORE    DHOOK                                 #  DHOOK / 25G
000600:
000601: 25,2537           56261                           SR       DDV
000602: 25,2540           20607                                    6                                     #  CHOOK
000603: 25,2541           03175                                    Q7
000604: 25,2542           77625                           DSU
000605: 25,2543           15252                                    CHOOK                                 #  = .25/16 = (-6)
000606: 25,2544           03660                           STORE    AHOOKDV
000607:
000608: 25,2545           41215                           DAD      DMP                                   #  GAMMAL= GAMMAL1-CH1 DVL SQ(1+AHOOK DVL)
000609: 25,2546           31771                                    1/16TH
000610: 25,2547           15256                                    CH1
000611: 25,2550           41205                           DMP      DMP
000612: 25,2551           03662                                    DVL
000613: 25,2552           03662                                    DVL
000614: 25,2553           56271                           DDV      DDV
000615: 25,2554           03656                                    DHOOK
000616: 25,2555           03666                                    VBARS
000617: 25,2556           50021                           BDSU     BMN
000618: 25,2557           00027                                    GAMMAL1
000619: 25,2560           52750                                    NEGAMA
000620: 25,2561           03761        HUNTEST3           STORE    GAMMAL
000621:
000622: 25,2562           77625                           DSU                                            #  GAMMAL1=GAMMAL1 +Q19 (GAMMAL-GAMMAL1)
000623: 25,2563           00027                                    GAMMAL1
000624: 25,2564           43205                           DMP      DAD


000626: 25,2565           15334                                    Q19
000627: 25,2566           00027                                    GAMMAL1
000628: 25,2567           14027                           STODL    GAMMAL1
000629: 25,2570           03761                                    GAMMAL
000630:


000632:
000633:                                                                                                  #  *START        RANGE PREDICTION ...
000634:
000635:                                                                                                  #  C(MPAC) = GAMMAL
000636: 25,2571           60516        RANGER             DSQ      SR2                                   #  COSG = 1-GAMMAL SQ/2, TRUNCATED SERIES
000637: 25,2572           77621                           BDSU
000638: 25,2573           15334                                    HALVE
000639: 25,2574           17670                           STODL    COSG/2
000640: 25,2575           03666                                    VBARS                                 #  E=SQRT(1+VBARS........
000641:
000642: 25,2576           41225                           DSU      DMP
000643: 25,2577           15334                                    HALVE
000644: 25,2600           03666                                    VBARS
000645: 25,2601           41205                           DMP      DMP
000646: 25,2602           03670                                    COSG/2
000647: 25,2603           03670                                    COSG/2
000648: 25,2604           43312                           SL2      DAD
000649: 25,2605           31771                                    C1/16                                 #  C1/16 = 1/16
000650: 25,2606           65366                           SQRT     PDDL                                  #  E/4 INTO PDL
000651:
000652: 25,2607           03666                                    VBARS
000653: 25,2610           41205                           DMP      DMP                                   #  ASKEP/2 = ARCSIN(VBARS COSG SING/E)
000654: 25,2611           03670                                    COSG/2
000655: 25,2612           03761                                    GAMMAL
000656: 25,2613           67471                           DDV      ASIN
000657: 25,2614           41552                           SL1      PUSH                                  #  ASKEP TO PDL 0.
000658: 25,2615           17731                           STODL    ASKEP                                 #  BALLISTIC RANGE       ASKEP/2PI
000659:
000660:                                                                                                  #  FOR TM, STORE RANGE COMPONENTS OVERLAPPING (SP)
000661: 25,2616           03757                                    VL
000662: 25,2617           43205                           DMP      DAD                                   #  ASP1 = Q2 + Q3 VL
000663: 25,2620           15172                                    Q3
000664: 25,2621           03712                                    Q2
000665: 25,2622           03732                           STORE    ASP1                                  #  FINAL PHASE RANGE     ASP1/2 PI
000666:
000667: 25,2623           63525                           PDDL     DSQ                                   #  ASP1 TO PDL 2.
000668: 25,2624           00326                                    V1
000669:                                                                                                  #                    2
000670:                                                                                                  #  ASPUP= -C12 LOG(V1 Q7/VBARS A0)/GAMMAL1
000671: 25,2625           56205                           DMP      DDV
000672: 25,2626           03175                                    Q7
000673: 25,2627           03666                                    VBARS
000674: 25,2630           45071                           DDV      CALL
000675: 25,2631           00330                                    A0
000676: 25,2632           46155                                    LOG                                   #  RETURN WITH -LOG IN MPAC
000677:
000678: 25,2633           56205                           DMP      DDV
000679: 25,2634           15210                                    C12
000680: 25,2635           00027                                    GAMMAL1
000681: 25,2636           03733                           STORE    ASPUP                                 #  UP PHASE RANGE        ASPUP / 2 PI


000683: 25,2637           41325                           PDDL     DMP                                   #  ASPUP TO PDL 4.
000684: 25,2640           15260                                    KC3                                   #  KC3 =-4 VS VS/ 2 PI 805 RE
000685:                                                                                                  #  ASPDWN = KC3 RDOT V / A0
000686: 25,2641           03700                                    RDOT
000687: 25,2642           56205                           DMP      DDV
000688: 25,2643           03674                                    V
000689: 25,2644           00330                                    A0
000690: 25,2645           41471                           DDV      PUSH                                  #  ASPDWN TO PDL 6.
000691: 25,2646           03624                                    LAD
000692: 25,2647           17734                           STODL    ASPDWN                                #  RANGE TO PULL OUT     ASPDWN /2 PI
000693:
000694: 25,2650           15176                                    Q6
000695: 25,2651           41225                           DSU      DMP                                   #  ASP3 = Q5(Q6-GAMMAL)
000696: 25,2652           03761                                    GAMMAL
000697: 25,2653           15174                                    Q5
000698: 25,2654           27735                           STOVL    ASP3                                  #  GAMMA CORRECTION      ASP3/2PI
000699:
000700: 25,2655           03731                                    ASKEP                                 #  GET HI-WD AND
000701: 25,2656           17126                           STODL    ASPS(TM)                              #  SAVE HI-WORD OF ASP'S FOR TM.
000702:
000703: 25,2657           03735                                    ASP3
000704: 25,2660           43215                           DAD      DAD
000705:                                                                                                  #  ASPDWN FROM PDL 6.
000706:                                                                                                  #  ASPUP FROM PDL 4.
000707: 25,2661           43215                           DAD      DAD
000708:                                                                                                  #  ASP1 FROM PDL 2.
000709:                                                                                                  #  ASKEP FROM PDL 0.
000710: 25,2662           41025                           DSU      BOVB                                  #  CLEAR OVFIND.
000711: 25,2663           03702                                    THETAH
000712: 25,2664           57544                                    TCDANZIG
000713: 25,2665           03610                           STORE    DIFF                                  #  DIFF = (ASP-THETAH) / 2 PI
000714:                                                                                                  #  ASP=ASKEP+ASP1+ASPUP+ASP3+ASPDWN = TOTAL RANGE
000715:
000716: 25,2666           45246                           ABS      DSU                                   #  IF ABS(THETAH-ASP) -25NM NEG, GO TO UPSY
000717: 25,2667           15224                                    25NM
000718: 25,2670           43040                           BMN      BON
000719: 25,2671           53032                                    GOTOUPSY
000720: 25,2672           03311                                    HIND
000721: 25,2673           52677                                    GETDLEWD
000722:
000723: 25,2674           51145                           DLOAD    BPL
000724: 25,2675           03610                                    DIFF
000725: 25,2676           53220                                    DCONSTD                               #  EVENTUALLY SETS MODE = HUNTEST.
000726: 25,2677           41345        GETDLEWD           DLOAD    DMP
000727:                                                                                                  #  DLEWD = DLEWD (DIFF/(DIFFOLD-DIFF))
000728: 25,2700           03642                                    DLEWD
000729: 25,2701           03610                                    DIFF
000730: 25,2702           45325                           PDDL     DSU
000731: 25,2703           03612                                    DIFFOLD
000732: 25,2704           03610                                    DIFF


000734: 25,2705           77665                           BDDV
000735: 25,2706           77626        LWDSTORE           STADR
000736: 25,2707           74135                           STORE    DLEWD
000737: 25,2710           50015                           DAD      BMN                                   #  IF LEWD+DLEWD NEG, DLEWD=-LEWD/2
000738: 25,2711           03725                                    LEWD
000739: 25,2712           52744                                    LEWDPTR
000740: 25,2713           77600                           BOV
000741: 25,2714           52740                                    LEWDOVFL
000742: 25,2715           03725                           STORE    LEWD
000743:
000744: 25,2716           77776        SIDETRAK           EXIT
000745:
000746: 25,2717           04606                           TC       E7SETTER
000747:
000748: 25,2720           35055                           CA       PRIO16                                #  DROP GRP 5 RESTART PRIO TO 1 LESS THAN
000749: 25,2721           55270                           TS       PHSPRDT5                              #  GRP 4.
000750:
000751: 25,2722           05402                           TC       PHASCHNG
000752: 25,2723           00474                           OCT      00474                                 #  RESTART GRP 4 AT PRE-HUNT.
000753:                                                                                                  #  FORCE RESTART TO PICK UP IN GRP 4:
000754:                                                                                                  #  USE PRIO 17 FOR GRP 4 (< SERVICER PRIO)
000755: 25,2724  01,2212               4P47SPT1           =        4.47SPOT
000756: 25,2724           35055                           CA       PRIO16                                #  CONTINUE GRP 5 AT LOWER PRIO THAN EITHER
000757:                                                                                                  #  GRP 4 OR SERVICER.
000758: 25,2725           05176                           TC       PRIOCHNG
000759:
000760: 25,2726           33031                           CAF      ADENDEXT                              #  SIDETRACK NEXT PASS UNTIL THIS ONE DONE.
000761: 25,2727           55645                           TS       GOTOADDR                              #  ONLY AFTER RESTART IS LEFT AFTER DETOUR.
000762:
000763: 25,2730           06006                           TC       INTPRET
000764:
000765: 25,2731           43145                           DLOAD    SET
000766: 25,2732           03610                                    DIFF
000767: 25,2733           03071                                    HIND
000768: 25,2734           17612                           STODL    DIFFOLD                               #  DIFFOLD / 2 PI
000769:
000770: 25,2735           15200                                    Q7F
000771: 25,2736           37175                           STCALL   Q7                                    #  Q7 / 805 FPSS
000772: 25,2737           52373                                    HUNTEST                               #   (GO TO)
000773:
000774: 25,2740           77745        LEWDOVFL           DLOAD
000775: 25,2741           15344                                    NEARONE
000776: 25,2742           37725                           STCALL   LEWD
000777: 25,2743           53220                                    DCONSTD                               #  (GO TO)  ALSO WILL SET MODE = HUNTEST
000778:
000779: 25,2744           70545        LEWDPTR            DLOAD    SR1
000780: 25,2745           03725                                    LEWD
000781: 25,2746           52076                           DCOMP    GOTO
000782: 25,2747           52706                                    LWDSTORE
000783:


000785:                                                                                                  #  NEGAMA IS PART OF HUNTEST ...
000786:
000787: 25,2750           41205        NEGAMA             DMP      DMP                                   #  ENTER WITH GAMMAL IN MPAC
000788: 25,2751           03757                                    VL
000789: 25,2752           15152                                    1/3RD
000790: 25,2753           41325                           PDDL     DMP                                   #  PUSH GAMMAL VL/3
000791: 25,2754           03725                                    LEWD
000792: 25,2755           15152                                    1/3RD
000793: 25,2756           43325                           PDDL     DAD                                   #  PUSH LEWD/3
000794: 25,2757           03660                                    AHOOKDV
000795: 25,2760           15254                                    1/24TH
000796: 25,2761           41205                           DMP      DMP                                   #  DEL VL = (GAMMAL VL/3)/(LEWD/3-DVL
000797: 25,2762           03662                                    DVL                                   #  (2/3 + AHOOKDV)(CH1 GS/DHOOK VL))
000798: 25,2763           15256                                    CH1
000799: 25,2764           56271                           DDV      DDV
000800: 25,2765           03656                                    DHOOK
000801: 25,2766           03757                                    VL
000802: 25,2767           55221                           BDSU     BDDV
000803:                                                                                                  #  LEWD/3
000804:                                                                                                  #  GAMMAL VL /3
000805: 25,2770           77615                           DAD
000806: 25,2771           03757                                    VL
000807: 25,2772           37757                           STCALL   VL                                    #  VL/2 VS
000808:
000809: 25,2773           53003                                    DHOOKYQ7                              #  GO CALC Q7
000810:                                                                                                  #  Q7=((1-VL/FACT1)SQ - ALP)/FACT2
000811: 25,2774           17175                           STODL    Q7                                    #  Q7 / 25G
000812:
000813: 25,2775           03757                                    VL
000814: 25,2776           77716                           DSQ
000815: 25,2777           17666                           STODL    VBARS                                 #  VBARS / 4 VS VS
000816:
000817: 25,3000           15336                                    3ZEROS
000818: 25,3001           77650                           GOTO                                           #  SET GAMMAL = 0
000819: 25,3002           52561                                    HUNTEST3
000820:
000821: 25,3003           56342        DHOOKYQ7           SR1      DDV                                   #  SUBROUTINE TO CALC DHOOK OR Q7)
000822: 25,3004           03616                                    FACT1
000823: 25,3005           72421                           BDSU     SL1
000824: 25,3006           15334                                    HALVE
000825: 25,3007           45316                           DSQ      DSU
000826: 25,3010           03704                                    ALP
000827: 25,3011           43471                           DDV      RVQ
000828: 25,3012           03620                                    FACT2
000829:


000831:                                                                                                  #  COME TO PRE-HUNT WHEN RESTART OCCURS AFTER
000832:                                                                                                  #  HUNTEST IS SIDE-TRACKED AT SIDETRAK.
000833:                                                                                                  #  PICK UP IN GROUP 4.
000834:
000835: 25,3013           06006        PRE-HUNT           TC       INTPRET
000836: 25,3014           45014                           CLEAR    CALL
000837: 25,3015           03271                                    HIND                                  #  HIND          99D  BIT 6  FLAG 6
000838: 25,3016           53021                                    FOREHUNT                              #  RE-INITIALIZE HUNTEST AFTER RE-START.
000839: 25,3017           77650                           GOTO
000840: 25,3020           52373                                    HUNTEST
000841:
000842: 25,3021           77745        FOREHUNT           DLOAD                                          #  INITIALIZE HUNTEST.
000843: 25,3022           15336                                    3ZEROS
000844: 25,3023           17612                           STODL    DIFFOLD
000845: 25,3024           15160                                    DLEWD0
000846: 25,3025           17642                           STODL    DLEWD
000847: 25,3026           15154                                    LEWD1
000848: 25,3027           03725                           STORE    LEWD
000849: 25,3030           77616                           RVQ
000850:
000851: 25,3031           53574        ADENDEXT           CADR     ENDEXIT
000852:


000854:
000855:                                                                                                  #  * START       UP CONTROL ...
000856:
000857:                                                                                                  #  MM = 65
000858: 25,3032           77634        GOTOUPSY           RTB                                            #  END OF HUNTEST
000859: 25,3033           54440                                    P65                                   #  HUNTEST USE OF GRP4 IS DISABLED BY P65
000860:                                                                                                  #  USE FOR DISPLAY.
000861:                                                                                                  #  SET MODE = UPCONTRL.
000862:                                                                                                  #  RETURN FROM P65 DIRECTLY TO UPCONTRL
000863:                                                                                                  #  VIA THE GOTOADDR AT REFAZE10.
000864:
000865: 25,3034           45345        UPCONTRL           DLOAD    DSU                                   #  IF D-140 POS, NOSWITCH =1
000866: 25,3035           03640                                    D                                     #  (SUPPRESS LATERAL SWITCH)
000867: 25,3036           15222                                    C21
000868: 25,3037           43040                           BMN      SET
000869: 25,3040           53042                                    +2
000870: 25,3041           03070                                    NOSWITCH
000871:
000872: 25,3042           45345                           DLOAD    DSU                                   #  IF V-V1 POS, GO TO DOWN CONTROL.
000873: 25,3043           03674                                    V
000874: 25,3044           00326                                    V1
000875: 25,3045           71244                           BPL      DLOAD
000876: 25,3046           53257                                    DOWNCNTL
000877: 25,3047           03640                                    D
000878: 25,3050           50025                           DSU      BMN                                   #  IF D- Q7 NEG, GO TO KEP
000879: 25,3051           03175                                    Q7
000880: 25,3052           53312                                    KEP
000881: 25,3053           51145                           DLOAD    BPL                                   #  IF RDOT NEG, DO VLTEST
000882: 25,3054           03700                                    RDOT
000883: 25,3055           53064                                    CONT1
000884:
000885: 25,3056           45345        VLTEST             DLOAD    DSU                                   #  IF V-VL-C18 NEG,EGSW=1,MODE=PREDICT3
000886: 25,3057           03674                                    V
000887: 25,3060           03757                                    VL
000888: 25,3061           50025                           DSU      BMN
000889: 25,3062           15166                                    C18
000890: 25,3063           53332                                    PREFINAL
000891:
000892: 25,3064           77745        CONT1              DLOAD                                          #  IF D-A0 POS, L/D = LAD, GO TO LIMITL/D
000893: 25,3065           03640                                    D
000894: 25,3066           50025                           DSU      BMN
000895: 25,3067           00330                                    A0
000896: 25,3070           53074                                    CONT3
000897: 25,3071           52145                           DLOAD    GOTO
000898: 25,3072           03624                                    LAD
000899: 25,3073           53523                                    STOREL/D
000900:
000901: 25,3074           41345        CONT3              DLOAD    DMP                                   #  VREF=FACT1(1-SQRT(FACT2 D + ALP))
000902: 25,3075           03640                                    D
000903: 25,3076           03620                                    FACT2


000905: 25,3077           75415                           DAD      SQRT
000906: 25,3100           03704                                    ALP
000907: 25,3101           41221                           BDSU     DMP
000908: 25,3102           15344                                    BARELY1
000909: 25,3103           03616                                    FACT1
000910: 25,3104           01312                           STORE    VREF                                  #  VREF / 2VS
000911:
000912: 25,3105           41221                           BDSU     DMP                                   #  RDOTREF = LEWD(V1-VREF)
000913: 25,3106           00326                                    V1
000914: 25,3107           03725                                    LEWD
000915: 25,3110           15310                           STODL    RDOTREF                               #  RDOTREF / 2VS
000916:
000917: 25,3111           03672                                    VS1
000918: 25,3112           50025                           DSU      BMN                                   #  IF VSAT-VREF NEG, GO TO CONTINU2
000919: 25,3113           01312                                    VREF
000920: 25,3114           53133                                    CONTINU2
000921:
000922: 25,3115           41406                           PUSH     PUSH                                  #  VS1-VREF  TO PDL TWICE
000923: 25,3116           56205                           DMP      DDV                                   #  RDHOOK=CH1(1+DV AHOOKDV/DVL) DV DV
000924: 25,3117           03660                                    AHOOKDV                               #        /DHOOK VREF
000925: 25,3120           03662                                    DVL                                   #  WHERE  DV = (VS1-VREF)
000926: 25,3121           41215                           DAD      DMP
000927: 25,3122           31771                                    1/16TH
000928: 25,3123           15256                                    CH1
000929: 25,3124           41205                           DMP      DMP
000930:                                                                                                  #  VS1-VREF  FROM PDL TWICE.
000931: 25,3125           77671                           DDV
000932: 25,3126           03656                                    DHOOK
000933: 25,3127           44271                           DDV      BDSU
000934: 25,3130           01312                                    VREF
000935: 25,3131           01310                                    RDOTREF                               #  C(RDOTREF)= LEWD (V1-VREF)
000936: 25,3132           01310                           STORE    RDOTREF                               #  RDOTREF = RDOTREF - RDHOOK
000937:
000938: 25,3133           45345        CONTINU2           DLOAD    DSU
000939: 25,3134           03640                                    D
000940: 25,3135           15344                                    Q7MIN
000941: 25,3136           50004                           BOVB     BMN
000942: 25,3137           57544                                    TCDANZIG                              #  CLEAR OVFL IND, IF ON.
000943: 25,3140           53151                                    UPCNTRL3
000944: 25,3141           45345                           DLOAD    DSU
000945: 25,3142           03664                                    A1
000946: 25,3143           03175                                    Q7
000947: 25,3144           45325                           PDDL     DSU
000948: 25,3145           03640                                    D
000949: 25,3146           03175                                    Q7
000950: 25,3147           45471                           DDV      STADR
000951: 25,3150           74163                           STORE    FACTOR                                #  FACTOR / 25G
000952:


000954:
000955:                                                                                                  #  SKIPPER
000956:
000957:                                                                                                  #  DELTA L/D=-((RDOT-RDOTREF)F1 KB1+V-VREF)F1 KB2
000958:                                                                                                  #        WHERE F1 = FACTOR
000959:
000960: 25,3151           77745        UPCNTRL3           DLOAD
000961: 25,3152           03700                                    RDOT
000962: 25,3153           41225                           DSU      DMP                                   #  L/D = LEWD
000963: 25,3154           01310                                    RDOTREF                               #  -((RDOT-RDOTREF)F1/KB1+V-VREF)F1/KB2
000964: 25,3155           03614                                    FACTOR
000965: 25,3156           43271                           DDV      DAD
000966: 25,3157           15212                                    1/KB1
000967: 25,3160           03674                                    V
000968: 25,3161           41225                           DSU      DMP
000969: 25,3162           01312                                    VREF
000970: 25,3163           03614                                    FACTOR
000971: 25,3164           41471                           DDV      PUSH
000972:
000973: 25,3165           15214                                    -1/KB2                                #  DELTA L/D INTO PDL
000974: 25,3166           51400                           BOV      ABS                                   #  NONLINEAR CIRCUIT FOR REDUCING HIGH GAIN
000975: 25,3167           53470                                    GOMAXL/D
000976: 25,3170           50025                           DSU      BMN
000977: 25,3171           15276                                    PT1/16
000978: 25,3172           53177                                    NEXT1
000979: 25,3173           43205                           DMP      DAD
000980: 25,3174           15156                                    POINT1
000981: 25,3175           15276                                    PT1/16
000982: 25,3176           41565                           SIGN     PUSH                                  #  ATTACH SIGN OF PUSH TO MPAC THEN PUSH
000983:
000984: 25,3177           42545        NEXT1              DLOAD    SL4
000985:                                                                                                  #  DELTA L/D FROM PDL.
000986: 25,3200           77615                           DAD
000987: 25,3201           03725                                    LEWD
000988: 25,3202           41400        NEGTESTS           BOV      PUSH                                  #  L/D TO PDL FOR USE IN NEGTESTS.
000989: 25,3203           53470                                    GOMAXL/D
000990: 25,3204           17634                           STODL    L/D
000991:                                                                                                  #  IF D-C20 POS, LATSW =0
000992:                                                                                                  #  AND IF L/D NEG, L/D = 0.
000993: 25,3205           03640                                    D
000994: 25,3206           50025                           DSU      BMN
000995: 25,3207           15220                                    C20
000996: 25,3210           53524                                    LIMITL/D
000997: 25,3211           71214                           CLEAR    DLOAD
000998: 25,3212           03273                                    LATSW                                 #  =21D.  ROLL OVER TOP, REGARDLESS.
000999:                                                                                                  #  L/D FROM PDL.
001000: 25,3213           71244                           BPL      DLOAD
001001: 25,3214           53524                                    LIMITL/D
001002: 25,3215           15336                                    3ZEROS
001003: 25,3216           37634                           STCALL   L/D
001004: 25,3217           53524                                    LIMITL/D                              #  (GO TO)
001005:


001007: 25,3220           77745        DCONSTD            DLOAD                                          #  TWO RANGER ENTRIES TO CONSTD HERE
001008: 25,3221           03610                                    DIFF
001009:                                                                                                  #  SAVE OLD VALUE OF DIFF FOR NEXT PASS.
001010: 25,3222           17612                           STODL    DIFFOLD                               #  DIFFOLD / 2 PI
001011:
001012: 25,3223           15200                                    Q7F
001013: 25,3224           03175                           STORE    Q7
001014:
001015: 25,3225           47131        BECONSTD           SSP      RTB                                   #  A HUNTEST ENTRY INTO CONSTD.
001016: 25,3226           03646                                    GOTOADDR                              #  RESET MODE TO HUNTEST
001017: 25,3227           52373                                    HUNTEST
001018: 25,3230           54505                                    KILLGRP4                              #  DEACTIVATE GRP4 FROM HUNTEST.
001019:
001020: 25,3231           77604        CONSTD             BOVB
001021: 25,3232           57544                                    TCDANZIG                              #  CLEAR OVF IND IF ON.
001022:
001023: 25,3233           41345                           DLOAD    DMP
001024: 25,3234           03654                                    LEQ
001025: 25,3235           03706                                    C/D0                                  #  C/D0 = -4/D0  B-8
001026: 25,3236           41325                           PDDL     DMP                                   #  LEQ C/D0  INTO PDL
001027: 25,3237           15264                                    2HS                                   #  2HS / 4 VS VS
001028: 25,3240           03710                                    D0
001029: 25,3241           43271                           DDV      DAD                                   #  RDOTREF = -2 HS D0/V
001030: 25,3242           03674                                    V
001031: 25,3243           03700                                    RDOT
001032: 25,3244           43205                           DMP      DAD
001033: 25,3245           15230                                    K2D                                   #  C/D0 LEQ + K2D(RDOT-RDOTREF) INTO PD
001034: 25,3246           77725                           PDDL
001035: 25,3247           03710                                    D0                                    #  D0 /805
001036:
001037: 25,3250           77621        CONSTD1            BDSU                                           #  ENTER WITH  DREF  IN MPAC
001038: 25,3251           03640                                    D
001039: 25,3252           43205                           DMP      DAD
001040: 25,3253           15226                                    K1D                                   #  K2D TERM FROM PUSH
001041: 25,3254           52061                           SL       GOTO
001042: 25,3255           20211                                    8D
001043: 25,3256           53202                                    NEGTESTS                              #  (GO TO)
001044:
001045:
001046: 25,3257           77604        DOWNCNTL           BOVB                                           #  INITIAL PART OF UPCONTROL.
001047: 25,3260           57544                                    TCDANZIG                              #  CLEAR OVFIND, IF ON.
001048:
001049: 25,3261           54345                           DLOAD    SR
001050: 25,3262           03624                                    LAD
001051: 25,3263           20611                                    8D
001052: 25,3264           45325                           PDDL     DSU                                   #  RDTR = LAD(V1-V)
001053: 25,3265           03674                                    V
001054: 25,3266           00326                                    V1
001055: 25,3267           43205                           DMP      DAD
001056: 25,3270           03624                                    LAD


001058: 25,3271           03700                                    RDOT
001059: 25,3272           43205                           DMP      DAD
001060: 25,3273           15230                                    K2D
001061:                                                                                                  #  PUSH UP LAD.
001062: 25,3274           45325                           PDDL     DSU                                   #  LAD + K2D(RDOT-RDTR) INTO PD
001063: 25,3275           00326                                    V1
001064: 25,3276           03674                                    V
001065: 25,3277           41316                           DSQ      DMP
001066: 25,3300           03624                                    LAD
001067: 25,3301           65271                           DDV      PDDL                                  #  (V1-V)SQ LAD/(2 C1 HS) INTO PD
001068: 25,3302           15274                                    2C1HS
001069: 25,3303           00326                                    V1
001070: 25,3304           56316                           DSQ      DDV
001071: 25,3305           03622                                    VSQUARE
001072: 25,3306           45265                           BDDV     DSU                                   #  DREF = (V/V1)SQ A0 - PD
001073: 25,3307           00330                                    A0
001074:                                                                                                  #  PUSH UP HERE
001075: 25,3310           77650                           GOTO                                           #  C(MPAC) = DREF
001076: 25,3311           53250                                    CONSTD1
001077:
001078:                                                                                                  #               2           2
001079:                                                                                                  #  DREF = (V/V1)  A0 -(V-V1)  LAD/2 C1 HS


001081:
001082:                                                                                                  #  * START       BALLISTIC PHASE ...
001083:
001084:                                                                                                  #  MM = 66       UPCONTRL ENTRY INTO KEP2.
001085: 25,3312           66234        KEP                RTB      SSP
001086: 25,3313           54473                                    P66                                   #  DISPLAY TRIM GIMBAL ANGLE VALUES.
001087: 25,3314           03646                                    GOTOADDR                              #  SET GOTOADDR TO KEPLER PHASE.
001088: 25,3315           53316                                    KEP2
001089:
001090:                                                                                                  #  KEP2 CAN ALSO BE STARTED UP DIRECTLY FROM INITROLL
001091:                                                                                                  #  IN P64. PROGRAM WILL IDLE IN P64 UNTIL D EXCEEDS
001092:                                                                                                  #  .2 G BEFORE GOING ON TO P67.
001093:
001094: 25,3316           45345        KEP2               DLOAD    DSU                                   #  IF Q7F+KDMIN -D NEG, GO TO FINAL PHASE.
001095: 25,3317           15170                                    Q7FKDMIN                              #  (Q7F + KDMIN)/805
001096: 25,3320           03640                                    D
001097: 25,3321           72240                           BMN      TLOAD
001098: 25,3322           53332                                    PREFINAL
001099:
001100:
001101:                                                                                                  #  SET ROLLHOLD = ROLLC, IN CASE CMDAPMOD
001102: 25,3323           03316                                    ROLLC                                 #  = +1 EVER ENTERED.
001103: 25,3324           72214                           BON      TLOAD                                 #  IF D > .05G, KEEP PRESENT ROLL COMMAND.
001104: 25,3325           03314                                    .05GSW                                #  IF D < .05G, SET ROLL COMMAND = 0.
001105: 25,3326           53330                                    +2
001106: 25,3327           15336                                    3ZEROS                                #  SET ROLLC & ROLLHOLD =0.
001107: 25,3330           37316                 +2        STCALL   ROLLC                                 #  (SP ROLLHOLD FOLLOWS DP ROLLC)
001108: 25,3331           54402                                    P62.3                                 #  CALC DESIRED GIMBAL ANGLES AT PRESENT
001109:                                                                                                  #  RN, VN TO YIELD TRIM ATTITUDE.
001110:                                                                                                  #  AVAILABLE IN CPHI'S FOR N22.


001112:
001113:                                                                                                  #  START         FINAL PHASE  ..
001114:
001115:                                                                                                  #  MM = 67
001116: 25,3332           47131        PREFINAL           SSP      RTB
001117: 25,3333           03646                                    GOTOADDR                              #  RESTART PROTECT: RESET GOTOADDR IF CAME
001118: 25,3334           53332                                    PREFINAL                              #  FROM HUNTEST.
001119: 25,3335           54477                                    P67                                   #  DISABLES GRP4. FINE IF FROM HUNTEST. BUT
001120:                                                                                                  #  MAY ALSO REMOVE RESTART PROTECTION OF
001121:                                                                                                  #  N69 (P65).
001122:                                                                                                  #  ROLLC         XRNGERR         DNRNGERR
001123:                                                                                                  #  XXX.XX DEG    XXXX.X NM       XXXX.X NM
001124:
001125: 25,3336           66214                           SET      SSP
001126: 25,3337           03067                                    EGSW
001127: 25,3340           03646                                    GOTOADDR
001128: 25,3341           53342                                    PREDICT3
001129:
001130:
001131: 25,3342           45345        PREDICT3           DLOAD    DSU                                   #  IF V-VQUIT NEG, STOP STEERING
001132: 25,3343           03674                                    V
001133: 25,3344           15216                                    VQUIT
001134: 25,3345           77440                           BMN      EXIT
001135: 25,3346           53611                                    STEEROFF
001136:
001137: 25,3347           04606                           TC       E7SETTER                              #  PRECAUTIONARY
001138:
001139: 25,3350           35775                           CA       TWELVE
001140: 25,3351           55761        BACK               TS       JJ
001141:
001142: 25,3352           41673                           CS       V
001143: 25,3353           51761                           INDEX    JJ
001144: 25,3354           63634                           AD       VREFER                                #  VREF - V, HIGHEST VREF AT END OF TABLE.
001145: 25,3355           10000                           CCS      A                                     #  IF VREF-V POS LOOP BACK
001146: 25,3356           11761                           CCS      JJ                                    #  DECREMENT JJ, JJ CANNOT BE ZERO
001147: 25,3357           13351                           TCF      BACK
001148: 25,3360           64770                           AD       ONE
001149: 25,3361           55646                           TS       TEM1B                                 #  V-VREF IN TEM1B (MUST BE POSITIVE NUM)
001150:
001151: 25,3362           51761                           INDEX    JJ
001152: 25,3363           43634                           CS       VREFER
001153: 25,3364           51761                           INDEX    JJ
001154: 25,3365           63635                           AD       VREFER     +1                         #  V(K+1) - V(K)                 (POS NUM)
001155: 25,3366           57646                           XCH      TEM1B
001156: 25,3367           22007                           ZL
001157: 25,3370           00006                           EXTEND
001158: 25,3371           11646                           DV       TEM1B
001159: 25,3372           55651                           TS       GRAD                                  #  GRAD = (V-VREF)/(VK+1 - VK)   (POS NUM
001160:
001161: 25,3373           34773                           CAF      FIVE
001162: 25,3374           55650        BACK2              TS       MM


001164: 25,3375           34776                           CAF      THIRTEEN
001165: 25,3376           27761                           ADS      JJ
001166: 25,3377           50000                           INDEX    A
001167: 25,3400           43634                           CS       VREFER
001168: 25,3401           51761                           INDEX    JJ
001169: 25,3402           63635                           AD       VREFER     +1                         #  X(K+1) - X(K)
001170: 25,3403           00006                           EXTEND
001171: 25,3404           71651                           MP       GRAD
001172: 25,3405           51761                           INDEX    JJ
001173: 25,3406           63634                           AD       VREFER
001174: 25,3407           51650                           INDEX    MM
001175: 25,3410           55652                           TS       FX                                    #  FX = AK + GRAD (AK+1 - AK)
001176: 25,3411           11650                           CCS      MM
001177: 25,3412           13374                           TCF      BACK2
001178: 25,3413           57653                           XCH      FX         +1                         #  ZERO FX +1 AND GET DREFR
001179: 25,3414           61637                           AD       D
001180: 25,3415           00006                           EXTEND
001181: 25,3416           71657                           MP       FX         +5                         #  F1
001182: 25,3417           52155                           DXCH     MPAC                                  #  MPAC = F1(D-DREF)
001183:
001184: 25,3420           00006                           EXTEND
001185: 25,3421           41700                           DCS      RDOT                                  #  FORM RDOTREF - RDOT
001186: 25,3422           20001                           DDOUBL
001187: 25,3423           20001                           DDOUBL
001188: 25,3424           20001                           DDOUBL                                         #  SCALE UP BY 8 FOR THIS PHASE.
001189: 25,3425           61655                           AD       FX         +3                         #  RDOTREF
001190: 25,3426           00006                           EXTEND
001191: 25,3427           71656                           MP       FX         +4                         #  F2
001192: 25,3430           61654                           AD       FX         +2                         #  RTOGO
001193: 25,3431           20155                           DAS      MPAC                                  #  ADD F2(DADV1-DADVR)
001194: 25,3432           30154                           CA       MPAC
001195: 25,3433           55760                           TS       PREDANG
001196:                                                                                                  #  L/D = LOD + (THETA- PREDANG)/ Y
001197: 25,3434           06006                           TC       INTPRET
001198:
001199: 25,3435           45242                           SR3      DSU
001200: 25,3436           03702                                    THETAH
001201: 25,3437           43014                           BON      BOFF
001202: 25,3440           03305                                    GONEPAST
001203: 25,3441           53466                                    GONEGLAD
001204: 25,3442           03747                                    GONEBY
001205: 25,3443           53451                                    HAVDNRNG
001206: 25,3444           43145                           DLOAD    SET                                   #  SET GONEPAST IF GONEBY SET & LATCH IN -
001207: 25,3445           13770                                    MAXRNG                                #  DISPLAY = 9999.9 IF GONEBY         PLACE
001208: 25,3446           03065                                    GONEPAST
001209: 25,3447           37716                           STCALL   DNRNGERR
001210: 25,3450           53466                                    GONEGLAD
001211:
001212: 25,3451           03716        HAVDNRNG           STORE    DNRNGERR                              #  = (PREDANG - THETA) /360


001214: 25,3452           77676                           DCOMP                                          #    FALL SHORT IF NEG, OVERSHOOT IF POS
001215: 25,3453           56204                           BOVB     DDV
001216: 25,3454           57544                                    TCDANZIG                              #  CLEAR OVFIND IF ON.
001217: 25,3455           03653                                    FX                                    #  FX= DRANGE/D L/D = Y
001218: 25,3456           40061                           SL       BOV
001219: 25,3457           20206                                    5
001220: 25,3460           53470                                    GOMAXL/D
001221: 25,3461           40015                           DAD      BOV
001222: 25,3462           03626                                    LOD
001223: 25,3463           53470                                    GOMAXL/D
001224: 25,3464           37634                           STCALL   L/D
001225: 25,3465           53474                                    GLIMITER                              #  (GO TO)
001226:
001227:
001228:                                                                                                  #  GONEGLAD AND GOPOSMAX ENTRY POINTS FOR GLIMITER ...
001229:
001230: 25,3466           77745        GONEGLAD           DLOAD                                          #  SET L/D = -LAD
001231: 25,3467           13467                                    GONEGLAD                              #  (ANY NEGATIVE NUMBER WILL DO)
001232:
001233: 25,3470           41234        GOMAXL/D           RTB      DMP                                   #  L/D = LAD SIGN(MPAC)
001234: 25,3471           45761                                    SIGNMPAC
001235: 25,3472           03624                                    LAD
001236: 25,3473           03634                           STORE    L/D                                   #  AND FALL INTO GLIMITER SECTION
001237:
001238: 25,3474           45345        GLIMITER           DLOAD    DSU                                   #  IF GMAX/2-D POS, GO TO LIMITL/D
001239: 25,3475           15162                                    GMAX/2
001240: 25,3476           03640                                    D
001241: 25,3477           43244                           BPL      DAD                                   #  IF GMAX  -D NEG, GO TO GOPOSLAD
001242: 25,3500           53524                                    LIMITL/D
001243: 25,3501           15162                                    GMAX/2
001244: 25,3502           41240                           BMN      DMP
001245: 25,3503           53521                                    GOPOSLAD
001246: 25,3504           15264                                    2HS
001247: 25,3505           41325                           PDDL     DMP                                   #  2HS(GMAX-D) INTO PD
001248: 25,3506           03654                                    LEQ
001249: 25,3507           15334                                    1/GMAX
001250: 25,3510           41215                           DAD      DMP
001251: 25,3511           03624                                    LAD
001252: 25,3512           56325                           PDDL     DDV                                   #  2HS(GMAX-D) (LEQ/GMAX+LAD) INTO PD
001253: 25,3513           15266                                    2HSGMXSQ
001254: 25,3514           03622                                    VSQUARE
001255: 25,3515           75415                           DAD      SQRT                                  #  XLIM = SQRT(PD+(2HSGMAX/V)SQ)
001256: 25,3516           51015                           DAD      BPL                                   #  IF RDOT+XLIM POS, GO TO LIMITL/D
001257: 25,3517           03700                                    RDOT
001258: 25,3520           53524                                    LIMITL/D
001259:
001260: 25,3521           77745        GOPOSLAD           DLOAD
001261: 25,3522           03624                                    LAD
001262: 25,3523           03634        STOREL/D           STORE    L/D
001263:


001265: 25,3524           77745        LIMITL/D           DLOAD
001266: 25,3525           03634                                    L/D
001267: 25,3526           17636                           STODL    L/D1
001268: 25,3527           03622                                    VSQUARE
001269:
001270: 25,3530           77614                           BON                                            #  NO LATERAL CONTROL IF PAST TARGET
001271: 25,3531           03305                                    GONEPAST
001272: 25,3532           53564                                    L355
001273: 25,3533           43205                           DMP      DAD                                   #  Y= KLAT VSQUARE + LATBIAS
001274: 25,3534           03632                                    KLAT
001275: 25,3535           15244                                    LATBIAS                               #  Y INTO PD
001276: 25,3536           51525        L350               PDDL     ABS                                   #  IF ABS(L/D)-L/DCMINR NEG, GO TO L353
001277: 25,3537           03634                                    L/D
001278: 25,3540           50025                           DSU      BMN
001279: 25,3541           03630                                    L/DCMINR
001280: 25,3542           53551                                    L353
001281: 25,3543           75345                           DLOAD    SIGN                                  #  IF K2ROLL LATANG NEG, GO TO L357
001282: 25,3544           03676                                    LATANG
001283: 25,3545           03644                                    K2ROLL
001284: 25,3546           71240                           BMN      DLOAD
001285: 25,3547           53627                                    L357
001286: 25,3550           41542                           SR1      PUSH                                  #  Y = Y/2
001287: 25,3551           75345        L353               DLOAD    SIGN                                  #  IF LATANG SIGN(K2ROLL)-Y POS, SWITCH
001288: 25,3552           03676                                    LATANG
001289: 25,3553           03644                                    K2ROLL
001290: 25,3554           77625                           DSU
001291: 25,3555           71240                           BMN      DLOAD
001292: 25,3556           53564                                    L355
001293: 25,3557           03644                                    K2ROLL
001294: 25,3560           57414                           BONCLR   DCOMP                                 #  IF NOSWITCH =1, K2ROLL= K2ROLL
001295: 25,3561           03210                                    NOSWITCH
001296: 25,3562           53564                                    L355
001297: 25,3563           03644                           STORE    K2ROLL                                #  K2ROLL = -K2ROLL
001298:
001299: 25,3564           56345        L355               DLOAD    DDV                                   #  ROLLC = ACOS( (L/D1) / LAD)
001300: 25,3565           03636                                    L/D1
001301: 25,3566           03624                                    LAD                                   #  MPAC SET TO +-1 IF OVERFLOW***
001302: 25,3567           65542                           SR1      ACOS
001303: 25,3570           43165                           SIGN     CLEAR
001304: 25,3571           03644                                    K2ROLL
001305: 25,3572           03270                                    NOSWITCH
001306: 25,3573           03316                           STORE    ROLLC
001307:
001308: 25,3574           77776        ENDEXIT            EXIT
001309:
001310: 25,3575           34754        OVERNOUT           CAF      ENDSPBIT                              #  ENTRYDSP = 92D BIT13
001311: 25,3576           70102                           MASK     CM/FLAGS
001312: 25,3577           00006                           EXTEND
001313: 25,3600           13604                           BZF      NODISKY                               #  OMIT DISPLAY.


001315: 25,3601           31122                           CA       ENTRYVN                               #  ALL ENTRY DISPLAYS ARE DONE HERE.
001316: 25,3602           04636                           TC       BANKCALL
001317: 25,3603           20724                           CADR     REGODSPR                              #  NO ABORT IF DISKY IN USE
001318:
001319: 25,3604           00004        NODISKY            INHINT
001320: 25,3605           10067                           CCS      NEWJOB                                #  PROTECT READACCS GRP 5, IF SIDETRACKED.
001321: 25,3606           05152                           TC       CHANG1
001322: 25,3607           04655        SERVNOUT           TC       POSTJUMP                              #  ( COME HERE FROM P67.3)
001323: 25,3610           77143                           CADR     SERVEXIT                              #  AND END AVERAGEG JOB VIA  ENDOFJOB.
001324:


001326:
001327:                                                                                                  #  DISPLAY WHEN V IS LESS THAN VQUIT.
001328:
001329: 25,3611           77776        STEEROFF           EXIT
001330: 25,3612           04606                           TC       E7SETTER
001331:
001332: 25,3613           35055                           CA       PRIO16                                #  2 LESS THAN NTRYPRIO.
001333: 25,3614           05121                           TC       NOVAC
001334: 25,3615  E6,1661                                  EBANK=   AOG                                   #  ANY EB HERE
001335: 25,3615           02511 54066                     2CADR    P67.1                                 #  START UP REMAINDER OF P67
001336:
001337:                                                                                                  #  RTOGO         LAT             LONG
001338:                                                                                                  #  XXXX.X NM     XXX.XX DEG      XXX.XX DEG
001339:
001340: 25,3617           05362                           TC       2PHSCHNG                              #  INHINT/RELINT DONE.
001341: 25,3620           00414                           OCT      00414                                 #  4.41 RESTART FOR P67.1 DISPLAY JOB.
001342: 25,3621           10035                           OCT      10035                                 #  SERVICER 5.3 RESTART.
001343:
001344: 25,3622  01,2201               4P41SPT1           =        4.41SPOT
001345: 25,3622  01,2250               5P3SPT15           =        5.3SPOT
001346: 25,3622           33626                           CA       P67.2CAD                              #  HEREAFTER, DO LAT, LONG.
001347: 25,3623           55645                           TS       GOTOADDR
001348:
001349: 25,3624           06006                           TC       INTPRET
001350: 25,3625           77650                           GOTO
001351: 25,3626           54532        P67.2CAD                    P67.2                                 #  CONTINUE FOR LAT, LONG THIS TIME.
001352:
001353: 25,3627           75345        L357               DLOAD    SIGN                                  #  L/D = L/DCMINR SIGN(L/D)
001354: 25,3630           03630                                    L/DCMINR
001355: 25,3631           03634                                    L/D
001356: 25,3632           37636                           STCALL   L/D1
001357: 25,3633           53564                                    L355                                  #  (GO TO)
001358:


001360:
001361:                                                                                                  #  TABLE USED FOR SUB-ORBITAL REFERENCE TRAJECTORY CONTROL.
001362:
001363: 25,3634           00474        VREFER             DEC      .019288                               #  REFERENCE VELOCITY SCALED V/51532.3946
001364: 25,3635           01235                           DEC      .040809                               #  13 POINTS ARE STORED AS THE INDEPENDENT
001365: 25,3636           02337                           DEC      .076107                               #  VARIABLE AND THEN SIX 13 POINT FUNCTIONS
001366: 25,3637           03721                           DEC      .122156                               #  OF V ARE STORED CONSECUTIVELY
001367: 25,3640           05230                           DEC      .165546
001368: 25,3641           06213                           DEC      .196012
001369: 25,3642           10550                           DEC      .271945
001370: 25,3643           11717                           DEC      .309533
001371: 25,3644           13314                           DEC      .356222
001372: 25,3645           14736                           DEC      .404192
001373: 25,3646           16255                           DEC      .448067
001374: 25,3647           16457                           DEC      .456023
001375: 25,3650           25570                           DEC      .67918                                #  HIGH VELOCITY FOR SAFETY
001376:
001377: 25,3651           77526                           DEC      -.010337                              #  DRANGE/DA     SCALED DRDA/(2700/805)
001378: 25,3652           77360                           DEC      -.016550
001379: 25,3653           77106                           DEC      -.026935
001380: 25,3654           76516                           DEC      -.042039
001381: 25,3655           76071                           DEC      -.058974
001382: 25,3656           75570                           DEC      -.070721
001383: 25,3657           74661                           DEC      -.098538
001384: 25,3660           70657                           DEC      -.223611
001385: 25,3661           66352                           DEC      -.298148
001386: 25,3662           66352                           DEC      -.298148
001387: 25,3663           54557                           DEC      -.602557
001388: 25,3664           40000                           DEC      -.99999
001389: 25,3665           40000                           DEC      -.99999
001390:
001391: 25,3666           77635                           DEC      -.0478599  B-3                        #  -DRANGE/DRDOT
001392: 25,3667           77563                           DEC      -.0683663  B-3                        #  SCALED ((2VS/8 2700) DR/DRDOT)
001393: 25,3670           77354                           DEC      -.1343468  B-3
001394: 25,3671           76712                           DEC      -.2759846  B-3
001395: 25,3672           76066                           DEC      -.4731437  B-3
001396: 25,3673           75322                           DEC      -.6472087  B-3
001397: 25,3674           73237                           DEC      -1.171693  B-3
001398: 25,3675           72104                           DEC      -1.466382  B-3
001399: 25,3676           70301                           DEC      -1.905171  B-3
001400: 25,3677           65635                           DEC      -2.547990  B-3
001401: 25,3700           57311                           DEC      -4.151220  B-3
001402: 25,3701           50575                           DEC      -5.813617  B-3
001403: 25,3702           50575                           DEC      -5.813617  B-3
001404:


001406: 25,3703           74443                           DEC      -.0134001  B3                         #  RDOTREF       SCALED (8 RDT/2VS)
001407: 25,3704           74333                           DEC      -.013947   B3
001408: 25,3705           74433                           DEC      -.013462   B3
001409: 25,3706           74763                           DEC      -.011813   B3
001410: 25,3707           75432                           DEC      -.0095631  B3
001411: 25,3710           75735                           DEC      -.00806946 B3
001412: 25,3711           76200                           DEC      -.006828   B3
001413: 25,3712           75735                           DEC      -.00806946 B3
001414: 25,3713           75140                           DEC      -.0109791  B3
001415: 25,3714           74075                           DEC      -.0151496  B3
001416: 25,3715           73312                           DEC      -.0179817  B3
001417: 25,3716           73732                           DEC      -.0159061  B3
001418: 25,3717           73732                           DEC      -.0159061  B3
001419:
001420: 25,3720           00026                           DEC      .00137037                             #   3.7  RTOGO SCALED RTOGO/2700
001421: 25,3721           00077                           DEC      .00385185                             #  10.4
001422: 25,3722           00217                           DEC      .00874074                             #  23.6
001423: 25,3723           00431                           DEC      .017148
001424: 25,3724           00712                           DEC      .027926
001425: 25,3725           01136                           DEC      .037
001426: 25,3726           02015                           DEC      .063296
001427: 25,3727           02374                           DEC      .077889
001428: 25,3730           03123                           DEC      .098815
001429: 25,3731           04051                           DEC      .127519
001430: 25,3732           05767                           DEC      .186963
001431: 25,3733           07476                           DEC      .238148
001432: 25,3734           11324                           DEC      .294185185
001433:
001434: 25,3735           76272                           DEC      -.051099                              #  -AREF/805
001435: 25,3736           75472                           DEC      -.074534
001436: 25,3737           74604                           DEC      -.101242
001437: 25,3740           74210                           DEC      -.116646
001438: 25,3741           74052                           DEC      -.122360
001439: 25,3742           73735                           DEC      -.127081
001440: 25,3743           73217                           DEC      -.147453
001441: 25,3744           73013                           DEC      -.155528
001442: 25,3745           73155                           DEC      -.149565
001443: 25,3746           74151                           DEC      -.118509
001444: 25,3747           76703                           DEC      -.034907
001445: 25,3750           77575                           DEC      -.007950
001446: 25,3751           77575                           DEC      -.007950
001447:


001449: 25,3752           00112                           DEC      .004491                               #  DRANGE/D L/D SCALED Y/2700
001450: 25,3753           00204                           DEC      .008081
001451: 25,3754           00407                           DEC      .016030
001452: 25,3755           01113                           DEC      .035815
001453: 25,3756           02161                           DEC      .069422
001454: 25,3757           03260                           DEC      .104519
001455: 25,3760           03717                           DEC      .122
001456: 25,3761           05411                           DEC      .172407
001457: 25,3762           10057                           DEC      .252852
001458: 25,3763           13476                           DEC      .363148
001459: 25,3764           20324                           DEC      .512963
001460: 25,3765           21677                           DEC      .558519
001461: 25,3766           21677                           DEC      .558519                               #  END OF STORED REFERENCE
001462:


001464:
001465:                                                                                                  #  REENTRY CONSTANTS.
001466:
001467:                                                                                                  #  DEFINED BY EQUALS
001468:
001469: 25,3767     4777               DEC15              =        LOW4
001470:                                                                                                  # GAMMAL1        =       22D
001471:
001472: 25,3767           16631 06755  MAXRNG             2OCT     1663106755                            #  DNRNGERR = 9999.9 IF GONEPAST=1
001473:
001474: 26,2000                                           SETLOC   REENTRY1
001475: 26,2000                                           BANK
001476:
001477: 26,3150                                           COUNT*   $$/ENTRY
001478:
001479: 26,3150  26,3343               BARELY1            =        NEARONE                               #  COMMON TO BOTH DISK,DANCE.DEFND IN TFF
001480:                                                                                                  # 1BITDP                                 COMMON TO BOTH DISK AND DANCE. DEFND IN VECPOINT.
001481:
001482: 26,3150           02525        1/12TH             DEC      .083333                               #  DP 1/12 USES HI WORD IN 1/3 BELOW
001483:
001484: 26,3151           12525 12525  1/3RD              2DEC     .3333333333                            #  DP 1/3
001485:
001486: 26,3153  34,3770               1/16TH             =        DP2(-4)
001487:
001488:                                                                                                  #  BELOW:  VS = VSAT = 25766.1973 FT/SEC
001489:
001490:                                                                                                  #          RE = 21,202,900 FEET
001491:
001492: 26,3153           04631 23146  LEWD1              2DEC     .15
001493:
001494: 26,3155           03146 14632  POINT1             2DEC     .1
001495:
001496: 26,3157           76314 71462  DLEWD0             2DEC     -.05                                  #  -.05
001497:
001498: 26,3161           05075 16051  GMAX/2             2DEC     .16                                   #  8 GS / 2
001499:
001500: 26,3163  26,3335               3ZEROS             EQUALS   HI6ZEROS
001501:
001502: 26,3163           07777 00000  NEAR1/4            2OCT     0777700000                            #  1/4 LESS 1 BIT IN UPPER PART.
001503:
001504: 26,3165           00236 36763  C18                2DEC     .0097026346                            #  500/2VS
001505:
001506: 26,3167           00204 11303  Q7FKDMIN           2DEC     .0080745342                            #  6.5/805  (Q7F +KDMIN) = 6 + .5)
001507:
001508: 26,3171  34,3770               C1/16              =        DP2(-4)
001509:
001510: 26,3171           05260 05572  Q3                 2DEC     .167003132                            #  .07 2VS/21600
001511:
001512: 26,3173           12343 21616  Q5                 2DEC     .326388889                            #  .3 23500/21600
001513:


001515:
001516: 26,3175           01073 31515  Q6                 2DEC     .0349                                 #  2 DEG, APPROX 820/23500
001517:
001518: 26,3177           00172 03571  Q7F                2DEC     .0074534161                            #  6/805    (VALUE OF Q7 IN FIXED MEM.)
001519:
001520: 26,3201  26,3333               Q19                =        HALVE                                 #  Q19 = .5
001521:
001522: 26,3201           05136 32046  Q21                2DEC     .1620370370                            #  3500/21600
001523:
001524: 26,3203           75031 40775  Q22                2DEC     -.092222222                            #  -1992/21600
001525:
001526: 26,3205           13132 33062  VLMIN              2DEC     .34929485                             #  18000/2 VS
001527:
001528: 26,3207  26,3325               VMIN               =        FOURTH                                #  (VS/2) / 2VS
001529:
001530: 26,3207           00160 05104  C12                2DEC     .00684572901                            #  32 28500/(21202900 2 PI)
001531:
001532: 26,3211           14631 23146  1/KB1              2DEC     .4                                    #  1 / 2.5
001533:
001534: 26,3213           74015 46560  -1/KB2             2DEC     -.0077621078 B4                         #  - 1/(.0025 2 VS) EXP +4
001535:
001536: 26,3215           00475 35746  VQUIT              2DEC     .019405269                            #  1000 /2VS
001537:
001538: 26,3217           10262 02622  C20                2DEC     .26086957                             #  210/805  90 DEG MAX ROLL IF ABOVE C20
001539:
001540: 26,3221           05441 14412  C21                2DEC     .17391304                             #  140/805
001541:
001542: 26,3223           00022 36641  25NM               2DEC     .0011574074                            #  25/21600      (25 NAUT MILES)
001543:
001544: 26,3225           01003 06315  K1D                2DEC     .0314453125                            #  =C16 805/256 = .01 805/256
001545:
001546: 26,3227           63073 73236  K2D                2DEC     -.402596836                            #  -C17 2VS/256 = -.002 2VS/256
001547:
001548: 26,3231           32047 24367  KVSCALE            2DEC     .81491944                             #  12800/(2 VS .3048)
001549:
001550: 26,3233           37200 05636  KASCALE            2DEC     .97657358                             #  5.85 16384/(4 .3048 100 805)
001551:
001552: 26,3235           00046 13137  KTETA              2DEC*    .383495203 E2         B-14*           #  1000 2PI/16384(163.84)
001553:
001554: 26,3237           00017 30730  KT1                2DEC*    .157788327 E2         B-14*           #  RE(2PI)/2 VS(16384) 163.84
001555:
001556: 26,3241           00040 30447  .05G               2DEC     .002                                  #  .05/25
001557:
001558: 26,3243           00000 17565  LATBIAS            2DEC     .00003                                #  APPRX .5 NM/ 4(21600/2 PI)
001559:
001560: 26,3245           01727 20103  KWE                2DEC     .120056652 B-1
001561:
001562: 26,3247           00121 17460  KACOS              2DEC     .004973592                            #  1/32(2PI)
001563:
001564: 26,3251           00400 00000  CHOOK              2DEC     1          B-6                        #  .25/16
001565: 26,3253           01252 25253  1/24TH             2DEC     .0833333333 B-1
001566:


001568: 26,3255           24365 30244  CH1                2DEC     .32        B1                         #  16 CH1/25 = 16 (1) /25
001569:
001570: 26,3257           77152 51354  KC3                2DEC     -.0247622232                            #  -(4 VS VS/ 2 PI 805 RE)
001571:
001572: 26,3261           00336 21610  VRCONT             2DEC     .0135836886                            #  700/2 VSAT
001573:
001574: 26,3263  26,3333               HALVE              EQUALS   HIDPHALF
001575: 26,3263  26,3325               FOURTH             EQUALS   HIDP1/4
001576:
001577: 26,3263  26,3333               1/GMAX             EQUALS   HALVE                                 #  4/GMAX = 4 / 8
001578: 26,3263           00433 02775  2HS                2DEC     .0172786611                            #   2 28500 25 32.2/(4 VS VS)
001579:
001580: 26,3265           00000 20017  2HSGMXSQ           2DEC     .0000305717                            #  (2 28500 8 32.2/ 4 VS VS)SQ
001581:
001582: 26,3267           77765 70243  C001               2DEC     -.000625                              #  -(4/25)/256    LEQ/D0 CONST
001583:
001584: 26,3271           31463 06315  POINT8             2DEC     .8
001585:
001586: 26,3273           00541 33575  2C1HS              2DEC     .0215983264                            #  2 1.25 28500 805/(2 VS)SQ
001587:
001588: 26,3275           00146 14632  PT1/16             2DEC     .1         B-4
001589:
001590: 26,3277           00052 30013  1/K44              2DEC     .00260929464                            #  2 VS/19749550
001591:
001592: 26,3301           20411 03041  VFINAL             2DEC     .51618016                             #  26600/2 VS
001593:
001594: 26,3303           20610 10513  VFINAL1            2DEC     .523942273                            #  = 27000 / 2 VS
001595:
001596: 26,3305           11473 02355  1/KA1              2DEC     .30048077                             #  25/(1.3 64)
001597:
001598: 26,3307           00203 02234  KA2                2DEC     .008                                  #  .2/25
001599:
001600: 26,3311           16237 00146  KA3                2DEC     .44720497                             #  = 90 4/805
001601:
001602: 26,3313           01456 03450  KA4                2DEC     .049689441                            #  40/805
001603:
001604: 26,3315           01727 01217  KALIM              2DEC     .06                                   #  1.5/25
001605:
001606: 26,3317  26,3343               Q7MIN              =        NEARONE                               #  805/805       (DISABLE FACTOR CALC)
001607: 26,3317           56232 72332  -HSCALED           2DEC     -.55305018                            #  -28500/2 VS
001608:
001609: 26,3321           77000 43741  -KSCALE            2DEC     -.0312424837                            #  -805/VS
001610:
001611: 26,3323           36702 21727  COS15              2DEC     .965
001612:
001613: 26,3325  26,3150               LATSLOPE           EQUALS   1/12TH
001614:
001615:                                                                                                  #        ... END OF RE-ENTRY CONSTANTS ...
001616:

End of include-file REENTRY_CONTROL.agc.  Parent file is MAIN.agc


