
Source Code


000002:                                                                                                  ## Copyright:   Public domain.
000003:                                                                                                  ## Filename:    RESTART_TABLES.agc
000004:                                                                                                  ## Purpose:     A section of Artemis revision 071.
000005:                                                                                                  ##              It is part of the reconstructed source code for the first
000006:                                                                                                  ##              release of the flight software for the Command Module's
000007:                                                                                                  ##              (CM) Apollo Guidance Computer (AGC) for Apollo 15 through
000008:                                                                                                  ##              17. The code has been recreated from a copy of Artemis 072.
000009:                                                                                                  ##              It has been adapted such that the resulting bugger words
000010:                                                                                                  ##              exactly match those specified for Artemis 071 in NASA
000011:                                                                                                  ##              drawing 2021154-, which gives relatively high confidence
000012:                                                                                                  ##              that the reconstruction is correct.
000013:                                                                                                  ## Reference:   229
000014:                                                                                                  ## Assembler:   yaYUL
000015:                                                                                                  ## Contact:     Ron Burkey <info@sandroid.org>.
000016:                                                                                                  ## Website:     www.ibiblio.org/apollo/index.html
000017:                                                                                                  ## Mod history: 2019-08-14 MAS  Created from Artemis 072.
000018:


000020:
000021:                                                                                                  #  RESTART TABLES
000022:
000023:                                                                                                  #  ------------------
000024:
000025:                                                                                                  #  THERE ARE TWO FORMS OF RESTART TABLES FOR EACH GROUP.  THEY ARE KNOWN AS THE EVEN RESTART TABLES AND THE ODD
000026:                                                                                                  #  RESTART TABLES.  THE ODD TABLES HAVE ONLY ONE ENTRY OF THREE LOCATIONS WHILE THE EVEN TABLES HAVE TWO ENTRIES
000027:                                                                                                  #  EACH USING THREE LOCATIONS. THE INFORMATION AS TO WHETHER IT IS A JOB, WAITLIST, OR A LONGCALL IS GIVEN BY THE
000028:                                                                                                  #  WAY THINGS ARE PUT INTO THE TABLES.
000029:                                                                                                  #       A JOB HAS ITS PRIORITY STORED IN PRDTTAB OF THE CORRECT PHASE SPOT - A POSITIVE PRIORITY INDICATES A
000030:                                                                                                  #  FINDVAC JOB, A NEGATIVE PRIORITY A NOVAC.  THE 2CADR OF THE JOB IS STORED IN THE CADRTAB.
000031:                                                                                                  #  FOR EXAMPLE,
000032:
000033:                                                                                                  #                5.7SPOT         OCT     23000
000034:                                                                                                  #                                2CADR   SOMEJOB
000035:
000036:                                                                                                  #  A RESTART OF GROUP 5 WITH PHASE SEVEN WOULD THEN CAUSE SOMEJOB TO BE RESTARTED AS A FINDVAC WITH PRIORITY 23.
000037:
000038:                                                                                                  #                5.5SPOT         OCT     -23000
000039:                                                                                                  #                                2CADR   ANYJOB
000040:
000041:                                                                                                  #  HERE A RESTART OF GROUP 5 WITH PHASE 7 WOULD CAUSE ANYJOB TO BE RESTARTED AS A NOVAC WITH PRIORITY 23.
000042:                                                                                                  #  A LONGCALL HAS ITS GENADR OF ITS 2CADR STORED NEGATIVELY AND ITS BBCON STORED POSITIVELY.  IN ITS PRDTTAB IS
000043:                                                                                                  #  PLACED THE LOCATION OF A DP REGISTER THAT CONTAINS THE DELTA TIME THAT LONGCALL HAD BEEN ORIGINALLY STARTED
000044:                                                                                                  #  WITH.  EXAMPLE,
000045:
000046:                                                                                                  #                3.6SPOT         GENADR  DELTAT
000047:                                                                                                  #                                -GENADR LONGTASK
000048:                                                                                                  #                                BBCON   LONGTASK
000049:
000050:                                                                                                  #                                OCT     31000
000051:                                                                                                  #                                2CADR   JOBAGAIN
000052:
000053:                                                                                                  #  THIS WOULD START UP LONGTASK AT THE APPROPRIATE TIME, OR IMMEDIATELY IF THE TIME HAD ALREADY PASSED. IT SHOULD
000054:                                                                                                  #  BE NOTED THAT IF DELTAT IS IN A SWITCHED E BANK, THIS INFORMATOIN SHOULD BE IN THE BBCON OF THE 2CADR OF THE
000055:                                                                                                  #  TASK.  FROM ABOVE, WE SEE THAT THE SECOND PART OF THIS PHASE WOULD BE STARTED AS A JOB WITH A PRIORITY OF 31.
000056:
000057:                                                                                                  #  WAITLIST CALLS ARE IDENTIFIED BY THE FACT THAT THEIR 2CADR IS STORED NEGATIVELY.  IF PRDTTAB OF THE PHASE SPOT
000058:                                                                                                  #  IS POSITIVE, THEN IT CONTAINS THE DELTA TIME, IF PRDTTAB IS NEGATIVE THEN IT IS THE -GENADR OF AN ERASABLE
000059:                                                                                                  #  LOCATION CONTAINING THE DELTA TIME, THAT IS, THE TIME IS STORED INDIRECTLY. IT SHOULD BE NOTED AS ABOVE, THAT
000060:                                                                                                  #  IF THE TIME IS STORED INDIRECTLY, THE BBCON MUST CONTAIN THE NECESSARY E BANK INFORMATION IF APPLICABLE.  WITH
000061:                                                                                                  #  WAITLIST WE HAVE ONE FURTHER OPTION, IF -0 IS STORED IN PRDTTAB, IT WILL CAUSE AN IMMEDIATE RESTART OF THE
000062:                                                                                                  #  TASK.  EXAMPLES,
000063:
000064:                                                                                                  #                                OCT     77777           THIS WILL CAUSE AN IMMEDIATE RESTART
000065:                                                                                                  #                                -2CADR  ATASK           OF THE TASK :ATASK:
000066:
000067:                                                                                                  #                                DEC     200             IF THE TIME OF THE 2 SECONDS SINCE DUMMY
000068:                                                                                                  #                                -2CADR  DUMMY           WAS PUT ON WAITLIST IS UP, IT WILL BEGIN
000069:                                                                                                  #                                                        IN 10 MS, OTHERWISE IT WILL BEGIN WHEN
000070:                                                                                                  #                                                        IT NORMALLY WOULD HAVE BEGUN.
000071:
000072:


000074:
000075:                                                                                                  #                                -GENADR DTIME           WHERE DTIME CONTAINS THE DELTA TIME
000076:                                                                                                  #                                -2CADR  TASKTASK        OTHERWISE THIS IS AS ABOVE
000077:
000078:                                                                                                  #  *****    NOW THE TABLES THEMSELVES    *****
000079:
000080: 01,2000                                           SETLOC   RESTART
000081: 01,2000                                           BANK
000082:
000083: 01,2000                                           COUNT*   $$/RSTAB
000084: 01,2000                        PRDTTAB            EQUALS   12000                                 #  USED TO FIND THE PRIORITY OR DELTATIME
000085: 01,2000                        CADRTAB            EQUALS   12001                                 #  THIS AND THE NEXT RELATIVE LOC CONTAIN
000086:                                                                                                  #  RESTART 2CADR
000087:
000088: 01,2000           00044        SIZETAB            TC       1.2SPOT    -12006
000089: 01,2001           00010                           TC       1.3SPOT    -12004
000090: 01,2002           00044                           TC       2.2SPOT    -12006
000091: 01,2003           00027                           TC       2.3SPOT    -12004
000092: 01,2004           00044                           TC       3.2SPOT    -12006
000093: 01,2005           00054                           TC       3.3SPOT    -12004
000094: 01,2006           00074                           TC       4.2SPOT    -12006
000095: 01,2007           00120                           TC       4.3SPOT    -12004
000096: 01,2010           00226                           TC       5.2SPOT    -12006
000097: 01,2011           00244                           TC       5.3SPOT    -12004
000098: 01,2012           00311                           TC       6.2SPOT    -12006
000099: 01,2013           00321                           TC       6.3SPOT    -12004
000100: 01,2014  01,2052               1.2SPOT            EQUALS   3.2SPOT
000101:
000102:                                                                                                  #  ANY MORE GROUP 1.EVEN RESTART VALUES SHOULD GO HERE
000103:
000104: 01,2014           00170        1.3SPOT            DEC      120        B-14                       #  THIS NUMBER MUST EQUAL C(JTAGTIME)
000105: 01,2015  E6,1661                                  EBANK=   AOG
000106: 01,2015           75141 45711                     -2CADR   SETJTAG
000107:
000108: 01,2017           10000        1.5SPOT            OCT      10000
000109: 01,2020  E6,1465                                  EBANK=   DAPDATR1
000110: 01,2020           02502 34066                     2CADR    REDO40.9
000111:
000112: 01,2022           10000        1.7SPOT            OCT      10000
000113: 01,2023  E6,1774                                  EBANK=   R61CNTR
000114: 01,2023           02170 56066                     2CADR    RELINUS
000115:
000116: 01,2025           10000        1.11SPOT           OCT      10000
000117: 01,2026  E6,1774                                  EBANK=   R61CNTR
000118: 01,2026           02157 74066                     2CADR    PIKUP20
000119:
000120: 01,2030           10000        1.13SPOT           OCT      10000
000121: 01,2031  E6,1774                                  EBANK=   R61CNTR
000122: 01,2031           02374 74066                     2CADR    R67RSTRT
000123:
000124:                                                                                                  #  ANY MORE GROUP 1.ODD RESTART VALUES SHOULD GO HERE
000125:


000127:
000128: 01,2033  01,2052               2.2SPOT            EQUALS   1.2SPOT
000129:
000130:                                                                                                  #  ANY MORE GROUP 2.EVEN RESTART VALUES SHOULD GO HERE
000131:
000132: 01,2033           02730        2.3SPOT            GENADR   600SECS
000133: 01,2034           75075                           -GENADR  STATEINT
000134: 01,2035  E3,1554                                  EBANK=   RRECTCSM
000135: 01,2035           26063                           BBCON    STATEINT
000136:
000137: 01,2036           05000        2.5SPOT            OCT      05000
000138: 01,2037  E3,1554                                  EBANK=   RRECTCSM
000139: 01,2037           02711 26063                     2CADR    STATINT1
000140:
000141: 01,2041           10000        2.7SPOT            OCT      10000
000142: 01,2042  E7,1722                                  EBANK=   MRKBUF1
000143: 01,2042           02625 70067                     2CADR    R22
000144:
000145: 01,2044           14000        2.11SPOT           OCT      14000
000146: 01,2045  E7,1751                                  EBANK=   LANDMARK
000147: 01,2045           03532 62067                     2CADR    V94NTR
000148:
000149: 01,2047           10000        2.13SPOT           OCT      10000
000150: 01,2050  E7,1722                                  EBANK=   MRKBUF1
000151: 01,2050           02516 56067                     2CADR    REDOR22
000152:
000153:                                                                                                  #  ANY MORE GROUP 2.ODD RESTART VALUES SHOULD GO HERE
000154:
000155: 01,2052           77777        3.2SPOT            DEC      -0         B-14
000156: 01,2053  E7,1672                                  EBANK=   P40TMP
000157: 01,2053           75456 37710                     -2CADR   T6CHNSET
000158:
000159: 01,2055           01750                           DEC      1000       B-14
000160: 01,2056  E7,1672                                  EBANK=   P40TMP
000161: 01,2056           75446 37710                     -2CADR   T6RESET
000162:
000163:                                                                                                  #  ANY MORE GROUP 3.EVEN RESTART VALUES SHOULD GO HERE
000164:
000165: 01,2060           20000        3.3SPOT            OCT      20000
000166: 01,2061  E7,1427                                  EBANK=   TGO
000167: 01,2061           02534 34067                     2CADR    S40.13
000168:
000169: 01,2063           76347        3.5SPOT            -GENADR  TGO        +1
000170: 01,2064  E7,1427                                  EBANK=   TGO
000171: 01,2064           74754 27710                     -2CADR   ENGINOFF
000172:
000173: 01,2066           22000        3.7SPOT            OCT      22000
000174: 01,2067  E5,1757                                  EBANK=   OGC
000175: 01,2067           02115 70065                     2CADR    MATRXJOB
000176:


000178:
000179: 01,2071           22000        3.11SPOT           OCT      22000
000180: 01,2072  E3,1706                                  EBANK=   TEPHEM
000181: 01,2072           02250 70063                     2CADR    REP11
000182:
000183: 01,2074           22000        3.13SPOT           OCT      22000
000184: 01,2075  E3,1706                                  EBANK=   TEPHEM
000185: 01,2075           02024 70063                     2CADR    REP11A
000186:
000187: 01,2077           01672        3.15SPOT           GENADR   P40TMP
000188: 01,2100           75466                           -GENADR  T6SET
000189: 01,2101  E7,1672                                  EBANK=   P40TMP
000190: 01,2101           40067                           BBCON    T6SET
000191:
000192:                                                                                                  #  ANY MORE GROUP 3.ODD RESTART VALUES SHOULD GO HERE
000193:
000194: 01,2102           77777        4.2SPOT            OCT      77777
000195: 01,2103  E7,1412                                  EBANK=   TIG
000196: 01,2103           75152 27710                     -2CADR   PRECHECK
000197:
000198: 01,2105           47777                           OCT      47777                                 #  PRIO 30 NOVAC
000199: 01,2106  E7,1674                                  EBANK=   DELVIMU
000200: 01,2106           03730 50067                     2CADR    P47BODY
000201:
000202: 01,2110           77777        4.4SPOT            OCT      77777
000203: 01,2111  E7,1412                                  EBANK=   TIG
000204: 01,2111           75152 27710                     -2CADR   PRECHECK
000205:
000206: 01,2113           05664                           DEC      2996       B-14
000207: 01,2114  E6,1465                                  EBANK=   DAPDATR1
000208: 01,2114           74160 27711                     -2CADR   TTG/0
000209:
000210: 01,2116           77777        4.6SPOT            OCT      77777
000211: 01,2117  E7,1412                                  EBANK=   TIG
000212: 01,2117           75152 27710                     -2CADR   PRECHECK
000213:
000214: 01,2121           04700                           DEC      2496       B-14
000215: 01,2122  E7,1412                                  EBANK=   TIG
000216: 01,2122           75143 27710                     -2CADR   TIG-5
000217:
000218:                                                                                                  #  ANY MORE GROUP 4.EVEN RESTART VALUES SHOULD GO HERE
000219:
000220: 01,2124           00050        4.3SPOT            DEC      40         B-14
000221: 01,2125  E6,1423                                  EBANK=   PACTOFF
000222: 01,2125           75053 27711                     -2CADR   DOTVCON
000223:
000224: 01,2127           00240        4.5SPOT            DEC      160        B-14
000225: 01,2130  E6,1423                                  EBANK=   PACTOFF
000226: 01,2130           75022 27711                     -2CADR   DOSTRULL
000227:
000228: 01,2132           00764        4.7SPOT            DEC      500        B-14


000230: 01,2133  E6,1423                                  EBANK=   PACTOFF
000231: 01,2133           75126 27711                     -2CADR   TIG-0
000232:
000233: 01,2135           77777        4.11SPOT           DEC      -0         B-14
000234: 01,2136  E6,1423                                  EBANK=   PACTOFF
000235: 01,2136           75126 27711                     -2CADR   TIG-0
000236:
000237: 01,2140           47777        4.13SPOT           OCT      47777                                 #  PRIO 30 NOVAC
000238: 01,2141  E6,1473                                  EBANK=   CSMMASS
000239: 01,2141           03411 50066                     2CADR    V97PJOB
000240:
000241: 01,2143           16000        4.15SPOT           OCT      16000                                 #  PRELAUNCH OPTICAL VERIFICATION
000242: 01,2144  E5,1757                                  EBANK=   OGC
000243: 01,2144           02000 66065                     2CADR    COMPVER                               #  CALLS FOR OPTICS DATA AGAIN (STD LEADIN)
000244:
000245: 01,2146           16000        4.17SPOT           OCT      16000                                 #  PRELAUNCH AZIMUTH CHANGE
000246: 01,2147  E5,1671                                  EBANK=   XSM
000247: 01,2147           03132 66105                     2CADR    AZMTHCG1
000248:
000249: 01,2151           01672        4.21SPOT           GENADR   P40TMP                                #  DELTA TIME USED IN SETTING UP
000250: 01,2152           75212                           -GENADR  TIGBLNK                               #  LONG CALL OF TIGBLNK BY P40,P41
000251: 01,2153  E7,1672                                  EBANK=   P40TMP
000252: 01,2153           50067                           BBCON    TIGBLNK
000253:
000254: 01,2154           12000        4.23SPOT           OCT      12000                                 #  PROTECT P40S/SV BY P40 P41
000255: 01,2155  E7,1412                                  EBANK=   TIG
000256: 01,2155           02523 50067                     2CADR    P40S/SV
000257:
000258: 01,2157           24000        4.25SPOT           OCT      24000
000259: 01,2160     0302                                  EBANK=   BESTI
000260: 01,2160           02002 30060                     2CADR    PROG52
000261:
000262: 01,2162           77777        4.27SPOT           DEC      -0         B-14
000263: 01,2163  E6,1423                                  EBANK=   PACTOFF
000264: 01,2163           75113 27711                     -2CADR   IGNITION
000265:
000266: 01,2165           13000        4.31SPOT           OCT      13000
000267: 01,2166  E5,1765                                  EBANK=   STAR
000268: 01,2166           02622 30065                     2CADR    R51
000269:
000270: 01,2170           04064        4.33SPOT           DEC      2100       B-14                       #  PROTECT CONTINUING JOB TO START P63
000271: 01,2171  E6,1661                                  EBANK=   AOG
000272: 01,2171           75402 23711                     -2CADR   WAKEP62
000273:
000274: 01,2173           65777        4.35SPOT           OCT      65777                                 #  PRIO 12 NOVAC
000275: 01,2174  E6,1465                                  EBANK=   DAPDATR1
000276: 01,2174           03174 50066                     2CADR    POSTBURN
000277:
000278: 01,2176           00764        4.37SPOT           DEC      500        B-14


000280: 01,2177  E7,1412                                  EBANK=   TIG
000281: 01,2177           75175 27710                     -2CADR   TIGAVEG
000282:
000283: 01,2201           17000        4.41SPOT           OCT      17000                                 #  PROTECT DISPLAY JOB IN P67
000284: 01,2202  E6,1661                                  EBANK=   AOG
000285: 01,2202           02511 54066                     2CADR    P67.1
000286:
000287: 01,2204           76003        4.43SPOT           -GENADR  S61DT                                 #  PROTECT TASK TO START PREREAD,ENTRY
000288: 01,2205  E6,1774                                  EBANK=   S61DT                                 #  S61.1C WILL CHANGE EBANK=EB7 FOR PREREAD
000289: 01,2205           75210 23711                     -2CADR   S61.1C
000290:
000291: 01,2207           13000        4.45SPOT           OCT      13000                                 #  PROTECT CONTINUING JOB S61.1
000292: 01,2210  E6,1661                                  EBANK=   AOG                                   #  (ENTRY IMU ALIGNMENT)
000293: 01,2210           02604 54066                     2CADR    S61.1A     -1
000294:
000295: 01,2212           17000        4.47SPOT           OCT      17000                                 #  PROTECT HUNTEST ITERATION.
000296: 01,2213  E6,1661                                  EBANK=   AOG
000297: 01,2213           03013 52066                     2CADR    PRE-HUNT
000298:
000299: 01,2215           77777        4.51SPOT           OCT      77777                                 #  PROTECT FDAI ATTITUDE
000300: 01,2216  E6,1704                                  EBANK=   SPOLYARG
000301: 01,2216           75462 07711                     -2CADR   ATERTASK
000302:
000303: 01,2220           47777        4.53SPOT           OCT      47777                                 #  PRIO 30 NOVAC
000304: 01,2221  E6,1473                                  EBANK=   CSMMASS
000305: 01,2221           03322 50066                     2CADR    V97EJOB
000306:
000307: 01,2223           64777        4.55SPOT           OCT      -13000                                #  PROTECT P65 RESPONSIVE DISPLAY
000308: 01,2224  E7,1451                                  EBANK=   RTINIT
000309: 01,2224           02456 54067                     2CADR    P65.1
000310:
000311: 01,2226           76105        4.57SPOT           -GENADR  P40TMP
000312: 01,2227  E7,1672                                  EBANK=   P40TMP
000313: 01,2227           74101 27710                     -2CADR   TIGON
000314:
000315: 01,2231           76317        4.61SPOT           -GENADR  AVEGDT     +1
000316: 01,2232  E7,1427                                  EBANK=   TGO
000317: 01,2232           74141 11710                     -2CADR   SIVBOFF
000318:
000319:                                                                                                  #  ANY MORE GROUP 4.ODD RESTART VALUES SHOULD GO HERE
000320:
000321: 01,2234           32000        5.2SPOT            OCT      32000
000322: 01,2235  E7,1425                                  EBANK=   DVTOTAL
000323: 01,2235           03154 76067                     2CADR    NORMLIZE
000324:
000325: 01,2237           00310                           DEC      200        B-14
000326: 01,2240  E6,1661                                  EBANK=   AOG
000327: 01,2240           74555 01711                     -2CADR   REREADAC
000328:
000329: 01,2242           20000        5.4SPOT            OCT      20000


000331: 01,2243  E7,1425                                  EBANK=   DVTOTAL
000332: 01,2243           03010 76067                     2CADR    SERVICER
000333:
000334: 01,2245           00310                           DEC      200        B-14
000335: 01,2246  E6,1661                                  EBANK=   AOG
000336: 01,2246           74555 01711                     -2CADR   REREADAC
000337:
000338:                                                                                                  #  ANY MORE GROUP 5.EVEN RESTART VALUES SHOULD GO HERE
000339:
000340: 01,2250           00310        5.3SPOT            DEC      200        B-14
000341: 01,2251  E6,1661                                  EBANK=   AOG
000342: 01,2251           74555 01711                     -2CADR   REREADAC
000343:
000344: 01,2253           77777        5.5SPOT            OCT      77777
000345: 01,2254  E6,1661                                  EBANK=   AOG
000346: 01,2254           75120 01711                     -2CADR   REDO5.5
000347:
000348: 01,2256           20000        5.7SPOT            OCT      20000                                 #  USED BY PRELAUNCH
000349: 01,2257  E5,1671                                  EBANK=   XSM
000350: 01,2257           02232 66065                     2CADR    RSTGTS1
000351:
000352: 01,2261           77777        5.11SPOT           OCT      77777
000353: 01,2262  E5,1671                                  EBANK=   XSM
000354: 01,2262           75421 11712                     -2CADR   ALLOOP1
000355:
000356: 01,2264           20000        5.13SPOT           OCT      20000
000357: 01,2265  E5,1671                                  EBANK=   XSM
000358: 01,2265           02303 66065                     2CADR    WTLISTNT
000359:
000360: 01,2267           20000        5.15SPOT           OCT      20000
000361: 01,2270  E5,1671                                  EBANK=   XSM
000362: 01,2270           03100 66065                     2CADR    RESTEST1
000363:
000364: 01,2272           77777        5.17SPOT           OCT      77777
000365: 01,2273  E7,1425                                  EBANK=   DVTOTAL
000366: 01,2273           75170 01710                     -2CADR   PREREAD
000367:
000368: 01,2275           22000        5.21SPOT           OCT      22000
000369: 01,2276  E5,1671                                  EBANK=   XSM
000370: 01,2276           02412 66065                     2CADR    ALFLT1
000371:
000372: 01,2300           77777        5.23SPOT           OCT      77777
000373: 01,2301  E5,1671                                  EBANK=   XSM
000374: 01,2301           75376 11712                     -2CADR   SPECSTS
000375:
000376: 01,2303           20000        5.25SPOT           OCT      20000
000377: 01,2304  E5,1671                                  EBANK=   XSM
000378: 01,2304           03111 66065                     2CADR    RESTEST3
000379:
000380: 01,2306           20000        5.27SPOT           OCT      20000


000382: 01,2307  E5,1671                                  EBANK=   XSM
000383: 01,2307           03057 66065                     2CADR    RESTAIER
000384:
000385: 01,2311           77777        5.31SPOT           OCT      77777
000386: 01,2312  E6,1661                                  EBANK=   AOG
000387: 01,2312           75037 01711                     -2CADR   CHEKAVEG
000388:
000389: 01,2314           20000        5.33SPOT           OCT      20000
000390: 01,2315  E5,1671                                  EBANK=   XSM
000391: 01,2315           03134 66065                     2CADR    RESCHNG
000392:
000393:                                                                                                  #  ANY MORE GROUP 5.ODD RESTART VALUES SHOULD GO HERE
000394:
000395: 01,2317           77777        6.2SPOT            OCT      77777                                 #  USED BY P40 AFTER GIMB DR TST TO REPOS'N
000396: 01,2320  E6,1476                                  EBANK=   AK                                    #  ENGINE UNTIL TVCDAPON
000397: 01,2320           75422 37711                     -2CADR   PRE40.6
000398:
000399: 01,2322           00144                           DEC      100        B-14
000400: 01,2323  E7,1660                                  EBANK=   TTOGO
000401: 01,2323           74552 27710                     -2CADR   CLOKTASK
000402:
000403:                                                                                                  #  ANY MORE 6.ODD RESTART VALUES SHOULD GO HERE
000404:
000405: 01,2325           00144        6.3SPOT            DEC      100        B-14
000406: 01,2326  E7,1412                                  EBANK=   TIG
000407: 01,2326           74552 27710                     -2CADR   CLOKTASK
000408:
000409: 01,2330           30000        6.5SPOT            OCT      30000                                 #  PROTECT INCREMENTING OF TIME2,TIME1 BY
000410: 01,2331  E3,1706                                  EBANK=   TEPHEM                                #  P27NUPDATE PROGRAM)
000411: 01,2331           03575 56063                     2CADR    TIMEDIDR
000412:
000413: 01,2333           50777        6.7SPOT            OCT      50777                                 #  PRIO 27 NOVAC
000414: 01,2334  E6,1473                                  EBANK=   CSMMASS
000415: 01,2334           03365 50066                     2CADR    V97TJOB
000416:
000417: 01,2336           76052        6.11SPOT           -GENADR  CM/GYMDT                              #  PROTECT TASK TO READ CDUS.
000418: 01,2337  E6,1725                                  EBANK=   CM/GYMDT                              #  FOR ENTRY DAP
000419: 01,2337           75714 45711                     -2CADR   READGYMB
000420:


000422:
000423:                                                                                                  #  PROGRAM DESCRIPTION: NEWPHASE                                         DATE: 11 NOV 1966
000424:                                                                                                  #  MOD: 1                                                                ASSEMBLY: SUNBURST REV
000425:                                                                                                  #  MOD BY: COPPS                                                         LOG SECTION: PHASE TABLE MAINTENANCE
000426:
000427:                                                                                                  #  FUNCTIONAL DESCRIPTION:
000428:
000429:                                                                                                  #        NEWPHASE IS THE QUICK WAY TO MAKE A NON VARIABLE PHASE CHANGE.  IT INCLUDES THE OPTION OF SETTING
000430:                                                                                                  #        TBASE OF THE GROUP. IF TBASE IS TO BE SET,  -C(TIME1) IS STORED IN THE TBASE TABLE AS FOLLOWS:
000431:
000432:                                                                                                  #                (L-1)   TBASE0
000433:                                                                                                  #                (L)     TBASE1  (IF GROUP=1)
000434:                                                                                                  #                (L+1)
000435:                                                                                                  #                (L+2)   TBASE2  (IF GROUP=2)
000436:                                                                                                  #                -----
000437:                                                                                                  #                (L+6)   TBASE4  (IF GROUP=4)
000438:                                                                                                  #                (L+7)
000439:                                                                                                  #                (L+8)   TBASE5  (IF GROUP=5)
000440:
000441:                                                                                                  #        IN ANY CASE, THE NEGATIVE OF THE PHASE, FOLLOWED (IN THE NEXT REGISTER) BY THE PHASE, IS STORED IN THE
000442:                                                                                                  #        PHASE TABLE AS FOLLOWS:
000443:
000444:                                                                                                  #                (L)     -PHASE1 (IF GROUP=1)
000445:                                                                                                  #                (L+1)   PHASE1
000446:                                                                                                  #                (L+2)   -PHASE2 (IF GROUP=2)
000447:                                                                                                  #                (L+3)   PHASE2
000448:                                                                                                  #                -----
000449:                                                                                                  #                (L+7)   PHASE4
000450:                                                                                                  #                (L+8)   -PHASE5 (IF GROUP=5)
000451:                                                                                                  #                (L+9)   PHASE5
000452:
000453:                                                                                                  #  CALLING SEQUENCE:
000454:
000455:                                                                                                  #        EXAMPLE IS FOR PLACING A PHASE OF FIVE INTO GROUP THREE:
000456:
000457:                                                                                                  #        1)      IF TBASE IS NOT TO BE SET:
000458:                                                                                                  #                        L-1     CA      FIVE
000459:                                                                                                  #                        L       TC      NEWPHASE
000460:                                                                                                  #                        L+1     OCT     00003
000461:
000462:                                                                                                  #        2)      IF TBASE IS TO BE SET:
000463:                                                                                                  #                        L-1     CS      FIVE
000464:                                                                                                  #                        L       TC      NEWPHASE
000465:                                                                                                  #                        L+1     OCT     00003
000466:
000467:                                                                                                  #  SUBROUTINES CALLED:  NONE
000468:
000469:                                                                                                  #  NORMAL EXIT MODE:  AT L+2 OF CALLING SEQUENCE
000470:
000471:                                                                                                  #  ALARM OR ABORT EXITS:  NONE
000472:
000473:                                                                                                  #  OUTPUT:  PHASE TABLE AND TBASE TABLE UPDATED
000474:
000475:                                                                                                  #  ERASABLE INITIALIZATION REQ,D:  NONE


000477:                                                                                                  #  DEBRIS: A,L,TEMPG
000478:
000479:                                                                                                  #  *** WARNING *** THIS PROGRAM IS TO BE PLACED IN FIXED-FIXED AND UNSWITCHED ERASABLE.
000480:
000481:    4000                                           SETLOC   FFTAG1
000482:    4000                                           BANK
000483:
000484:    4126                                           COUNT*   $$/PHASE
000485:
000486:    4126           00004        NEWPHASE           INHINT
000487:
000488:    4127           54001                           TS       L                                     #  SAVE FOR FURTHER USE
000489:
000490:    4130           50002                           NDX      Q                                     #  OBTAIN THE GROUP NUMBER
000491:    4131           30000                           CA       0
000492:    4132           24002                           INCR     Q                                     #  OBTAIN THE RETURN ADDRESS
000493:    4133           60000                           DOUBLE                                         #  SAVE THE GROUP IN A FORM USED FOR
000494:    4134           54061                           TS       TEMPG                                 #  INDEXING
000495:
000496:    4135           10001                           CCS      L                                     #  SEE IF WE ARE TO SET TBASE
000497:    4136           14145                           TCF      +7                                    #  NO, THE DELTA T WAS POSITIVE
000498:    4137           14145                           TCF      +6
000499:
000500:    4140           24000        NUFAZ+10           INCR     A                                     #  SET TBASE AND STORE PHASE CORRECTLY
000501:    4141           54001                           TS       L
000502:
000503:    4142           40025                           CS       TIME1                                 #  SET TBASE
000504:    4143           50061                           NDX      TEMPG
000505:    4144           55255                           TS       TBASE1     -2
000506:
000507:    4145           40001                           CS       L                                     #  NOW PUT THE PHASE IN THE RIGHT TABLE LOC
000508:    4146           50061                           NDX      TEMPG
000509:    4147           53154                           DXCH     -PHASE1    -2
000510:
000511:    4150           15642                           TCF      REQ                                   #  NOW RETURN TO CALL
000512:
000513:

End of include-file RESTART_TABLES.agc.  Parent file is MAIN.agc


