
Source Code


000002:                                                                                                  ## Copyright:   Public domain.
000003:                                                                                                  ## Filename:    SERVICER207.agc
000004:                                                                                                  ## Purpose:     A section of Artemis revision 071.
000005:                                                                                                  ##              It is part of the reconstructed source code for the first
000006:                                                                                                  ##              release of the flight software for the Command Module's
000007:                                                                                                  ##              (CM) Apollo Guidance Computer (AGC) for Apollo 15 through
000008:                                                                                                  ##              17. The code has been recreated from a copy of Artemis 072.
000009:                                                                                                  ##              It has been adapted such that the resulting bugger words
000010:                                                                                                  ##              exactly match those specified for Artemis 071 in NASA
000011:                                                                                                  ##              drawing 2021154-, which gives relatively high confidence
000012:                                                                                                  ##              that the reconstruction is correct.
000013:                                                                                                  ## Reference:   823
000014:                                                                                                  ## Assembler:   yaYUL
000015:                                                                                                  ## Contact:     Ron Burkey <info@sandroid.org>.
000016:                                                                                                  ## Website:     www.ibiblio.org/apollo/index.html
000017:                                                                                                  ## Mod history: 2019-08-14 MAS  Created from Artemis 072.
000018:


000020:
000021:                                                                                                  #  PROGRAM NAME - PREREAD, READACCS, SERVICER, AVERAGE G.
000022:
000023:                                                                                                  #  MOD NO. 00    BY M. HAMILTON  DEC. 12, 1966
000024:
000025:                                                                                                  #  FUNCTIONAL DESCRIPTION
000026:
000027:                                                                                                  #  THE ROUTINES DESCRIBED BELOW ARE USED TO CALCULATE VALUES OF RN, VN, AND GDT/2 DURING ACCELERATED FLIGHT.
000028:                                                                                                  #  THE SEVERAL ROUTINES COMPRISE A PACKAGE AND ARE NOT MEANT TO BE USED AS SEPARATE SUBROUTINES.
000029:
000030:                                                                                                  #  GENERAL REFERENCES TO  SERVICER  OR  AVERAGE G  ARE UNDERSTOOD TO REFER TO THE ENTIRE SET OF ROUTINES INCLUDING
000031:                                                                                                  #  READACCS, SERVICER, AVERAGE G, INTEREAD, SMOOTHER, AND ANY ADDITIONAL ROUTINES ATTACHED AT AVGEXIT (SEE BELOW).
000032:
000033:                                                                                                  #  PROGRAMS INITIATING SERVICER ARE REQUIRED TO MAKE A WAITLIST CALL FOR PREREAD (OR, IF LIFTOFF, FOR BIBIBIAS)
000034:                                                                                                  #  AT 2 SECONDS BEFORE THE FIRST AVERAGE G UPDATE IN ORDER TO INITIALIZE THE SEQUENCE, WHICH WILL RECUR EVERY
000035:                                                                                                  #  2 SECONDS FROM THAT TIME ON AS LONG AS AVEGFLAG REMAINS SET.
000036:
000037:                                                                                                  #  THE USE OF ERASABLE AVGEXIT ALLOWS VARIOUS ROUTINES TO BE PERFORMED AS PART OF THE NORMAL CYCLE (SEE
000038:                                                                                                  #  EXPLANATION OF AVGEXIT BELOW).
000039:
000040:                                                                                                  #  DESCRIPTIONS OF INDIVIDUAL ROUTINES FOLLOW.
000041:
000042:                                                                                                  #        PREREAD
000043:
000044:                                                                                                  #                PREVIOUSLY EXTRAPOLATED VALUES COPIED FROM RN1, VN1, AND PIPTIME1 INTO RN, VN, AND PIPTIME.
000045:                                                                                                  #                LASTBIAS JOB SCHEDULED.
000046:                                                                                                  #                PIPS READ AND CLEARED VIA PIPASR SUBROUTINE.
000047:                                                                                                  #                AVERAGE G FLAG SET ON.
000048:                                                                                                  #                DRIFT FLAG SET OFF.
000049:                                                                                                  #                V37 FLAG SET ON.
000050:                                                                                                  #                INITIALIZATION OF       1) THRUST MONITOR (DVMON) - DVCNTR SET TO ONE.
000051:                                                                                                  #                                        2) TOTAL ACCUMULATED DELV VALUE (DVTOTAL) - SET TO ZERO.
000052:                                                                                                  #                                        3) AXIS VECTOR (AXIS) - SET TO (.5,0,0).
000053:                                                                                                  #                NORMLIZE JOB SCHEDULED.
000054:                                                                                                  #                READACCS TASK CALLED IN 2 SECONDS.
000055:
000056:                                                                                                  #        NORMLIZE
000057:
000058:                                                                                                  #                GDT/2 INITIALIZED VIA CALCGRAV SUBROUTINE.
000059:
000060:                                                                                                  #        READACCS
000061:
000062:                                                                                                  #                IF ONMON FLAG SET QUIKREAD ROUTINE IS PERFORMED BEFORE PIPASR ZEROS THE PIPA REGISTERS, AND THE 1/2 SEC
000063:                                                                                                  #                ONMONITOR LOOP IS INITIATED TO PROVIDE DOWNLINK INFORMATION DURING ENTRY.
000064:                                                                                                  #                PIPS READ AND CLEARED BY PIPASR SUBROUTINE.
000065:                                                                                                  #                IF CM/DSTBY IS ON, ENTRY VARIABLES INITIALIZED AND SETJTAG TASK CALLED.


000067:
000068:                                                                                                  #                IF AVERAGEG FLAG ON     READACCS CALLED TO RECYCLE IN 2 SECONDS.
000069:                                                                                                  #                IF AVERAGEG FLAG OFF    AVERAGE G EXIT (AVGEXIT) SET TO 2CADR AVGEND FOR FINAL PASS.
000070:                                                                                                  #                SERVICER JOB SCHEDULED.
000071:
000072:                                                                                                  #                TEST CONNECTOR OUTBIT TURNED ON.
000073:
000074:                                                                                                  #        ONMNITOR
000075:
000076:                                                                                                  #                A SEQUENCE OF THREE PASSES THROUGH QUICKREAD FOLLOWING A CALL TO READACCS WITH ONMONFLG SET AT 1/2
000077:                                                                                                  #                SEC INTERVALS. INTERVALS ARE COUNTED OUT BY PIPCTR, INITIALISED AT 3 BY READACCS
000078:
000079:                                                                                                  #        QUIKREAD
000080:
000081:                                                                                                  #                READS CURRENT PIPS INTO X,Y,ZPIPBUF. READS OLD X,Y,ZPIPBUF INTO X,Y,ZOLDBUF. VALUES ARE SENT TO
000082:                                                                                                  #                DOWNLIST DURING ENTRY.
000083:
000084:                                                                                                  #        SERVICER
000085:
000086:                                                                                                  #                DELV VALUES CHECKED TO DETECT RUNAWAY PIP -
000087:                                                                                                  #                        IF BAD PIP      1) ALARM SENT.
000088:                                                                                                  #                                        2) COMPENSATION, DVTOTAL ACCUMULATION, AND DVMON BYPASSED.  CONTROL
000089:                                                                                                  #                                           TRANSFERRED TO AVERAGE G.
000090:                                                                                                  #                PIPS COMPENSATED VIA 1/PIPA SUBROUTINE.
000091:                                                                                                  #                DVTOTAL INCREMENTED BY ABSOLUTE VALUE OF DELV.
000092:                                                                                                  #                THRUST MONITOR (DVMON) PERFORMED UNLESS IDLE FLAG IS ON.
000093:                                                                                                  #                CONTROL TRANSFERRED TO AVERAGE G.
000094:
000095:                                                                                                  #        DVMON
000096:
000097:                                                                                                  #                THRESHOLD VALUE (PLACED IN DVTHRUSH BY USER) CHECKED AGAINST ABSOLUTE VALUE OF DELV TO CHECK
000098:                                                                                                  #                THRUST LEVEL.
000099:
000100:                                                                                                  #                        IF THRUST       1) ULLAGE OFF ROUTINE PERFORMED.
000101:                                                                                                  #                                        2) STEERING FLAG TURNED ON AT FIRST DETECTION OF THRUST.
000102:                                                                                                  #                                        3) CONTROL TRANSFERRED TO AVERAGE G.
000103:                                                                                                  #                        IF NO THRUST    1) ON FIRST PASS THROUGH MONITOR, CONTROL TRANSFERRED TO AVERAGE G.
000104:                                                                                                  #                                        2) ON SUBSEQUENT PASSES, CONTROL TRANSFERRED TO ENGINE FAIL ROUTINE IF THRUST
000105:                                                                                                  #                                           HAS FAILED FOR 3 CONSECUTIVE PASSES.
000106:
000107:                                                                                                  #        ENGINE FAIL
000108:
000109:                                                                                                  #                ENGFAIL1 TASK CALLED IN 2.5 SECONDS.  THIS WILL RETURN CONTROL TO TIG-5 SO THAT THE IGNITION
000110:                                                                                                  #                        SEQUENCE MAY BE REPEATED.
000111:                                                                                                  #                ENGINOF3 PERFORMED.
000112:                                                                                                  #                DAP SET UP FOR RCS.
000113:                                                                                                  #
000114:                                                                                                  #        AVERAGE G


000116:                                                                                                  #                RN1, VN1, GDT1/2 CALCULATED VIA CALCRVG ROUTINE BY UPDATING RN, VN WITH DELV AND AN AVERAGED VALUE
000117:                                                                                                  #                OF GDT/2.
000118:                                                                                                  #                RN1, VN1, GDT1/2, PIPTIME1 COPIED INTO RN, VN, GDT/2, PIPTIME FOR RESTART PROTECTION.
000119:                                                                                                  #                CONTROL TRANSFERRED TO ADDRESS SPECIFIED BY USER (OR BY READACCS FOR LAST PASS) IN AVGEXIT.
000120:                                                                                                  #                LAST PASS (AVGEND)      1) FREE FALL GYRO COMPENSATION SET UP.
000121:                                                                                                  #                                        2) DRIFT FLAG TURNED ON.
000122:                                                                                                  #                                        3) STATE VECTOR TRANSFERRED VIA AVETOMID ROUTINE.
000123:                                                                                                  #                                        4) ONMONITOR FLAG RESET.
000124:                                                                                                  #                                        5) V37 FLAG RESET.
000125:                                                                                                  #                                        6) TEST CONNECTOR OUTBIT RESET.
000126:                                                                                                  #                                        7) CONTROL TRANSFERRED TO CANV37 TO CONTINUE MM CHANGE ROUTINE (R00).
000127:
000128:                                                                                                  #  CALLING SEQUENCE
000129:
000130:                                                                                                  #        PREREAD ENTERED DIRECTLY FROM TIG-30 VIA POSTJUMP.
000131:                                                                                                  #        READACCS CALLED AS WAITLIST TASK.                               .
000132:
000133:                                                                                                  #  SUBROUTINES CALLED
000134:
000135:                                                                                                  #        UTILITY ROUTINES - PHASCHNG FLAGUP FLAGDOWN NOVAC FINDVAC WAITLIST ALARM NEWPHASE 2PHSCHNG
000136:
000137:                                                                                                  #        OTHER - PIPASR  1/PIPA  CALCGRAV  CALCRVG  AVETOMID
000138:
000139:                                                                                                  #  NORMAL EXIT MODES
000140:
000141:                                                                                                  #        ENDOFJOB        TASKOVER        CANV37
000142:
000143:                                                                                                  #        AVGEXIT - THIS IS A DOUBLE PRECISION ERASABLE LOCATION BY WHICH CONTROL IS TRANSFERRED AT THE END
000144:                                                                                                  #                  OF EACH CYCLE OF AVERAGE G.
000145:                                                                                                  #                  THE 2CADR OF A ROUTINE TO BE PERFORMED AT THAT TIME (E.G., STEERING EQUATIONS TO BE PERFORMED
000146:                                                                                                  #                  AT 2 SECOND INTERVALS) MAY BE SET BY THE USER INTO AVGEXIT.
000147:                                                                                                  #                  ALL SUCH ROUTINES SHOULD RETURN TO SERVEXIT, WHICH IS THE NORMAL EXIT FROM AVERAGE G.
000148:
000149:                                                                                                  #        SERVEXIT - DOES A PHASE CHANGE FOR RESTART PROTECTION AND GOES TO ENDOFJOB.
000150:                                                                                                  #                   THE 2CADR OF SERVEXIT IS SET INTO AVGEXIT BY THE USER IF NO OTHER ROUTINE (SEE ABOVE).
000151:
000152:                                                                                                  #        AVGEND - LAST PASS OF AVERAGE G EXITS HERE, BYPASSING SPECIAL ROUTINE (SEE ABOVE UNDER READACCS).
000153:                                                                                                  #                 FINAL EXIT IS TO CANV37.                               F AVERAGE G).
000154:
000155:                                                                                                  #  OUTPUT
000156:
000157:                                                                                                  #        DVTOTAL(2)  PIPTIME(2)  XPIPBUF(2)  YPIPBUF(2)  ZPIPBUF(2)
000158:                                                                                                  #        RN(6)           REFERENCE COORD.        SCALED AT 2(+29) M/CS
000159:                                                                                                  #        VN(6)           REFERENCE COORD.        SCALED AT 2(+7) M/CS
000160:                                                                                                  #        GDT/2(6)        REFERENCE COORD.        SCALED AT 2(+7) M/CS
000161:                                                                                                  #        DELV(6)         STABLE MEMB. COORD.     SCALED AT 2(+14)*5.85*10(-4) M/CS (KPIP1 USED TO GET DV/2 AT 2(+7))


000163:                                                                                                  #        DELVREF(6)      REFERENCE COORD.        SCALED AT 2(+7) M/CS
000164:
000165:                                                                                                  #  INITIALIZATION
000166:
000167:                                                                                                  #        ONMONITOR FLAG SET BY ENTRY TO SHOW PIPBUF VALUES REQUIRED.
000168:                                                                                                  #        IDLE FLAG ON IF DVMON TO BE BYPASSED.
000169:                                                                                                  #        DVTHRUSH SET TO APPROPRIATE VALUE FOR DVMON.
000170:                                                                                                  #        AVGEXIT SET TO 2CADR OF ROUTINE, IF ANY, TO BE PERFORMED AFTER EACH CYCLE OF AVERAGE G.  IF NO ROUTINE
000171:                                                                                                  #                TO BE DONE, AVGEXIT SET TO SERVEXIT.
000172:                                                                                                  #        VALUES NEEDED
000173:                                                                                                  #                REFSMMAT
000174:                                                                                                  #                UNITW - FULL UNIT VECTOR, IN REFERENCE COORD., OF EARTH S ROTATIONAL VECTOR
000175:                                                                                                  #                RN1, VN1, PIPTIME1 - IN REFERENCE COORD., CONSISTENT WITH TIME OF EXECUTION OF PREREAD
000176:
000177:                                                                                                  #  DEBRIS
000178:
000179:                                                                                                  #        CENTRALS        A, L, Q
000180:                                                                                                  #        OTHER           INTERNAL - DVCNTR(1)  PIPAGE(1)  PIPCTR(1)  AVGEXIT(2)
000181:                                                                                                  #                        EXTERNAL - ITEMP1(1)  ITEMP2(1)  RUPTREG1(1)  TEMX(1)  TEMY(1)  TEMZ(1)
000182:                                                                                                  #                        USEFUL DEBRIS
000183:                                                                                                  #                                RN1(6)  VN1(6)  GDT1/2  PIPTIME1(2)
000184:                                                                                                  #                                        THESE LOCATIONS USED AS BUFFER STORAGE FOR NEWLY CALCULATED VALUES OF RN, VN, GDT/2,
000185:                                                                                                  #                                        AND PIPTIME DURING PERFORMANCE OF SERVICER ROUTINES.
000186:                                                                                                  #                                UNITR - HALF UNIT VECTOR OF RN, REFERENCE COORD.
000187:                                                                                                  #                                RMAG SCALED AT 2(+58) IN 36D.
000188:                                                                                                  #                                RMAGSQ SCALED AT 2(+58) IN 34D.
000189:                                                                                                  #                                (RE/RMAG)SQ IN 32D.
000190:
000191: 37,2000                                           SETLOC   SERVICES
000192: 37,2000                                           BANK
000193:
000194: 37,2607  E7,1425                                  EBANK=   DVTOTAL
000195:
000196:                                                                                                  #  *************************************   PREREAD   **************************************************************
000197:
000198: 37,2607                                           COUNT*   $$/SERV
000199: 37,2607           35057        PREREAD            CAF      PRIO21                                #  CALLER MUST PROTECT PREREAD
000200: 37,2610           05121                           TC       NOVAC
000201: 37,2611  E3,1460                                  EBANK=   NBDX
000202: 37,2611           03655 14063                     2CADR    LASTBIAS                              #  DO LAST GYRO COMPENSATION IN FREE FALL
000203:
000204:                                                                                                  #  CALL-TO AND LASTBIAS ITSELF ARE NOT
000205:                                                                                                  #        PROTECTED. REREADAC SETS 1/PIPADT
000206:                                                                                                  #        TO 2.0 SECS IN CASE LASTBIAS LOST.
000207:                                                                                                  #        (REDUNDANT IF LASTBIAS IS AOK)
000208:
000209: 37,2613           02630        REDO5.31           TC       PREREAD1


000211: 37,2614           37654                           CAF      PRIO32
000212: 37,2615           05135                           TC       FINDVAC                               #  SET UP NORMLIZE JOB REQUIRED PRIOR TO
000213: 37,2616  E7,1425                                  EBANK=   DVTOTAL
000214: 37,2616           03154 76067                     2CADR    NORMLIZE
000215:
000216: 37,2620           35017                           CAF      2SECS
000217: 37,2621           05233                           TC       WAITLIST
000218: 37,2622  E6,1661                                  EBANK=   AOG
000219: 37,2622           02652 76066                     2CADR    READACCS
000220:
000221: 37,2624           44767                           CS       TWO
000222: 37,2625           04126                           TC       NEWPHASE
000223: 37,2626           00005                           OCT      5
000224:
000225: 37,2627  01,2234               5P2SPT2            =        5.2SPOT
000226: 37,2627           15314                           TCF      TASKOVER
000227:
000228: 37,2630           00006        PREREAD1           EXTEND
000229: 37,2631           22070                           QXCH     RUPTREG1
000230:
000231: 37,2632           03171                           TC       PIPASR                                #  CLEAR + READ PIPS LAST TIME IN FREE FALL
000232:
000233: 37,2633           34770                           CAF      ONE                                   #  SET UP PIPAGE FOR REREADAC IN CASE A
000234: 37,2634           55067                           TS       PIPAGE                                #        RESTART OCCURS BEFORE READACCS
000235:
000236: 37,2635           40075                           CS       FLAGWRD1                              #  SET AVEG FLAG
000237: 37,2636           74770                           MASK     AVEGBIT
000238: 37,2637           26075                           ADS      FLAGWRD1
000239:
000240: 37,2640           44752                           CS       DRFTBIT
000241: 37,2641           70076                           MASK     FLAGWRD2
000242: 37,2642           54076                           TS       FLAGWRD2                              #  KNOCK DOWN DRIFT FLAG
000243:
000244: 37,2643           40103                           CS       FLAGWRD7                              #  SET V37 FLAG
000245: 37,2644           74763                           MASK     V37FLBIT
000246: 37,2645           26103                           ADS      FLAGWRD7
000247:
000248: 37,2646           34772                           CAF      ZERO
000249: 37,2647           55425                           TS       DVTOTAL                               #  CLEAR DVTOTAL
000250: 37,2650           55426                           TS       DVTOTAL    +1
000251:
000252: 37,2651           00070                           TC       RUPTREG1
000253:


000255:                                                                                                  #  *************************************   READACCS   *************************************************************
000256: 37,2652  E6,1661                                  EBANK=   AOG
000257: 37,2652           03171        READACCS           TC       PIPASR
000258:
000259: 37,2653           34773        PIPSDONE           CAF      FIVE
000260: 37,2654           54001                           TS       L
000261: 37,2655           40000                           COM
000262: 37,2656           53166                           DXCH     -PHASE5
000263:
000264: 37,2657  01,2253               5P5SPT1            =        5.5SPOT
000265: 37,2657           34770        REDO5.5            CAF      ONE                                   #  SHOW PIPS HAVE BEEN READ
000266: 37,2660           55067                           TS       PIPAGE
000267:
000268: 37,2661           34767                           CA       TWO                                   #  SET PIPCTR FOR ONMINTOR
000269: 37,2662           55066                           TS       PIPCTR                                #  AFTER ABOVE PHASCHNG
000270:
000271: 37,2663           40102                           CS       CM/FLAGS
000272: 37,2664           74767                           MASK     CM/DSBIT                              #  103D BIT2
000273: 37,2665           10000                           CCS      A
000274: 37,2666           02740                           TC       CHEKAVEG
000275:
000276: 37,2667           41105                           CS       PIPTIME1   +1
000277: 37,2670           55271                           TS       TBASE6                                #  FOR RESTARTS
000278: 37,2671           00006                           EXTEND                                         #  CONTINUE FOR ENTRY DAP
000279: 37,2672           31662                           DCA      AOG
000280: 37,2673           53670                           DXCH     AOG/PIP
000281: 37,2674           31663                           CA       AMG
000282: 37,2675           57671                           XCH      AMG/PIP
000283: 37,2676           00006                           EXTEND
000284: 37,2677           31665                           DCA      ROLL/180
000285: 37,2700           53673                           DXCH     ROLL/PIP
000286: 37,2701           31666                           CA       BETA/180
000287: 37,2702           57674                           XCH      BETA/PIP
000288: 37,2703           30102                           CA       CM/FLAGS
000289: 37,2704           74755                           MASK     CMARMBIT                              #  93D BIT12
000290: 37,2705           00006                           EXTEND                                         #  DURING ENTRY, WHEN RCS DAP IS INACTIVE,
000291: 37,2706           12723                           BZF      NOSAVPIP                              #  SAVE PIPAS EACH 0.5 SEC FOR TM.
000292:
000293: 37,2707           35011                           CAF      .5SEC
000294: 37,2710           05223                           TC       TWIDDLE
000295: 37,2711           02773                           ADRES    QUIKREAD
000296:                                                                                                  #  NO NEED TO RESTART PROTECT THIS.
000297: 37,2712           31314                           CA       DELVX                                 #  SAVE PIPAS AS READ (BUT NOT COMPENSATED)
000298: 37,2713           57533                           XCH      XPIPBUF
000299: 37,2714           55536                           TS       XOLDBUF
000300:
000301: 37,2715           31316                           CA       DELVY
000302: 37,2716           57534                           XCH      YPIPBUF
000303: 37,2717           55537                           TS       YOLDBUF


000305: 37,2720           31320                           CA       DELVZ
000306: 37,2721           57535                           XCH      ZPIPBUF
000307: 37,2722           55540                           TS       ZOLDBUF
000308:
000309: 37,2723           34773        NOSAVPIP           CA       FIVE
000310: 37,2724           55725                           TS       CM/GYMDT
000311:
000312: 37,2725           33153                           CA       JTAGTIME                              #  ACTIVATE CM/RCS AFTER PIPUP TO GO
000313:                                                                                                  #  IN JTAGTIME +5 CS.
000314: 37,2726           05233                           TC       WAITLIST
000315: 37,2727  E6,1661                                  EBANK=   AOG
000316: 37,2727           02636 32066                     2CADR    SETJTAG
000317:
000318: 37,2731           46214                           CS       THREE                                 #  1.3SPOT FOR SETJTAG
000319: 37,2732           04126                           TC       NEWPHASE
000320: 37,2733           00001                           OCT      1
000321:
000322: 37,2734  01,2014               1P3SPT1            =        1.3SPOT
000323: 37,2734           34125                           CAF      OCT31                                 #  5.31SPOT FOR CHEKAVEG
000324: 37,2735           54001                           TS       L
000325: 37,2736           40000                           COM
000326: 37,2737           53166                           DXCH     -PHASE5
000327:
000328: 37,2740  01,2311               5P31SPOT           =        5.31SPOT
000329: 37,2740           40075        CHEKAVEG           CS       FLAGWRD1
000330: 37,2741           74770                           MASK     AVEGBIT
000331: 37,2742           10000                           CCS      A                                     #  IF AVEG FLAG DOWN SET FINAL EXIT AVEG
000332: 37,2743           02762                           TC       AVEGOUT
000333:
000334: 37,2744           35017                           CAF      2SECS
000335: 37,2745           05223                           TC       TWIDDLE
000336: 37,2746           02652                           ADRES    READACCS
000337: 37,2747           34753        MAKESERV           CAF      PRIO20                                #  ESTABLISH SERVICER ROUTINE
000338: 37,2750           05135                           TC       FINDVAC
000339: 37,2751  E7,1425                                  EBANK=   DVTOTAL
000340: 37,2751           03010 76067                     2CADR    SERVICER
000341:
000342: 37,2753           44766                           CS       FOUR                                  #  RESTART SERVICER AND READACCS
000343: 37,2754           04126                           TC       NEWPHASE
000344: 37,2755           00005                           OCT      5
000345:
000346: 37,2756  01,2242               5P4SPT1            =        5.4SPOT
000347: 37,2756           34760                           CAF      BIT9
000348: 37,2757           00006                           EXTEND
000349: 37,2760           05011                           WOR      DSALMOUT                              #  TURN TEST CONNECTOR OUTBIT ON
000350:
000351: 37,2761           15314                           TCF      TASKOVER                              #  END PREVIOUS READACCS WAITLIST TASK
000352:


000354: 37,2762           00006        AVEGOUT            EXTEND
000355: 37,2763           32767                           DCA      AVOUTCAD
000356: 37,2764           53062                           DXCH     AVGEXIT
000357: 37,2765           12747                           TCF      MAKESERV
000358:
000359: 37,2766  E7,1425                                  EBANK=   DVTOTAL
000360: 37,2766           03100 76067  AVOUTCAD           2CADR    AVGEND
000361:


000363:                                                                                                  #  ROUTINE NAME: ONMNITOR
000364:                                                                                                  #  MOD 04 BY BAIRNSFATHER 30 APR 1968    REDO ONMNITOR TO SAVE PIPS EACH 0.5 SEC FOR TM,ENTRY.
000365:                                                                                                  #  MOD 03 BY FISHER DECEMBER 1967
000366:                                                                                                  #  MOD 02 BY RYE SEPT 1967
000367:                                                                                                  #  MOD 01 BY KOSMALA 23 MAR 1967
000368:                                                                                                  #  MOD 00 BY KOSMALA 27 FEB 1967
000369:
000370:                                                                                                  #  FUNCTIONAL DESCRIPTION
000371:
000372:                                                                                                  #        THE PURPOSE OF ONMONITOR IS TO PROVIDE 1/2 SEC. READING OF PIPAS FOR DOWNLIST DURING ENTRY.
000373:                                                                                                  #        X,Y,ZPIPBUF CONTAIN PRESENT VALUES X,Y,ZOLDBUF CONTAIN VALUES FROM PREVIOUS READING.
000374:
000375:                                                                                                  #  CALLING SEQUENCE
000376:
000377:                                                                                                  #        CALL AS WAITLIST TASK. TERMINATES ITSELF IN TASKOVER
000378:
000379:                                                                                                  #  INITIALISATION
000380:
000381:                                                                                                  #        PIPCTR = 2 (FOR DT = 0.5 SEC)
000382:                                                                                                  #        X,Y,ZPIPBUF SET TO PREVIOUS PIPAX,Y,Z
000383:
000384:                                                                                                  #  OUTPUT
000385:
000386:                                                                                                  #        X,Y,ZPIPBUF, X,Y,ZOLDBUF
000387:
000388:                                                                                                  #  DEBRIS
000389:
000390:                                                                                                  #        X,Y,ZPIPBUF CONTAIN LAST PIPAX,Y,Z VALUES
000391:                                                                                                  #                X,Y,ZOLDBUF CONTAIN LAST-BUT-ONE PIPAX,Y,Z VALUES
000392:                                                                                                  #        RUPTREG1
000393:                                                                                                  #        PIPCTR
000394:
000395: 37,2770           55066        ONMNITOR           TS       PIPCTR
000396:
000397: 37,2771           05255                           TC       FIXDELAY                              #  WAIT
000398: 37,2772           00062        0.5SEC             DEC      50         B-14
000399:
000400: 37,2773           34767        QUIKREAD           CAF      TWO
000401: 37,2774           54070                 +1        TS       RUPTREG1
000402: 37,2775           50000                           INDEX    A
000403: 37,2776           30037                           CA       PIPAX                                 #  SAVE ACTUAL PIPAS FOR TM.
000404: 37,2777           50070                           INDEX    RUPTREG1
000405: 37,3000           57533                           XCH      XPIPBUF                               #  UPDATE X,Y,ZPIPBUF
000406: 37,3001           50070                           INDEX    RUPTREG1
000407: 37,3002           55536                           TS       XOLDBUF                               #  AND X,Y,ZOLDBUF
000408: 37,3003           10070        CHKCTR             CCS      RUPTREG1
000409: 37,3004           12774                           TCF      QUIKREAD   +1                         #  LOOP AGAIN
000410: 37,3005           11066                           CCS      PIPCTR
000411: 37,3006           12770                           TCF      ONMNITOR
000412: 37,3007           05314                           TC       TASKOVER
000413:


000415:                                                                                                  #  *************************************   SERVICER   *************************************************************
000416:
000417: 37,2000                                           SETLOC   SERVICES
000418: 37,2000                                           BANK
000419:
000420: 37,3010  E7,1425                                  EBANK=   DVTOTAL
000421:
000422: 37,3010                                           COUNT*   $$/SERV
000423: 37,3010           34767        SERVICER           CAF      TWO
000424: 37,3011           00004                           INHINT
000425: 37,3012           54070        PIPCHECK           TS       RUPTREG1
000426:
000427: 37,3013           60000                           DOUBLE
000428: 37,3014           50000                           INDEX    A
000429: 37,3015           11314                           CCS      DELVX
000430: 37,3016           03020                           TC       +2
000431: 37,3017           03026                           TC       PIPLOOP
000432:
000433: 37,3020           63152                           AD       -MAXDELV                              #  DO PIPA-SATURATION TEST BEFORE
000434: 37,3021           00006                           EXTEND
000435: 37,3022           63026                           BZMF     PIPLOOP                               #  COMPENSATION.
000436:
000437: 37,3023           05671                           TC       ALARM
000438: 37,3024           00205                           OCT      00205                                 #  SATURATED-PIPA ALARM   ***CHANGE LATER
000439: 37,3025           03056                           TC       AVERAGEG
000440:
000441: 37,3026           10070        PIPLOOP            CCS      RUPTREG1
000442: 37,3027           13012                           TCF      PIPCHECK
000443:
000444: 37,3030           05402                           TC       PHASCHNG                              #  RESTART REREADAC + SERVICER
000445: 37,3031           16035                           OCT      16035
000446: 37,3032           20000                           OCT      20000
000447: 37,3033  01,2250               5P3SPT9            =        5.3SPOT
000448: 37,3033  E7,1425                                  EBANK=   DVTOTAL
000449:
000450: 37,3033           03037 76067                     2CADR    DVTOTUP
000451:
000452: 37,3035           04636                           TC       BANKCALL                              #  PIPA COMPENSATION CALL
000453: 37,3036           15276                           CADR     1/PIPA
000454:
000455: 37,3037           06006        DVTOTUP            TC       INTPRET
000456:                                                                                                  #  THE FOLLOWING SECTION DECREMENTS 'TTE' DURING P61
000457:                                                                                                  #  THROUGH P63 ONLY. (IE: IN P60'S IF DRAG< 0.05 G)
000458: 37,3040           71214        TICKTTE            BON      DLOAD                                 #  .05GSW IS SET =1 IN FRESH START.
000459: 37,3041           03314                                    .05GSW                                #  FLAG IS ASSIGNED ONLY TO P61-P67.
000460: 37,3042           77047                                    +5                                    #  DO NOT COUNT 'TTE' IF DRAG > 0.05 G.
000461: 37,3043           03735                                    TTE2
000462: 37,3044           77615                           DAD


000464: 37,3045           01105                                    PIPTIME1                              #  DECREMENT 'TTE' BY 'PIPTIME1'. (BY 2 SEC)
000465: 37,3046           03727                           STORE    TTE                                   #  NEGATIVE AS IN A COUNTDOWN.
000466:                                                                                                  #  DURING P61 THRU P63, 'TTE' IS DECREMENTED
000467:                                                                                                  #  AND IS ON CALL AND ON ENTRY DNLIST.
000468:
000469: 37,3047           51575                           VLOAD    ABVAL                                 #  GET ABS VALUE OF DELV
000470: 37,3050           01315                                    DELV
000471: 37,3051           77405                           DMP      EXIT
000472: 37,3052           37365                                    KPIP1                                 #  SCALE AT 2(+7)
000473:
000474: 37,3053           00006                           EXTEND
000475: 37,3054           30155                           DCA      MPAC
000476: 37,3055           21426                           DAS      DVTOTAL                               #  ACCUMULATE DVTOTAL
000477: 37,3056           05402        AVERAGEG           TC       PHASCHNG
000478: 37,3057           10035                           OCT      10035
000479:
000480: 37,3060  01,2250               5P3SPT10           =        5.3SPOT
000481: 37,3060           06006                           TC       INTPRET
000482: 37,3061           77624                           CALL
000483: 37,3062           77336                                    CALCRVG
000484: 37,3063           77776                           EXIT
000485:
000486: 37,3064           05402                           TC       PHASCHNG
000487: 37,3065           10035                           OCT      10035
000488:
000489: 37,3066  01,2250               5P3SPT11           =        5.3SPOT
000490: 37,3066           34125                           CAF      OCT31                                 #  COPY RN1,VN1,GOT102,GOBL1/2,PIPTIME1
000491: 37,3067           05607                           TC       GENTRAN                               #  INTO RN, VN, GDT/12, GOBL/2,PIPTIME
000492: 37,3070           01070                           ADRES    RN1
000493: 37,3071           01027                           ADRES    RN
000494: 37,3072           00003        ENDCOPY            RELINT
000495: 37,3073           05402                           TC       PHASCHNG
000496: 37,3074           10035                           OCT      10035
000497:
000498: 37,3075  01,2250               5P3SPT12           =        5.3SPOT
000499: 37,3075           00006                           EXTEND
000500: 37,3076           31062                           DCA      AVGEXIT
000501: 37,3077           52006                           DXCH     Z                                     #  AVERAGEG EXIT
000502:
000503: 37,3100           31044        AVGEND             CA       PIPTIME    +1                         #  FINAL AVERAGE G EXIT
000504: 37,3101           55277                           TS       OLDBT1                                #  SET UP FREE FALL GYRO COMPENSATION
000505:
000506: 37,3102           05547                           TC       UPFLAG                                #  SET DRIFTFLG
000507: 37,3103           00036                           ADRES    DRIFTFLG                              #  BIT 15 FLAG 2
000508: 37,3104           05362                           TC       2PHSCHNG
000509: 37,3105           00005                           OCT      5                                     #  GROUP 5 OFF
000510: 37,3106           05022                           OCT      05022                                 #  GROUP 2 ON FOR AVETOMID
000511: 37,3107           20000                           OCT      20000
000512:
000513: 37,3110           06006                           TC       INTPRET


000515: 37,3111           77624                           CALL
000516: 37,3112           73677                                    AVETOMID                              #  CONVERT STATE VECTOR TO REFERENCE SCALE.
000517: 37,3113           77776                           EXIT
000518:
000519: 37,3114           04636                           TC       BANKCALL
000520: 37,3115           17231                           CADR     PIPFREE
000521:
000522: 37,3116           44760                           CS       BIT9
000523: 37,3117           55722                           TS       MRKBUF1                               #  INVALIDATE MARK BUFFER
000524: 37,3120           00006                           EXTEND
000525: 37,3121           03011                           WAND     DSALMOUT
000526:
000527: 37,3122           05561                           TC       DOWNFLAG
000528: 37,3123           00147                           ADRES    CM/DSTBY
000529:
000530: 37,3124           05561                           TC       DOWNFLAG
000531: 37,3125           00162                           ADRES    V37FLAG
000532:
000533: 37,3126           30104                           CA       FLAGWRD8
000534: 37,3127           74760                           MASK     UTBIT
000535: 37,3130           10000                           CCS      A
000536: 37,3131           13146                           TCF      UTAVEND
000537:
000538: 37,3132           34762                           CAF      RNDVZBIT                              #  RESTORE GROUP 1 + 2 IF P20 IS RUNNING
000539: 37,3133           70074                           MASK     FLAGWRD0
000540: 37,3134           00006                           EXTEND
000541: 37,3135           13141                           BZF      +4
000542:
000543: 37,3136           05362                           TC       2PHSCHNG
000544: 37,3137           00111                           OCT      111                                   #  1.11SPOT
000545: 37,3140           00132                           OCT      132                                   #  2.13SPOT
000546:
000547: 37,3141  01,2025               1P11SPT7           =        1.11SPOT
000548: 37,3141  01,2047               2P13SPT2           =        2.13SPOT
000549: 37,3141           04655        ENDAVEG            TC       POSTJUMP
000550: 37,3142           10162                           CADR     CANV37
000551:
000552: 37,3143           05402        SERVEXIT           TC       PHASCHNG
000553: 37,3144           00035                           OCT      00035                                 #  A, 5.3 = REREADAC  (ONLY)
000554:
000555: 37,3145  01,2250               5P3SPT13           =        5.3SPOT
000556: 37,3145           15205                           TCF      ENDOFJOB
000557:
000558: 37,3146           05362        UTAVEND            TC       2PHSCHNG
000559: 37,3147           00111                           OCT      111
000560: 37,3150           00002                           OCT      2
000561:
000562: 37,3151  01,2025               1P11SPT8           =        1.11SPOT
000563: 37,3151           13141                           TCF      ENDAVEG


000565: 37,3152     4775               DVTHRUSH           EQUALS   ELEVEN                                #  15 PERCENT OF 2SEC PIPA ACCUMULATION,
000566:                                                                                                  #        FOR 503-FULL CSM/LEM....DELV SC.AT
000567:                                                                                                  #        5.85 CM/SEC.
000568:
000569: 37,3152           63401        -MAXDELV           DEC      -6398      B-14                       #  3200 PPS FOR 2 SEC CCS TAKES 1
000570:
000571: 37,3153           00170        JTAGTIME           DEC      120        B-14                       #  = 1 SEC + T CDU, T CDU = .1 SEC
000572:
000573:                                                                                                  #  SHOULD BE 2-4 SECS FOR NO START
000574:                                                                                                  #            6-8 SECS FOR FAILURE
000575:


000577:                                                                                                  #  NORMLIZE PERFORMS THE INITIALIZATION REQUIRED PRIOR TO THE FIRST ENTRY TO AVERAGEG, AND SCALES RN SO THAT IT
000578:                                                                                                  #  HAS 1 LEADING BINARY ZERO. IN MOST MISSIONS, RN WILL BE SCALED AT 2(+29), BUT IN THE 206 MISSION, RN WILL BE
000579:                                                                                                  #  SCALED AT 2(+24) M.
000580:
000581: 37,3154           34776        NORMLIZE           CAF      THIRTEEN                              #  SET UP TO COPY 14 REGS- RN1,VN1,PIPTIME1
000582: 37,3155           05607                           TC       GENTRAN                               #  INTO RN,VN,PIPTIME
000583: 37,3156           01070                           ADRES    RN1                                   #  FROM HERE
000584: 37,3157           01027                           ADRES    RN                                    #  TO HERE
000585:
000586: 37,3160           00003                           RELINT
000587: 37,3161           06006                           TC       INTPRET
000588: 37,3162           45175                           VLOAD    CALL                                  #  LOAD RN FOR CALCGRAV
000589: 37,3163           01030                                    RN
000590: 37,3164           77270                                    CALCGRAV                              #  INITIALISE UNITR RMAG GDT1
000591:
000592: 37,3165           25046                           STOVL    GDT/2
000593: 37,3166           01115                                    GOBL1/2
000594: 37,3167           35054                           STCALL   GOBL/2
000595: 37,3170           31263                                    ENDPLAC
000596:


000598:                                                                                                  #  *****  PIPA READER *****
000599:
000600:                                                                                                  #                MOD NO. 00  BY D. LICKLY  DEC. 9 1966
000601:
000602:                                                                                                  #  FUNCTIONAL DESCRIPTION
000603:
000604:                                                                                                  #  SUBROUTINE TO READ PIPA COUNTERS, TRYING TO BE VERY CAREFUL SO THAT IT WILL BE RESTARTABLE.
000605:                                                                                                  #  PIPA READINGS ARE STORED IN THE VECTOR DELV. THE HIGH ORDER PART OF EACH COMPONENT CONTAINS THE PIPA READING,
000606:                                                                                                  #  RESTARTS BEGIN AT REREADAC.
000607:
000608:                                                                                                  #  AT THE END OF THE PIPA READER THE CDUS ARE READ AND STORED AS A
000609:                                                                                                  #  VECTOR IN CDUTEMP.  THE HIGH ORDER PART OF EACH COMPONENT CONTAINS
000610:                                                                                                  #  THE CDU READING IN 2S COMP IN THE ORDER CDUX,Y,Z.  THE THRUST
000611:                                                                                                  #  VECTOR ESTIMATOR IN FINDCDUD REQUIRES THE CDUS BE READ AT PIPTIME.
000612:
000613:                                                                                                  #  CALLING SEQUENCE AND EXIT
000614:
000615:                                                                                                  #        CALL VIA TC, ISWCALL, ETC.
000616:
000617:                                                                                                  #        EXIT IS VIA Q.
000618:
000619:                                                                                                  #  INPUT
000620:
000621:                                                                                                  #        INPUT IS THROUGH THE COUNTERS PIPAX, PIPAY, PIPAZ, AND TIME2.
000622:
000623:                                                                                                  #  OUTPUT
000624:
000625:                                                                                                  #        HIGH ORDER COMPONENTS OF THE VECTOR DELV CONTAIN THE PIPA READINGS.
000626:                                                                                                  #        PIPTIME CONTAINS TIME OF PIPA READING.
000627:
000628:                                                                                                  #  DEBRIS (ERASABLE LOCATIONS DESTROYED BY PROGRAM)
000629:
000630:                                                                                                  #        LOW ORDER DELV'S ARE ZEROED FOR TM INDICATION.
000631:                                                                                                  #        TEMX    TEMY    TEMZ    PIPAGE
000632:
000633: 37,3171           00006        PIPASR             EXTEND
000634: 37,3172           30025                           DCA      TIME2
000635: 37,3173           53105                           DXCH     PIPTIME1                              #  CURRENT TIME  POSITIVE VALUE
000636: 37,3174           44772                           CS       ZERO                                  #  INITIALIZE THESE AT NEG ZERO.
000637: 37,3175           55063                           TS       TEMX
000638: 37,3176           55064                           TS       TEMY
000639: 37,3177           55065                           TS       TEMZ


000641: 37,3200           34772                           CA       ZERO
000642: 37,3201           55320                           TS       DELVZ                                 #  OTHER DELVS OK INCLUDING LOW ORDER
000643: 37,3202           55316                           TS       DELVY
000644:
000645: 37,3203           55315                           TS       DELVX      +1                         #  LOW ORDER DELV'S ARE ZEROED FOR TM: THUS
000646: 37,3204           55317                           TS       DELVY      +1                         #  IF DNLNK'D LOW ORDER DELVS ARE NZ, THEY
000647: 37,3205           55321                           TS       DELVZ      +1                         #  CONTAIN PROPER COMPENSATION. IF=0, THEN
000648:                                                                                                  #  THE TM VALUES ARE BEFORE COMPENSATION.
000649:
000650: 37,3206           55067                           TS       PIPAGE                                #  SHOW PIPA READING IN PROGRESS
000651:
000652: 37,3207           00006        REPIP1             EXTEND
000653: 37,3210           40040                           DCS      PIPAX                                 #  X AND Y PIPS READ
000654: 37,3211           53064                           DXCH     TEMX
000655: 37,3212           52040                           DXCH     PIPAX                                 #  PIPAS SET TO NEG ZERO AS READ.
000656: 37,3213           55314                           TS       DELVX
000657: 37,3214           23316                           LXCH     DELVY
000658:
000659: 37,3215           40041        REPIP3             CS       PIPAZ                                 #  REPEAT PROCESS FOR Z PIP
000660: 37,3216           57065                           XCH      TEMZ
000661: 37,3217           56041                           XCH      PIPAZ
000662: 37,3220           55320        DODELVZ            TS       DELVZ
000663:
000664: 37,3221           00002                           TC       Q
000665:
000666: 37,3222  E6,1661                                  EBANK=   AOG
000667:
000668: 37,3222           11166        REREADAC           CCS      PHASE5                                #  LAST PASS CHECK
000669: 37,3223           13225                           TCF      +2
000670: 37,3224           15314                           TCF      TASKOVER
000671:
000672: 37,3225           37652                           CAF      PRIO31                                #  RESTART MAY HAVE WIPED OUT LASTBIAS, AN
000673: 37,3226           55277                           TS       1/PIPADT                              #        UNPROTECTED NOVAC FROM PREREAD,
000674:                                                                                                  #        WHICH SET(S) UP 1/PIPADT (THUSLY)
000675:                                                                                                  #        FOR NON-COASTING COMPENSATION....BE
000676:                                                                                                  #        SURE 1/PIPADT IS AOK. (PRIO31 IS
000677:                                                                                                  #        2.0SEC SC.AT B+8CS)
000678:
000679: 37,3227           11067                           CCS      PIPAGE
000680: 37,3230           12652                           TCF      READACCS                              #  PIP READING NOT STARTED. GO TO BEGINNING
000681:
000682: 37,3231           33267                           CAF      DONEADR                               #  SET UP RETURN FROM PIPASR
000683: 37,3232           54002                           TS       Q
000684:
000685: 37,3233           11320                           CCS      DELVZ
000686: 37,3234           00002                           TC       Q                                     #  Z DONE, GO DO CDUS
000687: 37,3235           13240                           TCF      +3                                    #  Z NOT DONE, CHECK Y.
000688: 37,3236           00002                           TC       Q
000689: 37,3237           00002                           TC       Q


000691: 37,3240           22007                           ZL
000692: 37,3241           11316                           CCS      DELVY
000693: 37,3242           13245                           TCF      +3
000694: 37,3243           13254                           TCF      CHKTEMX                               #  Y NOT DONE, CHECK X.
000695: 37,3244           13245                           TCF      +1
000696: 37,3245           22041                           LXCH     PIPAZ                                 #  Y DONE, ZERO Z PIP.
000697:
000698: 37,3246           11065                           CCS      TEMZ
000699: 37,3247           41065                           CS       TEMZ                                  #  TEMZ NOT = -0, CONTAINS -PIPAZ VALUE.
000700: 37,3250           13220                           TCF      DODELVZ
000701: 37,3251           13247                           TCF      -2
000702: 37,3252           23320                           LXCH     DELVZ                                 #  TEMZ = -0, L HAS ZPIP VALUE.
000703: 37,3253           00002                           TC       Q
000704:
000705: 37,3254           11063        CHKTEMX            CCS      TEMX                                  #  HAS THIS CHANGED
000706: 37,3255           41063                           CS       TEMX                                  #  YES
000707: 37,3256           13261                           TCF      +3                                    #  YES
000708: 37,3257           13255                           TCF      -2                                    #  YES
000709: 37,3260           13207                           TCF      REPIP1                                #  NO
000710: 37,3261           55314                           TS       DELVX
000711:
000712: 37,3262           41064                           CS       TEMY
000713: 37,3263           55316                           TS       DELVY
000714:
000715: 37,3264           44772                           CS       ZERO                                  #  ZERO X AND Y PIPS
000716: 37,3265           52040                           DXCH     PIPAX                                 #  L STILL ZERO FROM ABOVE
000717:
000718: 37,3266           13215                           TCF      REPIP3
000719:
000720: 37,3267           02653        DONEADR            GENADR   PIPSDONE
000721:


000723:                                                                                                  #  *************************************************************************************************************
000724:
000725:                                                                                                  #           ROUTINE CALCRVG INTEGRATES THE EQUATIONS OF MOTION BY AVERAGING THE THRUST AND GRAVITATIONAL
000726:                                                                                                  #  ACCELERATIONS OVER A TIME INTERVAL OF 2 SECONDS.
000727:
000728:                                                                                                  #  FOR THE EARTH-CENTERED GRAVITATIONAL FIELD, THE PERTURBATION DUE TO OBLATENESS IS COMPUTED TO THE FIRST
000729:                                                                                                  #  HARMONIC COEFFICIENT J.
000730:
000731:                                                                                                  #  ROUTINE CALCRVG REQUIRES...
000732:                                                                                                  #        1) THRUST ACCELERATION INCREMENTS IN DELV SCALED SAME AS PIPAX,Y,Z IN STABLE MEMBER COORDS.
000733:                                                                                                  #        2) VN SCALED 2(+7) M/CS IN REFERENCE COORDS.
000734:                                                                                                  #        3) RN SCALED AT 2(+29) METERS IN REFERENCE COORDS.
000735:                                                                                                  #        4) UNITW THE EARTH S UNIT ROTATIONAL VECTOR (SCALED AS A FULL UNIT VECTOR) IN REFERENCE COORDS.
000736:
000737:                                                                                                  #  IT LEAVES RN1 UPDATED (SCALED AT 2(+29)M, VN1 (SCALED AT 2(+7)M/CS), AND GDT1/2 (SCALED AT 2(+7)M/CS). ALSO HALF
000738:                                                                                                  #  UNIT VECTOR UNITR, RMAG IN 36D SCALED AT 2(+29)M, R MAG SQ. IN 34D SCALED AT 2(+58) M SQ.
000739:
000740: 37,3270           41456        CALCGRAV           UNIT     PUSH                                  #  ENTER WITH RN IN MPAC
000741: 37,3271           01756                           STORE    UNITR
000742: 37,3272           67340                           LXC,1    SLOAD
000743: 37,3273           03746                                    RTX2
000744: 37,3274           00047                                    X1
000745: 37,3275           77240                           BMN      VLOAD
000746: 37,3276           77324                                    ITISMOON
000747: 37,3277           41441                           DOT      PUSH
000748: 37,3300           01712                                    UNITW
000749: 37,3301           44316                           DSQ      BDSU
000750: 37,3302           37375                                    DP1/20
000751: 37,3303           56325                           PDDL     DDV
000752: 37,3304           37377                                    RESQ
000753: 37,3305           00043                                    34D                                   #  (RN)SQ
000754: 37,3306           00041                           STORE    32D                                   #  TEMP FOR (RE/RN)SQ
000755: 37,3307           41205                           DMP      DMP
000756: 37,3310           37401                                    20J
000757: 37,3311           65361                           VXSC     PDDL
000758: 37,3312           01756                                    UNITR
000759: 37,3313           41205                           DMP      DMP
000760: 37,3314           37403                                    2J
000761: 37,3315           00041                                    32D
000762: 37,3316           53361                           VXSC     VAD
000763: 37,3317           01712                                    UNITW
000764: 37,3320           77626                           STADR
000765: 37,3321           76662                           STORE    GOBL1/2
000766: 37,3322           41455                           VAD      PUSH
000767: 37,3323           01756                                    UNITR
000768: 37,3324           63545        ITISMOON           DLOAD    DSQ
000769: 37,3325           00045                                    36D
000770: 37,3326           77701                           NORM
000771: 37,3327           00050                                    X2


000773: 37,3330           53663                           BDDV*    SLR*
000774: 37,3331           37367                                    -MUDT(E),1
000775: 37,3332           56623                                    0          -21D,2
000776: 37,3333           45561                           VXSC     STADR
000777: 37,3334           76670                           STORE    GDT1/2                                #  SCALED AT 2(+7) M/CS
000778: 37,3335           77616                           RVQ
000779:
000780: 37,3336           74375        CALCRVG            VLOAD    VXSC
000781: 37,3337           01315                                    DELV
000782: 37,3340           37365                                    KPIP1
000783: 37,3341           76505                           VXM      VSL1
000784: 37,3342           01734                                    REFSMMAT
000785: 37,3343           03432                           STORE    DELVREF                               #  DELV IN REF COORDS AT 2(+7)
000786: 37,3344           41562                           VSR1     PUSH
000787: 37,3345           41455                           VAD      PUSH                                  #  (DV-OLDGDT)/2 TO PD SCALED AT 2(+7)M/CS
000788: 37,3346           01046                                    GDT/2
000789: 37,3347           74255                           VAD      VXSC
000790: 37,3350           01036                                    VN
000791: 37,3351           37373                                    2SEC(22)
000792: 37,3352           44055                           VAD      STQ
000793: 37,3353           01030                                    RN
000794: 37,3354           00037                                    31D
000795: 37,3355           35071                           STCALL   RN1                                   #  TEMP STORAGE OF RN SCALED 2(+29)M
000796: 37,3356           77270                                    CALCGRAV
000797:
000798: 37,3357           53255                           VAD      VAD
000799: 37,3360           77655                           VAD
000800: 37,3361           01036                                    VN
000801: 37,3362           35077                           STCALL   VN1                                   #  TEMP STORAGE OF VN SCALED 2(+7) M/CS
000802: 37,3363           00037                                    31D
000803:
000804: 37,3364           02312 32537  KPIP1              2DEC     0.074880                              #  207 DELV SCALING.  1 PULSE = 5.85 CM/SEC.
000805:
000806: 37,3366           61377 55754  -MUDT(E)           2DEC*    -7.9720645 E+12       B-44*
000807:
000808: 37,3370           77644 65556  -MUDT(M)           2DEC*    -9.805556  E+10       B-44*
000809:
000810: 37,3372           00000 31000  2SEC(22)           2DEC     200        B-22
000811:
000812: 37,3374           01463 06315  DP1/20             2DEC     0.05
000813:
000814: 37,3376           00001 05000  RESQ               2DEC*    40.6809913 E12        B-59*
000815:
000816: 37,3400           02047 36332  20J                2DEC*    3.24692010 E-2        B1*
000817:
000818: 37,3402           00152 14511  2J                 2DEC*    3.24692010 E-3        B1*
000819:

End of include-file SERVICER207.agc.  Parent file is MAIN.agc


