
Source Code


000002:                                                                                                  ## Copyright:   Public domain.
000003:                                                                                                  ## Filename:    SINGLE_PRECISION_SUBROUTINES.agc
000004:                                                                                                  ## Purpose:     A section of Artemis revision 071.
000005:                                                                                                  ##              It is part of the reconstructed source code for the first
000006:                                                                                                  ##              release of the flight software for the Command Module's
000007:                                                                                                  ##              (CM) Apollo Guidance Computer (AGC) for Apollo 15 through
000008:                                                                                                  ##              17. The code has been recreated from a copy of Artemis 072.
000009:                                                                                                  ##              It has been adapted such that the resulting bugger words
000010:                                                                                                  ##              exactly match those specified for Artemis 071 in NASA
000011:                                                                                                  ##              drawing 2021154-, which gives relatively high confidence
000012:                                                                                                  ##              that the reconstruction is correct.
000013:                                                                                                  ## Reference:   1207
000014:                                                                                                  ## Assembler:   yaYUL
000015:                                                                                                  ## Contact:     Ron Burkey <info@sandroid.org>.
000016:                                                                                                  ## Website:     www.ibiblio.org/apollo/index.html
000017:                                                                                                  ## Mod history: 2019-08-14 MAS  Created from Artemis 072.
000018:


000020:    4000                                           SETLOC   FFTAG1
000021:    4000                                           BANK
000022:
000023:                                                                                                  #  SINGLE PRECISION SINE AND COSINE
000024:
000025:    5060                                           COUNT*   $$/INTER
000026:    5060           64753        SPCOS              AD       HALF                                  #  ARGUMENTS SCALED AT PI
000027:    5061           54742        SPSIN              TS       TEMK
000028:    5062           15064                           TCF      SPT
000029:    5063           40742                           CS       TEMK
000030:    5064           60000        SPT                DOUBLE
000031:    5065           54742                           TS       TEMK
000032:    5066           15077                           TCF      POLLEY
000033:    5067           56742                           XCH      TEMK
000034:    5070           50742                           INDEX    TEMK
000035:    5071           64751                           AD       LIMITS
000036:    5072           40000                           COM
000037:    5073           60742                           AD       TEMK
000038:    5074           54742                           TS       TEMK
000039:    5075           15077                           TCF      POLLEY
000040:    5076           15115                           TCF      ARG90
000041:    5077           00006        POLLEY             EXTEND
000042:    5100           70742                           MP       TEMK
000043:    5101           54743                           TS       SQ
000044:    5102           00006                           EXTEND
000045:    5103           75022                           MP       C5/2
000046:    5104           67672                           AD       C3/2
000047:    5105           00006                           EXTEND
000048:    5106           70743                           MP       SQ
000049:    5107           67653                           AD       C1/2
000050:    5110           00006                           EXTEND
000051:    5111           70742                           MP       TEMK
000052:    5112           20001                           DDOUBL
000053:    5113           54742                           TS       TEMK
000054:    5114           00002                           TC       Q
000055:    5115           50000        ARG90              INDEX    A
000056:    5116           44751                           CS       LIMITS
000057:    5117           00002                           TC       Q                                     #  RESULT SCALED AT 1
000058:
000059:                                                                                                  #  SPROOT WAS DELETED IN REV 51 OF MASTER. ASS. CONT. HAS CARDS.

End of include-file SINGLE_PRECISION_SUBROUTINES.agc.  Parent file is MAIN.agc


