
Source Code


000002:                                                                                                  ## Copyright:   Public domain.
000003:                                                                                                  ## Filename:    SXTMARK.agc
000004:                                                                                                  ## Purpose:     A section of Artemis revision 071.
000005:                                                                                                  ##              It is part of the reconstructed source code for the first
000006:                                                                                                  ##              release of the flight software for the Command Module's
000007:                                                                                                  ##              (CM) Apollo Guidance Computer (AGC) for Apollo 15 through
000008:                                                                                                  ##              17. The code has been recreated from a copy of Artemis 072.
000009:                                                                                                  ##              It has been adapted such that the resulting bugger words
000010:                                                                                                  ##              exactly match those specified for Artemis 071 in NASA
000011:                                                                                                  ##              drawing 2021154-, which gives relatively high confidence
000012:                                                                                                  ##              that the reconstruction is correct.
000013:                                                                                                  ## Reference:   239
000014:                                                                                                  ## Assembler:   yaYUL
000015:                                                                                                  ## Contact:     Ron Burkey <info@sandroid.org>.
000016:                                                                                                  ## Website:     www.ibiblio.org/apollo/index.html
000017:                                                                                                  ## Mod history: 2019-08-14 MAS  Created from Artemis 072.
000018:


000020:
000021:                                                                                                  #  PROGRAM NAME     -     SXTMARK
000022:
000023:                                                                                                  #  MOD. 1        8 AUG. 69       BY P.RYE
000024:
000025:                                                                                                  #  FUNCTIONAL DESCRIPTION
000026:
000027:                                                                                                  #        SXTMARK IS CALLED BY P03 AND BY P22, P23, P51, AND P52 VIA R53.
000028:                                                                                                  #        THE REGISTER MARKINDX IS SET TO 5 IF THE CALLING PROGRAM IS P22, OR TO 1 FOR OTHER USERS.
000029:                                                                                                  #           THIS REGISTER INDICATES THE NUMBER OF MARKS DESIRED.
000030:                                                                                                  #        THE REGISTER EXTVBACT IS CHECKED (SUBROUTINE TESTMARK) TO INSURE THAT THE MARK DISPLAY SYSTEM
000031:                                                                                                  #           IS FREE.  IF NOT, BAILOUT (31211) IS DONE.
000032:                                                                                                  #        BIT 2 OF THE REGISTER EXTVBACT IS SET BY SXTMARK, RESERVING THE MARKING AND EXTENDED VERB SYSTEM.
000033:                                                                                                  #        SXTMARK DISPLAYS A FLASHING VERB 51, CALLING FOR MARKS.  A PROCEED RESPONSE TO THIS DISPLAY
000034:                                                                                                  #           WILL RELEASE THE MARKING SYSTEM (SUBROUTINES MKRELEAS, CLEARMARK) AND RETURN TO THE
000035:                                                                                                  #           CALLING PROGRAM.
000036:
000037:                                                                                                  #        WHEN SUFFICIENT MARKS HAVE BEEN MADE (MARKINDX = 0) A FLASHING V50N25, R1 = 16, IS DISPLAYED.
000038:                                                                                                  #           A PROCEED RESPONSE TO THIS DISPLAY WILL RETURN TO THE CALLING PROGRAM AFTER RELEASING THE
000039:                                                                                                  #           MARKING SYSTEM.
000040:
000041:                                                                                                  #        MARKS ARE PROCESSED BY THE ROUTINE MARKRUPT AS FOLLOWS:
000042:                                                                                                  #                IF NO MARKS ARE CALLED FOR, ALARM CODE 114 IS SENT AND THE MARKRUPT ROUTINE EXITS.
000043:                                                                                                  #                IF A MARK IS ACCEPTED, MARKFLG IS SET TO ENABLE A REJECT.
000044:                                                                                                  #                IF R21(P20) IS RUNNING, DATA IS MOVED FROM STORAGE MRKBUF1 INTO MRKBUF2.  NEW MARK DATA
000045:                                                                                                  #                        IS STORED INTO MRKBUF1.
000046:                                                                                                  #                IF P22 IS RUNNING, MARK DATA IS STORED INTO SVMRKDAT, USING THE REGISTER P22DEX AS AN
000047:                                                                                                  #                        INDEX AND THE REGISTER 8NN AS A COUNTER.  MARKINDX IS DECREMENTED.
000048:                                                                                                  #                IF R57 IS RUNNING, MARK DATA IS STORED INTO MARKDOWN FOR DOWNLINK, THEN PROCESSED AS FOR
000049:                                                                                                  #                        R21.  MARKRUPT THEN CALLS MARKDISP (IN R57).
000050:                                                                                                  #                FOR OTHER USERS, MARK DATA IS STORED INTO MRKBUF1 AND MARKINDX IS DECREMENTED.
000051:
000052:                                                                                                  #        MARK REJECTS ARE PROCESSED BY THE ROUTINE MARKRUPT AS FOLLOWS:
000053:                                                                                                  #                IF MARKFLG IS CLEAR (I.E., NO MARK WAS TAKEN), ALARM CODE 110 IS SENT AND THE ROUTINE EXITS.
000054:                                                                                                  #                OTHERWISE, MARKINDX IS INCREMENTED, THE P22 INDICATORS 8NN AND P22DEX ARE DECREMENTED
000055:                                                                                                  #                        (IF THE USER IS P22), AND THE V51FL DISPLAY IN SXTMARK IS REESTABLISHED.
000056:
000057:                                                                                                  #        IF THE ERASABLE REGISTER CDUCHKWD IS SET TO A NON-ZERO VALUE, VALIDITY OF THE MARKS IS CHECKED
000058:                                                                                                  #           BY THE MARKRUPT ROUTINE AS FOLLOWS:
000059:                                                                                                  #                IF THE CDU'S CHANGE BY MORE THAN 3 BITS OVER THE TIME PERIOD INDICATED BY THE VALUE OF
000060:                                                                                                  #                        CDUCHKWD, ALARM CODE 121 IS SENT AND THE ROUTINE EXITS.
000061:
000062:                                                                                                  #  CALLING SEQUENCE -
000063:
000064:                                                                                                  #        TC      BANKCALL
000065:                                                                                                  #        CADR    SXTMARK
000066:
000067:


000069:
000070:                                                                                                  #  NORMAL EXIT MODE -
000071:
000072:                                                                                                  #        RETURN TO USER VIA BANKJUMP (RETURN ADDRESS IN OPTCADR).
000073:
000074:
000075:                                                                                                  #  ALARM OR ABORT EXIT MODES
000076:
000077:                                                                                                  #        1. ALARM 110 - MARK REJECT WITH NO MARK
000078:                                                                                                  #        2. ALARM 113 - NO INBITS
000079:                                                                                                  #        3. ALARM 121 - CDU'S NO GOOD AT MARK TIME
000080:                                                                                                  #        4. ALARM 114 - MARK MADE BUT NOT DESIRED
000081:                                                                                                  #        5. BAILOUT 31211 - MARK DISPLAY SYSTEM BUSY
000082:
000083:
000084:                                                                                                  #  ERASABLE INITIALIZATION REQUIRED -
000085:
000086:                                                                                                  #        NONE
000087:
000088:
000089:                                                                                                  #  OUTPUT -
000090:
000091:                                                                                                  #        FOR P22:
000092:                                                                                                  #                MARK DATA IN SVMRKDAT
000093:                                                                                                  #                MARKINDX DECREMENTED BY ONE FOR EACH MARK TAKEN
000094:                                                                                                  #                NO. OF MARKS IN 8NN
000095:                                                                                                  #        FOR R57:
000096:                                                                                                  #                MARK DATA IN MARKDOWN AND MRKBUF1
000097:                                                                                                  #        FOR OTHER USERS:
000098:                                                                                                  #                MARKINDX DECREMENTED TO ZERO IF A MARK WAS TAKEN
000099:                                                                                                  #                MARK DATA IN MRKBUF1
000100:
000101:
000102:                                                                                                  #  CONDITIONS AT EXIT -
000103:
000104:                                                                                                  #        MARKINDX = INITIAL VALUE - NO. MARKS TAKEN
000105:                                                                                                  #        MARKING SYSTEM IS RELEASED :
000106:                                                                                                  #                EXTVBACT = 0
000107:                                                                                                  #                BIT 9 OPTMODES = 0
000108:                                                                                                  #                OPTIND = -1
000109:                                                                                                  #                BIT 2 CHAN12 = 0
000110:                                                                                                  #        MARKFLG = 0
000111:                                                                                                  #        OPTCADR CONTAINS CADR OF SXTMARK CALLER
000112:
000113:


000115: 07,2000                                           SETLOC   SXTMARKE
000116: 07,2000                                           BANK
000117:
000118: 07,2000  E7,1722                                  EBANK=   MRKBUF1
000119: 07,2000                                           COUNT*   $$/SXTMK
000120: 07,2000           02062        SXTMARK            TC       TESTMARK
000121: 07,2001           05354                           TC       CHECKMM                               #  IS THIS P24
000122: 07,2002           00030                           MM       24         B-14
000123: 07,2003           12005                           TCF      +2                                    #  NO
000124: 07,2004           12010                           TCF      SXTMRKA                               #  YES
000125: 07,2005           05354                           TC       CHECKMM
000126: 07,2006           00026                           MM       22         B-14
000127: 07,2007           12015                           TCF      SETMRK
000128: 07,2010           34772        SXTMRKA            CAF      ZERO                                  #  INITIALIZE MARK COUNTER
000129: 07,2011           55747                           TS       8NN
000130:
000131: 07,2012           55753                           TS       P22DEX
000132: 07,2013           34773                           CAF      FIVE                                  #  5 MARKS FOR P22, ONE FOR ALL OTHERS
000133: 07,2014           12016                           TCF      SETMRK     +1
000134: 07,2015           34770        SETMRK             CAF      ONE
000135: 07,2016           54301                           TS       MARKINDX
000136:
000137: 07,2017           04665                           TC       MAKECADR                              #  STORE RETURN TO USER WHO CALLED
000138: 07,2020           55336                           TS       OPTCADR                               #     SXTMARK IN OPTCADR
000139:
000140: 07,2021           04636        MKVB51             TC       BANKCALL                              #  CLEAR DISPLAY FOR MARK VERB
000141: 07,2022           20575                           CADR     KLEENEX
000142: 07,2023           32061        MKVBDSP            CAF      VB51                                  #  DISPLAY MARK VERB 51
000143: 07,2024           04636                 +1        TC       BANKCALL
000144: 07,2025           20604                           CADR     GOMARK4
000145: 07,2026           12031                           TCF      TERMSXT                               #  VB34-TERMINATE
000146: 07,2027           12042                           TCF      ENTANSWR                              #  V33-PROCEED-MARKING DONE
000147: 07,2030           12052                           TCF      MKVB5X                                #  ENTER-RECYCLE TO INITIAL MARK DISPLAY
000148:
000149: 07,2031           05527        TERMSXT            TC       CLEARMRK                              #  CLEAR MARK ACTIVITY.
000150:
000151: 07,2032           02073                           TC       MKRLEES
000152:
000153: 07,2033           05354                           TC       CHECKMM
000154: 07,2034           00003                           MM       03         B-14
000155: 07,2035           12037                           TCF      +2
000156: 07,2036           02040                           TC       TERMP03
000157: 07,2037           04103                           TC       GOTOPOOH
000158:
000159: 07,2040           04655        TERMP03            TC       POSTJUMP
000160: 07,2041           67370                           CADR     GCOMP5
000161:
000162: 07,2042           37645        ENTANSWR           CAF      PRIO24
000163: 07,2043           05121                           TC       NOVAC


000165: 07,2044  0003777                                  EBANK=   WHOCARES
000166: 07,2044           05524 04067                     2CADR    ENDEXT
000167:
000168: 07,2046           35052                           CAF      PRIO13                                #  ALLOW LEFTOVER SLEEPING JOB IF ANY
000169: 07,2047           05176                           TC       PRIOCHNG
000170:
000171: 07,2050           31336        MKVRET             CA       OPTCADR                               #  OPTCADR HAS RETURN CADR OF USER WHO
000172: 07,2051           04660                           TC       BANKJUMP                              #     CALLED SXTMARK
000173:
000174: 07,2052           10301        MKVB5X             CCS      MARKINDX                              #  REDISPLAY VB51 IF MORE MARKS WANTED
000175: 07,2053           12021                           TCF      MKVB51
000176: 07,2054           34321        MKVB50             CAF      R1D1                                  #  OCT 16
000177: 07,2055           55250                           TS       DSPTEM1
000178: 07,2056           32060                           CAF      V50N25                                #  DISPLAY V50N25 IF MARKING DONE.
000179: 07,2057           12024                           TCF      MKVBDSP    +1
000180: 07,2060           14431        V50N25             VN       5025
000181: 07,2061           14600        VB51               VN       5100
000182:
000183: 07,2062           36211        TESTMARK           CAF      SIX
000184: 07,2063           71247                           MASK     EXTVBACT
000185: 07,2064           10000                           CCS      A
000186: 07,2065           12071                           TCF      MKABORT
000187: 07,2066           34767                           CAF      BIT2
000188: 07,2067           27247                           ADS      EXTVBACT
000189: 07,2070           00002                           TC       Q
000190:
000191: 07,2071           07706        MKABORT            TC       BAILOUT
000192: 07,2072           31211                           OCT      31211
000193:
000194: 07,2073  07,2073               MKRELEAS           EQUALS   MKRLEES
000195:
000196: 07,2073           00004        MKRLEES            INHINT
000197: 07,2074           37702                           CA       NEGONE
000198: 07,2075           55323                           TS       OPTIND                                #  KILL COARS OPTICS
000199:
000200: 07,2076           34772                           CAF      ZERO
000201: 07,2077           54301                           TS       MARKINDX
000202:
000203: 07,2100           44765                           CS       MARKBIT
000204: 07,2101           70075                           MASK     FLAGWRD1
000205: 07,2102           54075                           TS       FLAGWRD1
000206:
000207: 07,2103           00003                           RELINT
000208:
000209: 07,2104           00002                           TC       Q
000210:


000212:
000213: 07,2105           54016        MARKRUPT           TS       BANKRUPT                              #  STORE CDUS AND OPTICS NOW
000214: 07,2106           30035                           CA       CDUT
000215: 07,2107           54361                           TS       MKCDUT
000216: 07,2110           30036                           CA       CDUS
000217: 07,2111           54357                           TS       MKCDUS
000218: 07,2112           30033                           CA       CDUY
000219: 07,2113           54356                           TS       MKCDUY
000220: 07,2114           30034                           CA       CDUZ
000221: 07,2115           54360                           TS       MKCDUZ
000222: 07,2116           30032                           CA       CDUX
000223: 07,2117           54362                           TS       MKCDUX
000224: 07,2120           00006                           EXTEND
000225: 07,2121           30025                           DCA      TIME2                                 #  GET TIME
000226: 07,2122           52355                           DXCH     MKT2T1
000227: 07,2123           00006                           EXTEND
000228: 07,2124           30355                           DCA      MKT2T1
000229: 07,2125           52014                           DXCH     SAMPTIME                              #  RUPT TIME FOR NOUN 65.
000230:
000231: 07,2126           56002                           XCH      Q
000232: 07,2127           54012                           TS       QRUPT
000233:
000234: 07,2130           34763                           CAF      BIT6                                  #  SEE IF MARK OR MKREJECT
000235: 07,2131           00006                           EXTEND
000236: 07,2132           02016                           RAND     NAVKEYIN
000237: 07,2133           10000                           CCS      A
000238: 07,2134           02154                           TC       MARKIT                                #  ITS A MARK
000239:
000240: 07,2135           34762                           CAF      BIT7                                  #  NOT A MARK, SEE IF MKREJECT
000241: 07,2136           00006                           EXTEND
000242: 07,2137           02016                           RAND     NAVKEYIN
000243: 07,2140           10000                           CCS      A
000244: 07,2141           02344                           TC       MKREJECT                              #  ITS A MARK REJECT
000245:
000246: 07,2142           34342        KEYCALL            CAF      OCT37                                 #  NOT MARK OR MKREJECT, SEE IF KEYCODE
000247: 07,2143           00006                           EXTEND
000248: 07,2144           02016                           RAND     NAVKEYIN
000249: 07,2145           00006                           EXTEND
000250: 07,2146           12151                           BZF      +3                                    #  IF NO INBITS
000251: 07,2147           04655                           TC       POSTJUMP
000252: 07,2150           17675                           CADR     KEYCOM                                #  IT,S A KEY CODE, NOT A MARK.
000253:
000254: 07,2151           05671                 +3        TC       ALARM                                 #  ALARM IF NO INBITS
000255: 07,2152           00113                           OCT      113
000256: 07,2153           05323                           TC       RESUME
000257:


000259:
000260:                                                                                                  #  PROGRAM NAME - MARKIT                                 DATE- 19 SEPT 1967
000261:
000262:                                                                                                  #  CALLING SEQUENCE
000263:                                                                                                  #        FROM MARKRUPT IF CHAN 16 BIT 6 = 1
000264:
000265:                                                                                                  #  EXIT
000266:                                                                                                  #        RESUME
000267:
000268:                                                                                                  #  INPUT
000269:                                                                                                  #        CDUCHKWD. ALSO ALL INITIALIZATION FOR MARKCONT
000270:
000271:                                                                                                  #  OUTPUT
000272:                                                                                                  #        MKT2T1,MKCDUX,MKCDUY,MKCDUZ,MKCDUS,MKCDUT
000273:
000274:                                                                                                  #  ALARM EXIT
000275:                                                                                                  #        NONE
000276:
000277: 07,2154           11341        MARKIT             CCS      CDUCHKWD
000278: 07,2155           12160                           TCF      +3                                    #  DELAY OF CDUCHKWD CS IF PNZ
000279: 07,2156           12160                           TCF      +2
000280: 07,2157           34772                           CAF      ZERO
000281: 07,2160           64770                           AD       ONE                                   #  10 MS IF NO CHECK
000282: 07,2161           05233                           TC       WAITLIST
000283: 07,2162  E7,1722                                  EBANK=   MRKBUF1
000284: 07,2162           02165 16067                     2CADR    MARKDIF
000285:
000286: 07,2164           15323                           TCF      RESUME
000287:
000288: 07,2165           34753        MARKDIF            CAF      P24BIT                                #  IS THIS P24
000289: 07,2166           70105                           MASK     FLAGWRD9
000290: 07,2167           10000                           CCS      A
000291: 07,2170           12204                           TCF      MARKCONT                              #  YES ACCEPT MARK
000292: 07,2171           31341                           CA       CDUCHKWD                              #  IF DELAY CHECK IS ZERO OR NEG, ACP MARK
000293: 07,2172           00006                           EXTEND
000294: 07,2173           62204                           BZMF     MARKCONT
000295: 07,2174           44770                           CS       BIT1
000296: 07,2175           54353                           TS       MKNDX                                 #  SET INDEX -1
000297: 07,2176           30362                           CA       MKCDUX
000298: 07,2177           02325                           TC       DIFCHK                                #  SEE IF VEHICLE RATE TO MUCH AT MARK
000299: 07,2200           30356                           CA       MKCDUY
000300: 07,2201           02325                           TC       DIFCHK
000301: 07,2202           30360                           CA       MKCDUZ
000302: 07,2203           02325                           TC       DIFCHK
000303:
000304: 07,2204           34753        MARKCONT           CAF      R21BIT                                #  R21 MARKING
000305: 07,2205           70076                           MASK     FLAGWRD2
000306: 07,2206           10000                           CCS      A
000307: 07,2207           12314                           TCF      PUTMARK                               #  YES
000308:
000309: 07,2210           34755                           CAF      V59FLBIT


000311: 07,2211           70101                           MASK     FLAGWRD5                              #  V59FLAG
000312: 07,2212           10000                           CCS      A
000313: 07,2213           12304                           TCF      DOWNMRK
000314:
000315: 07,2214           10301                           CCS      MARKINDX                              #  MARKS CALLED FOR
000316: 07,2215           12221                           TCF      MARK2                                 #  YES
000317:
000318: 07,2216           05671        114ALM             TC       ALARM
000319: 07,2217           00114                           OCT      114                                   #  MARKS NOT CALLED FOR
000320: 07,2220           05314                           TC       TASKOVER
000321:
000322: 07,2221           54301        MARK2              TS       MARKINDX                              #  DECREMENT NO. MARKS WANTED
000323:
000324: 07,2222           05547                           TC       UPFLAG
000325: 07,2223           00032                           ADRES    MARKFLG                               #  SET FLAG TO ENABLE REJECT
000326:
000327: 07,2224           05354                           TC       CHECKMM                               #  IS THIS P24
000328: 07,2225           00030                           MM       24         B-14
000329: 07,2226           12235                           TCF      MRKCHK22                              #  NO
000330: 07,2227           24301                           INCR     MARKINDX                              #  RESTORE THIS REGISTER
000331: 07,2230           05547                           TC       UPFLAG
000332: 07,2231           00061                           ADRES    P22MKFLG                              #  DOWNLINK CONTAINS P24 MARKS
000333: 07,2232           05547                           TC       UPFLAG
000334: 07,2233           00052                           ADRES    P24MKFLG                              #  NEW P24MARK TAKEN
000335: 07,2234           12240                           TCF      VACSTOR    -1
000336: 07,2235           05354        MRKCHK22           TC       CHECKMM
000337: 07,2236           00026                           MM       22         B-14
000338: 07,2237           12314                           TCF      PUTMARK
000339: 07,2240           25747                 -1        INCR     8NN                                   #  NO, MARKS TAKEN.
000340: 07,2241           00006        VACSTOR            EXTEND
000341: 07,2242           30355                           DCA      MKT2T1
000342: 07,2243           51753                           INDEX    P22DEX
000343: 07,2244           53540                           DXCH     SVMRKDAT
000344: 07,2245           00006                           EXTEND
000345: 07,2246           30357                           DCA      MKCDUY
000346: 07,2247           51753                           INDEX    P22DEX
000347: 07,2250           53542                           DXCH     SVMRKDAT   +2
000348: 07,2251           00006                           EXTEND
000349: 07,2252           30361                           DCA      MKCDUZ
000350: 07,2253           51753                           INDEX    P22DEX
000351: 07,2254           53544                           DXCH     SVMRKDAT   +4
000352: 07,2255           30362                           CA       MKCDUX
000353: 07,2256           51753                           INDEX    P22DEX
000354: 07,2257           55545                           TS       SVMRKDAT   +6
000355:
000356: 07,2260           05354                           TC       CHECKMM                               #  IS THIS P24
000357: 07,2261           00030                           MM       24         B-14
000358: 07,2262           12273                           TCF      INDINC                                #  NO
000359: 07,2263           44172                           CS       OCT34                                 #  YES DEC 28
000360: 07,2264           61753                           AD       P22DEX


000362: 07,2265           00006                           EXTEND                                         #  ARE THERE ANY MORE LOC LEFT IN MARK
000363: 07,2266           12270                           BZF      +2                                    #  DOWNLINK BUFFER
000364: 07,2267           12273                           TCF      INDINC                                #  YES
000365: 07,2270           34772                           CA       ZERO                                  #  REINITIALIZE INDEX FOR
000366: 07,2271           55753                           TS       P22DEX                                #  BEGINNING OF BUFFER
000367: 07,2272           12275                           TCF      MARKDONE
000368: 07,2273           34774        INDINC             CAF      SEVEN
000369: 07,2274           27753                           ADS      P22DEX
000370: 07,2275           10301        MARKDONE           CCS      MARKINDX                              #  ANY MORE MARKS TO BE TAKEN
000371: 07,2276           15314                           TCF      TASKOVER
000372: 07,2277           37644                           CAF      PRIO22
000373: 07,2300           05135                           TC       FINDVAC
000374: 07,2301  E7,1722                                  EBANK=   MRKBUF1
000375: 07,2301           02052 16067                     2CADR    MKVB5X
000376:
000377: 07,2303           15314                           TCF      TASKOVER
000378:
000379: 07,2304           36211        DOWNMRK            CAF      SIX                                   #  FOR CALIBRATION MARK
000380: 07,2305           05607                           TC       GENTRAN
000381: 07,2306           00354                           ADRES    MKT2T1
000382: 07,2307           01674                           ADRES    MARKDOWN
000383:
000384: 07,2310           35047                           CAF      PRIO5
000385: 07,2311           05121                           TC       NOVAC
000386: 07,2312  E7,1722                                  EBANK=   MRKBUF1
000387: 07,2312           02230 76067                     2CADR    MARKDISP
000388:
000389: 07,2314           36211        PUTMARK            CAF      SIX
000390: 07,2315           05607                           TC       GENTRAN
000391: 07,2316           00354                           ADRES    MKT2T1
000392: 07,2317           01722                           ADRES    MRKBUF1
000393:
000394: 07,2320           34753                           CAF      R21BIT                                #  DONT CALL VB50 DISPLAY FOR R21
000395: 07,2321           70076                           MASK     FLAGWRD2
000396: 07,2322           10000                           CCS      A
000397: 07,2323           15314                           TCF      TASKOVER
000398:
000399: 07,2324           12275                           TCF      MARKDONE
000400:
000401: 07,2325           24353        DIFCHK             INCR     MKNDX                                 #  INCREMENT INDEX
000402:
000403: 07,2326           00006                           EXTEND
000404: 07,2327           50353                           INDEX    MKNDX
000405: 07,2330           20032                           MSU      CDUX                                  #  GET MARK(ICDU) - CURRENT(ICDU)
000406: 07,2331           10000                           CCS      A
000407: 07,2332           12336                           TCF      +4
000408: 07,2333           00002                           TC       Q
000409: 07,2334           12336                           TCF      +2
000410: 07,2335           00002                           TC       Q


000412: 07,2336           67701                           AD       NEG2                                  #  SEE IF DIFFERENCE GREATER THAN 3 BITS
000413: 07,2337           00006                           EXTEND
000414: 07,2340           62335                           BZMF     -3                                    #  NOT GREATER
000415:
000416: 07,2341           05671                           TC       ALARM                                 #  COUPLED WITH PROGRAM ALARM
000417: 07,2342           00121                           OCT      00121
000418:
000419: 07,2343           15314                           TCF      TASKOVER                              #  DO NOT ACCEPT
000420:
000421: 07,2344           34753        MKREJECT           CAF      R21BIT
000422: 07,2345           70076                           MASK     FLAGWRD2                              #  R21 MARK (SPECIAL MARKING FOR R21)
000423: 07,2346           00006                           EXTEND
000424: 07,2347           12367                           BZF      MRKREJCT                              #  NOT SET THEREFORE REGULAR REJECT
000425: 07,2350           31722                           CA       MRKBUF1                               #  IS THERE A MARK IN THE BUFFER?
000426: 07,2351           00006                           EXTEND
000427: 07,2352           12355                           BZF      +3                                    #  YES - REJECT MARK IN BUFFER
000428:
000429: 07,2353           00006                           EXTEND
000430: 07,2354           62360                           BZMF     REJCTR22                              #  NO,SET FLAG TO REJECT MARK PROCESSED-R22
000431:
000432: 07,2355           37702                           CA       NEGONE                                #  -1 (FOR R22)
000433: 07,2356           55722                           TS       MRKBUF1                               #  -0 IN TIME IS FLAG TO R22 SIGNIFYING A
000434: 07,2357           05323                           TC       RESUME
000435:
000436: 07,2360           34762        REJCTR22           CAF      R22CABIT                              #  IS R22 PROCESSING A MARK?
000437: 07,2361           70105                           MASK     FLAGWRD9
000438: 07,2362           00006                           EXTEND
000439: 07,2363           15323                           BZF      RESUME                                #  NO IGNORE MARK REJECT
000440:
000441: 07,2364           05547                           TC       UPFLAG
000442: 07,2365           00231                           ADRES    REJCTFLG                              #  YES - SET FLAG FOR R22
000443: 07,2366           05323                           TC       RESUME
000444:
000445: 07,2367           34765        MRKREJCT           CAF      MARKBIT
000446: 07,2370           70075                           MASK     FLAGWRD1
000447: 07,2371           10000                           CCS      A
000448: 07,2372           02376                           TC       REJECT3
000449:
000450: 07,2373           05671                           TC       ALARM                                 #  DONT ACCEPT TWO REJECTS TOGETHER
000451: 07,2374           00110                           OCT      110
000452: 07,2375           05323                           TC       RESUME
000453:
000454: 07,2376           05561        REJECT3            TC       DOWNFLAG
000455: 07,2377           00032                           ADRES    MARKFLG
000456:
000457: 07,2400           05354                           TC       CHECKMM                               #  IS THIS P24
000458: 07,2401           00030                           MM       24         B-14
000459: 07,2402           12422                           TCF      REJECT4                               #  NO
000460: 07,2403           05561                           TC       DOWNFLAG                              #  YES
000461: 07,2404           00052                           ADRES    P24MKFLG


000463: 07,2405           11753                           CCS      P22DEX                                #  IS MARK TO BE REJ, THE LAST MARK IN BUF
000464: 07,2406           12411                           TCF      +3                                    #  NO
000465: 07,2407           34172                           CA       OCT34                                 #  YES
000466: 07,2410           12413                           TCF      +3
000467: 07,2411           44774                           CS       SEVEN
000468: 07,2412           61753                           AD       P22DEX
000469: 07,2413           54070        REJECT5            TS       RUPTREG1
000470: 07,2414           00006                           EXTEND
000471: 07,2415           50070                           INDEX    RUPTREG1
000472: 07,2416           41540                           DCS      SVMRKDAT
000473: 07,2417           50070                           INDEX    RUPTREG1
000474: 07,2420           53540                           DXCH     SVMRKDAT
000475: 07,2421           12433                           TCF      REJEXIT
000476: 07,2422           24301        REJECT4            INCR     MARKINDX                              #  CALL FOR ANOTHER MARK
000477: 07,2423           05354                           TC       CHECKMM
000478: 07,2424           00026                           MM       22         B-14
000479: 07,2425           12433                           TCF      REJEXIT
000480:
000481: 07,2426           44770                           CS       ONE                                   #  FOR P22
000482: 07,2427           27747                           ADS      8NN
000483: 07,2430           44774                           CS       SEVEN
000484: 07,2431           27753                           ADS      P22DEX                                #  DECREMENT P22 INDEX
000485:
000486: 07,2432           12413                           TCF      REJECT5
000487:
000488: 07,2433           37644        REJEXIT            CAF      PRIO22
000489: 07,2434           05135                           TC       FINDVAC
000490: 07,2435  E7,1722                                  EBANK=   MRKBUF1
000491: 07,2435           02023 16067                     2CADR    MKVBDSP
000492:
000493: 07,2437           15323                           TCF      RESUME

End of include-file SXTMARK.agc.  Parent file is MAIN.agc


