
Source Code


000002:                                                                                                  ## Copyright:   Public domain.
000003:                                                                                                  ## Filename:    TVCINITIALIZE.agc
000004:                                                                                                  ## Purpose:     A section of Artemis revision 071.
000005:                                                                                                  ##              It is part of the reconstructed source code for the first
000006:                                                                                                  ##              release of the flight software for the Command Module's
000007:                                                                                                  ##              (CM) Apollo Guidance Computer (AGC) for Apollo 15 through
000008:                                                                                                  ##              17. The code has been recreated from a copy of Artemis 072.
000009:                                                                                                  ##              It has been adapted such that the resulting bugger words
000010:                                                                                                  ##              exactly match those specified for Artemis 071 in NASA
000011:                                                                                                  ##              drawing 2021154-, which gives relatively high confidence
000012:                                                                                                  ##              that the reconstruction is correct.
000013:                                                                                                  ## Reference:   943
000014:                                                                                                  ## Assembler:   yaYUL
000015:                                                                                                  ## Contact:     Ron Burkey <info@sandroid.org>.
000016:                                                                                                  ## Website:     www.ibiblio.org/apollo/index.html
000017:                                                                                                  ## Mod history: 2019-08-14 MAS  Created from Artemis 072.
000018:


000020:                                                                                                  #  NAME          TVCDAPON (TVC DAP INITIALIZATION AND STARTUP CALL)
000021:                                                                                                  #  LOG SECTION...TVCINITIALIZE                   SUBROUTINE...DAPCSM
000022:                                                                                                  #  MODIFIED BY SCHLUNDT                          21 OCTOBER 1968
000023:                                                                                                  #  MODIFIED BY BEALS TO ELIMINATE CSMMASS UPDATE LOGIC (NOW DONE IN S40.8)
000024:                                                                                                  #  FUNCTIONAL DESCRIPTION
000025:                                                                                                  #        PERFORMS TVCDAP INITIALIZATION (GAINS, TIMING PARAMETERS, FILTER VARIABLES, ETC.)
000026:                                                                                                  #        COMPUTES STEERING (S40.8) GAIN KPRIMEDT, AND ZEROES PASTDELV,+1 VARIABLE
000027:                                                                                                  #        MAKES INITIALIZATION CALL TO ..NEEDLER.. FOR TVC DAP NEEDLES-SETUP
000028:                                                                                                  #        PERFORMS INITIALIZATION FOR ROLL DAP
000029:                                                                                                  #        CALLS TVCEXECUTIVE AT TVCEXEC, VIA WAITLIST
000030:                                                                                                  #        CALLS TVCDAP CDU-RATE INITIALIZATION PKG AT DAPINIT  VIA T5
000031:                                                                                                  #        PROVIDES FOR LOADING OF LOW-BANDWIDTH COEFFS AND GAINS AT SWICHOVR
000032:                                                                                                  #  CALLING SEQUENCE - T5LOC=2CADR(TVCDAPON,EBANK=BZERO), T5=.6SECT5
000033:                                                                                                  #        IN PARTICULAR, CALLED BY ..DOTVCON.. IN P40
000034:                                                                                                  #        MRCLEAN AND TVCINIT4 ARE POSSIBLE RESTART ENTRY POINTS
000035:                                                                                                  #  NORMAL EXIT MODE
000036:                                                                                                  #        TCF RESUME
000037:                                                                                                  #  SUBROUTINES CALLED
000038:                                                                                                  #        NEEDLER, MASSPROP
000039:                                                                                                  #  ALARM OR ABORT EXIT MODES
000040:                                                                                                  #        NONE
000041:                                                                                                  #  ERASABLE INITIALIZATION REQUIRED
000042:                                                                                                  #        CSMMASS, LEMMASS, DAPDATR1 (FOR MASSPROP SUBROUTINE)
000043:                                                                                                  #        TVC PAD LOADS (SEE EBANK6 IN ERASABLE ASSIGNMENTS)
000044:                                                                                                  #        PACTOFF, YACTOFF, CDUX
000045:                                                                                                  #        TVCPHASE AND THE T5 BITS OF FLAGWRD6 (SET AT DOTVCON IN P40)
000046:                                                                                                  #  OUTPUT
000047:                                                                                                  #        ALL TVC AND ROLL DAP ERASABLES, FLAGWRD6 (BITS 13,14), T5, WAITLIST
000048:                                                                                                  #  DEBRIS
000049:                                                                                                  #        NONE
000050:
000051: 17,2000                                           SETLOC   DAPS7
000052: 17,2000                                           BANK
000053:
000054: 17,2163                                           COUNT*   $$/INIT
000055: 17,2163  E6,1446                                  EBANK=   CNTR
000056: 17,2163           22016        TVCDAPON           LXCH     BANKRUPT                              #  T5 RUPT ARRIVAL (CALL BY DOTVCON - P40)
000057: 17,2164           00006                           EXTEND                                         #  SAVE Q REQUIRED IN RESTARTS (MRCLEAN AND
000058: 17,2165           22012                           QXCH     QRUPT                                 #        TVCINIT4 ARE ENTRIES)
000059: 17,2166           32524        MRCLEAN            CAF      NZERO                                 #  NUMBER TO ZERO, LESS ONE  (MUST BE ODD)
000060:                                                                                                  #        TVC RESTARTS ENTER HERE  (NEW BANK)
000061: 17,2167           10000                 +1        CCS      A
000062: 17,2170           55446                           TS       CNTR
000063: 17,2171           34772                           CAF      ZERO
000064: 17,2172           54001                           TS       L
000065: 17,2173           51446                           INDEX    CNTR
000066: 17,2174           53530                           DXCH     OMEGAYC                               #  FIRST (LAST) TWO LOCATIONS
000067: 17,2175           11446                           CCS      CNTR
000068: 17,2176           12167                           TCF      MRCLEAN    +1


000070: 17,2177           00006                           EXTEND                                         #  SET UP ANOTHER T5 RUPT TO CONTINUE
000071: 17,2200           32540                           DCA      INITLOC2                              #        INITIALIZATION AT TVCINIT1
000072: 17,2201           52113                           DXCH     T5LOC                                 #  THE PHSCHK2 ENTRY  (REDOTVC) AT TVCDAPON
000073: 17,2202           34750                           CAF      POSMAX                                #        +3 IS IN ANOTHER BANK. MUST RESET
000074: 17,2203           54030                           TS       TIME5                                 #        BBCON TOO (FULL 2CADR), FOR THAT
000075: 17,2204           15323        ENDMRC             TCF      RESUME                                #        ENTRY.
000076:
000077: 17,2205           22016        TVCINIT1           LXCH     BANKRUPT
000078: 17,2206           00006                           EXTEND
000079: 17,2207           22012                           QXCH     QRUPT
000080:
000081: 17,2210           04714                           TC       IBNKCALL                              #  UPDATE IXX, IAVG/TLX FOR DAP GAINS (R03
000082: 17,2211           13313                           CADR     MASSPROP                              #        OR NOUNS 46 AND 47 MUST BE CORRECT)
000083:
000084: 17,2212           31465                           CAE      DAPDATR1                              #  CHECK LEM-ON/OFF
000085: 17,2213           74753                           MASK     BIT14
000086: 17,2214           10000                           CCS      A
000087: 17,2215           34770                           CAF      BIT1                                  #  LEM-ON (BIT1)
000088: 17,2216           55446                           TS       CNTR                                  #  LEM-OFF (ZERO)
000089:
000090: 17,2217           51446                           INDEX    CNTR                                  #  LOAD THE FILTER COEFFICIENTS
000091: 17,2220           32521                           CAF      CSMCFADR
000092: 17,2221           55704                           TS       COEFFADR
000093: 17,2222           02412                           TC       LOADCOEF
000094:
000095: 17,2223           51446                           INDEX    CNTR                                  #  PICK UP LM-OFF,-ON KTLX/I
000096: 17,2224           31416                           CAE      EKTLX/I                               #        SCALED (1.08 B+2) 1/SECSQ CSM/LM
000097: 17,2225           55630                           TS       KTLX/I                                #               ( "   B+4)    "    CSM
000098:
000099: 17,2226           02452                           TCR      S40.15                                #  COMPUTE 1/CONACC, VARK
000100:
000101: 17,2227           41446        TVCINIT2           CS       CNTR                                  #  PICK LM-OFF,-ON VALUE FOR FILTER PERIOD
000102: 17,2230           50000                           INDEX    A                                     #  DETERMINATION:
000103: 17,2231           34767                           CAF      BIT2                                  #        BIT2 FOR CSM ONLY 40MS FILTER
000104: 17,2232           55626                           TS       KPRIMEDT                              #        BIT3 FOR CSM/LM 80MS FILTER
000105:
000106: 17,2233           40000                           COM                                            #  PREPARE T5TVCDT
000107: 17,2234           64750                           AD       POSMAX
000108: 17,2235           64770                           AD       BIT1
000109: 17,2236           55625                           TS       T5TVCDT
000110:
000111: 17,2237           44752                           CS       SWTOVBIT                              #  RESET SWTOVER FLAG
000112: 17,2240           70105                           MASK     FLAGWRD9
000113: 17,2241           54105                           TS       FLAGWRD9
000114: 17,2242           51446                           INDEX    CNTR                                  #  PICK UP LEM-OFF,-ON KPRIME
000115: 17,2243           31414                           CAE      EKPRIME                               #        SCALED (100 PI)/16
000116: 17,2244           00006                           EXTEND
000117: 17,2245           71626                           MP       KPRIMEDT                              #  (TVCDT/2, SC.AT B+14CS)
000118: 17,2246           22000                           LXCH     A                                     #        SC.AT PI/8      (DIMENSIONLESS)
000119: 17,2247           53627                           DXCH     KPRIMEDT


000121: 17,2250           51446                           INDEX    CNTR                                  #  PICK UP LEM-OFF,-ON REPFRAC
000122: 17,2251           31421                           CAE      EREPFRAC
000123: 17,2252           55633                           TS       REPFRAC
000124:
000125: 17,2253           51446                           INDEX    CNTR                                  #  PICK UP ONE-SHOT CORRECTION TIME
000126: 17,2254           32530                           CAF      TCORR
000127: 17,2255           55446                           TS       CNTR
000128:
000129: 17,2256           34351                           CAF      NINETEEN                              #  SET VCNTR FOR VARIABLE-GAIN UPDATES IN
000130: 17,2257           55634                           TS       VCNTR                                 #  10 SECS (TVCEXEC 1/2 SEC RATE)
000131: 17,2260           31423        TVCINIT3           CAE      PACTOFF                               #  TRIM VALUES TO TRIM-TRACKERS, OUTPUT
000132: 17,2261           55605                           TS       PDELOFF                               #        TRACKERS, OFFSET-UPDATES, AND
000133: 17,2262           55623                           TS       PCMD                                  #        OFFSET-TRACKER FILTERS
000134: 17,2263           55601                           TS       DELPBAR                               #        NOTE, LO-ORDER DELOFF,DELBAR ZEROED
000135:
000136: 17,2264           31424                           CAE      YACTOFF
000137: 17,2265           55607                           TS       YDELOFF
000138: 17,2266           55624                           TS       YCMD
000139: 17,2267           55603                           TS       DELYBAR
000140:
000141: 17,2270           31465        ATTINIT            CAE      DAPDATR1                              #  ATTITUDE-ERROR INITIALIZATION LOGIC
000142: 17,2271           74754                           MASK     BIT13                                 #        TEST FOR CSM OR CSM/LM
000143: 17,2272           00006                           EXTEND
000144: 17,2273           12321                           BZF      NEEDLEIN                              #        BYPASS INITIALIZATION FOR CSM/LM
000145:
000146: 17,2274           34770                           CAF      BIT1                                  #        SET UP TEMPORARY COUNTER
000147: 17,2275           55611                 +5        TS       TTMP1
000148:
000149: 17,2276           51611                           INDEX    TTMP1
000150: 17,2277           31664                           CA       ERRBTMP                               #  ERRBTMP CONTAINS RCS ATTITUDE ERRORS
000151: 17,2300           00006                           EXTEND                                         #        ERRORY & ERRORZ (P40 AT DOTVCON)
000152: 17,2301           72527                           MP       1/ATTLIM                              #  .007325(ERROR) = 0 IF ERROR < 1.5 DEG
000153: 17,2302           00006                           EXTEND
000154: 17,2303           12313                           BZF      +8D                                   #        |ERROR| LESS THAN 1.5 DEG
000155: 17,2304           00006                           EXTEND
000156: 17,2305           62310                           BZMF     +3                                    #        |ERROR| > 1.5 DEG, AND NEG
000157: 17,2306           32526                           CA       ATTLIM                                #        |ERROR| > 1.5 DEG, AND POS
000158: 17,2307           12311                           TCF      +2
000159: 17,2310           42526                 +3        CS       ATTLIM
000160: 17,2311           51611                 +2        INDEX    TTMP1
000161: 17,2312           55664                           TS       ERRBTMP
000162: 17,2313           11611                 +8        CCS      TTMP1                                 #        TEST TEMPORARY COUNTER
000163: 17,2314           12275                           TCF      ATTINIT    +5                         #        BACK TO REPEAT FOR PITCH ERROR
000164:
000165: 17,2315           31664                           CA       ERRBTMP                               #  ERRORS ESTABLISHED AND LIMITED
000166: 17,2316           55575                           TS       PERRB
000167: 17,2317           31665                           CA       ERRBTMP    +1
000168: 17,2320           55577                           TS       YERRB
000169:
000170: 17,2321           41501        NEEDLEIN           CS       RCSFLAGS                              #  SET BIT 3 FOR INITIALIZATION PASS AND GO


000172: 17,2322           74766                           MASK     BIT3                                  #        TO NEEDLER.  WILL CLEAR FOR TVC DAP
000173: 17,2323           27501                           ADS      RCSFLAGS                              #        (RETURNS AFTER CADR)
000174: 17,2324           04714                           TC       IBNKCALL
000175: 17,2325           42425                           CADR     NEEDLER
000176:
000177: 17,2326           34772        TVCINIT4           CAF      ZERO                                  #  SET TVCPHASE TO INDICATE TVCDAPON-THRU-
000178: 17,2327           55635                           TS       TVCPHASE                              #        NEEDLEIN INITIALIZATION FINISHED.
000179:                                                                                                  #        (POSSIBLE TVC-RESTART ENTRY)
000180:
000181: 17,2330           30032                           CAE      CDUX                                  #  PREPARE ROLL DAP
000182: 17,2331           55645                           TS       OGANOW
000183:
000184: 17,2332           32524                           CAF      NZERO                                 #  CALL TVCEXECUTIVE IN 0.51 SEC
000185: 17,2333           05233                           TC       WAITLIST
000186: 17,2334  E6,1446                                  EBANK=   CNTR
000187: 17,2334           03037 34066                     2CADR    TVCEXEC
000188:
000189:
000190: 17,2336           00006                           EXTEND                                         #  CALL FOR DAPINIT
000191: 17,2337           32536                           DCA      DAPINIT5
000192: 17,2340           52113                           DXCH     T5LOC
000193: 17,2341           31625                           CAE      T5TVCDT                               #  (ALLOW TIME FOR RESTART COMPUTATIONS)
000194: 17,2342           54030                           TS       TIME5
000195:
000196: 17,2343           15323        ENDTVCIN           TCF      RESUME
000197:
000198:
000199: 17,2344           00004        SWICHOVR           INHINT
000200: 17,2345           31635                           CA       TVCPHASE                              #  SAVE TVCPHASE
000201: 17,2346           55611                           TS       PHASETMP
000202: 17,2347           44767                           CS       BIT2                                  #  SET TVCPHASE = -2 (INDICATES SWITCH-OVER
000203: 17,2350           55635                           TS       TVCPHASE                              #        TO RESTART LOGIC)
000204:
000205: 17,2351           00006                 +5        EXTEND                                         #  SAVE Q FOR RETURN (RESTART ENTRY POINT,
000206: 17,2352           23613                           QXCH     RTRNLOC                               #        TVCPHASE AND PHASETMP ALREADY SET)
000207:
000208: 17,2353           32525                           CAF      NZEROJR                               #  ZEROING LOOP FOR FILTER STORAGE LOCS
000209: 17,2354           55661                 +8        TS       CNTRTMP
000210:
000211: 17,2355           34772        MCLEANJR           CA       ZERO
000212: 17,2356           54001                           TS       L
000213: 17,2357           51661                           INDEX    CNTRTMP
000214: 17,2360           53541                           DXCH     PTMP1      -1
000215: 17,2361           11661                           CCS      CNTRTMP
000216: 17,2362           10000                           CCS      A
000217: 17,2363           12354                           TCF      SWICHOVR   +8D
000218:
000219: 17,2364           40105                           CS       FLAGWRD9                              #  SET SWITCHOVER FLAG FOR DOWNLINK
000220: 17,2365           74752                           MASK     SWTOVBIT


000222: 17,2366           26105                           ADS      FLAGWRD9
000223:
000224: 17,2367           31420                           CAE      EKTLX/I    +2                         #  LOW BANDWIDTH GAINS - DAP
000225: 17,2370           55630                           TS       KTLX/I
000226: 17,2371           02461                           TCR      S40.15     +7
000227:
000228: 17,2372           32532                           CAF      FKPRIMDT                              #                        - STEERING
000229: 17,2373           55626                           TS       KPRIMEDT
000230:
000231: 17,2374           32533                           CAF      FREPFRAC                              #                        - TMC LOOP
000232: 17,2375           55633                           TS       REPFRAC
000233:
000234: 17,2376           00006                           EXTEND                                         #  UPDATE TRIM ESTIMATES
000235: 17,2377           31602                           DCA      DELPBAR
000236: 17,2400           53606                           DXCH     PDELOFF
000237: 17,2401           00006                           EXTEND
000238: 17,2402           31604                           DCA      DELYBAR
000239: 17,2403           53610                           DXCH     YDELOFF
000240:
000241: 17,2404           32523                           CA       LBCFADR
000242: 17,2405           55704                           TS       COEFFADR
000243: 17,2406           02412                           TC       LOADCOEF
000244:
000245: 17,2407           31611                           CAE      PHASETMP                              #  RESTORE TVCPHASE
000246: 17,2410           55635                           TS       TVCPHASE
000247:
000248: 17,2411           01613                           TC       RTRNLOC                               #  BACK TO PRESWTCH OR TVCRESTARTS
000249:
000250:
000251: 17,2412           00006        LOADCOEF           EXTEND                                         #  LOAD DAP FILTER COEFFICIENTS
000252: 17,2413           51704                           INDEX    COEFFADR                              #    FROM: ERASABLE FOR CSM/LM HB
000253: 17,2414           30001                           DCA      0                                     #          FIXED    FOR CSM/LM LB
000254: 17,2415           53706                           DXCH     N10                                   #          FIXED    FOR CSM
000255:
000256: 17,2416           00006                           EXTEND                                         #  NOTE: FOR CSM/LM, NORMAL COEFFICIENT
000257: 17,2417           51704                           INDEX    COEFFADR                              #  LOAD WILL BE HIGH BANDWIDTH PAD LOAD
000258: 17,2420           30003                           DCA      2                                     #  ERASABLES. DURING CSM/LM SWITCHOVER,
000259: 17,2421           53710                           DXCH     N10        +2                         #  THIS LOGIC IS USED TO LOAD LOW BANDWIDTH
000260:                                                                                                  #  COEFFICIENTS FROM FIXED MEMORY.
000261:
000262: 17,2422           00006                           EXTEND
000263: 17,2423           51704                           INDEX    COEFFADR
000264: 17,2424           30005                           DCA      4
000265: 17,2425           53712                           DXCH     N10        +4
000266:
000267: 17,2426           00006                           EXTEND
000268: 17,2427           51704                           INDEX    COEFFADR
000269: 17,2430           30007                           DCA      6
000270: 17,2431           53714                           DXCH     N10        +6


000272: 17,2432           00006                           EXTEND
000273: 17,2433           51704                           INDEX    COEFFADR
000274: 17,2434           30011                           DCA      8D
000275: 17,2435           53716                           DXCH     N10        +8D
000276:
000277: 17,2436           00006                           EXTEND
000278: 17,2437           51704                           INDEX    COEFFADR
000279: 17,2440           30013                           DCA      10D
000280: 17,2441           53720                           DXCH     N10        +10D
000281:
000282: 17,2442           00006                           EXTEND
000283: 17,2443           51704                           INDEX    COEFFADR
000284: 17,2444           30015                           DCA      12D
000285: 17,2445           53722                           DXCH     N10        +12D
000286:
000287: 17,2446           51704                           INDEX    COEFFADR
000288: 17,2447           30016                           CA       14D
000289: 17,2450           55723                           TS       N10        +14D
000290:
000291: 17,2451           00002                           TC       Q
000292:
000293: 17,2452           31467        S40.15             CAE      IXX                                   #  GAIN COMPUTATIONS (1/CONACC, VARK)
000294: 17,2453           00006                           EXTEND                                         #  ENTERED FROM TVCINITIALIZE AND TVCEXEC
000295: 17,2454           72534                           MP       2PI/M                                 #        2PI/M SCALED 1/(B+8 N M)
000296: 17,2455           20001                           DDOUBL                                         #        IXX   SCALED B+20 KG-MSQ
000297: 17,2456           20001                           DDOUBL
000298: 17,2457           20001                           DDOUBL
000299: 17,2460           55631                           TS       1/CONACC                              #              SCALED B+9 SEC-SQ/REV
000300:
000301:                                                                                                  #  ENTRY FROM CSM/LM V46 SWITCHOVER
000302: 17,2461           31630                 +7        CAE      KTLX/I                                #        SCALED (1.08 B+2) 1/SECSQ CSM/LM
000303: 17,2462           00006                           EXTEND                                         #               (  "  B+4)   CSM
000304: 17,2463           71471                           MP       IAVG/TLX                              #              SCALED B+2 SECSQ
000305: 17,2464           20001                           DDOUBL
000306: 17,2465           20001                           DDOUBL
000307: 17,2466           55632                           TS       VARK                                  #        SCALED (1.08 B+2)   CSM/LM
000308: 17,2467           00002                           TC       Q                                     #               (  "  B+4)   CSM
000309:
000310:
000311: 17,2470           37777        CSMN10             DEC      .99999                                #  N10   CSM ONLY FILTER COEFFICIENTS
000312: 17,2471           67657                           DEC      -.2549                                #  N11/2
000313: 17,2472           01703                           DEC      .0588                                 #  N12
000314: 17,2473           47472                           DEC      -.7620                                #  D11/2
000315: 17,2474           27656                           DEC      .7450                                 #  D12
000316:
000317: 17,2475           37777                           DEC      .99999                                #  N20
000318: 17,2476           60361                           DEC      -.4852                                #  N21/2
000319: 17,2477           00000                           DEC      0          B-14                       #  N22


000321: 17,2500           67304                           DEC      -.2692                                #  D22/2
000322: 17,2501           00000                           DEC      0          B-14                       #  D22
000323:
000324: 17,2502           37777        LBN10              DEC      +.99999                               #  N10   LOW BANDWIDTH FILTER COEFFICIENTS
000325: 17,2503           65371                           DEC      -.3285                                #  N11/2
000326: 17,2504           65337                           DEC      -.3301                                #  N12
000327: 17,2505           42700                           DEC      -.9101                                #  D11/2
000328: 17,2506           33045                           DEC      +.8460                                #  D12
000329:
000330: 17,2507           01000                           DEC      +.03125                               #  N20
000331: 17,2510           00000                           DEC      0          B-14                       #  N21/2
000332: 17,2511           00000                           DEC      0          B-14                       #  N22
000333: 17,2512           42700                           DEC      -.9101                                #  D21/2
000334: 17,2513           33045                           DEC      +.8460                                #  D22
000335:
000336: 17,2514           20000                           DEC      +.5000                                #  N30
000337: 17,2515           60730                           DEC      -.47115                               #  N31/2
000338: 17,2516           17145                           DEC      +.4749                                #  N32
000339: 17,2517           41323                           DEC      -.9558                                #  D31/2
000340: 17,2520           35773                           DEC      +.9372                                #  D32
000341:
000342:
000343: 17,2521           02470        CSMCFADR           GENADR   CSMN10                                #  CSM ONLY COEFFICIENTS ADDRESS
000344: 17,2522           01425        HBCFADR            GENADR   HBN10                                 #  HIGH BANDWIDTH COEFFICIENTS ADDRESS
000345: 17,2523           02502        LBCFADR            GENADR   LBN10                                 #  LOW BANDWIDTH COEFFICIENTS ADDRESS
000346:
000347: 17,2524           00063        NZERO              DEC      51         B-14                       #  MUST BE ODD FOR MRCLEAN
000348: 17,2525           00027        NZEROJR            DEC      23         B-14                       #  MUST BE ODD FOR MCLEANJR
000349:
000350: 17,2526           00210        ATTLIM             DEC      0.00833                               #  INITIAL ATTITUDE ERROR LIMIT (1.5 DEG)
000351: 17,2527           00170        1/ATTLIM           DEC      0.007325                              #  .007325(ERROR) = 0 IF ERROR < 1.5 DEG
000352:
000353: 17,2530           00005        TCORR              OCT      00005                                 #  CSM
000354: 17,2531           00000                 +1        OCT      00000                                 #  CSM/LM (HB,LB)
000355:
000356: 17,2532           00247        FKPRIMDT           DEC      .0102                                 #  CSM/LM (LB), (.05 X .08) SCALED AT PI/8
000357: 17,2533           00232        FREPFRAC           DEC      .0375      B-2                        #  CSM/LM (LB),  0.0375 SCALED AT B+2
000358:
000359: 17,2534     4351               NINETEEN           =        VD1
000360: 17,2534           33074        2PI/M              DEC      .00331017  B+8                        #  2PI/M, SCALED AT 1/(B+8 N-M)
000361:
000362: 17,2535  E6,1446                                  EBANK=   CNTR
000363: 17,2535           03227 40066  DAPINIT5           2CADR    DAPINIT
000364:
000365:
000366: 17,2537  E6,1446                                  EBANK=   CNTR
000367: 17,2537           02205 36066  INITLOC2           2CADR    TVCINIT1

End of include-file TVCINITIALIZE.agc.  Parent file is MAIN.agc


