
Source Code


000002:                                                                                                  ## Copyright:   Public domain.
000003:                                                                                                  ## Filename:    TVCROLLDAP.agc
000004:                                                                                                  ## Purpose:     A section of Artemis revision 071.
000005:                                                                                                  ##              It is part of the reconstructed source code for the first
000006:                                                                                                  ##              release of the flight software for the Command Module's
000007:                                                                                                  ##              (CM) Apollo Guidance Computer (AGC) for Apollo 15 through
000008:                                                                                                  ##              17. The code has been recreated from a copy of Artemis 072.
000009:                                                                                                  ##              It has been adapted such that the resulting bugger words
000010:                                                                                                  ##              exactly match those specified for Artemis 071 in NASA
000011:                                                                                                  ##              drawing 2021154-, which gives relatively high confidence
000012:                                                                                                  ##              that the reconstruction is correct.
000013:                                                                                                  ## Reference:   982
000014:                                                                                                  ## Assembler:   yaYUL
000015:                                                                                                  ## Contact:     Ron Burkey <info@sandroid.org>.
000016:                                                                                                  ## Website:     www.ibiblio.org/apollo/index.html
000017:                                                                                                  ## Mod history: 2019-08-14 MAS  Created from Artemis 072.
000018:


000020:
000021:                                                                                                  #  PROGRAM NAME...TVC ROLL AUTOPILOT
000022:                                                                                                  #  LOG SECTION...TVCROLLDAP                      SUBROUTINE...DAPCSM
000023:                                                                                                  #  MODIFIED BY SCHLUNDT                          21 OCTOBER 1968
000024:
000025:
000026:                                                                                                  #  FUNCTIONAL DESCRIPTION....
000027:
000028:                                                                                                  #       *AN ADAPTATION OF THE LEM P-AXIS CONTROLLER
000029:                                                                                                  #       *MAINTAIN OGA WITHIN 5 DEG DEADBND OF OGAD, WHERE OGAD = OGA AS SEEN
000030:                                                                                                  #        BY IGNITION (P40)
000031:                                                                                                  #       *MAINTAIN OGA RATE LESS THAN 0.1 DEG/SEC LIMIT CYCLE RATE
000032:                                                                                                  #       *SWITCHING LOGIC IN PHASE PLANE.... SEE GSOP CHAPTER 3
000033:                                                                                                  #       *USES T6 CLOCK TO TIME JET FIRINGS
000034:                                                                                                  #       *MAXIMUM JET FIRING TIME = 2.56 SECONDS, LIMITED TO 2.5 IF GREATER
000035:                                                                                                  #       *MINIMUM JET FIRING TIME = 15 MS
000036:                                                                                                  #       *JET PAIRS FIRE ALTERNATELY
000037:                                                                                                  #       *AT LEAST 1/2 SECOND DELAY BEFORE A NEW JET PAIR IS FIRED
000038:                                                                                                  #       *JET FIRINGS MAY NOT BE EXTENDED, ONLY SHORTENED, WHEN RE-EVALUATION
000039:                                                                                                  #        OF A JET FIRING TIME IS MADE ON A LATER PASS
000040:
000041:                                                                                                  #  CALLING SEQUENCE....
000042:
000043:                                                                                                  #       *ROLLDAP CALL VIA WAITLIST, IN PARTICULAR BY TVCEXEC (EVERY 1/2 SEC)
000044:                                                                                                  #        WITH A 3CS DELAY TO ALLOW FREE TIME FOR OTHER RUPTS (DWNRPT, ETC.)
000045:
000046:                                                                                                  #  NORMAL EXIT MODES.... ENDOFJOB
000047:
000048:                                                                                                  #  ALARM OR ABORT EXIT MODES.... NONE
000049:
000050:                                                                                                  #  SUBROUTINES CALLED.....NONE
000051:
000052:                                                                                                  #  OTHER INTERFACES....
000053:
000054:                                                                                                  #       *TVCEXEC SETS UP ROLLDAP TASK EVERY 1/2 SECOND AND UPDATES 1/CONACC
000055:                                                                                                  #        EVERY 10 SECONDS (VIA MASSPROP AND S40.15)
000056:                                                                                                  #       *RESTARTS SUSPEND ROLL DAP COMPUTATIONS UNTIL THE NEXT 1/2 SEC
000057:                                                                                                  #        SAMPLE PERIOD. (THE PART OF TVCEXECUTIVE THAT CALLS ROLL DAP IS
000058:                                                                                                  #        NOT RESTARTED.) THE OGAD FROM IGNITION IS MAINTAINED.
000059:
000060:                                                                                                  #  ERASABLE INITIALIZATION REQUIRED....
000061:
000062:                                                                                                  #       *1/CONACC   (S40.15)
000063:                                                                                                  #       *OGAD (CDUX AT IGNITION)
000064:                                                                                                  #       *OGANOW  (CDUX AT TVCINIT4 AND TVCEXECUTIVE)
000065:                                                                                                  #       *OGAPAST  (OGANOW AT TVCEXECUTIVE)
000066:                                                                                                  #       *ROLLFIRE = TEMREG = ROLLWORD = 0   (MRCLEAN LOOP IN TVCDAPON)
000067:                                                                                                  #  OUTPUT....
000068:
000069:                                                                                                  #       *ROLL JET PAIR FIRINGS
000070:


000072:                                                                                                  #  DEBRIS.... MISCELLANEOUS, SHAREABLE WITH RCS/ENTRY, IN EBANK6 ONLY
000073:


000075:                                                                                                  #  SOME NOTES ON THE ROLL AUTOPILOT, AND IN PARTICULAR, ON ITS SWITCHING
000076:                                                                                                  #  LOGIC.  SEE SECTION THREE OF THE GSOP (SUNDISK/COLOSSUS) FOR DETAILS.
000077:
000078:                                                                                                  #  SWITCHING LOGIC IN THE PHASE PLANE....
000079:
000080:                                                                                                  #                               OGARATE
000081:                                                                                                  #                                  *
000082:                                                                                                  #                                  *
000083:                                                                                                  #   * * * * * * * * * * *          *
000084:                                                                                                  #                                  *     (REGION 1, SEE TEXT BELOW)
000085:                                                                                                  #                             *    *
000086:                                                                                                  #                                  *
000087:                                                                                                  #  * * * * * * *     (COAST)       *     ...PARABOLA (SWITCHING = CONTROL)
000088:                                                                                                  #                *                 *    .
000089:                                                                                                  #                  *               *   *
000090:                                                                                                  #                    *             *                (FIRE NEG ROLL JETS)
000091:                                                                                                  #                      *           *      *
000092:                                                                                                  #      (-DB,+LMCRATE)....*         *
000093:                                                                                                  #                        *         *        *
000094:                                                                                                  #                        *         *                              OGAERROR
000095:                                                                                                  #  ************************************************************************
000096:                                                                                                  #                                  *         *                (-AK, OGAERR)
000097:                                                                                                  #                         *        *         *      (REGION 6-PRIME)
000098:                                                                                                  #                                  *         *      (SEE TEXT BELOW)
000099:                                                                                                  #                           *      *           *
000100:                                                                                                  #                                  *             *     ...STRAIGHT LINE
000101:                                                                                                  #     (FIRE POS ROLL JETS)     *   *               *  .
000102:                                                                                                  #                                  *   (COAST)       *
000103:                                                                                                  #                                  *                   * * * * * * * * * *
000104:                                                                                                  #                                  *                         -MINLIM
000105:                                                                                                  #                                  *    *
000106:                                                                                                  #                                  *
000107:                                                                                                  #                                  *          * * * * * * * * * * * * * * *
000108:                                                                                                  #                                  *                        -MAXLIM
000109:                                                                                                  #                                  *
000110:                                                                                                  #                                  *
000111:
000112:                                                                                                  #  SWITCHING PARABOLAS ARE CONTROL PARABOLAS, THUS REQUIRING KNOWLEDGE OF
000113:                                                                                                  #        CONTROL ACCELERATION CONACC, OR ITS RECIPROCAL, 1/CONACC, THE TVC
000114:                                                                                                  #        ROLL DAP GAIN  (SEE TVCEXECUTIVE VARIABLE GAIN PACKAGE).  JET
000115:                                                                                                  #        FIRING TIME IS SIMPLY THAT REQUIRED TO ACHIEVE THE DESIRED OGARATE,
000116:                                                                                                  #        SUBJECT TO THE LIMITATIONS DISCUSSED UNDER FUNCTIONAL DESCRIPTION,
000117:                                                                                                  #        ABOVE.
000118:
000119:                                                                                                  #  THE THREE CONTROL REGIONS  (+, -, AND ZERO TORQUE) ARE COMPRIZED OF
000120:                                                                                                  #        TWELVE SUBSET REGIONS  ( 1...6, AND THE CORRESPONDING 1-PRIME...
000121:                                                                                                  #        6-PRIME )  SEE SECTION 3 OF THE GSOP  (SUNDISK OR COLOSSUS)


000123:
000124:                                                                                                  #  GIVEN THE OPERATING POINT NOT IN THE COAST REGION, THE DESIRED OGARATE
000125:                                                                                                  #        IS AT THE POINT OF PENETRATION OF THE COAST REGION BY THE CONTROL
000126:                                                                                                  #        PARABOLA WHICH PASSES THROUGH THE OPERATING POINT. FOR REGION 3
000127:                                                                                                  #        DESIRED OGARATE IS SIMPLY +-MAXLIM. FOR REGIONS 1 OR 6 THE SOLUTION
000128:                                                                                                  #        TO A QUADRATIC IS REQUIRED (THE PENETRATION IS ALONG THE STRAIGHT
000129:                                                                                                  #        LINE OR MINLIM BOUNDRY SWITCH LINES). AN APPROXIMATION IS MADE
000130:                                                                                                  #        INSTEAD. TAKE AN OPERATING POINT IN REGION 6' . PASS A TANGENT TO
000131:                                                                                                  #        THE CONTROL PARABOLA THROUGH THE OPERATING POINT, AND FIND ITS
000132:                                                                                                  #        INTERSECTION WITH THE STRAIGHT LINE SECTION OF THE SWITCH CURVE...
000133:                                                                                                  #        THE INTERSECTION DEFINES DESIRED OGARATE. IF THE OPERATING POINT IS
000134:                                                                                                  #        CLOSE TO THE SWITCH LINE, THE APPROXIMATION IS QUITE GOOD (INDEED
000135:                                                                                                  #        THE APPROXIMATE AND QUADRATIC SOLUTIONS CONVERGE IN THE LIMIT AS
000136:                                                                                                  #        THE SWITCH LINE IS APPROACHED). IF THE OPERATING POINT IS NOT CLOSE
000137:                                                                                                  #        TO THE SWITCH LINE, THE APPROXIMATE SOLUTION GIVES VALID TREND
000138:                                                                                                  #        INFORMATION (DIRECTION OF DESIRED OGARATE) AT LEAST. THE
000139:                                                                                                  #        RE-EVALUATION OF DESIRED OGARATE IN SUBSEQUENT ROLL DAP PASSES (1/2
000140:                                                                                                  #        SECOND INTERVALS) WILL BENEFIT FROM THE CONVERGENT NATURE OF THE
000141:                                                                                                  #        APPROXIMATION.
000142:
000143:                                                                                                  #  FOR LARGE OGAERROR THE TANGENT INTERSECTS +-MINLIM SWITCH BOUNDRY BEFORE
000144:                                                                                                  #        INTERSECTING THE STRAIGHT LINE SWITCH. HOWEVER THE MINLIM IS
000145:                                                                                                  #        IGNORED IN COMPUTING THE FIRING TIME, SO THAT THE EXTENSION (INTO
000146:                                                                                                  #        THE COAST REGION) OF THE STRAIGHT LINE SWITCH IS WHAT IS FIRED TO.
000147:                                                                                                  #        IF THE ROLL DAP FINDS ITSELF IN THE COAST REGION BEFORE REACHING
000148:                                                                                                  #        THE DESIRED INTERSECTION (IE, IN THE REGION BETWEEN THE MINLIM
000149:                                                                                                  #        AND THE STRAIGHT LINE SWITCH) IT WILL EXIBIT NORMAL COAST-REGION
000150:                                                                                                  #        BEHAVIOR AND TURN OFF THE JETS. THE PURPOSE OF THIS FIRING POLICY
000151:                                                                                                  #        IS TO MAINTAIN STATIC ROLL STABILITY IN THE EVENT OF A JET
000152:                                                                                                  #        FAILED-ON.
000153:
000154:                                                                                                  #  WHEN THE OPERATING POINT IS IN REGION 1 THE SAME APPROXIMATION IS
000155:                                                                                                  #        MADE, BUT AT AN ARTIFICIALLY-CREATED OR DUMMY OPERATING POINT,
000156:                                                                                                  #        DEFINED BY.. OGAERROR = INTERSECTION OF CONTROL PARABOLA  AND
000157:                                                                                                  #        OGAERROR AXIS, OGARATE = +-LMCRATE WHERE SIGN IS OPPOSITE THAT OF
000158:                                                                                                  #        REAL OPERATING POINT RATE.  WHEN THE OPERATING POINT HAS PASSED
000159:                                                                                                  #        FROM REGION 1 TO REGION 6', THE DUMMY POINT IS NO LONGER REQUIRED,
000160:                                                                                                  #        AND THE SOLUTION REVERTS TO THAT OF A REGULAR REGION 6' POINT.
000161:
000162:
000163:                                                                                                  #  EQUATION FOR SWITCHING PARABOLA (SEE FIGURE ABOVE)....
000164:                                                                                                  #                                    2
000165:                                                                                                  #        SOGAERROR = (DB - (SOGARATE) (1/CONACC)/2) SGN(SOGARATE)
000166:
000167:
000168:                                                                                                  #  EQUATION FOR SWITCHING STRAIGHT LINE SEGMENT....
000169:
000170:                                                                                                  #        SOGARATE = -(-SLOPE)(SOGAERROR) - SGN(SOGARATE) INTERCEP
000171:
000172:                                                                                                  #                WHERE  INTERCEP = DB(-SLOPE) - LMCRATE


000174:
000175:                                                                                                  #  EQUATION FOR INTERSECTION, CONTROL PARABOLA AND STRAIGHT SWITCH LINE....
000176:
000177:                                                                                                  #        DOGADOT = NUM/DEN, WHERE
000178:                                                                                                  #                                       2
000179:                                                                                                  #                NUM = (-SLOPE)(OGARATE) (1/CONACC)
000180:                                                                                                  #                      +SGN(DELOGA)(-SLOPE)(OGAERROR - SGN(DELOGA)(DB))
000181:                                                                                                  #                      +LMCRATE
000182:
000183:                                                                                                  #                DEN = (-SLOPE)(LMCRATE)(1/CONACC) - SGN(DELOGA)
000184:
000185:                                                                                                  #                                                 2
000186:                                                                                                  #                DELOGA = OGAERROR - (DB - OGARATE (1/CONACC)/2) SGN(OGARATE)
000187:
000188:
000189:                                                                                                  #  FOR REGIONS 6 AND 6-PRIME  USE ACTUAL OPERATING POINT  (OGA, OGARATE)
000190:                                                                                                  #        FOR OGAERROR AND OGARATE IN THE INTERSECTION EQUATIONS ABOVE.
000191:                                                                                                  #        FOR REGIONS 1 AND 1-PRIME USE DUMMY OPERATING POINT FOR OGAERROR
000192:                                                                                                  #        AND OGARATE, WHERE THE DUMMY POINT IS GIVEN BY....
000193:                                                                                                  #        OGAERROR= DELOGA + DB SGN(OGARATE)
000194:                                                                                                  #        OGARATE= -LMCRATE SGN(OGARATE)
000195:
000196:                                                                                                  #  NOTE, OGAERROR = OGA - OGAD  USES DUMMY REGISTER  OGA  IN ROLL DAP CODING
000197:                                                                                                  #        ALSO, AT POINT WHERE DOGARATE IS COMPUTED, REGISTER DELOGA IS USED
000198:                                                                                                  #        AS A DUMMY REGISTER FOR THE OGAERROR IN THE NUM EQUATION ABOVE


000200:
000201:                                                                                                  #  ROLLDAP CODING....
000202:
000203: 16,2000                                           SETLOC   DAPROLL
000204: 16,2000                                           BANK
000205: 16,3342  E6,1645                                  EBANK=   OGANOW
000206: 16,3342                                           COUNT*   $$/ROLL
000207: 16,3342           31645        ROLLDAP            CAE      OGANOW                                #  OGA RATE ESTIMATOR...SIMPLE FIRST-ORDER
000208: 16,3343           00006                           EXTEND                                         #        DIFFERENCE (SAMPLE TIME = 1/2 SEC)
000209: 16,3344           21646                           MSU      OGAPAST
000210: 16,3345           00006                           EXTEND
000211: 16,3346           74764                           MP       BIT5
000212: 16,3347           22000                           LXCH     A
000213: 16,3350           55533                           TS       OGARATE                               #  SC.AT B-4 REV/SEC
000214:
000215:                                                                                                  #  COMPUTATIONS WHICH FOLLOW USE OGA FOR OGAERR  (SAME REGISTER)
000216:                                                                                                  #  EXAMINE DURATION OF LAST JET FIRING IF JETS NOW ON.
000217:
000218: 16,3351           31571        DURATION           CA       ROLLFIRE                              #  SAME SGN AS PRESENT TORQ,MAGN=POSMAX
000219: 16,3352           00006                           EXTEND
000220: 16,3353           13355                           BZF      +2                                    #  ROLL JETS ARE NOW OFF.
000221: 16,3354           13363                           TCF      ROLLOGIC                              #  ENTER LOGIC, JETS NOW ON.
000222:
000223: 16,3355           31573                           CAE      TEMREG                                #  EXAMINE LAST FIRING INTERVAL
000224: 16,3356           00006                           EXTEND                                         #  IF POSITIVE, DONT FIRE
000225: 16,3357           13363                           BZF      ROLLOGIC                              #  ENTER LOGIC, JETS NOW OFF.
000226:
000227: 16,3360           34772                           CAF      ZERO                                  #  JETS HAVE NOT BEEN OFF FOR 1/2 SEC. WAIT
000228: 16,3361           55573                           TS       TEMREG                                #  RESET TEMREG
000229: 16,3362           15314        WAIT1/2            TCF      TASKOVER                              #  EXIT ROLL DAP
000230:
000231:                                                                                                  #  COMPUTE DB-(1/2 CONACC) (OGARATE)SQ  (1/2 IN THE SCALING)
000232:
000233: 16,3363           41533        ROLLOGIC           CS       OGARATE                               #  SCALED AT 2(-4) REV/SEC
000234: 16,3364           00006                           EXTEND
000235: 16,3365           71631                           MP       1/CONACC                              #  SCALED AT 2(+9) SEC SQ /REV
000236: 16,3366           00006                           EXTEND
000237: 16,3367           71533                           MP       OGARATE
000238: 16,3370           63756                           AD       DB                                    #  SCALED AT 2(+0) REV
000239: 16,3371           55573                           TS       TEMREG                                #  QUANTITY SCALED AT 2(+0) REV.
000240:
000241:                                                                                                  #  GET SIGN OF OGARATE
000242:
000243: 16,3372           31533                           CA       OGARATE
000244: 16,3373           00006                           EXTEND
000245: 16,3374           63377                           BZMF     +3                                    #  LET SGN(0) BE NEGATIVE
000246: 16,3375           34770                           CA       BIT1
000247: 16,3376           13400                           TCF      +2
000248: 16,3377           44770                           CS       BIT1
000249: 16,3400           55651                           TS       SGNRT                                 #  + OR -  2(-14)
000250:


000252:                                                                                                  #  CALCULATE DISTANCE FROM SWITCH PARABOLA (DELOGA)
000253:
000254: 16,3401           00006                           EXTEND
000255: 16,3402           71573                           MP       TEMREG                                #  SGN(OGARATE) TEMREG NOW IN L
000256: 16,3403           40001                           CS       L
000257: 16,3404           61647                           AD       OGA                                   #  SCALED AT 2(+0) REV
000258: 16,3405           55652        DELOGAC            TS       DELOGA                                #  SCALE B+0 REV, PLUS TO RIGHT OF C-PARAB
000259:
000260:                                                                                                  #  EXAMINE SGN(DELOGA) AND CREATE CA OR CS INSTR. DEPENDING UPON SIGN.
000261:
000262: 16,3406           00006                           EXTEND
000263: 16,3407           63412                           BZMF     +3
000264: 16,3410           34346                           CAF      PRIO30                                #  =CA  (30000)
000265: 16,3411           13413                           TCF      +2
000266: 16,3412           34752                           CAF      BIT15                                 #  =CS  (40000)
000267: 16,3413           55653                           TS       I
000268:
000269: 16,3414           51653                           INDEX    I                                     #  TEST ON  I SGN(OGARATE)
000270: 16,3415           01651                           0        SGNRT                                 #  CA OR CS
000271: 16,3416           40000                           COM
000272: 16,3417           00006                           EXTEND
000273: 16,3420           63471        REG1TST            BZMF     ROLLON                                #  IF REGION 1 (DELOGA OGARATE SAME SIGN)
000274:
000275:                                                                                                  #  NO JET FIRE YET, TEST FOR MAX OGARATE
000276:
000277: 16,3421           51653                           INDEX    I
000278: 16,3422           01533                           0        OGARATE                               #  CA OR CS...BOTH MUST BE NEG. HERE
000279: 16,3423           55654                           TS       IOGARATE                              #  I.E. I OGARATE
000280: 16,3424           63763                           AD       MAXLIM                                #  SCALED AT 2(-4) REV/SEC
000281: 16,3425           00006                           EXTEND
000282: 16,3426           63550        REG3TST            BZMF     RATELIM                               #  IF REGION 3 (RATES TOO HIGH, FIRE JETS)
000283:
000284:                                                                                                  #  COMPUTATION OF I((-SLOPE)OGA + OGARATE) - INTERCEPT..NOTE THAT STR. LINE
000285:                                                                                                  #  SWITCH SLOPE IS (SLOPE) DEG/SEC/DEG, A NEG QUANTITY
000286:
000287: 16,3427           31533                           CA       OGARATE
000288: 16,3430           00006                           EXTEND
000289: 16,3431           74753                           MP       BIT14
000290: 16,3432           55573                           TS       TEMREG
000291: 16,3433           31647                           CA       OGA
000292: 16,3434           00006                           EXTEND
000293: 16,3435           73757                           MP       -SLOPE
000294: 16,3436           20001                           DDOUBL
000295: 16,3437           20001                           DDOUBL
000296: 16,3440           20001                           DDOUBL                                         #  (OGA ERROR MUST BE LESS THAN +-225 DEG)
000297: 16,3441           61573                           AD       TEMREG
000298:
000299: 16,3442           51653                           INDEX    I
000300: 16,3443           00000                           0        A                                     #  I((-SLOPE)OGA+OGARATE) AT 2(-3)REV/SEC
000301: 16,3444           40000                           COM


000303: 16,3445           63761                           AD       INTERCEP                              #  SCALED AT 2(-3) REV.
000304: 16,3446           40000                           COM
000305: 16,3447           00006                           EXTEND
000306: 16,3450           63661        REG2TST            BZMF     NOROLL                                #  IF REGION 2 (COAST SIDE OF STRT LINE)
000307:
000308:                                                                                                  #  CHECK TO SEE IF OGARATE IS ABOVE MINLIM BOUNDARY
000309:
000310: 16,3451           31654                           CA       IOGARATE                              #  ALWAYS NEGATIVE
000311: 16,3452           63762                           AD       MINLIM                                #  SCALED AT 2(-4) REV/SEC
000312: 16,3453           00006                           EXTEND
000313: 16,3454           63661        REG4TST            BZMF     NOROLL                                #  IF REGION 4 (COAST SIDE OF MINLIM)
000314:
000315:                                                                                                  #  ALL AREAS CHECKED EXCEPT LAST AREA...NO FIRE IN THIS SMALL SEGMENT
000316:
000317: 16,3455           51653                           INDEX    I
000318: 16,3456           01647                           0        OGA
000319: 16,3457           40000                           COM
000320: 16,3460           63756                           AD       DB
000321: 16,3461           40000                           COM
000322: 16,3462           00006                           EXTEND
000323: 16,3463           63661        REG5TST            BZMF     NOROLL                                #  IF REGION 5 (COAST SIDE OF DB)
000324:
000325:                                                                                                  #  JETS MUST FIRE NOW. OGARATE IS NEG. (OR VISA VERSA). USE DIRECT STR. LINE.
000326:                                                                                                  #  DELOGA AND DELOGART ARE USED AS DUMMY VARIABLES IN THE SOLUTION OF A
000327:                                                                                                  #  STRAIGHT LINE APPROXIMATION TO A QUADRATIC SOLUTION OF THE INTERSECTION
000328:                                                                                                  #  OF THE CONTROL PARABOLA AND THE STRAIGHT-LINE SWITCH LINE. THE STRAIGHT
000329:                                                                                                  #  LINE IS THE TANGENT TO THE CONTROL PARABOLA AT THE OPERATING POINT. (FOR
000330:                                                                                                  #  OPERATING POINTS IN REGIONS 6 OR 6')
000331:
000332: 16,3464           31647        REGION6            CAE      OGA                                   #  USE ACTUAL OPERATING POINT FOR TANGENT
000333: 16,3465           55652                           TS       DELOGA                                #  ACTUAL STATE
000334: 16,3466           31533                           CA       OGARATE
000335: 16,3467           55650                           TS       DELOGART                              #  ACTUAL STATE, I.E. DEL OGARATE
000336: 16,3470           13500                           TCF      ONROLL
000337:
000338:                                                                                                  #  JETS ALSO FIRE FROM HERE EXCEPT OGARATE IS POS (VISA VERSA), USE INDIRECT
000339:                                                                                                  #  STRAIGHT LINE ESTABLISHED BY TANGENT TO A CONTROL PARABOLA AT   ((DELOGA
000340:                                                                                                  #  + DB SGN(DELOGA) ), -LMCRATE SGN(DELOGA) )         (THIS IS THE DUMMY
000341:                                                                                                  #  OPERATING POINT FOR OPERATING POINTS IN REGIONS 1 AND 1')
000342:
000343: 16,3471           51653        ROLLON             INDEX    I
000344: 16,3472           03756                           0        DB
000345: 16,3473           27652                           ADS      DELOGA                                #  DELOGA WAS DIST. FROM SWITCH PARABOLA
000346:
000347: 16,3474           43760                           CS       LMCRATE                               #  LIMIT CYCLE RATE AT 2(-4) REV/SEC
000348: 16,3475           51653                           INDEX    I
000349: 16,3476           00000                           0        A
000350: 16,3477           55650                           TS       DELOGART                              #  EVALUATE STATE FOR INDIRECT LINE.
000351:


000353:
000354:                                                                                                  #  SOLVE STRAIGHT LINES SIMULTANEOUSLY TO OBTAIN DESIRED OGARATE.
000355:
000356: 16,3500           00006        ONROLL             EXTEND                                         #  DELOGART IN ACC. ON ARRIVAL
000357: 16,3501           71631                           MP       1/CONACC
000358: 16,3502           60000                           DOUBLE
000359: 16,3503           00006                           EXTEND
000360: 16,3504           73757                           MP       -SLOPE
000361: 16,3505           55573                           TS       TEMREG                                #  2(-SLOPE)RATE /CONACC
000362: 16,3506           00006                           EXTEND
000363: 16,3507           71650                           MP       DELOGART
000364: 16,3510           55650                           TS       DELOGART                              #  2(-SLOPE)(RATESQ)/CONACC
000365: 16,3511           44756                           CS       BIT11
000366: 16,3512           51653                           INDEX    I
000367: 16,3513           00000                           0        A
000368: 16,3514           27573        RATEDEN            ADS      TEMREG                                #  DENOMINATOR COMPLETED
000369:
000370: 16,3515           51653                           INDEX    I
000371: 16,3516           01652                           0        DELOGA
000372: 16,3517           40000                           COM
000373: 16,3520           63756                           AD       DB
000374: 16,3521           40000                           COM
000375: 16,3522           00006                           EXTEND
000376: 16,3523           73757                           MP       -SLOPE
000377: 16,3524           27650                           ADS      DELOGART
000378: 16,3525           33760                           CA       LMCRATE
000379: 16,3526           00006                           EXTEND
000380: 16,3527           74756                           MP       BIT11
000381: 16,3530           61650        RATENUM            AD       DELOGART                              #  NUMERATOR COMPLETED
000382:
000383: 16,3531           56001                           XCH      L                                     #  PLACE NUMERATOR IN L FOR OVERFL. CHECK
000384: 16,3532           34772                           CA       ZERO
000385: 16,3533           00006                           EXTEND
000386: 16,3534           11573                           DV       TEMREG                                #  OVERFLOW, IF ANYTHING, NOW APPEARS IN A
000387: 16,3535           00006                           EXTEND
000388: 16,3536           13544                           BZF      DVOK                                  #  NO OVERFLOW....(0,L)/TEMREG = 0,L
000389:
000390: 16,3537           10000        MINLIMAP           CCS      A
000391: 16,3540           34750                           CAF      POSMAX                                #        POSITIVE OVERFLOW
000392: 16,3541           13553                           TCF      ROLLSET
000393: 16,3542           44750                           CS       POSMAX                                #        NEGATIVE OVERFLOW
000394: 16,3543           13553                           TCF      ROLLSET
000395:
000396: 16,3544           22000        DVOK               LXCH     A                                     #  PUT NUMERATOR BACK INTO A, 0 IN L
000397: 16,3545           00006                           EXTEND
000398: 16,3546           11573                           DV       TEMREG                                #  RESULT OF DIVISION IS DESIRED OGARATE
000399: 16,3547           13553                           TCF      ROLLSET                               #        (SCALED AT B-4 REV/SEC)
000400:
000401: 16,3550           43763        RATELIM            CS       MAXLIM
000402: 16,3551           51653                           INDEX    I


000404: 16,3552           00000                           0        A                                     #  IF I = CA, DESIRED RATE IS   -MAXLIM
000405:
000406:                                                                                                  #  COMPUTE JET FIRE TIME, BASED ON DESIRED RATE MINUS PRESENT RATE
000407:
000408: 16,3553           55573        ROLLSET            TS       TEMREG                                #  STORE DESIRED OGARATE (SCALED B-4)
000409: 16,3554           00006                           EXTEND
000410: 16,3555           61533                           SU       OGARATE                               #  RATE DIFF. SCALED AT 2(-4) REV/SEC
000411: 16,3556           55573                           TS       TEMREG                                #        OVERFLOW PROTECT
000412: 16,3557           13562                           TCF      +3                                    #           "       "
000413: 16,3560           50000                           INDEX    A                                     #           "       "
000414: 16,3561           44751                           CS       LIMITS                                #           "       "
000415: 16,3562           00006                           EXTEND
000416: 16,3563           77652                           MP       T6SCALE                               #  T6SCALE = 8/10.24
000417: 16,3564           00006                           EXTEND
000418: 16,3565           71631                           MP       1/CONACC                              #  SCALED AT B+9 SECSQ/REV (MAX < .60)
000419: 16,3566           20001                           DDOUBL
000420: 16,3567           20001                           DDOUBL
000421: 16,3570           55573                           TS       TEMREG                                #        OVERFLOW PROTECT
000422: 16,3571           13574                           TCF      +3                                    #           "       "
000423: 16,3572           50000                           INDEX    A                                     #           "       "
000424: 16,3573           44751                           CS       LIMITS                                #           "       "
000425: 16,3574           55573                           TS       TEMREG                                #  JET FIRE TIME AT 625 MICROSEC/BIT
000426: 16,3575           00006                           EXTEND                                         #  POS MEANS POSITIVE ROLL TORQUE.
000427: 16,3576           13661                           BZF      NOROLL
000428:
000429:                                                                                                  #  JET FIRE TIME IS NZ, TEST FOR JETS NOW ON.
000430:
000431: 16,3577           31573                           CAE      TEMREG                                #  DESIRED CHANGE IN OGARATE
000432: 16,3600           00006                           EXTEND
000433: 16,3601           71571                           MP       ROLLFIRE                              #  (SGN OF TORQUE..ZERO IF JETS NOW OFF)
000434: 16,3602           10000                           CCS      A
000435: 16,3603           13607                           TCF      MOREROLL                              #  CONTINUE FIRING WITH PRESENT POLARITY
000436: 16,3604           13612                           TCF      NEWROLL                               #  START NEW FIRING NOW, PLUS
000437: 16,3605           13661                           TCF      NOROLL                                #  TERMINATE OLD FIRING, NEW SIGN REQUESTED
000438: 16,3606           13612                           TCF      NEWROLL                               #  START NEW FIRING NOW, MINUS
000439:
000440:                                                                                                  #  CONTINUE PRESENT FIRING
000441:
000442: 16,3607           34772        MOREROLL           CAF      ZERO
000443: 16,3610           55653                           TS       I                                     #  USE TEMP. AS MOREROLL SWITCH
000444: 16,3611           13623                           TCF      MAXTFIRE
000445:
000446:                                                                                                  #  START NEW FIRING, BUT CHECK IF GREATER THAN MIN FIRE TIME.
000447:
000448: 16,3612           11573        NEWROLL            CCS      TEMREG                                #  CALL THIS T6FIRE
000449: 16,3613           64770                           AD       ONE
000450: 16,3614           13616                           TCF      +2
000451: 16,3615           64770                           AD       ONE
000452: 16,3616           40000                           COM                                            #  -MAG(T6FIRE)
000453: 16,3617           65001                           AD       TMINFIRE                              #  TMINFIRE-MAG(T6FIRE)


000455: 16,3620           40000                           COM
000456: 16,3621           00006                           EXTEND
000457: 16,3622           63661        MINTST             BZMF     NOROLL                                #  IF NOT GREATER THAN TMINFIRE (NEW FIRE)
000458:
000459:                                                                                                  #  PROCEED WITH NEW FIRING, BUT NOT LONGER THAN TMAXFIRE.
000460:
000461: 16,3623           31573        MAXTFIRE           CA       TEMREG
000462: 16,3624           00006                           EXTEND
000463: 16,3625           74766                           MP       1/TMXFIR                              #  I.E. 1/TMAXFIRE
000464: 16,3626           00006                           EXTEND
000465: 16,3627           13635        MAXTST             BZF      NOMXFIRE                              #  IF LESS THAN TMAXFIRE
000466:
000467: 16,3630           10000                           CCS      A
000468: 16,3631           33764                           CAF      TMAXFIRE                              #  USE MAXIMUM
000469: 16,3632           13634                           TCF      +2
000470: 16,3633           43764                           CS       TMAXFIRE                              #  USE MAXIMUM
000471: 16,3634           55573                           TS       TEMREG
000472:
000473:                                                                                                  #  SET UP SIGN OF REQUIRED TORQUE.
000474:
000475: 16,3635           11573        NOMXFIRE           CCS      TEMREG                                #  FOR TORQUE SIGN
000476: 16,3636           34750                           CA       POSMAX                                #  POSITIVE TORQUE REQUIRED
000477: 16,3637           13641                           TCF      +2
000478: 16,3640           34752                           CA       NEGMAX                                #  NEGATIVE TORQUE REQUIRED
000479: 16,3641           55571                           TS       ROLLFIRE                              #  SET ROLLFIRE FOR + OR - TORQUE
000480:
000481: 16,3642           40000                           COM                                            #  COMPLEMENT... POS. FOR NEG. TORQUE
000482: 16,3643           00006                           EXTEND
000483: 16,3644           63647                           BZMF     +3                                    #  POSITIVE TORQUE REQUIRED
000484: 16,3645           41573                           CS       TEMREG
000485: 16,3646           55573                           TS       TEMREG
000486:
000487: 16,3647           31653        FIRELOOK           CA       I                                     #  IS IT MOREROLL
000488: 16,3650           00006                           EXTEND
000489: 16,3651           13653                           BZF      FIREPLUG                              #  YES
000490: 16,3652           13664                           TCF      JETROLL                               #  MAG(T6FIRE) NOW IN TEMREG
000491:
000492: 16,3653           30031        FIREPLUG           CAE      TIME6                                 #  CHECK FOR EXTENDED FIRING
000493: 16,3654           00006                           EXTEND
000494: 16,3655           61573                           SU       TEMREG
000495: 16,3656           00006                           EXTEND
000496: 16,3657           65314        EXTENTST           BZMF     TASKOVER                              #  IF EXTENSION WANTED, DONT, EXIT ROLL DAP
000497: 16,3660           13664                           TCF      JETROLL
000498:
000499: 16,3661           44772        NOROLL             CS       ZERO                                  #  COAST....(NEG ZERO FOR TIME6)
000500: 16,3662           55571                           TS       ROLLFIRE                              #  NOTE, JETS CAN FIRE NEXT PASS
000501: 16,3663           55573                           TS       TEMREG
000502:
000503: 16,3664           00006        JETROLL            EXTEND
000504: 16,3665           33755                           DCA      NOROL1T6


000506: 16,3666           52111                           DXCH     T6LOC
000507: 16,3667           31573                           CA       TEMREG                                #  ENTER JET FIRING TIME
000508: 16,3670           54031                           TS       TIME6
000509:
000510: 16,3671           31653                           CA       I                                     #  I=0 IF MOREROLL,KEEP SAME JETS ON
000511: 16,3672           00006                           EXTEND
000512: 16,3673           15314        SAMEJETS           BZF      TASKOVER                              #  IF JETS ON KEEP SAME JETS. EXIT ROLL DAP
000513:
000514: 16,3674           11571                           CCS      ROLLFIRE
000515: 16,3675           13701                           TCF      +TORQUE
000516: 16,3676           13742                           TCF      T6ENABL
000517: 16,3677           13722                           TCF      -TORQUE
000518: 16,3700           13742                           TCF      T6ENABL
000519:
000520:                                                                                                  #  PROCEED WITH PLUS TORQUE.
000521:
000522: 16,3701           31572        +TORQUE            CA       ROLLWORD                              #   WHAT WAS THE LAST +TORQUE COMBINATION
000523: 16,3702           74770                           MASK     BIT1                                  #  WAS IT NO.9-11
000524: 16,3703           00006                           EXTEND
000525: 16,3704           13714                           BZF      NO.9-11                               #  NOT 9-11, SO USE IT THIS TIME
000526:
000527: 16,3705           44770        NO.13-15           CS       BIT1
000528: 16,3706           71572                           MASK     ROLLWORD
000529: 16,3707           55572                           TS       ROLLWORD                              #  CHANGE BIT 1 TO ZERO
000530: 16,3710           35014                           CAF      +ROLL2
000531: 16,3711           00006                           EXTEND
000532: 16,3712           01006                           WRITE    CHAN6
000533: 16,3713           13742                           TCF      T6ENABL
000534:
000535: 16,3714           34770        NO.9-11            CAF      BIT1                                  #  1ST + JETS TO FIRE (MRCLEAN OS ROLLWORD)
000536: 16,3715           27572                           ADS      ROLLWORD                              #  CHANGE BIT 1 TO ONE
000537: 16,3716           34773                           CAF      +ROLL1
000538: 16,3717           00006                           EXTEND
000539: 16,3720           01006                           WRITE    CHAN6
000540: 16,3721           13742                           TCF      T6ENABL
000541:
000542: 16,3722           31572        -TORQUE            CA       ROLLWORD                              #   WHAT WAS LAST -TORQUE COMBINATION
000543: 16,3723           74767                           MASK     BIT2                                  #  WAS IT NO.12-10
000544: 16,3724           00006                           EXTEND
000545: 16,3725           13735                           BZF      NO.12-10                              #  NOT 12-10, SO USE IT THIS TIME
000546:
000547: 16,3726           44767        NO.16-14           CS       BIT2
000548: 16,3727           71572                           MASK     ROLLWORD
000549: 16,3730           55572                           TS       ROLLWORD                              #  CHANGE BIT 2 TO ZERO
000550: 16,3731           33765                           CAF      -ROLL2
000551: 16,3732           00006                           EXTEND
000552: 16,3733           01006                           WRITE    CHAN6
000553: 16,3734           13742                           TCF      T6ENABL
000554:
000555: 16,3735           34767        NO.12-10           CAF      BIT2                                  #  1ST -JETS TO FIRE (MRCLEAN OS ROLLWORD)


000557: 16,3736           27572                           ADS      ROLLWORD                              #  CHANGE BIT 2 TO ONE
000558: 16,3737           34355                           CAF      -ROLL1
000559: 16,3740           00006                           EXTEND
000560: 16,3741           01006                           WRITE    CHAN6
000561:
000562: 16,3742           34752        T6ENABL            CAF      BIT15
000563: 16,3743           00006                           EXTEND
000564: 16,3744           05013                           WOR      CHAN13
000565: 16,3745           15314        RDAPEND            TCF      TASKOVER                              #  EXIT ROLL DAP
000566:


000568:
000569:                                                                                                  #  THIS T6 TASK SHUTS OFF ALL ROLL JETS
000570:
000571: 16,3746           22016        NOROLL1            LXCH     BANKRUPT                              #  SHUT OFF ALL (ROLL) JETS, (A T6 TASK
000572: 16,3747           34772                           CAF      ZERO                                  #        CALLED BY ..JETROLL..)
000573: 16,3750           55571                           TS       ROLLFIRE                              #  ZERO INDICATES JETS NOW OFF
000574: 16,3751           00006                           EXTEND
000575: 16,3752           01006        KILLJETS           WRITE    CHAN6
000576: 16,3753           15325                           TCF      NOQRSM
000577:


000579:
000580:                                                                                                  #  CONSTANTS FOR ROLL AUTOPILOT....
000581:
000582: 16,3754  E6,1446                                  EBANK=   CNTR
000583: 16,3754           03746 34066  NOROL1T6           2CADR    NOROLL1
000584:
000585: 16,3756           00344        DB                 DEC      .01388889                             #  DEAD BAND (5 DEG), SC.AT B+0 REV
000586:
000587: 16,3757           06315        -SLOPE             DEC      0.2                                   #  -SWITCHLINE SLOPE(0.2 PER SEC) SC.AT B+0
000588:                                                                                                  #        PER SEC
000589: 16,3760           00111        LMCRATE            DEC      .00027778  B+4                        #  LIMIT CYCLE RATE (0.1 DEG/SEC) SC.AT
000590:                                                                                                  #        B-4 REV/SEC
000591: 16,3761           00510        INTERCEP           DEC      .0025      B+3                        #  DB(-SLOPE) - LMCRATE, SC.AT B-3 REV/SC
000592:
000593: 16,3762           01330        MINLIM             DEC      .00277778  B+4                        #  RATELIM,MIN (1DEG/SEC), SC.AT B-4 REV/SC
000594:
000595: 16,3763           07071        MAXLIM             DEC      .01388889  B+4                        #  RATELIM,MAX (5DEG/SEC), SC.AT B-4 REV/SC
000596:
000597:                                                                                                  # TMINFIRE       DEC     1.5 B+4         15 MS  (14MIN), SC.AT 16 BITS/CS
000598: 16,3764     5001               TMINFIRE           =        BITS4&5
000599:
000600: 16,3764           07640        TMAXFIRE           DEC      250        B+4                        #  2.5 SEC, SC.AT 16 BITS/CS
000601:
000602: 16,3765     4766               1/TMXFIR           =        BIT3                                  #  RECIPROCAL THEREOF, SHIFTED 14 RIGHT,
000603:                                                                                                  #        ROUNDS TO OCT00004, SO ALLOWS 2.56
000604:                                                                                                  #        SEC FIRINGS BEFORE APPLYING LIMIT
000605: 16,3765     7652               T6SCALE            =        PRIO31                                #  (B+3) (16 BITS/CS) (100CS/SEC)
000606:
000607: 16,3765     4773               +ROLL1             =        FIVE                                  #  ONBITS FOR JETS 9 AND 11
000608: 16,3765     5014               +ROLL2             =        OCT120                                #  ONBITS FOR JETS 13 AND 15
000609: 16,3765     4355               -ROLL1             =        TEN                                   #  ONBITS FOR JETS 12 NAD 10
000610: 16,3765           00240        -ROLL2             OCT      240                                   #  ONBITS FOR JETS 16 AND 14

End of include-file TVCROLLDAP.agc.  Parent file is MAIN.agc


