
Source Code


000002:                                                                                                  ## Copyright:   Public domain.
000003:                                                                                                  ## Filename:    TVCRESTARTS.agc
000004:                                                                                                  ## Purpose:     A section of Artemis revision 071.
000005:                                                                                                  ##              It is part of the reconstructed source code for the first
000006:                                                                                                  ##              release of the flight software for the Command Module's
000007:                                                                                                  ##              (CM) Apollo Guidance Computer (AGC) for Apollo 15 through
000008:                                                                                                  ##              17. The code has been recreated from a copy of Artemis 072.
000009:                                                                                                  ##              It has been adapted such that the resulting bugger words
000010:                                                                                                  ##              exactly match those specified for Artemis 071 in NASA
000011:                                                                                                  ##              drawing 2021154-, which gives relatively high confidence
000012:                                                                                                  ##              that the reconstruction is correct.
000013:                                                                                                  ## Reference:   959
000014:                                                                                                  ## Assembler:   yaYUL
000015:                                                                                                  ## Contact:     Ron Burkey <info@sandroid.org>.
000016:                                                                                                  ## Website:     www.ibiblio.org/apollo/index.html
000017:                                                                                                  ## Mod history: 2019-08-14 MAS  Created from Artemis 072.
000018:


000020:
000021:                                                                                                  #  NAME....TVCRESTART PACKAGE,  CONSISTING OF REDOTVC, ENABL1, 2, CMDSOUT, PHSCHK2, ETC.
000022:                                                                                                  #  LOG SECTION...TVCRESTARTS                     SUBROUTINE...DAPCSM
000023:                                                                                                  #  MODIFIED BY SCHLUNDT                          21 OCTOBER 1968
000024:                                                                                                  #  MODIFIED BY BEALS TO ELIMINATE CSMMASS UPDATE LOGIC (NOW DONE IN S40.8)
000025:                                                                                                  #  FUNCTIONAL DESCRIPTION....
000026:
000027:                                                                                                  #       *RESTART-PROOFS THE TVC DAPS, INCLUDING PITCHDAP, YAWDAP,
000028:                                                                                                  #        TVCEXECUTIVE, ROLLDAP, TVCINIT4, TVCDAPON, AND CSM/.M V46 SWTCHOVR.
000029:                                                                                                  #       *TVC RESTARTS DESERVE SPECIAL CONSIDERATION IN SEVERAL AREAS.
000030:                                                                                                  #        RESTART DOWN-TIME IS IMPORTANT BECAUSE OF THE TRANSIENTS INTRODUCED
000031:                                                                                                  #        BY THE THRUST VECTOR RETURN TO THE ACTUATOR MECHANICAL NULLS
000032:                                                                                                  #        FOLLOWING TVC- AND OPTICS-ERROR-COUNTER-DISENABLES (CHANNEL 12).
000033:                                                                                                  #        TVC    USES A MIXTURE OF WAITLIST, T5, T6, AND JOB CALLS. THERE IS
000034:                                                                                                  #        FILTER MEMORY (UP TO 6TH ORDER) TO BE PROTECTED IF WILD TRANSIENTS
000035:                                                                                                  #        ARE TO BE AVOIDED. COUNTERS ARE INVOLVED FOR ONE-SHOT
000036:                                                                                                  #        CORRECTIONS AND GAIN UPDATES. THE GIMBAL TRIM ESTIMATORS AND THE
000037:                                                                                                  #        BODY AXIS ATTITUDE ERROR INTEGRATORS INVOLVE DIGITAL SUMMATION.
000038:                                                                                                  #        DIGITAL DIFFERENTIATORS ARE INVOLVED IN THE BODY AXIS RATE ESTIMA-
000039:                                                                                                  #        TIONS AND IN THE OUTPUTTING OF ACTUATOR COMMANDS. THERE IS AN
000040:                                                                                                  #        OFFSET-TRACKER-FILTER TO PROTECT. ETC., ETC.
000041:                                                                                                  #       *THOSE QUANTITIES WHICH MUST BE PROTECTED ARE STORED IN TEMPORARY
000042:                                                                                                  #        REGISTERS AS THEY ARE COMPUTED, FOR UPDATING THE REAL REGISTERS
000043:                                                                                                  #        DURING COPYCYCLES.
000044:                                                                                                  #       *THE SEVERAL COPYCYCLES ARE EACH PROTECTED BY PHASE POINTS AT THEIR
000045:                                                                                                  #        BEGINNING AND AT THEIR TERMINATION. THE PHASE POINTS ARE SIMPLY
000046:                                                                                                  #        ..INCR.. INSTRUCTIONS, EITHER ..INCR TVCEXPHS.. FOR COPYCYCLES
000047:                                                                                                  #        IN THE TVCEXECUTIVE, OR ..INCR TVCPHASE.. FOR THE PITCH AND YAW
000048:                                                                                                  #        COPYCYCLES. INDEXING ON EACH OF THESE POINTERS THEN PERMITS A
000049:                                                                                                  #        RETURN TO THE APPROPRIATE RESTART POINTS.
000050:                                                                                                  #       *IF A RESTART OCCURS DURING EITHER COPYCYCLE, THAT COPYCYCLE IS
000051:                                                                                                  #        COMPLETED. THEN THE NORMAL TVCINIT4....DAPINIT....PITCHDAP STARTUP
000052:                                                                                                  #        SEQUENCE IS CALLED UPON TO GET THINGS GOING AGAIN.
000053:                                                                                                  #       *TVC-ENABLE AND OPTICS-ERROR-COUNTER ENABLE MUST BE SET ASAP
000054:                                                                                                  #        (ALLOWING FOR PROCEDURAL DELAYS). THEN THE ENGINES ARE COMMANDED
000055:                                                                                                  #        TO THE P,YACTOFF TRIM VALUES. THE DAPS ARE THEN READY TO GO ON THE
000056:                                                                                                  #        AIR, WITH THE REGULAR STARTUP SEQUENCE, EITHER AT MRCLEAN FOR A
000057:                                                                                                  #        COMPLETE INITIALIZATION OR AT TVCINIT4 FOR A PARTIAL INITIALIZATION
000058:                                                                                                  #       *FOR RESTARTS PRIOR TO THE SETTING OF THE T5 BITS AT DOTVCON THE
000059:                                                                                                  #        PRE40.6 SECTION OF S40.6 TAKES CARE OF RE-ESTABLISHING TRIMS.
000060:                                                                                                  #       *IF A RESTART OCCURS DURING THE TVCEXEC....TVCEXFIN SEQUENCE THE
000061:                                                                                                  #        COMPUTATIONS WILL BE COMPLETED, STARTING AT THE APPROPRIATE RESTART
000062:                                                                                                  #        POINT, AFTER THE DAPS ARE READY TO GO ON THE AIR.
000063:                                                                                                  #       *IF A RESTART OCCURS PRIOR TO TVCINIT4 (TVCPHASE = -1) E.G. DURING
000064:                                                                                                  #        THE EARLY DAP INITIALIZATION PHASE, THE DAP STARTUP SEQUENCE IS
000065:                                                                                                  #        ENTERED AT MRCLEAN FOR A FULL INITIALIZATION.
000066:                                                                                                  #       *FOR RESTARTS DURING CSM/LM V46 SWITCH-OVER, TVCPHASE IS SET TO -2.
000067:                                                                                                  #        AND THE RESTART LOGIC GOES BACK TO REDO SWITCH-OVER (AFTER THE
000068:                                                                                                  #        NORMAL DAP RESTART SEQUENCE IS FOLLOWED).
000069:                                                                                                  #       *RESTARTS ARE NOT CRITICAL TO THE ROLL DAP PERFORMANCES HENCE THE
000070:                                                                                                  #        THE ROLL DAP IS MERELY RESTARTED.


000072:                                                                                                  #       *REDOTVC IS REACHED FOLLOWING ANY RESTART WHICH FINDS THE T5 BITS
000073:                                                                                                  #        (BITS 15,14 OF FLAGWRD6) SET FOR TVC. DOTVCON SETS TVCPHASE = -1
000074:                                                                                                  #        AND TVC EXPHS = 0 JUST BEFORE SETTING THESE BITS, JUST BEFORE
000075:                                                                                                  #        MAKING THE T5 CALL TO TVCDAPON. ON A NORMAL SHUTDOWN DOTVCRCS
000076:                                                                                                  #        CALLS RCSDAPON, WHICH RESETS THE T5 BITS FOR RCS.
000077:                                                                                                  #  CALLING SEQUENCE....T5, IN PARTICULAR BY ELRSKIP OF FRESH START/RESTART
000078:
000079:                                                                                                  #  NORMAL EXIT MODES....RESUME, NOQRSM, POSTJUMP (TO TVCINIT4 OR MRCLEAN)
000080:
000081:                                                                                                  #  ALARM OR ABORT EXIT MODES....NONE
000082:
000083:                                                                                                  #  SUBROUTINES CALLED....
000084:
000085:                                                                                                  #       *PCOPY+1, YCOPY+1 (PITCH AND YAW COPYCYCLES)
000086:                                                                                                  #       *ENABLE1,2, CMDSOUT (RE-ESTABLISH ACTUATOR TRIMS)
000087:                                                                                                  #       *MRCLEAN OR TVCINIT4 (TVCDAP INITIALIZATIONS)
000088:                                                                                                  #       *SWICHOVR +5  (CSM/LM V46 SWITCH-OVER)
000089:                                                                                                  #       *EXRSTRT AND TVCEXECUTIVE PHASE POINTS 1 THRU 6
000090:                                                                                                  #       *WAITLIST, IBNKCALL, POSTJUMP, ISWCALL
000091:
000092:                                                                                                  #  OTHER INTERFACES....DOTVCON AND RCSDAPON (T5 BITS), ELRSKIP (CALLS IT)
000093:                                                                                                  #  ERASABLE INITIALIZATION REQUIRED....
000094:
000095:                                                                                                  #       *T5 BITS (1,0), TVCPHASE (-2,-1,0,1,2,3), TVCEXPHS (1 THRU 6)
000096:                                                                                                  #       *TVC DAP VARIABLES
000097:                                                                                                  #       *OPERATIONS PERFORMED BY REDOTVC ARE BASED ON THE ASSUMPTION THAT
000098:                                                                                                  #        THE TVC DAPS ARE RUNNING NORMALLY
000099:
000100:                                                                                                  #  OUTPUT....
000101:
000102:                                                                                                  #       *PITCH AND YAW TVC DAP COPYCYCLES COMPLETED IF INTERUPTED
000103:                                                                                                  #       *TVCEXECUTIVE COMPLETED IF INTERUPTED
000104:                                                                                                  #       *CSM/LM V46 SWITCH-OVER REPEATED IF INTERRUPTED
000105:                                                                                                  #       *ACTUATOR TRIMS RE-ESTABLISHED (ACTUATORS BACK ON THE AIR)
000106:                                                                                                  #       *TVC DAP INITIALIZATION AS REQUIRED
000107:                                                                                                  #       *ALL TVC DAP OPERATIONS ON THE AIR
000108:
000109:                                                                                                  #  DEBRIS....TVC TEMPORARIES IN EBANK6
000110:


000112: 16,2000                                           SETLOC   DAPROLL
000113: 16,2000                                           BANK
000114: 16,3222  E6,1635                                  EBANK=   TVCPHASE
000115: 16,3222                                           COUNT*   $$/RSRT
000116:
000117: 16,3222           22016        REDOTVC            LXCH     BANKRUPT                              #  TVC RESTART PACKAGE
000118: 16,3223           00006                           EXTEND
000119: 16,3224           22012                           QXCH     QRUPT                                 #  (  ..TCR..  IN  ..FINCOPY..  )
000120:
000121: 16,3225           11644        EXECPHS            CCS      TVCEXPHS                              #  CHECK TVCEXECUTIVE PHASE
000122: 16,3226           13230                           TCF      +2                                    #        MUST RESTART TVCEXECUTIVE
000123: 16,3227           13233                           TCF      TVCDAPHS                              #        NO NEED TO RESTART TVCEXECUTIVE
000124:
000125: 16,3230           34322                           CAF      NINE                                  #  9CS DELAY TO FORCE EXRSTRT TO OCCUR
000126: 16,3231           05223                           TC       TWIDDLE                               #        BEFORE PITCHDAP, AFTER CMDSOUT
000127: 16,3232           03325                           ADRES    EXRSTRT
000128: 16,3233           47663        TVCDAPHS           CS       OCT37776                              #  CHECK BITS 15 AND 1 OF TVCPHASE TO SEE
000129: 16,3234           71635                           MASK     TVCPHASE                              #        DAP RESTART LOCATION (-1,1,2,3)
000130: 16,3235           10000                           CCS      A
000131: 16,3236           13315                           TCF      FINCOPY                               #        FINISH THE COPYCYCLE FIRST
000132: 16,3237           13244                           TCF      ENABL1                                #        JUST PREPARE THE OUTCOUNTERS AND GO
000133:
000134: 16,3240           41635                           CS       TVCPHASE                              #  TEST FOR TVCPHASE = -2
000135: 16,3241           74767                           MASK     BIT2                                  #        (THIS INDICATES RESTART OCCURRED
000136: 16,3242           00006                           EXTEND                                         #        DURING CSM/LM V46 SWITCH-OVER)
000137: 16,3243           13321                           BZF      TRIM/CMD                              #  NO, TVCPHASE = -1, RSTRT WAS IN TVCINIT
000138:
000139: 16,3244           34761        ENABL1             CAF      BIT8                                  #  TVC ENABLE, FOLLOWED BY 40 MS (MIN) WAIT
000140: 16,3245           64756                           AD       BIT11                                 #  SET BIT FOR OPTICS-DAC-ENABLE ALSO
000141: 16,3246           00006                           EXTEND                                         #  (ENABL1 ENTERED FROM TVCDAPHS / FINCOPY)
000142: 16,3247           05012                           WOR      CHAN12
000143: 16,3250           33331                           CAF      TVCADDR                               #  WAIT,  CALLING ENABL2  (BBCON THERE)
000144: 16,3251           54112                           TS       T5LOC
000145: 16,3252           33335                           CAF      TVCADDR    +4                         #        60 MS  (TVCEXADR)
000146: 16,3253           54030                           TS       TIME5
000147:
000148: 16,3254           15323                           TCF      RESUME
000149:
000150: 16,3255           22016        ENABL2             LXCH     BANKRUPT                              #  CONTINUE PREPARATION OF OUTCOUNTERS
000151:
000152: 16,3256           34767                           CAF      BIT2                                  #  OPTICS ERROR CNTR ENABLE, 4MS MIN WAIT
000153: 16,3257           00006                           EXTEND
000154: 16,3260           05012                           WOR      CHAN12
000155: 16,3261           33333                           CAF      TVCADDR    +2                         #  WAIT, CALLING CMDSOUT (BBCON THERE)
000156: 16,3262           54112                           TS       T5LOC
000157: 16,3263           37663                           CAF      OCT37776                              #        20MS
000158: 16,3264           54030                           TS       TIME5


000160: 16,3265           15325                           TCF      NOQRSM
000161:
000162: 16,3266           22016        CMDSOUT            LXCH     BANKRUPT                              #  CONTINUE PREPARATION OF OUTCOUNTERS
000163: 16,3267           00006                           EXTEND
000164: 16,3270           22012                           QXCH     QRUPT
000165:
000166: 16,3271           44772                           CS       ZERO                                  #  MOST RECENT ACTUATOR COMMANDS
000167: 16,3272           61623                           AD       PCMD                                  #        (AVOID +0)
000168: 16,3273           54054                           TS       TVCPITCH
000169: 16,3274           44772                           CS       ZERO
000170: 16,3275           61624                           AD       YCMD
000171: 16,3276           54053                           TS       TVCYAW
000172:
000173: 16,3277           35050                           CAF      PRIO6                                 #  RELEASE THE COUNTERS (BITS 11,12)
000174: 16,3300           00006                           EXTEND
000175: 16,3301           05014                           WOR      CHAN14
000176:
000177: 16,3302           11635        PHSCHK2            CCS      TVCPHASE                              #  CHECK TVCPHASE AGAIN
000178: 16,3303           13313                           TCF      JUMPTVC4
000179: 16,3304           13313                           TCF      JUMPTVC4
000180: 16,3305           10000                           CCS      A                                     #  A CONTAINS THE DIMINISHED ABSOLUTE OF
000181: 16,3306           03311                           TC       +3                                    #  TVCPHASE (-2 BECOMES +1. -1 BECOMES +0)
000182:
000183: 16,3307           04655                           TC       POSTJUMP                              #        REPEAT TVC INITIALIZATION
000184: 16,3310           36166                           CADR     MRCLEAN                               #        (DO NOT RETURN)
000185:
000186: 16,3311           04714                 +3        TC       IBNKCALL                              #        REPEAT CSM/LM V46 SWITCH-OVER
000187: 16,3312           36351                           CADR     SWICHOVR   +5                         #        (RETURN TO CHECK FOR STROKE TEST)
000188:
000189: 16,3313           04655        JUMPTVC4           TC       POSTJUMP                              #        IF POSITIVE OR ZERO, RESTART AT
000190: 16,3314           36326                           CADR     TVCINIT4                              #                TVCINIT4 (ZEROS TVCPHASE, AND
000191:                                                                                                  #                CALLS TVC DAPS VIA DAPINIT)
000192: 16,3315           51635        FINCOPY            INDEX    TVCPHASE                              #  PICK UP THE APPROPRIATE COPYCYCLE
000193: 16,3316           33331                           CAF      TVCCADR
000194: 16,3317           04720                           TCR      ISWCALL                               #  RE-ENTER THE COPYCYCLE, RETURN AT END
000195: 16,3320           13244                           TCF      ENABL1                                #  NOW PREPARE THE OUTCOUNTERS
000196:
000197:
000198: 16,3321           00006        TRIM/CMD           EXTEND                                         #  TVCDAPON INITIALIZATION NOT COMPLETED,
000199: 16,3322           31424                           DCA      PACTOFF                               #        EG.  P,YCMD MAY NOT BE SET.  SET...
000200: 16,3323           53624                           DXCH     PCMD
000201: 16,3324           13244                           TCF      ENABL1                                #  NOW PREPARE THE OUTCOUNTERS
000202:
000203:
000204: 16,3325           51644        EXRSTRT            INDEX    TVCEXPHS                              #  TVCEXECUTIVE RESTARTS....GO TO
000205: 16,3326           33335                           CAF      TVCEXADR                              #        APPROPRIATE RESTART POINT
000206: 16,3327           50000                           INDEX    A
000207: 16,3330           10000                           TCF      0
000208:


000210:
000211:                                                                                                  #  TVC RESTART TABLES.... ORDER IS REQUIRED.   HI-ORDER WORDS ONLY, OF 2CADRS, SINCE BBCON IS ALREADY THERE.
000212:
000213: 16,3331  16,3331               TVCADDR            =        TVCCADR                               #  TABLE OF CADRS, UNUSED LOCS FOR GENADRS
000214: 16,3331           03255        TVCCADR            GENADR   ENABL2                                #  (FOR T5 CALL, UNUSED TABLE LOC)
000215: 16,3332           41005                 +1        CADR     PCOPY      +1                         #  PITCH COPYCYCLE
000216: 16,3333           03266                 +2        GENADR   CMDSOUT                               #  (FOR T5 CALL, UNUSED TABLE LOC)
000217: 16,3334           41171                 +3        CADR     YCOPY      +1                         #  YAW COPYCYCLE
000218: 16,3335           37772        TVCEXADR           OCT      37772                                 #  (UNUSED TABLE LOC, FILL WITH 60MS, T5)
000219: 16,3336           03123                 +1        GENADR   TEMPSET                               #  TVCEXECUTIVE RESTART POINTS (ORDERED)
000220: 16,3337           03126                 +2        GENADR   CORSETUP
000221: 16,3340           03204                 +3        GENADR   CORCOPY    +1
000222: 16,3341           03215                 +4        GENADR   CNTRCOPY

End of include-file TVCRESTARTS.agc.  Parent file is MAIN.agc


