
Source Code


000002:                                                                                                  ## Copyright:   Public domain.
000003:                                                                                                  ## Filename:    ALARM_AND_ABORT.agc
000004:                                                                                                  ## Purpose:     A section of Comanche revision 072.
000005:                                                                                                  ##              It is part of the reconstructed source code for the first
000006:                                                                                                  ##              release of the software for the Command Module's (CM) Apollo
000007:                                                                                                  ##              Guidance Computer (AGC) for Apollo 13. No original listings
000008:                                                                                                  ##              of this program are available; instead, this file was recreated
000009:                                                                                                  ##              from a printout of Comanche 055, binary dumps of a set of
000010:                                                                                                  ##              Comanche 067 rope modules, and changelogs between Comanche 067
000011:                                                                                                  ##              and 072. It has been adapted such that the resulting bugger words
000012:                                                                                                  ##              exactly match those specified for Comanche 072 in NASA drawing
000013:                                                                                                  ##              2021153G, which gives relatively high confidence that the
000014:                                                                                                  ##              reconstruction is correct.
000015:                                                                                                  ## Assembler:   yaYUL
000016:                                                                                                  ## Contact:     Ron Burkey <info@sandroid.org>.
000017:                                                                                                  ## Website:     www.ibiblio.org/apollo/index.html
000018:                                                                                                  ## Mod history: 2024-05-13 MAS  Created from Comanche 067.
000019:
000020:                                                                                                  #  THE FOLLOWING SUBROUTINE MAY BE CALLED TO DISPLAY A NON-ABORTIVE ALARM CONDITION.  IT MAY BE CALLED
000021:                                                                                                  #  EITHER IN INTERRUPT OR UNDER EXECUTIVE CONTROL.
000022:
000023:                                                                                                  #  CALLING SEQUENCE IS AS FOLLOWS:
000024:                                                                                                  #                TC      ALARM
000025:                                                                                                  #                OCT     NNNNN
000026:                                                                                                  #                                        (RETURNS HERE)
000027:
000028:    5664                                           BLOCK    02
000029:    4000                                           SETLOC   FFTAG7
000030:    4000                                           BANK
000031:
000032:    5664     0374                                  EBANK=   FAILREG
000033:
000034:    5664                                           COUNT    02/ALARM
000035:
000036:                                                                                                  #  ALARM TURNS ON THE PROGRAM ALARM LIGHT, BUT DOES NOT DISPLAY.
000037:
000038:    5664           00004        ALARM              INHINT
000039:
000040:    5665           30002                           CA       Q
000041:    5666           55363        ALARM2             TS       ALMCADR
000042:    5667           50002                           INDEX    Q
000043:    5670           30000                           CA       0
000044:    5671           54001        BORTENT            TS       L
000045:
000046:    5672           30006        PRIOENT            CA       BBANK
000047:    5673           00006                 +1        EXTEND
000048:    5674           04007                           ROR      SUPERBNK                              #  ADD SUPER BITS.
000049:    5675           55364                           TS       ALMCADR    +1
000050:
000051:    5676           30002        LARMENT            CA       Q                                     #  STORE RETURN FOR ALARM
000052:    5677           54061                           TS       ITEMP1
000053:
000054:    5700           30164                           CA       LOC
000055:    5701           54057                           TS       LOCALARM
000056:    5702           30165                           CA       BANKSET
000057:    5703           54060                           TS       BANKALRM
000058:
000059:    5704           10374        CHKFAIL1           CCS      FAILREG                               #  IS ANYTHING IN FAILREG
000060:    5705           15711                           TCF      CHKFAIL2                              #  YES TRY NEXT REG
000061:    5706           30001                           CA       L
000062:    5707           54374                           TS       FAILREG
000063:    5710           15715                           TCF      PROGLARM                              #  TURN ALARM LIGHT ON FOR FIRST ALARM
000064:
000065:    5711           10375        CHKFAIL2           CCS      FAILREG    +1
000066:    5712           15715                           TCF      PROGLARM
000067:    5713           30001                           CA       L
000068:    5714           54375                           TS       FAILREG    +1
000069:
000070:    5715           22376        PROGLARM           LXCH     FAILREG    +2                         #  STORE AS "MOST RECENT" ALARM CODE
000071:
000072:    5716           41036                           CS       DSPTAB     +11D                       #  TURN ON PROGRAM ALARM IF OFF
000073:    5717           77765                           MASK     OCT40400
000074:    5720           27036                           ADS      DSPTAB     +11D
000075:
000076:    5721           56061        MULTEXIT           XCH      ITEMP1                                #  OBTAIN RETURN ADDRESS IN A
000077:    5722           00003                           RELINT
000078:    5723           50000                           INDEX    A
000079:    5724           00001                           TC       1
000080:
000081:                                                                                                  #  PRIOLARM DISPLAYS V05N09 VIA PRIODSPR WITH 3 RETURNS TO THE USER FROM THE ASTRONAUT AT CALL LOC +1,+2,+3 AND
000082:                                                                                                  #  AN IMMEDIATE RETURN TO THE USER AT CALL LOC +4.  EXAMPLE FOLLOWS,
000083:                                                                                                  #                CAF     OCTXX           ALARM CODE
000084:                                                                                                  #                TC      BANKCALL
000085:                                                                                                  #                CADR    PRIOLARM
000086:
000087:                                                                                                  #                ...     ...
000088:                                                                                                  #                ...     ...
000089:                                                                                                  #                ...     ...             ASTRONAUT RETURN
000090:                                                                                                  #                TC      PHASCHNG        IMMEDIATE RETURN TO USER.  RESTART
000091:                                                                                                  #                OCT     X.1             PHASE CHANGE FOR PRIO DISPLAY
000092:
000093: 10,3766                                           BANK     10
000094: 10,2000                                           SETLOC   DISPLAYS
000095: 10,2000                                           BANK
000096:
000097: 10,3766                                           COUNT    10/DSPLA
000098: 10,3766           00004        PRIOLARM           INHINT                                         #  * * * KEEP IN DISPLAY ROUTINES BANK
000099: 10,3767           54001                           TS       L                                     #  SAVE ALARM CODE
000100:
000101: 10,3770           30133                           CA       BUF2                                  #  2 CADR OF PRIOLARM USER
000102: 10,3771           55363                           TS       ALMCADR
000103: 10,3772           30134                           CA       BUF2       +1
000104: 10,3773           05673                           TC       PRIOENT    +1                         #  * LEAVE L ALONE
000105: 10,3774           77467        -2SEC              DEC      -200       B-14                       #  *** DONT MOVE
000106: 10,3775           35064                           CAF      V05N09
000107: 10,3776           12726                           TCF      PRIODSPR
000108:
000109:
000110:    5725                                           BLOCK    02
000111:    6000                                           SETLOC   FFTAG13
000112:    6000                                           BANK
000113:
000114:    7755                                           COUNT    02/ALARM
000115:
000116:    7755           00004        BAILOUT            INHINT
000117:    7756           30002                           CA       Q
000118:    7757           55363                           TS       ALMCADR
000119:
000120:    7760           04676                           TC       BANKCALL
000121:    7761           40000                           CADR     VAC5STOR
000122:
000123:    7762           51363                           INDEX    ALMCADR
000124:    7763           30000                           CAF      0
000125:    7764           05671                           TC       BORTENT
000126:    7765           40400        OCT40400           OCT      40400
000127:
000128:    7766           00004                           INHINT
000129:    7767           35032        WHIMPER            CA       TWO
000130:    7770           60005                           AD       Z
000131:    7771           54017                           TS       BRUPT
000132:    7772           50017                           RESUME
000133:    7773           04715                           TC       POSTJUMP                              #  RESUME SENDS CONTROL HERE
000134:    7774           12651                           CADR     ENEMA
000135:
000136:    4000                                           SETLOC   FFTAG7
000137:    4000                                           BANK
000138:
000139:    5725           00004        POODOO             INHINT
000140:    5726           30002                           CA       Q
000141:    5727           55363                           TS       ALMCADR
000142:
000143:    5730           04676                           TC       BANKCALL
000144:    5731           40000                           CADR     VAC5STOR                              #  STORE ERASABLES FOR DEBUGGING PURPOSES.
000145:
000146:    5732           51363                           INDEX    ALMCADR
000147:    5733           30000                           CAF      0
000148:    5734           05671        ABORT2             TC       BORTENT
000149:    5735           77770        OCT77770           OCT      77770                                 #  DONT MOVE
000150:    5736           35026                           CA       V37FLBIT                              #  IS AVERAGE G ON
000151:    5737           70103                           MASK     FLAGWRD7
000152:    5740           10000                           CCS      A
000153:    5741           07766                           TC       WHIMPER    -1                         #  YES.  DONT DO POODOO.  DO BAILOUT.
000154:
000155:    5742           05574                           TC       DOWNFLAG
000156:    5743           00067                           ADRES    STATEFLG
000157:
000158:    5744           05574                           TC       DOWNFLAG
000159:
000160:    5745           00236                           ADRES    REINTFLG
000161:
000162:    5746           05574                           TC       DOWNFLAG
000163:    5747           00054                           ADRES    NODOFLAG
000164:
000165:    5750           04676                           TC       BANKCALL
000166:    5751           12501                           CADR     MR.KLEAN
000167:    5752           07767                           TC       WHIMPER
000168:
000169:    5753           00004        CCSHOLE            INHINT
000170:    5754           30002                           CA       Q
000171:    5755           55363                           TS       ALMCADR
000172:    5756           04676                           TC       BANKCALL
000173:    5757           40000                           CADR     VAC5STOR
000174:    5760           35762                           CA       OCT21103
000175:    5761           05734                           TC       ABORT2
000176:    5762           21103        OCT21103           OCT      21103
000177:    5763           00004        CURTAINS           INHINT
000178:    5764           30002                           CA       Q
000179:    5765           05666                           TC       ALARM2
000180:    5766           00217        OCT217             OCT      00217
000181:    5767           01363                           TC       ALMCADR                               #  RETURN TO USER
000182:
000183:    5770     5233               DOALARM            EQUALS   ENDOFJOB
000184:
000185:                                                                                                  #  CALLING SEQUENCE FOR VARALARM
000186:
000187:                                                                                                  #                CAF     (ALARM)
000188:                                                                                                  #                TC      VARALARM
000189:
000190:                                                                                                  #  VARALARM TURNS ON PROGRAM ALARM LIGHT BUT DOES NOT DISPLAY
000191:
000192:    5770           00004        VARALARM           INHINT
000193:
000194:    5771           54001                           TS       L                                     #  SAVE USERS ALARM CODE
000195:
000196:    5772           30002                           CA       Q                                     #  SAVE USERS Q
000197:    5773           55363                           TS       ALMCADR
000198:
000199:    5774           05672                           TC       PRIOENT
000200:    5775           00014        OCT14              OCT      14                                    #  DONT MOVE
000201:
000202:    5776           01363                           TC       ALMCADR                               #  RETURN TO USER
000203:
000204:    5777     7755               ABORT              EQUALS   BAILOUT                               #  *** TEMPORARY UNTIL ABORT CALLS OUT

End of include-file ALARM_AND_ABORT.agc.  Parent file is MAIN.agc


