
Source Code


000002:                                                                                                  ## Copyright:   Public domain.
000003:                                                                                                  ## Filename:    AUTOMATIC_MANEUVERS.agc
000004:                                                                                                  ## Purpose:     A section of Comanche revision 072.
000005:                                                                                                  ##              It is part of the reconstructed source code for the first
000006:                                                                                                  ##              release of the software for the Command Module's (CM) Apollo
000007:                                                                                                  ##              Guidance Computer (AGC) for Apollo 13. No original listings
000008:                                                                                                  ##              of this program are available; instead, this file was recreated
000009:                                                                                                  ##              from a printout of Comanche 055, binary dumps of a set of
000010:                                                                                                  ##              Comanche 067 rope modules, and changelogs between Comanche 067
000011:                                                                                                  ##              and 072. It has been adapted such that the resulting bugger words
000012:                                                                                                  ##              exactly match those specified for Comanche 072 in NASA drawing
000013:                                                                                                  ##              2021153G, which gives relatively high confidence that the
000014:                                                                                                  ##              reconstruction is correct.
000015:                                                                                                  ## Assembler:   yaYUL
000016:                                                                                                  ## Contact:     Ron Burkey <info@sandroid.org>.
000017:                                                                                                  ## Website:     www.ibiblio.org/apollo/index.html
000018:                                                                                                  ## Mod history: 2024-05-13 MAS  Created from Comanche 067.
000019:
000020: 21,3262                                           BANK     21
000021: 21,2000                                           SETLOC   DAPS3
000022: 21,2000                                           BANK
000023:
000024: 21,3262                                           COUNT    21/DAPAM
000025:
000026: 21,3262  E6,1510                                  EBANK=   KMPAC
000027: 21,3262           00006        AHFNOROT           EXTEND
000028: 21,3263           00031                           READ     CHAN31
000029: 21,3264           75016                           MASK     BIT14
000030: 21,3265           00006                           EXTEND
000031: 21,3266           63304                           BZMF     FREECONT
000032: 21,3267           31501                           CA       RCSFLAGS                              #  SEE IF RATE FILTER HAS BEEN INITIALIZED
000033: 21,3270           75016                           MASK     BIT14
000034: 21,3271           10000                           CCS      A                                     #  IF SO, PROCEED WITH ATTITUDE CONTROL
000035: 21,3272           12546                           TCF      REINIT                                #  IF NOT, RECYCLE TO INITIALIZE FILTER
000036:                                                                                                  #  AUTOMATIC CONTROL YET
000037: 21,3273           00006                           EXTEND
000038: 21,3274           00031                           READ     CHAN31
000039: 21,3275           75017                           MASK     BIT13
000040: 21,3276           00006                           EXTEND
000041: 21,3277           63404                           BZMF     HOLDFUNC
000042:
000043: 21,3300           31332        AUTOCONT           CA       HOLDFLAG                              #  IF HOLDFLAG IS +, GO TO GRABANG.
000044: 21,3301           00006                           EXTEND                                         #  OTHERWISE, GO TO ATTHOLD.
000045: 21,3302           63334                           BZMF     ATTHOLD
000046: 21,3303           13410                           TCF      GRABANG
000047:
000048:                                                                                                  #  MINIMUM IMPULSE CONTROL
000049:
000050: 21,3304           35033        FREECONT           CAF      ONE
000051: 21,3305           55332                           TS       HOLDFLAG                              #  RESET HOLDFLAG
000052:                                                                                                  #  INHIBIT AUTOMATIC STEERING
000053: 21,3306           00006                           EXTEND
000054: 21,3307           00032                           READ     CHAN32
000055: 21,3310           54001                           TS       L
000056: 21,3311           40000                           COM
000057: 21,3312           73050                           MASK     MANROT
000058: 21,3313           71633                           MASK     CHANTEMP
000059: 21,3314           23633                           LXCH     CHANTEMP
000060: 21,3315           03142                           TC       STICKCHK
000061: 21,3316           51656                           INDEX    RMANNDX
000062: 21,3317           33330                           CA       MINTAU                                #  MINTAU        +0
000063: 21,3320           55561                           TS       TAU                                   #                +1      +14MS MINIMUM IMPULSE
000064: 21,3321           51657                           INDEX    PMANNDX                               #                +2      -14MS TIME
000065: 21,3322           33330                           CA       MINTAU                                #                +3      +0
000066: 21,3323           55562                           TS       TAU1
000067: 21,3324           51660                           INDEX    YMANNDX
000068: 21,3325           33330                           CA       MINTAU
000069: 21,3326           55563                           TS       TAU2
000070: 21,3327           13101                           TCF      T6PROGM
000071:
000072: 21,3330           00000        MINTAU             DEC      0          B-14
000073: 21,3331           00027                           DEC      23         B-14                       #  = 14MS
000074: 21,3332           77750                           DEC      -23        B-14                       #  = -14MS
000075: 21,3333           00000                           DEC      0          B-14
000076:
000077:                                                                                                  #  CALCULATION OF ATTITUDE ERRORS-
000078:                                                                                                  #        -    *     -      -          -
000079:                                                                                                  #        AK = AMGB (CDUX - THETADX) + BIAS
000080:
000081:                                                                                                  #  IE    *AK *   * 1        SIN(PSI)        0    ** CDUX - THETADX *    *BIAS *
000082:                                                                                                  #        *   *   *                               **                *    *     *
000083:                                                                                                  #        *AK1* = * 0   COS(PSI)COS(PHI)  SIN(PHI)** CDUY - THETADY *  + *BIAS1*
000084:                                                                                                  #        *   *   *                               **                *    *     *
000085:                                                                                                  #        *AK2*   * 0  -COS(PSI)SIN(PHI)  COS(PHI)** CDUZ - THETADZ *    *BIAS2*
000086:
000087:                                                                                                  #  THE BIASES ARE ADDED ONLY WHILE PERFORMING AUTOMATIC MANEUVERS (ESP KALCMANU) TO PROVIDE ADDITIONAL LEAD
000088:                                                                                                  #  AND PREVENT OVERSHOOT WHEN STARTING AN AUTOMATIC MANEUVER.  NORMALLY THE REQUIRED LEAD IS ONLY 1-2 DEGREES.
000089:                                                                                                  #  BUT DURING HIGH RATE MANEUVERS IT CAN BE AS MUCH AS 7 DEGREES.  THE BIASES ARE COMPUTED BY KALCMANU AND REMAIN
000090:                                                                                                  #  FIXED UNTIL THE MANEUVER IS COMPLETED AT WHICH TIME THEY ARE RESET TO ZERO.
000091:
000092: 21,3334           30032        ATTHOLD            CA       CDUX
000093: 21,3335           00006                           EXTEND
000094: 21,3336           21572                           MSU      THETADX
000095: 21,3337           55567                           TS       ERRORX
000096: 21,3340           30033                           CA       CDUY
000097: 21,3341           00006                           EXTEND
000098: 21,3342           21573                           MSU      THETADY
000099: 21,3343           55502                           TS       T5TEMP
000100: 21,3344           00006                           EXTEND
000101: 21,3345           71640                           MP       AMGB1
000102: 21,3346           27567                           ADS      ERRORX
000103: 21,3347           31502                           CA       T5TEMP
000104: 21,3350           00006                           EXTEND
000105: 21,3351           71641                           MP       AMGB4
000106: 21,3352           55570                           TS       ERRORY
000107: 21,3353           31502                           CA       T5TEMP
000108: 21,3354           00006                           EXTEND
000109: 21,3355           71643                           MP       AMGB7
000110: 21,3356           55571                           TS       ERRORZ
000111: 21,3357           30034                           CA       CDUZ
000112: 21,3360           00006                           EXTEND
000113: 21,3361           21574                           MSU      THETADZ
000114: 21,3362           55502                           TS       T5TEMP
000115: 21,3363           00006                           EXTEND
000116: 21,3364           71642                           MP       AMGB5
000117: 21,3365           27570                           ADS      ERRORY
000118: 21,3366           31502                           CA       T5TEMP
000119: 21,3367           00006                           EXTEND
000120: 21,3370           71644                           MP       AMGB8
000121: 21,3371           27571                           ADS      ERRORZ
000122: 21,3372           41332                           CS       HOLDFLAG
000123: 21,3373           00006                           EXTEND
000124: 21,3374           63453                           BZMF     JETS
000125: 21,3375           31564                           CA       BIAS                                  #  AD BIASES ONLY IF PERFORMING AUTOMATIC
000126: 21,3376           27567                           ADS      ERRORX
000127: 21,3377           31565                           CA       BIAS1
000128: 21,3400           27570                           ADS      ERRORY
000129: 21,3401           31566                           CA       BIAS2
000130: 21,3402           27571                           ADS      ERRORZ
000131: 21,3403           13453                           TCF      JETS
000132:
000133: 21,3404           11332        HOLDFUNC           CCS      HOLDFLAG
000134: 21,3405           13410                           TCF      +3
000135: 21,3406           13334                           TCF      ATTHOLD
000136: 21,3407           13410                           TCF      +1
000137: 21,3410           35035        GRABANG            CAF      ZERO                                  #  ZERO WBODYS AND BIASES
000138: 21,3411           55525                           TS       WBODY
000139: 21,3412           55526                           TS       WBODY      +1
000140: 21,3413           55527                           TS       WBODY1
000141: 21,3414           55530                           TS       WBODY1     +1
000142: 21,3415           55531                           TS       WBODY2
000143: 21,3416           55532                           TS       WBODY2     +1
000144: 21,3417           55564                           TS       BIAS
000145: 21,3420           55565                           TS       BIAS1
000146: 21,3421           55566                           TS       BIAS2
000147:
000148: 21,3422           31501                           CA       RCSFLAGS
000149: 21,3423           73051                           MASK     OCT16000
000150: 21,3424           00006                           EXTEND                                         #  IS RATE DAMPING COMPLETED
000151: 21,3425           13433                           BZF      ENDDAMP                               #  IF SO, GO TO ENDDAMP
000152: 21,3426           35035                           CAF      ZERO                                  #  OTHERWISE, ZERO ERRORS
000153: 21,3427           55567                           TS       ERRORX
000154: 21,3430           55570                           TS       ERRORY
000155: 21,3431           55571                           TS       ERRORZ
000156: 21,3432           13453                           TCF      JETS
000157:
000158: 21,3433           55332        ENDDAMP            TS       HOLDFLAG                              #  SET HOLDFLAG +0
000159: 21,3434           00006                           EXTEND
000160: 21,3435           30033                           DCA      CDUX                                  #  PICK UP CDU ANGLES FOR ATTITUDE HOLD
000161: 21,3436           53573                           DXCH     THETADX                               #  REFERENCES
000162: 21,3437           30034                           CA       CDUZ
000163: 21,3440           55574                           TS       THETADZ
000164: 21,3441           13334                           TCF      ATTHOLD
000165:
000166:                                                                                                  #  JET SWITCHING LOGIC AND CALCULATION OF REQUIRED ROTATION COMMANDS
000167:
000168:                                                                                                  #  DETERMINE THE LOCATION OF THE RATE ERROR AND THE ATTITUDE ERROR RELATIVE TO THE SWITCHING LOGIC IN THE PHASE
000169:                                                                                                  #  PLANE.
000170:
000171:                                                                                                  #  COMPUTE THE CHANGE IN RATE CORRESPONDING TO THE ATTITUDE ERROR NECESSARY TO DRIVE THE THE S/C INTO THE
000172:                                                                                                  #  APPROPRIATE DEADZONE.
000173:
000174:                                                                                                  #                                      .
000175:                                                                                                  #    R22                          RATE . ERROR
000176:                                                                                                  #         WL+H                         .
000177:                                                                                                  #  *********************************   .                                 ***** SWITCH LINES ENCLOSING DEADZONES
000178:                                                                                                  #    R23  WL                        *  .
000179:                                                                                                  #  --------------------------------- * .                                 ----- DESIRED RATE LINES
000180:                                                                                                  #    R23  WL-H       -                *.
000181:                                                                                                  #  ****************** -                .                                 R20, R21, R22, ETC REGIONS IN PHASE
000182:                                                                                                  #                    * -               .* R18      R20       R21         PLANE FOF COMPUTING DESIRED RESPONSE
000183:                                                                                                  #                     *                . *
000184:                                                                                                  #                      *-              .  *
000185:                                                                                                  #    R22             R24*-    R23      .   *
000186:                                                                                                  #                        *-            .    *
000187:                                                                                                  #                         *            .     *
000188:                                                                                                  #                          + -ADB      .      * AF              ATTITUDE
000189:                                                                                                  #  .........................+--+---------------+--+........................
000190:                                                                                                  #                            AF *      .     +ADB  +             ERROR
000191:                                                                                                  #                                *     .            *
000192:                                                                                                  #                                 *    .            -*
000193:                                                                                                  #                                  *   .             -*
000194:                                                                                                  #                                   *  .              -*
000195:                                                                                                  #                                    * .                *
000196:                                                                                                  #                                     *.               - *
000197:                                                                                                  #                                      .                - *****************
000198:                                                                                                  #                                      .*                -
000199:                                                                                                  #                                      . * --------------------------------
000200:                                                                                                  #                                      .  *
000201:                                                                                                  #                                      .   ********************************
000202:                                                                                                  #                                      .
000203:                                                                                                  #                        FIG. 1  PHASE PLANE SWITCHING LOGIC
000204:
000205:                                                                                                  #  CONSTANTS FOR JET SWITCHING LOGIC
000206:
000207: 21,3442           00114        WLH/SLOP           DEC      .00463                                #  = WL+H/SLOPE = .83333 DEG     $180
000208: 21,3443           00055        WL-H/SLP           DEC      .00277                                #  = WL-H/SLOPE = .5 DEG         $180
000209: 21,3444           00022 06426  WLH                2DEC     .0011111111                            #  = WL+H = 0.5 DEG/SEC          $450
000210:
000211: 21,3446           00012 35415  WLMH               2DEC     .0006666666                            #  = WL-H = 0.3 DEG/SEC          $450
000212:
000213: 21,3450           00016 22021  WL                 2DEC     .0008888888                            #  = WL   = 0.4 DEG/SEC          $450
000214:
000215: 21,3452           12173        SLOPE2             DEC      .32                                   #  = 0.8 DEG/SEC/DEG             $450/180
000216: 21,3453           31655        JETS               CA       ADB
000217: 21,3454           65031                           AD       FOUR                                  #  AF = FLAT REGION = .044 DEG
000218: 21,3455           55502                           TS       T5TEMP                                #  ADB+AF
000219: 21,3456           35032                           CAF      TWO
000220: 21,3457           55506        JLOOP              TS       SPNDX
000221: 21,3460           60000                           DOUBLE
000222: 21,3461           55507                           TS       DPNDX
000223: 21,3462           00006                           EXTEND
000224: 21,3463           50000                           INDEX    A
000225: 21,3464           31534                           DCA      ADOT
000226: 21,3465           53516                           DXCH     EDOT
000227: 21,3466           31332                           CA       HOLDFLAG                              #  HOLDFLAG = +0 MEANS THAT DAP IS IN
000228: 21,3467           00006                           EXTEND                                         #  ATTITUDE HOLD AND RATE DAMPING IS OVER.
000229: 21,3470           13475                           BZF      INHOLD                                #  IF THIS IS THE CASE, BYPASS ADDITION
000230:                                                                                                  #  OF WBODY AND GO TO INHOLD
000231: 21,3471           00006                           EXTEND
000232: 21,3472           51507                           INDEX    DPNDX
000233: 21,3473           41526                           DCS      WBODY
000234: 21,3474           21516                           DAS      EDOT                                  #  = ADOT-WBODY
000235: 21,3475           51506        INHOLD             INDEX    SPNDX
000236: 21,3476           31567                           CA       ERRORX
000237: 21,3477           55517                           TS       AERR                                  #  AERR = BIAS + AK
000238:
000239: 21,3500           11515                           CCS      EDOT
000240: 21,3501           13511                           TCF      POSVEL
000241: 21,3502           13504                           TCF      SIGNCK1
000242: 21,3503           13521                           TCF      NEGVEL
000243: 21,3504           11516        SIGNCK1            CCS      EDOT       +1
000244: 21,3505           13511                           TCF      POSVEL
000245: 21,3506           13511                           TCF      POSVEL
000246: 21,3507           13521                           TCF      NEGVEL
000247: 21,3510           13521                           TCF      NEGVEL
000248: 21,3511           00006        POSVEL             EXTEND
000249: 21,3512           31516                           DCA      EDOT
000250: 21,3513           53521                           DXCH     EDOTVEL
000251: 21,3514           31502                           CA       T5TEMP
000252: 21,3515           55523                           TS       ADBVEL                                #  +(ADB+AF)
000253: 21,3516           31517                           CA       AERR
000254: 21,3517           55522                           TS       AERRVEL
000255: 21,3520           03530                           TC       J6.
000256: 21,3521           00006        NEGVEL             EXTEND
000257: 21,3522           41516                           DCS      EDOT
000258: 21,3523           53521                           DXCH     EDOTVEL
000259: 21,3524           41502                           CS       T5TEMP
000260: 21,3525           55523                           TS       ADBVEL                                #  -(ADB+AF)
000261: 21,3526           41517                           CS       AERR
000262: 21,3527           55522                           TS       AERRVEL
000263:
000264: 21,3530           00006        J6.                EXTEND
000265: 21,3531           61655                           SU       ADB
000266: 21,3532           63442                           AD       WLH/SLOP
000267: 21,3533           00006                           EXTEND
000268: 21,3534           63563                           BZMF     J8
000269:
000270: 21,3535           41502                           CS       T5TEMP                                #  (ADB+AF)
000271: 21,3536           61522                           AD       AERRVEL
000272: 21,3537           00006                           EXTEND
000273: 21,3540           63542                           BZMF     +2
000274: 21,3541           13554                           TCF      J7
000275: 21,3542           00006                           EXTEND
000276: 21,3543           41521                           DCS      EDOTVEL
000277: 21,3544           00006                           EXTEND
000278: 21,3545           11654                           DV       SLOPE
000279: 21,3546           00006                           EXTEND
000280: 21,3547           61522                           SU       AERRVEL
000281: 21,3550           61655                           AD       ADB
000282: 21,3551           00006                           EXTEND
000283: 21,3552           63642                           BZMF     J18
000284: 21,3553           13716                           TCF      J23
000285:
000286: 21,3554           43443        J7                 CS       WL-H/SLP
000287: 21,3555           00006                           EXTEND
000288: 21,3556           61502                           SU       T5TEMP                                #  (ADB+AF)
000289: 21,3557           61522                           AD       AERRVEL
000290: 21,3560           00006                           EXTEND
000291: 21,3561           63646                           BZMF     J20
000292: 21,3562           13657                           TCF      J21
000293:
000294: 21,3563           00006        J8                 EXTEND
000295: 21,3564           43445                           DCS      WLH
000296: 21,3565           53514                           DXCH     WTEMP
000297: 21,3566           00006                           EXTEND
000298: 21,3567           31521                           DCA      EDOTVEL
000299: 21,3570           21514                           DAS      WTEMP
000300: 21,3571           11513                           CCS      WTEMP
000301: 21,3572           13705                           TCF      J22
000302: 21,3573           13575                           TCF      SIGNCK2
000303: 21,3574           13601                           TCF      NJ22
000304: 21,3575           11514        SIGNCK2            CCS      WTEMP      +1
000305: 21,3576           13705                           TCF      J22
000306: 21,3577           13705                           TCF      J22
000307: 21,3600           13601                           TCF      NJ22
000308:
000309: 21,3601           00006        NJ22               EXTEND
000310: 21,3602           31521                           DCA      EDOTVEL
000311: 21,3603           00006                           EXTEND
000312: 21,3604           11654                           DV       SLOPE
000313: 21,3605           61502                           AD       T5TEMP                                #  (ADB+AF)
000314: 21,3606           61522                           AD       AERRVEL
000315: 21,3607           10000                           CCS      A
000316: 21,3610           13716                           TCF      J23
000317: 21,3611           13716                           TCF      J23
000318: 21,3612           13614                           TCF      +2
000319: 21,3613           13716                           TCF      J23
000320:
000321: 21,3614           00006                           EXTEND
000322: 21,3615           43447                           DCS      WLMH                                  #  WL - H
000323: 21,3616           53514                           DXCH     WTEMP
000324: 21,3617           00006                           EXTEND
000325: 21,3620           31521                           DCA      EDOTVEL
000326: 21,3621           21514                           DAS      WTEMP
000327: 21,3622           11513                           CCS      WTEMP
000328: 21,3623           13716                           TCF      J23
000329: 21,3624           13626                           TCF      SIGNCK3
000330: 21,3625           13632                           TCF      NJ23
000331: 21,3626           11514        SIGNCK3            CCS      WTEMP      +1
000332: 21,3627           13716                           TCF      J23
000333: 21,3630           13716                           TCF      J23
000334: 21,3631           13632                           TCF      NJ23
000335:
000336: 21,3632           31522        NJ23               CA       AERRVEL
000337: 21,3633           61502                           AD       T5TEMP                                #  (ADB+AF)
000338: 21,3634           63443                           AD       WL-H/SLP
000339: 21,3635           10000                           CCS      A
000340: 21,3636           13730                           TCF      J24
000341: 21,3637           13730                           TCF      J24
000342: 21,3640           13705                           TCF      J22
000343: 21,3641           13705                           TCF      J22
000344:
000345: 21,3642           00006        J18                EXTEND
000346: 21,3643           41516                           DCS      EDOT
000347: 21,3644           53511                           DXCH     KMPAC
000348: 21,3645           13741                           TCF      JTIME
000349:
000350: 21,3646           41517        J20                CS       AERR
000351: 21,3647           61523                           AD       ADBVEL
000352: 21,3650           00006                           EXTEND
000353: 21,3651           73452                           MP       SLOPE2                                #  (HYSTERESIS SLOPE)
000354: 21,3652           53511                           DXCH     KMPAC
000355: 21,3653           00006                           EXTEND
000356: 21,3654           41516                           DCS      EDOT
000357: 21,3655           21511                           DAS      KMPAC
000358: 21,3656           13741                           TCF      JTIME
000359:
000360: 21,3657           11515        J21                CCS      EDOT
000361: 21,3660           13676                           TCF      JP
000362: 21,3661           13663                           TCF      SIGNCK4
000363: 21,3662           13667                           TCF      JN
000364: 21,3663           11516        SIGNCK4            CCS      EDOT       +1
000365: 21,3664           13676                           TCF      JP
000366: 21,3665           13676                           TCF      JP
000367: 21,3666           13667                           TCF      JN
000368: 21,3667           00006        JN                 EXTEND
000369: 21,3670           41516                           DCS      EDOT
000370: 21,3671           53511                           DXCH     KMPAC
000371: 21,3672           00006                           EXTEND
000372: 21,3673           33451                           DCA      WL
000373: 21,3674           21511                           DAS      KMPAC
000374: 21,3675           13741                           TCF      JTIME
000375:
000376: 21,3676           00006        JP                 EXTEND
000377: 21,3677           41516                           DCS      EDOT
000378: 21,3700           53511                           DXCH     KMPAC
000379: 21,3701           00006                           EXTEND
000380: 21,3702           43451                           DCS      WL
000381: 21,3703           21511                           DAS      KMPAC
000382: 21,3704           13741                           TCF      JTIME
000383:
000384: 21,3705           11515        J22                CCS      EDOT
000385: 21,3706           13667                           TCF      JN
000386: 21,3707           13711                           TCF      SIGNCK5
000387: 21,3710           13676                           TCF      JP
000388: 21,3711           11516        SIGNCK5            CCS      EDOT       +1
000389: 21,3712           13667                           TCF      JN
000390: 21,3713           13667                           TCF      JN
000391: 21,3714           13676                           TCF      JP
000392: 21,3715           13676                           TCF      JP
000393:
000394: 21,3716           51506        J23                INDEX    SPNDX
000395: 21,3717           45017                           CS       BIT13                                 #  RESET RATE DAMPING FLAG
000396: 21,3720           71501                           MASK     RCSFLAGS                              #  BIT13 FOR ROLL  (SPNDX = 0)
000397: 21,3721           55501                           TS       RCSFLAGS                              #  BIT12 FOR PITCH (SPNDX = 1)
000398:                                                                                                  #  BIT11 FOR YAW   (SPNDX = 2)
000399:
000400: 21,3722           51506                           INDEX    SPNDX
000401: 21,3723           33045                           CAF      OCT01400                              #  IS THERE TO BE A FORCED FIRING ON THIS
000402: 21,3724           71501                           MASK     RCSFLAGS                              #  AXIS
000403: 21,3725           00006                           EXTEND
000404: 21,3726           13762                           BZF      DOJET      +2                         #  NO, GO TO DOJET +2 AND DO NOTHING
000405:
000406: 21,3727           13642                           TCF      J18                                   #  YES, GO TO J18 AND FORCE A FIRING
000407:
000408: 21,3730           41517        J24                CS       AERR
000409: 21,3731           00006                           EXTEND
000410: 21,3732           61523                           SU       ADBVEL
000411: 21,3733           00006                           EXTEND
000412: 21,3734           73452                           MP       SLOPE2                                #  (HYSTERESIS SLOPE)
000413: 21,3735           53511                           DXCH     KMPAC
000414: 21,3736           00006                           EXTEND
000415: 21,3737           41516                           DCS      EDOT
000416: 21,3740           21511                           DAS      KMPAC
000417:
000418:                                                                                                  #  COMPUTE THE JET ON TIME NECESSARY TO ACCOMPLISH THE DESIRED CHANGE IN RATE, IE
000419:
000420:                                                                                                  #             T  = J/M(DELTA W)
000421:                                                                                                  #              J
000422:
000423:                                                                                                  #        DELTA W = DESIRED CHANGE IN S/C ANGULAR RATE AS DETERMINED BY THE
000424:                                                                                                  #                  SWITCHING LOGIC, AT THIS POINT STORED IN KMPAC.
000425:
000426:                                                                                                  #            J/M = S/C INERTIA TO TORQUE 9ATIO SCALED BY
000427:                                                                                                  #                        (57.3/450)(B24/1600)(1/.8)
000428:                                                                                                  #                  FOR 1 JET OPERATION  (M = 700 FT-LB).
000429:                                                                                                  #                  IE J/M = J(SLUG-FTFT) X 0.00000085601606
000430:
000431:                                                                                                  #                  THE CORRESPONDING COMPUTER VARIABLES ESTABLISHED BY
000432:                                                                                                  #                  KEYBOARD ENTRY ARE
000433:                                                                                                  #                        J/M  (ROLL)
000434:                                                                                                  #                        J/M1 (PITCH)
000435:                                                                                                  #                        J/M2 (YAW)
000436:
000437:                                                                                                  #             T  = JET ON-TIME    SCALED 16384/1600 SEC
000438:                                                                                                  #              J
000439:
000440:                                                                                                  #                  THE COMPUTER VARIABLES ARE
000441:                                                                                                  #                        TAU  (ROLL)
000442:                                                                                                  #                        TAU1 (PITCH)
000443:                                                                                                  #                        TAU2 (YAW)
000444:
000445: 21,3741           51506        JTIME              INDEX    SPNDX                                 #  PICK UP S/C INERTIA/TORQUE RATIO
000446: 21,3742           31623                           CA       J/M                                   #  SCALED (57.3/450)(B24/1600)
000447: 21,3743           02054                           TC       SMALLMP                               #  FOR 1-JET OPERATION
000448: 21,3744           35021                           CA       BIT11
000449: 21,3745           02054                           TC       SMALLMP
000450: 21,3746           11510                           CCS      KMPAC
000451: 21,3747           13753                           TCF      +4
000452: 21,3750           13757                           TCF      TAUNORM
000453: 21,3751           13755                           TCF      +4
000454: 21,3752           13757                           TCF      TAUNORM
000455: 21,3753           35013                           CA       POSMAX
000456: 21,3754           13760                           TCF      DOJET
000457: 21,3755           35015                           CA       NEGMAX
000458: 21,3756           13760                           TCF      DOJET
000459:
000460: 21,3757           31511        TAUNORM            CA       KMPAC      +1
000461: 21,3760           51506        DOJET              INDEX    SPNDX
000462: 21,3761           55561                           TS       TAU
000463: 21,3762           11506                           CCS      SPNDX
000464: 21,3763           13457                           TCF      JLOOP
000465: 21,3764           13771                           TCF      T6PROG
000466:
000467: 21,3765           35035        ZEROCMDS           CAF      ZERO
000468: 21,3766           55561                           TS       TAU
000469: 21,3767           55562                           TS       TAU1
000470: 21,3770           55563                           TS       TAU2
000471: 21,3771           00006        T6PROG             EXTEND                                         #  WHEN THE ROTATION COMMANDS (TAUS)
000472: 21,3772           33776                           DCA      JETADDR                               #  HAVE BEEN DETERMINED
000473: 21,3773           53313                           DXCH     T5LOC                                 #  RESET T5LOC FOR PHASE3
000474: 21,3774           15347                           TCF      RESUME
000475:
000476: 21,3775  E6,1510                                  EBANK=   KMPAC
000477: 21,3775           02610 36066  JETADDR            2CADR    JETSLECT
000478:

End of include-file AUTOMATIC_MANEUVERS.agc.  Parent file is MAIN.agc


