
Source Code


000002:                                                                                                  ## Copyright:   Public domain.
000003:                                                                                                  ## Filename:    CM_BODY_ATTITUDE.agc
000004:                                                                                                  ## Purpose:     A section of Comanche revision 072.
000005:                                                                                                  ##              It is part of the reconstructed source code for the first
000006:                                                                                                  ##              release of the software for the Command Module's (CM) Apollo
000007:                                                                                                  ##              Guidance Computer (AGC) for Apollo 13. No original listings
000008:                                                                                                  ##              of this program are available; instead, this file was recreated
000009:                                                                                                  ##              from a printout of Comanche 055, binary dumps of a set of
000010:                                                                                                  ##              Comanche 067 rope modules, and changelogs between Comanche 067
000011:                                                                                                  ##              and 072. It has been adapted such that the resulting bugger words
000012:                                                                                                  ##              exactly match those specified for Comanche 072 in NASA drawing
000013:                                                                                                  ##              2021153G, which gives relatively high confidence that the
000014:                                                                                                  ##              reconstruction is correct.
000015:                                                                                                  ## Assembler:   yaYUL
000016:                                                                                                  ## Contact:     Ron Burkey <info@sandroid.org>.
000017:                                                                                                  ## Website:     www.ibiblio.org/apollo/index.html
000018:                                                                                                  ## Mod history: 2024-05-13 MAS  Created from Comanche 067.
000019:
000020: 35,3477                                           BANK     35
000021:
000022: 37,2000                                           SETLOC   BODYATT
000023: 37,2000                                           BANK
000024:
000025: 37,3473                                           COUNT    37/CMBAT
000026:
000027:                                                                                                  #  PDL 12D - 15D SAFE.
000028:
000029:                                                                                                  #  VALUES OF GIMBAL AND BODY ANGLES VALID AT PIP TIME ARE SAVED DURING  READACCS.
000030:
000031: 37,3473  E7,1451                                  EBANK=   RTINIT                                #  LET INTERPRETER SET EB
000032:
000033: 37,3473           06006        CM/POSE            TC       INTPRET                               #  COME HERE VIA AVEGEXIT.
000034:
000035: 37,3474           77201                           SETPD    VLOAD
000036: 37,3475           00001                                    0
000037: 37,3476           01177                                    VN                                    #  KVSCALE = (12800/ .3048) /2VS
000038: 37,3477           63361                           VXSC     PDVL
000039: 37,3500           37772                                    -KVSCALE                              #  KVSCALE = .81491944
000040: 37,3501           01714                                    UNITW                                 #  FULL UNIT VECTOR
000041: 37,3502           74235                           VXV      VXSC                                  #  VREL = V - WE*R
000042: 37,3503           01760                                    UNITR
000043: 37,3504           15244                                    KWE
000044: 37,3505           45455                           VAD      STADR
000045: 37,3506           74251                           STORE    -VREL                                 #  SAVE FOR ENTRY GUIDANCE.      REF COORDS
000046:
000047: 37,3507           72056                           UNIT     LXA,1
000048: 37,3510           00044                                    36D                                   #  ABVAL( -VREL) TO X1
000049: 37,3511           03542                           STORE    UXA/2                                 #  -UVREL                        REF COORDS
000050:
000051: 37,3512           57435                           VXV      VCOMP
000052: 37,3513           01760                                    UNITR                                 #  .5 UNIT                       REF COORDS
000053: 37,3514           66256                           UNIT     SSP                                   #  THE FOLLOWING IS TO PROVIDE A STABLE
000054: 37,3515           00051                                    S1                                    #  UN FOR THE END OF THE TERMINAL PHASE.
000055: 37,3516           00476        SPVQUIT            DEC      .019405                               #  1000/ 2 VS
000056: 37,3517           77300                           TIX,1    VLOAD                                 #  IF V-VQUIT POS, BRANCH.
000057: 37,3520           77522                                    CM/POSE2                              #  SAVE UYA IN OLDUYA
000058: 37,3521           03534                                    OLDUYA                                #  OTHERWISE CONTINUE TO USE OLDUYA.
000059: 37,3522           03550        CM/POSE2           STORE    UYA/2                                 #                                REF COORDS
000060:
000061: 37,3523           03534                           STORE    OLDUYA                                #  RESTORE, OR SAVE AS CASE MAY BE.
000062:
000063: 37,3524           57435                           VXV      VCOMP
000064: 37,3525           03542                                    UXA/2                                 #  FINISH OBTAINING TRAJECTORY TRIAD.
000065: 37,3526           77772                           VSL1
000066: 37,3527           03556                           STORE    UZA/2                                 #                                REF COORDS
000067: 37,3530           77751                           TLOAD                                          #  PICK UP CDUX, CDUY, CDUZ CORRESPONDING
000068: 37,3531           03270                                    AOG/PIP                               #  TO PIPUP TIME IN 2S,C AND SAVE.
000069: 37,3532           14031        CM/TRIO            STODL    24D
000070: 37,3533           00032                                    25D                                   #  AIG/PIP
000071:
000072: 37,3534           41434                           RTB      PUSH                                  #  TO PDL0
000073: 37,3535           45513                                    CDULOGIC
000074: 37,3536           77746                           COS
000075: 37,3537           17564                           STODL    UBX/2                                 #  CI /2
000076:                                                                                                  #  AIG/PIP FROM PDL 0
000077: 37,3540           57556                           SIN      DCOMP
000078: 37,3541           17570                           STODL    UBX/2      +4                         #  -SI /2
000079: 37,3542           00033                                    26D                                   #  AMG/PIP
000080: 37,3543           41434                           RTB      PUSH                                  #  TO PDL 0
000081: 37,3544           45513                                    CDULOGIC
000082: 37,3545           65356                           SIN      PDDL                                  #  XCH PDL 0.  SAVE SM /2
000083: 37,3546           65346                           COS      PDDL                                  #  CM /2 TO PDL 2
000084: 37,3547           00001                                    0                                     #  SM /2
000085: 37,3550           74276                           DCOMP    VXSC
000086: 37,3551           03564                                    UBX/2
000087: 37,3552           77772                           VSL1                                           #  NOISE WONT OVFL.
000088: 37,3553           17572                           STODL    UBY/2                                 #  =(-SMCI, NOISE, SMSI)/2
000089: 37,3554           00003                                    2                                     #  CM /2 REPLACES NOISE
000090: 37,3555           17574                           STODL    UBY/2      +2                         #  UBY/2=(-SMCI, CM, SMSI)/2
000091: 37,3556           00031                                    24D                                   #  AOG/PIP
000092: 37,3557           41434                           RTB      PUSH                                  #  TO PDL 4
000093: 37,3560           45513                                    CDULOGIC
000094: 37,3561           65356                           SIN      PDDL                                  #  XCH PDL 4.  SAVE SO /2
000095: 37,3562           74346                           COS      VXSC                                  #  CO /2
000096: 37,3563           03572                                    UBY/2
000097: 37,3564           17572                           STODL    UBY/2                                 #  UBY/2=(-COSMCI, COCM, COSMSI)/4
000098: 37,3565           00005                                    4D                                    #  SO /2
000099: 37,3566           57405                           DMP      DCOMP
000100: 37,3567           03570                                    UBX/2      +4                         #  -SI /2
000101: 37,3570           77615                           DAD
000102: 37,3571           03572                                    UBY/2                                 #  INCREMENT BY (SOSI /4)
000103: 37,3572           17572                           STODL    UBY/2
000104:                                                                                                  #  SO /2 FROM PDL 4
000105: 37,3573           43205                           DMP      DAD
000106: 37,3574           03564                                    UBX/2                                 #  CI /2
000107: 37,3575           03576                                    UBY/2      +4
000108: 37,3576           27576                           STOVL    UBY/2      +4                         #  YB/4                          PLATFORM COORDS
000109:
000110:                                                                                                  #  YB = (-COSMCI + SOSI , COCM , COSMSI + SOCI )
000111:
000112: 37,3577           03572                                    UBY/2
000113: 37,3600           72505                           VXM      VSL2
000114: 37,3601           01736                                    REFSMMAT                              #  .5 UNIT
000115: 37,3602           17572                           STODL    UBY/2                                 #  YB/2 DONE                     REF COORDS
000116:                                                                                                  #  CM /2 FROM PDL 2
000117: 37,3603           76561                           VXSC     VSL1
000118: 37,3604           03564                                    UBX/2
000119: 37,3605           17564                           STODL    UBX/2                                 #  =( CMCI, NOISE, -CMSI)/2
000120: 37,3606           77626                           STADR                                          #  SM /2 FROM PDL 0
000121: 37,3607           50211                           STOVL    UBX/2      +2                         #  SM /2 REPLACES NOISE
000122: 37,3610           03564                                    UBX/2                                 #  XB/2                          PLATFORM COORDS
000123:
000124:                                                                                                  #  XB = ( CMCI , SM , -CMSI )
000125:
000126: 37,3611           76505                           VXM      VSL1
000127: 37,3612           01736                                    REFSMMAT                              #  .5 UNIT
000128: 37,3613           03564                           STORE    UBX/2                                 #  XB/2 DONE                     REF COORDS
000129:
000130: 37,3614           76435                           VXV      VSL1
000131: 37,3615           03572                                    UBY/2
000132: 37,3616           27600                           STOVL    UBZ/2                                 #  ZB/2 DONE                     REF COORDS
000133:
000134:                                                                                                  #  EQUIVALENT TO
000135:                                                                                                  #  ZB = ( SOSMCI + COSI , -SOCM , -SOSMSI + COCI )
000136:
000137: 37,3617           03542                                    UXA/2                                 #  -UVREL/2 = -UVA/2
000138: 37,3620           53435                           VXV      UNIT                                  #  GET UNIT(-UVREL*UBY)/2 = UL/2
000139: 37,3621           03572                                    UBY/2                                 #  YB/2
000140: 37,3622           50206                           PUSH     DOT                                   #  UL/2 TO PDL 0,5
000141: 37,3623           03556                                    UZA/2                                 #  UNA/2
000142: 37,3624           24021                           STOVL    COSTH                                 #  COS(ROLL)/4
000143: 37,3625           00001                                    0                                     #  UL/2
000144:
000145: 37,3626           77641                           DOT
000146: 37,3627           03550                                    UYA/2
000147: 37,3630           34023                           STCALL   SINTH                                 #  -SIN(ROLL)/4
000148: 37,3631           47260                                    ARCTRIG
000149: 37,3632           24007                           STOVL    6D                                    #  -(ROLL/180) /2
000150: 37,3633           03572                                    UBY/2
000151: 37,3634           72441                           DOT      SL1                                   #  -UVA.UBY = -SIN(BETA)
000152: 37,3635           03542                                    UXA/2                                 #  -UVREL/2
000153: 37,3636           77736                           ARCSIN
000154: 37,3637           24010                           STOVL    7D                                    #  -(BETA/180) /2
000155: 37,3640           03564                                    UBX/2                                 #  XB/2
000156: 37,3641           77641                           DOT                                            #  UL.UBX = -SIN(ALFA)
000157: 37,3642           00001                                    0                                     #  UL/2
000158: 37,3643           24023                           STOVL    SINTH                                 #  -SIN(ALFA)/4
000159: 37,3644           77641                           DOT                                            #  UL/2 FROM PDL 0
000160: 37,3645           03600                                    UBZ/2
000161: 37,3646           34021                           STCALL   COSTH                                 #  COS(ALFA)/4
000162: 37,3647           47260                                    ARCTRIG
000163: 37,3650           24011                           STOVL    8D                                    #  -(ALFA/180) /2
000164: 37,3651           01760                                    UNITR                                 #  UR/2                          REF COORDS
000165: 37,3652           72441                           DOT      SL1
000166: 37,3653           03556                                    UZA/2                                 #  MORE ACCURATE AT LARGE ARG.
000167: 37,3654           77726                           ARCCOS
000168: 37,3655           00013                           STORE    10D                                   #  (-GAMA/180)/2
000169:
000170: 37,3656           77551                           TLOAD    EXIT                                  #  ANGLES IN MPAC IN THE ORDER
000171:                                                                                                  #  -( (ROLL, BETA, ALFA) /180)/2
000172: 37,3657           00007                                    6D                                    #  THESE VALUES CORRECT AT PIPUP TIME.
000173:
000174:                                                                                                  #  SPACER
000175:                                                                                                  #  BASIC SUBROUTINE TO UPDATE ATTITUDE ANGLES
000176:
000177: 37,3660  E6,1661                                  EBANK=   AOG
000178:
000179: 37,3660           35073        CM/ATUP            CA       EBAOG
000180: 37,3661           54003                           TS       EBANK
000181: 37,3662           50120        CMTR1              INDEX    FIXLOC
000182: 37,3663           40012                           CS       10D                                   #  (GAMA/180)/2
000183: 37,3664           57722                           XCH      GAMA
000184: 37,3665           54001                           TS       L
000185:
000186: 37,3666           00004                           INHINT
000187:                                                                                                  #  MUST REMAIN INHINTED UNTIL UPDATE OF BODY
000188:                                                                                                  #  ANGLES, SO THAT GAMDIFSW IS VALID FIRST PASS
000189:                                                                                                  #  INDICATOR.
000190:
000191: 37,3667           40102                           CS       CM/FLAGS
000192: 37,3670           75021                           MASK     BIT11                                 #  GAMDIFSW=94D BIT11    INITLY=0
000193: 37,3671           00006                           EXTEND                                         #  DONT CALC GAMA DOT UNTIL HAVE FORMD
000194:                                                                                                  #  ONE DIFFERENCE.
000195: 37,3672           13675                           BZF      DOGAMDOT                              #  IS OK, GO ON.
000196: 37,3673           26102                           ADS      CM/FLAGS                              #  KNOW BIT IS 0
000197: 37,3674           03710                           TC       NOGAMDOT                              #  SET GAMDOT = 0
000198:
000199: 37,3675           40001        DOGAMDOT           CS       L
000200: 37,3676           61722                           AD       GAMA                                  #  DEL GAMA/360= T GAMDOT/360
000201: 37,3677           00006                           EXTEND
000202: 37,3700           73773                           MP       TCDU                                  #  TCDU = .1 SEC, T = 2 SEC.
000203: 37,3701           55723                           TS       GAMDOT                                #  GAMA DOT TCDU / 180
000204:
000205: 37,3702           00006                           EXTEND                                         #  IGNORE GAMDOT IF LEQ .5 DEG/SEC
000206: 37,3703           63705                           BZMF     +2
000207: 37,3704           40000                           COM
000208: 37,3705           65036                           AD       FIVE
000209: 37,3706           00006                           EXTEND
000210: 37,3707           63712                           BZMF     +3                                    #  SET GAMDOT=+0 AS TAG IF TOO SMALL.
000211:
000212: 37,3710           35035        NOGAMDOT           CA       ZERO                                  #  COME HERE INHINTED.
000213: 37,3711           55723                           TS       GAMDOT
000214:                                                                                                  #  FOR NOW LEAVE IN 2S,C
000215:                                                                                                  #  UPDATE ANGLES BY CORRECTING EUILER ANG
000216:                                                                                                  #  FOR ACCRUED INCREMENT SINCE PIPUP
000217:                                                                                                  #  R = R EUIL + R(NOW) - R(PIPUP)
000218: 37,3712           40154                           CS       MPAC                                  #  GET (R EUL/180) /2
000219: 37,3713           60000                           DOUBLE                                         #  POSSIBLE OVERFLOW
000220: 37,3714           03763                           TC       CORANGOV                              #  CORRECT FOR OVFL IF ANY
000221: 37,3715           00006                           EXTEND
000222: 37,3716           61672                           SU       ROLL/PIP                              #  GET INCR SINCE PIPUP
000223: 37,3717           61664                           AD       ROLL/180                              #  ONLY SINGLE OVFL POSSIBLE.
000224: 37,3720           03763                           TC       CORANGOV                              #  CORRECT FOR OVFL IF ANY
000225: 37,3721           55770                           TS       TEMPROLL
000226:
000227: 37,3722           40156                           CS       MPAC       +2                         #  GET (ALFA EUL/180) /2
000228: 37,3723           60000                           DOUBLE                                         #  SAME AS FOR ROLL.  NEEDED FOR EXT ATM DAP
000229: 37,3724           03763                           TC       CORANGOV                              #  CORRECT FOR OVFL IF ANY
000230: 37,3725           00006                           EXTEND
000231: 37,3726           61673                           SU       ALFA/PIP
000232: 37,3727           61665                           AD       ALFA/180
000233: 37,3730           03763                           TC       CORANGOV                              #  CORRECT FOR OVFL IF ANY
000234: 37,3731           55771                           TS       TEMPALFA
000235:
000236: 37,3732           40155                           CS       MPAC       +1                         #  GET (BETA EUL/180) /2
000237: 37,3733           60000        CMTR2              DOUBLE
000238: 37,3734           00006                           EXTEND
000239: 37,3735           61674                           SU       BETA/PIP
000240: 37,3736           61666                           AD       BETA/180
000241: 37,3737           57772                           XCH      TEMPBETA                              #  OVFL NOT EXPECTED.
000242:
000243: 37,3740           35065                           CA       EBANK3
000244: 37,3741           54003                           TS       EBANK
000245:
000246: 37,3742  E3,1446                                  EBANK=   PHSNAME5
000247: 37,3742           00006                           EXTEND
000248: 37,3743           33775                           DCA      REPOSADR                              #  THIS ASSUMES THAT THE         TC  PHASCHNG
000249: 37,3744           53447                           DXCH     PHSNAME5                              #  IS NOT CHANGED IN             OCT 10035
000250:                                                                                                  #  SERVICER.
000251:
000252: 37,3745           35073                           CA       EBAOG
000253: 37,3746           54003                           TS       EBANK
000254:
000255: 37,3747  E6,1661                                  EBANK=   AOG
000256: 37,3747           00006        REDOPOSE           EXTEND                                         #  RE-STARTS COME HERE
000257: 37,3750           31771                           DCA      TEMPROLL
000258: 37,3751           53665                           DXCH     ROLL/180
000259: 37,3752           31772                           CA       TEMPBETA
000260: 37,3753           55666                           TS       BETA/180
000261:
000262: 37,3754           00003                           RELINT
000263:
000264: 37,3755           06006                           TC       INTPRET                               #  CANT TC DANZIG AFTER PHASCHNG.
000265: 37,3756           51575        CM/POSE3           VLOAD    ABVAL                                 #  RETURN FROM CM/ATUP.  (RESTART)
000266: 37,3757           01177                                    VN                                    #  2(-7) M/CS
000267: 37,3760           03723                           STORE    VMAGI                                 #  FOR DISPLAY ON CALL.
000268:
000269: 37,3761           77650                           GOTO
000270: 37,3762           03324                                    POSEXIT                               #  ENDEXIT, STARTENT, OR SCALEPOP.
000271:
000272: 37,3763           54001        CORANGOV           TS       L
000273: 37,3764           00002                           TC       Q
000274: 37,3765           50000                           INDEX    A
000275: 37,3766           35014                           CA       LIMITS
000276: 37,3767           26001                           ADS      L
000277: 37,3770           00002                           TC       Q                                     #  COSTS 2 MCT TO USE.  SEE ANGOVCOR.
000278:
000279: 37,3771           45730 53410  -KVSCALE           2DEC     -.81491944                            #  -12800/(2 VS .3048)
000280:
000281: 37,3773           03146        TCDU               DEC      .1                                    #  TCDU = .1 SEC.
000282:
000283: 37,3774  E6,1661                                  EBANK=   AOG
000284: 37,3774           03747 76066  REPOSADR           2CADR    REDOPOSE
000285:

End of include-file CM_BODY_ATTITUDE.agc.  Parent file is MAIN.agc


