
Source Code


000002:                                                                                                  ## Copyright:   Public domain.
000003:                                                                                                  ## Filename:    CONIC_SUBROUTINES.agc
000004:                                                                                                  ## Purpose:     A section of Comanche revision 072.
000005:                                                                                                  ##              It is part of the reconstructed source code for the first
000006:                                                                                                  ##              release of the software for the Command Module's (CM) Apollo
000007:                                                                                                  ##              Guidance Computer (AGC) for Apollo 13. No original listings
000008:                                                                                                  ##              of this program are available; instead, this file was recreated
000009:                                                                                                  ##              from a printout of Comanche 055, binary dumps of a set of
000010:                                                                                                  ##              Comanche 067 rope modules, and changelogs between Comanche 067
000011:                                                                                                  ##              and 072. It has been adapted such that the resulting bugger words
000012:                                                                                                  ##              exactly match those specified for Comanche 072 in NASA drawing
000013:                                                                                                  ##              2021153G, which gives relatively high confidence that the
000014:                                                                                                  ##              reconstruction is correct.
000015:                                                                                                  ## Assembler:   yaYUL
000016:                                                                                                  ## Contact:     Ron Burkey <info@sandroid.org>.
000017:                                                                                                  ## Website:     www.ibiblio.org/apollo/index.html
000018:                                                                                                  ## Mod history: 2024-05-13 MAS  Created from Comanche 067.
000019:                                                                                                  ##              2024-05-14 MAS  Implemented fix for COM-24, "Coding error in
000020:                                                                                                  ##              iterator".
000021:
000022:                                                                                                  #  PROGRAM DESCRIPTION - ENTIRE CONIC SUBROUTINE LOG SECTION     DATE - 1 SEPTEMBER 1967
000023:                                                                                                  #  MOD NO. - 0                                                   LOG SECTION - CONIC SUBROUTINES
000024:                                                                                                  #  MOD BY KRAUSE                                                 ASSEMBLY - COLOSSUS REVISION 88
000025:
000026:                                                                                                  #  FUNCTIONAL DESCRIPTION -
000027:                                                                                                  #        THE FOLLOWING SET OF SUBROUTINES SOLVE VARIOUS PROBLEMS INVOLVING THE TRAJECTORY PRODUCED BY A CENTRAL
000028:                                                                                                  #        INVERSE-SQUARE FORCE ACTING ON A POINT MASS, AS OUTLINED IN THE CMC AND LGC LUNAR LANDING MISSION GSOP, SECTION
000029:                                                                                                  #        5.5.1.2.  A GENERAL USAGE POINT-OF-VIEW WAS TAKEN IN FORMULATING, MECHANIZING, AND SCALING THE SUBROUTINES,
000030:                                                                                                  #        RATHER THAN OPTIMIZING EACH FOR A PARTICULAR USE.  THEREFORE, MULTIPLE USAGE CAN BE MADE OF THE SUBROUTINES
000031:                                                                                                  #        INVOLVING ANY REALISTIC SET OF CONSTRAINTS.  IT SHOULD BE NOTED THAT ONLY ONE SET OF CODING IS USED, WHETHER THE
000032:                                                                                                  #        EARTH, MOON, OR ANY OTHER CELESTIAL BODY IS SPECIFIED AS THE CENTRAL BODY OF THE PROBLEM, PROVIDED ONE OBSERVES
000033:                                                                                                  #        THE INHERENT SCALE CHANGE REQUIRED IN POSITION, VELOCITY, MU, AND TIME, AS OUTLINED IN MISSION PROGRAMMING
000034:                                                                                                  #        DEFINITION MEMO NO. 10.  THIS CAN BE ACCOMPLISHED BY SIMPLY ADDING TO THE MUTABLE AND INITIALIZING THE SUBROU-
000035:                                                                                                  #        TINES APPROPRIATELY.
000036:
000037:                                                                                                  #        DUE TO THE UNIFORMITY OF THE EQUATIONS INVOLVED, CODING WAS MINIMIZED BY TREATING INDIVIDUAL EQUATIONS AND
000038:                                                                                                  #        BLOCKS OF EQUATIONS AS SUBROUTINES OF LOWER RANK WHENEVER POSSIBLE.  AS A RESULT, THREE BY-PRODUCTS SUBROUTINES,
000039:                                                                                                  #        DIRECTLY USABLE AS INDEPENDENT SUBROUTINES, WERE GENERATED.
000040:
000041:                                                                                                  #  RESTRICTIONS -
000042:                                                                                                  #        THE ONLY LIMITATION IN THE SCOPE OF PROBLEM WHICH CAN BE SOLVED BY A PARTICULAR SUBROUTINE IS THE SCALING
000043:                                                                                                  #        LIMIT OF EACH PARAMETER AS SPECIFIED IN THE GSOP.  THESE SCALING LIMITS WERE CHOSEN SO THAT ALL FEASIBLE TRAJEC-
000044:                                                                                                  #        TORIES COULD BE HANDLED.
000045:
000046:                                                                                                  #        SINCE THE SUBROUTINES (EXCEPT KEPLER) USE COMMON SUBROUTINES OF LOWER RANK WHICH USE ERASABLE OTHER THAN
000047:                                                                                                  #        THE PUSHLIST (DUE TO ITS LIMITED SIZE) AND COMMON INTERPRETIVE SWITCHES, THE CONIC SUBROUTINES CANNOT BE ALLOWED
000048:                                                                                                  #        TO INTERRUPT EACH OTHER.  IT IS UP TO THE USER TO GUARANTEE THIS CONDITION.
000049:
000050:                                                                                                  #  PROGRAM DESCRIPTION - KEPLER SUBROUTINE                       DATE - 11 OCTOBER 1967
000051:                                                                                                  #  MOD NO. - 1                                                   LOG SECTION - CONIC SUBROUTINES
000052:                                                                                                  #  MOD BY KRAUSE                                                 ASSEMBLY - COLOSSUS 103 AND SUNDANCE 222
000053:                                                                                                  #  MOD NO. - 2 (AUGUST 1968) BY ROBERTSON: TO PERMIT BACKDATING BY MORE THAN ONE ORBITAL PERIOD.
000054:                                                                                                  #  MOD NO. - 3 (DEC 1968) BY ROBERTSON: SUPPRESSION OF X-MODULO-ING
000055:                                                                                                  #  MOD. NO. - 4 (JAN 1969) BY ROBERTSON: CLEAR OVFIND AT KEPLER ENTRY
000056:
000057:                                                                                                  #  FUNCTIONAL DESCRIPTION -
000058:                                                                                                  #        THIS SUBROUTINE, GIVEN AN INITIAL STATE VECTOR AND THE DESIRED TRANSFER TIME THROUGH WHICH THE STATE IS TO
000059:                                                                                                  #        BE UPDATED ALONG A CONIC TRAJECTORY, COMPUTES THE NEW, UPDATED STATE VECTOR.  THE TRAJECTORY MAY BE ANY CONIC
000060:                                                                                                  #        SECTION - CIRCULAR, ELLIPTIC, PARABOLIC, HYPERBOLIC, OR RECTILINEAR WITH RESPECT TO THE EARTH OR THE MOON. THE
000061:                                                                                                  #        USE OF THE SUBROUTINE CAN BE EXTENDED USING OTHER PRIMARY BODIES BY SIMPLE ADDITIONS TO THE MUTABLE WITHOUT
000062:                                                                                                  #        INTRODUCING ANY CODING CHANGES, ACCEPTING THE INHERENT SCALE FACTOR CHANGES IN POSITION AND VELOCITY.  AN ITERA-
000063:                                                                                                  #        TION TECHNIQUE IS UTILIZED IN THE COMPUTATION.
000064:
000065:                                                                                                  #        IF A NEGATIVE TIME-OF-FLIGHT IS INPUT, THE PROGRAM WILL SOLVE FOR THE STATE WHICH WOULD BE PRODUCED BY
000066:                                                                                                  #        EXTRAPOLATING THE POSITION BACKWARD IN TIME.
000067:
000068:                                                                                                  #        IF THE ABSOLUTE VALUE OF THE DESIRED TRANSFER TIME EXCEEDS THE ORBITAL PERIOD, THE SUBROUTINE, THROUGH A
000069:                                                                                                  #        MODULAR TECHNIQUE, WILL COMPUTE THE STATE CORRESPONDING TO THE DESIRED TIME (WHETHER POSITIVE OR NEGATIVE).
000070:
000071:                                                                                                  #  THE RESTRICTIONS ARE -
000072:                                                                                                  #        1.      (PREVIOUS RESTRICTION ON THE NEGATIVE DESIRED TRANSFER TIME IS NOW DELETED.)
000073:                                                                                                  #        2.      THE PARAMETERS IN THE PROBLEM CANNOT EXCEED THEIR SCALING LIMITS AS SPECIFIED IN THE GSOP.  IF
000074:                                                                                                  #                ANY OF THESE LIMITS ARE EXCEEDED, THE RESULTING SOLUTION WILL BE MEANINGLESS.
000075:
000076:                                                                                                  #        THE NUMBER OF ITERATIONS AND, THEREFORE, THE COMPUTATION SPEED IS DEPENDENT ON THE ACCURACY OF THE
000077:                                                                                                  #        GUESS, XKFPNEW.  THE AGC COMPUTATION TIME IS APPROXIMATELY .061 SECONDS FOR INITIALIZATION, .065 SECONDS FOR THE
000078:                                                                                                  #        FINAL COMPUTATIONS, PLUS .083 SECONDS FOR EACH ITERATION.
000079:
000080:                                                                                                  #  REFERENCES -
000081:                                                                                                  #        R-479, MISSION PROGRAMMING DEFINITION MEMO NO. 10, LUNAR LANDING MISSION GSOP, SECTION 5.5, SGA
000082:                                                                                                  #        MEMO 67-4.
000083:
000084:                                                                                                  #  INPUT - ERASABLE INITIALIZATION REQUIRED
000085:                                                                                                  #                * SCALE FACTOR *
000086:                                                                                                  #        VARIABLE*IN POWERS OF 2*                         DESCRIPTION AND REMARKS
000087:                                                                                                  #        --------*--------------*                         -----------------------
000088:                                                                                                  #        RRECT   * +29 FOR EARTH*DP INITIAL POSITION VECTOR IN METERS
000089:                                                                                                  #                * +27 FOR MOON *
000090:                                                                                                  #        VRECT   * +7 FOR EARTH *DP INITIAL VELOCITY VECTOR IN METERS/CENTISECOND
000091:                                                                                                  #                * +5 FOR MOON  *
000092:                                                                                                  #        X1 (38D)* NONE         *INDEX REGISTER SET TO -2D OR -10D ACCORDING TO WHETHER THE EARTH OR MOON,
000093:                                                                                                  #                *              *RESPECTIVELY, IS THE CENTRAL BODY
000094:                                                                                                  #        TAU.    * +28          *DESIRED TRANSFER TIME IN CENTISECONDS (DP)
000095:                                                                                                  #                *              *    MAY BE POS OR NEG AND ABSOLUTE VALUE MAY BE GREATER OR LESS THAN ONE ORBITAL PERIOD.
000096:                                                                                                  #        XKEPNEW * +17 FOR EARTH*DP GUESS OF ROOT X OF KEPLERS EQN IN SQRT(METERS).SIGN SHOULD AGREE WITH THAT OF TAU.
000097:                                                                                                  #                * +16 FOR MOON *    AND ABS VALUE SHOULD BE LESS THAN THAT CORRESPONDING TO A PERIOD, VIZ, 2PI SQRT(SEMI-
000098:                                                                                                  #                *              *    MAJOR AXIS), FOR SPEED OF CONVERGENCE, BUT IF EITHER CONDITION FAILS, XKEPNEW IS RESET
000099:                                                                                                  #                *              *    BY KEPLER TO A POOR BUT VALID GUESS.
000100:                                                                                                  #        TC      * +28          *DP PREV. VALUE OF TIME IN CENTISECS. MUST BE LESS THAN ONE ORBITAL PERIOD.
000101:                                                                                                  #        XPREV   * +17 FOR EARTH*DP PREV. VALUE OF X IN SQRT(METERS).  MUST BE LESS THAN AN X CORRESPONDING TO ONE
000102:                                                                                                  #                * +16 FOR MOON *    ORBITAL PERIOD, VIZ, 2PI SQRT(SEMI-MAJOR AXIS)
000103:
000104:                                                                                                  #  SUBROUTINES CALLED -
000105:                                                                                                  #        DELTIME
000106:
000107:                                                                                                  #  CALLING SEQUENCE AND NORMAL EXIT MODES -
000108:                                                                                                  #        KEPRTN-2        GOTO                    MUST BE IN INTERPRETIVE MODE BUT OVFIND ARBITRARY.
000109:                                                                                                  #        KEPRTN-1                KEPLER          RETURNS WITH XPREV IN MPAC.  PL IS AT 0.
000110:                                                                                                  #        KEPRTN          ...                     CONTINUE
000111:
000112:                                                                                                  #        KEPLER MUST NOT BE CALLED DIRECTLY SINCE AN INTERRUPTION OF IT WOULD DESTROY THE ERASABLES IT NEEDS TO COMPLETE
000113:                                                                                                  #        THE INTERRUPTED JOB.  THEREFORE THE USER MUST CALL CSMCONIC OR LEMCONIC WHICH GUARANTEES NO INTERRUPTS AND WHICH
000114:                                                                                                  #        ALSO CALLS KEPPREP TO COMPUTE A GUESS OF XKEPNEW.
000115:
000116:                                                                                                  #  ABORT EXIT MODES -
000117:                                                                                                  #        NONE
000118:
000119:                                                                                                  #  OUTPUT -
000120:                                                                                                  #                * SCALE FACTOR *
000121:                                                                                                  #        VARIABLE*IN POWERS OF 2*                         DESCRIPTION AND REMARKS
000122:                                                                                                  #        --------*--------------*                         -----------------------
000123:                                                                                                  #        RCV     * +29 FOR EARTH*DP TERMINAL POSITION VECTOR IN METERS
000124:                                                                                                  #                * +27 FOR MOON *
000125:                                                                                                  #        VCV     * +7 FOR EARTH *DP TERMINAL VELOCITY VECTOR IN METERS/CENTISEC
000126:                                                                                                  #                * +5 FOR MOON  *
000127:                                                                                                  #        TC      * +28          *DP TRANSFER TIME IN CENTISECS TO WHICH KEPLER CONVERGED.  ALWAYS LESS THAN ONE PERIOD.
000128:                                                                                                  #        XPREV   * +17 FOR EARTH*DP VALUE OF X IN SQRT(METERS) TO WHCIH KEPLER CONVERGED. ALWAYS LESS THAN THE X
000129:                                                                                                  #                * +16 FOR MOON *    CORRESPONDING TO ONE PERIOD.
000130:                                                                                                  #        FOR OTHER OUTPUT WHICH MAY BE OF USE, SEE DEBRIS.
000131:
000132:                                                                                                  #  DEBRIS -
000133:                                                                                                  #        PARAMETERS WHICH MAY BE OF USE -
000134:                                                                                                  #                * SCALE FACTOR *
000135:                                                                                                  #        VARIABLE*IN POWERS OF 2*                         DESCRIPTION AND REMARKS
000136:                                                                                                  #        --------*--------------*                         -----------------------
000137:                                                                                                  #        URRECT  * +1           *DP UNIT VECTOR OF INITIAL POSITION
000138:                                                                                                  #        R1      * +29 FOR EARTH*DP MAGNITUDE OF INITIAL POSITION IN METERS
000139:                                                                                                  #                * +27 FOR MOON *
000140:                                                                                                  #        ALPHA   * -22 FOR EARTH*DP INVERSE OF SEMIMAJOR AXIS IN 1/METERS
000141:                                                                                                  #                * -20 FOR MOON *
000142:                                                                                                  #        TMODULO * +28          *DP INTEGRAL NUMBER OF PERIODS IN CENTISECS. WHICH WAS SUBTRACTED FROM TAU. TO PRODUCE A
000143:                                                                                                  #                *              *TAU. OF LESS THAN ONE PERIOD.
000144:
000145:                                                                                                  #  PARAMETERS OF NO USE -
000146:                                                                                                  #        DP PARAMETERS - EPSILONT, DELX, DELT, RCNORM, XMODULO, PLUS PUSHLIST REGISTERS 0 THROUGH 39D.
000147:
000148:                                                                                                  #  PROGRAM DESCRIPTION - LAMBERT SUBROUTINE                      DATE - 1 SEPTEMBER 1967
000149:                                                                                                  #  MOD NO. - 0                                                   LOG SECTION - CONIC SUBROUTINES
000150:                                                                                                  #  MOD BY KRAUSE                                                 ASSEMBLY - COLOSSUS REVISION 88
000151:
000152:                                                                                                  #  FUNCTIONAL DESCRIPTION -
000153:                                                                                                  #        THIS SUBROUTINE CALCULATES THE INITIAL VELOCITY REQUIRED TO TRANSFER A POINT-MASS ALONG A CONIC TRAJECTORY
000154:                                                                                                  #        FROM AN INITIAL POSITION TO A TERMINAL POSITION IN A PRESCRIBED TIME INTERVAL.  THE RESULTING TRAJECTORY MAY BE
000155:                                                                                                  #        A SECTION OF A CIRCLE, ELLIPSE, PARABOLA, OR HYPERBOLA WITH RESPECT TO THE EARTH OR THE MOON.  THE USE OF THE
000156:                                                                                                  #        SUBROUTINE CAN BE EXTENDED USING OTHER PRIMARY BODIES BY SIMPLE ADDITIONS TO THE MUTABLE WITHOUT INTRODUCING ANY
000157:                                                                                                  #        CODING CHANGES, ACCEPTING THE INHERENT SCALE FACTOR CHANGES IN POSITION AND VELOCITY.  AN ITERATION TECHNIQUE IS
000158:                                                                                                  #        UTILIZED IN THE COMPUTATION.
000159:
000160:                                                                                                  #  THE RESTRICTIONS ARE -
000161:                                                                                                  #        1. RECTILINEAR TRAJECTORIES CANNOT BE COMPUTED.
000162:                                                                                                  #        2. AN ACCURACY DEGRADATION OCCURS AS THE COSINE OF THE TRUE ANOMALY DIFFERENCE APPROACHES +1.0.
000163:                                                                                                  #        3. THE ANGLE BETWEEN ANY POSITION VECTOR AND ITS VELOCITY VECTOR MUST BE GREATER THAN 1 DEGREE 47.5 MINUTES
000164:                                                                                                  #           AND LESS THAN 178 DEGREES 12.5 MINUTES.
000165:                                                                                                  #        4. NEGATIVE TRANSFER TIME IS AMBIGUOUS AND WILL RESULT IN NO SOLUTION.
000166:                                                                                                  #        5. THE PARAMETERS IN THE PROBLEM MUST NOT EXCEED THEIR SCALING LIMITS SPECIFIED IN THE GSOP.  IF THE
000167:                                                                                                  #           LIMITS ARE EXCEEDED, THE RESULTING SOLUTION WILL BE MEANINGLESS.
000168:
000169:                                                                                                  #        THE NUMBER OF ITERATIONS AND, THEREFORE, THE COMPUTATIONS SPEED IS DEPENDENT ON THE ACCURACY OF THE FIRST
000170:                                                                                                  #        GUESS OF THE INDEPENDENT VARIABLE, COGA.                           THE AGC COMPUTATION TIME IS APPROXIMATE-
000171:                                                                                                  #        LY .105 SECONDS FOR INITIALIZATION, .069 SECONDS FOR FINAL COMPUTATIONS, PLUS .205 SECONDS FOR EACH ITERATION.
000172:
000173:                                                                                                  #  REFERENCES -
000174:                                                                                                  #        R-479, MISSION PROGRAMMING DEFINITION MEMO NO. 10, LUNAR LANDING MISSION GSOP - SECTION 5.5, SGA MEMO 67-8,
000175:                                                                                                  #        SGA MEMO 67-4.
000176:
000177:                                                                                                  #  INPUT - ERASABLE INITIALIZATION REQUIRED
000178:                                                                                                  #                * SCALE FACTOR *
000179:                                                                                                  #        VARIABLE*IN POWERS OF 2*                         DESCRIPTION AND REMARKS
000180:                                                                                                  #        --------*--------------*                         -----------------------
000181:                                                                                                  #        R1VEC   * +29 FOR EARTH*DP INITIAL POSITION VECTOR IN METERS
000182:                                                                                                  #                * +27 FOR MOON *
000183:                                                                                                  #        R2VEC   * +29 FOR EARTH*DP TARGET OR TERMINAL POSITION VECTOR IN METERS
000184:                                                                                                  #                * +27 FOR MOON *
000185:                                                                                                  #        TDESIRED* +28          *DP DESIRED TRANSFER TIME IN CENTISECONDS
000186:                                                                                                  #        X1 (38D)* NONE         *INDEX REGISTER SET TO -2D OR -10D ACCORDING TO WHETHER THE EARTH OR MOON,
000187:                                                                                                  #                *              *RESPECTIVELY, IS THE CENTRAL BODY
000188:                                                                                                  #        GEOMSGN * NONE         *SP +.5 IF DESIRED TRANSFER ANGLE IS LESS THAN 180 DEGREES, -.5 IF GREATER THAN 180 DEG.
000189:                                                                                                  #        GUESSW  * NONE         *AN INTERPRETER SWITCH TO BE SET IF NO GUESS OF COGA IS AVAILABLE, CLEAR IF A GUESS OF
000190:                                                                                                  #                *              *COGA IS TO BE USED BY LAMBERT
000191:                                                                                                  #        COGA    * +5           *DP GUESS OF COTANGNT OF FLIGHT PATH ANGLE (MEASURED FROM VERTICAL).  THIS WILL BE
000192:                                                                                                  #                               *IGNORED IF GUESSW IS SET.
000193:                                                                                                  #        NORMSW  * NONE         *AN INTERPRETER SWITCH TO BE SET IF UN IS TO BE AN INPUT TO THE SUBROUTINE, CLEAR IF
000194:                                                                                                  #                *              *LAMBERT IS TO COMPUTE ITS OWN NORMAL (UN).
000195:                                                                                                  #        UN      * +1           *DP UNIT NORMAL TO THE DESIRED ORBIT PLANE IN THE DIRECTION OF THE RESULTING ANGULAR
000196:                                                                                                  #                *              *MOMENTUM VECTOR.  THIS WILL BE IGNORED IF NORMSW IS CLEAR.
000197:                                                                                                  #        VTARGTAG* NONE         *A S.P. TAG TO BE SET TO ZERO IF LAMBERT IS TO COMPUTE THE VELOCITY AT R2VEC AS WELL AS
000198:                                                                                                  #                *              *AT R1VEC.
000199:
000200:                                                                                                  #  SUBROUTINES CALLED -
000201:                                                                                                  #        GEOM, GETX, DELTIME, ITERATOR, LAMENTER (PART OF NEWSTATE)
000202:
000203:                                                                                                  #  CALLING SEQUENCE AND NORMAL EXIT MODES -
000204:                                                                                                  #        L       CALL                    MUST BE IN INTERPRETIVE MODE BUT OVFIND ARBITRARY.
000205:                                                                                                  #        L+1             LAMBERT         RETURNS WITH PL AT 0 AND WITH VVEC IN MPAC IF VTARGTAG WAS NON-ZERO OR VTARGET
000206:                                                                                                  #                                        IN MPAC IF VTARGTAG WAS ZERO
000207:                                                                                                  #        L+2     BON                     CONTINUE IF SOLNSW CLEAR SINCE SOLUTION IS ACCEPTABLE
000208:                                                                                                  #        L+3             SOLNSW
000209:                                                                                                  #        L+4             LAMABORT
000210:
000211:                                                                                                  #        IF A LAMBERT RESULT IS TO BE A FIRST GUESS FOR THE NEXT LAMBERT CALCULATION, COGA MUST BE PRESERVED AND
000212:                                                                                                  #        GUESSW MUST BE CLEAR FOR EACH SUCCEEDING LAMBERT CALL.
000213:
000214:                                                                                                  #  ABORT EXIT MODES -
000215:                                                                                                  #        IF SOLNSW WAS SET UPON EXITING, EITHER LAMBERT WAS ASKED TO COMPUTE A TRANSFER TOO NEAR 0 OR 360 DEG, OR T
000216:                                                                                                  #        WAS TOO SMALL TO PRODUCE A REALISTIC TRANSFER BETWEEN R1VEC AND R2VEC.  IN EITHER CASE THE FIX MUST BE MADE
000217:                                                                                                  #        ACCORDING TO THE NEEDS OF THE PARTICULAR USER.  THE ABORT EXIT MODE MAY BE CODED AS ...
000218:                                                                                                  #        LAMABORT        DLOAD   ABS             A MEASURE OF PROXIMITY TO 0 OR
000219:                                                                                                  #                                1-CSTH          360 DEGREES.
000220:                                                                                                  #                        DSU     BMN
000221:                                                                                                  #                                ONEBIT
000222:                                                                                                  #                                CHANGER2        CHANGE R2VEC DIRECTION SLIGHTLY.
000223:                                                                                                  #                        DLOAD   DAD
000224:                                                                                                  #                                TDESIRED
000225:                                                                                                  #                                SOMETIME
000226:                                                                                                  #                        STCALL  TDESIRED        INCREASE TDESIRED
000227:                                                                                                  #                                LAMBERT
000228:
000229:                                                                                                  #  OUTPUT -
000230:                                                                                                  #                * SCALE FACTOR *
000231:                                                                                                  #        VARIABLE*IN POWERS OF 2*                         DESCRIPTION AND REMARKS
000232:                                                                                                  #        --------*--------------*                         -----------------------
000233:                                                                                                  #        VVEC    * +7 FOR EARTH *DP INITIAL VELOCITY VECTOR IN METERS/CENTISECOND REQUIRED TO SATISFY THE BOUNDARY VALUE
000234:                                                                                                  #                * +5 FOR MOON  *PROBLEM.
000235:                                                                                                  #        VTARGET * +7 FOR EARTH *DP RESULTANT VELOCITY VECTOR AT R2VEC IN METERS/CENTISECOND.
000236:                                                                                                  #                * +5 FOR MOON  *
000237:                                                                                                  #        SOLNSW  * NONE         *INTERPRETER SWITCH WHICH IS SET IF THE SUBROUTINE CANNOT SOLVE THE PROBLEM, CLEAR IF THE
000238:                                                                                                  #                *              *SOLUTION EXISTS.
000239:
000240:                                                                                                  #        FOR OTHER OUTPUT WHICH MAY BE OF USE, SEE DEBRIS.
000241:
000242:                                                                                                  #  DEBRIS -
000243:                                                                                                  #        PARAMETERS WHICH MAY BE OF USE -
000244:                                                                                                  #                * SCALE FACTOR *
000245:                                                                                                  #        VARIABLE*IN POWERS OF 2*                         DESCRIPTION AND REMARKS
000246:                                                                                                  #        --------*--------------*                         -----------------------
000247:                                                                                                  #        SNTH    * +1           *DP SIN OF ANGLE BETWEEN R1VEC AND R2VEC
000248:                                                                                                  #        CSTH    * +1           *DP COSINE OF ANGLE
000249:                                                                                                  #        1-CSTH  * +2           *DP 1-CSTH
000250:                                                                                                  #        COGA    * +5           *DP COTAN OF INITIAL REQUIRED FLIGHT PATH ANGLE MEASURED FROM VERTICAL
000251:                                                                                                  #        P       * +4           *DP RATIO OF SEMILATUS RECTUM TO INITIAL RADIUS
000252:                                                                                                  #        R1A     * +6           *DP RATIO OF INITIAL RADIUS TO SEMIMAJOR AXIS
000253:                                                                                                  #        R1 (32D)* +29 FOR EARTH*DP INITIAL RADIUS IN METERS
000254:                                                                                                  #                * +27 FOR MOON *
000255:                                                                                                  #        UR1     * +1           *DP UNIT VECTOR OF R1VEC
000256:                                                                                                  #        U2      * +1           *DP UNIT VECTOR OF R2VEC
000257:
000258:                                                                                                  #        PARAMETERS OF NO USE
000259:                                                                                                  #                DP PARAMETERS - EPSILONL, CSTH-RHO, TPREV, TERRLAMB, R2, RTNLAMB (SP), PLUS PUSHLIST REGISTER 0 THROUGH 41D
000260:                                                                                                  #                ADDITIONAL INTERPRETIVE SWITCHES USED - INFINFLG, 360SW, SLOPESW, ORDERSW
000261:
000262:                                                                                                  #  PROGRAM DESCRIPTION - TIME-THETA SUBROUTINE                   DATE - 1 SEPTEMBER 1967
000263:                                                                                                  #  MOD NO. - 0                                                   LOG SECTION - CONIC SUBROUTINES
000264:                                                                                                  #  MOD BY KRAUSE                                                 ASSEMBLY - COLOSSUS REVISION 88
000265:
000266:                                                                                                  #  FUNCTIONAL DESCRIPTION -
000267:                                                                                                  #        THIS SUBROUTINE, GIVEN AN INITIAL STATE VECTOR AND A DESIRED TRUE-ANOMALY-DIFFERENCE THROUGH WHICH THE
000268:                                                                                                  #        STATE IS TO BE UPDATED ALONG A CONIC TRAJECTORY, CALCULATES THE CORRESPONDING TIME-OF-FLIGHT AND, IN ADDITION,
000269:                                                                                                  #        PROVIDES THE OPTION OF COMPUTING THE NEW UPDATED STATE VECTOR.  THE RESULTING TRAJECTORY MAY BE A SECTION OF A
000270:                                                                                                  #        CIRCLE, ELLIPSE, PARABOLA, OR HYPERBOLA WITH RESPECT TO THE EARTH OR THE MOON.  THE USE OF THE SUBROUTINE CAN BE
000271:                                                                                                  #        EXTENDED USING OTHER PRIMARY BODIES BY SIMPLE ADDITIONS TO THE MUTABLE WITHOUT INTRODUCING ANY CODING CHANGES,
000272:                                                                                                  #        ACCEPTING THE INHERENT SCALE FACTOR CHANGES IN POSITION AND VELOCITY.
000273:
000274:                                                                                                  #  THE RESTRICTIONS ARE -
000275:                                                                                                  #        1. THE ANGLE BETWEEN ANY POSITION VECTOR AND ITS VELOCITY VECTOR MUST BE GREATER THAN 1 DEGREE 47.5 MINUTES
000276:                                                                                                  #           AND LESS THAN 178 DEGREES 12.5 MINUTES.
000277:                                                                                                  #        2. THE PARAMETERS IN THE PROBLEM MUST NOT EXCEED THEIR SCALING LIMITS SPECIFIED IN THE GSOP.  IF THE LIMITS
000278:                                                                                                  #           ARE EXCEEDED, THE RESULTING SOLUTION WILL BE MEANINGLESS.
000279:
000280:                                                                                                  #        THE AGC COMPUTATION TIME IS APPROXIMATELY .292 SECONDS.
000281:
000282:                                                                                                  #  REFERENCES -
000283:                                                                                                  #        R-479, MISSION PROGRAMMING DEFINITION MEMO NO. 10, LUNAR LANDING MISSION GSOP-SECTION 5.5, SGA MEMO 67-8.
000284:
000285:                                                                                                  #  INPUT - ERASABLE INITIALIZATION REQUIRED
000286:                                                                                                  #                * SCALE FACTOR *
000287:                                                                                                  #        VARIABLE*IN POWERS OF 2*                         DESCRIPTION AND REMARKS
000288:                                                                                                  #        --------*--------------*                         -----------------------
000289:                                                                                                  #        RVEC    * +29 FOR EARTH*DP INITIAL POSITION VECTOR IN METERS
000290:                                                                                                  #                * +27 FOR MOON *
000291:                                                                                                  #        VVEC    * +7 FOR EARTH *DP INITIAL VELOCITY VECTOR IN METERS/CENTISECOND
000292:                                                                                                  #                * +5 FOR MOON  *
000293:                                                                                                  #        SNTH    * +1           *DP SINE OF TRUE-ANOMALY-DIFFERENCE THROUGH WHICH THE STATE IS TO BE UPDATED
000294:                                                                                                  #        CSTH    * +1           *DP COSINE OF THE ANGLE
000295:                                                                                                  #        RVSW    * NONE         *AN INTERPRETIVE SWITCH TO BE SET IF ONLY TIME IS TO BE AN OUTPUT, CLEAR IF THE NEW STATE
000296:                                                                                                  #                *              *IS TO BE COMPUTED ALSO.
000297:                                                                                                  #        X1 (38D)* NONE         *INDEX REGISTER TO BE SET TO -2D OR -10D ACCORDING TO WHETHER THE EARTH OR MOON,
000298:                                                                                                  #                *              *RESPECTIVELY, IS THE CENTRAL BODY.
000299:
000300:                                                                                                  #  SUBROUTINES CALLED -
000301:                                                                                                  #        PARAM, GEOM, GETX, DELTIME, NEWSTATE
000302:
000303:                                                                                                  #  CALLING SEQUENCE AND NORMAL EXIT MODES -
000304:                                                                                                  #        IF ONLY TIME IS DESIRED AS OUTPUT -
000305:                                                                                                  #        L       SET     CALL            MUST BE IN INTERPRETIVE MODE BUT OVFIND ARBITRARY.
000306:                                                                                                  #        L+1             RVSW
000307:                                                                                                  #        L+2             TIMETHET        RETURN WITH PL AT 0 AND T IN MPAC
000308:                                                                                                  #        L+3     ...                     CONTINUE
000309:
000310:                                                                                                  #        IF THE UPDATE STATE VECTOR IS DESIRED AS WELL -
000311:                                                                                                  #        L       CLEAR   CALL            MUST BE IN INTERPRETIVE MODE BUT OVFIND ARBITRARY.
000312:                                                                                                  #        L+1             RVSW
000313:                                                                                                  #        L+2             TIMETHET        RETURNS WITH PL AT 6.  THE INITIAL POSITION VECTOR IS IN 0D OF THE PUSHLIST AND
000314:                                                                                                  #                                        THE INITIAL VELOCITY VECTOR IN MPAC.
000315:                                                                                                  #        L+3     STOVL   NEWVVEC
000316:                                                                                                  #        L+4     STADR
000317:                                                                                                  #        L+5     STORE   NEWRVEC         NEWVVEC AND NEWRVEC ARE SYMBOLIC REPRESENTATIONS OF THE USERS LOCATIONS.
000318:                                                                                                  #        L+6     ...                     CONTINUE
000319:
000320:                                                                                                  #  ABORT EXIT MODES -
000321:                                                                                                  #        IF COGAFLAG AND/OR INFINFLG IS SET AT THE EXIT TO TIME-THETA, TIME-THETA WILL TRANSFER TO POODOO WITH
000322:                                                                                                  #        AN ALARM CODE (ORIGINALLY 00607), AND NOT RETURN TO THE CALLING PROGRAM.  (PCR 692 AND 721).
000323:
000324:                                                                                                  #  OUTPUT -
000325:                                                                                                  #                * SCALE FACTOR *
000326:                                                                                                  #        VARIABLE*IN POWERS OF 2*                         DESCRIPTION AND REMARKS
000327:                                                                                                  #        --------*--------------*                         -----------------------
000328:                                                                                                  #        T(30D)  * +28          *DP TRANSFER TIME IN CENTISECONDS
000329:                                                                                                  #        INFINFLG* NONE         *AN INTERPRETIVE SWITCH WHICH IS SET IF THE TRANSFER ANGLE REQUIRES CLOSURE THROUGH
000330:                                                                                                  #                *              *INFINITY (NO SOLUTION), CLEAR IF A PHYSICAL SOLUTION IS POSSIBLE.
000331:                                                                                                  #        COGAFLAG* NONE         *AN INTERPRETIVE SWITCH WHICH IS SET IF RESTRICTION 1 HAS BEEN VIOLATED (NO SOLUTION),
000332:                                                                                                  #                *              *CLEAR IF NOT.
000333:
000334:                                                                                                  #        IN ADDITION, IF RVSW IS CLEAR, THE FOLLOWING ARE OUTPUT -
000335:                                                                                                  #        MPAC -  * +7 FOR EARTH *DP TERMINAL VELOCITY VECTOR IN METERS/CENTISEC.
000336:                                                                                                  #         MPAC +5* +5 FOR MOON  *
000337:                                                                                                  #        0D - 5D * +29 FOR EARTH*DP TERMINAL POSITION VECTOR IN METERS (PL AT 6D)
000338:                                                                                                  #                * +27 FOR MOON *
000339:
000340:                                                                                                  #        FOR OTHER OUTPUT WHICH MAY BE OF USE, SEE DEBRIS.
000341:
000342:                                                                                                  #  DEBRIS -
000343:                                                                                                  #        PARAMETERS WHICH MAY BE OF USE -
000344:                                                                                                  #                * SCALE FACTOR *
000345:                                                                                                  #        VARIABLE*IN POWERS OF 2*                         DESCRIPTION AND REMARKS
000346:                                                                                                  #        --------*--------------*                         -----------------------
000347:                                                                                                  #        R1 (32D)* +29 FOR EARTH*DP MAGNITUDE OF INITIAL POSITION VECTOR, RVEC, IN METERS
000348:                                                                                                  #                * +27 FOR MOON *
000349:                                                                                                  #        R1A     * +6           *DP RATIO OF R1 TO SEMIMAJOR AXIS (NEG. FOR HYPERBOLIC TRAJECTORIES)
000350:                                                                                                  #        P       * +4           *DP RATIO OF SEMILATUS RECTUM TO R1
000351:                                                                                                  #        COGA    * +5           *DP COTAN OF ANGLE BETWEEN RVEC AND VVEC
000352:                                                                                                  #        UR1     * +1           *DP UNIT VECTOR OF RVEC
000353:                                                                                                  #        U2      * +1           *DP UNIT VECTOR OF VVEC
000354:                                                                                                  #        UN      * +1           *DP UNIT VECTOR OF UR1*U2
000355:
000356:                                                                                                  #  PARAMETERS OF NO USE -
000357:                                                                                                  #        SP PARAMETERS - RTNTT, GEOMSGN, RTNPRM, MAGVEC2=R2 (DP), PLUS PUSHLIST LOCATIONS 0-11D, 14D-21D, 24D-39D, 41D
000358:                                                                                                  #        ADDITIONAL INTERPRETIVE SWITCHES USED - NORMSW, 360SW
000359:
000360:                                                                                                  #  PROGRAM DESCRIPTION - TIME-RADIUS SUBROUTINE          DATE - 11 OCTOBER 1967
000361:                                                                                                  #  MOD NO. -1                                            LOG SECTION - CONIC SUBROUTINES
000362:                                                                                                  #  MOD BY KRAUSE                                         ASSEMBLY - COLOSSUS REVISION 88
000363:
000364:                                                                                                  #  FUNCTIONAL DESCRIPTION -
000365:                                                                                                  #        THIS SUBROUTINE, GIVEN AN INITIAL STATE VECTOR AND A DESIRED RADIUS TO WHICH THE
000366:                                                                                                  #        STATE IS TO BE UPDATED ALONG A CONIC TRAJECTORY, CALCULATES THE CORRESPONDING TIME-OF-FLIGHT AND, IN ADDITION,
000367:                                                                                                  #        PROVIDES THE OPTION OF COMPUTING THE NEW UPDATED STATE VECTOR.  THE RESULTING TRAJECTORY MAY BE A SECTION OF A
000368:                                                                                                  #        CIRCLE, ELLIPSE, PARABOLA, OR HYPERBOLA WITH RESPECT TO THE EARTH OR THE MOON.  THE USE OF THE SUBROUTINE CAN BE
000369:                                                                                                  #        EXTENDED USING OTHER PRIMARY BODIES BY SIMPLE ADDITIONS TO THE MUTABLE WITHOUT INTRODUCING ANY CODING CHANGES,
000370:                                                                                                  #        ACCEPTING THE INHERENT SCALE FACTOR CHANGES IN POSITION AND VELOCITY.
000371:
000372:                                                                                                  #        IF THE DESIRED RADIUS IS BEYOND THE RADIUS OF APOCENTER OF THE CONIC OR BELOW THE RADIUS OF PERICENTER,
000373:                                                                                                  #        APSESW WILL BE SET AND THE SUBROUTINE WILL RETURN THE APOCENTER OR PERICENTER SOLUTION, RESPECTIVELY.
000374:
000375:                                                                                                  #  THE RESTRICTIONS ARE -
000376:                                                                                                  #        1. THE ANGLE BETWEEN ANY POSITION VECTOR AND ITS VELOCITY VECTOR MUST BE GREATER THAN 1 DEGREE 47.5 MINUTES
000377:                                                                                                  #           AND LESS THAN 178 DEGREES 12.5 MINUTES.
000378:                                                                                                  #        2. THE PARAMETERS IN THE PROBLEM MUST NOT EXCEED THEIR SCALING LIMITS SPECIFIED IN THE GSOP.  IF THE LIMITS
000379:                                                                                                  #           ARE EXCEEDED, THE RESULTING SOLUTION WILL BE MEANINGLESS.
000380:                                                                                                  #        3. AN ACCURACY DEGRADATION OCCURS AS THE SENSITIVITIES OF TIME AND UPDATED STATE VECTOR TO CHANGES IN
000381:                                                                                                  #           RDESIRED INCREASE.  THIS WILL OCCUR NEAR EITHER APSIS OF THE CONIC AND WHEN THE CONIC IS NEARLY CIRCULAR.  IN
000382:                                                                                                  #           PARTICULAR, IF THE CONIC IS AN EXACT CIRCLE, THE PROBLEM IS UNDEFINED AND THE SUBROUTINE WILL ABORT.
000383:
000384:                                                                                                  #        THE AGC COMPUTATION TIME IS APPROXIMATELY .363 SECONDS
000385:
000386:                                                                                                  #  REFERENCES -
000387:                                                                                                  #        R-479, MISSION PROGRAMMING DEFINITION MEMO NO. 10, LUNAR LANDING MISSION GSOP-SECTION 5.5, SGA MEMO 67-8.
000388:
000389:                                                                                                  #  INPUT - ERASABLE INITIALIZATION REQUIRED
000390:                                                                                                  #                * SCALE FACTOR *
000391:                                                                                                  #        VARIABLE*IN POWERS OF 2*                         DESCRIPTION AND REMARKS
000392:                                                                                                  #        --------*--------------*                         -----------------------
000393:                                                                                                  #        RVEC    * +29 FOR EARTH*DP INITIAL POSITION VECTOR IN METERS
000394:                                                                                                  #                * +27 FOR MOON *
000395:                                                                                                  #        VVEC    * +7 FOR EARTH *DP INITIAL VELOCITY VECTOR IN METERS/CENTISECOND
000396:                                                                                                  #                * +5 FOR MOON  *
000397:                                                                                                  #        RDESIRED* +29 FOR EARTH*DP TERMINAL RADIAL DISTANCE ON CONIC TRAJECTORY FOR WHICH TRANSFER TIME IS TO BE
000398:                                                                                                  #                * +27 FOR MOON *COMPUTED.
000399:                                                                                                  #        SGNRDOT * NONE         *SP TAG SET TO +.5 OR -.5 ACCORDING TO WHETHER THE RADIAL VELOCITY AT RDESIRED IS TO BE
000400:                                                                                                  #                *              *POSITIVE OR NEGATIVE, RESPECTIVELY.   THIS TAG REDUCES THE DOUBLE-VALUED PROBLEM TO A
000401:                                                                                                  #                *              *SINGLE-VALUED PROBLEM.
000402:                                                                                                  #        X1 (38D)* NONE         *INDEX REGISTER TO BE SET TO -2D OR -10D ACCORDING TO WHETHER THE EARTH OR MOON,
000403:                                                                                                  #                *              *RESPECTIVELY, IS THE CENTRAL BODY.
000404:                                                                                                  #        RVSW    * NONE         *AN INTERPRETIVE SWITCH TO BE SET IF ONLY TIME IS TO BE AN OUTPUT, CLEAR IF THE NEW STATE
000405:                                                                                                  #                *              *IS TO BE COMPUTED ALSO.
000406:
000407:                                                                                                  #  SUBROUTINES CALLED -
000408:                                                                                                  #        PARAM, GEOM, GETX, DELTIME, NEWSTATE
000409:
000410:                                                                                                  #  CALLING SEQUENCE AND NORMAL EXIT MODES -
000411:                                                                                                  #        IF ONLY TIME IS DESIRED AS OUTPUT -
000412:                                                                                                  #        L       SET     CALL            MUST BE IN INTERPRETIVE MODE BUT OVFIND ARBITRARY.
000413:                                                                                                  #        L+1             RVSW
000414:                                                                                                  #        L+2             TIMERAD         RETURN WITH PL AT 0 AND T IN MPAC
000415:                                                                                                  #        L+3     ...                     CONTINUE
000416:
000417:                                                                                                  #        IF THE UPDATE STATE VECTOR IS DESIRED AS WELL -
000418:                                                                                                  #        L       CLEAR   CALL            MUST BE IN INTERPRETIVE MODE BUT OVFIND ARBITRARY.
000419:                                                                                                  #        L+1             RVSW
000420:                                                                                                  #        L+2             TIMERAD         RETURNS WITH PL AT 6.  THE INITIAL POSITION VECTOR IS IN 0D OF THE PUSHLIST AND
000421:                                                                                                  #                                        THE INITIAL VELOCITY VECTOR IN MPAC.
000422:                                                                                                  #        L+3     STOVL   NEWVVEC
000423:                                                                                                  #        L+4     STADR
000424:                                                                                                  #        L+5     STORE   NEWRVEC         NEWVVEC AND NEWRVEC ARE SYMBOLIC REPRESENTATIONS OF THE USERS LOCATIONS.
000425:                                                                                                  #        L+6     ...                     CONTINUE
000426:
000427:                                                                                                  #  ABORT EXIT MODES -
000428:                                                                                                  #        IF SOLNSW AND/OR COGAFLAG AND/OR INFINFLG IS SET AT THE EXIT TO TIME-RADIUS, TIME-RADIUS WILL TRANSFER
000429:                                                                                                  #        TO POODOO WITH AN ALARM CODE (ORIGINALLY 00607), AND NOT RETURN TO THE CALLING PROGRAM.  (PCR 692 & 721)
000430:
000431:                                                                                                  #  OUTPUT -
000432:                                                                                                  #                * SCALE FACTOR *
000433:                                                                                                  #        VARIABLE*IN POWERS OF 2*                         DESCRIPTION AND REMARKS
000434:                                                                                                  #        --------*--------------*                         -----------------------
000435:                                                                                                  #        T (30D) * +28          *DP TRANSFER TIME IN CENTISECONDS
000436:                                                                                                  #        INFINFLG* NONE         *AN INTERPRETIVE SWITCH WHICH IS SET IF RDESIRED AND SGNRDOT REQUIRE CLOSURE THROUGH
000437:                                                                                                  #                *              *INFINITY (NO SOLUTION), CLEAR IF A PHYSICAL SOLUTION IS POSSIBLE.
000438:                                                                                                  #        COGAFLAG* NONE         *AN INTERPRETIVE SWITCH WHICH IS SET IF RESTRICTION 1 HAS BEEN VIOLATED (NO SOLUTION),
000439:                                                                                                  #                *              *CLEAR IF NOT.
000440:                                                                                                  #        APSESW  * NONE         *AN INTERPRETIVE SWITCH WHICH IS SET IF RDESIRED WAS GREATER THAN RADIUS OF APOCENTER OR
000441:                                                                                                  #                *              *LESS THAN RADIUS OF PERICENTER.  THE APOCENTER OR PERICENTER SOLUTION, RESPECTIVELY,
000442:                                                                                                  #                *              *WILL THEN BE RETURNED.  THE SWITCH IS CLEAR IF RDESIRED WAS BETWEEN PERICENTER AND
000443:                                                                                                  #                *              *APOCENTER.
000444:                                                                                                  #        SOLNSW  * NONE         *AN INTERPRETIVE SWITCH WHICH IS SET IF THE CONIC IS SO CLOSE TO A CIRCLE THAT THE TERMIN
000445:                                                                                                  #                               *POINT IS AMBIGUOUS, VIOLATING RESTRICTION 3.  IF ECCENTRICITY IS GREATER THAN 2-TO-THE-
000446:                                                                                                  #                               *MINUS-18, THE SWITCH IS CLEAR.
000447:
000448:                                                                                                  #        IN ADDITION, IF RVSW IS CLEAR, THE FOLLOWING ARE OUTPUT -
000449:                                                                                                  #        MPAC -  * +7 FOR EARTH *DP TERMINAL VELOCITY VECTOR IN METERS/CENTISEC.
000450:                                                                                                  #         MPAC +5* +5 FOR MOON  *
000451:                                                                                                  #        0D - 5D * +29 FOR EARTH*DP TERMINAL POSITION VECTOR IN METERS (PL AT 6D)
000452:                                                                                                  #                * +27 FOR MOON *
000453:
000454:                                                                                                  #        FOR OTHER OUTPUT WHICH MAY BE OF USE, SEE DEBRIS.
000455:
000456:                                                                                                  #  DEBRIS -
000457:                                                                                                  #        PARAMETERS WHICH MAY BE OF USE -
000458:                                                                                                  #                * SCALE FACTOR *
000459:                                                                                                  #        VARIABLE*IN POWERS OF 2*                         DESCRIPTION AND REMARKS
000460:                                                                                                  #        --------*--------------*                         -----------------------
000461:                                                                                                  #        R1 (32D)* +29 FOR EARTH*DP MAGNITUDE OF INITIAL POSITION VECTOR, RVEC, IN METERS
000462:                                                                                                  #                * +27 FOR MOON *
000463:                                                                                                  #        R1A     * +6           *DP RATIO OF R1 TO SEMIMAJOR AXIS (NEG. FOR HYPERBOLIC TRAJECTORIES)
000464:                                                                                                  #        P       * +4           *DP RATIO OF SEMILATUS RECTUM TO R1
000465:                                                                                                  #        COGA    * +5           *DP COTAN OF ANGLE BETWEEN RVEC AND VVEC
000466:                                                                                                  #        UR1     * +1           *DP UNIT VECTOR OF RVEC
000467:                                                                                                  #        U2      * +1           *DP UNIT VECTOR OF VVEC
000468:                                                                                                  #        UN      * +1           *DP UNIT VECTOR OF UR1*U2
000469:                                                                                                  #        CSTH    * +1           *DP COSINE OF TRUE ANOMALY DIFFERENCE BETWEEN RVEC AND RDESIRED.
000470:                                                                                                  #        SNTH    * +1           *DP SINE OF TRUE ANOMALY DIFFERENCE.
000471:
000472:                                                                                                  #        PARAMETERS OF NO USE -
000473:                                                                                                  #                SP PARAMETERS - RTNTT, GEOMSGN, RTNPRM, MAGVEC2=R2 (DP), PLUS PUSHLIST LOCATIONS 0-11D, 14D-21D, 24D-39D, 41D
000474:                                                                                                  #                ADDITIONAL INTERPRETIVE SWITCHES USED - NORMSW, 360SW
000475:
000476:
000477:                                                                                                  #  PROGRAM DESCRIPTION - APSIDES SUBROUTINE              DATE - 1 SEPTEMBER 1967
000478:                                                                                                  #  MOD NO. - 0                                           LOG SECTION - CONIC SUBROUTINES
000479:                                                                                                  #  MOD BY KRAUSE                                         ASSEMBLY - COLOSSUS REVISION 88
000480:
000481:                                                                                                  #  FUNCTIONAL DESCRIPTION -
000482:                                                                                                  #        THIS SUBROUTINE, GIVEN AN INITIAL STATE VECTOR CALCULATES THE RADIUS OF PERICENTER AND OF APOCENTER AND THE
000483:                                                                                                  #        ECCENTRICITY OF THE RESULTING CONIC TRAJECTORY, WHICH MAY BE A STRAIGHT LINE,
000484:                                                                                                  #        CIRCLE, ELLIPSE, PARABOLA, OR HYPERBOLA WITH RESPECT TO THE EARTH OR THE MOON.  THE USE OF THE SUBROUTINE CAN BE
000485:                                                                                                  #        EXTENDED USING OTHER PRIMARY BODIES BY SIMPLE ADDITIONS TO THE MUTABLE WITHOUT INTRODUCING ANY CODING CHANGES,
000486:                                                                                                  #        ACCEPTING THE INHERENT SCALE FACTOR CHANGES IN POSITION AND VELOCITY.
000487:
000488:                                                                                                  #  THE RESTRICTIONS ARE -
000489:                                                                                                  #        1. IF APOCENTER IS BEYOND THE SCALING OF POSITION, THE SCALE FACTOR LIMIT (536,870,910 METERS WITH RESPECT
000490:                                                                                                  #           TO THE EARTH OR 134,217,727.5 METERS WITH RESPECT TO THE MOON) WILL BE RETURNED.
000491:                                                                                                  #        2. THE PARAMETERS IN THE PROBLEM MUST NOT EXCEED THEIR SCALING LIMITS SPECIFIED IN THE GSOP.  IF THE LIMITS
000492:                                                                                                  #           ARE EXCEEDED, THE RESULTING SOLUTION WILL BE MEANINGLESS.
000493:
000494:                                                                                                  #        THE AGC COMPUTATION TIME IS APPROXIMATELY .103 SECONDS.
000495:
000496:                                                                                                  #  REFERENCES -
000497:                                                                                                  #        MISSION PROGRAMMING DEFINITION MEMO NO. 10, LUNAR LANDING MISSION GSOP-SECTION 5.5
000498:
000499:                                                                                                  #  INPUT - ERASABLE INITIALIZATION REQUIRED
000500:                                                                                                  #                * SCALE FACTOR *
000501:                                                                                                  #        VARIABLE*IN POWERS OF 2*                         DESCRIPTION AND REMARKS
000502:                                                                                                  #        --------*--------------*                         -----------------------
000503:                                                                                                  #        RVEC    * +29 FOR EARTH*DP INITIAL POSITION VECTOR IN METERS
000504:                                                                                                  #                * +27 FOR MOON *
000505:                                                                                                  #        VVEC    * +7 FOR EARTH *DP INITIAL VELOCITY VECTOR IN METERS/CENTISECOND
000506:                                                                                                  #                * +5 FOR MOON  *
000507:                                                                                                  #        X1 (38D)* NONE         *INDEX REGISTER TO BE SET TO -2D OR -10D ACCORDING TO WHETHER THE EARTH OR MOON,
000508:                                                                                                  #                *              *RESPECTIVELY, IS THE CENTRAL BODY.
000509:
000510:                                                                                                  #  SUBROUTINES CALLED -
000511:                                                                                                  #        PARAM, GEOM
000512:
000513:                                                                                                  #  CALLING SEQUENCE AND NORMAL EXIT MODES -
000514:                                                                                                  #        IF ONLY TIME IS DESIRED AS OUTPUT -
000515:                                                                                                  #        L       CALL                    MUST BE IN INTERPRETIVE MODE BUT OVFIND ARBITRARY.
000516:                                                                                                  #        L+1             APSIDES         RETURNS WITH PL AT 0, RADIUS OF APOCENTER IN MPAC AND RADIUS OF PERICENTER IN 0D
000517:                                                                                                  #        L+2     STODL   APOAPSE
000518:                                                                                                  #        L+3             0D
000519:                                                                                                  #        L+4     STORE   PERIAPSE        APOAPSE AND PERIAPSE ARE SYMBOLIC REPRESENTATIONS OF THE USERS LOCATIONS
000520:                                                                                                  #        L+5     ...                     CONTINUE
000521:
000522:                                                                                                  #  OUTPUT -
000523:                                                                                                  #                * SCALE FACTOR *
000524:                                                                                                  #        VARIABLE*IN POWERS OF 2*                         DESCRIPTION AND REMARKS
000525:                                                                                                  #        --------*--------------*                         -----------------------
000526:                                                                                                  #        MPAC    * +29 FOR EARTH*DP RADIUS OF APOCENTER IN METERS
000527:                                                                                                  #                * +27 FOR MOON *
000528:                                                                                                  #        0D-1D   * +29 FOR EARTH*DP RADIUS OF PERICENTER IN METERS
000529:                                                                                                  #                * +27 FOR MOON *
000530:                                                                                                  #        ECC     * +3           *DP ECCENTRICITY OF CONIC TRAJECTORY.
000531:
000532:                                                                                                  #        FOR OTHER OUTPUT WHICH MAY BE OF USE, SEE DEBRIS.
000533:
000534:                                                                                                  #  DEBRIS -
000535:                                                                                                  #        PARAMETERS WHICH MAY BE OF USE -
000536:                                                                                                  #                * SCALE FACTOR *
000537:                                                                                                  #        VARIABLE*IN POWERS OF 2*                         DESCRIPTION AND REMARKS
000538:                                                                                                  #        --------*--------------*                         -----------------------
000539:                                                                                                  #        R1 (32D)* +29 FOR EARTH*DP MAGNITUDE OF INITIAL POSITION VECTOR, RVEC, IN METERS
000540:                                                                                                  #                * +27 FOR MOON *
000541:                                                                                                  #        R1A     * +6           *DP RATIO OF R1 TO SEMIMAJOR AXIS (NEG. FOR HYPERBOLIC TRAJECTORIES)
000542:                                                                                                  #        P       * +4           *DP RATIO OF SEMILATUS RECTUM TO R1
000543:                                                                                                  #        COGA    * +5           *DP COTAN OF ANGLE BETWEEN RVEC AND VVEC
000544:                                                                                                  #        UR1     * +1           *DP UNIT VECTOR OF RVEC
000545:                                                                                                  #        U2      * +1           *DP UNIT VECTOR OF VVEC
000546:                                                                                                  #        UN      * +1           *DP UNIT VECTOR OF UR1*U2
000547:                                                                                                  #        MAGVEC2 * +7 FOR EARTH *DP MAGNITUDE OF VVEC
000548:                                                                                                  #                * +5 FOR MOON  *
000549:
000550:                                                                                                  #        PARAMETERS OF NO USE -
000551:                                                                                                  #                SP PARAMETERS - RTNAPSE, GEOMSGN, RTNPRM, PLUS PUSHLIST LOCATIONS 0-5, 10D-11D, 14D-21D, 31D-38D.
000552:                                                                                                  #                ADDITIONAL INTERPRETIVE SWITCHES USED - NORMSW
000553:
000554: 12,2000                                           SETLOC   CONICS
000555: 12,2000                                           BANK
000556:
000557: 12,2042                                           COUNT    12/CONIC
000558:
000559: 12,2042  E5,1723                                  EBANK=   UR1
000560: 12,2042           40001        KEPLERN            SETPD    BOV
000561: 12,2043           00001                                    0
000562: 12,2044           24045                                    +1
000563: 12,2045           77773                           VLOAD*
000564: 12,2046           11740                                    MUTABLE,1
000565: 12,2047           24017                           STOVL    14D
000566: 12,2050           01503                                    RRECT
000567: 12,2051           66256                           UNIT     SSP
000568: 12,2052           00027                                    ITERCTR
000569: 12,2053           00024                                    20D
000570: 12,2054           16647                           STODL    URRECT
000571: 12,2055           00045                                    36D
000572: 12,2056           24041                           STOVL    R1
000573: 12,2057           01503                                    RRECT
000574: 12,2060           76441                           DOT      SL1R
000575: 12,2061           01511                                    VRECT
000576: 12,2062           76405                           DMP      SL1R
000577: 12,2063           00023                                    1/ROOTMU                              #  1/ROOTMU (-17 OR -14)
000578: 12,2064           24043                           STOVL    KEPC1                                 #  C1=R.V/ROOTMU (+17 OR +16)
000579:
000580: 12,2065           01511                                    VRECT
000581: 12,2066           57236                           VSQ      DMPR
000582: 12,2067           00017                                    1/MU                                  #  1/MU (-34 OR -28)
000583: 12,2070           52405                           DMP      SL3
000584: 12,2071           00041                                    R1
000585: 12,2072           61425                           DSU      ROUND
000586: 12,2073           11610                                    D1/64
000587: 12,2074           00045                           STORE    KEPC2                                 #  C2=RV.V/MU -1 (+6)
000588:
000589: 12,2075           74421                           BDSU     SR1R
000590: 12,2076           11610                                    D1/64
000591: 12,2077           77671                           DDV
000592: 12,2100           00041                                    R1
000593: 12,2101           00011                           STORE    ALPHA                                 #  ALPHA=(1-C2)/R1 (-22 OR -20)
000594:
000595: 12,2102           71244                           BPL      DLOAD                                 #  MAXIMUM X DEPENDS ON TYPE OF CONIC
000596: 12,2103           24112                                    1REV
000597: 12,2104           11626                                    -50SC                                 #  -50SC (+12)
000598: 12,2105           40071                           DDV      BOV
000599: 12,2106           00011                                    ALPHA
000600: 12,2107           24116                                    STOREMAX
000601: 12,2110           52166                           SQRT     GOTO
000602: 12,2111           24116                                    STOREMAX
000603: 12,2112           55366        1REV               SQRT     BDDV
000604: 12,2113           11630                                    2PISC                                 #  2PISC (+6)
000605: 12,2114           77600                           BOV
000606: 12,2115           24116                                    STOREMAX
000607: 12,2116           00013        STOREMAX           STORE    XMAX
000608: 12,2117           65205                           DMP      PDDL
000609: 12,2120           00023                                    1/ROOTMU
000610: 12,2121           00011                                    ALPHA
000611: 12,2122           65301                           NORM     PDDL
000612: 12,2123           00047                                    X1
000613: 12,2124           56257                           SL*      DDV
000614: 12,2125           20173                                    0          -6,1
000615: 12,2126           50000                           BOV      BMN
000616: 12,2127           24143                                    MODDONE
000617: 12,2130           24143                                    MODDONE                               #  MPAC=PERIOD
000618: 12,2131           51525        PERIODCH           PDDL     ABS                                   #  0D=PERIOD
000619: 12,2132           02312                                    TAU.
000620: 12,2133           50025                           DSU      BMN
000621: 12,2134           00001                                    0D
000622: 12,2135           24143                                    MODDONE
000623: 12,2136           77765                           SIGN
000624: 12,2137           02312                                    TAU.
000625: 12,2140           16312                           STODL    TAU.
000626: 12,2141           77650                           GOTO
000627: 12,2142           24131                                    PERIODCH
000628: 12,2143           71201        MODDONE            SETPD    DLOAD
000629: 12,2144           00001                                    0
000630: 12,2145           02306                                    XKEPNEW
000631: 12,2146           00025                           STORE    X
000632: 12,2147           53165                           SIGN     BZE
000633: 12,2150           02312                                    TAU.
000634: 12,2151           24320                                    BADX
000635: 12,2152           51440                           BMN      ABS
000636: 12,2153           24320                                    BADX
000637: 12,2154           51025                           DSU      BPL
000638: 12,2155           00013                                    XMAX
000639: 12,2156           24320                                    BADX
000640: 12,2157           51145        STORBNDS           DLOAD    BPL
000641: 12,2160           02312                                    TAU.
000642: 12,2161           24170                                    STOREMIN
000643: 12,2162           57545                           DLOAD    DCOMP
000644: 12,2163           00013                                    XMAX
000645: 12,2164           14015                           STODL    XMIN
000646: 12,2165           11566                                    KEPZERO
000647: 12,2166           34013                           STCALL   XMAX
000648: 12,2167           24173                                    DXCOMP
000649: 12,2170           77745        STOREMIN           DLOAD
000650: 12,2171           11566                                    KEPZERO
000651: 12,2172           00015                           STORE    XMIN
000652: 12,2173           57345        DXCOMP             DLOAD    DMPR
000653: 12,2174           02312                                    TAU.
000654: 12,2175           11621                                    BEE22
000655: 12,2176           77646                           ABS
000656: 12,2177           15344                           STODL    EPSILONT
000657: 12,2200           01553                                    XPREV
000658: 12,2201           77621        XDIFF              BDSU
000659: 12,2202           00025                                    X
000660: 12,2203           02643                           STORE    DELX
000661:
000662: 12,2204           63545        KEPLOOP            DLOAD    DSQ
000663: 12,2205           00025                                    X                                     #  X=XKEP
000664: 12,2206           41501                           NORM     PUSH                                  #  0D=XSQ (+34 OR +32 -N1)       PL AT 2
000665: 12,2207           00047                                    X1
000666: 12,2210           53605                           DMP      SRR*
000667: 12,2211           00011                                    ALPHA
000668: 12,2212           21573                                    0          -6,1
000669: 12,2213           34031                           STCALL   XI                                    #  XI=ALPHA XSQ (+6)
000670: 12,2214           24433                                    DELTIME
000671: 12,2215           44200                           BOV      BDSU
000672: 12,2216           24326                                    TIMEOVFL                              #  UNLIKELY
000673: 12,2217           02312                                    TAU.
000674: 12,2220           02645                           STORE    DELT                                  #  DELT=DELINDEP
000675: 12,2221           44246                           ABS      BDSU
000676: 12,2222           01344                                    EPSILONT
000677: 12,2223           71244                           BPL      DLOAD
000678: 12,2224           24346                                    KEPCONVG
000679: 12,2225           00037                                    T
000680: 12,2226           60225                           DSU      NORM
000681: 12,2227           01551                                    TC
000682: 12,2230           00047                                    X1
000683: 12,2231           60325                           PDDL     NORM
000684: 12,2232           02643                                    DELX
000685: 12,2233           00050                                    X2
000686: 12,2234           41260                           XSU,1    DMP
000687: 12,2235           00047                                    X2
000688: 12,2236           02645                                    DELT
000689: 12,2237           56257                           SLR*     DDV
000690: 12,2240           21202                                    1,1
000691: 12,2241           41542                           SR1      PUSH                                  #  0D=TRIAL DELX         PL AT 2
000692: 12,2242           71244                           BPL      DLOAD
000693: 12,2243           24264                                    POSDELX
000694: 12,2244           00025                                    X
000695: 12,2245           00013                           STORE    XMAX                                  #  MOVE MAX BOUND IN
000696: 12,2246           45221                           BDSU     DSU                                   #                        PL AT 0
000697: 12,2247           00015                                    XMIN
000698: 12,2250           51000                           BOV      BPL
000699: 12,2251           24256                                    NDXCHNGE
000700: 12,2252           24256                                    NDXCHNGE
000701: 12,2253           52145                           DLOAD    GOTO
000702: 12,2254           00001                                    0D
000703: 12,2255           24276                                    NEWDELX
000704:
000705: 12,2256           45345        NDXCHNGE           DLOAD    DSU
000706: 12,2257           00015                                    XMIN
000707: 12,2260           00025                                    X
000708: 12,2261           52075                           DMPR     GOTO                                  #  TO FORCE MPAC +2 TO ZERO
000709: 12,2262           11624                                    DP9/10
000710: 12,2263           24276                                    NEWDELX
000711:
000712: 12,2264           77745        POSDELX            DLOAD
000713: 12,2265           00025                                    X
000714: 12,2266           00015                           STORE    XMIN                                  #  MOVE MIN BOUND IN
000715: 12,2267           45221                           BDSU     DSU                                   #                        PL AT 0
000716: 12,2270           00013                                    XMAX
000717: 12,2271           50000                           BOV      BMN
000718: 12,2272           24312                                    PDXCHNGE
000719: 12,2273           24312                                    PDXCHNGE
000720: 12,2274           77745                           DLOAD
000721: 12,2275           00001                                    0D
000722: 12,2276           02643        NEWDELX            STORE    DELX
000723: 12,2277           43254                           BZE      DAD
000724: 12,2300           24346                                    KEPCONVG
000725: 12,2301           00025                                    X
000726: 12,2302           14025                           STODL    X
000727: 12,2303           00037                                    T
000728: 12,2304           01551                           STORE    TC
000729: 12,2305           46034        BRNCHCTR           RTB      BHIZ
000730: 12,2306           24656                                    CHECKCTR
000731: 12,2307           24346                                    KEPCONVG
000732: 12,2310           77650                           GOTO
000733: 12,2311           24204                                    KEPLOOP                               #  ITERATE
000734:
000735: 12,2312           45345        PDXCHNGE           DLOAD    DSU
000736: 12,2313           00013                                    XMAX
000737: 12,2314           00025                                    X
000738: 12,2315           52075                           DMPR     GOTO                                  #  TO FORCE MPAC +2 TO ZERO
000739: 12,2316           11624                                    DP9/10
000740: 12,2317           24276                                    NEWDELX
000741:
000742: 12,2320           70545        BADX               DLOAD    SR1
000743: 12,2321           00013                                    XMAX
000744: 12,2322           77765                           SIGN
000745: 12,2323           02312                                    TAU.
000746: 12,2324           34025                           STCALL   X
000747: 12,2325           24157                                    STORBNDS
000748: 12,2326           50145        TIMEOVFL           DLOAD    BMN                                   #  X WAS TOO BIG
000749: 12,2327           00025                                    X
000750: 12,2330           24344                                    NEGTOVFL
000751: 12,2331           00013                           STORE    XMAX
000752: 12,2332           70545        CMNTOVFL           DLOAD    SR1
000753: 12,2333           02643                                    DELX
000754: 12,2334           02643                           STORE    DELX
000755: 12,2335           44254                           BZE      BDSU
000756: 12,2336           02270                                    KEPRTN
000757: 12,2337           00025                                    X
000758: 12,2340           14025                           STODL    X
000759: 12,2341           01551                                    TC
000760: 12,2342           34037                           STCALL   T
000761: 12,2343           24305                                    BRNCHCTR
000762: 12,2344           34015        NEGTOVFL           STCALL   XMIN
000763: 12,2345           24332                                    CMNTOVFL
000764: 12,2346           44545        KEPCONVG           DLOAD    SR4R
000765: 12,2347           00041                                    R1
000766: 12,2350           74225                           DSU      VXSC
000767: 12,2351           00035                                    XSQC(XI)
000768: 12,2352           02647                                    URRECT
000769: 12,2353           65372                           VSL1     PDDL                                  #  0D=(R1-XSQC(XI))URRECT (+33 OR +31)
000770: 12,2354           00025                                    X
000771: 12,2355           60316                           DSQ      NORM
000772: 12,2356           00047                                    X1
000773: 12,2357           57275                           DMPR     DMPR
000774: 12,2360           00023                                    1/ROOTMU
000775: 12,2361           00025                                    X
000776: 12,2362           53605                           DMP      SRR*
000777: 12,2363           00033                                    S(XI)
000778: 12,2364           21572                                    0          -7,1
000779: 12,2365           77621                           BDSU
000780: 12,2366           00037                                    T
000781: 12,2367           74352                           SL1      VXSC
000782: 12,2370           01511                                    VRECT
000783: 12,2371           53372                           VSL1     VAD                                   #                                PL AT 0
000784: 12,2372           77712                           VSL4
000785: 12,2373           01535                           STORE    RCV                                   #  RCV (+29 OR +27)
000786:
000787: 12,2374           60246                           ABVAL    NORM
000788: 12,2375           00050                                    X2
000789: 12,2376           16655                           STODL    RCNORM
000790: 12,2377           00031                                    XI
000791: 12,2400           45275                           DMPR     DSU
000792: 12,2401           00033                                    S(XI)
000793: 12,2402           11606                                    D1/128
000794: 12,2403           76405                           DMP      SL1R
000795: 12,2404           00021                                    ROOTMU
000796: 12,2405           53605                           DMP      SLR*
000797: 12,2406           00025                                    X
000798: 12,2407           56601                                    0          -3,2
000799: 12,2410           74271                           DDV      VXSC
000800: 12,2411           02655                                    RCNORM
000801: 12,2412           02647                                    URRECT
000802: 12,2413           65372                           VSL1     PDDL                                  #  0D=URRECT(XI S(XI)-1)X ROOTMU/RCV (+15
000803: 12,2414           00035                                    XSQC(XI)                              #  OR +13)                       PL AT 6
000804: 12,2415           56257                           SLR*     DDV
000805: 12,2416           56602                                    0          -4,2
000806: 12,2417           02655                                    RCNORM
000807: 12,2420           74221                           BDSU     VXSC
000808: 12,2421           11622                                    D1/256
000809: 12,2422           01511                                    VRECT
000810: 12,2423           42455                           VAD      VSL8
000811: 12,2424           77626                           STADR                                          #                                PL AT 0
000812: 12,2425           62234                           STODL    VCV                                   #  VCV (+7 OR +5)
000813: 12,2426           00037                                    T
000814: 12,2427           15551                           STODL    TC
000815: 12,2430           00025                                    X
000816: 12,2431           35553                           STCALL   XPREV
000817: 12,2432           02270                                    KEPRTN
000818:
000819: 12,2433           77776        DELTIME            EXIT                                           #  MPAC=XI (+6), 0D=XSQ (+34 OR +32 -N1)
000820: 12,2434           07171                           TC       POLY
000821: 12,2435           00010                           DEC      8          B-14
000822: 12,2436           02525 12526                     2DEC     .083333334
000823:
000824: 12,2440           67356 75666                     2DEC     -.266666684
000825:
000826: 12,2442           15001 23771                     2DEC     .406349155
000827:
000828: 12,2444           64342 43674                     2DEC     -.361198675
000829:
000830: 12,2446           06563 04645                     2DEC     .210153242
000831:
000832: 12,2450           75173 52672                     2DEC     -.086221951
000833:
000834: 12,2452           00656 14331                     2DEC     .026268812
000835:
000836: 12,2454           77633 40512                     2DEC     -.006163316
000837:
000838: 12,2456           00023 11210                     2DEC     .001177342
000839:
000840: 12,2460           77774 67506                     2DEC     -.000199055
000841:
000842: 12,2462           06006                           TC       INTPRET
000843: 12,2463           14033                           STODL    S(XI)
000844: 12,2464           00031                                    XI
000845: 12,2465           77776                           EXIT
000846: 12,2466           07171                           TC       POLY
000847: 12,2467           00010                           DEC      8          B-14
000848: 12,2470           01000 00000                     2DEC     .031250001
000849:
000850: 12,2472           72525 52506                     2DEC     -.166666719
000851:
000852: 12,2474           13301 15337                     2DEC     .355555413
000853:
000854: 12,2476           62776 54733                     2DEC     -.406347410
000855:
000856: 12,2500           11176 13267                     2DEC     .288962094
000857:
000858: 12,2502           73410 51674                     2DEC     -.140117894
000859:
000860: 12,2504           01446 33641                     2DEC     .049247387
000861:
000862: 12,2506           77451 65233                     2DEC     -.013081923
000863:
000864: 12,2510           00055 37266                     2DEC     .002806389
000865:
000866: 12,2512           77767 52336                     2DEC     -.000529414
000867:
000868: 12,2514           06006                           TC       INTPRET
000869: 12,2515           53605                           DMP      SRR*                                  #                                PL AT 0
000870: 12,2516           00001                                    0D
000871: 12,2517           21574                                    0          -5,1
000872: 12,2520           00035                           STORE    XSQC(XI)                              #  XSQC(XI) (+33 OR +31)
000873: 12,2521           72405                           DMP      SL1
000874: 12,2522           00043                                    KEPC1
000875: 12,2523           65234                           RTB      PDDL                                  #  XCH WITH PL. 0D=C1 XSQ C(XI) (+49 OR +46
000876: 12,2524           45565                                    TPMODE                                #                                PL AT 0,3
000877: 12,2525           53605                           DMP      SRR*
000878: 12,2526           00033                                    S(XI)
000879: 12,2527           21574                                    0          -5,1
000880: 12,2530           72405                           DMP      SL1
000881: 12,2531           00045                                    KEPC2
000882: 12,2532           65234                           RTB      PDDL                                  #  3D=C2 XSQ S(XI) (+35 OR +33)  PL AT 6
000883: 12,2533           45565                                    TPMODE
000884: 12,2534           00041                                    R1
000885: 12,2535           76261                           SR       TAD                                   #                                PL AT 3
000886: 12,2536           20607                                    6
000887: 12,2537           41301                           NORM     DMP                                   #  TO PRESERVE SIGNIF.
000888: 12,2540           00047                                    X1
000889: 12,2541           00025                                    X
000890: 12,2542           76257                           SR*      TAD                                   #  X(C2 XSQ S(XI) +R1) (+49 OR +46)  PL AT 0
000891: 12,2543           20576                                    0          -3,1
000892: 12,2544           57232                           SL4R     DMPR
000893: 12,2545           00023                                    1/ROOTMU
000894: 12,2546           00037                           STORE    T
000895: 12,2547           77616                           RVQ
000896:
000897: 12,2550           71214        ITERATOR           BONCLR   DLOAD
000898: 12,2551           00614                                    SLOPESW
000899: 12,2552           24620                                    FIRSTIME
000900: 12,2553           00037                                    DEP
000901: 12,2554           60225                           DSU      NORM
000902: 12,2555           02764                                    DEPREV
000903: 12,2556           00047                                    X1
000904: 12,2557           60325                           PDDL     NORM
000905: 12,2560           00015                                    DELINDEP
000906: 12,2561           00050                                    X2
000907: 12,2562           41260                           XSU,1    DMP
000908: 12,2563           00047                                    X2
000909: 12,2564           02762                                    DELDEP
000910: 12,2565           56257                           SLR*     DDV                                   #                                PL UP 2
000911: 12,2566           21202                                    1,1
000912: 12,2567           43142                           SR1      BOFF
000913: 12,2570           04351                                    ORDERSW
000914: 12,2571           24574                                    SGNCHECK
000915: 12,2572           75246                           ABS      SIGN                                  #  IN CASE 2ND DERIV. CHANGED SIGN, MUST
000916: 12,2573           02762                                    DELDEP                                #  DISREGARD IT TO FIND MIN.
000917:
000918: 12,2574           51006        SGNCHECK           PUSH     BPL                                   #  TRIAL DELINDEP                PL DOWN 2
000919: 12,2575           24632                                    POSDEL
000920: 12,2576           43145                           DLOAD    BON
000921: 12,2577           03775                                    INDEP
000922: 12,2600           04311                                    ORDERSW
000923: 12,2601           24603                                    MINCHECK
000924: 12,2602           00017                           STORE    MAX                                   #  IF NOT 2ND ORDER, CAN MOVE MAX BOUND IN.
000925:
000926: 12,2603           45221        MINCHECK           BDSU     DSU
000927: 12,2604           00011                                    MIN
000928: 12,2605           51000                           BOV      BPL
000929: 12,2606           24612                                    MODNGDEL
000930: 12,2607           24612                                    MODNGDEL
000931: 12,2610           77650                           GOTO
000932: 12,2611           24644                                    DELOK
000933:
000934: 12,2612           45345        MODNGDEL           DLOAD    DSU                                   #  TRIAL DELINDEP WOULD EXCEED MIN BOUND
000935: 12,2613           00011                                    MIN
000936: 12,2614           03775                                    INDEP
000937: 12,2615           52005                           DMP      GOTO
000938: 12,2616           11624                                    DP9/10
000939: 12,2617           24646                                    NEWDEL
000940:


000945: 12,2620           41335        FIRSTIME           SLOAD    DMP
000946: 12,2621           00051                                    TWEEKIT
000947: 12,2622           00011                                    MIN
000948: 12,2623           67206                           PUSH     SLOAD
000949: 12,2624           00051                                    TWEEKIT
000950: 12,2625           45205                           DMP      DSU
000951: 12,2626           00017                                    MAX
000952: 12,2627           52165                           SIGN     GOTO
000953: 12,2630           02762                                    DELDEP
000954: 12,2631           24574                                    SGNCHECK
000955:
000956: 12,2632           43145        POSDEL             DLOAD    BON
000957: 12,2633           03775                                    INDEP
000958: 12,2634           04311                                    ORDERSW
000959: 12,2635           24637                                    MAXCHECK
000960: 12,2636           00011                           STORE    MIN                                   #  IF NOT 2ND ORDER, CAN MOVE MIN BOUND IN.
000961:
000962: 12,2637           45221        MAXCHECK           BDSU     DSU
000963: 12,2640           00017                                    MAX
000964: 12,2641           50000                           BOV      BMN
000965: 12,2642           24650                                    MODPSDEL
000966: 12,2643           24650                                    MODPSDEL
000967: 12,2644           77745        DELOK              DLOAD
000968: 12,2645           00001                                    0D
000969: 12,2646           00015        NEWDEL             STORE    DELINDEP
000970: 12,2647           77616                           RVQ
000971:
000972: 12,2650           45345        MODPSDEL           DLOAD    DSU
000973: 12,2651           00017                                    MAX
000974: 12,2652           03775                                    INDEP
000975: 12,2653           52005                           DMP      GOTO
000976: 12,2654           11624                                    DP9/10
000977: 12,2655           24646                                    NEWDEL
000978:
000979: 12,2656           45033        CHECKCTR           CS       ONE
000980: 12,2657           50120                           INDEX    FIXLOC
000981: 12,2660           60026                           AD       ITERCTR
000982: 12,2661           50120                           INDEX    FIXLOC
000983: 12,2662           54026                           TS       ITERCTR
000984: 12,2663           54154                           TS       MPAC
000985: 12,2664           06030                           TC       DANZIG
000986:
000987: 12,2665           44545        NEWSTATE           DLOAD    SR4R
000988: 12,2666           00041                                    R1
000989: 12,2667           74225                           DSU      VXSC
000990: 12,2670           00035                                    XSQC(XI)
000991: 12,2671           02724                                    UR1
000992: 12,2672           65372                           VSL1     PDDL                                  #  0D=(R1-XSQC(XI))UR1 (+33 OR 31) PL AT 6
000993: 12,2673           00025                                    X
000994: 12,2674           60316                           DSQ      NORM
000995: 12,2675           00047                                    X1
000996: 12,2676           57275                           DMPR     DMPR
000997: 12,2677           00023                                    1/ROOTMU
000998: 12,2700           00025                                    X
000999: 12,2701           53605                           DMP      SRR*
001000: 12,2702           00033                                    S(XI)
001001: 12,2703           21572                                    0          -7,1
001002: 12,2704           77621                           BDSU
001003: 12,2705           00037                                    T
001004: 12,2706           74352                           SL1      VXSC
001005: 12,2707           02746                                    VVEC
001006: 12,2710           53372                           VSL1     VAD                                   #                                PL AT 0
001007: 12,2711           41512                           VSL4     PUSH
001008: 12,2712           77646                           ABVAL
001009: 12,2713           77701        LAMENTER           NORM
001010: 12,2714           00047                                    X1
001011: 12,2715           16722                           STODL    R2
001012: 12,2716           00031                                    XI
001013: 12,2717           45205                           DMP      DSU
001014: 12,2720           00033                                    S(XI)
001015: 12,2721           11606                                    D1/128
001016: 12,2722           76405                           DMP      SL1R
001017: 12,2723           00021                                    ROOTMU
001018: 12,2724           53605                           DMP      SLR*
001019: 12,2725           00025                                    X
001020: 12,2726           21176                                    0          -3,1
001021: 12,2727           74271                           DDV      VXSC
001022: 12,2730           02722                                    R2
001023: 12,2731           02724                                    UR1
001024: 12,2732           65372                           VSL1     PDDL                                  #  6D=V2VEC PART (+15 OR 13)     PL AT 12
001025: 12,2733           00035                                    XSQC(XI)
001026: 12,2734           56257                           SLR*     DDV
001027: 12,2735           21175                                    0          -4,1
001028: 12,2736           02722                                    R2
001029: 12,2737           77621                           BDSU
001030: 12,2740           11622                                    D1/256
001031: 12,2741           53361                           VXSC     VAD
001032: 12,2742           02746                                    VVEC                                  #                                PL AT 6
001033: 12,2743           43412                           VSL8     RVQ
001034:
001035: 04,2000                                           SETLOC   CONICS1
001036: 04,2000                                           BANK
001037:
001038: 04,3602                                           COUNT    04/CONIC
001039:                                                                                                  #  DO NOT DISTURB THE ORDER OF THESE CDS, OVERLAYS HAVE BEEN MADE.
001040: 04,3602           00000        BEE17              DEC      0          B-14                       #  KEEP WITH D1/8 2DEC 1.0B-17 (0000004000)
001041: 04,3603           04000 00000  D1/8               2DEC     1.0        B-3
001042:
001043: 04,3605           00200 00000  D1/128             2DEC     1.0        B-7
001044:
001045: 04,3607           00400 00000  D1/64              2DEC     1.0        B-6
001046:
001047: 04,3611           10000 00000  D1/4               2DEC     1.0        B-2
001048:
001049: 04,3613           02000 00000  D1/16              2DEC     1.0        B-4
001050:
001051: 04,3615           01000 00000  D1/32              2DEC     1.0        B-5
001052:
001053: 04,3617           00020 00000  D1/1024            2DEC     1.0        B-10
001054:
001055: 04,3621           00100 00000  D1/256             2DEC     1.0        B-8
001056:
001057: 04,3623           34631 23146  DP9/10             2DEC     .9
001058:
001059: 04,3625  04,3565               KEPZERO            EQUALS   LO6ZEROS
001060: 04,3625           77467 77777  -50SC              2DEC     -50.0      B-12
001061:
001062: 04,3627           03110 17665  2PISC              2DEC     6.28318530 B-6
001063:
001064: 04,3631  04,3614               BEE19              EQUALS   D1/32      -1                         #  2DEC 1.0 B-19 (00000 01000)
001065: 04,3631  04,3620               BEE22              EQUALS   D1/256     -1                         #  2DEC 1.0 B-22 (00000 00100)
001066: 04,3631           00000 00001  ONEBIT             2DEC     1.0        B-28
001067:
001068: 04,3633           37767 37737  COGUPLIM           2DEC     .999511597
001069:
001070: 04,3635           40010 40040  COGLOLIM           2DEC     -.999511597
001071:
001072: 12,2000                                           SETLOC   CONICS
001073: 12,2000                                           BANK
001074:
001075: 12,2744                                           COUNT    12/CONIC
001076:
001077: 12,2744           40220        TIMETHET           STQ      SETPD                                 #                                PL AT 0
001078: 12,2745           02712                                    RTNTT
001079: 12,2746           00001                                    0
001080: 12,2747           77600                           BOV
001081: 12,2750           24751                                    +1
001082: 12,2751           63375                           VLOAD    PDVL                                  #  SETUP FOR PARAM CALL          PL AT 6
001083: 12,2752           02657                                    RVEC
001084: 12,2753           02746                                    VVEC
001085: 12,2754           77624                           CALL
001086: 12,2755           11637                                    PARAM
001087: 12,2756           45000                           BOV      CALL
001088: 12,2757           24776                                    COGAOVFL                              #                                PL AT 0
001089: 12,2760           25001                                    GETX
001090: 12,2761           43145        COMMNOUT           DLOAD    BON
001091: 12,2762           00031                                    XI
001092: 12,2763           04310                                    INFINFLG
001093: 12,2764           25761                                    ABTCONIC
001094: 12,2765           45014                           CLEAR    CALL
001095: 12,2766           04273                                    COGAFLAG
001096: 12,2767           24433                                    DELTIME
001097: 12,2770           45014                           BON      CALL
001098: 12,2771           03706                                    RVSW
001099: 12,2772           02712                                    RTNTT
001100: 12,2773           24665                                    NEWSTATE
001101: 12,2774           77650                           GOTO
001102: 12,2775           02712                                    RTNTT
001103:
001104: 12,2776           77614        COGAOVFL           SETGO
001105: 12,2777           04033                                    COGAFLAG
001106: 12,3000           25761                                    ABTCONIC
001107: 04,3637                                           BANK     4
001108: 04,2000                                           SETLOC   CONICS1
001109: 04,2000                                           BANK
001110: 04,3637                                           COUNT*   $$/CONIC
001111: 04,3637           43020        PARAM              STQ      CLEAR                                 #  MPAC=V1VEC, 0D=R1VEC          PL AT 6
001112: 04,3640           02755                                    RTNPRM
001113: 04,3641           03665                                    NORMSW
001114: 04,3642           77614                           CLEAR
001115: 04,3643           04273                                    COGAFLAG
001116: 04,3644           45131                           SSP      CALL
001117: 04,3645           02675                                    GEOMSGN
001118: 04,3646           27777                                    37777                                 #  GAMMA ALWAYS LESS THAN 180DEG
001119: 04,3647           11702                                    GEOM                                  #  MPAC=SNGA (+1), 0D=CSGA (+1)  PL AT 2
001120: 04,3650           14045                           STODL    36D                                   #  36D=SIN GAMMA (+1)            PL AT 0
001121: 04,3651           56261                           SR       DDV
001122: 04,3652           20606                                    5
001123:
001124: 04,3653           00045                                    36D
001125: 04,3654           33775                           STOVL*   COGA
001126: 04,3655           11740                                    MUTABLE,1
001127: 04,3656           14017                           STODL    1/MU
001128: 04,3657           02722                                    MAGVEC2
001129: 04,3660           60316                           DSQ      NORM
001130: 04,3661           00047                                    X1
001131: 04,3662           41275                           DMPR     DMP
001132: 04,3663           00017                                    1/MU
001133: 04,3664           00041                                    R1
001134: 04,3665           77657                           SRR*
001135: 04,3666           21576                                    0          -3,1
001136: 04,3667           44206                           PUSH     BDSU                                  #  0D=R1 V1SQ/MU (+6)            PL AT 2
001137: 04,3670           11616                                    D1/32
001138: 04,3671           16744                           STODL    R1A                                   #  R1A (+6)                      PL AT 0
001139:
001140: 04,3672           60205                           DMP      NORM
001141: 04,3673           00045                                    36D
001142: 04,3674           00047                                    X1
001143: 04,3675           53605                           DMP      SR*
001144: 04,3676           00045                                    36D
001145: 04,3677           20575                                    0          -4,1
001146: 04,3700           36742                           STCALL   P                                     #  P (+4)
001147: 04,3701           02755                                    RTNPRM
001148:
001149: 04,3702           77656        GEOM               UNIT                                           #  MPAC=V2VEC, 0D=R1VEC          PL AT 6
001150: 04,3703           16714                           STODL    U2                                    #  U2 (+1)
001151: 04,3704           00045                                    36D
001152: 04,3705           26722                           STOVL    MAGVEC2                               #                                PL AT 0
001153: 04,3706           77656                           UNIT
001154: 04,3707           02724                           STORE    UR1                                   #  UR1 (+1)
001155: 04,3710           72441                           DOT      SL1
001156: 04,3711           02714                                    U2
001157: 04,3712           77725                           PDDL                                           #  OD=CSTH (+1)                  PL AT 2
001158: 04,3713           00045                                    36D
001159: 04,3714           24041                           STOVL    R1                                    #  R1 (+29 OR +27)
001160: 04,3715           02724                                    UR1
001161: 04,3716           76435                           VXV      VSL1
001162: 04,3717           02714                                    U2
001163: 04,3720           75214                           BON      SIGN
001164: 04,3721           03705                                    NORMSW
001165: 04,3722           11734                                    HAVENORM
001166: 04,3723           02675                                    GEOMSGN
001167: 04,3724           40056                           UNIT     BOV
001168: 04,3725           11732                                    COLINEAR
001169: 04,3726           16676        UNITNORM           STODL    UN                                    #  UN (+1)
001170: 04,3727           00045                                    36D
001171: 04,3730           43565                           SIGN     RVQ                                   #  MPAC=SNTH (+1), 34D=SNTH.SNTH (+2)
001172: 04,3731           02675                                    GEOMSGN
001173:
001174: 04,3732           52162        COLINEAR           VSR1     GOTO
001175: 04,3733           11726                                    UNITNORM
001176:
001177: 04,3734           75246        HAVENORM           ABVAL    SIGN
001178: 04,3735           02675                                    GEOMSGN
001179: 04,3736           77616                           RVQ                                            #  MPAC=SNTH (+1), 34D=SNTH.SNTH (+2)
001180:
001181: 12,3001                                           BANK     12
001182: 12,2000                                           SETLOC   CONICS
001183: 12,2000                                           BANK
001184:
001185: 12,3001                                           COUNT    12/CONIC
001186:
001187: 12,3001           66374        GETX               AXT,2    SSP                                   #  ASSUMES P (+4) IN MPAC
001188: 12,3002           00003                                    3
001189: 12,3003           00052                                    S2
001190: 12,3004           00001                                    1
001191: 12,3005           77614                           CLEAR
001192: 12,3006           04276                                    360SW
001193: 12,3007           65366                           SQRT     PDDL                                  #  0D=SQRT(P)                    PL AT 2
001194: 12,3010           02734                                    CSTH
001195: 12,3011           44342                           SR1      BDSU
001196: 12,3012           11612                                    D1/4
001197: 12,3013           54325                           PDDL     SRR                                   #                                PL AT 4D
001198: 12,3014           02732                                    SNTH
001199: 12,3015           21607                                    6
001200: 12,3016           77671                           DDV                                            #                                PL AT 2
001201: 12,3017           77600                           BOV
001202: 12,3020           25134                                    360CHECK
001203: 12,3021           41225                           DSU      DMP
001204: 12,3022           03775                                    COGA                                  #                                PL AT 0
001205: 12,3023           40132                           SL2R     BOV
001206: 12,3024           25134                                    360CHECK
001207: 12,3025           63406        WLOOP              PUSH     DSQ                                   #  0D=W (+5)                     PL AT 2
001208: 12,3026           65351                           TLOAD    PDDL                                  #  2D=WSQ (+10)                  PL AT 5
001209: 12,3027           00155                                    MPAC
001210: 12,3030           02744                                    R1A
001211: 12,3031           76202                           SR4      TAD                                   #                                PL AT 2
001212: 12,3032           75440                           BMN      SQRT
001213: 12,3033           25217                                    INFINITY
001214: 12,3034           43306                           ROUND    DAD                                   #                                PL AT 0D
001215: 12,3035           61000                           BOV      TIX,2
001216: 12,3036           25132                                    RESETX2
001217: 12,3037           25025                                    WLOOP
001218:
001219: 12,3040           40065                           BDDV     BOV
001220: 12,3041           11606                                    D1/128
001221: 12,3042           25217                                    INFINITY
001222: 12,3043           41440        POLYCOEF           BMN      PUSH                                  #  0D=1/W (+2) OR 16/W (+6)      PL AT 2
001223: 12,3044           25217                                    INFINITY
001224: 12,3045           77716                           DSQ
001225: 12,3046           41301                           NORM     DMP
001226: 12,3047           00047                                    X1
001227: 12,3050           02744                                    R1A
001228: 12,3051           77457                           SRR*     EXIT
001229: 12,3052           21567                                    0          -10D,1
001230: 12,3053           07171                           TC       POLY
001231: 12,3054           00005                           DEC      5          B-14
001232: 12,3055           20000 00000                     2DEC     .5
001233:
001234: 12,3057           72525 52471                     2DEC     -.166666770
001235:
001236: 12,3061           03146 15003                     2DEC     .100000392
001237:
001238: 12,3063           75556 45210                     2DEC     -.071401086
001239:
001240: 12,3065           01615 13553                     2DEC     .055503292
001241:
001242: 12,3067           76371 63777                     2DEC     -.047264098
001243:
001244: 12,3071           01232 27367                     2DEC     .040694204
001245:
001246: 12,3073           06006                           TC       INTPRET
001247: 12,3074           76405                           DMP      SL1R                                  #                                PL AT 0D
001248: 12,3075           43006                           PUSH     BON
001249: 12,3076           04316                                    360SW
001250: 12,3077           25204                                    TRUE360X
001251: 12,3100           60316        XCOMMON            DSQ      NORM
001252: 12,3101           00047                                    X1
001253: 12,3102           53605                           DMP      SRR*
001254: 12,3103           02744                                    R1A
001255: 12,3104           21565                                    0          -12D,1
001256: 12,3105           14031                           STODL    XI                                    #  XI (+6)
001257:
001258: 12,3106           00041                                    R1
001259: 12,3107           75542                           SR1      SQRT
001260: 12,3110           41306                           ROUND    DMP
001261: 12,3111           77632                           SL4R                                           #                                PL AT 0
001262: 12,3112           00025                           STORE    X                                     #  X (+17 OR +16)
001263:
001264: 12,3113           60316                           DSQ      NORM
001265: 12,3114           00047                                    X1
001266: 12,3115           41325                           PDDL     DMP                                   #  0D=XSQ (+34 OR +32 -N1)       PL AT 2
001267: 12,3116           02742                                    P
001268: 12,3117           00041                                    R1
001269: 12,3120           75452                           SL3      SQRT
001270: 12,3121           56405                           DMP      SL3R
001271: 12,3122           03775                                    COGA
001272: 12,3123           14043                           STODL    KEPC1
001273: 12,3124           02744                                    R1A
001274: 12,3125           43021                           BDSU     CLEAR
001275: 12,3126           11610                                    D1/64
001276: 12,3127           04270                                    INFINFLG
001277: 12,3130           00045                           STORE    KEPC2
001278: 12,3131           77616                           RVQ
001279:
001280: 12,3132           77774        RESETX2            AXT,2
001281: 12,3133           00003                                    3
001282:
001283: 12,3134           51001        360CHECK           SETPD    BPL
001284: 12,3135           00001                                    0D
001285: 12,3136           25141                                    INVRSEQN
001286: 12,3137           77614                           SET
001287: 12,3140           04076                                    360SW
001288:
001289: 12,3141           75545        INVRSEQN           DLOAD    SQRT
001290: 12,3142           02742                                    P
001291: 12,3143           41325                           PDDL     DMP                                   #  0D=SQRT(P) (+2)               PL AT 2
001292: 12,3144           02732                                    SNTH
001293: 12,3145           03775                                    COGA
001294: 12,3146           65352                           SL1      PDDL                                  #  2D=SNTH COGA (+5)             PL AT 4
001295: 12,3147           02734                                    CSTH
001296: 12,3150           43202                           SR4      DAD
001297: 12,3151           11616                                    D1/32
001298: 12,3152           41225                           DSU      DMP                                   #                                PL AT 2,0
001299: 12,3153           55301                           NORM     BDDV
001300: 12,3154           00047                                    X1
001301: 12,3155           02732                                    SNTH
001302: 12,3156           51457                           SLR*     ABS                                   #  NOTE: NEAR 360 CASE TREATED DIFFERENTLY
001303: 12,3157           21174                                    0          -5,1
001304: 12,3160           63406                           PUSH     DSQ                                   #  0D=1/W (-1)                   PL AT 2
001305: 12,3161           14043                           STODL    34D
001306: 12,3162           11614                                    D1/16
001307: 12,3163           63406        1/WLOOP            PUSH     DSQ                                   #  2D=G (+4)                     PL AT 4
001308: 12,3164           65234                           RTB      PDDL                                  #                                PL AT 7
001309: 12,3165           45565                                    TPMODE
001310: 12,3166           02744                                    R1A
001311: 12,3167           40405                           DMP      SR4
001312: 12,3170           00043                                    34D
001313: 12,3171           77771                           TAD
001314: 12,3172           75440                           BMN      SQRT                                  #                                PL AT 4
001315: 12,3173           25217                                    INFINITY
001316: 12,3174           77615                           DAD                                            #                                PL AT 2
001317: 12,3175           60304                           TIX,2    NORM
001318: 12,3176           25163                                    1/WLOOP
001319: 12,3177           00047                                    X1
001320: 12,3200           77665                           BDDV
001321: 12,3201           52057                           SLR*     GOTO                                  #                                PL AT 0
001322: 12,3202           21172                                    0          -7,1
001323: 12,3203           25043                                    POLYCOEF
001324:
001325: 12,3204           50145        TRUE360X           DLOAD    BMN
001326: 12,3205           02744                                    R1A
001327: 12,3206           25217                                    INFINITY
001328: 12,3207           60366                           SQRT     NORM
001329: 12,3210           00047                                    X1
001330: 12,3211           53665                           BDDV     SL*
001331: 12,3212           11630                                    2PISC
001332: 12,3213           20176                                    0          -3,1
001333: 12,3214           41425                           DSU      PUSH                                  #  0D=2PI/SQRT(R1A) -X           PL AT 0,2
001334: 12,3215           77650                           GOTO
001335: 12,3216           25100                                    XCOMMON
001336: 12,3217           40001        INFINITY           SETPD    BOV                                   #  NO SOLUTION EXISTS SINCE CLOSURE THROUGH
001337: 12,3220           00001                                    0                                     #  INFINITY IS REQUIRED
001338: 12,3221           25222                                    OVFLCLR
001339: 12,3222           43414        OVFLCLR            SET      RVQ
001340: 12,3223           04070                                    INFINFLG
001341:
001342: 12,3224           40220        LAMBERT            STQ      SETPD
001343: 12,3225           02712                                    RTNLAMB
001344: 12,3226           00001                                    0D
001345: 12,3227           77600                           BOV
001346: 12,3230           25231                                    +1
001347: 12,3231           76731                           SSP      VLOAD*
001348: 12,3232           00027                                    ITERCTR
001349: 12,3233           00024                                    20D
001350: 12,3234           11740                                    MUTABLE,1
001351: 12,3235           14017                           STODL    1/MU
001352: 12,3236           02673                                    TDESIRED
001353: 12,3237           77675                           DMPR
001354: 12,3240           11615                                    BEE19
001355: 12,3241           03777                           STORE    EPSILONL
001356: 12,3242           77214                           SET      VLOAD
001357: 12,3243           00474                                    SLOPESW
001358: 12,3244           02657                                    R1VEC
001359: 12,3245           45115                           PDVL     CALL                                  #  0D=R1VEC (+29 OR +27)         PL AT 6
001360: 12,3246           02665                                    R2VEC                                 #  MPAC=R2VEC (+29 OR +27)
001361: 12,3247           11702                                    GEOM
001362: 12,3250           16732                           STODL    SNTH                                  #  0D=CSTH (+1)                  PL AT 2
001363: 12,3251           02722                                    MAGVEC2
001364: 12,3252           65301                           NORM     PDDL                                  #                                PL AT 4
001365: 12,3253           00047                                    X1
001366: 12,3254           00041                                    R1
001367: 12,3255           56342                           SR1      DDV                                   #                                PL AT 2
001368: 12,3256           65257                           SL*      PDDL                                  #  DXCH WITH 0D, 0D=R1/R2 (+7)   PL AT 0,2
001369: 12,3257           20173                                    0          -6,1
001370: 12,3260           77626                           STADR
001371: 12,3261           75043                           STORE    CSTH                                  #  CSTH (+1)
001372: 12,3262           44342                           SR1      BDSU
001373: 12,3263           11612                                    D1/4
001374: 12,3264           02736                           STORE    1-CSTH                                #  1-CSTH (+2)
001375:
001376: 12,3265           53106                           ROUND    BZE
001377: 12,3266           25503                                    360LAMB
001378: 12,3267           65301                           NORM     PDDL                                  #                                PL AT 4
001379: 12,3270           00047                                    X1
001380: 12,3271           00001                                    0D
001381: 12,3272           56342                           SR1      DDV                                   #                                PL AT 2
001382: 12,3273           75457                           SL*      SQRT
001383: 12,3274           20176                                    0          -3,1
001384: 12,3275           54325                           PDDL     SR                                    #  2D=SQRT(2R1/R2(1-CSTH)) (+5)  PL AT 4
001385: 12,3276           02732                                    SNTH
001386: 12,3277           20607                                    6
001387: 12,3300           43271                           DDV      DAD                                   #                                PL AT 2
001388: 12,3301           02736                                    1-CSTH
001389: 12,3302           77626                           STADR
001390: 12,3303           77760                           STORE    COGAMAX
001391: 12,3304           50000                           BOV      BMN                                   #  IF OVFL, COGAMAX=COGUPLIM
001392: 12,3305           25312                                    UPLIM                                 #  IF NEG, USE EVEN IF LT COGLOLIM, SINCE
001393: 12,3306           25315                                    MAXCOGA                               #        THIS WOULD BE RESET IN LAMBLOOP
001394: 12,3307           50025                           DSU      BMN                                   #  IF COGAMAX GT COGUPLIM, COGAMAX=COGUPLIM
001395: 12,3310           11634                                    COGUPLIM
001396: 12,3311           25315                                    MAXCOGA                               #  OTHERWISE OK, SO GO TO MAXCOGA
001397: 12,3312           77745        UPLIM              DLOAD
001398: 12,3313           11634                                    COGUPLIM                              #  COGUPLIM=.999511597 = MAX VALUE OF COGA
001399: 12,3314           00017                           STORE    COGAMAX                               #        NOT CAUSING OVFL IN R1A CALCULATION
001400: 12,3315           77745        MAXCOGA            DLOAD
001401: 12,3316           02734                                    CSTH
001402: 12,3317           45261                           SR       DSU                                   #                                PL AT 0
001403: 12,3320           20607                                    6
001404: 12,3321           77626                           STADR
001405: 12,3322           61037                           STODL    CSTH-RHO
001406: 12,3323           02675                                    GEOMSGN
001407: 12,3324           71240                           BMN      DLOAD
001408: 12,3325           25522                                    LOLIM
001409: 12,3326           02740                                    CSTH-RHO
001410: 12,3327           56352                           SL1      DDV
001411: 12,3330           02732                                    SNTH
001412: 12,3331           77600                           BOV
001413: 12,3332           25522                                    LOLIM
001414: 12,3333           00011        MINCOGA            STORE    COGAMIN                               #  COGAMIN (+5)
001415: 12,3334           66214                           BON      SSP
001416: 12,3335           00715                                    GUESSW
001417: 12,3336           25507                                    NOGUESS
001418: 12,3337           00051                                    TWEEKIT
001419: 12,3340           00001                                    00001
001420: 12,3341           77745                           DLOAD
001421: 12,3342           03775                                    COGA
001422:
001423: 12,3343           77605        LAMBLOOP           DMP
001424: 12,3344           02732                                    SNTH
001425: 12,3345           45342                           SR1      DSU
001426: 12,3346           02740                                    CSTH-RHO
001427: 12,3347           65301                           NORM     PDDL                                  #  0D=SNTH COGA-(CSTH-RHO) (+7+C(X1)) PL=2
001428: 12,3350           00047                                    X1
001429: 12,3351           02736                                    1-CSTH
001430: 12,3352           56257                           SL*      DDV                                   #  1-CSTH (+2)                   PL AT 0
001431: 12,3353           20170                                    0          -9D,1
001432: 12,3354           53040                           BMN      BZE
001433: 12,3355           25441                                    NEGP
001434: 12,3356           25441                                    NEGP
001435: 12,3357           16742                           STODL    P                                     #  P=(1-CSTH)/(SNTH COGA-(CSTH-RHO)) (+4)
001436: 12,3360           03775                                    COGA
001437: 12,3361           43316                           DSQ      DAD
001438: 12,3362           11620                                    D1/1024
001439: 12,3363           41301                           NORM     DMP
001440: 12,3364           00047                                    X1
001441: 12,3365           02742                                    P
001442: 12,3366           44257                           SR*      BDSU
001443: 12,3367           20571                                    0          -8D,1
001444: 12,3370           11616                                    D1/32
001445: 12,3371           16744                           STODL    R1A                                   #  R1A=2-P(1+COGA COGA) (+6)
001446:
001447: 12,3372           02742                                    P
001448: 12,3373           45000                           BOV      CALL
001449: 12,3374           25444                                    HIENERGY
001450: 12,3375           25001                                    GETX
001451: 12,3376           77745                           DLOAD
001452: 12,3377           00037                                    T
001453: 12,3400           16764                           STODL    TPREV
001454: 12,3401           00031                                    XI
001455: 12,3402           45014                           BON      CALL
001456: 12,3403           04310                                    INFINFLG
001457: 12,3404           25441                                    NEGP                                  #  HAVE EXCEEDED THEORETICAL BOUNDS
001458: 12,3405           24433                                    DELTIME
001459: 12,3406           44200                           BOV      BDSU
001460: 12,3407           25460                                    BIGTIME
001461: 12,3410           02673                                    TDESIRED
001462: 12,3411           02762                           STORE    TERRLAMB
001463: 12,3412           44246                           ABS      BDSU
001464: 12,3413           03777                                    EPSILONL
001465: 12,3414           47044                           BPL      RTB
001466: 12,3415           25525                                    INITV
001467: 12,3416           24656                                    CHECKCTR
001468: 12,3417           43030                           BHIZ     BON
001469: 12,3420           25470                                    SUFFCHEK
001470: 12,3421           00714                                    SLOPESW
001471: 12,3422           25430                                    GOITER
001472: 12,3423           45345                           DLOAD    DSU
001473: 12,3424           00037                                    T
001474: 12,3425           02764                                    TPREV
001475: 12,3426           77654                           BZE
001476: 12,3427           25470                                    SUFFCHEK
001477: 12,3430           77624        GOITER             CALL
001478: 12,3431           24550                                    ITERATOR
001479: 12,3432           53145                           DLOAD    BZE
001480: 12,3433           00155                                    MPAC
001481: 12,3434           25470                                    SUFFCHEK
001482: 12,3435           77615                           DAD
001483: 12,3436           03775                                    COGA
001484: 12,3437           37775                           STCALL   COGA
001485: 12,3440           25343                                    LAMBLOOP
001486:
001487: 12,3441           51145        NEGP               DLOAD    BPL                                   #  IMPOSSIBLE TRAJECTORY DUE TO INACCURATE
001488: 12,3442           00015                                    DCOGA                                 #  BOUND CALCULATION.  TRY NEW COGA.
001489: 12,3443           25463                                    LOENERGY
001490:
001491: 12,3444           71201        HIENERGY           SETPD    DLOAD                                 #  HIGH ENERGY TRAJECTORY RESULTED
001492: 12,3445           00001                                    0
001493: 12,3446           03775                                    COGA                                  #  IN OVFL OF P OR R1A, OR XI EXCEEDING 50.
001494: 12,3447           00011                           STORE    COGAMIN                               #  THIS IS THE NEW BOUND.
001495: 12,3450           70545        COMMONLM           DLOAD    SR1
001496: 12,3451           00015                                    DCOGA
001497: 12,3452           00015                           STORE    DCOGA                                 #  USE DCOGA/2 AS DECREMENT
001498: 12,3453           44254                           BZE      BDSU
001499: 12,3454           25470                                    SUFFCHEK
001500: 12,3455           03775                                    COGA
001501: 12,3456           37775                           STCALL   COGA
001502: 12,3457           25343                                    LAMBLOOP
001503:
001504: 12,3460           77745        BIGTIME            DLOAD
001505: 12,3461           02764                                    TPREV
001506: 12,3462           00037                           STORE    T
001507:
001508: 12,3463           71201        LOENERGY           SETPD    DLOAD                                 #  LOW ENERGY TRAJECTORY RESULTED
001509: 12,3464           00001                                    0
001510: 12,3465           03775                                    COGA                                  #  IN OVERFLOW OF TIME.
001511: 12,3466           34017                           STCALL   COGAMAX                               #  THIS IS THE NEW BOUND.
001512: 12,3467           25450                                    COMMONLM
001513:
001514: 12,3470           51545        SUFFCHEK           DLOAD    ABS
001515: 12,3471           02762                                    TERRLAMB
001516: 12,3472           41325                           PDDL     DMP
001517: 12,3473           02673                                    TDESIRED                              #                                PL AT 2D
001518: 12,3474           11612                                    D1/4
001519: 12,3475           45215                           DAD      DSU                                   #                                PL AT 0D
001520: 12,3476           11632                                    ONEBIT
001521: 12,3477           43044                           BPL      SETGO
001522: 12,3500           25525                                    INITV
001523: 12,3501           02434                                    SOLNSW
001524: 12,3502           02712                                    RTNLAMB
001525:
001526: 12,3503           43001        360LAMB            SETPD    SETGO                                 #  LAMBERT CANNOT HANDLE CSTH=1
001527: 12,3504           00001                                    0
001528: 12,3505           02434                                    SOLNSW
001529: 12,3506           02712                                    RTNLAMB
001530:
001531: 12,3507           71331        NOGUESS            SSP      DLOAD
001532: 12,3510           00051                                    TWEEKIT
001533: 12,3511           10000                                    20000
001534: 12,3512           00011                                    COGAMIN
001535: 12,3513           65342                           SR1      PDDL                                  #                                PL AT 2
001536: 12,3514           00017                                    COGAMAX
001537: 12,3515           43342                           SR1      DAD
001538: 12,3516           77626                           STADR                                          #                                PL AT 0
001539: 12,3517           74002                           STORE    COGA
001540: 12,3520           34015                           STCALL   DCOGA
001541: 12,3521           25343                                    LAMBLOOP
001542: 12,3522           52145        LOLIM              DLOAD    GOTO
001543: 12,3523           11636                                    COGLOLIM                              #  COGLOLIM=-.999511597
001544: 12,3524           25333                                    MINCOGA
001545:
001546: 12,3525           60345        INITV              DLOAD    NORM
001547: 12,3526           00041                                    R1
001548: 12,3527           00047                                    X1
001549: 12,3530           70525                           PDDL     SR1                                   #                                PL AT 2
001550: 12,3531           02742                                    P
001551: 12,3532           77671                           DDV                                            #                                PL AT 0
001552: 12,3533           75457                           SL*      SQRT
001553: 12,3534           20175                                    0          -4,1
001554: 12,3535           72405                           DMP      SL1
001555: 12,3536           00021                                    ROOTMU
001556: 12,3537           41206                           PUSH     DMP                                   #  0D=VTAN (+7)                  PL AT 2
001557: 12,3540           03775                                    COGA
001558: 12,3541           74261                           SL       VXSC
001559: 12,3542           20206                                    5
001560: 12,3543           02724                                    UR1
001561: 12,3544           77725                           PDDL                                           #  XCH WITH 0D                   PL AT 0,6
001562: 12,3545           76561                           VXSC     VSL1
001563: 12,3546           02676                                    UN
001564: 12,3547           53235                           VXV      VAD
001565: 12,3550           02724                                    UR1                                   #                                PL AT 0
001566: 12,3551           43172                           VSL1     CLEAR
001567: 12,3552           02674                                    SOLNSW
001568: 12,3553           02746                           STORE    VVEC
001569: 12,3554           53135                           SLOAD    BZE
001570: 12,3555           02704                                    VTARGTAG
001571: 12,3556           25561                                    TARGETV
001572: 12,3557           77650                           GOTO
001573: 12,3560           02712                                    RTNLAMB
001574:
001575: 12,3561           45145        TARGETV            DLOAD    CALL
001576: 12,3562           02722                                    MAGVEC2
001577: 12,3563           24713                                    LAMENTER
001578: 12,3564           36705                           STCALL   VTARGET
001579: 12,3565           02712                                    RTNLAMB
001580:
001581: 12,3566           40220        TIMERAD            STQ      SETPD                                 #                                PL AT 0
001582: 12,3567           02712                                    RTNTR
001583: 12,3570           00001                                    0
001584: 12,3571           77600                           BOV
001585: 12,3572           25573                                    +1
001586: 12,3573           63375                           VLOAD    PDVL                                  #                                PL AT 6
001587: 12,3574           02657                                    RVEC
001588: 12,3575           02746                                    VVEC
001589: 12,3576           77624                           CALL
001590: 12,3577           11637                                    PARAM
001591: 12,3600           71200                           BOV      DLOAD
001592: 12,3601           24776                                    COGAOVFL                              #                                PL AT 0
001593: 12,3602           11616                                    D1/32
001594: 12,3603           41225                           DSU      DMP
001595: 12,3604           02744                                    R1A
001596: 12,3605           02742                                    P
001597: 12,3606           41366                           SQRT     DMP
001598: 12,3607           03775                                    COGA
001599: 12,3610           74212                           SL4      VXSC
001600: 12,3611           02714                                    U2
001601: 12,3612           45325                           PDDL     DSU                                   #                                PL AT 6
001602: 12,3613           11610                                    D1/64
001603: 12,3614           02744                                    R1A
001604: 12,3615           52361                           VXSC     VSU                                   #                                PL AT 0
001605: 12,3616           02724                                    UR1
001606: 12,3617           53512                           VSL4     UNIT
001607: 12,3620           77600                           BOV
001608: 12,3621           25677                                    CIRCULAR
001609: 12,3622           60325                           PDDL     NORM                                  #  0D=UNIT(ECC) (+3)             PL AT 6
001610: 12,3623           02760                                    RDESIRED                              #  36D=ECC (+3)
001611: 12,3624           00047                                    X1
001612: 12,3625           41325                           PDDL     DMP                                   #                                PL AT 8
001613: 12,3626           00041                                    R1
001614: 12,3627           02742                                    P
001615: 12,3630           56257                           SL*      DDV                                   #                                PL AT 6
001616: 12,3631           20201                                    0,1
001617: 12,3632           56225                           DSU      DDV
001618: 12,3633           11614                                    D1/16
001619: 12,3634           00045                                    36D                                   #  36D=ECC (+3)
001620: 12,3635           00031                           STORE    COSF
001621: 12,3636           63400                           BOV      DSQ
001622: 12,3637           25703                                    BADR2
001623: 12,3640           50021                           BDSU     BMN
001624: 12,3641           11612                                    D1/4
001625: 12,3642           25703                                    BADR2
001626: 12,3643           75366                           SQRT     SIGN
001627: 12,3644           02757                                    SGNRDOT
001628: 12,3645           77614                           CLEAR
001629: 12,3646           04272                                    APSESW
001630:
001631: 12,3647           76561        TERMNVEC           VXSC     VSL1
001632: 12,3650           02676                                    UN
001633: 12,3651           63235                           VXV      PDVL                                  #  VXCH WITH 0D          PL AT 0,6
001634: 12,3652           00001                                    0D
001635: 12,3653           53361                           VXSC     VAD                                   #                        PL AT 0
001636: 12,3654           00031                                    COSF
001637: 12,3655           41572                           VSL1     PUSH                                  #  0D=U2                 PL AT 6
001638:
001639: 12,3656           56241                           DOT      DDV                                   #  LIMITS RESULT TO POSMAX OR NEGMAX
001640: 12,3657           02724                                    UR1
001641: 12,3660           23740                                    DP1/4
001642: 12,3661           40142                           SR1      BOV                                   #  SCALE BACK DOWN TO NORMAL
001643: 12,3662           25663                                    +1                                    #  CLEAR OVFIND IF SET
001644: 12,3663           26734                           STOVL    CSTH                                  #  CSTH (+1)
001645: 12,3664           02724                                    UR1
001646: 12,3665           76435                           VXV      VSL1
001647: 12,3666           72441                           DOT      SL1
001648: 12,3667           02676                                    UN
001649: 12,3670           16732                           STODL    SNTH                                  #  SNTH (+1)
001650: 12,3671           02742                                    P
001651: 12,3672           77624                           CALL
001652: 12,3673           25001                                    GETX
001653: 12,3674           77614                           CLRGO
001654: 12,3675           02634                                    SOLNSW
001655: 12,3676           24761                                    COMMNOUT
001656:
001657: 12,3677           43001        CIRCULAR           SETPD    SETGO
001658: 12,3700           00001                                    0
001659: 12,3701           02434                                    SOLNSW
001660: 12,3702           25761                                    ABTCONIC
001661:
001662: 12,3703           75345        BADR2              DLOAD    SIGN
001663: 12,3704           11564                                    LODPHALF
001664: 12,3705           00031                                    COSF
001665: 12,3706           14031                           STODL    COSF
001666: 12,3707           11566                                    KEPZERO
001667: 12,3710           77614                           SETGO
001668: 12,3711           04032                                    APSESW
001669: 12,3712           25647                                    TERMNVEC
001670:
001671: 12,3713           40220        APSIDES            STQ      SETPD                                 #                        PL AT 0
001672: 12,3714           02712                                    RTNAPSE
001673: 12,3715           00001                                    0D
001674: 12,3716           77600                           BOV
001675: 12,3717           25720                                    +1
001676: 12,3720           63375                           VLOAD    PDVL                                  #                        PL AT 6
001677: 12,3721           02657                                    RVEC
001678: 12,3722           02746                                    VVEC
001679: 12,3723           77624                           CALL
001680: 12,3724           11637                                    PARAM
001681: 12,3725           77600                           BOV                                            #                        PL AT 0
001682: 12,3726           25727                                    GETECC
001683: 12,3727           42405        GETECC             DMP      SL4
001684: 12,3730           02744                                    R1A
001685: 12,3731           75421                           BDSU     SQRT
001686: 12,3732           11610                                    D1/64
001687: 12,3733           02754                           STORE    ECC
001688: 12,3734           65215                           DAD      PDDL                                  #                        PL AT 2
001689: 12,3735           11604                                    D1/8
001690: 12,3736           00041                                    R1
001691: 12,3737           72405                           DMP      SL1
001692: 12,3740           02742                                    P
001693: 12,3741           77671                           DDV                                            #                        PL AT 0
001694: 12,3742           60325                           PDDL     NORM                                  #  0D=RP (+29 OR +27)    PL AT 2
001695: 12,3743           02744                                    R1A
001696: 12,3744           00047                                    X1
001697: 12,3745           53725                           PDDL     SL*                                   #                        PL AT 4
001698: 12,3746           00041                                    R1
001699: 12,3747           20174                                    0          -5,1
001700: 12,3750           45271                           DDV      DSU                                   #                        PL AT 2,0
001701: 12,3751           50000                           BOV      BMN
001702: 12,3752           25756                                    INFINAPO
001703: 12,3753           25756                                    INFINAPO
001704: 12,3754           77650                           GOTO
001705: 12,3755           02712                                    RTNAPSE
001706: 12,3756           52145        INFINAPO           DLOAD    GOTO                                  #  RETURNS WITH APOAPSIS IN MPAC, PERIAPSIS
001707: 12,3757           11577                                    LDPOSMAX
001708: 12,3760           02712                                    RTNAPSE                               #  THAT PL IS AT 0.
001709:
001710: 12,3761           77776        ABTCONIC           EXIT
001711: 12,3762           05725                           TC       POODOO
001712: 12,3763           20607                           OCT      20607                                 #  NO SOLUTION FROM TIMETHET OR TIMERAD
001713:
001714: 04,2000                                           SETLOC   CONICS1
001715: 04,2000                                           BANK
001716:
001717: 04,3737                                           COUNT    04/CONIC
001718:
001719: 04,3737           22437 16067  MUTABLE            2DEC*    3.986032   E10        B-36*           #  MUE
001720:
001721: 04,3741           15625 21042                     2DEC*    .25087606  E-10       B+34*           #  1/MUE
001722:
001723: 04,3743           30276 04773                     2DEC*    1.99650495 E5         B-18*           #  SQRT(MUE)
001724:
001725: 04,3745           25004 06702                     2DEC*    .50087529  E-5        B+17*           #  1/SQRT(MUE)
001726:
001727: 04,3747           16471 01352                     2DEC     4.902778   E8         B-30            #  MUM
001728:
001729: 04,3751           21412 20500                     2DEC     .203966    E-8        B+28            #  1/MUM
001730:
001731: 04,3753           25477 03367                     2DEC*    2.21422176 E4         B-15*           #  SQRT(MUM)
001732:
001733: 04,3755           27533 07571                     2DEC*    .45162595  E-4        B+14*           #  1/SQRT(MUM)
001734:
001735: 04,3757  04,3576               LDPOSMAX           EQUALS   LODPMAX                               #  DPPOSMAX IN LOW MEMORY.
001736:
001737:                                                                                                  #  ERASABLE ASSIGNMENTS
001738:
001739:                                                                                                  #  KEPLER SUBROUTINE
001740:
001741:                                                                                                  #  INPUT -
001742:                                                                                                  #  RRECT         ERASE   +5
001743:                                                                                                  #  VRECT         ERASE   +5
001744:                                                                                                  #  TAU.          ERASE   +1
001745:                                                                                                  #  XKEP          ERASE   +1
001746:                                                                                                  #  TC            ERASE   +1
001747:                                                                                                  #  XPREV         ERASE   +1
001748: 04,3757                        1/MU               EQUALS   14D
001749: 04,3757                        ROOTMU             EQUALS   16D
001750: 04,3757                        1/ROOTMU           EQUALS   18D
001751:
001752:                                                                                                  #  OUTPUT -
001753:                                                                                                  #  RCV           ERASE   +5
001754:                                                                                                  #  VCV           ERASE   +5
001755:                                                                                                  #  RC            ERASE   +1
001756:                                                                                                  #  XPREV         ERASE   +1
001757:
001758:                                                                                                  #  DEBRIS -
001759: 04,3757                        ALPHA              EQUALS   8D
001760: 04,3757                        XMAX               EQUALS   10D
001761: 04,3757                        XMIN               EQUALS   12D
001762: 04,3757                        X                  EQUALS   20D
001763: 04,3757                        XI                 EQUALS   24D
001764: 04,3757                        S(XI)              EQUALS   26D
001765: 04,3757                        XSQC(XI)           EQUALS   28D
001766: 04,3757                        T                  EQUALS   30D
001767: 04,3757                        R1                 EQUALS   32D
001768: 04,3757                        KEPC1              EQUALS   34D
001769: 04,3757                        KEPC2              EQUALS   36D
001770:
001771:                                                                                                  #  DELX          ERASE   +1
001772:                                                                                                  #  DELT          ERASE   +1
001773:                                                                                                  #  URRECT        ERASE   +5
001774:                                                                                                  #  RCNORM        ERASE   +1
001775:                                                                                                  #  XPREV         EQUALS  XKEP
001776:
001777:
001778:                                                                                                  #  LAMBERT SUBROUTINE
001779:
001780:                                                                                                  #  INPUT -
001781:                                                                                                  #  R1VEC         ERASE   +5
001782:                                                                                                  #  R2VEC         ERASE   +5
001783:                                                                                                  #  TDESIRED      ERASE   +1
001784:                                                                                                  #  GEOMSGN       ERASE   +0
001785:                                                                                                  #  GUESSW                        0 IF COGA GUESS AVAILABLE, 1 IF NOT
001786:                                                                                                  #  COGA          ERASE   +1      INPUT ONLY IF GUESSW IS ZERO.
001787:                                                                                                  #  NORMSW                        0 IF UN TO BE COMPUTED, 1 IF UN INPUT
001788:                                                                                                  #  UN            ERASE   +5      ONLY USED IF NORMSW IS 1
001789:                                                                                                  #  VTARGTAG      ERASE   +0
001790:                                                                                                  #  TWEEKIT       EQUALS  40D     ONLY USED IF GUESSW IS 0
001791:
001792:                                                                                                  #  OUTPUT -
001793:                                                                                                  #  VTARGET       ERASE   +5      AVAILABLE ONLY IF VTARGTAG IS ZERO.
001794:                                                                                                  #  V1VEC         EQUALS  MPAC
001795:
001796:                                                                                                  #  DEBRIS -
001797:                                                                                                  #  RTNLAMB       ERASE   +0
001798:                                                                                                  #  U2            ERASE   +5
001799:                                                                                                  #  MAGVEC2       ERASE   +1
001800:                                                                                                  #  UR1           ERASE   +5
001801:                                                                                                  #  R1            EQUALS  31D
001802:                                                                                                  #  UN            ERASE   +5
001803:                                                                                                  #  SNTH          ERASE   +1
001804:                                                                                                  #  CSTH          ERASE   +1
001805:                                                                                                  #  1-CSTH        ERASE   +1
001806:                                                                                                  #  CSTH-RHO      ERASE   +1
001807:
001808: 04,3757                        COGAMAX            EQUALS   14D                                   #  CLOBBERS 1/MU
001809: 04,3757                        COGAMIN            EQUALS   8D
001810: 04,3757                        DCOGA              EQUALS   12D
001811:
001812:                                                                                                  #  TWEEKIT       EQUALS  40D
001813:                                                                                                  #  P             ERASE   +1
001814:                                                                                                  #  COGA          ERASE   +1
001815:                                                                                                  #  R1A           ERASE   +1
001816:                                                                                                  #  X             EQUALS  20D
001817:                                                                                                  #  XSQ           EQUALS  22D
001818:                                                                                                  #  XI            EQUALS  24D
001819:                                                                                                  #  S(XI)         EQUALS  26D
001820:                                                                                                  #  XSQC(XI)      EQUALS  28D
001821:                                                                                                  #  T             EQUALS  30D
001822:                                                                                                  #  KEPC1         EQUALS  34D
001823:                                                                                                  #  KEPC2         EQUALS  36D
001824:                                                                                                  #  SLOPESW
001825:                                                                                                  #  SOLNSW
001826:
001827:                                                                                                  #  OTHERS -
001828:                                                                                                  #  RVEC          EQUALS  R1VEC
001829:                                                                                                  #  VVEC          ERASE   +5
001830:                                                                                                  #  COGAFLAG
001831:                                                                                                  #  RVSW
001832:                                                                                                  #  INFINFLG
001833:                                                                                                  #  APSESW
001834:                                                                                                  #  360SW
001835:                                                                                                  #  RTNTT         EQUALS  RTNLAMB
001836:                                                                                                  #  ECC           ERASE   +1
001837:                                                                                                  #  RTNTR         EQUALS  RTNLAMB
001838:                                                                                                  #  RTNAPSE       EQUALS  RTNLAMB
001839:                                                                                                  #  R2            EQUALS  MAGVEC2
001840:
001841: 04,3757                        COSF               EQUALS   24D
001842:
001843:                                                                                                  #  RTNPRM        ERASE   +0
001844:                                                                                                  #  SGNRDOT       ERASE   +0
001845:                                                                                                  #  RDESIRED      ERASE   +1
001846:
001847:
001848:                                                                                                  #  ITERATOR SUBROUTINE
001849:
001850:                                                                                                  #  ORDERSW
001851: 04,3757                        MAX                EQUALS   14D                                   #  CLOBBERS 1/MU
001852: 04,3757                        MIN                EQUALS   8D
001853:
001854:                                                                                                  #  INDEP         ERASE   +1
001855:
001856: 04,3757                        DELINDEP           EQUALS   12D
001857: 04,3757                        ITERCTR            EQUALS   22D
001858: 04,3757                        DEP                EQUALS   30D
001859:
001860:                                                                                                  #  DELDEP        ERASE   +1
001861:                                                                                                  #  DEPREV        ERASE   +1
001862:
001863: 04,3757                        TWEEKIT            EQUALS   40D
001864:
001865:
001866:                                                                                                  #  MORE KEPLER
001867:
001868:                                                                                                  #  EPSILONT      ERASE   +1
001869:
001870:                                                                                                  #  MORE LAMBERT
001871:
001872:                                                                                                  #  TERRLAMB      EQUALS  DELDEP
001873:                                                                                                  #  TPREV         EQUALS  DEPREV
001874:
001875:                                                                                                  #  EPSILONL      EQUALS  EPSILONT +2     DOUBLE PRECISION WORD
001876:
001877:

End of include-file CONIC_SUBROUTINES.agc.  Parent file is MAIN.agc


