
Source Code


000002:                                                                                                  ## Copyright:   Public domain.
000003:                                                                                                  ## Filename:    ERASABLE_ASSIGNMENTS.agc
000004:                                                                                                  ## Purpose:     A section of Comanche revision 072.
000005:                                                                                                  ##              It is part of the reconstructed source code for the first
000006:                                                                                                  ##              release of the software for the Command Module's (CM) Apollo
000007:                                                                                                  ##              Guidance Computer (AGC) for Apollo 13. No original listings
000008:                                                                                                  ##              of this program are available; instead, this file was recreated
000009:                                                                                                  ##              from a printout of Comanche 055, binary dumps of a set of
000010:                                                                                                  ##              Comanche 067 rope modules, and changelogs between Comanche 067
000011:                                                                                                  ##              and 072. It has been adapted such that the resulting bugger words
000012:                                                                                                  ##              exactly match those specified for Comanche 072 in NASA drawing
000013:                                                                                                  ##              2021153G, which gives relatively high confidence that the
000014:                                                                                                  ##              reconstruction is correct.
000015:                                                                                                  ## Assembler:   yaYUL
000016:                                                                                                  ## Contact:     Ron Burkey <info@sandroid.org>.
000017:                                                                                                  ## Website:     www.ibiblio.org/apollo/index.html
000018:                                                                                                  ## Mod history: 2024-05-13 MAS  Created from Comanche 067.
000019:                                                                                                  ##              2024-05-14 MAS  Implemented fix for COM-21, "Backwards
000020:                                                                                                  ##                              integration can occur in P27 uplink".
000021:                                                                                                  ##              2024-05-16 MAS  Implemented PCR-936.1, "Initialize V90 time
000022:                                                                                                  ##                              to TIG".
000023:
000024:                                                                                                  #  CONVENTIONS AND NOTATIONS UTILIZED FOR ERASABLE ASSIGNMENTS.
000025:
000026:                                                                                                  #        EQUALS  IS USED IN TWO WAYS.  IT IS OFTEN USED TO CHAIN A GROUP
000027:                                                                                                  #                OF ASSIGNMENTS SO THAT THE GROUP MAY BE MOVED WITH THE
000028:                                                                                                  #                CHANGING OF ONLY ONE CARD.  EXAMPLE.
000029:
000030:                                                                                                  #                        X       EQUALS  START
000031:                                                                                                  #                        Y       EQUALS  X       +SIZE.X
000032:                                                                                                  #                        Z       EQUALS  Y       +SIZE.Y
000033:
000034:                                                                                                  #                (X, Y, AND Z ARE CONSECUTIVE AND BEGIN AT START.       )
000035:                                                                                                  #                (SIZE.X AND SIZE.Y ARE THE RESPECTIVE SIZES OF X AND Y,
000036:                                                                                                  #                 USUALLY NUMERIC, IE. 1, 2, 6, 18D ETC.                )
000037:
000038:                                                                                                  #        EQUALS  OFTEN IMPLIES THE SHARING OF REGISTERS (DIFFERENT NAMES
000039:                                                                                                  #                AND DIFFERENT DATA).  EXAMPLE.
000040:
000041:                                                                                                  #                        X       EQUALS  Y
000042:
000043:                                                                                                  #        =       MEANS THAT MULTIPLE NAMES HAVE BEEN GIVEN TO THE SAME DATA.
000044:                                                                                                  #                (THIS IS LOGICAL EQUIVALENCE, NOT SHARING)  EXAMPLE.
000045:
000046:                                                                                                  #                        X       =       Y
000047:
000048:                                                                                                  #        THE SIZE AND UTILIZATION OF AN ERASABLE ARE OFTEN INCLUDED IN
000049:                                                                                                  #        THE COMMENTS IN THE FOLLOWING FORM.  M(SIZE)N.
000050:
000051:                                                                                                  #                M       REFERS TO THE MOBILITY OF THE ASSIGNMENT.
000052:                                                                                                  #                        B       MEANS THAT THE SYMBOL IS REFERENCED BY BASIC
000053:                                                                                                  #                                INSTRUCTIONS AND THUS IS E-BANK SENSITIVE.
000054:                                                                                                  #                        I       MEANS THAT THE SYMBOL IS REFERENCED ONLY BY
000055:                                                                                                  #                                INTERPRETIVE INSTRUCTIONS, AND IS THUS E-BANK
000056:                                                                                                  #                                INSENSITIVE AND MAY APPEAR IN ANY E-BANK.
000057:
000058:                                                                                                  #                SIZE    IS THE NUMBER OF REGISTERS INCLUDED BY THE SYMBOL.
000059:
000060:                                                                                                  #                N       INDICATES THE NATURE OR PERMANENCE OF THE CONTENTS.
000061:                                                                                                  #                        PL      MEANS THAT THE CONTENTS ARE PAD LOADED.
000062:                                                                                                  #                        DSP     MEANS THAT THE REGISTER IS USED FOR A DISPLAY.
000063:                                                                                                  #                        PRM     MEANS THAT THE REGISTER IS PERMANENT, IE. IT
000064:                                                                                                  #                                IS USED DURING THE ENTIRE MISSION FOR ONE
000065:                                                                                                  #                                PURPOSE AND CANNOT BE SHARED.
000066:                                                                                                  #                        TMP     MEANS THAT THE REGISTER IS USED TEMPORARILY OR
000067:                                                                                                  #                                IS A SCRATCH REGISTER FOR THE ROUTINE TO WHICH
000068:                                                                                                  #                                IT IS ASSIGNED.  THAT IS, IT NEED NOT BE SET
000069:                                                                                                  #                                PRIOR TO INVOCATION OF THE ROUTINE NOR DOES IT
000070:                                                                                                  #                                CONTAIN USEFUL OUTPUT TO ANOTHER ROUTINE.  THUS
000071:                                                                                                  #                                IT MAY BE SHARED WITH ANY OTHER ROUTINE WHICH
000072:                                                                                                  #                                IS NOT ACTIVE IN PARALLEL.
000073:                                                                                                  #                        IN      MEANS INPUT TO THE ROUTINE AND IT IS PROBABLY
000074:                                                                                                  #                                TEMPORARY FOR A HIGHER-LEVEL ROUTINE/PROGRAM.
000075:                                                                                                  #                        OUT     MEANS OUTPUT FROM THE ROUTINE, PROBABLY
000076:                                                                                                  #                                TEMPORARY FOR A HIGHER-LEVEL ROUTINE/PROGRAM.
000077:
000078:
000079:                                                                                                  #  SPECIAL REGISTERS.
000080:
000081: 37,2001                        A                  EQUALS   0
000082: 37,2001                        L                  EQUALS   1                                     #  L AND Q ARE BOTH CHANNELS AND REGISTERS.
000083: 37,2001                        Q                  EQUALS   2
000084: 37,2001                        EBANK              EQUALS   3
000085: 37,2001                        FBANK              EQUALS   4
000086: 37,2001                        Z                  EQUALS   5                                     #  ADJACENT TO FBANK AND BBANK FOR DXCH Z
000087: 37,2001                        BBANK              EQUALS   6                                     #  (DTCB) AND DXCH FBANK (DTCF).
000088:                                                                                                  #  REGISTER 7 IS A ZERO-SOURCE, USED BY ZL.
000089:
000090: 37,2001                        ARUPT              EQUALS   10                                    #  INTERRUPT STORAGE.
000091: 37,2001                        LRUPT              EQUALS   11
000092: 37,2001                        QRUPT              EQUALS   12
000093: 37,2001                        SAMPTIME           EQUALS   13                                    #  SAMPLED TIME 1 & 2.
000094: 37,2001                        ZRUPT              EQUALS   15                                    #  (13 AND 14 ARE SPARES.)
000095: 37,2001                        BANKRUPT           EQUALS   16                                    #  USUALLY HOLDS FBANK OR BBANK.
000096: 37,2001                        BRUPT              EQUALS   17                                    #  RESUME ADDRESS AS WELL.
000097:
000098: 37,2001                        CYR                EQUALS   20
000099: 37,2001                        SR                 EQUALS   21
000100: 37,2001                        CYL                EQUALS   22
000101: 37,2001                        EDOP               EQUALS   23                                    #  EDITS INTERPRETIVE OPERATION CODE PAIRS.
000102:
000103: 37,2001                        TIME2              EQUALS   24
000104: 37,2001                        TIME1              EQUALS   25
000105: 37,2001                        TIME3              EQUALS   26
000106: 37,2001                        TIME4              EQUALS   27
000107: 37,2001                        TIME5              EQUALS   30
000108: 37,2001                        TIME6              EQUALS   31
000109: 37,2001                        CDUX               EQUALS   32
000110: 37,2001                        CDUY               EQUALS   33
000111: 37,2001                        CDUZ               EQUALS   34
000112: 37,2001                        CDUT               EQUALS   35                                    #  OPTICS TRUNNION CDU (WAS OPTY).
000113: 37,2001  0000035               OPTY               =        CDUT
000114: 37,2001                        CDUS               EQUALS   36                                    #  OPTICS SHAFT CDU (WAS OPTX).
000115: 37,2001  0000036               OPTX               =        CDUS
000116: 37,2001                        PIPAX              EQUALS   37
000117: 37,2001                        PIPAY              EQUALS   40
000118: 37,2001                        PIPAZ              EQUALS   41
000119: 37,2001                        BMAGX              EQUALS   42
000120: 37,2001                        BMAGY              EQUALS   43
000121: 37,2001                        BMAGZ              EQUALS   44
000122: 37,2001                        INLINK             EQUALS   45
000123: 37,2001                        RNRAD              EQUALS   46
000124: 37,2001                        GYROCTR            EQUALS   47
000125: 37,2001                        GYROCMD            EQUALS   47
000126: 37,2001                        CDUXCMD            EQUALS   50
000127: 37,2001                        CDUYCMD            EQUALS   51
000128:
000129:
000130: 37,2001                        CDUZCMD            EQUALS   52
000131: 37,2001                        CDUTCMD            EQUALS   53                                    #  OPTICS TRUNNION COMMAND (WAS OPTYCMD).
000132: 37,2001  0000053               OPTYCMD            =        CDUTCMD
000133: 37,2001  0000053               TVCYAW             EQUALS   CDUTCMD                               #  SPS YAW COMMAND IN TVC MODE.
000134: 37,2001                        CDUSCMD            EQUALS   54                                    #  OPTICS SHAFT COMMAND (WAS OPTXCMD).
000135: 37,2001  0000054               TVCPITCH           EQUALS   CDUSCMD                               #  SPS PITCH COMMAND IN TVC MODE.
000136: 37,2001  0000054               OPTXCMD            =        CDUSCMD
000137: 37,2001                        EMSD               EQUALS   55
000138: 37,2001                        THRUST             EQUALS   55
000139: 37,2001                        LEMONM             EQUALS   56
000140: 37,2001                        LOCALARM           EQUALS   57
000141: 37,2001                        BANKALRM           EQUALS   60
000142:
000143:                                                                                                  #  INTERPRETIVE REGISTERS ADDRESSED RELATIVE TO VAC AREA.
000144:
000145: 37,2001                        LVSQUARE           EQUALS   34D                                   #  SQUARE OF VECTOR INPUT TO ABVAL AND UNIT
000146: 37,2001                        LV                 EQUALS   36D                                   #  LENGTH OF VECTOR INPUT TO UNIT.
000147: 37,2001                        X1                 EQUALS   38D                                   #  INTERPRETIVE SPECIAL REGISTERS RELATIVE
000148: 37,2001                        X2                 EQUALS   39D                                   #  TO THE WORK AREA.
000149: 37,2001                        S1                 EQUALS   40D
000150: 37,2001                        S2                 EQUALS   41D
000151: 37,2001                        QPRET              EQUALS   42D
000152:
000153:
000154:                                                                                                  #  INPUT/OUTPUT CHANNELS
000155:
000156:                                                                                                  #  *** CHANNEL ZERO IS TO BE USED IN AN INDEXED OPERATION ONLY. ***
000157: 37,2001  0000001               LCHAN              EQUALS   L
000158: 37,2001  0000002               QCHAN              EQUALS   Q
000159: 37,2001                        HISCALAR           EQUALS   3
000160: 37,2001                        LOSCALAR           EQUALS   4
000161: 37,2001                        PYJETS             EQUALS   5
000162: 37,2001                        ROLLJETS           EQUALS   6
000163: 37,2001                        SUPERBNK           EQUALS   7
000164: 37,2001                        OUT0               EQUALS   10
000165: 37,2001                        DSALMOUT           EQUALS   11
000166: 37,2001                        CHAN12             EQUALS   12
000167: 37,2001                        CHAN13             EQUALS   13
000168: 37,2001                        CHAN14             EQUALS   14
000169: 37,2001                        MNKEYIN            EQUALS   15
000170: 37,2001                        NAVKEYIN           EQUALS   16
000171: 37,2001                        CHAN30             EQUALS   30
000172: 37,2001                        CHAN31             EQUALS   31
000173: 37,2001                        CHAN32             EQUALS   32
000174: 37,2001                        CHAN33             EQUALS   33
000175: 37,2001                        DNTM1              EQUALS   34
000176: 37,2001                        DNTM2              EQUALS   35
000177:
000178:                                                                                                  #  END OF CHANNEL ASSIGNMENTS
000179:
000180:
000181:                                                                                                  #  FLAGWORDS
000182:
000183:                                                                                                  #  FLAGWRD0      STATE +0        (000-014)
000184:                                                                                                  #  FLAGWRD1      STATE +1        (015-029)
000185:                                                                                                  #  FLAGWRD2      STATE +2        (030-044)
000186:                                                                                                  #  FLAGWRD3      STATE +3        (045-059)
000187:                                                                                                  #  FLAGWRD4      STATE +4        (060-074)
000188:                                                                                                  #  FLAGWRD5      STATE +5        (075-089)
000189:                                                                                                  #  FLAGWRD6      STATE +6        (090-104)
000190:                                                                                                  #  FLAGWRD7      STATE +7        (105-119)
000191:                                                                                                  #  FLAGWRD8      STATE +8D       (120-134)
000192:                                                                                                  #  FLAGWRD9      STATE +9D       (135-149)
000193:
000194:                                                                                                  #        SORTED LIST OF
000195:                                                                                                  #        INTERPITIVE SWITCH BIT ASSIGNMENTS
000196:
000197:                                                                                                  #  INTERPRETIVE SWITCH BIT ASSIGNMENTS
000198:
000199:                                                                                                  #  FLAGWORD      DEC NUM         BIT + FLAG      EQUIVALENT FLAGWORDS
000200:
000201:                                                                                                  #  22DSPFLG      032D            BIT 13 FLAG 2
000202:                                                                                                  #  360SW         134D            BIT 1 FLAG 8
000203:                                                                                                  #  3AXISFLG      084D            BIT 6 FLAG 5
000204:                                                                                                  #  ADVTRK        125D            BIT 10 FLAG 8
000205:                                                                                                  #  AMOONFLG      13D             BIT 2 FLAG 0
000206:                                                                                                  #  APSESW        130D            BIT 5 FLAG 8
000207:                                                                                                  #  ASTNFLAG      108D            BIT 12 FLAG 7
000208:                                                                                                  #  ATTCHFLG      118D            BIT 2 FLAG 7
000209:                                                                                                  #  AVEGFLAG      029D            BIT 1 FLAG 1
000210:                                                                                                  #  AVEMIDSW      149D            BIT 1 FLAG 9
000211:                                                                                                  #  AVFLAG        040D            BIT 5 FLAG 2
000212:                                                                                                  #  CALCMAN2      043D            BIT 2 FLAG 2
000213:                                                                                                  #  CMDAPARM      093D            BIT 12 FLAG 6
000214:                                                                                                  #  CMOONFLG      123D            BIT 12 FLAG 8
000215:                                                                                                  #  CM/DSTBY      103D            BIT 2 FLAG 6
000216:                                                                                                  #  COGAFLAG      131D            BIT 4 FLAG 8
000217:                                                                                                  #  COMPUTER      082D            BIT 8 FLAG 5
000218:                                                                                                  #  CPHIFLAG      000D            BIT 15 FLAG 0
000219:                                                                                                  #  CULTFLAG      053D            BIT 7 FLAG 3
000220:                                                                                                  #  D6OR9FLG      058D            BIT 2 FLAG 3
000221:                                                                                                  #  DAPBIT1       090D            BIT 15 FLAG 6
000222:                                                                                                  #  DAPBIT2       091D            BIT 14 FLAG 6
000223:                                                                                                  #  DIM0FLAG      059D            BIT 1 FLAG 3
000224:                                                                                                  #  DMENFLG       081D            BIT 9 FLAG 5
000225:                                                                                                  #  DRIFTFLG      030D            BIT 15 FLAG 2
000226:                                                                                                  #  DSKYFLAG      075D            BIT 15 FLAG 5
000227:                                                                                                  #  EGSW          97D             BIT 8 FLAG 6     KNOWNFLG R57FLAG
000228:
000229:
000230:                                                                                                  #  ENG1FLAG      018D            BIT 12 FLAG 1
000231:                                                                                                  #  ENG2FLAG      019D            BIT 11 FLAG 1
000232:                                                                                                  #  ENGONFLG      083D            BIT 7 FLAG 5
000233:                                                                                                  #  ERADFLAG      017D            BIT 13 FLAG 1
000234:                                                                                                  #  ETPIFLAG      038D            BIT 7 FLAG 2    FIRSTFLG OPTNSW
000235:                                                                                                  #  F2RTE         10D             BIT 5 FLAG 0
000236:                                                                                                  #  FINALFLG      039D            BIT 6 FLAG 2
000237:                                                                                                  #  FIRSTFLG      38D             BIT 7 FLAG 2    ETPIFLAG OPTNSW
000238:                                                                                                  #  FREEFLAG      012D            BIT 3 FLAG 0
000239:                                                                                                  #  GAMDIFSW      094D            BIT 11 FLAG 6
000240:                                                                                                  #  GLOKFAIL      046D            BIT 14 FLAG 3
000241:                                                                                                  #  GONEBY        112D            BIT 8 FLAG 7
000242:                                                                                                  #  GONEPAST      095D            BIT 10 FLAG 6
000243:                                                                                                  #  GRRBKFLG      085D            BIT 5 FLAG 5
000244:                                                                                                  #  GUESSW        028D            BIT 2 FLAG 1
000245:                                                                                                  #  GYMDIFSW      104D            BIT 1 FLAG 6
000246:                                                                                                  #  .05GSW        102D            BIT 3 FLAG 6
000247:                                                                                                  #  HIND          099D            BIT 6 FLAG 6
000248:                                                                                                  #  IDLEFAIL      024D            BIT 6 FLAG 1
000249:                                                                                                  #  IDLEFLAG      113D            BIT 7 FLAG 7
000250:                                                                                                  #  IGNFLAG       107D            BIT 13 FLAG 7
000251:                                                                                                  #  IMPULSW       036D            BIT 9 FLAG 2
000252:                                                                                                  #  IMUSE         007D            BIT 8 FLAG 0
000253:                                                                                                  #  INCORFLG      079D            BIT 11 FLAG 5
000254:                                                                                                  #  INFINFLG      128D            BIT 7 FLAG 8
000255:                                                                                                  #  INRLSW        100D            BIT 5 FLAG 6
000256:                                                                                                  #  INTFLAG       151D            BIT 14 FLAG 10
000257:                                                                                                  #  INTYPFLG      056D            BIT 4 FLAG 3
000258:                                                                                                  #  ITSWICH       106D            BIT 14 FLAG 7
000259:                                                                                                  #  KFLAG         014D            BIT 1 FLAG 0
000260:                                                                                                  #  KNOWNFLG      097D            BIT 8 FLAG 6    EGSW R57FLAG
000261:                                                                                                  #  LATSW         101D            BIT 4 FLAG 6
000262:                                                                                                  #  LMOONFLG      124D            BIT 11 FLAG 8
000263:                                                                                                  #  LUNAFLAG      048D            BIT 12 FLAG 3
000264:                                                                                                  #  MAXDBFLG      138D            BIT 12 FLAG 9
000265:                                                                                                  #  MGLVFLAG      088D            BIT 2 FLAG 5
000266:                                                                                                  #  MID1FLAG      147D            BIT 3 FLAG 9
000267:                                                                                                  #  MIDAVFLG      148D            BIT 2 FLAG 9
000268:                                                                                                  #  MIDFLAG       002D            BIT 13 FLAG 0
000269:                                                                                                  #  MKOVFLAG      072D            BIT 3 FLAG 4
000270:                                                                                                  #  MOONFLAG      003D            BIT 12 FLAG 0
000271:                                                                                                  #  MRKIDFLG      060D            BIT 15 FLAG 4
000272:                                                                                                  #  MRKNVFLG      066D            BIT 9 FLAG 4
000273:                                                                                                  #  MRUPTFLG      070D            BIT 5 FLAG 4
000274:                                                                                                  #  MWAITFLG      064D            BIT 11 FLAG 4
000275:                                                                                                  #  N22ORN17      144D            BIT 6 FLAG 9
000276:                                                                                                  #  NEEDLFLG      006D            BIT 9 FLAG 0
000277:                                                                                                  #  NEWIFLG       122D            BIT 13 FLAG 8
000278:                                                                                                  #  NJETSFLG      015D            BIT 15 FLAG 1
000279:                                                                                                  #  NODOFLAG      044D            BIT 1 FLAG 2
000280:
000281:
000282:                                                                                                  #  NODOP01       018D            BIT 12 FLAG 1
000283:                                                                                                  #  NORFHOR       004D            BIT 11 FLAG 0
000284:                                                                                                  #  NORMSW        110D            BIT 10 FLAG 7
000285:                                                                                                  #  NOSWITCH      098D            BIT 7 FLAG 6
000286:                                                                                                  #  NRMIDFLG      062D            BIT 13 FLAG 4
000287:                                                                                                  #  NRMNVFLG      067D            BIT 8 FLAG 4
000288:                                                                                                  #  NRUPTFLG      071D            BIT 4 FLAG 4
000289:                                                                                                  #  NWAITFLG      065D            BIT 10 FLAG 4
000290:                                                                                                  #  OPTNSW        038D            BIT 7 FLAG 2    ETPIFLAG FIRSTFLG
000291:                                                                                                  #  ORBWFLAG      054D            BIT 6 FLAG 3
000292:                                                                                                  #  ORDERSW       129D            BIT 6 FLAG 8
000293:                                                                                                  #  P21FLAG       033D            BIT 12 FLAG 2
000294:                                                                                                  #  P22MKFLG      49D             BIT 11 FLAG 3
000295:                                                                                                  #  P39/79SW      126D            BIT 9 FLAG 8
000296:                                                                                                  #  PDSPFLAG      063D            BIT 12 FLAG 4
000297:                                                                                                  #  PFRATFLG      041D            BIT 4 FLAG 2
000298:                                                                                                  #  PINBRFLG      069D            BIT 6 FLAG 4


000302:                                                                                                  #  POOFLAG       051D            BIT 9  FLAG 3
000303:                                                                                                  #  PRECIFLG      052D            BIT 8 FLAG 3
000304:                                                                                                  #  PRFTRKAT      080D            BIT 10 FLAG 5
000305:                                                                                                  #  PRIODFLG      061D            BIT 14 FLAG 4
000306:                                                                                                  #  PRONVFLG      068D            BIT 7 FLAG 4
000307:                                                                                                  #  QUITFLAG      145D            BIT 5 FLAG 9
000308:                                                                                                  #  R21MARK       031D            BIT 14 FLAG 2
000309:                                                                                                  #  R22CAFLG      143D            BIT 7 FLAG 9
000310:                                                                                                  #  R23FLG        021D            BIT 9 FLAG 1
000311:                                                                                                  #  R31FLAG       146D            BIT 4 FLAG 9
000312:                                                                                                  #  R53FLAG       009D            BIT 6 FLAG 0
000313:                                                                                                  #  R57FLAG       097D            BIT 8 FLAG 6    KNOWNFLG EGSW
000314:                                                                                                  #  R60FLAG       086D            BIT 4 FLAG 5
000315:                                                                                                  #  REFSMFLG      047D            BIT 13 FLAG 3
000316:                                                                                                  #  REINTFLG      158D            BIT 7 FLAG 10
000317:                                                                                                  #  RELVELSW      096D            BIT 9 FLAG 6
000318:                                                                                                  #  RENDWFLG      089D            BIT 1 FLAG 5
000319:                                                                                                  #  RETROFLG      76D             BIT 14 FLAG 5
000320:                                                                                                  #  RNDVZFLG      008D            BIT 7 FLAG 0
000321:                                                                                                  #  RPQFLAG       120D            BIT 15 FLAG 8
000322:                                                                                                  #  RVSW          111D            BIT 9 FLAG 7
000323:                                                                                                  #  SAVECFLG      140D            BIT 10 FLAG 9
000324:                                                                                                  #  SKIPVHF       035D            BIT 10 FLAG 2
000325:                                                                                                  #  SLOPESW       027D            BIT 3 FLAG 1
000326:                                                                                                  #  SLOWFLG       77D             BIT 13 FLAG 5
000327:                                                                                                  #  SOLNSW        087D            BIT 3 FLAG 5
000328:                                                                                                  #  SOURCFLG      142D            BIT 8 FLAG 9
000329:                                                                                                  #  STATEFLG      055D            BIT 5 FLAG 3
000330:                                                                                                  #  STEERSW       034D            BIT 11 FLAG 2
000331:                                                                                                  #  STIKFLAG      016D            BIT 14 FLAG 1
000332:                                                                                                  #  STRULLSW      92D             BIT 13 FLAG 6
000333:                                                                                                  #  SURFFLAG      127D            BIT 8 FLAG 8
000334:                                                                                                  #  SWTOVER       135D            BIT 15 FLAG 9
000335:                                                                                                  #  TARG1FLG      020D            BIT 10 FLAG 1
000336:
000337:
000338:                                                                                                  #  TARG2FLG      021D            BIT 9 FLAG 1
000339:                                                                                                  #  TERMIFLG      105D            BIT 15 FLAG 7
000340:                                                                                                  #  TFFSW         119D            BIT 1 FLAG 7
000341:                                                                                                  #  TIMRFLAG      109D            BIT 11 FLAG 7
000342:                                                                                                  #  TRACKFLG      025D            BIT 5 FLAG 1
000343:                                                                                                  #  TRM03FLG      26D             BIT 4 FLAG 1
000344:                                                                                                  #  TRUNFLAG      011D            BIT 4 FLAG 0
000345:                                                                                                  #  UPDATFLG      023D            BIT 7 FLAG 1
000346:                                                                                                  #  UPLOCKFL      116D            BIT 4 FLAG 7
000347:                                                                                                  #  V37FLAG       114D            BIT 6 FLAG 7
000348:                                                                                                  #  V50N18FL      045D            BIT 15 FLAG 3
000349:                                                                                                  #  V59FLAG       078D            BIT 12 FLAG 5
000350:                                                                                                  #  V82EMFLG      137D            BIT 13 FLAG 9
000351:                                                                                                  #  V94FLAG       139D            BIT 11 FLAG 9
000352:                                                                                                  #  V96ONFLG      132D            BIT 3 FLAG 8
000353:                                                                                                  #  VEHUPFLG      022D            BIT 8 FLAG 1
000354:                                                                                                  #  VERIFLAG      117D            BIT 3 FLAG 7
000355:                                                                                                  #  VFLAG         050D            BIT 10 FLAG 3
000356:                                                                                                  #  VHFRFLAG      141D            BIT 9 FLAG 9
000357:                                                                                                  #  VINTFLAG      057D            BIT 3 FLAG 3
000358:                                                                                                  #  XDELVFLG      037D            BIT 8 FLAG 2
000359:                                                                                                  #  XDSPFLAG      074D            BIT 1 FLAG 4
000360:
000361:
000362:                                                                                                  #  INTERPRETIVE SWITCH BIT ASSIGNMENTS
000363: 37,2001     0074               FLAGWRD0           =        STATE      +0                         #  (000-014)
000364:                                                                                                  #  (SET)                 (RESET)
000365:                                                                                                  #  BIT 15 FLAG 0
000366: 37,2001                        CPHIFLAG           =        000D                                  #  OUTPUT OF CALCGA IS   OUTPUT OF CALCGA IS
000367:                                                                                                  #  CPHIX                 THETAD
000368: 37,2001     5015               CPHIBIT            =        BIT15
000369:
000370:                                                                                                  #  BIT 14 FLAG 0
000371: 37,2001                        JSWITCH            =        001D                                  #  INTEGRATION OF W      INTEGRATION OF STATE
000372:                                                                                                  #  MATRIX                VECTOR
000373: 37,2001     5016               JSWCHBIT           =        BIT14
000374:
000375:                                                                                                  #  BIT 13 FLAG 0
000376: 37,2001                        MIDFLAG            =        002D                                  #  INTEGRATION WITH      INTEGRATION WITHOUT
000377:                                                                                                  #  SOLAR PERTURBATIONS   SOLAR PERTURBATIONS
000378:
000379: 37,2001     5017               MIDFLBIT           =        BIT13
000380:
000381:                                                                                                  #  BIT 12 FLAG 0
000382: 37,2001                        MOONFLAG           =        003D                                  #  MOON IS SPHERE OF     EARTH IS SPHERE OF
000383:                                                                                                  #  INFLUENCE             INFLUENCE
000384:
000385: 37,2001     5020               MOONBIT            =        BIT12
000386:
000387:                                                                                                  #  BIT 11 FLAG 0
000388: 37,2001                        NORFHOR            =        004D                                  #  FAR HORIZON           NEAR HORIZON
000389:
000390: 37,2001     5021               NORFBIT            =        BIT11
000391:
000392:                                                                                                  #  BIT 10 FLAG 0
000393: 37,2001                        ZMEASURE           =        005D                                  #  MEASUREMENT PLANET    MEASUREMENT PLANET
000394:                                                                                                  #  AND PRIMARY PLANET    AND PRIMARY PLANET
000395:                                                                                                  #  DIFFERENT             SAME
000396:
000397: 37,2001     5022               ZMEASBIT           =        BIT10
000398:
000399:                                                                                                  #  BIT 9 FLAG 0
000400: 37,2001                        NEEDLFLG           =        006D                                  #  TOTAL ATTIDUDE        A/P FOLLOWING ERROR
000401:                                                                                                  #  ERROR DISPLAYED       DISPLAYED
000402:
000403: 37,2001     5023               NEEDLBIT           =        BIT9
000404:
000405:                                                                                                  #  BIT 8 FLAG 0
000406: 37,2001                        IMUSE              =        007D                                  #  IMU IN USE            IMU NOT IN USE
000407:
000408:
000409: 37,2001     5024               IMUSEBIT           =        BIT8
000410:
000411:                                                                                                  #  BIT 7 FLAG 0
000412: 37,2001                        RNDVZFLG           =        008D                                  #  P20 RUNNING           P20 NOT RUNNING
000413:
000414: 37,2001     5025               RNDVZBIT           =        BIT7
000415:
000416:                                                                                                  #  BIT 6 FLAG 0
000417: 37,2001                        R53FLAG            =        009D                                  #  V51 INITIATED         V51 NOT INITIATED
000418:
000419: 37,2001     5026               R53FLBIT           =        BIT6
000420:
000421:                                                                                                  #  BIT 5 FLAG 0
000422: 37,2001                        F2RTE              =        010D                                  #  IN TIME CRITICAL      NOT IN TIME CRITICAL
000423:                                                                                                  #  MODE                  MODE
000424:
000425: 37,2001     5027               F2RTEBIT           =        BIT5
000426:
000427:                                                                                                  #  BIT 4 FLAG 0
000428: 37,2001                        TRUNFLAG           =        011D                                  #  DRIVING OF TRUNNION   DRIVING OF TRUNNION
000429:                                                                                                  #  ALLOWED               NOT ALLOWED
000430:
000431: 37,2001     5030               TRUNBIT            =        BIT4
000432:
000433:                                                                                                  #  BIT 3 FLAG 0
000434: 37,2001                        FREEFLAG           =        012D                                  #  (TEMPORARY FLAG USED IN MANY ROUTINES)
000435:
000436: 37,2001     5031               FREEFBIT           =        BIT3
000437:
000438:                                                                                                  #  BIT 2 FLAG 0
000439: 37,2001                        AMOONFLG           =        13D                                   #  STATE VECTOR IN       STATE VECTOR IN
000440: 37,2001     5032               AMOONBIT           =        BIT2                                  #  LUNAR SPHERE AT       EARTH SPHERE AT
000441:                                                                                                  #  MIDTOAVE              MIDTOAVE
000442:
000443:                                                                                                  #  BIT 1 FLAG 0
000444: 37,2001                        KFLAG              =        014D                                  #  SEARCH SECTOR LESS    SEARCH SECTOR MORE
000445:                                                                                                  #  THAN 180 DEGREES      THAN 180 DEGREES
000446:
000447: 37,2001     5033               KBIT               =        BIT1
000448:
000449: 37,2001     0075               FLAGWRD1           =        STATE      +1                         #  (015-029)
000450:                                                                                                  #  (SET)                 (RESET)
000451:
000452:                                                                                                  #  BIT 15 FLAG 1
000453: 37,2001                        NJETSFLG           =        015D                                  #  TWO JET RCS BURN      FOUR JET RCS BURN
000454:
000455: 37,2001     5015               NJETSBIT           =        BIT15
000456:
000457:
000458:                                                                                                  #  BIT 14 FLAG 1
000459: 37,2001                        STIKFLAG           =        016D                                  #  RHC CONTROL           CMC CONTROL
000460: 37,2001     5016               STIKBIT            =        BIT14
000461:
000462:                                                                                                  #  BIT 13 FLAG 1
000463: 37,2001                        ERADFLAG           =        017D                                  #  EARTH, COMPUTE        EARTH, USE FIXED
000464:                                                                                                  #    FISCHER ELLIPSOID     RADIUS
000465:                                                                                                  #    RADIUS
000466:                                                                                                  #  MOON, USE FIXED       MOON, USE RLS FOR
000467:                                                                                                  #    RADIUS                LUNAR RADIUS
000468:
000469: 37,2001     5017               ERADFBIT           =        BIT13
000470:
000471:                                                                                                  #  BIT 12 FLAG 1
000472: 37,2001                        NODOP01            =        018D                                  #  P01 NOT ALLOWED       P01 ALLOWED
000473: 37,2001     5020               NOP01BIT           =        BIT12
000474:
000475:                                                                                                  #  BIT 11 FLAG 1
000476: 37,2001                        ENG2FLAG           =        019D                                  #  RCS BURN              SPS BURN
000477:
000478: 37,2001     5021               ENG2BIT            =        BIT11
000479:
000480:                                                                                                  #  BIT 10 FLAG 1
000481: 37,2001                        TARG1FLG           =        020D                                  #  SIGHTING LEM          NOT SIGHTING LEM
000482:
000483: 37,2001     5022               TARG1BIT           =        BIT10
000484:
000485:                                                                                                  #  BIT 9 FLAG 1
000486: 37,2001                        TARG2FLG           =        021D                                  #  SIGHTING LANDMARK     SIGHTING STAR
000487:
000488: 37,2001     5023               TARG2BIT           =        BIT9
000489:
000490:                                                                                                  #  BIT 9 FLAG 1
000491: 37,2001                        R23FLG             =        021D                                  #  R23 MARKING           R21 MARKING
000492:
000493: 37,2001     5023               R23BIT             =        BIT9
000494:
000495:                                                                                                  #  BIT 8 FLAG 1
000496: 37,2001                        VEHUPFLG           =        022D                                  #  CSM STATE VECTOR      LEM STATE VECTOR
000497:                                                                                                  #  BEING UPDATED         BEING UPDATED
000498:
000499: 37,2001     5024               VEHUPBIT           =        BIT8
000500:
000501:                                                                                                  #  BIT 7 FLAG 1
000502: 37,2001                        UPDATFLG           =        023D                                  #  UPDATING BY MARKS     UPDATING BY MARKS
000503:                                                                                                  #  ALLOWED               NOT ALLOWED
000504:
000505: 37,2001     5025               UPDATBIT           =        BIT7
000506:
000507:                                                                                                  #  BIT 6 FLAG 1
000508: 37,2001                        IDLEFAIL           =        024D                                  #  INHIBIT R41           ENABLE R41 (ENGFAIL)
000509:
000510: 37,2001     5026               IDLEBIT            =        BIT6
000511:
000512:                                                                                                  #  BIT 5 FLAG 1
000513: 37,2001                        TRACKFLG           =        025D                                  #  TRACKING ALLOWED      TRACKING NOT ALLOWED
000514:
000515: 37,2001     5027               TRACKBIT           =        BIT5
000516:
000517:                                                                                                  #  BIT 4 FLAG 1
000518: 37,2001                        TRM03FLG           =        026D                                  #  REQUEST TO            NO REQUEST TO
000519:                                                                                                  #  TERMINATE P03 HAS     TERMINATE P03 HAS
000520:                                                                                                  #  BEEN ENTERED          BEEN ENTERED
000521:
000522: 37,2001     5030               TRM03BIT           =        BIT4
000523:
000524:                                                                                                  #  BIT 3 FLAG 1
000525: 37,2001                        SLOPESW            =        027D                                  #  ITERATE WITH BIAS     ITERATE WITH REGULA
000526:                                                                                                  #  METHOD IN ITERATOR    FALSI METHOD IN
000527:                                                                                                  #                        ITERATOR
000528:
000529: 37,2001     5031               SLOPEBIT           =        BIT3
000530:
000531:                                                                                                  #  BIT 2 FLAG 1
000532: 37,2001                        GUESSW             =        028D                                  #  NO STARTING VALUE     STARTING VALUE FOR
000533:                                                                                                  #  FOR ITERATION         ITERATION EXISTS
000534:
000535: 37,2001     5032               GUESSBIT           =        BIT2
000536:
000537:                                                                                                  #  BIT 1 FLAG 1
000538: 37,2001                        AVEGFLAG           =        029D                                  #  AVERAGEG (SERVICER)   AVERAGEG (SERVICER)
000539:                                                                                                  #  TO CONTINUE           TO CEASE
000540:
000541: 37,2001     5033               AVEGBIT            =        BIT1
000542:
000543: 37,2001     0076               FLAGWRD2           =        STATE      +2                         #  (030-044)
000544:
000545:                                                                                                  #  (SET)                 (RESET)
000546:
000547:                                                                                                  #  BIT 15 FLAG 2
000548: 37,2001                        DRIFTFLG           =        030D                                  #  T3RUPT CALLS GYRO     T3RUPT DOES NO GYRO
000549:                                                                                                  #  COMPENSATION          COMPENSATION
000550:
000551: 37,2001     5015               DRFTBIT            =        BIT15
000552:
000553:
000554:                                                                                                  #  BIT 14 FLAG 2
000555: 37,2001                        R21MARK            =        031D                                  #  OPTION ONE FOR        OPTION TWO FOR
000556:                                                                                                  #  MARKRUPT              MARKRUPT
000557:
000558: 37,2001     5016               R21BIT             =        BIT14
000559:
000560:                                                                                                  #  BIT 13 FLAG 2
000561: 37,2001                        22DSPFLG           =        032D                                  #  DISPLAY DR,DV         DO NOT DISPLAY DR,DV
000562:
000563: 37,2001     5017               22DSPBIT           =        BIT13
000564:
000565:                                                                                                  #  BIT 12 FLAG 2
000566: 37,2001                        P21FLAG            =        033D                                  #  SUCCEEDING PASS       1ST PASS THRU P21,
000567:                                                                                                  #  THRU P21, USE BASE    CALCULATE BASE
000568: 37,2001     5020               P21BIT             =        BIT12                                 #  VECTOR FOR CALC.      VECTOR
000569:
000570: 37,2001                        STEERSW            =        034D                                  #  STEERING TO BE DONE   STEERING OMITTED
000571:
000572: 37,2001     5021               STEERBIT           =        BIT11
000573:
000574:                                                                                                  #  BIT 10 FLAG 2
000575: 37,2001                        SKIPVHF            =        035D                                  #  DISREGARD RADAR       RADAR READ TO
000576:                                                                                                  #  READ BECAUSE OF       PROCEED NORMALLY
000577: 37,2001     5022               SKIPVBIT           =        BIT10                                 #  SFTWRE OR HDWRE
000578:                                                                                                  #  RESTART
000579:
000580:                                                                                                  #  BIT 9 FLAG 2
000581: 37,2001                        IMPULSW            =        036D                                  #  MINIMUM IMPULSE       STEERING BURN (NO
000582:                                                                                                  #  BURN (CUTOFF TIME     CUTOFF TIME YET
000583:                                                                                                  #  SPECIFIED)            AVAILABLE)
000584:
000585: 37,2001     5023               IMPULBIT           =        BIT9
000586:
000587:                                                                                                  #  BIT 8 FLAG 2
000588: 37,2001                        XDELVFLG           =        037D                                  #  EXTERNAL DELTAV VG    LAMBERT (AIMPOINT)
000589:                                                                                                  #  COMPUTATION           VG COMPUTATION
000590:
000591: 37,2001     5024               XDELVBIT           =        BIT8
000592:
000593:                                                                                                  #  BIT 7 FLAG 2
000594: 37,2001                        ETPIFLAG           =        038D                                  #  ELEVATION ANGLE       TPI TIME SUPPLIED
000595:                                                                                                  #  SUPPLIED FOR P34,74   FOR P34,74
000596:
000597:                                                                                                  #  BIT 7 FLAG 2
000598: 37,2001  0000046               FIRSTFLG           =        ETPIFLAG                              #  FIRST PASS            SUCCEEDING PASS THRU
000599:                                                                                                  #  THRU S40.9            S40.9
000600:
000601: 37,2001     5025               FIRSTBIT           =        BIT7
000602:
000603:                                                                                                  #  BIT 7 FLAG 2
000604: 37,2001  0000046               OPTNSW             =        ETPIFLAG                              #  SOI PHASE P38/P78     SOR PHASE OF P38/P78
000605:
000606: 37,2001     5026               FINALBIT           =        BIT6
000607:
000608:                                                                                                  #  BIT 6 FLAG 2
000609: 37,2001                        FINALFLG           =        039D                                  #  LSAT PASS THROUGH     INTERIM PASS THROUGH
000610:                                                                                                  #  RENDEZVOUS PROGRAM    RENDEZVOUS PROGRAM
000611:                                                                                                  #  COMPUTATIONS          COMPUTATIONS
000612:
000613: 37,2001     5027               AVFLBIT            =        BIT5
000614:
000615:                                                                                                  #  BIT 5 FLAG 2
000616: 37,2001                        AVFLAG             =        040D                                  #  LEM IS ACTIVE         CSM IS ACTIVE
000617:                                                                                                  #  VEHICLE               VEHICLE
000618:
000619:                                                                                                  #  BIT 4 FLAG 2
000620: 37,2001                        PFRATFLG           =        041D                                  #  PREFERRED ATTITUDE    PREFERRED ATTITUDE
000621:                                                                                                  #  COMPUTED              NOT COMPUTED
000622:
000623: 37,2001     5030               PFRATBIT           =        BIT4
000624:
000625:                                                                                                  #  BIT 3 FLAG 2
000626:                                                                                                  #                =       042D
000627:
000628:                                                                                                  #  BIT 2 FLAG 2
000629: 37,2001                        CALCMAN2           =        043D                                  #  PERFORM MANEUVER      BYPASS STARTING
000630:                                                                                                  #  STARTING PROCEDURE    PROCEDURE
000631:
000632: 37,2001     5032               CALC2BIT           =        BIT2
000633:
000634:                                                                                                  #  BIT 1 FLAG 2
000635: 37,2001                        NODOFLAG           =        044D                                  #  V37 NOT PERMITTED     V37 PERMITTED
000636:
000637: 37,2001     5033               NODOBIT            =        BIT1
000638:
000639: 37,2001     0077               FLAGWRD3           =        STATE      +3                         #  (045-059)
000640:                                                                                                  #  (SET)                 (RESET)
000641:
000642:                                                                                                  #  BIT 15 FLAG 3
000643: 37,2001                        V50N18FL           =        045D                                  #  ENABLE R60 ATT        INHIBIT R60 ATTITUDE
000644: 37,2001     5015               V50N18BT           =        BIT15                                 #   MANEUVER              MANEUVER
000645:
000646:                                                                                                  #  BIT 14 FLAG 3
000647: 37,2001                        GLOKFAIL           =        046D                                  #  GIMBAL LOCK HAS       NOT IN GIMBAL LOCK
000648:                                                                                                  #  OCCURED
000649:
000650: 37,2001     5016               GLOKFBIT           =        BIT14
000651:
000652:
000653:                                                                                                  #  BIT 13 FLAG 3
000654: 37,2001                        REFSMFLG           =        047D                                  #  REFSMMAT GOOD         REFSMMAT NO GOOD
000655:
000656: 37,2001     5017               REFSMBIT           =        BIT13
000657:
000658:                                                                                                  #  BIT 12 FLAG 3
000659: 37,2001                        LUNAFLAG           =        048D                                  #  LUNAR LAT-LONG        EARTH LAT-LONG
000660:
000661: 37,2001     5020               LUNABIT            =        BIT12
000662:
000663:                                                                                                  #  BIT 11 FLAG 3
000664: 37,2001                        P22MKFLG           =        049D                                  #  P22 DOWNLINKED MARK   P22 DOWLINK MARK
000665:                                                                                                  #  DATA WAS JUST TAKEN   DATA NOT JUST TAKEN
000666:
000667: 37,2001     5021               P22MKBIT           =        BIT11
000668:
000669:                                                                                                  #  BIT 10 FLAG 3
000670: 37,2001                        VFLAG              =        050D                                  #  LESS THAN TWO STARS   TWO STARS IN FIELD
000671:                                                                                                  #  IN FIELD OF VIEW      OF VIEW
000672:
000673: 37,2001     5022               VFLAGBIT           =        BIT10
000674:


000678:                                                                                                  #  BIT 9 FLAG 3
000679: 37,2001                        POOFLAG            =        051D                                  #  INHIBIT BACKWARDS     ALLOW BACKWARDS
000680: 37,2001     5023               POOBIT             =        BIT9                                  #  INTEGRATION           INTEGRATION
000681:                                                                                                  #  BIT 8 FLAG 3
000682: 37,2001                        PRECIFLG           =        052D                                  #  CSMPREC, LEMPREC      INTGRV CALLED
000683:                                                                                                  #  OR INTEGRVS CALLED
000684:
000685: 37,2001     5024               PRECIBIT           =        BIT8
000686:
000687:                                                                                                  #  BIT 7 FLAG 3
000688: 37,2001                        CULTFLAG           =        053D                                  #  STAR OCCULTED         STAR NOT OCCULTED
000689:
000690: 37,2001     5025               CULTBIT            =        BIT7
000691:
000692:                                                                                                  #  BIT 6 FLAG 3
000693: 37,2001                        ORBWFLAG           =        054D                                  #  W MATRIX VALID FOR    W MATRIX INVALID FOR
000694:                                                                                                  #  ORBITAL N1VIGATION    ORBITAL NAVIGATION
000695:
000696: 37,2001     5026               ORBWFBIT           =        BIT6
000697:
000698:                                                                                                  #  BIT 5 FLAG 3
000699: 37,2001                        STATEFLG           =        055D                                  #  PERMANENT STATE       PERMANENT STATE
000700:                                                                                                  #  VECTOR UPDATED        VECTOR NOT UPDATED
000701:
000702: 37,2001     5027               STATEBIT           =        BIT5
000703:
000704:                                                                                                  #  BIT 4 FLAG 3
000705: 37,2001                        INTYPFLG           =        056D                                  #  CONIC INTEGRATION     ENCKE INTEGRATION
000706: 37,2001     5030               INTYBIT            =        BIT4
000707:
000708:                                                                                                  #  BIT 3 FLAG 3
000709: 37,2001                        VINTFLAG           =        057D                                  #  CSM STATE VECTOR      LEM STATE VECTOR
000710:                                                                                                  #  BEING INTEGRATED      BEING INTEGRATED
000711:
000712: 37,2001     5031               VINTFBIT           =        BIT3
000713:
000714:                                                                                                  #  BIT 2 FLAG 3
000715: 37,2001                        D6OR9FLG           =        058D                                  #  DIMENSION OF W IS 9   DIMENSION OF W IS 6
000716:                                                                                                  #  FOR INTEGRATION       FOR INTEGRATION
000717:
000718: 37,2001     5032               D6OR9BIT           =        BIT2
000719:
000720:                                                                                                  #  BIT 1 FLAG 3
000721: 37,2001                        DIM0FLAG           =        059D                                  #  W MATRIX IS TO BE     W MATRIX IS NOT TO
000722:                                                                                                  #  USED                  BE USED
000723:
000724: 37,2001     0100               FLAGWRD4           =        STATE      +4                         #  (060-074)
000725:                                                                                                  #  (SET)                 (RESET)
000726:
000727: 37,2001     5033               DIM0BIT            =        BIT1
000728:
000729:                                                                                                  #  BIT 15 FLAG 4
000730: 37,2001                        MRKIDFLG           =        060D                                  #  MARK DISPLAY IN       NO MARK DISPLAY IN
000731:                                                                                                  #  ENDIDLE               ENDIDLE
000732:
000733: 37,2001     5015               MRKIDBIT           =        BIT15
000734:
000735:                                                                                                  #  BIT 14 FLAG 4
000736: 37,2001                        PRIODFLG           =        061D                                  #  PRIORITY DISPLAY IN   NO PRIORITY DISPLAY
000737:                                                                                                  #  ENDIDLE               IN ENDIDLE
000738:
000739: 37,2001     5016               PRIODBIT           =        BIT14
000740:
000741:                                                                                                  #  BIT 13 FLAG 4
000742: 37,2001                        NRMIDFLG           =        062D                                  #  NORMAL DISPLAY IN     NO NORMAL DISPLAY
000743:                                                                                                  #  ENDIDLE               IN ENDIDLE
000744:
000745: 37,2001     5017               NRMIDBIT           =        BIT13
000746:
000747:                                                                                                  #  BIT 12 FLAG 4
000748: 37,2001                        PDSPFLAG           =        063D                                  #  CAN'T INTERRUPT       SEE M. HAMILTON
000749:                                                                                                  #  PRIORITY DISPLAY
000750:
000751: 37,2001     5020               PDSPFBIT           =        BIT12
000752:
000753:                                                                                                  #  BIT 11 FLAG 4
000754: 37,2001                        MWAITFLG           =        064D                                  #  HIGHER PRIORITY       NO HIGHER PRIORITY
000755:                                                                                                  #  DISPLAY OPERATING     DISPLAY OPERATING
000756:                                                                                                  #  WHEN MARK DISPLAY     WHEN MARK DISPLAY
000757:                                                                                                  #  INITIATED             INITIATED
000758: 37,2001     5021               MWAITBIT           =        BIT11
000759:
000760:                                                                                                  #  BIT 10 FLAG 4
000761: 37,2001                        NWAITFLG           =        065D                                  #  HIGHER PRIORITY       NO HIGHER PRIORITY
000762:                                                                                                  #  DISPLAY OPERATING     DISPLAY OPERATING
000763:                                                                                                  #  WHEN NORMAL           WHEN NORMAL DISPLAY
000764:                                                                                                  #  DISPLAY INITIATED     INITIATED
000765:
000766: 37,2001     5022               NWAITBIT           =        BIT10
000767:
000768:                                                                                                  #  BIT 9 FLAG 4
000769: 37,2001                        MRKNVFLG           =        066D                                  #  ASTRONAUT USING       ASTRONAUT NOT USING
000770:                                                                                                  #  KEYBOARD WHEN MARK    KEYBOARD WHEN MARK
000771:                                                                                                  #  DISPLAY INITIATED     DISPLAY INITIATED
000772:
000773: 37,2001     5023               MRKNVBIT           =        BIT9
000774:
000775:                                                                                                  #  BIT 8 FLAG 4
000776: 37,2001                        NRMNVFLG           =        067D                                  #  ASTRONAUT USING       ASTRONAUT NOT USING
000777:                                                                                                  #  KEYBOARD WHEN         KEYBOARD WHEN
000778:                                                                                                  #  NORMAL DISPLAY        NORMAL DISPLAY
000779:                                                                                                  #  INITIATED             INITIATED
000780:
000781: 37,2001     5024               NRMNVBIT           =        BIT8
000782:
000783:                                                                                                  #  BIT 7 FLAG 4
000784: 37,2001                        PRONVFLG           =        068D                                  #  ASTRONAUT USING       ASTRONAUT NOT USING
000785:                                                                                                  #  KEYBOARD WHEN         KEYBOARD WHEN
000786:                                                                                                  #  PRIORITY DISPLAY      PRIORITY DISPLAY
000787:                                                                                                  #  INITIATED             INITIATED
000788:
000789: 37,2001     5025               PRONVBIT           =        BIT7
000790:
000791:                                                                                                  #  BIT 6 FLAG 4
000792: 37,2001                        PINBRFLG           =        069D                                  #  ASTRONAUT HAS         ASTRONAUT HAS NOT
000793:                                                                                                  #  INTERFERED WITH       INTERFERED WITH
000794:                                                                                                  #  EXISTING DISPLAY      EXISTING DISPLAY
000795:
000796: 37,2001     5026               PINBRBIT           =        BIT6
000797:
000798:                                                                                                  #  BIT 5 FLAG 4
000799: 37,2001                        MRUPTFLG           =        070D                                  #  MARK DISPLAY          MARK DISPLAY NOT
000800:                                                                                                  #  INTERRUPTED BY        INTERRUPTED BY
000801:                                                                                                  #  PRIORITY DISPLAY      PRIORITY DISPLAY
000802:
000803: 37,2001     5027               MRUPTBIT           =        BIT5
000804:
000805:                                                                                                  #  BIT 4 FLAG 4
000806: 37,2001                        NRUPTFLG           =        071D                                  #  NORMAL DISPLAY        NORMAL DISPLAY NOT
000807:                                                                                                  #  INTERRUPTED BY        INTERRUPTED BY
000808:                                                                                                  #  PRIORITY OR MARK      PRIORITY OR MARK
000809:                                                                                                  #  DISPLAY               DISPLAY
000810:
000811: 37,2001     5030               NRUPTBIT           =        BIT4
000812:
000813:                                                                                                  #  BIT 3 FLAG 4
000814: 37,2001                        MKOVFLAG           =        072D                                  #  MARK DISPLAY OVER     NO MARK DISPLAY OVER
000815:                                                                                                  #  NORMAL                NORMAL
000816:
000817: 37,2001     5031               MKOVBIT            =        BIT3
000818:
000819:                                                                                                  #  BIT 2 FLAG 4                          DISPLAY BIT
000820:                                                                                                  #                =       073D            CLEARED AT INTERVALS
000821:
000822:                                                                                                  #  BIT 1 FLAG 4  MARK DISPLAY NOT TO     NO SPECIAL MARK
000823: 37,2001                        XDSPFLAG           =        074D                                  #                BE INTERRUPTED          INFORMATION.
000824:
000825:
000826: 37,2001     5033               XDSPBIT            =        BIT1
000827:
000828: 37,2001     0101               FLAGWRD5           =        STATE      +5                         #  (075-099)
000829:                                                                                                  #  (SET)                 (RESET)
000830:
000831:                                                                                                  #  BIT 15 FLAG 5
000832: 37,2001                        DSKYFLAG           =        075D                                  #  DISPLAYS SENT TO      NO DISPLAYS TO DSKY
000833:                                                                                                  #  DSKY
000834: 37,2001     5015               DSKYBIT            =        BIT15
000835:
000836:                                                                                                  #  BIT 14 FLAG 5
000837: 37,2001                        RETROFLG           =        076D                                  #  P37 PREMANEUVER       ORBIT NOT RETROGRADE
000838: 37,2001     5016               RETROBIT           =        BIT14                                 #  ORBIT IS RETROGRADE
000839:
000840:                                                                                                  #  BIT 13 FLAG 5
000841: 37,2001                        SLOWFLG            =        077D                                  #  P37 TRANSEARTH        SLOW DOWN IS NOT
000842: 37,2001     5017               SLOWBIT            =        BIT13                                 #  COAST SLOW DOWN       DESIRED
000843:                                                                                                  #  IS DESIRED
000844:
000845:                                                                                                  #  BIT 12 FLAG 5
000846: 37,2001                        V59FLAG            =        078D                                  #  CALIBRATING FOR       NORMAL MARKING FOR
000847:                                                                                                  #  P23                   P23
000848:
000849: 37,2001     5020               V59FLBIT           =        BIT12
000850:
000851:                                                                                                  #  BIT 11 FLAG 5
000852: 37,2001                        INCORFLG           =        079D                                  #  FIRST INCORPORATION   SECOND INCORPORATION
000853:
000854: 37,2001     5021               INCORBIT           =        BIT11
000855:
000856:                                                                                                  #  BIT 10 FLAG 5
000857: 37,2001                        RNGSCFLG           =        080D                                  #  ANOTHER TAG FOR PRFTKAT
000858:
000859:                                                                                                  #  BIT 10 FLAG 5
000860: 37,2001  0000120               PRFTRKAT           =        RNGSCFLG                              #  PREF TRACK ATT        +X AXIS TRACK ATT
000861:
000862: 37,2001     5022               PRFTRBIT           =        BIT10
000863:
000864:                                                                                                  #  BIT 9 FLAG 5
000865: 37,2001                        DMENFLG            =        081D                                  #  DIMENSION OF W IS 9   DIMENSION OF W IS 6
000866:                                                                                                  #  FOR INCORPORATION     FOR INCORPORATION
000867:
000868: 37,2001     5023               DMENFBIT           =        BIT9
000869:
000870:                                                                                                  #  BIT 8 FLAG 5
000871: 37,2001                        COMPUTER           =        082D                                  #  COMPUTER IS CMC       COMPUTER IS LGC
000872:
000873: 37,2001     5024               COMPTBIT           =        BIT8
000874:
000875:                                                                                                  #  BIT 7 FLAG 5
000876: 37,2001                        ENGONFLG           =        083D                                  #  ENGINE TURNED ON      ENGINE TURNED OFF
000877:
000878: 37,2001     5025               ENGONBIT           =        BIT7
000879:
000880:                                                                                                  #  BIT 6 FLAG 5
000881: 37,2001                        3AXISFLG           =        084D                                  #  MANEUVER SPECIFIED    MANEUVER SPECIFIED
000882:                                                                                                  #  BY THREE AXES         BY ONE AXIS
000883:
000884: 37,2001     5026               3AXISBIT           =        BIT6
000885:
000886:                                                                                                  #  BIT 5 FLAG 5
000887: 37,2001                        GRRBKFLG           =        085D                                  #  BACKUP GRR RECEIVED   BACKUP GRR NOT
000888:                                                                                                  #                        RECEIVED
000889:
000890: 37,2001     5027               GRRBKBIT           =        BIT5
000891:
000892:                                                                                                  #  BIT 4 FLAG 5
000893: 37,2001                        R60FLAG            =        086D                                  #  R61 MUST USE R60      NORMAL R61
000894:
000895: 37,2001     5030               R60FLBIT           =        BIT4
000896:
000897:                                                                                                  #  BIT 3 FLAG 5
000898: 37,2001                        SOLNSW             =        087D                                  #  LAMBERT DOES NOT      LAMBERT CONVERGES OR
000899:                                                                                                  #  CONVERGE, OR TIME-    TIME-RADIUS NON
000900:                                                                                                  #  RADIUS NEARLY CIRC.   CIRCULAR.
000901: 37,2001     5031               SOLNSBIT           =        BIT3
000902:
000903:                                                                                                  #  BIT 2 FLAG 5
000904: 37,2001                        MGLVFLAG           =        088D                                  #  LOCAL VERTICAL        MIDDLE GIMBAL ANGLE
000905:                                                                                                  #  COORDINATES           COMPUTED
000906:                                                                                                  #  COMPUTED
000907:
000908: 37,2001     5032               MGLVFBIT           =        BIT2
000909:
000910:                                                                                                  #  BIT 1 FLAG 5
000911: 37,2001                        RENDWFLG           =        089D                                  #  W MATRIX VALID        W MATRIX INVALID
000912:                                                                                                  #  FOR RENDEZVOUS        FOR RENDEZVOUS
000913:                                                                                                  #  NAVIGATION            NAVIGATION
000914:
000915: 37,2001     5033               RENDWBIT           =        BIT1
000916:
000917: 37,2001     0102               FLAGWRD6           =        STATE      +6                         #  (090-104)
000918:                                                                                                  #  (SET)                 (RESET)
000919:
000920:                                                                                                  #  BIT 15 FLAG 6
000921: 37,2001                        DAPBIT1            =        090D                                  #  1 SATURN 1 TVC        0 RCS   0 NO
000922:
000923: 37,2001     5015               DAP1BIT            =        BIT15
000924:
000925:                                                                                                  #  BIT 14 FLAG 6
000926: 37,2001                        DAPBIT2            =        091D                                  #  1 A/P    0 A/P        1 A/P   0 A/P
000927:
000928: 37,2001     5016               DAP2BIT            =        BIT14
000929:
000930:                                                                                                  #  BIT 13 FLAG 6
000931: 37,2001                        STRULLSW           =        092D                                  #  DO STEERULL           DO ULAGEOFF ONLY
000932:
000933: 37,2001     5017               STRULBIT           =        BIT13
000934:
000935:                                                                                                  #  BIT 13 FLAG 6
000936: 37,2001  0000134               ENTRYDSP           =        STRULLSW                              #  DO ENTRY DISPLAY      OMIT ENTRY DISPLAY
000937:                                                                                                  #  VIA ENTRYVN.
000938:
000939: 37,2001     5017               ENDSPBIT           =        BIT13
000940:
000941:                                                                                                  #  BIT 12 FLAG 6
000942: 37,2001                        CMDAPARM           =        093D                                  #  ALOW ENTRY FIRINGS    INHIBIT ENTRY FIRING
000943:                                                                                                  #  AND CALCULATIONS      AND CONTROL FUNCTION
000944: 37,2001     5020               CMARMBIT           =        BIT12
000945:
000946:                                                                                                  #  BIT 11 FLAG 6
000947: 37,2001                        GAMDIFSW           =        094D                                  #  CALCULATE GAMDOT      GAMDOT NOT TO BE
000948:                                                                                                  #                        CALCULATED
000949:
000950: 37,2001     5021               GMDIFBIT           =        BIT11
000951:
000952:                                                                                                  #  BIT 10 FLAG 6
000953: 37,2001                        GONEPAST           =        095D                                  #  LATERAL CONTROL       LATERAL CONTROL
000954:                                                                                                  #  CALCULATIONS TO BE    CALCULATIONS TO BE
000955:                                                                                                  #  OMITTED               DONE
000956:
000957: 37,2001     5022               GONEBIT            =        BIT10
000958:
000959:                                                                                                  #  BIT 9 FLAG 6
000960: 37,2001                        RELVELSW           =        096D                                  #  TARGETING USES        TARGETING USES
000961:                                                                                                  #  EARTH-RELATIVE        INERTIAL VELOCITY
000962:                                                                                                  #  VELOCITY
000963:
000964: 37,2001     5023               RELVBIT            =        BIT9
000965:
000966:                                                                                                  #  BIT 8 FLAG 6
000967: 37,2001                        EGSW               =        097D                                  #  IN FINAL PHASE        NOT IN FINAL PHASE
000968:
000969: 37,2001     5024               EGFLGBIT           =        BIT8
000970:
000971:                                                                                                  #  BIT 8 FLAG 6
000972: 37,2001  0000141               KNOWNFLG           =        EGSW                                  #  LANDMARK KNOWN        LANDMARK UNKNOWN
000973:
000974: 37,2001     5024               KNOWNBIT           =        BIT8
000975:
000976:                                                                                                  #  BIT 8 FLAG 6
000977: 37,2001  0000141               R57FLAG            =        KNOWNFLG                              #  DO NOT DO R57         DO R57, TRUNION
000978:                                                                                                  #  TRUNION BIAS HAS      BIAS NEEDED
000979:                                                                                                  #  BEEN OBTAINED.
000980:
000981: 37,2001     5024               R57BIT             =        BIT8
000982:
000983:                                                                                                  #  BIT 7 FLAG 6
000984: 37,2001                        NOSWITCH           =        098D                                  #  LATERAL ROLL          LATERAL ROLL MANUVER
000985:                                                                                                  #  MANUVER INHIBITED     PERMITED IN ENTRY
000986:                                                                                                  #  IN ENTRY
000987:
000988: 37,2001     5025               NOSWBIT            =        BIT7
000989:
000990:                                                                                                  #  BIT 6 FLAG 6
000991: 37,2001                        HIND               =        099D                                  #  ITERATING HUNTEST     ITERATING OF HUNTEST
000992:                                                                                                  #  CALCULATIONS TO BE    CALCULATIONS TO BE
000993:                                                                                                  #  DONE AFTER RANGE      OMITTED AFTER RANGE
000994:                                                                                                  #  PREDICTION            PREDICTION
000995:
000996: 37,2001     5026               HINDBIT            =        BIT6
000997:
000998:                                                                                                  #  BIT 5 FLAG 6
000999: 37,2001                        INRLSW             =        100D                                  #  INITIAL ROLL          INITIAL ROLL
001000:                                                                                                  #  V(LV)                 V(LV)
001001:
001002: 37,2001     5027               INRLBIT            =        BIT5
001003:
001004:                                                                                                  #  ATTITUDE NOT HELD     ATTITUDE HELD
001005:
001006:                                                                                                  #  BIT 4 FLAG 6
001007: 37,2001                        LATSW              =        101D                                  #  DOWNLIFT NOT          DOWNLIFT INHIBITED
001008:                                                                                                  #  INHIBITED
001009:
001010: 37,2001     5030               LATSWBIT           =        BIT4
001011:
001012:                                                                                                  #  BIT 3 FLAG 6
001013: 37,2001                        .05GSW             =        102D                                  #  DRAG OVER .05G        DRAG LESS THAN .05G
001014:
001015: 37,2001     5031               .05GBIT            =        BIT3
001016:
001017:                                                                                                  #  BIT 3 FLAG 6
001018:                                                                                                  #                =       102D
001019:
001020:                                                                                                  #  BIT 2 FLAG 6
001021: 37,2001                        CM/DSTBY           =        103D                                  #  ENTRY DAP ACTIVATED   ENTRY DAP NOT
001022:                                                                                                  #                        ACTIVATED
001023:
001024: 37,2001     5032               CM/DSBIT           =        BIT2
001025:
001026:                                                                                                  #  BIT 1 FLAG 6
001027: 37,2001                        GYMDIFSW           =        104D                                  #  CDU DIFFERENCES AND   CDU DIFFERENCES AND
001028:                                                                                                  #  BODY RATES COMPUTED   BODY RATES NOT
001029:                                                                                                  #                        COMPUTED
001030:
001031: 37,2001     5033               GYMDIBIT           =        BIT1
001032:
001033: 37,2001     0103               FLAGWRD7           =        STATE      +7                         #  (105-119)
001034:                                                                                                  #  (SET)                 (RESET)
001035:
001036:                                                                                                  #  BIT 15 FLAG 7
001037: 37,2001                        TERMIFLG           =        105D                                  #  TERMINATE R52         DO NOT TERMINATE R52
001038:
001039: 37,2001     5015               TERMIBIT           =        BIT15
001040:
001041:                                                                                                  #  BIT 14 FLAG 7
001042: 37,2001                        ITSWICH            =        106D                                  #  ACCEPT NEXT LAMBERT   TEST LAMBERT ANSWER
001043:                                                                                                  #  TPI SEARCH SOLUTION   AGAINST LIMITS
001044:
001045: 37,2001     5016               ITSWBIT            =        BIT14
001046:
001047:                                                                                                  #  BIT 13 FLAG 7
001048: 37,2001                        IGNFLAG            =        107D                                  #  TIG HAS ARRIVED       TIG HAS NOT ARRIVED
001049:
001050: 37,2001     5017               IGNFLBIT           =        BIT13
001051:
001052:                                                                                                  #  BIT 12 FLAG 7
001053: 37,2001                        ASTNFLAG           =        108D                                  #  ASTRONAUT HAS         ASTRONAUT HAS NOT
001054:                                                                                                  #  OKAYED IGNITION       OKAYED IGNITION
001055:
001056: 37,2001     5020               ASTNBIT            =        BIT12
001057:
001058:                                                                                                  #  BIT 11 FLAG 7
001059: 37,2001                        TIMRFLAG           =        109D                                  #  CLOKTASK OPERATING    CLOKTASK INOPERATIVE
001060:
001061: 37,2001     5021               TIMRBIT            =        BIT11
001062:
001063:                                                                                                  #  BIT 10 FLAG 7
001064: 37,2001                        NORMSW             =        110D                                  #  UNIT NORMAL INPUT     LAMBERT COMPUTE ITS
001065:                                                                                                  #  TO LAMBERT.           OWN UNIT NORMAL.
001066:
001067: 37,2001     5022               NDRMSBIT           =        BIT10
001068:
001069:                                                                                                  #  BIT 9 FLAG 7
001070: 37,2001                        RVSW               =        111D                                  #  DO NOT COMPUTE FINAL  COMPUTE FINAL STATE
001071:                                                                                                  #  STATE VECTOR IN       VECTOR IN TIME-THETA
001072:                                                                                                  #  TIME-THETA.
001073:
001074: 37,2001     5023               RVSWBIT            =        BIT9
001075:
001076:                                                                                                  #  BIT 8 FLAG 7
001077: 37,2001                        GONEBY             =        112D                                  #  PASSED TARGET         APPROACHING TARGET
001078:
001079: 37,2001     5024               G0NBYBIT           =        BIT8
001080:
001081:                                                                                                  #  BIT 7 FLAG 7
001082:                                                                                                  #                =       113D
001083:                                                                                                  #                =       BIT7
001084:
001085:                                                                                                  #  BIT 6 FLAG 7
001086: 37,2001                        V37FLAG            =        114D                                  #  AVERAGEG (SERVICER)   AVERAGEG (SERVICER)
001087:                                                                                                  #  RUNNING               OFF
001088:
001089: 37,2001     5026               V37FLBIT           =        BIT6
001090:
001091:                                                                                                  #  BIT 5 FLAG 7
001092:                                                                                                  #                =       115D
001093:                                                                                                  #                =       BIT5
001094:
001095:                                                                                                  #  BIT 4 FLAG 7
001096: 37,2001                        UPLOCKFL           =        116D                                  #  K-KBAR-K FAIL         NO K-KBAR-K FAIL
001097:
001098: 37,2001     5030               UPLOCBIT           =        BIT4
001099:
001100:                                                                                                  #  BIT 3 FLAG 7
001101: 37,2001                        VERIFLAG           =        117D                                  #  CHANGED WHEN V33E OCCURS AT END OF P27
001102:
001103: 37,2001     5031               VERIFBIT           =        BIT3
001104:
001105:                                                                                                  #  BIT 2 FLAG 7
001106: 37,2001                        ATTCHFLG           =        118D                                  #  LM,CM ATTACHED        LM,CM NOT ATTACHED
001107:
001108: 37,2001     5032               ATTCHBIT           =        BIT2
001109:
001110:                                                                                                  #  BIT 1 FLAG 7
001111: 37,2001                        TFFSW              =        119D                                  #  CALCULATE TPERIGEE    CALCULATE TFF
001112:
001113: 37,2001     5033               TFFSWBIT           =        BIT1
001114:
001115: 37,2001     0104               FLAGWRD8           =        STATE      +8D                        #  (120-134)
001116:                                                                                                  #  (SET)                 (RESET)
001117:
001118:                                                                                                  #  BIT 15 FLAG 8
001119: 37,2001                        RPQFLAG            =        120D                                  #  RPQ NOT COMPUTED      RPQ COMPUTED
001120:
001121: 37,2001     5015               RPQFLBIT           =        BIT15
001122:
001123:                                                                                                  #  BIT 14 FLAG 8
001124:                                                                                                  #                =       121D
001125:
001126:                                                                                                  #  BIT 13 FLAG 8
001127: 37,2001                        NEWIFLG            =        122D                                  #  FIRST PASS THROUGH    SUCCEEDING ITERATION
001128:                                                                                                  #  INTEGRATION           OF INTEGRATION
001129:
001130: 37,2001     5017               NEWIBIT            =        BIT13
001131:
001132:                                                                                                  #  BIT 12 FLAG 8
001133: 37,2001                        CMOONFLG           =        123D                                  #  PERMANENT CSM STATE   PERMANENT CSM STATE
001134:                                                                                                  #  IN LUNAR SPHERE       IN EARTH SPHERE
001135:
001136: 37,2001     5020               CMOONBIT           =        BIT12
001137:
001138:                                                                                                  #  BIT 11 FLAG 8
001139: 37,2001                        LMOONFLG           =        124D                                  #  PERMANENT LM STATE    PERMANENT LM STATE
001140:                                                                                                  #  IN LUNAR SPHERE       IN EARTH SHPERE
001141:
001142: 37,2001     5021               LMOONBIT           =        BIT11
001143:
001144:
001145:                                                                                                  #  BIT 10 FLAG 8
001146: 37,2001                        ADVTRK             =        125D                                  #  ADVANCE GROUND TRACK  NOT ADVANCED
001147:                                                                                                  #  SIGHTING WANTED       GROUND TRACK
001148:
001149: 37,2001     5022               ADVTKBIT           =        BIT10
001150:
001151:                                                                                                  #  BIT 9 FLAG 8
001152: 37,2001                        P39/79SW           =        126D                                  #  P39/79 OPERATING      P38/78 OPERATING
001153:
001154: 37,2001     5023               P39SWBIT           =        BIT9
001155:
001156:                                                                                                  #  BIT 8 FLAG 8
001157: 37,2001                        SURFFLAG           =        127D                                  #  LM ON LUNAR SURFACE   LM NOT ON LUNAR
001158:                                                                                                  #                        SURFACE
001159:
001160: 37,2001     5024               SURFFBIT           =        BIT8
001161:
001162:                                                                                                  #  BIT 7 FLAG 8
001163: 37,2001                        INFINFLG           =        128D                                  #  NO CONIC SOLUTION     CONIC SOLUTION
001164:                                                                                                  #  (CLOSURE THROUGH      EXISTS.
001165:                                                                                                  #  INFINITY REQUIRED).
001166:
001167: 37,2001     5025               INFINBIT           =        BIT7
001168:
001169:                                                                                                  #  BIT 6 FLAG 8
001170: 37,2001                        ORDERSW            =        129D                                  #  ITERATOR USES 2ND     ITERATOR USES 1ST
001171:                                                                                                  #  ORDER MINIMUM MODE.   ORDER STANDARD MODE.
001172:
001173: 37,2001     5026               ORDERBIT           =        BIT6
001174:
001175:                                                                                                  #  BIT 5 FLAG 8
001176: 37,2001                        APSESW             =        130D                                  #  RDESIRED OUTSIDE      RDESIRED INSIDE
001177:                                                                                                  #  PERICENTER-APOCENTER  PERICENTER-APOCENTE
001178:                                                                                                  #  RANGE IN TIME-RAD     RANGE IN TIME-RADIUS
001179:
001180: 37,2001     5027               APSESBIT           =        BIT5
001181:
001182:                                                                                                  #  BIT 4 FLAG 8
001183: 37,2001                        COGAFLAG           =        131D                                  #  NO CONIC SOLUTION     CONIC SOLUTION
001184:                                                                                                  #  TOO CLOSE TO          EXISTS (COGA DOES
001185:                                                                                                  #  RECTILINEAR (COGA     NOT OVERFLOW).
001186:                                                                                                  #  OVERFLOWS).
001187: 37,2001     5030               COGAFBIT           =        BIT4
001188:
001189:                                                                                                  #  BIT 3 FLAG 8
001190: 37,2001                        V96ONFLG           =        132D                                  #  P00 INTEGRATION HAS   P00 INTEGRATION IS
001191:                                                                                                  #  BEEN INHIBITED BY     PROCEEDING REGULARLY
001192: 37,2001     5031               V96ONBIT           =        BIT3                                  #  V96
001193:
001194:                                                                                                  #  BIT 2 FLAG 8
001195:                                                                                                  #                =       133D
001196:
001197:                                                                                                  #  BIT 1 FLAG 8
001198: 37,2001                        360SW              =        134D                                  #  TRANSFER ANGLE NEAR   TRANSFER ANGLE NOT
001199:                                                                                                  #  360 DEGREES           NEAR 360 DEGREES
001200:
001201: 37,2001     5033               360SWBIT           =        BIT1
001202:
001203: 37,2001     0105               FLAGWRD9           =        STATE      +9D                        #  (135-149)
001204:                                                                                                  #  (SET)                 (RESET)
001205:
001206:                                                                                                  #  BIT 15 FLAG 9
001207: 37,2001                        SWTOVER            =        135D                                  #  SWITCHOVER HAS        NO SWITCHOVER YET
001208:                                                                                                  #  OCCURRED
001209:
001210: 37,2001     5015               SWTOVBIT           =        BIT15
001211:
001212:                                                                                                  #  BIT 14 FLAG 9
001213:                                                                                                  #                =       136D
001214:
001215: 37,2001     5016               V67FLBIT           =        BIT14
001216:
001217:                                                                                                  #  BIT 13 FLAG 9
001218: 37,2001                        V82EMFLG           =        137D                                  #  MOON VICINITY         EARTH VICINITY
001219:
001220: 37,2001     5017               V82EMBIT           =        BIT13
001221:
001222:                                                                                                  #  BIT 12 FLAG 9
001223: 37,2001                        MAXDBFLG           =        138D                                  #  MAX DB SELECTED       MIN DB SELECTED
001224:
001225: 37,2001     5020               MAXDBBIT           =        BIT12
001226:
001227:                                                                                                  #  BIT 11 FLAG 9
001228: 37,2001                        V94FLAG            =        139D                                  #  V94 ALLOWED DURING    V94 NOT ALLOWED
001229:                                                                                                  #  P23
001230:
001231: 37,2001     5021               V94FLBIT           =        BIT11
001232:
001233:                                                                                                  #  BIT 10 FLAG 9
001234: 37,2001                        SAVECFLG           =        140D                                  #  P23 DISPLAY AND       P23 DISPLAY AND
001235:                                                                                                  #  DATA STORAGE AFTER    DATA STORAGE BEFORE
001236:                                                                                                  #  MARK IS DONE          MARK IS DONE
001237:
001238: 37,2001     5022               SAVECBIT           =        BIT10
001239:
001240:                                                                                                  #  BIT 9 FLAG 9
001241: 37,2001                        VHFRFLAG           =        141D                                  #  ALLOW R22 TO          STOP ACCEPTANCE
001242:                                                                                                  #  ACCEPT RANGE          OF RANGE DATA
001243:                                                                                                  #  DATA
001244:
001245: 37,2001     5023               VHFRBIT            =        BIT9
001246:
001247:                                                                                                  #  BIT 8 FLAG 9
001248: 37,2001                        SOURCFLG           =        142D                                  #  SOURCE OF INPUT       SOURCE OF INPUT
001249:                                                                                                  #  DATA IS FROM          DATA IS FROM
001250:                                                                                                  #  VHF RADAR             OPTICS MARK
001251:
001252: 37,2001     5024               SOURCBIT           =        BIT8
001253:
001254:                                                                                                  #  BIT 7 FLAG 9
001255: 37,2001                        R22CAFLG           =        143D                                  #  R-22 CALCULATIONS     R-22 CALCULATIONS
001256:                                                                                                  #  ARE GOING ON          ARE NOT GOING ON
001257:
001258: 37,2001     5025               R22CABIT           =        BIT7
001259:
001260:                                                                                                  #  BIT 6 FLAG 9
001261: 37,2001                        N22ORN17           =        144D                                  #  COMPUTE TOTAL         COMPUTE TOTAL
001262:                                                                                                  #  ATTITUDE ERRORS       ATTITUDE ERRORS
001263:                                                                                                  #  WRT N22 (V62)         WRT N17 (V63)
001264:
001265: 37,2001     5026               N2217BIT           =        BIT6
001266:
001267:                                                                                                  #  BIT 5 FLAG 9
001268: 37,2001                        QUITFLAG           =        145D                                  #  TERMINATE AND EXIT    CONTINUE INTEGRATION
001269: 37,2001     5027               QUITBIT            =        BIT5                                  #  FROM INTEGRATION
001270:
001271:                                                                                                  #  BIT 4 FLAG 9
001272: 37,2001                        R31FLAG            =        146D                                  #  R31 SELECTED (V83)    R34 SELECTED (V85)
001273:
001274: 37,2001     5030               R31FLBIT           =        BIT4
001275:
001276:                                                                                                  #  BIT 3 FLAG 9
001277: 37,2001                        MID1FLAG           =        147D                                  #  INTEGRATE TO TDEC     INTEGRATE TO THE
001278:                                                                                                  #                        THEN-PRESENT TIME
001279:
001280: 37,2001     5031               MID1FBIT           =        BIT3
001281:
001282:                                                                                                  #  BIT 2 FLAG 9
001283: 37,2001                        MIDAVFLG           =        148D                                  #  INTEGRATION ENTERED   INTEGRATION WAS
001284:                                                                                                  #  FROM ONE OF MIDTOAV   NOT ENTERED VIA
001285:                                                                                                  #   PORTALS              MIDTOAV
001286:
001287: 37,2001     5032               MIDAVBIT           =        BIT2
001288:
001289:                                                                                                  #  BIT 1 FLAG 9
001290: 37,2001                        AVEMIDSW           =        149D                                  #  AVETOMID CALLING      NO AVETOMID W INTEGR
001291:                                                                                                  #  FOR W.MATRIX INTEGR   ALLOW SET UP RN,VN,
001292:                                                                                                  #  DONT WRITE OVER RN,   PIPTIME
001293:                                                                                                  #  VN,PIPTIME
001294:
001295: 37,2001     5033               AVEMDBIT           =        BIT1
001296:
001297:                                                                                                  #  (SET)                 (RESET)
001298:
001299: 37,2001     0106               FLGWRD10           =        STATE      +10D                       #  (150-164)
001300:
001301: 37,2001     0106               RASFLAG            =        STATE      +10D
001302:
001303:                                                                                                  #  BIT 15 FLAG 10
001304:                                                                                                  #                =       150D
001305:
001306:                                                                                                  #  BIT 14 FLAG 10
001307: 37,2001                        INTFLAG            =        151D                                  #  INTEGRATION IN        INTEGRATION NOT IN
001308:                                                                                                  #  PROGRESS              PROGRESS
001309:
001310: 37,2001     5016               INTFLBIT           =        BIT14
001311:
001312:                                                                                                  #  BIT 13 FLAG 10
001313:                                                                                                  #                =       152D
001314:
001315:                                                                                                  #  BIT 12 FLAG 10
001316:                                                                                                  #                =       153D
001317:
001318:                                                                                                  #  BIT 11 FLAG 10
001319:                                                                                                  #                =       154D
001320:
001321:                                                                                                  #  BIT 10 FLAG 10
001322:                                                                                                  #                =       155D
001323:
001324:                                                                                                  #  BIT 9 FLAG 10
001325:                                                                                                  #                =       156D
001326:
001327:                                                                                                  #  BIT 8 FLAG 10
001328:                                                                                                  #                =       157D
001329:
001330:                                                                                                  #  BIT 7 FLAG 10
001331: 37,2001                        REINTFLG           =        158D                                  #  INTEGRATION ROUTINE   INTEGRATION ROUTINE
001332:                                                                                                  #  TO BE RESTARTED       NOT TO BE RESTARTED
001333: 37,2001     5025               REINTBIT           =        BIT7
001334:
001335:                                                                                                  #  BIT 6 FLAG 10
001336:                                                                                                  #                =       159D
001337:
001338:                                                                                                  #  BIT 5 FLAG 10
001339:                                                                                                  #                =       160D
001340:
001341:                                                                                                  #  BIT 4 FLAG 10
001342:                                                                                                  #                =       161D
001343:
001344:                                                                                                  #  BIT 3 FLAG 10
001345:                                                                                                  #                =       162D
001346:
001347:                                                                                                  #  BIT 2 FLAG 10
001348:                                                                                                  #                =       163D
001349:
001350:                                                                                                  #  BIT 1 FLAG 10
001351:                                                                                                  #                =       164D
001352:
001353: 37,2001     0107               FLGWRD11           =        STATE      +11D                       #  (165-179)
001354:                                                                                                  #  (SET)                 (RESET)
001355:
001356:                                                                                                  #  BIT 15 FLAG 11
001357: 37,2001                        S32.1F1            =        165D                                  #  DELTAN AT CSI TIME    DVT1 LESS THAN MAX
001358: 37,2001     5015               S32BIT1            =        BIT15                                 #  ONE EXCEEDS MAX
001359:
001360:                                                                                                  #  BIT 14 FLAG 11
001361: 37,2001                        S32.1F2            =        166D                                  #  FIRST PASS OF         REITERATION OF
001362: 37,2001     5016               S32BIT2            =        BIT14                                 #  NEWTON INTERATION     NEWTON
001363:
001364:                                                                                                  #  BIT 13 FLAG 11
001365: 37,2001                        S32.1F3A           =        167D                                  #  BIT 13 AND BIT 12 FUNCTION AS AN ORDERED
001366: 37,2001     5017               S32BIT3A           =        BIT13                                 #  PAIR (13,12) INDICATING THE POSSIBLE OC-
001367:                                                                                                  #  CURRENCE OF 2NEWTON ITERATIONS FOR S32.1
001368:                                                                                                  #  BIT 12 FLAG 11                        IN THE PROGRAM IN THE FOLLOWING ORDER:
001369: 37,2001                        S32.1F3B           =        168D                                  #  (0,1) (I.E. BIT 13 RESET, BIT 12 SET)
001370: 37,2001     5020               S3229T3B           =        BIT12                                 #       = FIRST NEWTON ITERATION BEING DONE
001371:                                                                                                  #  (0,0)= FIRST PASS OF 2ND NEWTON ITER.
001372:                                                                                                  #  (1,1)= 50 FPS STAGE OF 2ND NEWT ITER.
001373:                                                                                                  #  (1,0)= REMAINDER OF 2ND NEWTON ITER.
001374:
001375:                                                                                                  #  BIT 11 FLAG 11
001376:                                                                                                  #                =       169D
001377:
001378:                                                                                                  #  BIT 10 FLAG 11
001379:                                                                                                  #                =       170D
001380:
001381:                                                                                                  #  BIT 9 FLAG 11
001382:                                                                                                  #                =       171D
001383:
001384:                                                                                                  #  BIT 8 FLAG 11
001385:                                                                                                  #                =       172D
001386:
001387:                                                                                                  #  BIT 7 FLAG 11
001388:                                                                                                  #                =       173D
001389:
001390:                                                                                                  #  BIT 6 FLAG 11
001391:                                                                                                  #                =       174D
001392:
001393:                                                                                                  #  BIT 5 FLAG 11
001394:                                                                                                  #                =       175D
001395:
001396:                                                                                                  #  BIT 4 FLAG 11
001397:                                                                                                  #                =       176D
001398:
001399:                                                                                                  #  BIT 3 FLAG 11
001400:                                                                                                  #                =       177D
001401:
001402:                                                                                                  #  BIT 2 FLAG 11
001403:                                                                                                  #                =       178D
001404:
001405:                                                                                                  #  BIT 1 FLAG 11
001406:                                                                                                  #                =       179D
001407:
001408:                                                                                                  #  GENERAL ERASABLE ASSIGNMENTS.
001409:
001410:    0061                                           SETLOC   61
001411:                                                                                                  #  INTERRUPT TEMPORARY STORAGE POOL.     (11D)
001412:
001413:                                                                                                  #  (ITEMP1 THROUGH RUPTREG4)
001414:
001415:                                                                                                  #  ANY OF THESE MAY BE USED AS TEMPORARIES DURING INTERRUPT OR WITH INTERRUPT INHIBITED. THE ITEMP SERIES
001416:                                                                                                  #  IS USED DURING CALLS TO THE EXECUTIVE AND WAITLIST - THE RUPTREGS ARE NOT.
001417:
001418:    0061                        ITEMP1             ERASE
001419:    0062     0061               WAITEXIT           EQUALS   ITEMP1
001420:    0062     0061               EXECTEM1           EQUALS   ITEMP1
001421:
001422:    0062                        ITEMP2             ERASE
001423:    0063     0062               WAITBANK           EQUALS   ITEMP2
001424:    0063     0062               EXECTEM2           EQUALS   ITEMP2
001425:
001426:    0063                        ITEMP3             ERASE
001427:    0064     0063               RUPTSTOR           EQUALS   ITEMP3
001428:    0064     0063               WAITADR            EQUALS   ITEMP3
001429:    0064     0063               NEWPRIO            EQUALS   ITEMP3
001430:
001431:    0064                        ITEMP4             ERASE
001432:    0065     0064               LOCCTR             EQUALS   ITEMP4
001433:    0065     0064               WAITTEMP           EQUALS   ITEMP4
001434:
001435:    0065                        ITEMP5             ERASE
001436:    0066     0065               NEWLOC             EQUALS   ITEMP5
001437:
001438:    0066                        ITEMP6             ERASE
001439:                                                                                                  #  NEWLOC+1      EQUALS  ITEMP6          DP ADDRESS.
001440:
001441:    0067                                           SETLOC   67
001442:    0067                        NEWJOB             ERASE                                          #  MUST BE AT LOC 67 DUE TO WIRING.
001443:
001444:    0070                        RUPTREG1           ERASE
001445:    0071                        RUPTREG2           ERASE
001446:    0072                        RUPTREG3           ERASE
001447:    0073                        RUPTREG4           ERASE
001448:    0074     0073               KEYTEMP1           EQUALS   RUPTREG4
001449:    0074     0073               DSRUPTEM           EQUALS   RUPTREG4
001450:
001451:                                                                                                  #  FLAGWORD RESERVATIONS.                (12D)
001452:
001453:    0074                        STATE              ERASE    +11D
001454:
001455:                                                                                                  #  PAD LOAD FOR DAPS                     (1)
001456:
001457:    0110                        EMDOT              ERASE                                          #  I(1)PL SPS FLOW RATE, SC. AT B+3 KG/CS
001458:
001459:
001460:                                                                                                  #  OPTION FOR V82                        (1D)
001461:    0111                        OPTION82           ERASE                                          #  B(1)
001462:
001463:                                                                                                  #  UNUSED ERASABLES ********(2)
001464:    0112                        ERASFILL           ERASE    +1
001465:
001466:                                                                                                  #  EXEC TEMPORARIES WHICH MAY BE USED BETWEEN CCS NEWJOBS.
001467:                                                                                                  #  (INTB15+ THROUGH RUPTMXM)             (32D)
001468:    0114                        INTB15+            ERASE                                          #  REFLECTS 15TH BIT OF INDEXABLE ADDRESSES
001469:    0115     0114               DSEXIT             EQUALS   INTB15+                               #  RETURN FOR DSPIN
001470:    0115     0114               EXITEM             EQUALS   INTB15+                               #  RETURN FOR SCALE FACTOR ROUTINE SELECT
001471:    0115     0114               BLANKRET           EQUALS   INTB15+                               #  RETURN FOR 2BLANK
001472:
001473:    0115                        INTBIT15           ERASE                                          #  SIMILAR TO ABOVE.
001474:    0116     0115               WRDRET             EQUALS   INTBIT15                              #  RETURN FOR 5BLANK
001475:    0116     0115               WDRET              EQUALS   INTBIT15                              #  RETURN FOR DSPWD
001476:    0116     0115               DECRET             EQUALS   INTBIT15                              #  RETURN FOR PUTCOM(DEC LOAD)
001477:    0116     0115               21/22REG           EQUALS   INTBIT15                              #  TEMP FOR CHARIN
001478:
001479:                                                                                                  #  THE REGISTERS BETWEEN ADDRWD AND PRIORITY MUST STAY IN THE FOLLOWING ORDER FOR INTERPRETIVE TRACE.
001480:
001481:    0116                        ADDRWD             ERASE                                          #  12 BIT INTERPRETIVE OPERAND SUB-ADDRESS.
001482:    0117                        POLISH             ERASE                                          #  HOLDS CADR MADE FROM POLISH ADDRESS.
001483:    0120     0117               UPDATRET           EQUALS   POLISH                                #  RETURN FOR UPDATNN, UPDATVB
001484:    0120     0117               CHAR               EQUALS   POLISH                                #  TEMP FOR CHARIN
001485:    0120     0117               ERCNT              EQUALS   POLISH                                #  COUNTER FOR ERROR LIGHT RESET
001486:    0120     0117               DECOUNT            EQUALS   POLISH                                #  COUNTER FOR SCALING AND DISPLAY (DEC)
001487:
001488:    0120                        FIXLOC             ERASE                                          #  WORK AREA ADDRESS.
001489:    0121                        OVFIND             ERASE                                          #  SET NON-ZERO ON OVERFLOW.
001490:
001491:    0122                        VBUF               ERASE    +5                                    #  TEMPORARY STORAGE USED FOR VECTORS.
001492:    0130     0122               SGNON              EQUALS   VBUF                                  #  TEMP FOR +,- ON
001493:    0130     0122               NOUNTEM            EQUALS   VBUF                                  #  COUNTER FOR MIXNOUN FETCH
001494:    0130     0122               DISTEM             EQUALS   VBUF                                  #  COUNTER FOR OCTAL DISPLAY VERBS
001495:    0130     0122               DECTEM             EQUALS   VBUF                                  #  COUNTER FOR FETCH (DEC DISPLAY VERBS)
001496:
001497:    0130     0123               SGNOFF             EQUALS   VBUF       +1                         #  TEMP FOR +,- ON
001498:    0130     0123               NVTEMP             EQUALS   VBUF       +1                         #  TEMP FOR NVSUB
001499:    0130     0123               SFTEMP1            EQUALS   VBUF       +1                         #  STORAGE FOR SF CONST HI PART (=SFTEMP2-1)
001500:    0130     0123               HITEMIN            EQUALS   VBUF       +1                         #  TEMP FOR LOAD OF HRS,MIN,SEC
001501:                                                                                                  #  MUST = LOTEMIN-1.
001502:
001503:    0130     0124               CODE               EQUALS   VBUF       +2                         #  FOR DSPIN
001504:    0130     0124               SFTEMP2            EQUALS   VBUF       +2                         #  STORAGE FOR SF CONST LO PART (=SFTEMP1+1)
001505:    0130     0124               LOTEMIN            EQUALS   VBUF       +2                         #  TEMP FOR LOAD OF HRS,MIN,SEC
001506:                                                                                                  #        MUST = HITEMIN+1.
001507:    0130     0125               MIXTEMP            EQUALS   VBUF       +3                         #  FOR MIXNOUN DATA
001508:    0130     0125               SIGNRET            EQUALS   VBUF       +3                         #  RETURN FOR +,- ON
001509:
001510:                                                                                                  #  ALSO MIXTEMP+1 = VBUF+4, MIXTEMP+2 = VBUF+5.
001511:
001512:    0130                        BUF                ERASE    +2                                    #  TEMPORARY SCALAR STORAGE.
001513:    0133                        BUF2               ERASE    +1
001514:    0135     0130               INDEXLOC           EQUALS   BUF                                   #  CONTAINS ADDRESS OF SPECIFIED INDEX.
001515:    0135     0130               SWWORD             EQUALS   BUF                                   #  ADDRESS OF SWITCH WORD.
001516:    0135     0131               SWBIT              EQUALS   BUF        +1                         #  SWITCH BIT WITHIN SWITCH WORD.
001517:    0135                        MPTEMP             ERASE                                          #  TEMPORARY USED IN MULTIPLY AND SHIFT.
001518:    0136     0135               DMPNTEMP           EQUALS   MPTEMP                                #  DMPSUB TEMPORARY
001519:    0136                        DOTINC             ERASE                                          #  COMPONENT INCREMENT FOR DOT SUBROUTINE.
001520:    0137     0136               DVSIGN             EQUALS   DOTINC                                #  DETERMINES SIGN OF DDV RESULT.
001521:    0137     0136               ESCAPE             EQUALS   DOTINC                                #  USED IN ARCSIN/ARCCOS.
001522:    0137     0136               ENTRET             EQUALS   DOTINC                                #  EXIT FROM ENTER
001523:
001524:    0137                        DOTRET             ERASE                                          #  RETURN FROM DOT SUBROUTINE.
001525:    0140     0137               DVNORMCT           EQUALS   DOTRET                                #  DIVIDEND NORMALIZATION COUNT IN DDV.
001526:    0140     0137               ESCAPE2            EQUALS   DOTRET                                #  ALTERNATE ARCSIN/ARCCOS SWITCH.
001527:    0140     0137               WDCNT              EQUALS   DOTRET                                #  CHAR COUNTER FOR DSPWD
001528:    0140     0137               INREL              EQUALS   DOTRET                                #  INPUT BUFFER SELECTOR ( X,Y,Z, REG )
001529:
001530:    0140                        MATINC             ERASE                                          #  VECTOR INCREMENT IN MXV AND VXM.
001531:    0141     0140               MAXDVSW            EQUALS   MATINC                                #  +0 IF DP QUOTIENT IS NEAR ONE - ELSE -1.
001532:    0141     0140               POLYCNT            EQUALS   MATINC                                #  POLYNOMIAL LOOP COUNTER
001533:    0141     0140               DSPMMTEM           EQUALS   MATINC                                #  DSPCOUNT SAVE FOR DSPMM
001534:    0141     0140               MIXBR              EQUALS   MATINC                                #  INDICATOR FOR MIXED OR NORMAL NOUN
001535:
001536:    0141                        TEM1               ERASE                                          #  EXEC TEMP
001537:    0142     0141               POLYRET            EQUALS   TEM1
001538:    0142     0141               DSREL              EQUALS   TEM1                                  #  REL ADDRESS FOR DSPIN
001539:
001540:    0142                        TEM2               ERASE                                          #  EXEC TEMP
001541:    0143     0142               DSMAG              EQUALS   TEM2                                  #  MAGNITUDE STORE FOR DSPIN
001542:    0143     0142               IDADDTEM           EQUALS   TEM2                                  #  MIXNOUN INDIRECT ADDRESS STORAGE
001543:
001544:    0143                        TEM3               ERASE                                          #  EXEC TEMP
001545:    0144     0143               COUNT              EQUALS   TEM3                                  #  FOR DSPIN
001546:
001547:    0144                        TEM4               ERASE                                          #  EXEC TEMP
001548:    0145     0144               LSTPTR             EQUALS   TEM4                                  #  LIST POINTER FOR GRABUSY
001549:    0145     0144               RELRET             EQUALS   TEM4                                  #  RETURN FOR RELDSP
001550:    0145     0144               FREERET            EQUALS   TEM4                                  #  RETURN FOR FREEDSP
001551:    0145     0144               DSPWDRET           EQUALS   TEM4                                  #  RETURN FOR DSPSIGN
001552:    0145     0144               SEPSCRET           EQUALS   TEM4                                  #  RETURN FOR SEPSEC
001553:    0145     0144               SEPMNRET           EQUALS   TEM4                                  #  RETURN FOR SEPMIN
001554:
001555:    0145                        TEM5               ERASE                                          #  EXEC TEMP
001556:    0146     0145               NOUNADD            EQUALS   TEM5                                  #  TEMP STORAGE FOR NOUN ADDRESS
001557:
001558:    0146                        NNADTEM            ERASE                                          #  TEMP FOR NOUN ADDRESS TABLE ENTRY
001559:    0147                        NNTYPTEM           ERASE                                          #  TEMP FOR NOUN TYPE TABLE ENTRY
001560:    0150                        IDAD1TEM           ERASE                                          #  TEMP FOR INDIR ADRESS TABLE ENTRY (MIXNN)
001561:                                                                                                  #  MUST = IDAD2TEM-1, = IDAD3TEM-2.
001562:    0151                        IDAD2TEM           ERASE                                          #  TEMP FOR INDIR ADRESS TABLE ENTRY (MIXNN)
001563:                                                                                                  #  MUST = IDAD1TEM+1, = IDAD3TEM-1.
001564:    0152                        IDAD3TEM           ERASE                                          #  TEMP FOR INDIR ADRESS TABLE ENTRY (MIXNN)
001565:                                                                                                  #  MUST = IDAD1TEM+2, = IDAD2TEM+1.
001566:    0153                        RUTMXTEM           ERASE                                          #  TEMP FOR SF ROUT TABLE ENTRY (MIXNN ONLY)
001567:
001568:                                                                                                  #  AX*SR*T STORAGE.                      (6D)
001569:    0154     0142               DEXDEX             EQUALS   TEM2                                  #  B(1)TMP
001570:    0154     0143               DEX1               EQUALS   TEM3                                  #  B(1)TMP
001571:    0154     0144               DEX2               EQUALS   TEM4                                  #  B(1)TMP
001572:    0154     0145               RTNSAVER           EQUALS   TEM5                                  #  B(1)TMP
001573:    0154     0133               TERM1TMP           EQUALS   BUF2                                  #  B(2)TMP
001574:
001575:    0154     0143               DEXI               =        DEX1
001576:
001577:                                                                                                  #  DYNAMICALLY ALLOCATED CORE SETS FOR JOBS.     (84D)
001578:
001579:    0154                        MPAC               ERASE    +6                                    #  MULTI-PURPOSE ACCUMULATOR.
001580:    0163                        MODE               ERASE                                          #  +1 FOR TP, +0 FOR DP, OR -1 FOR VECTOR.
001581:    0164                        LOC                ERASE                                          #  LOCATION ASSOCIATED WITH JOB.
001582:    0165                        BANKSET            ERASE                                          #  USUALLY CONTAINS BBANK SETTING.
001583:    0166                        PUSHLOC            ERASE                                          #  WORD OF PACKED INTERPRETIVE PARAMETERS.
001584:    0167                        PRIORITY           ERASE                                          #  PRIORITY OF PRESENT JOB AND WORK AREA.
001585:
001586:    0170                                           ERASE    +71D                                  #  SEVEN SETS OF 12 REGISTERS EACH.
001587:
001588:                                                                                                  #  SPECIAL DOWNLINK BUFFER.- OVERLAYED BY P27 STORAGE-
001589:
001590:                                                                                                  #  P27 (UPDATE PROGRAM) STORAGE. -OVERLAYS SPEC DNLNK BUFF- (24D)
001591:
001592:    0300                        COMPNUMB           ERASE    +23D                                  #  B(1)TMP NUMBER OF ITEMS TO BE UPLINKED.
001593:    0330     0301               UPOLDMOD           EQUALS   COMPNUMB   +1                         #  B(1)TMP HOLDS INTERRUPTED PROGRAM NUMBER
001594:    0330     0302               UPVERB             EQUALS   UPOLDMOD   +1                         #  B(1)TMP VERB NUMBER
001595:    0330     0303               UPCOUNT            EQUALS   UPVERB     +1                         #  B(1)TMP UPBUFF INDEX
001596:    0330     0304               UPBUFF             EQUALS   UPCOUNT    +1                         #  B(20D)
001597:
001598:                                                                                                  #  MORE P27 STORAGE.                     (2D)
001599:
001600:    0330                        UPTEMP             ERASE                                          #  B(1)TMP SCRATCH
001601:    0331                        UPVERBSV           ERASE                                          #  B(1)TMP
001602:    0332     0330               INTWAK1Q           EQUALS   UPTEMP                                #  (06D)
001603:                                                                                                  #  (20 REGISTERS OF ENTRY DOWNLINK WILL GO HERE.)
001604:
001605:                                                                                                  #  THE FOLLOWING ARE INDEXED FOR TM. IN ENTRY DAP.
001606:
001607:    0332     0304               CMTMTIME           =        UPBUFF                                #  B(1) (VEHICLE BODY RATE INFO IS
001608:    0332     0305               SW/NDX             =        CMTMTIME   +1                         #  B(1)  TELEMETERED EACH 0.2 SEC. DURING
001609:    0332     0324               ENDBUF             =        CMTMTIME   +16D                       #  B(1)  ENTRY.)
001610:
001611:    0332     0325               V1                 =        ENDBUF     +1                         #  I(2) REENTRY, P64-P65
001612:    0332     0327               A0                 =        V1         +2                         #  I(2) REENTRY, P64-P65
001613:                                                                                                  #  HI-ORDER WORD ONLY ON DNLNK.
001614:
001615:                                                                                                  #  ALIGNMENT STORAGE.                    (5D)
001616:                                                                                                  #  (CANNOT SHARE WITH PRECISION INTEGRATION OR KEPLER STORAGE.)
001617:
001618:    0332     0300               QMAJ               EQUALS   COMPNUMB                              #  B(1)TMP
001619:    0332     0301               MARKINDX           EQUALS   QMAJ       +1                         #  B(1)TMP
001620:    0332     0302               BESTI              EQUALS   MARKINDX   +1                         #  I(1)TMP
001621:    0332     0303               BESTJ              EQUALS   BESTI      +1                         #  I(1)TMP
001622:    0332     0304               STARIND            EQUALS   BESTJ      +1                         #  I(1)TMP
001623:
001624:                                                                                                  #  ALIGNMENT/S40.2,3 COMMON STORAGE.     (18D)
001625:
001626:    0332     0306               XSMD               EQUALS   UPBUFF     +2                         #  I(6)TMP
001627:    0332     0314               YSMD               EQUALS   XSMD       +6                         #  I(6)TMP
001628:    0332     0322               ZSMD               EQUALS   YSMD       +6                         #  I(6)TMP
001629:
001630:    0332     0306               XSCREF             =        XSMD                                  #  SPACE CRAFT AXES IN REF COORDS.
001631:    0332     0314               YSCREF             =        YSMD
001632:    0332     0322               ZSCREF             =        ZSMD
001633:    0332                        ZPRIME             =        22D
001634:    0332                        PDA                =        22D
001635:    0332                        COSTH              =        16D
001636:    0332                        SINTH              =        18D
001637:    0332                        THETA              =        20D
001638:    0332                        STARM              =        32D
001639:
001640:                                                                                                  #  DOWNLINK STORAGE.                     (18)
001641:
001642:    0332     0332               DNLSTADR           EQUALS   DNLSTCOD                              #  CONTENTS NO LONGER AN ADDR BUT A CODE
001643:
001644:    0332                        DNLSTCOD           ERASE                                          #  B(1)PRM ID CODE OF DOWNLIST
001645:    0333                        LDATALST           ERASE                                          #  B(1)
001646:    0334                        DNTMGOTO           ERASE                                          #  B(1)
001647:    0335                        TMINDEX            ERASE                                          #  B(1)
001648:    0336     0335               DUMPLOC            EQUALS   TMINDEX                               #  CONTAINS ECADR OF AGC DP WORD BEING DUMP
001649:                                                                                                  #  ED AND COUNT OF COMPLETE DUMPS ALREADY S
001650:                                                                                                  #  ENT.
001651:    0336                        DNQ                ERASE                                          #  B(1)
001652:    0337                        DNTMBUFF           ERASE    +11D                                  #  B(12)PRM DOWNLINK SNAPSHOT BUFFER
001653:
001654:                                                                                                  #  OPTICS MARKING . UNSHARED.            (8D)
001655:
001656:    0353                        MKNDX              ERASE
001657:    0354                        MKT2T1             ERASE    +1
001658:    0356                        MKCDUY             ERASE
001659:    0357                        MKCDUS             ERASE
001660:    0360                        MKCDUZ             ERASE
001661:    0361                        MKCDUT             ERASE
001662:    0362                        MKCDUX             ERASE
001663:
001664:                                                                                                  #  FOR EXCLUSIVE USE OF SYS TEST STANDARD LEAD INS       (2)
001665:    0363                        EBUF2              ERASE    +1                                    #  B(2) UNSHARED
001666:
001667:                                                                                                  #  UNSWITCHED FOR DISPLAY INTERFACE ROUTINES.    (10D)
001668:
001669:    0365                        RESTREG            ERASE                                          #  B(1)PRM FOR DISPLAY RESTARTS
001670:    0366                        NVWORD             ERASE
001671:    0367                        MARKNV             ERASE
001672:    0370                        NVSAVE             ERASE
001673:                                                                                                  #  (RETAIN THE ORDER OF CADRFLSH TO FAILREG +2 FOR DOWNLINK PURPOSES)
001674:    0371                        CADRFLSH           ERASE                                          #  B(1)TMP
001675:    0372                        CADRMARK           ERASE                                          #  B(1)TMP
001676:    0373                        TEMPFLSH           ERASE                                          #  B(1)TMP
001677:    0374                        FAILREG            ERASE    +2                                    #  B(3)PRM 3 ALARM-ABORT USER'S 2CADR
001678:
001679:    0400                                           SETLOC   400
001680:
001681:                                                                                                  #  VAC AREAS. -BE CAREFUL OF PLACEMENT-  (220D)
001682:
001683:    0400                        VAC1USE            ERASE                                          #  B(1)PRM
001684:    0401                        VAC1               ERASE    +42D                                  #  B(43)PRM
001685:    0454                        VAC2USE            ERASE                                          #  B(1)PRM
001686:    0455                        VAC2               ERASE    +42D                                  #  B(43)PRM
001687:    0530                        VAC3USE            ERASE                                          #  B(1)PRM
001688:    0531                        VAC3               ERASE    +42D                                  #  B(43)PRM
001689:    0604                        VAC4USE            ERASE                                          #  B(1)PRM
001690:    0605                        VAC4               ERASE    +42D                                  #  B(43)PRM
001691:    0660                        VAC5USE            ERASE                                          #  B(1)PRM
001692:    0661                        VAC5               ERASE    +42D                                  #  B(43)PRM
001693:
001694:                                                                                                  #  WAITLIST REPEAT FLAG.                 (1D)
001695:    0734                        RUPTAGN            ERASE                                          #  B(1)PRM
001696:    0735     0734               KEYTEMP2           =        RUPTAGN
001697:
001698:                                                                                                  #  STARALIGN ERASABLES.                          (13D)
001699:
001700:    0735                        STARCODE           ERASE                                          #  B(1)DSP NOUN 70 FOR P22,51 AND R52,53.
001701:    0736                        STARALGN           ERASE    +11D
001702:    0752     0736               SINCDU             =        STARALGN
001703:    0752     0744               COSCDU             =        STARALGN   +6
001704:
001705:    0752     0742               SINCDUX            =        SINCDU     +4
001706:    0752     0736               SINCDUY            =        SINCDU
001707:    0752     0740               SINCDUZ            =        SINCDU     +2
001708:    0752     0750               COSCDUX            =        COSCDU     +4
001709:    0752     0744               COSCDUY            =        COSCDU
001710:    0752     0746               COSCDUZ            =        COSCDU     +2
001711:
001712:                                                                                                  #  PHASE TABLE AND RESTART COUNTERS.             (12D)
001713:
001714:    0752                        -PHASE1            ERASE                                          #  B(1)PRM
001715:    0753                        PHASE1             ERASE                                          #  B(1)PRM
001716:    0754                        -PHASE2            ERASE                                          #  B(1)PRM
001717:    0755                        PHASE2             ERASE                                          #  B(1)PRM
001718:    0756                        -PHASE3            ERASE                                          #  B(1)PRM
001719:    0757                        PHASE3             ERASE                                          #  B(1)PRM
001720:    0760                        -PHASE4            ERASE                                          #  B(1)PRM
001721:    0761                        PHASE4             ERASE                                          #  B(1)PRM
001722:    0762                        -PHASE5            ERASE                                          #  B(1)PRM
001723:    0763                        PHASE5             ERASE                                          #  B(1)PRM
001724:    0764                        -PHASE6            ERASE                                          #  B(1)PRM
001725:    0765                        PHASE6             ERASE                                          #  B(1)PRM
001726:
001727:                                                                                                  #  AX*SR*T STORAGE.                      (6D)
001728:
001729:    0766                        CDUSPOT            ERASE    +5                                    #  B(6)
001730:
001731:    0774     0766               CDUSPOTY           =        CDUSPOT
001732:    0774     0770               CDUSPOTZ           =        CDUSPOT    +2
001733:    0774     0772               CDUSPOTX           =        CDUSPOT    +4
001734:
001735:                                                                                                  #  VERB 37 STORAGE.                      (2D)
001736:
001737:    0774                        MINDEX             ERASE                                          #  B(1)TMP INDEX FOR MAJOR MODE
001738:    0775                        MMNUMBER           ERASE                                          #  B(1)TMP MAJOR MODE REQUESTED VIA V37
001739:
001740:                                                                                                  #  PINBALL INTERRUPT STORAGE.            (1D)
001741:
001742:    0776                        DSPCNT             ERASE                                          #  B(1)PRM DSPOUT COUNTER
001743:
001744:                                                                                                  #  PINBALL EXECUTIVE ACTION.             (44D)
001745:
001746:    0777                        DSPCOUNT           ERASE                                          #  DISPLAY POSITION INDICATOR
001747:    1000                        DECBRNCH           ERASE                                          #  +DEC, -DEC, OCT INDICATOR
001748:    1001                        VERBREG            ERASE                                          #  VERB CODE
001749:    1002                        NOUNREG            ERASE                                          #  NOUN CODE
001750:    1003                        XREG               ERASE                                          #  R1 INPUT BUFFER
001751:    1004                        YREG               ERASE                                          #  R2 INPUT BUFFER
001752:    1005                        ZREG               ERASE                                          #  R3 INPUT BUFFER
001753:    1006                        XREGLP             ERASE                                          #  LO PART OF XREG (FOR DEC CONV ONLY)
001754:    1007                        YREGLP             ERASE                                          #  LO PART OF YREG (FOR DEC CONV ONLY)
001755:    1010     1007               HITEMOUT           =        YREGLP                                #  TEMP FOR DISPLAY OF HRS,MIN,SEC
001756:                                                                                                  #        MUST = LOTEMOUT-1.
001757:    1010                        ZREGLP             ERASE                                          #  LO PART OF ZREG (FOR DEC CONV ONLY)
001758:    1011     1010               LOTEMOUT           =        ZREGLP                                #  TEMP FOR DISPLAY OF HRS,MIN,SEC
001759:                                                                                                  #        MUST = HITEMOUT+1.
001760:    1011                        MODREG             ERASE                                          #  MODE CODE
001761:    1012                        DSPLOCK            ERASE                                          #  KEYBOARD/SUBROUTINE CALL INTERLOCK
001762:    1013                        REQRET             ERASE                                          #  RETURN REGISTER FOR LOAD
001763:    1014                        LOADSTAT           ERASE                                          #  STATUS INDICATOR FOR LOADTST
001764:    1015                        CLPASS             ERASE                                          #  PASS INDICATOR CLEAR
001765:    1016                        NOUT               ERASE                                          #  ACTIVITY COUNTER FOR DSPTAB
001766:    1017                        NOUNCADR           ERASE                                          #  MACHINE CADR FOR NOUN
001767:    1020                        MONSAVE            ERASE                                          #  N/V CODE FOR MONITOR. (= MONSAVE1-1)
001768:    1021                        MONSAVE1           ERASE                                          #  NOUNCADR FOR MONITOR (MATBS) = MONSAVE+1
001769:    1022                        MONSAVE2           ERASE                                          #  B(1)PRM NVMONOPT OPTIONS
001770:    1023                        DSPTAB             ERASE    +11D                                  #  0-10D, DISPLAY PANEL BUFF.  11D, C/S LTS.
001771:    1037                        NVQTEM             ERASE                                          #  NVSUB STORAGE FOR CALLING ADDRESS
001772:                                                                                                  #  MUST = NVBNKTEM-1
001773:    1040                        NVBNKTEM           ERASE                                          #  NVSUB STORAGE FOR CALLING BANK
001774:                                                                                                  #  MUST = NVQTEM+1
001775:    1041                        VERBSAVE           ERASE                                          #  NEEDED FOR RECYCLE
001776:    1042                        CADRSTOR           ERASE                                          #  ENDIDLE STORAGE
001777:    1043                        DSPLIST            ERASE                                          #  WAITING REG FOR DSP SYST INTERNAL USE
001778:    1044                        EXTVBACT           ERASE                                          #  EXTENDED VERB ACTIVITY INTERLOCK
001779:    1045                        DSPTEM1            ERASE    +2                                    #  BUFFER STORAGE AREA 1 (MOSTLY FOR TIME)
001780:    1050                        DSPTEM2            ERASE    +2                                    #  BUFFER STORAGE AREA 2 (MOSTLY FOR DEG)
001781:
001782:    1053     1051               DSPTEMX            EQUALS   DSPTEM2    +1                         #  B(2) S-S DISPLAY BUFFER FOR EXT. VERBS.
001783:    1053     1045               NORMTEM1           EQUALS   DSPTEM1                               #  B(3)DSP NORMAL DISPLAY REGISTERS.
001784:
001785:                                                                                                  #  DISPLAY FOR EXTENDED VERBS            (2D)
001786:
001787:    1053     1051               OPTIONX            EQUALS   DSPTEMX                               #  B(2) EXTENDED VERB OPTION CODE  N12(V82)
001788:
001789:                                                                                                  #  TBASE S AND PHSPRDT S.                (12D)
001790:
001791:    1053                        TBASE1             ERASE                                          #  B(1)PRM
001792:    1054                        PHSPRDT1           ERASE                                          #  B(1)PRM
001793:    1055                        TBASE2             ERASE                                          #  B(1)PRM
001794:    1056                        PHSPRDT2           ERASE                                          #  B(1)PRM
001795:    1057                        TBASE3             ERASE                                          #  B(1)PRM
001796:    1060                        PHSPRDT3           ERASE                                          #  B(1)PRM
001797:    1061                        TBASE4             ERASE                                          #  B(1)PRM
001798:    1062                        PHSPRDT4           ERASE                                          #  B(1)PRM
001799:    1063                        TBASE5             ERASE                                          #  B(1)PRM
001800:    1064                        PHSPRDT5           ERASE                                          #  B(1)PRM
001801:    1065                        TBASE6             ERASE                                          #  B(1)PRM
001802:    1066                        PHSPRDT6           ERASE                                          #  B(1)PRM
001803:
001804:                                                                                                  #  MORE UNSWITCHED FOR DISPLAY INF       (5D).
001805:    1067                        EBANKSAV           ERASE
001806:    1070                        MARKEBAN           ERASE
001807:    1071                        EBANKTEM           ERASE
001808:    1072                        MARK2PAC           ERASE
001809:    1073                        R1SAVE             ERASE
001810:
001811:                                                                                                  #  IMU COMPENSATION UNSWITCHED ERASABLE. (1D)
001812:
001813:    1074                        1/PIPADT           ERASE                                          #  B(1)PRM
001814:    1075     1074               OLDBT1             =        1/PIPADT
001815:
001816:                                                                                                  #  SINGLE PRECISION SUBROUTINE TEMPORARIES.      (3D)
001817:                                                                                                  #  SPSIN, SPCOS, SPROOT VARIABLES.
001818:                                                                                                  #  DO NOT SHARE.  THESE ARE USED BY DAPS IN INTERRUPT
001819:                                                                                                  #  AND CURRENTLY ARE NOT PROTECTED.  IF OTHER USERS
001820:                                                                                                  #  MATERIALIZE, THEN THIS CAN BE CHANGED.
001821:
001822:    1075                        HALFY              ERASE
001823:    1076                        ROOTRET            ERASE
001824:    1077                        SQRARG             ERASE
001825:    1100     1075               TEMK               EQUALS   HALFY
001826:    1100     1076               SQ                 EQUALS   ROOTRET
001827:
001828:                                                                                                  #  UNSWITCHED FOR ORBIT INTEGRATION.     (21D)
001829:
001830:    1100                        TDEC               ERASE    +20D                                  #  I(2)
001831:    1125     1102               COLREG             EQUALS   TDEC       +2                         #  I(1)
001832:    1125     1103               LAT                EQUALS   COLREG     +1                         #  I(2)DSP NOUN 43,67 FOR P20,22,51 R52,53.
001833:    1125     1103               LANDLAT            =        LAT                                   #          NOUN 89    FOR P22.
001834:    1125     1105               LONG               EQUALS   LAT        +2                         #  I(2)DSP NOUN 43,67 FOR P20,22,51 R52,53.
001835:    1125     1107               ALT                EQUALS   LONG       +2                         #  I(2)DSP NOUN 43    FOR P20,22,51 R52,53.
001836:    1125     1111               YV                 EQUALS   ALT        +2                         #  I(6)
001837:    1125     1117               ZV                 EQUALS   YV         +6                         #  I(6)
001838:
001839:                                                                                                  #  MARK STORAGE.                         (2)
001840:
001841:    1125                        VHFCNT             ERASE                                          #  B(1)PRM NO. OF VHF MARKS (P20 (R22)).
001842:    1126                        TRKMKCNT           ERASE                                          #  B(1)PRM NO. OF VHF MARKS (P20 (R22)).
001843:
001844:    1127     1126               MARKCTR            =        TRKMKCNT                              #  B(1) MARK COUNTER USED BY R32
001845:
001846:                                                                                                  #  MISCELLANEOUS UNSWITCHED.             (16D)
001847:
001848:    1127                        IRETURN1           ERASE                                          #  B(1) RET ADDR USED BY MIDTOAV1 AND 2
001849:                                                                                                  #  CALLED BY P40,P41,P42, P61,P62
001850:    1130                        RATEINDX           ERASE                                          #   (1) USED BY KALCMANU
001851:    1131                        OPTION1            ERASE                                          #  B(1) NOUN 06 USES THIS
001852:    1132                        OPTION2            ERASE                                          #  B(1) NOUN 06 USES THIS
001853:    1133                        LONGCADR           ERASE    +1                                    #  B(2) LONGCALL REGISTER
001854:    1135                        LONGBASE           ERASE    +1                                    #  B(2) LONGCALL REGISTER
001855:    1137                        LONGTIME           ERASE    +1                                    #  B(2) LONGCALL REGISTER
001856:    1141                        DELAYLOC           ERASE    +3
001857:    1145                        NVWORD1            ERASE                                          #  B(1)
001858:    1146                        TEMPR60            ERASE                                          #  B(1)
001859:    1147                        PRIOTIME           ERASE                                          #  B(1)
001860:    1150     1127               P30/RET            EQUALS   IRETURN1
001861:
001862:                                                                                                  #  MISC. INCLUDING RESTART COUNTER, GIMBAL ANGLE SAVE AND
001863:                                                                                                  #  STANDBY VERB ERASABLES.  REDOCTR BEFORE THETAD (DWNLNK)       (16D)
001864:
001865:    1150                        TIME2SAV           ERASE    +1                                    #  B(2)TMP
001866:    1152                        SCALSAVE           ERASE    +1                                    #  B(2)TMP
001867:    1154                        REDOCTR            ERASE                                          #  B(1)PRM CONTAINS NUMBER OF RESTARTS.
001868:    1155                        THETAD             ERASE    +2                                    #  B(3)PRM DESIRED GIM ANGLES FOR MANEUVER.
001869:    1160     1155               CPHI               =        THETAD                                #        (OUTER)
001870:    1160     1156               CTHETA             =        THETAD     +1                         #        (INNER)
001871:    1160     1157               CPSI               =        THETAD     +2                         #        (MIDDLE)
001872:                                                                                                  #  ENTRY VARIABLES SHARED FOR TM.
001873:    1160     1155               RDOTREF            =        THETAD                                #  I(2)  P65
001874:    1160     1157               VREF               =        RDOTREF    +2                         #  I(2)  P65     HI-ORDER WORD ONLY DNLNK'D
001875:    1160                        DESOPTT            ERASE                                          #  B(1)DSP NOUN 92 FOR P20,22,52, R52.
001876:    1161                        DESOPTS            ERASE                                          #  B(1)DSP NOUN 92 FOR P20,22,52, R52.
001877:
001878:    1162                        DELV               ERASE    +5                                    #  I(6)
001879:    1170     1162               DELVX              =        DELV
001880:    1170     1164               DELVY              =        DELV       +2
001881:    1170     1166               DELVZ              =        DELV       +4
001882:
001883:                                                                                                  #  P20, CONICS   (SHARING WITH TIME 2 SAV AND SCAL SAV ONLY)     (3D)
001884:    1170     1150               POINTEX            EQUALS   TIME2SAV                              #  I(1) POINT AXS EXIT
001885:    1170     1151               VHFTIME            EQUALS   POINTEX    +1                         #  I(2) DOWNLINK OF VHF RANGE TIME +1M
001886:
001887:                                                                                                  #  PERM STATE VECTORS FOR BOOST AND DOWNLINK -WHOLE MISSION-     (14D)
001888:
001889:    1170                        RN                 ERASE    +5                                    #  B(6)PRM
001890:    1176                        VN                 ERASE    +5                                    #  B(6)PRM
001891:    1204                        PIPTIME            ERASE    +1                                    #  B(2)PRM (MUST BE FOLLOWED BY GDT/2)
001892:
001893:                                                                                                  #  SERVICER STORAGE.                             (45D)
001894:
001895:                                                                                                  #  (SERVICER STORAGE AND P11 STORAGE IN UNSWITHCHED SHOULD NOT
001896:                                                                                                  #  OVERLAY EACH OTHER AND THE TOTAL ERASABLE REQUIRED SHOULD NOT
001897:                                                                                                  #  EXCEED THE ERASABLE STORAGE REQUIRED BY RENDEZVOUS GUIDANCE)
001898:
001899:    1206     1206               GDT/2              EQUALS   PIPTIME    +2                         #  B(6)TMP       (MUST FOLLOW PIPTIME)
001900:    1206     1214               GOBL/2             EQUALS   GDT/2      +6                         #  B(6)TMP
001901:    1206     1222               AVEGEXIT           EQUALS   GOBL/2     +6                         #  B(2)TMP
001902:    1206     1222               AVGEXIT            =        AVEGEXIT
001903:    1206     1224               TEMX               EQUALS   AVEGEXIT   +2                         #  B(1)TMP
001904:    1206     1225               TEMY               EQUALS   TEMX       +1                         #  B(1)TMP
001905:    1206     1226               TEMZ               EQUALS   TEMY       +1                         #  B(1)TMP
001906:    1206     1227               PIPCTR             EQUALS   TEMZ       +1                         #  B(1)TMP
001907:    1206     1230               PIPAGE             EQUALS   PIPCTR     +1                         #  B(1)TMP
001908:
001909:    1206     1231               RN1                EQUALS   PIPAGE     +1                         #  B(6)TMP
001910:    1206     1237               VN1                EQUALS   RN1        +6                         #  B(6)TMP
001911:    1206     1245               PIPTIME1           EQUALS   VN1        +6                         #  B(2)TMP
001912:    1206     1247               GDT1/2             EQUALS   PIPTIME1   +2                         #  B(6)TMP
001913:    1206     1255               GOBL1/2            EQUALS   GDT1/2     +6                         #  B(6)TMP
001914:
001915:                                                                                                  #  ENTRY STORAGE.                        (1D)
001916:    1206     1263               ENTRYVN            EQUALS   GOBL1/2    +6                         #  B(1)TMP VN CODE FOR ENTRY DISPLAYS P60S.
001917:
001918:                                                                                                  #  P11 STORAGE.                          (9D)
001919:    1206     1263               PADLONG            EQUALS   ENTRYVN                               #  (2)PL LONGITUDE OF LAUNCH PAD
001920:    1206     1265               LIFTTEMP           EQUALS   PADLONG    +2                         #  (2)TMP
001921:    1206     1267               TEPHEM1            EQUALS   LIFTTEMP   +2                         #  (3)TMP
001922:    1206     1272               PGNCSALT           EQUALS   TEPHEM1    +3                         #  (2)PL ALTITUDE
001923:
001924:                                                                                                  #  RENDEZVOUS NAVIGATION STORAGE.  (SEE COMMENT IN SERVICER STORAGE)     (58D)
001925:    1206                        CSMPOS             ERASE    +57D                                  #  I(6)TMP
001926:    1300     1214               LEMPOS             EQUALS   CSMPOS     +6                         #  I(6)TMP
001927:    1300     1222               RCL                EQUALS   LEMPOS     +6                         #  I(2)TMP
001928:    1300     1224               MARKTIME           EQUALS   RCL        +2                         #  B(2)TMP
001929:    1300     1226               VTEMP              EQUALS   MARKTIME   +2                         #  B(6)TMP
001930:    1300     1234               UM                 EQUALS   VTEMP      +6                         #  I(6)TMP
001931:    1300     1242               MARKDATA           EQUALS   UM         +6                         #  B(2)TMP
001932:    1300     1244               USTAR              EQUALS   MARKDATA   +2                         #  I(6)TMP
001933:    1300     1252               WIXA               EQUALS   USTAR      +6                         #  B(1)TMP
001934:    1300     1253               WIXB               EQUALS   WIXA       +1                         #  B(1)TMP
001935:    1300     1254               ZIXA               EQUALS   WIXB       +1                         #  B(1)TMP
001936:    1300     1255               ZIXB               EQUALS   ZIXA       +1                         #  B(1)TMP
001937:    1300     1256               DELTAX             EQUALS   ZIXB       +1                         #  I(18)TMP
001938:
001939:    1300     1256               VHFRANGE           EQUALS   DELTAX                                #  (2)
001940:    1300     1272               UCL                EQUALS   DELTAX     +12D                       #  (6)   LM-CSM LINE OF SIGHT 1/2 UNIT V
001941:
001942:                                                                                                  #  **** CONICSEX (MEAS INC) ****
001943:    1300     1256               TRIPA              EQUALS   DELTAX
001944:    1300     1261               TEMPVAR            EQUALS   DELTAX     +3
001945:
001946:    1300                        TEMPOR1            ERASE    +1                                    #  B(2)TMP
001947:
001948:                                                                                                  #  T4RUPT ERASABLE.                      (6D)
001949:
001950:    1302                        DSRUPTSW           ERASE
001951:    1303                        OPTIND             ERASE
001952:    1304                        LGYRO              ERASE
001953:    1305                        COMMANDO           ERASE    +1
001954:
001955:    1307                        ZONE               ERASE                                          #  B(1)PRM USED IN SHAFT STOP MONITOR
001956:    1310  0000035               LASTYCMD           =        OPTY                                  #  DUMMY TO MAKE RR BENCH TEST ASSEMBLE
001957:    1310  0000035               LASTXCMD           =        OPTY                                  #  DUMMY TO MAKE RR BENCH TEST ASSEMBLE
001958:
001959:                                                                                                  #  UNSWITCHED DAP ERASABLE.              (4D)
001960:    1310                        T6LOC              ERASE
001961:    1311                        T6ADR              ERASE
001962:    1312                        T5LOC              ERASE    +1
001963:
001964:                                                                                                  #  MODE SWITCHING ERASABLE.              (14D)
001965:    1314                        SWSAMPLE           ERASE                                          #  B(1)PRM
001966:    1315                        DESOPMOD           ERASE                                          #  B(1)PRM
001967:    1316                        WTOPTION           ERASE                                          #  B(1)PRM
001968:    1317                        ZOPTCNT            ERASE                                          #  B(1)PRM
001969:    1320                        IMODES30           ERASE                                          #  B(1)PRM
001970:    1321                        IMODES33           ERASE                                          #  B(1)PRM
001971:    1322                        MODECADR           ERASE    +2                                    #  B(3)TMP
001972:    1325     1322               IMUCADR            =        MODECADR
001973:    1325     1323               OPTCADR            =        MODECADR   +1
001974:    1325     1324               RADCADR            =        MODECADR   +2
001975:    1325                        ATTCADR            ERASE    +2                                    #  B(3)PRM
001976:    1330     1327               ATTPRIO            =        ATTCADR    +2
001977:    1330                        MARKSTAT           ERASE                                          #  B(1)PRM
001978:    1331                        OPTMODES           ERASE                                          #  B(1)PRM
001979:
001980:                                                                                                  #  RCSDAP ERASABLE.                      (1D)
001981:    1332                        HOLDFLAG           ERASE                                          #  B(1)PRM
001982:
001983:                                                                                                  #  CRS61.1 STORAGE.  -USED IN R63 (VERB 89)-     (5D)
001984:    1333                        CPHIX              ERASE    +2                                    #  B(3)DSP NOUN 96 CALCULATED BY CRS61.1
001985:
001986:    1336                        TEVENT             ERASE    +1                                    #  B(2) TIME OF EVENT FOR DOWNLIST
001987:    1340     1336               TLIFTOFF           =        TEVENT
001988:
001989:                                                                                                  #  P34-P35 STORAGE                       (1D)
001990:    1340                        NORMEX             ERASE
001991:
001992:                                                                                                  #  SELF-CHECK ASSIGNMENTS.               (17D)
001993:
001994:                                                                                                  #                         (DO NOT MOVE, S-C IS ADDRESS SENSITIVE)
001995:
001996:    1341                        SELFERAS           ERASE    1357       -          1377            #  *** MUST NOT BE MOVED ***
001997:    1341     1357               SFAIL              EQUALS   SELFERAS                              #  B(1)
001998:    1341     1360               ERESTORE           EQUALS   SFAIL      +1                         #  B(1)
001999:    1341     1361               SELFRET            EQUALS   ERESTORE   +1                         #  B(1) RETURN
002000:    1341     1362               SMODE              EQUALS   SELFRET    +1                         #  B(1)
002001:    1341     1363               ALMCADR            EQUALS   SMODE      +1                         #  B(2) ALARM-ABORT USER'S 2CADR
002002:    1341     1365               ERCOUNT            EQUALS   ALMCADR    +2                         #  B(1)
002003:    1341     1366               SCOUNT             EQUALS   ERCOUNT    +1                         #  B(3)
002004:    1341     1371               SKEEP1             EQUALS   SCOUNT     +3                         #  B(1)
002005:    1341     1372               SKEEP2             EQUALS   SKEEP1     +1                         #  B(1)
002006:    1341     1373               SKEEP3             EQUALS   SKEEP2     +1                         #  B(1)
002007:    1341     1374               SKEEP4             EQUALS   SKEEP3     +1                         #  B(1)
002008:    1341     1375               SKEEP5             EQUALS   SKEEP4     +1                         #  B(1)
002009:    1341     1376               SKEEP6             EQUALS   SKEEP5     +1                         #  B(1)
002010:    1341     1377               SKEEP7             EQUALS   SKEEP6     +1                         #  B(1)
002011:
002012:                                                                                                  #  USED BY P30 ROUTINES TO WRITE ONLY NEVER READ IN COLOSSUS
002013:
002014:    1341  0000000               DISPDEX            EQUALS   A
002015:
002016:                                                                                                  #  ERASABLE FOR SXTMARK CDU CHECK DELAY.  -PAD LOADED-   (1D)
002017:
002018:    1341                        CDUCHKWD           ERASE                                          #  B(1)PL
002019:
002020:                                                                                                  #  R57 STORAGE. -MUST BE UNSHARED EXCEPT IN BOOST OR ENTRY-      (1D)
002021:
002022:    1342                        TRUNBIAS           ERASE                                          #  B(1)PRM RESULT OF R57 CALIBR OF TRUNION
002023:
002024:                                                                                                  #  KEPLER STORAGE                                (2D)
002025:
002026:    1343                        EPSILONT           ERASE    +1                                    #  I(2)TMP
002027:
002028:                                                                                                  #  P37   ** RETURN TO EARTH (PAD LOAD) ****      (2D)
002029:
002030:    1345                        RTED1              ERASE    +1                                    #  I(2)PL VGAMMA POLY COEF               B-3
002031:
002032:                                                                                                  #  P40   *** STEERING ROUTINE *** PAD LOAD       (1D)
002033:
002034:    1347                        DVTHRESH           ERASE                                          #  I(1)PL DELTA VTHRESHOLD FOR LOW THRUST
002035:                                                                                                  #         ROUTINE                        B-2
002036:
002037:                                                                                                  #  P23   *** PAD LOAD ****               (2D)
002038:
002039:    1350                        HORIZALT           ERASE    +1                                    #  I(2)PL HORIZION ALTITUDE           M B-29
002040:
002041:                                                                                                  #  P-20  ALTERNATE LOS VARIANCE  PAD LOAD *****  (1D)
002042:                                                                                                  #                                                                          -16
002043:    1352                        ALTVAR             ERASE                                          #  I(2)PL MILLARD. SQUARED SCALED 2
002044:    1353     1377               END-UE             EQUALS   SELFERAS   +16D                       #  LAST USED UNSWITCHED ERASABLE
002045:
002046:                                                                                                  #  EBANK-3 ASSIGNMENTS
002047:
002048: E3,1400                                           SETLOC   1400
002049:
002050:                                                                                                  #  WAITLIST TASK LISTS.                  (26D)
002051:
002052: E3,1400                        LST1               ERASE    +7                                    #  B(8D)PRM DELTA T S.
002053: E3,1410                        LST2               ERASE    +17D                                  #  B(18D)PRM TASK 2CADR ADDRESSES.
002054:
002055:                                                                                                  #  RESTART STORAGE.                      (2D)
002056:
002057: E3,1432                        RSBBQ              ERASE    +1                                    #  B(2)PRM SAVE BB AND Q FOR RESTARTS.
002058:
002059:                                                                                                  #  MORE LONGCALL STORAGE.  (MUST BE IN LST1 S BANK).     (2D)
002060:
002061: E3,1434                        LONGEXIT           ERASE    +1                                    #  B(2)TMP MAY BE SELDOM OVERLAYED.
002062:
002063:                                                                                                  #  PHASE-CHANGE LISTS PART II.           (12D)
002064:
002065:
002066: E3,1436                        PHSNAME1           ERASE                                          #  B(1)PRM
002067: E3,1437                        PHSBB1             ERASE                                          #  B(1)PRM
002068: E3,1440                        PHSNAME2           ERASE                                          #  B(1)PRM
002069: E3,1441                        PHSBB2             ERASE                                          #  B(1)PRM
002070: E3,1442                        PHSNAME3           ERASE                                          #  B(1)PRM
002071: E3,1443                        PHSBB3             ERASE                                          #  B(1)PRM
002072: E3,1444                        PHSNAME4           ERASE                                          #  B(1)PRM
002073: E3,1445                        PHSBB4             ERASE                                          #  B(1)PRM
002074: E3,1446                        PHSNAME5           ERASE                                          #  B(1)PRM
002075: E3,1447                        PHSBB5             ERASE                                          #  B(1)PRM
002076: E3,1450                        PHSNAME6           ERASE                                          #  B(1)PRM
002077: E3,1451                        PHSBB6             ERASE                                          #  B(1)PRM
002078:
002079:                                                                                                  #  IMU COMPENSATION PARAMETERS.          (22D)
002080:
002081: E3,1452                        PBIASX             ERASE                                          #  B(1)  PIPA BIAS, PIPA SCALE FACTR TERMS
002082: E3,1453  E3,1452               PIPABIAS           =        PBIASX                                #        INTERMIXED.
002083: E3,1453                        PIPASCFX           ERASE
002084: E3,1454  E3,1453               PIPASCF            =        PIPASCFX
002085: E3,1454                        PBIASY             ERASE
002086: E3,1455                        PIPASCFY           ERASE
002087: E3,1456                        PBIASZ             ERASE
002088: E3,1457                        PIPASCFZ           ERASE
002089:
002090: E3,1460                        NBDX               ERASE                                          #  GYRO BIAS DRIFTS
002091: E3,1461  E3,1460               GBIASX             =        NBDX
002092: E3,1461                        NBDY               ERASE
002093: E3,1462                        NBDZ               ERASE
002094:
002095: E3,1463                        ADIAX              ERASE                                          #  ACCELERATION SENSITIVE DRIFT ALONG THE
002096: E3,1464                        ADIAY              ERASE                                          #  INPUT AXIS
002097: E3,1465                        ADIAZ              ERASE
002098:
002099: E3,1466                        ADSRAX             ERASE                                          #  ACCELERATION SENSITIVE DRIFT ALONG THE
002100: E3,1467                        ADSRAY             ERASE                                          #  SPIN REFERENCE AXIS
002101: E3,1470                        ADSRAZ             ERASE
002102:
002103: E3,1471                        GCOMP              ERASE    +5                                    #  CONTAINS COMPENSATING TORQUES
002104:
002105: E3,1477                        GCOMPSW            ERASE
002106: E3,1500  E3,1471               COMMAND            EQUALS   GCOMP
002107: E3,1500  E3,1474               CDUIND             EQUALS   GCOMP      +3
002108:
002109:                                                                                                  #  STATE VECTORS FOR ORBIT INTEGRATION.  (44D)
002110:
002111:                                                                                                  #                (DIFEQCNT THRU XKEP MUST BE IN SAME
002112:                                                                                                  #                EBANK AS RRECTCSM, RRECTLEM ETC
002113:                                                                                                  #                BECAUSE THE COPY-CYCLES (ATOPCSM,
002114:                                                                                                  #                PTOACSM ETC) ARE EXECUTED IN BASIC.
002115:                                                                                                  #                ALL OTHER REFERENCES TO THIS GROUP
002116:                                                                                                  #                ARE BY INTERPRETIVE INSTRUCTIONS.)
002117:
002118:
002119: E3,1500                        DIFEQCNT           ERASE    +43D                                  #  B(1)TMP
002120:                                                                                                  #  (UPSVFLAG...XKEP MUST BE KEPT IN ORDER)
002121:
002122: E3,1554  E3,1501               UPSVFLAG           EQUALS   DIFEQCNT   +1                         #  B(1)PRM UPDATE FLAG
002123: E3,1554  E3,1502               RRECT              EQUALS   UPSVFLAG   +1                         #  B(6)TMP POS AT RECT           KM*2(-14)
002124: E3,1554  E3,1510               VRECT              EQUALS   RRECT      +6                         #  B(6)TMP VEL AT RECT           KM(-1/2)*2(6)
002125: E3,1554  E3,1516               TET                EQUALS   VRECT      +6                         #  B(2)TMP TIME OF STATE VECT    CSECS*2(-28)
002126: E3,1554  E3,1520               TDELTAV            EQUALS   TET        +2                         #  B(6)TMP POSITION DEVIATION    KM*2(14)
002127: E3,1554  E3,1526               TNUV               EQUALS   TDELTAV    +6                         #  B(6)TMP VEL DEVIATION         KM(-1/2)*2(14)
002128: E3,1554  E3,1534               RCV                EQUALS   TNUV       +6                         #  B(6)TMP CONIC POSITION        KM*2(-14)
002129: E3,1554  E3,1542               VCV                EQUALS   RCV        +6                         #  B(6)TMP CONIC VELOCITY        KM(-1/2)*2(6)
002130: E3,1554  E3,1550               TC                 EQUALS   VCV        +6                         #  B(2)TMP TIME SINCE RECTIFICATION
002131: E3,1554  E3,1552               XKEP               EQUALS   TC         +2                         #  B(2)TMP ROOT OF KEPLER EQ     KM(1/2.*2(-10)
002132:
002133:                                                                                                  #  **** TEMP - IN VAC AREA ****
002134: E3,1554                        RRECT1             EQUALS   18D
002135: E3,1554                        VRECT1             EQUALS   24D
002136: E3,1554                        TET1               EQUALS   30D
002137:
002138:                                                                                                  #  PERMANENT STATE VECTORS AND TIMES.    (101D)
002139:
002140:                                                                                                  #  (DO NOT OVERLAY WITH ANYTHING AFTER BOOST)
002141:
002142:                                                                                                  #  (RRECTCSM...XKEPCSM MUST BE KEPT IN THIS ORDER)
002143:
002144: E3,1554                        RRECTCSM           ERASE    +5                                    #  B(6)PRM CSM VARIABLES.
002145: E3,1562  E3,1554               RRECTHIS           =        RRECTCSM
002146: E3,1562                        VRECTCSM           ERASE    +5                                    #  B(6)PRM
002147: E3,1570                        TETCSM             ERASE    +1                                    #  B(2)PRM
002148: E3,1572  E3,1570               TETTHIS            =        TETCSM
002149: E3,1572                        DELTACSM           ERASE    +5                                    #  B(6)PRM
002150: E3,1600                        NUVCSM             ERASE    +5                                    #  B(6)PRM
002151: E3,1606                        RCVCSM             ERASE    +5                                    #  B(6)PRM
002152: E3,1614                        VCVCSM             ERASE    +5                                    #  B(6)PRM
002153: E3,1622                        TCCSM              ERASE    +1                                    #  B(2)PRM
002154: E3,1624                        XKEPCSM            ERASE    +1                                    #  B(2)PRM
002155:
002156:                                                                                                  #  (RRECTLEM...XKEPLEM MUST BE KEPT IN THIS ORDER)
002157:
002158: E3,1626                        RRECTLEM           ERASE    +5                                    #  B(6)PRM LEM VARIABLES
002159: E3,1634  E3,1626               RRECTOTH           =        RRECTLEM
002160: E3,1634                        VRECTLEM           ERASE    +5                                    #  B(6)PRM
002161: E3,1642                        TETLEM             ERASE    +1                                    #  B(2)PRM
002162: E3,1644  E3,1642               TETOTHER           =        TETLEM
002163: E3,1644                        DELTALEM           ERASE    +5                                    #  B(6)PRM
002164: E3,1652                        NUVLEM             ERASE    +5                                    #  B(6)PRM
002165: E3,1660                        RCVLEM             ERASE    +5                                    #  B(6)PRM
002166: E3,1666                        VCVLEM             ERASE    +5                                    #  B(6)PRM
002167: E3,1674                        TCLEM              ERASE    +1                                    #  B(2)PRM
002168: E3,1676                        XKEPLEM            ERASE    +1                                    #  B(2)PRM
002169:
002170: E3,1700                        X789               ERASE    +5
002171: E3,1706                        TEPHEM             ERASE    +2
002172: E3,1711                        AZO                ERASE    +1
002173: E3,1713                        UNITW              ERASE    +5
002174: E3,1721  E3,1713               -AYO               EQUALS   UNITW                                 #  (2)
002175: E3,1721  E3,1715               AXO                EQUALS   UNITW      +2                         #  (2)
002176:
002177:                                                                                                  #  STATE VECTORS FOR DOWNLINK.           (12D)
002178:
002179: E3,1721                        R-OTHER            ERASE    +5                                    #  B(6)PRM POS VECT (OTHER VECH) FOR DNLINK
002180: E3,1727                        V-OTHER            ERASE    +5                                    #  B(6)PRM VEL VECT (OTHER VECH) FOR DNLINK
002181:
002182: E3,1735  E3,1642               T-OTHER            =        TETLEM                                #              TIME (OTHER VECH) FOR DNLINK
002183:
002184:                                                                                                  #  REFSMMAT.                             (18D)
002185:
002186: E3,1735                        REFSMMAT           ERASE    +17D                                  #  I(18D)PRM
002187:
002188:                                                                                                  #  AVERAGEG INTEGRATOR STORAGE.          (8D)
002189: E3,1757                        UNITR              ERASE    +5
002190: E3,1765                        RMAG               ERASE    +1
002191:
002192:                                                                                                  #  P40 PAD LOADS                         (6D)
002193: E3,1767                        EK1VAL             ERASE    +1                                    #  I(2)PL 1-SEC SPS IMPULSE NEWTSEC/100/B23
002194: E3,1771                        EK2VAL             ERASE    +1                                    #  I(2)PL  B+23 NEWTON-SEC/E+2
002195: E3,1773                        EK3VAL             ERASE                                          #  I(1)PL  B+09 NEWTONS/E+4
002196: E3,1774                        FANG               ERASE                                          #  I(1)PL SPS THRUST USED BY IMPULSIVE BURN
002197:
002198:                                                                                                  #  **********LUNAR MODULE CHANGE  ***********
002199:
002200:                                                                                                  #  *9 (2D)
002201: E3,1775  E3,1776               E3J22R2M           EQUALS   FANG       +2
002202: E3,1775  E3,1777               E32C31RM           EQUALS   E3J22R2M   +1
002203:
002204:                                                                                                  #  **** CONICSEX (PLANETARY INERT. ORIEN.) ****
002205: E3,1775  E3,1706               TIMSUBO            EQUALS   TEPHEM                                #  CSEC B-42 (TRIPLE PREC)
002206: E3,1775  E3,1777               END-E3             EQUALS   E32C31RM                              #  LAST USED E3 ADDRESS
002207:
002208:                                                                                                  #  EBANK-4 ASSIGNMENTS
002209:
002210: E4,1400                                           SETLOC   2000
002211:
002212:                                                                                                  #  P20 STORAGE.  -PAD LOADED-    (4D)
002213:
002214: E4,1400                        WRENDPOS           ERASE                                          #  B(1)PL        M B-14
002215: E4,1401                        WRENDVEL           ERASE                                          #  B(1)PL        M/CSECB0
002216: E4,1402                        RMAX               ERASE                                          #  B(1)PL        METERS*2(-19)
002217: E4,1403                        VMAX               ERASE                                          #  B(1)PL        M/CSEC*2(-7)
002218:
002219:                                                                                                  #  P22 STORAGE.  -PAD LOADED-    (5D)
002220: E4,1404                        WORBPOS            ERASE                                          #  B(1)PL        M B-14
002221: E4,1405                        WORBVEL            ERASE                                          #  B(1)PL        M/CSECB0
002222: E4,1406                        S22WSUBL           ERASE                                          #  B(1)PL        M B-14
002223: E4,1407                        RPVAR              ERASE    +1                                    #  B(2)PL
002224:
002225:                                                                                                  #  CONISEX STORAGE.  -PAD LOADED-        (6D)
002226:
002227: E4,1411                        504LM              ERASE    +5                                    #  I(6) MOON LIBRATION VECTOR
002228:
002229:                                                                                                  #  ENTRY STORAGE.            -PAD LOADED-        (2D)
002230: E4,1417                        EMSALT             ERASE    +1                                    #  I(2)PL
002231:
002232:                                                                                                  #  P35 CONSTANTS.   - PAD LOADED-        (4D)
002233: E4,1421                        ATIGINC            ERASE    +1                                    #  B(2)PL
002234: E4,1423                        PTIGINC            ERASE    +1                                    #  B(2)PL
002235:
002236:                                                                                                  #  LUNAR LANDING SIGHT DATA. -PAD LOADED-        (6D)
002237:                                                                                                  #  (USED BY INTEGRATION INITIALIZATION, LAT-LONG SUBROUTINES, P30'S)
002238:
002239: E4,1425                        RLS                ERASE    +5                                    #  I(6) PL  LUNAR LANDING SIGHT VECTOR
002240:
002241:                                                                                                  #  CONISEX (LUNAR AND SOLAR EPHEM) STORAGE.  -PAD LOADED-        (77D)
002242: E4,1433                        TIMEMO             ERASE    +76D
002243: E4,1550  E4,1436               VECOEM             EQUALS   TIMEMO     +3
002244: E4,1550  E4,1532               RESO               EQUALS   VECOEM     +60D
002245: E4,1550  E4,1540               VESO               EQUALS   RESO       +6
002246: E4,1550  E4,1546               OMEGAES            EQUALS   VESO       +6
002247:
002248:                                                                                                  #  FULL INTEGRATION STORAGE.                     (95D)
002249:
002250: E4,1550                        PBODY              ERASE                                          #  I(1)
002251: E4,1551  E4,1551               ALPHAV             EQUALS   PBODY      +1                         #  I(6)TMP
002252: E4,1551  E4,1557               BETAV              EQUALS   ALPHAV     +6                         #  I(6)TMP
002253: E4,1551  E4,1565               PHIV               EQUALS   BETAV      +6                         #  I(6)TMP
002254: E4,1551  E4,1573               PSIV               EQUALS   PHIV       +6                         #  I(6)TMP
002255: E4,1551  E4,1601               FV                 EQUALS   PSIV       +6                         #  I(6)TMP
002256: E4,1551  E4,1607               BETAM              EQUALS   FV         +6                         #  I(6)TMP
002257: E4,1551  E4,1611               H                  EQUALS   BETAM      +2                         #  I(2)TMP
002258: E4,1551  E4,1613               GMODE              EQUALS   H          +2                         #  I(1)TMP
002259: E4,1551  E4,1614               IRETURN            EQUALS   GMODE      +1                         #  I(1)TMP
002260: E4,1551  E4,1615               NORMGAM            EQUALS   IRETURN    +1                         #  I(1)TMP
002261: E4,1551  E4,1616               VECTAB             EQUALS   NORMGAM    +1                         #  I(36)TMP
002262: E4,1551  E4,1662               RPQV               EQUALS   VECTAB     +36D                       #   (6)TMP VECTOR PRIMARY TO SECONDARY BODY
002263: E4,1551  E4,1670               ORIGEX             EQUALS   RPQV       +6                         #  B(1)TMP QSAVE FOR COORD. SWITCH. ROUTINE
002264: E4,1551  E4,1670               KEPRTN             EQUALS   ORIGEX                                #          QSAVE FOR KEPLER
002265: E4,1551  E4,1671               RQVV               EQUALS   ORIGEX     +1                         #   (6)    SEC. BODY TO VEH.VETOR (USED P23)
002266: E4,1551  E4,1677               RPSV               EQUALS   RQVV       +6                         #   (6)TMP SUN TO PRIMARY BODY VECTOR
002267: E4,1551  E4,1705               XKEPNEW            EQUALS   RPSV       +6                         #   (2)TMP ROOT OF KEPLERS EQU FOR TIME TAU
002268:
002269:                                                                                                  #  THESE PROBABLY CAN SHARE INTEGRATION VARIABLES.       (9D)
002270:
002271: E4,1551  E4,1624               VACX               EQUALS   VECTAB     +6                         #  I(2)TMP
002272: E4,1551  E4,1626               VACY               EQUALS   VACX       +2                         #  I(2)TMP
002273: E4,1551  E4,1630               VACZ               EQUALS   VACY       +2                         #  I(2)TMP
002274:
002275: E4,1551  E4,1640               ERADM              EQUALS   VECTAB     +18D                       #  I(2)TMP
002276: E4,1551  E4,1642               INCORPEX           EQUALS   ERADM      +2                         #  I(1)TMP
002277:
002278:                                                                                                  #  R31 (V83) STORAGE. -SHARES WITH INTEGRATION STORAGE-  (24D)
002279:
002280: E4,1551  E4,1624               BASEOTP            EQUALS   VECTAB     +6                         #  I(6) BASE POS VECTOR OTHER VEH
002281: E4,1551  E4,1640               BASEOTV            EQUALS   VECTAB     +18D                       #  I(6) BASE VEL VECTOR OTHER VEH
002282: E4,1551  E4,1654               BASETHP            EQUALS   VECTAB     +30D                       #  I(6) BASE POS VECTOR THIS VEH
002283: E4,1551  E4,1662               BASETHV            EQUALS   RPQV                                  #  I(6) BASE VEL VECTOR THIS VEH
002284:
002285:                                                                                                  #  CONIC INTEGRATION STORAGE. -MAY NOT SHARE WITH SERVICER-      (6D)
002286: E4,1551  E4,1707               ALPHAM             EQUALS   XKEPNEW    +2                         #  I(2)TMP
002287: E4,1551  E4,1711               TAU.               EQUALS   ALPHAM     +2                         #  I(2)TMP
002288: E4,1551  E4,1713               DT/2               EQUALS   TAU.       +2                         #  I(2)TMP
002289:
002290:
002291:                                                                                                  #  P21, R61 STORAGE                      (2D)
002292: E4,1551  E4,1715               P21TIME            EQUALS   DT/2       +2                         #  B(2)TMP
002293:
002294:                                                                                                  #  INTEGRATION STORAGE                   (1D)
002295: E4,1551  E4,1717               EGRESS             EQUALS   P21TIME    +2                         #  I(1)TMP SAVES RETURNS.
002296:
002297:                                                                                                  #  VERB 83 STORAGE                       (20D)
002298:
002299: E4,1551  E4,1720               RANGE              EQUALS   EGRESS     +1                         #  I(2)DSP NOUN 54 DISTANCE TO OPTICAL SUBJ
002300: E4,1551  E4,1722               RRATE              EQUALS   RANGE      +2                         #  I(2)DSP NOUN 54 RATE OF APPROACH
002301: E4,1551  E4,1724               RTHETA             EQUALS   RRATE      +2                         #  I(2)DSP NOUN 54
002302: E4,1551  E4,1726               RONE               EQUALS   RTHETA     +2                         #  I(6)TMP VECTOR STORAGE.  (SCRATCH)
002303: E4,1551  E4,1734               VONE               EQUALS   RONE       +6                         #  I(6)TMP VECTOR STORAGE  (SCRATCH)
002304: E4,1551  E4,1742               BASETIME           EQUALS   VONE       +6                         #  I(2)    BASE TIME ASSOC WITH BASE VECS
002305:
002306:                                                                                                  #  S-BAND ANTENNA GIMBAL ANGLES.  DISPLAYED BY R05 (EXT.VB.64)   (4D)
002307:                                                                                                  #         OPERATION DURING P00 ONLY.
002308: E4,1551  E4,1720               RHOSB              EQUALS   RANGE                                 #  B(2)DSP NOUN 51. PITCH ANGLE
002309: E4,1551  E4,1722               GAMMASB            EQUALS   RHOSB      +2                         #  B(2)DSP NOUN 51. YAWANGLE
002310:
002311:                                                                                                  #  R 36 SCRATCHPAD STORAGE               (13D)
002312: E4,1551  E4,1726               RPASS36            EQUALS   RONE                                  #  I(6) S-S
002313: E4,1551  E4,1734               UNP36              EQUALS   RPASS36    +6                         #  I(6) S-S


002317: E4,1551     0111               OPTIONY            EQUALS   OPTION82                              #  I(1)TMP VEHICLE CODE
002318:
002319:                                                                                                  #  EXTENDED VERB 82 STORAGE.             (6D)
002320:
002321: E4,1551  E4,1720               HPERMIN            EQUALS   RANGE                                 #  I(2) SET TO 300KFT OR 35KFT FOR SR30.1
002322: E4,1551  E4,1722               RPADTEM            EQUALS   HPERMIN    +2                         #  I(2) PAD OR LANDING RADIUS FOR SR30.1
002323: E4,1551  E4,1724               TSTART82           EQUALS   RPADTEM    +2                         #  I(2) TEMP TIME STORAGE FOR V82.
002324:
002325:                                                                                                  #  MORE VERB 82 NOT SHARING WITH VERB 83 (9D)
002326: E4,1551  E4,1742               V82FLAGS           EQUALS   VONE       +6                         #   (1) FOR V 82 BITS
002327: E4,1551  E4,1743               TFF                EQUALS   V82FLAGS   +1                         #  I(2)DSP NOUN 50,44
002328: E4,1551  E4,1745               -TPER              EQUALS   TFF        +2                         #  I(2)DSP NOUN 32
002329: E4,1551  E4,1747               THETA(1)           EQUALS   -TPER      +2                         #  I(2)TMP SET AT END OF V82
002330: E4,1551  E4,1755               RSP-RREC           EQUALS   AOPTIME                               #  DSP NOUN 50 FOR V82 DURING P00 AND P11
002331:
002332:                                                                                                  #  REENTRY CONICS                        (6D)
002333: E4,1551  E4,1742               URONE              EQUALS   V82FLAGS                              #  I(6) SAVE ACTUAL FOR CALCULATIONS
002334:
002335:                                                                                                  #  V82 DISPLAY                           (4D)
002336: E4,1551  E4,1751               HAPOX              EQUALS   THETA(1)   +2                         #  I(2)DSP NOUN 44
002337: E4,1551  E4,1753               HPERX              EQUALS   HAPOX      +2                         #  I(2)DSP NOUN 44
002338:
002339:                                                                                                  #  P22 DISPLAY REGISTERS                 (06D)
002340: E4,1551  E4,1755               AOPTIME            EQUALS   HPERX      +2                         #  I(2)TMP FOR SR52.1,ADVTRACK
002341: E4,1551  E4,1757               LANDLONG           EQUALS   AOPTIME    +2                         #  I(2) DSP NOUN 89 FOR P22
002342: E4,1551  E4,1761               LANDALT            EQUALS   LANDLONG   +2                         #  I(2)DSP NOUN 89 FOR P22.
002343:
002344:                                                                                                  #  S34/35.5,P34-P35 STORAGE.             (6D)
002345: E4,1551  E4,1763               KT                 EQUALS   LANDALT    +2                         #  B(2)
002346: E4,1551  E4,1765               VERBNOUN           EQUALS   KT         +2                         #  B(1)TMP
002347: E4,1551  E4,1766               QSAVED             EQUALS   VERBNOUN   +1                         #  B(1)TMP HOLDS RETURN
002348: E4,1551  E4,1767               RTRN               EQUALS   QSAVED     +1                         #  B(1) RETURN
002349: E4,1551  E4,1770               SUBEXIT            EQUALS   RTRN       +1                         #  B(1)TMP
002350:                                                                                                  #  RGEXIT CANT SHARE WITH HPER,HAPO
002351: E4,1551  E4,1770               RGEXIT             EQUALS   SUBEXIT                               #  I(1)TMP Q SAVE MODE 1 AND 2 TO RTRN MAIN
002352:
002353:                                                                                                  #  P30 DISPLAY                           (4D)
002354: E4,1551  E4,1763               HAPO               EQUALS   KT                                    #  I(2)DSP NOUN 42, FOR P30.
002355: E4,1551  E4,1765               HPER               EQUALS   HAPO       +2                         #  I(2)DSP NOUN 42, FOR P30.
002356:
002357:                                                                                                  #  SOME P34 STORAGE.     (OVERLAYS P35.1 STORAGE)        (2D)
002358: E4,1551  E4,1763               NOMTPI             EQUALS   KT                                    #  I(2)TMP NOMINAL TPI TIME FOR RECYCLE
002359:
002360:                                                                                                  #  THE FOLLOWING ARE ERASABLES USED BY THE SYSTEM TESTS.  205 USES TRANSM1  GS ARE NOT USED IN 205 NOR ARE THEY
002361:                                                                                                  #  WHILE 504 USES TRANSM1 AND ALFDK .
002362: E4,1551                        TRANSM1            EQUALS   2000                                  #  (18) INITIALIZATION FOR IMU TESTS
002363: E4,1551  E4,1422               ALFDK              =        TRANSM1    +18D                       #  (144) ERASABLE LOAD IN 504
002364:
002365:                                                                                                  #  END OF PERF. TEST ERASABLE IN BANK 4
002366:
002367:                                                                                                  #  *-*-* V82 *-*-*                       (6D)
002368:
002369: E4,1551  E4,1771               VONE'              EQUALS   RGEXIT     +1                         #  I(6)TMP NORMAL VELOCITY VONE/ SQ RT MU
002370:
002371:                                                                                                  #  PAD LOAD INTEGRATION ERROR INCLUDED IN VARIANCE BY P20        (1D)
002372:
002373: E4,1551  E4,1777               INTVAR             EQUALS   VONE'      +6                         #  I(1)PL        SQUARE OF EXPECTED INTEGRATION
002374:                                                                                                  #                POSITION EXTRAPOLATION ERROR.
002375:                                                                                                  #                SCALED METERS(2) 2(15)
002376: E4,1551  E4,1777               END-E4             EQUALS   INTVAR                                #  LAST USED ERASABLE IN E4
002377:
002378:                                                                                                  #  EBANK-5 ASSIGNMENTS
002379:
002380: E5,1400                                           SETLOC   2400
002381:
002382:                                                                                                  #  *-*-*-*- OVERLAY 1 IN EBANK 5 -*-*-*-*
002383:
002384:                                                                                                  #  W-MATRIX STORAGE.                     (162D)
002385:
002386: E5,1400                        W                  EQUALS   2400                                  #  B(162)
002387: E5,1400                        9X9LOC1            EQUALS   2444
002388: E5,1400                        9X9LOC2            EQUALS   2532
002389:
002390: E5,1400  E5,1570               EMATRIX            =        W          +120D                      #  B(42E USED TO CONVERT W TO 6X6
002391: E5,1400  E5,1642               END-W              EQUALS   W          +162D                      #  **NEXT AVAILABLE LOC AFTER W MATRIX**
002392:
002393:                                                                                                  #  AUTO-OPTICS STORAGE -R52-
002394:
002395:                                                                                                  #  DO NOT MOVE FROM E5,1554.  A DELICATE BALANCE EXISTS BETWEEN THIS AND P03
002396: E5,1400  E5,1554               XNB1               EQUALS   W          +108D                      #  B(6D)TMP
002397: E5,1400  E5,1562               YNB1               EQUALS   XNB1       +6                         #  B(6)TMP
002398: E5,1400  E5,1570               ZNB1               EQUALS   YNB1       +6                         #  B(6)TMP
002399: E5,1400  E5,1576               SAVQR52            EQUALS   ZNB1       +6                         #  I(2)TMP
002400: E5,1400  E5,1600               PLANVEC            EQUALS   SAVQR52    +2                         #  B(6) S-S SIGHTING VECTOR IN REF. COOR.
002401: E5,1400  E5,1606               TSIGHT             EQUALS   PLANVEC    +6                         #  B(2) S-S TIME OF SIGHTING
002402:
002403:                                                                                                  #  RENDEZVOUS -P34-35                    (26D)
002404: E5,1400  E5,1610               DVLOS              EQUALS   TSIGHT     +2                         #  I(6) S-S DELTA VELOCITY, LOS COORD-DISPL1
002405: E5,1400  E5,1610               DELTAR             EQUALS   DVLOS                                 #  I(2)
002406: E5,1400  E5,1610               TINTSOI            EQUALS   DELTAR                                #  I(2) INTERCEPT TIME FOR SOI MANEUVER
002407: E5,1400  E5,1612               DELTTIME           EQUALS   DVLOS      +2                         #  I(2)
002408: E5,1400  E5,1614               TARGTIME           EQUALS   DVLOS      +4                         #  I(2)
002409: E5,1400  E5,1616               UNRM               EQUALS   DVLOS      +6                         #  I(6) S-S
002410: E5,1400  E5,1624               ULOS               EQUALS   UNRM       +6                         #  I(6) S-S UNIT LINE OF SIGHT VECTOR
002411: E5,1400  E5,1632               ACTCENT            EQUALS   ULOS       +6                         #  I(2) S-S CENTRAL ANGLE BETWEEN ACTIVE
002412:                                                                                                  #       VEH AT TPI IGNITION TIME AND
002413:                                                                                                  #       TARGET VECTOR.
002414: E5,1400  E5,1634               DELVTPI            EQUALS   ACTCENT    +2                         #  I(2) NOUN 58 FOR P34.
002415: E5,1400  E5,1636               DELVTPF            EQUALS   DELVTPI    +2                         #  I(2) NOUN 58,59 FOR P34,35.
002416: E5,1400  E5,1640               POSTTPI            EQUALS   DELVTPF    +2                         #  I(2) NOUN 58 FOR P34.
002417: E5,1400  E5,1634               TDEC2              EQUALS   DELVTPI                               #   (2)
002418:
002419:                                                                                                  #  ALIGNMENT                             (12D)
002420: E5,1400  E5,1610               STARSAV1           EQUALS   DVLOS                                 #  I(6)TMP RESTART STAR SAVE.
002421: E5,1400  E5,1616               STARSAV2           EQUALS   STARSAV1   +6                         #  I(6)TMP RESTART STAR SAVE.
002422: E5,1400  E5,1616               US                 =        STARSAV2                              #          (CISLUNAR TAG FOR STARSAV2).
002423:
002424:                                                                                                  #  TPI SEARCH                            (26D)
002425: E5,1400  E5,1610               IT                 EQUALS   DVLOS                                 #   (6)
002426: E5,1400  E5,1616               THETZERO           EQUALS   IT         +6                         #   (2)
002427: E5,1400  E5,1620               TFI                EQUALS   THETZERO   +2                         #   (2)
002428: E5,1400  E5,1622               DELVEE             EQUALS   TFI        +2                         #   (2)
002429: E5,1400  E5,1624               HP                 EQUALS   DELVEE     +2                         #   (2)
002430: E5,1400  E5,1626               TFO                EQUALS   HP         +2                         #   (2)
002431: E5,1400  E5,1630               HPO                EQUALS   TFO        +2                         #   (2)
002432: E5,1400  E5,1632               DELVEO             EQUALS   HPO        +2                         #   (2)
002433: E5,1400  E5,1634               MAGVTPI            EQUALS   DELVEO     +2                         #  I(2)TMP MAG OF DELTAVTPI OR VMID
002434: E5,1400  E5,1636               RELDELV            EQUALS   MAGVTPI    +2                         #  I(2)TMP MAG OF DELTAVTPF
002435: E5,1400  E5,1640               T3TOT4             EQUALS   RELDELV    +2                         #  I(2)DSP NOUN 39 FOR P34,35.  TPI TO TIN
002436:                                                                                                  #  T (CAN NOT SHARE WITH RETURN TO EARTH)
002437:                                                                                                  #  ALIGNMENT/SYSTEST/CALCSMSC/CRS61.1 COMMON STORAGE.    (36D)
002438:                                                                                                  #  (CALCSMSC IS A SUBSET OF S41.1 AT LEAST)
002439:                                                                                                  #  (CRS61.1 IS A SUBSET OF P20)
002440:
002441: E5,1400  E5,1671               XSM                EQUALS   END-W      +23D                       #  B(6)
002442: E5,1400  E5,1677               YSM                EQUALS   XSM        +6                         #  B(6)TMP
002443: E5,1400  E5,1705               ZSM                EQUALS   YSM        +6                         #  B(6)TMP
002444:
002445: E5,1400  E5,1713               XDC                EQUALS   ZSM        +6                         #  B(6)TMP
002446: E5,1400  E5,1721               YDC                EQUALS   XDC        +6                         #  B(6)TMP
002447: E5,1400  E5,1727               ZDC                EQUALS   YDC        +6                         #  B(6)TMP
002448:
002449: E5,1400  E5,1713               XNB                =        XDC
002450: E5,1400  E5,1721               YNB                =        YDC
002451: E5,1400  E5,1727               ZNB                =        ZDC
002452:
002453:                                                                                                  #  OVERLAYS WITHIN ALIGNMENT/SYSTEST/CALCSMSC COMMON STORAGE.
002454:
002455: E5,1400  E5,1673               -COSB              EQUALS   XSM        +2                         #  (2)TMP
002456: E5,1400  E5,1675               SINB               EQUALS   -COSB      +2                         #  (2)TMP
002457:
002458:                                                                                                  #  ALIGNMENT/SYSTEST COMMON STORAGE.     (18D)
002459:
002460: E5,1400  E5,1735               STARAD             EQUALS   ZDC        +6                         #  I(18D)TMP
002461:
002462:                                                                                                  #  ALIGNMENT/SYSTEST/AUTO OPTICS COMMON STORAGE. (17D)
002463:
002464: E5,1400  E5,1757               OGC                EQUALS   STARAD     +18D                       #  I(2)TMP
002465: E5,1400  E5,1761               IGC                EQUALS   OGC        +2                         #  I(2)TMP
002466: E5,1400  E5,1763               MGC                EQUALS   IGC        +2                         #  I(2)TMP
002467: E5,1400  E5,1765               STAR               EQUALS   MGC        +2                         #  I(6)TMP
002468: E5,1400  E5,1773               SAC                EQUALS   STAR       +6                         #  I(2)TMP
002469: E5,1400  E5,1775               PAC                EQUALS   SAC        +2                         #  I(2)TMP
002470: E5,1400  E5,1777               QMIN               EQUALS   PAC        +2                         #  B(1)TMP
002471:
002472:                                                                                                  #  **** COLP50S ****                     (1D)
002473: E5,1400  E5,1735               CULTRIX            EQUALS   VEARTH                                #  VEARTH, VSUN, VMOON
002474:
002475:                                                                                                  #  OVERLAYS WITHIN ALIGNMENT/SYSTEST COMMON STORAGE.     (24D)
002476:
002477: E5,1400  E5,1735               VEARTH             EQUALS   STARAD                                #  (6)TMP
002478: E5,1400  E5,1743               VSUN               EQUALS   VEARTH     +6                         #  (6)TMP
002479: E5,1400  E5,1751               VMOON              EQUALS   VSUN       +6                         #  (6)TMP
002480: E5,1400  E5,1757               SAX                EQUALS   VMOON      +6                         #  (6)TMP
002481:
002482:                                                                                                  #  *-*-*-*- OVERLAY 2 IN EBANK 5 -*-*-*-*
002483:
002484:                                                                                                  #  CONIC ROUTINES STORAGE.                       (87D)
002485:
002486: E5,1400  E5,1642               DELX               EQUALS   END-W                                 #  I(2)TMP
002487: E5,1400  E5,1644               DELT               EQUALS   DELX       +2                         #  I(2)TMP
002488: E5,1400  E5,1646               URRECT             EQUALS   DELT       +2                         #  I(6)TMP
002489: E5,1400  E5,1654               RCNORM             EQUALS   URRECT     +6                         #  I(2)TMP
002490: E5,1400  E3,1552               XPREV              EQUALS   XKEP                                  #  I(2)TMP
002491: E5,1400  E5,1656               R1VEC              EQUALS   RCNORM     +2                         #  I(6)TMP
002492: E5,1400  E5,1664               R2VEC              EQUALS   R1VEC      +6                         #  I(6)TMP
002493: E5,1400  E5,1672               TDESIRED           EQUALS   R2VEC      +6                         #  I(2)TMP
002494: E5,1400  E5,1674               GEOMSGN            EQUALS   TDESIRED   +2                         #  I(1)TMP
002495: E5,1400  E5,1675               UN                 EQUALS   GEOMSGN    +1                         #  I(6)TMP
002496: E5,1400  E5,1703               VTARGTAG           EQUALS   UN         +6                         #  I(1)TMP
002497: E5,1400  E5,1704               VTARGET            EQUALS   VTARGTAG   +1                         #  I(6)TMP
002498: E5,1400  E5,1712               RTNLAMB            EQUALS   VTARGET    +6                         #  I(1)TMP
002499: E5,1400  E5,1713               U2                 EQUALS   RTNLAMB    +1                         #  I(6)TMP
002500: E5,1400  E5,1721               MAGVEC2            EQUALS   U2         +6                         #  I(2)TMP
002501: E5,1400  E5,1723               UR1                EQUALS   MAGVEC2    +2                         #  I(6)TMP
002502: E5,1400  E5,1731               SNTH               EQUALS   UR1        +6                         #  I(2)TMP
002503: E5,1400  E5,1733               CSTH               EQUALS   SNTH       +2                         #  I(2)TMP
002504: E5,1400  E5,1735               1-CSTH             EQUALS   CSTH       +2                         #  I(2)TMP
002505: E5,1400  E5,1737               CSTH-RHO           EQUALS   1-CSTH     +2                         #  I(2)TMP
002506: E5,1400  E5,1741               P                  EQUALS   CSTH-RHO   +2                         #  I(2)TMP
002507: E5,1400  E5,1743               R1A                EQUALS   P          +2                         #  I(2)TMP
002508: E5,1400  E5,1656               RVEC               EQUALS   R1VEC                                 #  I(6)TMP
002509: E5,1400  E5,1745               VVEC               EQUALS   R1A        +2                         #  I(6)TMP
002510: E5,1400  E5,1712               RTNTT              EQUALS   RTNLAMB                               #  I(1)TMP
002511: E5,1400  E5,1753               ECC                EQUALS   VVEC       +6                         #  I(2)TMP
002512: E5,1400  E5,1712               RTNTR              EQUALS   RTNLAMB                               #  I(1)TMP
002513: E5,1400  E5,1712               RTNAPSE            EQUALS   RTNLAMB                               #  I(1)TMP
002514: E5,1400  E5,1721               R2                 EQUALS   MAGVEC2                               #  I(2)TMP
002515: E5,1400  E5,1755               RTNPRM             EQUALS   ECC        +2                         #  I(1)TMP
002516: E5,1400  E5,1756               SGNRDOT            EQUALS   RTNPRM     +1                         #  I(1)TMP
002517: E5,1400  E5,1757               RDESIRED           EQUALS   SGNRDOT    +1                         #  I(2)TMP
002518: E5,1400  E5,1761               DELDEP             EQUALS   RDESIRED   +2                         #  I(2)TMP
002519: E5,1400  E5,1763               DEPREV             EQUALS   DELDEP     +2                         #  I(2)TMP
002520: E5,1400  E5,1761               TERRLAMB           EQUALS   DELDEP                                #  I(2)TMP
002521: E5,1400  E5,1763               TPREV              EQUALS   DEPREV                                #  I(2)TMP
002522:
002523:                                                                                                  #  *-*-*-*- OVERLAY 3 IN EBANK 5 -*-*-*-*
002524:
002525:                                                                                                  #  MEASUREMENT INCORPORATION STORAGE.    (66D)
002526:                                                                                                  #  (CALLED BY P20, P22, P23)
002527:
002528: E5,1400  E5,1642               OMEGAM1            EQUALS   END-W                                 #  I(6)TMP
002529: E5,1400  E5,1650               OMEGAM2            EQUALS   OMEGAM1    +6                         #  I(6)TMP
002530: E5,1400  E5,1656               OMEGAM3            EQUALS   OMEGAM2    +6                         #  I(6)TMP
002531: E5,1400  E5,1664               HOLDW              EQUALS   OMEGAM3    +6                         #  I(18)TMP
002532: E5,1400  E5,1706               TDPOS              EQUALS   HOLDW      +18D                       #  I(6)TMP
002533: E5,1400  E5,1714               TDVEL              EQUALS   TDPOS      +6                         #  I(6)TMP
002534:
002535: E5,1400  E5,1722               ZI                 EQUALS   TDVEL      +6                         #  I(18)
002536:
002537:                                                                                                  #  P22-P23 STORAGE.                      (8D)
002538:
002539: E5,1400  E5,1744               22SUBSCL           EQUALS   ZI         +18D                       #  DE OF ABCDE LANDMARK ID NO.
002540: E5,1400  E5,1745               CXOFF              EQUALS   22SUBSCL   +1                         #  B OF ABCDE OFFSET INDICATOR
002541: E5,1400  E5,1746               8KK                EQUALS   CXOFF      +1                         #  B(1)TMP INDEX OF PRESENT MARK.
002542: E5,1400  E5,1747               8NN                EQUALS   8KK        +1                         #  B(1)TMP
002543: E5,1400  E5,1750               S22LOC             EQUALS   8NN        +1                         #  I(1)TMP MARK DATA LOC
002544: E5,1400  E5,1751               LANDMARK           EQUALS   S22LOC     +1                         #  B(1)DSP NOUN 70 FOR P22,51, R52,53.
002545: E5,1400  E5,1752               HORIZON            EQUALS   LANDMARK   +1                         #  B(1)DSP NOUN 70 FOR P22,51, R52,53.
002546: E5,1400  E5,1753               IDOFLMK            EQUALS   HORIZON    +1                         #  B(1)
002547:
002548:                                                                                                  #  ******P23***                          (1D)
002549: E5,1400  E5,1754               TRUNION            EQUALS   IDOFLMK    +1                         #  B(1)
002550:
002551:
002552:                                                                                                  #  *-*-*-*- OVERLAY 0 IN EBANK 5 -*-*-*-*
002553:
002554:                                                                                                  #  SYSTEM TEST STORAGE.                          (174)
002555:
002556: E5,1400                        AZIMUTH            ERASE    +1
002557: E5,1402                        LATITUDE           ERASE    +1
002558:
002559: E5,1404     1160               TRUNA              EQUALS   DESOPTT
002560: E5,1404     1161               SHAFTA             EQUALS   DESOPTS
002561:
002562: E5,1404                        ERVECTOR           ERASE    +5
002563: E5,1412                        LENGTHOT           ERASE
002564: E5,1413                        LOSVEC             ERASE    +5
002565:
002566: E5,1421  E5,1413               SXTOPTN            =        LOSVEC
002567: E5,1421                        NDXCTR             ERASE
002568: E5,1422                        PIPINDEX           ERASE
002569: E5,1423                        POSITON            ERASE
002570: E5,1424                        QPLAC              ERASE
002571: E5,1425                        QPLACE             ERASE
002572: E5,1426                        QPLACES            ERASE
002573: E5,1427                        RUN                ERASE
002574: E5,1430                        STOREPL            ERASE
002575: E5,1431                        SOUTHDR            ERASE
002576: E5,1432  E5,1431               TARG1/2            =        SOUTHDR
002577: E5,1432                        TAZEL1             ERASE    +5
002578: E5,1440                        TEMPTIME           ERASE    +1
002579: E5,1442                        TMARK              ERASE    +1
002580: E5,1444                        GENPL              ERASE    +134D
002581: E5,1653  E5,1444               CDUTIMEI           =        GENPL
002582: E5,1653  E5,1446               CDUTIMEF           =        GENPL      +2
002583: E5,1653  E5,1450               IMU/OPT            =        GENPL      +4
002584: E5,1653  E5,1451               CDUREADF           =        GENPL      +5
002585: E5,1653  E5,1452               CDUREADI           =        GENPL      +6
002586: E5,1653  E5,1453               CDULIMIT           =        GENPL      +7
002587:
002588: E5,1653  E5,1450               TEMPADD            =        GENPL      +4
002589: E5,1653  E5,1451               TEMP               =        GENPL      +5
002590: E5,1653  E5,1452               NOBITS             =        GENPL      +6
002591: E5,1653  E5,1453               CHAN               =        GENPL      +7
002592:
002593: E5,1653  E5,1454               LOS1               =        GENPL      +8D
002594: E5,1653  E5,1462               LOS2               =        GENPL      +14D
002595:
002596: E5,1653  E5,1470               CALCDIR            EQUALS   GENPL      +20D
002597: E5,1653  E5,1471               CDUFLAG            EQUALS   GENPL      +21D
002598: E5,1653  E5,1472               GYTOBETQ           EQUALS   GENPL      +22D
002599: E5,1653  E5,1473               OPTNREG            EQUALS   GENPL      +23D
002600: E5,1653  E5,1474               SAVE               EQUALS   GENPL      +24D                       #  THREE CONSEC LOC
002601: E5,1653  E5,1477               SFCONST1           EQUALS   GENPL      +27D
002602: E5,1653  E5,1500               TIMER              EQUALS   GENPL      +28D
002603:
002604: E5,1653  E5,1502               DATAPL             EQUALS   GENPL      +30D
002605: E5,1653  E5,1444               RDSP               EQUALS   GENPL                                 #  FIX LATER     POSSIBLY KEEP1
002606: E5,1653  E5,1544               MASKREG            EQUALS   GENPL      +64D
002607: E5,1653  E5,1546               CDUNDX             EQUALS   GENPL      +66D
002608: E5,1653  E5,1547               RESULTCT           EQUALS   GENPL      +67D
002609: E5,1653  E5,1552               COUNTPL            EQUALS   GENPL      +70D
002610:
002611: E5,1653  E5,1553               CDUANG             EQUALS   GENPL      +71D
002612: E5,1653  E5,1444               AINLA              =        GENPL                                 #  OPTIMUM CALIB. AND ALIGNMENT
002613: E5,1653  E5,1444               WANGO              EQUALS   AINLA
002614: E5,1653  E5,1446               WANGI              EQUALS   AINLA      +2D
002615: E5,1653  E5,1450               WANGT              EQUALS   AINLA      +4D
002616: E5,1653  E5,1450               TORQNDX            =        WANGT
002617: E5,1653  E5,1452               DRIFTT             EQUALS   AINLA      +6D
002618: E5,1653  E5,1454               ALX1S              EQUALS   AINLA      +8D
002619: E5,1653  E5,1455               CMPX1              EQUALS   AINLA      +9D
002620: E5,1653  E5,1456               ALK                EQUALS   AINLA      +10D
002621: E5,1653  E5,1472               VLAUNS             EQUALS   AINLA      +22D
002622: E5,1653  E5,1460               THETAX             =        ALK        +2
002623: E5,1653  E5,1474               WPLATO             EQUALS   AINLA      +24D
002624: E5,1653  E5,1500               INTY               EQUALS   AINLA      +28D
002625: E5,1653  E5,1466               THETAN             =        THETAX     +6
002626: E5,1653  E5,1502               ANGZ               EQUALS   AINLA      +30D
002627: E5,1653  E5,1504               INTZ               EQUALS   AINLA      +32D
002628: E5,1653  E5,1506               ANGY               EQUALS   AINLA      +34D
002629: E5,1653  E5,1510               ANGX               EQUALS   AINLA      +36D
002630: E5,1653  E5,1512               DRIFTO             EQUALS   AINLA      +38D
002631: E5,1653  E5,1514               DRIFTI             EQUALS   AINLA      +40D
002632: E5,1653  E5,1520               VLAUN              EQUALS   AINLA      +44D
002633: E5,1653  E5,1474               FILDELV            =        THETAN     +6
002634: E5,1653  E5,1522               ACCWD              EQUALS   AINLA      +46D
002635: E5,1653  E5,1476               INTVEC             =        FILDELV    +2
002636: E5,1653  E5,1530               POSNV              EQUALS   AINLA      +52D
002637: E5,1653  E5,1532               DPIPAY             EQUALS   AINLA      +54D
002638: E5,1653  E5,1536               DPIPAZ             EQUALS   AINLA      +58D
002639: E5,1653  E5,1540               ALTIM              EQUALS   AINLA      +60D
002640: E5,1653  E5,1541               ALTIMS             EQUALS   AINLA      +61D
002641: E5,1653  E5,1542               ALDK               EQUALS   AINLA      +62D
002642: E5,1653  E5,1560               DELM               EQUALS   AINLA      +76D
002643: E5,1653  E5,1570               WPLATI             EQUALS   AINLA      +84D
002644: E5,1653  E5,1577               RESTARPT           =        AINLA      +91D
002645: E5,1653  E5,1631               GEOSAVED           =        AINLA      +117D
002646: E5,1653  E5,1632               PREMTRXC           =        AINLA      +118D
002647: E5,1653  E5,1633               LAUNCHAZ           =        AINLA      +119D
002648: E5,1653  E5,1635               NEWAZMTH           =        AINLA      +121D
002649: E5,1653  E5,1637               OLDAZMTH           =        AINLA      +123D
002650: E5,1653  E5,1641               TOLDAZMT           =        AINLA      +125D
002651: E5,1653  E5,1643               GEOCOMPS           =        AINLA      +127D
002652: E5,1653  E5,1644               1SECXT             =        AINLA      +128D
002653: E5,1653  E5,1645               GTSXTLST           =        AINLA      +129D
002654: E5,1653  E5,1646               ERECTIME           =        AINLA      +130D
002655: E5,1653  E5,1647               ERCOMP             =        AINLA      +131D
002656: E5,1653  E5,1655               ZERONDX            =        AINLA      +137D
002657: E5,1653  E5,1655               GTSOPNDZ           =        ZERONDX
002658:
002659:                                                                                                  #  THE FOLLOWING TAGS ARE USED BY THE 504 IMU CALIBRATION AND ALIGNMENT PROGRAM ONLY.
002660:
002661: E5,1653  E5,1460               THETAX1            EQUALS   ALK        +2
002662: E5,1653  E5,1466               THETAN1            EQUALS   THETAX1    +6
002663: E5,1653  E5,1474               FILDELV1           EQUALS   THETAN1    +6
002664: E5,1653  E5,1476               INTVEC1            EQUALS   FILDELV1   +2
002665: E5,1653  E5,1631               GEOSAVE1           EQUALS   AINLA      +117D
002666: E5,1653  E5,1632               PREMTRX1           EQUALS   AINLA      +118D
002667: E5,1653  E5,1633               LUNCHAZ1           EQUALS   AINLA      +119D
002668: E5,1653  E5,1635               NEWAZ1             EQUALS   LUNCHAZ1   +2
002669: E5,1653  E5,1637               OLDAZ1             EQUALS   LUNCHAZ1   +4
002670: E5,1653  E5,1641               TOLDAZ1            EQUALS   LUNCHAZ1   +6
002671: E5,1653  E5,1643               GEOCOMP1           EQUALS   AINLA      +127D
002672: E5,1653  E5,1644               1SECXT1            EQUALS   AINLA      +128D
002673: E5,1653  E5,1645               GTSWTLT1           EQUALS   AINLA      +129D
002674: E5,1653  E5,1646               ERECTIM1           EQUALS   AINLA      +130D
002675: E5,1653  E5,1647               ERCOMP1            EQUALS   AINLA      +131D                      #  I(6)
002676: E5,1653  E5,1655               ZERONDX1           EQUALS   AINLA      +137D
002677: E5,1653  E5,1656               PERFDLAY           EQUALS   AINLA      +138D                      #  B(2).........
002678:
002679:                                                                                                  #  END OF 504 CAL + ALIGN ERASE.
002680:
002681:
002682:                                                                                                  #  *-*-*-*-  OVERLAY 4 IN EBANK 5  -*-*-*-*
002683:
002684:                                                                                                  #  P32 -- P33                            (26D)
002685: E5,1653  E5,1610               UP1                EQUALS   DVLOS                                 #  I(6)
002686: E5,1653  E5,1616               VPASS2             EQUALS   UP1        +6                         #  I(6)
002687: E5,1653  E5,1624               RPASS2             EQUALS   VPASS2     +6                         #  I(6)
002688: E5,1653  E5,1632               DIFFALT            EQUALS   RPASS2     +6                         #  I(2)
002689: E5,1653  E5,1634               TCDH               EQUALS   DIFFALT    +2                         #  I(2)
002690: E5,1653  E5,1636               TCSI               EQUALS   TCDH       +2                         #  I(2)
002691: E5,1653  E5,1640               TTPIO              EQUALS   TCSI       +2                         #  I(2)
002692:
002693:                                                                                                  #  P32,P33 STORAGE OVERLAYING 9X9 W-MATRIX LOCATIONS     (26D)
002694: E5,1653  E5,1444               DELVEET1           EQUALS   9X9LOC1                               #  I(6) DELV FOR CSI
002695: E5,1653  E5,1452               RACT2              EQUALS   DELVEET1   +6                         #  I(6) POS. ACTIVE VEH. AT CDH TIME
002696: E5,1653  E5,1532               VACT2              EQUALS   9X9LOC2                               #  I(6) VEL. ACTIVE VEH. AT CDH TIME
002697: E5,1653  E5,1540               RACT1              EQUALS   VACT2      +6                         #  I(6) POS. ACTIVE VEH. AT CSI TIME
002698: E5,1653  E5,1546               T1TOT2             EQUALS   RACT1      +6                         #  I(2) TCDH - TCSI
002699: E5,1653  E5,1777               END-E5             EQUALS   QMIN                                  #  LAST USED E5 ADDRESS
002700:
002701:
002702:                                                                                                  #  EBANK-6 ASSIGNMENTS
002703:
002704: E6,1400                                           SETLOC   3000
002705:                                                                                                  #  P23   PAD LOADS ***                   (2D).
002706: E6,1400                        WMIDPOS            ERASE                                          #  I(1)PL INITIAL VALUES FOR W-MATRIX IN
002707: E6,1401                        WMIDVEL            ERASE                                          #  I(1)PL CISLUNAR (P23) NAVIGATION
002708:
002709:                                                                                                  #  R22   PAD LOADS                       (5D).
002710: E6,1402                        RVAR               ERASE    +1                                    #  I(2)PL VHF RADAR
002711: E6,1404                        RVARMIN            ERASE    +2                                    #  I(3)PL VHF RADAR
002712:
002713:                                                                                                  #  ******** PAD LOADED ENTRY DAP STEERING VARIABLES ********     (3D)
002714: E6,1407                        LADPAD             ERASE                                          #  I(1)PL FOR ENTRY. HOLDS CM NOMINAL L/D
002715: E6,1410                        LODPAD             ERASE                                          #  I(1)PL FOR ENTRY. HOLDS CM NOMINAL LOD
002716: E6,1411                        ALFAPAD            ERASE                                          #  B(1)PL ALFA TRIM / 180
002717:
002718:                                                                                                  #  ******** PAD LOADED TVC DAP VARIABLES.**********************************(26D)
002719: E6,1412                        ETDECAY            ERASE                                          #  I(1)PL
002720: E6,1413                        ESTROKER           ERASE                                          #  B(1)PL
002721: E6,1414                        EKPRIME            ERASE    +1                                    #  B(2)PL
002722: E6,1416                        EKTLX/I            ERASE    +2                                    #  B(3)PL
002723: E6,1421                        EREPFRAC           ERASE    +1                                    #  B(2)PL
002724: E6,1423                        PACTOFF            ERASE                                          #  B(1)PL, DSP N48 R01 = PTRIM, R02 = YTRIM
002725: E6,1424                        YACTOFF            ERASE                                          #  B(1)PL, CONSECUTIVE WITH PACTOFF
002726: E6,1425                        HBN10              ERASE                                          #  B(1)
002727: E6,1426                        HBN11/2            ERASE                                          #  B(1)
002728: E6,1427                        HBN12              ERASE                                          #  B(1)
002729: E6,1430                        HBD11/2            ERASE                                          #  B(1)
002730: E6,1431                        HBD12              ERASE                                          #  B(1)
002731: E6,1432                        HBN20              ERASE                                          #  B(1)
002732: E6,1433                        HBN21/2            ERASE                                          #  B(1)
002733: E6,1434                        HBN22              ERASE                                          #  B(1)
002734: E6,1435                        HBD21/2            ERASE                                          #  B(1)
002735: E6,1436                        HBD22              ERASE                                          #  B(1)
002736: E6,1437                        HBN30              ERASE                                          #  B(1)
002737: E6,1440                        HBN31/2            ERASE                                          #  B(1)
002738: E6,1441                        HBN32              ERASE                                          #  B(1)
002739: E6,1442                        HBD31/2            ERASE                                          #  B(1)
002740: E6,1443                        HBD32              ERASE                                          #  B(1)
002741:
002742:                                                                                                  #  ******** EXCLUSIVE TVC DAP VARIABLES. **********************************(5D)
002743: E6,1444                        V97VCNTR           ERASE                                          #  B(1)
002744: E6,1445                        TEMPDAP            ERASE    +1                                    #  B(2)
002745: E6,1447  E6,1445               MRKRTMP            =        TEMPDAP                               #        ((B(1)))
002746: E6,1447                        CNTR               ERASE                                          #  B(1)
002747: E6,1450                        OGAD               ERASE                                          #  B(1)
002748:
002749:                                                                                                  #  ******** EXCLUSIVE RCS DAP VARIABLES.  *********************************(13D)
002750: E6,1451                        RWORD1             ERASE    +12D                                  #  B(1)
002751: E6,1466  E6,1452               RWORD2             EQUALS   RWORD1     +1                         #  B(1)
002752: E6,1466  E6,1453               PWORD1             EQUALS   RWORD2     +1                         #  B(1)
002753: E6,1466  E6,1454               PWORD2             EQUALS   PWORD1     +1                         #  B(1)
002754: E6,1466  E6,1455               YWORD1             EQUALS   PWORD2     +1                         #  B(1)
002755: E6,1466  E6,1456               YWORD2             EQUALS   YWORD1     +1                         #  B(1)
002756: E6,1466  E6,1457               BLAST              EQUALS   YWORD2     +1                         #  B(2)
002757: E6,1466  E6,1461               BLAST1             EQUALS   BLAST      +2                         #  B(2)
002758: E6,1466  E6,1463               BLAST2             EQUALS   BLAST1     +2                         #  B(2)
002759: E6,1466  E6,1465               T5PHASE            EQUALS   BLAST2     +2                         #  B(1)
002760:
002761:                                                                                                  #  ******** RCS/TVC DAP COMMON STORAGE.************************************(16D)
002762: E6,1466                        DAPDATR1           ERASE                                          #  B(1)DSP NOUN 46(R1)
002763: E6,1467                        DAPDATR2           ERASE                                          #  B(1)DSP NOUN 46(R2)
002764:
002765: E6,1470                        IXX                ERASE                                          #  B(1) CONSECUTIVE WITH IAVG, IAVG/TLX FOR
002766: E6,1471                        IAVG               ERASE                                          #  B(1)                            MASSPROP
002767: E6,1472                        IAVG/TLX           ERASE                                          #  B(1)
002768:
002769: E6,1473                        LEMMASS            ERASE                                          #  B(1)DSP NOUN 47 (R2)
002770: E6,1474                        CSMMASS            ERASE                                          #  B(1)DSP NOUN 47 (R1)
002771: E6,1475                        WEIGHT/G           ERASE
002772: E6,1476  E6,1475               MASS               =        WEIGHT/G
002773:
002774: E6,1476                        AK                 ERASE
002775: E6,1477                        AK1                ERASE
002776: E6,1500                        AK2                ERASE
002777:
002778: E6,1501                        RCSFLAGS           ERASE                                          #  B(1) CONSECUTIVE WITHAK2 DOWNLINK
002779: E6,1502                        T5TEMP             ERASE                                          #  B(1)
002780: E6,1503                        EDRIVEX            ERASE
002781: E6,1504                        EDRIVEY            ERASE
002782: E6,1505                        EDRIVEZ            ERASE
002783:
002784:                                                                                                  #  INTEMP THRU INTEMP+14D ARE RESERVED FOR OVERLAYED TVC/RCS INTERUP TRUE TEMPORIES
002785: E6,1506                        INTTEMP            ERASE    +14D                                  #  (15)
002786:
002787:                                                                                                  #  TVC/RCS THRU TVCRCS +11D RESERVED FOR DOWNLINKED VARIABLES
002788: E6,1525                        TVCRCS             ERASE    +11D                                  #  (12)
002789:                                                                                                  #  RCS (WBODYS,ADOTS)
002790:                                                                                                  #  TVC(OMEGACS,OMEGABS)
002791:
002792:                                                                                                  #  TVC DAP TEMPORARY VARIABLES************************************
002793:
002794:                                                                                                  #  TVC DAP INTERUPT TRUE TEMPORARIES******************************
002795:
002796: E6,1541  E6,1506               PHI333             EQUALS   INTTEMP                               #  B(1) COUNTING REGISTER
002797: E6,1541  E6,1507               PSI333             EQUALS   PHI333     +1                         #  B(1) COUNTING REGISTER
002798: E6,1541  E6,1510               TEMP333            EQUALS   PSI333     +1                         #  B(1) MASS TEMPORARY
002799: E6,1541  E6,1511               VARST0             EQUALS   TEMP333    +1                         #  B(8) BREAKPOINTS AND SLOPES
002800: E6,1541  E6,1516               VARST5             =        VARST0     +5
002801: E6,1541  E6,1522               LASTMASP           EQUALS   VARST0     +9D                        #  LAST VARST0 WORD
002802: E6,1541  E6,1523               TVCTMP1            EQUALS   LASTMASP   +1                         #  B(1)
002803:
002804:                                                                                                  #  *******REGULAR TVC TEMPORARIES*************
002805:
002806:                                                                                                  #  TVC ZEROING LOOP STARTS HERE
002807:
002808: E6,1541  E6,1525               OMEGAC             EQUALS   TVCRCS                                #  I(6)
002809: E6,1541  E6,1525               OMEGAXC            =        OMEGAC
002810: E6,1541  E6,1527               OMEGAYC            =        OMEGAC     +2
002811: E6,1541  E6,1531               OMEGAZC            =        OMEGAC     +4
002812:
002813: E6,1541  E6,1533               OMEGAB             EQUALS   TVCRCS     +6                         #  B(6)
002814: E6,1541  E6,1533               OMEGAXB            =        OMEGAB
002815: E6,1541  E6,1535               OMEGAYB            =        OMEGAB     +2
002816: E6,1541  E6,1537               OMEGAZB            =        OMEGAB     +4
002817:
002818: E6,1541  E6,1541               PTMP1              EQUALS   OMEGAC     +12D                       #  B(2)
002819: E6,1541  E6,1543               PTMP2              EQUALS   PTMP1      +2                         #  B(2)
002820: E6,1541  E6,1545               PTMP3              EQUALS   PTMP2      +2                         #  B(2)
002821: E6,1541  E6,1547               PTMP4              EQUALS   PTMP3      +2                         #  B(2)
002822: E6,1541  E6,1551               PTMP5              EQUALS   PTMP4      +2                         #  B(2)
002823: E6,1541  E6,1553               PTMP6              EQUALS   PTMP5      +2                         #  B(2)
002824:
002825: E6,1541  E6,1555               YTMP1              EQUALS   PTMP6      +2                         #  B(2)
002826: E6,1541  E6,1557               YTMP2              EQUALS   YTMP1      +2                         #  B(2)
002827: E6,1541  E6,1561               YTMP3              EQUALS   YTMP2      +2                         #  B(2)
002828: E6,1541  E6,1563               YTMP4              EQUALS   YTMP3      +2                         #  B(2)
002829: E6,1541  E6,1565               YTMP5              EQUALS   YTMP4      +2                         #  B(2)
002830: E6,1541  E6,1567               YTMP6              EQUALS   YTMP5      +2                         #  B(2)
002831:
002832: E6,1541  E6,1571               ROLLFIRE           EQUALS   YTMP6      +2                         #  B(1)
002833: E6,1541  E6,1572               ROLLWORD           EQUALS   ROLLFIRE   +1                         #  B(1)
002834: E6,1541  E6,1573               TEMREG             EQUALS   ROLLWORD   +1                         #  B(1)
002835:
002836: E6,1541  E6,1574               STROKER            EQUALS   TEMREG     +1                         #  B(1)
002837:
002838: E6,1541  E6,1575               PERRB              EQUALS   STROKER    +1                         #  B(2)
002839: E6,1541  E6,1577               YERRB              EQUALS   PERRB      +2                         #  B(2)
002840:
002841: E6,1541  E6,1601               DELPBAR            EQUALS   YERRB      +2                         #  B(2)
002842: E6,1541  E6,1603               DELYBAR            EQUALS   DELPBAR    +2                         #  B(2)
002843:
002844: E6,1541  E6,1605               PDELOFF            EQUALS   DELYBAR    +2                         #  B(2)
002845: E6,1541  E6,1607               YDELOFF            EQUALS   PDELOFF    +2                         #  B(2)
002846:
002847:                                                                                                  #  TVC ZEROING LOOP ENDS HERE
002848: E6,1541  E6,1611               TTMP1              EQUALS   YDELOFF    +2                         #  B(2)
002849: E6,1541  E6,1613               TTMP2              EQUALS   TTMP1      +2                         #  B(2)
002850: E6,1541  E6,1615               DAP1               EQUALS   TTMP2      +2                         #  B(2)
002851: E6,1541  E6,1617               DAP2               EQUALS   DAP1       +2                         #  B(2)
002852: E6,1541  E6,1621               DAP3               EQUALS   DAP2       +2                         #  B(2)
002853:
002854: E6,1541  E6,1623               PCMD               EQUALS   DAP3       +2                         #  B(1)
002855: E6,1541  E6,1624               YCMD               EQUALS   PCMD       +1                         #  B(1), CONSECUTIVE WITH PCMD
002856: E6,1541  E6,1625               T5TVCDT            EQUALS   YCMD       +1                         #  B(1)
002857: E6,1541  E6,1626               MDT                EQUALS   T5TVCDT    +1                         #  I(6)
002858: E6,1541  E6,1634               KPRIMEDT           EQUALS   MDT        +6                         #  I(2)
002859: E6,1541  E6,1636               KTLX/I             EQUALS   KPRIMEDT   +2                         #  B(1)
002860: E6,1541  E6,1637               TENMDOT            EQUALS   KTLX/I     +1                         #  B(1)
002861: E6,1541  E6,1640               1/CONACC           EQUALS   TENMDOT    +1                         #  B(1)
002862: E6,1541  E6,1641               VARK               EQUALS   1/CONACC   +1                         #  B(1)
002863: E6,1541  E6,1642               REPFRAC            EQUALS   VARK       +1                         #  B(1)
002864: E6,1541  E6,1643               VCNTR              EQUALS   REPFRAC    +1                         #  B(1)
002865: E6,1541  E6,1644               TVCPHASE           EQUALS   VCNTR      +1                         #  B(1)
002866: E6,1541  E6,1645               PCDUYPST           EQUALS   TVCPHASE   +1                         #  B(1)
002867: E6,1541  E6,1646               PCDUZPST           EQUALS   PCDUYPST   +1                         #  B(1)
002868: E6,1541  E6,1647               YCDUYPST           EQUALS   PCDUZPST   +1                         #  B(1)
002869: E6,1541  E6,1650               YCDUZPST           EQUALS   YCDUYPST   +1                         #  B(1)
002870: E6,1541  E6,1651               MCDUYDOT           EQUALS   YCDUZPST   +1                         #  B(1)
002871: E6,1541  E6,1652               MCDUZDOT           EQUALS   MCDUYDOT   +1                         #  B(1)
002872: E6,1541  E6,1653               TVCEXPHS           EQUALS   MCDUZDOT   +1                         #  B(1)
002873: E6,1541  E6,1654               MASSTMP            EQUALS   TVCEXPHS   +1                         #  B(1)  PROTECT
002874: E6,1541  E6,1655               VCNTRTMP           EQUALS   MASSTMP    +1                         #  B(1)    *PROTECT***
002875:
002876:                                                                                                  #  STROKE TEST VARIABLES
002877:
002878:                                                                                                  #  (6D)
002879: E6,1541  E6,1656               STRKTIME           EQUALS   VCNTRTMP   +1                         #  B(1)
002880: E6,1541  E6,1657               CADDY              EQUALS   STRKTIME   +1                         #  B(1)
002881: E6,1541  E6,1660               N                  EQUALS   CADDY      +1                         #  B(1)
002882: E6,1541  E6,1661               BUNKER             EQUALS   N          +1                         #  B(1)
002883: E6,1541  E6,1662               REVS               EQUALS   BUNKER     +1                         #  B(1)
002884: E6,1541  E6,1663               CARD               EQUALS   REVS       +1                         #  B(1)
002885:
002886:                                                                                                  #  TVC ROLL DAP VARIABLES
002887:
002888:                                                                                                  #  (8D)
002889: E6,1541  E6,1664               OGANOW             EQUALS   CARD       +1                         #  B(1)
002890: E6,1541  E6,1665               OGAPAST            EQUALS   OGANOW     +1                         #  B(1)
002891: E6,1541  E6,1666               OGA                EQUALS   OGAPAST    +1                         #  B(1)TMP
002892: E6,1541  E6,1666               OGAERR             =        OGA                                   #  (ROLL DAP USES OGA, MEANS OGAERROR)
002893: E6,1541  E6,1667               DELOGART           EQUALS   OGA        +1                         #  B(1)TMP
002894: E6,1541  E6,1670               SGNRT              EQUALS   DELOGART   +1                         #  SIGN OF OGA RATE
002895: E6,1541  E6,1671               DELOGA             EQUALS   SGNRT      +1                         #  USED IN ROLL LOGIC
002896: E6,1541  E6,1672               I                  EQUALS   DELOGA     +1                         #  USED IN ROLL LOGIC
002897: E6,1541  E6,1673               IOGARATE           EQUALS   I          +1                         #  USED IN ROLL LOGIC
002898:
002899:                                                                                                  #  TVC DAP RESTART TEMPORARIES.
002900: E6,1541  E6,1674               PACTTMP            EQUALS   IOGARATE   +1                         #  B(2)
002901: E6,1541  E6,1676               YACTTMP            EQUALS   PACTTMP    +2                         #  B(2)
002902: E6,1541  E6,1700               CNTRTMP            EQUALS   YACTTMP    +2                         #  B(1)
002903: E6,1541  E6,1701               STRKTTMP           EQUALS   CNTRTMP    +1                         #  B(1)
002904: E6,1541  E6,1702               DELBRTMP           EQUALS   STRKTTMP   +1                         #  B(2)
002905: E6,1541  E6,1704               ERRBTMP            EQUALS   DELBRTMP   +2                         #  B(2)
002906: E6,1541  E6,1706               CMDTMP             EQUALS   ERRBTMP    +2                         #  B(2)
002907:
002908: E6,1541  E6,1710               TMP1               EQUALS   CMDTMP     +2                         #  B(2)
002909: E6,1541  E6,1712               TMP2               EQUALS   TMP1       +2                         #  B(2)
002910: E6,1541  E6,1714               TMP3               EQUALS   TMP2       +2                         #  B(2)
002911: E6,1541  E6,1716               TMP4               EQUALS   TMP3       +2                         #  B(2)
002912: E6,1541  E6,1720               TMP5               EQUALS   TMP4       +2                         #  B(2)
002913: E6,1541  E6,1722               TMP6               EQUALS   TMP5       +2                         #  B(2)
002914:
002915:                                                                                                  #  TVC DAP FILTER COEFFICIENTS TEMPORARIES
002916: E6,1541  E6,1724               COEFFADR           EQUALS   TMP6       +2                         #  B(1)
002917: E6,1541  E6,1725               N10                EQUALS   COEFFADR   +1                         #  I(15)
002918:
002919:                                                                                                  #  OVERLAYS WITHIN TVC DAP
002920:
002921: E6,1541  E6,1533               OGARATE            =        OMEGAB                                #  B(2)
002922:
002923: E6,1541  E6,1611               PHASETMP           =        TTMP1                                 #  B(1) RESTART FOR CSM/LM V46 SWITCH-OVER
002924: E6,1541  E6,1613               RTRNLOC            =        TTMP2                                 #  B(1) RESTART FOR CSM/LM V46 SWITCH-OVER
002925: E6,1541  E6,1704               BZERO              =        ERRBTMP
002926: E6,1541  E6,1704               CZERO              =        ERRBTMP
002927: E6,1541  E6,1706               JZERO              =        CMDTMP
002928: E6,1541  E6,1706               YZERO              =        CMDTMP
002929:
002930:                                                                                                  #  S40.9 STORAGE..........
002931:
002932: E6,1541  E6,1744               NBRCYCLS           EQUALS   N10        +15D                       #  B(1) COUNTER FOR P40,41 STEERING
002933: E6,1541  E6,1745               NBRCYCLP           EQUALS   NBRCYCLS   +1                         #  B(1) MAINTAIN ORDER
002934: E6,1541  E6,1746               DELVSUM            EQUALS   NBRCYCLP   +1                         #  I(6) P40,P41
002935: E6,1541  E6,1754               DELVSUMP           EQUALS   DELVSUM    +6                         #  I(6) P40,P41
002936:
002937:                                                                                                  #  ******** RCS DAP TEMPORARY VARIABLES.***********************************(95D)
002938:
002939:                                                                                                  #  **RCS INTERUPT TRUE TEMPS *************************                     15D
002940: E6,1541  E6,1506               SPNDX              EQUALS   INTTEMP                               #  B(1)
002941: E6,1541  E6,1507               DPNDX              EQUALS   SPNDX      +1                         #  B(1)TMP
002942: E6,1541  E6,1510               KMPAC              EQUALS   DPNDX      +1                         #  B(2)TMP
002943: E6,1541  E6,1512               KMPTEMP            EQUALS   KMPAC      +2                         #  B(1)TMP
002944:
002945: E6,1541  E6,1513               XNDX1              EQUALS   KMPTEMP    +1                         #  B(1)TMP XNDX1 THRU NYJETS ARE OVERLAYED
002946: E6,1541  E6,1514               XNDX2              EQUALS   XNDX1      +1                         #  B(1)TMP BY OTHER DAP ERASABLES SO
002947: E6,1541  E6,1515               YNDX               EQUALS   XNDX2      +1                         #  B(1)TMP SHOULD ALWAYS BE DEFINED IN
002948: E6,1541  E6,1516               ZNDX               EQUALS   YNDX       +1                         #  B(1)TMP A BLOCK
002949: E6,1541  E6,1517               RINDEX             EQUALS   ZNDX       +1                         #  B(1)TMP
002950: E6,1541  E6,1520               PINDEX             EQUALS   RINDEX     +1                         #  B(1)TMP
002951: E6,1541  E6,1521               YINDEX             EQUALS   PINDEX     +1                         #  B(1)TMP
002952: E6,1541  E6,1522               NRJETS             EQUALS   YINDEX     +1                         #  B(1)TMP
002953: E6,1541  E6,1523               NPJETS             EQUALS   NRJETS     +1                         #  B(1)TMP
002954: E6,1541  E6,1524               NYJETS             EQUALS   NPJETS     +1                         #  B(1)TMP
002955:
002956: E6,1541  E6,1513               WTEMP              EQUALS   XNDX1                                 #  B(2)TMP WTEMP THRU DELTEMPZ OVERLAY
002957: E6,1541  E6,1515               DELTEMPX           EQUALS   WTEMP      +2                         #  B(2)TMP XNDX1 THRU NRJETS AND EDOT THRU
002958: E6,1541  E6,1517               DELTEMPY           EQUALS   DELTEMPX   +2                         #  B(2)TMP ADBVEL
002959: E6,1541  E6,1521               DELTEMPZ           EQUALS   DELTEMPY   +2                         #  B(2)TMP
002960:
002961: E6,1541  E6,1515               EDOT               EQUALS   YNDX                                  #  B(2)TMP EDOT THRU ADBVEL OVERLAY
002962: E6,1541  E6,1517               AERR               EQUALS   EDOT       +2                         #  B(1)TMP YNDX THRU NPJETS AND DELTEMPX
002963: E6,1541  E6,1520               EDOTVEL            EQUALS   AERR       +1                         #  B(2)TMP THRU DELTEMPZ
002964: E6,1541  E6,1522               AERRVEL            EQUALS   EDOTVEL    +2                         #  B(1)TMP
002965: E6,1541  E6,1523               ADBVEL             EQUALS   AERRVEL    +1                         #  B(1)TMP
002966:
002967:                                                                                                  #  *** REGULAR RCS TEMPS*****************************                      (   ).
002968:
002969:                                                                                                  #   RCS ZEROING LOOP STARTS HERE****  ** **  ** ***   *** * *              (37)
002970: E6,1541  E6,1525               WBODY              EQUALS   TVCRCS                                #  B(2)TMP
002971: E6,1541  E6,1527               WBODY1             EQUALS   WBODY      +2                         #  B(2)TMP
002972: E6,1541  E6,1531               WBODY2             EQUALS   WBODY      +4                         #  B(2)TMP
002973: E6,1541  E6,1533               ADOT               EQUALS   WBODY2     +2                         #  B(2)TMP
002974: E6,1541  E6,1535               ADOT1              EQUALS   ADOT       +2                         #  B(2)TMP
002975: E6,1541  E6,1537               ADOT2              EQUALS   ADOT1      +2                         #  B(2)TMP
002976:
002977: E6,1541  E6,1541               MERRORX            EQUALS   ADOT2      +2                         #   (2)
002978: E6,1541  E6,1543               MERRORY            EQUALS   MERRORX    +2                         #   (2)
002979: E6,1541  E6,1545               MERRORZ            EQUALS   MERRORY    +2                         #   (2)
002980: E6,1541  E6,1547               DFT                EQUALS   MERRORZ    +2                         #  B(1)TMP
002981: E6,1541  E6,1550               DFT1               EQUALS   DFT        +1                         #  B(1)TMP
002982: E6,1541  E6,1551               DFT2               EQUALS   DFT1       +1                         #  B(1)TMP
002983: E6,1541  E6,1552               DRHO               EQUALS   DFT2       +1                         #  B(2)TMP
002984: E6,1541  E6,1554               DRHO1              EQUALS   DRHO       +2                         #  B(2)TMP
002985: E6,1541  E6,1556               DRHO2              EQUALS   DRHO1      +2                         #  B(2)TMP
002986: E6,1541  E6,1560               ATTSEC             EQUALS   DRHO2      +2                         #  B(1)TMP
002987: E6,1541  E6,1561               TAU                EQUALS   ATTSEC     +1                         #  B(1)TMP
002988: E6,1541  E6,1562               TAU1               EQUALS   TAU        +1                         #  B(1)TMP
002989: E6,1541  E6,1563               TAU2               EQUALS   TAU1       +1                         #  B(1)TMP
002990: E6,1541  E6,1564               BIAS               EQUALS   TAU2       +1                         #  B(1)TMP
002991: E6,1541  E6,1565               BIAS1              EQUALS   BIAS       +1                         #  B(1)TMP
002992: E6,1541  E6,1566               BIAS2              EQUALS   BIAS1      +1                         #  B(1)TMP
002993: E6,1541  E6,1567               ERRORX             EQUALS   BIAS2      +1                         #  B(1)TMP
002994: E6,1541  E6,1570               ERRORY             EQUALS   ERRORX     +1                         #  B(1)TMP
002995: E6,1541  E6,1571               ERRORZ             EQUALS   ERRORY     +1                         #  B(1)TMP
002996:
002997:                                                                                                  #  RCS ZERO LOOP ENDS HERE
002998:                                                                                                  #        MORE RCS                        (69D)
002999: E6,1541  E6,1572               THETADX            EQUALS   ERRORZ     +1                         #  B(1)TMP MUST BE CONSECUTIVE WITH ERRORZ
003000: E6,1541  E6,1573               THETADY            EQUALS   THETADX    +1                         #  B(1)TMP
003001: E6,1541  E6,1574               THETADZ            EQUALS   THETADY    +1                         #  B(1)TMP
003002:
003003: E6,1541  E6,1575               DELCDUX            EQUALS   THETADZ    +1                         #  B(2)TMP
003004: E6,1541  E6,1577               DELCDUY            EQUALS   DELCDUX    +2                         #  B(2)TMP
003005: E6,1541  E6,1601               DELCDUZ            EQUALS   DELCDUY    +2                         #  B(2)TMP
003006:
003007: E6,1541  E6,1603               DCDU               EQUALS   DELCDUZ    +2                         #  B(6)TMP USED DURING P20
003008: E6,1541  E6,1611               DTHETASM           EQUALS   DCDU       +6                         #  B(6)TMP STEER LOW OUTPUT.
003009:
003010: E6,1541  E6,1617               ATTKALMN           EQUALS   DTHETASM   +6                         #  B(1)TMP
003011: E6,1541  E6,1620               KMJ                EQUALS   ATTKALMN   +1                         #  B(1)TMP
003012: E6,1541  E6,1621               KMJ1               EQUALS   KMJ        +1                         #  B(1)TMP
003013: E6,1541  E6,1622               KMJ2               EQUALS   KMJ1       +1                         #  B(1)TMP
003014: E6,1541  E6,1623               J/M                EQUALS   KMJ2       +1                         #  B(1)TMP
003015: E6,1541  E6,1624               J/M1               EQUALS   J/M        +1                         #  B(1)TMP
003016: E6,1541  E6,1625               J/M2               EQUALS   J/M1       +1                         #  B(1)TMP
003017: E6,1541  E6,1626               RACFAIL            EQUALS   J/M2       +1                         #  B(1)TMP
003018: E6,1541  E6,1627               RBDFAIL            EQUALS   RACFAIL    +1                         #  B(1)TMP
003019: E6,1541  E6,1630               ACORBD             EQUALS   RBDFAIL    +1                         #  B(1)TMP
003020: E6,1541  E6,1631               XTRANS             EQUALS   ACORBD     +1                         #  B(1)TMP
003021: E6,1541  E6,1632               CH31TEMP           EQUALS   XTRANS     +1                         #  B(1)TMP
003022: E6,1541  E6,1633               CHANTEMP           EQUALS   CH31TEMP   +1                         #  B(1)TMP
003023: E6,1541  E6,1634               T5TIME             EQUALS   CHANTEMP   +1                         #  B(1)TMP
003024: E6,1541  E6,1635               RHO                EQUALS   T5TIME     +1                         #  B(1)TMP
003025: E6,1541  E6,1636               RHO1               EQUALS   RHO        +1                         #  B(1)TMP
003026: E6,1541  E6,1637               RHO2               EQUALS   RHO1       +1                         #  B(1)TMP
003027: E6,1541  E6,1640               AMGB1              EQUALS   RHO2       +1                         #  B(1)TMP
003028: E6,1541  E6,1641               AMGB4              EQUALS   AMGB1      +1                         #  B(1)TMP
003029: E6,1541  E6,1642               AMGB5              EQUALS   AMGB4      +1                         #  B(1)TMP
003030: E6,1541  E6,1643               AMGB7              EQUALS   AMGB5      +1                         #  B(1)TMP
003031: E6,1541  E6,1644               AMGB8              EQUALS   AMGB7      +1                         #  B(1)TMP
003032: E6,1541  E6,1645               CAPSI              EQUALS   AMGB8      +1                         #  B(1)TMP
003033: E6,1541  E6,1646               CDUXD              EQUALS   CAPSI      +1                         #  B(2)TMP
003034: E6,1541  E6,1650               CDUYD              EQUALS   CDUXD      +2                         #  B(2)TMP
003035: E6,1541  E6,1652               CDUZD              EQUALS   CDUYD      +2                         #  B(2)TMP
003036: E6,1541  E6,1654               SLOPE              EQUALS   CDUZD      +2                         #  B(1)TMP
003037: E6,1541  E6,1655               ADB                EQUALS   SLOPE      +1                         #  B(1)TMP
003038: E6,1541  E6,1656               RMANNDX            EQUALS   ADB        +1                         #  B(1)TMP
003039: E6,1541  E6,1657               PMANNDX            EQUALS   RMANNDX    +1                         #  B(1)TMP
003040: E6,1541  E6,1660               YMANNDX            EQUALS   PMANNDX    +1                         #  B(1)TMP MUST BE LAST VARIABLE IN RCS
003041:
003042:                                                                                                  #  ******** ENTRY DAP TEMPORARY VARIABLES.*********************************(69D)
003043:
003044:                                                                                                  #  ANGLE REGISTERS FOR ENTRY DAPS
003045: E6,1541  E6,1661               AOG                EQUALS   BCDU                                  #  1P
003046: E6,1541  E6,1662               AIG                EQUALS   AOG        +1                         #  1P
003047: E6,1541  E6,1663               AMG                EQUALS   AIG        +1                         #  1P
003048: E6,1541  E6,1664               ROLL/180           EQUALS   AMG        +1                         #  1P
003049: E6,1541  E6,1665               ALFA/180           EQUALS   ROLL/180   +1                         #  1P
003050: E6,1541  E6,1666               BETA/180           EQUALS   ALFA/180   +1                         #  1P
003051: E6,1541  E6,1667               AOG/PIP            EQUALS   BETA/180   +1                         #  1P
003052: E6,1541  E6,1670               AIG/PIP            EQUALS   AOG/PIP    +1                         #  1P
003053: E6,1541  E6,1671               AMG/PIP            EQUALS   AIG/PIP    +1                         #  1P
003054: E6,1541  E6,1672               ROLL/PIP           EQUALS   AMG/PIP    +1                         #  1P
003055: E6,1541  E6,1673               ALFA/PIP           EQUALS   ROLL/PIP   +1                         #  1P
003056: E6,1541  E6,1674               BETA/PIP           EQUALS   ALFA/PIP   +1                         #  1P
003057:
003058:                                                                                                  #  GYMBAL DIFFERENCES OVER INTERVAL TCDU = .1 SEC.
003059: E6,1541  E6,1675               -DELAOG            EQUALS   BETA/PIP   +1                         #  1P
003060: E6,1541  E6,1676               -DELAIG            EQUALS   -DELAOG    +1                         #  1P
003061: E6,1541  E6,1677               -DELAMG            EQUALS   -DELAIG    +1                         #  1P
003062:
003063:                                                                                                  #  ESTIMATED BODY RATES
003064: E6,1541  E6,1700               CMDAPMOD           EQUALS   -DELAMG    +1                         #  1P GOES BEFORE PREL FOR TM.
003065:
003066: E6,1541  E6,1701               PREL               EQUALS   CMDAPMOD   +1                         #  1P P TCDU/180         (ROLLDOT)
003067: E6,1541  E6,1702               QREL               EQUALS   PREL       +1                         #  1P Q TCDU/180         (PITCHDOT)
003068: E6,1541  E6,1703               RREL               EQUALS   QREL       +1                         #  1P R TCDU/180         (YAWDOT)
003069:
003070: E6,1541  E6,1704               BETADOT            EQUALS   RREL       +1                         #  1P MUST FOLLOW RREL. BETADOT TCDU/180
003071: E6,1541  E6,1705               PHIDOT             EQUALS   BETADOT    +1                         #  1P
003072:
003073:                                                                                                  #  OLD (UNAVERAGED) BODY RATE MEASURE
003074: E6,1541  E6,1706               OLDELP             EQUALS   PHIDOT     +1                         #  1P
003075: E6,1541  E6,1707               OLDELQ             EQUALS   OLDELP     +1                         #  1P
003076: E6,1541  E6,1710               OLDELR             EQUALS   OLDELQ     +1                         #  1P
003077:
003078: E6,1541  E6,1711               JETAG              EQUALS   OLDELR     +1                         #  1P
003079: E6,1541  E6,1712               TUSED              EQUALS   JETAG      +1                         #  1P ELAPSED TIME SINCE NOMINAL UPDATE.
003080:
003081:                                                                                                  #  FOLLOWING 3 SP WORDS IN DOWNLINK.  ROLLTM SENT EACH 1 SEC.
003082: E6,1541  E6,1713               PAXERR1            EQUALS   TUSED      +1                         #  1P INTEGRATED ROLL ERROR/360.
003083: E6,1541  E6,1714               ROLLTM             EQUALS   PAXERR1    +1                         #  1P ROLL/180 FOR TM.
003084: E6,1541  E6,1715               ROLLC              EQUALS   ROLLTM     +1                         #  2P ROLLCOM/360 FROM ENTRY (FOR TM)
003085:                                                                                                  #  >> KEEP ROLLC & ROLLHOLD ADJACENT FOR TP
003086: E6,1541  E6,1717               ROLLHOLD           EQUALS   ROLLC      +2                         #  1P FOR ATTITUDE HOLD IN CMDAPMOD = +1
003087:
003088:                                                                                                  #  ENTRY DAP QUANTITIES THAT SHARE WITH RCS DAP.
003089: E6,1541  E6,1603               ALFACOM            EQUALS   DCDU                                  #  1P KEEP ADJACENT TO BETACOM. <<
003090: E6,1541  E6,1604               BETACOM            EQUALS   ALFACOM    +1                         #  1P
003091:
003092:                                                                                                  #  JET LIST:  DT, JETBITS IN THIS ORDER.
003093: E6,1541  E6,1605               TOFF               EQUALS   BETACOM    +1                         #  1P DP PAIR
003094: E6,1541  E6,1606               TBITS              EQUALS   TOFF       +1                         #  1P
003095: E6,1541  E6,1607               TON2               EQUALS   TBITS      +1                         #  1P DP PAIR
003096: E6,1541  E6,1610               T2BITS             EQUALS   TON2       +1                         #  1P
003097:
003098:                                                                                                  #  MISCELLANEOUS PERMANENT ERASEABLE.
003099: E6,1541  E6,1611               OUTTAG             EQUALS   T2BITS     +1                         #  1P
003100: E6,1541  E6,1612               NUJET              EQUALS   OUTTAG     +1                         #  1P
003101:
003102:                                                                                                  #  MORE ENTRY DAP QUANTITIES THAT DO NOT SHARE WITH RCS DAP.
003103: E6,1541  E6,1720               JETEM              EQUALS   ROLLHOLD   +1                         #  2P THIS DP USED IN RATEAVG.
003104: E6,1541  E6,1722               GAMA               EQUALS   JETEM      +2                         #  1P
003105: E6,1541  E6,1723               GAMDOT             EQUALS   GAMA       +1                         #  1P
003106: E6,1541  E6,1724               POSEXIT            EQUALS   GAMDOT     +1                         #  1P
003107: E6,1541  E6,1725               CM/GYMDT           EQUALS   POSEXIT    +1                         #  1P
003108: E6,1541  E6,1726               HEADSUP            EQUALS   CM/GYMDT   +1                         #  1P DSP NOUN 61 FOR P62,63,64,67.
003109: E6,1541  E6,1727               P63FLAG            EQUALS   HEADSUP    +1                         #  1P INTERLOCK FOR WAKEP62
003110:
003111:                                                                                                  # >> SHARE BELOW WITH RCS RUPT TEMPS (< 15D) <<<
003112: E6,1541  E6,1506               CALFA              EQUALS   SPNDX                                 #  1P
003113: E6,1541  E6,1507               SALFA              EQUALS   CALFA      +1                         #  1P
003114:
003115: E6,1541  E6,1510               SINM               EQUALS   SALFA      +1                         #  1P
003116: E6,1541  E6,1511               COSM               EQUALS   SINM       +1                         #  1P
003117: E6,1541  E6,1512               SINO               EQUALS   COSM       +1                         #  1P
003118: E6,1541  E6,1513               COSO               EQUALS   SINO       +1                         #  1P
003119: E6,1541  E6,1514               SINOCOSM           EQUALS   COSO       +1                         #  1P
003120: E6,1541  E6,1515               COSOCOSM           EQUALS   SINOCOSM   +1                         #  1P
003121:                                                                                                  # >> SHARE ABOVE WITH RCS RUPT TEMPS <<<
003122:
003123:                                                                                                  #  THE FOLLOWING FEW REGISTERS USED ONCE EACH 2 SEC.
003124: E6,1541  E6,1613               -VT/180            EQUALS   NUJET      +1                         #  1P
003125: E6,1541  E6,1614               LCX/360            EQUALS   -VT/180    +1                         #  1P
003126: E6,1541  E6,1615               XD/360             EQUALS   LCX/360    +1                         #  1P
003127: E6,1541  E6,1616               VSQ/4API           EQUALS   XD/360     +1                         #  1P
003128: E6,1541  E6,1617               JNDX               EQUALS   VSQ/4API   +1                         #  1P
003129: E6,1541  E6,1620               JNDX1              EQUALS   JNDX       +1                         #  1P
003130: E6,1541  E6,1621               TON1               EQUALS   JNDX1      +1                         #  1P DP PAIR
003131: E6,1541  E6,1622               T1BITS             EQUALS   TON1       +1                         #  1P
003132:
003133:                                                                                                  #  MISCELLANEOUS REGISTERS USED EACH UPDATE.
003134: E6,1541  E6,1623               CM/SAVE            EQUALS   T1BITS     +1                         #  1P
003135: E6,1541  E6,1624               JETEM2             EQUALS   CM/SAVE    +1                         #  1P TEMPORARY STORAGE
003136:
003137:                                                                                                  #  DAP QUANTITIES SHARED WITH RCS DAP FOR TM & FLIGHT RECORDER.
003138: E6,1541  E6,1567               VDT/180            =        ERRORX                                #  1P (EDIT)
003139: E6,1541  E6,1570               -VT/180E           =        ERRORY                                #  1P (EDIT)
003140:
003141: E6,1541  E6,1476               PAXERR             EQUALS   AK                                    #  1P ROLL ERROR FOR NEEDLES
003142: E6,1541  E6,1572               QAXERR             =        THETADX                               #  1P SINCE AK1 IS ZEROED IN ATM DAP.
003143: E6,1541  E6,1573               RAXERR             =        QAXERR     +1                         #  1P SINCE AK2 IS ZEROED IN TM DAP.
003144:
003145:                                                                                                  #  **** COLMANU (R60,R62) ****
003146: E6,1541  E6,1710               VECQTEMP           EQUALS   COFSKEW
003147:
003148:                                                                                                  #  ******** KALCMANU VARIABLES. (71D) *************************************
003149: E6,1541  E6,1661               BCDU               EQUALS   YMANNDX    +1                         #  B(3)TMP
003150: E6,1541  E6,1664               KSPNDX             EQUALS   BCDU       +3                         #  B(1)TMP
003151: E6,1541  E6,1665               KDPNDX             EQUALS   KSPNDX     +1                         #  B(1)TMP
003152:
003153: E6,1541  E6,1666               TMIS               EQUALS   KDPNDX     +1                         #  I(18) MUST BE IN SAME BANK AS RCS DAP
003154: E6,1541  E6,1710               COFSKEW            EQUALS   TMIS       +18D                       #  I(6)  MUST BE IN SAME BANK AS RCS DAP
003155: E6,1541  E6,1716               CAM                EQUALS   COFSKEW    +6                         #  I(2)  MUST BE IN SAME BANK AS RCS DAP
003156:
003157: E6,1541  E6,1720               MIS                EQUALS   CAM        +2                         #  I(18) (THE REST MAY GO ANYWHERE)
003158: E6,1541  E6,1742               COF                EQUALS   MIS        +18D                       #  I(6)TMP
003159: E6,1541  E6,1750               SCAXIS             EQUALS   COF        +6                         #  I(6)TMP
003160: E6,1541  E6,1756               POINTVSM           EQUALS   SCAXIS     +6                         #  I(6)TMP
003161: E6,1541  E6,1764               AM                 EQUALS   POINTVSM   +6                         #  I(2)TMP
003162: E6,1541  E6,1766               RAD                EQUALS   AM         +2                         #  I(2)TMP
003163:
003164:                                                                                                  #  FIRST-ORDER OVERLAYS IN KALCMANU
003165: E6,1541  E6,1666               KV1                EQUALS   TMIS                                  #  I(6)TMP
003166: E6,1541  E6,1666               MFISYM             EQUALS   TMIS                                  #  I   TMP
003167: E6,1541  E6,1666               TMFI               EQUALS   TMIS                                  #  I   TMP
003168: E6,1541  E6,1666               NCDU               EQUALS   TMIS                                  #  B   TMP
003169: E6,1541  E6,1671               NEXTIME            EQUALS   TMIS       +3                         #  B   TMP
003170: E6,1541  E6,1672               TTEMP              EQUALS   TMIS       +4                         #  B   TMP
003171: E6,1541  E6,1674               KV2                EQUALS   TMIS       +6                         #  I(6)TMP
003172: E6,1541  E6,1674               BIASTEMP           EQUALS   TMIS       +6                         #  B   TMP
003173: E6,1541  E6,1702               KV3                EQUALS   TMIS       +12D                       #  I(6)TMP
003174: E6,1541  E6,1702               OGF                EQUALS   TMIS       +12D                       #  I   TMP
003175:
003176: E6,1541  E6,1710               BRATE              EQUALS   COFSKEW                               #  B   TMP
003177: E6,1541  E6,1716               TM                 EQUALS   CAM                                   #  B   TMP
003178:
003179:                                                                                                  #  SECOND-ORDER OVERLAYS IN KALCMANU
003180: E6,1541  E6,1666               P21                EQUALS   KV1                                   #  I(2)TMP
003181: E6,1541  E6,1670               D21                EQUALS   KV1        +2                         #  I(2)TMP
003182: E6,1541  E6,1672               G21                EQUALS   KV1        +4                         #  I(2)TMP
003183:
003184:                                                                                                  #  SATURN BOOST STORAGE.  SAVE TILL RCS DAP OPERATION.   (17D)
003185: E6,1541  E6,1661               POLYNUM            EQUALS   BCDU                                  #  B(15) PAD LOADED
003186: E6,1541  E6,1673               POLYLOC            =        POLYNUM    +10D
003187: E6,1541  E6,1700               SATRLRT            EQUALS   POLYNUM    +15D                       #  B(2)  PAD LOADED
003188:
003189:                                                                                                  #  MORE P11 STORAGE -PAD LOADED-         (2D)
003190:                                                                                                  #  (NOTE:  THIS PAD LOAD WILL NOT BE PRESERVED THROUGHOUT THE MISSION AS IT SHARES STORAGE WITH KALCMANU,
003191:                                                                                                  #  ENTRY DAP AND TVC DAP)
003192: E6,1541  E6,1702               RPSTART            EQUALS   SATRLRT    +2                         #  B(1) PITCH ROLL START TIME
003193: E6,1541  E6,1703               POLYSTOP           EQUALS   RPSTART    +1                         #  B(1) POLYCUT OFF MINUS RPSTART SEC
003194:
003195:                                                                                                  #  STORAGE FOR VHHDOT AND ATTDSP
003196: E6,1541  E6,1704               BODY3              EQUALS   POLYSTOP   +1                         #  B(1)OUT
003197: E6,1541  E6,1705               BODY2              EQUALS   BODY3      +1                         #  B(1)OUT
003198: E6,1541  E6,1706               BODY1              EQUALS   BODY2      +1                         #  B(1)OUT
003199: E6,1541  E6,1707               SPOLYARG           EQUALS   BODY1      +1                         #  B(1)TMP   ARGUEMENT FOR POLLY
003200:
003201: E6,1541  E6,1503               OLDBODY1           =        EDRIVEX                               #  1 PULSE = 0.0432 DEGREES
003202: E6,1541  E6,1504               OLDBODY2           =        EDRIVEY
003203: E6,1541  E6,1505               OLDBODY3           =        EDRIVEZ
003204:
003205:                                                                                                  #  STORAGE FOR S11.1
003206: E6,1541  E6,1710               VDISP              EQUALS   SPOLYARG   +1                         #  I(2)OUT       2(7) M/CS
003207: E6,1541  E6,1712               HDISP              EQUALS   VDISP      +2                         #  I(2)OUT       2(29) M
003208: E6,1541  E6,1714               HDOTDISP           EQUALS   HDISP      +2                         #  I(2)OUT       2(7) M/CS
003209: E6,1541  E6,1716               BOOSTEMP           EQUALS   HDOTDISP   +2                         #  B(3)TEMP
003210:
003211:                                                                                                  #  P11 SATURN I/F                        (9D)
003212: E6,1541  E6,1721               SATRATE            EQUALS   BOOSTEMP   +3                         #  B(4)PL MANEUVER RATES FOR SATURN STICK
003213: E6,1541  E6,1725               SATSW              EQUALS   SATRATE    +4                         #  B(1)TEM STATUS SW FOR BOOST TAKEOVER
003214: E6,1541  E6,1726               BIASAK             EQUALS   SATSW      +1                         #  B(3)TEM STORE AKBIAS FOR BOOST TAKEOVER
003215: E6,1541  E6,1731               SATSCALE           EQUALS   BIASAK     +3                         #  B(1) SCALE FACTOR FOR SATURN STEERING
003216:
003217:                                                                                                  #  V79 STORAGE.                          (3D)
003218: E6,1541  E6,1732               RATEPTC            EQUALS   SATSCALE   +1                         #  B(1)
003219: E6,1541  E6,1733               DBPTC              EQUALS   RATEPTC    +1                         #  B(1)
003220: E6,1541  E6,1734               OPTPTC             EQUALS   DBPTC      +1                         #  B(1)
003221:
003222:                                                                                                  #  P21 STORAGE.                          (1D)
003223: E6,1541  E6,1770               GENRET             EQUALS   RAD        +2                         #  B(1)TMP
003224:
003225:                                                                                                  #  R61CSM STORAGE.                       (1D)
003226: E6,1541  E6,1771               SAVBNK             EQUALS   GENRET     +1                         #  B(1) S-S SAVE EBANK FOR R61 SUBROUTINE
003227:
003228:                                                                                                  #  CRS61.1 STORAGE FOR AUTOPILOT BANK.   (3D)
003229: E6,1541  E6,1772               SAVEDCDU           EQUALS   SAVBNK     +1                         #  B(3)TMP
003230:
003231:                                                                                                  #  R61 STORAGE.                          (1D)
003232: E6,1541  E6,1775               R61CNTR            EQUALS   SAVEDCDU   +3                         #   (1)TMP
003233:
003234:                                                                                                  #  ENTRY RESTART PROTECTION STORAGE.  -KEEP TEMPS IN ORDER-      (12D)
003235: E6,1541  E6,1770               TEMPROLL           EQUALS   GENRET                                #  B(1)TMP COPY CYCLE REGISTER
003236: E6,1541  E6,1771               TEMPALFA           EQUALS   TEMPROLL   +1                         #  B(1)TMP COPY CYCLE REGISTER
003237: E6,1541  E6,1772               TEMPBETA           EQUALS   TEMPALFA   +1                         #  B(1)TMP COPY CYCLE REGISTER
003238: E6,1541  E6,1773               60GENRET           EQUALS   TEMPBETA   +1                         #  B(1)TMP QSAVE FOR S61.1 AND ENTRY.
003239: E6,1541  E6,1774               S61DT              EQUALS   60GENRET   +1                         #  B(1)TMP VARIABLE DT FOR S61.1 RESTART.
003240:
003241:                                                                                                  #  ENTRY TM SHARING FOR ACCELERATION PROFILE.
003242: E6,1541  E6,1533               XPIPBUF            EQUALS   ADOT                                  #  B(1) PIPA BUFFER FOR TM DURING ENTRY.
003243: E6,1541  E6,1534               YPIPBUF            EQUALS   XPIPBUF    +1                         #  B(1) PIPS FILED HERE EACH .5 SEC APPEAR
003244: E6,1541  E6,1535               ZPIPBUF            EQUALS   YPIPBUF    +1                         #  B(1) ON DOWNLIST ONCE PER SECOND DURING
003245: E6,1541  E6,1536               XOLDBUF            EQUALS   ZPIPBUF    +1                         #  B(1) ENTRY AFTER RCS DAP HAS BEEN DIS-
003246: E6,1541  E6,1537               YOLDBUF            EQUALS   XOLDBUF    +1                         #  B(1) ABLED.  NEWEST PIP VALUE REPLACES
003247: E6,1541  E6,1540               ZOLDBUF            EQUALS   YOLDBUF    +1                         #  B(1) PIPBUF, WHICH IS MOVED INTO OLDBUF.
003248:
003249:                                                                                                  #  REENTRY VARIABLES SHARED WITH RCS DAP FOR TM & FLIGHT RECORDER.
003250: E6,1541  E6,1574               Q7                 =        THETADZ                               #  I(2) HI-WORD ONLY ON DNLIST.
003251: E6,1541  E6,1525               ASPS(TM)           =        WBODY                                 #  I(6)DWN
003252:                                                                                                  #        ASKEP, ASP1, ASPUP, ASPDN, ASP3, ASP3+1
003253:
003254:                                                                                                  #  P37 PAD LOADS                         (1)
003255: E6,1541  E6,1776               P37RANGE           EQUALS   R61CNTR    +1                         #  I(1)PL        *****
003256:
003257: E6,1541  E6,1777               END-E6             =        P37RANGE   +1                         #  FIRST UNUSED ERASABLE LOCATION IN E6
003258:
003259:                                                                                                  #  EBANK-7 ASSIGNMENTS
003260:
003261: E7,1400                                           SETLOC   3400
003262:
003263:                                                                                                  #  *-*-*-*- OVERLAY 0 IN EBANK 7 -*-*-*-*
003264:
003265:                                                                                                  #  EXTERNAL DELTA-V UPDATE.              (21D)
003266:                                                                                                  #  (MUST BE IN ORDER FOR UPDATE PROGRAM.  ALSO ENTRY PROGRAMS PICK UP 'LAT(SPL)' WITH A VLOAD.)
003267:
003268: E7,1400                        LAT(SPL)           ERASE    +20D                                  #  I(2)DSP NOUN 61 FOR P62,63,64,67
003269: E7,1425  E7,1402               LNG(SPL)           EQUALS   LAT(SPL)   +2                         #  I(2)DSP NOUN 61 FOR P62,63,64,67.
003270:
003271: E7,1425  E7,1404               DELVSLV            EQUALS   LNG(SPL)   +2                         #  I(6)TMP DELTA VEL VECT, LOC VER COORDS
003272: E7,1425  E7,1412               TIG                EQUALS   DELVSLV    +6                         #  B(2)DSP NOUN 33 FOR X-V84(R32),P30,40.
003273: E7,1425  E7,1414               RTARG              EQUALS   TIG        +2                         #  I(6)IN DESIRED VEHICHE RADIUS VECTOR
003274: E7,1425  E7,1422               DELLT4             EQUALS   RTARG      +6                         #  I(2)IN TIME DIFFERENCE FOR INITVEL
003275: E7,1425  E7,1424               ECSTEER            EQUALS   DELLT4     +2                         #  I(1)PL FOR P40 S
003276: E7,1425  E7,1404               DELVLVC            =        DELVSLV
003277: E7,1425                        END-DELV           ERASE                                          #  *NEXT AVAIL LOC AFTER UNSHARED E7*
003278:
003279:                                                                                                  #  SERVICER STORAGE.                     (13D)
003280: E7,1426  E7,1425               DVTOTAL            EQUALS   END-DELV                              #  B(2)DSP NOUN 40,99 FOR P30,34,35,40
003281: E7,1426  E7,1427               TGO                EQUALS   DVTOTAL    +2                         #  B(2)
003282: E7,1426  E7,1431               DVCNTR             EQUALS   TGO        +2                         #  B(1)TMP
003283: E7,1426  E7,1432               DELVREF            EQUALS   DVCNTR     +1                         #  I(6)TMP
003284:
003285: E7,1426  E7,1447               NOMTIG             EQUALS   END-KALC                              #  I(2) (CANNOT SHARE WITH KALCMANU
003286:                                                                                                  #        OR DELVREF)
003287: E7,1426  E7,1451               END-SVCR           EQUALS   NOMTIG     +2                         #  ***NEXT AVAILABLE AFTER SERVICER
003288:
003289:                                                                                                  #  ALIGNMENT STORAGE.                    (25D)
003290: E7,1426  E7,1451               XSCD               EQUALS   END-SVCR                              #  I(6)TMP
003291: E7,1426  E7,1457               YSCD               EQUALS   XSCD       +6                         #  I(6)TMP
003292: E7,1426  E7,1465               ZSCD               EQUALS   YSCD       +6                         #  I(6)TMP
003293: E7,1426  E7,1473               VEL/C              EQUALS   ZSCD       +6                         #  I(6)TMP
003294: E7,1426  E7,1501               R53EXIT            EQUALS   VEL/C      +6                         #  I(1)TMP
003295:
003296:                                                                                                  #  ALIGNMENT MARKDATA (DOWNLNK) ******   (7D)
003297: E7,1426  E7,1502               MARK2DWN           EQUALS   R53EXIT    +1                         #   (7) USED BY ALLIGNMENT P50S
003298:
003299:                                                                                                  #  *-*-*-*- OVERLAY 1 IN EBANK 7 -*-*-*-*
003300:
003301:                                                                                                  #  REENTRY ERASABLES                     (206D)
003302: E7,1426  E7,1451               RTINIT             EQUALS   END-SVCR                              #  6P
003303: E7,1426  E7,1457               RTEAST             EQUALS   RTINIT     +6                         #  6P
003304: E7,1426  E7,1465               RTNORM             EQUALS   RTEAST     +6                         #  6P
003305: E7,1426  E7,1473               RT                 EQUALS   RTNORM     +6                         #  6P
003306: E7,1426  E7,1501               UNI                EQUALS   RT         +6                         #  6P
003307: E7,1426  E7,1507               UNITV              EQUALS   UNI        +6                         #  6P
003308: E7,1426  E7,1515               VEL                EQUALS   UNITV      +6                         #  6P
003309:
003310: E7,1426  E7,1523               TIME/RTO           EQUALS   VEL        +6                         #  2P TIME OF INITIAL TARGET, RTO.
003311: E7,1426  E7,1525               -VREL              EQUALS   TIME/RTO   +2                         #  6P
003312: E7,1426  E7,1533               OLDUYA             EQUALS   -VREL      +6                         #  6P USED BY CM/POSE    (ENTRY DAP)
003313: E7,1426  E7,1541               UXA/2              EQUALS   OLDUYA     +6                         #  6P USED BY CM/POSE    (ENTRY DAP) -UVA
003314: E7,1426  E7,1541               URH                =        UXA/2                                 #        P61 DISPLAY NOUN
003315: E7,1426  E7,1547               UYA/2              EQUALS   UXA/2      +6                         #  6P USED BY CM/POSE    (ENTRY DAP) UYA
003316: E7,1426  E7,1555               UZA/2              EQUALS   UYA/2      +6                         #  6P USED BY CM/POSE    (ENTRY DAP) UNA
003317: E7,1426  E7,1563               UBX/2              EQUALS   UZA/2      +6                         #  6P USED BY CM/POSE    (ENTRY DAP)
003318: E7,1426  E7,1571               UBY/2              EQUALS   UBX/2      +6                         #  6P USED BY CM/POSE    (ENTRY DAP)
003319: E7,1426  E7,1577               UBZ/2              EQUALS   UBY/2      +6                         #  6P USED BY CM/POSE    (ENTRY DAP)
003320:
003321: E7,1426  E7,1605               DTEAROT            EQUALS   UBZ/2      +6                         #  2P
003322: E7,1426  E7,1607               DIFF               EQUALS   DTEAROT    +2                         #  2P
003323: E7,1426  E7,1611               DIFFOLD            EQUALS   DIFF       +2                         #  2P
003324: E7,1426  E7,1613               FACTOR             EQUALS   DIFFOLD    +2                         #  2P
003325: E7,1426  E7,1615               FACT1              EQUALS   FACTOR     +2                         #  2P
003326: E7,1426  E7,1617               FACT2              EQUALS   FACT1      +2                         #  2P
003327:                                                                                                  # Q7             =       THETADZ         2P SHARED FOR TM.  P64-P66
003328: E7,1426  E7,1621               VSQUARE            EQUALS   FACT2      +2                         #  2P
003329: E7,1426  E7,1623               LAD                EQUALS   VSQUARE    +2                         #  2P
003330: E7,1426  E7,1625               LOD                EQUALS   LAD        +2                         #  2P
003331: E7,1426  E7,1627               L/DCMINR           EQUALS   LOD        +2                         #  2P
003332: E7,1426  E7,1631               KLAT               EQUALS   L/DCMINR   +2                         #  2P
003333: E7,1426  E7,1633               L/D                EQUALS   KLAT       +2                         #  2P
003334: E7,1426  E7,1635               L/D1               EQUALS   L/D        +2                         #  2P
003335: E7,1426  E7,1724               LEWD               =        VIO                                   #  2P SHARED FOR TM.  P64-P65
003336: E7,1426  E7,1637               D                  EQUALS   L/D1       +2                         #  2P DSP NOUN 64,66,68 FOR P63,64,67
003337:                                                                                                  # V1             =       ENDBUF  +1      2P SHARED FOR TM. P64-P65
003338: E7,1426  E7,1641               DLEWD              EQUALS   D          +2                         #  2P
003339: E7,1426  E7,1643               K2ROLL             EQUALS   DLEWD      +2                         #  2P
003340: E7,1426  E7,1645               GOTOADDR           EQUALS   K2ROLL     +2                         #  1P
003341: E7,1426  E7,1646               TEM1B              EQUALS   GOTOADDR   +1                         #  2P
003342: E7,1426  E7,1650               MM                 EQUALS   TEM1B      +2                         #  2P
003343: E7,1426  E7,1651               GRAD               EQUALS   MM         +1                         #  1P
003344: E7,1426  E7,1652               FX                 EQUALS   GRAD       +1                         #  1P OVERWRITES NEXT 5 LOCS IN P67.
003345: E7,1426  E7,1653               LEQ                EQUALS   FX         +1                         #  2P
003346: E7,1426  E7,1655               DHOOK              EQUALS   LEQ        +2                         #  2P
003347: E7,1426  E7,1657               AHOOKDV            EQUALS   DHOOK      +2                         #  2P
003348: E7,1426  E7,1661               DVL                EQUALS   AHOOKDV    +2                         #  2P
003349:                                                                                                  # A0             =       ENDBUF  +3      2P SHARED FOR TM. (HI-WD) P64-P65
003350: E7,1426  E7,1663               A1                 EQUALS   DVL        +2                         #  2P
003351: E7,1426  E7,1665               VBARS              EQUALS   A1         +2                         #  2P
003352: E7,1426  E7,1667               COSG/2             EQUALS   VBARS      +2                         #  2P
003353:                                                                                                  # GAMMAL         =       GAMMAEI         2P SHARED FOR TM  P66
003354: E7,1426                        GAMMAL1            =        22D                                   #  2P
003355: E7,1426  E7,1671               VS1                EQUALS   COSG/2     +2                         #  2P
003356: E7,1426  E7,1766               VL                 =        VPRED                                 #  2P SHARED FOR TM  P64-P65
003357: E7,1426  E7,1673               V                  EQUALS   VS1        +2                         #  2P
003358:                                                                                                  # VREF           =       THETAD  +2      2P SHARED FOR TM  P65
003359: E7,1426  E7,1675               LATANG             EQUALS   V          +2                         #  2P ADJACENT FOR TM.
003360: E7,1426  E7,1677               RDOT               EQUALS   LATANG     +2                         #  2P ADJACENT FOR TM.
003361: E7,1426  E7,1701               THETAH             EQUALS   RDOT       +2                         #  2P DSP NOUN 64,67 FOR P63,64,67
003362:                                                                                                  # RDOTREF        =       THETAD          2P SHARED FOR TM  P65
003363: E7,1426  E7,1703               ALP                EQUALS   THETAH     +2                         #  2P
003364:
003365: E7,1426  E7,1730               ASKEP              =        ASPS                                  #  2P)                THESE ARE STORED IN
003366: E7,1426  E7,1731               ASP1               =        ASPS       +1                         #  2P)                SEQUENCE, OVERLAPPING
003367: E7,1426  E7,1732               ASPUP              =        ASPS       +2                         #  2P)>HI-WD OF EACH< HI-WORD ONLY APPEARS
003368: E7,1426  E7,1733               ASPDWN             =        ASPS       +3                         #  2P)                ON DOWNLIST, EXCEPT
003369: E7,1426  E7,1734               ASP3               =        ASPS       +4                         #  2P)                ASP3 IS COMPLETE.
003370:
003371: E7,1426  E7,1705               C/D0               EQUALS   ALP        +2                         #  2P    -1/D0
003372: E7,1426  E7,1707               D0                 EQUALS   C/D0       +2                         #  I(2)  CONSTANT DRAG
003373: E7,1426  E7,1711               Q2                 EQUALS   D0         +2                         #  2P
003374:
003375:                                                                                                  #  ROLLC IS LOCATED IN EBANK= AOG TO AID ENTRY DAP.
003376: E7,1426  E7,1713               RTGO               EQUALS   Q2         +2                         #  2P DSP NOUN 66 FOR P64,P67.
003377: E7,1426  E7,1715               DNRNGERR           EQUALS   RTGO       +2                         #  2P DSP NOUN 66 FOR P64,67.
003378: E7,1426  E7,1675               XRNGERR            =        LATANG                                #        FOR DISKY DISPLAY
003379: E7,1426  E7,1717               KAT                EQUALS   DNRNGERR   +2                         #  2P
003380: E7,1426  E7,1721               GMAX               EQUALS   KAT        +2                         #  1P DSP NOUN 60 FOR P61,62,63.
003381:                                                                                                  #  GMAX IS LOADED IN DOUBLE PRECISION
003382: E7,1426  E7,1726               L/DCALC            =        TTE                                   #  2P CALCULATED L/D FOR TM: P64-P67.
003383: E7,1426  E7,1770               GAMMAL             =        GAMMAEI                               #  2P SHARED FOR TM  P64
003384: E7,1426  E7,1770               PREDANG            =        GAMMAEI                               #        FOR TM IN P67.
003385: E7,1426  E7,1771               JJ                 =        PREDANG    +1                         #        FOR TM IN P67.
003386: E7,1426  E7,1722               VMAGI              EQUALS   GMAX       +1                         #  2P DSP NOUN 62,64,68 FOR P11,63,64.
003387: E7,1426  E7,1724               VIO                EQUALS   VMAGI      +2                         #  2P DSP NOUN 63 FOR P61.
003388: E7,1426  E7,1726               TTE                EQUALS   VIO        +2                         #  2P DSP NOUN 63 FOR P61.
003389: E7,1426  E7,1730               ASPS               EQUALS   TTE        +2                         #  I(2) HI-WORD ONLY ON DNLIST FOR TEMP
003390: E7,1426  E7,1732               TTE1               EQUALS   ASPS       +2                         #  I(2ETMP HOLDS UNDECREMENTED TTE VALUE
003391: E7,1426  E7,1734               TTE2               EQUALS   TTE1       +2                         #  I(2) HOLDS COMPENSATED TTE VALUE DURING
003392:                                                                                                  #       P61 THRU P63 FOR  N63 DISPLAY
003393:
003394:                                                                                                  #  **** P6OS ****
003395: E7,1426  E7,1713               RTGON64            EQUALS   RTGO                                  #  RANGE ERRORS NEGATIVE IF FALLS SHORT
003396: E7,1426  E7,1713               RTGON67            EQUALS   RTGO                                  #  DSP NOUN 67
003397:
003398:                                                                                                  #  REENTRY, RETURN TO EARTH COMMON DISPLAY.      (4D)
003399: E7,1426  E7,1766               VPRED              EQUALS   BETA12     +2                         #  DSP NOUN 60 FOR P61,   ,62,63.
003400: E7,1426  E7,1770               GAMMAEI            EQUALS   VPRED      +2                         #  DSP NOUN 60 FOR P61,   ,62,63.
003401:
003402:                                                                                                  #  DISPLAY REGISTER FOR VG               (2D)
003403: E7,1426  E7,1772               VGDISP             EQUALS   GAMMAEI    +2                         #  B(2)DSP N.40,42,99 FOR P30,34,35,37,40,
003404:                                                                                                  #            41 VG DISPLAY
003405:
003406:                                                                                                  #  SOME P11 DISPLAY REGISTERS.           (6D)
003407: E7,1426  E7,1736               ALTI               EQUALS   TTE2       +2                         #  2P DSP NOUN 62 FOR P11.
003408: E7,1426  E7,1740               HDOT               EQUALS   ALTI       +2                         #  2P DSP NOUN 62 FOR P11.
003409:
003410:                                                                                                  #  *-*-*-*- OVERLAY 2 IN EBANK 7 -*-*-*-*
003411:
003412:                                                                                                  #  KALCMANU STORAGE.                             (18D)
003413: E7,1426  E7,1425               MFS                EQUALS   END-DELV                              #  I(18)
003414: E7,1426  E7,1425               MFI                EQUALS   MFS                                   #  I    TMP
003415: E7,1426  E7,1425               DEL                EQUALS   MFS                                   #  I    TMP
003416: E7,1426  E7,1447               END-KALC           EQUALS   MFS        +18D                       #  **NEXT AVAIL LOC AFTER KALCMANU**
003417:
003418:                                                                                                  #  MEASUREMENT INCORPORATION STORAGE (R22) STORAGE.      (56D)
003419:
003420: E7,1426  E7,1447               TX789              EQUALS   END-KALC                              #  I(6)TMP
003421: E7,1426  E7,1455               GAMMA              EQUALS   TX789      +6                         #  I(2)TMP
003422: E7,1426  E7,1457               OMEGA              EQUALS   GAMMA      +2                         #  I(18)TMP
003423: E7,1426  E7,1501               BVECTOR            EQUALS   OMEGA      +18D                       #  I(18)TMP
003424: E7,1426  E7,1523               DELTAQ             EQUALS   BVECTOR    +18D                       #  I(2)TMP
003425: E7,1426  E7,1525               VARIANCE           EQUALS   DELTAQ     +2                         #  I(3)TMP
003426: E7,1426  E7,1530               RCLP               EQUALS   VARIANCE   +3                         #  I(6)TMP
003427: E7,1426  E7,1536               GRP2SVQ            EQUALS   RCLP       +6                         #  I(1)TMP QSAVE FOR RESTARTS
003428:
003429:                                                                                                  #  P20, P22, P23 DSP NOUN                (5D)
003430: E7,1426  E7,1501               N49DISP            EQUALS   BVECTOR                               #  B(5)TMP
003431:
003432:                                                                                                  #  S22.1 STORAGE.                        (36D)
003433: E7,1426  E7,1537               SVMRKDAT           EQUALS   GRP2SVQ    +1                         #  I(36)TMP 5 SETS OF MARK DATA +PAD OF ONE
003434:
003435:                                                                                                  #  **** CISLUNAR NAV.  ERAS.  (P20S) ****        (45D)
003436: E7,1426  E7,1603               TRUNX              EQUALS   SVMRKDAT   +36D
003437: E7,1426  E7,1603               DATATEST           EQUALS   TRUNX                                 #   (1)
003438: E7,1426  E7,1604               UBAR0              EQUALS   TRUNX      +1
003439: E7,1426  E7,1612               UBAR1              EQUALS   UBAR0      +6
003440: E7,1426  E7,1620               UBAR2              EQUALS   UBAR1      +6
003441: E7,1426  E7,1626               RZC                EQUALS   UBAR2      +6
003442: E7,1426  E7,1634               VZC                EQUALS   RZC        +6
003443: E7,1426  E7,1642               UCLSTAR            EQUALS   VZC        +6
003444: E7,1426  E7,1650               USSTAR             EQUALS   UCLSTAR    +6
003445: E7,1426  E7,1656               SRRETURN           EQUALS   USSTAR     +6
003446:
003447:                                                                                                  #  *-*-*-*- OVERLAY 3 IN EBANK 7 -*-*-*-*
003448:
003449:                                                                                                  #  RENDEZVOUS GUIDANCE STORAGE. -P32...P35-      (8D)
003450: E7,1426  E7,1447               DELTEEO            EQUALS   END-KALC                              #  I(2) S-S BACK VALUES OF DELTA TIME
003451: E7,1426  E7,1451               DELEL              EQUALS   DELTEEO    +2                         #  I(2) S-S
003452: E7,1426  E7,1453               SECMAX             EQUALS   DELEL      +2                         #  I(2) S-S MAX STOP SIZE FOR ROUTINE
003453: E7,1426  E7,1455               XXXALT             EQUALS   SECMAX     +2                         #  I(2)
003454:
003455:                                                                                                  #  S40.9 STORAGE.                                (16D)
003456: E7,1426  E7,1457               VG                 EQUALS   XXXALT     +2                         #  I(6)TMP
003457: E7,1426  E7,1465               VRPREV             EQUALS   VG         +6                         #  I(6)
003458: E7,1426  E7,1473               TNIT               EQUALS   VRPREV     +6                         #  I(2)
003459: E7,1426  E7,1475               TNITPREV           EQUALS   TNIT       +2                         #  I(2)
003460:
003461:                                                                                                  #  S40.2,3 STORAGE.                      (1D)
003462: E7,1426  E7,1477               AXISCODE           EQUALS   TNITPREV   +2                         #  I(1)IN
003463:
003464:                                                                                                  #  P30'S-P17 COMMON STORAGE.             (24D)
003465: E7,1426  E7,1537               RACT3              EQUALS   GRP2SVQ    +1                         #  I(6)TMP POSITION OF ACTIVE AT TPI TIME.
003466: E7,1426  E7,1545               VACT3              EQUALS   RACT3      +6                         #  I(6)TMP VELOCITY OF ACTIVE AT TPI TIME.
003467: E7,1426  E7,1553               RPASS3             EQUALS   VACT3      +6                         #  I(6)TMP POSITION OF PASSIVE AT TPI TIME.
003468: E7,1426  E7,1561               VPASS3             EQUALS   RPASS3     +6                         #  I(6)TMP VELOCITY OF PASSIVE AT TPI TIME.
003469:
003470:                                                                                                  #  P76, N84 DISPLAY                      (6D)
003471: E7,1426  E7,1537               DELVOV             EQUALS   RACT3                                 #  I(6)DSP NOUN 84 FOR X-V84, P34-35
003472:
003473:                                                                                                  #  INITVEL/MIDGIM STORAGE.               (34D)
003474:                                                                                                  #        (CALLED BY S34.1,2, S35.1,2, AND S40.9)
003475:                                                                                                  #        (CALLS LAMBERT, CONIC SUBROUTINES)
003476: E7,1426  E7,1567               RINIT              EQUALS   VPASS3     +6                         #  I(6)IN ACTIVE VEHICLE RADIUS VECTOR
003477: E7,1426  E7,1575               VINIT              EQUALS   RINIT      +6                         #  I(6)IN ACTIVE VEHICLE VELOCITY VECTOR
003478: E7,1426  E7,1603               RTARG1             EQUALS   VINIT      +6                         #  I(6)TMP SHIFTED RTARG
003479: E7,1426  E7,1611               VIPRIME            EQUALS   RTARG1     +6                         #  I(6)OUT NEW VEL REQ AT INITIAL RADIUS
003480: E7,1426  E7,1617               VTPRIME            EQUALS   VIPRIME    +6                         #  I(6)OUT TOTAL VELOCITY AT DESIRED RADIUS
003481: E7,1426  E7,1625               +MGA               EQUALS   VTPRIME    +6                         #  I(2)DSP NOUN 45 FOR P30,34,35.  +MID GIM.
003482: E7,1426  E7,1627               COZY4              EQUALS   +MGA       +2                         #  I(2)TMP COSINE OF ANGLE WHEN ROT STARTS
003483:
003484:                                                                                                  #  (THE FOLLOWING OVERLAYS MEASUREMENT INCORP AND CANNOT SHARE WITH TPI
003485: E7,1426  E7,1502               INTIME             EQUALS   AXISCODE   +3
003486: E7,1426  E7,1504               ITCTR              EQUALS   INTIME     +2                         #  I(1)TMP ITERATION COUNTER
003487: E7,1426  E7,1631               END-IN/M           EQUALS   COZY4      +2                         #  ** NEXT AVAIL LOC AFTER INITVEL/MIDGIM **
003488:
003489:                                                                                                  #  P34 AND P33 STORAGE.  (OVERLAYS INITVEL/MIDGIM)       (24D)
003490: E7,1426  E7,1567               VAPREC             EQUALS   RINIT                                 #  I(6) S-S PREC VEC FOR NOM TPI TIME(ACT V
003491: E7,1426  E7,1575               RAPREC             EQUALS   VINIT                                 #  I(6) S-S PREC VEC FOR NOM TPI TIME(ACT V
003492: E7,1426  E7,1611               VPPREC             EQUALS   VIPRIME                               #  I(6) S-S PREC VEC FOR NOM TPI TIME(PASS
003493: E7,1426  E7,1617               RPPREC             EQUALS   VTPRIME                               #  I(6) S-S PREC VEC FOR NOM TPI TIME(PASS
003494:
003495:                                                                                                  #  P30, P40 INTERFACE.                   (20D)
003496: E7,1426  E7,1631               RTIG               EQUALS   END-IN/M                              #  I(6)TMP
003497: E7,1426  E7,1637               VTIG               EQUALS   RTIG       +6                         #  I(6)TMP
003498: E7,1426  E7,1645               DELVSIN            EQUALS   VTIG       +6                         #  I(6)TMP
003499: E7,1426  E7,1645               DELVEET3           EQUALS   DELVSIN                               #      TMP DELTA VEL VECT INERTIAL COORDS.
003500: E7,1426  E7,1645               VGTEMP             EQUALS   DELVEET3
003501: E7,1426  E7,1653               DELVSAB            EQUALS   DELVSIN    +6                         #  I(2)TMP
003502:
003503:                                                                                                  #  P35-P40 INTERFACE STORAGE.  (OVERLAYS P30-P40 I/F STORAGE)    (12D)
003504: E7,1426  E7,1631               RPASS4             EQUALS   RTIG                                  #  I(6)TMP POSITION OF PASSIVE AT INTERCEPT
003505: E7,1426  E7,1637               VPASS4             EQUALS   RPASS4     +6                         #  I(6)TMP VELOCITY OF PASSIVE AT INTERCEPT
003506:
003507:                                                                                                  #  TPI SEARCH (P17)                      (6D)
003508: E7,1426  E7,1645               E2                 EQUALS   VPASS4     +6                         #  I(6)TMP
003509:
003510:                                                                                                  #  P30-P40 COMMON STORAGE.               (3D)
003511: E7,1426  E7,1655               TPASS4             EQUALS   DELVSAB    +2                         #  I(2)TMP
003512: E7,1426  E7,1655               TINT               =        TPASS4                                #  I(2)
003513: E7,1426  E7,1657               QTEMP              EQUALS   TPASS4     +2                         #  I(1)TMP
003514:
003515:                                                                                                  #  P30-P40 STORAGE.                      (4D)
003516: E7,1426  E7,1660               TTOGO              EQUALS   QTEMP      +1                         #  B(2)DSP NOUN 35,40,45,59,99
003517:                                                                                                  #          FOR P30,34,35,40,41,47, R30.
003518: E7,1426  E7,1662               TTPI               EQUALS   TTOGO      +2                         #  B(2)DSP NOUN 37 FOR P34 TPI TIME, CSECS.
003519: E7,1426  E7,1664               END-P30S           EQUALS   TTPI       +2                         #  ** NEXT AVAIL LOC AFTER P30-40 STORAGE. **
003520:
003521:                                                                                                  #  P40 STORAGE.                          (8D)
003522: E7,1426  E7,1664               VGBODY             EQUALS   END-P30S                              #  B(6)DSP NOUN 85 FOR P40,41,42 VG-SC COOR
003523: E7,1426  E7,1664               DELVCTL            =        VGBODY
003524: E7,1426  E7,1672               P40TMP             EQUALS   VGBODY     +6                         #  B(2)TMP
003525:
003526:                                                                                                  #  P47 STORAGE.
003527: E7,1426  E7,1457               DV47TEMP           EQUALS   VG
003528: E7,1426  E7,1674               DELVIMU            EQUALS   P40TMP     +2                         #  I(6)DSP  NOUN 83 FOR P47 DELTAV(IMU)
003529:
003530:                                                                                                  #  S40.1 STORAGE.                        (23D)
003531: E7,1426  E7,1702               CSTEER             EQUALS   DELVIMU    +6                         #  I(2)IN
003532: E7,1426  E7,1704               BDT                EQUALS   CSTEER     +2                         #  I(6)IN
003533: E7,1426  E7,1712               UT                 EQUALS   BDT        +6                         #  I(6)OUT THRUST DIRECTION
003534: E7,1426  E7,1720               VGTIG              EQUALS   UT         +6                         #  I(6)OUT
003535: E7,1426  E7,1720               VGPREV             =        VGTIG
003536: E7,1426  E7,1726               F                  EQUALS   VGTIG      +6                         #  I(2)OUT S40.3 NEEDS THIS
003537:
003538: E7,1426  E7,1730               QTEMP1             EQUALS   F          +2                         #  I(1)TMP HOLDS RETURN
003539:
003540:                                                                                                  #  R41                                   (2D)
003541: E7,1426  E7,1731               T-TO-ADD           EQUALS   QTEMP1     +1                         #  I(1D) FOR MIDTOAVE
003542:
003543:                                                                                                  #  *-*-*-*- OVERLAY 4 IN EBANK 7 -*-*-*-*
003544:
003545:                                                                                                  #  S35.1 STORAGE.                        (2D)
003546: E7,1426  E7,1664               TSTRT              EQUALS   END-P30S                              #  I(2)IN MIDCOURSE START TIME
003547:
003548:                                                                                                  #  S34.1 STORAGE.  (OVERLAYS S35.1 STORAGE)      (1D)
003549: E7,1426  E7,1664               TITER              EQUALS   TSTRT                                 #  I(1)TMP ITERATION COUNTER
003550:
003551:                                                                                                  #  (P30-31 Q-SAVES)                      (1)
003552: E7,1426  E7,1664               P30/31RT           EQUALS   TITER                                 #  B(1) RETURN POINT
003553:
003554:                                                                                                  #  P22 STORAGE.                          (6D)
003555: E7,1426  E7,1666               S22WUNL            EQUALS   TSTRT      +2                         #  1     WUNL W8 UNKNOWN INIT VALUE
003556: E7,1426  E7,1667               S22TOFF            EQUALS   S22WUNL    +1                         #  2     T SUB OFF
003557:                                                                                                  #  *USED IN SUBROUTINE COMMON TO P22 & P23.
003558: E7,1426  E7,1671               S22TPRIM           EQUALS   S22TOFF    +2                         #  2     SAVE TF
003559: E7,1426  E7,1673               S22EORM            EQUALS   S22TPRIM   +2                         #  0 = EARTH -- NON-ZERO = MOON
003560:
003561:                                                                                                  #  DOWNLINK ERASABLES FOR P22, P20 MARK DATA.    (8D)
003562: E7,1426  E7,1674               MARKDOWN           EQUALS   S22EORM    +1                         #  B(1)
003563: E7,1426  E7,1703               RM                 EQUALS   S22RTNEX                              #  DOWNLINK OF VHF RANGE
003564:
003565:                                                                                                  #  S22.1                                 (1D)
003566: E7,1426  E7,1703               S22RTNEX           EQUALS   MARKDOWN   +7                         #  B(1)
003567:
003568:                                                                                                  #  P22 STORAGE                           (6D)
003569: E7,1426  E7,1704               STARSAV3           EQUALS   S22RTNEX   +1                         #  I(6)TMP
003570:
003571:                                                                                                  #  CRS61.1 STORAGE.  -A SUBSET OF P20-   (14D)
003572: E7,1426  E7,1704               Q611               EQUALS   RM         +1                         #  I(1)TMP QSAVE
003573: E7,1426  E7,1705               Q6111              EQUALS   Q611       +1                         #  I(1)TMP QSAVE
003574: E7,1426  E7,1706               SAVEPOS            EQUALS   Q6111      +1                         #  I(6)TMP LEM POSITION VECTOR-
003575: E7,1426  E7,1714               SAVEVEL            EQUALS   SAVEPOS    +6                         #  I(6)TMP LEM VELOCITY VECTOR-
003576:
003577:                                                                                                  #  ATTITUDE MANEUVER -CALLED BY P20,R61,R63,CRS61.1      (3D)
003578: E7,1426  E7,1722               PRAXIS             EQUALS   SAVEVEL    +6                         #  B(3) S-S DISP RES FOR PREF AXIS N95
003579:
003580:                                                                                                  #  MARK ROUTINE (R21) STORAGE.  -IS SUBSET OF R22-       (14D)
003581: E7,1426  E7,1725               MRKBUF1            EQUALS   PRAXIS     +3                         #  B(7)TMP R21 MARK BUFFER
003582: E7,1426  E7,1734               MRKBUF2            EQUALS   MRKBUF1    +7                         #  B(7)TMP R21 MARK BUFFER
003583:
003584:                                                                                                  #  MORE CONICS STORAGE.                  (4)
003585: E7,1426                        COGA               EQUALS   3774                                  #  I(2) COTAN OF INITIAL FLIGHT PATH ANGLE
003586: E7,1426  E7,1774               INDEP              EQUALS   COGA                                  #  I(1) USED BY SUBROUTINE :ITERATOR:
003587: E7,1426  E7,1776               EPSILONL           EQUALS   COGA       +2                         #  I(2)TMP
003588:
003589:                                                                                                  #  RENDEZVOUS GUIDANCE STORAGE.  - P32...P35 -   (10D)
003590: E7,1426  E7,1743               ELEV               EQUALS   MRKBUF2    +7                         #  I(2)TMP
003591: E7,1426  E7,1745               RTX1               EQUALS   ELEV       +2                         #   (1)
003592: E7,1426  E7,1746               RTX2               EQUALS   RTX1       +1                         #   (1)
003593: E7,1426  E7,1747               RTMU               EQUALS   RTX2       +1                         #   (2)
003594: E7,1426  E7,1751               RTSR1/MU           EQUALS   RTMU       +2                         #   (2)
003595: E7,1426  E7,1753               CENTANG            EQUALS   RTSR1/MU   +2                         #  I(2) S-S CENTRAL ANGLE COVERED (TPI-TPF)
003596:
003597:                                                                                                  #  TPI SEARCH (S17.1, S17.2) P17 STORAGE.(10D)
003598: E7,1426  E7,1743               DELTEE             EQUALS   MRKBUF2    +7                         #  I(2)
003599: E7,1426  E7,1745               XRS                EQUALS   DELTEE     +2                         #  I(2)
003600: E7,1426  E7,1747               THETL              EQUALS   XRS        +2                         #  I(2)
003601: E7,1426  E7,1751               TF                 EQUALS   THETL      +2                         #  I(2)
003602: E7,1426  E7,1753               DELHITE            EQUALS   TF         +2                         #   (2)
003603:
003604:                                                                                                  #  *-*-*-*- OVERLAY 5 IN EBANK 7 -*-*-*-*
003605:
003606:                                                                                                  #  P17,P34                               (2D)
003607: E7,1426  E7,1765               NN1                =        NN                                    #  I(2)DSP NOUN 55,R1
003608:
003609:                                                                                                  #  ************ THE FOLLOWING ARE FOR FLIGHT 504 ONLY ********************
003610:
003611:                                                                                                  #  RETURN-TO-EARTH STORAGE.              (93D)
003612: E7,1426  E7,1631               RTEDVD             EQUALS   END-IN/M                              #  I(2)IN DELTA VELOCITY DESIRED         M/CS B7
003613: E7,1426  E7,1633               RTEGAM2D           EQUALS   RTEDVD     +2                         #  I(2)IN REENTRY ANGLE DESIRED          REVS B0
003614: E7,1426  E7,1635               RCON               EQUALS   RTEGAM2D   +2                         #  I(2)TMP CONIC R2 RADIUS               M B29
003615: E7,1426  E7,1637               R(T1)/             EQUALS   RCON       +2                         #  I(6)TMP POSITION VECTOR AT TIG        M B29/B27
003616: E7,1426  E7,1645               R(T1)              EQUALS   R(T1)/     +6                         #  I(2)TMP MAGNITUDE OF R(T1)/           M B29/B27
003617: E7,1426  E7,1647               DT21PR             EQUALS   R(T1)      +2                         #  I(2)TMP PREVOUS DT21                  CS B30
003618: E7,1426  E7,1651               MAMAX1             EQUALS   DT21PR     +2                         #  I(2)TMP MAJ AXIS LOW BOUND LMT        M B30
003619: E7,1426  E7,1653               MAMAX2             EQUALS   MAMAX1     +2                         #  I(2)TMP MAJ AXIS UP BOUND LMT         M B30
003620: E7,1426  E7,1655               R(T2)/             EQUALS   MAMAX2     +2                         #  I(6)TMP FINAL POSITION VECTOR         M B29/B27
003621: E7,1426  E7,1663               RD                 EQUALS   R(T2)/     +6                         #  I(2)TMP FINAL R DESIRED               M B29/B27
003622: E7,1426  E7,1665               DRCON              EQUALS   RD         +2                         #  I(2)TMP RCON SLOPE ITERATOR           M B29/B27
003623: E7,1426  E7,1667               RPRE'              EQUALS   DRCON      +2                         #  I(2)TMP PREVISOUS RPRE                M B29/B27
003624: E7,1426  E7,1671               V(T1)/             EQUALS   RPRE'      +2                         #  I(6)TMP VEL VECTOR AT TIG             M/CS B7/B5
003625: E7,1426  E7,1677               V2(T1)/            EQUALS   V(T1)/     +6                         #  I(6)TMP POST IMP VEL AT TIG           M/CS B7/B5
003626: E7,1426  E7,1705               DV                 EQUALS   V2(T1)/    +6                         #  I(2)TMP DELTA VELOCITY AT TIG         M/CS B7/B5
003627: E7,1426  E7,1707               V(T2)/             EQUALS   DV         +2                         #  I(6)TMP FINAL VELOCITY VECTOR         M/CS B7/B5
003628: E7,1426  E7,1715               T1                 EQUALS   V(T2)/     +6                         #  I(2)TMP INITIAL VECTOR TIME           CS B28
003629: E7,1426  E7,1717               PCON               EQUALS   T1         +2                         #  I(2)TMP SEMI-LATUS RECTUM             M B29
003630: E7,1426  E7,1721               X(T1)              EQUALS   PCON       +2                         #  I(2)TMP COTANGENT GAMMA1              B5
003631: E7,1426  E7,1723               T12                EQUALS   X(T1)      +2                         #  I(2)TMP INIT TO FINL POSIT TIME       CS B28
003632: E7,1426  E7,1725               DELTAT             EQUALS   T12        +2                         #  I(2)TMP DELTA T IN SAFE PERILUNE      CS B28
003633: E7,1426  E7,1727               NN1A               EQUALS   DELTAT     +2                         #  I(2)TMP ITERATION COUNTER 1
003634: E7,1426  E7,1731               NN2                EQUALS   NN1A       +2                         #  I(2)TMP ITERATION COUNTER 2
003635: E7,1426  E7,1733               RTENCKEX           EQUALS   NN2        +2                         #  I(1)TMP RTENCK RETURN ADDRESS
003636: E7,1426  E7,1734               CONICX1            EQUALS   RTENCKEX   +1                         #  I(1)TMP CONICS MU TABLE INDEX
003637: E7,1426  E7,1735               T2                 EQUALS   CONICX1    +1                         #  I(2)TMP FINAL TIME                    CS B28
003638: E7,1426  E7,1737               UR1/               EQUALS   T2         +2                         #  I(6)TMP UNIT R(T1)/                   B1
003639: E7,1426  E7,1745               UV1/               EQUALS   UR1/       +6                         #  I(6)TMP UNIT V(T1)/                   B1
003640: E7,1426  E7,1753               BETA1              EQUALS   UV1/       +6                         #  I(2)TMP 1+X(T2)**2                    B1
003641: E7,1426  E7,1755               P(T1)              EQUALS   BETA1      +2                         #  I(1)TMP PRIMARY BODY STATE TIME 1     B14
003642: E7,1426  E7,1756               CFPA               EQUALS   P(T1)      +1                         #  I(2)TMP COSINE FLIGHT PATH ANGLE     B1
003643: E7,1426  E7,1760               PHI2               EQUALS   CFPA       +2                         #  I(2)TMP PERI OR APO INDICATOR         B2
003644: E7,1426  E7,1762               SPRTEX             EQUALS   PHI2       +2                         #  I(1)TMP ROUTINE RETURN ADDRESS
003645: E7,1426  E7,1763               VNSTORE            EQUALS   SPRTEX     +1                         #  I(1)TMP VERBNOUN STORAGE
003646: E7,1426  E7,1764               BETA12             EQUALS   VNSTORE    +1                         #  I(2)TMP SIGN FOR TIMERAD
003647:
003648:                                                                                                  #  OVERLAYS WITHIN RETURN-TO-EARTH STORAGE.
003649: E7,1426                        RPRE               EQUALS   24D                                   #  I(2)TMP COMPUTED PREC RADIUS          M B29/B27
003650: E7,1426                        P/RPRE             EQUALS   26D                                   #  I(2)TMP P/R                           B4
003651: E7,1426                        R/APRE             EQUALS   28D                                   #  I(2)TMP R/A                           B6
003652: E7,1426  E7,1723               X(T2)PRE           EQUALS   T12                                   #  I(2)TMP PREC COTAN GAMMA2             B0
003653: E7,1426  E7,1725               X(T2)              EQUALS   DELTAT                                #  I(2)TMP COTAN GAMMA2                  B0
003654: E7,1426  E7,1745               UH/                EQUALS   UV1/                                  #  I(2)TMP UNIT HORIZONTAL VECTOR.       B1
003655: E7,1426  E7,1412               SPRTETIG           EQUALS   TIG                                   #  I(2)IN TIME OF IGNITION               CS B28
003656:
003657:                                                                                                  #  *-*-*-*- OVERLAY 6 IN EBANK 7 -*-*-*-*
003658:                                                                                                  #  P32,P33
003659:
003660:                                                                                                  #  THE FOLLOWING OVERLAY MEAS. INCORP. AND ARE IN USE ONLY WHEN (32D)
003661: E7,1426  E7,1457               POSTCSI            EQUALS   VG                                    #  I(2)
003662: E7,1426  E7,1461               DELVCSI            EQUALS   POSTCSI    +2                         #  I(2)
003663: E7,1426  E7,1463               DELDV              EQUALS   DELVCSI    +2                         #  I(2)
003664: E7,1426  E7,1465               GAMPREV            EQUALS   DELDV      +2                         #  I(2)
003665: E7,1426  E7,1467               DVPREV             EQUALS   GAMPREV    +2                         #  I(2)
003666: E7,1426  E7,1471               POSTCDH            EQUALS   DVPREV     +2                         #  I(2)
003667: E7,1426  E7,1471               HAFPA1             EQUALS   POSTCDH
003668: E7,1426  E7,1473               VACT4              EQUALS   POSTCDH    +2                         #  I(6)
003669: E7,1426  E7,1501               RDOTV              EQUALS   VACT4      +6                         #  I(2)
003670: E7,1426  E7,1503               VACT1              EQUALS   RDOTV      +2                         #  I(6)
003671: E7,1426  E7,1511               VPASS1             EQUALS   VACT1      +6                         #  I(6) VEL. PASSIVE VEH, AT CSI TIME
003672:
003673: E7,1426  E7,1545               UNVEC              EQUALS   VACT3
003674:
003675: E7,1426  E7,1655               T2TOT3             EQUALS   TPASS4                                #  I(2) TPI - TCDH
003676:
003677: E7,1426  E7,1664               CSIALRM            EQUALS   TITER                                 #  I(2) ALARM INDEX
003678:
003679: E7,1426  E7,1666               DELVEET2           EQUALS   S22WUNL                               #  I(6) VACT3 - VACT2 = DVCDH REF. COORD.
003680:
003681:                                                                                                  #  ADDITIONAL CSI - CDH STORAGE.         (10D)
003682: E7,1426  E7,1755               RPASS1             EQUALS   CENTANG    +2                         #  I(6) POS. PASSIVE VEH. AT CSI TIME.
003683: E7,1426  E7,1763               LOOPCT             EQUALS   RPASS1     +6                         #  I(2) ITERATION COUNTER
003684: E7,1426  E7,1765               NN                 EQUALS   LOOPCT     +2                         #  I(2)
003685:
003686:                                                                                                  #  P21 STORAGE                           (19D)
003687: E7,1426  E7,1603               P21ORIG            EQUALS   TRUNX                                 #  I(1)
003688: E7,1426  E7,1604               P21BASER           EQUALS   P21ORIG    +1                         #  I(6)
003689: E7,1426  E7,1612               P21BASEV           EQUALS   P21BASER   +6                         #  I(6)
003690: E7,1426  E7,1620               P21ALT             EQUALS   P21BASEV   +6                         #  I(2) NOUN 73 R1 ALTITUDE
003691: E7,1426  E7,1622               P21VEL             EQUALS   P21ALT     +2                         #  I(2) NOUN 73 R2 VELOCITY
003692: E7,1426  E7,1624               P21GAM             EQUALS   P21VEL     +2                         #  I(2) NOUN 73 R3 FLIGHT PATH ANGLE
003693:
003694: E7,1426                        WHOCARES           EQUALS   3777                                  #  A DUMMY FOR E-BANK INSENSITIVE 2CADRS.
003695: E7,1426  E7,1777               END-E7             EQUALS   WHOCARES                              #  ****** LAST LOCATION IN E7

End of include-file ERASABLE_ASSIGNMENTS.agc.  Parent file is MAIN.agc


