
Source Code


000002:                                                                                                  ## Copyright:   Public domain.
000003:                                                                                                  ## Filename:    IMU_CALIBRATION_AND_ALIGNMENT.agc
000004:                                                                                                  ## Purpose:     A section of Comanche revision 072.
000005:                                                                                                  ##              It is part of the reconstructed source code for the first
000006:                                                                                                  ##              release of the software for the Command Module's (CM) Apollo
000007:                                                                                                  ##              Guidance Computer (AGC) for Apollo 13. No original listings
000008:                                                                                                  ##              of this program are available; instead, this file was recreated
000009:                                                                                                  ##              from a printout of Comanche 055, binary dumps of a set of
000010:                                                                                                  ##              Comanche 067 rope modules, and changelogs between Comanche 067
000011:                                                                                                  ##              and 072. It has been adapted such that the resulting bugger words
000012:                                                                                                  ##              exactly match those specified for Comanche 072 in NASA drawing
000013:                                                                                                  ##              2021153G, which gives relatively high confidence that the
000014:                                                                                                  ##              reconstruction is correct.
000015:                                                                                                  ## Assembler:   yaYUL
000016:                                                                                                  ## Contact:     Ron Burkey <info@sandroid.org>.
000017:                                                                                                  ## Website:     www.ibiblio.org/apollo/index.html
000018:                                                                                                  ## Mod history: 2024-05-13 MAS  Created from Comanche 067.
000019:
000020:                                                                                                  #  NAME-         IMU PERFORMANCE TESTS 2
000021:
000022:                                                                                                  #  DATE-         MARCH 20, 1967
000023:
000024:                                                                                                  #  BY-           SYSTEM TEST GROUP 864-6900 EXT. 1274
000025:
000026:                                                                                                  #  MODNO.-       ZERO
000027:
000028:                                                                                                  #  FUNCTIONAL DESCRIPTION
000029:
000030:                                                                                                  #  POSITIONING ROUTINES FOR THE IMU PERFORMANCE TESTS AS WELL AS SOME OF
000031:                                                                                                  #  THE TESTS THEMSELVES.  FOR A DESCRIPTION OF THESE SUBROUTINES AND THE
000032:                                                                                                  #  OPERATING PROCEDURES (TYPICALLY) SEE STG MEMO 685. THEORETICAL REF. E-1973
000033:
000034: 33,2004                                           BANK     33
000035: 33,2000                                           SETLOC   IMUCAL
000036: 33,2000                                           BANK
000037:
000038: 33,2004  E5,1423                                  EBANK=   POSITON
000039: 33,2004           35035        IMUTEST            CA       ZERO
000040: 33,2005           55452                           TS       DRIFTT
000041: 33,2006           55643                           TS       GEOCOMP1
000042: 33,2007           32443                           CAF      TESTTIME
000043: 33,2010           55412                           TS       LENGTHOT
000044: 33,2011           02302                           TC       COAALIGN                              #  TAKE CARE OF DRIFT FLAG
000045: 33,2012           35055                           CAF      1SECX
000046: 33,2013           55644                           TS       1SECXT1
000047:
000048: 33,2014           32441                           CA       OC14400
000049: 33,2015           55074                           TS       1/PIPADT
000050: 33,2016           06006        GUESS              TC       INTPRET                               #  CALCULATE -COS LATITUDE AND SIN LATITUDE
000051: 33,2017           77624                           CALL
000052: 33,2020           10613                                    LATAZCHK
000053: 33,2021           57546                           COS      DCOMP
000054: 33,2022           77752                           SL1
000055: 33,2023           16447                           STODL    WANGI
000056: 33,2024           02403                                    LATITUDE
000057: 33,2025           72556                           SIN      SL1
000058: 33,2026           02445                           STORE    WANGO
000059: 33,2027           77776                           EXIT
000060: 33,2030           04676        GEOIMUTT           TC       BANKCALL                              #  GYROCOMPASS COMES IN HERE
000061: 33,2031           16577                           CADR     IMUZERO
000062: 33,2032           02316                           TC       IMUSTLLG
000063: 33,2033           35035        IMUBACK            CA       ZERO
000064: 33,2034           55421                           TS       NDXCTR
000065: 33,2035           55450                           TS       TORQNDX
000066: 33,2036           55451                           TS       TORQNDX    +1
000067: 33,2037           34375        NBPOSPL            CA       DEC17
000068: 33,2040           55655                           TS       ZERONDX1
000069: 33,2041           32445                           CA       XNBADR
000070: 33,2042           02356                           TC       ZEROING
000071: 33,2043           35016                           CA       HALF
000072: 33,2044           55713                           TS       XNB
000073: 33,2045           06006                           TC       INTPRET
000074: 33,2046           73545                           DLOAD    SIN
000075: 33,2047           02401                                    AZIMUTH
000076: 33,2050           02724                           STORE    YNB        +2
000077: 33,2051           16734                           STODL    ZNB        +4
000078: 33,2052           02401                                    AZIMUTH
000079: 33,2053           77746                           COS
000080: 33,2054           02726                           STORE    YNB        +4
000081: 33,2055           77676                           DCOMP
000082: 33,2056           02732                           STORE    ZNB        +2
000083: 33,2057           77776                           EXIT
000084: 33,2060           05400                           TC       CHECKMM
000085: 33,2061           00003                           MM       03         B-14                       #  SEE IF IN OPTICAL VERIFICATION
000086: 33,2062           12064                           TCF      +2                                    #  NO
000087: 33,2063           13443                           TCF      SETNBPOS   +1                         #  YES
000088: 33,2064           06006                           TC       INTPRET
000089: 33,2065           77624                           CALL
000090: 33,2066           47313                                    CALCGA
000091: 33,2067           77776                           EXIT
000092: 33,2070           04676                           TC       BANKCALL
000093: 33,2071           16663                           CADR     IMUCOARS
000094: 33,2072           35016                           CAF      GLOKFBIT                              #  IF GLOKFAIL SET, GIMBAL LOCK
000095: 33,2073           70077                           MASK     FLAGWRD3
000096: 33,2074           00006                           EXTEND
000097: 33,2075           12077                           BZF      +2
000098: 33,2076           25421                           INCR     NDXCTR                                #  +1 IF IN GIMBAL LOCK, OTHERWISE 0
000099: 33,2077           05574                           TC       DOWNFLAG                              #  RESET GIMBAL LOCK FLAG
000100: 33,2100           00056                           ADRES    GLOKFAIL                              #  BIT 14 FLAG 3
000101: 33,2101           02316                           TC       IMUSTLLG
000102: 33,2102           11421                           CCS      NDXCTR                                #  IF ONE GO AND DO A PIPA TEST ONLY
000103: 33,2103           02131                           TC       PIPACHK                               #  ALIGN AND MEASURE VERTICAL PIPA RATE
000104: 33,2104           04676                           TC       BANKCALL
000105: 33,2105           17073                           CADR     IMUFINE
000106: 33,2106           02316                           TC       IMUSTLLG
000107: 33,2107           00006                           EXTEND
000108: 33,2110           31657                           DCA      PERFDLAY
000109: 33,2111           05356                           TC       LONGCALL
000110: 33,2112  E5,1423                                  EBANK=   POSITON
000111: 33,2112           02116 66065                     2CADR    GOESTIMS
000112:
000113: 33,2114           32121                           CA       ESTICADR
000114: 33,2115           05211                           TC       JOBSLEEP
000115: 33,2116           32121        GOESTIMS           CA       ESTICADR
000116: 33,2117           05215                           TC       JOBWAKE
000117: 33,2120           05340                           TC       TASKOVER
000118: 33,2121           66453        ESTICADR           CADR     ESTIMS
000119: 33,2122           35035        TORQUE             CA       ZERO
000120: 33,2123           55050                           TS       DSPTEM2
000121: 33,2124           31514                           CA       DRIFTI
000122: 33,2125           55051                           TS       DSPTEM2    +1
000123: 33,2126           51423                           INDEX    POSITON
000124: 33,2127           55430                           TS       SOUTHDR    -1
000125: 33,2130           02427                           TC       SHOW
000126:
000127: 33,2131           51421        PIPACHK            INDEX    NDXCTR                                #  PIPA TEST
000128: 33,2132           02133                           TC       +1
000129: 33,2133           02417                           TC       EARTHR*
000130: 33,2134           34374                           CA       DEC57
000131: 33,2135           55412                           TS       LENGTHOT
000132: 33,2136           35033                           CA       ONE
000133: 33,2137           55547                           TS       RESULTCT
000134: 33,2140           35035                           CA       ZERO
000135: 33,2141           51422                           INDEX    PIPINDEX
000136: 33,2142           54037                           TS       PIPAX
000137: 33,2143           55502                           TS       DATAPL
000138: 33,2144           55506                           TS       DATAPL     +4
000139: 33,2145           02321                           TC       CHECKG                                #  PIP PULSE CATCHING ROUTINE
000140: 33,2146           00004                           INHINT
000141: 33,2147           35032                           CAF      TWO
000142: 33,2150           05251                           TC       TWIDDLE
000143: 33,2151  E5,1671                                  EBANK=   XSM
000144: 33,2151           02153                           ADRES    PIPATASK
000145: 33,2152           05233                           TC       ENDOFJOB
000146: 33,2153           00006        PIPATASK           EXTEND
000147: 33,2154           27412                           DIM      LENGTHOT
000148: 33,2155           31412                           CA       LENGTHOT
000149: 33,2156           00006                           EXTEND
000150: 33,2157           62163                           BZMF     STARTPIP
000151: 33,2160           35022                           CAF      BIT10
000152: 33,2161           05251                           TC       TWIDDLE
000153: 33,2162  E5,1671                                  EBANK=   XSM
000154: 33,2162           02153                           ADRES    PIPATASK
000155: 33,2163           35016        STARTPIP           CAF      PRIO20
000156: 33,2164           05163                           TC       FINDVAC
000157: 33,2165  E5,1671                                  EBANK=   XSM
000158: 33,2165           02170 66065                     2CADR    PIPJOBB
000159:
000160: 33,2167           05340                           TC       TASKOVER
000161:
000162: 33,2170           51421        PIPJOBB            INDEX    NDXCTR
000163: 33,2171           02172                           TC       +1
000164: 33,2172           02417                           TC       EARTHR*
000165: 33,2173           31412                           CA       LENGTHOT
000166: 33,2174           00006                           EXTEND
000167: 33,2175           62177                           BZMF     +2
000168: 33,2176           05233                           TC       ENDOFJOB
000169: 33,2177           35036                           CA       FIVE
000170: 33,2200           55547                           TS       RESULTCT
000171: 33,2201           02321                           TC       CHECKG
000172: 33,2202           00006                           EXTEND
000173: 33,2203           41503                           DCS      DATAPL
000174: 33,2204           21507                           DAS      DATAPL     +4
000175:
000176: 33,2205           06006                           TC       INTPRET
000177: 33,2206           45345                           DLOAD    DSU
000178: 33,2207           02511                                    DATAPL     +6
000179: 33,2210           02505                                    DATAPL     +2
000180: 33,2211           45044                           BPL      CALL
000181: 33,2212           66214                                    AINGOTN
000182: 33,2213           66276                                    OVERFFIX
000183: 33,2214           56325        AINGOTN            PDDL     DDV
000184: 33,2215           02507                                    DATAPL     +4
000185: 33,2216           57212                           SL4      DMPR
000186: 33,2217           27110                                    DEC585                                #  DEC585 HAS BEEN REDEFINED FOR LEM
000187: 33,2220           77634                           RTB
000188: 33,2221           45544                                    SGNAGREE
000189: 33,2222           01051                           STORE    DSPTEM2
000190: 33,2223           77776                           EXIT
000191: 33,2224           11421                           CCS      NDXCTR
000192: 33,2225           02302                           TC       COAALIGN                              #  TAKE PLATFORM OUT OF GIMBAL LOCK
000193: 33,2226           02427                           TC       SHOW
000194: 33,2227           32447        VERTDRFT           CA       3990DEC                               #  ABOUT 1 HOUR VERTICAL DRIFT TEST
000195: 33,2230           55412                           TS       LENGTHOT
000196: 33,2231           51423                           INDEX    POSITON
000197: 33,2232           41427                           CS       SOUTHDR    -2
000198: 33,2233           55452                           TS       DRIFTT
000199: 33,2234           31675                           CA       XSM        +4                         #  0 IF POSN 4
000200: 33,2235           00006                           EXTEND
000201: 33,2236           12244                           BZF      PON2
000202: 33,2237           45027        PON4               CS       BIT5                                  #  OFFSET PLATFORM
000203: 33,2240           27651                           ADS      ERCOMP1    +2
000204: 33,2241           35027                           CA       BIT5
000205: 33,2242           27647                           ADS      ERCOMP1
000206: 33,2243           12250                           TCF      PONG
000207: 33,2244           45027        PON2               CS       BIT5
000208: 33,2245           27651                           ADS      ERCOMP1    +2
000209: 33,2246           35027                           CA       BIT5
000210: 33,2247           27653                           ADS      ERCOMP1    +4
000211: 33,2250           02417        PONG               TC       EARTHR*
000212: 33,2251           35035                           CA       ZERO                                  #  ALLOW ONLY SOUTH GYRO EARTH RATE COMPENS
000213: 33,2252           55404                           TS       ERVECTOR
000214: 33,2253           55405                           TS       ERVECTOR   +1
000215: 33,2254           35013        GUESS1             CAF      POSMAX
000216: 33,2255           55450                           TS       TORQNDX
000217: 33,2256           55451                           TS       TORQNDX    +1
000218: 33,2257           30032                           CA       CDUX
000219: 33,2260           55413                           TS       LOSVEC
000220: 33,2261           02453                           TC       ESTIMS
000221: 33,2262           31512        VALMIS             CA       DRIFTO
000222: 33,2263           55051                           TS       DSPTEM2    +1
000223: 33,2264           35035                           CA       ZERO
000224: 33,2265           55050                           TS       DSPTEM2
000225: 33,2266           02427                           TC       SHOW
000226:
000227: 33,2267           05574        ENDTEST1           TC       DOWNFLAG                              #  IMU NOT IN USE
000228: 33,2270           00007                           ADRES    IMUSE                                 #  BIT 8 FLAG 0
000229: 33,2271           45035                           CS       ZERO
000230: 33,2272           05373                           TC       NEWMODEX   +3
000231: 33,2273           04676                           TC       BANKCALL
000232: 33,2274           16063                           CADR     MKRELEAS
000233: 33,2275           05550                           TC       ENDEXT
000234:
000235: 33,2276           43215        OVERFFIX           DAD      DAD
000236: 33,2277           15342                                    DPPOSMAX
000237: 33,2300           27116                                    ONEDPP
000238: 33,2301           77616                           RVQ
000239:
000240: 33,2302           00006        COAALIGN           EXTEND                                         #  COARSE ALIGN SUBROUTINE
000241: 33,2303           23425                           QXCH     QPLACE
000242: 33,2304           35035                           CA       ZERO
000243: 33,2305           55155                           TS       THETAD
000244: 33,2306           55156                           TS       THETAD     +1
000245: 33,2307           55157                           TS       THETAD     +2
000246: 33,2310           04676                           TC       BANKCALL
000247: 33,2311           16663                           CADR     IMUCOARS
000248: 33,2312           04676                           TC       BANKCALL
000249: 33,2313           17577                           CADR     IMUSTALL
000250: 33,2314           03102                           TC       SOMERR2
000251: 33,2315           01425                           TC       QPLACE
000252:
000253: 33,2316           00006        IMUSTLLG           EXTEND
000254: 33,2317           23425                           QXCH     QPLACE
000255: 33,2320           02312                           TC       COAALIGN   +10
000256:
000257: 33,2321           00006        CHECKG             EXTEND                                         #  PIP PULSE CATCHING ROUTINE
000258: 33,2322           23425                           QXCH     QPLACE
000259: 33,2323           02331                           TC       +6
000260: 33,2324           00003        CHECKG1            RELINT
000261: 33,2325           30067                           CA       NEWJOB
000262: 33,2326           00006                           EXTEND
000263: 33,2327           62335                           BZMF     +6
000264: 33,2330           05200                           TC       CHANG1
000265: 33,2331           00004                           INHINT
000266: 33,2332           51422                           INDEX    PIPINDEX
000267: 33,2333           40037                           CS       PIPAX
000268: 33,2334           55655                           TS       ZERONDX
000269: 33,2335           00004                           INHINT
000270: 33,2336           51422                           INDEX    PIPINDEX
000271: 33,2337           30037                           CA       PIPAX
000272: 33,2340           61655                           AD       ZERONDX
000273: 33,2341           00006                           EXTEND
000274: 33,2342           12324                           BZF      CHECKG1
000275: 33,2343           51422                           INDEX    PIPINDEX
000276: 33,2344           30037                           CA       PIPAX
000277: 33,2345           51547                           INDEX    RESULTCT
000278: 33,2346           55502                           TS       DATAPL
000279: 33,2347           04553                           TC       FINETIME
000280: 33,2350           51547                           INDEX    RESULTCT
000281: 33,2351           55503                           TS       DATAPL     +1
000282: 33,2352           51547                           INDEX    RESULTCT
000283: 33,2353           23504                           LXCH     DATAPL     +2
000284: 33,2354           00003                           RELINT
000285: 33,2355           01425        ENDCHKG            TC       QPLACE
000286:
000287: 33,2356           54001        ZEROING            TS       L
000288: 33,2357           12361                           TCF      +2
000289: 33,2360           55655        ZEROING1           TS       ZERONDX1
000290: 33,2361           35035                           CAF      ZERO
000291: 33,2362           50001                           INDEX    L
000292: 33,2363           54000                           TS       0
000293: 33,2364           24001                           INCR     L
000294: 33,2365           11655                           CCS      ZERONDX1
000295: 33,2366           12360                           TCF      ZEROING1
000296: 33,2367           00002                           TC       Q
000297:
000298: 32,2000                                           SETLOC   IMUCAL3
000299: 32,2000                                           BANK
000300: 32,2000           65345        ERTHRVSE           DLOAD    PDDL
000301: 32,2001           27111                                    SCHZEROS                              #  PD24 = (SIN          -COS     0)(OMEG/MS)
000302: 32,2002           02403                                    LATITUDE
000303: 32,2003           57546                           COS      DCOMP
000304: 32,2004           73525                           PDDL     SIN
000305: 32,2005           02403                                    LATITUDE
000306: 32,2006           74266                           VDEF     VXSC
000307: 32,2007           26450                                    OMEG/MS
000308: 32,2010           02405                           STORE    ERVECTOR
000309: 32,2011           77634                           RTB
000310: 32,2012           45510                                    LOADTIME
000311: 32,2013           26443                           STOVL    TMARK
000312: 32,2014           27111                                    SCHZEROS
000313: 32,2015           02650                           STORE    ERCOMP1
000314: 32,2016           77616                           RVQ
000315: 33,2000                                           SETLOC   IMUCAL
000316: 33,2000                                           BANK
000317: 33,2370           47020        EARTHR             ITA      RTB                                   #  CALCULATES AND COMPENSATES EARTH RATE
000318: 33,2371           00051                                    S2
000319: 33,2372           45510                                    LOADTIME
000320: 33,2373           02441                           STORE    TEMPTIME
000321: 33,2374           51025                           DSU      BPL
000322: 33,2375           02443                                    TMARK
000323: 33,2376           66401                                    ERTHR
000324: 33,2377           77624                           CALL
000325: 33,2400           66276                                    OVERFFIX
000326: 33,2401           74261        ERTHR              SL       VXSC
000327: 33,2402           20212                                    9D
000328: 33,2403           02405                                    ERVECTOR
000329: 33,2404           53321                           MXV      VAD
000330: 33,2405           02672                                    XSM
000331: 33,2406           02650                                    ERCOMP1
000332: 33,2407           16650                           STODL    ERCOMP1
000333: 33,2410           02441                                    TEMPTIME
000334: 33,2411           02443                           STORE    TMARK
000335: 33,2412           47170                           AXT,1    RTB
000336: 33,2413           02647                           ECADR    ERCOMP1
000337: 33,2414           45653                                    PULSEIMU
000338: 33,2415           77650                           GOTO
000339: 33,2416           00051                                    S2
000340:
000341: 33,2417           00006        EARTHR*            EXTEND
000342: 33,2420           23426                           QXCH     QPLACES
000343: 33,2421           06006                           TC       INTPRET
000344: 33,2422           77624                           CALL
000345: 33,2423           66370                                    EARTHR
000346: 33,2424           77776        PROUT              EXIT
000347: 33,2425           02316                           TC       IMUSTLLG
000348: 33,2426           01426                           TC       QPLACES
000349:
000350: 33,2427           00006        SHOW               EXTEND
000351: 33,2430           23425                           QXCH     QPLACE
000352: 33,2431           31423        SHOW1              CA       POSITON
000353: 33,2432           55052                           TS       DSPTEM2    +2
000354: 33,2433           32442                           CA       VB06N98
000355: 33,2434           04676                           TC       BANKCALL
000356: 33,2435           20720                           CADR     GOFLASH
000357: 33,2436           02267                           TC       ENDTEST1                              #  V34
000358: 33,2437           01425                           TC       QPLACE                                #  V33
000359: 33,2440           12431                           TCF      SHOW1
000360:
000361: 33,2441           14400        OC14400            OCT      14400
000362: 33,2442  33,2447               3990DEC            =        OMEG/MS
000363: 33,2442           01542        VB06N98            VN       0698
000364: 33,2443           01602        TESTTIME           OCT      01602
000365: 33,2444     4375               DEC17              =        ND1
000366: 33,2444           02757        OGCPL              ECADR    OGC
000367: 33,2445     5055               1SECX              =        1SEC
000368: 33,2445     4374               DEC57              =        VD1
000369: 33,2445           01713        XNBADR             GENADR   XNB
000370: 33,2446           01671        XSMADR             GENADR   XSM
000371: 33,2447           07623 26552  OMEG/MS            2DEC     .24339048
000372:
000373: 33,2451           04676        P11OUT             TC       BANKCALL
000374: 33,2452           70117                           CADR     MATRXJOB                              #  RETURN TO P11
000375:
000376: 33,2453                                           COUNT    02/COMST
000377:
000378:    4553                                           BLOCK    2
000379:    4553           00004        FINETIME           INHINT                                         #  RETURNS WITH INTERRUPT INHIBITED
000380:    4554           00006                           EXTEND
000381:    4555           00004                           READ     LOSCALAR
000382:    4556           54001                           TS       L
000383:    4557           00006                           EXTEND
000384:    4560           06004                           RXOR     LOSCALAR
000385:    4561           00006                           EXTEND
000386:    4562           14566                           BZF      +4
000387:    4563           00006                           EXTEND
000388:    4564           00004                           READ     LOSCALAR
000389:    4565           54001                           TS       L
000390:    4566           45013                 +4        CS       POSMAX
000391:    4567           60001                           AD       L
000392:    4570           00006                           EXTEND
000393:    4571           14554                           BZF      FINETIME   +1
000394:    4572           00006                           EXTEND
000395:    4573           00003                           READ     HISCALAR
000396:    4574           00002                           TC       Q
000397:
000398:                                                                                                  #  PROGRAM NAME-OPTIMUM PRELAUNCH ALIGNMENT CALIBRATION
000399:                                                                                                  #  DATE-  NOVEMBER 2 1966
000400:                                                                                                  #  BY-  GEORGE SCHMIDT IL 7-146 EXT. 126
000401:                                                                                                  #  MOD NO 3
000402:
000403:                                                                                                  #  FUNCTIONAL DESCRIPTION
000404:
000405:                                                                                                  #  THIS     SECTION CONSISTS OF PRELAUNCH ALIGNMENT AND GYRO DRIFT TESTS
000406:                                                                                                  #  INTEGRATED TOGETHER TO SAVE WORDS.  COMPASS IS COMPLETELY RESTART
000407:                                                                                                  #  PROOFED EXCEPT FOR THE FIRST 30 SECONDS OR SO.  PERFORMANCE TESTS OF
000408:                                                                                                  #  THE IRIGS IS RESTART PROOFED ENOUGH TO GIVE 75 PERCENT CONFIDENCE THAT
000409:                                                                                                  #  IF A RESTART OCCURS THE DATA WILL STILL BE GOOD.  GOOD PRACTICE TO RECYCL
000410:                                                                                                  #  WHEN A RESTART OCCURS UNLESS IT HAPPENS NEAR THE END OF A TEST-THEN WAIT
000411:                                                                                                  #  FOR THE DATA TO FLASH.
000412:
000413:                                                                                                  #  A RESTART IN GYROCOMPASS DURING GYRO TORQUING CAUSES PULSES TO BE LOST
000414:                                                                                                  #  THE PRELAUNCH ALIGNMENT TECHNIQUE IS BASICALLY THE SAME AS IN BLOCK 1
000415:                                                                                                  #  EXCEPT THAT IT HAS BEEN SIMPLIFIED IN THE SENSE THAT SMALL ANGLE APPROX.
000416:                                                                                                  #  HAVE BEEN USED.  THE DRIFT TESTS USE A UNIQUE IMPLEMENTATION OF THE
000417:                                                                                                  #  OPTIMUM STATISTICAL FILTER.  FOR A DESCRIPTION SEE E-1973.  BOTH OF THESE
000418:                                                                                                  #  ROUTINES USE STANDARD SYSTEM TEST LEADIN PROCEDURES.  THE INITIALIZATION
000419:                                                                                                  #  PROCEDURE FOR THE DRIFT TESTS IS IN THE JDC S.  THE INITIALIZATION METHOD
000420:                                                                                                  #  FOR GYROCOMPASS IS AN ERAS LOAD THEN A MISSION PHASE CALL.
000421:                                                                                                  #  THE COMPASS ALIGNS TO Z DOWN, X DOWNRANGE, HAS THE CAPABILITY
000422:                                                                                                  #  CHANGE AZIMUTH WHILE RUNNING, IS COMPENSATED FOR
000423:                                                                                                  #  COMPONENT ERRORS, IS CAPABLE OF OPTICAL VERIFICATION (CSM ONLY).
000424:
000425:                                                                                                  #  COMPASS ERASABLE LOAD REQUIRED
000426:
000427:                                                                                                  #        1-      LAUNCHAZ-DP AZIMUTH IN REV FROM NORTH OF XSM DESIRED    (NOM=.2)
000428:                                                                                                  #        2-      LATITUDE-DP-OF LAUNCH PAD
000429:                                                                                                  #        3-      AZIMUTH-DP-OF ZNB OF VEHICLE
000430:                                                                                                  #        4-      IMU COMPENSATION PARAMETERS
000431:                                                                                                  #        5-      AZ AND ELEVATION OF TARGETS 1,2         ****OPTIONAL****
000432:
000433:                                                                                                  #  TO PERFORM AS PART OF COMPASS
000434:
000435:                                                                                                  #        1-      OPTICAL VERIFICATION- V 65 E
000436:                                                                                                  #        2-      AZIMUTH CHANGE- V 78 E
000437:
000438:                                                                                                  #  SUBROUTINES CALLED
000439:
000440:                                                                                                  #  DURING OPTICAL VERIFICATION (CSM ONLY) ESSENTIALLY ALL OF INFLIGHT ALIGN
000441:                                                                                                  #  IS CALLED IN ONE WAY OR ANOTHER.  SEE THE LISTING.
000442:
000443:                                                                                                  #  NORMAL EXIT
000444:
000445:                                                                                                  #  DRIFT TESTS-  LENGTHOT GOES TO ZERO-RETURN TO IMU PERF TEST2 CONTROL
000446:                                                                                                  #  GYROCOMPASS-MANY, SEE THE LISTING
000447:
000448:                                                                                                  #  ALARMS
000449:
000450:                                                                                                  #  1600  OVERFLOW IN DRIFT TEST
000451:                                                                                                  #  1601  BAD IMU TORQUE ABORT
000452:                                                                                                  #  1602  BAD OPTICS DURING VERIFICATION-RETURN TO COMPASS        CSM ONLY
000453:
000454:                                                                                                  #  OUTPUT
000455:
000456:                                                                                                  #  DRIFT TESTS-  FLASHING DISPLAYS OF RESULTS-CONTROLLED IN IMU PERF TESTS 2
000457:                                                                                                  #  COMPASS-PROGRAM MODE LIGHTS TELL YOU WHAT PHASE OF PROGRAM YOU ARE IN
000458:                                                                                                  #        01      INITIALIZING THE PLATFORM POSITION AND ERASABLE
000459:                                                                                                  #        02      GYROCOMPASSING
000460:                                                                                                  #        03      DOING OPTICAL VERIFICATION (CSM)
000461:
000462:                                                                                                  #  DEBRIS
000463:
000464:                                                                                                  #  ALL CENTRALS, ALL OF EBANK XSM
000465:
000466:                                                                                                  #  MOST OF THE ROUTINES COMMON TO ALIGNMENT AND CALIBRATION APPEAR
000467:                                                                                                  #  ON THE NEXT FEW PAGES.
000468:
000469:    4575                                           COUNT    33/P02
000470:
000471:    4575  E5,1671                                  EBANK=   XSM
000472: 33,2453                                           BANK     33
000473: 33,2000                                           SETLOC   IMUCAL
000474: 33,2000                                           BANK
000475:
000476: 33,2453           05406        ESTIMS             TC       2PHSCHNG                              #  COMES HERE FROM IMU2
000477: 33,2454           00075                           OCT      00075
000478: 33,2455           00004                           OCT      00004                                 #  TURN OFF GROUP 4 IF ON
000479: 33,2456           00004        RSTGTS1            INHINT                                         #  COMES HERE PHASE1 RESTART
000480: 33,2457           30025                           CA       TIME1
000481: 33,2460           55645                           TS       GTSWTLT1
000482: 33,2461           35035                           CAF      ZERO                                  #  ZERO THE PIPAS
000483: 33,2462           54037                           TS       PIPAX
000484: 33,2463           54040                           TS       PIPAY
000485: 33,2464           54041                           TS       PIPAZ
000486: 33,2465           00003                           RELINT
000487: 33,2466           33127                           CA       77DECML                               #  ZERO ALL NECESSARY LOCATIONS
000488: 33,2467           55655                           TS       ZERONDX1
000489: 33,2470           33130                           CA       ALXXXZ
000490: 33,2471           02356                           TC       ZEROING
000491: 33,2472           06006                           TC       INTPRET
000492: 33,2473           77735                           SLOAD
000493: 33,2474           27111                                    SCHZEROS
000494: 33,2475           25477                           STOVL    GCOMPSW    -1
000495: 33,2476           27122                                    INTVAL     +2                         #  LOAD SOME INITIAL DRIFT GAINS
000496: 33,2477           26455                           STOVL    ALX1S
000497: 33,2500           27111                                    SCHZEROS
000498: 33,2501           01472                           STORE    GCOMP
000499: 33,2502           01163                           STORE    DELVX                                 #  GCOMPZER SUBROUTINE NO LONGER NEEDED
000500: 33,2503           77776                           EXIT
000501:
000502: 33,2504           11643                           CCS      GEOCOMP1                              #  NON ZERO IF COMPASS.
000503: 33,2505           02507                           TC       +2
000504: 33,2506           02523                           TC       SLEEPIE    +1
000505: 33,2507           06006                           TC       INTPRET
000506: 33,2510           77624                           CALL
000507: 33,2511           64000                                    ERTHRVSE
000508: 33,2512           77776                           EXIT
000509: 33,2513           31412                           CA       LENGTHOT                              #  TIMES FIVE IS THE NUM OF SEC ERECTING
000510: 33,2514           55646                           TS       ERECTIME
000511:
000512: 33,2515           05370                           TC       NEWMODEX
000513: 33,2516           00002                           MM       02         B-14
000514: 33,2517           04676                           TC       BANKCALL                              #  SET UP PIPA FAIL TO CAUSE ISS ALARM
000515: 33,2520           17156                           CADR     PIPUSE                                #  COMPASS NEVER TURNS THIS OFF
000516: 33,2521           03403                           TC       ANNNNNN                               #  END OF FIRST TIME THROUGH
000517:
000518:                                                                                                  #  COMES HERE AT THE END OF EVERY ITERATION THROUGH DRIFT TEST OR COMPASS
000519:
000520:                                                                                                  #  SET UP WAITLIST SECTION
000521: 33,2522           55412        SLEEPIE            TS       LENGTHOT                              #  TEST NOT OVER-DECREMENT LENGTHOT
000522: 33,2523           05426                           TC       PHASCHNG                              #  CHANGE PHASE
000523: 33,2524           00135                           OCT      00135
000524: 33,2525           11450                           CCS      TORQNDX                               #  ARE WE DOING VERTDRIFT
000525: 33,2526           02417                           TC       EARTHR*                               #  TRUE TORQUE SOUTH GYRO
000526: 33,2527           03406        WTLISTNT           TC       CHKCOMED                              #  SEE IF COMPASS OVER
000527: 33,2530           02532                           TC       SETGWLST
000528: 33,2531           05233                           TC       ENDOFJOB
000529:
000530: 33,2532           00006        SETGWLST           EXTEND
000531: 33,2533           22154                           QXCH     MPAC                                  #  CALLED EVERY WAITLIST OR AZIMUTH CHANGE
000532: 33,2534           00004                           INHINT
000533: 33,2535           40025                           CS       TIME1
000534: 33,2536           61645                           AD       GTSWTLT1
000535: 33,2537           00006                           EXTEND
000536: 33,2540           62542                           BZMF     +2
000537: 33,2541           65015                           AD       NEGMAX                                #  10 MS ERROR OK
000538: 33,2542           61644                           AD       1SECXT1                               #  1 SEC FOR CALIBRATION, .5 SEC IN COMPASS
000539: 33,2543           00006                           EXTEND
000540: 33,2544           62550                           BZMF     RIGHTGTS
000541: 33,2545           05251        WTGTSMPL           TC       TWIDDLE
000542: 33,2546  E5,1540                                  EBANK=   ALTIM
000543: 33,2546           02574                           ADRES    ALLOOP
000544: 33,2547           00154                           TC       MPAC
000545: 33,2550           35031        RIGHTGTS           CAF      FOUR                                  #  SET UP NEXT WAITLIST-ALLOW SOME TIME
000546: 33,2551           02545                           TC       WTGTSMPL                              #  END OF WAITLIST SECTION
000547:
000548:                                                                                                  #  STORE AND LOAD DATA SECTIONS FOR RESTART PROOFING
000549:
000550: 33,2552     4113               25DECML            EQUALS   OCT31
000551: 33,2552           34113        STOREDTA           CAF      25DECML
000552: 33,2553           54154                           TS       MPAC
000553: 33,2554           50154                           INDEX    MPAC
000554: 33,2555           31460                           CAE      THETAX1
000555: 33,2556           50154                           INDEX    MPAC
000556: 33,2557           55577                           TS       RESTARPT
000557: 33,2560           10154                           CCS      MPAC
000558: 33,2561           12553                           TCF      STOREDTA   +1
000559: 33,2562           00002                           TC       Q
000560:
000561: 33,2563           34113        LOADSTDT           CAF      25DECML
000562: 33,2564           54154                           TS       MPAC
000563: 33,2565           50154                           INDEX    MPAC
000564: 33,2566           31577                           CA       RESTARPT
000565: 33,2567           50154                           INDEX    MPAC
000566:
000567: 33,2570           55460                           TS       THETAX1
000568: 33,2571           10154                           CCS      MPAC
000569: 33,2572           12564                           TCF      LOADSTDT   +1
000570: 33,2573           00002                           TC       Q
000571:
000572:                                                                                                  #  COMES HERE EVERY ITERATION BY A WAITLIST CALL SET IN SLEEPIE
000573:
000574: 33,2574           30025        ALLOOP             CA       TIME1
000575: 33,2575           55645                           TS       GTSWTLT1                              #  STORE TIME TO SET UP NEXT WAITLIST.
000576: 33,2576           31540        ALLOOP3            CA       ALTIM
000577: 33,2577           55631                           TS       GEOSAVE1
000578: 33,2600           05426                           TC       PHASCHNG
000579: 33,2601           00115                           OCT      00115
000580: 33,2602           31631        ALLOOP1            CAE      GEOSAVE1
000581: 33,2603           55540                           TS       ALTIM
000582: 33,2604           10000                           CCS      A
000583: 33,2605           30000                           CA       A                                     #  SHOULD NEVER HIT THIS LOCATION
000584: 33,2606           55541                           TS       ALTIMS
000585: 33,2607           40000                           CS       A
000586: 33,2610           55540                           TS       ALTIM
000587: 33,2611           35035                           CAF      ZERO
000588: 33,2612           56037                           XCH      PIPAX
000589: 33,2613           55162                           TS       DELVX
000590: 33,2614           35035                           CAF      ZERO
000591: 33,2615           56040                           XCH      PIPAY
000592: 33,2616           55164                           TS       DELVY
000593: 33,2617           35035                           CAF      ZERO
000594: 33,2620           56041                           XCH      PIPAZ
000595: 33,2621           55166                           TS       DELVZ
000596: 33,2622           34374                           CAF      19DECML                               #  23 OCT
000597: 33,2623           04114                           TC       NEWPHASE
000598: 33,2624           00005                           OCT      00005
000599: 33,2625           37657        SPECSTS            CAF      PRIO22
000600: 33,2626           05163                           TC       FINDVAC
000601: 33,2627  E5,1631                                  EBANK=   GEOSAVE1
000602: 33,2627           02632 66065                     2CADR    ALFLT                                 #  START THE JOB
000603:
000604: 33,2631           05340                           TC       TASKOVER
000605:
000606:                                                                                                  #  THIS IS PART OF THE JOB DONE EVERY ITERATION
000607:
000608: 33,2632           02552        ALFLT              TC       STOREDTA                              #  STORE DATA IN CASE OF RESTART IN JOB
000609: 33,2633           05426                           TC       PHASCHNG                              #  THIS IS THE JOB DONE EVERY ITERATION
000610: 33,2634           00215                           OCT      00215
000611: 33,2635           12637                           TCF      +2
000612: 33,2636           02563        ALFLT1             TC       LOADSTDT                              #  COMES HERE ON RESTART
000613:
000614: 33,2637           11643                           CCS      GEOCOMP1
000615: 33,2640           02642                           TC       +2
000616: 33,2641           02645                           TC       NORMLOP
000617: 33,2642           03406                           TC       CHKCOMED                              #  SEE IF PRELAUNCH OVER
000618: 33,2643           04676                           TC       BANKCALL                              #  COMPENSATION IF IN COMPASS
000619: 33,2644           15262                           CADR     1/PIPA
000620: 33,2645           06006        NORMLOP            TC       INTPRET
000621: 33,2646           77745                           DLOAD
000622: 33,2647           27120                                    INTVAL
000623: 33,2650           24051                           STOVL    S1
000624: 33,2651           01163                                    DELVX
000625: 33,2652           76505                           VXM      VSL1
000626: 33,2653           02672                                    XSM
000627: 33,2654           57545                           DLOAD    DCOMP
000628: 33,2655           00160                                    MPAC       +3
000629: 33,2656           16533                           STODL    DPIPAY
000630: 33,2657           00162                                    MPAC       +5
000631: 33,2660           02537                           STORE    DPIPAZ
000632:
000633: 33,2661           76001                           SETPD    AXT,1
000634: 33,2662           00001                                    0
000635: 33,2663           00010                                    8D
000636: 33,2664           57535                           SLOAD    DCOMP
000637: 33,2665           02644                                    GEOCOMP1
000638: 33,2666           77640                           BMN
000639: 33,2667           67210                                    ALWAYSG                               #  DO A QUICK COMPASS
000640:
000641:                                                                                                  #  NOW WE HAVE JUST THE CALIBRATION PARTS OF THE PROGRAM-NEXT PAGES
000642:
000643: 33,2670                                           COUNT    33/COMST
000644:
000645: 33,2670           50135        ALCGKK             SLOAD    BMN
000646: 33,2671           02542                                    ALTIMS
000647: 33,2672           66705                                    ALFLT3                                #  NO NEW GAINS NEEDED
000648: 33,2673           72174        ALKCG              AXT,2    LXA,1                                 #  LOADS SLOPES AND TIME CONSTANTS AT RQST
000649: 33,2674           00014                                    12D
000650: 33,2675           02454                                    ALX1S
000651: 33,2676           62143        ALKCG2             DLOAD*   INCR,1
000652: 33,2677           02243                                    ALFDK      +144D,1
000653: 33,2700           77775                           DEC      -2         B-14
000654: 33,2701           12555                           STORE    ALDK       +10D,2
000655: 33,2702           66104                           TIX,2    SXA,1
000656: 33,2703           66676                                    ALKCG2
000657: 33,2704           02454                                    ALX1S
000658:
000659: 33,2705           77770        ALFLT3             AXT,1                                          #  MEASUREMENT INCORPORATION ROUTINES
000660: 33,2706           00010                                    8D                                    #  AND GAIN UPDATES
000661: 33,2707           41343        DELMLP             DLOAD*   DMP
000662: 33,2710           02543                                    DPIPAY     +8D,1
000663: 33,2711           27705                                    PIPASC
000664: 33,2712           43661                           SLR      BDSU*
000665: 33,2713           21212                                    9D
000666: 33,2714           02511                                    INTY       +8D,1
000667: 33,2715           06511                           STORE    INTY       +8D,1
000668: 33,2716           40725                           PDDL     DMP*
000669: 33,2717           27707                                    VELSC
000670: 33,2720           02531                                    VLAUN      +8D,1
000671: 33,2721           77732                           SL2R
000672: 33,2722           45425                           DSU      STADR
000673: 33,2723           71206                           STORE    DELM       +8D,1
000674: 33,2724           06573                           STORE    DELM       +10D,1
000675: 33,2725           77100                           TIX,1    AXT,2
000676: 33,2726           66707                                    DELMLP
000677: 33,2727           00004                                    4
000678: 33,2730           56743        ALILP              DLOAD*   DMPR*
000679: 33,2731           75314                                    ALK        +4,2
000680: 33,2732           75230                                    ALDK       +4,2
000681: 33,2733           12463                           STORE    ALK        +4,2
000682: 33,2734           77104                           TIX,2    AXT,2
000683: 33,2735           66730                                    ALILP
000684: 33,2736           00010                                    8D
000685: 33,2737           66140        ALKLP              LXC,1    SXA,1
000686: 33,2740           02455                                    CMPX1
000687: 33,2741           02455                                    CMPX1
000688: 33,2742           56743                           DLOAD*   DMPR*
000689: 33,2743           02460                                    ALK        +1,1
000690: 33,2744           75206                                    DELM       +8D,2
000691: 33,2745           77613                           DAD*
000692: 33,2746           75266                                    INTY       +8D,2
000693: 33,2747           12511                           STORE    INTY       +8D,2
000694: 33,2750           42743                           DLOAD*   DAD*
000695: 33,2751           75304                                    ALK        +12D,2
000696: 33,2752           75220                                    ALDK       +12D,2
000697: 33,2753           12473                           STORE    ALK        +12D,2
000698: 33,2754           42673                           DMPR*    DAD*
000699: 33,2755           75206                                    DELM       +8D,2
000700: 33,2756           75256                                    INTY       +16D,2
000701: 33,2757           12521                           STORE    INTY       +16D,2
000702: 33,2760           40743                           DLOAD*   DMP*
000703: 33,2761           27712                                    ALSK       +1,1
000704: 33,2762           75206                                    DELM       +8D,2
000705: 33,2763           42772                           SL1R     DAD*
000706: 33,2764           75246                                    VLAUN      +8D,2
000707: 33,2765           12531                           STORE    VLAUN      +8D,2
000708: 33,2766           76104                           TIX,2    AXT,1
000709: 33,2767           66737                                    ALKLP
000710: 33,2770           00010                                    8D
000711:
000712: 33,2771           64743        LOOSE              DLOAD*   PDDL*                                 #  EXTRAPOLATE SWAY VARIABLES
000713: 33,2772           02533                                    ACCWD      +8D,1
000714: 33,2773           02531                                    VLAUN      +8D,1
000715: 33,2774           55523                           PDDL*    VDEF
000716: 33,2775           02541                                    POSNV      +8D,1
000717: 33,2776           76521                           MXV      VSL1
000718: 33,2777           02001                                    TRANSM1
000719: 33,3000           77745                           DLOAD
000720: 33,3001           00155                                    MPAC
000721: 33,3002           06541                           STORE    POSNV      +8D,1
000722: 33,3003           77745                           DLOAD
000723: 33,3004           00160                                    MPAC       +3
000724: 33,3005           06531                           STORE    VLAUN      +8D,1
000725: 33,3006           77745                           DLOAD
000726: 33,3007           00162                                    MPAC       +5
000727: 33,3010           06533                           STORE    ACCWD      +8D,1
000728: 33,3011           77700                           TIX,1
000729: 33,3012           66771                                    LOOSE
000730:
000731: 33,3013           76174                           AXT,2    AXT,1                                 #  EVALUATE SINES AND COSINES
000732: 33,3014           00006                                    6
000733: 33,3015           00002                                    2
000734: 33,3016           57343        BOOP               DLOAD*   DMPR
000735: 33,3017           02513                                    ANGX       +2,1
000736: 33,3020           27715                                    GEORGEJ
000737: 33,3021           77722                           SR2R
000738: 33,3022           73406                           PUSH     SIN
000739: 33,3023           56072                           SL3R     XAD,1
000740: 33,3024           00046                                    X1
000741: 33,3025           10021                           STORE    16D,2
000742: 33,3026           77745                           DLOAD
000743: 33,3027           77746                           COS
000744: 33,3030           10027                           STORE    22D,2                                 #  COSINES
000745: 33,3031           77704                           TIX,2
000746: 33,3032           67016                                    BOOP
000747:
000748: 33,3033           77776        PERFERAS           EXIT
000749: 33,3034           35074                           CA       EBANK7
000750: 33,3035  E7,1400                                  EBANK=   LAT(SPL)
000751: 33,3035           54003                           TS       EBANK
000752: 33,3036           01400                           TC       LAT(SPL)                              #  GOTO ERASABLE ONLY TO RETURN
000753:
000754:                                                                                                  #  CAUTION
000755:
000756:                                                                                                  #  THE ERASABLE PROGRAM THAT DOES THE CALCULATIONS MUST BE LOADED
000757:                                                                                                  #  BEFORE ANY ATTEMPT IS MADE TO RUN THE IMU PERFORMANCE TEST
000758:
000759: 33,3037  E5,1412                                  EBANK=   LENGTHOT
000760: 33,3037           11412        ONCEMORE           CCS      LENGTHOT
000761: 33,3040           02522                           TC       SLEEPIE                               #  TEST NOT OVER SET UP NEXT WAITLIST
000762: 33,3041           11450                           CCS      TORQNDX
000763: 33,3042           13044                           TCF      +2
000764: 33,3043           03046                           TC       SETUPER1
000765: 33,3044           30032                           CA       CDUX
000766: 33,3045           55414                           TS       LOSVEC     +1                         #  FOR TROUBLESHOOTING POSNS 2$4 VD
000767: 33,3046           06006        SETUPER1           TC       INTPRET                               #  DRIFT TEST OVER
000768: 33,3047           65345                           DLOAD    PDDL                                  #  ANGLES FROM DRIFT TEST ONLY
000769: 33,3050           02503                                    ANGZ
000770: 33,3051           02507                                    ANGY
000771: 33,3052           55525                           PDDL     VDEF
000772: 33,3053           02511                                    ANGX
000773: 33,3054           74276                           VCOMP    VXSC
000774: 33,3055           27715                                    GEORGEJ
000775: 33,3056           74521                           MXV      VSR1
000776: 33,3057           02672                                    XSM
000777: 33,3060           02760                           STORE    OGC
000778: 33,3061           77776                           EXIT
000779:
000780: 33,3062           05426        TORQINCH           TC       PHASCHNG
000781: 33,3063           00005                           OCT      00005
000782: 33,3064           32444                           CA       OGCPL
000783: 33,3065           04676                           TC       BANKCALL
000784: 33,3066           17206                           CADR     IMUPULSE
000785: 33,3067           02316                           TC       IMUSTLLG
000786: 33,3070           11450                           CCS      TORQNDX                               #  + IF IN VERTICAL DRIFT TEST
000787: 33,3071           02262                           TC       VALMIS                                #  VERT DRIFT TEST OVER
000788: 33,3072           06006                           TC       INTPRET
000789: 33,3073           77624                           CALL                                           #  SET UP ERATE FOR PIP TEST OR COMPASS
000790: 33,3074           64000                                    ERTHRVSE
000791: 33,3075           77776                           EXIT
000792: 33,3076           02122                           TC       TORQUE                                #  GO TO IMU2 FOR A PIPA TEST AND DISPLAY
000793:
000794: 33,3077           05664        SOMEERRR           TC       ALARM
000795: 33,3100           01600                           OCT      1600
000796: 33,3101           03104                           TC       +3
000797: 33,3102           05664        SOMERR2            TC       ALARM
000798: 33,3103           01601                           OCT      1601
000799: 33,3104           05426                           TC       PHASCHNG
000800: 33,3105           00005                           OCT      00005
000801: 33,3106           02267                           TC       ENDTEST1
000802:
000803:                                                                                                  #  THE FAMOUS MAGIC NUMBERS OF SCHMIDT ARE NOW PART OF AN ERASABLE LOAD.
000804:
000805: 33,3107           02222        DEC585             OCT      02222                                 #  1170 B+14 ORDER IS NOW IMPORTANT
000806: 33,3110           00000 00000  SCHZEROS           2DEC     .00000000
000807: 33,3112           00000 00000                     2DEC     .00000000
000808: 33,3114           00000                           OCT      00000
000809: 33,3115           00000        ONEDPP             OCT      00000
000810: 33,3116           00001                           OCT      00001                                 #  ABOVE ORDER IS IMPORTANT
000811:
000812: 33,3117           00004        INTVAL             OCT      4
000813: 33,3120           00002                           OCT      2
000814: 33,3121           00220                           DEC      144        B-14
000815: 33,3122           77776                           DEC      -1         B-14
000816: 33,3123           35730 00035  SOUPLY             2DEC     .93505870                             #  INITIAL GAINS FOR PIP OUTPUTS
000817: 33,3125           10317 17550                     2DEC     .26266423                             #  INITIAL GAINS/4 FOR ERECTION ANGLES
000818:
000819: 33,3127           00115        77DECML            DEC      77         B-14
000820: 33,3130           01453        ALXXXZ             GENADR   ALX1S      -1
000821:
000822:                                                                                                  #  GYROCOMPASS PORTIONS FINISH THIS LOG SECTION
000823:
000824: 33,3131                                           COUNT    33/P01
000825:
000826:                                                                                                  #  INITIALIZATION SECTION
000827:
000828: 33,3131           30075        GTSCPSS            CA       FLAGWRD1                              #  CALLED BY V37
000829: 33,3132           75020                           MASK     NOP01BIT
000830: 33,3133           00006                           EXTEND
000831: 33,3134           13137                           BZF      GTSCPSSA
000832: 33,3135           05725                           TC       POODOO
000833: 33,3136           21521                           OCT      21521                                 #  NO DO ALARM FOR P01 - P11 ALREADY DONE
000834:
000835: 33,3137           35033        GTSCPSSA           CAF      ONE
000836: 33,3140           55643                           TS       GEOCOMP1                              #  THIS IS THE LEAD IN FOR COMPASS.
000837: 33,3141           33435                           CA       1/PIPAGT
000838: 33,3142           55074                           TS       1/PIPADT
000839: 33,3143           35024        NXXTENN            CA       BIT8
000840: 33,3144           55412                           TS       LENGTHOT
000841: 33,3145           35052                           CAF      1/2SECX                               #  COMPASS IS A .5 SEC LOOP
000842: 33,3146           55644                           TS       1SECXT1
000843: 33,3147           35033                           CAF      ONE
000844: 33,3150           55632                           TS       PREMTRX1
000845: 33,3151           55657                           TS       PERFDLAY   +1
000846: 33,3152           35035                           CAF      ZERO
000847: 33,3153           55656                           TS       PERFDLAY
000848: 33,3154           00006                           EXTEND
000849: 33,3155           31634                           DCA      LUNCHAZ1
000850: 33,3156           53636                           DXCH     NEWAZ1
000851: 33,3157           00006                           EXTEND
000852: 33,3160           31634                           DCA      LUNCHAZ1
000853: 33,3161           53640                           DXCH     OLDAZMTH
000854: 33,3162           34375        SETUPGC            CA       DEC17
000855: 33,3163           55655                           TS       ZERONDX1
000856: 33,3164           32446                           CA       XSMADR
000857: 33,3165           02356                           TC       ZEROING
000858: 33,3166           03170                           TC       POSN17C
000859: 33,3167           02030                           TC       GEOIMUTT                              #  GO TO IMU2 FOR FURTHER INITIALIZATION
000860:
000861:
000862: 33,3170           00006        POSN17C            EXTEND                                         #  COMPASS POSITION Z DOWN, X DOWNRANGE
000863: 33,3171           23425                           QXCH     QPLACE                                #  FROM NORTH IN REVOLUTIONS + CLOCKWSE
000864: 33,3172           45016                           CS       HALF                                  #  ALL THIS TO INITIALIZE MATRIX
000865: 33,3173           55705                           TS       ZSM
000866: 33,3174           06006                           TC       INTPRET
000867: 33,3175           41545                           DLOAD    PUSH
000868: 33,3176           02636                                    NEWAZ1
000869: 33,3177           77756                           SIN
000870: 33,3200           02676                           STORE    XSM        +4
000871: 33,3201           16702                           STODL    YSM        +2
000872: 33,3202           77746                           COS
000873: 33,3203           02704                           STORE    YSM        +4
000874: 33,3204           77676                           DCOMP
000875: 33,3205           02674                           STORE    XSM        +2
000876: 33,3206           77776                           EXIT
000877: 33,3207           01425                           TC       QPLACE
000878:
000879:                                                                                                  #  JOB DONE EVERY ITERATION THROUGH COMPASS PROGRAM.  SET BY TASK ALLOOP
000880:
000881: 33,3210                                           COUNT    33/P02
000882:
000883: 33,3210           44743        ALWAYSG            DLOAD*   DSU*                                  #  COMPASS AND ERECT
000884: 33,3211           02543                                    DPIPAY     +8D,1
000885: 33,3212           02505                                    FILDELV1   +8D,1
000886: 33,3213           42675                           DMPR     DAD*
000887: 33,3214           27717                                    GEOCONS1
000888: 33,3215           02505                                    FILDELV1   +8D,1
000889: 33,3216           06505                           STORE    FILDELV1   +8D,1
000890: 33,3217           77613                           DAD*
000891: 33,3220           02507                                    INTVEC1    +8D,1
000892: 33,3221           06507                           STORE    INTVEC1    +8D,1
000893: 33,3222           42675                           DMPR     DAD*
000894: 33,3223           27721                                    GEOCONS2
000895: 33,3224           02505                                    FILDELV1   +8D,1
000896: 33,3225           41475                           DMPR     PUSH
000897: 33,3226           15332                                    GEOCONS5
000898: 33,3227           67300                           TIX,1    SLOAD
000899: 33,3230           67210                                    ALWAYSG
000900: 33,3231           02647                                    ERECTIM1
000901: 33,3232           71254                           BZE      DLOAD
000902: 33,3233           67244                                    COMPGS
000903: 33,3234           02471                                    THETAN1    +2
000904: 33,3235           45425                           DSU      STADR
000905: 33,3236           61306                           STODL    THETAN1    +2                         #  ERECTION ONLY.
000906: 33,3237           77621                           BDSU
000907: 33,3240           02473                                    THETAN1    +4
000908: 33,3241           02473                           STORE    THETAN1    +4
000909: 33,3242           77650                           GOTO
000910: 33,3243           67266                                    ADDINDRF
000911: 33,3244           43345        COMPGS             DLOAD    DAD                                   #  COMPASS
000912: 33,3245           02467                                    THETAN1
000913: 33,3246           02475                                    FILDELV1
000914: 33,3247           16467                           STODL    THETAN1
000915: 33,3250           02475                                    FILDELV1
000916: 33,3251           44275                           DMPR     BDSU
000917: 33,3252           27723                                    GEOCONS3
000918: 33,3253           02473                                    THETAN1    +4
000919: 33,3254           16473                           STODL    THETAN1    +4
000920: 33,3255           02501                                    FILDELV1   +4
000921: 33,3256           44275                           DMPR     BDSU
000922: 33,3257           27723                                    GEOCONS3
000923: 33,3260           02471                                    THETAN1    +2
000924: 33,3261           57325                           PDDL     DMPR
000925: 33,3262           02503                                    INTVEC1    +4
000926: 33,3263           27725                                    GEOCONS4
000927: 33,3264           45421                           BDSU     STADR
000928: 33,3265           75306                           STORE    THETAN1    +2
000929: 33,3266           77776        ADDINDRF           EXIT
000930:
000931:
000932: 33,3267           11412        ENDGTSAL           CCS      LENGTHOT                              #  IS 5 SEC OVER-THE TIME TO TORQ PLATFORM
000933: 33,3270           02522                           TC       SLEEPIE                               #  NO-SET UP NEXT WAITLIST CALL FOR .5 SEC
000934: 33,3271           03406                           TC       CHKCOMED
000935: 33,3272           11304                           CCS      LGYRO                                 #  YES BUT ARE GYROS BUSY
000936: 33,3273           12523                           TCF      SLEEPIE    +1                         #  BUSY-GET THEM .5 SECONDS FROM NOW
000937:
000938: 33,3274           06006        LASTGTS            TC       INTPRET
000939: 33,3275           77775                           VLOAD
000940: 33,3276           02650                                    ERCOMP1
000941: 33,3277           16461                           STODL    THETAX1
000942: 33,3300           02443                                    TMARK
000943: 33,3301           02457                           STORE    ALK
000944: 33,3302           77776                           EXIT                                           #  PREVIOUS SECTION WAS FOR RESTARTS
000945:
000946: 33,3303           05426        RESTAIER           TC       PHASCHNG
000947: 33,3304           00275                           OCT      00275
000948: 33,3305           06006                           TC       INTPRET                               #  ADD COMPASS COMMANDS INTO ERATE
000949: 33,3306           64375                           VLOAD    MXV
000950: 33,3307           02467                                    THETAN1
000951: 33,3310           02672                                    XSM
000952: 33,3311           53372                           VSL1     VAD
000953: 33,3312           02461                                    THETAX1
000954: 33,3313           16650                           STODL    ERCOMP1
000955: 33,3314           02457                                    ALK
000956: 33,3315           02443                           STORE    TMARK
000957: 33,3316           77776                           EXIT
000958: 33,3317           02417                           TC       EARTHR*                               #  TORQUE IT ALL IN
000959: 33,3320           31646                           CAE      ERECTIM1
000960: 33,3321           55631                           TS       GEOSAVE1
000961: 33,3322           05426                           TC       PHASCHNG
000962: 33,3323           00155                           OCT      00155
000963: 33,3324           06006        RESTEST1           TC       INTPRET
000964: 33,3325           77775                           VLOAD
000965: 33,3326           27111                                    SCHZEROS
000966: 33,3327           02467                           STORE    THETAN1
000967: 33,3330           77776                           EXIT
000968: 33,3331           11632                           CCS      PREMTRXC
000969: 33,3332           03401                           TC       NOCHORLD
000970: 33,3333           05426                           TC       PHASCHNG
000971: 33,3334           00255                           OCT      00255
000972: 33,3335           06006        RESTEST3           TC       INTPRET
000973: 33,3336           77745                           DLOAD
000974: 33,3337           02634                                    LAUNCHAZ
000975: 33,3340           53025                           DSU      BZE
000976: 33,3341           02640                                    OLDAZMTH
000977: 33,3342           67376                                    NOAZCHGE
000978: 33,3343           00001                           STORE    0D
000979: 33,3344           43335                           SLOAD    DAD
000980: 33,3345           27117                                    ONEDPP     +1
000981: 33,3346           02633                                    PREMTRXC                              #  DOES NOT CHANGE LAUNCHAZ
000982: 33,3347           16633                           STODL    PREMTRXC
000983: 33,3350           02634                                    LAUNCHAZ
000984: 33,3351           16636                           STODL    NEWAZMTH
000985: 33,3352           00001                                    0D
000986: 33,3353           02654        ADERCOMP           STORE    ERCOMP     +4
000987: 33,3354           77776                           EXIT
000988: 33,3355           03170                           TC       POSN17C
000989: 33,3356           05426                           TC       PHASCHNG
000990: 33,3357           00335                           OCT      00335
000991: 33,3360           00006        RESCHNG            EXTEND
000992: 33,3361           31636                           DCA      NEWAZMTH
000993: 33,3362           53640                           DXCH     OLDAZMTH
000994: 33,3363           35025                           CA       BIT7                                  #  SPEND 320 SEC ERECTING
000995: 33,3364           55412                           TS       LENGTHOT
000996: 33,3365           05426                           TC       PHASCHNG
000997: 33,3366           00075                           OCT      00075
000998: 33,3367           33434        SPITGYRO           CA       ERCOMPPL
000999: 33,3370           04676                           TC       BANKCALL
001000: 33,3371           17206                           CADR     IMUPULSE
001001: 33,3372           04676                           TC       BANKCALL
001002: 33,3373           17577                           CADR     IMUSTALL
001003: 33,3374           03102                           TC       SOMERR2
001004: 33,3375           02453                           TC       ESTIMS                                #  RE-INITIALIZE
001005:
001006:
001007: 33,3376           77776        NOAZCHGE           EXIT
001008: 33,3377           35033                           CA       ONE
001009: 33,3400           55632                           TS       PREMTRXC
001010: 33,3401           11631        NOCHORLD           CCS      GEOSAVE1
001011: 33,3402           55646                           TS       ERECTIM1                              #  COUNTS DOWN FOR ERECTION.
001012:
001013: 33,3403           34334        ANNNNNN            CAF      NINE
001014: 33,3404           55412                           TS       LENGTHOT
001015: 33,3405           02523                           TC       SLEEPIE    +1
001016:
001017:
001018: 33,3406           00004        CHKCOMED           INHINT
001019: 33,3407           41011                           CS       MODREG                                #  CHECK FOR MM 07 FIRST
001020: 33,3410           65037                           AD       SEVEN
001021: 33,3411           00006                           EXTEND
001022: 33,3412           13426                           BZF      GOBKCALB                              #  IF MM 07 RETURN TO PERF TEST
001023: 33,3413           45035                           CS       ZERO
001024: 33,3414           00006                           EXTEND
001025: 33,3415           06030                           RXOR     CHAN30                                #  READ AND INVERT BITS IN CHANNEL 30
001026: 33,3416           75027                           MASK     BIT5                                  #  LIFTOFF BIT
001027: 33,3417           10000                           CCS      A
001028: 33,3420           13427                           TCF      PRELTERM                              #  LIFTOFF HAS OCCURRED
001029:
001030: 33,3421           35027                           CA       GRRBKBIT                              #  CHECK FOR BACKUP LIFTOFF
001031: 33,3422           70101                           MASK     FLAGWRD5                              #  BIT5 FLAGWRD5
001032: 33,3423           10000                           CCS      A
001033: 33,3424           13427                           TCF      PRELTERM                              #  BACKUP RECEIVED
001034:
001035: 33,3425           00003                           RELINT
001036: 33,3426           00002        GOBKCALB           TC       Q
001037:
001038: 33,3427           37657        PRELTERM           CA       PRIO22                                #  PRELAUNCH DONE - SET UP P11
001039: 33,3430           05224                           TC       PRIOCHNG                              #  INCREASE PRIORITY HIGHER THAN SERVICER
001040: 33,3431           00004                           INHINT
001041: 33,3432           04715                           TC       POSTJUMP
001042: 33,3433           70002                           CADR     P11
001043:
001044:
001045: 33,3434           02647        ERCOMPPL           ECADR    ERCOMP
001046:
001047: 33,3435  26,3331               GEOCONS5           EQUALS   HIDPHALF
001048: 33,3435           06200        1/PIPAGT           OCT      06200
001049: 33,3436     4375               17DECML            =        ND1                                   #  OCT 21
001050: 33,3436     4374               19DECML            =        VD1                                   #  OCT 23
001051: 33,3436     5052               1/2SECX            =        .5SEC
001052:
001053:
001054: 33,3436     5233               GEOSTRT4           EQUALS   ENDOFJOB
001055:
001056:                                                                                                  #  OPTICAL VERIFICATION ROUTINES FOR GYROCOMPASS
001057:
001058: 33,3436                                           COUNT    33/P03
001059:
001060: 33,3436           05426        GCOMPVER           TC       PHASCHNG                              #  OPTICAL VERIFICATION ROUTINE
001061: 33,3437           00154                           OCT      00154
001062: 33,3440           05370                           TC       NEWMODEX                              #  ENTERED BY VERB 65 ENTER
001063: 33,3441           00003                           MM       03         B-14
001064: 33,3442           02037        SETNBPOS           TC       NBPOSPL
001065: 33,3443           04676                           TC       BANKCALL
001066: 33,3444           16063                           CADR     MKRELEAS
001067: 33,3445           35033        OPTDATA            CAF      BIT1                                  #  CALLS FOR AZIMUTH AND ELEVATION OF TARGE
001068: 33,3446           22007                           ZL                                             #  T 1,THEN TARGET 2
001069: 33,3447           23427                           LXCH     RUN                                   #  AZIMUTH CLOCKWSE FROM NORTH TO TARGET
001070: 33,3450           55047                           TS       DSPTEM1    +2                         #  ELEVATION MEASURED FROM HORIZONTAL
001071: 33,3451           00006                           EXTEND
001072: 33,3452           51427                           INDEX    RUN
001073: 33,3453           31433                           DCA      TAZEL1
001074: 33,3454           53046                           DXCH     DSPTEM1
001075: 33,3455           33500                           CAF      V05N30E
001076: 33,3456           04676                           TC       BANKCALL
001077: 33,3457           20673                           CADR     GODSPRET
001078: 33,3460           33466                           CAF      VN0641
001079: 33,3461           04676                           TC       BANKCALL
001080: 33,3462           20720                           CADR     GOFLASH
001081: 33,3463           03620                           TC       GCOMP5
001082: 33,3464           03467                           TC       +3
001083: 33,3465           03455                           TC       -8D
001084: 33,3466           01451        VN0641             VN       0641
001085: 33,3467           53046                           DXCH     DSPTEM1                               #  TAZEL1 TARGET 1 AZIMUTH
001086: 33,3470           51427                           INDEX    RUN
001087: 33,3471           53433                           DXCH     TAZEL1                                #  TAZEL1 +2 TARGET 2 AZIMUTH
001088: 33,3472           11427                           CCS      RUN
001089: 33,3473           13477                           TCF      +4
001090: 33,3474           35032                           CAF      TWO
001091: 33,3475           54001                           TS       L
001092: 33,3476           13447                           TCF      OPTDATA    +2                         #  MPAC  1ST PASS=0   2ND PASS=2
001093:
001094: 33,3477           03541                           TC       CONTIN33
001095:
001096: 33,3500           01236        V05N30E            VN       0530
001097:
001098: 33,3501           06006                           TC       INTPRET                               #  UNDYNAMIC ASSEMBLER
001099: 33,3502           77170        TAR/EREF           AXT,1    AXT,2                                 #  TARGET VECTOR
001100: 33,3503           00002                                    2                                     #  SIN(EL)   -COS(AZ)COS(EL)   SIN(AZ)COS(EL
001101: 33,3504           00014                                    12D
001102: 33,3505           40331                           SSP      SETPD
001103: 33,3506           00052                                    S2
001104: 33,3507           00006                                    6
001105: 33,3510           00001                                    0
001106: 33,3511           60533        TAR1               SLOAD*   SR2                                   #  X1=2 X2=12 S2=6 X1=0 X2=6 S2=6
001107: 33,3512           02436                                    TAZEL1     +3,1
001108: 33,3513           00001                           STORE    0                                     #  PD00 ELEVATION PD00
001109: 33,3514           77756                           SIN
001110: 33,3515           10023                           STORE    18D,2                                 #  PD06 *** SIN(EL) ***PD12
001111: 33,3516           77745                           DLOAD
001112: 33,3517           00001                                    0
001113: 33,3520           41546                           COS      PUSH                                  #  PD00 COS(EL) PD00
001114: 33,3521           47133                           SLOAD*   RTB
001115: 33,3522           02435                                    TAZEL1     +2,1
001116: 33,3523           45513                                    CDULOGIC
001117: 33,3524           00003                           STORE    2                                     #  PD02 AZIMUTH PD02
001118: 33,3525           41356                           SIN      DMP
001119: 33,3526           00001                                    0
001120: 33,3527           77752                           SL1
001121: 33,3530           10027                           STORE    22D,2                                 #  PD10 *** SIN(AZ)COS(EL) ***PD16
001122: 33,3531           71545                           DLOAD    COS
001123: 33,3532           00003                                    2
001124: 33,3533           72405                           DMP      SL1
001125: 33,3534           76076                           DCOMP    AXT,1
001126: 33,3535           00000                                    0
001127: 33,3536           10025                           STORE    20D,2                                 #  PD08 *** -COS(AZ)COS(EL) ***PD14
001128: 33,3537           43504                           TIX,2    RVQ
001129: 33,3540           67511                                    TAR1
001130:
001131:
001132: 33,3541                                           BANK     33
001133: 33,2000                                           SETLOC   IMUCAL
001134: 33,2000                                           BANK
001135: 33,3541                                           COUNT*   $$/PO3
001136:
001137: 33,3541           35033        CONTIN33           CA       ONE
001138: 33,3542           54735                           TS       STARCODE
001139: 33,3543           35035                           CA       ZERO
001140: 33,3544           03635                           TC       TARGDRVE
001141: 33,3545           06006                           TC       INTPRET
001142: 33,3546           77624                           CALL
001143: 33,3547           67502                                    TAR/EREF
001144: 33,3550           64375        NEXTBNKS           VLOAD    MXV
001145: 33,3551           00007                                    6D
001146: 33,3552           02672                                    XSM
001147: 33,3553           77772                           VSL1
001148: 33,3554           26736                           STOVL    STARAD
001149: 33,3555           00015                                    12D
001150: 33,3556           76521                           MXV      VSL1
001151: 33,3557           02672                                    XSM
001152: 33,3560           36744                           STCALL   STARAD     +6
001153: 33,3561           67726                                    LITTLSUB
001154: 33,3562           02414                           STORE    LOSVEC
001155: 33,3563           77776                           EXIT
001156: 33,3564           04676                           TC       BANKCALL
001157: 33,3565           16063                           CADR     MKRELEAS
001158:
001159:
001160: 33,3566           35032        NEXBNKSS           CAF      TWO
001161: 33,3567           54735                           TS       STARCODE
001162: 33,3570           36211                           CAF      SIX
001163: 33,3571           03635                           TC       TARGDRVE
001164: 33,3572           06006                           TC       INTPRET
001165: 33,3573           77624                           CALL
001166: 33,3574           67726                                    LITTLSUB
001167: 33,3575           24015                           STOVL    12D
001168: 33,3576           02414                                    LOSVEC
001169: 33,3577           34007                           STCALL   06D
001170: 33,3600           47403                                    AXISGEN
001171: 33,3601           77624                           CALL
001172: 33,3602           47207                                    CALCGTA
001173: 33,3603           77776                           EXIT
001174: 33,3604           33631        GCOMP4             CAF      V06N93S
001175: 33,3605           04676                           TC       BANKCALL
001176: 33,3606           20720                           CADR     GOFLASH
001177: 33,3607           03620                           TC       GCOMP5
001178: 33,3610           13612                           TCF      +2
001179: 33,3611           13604                           TCF      GCOMP4
001180: 33,3612           06006                           TC       INTPRET
001181: 33,3613           53375                           VLOAD    VAD
001182: 33,3614           02760                                    OGC
001183: 33,3615           02650                                    ERCOMP1
001184: 33,3616           02650                           STORE    ERCOMP1
001185: 33,3617           77776                           EXIT
001186: 33,3620           04676        GCOMP5             TC       BANKCALL
001187: 33,3621           16063                           CADR     MKRELEAS
001188: 33,3622           05574                           TC       DOWNFLAG
001189: 33,3623           00032                           ADRES    TRM03FLG
001190:
001191: 33,3624           05370                           TC       NEWMODEX
001192: 33,3625           00002                           MM       02         B-14
001193: 33,3626           05426                           TC       PHASCHNG
001194: 33,3627           00004                           OCT      00004
001195: 33,3630           05233                           TC       ENDOFJOB
001196: 33,3631           01535        V06N93S            VN       0693
001197: 33,3632           05664        GTSOPTCS           TC       ALARM
001198: 33,3633           01602        GTSOPTSS           OCT      01602
001199: 33,3634           03620                           TC       GCOMP5
001200:
001201:
001202: 34,2002                                           BANK     34
001203: 04,2000                                           SETLOC   IMUCAL1
001204: 04,2000                                           BANK
001205:
001206: 04,2613                                           COUNT    34/COMST
001207:
001208: 04,2613           62545        LATAZCHK           DLOAD    SL2                                   #  CALLS FOR AZIMUTH AND LATITUDE
001209: 04,2614           02403                                    LATITUDE
001210: 04,2615           15047                           STODL    DSPTEM1    +1
001211: 04,2616           02401                                    AZIMUTH
001212: 04,2617           77434                           RTB      EXIT
001213: 04,2620           45546                                    1STO2S
001214: 04,2621           56154                           XCH      MPAC
001215: 04,2622           55045                           TS       DSPTEM1
001216: 04,2623           04676                           TC       BANKCALL
001217: 04,2624           20703                           CADR     CLEANDSP
001218: 04,2625           32644                           CAF      VNG0641
001219: 04,2626           04676                           TC       BANKCALL
001220: 04,2627           20720                           CADR     GOFLASH
001221: 04,2630           02632                           TC       +2                                    #  NOT ALLOWED
001222: 04,2631           02633                           TC       +2
001223: 04,2632           02625                           TC       -5
001224: 04,2633           06006                           TC       INTPRET
001225: 04,2634           47135                           SLOAD    RTB
001226: 04,2635           01046                                    DSPTEM1
001227: 04,2636           45513                                    CDULOGIC
001228: 04,2637           02401                           STORE    AZIMUTH
001229: 04,2640           60535                           SLOAD    SR2
001230: 04,2641           01047                                    DSPTEM1    +1
001231: 04,2642           02403                           STORE    LATITUDE
001232: 04,2643           77616                           RVQ
001233: 04,2644           01451        VNG0641            VN       0641
001234: 33,3635                                           BANK     33
001235: 33,2000                                           SETLOC   IMUCAL
001236: 33,2000                                           BANK
001237:
001238:
001239: 33,3635                                           COUNT*   $$/P03
001240: 33,3635           00006        TARGDRVE           EXTEND
001241: 33,3636           23424                           QXCH     QPLAC
001242: 33,3637           55431                           TS       TARG1/2
001243: 33,3640           06006                           TC       INTPRET
001244: 33,3641           77624                           CALL
001245: 33,3642           67502                                    TAR/EREF
001246: 33,3643           76740                           LXC,1    VLOAD*
001247: 33,3644           02431                                    TARG1/2
001248: 33,3645           00007                                    6D,1
001249: 33,3646           36766                           STCALL   STAR
001250: 33,3647           46053                                    SXTANG
001251: 33,3650           77776                           EXIT
001252: 33,3651           31773                           CA       SAC
001253: 33,3652           55161                           TS       DESOPTS
001254:
001255: 33,3653           31775                           CA       PAC
001256: 33,3654           55160                           TS       DESOPTT
001257: 33,3655           35035        RETARG             CAF      ZERO
001258: 33,3656           55303                           TS       OPTIND
001259: 33,3657           35033                           CAF      ONE
001260: 33,3660           04676                           TC       BANKCALL
001261: 33,3661           16002                           CADR     SXTMARK
001262: 33,3662           04676                           TC       BANKCALL
001263: 33,3663           17573                           CADR     OPTSTALL
001264: 33,3664           03632                           TC       GTSOPTCS
001265: 33,3665           30075                           CAE      FLAGWRD1
001266: 33,3666           75030                           MASK     TRM03BIT
001267: 33,3667           10000                           CCS      A
001268: 33,3670           03620                           TC       GCOMP5
001269:
001270: 33,3671           51330                           INDEX    MARKSTAT
001271: 33,3672           30052                           CA       QPRET
001272: 33,3673           00006                           EXTEND
001273: 33,3674           13676                           BZF      RETARG1
001274: 33,3675           01424                           TC       QPLAC
001275:
001276:
001277: 33,3676           35035        RETARG1            CA       ZERO                                  #  RELEASE PREVIOUSLY GRABBED VAC AREA
001278: 33,3677           57330                           XCH      MARKSTAT
001279: 33,3700           10000                           CCS      A
001280: 33,3701           50000                           INDEX    A
001281: 33,3702           54000                           TS       A
001282: 33,3703           13655                           TCF      RETARG                                #  GO DO SXTMARK AGAIN
001283: 33,3704                                           BANK     33
001284: 33,2000                                           SETLOC   IMUCAL
001285: 33,2000                                           BANK
001286: 33,3704                                           COUNT*   $$/P03
001287: 33,3704           30341 22444  PIPASC             2DEC     .76376833
001288:
001289: 33,3706           57223 66451  VELSC              2DEC     -.52223476
001290:
001291: 33,3710           05427 12577  ALSK               2DEC     .17329931
001292:
001293: 33,3712           77567 44202                     2DEC     -.00835370
001294:
001295: 33,3714           24276 14066  GEORGEJ            2DEC     .63661977
001296:
001297: 33,3716           03146 14632  GEOCONS1           2DEC     .1
001298:
001299: 33,3720           00121 35341  GEOCONS2           2DEC     .005
001300:
001301: 33,3722           01767 31666  GEOCONS3           2DEC     .062
001302:
001303: 33,3724           00004 35223  GEOCONS4           2DEC     .0003
001304:
001305:
001306: 33,3726                                           COUNT    33/P02
001307: 33,3726           77620        LITTLSUB           STQ
001308: 33,3727           02424                                    QPLAC
001309: 33,3730           76740                           LXC,1    VLOAD*
001310: 33,3731           01330                                    MARKSTAT
001311: 33,3732           00003                                    2,1
001312: 33,3733           34767                           STCALL   CDUSPOT
001313: 33,3734           46000                                    SXTNB
001314: 33,3735           77624                           CALL
001315: 33,3736           47641                                    TRG*NBSM
001316: 33,3737           77650                           GOTO
001317: 33,3740           02424                                    QPLAC
001318:
001319:
001320: 33,3741           77776                           EXIT
001321: 33,3742           06006        AZMTHCG1           TC       INTPRET
001322: 33,3743           47145                           DLOAD    RTB
001323: 33,3744           02636                                    NEWAZMTH
001324: 33,3745           45546                                    1STO2S
001325: 33,3746           77776                           EXIT
001326: 33,3747           56154                           XCH      MPAC
001327: 33,3750           55045                           TS       DSPTEM1
001328: 33,3751           04676                           TC       BANKCALL
001329: 33,3752           20703                           CADR     CLEANDSP
001330: 33,3753           33775                           CAF      VN0629
001331: 33,3754           04676                           TC       BANKCALL
001332: 33,3755           20720                           CADR     GOFLASH
001333: 33,3756           13767                           TCF      +11
001334: 33,3757           13761                           TCF      +2
001335: 33,3760           13753                           TCF      -5
001336: 33,3761           06006                           TC       INTPRET
001337: 33,3762           47135                           SLOAD    RTB
001338: 33,3763           01046                                    DSPTEM1
001339: 33,3764           45513                                    CDULOGIC
001340: 33,3765           02634                           STORE    LAUNCHAZ
001341: 33,3766           77776                           EXIT
001342: 33,3767           35035                 +11       CA       ZERO
001343: 33,3770           55632                           TS       PREMTRXC
001344: 33,3771           05426                           TC       PHASCHNG
001345: 33,3772           00004                           OCT      00004
001346: 33,3773           04715                           TC       POSTJUMP
001347: 33,3774           21272                           CADR     PINBRNCH
001348:
001349: 33,3775           01435        VN0629             VN       0629

End of include-file IMU_CALIBRATION_AND_ALIGNMENT.agc.  Parent file is MAIN.agc


