
Source Code


000002:                                                                                                  ## Copyright:   Public domain.
000003:                                                                                                  ## Filename:    IMU_MODE_SWITCHING_ROUTINES.agc
000004:                                                                                                  ## Purpose:     A section of Comanche revision 072.
000005:                                                                                                  ##              It is part of the reconstructed source code for the first
000006:                                                                                                  ##              release of the software for the Command Module's (CM) Apollo
000007:                                                                                                  ##              Guidance Computer (AGC) for Apollo 13. No original listings
000008:                                                                                                  ##              of this program are available; instead, this file was recreated
000009:                                                                                                  ##              from a printout of Comanche 055, binary dumps of a set of
000010:                                                                                                  ##              Comanche 067 rope modules, and changelogs between Comanche 067
000011:                                                                                                  ##              and 072. It has been adapted such that the resulting bugger words
000012:                                                                                                  ##              exactly match those specified for Comanche 072 in NASA drawing
000013:                                                                                                  ##              2021153G, which gives relatively high confidence that the
000014:                                                                                                  ##              reconstruction is correct.
000015:                                                                                                  ## Assembler:   yaYUL
000016:                                                                                                  ## Contact:     Ron Burkey <info@sandroid.org>.
000017:                                                                                                  ## Website:     www.ibiblio.org/apollo/index.html
000018:                                                                                                  ## Mod history: 2024-05-13 MAS  Created from Comanche 067.
000019:
000020:    5535                                           BLOCK    02
000021:    4000                                           SETLOC   FFTAG3
000022:    4000                                           BANK
000023:
000024:    5535  E3,1471                                  EBANK=   COMMAND
000025:
000026:                                                                                                  #  FIXED-FIXED ROUTINES.
000027:
000028:    5535                                           COUNT    02/IMODE
000029:
000030:    5535           35035        ZEROICDU           CAF      ZERO                                  #  ZERO ICDU COUNTERS.
000031:    5536           54032                           TS       CDUX
000032:    5537           54033                           TS       CDUY
000033:    5540           54034                           TS       CDUZ
000034:    5541           00002                           TC       Q
000035:
000036:    5542     5023               SPSCODE            =        BIT9
000037:
000038:                                                                                                  #  IMU ZEROING ROUTINE.
000039:
000040: 11,3760                                           BANK     11
000041: 07,2000                                           SETLOC   MODESW
000042: 07,2000                                           BANK
000043:
000044: 07,2577                                           COUNT    07/IMODE
000045:
000046: 07,2577           00004        IMUZERO            INHINT                                         #  ROUTINE TO ZERO ICDUS.
000047: 07,2600           41036                           CS       DSPTAB     +11D                       #  DONT ZERO CDUS IF IMU IN GIMBAL LOCK AND
000048: 07,2601           75047                           MASK     BITS4&6                               #  COARSE ALIGN (GIMBAL RUNAWAY PROTECTION)
000049: 07,2602           10000                           CCS      A
000050: 07,2603           12607                           TCF      IMUZEROA
000051:
000052: 07,2604           05664                           TC       ALARM                                 #  IF SO.
000053: 07,2605           00206                           OCT      00206
000054:
000055: 07,2606           13542                           TCF      CAGETSTJ   +4                         #  IMMEDIATE FAILURE.
000056:
000057: 07,2607           03536        IMUZEROA           TC       CAGETSTJ
000058:
000059:                                                                                                  #  DO ALL THE WORK.
000060:
000061: 07,2610           41321                           CS       IMODES33                              #  DISABLE DAP AUTO AND HOLD MODES
000062: 07,2611           75051                           MASK     SUPER011                              #        BIT5 FOR GROUND
000063: 07,2612           27321                           ADS      IMODES33
000064:
000065: 07,2613           41320                           CS       IMODES30                              #  INHIBIT ICDUFAIL AND IMUFAIL (IN CASE WE
000066: 07,2614           75775                           MASK     BITS3&4                               #  JUST CAME OUT OF COARSE ALIGN).
000067: 07,2615           27320                           ADS      IMODES30
000068:
000069: 07,2616           45047                           CS       BITS4&6                               #  SEND ZERO ENCODE WITH COARSE AND ERROR
000070: 07,2617           00006                           EXTEND                                         #  COUNTER DISABLED.
000071: 07,2620           03012                           WAND     CHAN12
000072:
000073: 07,2621           03151                           TC       NOATTOFF                              #  TURN OFF NO ATT LAMP.
000074:
000075: 07,2622           35027                           CAF      BIT5
000076: 07,2623           00006                           EXTEND
000077: 07,2624           05012                           WOR      CHAN12
000078:
000079: 07,2625           05535                           TC       ZEROICDU
000080: 07,2626           35026                           CAF      BIT6                                  #  WAIT 320 MS TO GIVE AGS ADEQUATE TIME TO
000081: 07,2627           05261                           TC       WAITLIST                              #  RECEIVE ITS PULSE TRAIN.
000082: 07,2630  E3,1474                                  EBANK=   CDUIND
000083: 07,2630           02642 16063                     2CADR    IMUZERO2
000084:
000085: 07,2632           41320                           CS       IMODES30                              #  SEE IF IMU OPERATING AND ALARM IF NOT.
000086: 07,2633           75023                           MASK     BIT9
000087: 07,2634           10000                           CCS      A
000088: 07,2635           12640                           TCF      MODEEXIT
000089: 07,2636           05664                           TC       ALARM
000090: 07,2637           00210                           OCT      210
000091:
000092: 07,2640           00003        MODEEXIT           RELINT                                         #  GENERAL MODE-SWITCHING EXIT.
000093: 07,2641           14711                           TCF      SWRETURN
000094:
000095: 07,2642           03524        IMUZERO2           TC       CAGETEST
000096: 07,2643           05535                           TC       ZEROICDU                              #  ZERO CDUX, CDUY, CDUZ
000097:
000098: 07,2644           45027                           CS       BIT5                                  #  REMOVE ZERO DISCRETE.
000099: 07,2645           00006                           EXTEND
000100: 07,2646           03012                           WAND     CHAN12
000101:
000102: 07,2647           35021                           CAF      BIT11                                 #  WAIT 10 SECS FOR CTRS TO FIND GIMBALS
000103: 07,2650           05306                           TC       VARDELAY
000104:
000105: 07,2651           03524        IMUZERO3           TC       CAGETEST
000106: 07,2652           45775                           CS       BITS3&4                               #  REMOVE IMUFAIL AND ICDUFAIL INHIBIT.
000107: 07,2653           71320                           MASK     IMODES30
000108: 07,2654           55320                           TS       IMODES30
000109:
000110: 07,2655           45051                           CS       SUPER011                              #  ENABLE DAP AUTO AND HOLD MODES
000111: 07,2656           71321                           MASK     IMODES33                              #        BIT5 FOR GROUND
000112: 07,2657           55321                           TS       IMODES33
000113:
000114: 07,2660           04754                           TC       IBNKCALL                              #  SET ISS WARNING IF EITHER OF ABOVE ARE
000115: 07,2661           14665                           CADR     SETISSW                               #  PRESENT.
000116:
000117: 07,2662           13514                           TCF      ENDIMU
000118:
000119:                                                                                                  #  IMU COARSE ALIGN MODE.
000120:
000121: 07,2663           00004        IMUCOARS           INHINT
000122: 07,2664           03536                           TC       CAGETSTJ
000123: 07,2665           03027                           TC       SETCOARS
000124:
000125: 07,2666           36211                           CAF      SIX
000126: 07,2667           05261                           TC       WAITLIST
000127: 07,2670  E3,1474                                  EBANK=   CDUIND
000128: 07,2670           02673 16063                     2CADR    COARS
000129:
000130: 07,2672           12640                           TCF      MODEEXIT
000131:
000132: 07,2673           03524        COARS              TC       CAGETEST
000133: 07,2674           35026                           CAF      BIT6                                  #  ENABLE ALL THREE ISS CDU ERROR COUNTERS
000134: 07,2675           00006                           EXTEND
000135: 07,2676           05012                           WOR      CHAN12
000136:
000137: 07,2677           35032                           CAF      TWO                                   #  SET CDU INDICATOR
000138: 07,2700           55474        COARS1             TS       CDUIND
000139:
000140: 07,2701           51474                           INDEX    CDUIND                                #  COMPUTE THETAD - THETAA IN 1:S
000141: 07,2702           31155                           CA       THETAD                                #        COMPLEMENT FORM
000142: 07,2703           00006                           EXTEND
000143: 07,2704           51474                           INDEX    CDUIND
000144: 07,2705           20032                           MSU      CDUX
000145: 07,2706           00006                           EXTEND
000146: 07,2707           75017                           MP       BIT13                                 #  SHIFT RIGHT 2
000147: 07,2710           56001                           XCH      L                                     #  ROUND
000148: 07,2711           60000                           DOUBLE
000149: 07,2712           54061                           TS       ITEMP1
000150: 07,2713           12715                           TCF      +2
000151: 07,2714           26001                           ADS      L
000152:
000153: 07,2715           51474                           INDEX    CDUIND                                #  DIFFERENCE TO BE COMPUTED
000154: 07,2716           23471                           LXCH     COMMAND
000155: 07,2717           11474                           CCS      CDUIND
000156: 07,2720           02700                           TC       COARS1
000157:
000158: 07,2721           35032                           CAF      TWO                                   #  MINIMUM OF 4 MS WAIT
000159: 07,2722           05306                           TC       VARDELAY
000160:
000161: 07,2723           03524        COARS2             TC       CAGETEST                              #  DONT CONTINUE IF CAGED.
000162: 07,2724           54061                           TS       ITEMP1                                #  SETS TO +0.
000163: 07,2725           35032                           CAF      TWO                                   #  SET CDU INDICATOR
000164: 07,2726           55474                 +3        TS       CDUIND
000165:
000166: 07,2727           51474                           INDEX    CDUIND
000167: 07,2730           11471                           CCS      COMMAND                               #  NUMBER OF PULSES REQUIRED
000168: 07,2731           02735                           TC       COMPOS                                #  GREATER THAN MAX ALLOWED
000169: 07,2732           02744                           TC       NEXTCDU    +1
000170: 07,2733           03002                           TC       COMNEG
000171: 07,2734           02744                           TC       NEXTCDU    +1
000172:
000173: 07,2735           63624        COMPOS             AD       -COMMAX                               #  COMMAX = MAX NUMBER OF PULSES ALLOWED
000174: 07,2736           00006                           EXTEND                                         #        MINUS ONE
000175: 07,2737           63012                           BZMF     COMZERO
000176: 07,2740           51474                           INDEX    CDUIND
000177: 07,2741           55471                           TS       COMMAND                               #  REDUCE COMMAND BY MAX NUMBER OF PULSES
000178: 07,2742           43625                           CS       -COMMAX-                              #        ALLOWED
000179:
000180: 07,2743           24061        NEXTCDU            INCR     ITEMP1
000181: 07,2744           65034                           AD       NEG0
000182: 07,2745           51474                           INDEX    CDUIND
000183: 07,2746           54050                           TS       CDUXCMD                               #  SET UP COMMAND REGISTER.
000184:
000185: 07,2747           11474                           CCS      CDUIND
000186: 07,2750           02726                           TC       COARS2     +3
000187:
000188: 07,2751           10061                           CCS      ITEMP1                                #  SEE IF ANY PULSES TO GO OUT.
000189: 07,2752           13016                           TCF      SENDPULS
000190:
000191: 07,2753           05303                           TC       FIXDELAY                              #  WAIT FOR GIMBALS TO SETTLE.
000192: 07,2754           00226                           DEC      150        B-14
000193:
000194: 07,2755           35032                           CAF      TWO                                   #  AT END OF COMMAND, CHECK TO SEE THAT
000195: 07,2756           54061        CHKCORS            TS       ITEMP1                                #  GIMBALS ARE WITHIN 2 DEGREES OF THETAD.
000196: 07,2757           50000                           INDEX    A
000197: 07,2760           30032                           CA       CDUX
000198: 07,2761           00006                           EXTEND
000199: 07,2762           50061                           INDEX    ITEMP1
000200: 07,2763           21155                           MSU      THETAD
000201: 07,2764           10000                           CCS      A
000202: 07,2765           12773                           TCF      COARSERR
000203: 07,2766           12770                           TCF      CORSCHK2
000204: 07,2767           12773                           TCF      COARSERR
000205:
000206: 07,2770           10061        CORSCHK2           CCS      ITEMP1
000207: 07,2771           12756                           TCF      CHKCORS
000208: 07,2772           13514                           TCF      ENDIMU                                #  END OF COARSE ALIGNMENT.
000209:
000210: 07,2773           63001        COARSERR           AD       COARSTOL                              #  2 DEGREES.
000211: 07,2774           00006                           EXTEND
000212: 07,2775           62770                           BZMF     CORSCHK2
000213:
000214: 07,2776           05664                           TC       ALARM                                 #  COARSE ALIGN ERROR.
000215: 07,2777           00211                           OCT      211
000216:
000217: 07,3000           13522                           TCF      IMUBAD
000218:
000219: 07,3001           77511        COARSTOL           DEC      -.01111                               #  2 DEGREES SCALED AT HALF-REVOLUTIONS
000220:
000221: 07,3002           63624        COMNEG             AD       -COMMAX
000222: 07,3003           00006                           EXTEND
000223: 07,3004           63012                           BZMF     COMZERO
000224: 07,3005           40000                           COM
000225: 07,3006           51474                           INDEX    CDUIND
000226: 07,3007           55471                           TS       COMMAND
000227: 07,3010           33625                           CA       -COMMAX-
000228: 07,3011           02743                           TC       NEXTCDU
000229:
000230: 07,3012           35035        COMZERO            CAF      ZERO
000231: 07,3013           51474                           INDEX    CDUIND
000232: 07,3014           57471                           XCH      COMMAND
000233: 07,3015           02743                           TC       NEXTCDU
000234:
000235: 07,3016           37707        SENDPULS           CAF      13,14,15
000236: 07,3017           00006                           EXTEND
000237: 07,3020           05014                           WOR      CHAN14
000238: 07,3021           33626                           CAF      600MS
000239: 07,3022           12722                           TCF      COARS2     -1                         #  THEN TO VARDELAY
000240:
000241: 07,3023           35026        CA+ECE             CAF      BIT6                                  #  ENABLE ALL THREE ISS CDU ERROR COUNTERS
000242: 07,3024           00006                           EXTEND
000243: 07,3025           05012                           WOR      CHAN12
000244: 07,3026           05340                           TC       TASKOVER
000245:
000246: 07,3027           35030        SETCOARS           CAF      BIT4                                  #  BYPASS IF ALREADY IN COARSE ALIGN
000247: 07,3030           00006                           EXTEND
000248: 07,3031           02012                           RAND     CHAN12
000249: 07,3032           10000                           CCS      A
000250: 07,3033           00002                           TC       Q
000251:
000252: 07,3034           45026                           CS       BIT6                                  #  CLEAR ISS ERROR COUNTERS
000253: 07,3035           00006                           EXTEND
000254: 07,3036           03012                           WAND     CHAN12
000255:
000256: 07,3037           45022                           CS       BIT10                                 #  KNOCK DOWN GYRO ACTIVITY
000257: 07,3040           00006                           EXTEND
000258: 07,3041           03014                           WAND     CHAN14
000259: 07,3042           45035                           CS       ZERO
000260: 07,3043           54047                           TS       GYROCMD
000261:
000262: 07,3044           35030                           CAF      BIT4                                  #  PUT ISS IN COARSE ALIGN
000263: 07,3045           00006                           EXTEND
000264: 07,3046           05012                           WOR      CHAN12
000265:
000266: 07,3047           41036                           CS       DSPTAB     +11D                       #  TURN ON NO ATT LAMP
000267: 07,3050           73072                           MASK     OCT40010
000268: 07,3051           27036                           ADS      DSPTAB     +11D
000269:
000270: 07,3052           41321                           CS       IMODES33                              #  DISABLE DAP AUTO AND HOLD MODES
000271: 07,3053           75026                           MASK     BIT6
000272: 07,3054           27321                           ADS      IMODES33
000273:
000274: 07,3055           41320                           CS       IMODES30                              #  DISABLE IMUFAIL
000275: 07,3056           75030                           MASK     BIT4
000276: 07,3057           27320                           ADS      IMODES30
000277:
000278: 07,3060           45027        RNDREFDR           CS       BIT5                                  #  KNOCK DOWN TRACK FLAG
000279: 07,3061           70075                           MASK     FLAGWRD1
000280: 07,3062           54075                           TS       FLAGWRD1
000281:
000282: 07,3063           45015                           CS       BIT15                                 #  KNOCK DOWN DRIFT FLAG
000283: 07,3064           70076                           MASK     FLAGWRD2
000284: 07,3065           54076                           TS       FLAGWRD2
000285:
000286: 07,3066           45017                           CS       BIT13                                 #  KNOCK DOWN REFSMMAT FLAG
000287: 07,3067           70077                           MASK     FLAGWRD3
000288: 07,3070           54077                           TS       FLAGWRD3
000289:
000290: 07,3071           00002                           TC       Q
000291:
000292: 07,3072           40010        OCT40010           OCT      40010
000293:
000294:                                                                                                  #  IMU FINE ALIGN MODE SWITCH.
000295:
000296: 07,3073           00004        IMUFINE            INHINT
000297: 07,3074           03536                           TC       CAGETSTJ                              #  SEE IF IMU BEING CAGED.
000298:
000299: 07,3075           45043                           CS       BITS4-5                               #  RESET ZERO AND COARSE
000300: 07,3076           00006                           EXTEND
000301: 07,3077           03012                           WAND     CHAN12
000302:
000303: 07,3100           45026                           CS       BIT6                                  #  INSURE DAP AUTO AND HOLD MODES ENABLED
000304: 07,3101           71321                           MASK     IMODES33
000305: 07,3102           55321                           TS       IMODES33
000306:
000307: 07,3103           03151                           TC       NOATTOFF
000308:
000309: 07,3104           35022                           CAF      BIT10                                 #  IMU FAIL WAS INHIBITED DURING THE
000310: 07,3105           05261                           TC       WAITLIST                              #  PRESUMABLY PRECEDING COARSE ALIGN.  LEAVE
000311: 07,3106  E3,1474                                  EBANK=   CDUIND
000312: 07,3106           03117 16063                     2CADR    IFAILOK                               #  IT ON FOR THE FIRST 5 SECS OF FINE ALIGN
000313:
000314: 07,3110           35056                           CAF      2SECS
000315: 07,3111           05261                           TC       WAITLIST
000316: 07,3112  E3,1474                                  EBANK=   CDUIND
000317: 07,3112           03115 16063                     2CADR    IMUFINED
000318:
000319: 07,3114           12640                           TCF      MODEEXIT
000320:
000321: 07,3115           03524        IMUFINED           TC       CAGETEST                              #  SEE THAT NO ONE HAS CAGED THE IMU.
000322: 07,3116           13514                           TCF      ENDIMU
000323:
000324: 07,3117           03531        IFAILOK            TC       CAGETSTQ                              #  ENABLE IMU FIAL UNLESS IMU BEING CAGED.
000325: 07,3120           15340                           TCF      TASKOVER                              #  IT IS.
000326:
000327: 07,3121           35030                           CAF      BIT4                                  #  DONT RESET IMU FAIL INHIBIT IF SOMEONE
000328: 07,3122           00006                           EXTEND                                         #  HAS GONE INTO COARSE ALIGN.
000329: 07,3123           02012                           RAND     CHAN12
000330: 07,3124           10000                           CCS      A
000331: 07,3125           15340                           TCF      TASKOVER
000332:
000333: 07,3126           41320                           CS       IMODES30                              #  RESET IMUFAIL.
000334: 07,3127           75017                           MASK     BIT13
000335: 07,3130           27320                           ADS      IMODES30
000336: 07,3131           45030                           CS       BIT4
000337: 07,3132           71320        PFAILOK2           MASK     IMODES30
000338: 07,3133           55320                           TS       IMODES30
000339: 07,3134           04754                           TC       IBNKCALL                              #  THE ISS WARNING LIGHT MAY COME ON NOW
000340: 07,3135           14665                           CADR     SETISSW                               #  THAT THE INHIBIT HAS BEEN REMOVED.
000341: 07,3136           15340                           TCF      TASKOVER
000342:
000343: 07,3137           03531        PFAILOK            TC       CAGETSTQ                              #  ENABLE PIP FAIL PROG ALARM.
000344: 07,3140           15340                           TCF      TASKOVER
000345:
000346: 07,3141           41320                           CS       IMODES30                              #  RESET IMU AND PIPA FAIL BITS.
000347: 07,3142           75022                           MASK     BIT10
000348: 07,3143           27320                           ADS      IMODES30
000349:
000350: 07,3144           41321                           CS       IMODES33
000351: 07,3145           75017                           MASK     BIT13
000352: 07,3146           27321                           ADS      IMODES33
000353:
000354: 07,3147           45027                           CS       BIT5
000355: 07,3150           13132                           TCF      PFAILOK2
000356:
000357: 07,3151           43072        NOATTOFF           CS       OCT40010                              #  SUBROUTINE TO TURN OFF NO ATT LAMP.
000358: 07,3152           71036                           MASK     DSPTAB     +11D
000359: 07,3153           65015                           AD       BIT15
000360: 07,3154           55036                           TS       DSPTAB     +11D
000361: 07,3155           00002                           TC       Q
000362:
000363:                                                                                                  #  ROUITNES TO INITIATE AND TERMINATE PROGRAM USE OF THE PIPAS.  NO IMUSTALL REQUIRED IN EITHER CASE.
000364:
000365: 07,3156           45035        PIPUSE             CS       ZERO
000366: 07,3157           54037                           TS       PIPAX
000367: 07,3160           54040                           TS       PIPAY
000368: 07,3161           54041                           TS       PIPAZ
000369:
000370: 07,3162           03531        PIPUSE1            TC       CAGETSTQ                              #  DO NOT ENABLE PIPA FAIL IF IMU IS CAGED
000371: 07,3163           14711                           TCF      SWRETURN
000372:
000373: 07,3164           00004                           INHINT
000374: 07,3165           45033                           CS       BIT1                                  #  IF PIPA FAILS FROM NOW ON (UNTIL
000375: 07,3166           71320                           MASK     IMODES30                              #  PIPFREE), LIGHT ISS WARNING.
000376: 07,3167           55320                           TS       IMODES30
000377:
000378: 07,3170           04754        PIPFREE2           TC       IBNKCALL                              #  ISS WARNING MIGHT COME ON NOW.
000379: 07,3171           14665                           CADR     SETISSW                               #  (OR GO OFF ON PIPFREE).
000380:
000381: 07,3172           12640                           TCF      MODEEXIT
000382:
000383: 07,3173           00004        PIPFREE            INHINT                                         #  PROGRAM DONE WITH PIPAS.  DONT LIGHT
000384: 07,3174           41320                           CS       IMODES30                              #  ISS WARNING.
000385: 07,3175           75033                           MASK     BIT1
000386: 07,3176           27320                           ADS      IMODES30
000387:
000388: 07,3177           75022                           MASK     BIT10                                 #  IF PIP FAIL ON, DO PROG ALSRM AND RESET
000389: 07,3200           10000                           CCS      A                                     #  ISS WARNING.
000390: 07,3201           12640                           TCF      MODEEXIT
000391:
000392: 07,3202           05664                           TC       ALARM
000393: 07,3203           00212                           OCT      212
000394:
000395: 07,3204           00004                           INHINT
000396:
000397: 07,3205           13170                           TCF      PIPFREE2
000398:
000399:                                                                                                  #  THE FOLLOWING ROUTINE TORQUES THE IRIGS ACCORDING TO DOUBLE PRECISION INPUTS IN THE SIX REGISTERS
000400:                                                                                                  #  BEGINNING AT THE ECADR ARRIVING IN A.  THE MINIMUM SIZE OF ANY PULSE TRAIN IS 16 PULSES (.25 CDU COUNTS).  THE
000401:                                                                                                  #  UNSENT PORTION OF THE COMMAND IS LEFT INTACT IN THE INPUT COMMAND REGISTERS.
000402:
000403: 07,3206  E3,1400                                  EBANK=   1400                                  #  VARIABLE, ACTUALLY.
000404:
000405: 07,3206           54161        IMUPULSE           TS       MPAC       +5                         #  SAVE ARRIVING ECADR.
000406: 07,3207           03536                           TC       CAGETSTJ                              #  DONT PROCEED IF IMU BEING CAGED.
000407:
000408: 07,3210           11304                           CCS      LGYRO                                 #  SEE IF GYROS BUSY.
000409: 07,3211           03252                           TC       GYROBUSY                              #  SLEEP.
000410:
000411: 07,3212           54156                           TS       MPAC       +2
000412: 07,3213           35026                           CAF      BIT6                                  #  ENABLE THE POWER SUPPLY.
000413: 07,3214           00006                           EXTEND
000414: 07,3215           05014                           WOR      CHAN14
000415:
000416: 07,3216           35031                           CAF      FOUR
000417: 07,3217           05261        GWAKE2             TC       WAITLIST                              #  (IF A JOB WAS PUT TO SLEEP, THE POWER
000418: 07,3220  E3,1474                                  EBANK=   CDUIND                                #  SUPPLY IS LEFT ON BY THE WAKING JOB).
000419: 07,3220           03270 16063                     2CADR    STRTGYRO
000420:
000421: 07,3222           30161                           CA       MPAC       +5                         #  SET UP EBANK, SAVING CALLER'S EBANK FOR
000422: 07,3223           56003                           XCH      EBANK                                 #  RESTORATION ON RETURN.
000423: 07,3224           56161                           XCH      MPAC       +5
000424: 07,3225           55304                           TS       LGYRO                                 #  RESERVES GYROS.
000425: 07,3226           74373                           MASK     LOW8
000426: 07,3227           54061                           TS       ITEMP1
000427:
000428: 07,3230           35032                           CAF      TWO                                   #  FORCE SIGN AGREEMENT ON INPUTS.
000429: 07,3231           54157        GYROAGRE           TS       MPAC       +3
000430: 07,3232           60000                           DOUBLE
000431: 07,3233           60061                           AD       ITEMP1
000432: 07,3234           54160                           TS       MPAC       +4
000433: 07,3235           00006                           EXTEND
000434: 07,3236           50000                           INDEX    A
000435: 07,3237           31401                           DCA      1400
000436: 07,3240           52155                           DXCH     MPAC
000437: 07,3241           07226                           TC       TPAGREE
000438: 07,3242           52155                           DXCH     MPAC
000439: 07,3243           50160                           INDEX    MPAC       +4
000440: 07,3244           53401                           DXCH     1400
000441:
000442: 07,3245           10157                           CCS      MPAC       +3
000443: 07,3246           13231                           TCF      GYROAGRE
000444:
000445: 07,3247           30161                           CA       MPAC       +5                         #  RESTORE CALLER'S EBANK.
000446: 07,3250           54003                           TS       EBANK
000447: 07,3251           12640                           TCF      MODEEXIT
000448:
000449:                                                                                                  #  ROUTINES TO ALLOW TORQUING BY ONLY ONE JOB AT A TIME.
000450:
000451: 07,3252           00006        GYROBUSY           EXTEND                                         #  SAVE RETURN 2FCADR.
000452: 07,3253           30134                           DCA      BUF2
000453: 07,3254           52155                           DXCH     MPAC
000454: 07,3255           33267        REGSLEEP           CAF      LGWAKE
000455: 07,3256           15211                           TCF      JOBSLEEP
000456:
000457: 07,3257           11304        GWAKE              CCS      LGYRO                                 #  WHEN AWAKENED, SEE IF GYROS STILL BUSY.
000458: 07,3260           13255                           TCF      REGSLEEP                              #  IF SO, SLEEP SOME MORE.
000459:
000460: 07,3261           54156                           TS       MPAC       +2
000461: 07,3262           00006                           EXTEND
000462: 07,3263           30155                           DCA      MPAC
000463: 07,3264           52134                           DXCH     BUF2                                  #  RESTORE SWRETURN INFO.
000464: 07,3265           35033                           CAF      ONE
000465: 07,3266           13217                           TCF      GWAKE2
000466:
000467: 07,3267           17257        LGWAKE             CADR     GWAKE
000468:
000469:                                                                                                  #  GYRO-TORQUING WAITLIST TASKS.
000470:
000471: 07,3270           43511        STRTGYRO           CS       GDESELCT                              #  DE-SELECT LAST GYRO.
000472: 07,3271           00006                           EXTEND
000473: 07,3272           03014                           WAND     CHAN14
000474:
000475: 07,3273           03524                           TC       CAGETEST
000476:
000477: 07,3274           31304        STRTGYR2           CA       LGYRO                                 #  JUMP ON PHASE COUNTER IN BITS 13-14.
000478: 07,3275           00006                           EXTEND
000479: 07,3276           75030                           MP       BIT4
000480: 07,3277           50000                           INDEX    A
000481: 07,3300           13301                           TCF      +1
000482: 07,3301           03316                           TC       GSELECT                               #  =0.  DO Y GYRO.
000483: 07,3302           00202                           OCT      00202
000484:
000485: 07,3303           03316                           TC       GSELECT                               #  =1.  DO Z GYRO.
000486: 07,3304           00302                           OCT      00302
000487:
000488: 07,3305           03314                           TC       GSELECT    -2                         #  =2.  DO X GYRO.
000489: 07,3306           00100                           OCT      00100
000490:
000491: 07,3307           35035                           CAF      ZERO                                  #  =3.  DONE
000492: 07,3310           55304                           TS       LGYRO
000493: 07,3311           33267                           CAF      LGWAKE                                #  WAKE A POSSIBLE SLEEPING JOB.
000494: 07,3312           05215                           TC       JOBWAKE
000495:
000496: 07,3313           13115        NORESET            TCF      IMUFINED                              #  DO NOT RESET POWER SUPPLY
000497: 07,3314           45031                 -2        CS       FOUR                                  #  SPECIAL ENTRY TO REGRESS LGYRO FOR X.
000498: 07,3315           27304                           ADS      LGYRO
000499:
000500: 07,3316           50002        GSELECT            INDEX    Q                                     #  SELECT GYRO.
000501: 07,3317           30000                           CAF      0                                     #  PACKED WORD CONTAINS GYRO SELECT BITS
000502: 07,3320           54064                           TS       ITEMP4                                #  AND INCREMENT TO LGYRO.
000503: 07,3321           75037                           MASK     SEVEN
000504: 07,3322           65017                           AD       BIT13
000505: 07,3323           27304                           ADS      LGYRO
000506: 07,3324           54003                           TS       EBANK
000507: 07,3325           74373                           MASK     LOW8
000508: 07,3326           54061                           TS       ITEMP1
000509:
000510: 07,3327           45037                           CS       SEVEN
000511: 07,3330           70064                           MASK     ITEMP4
000512: 07,3331           54064                           TS       ITEMP4
000513:
000514: 07,3332           00006                           EXTEND                                         #  MOVE DP COMMAND TO RUPTREGS FOR TESTING.
000515: 07,3333           50061                           INDEX    ITEMP1
000516: 07,3334           31401                           DCA      1400
000517: 07,3335           52071                           DXCH     RUPTREG1
000518:
000519: 07,3336           10070                           CCS      RUPTREG1
000520: 07,3337           13352                           TCF      MAJ+
000521: 07,3340           13342                           TCF      +2
000522: 07,3341           13472                           TCF      MAJ-
000523:
000524: 07,3342           10071                           CCS      RUPTREG2
000525: 07,3343           13347                           TCF      MIN+
000526: 07,3344           13274                           TCF      STRTGYR2
000527: 07,3345           13467                           TCF      MIN-
000528: 07,3346           13274                           TCF      STRTGYR2
000529:
000530: 07,3347           63403        MIN+               AD       -GYROMIN                              #  SMALL POSITIVE COMMAND.  SEE IF AT LEAST
000531: 07,3350           00006                           EXTEND                                         #  16 GYRO PULSES.
000532: 07,3351           63274                           BZMF     STRTGYR2
000533:
000534: 07,3352           00006        MAJ+               EXTEND                                         #  DEFINITE POSITIVE OUTPUT.
000535: 07,3353           33513                           DCA      GYROFRAC
000536: 07,3354           20071                           DAS      RUPTREG1
000537:
000538: 07,3355           30064                           CA       ITEMP4                                #  SELECT POSITIVE TORQUING FOR THIS GYRO.
000539: 07,3356           00006                           EXTEND
000540: 07,3357           05014                           WOR      CHAN14
000541:
000542: 07,3360           36043                           CAF      LOW7                                  #  LEAVE NUMBER OF POSSIBLE 8192 AUGMENTS
000543: 07,3361           70071                           MASK     RUPTREG2                              #  TO INITIAL COMMAND IN MAJOR PART OF LONG
000544: 07,3362           56071                           XCH      RUPTREG2                              #  TERM STORAGE AND TRUNCATED FRACTION
000545: 07,3363           00006        GMERGE             EXTEND                                         #  IN MINOR PART.  THE MAJOR PART WILL BE
000546: 07,3364           75024                           MP       BIT8                                  #  COUNTED DOWN TO ZERO IN THE COURSE OF
000547: 07,3365           54062                           TS       ITEMP2                                #  PUTTING OUT THE ENTIRE COMMAND.
000548: 07,3366           30070                           CA       RUPTREG1
000549: 07,3367           00006                           EXTEND
000550: 07,3370           75023                           MP       BIT9
000551: 07,3371           54070                           TS       RUPTREG1
000552: 07,3372           30001                           CA       L
000553: 07,3373           00006                           EXTEND
000554: 07,3374           75016                           MP       BIT14
000555: 07,3375           26062                           ADS      ITEMP2                                #  INITIAL COMMAND.
000556:
000557: 07,3376           00006                           EXTEND                                         #  SEE IF MORE THAN ONE PULSE TRAIN NEEDED
000558: 07,3377           30071                           DCA      RUPTREG1                              #  (MORE THAN 16383 PULSES).
000559: 07,3400           67716                           AD       MINUS1
000560: 07,3401           10000                           CCS      A
000561: 07,3402           13426                           TCF      LONGGYRO
000562: 07,3403           77601        -GYROMIN           OCT      -176                                  #  MAY BE ADJUSTED TO SPECIFY MINIMUM CMD
000563: 07,3404           13410                           TCF      +4
000564:
000565: 07,3405           35016                           CAF      BIT14
000566: 07,3406           26062                           ADS      ITEMP2
000567: 07,3407           35035                           CAF      ZERO
000568:
000569: 07,3410           50061                 +4        INDEX    ITEMP1
000570: 07,3411           53401                           DXCH     1400
000571: 07,3412           30062                           CA       ITEMP2                                #  ENTIRE COMMAND.
000572: 07,3413           54047        LASTSEG            TS       GYROCMD
000573: 07,3414           00006                           EXTEND
000574: 07,3415           75022                           MP       BIT10                                 #  WAITLIST DT
000575: 07,3416           66214                           AD       THREE                                 #  TRUNCATION AND PHASE UNCERTAINTIES.
000576: 07,3417           05261                           TC       WAITLIST
000577: 07,3420  E3,1474                                  EBANK=   CDUIND
000578: 07,3420           03270 16063                     2CADR    STRTGYRO
000579:
000580: 07,3422           35022        GYROEXIT           CAF      BIT10
000581: 07,3423           00006                           EXTEND
000582: 07,3424           05014                           WOR      CHAN14
000583: 07,3425           15340                           TCF      TASKOVER
000584:
000585: 07,3426           50061        LONGGYRO           INDEX    ITEMP1
000586: 07,3427           53401                           DXCH     1400                                  #  INITIAL COMMAND OUT PLUS N AUGMENTS OF
000587: 07,3430           35016                           CAF      BIT14                                 #  8192.  INITIAL COMMAND IS AT LEAST 8192.
000588: 07,3431           60062                           AD       ITEMP2
000589: 07,3432           54047                           TS       GYROCMD
000590:
000591: 07,3433           00006        AUG3               EXTEND                                         #  GET WAITLIST DT TO TIME WHEN TRAIN IS
000592: 07,3434           75022                           MP       BIT10                                 #  ALMOST OUT.
000593: 07,3435           67714                           AD       NEG3
000594: 07,3436           05261                           TC       WAITLIST
000595: 07,3437  E3,1474                                  EBANK=   CDUIND
000596: 07,3437           03442 16063                     2CADR    8192AUG
000597:
000598: 07,3441           13422                           TCF      GYROEXIT
000599:
000600: 07,3442           03524        8192AUG            TC       CAGETEST
000601:
000602: 07,3443           35030                           CAF      BIT4
000603: 07,3444           00006                           EXTEND
000604: 07,3445           02012                           RAND     CHAN12
000605: 07,3446           10000                           CCS      A
000606: 07,3447           13522                           TCF      IMUBAD
000607: 07,3450           31304                           CA       LGYRO                                 #  ADD 8192 PULSES TO GYROCMD
000608: 07,3451           54003                           TS       EBANK
000609: 07,3452           74373                           MASK     LOW8
000610: 07,3453           54061                           TS       ITEMP1
000611:
000612: 07,3454           50061                           INDEX    ITEMP1                                #  SEE IF THIS IS THE LAST AUG.
000613: 07,3455           11400                           CCS      1400
000614: 07,3456           13462                           TCF      AUG2                                  #  MORE TO COME.
000615:
000616: 07,3457           35016                           CAF      BIT14
000617: 07,3460           26047                           ADS      GYROCMD
000618: 07,3461           13414                           TCF      LASTSEG    +1
000619:
000620: 07,3462           50061        AUG2               INDEX    ITEMP1
000621: 07,3463           55400                           TS       1400
000622: 07,3464           35016                           CAF      BIT14
000623: 07,3465           26047                           ADS      GYROCMD
000624: 07,3466           13433                           TCF      AUG3                                  #  COMPUTE DT.
000625:
000626: 07,3467           63403        MIN-               AD       -GYROMIN                              #  POSSIBLE NEGATIVE OUTPUT.
000627: 07,3470           00006                           EXTEND
000628: 07,3471           63274                           BZMF     STRTGYR2
000629:
000630: 07,3472           00006        MAJ-               EXTEND                                         #  DEFINITE NEGATIVE OUTPUT.
000631: 07,3473           43513                           DCS      GYROFRAC
000632: 07,3474           20071                           DAS      RUPTREG1
000633:
000634: 07,3475           30064                           CA       ITEMP4                                #  SELECT NEGATIVE TORQUING FOR THIS GYRO.
000635: 07,3476           65023                           AD       BIT9
000636: 07,3477           00006                           EXTEND
000637: 07,3500           05014                           WOR      CHAN14
000638:
000639: 07,3501           40070                           CS       RUPTREG1                              #  SET UP RUPTREGS TO FALL INTO GMERGE.
000640: 07,3502           54070                           TS       RUPTREG1                              #  ALL NUMBERS PUT INTO GYROCMD ARE
000641: 07,3503           40071                           CS       RUPTREG2                              #  POSITIVE - BIT9 OF CHAN 14 DETERMINES
000642: 07,3504           76043                           MASK     LOW7                                  #  THE SIGN OF THE COMMAND.
000643: 07,3505           40000                           COM
000644: 07,3506           56071                           XCH      RUPTREG2
000645: 07,3507           40000                           COM
000646: 07,3510           13363                           TCF      GMERGE
000647:
000648: 07,3511           01700        GDESELCT           OCT      1700                                  #  TURN OFF SELECT AND ACTIVITY BITS.
000649:
000650: 07,3512           00000 00034  GYROFRAC           2DEC     .215       B-21
000651:
000652:                                                                                                  #  IMU MODE SWITCHING ROUTINES COME HERE WHEN ACTION COMPLETE.
000653:
000654: 07,3514           00006        ENDIMU             EXTEND                                         #  MODE IS BAD IF CAGE HAS OCCURED OR IF
000655: 07,3515           00011                           READ     DSALMOUT                              #  ISS WARNING IS ON.
000656: 07,3516           75033                           MASK     BIT1
000657: 07,3517           10000                           CCS      A
000658: 07,3520           13522                           TCF      IMUBAD
000659:
000660: 07,3521           13550        IMUGOOD            TCF      GOODEND                               #  WITH C(A) = 0.
000661:
000662: 07,3522           35035        IMUBAD             CAF      ZERO
000663: 07,3523           13545                           TCF      BADEND
000664:
000665: 07,3524           35026        CAGETEST           CAF      BIT6                                  #  SUBROUTINE TO TERMINATE IMU MODE
000666: 07,3525           71320                           MASK     IMODES30                              #  SWITCH IF IMU HAS BEEN CAGED.
000667: 07,3526           10000                           CCS      A
000668: 07,3527           13522                           TCF      IMUBAD                                #  DIRECTLY.
000669: 07,3530           00002                           TC       Q                                     #  WITH C(A) = +0.
000670:
000671: 07,3531           41320        CAGETSTQ           CS       IMODES30                              #  SKIP IF IMU NOT BEING CAGED.
000672: 07,3532           75026                           MASK     BIT6
000673: 07,3533           10000                           CCS      A
000674: 07,3534           24002                           INCR     Q
000675: 07,3535           00002                           TC       Q
000676:
000677: 07,3536           41320        CAGETSTJ           CS       IMODES30                              #  IF DURING MODE SWITCH INITIALIZATION
000678: 07,3537           75026                           MASK     BIT6                                  #  IT IS FOUND THAT THE IMU IS BEING CAGED,
000679: 07,3540           10000                           CCS      A                                     #  SET IMUCADR TO -0 TO INDICATE OPERATION
000680: 07,3541           00002                           TC       Q                                     #  COMPLETE BUT FAILED.  RETURN IMMEDIATELY
000681: 07,3542           45035                           CS       ZERO                                  #  TO SWRETURN.
000682: 07,3543           55322                           TS       IMUCADR
000683: 07,3544           12640                           TCF      MODEEXIT
000684:
000685:                                                                                                  #  GENERALIZED MODE SWITCHING TERMINATION.  ENTER AT GOODEND FOR SUCCESSFUL COMPLETION OF AN I/O OPERATION
000686:                                                                                                  #  OR AT BADEND FOR AN UNSUCCESSFUL ONE.  C(A) OR ARRIVAL =0 FOR IMU, 1 FOR OPTICS.
000687:
000688: 07,3545           54071        BADEND             TS       RUPTREG2                              #  DEVICE INDEX.
000689: 07,3546           45035                           CS       ZERO                                  #  FOR FAILURE.
000690: 07,3547           13552                           TCF      GOODEND    +2
000691:
000692: 07,3550           54071        GOODEND            TS       RUPTREG2
000693: 07,3551           45033                           CS       ONE                                   #  FOR SUCCESS.
000694:
000695: 07,3552           54072                           TS       RUPTREG3
000696: 07,3553           50071                           INDEX    RUPTREG2                              #  SEE IF USING PROGRAM ASLEEP.
000697: 07,3554           11322                           CCS      MODECADR
000698: 07,3555           13557                           TCF      +2                                    #  YES - WAKE IT UP.
000699: 07,3556           13567                           TCF      ENDMODE                               #  IF 0, PROGRAM NOT IN YET.
000700:
000701: 07,3557           35035                           CAF      ZERO                                  #  WAKE SLEEPING PROGRAM.
000702: 07,3560           50071                           INDEX    RUPTREG2
000703: 07,3561           57322                           XCH      MODECADR
000704: 07,3562           05215                           TC       JOBWAKE
000705:
000706: 07,3563           40072                           CS       RUPTREG3                              #  ADVANCE LOC IF SUCCESSFUL.
000707: 07,3564           50064                           INDEX    LOCCTR
000708: 07,3565           26164                           ADS      LOC
000709:
000710: 07,3566           15340                           TCF      TASKOVER
000711:
000712: 07,3567           30072        ENDMODE            CA       RUPTREG3                              #  -0 INDICATES OPERATION COMPLETE BUT
000713: 07,3570           50071                           INDEX    RUPTREG2                              #  UNSUCCESSFUL - -1 INDICATES COMPLETE AND
000714: 07,3571           55322                           TS       MODECADR                              #  SUCCESSFUL.
000715: 07,3572           15340                           TCF      TASKOVER
000716:
000717:                                                                                                  #  GENERAL STALLING ROUTINE.  USING PROGRAMS COME HERE TO WAIT FOR I/O COMPLETION.
000718:
000719:                                                                                                  #  PROGRAM DESCRIPTION                           DATE - 21 FEB 1967
000720:                                                                                                  #                                                LOG SECTION IMU MODE SWITCHING
000721:                                                                                                  #  MOD BY - R. MELANSON TO ADD DOCUMENTATION     ASSEMBLY SUNDISK REV. 82
000722:
000723:                                                                                                  #  FUNCTIONAL DESCRIPTION -
000724:                                                                                                  #        TO DELAY FURTHER EXECUTION OF THE CALLING ROUTINE UNTIL ITS SELECTED
000725:                                                                                                  #        I/O FUNCTION IS COMPLETE.  THE FOLLOWING CHECKS ON THE CALLING ROUTINE:S
000726:                                                                                                  #        MODECADR ARE MADE AND ACTED UPON.
000727:                                                                                                  #        1) +0 INDICATES INCOMPLETE I/O OPERATION.  CALLING ROUTINE IS PUT TO
000728:                                                                                                  #           SLEEP.
000729:                                                                                                  #        2) -1 INDICATES COMPLETED I/O OPERATION.  STALL BYPASSES JOBSLEEP
000730:                                                                                                  #           CALL AND RETURNS TO CALLING ROUTINE AT L+3
000731:                                                                                                  #        3) -0 INDICATES COMPLETED I/O WITH FAILURE.  STALL CLEARS MODECADR
000732:                                                                                                  #           AND RETURNS TO CALLING ROUTINE AT L+2.
000733:                                                                                                  #        4) VALUE GREATER THAN 0 INDICATES TWO ROUTINES CALLING FOR USE OF
000734:                                                                                                  #           SAME DEVICE.  STALL EXITS TO ABORT WHICH EXECUTES A PROGRAM
000735:                                                                                                  #           RESTART WHICH IN TURN CLEARS ALL MODECADR REGISTERS.
000736:
000737:                                                                                                  #  CALLING SEQUENCE -
000738:                                                                                                  #        L       TC      BANKCALL
000739:                                                                                                  #        L+1     CADR    (ONE OF 5 STALL ADDRESSES  I.E. IMUSTALL, OPTSTALL, RADSTALL,
000740:                                                                                                  #                        AOTSTALL, OR ATTSTALL)
000741:
000742:                                                                                                  #  NORMAL-EXIT MODE -
000743:                                                                                                  #        TCF JOBSLEEP    OR      TCF MODEXIT
000744:
000745:                                                                                                  #  ALARM OR ABORT EXIT MODE -
000746:                                                                                                  #        TC      ABORT
000747:
000748:                                                                                                  #  OUTPUT -
000749:                                                                                                  #        MODECADR=CADR   IF JOBSLEEP
000750:                                                                                                  #        MODECADR=+0     IF I/O COMPLETE
000751:                                                                                                  #        BUF2=L+3        IF I/O COMPLETE AND GOOD.
000752:                                                                                                  #        BUF2=L+2        IF I/O COMPLETE BUT FAILED.
000753:
000754:                                                                                                  #  ERASABLE INITIALIZATION -
000755:                                                                                                  #        BUF2 CONTAINS RETURN ADDRESS PLUS 1,(L+2)
000756:                                                                                                  #        BUF2+1 CONTAINS FBANK VALUE OF CALLING ROUTINE.
000757:                                                                                                  #        MODECADR OF CALLING ROUTINE CONTAINS +0,-1,-0 OR CADR RETURN ADDRESS.
000758:
000759:                                                                                                  #  DEBRIS -
000760:                                                                                                  #        RUPTREG2 AND CALLING ROUTINE MODECADR.
000761:
000762: 07,3573           35033        AOTSTALL           CAF      ONE                                   #  AOT.
000763: 07,3574           03600                           TC       STALL
000764:
000765: 07,3575           35032        RADSTALL           CAF      TWO
000766: 07,3576           13600                           TCF      STALL
000767:
000768: 07,3577  07,3573               OPTSTALL           EQUALS   AOTSTALL
000769:
000770: 07,3577           35035        IMUSTALL           CAF      ZERO                                  #  IMU.
000771:
000772: 07,3600           00004        STALL              INHINT
000773: 07,3601           54071                           TS       RUPTREG2                              #  SAVE DEVICE INDEX.
000774: 07,3602           50000                           INDEX    A                                     #  SEE IF OPERATION COMPLETE.
000775: 07,3603           11322                           CCS      MODECADR
000776: 07,3604           13622                           TCF      MODABORT                              #  ALLOWABLE STATES ARE +0, -1, AND -0.
000777: 07,3605           13616                           TCF      MODESLP                               #  OPERATION INCOMPLETE.
000778: 07,3606           13612                           TCF      MODEGOOD                              #  COMPLETE AND GOOD IF = -1.
000779:
000780: 07,3607           50071        MG2                INDEX    RUPTREG2                              #  COMPLETE AND FAILED IF -0.  RESET TO +0.
000781: 07,3610           55322                           TS       MODECADR                              #  RETURN TO CALLER.
000782: 07,3611           12640                           TCF      MODEEXIT
000783:
000784: 07,3612           10000        MODEGOOD           CCS      A                                     #  MAKE SURE INITIAL STATE -1.
000785: 07,3613           13622                           TCF      MODABORT
000786:
000787: 07,3614           24133                           INCR     BUF2                                  #  IF SO, INCREMENT RETURN ADDRESS AND
000788: 07,3615           13607                           TCF      MG2                                   #  RETURN IMMEDIATELY, SETTING CADR = +0.
000789:
000790: 07,3616           04725        MODESLP            TC       MAKECADR                              #  CALL FROM SWITCHABLE FIXED ONLY.
000791: 07,3617           50071                           INDEX    RUPTREG2
000792: 07,3620           55322                           TS       MODECADR
000793: 07,3621           15211                           TCF      JOBSLEEP
000794:
000795: 07,3622           05725        MODABORT           TC       POODOO                                #  TWO PROGRAMS USING SAME DEVICE.
000796: 07,3623           21210                           OCT      21210
000797:
000798:                                                                                                  #  CONSTANTS FOR MODE SWITCHING ROUTINES
000799:
000800: 07,3624     5775               BITS3&4            =        OCT14
000801: 07,3624     5047               BITS4&6            =        OCT50
000802: 07,3624     5043               BITS4-5            EQUALS   BITS4&5
000803: 07,3624     5024               IMUSEFLG           EQUALS   BIT8                                  #  INTERPRETER SWITCH 7.
000804: 07,3624           77500        -COMMAX            DEC      -191       B-14
000805: 07,3625           77477        -COMMAX-           DEC      -192       B-14
000806: 07,3626           00074        600MS              DEC      60         B-14
000807: 07,3627  07,3073               IMUFIN20           =        IMUFINE
000808: 07,3627           31325        GOMANUR            CA       ATTCADR                               #  IS KALCMANU FREE
000809: 07,3630           00006                           EXTEND
000810: 07,3631           13634                           BZF      +3
000811: 07,3632           05725                           TC       POODOO                                #  NO
000812: 07,3633           21210                           OCT      21210                                 #  2 TRYING TO USE SAME DEVICE
000813:
000814: 07,3634           00006                 +3        EXTEND
000815: 07,3635           30134                           DCA      BUF2
000816: 07,3636           53326                           DXCH     ATTCADR                               #  SAVE FINAL RETURN FOR KALCMAN3
000817:
000818: 07,3637           30006                           CA       BBANK
000819: 07,3640           75037                           MASK     SEVEN
000820: 07,3641           27326                           ADS      ATTCADR    +1
000821:
000822: 07,3642           30167                           CA       PRIORITY
000823: 07,3643           77674                           MASK     PRIO37
000824: 07,3644           55327                           TS       ATTPRIO                               #  SAVE USERS PRIO
000825:
000826: 07,3645           33651                           CAF      KALEBCON                              #  SET EBANK FOR KALCMAN3
000827: 07,3646           54003                           TS       EBANK
000828: 07,3647           04715                           TC       POSTJUMP
000829: 07,3650           44000                           CADR     KALCMAN3
000830: 07,3651           03261        KALEBCON           ECADR    BCDU
000831:
000832:                                                                                                  #  PROGRAM DESCRIPTION
000833:                                                                                                  #  IMU STATUS CHECK ROUTINE R02 (SUBROUTINE UTILITY)
000834:                                                                                                  #  MOD NO - 1
000835:                                                                                                  #  MOD BY - N.BRODEUR
000836:
000837:                                                                                                  #  FUNCTIONAL DESCRIPTION
000838:                                                                                                  #        TO CHECK WHETHER IMU IS ON AND IF ON WHETHER IT IS ALIGNED TO AN
000839:                                                                                                  #        ORIENTATION KNOWN BY THE CMC.  TO REQUEST SELECTION OF THE APPROPRIATE
000840:                                                                                                  #        PROGRAM IF THE IMU IS OFF OR NOT ALIGNED TO AN ORIENTATION KNOWN BY THE
000841:                                                                                                  #        CMC.  CALLED THROUGH BANKCALL
000842:
000843:                                                                                                  #  CALLING SEQUENCE -
000844:                                                                                                  #        L       TC      BANKCALL
000845:                                                                                                  #        L+1     CADR    R02BOTH
000846:
000847:                                                                                                  #  SUBROUTINES CALLED
000848:                                                                                                  #        VARALARM
000849:                                                                                                  #        FLAGUP
000850:
000851:                                                                                                  #  NORMAL EXIT MODES
000852:                                                                                                  #        AT L+2 OF CALLING SEQUENCE
000853:
000854:                                                                                                  #  ALARM OR ABORT EXIT MODES
000855:                                                                                                  #        GOTOPOOH, WITH ALARM
000856:
000857:                                                                                                  #  ERASABLE INITIALIZATION REQUIRED
000858:                                                                                                  #        NONE
000859:
000860:                                                                                                  #  DEBRIS
000861:                                                                                                  #        CENTRALS - A,Q,L
000862:
000863: 34,3763                                           BANK     34
000864: 07,2000                                           SETLOC   R02
000865: 07,2000                                           BANK
000866: 07,3652                                           COUNT    04/R02                                #  COUNT*
000867:
000868: 07,3652           00063        DEC51              DEC      51         B-14
000869: 07,3653           35017        R02BOTH            CAF      BIT13
000870: 07,3654           70077                           MASK     STATE      +3                         #  REFSMFLG
000871: 07,3655           10000                           CCS      A
000872: 07,3656           03667                           TC       R02ZERO                               #  ZERO IMUS
000873:
000874: 07,3657           31320                           CA       IMODES30
000875: 07,3660           75023                           MASK     BIT9                                  #  IS ISS INITIALIZED
000876: 07,3661           00006                           EXTEND
000877: 07,3662           13664                           BZF      +2
000878: 07,3663           45030                           CS       BIT4                                  #  SEND IMU ALARM CODE 210
000879: 07,3664           63672                           AD       OCT220                                #  SEND REFSMM ALARM
000880: 07,3665           05770                           TC       VARALARM
000881:
000882: 07,3666           04106                           TC       GOTOPOOH
000883:
000884: 07,3667           05562        R02ZERO            TC       UPFLAG
000885: 07,3670           00007                           ADRES    IMUSE
000886: 07,3671           14711                           TCF      SWRETURN
000887: 07,3672           00220        OCT220             OCT      220
000888:
000889:                                                                                                  #  PROGRAM DESCRIPTION   P06             10FEB67
000890:
000891:                                                                                                  #  TRANSFER THE ISS/CMC FROM THE OPERATE TO THE STANDBY CONDITION.
000892:
000893:                                                                                                  #  THE NORMAL CONDITION OF READINESS OF THE GNCS WHEN NOT IN USE IS STANDBY.  IN THIS CONDITION THE IMU
000894:                                                                                                  #  HEATER POWER IS ON.  THE IMU OPERATE POWER IS OFF.  THE COMPUTER POWER IS ON.  THE OPTICS POWER IS OFF.  THE
000895:                                                                                                  #  CMC STANDBY ON THE MAIN AND LEB DISKYS IS ON.
000896:
000897:                                                                                                  #  CALLING SEQUENCE:
000898:                                                                                                  #        ASTRONAUT REQUEST THROUGH DSKY  V37E 06E.
000899:
000900:                                                                                                  #  SUBROUTINES CALLED:
000901:                                                                                                  #        GOPERF1
000902:                                                                                                  #        BANKCALL
000903:                                                                                                  #        FLAGDOWN
000904:
000905:                                                                                                  #  PRESTAND PREPARES FOR STANDBY BY SNAPSHOTTING THE SCALER AND TIME1 TIME2
000906:                                                                                                  #  THE LOW 5 BITS OF THE SCALER ARE INSPECTED TO INSURE COMPATABILITY
000907:                                                                                                  #  BETWEEN THE SCALER READING AND THE TIME1 TIME2 READING.
000908:
000909: 26,2000                                           SETLOC   P05P06
000910: 26,2000                                           BANK
000911:
000912: 26,3657     1150                                  EBANK=   TIME2SAV
000913: 26,3657                                           COUNT*   $$/P06
000914:
000915: 26,3657           05562        P06                TC       UPFLAG                                #  SET NODOV37 BIT
000916: 26,3660           00054                           ADRES    NODOFLAG
000917:
000918: 26,3661           00004        PRESTAND           INHINT
000919: 26,3662           00006                           EXTEND
000920: 26,3663           30025                           DCA      TIME2                                 #  SNAPSHOT TIME1 TIME2
000921: 26,3664           53151                           DXCH     TIME2SAV
000922: 26,3665           03716                           TC       SCALPREP
000923: 26,3666           03661                           TC       PRESTAND                              #  T1,T2,SCALER NOT COMPATIBLE
000924: 26,3667           52155                           DXCH     MPAC                                  #  T1,T2 AND SCALER OK
000925: 26,3670           53153                           DXCH     SCALSAVE                              #  STORE SCALER
000926: 26,3671           00004                           INHINT
000927: 26,3672           04676                           TC       BANKCALL
000928: 26,3673           17060                           CADR     RNDREFDR                              #  REFSMM, DRIFT, TRACK FLAGS DOWN
000929:
000930: 26,3674           05574                           TC       DOWNFLAG
000931: 26,3675           00007                           ADRES    IMUSE                                 #  IMUSE DOWN
000932: 26,3676           05574                           TC       DOWNFLAG
000933: 26,3677           00010                           ADRES    RNDVZFLG                              #  RNDVZFLG DOWN
000934:
000935: 26,3700           35021                           CAF      BIT11
000936: 26,3701           00006                           EXTEND
000937: 26,3702           05013                           WOR      CHAN13                                #  SET STANDBY ENABLE BIT
000938:
000939: 26,3703           05426                           TC       PHASCHNG                              #  SET RESTART TO POSTAND WHEN STANDBY
000940: 26,3704           07024                           OCT      07024                                 #        RECOVERS
000941: 26,3705           20000                           OCT      20000
000942: 26,3706     1152                                  EBANK=   SCALSAVE
000943: 26,3706           03736 54062                     2CADR    POSTAND
000944:
000945: 26,3710           35052                           CAF      OCT62
000946: 26,3711           04676                           TC       BANKCALL
000947: 26,3712           21045                           CADR     GOPERF1
000948: 26,3713           13710                           TCF      -3
000949: 26,3714           13710                           TCF      -4
000950: 26,3715           13710                           TCF      -5
000951:
000952: 26,3716     5052               OCT62              EQUALS   .5SEC                                 #  DEC 50 = OCT 62
000953:
000954:                                                                                                  #  THE LOW 5 BITS OF THE SCALER READS 10000 FOR THE FIRST INTERVAL AFTER A
000955:                                                                                                  #  T1 INCREMENT.  IF SCALPREP DETECTS THIS INTERVAL THE T1,T2 AND SCALER
000956:                                                                                                  #  DATA ARE NOT COMPATABLE AND RETURN IS TO L+1 FOR ANOTHER READING OF THE
000957:                                                                                                  #  DATA.  OTHERWISE, THE RETURN IS TO L+2 TO PROCEED.  ROUTINE ALSO PREPARES
000958:                                                                                                  #  THE SCALER READING FOR COMPUTATION OF THE INCREMENT TO UPDATE T1T2.  (THE
000959:                                                                                                  #  10 MS BIT (BIT 6) OF THE SCALER IS INCREMENTED 5 MS OUT OF PHASE FROM
000960:                                                                                                  #  T1.) ADDITION OF 5 MS (BIT 5) TO THE SCALER READING HAS THE EFFECT OF
000961:                                                                                                  #  ADJUSTING BIT 6 IN THE SCALER TO BE IN PHASE WITH BIT 1 OF T1.  THE LOW 5
000962:                                                                                                  #  BITS OF THE SCALER READING ARE THEN SET TO ZERO, TO TRUNCATE THE SCALER
000963:                                                                                                  #  DATA TO 10 MS.  RESULTS ARE STORED IN MPAC, +1.
000964:
000965: 26,3716           00006        SCALPREP           EXTEND
000966: 26,3717           22156                           QXCH     MPAC       +2
000967: 26,3720           04554                           TC       FINETIME   +1
000968: 26,3721           00003                           RELINT
000969: 26,3722           52155                           DXCH     MPAC
000970: 26,3723           35027                           CA       BIT5                                  #  ADD 5 MS TO THE SCALER READING.
000971: 26,3724           54001                           TS       L
000972: 26,3725           35035                           CA       ZERO
000973: 26,3726           20155                           DAS      MPAC
000974: 26,3727           44362                           CS       LOW5                                  #  SET LOW 5 BITS OF (SCALER+5MS) TO ZERO
000975: 26,3730           70155                           MASK     MPAC       +1                         #  AND STORE RESULTS IN MPAC,+1.
000976: 26,3731           56155                           XCH      MPAC       +1
000977: 26,3732           74362                           MASK     LOW5                                  #  TEST LOW 5 BITS OF SCALER FOR THE FIRST
000978:                                                                                                  #  INTERVAL AFTER THE T1 INCREMENT
000979:                                                                                                  #  (NOW = 00000, SINCE BIT 5 ADDED).
000980: 26,3733           10000                           CCS      A                                     #  IS IT 1ST INTERVAL AFTER T1 INCREMENT
000981: 26,3734           24156                           INCR     MPAC       +2                         #  NO
000982: 26,3735           00156                           TC       MPAC       +2                         #  YES
000983:
000984:                                                                                                  #  POSTAND RECOVERS TIME AFTER STANDBY.  THE SCALER IS SNAPSHOTTED AND THE
000985:                                                                                                  #  TIME1 TIME2 COUNTER IS SET TO ZERO.  THE LOW 5 BITS OF THE SCALER ARE
000986:                                                                                                  #  INSPECTED TO INSURE COMPATABILITY BETWEEN THE SCALER READING AND THE
000987:                                                                                                  #  CLEARING OF THE TIME COUNTER.  IT THEN COMPUTES THE DIFFERENCE IN SCALER
000988:                                                                                                  #  VALUES (IN DP) AND ADDS THIS TO THE PREVIOUSLY SNAPSHOTTED VALUES OF
000989:                                                                                                  #  TIME1 TIME2 AND PLACES THIS NEW TIME INTO THE TIME1 TIME2 COUNTER.
000990:
000991: 26,3736                                           COUNT*   $$/P05
000992:
000993: 26,3736           45021        POSTAND            CS       BIT11                                 #  RECOVER TIME AFTER STANDBY.
000994: 26,3737           00006                           EXTEND
000995: 26,3740           03013                           WAND     CHAN13                                #  CLEAR STANDBY ENABLE BIT
000996: 26,3741           00004                           INHINT
000997: 26,3742           35035                           CA       ZERO
000998: 26,3743           54001                           TS       L
000999: 26,3744           52025                           DXCH     TIME2                                 #  CLEAR TIME1 TIME2
001000: 26,3745           03716                           TC       SCALPREP                              #  STORE SCALER IN MPAC, MPAC+1
001001: 26,3746           03741                           TC       POSTAND    +3                         #  T1,T2,SCALER NOT COMPATIBLE
001002: 26,3747           00006                           EXTEND                                         #  T1,T2 AND SCALER OK
001003: 26,3750           41153                           DCS      SCALSAVE
001004: 26,3751           20155                           DAS      MPAC                                  #  FORM DP DIFFERENCE OF POSTSTANDBY SCALER
001005: 26,3752           35022                           CAF      BIT10                                 #  MINUS PRESTANDBY SCALER AND SHIFT RIGHT
001006: 26,3753           07256                           TC       SHORTMP                               #  5 TO ALIGN BITS WITH TIME1 TIME2.
001007: 26,3754           35035                           CAF      ZERO
001008: 26,3755           54156                           TS       MPAC       +2                         #  NEEDED FOR TP AGREE
001009: 26,3756           07226                           TC       TPAGREE                               #  MAKE DP DIFF AGREE
001010: 26,3757           10154                           CCS      MPAC
001011: 26,3760           03765                           TC       POSTCOM                               #  IF DP DIFF NET +, NO SCALER OVERFLOW
001012: 26,3761           03765                           TC       POSTCOM                               #  BETWEEN PRE AND POST STANDBY.
001013: 26,3762           03763                           TC       +1                                    #  IF DP DIFF NET -, SCALER OVERFLOWED.  ADD
001014: 26,3763           35022                           CAF      BIT10                                 #  BIT 10 TO HIGH DIFF TO CORRECT.
001015: 26,3764           26154                           ADS      MPAC
001016: 26,3765           00006        POSTCOM            EXTEND                                         #  C(MPAC,+1) IS MAGNITUDE OF DELTA SCALER.
001017: 26,3766           31151                           DCA      TIME2SAV                              #  PRESTANDBY TIME1 TIME2
001018: 26,3767           20155                           DAS      MPAC
001019: 26,3770           07226                           TC       TPAGREE                               #  FORCE SIGN AGREEMENT
001020: 26,3771           52155                           DXCH     MPAC                                  #  UPDATED VALUE FOR T1,T2.
001021: 26,3772           20025                           DAS      TIME2                                 #  LOAD UPDATED VALUE INTO T1,T2, WITH
001022: 26,3773           05574                           TC       DOWNFLAG                              #  CLEAR NODOFLAG
001023: 26,3774           00054                           ADRES    NODOFLAG
001024:
001025: 26,3775           04106                           TC       GOTOPOOH
001026:
001027:
001028:

End of include-file IMU_MODE_SWITCHING_ROUTINES.agc.  Parent file is MAIN.agc


