
Source Code


000002:                                                                                                  ## Copyright:   Public domain.
000003:                                                                                                  ## Filename:    INTERPRETER.agc
000004:                                                                                                  ## Purpose:     A section of Comanche revision 072.
000005:                                                                                                  ##              It is part of the reconstructed source code for the first
000006:                                                                                                  ##              release of the software for the Command Module's (CM) Apollo
000007:                                                                                                  ##              Guidance Computer (AGC) for Apollo 13. No original listings
000008:                                                                                                  ##              of this program are available; instead, this file was recreated
000009:                                                                                                  ##              from a printout of Comanche 055, binary dumps of a set of
000010:                                                                                                  ##              Comanche 067 rope modules, and changelogs between Comanche 067
000011:                                                                                                  ##              and 072. It has been adapted such that the resulting bugger words
000012:                                                                                                  ##              exactly match those specified for Comanche 072 in NASA drawing
000013:                                                                                                  ##              2021153G, which gives relatively high confidence that the
000014:                                                                                                  ##              reconstruction is correct.
000015:                                                                                                  ## Assembler:   yaYUL
000016:                                                                                                  ## Contact:     Ron Burkey <info@sandroid.org>.
000017:                                                                                                  ## Website:     www.ibiblio.org/apollo/index.html
000018:                                                                                                  ## Mod history: 2024-05-13 MAS  Created from Comanche 067.
000019:
000020:                                                                                                  #  SECTION 1   DISPATCHER
000021:
000022:                                                                                                  #  ENTRY TO THE INTERPRETER.  INTPRET SETS LOC TO THE FIRST INSTRUCTION, BANKSET TO THE BBANK OF THE
000023:                                                                                                  #  OBJECT INTERPRETIVE PROGRAM, AND INTBIT15 TO THE BIT15 CONTENTS OF FBANK.  INTERPRETIVE PROGRAMS MAY BE IN
000024:                                                                                                  #  VIRTUALLY ALL BANKS PRESENT UNDER ANY SUPER-BANK SETTING, WITH THE RESTRICTION THAT PROGRAMS IN HIGH BANKS
000025:                                                                                                  #  (BIT15 OF FBANK = 1) DO NOT REFER TO LOWBANKS, AND VICE-VERSA.  THE INTERPRETER DOES NOT SWITCH SUPERBANKS.
000026:                                                                                                  #  E-BANK SWITCHING OCCURS WHENEVER GENERAL ERASABLE (100-3777) IS ADDRESSED.
000027:
000028:    6006                                           BLOCK    03
000029:
000030:    6006                                           COUNT    03/INTER
000031:    6006           00003        INTPRET            RELINT
000032:    6007           00006                           EXTEND                                         #  SET LOC TO THE WORD FOLLOWING THE TC.
000033:    6010           22164                           QXCH     LOC
000034:    6011           30006                 +2        CA       BBANK                                 #  INTERPRETIVE BRANCHES FINISH HERE.
000035:    6012           54165                           TS       BANKSET
000036:    6013           75015                           MASK     BIT15                                 #  GET 15TH BIT FOR INDEXABLE ADDRESSES.
000037:    6014           54115                           TS       INTBIT15
000038:
000039:    6015           54023                           TS       EDOP                                  #  MAKE SURE NO INSTRUCTIONS LEFT OVER
000040:
000041:    6016           16037                           TCF      NEWOPS                                #  PICK UP OP CODE PAIR AND BEGIN.
000042:
000043:    6017           22006        INTRSM             LXCH     BBANK                                 #  RESUME SUSPENDED INTERPRETIVE JOB
000044:    6020           16011                           TCF      INTPRET    +3
000045:
000046:                                                                                                  #  DLOAD LOADS MPAC, MPAC +1, LEAVING ZERO IN MPAC +2.
000047:
000048:    6021           00006        DLOAD              EXTEND
000049:    6022           50116                           INDEX    ADDRWD
000050:    6023           30001                           DCA      0                                     #  LOAD DP C(C(ADDRWD)) INTO MPAC,MPAX +1
000051:    6024           52155        SLOAD2             DXCH     MPAC
000052:    6025           35035                           CAF      ZERO                                  #  ZERO MPAC +2
000053:
000054:                                                                                                  #  AT THE END OF MOST INSTRUCTIONS, CONTROL IS GIVEN TO DANZIG TO DISPATCH THE NEXT OPERATION.
000055:
000056:    6026           54156                           TS       MPAC       +2                         #  AND DECLARE DP MODE
000057:
000058:    6027           54163        NEWMODE            TS       MODE                                  #  PROLOGUE FOR MODE-CHANGING INSTRUCTIONS.
000059:
000060:    6030           30165        DANZIG             CA       BANKSET                               #  SET BBANK BEFORE TESTING NEWJOB SO THAT
000061:    6031           54006                           TS       BBANK                                 #  IT MAY BE SAVED DIRECTLY BY CHANJOB.
000062:
000063:    6032           10023        NOIBNKSW           CCS      EDOP                                  #  SEE IF AN ORDER CODE IS LEFT OVER FROM
000064:    6033           16046                           TCF      OPJUMP                                #  THE LAST PAIR RETRIEVED.  IF SO, EXECUTE.
000065:                                                                                                  #  EDOP IS SET TO ZERO ON ITS RE-EDITING.
000066:
000067:    6034           10067                           CCS      NEWJOB                                #  SEE IF A JOB OF HIGHER PRIORITY IS
000068:    6035           15204                           TCF      CHANG2                                #  PRESENT, AND IF SO, CHANGE JOBS.
000069:
000070:    6036           24164                           INCR     LOC                                   #  ADVANCE THE LOCATION COUNTER.
000071:
000072:                                                                                                  #  ITRACE (1) REFERS TO "NEWOPS".
000073:    6037           50164        NEWOPS             INDEX    LOC                                   #  ENTRY TO BEGIN BY PICKING OP CODE PAIR.
000074:    6040           30000                           CA       0                                     #  MAY BE AN OPCODE PAIR OR A STORE CODE.
000075:    6041           10000                           CCS      A                                     #  TEST SIGN AND GET DABS(A).
000076:    6042           16331                           TCF      DOSTORE                               #  PROCESS STORE CODE.
000077:
000078:    6043           00177        LOW7               OCT      177
000079:
000080:    6044           54023                           TS       EDOP                                  #  OP CODE PAIR.  LEAVE THE OTHER IN EDOP
000081:    6045           76043                           MASK     LOW7                                  #  WHERE CCS EDOP WILL HONOR IT NEXT.
000082:
000083:    6046           54020        OPJUMP             TS       CYR                                   #  LOWWD ENTERS HERE IF A RIGHT-HAND OP
000084:    6047           10020                           CCS      CYR                                   #  CODE IS TO BE PROCESSED.  TEST PREFICES.
000085:    6050           16216                           TCF      OPJUMP2                               #  TEST SECOND PREFIX BIT.
000086:
000087:    6051           16712                           TCF      EXIT                                  #  +0 OP CODE IS EXIT.
000088:
000089:                                                                                                  #  PROCESS ADDRESSES WHICH MAY BE DIRECT, INDEXED, OR REFERENCE THE PUSHDOWN LIST.
000090:
000091:    6052           75033        ADDRESS            MASK     BIT1                                  #  SEE IF ADDRESS IS INDEXED.  CYR CONTAINED
000092:    6053           10000                           CCS      A                                     #  400XX, SO BIT 1 IS NOW AS IT WAS IN CYR.
000093:    6054           16115                           TCF      INDEX                                 #  FORM INDEXED ADDRESS.
000094:
000095:    6055           50164        DIRADRES           INDEX    LOC                                   #  LOOK AHEAD TO NEXT WORD TO SEE IF
000096:    6056           40001        OCT40001           CS       1                                     #  ADDRESS IS GIVEN.
000097:    6057           10000                           CCS      A
000098:    6060           16164                           TCF      PUSHUP                                #  IF NOT.
000099:
000100:    6061           77773        NEG4               DEC      -4         B-14
000101:
000102:    6062           24164                           INCR     LOC                                   #  IF SO, TO SHOW WE PICKED UP A WORD.
000103:    6063           54116                           TS       ADDRWD
000104:
000105:                                                                                                  #  FINAL DIGESTION OF DIRECT ADDRESSES OF OP CODES WITH 01 PREFIX IS DONE HERE.   IN EACH CASE, THE
000106:                                                                                                  #  REQUIRED 12-BIT SUB-ADDRESS IS LEFT IN ADDRWD, WITH ANY REQUIRED E OR F BANK SWITCHING DONE.  ADDRESSES LESS
000107:                                                                                                  #  THAN 45D ARE TAKEN TO BE RELATIVE TO THE WORK AREA.  THE OP CODE IS NOW IN BITS 1-5 OF CYR WITH BIT 14 = 1.
000108:
000109:    6064           66220                           AD       -ENDVAC                               #  SEE IF ADDRESS RELATIVE TO WORK AREA.
000110:    6065           10000                           CCS      A
000111:    6066           67712                           AD       -ENDERAS                              #  IF NOT, SEE IF IN GENERAL ERASABLE.
000112:    6067           16074                           TCF      IERASTST
000113:
000114:    6070           30120        NETZERO            CA       FIXLOC                                #  IF SO, LEAVE THE MODIFIED ADDRESS IN
000115:    6071           26116                           ADS      ADDRWD                                #  ADDRWD AND DISPATCH.
000116:    6072           50020        ITR15              INDEX    CYR                                   #  THIS INDEX MAKES THE NEXT INSTRUCTION
000117:    6073           76242                           7        INDJUMP    -1                         #  TCF INDJUMP + OP, EDITING CYR.
000118:
000119:    6074           00006        IERASTST           EXTEND
000120:    6075           66105                           BZMF     GEADDR                                #  GO PROCESS GENERAL-ERASABLE ADDRESS.
000121:
000122:    6076           75070                           MASK     LOW10                                 #  FIXED BANK ADDRESS. RESTORE AND ADD B15.
000123:    6077           65070                           AD       LOW10                                 #  SWITCH BANKS AND LEAVE SUBADDRESS IN
000124:    6100           56116                           XCH      ADDRWD                                #  ADDRWD FOR OPERAND RETRIEVAL. (THIS
000125:    6101           60115                           AD       INTBIT15                              #  METHOD PRECLUDES USE OF THE LAST
000126:    6102           54004                           TS       FBANK                                 #  LOCATION IN EACH FBANK.)
000127:    6103           50020        ITR12              INDEX    CYR
000128:    6104           76242                           7        INDJUMP    -1
000129:
000130:    6105           74373        GEADDR             MASK     LOW8
000131:    6106           65065                           AD       OCT1400
000132:    6107           56116                           XCH      ADDRWD
000133:    6110           54003                           TS       EBANK
000134:    6111           50020        ITR10              INDEX    CYR
000135:    6112           76242                           7        INDJUMP    -1
000136:
000137:                                                                                                  #  THE FOLLOWING ROUTINE PROCESSES INTERPRETIVE INDEXED ADDRESSES.  AN INTERPRETER INDEX REGISTER MAY
000138:                                                                                                  #  CONTAIN THE ADDRESS OF ANY ERASABLE REGISTER (0-42 BEING RELATIVE TO THE VAC AREA) OR ANY INTERPRETIVE PROGRAM
000139:                                                                                                  #  BANK, OR ANY INTEGER IN THAT RANGE.
000140:
000141:    6113           37702        DODLOAD*           CAF      DLOAD*                                #  STODL* COMES HERE TO PROCESS LOAD ADR.
000142:    6114           54020                           TS       CYR                                   #  (STOVL* ENTERS HERE).
000143:
000144:    6115           30120        INDEX              CA       FIXLOC                                #  SET UP INDEX LOCATION.
000145:    6116           54130                           TS       INDEXLOC
000146:    6117           24164                           INCR     LOC                                   #  (ADDRESS ALWAYS GIVEN).
000147:    6120           50164                           INDEX    LOC
000148:    6121           40000                           CS       0
000149:    6122           10000                           CCS      A                                     #  INDEX 2 IF ADDRESS STORED COMPLEMENTED.
000150:    6123           24130                           INCR     INDEXLOC
000151:    6124           16125                           NOOP
000152:
000153:    6125           54116                           TS       ADDRWD                                #  14 BIT ADDRESS TO ADDRWD.
000154:    6126           77711                           MASK     HIGH4                                 #  IF ADDRESS GREATER THAN 2K, ADD INTBIT15
000155:    6127           00006                           EXTEND
000156:    6130           16133                           BZF      INDEX2
000157:    6131           30115                           CA       INTBIT15
000158:    6132           26116                           ADS      ADDRWD
000159:
000160:    6133           50130        INDEX2             INDEX    INDEXLOC
000161:    6134           40046                           CS       X1
000162:    6135           26116                           ADS      ADDRWD                                #  DO AUGMENT, IGNORING AND CORRECTING OVF.
000163:
000164:    6136           77713                           MASK     HIGH9                                 #  SEE IF ADDRESS IS IN WORK AREA.
000165:    6137           00006                           EXTEND
000166:    6140           16153                           BZF      INDWORK
000167:    6141           77711                           MASK     HIGH4                                 #  SEE IF IN FIXED BANK.
000168:    6142           00006                           EXTEND
000169:    6143           16155                           BZF      INDERASE
000170:
000171:    6144           30116                           CA       ADDRWD                                #  IN FIXED - SWITCH BANKS AND CREATE
000172:    6145           54004                           TS       FBANK                                 #  SUB-ADDRESS.
000173:    6146           75070                           MASK     LOW10
000174:    6147           65021                           AD       2K
000175:    6150           54116                           TS       ADDRWD
000176:    6151           50020        ITR11              INDEX    CYR
000177:    6152           36242                           3        INDJUMP    -1
000178:
000179:    6153           30120        INDWORK            CA       FIXLOC                                #  MAKE ADDRWD RELATIVE TO WORK AREA.
000180:    6154           16161                           TCF      ITR13      -1
000181:
000182:    6155           35065        INDERASE           CA       OCT1400
000183:    6156           56116                           XCH      ADDRWD
000184:    6157           54003                           TS       EBANK
000185:    6160           74373                           MASK     LOW8
000186:    6161           26116                 -1        ADS      ADDRWD
000187:    6162           50020        ITR13              INDEX    CYR
000188:    6163           36242                           3        INDJUMP    -1
000189:
000190:                                                                                                  #  PUSH-UP ROUTINES.  WHEN NO OPERAND ADDRESS IS GIVEN, THE APPROPRIATE OPERAND IS TAKEN FROM THE PUSH-DOWN
000191:                                                                                                  #  LIST.  IN MOST CASES THE MODE OF THE RESULT (VECTOR OR SCALAR) OF THE LAST ARITHMETIC OPERATION PERFORMED
000192:                                                                                                  #  IS THE SAME AS THE TYPE OF OPERAND DESIRED (ALL ADD/SUBTRACT ETC.).  EXCEPTIONS TO THIS GENERAL RULE ARE LISTED
000193:                                                                                                  #  BELOW (NOTE THAT IN EVERY CASE THE MODE REGISTER IS LEFT INTACT):
000194:
000195:                                                                                                  #        1.      VXSC AND V/SC WANT THE OPPOSITE TYPE OF OPERAND, E.G., IF THE LAST OPERATION YIELDED A VECTOR
000196:                                                                                                  #                RESULT, VXSC WANTS A SCALAR.
000197:
000198:                                                                                                  #        2.      THE LOAD CODES SHOULD LOAD THE ACCUMULATOR INDEPENDENT OF THE RESULT OF THE LAST OPERATION.  THIS
000199:                                                                                                  #                INCLUDES VLOAD, DLOAD, TLOAD, PDDL, AND PDVL (NO PUSHUP WITH SLOAD).
000200:
000201:                                                                                                  #        3.      SOME ARITHMETIC OPERATIONS REQUIRE A STANDARD TYPE OF OPERAND REGARDLESS OF THE PREVIOUS OPERATION.
000202:                                                                                                  #                THIS INCLUDES SIGN WANTING DP AND TAD REQUIRING TP.
000203:
000204:    6164           34374        PUSHUP             CAF      OCT23                                 #  IF THE LOW 5 BITS OF CYR ARE LESS THAN
000205:    6165           70020                           MASK     CYR                                   #  20, THIS OP REQUIRES SPECIAL ATTENTION.
000206:    6166           66171                           AD       -OCT10                                #  (NO -0).
000207:    6167           10000                           CCS      A
000208:    6170           16202                           TCF      REGUP                                 #  FOR ALL CODES GREATER THAN OCT 7.
000209:
000210:    6171           77767        -OCT10             OCT      -10
000211:
000212:    6172           66061                           AD       NEG4                                  #  WE NOW HAVE 7 - OP CODE (MOD4).  SEE IF
000213:    6173           10000                           CCS      A                                     #  THE OP CODE (MOD4) IS THREE (REVERSE).
000214:    6174           50000                           INDEX    A                                     #  NO - THE MODE IS DEFINITE.  PICK UP THE
000215:    6175           46213                           CS       NO.WDS
000216:    6176           16204                           TCF      REGUP      +2
000217:
000218:    6177           50163                           INDEX    MODE                                  #  FOR VXSC AND V/SC WE WANT THE REQUIRED
000219:    6200           46211                           CS       REVCNT                                #  PUSHLOC DECREMENT WITHOUT CHANGING THE
000220:    6201           16204                           TCF      REGUP      +2                         #  MODE AT THIS TIME.
000221:
000222:    6202           50163        REGUP              INDEX    MODE                                  #  MOST ALL OP CODES PUSHUP HERE.
000223:    6203           46213                           CS       NO.WDS
000224:    6204           26166                 +2        ADS      PUSHLOC
000225:    6205           54116                           TS       ADDRWD
000226:    6206           50020        ITR14              INDEX    CYR
000227:    6207           76242                           7        INDJUMP    -1                         #  (THE INDEX MAKES THIS A TCF.)
000228:
000229:    6210           00002                           OCT      2                                     #  REVERSE PUSHUP DECREMENT. VECTOR TAKES 2
000230:    6211           00006        REVCNT             OCT      6                                     #  WORDS, SCALAR TAKES 6.
000231:    6212           00006                           OCT      6
000232:    6213           00002        NO.WDS             OCT      2                                     #  CONVENTIONAL DECREMENT IS 6 WORDS VECTOR
000233:    6214           00003        OCTAL3             OCT      3                                     #  2 IN DP, AND 3 IN TP.
000234:    6215           00006                           OCT      6
000235:
000236:                                                                                                  #  TEST THE SECOND PREFIX BIT TO SEE IF THIS IS A MISCELLANEOUS OR A UNARY/SHORT SHIFT OPERATION.
000237:
000238:    6216           10020        OPJUMP2            CCS      CYR                                   #  TEST SECOND PREFIX BIT.
000239:    6217           16232                           TCF      OPJUMP3                               #  TEST THIRD BIT TO SEE IF UNARY OR SHIFT.
000240:
000241:    6220           77722        -ENDVAC            DEC      -45        B-14
000242:
000243:                                                                                                  #  THE FOLLOWING ROUTINE PROCESSES ADDRESSES OF SUFFIX CLASS 10.  THEY ARE BASICALLY WORK AREA ADDRESSES
000244:                                                                                                  #  IN THE RANGE 0-52, ERASABLE ECADR CONSTANTS FROM 100-3777, AND FCADRS ABOVE THAT.  ALL 15 BITS ARE AVAILABLE
000245:                                                                                                  #  IN CONTRAST TO SUFFIX 1, IN WHICH ONLY THE LOW ORDER 14 ARE AVAILABLE.
000246:
000247:    6221           24164        15BITADR           INCR     LOC                                   #  (ENTRY HERE FROM STCALL).
000248:    6222           50164                           INDEX    LOC                                   #  PICK UP ADDRESS WORD.
000249:    6223           30000                           CA       0
000250:    6224           54117                           TS       POLISH                                #  WE MAY NEED A SUBADDRESS LATER.
000251:
000252:    6225           35071                           CAF      LOW7+2K                               #  THESE INSTRUCTIONS ARE IN BANK 1.
000253:    6226           54004                           TS       FBANK
000254:    6227           70020                           MASK     CYR
000255:    6230           50000        ITR7               INDEX    A
000256:    6231           16303                           TCF      MISCJUMP
000257:
000258:                                                                                                  #  COMPLETE THE DISPATCHING OF UNARY AND SHORT SHIFT OPERATIONS.
000259:
000260:    6232           54004        OPJUMP3            TS       FBANK                                 #  CALL IN BANK 0 (BITS 11-15 OF A ARE 0.)
000261:                                                                                                  #           ITRACE (6) REFERS TO "OPJUMP3".
000262:    6233           10020                           CCS      CYR                                   #  TEST THIRD PREFIX BIT.
000263:    6234           50000                           INDEX    A                                     #  THE DECREMENTED UNARY CODE IS IN BITS
000264:    6235           12000                           TCF      UNAJUMP                               #  1-4 OF A (ZERO, EXIT, HAS BEEN DETECTED)
000265:
000266:    6236           10163                           CCS      MODE                                  #  ITS A SHORT SHIFT CODE.  SEE IF PRESENT
000267:    6237           12017                           TCF      SHORTT                                #  SCALAR OR VECTOR.
000268:    6240           12017                           TCF      SHORTT
000269:    6241           12121                           TCF      SHORTV                                #  CALLS THE APPROPRIATE ROUTINE.
000270:
000271:    6242     4364               FBANKMSK           EQUALS   BANKMASK
000272:    6242           00122        LVBUF              ADRES    VBUF
000273:
000274:                                                                                                  #  THE FOLLOWING IS THE JUMP TABLE FOR OP CODES WHICH MAY HAVE INDEXABLE ADDRESSES OR MAY PUSH UP.
000275:
000276:    6243           16454        INDJUMP            TCF      VLOAD                                 #  00 - LOAD MPAC WITH A VECTOR.
000277:    6244           17040                           TCF      TAD                                   #  01 - TRIPLE PRECISION ADD TO MPAC.
000278:    6245           17624                           TCF      SIGN                                  #  02 - COMPLEMENT MPAC (V OR SC) IF X NEG.
000279:    6246           17350                           TCF      VXSC                                  #  03 - VECTOR TIMES SCALAR.
000280:    6247           16652                           TCF      CGOTO                                 #  04 - COMPUTED GO TO.
000281:    6250           16437                           TCF      TLOAD                                 #  05 - LOAD MPAC WITH TRIPLE PRECISION.
000282:    6251           16021                           TCF      DLOAD                                 #  06 - LOAD MPAC WITH A DP SCALAR.
000283:    6252           17573                           TCF      V/SC                                  #  07 - VECTOR DIVIDED BY SCALAR.
000284:
000285:    6253           16450                           TCF      SLOAD                                 #  10 - LOAD MPAC IN SINGLE PRECISION.
000286:    6254           16567                           TCF      SSP                                   #  11 - SET SINGLE PRECISION INTO X.
000287:    6255           16472                           TCF      PDDL                                  #  12 - PUSH DOWN MPAC AND RE-LOAD IN DP.
000288:    6256           17303                           TCF      MXV                                   #  13 - MATRIX POST-MULTIPLIED BY VECTOR.
000289:    6257           16526                           TCF      PDVL                                  #  14 - PUSH DOWN AND VECTORLOAD.
000290:    6260           16575                           TCF      CCALL                                 #  15 - COMPUTED CALL.
000291:    6261           17306                           TCF      VXM                                   #  16 - MATRIX PRE-MULTIPLIED BY VECTOR.
000292:    6262           17565                           TCF      TSLC                                  #  17 - NORMALIZE MPAC (SCALAR ONLY).
000293:
000294:    6263           17543                           TCF      DMPR                                  #  20 - DP MULTIPLY AND ROUND.
000295:    6264           17546                           TCF      DDV                                   #  21 - DP DIVIDE BY.
000296:    6265           17552                           TCF      BDDV                                  #  22 - DP DIVIDE INTO.
000297:    6266           17570                           TCF      GSHIFT                                #  23 - GENERAL SHIFT INSTRUCTION.
000298:    6267           16720                           TCF      VAD                                   #  24 - VECTOR ADD.
000299:    6270           16716                           TCF      VSU                                   #  25 - VECTOR SUBTRACT.
000300:    6271           17005                           TCF      BVSU                                  #  26 - VECTOR SUBTRACT FROM.
000301:    6272           17300                           TCF      DOT                                   #  27 - VECTOR DOT PRODUCT.
000302:
000303:    6273           17427                           TCF      VXV                                   #  30 - VECTOR CROSS PRODUCT.
000304:    6274           17374                           TCF      VPROJ                                 #  31 - VECTOR PROJECTION.
000305:    6275           16754                           TCF      DSU                                   #  32 - DP SUBTRACT.
000306:    6276           17031                           TCF      BDSU                                  #  33 - DP SUBTRACT FROM.
000307:    6277           16744                           TCF      DAD                                   #  34 - DP ADD.
000308:    6300           16300                           TCF      +0                                    #  35 - AVAILABLE
000309:    6301           17541                           TCF      DMP1                                  #  36 - DP MULTIPLY.
000310:    6302           17562                           TCF      SETPD                                 #  37 - SET PUSH DOWN POINTER (DIRECT ONLY)
000311:
000312:                                                                                                  #  CODES 10 AND 14 MUST NOT PUSH UP. CODE 04 MAY BE USED FOR VECTOR DECLARE BEFORE PUSHUP IF DESIRED.
000313:
000314:                                                                                                  #  THE FOLLOWING JUMP TABLE APPLIES TO INDEX, BRANCH, AND MISCELLANEOUS INSTRUCTIONS.
000315:
000316:    6303           12371        MISCJUMP           TCF      AXT                                   #  00 - ADDRESS TO INDEX TRUE.
000317:    6304           12376                           TCF      AXC                                   #  01 - ADDRESS TO INDEX COMPLEMENTED.
000318:    6305           12401                           TCF      LXA                                   #  02 - LOAD INDEX FROM ERASABLE.
000319:    6306           12405                           TCF      LXC                                   #  03 - LOAD INDEX FROM COMPLEMENT OF ERAS.
000320:    6307           12411                           TCF      SXA                                   #  04 - STORE INDEX IN ERASABLE.
000321:    6310           12417                           TCF      XCHX                                  #  05 - EXCHANGE INDEX WITH ERASABLE.
000322:    6311           12433                           TCF      INCR                                  #  06 - INCREMENT INDEX REGISTER.
000323:    6312           12442                           TCF      TIX                                   #  07 - TRANSFER ON INDEX.
000324:
000325:    6313           12425                           TCF      XAD                                   #  10 - INDEX REGISTER ADD FROM ERASABLE.
000326:    6314           12436                           TCF      XSU                                   #  11 - INDEX SUBTRACT FROM ERASABLE.
000327:    6315           12514                           TCF      BZE/GOTO                              #  12 - BRANCH ZERO AND GOTO.
000328:    6316           12521                           TCF      BPL/BMN                               #  13 - BRANCH PLUS AND BRANCH MINUS.
000329:    6317           12474                           TCF      RTB/BHIZ                              #  14 - RETURN TO BASIC AND BRANCH HI ZERO.
000330:    6320           12534                           TCF      CALL/ITA                              #  15 - CALL AND STORE QPRET.
000331:    6321           12543                           TCF      SW/                                   #  16 - SWITCH INSTRUCTIONS AND AVAILABLE.
000332:    6322           12504                           TCF      BOV(B)                                #  17 - BRANCH ON OVERFLOW TO BASIC OR INT.
000333:
000334:                                                                                                  #  THE FOLLOWING JUMP TABLE APPIES TO UNARY INSTRUCTIONS.
000335:    6323                                           COUNT    00/INTER
000336: 00,2000                                           BANK     0                                     #  00 - EXIT - DETECTED EARLIER.
000337: 00,2000           13207        UNAJUMP            TCF      SQRT                                  #  01 - SQUARE ROOT.
000338: 00,2001           13527                           TCF      SINE                                  #  02 - SIN.
000339: 00,2002           13516                           TCF      COSINE                                #  03 - COS.
000340: 00,2003           13607                           TCF      ARCSIN                                #  04 - ARC SIN.
000341: 00,2004           13611                           TCF      ARCCOS                                #  05 - ARC COS.
000342: 00,2005           13174                           TCF      DSQ                                   #  06 - DP SQUARE.
000343: 00,2006           12116                           TCF      ROUND                                 #  07 - ROUND TO DP.
000344:
000345: 00,2007           17637                           TCF      COMP                                  #  10 - COMPLEMENT VECTOR OR SCALAR.
000346: 00,2010           13232                           TCF      VDEF                                  #  11 - VECTOR DEFINE.
000347: 00,2011           13023                           TCF      UNIT                                  #  12 - UNIT VECTOR.
000348: 00,2012           13176                           TCF      ABVALABS                              #  13 - LENGTH OF VECTOR OR MAG OF SCALAR.
000349: 00,2013           13245                           TCF      VSQ                                   #  14 - SQUARE OF LENGTH OF VECTOR.
000350: 00,2014           16323                           TCF      STADR                                 #  15 - PUSH UP ON STORE CODE.
000351: 00,2015           13274                           TCF      RVQ                                   #  16 - RETURN VIA QPRET.
000352: 00,2016           13247                           TCF      PUSH                                  #  17 - PUSH MPAC DOWN.
000353:
000354:                                                                                                  #  SECTION 2     LOAD AND STORE PACKAGE.
000355:
000356:                                                                                                  #  A SET OF EIGHT STORE CODES IS PROVIDED AS THE PRIMARY METHOD OF STORING THE MULTI-PURPOSE
000357:                                                                                                  #  ACCUMULATOR (MPAC).  IF IN THE DANZIG SECTION LOC REFERS TO AN ALGEBRAICALLY POSITIVE WORD, IT IS TAKEN AS A
000358:                                                                                                  #  STORE CODE WITH A CORRESPONDING ERASABLE ADDRESS.  MOST OF THESE CODES ARE TWO ADDRESS, SPECIFYING THAT THE WORD
000359:                                                                                                  #  FOLLOWING THE STORE CODE IS TO BE USED AS AN ADDRESS FROM WHICH TO RE-LOAD MPAC.  FOUR OPTIONS ARE AVAILABLE:
000360:
000361:                                                                                                  #        1. STORE        STORE MPAC.  THE E ADDRESS MAY BE INDEXED.
000362:                                                                                                  #        2. STODL        STORE MPAC AND RE-LOAD IT IN DP WITH THE NEXT ADDRESS (THE LOAD MAY BE INDEXED).
000363:                                                                                                  #        3. STOVL        STORE MPAC AND RE-LOAD A VECTOR (AS ABOVE).
000364:                                                                                                  #        4. STCALL       STORE AND DO A CALL (BOTH ADDRESSES MUST BE DIRECT HERE).
000365:
000366:                                                                                                  #  STODL AND STOVL WILL TAKE FROM THE PUSH-DOWN LIST IF NO LOAD ADDRESS IS GIVEN.
000367:
000368:    6323                                           BLOCK    3
000369:
000370:    6323                                           COUNT    03/INTER
000371:
000372:    6323           30165        STADR              CA       BANKSET                               #  THE STADR CODE (PUSHUP UP ON STORE
000373:    6324           54004                           TS       FBANK                                 #  ADDRESS) ENTERS HERE.
000374:    6325           24164                           INCR     LOC
000375:    6326           50164        ITR1               INDEX    LOC                                   #  THE STORECODE WAS STORED COMPLEMENTED TO
000376:    6327           40000                           CS       0                                     #  MAKE IT LOOK LIKE AN OPCODE PAIR.
000377:    6330           67716                           AD       NEGONE                                #  (YUL CANT REMOVE 1 BECAUSE OF EARLY CCS)
000378:
000379:    6331           54116        DOSTORE            TS       ADDRWD
000380:    6332           74372                           MASK     LOW11                                 #  ENTRY FROM DISPATCHER. SAVE THE ERASABLE
000381:    6333           56116                           XCH      ADDRWD                                #  ADDRESS AND JUMP ON THE STORE CODE NO.
000382:    6334           77671                           MASK     B12T14
000383:    6335           00006                           EXTEND
000384:    6336           75027                           MP       BIT5                                  #  EACH TRANSFER VECTOR ENTRY IS TWO WORDS.
000385:    6337           50000        ITR0               INDEX    A
000386:    6340           16341                           TCF      STORJUMP
000387:
000388:                                                                                                  #  STORE CODE JUMP TABLE.  CALLS THE APPROPRIATE STORING ROUTINE AND EXITS TO DANZIG OR TO ADDRESS WITH
000389:                                                                                                  #  A SUPPLIED OPERATION CODE.
000390:
000391:                                                                                                  #  STORE STORE,1 AND STORE,2 RETURN TO DANZIG, THUS RESETTING THE EBANK TO ITS STATE AT INTPRET.
000392:
000393:    6341           06371        STORJUMP           TC       STORE                                 #  STORE.
000394:    6342           16030                           TCF      DANZIG                                #  PICK UP NEW OP CODE(S).
000395:    6343           06363                           TC       STORE,1
000396:    6344           16030                           TCF      DANZIG
000397:    6345           06366                           TC       STORE,2
000398:    6346           16030                           TCF      DANZIG
000399:
000400:    6347           06371                           TC       STORE                                 #  STODL.
000401:    6350           16427                           TCF      DODLOAD
000402:
000403:    6351           06371                           TC       STORE                                 #  STODL WITH INDEXED LOAD ADDRESS.
000404:    6352           16113                           TCF      DODLOAD*
000405:
000406:    6353           06371                           TC       STORE                                 #  STOVL.
000407:    6354           16432                           TCF      DOVLOAD
000408:
000409:    6355           06371                           TC       STORE                                 #  STOVL WITH INDEXED LOAD ADDRESS.
000410:    6356           16435                           TCF      DOVLOAD*
000411:    6357           06371                           TC       STORE                                 #  STOTC.
000412:    6360           35044                           CAF      CALLCODE
000413:    6361           54020                           TS       CYR
000414:    6362           16221                           TCF      15BITADR                              #  GET A 15 BIT ADDRESS.
000415:
000416:                                                                                                  #  STORE CODE ADDRESS PROCESSOR.
000417:
000418:    6363           50120        STORE,1            INDEX    FIXLOC
000419:    6364           40046                           CS       X1
000420:    6365           16370                           TCF      PRESTORE
000421:
000422:    6366           50120        STORE,2            INDEX    FIXLOC
000423:    6367           40047                           CS       X2
000424:    6370           26116        PRESTORE           ADS      ADDRWD                                #  RESULTANT ADDRESS IS IN ERASABLE.
000425:
000426:    6371           40116        STORE              CS       ADDRWD
000427:    6372           65050                           AD       DEC45
000428:    6373           10000                           CCS      A                                     #  DOES THE ADDRESS POINT TO THE WORK AREA?
000429:    6374           30120                           CA       FIXLOC                                #  YES.
000430:    6375           16402                           TCF      AHEAD5
000431:    6376           35065                           CA       OCT1400                               #  NO.  SET EBANK & MAKE UP SUBADDRESS.
000432:    6377           56116                           XCH      ADDRWD
000433:    6400           54003                           TS       EBANK
000434:    6401           74373                           MASK     LOW8
000435:    6402           26116        AHEAD5             ADS      ADDRWD
000436:
000437:                                                                                                  #  STORING ROUTINES.  STORE DP, TP, OR VECTOR AS INDICATED BY MODE.
000438:
000439:    6403           00006        STARTSTO           EXTEND                                         #  MPAC,+1 MUST BE STORED IN ANY EVENT.
000440:                                                                                                  #  ITRACE (5) REFERS TO "STARTSTO".
000441:    6404           30155                           DCA      MPAC
000442:    6405           50116                           INDEX    ADDRWD
000443:    6406           52001                           DXCH     0
000444:
000445:    6407           10163                           CCS      MODE
000446:    6410           16423                           TCF      TSTORE
000447:    6411           00002                           TC       Q
000448:
000449:    6412           00006        VSTORE             EXTEND
000450:    6413           30160                           DCA      MPAC       +3
000451:    6414           50116                           INDEX    ADDRWD
000452:    6415           52003                           DXCH     2
000453:
000454:    6416           00006                           EXTEND
000455:    6417           30162                           DCA      MPAC       +5
000456:    6420           50116                           INDEX    ADDRWD
000457:    6421           52005                           DXCH     4
000458:    6422           00002                           TC       Q
000459:
000460:    6423           30156        TSTORE             CA       MPAC       +2
000461:    6424           50116                           INDEX    ADDRWD
000462:    6425           54002                           TS       2
000463:    6426           00002                           TC       Q
000464:
000465:                                                                                                  #  ROUTINES TO BEGIN PROCESSING OF THE SECOND ADDRESS ASSOCIATED WITH ALL STORE-TYPE CODES EXCEPT STORE
000466:                                                                                                  #  ITSELF.
000467:
000468:    6427           37701        DODLOAD            CAF      DLOADCOD
000469:    6430           54020                           TS       CYR
000470:    6431           16055                           TCF      DIRADRES                              #  GO GET A DIRECT ADDRESS.
000471:
000472:    6432           35015        DOVLOAD            CAF      VLOADCOD
000473:    6433           54020                           TS       CYR
000474:    6434           16055                           TCF      DIRADRES
000475:
000476:    6435           36056        DOVLOAD*           CAF      VLOAD*
000477:    6436           16114                           TCF      DODLOAD*   +1                         #  PROLOGUE TO INDEX ROUTINE.
000478:
000479:                                                                                                  #  THE FOLLOWING LOAD INSTRUCTIONS ARE PROVIDED FOR LOADING THE MULTI-PURPOSE ACCUMULATOR MPAC.
000480:
000481:    6437           50116        TLOAD              INDEX    ADDRWD
000482:    6440           30002                           CA       2                                     #  LOAD A TRIPLE PRECISION ARGUMENT INTO
000483:    6441           54156                           TS       MPAC       +2                         #  THE FIRST THREE MPAC REGISTERS, WITH THE
000484:    6442           00006                           EXTEND                                         #  CONTENTS OF THE OTHER FOUR IRRELEVANT.
000485:    6443           50116                           INDEX    ADDRWD
000486:    6444           30001                           DCA      0
000487:    6445           52155                           DXCH     MPAC
000488:    6446           35033        TMODE              CAF      ONE
000489:    6447           16027                           TCF      NEWMODE                               #  DECLARE TRIPLE PRECISION MODE.
000490:
000491:    6450           22007        SLOAD              ZL                                             #  LOAD A SINGLE PRECISION NUMBER INTO
000492:    6451           50116                           INDEX    ADDRWD                                #  MPAC, SETTING MPAC+1,2 TO ZERO.  THE
000493:    6452           30000                           CA       0                                     #  CONTENTS OF THE REMAINING MPAC REGISTERS
000494:    6453           16024                           TCF      SLOAD2                                #  ARE IRRELEVANT.
000495:
000496:    6454           00006        VLOAD              EXTEND                                         #  LOAD A DOUBLE PRECISION VECTOR INTO
000497:    6455           50116                           INDEX    ADDRWD                                #  MPAC,+1, MPAC+3,4, AND MPAC+5,6.  THE
000498:    6456           30001                           DCA      0                                     #  CONTENTS OF MPAC +2 ARE IRRELEVANT.
000499:    6457           52155                           DXCH     MPAC
000500:
000501:    6460           00006        ENDVLOAD           EXTEND                                         #  PDVL COMES HERE TO FINISH UP FOR DP, TP.
000502:    6461           50116                           INDEX    ADDRWD
000503:    6462           30003                           DCA      2
000504:    6463           52160                           DXCH     MPAC       +3
000505:
000506:    6464           00006                 +4        EXTEND                                         #  TPDVL FINISHES HERE.
000507:    6465           50116                           INDEX    ADDRWD
000508:    6466           30005                           DCA      4
000509:    6467           52162                           DXCH     MPAC       +5
000510:
000511:    6470           45033        VMODE              CS       ONE                                   #  DECLARE VECTOR MODE.
000512:    6471           16027                           TCF      NEWMODE
000513:
000514:                                                                                                  #  THE FOLLOWING INSTRUCTIONS ARE PROVIDED FOR STORING OPERANDS IN THE PUSHDOWN LIST:
000515:                                                                                                  #        1.      PUSH            PUSHDOWN AND NO LOAD.
000516:                                                                                                  #        2.      PDDL            PUSHDOWN AND DOUBLE PRECISION LOAD.
000517:                                                                                                  #        3.      PDVL            PUSHDOWN AND VECTOR LOAD.
000518:
000519:    6472           00006        PDDL               EXTEND
000520:    6473           50116                           INDEX    ADDRWD                                #  LOAD MPAC,+1, PUSHING THE FORMER
000521:    6474           30001                           DCA      0                                     #  CONTENTS DOWN.
000522:    6475           52155                           DXCH     MPAC
000523:    6476           50166                           INDEX    PUSHLOC
000524:    6477           52001                           DXCH     0
000525:
000526:    6500           50163                           INDEX    MODE                                  #  ADVANCE THE PUSHDOWN POINTER APPRO-
000527:    6501           36213                           CAF      NO.WDS                                #  PRIATELY.
000528:    6502           26166                           ADS      PUSHLOC
000529:
000530:    6503           10163                           CCS      MODE
000531:    6504           16521                           TCF      ENDTPUSH
000532:    6505           16517                           TCF      ENDDPUSH
000533:
000534:    6506           54163                           TS       MODE                                  #  NOW DP.
000535:    6507           54156        ENDVPUSH           TS       MPAC       +2
000536:    6510           52160                           DXCH     MPAC       +3                         #  PUSH DOWN THE REST OF THE VECTOR HERE.
000537:    6511           50166                           INDEX    PUSHLOC
000538:    6512           51775                           DXCH     0          -4
000539:
000540:    6513           52162                           DXCH     MPAC       +5
000541:    6514           50166                           INDEX    PUSHLOC
000542:    6515           51777                           DXCH     0          -2
000543:
000544:    6516           16030                           TCF      DANZIG
000545:
000546:    6517           54156        ENDDPUSH           TS       MPAC       +2                         #  SET MPAC +2 TO ZERO AND EXIT ON DP.
000547:    6520           16030                           TCF      DANZIG
000548:
000549:    6521           54163        ENDTPUSH           TS       MODE
000550:    6522           56156                           XCH      MPAC       +2                         #  ON TRIPLE, SET MPAC +2 TO ZERO, PUSHING
000551:    6523           50166                 +2        INDEX    PUSHLOC                               #  DOWN THE OLD CONTENTS
000552:    6524           53777                           TS       0          -1
000553:    6525           16030                           TCF      DANZIG
000554:
000555:                                                                                                  #  PDVL - PUSHDOWN AND VECTOR LOAD.
000556:
000557:    6526           00006        PDVL               EXTEND                                         #  RELOAD MPAC AND PUSH DOWN ITS CONTENTS.
000558:    6527           50116                           INDEX    ADDRWD
000559:    6530           30001                           DCA      0
000560:    6531           52155                           DXCH     MPAC
000561:    6532           50166                           INDEX    PUSHLOC
000562:    6533           52001                           DXCH     0
000563:
000564:    6534           50163                           INDEX    MODE                                  #  ADVANCE THE PUSHDOWN POINTER.
000565:    6535           36213                           CAF      NO.WDS
000566:    6536           26166                           ADS      PUSHLOC
000567:
000568:    6537           10163                           CCS      MODE                                  #  TEST PAST MODE.
000569:    6540           16557                           TCF      TPDVL
000570:    6541           16460                           TCF      ENDVLOAD                              #  JUST LOAD LAST FOUR REGISTERS ON DP.
000571:
000572:    6542           00006        VPDVL              EXTEND                                         #  PUSHDOWN AND RE-LOAD LAST TWO COMPONENTS
000573:    6543           50116                           INDEX    ADDRWD
000574:    6544           30003                           DCA      2
000575:    6545           52160                           DXCH     MPAC       +3
000576:    6546           50166                           INDEX    PUSHLOC
000577:    6547           51775                           DXCH     0          -4
000578:
000579:    6550           00006                           EXTEND
000580:    6551           50116                           INDEX    ADDRWD
000581:    6552           30005                           DCA      4
000582:    6553           52162                           DXCH     MPAC       +5
000583:    6554           50166                           INDEX    PUSHLOC
000584:    6555           51777                           DXCH     0          -2
000585:
000586:    6556           16030                           TCF      DANZIG
000587:
000588:    6557           00006        TPDVL              EXTEND                                         #  ON TP, WE MUST LOAD THE Y COMPONENT
000589:    6560           50116                           INDEX    ADDRWD                                #  BEFORE STORING MPAC +2 IN CASE THIS IS A
000590:    6561           30003                           DCA      2                                     #  PUSHUP.
000591:    6562           52160                           DXCH     MPAC       +3
000592:
000593:    6563           30156                           CA       MPAC       +2
000594:    6564           50166                           INDEX    PUSHLOC                               #  IN DP.
000595:    6565           53777                           TS       0          -1
000596:    6566           16464                           TCF      ENDVLOAD   +4
000597:
000598:                                                                                                  #  SSP (STORE SINGLE PRECISION) IS EXECUTED HERE.
000599:
000600:    6567           24164        SSP                INCR     LOC                                   #  PICK UP THE WORD FOLLOWING THE GIVEN
000601:    6570           50164                           INDEX    LOC                                   #  ADDRESS AND STORE IT AT X.
000602:    6571           30000                           CA       0
000603:    6572           50116        STORE1             INDEX    ADDRWD                                #  SOME INDEX AND MISCELLANEOUS OPS END
000604:    6573           54000                           TS       0                                     #  HERE.
000605:    6574           16030                           TCF      DANZIG
000606:
000607:                                                                                                  #  SEQUENCE CHANGING AND SUBROUTINE CALLING OPTIONS.
000608:
000609:                                                                                                  #  THE FOLLOWING OPERATIONS ARE AVAILABLE FOR SEQUENCING CHANGING, BRANCHING, AND CALLING SUBROUTINES:
000610:                                                                                                  #        1.      GOTO            GO TO.
000611:                                                                                                  #        2.      CALL            CALL SUBROUTINE SETTING QPRET.
000612:                                                                                                  #        3.      CGOTO           COMPUTED GO TO.
000613:                                                                                                  #        4.      CCALL           COMPUTED CALL.
000614:                                                                                                  #        7.      BPL             BRANCH IF MPAC POSITIVE OR ZERO.
000615:                                                                                                  #        8.      BZE             BRANCH IF MPAC ZERO.
000616:                                                                                                  #        9.      BMN             BRANCH IF MPAC NEGATIVE NON-ZERO.
000617:
000618:    6575           24164        CCALL              INCR     LOC                                   #  MAINTAIN LOC FOR QPRET COMPUTATION.
000619:    6576           50164                           INDEX    LOC
000620:    6577           30000                           CAF      0                                     #  GET BASE ADDRESS OF CADR LIST.
000621:    6600           50116                           INDEX    ADDRWD
000622:    6601           60000                           AD       0                                     #  ADD INCREMENT.
000623:    6602           54004                           TS       FBANK                                 #  SELECT DESIRED CADR.
000624:    6603           75070                           MASK     LOW10
000625:    6604           50000                           INDEX    A
000626:    6605           32000                           CAF      10000
000627:    6606           54117                           TS       POLISH
000628:
000629:    6607           30165        CALL               CA       BANKSET                               #  FOR ANY OF THE CALL OPTIONS, MAKE UP THE
000630:    6610           74364                           MASK     BANKMASK                              #  ADDRESS OF THE NEXT OP-CODE PAIR/STORE
000631:    6611           64364                           AD       BANKMASK                              #  CODE AND LEAVE IT IN QPRET.  NOTE THAT
000632:    6612           60164                           AD       LOC                                   #  BANKMASK = -(2000 - 1).
000633:    6613           50120                           INDEX    FIXLOC
000634:    6614           54052                           TS       QPRET
000635:
000636:    6615           30117        GOTO               CA       POLISH                                #  BASIC BRANCHING SEQUENCE.
000637:    6616           77711                 +1        MASK     HIGH4
000638:    6617           00006                           EXTEND
000639:    6620           16631                           BZF      GOTOERS                               #  SEE IF ADDRESS POINTS TO FIXED OR ERAS.
000640:    6621           30165                 +4        CA       BANKSET                               #  SET EBANK PART OF BBANK.  NEXT, SET UP
000641:    6622           54006                           TS       BBANK                                 #  FBANK.  THE COMBINATION IS PICKED UP &
000642:    6623           30117                           CA       POLISH                                #  PUT INTO BANKSET AT INTPRET +2.
000643:    6624           54004                           TS       FBANK
000644:    6625           75070                           MASK     LOW10
000645:    6626           65021                           AD       2K
000646:    6627           54164                           TS       LOC
000647:    6630           16011                           TCF      INTPRET    +3
000648:
000649:    6631  E3,1400                                  EBANK=   1400                                  #  SO YUL DOESN'T CUSS THE "CA 1400" BELOW.
000650:
000651:    6631           30117        GOTOERS            CA       POLISH                                #  THE GIVEN ADDRESS IS IN ERASABLE - SEE
000652:    6632           66220                           AD       -ENDVAC                               #  IF RELATIVE TO THE WORK AREA.
000653:    6633           10000                           CCS      A
000654:    6634           30117                           CA       POLISH                                #  GENERAL ERASABLE.
000655:    6635           16644                           TCF      GOTOGE
000656:
000657:    6636           30120                           CA       FIXLOC                                #  WORK AREA.
000658:    6637           60117                           AD       POLISH
000659:    6640           50000                           INDEX    A                                     #  USE THE GIVEN ADDRESS AS THE ADDRESS OF
000660:    6641           30000                           CA       0                                     #  THE BRANCH ADDRESS.
000661:    6642           54117                           TS       POLISH
000662:    6643           16616                           TCF      GOTO       +1                         #  ALLOWS ARBITRARY INDIRECTNESS LEVELS.
000663:
000664:    6644           54003        GOTOGE             TS       EBANK
000665:    6645           74373                           MASK     LOW8
000666:    6646           50000                           INDEX    A                                     #  USE THE GIVEN ADDRESS AS THE ADDRESS OF
000667:    6647           31400                           CA       1400                                  #  THE BRANCH ADDRESS.
000668:    6650           54117                           TS       POLISH
000669:    6651           16616                           TCF      GOTO       +1
000670:
000671:    6652           50164        CGOTO              INDEX    LOC                                   #  COMPUTED GO TO.  PICK UP ADDRESS OF CADR
000672:    6653           30001                           CA       1                                     #  LIST.
000673:    6654           50116                           INDEX    ADDRWD                                #  ADD MODIFIER.
000674:    6655           60000                           AD       0
000675:    6656           54004                           TS       FBANK                                 #  SELECT GOTO ADDRESS.
000676:    6657           75070                           MASK     LOW10
000677:    6660           50000                           INDEX    A
000678:    6661           32000                           CA       10000
000679:    6662           54117                           TS       POLISH
000680:    6663           16616                           TCF      GOTO       +1                         #  WITH ADDRESS IN A.
000681:
000682:    6664           30165        SWBRANCH           CA       BANKSET                               #  SWITCH INSTRUCTIONS WHICH ELECT TO
000683:    6665           54004                           TS       FBANK                                 #  BRANCH COME HERE TO DO SO.
000684:    6666           50164                           INDEX    LOC
000685:    6667           30001                           CA       1
000686:    6670           54117                           TS       POLISH
000687:    6671           16616                           TCF      GOTO       +1
000688:
000689:                                                                                                  #  TRIPLE PRECISION BRANCHING ROUTINE.  IF CALLING TC IS AT L, RETURN IS AS FOLLOWS:
000690:                                                                                                  #        L+1     IF MPAC IS GREATER THAN ZERO.
000691:                                                                                                  #        L+2     IF MPAC IS EQUAL TO +0 OR -0.
000692:                                                                                                  #        L+3     IF MPAC IS LESS THAN ZERO.
000693:
000694:    6672           10154        BRANCH             CCS      MPAC
000695:    6673           00002                           TC       Q
000696:    6674           16676                           TCF      +2                                    #  ON ZERO.
000697:    6675           16710                           TCF      NEG
000698:
000699:    6676           10155                           CCS      MPAC       +1
000700:    6677           00002                           TC       Q
000701:    6700           16702                           TCF      +2
000702:    6701           16710                           TCF      NEG
000703:
000704:    6702           10156                           CCS      MPAC       +2
000705:    6703           00002                           TC       Q
000706:    6704           16706                           TCF      +2
000707:    6705           16710                           TCF      NEG
000708:
000709:    6706           50002        Q+1                INDEX    Q
000710:    6707           00001                           TC       1
000711:
000712:    6710           50002        NEG                INDEX    Q                                     #  IF FIRST NON-ZERO REGISTER WAS NEGATIVE.
000713:    6711           00002                           TC       2
000714:
000715:    6712     6710               Q+2                =        NEG
000716:
000717:                                                                                                  #  ITRACE (3) REFERS TO "EXIT".
000718:
000719:    6712           30165        EXIT               CA       BANKSET                               #  RESTORE USER'S BANK SETTING, AND LEAVE
000720:    6713           54006                           TS       BBANK                                 #  INTERPRETIVE MODE.
000721:    6714           50164                           INDEX    LOC
000722:    6715           00001                           TC       1
000723:
000724:                                                                                                  #  SECTION 3 - ADD/SUBTRACT PACKAGE.
000725:
000726:                                                                                                  #  THE FOLLOWING OPERATIONS ARE PROVIDED FOR ADDING TO AND SUBTRACTING FROM THE MULTI-PURPOSE ACCUMULATOR
000727:                                                                                                  #  MPAC:
000728:                                                                                                  #        1.      DAD     DOUBLE PRECISION ADD.
000729:                                                                                                  #        2.      DSU     DOUBLE PRECISION SUBTRACT.
000730:                                                                                                  #        3.      BDSU    DOUBLE PRECISION SUBTRACT FROM.
000731:                                                                                                  #        4.      TAD     TRIPLE PRECISION ADD.
000732:                                                                                                  #        5.      VAD     VECTOR ADD.
000733:                                                                                                  #        6.      VSU     VECTOR SUBTRACT.
000734:                                                                                                  #        7.      BVSU    VECTOR SUBTRACT FROM.
000735:                                                                                                  #  THE INTERPRETIVE OVERFLOW INDICATOR OVFIND IS SET NON-ZERO IF OVERFLOW OCCURS IN ANY OF THE ABOVE.
000736:
000737:    6716           35015        VSU                CAF      BIT15                                 #  CHANGES 0 TO DCS.
000738:    6717           16721                           TCF      +2
000739:
000740:    6720           34371        VAD                CAF      PRIO30                                #  CHANGES 0 TO DCA.
000741:    6721           26116                           ADS      ADDRWD
000742:    6722           00006                           EXTEND
000743:    6723           50116                           INDEX    ADDRWD
000744:    6724           00003                           READ     HISCALAR                              #  DCA 2 OR DCS 2
000745:    6725           20160                           DAS      MPAC       +3
000746:    6726           00006                           EXTEND                                         #  CHECK OVERFLOW.
000747:    6727           16731                           BZF      +2
000748:    6730           06763                           TC       OVERFLWY
000749:
000750:    6731           00006                           EXTEND
000751:    6732           50116                           INDEX    ADDRWD
000752:    6733           00005                           READ     CHAN5                                 #  DCA 4 OR DCS 4
000753:    6734           20162                           DAS      MPAC       +5
000754:    6735           00006                           EXTEND
000755:    6736           16740                           BZF      +2
000756:    6737           06760                           TC       OVERFLWZ
000757:
000758:    6740           00006                           EXTEND
000759:    6741           50116                           INDEX    ADDRWD
000760:    6742           00001                           READ     LCHAN                                 #  DCA 0 OR DCS 0
000761:    6743           16747                           TCF      ENDVXV
000762:
000763:    6744           00006        DAD                EXTEND
000764:    6745           50116                           INDEX    ADDRWD
000765:    6746           30001                           DCA      0
000766:    6747           20155        ENDVXV             DAS      MPAC                                  #  VXV FINISHES HERE.
000767:    6750           00006                           EXTEND
000768:    6751           16030                           BZF      DANZIG
000769:
000770:    6752           06766        SETOVF             TC       OVERFLOW
000771:    6753           16030                           TCF      DANZIG
000772:
000773:    6754           00006        DSU                EXTEND
000774:    6755           50116                           INDEX    ADDRWD
000775:    6756           40001                           DCS      0
000776:    6757           16747                           TCF      ENDVXV
000777:
000778:    6760           54001        OVERFLWZ           TS       L                                     #  ENTRY FOR THIRD COMPONENT.
000779:    6761           35036                           CAF      FIVE
000780:    6762           16765                           TCF      +3
000781:
000782:    6763           54001        OVERFLWY           TS       L                                     #  ENTRY FOR SECOND COMPONENT.
000783:    6764           36214                           CAF      THREE
000784:    6765           56001                           XCH      L
000785:
000786:    6766           50000        OVERFLOW           INDEX    A                                     #  ENTRY FOR 1ST COMP OR DP (L=0).
000787:    6767           45014                           CS       LIMITS                                #  PICK UP POSMAX OR NEGMAX.
000788:    6770           54130                           TS       BUF
000789:    6771           00006                           EXTEND
000790:    6772           24000                           AUG      A                                     #  FORCE OVERFLOW.
000791:    6773           50001                           INDEX    L
000792:    6774           26155                           ADS      MPAC       +1
000793:    6775           54007                           TS       7
000794:    6776           35035                           CAF      ZERO
000795:    6777           60130                           AD       BUF
000796:    7000           50001                           INDEX    L
000797:    7001           26154                           ADS      MPAC
000798:    7002           54007                           TS       7
000799:    7003           00002                           TC       Q                                     #  NO OVERFLOW EXIT.
000800:    7004           17121                           TCF      SETOVF2                               #  SET OVFIND AND EXIT.
000801:
000802:    7005           00006        BVSU               EXTEND
000803:    7006           50116                           INDEX    ADDRWD
000804:    7007           30003                           DCA      2
000805:    7010           52160                           DXCH     MPAC       +3
000806:    7011           00006                           EXTEND
000807:    7012           40001                           DCOM
000808:    7013           20160                           DAS      MPAC       +3
000809:    7014           00006                           EXTEND
000810:    7015           17017                           BZF      +2
000811:    7016           06763                           TC       OVERFLWY
000812:
000813:    7017           00006                           EXTEND
000814:    7020           50116                           INDEX    ADDRWD
000815:    7021           30005                           DCA      4
000816:    7022           52162                           DXCH     MPAC       +5
000817:    7023           00006                           EXTEND
000818:    7024           40001                           DCOM
000819:    7025           20162                           DAS      MPAC       +5
000820:    7026           00006                           EXTEND
000821:    7027           17031                           BZF      +2
000822:    7030           06760                           TC       OVERFLWZ
000823:
000824:    7031           00006        BDSU               EXTEND
000825:    7032           50116                           INDEX    ADDRWD
000826:    7033           30001                           DCA      0
000827:    7034           52155                           DXCH     MPAC
000828:    7035           00006                           EXTEND
000829:    7036           40001                           DCOM
000830:    7037           16747                           TCF      ENDVXV
000831:
000832:                                                                                                  #  TRIPLE PRECISION ADD ROUTINE.
000833:
000834:    7040           00006        TAD                EXTEND
000835:    7041           50116                           INDEX    ADDRWD
000836:    7042           30002                           DCA      1                                     #  ADD MINOR PARTS FIRST.
000837:    7043           20156                           DAS      MPAC       +1
000838:    7044           50116                           INDEX    ADDRWD
000839:    7045           60000                           AD       0
000840:    7046           60154                           AD       MPAC
000841:    7047           54154                           TS       MPAC
000842:    7050           16030                           TCF      DANZIG
000843:
000844:    7051           16752                           TCF      SETOVF                                #  SET OVFIND IF SUCH OCCURS.
000845:
000846:                                                                                                  #  ARITHMETIC SUBROUTINES REQUIRED IN FIXED-FIXED.
000847:                                                                                                  #        1.  DMPSUB      DOUBLE PRECISION MULTIPLY. MULTIPLY THE CONTENTS OF MPAC,+1 BY THE DP WORD WHOSE ADDRESS
000848:                                                                                                  #                        IS IN ADDRWD AND LEAVE A TRIPLE PRECISION RESULT IN MPAC.
000849:                                                                                                  #        2.  ROUNDSUB    ROUND THE TRIPLE PRECISON CONTENTS OF MPAC TO DOUBLE PRECISION.
000850:                                                                                                  #        3.  DOTSUB      TAKE THE DOT PRODUCT OF THE VECTOR IN MPAC AND THE VECTOR WHOSE ADDRESS IS IN ADDRWD
000851:                                                                                                  #                        AND LEAVE THE TRIPLE PRECISION RESULT IN MPAC.
000852:                                                                                                  #        4.  POLY        USING THE CONTENTS OF MPAC AS A DP ARGUMENT, EVALUATE THE POLYNOMIAL WHOSE DEGREE AND
000853:                                                                                                  #                        COEFFICIENTS IMMEDIATELY FOLLOW THE TC POLY INSTRUCTION (SEE ROUTINE FOR DETAILS.)
000854:
000855:    7052           50002        DMP                INDEX    Q                                     #  BASIC SUBROUTINE FOR USE BY PINBALL, ETC
000856:    7053           30000                           CAF      0                                     #  ADRES OF ARGUMENT FOLLOWS  TC DMP  .
000857:    7054           24002                           INCR     Q
000858:    7055           54116                 -1        TS       ADDRWD                                #  (PROLOGUE FOR SETTING ADDRWD.)
000859:
000860:    7056           50116        DMPSUB             INDEX    ADDRWD                                #  GET MINOR PART OF OPERAND AT C(ADDRWD).
000861:    7057           30001                           CA       1
000862:    7060           54156                           TS       MPAC       +2                         #  THIS WORKS FOR SQUARING MPAC AS WELL.
000863:    7061           35035                           CAF      ZERO                                  #  SET MPAC +1 TO ZERO SO WE CAN ACCUMULATE
000864:    7062           56155                           XCH      MPAC       +1                         #  THE PARTIAL PRODUCTS WITH DAS
000865:    7063           54135                           TS       MPTEMP                                #  INSTRUCTIONS.
000866:    7064           00006                           EXTEND
000867:    7065           70156                           MP       MPAC       +2                         #  MINOR OF MPAC X MINOR OF C(ADDRWD).
000868:
000869:    7066           56156                           XCH      MPAC       +2                         #  DISCARD MINOR PART OF ABOVE RESULT AND
000870:    7067           00006                           EXTEND                                         #  FORM MAJOR OF MPAC X MINOR OF C(ADDRWD).
000871:    7070           70154                           MP       MPAC
000872:    7071           20156                           DAS      MPAC       +1                         #  GUARANTEED NO OVERFLOW.
000873:
000874:    7072           50116                           INDEX    ADDRWD                                #  GET MAJOR PART OF ARGUMENT AT C(ADDRWD).
000875:    7073           30000                           CA       0
000876:    7074           56135                           XCH      MPTEMP                                #  SAVE AND BRING OUT MINOR OF MPAC.
000877:    7075           00006        DMPSUB2            EXTEND
000878:    7076           70135                           MP       MPTEMP                                #  MAJOR OF C(ADDRWD) X MINOR OF MPAC.
000879:    7077           20156                           DAS      MPAC       +1                         #  ACCUMULATE, SETTING A TO NET OVERFLOW.
000880:
000881:    7100           56154                           XCH      MPAC                                  #  SETTING MPAC TO 0 OR +-1.
000882:    7101           00006                           EXTEND
000883:    7102           70135                           MP       MPTEMP                                #  MAJOR OF MPAC X MAJOR OF C(ADDRWD).
000884:    7103           20155                           DAS      MPAC                                  #  GUARANTEED NO OVERFLOW.
000885:    7104           00002                           TC       Q                                     #  49 MCT = .573 MS. INCLUDING RETURN.
000886:
000887:                                                                                                  #  ROUND MPAC TO DOUBLE PRECISION, SETTING OVFIND ON THE RARE EVENT OF OVERFLOW.
000888:
000889:    7105           35035        ROUNDSUB           CAF      ZERO                                  #  SET MPAC +2 = 0 FOR SCALARS AND CHANGE
000890:    7106           54163                 +1        TS       MODE                                  #  MODE TO DP.
000891:
000892:    7107           56156        VROUND             XCH      MPAC       +2                         #  BUT WE NEEDNT TAKE THE TIME FOR VECTORS.
000893:    7110           60000                           DOUBLE
000894:    7111           54001                           TS       L
000895:    7112           00002                           TC       Q
000896:
000897:    7113           60155                           AD       MPAC       +1                         #  ADD ROUNDING BIT IF MPAC +2 WAS GREATER
000898:    7114           54155                           TS       MPAC       +1                         #  THAN .5 IN MAGNITUDE.
000899:    7115           00002                           TC       Q
000900:
000901:    7116           60154                           AD       MPAC                                  #  PROPAGATE INTERFLOW.
000902:    7117           54154                           TS       MPAC
000903:    7120           00002                           TC       Q
000904:
000905:    7121           54121        SETOVF2            TS       OVFIND                                #  (RARE).
000906:    7122           00002                           TC       Q
000907:
000908:                                                                                                  #  THE DOT PRODUCT SUBROUTINE USUALLY FORMS THE DOT PRODUCT OF THE VECTOR IN MPAC WITH A STANDARD SIX
000909:                                                                                                  #  REGISTER VECTOR WHOSE ADDRESS IS IN ADDRWD.  IN THIS CASE C(DOTINC) ARE SET TO 2. VXM, HOWEVER, SETS C(DOTINC) TO
000910:                                                                                                  #  6 SO THAT DOTSUB DOTS MPAC WITH A COLUMN VECTOR OF THE MATRIX IN QUESTION IN THIS CASE.
000911:
000912:    7123           35032        PREDOT             CAF      TWO                                   #  PROLOGUE TO SET DOTINC TO 2.
000913:    7124           54136                           TS       DOTINC
000914:
000915:    7125           00006        DOTSUB             EXTEND
000916:    7126           22137                           QXCH     DOTRET                                #  SAVE RETURN.
000917:    7127           07056                           TC       DMPSUB                                #  DOT X COMPONENTS.
000918:    7130           52160                           DXCH     MPAC       +3                         #  POSITION Y COMPONENT OF MPAC FOR
000919:    7131           52155                           DXCH     MPAC                                  #  MULTIPLICATION WHILE SAVING RESULT IN
000920:    7132           52131                           DXCH     BUF                                   #  THREE WORD BUFFER, BUF.
000921:    7133           30156                           CA       MPAC       +2
000922:    7134           54132                           TS       BUF        +2
000923:
000924:    7135           30136                           CA       DOTINC                                #  ADVANCE ADDRWD TO Y COMPONENT OF
000925:    7136           26116                           ADS      ADDRWD                                #  OTHER ARGUMENT.
000926:    7137           07056                           TC       DMPSUB
000927:    7140           52156                           DXCH     MPAC       +1                         #  ACCUMULATE PARTIAL PRODUCTS.
000928:    7141           20132                           DAS      BUF        +1
000929:    7142           60154                           AD       MPAC
000930:    7143           60130                           AD       BUF
000931:    7144           54130                           TS       BUF
000932:    7145           17147                           TCF      +2
000933:    7146           54121                           TS       OVFIND                                #  IF OVERFLOW OCCURS.
000934:
000935:    7147           52162                           DXCH     MPAC       +5                         #  MULTIPLY Z COMPONENTS.
000936:    7150           52155                           DXCH     MPAC
000937:    7151           30136                           CA       DOTINC
000938:    7152           26116                           ADS      ADDRWD
000939:    7153           07056                           TC       DMPSUB
000940:    7154           52132        ENDDOT             DXCH     BUF        +1                         #  LEAVE FINAL ACCUMULATION IN MPAC.
000941:    7155           20156                           DAS      MPAC       +1
000942:    7156           60154                           AD       MPAC
000943:    7157           60130                           AD       BUF
000944:    7160           54154                           TS       MPAC
000945:    7161           00137                           TC       DOTRET
000946:
000947:    7162           06766                           TC       OVERFLOW                              #  ON OVERFLOW HERE.
000948:    7163           00137                           TC       DOTRET
000949:
000950:                                                                                                  #  DOUBLE PRECISION POLYNOMIAL EVALUATOR
000951:                                                                                                  #                                  N        N-1
000952:                                                                                                  #        THIS ROUTINE EVALUATES A X  + A   X    + ... + A  X + A  LEAVING THE DP RESULT IN MPAC ON EXIT.
000953:                                                                                                  #                                N      N-1              1      0
000954:
000955:                                                                                                  #  THE ROUTINE HAS TWO ENTRIES
000956:
000957:                                                                                                  #        1.      ENTRY THRU POWRSERS.  THE COEFFICIENTS MAY BE EITHER IN FIXED OR ERASABLE, THE CALL IS BY
000958:                                                                                                  #                TC POWRSERS, AND THE RETURN IS TO LOC(TC POWRSERS)+1.  THE ENTERING DATA MUST BE AS FOLLOWS
000959:
000960:                                                                                                  #                        A       SP      LOC-3           ADDRESS FOR REFERENCING COEF TABLE
000961:                                                                                                  #                        L       SP      N-1             N IS THE DEGREE OF THE POWER SERIES
000962:                                                                                                  #                        MPAC    DP      X               ARGUMENT
000963:                                                                                                  #                        LOC-2N  DP      A(0)
000964:                                                                                                  #                                ...
000965:                                                                                                  #                        LOC     DP      A(N)
000966:
000967:                                                                                                  #        2.      ENTRY THRU POLY.  THE CALL TO POLY AND THE ENTERING DATA MUST BE AS FOLLOWS
000968:
000969:                                                                                                  #                        MPAC            DP              X               ARGUMENT
000970:                                                                                                  #                        LOC             TC              POLY
000971:                                                                                                  #                        LOC+1           SP              N-1
000972:                                                                                                  #                        LOC+2           DP              A(0)
000973:                                                                                                  #                                        ...
000974:                                                                                                  #                        LOC+2N+2        DP              A(N)            RETURN IS TO LOC+2N+4
000975:
000976:    7164           00006        POWRSERS           EXTEND
000977:    7165           22141                           QXCH     POLYRET                               #  RETURN ADDRESS
000978:    7166           54117                           TS       POLISH                                #  POWER SERIES ADDRESS
000979:    7167           22140                           LXCH     POLYCNT                               #  N-1 TO COUNTER
000980:    7170           17201                           TCF      POLYCOM                               #  SKIP SET UP BY POLY
000981:
000982:    7171           50002        POLY               INDEX    Q
000983:    7172           30000                           CAF      0
000984:    7173           54140                           TS       POLYCNT                               #  N-1 TO COUNTER
000985:    7174           60000                           DOUBLE
000986:    7175           60002                           AD       Q
000987:    7176           54117                           TS       POLISH                                #  L(A(N))-3 TO POLISH
000988:    7177           65036                           AD       FIVE
000989:    7200           54141                           TS       POLYRET                               #  STORE RETURN ADDRESS
000990:
000991:    7201           36242        POLYCOM            CAF      LVBUF                                 #  INCOMING X WILL BE MOVED TO VBUF, SO
000992:    7202           54116                           TS       ADDRWD                                #  SET ADDRWD SO DMPSUB WILL MPY BY VBUF.
000993:
000994:    7203           00006                           EXTEND
000995:    7204           50117                           INDEX    POLISH
000996:    7205           30004                           DCA      3
000997:
000998:    7206           52155                           DXCH     MPAC                                  #  LOAD A(N) INTO MPAC,
000999:    7207           52123                           DXCH     VBUF                                  #  SAVING X IN VBUF
001000:    7210           17214                           TCF      POLY2
001001:
001002:    7211           54140        POLYLOOP           TS       POLYCNT                               #  SAVE DECREMENTED LOOP COUNTER
001003:    7212           45032                           CS       TWO
001004:    7213           26117                           ADS      POLISH                                #  REGRESS COEFFICIENT POINTER
001005:
001006:    7214           07056        POLY2              TC       DMPSUB                                #  MULTIPLY BY X
001007:    7215           00006                           EXTEND
001008:    7216           50117                           INDEX    POLISH
001009:    7217           30002                           DCA      1                                     #  ADD IN NEXT COEFFICIENT
001010:    7220           20155                           DAS      MPAC                                  #  USERS RESPONSIBILITY TO ASSURE NO OVFLOW
001011:
001012:    7221           10140                           CCS      POLYCNT
001013:    7222           17211                           TCF      POLYLOOP
001014:    7223           00141                           TC       POLYRET                               #  RETURN CALLER
001015:
001016:                                                                                                  #  MISCELLANEOUS MULTI-PRECISION ROUTINES REQUIRED IN FIXED-FIXED BUT NOT USED BY THE INTERPRETER.
001017:
001018:    7224           35035        DPAGREE            CAF      ZERO                                  #  DOUBLE PRECISION ENTRY -
001019:    7225           54156                           TS       MPAC       +2                         #  ZERO LOW-ORDER WORD
001020:
001021:    7226           22002        TPAGREE            LXCH     Q                                     #  FORCE SIGN AGREEMENT AMONG THE TRIPLE
001022:    7227           06672                           TC       BRANCH                                #  PRECISION CONTENTS OF MPAC.  RETURNING
001023:    7230           17234                           TCF      ARG+                                  #  WITH SIGNUM OF THE INPUT IN A.
001024:    7231           17254                           TCF      ARGZERO
001025:
001026:    7232           45013                           CS       POSMAX                                #  IF NEGATIVE.
001027:    7233           17235                           TCF      +2
001028:
001029:    7234           35013        ARG+               CAF      POSMAX
001030:    7235           54002                           TS       Q
001031:    7236           00006                           EXTEND
001032:    7237           24000                           AUG      A                                     #  FORMS +-1.0.
001033:    7240           60156                           AD       MPAC       +2
001034:    7241           54156                           TS       MPAC       +2
001035:    7242           35035                           CAF      ZERO
001036:    7243           60002                           AD       Q
001037:    7244           60155                           AD       MPAC       +1
001038:    7245           54155                           TS       MPAC       +1
001039:    7246           35035                           CAF      ZERO
001040:    7247           60002                           AD       Q                                     #  Q STILL HAS POSMAX OR NEGMAX IN IT.
001041:    7250           60154                           AD       MPAC
001042:    7251           54154        ARGZERO2           TS       MPAC                                  #  ALWAYS SKIPPING UNLESS ARGZERO.
001043:    7252           54155                           TS       MPAC       +1
001044:    7253           00001                           TC       L                                     #  RETURN VIA L.
001045:
001046:    7254           54156        ARGZERO            TS       MPAC       +2                         #  SET ALL THREE MPAC REGISTERS TO ZERO.
001047:    7255           17251                           TCF      ARGZERO2
001048:
001049:                                                                                                  #  SHORTMP MULTIPLIES THE TP CONTENTS OF MPAC BY THE SINGLE PRECISION NUMBER ARRIVING IN A.
001050:
001051:    7256           54135        SHORTMP            TS       MPTEMP
001052:    7257           00006                           EXTEND
001053:    7260           70156                           MP       MPAC       +2
001054:    7261           54156                           TS       MPAC       +2
001055:    7262           35035        SHORTMP2           CAF      ZERO                                  #  SO SUBSEQUENT DAS WILL WORK.
001056:    7263           56155                           XCH      MPAC       +1
001057:    7264           17075                           TCF      DMPSUB2
001058:
001059:                                                                                                  #  DMPNSUB MULTIPLIES THE DP FRACTION ARRIVING IN MPAC BY THE SP
001060:                                                                                                  #  INTEGER ARRIVING IN A.  THE DP PRODUCT DEPARTS BOTH IN MPAC AND IN
001061:                                                                                                  #  A AND L.  NOTE THAT DMPNSUB NORMALLY INCREASES THE MAGNITUDE OF THE
001062:                                                                                                  #  CONTENTS OF MPAC.  THE CUSTOMER MUST INSURE THAT B(A) X B(MPAC,MPAC+1)
001063:                                                                                                  #  AND B(A) X B(MPAC) ARE LESS THAN 1 IN MAGNITUDE, WHERE B, AS IS OBVIOUS,
001064:                                                                                                  #  INDICATES THE ARRIVING CONTENTS.
001065:
001066:    7265           54135        DMPNSUB            TS       DMPNTEMP
001067:    7266           00006                           EXTEND
001068:    7267           70155                           MP       MPAC       +1
001069:    7270           52155                           DXCH     MPAC                                  #  LOW PRODUCT TO MPAC, HIGH FACTOR TO A
001070:    7271           00006                           EXTEND
001071:    7272           70135                           MP       DMPNTEMP
001072:    7273           30001                           CA       L
001073:    7274           26154                           ADS      MPAC                                  #  COMPLETING THE PRODUCT IN MPAC
001074:    7275           00006                           EXTEND
001075:    7276           30155                           DCA      MPAC                                  #  BRINGING THE PRODUCT INTO A AND L
001076:    7277           00002                           TC       Q
001077:
001078:                                                                                                  #  MISCELLANEOUS VECTOR OPERATIONS.  INCLUDED HERE ARE THE FOLLOWING:
001079:                                                                                                  #        1.      DOT     DP VECTOR DOT PRODUCT.
001080:                                                                                                  #        2.      VXV     DP VECTOR CROSS PRODUCT.
001081:                                                                                                  #        3.      VXSC    DP VECTOR TIMES SCALAR.
001082:                                                                                                  #        4.      V/SC    DP VECTOR DIVIDED BY SCALAR.
001083:                                                                                                  #        5.      VPROJ   DP VECTOR PROJECTION.  ( (MPAC.X)MPAC ).
001084:                                                                                                  #        6.      VXM     DP VECTOR POST-MULTIPLIED BY MATRIX.
001085:                                                                                                  #        7.      MXV     DP VECTOR PRE-MULTIPLIED BY MATRIX.
001086:
001087:    7300           07123        DOT                TC       PREDOT                                #  DO THE DOT PRODUCT AND EXIT, CHANGING
001088:    7301           35035        DMODE              CAF      ZERO                                  #  THE MODE TO DP SCALAR.
001089:    7302           16027                           TCF      NEWMODE
001090:
001091:    7303           35032        MXV                CAF      TWO                                   #  SET UP MATINC AND DOTINC FOR ROW
001092:    7304           54140                           TS       MATINC                                #  VECTORS.
001093:    7305           17311                           TCF      VXM/MXV                               #  GO TO COMMON PORTION.
001094:
001095:    7306           44377        VXM                CS       TEN                                   #  SET MATINC AND DOTINC TO REFER TO MATRIX
001096:    7307           54140                           TS       MATINC                                #  AS THREE COLUMN VECTORS.
001097:    7310           36211                           CAF      SIX
001098:
001099:                                                                                                  #  COMMON PORTION OF MXV AND VXM.
001100:
001101:    7311           54136        VXM/MXV            TS       DOTINC
001102:
001103:                                                                                                  #  ITRACE (2) REFERS TO "VXM/MXV".
001104:
001105:    7312           07501                           TC       MPACVBUF                              #  SAVE VECTOR IN MPAC FOR FURTHER USE.
001106:
001107:    7313           07125                           TC       DOTSUB                                #  GO DOT TO GET X COMPONENT OF ANSWER.
001108:    7314           00006                           EXTEND
001109:    7315           30123                           DCA      VBUF                                  #  MOVE MPAC VECTOR BACK INTO MPAC, SAVING
001110:    7316           52155                           DXCH     MPAC                                  #  NEW X COMPONENT IN BUF2.
001111:    7317           52134                           DXCH     BUF2
001112:    7320           00006                           EXTEND
001113:    7321           30125                           DCA      VBUF       +2
001114:    7322           52160                           DXCH     MPAC       +3
001115:    7323           00006                           EXTEND
001116:    7324           30127                           DCA      VBUF       +4
001117:    7325           52162                           DXCH     MPAC       +5
001118:    7326           30140                           CA       MATINC                                #  INITIALIZE ADDRWD FOR NEXT DOT PRODUCT.
001119:    7327           26116                           ADS      ADDRWD                                #  FORMS BASE ADDRESS OF NEXT COLUMN(ROW).
001120:
001121:    7330           07125                           TC       DOTSUB
001122:    7331           52123                           DXCH     VBUF                                  #  MOVE GIVEN VECTOR BACK TO MPAC, SAVING Y
001123:    7332           52155                           DXCH     MPAC                                  #  COMPONENT OF ANSWER IN VBUF +2.
001124:    7333           52125                           DXCH     VBUF       +2
001125:    7334           52160                           DXCH     MPAC       +3
001126:    7335           52127                           DXCH     VBUF       +4
001127:    7336           52162                           DXCH     MPAC       +5
001128:    7337           30140                           CA       MATINC                                #  FORM ADDRESS OF LAST COLUMN OR ROW.
001129:    7340           26116                           ADS      ADDRWD
001130:
001131:    7341           07125                           TC       DOTSUB
001132:    7342           52134                           DXCH     BUF2                                  #  ANSWER NOW COMPLETE. PUT COMPONENTS INTO
001133:    7343           52155                           DXCH     MPAC                                  #  PROPER MPAC REGISTERS.
001134:    7344           52162                           DXCH     MPAC       +5
001135:    7345           52125                           DXCH     VBUF       +2
001136:    7346           52160                           DXCH     MPAC       +3
001137:    7347           16030                           TCF      DANZIG                                #  EXIT.
001138:
001139:                                                                                                  #  VXSC - VECTOR TIMES SCALAR.
001140:
001141:    7350           10163        VXSC               CCS      MODE                                  #  TEST PRESENT MODE.
001142:    7351           17377                           TCF      DVXSC                                 #  SEPARATE ROUTINE WHEN SCALAR IS IN MPAC.
001143:    7352           17377                           TCF      DVXSC
001144:
001145:    7353           07056        VVXSC              TC       DMPSUB                                #  COMPUTE X COMPONENT
001146:    7354           07107                           TC       VROUND                                #  AND ROUND IT.
001147:    7355           52160                           DXCH     MPAC       +3                         #  PUT Y COMPONENT INTO MPAC SAVING MPAC IN
001148:    7356           52155                           DXCH     MPAC                                  #  MPAC +3.
001149:    7357           52160                           DXCH     MPAC       +3
001150:
001151:    7360           07056                           TC       DMPSUB                                #  DO SAME FOR Y AND Z COMPONENTS.
001152:    7361           07107                           TC       VROUND
001153:    7362           52162                           DXCH     MPAC       +5
001154:    7363           52155                           DXCH     MPAC
001155:    7364           52162                           DXCH     MPAC       +5
001156:
001157:    7365           07056                           TC       DMPSUB
001158:    7366           07107                           TC       VROUND
001159:    7367           52155        VROTATEX           DXCH     MPAC                                  #  EXIT USED TO RESTORE MPAC AFTER THIS
001160:    7370           52162                           DXCH     MPAC       +5                         #  TYPE OF ROTATION.  CALLED BY VECTOR SHIFT
001161:    7371           52160                           DXCH     MPAC       +3                         #  RIGHT, V/SC, ETC.
001162:    7372           52155                           DXCH     MPAC
001163:    7373           16030                           TCF      DANZIG
001164:
001165:                                                                                                  #  DP VECTOR PROJECTION ROUTINE.
001166:
001167:    7374           07123        VPROJ              TC       PREDOT                                #  (MPAC.X)MPAC IS COMPUTED AND LEFT IN
001168:    7375           45031                           CS       FOUR                                  #  MPAC.  DO DOT AND FALL INTO DVXSC.
001169:    7376           26116                           ADS      ADDRWD
001170:
001171:                                                                                                  #  VXSC WHEN SCALAR ARRIVES IN MPAC AND VECTOR IS AT X.
001172:
001173:    7377           00006        DVXSC              EXTEND                                         #  SAVE SCALAR IN MPAC +3 AND GET X
001174:    7400           30155                           DCA      MPAC                                  #  COMPONENT OF ANSWER.
001175:    7401           52160                           DXCH     MPAC       +3
001176:    7402           07056                           TC       DMPSUB
001177:    7403           07107                           TC       VROUND
001178:
001179:    7404           35032                           CAF      TWO                                   #  ADVANCE ADDRWD TO Y COMPONENT OF X.
001180:    7405           26116                           ADS      ADDRWD
001181:    7406           00006                           EXTEND
001182:    7407           30160                           DCA      MPAC       +3                         #  PUT SCALAR BACK INTO MPAC AND SAVE
001183:    7410           52155                           DXCH     MPAC                                  #  X RESULT IN MPAC +5.
001184:    7411           52162                           DXCH     MPAC       +5
001185:    7412           07056                           TC       DMPSUB
001186:    7413           07107                           TC       VROUND
001187:
001188:    7414           35032                           CAF      TWO
001189:    7415           26116                           ADS      ADDRWD                                #  TO Z COMPONENT.
001190:    7416           52160                           DXCH     MPAC       +3                         #  BRING SCALAR BACK, PUTTING Y RESULT IN
001191:    7417           52155                           DXCH     MPAC                                  #  THE PROPER PLACE.
001192:    7420           52160                           DXCH     MPAC       +3
001193:    7421           07056                           TC       DMPSUB
001194:    7422           07107                           TC       VROUND
001195:
001196:    7423           52155                           DXCH     MPAC                                  #  PUT Z COMPONENT IN PROPER PLACE, ALSO
001197:    7424           52162                           DXCH     MPAC       +5                         #  POSITIONING X.
001198:    7425           52155                           DXCH     MPAC
001199:
001200:    7426           16470                           TCF      VMODE                                 #  MODE HAS CHANGED TO VECTOR.
001201:
001202:                                                                                                  #  THE VECTOR CROSS PRODUCT ROUTINE CALCULATES (X M -X M ,X M -X M ,X M -X M ) WHERE M IS THE VECTOR IN
001203:                                                                                                  #                                                3 2  2 3  1 3  3 1  2 1  1 2
001204:                                                                                                  #  MPAC AND X THE VECTOR AT THE GIVEN ADDRESS.
001205:
001206:    7427           00006        VXV                EXTEND
001207:    7430           30162                           DCA      MPAC       +5                         #  FORM UP M3X1, LEAVING M1 IN VBUF.
001208:    7431           52155                           DXCH     MPAC
001209:    7432           52123                           DXCH     VBUF
001210:    7433           07056                           TC       DMPSUB                                #  BY X1.
001211:
001212:    7434           00006                           EXTEND
001213:    7435           40160                           DCS      MPAC       +3                         #  CALCULATE -X1M2, SAVING X1M3 IN VBUF +2.
001214:    7436           52155                           DXCH     MPAC
001215:    7437           52125                           DXCH     VBUF       +2
001216:    7440           07056                           TC       DMPSUB
001217:
001218:    7441           35032                           CAF      TWO                                   #  ADVANCE ADDRWD TO X2.
001219:    7442           26116                           ADS      ADDRWD
001220:    7443           00006                           EXTEND
001221:    7444           40162                           DCS      MPAC       +5                         #  PREPARE TO GET -X2M3, SAVING -X1M2 IN
001222:    7445           52155                           DXCH     MPAC                                  #  MPAC +5.
001223:    7446           52162                           DXCH     MPAC       +5
001224:    7447           07056                           TC       DMPSUB
001225:
001226:    7450           00006                           EXTEND
001227:    7451           30123                           DCA      VBUF                                  #  GET X2M1, SAVING -X2M3 IN VBUF +4.
001228:    7452           52155                           DXCH     MPAC
001229:    7453           52127                           DXCH     VBUF       +4
001230:    7454           07056                           TC       DMPSUB
001231:
001232:    7455           35032                           CAF      TWO                                   #  ADVANCE ADDRWD TO X3.
001233:    7456           26116                           ADS      ADDRWD
001234:    7457           00006                           EXTEND
001235:    7460           40123                           DCS      VBUF                                  #  GET -X3M1, ADDING X2M1 TO MPAC +5 TO
001236:    7461           52155                           DXCH     MPAC                                  #  COMPLETE THE Z COMPONENT OF THE ANSWER.
001237:    7462           20162                           DAS      MPAC       +5
001238:
001239:    7463           00006                           EXTEND
001240:    7464           17466                           BZF      +2
001241:    7465           06760                           TC       OVERFLWZ
001242:
001243:    7466           07056                           TC       DMPSUB
001244:    7467           52125                           DXCH     VBUF       +2                         #  MOVE X1M3 TO MPAC +3 SETTING UP FOR X3M2
001245:    7470           52160                           DXCH     MPAC       +3                         #  AND ADD -X3M1 TO MPAC +3 TO COMPLETE THE
001246:    7471           52155                           DXCH     MPAC                                  #  Y COMPONENT OF THE RESULT.
001247:    7472           20160                           DAS      MPAC       +3
001248:
001249:    7473           00006                           EXTEND
001250:    7474           17476                           BZF      +2
001251:    7475           06763                           TC       OVERFLWY
001252:
001253:    7476           07056                           TC       DMPSUB
001254:    7477           52127                           DXCH     VBUF       +4                         #  GO ADD -X2M3 TO X3M2 TO COMPLETE THE X
001255:    7500           16747                           TCF      ENDVXV                                #  COMPONENT (TAIL END OF DAD).
001256:
001257:                                                                                                  #  THE MPACVBUF SUBROUTINE SAVES THE VECTOR IN MPAC IN VBUF WITHOUT CLOBBERING MPAC.
001258:
001259:    7501           00006        MPACVBUF           EXTEND                                         #  CALLED BY MXV, VXM, AND UNIT.
001260:    7502           30155                           DCA      MPAC
001261:    7503           52123                           DXCH     VBUF
001262:    7504           00006                           EXTEND
001263:    7505           30160                           DCA      MPAC       +3
001264:    7506           52125                           DXCH     VBUF       +2
001265:    7507           00006                           EXTEND
001266:    7510           30162                           DCA      MPAC       +5
001267:    7511           52127                           DXCH     VBUF       +4
001268:    7512           00002                           TC       Q                                     #  RETURN TO CALLER.
001269:
001270:                                                                                                  #  DOUBLE PRECISION SIGN AGREE ROUTINE.  ARRIVE WITH INPUT IN A+L.  OUTPUT IS IN A + L.
001271:
001272:    7513           10000        ALSIGNAG           CCS      A                                     #  TEST UPPER PART.
001273:    7514           17520                           TCF      UPPOS                                 #  IT IS POSITIVE
001274:    7515           00002                           TC       Q                                     #  ZERO
001275:    7516           17530                           TCF      UPNEG                                 #  NEGATIVE
001276:    7517           00002                           TC       Q                                     #  ZERO
001277:
001278:    7520           56001        UPPOS              XCH      L                                     #  SAVE DECREMENTED UPPER PART.
001279:    7521           65016                           AD       HALF
001280:    7522           65016                           AD       HALF
001281:    7523           54000                           TS       A                                     #  SKIPS ON OVERFLOW
001282:    7524           17526                           TCF      +2
001283:    7525           24001                           INCR     L                                     #  RESTORE UPPER TO ROIGINAL VALUE
001284:    7526           56001                           XCH      L                                     #  SWAP A + L BACK.
001285:    7527           00002                           TC       Q
001286:
001287:    7530           56001        UPNEG              XCH      L                                     #  SAVE COMPLEMENTED + DECREMENTED UPPER PT
001288:    7531           65015                           AD       NEGMAX
001289:    7532           67716                           AD       NEGONE
001290:    7533           54000                           TS       A
001291:    7534           17536                           TCF      +2                                    #  DONT INCREMENT IF NO OVERFLOW.
001292:    7535           24001                           INCR     L
001293:    7536           56001                           XCH      L
001294:    7537           40000                           COM                                            #  MAKE NEGATIVE AGAIN.
001295:    7540           00002                           TC       Q
001296:
001297:                                                                                                  #  INTERPRETIVE INSTRUCTIONS WHOSE EXECUTION CONSISTS OF PRINCIPALLY CALLING SUBROUTINES.
001298:
001299:    7541           07056        DMP1               TC       DMPSUB                                #  DMP INSTRUCTION.
001300:    7542           16030                           TCF      DANZIG
001301:
001302:    7543           07056        DMPR               TC       DMPSUB
001303:    7544           07106                           TC       ROUNDSUB   +1                         #  (C(A) = +0).
001304:    7545           16030                           TCF      DANZIG
001305:
001306:    7546           00006        DDV                EXTEND
001307:    7547           50116                           INDEX    ADDRWD                                #  MOVE DIVIDEND INTO BUF.
001308:    7550           30001                           DCA      0
001309:    7551           17556                           TCF      BDDV       +4
001310:
001311:    7552           00006        BDDV               EXTEND                                         #  MOVE DIVISOR INTO MPAC SAVING MPAC, THE
001312:    7553           50116                           INDEX    ADDRWD                                #  DIVIDEND, IN BUF.
001313:    7554           30001                           DCA      0
001314:    7555           52155                           DXCH     MPAC
001315:    7556           52131                 +4        DXCH     BUF
001316:    7557           35035                           CAF      ZERO                                  #  DIVIDE ROUTINES IN BANK 0.
001317:    7560           54004                           TS       FBANK
001318:    7561           12353                           TCF      DDV/BDDV
001319:
001320:    7562           30116        SETPD              CA       ADDRWD                                #  MUST SET TO WORK AREA, OR EBANK TROUBLE.
001321:    7563           54166                           TS       PUSHLOC
001322:    7564           16032                           TCF      NOIBNKSW                              #  NO FBANK SWITCH REQUIRED.
001323:
001324:    7565           35035        TSLC               CAF      ZERO                                  #  SHIFTING ROUTINES LOCATED IN BANK 00.
001325:    7566           54004                           TS       FBANK
001326:    7567           12172                           TCF      TSLC2
001327:
001328:    7570           36043        GSHIFT             CAF      LOW7                                  #  USED AS MASK AT GENSHIFT. THIS PROCESSES
001329:    7571           54004                           TS       FBANK                                 #  ANY SHIFT INSTRUCTION (EXCEPT TSLC) WITH
001330:    7572           12214                           TCF      GENSHIFT                              #  AN ADDRESS (ROUTINES IN BANK 0).
001331:
001332:                                                                                                  #  THE FOLLOWING IS THE PROLOGUE TO V/SC.  IF THE PRESENT MODE IS VECTOR, IT SAVES THE SCALAR AT X IN BUF
001333:                                                                                                  #  AND CALLS THE V/SC ROUTINE IN BANK 0.  IF THE PRESENT MODE IS SCALAR, IT MOVES THE VECTOR AT X INTO MPAC, SAVING
001334:                                                                                                  #  THE SCALAR IN MPAC IN BUF BEFORE CALLING THE V/SC ROUTINE IN BANK 0.
001335:
001336:    7573           10163        V/SC               CCS      MODE
001337:    7574           17605                           TCF      DV/SC                                 #  MOVE VECTOR INTO MPAC.
001338:    7575           17605                           TCF      DV/SC
001339:
001340:    7576           00006        VV/SC              EXTEND
001341:    7577           50116                           INDEX    ADDRWD
001342:    7600           30001                           DCA      0
001343:    7601           52131        V/SC1              DXCH     BUF                                   #  IN BOTH CASES, VECTOR IS NOW IN MPAC AND
001344:    7602           35035                           CAF      ZERO                                  #  SCALAR IN BUF.
001345:    7603           54004                           TS       FBANK
001346:    7604           12654                           TCF      V/SC2
001347:
001348:    7605           00006        DV/SC              EXTEND
001349:    7606           50116                           INDEX    ADDRWD
001350:    7607           30003                           DCA      2
001351:    7610           52160                           DXCH     MPAC       +3
001352:    7611           00006                           EXTEND
001353:    7612           50116                           INDEX    ADDRWD
001354:    7613           30005                           DCA      4
001355:    7614           52162                           DXCH     MPAC       +5
001356:
001357:    7615           45033                           CS       ONE                                   #  CHANGE MODE TO VECTOR.
001358:    7616           54163                           TS       MODE
001359:
001360:    7617           00006                           EXTEND
001361:    7620           50116                           INDEX    ADDRWD
001362:    7621           30001                           DCA      0
001363:    7622           52155                           DXCH     MPAC
001364:    7623           17601                           TCF      V/SC1                                 #  FINISH PROLOGUE AT COMMON SECTION.
001365:
001366:                                                                                                  #  SIGN AND COMPLEMENT INSTRUCTIONS.
001367:
001368:    7624           50116        SIGN               INDEX    ADDRWD                                #  CALL COMP INSTRUCTION IF WORD AT X IS
001369:    7625           10000                           CCS      0                                     #  NEGATIVE NON-ZERO.
001370:    7626           16030                           TCF      DANZIG
001371:    7627           17631                           TCF      +2
001372:    7630           17637                           TCF      COMP                                  #  DO THE COMPLEMENT.
001373:
001374:    7631           50116                           INDEX    ADDRWD
001375:    7632           10001        CCSL               CCS      1
001376:    7633           16030                           TCF      DANZIG
001377:    7634           16030                           TCF      DANZIG
001378:    7635           17637                           TCF      COMP
001379:    7636           16030                           TCF      DANZIG
001380:    7637           00006        COMP               EXTEND                                         #  COMPLEMENT DP MPAC IN EVERY CASE.
001381:    7640           40155                           DCS      MPAC
001382:    7641           52155                           DXCH     MPAC
001383:
001384:    7642           10163                           CCS      MODE                                  #  EITHER COMPLEMENT MPAC +3 OR THE REST OF
001385:    7643           17654                           TCF      DCOMP                                 #  THE VECTOR ACCUMULATOR.
001386:    7644           17654                           TCF      DCOMP
001387:
001388:    7645           00006                           EXTEND                                         #  VECTOR COMPLEMENT.
001389:    7646           40160                           DCS      MPAC       +3
001390:    7647           52160                           DXCH     MPAC       +3
001391:    7650           00006                           EXTEND
001392:    7651           40162                           DCS      MPAC       +5
001393:    7652           52162                           DXCH     MPAC       +5
001394:    7653           16030                           TCF      DANZIG
001395:
001396:    7654           40156        DCOMP              CS       MPAC       +2
001397:    7655           54156                           TS       MPAC       +2
001398:    7656           16030                           TCF      DANZIG
001399:
001400:                                                                                                  #  THE FOLLOWING SHORT SHIFT CODES REQUIRE NO ADDRESS WORD:
001401:                                                                                                  #        1.      SR1 TO SR4      SCALAR SHIFT RIGHT.
001402:                                                                                                  #        2.      SR1R TO SR4R    SCALAR SHIFT RIGHT AND ROUND.
001403:                                                                                                  #        3.      SL1 TO SL4      SCALAR SHIFT LEFT.
001404:                                                                                                  #        4.      SL1R TO SL4R    SCALAR SHIFT LEFT AND ROUND.
001405:                                                                                                  #        5.      VSR1 TO VSR8    VECTOR SHIFT RIGHT (ALWAYS ROUNDS).
001406:                                                                                                  #        6.      VSL1 TO VSL8    VECTOR SHIFT LEFT (NEVER ROUNDS).
001407:                                                                                                  #  THE FOLLOWING CODES REQUIRE AN ADDRESS WHICH MAY BE INDEXED:*
001408:                                                                                                  #        1.      SR              SCALAR SHIFT RIGHT.
001409:                                                                                                  #        2.      SRR             SCALAR SHIFT RIGHT AND ROUND.
001410:                                                                                                  #        3.      SL              SCALAR SHIFT LEFT.
001411:                                                                                                  #        4.      SLR             SCALAR SHIFT LEFT AND ROUND.
001412:                                                                                                  #        5.      VSR             VECTOR SHIFT RIGHT.
001413:                                                                                                  #        6.      VSL             VECTOR SHIFT LEFT.
001414:                                                                                                  #  * IF THE ADDRESS IS INDEXED, AND THE INDEX MODIFICATION RESULTS IN A NEGATIVE SHIFT COUNT, A SHIFT OF THE
001415:                                                                                                  #  ABSOLUTE VALUE OF THE COUNT IS DONE IN THE OPPOSITE DIRECTION.
001416:
001417: 00,2017                                           BANK     00
001418:
001419: 00,2017                                           COUNT    00/INTER
001420:
001421: 00,2017           36211        SHORTT             CAF      SIX                                   #  SCALAR SHORT SHIFTS COME HERE.  THE SHIFT
001422: 00,2020           70020                           MASK     CYR                                   #  COUNT-1 IS NOW IN BITS 2-3 OF CYR.  THE
001423: 00,2021           54021                           TS       SR                                    #  ROUNDING BIT IS IN BIT1 AT THIS POINT.
001424:
001425: 00,2022           10020                           CCS      CYR                                   #  SEE IF RIGHT OR LEFT SHIFT DESIRED.
001426: 00,2023           12101                           TCF      TSSL                                  #  SHIFT LEFT.
001427:
001428: 00,2024           00024        SRDDV              DEC      20         B-14                       #  MPTEMP SETTING FOR SR BEFORE DDV.
001429:
001430: 00,2025           50021        TSSR               INDEX    SR                                    #  GET SHIFTING BIT.
001431: 00,2026           35016                           CAF      BIT14
001432: 00,2027           54135                           TS       MPTEMP
001433:
001434: 00,2030           10020                           CCS      CYR                                   #  SEE IF A ROUND IS DESIRED.
001435: 00,2031           02050        RIGHTR             TC       MPACSRND                              #  YES - SHIFT RIGHT AND ROUND.
001436: 00,2032           16027                           TCF      NEWMODE                               #  SET MODE TO DP (C(A) = 0).
001437: 00,2033           30135        MPACSHR            CA       MPTEMP                                #  DO A TRIPLE PRECISION SHIFT RIGHT.
001438: 00,2034           00006                           EXTEND
001439: 00,2035           70156                           MP       MPAC       +2
001440: 00,2036           54156                 +3        TS       MPAC       +2                         #  (EXIT FROM SQRT AND ABVAL).
001441: 00,2037           30135                           CA       MPTEMP
001442: 00,2040           00006                           EXTEND
001443: 00,2041           70154                           MP       MPAC                                  #  SHIFT MAJOR PART INTO A,L AND PLACE IN
001444: 00,2042           52155                           DXCH     MPAC                                  #  MPAC,+1.
001445: 00,2043           30135                           CA       MPTEMP
001446: 00,2044           00006                           EXTEND
001447: 00,2045           70001                           MP       L                                     #  ORIGINAL C(MPAC +1).
001448: 00,2046           20156                           DAS      MPAC       +1                         #  GUARANTEED NO OVERFLOW.
001449: 00,2047           16030                           TCF      DANZIG
001450:
001451:                                                                                                  #  MPAC SHIFT RIGHT AND ROUND SUBROUTINES.
001452:
001453: 00,2050           30156        MPACSRND           CA       MPAC       +2                         #  WE HAVE TO DO ALL THREE MULTIPLIES SINCE
001454: 00,2051           00006                           EXTEND                                         #  MPAC +1 AND MPAC +2 MIGHT HAVE SIGN
001455: 00,2052           70135                           MP       MPTEMP                                #  DISAGREEMENT WITH A SHIFT RIGHT OF 1.
001456: 00,2053           56155                           XCH      MPAC       +1
001457: 00,2054           00006                           EXTEND
001458: 00,2055           70135                           MP       MPTEMP
001459: 00,2056           56155                           XCH      MPAC       +1                         #  TRIAL MINOR PART.
001460: 00,2057           60001                           AD       L
001461:
001462: 00,2060           60000        VSHR2              DOUBLE                                         #  (FINISH VECTOR COMPONENT SHIFT RIGHT
001463: 00,2061           54156                           TS       MPAC       +2                         #  AND ROUND.
001464: 00,2062           12064                           TCF      +2
001465: 00,2063           26155                           ADS      MPAC       +1                         #  GUARANTEED NO OVERFLOW.
001466:
001467: 00,2064           35035                           CAF      ZERO
001468: 00,2065           54156                           TS       MPAC       +2
001469: 00,2066           56154                           XCH      MPAC                                  #  SETTING TO ZERO SO FOLLOWING DAS WORKS.
001470: 00,2067           00006                           EXTEND
001471: 00,2070           70135                           MP       MPTEMP
001472: 00,2071           20155                           DAS      MPAC                                  #  AGAIN NO OVERFLOW.
001473: 00,2072           00002                           TC       Q
001474:
001475: 00,2073           30135        VSHRRND            CA       MPTEMP                                #  ENTRY TO SHIFT RIGHT AND ROUND MPAC WHEN
001476: 00,2074           00006                           EXTEND                                         #  MPAC CONTAINS A VECTOR COMPONENT.
001477: 00,2075           70155                           MP       MPAC       +1
001478: 00,2076           54155                           TS       MPAC       +1
001479: 00,2077           56001                           XCH      L
001480: 00,2100           12060                           TCF      VSHR2                                 #  GO ADD ONE IF NECESSARY AND FINISH.
001481:
001482:                                                                                                  #  ROUTINE FOR SHORT SCALAR SHIFT LEFT (AND MAYBE ROUND).
001483:
001484: 00,2101           30021        TSSL               CA       SR                                    #  GET SHIFT COUNT FOR SR.
001485: 00,2102           54135                 +1        TS       MPTEMP
001486:
001487: 00,2103           00006                 +2        EXTEND                                         #  ENTRY HERE FROM SL FOR SCALARS.
001488: 00,2104           30156                           DCA      MPAC       +1                         #  SHIFTING LEFT ONE PLACE AT A TIME IS
001489: 00,2105           20156                           DAS      MPAC       +1                         #  FASTER THAN DOING THE WHOLE SHIFT WITH
001490: 00,2106           60154                           AD       MPAC                                  #  MULTIPLIES ASSUMING THAT FREQUENCY OF
001491: 00,2107           60154                           AD       MPAC                                  #  SHIFT COUNTS GOES DOWN RAPIDLY AS A
001492: 00,2110           54154                           TS       MPAC                                  #  FUNCTION OF THEIR MAGNITUDE.
001493: 00,2111           12113                           TCF      +2
001494: 00,2112           54121                           TS       OVFIND                                #  OVERFLOW.  (LEAVES OVERFLOW-CORRECTED
001495:                                                                                                  #  RESULT ANYWAY).
001496: 00,2113           10135                           CCS      MPTEMP                                #  LOOP ON DECREMENTED SHIFT COUNT.
001497: 00,2114           12102                           TCF      TSSL       +1
001498:
001499: 00,2115           10020                           CCS      CYR                                   #  SEE IF ROUND WANTED.
001500: 00,2116           07105        ROUND              TC       ROUNDSUB                              #  YES - ROUND AND EXIT.
001501: 00,2117           16030                           TCF      DANZIG                                #  SL LEAVES A ZERO IN CYR FOR NO ROUND.
001502: 00,2120           16030                           TCF      DANZIG                                #  NO - EXIT IMMEDIATL
001503:
001504:                                                                                                  #  VECTOR SHIFTING ROUTINES.
001505:
001506: 00,2121           35037        SHORTV             CAF      LOW3                                  #  SAVE 3 BIT SHIFT COUNT - 1 WITHOUT
001507: 00,2122           70020                           MASK     CYR                                   #  EDITING CYR.
001508: 00,2123           54135                           TS       MPTEMP
001509: 00,2124           10020                           CCS      CYR                                   #  SEE IF LEFT OR RIGHT SHIFT.
001510: 00,2125           12145                           TCF      VSSL                                  #  VECTOR SHIFT LEFT.
001511: 00,2126           00176        OCT176             OCT      176                                   #  USED IN PROCESSED SHIFTS WITH - COUNT.
001512:
001513: 00,2127           50135        VSSR               INDEX    MPTEMP                                #  (ENTRY FROM SR).  PICK UP SHIFTING BIT.
001514: 00,2130           35016                           CAF      BIT14                                 #  MPTEMP CONTAINS THE SHIFT COUNT - 1.
001515: 00,2131           54135                           TS       MPTEMP
001516: 00,2132           02073                           TC       VSHRRND                               #  SHIFT X COMPONENT.
001517:
001518: 00,2133           52155                           DXCH     MPAC                                  #  SWAP X AND Y COMPONENTS.
001519: 00,2134           52160                           DXCH     MPAC       +3
001520: 00,2135           52155                           DXCH     MPAC
001521: 00,2136           02073                           TC       VSHRRND                               #  SHIFT Y COMPONENT.
001522:
001523: 00,2137           52155                           DXCH     MPAC                                  #  SWAP Y AND Z COMPONENTS.
001524: 00,2140           52162                           DXCH     MPAC       +5
001525: 00,2141           52155                           DXCH     MPAC
001526: 00,2142           02073                           TC       VSHRRND                               #  SHIFT Z COMPONENT.
001527:
001528: 00,2143           17367                           TCF      VROTATEX                              #  RESTORE COMPONENTS TO PROPER PLACES.
001529:
001530:                                                                                                  #  VECTOR SHIFT LEFT - DONE ONE PLACE AT A TIME.
001531:
001532: 00,2144           54135                 -1        TS       MPTEMP                                #  SHIFTING LOOP.
001533:
001534: 00,2145           00006        VSSL               EXTEND
001535: 00,2146           30155                           DCA      MPAC
001536: 00,2147           20155                           DAS      MPAC
001537: 00,2150           00006                           EXTEND
001538: 00,2151           12153                           BZF      +2
001539: 00,2152           06766                           TC       OVERFLOW
001540:
001541: 00,2153           00006                           EXTEND
001542: 00,2154           30160                           DCA      MPAC       +3
001543: 00,2155           20160                           DAS      MPAC       +3
001544: 00,2156           00006                           EXTEND
001545: 00,2157           12161                           BZF      +2
001546: 00,2160           06763                           TC       OVERFLWY
001547:
001548: 00,2161           00006                           EXTEND
001549: 00,2162           30162                           DCA      MPAC       +5
001550: 00,2163           20162                           DAS      MPAC       +5
001551: 00,2164           00006                           EXTEND
001552: 00,2165           12167                           BZF      +2
001553: 00,2166           06760                           TC       OVERFLWZ
001554:
001555: 00,2167           10135                           CCS      MPTEMP                                #  LOOP ON DECREMENTED SHIFT COUNTER.
001556: 00,2170           12144                           TCF      VSSL       -1
001557: 00,2171           16030                           TCF      DANZIG                                #  EXIT.
001558:
001559:                                                                                                  #  TSLC - TRIPLE SHIFT LEFT AND COUNT.  SHIFTS MPAC LEFT UNTIL GREATER THAN .5 IN MAGNITUDE, LEAVING
001560:                                                                                                  #  THE COMPLEMENT OF THE NUMBER OF SHIFTS REQUIRED IN X.
001561:
001562: 00,2172           54135        TSLC2              TS       MPTEMP                                #  START BY ZEROING SHIFT COUNT (IN A NOW).
001563: 00,2173           06672                           TC       BRANCH                                #  EXIT WITH NO SHIFTING IF ARGUMENT ZERO.
001564: 00,2174           12176                           TCF      +2
001565: 00,2175           12212                           TCF      ENDTSLC                               #  STORES ZERO SHIFT COUNT IN THIS CASE.
001566:
001567: 00,2176           07226                           TC       TPAGREE                               #  MAY CAUSE UPSHIFT OF ONE EXTRA PLACE.
001568:
001569: 00,2177           30154                           CA       MPAC                                  #  BEGIN NORMALIZATION LOOP.
001570: 00,2200           12207                           TCF      TSLCTEST
001571:
001572: 00,2201           24135        TSLCLOOP           INCR     MPTEMP                                #  INCREMENT SHIFT COUNTER.
001573: 00,2202           00006                           EXTEND
001574: 00,2203           30156                           DCA      MPAC       +1
001575: 00,2204           20156                           DAS      MPAC       +1
001576: 00,2205           60154                           AD       MPAC
001577: 00,2206           26154                           ADS      MPAC
001578: 00,2207           60000        TSLCTEST           DOUBLE                                         #  SEE IF (ANOTHER) SHIFT IS REQUIRED.
001579: 00,2210           54000                           OVSK
001580: 00,2211           12201                           TCF      TSLCLOOP                              #  YES - INCREMENT COUNT AND SHIFT AGAIN.
001581:
001582: 00,2212           40135        ENDTSLC            CS       MPTEMP
001583: 00,2213           16572                           TCF      STORE1                                #  STORE SHIFT COUNT AND RETURN TO DANZIG.
001584:
001585:                                                                                                  #  THE FOLLOWING ROUTINES PROCESSES THE GENERAL SHIFT INSTRUCTIONS SR, SRR, SL, AND SLR.
001586:                                                                                                  #  THE GIVEN ADDRESS IS DECODED AS FOLLOWS:
001587:                                                                                                  #        BITS 1-7        SHIFT COUNT (SUBADDRESS) LESS THAN 125 DECIMAL.
001588:                                                                                                  #        BIT 8           PSEUDO SIGN BIT (DETECTS CHANGE IN SIGN IN INDEXED SHIFTS).
001589:                                                                                                  #        BIT 9           0 FOR LEFT SHIFT, AND 1 FOR RIGHT SHIFT.
001590:                                                                                                  #        BIT 10          1 FOR TERMINAL ROUND ON SCALAR SHIFTS, 0 OTHERWISE.
001591:                                                                                                  #        BITS 11-13      0.
001592:                                                                                                  #        BIT 14          1.
001593:                                                                                                  #        BIT 15          0.
001594:                                                                                                  #  THE ABOVE ENCODING IS DONE BY THE YUL SYSTEM.
001595:
001596: 00,2214           70116        GENSHIFT           MASK     ADDRWD                                #  GET SHIFT COUNT, TESTING FOR ZERO.
001597: 00,2215           10000                           CCS      A                                     #  (ARRIVES WITH C(A) = LOW7).
001598: 00,2216           12224                           TCF      GENSHFT2                              #  IF NON-ZERO, PROCEED WITH DECREMENTED CT
001599:
001600: 00,2217           35022                           CAF      BIT10                                 #  ZERO SHIFT COUNT.  NO SHIFTS NEEDED BUT
001601: 00,2220           70116                           MASK     ADDRWD                                #  WE MIGHT HAVE TO ROUND MPAC ON SLR AND
001602: 00,2221           10000                           CCS      A                                     #  SRR (SCALAR ONLY).
001603: 00,2222           07105                           TC       ROUNDSUB
001604: 00,2223           16030                           TCF      DANZIG
001605:
001606: 00,2224           54135        GENSHFT2           TS       MPTEMP                                #  DECREMENTED SHIFT COUNT TO MPTEMP.
001607: 00,2225           35024                           CAF      BIT8                                  #  TEST MEANING OF LOW SEVEN BIT COUNT IN
001608: 00,2226           00006                           EXTEND                                         #  MPTEMP NOW.
001609: 00,2227           70116                           MP       ADDRWD
001610: 00,2230           76214                           MASK     LOW2                                  #  JUMPS ON SHIFT DIRECTION (BIT8) AND
001611: 00,2231           50000                           INDEX    A
001612: 00,2232           12233                           TCF      +1                                    #  ORIGINAL SHIFT DIRECTION (BIT 9).
001613: 00,2233           12332                           TCF      RIGHT-                                #  NEGATIVE SHIFT COUNT FOR SL OR SLR.
001614: 00,2234           12342                           TCF      LEFT                                  #  SL OR SLR.
001615: 00,2235           12336                           TCF      LEFT-                                 #  NEGATIVE SHIFT COUNT WITH SR OR SRR.
001616:
001617:                                                                                                  #  GENERAL SHIFT RIGHT.
001618:
001619: 00,2236           10163        RIGHT              CCS      MODE                                  #  SEE IF VECTOR OR SCALAR.
001620: 00,2237           12277                           TCF      GENSCR
001621: 00,2240           12277                           TCF      GENSCR
001622:
001623: 00,2241           30135                           CA       MPTEMP                                #  SEE IF SHIFT COUNT LESS THAN 14D.
001624: 00,2242           63730        VRIGHT2            AD       NEG12
001625: 00,2243           00006                           EXTEND
001626: 00,2244           62127                           BZMF     VSSR                                  #  IF SO, BRANCH AND SHIFT IMMEDIATELY.
001627:
001628: 00,2245           67716                           AD       NEGONE                                #  IF NOT, REDUCE MPTEMP BY A TOTAL OF 14,
001629: 00,2246           54135                           TS       MPTEMP                                #  AND DO A SHIFT RIGHT AND ROUND BY 14.
001630: 00,2247           35035                           CAF      ZERO                                  #  THE ROUND AT THIS STAGE MAY INTRODUCE A
001631: 00,2250           54001                           TS       L                                     #  ONE BIT ERROR IN A SHIFT RIGHT 15D.
001632: 00,2251           56154                           XCH      MPAC
001633: 00,2252           56155                           XCH      MPAC       +1
001634: 00,2253           02272                           TC       SETROUND                              #  X COMPONENT NOW SHIFTED, SO MAKE UP THE
001635: 00,2254           20155                           DAS      MPAC                                  #  ROUNDING QUANTITY (0 IN A AND 0 OR +-1
001636:                                                                                                  #  IN L).
001637: 00,2255           56157                           XCH      MPAC       +3                         #  REPEAT THE ABOVE PROCESS FOR Y AND Z.
001638: 00,2256           56160                           XCH      MPAC       +4
001639: 00,2257           02272                           TC       SETROUND
001640: 00,2260           20160                           DAS      MPAC       +3                         #  NO OVERFLOW ON THESE ADDS.
001641:
001642: 00,2261           56161                           XCH      MPAC       +5
001643: 00,2262           56162                           XCH      MPAC       +6
001644: 00,2263           02272                           TC       SETROUND
001645: 00,2264           20162                           DAS      MPAC       +5
001646:
001647: 00,2265           10135                           CCS      MPTEMP                                #  SEE IF DONE, DOING FINAL DECREMENT.
001648: 00,2266           54135                           TS       MPTEMP
001649: 00,2267           12242                           TCF      VRIGHT2
001650: 00,2270           04604        BIASLO             DEC      .2974      B-1                        #  SQRT CONSTANT
001651:
001652: 00,2271           16030                           TCF      DANZIG
001653:
001654: 00,2272           60000        SETROUND           DOUBLE                                         #  MAKES UP ROUNDING QUANTITY FROM ARRIVING
001655: 00,2273           54156                           TS       MPAC       +2                         #  C(A).  L IS ZERO INITIALLY.
001656: 00,2274           35035                           CAF      ZERO
001657: 00,2275           56001                           XCH      L
001658: 00,2276           00002                           TC       Q                                     #  RETURN AND DO THE DAS, RESETTING L TO 0.
001659:
001660:                                                                                                  #  PROCESS SR AND SRR FOR SCALARS.
001661:
001662: 00,2277           30135        GENSCR             CA       MPTEMP                                #  SEE IF THE ORIGINAL SHIFT COUNT WAS LESS
001663: 00,2300           63730                 +1        AD       NEG12                                 #  THAN 14D.
001664: 00,2301           00006                           EXTEND
001665: 00,2302           62322                           BZMF     DOSSHFT                               #  DO THE SHIFT IMMEDIATELY IF SO.
001666:
001667: 00,2303           67716                 +4        AD       NEGONE                                #  IF NOT, DECREMENT SHIFT COUNT BY 14D AND
001668: 00,2304           54135                           TS       MPTEMP                                #  SHIFT MPAC RIGHT 14 PLACES.
001669: 00,2305           35035                           CAF      ZERO
001670: 00,2306           56154                           XCH      MPAC
001671: 00,2307           56155                           XCH      MPAC       +1
001672: 00,2310           54156                           TS       MPAC       +2
001673: 00,2311           10135                           CCS      MPTEMP                                #  SEE IF FINISHED, DO FINAL DECREMENT.
001674: 00,2312           54135                           TS       MPTEMP
001675: 00,2313           02300                           TC       GENSCR     +1
001676: 00,2314           22650        SLOPEHI            DEC      .5884                                 #  SQRT CONSTANT.
001677: 00,2315           35022                           CAF      BIT10                                 #  FINISHED WITH SHIFT.  SEE IF ROUND
001678: 00,2316           70116                           MASK     ADDRWD                                #  WANTED.
001679: 00,2317           10000                           CCS      A
001680: 00,2320           07105                           TC       ROUNDSUB
001681: 00,2321           16030                           TCF      DANZIG                                #  DO SO AND/OR EXIT.
001682:
001683: 00,2322           50135        DOSSHFT            INDEX    MPTEMP                                #  PICK UP SHIFTING BIT.
001684: 00,2323           35016                           CAF      BIT14
001685: 00,2324           54135                           TS       MPTEMP
001686: 00,2325           35022                           CAF      BIT10                                 #  SEE IF TERMINAL ROUND DESIRED.
001687: 00,2326           70116                           MASK     ADDRWD
001688: 00,2327           10000                           CCS      A
001689: 00,2330           12031                           TCF      RIGHTR                                #  YES.
001690: 00,2331           12033                           TCF      MPACSHR                               #  JUST SHIFT RIGHT.
001691:
001692:                                                                                                  #  PROCESS THE RIGHT- (SL(R) WITH A NEGATIVE COUNT), LEFT-, AND LEFT OPTIONS.
001693:
001694: 00,2332           40135        RIGHT-             CS       MPTEMP                                #  GET ABSOLUTE VALUE - 1 OF SHIFT COUNT
001695: 00,2333           62126                           AD       OCT176                                #  UNDERSTANDING THAT BIT8 (PSEUDO-SIGN)
001696: 00,2334           54135                           TS       MPTEMP                                #  WAS 1 INITIALLY.
001697: 00,2335           12236                           TCF      RIGHT                                 #  DO NORMAL SHIFT RIGHT.
001698:
001699: 00,2336           42126        LEFT-              CS       OCT176                                #  SAME PROLOGUE TO LEFT FOR INDEXED RIGHT
001700: 00,2337           60135                           AD       MPTEMP                                #  SHIFTS WHOSE NET SHIFT COUNT IS NEGATIVE
001701: 00,2340           40000                           COM
001702: 00,2341           54135                           TS       MPTEMP
001703:
001704: 00,2342           10163        LEFT               CCS      MODE                                  #  SINCE LEFT SHIFTING IS SONE ONE PLACE AT
001705: 00,2343           12346                           TCF      GENSCL                                #  A TIME, NO COMPARISON WITH 14 NEED BE
001706: 00,2344           12346                           TCF      GENSCL                                #  DONE.  FOR SCALARS, SEE IF TERMINAL ROUND
001707: 00,2345           12145                           TCF      VSSL                                  #  DESIRED.  FOR VECTORS, SHIFT IMMEDIATELY.
001708:
001709: 00,2346           40116        GENSCL             CS       ADDRWD                                #  PUT ROUNDING BIT (BIT 10 OF ADDRWD) INTO
001710: 00,2347           00006                           EXTEND                                         #  BIT 15 OF CYR WHERE THE ROUNDING BIT OF
001711: 00,2350           75026                           MP       BIT6                                  #  A SHORT SHIFT LEFT WOULD BE
001712: 00,2351           54020                           TS       CYR
001713: 00,2352           12103                           TCF      TSSL       +2                         #  DO THE SHIFT.
001714:
001715:                                                                                                  #  SCALAR DIVISION INSTRUCTIONS, DDV AND BDDV, ARE EXECUTED HERE.  AT THIS POINT, THE DIVIDEND IS IN MPAC
001716:                                                                                                  #  AND THE DIVISOR IN BUF.
001717:
001718: 00,2353           45033        DDV/BDDV           CS       ONE                                   #  INITIALIZATION.
001719: 00,2354           54136                           TS       DVSIGN                                #  +-1 FOR POSITIVE QUOTIENT - -0 FOR NEG.
001720: 00,2355           54137                           TS       DVNORMCT                              #  DIVIDEND NORMALIZATION COUNT.
001721: 00,2356           54140                           TS       MAXDVSW                               #  NEAR-ONE DIVIDE FLAG.
001722:
001723: 00,2357           10130                           CCS      BUF                                   #  FORCE BUF POSITIVE WITH THE MAJOR PART
001724: 00,2360           12516                           TCF      BUFPOS                                #  NON-ZERO.
001725: 00,2361           12363                           TCF      +2
001726: 00,2362           12531                           TCF      BUFNEG
001727:
001728: 00,2363           54156        BUFZERO            TS       MPAC       +2                         #  ZERO THIS.
001729: 00,2364           07226                           TC       TPAGREE                               #  FORCE SIGN AGREEMENT BEFORE OVERFLOW
001730:
001731: 00,2365           10154                           CCS      MPAC                                  #  TEST TO SEE IF MPAC NON-ZERO.  (TOO BIG)
001732: 00,2366           12414                           TCF      OVF+                                  #  MAJOR PART OF DIVIDEND IS POSITIVE NON-0
001733: 00,2367           12371                           TCF      +2
001734: 00,2370           12413                           TCF      OVF+       -1                         #  MAJOR PART OF DIVIDEND IS NEG. NON-ZERO
001735:
001736: 00,2371           56131                           XCH      BUF        +1                         #  SHIFT DIVIDEND AND DIVISOR LEFT 14.
001737: 00,2372           56130                           XCH      BUF
001738: 00,2373           56155                           XCH      MPAC       +1
001739: 00,2374           56154                           XCH      MPAC
001740: 00,2375           10130                           CCS      BUF                                   #  TRY AGAIN ON FORMER MINOR PART.
001741: 00,2376           12422                           TCF      BUF+
001742: 00,2377           12401                           TCF      +2                                    #  OVERFLOW ON ZERO DIVISOR.
001743: 00,2400           12416                           TCF      BUF-
001744:
001745: 00,2401           40154                           CS       MPAC                                  #  SIGN OF MPAC DETERMINES SIGN OF RESULT.
001746: 00,2402           00006        SGNDVOVF           EXTEND
001747: 00,2403           62405                           BZMF     +2
001748: 00,2404           24136                           INCR     DVSIGN                                #  NEGMAX IN MPAC PERHAPS.
001749: 00,2405           35013        DVOVF              CAF      POSMAX                                #  ON DIVISION OVERFLOW OF ANY SORT, SET
001750: 00,2406           54154                           TS       MPAC                                  #  SET DP MPAC TO +-POSMAX.
001751: 00,2407           02630                           TC       FINALDV    +3
001752: 00,2410           35033                           CAF      ONE                                   #  SET OVERFLOW INDICATOR AND EXIT.
001753: 00,2411           54121                           TS       OVFIND
001754: 00,2412           06030                           TC       DANZIG
001755:
001756: 00,2413           24136                 -1        INCR     DVSIGN
001757: 00,2414           40131        OVF+               CS       BUF        +1                         #  LOAD LOWER ORDER PART OF DIVISOR.
001758: 00,2415           12402                           TCF      SGNDVOVF                              #  GET SIGN OF RESULT.
001759:
001760: 00,2416           00006        BUF-               EXTEND                                         #  IF BUF IS NEGATIVE, COMPLEMENT IT AND
001761: 00,2417           40131                           DCS      BUF                                   #  MAINTAIN DVSIGN FOR FINAL QUOTIENT SIGN.
001762: 00,2420           52131                           DXCH     BUF
001763: 00,2421           24136                           INCR     DVSIGN                                #  NOW -0.
001764:
001765: 00,2422           10154        BUF+               CCS      MPAC                                  #  FORCE MPAC POSITIVE, CHECKING FOR ZERO
001766: 00,2423           12437                           TCF      MPAC+                                 #  DIVIDEND IN THE PROCESS.
001767: 00,2424           12426                           TCF      +2
001768: 00,2425           12433                           TCF      MPAC-
001769: 00,2426           10155                           CCS      MPAC       +1
001770: 00,2427           12437                           TCF      MPAC+
001771: 00,2430           16030                           TCF      DANZIG                                #  EXIT IMMEDIATELY ON ZERO DIVIDEND.
001772: 00,2431           12433                           TCF      MPAC-
001773: 00,2432           16030                           TCF      DANZIG
001774:
001775: 00,2433           00006        MPAC-              EXTEND                                         #  FORCE MPAC POSITIVE AS BUF IN BUF-.
001776: 00,2434           40155                           DCS      MPAC
001777: 00,2435           52155                           DXCH     MPAC
001778: 00,2436           24136                           INCR     DVSIGN                                #  NOW +1 OR -0.
001779:
001780: 00,2437           40154        MPAC+              CS       MPAC                                  #  CHECK FOR DIVISION OVERFLOW.  IF THE
001781: 00,2440           67716                           AD       NEGONE                                #  MAJOR PART OF THE DIVIDEND IS LESS THAN
001782: 00,2441           60130                           AD       BUF                                   #  THE MAJOR PART OF THE DIVISOR BY AT
001783: 00,2442           10000                           CCS      A                                     #  LEAST TWO, WE CAN PROCEED IMMEDIATELY
001784: 00,2443           12505                           TCF      DVNORM                                #  WITHOUT NORMALIZATION PRODUCING A DVMAX.
001785: 00,2444           60001        -1/2+2             OCT      60001                                 #  USED IN SQRTSUB.
001786:
001787: 00,2445           12446                           TCF      +1                                    #  IF THE ABOVE DOES NOT HOLD, FORCE SIGN
001788: 00,2446           35016                           CAF      HALF                                  #  AGREEMENT IN NUMERATOR AND DENOMINATOR
001789: 00,2447           60000                           DOUBLE                                         #  TO FACILITATE OVERFLOW AND NEAR-ONE
001790: 00,2450           60155                           AD       MPAC       +1                         #  CHECKING.
001791: 00,2451           54155                           TS       MPAC       +1
001792: 00,2452           35035                           CAF      ZERO
001793: 00,2453           65013                           AD       POSMAX
001794: 00,2454           26154                           ADS      MPAC
001795:
001796: 00,2455           35016                           CAF      HALF                                  #  SAME FOR BUF.
001797: 00,2456           60000                           DOUBLE
001798: 00,2457           60131                           AD       BUF        +1
001799: 00,2460           54131                           TS       BUF        +1
001800: 00,2461           35035                           CAF      ZERO
001801: 00,2462           65013                           AD       POSMAX
001802: 00,2463           26130                           ADS      BUF
001803:
001804: 00,2464           40154                           CS       MPAC                                  #  CHECK MAGNITUDE OF SIGN-CORRECTED
001805: 00,2465           60130                           AD       BUF                                   #  OPERANDS.
001806: 00,2466           10000                           CCS      A
001807: 00,2467           12505                           TCF      DVNORM                                #  DIVIDE OK - WILL NOT BECOME MAXDV CASE.
001808: 00,2470           00133        LBUF2              ADRES    BUF2
001809: 00,2471           12405                           TCF      DVOVF                                 #  DIVISOR NOT LESS THAN DIVIDEND - OVF.
001810:
001811: 00,2472           54140                           TS       MAXDVSW                               #  IF THE MAJOR PARTS OF THE DIVIDEND AND
001812: 00,2473           40155                           CS       MPAC       +1                         #  DIVISOR ARE EQUAL, A SPECIAL APPROXIMA-
001813: 00,2474           60131                           AD       BUF        +1                         #  TION IS USED (PROVIDED THE DIVISION IS
001814: 00,2475           00006                           EXTEND                                         #  POSSIBLE, OF COURSE).
001815: 00,2476           62405                           BZMF     DVOVF
001816: 00,2477           12505                           TCF      DVNORM                                #  IF NO OVERFLOW.
001817:
001818: 00,2500           00006        BUFNORM            EXTEND                                         #  ADD -1 TO AUGMENT SHIFT COUNT AND SHIFT
001819: 00,2501           24137                           AUG      DVNORMCT                              #  LEFT ONE PLACE.
001820: 00,2502           00006                           EXTEND
001821: 00,2503           30131                           DCA      BUF
001822: 00,2504           20131                           DAS      BUF
001823:
001824: 00,2505           30130        DVNORM             CA       BUF                                   #  SEE IF DIVISOR NORMALIZED YET.
001825: 00,2506           60000                           DOUBLE
001826: 00,2507           54000                           OVSK
001827: 00,2510           12500                           TCF      BUFNORM                               #  NO - SHIFT LEFT ONE AND TRY AGAIN.
001828:
001829: 00,2511           52155                           DXCH     MPAC                                  #  CALL DIVIDEND NORMALIZATION SEQUENCE
001830: 00,2512           50137                           INDEX    DVNORMCT                              #  PRIOR TO DOING THE DIVIDE.
001831: 00,2513           02565                           TC       MAXTEST
001832:
001833: 00,2514           54156                           TS       MPAC       +2                         #  RETURNS WITH DIVISION DONE AND C(A) = 0.
001834: 00,2515           16030                           TCF      DANZIG
001835:
001836: 00,2516           10000        BUFPOS             CCS      A
001837: 00,2517           12422                           TCF      BUF+                                  #  TO BUF+ IF BUF IS GREATER THAN +1.
001838:
001839: 00,2520           40131                           CS       BUF        +1                         #  IF BUF IS +1, FORCING SIGN AGREEMENT
001840: 00,2521           00006                           EXTEND                                         #  MAY CAUSE BUF TO BECOME ZERO.
001841: 00,2522           62422                           BZMF     BUF+                                  #  BRANCH IF SIGNS AGREE.
001842:
001843: 00,2523           35016                           CA       HALF                                  #  SIGNS DISAGREE.  FORCE AGREEMENT.
001844: 00,2524           60000                 +6        DOUBLE
001845: 00,2525           26131                           ADS      BUF        +1
001846: 00,2526           35035                           CA       ZERO
001847: 00,2527           54130                           TS       BUF
001848: 00,2530           12363                           TCF      BUFZERO
001849:
001850: 00,2531           10000        BUFNEG             CCS      A
001851: 00,2532           12416                           TCF      BUF-                                  #  TO BUF- IF BUF IS LESS THAN -1.
001852:
001853: 00,2533           30131                           CA       BUF        +1                         #  IF BUF IS -1, FORCING SIGN AGREEMENT
001854: 00,2534           00006                           EXTEND                                         #  MAY CAUSE BUF TO BECOME ZERO.
001855: 00,2535           62416                           BZMF     BUF-                                  #  BRANCH IF SIGNS AGREE.
001856:
001857: 00,2536           45016                           CS       HALF                                  #  SIGNS DISAGREE.  FORCE AGREEMENT.
001858: 00,2537           12524                           TCF      BUFPOS     +6
001859:
001860:                                                                                                  #  THE FOLLOWING ARE PROLOGUES TO SHIFT THE DIVIDEND ARRIVING IN A AND L BEFORE THE DIVIDE.
001861:
001862: 00,2540           22021                 -21D      LXCH     SR                                    #  SPECIAL PROLOGUE FOR UNIT WHEN THE
001863: 00,2541           00006                           EXTEND                                         #  LENGTH OF THE ARGUMENT WAS NOT LESS THAN
001864: 00,2542           75016                           MP       HALF                                  #  .5.  IN THIS CASE, EACH COMPONENT MUST BE
001865: 00,2543           56001                           XCH      L                                     #  SHIFTED RIGHT ONE TO PRODUCE A HALF-UNIT
001866: 00,2544           60021                           AD       SR                                    #  VECTOR.
001867: 00,2545           56001                           XCH      L
001868: 00,2546           12571                           TCF      GENDDV     +1                         #  WITH DP DIVIDEND IN A,L.
001869:
001870: 00,2547           20001                           DDOUBL                                         #  PROLOGUE WHICH NORMALIZES THE DIVIDEND
001871: 00,2550           20001                           DDOUBL                                         #  WHEN IT IS KNOWN THAT NO DIVISION
001872: 00,2551           20001                           DDOUBL                                         #  OVERFLOW WILL OCCUR.
001873: 00,2552           20001                           DDOUBL
001874: 00,2553           20001                           DDOUBL
001875: 00,2554           20001                           DDOUBL
001876: 00,2555           20001                           DDOUBL
001877: 00,2556           20001                           DDOUBL
001878: 00,2557           20001                           DDOUBL
001879: 00,2560           20001                           DDOUBL
001880: 00,2561           20001                           DDOUBL
001881: 00,2562           20001                           DDOUBL
001882: 00,2563           20001                           DDOUBL
001883: 00,2564           52155                           DXCH     MPAC
001884:
001885: 00,2565           10140        MAXTEST            CCS      MAXDVSW                               #  0 IF MAJORS MIGHT BE =, -1 OTHERWISE.
001886: 00,2566           06552        BIASHI             DEC      .4192      B-1                        #  SQRT CONSTANTS
001887:
001888: 00,2567           12642                           TCF      MAXDV                                 #  CHECK TO SEE IF THEY ARE NOW EQUAL.
001889:
001890:                                                                                                  #  THE FOLLOWING IS A GENERAL PURPOSE DOUBLE PRECISION DIVISION ROUTINE.  IT DIVIDES MPAC BY BUF AND LEAVES
001891:                                                                                                  #  THE RESULT IN MPAC.  THE FOLLOWING CONDITIONS MUST BE SATISFIED:
001892:
001893:                                                                                                  #        1.      THE DIVISOR (BUF) MUST BE POSITIVE AND NOT LESS THAN .5.
001894:
001895:                                                                                                  #        2.      THE DIVIDEND (MPAC) MUST BE POSITIVE WITH THE MAJOR PART OF MPAC STRICTLY LESS THAN THAT OF BUF
001896:                                                                                                  #                (A SPECIAL APPROXIMATION, MAXDV, IS USED WHEN THE MAJOR PARTS ARE EQUAL).
001897:
001898:                                                                                                  #  UNDERSTANDING THAT A/B = Q + S(R/B) WHERE S = 2(-14) AND Q AND R ARE QUOTIENT AND REMAINDER, RESPEC-
001899:                                                                                                  #  TIVELY, THE FOLLOWING APPROXIMATION IS OBTAINED BY MULTIPLYING ABOVE AND BELOW BY C - SD AND NEGLECTING TERMS OF
001900:                                                                                                  #  ORDER S-SQUARED (POSSIBLY INTRODUCING ERROR INTO THE LOW TWO BITS OF THE RESULT).  SIGN AGREEMENT IS UNNECESSARY.
001901:
001902:                                                                                                  #        A + SB .      (R - QD)                                             A + SB
001903:                                                                                                  #        ------ = Q + S(------) WHERE Q AND R ARE QUOTIENT AND REMAINDER OF ------ RESPECTIVELY.
001904:                                                                                                  #        C + SD        (  C   )                                                C
001905:
001906: 00,2570           52155        GENDDV             DXCH     MPAC                                  #  WE NEED A AND B ONLY FOR FIRST DV.
001907: 00,2571           00006                 +1        EXTEND                                         #  (SPECIAL UNIT PROLOGUE ENTERS HERE).
001908: 00,2572           10130                           DV       BUF                                   #  A NOW CONTAINS Q AND L, R.
001909: 00,2573           52155                           DXCH     MPAC
001910:
001911: 00,2574           40154                           CS       MPAC                                  #  FORM DIVIDEND FOR MINOR PART OF RESULT.
001912: 00,2575           00006                           EXTEND
001913: 00,2576           70131                           MP       BUF        +1
001914: 00,2577           60155                           AD       MPAC       +1                         #  OVERFLOW AT THIS POINT IS POSITIVE SINCE
001915: 00,2600           54000                           OVSK                                           #  R IS POSITIVE IN EVERY CASE.
001916: 00,2601           12606                           TCF      +5
001917:
001918: 00,2602           00006                           EXTEND                                         #  OVERFLOW CAN BE REMOVED BY SUBTRACTING C
001919: 00,2603           60130                           SU       BUF                                   #  (BUF) ONCE SINCE R IS ALWAYS LESS THAN C
001920: 00,2604           24154                           INCR     MPAC                                  #  IN THIS CASE.  INCR COMPENSATES SUBTRACT.
001921: 00,2605           12610                           TCF      +DOWN                                 #  (SINCE C(A) IS STILL POSITIVE).
001922:
001923: 00,2606           00006                 +5        EXTEND                                         #  C(A) CAN BE MADE LESS THAN C IN MAGNI-
001924: 00,2607           62620                           BZMF     -UP                                   #  TUDE BY DIMINISHING IT BY C (SINCE C IS
001925:                                                                                                  #  NOT LESS THAN .5) UNLESS C(A) = 0.
001926:
001927: 00,2610           00006        +DOWN              EXTEND
001928: 00,2611           60130                           SU       BUF                                   #  IF POSITIVE, REDUCE ONLY IF NECESSARY
001929: 00,2612           00006                           EXTEND                                         #  SINCE THE COMPENSATING INCR MIGHT CAUSE
001930: 00,2613           12616                           BZF      +3                                    #  OVERFLOW.
001931: 00,2614           00006                           EXTEND                                         #  DONT SUBTRACT UNLESS RESULT IS POSITIVE
001932: 00,2615           62624                           BZMF     ENDMAXDV                              #  OR ZERO.
001933:
001934: 00,2616           24154                 +3        INCR     MPAC                                  #  KEEP SUBTRACT HERE AND COMPENSATE.
001935: 00,2617           12625                           TCF      FINALDV
001936:
001937: 00,2620           00006        -UP                EXTEND                                         #  IF ZERO, SET MINOR PART OF RESULT TO
001938: 00,2621           12630                           BZF      FINALDV    +3                         #  ZERO.
001939:
001940: 00,2622           00006                           EXTEND                                         #  IF NEGATIVE, ADD C TO A, SUBTRACTING ONE
001941: 00,2623           26154                           DIM      MPAC                                  #  TO COMPENSATE.  DIM IS OK HERE SINCE THE
001942: 00,2624           60130        ENDMAXDV           AD       BUF                                   #  MAJOR PART NEVER GOES NEGATIVE.
001943:
001944: 00,2625           22007        FINALDV            ZL                                             #  DO DV TO OBTAIN MINOR PART OF RESULT.
001945: 00,2626           00006                           EXTEND
001946: 00,2627           10130                           DV       BUF
001947: 00,2630           54155                 +3        TS       MPAC       +1
001948:
001949: 00,2631           10136                           CCS      DVSIGN                                #  LEAVE RESULT POSITIVE UNLESS C(DVSIGN)=
001950: 00,2632           00002                           TC       Q                                     #  -0.
001951: 00,2633           00002                           TC       Q
001952: 00,2634           00002                           TC       Q
001953:
001954: 00,2635           00006                           EXTEND
001955: 00,2636           40155                           DCS      MPAC
001956: 00,2637           52155                           DXCH     MPAC
001957: 00,2640           35035                           CAF      ZERO                                  #  SO WE ALWAYS RETURN WITH C(A) = 0.
001958: 00,2641           00002                           TC       Q
001959:
001960:                                                                                                  #  IF THE MAJOR PARTS OF THE DIVISOR AND DIVIDEND ARE EQUAL, BUT THE MINOR PARTS ARE SUCH THAT THE
001961:                                                                                                  #  DIVIDEND IS STRICTLY LESS THAN THE DIVISOR IN MAGNITUDE, THE FOLLOWING APPROXIMATION IS USED.  THE ASSUMPTIONS
001962:                                                                                                  #  ARE THE SAME AS THE GENERAL ROUTINE WITH THE ADDITION THAT SIGN AGREEMENT IS NECESSARY (B, C, & D POSITIVE).
001963:
001964:                                                                                                  #        C + SB .          (C + B - D)
001965:                                                                                                  #        ------ = 37777 + S(---------)
001966:                                                                                                  #        C + SD            (    C    )
001967:
001968:                                                                                                  #  THE DIVISION MAY BE PERFORMED IMMEDIATELY SINCE B IS STRICTLY LESS THAN D AND C IS NOT LESS THAN .5.
001969:
001970: 00,2642           40154        MAXDV              CS       MPAC                                  #  SEE IF MAXDV CASE STILL HOLDS AFTER
001971: 00,2643           60130                           AD       BUF                                   #  NORMALIZATION.
001972: 00,2644           00006                           EXTEND
001973: 00,2645           12647                           BZF      +2
001974: 00,2646           12570                           TCF      GENDDV                                #  MPAC NOW LESS THAN BUF - DIVIDE AS USUAL
001975:
001976: 00,2647           35013                 +2        CAF      POSMAX                                #  SET MAJOR PART OF RESULT.
001977: 00,2650           54154                           TS       MPAC
001978:
001979: 00,2651           40131                           CS       BUF        +1                         #  FORM DIVIDEND OF MINOR PART OF RESULT.
001980: 00,2652           60155                           AD       MPAC       +1
001981: 00,2653           12624                           TCF      ENDMAXDV                              #  GO ADD C AND DO DIVIDE, ATTACHING SIGN
001982:                                                                                                  #  BEFORE EXITING.
001983:
001984:                                                                                                  #  VECTOR DIVIDED BY SCALAR, V/SC, IS EXECUTED HERE.  THE VECTOR IS NOW IN MPAC WITH SCALAR IN BUF.
001985:
001986: 00,2654           45033        V/SC2              CS       ONE                                   #  INITIALIZE DIVIDEND NORMALIZATION COUNT
001987: 00,2655           54137                           TS       DVNORMCT                              #  AND DIVISION SIGN REGISTER.
001988: 00,2656           54127                           TS       VBUF       +5
001989:
001990: 00,2657           03010                           TC       VECAGREE                              #  FORCE SIGN AGREEMENT IN VECTOR
001991:
001992: 00,2660           52131                           DXCH     BUF
001993: 00,2661           07513                           TC       ALSIGNAG                              #  SIGN AGREE BUF
001994: 00,2662           52131                           DXCH     BUF
001995: 00,2663           10130                           CCS      BUF                                   #  FORCE DIVISOR POSITIVE WITH MAJOR PART
001996: 00,2664           12721                           TCF      /BUF+                                 #  NON-ZERO (IF POSSIBLE).
001997: 00,2665           12667                           TCF      +2
001998: 00,2666           12715                           TCF      /BUF-
001999:
002000: 00,2667           56131                           XCH      BUF        +1                         #  SHIFT VECTOR AND SCALAR LEFT 14.
002001: 00,2670           56130                           XCH      BUF
002002: 00,2671           56155                           XCH      MPAC       +1
002003: 00,2672           56154                           XCH      MPAC
002004: 00,2673           00006                           EXTEND                                         #  CHECK FOR OVERFLOW IN EACH CASE.
002005: 00,2674           12676                           BZF      +2
002006: 00,2675           12405                           TCF      DVOVF
002007:
002008: 00,2676           56160                           XCH      MPAC       +4
002009: 00,2677           56157                           XCH      MPAC       +3
002010: 00,2700           00006                           EXTEND
002011: 00,2701           12703                           BZF      +2
002012: 00,2702           12405                           TCF      DVOVF
002013:
002014: 00,2703           56162                           XCH      MPAC       +6
002015: 00,2704           56161                           XCH      MPAC       +5
002016: 00,2705           00006                           EXTEND
002017: 00,2706           12710                           BZF      +2
002018: 00,2707           12405                           TCF      DVOVF
002019:
002020: 00,2710           10130                           CCS      BUF
002021: 00,2711           12721                           TCF      /BUF+
002022: 00,2712           12405                           TCF      DVOVF                                 #  ZERO DIVISOR - OVERFLOW.
002023: 00,2713           12715                           TCF      /BUF-
002024: 00,2714           12405                           TCF      DVOVF
002025:
002026: 00,2715           00006        /BUF-              EXTEND                                         #  ON NEGATIVE, COMPLEMENT BUF AND MAINTAIN
002027: 00,2716           40131                           DCS      BUF                                   #  DVSIGN IN VBUF +5.
002028: 00,2717           52131                           DXCH     BUF
002029: 00,2720           24127                           INCR     VBUF       +5
002030:
002031: 00,2721           00006        /BUF+              EXTEND
002032: 00,2722           30131                           DCA      BUF                                   #  LEAVE ABS(ORIG DIVISOR) IN BUF2
002033: 00,2723           52134                           DXCH     BUF2                                  #  FOR OVERFLOW TESTING
002034: 00,2724           12732                           TCF      /NORM                                 #  NORMALIZE DIVISOR IN BUF.
002035:
002036: 00,2725           00006        /NORM2             EXTEND                                         #  IF LESS THAN .5, AUGMENT DVNORMCT AND
002037: 00,2726           24137                           AUG      DVNORMCT                              #  DOUBLE DIVISOR.
002038: 00,2727           00006                           EXTEND
002039: 00,2730           30131                           DCA      BUF
002040: 00,2731           20131                           DAS      BUF
002041:
002042: 00,2732           30130        /NORM              CA       BUF                                   #  SEE IF DIVISOR NORMALIZED.
002043: 00,2733           60000                           DOUBLE
002044: 00,2734           54000                           OVSK
002045: 00,2735           12725                           TCF      /NORM2                                #  DOUBLE AND TRY AGAIN IF NOT.
002046:
002047: 00,2736           02750                           TC       V/SCDV                                #  DO X COMPONENT DIVIDE.
002048: 00,2737           52160                           DXCH     MPAC       +3                         #  SUPPLY ARGUMENTS IN USUAL SEQUENCE.
002049: 00,2740           52155                           DXCH     MPAC
002050: 00,2741           52160                           DXCH     MPAC       +3
002051:
002052: 00,2742           02750                           TC       V/SCDV                                #  Y COMPONENT.
002053: 00,2743           52162                           DXCH     MPAC       +5
002054: 00,2744           52155                           DXCH     MPAC
002055: 00,2745           52162                           DXCH     MPAC       +5
002056:
002057: 00,2746           02750                           TC       V/SCDV                                #  Z COMPONENT.
002058: 00,2747           17367                           TCF      VROTATEX                              #  GO RE-ARRANGE COMPONENTS BEFORE EXIT.
002059:
002060:                                                                                                  #  SUBROUTINE USED BY V/SC TO DIVIDE VECTOR COMPONENT IN MPAC,+1 BY THE SCALAR GIVEN IN BUF.
002061:
002062: 00,2750           30127        V/SCDV             CA       VBUF       +5                         #  REFLECTS SIGN OF SCALAR.
002063: 00,2751           54136                           TS       DVSIGN
002064:
002065: 00,2752           10154                           CCS      MPAC                                  #  FORCE MPAC POSITIVE, EXITING ON ZERO.
002066: 00,2753           12767                           TCF      /MPAC+
002067: 00,2754           12756                           TCF      +2
002068: 00,2755           12763                           TCF      /MPAC-
002069:
002070: 00,2756           10155                           CCS      MPAC       +1
002071: 00,2757           12767                           TCF      /MPAC+
002072: 00,2760           00002                           TC       Q
002073: 00,2761           12763                           TCF      /MPAC-
002074: 00,2762           00002                           TC       Q
002075:
002076: 00,2763           00006        /MPAC-             EXTEND                                         #  USUAL COMPLEMENTING AND SETTING OF SIGN.
002077: 00,2764           40155                           DCS      MPAC
002078: 00,2765           52155                           DXCH     MPAC
002079: 00,2766           24136                           INCR     DVSIGN
002080:
002081: 00,2767           45033        /MPAC+             CS       ONE                                   #  INITIALIZE NEAR-ONE SWITCH.
002082: 00,2770           54140                           TS       MAXDVSW
002083:
002084: 00,2771           40154                           CS       MPAC                                  #  CHECK POSSIBLE OVERFLOW.
002085: 00,2772           60133                           AD       BUF2                                  #  UNNORMALIZED INPUT DIVISOR.
002086: 00,2773           10000                           CCS      A
002087: 00,2774           13004                           TCF      DDVCALL                               #  NOT NEAR-ONE
002088: 00,2775           12777                           TCF      +2                                    #  +0 IS JUST POSSIBLE
002089: 00,2776           12405                           TCF      DVOVF                                 #  NO HOPE
002090: 00,2777           54140                           TS       MAXDVSW                               #  SIGNAL POSSIBLE NEAR-ONE CASE
002091: 00,3000           40155                           CS       MPAC       +1                         #  SEE IF DIVISION CAN BE DONE
002092: 00,3001           60134                           AD       BUF2       +1
002093: 00,3002           00006                           EXTEND
002094: 00,3003           62405                           BZMF     DVOVF
002095:
002096: 00,3004           52155        DDVCALL            DXCH     MPAC                                  #  CALL PRE-DIVIDE NORMALIZATION.
002097: 00,3005           50137                           INDEX    DVNORMCT
002098: 00,3006           12565                           TCF      MAXTEST
002099:
002100: 00,3007           32506        SLOPELO            DEC      .8324
002101:
002102: 00,3010           56002        VECAGREE           XCH      Q                                     #  SAVE Q IN A
002103: 00,3011           52155                           DXCH     MPAC
002104: 00,3012           07513                           TC       ALSIGNAG                              #  SIGNAGREE MPAC
002105: 00,3013           52155                           DXCH     MPAC
002106: 00,3014           52160                           DXCH     MPAC       +3
002107: 00,3015           07513                           TC       ALSIGNAG                              #  SIGN AGREE MPAC +3
002108: 00,3016           52160                           DXCH     MPAC       +3
002109: 00,3017           52162                           DXCH     MPAC       +5
002110: 00,3020           07513                           TC       ALSIGNAG                              #  SIGNAGREE MPAC +5
002111: 00,3021           52162                           DXCH     MPAC       +5
002112: 00,3022           00000                           TC       A
002113:
002114:                                                                                                  #  THE FOLLOWING ROUTINE EXECUTES THE UNIT INSTRUCTION, WHICH TAKES THE UNIT OF THE VECTOR IN MPAC.
002115:
002116: 00,3023           03010        UNIT               TC       VECAGREE                              #  FORCE SIGN AGREEMENT IN VECTOR
002117: 00,3024           07501                           TC       MPACVBUF                              #  SAVE ARGUMENT IN VBUF
002118: 00,3025           35035                           CAF      ZERO                                  #  MUST SENSE OVERFLOW IN FOLLOWING DOT.
002119: 00,3026           56121                           XCH      OVFIND
002120: 00,3027           54141                           TS       TEM1
002121: 00,3030           03317                           TC       VSQSUB                                #  DOT MPAC WITH ITSELF.
002122: 00,3031           30141                           CA       TEM1
002123: 00,3032           56121                           XCH      OVFIND
002124: 00,3033           00006                           EXTEND
002125: 00,3034           13036                           BZF      +2
002126: 00,3035           12405                           TCF      DVOVF
002127: 00,3036           00006                           EXTEND
002128: 00,3037           30155                           DCA      MPAC                                  #  LEAVE THE SQUARE OF THE LENGTH OF THE
002129: 00,3040           50120                           INDEX    FIXLOC                                #  ARGUMENT IN LVSQUARE.
002130: 00,3041           52043                           DXCH     LVSQUARE
002131:
002132: 00,3042           03343                           TC       SQRTSUB                               #  GO TAKE THE NORMALIZED SQUARE ROOT.
002133:
002134: 00,3043           10154                           CCS      MPAC                                  #  CHECK FOR UNIT OVERFLOW.
002135: 00,3044           13051                           TCF      +5                                    #  MPAC IS NOT LESS THAN .5 UNLESS
002136: 00,3045           54001                           TS       L
002137: 00,3046           50120                           INDEX    FIXLOC
002138: 00,3047           52045                           DXCH     LV
002139: 00,3050           12405                           TCF      DVOVF                                 #  INPUT TO SQRTSUB WAS 0.
002140:
002141: 00,3051           44333                           CS       FOURTEEN                              #  SEE IF THE INPUT WAS SO SMALL THE THE
002142: 00,3052           60135                           AD       MPTEMP                                #  FIRST TWO REGISTERS OF THE SQUARE WERE 0
002143: 00,3053           10000                           CCS      A
002144: 00,3054           40000                           COM                                            #  IF SO, SAVE THE NEGATIVE OF THE SHIFT
002145: 00,3055           13133                           TCF      SMALL                                 #  COUNT -15D.
002146:
002147: 00,3056           13065                           TCF      LARGE                                 #  (THIS IS USUALLY THE CASE.)
002148:
002149: 00,3057           45041                           CS       THIRTEEN                              #  IF THE SHIFT COUNT WAS EXACTLY 14, SET
002150: 00,3060           54135                           TS       MPTEMP                                #  THE PRE-DIVIDE NORM COUNT TO -13D.
002151:
002152: 00,3061           30154                           CA       MPAC                                  #  SHIFT THE LENGTH RIGHT 14 BEFORE STORING
002153: 00,3062           54001        SMALL2             TS       L                                     #  (SMALL EXITS TO THIS POINT).
002154: 00,3063           35035                           CAF      ZERO
002155: 00,3064           13112                           TCF      LARGE2                                #  GO TO STORE LENGTH AND PROCEED.
002156:
002157: 00,3065           10135        LARGE              CCS      MPTEMP                                #  MOST ALL CASES COME HERE.
002158: 00,3066           13074                           TCF      LARGE3                                #  SEE IF NO NORMALIZATION WAS REQUIRED BY
002159: 00,3067           42024                           CS       SRDDV                                 #  SQRT, AND IF SO, SET UP FOR A SHIFT
002160: 00,3070           54135                           TS       MPTEMP                                #  RIGHT 1 BEFORE DIVIDING TO PRODUCE
002161: 00,3071           00006                           EXTEND                                         #  THE DESIRED HALF UNIT VECTOR.
002162: 00,3072           30155                           DCA      MPAC
002163: 00,3073           13112                           TCF      LARGE2
002164:
002165: 00,3074           40000        LARGE3             COM                                            #  LEAVE NEGATIVE OF SHIFT COUNT-1 FOR
002166: 00,3075           54135                           TS       MPTEMP                                #  PREDIVIDE LEFT SHIFT.
002167:
002168: 00,3076           40000                           COM                                            #  PICK UP REQUIRED SHIFTING BIT TO UNNORM-
002169: 00,3077           50000                           INDEX    A                                     #  ALIZE THE SQRT RESULT.
002170: 00,3100           35016                           CAF      BIT14
002171: 00,3101           54130                           TS       BUF
002172: 00,3102           00006                           EXTEND
002173: 00,3103           70155                           MP       MPAC       +1
002174: 00,3104           56130                           XCH      BUF
002175: 00,3105           00006                           EXTEND                                         #  (UNNORMALIZE THE SQRT FOR LV).
002176: 00,3106           70154                           MP       MPAC
002177: 00,3107           56001                           XCH      L
002178: 00,3110           60130                           AD       BUF
002179: 00,3111           56001                           XCH      L
002180:
002181: 00,3112           50120        LARGE2             INDEX    FIXLOC
002182: 00,3113           52045                           DXCH     LV                                    #  LENGTH NOW STORED IN WORK AREA.
002183:
002184: 00,3114           45033                           CS       ONE
002185: 00,3115           54140                           TS       MAXDVSW                               #  NO MAXDV CASES IN UNIT.
002186:
002187: 00,3116           52123                           DXCH     VBUF                                  #  PREPARE X COMPONENT FOR DIVIDE, SETTING
002188: 00,3117           52155                           DXCH     MPAC                                  #  LENGTH OF VECTOR AS DIVISOR IN BUF.
002189: 00,3120           52131                           DXCH     BUF
002190: 00,3121           03151                           TC       UNITDV
002191:
002192: 00,3122           52125                           DXCH     VBUF       +2                         #  DO Y AND Z IN USUAL FASHION SO WE CAN
002193: 00,3123           52155                           DXCH     MPAC                                  #  EXIT THROUGH VROTATEX.
002194: 00,3124           52160                           DXCH     MPAC       +3
002195: 00,3125           03151                           TC       UNITDV
002196:
002197: 00,3126           52127                           DXCH     VBUF       +4
002198: 00,3127           52155                           DXCH     MPAC
002199: 00,3130           52162                           DXCH     MPAC       +5
002200: 00,3131           03151                           TC       UNITDV
002201: 00,3132           17367                           TCF      VROTATEX                              #  AND EXIT.
002202:
002203:                                                                                                  #  IF THE LENGTH OF THE ARGUMENT VECTOR WAS LESS THAN 2(-28), EACH COMPONENT MUST BE SHIFTED LEFT AT LEAST
002204:                                                                                                  #  14 PLACES BEFORE THE DIVIDE. NOTE THAT IN THIS CASE, THE MAJOR PART OF EACH COMPONENT IS ZERO.
002205:
002206: 00,3133           54135        SMALL              TS       MPTEMP                                #  NEGATIVE OF PRE-DIVIDE SHIFT COUNT.
002207:
002208: 00,3134           35035                           CAF      ZERO                                  #  SHIFT EACH COMPONENT LEFT 14.
002209: 00,3135           56123                           XCH      VBUF       +1
002210: 00,3136           56122                           XCH      VBUF
002211: 00,3137           56125                           XCH      VBUF       +3
002212: 00,3140           56124                           XCH      VBUF       +2
002213: 00,3141           56127                           XCH      VBUF       +5
002214: 00,3142           56126                           XCH      VBUF       +4
002215:
002216: 00,3143           40135                           CS       MPTEMP
002217: 00,3144           50000                           INDEX    A
002218: 00,3145           35016                           CAF      BIT14
002219: 00,3146           00006                           EXTEND
002220: 00,3147           70154                           MP       MPAC
002221: 00,3150           13062                           TCF      SMALL2
002222:
002223: 00,3151     5041               THIRTEEN           =        OCT15
002224: 00,3151     4333               FOURTEEN           =        OCT16
002225: 00,3151     4333               OCT16              =        R1D1
002226:
002227:                                                                                                  #  THE FOLLOWING ROUTINE SETS UP THE CALL TO THE DIVIDE ROUTINES.
002228:
002229: 00,3151           10154        UNITDV             CCS      MPAC                                  #  FORCE MPAC POSITIVE IF POSSIBLE, SETTING
002230: 00,3152           13170                           TCF      UMPAC+                                #  DVSIGN ACCORDING TO THE SIGN OF MPAC
002231: 00,3153           13155                           TCF      +2                                    #  SINCE THE DIVISOR IS ALWAYS POSITIVE
002232: 00,3154           13162                           TCF      UMPAC-                                #  HERE.
002233:
002234: 00,3155           10155                           CCS      MPAC       +1
002235: 00,3156           13170                           TCF      UMPAC+
002236: 00,3157           00002                           TC       Q                                     #  EXIT IMMEDIATELY ON ZERO.
002237: 00,3160           13162                           TCF      UMPAC-
002238: 00,3161           00002                           TC       Q
002239:
002240: 00,3162           45035        UMPAC-             CS       ZERO                                  #  IF NEGATIVE, SET -0 IN DVSIGN FOR FINAL
002241: 00,3163           54136                           TS       DVSIGN                                #  COMPLEMENT.
002242: 00,3164           00006                           EXTEND
002243: 00,3165           40155                           DCS      MPAC                                  #  PICK UP ABSOLUTE VALUE OF ARG AND JUMP.
002244: 00,3166           50135                           INDEX    MPTEMP
002245: 00,3167           12564                           TCF      MAXTEST    -1
002246:
002247: 00,3170           54136        UMPAC+             TS       DVSIGN                                #  SET DVSIGN FOR POSITIVE QUOTIENT.
002248: 00,3171           52155                           DXCH     MPAC
002249: 00,3172           50135                           INDEX    MPTEMP
002250: 00,3173           12564                           TCF      MAXTEST    -1
002251:
002252:                                                                                                  #  MISCELLANEOUS UNARY OPERATIONS.
002253:
002254: 00,3174           03300        DSQ                TC       DSQSUB                                #  SQUARE THE DP CONTENTS OF MPAC.
002255: 00,3175           16030                           TCF      DANZIG
002256:
002257: 00,3176           10163        ABVALABS           CCS      MODE                                  #  ABVAL OR ABS INSTRUCTION.
002258: 00,3177           13226                           TCF      ABS                                   #  DO ABS ON SCALAR.
002259: 00,3200           13226                           TCF      ABS
002260:
002261: 00,3201           03317        ABVAL              TC       VSQSUB                                #  DOT MPAC WITH ITSELF.
002262: 00,3202           22163                           LXCH     MODE                                  #  MODE IS NOW DP (L ZERO AFTER DAS).
002263:
002264: 00,3203           00006                           EXTEND                                         #  STORE SQUARE OF LENGTH IN WORK AREA.
002265: 00,3204           30155                           DCA      MPAC
002266: 00,3205           50120                           INDEX    FIXLOC
002267: 00,3206           52043                           DXCH     LVSQUARE
002268:
002269:                                                                                                  #  PROGRAM DESCRIPTION - SUBROUTINE SQRT
002270:
002271:                                                                                                  #  FUNCTIONAL DESCRIPTION - DOUBLE PRECISION SQUARE ROOT ROUTINE
002272:                                                                                                  #        THIS PROGRAM TAKES THE SQUARE ROOT OF THE 27 OR 28 MOST SIGNIFICANT BITS IN THE TRIPLE PRECISION SET OF
002273:                                                                                                  #        NUMBERS - MPAC, MPAC+1, AND MPAC+2.  THE ROOT IS RETURNED DOUBLE PRECISION IN MPAC AND MPAC+1.
002274:
002275:                                                                                                  #  WARNING - THIS SUBROUTINE USES A TRIPLE PRECISION INPUT.  THE PROGRAMMER MUST ASSURE THE CONTENTS OF MPAC+2
002276:                                                                                                  #        ESPECIALLY IF THE CONTENTS OF MPAC IS SMALL OR ZERO.  FOR DETAILS SEE STG MEMO NO.949.
002277:
002278:                                                                                                  #  CALLING SEQUENCE - IN INTERPRETIVE MODE I.E., FOLLOWING TC INTPRET,SQRT   NO ADDRESS IS ALLOWED
002279:                                                                                                  #        INPUT SCALING  THE BINARY POINT IS ASSUMED TO THE RIGHT OF BIT 15.  THE ANSWER IS RETURNED WITH THE SAME SCALING
002280:
002281:                                                                                                  #  SUBROUTINES - GENSCR, MPACSHR, SQRTSUB, ABORT
002282:
002283:                                                                                                  #  ABORT EXIT MODE - ABORTS ON NEGATIVE INPUT -1.2X10E-4 (77775 OCTAL) OR LESS.
002284:                                                                                                  #        DISPLAYS ERROR CODE 1302
002285:                                                                                                  #                TC      ABORT
002286:                                                                                                  #                OCT     1302
002287:
002288:                                                                                                  #  DEBRIS - LOCATIONS BUF, MPTEMP, ADDRWD ARE USED
002289:
002290: 00,3207           03343        SQRT               TC       SQRTSUB                               #  TAKE THE SQUARE ROOT OF MPAC.
002291: 00,3210           10135                           CCS      MPTEMP                                #  RETURNED NORMALIZED SQUARE ROOT.  SEE IF
002292: 00,3211           13213                           TCF      +2                                    #  ANY UN-NORMALIZATION REQUIRED AND EXIT
002293: 00,3212           16030                           TCF      DANZIG                                #  IF NOT.
002294:
002295: 00,3213           63730                           AD       NEG12                                 #  A RIGHT SHIFT OF MORE THAN 13 COULD BE
002296: 00,3214           00006                           EXTEND                                         #  REQUIRED IF INPUT WAS ZERO IN MPAC,+1.
002297: 00,3215           63221                           BZMF     SQRTSHFT                              #  GOES HERE IN MOST CASES.
002298: 00,3216           22007                           ZL                                             #  IF A LONG SHIFT IS REQUIRED, GO TO
002299: 00,3217           22116                           LXCH     ADDRWD                                #  GENERAL RIGHT SHIFT ROUTINES.
002300: 00,3220           12303                           TCF      GENSCR     +4                         #  ADDRWD WAS ZERO TO PREVENT ROUND.
002301:
002302: 00,3221           50135        SQRTSHFT           INDEX    MPTEMP                                #  SELECT SHIFTING BIT AND EXIT THROUGH
002303: 00,3222           35015                           CAF      BIT15                                 #  SHIFT ROUTINES.
002304: 00,3223           54135                           TS       MPTEMP
002305: 00,3224           35035                           CAF      ZERO                                  #  TO ZERO MPAC +2 IN THE PROCESS.
002306: 00,3225           12036                           TCF      MPACSHR    +3
002307:
002308: 00,3226           06672        ABS                TC       BRANCH                                #  TEST SIGN OF MPAC AND COMPLEMENT IF
002309: 00,3227           16030                           TCF      DANZIG
002310: 00,3230           16030                           TCF      DANZIG
002311: 00,3231           17637                           TCF      COMP
002312:
002313: 00,3232           45031        VDEF               CS       FOUR                                  #  VECTOR DEFINE - ESSENTIALLY TREATS
002314: 00,3233           26166                           ADS      PUSHLOC                               #  SCALAR IN MPAC AS X COMPONENT, PUSHES UP
002315: 00,3234           00006                           EXTEND                                         #  FOR Y AND THEN AGAIN FOR Z.
002316: 00,3235           50000                           INDEX    A
002317: 00,3236           30003                           DCA      2
002318: 00,3237           52160                           DXCH     MPAC       +3
002319: 00,3240           00006                           EXTEND
002320: 00,3241           50166                           INDEX    PUSHLOC
002321: 00,3242           30001                           DCA      0
002322: 00,3243           52162                           DXCH     MPAC       +5
002323: 00,3244           16470                           TCF      VMODE                                 #  MODE IS NON VECTOR.
002324:
002325: 00,3245           03317        VSQ                TC       VSQSUB                                #  DOT MPAC WITH ITSELF.
002326: 00,3246           17301                           TCF      DMODE                                 #  MODE IS NOW DP.
002327:
002328: 00,3247           00006        PUSH               EXTEND                                         #  PUSH DOWN MPAC LEAVING IT LOADED.
002329: 00,3250           30155                           DCA      MPAC
002330: 00,3251           50166                           INDEX    PUSHLOC                               #  PUSH DOWN FIRST TWO REGISTERS IN EACH
002331: 00,3252           52001                           DXCH     0
002332:
002333: 00,3253           50163                           INDEX    MODE                                  #  INCREMENT PUSHDOWN POINTER.
002334: 00,3254           36213                           CAF      NO.WDS
002335: 00,3255           26166                           ADS      PUSHLOC
002336:
002337: 00,3256           10163                           CCS      MODE
002338: 00,3257           13272                           TCF      TPUSH                                 #  PUSH DOWN MPAC +2.
002339: 00,3260           16030                           TCF      DANZIG                                #  DONE FOR DP.
002340:
002341: 00,3261           00006                           EXTEND                                         #  ON VECTOR, PUSH DOWN Y AND Z COMPONENTS.
002342: 00,3262           30160                           DCA      MPAC       +3
002343: 00,3263           50166                           INDEX    PUSHLOC
002344: 00,3264           51775                           DXCH     0          -4
002345: 00,3265           00006                           EXTEND
002346: 00,3266           30162                           DCA      MPAC       +5
002347: 00,3267           50166                           INDEX    PUSHLOC
002348: 00,3270           51777                           DXCH     0          -2
002349: 00,3271           16030                           TCF      DANZIG
002350:
002351: 00,3272           30156        TPUSH              CA       MPAC       +2
002352: 00,3273           16523                           TCF      ENDTPUSH   +2
002353:
002354: 00,3274           50120        RVQ                INDEX    FIXLOC                                #  RVQ - RETURN IVA QPRET.
002355: 00,3275           30052                           CA       QPRET
002356: 00,3276           54117                           TS       POLISH
002357: 00,3277           16621                           TCF      GOTO       +4                         #  (ASSUME QPRET POINTS TO FIXED ONLY.)
002358:
002359:                                                                                                  #  THE FOLLOWING SUBROUTINES ARE USED IN SQUARING MPAC, IN BOTH THE SCALAR AND VECTOR SENSE.  THEY ARE
002360:                                                                                                  #  SPECIAL CASES OF DMPSUB AND DOTSUB, PUT IN TO SAVE SOME TIME.
002361:
002362: 00,3300           30155        DSQSUB             CA       MPAC       +1                         #  SQUARES THE SCALAR CONTENTS OF MPAC.
002363: 00,3301           00006                           EXTEND
002364: 00,3302           70000                           SQUARE
002365: 00,3303           54156                           TS       MPAC       +2
002366: 00,3304           35035                           CAF      ZERO                                  #  FORM 2(CROSS TERM).
002367: 00,3305           56155                           XCH      MPAC       +1
002368: 00,3306           00006                           EXTEND
002369: 00,3307           70154                           MP       MPAC
002370: 00,3310           20001                           DDOUBL                                         #  AND MAYBE OVERFLOW.
002371: 00,3311           20156                           DAS      MPAC       +1                         #  AND SET A TO NET OVERFLOW.
002372: 00,3312           56154                           XCH      MPAC
002373: 00,3313           00006                           EXTEND
002374: 00,3314           70000                           SQUARE
002375: 00,3315           20155                           DAS      MPAC
002376: 00,3316           00002                           TC       Q
002377:
002378: 00,3317           00006        VSQSUB             EXTEND                                         #  DOTS THE VECTOR IN MPAC WITH ITSELF.
002379: 00,3320           22137                           QXCH     DOTRET
002380: 00,3321           03300                           TC       DSQSUB                                #  SQUARE THE X COMPONENT.
002381: 00,3322           52160                           DXCH     MPAC       +3
002382: 00,3323           52155                           DXCH     MPAC
002383: 00,3324           52131                           DXCH     BUF                                   #  SO WE CAN END IN DOTSUB.
002384: 00,3325           30156                           CA       MPAC       +2
002385: 00,3326           54132                           TS       BUF        +2
002386:
002387: 00,3327           03300                           TC       DSQSUB                                #  SQUARE Y COMPONENT.
002388: 00,3330           52156                           DXCH     MPAC       +1
002389: 00,3331           20132                           DAS      BUF        +1
002390: 00,3332           60154                           AD       MPAC
002391: 00,3333           60130                           AD       BUF
002392: 00,3334           54130                           TS       BUF
002393: 00,3335           13337                           TCF      +2
002394: 00,3336           54121                           TS       OVFIND                                #  IF OVERFLOW.
002395:
002396: 00,3337           52162                           DXCH     MPAC       +5
002397: 00,3340           52155                           DXCH     MPAC
002398: 00,3341           03300                           TC       DSQSUB                                #  SQUARE Z COMPONENT.
002399: 00,3342           17154                           TCF      ENDDOT                                #  END AS IN DOTSUB.
002400:
002401:                                                                                                  #  DOUBLE PRECISION SQUARE ROOT ROUTINE.  TAKE THE SQUARE ROOT OF THE TRIPLE PRECISION (MPAC +2 USED ONLY
002402:                                                                                                  #  IN NORMALIZATION) CONTENTS OF MPAC AND LEAVE THE NORMALIZED RESULT IN MPAC (C(MPAC) GREATER THAN OR EQUAL TO
002403:                                                                                                  #  .5).  THE RIGHT SHIFT COUNT (TO UNNORMALIZE) IS LEFT IN MPTEMP.
002404:
002405: 00,3343           35035        SQRTSUB            CAF      ZERO                                  #  START BY ZEROING RIGHT SHIFT COUNT.
002406: 00,3344           54135                           TS       MPTEMP
002407:
002408: 00,3345           10154                           CCS      MPAC                                  #  CHECK FOR POSITIVE ARGUMENT, SHIFTING
002409: 00,3346           13404                           TCF      SMPAC+                                #  FIRST SIGNIFICANT MPAC REGISTER INTO
002410: 00,3347           13351                           TCF      +2                                    #  MPAC ITSELF.
002411: 00,3350           13373                           TCF      SQRTNEG                               #  SEE IF MAG OF ARGUMENT LESS THAN 10(-4).
002412:
002413: 00,3351           56156                           XCH      MPAC       +2                         #  MPAC IS ZERO - SHIFT LEFT 14.
002414: 00,3352           56155                           XCH      MPAC       +1
002415: 00,3353           54154                           TS       MPAC
002416: 00,3354           35037                           CAF      SEVEN                                 #  AUGMENT RIGHT SHIFT COUNTER.
002417: 00,3355           54135                           TS       MPTEMP
002418:
002419: 00,3356           10154                           CCS      MPAC                                  #  SEE IF MPAC NOW PNZ.
002420: 00,3357           13404                           TCF      SMPAC+
002421: 00,3360           13362                           TCF      +2
002422: 00,3361           13376                           TCF      ZEROANS                               #  NEGATIVE BUT LESS THAN 10(-4) IN MAG.
002423:
002424: 00,3362           56155                           XCH      MPAC       +1                         #  ZERO - SHIFT LEFT 14 AGAIN.
002425: 00,3363           54154                           TS       MPAC
002426: 00,3364           35037                           CAF      SEVEN                                 #  AUGMENT RIGHT SHIFT COUNTER.
002427: 00,3365           26135                           ADS      MPTEMP
002428:
002429: 00,3366           10154                           CCS      MPAC
002430: 00,3367           13404                           TCF      SMPAC+
002431: 00,3370           00002                           TC       Q                                     #  SQRT(0) = 0.
002432: 00,3371           13376                           TCF      ZEROANS
002433: 00,3372           13452                           TCF      FIXROOT                               #  DO NOT LEAVE SQRTSUB WITH -0 IN MPAC.
002434:
002435: 00,3373           10000        SQRTNEG            CCS      A                                     #  ARGUMENT IS NEGATIVE, BUT SEE IF SIGN-
002436: 00,3374           13402                           TCF      SQRTABRT                              #  CORRECTED ARGUMENT IS LESS THAN 10(-4)
002437:
002438: 00,3375           10155                           CCS      MPAC       +1                         #  IN MAGNITUDE.  IF SO, CALL ANSWER ZERO.
002439: 00,3376           35035        ZEROANS            CAF      ZERO                                  #  FORCE ANSWER TO ZERO HERE.
002440: 00,3377           13452                           TCF      FIXROOT
002441: 00,3400           13402                           TCF      SQRTABRT
002442: 00,3401           13452                           TCF      FIXROOT
002443:
002444: 00,3402           05725        SQRTABRT           TC       POODOO
002445: 00,3403           21302                           OCT      21302                                 #  SQRT CALLED WITH NEGATIVE ARGUMENT
002446:
002447: 00,3404           62444        SMPAC+             AD       -1/2+2                                #  SEE IF ARGUMENT GREATER THAN OR EQUAL TO
002448: 00,3405           00006                           EXTEND                                         #  .5.
002449: 00,3406           63455                           BZMF     SRTEST                                #  IF SO, SEE IF LESS THAN .25.
002450:
002451: 00,3407           52155                           DXCH     MPAC                                  #  WE WILL TAKE THE SQUARE ROOT OF MPAC/2.
002452: 00,3410           22021                           LXCH     SR                                    #  SHIFT RIGHT 1 AND GO TO THE SQRT ROUTINE
002453: 00,3411           00006                           EXTEND
002454: 00,3412           75016                           MP       HALF
002455: 00,3413           52155                           DXCH     MPAC
002456: 00,3414           56021                           XCH      SR
002457: 00,3415           26155                           ADS      MPAC       +1                         #  GUARANTEED NO OVERFLOW.
002458:
002459: 00,3416           32314        ARGHI              CAF      SLOPEHI                               #  ARGUMENT BETWEEN .25 AND .5. GET A
002460: 00,3417           00006                           EXTEND                                         #  LINEAR APPROXIMATION FOR THIS RANGE.
002461: 00,3420           70154                           MP       MPAC
002462: 00,3421           62566                           AD       BIASHI                                #  X0/2 = (MPAC/2)(SLOPEHI) + BIASHI/2.
002463:
002464: 00,3422           54130                 +4        TS       BUF                                   #  X0/2 (ARGLO ENTERS HERE).
002465: 00,3423           30154                           CA       MPAC                                  #  SINGLE-PRECISION THROUGHOUT.
002466: 00,3424           22007                           ZL
002467: 00,3425           00006                           EXTEND
002468: 00,3426           10130                           DV       BUF                                   #  (MPAC/2)/(X0/2)
002469: 00,3427           00006                           EXTEND
002470: 00,3430           75016                           MP       HALF
002471: 00,3431           26130                           ADS      BUF                                   #  X1 = X0/2 + .5(MPAC/2)/(X0/2).
002472:
002473: 00,3432           00006                           EXTEND
002474: 00,3433           75016                           MP       HALF                                  #  FORM UP X1/2.
002475: 00,3434           52155                           DXCH     MPAC                                  #  SAVE AND BRING OUT ARGUMENT.
002476: 00,3435           00006                           EXTEND                                         #  TAKE DP QUOTIENT WITH X1.
002477: 00,3436           10130                           DV       BUF
002478: 00,3437           54131                           TS       BUF        +1                         #  SAVE MAJOR PART OF QUOTIENT.
002479: 00,3440           35035                           CAF      ZERO                                  #  FORM MINOR PART OF QUOTIENT USING
002480: 00,3441           56001                           XCH      L                                     #  (REMAINDER,0).
002481: 00,3442           00006                           EXTEND
002482: 00,3443           10130                           DV       BUF
002483: 00,3444           54001                           TS       L                                     #  IN PREPARATION FOR DAS.
002484: 00,3445           30131                           CA       BUF        +1
002485: 00,3446           20155                           DAS      MPAC                                  #  X2 = X1/2 + (MPAC/2)X1
002486:
002487: 00,3447           00006                           EXTEND                                         #  OVERFLOWS IF ARG. NEAR POSMAX.
002488: 00,3450           13454                           BZF      TCQBNK00
002489: 00,3451           35013                           CAF      POSMAX
002490: 00,3452           54154        FIXROOT            TS       MPAC
002491: 00,3453           54155                           TS       MPAC       +1
002492: 00,3454           00002        TCQBNK00           TC       Q                                     #  RETURN TO CALLER TO UNNORMALIZE, ETC.
002493:
002494: 00,3455           65017        SRTEST             AD       QUARTER                               #  ARGUMENT WAS LESS THAN .5, SEE IF LESS
002495: 00,3456           00006                           EXTEND                                         #  THAN .25.
002496: 00,3457           63501                           BZMF     SQRTNORM                              #  IF SO, BEGIN NORMALIZATION.
002497:
002498: 00,3460           52155                           DXCH     MPAC                                  #  IF BETWEEN .5 AND .25, SHIFT RIGHT 1 AND
002499: 00,3461           22021                           LXCH     SR                                    #  START AT ARGLO.
002500: 00,3462           00006                           EXTEND
002501: 00,3463           75016                           MP       HALF
002502: 00,3464           52155                           DXCH     MPAC
002503: 00,3465           56021                           XCH      SR
002504: 00,3466           26155                           ADS      MPAC       +1                         #  NO OVERFLOW.
002505:
002506: 00,3467           33007        ARGLO              CAF      SLOPELO                               #  (NORMALIZED) ARGUMENT BETWEEN .125 AND
002507: 00,3470           00006                           EXTEND                                         #  .25
002508: 00,3471           70154                           MP       MPAC
002509: 00,3472           62270                           AD       BIASLO
002510: 00,3473           13422                           TCF      ARGHI      +4                         #  BEGIN SQUARE ROOT.
002511:
002512: 00,3474           00006        SQRTNM2            EXTEND                                         #  SHIFT LEFT 2 AND INCREMENT RIGHT SHIFT
002513: 00,3475           30156                           DCA      MPAC       +1                         #  COUNT (FOR TERMINAL UNNORMALIZATION).
002514: 00,3476           20156                           DAS      MPAC       +1
002515: 00,3477           60154                           AD       MPAC
002516: 00,3500           26154                           ADS      MPAC                                  #  (NO OVERFLOW).
002517:
002518: 00,3501           24135        SQRTNORM           INCR     MPTEMP                                #  FIRST TIME THROUGH, JUST SHIFT LEFT 1
002519: 00,3502           00006                           EXTEND                                         #  (PUTS IN EFFECTIVE RIGHT SHIFT SINCE
002520: 00,3503           30156                           DCA      MPAC       +1                         #  WE WANT MPAC/2).
002521: 00,3504           20156                           DAS      MPAC       +1
002522: 00,3505           60154                           AD       MPAC
002523: 00,3506           26154                           ADS      MPAC                                  #  (AGAIN NO OVERFLOW).
002524: 00,3507           60000                           DOUBLE
002525: 00,3510           54022                           TS       CYL
002526:
002527: 00,3511           10022        NORMTEST           CCS      CYL                                   #  SEE IF ARGUMENT NOW NORMALIZED AT
002528: 00,3512           10022                           CCS      CYL                                   #  GREATER THAN .125.
002529: 00,3513           13474                           TCF      SQRTNM2                               #  NO - SHIFT LEFT 2 MORE AND TRY AGAIN.
002530: 00,3514           13416                           TCF      ARGHI                                 #  YES - NOW BETWEEN .5 AND .25.
002531: 00,3515           13467                           TCF      ARGLO                                 #  ARGUMENT NOW BETWEEN .25 AND .125.
002532:
002533:                                                                                                  #  TRIGONOMETRIC FUNCTION PACKAGE.
002534:                                                                                                  #        THE FOLLOWING TRIGONOMETRIC FUNCTIONS ARE AVAILABLE AS INTERPRETIVE OPERATIONS:
002535:                                                                                                  #        1.      SIN             COMPUTES (1/2)SINE(2 PI MPAC).
002536:                                                                                                  #        2.      COS             COMPUTES (1/2)COSINE(2 PI MPAC).
002537:                                                                                                  #        3.      ASIN            COMPUTES (1/2PI)ARCSINE(2 MPAC).
002538:                                                                                                  #        4.      ACOS            COMPUTES (1/2PI)ARCCOSINE(2 MPAC).
002539:
002540:                                                                                                  #  SIN-ASIN AND COS-ACOS ARE MUTUALLY INVERSE, IE SIN(ASIN(X)) = X.
002541:
002542: 00,3516           06672        COSINE             TC       BRANCH                                #  FINDS COSINE USING THE IDENTITY
002543: 00,3517           13522                           TCF      +3                                    #  COS(X) = SIN(PI/2 - ABS(X)).
002544: 00,3520           13525                           TCF      PRESINE
002545: 00,3521           13525                           TCF      PRESINE
002546:
002547: 00,3522           00006                 +3        EXTEND
002548: 00,3523           40155                           DCS      MPAC
002549: 00,3524           52155                           DXCH     MPAC
002550:
002551: 00,3525           35017        PRESINE            CAF      QUARTER                               #  PI/2 SCALED.
002552: 00,3526           26154                           ADS      MPAC
002553:
002554: 00,3527           52155        SINE               DXCH     MPAC                                  #  DOUBLE ARGUMENT.
002555: 00,3530           20001                           DDOUBL
002556: 00,3531           54000                           OVSK                                           #  SEE IF OVERFLOW PRESENT.
002557: 00,3532           13535                           TCF      +3                                    #  IF NOT, ARGUMENT OK AS IS.
002558:
002559: 00,3533           00006                           EXTEND                                         #  IF SO, WE LOST (OR GAINED) PI, SO
002560: 00,3534           40001                           DCOM                                           #  COMPLEMENT MPAC USING THE IDENTITY
002561:                                                                                                  #  SIN(X-(+)PI) = SIN(-X).
002562: 00,3535           52155                 +3        DXCH     MPAC
002563: 00,3536           30154                           CA       MPAC                                  #  SEE IF ARGUMENT GREATER THAN .5 IN
002564: 00,3537           60000                           DOUBLE                                         #  MAGNITUDE.  IF SO, REDUCE IT TO LESS THAN
002565: 00,3540           54001                           TS       L                                     #  .5 (+-PI/2 SCALED) AS FOLLOWS:
002566: 00,3541           13552                           TCF      SN1
002567:
002568: 00,3542           50000                           INDEX    A                                     #  IF POSITIVE, FORM PI - X, IF NEGATIVE
002569: 00,3543           35015                           CAF      NEG1/2     +1                         #  USE -PI -X.
002570: 00,3544           60000                           DOUBLE
002571: 00,3545           00006                           EXTEND
002572: 00,3546           60154                           SU       MPAC                                  #  GUARANTEED NO OVERFLOW.
002573: 00,3547           54154                           TS       MPAC
002574: 00,3550           40155                           CS       MPAC       +1
002575: 00,3551           54155                           TS       MPAC       +1
002576:
002577: 00,3552           00006        SN1                EXTEND                                         #  SET UP TO EVALUATE HASTINGS POLYNOMIAL
002578: 00,3553           30155                           DCA      MPAC
002579: 00,3554           52134                           DXCH     BUF2
002580: 00,3555           03300                           TC       DSQSUB                                #  SQUARE MPAC.
002581:
002582: 00,3556           07171                           TC       POLY                                  #  EVALUATE FOURTH ORDER POLYNOMIAL.
002583: 00,3557           00003                           DEC      3          B-14
002584: 00,3560           14441 37325                     2DEC     +.3926990796
002585: 00,3562           53250 60764                     2DEC     -.6459637111
002586: 00,3564           12146 21276                     2DEC     +.318758717
002587: 00,3566           75466 71471                     2DEC     -.074780249
002588: 00,3570           00236 32757                     2DEC     +.009694988
002589:
002590: 00,3572           32470                           CAF      LBUF2                                 #  MULTIPLY BY ARGUMENT AND SHIFT LEFT 2.
002591: 00,3573           07055                           TC       DMPSUB     -1
002592:
002593: 00,3574           00006                           EXTEND
002594: 00,3575           30156                           DCA      MPAC       +1
002595: 00,3576           20156                           DAS      MPAC       +1
002596: 00,3577           60154                           AD       MPAC
002597: 00,3600           26154                           ADS      MPAC                                  #  NEITHER SHIFT OVERFLOWS.
002598: 00,3601           00006                           EXTEND
002599: 00,3602           30156                           DCA      MPAC       +1
002600: 00,3603           20156                           DAS      MPAC       +1
002601: 00,3604           60154                           AD       MPAC
002602: 00,3605           26154                           ADS      MPAC
002603: 00,3606           16030                           TCF      DANZIG
002604:
002605:                                                                                                  #  ARCSIN/ARCCOS ROUTINE.
002606:
002607: 00,3607           33630        ARCSIN             CAF      LASINEX                               #  COMPUTE ARCSIN BY USING THE IDENTITY
002608: 00,3610           13612                           TCF      +2                                    #  ARCSIN(X) = PI/2 - ARCCOS(X).
002609:
002610: 00,3611           33712        ARCCOS             CAF      LDANZIG                               #  (EXITS IMMEDIATELY).
002611: 00,3612           54136                           TS       ESCAPE
002612: 00,3613           06672                           TC       BRANCH                                #  TEST SIGN OF INPUT.
002613: 00,3614           13624                           TCF      ACOSST                                #  START IMMEDIATELY IF POSITIVE.
002614: 00,3615           13726                           TCF      ACOSZERO                              #  ARCCOS(0) = PI/2 = .25.
002615: 00,3616           00006                           EXTEND                                         #  IF NEGATIVE, USE THE IDENTITY
002616: 00,3617           40155                           DCS      MPAC                                  #  ARCCOS(X) = PI - ARCCOS(-X), FORCING
002617: 00,3620           52155                           DXCH     MPAC                                  #  ARGUMENT POSITIVE.
002618: 00,3621           33731                           CAF      TCSUBTR                               #  SET EXIT TO DO ABOVE BEFORE
002619: 00,3622           56136                           XCH      ESCAPE                                #  ARCSIN/ARCCOS CONSIDERATIONS.
002620: 00,3623           54137                           TS       ESCAPE2
002621:
002622: 00,3624           45016        ACOSST             CS       HALF                                  #  TEST MAGNITUDE OF INPUT.
002623: 00,3625           60154                           AD       MPAC
002624: 00,3626           10000                           CCS      A
002625: 00,3627           13720                           TCF      ACOSOVF                               #  THIS IS PROBABLY AN OVERFLOW CASE.
002626:
002627: 00,3630           13706        LASINEX            TCF      ASINEX
002628:
002629: 00,3631           13641                           TCF      ACOSST2                               #  NO OVERFLOW - PROCEED.
002630:
002631: 00,3632           10155                           CCS      MPAC       +1                         #  IF MAJOR PART IS .5, CALL ANSWER 0
002632: 00,3633           35035                           CAF      ZERO                                  #  UNLESS MINOR PART NEGATIVE.
002633: 00,3634           13636                           TCF      ACOS=0
002634:
002635: 00,3635           13641                           TCF      ACOSST2
002636:
002637: 00,3636           54155        ACOS=0             TS       MPAC       +1
002638: 00,3637           54154                           TS       MPAC
002639: 00,3640           00136                           TC       ESCAPE
002640:
002641: 00,3641           00006        ACOSST2            EXTEND                                         #  NOW THAT ARGUMENT IS IN PROPER RANGE,
002642: 00,3642           40155                           DCS      MPAC                                  #  BEGIN COMPUTATION.  USE HASTINGS
002643: 00,3643           65016                           AD       HALF                                  #  APPROXIMATION ARCCOS(X) = SQRT(1-X)P(X)
002644: 00,3644           52155                           DXCH     MPAC                                  #  IN A SCALED VERSION WHERE P(X) IS A
002645: 00,3645           52134                           DXCH     BUF2                                  #  SEVENTH ORDER POLYNOMIAL.
002646:
002647: 00,3646           03343                           TC       SQRTSUB                               #  RETURNS WITH NORMALIZED SQUARE ROOT.
002648:
002649: 00,3647           10135                           CCS      MPTEMP                                #  SEE IF UN-NORMALIZATION REQUIRED.
002650: 00,3650           13713                           TCF      ACOSSHR                               #  IF SO.
002651:
002652: 00,3651           52155        ACOS3              DXCH     MPAC                                  #  SET UP FOR POLYNOMIAL EVALUATION.
002653: 00,3652           52134                           DXCH     BUF2
002654: 00,3653           52155                           DXCH     MPAC
002655:
002656: 00,3654           07171                           TC       POLY
002657: 00,3655           00006                           DEC      6          B-14
002658: 00,3656           13240 23630                     2DEC     +.353553385                            #  COEFFICIENTS ARE C 2(+I)/PISQRT(2) WHERE
002659: 00,3660           74721 47775                     2DEC*    -.0483017006 B+1*                       #  I
002660: 00,3662           02440 20237                     2DEC*    +.0200273085 B+2*                       #  WHERE C STANDS FOR ORIGINAL COEFFS.
002661: 00,3664           75067 70742                     2DEC*    -.0112931863 B+3*
002662: 00,3666           03436 26756                     2DEC*    +.00695311612 B+4*
002663: 00,3670           74037 57640                     2DEC*    -.00384617957 B+5*
002664: 00,3672           03046 07143                     2DEC*    +.001501297736 B+6*
002665: 00,3674           76654 42244                     2DEC*    -.000284160334 B+7*
002666:
002667: 00,3676           32470                           CAF      LBUF2                                 #  DO FINAL MULTIPLY AND GO TO ANY
002668: 00,3677           07055                           TC       DMPSUB     -1                         #  EPILOGUE SEQUENCES.
002669: 00,3700           00136                           TC       ESCAPE
002670:
002671: 00,3701           00006        SUBTR              EXTEND                                         #  EPILOGUE FOR NEGATIVE INPUTS TO ARCCOS.
002672: 00,3702           40155                           DCS      MPAC
002673: 00,3703           65016                           AD       HALF                                  #  FORMS PI - ARCCOS(-X) = ARCCOS(X).
002674: 00,3704           52155                           DXCH     MPAC
002675: 00,3705           00137                           TC       ESCAPE2                               #  GO TO POSSIBLE ARCSIN EPILOGUE.
002676:
002677: 00,3706           00006        ASINEX             EXTEND
002678: 00,3707           40155                           DCS      MPAC                                  #  ARCSIN EPILOGUE - GET ARCSIN(X)
002679: 00,3710           65017                           AD       QUARTER                               #  = PI/2 - ARCCOS(X).
002680: 00,3711           52155                           DXCH     MPAC
002681: 00,3712           16030        LDANZIG            TCF      DANZIG
002682:
002683: 00,3713           50000        ACOSSHR            INDEX    A                                     #  THE SHIFT RIGHT IS LESS THAN 14 SINCE
002684: 00,3714           35016                           CAF      BIT14                                 #  THE INPUT WAS NON-ZERO DP.
002685: 00,3715           54135                           TS       MPTEMP
002686: 00,3716           02073                           TC       VSHRRND                               #  DP SHIFT RIGHT AND ROUND.
002687: 00,3717           13651                           TCF      ACOS3                                 #  PROCEED.
002688:
002689: 00,3720           00006        ACOSOVF            EXTEND                                         #  IF MAJOR PART WAS ONLY 1 MORE THAN .5,
002690: 00,3721           13636                           BZF      ACOS=0                                #  CALL ANSWER ZERO.
002691:
002692: 00,3722           05664        ACOSABRT           TC       ALARM                                 #  IF OVERFLOW, CALL ANSWER ZERO BUT
002693: 00,3723           01301                           OCT      1301                                  #  SOUND AN ALARM.
002694:
002695: 00,3724           35035                           CAF      ZERO
002696: 00,3725           13636                           TCF      ACOS=0
002697:
002698: 00,3726           35017        ACOSZERO           CAF      QUARTER                               #  ACOS(0) = PI/2.
002699: 00,3727           13637                           TCF      ACOS=0     +1                         #  SET MPAC AND EXIT VIA ESCAPE.
002700:
002701: 00,3730           77763        NEG12              DEC      -12        B-14
002702: 00,3731           13701        TCSUBTR            TCF      SUBTR
002703:
002704:                                                                                                  #  THE FOLLOWING INSTRUCTIONS ARE AVAILABLE FOR SETTING, MODIFYING, AND BRANCHING ON INDEX REGISTERS:
002705:
002706:                                                                                                  #        1.      AXT     ADDRESS TO INDEX TRUE.
002707:                                                                                                  #        1.      AXC     ADDRESS TO INDEX COMPLEMENTED.
002708:                                                                                                  #        3.      LXA     LOAD INDEX FROM ERASABLE.
002709:                                                                                                  #        4.      LXC     LOAD INDEX COMPLEMENTED FROM ERASABLE.
002710:                                                                                                  #        5.      SXA     STORE INDEX IN ERASABLE.
002711:                                                                                                  #        6.      XCHX    EXCHANGE INDEX REIGSTER WITH ERASABLE.
002712:
002713:                                                                                                  #        7.      INCR    INCREMENT INDEX REGISTER.
002714:                                                                                                  #        8.      XAD     ERASABLE ADD TO INDEX REGISTER.
002715:                                                                                                  #        9.      XSU     ERASABLE SUBTRACT FROM INDEX REGISTER.
002716:                                                                                                  #        10.     TIX     BRANCH ON INDEX REGISTER AND DECREMENT.
002717:
002718: 01,2371                                           BANK     01
002719:
002720: 01,2371                                           COUNT    01/INTER
002721:
002722: 01,2371           02466        AXT                TC       TAGSUB                                #  SELECT APPROPRIATE INDEX REGISTER.
002723: 01,2372           30117                           CA       POLISH
002724: 01,2373           50130        XSTORE             INDEX    INDEXLOC                              #  CONTAINS C(FIXLOC) OR C(FIXLOC)+1.
002725: 01,2374           54046                           TS       X1
002726: 01,2375           16030                           TCF      DANZIG
002727:
002728: 01,2376           02466        AXC                TC       TAGSUB
002729: 01,2377           40117                           CS       POLISH
002730: 01,2400           02373                           TC       XSTORE
002731:
002732: 01,2401           02454        LXA                TC       15ADRERS                              #  LOAD INDEX REGISTER FROM ERASABLE.
002733: 01,2402           50117                           INDEX    POLISH
002734: 01,2403           30000                           CA       0
002735: 01,2404           12373                           TCF      XSTORE
002736:
002737: 01,2405           02454        LXC                TC       15ADRERS                              #  LOAD NDX REG FROM ERASABLE COMPLEMENTED.
002738: 01,2406           50117                           INDEX    POLISH
002739: 01,2407           40000                           CS       0
002740: 01,2410           12373                           TCF      XSTORE
002741:
002742: 01,2411           02454        SXA                TC       15ADRERS                              #  STORE INDEX REGISTER IN ERASABLE.
002743: 01,2412           50130                           INDEX    INDEXLOC
002744: 01,2413           30046                           CA       X1
002745: 01,2414           50117        MSTORE1            INDEX    POLISH
002746: 01,2415           54000                           TS       0
002747: 01,2416           16030                           TCF      DANZIG
002748:
002749: 01,2417           02454        XCHX               TC       15ADRERS                              #  EXCHANGE INDEX REGISTER WITH ERASABLE.
002750: 01,2420           50117                           INDEX    POLISH
002751: 01,2421           30000                           CA       0
002752: 01,2422           50130                           INDEX    INDEXLOC
002753: 01,2423           56046                           XCH      X1
002754: 01,2424           12414                           TCF      MSTORE1
002755:
002756: 01,2425           02454        XAD                TC       15ADRERS                              #  ADD ERASABLE TO INDEX REGISTER.
002757: 01,2426           50117                           INDEX    POLISH
002758: 01,2427           30000                           CA       0
002759: 01,2430           50130        XAD2               INDEX    INDEXLOC
002760: 01,2431           26046                           ADS      X1                                    #  IGNORING OVERFLOWS.
002761: 01,2432           16030                           TCF      DANZIG
002762:
002763: 01,2433           02466        INCR               TC       TAGSUB                                #  INCREMENT INDEX REGISTER.
002764: 01,2434           30117                           CA       POLISH
002765: 01,2435           12430                           TCF      XAD2
002766:
002767: 01,2436           02454        XSU                TC       15ADRERS                              #  SUBTRACT ERASABLE FROM INDEX REGISTER.
002768: 01,2437           50117                           INDEX    POLISH
002769: 01,2440           40000                           CS       0
002770: 01,2441           12430                           TCF      XAD2
002771:
002772: 01,2442           02466        TIX                TC       TAGSUB                                #  BRANCH AND DECREMENT ON INDEX.
002773: 01,2443           50130                           INDEX    INDEXLOC
002774: 01,2444           40050                           CS       S1
002775: 01,2445           50130                           INDEX    INDEXLOC
002776: 01,2446           60046                           AD       X1
002777: 01,2447           00006                           EXTEND                                         #  NO OPERATION IF DECREMENTED INDEX IS
002778: 01,2450           66030                           BZMF     DANZIG                                #  NEGATIVE OR ZERO.
002779:
002780: 01,2451           50130        DOTIXBR            INDEX    INDEXLOC
002781: 01,2452           56046                           XCH      X1                                    #  IGNORING OVERFLOWS.
002782:
002783: 01,2453           16615                           TCF      GOTO                                  #  DO THE BRANCH USING THE CADR IN POLISH.
002784:
002785:                                                                                                  #  SUBROUTINE TO CONVERT AN ERASABLE ADDRESS (11 BITS) TO AN EBANK SETTING AND SUBADDRESS.
002786:
002787: 01,2454           40117        15ADRERS           CS       POLISH
002788: 01,2455           65050                           AD       DEC45
002789: 01,2456           10000                           CCS      A                                     #  DOES THE ADDRESS POINT TO THE WORK AREA?
002790: 01,2457           30120                           CA       FIXLOC                                #  YES.  ADD FIXLOC.  EBANK OK AS IS.
002791: 01,2460           12465                           TCF      +5
002792:
002793: 01,2461           35065                           CA       OCT1400                               #  NO. SET EBANK & MAKE UP SUBADDRESS.
002794: 01,2462           56117                           XCH      POLISH
002795: 01,2463           54003                           TS       EBANK
002796: 01,2464           74373                           MASK     LOW8
002797: 01,2465           26117                 +5        ADS      POLISH                                #  FALL INTO TAGSUB, AND RETURN VIA Q.
002798:
002799:                                                                                                  #  SUBROUTINE WHICH SETS THE ADDRESS OF THE SPECIFIED INDEX IN INDEXLOC.  (ACTUALLY, THE ADDRESS -38D.)
002800:
002801: 01,2466           30120        TAGSUB             CA       FIXLOC
002802: 01,2467           54130                           TS       INDEXLOC
002803:
002804: 01,2470           10020                           CCS      CYR                                   #  BIT 15 SPECIFIES INDEX.
002805: 01,2471           24130                           INCR     INDEXLOC                              #  0 MEANS USE X2.
002806: 01,2472           00002                           TC       Q
002807: 01,2473           00002                           TC       Q                                     #  1 FOR X1.
002808:
002809:                                                                                                  #  MISCELLANEOUS OPERATION CODES WITH DIRECT ADDRESSES.  INCLUDED HERE ARE:
002810:                                                                                                  #        1.      ITA     STORE QPRET (RETURN ADDRESS) IN ERASABLE.
002811:                                                                                                  #        2.      CALL    CALL A SUBROUTINE, LEAVING RETURN IN QPRET.
002812:                                                                                                  #        3.      RTB     RETURN TO BASIC LANGUAGE AT THE GIVEN ADDRESS.
002813:                                                                                                  #        4.      BHIZ    BRANCH IF THE HIGHORDER OF MPAC IS ZERO (SINGLE PRECISION).
002814:                                                                                                  #        5.      BOV     BRANCH ON OVERFLOW.
002815:                                                                                                  #        6.      GOTO    SIMPLE SEQUENCE CHANGE.
002816:
002817: 01,2474           10020        RTB/BHIZ           CCS      CYR
002818: 01,2475           30117        RTB                CA       POLISH
002819: 01,2476           04701                           TC       SWCALL     -1                         #  SO A "TC Q" FROM ROUTINE LEADS TO DANZIG
002820:
002821: 01,2477           10154        BHIZ               CCS      MPAC
002822: 01,2500           16030                           TCF      DANZIG
002823: 01,2501           16615                           TCF      GOTO
002824: 01,2502           16030                           TCF      DANZIG
002825: 01,2503           16615                           TCF      GOTO
002826:
002827: 01,2504           10121        BOV(B)             CCS      OVFIND                                #  BRANCH ON OVERFLOW TO BASIC OR INTERP.
002828: 01,2505           12507                           TCF      +2
002829: 01,2506           16030                           TCF      DANZIG
002830: 01,2507           54121                           TS       OVFIND
002831: 01,2510           10020                           CCS      CYR
002832: 01,2511           12475                           TCF      RTB                                   #  IF BASIC.
002833: 01,2512           00360        B5TOBB             OCT      360
002834: 01,2513           16615                           TCF      GOTO
002835:
002836: 01,2514           10020        BZE/GOTO           CCS      CYR                                   #  SEE WHICH OP-CODE IS DESIRED.
002837: 01,2515           06672                           TC       BRANCH                                #  DO BZE.
002838: 01,2516           16030                           TCF      DANZIG
002839: 01,2517           16615                           TCF      GOTO                                  #  DO GOTO.
002840: 01,2520           16030                           TCF      DANZIG
002841:
002842: 01,2521           10020        BPL/BMN            CCS      CYR
002843: 01,2522           12530                           TCF      BPL
002844: 01,2523           12000        5B10               DEC      5          B+10                       #  SHIFTS OP CODE IN SWITCH INSTRUCTION ADR
002845:
002846: 01,2524           06672                           TC       BRANCH                                #  DO BMN.
002847: 01,2525           16030                           TCF      DANZIG
002848: 01,2526           16030                           TCF      DANZIG
002849: 01,2527           16615                           TCF      GOTO                                  #  ONLY IF NNZ.
002850:
002851: 01,2530           06672        BPL                TC       BRANCH
002852: 01,2531           16615                           TCF      GOTO                                  #  IF POSITIVE OR ZERO.
002853: 01,2532           16615                           TCF      GOTO
002854: 01,2533           16030                           TCF      DANZIG
002855:
002856: 01,2534           10020        CALL/ITA           CCS      CYR
002857: 01,2535           16607                           TCF      CALL
002858:
002859: 01,2536           05753                           TC       CCSHOLE
002860: 01,2537           02454                           TC       15ADRERS                              #  STORE QPRET.  (TAGSUB AFTER 15ADRERS IS
002861: 01,2540           50120                           INDEX    FIXLOC                                #  SLOW IN THIS CASE, BUT SAVES STORAGE.)
002862: 01,2541           30052                           CA       QPRET
002863: 01,2542           12414                           TCF      MSTORE1
002864:
002865:                                                                                                  #  THE FOLLOWING OPERATIONS ARE AVAILABLE FOR ALTERING AND TESTING INTERPRETIVE SWITCHES:
002866:                                                                                                  #        00      BONSET          SET A SWITCH AND DO A GOTO IF IT WAS ON.
002867:                                                                                                  #        01      SETGO           SET A SWITCH AND DO A GOTO.
002868:                                                                                                  #        02      BOFSET          SET A SWITCH AND DOA GOTO IF IT WAS OFF
002869:                                                                                                  #        03      SET             SET A SWITCH.
002870:                                                                                                  #        04      BONINV          INVERT A SWITCH AND BRANCH IF IT WAS ON.
002871:                                                                                                  #        05      INVGO           INVERT A SWITCH AND DO A GOTO.
002872:                                                                                                  #        06      BOFINV          INVERT A SWITCH AND BRANCH IF IT WAS OFF
002873:                                                                                                  #        07      INVERT          INVERT A SWITCH.
002874:                                                                                                  #        10      BONCLR          CLEAR A SWITCH AND BRANCH IF IT WAS ON.
002875:                                                                                                  #        11      CLRGO           CLEAR A SWITCH AND DO A GOTO.
002876:                                                                                                  #        12      BOFCLR          CLEAR A SWITCH AND BRANCH IF IT WAS OFF.
002877:                                                                                                  #        13      CLEAR           CLEAR A SWITCH.
002878:                                                                                                  #        14      BON             BRANCH IF A SWITCH WAS ON.
002879:                                                                                                  #        16      BOFF            BRANCH IF A SWITCH WAS OFF.
002880:                                                                                                  #  THE ADDRESS SUPPLIED WITH THE SWITCH INSTRUCTION IS INTERPRETED AS FOLLOWS:
002881:                                                                                                  #        BITS 1-4        SWITCH BIT NUMBER (1-15).
002882:                                                                                                  #        BITS 5-8        SWITCH OPERATION NUMBER.
002883:                                                                                                  #        BITS 9-         SWITCH WORD NUMBER (UP TO 64 SWITCH WORDS).
002884:                                                                                                  #  THE ADDRESS ITSELF IS MADE UP BY THE YUL SYSTEM ASSEMBLER.  THE BRANCH INSTRUCTIONS REQUIRE TWO
002885:                                                                                                  #  ADDRESSES, THE SECOND TAKEN AS THE DIRECT (OR INDIRECT IF IN ERASABLE) ADDRESS OF THE BRANCH.
002886:
002887: 01,2543           35042        SWITCHES           CAF      LOW4                                  #  LEAVE THE SWITCH BIT IN SWBIT.
002888: 01,2544           70117                           MASK     POLISH
002889: 01,2545           50000                           INDEX    A
002890: 01,2546           35015                           CAF      BIT15                                 #  (NUMBER FROM LEFT TO RIGHT.)
002891: 01,2547           54131                           TS       SWBIT
002892:
002893: 01,2550           35025                           CAF      BIT7                                  #  LEAVE THE SWITCH NUMBER IN SWWORD.
002894: 01,2551           00006                           EXTEND
002895: 01,2552           70117                           MP       POLISH
002896: 01,2553           54130                           TS       SWWORD
002897:
002898: 01,2554           00004                           INHINT                                         #  DURING SWITCH CHANGE SO RUPT CAN USE TOO
002899: 01,2555           50000                           INDEX    A                                     #  LEAVE THE SWITCH WORD ITSELF IN L.
002900: 01,2556           30074                           CA       STATE
002901: 01,2557           54002                           TS       Q                                     #  Q WILL BE USED AS A CHANNEL.
002902: 01,2560           35021                           CAF      BIT11
002903: 01,2561           00006                           EXTEND                                         #  DISPATCH SWITCH BIT OPERATION AS IN BITS
002904: 01,2562           70117                           MP       POLISH                                #  7-8 OF POLISH.
002905: 01,2563           72623                           MASK     B3TOB4                                #  GETS 4X2-BIT CODE.
002906: 01,2564           50000                           INDEX    A
002907: 01,2565           12566                           TCF      +1
002908:
002909: 01,2566           30131                 +1        CA       SWBIT                                 #  00 - SET SWITCH IN QUESTION.
002910: 01,2567           00006                           EXTEND
002911: 01,2570           04002                           ROR      QCHAN
002912: 01,2571           12600                           TCF      SWSTORE
002913:
002914: 01,2572           30131                 +5        CA       SWBIT                                 #  01 - INVERT SWITCH.
002915: 01,2573           00006                           EXTEND
002916: 01,2574           06002                           RXOR     QCHAN
002917: 01,2575           12600                           TCF      SWSTORE
002918:
002919: 01,2576           40131                 +9D       CS       SWBIT                                 #  10 - CLEAR.
002920: 01,2577           70002                           MASK     Q
002921: 01,2600           50130        SWSTORE            INDEX    SWWORD
002922: 01,2601           54074                           TS       STATE                                 #  NEW SWITCH WORD.
002923:
002924: 01,2602           00003                 +13D      RELINT                                         #  11 - NOOP.
002925: 01,2603           35017                           CAF      BIT13
002926: 01,2604           00006                           EXTEND                                         #  DISPATCH SEQUCE CHANGING OR BRANCHING
002927: 01,2605           70117                           MP       POLISH                                #  CODE.
002928: 01,2606           72623                           MASK     B3TOB4
002929: 01,2607           50000                           INDEX    A
002930: 01,2610           12611                           TCF      +1                                    #  ORIGINALLY STORED IN BITS 5-6.
002931:
002932: 01,2611           40002                 +1        CS       Q                                     #  00 - BRANCH IF ON.
002933: 01,2612           70131        TEST               MASK     SWBIT
002934: 01,2613           10000                           CCS      A
002935: 01,2614           12624                           TCF      SWSKIP
002936:
002937: 01,2615           16664                 +5        TCF      SWBRANCH                              #  01 - GO TO.
002938:
002939: 01,2616           12624                           TCF      SWSKIP                                #  HERE ONLY ON BIT 15.
002940:
002941: 01,2617           05753                           TC       CCSHOLE
002942: 01,2620           05753                           TC       CCSHOLE
002943:
002944: 01,2621           30002                 +9D       CA       Q                                     #  10 - BRANCH IF OFF.
002945: 01,2622           12612                           TCF      TEST
002946:
002947: 01,2623           00014        B3TOB4             OCT      0014
002948: 01,2624           24164        SWSKIP             INCR     LOC
002949:
002950: 01,2625  01,2543               SW/                EQUALS   SWITCHES
002951:
002952: 01,2625           16030                 +13D      TCF      DANZIG                                #  11 - NOOP.

End of include-file INTERPRETER.agc.  Parent file is MAIN.agc


