
Source Code


000002:                                                                                                  ## Copyright:   Public domain.
000003:                                                                                                  ## Filename:    INTERPRETIVE_CONSTANTS.agc
000004:                                                                                                  ## Purpose:     A section of Comanche revision 072.
000005:                                                                                                  ##              It is part of the reconstructed source code for the first
000006:                                                                                                  ##              release of the software for the Command Module's (CM) Apollo
000007:                                                                                                  ##              Guidance Computer (AGC) for Apollo 13. No original listings
000008:                                                                                                  ##              of this program are available; instead, this file was recreated
000009:                                                                                                  ##              from a printout of Comanche 055, binary dumps of a set of
000010:                                                                                                  ##              Comanche 067 rope modules, and changelogs between Comanche 067
000011:                                                                                                  ##              and 072. It has been adapted such that the resulting bugger words
000012:                                                                                                  ##              exactly match those specified for Comanche 072 in NASA drawing
000013:                                                                                                  ##              2021153G, which gives relatively high confidence that the
000014:                                                                                                  ##              reconstruction is correct.
000015:                                                                                                  ## Assembler:   yaYUL
000016:                                                                                                  ## Contact:     Ron Burkey <info@sandroid.org>.
000017:                                                                                                  ## Website:     www.ibiblio.org/apollo/index.html
000018:                                                                                                  ## Mod history: 2024-05-13 MAS  Created from Comanche 067.
000019:
000020: 26,2000                                           SETLOC   INTPRET1
000021: 26,2000                                           BANK
000022:
000023: 26,3323                                           COUNT    23/ICONS
000024:
000025: 26,3323           10000 00000  DP1/4TH            2DEC     .25
000026:
000027: 26,3325           00000 00000  UNITZ              2DEC     0          B-28
000028:
000029: 26,3327           00000 00000  UNITY              2DEC     0          B-28
000030:
000031: 26,3331           20000 00000  UNITX              2DEC     .5
000032:
000033: 26,3333           00000 00000  ZEROVECS           2DEC     0          B-28
000034:
000035: 26,3335           00000 00000                     2DEC     0          B-28
000036:
000037: 26,3337           00000 00000                     2DEC     0          B-28
000038:
000039: 26,3341  26,3331               DPHALF             =        UNITX
000040: 26,3341           37777        DPPOSMAX           OCT      37777
000041: 26,3342           37777                           OCT      37777
000042:
000043:                                                                                                  #  INTERPRETIVE CONSTANTS IN THE OTHER HALF-MEMORY
000044:
000045: 04,2000                                           SETLOC   INTPRET2
000046: 04,2000                                           BANK
000047:
000048: 04,3557                                           COUNT    14/ICONS
000049:
000050: 04,3557           00000 00000  ZUNIT              2DEC     0          B-28
000051:
000052: 04,3561           00000 00000  YUNIT              2DEC     0          B-28
000053:
000054: 04,3563           20000 00000  XUNIT              2DEC     .5
000055:
000056: 04,3565           00000 00000  ZEROVEC            2DEC     0          B-28
000057:
000058: 04,3567           00000 00000                     2DEC     0          B-28
000059:
000060: 04,3571           00000 00000                     2DEC     0          B-28
000061:
000062: 04,3573           77777                           OCT      77777                                 #  -0, -6, -12 MUST REMAIN IN THIS ORDER
000063: 04,3574           77771        DEC-6              DEC      -6         B-14
000064: 04,3575           77763        DEC-12             DEC      -12        B-14
000065: 04,3576           37777 37777  LODPMAX            2OCT     3777737777                            #  THESE TWO CONSTANTS MUST REMAIN
000066:
000067: 04,3600           37777 37777  LODPMAX1           2OCT     3777737777                            #  ADJACENT AND THE SAME FOR INTEGRATION
000068:
000069: 04,3602  04,3565               ZERODP             =        ZEROVEC
000070: 04,3602  04,3563               HALFDP             =        XUNIT
000071:
000072:
000073:
000074:

End of include-file INTERPRETIVE_CONSTANTS.agc.  Parent file is MAIN.agc


