
Source Code


000002:                                                                                                  ## Copyright:   Public domain.
000003:                                                                                                  ## Filename:    INTER-BANK_COMMUNICATION.agc
000004:                                                                                                  ## Purpose:     A section of Comanche revision 072.
000005:                                                                                                  ##              It is part of the reconstructed source code for the first
000006:                                                                                                  ##              release of the software for the Command Module's (CM) Apollo
000007:                                                                                                  ##              Guidance Computer (AGC) for Apollo 13. No original listings
000008:                                                                                                  ##              of this program are available; instead, this file was recreated
000009:                                                                                                  ##              from a printout of Comanche 055, binary dumps of a set of
000010:                                                                                                  ##              Comanche 067 rope modules, and changelogs between Comanche 067
000011:                                                                                                  ##              and 072. It has been adapted such that the resulting bugger words
000012:                                                                                                  ##              exactly match those specified for Comanche 072 in NASA drawing
000013:                                                                                                  ##              2021153G, which gives relatively high confidence that the
000014:                                                                                                  ##              reconstruction is correct.
000015:                                                                                                  ## Assembler:   yaYUL
000016:                                                                                                  ## Contact:     Ron Burkey <info@sandroid.org>.
000017:                                                                                                  ## Website:     www.ibiblio.org/apollo/index.html
000018:                                                                                                  ## Mod history: 2024-05-13 MAS  Created from Comanche 067.
000019:
000020:                                                                                                  #  THE FOLLOWING ROUTINE CAN BE USED TO CALL A SUBROUTINE IN ANOTHER BANK. IN THE BANKCALL VERSION, THE
000021:                                                                                                  #  CADR OF THE SUBROUTINE IMMEDIATELY FOLLOWS THE TC BANKCALL INSTRUCTION, WITH C(A) AND C(L) PRESERVED.
000022:
000023:    4676                                           BLOCK    02
000024:    4676                                           COUNT    02/BANK
000025:
000026:    4676           52134        BANKCALL           DXCH     BUF2                                  #  SAVE INCOMING A,L.
000027:    4677           50002                           INDEX    Q                                     #  PICK UP CADR.
000028:    4700           30000                           CA       0
000029:    4701           24002                           INCR     Q                                     #  SO WE RETURN TO THE LOC. AFTER THE CADR.
000030:
000031:                                                                                                  #  SWCALL IS  IDENTICAL TO BANKCALL, EXCEPT THAT THE CADR ARRIVES IN A.
000032:
000033:    4702           54001        SWCALL             TS       L
000034:    4703           22004                           LXCH     FBANK                                 #  SWITCH BANKS, SAVING RETURN.
000035:    4704           75070                           MASK     LOW10                                 #  GET SUB-ADDRESS OF CADR.
000036:    4705           56002                           XCH      Q                                     #  A,L NOW CONTAINS DP RETURN.
000037:    4706           52134                           DXCH     BUF2                                  #  RESTORING INPUTS IF THIS IS A BANKCALL.
000038:    4707           50002                           INDEX    Q
000039:    4710           02000                           TC       10000                                 #  SETTING Q TO SWRETURN.
000040:
000041:    4711           56134        SWRETURN           XCH      BUF2       +1                         #  COMES HERE TO RETURN TO CALLER. C(A,L)
000042:    4712           56004                           XCH      FBANK                                 #  ARE PRESERVED FOR RETURN.
000043:    4713           56134                           XCH      BUF2       +1
000044:    4714           00133                           TC       BUF2
000045:
000046:                                                                                                  #  THE FOLLOWING ROUTINE CAN BE USED AS A UNILATERAL JUMP WITH C(A,L) PRESERVED AND THE CADR IMMEDIATELY
000047:                                                                                                  #  FOLLOWING THE TC POSTJUMP INSTRUCTION.
000048:
000049:    4715           56002        POSTJUMP           XCH      Q                                     #  SAVE INCOMING C(A).
000050:    4716           50000                           INDEX    A                                     #  GET CADR.
000051:    4717           30000                           CA       0
000052:
000053:                                                                                                  #  BANKJUMP IS THE SAME AS POSTJUMP, EXCEPT THAT THE CADR ARRIVES IN A.
000054:
000055:    4720           54004        BANKJUMP           TS       FBANK
000056:    4721           75070                           MASK     LOW10
000057:    4722           56002                           XCH      Q                                     #  RESTORING INPUT C(A) IF THIS WAS A
000058:    4723           50002        Q+10000            INDEX    Q                                     #  POSTJUMP.
000059:    4724           12000        PRIO12             TCF      10000                                 #  PRIO12 = TCF  10000 = 12000
000060:
000061:                                                                                                  #  THE FOLLOWING ROUTINE GETS THE RETURN CADR SAVED BY SWCALL OR BANKCALL AND LEAVES IT IN A.
000062:
000063:    4725           35070        MAKECADR           CAF      LOW10
000064:    4726           70133                           MASK     BUF2
000065:    4727           60134                           AD       BUF2       +1
000066:    4730           00002                           TC       Q
000067:
000068:    4731           54135        SUPDACAL           TS       MPTEMP
000069:    4732           56004                           XCH      FBANK                                 #  SET FBANK FOR DATA.
000070:    4733           00006                           EXTEND
000071:    4734           04007                           ROR      SUPERBNK                              #  SAVE FBANK IN BITS 15-11, AND
000072:    4735           56135                           XCH      MPTEMP                                #  SUPERBANK IN BITS 7-5.
000073:    4736           75070                           MASK     LOW10
000074:    4737           56001                           XCH      L                                     #  SAVE REL. ADR. IN BANK, FETCH SUPERBITS.
000075:    4740           00004                           INHINT                                         #  BECAUSE RUPT DOES NOT SAVE SUPERBANK.
000076:    4741           00006                           EXTEND
000077:    4742           01007                           WRITE    SUPERBNK                              #  SET SUPERBANK FOR DATA.
000078:    4743           50001                           INDEX    L
000079:    4744           32000                           CA       10000                                 #  PINBALL (FIX MEM DISP) PREVENTS DCA HERE
000080:    4745           56135                           XCH      MPTEMP                                #  SAVE 1ST WD, FETCH OLD FBANK AND SBANK.
000081:    4746           00006                           EXTEND
000082:    4747           01007                           WRITE    SUPERBNK                              #  RESTORE SUPERBANK.
000083:    4750           00003                           RELINT
000084:    4751           54004                           TS       FBANK                                 #  RESTORE FBANK.
000085:    4752           30135                           CA       MPTEMP                                #  RECOVER FIRST WORD OF DATA.
000086:    4753           00002                           RETURN                                         #  24 WDS. DATACALL 516 MU, SUPDACAL 432 MU
000087:
000088:                                                                                                  #  THE FOLLOWING ROUTINES ARE IDENTICAL TO BANKCALL AND SWCALL EXCEPT THAT THEY ARE USED IN INTERRUPT.
000089:
000090:    4754           52073        IBNKCALL           DXCH     RUPTREG3                              #  USES RUPTREG3,4 FOR DP RETURN ADDRESS.
000091:    4755           50002                           INDEX    Q
000092:    4756           30000                           CAF      0
000093:    4757           24002                           INCR     Q
000094:
000095:    4760           54001        ISWCALL            TS       L
000096:    4761           22004                           LXCH     FBANK
000097:    4762           75070                           MASK     LOW10
000098:    4763           56002                           XCH      Q
000099:    4764           52073                           DXCH     RUPTREG3
000100:    4765           50002                           INDEX    Q
000101:    4766           02000                           TC       10000
000102:
000103:    4767           56073        ISWRETRN           XCH      RUPTREG4
000104:    4770           56004                           XCH      FBANK
000105:    4771           56073                           XCH      RUPTREG4
000106:    4772           00072                           TC       RUPTREG3
000107:
000108:                                                                                                  #  2. USPRCADR ACCESSES INTERPRETIVE CODING IN OTHER THAN THE USER'S FBANK.  THE CALLING SEQUENCE IS AS FOLLOWS:
000109:                                                                                                  #        L       TC      USPRCADR
000110:                                                                                                  #        L+1     CADR    INTPRETX        INTPRETX IS THE INTERPRETIVE CODING
000111:                                                                                                  #                                        RETURN IS TO L+2
000112:
000113:    4773           54164        USPRCADR           TS       LOC                                   #  SAVE A
000114:    4774           35024                           CA       BIT8
000115:    4775           54023                           TS       EDOP                                  #  EXIT INSTRUCTION TO EDOP
000116:    4776           30006                           CA       BBANK
000117:    4777           54165                           TS       BANKSET                               #  USER'S BBANK TO BANKSET
000118:    5000           50002                           INDEX    Q
000119:    5001           30000                           CA       0
000120:    5002           54004                           TS       FBANK                                 #  INTERPRETIVE BANK TO FBANK
000121:    5003           75070                           MASK     LOW10                                 #  YIELDS INTERPRETIVE RELATIVE ADDRESS
000122:    5004           56002                           XCH      Q                                     #  INTERPRETIVE ADDRESS TO Q, FETCHING L+1
000123:    5005           56164                           XCH      LOC                                   #  L+1 TO LOC, RETRIEVING ORIGINAL A
000124:    5006           14723                           TCF      Q+10000
000125:
000126:                                                                                                  #  THERE ARE FOUR POSSIBLE SETTINGS FOR CHANNEL 07.  (CHANNEL 07 CONTAINS THE SUPERBANK SETTING.)
000127:
000128:                                                                                                  #                                        PSEUDO-FIXED     OCTAL PSEUDO
000129:                                                                                                  #  SUPERBANK     SETTING S-REG. VALUE    BANK NUMBERS     ADDRESSES
000130:                                                                                                  #  ----------    ------- ------------     ------------     ------------
000131:                                                                                                  #  SUPERBANK 3     0XX    2000 - 3777       30 - 37       70000 - 107777         (WHERE XX CAN BE ANYTHING AND
000132:                                                                                                  #                                                                                WILL USUALLY BE SEEN AS 11)
000133:                                                                                                  #  SUPERBANK 4     100    2000 - 3777       40 - 47      110000 - 127777         (AS FAR AS IT CAN BE SEEN,
000134:                                                                                                  #                                                                                ONLY BANKS 40-43 WILL EVER BE
000135:                                                                                                  #                                                                                AND ARE PRESENTLY AVAILABLE)
000136:                                                                                                  #  SUPERBANK 5     101    2000 - 3777       50 - 57      130000 - 147777         (PRESENTLY NOT AVAILABLE TO
000137:                                                                                                  #                                                                                THE USER)
000138:                                                                                                  #  SUPERBANK 6     110    2000 - 3777       60 - 67      150000 - 167777         (PRESENTLY NOT AVAILABLE TO
000139:                                                                                                  #                                                                                THE USER)
000140:                                                                                                  #  *** THIS ROUTINE MAY BE CALLED BY ANY PROGRAM LOCATED IN BANKS 00 - 27.  I.E., NO PROGRAM LIVING IN ANY
000141:                                                                                                  #  SUPERBANK SHOULD USE SUPERSW. ***
000142:
000143:                                                                                                  #  SUPERSW MAY BE CALLED IN THIS FASHION:
000144:                                                                                                  #        CAF     ABBCON          WHERE -- ABBCON  BBCON  SOMETHIN --
000145:                                                                                                  #        TCR     SUPERSW         (THE SUPERBNK BITS ARE IN THE BBCON)
000146:                                                                                                  #        ...       ...
000147:                                                                                                  #         .         .
000148:                                                                                                  #         .         .
000149:                                                                                                  #  OR IN THIS FASHION:
000150:                                                                                                  #        CAF     SUPERSET        WHERE SUPERSET IS ONE OF THE FOUR AVAILABLE
000151:                                                                                                  #        TCR     SUPERSW         SUPERBANK BIT CONSTANTS:
000152:                                                                                                  #        ...       ...                   SUPER011 OCTAL  60
000153:                                                                                                  #         .         .                    SUPER100 OCTAL 100
000154:                                                                                                  #         .         .                    SUPER101 OCTAL 120
000155:                                                                                                  #                                        SUPER110 OCTAL 140
000156:
000157:    5007           00006        SUPERSW            EXTEND
000158:    5010           01007                           WRITE    SUPERBNK                              #  WRITE BITS 7-6-5 OF THE ACCUMULATOR INTO
000159:                                                                                                  #  CHANNEL 07
000160:    5011           00002                           TC       Q                                     #  TC TO INSTRUCTION FOLLOWING
000161:                                                                                                  #        TC SUPERSW
000162:
000163:
000164:

End of include-file INTER-BANK_COMMUNICATION.agc.  Parent file is MAIN.agc


