
Source Code


000002:                                                                                                  ## Copyright:   Public domain.
000003:                                                                                                  ## Filename:    MEASUREMENT_INCORPORATION.agc
000004:                                                                                                  ## Purpose:     A section of Comanche revision 072.
000005:                                                                                                  ##              It is part of the reconstructed source code for the first
000006:                                                                                                  ##              release of the software for the Command Module's (CM) Apollo
000007:                                                                                                  ##              Guidance Computer (AGC) for Apollo 13. No original listings
000008:                                                                                                  ##              of this program are available; instead, this file was recreated
000009:                                                                                                  ##              from a printout of Comanche 055, binary dumps of a set of
000010:                                                                                                  ##              Comanche 067 rope modules, and changelogs between Comanche 067
000011:                                                                                                  ##              and 072. It has been adapted such that the resulting bugger words
000012:                                                                                                  ##              exactly match those specified for Comanche 072 in NASA drawing
000013:                                                                                                  ##              2021153G, which gives relatively high confidence that the
000014:                                                                                                  ##              reconstruction is correct.
000015:                                                                                                  ## Assembler:   yaYUL
000016:                                                                                                  ## Contact:     Ron Burkey <info@sandroid.org>.
000017:                                                                                                  ## Website:     www.ibiblio.org/apollo/index.html
000018:                                                                                                  ## Mod history: 2024-05-13 MAS  Created from Comanche 067.
000019:
000020:                                                                                                  #   INCORP1--PERFORMS THE SIX DIMENSIONAL STATE VECTOR DEVIATION FOR POSITI
000021:                                                                                                  #  ON AND VELOCITY OR THE NINE DIMENSIONAL DEVIATION OF POSITION,VELOCITY,A
000022:                                                                                                  #  ND RADAR OR LANDMARK BIAS.THE OUTPUT OF THE BVECTOR ROUTINE ALONG WITH T
000023:                                                                                                  #  HE ERROR TRANSITION MATRIX(W) ARE USED AS INPUT TO THE ROUTINE.THE DEVIA
000024:                                                                                                  #  TION IS OBTAINED BY COMPUTING AN ESTIMATED TRACKING MEASUREMENT FROM THE
000025:                                                                                                  #  CURRENT STATE VECTOR AND COMPARING IT WITH AN ACTUAL TRACKING MEASUREMEN
000026:                                                                                                  #  T AND APPLYING A STATISTICAL WEIGHTING VECTOR.
000027:
000028:                                                                                                  #  INPUT
000029:                                                                                                  #         DMENFLG = 0 6DIMENSIONAL BVECTOR  1= 9DIMENSIONAL
000030:                                                                                                  #               W = ERROR TRANSITION MATRIX 6X6 OR 9X9
000031:                                                                                                  #        VARIANCE = VARIANCE (SCALAR)
000032:                                                                                                  #          DELTAQ = MEASURED DEVIATION (SCALAR)
000033:                                                                                                  #         BVECTOR = 6 OR 9 DIMENSIONAL BVECTOR
000034:
000035:                                                                                                  #  OUTPUT
000036:                                                                                                  #          DELTAX = STATE VECTOR DEVIATIONS 6 OR 9 DIMENSIONAL
000037:                                                                                                  #              ZI = VECTOR USED FOR THE INCORPORATION 6 OR 9 DIMENSIONAL
000038:                                                                                                  #           GAMMA = SCALAR
000039:                                                                                                  #           OMEGA = OMEGA WEIGHTING VECTOR 6 OR 9 DIMENTIONAL
000040:
000041:                                                                                                  #  CALLING SEQUENCE
000042:                                                                                                  #        L       CALL    INCORP1
000043:
000044:                                                                                                  #  NORMAL EXIT
000045:                                                                                                  #        L+1 OF CALLING SEQUENCE
000046:
000047: 37,3776                                           BANK     37
000048: 36,2000                                           SETLOC   MEASINC
000049: 36,2000                                           BANK
000050:
000051: 36,3260                                           COUNT*   $$/INCOR
000052:
000053: 36,3260  E5,1400                                  EBANK=   W
000054:
000055: 36,3260           77620        INCORP1            STQ
000056: 36,3261           02317                                    EGRESS
000057: 36,3262           66370                           AXT,1    SSP
000058: 36,3263           00066                                    54D
000059: 36,3264           00051                                    S1
000060: 36,3265           00022                                    18D                                   #  IX1 = 54      S1= 18
000061: 36,3266           66374                           AXT,2    SSP
000062: 36,3267           00022                                    18D
000063: 36,3270           00052                                    S2
000064: 36,3271           00006                                    6                                     #  IX2 = 18      S2=6
000065: 36,3272           63775        Z123               VLOAD    MXV*
000066: 36,3273           03502                                    BVECTOR                               #  BVECTOR (0)
000067: 36,3274           02467                                    W          +54D,1
000068: 36,3275           12745                           STORE    ZI         +18D,2
000069: 36,3276           77775                           VLOAD
000070: 36,3277           03510                                    BVECTOR    +6                         #  BVECTOR (1)
000071: 36,3300           52717                           MXV*     VAD*
000072: 36,3301           02555                                    W          +108D,1
000073: 36,3302           75032                                    ZI         +18D,2
000074: 36,3303           12745                           STORE    ZI         +18D,2
000075: 36,3304           77775                           VLOAD
000076: 36,3305           03516                                    BVECTOR    +12D                       #  BVECTOR (2)
000077: 36,3306           52717                           MXV*     VAD*
000078: 36,3307           02643                                    W          +162D,1
000079: 36,3310           75032                                    ZI         +18D,2                     #  B(0)*W+B(1)*(W+54)+B(2)*(W+108) FIRST PAS
000080: 36,3311           12745                           STORE    ZI         +18D,2                     #  ZI THEN Z2 THEN Z3
000081: 36,3312           77700                           TIX,1
000082: 36,3313           75314                                    INCOR1
000083: 36,3314           43104        INCOR1             TIX,2    BON
000084: 36,3315           75272                                    Z123                                  #  LOOP FOR Z1,Z2,Z3
000085: 36,3316           02706                                    DMENFLG
000086: 36,3317           75323                                    INCOR1A
000087: 36,3320           77775                           VLOAD
000088: 36,3321           15334                                    ZEROVECS
000089: 36,3322           02737                           STORE    ZI         +12D
000090: 36,3323           77201        INCOR1A            SETPD    VLOAD
000091: 36,3324           00001                                    0
000092: 36,3325           02723                                    ZI
000093: 36,3326           47036                           VSQ      RTB
000094: 36,3327           45565                                    TPMODE
000095: 36,3330           47515                           PDVL     VSQ
000096: 36,3331           02731                                    ZI         +6
000097: 36,3332           76234                           RTB      TAD
000098: 36,3333           45565                                    TPMODE
000099: 36,3334           47515                           PDVL     VSQ
000100: 36,3335           02737                                    ZI         +12D
000101: 36,3336           76234                           RTB      TAD
000102: 36,3337           45565                                    TPMODE
000103: 36,3340           77171                           TAD      AXT,2
000104: 36,3341           03526                                    VARIANCE
000105: 36,3342           00000                                    0
000106: 36,3343           01257                           STORE    TRIPA                                 #  ZI*2 + Z2*2 + Z3*2 + VARIANCE
000107: 36,3344           40151                           TLOAD    BOV
000108: 36,3345           03526                                    VARIANCE                              #  CLEAR OVFIND
000109: 36,3346           75347                                    +1
000110: 36,3347           01262                           STORE    TEMPVAR                               #  TEMP STORAGE FOR VARIANCE
000111: 36,3350           77654                           BZE
000112: 36,3351           75360                                    INCOR1C
000113: 36,3352           40112        INCOR1B            SL2      BOV
000114: 36,3353           75360                                    INCOR1C
000115: 36,3354           01262                           STORE    TEMPVAR
000116: 36,3355           52114                           INCR,2   GOTO
000117: 36,3356           00001                           DEC      1          B-14
000118: 36,3357           75352                                    INCOR1B
000119: 36,3360           61551        INCOR1C            TLOAD    ROUND
000120: 36,3361           01257                                    TRIPA
000121: 36,3362           75405                           DMP      SQRT
000122: 36,3363           01262                                    TEMPVAR
000123: 36,3364           76257                           SL*      TAD
000124: 36,3365           57576                                    0,2
000125: 36,3366           01257                                    TRIPA
000126: 36,3367           63101                           NORM     INCR,2
000127: 36,3370           00050                                    X2
000128: 36,3371           77775                           DEC      -2         B-14
000129: 36,3372           77134                           SXA,2    AXT,2
000130: 36,3373           02215                                    NORMGAM                               #  NORMALIZATION COUNT -2 FOR GAMMA
000131: 36,3374           00242                                    162D
000132: 36,3375           40265                           BDDV     SETPD
000133: 36,3376           15324                                    DP1/4TH
000134: 36,3377           00001                                    0
000135: 36,3400           03456                           STORE    GAMMA
000136: 36,3401           60351                           TLOAD    NORM
000137: 36,3402           01257                                    TRIPA
000138: 36,3403           00047                                    X1
000139: 36,3404           65345                           DLOAD    PDDL                                  #  PD 0-1 = NORM (A)
000140: 36,3405           00155                                    MPAC
000141: 36,3406           03524                                    DELTAQ
000142: 36,3407           77701                           NORM
000143: 36,3410           00051                                    S1
000144: 36,3411           70460                           XSU,1    SR1
000145: 36,3412           00050                                    S1
000146: 36,3413           41471                           DDV      PUSH                                  #  PD 0-1 = DELTAQ/A
000147: 36,3414           77650                           GOTO
000148: 36,3415           31403                                    NEWZCOMP
000149: 36,3416           77731                 -3        SSP
000150: 36,3417           00052                                    S2
000151: 36,3420           00066                                    54D
000152: 36,3421           60775        INCOR2             VLOAD    VXM*                                  #  COMPUTE OMEGA1,2,3
000153: 36,3422           02723                                    ZI
000154: 36,3423           75134                                    W          +162D,2
000155: 36,3424           77206                           PUSH     VLOAD
000156: 36,3425           02731                                    ZI         +6
000157: 36,3426           53303                           VXM*     VAD
000158: 36,3427           75112                                    W          +180D,2
000159: 36,3430           77206                           PUSH     VLOAD
000160: 36,3431           02737                                    ZI         +12D
000161: 36,3432           53303                           VXM*     VAD
000162: 36,3433           75070                                    W          +198D,2
000163: 36,3434           61006                           PUSH     TIX,2                                 #  PD 2-7=OMEGA1, 8-13=OMEGA2, 14-19=OMEGA3
000164: 36,3435           75421                                    INCOR2
000165: 36,3436           45575                           VLOAD    STADR
000166: 36,3437           74303                           STORE    OMEGA      +12D
000167: 36,3440           45575                           VLOAD    STADR
000168: 36,3441           74311                           STORE    OMEGA      +6
000169: 36,3442           45575                           VLOAD    STADR
000170: 36,3443           74317                           STORE    OMEGA
000171: 36,3444           77214                           BON      VLOAD
000172: 36,3445           02706                                    DMENFLG
000173: 36,3446           75451                                    INCOR2AB
000174: 36,3447           15334                                    ZEROVECS
000175: 36,3450           03474                           STORE    OMEGA      +12D
000176: 36,3451           66374        INCOR2AB           AXT,2    SSP
000177: 36,3452           00022                                    18D
000178: 36,3453           00052                                    S2
000179: 36,3454           00006                                    6
000180: 36,3455           77773        INCOR3             VLOAD*
000181: 36,3456           74275                                    OMEGA      +18D,2
000182: 36,3457           53761                           VXSC     VSL*
000183: 36,3460           00001                                    0                                     #  DELTAQ/A
000184: 36,3461           20201                                    0,1
000185: 36,3462           11301                           STORE    DELTAX     +18D,2
000186: 36,3463           77304                           TIX,2    VLOAD
000187: 36,3464           75455                                    INCOR3
000188: 36,3465           01265                                    DELTAX     +6
000189: 36,3466           77732                           VSL3
000190: 36,3467           01265                           STORE    DELTAX     +6
000191: 36,3470           77650                           GOTO
000192: 36,3471           02317                                    EGRESS
000193:
000194:                                                                                                  #   INCORP2 -INCORPORATES THE COMPUTED STATE VECTOR DEVIATIONS INTO THE
000195:                                                                                                  #  ESTIMATED STATE VECTOR. THE STATE VECTOR UPDATED MAY BE FOR EITHER THE
000196:                                                                                                  #  LEM OR THE CSM.DETERMINED BY FLAG VEHUPFLG.(ZERO = LEM) (1 = CSM)
000197:
000198:                                                                                                  #  INPUT
000199:                                                                                                  #        PERMANENT STATE VECTOR FOR EITHER THE LEM OR CSM
000200:                                                                                                  #        VEHUPFLG = UPDATE VEHICLE 0=LEM 1=CSM
000201:                                                                                                  #        W = ERROR TRANSITION MATRIX
000202:                                                                                                  #        DELTAX = COMPUTED STATE VECTOR DEVIATIONS
000203:                                                                                                  #        DMENFLG = SIZE OF W MATRIX (ZERO=6X6) (1=9X9)
000204:                                                                                                  #        GAMMA = SCALAR FOR INCORPORATION
000205:                                                                                                  #        ZI = VECTOR USED IN INCORPORATION
000206:                                                                                                  #        OMEGA = WEIGHTING VECTOR
000207:
000208:                                                                                                  #  OUTPUT
000209:                                                                                                  #        UPDATED PERMANENT STATE VECTOR
000210:
000211:                                                                                                  #  CALLING SEQUENCE
000212:                                                                                                  #        L       CALL    INCORP2
000213:
000214:                                                                                                  #  NORMAL EXIT
000215:                                                                                                  #        L+1 OF CALLING SEQUENCE
000216:
000217:
000218: 36,2000                                           SETLOC   MEASINC1
000219: 36,2000                                           BANK
000220:
000221: 36,3472                                           COUNT*   $$/INCOR
000222:
000223: 36,3472           45020        INCORP2            STQ      CALL
000224: 36,3473           02317                                    EGRESS
000225: 36,3474           27446                                    INTSTALL
000226: 36,3475           74375                           VLOAD    VXSC                                  #  CALC. GAMMA*OMEGA1,2,3
000227: 36,3476           03460                                    OMEGA
000228: 36,3477           03456                                    GAMMA
000229: 36,3500           26643                           STOVL    OMEGAM1
000230: 36,3501           03466                                    OMEGA      +6
000231: 36,3502           77761                           VXSC
000232: 36,3503           03456                                    GAMMA
000233: 36,3504           26651                           STOVL    OMEGAM2
000234: 36,3505           03474                                    OMEGA      +12D
000235: 36,3506           77761                           VXSC
000236: 36,3507           03456                                    GAMMA
000237: 36,3510           02657                           STORE    OMEGAM3
000238: 36,3511           77776                           EXIT
000239: 36,3512           33773                           CAF      54DD                                  #  INITIAL IX 1 SETTING FOR W MATRIX
000240: 36,3513           55252                           TS       WIXA
000241: 36,3514           55253                           TS       WIXB
000242: 36,3515           35035                           CAF      ZERO
000243: 36,3516           55254                           TS       ZIXA                                  #  INITIAL IX 2 SETTING FOR Z COMPONENT
000244: 36,3517           55255                           TS       ZIXB
000245: 36,3520           05426        FAZA               TC       PHASCHNG
000246: 36,3521           04022                           OCT      04022
000247: 36,3522           05562                           TC       UPFLAG
000248: 36,3523           00236                           ADRES    REINTFLG
000249: 36,3524           31253        FAZA1              CA       WIXB                                  #  START FIRST PHASE OF INCORP2
000250: 36,3525           55252                           TS       WIXA                                  #  TO UPDATE 6 OR 9 DIM. W MATRIX IN TEMP
000251: 36,3526           31255                           CA       ZIXB
000252: 36,3527           55254                           TS       ZIXA
000253: 36,3530           06006                           TC       INTPRET
000254: 36,3531           73150                           LXA,1    LXA,2
000255: 36,3532           01252                                    WIXA
000256: 36,3533           01254                                    ZIXA
000257: 36,3534           70731                           SSP      DLOAD*
000258: 36,3535           00051                                    S1
000259: 36,3536           00006                                    6
000260: 36,3537           75054                                    ZI,2
000261: 36,3540           60276                           DCOMP    NORM                                  #  CALC UPPER 3X9 PARTITION OF W MATRIX
000262: 36,3541           00052                                    S2
000263: 36,3542           65161                           VXSC     XCHX,2
000264: 36,3543           02643                                    OMEGAM1
000265: 36,3544           00051                                    S2
000266: 36,3545           57144                           LXC,2    XAD,2
000267: 36,3546           00047                                    X2
000268: 36,3547           02215                                    NORMGAM
000269: 36,3550           65057                           VSL*     XCHX,2
000270: 36,3551           57576                                    0,2
000271: 36,3552           00051                                    S2
000272: 36,3553           77653                           VAD*
000273: 36,3554           02467                                    W          +54D,1
000274: 36,3555           02665                           STORE    HOLDW
000275: 36,3556           57543                           DLOAD*   DCOMP                                 #  CALC MIDDLE 3X9 PARTITION OF W MATRIX
000276: 36,3557           75054                                    ZI,2
000277: 36,3560           74301                           NORM     VXSC
000278: 36,3561           00052                                    S2
000279: 36,3562           02651                                    OMEGAM2
000280: 36,3563           71124                           XCHX,2   LXC,2
000281: 36,3564           00051                                    S2
000282: 36,3565           00047                                    X2
000283: 36,3566           53674                           XAD,2    VSL*
000284: 36,3567           02215                                    NORMGAM
000285: 36,3570           57576                                    0,2
000286: 36,3571           52724                           XCHX,2   VAD*
000287: 36,3572           00051                                    S2
000288: 36,3573           02555                                    W          +108D,1
000289: 36,3574           02673                           STORE    HOLDW      +6
000290: 36,3575           77614                           BOFF
000291: 36,3576           02746                                    DMENFLG                               #  BRANCH IF 6 DIMENSIONAL
000292: 36,3577           75617                                    FAZB
000293: 36,3600           57543                           DLOAD*   DCOMP                                 #  CALC LOWER 3X9 PARTITION OF W MATRIX
000294: 36,3601           75054                                    ZI,2
000295: 36,3602           74301                           NORM     VXSC
000296: 36,3603           00052                                    S2
000297: 36,3604           02657                                    OMEGAM3
000298: 36,3605           71124                           XCHX,2   LXC,2
000299: 36,3606           00051                                    S2
000300: 36,3607           00047                                    X2
000301: 36,3610           53674                           XAD,2    VSL*
000302: 36,3611           02215                                    NORMGAM
000303: 36,3612           57576                                    0,2
000304: 36,3613           52724                           XCHX,2   VAD*
000305: 36,3614           00051                                    S2
000306: 36,3615           02643                                    W          +162D,1
000307: 36,3616           02701                           STORE    HOLDW      +12D
000308: 36,3617           77624        FAZB               CALL
000309: 36,3620           56751                                    GRP2PC
000310: 36,3621           77776                           EXIT
000311: 36,3622           31252        FAZB1              CA       WIXA                                  #  START 2ND PHASE OF INCORP2 TO TRANSFER
000312: 36,3623           63774                           AD       6DD                                   #        TEMP REG TO PERM W MATRIX
000313: 36,3624           55253                           TS       WIXB
000314: 36,3625           31254                           CA       ZIXA
000315: 36,3626           67715                           AD       MINUS2
000316: 36,3627           55255                           TS       ZIXB
000317: 36,3630           06006                           TC       INTPRET
000318: 36,3631           66350                           LXA,1    SSP
000319: 36,3632           01252                                    WIXA
000320: 36,3633           00051                                    S1
000321: 36,3634           00006                                    6
000322: 36,3635           77775                           VLOAD
000323: 36,3636           02665                                    HOLDW
000324: 36,3637           06467                           STORE    W          +54D,1
000325: 36,3640           77775                           VLOAD
000326: 36,3641           02673                                    HOLDW      +6
000327: 36,3642           06555                           STORE    W          +108D,1
000328: 36,3643           77214                           BOFF     VLOAD
000329: 36,3644           02746                                    DMENFLG
000330: 36,3645           75655                                    FAZB5
000331: 36,3646           02701                                    HOLDW      +12D
000332: 36,3647           06643                           STORE    W          +162D,1
000333: 36,3650           52100        FAZB2              TIX,1    GOTO
000334: 36,3651           75653                                    +2
000335: 36,3652           75663                                    FAZC                                  #  DONE WITH W MATRIX.  UPDATE STATE VECTOR
000336: 36,3653           77634                           RTB
000337: 36,3654           75520                                    FAZA
000338: 36,3655           43335        FAZB5              SLOAD    DAD
000339: 36,3656           01256                                    ZIXB
000340: 36,3657           35776                                    12DD
000341: 36,3660           52030                           BHIZ     GOTO
000342: 36,3661           75663                                    FAZC
000343: 36,3662           75650                                    FAZB2
000344: 36,3663           77624        FAZC               CALL
000345: 36,3664           56751                                    GRP2PC
000346: 36,3665           53375                           VLOAD    VAD                                   #  START 3RD PHASE OF INCORP2
000347: 36,3666           01701                                    X789                                  #  7TH,8TH,9TH,COMPONENT OF STATE VECTOR
000348: 36,3667           01273                                    DELTAX     +12D                       #  INCORPORATION FOR X789
000349: 36,3670           03450                           STORE    TX789
000350: 36,3671           47014                           BON      RTB
000351: 36,3672           00707                                    VEHUPFLG
000352: 36,3673           75763                                    DOCSM
000353: 36,3674           27023                                    MOVEPLEM
000354: 36,3675           77004        FAZAB              BOVB     AXT,2
000355: 36,3676           57353                                    TCDANZIG
000356: 36,3677           00000                                    0
000357: 36,3700           77014                           BOFF     AXT,2
000358: 36,3701           04343                                    MOONTHIS
000359: 36,3702           75704                                    +2
000360: 36,3703           00002                                    2
000361: 36,3704           53775                           VLOAD    VSR*
000362: 36,3705           01257                                    DELTAX                                #  B27 IF MOON ORBIT, B29 IF EARTH
000363: 36,3706           57205                                    0          -7,2
000364: 36,3707           40055                           VAD      BOV
000365: 36,3710           01521                                    TDELTAV
000366: 36,3711           75723                                    FAZAB1
000367: 36,3712           25521                           STOVL    TDELTAV
000368: 36,3713           01265                                    DELTAX     +6                         #  B5 IF MOON ORBIT, B7 IF EARTH
000369: 36,3714           53257                           VSR*     VAD
000370: 36,3715           57202                                    0          -4,2
000371: 36,3716           01527                                    TNUV
000372: 36,3717           77600                           BOV
000373: 36,3720           75727                                    FAZAB2
000374: 36,3721           35527                           STCALL   TNUV
000375: 36,3722           75736                                    FAZAB3
000376: 36,3723           53375        FAZAB1             VLOAD    VAD
000377: 36,3724           01535                                    RCV
000378: 36,3725           01257                                    DELTAX
000379: 36,3726           01535                           STORE    RCV
000380: 36,3727           53375        FAZAB2             VLOAD    VAD
000381: 36,3730           01543                                    VCV
000382: 36,3731           01265                                    DELTAX     +6
000383: 36,3732           01543                           STORE    VCV
000384: 36,3733           45134                           SXA,2    CALL
000385: 36,3734           02150                                    PBODY
000386: 36,3735           23403                                    RECTIFY
000387: 36,3736           77624        FAZAB3             CALL
000388: 36,3737           56751                                    GRP2PC
000389: 36,3740           47014                           BON      RTB
000390: 36,3741           00707                                    VEHUPFLG
000391: 36,3742           75766                                    DOCSM1
000392: 36,3743           27002                                    MOVEALEM
000393: 36,3744           77624                           CALL
000394: 36,3745           20263                                    SVDWN2                                #  STORE DOWNLINK STATE VECTOR
000395: 36,3746           77624        FAZAB4             CALL
000396: 36,3747           56751                                    GRP2PC                                #  PHASE CHANGE
000397: 36,3750           77214                           BOFF     VLOAD
000398: 36,3751           02746                                    DMENFLG
000399: 36,3752           75755                                    FAZAB5                                #  6 DIMENSIONAL
000400: 36,3753           03450                                    TX789                                 #  9 DIMENSIONAL
000401: 36,3754           01701                           STORE    X789
000402: 36,3755           66150        FAZAB5             LXA,1    SXA,1
000403: 36,3756           02317                                    EGRESS
000404: 36,3757           00052                                    QPRET
000405: 36,3760           77776                           EXIT
000406: 36,3761           04715                           TC       POSTJUMP                              #  EXIT
000407: 36,3762           27463                           CADR     INTWAKE
000408: 36,3763           52034        DOCSM              RTB      GOTO
000409: 36,3764           26756                                    MOVEPCSM
000410: 36,3765           75675                                    FAZAB
000411: 36,3766           45034        DOCSM1             RTB      CALL
000412: 36,3767           26727                                    MOVEACSM
000413: 36,3770           20237                                    SVDWN1                                #  STORE DOWNLINK STATE VECTOR
000414: 36,3771           77650                           GOTO
000415: 36,3772           75746                                    FAZAB4
000416: 36,3773  26,3333               ZEROO              =        ZEROVECS
000417: 36,3773           00066        54DD               DEC      54         B-14
000418: 36,3774           77771        6DD                DEC      -6         B-14
000419: 36,3775           00014        12DD               DEC      12         B-14
000420: 14,2000                                           SETLOC   MEASINC2
000421: 14,2000                                           BANK
000422: 14,3403                                           COUNT*   $$/INCOR
000423:
000424: 14,3403           51575        NEWZCOMP           VLOAD    ABVAL
000425: 14,3404           02723                                    ZI
000426: 14,3405           24045                           STOVL    NORMZI
000427: 14,3406           02731                                    ZI         +6
000428: 14,3407           41446                           ABVAL    PUSH
000429: 14,3410           50025                           DSU      BMN
000430: 14,3411           00045                                    NORMZI
000431: 14,3412           31415                                    +3
000432: 14,3413           45545                           DLOAD    STADR
000433: 14,3414           77732                           STORE    NORMZI
000434: 14,3415           51575                           VLOAD    ABVAL
000435: 14,3416           02737                                    ZI         +12D
000436: 14,3417           45206                           PUSH     DSU
000437: 14,3420           00045                                    NORMZI
000438: 14,3421           71240                           BMN      DLOAD
000439: 14,3422           73635                                    NEWZCMP1
000440: 14,3423           77626                           STADR
000441: 14,3424           43732                           STCALL   NORMZI                                #  LARGEST ABVAL
000442: 14,3425           73635                                    NEWZCMP1
000443:
000444: 35,2000                                           SETLOC   MEASINC3
000445: 35,2000                                           BANK
000446:
000447: 35,3635           66145        NEWZCMP1           DLOAD    SXA,1
000448: 35,3636           00045                                    NORMZI
000449: 35,3637           00044                                    NORMZI                                #  SAVE X1
000450: 35,3640           62101                           NORM     INCR,1
000451: 35,3641           00047                                    X1
000452: 35,3642           00002                           DEC      2          B-14
000453: 35,3643           53775                           VLOAD    VSL*
000454: 35,3644           02723                                    ZI
000455: 35,3645           20201                                    0,1
000456: 35,3646           26723                           STOVL    ZI
000457: 35,3647           02731                                    ZI         +6
000458: 35,3650           77657                           VSL*
000459: 35,3651           20201                                    0,1
000460: 35,3652           26731                           STOVL    ZI         +6
000461: 35,3653           02737                                    ZI         +12D
000462: 35,3654           66057                           VSL*     SXA,1
000463: 35,3655           20201                                    0,1
000464: 35,3656           00045                                    NORMZI     +1                         #  SAVE SHIFT
000465: 35,3657           02737                           STORE    ZI         +12D
000466: 35,3660           54150                           LXA,1    XSU,1
000467: 35,3661           02215                                    NORMGAM
000468: 35,3662           00045                                    NORMZI     +1
000469: 35,3663           77660                           XSU,1
000470: 35,3664           00045                                    NORMZI     +1
000471: 35,3665           70130                           SXA,1    LXC,1
000472: 35,3666           02215                                    NORMGAM
000473: 35,3667           00045                                    NORMZI     +1
000474: 35,3670           40270                           XAD,1    SETPD
000475: 35,3671           00044                                    NORMZI
000476: 35,3672           00003                                    2D
000477: 35,3673           77650                           GOTO
000478: 35,3674           75416                                    INCOR2     -3
000479: 35,3675                        NORMZI             =        36D

End of include-file MEASUREMENT_INCORPORATION.agc.  Parent file is MAIN.agc


