
Source Code


000002:                                                                                                  ## Copyright:   Public domain.
000003:                                                                                                  ## Filename:    MYSUBS.agc
000004:                                                                                                  ## Purpose:     A section of Comanche revision 072.
000005:                                                                                                  ##              It is part of the reconstructed source code for the first
000006:                                                                                                  ##              release of the software for the Command Module's (CM) Apollo
000007:                                                                                                  ##              Guidance Computer (AGC) for Apollo 13. No original listings
000008:                                                                                                  ##              of this program are available; instead, this file was recreated
000009:                                                                                                  ##              from a printout of Comanche 055, binary dumps of a set of
000010:                                                                                                  ##              Comanche 067 rope modules, and changelogs between Comanche 067
000011:                                                                                                  ##              and 072. It has been adapted such that the resulting bugger words
000012:                                                                                                  ##              exactly match those specified for Comanche 072 in NASA drawing
000013:                                                                                                  ##              2021153G, which gives relatively high confidence that the
000014:                                                                                                  ##              reconstruction is correct.
000015:                                                                                                  ## Assembler:   yaYUL
000016:                                                                                                  ## Contact:     Ron Burkey <info@sandroid.org>.
000017:                                                                                                  ## Website:     www.ibiblio.org/apollo/index.html
000018:                                                                                                  ## Mod history: 2024-05-13 MAS  Created from Comanche 067.
000019:
000020: 20,3650                                           BANK     20
000021: 21,2000                                           SETLOC   MYSUBS
000022: 21,2000                                           BANK
000023:
000024: 21,2054  E6,1510                                  EBANK=   KMPAC
000025: 21,2054     5110               SPCOS1             EQUALS   SPCOS
000026: 21,2054     5111               SPSIN1             EQUALS   SPSIN
000027: 21,2054     5110               SPCOS2             EQUALS   SPCOS
000028: 21,2054     5111               SPSIN2             EQUALS   SPSIN
000029:
000030: 21,2054                                           COUNT    21/DAPMS
000031:
000032:                                                                                                  #  ONE AND ONE HALF PRECISION MULTIPLICATION ROUTINE
000033:
000034: 21,2054           55512        SMALLMP            TS       KMPTEMP                               #  A(X+Y)
000035: 21,2055           00006                           EXTEND
000036: 21,2056           71511                           MP       KMPAC      +1
000037: 21,2057           55511                           TS       KMPAC      +1                         #  AY
000038: 21,2060           35035                           CAF      ZERO
000039: 21,2061           57510                           XCH      KMPAC
000040: 21,2062           00006                           EXTEND
000041: 21,2063           71512                           MP       KMPTEMP                               #  AX
000042: 21,2064           21511                           DAS      KMPAC                                 #  AX+AY
000043: 21,2065           00002                           TC       Q
000044:
000045:                                                                                                  #  SUBROUTINE FOR DOUBLE PRECISION ADDITIONS OF ANGLES
000046:                                                                                                  #  A AND L CONTAIN A DP(1S) ANGLE SCALED BY 180 DEGS TO BE ADDED TO KMPAC.
000047:                                                                                                  #  RESULT IS PLACED IN KMPAC.  TIMING = 6 MCT (22 MCT ON OVERFLOW)
000048:
000049: 21,2066           21511        DPADD              DAS      KMPAC
000050: 21,2067           00006                           EXTEND
000051: 21,2070           12105                           BZF      TSK        +1                         #  NO OVERFLOW
000052: 21,2071           11510                           CCS      KMPAC
000053: 21,2072           12106                           TCF      DPADD+                                #  + OVERFLOW
000054: 21,2073           12075                           TCF      +2
000055: 21,2074           12110                           TCF      DPADD-                                #  - OVERFLOW
000056: 21,2075           11511                           CCS      KMPAC      +1
000057: 21,2076           12113                           TCF      DPADD2+                               #  UPPER = 0, LOWER +
000058: 21,2077           12101                           TCF      +2
000059: 21,2100           40000                           COM                                            #  UPPER = 0, LOWER -
000060: 21,2101           65013                           AD       POSMAX                                #  LOWER = 0, A = 0
000061: 21,2102           55511                           TS       KMPAC      +1                         #  CAN NOT OVERFLOW
000062: 21,2103           35013                           CA       POSMAX                                #  UPPER WAS = 0
000063: 21,2104           55510        TSK                TS       KMPAC
000064: 21,2105           00002                           TC       Q
000065:
000066: 21,2106           65015        DPADD+             AD       NEGMAX                                #  KMPAC GREATER THAN 0
000067: 21,2107           12104                           TCF      TSK
000068:
000069: 21,2110           40000        DPADD-             COM
000070: 21,2111           65013                           AD       POSMAX                                #  KMPAC LESS THAN 0
000071: 21,2112           12104                           TCF      TSK
000072:
000073: 21,2113           65015        DPADD2+            AD       NEGMAX                                #  CAN NOT OVERFLOW
000074: 21,2114           55511                           TS       KMPAC      +1
000075: 21,2115           35015                           CA       NEGMAX                                #  UPPER WAS = 0
000076: 21,2116           12104                           TCF      TSK

End of include-file MYSUBS.agc.  Parent file is MAIN.agc


