
Source Code


000002:                                                                                                  ## Copyright:   Public domain.
000003:                                                                                                  ## Filename:    P32-P33,_P72-P73.agc
000004:                                                                                                  ## Purpose:     A section of Comanche revision 072.
000005:                                                                                                  ##              It is part of the reconstructed source code for the first
000006:                                                                                                  ##              release of the software for the Command Module's (CM) Apollo
000007:                                                                                                  ##              Guidance Computer (AGC) for Apollo 13. No original listings
000008:                                                                                                  ##              of this program are available; instead, this file was recreated
000009:                                                                                                  ##              from a printout of Comanche 055, binary dumps of a set of
000010:                                                                                                  ##              Comanche 067 rope modules, and changelogs between Comanche 067
000011:                                                                                                  ##              and 072. It has been adapted such that the resulting bugger words
000012:                                                                                                  ##              exactly match those specified for Comanche 072 in NASA drawing
000013:                                                                                                  ##              2021153G, which gives relatively high confidence that the
000014:                                                                                                  ##              reconstruction is correct.
000015:                                                                                                  ## Assembler:   yaYUL
000016:                                                                                                  ## Contact:     Ron Burkey <info@sandroid.org>.
000017:                                                                                                  ## Website:     www.ibiblio.org/apollo/index.html
000018:                                                                                                  ## Mod history: 2024-05-13 MAS  Created from Comanche 067.
000019:
000020:                                                                                                  #  COELLIPTIC SEQUENCE INITIATION (CSI) PROGRAMS (P32 AND P72)
000021:
000022:                                                                                                  #  MOD NO -1             LOG SECTION - P32-P35, P72-P75
000023:                                                                                                  #  MOD BY WHITE.P        DATE 1 JUNE 67
000024:
000025:                                                                                                  #  PURPOSE
000026:                                                                                                  #        (1)     TO CALCULATE PARAMETERS ASSOCIATED WITH THE FOLLOWING
000027:                                                                                                  #                CONCENTRIC FLIGHT PLAN MANEUVERS - THE CO-ELLIPTIC SEQUENCE
000028:                                                                                                  #                INITIATION (CSI) MANEUVER AND THE CONSTANT DELTA ALTITUDE
000029:                                                                                                  #                (CDH) MANEUVER.
000030:                                                                                                  #        (2)     TO CALCULATE THESE PARAMETERS BASED UPON MANEUVER DATA
000031:                                                                                                  #                APPROVED AND KEYED INTO THE DSKY BY THE ASTRONAUT.
000032:                                                                                                  #        (3)     TO DISPLAY TO THE ASTRONAUT AND THE GROUND DEPENDENT VARIABLES
000033:                                                                                                  #                ASSOCIATED WITH THE CONCENTRIC FLIGNT PLAN MANEUVERS FOR
000034:                                                                                                  #                APPROVAL BY THE ASTRONAUT/GROUND.
000035:                                                                                                  #        (4)     TO STORE THE CSI TARGET PARAMETERS FOR USE BY THE DESIRED
000036:                                                                                                  #                THRUSTING PROGRAM.
000037:
000038:                                                                                                  #  ASSUMPTIONS
000039:                                                                                                  #        (1)     AT A SELECTED TPI TIME THE LINE OF SIGHT BETWEEN THE ACTIVE
000040:                                                                                                  #                AND PASSIVE VEHICLES IS SELECTED TO BE A PRESCRIBED ANGLE (E)
000041:                                                                                                  #                FROM THE HORIZONTAL PLANE DEFINED BY THE ACTIVE VEHICLE
000042:                                                                                                  #                POSITION.
000043:                                                                                                  #        (2)     THE TIME BETWEEN CSI IGNITION AND CDH IGNITION MUST BE
000044:                                                                                                  #                COMPUTED TO BE GREATER THAN 10 MINUTES FOR SUCCESSFUL
000045:                                                                                                  #                COMPLETION OF THE PROGRAM.
000046:                                                                                                  #        (3)     THE TIME BETWEEN CDH IGNITION AND TPI IGNITION MUST BE
000047:                                                                                                  #                COMPUTED TO BE GREATER THAN 10 MINUTES FOR SUCCESSFUL
000048:                                                                                                  #                COMPLETION OF THE PROGRAM.
000049:                                                                                                  #        (4)     CDH DELTA V IS SELECTED TO MINIMIZE THE VARIATION OF THE
000050:                                                                                                  #                ALTITUDE DIFFERENCE BETWEEN THE ORBITS.
000051:                                                                                                  #        (5)     CSI BURN IS DEFINED SUCH THAT THE IMPULSIVE DELTA V IS IN THE
000052:                                                                                                  #                HORIZONTAL PLANE DEFINED BY THE ACTIVE VEHICLE POSITION AT CSI
000053:                                                                                                  #                IGNITION.
000054:                                                                                                  #        (6)     THE PERICENTER ALTITUDE OF THE ORBIT FOLLOWING CSI AND CDH
000055:                                                                                                  #                MUST BE GREATER THAN 35,000 FT (LUNAR ORBIT) OR 85 NM (EARTH
000056:                                                                                                  #                ORBIT) FOR SUCCESSFUL COMPLETION OF THIS PROGRAM.
000057:                                                                                                  #        (7)     THE CSI AND CDH MANEUVERS ARE ORIGINALLY ASSUMED TO BE
000058:                                                                                                  #                PARALLEL TO THE PLANE OF THE CSM ORBIT.  HOWEVER CREW
000059:                                                                                                  #                MODIFICATION OF DELTA V (LV) COMPONENTS MAY RESULT IN AN
000060:                                                                                                  #                OUT-OF-PLANE CSI MANEUVER.
000061:                                                                                                  #        (8)     STATE VECTOR UPDATES BY P27 ARE DISALLOWED DURING AUTOMATIC
000062:                                                                                                  #                STATE VECTOR UPDATING INITIATED BY P20 (SEE ASSUMPTION 10).
000063:                                                                                                  #        (9)     COMPUTED VARIABLES MAY BE STORED FOR LATER VERIFICATION BY
000064:                                                                                                  #                THE GROUND.  THESE STORAGE CAPABILITIES ARE NORMALLY LIMITED
000065:                                                                                                  #                ONLY TO THE PARAMETERS FOR ONE THRUSTING MANEUVER AT A TIME
000066:                                                                                                  #                EXCEPT FOR CONCENTRIC FLIGHT PLAN MANEUVER SEQUENCES.
000067:                                                                                                  #        (10)    THE RENDEZVOUS RADAR MAY OR MAY NOT BE USED TO UPDATE THE LM
000068:                                                                                                  #                OR CSM STATE VECTORS FOR THIS PROGRAM.  IF RADAR USE IS
000069:                                                                                                  #                DESIRED THE RADAR WAS TURNED ON AND LOCKED ON THE CSM BY
000070:                                                                                                  #                PREVIOUS SELECTION OF P20.  RADAR SIGHTING MARKS WILL BE MADE
000071:                                                                                                  #                AUTOMATICALLY APPROXIMATELY ONCE A MINUTE WHEN ENABLED BY THE
000072:                                                                                                  #                TRACK AND UPDATE FLAGS (SEE P20).  THE RENDEZVOUS TRACKING
000073:                                                                                                  #                MARK COUNTER IS ZEROED BY THE SELECTION OF P20 AND AFTER EACH
000074:                                                                                                  #                THRUSTING MANEUVER.
000075:                                                                                                  #        (11)    THE ISS NEED NOT BE ON TO COMPLETE THIS PROGRAM.
000076:                                                                                                  #        (12)    THE OPERATION OF THE PROGRAM UTILIZES THE FOLLOWING FLAGS -
000077:
000078:                                                                                                  #                        ACTIVE VEHICLE FLAG - DESIGNATES THE VEHICLE WHICH IS
000079:                                                                                                  #                        DOING RENDEZVOUS THRUSTING MANEUVERS TO THE PROGRAM WHICH
000080:                                                                                                  #                        CALCULATES THE MANEUVER PARAMETERS.  SET AT THE START OF
000081:                                                                                                  #                        EACH RENDEZVOUS PRE-THRUSTING PROGRAM.
000082:
000083:                                                                                                  #                        FINAL FLAG - SELECTS FINAL PROGRAM DISPLAYS AFTER CREW HAS
000084:                                                                                                  #                        COMPLETED THE FINAL MANEUVER COMPUTATION AND DISPLAY
000085:                                                                                                  #                        CYCLE.
000086:
000087:                                                                                                  #                        EXTERNAL DELTA V STEERING FLAG - DESIGNATES THE TYPE OF
000088:                                                                                                  #                        STEERING REQUIRED FOR EXECUTION OF THIS MANEUVER BY THE
000089:                                                                                                  #                        THRUSTING PROGRAM SELECTED AFTER COMPLETION OF THIS
000090:                                                                                                  #                        PROGRAM.
000091:
000092:                                                                                                  #        (13)    IT IS NORMALLY REQUIRED THAT THE ISS BE ON FOR 1 HOUR PRIOR TO
000093:                                                                                                  #                A THRUSTING MANEUVER.
000094:
000095:                                                                                                  #        (14)    THIS PROGRAM IS SELECTED BY THE ASTRONAUT BY DSKY ENTRY -
000096:
000097:                                                                                                  #                        P32 IF THIS VEHICLE IS ACTIVE VEHICLE.
000098:
000099:                                                                                                  #                        P72 IF THIS VEHICLE IS PASSIVE VEHICLE.
000100:
000101:                                                                                                  #  INPUT
000102:                                                                                                  #        (1)     TCSI            TIME OF THE CSI MANEUVER
000103:                                                                                                  #        (2)     NN              NUMBER OF APSIDAL CROSSINGS THRU WHICH THE ACTIVE
000104:                                                                                                  #                                VEHICLE ORBIT CAN BE ADVANCED TO OBTAIN THE CDH
000105:                                                                                                  #                                MANEUVER POINT
000106:                                                                                                  #        (3)     ELEV            DESIRED LOS ANGLE AT TPI
000107:                                                                                                  #        (4)     TTPI            TIME OF THE TPI MANEUVER
000108:
000109:                                                                                                  #  OUTPUT
000110:                                                                                                  #        (1)     TRKMKCNT        NUMBER OF MARKS
000111:                                                                                                  #        (2)     TTOGO           TIME TO GO
000112:                                                                                                  #        (3)     +MGA            MIDDLE GIMBAL ANGLE
000113:                                                                                                  #        (4)     DIFFALT         DELTA ALTITUDE AT CDH
000114:                                                                                                  #        (5)     T1TOT2          DELTA TIME FROM CSI TO CDH
000115:                                                                                                  #        (6)     T2TOT3          DELTA TIME FROM CDH TO TPI
000116:                                                                                                  #        (7)     DELVLVC         DELTA VELOCITY AT CSI - LOCAL VERTICAL COORDINATES
000117:                                                                                                  #        (8)     DELVLVC         DELTA VELOCITY AT CDH - LOCAL VERTICAL COORDINATES
000118:
000119:                                                                                                  #  DOWNLINK
000120:                                                                                                  #        (1)     TCSI            TIME OF THE CSI MANEUVER
000121:                                                                                                  #        (2)     TCDH            TIME OF THE CDH MANEUVER
000122:                                                                                                  #        (3)     TTPI            TIME OF THE TPI MANEUVER
000123:                                                                                                  #        (4)     TIG             TIME OF THE CSI MANEUVER
000124:                                                                                                  #        (5)     DELVEET1        DELTA VELOCITY AT CSI - REFERENCE COORDINATES
000125:                                                                                                  #        (6)     DELVEET2        DELTA VELOCITY AT CDH - REFERENCE COORDINATES
000126:                                                                                                  #        (7)     DIFFALT         DELTA ALTITUDE AT CDH
000127:                                                                                                  #        (8)     NN              NUMBER OF APSIDAL CROSSINGS THRU WHICH THE ACTIVE
000128:                                                                                                  #                                VEHICLE ORBIT CAN BE ADVANCED TO OBTAIN THE CDH
000129:                                                                                                  #                                MANEUVER POINT
000130:                                                                                                  #        (9)     ELEV            DESIRED LOS ANGLE AT TPI
000131:
000132:                                                                                                  #  COMMUNICATION TO THRUSTING PROGRAMS
000133:                                                                                                  #        (1)     TIG             TIME OF THE CSI MANEUVER
000134:                                                                                                  #        (2)     RTIG            POSITION OF ACTIVE VEHICLE AT CSI - BEFORE ROTATION
000135:                                                                                                  #                                INTO PLANE OF PASSIVE VEHICLE
000136:                                                                                                  #        (3)     VTIG            VELOCITY OF ACTIVE VEHICLE AT CSE - BEFORE ROTATION
000137:                                                                                                  #                                INTO PLANE OF PASSIVE VEHICLE
000138:                                                                                                  #        (4)     DELVSIN         DELTA VELOCITY AT CSI - REFERENCE COORDINATES
000139:                                                                                                  #        (5)     DELVSAB         MAGNITUDE OF DELTA VELOCITY AT CSI
000140:                                                                                                  #        (6)     XDELVFLG        SET TO INDICATE EXTERNAL DELTA V VG COMPUTATION
000141:
000142:                                                                                                  #  SUBROUTINES USED
000143:                                                                                                  #        AVFLAGA
000144:                                                                                                  #        AVFLAGP
000145:                                                                                                  #        P20FLGON
000146:                                                                                                  #        VARALARM
000147:                                                                                                  #        BANKCALL
000148:                                                                                                  #        GOFLASH
000149:                                                                                                  #        GOTOPOOH
000150:                                                                                                  #        VNPOOH
000151:                                                                                                  #        GOFLASHR
000152:                                                                                                  #        BLANKET
000153:                                                                                                  #        ENDOFJOB
000154:                                                                                                  #        SELECTMU
000155:                                                                                                  #        ADVANCE
000156:                                                                                                  #        INTINT
000157:                                                                                                  #        PASSIVE
000158:                                                                                                  #        CSI/A
000159:                                                                                                  #        S32/33.1
000160:                                                                                                  #        DISDVLVC
000161:                                                                                                  #        VN1645
000162:
000163: 35,3445                                           BANK     35
000164: 04,2000                                           SETLOC   CSI/CDH1
000165: 04,2000                                           BANK
000166: 04,3303  E4,1770                                  EBANK=   SUBEXIT
000167: 04,3303                                           COUNT    35/P3272
000168: 04,3303           04627        P32                TC       AVFLAGA
000169: 04,3304           03306                           TC       P32STRT
000170: 04,3305           04642        P72                TC       AVFLAGP
000171: 04,3306           06006        P32STRT            TC       INTPRET
000172: 04,3307           77745                           DLOAD
000173: 04,3310           11566                                    ZEROVEC
000174: 04,3311           03754                           STORE    CENTANG
000175: 04,3312           77776                           EXIT
000176: 04,3313           03331                           TC       P32/P72A
000177: 04,3314           77734        ALMXITA            SXA,2
000178: 04,3315           03664                                    CSIALRM
000179: 04,3316           77740        ALMXIT             LXC,1
000180: 04,3317           03664                                    CSIALRM
000181: 04,3320           77533                           SLOAD*   EXIT
000182: 04,3321           15653                                    ALARM/TB   -1,1
000183: 04,3322           30154                           CA       MPAC
000184: 04,3323           05770                           TC       VARALARM
000185: 04,3324           35064                           CAF      V05N09
000186: 04,3325           04676                           TC       BANKCALL
000187: 04,3326           20720                           CADR     GOFLASH
000188: 04,3327           04106                           TC       GOTOPOOH
000189: 04,3330           03324                           TC       -4
000190: 04,3331           04647        P32/P72A           TC       P20FLGON
000191: 04,3332           06006                           TC       INTPRET
000192: 04,3333           77745                           DLOAD
000193: 04,3334           11566                                    ZEROVEC
000194: 04,3335           03766                           STORE    NN
000195: 04,3336           77776                           EXIT
000196: 04,3337           34656                           CAF      V06N11                                #  TCSI
000197: 04,3340           04575                           TC       VNPOOH
000198: 04,3341           34615                           CAF      V06N55                                #  NN. ELEV(RGLOS)
000199: 04,3342           04676                           TC       BANKCALL
000200: 04,3343           20720                           CADR     GOFLASH
000201: 04,3344           04106                           TC       GOTOPOOH
000202: 04,3345           03347                           TC       +2
000203: 04,3346           03341                           TC       -5
000204: 04,3347           34614                           CAF      V06N37                                #  TTPI
000205: 04,3350           04575                           TC       VNPOOH
000206: 04,3351           06006                           TC       INTPRET
000207: 04,3352           77745                           DLOAD
000208: 04,3353           02637                                    TCSI
000209: 04,3354           37413                           STCALL   TIG
000210: 04,3355           10712                                    SELECTMU
000211: 04,3356           77624        P32/P72B           CALL
000212: 04,3357           76660                                    ADVANCE
000213: 04,3360           77201                           SETPD    VLOAD
000214: 04,3361           00001                                    0D
000215: 04,3362           03512                                    VPASS1
000216: 04,3363           65315                           PDVL     PDDL
000217: 04,3364           03756                                    RPASS1
000218: 04,3365           02637                                    TCSI
000219: 04,3366           65325                           PDDL     PDDL
000220: 04,3367           03663                                    TTPI
000221: 04,3370           11630                                    2PISC
000222: 04,3371           41512                           SL2      PUSH
000223: 04,3372           77624                           CALL
000224: 04,3373           72705                                    INTINT
000225: 04,3374           77624                           CALL
000226: 04,3375           45247                                    PASSIVE
000227: 04,3376           77624                           CALL
000228: 04,3377           15704                                    CSI/A
000229: 04,3400           43014        P32/P72C           BON      SET
000230: 04,3401           01311                                    FINALFLG
000231: 04,3402           11404                                    P32/P72D
000232: 04,3403           00470                                    UPDATFLG
000233: 04,3404           52145        P32/P72D           DLOAD    GOTO
000234: 04,3405           02547                                    T1TOT2
000235: 04,3406           30002                                    P32/P72E
000236: 14,2000                                           SETLOC   CSI/CDH3
000237: 14,2000                                           BANK
000238: 14,2002           02547        P32/P72E           STORE    T1TOT2
000239: 14,2003           51025                           DSU      BPL
000240: 14,2004           15652                                    60MIN
000241: 14,2005           30002                                    P32/P72E
000242: 14,2006           52145                           DLOAD    GOTO
000243: 14,2007           03656                                    T2TOT3
000244: 14,2010           11407                                    P32/P72F
000245: 04,2000                                           SETLOC   CSI/CDH1
000246: 04,2000                                           BANK
000247: 04,3407           03656        P32/P72F           STORE    T2TOT3
000248: 04,3410           51025                           DSU      BPL
000249: 04,3411           15652                                    60MIN
000250: 04,3412           11407                                    P32/P72F
000251: 04,3413           77776                           EXIT
000252: 04,3414           34660                           CAF      V06N75
000253: 04,3415           04575                           TC       VNPOOH
000254: 04,3416           06006                           TC       INTPRET
000255: 04,3417           45175                           VLOAD    CALL
000256: 04,3420           02445                                    DELVEET1
000257: 04,3421           73457                                    S32/33.1
000258: 04,3422           26445                           STOVL    DELVEET1
000259: 04,3423           02453                                    RACT2
000260: 04,3424           26541                           STOVL    RACT1
000261: 04,3425           03667                                    DELVEET2
000262: 04,3426           45170                           AXT,1    CALL
000263: 04,3427           01522                           VN       0682
000264: 04,3430           76640                                    DISDVLVC
000265: 04,3431           77745                           DLOAD
000266: 04,3432           03663                                    TTPI
000267: 04,3433           36641                           STCALL   TTPIO
000268: 04,3434           73002                                    VN1645
000269: 04,3435           77650                           GOTO
000270: 04,3436           11356                                    P32/P72B
000271:
000272:                                                                                                  #  CONSTANT DELTA HEIGHT (CDH) PROGRAMS (P33 AND P73)
000273:                                                                                                  #  MOD NO -1                     LOG SECTION - P32-P35, P72-P75
000274:                                                                                                  #  MOD BY WHITE.P                DATE  1JUNE67
000275:
000276:                                                                                                  #  PURPOSE
000277:
000278:                                                                                                  #        (1)     TO CALCULATE PARAMETERS ASSOCIATED WITH THE CONSTANT DELTA
000279:                                                                                                  #                ALTITUDE MANEUVER (CDH).
000280:
000281:                                                                                                  #        (2)     TO CALCULATE THESE PARAMETERS BASED UPON MANEUVER DATA
000282:                                                                                                  #                APPROVED AND KEYED INTO THE DSKY BY THE ASTRONAUT.
000283:
000284:                                                                                                  #        (3)     TO DISPLAY TO THE ASTRONAUT AND THE GROUND DEPENDENT VARIABLES
000285:                                                                                                  #                ASSOCIATED WITH THE CDH MANEUVER FOR APPROVAL BY THE
000286:                                                                                                  #                ASTRONAUT/GROUND.
000287:
000288:                                                                                                  #        (4)     TO STORE THE CDH TARGET PARAMETERS FOR USE BY THE DESIRED
000289:                                                                                                  #                THRUSTING PROGRAM.
000290:
000291:                                                                                                  #  ASSUMPTIONS
000292:
000293:                                                                                                  #        (1)     THIS PROGRAM IS BASED UPON PREVIOUS COMPLETION OF THE
000294:                                                                                                  #                CO-ELLIPTIC SEQUENCE INITIATION (CSI) PROGRAM (P32/P72).
000295:                                                                                                  #                THERFORE -
000296:
000297:                                                                                                  #                (A)     AT A SELECTED TPI TIME (NOW IN STORAGE) THE LINE OF SIGHT
000298:                                                                                                  #                        BETWEEN THE ACTIVE AND PASSIVE VEHICLES WAS SELECTED TO BE
000299:                                                                                                  #                        A PRESCRIBED ANGLE (E) (NOW IN STORAGE) FROM THE
000300:                                                                                                  #                        HORIZONTAL PLANE DEFINED BY THE ACTIVE VEHICLE POSITION.
000301:
000302:                                                                                                  #                (B)     THE TIME BETWEEN CSI IGNITION AND CDH IGNITION WAS
000303:                                                                                                  #                        COMPUTED TO BE GREATER THAN 10 MINUTES.
000304:
000305:                                                                                                  #                (C)     THE TIME BETWEEN CDH IGNITION AND TPI IGNITION WAS
000306:                                                                                                  #                        COMPUTED TO BE GREATER THAN 10 MINUTES.
000307:
000308:                                                                                                  #                (D)     THE VARIATION OF THE ALTITUDE DIFFERENCE BETWEEN THE
000309:                                                                                                  #                        ORBITS WAS MINMIZED.
000310:
000311:                                                                                                  #                (E)     CSI BURN WAS DEFINED SUCH THAT THE IMPULSIVE DELTA V WAS
000312:                                                                                                  #                        IN THE HORIZONTAL PLANE DEFINED BY ACTIVE VEHICLE
000313:                                                                                                  #                        POSITION AT CSI IGNITION.
000314:
000315:                                                                                                  #                (F)     THE PERICENTER ALTITUDES OF THE ORBITS FOLLOWING CSI AND
000316:                                                                                                  #                        CDH WERE COMPUTED TO BE GREATER THAN 35,000 FT FOR LUNAR
000317:                                                                                                  #                        ORBIT OR 85 NM FOR EARTH ORBIT.
000318:
000319:                                                                                                  #                (G)     THE CSI AND CDH MANEUVERS WERE ASSUMED TO BE PARALLEL TO
000320:                                                                                                  #                        THE PLANE OF THE PASSIVE VEHICLE ORBIT.  HOWEVER, CREW
000321:                                                                                                  #                        MODIFICATION OF DELTA V (LV) COMPONENTS MAY HAVE RESULTED
000322:                                                                                                  #                        IN AN OUT-OF-PLANE MANEUVER.
000323:
000324:                                                                                                  #        (2)     STATE VECTOR UPDATES BY P27 ARE DISALLOWED DURING AUTOMATIC
000325:                                                                                                  #                STATE VECTOR UPDATING INITIATED BY P20 (SEE ASSUMPTION 4).
000326:
000327:                                                                                                  #        (3)     COMPUTED VARIABLES MAY BE STORED FOR LATER VERIFICATION BY
000328:                                                                                                  #                THE GROUND.  THESE STORAGE CAPABILITES ARE NORMALLY LIMITED
000329:                                                                                                  #                ONLY TO THE PARAMETERS FOR ONE THRUSTING MANEUVER AT A TIME
000330:                                                                                                  #                EXCEPT FOR CONCENTRIC FLIGHT PLAN MANEUVER SEQUENCES.
000331:
000332:                                                                                                  #        (4)     THE RENDEZVOUS RADAR MAY OR MAY NOT BE USED TO UPDATE THE LM
000333:                                                                                                  #                OR CSM STATE VECTORS FOR THIS PROGRAM.  IF RADAR USE IS
000334:                                                                                                  #                DESIRED THE RADAR WAS TURNED ON AND LOCKED ON THE CSM BY
000335:                                                                                                  #                PREVIOUS SELECTION OF P20.  RADAR SIGHTING MARKS WILL BE MADE
000336:                                                                                                  #                AUTOMATICALLY APPROXIMATELY ONCE A MINUTE WHEN ENABLED BY THE
000337:                                                                                                  #                TRACK AND UPDATE FLAGS (SEE P20).  THE RENDEZVOUS TRACKING
000338:                                                                                                  #                MARK COUNTER IS ZEROED BY THE SELECTION OF P20 AND AFTER EACH
000339:                                                                                                  #                THRUSTING MANEUVER.
000340:
000341:                                                                                                  #        (5)     THE ISS NEED NOT BE ON TO COMPLETE THIS PROGRAM.
000342:
000343:                                                                                                  #        (6)     THE OPERATION OF THE PROGRAM UTILIZES THE FOLLOWING FLAGS -
000344:
000345:                                                                                                  #                        ACTIVE VEGICLE FLAG - DESIGNATES THE VEHICLE WHICH IS
000346:                                                                                                  #                        DOING RENDEZVOUS THRUSTING MANEUVERS TO THE PROGRAM WHICH
000347:                                                                                                  #                        CALCULATES THE MANEUVER PARAMETERS.  SET AT THE START OF
000348:                                                                                                  #                        EACH RENDEZVOUS PRE-THRUSTING PROGRAM.
000349:
000350:                                                                                                  #                        FINAL FLAG - SELECTS FINAL PROGRAM DISPLAYS AFTER CREW HAS
000351:                                                                                                  #                        COMPLETED THE FINAL MANEUVER COMPUTATION AND DISPLAY
000352:                                                                                                  #                        CYCLE.
000353:
000354:                                                                                                  #                        EXTERNAL DELTA V STEERING FLAG - DESIGNATES THE TYPE OF
000355:                                                                                                  #                        STEERING REQUIRED FOR EXECUTION OF THIS MANEUVER BY THE
000356:                                                                                                  #                        THRUSTING PROGRAM SELECTED AFTER COMPLETION OF THIS
000357:                                                                                                  #                        PROGRAM.
000358:
000359:                                                                                                  #        (7)     IT IS NORMALLY REQUIRED THAT THE ISS BE ON FOR 1 HOUR PRIOR TO
000360:                                                                                                  #                A THRUSTING MANEUVER.
000361:
000362:                                                                                                  #        (8)     THIS PROGRAM IS SELECTED BY THE ASTRONAUT BY DSKY ENTRY -
000363:
000364:                                                                                                  #                        P33 IF THIS VEHICLE IS ACTIVE VEHICLE.
000365:
000366:                                                                                                  #                        P73 IF THIS VEHICLE IS PASSIVE VEHICLE.
000367:
000368:                                                                                                  #  INPUT
000369:
000370:                                                                                                  #        (1)     TTPI0   TIME OF THE TPI MANEUVER - SAVED FROM P32/P72
000371:                                                                                                  #        (2)     ELEV    DESIRED LOS ANGLE AT TPI - SAVED FROM P32/P72
000372:                                                                                                  #        (3)     TCDH    TIME OF THE CDH MANEUVER
000373:
000374:                                                                                                  #  OUTPUT
000375:
000376:                                                                                                  #        (1)     TRKMKCNT        NUMBER OF MARKS
000377:                                                                                                  #        (2)     TTOGO           TIME TO GO
000378:                                                                                                  #        (3)     +MGA            MIDDLE GIMBAL ANGLE
000379:                                                                                                  #        (4)     DIFFALT         DELTA ALTITUDE AT CDH
000380:                                                                                                  #        (5)     T2TOT3          DELTA TIME FROM CDH TO COMPUTED TPI
000381:                                                                                                  #        (6)     NOMTPI          DELTA TIME FROM NOMINAL TPI TO COMPUTED TPI
000382:                                                                                                  #        (7)     DELVLVC         DELTA VELOCITY AT CDH - LOCAL VERTICAL COORDINATES
000383:
000384:                                                                                                  #  DOWNLINK
000385:
000386:                                                                                                  #        (1)     TCDH            TIME OF THE CDH MANEUVER
000387:                                                                                                  #        (2)     TTPI            TIME OF THE TPI MANEUVER
000388:                                                                                                  #        (3)     TIG             TIME OF THE CDH MANEUVER
000389:                                                                                                  #        (4)     DELVEET2        DELTA VELOCITY AT CDH - REFERENCE COORDINATES
000390:                                                                                                  #        (5)     DIFFALT         DELTA ALTITUDE AT CDH
000391:                                                                                                  #        (6)     ELEV            DESIRED LOS ANGLE AT TPI
000392:
000393:                                                                                                  #  COMMUNICATION TO THRUSTING PROGRAMS
000394:
000395:                                                                                                  #        (1)     TIG             TIME OF THE CDH MANEUVER
000396:                                                                                                  #        (2)     RTIG            POSITION OF ACTIVE VEHICLE AT CDH - BEFORE ROTATION
000397:                                                                                                  #                                INTO PLANE OF PASSIVE VEHICLE
000398:                                                                                                  #        (3)     VTIG            VELOCITY OF ACTIVE VEHICLE AT CDH - BEFORE ROTATION
000399:                                                                                                  #                                INTO PLANE OF PASSIVE VEHICLE
000400:                                                                                                  #        (4)     DELVSIN         DELTA VELOCITY AT CDH - REFERENCE COORDINATES
000401:                                                                                                  #        (5)     DELVSAB         MAGNITUDE OF DELTA VELOCITY AT CDH
000402:                                                                                                  #        (6)     XDELVFLG        SET TO INDICATE EXTERNAL DELTA V VG COMPUTATION
000403:
000404:                                                                                                  #  SUBROUTINES USED
000405:
000406:                                                                                                  #        AVFLAGA
000407:                                                                                                  #        AVFLAGP
000408:                                                                                                  #        P20FLGON
000409:                                                                                                  #        VNPOOH
000410:                                                                                                  #        SELECTMU
000411:                                                                                                  #        ADVANCE
000412:                                                                                                  #        CDHMVR
000413:                                                                                                  #        INTINT3P
000414:                                                                                                  #        ACTIVE
000415:                                                                                                  #        PASSIVE
000416:                                                                                                  #        S33/34.1
000417:                                                                                                  #        ALARM
000418:                                                                                                  #        BANKCALL
000419:                                                                                                  #        GOFLASH
000420:                                                                                                  #        GOTOPOOH
000421:                                                                                                  #        S32/33.1
000422:                                                                                                  #        VN1645
000423:
000424: 04,3437                                           COUNT    35/P3373
000425:
000426: 04,3437           04627        P33                TC       AVFLAGA
000427: 04,3440           03442                           TC       P33/P73A
000428: 04,3441           04642        P73                TC       AVFLAGP
000429: 04,3442           04647        P33/P73A           TC       P20FLGON
000430: 04,3443           34657                           CAF      V06N13                                #  TCDH
000431: 04,3444           04575                           TC       VNPOOH
000432: 04,3445           06006                           TC       INTPRET
000433: 04,3446           77745                           DLOAD
000434: 04,3447           02641                                    TTPIO
000435: 04,3450           17663                           STODL    TTPI
000436: 04,3451           02635                                    TCDH
000437: 04,3452           37413                           STCALL   TIG
000438: 04,3453           10712                                    SELECTMU
000439: 04,3454           77624        P33/P73B           CALL
000440: 04,3455           76660                                    ADVANCE
000441: 04,3456           77624                           CALL
000442: 04,3457           13232                                    CDHMVR
000443: 04,3460           77201                           SETPD    VLOAD
000444: 04,3461           00001                                    0D
000445: 04,3462           03546                                    VACT3
000446: 04,3463           45115                           PDVL     CALL
000447: 04,3464           02453                                    RACT2
000448: 04,3465           63675                                    INTINT3P
000449: 04,3466           77624                           CALL
000450: 04,3467           45237                                    ACTIVE
000451: 04,3470           77201                           SETPD    VLOAD
000452: 04,3471           00001                                    0D
000453: 04,3472           02617                                    VPASS2
000454: 04,3473           45115                           PDVL     CALL
000455: 04,3474           02625                                    RPASS2
000456: 04,3475           63675                                    INTINT3P
000457: 04,3476           77624                           CALL
000458: 04,3477           45247                                    PASSIVE
000459: 04,3500           43145                           DLOAD    SET
000460: 04,3501           11566                                    ZEROVEC
000461: 04,3502           03461                                    ITSWICH
000462: 04,3503           36364                           STCALL   NOMTPI
000463: 04,3504           72216                                    S33/34.1
000464: 04,3505           77454                           BZE      EXIT
000465: 04,3506           24000                                    P33/P73C
000466: 04,3507           05664                           TC       ALARM
000467: 04,3510           00611                           OCT      611
000468: 04,3511           35064                           CAF      V05N09
000469: 04,3512           04676                           TC       BANKCALL
000470: 04,3513           20720                           CADR     GOFLASH
000471: 04,3514           04106                           TC       GOTOPOOH
000472: 04,3515           03517                           TC       +2
000473: 04,3516           03442                           TC       P33/P73A
000474: 04,3517           06006                           TC       INTPRET
000475: 04,3520           77745                           DLOAD
000476: 04,3521           11566                                    ZEROVEC
000477: 04,3522           36364                           STCALL   NOMTPI
000478: 04,3523           24000                                    P33/P73C
000479: 12,2000                                           SETLOC   CSI/CDH2
000480: 12,2000                                           BANK
000481:
000482: 12,2000           43014        P33/P73C           BON      SET
000483: 12,2001           01311                                    FINALFLG
000484: 12,2002           24004                                    P33/P73D
000485: 12,2003           00470                                    UPDATFLG
000486: 12,2004           43345        P33/P73D           DLOAD    DAD
000487: 12,2005           02364                                    NOMTPI
000488: 12,2006           03663                                    TTPI
000489: 12,2007           03663                           STORE    TTPI
000490: 12,2010           52025                           DSU      GOTO
000491: 12,2011           02635                                    TCDH
000492: 12,2012           11524                                    P33/P73E
000493: 04,2000                                           SETLOC   CSI/CDH1
000494: 04,2000                                           BANK
000495:
000496: 04,3524           51025        P33/P73E           DSU      BPL
000497: 04,3525           15652                                    60MIN
000498: 04,3526           11524                                    P33/P73E
000499: 04,3527           77615                           DAD
000500: 04,3530           15652                                    60MIN
000501: 04,3531           16547                           STODL    T1TOT2
000502: 04,3532           03663                                    TTPI
000503: 04,3533           41425                           DSU      PUSH
000504: 04,3534           02641                                    TTPIO
000505: 04,3535           45246        P33/P73F           ABS      DSU
000506: 04,3536           15652                                    60MIN
000507: 04,3537           43244                           BPL      DAD
000508: 04,3540           11535                                    P33/P73F
000509: 04,3541           15652                                    60MIN
000510: 04,3542           45565                           SIGN     STADR
000511: 04,3543           74121                           STORE    T2TOT3
000512: 04,3544           77776                           EXIT
000513: 04,3545           34660                           CAF      V06N75
000514: 04,3546           04575                           TC       VNPOOH
000515: 04,3547           06006                           TC       INTPRET
000516: 04,3550           45175                           VLOAD    CALL
000517: 04,3551           03667                                    DELVEET2
000518: 04,3552           73457                                    S32/33.1
000519: 04,3553           37667                           STCALL   DELVEET2
000520: 04,3554           73002                                    VN1645
000521: 04,3555           77650                           GOTO
000522: 04,3556           11454                                    P33/P73B
000523:
000524:                                                                                                  #  ..... AVFLAGA/P .....
000525:
000526:                                                                                                  #  ..... DISDVLVC .....
000527:
000528:                                                                                                  #  SUBROUTINES USED
000529:
000530:                                                                                                  #        S32/33.X
000531:                                                                                                  #        VNPOOH
000532:
000533: 37,2000                                           SETLOC   CDHTAG3
000534: 37,2000                                           BANK
000535:
000536: 37,2640           03405        DISDVLVC           STORE    DELVLVC
000537: 37,2641           45020                           STQ      CALL
000538: 37,2642           01340                                    NORMEX
000539: 37,2643           26227                                    S32/33.X
000540: 37,2644           64375                           VLOAD    MXV
000541: 37,2645           03405                                    DELVLVC
000542: 37,2646           00001                                    0D
000543: 37,2647           66172                           VSL1     SXA,1
000544: 37,2650           02365                                    VERBNOUN
000545: 37,2651           03405                           STORE    DELVLVC
000546: 37,2652           77776                           EXIT
000547: 37,2653           31765                           CA       VERBNOUN
000548: 37,2654           04575                           TC       VNPOOH
000549: 37,2655           06006                           TC       INTPRET
000550: 37,2656           77650                           GOTO
000551: 37,2657           01340                                    NORMEX
000552:    4000                                           SETLOC   FFTAG12
000553:    4000                                           BANK
000554:
000555:    4656           01413        V06N11             VN       0611
000556:    4657           01415        V06N13             VN       0613
000557:    4660           01513        V06N75             VN       0675
000558:
000559:    4661           01462        V06N50             VN       0650
000560:
000561:
000562:                                                                                                  #  ..... CSI/A .....
000563:
000564:                                                                                                  #  SUBROUTINES USED
000565:
000566:                                                                                                  #        VECSHIFT
000567:                                                                                                  #        TIMETHET
000568:                                                                                                  #        PERIAPO
000569:                                                                                                  #        SHIFTR1
000570:                                                                                                  #        INTINT2C
000571:                                                                                                  #        CDHMVR
000572:                                                                                                  #        PERIAPO1
000573:                                                                                                  #        INTINT
000574:                                                                                                  #        ACTIVE
000575:
000576: 34,3763                                           BANK     34
000577: 06,2000                                           SETLOC   CSIPROG
000578: 06,2000                                           BANK
000579: 06,3651  E4,1770                                  EBANK=   SUBEXIT
000580: 06,3651                                           COUNT    34/CSI
000581:
000582: 06,3651           00025 37100  60MIN              2DEC     360000     B-28
000583:
000584: 06,3653           00600        ALARM/TB           OCT      00600                                 #  NO 1
000585: 06,3654           00601                           OCT      00601                                 #     2
000586: 06,3655           00602                           OCT      00602                                 #     3
000587: 06,3656           00603                           OCT      00603                                 #     4
000588: 06,3657           00604                           OCT      00604                                 #     5
000589: 06,3660           00605                           OCT      00605                                 #     6
000590: 06,3661           00606                           OCT      00606                                 #     7
000591: 06,3662           00000 00020  LOOPMX             2DEC     16         B-28
000592:
000593: 06,3664           00003 34661  INITST             2DEC     .03048     B-7                        #  INITIAL DELDV = 10 FPS
000594:
000595: 06,3666           00606 04467  DVMAX1             2DEC     3.0480     B-7                        #  MAXIMUM DV1 = 1000 FPS
000596:
000597: 06,3670           00601 33216  DVMAX2             2DEC     3.014472   B-7                        #                 989 FPS
000598:
000599: 06,3672           10000 00000  1DPB2              2DEC     1.0        B-2
000600:
000601: 06,3674           00000 00001  1DPB28             2DEC     1          B-28
000602:
000603: 06,3676           00000 01177  EPSILN1            2DEC     .0003048   B-7                        #  .1 FPS
000604:
000605:
000606: 06,3700           77754 57611  FIFPSDP            2DEC     -.152400   B-7                        #  50 FPS
000607:
000608: 06,3702           00116 00730  DELMAX1            2DEC     .6096000   B-7                        #  200 FPS
000609:
000610: 35,2000                                           SETLOC   CSI/CDH
000611: 35,2000                                           BANK
000612: 35,3445           00004 31566  PMINE              2DEC     157420     B-29                       #  84 NM. - MUST BE 8 WORDS BEFORE PMINM
000613:
000614:
000615: 35,3447           00002 27311  NICKELDP           2DEC     .021336    B-7                        #  7 FPS
000616:
000617: 35,3451           00003 34661  INITST1            2DEC     .03048     B-7                        #  INITIAL DELDV = 10 FPS
000618:
000619: 35,3453           00000 06433  ONETHTH            2DEC     .0001      B-3
000620:
000621: 35,3455           00000 12326  PMINM              2DEC     10668      B-29                       #  35000 FT - MUST BE 8 WORDS AFTER PMINE.
000622:
000623: 06,2000                                           SETLOC   CSIPROG
000624: 06,2000                                           BANK
000625:
000626: 06,3704           43014        CSI/A              CLEAR    SET                                   #  INITIALIZE INDICATORS
000627: 06,3705           05660                                    S32.1F1                               #  DVT1 HAS EXCEEDED MAX INDICATOR
000628: 06,3706           05461                                    S32.1F2                               #  FIRST PASS FOR NEWTON ITERATION INDICATR
000629: 06,3707           43014                           CLEAR    SET
000630: 06,3710           05662                                    S32.1F3A                              #  00=1ST 2 PASSES 2ND CYCLE 01=FIRST CYCLE
000631: 06,3711           05463                                    S32.1F3B                              #  10=2ND CYCLE 11=50 FPS STAGE 2ND CYCLE
000632: 06,3712           77745                           DLOAD
000633: 06,3713           11566                                    ZEROVEC
000634: 06,3714           03764                           STORE    LOOPCT
000635: 06,3715           03665                           STORE    CSIALRM
000636: 06,3716           77201        CSI/B              SETPD    VLOAD
000637: 06,3717           00001                                    0D
000638: 06,3720           02541                                    RACT1
000639: 06,3721           41446                           ABVAL    PUSH                                  #  RA1                                  B29 PL02D
000640: 06,3722           70501                           NORM     SR1
000641: 06,3723           00050                                    X2                                    #                                B29-N2+ B1 PL04D
000642: 06,3724           51515                           PDVL     ABVAL
000643: 06,3725           03554                                    RPASS3
000644: 06,3726           55301                           NORM     BDDV                                  #  RA1/RP3                               B1 PL02D
000645: 06,3727           00047                                    X1
000646: 06,3730           53664                           XSU,2    SR*                                   #                                        B2
000647: 06,3731           00046                                    X1
000648: 06,3732           57175                                    1,2
000649: 06,3733           41215                           DAD      DMP                                   #  (1+(RA1/RP3))RA1              B29+B2=B31 PL00D
000650: 06,3734           15673                                    1DPB2
000651: 06,3735           65301                           NORM     PDDL                                  #                                           PL02D
000652: 06,3736           00047                                    X1
000653: 06,3737           03750                                    RTMU
000654: 06,3740           56342                           SR1      DDV                                   #                               B38-B31= B7 PL00D
000655: 06,3741           75457                           SL*      SQRT                                  #                                        B7
000656: 06,3742           20172                                    0          -7,1
000657: 06,3743           53515                           PDVL     UNIT                                  #                                           PL02D
000658: 06,3744           02541                                    RACT1
000659: 06,3745           47315                           PDVL     VXV
000660: 06,3746           02611                                    UP1
000661: 06,3747           77656                           UNIT                                           #  UNIT(URP1 X UVP1 X URA1) = UH1
000662: 06,3750           72441                           DOT      SL1                                   #  VA1 . UH1                             B7
000663: 06,3751           03504                                    VACT1
000664: 06,3752           45421                           BDSU     STADR                                 #                                           PL00D
000665: 06,3753           60315                           STODL    DELVCSI
000666: 06,3754           15665                                    INITST                                #  10 FPS
000667: 06,3755           03464                           STORE    DELDV
000668: 06,3756           43345        CSI/B1             DLOAD    DAD                                   #  IF LOOPCT = 16
000669: 06,3757           03764                                    LOOPCT
000670: 06,3760           15675                                    1DPB28
000671: 06,3761           03764                           STORE    LOOPCT
000672: 06,3762           77025                           DSU      AXT,2
000673: 06,3763           15663                                    LOOPMX
000674: 06,3764           00006                                    6
000675: 06,3765           52044                           BPL      GOTO
000676: 06,3766           63646                                    SCNDSOL
000677: 06,3767           24013                                    CSI/B2
000678:
000679: 12,2000                                           SETLOC   CSIPROG2
000680: 12,2000                                           BANK
000681:
000682: 12,2013           77601        CSI/B2             SETPD
000683: 12,2014           00001                                    0D
000684: 12,2015           51545                           DLOAD    ABS
000685: 12,2016           03462                                    DELVCSI
000686: 12,2017           50025                           DSU      BMN
000687: 12,2020           15667                                    DVMAX1
000688: 12,2021           45267                                    CSI/B23
000689: 12,2022           43174                           AXT,2    BON
000690: 12,2023           00007                                    7
000691: 12,2024           05700                                    S32.1F1
000692: 12,2025           63646                                    SCNDSOL
000693: 12,2026           43014                           BOFF     BON
000694: 12,2027           05742                                    S32.1F3A
000695: 12,2030           24033                                    CSI/B22                               #  FLAG 3 NEQ 3
000696: 12,2031           05703                                    S32.1F3B
000697: 12,2032           63646                                    SCNDSOL
000698: 12,2033           71214        CSI/B22            SET      DLOAD
000699: 12,2034           05460                                    S32.1F1
000700: 12,2035           15671                                    DVMAX2
000701: 12,2036           77765                           SIGN
000702: 12,2037           03462                                    DELVCSI
000703: 12,2040           37462                           STCALL   DELVCSI
000704: 12,2041           45267                                    CSI/B23
000705:
000706: 22,2000                                           SETLOC   CSIPROG3
000707: 22,2000                                           BANK
000708:
000709: 22,3267           41575        CSI/B23            VLOAD    PUSH
000710: 22,3270           02541                                    RACT1
000711: 22,3271           63256                           UNIT     PDVL
000712: 22,3272           02611                                    UP1
000713: 22,3273           53435                           VXV      UNIT                                  #  UNIT (URP1 X UVP1 X URA1) = UH1
000714: 22,3274           76561                           VXSC     VSL1
000715: 22,3275           03462                                    DELVCSI
000716: 22,3276           02445                           STORE    DELVEET1
000717: 22,3277           40055                           VAD      BOV
000718: 22,3300           03504                                    VACT1
000719: 22,3301           45302                                    CSI/B23D
000720: 22,3302           37474        CSI/B23D           STCALL   VACT4
000721: 22,3303           45253                                    VECSHIFT
000722: 22,3304           26746                           STOVL    VVEC
000723: 22,3305           77614                           SET
000724: 22,3306           03466                                    RVSW
000725: 22,3307           26657                           STOVL    RVEC
000726: 22,3310           05426                                    SN359+
000727: 22,3311           36732                           STCALL   SNTH                                  #  ALSO CSTH
000728: 22,3312           24744                                    TIMETHET
000729: 22,3313           72142                           SR1      LXA,1
000730: 22,3314           03745                                    RTX1
000731: 22,3315           37472                           STCALL   HAFPA1
000732: 22,3316           45163                                    PERIAPO
000733: 22,3317           77624                           CALL
000734: 22,3320           45263                                    SHIFTR1
000735: 22,3321           17460                           STODL    POSTCSI
000736: 22,3322           03754                                    CENTANG
000737: 22,3323           52054                           BZE      GOTO
000738: 22,3324           45326                                    +2
000739: 22,3325           47147                                    CIRCL
000740: 22,3326           77745                           DLOAD
000741: 22,3327           02754                                    ECC
000742: 22,3330           50025                           DSU      BMN
000743: 22,3331           33454                                    ONETHTH
000744: 22,3332           47147                                    CIRCL
000745: 22,3333           45145                           DLOAD    CALL
000746: 22,3334           00041                                    R1
000747: 22,3335           45263                                    SHIFTR1
000748: 22,3336           60201                           SETPD    NORM
000749: 22,3337           00003                                    2D
000750: 22,3340           00047                                    X1
000751: 22,3341           50315                           PDVL     DOT                                   #                                PL04D
000752: 22,3342           02541                                    RACT1
000753: 22,3343           03474                                    VACT4
000754: 22,3344           56246                           ABS      DDV
000755: 22,3345           00003                                    02D                                   #  (/RDOTV/)/R1          B36-B29= B7
000756: 22,3346           45257                           SL*      DSU
000757: 22,3347           20201                                    0,1
000758: 22,3350           33450                                    NICKELDP
000759: 22,3351           71240                           BMN      DLOAD
000760: 22,3352           47147                                    CIRCL
000761: 22,3353           02742                                    P
000762: 22,3354           45312                           SL2      DSU
000763: 22,3355           33502                                    1RTEB2                                #  1.B.2
000764: 22,3356           14017                           STODL    14D
000765: 22,3357           03752                                    RTSR1/MU
000766: 22,3360           56342                           SR1      DDV                                   #  (1/ROOTMU)/R1         B-16-B29 = B-45 PL02D
000767: 22,3361           41325                           PDDL     DMP
000768: 22,3362           02742                                    P
000769: 22,3363           00041                                    R1
000770: 22,3364           77624                           CALL
000771: 22,3365           45263                                    SHIFTR1
000772: 22,3366           72412                           SL4      SL1
000773: 22,3367           41366                           SQRT     DMP                                   #  ((P/MU)**.5)/R1       B14+B-45 = B-31 PL02D
000774: 22,3370           52414                           BOFF     SL3
000775: 22,3371           04343                                    CMOONFLG
000776: 22,3372           45373                                    CSI/B3
000777: 22,3373           50315        CSI/B3             PDVL     DOT
000778: 22,3374           02541                                    RACT1
000779: 22,3375           03474                                    VACT4
000780: 22,3376           03502                           STORE    RDOTV
000781: 22,3377           77646                           ABS
000782: 22,3400           41301                           NORM     DMP                                   #  ((P/MU)**.5)RDOTV/R1                  PL02D
000783: 22,3401           00050                                    X2
000784: 22,3402           53660                           XSU,1    SL*                                   #                        B-31+B36-B3 = B2
000785: 22,3403           00047                                    X2
000786: 22,3404           20204                                    3,1
000787: 22,3405           14015                           STODL    12D
000788: 22,3406           15334                                    ZEROVECS
000789: 22,3407           00021                           STORE    16D
000790: 22,3410           53575                           VLOAD    UNIT
000791: 22,3411           00015                                    12D
000792: 22,3412           26732                           STOVL    SNTH                                  #  ALSO STORES CSTH AND 0
000793: 22,3413           02541                                    RACT1
000794: 22,3414           75315                           PDVL     SIGN
000795: 22,3415           03474                                    VACT4
000796: 22,3416           03502                                    RDOTV
000797: 22,3417           45076                           VCOMP    CALL
000798: 22,3420           45253                                    VECSHIFT
000799: 22,3421           26746                           STOVL    VVEC
000800: 22,3422           77614                           SETGO
000801: 22,3423           03426                                    RVSW
000802: 22,3424           47136                                    CSINEXT
000803:
000804: 22,3425           77776 62460  SN359+             2DEC     -.000086601
000805:
000806: 22,3427           17777 37776  CS359+             2DEC     +.499999992
000807:
000808: 23,2000                                           SETLOC   CSIPROG4
000809: 23,2000                                           BANK
000810:
000811: 23,3136           36657        CSINEXT            STCALL   RVEC
000812: 23,3137           24744                                    TIMETHET
000813: 23,3140           51125                           PDDL     BPL
000814: 23,3141           03502                                    RDOTV
000815: 23,3142           47153                                    NTP/2
000816: 23,3143           45345                           DLOAD    DSU
000817: 23,3144           03472                                    HAFPA1
000818: 23,3145           52006                           PUSH     GOTO
000819: 23,3146           47153                                    NTP/2
000820: 23,3147           71201        CIRCL              SETPD    DLOAD
000821: 23,3150           00001                                    00D
000822: 23,3151           15334                                    ZEROVECS
000823: 23,3152           77606                           PUSH
000824: 23,3153           41345        NTP/2              DLOAD    DMP
000825: 23,3154           03766                                    NN
000826: 23,3155           03472                                    HAFPA1
000827: 23,3156           45261                           SL       DSU
000828: 23,3157           20217                                    14D
000829: 23,3160           77615                           DAD
000830: 23,3161           02637                                    TCSI
000831: 23,3162           02635                           STORE    TCDH
000832: 23,3163           77021                           BDSU     AXT,2
000833: 23,3164           03663                                    TTPI
000834: 23,3165           00005                                    5D
000835: 23,3166           40240                           BMN      SETPD
000836: 23,3167           63646                                    SCNDSOL
000837: 23,3170           00001                                    0D
000838: 23,3171           63375                           VLOAD    PDVL
000839: 23,3172           03474                                    VACT4
000840: 23,3173           02541                                    RACT1
000841: 23,3174           77624                           CALL
000842: 23,3175           63666                                    INTINT2C
000843: 23,3176           26453                           STOVL    RACT2
000844: 23,3177           00007                                    VATT
000845: 23,3200           26533                           STOVL    VACT2
000846: 23,3201           03512                                    VPASS1
000847: 23,3202           63201                           SETPD    PDVL
000848: 23,3203           00001                                    0D
000849: 23,3204           03756                                    RPASS1
000850: 23,3205           77650                           GOTO
000851: 23,3206           34020                                    CSINEXT1
000852:
000853: 16,2000                                           SETLOC   CSIPROG5
000854: 16,2000                                           BANK
000855:
000856: 16,2020           77624        CSINEXT1           CALL
000857: 16,2021           63666                                    INTINT2C
000858: 16,2022           26625                           STOVL    RPASS2
000859: 16,2023           00007                                    VATT
000860: 16,2024           36617                           STCALL   VPASS2
000861: 16,2025           13232                                    CDHMVR
000862: 16,2026           40375                           VLOAD    SETPD
000863: 16,2027           02453                                    RACT2
000864: 16,2030           00001                                    0D
000865: 16,2031           45115                           PDVL     CALL
000866: 16,2032           03546                                    VACT3
000867: 16,2033           45153                                    PERIAPO1
000868: 16,2034           77624                           CALL
000869: 16,2035           45263                                    SHIFTR1
000870: 16,2036           27472                           STOVL    POSTCDH
000871: 16,2037           03546                                    VACT3
000872: 16,2040           63201                           SETPD    PDVL
000873: 16,2041           00001                                    0D
000874: 16,2042           02453                                    RACT2
000875: 16,2043           65325                           PDDL     PDDL
000876: 16,2044           02635                                    TCDH
000877: 16,2045           03663                                    TTPI
000878: 16,2046           62525                           PDDL     SL2
000879: 16,2047           11630                                    2PISC
000880: 16,2050           45006                           PUSH     CALL
000881: 16,2051           72705                                    INTINT
000882: 16,2052           77624                           CALL
000883: 16,2053           45237                                    ACTIVE
000884: 16,2054           77745                           DLOAD
000885: 16,2055           03744                                    ELEV
000886: 16,2056           73401                           SETPD    SINE
000887: 16,2057           00007                                    6D
000888: 16,2060           53515                           PDVL     UNIT
000889: 16,2061           03540                                    RACT3
000890: 16,2062           00001                           STORE    00D                                   #  URA3 AT 00D
000891: 16,2063           47315                           PDVL     VXV                                   #  PL14D, PL08D
000892: 16,2064           02611                                    UP1
000893: 16,2065           77656                           UNIT
000894: 16,2066           71525                           PDDL     COSINE                                #  UNIT(URA3 X UVA3 X URA3) = UH3        B1 PL14D
000895: 16,2067           03744                                    ELEV
000896: 16,2070           45561                           VXSC     STADR                                 #  (COSLOS)(UH3)                         B2 PL08D
000897: 16,2071           43754                           STCALL   18D                                   #                PLUS
000898: 16,2072           16517                                    CSINEXT2
000899:
000900: 07,2000                                           SETLOC   CSIPROG6
000901: 07,2000                                           BANK
000902:
000903: 07,2517           74345        CSINEXT2           DLOAD    VXSC                                  #  (SINLOS)(URA3) = U                    B2 PL00D
000904: 07,2520           76455                           VAD      VSL1
000905: 07,2521           00023                                    18D                                   #                                        B1
000906: 07,2522           50206                           PUSH     DOT                                   #                                           PL06D
000907: 07,2523           03540                                    RACT3                                 #  (U . RA3) = TEMP1         B1 + B29 = B30
000908: 07,2524           41552                           SL1      PUSH                                  #                                       B29 PL08D
000909: 07,2525           72316                           DSQ      TLOAD                                 #  TEMP1**2                             B58
000910: 07,2526           00155                                    MPAC
000911: 07,2527           50315                           PDVL     DOT                                   #                                           PL11D
000912: 07,2530           03540                                    RACT3
000913: 07,2531           03540                                    RACT3
000914: 07,2532           57551                           TLOAD    DCOMP                                 #  RA3 . RA3
000915: 07,2533           00155                                    MPAC
000916: 07,2534           50315                           PDVL     DOT                                   #  RP3 . RP3                         B58 PL14D
000917: 07,2535           03554                                    RPASS3
000918: 07,2536           03554                                    RPASS3                                #                                        PL11D
000919: 07,2537           76371                           TAD      TAD                                   #  TEMP1**2 + RA3.RA3 + RP3.RP3 = TEMP2  PL08D
000920: 07,2540           71244                           BPL      DLOAD
000921: 07,2541           16557                                    K10RK2
000922: 07,2542           03764                                    LOOPCT
000923: 07,2543           77025                           DSU      AXT,2
000924: 07,2544           15675                                    1DPB28
000925: 07,2545           00001                                    1D
000926: 07,2546           77654                           BZE
000927: 07,2547           11314                                    ALMXITA
000928: 07,2550           70545                           DLOAD    SR1
000929: 07,2551           03464                                    DELDV
000930: 07,2552           03464                           STORE    DELDV
000931: 07,2553           77621                           BDSU
000932: 07,2554           03470                                    DVPREV
000933: 07,2555           37462                           STCALL   DELVCSI
000934: 07,2556           15756                                    CSI/B1
000935: 07,2557           41566        K10RK2             SQRT     PUSH                                  #  TEMP3 = TEMP2**.5                 B29 PL10D
000936: 07,2560           45276                           DCOMP    DSU
000937: 07,2561           00007                                    06D                                   #  -TEMP1-TEMP3 = K2 AT 10D
000938: 07,2562           14013                           STODL    10D                                   #                                        PL08D
000939: 07,2563           45425                           DSU      STADR                                 #                                        PL06D
000940: 07,2564           77762                           STORE    12D                                   #  -TEMP1+TEMP3 = K1 AT 12D
000941: 07,2565           77646                           ABS
000942: 07,2566           14017                           STODL    14D
000943: 07,2567           00013                                    10D
000944: 07,2570           45246                           ABS      DSU
000945: 07,2571           00017                                    14D
000946: 07,2572           71240                           BMN      DLOAD
000947: 07,2573           50002                                    K2.
000948: 07,2574           00015                                    12D
000949: 07,2575           34013                           STCALL   10D                                   #  K EQUALS K1
000950: 07,2576           50002                                    K2.
000951:
000952: 24,2000                                           SETLOC   CSIPROG7
000953: 24,2000                                           BANK
000954:
000955: 24,2002           77745        K2.                DLOAD
000956: 24,2003           00013                                    10D
000957: 24,2004           76561                           VXSC     VSL1
000958: 24,2005           53455                           VAD      UNIT                                  #  V = RA3 + KU UNIT                 B1
000959: 24,2006           03540                                    RACT3
000960: 24,2007           53515                           PDVL     UNIT
000961: 24,2010           03554                                    RPASS3                                #                                        PL06D
000962: 24,2011           53515                           PDVL     UNIT
000963: 24,2012           03562                                    VPASS3                                #                                        PL12D
000964: 24,2013           63235                           VXV      PDVL                                  #  UVP3 X URP3                           PL18D
000965: 24,2014           00007                                    06D
000966: 24,2015           00007                                    06D
000967: 24,2016           50235                           VXV      DOT
000968: 24,2017           00001                                    00D
000969: 24,2020           77626                           STADR                                          #                                        PL12D
000970: 24,2021           53762                           STOVL    12D                                   #  (URP3 X V).(UVP3 X URP3)=TEMP         PL06D
000971: 24,2022           72441                           DOT      SL1                                   #                                        PL00D
000972: 24,2023           75326                           ARCCOS   SIGN
000973: 24,2024           00015                                    12D                                   #                                     B0
000974: 24,2025           41542                           SR1      PUSH                                  #  GAMMA = SIGN(TEMP)ARCOS(UNITV.URP3)   PL02D
000975: 24,2026           71214                           BON      DLOAD
000976: 24,2027           05701                                    S32.1F2
000977: 24,2030           50065                                    FRSTPAS
000978: 24,2031           00001                                    00D                                   #  NOT THE FIRST PASS OF A CYCLE
000979: 24,2032           65225                           DSU      PDDL                                  #  GAMMA-GAMPREV                      B1 PL04D
000980: 24,2033           03466                                    GAMPREV
000981: 24,2034           03462                                    DELVCSI
000982: 24,2035           60225                           DSU      NORM                                  #                                     B7
000983: 24,2036           03470                                    DVPREV
000984: 24,2037           00047                                    X1
000985: 24,2040           65265                           BDDV     PDDL                                  #  (GAM-GAMPREV)/(DV-DVPREV)      B-6+N1 PL06D
000986: 24,2041           00003                                    02D                                   #        = SLOPE
000987: 24,2042           03462                                    DELVCSI
000988: 24,2043           03470                           STORE    DVPREV
000989: 24,2044           43014                           BOFF     BOFF
000990: 24,2045           05742                                    S32.1F3A
000991: 24,2046           20307                                    THRDCHK
000992: 24,2047           05743                                    S32.1F3B
000993: 24,2050           20307                                    THRDCHK
000994: 24,2051           41345                           DLOAD    DMP
000995: 24,2052           00003                                    02D
000996: 24,2053           03466                                    GAMPREV
000997: 24,2054           71244                           BPL      DLOAD
000998: 24,2055           20314                                    FIFTYFPS
000999: 24,2056           33452                                    INITST1
001000: 24,2057           77765                           SIGN
001001: 24,2060           03464                                    DELDV
001002: 24,2061           03464                           STORE    DELDV
001003: 24,2062           43014                           SET      CLEAR
001004: 24,2063           05462                                    S32.1F3A
001005: 24,2064           05663                                    S32.1F3B
001006: 24,2065           77745        FRSTPAS            DLOAD
001007: 24,2066           00001                                    00D
001008: 24,2067           17466                           STODL    GAMPREV
001009: 24,2070           03462                                    DELVCSI
001010: 24,2071           37470                           STCALL   DVPREV
001011: 24,2072           20302                                    CSINEXT3
001012:
001013: 10,2000                                           SETLOC   CSIPROG8
001014: 10,2000                                           BANK
001015:
001016: 10,2302           43025        CSINEXT3           DSU      CLEAR
001017: 10,2303           03464                                    DELDV
001018: 10,2304           05661                                    S32.1F2
001019: 10,2305           37462                           STCALL   DELVCSI
001020: 10,2306           15756                                    CSI/B1
001021: 10,2307           43014        THRDCHK            BON      BON
001022: 10,2310           05702                                    S32.1F3A
001023: 10,2311           20333                                    NEWTN
001024: 10,2312           05703                                    S32.1F3B
001025: 10,2313           20333                                    NEWTN
001026: 10,2314           75345        FIFTYFPS           DLOAD    SIGN
001027: 10,2315           15701                                    FIFPSDP
001028: 10,2316           00005                                    04D
001029: 10,2317           77765                           SIGN
001030: 10,2320           03466                                    GAMPREV
001031: 10,2321           03464                           STORE    DELDV
001032: 10,2322           43276                           DCOMP    DAD
001033: 10,2323           03462                                    DELVCSI
001034: 10,2324           17462                           STODL    DELVCSI
001035: 10,2325           00001                                    00D
001036: 10,2326           43014                           SET      SET
001037: 10,2327           05463                                    S32.1F3B
001038: 10,2330           05462                                    S32.1F3A
001039: 10,2331           37466                           STCALL   GAMPREV
001040: 10,2332           24013                                    CSI/B2
001041: 10,2333           60345        NEWTN              DLOAD    NORM
001042: 10,2334           00005                                    04D
001043: 10,2335           00050                                    X2
001044: 10,2336           54065                           BDDV     XSU,1
001045: 10,2337           00001                                    00D
001046: 10,2340           00047                                    X2
001047: 10,2341           77657                           SR*
001048: 10,2342           20601                                    0,1
001049: 10,2343           17464                           STODL    DELDV
001050: 10,2344           00001                                    00D
001051: 10,2345           03466                           STORE    GAMPREV
001052: 10,2346           51545                           DLOAD    ABS
001053: 10,2347           03464                                    DELDV
001054: 10,2350           45206                           PUSH     DSU                                   #                                        PL08D
001055: 10,2351           15677                                    EPSILN1
001056: 10,2352           71240                           BMN      DLOAD
001057: 10,2353           20370                                    CSI/SOL
001058: 10,2354           50025                           DSU      BMN
001059: 10,2355           15703                                    DELMAX1
001060: 10,2356           20363                                    CSISTEP
001061: 10,2357           75345                           DLOAD    SIGN
001062: 10,2360           15703                                    DELMAX1
001063: 10,2361           03464                                    DELDV
001064: 10,2362           03464                           STORE    DELDV
001065: 10,2363           45345        CSISTEP            DLOAD    DSU
001066: 10,2364           03462                                    DELVCSI
001067: 10,2365           03464                                    DELDV
001068: 10,2366           37462                           STCALL   DELVCSI
001069: 10,2367           15756                                    CSI/B1
001070: 10,2370           77145        CSI/SOL            DLOAD    AXT,2
001071: 10,2371           03460                                    POSTCSI
001072: 10,2372           00002                                    2
001073: 10,2373           52150                           LXA,1    GOTO
001074: 10,2374           03745                                    RTX1
001075: 10,2375           63614                                    CSINEXT4
001076:
001077: 31,2000                                           SETLOC   CSIPROG9
001078: 31,2000                                           BANK
001079:
001080: 31,3614           50023        CSINEXT4           DSU*     BMN
001081: 31,3615           33444                                    PMINE      -2,1
001082: 31,3616           63646                                    SCNDSOL
001083: 31,3617           71374                           AXT,2    DLOAD
001084: 31,3620           00003                                    3
001085: 31,3621           03472                                    POSTCDH
001086: 31,3622           50023                           DSU*     BMN
001087: 31,3623           33444                                    PMINE      -2,1
001088: 31,3624           63646                                    SCNDSOL
001089: 31,3625           45345                           DLOAD    DSU
001090: 31,3626           02635                                    TCDH
001091: 31,3627           02637                                    TCSI
001092: 31,3630           02547                           STORE    T1TOT2
001093: 31,3631           45374                           AXT,2    DSU
001094: 31,3632           00004                                    4
001095: 31,3633           36155                                    600SEC
001096: 31,3634           77040                           BMN      AXT,2
001097: 31,3635           63646                                    SCNDSOL
001098: 31,3636           00005                                    5
001099: 31,3637           45345                           DLOAD    DSU
001100: 31,3640           03663                                    TTPI
001101: 31,3641           02635                                    TCDH
001102: 31,3642           03656                           STORE    T2TOT3
001103: 31,3643           51025                           DSU      BPL
001104: 31,3644           36155                                    600SEC
001105: 31,3645           11400                                    P32/P72C
001106: 31,3646           43014        SCNDSOL            BON      BOFF
001107: 31,3647           05702                                    S32.1F3A
001108: 31,3650           11316                                    ALMXIT
001109: 31,3651           05743                                    S32.1F3B
001110: 31,3652           11316                                    ALMXIT
001111: 31,3653           71334                           SXA,2    DLOAD
001112: 31,3654           03664                                    CSIALRM
001113: 31,3655           15334                                    ZEROVECS
001114: 31,3656           43014                           CLEAR    SET
001115: 31,3657           05660                                    S32.1F1
001116: 31,3660           05461                                    S32.1F2
001117: 31,3661           43014                           CLEAR    CLEAR
001118: 31,3662           05662                                    S32.1F3A
001119: 31,3663           05663                                    S32.1F3B
001120: 31,3664           37764                           STCALL   LOOPCT
001121: 31,3665           15716                                    CSI/B
001122:
001123:                                                                                                  #  ..... ADVANCE .....
001124:
001125:                                                                                                  #  SUBROUTINES USED
001126:                                                                                                  #        PRECSET
001127:                                                                                                  #        ROTATE
001128:
001129: 37,2000                                           SETLOC   CDHTAG3
001130: 37,2000                                           BANK
001131:
001132: 37,2660           71220        ADVANCE            STQ      DLOAD
001133: 37,2661           02370                                    SUBEXIT
001134: 37,2662           03413                                    TIG
001135: 37,2663           34041                           STCALL   TDEC1
001136: 37,2664           45215                                    PRECSET
001137: 37,2665           77214                           SET      VLOAD
001138: 37,2666           01067                                    XDELVFLG
001139: 37,2667           03562                                    VPASS3
001140: 37,2670           02617                           STORE    VPASS2
001141: 37,2671           27512                           STOVL    VPASS1
001142: 37,2672           03554                                    RPASS3
001143: 37,2673           02625                           STORE    RPASS2
001144: 37,2674           03756                           STORE    RPASS1
001145: 37,2675           47256                           UNIT     VXV
001146: 37,2676           03512                                    VPASS1
001147: 37,2677           77656                           UNIT
001148: 37,2700           26611                           STOVL    UP1
001149: 37,2701           03540                                    RACT3
001150: 37,2702           37632                           STCALL   RTIG
001151: 37,2703           13222                                    ROTATE
001152: 37,2704           02453                           STORE    RACT2
001153: 37,2705           26541                           STOVL    RACT1
001154: 37,2706           03546                                    VACT3
001155: 37,2707           37640                           STCALL   VTIG
001156: 37,2710           13222                                    ROTATE
001157: 37,2711           02533                           STORE    VACT2
001158: 37,2712           37504                           STCALL   VACT1
001159: 37,2713           02370                                    SUBEXIT
001160:
001161:                                                                                                  #  ..... ROTATE .....
001162:
001163: 05,2000                                           SETLOC   CDHTAG
001164: 05,2000                                           BANK
001165:
001166: 05,3222           41406        ROTATE             PUSH     PUSH
001167: 05,3223           74241                           DOT      VXSC
001168: 05,3224           02611                                    UP1
001169: 05,3225           02611                                    UP1
001170: 05,3226           51352                           VSL2     BVSU
001171: 05,3227           63256                           UNIT     PDVL
001172: 05,3230           74246                           ABVAL    VXSC
001173: 05,3231           43572                           VSL1     RVQ
001174:
001175:                                                                                                  #  ..... INTINTNA .....
001176:
001177: 31,2000                                           SETLOC   CDHTAG2
001178: 31,2000                                           BANK
001179:
001180: 31,3666           65325        INTINT2C           PDDL     PDDL
001181: 31,3667           02637                                    TCSI
001182: 31,3670           02635                                    TCDH
001183: 31,3671           41525                           PDDL     PUSH
001184: 31,3672           33107                                    TWOPI
001185: 31,3673           77650                           GOTO
001186: 31,3674           72705                                    INTINT
001187: 31,3675           65325        INTINT3P           PDDL     PDDL
001188: 31,3676           02635                                    TCDH
001189: 31,3677           03663                                    TTPI
001190: 31,3700           41525                           PDDL     PUSH
001191: 31,3701           15334                                    ZEROVECS
001192: 31,3702           77650                           GOTO
001193: 31,3703           72705                                    INTINT
001194:
001195:                                                                                                  #  ..... S32/33.1 .....
001196:
001197:                                                                                                  #  SUBROUTINES USED
001198:                                                                                                  #        S32/33.X
001199:
001200: 35,2000                                           SETLOC   CSI/CDH
001201: 35,2000                                           BANK
001202:
001203: 35,3457           76020        S32/33.1           STQ      AXT,1
001204: 35,3460           02370                                    SUBEXIT
001205: 35,3461           01521                           VN       0681
001206: 35,3462           77624                           CALL
001207: 35,3463           76640                                    DISDVLVC
001208: 35,3464           77624                           CALL
001209: 35,3465           26227                                    S32/33.X
001210: 35,3466           61375                           VLOAD    VXM
001211: 35,3467           03405                                    DELVLVC
001212: 35,3470           00001                                    0D
001213: 35,3471           77772                           VSL1
001214: 35,3472           03646                           STORE    DELVSIN
001215: 35,3473           51406                           PUSH     ABVAL
001216: 35,3474           27654                           STOVL    DELVSAB
001217: 35,3475           77650                           GOTO
001218: 35,3476           02370                                    SUBEXIT
001219:
001220:                                                                                                  #  ..... S32/33.X .....
001221:
001222: 13,2000                                           SETLOC   CDHTAGS
001223: 13,2000                                           BANK
001224:
001225: 13,2227           77201        S32/33.X           SETPD    VLOAD
001226: 13,2230           00007                                    6D
001227: 13,2231           02611                                    UP1
001228: 13,2232           63276                           VCOMP    PDVL
001229: 13,2233           02541                                    RACT1
001230: 13,2234           57456                           UNIT     VCOMP
001231: 13,2235           47206                           PUSH     VXV
001232: 13,2236           02611                                    UP1
001233: 13,2237           77772                           VSL1
001234: 13,2240           00001                           STORE    0D
001235: 13,2241           77616                           RVQ
001236:
001237:                                                                                                  #  ..... CDHMVR .....
001238:
001239:                                                                                                  #  SUBROUTINES USED
001240:                                                                                                  #        VECSHIFT
001241:                                                                                                  #        TIMETHET
001242:                                                                                                  #        SHIFTR1
001243:
001244: 05,2000                                           SETLOC   CDHTAG
001245: 05,2000                                           BANK
001246:
001247: 05,3232           77220        CDHMVR             STQ      VLOAD
001248: 05,3233           02370                                    SUBEXIT
001249: 05,3234           02453                                    RACT2
001250: 05,3235           53406                           PUSH     UNIT
001251: 05,3236           27546                           STOVL    UNVEC                                 #  UR SUB A
001252: 05,3237           02625                                    RPASS2
001253: 05,3240           50256                           UNIT     DOT
001254: 05,3241           03546                                    UNVEC
001255: 05,3242           72406                           PUSH     SL1
001256: 05,3243           16734                           STODL    CSTH
001257: 05,3244           65316                           DSQ      PDDL
001258: 05,3245           23740                                    DP1/4
001259: 05,3246           45302                           SR2      DSU
001260: 05,3247           72566                           SQRT     SL1
001261: 05,3250           57515                           PDVL     VCOMP
001262: 05,3251           77635                           VXV
001263: 05,3252           02625                                    RPASS2
001264: 05,3253           65241                           DOT      PDDL
001265: 05,3254           02611                                    UP1
001266: 05,3255           45565                           SIGN     STADR
001267: 05,3256           51045                           STOVL    SNTH
001268: 05,3257           02625                                    RPASS2
001269: 05,3260           45115                           PDVL     CALL
001270: 05,3261           02617                                    VPASS2
001271: 05,3262           45253                                    VECSHIFT
001272: 05,3263           26746                           STOVL    VVEC
001273: 05,3264           77614                           CLEAR
001274: 05,3265           03666                                    RVSW
001275: 05,3266           36657                           STCALL   RVEC
001276: 05,3267           24744                                    TIMETHET
001277: 05,3270           53754                           LXA,2    VSL*
001278: 05,3271           03746                                    RTX2
001279: 05,3272           57576                                    0,2
001280: 05,3273           00023                           STORE    18D
001281: 05,3274           76441                           DOT      SL1R
001282: 05,3275           03546                                    UNVEC
001283: 05,3276           51515                           PDVL     ABVAL                                 #  0D = V SUB PV
001284: 05,3277           63257                           SL*      PDVL
001285: 05,3300           57576                                    0,2
001286: 05,3301           02453                                    RACT2
001287: 05,3302           65246                           ABVAL    PDDL                                  #  2D = LENGTH OF R SUB A
001288: 05,3303           77625                           DSU
001289: 05,3304           00003                                    02D
001290: 05,3305           16633                           STODL    DIFFALT                               #  DELTA H IN METERS             B+29
001291: 05,3306           02744                                    R1A
001292: 05,3307           65301                           NORM     PDDL                                  #  2 - R V**/MU                          04D
001293: 05,3310           00047                                    X1
001294: 05,3311           00041                                    R1
001295: 05,3312           77624                           CALL
001296: 05,3313           45263                                    SHIFTR1
001297: 05,3314           56362                           SR1R     DDV
001298: 05,3315           41457                           SL*      PUSH
001299: 05,3316           20174                                    0          -5,1
001300: 05,3317           65225                           DSU      PDDL                                  #  A SUB A                       B+29    04D
001301: 05,3320           02633                                    DIFFALT
001302: 05,3321           56302                           SR2      DDV                                   #  A SUB P                       B+31
001303: 05,3322           00005                                    04D                                   #                                B+2
001304: 05,3323           75406                           PUSH     SQRT                                  #  A SUB P/A SUB A                       06D
001305: 05,3324           41275                           DMPR     DMP
001306: 05,3325           00007                                    06D
001307: 05,3326           00001                                    00D
001308: 05,3327           65272                           SL3R     PDDL                                  #  V SUB A V METERS/CS           B+7     08D
001309: 05,3330           00003                                    02D                                   #  R SUB A MAGNITUDE             B+29
001310: 05,3331           65301                           NORM     PDDL
001311: 05,3332           00047                                    X1
001312: 05,3333           03750                                    RTMU
001313: 05,3334           56342                           SR1      DDV                                   #  2MU                           B+38
001314: 05,3335           65257                           SL*      PDDL                                  #  2 MU/R SUBAA                  B+14    10D
001315: 05,3336           20174                                    0          -5,1
001316: 05,3337           00005                                    04D                                   #  ASUBA                         B+29
001317: 05,3340           65301                           NORM     PDDL
001318: 05,3341           00050                                    X2
001319: 05,3342           03750                                    RTMU
001320: 05,3343           56342                           SR1      DDV
001321: 05,3344           44257                           SL*      BDSU
001322: 05,3345           57604                                    0          -6,2                       #  2U/R - U/A             B+14 (METERS/CS)SQ
001323: 05,3346           63525                           PDDL     DSQ                                   #                                        10D
001324: 05,3347           00011                                    08D
001325: 05,3350           75421                           BDSU     SQRT
001326: 05,3351           47315                           PDVL     VXV                                   #  SQRT(MU(2/R SUB A-1/A SUB A)-VSUBA2)  10D
001327: 05,3352           02611                                    UP1
001328: 05,3353           03546                                    UNVEC
001329: 05,3354           74256                           UNIT     VXSC
001330: 05,3355           00013                                    10D
001331: 05,3356           74315                           PDVL     VXSC
001332: 05,3357           03546                                    UNVEC
001333: 05,3360           00011                                    08D
001334: 05,3361           76455                           VAD      VSL1
001335: 05,3362           77626                           STADR
001336: 05,3363           74231                           STORE    VACT3
001337: 05,3364           77651                           VSU
001338: 05,3365           02533                                    VACT2
001339: 05,3366           37667                           STCALL   DELVEET2                              #  DELTA VCDH - REFERENCE COORDINATES
001340: 05,3367           02370                                    SUBEXIT
001341:
001342:                                                                                                  #  ..... COMPTGO .....
001343:
001344:                                                                                                  #  SUBROUTINES USED
001345:                                                                                                  #        CLOKTASK
001346:                                                                                                  #        2PHSCHNG
001347:
001348: 35,3477                                           BANK     35
001349: 35,2000                                           SETLOC   CSI/CDH
001350: 35,2000                                           BANK
001351:
001352: 35,3477  E4,1767                                  EBANK=   RTRN
001353:
001354: 35,3477                                           COUNT*   $$/P3575
001355:

End of include-file P32-P33,_P72-P73.agc.  Parent file is MAIN.agc


