
Source Code


000002:                                                                                                  ## Copyright:   Public domain.
000003:                                                                                                  ## Filename:    P51-P53.agc
000004:                                                                                                  ## Purpose:     A section of Comanche revision 072.
000005:                                                                                                  ##              It is part of the reconstructed source code for the first
000006:                                                                                                  ##              release of the software for the Command Module's (CM) Apollo
000007:                                                                                                  ##              Guidance Computer (AGC) for Apollo 13. No original listings
000008:                                                                                                  ##              of this program are available; instead, this file was recreated
000009:                                                                                                  ##              from a printout of Comanche 055, binary dumps of a set of
000010:                                                                                                  ##              Comanche 067 rope modules, and changelogs between Comanche 067
000011:                                                                                                  ##              and 072. It has been adapted such that the resulting bugger words
000012:                                                                                                  ##              exactly match those specified for Comanche 072 in NASA drawing
000013:                                                                                                  ##              2021153G, which gives relatively high confidence that the
000014:                                                                                                  ##              reconstruction is correct.
000015:                                                                                                  ## Assembler:   yaYUL
000016:                                                                                                  ## Contact:     Ron Burkey <info@sandroid.org>.
000017:                                                                                                  ## Website:     www.ibiblio.org/apollo/index.html
000018:                                                                                                  ## Mod history: 2024-05-13 MAS  Created from Comanche 067.
000019:                                                                                                  ##              2024-05-18 MAS  Implemented PCR-963, "R52 - Delete 407 alarm and
000020:                                                                                                  ##                              drive trunnion to 50 degrees".
000021:
000022:                                                                                                  #  PROGRAM NAME - PROG52                 DATE - NOV 30, 1966
000023:                                                                                                  #  MOD NO - 2                                    LOG SECTION - P51-P53
000024:                                                                                                  #  MODIFICATION BY - LONSKE                      ASSEMBLY - SUNDISK REV 30
000025:
000026:                                                                                                  #  FUNCTIONAL DESCRIPTION -
000027:
000028:                                                                                                  #        ALIGNS THE IMU TO ONE OF THREE ORIENTATIONS SELECTED BY THE ASTRONAUT.  THE PRESENT IMU ORIENTATION IS KNOWN
000029:                                                                                                  #        AND IS STORED IN REFSMMAT.  THE THREE POSSIBLE ORIENTATIONS MAY BE_
000030:
000031:                                                                                                  #        (A)     PREFERRED ORIENTATION
000032:
000033:                                                                                                  #                AN OPTIMUM ORIENTATION FOR A PREVIOUSLY CALCULATED MANUEVER.  THIS ORIENTATION MUST BE CALCULATED AND
000034:                                                                                                  #                STORED BY A PREVIOUSLY SELECTED PROGRAM.
000035:
000036:                                                                                                  #        (B)     NOMINAL ORIENTATION
000037:
000038:                                                                                                  #                X   = UNIT ( Y   X Z   )
000039:                                                                                                  #                -SM          -SM   -SM
000040:
000041:                                                                                                  #                Y   = UNIT (V X R)
000042:                                                                                                  #                -SM         -   -
000043:
000044:                                                                                                  #                Z   = UNIT ( -R )
000045:                                                                                                  #                -SM           -
000046:
000047:                                                                                                  #                WHERE_
000048:
000049:                                                                                                  #                R = THE GEOCENTRIC RADIUS VECTOR AT TIME T(ALIGN) SELECTED BY THE ASTRONAUT
000050:                                                                                                  #                -
000051:
000052:                                                                                                  #                V = THE INERTIAL VELOCITY VECTOR AT TIME T(ALIGN) SELECTED BY THE ASTRONAUT
000053:                                                                                                  #                -
000054:
000055:                                                                                                  #        (C)     REFSMMAT ORIENTATION
000056:
000057:                                                                                                  #                THIS SELECTION CORRECTS THE PRESENT IMU ORIENTATION.  THE PRESENT ORIENTATION DIFFERS FROM THAT TO WHICH IT
000058:                                                                                                  #                WAS LAST ALIGNED ONLY DUE TO GYRO DRIFT (I.E. NEITHER GIMBAL LOCK NOR IMU POWER INTERRUPTION HAS OCCURED
000059:                                                                                                  #                SINCE THE LAST ALIGNMENT).
000060:
000061:                                                                                                  #        AFTER A IMU ORIENTATION HAS BEEN SELECTED ROUTINE S52.2 IS OPERATED TO COMPUTE THE GIMBAL ANGLES USING THE
000062:                                                                                                  #        NEW ORIENTATION AND THE PRESENT VEHICLE ATTITUDE.  CAL52A THEN USES THESE ANGLES, STORED IN THETAD,+1,+2, TO
000063:                                                                                                  #        COARSE ALIGN THE IMU.  THE STAR SELECTION ROUTINE, R56, IS THEN OPERATED.  IF 2 STARS ARE NOT AVAILABLE AN ALARM
000064:                                                                                                  #        IS FLASHED TO NOTIFY THE ASTRONAUT.  AT THIS POINT THE ASTRONAUT WILL MANUEVER THE VEHICLE AND SELECT 2 STARS
000065:                                                                                                  #        EITHER MANUALLY OR AUTOMATICALLY.  AFTER 2 STARS HAVE BEEN SELECTED THE IMU IS FINE ALIGNED USING ROUTINE R51.  IF
000066:                                                                                                  #        THE RENDEZVOUS NAVIGATION PROCESS IS OPERATING (INDICATED BY RNDVZFLG) P20 IS DISPLAYED.  OTHERWISE P00 IS
000067:                                                                                                  #        REQUESTED.
000068:
000069:                                                                                                  #  CALLING SEQUENCE -
000070:
000071:                                                                                                  #        THE PROGRAM IS CALLED BY THE ASTRONAUT BY DSKY ENTRY.
000072:
000073:                                                                                                  #  SUBROUTINES CALLED -
000074:
000075:                                                                                                  #        1. FLAGDOWN              7. S52.2               13. NEWMODEX
000076:                                                                                                  #        2. R02BOTH               8. CAL53A              14. PRIOLARM
000077:                                                                                                  #        3. GOPERF4               9. FLAGUP
000078:                                                                                                  #        4. MATMOVE              10. R56
000079:                                                                                                  #        5. GOFLASH              11. R51
000080:                                                                                                  #        6. S52.3                12. GOPERF3
000081:
000082:                                                                                                  #  NORMAL EXIT MODES -
000083:
000084:                                                                                                  #        EXITS TO ENDOFJOB
000085:
000086:                                                                                                  #  ALARM OR ABORT EXIT MODES -
000087:
000088:                                                                                                  #        NONE
000089:
000090:                                                                                                  #  OUTPUT -
000091:
000092:                                                                                                  #        THE FOLLOWING MAY BE FLASHED ON THE DSKY
000093:                                                                                                  #                1. IMU ORIENTATION CODE
000094:                                                                                                  #                2. ALARM CODE 215 - PREFERRED IMU ORIENTATION NOT SPECIFIED
000095:                                                                                                  #                3. TIME OF NEXT IGNITION
000096:                                                                                                  #                4. GIMBAL ANGLES
000097:                                                                                                  #                5. ALARM CODE 405 - TWO STARS NOT AVAILABLE
000098:                                                                                                  #                6. PLEASE PERFORM P00
000099:                                                                                                  #        THE MODE DISPLAY MAY BE CHANGED TO 20
000100:
000101:                                                                                                  #  ERASABLE INITIALIZATION REQUIRED -
000102:
000103:                                                                                                  #        PFRATFLG SHOULD BE SET IF A PREFERRED ORIENTATION HAS BEEN COMPUTED.  IF IT HAS BEEN COMPUTED IT IS STORED IN
000104:                                                                                                  #        XSMD, YSMD, ZSMD.
000105:
000106:                                                                                                  #        RNDVZFLG INDICATES WHETHER THE RENDEZVOUS NAVIGATION PROCESS IS OPERATING.
000107:
000108:                                                                                                  #  DEBRIS -
000109:
000110:                                                                                                  #        WORK AREA
000111:
000112: 21,2054  15,2000               P54                =        PROG52
000113: 33,3776                                           BANK     33
000114: 15,2000                                           SETLOC   P50S
000115: 15,2000                                           BANK
000116:
000117: 15,2000  30,2000                                  SBANK=   LOWSUPER
000118: 15,2000  E5,1773                                  EBANK=   SAC
000119: 15,2000                                           COUNT    15/P52
000120:
000121: 15,2000           05426        PROG52             TC       PHASCHNG
000122: 15,2001           00254                           OCT      00254
000123: 15,2002           05574                           TC       DOWNFLAG
000124: 15,2003           00027                           ADRES    UPDATFLG                              #  BIT 7 FLAG 1
000125: 15,2004           05574                           TC       DOWNFLAG
000126: 15,2005           00031                           ADRES    TRACKFLG                              #  BIT 5 FLAG 1
000127: 15,2006           04676                           TC       BANKCALL
000128: 15,2007           17653                           CADR     R02BOTH                               #  IMU STATUS CHECK
000129: 15,2010           35030                           CAF      BIT4
000130: 15,2011           70076                           MASK     STATE      +2                         #  IS PFRATFLG SET(PREFERRED ORIENTATION)
000131: 15,2012           10000                           CCS      A
000132: 15,2013           02016                           TC       P52A                                  #  YES
000133: 15,2014           36214                           CAF      THREE                                 #  DISPLAY REFSMMAT OPTION 3
000134: 15,2015           02017                           TC       P52A       +1
000135: 15,2016           35033        P52A               CAF      BIT1
000136: 15,2017           55132                           TS       OPTION2
000137: 15,2020           35033        P52B               CAF      BIT1
000138: 15,2021           04676                           TC       BANKCALL                              #  FLASH OPTION CODE AND ORIENTATION CODE
000139: 15,2022           21135                           CADR     GOPERF4R
000140: 15,2023           04106                           TC       GOTOPOOH
000141: 15,2024           02031                           TC       +5
000142: 15,2025           02020                           TC       P52B                                  #  NEW CODE - NEW ORIENTATION CODE INPUT
000143: 15,2026           05426                           TC       PHASCHNG
000144: 15,2027           00014                           OCT      00014
000145: 15,2030           05233                           TC       ENDOFJOB
000146: 15,2031           31132                           CA       OPTION2
000147: 15,2032           76214                           MASK     THREE
000148: 15,2033           50000                           INDEX    A
000149: 15,2034           02035                           TC       +1
000150: 15,2035           02041                           TC       P52T                                  #  L.S.
000151: 15,2036           02110                           TC       P52J                                  #  PREF
000152: 15,2037           02041                           TC       P52T                                  #  NOM
000153: 15,2040           12120                           TCF      P52C                                  #  REF
000154: 15,2041           00006        P52T               EXTEND
000155: 15,2042           35035                           DCA      NEG0
000156: 15,2043           53046                           DXCH     DSPTEM1
000157: 15,2044           32157                           CAF      V06N34
000158: 15,2045           04676                           TC       BANKCALL
000159: 15,2046           20720                           CADR     GOFLASH
000160: 15,2047           04106                           TC       GOTOPOOH
000161: 15,2050           02052                           TC       +2
000162: 15,2051           02044                           TC       -5
000163: 15,2052           00006                           EXTEND
000164: 15,2053           31046                           DCA      DSPTEM1
000165: 15,2054           00006                           EXTEND
000166: 15,2055           12057                           BZF      +2
000167: 15,2056           12062                           TCF      +4
000168:
000169: 15,2057           00006                           EXTEND
000170: 15,2060           30025                           DCA      TIME2
000171: 15,2061           53046                           DXCH     DSPTEM1
000172: 15,2062           31132                           CA       OPTION2
000173: 15,2063           75032                           MASK     BIT2
000174: 15,2064           10000                           CCS      A
000175: 15,2065           12073                           TCF      +6                                    #  NOM
000176: 15,2066           06006                           TC       INTPRET                               #  LS
000177: 15,2067           77624                           CALL
000178: 15,2070           34603                                    P52LS
000179: 15,2071           77650                           GOTO
000180: 15,2072           32100                                    P52D
000181: 15,2073           06006                           TC       INTPRET
000182: 15,2074           77745                           DLOAD
000183: 15,2075           01046                                    DSPTEM1
000184: 15,2076           77624                           CALL                                           #  COMPUTE NOMINAL IMU
000185: 15,2077           34733                                    S52.3                                 #        ORIENTATION
000186: 15,2100           77624        P52D               CALL                                           #  READ VEHICLE ATTITUDE AND
000187: 15,2101           22260                                    S52.2                                 #        COMPUTE GIMBAL ANGLES
000188: 15,2102           77776                           EXIT
000189: 15,2103           32160                           CAF      VB06N22
000190: 15,2104           04676                           TC       BANKCALL                              #  DISPLAY GIMBAL ANGLES
000191: 15,2105           20720                           CADR     GOFLASH
000192: 15,2106           04106                           TC       GOTOPOOH
000193: 15,2107           02161                           TC       COARSTYP
000194: 15,2110           06006        P52J               TC       INTPRET                               #  RECYCLE- VEHICLE HAS BEEN MENUEVERED
000195: 15,2111           77650                           GOTO
000196: 15,2112           32100                                    P52D
000197: 15,2113           06006                           TC       INTPRET
000198: 15,2114           77624                           CALL                                           #  DO COARSE ALIGN
000199: 15,2115           30772                                    CAL53A                                #        ROUTINE
000200: 15,2116           77414        CAL53RET           SET      EXIT
000201: 15,2117           01462                                    REFSMFLG
000202: 15,2120           05426        P52C               TC       PHASCHNG
000203: 15,2121           04024                           OCT      04024
000204: 15,2122           35041                           CAF      ALRM15
000205: 15,2123           04676                           TC       BANKCALL
000206: 15,2124           21045                           CADR     GOPERF1
000207: 15,2125           04106                           TC       GOTOPOOH
000208: 15,2126           02130                           TC       +2                                    #  V33
000209: 15,2127           02142                           TC       P52F                                  #  E
000210: 15,2130           06006                           TC       INTPRET
000211: 15,2131           43234                           RTB      DAD
000212: 15,2132           45510                                    LOADTIME
000213: 15,2133           32264                                    TSIGHT1
000214: 15,2134           77624                           CALL
000215: 15,2135           30227                                    LOCSAM
000216: 15,2136           77776                           EXIT
000217: 15,2137           04676        P52E               TC       BANKCALL                              #  DO STAR SELECTION
000218: 15,2140           30335                           CADR     PICAPAR
000219: 15,2141           02147                           TC       P52I                                  #  2 STARS NOT AVAILABLE
000220: 15,2142           06006        P52F               TC       INTPRET                               #  2 STARS AVAILABLE
000221: 15,2143           77624                           CALL
000222: 15,2144           30534                                    R51
000223: 15,2145           77776        ENDP50S            EXIT
000224: 15,2146           04106                           TC       GOTOPOOH
000225: 15,2147           05664        P52I               TC       ALARM
000226: 15,2150           00405                           OCT      405
000227: 15,2151           35064                           CAF      V05N09
000228: 15,2152           04676                           TC       BANKCALL
000229: 15,2153           20720                           CADR     GOFLASH
000230: 15,2154           04106                           TC       GOTOPOOH
000231: 15,2155           02142                           TC       P52F                                  #  PROCEED - DO FINE ALIGN-R51
000232: 15,2156           02120                           TC       P52C                                  #  RECYCLE - VEHICLE HAS BEEN MANUEVERED
000233: 15,2157           01442        V06N34             VN       0634
000234: 15,2160           01426        VB06N22            VN       00622
000235: 15,2161           35040        COARSTYP           CAF      OCT13
000236: 15,2162           04676                           TC       BANKCALL
000237: 15,2163           21045                           CADR     GOPERF1
000238: 15,2164           14106                           TCF      GOTOPOOH                              #  V34
000239: 15,2165           12113                           TCF      P52J       +3                         #   NORMAL
000240: 15,2166           06006                           TC       INTPRET                               #  GYRO COARSE
000241: 15,2167           64375        GYCRS              VLOAD    MXV
000242: 15,2170           00307                                    XSMD
000243: 15,2171           01736                                    REFSMMAT
000244: 15,2172           77656                           UNIT
000245: 15,2173           26714                           STOVL    XDC
000246: 15,2174           00315                                    YSMD
000247: 15,2175           53521                           MXV      UNIT
000248: 15,2176           01736                                    REFSMMAT
000249: 15,2177           26722                           STOVL    YDC
000250: 15,2200           00323                                    ZSMD
000251: 15,2201           53521                           MXV      UNIT
000252: 15,2202           01736                                    REFSMMAT
000253: 15,2203           36730                           STCALL   ZDC
000254: 15,2204           47207                                    CALCGTA
000255: 15,2205           43014                           CLEAR    CLEAR
000256: 15,2206           01260                                    DRIFTFLG
000257: 15,2207           01662                                    REFSMFLG
000258: 15,2210           77776                           EXIT
000259: 15,2211           32244                           CAF      V16N20
000260: 15,2212           04676                           TC       BANKCALL
000261: 15,2213           20676                           CADR     GODSPR
000262: 15,2214           32323                           CA       R55CDR
000263: 15,2215           04676                           TC       BANKCALL
000264: 15,2216           17206                           CADR     IMUPULSE
000265: 15,2217           04676                           TC       BANKCALL
000266: 15,2220           17577                           CADR     IMUSTALL
000267: 15,2221           05763                           TC       CURTAINS
000268: 15,2222           05426                           TC       PHASCHNG
000269: 15,2223           04024                           OCT      04024
000270: 15,2224           06006                           TC       INTPRET
000271: 15,2225           75160                           AXC,1    AXC,2
000272: 15,2226           00306                                    XSMD
000273: 15,2227           01735                                    REFSMMAT
000274: 15,2230           77624                           CALL
000275: 15,2231           31044                                    MATMOVE
000276: 15,2232           43014                           CLEAR    SET
000277: 15,2233           01273                                    PFRATFLG
000278: 15,2234           01462                                    REFSMFLG
000279: 15,2235           77234                           RTB      VLOAD
000280: 15,2236           31255                                    SET1/PDT
000281: 15,2237           11566                                    ZEROVEC
000282: 15,2240           01472                           STORE    GCOMP
000283: 15,2241           52014                           SET      GOTO
000284: 15,2242           01060                                    DRIFTFLG
000285: 15,2243           30657                                    R51K
000286: 15,2244           04024        V16N20             VN       1620
000287: 15,2245     5041               ALRM15             EQUALS   OCT15
000288: 16,2000                                           SETLOC   P50S2
000289: 16,2000                                           BANK
000290: 16,2602           01531        V06N89*            VN       0689
000291:
000292:                                                                                                  #  NAME - P52LS
000293:
000294:                                                                                                  #  FUNCTION - TO DISPLAY THE LANDING SITE LATITUDE,
000295:                                                                                                  #  LONGTITUDE AND ALTITUDE.  TO ACCEPT NEW DATA VIA
000296:                                                                                                  #  THE KEYBOARD.  TO COMPUTE THE LANDING SITE
000297:                                                                                                  #  ORIENTATION FOR P52 OR P54
000298:
000299:                                                                                                  #  LET:
000300:                                                                                                  #        RLS  = LANDING SITE VECTOR IN REF COORDINATES
000301:                                                                                                  #        R    = CSM POSITION VECTOR IN REF COORDINATES
000302:                                                                                                  #        V    = CSM VELOCITY VECTOR IN REF COORDINATES
000303:                                                                                                  #  THEN THE LANDING SITE ORIENTATION IS:
000304:                                                                                                  #        XSMD = UNIT(RLS)
000305:                                                                                                  #        YSMD = UNIT(ZSMD*XSMD)
000306:                                                                                                  #        ZSMD = UNIT((R*V)*RLS)
000307:
000308:                                                                                                  #  CALL -        CALL
000309:                                                                                                  #                        P52LS
000310:
000311:                                                                                                  #  INPUTS-       DSPTEM1 = TIME OF ALIGNMENT
000312:                                                                                                  #                RLS = LANDING SITE VECTOR IN MOON FIXED COORINATES
000313:
000314:                                                                                                  #  OUTPUTS-      XSMD, YSMD, ZSMD
000315:
000316:                                                                                                  #  SUBROUTINES-  RP-TO-R, LAT-LONG, LLASRD, LLASRDA, CSMPREC
000317:
000318:                                                                                                  #  DEBRIS-       VAC, SEE SUBROUTINES
000319:
000320: 16,2603           43020        P52LS              STQ      SET
000321: 16,2604           00300                                    QMAJ
000322: 16,2605           01463                                    LUNAFLAG
000323: 16,2606           77745                           DLOAD
000324: 16,2607           01046                                    DSPTEM1
000325: 16,2610           02607                           STORE    TSIGHT
000326: 16,2611           43175                           VLOAD    SET
000327: 16,2612           02026                                    RLS
000328: 16,2613           00462                                    ERADFLAG
000329: 16,2614           14001                           STODL    0D
000330: 16,2615           02607                                    TSIGHT
000331: 16,2616           34007                           STCALL   6D
000332: 16,2617           55343                                    RP-TO-R
000333: 16,2620           77742                           VSR2
000334: 16,2621           16152                           STODL    ALPHAV
000335: 16,2622           02607                                    TSIGHT
000336: 16,2623           77624                           CALL
000337: 16,2624           26376                                    LAT-LONG
000338: 16,2625           77624                           CALL
000339: 16,2626           62365                                    LLASRD
000340: 16,2627           77776                           EXIT
000341: 16,2630           32602        LSDISP             CAF      V06N89*
000342: 16,2631           04676                           TC       BANKCALL
000343: 16,2632           20720                           CADR     GOFLASH
000344: 16,2633           04106                           TC       GOTOPOOH
000345: 16,2634           02636                           TC       +2
000346: 16,2635           02630                           TC       LSDISP
000347: 16,2636           06006                           TC       INTPRET
000348: 16,2637           77624                           CALL
000349: 16,2640           62374                                    LLASRDA
000350: 16,2641           45145                           DLOAD    CALL
000351: 16,2642           02607                                    TSIGHT
000352: 16,2643           26447                                    LALOTORV
000353: 16,2644           53575                           VLOAD    UNIT
000354: 16,2645           02152                                    ALPHAV
000355: 16,2646           14307                           STODL    XSMD
000356: 16,2647           02607                                    TSIGHT
000357: 16,2650           34041                           STCALL   TDEC1
000358: 16,2651           27100                                    CSMPREC
000359: 16,2652           47375                           VLOAD    VXV
000360: 16,2653           00001                                    RATT
000361: 16,2654           00007                                    VATT
000362: 16,2655           53435                           VXV      UNIT
000363: 16,2656           00307                                    XSMD
000364: 16,2657           00323                           STORE    ZSMD
000365: 16,2660           53435                           VXV      UNIT
000366: 16,2661           00307                                    XSMD
000367: 16,2662           34315                           STCALL   YSMD
000368: 16,2663           00300                                    QMAJ
000369: 14,2000                                           SETLOC   P50S1
000370: 14,2000                                           BANK
000371:
000372:                                                                                                  #  NAME-         AUTOMATIC OPTICS POSITIONING ROUTINE
000373:
000374:                                                                                                  #  FUNCTION-     (1) TO POINT THE STAR LOS OF THE OPTICS AT A STAR OR LANDMARK DEFINED BY THE PROGRAM OR BY DSKY INPUT.
000375:                                                                                                  #                (2) TO POINT THE STAR LOS OF THE OPTICS AT THE LEM DURING RENDEZVOUS TRACKING OPERATIONS.
000376:
000377:                                                                                                  #  CALLING SEQUENCE- CALL R52
000378:
000379:                                                                                                  #  INPUT-        1.  TARG1FLG AND TARG2FLG- PRESET BY CALLER
000380:                                                                                                  #                2.  RNDVZFLG AND TRACKFLG- PRESET BY CALLER
000381:                                                                                                  #                3.  STAR CODE- PRESET BY CALLER. ALSO INPUT THROUGH DSKY
000382:                                                                                                  #                4.  LAT, LONG AND ALT OF LANDMARK- INPUT THROUGH DSKY
000383:                                                                                                  #                5.  NO. OF MARKS (MARKINDX)- PRESET BY CALLER
000384:
000385:                                                                                                  #  OUTPUT-       DRIVE SHAFT AND TRUNNION CDUS
000386:
000387:                                                                                                  #  SUBROUTINES-  1.  FIXDELAY            7.  CLEANDSP
000388:                                                                                                  #                2.  GOPERF1             8.  GODSPR
000389:                                                                                                  #                3.  GOFLASH             9.  REFLASHR
000390:                                                                                                  #                4.  R53                 10. R52.2
000391:                                                                                                  #                5.  ALARM               11. R52.3
000392:                                                                                                  #                6.  SR52.1
000393:
000394: 14,2011                                           COUNT    15/R52
000395:
000396: 14,2011           43020        R52                STQ      CLEAR
000397: 14,2012           02576                                    SAVQR52
000398: 14,2013           04265                                    ADVTRK
000399: 14,2014           77776        R52VRB             EXIT
000400: 14,2015           00006                           EXTEND
000401: 14,2016           30036                           DCA      CDUT
000402: 14,2017           53161                           DXCH     DESOPTT
000403: 14,2020           06006                           TC       INTPRET
000404: 14,2021           43131                           SSP      CLEAR
000405: 14,2022           01304                                    OPTIND
000406: 14,2023           00000                                    0
000407: 14,2024           00271                                    R53FLAG
000408: 14,2025           77776                           EXIT
000409: 14,2026           06006        R52A               TC       INTPRET
000410: 14,2027           43014                           SET      BON
000411: 14,2030           00073                                    TRUNFLAG
000412: 14,2031           00705                                    TARG1FLG
000413: 14,2032           30112                                    R52H
000414: 14,2033           77414                           CLEAR    EXIT
000415: 14,2034           03660                                    TERMIFLG
000416: 14,2035           31314        R52C               CA       SWSAMPLE                              #  IS OPTICS MODE IN AGC
000417: 14,2036           00006                           EXTEND
000418: 14,2037           62142                           BZMF     R52M                                  #  MANUAL
000419: 14,2040           04676        R52D               TC       BANKCALL                              #  AGC
000420: 14,2041           26252                           CADR     SR52.1
000421: 14,2042           12172                           TCF      R52L                                  #  GR 90 DEGREES
000422: 14,2043           12137                           TCF      R52J                                  #  GR 50 DEGREES
000423: 14,2044           05562                           TC       UPFLAG                                #  LS 50 DEGREES
000424: 14,2045           00013                           ADRES    TRUNFLAG                              #  SET TRUNFLAG BIT 4 FLAG 0
000425: 14,2046           35022        R52JA              CAF      BIT10                                 #  IS THIS A LEM
000426: 14,2047           70075                           MASK     STATE      +1
000427: 14,2050           10000                           CCS      A
000428: 14,2051           02061                           TC       R52E                                  #  YES
000429: 14,2052           35026                           CAF      BIT6                                  #  NO, IS R53FLAG SET
000430: 14,2053           70074                           MASK     STATE
000431: 14,2054           10000                           CCS      A
000432: 14,2055           12061                           TCF      R52E                                  #  YES
000433: 14,2056           32162                           CAF      V06N92                                #  NO
000434: 14,2057           04676                           TC       BANKCALL
000435: 14,2060           20676                           CADR     GODSPR


000440: 14,2061           31314        R52E               CA       SWSAMPLE                              #  IS OSS IN CMC MODE
000441: 14,2062           00006                           EXTEND
000442: 14,2063           62074                           BZMF     R52F                                  #  NO
000443: 14,2064           40074                           CS       STATE                                 #  YES- IS TRUNFLAG SET
000444: 14,2065           75030                           MASK     BIT4
000445: 14,2066           10000                           CCS      A
000446: 14,2067           02133                           TC       R52EA                                 #  NO
000447: 14,2070           31775                           CA       PAC                                   #  YES
000448: 14,2071           55160                           TS       DESOPTT
000449: 14,2072           31773        DOSHAFT            CA       SAC
000450: 14,2073           55161                           TS       DESOPTS
000451: 14,2074           35052        R52F               CAF      .5SEC                                 #  WAIT 1/2 SEC
000452: 14,2075           04676                           TC       BANKCALL
000453: 14,2076           01732                           CADR     DELAYJOB
000454: 14,2077           35022                           CAF      BIT10
000455: 14,2100           70075                           MASK     STATE      +1
000456: 14,2101           10000                           CCS      A
000457: 14,2102           12113                           TCF      R52HA                                 #  YES, LEM
000458: 14,2103           35015                           CAF      BIT15                                 #  NO
000459: 14,2104           70103                           MASK     STATE      +7                         #  IS TERMIFLG SET
000460: 14,2105           00006                           EXTEND
000461: 14,2106           12035                           BZF      R52C                                  #  NO
000462: 14,2107           06006        R52Q               TC       INTPRET                               #  YES
000463: 14,2110           77650                           GOTO
000464: 14,2111           02576                                    SAVQR52
000465: 14,2112           77776        R52H               EXIT                                           #  LEM
000466: 14,2113           04676        R52HA              TC       BANKCALL
000467: 14,2114           76570                           CADR     R61CSM
000468: 14,2115           30075                           CA       STATE      +1
000469: 14,2116           75027                           MASK     BIT5
000470: 14,2117           00006                           EXTEND                                         #  TRACKFLG
000471: 14,2120           12107                           BZF      R52Q
000472:
000473: 14,2121           40075                           CS       STATE      +1
000474: 14,2122           75025                           MASK     BIT7                                  #  UPDATFLG
000475: 14,2123           10000                           CCS      A
000476: 14,2124           12131                           TCF      R52SYNC
000477:
000478: 14,2125           30101        R52I               CA       STATE      +5
000479: 14,2126           75022                           MASK     BIT10
000480: 14,2127           10000                           CCS      A
000481: 14,2130           02040                           TC       R52D                                  #  PRFTRKAT = 1
000482: 14,2131           32206        R52SYNC            CAF      1.8SEC                                #  MAKE UP FOR LOST TIME
000483: 14,2132           12075                           TCF      R52F       +1
000484:


000492: 14,2133           32136        R52EA              CAF      TRUNLIM
000493: 14,2134           55160                           TS       DESOPTT
000494: 14,2135           02072                           TC       DOSHAFT
000495: 14,2136           25252        TRUNLIM            OCT      25252                                 #  CORESPONDS TO 50 DEGS IN TRUNION
000496:
000497: 14,2137           05574        R52J               TC       DOWNFLAG                              #  CLEAR TRUNFLAG
000498: 14,2140           00013                           ADRES    TRUNFLAG                              #  BIT 4 FLAG 0


000502: 14,2141           02046                           TC       R52JA
000503: 14,2142           35026        R52M               CAF      BIT6                                  #  IS R53FLAG SET
000504: 14,2143           70074                           MASK     STATE
000505: 14,2144           10000                           CCS      A
000506: 14,2145           02074                           TC       R52F                                  #  YES
000507: 14,2146           00004                           INHINT                                         #  NO
000508: 14,2147           37661                           CAF      PRIO24
000509: 14,2150           05163                           TC       FINDVAC
000510: 14,2151  E5,1773                                  EBANK=   SAC
000511: 14,2151           02155 30065                     2CADR    R53JOB
000512:
000513: 14,2153           00003                           RELINT
000514: 14,2154           12074                           TCF      R52F
000515: 14,2155           06006        R53JOB             TC       INTPRET
000516: 14,2156           77624                           CALL
000517: 14,2157           31304                                    R53
000518: 14,2160           77776        ENDPLAC            EXIT                                           #  INTERPRETER RETURN TO ENDOFJOB (R22 USES)
000519: 14,2161           05233                           TC       ENDOFJOB
000520: 14,2162           01534        V06N92             VN       00692
000521: 14,2163           01531        V06N89A            VN       0689
000522: 14,2164           10464 12470  SHAXIS             2DEC     .5376381241 B-1
000523:
000524: 14,2166           00000 00000                     2DEC     0          B-28
000525:
000526: 14,2170           15373 11554                     2DEC     .8431766920 B-1
000527:
000528: 14,2172           35022        R52L               CAF      BIT10                                 #  IS THIS A LEM
000529: 14,2173           70075                           MASK     STATE      +1
000530: 14,2174           10000                           CCS      A
000531: 14,2175           02137                           TC       R52J                                  #  YES
000532: 14,2176           32205                           CAF      OCT404
000533: 14,2177           04676                           TC       BANKCALL
000534: 14,2200           21766                           CADR     PRIOLARM
000535: 14,2201           12207                           TCF      TERM52                                #  TERMINATE
000536: 14,2202           12074                           TCF      R52F                                  #  PROCEED
000537: 14,2203           12074                           TCF      R52F                                  #  NO PROVISION FOR NEW DATA
000538: 14,2204           15233                           TCF      ENDOFJOB
000539:
000540: 14,2205           00404        OCT404             OCT      404
000541: 14,2206           00264        1.8SEC             DEC      180        B-14
000542:
000543: 14,2207           05552        TERM52             TC       CLEARMRK
000544:
000545: 14,2210           04676                           TC       BANKCALL                              #  KILL MARK SYSTEM
000546: 14,2211           16063                           CADR     MKRELEAS
000547:
000548:
000549: 14,2212           35035                           CAF      ZERO
000550: 14,2213           55323                           TS       OPTCADR
000551:
000552: 14,2214           04676                           TC       BANKCALL                              #  CLEAR OUT EXTENDED VERBS
000553: 14,2215           20560                           CADR     KLEENEX
000554:
000555: 14,2216           04106                           TC       GOTOPOOH                              #  NOW GO TO POO
000556:
000557: 14,2217           43020        ADVORB             STQ      SET                                   #  SETS UP ADVANCED ORBIT TRACKING
000558: 14,2220           02576                                    SAVQR52
000559: 14,2221           04065                                    ADVTRK
000560: 14,2222           43014                           SET      SET
000561: 14,2223           01463                                    LUNAFLAG
000562: 14,2224           00462                                    ERADFLAG
000563: 14,2225           77650                           GOTO
000564: 14,2226           30014                                    R52VRB
000565:
000566:                                                                                                  #  NAME - S50 ALIAS LOCSAM
000567:                                                                                                  #  NAME- LOCSAM
000568:
000569:                                                                                                  #  FUNCTION - TO COMPUTE QUATITIGS LISTED BELOW, USED IN THE
000570:                                                                                                  #              IMU ALIGNMENT PROGRAMS
000571:
000572:                                                                                                  #        DEFINE:
000573:
000574:                                                                                                  #        RATT = POSITION VECTOR OF CM WRT PRIMARY BODY
000575:
000576:                                                                                                  #        VATT = VELOCITY VECTOR OF CM WRT PRIMARY BODY
000577:
000578:                                                                                                  #        RE = RADIUS OF EARTH
000579:
000580:                                                                                                  #        RM = RADIUS OF MOON
000581:
000582:                                                                                                  #        ECLIPOL = POLE OF ECLIPTIC SCALED BY TANGENTIAL VELOCITY OF EARTH
000583:                                                                                                  #                  WRT TO SUN OVER THE VELOCITY OF LIGHT
000584:
000585:                                                                                                  #        REM = POSITION OF MOON WRT EARTH
000586:
000587:                                                                                                  #        RES = POSITION OF SUN WRT EARTH
000588:
000589:                                                                                                  #        C = VELOCITY OF LIGHT
000590:
000591:                                                                                                  #                EARTH IS PRIMARY                        MOON IS PRIMARY
000592:                                                                                                  #                        -                                       -
000593:                                                                                                  #                VEARTH=-1(RATT)                         VEARTH=-1(REM+RATT)
000594:                                                                                                  #                        -                                       -
000595:                                                                                                  #                VMOON = 1(REM-RATT)                     VMOON =-1(RATT)
000596:                                                                                                  #                        -                                       -
000597:                                                                                                  #                VSUN  = 1(RES)                          VSUN  = 1(RES-REM)
000598:                                                                                                  #                              -1
000599:                                                                                                  #                CEARTH=COS(SIN  (RE/RATT)+5)            CEARTH=COS 5
000600:                                                                                                  #                                                                      -1
000601:                                                                                                  #                CMOON =COS 5                            CMOON =COS(SIN  CRM/RATT)+5)
000602:
000603:                                                                                                  #                CSUN  =COS 15                           CSUN  =COS 15
000604:
000605:                                                                                                  #                            VEL/C = VSUN X ECLIPOL + VATT/C
000606:
000607:                                                                                                  #  CALL  -       DLOAD   CALL
000608:                                                                                                  #                        DESIRED TIME
000609:                                                                                                  #                        LOCSAM
000610:
000611:                                                                                                  #  INPUTS -      MPAC = TIME
000612:
000613:                                                                                                  #  OUTPUTS-      VEARTH, VMOON, VSUN, CEARTH, CMOON, CSUN, VEL/C
000614:
000615:                                                                                                  #  SUBROUTINES-  LSPOS, CSMCONIC
000616:
000617:                                                                                                  #  DEBRIS  -     VAC AREA, SEE SUBROUTINES
000618:
000619: 14,2000                                           SETLOC   P50S1
000620: 14,2000                                           BANK
000621:
000622: 14,2227                                           COUNT*   $$/S50
000623:
000624: 14,2227  14,2227               LOCSAM             =        S50
000625: 14,2227           77620        S50                STQ
000626: 14,2230           00300                                    QMAJ
000627: 14,2231           36607                           STCALL   TSIGHT
000628: 14,2232           54110                                    LSPOS
000629: 14,2233           26752                           STOVL    VMOON
000630: 14,2234           00003                                    2D
000631: 14,2235           16744                           STODL    VSUN
000632: 14,2236           02607                                    TSIGHT
000633: 14,2237           34041                           STCALL   TDEC1
000634: 14,2240           27123                                    CSMCONIC
000635: 14,2241           61131                           SSP      TIX,2
000636: 14,2242           00052                                    S2
000637: 14,2243           00000                                    0
000638: 14,2244           30267                                    MOONCNTR
000639: 14,2245           52375        EARTCNTR           VLOAD    VSU
000640: 14,2246           02752                                    VMOON
000641: 14,2247           00001                                    RATT
000642: 14,2250           77656                           UNIT
000643: 14,2251           26752                           STOVL    VMOON
000644: 14,2252           00001                                    RATT
000645: 14,2253           57456                           UNIT     VCOMP
000646: 14,2254           16736                           STODL    VEARTH
000647: 14,2255           32250                                    RSUBE
000648: 14,2256           77624                           CALL
000649: 14,2257           30327                                    OCCOS
000650: 14,2260           14017                           STODL    CEARTH
000651: 14,2261           32266                                    CSS5
000652: 14,2262           24023                           STOVL    CMOON
000653: 14,2263           02744                                    VSUN
000654: 14,2264           77656                           UNIT
000655: 14,2265           36744                           STCALL   VSUN
000656: 14,2266           30314                                    ENDSAM
000657: 14,2267           40575        MOONCNTR           VLOAD    VSR8
000658: 14,2270           02752                                    VMOON
000659: 14,2271           51362                           VSR1     BVSU
000660: 14,2272           02744                                    VSUN
000661: 14,2273           77656                           UNIT
000662: 14,2274           26744                           STOVL    VSUN
000663: 14,2275           02752                                    VMOON
000664: 14,2276           53455                           VAD      UNIT
000665: 14,2277           00001                                    RATT
000666: 14,2300           77676                           VCOMP
000667: 14,2301           26736                           STOVL    VEARTH
000668:
000669: 14,2302           00001                                    RATT
000670: 14,2303           57456                           UNIT     VCOMP
000671: 14,2304           16752                           STODL    VMOON
000672: 14,2305           32246                                    RSUBM
000673: 14,2306           77624                           CALL
000674: 14,2307           30327                                    OCCOS
000675: 14,2310           14023                           STODL    CMOON
000676: 14,2311           32266                                    CSS5
000677: 14,2312           24017                           STOVL    CEARTH
000678: 14,2313           02744                                    VSUN
000679: 14,2314           77635        ENDSAM             VXV
000680: 14,2315           32256                                    ECLIPOL
000681: 14,2316           27474                           STOVL    VEL/C
000682: 14,2317           00007                                    VATT
000683: 14,2320           53361                           VXSC     VAD
000684: 14,2321           32254                                    1/C
000685: 14,2322           03474                                    VEL/C
000686: 14,2323           17474                           STODL    VEL/C
000687: 14,2324           32270                                    CSSUN
000688: 14,2325           34021                           STCALL   CSUN
000689: 14,2326           00300                                    QMAJ
000690: 14,2327           70471        OCCOS              DDV      SR1
000691: 14,2330           00045                                    36D
000692: 14,2331           43336                           ASIN     DAD
000693: 14,2332           32252                                    5DEGREES
000694: 14,2333           70546                           COS      SR1
000695: 14,2334           77616                           RVQ
000696: 15,2000                                           SETLOC   P50S
000697: 15,2000                                           BANK
000698: 15,2245           00065 01265  RSUBM              2DEC     1738090    B-29                       #  MOON RADIUS IN METERS
000699:
000700: 15,2247           00302 24533  RSUBE              2DEC     6378166    B-29
000701:
000702: 15,2251           00343 21616  5DEGREES           2DEC     .013888889                            #  SCALED IN REVS
000703:
000704: 15,2253           00000 13143  1/C                2DEC     .000042699 B-1                        #  *
000705:
000706: 15,2255           00000 00000  ECLIPOL            2DEC     0          B-28                       #  *
000707:
000708: 15,2257           77777 53231                     2DEC     -.00007896 B-1                        #  *
000709:
000710: 15,2261           00001 17570                     2DEC     .00018209  B-1                        #  *             * FOR USE BY CSM ONLY
000711:
000712: 15,2263           00001 16700  TSIGHT1            2DEC     24000      B-28
000713:
000714: 15,2265                        CEARTH             =        14D
000715: 15,2265                        CSUN               =        16D
000716: 15,2265                        CMOON              =        18D
000717: 15,2265           07760 14473  CSS5               2DEC     .2490475                              #  (COS 5)/4
000718: 15,2267           07564 15042  CSSUN              2DEC     .24148                                #  COS 15  /4
000719:
000720:                                                                                                  #  PROGRAM NAME - PICAPAR        DATE DEC 20 66
000721:                                                                                                  #  MOD 1                         LOG SECTION P51-P53
000722:                                                                                                  #                                ASSEMBLY  SUNDISK  REV40
000723:                                                                                                  #  BY KEN VINCENT
000724:
000725:                                                                                                  #  FUNCTION
000726:                                                                                                  #        THIS PROGRAM READ THE IMU-CDUS AND COMPUTES THE VEHICLE ORIENTATION
000727:                                                                                                  #        WITH RESPECT TO INERTIAL SPACE.  IT THEN COMPUTES THE SHAFT AXIS (SAX)
000728:                                                                                                  #        WITH RESPECT TO REFERENCE INERTIAL.  EACH STAR IN THE CATALOG IS TESTED
000729:                                                                                                  #        TO DETERMINE IF IT IS OCCULTED BY EITHER THE EARTH, SUN OR MOON.  IF A
000730:                                                                                                  #        STAR IS NOT OCCULTED THEN IT IS PAIRED WITH ALL STAR OF LOWER INDEX.
000731:                                                                                                  #        THE PAIRED STAR IS TESTED FOR OCCULTATION.  PAIRS OF STARS THAT PASS
000732:                                                                                                  #        THE OCCULTATION TESTS ARE TESTED FOR GOOD SEPARATION.  A PAIR OF STARS
000733:                                                                                                  #        HAVE GOOD SEPARATION IF THE ANGLE BETWEEN THEM IS LESS THAN 66 DEGREES
000734:                                                                                                  #        AND MORE THAN 40 DEGREES.  THOSE PAIRS OF STARS WITH GOOD SEPARATION
000735:                                                                                                  #        ARE THEN TESTED TO SEE IF THEY LIE IN CURRENT FIELD OF VIEW.  (WITHIN
000736:                                                                                                  #        33 DEGREES OF SAX).  THE PAIR WITH MAXIMUM SEPARATION IS CHOSEN FROM
000737:                                                                                                  #        THOSE WITH GOOD SEPARATION, AND IN FIELD OF VIEW.
000738:
000739:                                                                                                  #  CALLING SEQUENCE
000740:                                                                                                  #        L       TC      BANKCALL
000741:                                                                                                  #        L+1     CADR    PICAPAR
000742:                                                                                                  #        L+2     ERROR RETURN - NO STARS IN FIELD OF VIEW
000743:                                                                                                  #        L+3     NORMAL RETURN
000744:
000745:                                                                                                  #  OUTPUT
000746:                                                                                                  #        BESTI, BESTJ - SINGLE PREC, INTEGERS, STAR NUMBERS TIMES 6
000747:                                                                                                  #        VFLAG - FLAG BIT SET IMPLIES NO STARS IN FIELD OF VIEW
000748:
000749:                                                                                                  #  INITIALIZATION
000750:                                                                                                  #        1)      A CALL TO LOCSAM MUST BE MADE
000751:                                                                                                  #        2)      VEARTH = -UNIT(R) WHERE R HAS BEEN UPDATED TOO APPROXIMATE TIME OF
000752:                                                                                                  #                SIGHTINGS.
000753:
000754:                                                                                                  #  DEBRIS
000755:                                                                                                  #        WORK AREA
000756:                                                                                                  #        X,Y,ZNB
000757:                                                                                                  #        SINCDU, COSCDU
000758:                                                                                                  #        STARAD - STAR +5
000759:
000760: 15,2271                                           COUNT    14/PICAP
000761:
000762: 14,2000                                           SETLOC   P50S1
000763: 14,2000                                           BANK
000764: 14,2335           04725        PICAPAR            TC       MAKECADR
000765: 14,2336           55777                           TS       QMIN
000766: 14,2337           06006                           TC       INTPRET
000767: 14,2340           77624                           CALL
000768: 14,2341           47501                                    CDUTRIG
000769: 14,2342           77624                           CALL
000770: 14,2343           34664                                    CALCSMSC
000771: 14,2344           77601                           SETPD
000772: 14,2345           00001                                    0
000773: 14,2346           71214                           SET      DLOAD                                 #  VFLAG = 1
000774: 14,2347           01465                                    VFLAG
000775: 14,2350           11566                                    DPZERO
000776: 14,2351           24303                           STOVL    BESTI
000777: 14,2352           02714                                    XNB
000778: 14,2353           63361                           VXSC     PDVL
000779: 14,2354           30513                                    SIN33
000780: 14,2355           02730                                    ZNB
000781: 14,2356           74370                           AXT,1    VXSC
000782: 14,2357           00344                                    228D                                  #  X1 = 37 X 6 + 6
000783: 14,2360           30515                                    COS33
000784: 14,2361           77655                           VAD
000785: 14,2362           53505                           VXM      UNIT
000786: 14,2363           01736                                    REFSMMAT
000787: 14,2364           02760                           STORE    SAX                                   #  SAX = SHAFT AXIS
000788: 14,2365           66331                           SSP      SSP                                   #  S1 = S2 = 6
000789: 14,2366           00051                                    S1
000790: 14,2367           00006                                    6
000791: 14,2370           00052                                    S2
000792: 14,2371           00006                                    6
000793: 14,2372           52100        PIC1               TIX,1    GOTO                                  #  MAJOR STAR
000794: 14,2373           30375                                    PIC2
000795: 14,2374           30524                                    PICEND
000796: 14,2375           45173        PIC2               VLOAD*   CALL
000797: 14,2376           31765                                    CATLOG,1
000798: 14,2377           30470                                    OCCULT
000799: 14,2400           73014                           BON      LXA,2
000800: 14,2401           01710                                    CULTFLAG
000801: 14,2402           30372                                    PIC1
000802: 14,2403           00046                                    X1
000803: 14,2404           52104        PIC3               TIX,2    GOTO
000804: 14,2405           30407                                    PIC4
000805: 14,2406           30372                                    PIC1
000806: 14,2407           45173        PIC4               VLOAD*   CALL
000807: 14,2410           46012                                    CATLOG,2
000808: 14,2411           30470                                    OCCULT
000809: 14,2412           76614                           BON      VLOAD*
000810: 14,2413           01710                                    CULTFLAG
000811: 14,2414           30404                                    PIC3
000812: 14,2415           31765                                    CATLOG,1
000813: 14,2416           45237                           DOT*     DSU
000814: 14,2417           46012                                    CATLOG,2
000815: 14,2420           30517                                    CSS66                                 #  SEPERATION LESS THAN 66 DEG.
000816: 14,2421           43240                           BMN      DAD
000817: 14,2422           30404                                    PIC3
000818: 14,2423           30521                                    CSS6640                               #  SEPERATION MORE THAN 40 DEG.
000819: 14,2424           77644                           BPL
000820: 14,2425           30404                                    PIC3
000821: 14,2426           50373                           VLOAD*   DOT
000822: 14,2427           31765                                    CATLOG,1
000823: 14,2430           02760                                    SAX
000824: 14,2431           50025                           DSU      BMN                                   #  MAJOR STAR IN CONE
000825: 14,2432           30523                                    CSS33
000826: 14,2433           30372                                    PIC1
000827: 14,2434           50373                           VLOAD*   DOT
000828: 14,2435           46012                                    CATLOG,2
000829: 14,2436           02760                                    SAX
000830: 14,2437           51025                           DSU      BPL
000831: 14,2440           30523                                    CSS33
000832: 14,2441           30444                                    STRATGY
000833: 14,2442           77650                           GOTO
000834: 14,2443           30404                                    PIC3
000835: 14,2444           77614        STRATGY            BONCLR
000836: 14,2445           01605                                    VFLAG
000837: 14,2446           30463                                    NEWPAR
000838: 14,2447           65120                           XCHX,1   XCHX,2
000839: 14,2450           00302                                    BESTI
000840: 14,2451           00303                                    BESTJ
000841: 14,2452           47773        STRAT              VLOAD*   DOT*
000842: 14,2453           31765                                    CATLOG,1
000843: 14,2454           46012                                    CATLOG,2
000844: 14,2455           43006                           PUSH     BOFINV
000845: 14,2456           01545                                    VFLAG
000846: 14,2457           30447                                    STRAT      -3
000847: 14,2460           45345                           DLOAD    DSU
000848: 14,2461           77644                           BPL
000849: 14,2462           30404                                    PIC3
000850: 14,2463           67130        NEWPAR             SXA,1    SXA,2
000851: 14,2464           00302                                    BESTI
000852: 14,2465           00303                                    BESTJ
000853: 14,2466           77650                           GOTO
000854: 14,2467           30404                                    PIC3
000855: 14,2470           51321        OCCULT             MXV      BVSU
000856: 14,2471           02736                                    CULTRIX
000857: 14,2472           00017                                    CSS
000858: 14,2473           77654                           BZE
000859: 14,2474           30507                                    CULTED
000860: 14,2475           75240                           BMN      SIGN
000861: 14,2476           30507                                    CULTED
000862: 14,2477           00160                                    MPAC       +3
000863: 14,2500           75240                           BMN      SIGN
000864: 14,2501           30507                                    CULTED
000865: 14,2502           00162                                    MPAC       +5
000866: 14,2503           43040                           BMN      CLRGO
000867: 14,2504           30507                                    CULTED
000868: 14,2505           01630                                    CULTFLAG
000869: 14,2506           00052                                    QPRET
000870: 14,2507           77614        CULTED             SETGO
000871: 14,2510           01430                                    CULTFLAG
000872: 14,2511           00052                                    QPRET
000873: 14,2512  0000016               CSS                =        CEARTH
000874: 14,2512           21150 25157  SIN33              2DEC     .5376381241
000875:
000876: 14,2514           32766 22713  COS33              2DEC     .8431756920
000877:
000878: 14,2516           01736 35137  CSS66              2DEC     .060480472                            #  (COS76)/4
000879:
000880: 14,2520           73003 65403  CSS6640            2DEC     -.15602587                            #  (COS76 - COS30)/4
000881:
000882: 14,2522           06233 26112  CSS33              2DEC     .197002688                            #  COS(1/2(76))/4
000883:
000884: 14,2524           77414        PICEND             BOFF     EXIT
000885: 14,2525           01745                                    VFLAG
000886: 14,2526           30530                                    PICGXT
000887: 14,2527           02532                           TC       PICBXT
000888: 14,2530           77776        PICGXT             EXIT
000889: 14,2531           25777                           INCR     QMIN
000890: 14,2532           31777        PICBXT             CA       QMIN
000891: 14,2533           04702                           TC       SWCALL
000892:                                                                                                  # V1             =       12D
000893:
000894:                                                                                                  #  NAME - R51    FINE ALIGN
000895:                                                                                                  #  FUNCTION - TO ALIGN THE STABLE MEMBER TO REFSMMAT
000896:                                                                                                  #  CALLING SEQ - CALL R51
000897:                                                                                                  #  INPUT - BESTI, BESTJ (PAIR OF STAR NO)
000898:                                                                                                  #  OUTPUT - GYRO TORQUE PULSES
000899:                                                                                                  #  SUBROUTINES - R52, R54, R55 (SXTNB, NBSM, AXISGEN
000900:
000901: 14,2534                                           COUNT    14/R51
000902:
000903: 14,2534           77776        R51                EXIT
000904: 14,2535           35033                           CAF      BIT1
000905: 14,2536           54304                           TS       STARIND
000906: 14,2537           54301                           TS       MARKINDX
000907: 14,2540           06006        R51.2              TC       INTPRET
000908: 14,2541           43014        R51.3              CLEAR    CLEAR
000909: 14,2542           00666                                    TARG2FLG
000910: 14,2543           00665                                    TARG1FLG
000911: 14,2544           77776                           EXIT
000912: 14,2545           05426                           TC       PHASCHNG
000913: 14,2546           05024                           OCT      05024                                 #  RESTART GR 4 FOR R52-R53
000914: 14,2547           13000                           OCT      13000
000915: 14,2550           50304                           INDEX    STARIND
000916: 14,2551           30302                           CA       BESTI
000917: 14,2552           00006                           EXTEND
000918: 14,2553           72715                           MP       1/6TH
000919: 14,2554           54735                           TS       STARCODE
000920: 14,2555           32714        R51DSP             CAF      V01N70
000921: 14,2556           04676                           TC       BANKCALL
000922: 14,2557           21057                           CADR     GOFLASHR
000923: 14,2560           04106                           TC       GOTOPOOH
000924: 14,2561           02566                           TC       +5
000925: 14,2562           02555                           TC       -5
000926: 14,2563           36211                           CAF      SIX
000927: 14,2564           05542                           TC       BLANKET
000928: 14,2565           15233                           TCF      ENDOFJOB
000929: 14,2566           03372                           TC       CHKSCODE
000930: 14,2567           04400                           TC       FALTON
000931: 14,2570           02555                           TC       R51DSP
000932: 14,2571           06006                           TC       INTPRET
000933: 14,2572           45034                           RTB      CALL
000934: 14,2573           45510                                    LOADTIME
000935: 14,2574           32340                                    PLANET
000936: 14,2575           72131                           SSP      LXA,1
000937: 14,2576           00051                                    S1
000938: 14,2577           00000                                    0
000939: 14,2600           00304                                    STARIND
000940: 14,2601           77700                           TIX,1
000941: 14,2602           30605                                    R51ST
000942: 14,2603           36617                           STCALL   STARSAV2                              #  2ND STAR
000943: 14,2604           30606                                    R51ST      +1
000944: 14,2605           02611        R51ST              STORE    STARSAV1                              #  1ST STAR
000945: 14,2606           77776                           EXIT
000946: 14,2607           41011                           CS       MODREG                                #  IS THIS P54
000947: 14,2610           62713                           AD       OCT66
000948: 14,2611           00006                           EXTEND
000949: 14,2612           12706                           BZF      R51B                                  #  YES
000950: 14,2613           06006                           TC       INTPRET
000951: 14,2614           77624                           CALL
000952: 14,2615           30011                                    R52                                   #  AOP WILL MAKE CALLS TO SIGHTING
000953: 14,2616           77624        R51A               CALL                                           #  COMPUTE LOS IN SM FROM MARK DATA
000954: 14,2617           36060                                    SXTSM
000955: 14,2620           02617                           STORE    STARSAV2
000956: 14,2621           77776                           EXIT
000957: 14,2622           04676                           TC       BANKCALL
000958: 14,2623           16063                           CADR     MKRELEAS
000959: 14,2624           06006                           TC       INTPRET
000960: 14,2625           45145                           DLOAD    CALL
000961: 14,2626           02607                                    TSIGHT
000962: 14,2627           32340                                    PLANET
000963: 14,2630           77776                           EXIT
000964: 14,2631           10304                           CCS      STARIND
000965: 14,2632           02673                           TC       R51.4
000966: 14,2633           06006                           TC       INTPRET
000967: 14,2634           53521                           MXV      UNIT
000968: 14,2635           01736                                    REFSMMAT
000969: 14,2636           02736                           STORE    STARAD
000970: 14,2637           77775                           VLOAD
000971: 14,2640           02617                                    STARSAV2
000972: 14,2641           24007                           STOVL    6D
000973: 14,2642           02611                                    STARSAV1
000974: 14,2643           24015                           STOVL    12D
000975: 14,2644           02601                                    PLANVEC
000976: 14,2645           36744                           STCALL   STARAD     +6
000977: 14,2646           30716                                    R54                                   #  STAR DATA TEST
000978: 14,2647           45014                           BOFF     CALL
000979: 14,2650           00354                                    FREEFLAG
000980: 14,2651           30657                                    R51K
000981: 14,2652           47403                                    AXISGEN
000982: 14,2653           77624                           CALL
000983: 14,2654           32271                                    R55                                   #  GYRO TORQUE
000984: 14,2655           77614                           CLEAR
000985: 14,2656           01273                                    PFRATFLG
000986: 14,2657           77776        R51K               EXIT
000987: 14,2660           35775                           CAF      OCT14
000988: 14,2661           04676                           TC       BANKCALL
000989: 14,2662           21045                           CADR     GOPERF1
000990: 14,2663           04106                           TC       GOTOPOOH
000991: 14,2664           02666                           TC       +2                                    #  V33
000992: 14,2665           02670                           TC       +3
000993: 14,2666           04676                           TC       BANKCALL
000994: 14,2667           32120                           CADR     P52C
000995: 14,2670           06006                           TC       INTPRET
000996: 14,2671           77650                           GOTO
000997: 14,2672           32145                                    ENDP50S
000998: 14,2673           06006        R51.4              TC       INTPRET
000999: 14,2674           53521                           MXV      UNIT
001000: 14,2675           01736                                    REFSMMAT
001001: 14,2676           26601                           STOVL    PLANVEC
001002: 14,2677           02617                                    STARSAV2
001003: 14,2700           02611                           STORE    STARSAV1
001004: 14,2701           77731                           SSP
001005: 14,2702           00305                                    STARIND
001006: 14,2703           00000                                    0
001007: 14,2704           77650                           GOTO
001008: 14,2705           30541                                    R51.3
001009: 14,2706           06006        R51B               TC       INTPRET
001010: 14,2707           77624                           CALL
001011: 14,2710           36114                                    R56
001012: 14,2711           77650                           GOTO
001013: 14,2712           30616                                    R51A
001014: 14,2713           00066        OCT66              OCT      00066
001015: 14,2714           00306        V01N70             VN       0170
001016: 14,2715           05253        1/6TH              DEC      .1666667
001017:
001018:                                                                                                  #  NAME-R55      GYRO TORQUE
001019:                                                                                                  #  FUNCTION - COMPUTE AND SEND GYRO PULSES
001020:                                                                                                  #  CALLING SEQ - CALL R55
001021:                                                                                                  #  INPUT - X,Y,ZDC - REFSMMAT WRT PRESENT STABLE MEMBER
001022:                                                                                                  #  OUTPUT - GYRO PULSES
001023:                                                                                                  #  SUBROUTINES - CALCGTA, GOFLASH, GODSPR, IMUFINE, IMUPULSE, GOPERF1
001024:
001025: 15,2000                                           SETLOC   P50S
001026: 15,2000                                           BANK
001027: 15,2271                                           COUNT*   $$/R55
001028: 15,2271           77620        R55                STQ
001029: 15,2272           02777                                    QMIN
001030: 15,2273           77624                           CALL
001031: 15,2274           47207                                    CALCGTA
001032: 15,2275           77776        PULSEM             EXIT
001033: 15,2276           32322        R55.1              CAF      V06N93
001034: 15,2277           04676                           TC       BANKCALL
001035: 15,2300           20720                           CADR     GOFLASH
001036: 15,2301           04106                           TC       GOTOPOOH
001037: 15,2302           02304                           TC       R55.2
001038: 15,2303           02317                           TC       R55RET
001039: 15,2304           05426        R55.2              TC       PHASCHNG
001040: 15,2305           00314                           OCT      00314
001041: 15,2306           32323                           CA       R55CDR
001042: 15,2307           04676                           TC       BANKCALL
001043: 15,2310           17206                           CADR     IMUPULSE
001044: 15,2311           04676                           TC       BANKCALL
001045: 15,2312           17577                           CADR     IMUSTALL
001046: 15,2313           05763                           TC       CURTAINS
001047: 15,2314           05426                           TC       PHASCHNG
001048: 15,2315           05024                           OCT      05024
001049: 15,2316           13000                           OCT      13000
001050: 15,2317           06006        R55RET             TC       INTPRET
001051: 15,2320           77650                           GOTO
001052: 15,2321           02777                                    QMIN
001053: 15,2322           01535        V06N93             VN       0693
001054: 15,2323           02757        R55CDR             ECADR    OGC
001055: 15,2324  14,2716               R54                =        CHKSDATA
001056:
001057:                                                                                                  #  ROUTINE NAME - CHKSDATA               DATE - JAN 9, 1967
001058:                                                                                                  #  MOD NO - 0                            LOG SECTION - P51-P53
001059:                                                                                                  #  MODIFICATION BY - LONSKE              ASSEMBLY -
001060:
001061:                                                                                                  #  FUNCTIONAL DESCRIPTION - CHECKS THE VALIDITY OF A PAIR OF STAR SIGHTINGS.  WHEN A PAIR OF STAR SIGHTINGS ARE MADE
001062:                                                                                                  #  BY THE ASTRONAUT THIS ROUTINE OPERATES AND CHECKS THE OBSERVED SIGHTINGS AGAINST STORED STAR VECTORS IN THE
001063:                                                                                                  #  COMPUTER TO INSURE A PROPER SIGHTING WAS MADE.  THE FOLLOWING COMPUTATIONS ARE PERFORMED_
001064:                                                                                                  #        OS1     =       OBSERVED STAR 1 VECTOR
001065:                                                                                                  #        OS2     =       OBSERVED STAR 2 VECTOR
001066:                                                                                                  #        SS1     =       STORED STAR 1 VECTOR
001067:                                                                                                  #        SS2     =       STORED STAR 2 VECTOR
001068:                                                                                                  #         A1     =       ARCCOS(OS1 - OS2)
001069:                                                                                                  #         A2     =       ARCCOS(SS1 - SS2)
001070:                                                                                                  #          A     =       ABS(2(A1 - A2))
001071:
001072:                                                                                                  #  THE ANGULAR DIFFERENCE IS DISPLAYED FOR ASTRONAUT ACCEPTENCE
001073:
001074:                                                                                                  #  EXIT MODE     1. FREEFLAG SET IMPLIES ASTRONAUT WANTS TO PROCEED
001075:                                                                                                  #                2. FREEFLAG RESET IMPLIES ASTRONAUT WANTS TO RECYCLE             ERANCE)
001076:
001077:                                                                                                  #  OUTPUT -      1. VERB 6,NOUN 3 - DISPLAYS ANGULAR DIFFERENCE BETWEEN 2 SETS OF STARS.
001078:                                                                                                  #                2. STAR VECTORS FROM STAR CATALOG ARE LEFT IN 6D AND 12D.
001079:
001080:                                                                                                  #  ERASABLE INITIALIZATION REQUIRED -
001081:                                                                                                  #                1. MARK VECTORS ARE STORED IN STARAD AND STARAD +6.
001082:                                                                                                  #                2. CATALOG VECTORS ARE STORED IN 6D AND 12D.
001083:
001084:                                                                                                  #  DEBRIS -
001085:
001086: 14,2000                                           SETLOC   P50S1
001087: 14,2000                                           BANK
001088: 14,2716                                           COUNT*   $$/R50
001089: 14,2716           43020        CHKSDATA           STQ      SET
001090: 14,2717           02777                                    QMIN
001091: 14,2720           00074                                    FREEFLAG
001092: 14,2721           77760        CHKSAB             AXC,1                                          #  SET X1 TO STORE EPHEMERIS DATA
001093: 14,2722           02735                                    STARAD
001094:
001095: 14,2723           47773        CHKSB              VLOAD*   DOT*                                  #  CAL. ANGLE THETA
001096: 14,2724           00001                                    0,1
001097: 14,2725           00007                                    6,1
001098: 14,2726           65552                           SL1      ACOS
001099: 14,2727           00025                           STORE    THETA
001100: 14,2730           43014                           BOFF     INVERT                                #  BRANCH TO CHKSD IF THIS IS 2ND PASS
001101: 14,2731           00354                                    FREEFLAG
001102: 14,2732           30742                                    CHKSD
001103: 14,2733           00174                                    FREEFLAG                              #  CLEAR FREEFLAG
001104: 14,2734           71360                           AXC,1    DLOAD                                 #  SET X1 TO MARK ANGLES
001105: 14,2735           00006                                    6D
001106: 14,2736           00025                                    THETA
001107: 14,2737           00023                           STORE    18D
001108: 14,2740           77650                           GOTO
001109: 14,2741           30723                                    CHKSB                                 #  RETURN TO CAL. 2ND ANGLE
001110: 14,2742           45345        CHKSD              DLOAD    DSU
001111: 14,2743           00025                                    THETA                                 #  COMPUTE POS DIFF
001112: 14,2744           00023                                    18D
001113: 14,2745           47046                           ABS      RTB
001114: 14,2746           45544                                    SGNAGREE
001115: 14,2747           01046                           STORE    NORMTEM1
001116: 14,2750           77414                           SET      EXIT
001117: 14,2751           00074                                    FREEFLAG
001118: 14,2752           35035                           CAF      ZERO
001119: 14,2753           04676                           TC       BANKCALL
001120: 14,2754           20703                           CADR     CLEANDSP
001121:
001122: 14,2755           32771                           CAF      VB6N5
001123: 14,2756           04676                           TC       BANKCALL
001124: 14,2757           20720                           CADR     GOFLASH
001125: 14,2760           14106                           TCF      GOTOPOOH
001126: 14,2761           02766                           TC       CHKSDA                                #  PROCEED
001127: 14,2762           06006                           TC       INTPRET
001128: 14,2763           52014                           CLEAR    GOTO
001129: 14,2764           00274                                    FREEFLAG
001130: 14,2765           02777                                    QMIN
001131: 14,2766           06006        CHKSDA             TC       INTPRET
001132: 14,2767           77650                           GOTO
001133: 14,2770           02777                                    QMIN
001134: 14,2771           01405        VB6N5              VN       605
001135:
001136:                                                                                                  #  NAME - CAL53A
001137:                                                                                                  #  NAME - CAL53A
001138:                                                                                                  #  FUNCTION - COARSE ALIGN THE IMU, IF NECESSARY.
001139:                                                                                                  #  CALLING SEQUENCE - CALL CAL53A
001140:                                                                                                  #  INPUT - PRESENT GIMBAL ANGLES - CDUX, CDUY, CDUZ
001141:                                                                                                  #           DESIRED GIMBAL ANGLES - THETAD,+1,+2
001142:                                                                                                  #  OUTPUT - THE IMU COORDINATES ARE STORED IN REFSMMAT
001143:                                                                                                  #  SUBROUTINES USED - 1.IMUCOARS  2.IMUSTALL  3.CURTAINS
001144:
001145: 14,2772                                           COUNT    14/R50
001146:
001147: 14,2772           77624        CAL53A             CALL
001148: 14,2773           22260                                    S52.2                                 #  MAKE FINAL COMP OF GIMBAL ANGLES
001149: 14,2774           66234                           RTB      SSP
001150: 14,2775           32324                                    RDCDUS                                #  READ CDUS
001151: 14,2776           00051                                    S1
001152: 14,2777           00001                                    1
001153: 14,3000           40370                           AXT,1    SETPD
001154: 14,3001           00003                                    3
001155: 14,3002           00005                                    4
001156: 14,3003           70543        CALOOP             DLOAD*   SR1
001157: 14,3004           01161                                    THETAD     +3D,1
001158: 14,3005           70523                           PDDL*    SR1
001159: 14,3006           00005                                    4,1
001160: 14,3007           51425                           DSU      ABS
001161: 14,3010           45206                           PUSH     DSU
001162: 14,3011           31057                                    DEGREE1
001163: 14,3012           71240                           BMN      DLOAD
001164: 14,3013           31033                                    CALOOP1
001165: 14,3014           51025                           DSU      BPL
001166: 14,3015           31060                                    DEG359
001167: 14,3016           31033                                    CALOOP1
001168: 14,3017           77776        COARFINE           EXIT
001169: 14,3020           05426                           TC       PHASCHNG
001170: 14,3021           04024                           OCT      04024
001171: 14,3022           03260                           TC       COARSUB                               #  PERFORM ALIGNMENT
001172: 14,3023           06006                           TC       INTPRET
001173: 14,3024           77234                           RTB      VLOAD
001174: 14,3025           31255                                    SET1/PDT
001175: 14,3026           11566                                    ZEROVEC
001176: 14,3027           01472                           STORE    GCOMP
001177: 14,3030           52014                           SET      GOTO
001178: 14,3031           01060                                    DRIFTFLG
001179: 14,3032           31035                                    FINEONLY
001180: 14,3033           77700        CALOOP1            TIX,1
001181: 14,3034           31003                                    CALOOP
001182: 14,3035           75160        FINEONLY           AXC,1    AXC,2
001183: 14,3036           02671                                    XSM
001184: 14,3037           01735                                    REFSMMAT
001185: 14,3040           77624                           CALL
001186: 14,3041           31044                                    MATMOVE
001187: 14,3042           77650                           GOTO
001188: 14,3043           32116                                    CAL53RET
001189: 14,3044           77773        MATMOVE            VLOAD*                                         #  TRANSFER MATRIX
001190: 14,3045           00001                                    0,1
001191: 14,3046           10001                           STORE    0,2
001192: 14,3047           77773                           VLOAD*
001193: 14,3050           00007                                    6D,1
001194: 14,3051           10007                           STORE    6D,2
001195: 14,3052           77773                           VLOAD*
001196: 14,3053           00015                                    12D,1
001197: 14,3054           10015                           STORE    12D,2
001198: 14,3055           77616                           RVQ
001199: 14,3056           00056        DEGREE1            DEC      46         B-14
001200: 14,3057           37722        DEG359             DEC      16338      B-14
001201: 15,2000                                           SETLOC   P50S
001202: 15,2000                                           BANK
001203: 15,2324           00004        RDCDUS             INHINT                                         #  READ CDUS
001204: 15,2325           30032                           CA       CDUX
001205: 15,2326           50120                           INDEX    FIXLOC
001206: 15,2327           54001                           TS       1
001207: 15,2330           30033                           CA       CDUY
001208: 15,2331           50120                           INDEX    FIXLOC
001209: 15,2332           54002                           TS       2
001210: 15,2333           30034                           CA       CDUZ
001211: 15,2334           50120                           INDEX    FIXLOC
001212: 15,2335           54003                           TS       3
001213: 15,2336           00003                           RELINT
001214: 15,2337           06030                           TC       DANZIG                                #                                                                        +
001215:
001216:
001217:                                                                                                  #  NAME - GIMB
001218:
001219:                                                                                                  #  FUNCTION - DETERMINE AND COMPUTE THE DESIRED GIMBAL ANGLES TO BE USED         FOR COARSE ALIGNMENT.
001220:
001221:                                                                                                  #  CALLING SEQUENCE - CALL GIMB
001222:
001223:                                                                                                  #  INPUT - DESIRED IMU INERTIAL ORIENTATION VECTORS-XSMD, YSMD, ZSMD
001224:
001225:                                                                                                  #  OUTPUT -GIMBAL ANGLES LEFT IN THETAD, +1, +2                         +
001226:
001227:                                                                                                  #  SUBROUTINES USED - 1.CDUTRIG 2.CALCSMSC 3.CALCGA
001228:
001229: 16,2000                                           SETLOC   P50S2
001230: 16,2000                                           BANK
001231: 16,2664                                           COUNT    14/INFLT
001232:
001233: 16,2664           41345        CALCSMSC           DLOAD    DMP
001234: 16,2665           00737                                    SINCDUY
001235: 16,2666           00747                                    COSCDUZ
001236: 16,2667           77676                           DCOMP
001237: 16,2670           70525                           PDDL     SR1
001238: 16,2671           00741                                    SINCDUZ
001239: 16,2672           41325                           PDDL     DMP
001240: 16,2673           00745                                    COSCDUY
001241: 16,2674           00747                                    COSCDUZ
001242: 16,2675           76466                           VDEF     VSL1
001243: 16,2676           02714                           STORE    XNB
001244: 16,2677           41345                           DLOAD    DMP
001245: 16,2700           00743                                    SINCDUX
001246: 16,2701           00741                                    SINCDUZ
001247: 16,2702           77752                           SL1
001248: 16,2703           00033                           STORE    26D
001249: 16,2704           77605                           DMP
001250: 16,2705           00737                                    SINCDUY
001251: 16,2706           41325                           PDDL     DMP
001252: 16,2707           00751                                    COSCDUX
001253: 16,2710           00745                                    COSCDUY
001254: 16,2711           77625                           DSU
001255: 16,2712           41325                           PDDL     DMP
001256: 16,2713           00743                                    SINCDUX
001257: 16,2714           00747                                    COSCDUZ
001258: 16,2715           77676                           DCOMP
001259: 16,2716           41325                           PDDL     DMP
001260: 16,2717           00751                                    COSCDUX
001261: 16,2720           00737                                    SINCDUY
001262: 16,2721           41325                           PDDL     DMP
001263: 16,2722           00745                                    COSCDUY
001264: 16,2723           00033                                    26D
001265: 16,2724           55415                           DAD      VDEF
001266: 16,2725           77772                           VSL1
001267: 16,2726           02730                           STORE    ZNB
001268: 16,2727           76435                           VXV      VSL1
001269: 16,2730           02714                                    XNB
001270: 16,2731           02722                           STORE    YNB
001271: 16,2732           77616                           RVQ
001272:
001273:                                                                                                  #  NAME - P51 - IMU ORIENTATION DETERMINATION
001274:                                                                                                  #  MOD. NO. 2    21 DEC 66                               LOG SECTION - P51-P53
001275:                                                                                                  #  MOD BY STURLAUGSON                                    ASSEMBLY SUNDISK REV15
001276:
001277:                                                                                                  #  FUNCTIONAL DESCRIPTION
001278:                                                                                                  #        DETERMINES THE INERTIAL ORIENTATION OF THE IMU.  THE PROGRAM IS SELECTED BY DSKY ENTRY.  THE SIGHTING
001279:                                                                                                  #        ROUTINE IS CALLED TO COLLECT THE CDU COUNTERS AND SHAFT AND TRUNNION ANGLES FOR A SIGHTED STAR.  THE DATA IS
001280:                                                                                                  #        THEN PROCESSED AS FOLLOWS.
001281:
001282:                                                                                                  #        1.  SEXTANT ANGLES ARE COMPUTED IN TERMS OF NAVIGATIONAL BASE COORDINATES.  LET SA AND TA BE THE SHAFT AND
001283:                                                                                                  #        TRUNNION ANGLES, RESPECTIVELY.  THEN,
001284:                                                                                                  #        -
001285:                                                                                                  #        V  = (SIN(TA)*COS(SA), SIN(TA)*SIN(SA), COS(TA))        (A COLUMN VECTOR)
001286:                                                                                                  #         NB
001287:                                                                                                  #        THE OUTPUT IS A HALF-UNIT VECTOR STORED IN STARM.
001288:
001289:                                                                                                  #        2.  THIS VECTOR IN NAV. BASE COORDS. IS THEN TRANSFORMED TO ONE IN STABLE MEMBER COORDINATES.
001290:                                                                                                  #        -    T  T  T -
001291:                                                                                                  #        V = Q *Q *Q *V  ,       WHERE
001292:                                                                                                  #             1  2  3  NB
001293:
001294:                                                                                                  #             ( COS(IG)   0    -SIN(IG) )
001295:                                                                                                  #             (                         )                                        THE GIMBAL ANGLES ARE COMPUTED FROM
001296:                                                                                                  #        Q  = (   0       1       0     ), IG= INNER GIMBAL ANGLE                THE CDU COUNTERS AT NBSM (USING AXIS-
001297:                                                                                                  #         1   (                         )                                        ROT AND CDULOGIC)
001298:                                                                                                  #             ( SIN(IG)   0     COS(IG) )
001299:
001300:                                                                                                  #             ( COS(MG) SIN(MG)   0     )
001301:                                                                                                  #             (                         )
001302:                                                                                                  #        Q  = (-SIN(MG) COS(MG)   0     ), MG= MIDDLE GIMBAL ANGLE
001303:                                                                                                  #         2   (                         )
001304:                                                                                                  #             (   0       0       1     )
001305:
001306:                                                                                                  #             (   1       0       0     )
001307:                                                                                                  #             (                         )
001308:                                                                                                  #        Q  = (   0     COS(OG) SIN(OG) ), OG= OUTER GIMBAL ANGLE
001309:                                                                                                  #         3   (                         )
001310:                                                                                                  #             (   0    -SIN(OG) COS(OG) )
001311:
001312:                                                                                                  #        3.  THE STAR NUMBER IS SAVED AND THE SECOND STAR IS THEN SIMILARLY PROCESSED.
001313:
001314:                                                                                                  #        4.  THE ANGLE BETWEEN THE TWO STARS IS THEN CHECKED AT CKSDATA.
001315:
001316:                                                                                                  #        5.  REFSMMAT IS THEN COMPUTED AT AXISGEN AS FOLLOWS.
001317:                                                                                                  #                    -      -
001318:                                                                                                  #                LET S  AND S  BE TWO STAR VECTORS EXPRESSED IN TWO COORDINATE SYSTEMS, A AND B (BASIC AND STABLE MEMBER).
001319:                                                                                                  #                     1      2
001320:                                                                                                  #                DEFINE, -    -
001321:                                                                                                  #                        U  = S
001322:                                                                                                  #                         A    A1
001323:                                                                                                  #                        -         -    -
001324:                                                                                                  #                        V  = UNIT(S  X S  )
001325:                                                                                                  #                         A         A1   A2
001326:                                                                                                  #                        -    -   -
001327:                                                                                                  #                        W  = U X V
001328:                                                                                                  #                         A    A   A
001329:
001330:                                                                                                  #                AND
001331:                                                                                                  #                        -    -
001332:                                                                                                  #                        U  = S
001333:                                                                                                  #                         B    B1
001334:                                                                                                  #                        -         -    -
001335:                                                                                                  #                        V  = UNIT(S  X S  )
001336:                                                                                                  #                         B         B1   B2
001337:                                                                                                  #                        -    -   -
001338:                                                                                                  #                        W  = U X V
001339:                                                                                                  #                         B    B   B
001340:
001341:                                                                                                  #                THEN    -        -       -       -
001342:                                                                                                  #                        X  = U  *U + V  *V + W  *W
001343:                                                                                                  #                              B1  A   B1  A   B1  A
001344:                                                                                                  #                        -        -       -       -              (REFSMMAT)
001345:                                                                                                  #                        Y  = U  *U + V  *V + W  *W
001346:                                                                                                  #                              B2  A   B2  A   B2  A
001347:                                                                                                  #                        -        -       -       -
001348:                                                                                                  #                        Z  = U  *U + V  *V + W  *W
001349:                                                                                                  #                              B3  A   B3  A   B3  A
001350:
001351:                                                                                                  #  THE INPUTS CONSIST OF THE FOUR HALF-UNIT VECTORS STORED AS FOLLOWS
001352:                                                                                                  #                        -
001353:                                                                                                  #                        S   IN 6-11 OF THE VAC AREA
001354:                                                                                                  #                         A1
001355:                                                                                                  #                        -
001356:                                                                                                  #                        S   IN 12-17 OF THE VAC AREA
001357:                                                                                                  #                         A2
001358:                                                                                                  #                        -
001359:                                                                                                  #                        S   IN STARAD
001360:                                                                                                  #                         B1
001361:                                                                                                  #                        -
001362:                                                                                                  #                        S   IN STARAD +6
001363:                                                                                                  #                         B2
001364:
001365:                                                                                                  #  CALLING SEQUENCE
001366:
001367:                                                                                                  #        THE PROGRAM IS CALLED BY THE ASTRONAUT BY DSKY ENTRY.
001368:
001369:                                                                                                  #  SUBROUTINES CALLED.
001370:
001371:                                                                                                  #        GOPERF3
001372:                                                                                                  #        GOPERF1R
001373:                                                                                                  #        GODSPR
001374:                                                                                                  #        IMUCOARS
001375:                                                                                                  #        IMUFIN20
001376:                                                                                                  #        R53
001377:                                                                                                  #        SXTNB
001378:                                                                                                  #        NBSM
001379:                                                                                                  #        MKRELEAS
001380:                                                                                                  #        CHKSDATA
001381:                                                                                                  #        MATMOVE
001382:
001383:                                                                                                  #  ALARMS
001384:
001385:                                                                                                  #        NONE.
001386:
001387:                                                                                                  #  ERASABLE INITIALIZATION
001388:
001389:                                                                                                  #        IMU ZERO FLAG SHOULD BE SET.
001390:
001391:                                                                                                  #  OUTPUT
001392:
001393:                                                                                                  #        REFSMMAT
001394:                                                                                                  #        REFSMFLG
001395:
001396:                                                                                                  #  DEBRIS
001397:
001398:                                                                                                  #        WORK AREA
001399:                                                                                                  #        STARAD
001400:                                                                                                  #        STARIND
001401:                                                                                                  #        BESTI
001402:                                                                                                  #        BESTJ
001403:
001404: 14,2000                                           SETLOC   P50S1
001405: 14,2000                                           BANK
001406: 14,3060                                           COUNT    14/P5153
001407:
001408: 14,3060  14,3060               P53                EQUALS   P51
001409: 14,3060           41320        P51                CS       IMODES30
001410: 14,3061           75023                           MASK     BIT9
001411: 14,3062           10000                           CCS      A
001412: 14,3063           03067                           TC       P51A
001413: 14,3064           05664                           TC       ALARM
001414: 14,3065           00210                           OCT      210
001415: 14,3066           04106                           TC       GOTOPOOH
001416: 14,3067           04676        P51A               TC       BANKCALL
001417: 14,3070           17667                           CADR     R02ZERO
001418:
001419: 14,3071           35041        P51AA              CAF      PRFMSTAQ
001420: 14,3072           04676                           TC       BANKCALL
001421: 14,3073           21045                           CADR     GOPERF1
001422: 14,3074           04106                           TC       GOTOPOOH                              #  TERM.
001423: 14,3075           03120                           TC       P51B                                  #  V33
001424: 14,3076           05426                           TC       PHASCHNG
001425: 14,3077           05024                           OCT      05024
001426: 14,3100           13000                           OCT      13000
001427: 14,3101           35035                           CAF      P51ZERO
001428: 14,3102           55155                           TS       THETAD                                #  ZERO THE GIMBALS
001429: 14,3103           55156                           TS       THETAD     +1
001430: 14,3104           55157                           TS       THETAD     +2
001431: 14,3105           33253                           CAF      V6N22
001432: 14,3106           04676                           TC       BANKCALL
001433: 14,3107           20673                           CADR     GODSPRET
001434: 14,3110           33254                           CAF      V41K                                  #  NOW DISPLAY COARSE ALIGN VERB 41
001435: 14,3111           04676                           TC       BANKCALL
001436: 14,3112           20673                           CADR     GODSPRET
001437: 14,3113           03260                           TC       COARSUB                               #  PERFORM ALIGNMENT
001438: 14,3114           05426                           TC       PHASCHNG
001439: 14,3115           05024                           OCT      05024
001440: 14,3116           13000                           OCT      13000
001441: 14,3117           13071                           TCF      P51AA                                 #  COARSE ALIGN DONE - RECYCLE FOR FINE
001442:
001443:                                                                                                  #  DO STAR SIGHTING AND COMPUTE NEW REFSMMAT
001444: 14,3120           05426        P51B               TC       PHASCHNG
001445: 14,3121           00014                           OCT      00014
001446: 14,3122           06006                           TC       INTPRET
001447: 14,3123           40331                           SSP      SETPD
001448: 14,3124           00305                                    STARIND                               #  INDEX - STAR 1 OR 2
001449: 14,3125           00000                                    0
001450: 14,3126           00001                                    0
001451: 14,3127           77234                           RTB      VLOAD
001452: 14,3130           31255                                    SET1/PDT
001453: 14,3131           11566                                    ZEROVEC
001454: 14,3132           01472                           STORE    GCOMP
001455: 14,3133           43014                           SET      CLEAR
001456: 14,3134           01060                                    DRIFTFLG                              #  ENABLE T4 COMPENSATION
001457: 14,3135           00666                                    TARG2FLG                              #  SHOW MARK IS STAR - NOT LANDMARK
001458: 14,3136           77776                           EXIT
001459: 14,3137           35033                           CAF      BIT1
001460: 14,3140           54301                           TS       MARKINDX                              #  INITIALIZE FOR ONE MARK
001461:
001462: 14,3141           05426        P51C               TC       PHASCHNG
001463: 14,3142           05024                           OCT      05024
001464: 14,3143           13000                           OCT      13000
001465: 14,3144           05400                           TC       CHECKMM
001466: 14,3145           00065                           MM       53         B-14                       #  BACKUP PROGRAM
001467: 14,3146           13154                           TCF      P51C.1                                #  NOT P53
001468: 14,3147           06006                           TC       INTPRET
001469: 14,3150           77624                           CALL
001470: 14,3151           36114                                    R56
001471: 14,3152           77650                           GOTO
001472: 14,3153           31157                                    P51C.2
001473: 14,3154           06006        P51C.1             TC       INTPRET
001474: 14,3155           77624                           CALL
001475: 14,3156           31304                                    R53                                   #  SIGHTING ROUTINE
001476: 14,3157           77624        P51C.2             CALL                                           #  COMPUTE LOS IN SM FROM MARK DATA
001477: 14,3160           36060                                    SXTSM
001478: 14,3161           77606                           PUSH
001479: 14,3162           53135                           SLOAD    BZE
001480: 14,3163           00305                                    STARIND
001481: 14,3164           31171                                    P51D
001482: 14,3165           45575                           VLOAD    STADR
001483: 14,3166           75160                           STORE    STARSAV2                              #  DOWNLINK
001484: 14,3167           77650                           GOTO
001485: 14,3170           31177                                    P51E
001486: 14,3171           45575        P51D               VLOAD    STADR
001487: 14,3172           61166                           STODL    STARSAV1
001488: 14,3173           02607                                    TSIGHT
001489: 14,3174           77624                           CALL
001490: 14,3175           32340                                    PLANET
001491: 14,3176           02601                           STORE    PLANVEC
001492: 14,3177           77776        P51E               EXIT
001493: 14,3200           05426                           TC       PHASCHNG
001494: 14,3201           05024                           OCT      05024
001495: 14,3202           13000                           OCT      13000
001496: 14,3203           04676                           TC       BANKCALL
001497: 14,3204           16063                           CADR     MKRELEAS                              #  ZERO MARKSTAT
001498: 14,3205           10304                           CCS      STARIND
001499: 14,3206           13215                           TCF      P51F                                  #  STAR 2
001500: 14,3207           05426                           TC       PHASCHNG
001501: 14,3210           05024                           OCT      05024
001502: 14,3211           13000                           OCT      13000
001503: 14,3212           35033                           CAF      BIT1
001504: 14,3213           54304                           TS       STARIND
001505: 14,3214           13141                           TCF      P51C                                  #  GO DO SECOND STAR
001506: 14,3215           05426        P51F               TC       PHASCHNG
001507: 14,3216           05024                           OCT      05024
001508: 14,3217           13000                           OCT      13000
001509: 14,3220           06006                           TC       INTPRET
001510: 14,3221           45145                           DLOAD    CALL
001511: 14,3222           02607                                    TSIGHT
001512: 14,3223           32340                                    PLANET
001513: 14,3224           24015                           STOVL    12D
001514: 14,3225           02601                                    PLANVEC
001515: 14,3226           24007                           STOVL    6D
001516: 14,3227           02611                                    STARSAV1
001517: 14,3230           26736                           STOVL    STARAD
001518: 14,3231           02617                                    STARSAV2
001519: 14,3232           36744                           STCALL   STARAD     +6
001520: 14,3233           30716                                    CHKSDATA                              #  CHECK STAR ANGLES IN STARAD AND
001521: 14,3234           77414                           BON      EXIT
001522: 14,3235           00314                                    FREEFLAG
001523: 14,3236           31240                                    P51G
001524: 14,3237           03071                           TC       P51AA
001525: 14,3240           77624        P51G               CALL
001526: 14,3241           47403                                    AXISGEN                               #  COME BACK WITH REFSMMAT IN XDC
001527: 14,3242           75160                           AXC,1    AXC,2
001528: 14,3243           02713                                    XDC
001529: 14,3244           01735                                    REFSMMAT
001530: 14,3245           45014                           CLEAR    CALL
001531: 14,3246           01662                                    REFSMFLG
001532: 14,3247           31044                                    MATMOVE
001533: 14,3250           52014                           SET      GOTO
001534: 14,3251           01462                                    REFSMFLG
001535: 14,3252           32145                                    ENDP50S
001536: 14,3253     5041               PRFMSTAQ           =        OCT15
001537: 14,3253     5035               P51ZERO            =        ZERO
001538: 14,3253     5036               P51FIVE            =        FIVE
001539: 14,3253           01426        V6N22              VN       0622
001540: 14,3254           12200        V41K               VN       4100
001541: 14,3255           30025        SET1/PDT           CA       TIME1
001542: 14,3256           55074                           TS       1/PIPADT
001543: 14,3257           16030                           TCF      DANZIG
001544:
001545: 14,3260                                           COUNT*   $$/R50
001546: 14,3260           30002        COARSUB            CA       Q
001547: 14,3261           55777                           TS       QMIN
001548: 14,3262           31322        STALLOOP           CA       MODECADR                              #  IS IMU IN USE?
001549: 14,3263           00006                           EXTEND
001550: 14,3264           13271                           BZF      CORSCALL                              #  NO, GO AHEAD WITH COARSE ALIGN
001551: 14,3265           35055                           CAF      1SEC                                  #  YES, SO WAIT A SEC
001552: 14,3266           04676                           TC       BANKCALL
001553: 14,3267           01732                           CADR     DELAYJOB
001554: 14,3270           03262                           TC       STALLOOP                              #                        AND TRY AGAIN
001555: 14,3271           04676        CORSCALL           TC       BANKCALL
001556: 14,3272           16663                           CADR     IMUCOARS                              #  PERFORM COARSE ALIGN
001557: 14,3273           04676                           TC       BANKCALL
001558: 14,3274           17577                           CADR     IMUSTALL
001559: 14,3275           05763                           TC       CURTAINS                              #  BAD END
001560: 14,3276           04676                           TC       BANKCALL
001561: 14,3277           17073                           CADR     IMUFIN20                              #  PERFORM FINE ALIGN
001562: 14,3300           04676                           TC       BANKCALL
001563: 14,3301           17577                           CADR     IMUSTALL
001564: 14,3302           05763                           TC       CURTAINS                              #  BAD END
001565: 14,3303           01777                           TC       QMIN
001566:
001567:                                                                                                  #  SXTSM COMPUTES AN LOS VECTOR IN SM COORD FROM OCDU AND ICDU MARK DATA
001568:
001569: 17,2000                                           SETLOC   P50S3
001570: 17,2000                                           BANK
001571: 17,2060           77620        SXTSM              STQ
001572: 17,2061           00300                                    QMAJ
001573: 17,2062           70740                           LXC,1    DLOAD*
001574: 17,2063           01330                                    MARKSTAT
001575: 17,2064           00001                                    0D,1
001576: 17,2065           02607                           STORE    TSIGHT
001577: 17,2066           66744                           LXC,2    SLOAD*
001578: 17,2067           00304                                    STARIND
001579: 17,2070           41664                                    MKDNCDR,2
001580: 17,2071           76744                           LXC,2    VLOAD*
001581: 17,2072           00154                                    MPAC
001582: 17,2073           00001                                    0,1
001583: 17,2074           10001                           STORE    0,2
001584: 17,2075           77743                           DLOAD*
001585: 17,2076           00006                                    5,1
001586: 17,2077           10006                           STORE    5,2
001587: 17,2100           77624                           CALL
001588: 17,2101           46000                                    SXTNB                                 #  COMPUTE LOS VECTOR FROM OCDU IN MKVAC
001589: 17,2102           62150                           LXA,1    INCR,1
001590: 17,2103           01330                                    MARKSTAT
001591: 17,2104           00002                                    2                                     #  INCREMENT TO BASE ADR OF ICDU
001592: 17,2105           45130                           SXA,1    CALL
001593: 17,2106           00050                                    S1
001594: 17,2107           47610                                    NBSM                                  #  TRANSFORM LOS TO SM
001595: 17,2110           77650                           GOTO
001596: 17,2111           00300                                    QMAJ
001597: 17,2112           03674        MKDNCDR            ECADR    MARKDOWN
001598: 17,2113           03502                           ECADR    MARK2DWN
001599:
001600:                                                                                                  #  PROGRAM DESCRIPTION - R53 - SIGHTING MARK ROUTINE
001601:                                                                                                  #  MOD. NO. 2  21 DEC 66
001602:                                                                                                  #  MOD BY STURLAUGSON
001603:
001604:                                                                                                  #  FUNCTIONAL DESCRIPTION
001605:
001606:                                                                                                  #        TO PERFORM A SATISFACTORY NUMBER OF SIGHTING MARKS FOR THE REQUESTING PROGRAM (OR ROUTINE).  SIGHTINGS
001607:                                                                                                  #        CAN BE MADE ON A STAR OR LANDMARK.  WHEN THE CMC ACCEPTS A MARK IT RECORDS AND STORES 5 ANGLES (3 ICDUS AND 2
001608:                                                                                                  #        OCDUS) AND THE TIME OF THE MARK.
001609:
001610:                                                                                                  #  CALLING SEQUENCE
001611:
001612:                                                                                                  #        R53 IS CALLED AND RETURNS IN INTERPRETIVE CODE.  RETURN IS VIA QPRET.
001613:                                                                                                  #        THERE IS NO ERROR EXIT IN THIS ROUTINE ITSELF.
001614:
001615:                                                                                                  #  SUBROUTINES CALLED
001616:                                                                                                  #
001617:                                                                                                  #        SXTMARK
001618:                                                                                                  #        OPTSTALL
001619:                                                                                                  #        GOFLASH
001620:
001621:                                                                                                  #  ERASABLE INITIALIZATION
001622:
001623:                                                                                                  #        TARGET FLAG - STAR OR LANDMARK
001624:                                                                                                  #        MARKINDX - NUMBER OF MARKS WANTED
001625:                                                                                                  #        STARIND - INDEX TO BESTI OR BESTJ (STAR NUMBER)
001626:
001627:                                                                                                  #  OUTPUT
001628:
001629:                                                                                                  #        MARKSTAT CONTAINS INDEX TO VACANT AREA WHERE MARK DATA IS STORED
001630:                                                                                                  #        BESTI (INDEXED BY STARIND) CONTAINS STAR NUMBER SIGHTED
001631:
001632:                                                                                                  #  DEBRIS
001633:
001634:                                                                                                  #        MARKINDX CONTAINS NUMBER OF MARKS DESIRED
001635:
001636: 14,2000                                           SETLOC   RT53
001637: 14,2000                                           BANK
001638:
001639: 14,3304                                           COUNT    14/R53
001640:
001641: 14,3304           43020        R53                STQ      SET                                   #  SET SIGHTING MARK FLAG
001642: 14,3305           03501                                    R53EXIT
001643: 14,3306           00071                                    R53FLAG
001644: 14,3307           77776                           EXIT
001645: 14,3310           30301        R53A               CA       MARKINDX                              #  NUMBER OF MARKS
001646: 14,3311           75037                           MASK     LOW3
001647: 14,3312           04676                           TC       BANKCALL
001648: 14,3313           16002                           CADR     SXTMARK
001649: 14,3314           04676                           TC       BANKCALL
001650: 14,3315           17573                           CADR     OPTSTALL
001651: 14,3316           05763                           TC       CURTAINS
001652: 14,3317           51330                           INDEX    MARKSTAT
001653: 14,3320           10052                           CCS      QPRET                                 #  NUMBER OF MARKS ACTUALLY DONE
001654: 14,3321           13332                           TCF      R53B
001655: 14,3322           13324                           TCF      +2                                    #  ZERO
001656: 14,3323           13324                           TCF      +1                                    #  CCS HOLE
001657: 14,3324           35035                           CAF      ZERO                                  #  HOUSEKEEP VAC AREA SAVE
001658: 14,3325           57330                           XCH      MARKSTAT                              #        AND MARKSTAT
001659: 14,3326           10000                           CCS      A
001660: 14,3327           50000                           INDEX    A
001661: 14,3330           54000                           TS       0
001662: 14,3331           13310                           TCF      R53A
001663: 14,3332           05400        R53B               TC       CHECKMM
001664: 14,3333           00026                           MM       22         B-14
001665: 14,3334           13336                           TCF      +2
001666: 14,3335           13365                           TCF      R53D
001667: 14,3336           05400                           TC       CHECKMM
001668: 14,3337           00027                           MM       23         B-14
001669: 14,3340           13342                           TCF      R53C1
001670: 14,3341           13365                           TCF      R53D
001671: 14,3342           35035        R53C1              CAF      ZERO
001672: 14,3343           04676                           TC       BANKCALL
001673: 14,3344           20703                           CADR     CLEANDSP
001674: 14,3345           33371        R53C               CAF      V01N71
001675: 14,3346           04676                           TC       BANKCALL
001676: 14,3347           20720                           CADR     GOFLASH
001677: 14,3350           04106                           TC       GOTOPOOH                              #  TERM.
001678: 14,3351           13353                           TCF      R53Z
001679: 14,3352           03345                           TC       R53C                                  #  RECYCLE
001680: 14,3353           03372        R53Z               TC       CHKSCODE
001681: 14,3354           04400                           TC       FALTON
001682: 14,3355           03345                           TC       R53C
001683: 14,3356           47713                           CS       HIGH9
001684: 14,3357           70735                           MASK     STARCODE
001685: 14,3360           00006                           EXTEND
001686: 14,3361           76211                           MP       SIGHTSIX
001687: 14,3362           56001                           XCH      L
001688: 14,3363           50304                           INDEX    STARIND
001689: 14,3364           54302                           TS       BESTI
001690: 14,3365           06006        R53D               TC       INTPRET
001691: 14,3366           77614        R53OUT             SETGO
001692: 14,3367           03420                                    TERMIFLG                              #  SET TERMINATE FOR R52
001693: 14,3370           03501                                    R53EXIT
001694: 14,3371     6211               SIGHTSIX           =        SIX
001695: 14,3371           00307        V01N71             VN       0171
001696:
001697:                                                                                                  #  ****** KEEP IN SAME BANK AS R51 AND R53 *********
001698: 14,3372           10735        CHKSCODE           CCS      STARCODE
001699: 14,3373           63402                           AD       NEG47
001700: 14,3374           10000                           CCS      A
001701: 14,3375           00002                           TC       Q                                     #  SC < 0 OR SC > 50
001702: 14,3376           13400                           TCF      +2                                    #  SC = + OR - 0
001703: 14,3377           13400                           TCF      +1                                    #  0 <= SC< 50
001704: 14,3400           50002                           INDEX    Q                                     #  SC = 50
001705: 14,3401           00002                           TC       00002
001706: 14,3402           77730        NEG47              OCT      77730
001707:
001708:                                                                                                  #  NAME - S52.2
001709:                                                                                                  #  FUNCTION - COMPUTE GIMBAL ANGLES FOR DESIRED SM AND PRESENT VEHICLE
001710:                                                                                                  #  CALL - CALL S52.2
001711:                                                                                                  #  INPUT - X,Y,ZSMD
001712:                                                                                                  #  OUTPUT - OGC,IGC,MGC,THETAD,+1,+2
001713:                                                                                                  #  SUBROUTINES - CDUTRIG, CALCSMSC, MATMOVE, CALCGA
001714:
001715: 11,2000                                           SETLOC   S52/2
001716: 11,2000                                           BANK
001717:
001718: 11,2260                                           COUNT    13/S52.2
001719: 11,2260           77620        S52.2              STQ
001720: 11,2261           00300                                    QMAJ
001721: 11,2262           77624                           CALL
001722: 11,2263           47501                                    CDUTRIG
001723: 11,2264           77624                           CALL
001724: 11,2265           34664                                    CALCSMSC
001725: 11,2266           66370                           AXT,1    SSP
001726: 11,2267           00022                                    18D
001727: 11,2270           00051                                    S1
001728: 11,2271           00006                                    6D
001729: 11,2272           61373        S52.2A             VLOAD*   VXM
001730: 11,2273           02736                                    XNB        +18D,1
001731: 11,2274           01736                                    REFSMMAT
001732: 11,2275           77656                           UNIT
001733: 11,2276           06736                           STORE    XNB        +18D,1
001734: 11,2277           77700                           TIX,1
001735: 11,2300           22272                                    S52.2A
001736: 11,2301           75160        S52.2.1            AXC,1    AXC,2
001737: 11,2302           00306                                    XSMD
001738: 11,2303           02671                                    XSM
001739: 11,2304           77624                           CALL
001740: 11,2305           31044                                    MATMOVE
001741: 11,2306           77624                           CALL
001742: 11,2307           47313                                    CALCGA
001743: 11,2310           77650                           GOTO
001744: 11,2311           00300                                    QMAJ
001745:
001746:                                                                                                  #  PROGRAM NAME - SR52.1                         DATE  DEC 20 66
001747:                                                                                                  #  MOD 1                                         LOG SEC  P51-P53
001748:                                                                                                  #  BY KEN VINCENT                                ASSEMBLY  SUNDISK REV 40
001749:
001750:                                                                                                  #  FUNCTION
001751:
001752:                                                                                                  #  TARG1 AND TARG2 FLAGS ARE LOOKED AT TO DETERMINE IF THE TARGET IS THE
001753:                                                                                                  #  LEM, STAR OR LANDMARK.  IN CASE OF LEM OR LMK, THE PRESENT TIME PLUS
001754:                                                                                                  #  2 SECONDS IS SAVED IN AOPTIME (ALIAS STARAD, +1).  IF THE LEM IS
001755:                                                                                                  #  THE TARGET THEN CONIC UPDATES      OF THE CSM AND LEM ARE MADE TO
001756:                                                                                                  #  THE TIME IN AOPTIME.  THE UNIT OF THE DIFFERENCE OF LEM AND CSM
001757:                                                                                                  #  POSITION VECTORS BECOMES THE REFERENCE SIGHTING VECTOR USED IN THE
001758:                                                                                                  #  COMMON PART OF THIS PROGRAM.
001759:
001760:                                                                                                  #  IN THE CASE OF LANDMARK, THE CSM IS UPDATED CONICALLY.  THE RADIUS
001761:                                                                                                  #  VECTOR FOR THE LANDMARK IS OBTAINED FROM LALOTORV.  BOTH OF THESE ARE
001762:                                                                                                  #  FOUND FOR THE TIME IN AOPTIME.  THE UNIT OF THE DIFFERENCE BETWEEN
001763:                                                                                                  #  THE LANDMARK AND CSM RADIUS VECTORS BECOMES THE REFERENCE SIGHTING
001764:                                                                                                  #  VECTOR FOR THE COMMON PART OF THIS ROUTINE.
001765:
001766:                                                                                                  #  IF A STAR IS THE TARGET, THE PROPER STAR IS OBTAINED FROM THE CATALOG
001767:                                                                                                  #  AND THIS VECTOR BECOMES THE REFERENCE SIGHTING VECTOR.
001768:
001769:                                                                                                  #  THE COMMON PART OF THIS PROGRAM TRANSFORMS THE REFERENCE SIGHTING
001770:                                                                                                  #  VECTOR INTO STABLE MEMBER COORDINATES.  IT READS THE IMU-CDUS AND USES
001771:                                                                                                  #  THIS DATA IN A CALL TO CALCSXA.  ON RETURN FROM CALCSXA A TEST IS
001772:                                                                                                  #  MADE TO SEE IF THE TRUNNION ANGLE IS GREATER THAN  90DEG OR 38DEG.
001773:                                                                                                  #  MADE TO SEE IF THE TRUNNION ANGLE IS GREATER THAN 90DEG. OR 50DEG.
001774:
001775:                                                                                                  #  CALLING SEQUENCE
001776:
001777:                                                                                                  #        L+4     RETURN WHEN SHAFT OR TRUNION NOT WITHIN 5 DEG OF DESIRED
001778:                                                                                                  #        L       TC      BANKCALL
001779:                                                                                                  #        L+1     CADR    SR52.1
001780:                                                                                                  #        L+2     ERROR RETURN    TRUNNION GREATER THAN 90 DEG
001781:                                                                                                  #        L&3     ERROR RETURN    TRUNNION GREATER THAN 50 DEG
001782:                                                                                                  #        L+4     NORMAL RETURN
001783:
001784:                                                                                                  #  OUTPUT
001785:
001786:                                                                                                  #        SAC -SINGLE PREC, 2S COMP, SCALED AT HALF REVS - SHAFT ANGLE DESIRED
001787:                                                                                                  #        PAC -SINGLE PREC, 2S COMP  SCALED AT EIGTH REVS - TRUNNION ANGLE DESIRED
001788:
001789:                                                                                                  #  INITIALIZATION
001790:
001791:                                                                                                  #        IF TARG1FLG =1 THEN TARGET IS LEM - NO OTHER INPUT REQUIRED
001792:
001793:                                                                                                  #        IF TARG1FLG =0 AND TARG2FLG =0 THE TARGET IS STAR, STARIND SHOULD
001794:                                                                                                  #        0 OR 1 DENOTING BESTI OR BESTJ RESPECTIVELY AS STAR CODE.  STAR CODES
001795:                                                                                                  #        ARE 6 TIMES STAR NUMBER.
001796:
001797:                                                                                                  #        IF TARG1FLG =0 AND TARG2FLG =1 THEN TARGET IS LANDMARK.  SEE ROUTINE
001798:                                                                                                  #        LALOTORV FOR INPUT REQUIREMENTS.  HERE FIXERAD=1 FOR CONSTANT EARTH
001799:                                                                                                  #        RADIUS
001800:
001801:                                                                                                  #  DEBRIS
001802:
001803:                                                                                                  #        WORK AREA
001804:                                                                                                  #        STARAD - STAR+5 (STAR IS DESIRED LOS IN STABLE MEMBER COORDINATES)
001805:
001806: 11,2312                                           COUNT*   $$/SR521
001807: 13,2000                                           SETLOC   SR52/1
001808: 13,2000                                           BANK
001809:
001810: 13,2252           04725        SR52.1             TC       MAKECADR
001811: 13,2253           55777                           TS       QMIN
001812: 13,2254           06006                           TC       INTPRET
001813: 13,2255           43234                           RTB      DAD
001814: 13,2256           45510                                    LOADTIME
001815: 13,2257           26373                                    2.4SECDP
001816: 13,2260           02356                           STORE    AOPTIME
001817: 13,2261           43014                           BON      BON
001818: 13,2262           00705                                    TARG1FLG
001819: 13,2263           26270                                    LEM52
001820: 13,2264           00706                                    TARG2FLG
001821: 13,2265           26300                                    LMK52
001822: 13,2266           77650                           GOTO
001823: 13,2267           26321                                    STAR52
001824: 13,2270           77745        LEM52              DLOAD
001825: 13,2271           02356                                    AOPTIME
001826: 13,2272           34041                           STCALL   TDEC1
001827: 13,2273           27135                                    LEMCONIC
001828: 13,2274           77775                           VLOAD
001829: 13,2275           00001                                    RATT
001830: 13,2276           77650                           GOTO
001831: 13,2277           26310                                    LMKLMCOM
001832: 13,2300           71214        LMK52              BON      DLOAD
001833: 13,2301           04305                                    ADVTRK
001834: 13,2302           54000                                    ADVTRACK
001835: 13,2303           02356                                    AOPTIME
001836: 13,2304           77624                           CALL
001837: 13,2305           26447                                    LALOTORV
001838: 13,2306           77775                           VLOAD
001839: 13,2307           02152                                    ALPHAV
001840: 13,2310           16766        LMKLMCOM           STODL    STAR
001841: 13,2311           02356                                    AOPTIME
001842: 13,2312           34041                           STCALL   TDEC1
001843: 13,2313           27123                                    CSMCONIC
001844: 13,2314           52375                           VLOAD    VSU
001845: 13,2315           02766                                    STAR
001846: 13,2316           00001                                    RATT
001847: 13,2317           52056                           UNIT     GOTO
001848: 13,2320           26334                                    COM52
001849: 13,2321           72131        STAR52             SSP      LXA,1
001850: 13,2322           00051                                    S1
001851: 13,2323           00000                                    0
001852: 13,2324           00304                                    STARIND
001853: 13,2325           77700                           TIX,1
001854: 13,2326           26332                                    ST52ST
001855: 13,2327           52175                           VLOAD    GOTO
001856: 13,2330           02617                                    STARSAV2
001857: 13,2331           26334                                    COM52
001858: 13,2332           77775        ST52ST             VLOAD
001859: 13,2333           02611                                    STARSAV1
001860: 13,2334           53521        COM52              MXV      UNIT
001861: 13,2335           01736                                    REFSMMAT
001862: 13,2336           02766                           STORE    STAR
001863: 13,2337           45001                           SETPD    CALL
001864: 13,2340           00001                                    0
001865: 13,2341           47501                                    CDUTRIG                               #  COMPUTES SINES AND COSINES FOR CALCSXA
001866: 13,2342           77624                           CALL                                           #        NOW EXPECT TO SEE THE CDU ANGLES.
001867: 13,2343           46034                                    CALCSXA
001868: 13,2344           77414                           BOFF     EXIT
001869: 13,2345           01750                                    CULTFLAG
001870: 13,2346           26350                                    TRUN38
001871: 13,2347           02366                           TC       SR52E1
001872: 13,2350           45345        TRUN38             DLOAD    DSU
001873: 13,2351           02776                                    PAC
001874: 13,2352           26371                                    38TRDEG
001875: 13,2353           71244                           BPL      DLOAD
001876: 13,2354           26361                                    SR52E22
001877: 13,2355           02776                                    PAC
001878: 13,2356           51025                           DSU      BPL
001879: 13,2357           26375                                    20DEGSMN
001880: 13,2360           26363                                    SR52E3
001881: 13,2361           77776        SR52E22            EXIT
001882: 13,2362           02365                           TC       SR52E2
001883: 13,2363           77776        SR52E3             EXIT
001884: 13,2364           25777                           INCR     QMIN
001885: 13,2365           25777        SR52E2             INCR     QMIN
001886: 13,2366           31777        SR52E1             CA       QMIN
001887: 13,2367           04702                           TC       SWCALL
001888: 13,2370           25252 25254  38TRDEG            2DEC     .66666667                             #  CORESPONDS TO 50 DEGS IN TRUNION
001889:
001890: 13,2372           00000 00360  2.4SECDP           2DEC     240        B-28
001891:
001892: 13,2374           61740        20DEGSMN           DEC      -07199     B-14
001893: 13,2375           77777                           DEC      -0         B-14
001894:
001895:                                                                                                  #     THE ADVTRACK ROUTINE IS USED TO COMPUTE AN OPTICS LOS VECTOR TO
001896:                                                                                                  #  A POINT ON THE GROUND TRACK 60 DEGRESS FORWARD OF THE LOCAL VERTICAL
001897:                                                                                                  #  OF AN ADVANCED ORBIT A SPECIFIED NUMBER OF REVOLUTIONS FROM NOW
001898:
001899: 26,2000                                           SETLOC   26P50S
001900: 26,2000                                           BANK
001901: 26,2000           77601        ADVTRACK           SETPD
001902: 26,2001           00001                                    0
001903: 26,2002           41575                           VLOAD    PUSH                                  #  INITIALIZE FOR RP-TO-R
001904: 26,2003           15326                                    UNITZ                                 #  UZ VEC IN PD 0-5
001905: 26,2004           41434                           RTB      PUSH                                  #  TIME IN PD 6-7
001906: 26,2005           45510                                    LOADTIME
001907: 26,2006           36356                           STCALL   AOPTIME                               #  TIME ALSO IN AOPTIME FOR CSMCONIC
001908: 26,2007           55343                                    RP-TO-R                               #  GET MOON ROTATION VEC IN REF
001909: 26,2010           16766                           STODL    STAR
001910: 26,2011           02356                                    AOPTIME                               #  PICK UP TIME
001911: 26,2012           34041                           STCALL   TDEC1                                 #  UPDATE STATE TO TIME
001912: 26,2013           27123                                    CSMCONIC
001913: 26,2014           47375                           VLOAD    VXV
001914: 26,2015           00007                                    VATT
001915: 26,2016           00001                                    RATT
001916: 26,2017           77656                           UNIT
001917: 26,2020           24031                           STOVL    24D                                   #  SAVE -UNIT(V X R) FOR 2ND ROTATION
001918: 26,2021           00001                                    RATT
001919: 26,2022           57456                           UNIT     VCOMP
001920: 26,2023           41401                           SETPD    PUSH                                  #  PUSH LOS=-UNIT(RVEC) PD 0-5
001921: 26,2024           00001                                    0
001922: 26,2025           77776                           EXIT
001923: 26,2026           31751                           CA       LANDMARK
001924: 26,2027           75037                           MASK     SEVEN                                 #  GET NUMBER OF ADVANCE PERIODS
001925: 26,2030           00006                           EXTEND
001926: 26,2031           75021                           MP       BIT11                                 #  GET N/16
001927: 26,2032           56001                           XCH      L
001928: 26,2033           50120                           INDEX    FIXLOC
001929: 26,2034           54036                           TS       30D                                   #  TEMP STORE N/16
001930: 26,2035           06006                           TC       INTPRET
001931: 26,2036           41335                           SLOAD    DMP
001932: 26,2037           00037                                    30D
001933: 26,2040           14107                                    MPERIOD
001934: 26,2041           36356                           STCALL   AOPTIME                               #  ROTATE ANG ABOUT UR
001935: 26,2042           54057                                    ROTA
001936: 26,2043           77775                           VLOAD
001937: 26,2044           00031                                    24D                                   #  PICK UP 2ND ROTATION AXIS
001938: 26,2045           16766                           STODL    STAR
001939: 26,2046           14105                                    DP1/6
001940: 26,2047           77625                           DSU
001941: 26,2050           02356                                    AOPTIME                               #  2ND RAT ANGLE = 60 - A
001942: 26,2051           36356                           STCALL   AOPTIME
001943: 26,2052           54057                                    ROTA                                  #  GO ROTATE 2ND TIME
001944: 26,2053           77775                           VLOAD
001945: 26,2054           00001                                    0
001946: 26,2055           36766                           STCALL   STAR                                  #  STORE FINAL LOS IN STAR
001947: 26,2056           26334                                    COM52                                 #  RETURN TO SR52.1
001948:
001949: 26,2057           73545        ROTA               DLOAD    SIN
001950: 26,2060           02356                                    AOPTIME
001951: 26,2061           47315                           PDVL     VXV                                   #  PUSH 1/2SIN(A) PD 6-7
001952: 26,2062           02766                                    STAR                                  #        UR VEC
001953: 26,2063           00001                                    0                                     #        LOS
001954: 26,2064           72561                           VXSC     VSL2                                  #  1/2SIN(A)(URXLOS) PD 6-11
001955: 26,2065           50315                           PDVL     DOT
001956: 26,2066           02766                                    STAR
001957: 26,2067           00001                                    0
001958: 26,2070           72561                           VXSC     VSL2
001959: 26,2071           02766                                    STAR
001960: 26,2072           71525                           PDDL     COS                                   #  1/2(UR . LOS)UR 12-17
001961: 26,2073           02356                                    AOPTIME
001962: 26,2074           51315                           PDVL     BVSU                                  #  PUSH 1/2COS(A) 18-19
001963: 26,2075           00015                                    12D
001964: 26,2076           00001                                    0
001965: 26,2077           76561                           VXSC     VSL1                                  #  UP 18-19
001966: 26,2100           53255                           VAD      VAD                                   #  UP 12-17 UP 6-11
001967: 26,2101           40256                           UNIT     SETPD
001968: 26,2102           00001                                    0
001969: 26,2103           43406                           PUSH     RVQ
001970:
001971: 26,2104           05252 25251  DP1/6              2DEC     .16666666
001972:
001973: 26,2106           01414 06044  MPERIOD            2DEC     .047619                               #  APPROX LUNAR ROT ANG IN 2HRS X 16
001974:
001975:                                                                                                  #  NAME - S52.3
001976:                                                                                                  #  FUNCTION -    XSMD= UNIT(YSMD X ZSMD)
001977:                                                                                                  #                YSMD= UNIT(V X R)
001978:                                                                                                  #                ZSMD= UNIT(-R)
001979:                                                                                                  #  CALL          DLOAD   CALL
001980:                                                                                                  #                        TALIGN
001981:                                                                                                  #                        S52.3
001982:                                                                                                  #  INPUT -       TIME OF ALIGNMENT IN MPAC
001983:                                                                                                  #  OUTPUT -      X,Y,ZSMD
001984:                                                                                                  #  SUBROUTINES - CSMCONIC
001985:
001986: 16,2000                                           SETLOC   P50S2
001987: 16,2000                                           BANK
001988:
001989: 16,2733                                           COUNT    15/S52.3
001990: 16,2733           77620        S52.3              STQ
001991: 16,2734           00300                                    QMAJ
001992: 16,2735           34041                           STCALL   TDEC1
001993: 16,2736           27100                                    CSMPREC
001994: 16,2737           77601                           SETPD
001995: 16,2740           00001                                    0
001996: 16,2741           57575                           VLOAD    VCOMP
001997: 16,2742           00001                                    RATT
001998: 16,2743           77656                           UNIT
001999: 16,2744           24323                           STOVL    ZSMD
002000: 16,2745           00007                                    VATT
002001: 16,2746           53435                           VXV      UNIT
002002: 16,2747           00001                                    RATT
002003: 16,2750           00315                           STORE    YSMD
002004: 16,2751           53435                           VXV      UNIT
002005: 16,2752           00323                                    ZSMD
002006: 16,2753           34307                           STCALL   XSMD
002007: 16,2754           00300                                    QMAJ
002008:
002009:                                                                                                  #  PROGRAM DESCRIPTION - R56 - ALTERNATE LOS SIGHTING MARK ROUTINE
002010:
002011:                                                                                                  #  FUNCTIONAL DESCRIPTION
002012:
002013:                                                                                                  #        TO PERFORM SIGHTING MARKS FOR THE BACK-UP ALIGNMENT PROGRAMS (P53,P54).  THE ASTRONAUT KNOWS THE
002014:                                                                                                  #        COORDINATES (OPTICS) OF THE ALTERNATE LINE OF SIGHT HE MUST USE FOR THIS ROUTINE.  WHEN THE ASTRONAUT KEYS IN
002015:                                                                                                  #        ENTER IN RESPONSE TO THE FLASHING V50 N25 R1-XXXXX THE CMC STORES THE THREE ICDU ANGLES AND TWO ANGLES DISPLAYED
002016:                                                                                                  #        IN N92.
002017:
002018:                                                                                                  #  CALLING SEQUENCE
002019:
002020:                                                                                                  #        CALL
002021:                                                                                                  #                R56
002022:
002023:                                                                                                  #  SUBROUTINES CALLED
002024:
002025:                                                                                                  #        A PORTION OF SXTMARK (VAC.AREA SEARCH)
002026:                                                                                                  #        GOFLASH
002027:                                                                                                  #        GOPERF1
002028:
002029:                                                                                                  #  ERASABLE INITIALIZATION
002030:
002031:                                                                                                  #        STARIND-INDEX TO STAR NUMBER
002032:
002033:                                                                                                  #  OUTPUT
002034:
002035:                                                                                                  #        MARKSTAT-INDEX TO VAC.AREA WHERE OUTPUT IS STORED.
002036:                                                                                                  #        BESTI (INDEXED BY STARIND) CONTAINS STAR NUMBER.
002037:                                                                                                  #        ICDU AND OCDU ANGLES IN VAC. AREA AS FOLLOWS-
002038:                                                                                                  #                VAC +2  CDUY
002039:                                                                                                  #                VAC +3  CDUS
002040:                                                                                                  #                VAC +4  CDUZ
002041:                                                                                                  #                VAC +5  CDUT
002042:                                                                                                  #                VAC +6  CDUX
002043:
002044: 16,2755                                           COUNT*   $$/R56
002045: 17,2000                                           SETLOC   P50S3
002046: 17,2000                                           BANK
002047: 17,2114           77420        R56                STQ      EXIT
002048: 17,2115           03501                                    R53EXIT
002049: 17,2116           32204                           CAF      V06N94B
002050: 17,2117           04676                           TC       BANKCALL
002051: 17,2120           20720                           CADR     GOFLASH
002052: 17,2121           04106                           TC       GOTOPOOH                              #  TERM.
002053: 17,2122           02124                           TC       R56A                                  #  PROCEED - ANGLES OK
002054: 17,2123           02116                           TC       -5                                    #  ENTER - NEW ANGLES
002055: 17,2124           04676        R56A               TC       BANKCALL
002056: 17,2125           16004                           CADR     SXTMARK    +2                         #  INHIBIR EXT VB ACT AND FIND VAC AREA
002057:
002058: 17,2126           35035                           CAF      ZERO
002059: 17,2127           04676                           TC       BANKCALL
002060: 17,2130           20703                           CADR     CLEANDSP
002061:
002062: 17,2131           32203        R56A1              CAF      VB53                                  #  DISPLAY V53 REQUESTING ALTERNATE MARK
002063: 17,2132           04676                           TC       BANKCALL
002064: 17,2133           20564                           CADR     GOMARK2
002065: 17,2134           14106                           TCF      GOTOPOOH                              #  V34-TERMINATE
002066: 17,2135           12131                           TCF      R56A1                                 #  V33-DONT PROCEED-JUST ENTER TO MARK
002067: 17,2136           06006                           TC       INTPRET
002068: 17,2137           77745                           DLOAD
002069: 17,2140           03731                                    MRKBUF1    +3
002070: 17,2141           16774                           STODL    SAC
002071: 17,2142           03733                                    MRKBUF1    +5
002072: 17,2143           02776                           STORE    PAC
002073: 17,2144           77776                           EXIT
002074: 17,2145           00004                           INHINT
002075: 17,2146           00006                           EXTEND
002076: 17,2147           30025                           DCA      TIME2
002077: 17,2150           51330                           INDEX    MARKSTAT
002078: 17,2151           52001                           DXCH     0
002079: 17,2152           30033                           CA       CDUY                                  #  ENTER-THIS IS A BACKUP SYSTEM MARK
002080: 17,2153           51330                           INDEX    MARKSTAT
002081: 17,2154           54002                           TS       2
002082: 17,2155           31773                           CA       SAC
002083: 17,2156           51330                           INDEX    MARKSTAT
002084: 17,2157           54003                           TS       3
002085: 17,2160           30034                           CA       CDUZ
002086: 17,2161           51330                           INDEX    MARKSTAT
002087: 17,2162           54004                           TS       4
002088: 17,2163           31775                           CA       PAC
002089: 17,2164           51330                           INDEX    MARKSTAT
002090: 17,2165           54005                           TS       5
002091: 17,2166           30032                           CA       CDUX
002092: 17,2167           51330                           INDEX    MARKSTAT
002093: 17,2170           54006                           TS       6
002094: 17,2171           00003                           RELINT
002095: 17,2172           05552                           TC       CLEARMRK                              #  ENABLE EXTENDED VERBS
002096: 17,2173           34333                           CAF      OCT16
002097: 17,2174           04676                           TC       BANKCALL
002098: 17,2175           21045                           CADR     GOPERF1
002099: 17,2176           04106                           TC       GOTOPOOH                              #  TERM.
002100: 17,2177           12201                           TCF      R56B                                  #  PROCEED-MARK COMPLETED
002101: 17,2200           12126                           TCF      R56A       +2                         #  RECYCLE-DO ANOTHER MARK - LIKE REJECT
002102: 17,2201           04676        R56B               TC       BANKCALL
002103: 17,2202           31342                           CADR     R53C1
002104: 17,2203           15200        VB53               VN       05300                                 #  ALTERNATE MARK VERB
002105: 17,2204           01536        V06N94B            VN       00694
002106: 15,2000                                           SETLOC   P50S
002107: 15,2000                                           BANK
002108:
002109: 15,2340           02607        PLANET             STORE    TSIGHT
002110: 15,2341           45020                           STQ      CALL
002111: 15,2342           02777                                    QMIN
002112: 15,2343           30227                                    LOCSAM
002113: 15,2344           77775                           VLOAD
002114: 15,2345           02736                                    VEARTH
002115: 15,2346           24001                           STOVL    0D
002116: 15,2347           02744                                    VSUN
002117: 15,2350           26736                           STOVL    VEARTH
002118: 15,2351           00001                                    0D
002119: 15,2352           02744                           STORE    VSUN
002120: 15,2353           77776        NOSAM              EXIT
002121: 15,2354           47713                           CS       HIGH9
002122: 15,2355           70735                           MASK     STARCODE
002123: 15,2356           00006                           EXTEND
002124: 15,2357           76211                           MP       SIGHTSIX
002125: 15,2360           56001                           XCH      L
002126: 15,2361           50304                           INDEX    STARIND
002127: 15,2362           54302                           TS       BESTI
002128: 15,2363           10000                           CCS      A
002129: 15,2364           12401                           TCF      NOTPLAN
002130: 15,2365           32431                           CAF      VNPLANV
002131: 15,2366           04676                           TC       BANKCALL
002132: 15,2367           20720                           CADR     GOFLASH
002133: 15,2370           04106                           TC       GOTOPOOH
002134: 15,2371           02373                           TC       +2
002135: 15,2372           02365                           TC       -5
002136: 15,2373           06006                           TC       INTPRET
002137: 15,2374           74375                           VLOAD    VXSC
002138: 15,2375           03705                                    STARSAV3
002139: 15,2376           32433                                    1/SQR3
002140: 15,2377           52056                           UNIT     GOTO
002141: 15,2400           32424                                    CORPLAN
002142: 15,2401           40000        NOTPLAN            CS       A
002143: 15,2402           62430                           AD       DEC227
002144: 15,2403           00006                           EXTEND
002145: 15,2404           62415                           BZMF     CALSAM1
002146: 15,2405           50304                           INDEX    STARIND
002147: 15,2406           30302                           CA       BESTI
002148: 15,2407           50120                           INDEX    FIXLOC
002149: 15,2410           54046                           TS       X1
002150: 15,2411           06006                           TC       INTPRET
002151: 15,2412           52173                           VLOAD*   GOTO
002152: 15,2413           31765                                    CATLOG,1
002153: 15,2414           32424                                    CORPLAN
002154: 15,2415           06006        CALSAM1            TC       INTPRET
002155: 15,2416           70740                           LXC,1    DLOAD*
002156: 15,2417           00304                                    STARIND
002157: 15,2420           00303                                    BESTI,1
002158: 15,2421           76740                           LXC,1    VLOAD*
002159: 15,2422           00154                                    MPAC
002160: 15,2423           02372                                    STARAD     -228D,1
002161: 15,2424           53455        CORPLAN            VAD      UNIT
002162: 15,2425           03474                                    VEL/C
002163: 15,2426           77650                           GOTO
002164: 15,2427           02777                                    QMIN
002165: 15,2430           00343        DEC227             DEC      227        B-14
002166: 15,2431           01530        VNPLANV            VN       0688
002167: 15,2432           22363 11623  1/SQR3             2DEC     .57735021
002168:
002169:

End of include-file P51-P53.agc.  Parent file is MAIN.agc


