
Source Code


000002:                                                                                                  ## Copyright:   Public domain.
000003:                                                                                                  ## Filename:    P76.agc
000004:                                                                                                  ## Purpose:     A section of Comanche revision 072.
000005:                                                                                                  ##              It is part of the reconstructed source code for the first
000006:                                                                                                  ##              release of the software for the Command Module's (CM) Apollo
000007:                                                                                                  ##              Guidance Computer (AGC) for Apollo 13. No original listings
000008:                                                                                                  ##              of this program are available; instead, this file was recreated
000009:                                                                                                  ##              from a printout of Comanche 055, binary dumps of a set of
000010:                                                                                                  ##              Comanche 067 rope modules, and changelogs between Comanche 067
000011:                                                                                                  ##              and 072. It has been adapted such that the resulting bugger words
000012:                                                                                                  ##              exactly match those specified for Comanche 072 in NASA drawing
000013:                                                                                                  ##              2021153G, which gives relatively high confidence that the
000014:                                                                                                  ##              reconstruction is correct.
000015:                                                                                                  ## Assembler:   yaYUL
000016:                                                                                                  ## Contact:     Ron Burkey <info@sandroid.org>.
000017:                                                                                                  ## Website:     www.ibiblio.org/apollo/index.html
000018:                                                                                                  ## Mod history: 2024-05-13 MAS  Created from Comanche 067.
000019:                                                                                                  ##              2024-05-14 MAS  Implemented PCR-863.1, "Make P76 set NODO flag".
000020:
000021:                                                                                                  #  1)    PROGRAM NAME - TARGET DELTA V PROGRAM (P76).
000022:                                                                                                  #  2)    FUNCTIONAL DESCRIPTION - UPON ENTRY BY ASTRONAUT ACTION, P76 FLASHES DSKY REQUESTS TO THE ASTRONAUT
000023:                                                                                                  #        TO PROVIDE VIA DSKY (1) THE DELTA V TO BE APPLIED TO THE OTHER VEHICLE STATE VECTOR AND (2) THE
000024:                                                                                                  #        TIME (TIG) AT WHICH THE OTHER VEHICLE VELOCITY WAS CHANGED BY EXECUTION OF A THRUSTING MANEUVER. THE
000025:                                                                                                  #        OTHER VEHICLE STATE VECTOR IS INTEGRATED TO TIG AND UPDATED BY THE ADDITION OF DELTA V (DELTA V HAVING
000026:                                                                                                  #        BEEN TRANSFORMED FROM LV TO REF COSYS).  USING INTEGRVS, THE PROGRAM THEN INTEGRATES THE OTHER
000027:                                                                                                  #        VEHICLE STATE VECTOR TO THE STATE VECTOR OF THIS VEHICLE, THUS INSURING THAT THE W-MATRIX AND BOTH VEHICLE
000028:                                                                                                  #        STATES CORRESPOND TO THE SAME TIME.
000029:                                                                                                  #  3)    ERASABLE INITIALIZATION REQUIRED - NONE.
000030:                                                                                                  #  4)    CALLING SEQUENCES AND EXIT MODES - CALLED BY ASTRONAUT REQUEST THRU DSKY V 37 E 76E.
000031:                                                                                                  #        EXITS BY TCF ENDOFJOB.
000032:                                                                                                  #  5)    OUTPUT - OTHER VEHICLE STATE VECTOR INTEGRATED TO TIG AND INCREMENTED BY DELTA V IN REF COSYS.
000033:                                                                                                  #        THE PUSHLIST CONTAINS THE MATRIX BY WHICH THE INPUT DELTA V MUST BE POST-MULTIPLIED TO CONVERT FROM LV
000034:                                                                                                  #        TO REF COSYS.
000035:                                                                                                  #  6)    DEBRIS - OTHER VEHICLE STATE VECTOR.
000036:                                                                                                  #  7)    SUBROUTINES CALLED - BANKCALL, GOXDSPF, CSMPREC (OR LEMPREC), ATOPCSM (OR ATOPLEM), INTSTALL, INTWAKE, PHASCHNG
000037:                                                                                                  #        INTPRET, INTEGRVS, AND MINIRECT.
000038:                                                                                                  #  8)    FLAG USE - MOONFLAG, CMOONFLAG, INTYPFLG, RASFLAG, AND MARKCTR.
000039:
000040: 30,2000                                           BANK     30
000041: 13,2000                                           SETLOC   P76LOC
000042: 13,2000                                           BANK
000043:
000044: 13,2071                                           COUNT*   $$/P76
000045:
000046: 13,2071  E7,1412                                  EBANK=   TIG
000047:
000048: 13,2071           05562        P76                TC       UPFLAG
000049: 13,2072           00031                           ADRES    TRACKFLG
000050:
000051: 13,2073           32217                           CAF      V06N84     +1                         #  FLASH VERB 06 NOUN 33, DISPLAY LAST TIG,
000052: 13,2074           04676                           TC       BANKCALL                              #  AND WAIT FOR KEYBOARD ACTION.
000053: 13,2075           20720                           CADR     GOFLASH
000054: 13,2076           12210                           TCF      ENDP76
000055: 13,2077           02101                           TC       +2                                    #  PROCEED
000056: 13,2100           02073                           TC       -5                                    #  STORE DATA AND REPEAT FLASHING
000057: 13,2101           32216                           CAF      V06N84                                #  FLASH LAST DELTA V,
000058: 13,2102           04676                           TC       BANKCALL                              #  AND WAIT FOR KEYBOARD ACTION.
000059: 13,2103           20720                           CADR     GOFLASH
000060: 13,2104           12210                           TCF      ENDP76
000061: 13,2105           02107                           TC       +2
000062: 13,2106           02101                           TC       -5
000063: 13,2107           06006                           TC       INTPRET                               #  RETURN TO INTERPRETIVE CODE


000066: 13,2110           43145                           DLOAD    SET                                   #  SET D(MPAC)=TIG IN CSEC B28
000067: 13,2111           03413                                    TIG
000068: 13,2112           01076                                    NODOFLAG                              #  DISALLOW V37
000069: 13,2113           34041                           STCALL   TDEC1                                 #  SET TDEC1=TIG FOR ORBITAL INTEGRATION
000070: 13,2114           27114                                    OTHPREC
000071: 13,2115           53575        COMPMAT            VLOAD    UNIT
000072: 13,2116           00001                                    RATT
000073: 13,2117           77676                           VCOMP                                          #  U(-R)
000074: 13,2120           00031                           STORE    24D                                   #  U(-R) TO 24D
000075: 13,2121           53435                           VXV      UNIT                                  #  U(-R) X V = U(V X R)
000076: 13,2122           00007                                    VATT
000077: 13,2123           00023                           STORE    18D
000078: 13,2124           53435                           VXV      UNIT                                  #  U(V X R) X U(-R) = U((R X V) X R)
000079: 13,2125           00031                                    24D
000080: 13,2126           24015                           STOVL    12D
000081: 13,2127           03540                                    DELVOV
000082: 13,2130           76505                           VXM      VSL1                                  #  V(MPAC)=DELTA V IN REFCOSYS
000083: 13,2131           00015                                    12D
000084: 13,2132           77655                           VAD
000085: 13,2133           00007                                    VATT
000086: 13,2134           00007                           STORE    6                                     #  V(PD6)=VATT + DELTA V
000087: 13,2135           77624                           CALL                                           #  PREVENT WOULD-BE USER OF ORBITAL
000088: 13,2136           27446                                    INTSTALL                              #  INTEG FROM INTERFERING WITH UPDATING
000089: 13,2137           77624                           CALL
000090: 13,2140           26220                                    P76SUB1
000091: 13,2141           53775                           VLOAD    VSR*
000092: 13,2142           00007                                    6
000093: 13,2143           57176                                    0,2
000094: 13,2144           25543                           STOVL    VCV
000095: 13,2145           00001                                    RATT
000096: 13,2146           77657                           VSR*
000097: 13,2147           57176                                    0,2
000098: 13,2150           15535                           STODL    RCV
000099: 13,2151           03413                                    TIG
000100: 13,2152           01517                           STORE    TET
000101: 13,2153           71214                           CLEAR    DLOAD
000102: 13,2154           01673                                    INTYPFLG
000103: 13,2155           01571                                    TETTHIS
000104: 13,2156           34041        INTOTHIS           STCALL   TDEC1
000105: 13,2157           27144                                    INTEGRVS
000106: 13,2160           77624                           CALL
000107: 13,2161           27446                                    INTSTALL
000108: 13,2162           77624                           CALL
000109: 13,2163           26220                                    P76SUB1                               #  SET/CLEAR MOONFLAG
000110: 13,2164           77775                           VLOAD
000111: 13,2165           00017                                    RATT1
000112: 13,2166           01503                           STORE    RRECT
000113: 13,2167           15535                           STODL    RCV
000114: 13,2170           00015                                    TAT
000115: 13,2171           25517                           STOVL    TET
000116: 13,2172           00025                                    VATT1
000117: 13,2173           77624                           CALL
000118: 13,2174           23417                                    MINIRECT
000119: 13,2175           77776                           EXIT
000120: 13,2176           05426                           TC       PHASCHNG
000121: 13,2177           04024                           OCT      04024


000127: 13,2200           06006                           TC       INTPRET
000128: 13,2201           45014                           SET      CALL
000129: 13,2202           05070                                    REINTFLG
000130: 13,2203           26767                                    ATOPOTH
000131: 13,2204           77624                           CALL
000132: 13,2205           27461                                    INTWAKE0                              #  PERMIT USE OF ORBITAL INTEGRATION
000133: 13,2206           77414        OUT                CLEAR    EXIT                                  #  ALLOW V37, NO NEED TO CLEAR NODOFLAG AT
000134: 13,2207           01276                                    NODOFLAG                              #   ENDP76 SINCE FLAG NOT SET WHEN DISPLAY
000135:                                                                                                  #   RESPONSES TRANSFER THERE FROM P76+.
000136: 13,2210           35035        ENDP76             CAF      ZERO
000137: 13,2211           55126                           TS       MARKCTR                               #  CLEAR RR TRACKING MARK COUNTER
000138: 13,2212           55125                           TS       VHFCNT
000139:
000140: 13,2213           37716                           CAF      NEGONE
000141: 13,2214           55734                           TS       MRKBUF2                               #  INVALIDATE MARK BUFFER
000142:
000143: 13,2215           14106                           TCF      GOTOPOOH
000144:
000145: 13,2216           01524        V06N84             NV       0684
000146: 13,2217           01441                           NV       0633
000147: 13,2220           67214        P76SUB1            CLEAR    SLOAD
000148: 13,2221           00263                                    MOONFLAG
000149: 13,2222           00050                                    X2
000150: 13,2223           43030                           BHIZ     SET                                   #  X2=0...CLEAR MOONFLAG
000151: 13,2224           26226                                    +2                                    #    =2.....SET MOONFLAG
000152: 13,2225           00063                                    MOONFLAG
000153: 13,2226           77616                           RVQ
000154:

End of include-file P76.agc.  Parent file is MAIN.agc


