
Source Code


000002:                                                                                                  ## Copyright:   Public domain.
000003:                                                                                                  ## Filename:    PHASE_TABLE_MAINTENANCE.agc
000004:                                                                                                  ## Purpose:     A section of Comanche revision 072.
000005:                                                                                                  ##              It is part of the reconstructed source code for the first
000006:                                                                                                  ##              release of the software for the Command Module's (CM) Apollo
000007:                                                                                                  ##              Guidance Computer (AGC) for Apollo 13. No original listings
000008:                                                                                                  ##              of this program are available; instead, this file was recreated
000009:                                                                                                  ##              from a printout of Comanche 055, binary dumps of a set of
000010:                                                                                                  ##              Comanche 067 rope modules, and changelogs between Comanche 067
000011:                                                                                                  ##              and 072. It has been adapted such that the resulting bugger words
000012:                                                                                                  ##              exactly match those specified for Comanche 072 in NASA drawing
000013:                                                                                                  ##              2021153G, which gives relatively high confidence that the
000014:                                                                                                  ##              reconstruction is correct.
000015:                                                                                                  ## Assembler:   yaYUL
000016:                                                                                                  ## Contact:     Ron Burkey <info@sandroid.org>.
000017:                                                                                                  ## Website:     www.ibiblio.org/apollo/index.html
000018:                                                                                                  ## Mod history: 2024-05-13 MAS  Created from Comanche 067.
000019:
000020:                                                                                                  #  SUBROUTINE TO UPDATE THE PROGRAM NUMBER DISPLAY ON THE DSKY.
000021:
000022: 43,3736                                           COUNT    02/PHASE
000023:    5370                                           BLOCK    02
000024:    4000                                           SETLOC   FFTAG1
000025:    4000                                           BANK
000026:
000027:    5370           50002        NEWMODEX           INDEX    Q                                     #  UPDATE MODREG.  ENTRY FOR MODE IN FIXED.
000028:    5371           30000                           CAF      0
000029:    5372           24002                           INCR     Q
000030:
000031:    5373           55011        NEWMODEA           TS       MODREG                                #  ENTRY FOR MODE IN A.
000032:    5374           35377        MMDSPLAY           CAF      +3                                    #  DISPLAY MAJOR MODE.
000033:    5375           22006        PREBJUMP           LXCH     BBANK                                 #  PUTS BBANK IN L
000034:    5376           14720                           TCF      BANKJUMP                              #  PUTS Q INTO A
000035:    5377           20440                           CADR     SETUPDSP
000036:
000037:                                                                                                  #  RETURN TO CALLER +3 IF MODE = THAT AT CALLER +1.  OTHERWISE RETURN TO CALLER +2.
000038:
000039:    5400           50002        CHECKMM            INDEX    Q
000040:    5401           40000                           CS       0
000041:    5402           61011                           AD       MODREG
000042:    5403           00006                           EXTEND
000043:    5404           16710                           BZF      Q+2
000044:    5405           16706                           TCF      Q+1                                   #  NO MATCH
000045:
000046:    5406     6711               TCQ                =        Q+2        +1
000047:
000048: 14,3765                                           BANK     14
000049: 10,2000                                           SETLOC   PHASETAB
000050: 10,2000                                           BANK
000051:
000052: 10,2440                                           COUNT    10/PHASE
000053:
000054: 10,2440           00004        SETUPDSP           INHINT
000055: 10,2441           52071                           DXCH     RUPTREG1                              #  SAVE CALLER-S RETURN 2CADR
000056: 10,2442           34371                           CAF      PRIO30                                #        EITHER A TASK OR JOB CAN COME TO
000057: 10,2443           05150                           TC       NOVAC                                 #        NEWMODEX
000058: 10,2444     1011                                  EBANK=   MODREG
000059: 10,2444           03450 60102                     2CADR    DSPMMJOB
000060:
000061: 10,2446           52071                           DXCH     RUPTREG1
000062: 10,2447           00003                           RELINT
000063: 10,2450           52006                           DXCH     Z                                     #  RETURN
000064:
000065: 10,2451  40,3450               DSPMMJOB           EQUALS   DSPMMJB
000066:
000067:    5406                                           BLOCK    02
000068:    4000                                           SETLOC   FFTAG1
000069:    4000                                           BANK
000070:
000071:                                                                                                  #  PHASCHNG IS THE MAIN WAY OF MAKING PHASE CHANGES FOR RESTARTS.  THERE ARE THREE FORMS OF PHASCHNG, KNOWN AS TYPE
000072:                                                                                                  #  A, TYPE B, AND TYPE C.  THEY ARE ALL CALLED AS FOLLOWS, WHERE OCT XXXXX CONTAINS THE PHASE INFORMATION,
000073:                                                                                                  #                TC      PHASCHNG
000074:                                                                                                  #                OCT     XXXXX
000075:                                                                                                  #  TYPE A IS CONCERNED WITH FIXED PHASE CHANGES, THAT IS, PHASE INFORMATION THAT IS STORED PERMANENTLY.  THESE
000076:                                                                                                  #  OPTIONS ARE, WHERE G STANDS FOR A GROUP AND .X FOR THE PHASE,
000077:                                                                                                  #        G.0             INACTIVE, WILL NOT PERMIT A GROUP G RESTART
000078:                                                                                                  #        G.1             WILL CAUSE THE LAST DISPLAY TO BE REACTIVATED, USED MAINLY IN MANNED FLIGHTS
000079:                                                                                                  #        G.EVEN          A DOUBLE TABLE RESTART, CAN CAUSE ANY COMBINATION OF TWO JOBS, TASKS, AND/OR
000080:                                                                                                  #                        LONGCALL TO BE RESTARTED.
000081:                                                                                                  #        G.ODD NOT .1    A SINGLE TABLE RESTART, CAN CAUSE EITHER A JOB, TASK, OR LONGCALL RESTART
000082:
000083:                                                                                                  #  THIS INFORMATION IS PUT INTO THE OCTAL WORD AFTER TC PHASCHNG AS FOLLOWS
000084:                                                                                                  #                  TL0 00P PPP PPP GGG                                     ,
000085:                                                                                                  #  WHERE EACH LETTER OR NUMBER STANDS FOR A BIT.  THE G:S STAND FOR THE GROUP, OCTAL 1-7, THE P:S FOR THE PHASE,
000086:                                                                                                  #  OCTAL 0 - 127.  0:S MUST BE 0.  IF ONE WISHES TO HAVE THE TBASE OF GROUP G TO BE SET AT THIS TIME,
000087:                                                                                                  #  T IS SET TO 1, OTHERWISE IT IS SET TO 0.  SIMIARLY IF ONE WISHES TO SET LONGBASE, THEN L IS SET TO 1, OTHERWISE
000088:                                                                                                  #  IT IS SET TO 0.  SOME EXAMPLES,
000089:                                                                                                  #                TC      PHASCHNG        THIS WILL CAUSE GROUP 3 TO BE SET TO 0,
000090:                                                                                                  #                OCT     00003           MAKING GROUP 3 INACTIVE
000091:
000092:                                                                                                  #                TC      PHASCHNG        IF A RESTART OCCURS THIS WOULD CAUSE
000093:                                                                                                  #                OCT     00012           GROUP 2 TO RESTART THE LAST DISPLAY
000094:
000095:                                                                                                  #                TC      PHASCHNG        THIS SETS THE TBASE OF GROUP 4 AND IN
000096:                                                                                                  #                OCT     40064           CASE OF A RESTART WOULD START UP THE TWO
000097:                                                                                                  #                                        THINGS LOCATED IN THE DOUBLE 4.6 RESTART
000098:                                                                                                  #                                        LOCATION
000099:
000100:                                                                                                  #                TC      PHASCHNG        THIS SETS LONGBASE AND UPON A RESTART
000101:                                                                                                  #                OCT     20135           CAUSES 5.13 TO BE RESTARTED (SINCE
000102:                                                                                                  #                                        LONGBASE WAS SET THIS SINGLE ENTRY
000103:                                                                                                  #                                        SHOULD BE A LONGCALL)
000104:
000105:                                                                                                  #                TC      PHASCHNG        SINCE BOTH TBASE4 AND LONGBASE ARE SET,
000106:                                                                                                  #                OCT     60124           4.12 SHOULD CONTAIN BOTH A TASK AND A
000107:                                                                                                  #                                        LONGCALL TO BE RESTARTED
000108:
000109:                                                                                                  #  TYPE C PHASCHNG CONTAINS THE VARIABLE TYPE OF PHASCHNG INFORMATION.  INSTEAD OF THE INFORMATION BEING IN A
000110:                                                                                                  #  PERMANENT FORM, ONE STORES THE DESIRED RESTART INFORMATION IN A VARIABKE LOCATION.  THE BITS ARE AS FOLLOWS,
000111:                                                                                                  #        TL0 1AD XXX CJW GGG
000112:                                                                                                  #  WHERE EACH LETTER OR NUMBER STANDS FOR A BIT.  THE G:S STAND FOR THE GROUP, OCTAL 1 - 7.  IF THE RESTART IS TO
000113:                                                                                                  #  BE BY WAITLIST, W IS SET TO 1, IF IT IS A JOB, J IS SET TO 1, IF IT IS A LONGCALL, C IS SET TO 1.  ONLY ONE OF
000114:                                                                                                  #  THESE THREE BITS MAY BE SET.  X:S ARE IGNORED  1 MUST BE 1, AND 0 MUST BE 0.  AGAIN T STANDS FOR THE TBASE,
000115:                                                                                                  #  AND L FOR LONGBASE.  THE BITS A AND D ARE CONCERNED WITH THE VARIABLE INFORMATION.  IF D IS SET TO 1, A PRIORITY
000116:                                                                                                  #  OR DELTA TIME WILL BE READ FROM THE NEXT LOCATION AFTER THE OCTAL INFORMATION, IF THIS IS TO BE INDIRECT, THAT
000117:                                                                                                  #  IS, THE NAME OF A LOCATION COMT+INING THE INFORMATION (DELTA TIME ONLY), THEN THIS IS GIVEN AS THE -GENADR OF
000118:                                                                                                  #  THAT LOCATION WHICH CONTAINS THE DELTA TIME.  IF THE OLD PRIORITY OR DELTA TIME IS TO BE USED, THAT WHICH IS
000119:                                                                                                  #  ALREADY IN THE VARIABLE STORAGE, THEN D IS SET TO 0.  NEXT THE A BIT IS USED.  IF IT IS SET TO 0, THE ADDRESS
000120:                                                                                                  #  THAT WOULD BE RESTARTED DURING A RESTART IS THE NEXT LOCATION AFTER THE PHASE INFORMATION, THAT IS, EITHER
000121:                                                                                                  #  (TC PHASCHNG) +2 OR +3, DEPENDING ON WHETHER D HAD BEEN SET OR NOT.  IF A IS SET TO 1, THEN THE ADDRESS THAT
000122:                                                                                                  #  WOULD BE RESTARTED IS THE 2CADR THAT IS READ FROM THE NEXT TWO LOCATIONS.  EXAMPLES,
000123:                                                                                                  #        AD      TC      PHASCHNG        THIS WOULD CAUSE LOCATION AD +3 TO BE
000124:                                                                                                  #        AD+1    OCT     05023           RESTARTED BY GROUP THREE WITH A PRIORITY
000125:                                                                                                  #        AD+2    OCT     23000           OF 23.  NOTE UPON RETURNING IT WOULD
000126:                                                                                                  #        AD+3                            ALSO GO TO AD+3
000127:
000128:                                                                                                  #        AD      TC      PHASCHNG        GROUP  1 WOULD CAUSE CAUSE CALLCALL TO
000129:                                                                                                  #        AD+1    OCT     27441           BE STARTED AS A LONGCALL FROM THE TIME
000130:                                                                                                  #        AD+2    -GENADR DELTIME         STORED IN LONGBASE (LONGBASE WAS SET) BY
000131:                                                                                                  #        AD+3    2CADR   CALLCALL        A DELTATIME STORED IN DELTIME.  THE
000132:                                                                                                  #        AD+4                            BBCON OF THE 2CADR SHOULD CONTAIN THE E
000133:                                                                                                  #        AD+5                            BANK OF DELTIME.  PHASCHNG RETURNS TO
000134:                                                                                                  #                                        LOCATION AD+5
000135:
000136:                                                                                                  #  NOTE THAT IF A VARIABLE PRIORITY IS GIVEN FOR A JOB, THE JOB WILL BE RESTARTED AS A NOVAC IF THE PRIORITY IS
000137:                                                                                                  #  NEGATIVE, AS A FINDVAC IF THE PRIORITY IS POSITIVE.
000138:
000139:                                                                                                  #  TYPE B PHASCHNG IS A COMBINATION OF VARIABLE AND FIXED PHASE CHANGES.  IT WILL START UP A JOB AS INDICATED
000140:                                                                                                  #  BELOW AND ALSO START UP ONE FIXED RESTART, THAT IS EITHER AN G.1 OR A G.ODD OR THE FIRST ENTRY OF G.EVEN
000141:                                                                                                  #  DOUBLE ENTRY.  THE BIT INFORMATION IS AS FOLLOWS,
000142:                                                                                                  #        TL1 DAP PPP PPP GGG
000143:                                                                                                  #  WHERE EACH LETTER OR NUMBER STANDS FOR A BIT.  THE G:S STAND FOR THE GROUP, OCTAL 1 - 7. THE P:S FOR THE FIXED
000144:                                                                                                  #  PHASE INFORMATION, OCTAL 0 - 127.  1 MUST BE 1.  AND AGAIN T STANDS FOR THE TBASE AND L FOR LONGBASE.  D THIS
000145:                                                                                                  #  TIME STANDS ONLY FOR PRIORITY SINCE THIS WILL BE CONSIDERED A JOB, AND IT MUST BE GIVEN DIRECTLY IF GIVEN.
000146:                                                                                                  #  AGAIN A STANDS FOR THE ADDRESS OF THE LOCATION TO BE RESTARTED, 1 IF THE 2CADR IS GIVEN, OR 0 IF IT IS TO BE
000147:                                                                                                  #  THE NEXT LOCATION.  (THE RETURN LOCATION OF PHASCHNG) EXAMPLES,
000148:                                                                                                  #        AD      TC      PHASCHNG        TBASE IS SET AND A RESTART CAUSE GROUP 3
000149:                                                                                                  #        AD+1    OCT     56043           TO START THE JOB AJOBAJOB WITH PRIORITY
000150:                                                                                                  #        AD+2    OCT     31000           31 AND THE FIRST ENTRY OF 3.4SPOT (WE CAN
000151:                                                                                                  #        AD+3    2CADR   AJOBAJOB        ASSUME IT IS A TASK SINCE WE SET TBASE3)
000152:                                                                                                  #        AD+4                            UPON RETURN FROM PHASCHNG CONTROL WOULD
000153:                                                                                                  #        AD+5                            GO TO AD+5
000154:
000155:                                                                                                  #        AD      TC      PHASCHNG        UPON A RESTART THE LAST DISPLAY WOULD BE
000156:                                                                                                  #        AD+1    OCT     10015           RESTARTED AND A JOB WITH THE PREVIOUSLY
000157:                                                                                                  #        AD+2                            STORED PRIORITY WOULD BE BEGUN AT AD+2
000158:                                                                                                  #                                        BY MEANS OF GROUP 5
000159:                                                                                                  #  THE NOVAC-FINDVAC CHOICE FOR JOBS HOLDS HERE ALSO - NEGATIVE PRIORITY CAUSES A NOVAC CALL, POSITIVE A FINDVAC.
000160:
000161:                                                                                                  #  SUMMARY OF BITS
000162:                                                                                                  #        TYPE A          TL0 00P PPP PPP GGG
000163:                                                                                                  #        TYPE B          TL1 DAP PPP PPP GGG
000164:                                                                                                  #        TYPE C          TL0 1AD XXX CJW GGG
000165:
000166:                                                                                                  #  2PHSCHNG IS USED WHEN ONE WISHES TO START UP A GROUP OR CHANGE A GROUP WHILE UNDER THE CONTROL OF A DIFFERENT
000167:                                                                                                  #  GROUP.  FOR EXAMPLE, CHANGE THE PHASE OF GROUP 3 WHILE THE PORTION OF THE PROGRAM IS UNDER GROUP 5.  ALL 2PHSCHNG
000168:                                                                                                  #  CALLS ARE MADE IN THE FOLLOWING MANNER,
000169:                                                                                                  #                TC      2PHSCHNG
000170:                                                                                                  #                OCT     XXXXX
000171:                                                                                                  #                OCT     YYYYY
000172:                                                                                                  #  WHERE OCT XXXXX MUST BE OF TYPE A AND OCT YYYYY MAY BE OF EITHER TYPE A OR TYPE B OR TYPE C.  THERE IS ONE
000173:                                                                                                  #  DIFFERENCE --- NOTE- IF LONGBASE IS TO BE SET THIS INFORMATION IS GIVEN IN THE OCT YYYYY INFORMATION, IT WILL
000174:                                                                                                  #  BE DISREGARDED IF GIVEN WITH THE OCT XXXXX INFORMATION.  A COUPLE OF EXAMPLES MAY HELP,
000175:                                                                                                  #        AD      TC      2PHSCHNG        SET TBASE3 AND IF A RESTART OCCURS START
000176:                                                                                                  #        AD+1    OCT     40083           THE TWO ENTRIES IN 3.8 TABLE LOCATION
000177:                                                                                                  #        AD+2    OCT     05025           THIS IS OF TYPE C, SET THE JOB TO BE
000178:                                                                                                  #        AD+3    OCT     18000           TO BE LOCATION AD+4, WITH A PRIORITY 18,
000179:                                                                                                  #        AD+4                            FOR GROUP 5 PHASE INFORMATION
000180:
000181:    5406                                           COUNT    02/PHASE
000182:
000183:    5406           00004        2PHSCHNG           INHINT                                         #  THE ENTRY FOR A DOUBLE PHASE CHANGE
000184:    5407           50002                           NDX      Q
000185:    5410           30000                           CA       0
000186:    5411           24002                           INCR     Q
000187:    5412           54072                           TS       TEMPP2
000188:
000189:    5413           75037                           MASK     OCT7
000190:    5414           60000                           DOUBLE
000191:    5415           54071                           TS       TEMPG2
000192:
000193:    5416           30072                           CA       TEMPP2
000194:    5417           75106                           MASK     OCT17770                              #  NEED ONLY 1770, BUT WHY GET A NEW CONST.
000195:    5420           00006                           EXTEND
000196:    5421           75020                           MP       BIT12
000197:    5422           56072                           XCH      TEMPP2
000198:
000199:    5423           75015                           MASK     BIT15
000200:    5424           54066                           TS       TEMPSW2                               #  INDICATES WHETHER TO SET TBASE OR NOT
000201:
000202:    5425           15431                           TCF      PHASCHNG   +3
000203:
000204:    5426           00004        PHASCHNG           INHINT
000205:    5427           35033                           CA       ONE                                   #  INDICATESWE CAME FROM A PHASCHNG ENTRY
000206:    5430           54066                           TS       TEMPSW2
000207:
000208:    5431           50002                           NDX      Q
000209:    5432           30000                           CA       0
000210:    5433           24002                           INCR     Q
000211:    5434           54065                           TS       TEMPSW
000212:    5435           00006                           EXTEND
000213:    5436           35441                           DCA      ADRPCHN2                              #  OFF TO SWITCHED BANK
000214:    5437           52006                           DTCB
000215:
000216:    5440  E3,1400                                  EBANK=   LST1
000217:    5440           02451 20063  ADRPCHN2           2CADR    PHSCHNG2
000218:
000219:    5442           22073        ONEORTWO           LXCH     TEMPBBCN
000220:    5443           22006                           LXCH     BBANK
000221:    5444           22073                           LXCH     TEMPBBCN
000222:
000223:    5445           75102                           MASK     OCT14000                              #  SEE WHAT KIND OF PHASE CHANGE IT IS
000224:    5446           10000                           CCS      A
000225:    5447           15510                           TCF      CHECKB                                #  IT IS OF TYPE :B:
000226:
000227:    5450           30062                           CA       TEMPP
000228:    5451           75025                           MASK     BIT7
000229:    5452           10000                           CCS      A                                     #  SHALL WE USE THE OLD PRIORITY
000230:    5453           15475                           TCF      GETPRIO                               #  NO GET A NEW PRIORITY (OR DELTA T)
000231:
000232:    5454           50061        OLDPRIO            NDX      TEMPG                                 #  USE THE OLD PRIORITY (OR DELTA T)
000233:    5455           31052                           CA       PHSPRDT1   -2
000234:    5456           54070                           TS       TEMPPR
000235:
000236:    5457           30062        CON1               CA       TEMPP                                 #  SEE IF A 2CADR IS GIVEN
000237:    5460           75024                           MASK     BIT8
000238:    5461           10000                           CCS      A
000239:    5462           15501                           TCF      GETNEWNM
000240:
000241:    5463           30002                           CA       Q
000242:    5464           54063                           TS       TEMPNM
000243:    5465           30006                           CA       BB
000244:    5466           00006                           EXTEND                                         #  PICK UP USERS SUPERBANK
000245:    5467           04007                           ROR      SUPERBNK
000246:    5470           54064                           TS       TEMPBB
000247:
000248:    5471           35474        TOCON2             CA       CON2ADR                               #  BACK TO SWITCHED BANK
000249:    5472           22073                           LXCH     TEMPBBCN
000250:    5473           52006                           DTCB
000251:
000252:    5474           02537        CON2ADR            GENADR   CON2
000253:
000254:    5475           50002        GETPRIO            NDX      Q                                     #  DON:T CARE IF DIRECT OR INDIRECT
000255:    5476           30000                           CA       0                                     #  LEAVE THAT DECISION TO RESTARTS
000256:    5477           24002                           INCR     Q                                     #  OBTAIN RETURN ADDRESS
000257:    5500           15456                           TCF      CON1       -1
000258:
000259:    5501           00006        GETNEWNM           EXTEND
000260:    5502           50002                           INDEX    Q
000261:    5503           30001                           DCA      0
000262:    5504           52064                           DXCH     TEMPNM
000263:    5505           35032                           CA       TWO
000264:    5506           26002                           ADS      Q                                     #  OBTAIN RETURN ADDRESS
000265:
000266:    5507           15471                           TCF      TOCON2
000267:
000268:    5510     5102               OCT14000           EQUALS   PRIO14
000269:    5510     0061               TEMPG              EQUALS   ITEMP1
000270:    5510     0062               TEMPP              EQUALS   ITEMP2
000271:    5510     0063               TEMPNM             EQUALS   ITEMP3
000272:    5510     0064               TEMPBB             EQUALS   ITEMP4
000273:    5510     0065               TEMPSW             EQUALS   ITEMP5
000274:    5510     0066               TEMPSW2            EQUALS   ITEMP6
000275:    5510     0070               TEMPPR             EQUALS   RUPTREG1
000276:    5510     0071               TEMPG2             EQUALS   RUPTREG2
000277:    5510     0072               TEMPP2             EQUALS   RUPTREG3
000278:
000279:    5510     0073               TEMPBBCN           EQUALS   RUPTREG4
000280:    5510  0000006               BB                 EQUALS   BBANK
000281:
000282: 14,3765                                           BANK     14
000283: 10,2000                                           SETLOC   PHASETAB
000284: 10,2000                                           BANK
000285:
000286: 10,2451  E3,1436                                  EBANK=   PHSNAME1
000287: 10,2451                                           COUNT    10/PHASE
000288:
000289: 10,2451           22073        PHSCHNG2           LXCH     TEMPBBCN
000290: 10,2452           30065                           CA       TEMPSW
000291: 10,2453           75037                           MASK     OCT7
000292: 10,2454           60000                           DOUBLE
000293: 10,2455           54061                           TS       TEMPG
000294:
000295: 10,2456           30065                           CA       TEMPSW
000296: 10,2457           75106                           MASK     OCT17770
000297: 10,2460           00006                           EXTEND
000298: 10,2461           75020                           MP       BIT12
000299: 10,2462           54062                           TS       TEMPP
000300:
000301: 10,2463           30065                           CA       TEMPSW
000302: 10,2464           74105                           MASK     OCT60000
000303: 10,2465           56065                           XCH      TEMPSW
000304: 10,2466           75102                           MASK     OCT14000
000305: 10,2467           10000                           CCS      A
000306: 10,2470           15442                           TCF      ONEORTWO
000307:
000308: 10,2471           30062                           CA       TEMPP                                 #  START STORING THE PHASE INFORMATION
000309: 10,2472           50061                           NDX      TEMPG
000310: 10,2473           54751                           TS       PHASE1     -2
000311:
000312: 10,2474           10066        BELOW1             CCS      TEMPSW2                               #  IS IT A PHASCHNG OR A 2PHSCHNG
000313: 10,2475           12511                           TCF      BELOW2                                #  IT:S A PHASCHNG
000314:
000315: 10,2476           12477                           TCF      +1                                    #  IT:S A 2PHSCHNG
000316: 10,2477           40072                           CS       TEMPP2
000317: 10,2500           22072                           LXCH     TEMPP2
000318: 10,2501           50071                           NDX      TEMPG2
000319: 10,2502           52751                           DXCH     -PHASE1    -2
000320:
000321: 10,2503           10066                           CCS      TEMPSW2
000322: 10,2504           12505                           NOOP                                           #  CAN:T GET HERE
000323: 10,2505           12511                           TCF      BELOW2
000324:
000325: 10,2506           40025                           CS       TIME1
000326: 10,2507           50071                           NDX      TEMPG2
000327: 10,2510           55051                           TS       TBASE1     -2
000328:
000329: 10,2511           10065        BELOW2             CCS      TEMPSW                                #  SEE IF WE SHOULD SET TBASE OR LONGBASE
000330: 10,2512           12525                           TCF      BELOW3                                #  SET LONGBASE ONLY
000331: 10,2513           12530                           TCF      BELOW4                                #  SET NEITHER
000332:
000333: 10,2514           40025                           CS       TIME1                                 #  SET TBASE TO BEGIN WITH
000334: 10,2515           50061                           NDX      TEMPG
000335: 10,2516           55051                           TS       TBASE1     -2
000336:
000337: 10,2517           30065                           CA       TEMPSW                                #  SHALL WE NOW SET LONGBASE
000338: 10,2520           62523                           AD       BIT14COM
000339: 10,2521           10000                           CCS      A
000340: 10,2522           12523                           NOOP                                           #  ***** CANT GET HERE *****
000341: 10,2523           17777        BIT14COM           OCT      17777                                 #  ***** CANT GET HERE *****
000342: 10,2524           12530                           TCF      BELOW4                                #  NO WE NEED ONLY SET TBASE
000343:
000344: 10,2525           00006        BELOW3             EXTEND                                         #  SET LONGBASE
000345: 10,2526           30025                           DCA      TIME2
000346: 10,2527           53136                           DXCH     LONGBASE
000347:
000348: 10,2530           40062        BELOW4             CS       TEMPP                                 #  AND STORE THE FINAL PART OF THE PHASE
000349: 10,2531           50061                           NDX      TEMPG
000350: 10,2532           54750                           TS       -PHASE1    -2
000351:
000352: 10,2533           30002                           CA       Q
000353: 10,2534           22073                           LXCH     TEMPBBCN
000354: 10,2535           00003                           RELINT
000355: 10,2536           52006                           DTCB
000356: 10,2537           22073        CON2               LXCH     TEMPBBCN
000357: 10,2540           30062                           CA       TEMPP
000358: 10,2541           50061                           NDX      TEMPG
000359: 10,2542           54751                           TS       PHASE1     -2
000360:
000361: 10,2543           30070                           CA       TEMPPR
000362: 10,2544           50061                           NDX      TEMPG
000363: 10,2545           55052                           TS       PHSPRDT1   -2
000364:
000365: 10,2546           00006                           EXTEND
000366: 10,2547           30064                           DCA      TEMPNM
000367: 10,2550           50061                           NDX      TEMPG
000368: 10,2551           53435                           DXCH     PHSNAME1   -2
000369:
000370: 10,2552           12474                           TCF      BELOW1
000371:
000372:    5510                                           BLOCK    02
000373:    4000                                           SETLOC   FFTAG1
000374:    4000                                           BANK
000375:
000376:    5510                                           COUNT    02/PHASE
000377:
000378:    5510           75020        CHECKB             MASK     BIT12                                 #  SINCE THIS IS OF TYPE B, THIS BIT SHOULD
000379:    5511           10000                           CCS      A                                     #  BE HERE IF WE ARE TO GET A NEW PRIORITY
000380:    5512           15475                           TCF      GETPRIO                               #  IT IS, SO GET NEW PRIORITY
000381:
000382:    5513           15454                           TCF      OLDPRIO                               #  IT ISN:T, USE THE OLD PRIORITY
000383:
000384:
000385:

End of include-file PHASE_TABLE_MAINTENANCE.agc.  Parent file is MAIN.agc


