
Source Code


000002:                                                                                                  ## Copyright:   Public domain.
000003:                                                                                                  ## Filename:    POWERED_FLIGHT_SUBROUTINES.agc
000004:                                                                                                  ## Purpose:     A section of Comanche revision 072.
000005:                                                                                                  ##              It is part of the reconstructed source code for the first
000006:                                                                                                  ##              release of the software for the Command Module's (CM) Apollo
000007:                                                                                                  ##              Guidance Computer (AGC) for Apollo 13. No original listings
000008:                                                                                                  ##              of this program are available; instead, this file was recreated
000009:                                                                                                  ##              from a printout of Comanche 055, binary dumps of a set of
000010:                                                                                                  ##              Comanche 067 rope modules, and changelogs between Comanche 067
000011:                                                                                                  ##              and 072. It has been adapted such that the resulting bugger words
000012:                                                                                                  ##              exactly match those specified for Comanche 072 in NASA drawing
000013:                                                                                                  ##              2021153G, which gives relatively high confidence that the
000014:                                                                                                  ##              reconstruction is correct.
000015:                                                                                                  ## Assembler:   yaYUL
000016:                                                                                                  ## Contact:     Ron Burkey <info@sandroid.org>.
000017:                                                                                                  ## Website:     www.ibiblio.org/apollo/index.html
000018:                                                                                                  ## Mod history: 2024-05-13 MAS  Created from Comanche 067.
000019:
000020: 14,3426                                           BANK     14                                    #  SAME FBANK AS THE FINDCDUD SUB-PROGRAM
000021: 23,2000                                           SETLOC   POWFLITE
000022: 23,2000                                           BANK
000023:
000024: 23,3501     0142                                  EBANK=   DEXDEX
000025: 23,3501                                           COUNT*   $$/POWFL
000026:
000027:                                                                                                  #  CDUTRIG, CDUTRIG1, CDUTRIG2, AND CD*TR*GS ALL COMPUTE THE SINES AND
000028:                                                                                                  #  COSINES OF THREE 2'S COMPLEMENT ANGLES AND PLACE THE RESULT, DOUBLE
000029:                                                                                                  #  PRECISION, IN THE SAME ORDER AS THE INPUTS, AT SINCDU AND COSCDU.  AN
000030:                                                                                                  #  ADDITIONAL OUTPUT IS THE 1'S COMPLEMENT ANGLES AT CDUSPOT.  THESE
000031:                                                                                                  #  ROUTINES GO OUT OF THEIR WAY TO LEAVE THE MPAC AREA AS THEY FIND IT,
000032:                                                                                                  #  EXCEPT FOR THE GENERALLY UNIMPORTANT MPAC +2.  THEY DIFFER ONLY IN
000033:                                                                                                  #  WHERE THEY GET THE ANGLES, AND IN METHOD OF CALLING.
000034:
000035:                                                                                                  #  CDUTRIG (AND CDUTRIG1, WHICH CAN BE CALLED IN BASIC) COMPUTE THE
000036:                                                                                                  #  SINES AND COSINES FROM THE CURRENT CONTENTS OF THE CDU REGISTERS.
000037:                                                                                                  #  THE CONTENTS OF CDUTEMP, ETC., ARE NOT TOUCHED SO THAT THEY MAY
000038:                                                                                                  #  CONTINUE TO FORM A CONSISTENT SET WITH THE LATEST PIPA READINGS.
000039:
000040:                                                                                                  #  CDUTRIG1 IS LIKE CDUTRIG EXCEPT THAT IT CAN BE CALLED IN BASIC.
000041:
000042:                                                                                                  #  CD*TR*GS FINDS CDU VALUES IN CDUSPOT RATHER THAN IN CDUTEMP.  THIS
000043:                                                                                                  #  ALLOWS USERS TO MAKE TRANSFORMATIONS USING ARBITRARY ANGLES, OR REAL
000044:                                                                                                  #  ANGLES IN AN ORDER OTHER THAN X Y Z.  A CALL TO THIS ROUTINE IS
000045:                                                                                                  #  NECESSARY IN PREPARATION FOR A CALL TO AX*SR*T IN EITHER OF ITS TWO
000046:                                                                                                  #  MODES (SMNB OR NBSM).  SINCE AX*SR*T EXPECTS TO FIND THE SINES AND
000047:                                                                                                  #  COSINES IN THE ORDER Y Z X THE ANGLES MUST HAVE BEEN PLACED IN CDUSPOT
000048:                                                                                                  #  IN THIS ORDER.  CD*TR*GS NEED NOT BE REPEATED WHEN AX*SR*T IS CALLED
000049:                                                                                                  #  MORE THAN ONCE, PROVIDED THE ANGLES HAVE NOT CHANGED.  NOTE THAT SINCE
000050:                                                                                                  #  IT CLOBBERS BUF2 (IN THE SINE AND COSINE ROUTINES) CD*TR*GS CANNOT BE
000051:                                                                                                  #  CALLED USING BANKCALL.  SORRY.
000052:
000053:                                                                                                  #  CD*TR*G IS LIKE CD*TR*GS EXCEPT THAT IT CAN BE CALLED IN
000054:                                                                                                  #  INTERPRETIVE.
000055:
000056: 23,3501           77776        CDUTRIG            EXIT
000057: 23,3502           03511                           TC       CDUTRIGS
000058: 23,3503           06006                           TC       INTPRET
000059: 23,3504           77616                           RVQ
000060:
000061: 23,3505           77776        CD*TR*G            EXIT
000062: 23,3506           03517                           TC       CD*TR*GS
000063: 23,3507           06006                           TC       INTPRET
000064: 23,3510           77616                           RVQ
000065:
000066: 23,3511           30032        CDUTRIGS           CA       CDUX
000067: 23,3512           54772                           TS       CDUSPOT    +4
000068: 23,3513           30033                           CA       CDUY
000069: 23,3514           54766                           TS       CDUSPOT
000070: 23,3515           30034                           CA       CDUZ
000071: 23,3516           54770                           TS       CDUSPOT    +2
000072:
000073: 23,3517           00006        CD*TR*GS           EXTEND
000074: 23,3520           22142                           QXCH     TEM2
000075: 23,3521           35031                           CAF      FOUR
000076: 23,3522           76211        TR*GL**P           MASK     SIX                                   #  MAKE IT EVEN AND SMALLER
000077: 23,3523           54143                           TS       TEM3
000078: 23,3524           50143                           INDEX    TEM3
000079: 23,3525           30766                           CA       CDUSPOT
000080: 23,3526           52155                           DXCH     MPAC                                  #  STORING 2'S COMP ANGLE, LOADING MPAC
000081: 23,3527           52127                           DXCH     VBUF       +4                         #  STORING MPAC FOR LATER RESTORATION
000082: 23,3530           04773                           TC       USPRCADR
000083: 23,3531           45513                           CADR     CDULOGIC
000084: 23,3532           00006                           EXTEND
000085: 23,3533           30155                           DCA      MPAC
000086: 23,3534           50143                           INDEX    TEM3
000087: 23,3535           52767                           DXCH     CDUSPOT                               #  STORING 1'S COMPLEMENT ANGLE
000088: 23,3536           04773                           TC       USPRCADR
000089: 23,3537           01516                           CADR     COSINE
000090: 23,3540           52155                           DXCH     MPAC
000091: 23,3541           50143                           INDEX    TEM3
000092: 23,3542           52745                           DXCH     COSCDU                                #  STORING COSINE
000093: 23,3543           00006                           EXTEND
000094: 23,3544           50143                           INDEX    TEM3
000095: 23,3545           30767                           DCA      CDUSPOT                               #  LOADING 1'S COMPLEMENT ANGLE
000096: 23,3546           04773                           TC       USPRCADR
000097: 23,3547           01530                           CADR     SINE       +1                         #  SINE +1 EXPECTS ARGUMENT IN A AND L
000098: 23,3550           52127                           DXCH     VBUF       +4                         #  BRINGING UP PRIOR MPAC TO BE RESTORED
000099: 23,3551           52155                           DXCH     MPAC
000100: 23,3552           50143                           INDEX    TEM3
000101: 23,3553           52737                           DXCH     SINCDU
000102: 23,3554           10143                           CCS      TEM3
000103: 23,3555           13522                           TCF      TR*GL**P
000104: 23,3556           00142                           TC       TEM2
000105:                                                                                                  #  ****************************************************************************************************************
000106:                                                                                                  #  QUICTRIG, INTENDED FOR GUIDANCE CYCLE USE WHERE TIME IS CRITICAL, IS A MUCH FASTER VERSION OF CD*TR*GS.
000107:                                                                                                  #  QUICTRIG COMPUTES AND STORES THE SINES AND COSINES OF THE 2'S COMPLEMENT ANGLES AT CDUSPOT, CDUSPOT +2,
000108:                                                                                                  #  AND CDUSPOT +4.  UNLIKE CD*TR*GS, QUICTRIG DOES NOT LEAVE THE 1'S COMPLEMENT VERSIONS OF THE ANGLES IN
000109:                                                                                                  #  CDUSPOT.  QUICTRIG'S EXECUTION TIME IS 4.1 MS;    THIS IS 10 TIMES AS FAST AS CD*TR*GS.    QUICTRIG MAY BE
000110:                                                                                                  #  CALLED FROM INTERPRETIVE AS AN RTB OP-CODE, OR FROM BASIC VIA BANKCALL OR IBNKCALL.
000111:
000112: 23,3557           00004        QUICTRIG           INHINT                                         #  INHINT SINCE DAP USES THE SAME TEMPS
000113: 23,3560           00006                           EXTEND
000114: 23,3561           22061                           QXCH     ITEMP1
000115: 23,3562           35031                           CAF      FOUR
000116: 23,3563           76211                 +4        MASK     SIX
000117: 23,3564           54062                           TS       ITEMP2
000118: 23,3565           50062                           INDEX    ITEMP2
000119: 23,3566           30766                           CA       CDUSPOT
000120: 23,3567           05111                           TC       SPSIN
000121: 23,3570           00006                           EXTEND
000122: 23,3571           75016                           MP       BIT14                                 #  SCALE DOWN TO MATCH INTERPRETER OUTPUTS
000123: 23,3572           50062                           INDEX    ITEMP2
000124: 23,3573           52737                           DXCH     SINCDU
000125: 23,3574           50062                           INDEX    ITEMP2
000126: 23,3575           30766                           CA       CDUSPOT
000127: 23,3576           05110                           TC       SPCOS
000128: 23,3577           00006                           EXTEND
000129: 23,3600           75016                           MP       BIT14
000130: 23,3601           50062                           INDEX    ITEMP2
000131: 23,3602           52745                           DXCH     COSCDU
000132: 23,3603           10062                           CCS      ITEMP2
000133: 23,3604           13563                           TCF      QUICTRIG   +4
000134: 23,3605           30061                           CA       ITEMP1
000135: 23,3606           00003                           RELINT
000136: 23,3607           00000                           TC       A
000137:                                                                                                  # ****************************************************************************************************************
000138:                                                                                                  #  THESE INTERFACE ROUTINES MAKE IT POSSIBLE TO CALL AX*SR*T, ETC., IN
000139:                                                                                                  #  INTERPRETIVE.  LATER, WHERE POSSIBLE, THEY WILL BE ELIMINATED.
000140:
000141:                                                                                                  #  NBSM WILL BE THE FIRST TO GO.  IT SHOULD NOT BE USED.
000142:
000143: 23,3610           77620        NBSM               STQ
000144: 23,3611           00047                                    X2
000145: 23,3612           76740                           LXC,1    VLOAD*
000146: 23,3613           00050                                    S1                                    #  BASE ADDRESS OF THE CDU ANGLES IS IN S1
000147: 23,3614           00001                                    0,1
000148: 23,3615           24767                           STOVL    CDUSPOT
000149: 23,3616           00041                                    32D                                   #  VECTOR TO BE TRANSFORMED IS IN 32D
000150: 23,3617           77624                           CALL
000151: 23,3620           47641                                    TRG*NBSM
000152: 23,3621           34041                           STCALL   32D                                   #  SINCE THERE'S NO STGOTO
000153: 23,3622           00047                                    X2
000154:
000155:                                                                                                  #  THESE INTERFACE ROUTINES ARE PERMANENT.  ALL RESTORE USER'S EBANK
000156:                                                                                                  #  SETTING. ALL ARE STRICT INTERPRETIVE SUBROUTINES, CALLED USING "CALL",
000157:                                                                                                  #  RETURNING VIA QPRET.  ALL EXPECT AND RETURN THE VECTOR TO BE TRANSFOR-
000158:                                                                                                  #  MED INTERPRETER-STYLE IN MPAC; COMPONENTS AT MPAC, MPAC +3, AND MPAC +5.
000159:
000160:                                                                                                  #  TRG*SMNB AND TRG*NBSM BOTH EXPECT TO SEE THE 2'S COMPLEMENT ANGLES
000161:                                                                                                  #  AT CDUSPOT (ORDER Y Z X, AT CDUSPOT, CDUSPOT +2, AND CDUSPOT +4; ODD
000162:                                                                                                  #  LOCATIONS NEED NOT BE ZEROED).  TRG*NBSM DOES THE NB TO SM TRANSFOR-
000163:                                                                                                  #  MATION; TRG*SMNB, VICE VERSA.
000164:
000165:                                                                                                  #  CDU*NBSM DOES ITS TRANSFORMATION USING THE PRESENT CONTENTS OF
000166:                                                                                                  #  THE CDU COUNTERS.  OTHERWISE IT IS LIKE TRG*NBSM.
000167:
000168:                                                                                                  #  CDU*SMNB IS THE COMPLEMENT OF CDU*NBSM.
000169:
000170: 23,3623           77776        CDU*SMNB           EXIT
000171: 23,3624           03511                           TC       CDUTRIGS
000172: 23,3625           13630                           TCF      C*MM*N1
000173:
000174: 23,3626           77776        TRG*SMNB           EXIT
000175: 23,3627           03517                           TC       CD*TR*GS
000176: 23,3630           07501        C*MM*N1            TC       MPACVBUF                              #  AX*SR*T EXPECTS VECTOR IN VBUF
000177: 23,3631           46214                           CS       THREE                                 #  SIGNAL FOR SM TO NB TRANSFORMATION
000178: 23,3632           03652        C*MM*N2            TC       AX*SR*T
000179: 23,3633           06006                           TC       INTPRET
000180: 23,3634           43575                           VLOAD    RVQ
000181: 23,3635           00123                                    VBUF
000182:
000183: 23,3636           77776        CDU*NBSM           EXIT
000184: 23,3637           03511                           TC       CDUTRIGS
000185:
000186:
000187: 23,3640           13643                           TCF      C*MM*N3
000188:
000189: 23,3641           77776        TRG*NBSM           EXIT
000190: 23,3642           03517                           TC       CD*TR*GS
000191: 23,3643           07501        C*MM*N3            TC       MPACVBUF                              #  FOR AX*SR*T
000192: 23,3644           36214                           CA       THREE                                 #  SIGNAL FOR NB TO SM TRANSFORMATION
000193: 23,3645           13632                           TCF      C*MM*N2
000194:
000195:                                                                                                  #  *NBSM* AND *SMNB* EXPECT TO SEE THE SINES AND COSINES (AT SINCDU
000196:                                                                                                  #  AND COSCDU) RATHER THAN THE ANGLES THEMSELVES.  OTHERWISE THEY ARE
000197:                                                                                                  #  LIKE TRG*NBSM AND TRG*SMNB.
000198:
000199:                                                                                                  #  NOTE THAT JUST AS CD*TR*GS NEED BE CALLED ONLY ONCE FOR EACH SERIES
000200:                                                                                                  #  OF TRANSFORMATIONS USING THE SAME ANGLES, SO TOO ONLY ONE OF TRG*NBSM
000201:                                                                                                  #  AND TRG*SMNB NEED BE CALLED FOR EACH SERIES.  FOR SUBSEQUENT TRANSFOR-
000202:                                                                                                  #  MATIONS USE *NBSM* AND *SMNB*.
000203:
000204: 23,3646           77776        *SMNB*             EXIT
000205: 23,3647           13630                           TCF      C*MM*N1
000206:
000207: 23,3650           77776        *NBSM*             EXIT
000208: 23,3651           13643                           TCF      C*MM*N3
000209:
000210:                                                                                                  #  AX*SR*T COMBINES THE OLD SMNB AND NBSM.  FOR THE NB TO SM
000211:                                                                                                  #  TRANSFORMATION, ENTER WITH +3 IN A.  FOR SM TO NB, ENTER WITH -3.
000212:                                                                                                  #  THE VECTOR TO BE TRANSFORMED ARRIVES, AND IS RETURNED, IN VBUF.
000213:                                                                                                  #  AX*SR*T EXPECTS TO FIND THE SINES AND COSINES OF THE ANGLES OF ROTATION
000214:                                                                                                  #  AT SINCDU AND COSCDU, IN THE ORDER Y Z X.  A CALL TO CD*TR*GS, WITH
000215:                                                                                                  #  THE 2'S COMPLEMENT ANGLES (ORDER Y Z X) AT CDUSPOT, WILL TAKE CARE OF
000216:                                                                                                  #  THIS.  HERE IS A SAMPLE CALLING SEQUENCE:-
000217:                                                                                                  #                TC      CDUTRIGS
000218:                                                                                                  #                CS      THREE           ("CA THREE" FOR NBSM)
000219:                                                                                                  #                TC      AX*SR*T
000220:                                                                                                  #  THE CALL TO CD*TR*GS NEED NOT BE REPEATED, WHEN AX*SR*T IS CALLED MORE
000221:                                                                                                  #  THAN ONCE, UNLESS THE ANGLES HAVE CHANGED.
000222:
000223:                                                                                                  #  AX*SR*T IS GUARANTEED SAFE ONLY FOR VECTORS OF MAGNITUDE LESS THAN
000224:                                                                                                  #  UNITY.  A LOOK AT THE CASE IN WHICH A VECTOR OF GREATER MAGNITUDE
000225:                                                                                                  #  HAPPENS TO LIE ALONG AN AXIS OF THE SYSTEM TO WHICH IT IS TO BE TRANS-
000226:                                                                                                  #  FORMED CONVINCES ONE THAT THIS IS A RESTRICTION WHICH MUST BE ACCEPTED.
000227:
000228: 23,3652           54142        AX*SR*T            TS       DEXDEX                                #  WHERE IT BECOMES THE INDEX OF INDEXES
000229: 23,3653           00006                           EXTEND
000230: 23,3654           22145                           QXCH     RTNSAVER
000231:
000232: 23,3655           10142        R*TL**P            CCS      DEXDEX                                #                +3 --> 0        -3 --> 2
000233: 23,3656           40142                           CS       DEXDEX                                #  THUS:         +2 --> 1        -2 --> 1
000234: 23,3657           66214                           AD       THREE                                 #                +1 --> 2        -1 --> 0
000235: 23,3660           00006                           EXTEND
000236: 23,3661           50000                           INDEX    A
000237: 23,3662           33741                           DCA      INDEXI
000238: 23,3663           52144                           DXCH     DEXI
000239:
000240: 23,3664           35033                           CA       ONE
000241: 23,3665           54130                           TS       BUF
000242: 23,3666           00006                           EXTEND
000243: 23,3667           50143                           INDEX    DEX1
000244: 23,3670           40123                           DCS      VBUF
000245: 23,3671           13673                           TCF      LOOP1                                 #  REALLY BE A SUBTRACT, AND VICE VERSA
000246:
000247: 23,3672           52131        LOOP2              DXCH     BUF                                   #  LOADING VECTOR COMPONENT, STORING INDEX
000248:
000249: 23,3673           52155        LOOP1              DXCH     MPAC
000250: 23,3674           33737                           CA       SINESLOC
000251: 23,3675           60143                           AD       DEX1
000252: 23,3676           54116                           TS       ADDRWD
000253:
000254: 23,3677           07056                           TC       DMPSUB                                #  MULTIPLY BY SIN(CDUANGLE)
000255: 23,3700           10142                           CCS      DEXDEX
000256: 23,3701           52155                           DXCH     MPAC                                  #  NBSM CASE
000257: 23,3702           13705                           TCF      +3
000258: 23,3703           00006                           EXTEND                                         #  SMNB CASE
000259: 23,3704           40155                           DCS      MPAC
000260: 23,3705           52134                           DXCH     TERM1TMP
000261:
000262: 23,3706           36211                           CA       SIX                                   #  SINCDU AND COSCDU (EACH 6 WORDS) MUST
000263: 23,3707           26116                           ADS      ADDRWD                                #        BE CONSECUTIVE AND IN THAT ORDER
000264:
000265: 23,3710           00006                           EXTEND
000266: 23,3711           50130                           INDEX    BUF
000267: 23,3712           50143                           INDEX    DEX1
000268: 23,3713           30123                           DCA      VBUF
000269: 23,3714           52155                           DXCH     MPAC
000270: 23,3715           07056                           TC       DMPSUB                                #  MULTIPLY BY COS(CDUANGLE)
000271: 23,3716           52155                           DXCH     MPAC
000272: 23,3717           20134                           DAS      TERM1TMP
000273: 23,3720           52134                           DXCH     TERM1TMP
000274: 23,3721           20001                           DDOUBL
000275: 23,3722           50130                           INDEX    BUF
000276: 23,3723           50143                           INDEX    DEX1
000277: 23,3724           52123                           DXCH     VBUF
000278: 23,3725           52131                           DXCH     BUF                                   #  LOADING INDEX, STORING VECTOR COMPONENT
000279: 23,3726           10000                           CCS      A                                     #  'CAUSE THAT'S WHERE THE INDEX NOW IS
000280: 23,3727           13672                           TCF      LOOP2
000281:
000282: 23,3730           00006                           EXTEND
000283: 23,3731           26142                           DIM      DEXDEX                                #  DECREMENT MAGNITUDE PRESERVING SIGN
000284:
000285: 23,3732           10142        TSTPOINT           CCS      DEXDEX                                #  ONLY THE BRANCHING FUNCTION IS USED
000286: 23,3733           13655                           TCF      R*TL**P
000287: 23,3734           00145                           TC       RTNSAVER
000288: 23,3735           13655                           TCF      R*TL**P
000289: 23,3736           00145                           TC       RTNSAVER
000290:
000291: 23,3737           00736        SINESLOC           ADRES    SINCDU                                #  FOR USE IN SETTING ADDRWD
000292:
000293: 23,3740           00004        INDEXI             DEC      4          B-14                       #  **********   DON'T   **********
000294: 23,3741           00002                           DEC      2          B-14                       #  **********   TOUCH   **********
000295: 23,3742           00000                           DEC      0          B-14                       #  **********   THESE   **********
000296: 23,3743           00004                           DEC      4          B-14                       #  ********** CONSTANTS **********
000297:
000298:                                                                                                  #  ****************************************************************************************************************
000299:                                                                                                  #  THIS SUBROUTINE COMPUTES INCREMENTAL CHANGES IN CDU(GIMBAL) ANGLES FROM INCREMENTAL CHANGES ABOUT SM AXES.  IT
000300:                                                                                                  #  REQUIRES SM INCREMENTS AS A DP VECTOR SCALED AT ONE REVOLUTION(DTHETASM,+2,+4).  SIN,COS(CDUY,Z,X) ARE IN
000301:                                                                                                  #  SINCDU,+2,+4 AND COSCDU,+2,+4 RESPECTIVELY, SCALED TO ONE HALF.  CDU INCREENTS ARE PLACED IN DCDU,+2,+4 SCALED TO
000302:                                                                                                  #  ONE REVOLUTION.
000303:
000304:                                                                                                  #        *  COS(IGA)SEC(MGA)             0               -SIN(IGA)SEC(MGA) *
000305:                                                                                                  #        *                                                                 *
000306:                                                                                                  #        * -COS(IGA)TAN(MGA)             1                SIN(IGA)TAN(MGA) *
000307:                                                                                                  #        *                                                                 *
000308:                                                                                                  #        *      SIN(IGA)                 0                    COS(IGA)     *
000309:
000310: 14,3426                                           BANK     14
000311: 23,2000                                           SETLOC   POWFLIT1
000312: 23,2000                                           BANK
000313:
000314: 23,3744           41345        SMCDURES           DLOAD    DMP
000315: 23,3745           03212                                    DTHETASM
000316: 23,3746           00745                                    COSCDUY
000317:
000318: 23,3747           41325                           PDDL     DMP
000319: 23,3750           03216                                    DTHETASM   +4
000320: 23,3751           00737                                    SINCDUY
000321:
000322: 23,3752           77621                           BDSU
000323: 23,3753           77671                           DDV
000324: 23,3754           00747                                    COSCDUZ
000325: 23,3755           03204                           STORE    DCDU
000326:
000327: 23,3756           72405                           DMP      SL1                                   #  SCALE
000328: 23,3757           00741                                    SINCDUZ
000329: 23,3760           77621                           BDSU
000330:
000331: 23,3761           03214                                    DTHETASM   +2
000332: 23,3762           17206                           STODL    DCDU       +2
000333: 23,3763           03212                                    DTHETASM
000334:
000335: 23,3764           65205                           DMP      PDDL
000336: 23,3765           00737                                    SINCDUY
000337: 23,3766           03216                                    DTHETASM   +4
000338:
000339: 23,3767           43205                           DMP      DAD
000340: 23,3770           00745                                    COSCDUY
000341: 23,3771           77752                           SL1
000342: 23,3772           03210                           STORE    DCDU       +4
000343: 23,3773           77616                           RVQ
000344:

End of include-file POWERED_FLIGHT_SUBROUTINES.agc.  Parent file is MAIN.agc


