
Source Code


000002:                                                                                                  ## Copyright:   Public domain.
000003:                                                                                                  ## Filename:    RESTART_TABLES.agc
000004:                                                                                                  ## Purpose:     A section of Comanche revision 072.
000005:                                                                                                  ##              It is part of the reconstructed source code for the first
000006:                                                                                                  ##              release of the software for the Command Module's (CM) Apollo
000007:                                                                                                  ##              Guidance Computer (AGC) for Apollo 13. No original listings
000008:                                                                                                  ##              of this program are available; instead, this file was recreated
000009:                                                                                                  ##              from a printout of Comanche 055, binary dumps of a set of
000010:                                                                                                  ##              Comanche 067 rope modules, and changelogs between Comanche 067
000011:                                                                                                  ##              and 072. It has been adapted such that the resulting bugger words
000012:                                                                                                  ##              exactly match those specified for Comanche 072 in NASA drawing
000013:                                                                                                  ##              2021153G, which gives relatively high confidence that the
000014:                                                                                                  ##              reconstruction is correct.
000015:                                                                                                  ## Assembler:   yaYUL
000016:                                                                                                  ## Contact:     Ron Burkey <info@sandroid.org>.
000017:                                                                                                  ## Website:     www.ibiblio.org/apollo/index.html
000018:                                                                                                  ## Mod history: 2024-05-13 MAS  Created from Comanche 067.
000019:
000020:                                                                                                  #  RESTART TABLES
000021:                                                                                                  #  ------------------
000022:
000023:                                                                                                  #  THERE ARE TWO FORMS OF RESTART TABLES FOR EACH GROUP.  THEY ARE KNOWN AS THE EVEN RESTART TABLES AND THE ODD
000024:                                                                                                  #  RESTART TABLES.  THE ODD TABLES HAVE ONLY ONE ENTRY OF THREE LOCATIONS WHILE THE EVEN TABLES HAVE TWO ENTRIES
000025:                                                                                                  #  EACH USING THREE LOCATIONS.  THE INFORMATION AS TO WHETHER IT IS A JOB, WAITLIST, OR A LONGCALL IS GIVEN BY THE
000026:                                                                                                  #  WAY THINGS ARE PUT IN TO THE TABLES.
000027:
000028:                                                                                                  #  A JOB HAS ITS PRIORITY STORED IN PRDTTAB OF THE CORRECT PHASE SPOT - A POSITIVE PRIORITY INDICATES A
000029:                                                                                                  #  FINDVAC JOB, A NEGATIVE PRIORITY A NOVAC.  THE 2CADR OF THE JOB IS STORED IN THE CADRTAB.
000030:                                                                                                  #  FOR EXAMPLE,
000031:
000032:                                                                                                  #                5.7SPOT         OCT     23000
000033:                                                                                                  #                                2CADR   SOMEJOB
000034:
000035:                                                                                                  #  A RESTART OF GROUP 5 WITH PHASE SEVEN WOULD THEN CAUSE SOMEJOB TO BE RESTARTED AS A FINDVAC WITH PRIORITY 23.
000036:
000037:                                                                                                  #                5.5SPOT         OCT     -23000
000038:                                                                                                  #                                2CADR   ANYJOB
000039:
000040:                                                                                                  #  HERE A RESTART OF GROUP 5 WITH PHASE 7 WOULD CAUSE ANYJOB TO BE RESTARTED AS A NOVAC WITH PRIORITY 23.
000041:                                                                                                  #  A LONGCALL HAS ITS GENADR OF ITS 2CADR STORED NEGATIVELY AND ITS BBCON STORED POSITIVELY.  IN ITS PRDTTAB IS
000042:                                                                                                  #  PLACED THE LOCATION OF A DP REGISTER THAT CONTAINS THE DELTA TIME THAT LONGCALL HAD BEEN ORIGINALLY STARTED
000043:                                                                                                  #  WITH.  EXAMPLE,
000044:
000045:                                                                                                  #                3.6SPOT         GENADR  DELTAT
000046:                                                                                                  #                                -GENADR LONGTASK
000047:                                                                                                  #                                BBCON   LONGTASK
000048:
000049:                                                                                                  #                                OCT     31000
000050:                                                                                                  #                                2CADR   JOBAGAIN
000051:
000052:                                                                                                  #  THIS WOULD START UP LONGTASK AT THE APPROPRIATE TIME, OR IMMEDIATELY IF THE TIME HAD ALREADY PASSED.  IT SHOULD
000053:                                                                                                  #  BE NOTED THAT IF DELTAT IS IN A SWITCHED E BANK, THIS INFORMATOIN SHOULD BE IN THE BBCON OF THE 2CADR OF THE
000054:                                                                                                  #  TASK.  FROM ABOVE, WE SEE THAT THE SECOND PART OF THIS PHASE WOULD BE STARTED AS A JOB WITH A PRIORITY OF 31.
000055:
000056:                                                                                                  #  WAITLIST CALLS ARE IDENTIFIED BY THE FACT THAT THEIR 2CADR IS STORED NEGATIVELY.  IF PRDTTAB OF THE PHASE SPOT
000057:                                                                                                  #  IS POSITIVE, THEN IT CONTAINS THE DELTA TIME, IF PRDTTAB IS NEGATIVE THEN IT IS THE -GENADR OF AN ERASABLE
000058:                                                                                                  #  LOCATION CONTAINING THE DELTA TIME, THAT IS, THE TIME IS STORED INDIRECTLY. IT SHOULD BE NOTED AS ABOVE, THAT
000059:                                                                                                  #  IF THE TIME IS STORED INDIRECTLY, THE BBCON MUST CONTAIN THE NECESSARY E BANK INFORMATION IF APPLICABLE.  WITH
000060:                                                                                                  #  WAITLIST WE HAVE ONE FURTHER OPTION, IF -0 IS STORED IN PRDTTAB, IT WILL CAUSE AN IMMEDIATE RESTART OF THE
000061:                                                                                                  #  TASK.  EXAMPLES,
000062:
000063:                                                                                                  #                                OCT     77777           THIS WILL CAUSE AN IMMEDIATE RESTART
000064:                                                                                                  #                                -2CADR  ATASK           OF THE TASK :ATASK:
000065:
000066:                                                                                                  #                                DEC     200             IF THE TIME OF THE 2 SECONDS SINCE DUMMY
000067:                                                                                                  #                                -2CADR  DUMMY           WAS PUT ON WAITLIST IS UP, IT WILL BEGIN
000068:                                                                                                  #                                                        IN 10 MS, OTHERWISE IT WILL BEGIN WHEN
000069:                                                                                                  #                                                        IT NORMALLY WOULD HAVE BEGUN.
000070:                                                                                                  #                                -GENADR DTIME           WHERE DTIME CONTAINS THE DELTA TIME
000071:                                                                                                  #                                -2CADR  TASKTASK        OTHERWISE THIS IS AS ABOVE
000072:
000073:                                                                                                  #  ***** NOW THE TABLES THEMSELVES *****
000074:
000075: 01,2000                                           BANK     01
000076: 01,2000                                           SETLOC   RESTART
000077: 01,2000                                           BANK
000078:
000079: 01,2000                                           COUNT    01/RSTAB
000080:
000081: 01,2000                        PRDTTAB            EQUALS   12000                                 #  USED TO FIND THE PRIORITY OR DELTATIME
000082: 01,2000                        CADRTAB            EQUALS   12001                                 #  THIS AND THE NEXT RELATIVE LOC CONTAIN
000083:                                                                                                  #  RESTART 2CADR
000084:
000085: 01,2000           00063        SIZETAB            TC       1.2SPOT    -12006
000086: 01,2001           00010                           TC       1.3SPOT    -12004
000087: 01,2002           00063                           TC       2.2SPOT    -12006
000088: 01,2003           00024                           TC       2.3SPOT    -12004
000089: 01,2004           00063                           TC       3.2SPOT    -12006
000090: 01,2005           00043                           TC       3.3SPOT    -12004
000091: 01,2006           00063                           TC       4.2SPOT    -12006
000092: 01,2007           00107                           TC       4.3SPOT    -12004
000093: 01,2010           00242                           TC       5.2SPOT    -12006
000094: 01,2011           00260                           TC       5.3SPOT    -12004
000095: 01,2012           00336                           TC       6.2SPOT    -12006
000096: 01,2013           00346                           TC       6.3SPOT    -12004
000097: 01,2014  01,2071               1.2SPOT            EQUALS   3.2SPOT
000098:
000099:                                                                                                  #  ANY MORE GROUP 1.EVEN RESTART VALUES SHOULD GO HERE
000100:
000101: 01,2014           00170        1.3SPOT            DEC      120        B-14                       #  THIS NUMBER MUST EQUAL C(JTAGTIME)
000102: 01,2015  E6,1661                                  EBANK=   AOG
000103: 01,2015           74550 45711                     -2CADR   SETJTAG
000104:
000105: 01,2017           10000        1.5SPOT            OCT      10000
000106: 01,2020  E6,1466                                  EBANK=   DAPDATR1
000107: 01,2020           02467 34066                     2CADR    REDO40.9
000108:
000109: 01,2022           10000        1.7SPOT            OCT      10000
000110: 01,2023  E6,1413                                  EBANK=   ESTROKER
000111: 01,2023           02074 56066                     2CADR    RELINUS
000112:
000113: 01,2025           10000        1.11SPOT           OCT      10000
000114: 01,2026  E6,1413                                  EBANK=   ESTROKER
000115: 01,2026           02356 76066                     2CADR    PIKUP20
000116:
000117:                                                                                                  #  ANY MORE GROUP 1.ODD RESTART VALUES SHOULD GO HERE
000118:
000119: 01,2030  01,2071               2.2SPOT            EQUALS   1.2SPOT
000120:
000121:                                                                                                  #  ANY MORE GROUP 2.EVEN RESTART VALUES SHOULD GO HERE
000122:
000123: 01,2030           02663        2.3SPOT            GENADR   600SECS
000124: 01,2031           75142                           -GENADR  STATEINT
000125: 01,2032  E3,1554                                  EBANK=   RRECTCSM
000126: 01,2032           26063                           BBCON    STATEINT
000127:
000128: 01,2033           05000        2.5SPOT            OCT      05000
000129: 01,2034  E3,1554                                  EBANK=   RRECTCSM
000130: 01,2034           02644 26063                     2CADR    STATINT1
000131:
000132: 01,2036           10000        2.7SPOT            OCT      10000
000133: 01,2037  E7,1734                                  EBANK=   MRKBUF2
000134: 01,2037           02630 70067                     2CADR    R22
000135:
000136: 01,2041           14000        2.11SPOT           OCT      14000
000137: 01,2042  E5,1751                                  EBANK=   LANDMARK
000138: 01,2042           02576 62065                     2CADR    V94ENTER
000139:
000140: 01,2044           10000        2.13SPOT           OCT      10000
000141: 01,2045  E7,1734                                  EBANK=   MRKBUF2
000142: 01,2045           02377 56067                     2CADR    REDOR22
000143:
000144:                                                                                                  #  ANY MORE GROUP 2.ODD RESTART VALUES SHOULD GO HERE
000145:
000146: 01,2047  01,2071               3.2SPOT            EQUALS   4.2SPOT
000147:
000148:                                                                                                  #  ANY MORE GROUP 3.EVEN RESTART VALUES SHOULD GO HERE
000149:
000150: 01,2047           20000        3.3SPOT            OCT      20000
000151: 01,2050  E7,1427                                  EBANK=   TGO
000152: 01,2050           02501 34067                     2CADR    S40.13
000153:
000154: 01,2052           00000        3.5SPOT            DEC      0          B-14
000155: 01,2053           00000                           DEC      0          B-14
000156: 01,2054           00000                           DEC      0          B-14
000157:
000158: 01,2055           22000        3.7SPOT            OCT      22000
000159: 01,2056  E5,1757                                  EBANK=   OGC
000160: 01,2056           02117 70065                     2CADR    MATRXJOB
000161:
000162: 01,2060           22000        3.11SPOT           OCT      22000
000163: 01,2061  E3,1706                                  EBANK=   TEPHEM
000164: 01,2061           02253 70063                     2CADR    REP11
000165:
000166: 01,2063           22000        3.13SPOT           OCT      22000
000167: 01,2064  E3,1706                                  EBANK=   TEPHEM
000168: 01,2064           02026 70063                     2CADR    REP11A
000169:
000170: 01,2066           76347        3.15SPOT           -GENADR  TGO        +1
000171: 01,2067  E7,1427                                  EBANK=   TGO
000172: 01,2067           75006 27710                     -2CADR   ENGINOFF
000173:
000174:                                                                                                  #  ANY MORE GROUP 3.ODD RESTART VALUES SHOULD GO HERE
000175:
000176: 01,2071           77777        4.2SPOT            OCT      77777
000177: 01,2072  E7,1412                                  EBANK=   TIG
000178: 01,2072           75204 27710                     -2CADR   PRECHECK
000179:
000180: 01,2074           47777                           OCT      47777                                 #  PRIO 30 NOVAC
000181: 01,2075  E7,1674                                  EBANK=   DELVIMU
000182: 01,2075           02534 50067                     2CADR    P47BODY
000183:
000184: 01,2077           77777        4.4SPOT            OCT      77777
000185: 01,2100  E7,1412                                  EBANK=   TIG
000186: 01,2100           75204 27710                     -2CADR   PRECHECK
000187:
000188: 01,2102           05664                           DEC      2996       B-14
000189: 01,2103  E6,1466                                  EBANK=   DAPDATR1
000190: 01,2103           75443 27711                     -2CADR   TTG/0
000191:
000192: 01,2105           77777        4.6SPOT            OCT      77777
000193: 01,2106  E7,1412                                  EBANK=   TIG
000194: 01,2106           75204 27710                     -2CADR   PRECHECK
000195:
000196: 01,2110           04700                           DEC      2496       B-14
000197: 01,2111  E7,1412                                  EBANK=   TIG
000198: 01,2111           75200 27710                     -2CADR   TIG-5
000199:
000200:                                                                                                  #  ANY MORE GROUP 4.EVEN RESTART VALUES SHOULD GO HERE
000201:
000202: 01,2113           00050        4.3SPOT            DEC      40         B-14
000203: 01,2114  E6,1423                                  EBANK=   PACTOFF
000204: 01,2114           75112 27711                     -2CADR   DOTVCON
000205:
000206: 01,2116           00240        4.5SPOT            DEC      160        B-14
000207: 01,2117  E6,1423                                  EBANK=   PACTOFF
000208: 01,2117           75061 27711                     -2CADR   DOSTRULL
000209:
000210: 01,2121           00764        4.7SPOT            DEC      500        B-14
000211: 01,2122  E6,1423                                  EBANK=   PACTOFF
000212: 01,2122           75162 27711                     -2CADR   TIG-0
000213:
000214: 01,2124           00372        4.11SPOT           DEC      250        B-14
000215: 01,2125  E6,1466                                  EBANK=   DAPDATR1
000216: 01,2125           74232 27711                     -2CADR   V97E40.6
000217:
000218: 01,2127           00310        4.13SPOT           DEC      200        B-14
000219: 01,2130  E7,1777                                  EBANK=   WHOCARES
000220: 01,2130           74265 27710                     -2CADR   R40ENABL
000221:
000222: 01,2132           16000        4.15SPOT           OCT      16000                                 #  PRELAUNCH OPTICAL VERIFICATION
000223: 01,2133  E5,1757                                  EBANK=   OGC
000224: 01,2133           02000 66065                     2CADR    COMPVER                               #  CALLS FOR OPTICS DATA AGAIN (STD LEADIN)
000225:
000226: 01,2135           16000        4.17SPOT           OCT      16000                                 #   PRELAUNCH AZIMUTH CHANGE
000227: 01,2136  E5,1671                                  EBANK=   XSM
000228: 01,2136           03742 66065                     2CADR    AZMTHCG1
000229:
000230: 01,2140           01672        4.21SPOT           GENADR   P40TMP                                #  DELTA TIME USED IN SETTING UP
000231: 01,2141           75340                           -GENADR  TIGBLNK                               #  LONG CALL OF TIGBLNK BY P40,P41
000232: 01,2142  E7,1672                                  EBANK=   P40TMP
000233: 01,2142           50067                           BBCON    TIGBLNK
000234:
000235: 01,2143           12000        4.23SPOT           OCT      12000                                 #  PROTECT P40S/SV BY P40 P41
000236: 01,2144  E7,1412                                  EBANK=   TIG
000237: 01,2144           02204 50067                     2CADR    P40S/SV
000238:
000239: 01,2146           24000        4.25SPOT           OCT      24000
000240: 01,2147     0302                                  EBANK=   BESTI
000241: 01,2147           02000 32060                     2CADR    PROG52
000242:
000243: 01,2151           00372        4.27SPOT           DEC      250        B-14
000244: 01,2152  E6,1423                                  EBANK=   PACTOFF
000245: 01,2152           74772 27711                     -2CADR   DOTVCRCS
000246:
000247: 01,2154           13000        4.31SPOT           OCT      13000
000248: 01,2155  E5,1765                                  EBANK=   STAR
000249: 01,2155           02535 30065                     2CADR    R51        +1
000250:
000251: 01,2157           04064        4.33SPOT           DEC      2100       B-14                       #  PROTECT CONTINUING JOB TO START P63
000252: 01,2160  E6,1661                                  EBANK=   AOG
000253: 01,2160           75410 23711                     -2CADR   WAKEP62
000254:
000255: 01,2162           65777        4.35SPOT           OCT      65777                                 #  PRIO 12 NOVAC
000256: 01,2163  E6,1466                                  EBANK=   DAPDATR1
000257: 01,2163           02246 50066                     2CADR    POSTBURN
000258:
000259: 01,2165           00764        4.37SPOT           DEC      500        B-14
000260: 01,2166  E7,1412                                  EBANK=   TIG
000261: 01,2166           75222 27710                     -2CADR   TIGAVEG
000262:
000263: 01,2170           17000        4.41SPOT           OCT      17000                                 #  PROTECT DISPLAY JOB IN P67
000264: 01,2171  E6,1661                                  EBANK=   AOG
000265: 01,2171           02505 54066                     2CADR    P67.1
000266:
000267: 01,2173           76003        4.43SPOT           -GENADR  S61DT                                 #  PROTECT TASK TO START PREREAD,ENTRY
000268: 01,2174  E6,1774                                  EBANK=   S61DT                                 #  S61.1C WILL CHANGE EBANK=EB7 FOR PREREAD
000269: 01,2174           75217 23711                     -2CADR   S61.1C
000270:
000271: 01,2176           13000        4.45SPOT           OCT      13000                                 #  PROTECT CONTINUING JOB S61.1
000272: 01,2177  E6,1661                                  EBANK=   AOG                                   #  (ENTRY IMU ALIGNMENT)
000273: 01,2177           02576 54066                     2CADR    S61.1A     -1
000274:
000275: 01,2201           17000        4.47SPOT           OCT      17000                                 #  PROTECT HUNTEST ITERATION.
000276: 01,2202  E6,1661                                  EBANK=   AOG
000277: 01,2202           03014 52066                     2CADR    PRE-HUNT
000278:
000279: 01,2204           77777        4.51SPOT           OCT      77777                                 #  PROTECT FDAI ATTITUDE
000280: 01,2205  E6,1704                                  EBANK=   BODY3                                 #  ERROR DISPLAY IN P11
000281: 01,2205           75457 07711                     -2CADR   ATERTASK
000282:
000283: 01,2207           47777        4.53SPOT           OCT      47777                                 #  PRIO 30 NOVAC
000284: 01,2210  E7,1777                                  EBANK=   END-E7
000285: 01,2210           03521 50067                     2CADR    V97EJOB
000286:
000287: 01,2212           13000        4.55SPOT           OCT      13000                                 #  PROTECT P65 RESPONSIVE DISPLAY.
000288: 01,2213  E7,1451                                  EBANK=   RTINIT
000289: 01,2213           02452 54067                     2CADR    P65.1
000290:
000291: 01,2215           76105        4.57SPOT           -GENADR  P40TMP
000292: 01,2216  E7,1672                                  EBANK=   P40TMP
000293: 01,2216           75277 27710                     -2CADR   TIGON
000294:
000295: 01,2220           77777        4.61SPOT           OCT      77777
000296: 01,2221  E6,1423                                  EBANK=   PACTOFF
000297: 01,2221           75147 27711                     -2CADR   IGNITION
000298:
000299: 01,2223           77777        4.63SPOT           OCT      77777
000300: 01,2224  E6,1423                                  EBANK=   PACTOFF
000301: 01,2224           75000 27711                     -2CADR   DOSPSOFF
000302:
000303: 01,2226           00012        4.65SPOT           DEC      10         B-14
000304: 01,2227  E7,1412                                  EBANK=   TIG
000305: 01,2227           75200 27710                     -2CADR   TIG-5
000306:
000307: 01,2231           50777        4.67SPOT           OCT      50777                                 #  PRIO 27 NOVAC
000308: 01,2232  E6,1474                                  EBANK=   CSMMASS
000309: 01,2232           03440 50066                     2CADR    V97TJOB
000310:
000311: 01,2234           00372        4.71SPOT           DEC      250        B-14
000312: 01,2235  E6,1466                                  EBANK=   DAPDATR1                              #  (FOR RCSDAPON)
000313: 01,2235           74316 27711                     -2CADR   V97TRCS
000314:
000315: 01,2237           47777        4.73SPOT           OCT      47777                                 #  PRIO 30 NOVAC
000316: 01,2240  E6,1474                                  EBANK=   CSMMASS
000317: 01,2240           03472 50066                     2CADR    V97PJOB
000318:
000319: 01,2242           77777        4.75SPOT           DEC      -0         B-14
000320: 01,2243  E6,1466                                  EBANK=   DAPDATR1
000321: 01,2243           74237 27711                     -2CADR   SPSOFF97
000322:
000323: 01,2245           77777        4.77SPOT           DEC      -0         B-14
000324: 01,2246  E6,1423                                  EBANK=   PACTOFF
000325: 01,2246           75162 27711                     -2CADR   TIG-0
000326:
000327:                                                                                                  #  ANY MORE GROUP 4.ODD RESTART VALUES SHOULD GO HERE
000328:
000329: 01,2250           32000        5.2SPOT            OCT      32000
000330: 01,2251  E7,1431                                  EBANK=   DVCNTR
000331: 01,2251           03240 76067                     2CADR    NORMLIZE
000332:
000333: 01,2253           00310                           DEC      200        B-14
000334: 01,2254  E6,1661                                  EBANK=   AOG
000335: 01,2254           74470 01711                     -2CADR   REREADAC
000336:
000337: 01,2256           20000        5.4SPOT            OCT      20000
000338: 01,2257  E7,1431                                  EBANK=   DVCNTR
000339: 01,2257           03077 76067                     2CADR    SERVICER
000340:
000341: 01,2261           00310                           DEC      200        B-14
000342: 01,2262  E6,1661                                  EBANK=   AOG
000343: 01,2262           74470 01711                     -2CADR   REREADAC
000344:
000345:                                                                                                  #  ANY MORE GROUP 5.EVEN RESTART VALUES SHOULD GO HERE
000346:
000347: 01,2264           00310        5.3SPOT            DEC      200        B-14
000348: 01,2265  E6,1661                                  EBANK=   AOG
000349: 01,2265           74470 01711                     -2CADR   REREADAC
000350:
000351: 01,2267           77777        5.5SPOT            OCT      77777
000352: 01,2270  E6,1661                                  EBANK=   AOG
000353: 01,2270           75013 01711                     -2CADR   REDO5.5
000354:
000355: 01,2272           20000        5.7SPOT            OCT      20000                                 #  USED BY PRELAUNCH
000356: 01,2273  E5,1671                                  EBANK=   XSM
000357: 01,2273           02456 66065                     2CADR    RSTGTS1
000358:
000359: 01,2275           77777        5.11SPOT           OCT      77777
000360: 01,2276  E5,1671                                  EBANK=   XSM
000361: 01,2276           75175 11712                     -2CADR   ALLOOP1
000362:
000363: 01,2300           20000        5.13SPOT           OCT      20000
000364: 01,2301  E5,1671                                  EBANK=   XSM
000365: 01,2301           02527 66065                     2CADR    WTLISTNT
000366:
000367: 01,2303           20000        5.15SPOT           OCT      20000
000368: 01,2304  E5,1671                                  EBANK=   XSM
000369: 01,2304           03324 66065                     2CADR    RESTEST1
000370:
000371: 01,2306           20000        5.17SPOT           OCT      20000
000372: 01,2307  E5,1671                                  EBANK=   XSM
000373: 01,2307           05233 04065                     2CADR    GEOSTRT4
000374:
000375: 01,2311           22000        5.21SPOT           OCT      22000
000376: 01,2312  E5,1671                                  EBANK=   XSM
000377: 01,2312           02636 66065                     2CADR    ALFLT1
000378:
000379: 01,2314           77777        5.23SPOT           OCT      77777
000380: 01,2315  E5,1671                                  EBANK=   XSM
000381: 01,2315           75152 11712                     -2CADR   SPECSTS
000382:
000383: 01,2317           20000        5.25SPOT           OCT      20000
000384: 01,2320  E5,1671                                  EBANK=   XSM
000385: 01,2320           03335 66065                     2CADR    RESTEST3
000386:
000387: 01,2322           20000        5.27SPOT           OCT      20000
000388: 01,2323  E5,1671                                  EBANK=   XSM
000389: 01,2323           03303 66065                     2CADR    RESTAIER
000390:
000391: 01,2325           00000        5.31SPOT           DEC      0          B-14
000392: 01,2326           00000                           DEC      0          B-14
000393: 01,2327           00000                           DEC      0          B-14
000394:
000395: 01,2330           20000        5.33SPOT           OCT      20000
000396: 01,2331  E5,1671                                  EBANK=   XSM
000397: 01,2331           03360 66065                     2CADR    RESCHNG
000398:
000399: 01,2333           00000        5.35SPOT           DEC      0          B-14
000400: 01,2334           00000 00000                     2DEC     0          B-28
000401:
000402: 01,2336           77777        5.37SPOT           OCT      77777
000403: 01,2337  E6,1661                                  EBANK=   AOG
000404: 01,2337           74731 01711                     -2CADR   CHEKAVEG
000405:
000406: 01,2341           77777        5.41SPOT           OCT      77777                                 #  TO PROTECT PREREAD AT TIG-30A
000407: 01,2342  E7,1431                                  EBANK=   DVCNTR                                #        TIG-15 T+60
000408: 01,2342           75063 01710                     -2CADR   PREREAD
000409:
000410:                                                                                                  #  ANY MORE GROUP 5.ODD RESTART VALUES SHOULD GO HERE
000411:
000412: 01,2344           77777        6.2SPOT            OCT      77777                                 #  USED BY P40 AFTER GIMB DR TST TO REPOS'N
000413: 01,2345  E6,1476                                  EBANK=   AK                                    #  ENGINE UNTIL TVCDAPON
000414: 01,2345           75517 37711                     -2CADR   PRE40.6
000415:
000416: 01,2347           00144                           DEC      100        B-14
000417: 01,2350  E7,1660                                  EBANK=   TTOGO
000418: 01,2350           74514 27710                     -2CADR   CLOKTASK
000419:
000420:                                                                                                  #  ANY MORE 6.ODD RESTART VALUES SHOULD GO HERE
000421:
000422: 01,2352           00144        6.3SPOT            DEC      100        B-14
000423: 01,2353  E7,1412                                  EBANK=   TIG
000424: 01,2353           74514 27710                     -2CADR   CLOKTASK
000425:
000426: 01,2355           30000        6.5SPOT            OCT      30000                                 #  PROTECT INCREMENTING OF TIME2,TIME1 BY
000427: 01,2356  E3,1706                                  EBANK=   TEPHEM                                #  P27NUPDATE PROGRAM)
000428: 01,2356           03574 56063                     2CADR    TIMEDIDR
000429:
000430: 01,2360           00000        6.7SPOT            OCT      0
000431: 01,2361           00000                           OCT      0
000432: 01,2362           00000                           OCT      0
000433:
000434: 01,2363           76052        6.11SPOT           -GENADR  CM/GYMDT                              #  PROTECT TASK TO READ CDUS.
000435: 01,2364  E6,1725                                  EBANK=   CM/GYMDT                              #  FOR ENTRY DAP
000436: 01,2364           75323 45711                     -2CADR   READGYMB
000437:
000438: 01,2366           00000        6.13SPOT           DEC      0          B-14
000439: 01,2367           00000                           DEC      0          B-14
000440: 01,2370           00000                           DEC      0          B-14
000441:
000442:                                                                                                  #  PROGRAM DESCRIPTION: NEWPHASE                                         DATE:  11 NOV 1966
000443:                                                                                                  #  MOD: 1                                                                ASSEMBLY:  SUNBURST REV
000444:                                                                                                  #  MOD BY: COPPS                                                         LOG SECTION: PHASE TABLE MAINTENANCE
000445:
000446:                                                                                                  #  FUNCTIONAL DESCRIPTION:
000447:
000448:                                                                                                  #        NEWPHASE IS THE QUICK WAY TO MAKE A NON VARIABLE PHASE CHANGE.  IT INCLUDES THE OPTION OF SETTING
000449:                                                                                                  #        TBASE OF THE GROUP.  IF TBASE IS TO BE SET, -C(TIME1) IS STORED IN THE TBASE TABLE AS FOLLOWS:
000450:
000451:                                                                                                  #                (L-1)   TBASE0
000452:                                                                                                  #                (L)     TBASE1  (IF GROUP=1)
000453:                                                                                                  #                (L+1)
000454:                                                                                                  #                (L+2)   TBASE2  (IF GROUP=2)
000455:                                                                                                  #                -----
000456:                                                                                                  #                (L+6)   TBASE4  (IF GROUP=4)
000457:                                                                                                  #                (L+7)
000458:                                                                                                  #                (L+8)   TBASE5  (IF GROUP=5)
000459:
000460:                                                                                                  #        IN ANY CASE, THE NEGATIVE OF THE PHASE, FOLLOWED (IN THE NEXT REGISTER) BY THE PHASE, IS STORED IN THE
000461:                                                                                                  #        PHASE TABLE AS FOLLOWS:
000462:
000463:                                                                                                  #                (L)     -PHASE1 (IF GROUP=1)
000464:                                                                                                  #                (L+1)   PHASE1
000465:                                                                                                  #                (L+2)   -PHASE2 (IF GROUP=2)
000466:                                                                                                  #                (L+3)   PHASE2
000467:                                                                                                  #                -----
000468:                                                                                                  #                (L+7)   PHASE4
000469:                                                                                                  #                (L+8)   -PHASE5 (IF GROUP=5)
000470:                                                                                                  #                (L+9)   PHASE5
000471:
000472:                                                                                                  #  CALLING SEQUENCE:
000473:
000474:                                                                                                  #        EXAMPLE IS FOR PLACING A PHASE OF FIVE INTO GROUP THREE:
000475:
000476:                                                                                                  #        1)      IF TBASE IS NOT TO BE SET:
000477:                                                                                                  #                        L-1     CA      FIVE
000478:                                                                                                  #                        L       TC      NEWPHASE
000479:                                                                                                  #                        L+1     OCT     00003
000480:
000481:                                                                                                  #        2)      IF TBASE IS TO BE SET:
000482:                                                                                                  #                        L-1     CS      FIVE
000483:                                                                                                  #                        L       TC      NEWPHASE
000484:                                                                                                  #                        L+1     OCT     00003
000485:
000486:                                                                                                  #  SUBROUTINES CALLED:  NONE
000487:
000488:                                                                                                  #  NORMAL EXIT MODE:  AT L+2 OF CALLING SEQUENCE
000489:
000490:                                                                                                  #  ALARM OR ABORT EXITS:  NONE
000491:
000492:                                                                                                  #  OUTPUT:  PHASE TABLE AND TBASE TABLE UPDATED
000493:
000494:                                                                                                  #  ERASABLE INITIALIZATION REQ,D:  NONE
000495:                                                                                                  #  DEBRIS:  A,L,TEMPG
000496:
000497:                                                                                                  #  *** WARNING *** THIS PROGRAM IS TO BE PLACED IN FIXED-FIXED AND UNSWITCHED ERASABLE.
000498:
000499:    4114                                           BLOCK    02
000500:    4000                                           SETLOC   FFTAG1
000501:    4000                                           BANK
000502:
000503:    4114                                           COUNT*   $$/PHASE
000504:
000505:    4114           00004        NEWPHASE           INHINT
000506:
000507:    4115           54001                           TS       L                                     #  SAVE FOR FURTHER USE
000508:
000509:    4116           50002                           NDX      Q                                     #  OBTAIN THE GROUP NUMBER
000510:    4117           30000                           CA       0
000511:    4120           24002                           INCR     Q                                     #  OBTAIN THE RETURN ADDRESS
000512:    4121           60000                           DOUBLE                                         #  SAVE THE GROUP IN A FORM USED FOR
000513:    4122           54061                           TS       TEMPG                                 #  INDEXING
000514:
000515:    4123           10001                           CCS      L                                     #  SEE IF WE ARE TO SET TBASE
000516:    4124           14133                           TCF      +7                                    #  NO, THE DELTA T WAS POSITIVE
000517:    4125           14133                           TCF      +6
000518:
000519:    4126           24000        NUFAZ+10           INCR     A                                     #  SET TBASE AND STORE PHASE CORRECTLY
000520:    4127           54001                           TS       L
000521:
000522:    4130           40025                           CS       TIME1                                 #  SET TBASE
000523:    4131           50061                           NDX      TEMPG
000524:    4132           55051                           TS       TBASE1     -2
000525:
000526:    4133           40001                           CS       L                                     #  NOW PUT THE PHASE IN THE RIGHT TABLE LOC
000527:    4134           50061                           NDX      TEMPG
000528:    4135           52751                           DXCH     -PHASE1    -2
000529:
000530:    4136           00003                           RELINT
000531:    4137           00002                           TC       Q                                     #  NOW RETURN TO CALLER
000532:
000533:

End of include-file RESTART_TABLES.agc.  Parent file is MAIN.agc


