
Source Code


000002:                                                                                                  ## Copyright:   Public domain.
000003:                                                                                                  ## Filename:    SERVICE_ROUTINES.agc
000004:                                                                                                  ## Purpose:     A section of Comanche revision 072.
000005:                                                                                                  ##              It is part of the reconstructed source code for the first
000006:                                                                                                  ##              release of the software for the Command Module's (CM) Apollo
000007:                                                                                                  ##              Guidance Computer (AGC) for Apollo 13. No original listings
000008:                                                                                                  ##              of this program are available; instead, this file was recreated
000009:                                                                                                  ##              from a printout of Comanche 055, binary dumps of a set of
000010:                                                                                                  ##              Comanche 067 rope modules, and changelogs between Comanche 067
000011:                                                                                                  ##              and 072. It has been adapted such that the resulting bugger words
000012:                                                                                                  ##              exactly match those specified for Comanche 072 in NASA drawing
000013:                                                                                                  ##              2021153G, which gives relatively high confidence that the
000014:                                                                                                  ##              reconstruction is correct.
000015:                                                                                                  ## Assembler:   yaYUL
000016:                                                                                                  ## Contact:     Ron Burkey <info@sandroid.org>.
000017:                                                                                                  ## Website:     www.ibiblio.org/apollo/index.html
000018:                                                                                                  ## Mod history: 2024-05-13 MAS  Created from Comanche 067.
000019:
000020:    7722                                           BLOCK    3
000021:    6000                                           SETLOC   FFTAG6
000022:    6000                                           BANK
000023:    7722                                           COUNT    03/FLAG
000024:
000025:    7722           54001        UPENT2             TS       L                                     #  WHICH FLAGWORD IS IT
000026:    7723           75037                           MASK     OCT7
000027:    7724           56001                           XCH      L                                     #  SAVE IN L FOR INDEXING
000028:
000029:    7725           75735                           MASK     OCT77770                              #  OBTAIN THE BIT INFORMATION
000030:    7726           00004                           INHINT                                         #  PREVENT INTERUPTS
000031:    7727           54061                           TS       ITEMP1                                #  STORE THE BIT INFORMATION TEMPORARIALY
000032:
000033:    7730           50001                           NDX      L
000034:    7731           40074                           CS       FLAGWRD0
000035:    7732           70061                           MASK     ITEMP1
000036:    7733           50001                           NDX      L
000037:    7734           26074                           ADS      FLAGWRD0
000038:    7735           00003                           RELINT                                         #  RELEASE INTERUPT INHIBIT
000039:
000040:    7736           24002                           INCR     Q                                     #  OBTAIN THE CORRECT RETURN ADDRESS
000041:    7737           00002                           TC       Q                                     #  RETURN
000042:
000043:    7740           54001        DOWNENT2           TS       L                                     #  WHICH FLAGWORD IS IT
000044:    7741           75037                           MASK     OCT7
000045:    7742           56001                           XCH      L                                     #  SAVE IN L FOR INDEXING
000046:
000047:    7743           75735                           MASK     OCT77770                              #  OBTAIN THE BIT INFORMATION
000048:    7744           40000                           COM                                            #  START TO PROCESS THE INFORMATION
000049:
000050:    7745           00004                           INHINT                                         #  PREVENT INTERUPTS
000051:    7746           50001                           NDX      L
000052:    7747           70074                           MASK     FLAGWRD0
000053:    7750           50001                           NDX      L
000054:    7751           54074                           TS       FLAGWRD0
000055:    7752           00003                           RELINT                                         #  RELEASE INTERUPT INHIBIT
000056:
000057:    7753           24002                           INCR     Q                                     #  OBTAIN THE CORRECT RETURN ADDRESS
000058:    7754           00002                           TC       Q                                     #  RETURN
000059:
000060:    7755     5037               OCT7               EQUALS   SEVEN
000061: 10,3766                                           BANK     10
000062:
000063:                                                                                                  #  UPFLAG AND DOWNFLAG ARE ENTIRELY GENERAL FLAG SETTING AND CLEARING SUBROUTINES.  USING THEM, WHETHER OR
000064:                                                                                                  #  NOT IN INTERRUPT, ONE MAY SET OR CLEAR ANY SINGLE, NAMED BIT IN ANY ERASABLE REGISTER, SUBJECT OF COURSE TO
000065:                                                                                                  #  EBANK SETTING.  A "NAMED" BIT, AS THE WORD IS USED HERE, IS ANY BIT WITH A NAME FORMALLY ASSIGNED BY THE YUL
000066:                                                                                                  #  ASSEMBLER.
000067:
000068:                                                                                                  #  AT PRESENT THE ONLY NAMED BITS ARE THOSE IN THE FLAGWORDS.  ASSEMBLER CHANGES WILL MAKE IT POSSIBLE TO
000069:                                                                                                  #  NAME ANY BIT IN ERASABLE MEMORY.
000070:
000071:                                                                                                  #  CALLING SEQUENCES ARE AS FOLLOWS:-
000072:                                                                                                  #                TC      UPFLAG                  TC      DOWNFLAG
000073:                                                                                                  #                ADRES   NAME OF FLAG            ADRES   NAME OF FLAG
000074:
000075:                                                                                                  #  RETURN IS TO THE LOCATION FOLLOWING THE "ADRES" ABOUT .58 MS AFTER THE "TC".
000076:                                                                                                  #  UPON RETURN A CONTAINS THE CURRENT FLAGWRD SETTING.
000077:
000078:    5562                                           BLOCK    02
000079:    4000                                           SETLOC   FFTAG1
000080:    4000                                           BANK
000081:    5562                                           COUNT*   $$/FLAG
000082:
000083:    5562           30002        UPFLAG             CA       Q
000084:    5563           05600                           TC       DEBIT
000085:    5564           40000                           COM                                            #  +(15 - BIT)
000086:    5565           00006                           EXTEND
000087:    5566           04001                           ROR      LCHAN                                 #  SET BIT
000088:    5567           50061        COMFLAG            INDEX    ITEMP1
000089:    5570           54074                           TS       FLAGWRD0
000090:    5571           22063                           LXCH     ITEMP3
000091:    5572           00003                           RELINT
000092:    5573           00001                           TC       L
000093:
000094:    5574           30002        DOWNFLAG           CA       Q
000095:    5575           05600                           TC       DEBIT
000096:    5576           70001                           MASK     L                                     #  RESET BIT
000097:    5577           15567                           TCF      COMFLAG
000098:
000099:    5600           65033        DEBIT              AD       ONE                                   #  GET DE BITS
000100:    5601           00004                           INHINT
000101:    5602           54063                           TS       ITEMP3
000102:    5603           35042                           CA       LOW4                                  #  DEC15
000103:    5604           54061                           TS       ITEMP1
000104:    5605           50063                           INDEX    ITEMP3
000105:    5606           27777                           CA       0          -1                         #  ADRES
000106:    5607           54001                           TS       L
000107:    5610           35035                           CA       ZERO
000108:    5611           00006                           EXTEND
000109:    5612           10061                           DV       ITEMP1                                #  A = FLAGWRD, L = (15 - BIT)
000110:    5613           52062                           DXCH     ITEMP1
000111:    5614           50061                           INDEX    ITEMP1
000112:    5615           30074                           CA       FLAGWRD0
000113:    5616           54001                           TS       L                                     #  CURRENT STATE
000114:    5617           50062                           INDEX    ITEMP2
000115:    5620           45015                           CS       BIT15                                 #  -(15 - BIT)
000116:    5621           00002                           TC       Q
000117:
000118:                                                                                                  #  DELAYJOB- A GENERAL ROUTINE TO DELAY A JOB A SPECIFIC AMOUNT OF TIME BEFORE PICKING UP AGAIN.
000119:
000120:                                                                                                  #  ENTRANCE REQUIREMENTS...
000121:                                                                                                  #                CAF     DT              DELAY JOB FOR DT CENTISECS
000122:                                                                                                  #                TC      BANKCALL
000123:                                                                                                  #                CADR    DELAYJOB
000124:
000125: 06,3770                                           BANK     06
000126: 00,2000                                           SETLOC   DLAYJOB
000127: 00,2000                                           BANK
000128:
000129:                                                                                                  #  THIS MUST REMAIN IN BANK 0 *****************************************
000130:
000131: 00,3732                                           COUNT    00/DELAY
000132:
000133: 00,3732           00004        DELAYJOB           INHINT
000134: 00,3733           54002                           TS       Q                                     #  STORE DELAY DT IN Q FOR DLY -1 IN
000135: 00,3734           36214                           CAF      DELAYNUM                              #  WAITLIST
000136: 00,3735           54070        DELLOOP            TS       RUPTREG1
000137: 00,3736           50000                           INDEX    A
000138: 00,3737           31141                           CA       DELAYLOC                              #  IS THIS DELAYLOC AVAILABLE
000139: 00,3740           00006                           EXTEND
000140: 00,3741           13746                           BZF      OK2DELAY                              #  YES
000141:
000142: 00,3742           10070                           CCS      RUPTREG1                              #  NO, TRY NEXT DELAYLOC
000143: 00,3743           13735                           TCF      DELLOOP
000144:
000145: 00,3744           07755                           TC       BAILOUT                               #  NO AVAILABLE LOCS AVAILABLE.
000146: 00,3745           31104                           OCT      31104
000147:
000148: 00,3746           33766        OK2DELAY           CA       TCSLEEP                               #  SET WAITLIST IMMEDIATE RETURN
000149: 00,3747           54061                           TS       WAITEXIT
000150:
000151: 00,3750           30004                           CA       FBANK
000152: 00,3751           60070                           AD       RUPTREG1                              #  STORE BBANK FOR TASK CALL
000153: 00,3752           54001                           TS       L
000154:
000155: 00,3753           33767                           CAF      WAKECAD                               #  STORE CADR FOR TASK CALL
000156: 00,3754           15271                           TCF      DLY2       -1                         #  DLY IS IN WAITLIST ROUTINE
000157:
000158: 00,3755           04725        TCGETCAD           TC       MAKECADR                              #  GET CALLERS FCADR
000159:
000160: 00,3756           50070                           INDEX    RUPTREG1
000161: 00,3757           55141                           TS       DELAYLOC                              #  SAVE DELAY CADRS
000162:
000163: 00,3760           05211                           TC       JOBSLEEP
000164:
000165: 00,3761           35035        WAKER              CAF      ZERO
000166: 00,3762           50006                           INDEX    BBANK
000167: 00,3763           57141                           XCH      DELAYLOC                              #  MAKE DELAYLOC AVAILABLE
000168: 00,3764           05215                           TC       JOBWAKE
000169:
000170: 00,3765           05340                           TC       TASKOVER
000171:
000172: 00,3766           03753        TCSLEEP            GENADR   TCGETCAD   -2
000173: 00,3767           03761        WAKECAD            GENADR   WAKER
000174:
000175:                                                                                                  #  GENTRAN, A BLOCK TRANSFER ROUTINE.
000176:                                                                                                  #  WRITTEN BY D. EYLES
000177:                                                                                                  #  MOD 1 BY KERNAN                               UTILITYM REV 17 11/18/67
000178:                                                                                                  #  MOD 2 BY SCHULENBERG  (REMOVE RELINT)  SKIPPER REV 4 2/28/68
000179:
000180:                                                                                                  #  THIS ROUTINE IS USEFULL FOR TRANSFERING N CONSECUTIVE ERASABLE OR FIXED QUANTITIES TO SOME OTHER N
000181:                                                                                                  #  CONSECUTIVE ERASABLE LOCATIONS.  IF BOTH BLOCKS OF DATA ARE IN SWITCHABLE EBANKS, THEY MUST BE IN THE SAME ONE.
000182:
000183:                                                                                                  #  GENTRAN IS CALLABLE IN A JOB AS WELL AS A RUPT.  THE CALLING SEQUENCE IS:
000184:                                                                                                  #        I       CA      N-1             # OF QUANTITIES MINUS ONE.
000185:                                                                                                  #        I +1    TC      GENTRAN         IN FIXED-FIXED.
000186:                                                                                                  #        I +2    ADRES   L               STARTING ADRES OF DATA TO BE MOVED.
000187:                                                                                                  #        I +3    ADRES   M               STARTING ADRES OF DUPLICATION BLOCK.
000188:                                                                                                  #        I +4                            RETURNS HERE.
000189:
000190:                                                                                                  #  GENTRAN TAKES 25 MCT'S (300 MICROSECONDS) PER ITEM + 5 MCT'S (60 MICS) FOR ENTERING AND EXITING.
000191:                                                                                                  #  A, L AND ITEMP1 ARE NOT PRESERVED.
000192:
000193:    5622                                           BLOCK    02
000194:    4000                                           SETLOC   FFTAG4
000195:    4000                                           BANK
000196:
000197:    5622     0061                                  EBANK=   ITEMP1
000198:
000199:    5622                                           COUNT*   $$/TRAN
000200:
000201:    5622           00004        GENTRAN            INHINT
000202:    5623           54061                           TS       ITEMP1                                #  SAVE N-1.
000203:    5624           50002                           INDEX    Q                                     #  C(Q) = ADRES L.
000204:    5625           60000                           AD       0                                     #  ADRES (L + N - 1).
000205:    5626           50000                           INDEX    A
000206:    5627           30000                           CA       0                                     #  C(ABOVE).
000207:    5630           54001                           TS       L                                     #  SAVE DATA.
000208:    5631           30061                           CA       ITEMP1
000209:    5632           50002                           INDEX    Q
000210:    5633           60001                           AD       1                                     #  ADRES (M + N - 1).
000211:    5634           50000                           INDEX    A
000212:    5635           22000                           LXCH     0                                     #  STUFF IT.
000213:    5636           10061                           CCS      ITEMP1                                #  LOOP UNTIL N-1 = 0.
000214:    5637           15623                           TCF      GENTRAN    +1
000215:    5640           16710                           TCF      Q+2                                   #  RETURN TO CALLER.
000216:
000217:                                                                                                  #  B5OFF         ZERO BIT 5 OF EXTVBACT, WHICH IS SET BY TESTXACT.
000218:                                                                                                  #  MAY BE USED AS NEEDED BY ANY EXTENDED VERB WHICH HAS DONE TESTXACT
000219:
000220:    5641                                           COUNT*   $$/EXTVB
000221:
000222:    5641           45027        B5OFF              CS       BIT5
000223:    5642           71044                           MASK     EXTVBACT
000224:    5643           55044                           TS       EXTVBACT
000225:    5644           05233                           TC       ENDOFJOB
000226:
000227:                                                                                                  #  SUBROUTINES TO TURN OFF AND TURN ON TRACKER FAIL LIGHT.
000228:
000229:    5645           00004        TRFAILOF           INHINT
000230:    5646           47704                           CS       OCT40200                              #  TURN OFF TRACKER LIGHT
000231:    5647           71036                           MASK     DSPTAB     +11D
000232:    5650           65015                           AD       BIT15
000233:    5651           55036                           TS       DSPTAB     +11D
000234:    5652           41331                           CS       OPTMODES                              #  TO INSURE THAT OCDU FAIL WILL GO ON
000235:    5653           75025                           MASK     BIT7                                  #  AGAIN IF IT WAS ON IN ADDITION TO
000236:    5654           27331                           ADS      OPTMODES                              #  TRACKER FAIL.
000237:
000238:    5655           00003        REQ                RELINT
000239:    5656           00002                           TC       Q
000240:
000241:    5657           00004        TRFAILON           INHINT
000242:    5660           41036                           CS       DSPTAB     +11D                       #  TURN ON
000243:    5661           77704                           MASK     OCT40200
000244:    5662           27036                           ADS      DSPTAB     +11D
000245:    5663           15655                           TCF      REQ
000246:
000247:
000248:
000249:

End of include-file SERVICE_ROUTINES.agc.  Parent file is MAIN.agc


