
Source Code


000002:                                                                                                  ## Copyright:   Public domain.
000003:                                                                                                  ## Filename:    SINGLE_PRECISION_SUBROUTINES.agc
000004:                                                                                                  ## Purpose:     A section of Comanche revision 072.
000005:                                                                                                  ##              It is part of the reconstructed source code for the first
000006:                                                                                                  ##              release of the software for the Command Module's (CM) Apollo
000007:                                                                                                  ##              Guidance Computer (AGC) for Apollo 13. No original listings
000008:                                                                                                  ##              of this program are available; instead, this file was recreated
000009:                                                                                                  ##              from a printout of Comanche 055, binary dumps of a set of
000010:                                                                                                  ##              Comanche 067 rope modules, and changelogs between Comanche 067
000011:                                                                                                  ##              and 072. It has been adapted such that the resulting bugger words
000012:                                                                                                  ##              exactly match those specified for Comanche 072 in NASA drawing
000013:                                                                                                  ##              2021153G, which gives relatively high confidence that the
000014:                                                                                                  ##              reconstruction is correct.
000015:                                                                                                  ## Assembler:   yaYUL
000016:                                                                                                  ## Contact:     Ron Burkey <info@sandroid.org>.
000017:                                                                                                  ## Website:     www.ibiblio.org/apollo/index.html
000018:                                                                                                  ## Mod history: 2024-05-13 MAS  Created from Comanche 067.
000019:
000020:    5110                                           BLOCK    02
000021:
000022:                                                                                                  #  SINGLE PRECISION SINE AND COSINE
000023:
000024:    5110                                           COUNT    02/INTER
000025:
000026:    5110           65016        SPCOS              AD       HALF                                  #  ARGUMENTS SCALED AT PI
000027:    5111           55075        SPSIN              TS       TEMK
000028:    5112           15114                           TCF      SPT
000029:    5113           41075                           CS       TEMK
000030:    5114           60000        SPT                DOUBLE
000031:    5115           55075                           TS       TEMK
000032:    5116           15127                           TCF      POLLEY
000033:    5117           57075                           XCH      TEMK
000034:    5120           51075                           INDEX    TEMK
000035:    5121           65014                           AD       LIMITS
000036:    5122           40000                           COM
000037:    5123           61075                           AD       TEMK
000038:    5124           55075                           TS       TEMK
000039:    5125           15127                           TCF      POLLEY
000040:    5126           15145                           TCF      ARG90
000041:    5127           00006        POLLEY             EXTEND
000042:    5130           71075                           MP       TEMK
000043:    5131           55076                           TS       SQ
000044:    5132           00006                           EXTEND
000045:    5133           75063                           MP       C5/2
000046:    5134           67706                           AD       C3/2
000047:    5135           00006                           EXTEND
000048:    5136           71076                           MP       SQ
000049:    5137           67666                           AD       C1/2
000050:    5140           00006                           EXTEND
000051:    5141           71075                           MP       TEMK
000052:    5142           20001                           DDOUBL
000053:    5143           55075                           TS       TEMK
000054:    5144           00002                           TC       Q
000055:    5145           50000        ARG90              INDEX    A
000056:    5146           45014                           CS       LIMITS
000057:    5147           00002                           TC       Q                                     #  RESULT SCALED AT 1
000058:
000059:                                                                                                  #  SPROOT WAS DELETED IN REV 51 OF MASTER. ASS. CONT. HAS CARDS.
000060:
000061:
000062:
000063:

End of include-file SINGLE_PRECISION_SUBROUTINES.agc.  Parent file is MAIN.agc


