
Source Code


000002:                                                                                                  ## Copyright:   Public domain.
000003:                                                                                                  ## Filename:    STABLE_ORBIT_-_P38-P39.agc
000004:                                                                                                  ## Purpose:     A section of Comanche revision 072.
000005:                                                                                                  ##              It is part of the reconstructed source code for the first
000006:                                                                                                  ##              release of the software for the Command Module's (CM) Apollo
000007:                                                                                                  ##              Guidance Computer (AGC) for Apollo 13. No original listings
000008:                                                                                                  ##              of this program are available; instead, this file was recreated
000009:                                                                                                  ##              from a printout of Comanche 055, binary dumps of a set of
000010:                                                                                                  ##              Comanche 067 rope modules, and changelogs between Comanche 067
000011:                                                                                                  ##              and 072. It has been adapted such that the resulting bugger words
000012:                                                                                                  ##              exactly match those specified for Comanche 072 in NASA drawing
000013:                                                                                                  ##              2021153G, which gives relatively high confidence that the
000014:                                                                                                  ##              reconstruction is correct.
000015:                                                                                                  ## Assembler:   yaYUL
000016:                                                                                                  ## Contact:     Ron Burkey <info@sandroid.org>.
000017:                                                                                                  ## Website:     www.ibiblio.org/apollo/index.html
000018:                                                                                                  ## Mod history: 2024-05-13 MAS  Created from Comanche 067.
000019:
000020:                                                                                                  #  STABLE ORBIT RENDEZVOUS PROGRAMS (P38 AND P78)
000021:
000022:                                                                                                  #  MOD NO -1             LOG SECTION - STABLE ORBIT - P38-P39
000023:                                                                                                  #  MOD BY RUDNICKI.S     DATE 25JAN68
000024:
000025:                                                                                                  #  FUNCTIONAL DESCRIPTION
000026:
000027:                                                                                                  #        P38 AND P78 CALCULATE THE REQUIRED DELTA V AND OTHER INITIAL
000028:                                                                                                  #        CONDITIONS REQUIRED BY THE AGC TO (1) PUT THE ACTIVE VEHICLE
000029:                                                                                                  #        ON A TRANSFER TRAJECTORY THAT INTERCEPTS THE PASSIVE VEHICLE
000030:                                                                                                  #        ORBIT A GIVEN DISTANCE, DELTA R, EITHER AHEAD OF OR BEHIND THE
000031:                                                                                                  #        PASSIVE VEHICLE AND (2) ACTUALLY PLACE THE ACTIVE VEHICLE IN THE
000032:                                                                                                  #        PASSIVE VEHICLE ORBIT WITH A DELTA R SEPARATION BETWEEN THE TWO
000033:                                                                                                  #        VEHICLES
000034:
000035:                                                                                                  #  CALLING SEQUENCE
000036:
000037:                                                                                                  #        ASTRONAUT REQUEST THRU DSKY
000038:
000039:                                                                                                  #        V37E38E         IF THIS VEHICLE IS ACTIVE VEHICLE
000040:                                                                                                  #        V37E78E         IF OTHER VEHICLE IS ACTIVE VEHICLE
000041:
000042:                                                                                                  #  INPUT
000043:
000044:                                                                                                  #        (1)     SOI MANEUVER
000045:
000046:                                                                                                  #                (A)  TIG        TIME OF SOI MANEUVER
000047:                                                                                                  #                (B)  CENTANG    ORBITAL CENTRAL ANGLE OF THE PASSIVE VEHICLE
000048:                                                                                                  #                                DURING TRANSFER FROM TIG TO TIME OF INTERCEPT
000049:                                                                                                  #                (C)  DELTAR     THE DESIRED SEPARATION OF THE TWO VEHICLES
000050:                                                                                                  #                                SPECIFIED AS A DISTANCE ALONG THE PASSIVE VEHICLE
000051:                                                                                                  #                                ORBIT
000052:                                                                                                  #                (D)  OPTION     EQUALS 1 FOR SOI
000053:
000054:                                                                                                  #        (2)     SOR MANEUVER
000055:
000056:                                                                                                  #                (A)  TIG        TIME OF SOR MANEUVER
000057:                                                                                                  #                (B)  CENTANG    AN OPTIONAL RESPECIFICATION OF 1 (B) ABOVE
000058:                                                                                                  #                (C)  OPTION     EQUALS 2 FOR SOR
000059:                                                                                                  #                (D)  DELTTIME   THE TIME REQUIRED TO TRAVERSE DELTA R WHEN
000060:                                                                                                  #                                TRAVELING AT A VELOCITY EQUAL TO THE HORIZONTAL
000061:                                                                                                  #                                VELOCITY OF THE PASSIVE VEHICLE - SAVED FROM
000062:                                                                                                  #                                SOI PHASE
000063:                                                                                                  #                (E)  TINT       TIME OF INTERCEPT (SOI) - SAVED FROM SOI PHASE
000064:
000065:                                                                                                  #  OUTPUT
000066:
000067:                                                                                                  #        (1)  TRKMKCNT   NUMBER OF MARKS
000068:                                                                                                  #        (2)  TTOGO      TIME TO GO
000069:                                                                                                  #        (3)  +MGA       MIDDLE GIMBAL ANGLE
000070:                                                                                                  #        (4)  DSPTEM1    TIME OF INTERCEPT OF PASSIVE VEHICLE ORBIT
000071:                                                                                                  #                        (FOR SOI ONLY)
000072:                                                                                                  #        (5)  POSTTPI    PERIGEE ALTITUDE OF ACTIVE VEHICLE ORBIT AFTER
000073:                                                                                                  #                        THE SOI (SOR) MANEUVER
000074:                                                                                                  #        (6)  DELVTPI    MAGNITUDE OF DELTA V AT SOI (SOR) TIME
000075:                                                                                                  #        (7)  DELVTPF    MAGNITUDE OF DELTA V AT INTERCEPT TIME
000076:                                                                                                  #        (8)  DELVLVC    DELTA VELOCITY AT SOI (AND SOR) - LOCAL VERTICAL
000077:                                                                                                  #                        COORDINATES
000078:
000079:                                                                                                  #  SUBROUTINES USED
000080:
000081:                                                                                                  #        AVFLAGA
000082:                                                                                                  #        AVFLAGP
000083:                                                                                                  #        VNDSPLY
000084:                                                                                                  #        BANKCALL
000085:                                                                                                  #        GOFLASHR
000086:                                                                                                  #        GOTOPOOH
000087:                                                                                                  #        BLANKET
000088:                                                                                                  #        ENDOFJOB
000089:                                                                                                  #        PREC/TT
000090:                                                                                                  #        SELECTMU
000091:                                                                                                  #        INTRPVP
000092:                                                                                                  #        MAINRTNE
000093:
000094: 04,2742                                           BANK     04
000095: 04,2000                                           SETLOC   STBLEORB
000096: 04,2000                                           BANK
000097:
000098: 04,2742  E4,1770                                  EBANK=   SUBEXIT
000099: 04,2742                                           COUNT*   $$/P3879
000100:
000101: 04,2742           04627        P38                TC       AVFLAGA                               #  THIS VEHICLE ACTIVE
000102: 04,2743           02745                           TC       +2
000103: 04,2744           04642        P78                TC       AVFLAGP                               #  OTHER VEHICLE ACTIVE
000104: 04,2745           04647                           TC       P20FLGON                              #  SET UPDATFLG, TRACKFLG
000105: 04,2746           33274                           CAF      V06N33SR                              #  DISPLAY TIG
000106: 04,2747           03263                           TC       VNDSPLY
000107: 04,2750           33275                           CAF      V06N55SR                              #  DISPLAY CENTANG
000108: 04,2751           04676                           TCR      BANKCALL
000109: 04,2752           21057                           CADR     GOFLASHR
000110: 04,2753           14106                           TCF      GOTOPOOH                              #  TERMINATE
000111: 04,2754           12761                           TCF      +5                                    #  PROCEED
000112: 04,2755           12750                           TCF      -5                                    #  RECYCLE
000113: 04,2756           36214                           CAF      THREE                                 #  IMMEDIATE RETURN - BLANK R1, R2
000114: 04,2757           05542                           TCR      BLANKET
000115: 04,2760           15233                           TCF      ENDOFJOB
000116: 04,2761           35036                           CAF      FIVE
000117: 04,2762           55131                           TS       OPTION1
000118: 04,2763           35033                           CAF      ONE
000119: 04,2764           55132                           TS       OPTION2                               #  OPTION CODE IS SET TO 1
000120: 04,2765           33276                           CAF      V04N06SR                              #  DISPLAY OPTION CODE -1 = SOI, 2 = SOR
000121: 04,2766           04676                           TCR      BANKCALL
000122: 04,2767           21057                           CADR     GOFLASHR
000123: 04,2770           14106                           TCF      GOTOPOOH                              #  TERMINATE
000124: 04,2771           12776                           TCF      +5                                    #  PROCEED
000125: 04,2772           12765                           TCF      -5                                    #  RECYCLE
000126: 04,2773           35031                           CAF      BIT3                                  #  IMMEDIATE RETURN - BLANK R3
000127: 04,2774           05542                           TCR      BLANKET
000128: 04,2775           15233                           TCF      ENDOFJOB
000129: 04,2776           06006                           TC       INTPRET
000130: 04,2777           77731                           SSP
000131: 04,3000           03766                                    NN
000132: 04,3001           00002                                    2
000133: 04,3002           70535                           SLOAD    SR1
000134: 04,3003           01133                                    OPTION2
000135: 04,3004           71230                           BHIZ     DLOAD
000136: 04,3005           11013                                    OPTN1
000137: 04,3006           03656                                    TINT
000138: 04,3007           02611                           STORE    TINTSOI                               #  STORE FOR SOR PHASE
000139: 04,3010           77614                           CLRGO
000140: 04,3011           01230                                    OPTNSW                                #  OPTNSW; ON = SOI, OFF = SOR
000141: 04,3012           11042                                    JUNCTN1
000142: 04,3013           43014        OPTN1              SET      CLEAR                                 #  SOI
000143: 04,3014           01070                                    OPTNSW
000144: 04,3015           00670                                    UPDATFLG
000145: 04,3016           77624                           CALL
000146: 04,3017           11216                                    PREC/TT
000147: 04,3020           43214                           SET      DAD
000148: 04,3021           00470                                    UPDATFLG
000149: 04,3022           03413                                    TIG
000150: 04,3023           03656                           STORE    TINT                                  #  TI = TIG + TF
000151: 04,3024           01046                           STORE    DSPTEM1                               #  FOR DISPLAY
000152: 04,3025           77776                           EXIT
000153: 04,3026           33277                           CAF      V06N57SR                              #  DISPLAY DELTA R
000154: 04,3027           04676                           TCR      BANKCALL
000155: 04,3030           21057                           CADR     GOFLASHR
000156: 04,3031           14106                           TCF      GOTOPOOH                              #  TERMINATE
000157: 04,3032           13037                           TCF      +5                                    #  PROCEED
000158: 04,3033           13026                           TCF      -5                                    #  RECYCLE
000159: 04,3034           36211                           CAF      SIX                                   #  IMMEDIATE RETURN - BLANK R2, R3
000160: 04,3035           05542                           TCR      BLANKET
000161: 04,3036           15233                           TCF      ENDOFJOB
000162: 04,3037           33300                           CAF      V06N34SR                              #  DISPLAY TIME OF INTERCEPT
000163: 04,3040           03263                           TC       VNDSPLY
000164: 04,3041           06006                           TC       INTPRET
000165: 04,3042           45014        JUNCTN1            CLEAR    CALL
000166: 04,3043           04266                                    P39/79SW
000167: 04,3044           10712                                    SELECTMU                              #  SELECT MU, CLEAR FINALFLG, GO TO VN1645
000168: 04,3045           77624        RECYCLE            CALL
000169: 04,3046           11216                                    PREC/TT
000170: 04,3047           71214                           BOFF     DLOAD
000171: 04,3050           01350                                    OPTNSW
000172: 04,3051           11071                                    OPTN2
000173: 04,3052           03656                                    TINT
000174: 04,3053           34041                           STCALL   TDEC1                                 #  PRECISION UPDATE PASSIVE VEHICLE TO
000175: 04,3054           11247                                    INTRPVP                               #  INTERCEPT TIME
000176: 04,3055           53575                           VLOAD    UNIT
000177: 04,3056           00001                                    RATT                                  #  RP/(RP)
000178: 04,3057           47315                           PDVL     VXV
000179: 04,3060           00007                                    VATT
000180: 04,3061           60246                           ABVAL    NORM                                  #  (VP X RP/(RP))
000181: 04,3062           00047                                    X1
000182: 04,3063           56325                           PDDL     DDV
000183: 04,3064           02611                                    DELTAR
000184: 04,3065           77657                           SL*                                            #  DELTA R / (VP X RP/RP)
000185: 04,3066           20172                                    0          -7,1
000186: 04,3067           36613                           STCALL   DELTTIME                              #  DELTA T = (RP) DELTA R / (VP X RP)
000187: 04,3070           11075                                    JUNCTN2
000188: 04,3071           43345        OPTN2              DLOAD    DAD
000189: 04,3072           02611                                    TINTSOI
000190: 04,3073           00037                                    T
000191: 04,3074           03656                           STORE    TINT                                  #  TI = TI + TF
000192: 04,3075           45345        JUNCTN2            DLOAD    DSU
000193: 04,3076           03656                                    TINT
000194: 04,3077           02613                                    DELTTIME
000195: 04,3100           02615                           STORE    TARGTIME                              #  TT = TI - DELTA T
000196:
000197:                                                                                                  #  .... MAINRTNE ....
000198:
000199:                                                                                                  #  SUBROUTINES USED
000200:
000201:                                                                                                  #        S3435.25
000202:                                                                                                  #        PERIAPO1
000203:                                                                                                  #        SHIFTR1
000204:                                                                                                  #        VNDSPLY
000205:                                                                                                  #        BANKCALL
000206:                                                                                                  #        GOFLASH
000207:                                                                                                  #        GOTOPOOH
000208:                                                                                                  #        VN1645
000209:
000210: 04,3101           34041        MAINRTNE           STCALL   TDEC1                                 #  PRECISION UPDATE PASSIVE VEHICLE TO
000211: 04,3102           11247                                    INTRPVP                               #        TARGET TIME
000212: 04,3103           77745                           DLOAD
000213: 04,3104           03413                                    TIG
000214: 04,3105           03503                           STORE    INTIME
000215: 04,3106           77331                           SSP      VLOAD
000216: 04,3107           02371                                    SUBEXIT
000217: 04,3110           11114                                    TEST3979
000218: 04,3111           00001                                    RATT
000219: 04,3112           77624                           CALL
000220: 04,3113           72546                                    S3435.25
000221: 04,3114           43014        TEST3979           BOFF     BON
000222: 04,3115           04346                                    P39/79SW
000223: 04,3116           11125                                    MAINRTN1
000224: 04,3117           01311                                    FINALFLG
000225: 04,3120           11123                                    P39P79
000226: 04,3121           77614                           SET
000227: 04,3122           00470                                    UPDATFLG
000228: 04,3123           77776        P39P79             EXIT
000229: 04,3124           03152                           TC       DSPLY81                               #  FOR P39 AND P79
000230: 04,3125           51575        MAINRTN1           VLOAD    ABVAL
000231: 04,3126           03646                                    DELVEET3
000232: 04,3127           26635                           STOVL    DELVTPI                               #  DELTA V
000233: 04,3130           03640                                    VPASS4
000234: 04,3131           51451                           VSU      ABVAL
000235: 04,3132           03620                                    VTPRIME
000236: 04,3133           26637                           STOVL    DELVTPF                               #  DELTA V (FINAL) = V'T - VT
000237: 04,3134           03540                                    RACT3
000238: 04,3135           45115                           PDVL     CALL
000239: 04,3136           03612                                    VIPRIME
000240: 04,3137           45153                                    PERIAPO1                              #  GET PERIGEE ALTITUDE
000241: 04,3140           77624                           CALL
000242: 04,3141           45263                                    SHIFTR1
000243: 04,3142           02641                           STORE    POSTTPI
000244: 04,3143           43014                           BON      SET
000245: 04,3144           01311                                    FINALFLG
000246: 04,3145           11147                                    DSPLY58
000247: 04,3146           00470                                    UPDATFLG
000248: 04,3147           77776        DSPLY58            EXIT
000249: 04,3150           33301                           CAF      V06N58SR                              #  DISPLAY HP, DELTA V, DELTA V (FINAL)
000250: 04,3151           03263                           TC       VNDSPLY
000251: 04,3152           33302        DSPLY81            CAF      V06N81SR                              #  DISPLAY DELTA V (LV)
000252: 04,3153           03263                           TC       VNDSPLY
000253: 04,3154           06006                           TC       INTPRET
000254: 04,3155           77214                           CLEAR    VLOAD
000255: 04,3156           01267                                    XDELVFLG
000256: 04,3157           03646                                    DELVEET3
000257: 04,3160           37646                           STCALL   DELVSIN
000258: 04,3161           73002                                    VN1645                                #  DISPLAY TRKMKCNT, TTOGO, +MGA
000259: 04,3162           52014                           BON      GOTO
000260: 04,3163           04306                                    P39/79SW
000261: 04,3164           11203                                    P39/P79B
000262: 04,3165           11045                                    RECYCLE
000263:
000264:                                                                                                  #  STABLE ORBIT MIDCOURSE PROGRAM (P39 AND P79)
000265:
000266:                                                                                                  #  MOD NO -1             LOG SECTION - STABLE ORBIT - P38-P39
000267:                                                                                                  #  MOD BY RUDNICKI.S     DATE 25JAN68
000268:
000269:                                                                                                  #  FUNCTIONAL DESCRIPTION
000270:
000271:                                                                                                  #        P39 AND P79 CALCULATE THE REQUIRED DELTA V AND OTHER INITIAL
000272:                                                                                                  #        CONDITIONS REQUIRED BY THE AGC TO MAKE A MIDCOURSE CORRECTION
000273:                                                                                                  #        MANEUVER AFTER COMPLETING THE SOI MANEUVER BUT BEFORE MAKING
000274:                                                                                                  #        THE SOR MANEUVER
000275:
000276:                                                                                                  #  CALLING SEQUENCE
000277:
000278:                                                                                                  #        ASTRONAUT REQUEST THRU DSKY
000279:
000280:                                                                                                  #        V37E39E         IF THIS VEHICLE IS ACTIVE VEHICLE
000281:                                                                                                  #        V37E79E         IF OTHER VEHICLE IS ACTIVE VEHICLE
000282:
000283:                                                                                                  #  INPUT
000284:
000285:                                                                                                  #        (1)  TPASS4     TIME OF INTERCEPT - SAVED FROM P38/P78
000286:                                                                                                  #        (2)  TARGTIME   TIME THAT PASSIVE VEHICLE IS AT INTERCEPT POINT -
000287:                                                                                                  #                        SAVED FROM P38/P78
000288:
000289:                                                                                                  #  OUTPUT
000290:
000291:                                                                                                  #        (1)  TRKMKCNT   NUMBER OF MARKS
000292:                                                                                                  #        (2)  TTOGO      TIME TO GO
000293:                                                                                                  #        (3)  +MGA       MIDDLE GIMBAL ANGLE
000294:                                                                                                  #        (4)  DELVLVC    DELTA VELOCITY AT MID - LOCAL VERTICAL COORDINATES
000295:
000296:                                                                                                  #  SUBROUTINES USED
000297:
000298:                                                                                                  #        AVFLAGA
000299:                                                                                                  #        AVFLAGP
000300:                                                                                                  #        LOADTIME
000301:                                                                                                  #        SELECTMU
000302:                                                                                                  #        PRECSET
000303:                                                                                                  #        S34/35.1
000304:                                                                                                  #        MAINRTNE
000305:
000306: 04,3166           04627        P39                TC       AVFLAGA                               #  THIS VEHICLE ACTIVE
000307: 04,3167           00006                           EXTEND
000308: 04,3170           31422                           DCA      ATIGINC
000309: 04,3171           03175                           TC       P39/P79A
000310: 04,3172           04642        P79                TC       AVFLAGP                               #  OTHER VEHICLE ACTIVE
000311: 04,3173           00006                           EXTEND
000312: 04,3174           31424                           DCA      PTIGINC
000313: 04,3175           53764        P39/P79A           DXCH     KT                                    #  TIME TO PREPARE FOR BURN
000314: 04,3176           04647                           TC       P20FLGON                              #  SET UPDATFLG, TRACKFLG
000315: 04,3177           06006                           TC       INTPRET
000316: 04,3200           45014                           SET      CALL
000317: 04,3201           04066                                    P39/79SW
000318: 04,3202           10712                                    SELECTMU                              #  SELECT MU, CLEAR FINALFLG, GO TO VN1645
000319: 04,3203           43234        P39/P79B           RTB      DAD
000320: 04,3204           45510                                    LOADTIME
000321: 04,3205           02364                                    KT
000322: 04,3206           03413                           STORE    TIG                                   #  TIG = T (PRESENT) + PREPARATION TIME
000323: 04,3207           34041                           STCALL   TDEC1                                 #  PRECISION UPDATE ACTIVE AND PASSIVE
000324: 04,3210           45215                                    PRECSET                               #        VEHICLES TO TIG
000325: 04,3211           77624                           CALL
000326: 04,3212           74000                                    S34/35.1                              #  GET UNIT NORMAL
000327: 04,3213           52145                           DLOAD    GOTO
000328: 04,3214           02615                                    TARGTIME
000329: 04,3215           11101                                    MAINRTNE                              #  CALCULATE DELTA V AND DELTA V (LV)
000330:
000331:                                                                                                  #  .... PREC/TT ....
000332:
000333:                                                                                                  #  SUBROUTINES USED
000334:
000335:                                                                                                  #        PRECSET
000336:                                                                                                  #        TIMETHET
000337:                                                                                                  #        S34/35.1
000338:
000339: 04,3216           71220        PREC/TT            STQ      DLOAD
000340: 04,3217           02367                                    RTRN
000341: 04,3220           03413                                    TIG
000342: 04,3221           34041                           STCALL   TDEC1                                 #  PRECISION UPDATE ACTIVE AND PASSIVE
000343: 04,3222           45215                                    PRECSET                               #        VEHICLES TO TIG
000344: 04,3223           53775                           VLOAD    VSR*
000345: 04,3224           03554                                    RPASS3
000346: 04,3225           57176                                    0,2
000347: 04,3226           16657                           STODL    RVEC
000348: 04,3227           03754                                    CENTANG
000349: 04,3230           71406                           PUSH     COS
000350: 04,3231           16734                           STODL    CSTH
000351: 04,3232           43156                           SIN      SET
000352: 04,3233           03466                                    RVSW
000353: 04,3234           26732                           STOVL    SNTH
000354: 04,3235           03562                                    VPASS3
000355: 04,3236           77657                           VSR*
000356: 04,3237           57176                                    0,2
000357: 04,3240           36746                           STCALL   VVEC                                  #  GET TRANSFER TIME BASED ON CENTANG OF
000358: 04,3241           24744                                    TIMETHET                              #        PASSIVE VEHICLE
000359: 04,3242           77624                           CALL
000360: 04,3243           74000                                    S34/35.1                              #  GET UNIT NORMAL
000361: 04,3244           52145                           DLOAD    GOTO
000362: 04,3245           00037                                    T
000363: 04,3246           02367                                    RTRN
000364:
000365:                                                                                                  #  .... INTRPVP ....
000366:
000367:                                                                                                  #  SUBROUTINES USED
000368:
000369:                                                                                                  #        CSMPREC
000370:                                                                                                  #        LEMPREC
000371:
000372: 04,3247           43020        INTRPVP            STQ      BOFF                                  #  PRECISION UPDATE PASSIVE VEHICLE TO
000373: 04,3250           02367                                    RTRN                                  #        TDEC1
000374: 04,3251           01352                                    AVFLAG
000375: 04,3252           11257                                    OTHERV
000376: 04,3253           77624                           CALL
000377: 04,3254           27100                                    CSMPREC
000378: 04,3255           77650                           GOTO
000379: 04,3256           02367                                    RTRN
000380: 04,3257           77624        OTHERV             CALL
000381: 04,3260           27114                                    LEMPREC
000382: 04,3261           77650                           GOTO
000383: 04,3262           02367                                    RTRN
000384:
000385:                                                                                                  #  .... VNDSPLY ....
000386:
000387:                                                                                                  #  SUBROUTINES USED
000388:
000389:                                                                                                  #        BANKCALL
000390:                                                                                                  #        GOFLASH
000391:                                                                                                  #        GOTOPOOH
000392:
000393: 04,3263           00006        VNDSPLY            EXTEND                                         #  FLASH DISPLAY
000394: 04,3264           23767                           QXCH     RTRN
000395: 04,3265           55765                           TS       VERBNOUN
000396: 04,3266           31765                           CA       VERBNOUN
000397: 04,3267           04676                           TCR      BANKCALL
000398: 04,3270           20720                           CADR     GOFLASH
000399: 04,3271           14106                           TCF      GOTOPOOH                              #  TERMINATE
000400: 04,3272           01767                           TC       RTRN                                  #  PROCEED
000401: 04,3273           13266                           TCF      -5                                    #  RECYCLE
000402: 04,3274           01441        V06N33SR           VN       0633
000403: 04,3275           01467        V06N55SR           VN       0655
000404: 04,3276           01006        V04N06SR           VN       0406
000405: 04,3277           01471        V06N57SR           VN       0657
000406: 04,3300           01442        V06N34SR           VN       0634
000407: 04,3301           01472        V06N58SR           VN       0658
000408: 04,3302           01521        V06N81SR           VN       0681
000409:

End of include-file STABLE_ORBIT_-_P38-P39.agc.  Parent file is MAIN.agc


