
Source Code


000002:                                                                                                  ## Copyright:   Public domain.
000003:                                                                                                  ## Filename:    SYSTEM_TEST_STANDARD_LEAD_INS.agc
000004:                                                                                                  ## Purpose:     A section of Comanche revision 072.
000005:                                                                                                  ##              It is part of the reconstructed source code for the first
000006:                                                                                                  ##              release of the software for the Command Module's (CM) Apollo
000007:                                                                                                  ##              Guidance Computer (AGC) for Apollo 13. No original listings
000008:                                                                                                  ##              of this program are available; instead, this file was recreated
000009:                                                                                                  ##              from a printout of Comanche 055, binary dumps of a set of
000010:                                                                                                  ##              Comanche 067 rope modules, and changelogs between Comanche 067
000011:                                                                                                  ##              and 072. It has been adapted such that the resulting bugger words
000012:                                                                                                  ##              exactly match those specified for Comanche 072 in NASA drawing
000013:                                                                                                  ##              2021153G, which gives relatively high confidence that the
000014:                                                                                                  ##              reconstruction is correct.
000015:                                                                                                  ## Assembler:   yaYUL
000016:                                                                                                  ## Contact:     Ron Burkey <info@sandroid.org>.
000017:                                                                                                  ## Website:     www.ibiblio.org/apollo/index.html
000018:                                                                                                  ## Mod history: 2024-05-13 MAS  Created from Comanche 067.
000019:
000020: 22,3151  E5,1671                                  EBANK=   XSM
000021:
000022: 33,2000                                           BANK     33
000023: 13,2000                                           SETLOC   E/PROG1
000024: 13,2000                                           BANK
000025:
000026: 13,2036                                           COUNT*   $$/P07
000027:
000028:                                                                                                  #  SPECIAL PROGRAMS TO EASE THE PANGS OF ERASABLE MEMORY PROGRAMS.
000029:
000030:                                                                                                  #  E/BKCALL      FOR DOING BANKCALLS FROM AND RETURNING TO ERASABLE.
000031:
000032:                                                                                                  #  THIS ROUTINE IS CALLABLE FROM ERASABLE OR FIXED.  LIKE BANKCALL, HOWEVER, SWITCHING BETWEEN S3 AND S4
000033:                                                                                                  #  IS NOT POSSIBLE.
000034:
000035:                                                                                                  #  THE CALLING SEQUENCE IS:
000036:
000037:                                                                                                  #        TC      BANKCALL
000038:                                                                                                  #        CADR    E/BKCALL
000039:                                                                                                  #        CADR    ROUTINE         WHERE YOU WANT TO GO IN FIXED.
000040:                                                                                                  #        RETURN HERE FROM DISPLAY TERMINATE, BAD STALL OR TC Q.
000041:                                                                                                  #        RETURN HERE FROM DISPLAY PROCEED OR GOOD RETURN FROM STALL.
000042:                                                                                                  #        RETURN HERE FROM DISPLAY ENTER OR RECYCLE.
000043:
000044:                                                                                                  #  THIS ROUTINE REQUIRES TWO ERASABLES (EBUF2, +1) IN UNSWITCHED WHICH ARE UNSHARED BY INTERRUPTS AND
000045:                                                                                                  #  OTHER EMEMORY PROGRAMS.
000046:
000047:                                                                                                  #  A + L ARE PRESERVED THROUGH BANKCALL AND E/BKCALL.
000048:
000049: 13,2036           52134        E/BKCALL           DXCH     BUF2                                  #  SAVE A,L AND GET DP RETURN.
000050: 13,2037           52364                           DXCH     EBUF2                                 #  SAVE DP RETURN.
000051: 13,2040           24363                           INCR     EBUF2                                 #  RETURN +1 BECAUSE DOUBLE CADR.
000052: 13,2041           30006                           CA       BBANK
000053: 13,2042           75070                           MASK     LOW10                                 #  GET CURRENT EBANK.  (SBANK SOMEDAY)
000054: 13,2043           26364                           ADS      EBUF2      +1                         #  FORM BBCON.  (WAS FBANK)
000055: 13,2044           50363                           NDX      EBUF2
000056: 13,2045           27777                           CA       0          -1                         #  GET CADR OF ROUTINE.
000057: 13,2046           04702                           TC       SWCALL                                #  GO TO ROUTINE, SETTING Q TO SWRETURN
000058:                                                                                                  #  AND RESTORING A + L.
000059: 13,2047           02053                           TC       +4                                    #  TX Q, V34, OR BAD STALL RETURN.
000060: 13,2050           02052                           TC       +2                                    #  PROCEED OR GOOD STALL RETURN.
000061: 13,2051           24363                           INCR     EBUF2                                 #  ENTER OR RECYCLE RETURN.
000062: 13,2052           24363                           INCR     EBUF2
000063: 13,2053           52364        E/SWITCH           DXCH     EBUF2
000064: 13,2054           52006                           DTCB
000065:
000066:                                                                                                  #  E/CALL        FOR CALLING A FIXED MEMORY INTERPRETIVE SUBROUTINE FROM ERASABLE AND RETURNING TO ERASABLE.
000067:
000068:                                                                                                  #  THE CALLING SEQUENCE IS...
000069:
000070:                                                                                                  #        RTB
000071:                                                                                                  #                E/CALL
000072:                                                                                                  #        CADR    ROUTINE                 THE INTERPRETIVE SUBROUTINE YOU WANT.
000073:                                                                                                  #                                        RETURNS HERE IN INTERPRETIVE.
000074:
000075: 13,2055           22164        E/CALL             LXCH     LOC                                   #  ADRES -1 OF CADR.
000076: 13,2056           50001                           INDEX    L
000077: 13,2057           30001                           CA       L                                     #  CADR IN A.
000078: 13,2060           24001                           INCR     L
000079: 13,2061           24001                           INCR     L                                     #  RETURN ADRES IN L.
000080: 13,2062           52364                           DXCH     EBUF2                                 #  STORE CADR AND RETURN.
000081: 13,2063           06006                           TC       INTPRET
000082: 13,2064           77624                           CALL
000083: 13,2065           00363                                    EBUF2                                 #  INDIRECTLY EXECUTE ROUTINE.  IT MUST
000084: 13,2066           77776                           EXIT                                           #  LEAVE VIA RVQ OR EQUIVALENT.
000085: 13,2067           22364                           LXCH     EBUF2      +1                         #  PICK UP RETURN.
000086: 13,2070           16010                           TCF      INTPRET    +2                         #  SET LOC AND RETURB TO CALLER
000087:
000088:                                                                                                  #  E/JOBWAK      FOR WAKING UP ERASABLE MEMORY JOBS.
000089:
000090:                                                                                                  #  THIS ROUTINE MUST BE CALLED IN INTERRUPT OR WITH INTERRUPTS INHIBITED.
000091:
000092:                                                                                                  #  THE CALLING SEQUENCE IS:
000093:
000094:                                                                                                  #        INHINT
000095:                                                                                                  #          .
000096:                                                                                                  #          .
000097:                                                                                                  #        CA      WAKEADR         ADDRESS OF SLEEPING JOB
000098:                                                                                                  #        TC      IBNKCALL
000099:                                                                                                  #        CADR    E/JOBWAK
000100:                                                                                                  #          .                     RETURNS HERE
000101:                                                                                                  #          .
000102:                                                                                                  #          .
000103:                                                                                                  #        RELINT                  IF YOU DID AN INHINT.
000104:
000105: 33,2000                                           BANK     33
000106: 04,2000                                           SETLOC   E/PROG
000107: 04,2000                                           BANK
000108:
000109: 04,2606                                           COUNT*   $$/P07
000110:
000111: 04,2606           05215        E/JOBWAK           TC       JOBWAKE                               #  ARRIVE IWTH ADRES IN A.
000112: 04,2607           45021                           CS       BIT11
000113: 04,2610           50064                           NDX      LOCCTR
000114: 04,2611           26164                           ADS      LOC                                   #  KNOCK FIXED MEMORY BIT OUT OF ADRES.
000115: 04,2612           00072                           TC       RUPTREG3                              #  RETURN
000116:
000117:
000118:                                                                                                  #  THESE PROGRAMS ARE PROVIDED TO ALLOW OVERLAY OF BANKS 30 THRU 33 OF THE 205 VERSIONS OF SYSTEM TESTS AND
000119:                                                                                                  #  PRELAUNCH ALIGN.  THE INTENT IS TO ALLOW THE STG AND HYBRID LABS TO RUN ALL THE TESTS WITH COLOSSUS.
000120:
000121:
000122: 33,2000                                           BANK     33
000123: 33,2000                                           SETLOC   TESTLEAD
000124: 33,2000                                           BANK
000125:
000126: 33,2000                                           COUNT    33/COMST
000127:
000128: 33,2000  E5,1425                                  EBANK=   QPLACE
000129:
000130: 33,2000           03436        COMPVER            TC       GCOMPVER                              #  MUST BE 33,2000.
000131:
000132: 33,2001           03131        GTSCPSS1           TC       GTSCPSS                               #  MUST BE AT 33,2001
000133:
000134: 33,2002           05370        REDO               TC       NEWMODEX                              #  DISPLAY MM 07.
000135: 33,2003           00007                           MM       07         B-14                       #  FALL INTO IMUTEST
000136:

End of include-file SYSTEM_TEST_STANDARD_LEAD_INS.agc.  Parent file is MAIN.agc


