
Source Code


000002:                                                                                                  ## Copyright:   Public domain.
000003:                                                                                                  ## Filename:    TAGS_FOR_RELATIVE_SETLOC_AND_BLANK_BANK_CARDS.agc
000004:                                                                                                  ## Purpose:     A section of Comanche revision 072.
000005:                                                                                                  ##              It is part of the reconstructed source code for the first
000006:                                                                                                  ##              release of the software for the Command Module's (CM) Apollo
000007:                                                                                                  ##              Guidance Computer (AGC) for Apollo 13. No original listings
000008:                                                                                                  ##              of this program are available; instead, this file was recreated
000009:                                                                                                  ##              from a printout of Comanche 055, binary dumps of a set of
000010:                                                                                                  ##              Comanche 067 rope modules, and changelogs between Comanche 067
000011:                                                                                                  ##              and 072. It has been adapted such that the resulting bugger words
000012:                                                                                                  ##              exactly match those specified for Comanche 072 in NASA drawing
000013:                                                                                                  ##              2021153G, which gives relatively high confidence that the
000014:                                                                                                  ##              reconstruction is correct.
000015:                                                                                                  ## Assembler:   yaYUL
000016:                                                                                                  ## Contact:     Ron Burkey <info@sandroid.org>.
000017:                                                                                                  ## Website:     www.ibiblio.org/apollo/index.html
000018:                                                                                                  ## Mod history: 2024-05-13 MAS  Created from Comanche 067.
000019:
000020: ???????                        FIXED              MEMORY   120000     -          167777
000021: ???????                                           COUNT    BANKSUM
000022:
000023:                                                                                                  #  MODULE 1 CONTAINS BANKS 0 THROUGH 5
000024:
000025:    4000                                           BLOCK    02
000026:    4000                        FFTAG1             EQUALS
000027:    4000                        FFTAG2             EQUALS
000028:    4000                        FFTAG3             EQUALS
000029:    4000                        FFTAG4             EQUALS
000030:    4000                        FFTAG7             EQUALS
000031:    4000                        FFTAG8             EQUALS
000032:    4000                        FFTAG9             EQUALS
000033:    4000                        FFTAG10            EQUALS
000034:    4000                        FFTAG12            EQUALS
000035:    4000                        P30SUBS            EQUALS
000036:    4000                        STOPRAT            EQUALS
000037:    4000                        P23S               EQUALS
000038:    4000                                           BNKSUM   02
000039:
000040:    6000                                           BLOCK    03
000041:    6000                        FFTAG5             EQUALS
000042:    6000                        FFTAG6             EQUALS
000043:    6000                        DAPS9              EQUALS
000044:    6000                        FFTAG13            EQUALS
000045:    6000                                           BNKSUM   03
000046:
000047: 00,2000                                           BANK     00
000048: 00,2000                        DLAYJOB            EQUALS
000049: 00,2000                                           BNKSUM   00
000050:
000051: 01,2000                                           BANK     01
000052: 01,2000                        RESTART            EQUALS
000053: 01,2000                                           BNKSUM   01
000054:
000055: 04,2000                                           BANK     4
000056: 04,2000                        VERB37             EQUALS
000057: 04,2000                        CONICS1            EQUALS
000058: 04,2000                        PINBALL4           EQUALS
000059: 04,2000                        CSI/CDH1           EQUALS
000060: 04,2000                        INTPRET2           EQUALS
000061: 04,2000                        IMUCAL1            EQUALS
000062:
000063:
000064: 04,2000                        STBLEORB           EQUALS
000065: 04,2000                        E/PROG             EQUALS
000066: 04,2000                        MIDDGIM            EQUALS
000067:
000068: 04,2000                                           BNKSUM   04
000069:
000070: 05,2000                                           BANK     5
000071: 05,2000                        FRANDRES           EQUALS
000072: 05,2000                        DOWNTELM           EQUALS
000073: 05,2000                        DAPMASS            EQUALS
000074: 05,2000                        CDHTAG             EQUALS
000075: 05,2000                                           BNKSUM   05
000076:
000077:                                                                                                  #  MODULE 2 CONTAINS BANKS 6 THROUGH 13
000078:
000079: 06,2000                                           BANK     6
000080: 06,2000                        IMUCOMP            EQUALS
000081: 06,2000                        T4RUP              EQUALS
000082: 06,2000                        IMUCAL2            EQUALS
000083: 06,2000                        CSIPROG            EQUALS
000084: 06,2000                                           BNKSUM   06
000085:
000086: 07,2000                                           BANK     7
000087: 07,2000                        SXTMARKE           EQUALS
000088: 07,2000                        R02                EQUALS
000089: 07,2000                        MODESW             EQUALS
000090: 07,2000                        XANG               EQUALS
000091: 07,2000                        KEYRUPT            EQUALS
000092: 07,2000                        CSIPROG6           EQUALS
000093: 07,2000                                           BNKSUM   07
000094:
000095: 10,2000                                           BANK     10
000096: 10,2000                        DISPLAYS           EQUALS
000097: 10,2000                        PHASETAB           EQUALS
000098: 10,2000                        COMGEOM2           EQUALS
000099: 10,2000                        SXTMARK1           EQUALS
000100: 10,2000                        P60S4              EQUALS
000101: 10,2000                        OPTDRV             EQUALS
000102: 10,2000                        CSIPROG8           EQUALS
000103: 10,2000                                           BNKSUM   10
000104:
000105: 11,2000                                           BANK     11
000106: 11,2000                        ORBITAL            EQUALS
000107: 11,2000                        ORBITAL1           EQUALS                                         #  CONSTANTS
000108:
000109:
000110: 11,2000                        INTVEL             EQUALS
000111: 11,2000                        S52/2              EQUALS
000112: 11,2000                        INTINIT1           EQUALS
000113: 11,2000                                           BNKSUM   11
000114:
000115: 12,2000                                           BANK     12
000116: 12,2000                        CONICS             EQUALS
000117: 12,2000                        CSIPROG2           EQUALS
000118: 12,2000                        CSI/CDH2           EQUALS
000119: 12,2000                                           BNKSUM   12
000120:
000121: 13,2000                                           BANK     13
000122: 13,2000                        P76LOC             EQUALS
000123: 13,2000                        LATLONG            EQUALS
000124: 13,2000                        INTINIT            EQUALS
000125: 13,2000                        SR52/1             EQUALS
000126: 13,2000                        ORBITAL2           EQUALS
000127: 13,2000                        CDHTAGS            EQUALS
000128: 13,2000                        E/PROG1            EQUALS
000129: 13,2000                        P40S4              EQUALS
000130: 13,2000                                           BNKSUM   13
000131:
000132:                                                                                                  #  SPACER
000133:
000134:                                                                                                  #           MODULE 3 CONTAINS BANKS 14 THROUGH 21
000135:
000136: 14,2000                                           BANK     14
000137: 14,2000                        STARTAB            EQUALS
000138: 14,2000                        RT53               EQUALS
000139: 14,2000                        P50S1              EQUALS
000140: 14,2000                        MEASINC2           EQUALS
000141: 14,2000                        CSI/CDH3           EQUALS
000142: 14,2000                                           BNKSUM   14
000143:
000144: 15,2000                                           BANK     15
000145: 15,2000                        P50S               EQUALS
000146: 15,2000                        ETRYDAP            EQUALS
000147: 15,2000                        S52/3              EQUALS
000148: 15,2000                        SERV1              EQUALS
000149: 15,2000                                           BNKSUM   15
000150:
000151: 16,2000                                           BANK     16
000152: 16,2000                        P40S1              EQUALS
000153:
000154:
000155: 16,2000                        DAPROLL            EQUALS
000156: 16,2000                        P50S2              EQUALS
000157: 16,2000                        P23S1              EQUALS
000158: 16,2000                        RTE2               EQUALS
000159: 16,2000                        CSIPROG5           EQUALS
000160: 16,2000                                           BNKSUM   16
000161:
000162: 17,2000                                           BANK     17
000163: 17,2000                        EXTVRBS1           EQUALS
000164: 17,2000                        DAPS4              EQUALS
000165: 17,2000                        DAPS5              EQUALS
000166: 17,2000                        DAPS7              EQUALS
000167: 17,2000                        P50S3              EQUALS
000168: 17,2000                                           BNKSUM   17
000169:
000170: 20,2000                                           BANK     20
000171: 20,2000                        DAPS6              EQUALS
000172: 20,2000                        DAPS1              EQUALS
000173: 20,2000                        DAPS2              EQUALS
000174: 20,2000                        MANUSTUF           EQUALS
000175: 20,2000                        R36CM              EQUALS
000176: 20,2000                        VAC5LOC            EQUALS
000177: 20,2000                        R30LOC1            EQUALS
000178: 20,2000                                           BNKSUM   20
000179:
000180: 21,2000                                           BANK     21
000181: 21,2000                        EXTVRBS2           EQUALS
000182: 21,2000                        DAPS3              EQUALS
000183: 21,2000                        MYSUBS             EQUALS
000184: 21,2000                        KALCMON3           EQUALS
000185: 21,2000                                           BNKSUM   21
000186:
000187:                                                                                                  #  MODULE 4 CONTAINS BANKS 22 THROUGH 27
000188:
000189: 22,2000                                           BANK     22
000190: 22,2000                        RTBCODES           EQUALS
000191: 22,2000                        RTBCODE1           EQUALS
000192: 22,2000                        DAPS8              EQUALS
000193: 22,2000                        APOPERI            EQUALS
000194: 22,2000                        P40S5              EQUALS
000195: 22,2000                        KALCMON2           EQUALS
000196: 22,2000                        KALCMON1           EQUALS
000197: 22,2000                        CSIPROG3           EQUALS
000198: 22,2000                                           BNKSUM   22
000199:
000200:
000201: 23,2000                                           BANK     23
000202: 23,2000                        P20S2              EQUALS
000203: 23,2000                        INFLIGHT           EQUALS
000204: 23,2000                        COMGEOM1           EQUALS
000205: 23,2000                        POWFLITE           EQUALS
000206: 23,2000                        POWFLIT1           EQUALS
000207: 23,2000                        RENDGUID           EQUALS
000208: 23,2000                        POWFLIT2           EQUALS
000209: 23,2000                        R30LOC             EQUALS
000210: 23,2000                        P11FOUR            EQUALS
000211: 23,2000                        CSIPROG4           EQUALS
000212: 23,2000                                           BNKSUM   23
000213:
000214: 24,2000                                           BANK     24
000215: 24,2000                        LOADDAP            EQUALS
000216: 24,2000                        P40S               EQUALS
000217: 24,2000                        CSIPROG7           EQUALS
000218: 24,2000                                           BNKSUM   24
000219:
000220: 25,2000                                           BANK     25
000221: 25,2000                        REENTRY            EQUALS
000222: 25,2000                        CDHTAG1            EQUALS
000223: 25,2000                                           BNKSUM   25
000224:
000225: 26,2000                                           BANK     26
000226: 26,2000                        INTPRET1           EQUALS
000227: 26,2000                        REENTRY1           EQUALS
000228: 26,2000                        P60S               EQUALS
000229: 26,2000                        P60S1              EQUALS
000230: 26,2000                        P60S2              EQUALS
000231: 26,2000                        P60S3              EQUALS
000232: 26,2000                        PLANTIN            EQUALS                                         #  LUNAR ROT
000233: 26,2000                        EPHEM              EQUALS
000234: 26,2000                        P05P06             EQUALS
000235: 26,2000                        26P50S             EQUALS
000236: 26,2000                                           BNKSUM   26
000237:
000238: 27,2000                                           BANK     27
000239: 27,2000                        TOF-FF             EQUALS
000240: 27,2000                        TOF-FF1            EQUALS
000241: 27,2000                        MANUVER            EQUALS
000242: 27,2000                        MANUVER1           EQUALS
000243:
000244:
000245: 27,2000                        VECPT              EQUALS
000246: 27,2000                        UPDATE1            EQUALS
000247: 27,2000                        UPDATE2            EQUALS
000248: 27,2000                        R22S1              EQUALS
000249: 27,2000                        P60S5              EQUALS
000250: 27,2000                        P40S2              EQUALS
000251: 27,2000                                           BNKSUM   27
000252:
000253:                                                                                                  #  MODULE 5 CONTAINS BANKS 30 THROUGH 35
000254:
000255: 30,2000                                           BANK     30
000256: 30,2000                        IMUSUPER           EQUALS
000257: 30,2000                        LOWSUPER           EQUALS
000258: 30,2000                        FCSTART            EQUALS                                         #  STANDARD LOCATION FOR THIS. (FOR EXTVB)
000259: 30,2000                        LOPC               EQUALS
000260: 30,2000                        P20S1              EQUALS
000261: 30,2000                        P20S6              EQUALS
000262: 30,2000                        P40S3              EQUALS
000263: 30,2000                        R35A               EQUALS
000264: 30,2000                                           BNKSUM   30
000265:
000266: 31,2000                                           BANK     31
000267: 31,2000                        R35                EQUALS
000268: 31,2000                        RT23               EQUALS
000269: 31,2000                        P30S1A             EQUALS
000270: 31,2000                        R34                EQUALS
000271: 31,2000                        CDHTAG2            EQUALS
000272: 31,2000                        CSIPROG9           EQUALS
000273: 31,2000                        R31                EQUALS
000274: 31,2000                        P22S               EQUALS
000275: 31,2000                        RTE3               EQUALS
000276: 31,2000                                           BNKSUM   31
000277:
000278: 32,2000                                           BANK     32
000279: 32,2000                        MSGSCAN1           EQUALS
000280: 32,2000                        RTE                EQUALS
000281: 32,2000                        DELRSPL1           EQUALS
000282: 32,2000                        IMUCAL3            EQUALS
000283: 32,2000                                           BNKSUM   32
000284:
000285: 33,2000                                           BANK     33
000286: 33,2000                        TESTLEAD           EQUALS
000287:
000288:
000289: 33,2000                        IMUCAL             EQUALS
000290: 33,2000                                           BNKSUM   33
000291:
000292: 34,2000                                           BANK     34
000293: 34,2000                        P11ONE             EQUALS
000294: 34,2000                        P20S3              EQUALS
000295: 34,2000                        P20S4              EQUALS
000296: 34,2000                        RTECON             EQUALS
000297: 34,2000                                           BNKSUM   34
000298:
000299: 35,2000                                           BANK     35
000300: 35,2000                        RTECON1            EQUALS
000301: 35,2000                        CSI/CDH            EQUALS
000302: 35,2000                        P30S1              EQUALS
000303: 35,2000                        P30S               EQUALS
000304: 35,2000                        P17S1              EQUALS
000305: 35,2000                        MEASINC3           EQUALS
000306: 35,2000                        INTINIT2           EQUALS
000307: 35,2000                                           BNKSUM   35
000308:
000309:                                                                                                  #  MODULE 6 CONTAINS BANKS 36 THROUGH 43
000310:
000311: 36,2000                                           BANK     36
000312: 36,2000                        MEASINC            EQUALS
000313: 36,2000                        MEASINC1           EQUALS
000314: 36,2000                        P17S               EQUALS
000315: 36,2000                        RTE1               EQUALS
000316: 36,2000                        S3435LOC           EQUALS
000317: 36,2000                                           BNKSUM   36
000318:
000319: 37,2000                                           BANK     37
000320: 37,2000                        P20S               EQUALS
000321: 37,2000                        BODYATT            EQUALS
000322: 37,2000                        RENDEZ             EQUALS
000323: 37,2000                        SERVICES           EQUALS
000324: 37,2000                        P11TWO             EQUALS
000325: 37,2000                        CDHTAG3            EQUALS
000326: 37,2000                                           BNKSUM   37
000327:
000328: 40,2000                                           BANK     40
000329: 40,2000                        PINSUPER           EQUALS
000330:
000331:
000332: 40,2000                        SELFSUPR           EQUALS
000333: 40,2000                        PINBALL1           EQUALS
000334: 40,2000                        R36CM1             EQUALS
000335: 40,2000                                           BNKSUM   40
000336:
000337: 41,2000                                           BANK     41
000338: 41,2000                        PINBALL2           EQUALS
000339: 41,2000                        R36LM              EQUALS
000340: 41,2000                                           BNKSUM   41
000341:
000342: 42,2000                                           BANK     42
000343: 42,2000                        SBAND              EQUALS
000344: 42,2000                        PINBALL3           EQUALS
000345: 42,2000                        EXTVBS             EQUALS
000346: 42,2000                        R36LM1             EQUALS
000347: 42,2000                                           BNKSUM   42
000348:
000349: 43,2000                                           BANK     43
000350: 43,2000                        SELFCHEC           EQUALS
000351: 43,2000                        EXTVERBS           EQUALS
000352: 43,2000                                           BNKSUM   43
000353:
000354: 43,2000  26,3333               HI6ZEROS           EQUALS   ZEROVECS                              #  ZERO VECTOR ALWAYS IN HIGH MEMORY
000355: 43,2000  04,3565               LO6ZEROS           EQUALS   ZEROVEC                               #  ZERO VECTOR ALWAYS IN LOW MEMORY
000356: 43,2000  26,3331               HIDPHALF           EQUALS   UNITX
000357: 43,2000  04,3563               LODPHALF           EQUALS   XUNIT
000358: 43,2000  26,3323               HIDP1/4            EQUALS   DP1/4TH
000359: 43,2000  04,3611               LODP1/4            EQUALS   D1/4                                  #  2DEC .25
000360: 43,2000  26,3331               HIUNITX            EQUALS   UNITX
000361: 43,2000  26,3327               HIUNITY            EQUALS   UNITY
000362: 43,2000  26,3325               HIUNITZ            EQUALS   UNITZ
000363: 43,2000  04,3563               LOUNITX            EQUALS   XUNIT                                 #  2DEC .5
000364: 43,2000  04,3561               LOUNITY            EQUALS   YUNIT                                 #  2DEC 0
000365: 43,2000  04,3557               LOUNITZ            EQUALS   ZUNIT                                 #  2DEC 0
000366: 43,2000  11,3745               3/4LOWDP           EQUALS   3/4                                   #  2DEC 3.0 B-2
000367:
000368: 43,2000  30,2000                                  SBANK=   LOWSUPER
000369:
000370:                                                                                                  #  ROPE SPECIFIC ASSIGNS OBVIATING NEED TO CHECK COMPUTER FLAG IN DETVRUZVING INTEGRATION AREA ENTRIES
000371:
000372: 43,2000  13,3114               OTHPREC            EQUALS   LEMPREC
000373: 43,2000  13,2767               ATOPOTH            EQUALS   ATOPLEM
000374: 43,2000  13,2714               ATOPTHIS           EQUALS   ATOPCSM
000375: 43,2000  0000173               MOONTHIS           EQUALS   CMOONFLG
000376:
000377:
000378: 43,2000  0000174               MOONOTH            EQUALS   LMOONFLG
000379: 43,2000  13,2727               MOVATHIS           EQUALS   MOVEACSM
000380: 43,2000  31,2032               STATEST            EQUALS   V83CALL                               #  * TEMPORARY
000381: 43,2000  13,3100               THISPREC           EQUALS   CSMPREC
000382: 43,2000  26,3331               THISAXIS           =        UNITX
000383: 43,2000     5070               ERASID             EQUALS   LOW10                                 #  DOWNLINK ERASABLE DUMP ID
000384: 43,2000     6214               DELAYNUM           EQUALS   THREE
000385:
000386:                                                                                                  # ****************************************************************************************************************
000387:
000388:                                                                                                  #  THE FOLLOWING ECADRS ARE DEFINED TO FACILITATE EBANK SWITCHING.  THEY ALSO MAKE IT EASIER FOR
000389:                                                                                                  #  ERASABLE CONTROL TO REARRANGE ERASABLE MEMORY WITHOUT DISRUPTING THE PROGRAMS WHICH SET EBANKS.
000390:                                                                                                  #  PRIOR TO ROPE RELEASE FIXED MEMORY CAN BE SAVED BY SETTING EACH EBXXXX =EBANKX (X=4,5,6,7).  EBANKX OF COURSE
000391:                                                                                                  #  WILL BE THE BANK WHERE THE ERASABLES REFERENCED IN EBXXXX WILL BE STORED.
000392:
000393: 07,2000                                           BANK     7
000394: 07,2000  E7,1674                                  EBANK=   MARKDOWN
000395: 07,2000           03674        EBMARKDO           ECADR    MARKDOWN
000396: 07,2001  E7,1725                                  EBANK=   MRKBUF1
000397: 07,2001           03725        EBMRKBUF           ECADR    MRKBUF1
000398:
000399: 24,2000                                           BANK     24
000400: 24,2000  E7,1431                                  EBANK=   DVCNTR
000401: 24,2000           03431        EBDVCNTR           ECADR    DVCNTR
000402: 24,2001  E7,1672                                  EBANK=   P40TMP
000403: 24,2001           03672        EBP40TMP           ECADR    P40TMP
000404:
000405: 34,2000                                           BANK     34
000406: 34,2000  E7,1431                                  EBANK=   DVCNTR
000407: 34,2000           03431        EBDVCNT            ECADR    DVCNTR
000408: 34,2001  E5,1426                                  EBANK=   QPLACES
000409: 34,2001           02426        EBQPLACE           ECADR    QPLACES
000410:
000411: 37,2000                                           BANK     37
000412: 37,2000     1231                                  EBANK=   RN1
000413: 37,2000           01231        EBRN1              ECADR    RN1
000414:
000415:                                                                                                  # ****************************************************************************************************************

End of include-file TAGS_FOR_RELATIVE_SETLOC_AND_BLANK_BANK_CARDS.agc.  Parent file is MAIN.agc


