
Source Code


000002:                                                                                                  ## Copyright:   Public domain.
000003:                                                                                                  ## Filename:    TVCRESTARTS.agc
000004:                                                                                                  ## Purpose:     A section of Comanche revision 072.
000005:                                                                                                  ##              It is part of the reconstructed source code for the first
000006:                                                                                                  ##              release of the software for the Command Module's (CM) Apollo
000007:                                                                                                  ##              Guidance Computer (AGC) for Apollo 13. No original listings
000008:                                                                                                  ##              of this program are available; instead, this file was recreated
000009:                                                                                                  ##              from a printout of Comanche 055, binary dumps of a set of
000010:                                                                                                  ##              Comanche 067 rope modules, and changelogs between Comanche 067
000011:                                                                                                  ##              and 072. It has been adapted such that the resulting bugger words
000012:                                                                                                  ##              exactly match those specified for Comanche 072 in NASA drawing
000013:                                                                                                  ##              2021153G, which gives relatively high confidence that the
000014:                                                                                                  ##              reconstruction is correct.
000015:                                                                                                  ## Assembler:   yaYUL
000016:                                                                                                  ## Contact:     Ron Burkey <info@sandroid.org>.
000017:                                                                                                  ## Website:     www.ibiblio.org/apollo/index.html
000018:                                                                                                  ## Mod history: 2024-05-13 MAS  Created from Comanche 067.
000019:
000020:                                                                                                  #  NAME....TVCRESTART PACKAGE, CONSISTING OF REDOTVC, ENABL1, 2, CMDSOUT, PHSCHK2, ETC.
000021:                                                                                                  #  LOG SECTION...TVCRESTARTS                     SUBROUTINE...DAPCSM
000022:                                                                                                  #  MODIFIED BY SCHLUNDT                          21 OCTOBER 1968
000023:
000024:                                                                                                  #  FUNCTIONAL DESCRIPTION....
000025:
000026:                                                                                                  #       *RESTART-PROOFS THE TVC DAPS, INCLUDING PITCHDAP, YAWDAP,
000027:                                                                                                  #        TVCEXECUTIVE, ROLLDAP, TVCINIT4, TVCDAPON, AND CSM/.M V46 SWTCHOVR.
000028:
000029:                                                                                                  #       *TVC RESTARTS DESERVE SPECIAL CONSIDERATION IN SEVERAL AREAS.
000030:                                                                                                  #        RESTART DOWN-TIME IS IMPORTANT BECAUSE OF THE TRANSIENTS INTRODUCED
000031:                                                                                                  #        BY THE THRUST VECTOR RETURN TO THE ACTUATOR MECHANICAL NULLS
000032:                                                                                                  #        FOLLOWING TVC- AND OPTICS-ERROR-COUNTER-DISENABLES (CHANNEL 12).
000033:                                                                                                  #        TVC USES A MIXTURE OF WAITLIST, T5, T6, AND JOB CALLS.  THERE IS
000034:                                                                                                  #        FILTER MEMORY (UP TO 6TH ORDER) TO BE PROTECTED IF WILD TRANSIENTS
000035:                                                                                                  #        ARE TO BE AVOIDED.  COUNTERS ARE INVOLVED FOR ONE-SHOT
000036:                                                                                                  #        CORRECTIONS AND GAIN UPDATES.  THE GIMBAL TRIM ESTIMATORS AND THE
000037:                                                                                                  #        BODY AXIS ATTITUDE ERROR INTEGRATORS INVOLVE DIGITAL SUMMATION.
000038:                                                                                                  #        DIGITAL DIFFERENTIATORS ARE INVOLVED IN THE BODY AXIS RATE ESTIMA-
000039:                                                                                                  #        TIONS AND IN THE OUTPUTTING OF ACTUATOR COMMANDS.  THERE IS AN
000040:                                                                                                  #        OFFSET-TRACKER-FILTER TO PROTECT.  ETC., ETC.
000041:
000042:                                                                                                  #       *THOSE QUANTITIES WHICH MUST BE PROTECTED ARE STORED IN TEMPORARY
000043:                                                                                                  #        REGISTERS AS THEY ARE COMPUTED, FOR UPDATING THE REAL REGISTERS
000044:                                                                                                  #        DURING COPYCYCLES.
000045:
000046:                                                                                                  #       *THE SEVERAL COPYCYCLES ARE EACH PROTECTED BY PHASE POINTS AT THEIR
000047:                                                                                                  #        BEGINNING AND AT THEIR TERMINATION.  THE PHASE POINTS ARE SIMPLY
000048:                                                                                                  #        ..INCR.. INSTRUCTIONS, EITHER ..INCR TVCEXPHS.. FOR COPYCYCLES
000049:                                                                                                  #        IN THE TVCEXECUTIVE, OR ..INCR TVCPHASE.. FOR THE PITCH AND YAW
000050:                                                                                                  #        COPYCYCLES.  INDEXING ON EACH OF THESE POINTERS THEN PERMITS A
000051:                                                                                                  #        RETURN TO THE APPROPRIATE RESTART POINTS.
000052:
000053:                                                                                                  #       *IF A RESTART OCCURS DURING EITHER COPYCYCLE, THAT COPYCYCLE IS
000054:                                                                                                  #        COMPLETED.  THEN THE NORMAL TVCINIT4....DAPINIT....PITCHDAP STARTUP
000055:                                                                                                  #        SEQUENCE IS CALLED UPON TO GET THINGS GOING AGAIN.
000056:
000057:                                                                                                  #       *TVC-ENABLE AND OPTICS-ERROR-COUNTER ENABLE MUST BE SET ASAP
000058:                                                                                                  #        (ALLOWING FOR PROCEDURAL DELAYS).  THEN THE ENGINES ARE COMMANDED
000059:                                                                                                  #        TO THE P,YACTOFF TRIM VALUES.  THE DAPS ARE THEN READY TO GO ON THE
000060:                                                                                                  #        AIR, WITH THE REGULAR STARTUP SEQUENCE, EITHER AT MRCLEAN FOR A
000061:                                                                                                  #        COMPLETE INITIALIZATION OR AT TVCINIT4 FOR A PARTIAL INITIALIZATION
000062:
000063:                                                                                                  #       *FOR RESTARTS PRIOR TO THE SETTING OF THE T5 BITS AT DOTVCON THE
000064:                                                                                                  #        PRE40.6 SECTION OF S40.6 TAKES CARE OF RE-ESTABLISHING TRIMS.
000065:
000066:                                                                                                  #       *IF A RESTART OCCURS DURING THE TVCEXEC....TVCEXFIN SEQUENCE THE
000067:                                                                                                  #        COMPUTATIONS WILL BE COMPLETED, STARTING AT THE APPROPRIATE RESTART
000068:                                                                                                  #        POINT, AFTER THE DAPS ARE READY TO GO ON THE AIR.
000069:
000070:                                                                                                  #       *IF A RESTART OCCURS PRIOR TO TVCINIT4 (TVCPHASE = -1) E.G. DURING
000071:                                                                                                  #        THE EARLY DAP INITIALIZATION PHASE, THE DAP STARTUP SEQUENCE IS
000072:                                                                                                  #        ENTERED AT MRCLEAN FOR A FULL INITIALIZATION.
000073:
000074:                                                                                                  #       *FOR RESTARTS DURING CSM/LM V46 SWITCH-OVER, TVCPHASE IS SET TO -2.
000075:                                                                                                  #        AND THE RESTART LOGIC GOES BACK TO REDO SWITCH-OVER (AFTER THE
000076:                                                                                                  #        NORMAL DAP RESTART SEQUENCE IS FOLLOWED).
000077:
000078:                                                                                                  #       *RESTARTS ARE NOT CRITICAL TO THE ROLL DAP PERFORMANCES HENCE THE
000079:                                                                                                  #        THE ROLL DAP IS MERELY RESTARTED.
000080:
000081:                                                                                                  #       *RESTARTS DURING A STROKE TEST (STROKER IS NON-ZERO) WILL CAUSE THE
000082:                                                                                                  #        STROKE TEST TO BE TERMINATED.  A NEW V68 ENTRY WILL BE REQUIRED
000083:                                                                                                  #        TO GET IT GOING AGAIN (NO AUTOMATIC RESTART).
000084:                                                                                                  #
000085:                                                                                                  #       *REDOTVC IS REACHED FOLLOWING ANY RESTART WHICH FINDS THE T5 BITS
000086:                                                                                                  #        (BITS 15,14 OF FLAGWRD6) SET FOR TVC.  DOTVCON SETS TVCPHASE = -1
000087:                                                                                                  #        AND TVC EXPHS = 0 JUST BEFORE SETTING THESE BITS, JUST BEFORE
000088:                                                                                                  #        MAKING THE T5 CALL TO TVCDAPON.  ON A NORMAL SHUTDOWN DOTVCRCS
000089:                                                                                                  #        CALLS RCSDAPON, WHICH RESETS THE T5 BITS FOR RCS.
000090:
000091:                                                                                                  #  CALLING SEQUENCE....T5, IN PARTICULAR BY ELRSKIP OF FRESH START/RESTART
000092:
000093:                                                                                                  #  NORMAL EXIT MODES....RESUME, NOQRSM, POSTJUMP (TO TVCINIT4 OR MRCLEAN)
000094:
000095:                                                                                                  #  ALARM OR ABORT EXIT MODES....NONE
000096:
000097:                                                                                                  #  SUBROUTINES CALLED....
000098:
000099:                                                                                                  #       *PCOPY+1, YCOPY+1 (PITCH AND YAW COPYCYCLES)
000100:                                                                                                  #       *ENABLE1,2, CMDSOUT (RE-ESTABLISH ACTUATOR TRIMS)
000101:                                                                                                  #       *MRCLEAN OR TVCINIT4 (TVCDAP INITIALIZATIONS)
000102:                                                                                                  #       *SWICHOVR +5 (CSM/LM V46 SWITCH-OVER)
000103:                                                                                                  #       *EXRSTRT AND TVCEXECUTIVE PHASE POINTS 1 THRU 6
000104:                                                                                                  #       *WAITLIST, IBNKCALL, POSTJUMP, ISWCALL
000105:
000106:                                                                                                  #  OTHER INTERFACES....DOTVCON AND RCSDAPON (T5 BITS), ELRSKIP (CALLS IT)
000107:
000108:                                                                                                  #  ERASABLE INITIALIZATION REQUIRED....
000109:
000110:                                                                                                  #       *T5 BITS (1,0), TVCPHASE (-2,-1,0,1,2,3), TVCEXPHS (1 THRU 6)
000111:                                                                                                  #       *TVC DAP VARIABLES
000112:                                                                                                  #       *OPERATIONS PERFORMED BY REDOTVC ARE BASED ON THE ASSUMPTION THAT
000113:                                                                                                  #        THE TVC DAPS ARE RUNNING NORMALLY
000114:
000115:                                                                                                  #  OUTPUT....
000116:
000117:                                                                                                  #       *PITCH AND YAW TVC DAP COPYCYCLES COMPLETED IF INTERUPTED
000118:                                                                                                  #       *TVCEXECUTIVE COMPLETED IF INTERUPTED
000119:                                                                                                  #       *STROKE TEST TERMINATED IF INTERRUPTED
000120:                                                                                                  #       *CSM/LM V46 SWITCH-OVER REPEATED IF INTERRUPTED
000121:                                                                                                  #       *ACTUATOR TRIMS RE-ESTABLISHED (ACTUATORS BACK ON THE AIR)
000122:                                                                                                  #       *TVC DAP INITIALIZATION AS REQUIRED
000123:                                                                                                  #       *ALL TVC DAP OPERATIONS ON THE AIR
000124:
000125:                                                                                                  #  DEBRIS....TVC TEMPORARIES IN EBANK6
000126:
000127:
000128: 16,3212                                           BANK     16
000129: 16,2000                                           SETLOC   DAPROLL
000130: 16,2000                                           BANK
000131: 16,3212  E6,1644                                  EBANK=   TVCPHASE
000132: 16,3212                                           COUNT*   $$/RSRT
000133:
000134: 16,3212           22016        REDOTVC            LXCH     BANKRUPT                              #  TVC RESTART PACKAGE
000135: 16,3213           00006                           EXTEND
000136: 16,3214           22012                           QXCH     QRUPT                                 #  (..TCR.. IN ..FINCOPY..)
000137:
000138: 16,3215           11653        EXECPHS            CCS      TVCEXPHS                              #  CHECK TVCEXECUTIVE PHASE
000139: 16,3216           13220                           TCF      +2                                    #        MUST RESTART TVCEXECUTIVE
000140: 16,3217           13224                           TCF      TVCDAPHS                              #        NO NEED TO RESTART TVCEXECUTIVE
000141:
000142: 16,3220           34334                           CAF      NINE                                  #  9CS DELAY TO FORCE EXRSTRT TO OCCUR
000143: 16,3221           05261                           TC       WAITLIST                              #        BEFORE PITCHDAP, AFTER CMDSOUT
000144: 16,3222  E6,1653                                  EBANK=   TVCEXPHS
000145: 16,3222           03325 34066                     2CADR    EXRSTRT
000146:
000147: 16,3224           47700        TVCDAPHS           CS       OCT37776                              #  CHECK BITS 15 AND 1 OF TVCPHASE TO SEE
000148: 16,3225           71644                           MASK     TVCPHASE                              #        DAP RESTART LOCATION (-1,1,2,3)
000149: 16,3226           10000                           CCS      A
000150: 16,3227           13312                           TCF      FINCOPY                               #        FINISH THE COPYCYCLE FIRST
000151: 16,3230           13235                           TCF      ENABL1                                #        JUST PREPARE THE OUTCOUNTERS AND GO
000152:
000153: 16,3231           41644                           CS       TVCPHASE                              #  TEST FOR TVCPHASE = -2
000154: 16,3232           75032                           MASK     BIT2                                  #        (THIS INDICATES RESTART OCCURRED
000155: 16,3233           00006                           EXTEND                                         #         DURING CSM/LM V46 SWITCH-OVER)
000156: 16,3234           13316                           BZF      TRIM/CMD                              #  NO, TVCPHASE = -1, RSTRT WAS IN TVCINIT
000157:
000158: 16,3235           35024        ENABL1             CAF      BIT8                                  #  TVC ENABLE, FOLLOWED BY 40 MS (MIN) WAIT
000159: 16,3236           65021                           AD       BIT11                                 #        SET BIT FOR OPTICS-DAC-ENABLE ALSO
000160: 16,3237           00006                           EXTEND                                         #        (ENABL1 ENTERED FROM TVCDAPHS / FINCOPY)
000161: 16,3240           05012                           WOR      CHAN12
000162: 16,3241           33331                           CAF      TVCADDR                               #  WAIT, CALLING ENABL2 (BBCON THERE)
000163: 16,3242           55312                           TS       T5LOC
000164: 16,3243           33335                           CAF      TVCADDR    +4                         #        60 MS (TVCEXADR)
000165: 16,3244           54030                           TS       TIME5
000166:
000167: 16,3245           15347                           TCF      RESUME
000168:
000169: 16,3246           22016        ENABL2             LXCH     BANKRUPT                              #  CONTINUE PREPARATION OF OUTCOUNTERS
000170:
000171: 16,3247           35032                           CAF      BIT2                                  #  OPTICS ERROR CNTR ENABLE, 4MS MIN WAIT
000172: 16,3250           00006                           EXTEND
000173: 16,3251           05012                           WOR      CHAN12
000174: 16,3252           33333                           CAF      TVCADDR    +2                         #  WAIT, CALLING CMDSOUT (BBCON THERE)
000175: 16,3253           55312                           TS       T5LOC
000176: 16,3254           37700                           CAF      OCT37776                              #        20MS
000177: 16,3255           54030                           TS       TIME5
000178:
000179: 16,3256           15351                           TCF      NOQRSM
000180:
000181: 16,3257           22016        CMDSOUT            LXCH     BANKRUPT                              #  CONTINUE PREPARATION OF OUTCOUNTERS
000182: 16,3260           00006                           EXTEND
000183: 16,3261           22012                           QXCH     QRUPT
000184:
000185: 16,3262           45035                           CS       ZERO                                  #  MOST RECENT ACTUATOR COMMANDS
000186: 16,3263           61623                           AD       PCMD                                  #        (AVOID +0)
000187: 16,3264           54054                           TS       TVCPITCH
000188: 16,3265           45035                           CS       ZERO
000189: 16,3266           61624                           AD       YCMD
000190: 16,3267           54053                           TS       TVCYAW
000191:
000192: 16,3270           35076                           CAF      PRIO6                                 #  RELEASE THE COUNTERS (BITS 11,12)
000193: 16,3271           00006                           EXTEND
000194: 16,3272           05014                           WOR      CHAN14
000195:
000196: 16,3273           11644        PHSCHK2            CCS      TVCPHASE                              #  CHECK TVCPHASE AGAIN
000197: 16,3274           13304                           TCF      CHKSTRK
000198: 16,3275           13304                           TCF      CHKSTRK
000199: 16,3276           10000                           CCS      A                                     #  A CONTAINS THE DIMINISHED ABSOLUTE OF
000200: 16,3277           03302                           TC       +3                                    #  TVCPHASE (-2 BECOMES +1. -1 BECOMES +0)
000201:
000202: 16,3300           04715                           TC       POSTJUMP                              #        REPEAT TVC INITIALIZATION
000203: 16,3301           36210                           CADR     MRCLEAN                               #        (DO NOT RETURN)
000204:
000205: 16,3302           04754                 +3        TC       IBNKCALL                              #        REPEAT CSM/LM V46 SWITCH-OVER
000206: 16,3303           36417                           CADR     SWICHOVR   +5                         #        (RETURN TO CHECK FOR STROKE TEST)
000207:
000208: 16,3304           11574        CHKSTRK            CCS      STROKER                               #  CHECK FOR STROKE TEST IN PROGRESS
000209: 16,3305           13322                           TCF      TSTINITJ                              #  YES, KILL IT
000210: 16,3306           13310                           TCF      +2                                    #  NO, PROCEED
000211: 16,3307           13322                           TCF      TSTINITJ                              #  YES, KILL IT
000212:
000213: 16,3310           04715                 +4        TC       POSTJUMP                              #        IF POSITIVE OR ZERO, RESTART AT
000214: 16,3311           36362                           CADR     TVCINIT4                              #                TVCINIT4 (ZEROS TVCPHASE, AND
000215:                                                                                                  #                CALLS TVC DAPS VIA DAPINIT)
000216: 16,3312           51644        FINCOPY            INDEX    TVCPHASE                              #  PICK UP THE APPROPRIATE COPYCYCLE
000217: 16,3313           33331                           CAF      TVCCADR
000218: 16,3314           04760                           TCR      ISWCALL                               #  RE-ENTER THE COPYCYCLE, RETURN AT END
000219: 16,3315           13235                           TCF      ENABL1                                #  NOW PREPARE THE OUTCOUNTERS
000220:
000221: 16,3316           00006        TRIM/CMD           EXTEND                                         #  TVCDAPON INITIALIZATION NOT COMPLETED,
000222: 16,3317           31424                           DCA      PACTOFF                               #        EG. P,YCMD MAY NOT BE SET.  SET...
000223: 16,3320           53624                           DXCH     PCMD
000224: 16,3321           13235                           TCF      ENABL1                                #  NOW PREPARE THE OUTCOUNTERS
000225:
000226: 16,3322           35035        TSTINITJ           CAF      ZERO                                  #  DISABLE STROKE TEST (-0 SHOWS PRIOR V68)
000227: 16,3323           55574                           TS       STROKER                               #  (+0 MEANS NEW V68 REQUIRED FOR STARTUP)
000228:
000229: 16,3324           13310                           TCF      CHKSTRK    +4
000230:
000231: 16,3325           51653        EXRSTRT            INDEX    TVCEXPHS                              #  TVCEXECUTIVE RESTARTS....GO TO
000232: 16,3326           33335                           CAF      TVCEXADR                              #        APPROPRIATE RESTART POINT
000233: 16,3327           50000                           INDEX    A
000234: 16,3330           10000                           TCF      0
000235:
000236:                                                                                                  #  TVC RESTART TABLES.... ORDER IS REQUIRED.  HI-ORDER WORDS ONLY, OF 2CADRS, SINCE BBCON IS ALREADY THERE.
000237:
000238: 16,3331  16,3331               TVCADDR            =        TVCCADR                               #  TABLE OF CADRS, UNUSED LOCS FOR GENADRS
000239: 16,3331           03246        TVCCADR            GENADR   ENABL2                                #  (FOR T5 CALL, UNUSED TABLE LOC)
000240: 16,3332           40714                 +1        CADR     PCOPY      +1                         #  PITCH COPYCYCLE
000241: 16,3333           03257                 +2        GENADR   CMDSOUT                               #  (FOR T5 CALL, UNUSED TABLE LOC)
000242: 16,3334           41104                 +3        CADR     YCOPY      +1                         #  YAW COPYCYCLE
000243: 16,3335           37772        TVCEXADR           OCT      37772                                 #  (UNUSED TABLE LOC, FILL WITH 60MS, T5)
000244: 16,3336           03055                 +1        GENADR   EXECCOPY   +1                         #  TVCEXECUTIVE RESTART POINTS (ORDERED)
000245: 16,3337           03063                 +2        GENADR   1SHOTCHK
000246: 16,3340           03112                 +3        GENADR   TEMPSET
000247: 16,3341           03115                 +4        GENADR   CORSETUP
000248: 16,3342           03173                 +5        GENADR   CORCOPY    +1
000249: 16,3343           03204                 +6        GENADR   CNTRCOPY

End of include-file TVCRESTARTS.agc.  Parent file is MAIN.agc


