
Source Code


000002:                                                                                                  ## Copyright:   Public domain.
000003:                                                                                                  ## Filename:    TVCSTROKETEST.agc
000004:                                                                                                  ## Purpose:     A section of Comanche revision 072.
000005:                                                                                                  ##              It is part of the reconstructed source code for the first
000006:                                                                                                  ##              release of the software for the Command Module's (CM) Apollo
000007:                                                                                                  ##              Guidance Computer (AGC) for Apollo 13. No original listings
000008:                                                                                                  ##              of this program are available; instead, this file was recreated
000009:                                                                                                  ##              from a printout of Comanche 055, binary dumps of a set of
000010:                                                                                                  ##              Comanche 067 rope modules, and changelogs between Comanche 067
000011:                                                                                                  ##              and 072. It has been adapted such that the resulting bugger words
000012:                                                                                                  ##              exactly match those specified for Comanche 072 in NASA drawing
000013:                                                                                                  ##              2021153G, which gives relatively high confidence that the
000014:                                                                                                  ##              reconstruction is correct.
000015:                                                                                                  ## Assembler:   yaYUL
000016:                                                                                                  ## Contact:     Ron Burkey <info@sandroid.org>.
000017:                                                                                                  ## Website:     www.ibiblio.org/apollo/index.html
000018:                                                                                                  ## Mod history: 2024-05-13 MAS  Created from Comanche 067.
000019:
000020:                                                                                                  #  NAME          STROKE TEST PACKAGE             (INCLUDING INITIALIZATION PACKAGE)
000021:                                                                                                  #  LOG SECTION...TVCSTROKETEST                   SUBROUTINE...DAPCSM
000022:                                                                                                  #  MODIFIED BY SCHLUNDT                          21 OCTOBER 1968
000023:
000024:                                                                                                  #  FUNCTIONAL DESCRIPTION....
000025:                                                                                                  #        STROKE TEST PACKAGE GENERATES A WAVEFORM DESIGNED TO EXCITE BENDING
000026:                                                                                                  #        STRKTSTI (STROKE TEST INITIALIZATION) IS CALLED AS A JOB BY VB68.
000027:                                                                                                  #                IT INITIALIZES ALL ERASABLES REQD FOR A STROKE TEST, AND
000028:                                                                                                  #                THEN TESTS FOR CSM/LM (BIT 13 OF DAPDATR1). IF CSM/LM,
000029:                                                                                                  #                IN EITHER HIGH OR LOW-BANDWIDTH MODE, THE TEST IS STARTED
000030:                                                                                                  #                IMMEDIATELY.  IF NOT CSM/LM, PROGRAM EXITS WITH NO ACTION.
000031:                                                                                                  #        HACK (STROKE TEST) GENERATES THE WAVEFORM BY DUMPING PULSE BURSTS
000032:                                                                                                  #                OF PROPER SIGN AND IN PROPER SEQUENCE DIRECTLY INTO
000033:                                                                                                  #                TVCPITCH, WORKING IN CONJUNCITON WITH BOTH PITCH AND YAW
000034:                                                                                                  #                TVC DAPS, WITH INTERMEDIATE WAITLIST CALLS.  NOTE, HOWEVER
000035:                                                                                                  #                THAT THE STROKE TEST IS PERFORMED ONLY IN THE PITCH AXIS.
000036:                                                                                                  #                AN EXAMPLE WAVEFORM IS GIVEN BELOW, TO DEMONSTRATE STROKE-
000037:                                                                                                  #                TEST PARAMETER SELECTION
000038:                                                                                                  #        RESTARTS CAUSE TEST TO BE TERMINATED.  ANOTHER V68 REQD IF TEST
000039:                                                                                                  #                IS TO BE RE-RUN.
000040:                                                                                                  #        PULSE BURST SIZE IS PAD-LOADED (ESTROKER) SO THAT AMPLITUDE OF
000041:                                                                                                  #                WAVEFORM CAN BE CHANGED.  THERE ARE TEN PULSE BURSTS IN
000042:                                                                                                  #                THE HALF-AMPLITUDE OF THE FIRST FREQUENCY SET IN THE
000043:                                                                                                  #                STANDARD WAVEFORM.  AMPLITUDE IS 10(ESTROKER)(1/42.15),
000044:                                                                                                  #                NOMINALLY 50/42.15 = 1.185 DEG
000045:
000046:                                                                                                  #  CALLING SEQUENCE....
000047:                                                                                                  #        EXTENDED VERB 68 SETS UP STRKTSTI JOB
000048:                                                                                                  #        PITCH AND YAW TVCDAPS, FINDING STROKER NON-ZERO, DO A ..TC HACK..
000049:                                                                                                  #        AN INTERNALLY-GENERATED WAITLIST CALL ENTERS AT ..HACKWLST..
000050:
000051:                                                                                                  #  NORMAL EXIT MODES....
000052:                                                                                                  #        TC BUNKER (..Q.. IF ENTRY FROM DAP, ..TCTSKOVR.. IF FROM WAITLIST) LIST
000053:
000054:                                                                                                  #  SUBROUTINES CALLED....
000055:                                                                                                  #        WAITLIST
000056:
000057:                                                                                                  #  ALARM OR ABORT EXIT MODES....
000058:                                                                                                  #        NONE
000059:
000060:                                                                                                  #  ERASABLE INITIALIZATION REQUIRED....
000061:                                                                                                  #        ESTROKER (PAD-LOAD)
000062:                                                                                                  #        STROKER, CADDY, REVS, CARD, N
000063:
000064:                                                                                                  #  OUTPUT....
000065:                                                                                                  #        STRKTSTI...INITIALIZATION FOR STROKE TEST
000066:                                                                                                  #        HACK, HACKWLST...PULSE BURSTS INTO TVCPITCH VIA ..ADS..
000067:                                                                                                  #                          RESETS STROKER = +0 WHEN TEST COMPLETED
000068:
000069:                                                                                                  #  DEBRIS....
000070:                                                                                                  #        N = CADDY = +0, CARD = -0, REVS = -1
000071:                                                                                                  #        BUNKER
000072:
000073:                                                                                                  #  EXAMPLE STROKE TEST WAVE FORM, DEMONSTRATING PARAMETER SELECTION
000074:
000075:                                                                                                  #  NOTE....THIS IS NOT THE OFFICIAL WAVEFORM....
000076:
000077:                                                                                                  #         **              **
000078:                                                                                                  #         **              **
000079:                                                                                                  #         **              **             EXAMPLE WAVEFORM (EACH * REPRESENTS
000080:                                                                                                  #        *  *            *  *                 85.41 ARCSEC OF ACTUATOR CMND)
000081:                                                                                                  #        *  *            *  *
000082:                                                                                                  #        *  *            *  *
000083:                                                                                                  #       *    *          *    *          **      **      **      **      **
000084:                                                                                                  #       *    *          *    *          **      **      **      **      **
000085:                                                                                                  #       *    *          *    *          **      **      **      **      **
000086:                                                                                                  #      *      *        *      *        *  *    *  *    *  *    *  *    *  *    **  **  **  **  **
000087:                                                                                                  #      *      *        *      *        *  *    *  *    *  *    *  *    *  *    **  **  **  **  **
000088:                                                                                                  #      *      *        *      *        *  *    *  *    *  *    *  *    *  *    **  **  **  **  **
000089:                                                                                                  #  -----------------------------------------------------------------------------------------------------
000090:                                                                                                  #              *      *        *      *    *  *    *  *    *  *    *  *    *  *  **  **  **  **  **
000091:                                                                                                  #              *      *        *      *    *  *    *  *    *  *    *  *    *  *  **  **  **  **  **
000092:                                                                                                  #              *      *        *      *    *  *    *  *    *  *    *  *    *  *  **  **  **  **  **
000093:                                                                                                  #               *    *          *    *      **      **      **      **      **
000094:                                                                                                  #               *    *          *    *      **      **      **      **      **
000095:                                                                                                  #               *    *          *    *      **      **      **      **      **
000096:                                                                                                  #                *  *            *  *
000097:                                                                                                  #                *  *            *  *
000098:                                                                                                  #                *  *            *  *
000099:                                                                                                  #                 **              **
000100:                                                                                                  #                 **              **
000101:                                                                                                  #                 **              **
000102:
000103:                                                                                                  #  FOR THIS (UNOFFICIAL, EXAMPLE) WAVEFORM, THE REQUIRED PARAMETERS ARE AS FOLLOWS....
000104:
000105:                                                                                                  #        FCARD    = +3           (NUMBER OF SETS)
000106:                                                                                                  #        ESTROKER = +3           (PULSE BURST SIZE, SC.AT 85.41 ARCSEC/BIT)
000107:
000108:                                                                                                  #        SET1..
000109:                                                                                                  #                FREVS   = +3    (NUMBER REVERSALS MINUS 1)
000110:                                                                                                  #                FCADDY  = +4    (NUMBER OF PULSE BURSTS IN 1/2 AMPLITUDE)
000111:                                                                                                  #        SET2..
000112:                                                                                                  #                FCARD1  = +9    (NUMBER REVERSALS MINUS 1)
000113:                                                                                                  #                FCARD4  = +2    (NUMBER OF PULSE BURSTS IN 1/2 AMPLITUDE)
000114:                                                                                                  #        SET3..
000115:                                                                                                  #                FCARD2  = +9    (NUMBER REVERSALS MINUS 1)
000116:                                                                                                  #                FCARD5  = +1    (NUMBER OF PULSE BURSTS IN 1/2 AMPLITUDE)
000117:                                                                                                  #        SET4..
000118:                                                                                                  #                FCARD3  = +0    (NUMBER REVERSALS MINUS 1)
000119:                                                                                                  #                FCARD6  = +0    (NUMBER OF PULSE BURSTS IN 1/2 AMPLITUDE)
000120:
000121:                                                                                                  #  STROKE TEST INITIALIZATION PACKAGE (AS A JOB, FROM VERB 68)
000122:
000123: 17,2610                                           BANK     17
000124: 20,2000                                           SETLOC   DAPS2
000125: 20,2000                                           BANK
000126:
000127: 20,3537                                           COUNT*   $$/STRK
000128: 20,3537  E6,1657                                  EBANK=   CADDY
000129:
000130: 20,3537           03550        STRKTSTI           TCR      TSTINIT                               #  STROKE TEST INITIALIZATION PKG (CALLED
000131:                                                                                                  #  AS A JOB BY VERB68)
000132:
000133: 20,3540           00004        STRKCHK            INHINT
000134:
000135: 20,3541           31466                           CAE      DAPDATR1                              #  CHECK FOR CSM/LM CONFIGURATION
000136: 20,3542           75016                           MASK     BIT14
000137: 20,3543           00006                           EXTEND
000138: 20,3544           13547                           BZF      +3
000139:
000140: 20,3545           31413                           CAE      ESTROKER                              #  BEGIN ON NEXT DAP PASS (PITCH OR YAW)
000141: 20,3546           55574                           TS       STROKER                               #  (STROKING DONE IN PITCH ONLY, HOWEVER)
000142:
000143: 20,3547           15233                           TCF      ENDOFJOB
000144:
000145: 20,3550           43560        TSTINIT            CS       FCADDY                                #  NORMAL ENTRY FROM STRKTSTI
000146: 20,3551           55657                           TS       CADDY
000147: 20,3552           55660                           TS       N                                     #        NOTE SGN CHNG FCADDY(+) TO CADDY(-)
000148:
000149: 20,3553           33561                           CAF      FREVS
000150: 20,3554           55662                           TS       REVS
000151:
000152: 20,3555           43562                           CS       FCARD                                 #        NOTE SGN CHNG FCARD(+) TO CARD(-)
000153: 20,3556           55663                           TS       CARD
000154:
000155: 20,3557           00002                           TC       Q                                     #  RETURN TO STRKTSTI+1 (OR CHKSTRK+2 OR +4)
000156:
000157:                                                                                                  #  THE OFFICIAL STROKE TEST WAVEFORM (3 JAN, 1967) CONSISTS OF FOUR STROKE SETS, AS FOLLOWS....
000158:
000159:                                                                                                  #        SET 1...10 BURSTS IN 1/2 AMP,   4 REVERSALS
000160:                                                                                                  #        SET 2... 6 BURSTS IN 1/2 AMP,   6 REVERSALS
000161:                                                                                                  #        SET 3... 5 BURSTS IN 1/2 AMP,  10 REVERSALS
000162:                                                                                                  #        SET 4... 4 BURSTS IN 1/2 AMP,  14 REVERSALS
000163:
000164:                                                                                                  #  THE PULSE BURST SIZE (ESTROKER) IS PAD-LOADED (5 BITS AS OF 3 JAN, 1967)
000165:                                                                                                  #  THE REMAINING WAVEFORM-GENERATING PARAMETERS ARE AS FOLLOWS....
000166:
000167: 20,3560           00012        FCADDY             DEC      10         B-14                       #  NO. PULSE BURSTS IN 1/2 AMP, SET1..(+10)
000168: 20,3561           00003        FREVS              DEC      3          B-14                       #  NO. REVERSALS MINUS 1, SET1........(  3)
000169:
000170: 20,3562           00004        FCARD              DEC      4          B-14                       #  NO. STROKE SETS....................(+ 4)
000171:
000172: 20,3563           00005        FCARD1             DEC      5          B-14                       #  NO. REVERSALS MINUS 1, SET2........(  5)
000173:
000174: 20,3564           00011        FCARD2             DEC      9          B-14                       #                            3........(  9)
000175: 20,3565           00015        FCARD3             DEC      13         B-14                       #                            4........( 13)
000176:
000177: 20,3566           00006        FCARD4             DEC      6          B-14                       #  NO. PULSE BURSTS IN 1/2 AMP, SET2..(+ 6)
000178: 20,3567           00005        FCARD5             DEC      5          B-14                       #                               SET3..(+ 5)
000179: 20,3570           00004        FCARD6             DEC      4          B-14                       #                               SET4..(+ 4)
000180:
000181: 20,3571     5032               20MS               =        BIT2
000182:
000183:                                                                                                  #  STROKE TEST PACKAGE PROPER....
000184:
000185: 20,3571  E6,1661                                  EBANK=   BUNKER
000186:
000187: 20,3571           00006        HACK               EXTEND                                         #  ENTRY (IN T5 RUPT) FROM TVCDAPS
000188: 20,3572           23661                           QXCH     BUNKER                                #  SAVE Q FOR DAP RETURN
000189:
000190: 20,3573           35032                           CAF      20MS                                  #  2DAPSX2(PASSES/DAP)X2(CS/PASS)=8CS=TVCDT
000191: 20,3574           05261                           TC       WAITLIST
000192: 20,3575  E6,1661                                  EBANK=   BUNKER
000193: 20,3575           03600 40066                     2CADR    HACKWLST
000194:
000195: 20,3577           13602                           TCF      +3
000196:
000197: 20,3600           34367        HACKWLST           CAF      TCTSKOVR                              #  ENTRY FROM WAITLIST
000198: 20,3601           55661                           TS       BUNKER                                #  BUNKER IS TC TASKOVER
000199:
000200: 20,3602           31574                           CA       STROKER                               #  STROKE
000201: 20,3603           26054                           ADS      TVCPITCH
000202:
000203: 20,3604           35021                           CAF      BIT11                                 #  RELEASE THE ERROR COUNTERS
000204: 20,3605           00006                           EXTEND
000205: 20,3606           05014                           WOR      CHAN14
000206: 20,3607           25657                           INCR     CADDY                                 #  COUNT DOWN THE NO. BURSTS, THIS SLOPE
000207: 20,3610           41657                           CS       CADDY
000208: 20,3611           00006                           EXTEND
000209: 20,3612           63614                           BZMF     +2
000210: 20,3613           01661                           TC       BUNKER                                #  EXIT, WHILE ON A SLOPE
000211:
000212: 20,3614           11662                           CCS      REVS
000213: 20,3615           13635                           TCF      REVUP                                 #  POSITIVE REVS
000214: 20,3616           13641                           TCF      REVUP      +4                         #  FINAL REVERSAL, THIS SET
000215:
000216: 20,3617           25663                           INCR     CARD                                  #  NEGATIVE REVS SET LAST PASS, READY FOR
000217: 20,3620           41663                           CS       CARD                                  #        THE NEXT SET.  CHECK IF NO MORE SETS
000218: 20,3621           00006                           EXTEND
000219: 20,3622           13633                           BZF      STROKILL                              #  ALL SETS COMPLETED
000220:
000221: 20,3623           51663                           INDEX    CARD
000222: 20,3624           33566                           CAF      FCARD      +4                         #  PICK UP NO. REVERSALS (-), NEXT SET
000223: 20,3625           55662                           TS       REVS                                  #  REINITIALIZE
000224: 20,3626           51663                           INDEX    CARD
000225: 20,3627           43571                           CS       FCARD      +7                         #  PICK UP NO. BURSTS IN 1/2AMP, NEXT SET
000226: 20,3630           55660                           TS       N                                     #  REINITIALIZE
000227: 20,3631           55657                           TS       CADDY
000228: 20,3632           01661                           TC       BUNKER                                #  EXIT, AT END OF SET
000229:
000230: 20,3633           55574        STROKILL           TS       STROKER                               #  RESET (TO +0) TO END TEST
000231: 20,3634           01661                           TC       BUNKER                                #  EXIT, STROKE TEST FINIS
000232:
000233: 20,3635           55662        REVUP              TS       REVS                                  #  ALL REVERSALS EXCEPT LAST OF SET
000234: 20,3636           31660                           CA       N
000235: 20,3637           60000                           DOUBLE                                         #  2 X 1/2AMP
000236: 20,3640           13644                           TCF      +4
000237:
000238: 20,3641           45033                 +4        CS       ONE                                   #  FINAL REVERSAL, THIS SET
000239: 20,3642           55662                           TS       REVS                                  #  PREPARE TO BRANCH TO NEW BURST
000240: 20,3643           31660                           CA       N                                     #  JUST RETURN TO ZERO, FINAL SLOPE OF SET
000241: 20,3644           55657                           TS       CADDY                                 #  CADUP
000242:
000243: 20,3645           41574                           CS       STROKER                               #  CHANGE SIGN OF SLOPE
000244: 20,3646           55574                           TS       STROKER
000245: 20,3647           01661                           TC       BUNKER                                #  EXIT AT A REVERSAL (SLOPE CHANGE)
000246:

End of include-file TVCSTROKETEST.agc.  Parent file is MAIN.agc


