
Source Code


000002:                                                                                                  ## Copyright:   Public domain.
000003:                                                                                                  ## Filename:    WAITLIST.agc
000004:                                                                                                  ## Purpose:     A section of Comanche revision 072.
000005:                                                                                                  ##              It is part of the reconstructed source code for the first
000006:                                                                                                  ##              release of the software for the Command Module's (CM) Apollo
000007:                                                                                                  ##              Guidance Computer (AGC) for Apollo 13. No original listings
000008:                                                                                                  ##              of this program are available; instead, this file was recreated
000009:                                                                                                  ##              from a printout of Comanche 055, binary dumps of a set of
000010:                                                                                                  ##              Comanche 067 rope modules, and changelogs between Comanche 067
000011:                                                                                                  ##              and 072. It has been adapted such that the resulting bugger words
000012:                                                                                                  ##              exactly match those specified for Comanche 072 in NASA drawing
000013:                                                                                                  ##              2021153G, which gives relatively high confidence that the
000014:                                                                                                  ##              reconstruction is correct.
000015:                                                                                                  ## Assembler:   yaYUL
000016:                                                                                                  ## Contact:     Ron Burkey <info@sandroid.org>.
000017:                                                                                                  ## Website:     www.ibiblio.org/apollo/index.html
000018:                                                                                                  ## Mod history: 2024-05-13 MAS  Created from Comanche 067.
000019:
000020:                                                                                                  #  PROGRAM DESCRIPTION                                           DATE - 10 OCTOBER 1966
000021:                                                                                                  #  MOD NO - 2                                                    LOG SECTION - WAITLIST
000022:                                                                                                  #  MOD BY - MILLER       (DTMAX INCREASED TO 162.5 SEC)          ASSEMBLY SUNBURST REV 5
000023:                                                                                                  #  MOD 3 BY KERNAN       (INHINT INSERTED AT WAITLIST) 2/28/68 SKIPPER REV 4
000024:                                                                                                  #  MOD 4 BY KERNAN       (TWIDDLE IN 54) 3/28/68 SKIPPER REV 13.
000025:
000026:                                                                                                  #  FUNCTIONAL DESCRIPTION -
000027:                                                                                                  #        PART OF A SECTION OF PROGRAMS,- WAITLIST, TASKOVER, T3RUPT, USED TO CALL A PROGRAM, (CALLED A TASK),
000028:                                                                                                  #        WHICH IS TO BEGIN IN C(A) CENTISECONDS.  WAITLIST UPDATES TIME3, LST1 AND LST2.  THE MEANING OF THESE LISTS
000029:                                                                                                  #        FOLLOW.
000030:
000031:                                                                                                  #                C(TIME3) = 16384 -(T1-T) CENTISECONDS, (T=PRESENT TIME, T1-TIME FOR TASK1)
000032:
000033:                                                                                                  #                        C(LST1)         =       -(T2-T1)+1
000034:                                                                                                  #                        C(LST1 +1)      =       -(T3-T2)+1
000035:                                                                                                  #                        C(LST1 +2)      =       -(T4-T3)+1
000036:                                                                                                  #                                        .
000037:                                                                                                  #                                        .
000038:                                                                                                  #                        C(LST1 +6)      =       -(T8-T7)+1
000039:                                                                                                  #                        C(LST1 +7)      =       -(T9-T8)+1
000040:
000041:                                                                                                  #                        C(LST2)         =       2CADR OF TASK1
000042:                                                                                                  #                        C(LST2 +2)      =       2CADR OF TASK2
000043:                                                                                                  #                                        .
000044:                                                                                                  #                                        .
000045:                                                                                                  #                        C(LST2 +14)     =       2CADR OF TASK8
000046:                                                                                                  #                        C(LST2 +16)     =       2CADR OF TASK9
000047:
000048:                                                                                                  #  WARNINGS-
000049:                                                                                                  #  --------
000050:                                                                                                  #        1)      1 <= C(A) <= 16250D (1 CENTISECOND TO 162.5 SEC)
000051:                                                                                                  #        2)      9 TASKS MAXIMUM
000052:                                                                                                  #        3)      TASKS CALLED UNDER INTERRUPT INHIBITED
000053:                                                                                                  #        4)      TASKS END BY TC TASKOVER
000054:
000055:                                                                                                  #  CALLING SEQUENCE -
000056:                                                                                                  #        L-1     CA      DELTAT  (TIME IN CENTISECONDS TO TASK START)
000057:                                                                                                  #        L       TC      WAITLIST
000058:                                                                                                  #        L+1     2CADR   DESIRED TASK
000059:                                                                                                  #        L+2     (MINOR OF 2CADR)
000060:                                                                                                  #        L+3     RELINT          (RETURNS HERE)
000061:
000062:                                                                                                  #  TWIDDLE-
000063:                                                                                                  #  -------
000064:                                                                                                  #        TWIDDLE IS FOR USE WHEN THE TASK BEING SET UP IS IN THE SAME EBANK AND FBANK AS THE USER.  IN
000065:                                                                                                  #        SUCH CASES, IT IMPROVES UPON WAITLIST BY ELIMINATING THE NEED FOR THE BBCON HALF OF THE 2CADR,
000066:                                                                                                  #        SAVING A WORD.  TWIDDLE IS LIKE WAITLIST IN EVERY RESPECT EXCEPT CALLING SEQUENCE, TO WIT-
000067:                                                                                                  #                L-1     CA      DELTAT
000068:                                                                                                  #                L       TC      TWIDDLE
000069:                                                                                                  #                L+1     ADRES   DESIRED TASK
000070:                                                                                                  #                L+2     RELINT          (RETURNS HERE)
000071:
000072:                                                                                                  #  NORMAL EXIT MODES -
000073:                                                                                                  #        AT L+3 OF CALLING SEQUENCE
000074:
000075:                                                                                                  #  ALARM OR ABORT EXIT MODES -
000076:                                                                                                  #        TC      ABORT
000077:                                                                                                  #        OCT     1203    (WAITLIST OVERFLOW - TOO MANY TASKS)
000078:
000079:                                                                                                  #  ERASABLE INITIALIZATION REQUIRED -
000080:                                                                                                  #        ACCOMPLISHED BY FRESH START,--  LST2, ..., LST2 +16 = ENDTASK
000081:                                                                                                  #                                        LST1, ..., LST1 +7  = NEG1/2
000082:
000083:                                                                                                  #  OUTPUT --
000084:                                                                                                  #        LST1 AND LST2 UPDATED WITH NEW TASK AND ASSOCIATED TIME.
000085:
000086:                                                                                                  #  DEBRIS -
000087:                                                                                                  #        CENTRALS - A,Q,L
000088:                                                                                                  #        OTHER    - WAITEXIT, WAITADR, WAITTEMP, WAITBANK
000089:
000090:                                                                                                  #  DETAILED ANALYSIS OF TIMING -
000091:                                                                                                  #        CONTROL WILL NOT BE RETURNED TO THE SPECIFIED ADDRESS (2CADR) IN EXACTLY DELTA T CENTISECONDS.
000092:                                                                                                  #        THE APPROXIMATE TIME MAY BE CALCULATED AS FOLLOWS
000093:                                                                                                  #                LET TO = THE TIME OF THE TC WAITLIST
000094:                                                                                                  #                LET TS = TO +147U + COUNTER INCREMENTS (SET UP TIME)
000095:                                                                                                  #                LET X  = TS -(100TS)/100  (VARIANCE FROM COUNTERS)
000096:                                                                                                  #                LET Y  = LENGTH OF TIME OF INHIBIT INTERRUPT AFTER T3RUPT
000097:                                                                                                  #                LET Z  = LENGTH OF TIME TO PROCESS TASKS WHICH ARE DUE THIS T3RUPT BUT DISPATCHED EARLIER.
000098:                                                                                                  #                (Z=0, USUALLY)
000099:                                                                                                  #                LET DELTD = THE ACTUAL TIME TAKEN TO GIVE CONTROL TO 2CADR
000100:                                                                                                  #        THEN DELTD = TS+DELTA T -X +Y +Z +1.05MS* +COUNTERS*
000101:                                                                                                  #                *-THE TIME TAKEN BY WAITLIST ITSELF AND THE COUNTER TICKING DURING THIS WAITLIST TIME.
000102:                                                                                                  #        IN SHORT, THE ACTUAL TIME TO RETURN CONTROL TO A 2CADR IS AUGMENTED BY THE TIME TO SET UP THE TASK:S
000103:                                                                                                  #        INTERRUPT, ALL COUNTERS TICKING, THE T3RUPT PROCESSING TIME, THE WAITLIST PROCESSING TIME AND THE POSSIBILITY
000104:                                                                                                  #        OF OTHER TASKS INHIBITING THE INTERRUPT.
000105:
000106:    5251                                           BLOCK    02
000107:    5251  E3,1400                                  EBANK=   LST1                                  #  TASK LISTS IN SWITCHED E BANK.
000108:
000109:    5251                                           COUNT    02/WAIT
000110:
000111:    5251           00004        TWIDDLE            INHINT
000112:    5252           54001                           TS       L                                     #  SAVE DELAY TIME IN L
000113:    5253           35013                           CA       POSMAX
000114:    5254           26002                           ADS      Q                                     #  CREATING OVERFLOW AND Q-1 IN Q
000115:    5255           30006                           CA       BBANK
000116:    5256           00006                           EXTEND
000117:    5257           04007                           ROR      SUPERBNK
000118:    5260           56001                           XCH      L
000119:
000120:    5261           00004        WAITLIST           INHINT
000121:    5262           00006                           EXTEND
000122:    5263           65275                           BZMF     WATLST0-
000123:    5264           56002                           XCH      Q                                     #  SAVE DELTA T IN Q AND RETURN IN
000124:    5265           54061                           TS       WAITEXIT                              #  WAITEXIT.
000125:    5266           00006                           EXTEND
000126:    5267           50061                           INDEX    WAITEXIT                              #  IF TWIDDLING, THE TS SKIPS TO HERE
000127:    5270           30001                           DCA      0                                     #  PICK UP 2CADR OF TASK.
000128:    5271           54063                 -1        TS       WAITADR                               #  BBCON WILL REMAIN IN L
000129:    5272           35302        DLY2               CAF      WAITBB                                #  ENTRY FROM FIXDELAY AND VARDELAY.
000130:    5273           56006                           XCH      BBANK
000131:    5274           13246                           TCF      WAIT2
000132:
000133:    5275           05725        WATLST0-           TC       POODOO
000134:    5276           21204                           OCT      21204
000135:
000136:                                                                                                  #  RETURN TO CALLER AFTER TASK INSERTION:
000137:
000138:    5277           52062        LVWTLIST           DXCH     WAITEXIT
000139:    5300           65032                           AD       TWO
000140:    5301           52006                           DTCB
000141:
000142:    5302  E3,1400                                  EBANK=   LST1
000143:    5302           02063        WAITBB             BBCON    WAIT2
000144:
000145:                                                                                                  #  RETURN TO CALLER +2 AFTER WAITING DT SPECIFIED AT CALLER +1.
000146:
000147:    5303           50002        FIXDELAY           INDEX    Q                                     #  BOTH ROUTINES MUST BE CALLED UNDER
000148:    5304           30000                           CAF      0                                     #  WAITLIST CONTROL AND TERMINATE THE TASK
000149:    5305           24002                           INCR     Q                                     #  IN WHICH THEY WERE CALLED.
000150:
000151:                                                                                                  #  RETURN TO CALLER +1 AFTER WAITING THE DT AS ARRIVING IN A.
000152:
000153:    5306           56002        VARDELAY           XCH      Q                                     #  DT TO Q.  TASK ADRES TO WAITADR.
000154:    5307           54063                           TS       WAITADR
000155:    5310           30006                           CA       BBANK                                 #  BBANK IS SAVED DURING DELAY.
000156:    5311           00006                           EXTEND
000157:    5312           04007                           ROR      SUPERBNK                              #  ADD SBANK TO BBCON.
000158:    5313           54001                           TS       L
000159:    5314           35317                           CAF      DELAYEX
000160:    5315           54061                           TS       WAITEXIT                              #  GO TO TASKOVER AFTER TASK ENTRY.
000161:    5316           15272                           TCF      DLY2
000162:
000163:    5317           15336        DELAYEX            TCF      TASKOVER   -2                         #  RETURNS TO TASKOVER
000164:
000165:                                                                                                  #  ENDTASK MUST BE ENTERED IN FIXED-FIXED SO IT IS DISTINGUISHABLE BY ITS ADRES ALONE.
000166:
000167:    5320  E3,1400                                  EBANK=   LST1
000168:    5320           72455 73714  ENDTASK            -2CADR   SVCT3
000169:
000170:    5322           10076        SVCT3              CCS      FLAGWRD2                              #  DRIFT FLAG
000171:    5323           15340                           TCF      TASKOVER
000172:    5324           15340                           TCF      TASKOVER
000173:    5325           15326                           TCF      +1
000174:
000175:    5326           11322                           CCS      IMUCADR                               #  DON'T DO NBDONLY IF SOMEONE ELSE IS IN
000176:    5327           17717                           TCF      SVCT3X
000177:    5330           15333                           TCF      +3
000178:    5331           17717                           TCF      SVCT3X
000179:    5332           17717                           TCF      SVCT3X
000180:    5333           37672                 +3        CAF      PRIO35                                #  COMPENSATE FOR NBD COEFFICIENTS ONLY.
000181:    5334           05150                           TC       NOVAC                                 #        ENABLE EVERY 81.93 SECONDS
000182:    5335  E3,1460                                  EBANK=   NBDX
000183:    5335           03542 14063                     2CADR    NBDONLY
000184:
000185:    5337           15340                           TCF      TASKOVER
000186:
000187:    6000                                           SETLOC   FFTAG6
000188:    6000                                           BANK
000189:
000190:    7717           05303        SVCT3X             TC       FIXDELAY                              #  DELAY MAX OF 2 TIMES FOR IMU ZERO
000191:    7720           00764                           DEC      500        B-14
000192:    7721           05322                           TC       SVCT3                                 #  CHECK DRIFT FLAG AGAIN
000193:
000194:                                                                                                  #  BEGIN TASK INSERTION.
000195:
000196: 01,3246                                           BANK     01
000197: 01,3246                                           COUNT    01/WAIT
000198:
000199: 01,3246           54062        WAIT2              TS       WAITBANK                              #  BBANK OF CALLING PROGRAM.
000200: 01,3247           40026                           CS       TIME3
000201: 01,3250           65024                           AD       BIT8                                  #  BIT 8 = OCT 200
000202: 01,3251           10000                           CCS      A                                     #  TEST 200 - C(TIME3).  IF POSITIVE,
000203:                                                                                                  #  IT MEANS THAT TIME3 OVERFLOW HAS OCCURRED PRIOR TO CS TIME3 AND THAT
000204:                                                                                                  #  C(TIME3) = T - T1, INSTEAD OF 1.0 - (T1 - T).  THE FOLLOWING FOUR
000205:                                                                                                  #  ORDERS SET C(A) = TD - T1 + 1 IN EITHER CASE.
000206:
000207: 01,3252           66056                           AD       OCT40001                              #  OVERFLOW HAS OCCURRED.  SET C(A) =
000208: 01,3253           40000                           CS       A                                     #  T - T1 + 1.0 - 201
000209:
000210:                                                                                                  #  NORMAL CASE (C(A) NNZ) YIELDS SAME C(A):  -( -(1.0-(T1-T)) + 200) - 1
000211:
000212: 01,3254           63402                           AD       OCT40201
000213: 01,3255           60002                           AD       Q                                     #  RESULT = TD - T1 + 1.
000214:
000215: 01,3256           10000                           CCS      A                                     #  TEST TD - T1 +1
000216:
000217: 01,3257           61400                           AD       LST1                                  #  IF TD - T1 POS, GO TO WTLST5 WITH
000218: 01,3260           13322                           TCF      WTLST5                                #  C(A) = (TD - T1) + C(LST1) = TD-T2+1
000219:
000220: 01,3261           13262                           NOOP
000221: 01,3262           40002                           CS       Q
000222:
000223:                                                                                                  #  NOTE THAT THIS PROGRAM SECTION IS NEVER ENTERED WHEN T-T1 G/E -1,
000224:                                                                                                  #  SINCE TD-T1+1 = (TD-T) + (T-T1+1), AND DELTA T = TD-T G/E +1.  (G/E
000225:                                                                                                  #  SYMBOL MEANS GREATER THAN OR EQUAL TO).  THUS THERE NEED BE NO CON-
000226:                                                                                                  #  CERN OVER A PREVIOUS OR IMMINENT OVERFLOW OF TIME3 HERE.
000227:
000228: 01,3263           65016                           AD       POS1/2                                #  WHEN TD IS NEXT, FORM QUANTITY
000229: 01,3264           65016                           AD       POS1/2                                #        1.0 - DELTA T = 1.0 - (TD - T)
000230: 01,3265           56026                           XCH      TIME3
000231: 01,3266           65015                           AD       NEGMAX
000232: 01,3267           60002                           AD       Q                                     #  1.0 - DELTAT T NOW COMPLETE.
000233: 01,3270           00006                           EXTEND                                         #  ZERO INDEX Q.
000234: 01,3271           22007                           QXCH     7                                     #  (ZQ)
000235:
000236: 01,3272           57400        WTLST4             XCH      LST1
000237: 01,3273           57401                           XCH      LST1       +1
000238: 01,3274           57402                           XCH      LST1       +2
000239: 01,3275           57403                           XCH      LST1       +3
000240: 01,3276           57404                           XCH      LST1       +4
000241: 01,3277           57405                           XCH      LST1       +5
000242: 01,3300           57406                           XCH      LST1       +6
000243: 01,3301           57407                           XCH      LST1       +7
000244:
000245: 01,3302           30063                           CA       WAITADR                               #  (MINOR PART OF TASK CADR HAS BEEN IN L.)
000246: 01,3303           50002                           INDEX    Q
000247: 01,3304           13305                           TCF      +1
000248:
000249: 01,3305           53411                           DXCH     LST2
000250: 01,3306           53413                           DXCH     LST2       +2
000251: 01,3307           53415                           DXCH     LST2       +4
000252: 01,3310           53417                           DXCH     LST2       +6
000253: 01,3311           53421                           DXCH     LST2       +8D
000254: 01,3312           53423                           DXCH     LST2       +10D                       #  AT END, CHECK THAT C(LST2 +10) IS STD
000255: 01,3313           53425                           DXCH     LST2       +12D
000256: 01,3314           53427                           DXCH     LST2       +14D
000257: 01,3315           53431                           DXCH     LST2       +16D
000258: 01,3316           65320                           AD       ENDTASK                               #  END ITEM, AS CHECK FOR EXCEEDING
000259:                                                                                                  #  THE LENGTH OF THE LIST.
000260: 01,3317           00006                           EXTEND                                         #  DUMMY TASK ADRES SHOULD BE IN FIXED-
000261: 01,3320           15277                           BZF      LVWTLIST                              #  FIXED SO ITS ADRES ALONE DISTINGUISHES
000262: 01,3321           13375                           TCF      WTABORT                               #  IT.
000263:
000264: 01,3322           10000        WTLST5             CCS      A                                     #  TEST TD - T2 + 1
000265: 01,3323           61401                           AD       LST1       +1
000266: 01,3324           13330                           TCF      +4
000267: 01,3325           65033                           AD       ONE
000268: 01,3326           03403                           TC       WTLST2
000269: 01,3327           00001                           OCT      1
000270:
000271: 01,3330           10000                 +4        CCS      A                                     #  TEST TD - T3 + 1
000272: 01,3331           61402                           AD       LST1       +2
000273: 01,3332           13336                           TCF      +4
000274: 01,3333           65033                           AD       ONE
000275: 01,3334           03403                           TC       WTLST2
000276: 01,3335           00002                           OCT      2
000277:
000278: 01,3336           10000                 +4        CCS      A                                     #  TEST TD - T4 + 1
000279: 01,3337           61403                           AD       LST1       +3
000280: 01,3340           13344                           TCF      +4
000281: 01,3341           65033                           AD       ONE
000282: 01,3342           03403                           TC       WTLST2
000283: 01,3343           00003                           OCT      3
000284:
000285: 01,3344           10000                 +4        CCS      A                                     #  TEST TD - T5 + 1
000286: 01,3345           61404                           AD       LST1       +4
000287: 01,3346           13352                           TCF      +4
000288: 01,3347           65033                           AD       ONE
000289: 01,3350           03403                           TC       WTLST2
000290: 01,3351           00004                           OCT      4
000291:
000292: 01,3352           10000                 +4        CCS      A                                     #  TEST TD - T6 + 1
000293: 01,3353           61405                           AD       LST1       +5
000294: 01,3354           13360                           TCF      +4
000295: 01,3355           65033                           AD       ONE
000296: 01,3356           03403                           TC       WTLST2
000297: 01,3357           00005                           OCT      5
000298:
000299: 01,3360           10000                 +4        CCS      A                                     #  TEST TD - T7 + 1
000300: 01,3361           61406                           AD       LST1       +6
000301: 01,3362           13366                           TCF      +4
000302: 01,3363           65033                           AD       ONE
000303: 01,3364           03403                           TC       WTLST2
000304: 01,3365           00006                           OCT      6
000305:
000306: 01,3366           10000                 +4        CCS      A
000307: 01,3367           61407                           AD       LST1       +7
000308: 01,3370           13374                           TCF      +4
000309: 01,3371           65033                           AD       ONE
000310: 01,3372           03403                           TC       WTLST2
000311: 01,3373           00007                           OCT      7
000312:
000313: 01,3374           10000                 +4        CCS      A
000314: 01,3375           07755        WTABORT            TC       BAILOUT                               #  NO ROOM IN THE INN.
000315: 01,3376           31203                           OCT      31203
000316:
000317: 01,3377           65033                           AD       ONE
000318: 01,3400           03403                           TC       WTLST2
000319: 01,3401           00010                           OCT      10
000320:
000321: 01,3402           40201        OCT40201           OCT      40201
000322:
000323:                                                                                                  #  THE ENTRY TO WTLST2 JUST PRECEDING OCT N IS FOR T  LE TD LE T   -1.
000324:                                                                                                  #                                                   N           N+1
000325:
000326:                                                                                                  #  (LE MEANS LESS THAN OR EQUAL TO).  AT ENTRY, C(A) = -(TD - T   + 1)
000327:                                                                                                  #                                                              N+1
000328:
000329:                                                                                                  #  THE LST1 ENTRY-(T   -T +1) IS TO BE REPLACED BY -(TD - T  + 1), AND
000330:                                                                                                  #                   N+1  N                                 N
000331:
000332:                                                                                                  #  THE ENTRY-(T   - TD + 1) IS TO BE INSERTED IMMEDIATELY FOLLOWING.
000333:                                                                                                  #              N+1
000334:
000335: 01,3403           54064        WTLST2             TS       WAITTEMP                              #  C(A) = -(TD - T + 1)
000336: 01,3404           50002                           INDEX    Q
000337: 01,3405           30000                           CAF      0
000338: 01,3406           54002                           TS       Q                                     #  INDEX VALUE INTO Q.
000339:
000340: 01,3407           35033                           CAF      ONE
000341: 01,3410           60064                           AD       WAITTEMP
000342: 01,3411           50002                           INDEX    Q                                     #  C(A) = -(TD - T ) + 1.
000343: 01,3412           27377                           ADS      LST1       -1                         #                 N
000344:
000345: 01,3413           40064                           CS       WAITTEMP
000346: 01,3414           50002                           INDEX    Q
000347: 01,3415           13272                           TCF      WTLST4
000348:
000349:                                                                                                  #  C(TIME3) = 1.0 - (T1 - T)
000350:
000351:                                                                                                  #  C(LST1  ) = - (T2 - T1) + 1
000352:                                                                                                  #  C(LST1+1) = - (T3 - T2) + 1
000353:                                                                                                  #  C(LST1+2) = - (T4 - T3) + 1
000354:                                                                                                  #  C(LST1+3) = - (T5 - T4) + 1
000355:                                                                                                  #  C(LST1+4) = - (T6 - T5) + 1
000356:
000357:                                                                                                  #  C(LST2   ) = 2CADR  TASK1
000358:                                                                                                  #  C(LST2+2 ) = 2CADR  TASK2
000359:                                                                                                  #  C(LST2+4 ) = 2CADR  TASK3
000360:                                                                                                  #  C(LST2+6 ) = 2CADR  TASK4
000361:                                                                                                  #  C(LST2+8 ) = 2CADR  TASK5
000362:                                                                                                  #  C(LST2+10) = 2CADR  TASK6
000363:
000364:                                                                                                  #  ENTERS HERE ON T3 RUPT TO DISPATCH WAITLISTED TASK.
000365:
000366: 01,3416           00006        T3RUPT             EXTEND
000367: 01,3417           04007                           ROR      SUPERBNK                              #  READ CURRENT SUPERBANK VALUE AND
000368: 01,3420           54016                           TS       BANKRUPT                              #  SAVE WITH E AND F BANK VALUES.
000369: 01,3421           00006                           EXTEND
000370: 01,3422           22012                           QXCH     QRUPT
000371:
000372: 01,3423           35014        T3RUPT2            CAF      NEG1/2                                #  DISPATCH WAITLIST TASK.
000373: 01,3424           57407                           XCH      LST1       +7
000374: 01,3425           57406                           XCH      LST1       +6
000375: 01,3426           57405                           XCH      LST1       +5
000376: 01,3427           57404                           XCH      LST1       +4                         #  1. MOVE UP LST1 CONTENTS, ENTERING
000377: 01,3430           57403                           XCH      LST1       +3                         #     A VALUE OF 1/2 +1 AT THE BOTTOM
000378: 01,3431           57402                           XCH      LST1       +2                         #     FOR T6-T5, CORRESPONDING TO THE
000379: 01,3432           57401                           XCH      LST1       +1                         #     INTERVAL 81.91 SEC FOR ENDTASK.
000380: 01,3433           57400                           XCH      LST1
000381: 01,3434           65013                           AD       POSMAX                                #  2. SET T3 = 1.0 - T2 - T USING LIST 1.
000382: 01,3435           26026                           ADS      TIME3                                 #  SO T3 WONT TICK DURING UPDATE.
000383: 01,3436           54734                           TS       RUPTAGN
000384: 01,3437           45035                           CS       ZERO
000385: 01,3440           54734                           TS       RUPTAGN                               #  SETS RUPTAGN TO +1 ON OVERFLOW.
000386:
000387: 01,3441           00006                           EXTEND                                         #  DISPATCH TASK.
000388: 01,3442           45321                           DCS      ENDTASK
000389: 01,3443           53431                           DXCH     LST2       +16D
000390: 01,3444           53427                           DXCH     LST2       +14D
000391: 01,3445           53425                           DXCH     LST2       +12D
000392: 01,3446           53423                           DXCH     LST2       +10D
000393: 01,3447           53421                           DXCH     LST2       +8D
000394: 01,3450           53417                           DXCH     LST2       +6
000395: 01,3451           53415                           DXCH     LST2       +4
000396: 01,3452           53413                           DXCH     LST2       +2
000397: 01,3453           53411                           DXCH     LST2
000398:
000399: 01,3454           56001                           XCH      L
000400: 01,3455           00006                           EXTEND
000401: 01,3456           01007                           WRITE    SUPERBNK                              #  SET SUPERBANK FROM BBCON OF 2CADR
000402: 01,3457           56001                           XCH      L                                     #  RESTORE TO L FOR DXCH Z.
000403: 01,3460           52006                           DTCB
000404:
000405:                                                                                                  #  RETURN, AFTER EXECUTION OF T3 OVERFLOW TASK:
000406:
000407:    5340                                           BLOCK    02
000408:    5340                                           COUNT    02/WAIT
000409:
000410:    5340           10734        TASKOVER           CCS      RUPTAGN                               #  IF +1 RETURN TO T3RUPT, IF -0 RESUME.
000411:    5341           35302                           CAF      WAITBB
000412:    5342           54006                           TS       BBANK
000413:    5343           13423                           TCF      T3RUPT2                               #  DISPATCH NEXT TASK IF IT WAS DUE.
000414:
000415:    5344           30016                           CA       BANKRUPT
000416:    5345           00006                           EXTEND
000417:    5346           01007                           WRITE    SUPERBNK                              #  RESTORE SUPERBANK BEFORE RESUME IS DONE
000418:
000419:    5347           00006        RESUME             EXTEND
000420:    5350           22012                           QXCH     QRUPT
000421:    5351           30016        NOQRSM             CA       BANKRUPT
000422:    5352           56006                           XCH      BBANK
000423:    5353           52011        NOQBRSM            DXCH     ARUPT
000424:    5354           00003                           RELINT
000425:    5355           50017                           RESUME
000426:
000427:                                                                                                  #  LONGCALL
000428:                                                                                                  #  PROGRAM DESCRIPTION                           DATE - 17 MARCH 1967
000429:                                                                                                  #  PROGRAM WRITTEN BY W.H.VANDEVER               LOG SECTION WAITLIST
000430:                                                                                                  #  MOD BY - R. MELANSON TO ADD DOCUMENTATION     ASSEMBLY SUNDISK REV. 100
000431:
000432:                                                                                                  #  FUNCTIONAL DESCRIPTION -
000433:                                                                                                  #        LONGCALL IS CALLED WITH THE DELTA TIME ARRIVING IN A,L SCALED AS TIME2,TIME1 WITH THE 2CADR OF THE TASK
000434:                                                                                                  #        IMMEDIATELY FOLLOWING THE TC LONGCALL.  FOR EXAMPLE, IT MIGHT BE DONE AS FOLLOWS WHERE TIMELOC IS THE NAME OF
000435:                                                                                                  #        A DP REGISTER CONTAINING A DELTA TIME AND WHERE TASKTODO IS THE NAME OF THE LOCATION AT WHICH LONGCALL IS TO
000436:                                                                                                  #        START
000437:
000438:                                                                                                  #  CALLING SEQUENCE -
000439:                                                                                                  #                EXTEND
000440:                                                                                                  #                DCA     TIMELOC
000441:                                                                                                  #                TC      LONGCALL
000442:                                                                                                  #                2CADR   TASKTODO
000443:
000444:                                                                                                  #  NORMAL EXIT MODE -
000445:                                                                                                  #        1).     TC      WAITLIST
000446:                                                                                                  #        2).     DTCB    (TO L+3 OF CALLING ROUTINE 1ST PASS THRU LONGCYCL)
000447:                                                                                                  #        3).     DTCB    (TO TASKOVER ON SUBSEQUENT PASSES THRU LONGCYCL)
000448:
000449:                                                                                                  #  ALARM OR ABORT EXIT MODE -
000450:                                                                                                  #        NONE
000451:
000452:                                                                                                  #  OUTPUT -
000453:                                                                                                  #        LONGTIME AND LONGTIME+1 = DELTA TIME
000454:                                                                                                  #        LONGEXIT AND LONGEXIT+1 = RETURN 2CADR
000455:                                                                                                  #        LONGCADR AND LONGCADR+1 = TASK 2CADR
000456:                                                                                                  #        A = SINGLE PRECISION TIME FOR WAITLIST
000457:
000458:                                                                                                  #  ERASABLE INITIALIZATION -
000459:                                                                                                  #        A = MOST SIGNIFICANT PART OF DELTA TIME
000460:                                                                                                  #        L = LEAST SIGNIFICANT PART OF DELTA TIME
000461:                                                                                                  #        Q = ADDRESS OF 2CADR TASK VALUE
000462:
000463:                                                                                                  #  DEBRIS -
000464:                                                                                                  #        A,Q,L
000465:                                                                                                  #        LONGCADR AND LONGCADR+1
000466:                                                                                                  #        LONGEXIT AND LONGEXIT+1
000467:                                                                                                  #        LONGTIME AND LONGTIME+1
000468:
000469:                                                                                                  #  *** THE FOLLOWING IS TO BE IN FIXED-FIXED AND UNSWITCHED ERRASIBLE ***
000470:
000471:    5356                                           BLOCK    02
000472:    5356  E3,1400                                  EBANK=   LST1
000473:    5356           53140        LONGCALL           DXCH     LONGTIME                              #  OBTAIN THE DELTA TIME
000474:
000475:    5357           00006                           EXTEND                                         #  OBTAIN THE 2CADR
000476:    5360           50002                           NDX      Q
000477:    5361           30001                           DCA      0
000478:    5362           53134                           DXCH     LONGCADR
000479:
000480:    5363           00006                           EXTEND                                         #  NOW GO TO THE APPROPRIATE SWITCHED BANK
000481:    5364           35367                           DCA      LGCL2CDR                              #  FOR THE REST OF LONGCALL
000482:    5365           52006                           DTCB
000483:
000484:    5366  E3,1400                                  EBANK=   LST1
000485:    5366           03461 02063  LGCL2CDR           2CADR    LNGCALL2
000486:
000487:                                                                                                  #  *** THE FOLLOWING MAY BE IN A SWITCHED BANK, INCLUDING ITS ERASABLE ***
000488:
000489: 01,3461                                           BANK     01
000490: 01,3461                                           COUNT    01/WAIT
000491:
000492: 01,3461           23435        LNGCALL2           LXCH     LONGEXIT   +1                         #  SAVE THE CORRECT BB FOR RETURN
000493: 01,3462           35032                           CA       TWO                                   #  OBTAIN THE RETURN ADDRESS
000494: 01,3463           26002                           ADS      Q
000495: 01,3464           55434                           TS       LONGEXIT
000496:
000497:                                                                                                  #  *** WAITLIST TASK LONGCYCL ***
000498:
000499: 01,3465           00006        LONGCYCL           EXTEND                                         #  CAN WE SUCCESFULLY TAKE ABOUT 1.25
000500: 01,3466           43477                           DCS      DPBIT14                               #  MINUTES OFF OF LONGTIME
000501: 01,3467           21140                           DAS      LONGTIME
000502:
000503: 01,3470           11140                           CCS      LONGTIME   +1                         #  THE REASONIBG BEHIND THIS PART IS
000504: 01,3471           13510                           TCF      MUCHTIME                              #  INVOLVED, TAKING INTO ACCOUNT THAT THE
000505:                                                                                                  #  WORDS MAY NOT BE SIGNED CORRECTED (DP
000506:                                                                                                  #  BASIC INSTRUCTIONS
000507:                                                                                                  #  DO NOT SIGN CORRECT) AND THAT WE SUBTRAC
000508:                                                                                                  #  TED BIT14 (1 OVER HALF THE POS. VALUE
000509:                                                                                                  #  REPRESENTIBLE IN SINGLE WORD)
000510: 01,3472           13473                           NOOP                                           #  CAN:T GET HERE    **********
000511: 01,3473           13474                           TCF      +1
000512: 01,3474           11137                           CCS      LONGTIME
000513: 01,3475           13510                           TCF      MUCHTIME
000514: 01,3476           00000        DPBIT14            OCT      00000
000515: 01,3477           20000                           OCT      20000
000516:
000517:                                                                                                  #  LONGCALL
000518: 01,3500           35016        LASTTIME           CA       BIT14                                 #  GET BACK THE CORRECT DELTA TFOR WAITLIST
000519: 01,3501           27140                           ADS      LONGTIME   +1
000520: 01,3502           05261                           TC       WAITLIST
000521: 01,3503  E3,1400                                  EBANK=   LST1
000522: 01,3503           03515 02063                     2CADR    GETCADR                               #  THE ENTRY TO OUR LONGCADR
000523:
000524: 01,3505           33517        LONGRTRN           CA       TSKOVCDR                              #  SET IT UP SO THAT ONLY THE FIRST EXIT IS
000525: 01,3506           53435                           DXCH     LONGEXIT                              #  TO THE CALLER OF LONGCALL
000526: 01,3507           52006                           DTCB                                           #  THE REST ARE TO TASKOVER
000527:
000528: 01,3510           35016        MUCHTIME           CA       BIT14                                 #  WE HAVE OVER OUR ABOUT 1.25 MINUTES
000529: 01,3511           05261                           TC       WAITLIST                              #  SO SET UP FOR ANOTHER CYCLE THROUGH HERE
000530: 01,3512  E3,1400                                  EBANK=   LST1
000531: 01,3512           03465 02063                     2CADR    LONGCYCL
000532:
000533: 01,3514           13505                           TCF      LONGRTRN                              #  NOW EXIT PROPERLY
000534:
000535:                                                                                                  #  *** WAITLIST TASK GETCADR ***
000536:
000537: 01,3515           53134        GETCADR            DXCH     LONGCADR                              #  GET THE LONGCALL THAT WE WISHED TO START
000538: 01,3516           52006                           DTCB                                           #  AND TRANSFER CONTROL TO IT
000539:
000540: 01,3517           05340        TSKOVCDR           GENADR   TASKOVER
000541:
000542:

End of include-file WAITLIST.agc.  Parent file is MAIN.agc


