
Source Code


000002:                                                                                                  ## Copyright:   Public domain.
000003:                                                                                                  ## Filename:    AGS_INITIALIZATION.agc
000004:                                                                                                  ## Purpose:     A log section of Zerlina 56, the final revision of
000005:                                                                                                  ##              Don Eyles's offline development program for the variable
000006:                                                                                                  ##              guidance period servicer. It also includes a new P66 with LPD
000007:                                                                                                  ##              (Landing Point Designator) capability, based on an idea of John
000008:                                                                                                  ##              Young's. Neither of these advanced features were actually flown,
000009:                                                                                                  ##              but Zerlina was also the birthplace of other big improvements to
000010:                                                                                                  ##              Luminary including the terrain model and new (Luminary 1E)
000011:                                                                                                  ##              analog display programs. Zerlina was branched off of Luminary 145,
000012:                                                                                                  ##              and revision 56 includes all changes up to and including Luminary
000013:                                                                                                  ##              183. It is therefore quite close to the Apollo 14 program,
000014:                                                                                                  ##              Luminary 178, where not modified with new features.
000015:                                                                                                  ## Reference:   pp. 213-217
000016:                                                                                                  ## Assembler:   yaYUL
000017:                                                                                                  ## Contact:     Ron Burkey <info@sandroid.org>.
000018:                                                                                                  ## Website:     www.ibiblio.org/apollo/index.html
000019:                                                                                                  ## Mod history: 2017-07-28 MAS  Created from Luminary 210.
000020:                                                                                                  ##              2017-08-26 TVB  Updated for Zerlina 56.
000021:


000023:                                                                                                  #  PROGRAM NAME:   AGS INITIALIZATION (R47)
000024:
000025:                                                                                                  #  WRITTEN BY  :   RHODE/KILROY/FOLLETT
000026:
000027:                                                                                                  #  MOD NO. :       0
000028:                                                                                                  #  DATE    :       23 MARCH 1967
000029:                                                                                                  #  MOD BY  :       KILROY
000030:
000031:                                                                                                  #  MOD NO. :       1
000032:                                                                                                  #  DATE    :       28 OCTOBER 1967
000033:                                                                                                  #  MOD BY  :       FOLLETT
000034:
000035:                                                                                                  #  FUNCT. DESC.:   (1) TO PROVIDE THE AGS ABORT ELECTRONICS ASSEMBLY(AEA) WITH THE LEM AND CSM STATE VECTORS
000036:                                                                                                  #                  (POSITION,VELOCITY,TIME) IN LEM IMU COORDINATES BY MEANS OF THE LGC DIGITAL DOWNLINK.
000037:
000038:                                                                                                  #                  (2) TO ZERO THE ICDU, LGC AND AEA GIMBAL ANGLE COUNTERS SIMULTANEOUSLY IN ORDER TO ESTABLISH A
000039:                                                                                                  #                  COMMON ZERO REFERENCE FOR THE MEASUREMENT OF GIMBAL(EULER) ANGLES WHICH DEFINE LEM ATTITUDE
000040:                                                                                                  #                  (3) TO ESTABLISH THE GROUND ELAPSED TIME OF AEA CLOCK ZERO.(IF AN AEA CLOCK ZERO IS
000041:                                                                                                  #                  REQUESTED DURING THIS PROGRAM
000042:
000043:                                                                                                  #  LOG SECTION :   AGS INITIALIZATION
000044:
000045:                                                                                                  #  CALLING SEQ :   PROGRAM IS ENTERED WHEN ASTRONAUT KEYS V47E ON DSKY.
000046:                                                                                                  #                  R47 MAY BE CALLED AT ANY TIME EXCEPT WHEN ANOTHER EXTENDED VERB IS IN PROGRESS
000047:
000048:                                                                                                  #  SUBROUTINES
000049:                                                                                                  #  CALLED      :
000050:
000051:                                                                                                  #  NORMAL EXIT :  ENDEXT
000052:
000053:                                                                                                  #  ALARM/ABORT :  ALARM - BAD REFSMMAT - CODE:220
000054:                                                                                                  #                 OPERATOR ERROR IF V47 SELECTED DURING ANOTHER EXTENDED VERB.
000055:
000056:                                                                                                  #  ERASABLES
000057:                                                                                                  #  USED        :  SAMPTIME    (2) TIME OF :ENTER: KEYSTROKE
000058:                                                                                                  #                 AGSK        (2) GROUND ELAPSED TIME OF THE AEA CLOCK :ZERO:
000059:                                                                                                  #                 AGSBUFF   (140) CONTAINS AGS INITIALIZATION DATA (SEE :OUTPUT: BELOW)
000060:                                                                                                  #                 AGSWORD     (1) PREVIOUS DOWNLIST SAVED HERE
000061:
000062: 05,2464  E6,1771                                  EBANK=   AGSK
000063: 40,2000                                           BANK     40
000064: 32,2000                                           SETLOC   R47
000065: 32,2000                                           BANK
000066:
000067: 32,2005                                           COUNT*   $$/R47
000068:
000069: 32,2005           34737        AGSINIT            CAF      REFSMBIT
000070: 32,2006           70077                           MASK     FLAGWRD3                              #  CHECK REFSMFLG.
000071: 32,2007           10000                           CCS      A
000072: 32,2010           02017                           TC       REDSPTEM                              #  REFSMMAT IS OK


000074: 32,2011           05600                           TC       ALARM                                 #  REFSMMAT IS BAD
000075: 32,2012           00220                           OCT      220
000076: 32,2013           05503                           TC       ENDEXT
000077:
000078: 32,2014           00006        NEWAGS             EXTEND
000079: 32,2015           30014                           DCA      SAMPTIME                              #  TIME OF THE :ENTER: KEYSTROKE
000080: 32,2016           53772                           DXCH     AGSK                                  #  BECOMES NEW AEA CLOCK :ZERO:
000081:
000082: 32,2017           00006        REDSPTEM           EXTEND
000083: 32,2020           31772                           DCA      AGSK
000084: 32,2021           53051                           DXCH     DSPTEMX
000085: 32,2022           32172        AGSDISPK           CAF      V06N16
000086: 32,2023           04616                           TC       BANKCALL                              #  R1 = 00XXX. HRS., R2 = 000XX MIN.,
000087: 32,2024           20334                           CADR     GOMARKF                               #  R3 = 0XX.XX SEC.
000088: 32,2025           05503                           TC       ENDEXT                                #  TERMINATE RETURN
000089: 32,2026           02036                           TC       AGSVCALC                              #  PROCEED RETURN
000090: 32,2027           44746                           CS       BIT6                                  #  IS ENTER VIA A V32
000091: 32,2030           60154                           AD       MPAC
000092: 32,2031           00006                           EXTEND
000093: 32,2032           12014                           BZF      NEWAGS                                #  YES, USE KEYSTROKE TIME FOR NEW AGSK
000094:
000095: 32,2033           00006                           EXTEND                                         #  NO, NEW AGSK LOADED VIA V25
000096: 32,2034           31051                           DCA      DSPTEMX                               #  LOADED INTO DSPTEMX BY KEYING
000097: 32,2035           02016                           TC       REDSPTEM   -1                         #  V25E FOLLOWED BY HRS.,MINS.,SECS.
000098:                                                                                                  #  DISPLAY THE NEW K
000099:
000100: 32,2036           06051        AGSVCALC           TC       INTPRET
000101: 32,2037           77614                           SET
000102: 32,2040           01076                                    NODOFLAG                              #  DONT ALLOW V37
000103: 32,2041           77414                           SET      EXIT
000104: 32,2042           02076                                    XDSPFLAG
000105:
000106: 32,2043           32172                           CAF      V06N16
000107: 32,2044           04616                           TC       BANKCALL
000108: 32,2045           20621                           CADR     EXDSPRET
000109:
000110: 32,2046           06051                           TC       INTPRET                               #  EXTRAPOLATE LEM AND CSM STATE VECTORS
000111: 32,2047           77634                           RTB                                            #  TO THE PRESENT TIME
000112: 32,2050           21555                                    LOADTIME                              #  LOAD MPAC WITH TIME2,TIME1
000113: 32,2051           34041                           STCALL   TDEC1                                 #  CALCULATE LEM STATE VECTOR
000114: 32,2052           27056                                    LEMPREC
000115: 32,2053           77624                           CALL                                           #  CALL ROUTINE TO CONVERT TO SM COORDS AND
000116: 32,2054           64132                                    SCALEVEC                              #  PROVIDE PROPER SCALING
000117: 32,2055           16172                           STODL    AGSBUFF                               #  (LEMPREC AND CSMPREC LEAVE TDEC1 IN TAT)
000118: 32,2056           00015                                    TAT                                   #  TAT = TIME TO WHICH RATT1 AND VATT1 ARE
000119: 32,2057           34041                           STCALL   TDEC1                                 #  COMPUTED(CSEC SINCE CLOCK START B-28).
000120: 32,2060           27042                                    CSMPREC                               #  CALCULATE CSM STATE VECTOR FOR SAME TIME
000121: 32,2061           77624                           CALL
000122: 32,2062           64132                                    SCALEVEC
000123: 32,2063           16200                           STODL    AGSBUFF    +6


000125: 32,2064           00015                                    TAT
000126: 32,2065           56225                           DSU      DDV                                   #  CALCULATE AND STORE THE TIME
000127:
000128: 32,2066           03372                                    AGSK
000129: 32,2067           24175                                    TSCALE
000130: 32,2070           02206                           STORE    AGSBUFF    +12D
000131: 32,2071           77776                           EXIT
000132:
000133: 32,2072           34753                           CAF      LAGSLIST
000134: 32,2073           54333                           TS       DNLSTCOD
000135:
000136: 32,2074           32176                           CAF      20SEC                                 #  DELAY FOR 20 SEC WHILE THE AGS
000137: 32,2075           04616                           TC       BANKCALL                              #  DOWNLIST IS TRANSMITTED
000138: 32,2076           01736                           CADR     DELAYJOB
000139:
000140: 32,2077           31321                           CA       AGSWORD
000141: 32,2100           54333                           TS       DNLSTCOD                              #  RETURN TO THE OLD DOWNLIST
000142: 32,2101           34744                           CAF      IMUSEBIT
000143: 32,2102           70074                           MASK     FLAGWRD0                              #  CHECK IMUSE FLAG.
000144: 32,2103           10000                           CCS      A
000145: 32,2104           02122                           TC       AGSEND                                #  IMU IS BEING USED - DO NOT ZERO
000146: 32,2105           11301        CKSTALL            CCS      IMUCADR                               #  CHECK FOR IMU USAGE WHICH AVOIDS THE
000147: 32,2106           12111                           TCF      +3                                    #  IMUSE BIT:  I.E., IMU COMPENSATION.
000148: 32,2107           12115                           TCF      +6                                    #  FREE.  GO AHEAD WITH THE IMU ZERO.
000149: 32,2110           12111                           TCF      +1
000150: 32,2111           34363                 +3        CAF      TEN                                   #  WAIT .1 SEC AND TRY AGAIN.
000151: 32,2112           04616                           TC       BANKCALL
000152: 32,2113           01736                           CADR     DELAYJOB
000153: 32,2114           12105                           TCF      CKSTALL
000154:
000155: 32,2115           04616                 +6        TC       BANKCALL                              #  IMU IS NOT IN USE
000156: 32,2116           16661                           CADR     IMUZERO                               #  SET IMU ZERO DISCRETE FOR 320 MSECS
000157: 32,2117           04616                           TC       BANKCALL                              #  WAIT 3 SEC FOR COUNTERS TO INCREMENT
000158: 32,2120           17715                           CADR     IMUSTALL
000159: 32,2121           02122                           TC       AGSEND
000160: 32,2122           05527        AGSEND             TC       DOWNFLAG                              #  ALLOW V37
000161: 32,2123           00054                           ADRES    NODOFLAG
000162: 32,2124           32173                           CAF      V50N16
000163: 32,2125           04616                           TC       BANKCALL
000164: 32,2126           20342                           CADR     GOMARK3
000165: 32,2127           15503                           TCF      ENDEXT
000166: 32,2130           15503                           TCF      ENDEXT
000167: 32,2131           05503                           TC       ENDEXT
000168:
000169: 32,2132           64375        SCALEVEC           VLOAD    MXV
000170: 32,2133           00025                                    VATT1
000171: 32,2134           01732                                    REFSMMAT
000172: 32,2135           72561                           VXSC     VSL2
000173: 32,2136           24202                                    VSCALE
000174: 32,2137           53255                           VAD      VAD                                   #  THIS SECTION ROUNDS THE VECTOR, AND


000176: 32,2140           24204                                    AGSRND1                               #  CORRECTS FOR THE FACT THAT THE AGS
000177: 32,2141           24212                                    AGSRND2                               #  IS A 2 S COMPLIMENT MACHINE WHILE THE
000178: 32,2142           77634                           RTB                                            #  LGC IS A 1 S COMPLIMENT MACHINE.
000179: 32,2143           21754                                    VECSGNAG
000180: 32,2144           24025                           STOVL    VATT1
000181: 32,2145           00017                                    RATT1
000182: 32,2146           74321                           MXV      VXSC
000183: 32,2147           01732                                    REFSMMAT
000184: 32,2150           24200                                    RSCALE
000185: 32,2151           53212                           VSL8     VAD                                   #  AGAIN THIS SECTION ROUNDS.  TWO VECTORS
000186: 32,2152           24204                                    AGSRND1                               #  ARE ADDED TO DEFEAT ALSIGNAG IN THE
000187: 32,2153           47055                           VAD      RTB                                   #  CASE OF A HIGH-ORDER ZERO COUPLED WITH
000188: 32,2154           24212                                    AGSRND2                               #  A LOW ORDER NEGATIVE PART.
000189: 32,2155           21754                                    VECSGNAG
000190: 32,2156           77750                           LXA,1
000191: 32,2157           00024                                    VATT1
000192: 32,2160           72130                           SXA,1    LXA,1
000193: 32,2161           00155                                    MPAC       +1
000194: 32,2162           00026                                    VATT1      +2
000195: 32,2163           72130                           SXA,1    LXA,1
000196: 32,2164           00160                                    MPAC       +4
000197: 32,2165           00030                                    VATT1      +4
000198: 32,2166           43530                           SXA,1    RVQ
000199: 32,2167           00162                                    MPAC       +6
000200:
000201: 32,2170     4753               LAGSLIST           =        ONE
000202: 32,2170           00216        V01N14             VN       0114
000203: 32,2171           14400        V50N00A            VN       5000
000204: 32,2172     6010               V00N25             EQUALS   OCT31
000205: 32,2172           01420        V06N16             VN       0616
000206: 32,2173     4242               V00N34             EQUALS   34DEC
000207: 32,2173           14420        V50N16             VN       5016
000208: 32,2174           03100 00000  TSCALE             2DEC     100        B-10                       #  CSEC TO SEC SCALE FACTOR
000209: 32,2176           03720        20SEC              DEC      2000       B-14
000210: 32,2177           15077 05041  RSCALE             2DEC     3.280839   B-3                        #  METERS TO FEET SCALE FACTOR
000211: 32,2201           24402 25724  VSCALE             2DEC     3.280839   E2         B-9             #  METERS/CS TO FEET/SEC SCALE FACTOR
000212: 32,2203           00000 60000  AGSRND1            2OCT     0000060000
000213: 32,2205           00000 60000                     2OCT     0000060000
000214: 32,2207           00000 60000                     2OCT     0000060000
000215: 32,2211           00000 37777  AGSRND2            2OCT     0000037777
000216: 32,2213           00000 37777                     2OCT     0000037777
000217: 32,2215           00000 37777                     2OCT     0000037777


000219: 32,2217  30,2000                                  SBANK=   LOWSUPER                              #  FOR SUBSEQUENT LOW 2CADRS.

End of include-file AGS_INITIALIZATION.agc.  Parent file is MAIN.agc


