
Source Code


000002:                                                                                                  ## Copyright:   Public domain.
000003:                                                                                                  ## Filename:    ALARM_AND_ABORT.agc
000004:                                                                                                  ## Purpose:     A log section of Zerlina 56, the final revision of
000005:                                                                                                  ##              Don Eyles's offline development program for the variable
000006:                                                                                                  ##              guidance period servicer. It also includes a new P66 with LPD
000007:                                                                                                  ##              (Landing Point Designator) capability, based on an idea of John
000008:                                                                                                  ##              Young's. Neither of these advanced features were actually flown,
000009:                                                                                                  ##              but Zerlina was also the birthplace of other big improvements to
000010:                                                                                                  ##              Luminary including the terrain model and new (Luminary 1E)
000011:                                                                                                  ##              analog display programs. Zerlina was branched off of Luminary 145,
000012:                                                                                                  ##              and revision 56 includes all changes up to and including Luminary
000013:                                                                                                  ##              183. It is therefore quite close to the Apollo 14 program,
000014:                                                                                                  ##              Luminary 178, where not modified with new features.
000015:                                                                                                  ## Reference:   pp. 1369-1373
000016:                                                                                                  ## Assembler:   yaYUL
000017:                                                                                                  ## Contact:     Ron Burkey <info@sandroid.org>.
000018:                                                                                                  ## Website:     www.ibiblio.org/apollo/index.html
000019:                                                                                                  ## Mod history: 2017-07-28 MAS  Created from Luminary 210.
000020:                                                                                                  ##              2017-08-23 MAS  Updated for Zerlina 56.
000021:                                                                                                  ##              2017-08-24 MAS  Removed an extra CS BITS9+7 instruction.
000022:


000024:                                                                                                  #           THE FOLLOWING SUBROUTINE MAY BE CALLED TO DISPLAY A NON-ABORTIVE ALARM CONDITION. IT MAY BE CALLED
000025:                                                                                                  #  EITHER IN INTERRUPT OR UNDER EXECUTIVE CONTROL.
000026:
000027:                                                                                                  #           CALLING SEQUENCE IS AS FOLLOWS:
000028:
000029:                                                                                                  #           TC     ALARM
000030:                                                                                                  #           OCT    AAANN           ALARM NO. NN IN GENERAL AREA AAA.
000031:                                                                                                  #                                  (RETURNS HERE)
000032:
000033:    5600                                           BLOCK    02
000034:    4000                                           SETLOC   FFTAG7
000035:    4000                                           BANK
000036:
000037:    5600     0375                                  EBANK=   FAILREG
000038:
000039:    5600                                           COUNT*   $$/ALARM
000040:                                                                                                  #  ALARM TURNS ON THE PROGRAM ALARM LIGHT, BUT DOES NOT DISPLAY.
000041:
000042:    5600           00004        ALARM              INHINT
000043:
000044:    5601           30002                           CA       Q
000045:    5602           55363        ALARM2             TS       ALMCADR
000046:    5603           50002                           INDEX    Q
000047:    5604           30000                           CA       0
000048:    5605           54001        BORTENT            TS       L
000049:
000050:    5606           30006        PRIOENT            CA       BBANK
000051:    5607           00006                 +1        EXTEND
000052:    5610           04007                           ROR      SUPERBNK                              #  ADD SUPER BITS.
000053:    5611           55364                           TS       ALMCADR    +1
000054:
000055:    5612           30002        LARMENT            CA       Q                                     #  STORE RETURN FOR ALARM
000056:    5613           54061                           TS       ITEMP1
000057:
000058:    5614           10375        CHKFAIL1           CCS      FAILREG                               #  IS ANYTHING IN FAILREG
000059:    5615           15621                           TCF      CHKFAIL2                              #  YES TRY NEXT REG
000060:    5616           30001                           CA       L
000061:    5617           54375                           TS       FAILREG
000062:    5620           15625                           TCF      PROGLARM                              #  TURN ALARM LIGHT ON FOR FIRST ALARM
000063:
000064:    5621           10376        CHKFAIL2           CCS      FAILREG    +1
000065:    5622           15625                           TCF      PROGLARM
000066:    5623           30001                           CA       L
000067:    5624           54376                           TS       FAILREG    +1
000068:
000069:    5625           22377        PROGLARM           LXCH     FAILREG    +2                         #  STORE AS "MOST RECENT" ALARM CODE
000070:
000071:    5626           41035                           CS       DSPTAB     +11D                       #  TURN ON PROGRAM ALARM IF OFF
000072:    5627           75643                           MASK     OCT40400
000073:    5630           27035                           ADS      DSPTAB     +11D
000074:


000076:    5631           56061        MULTEXIT           XCH      ITEMP1                                #  OBTAIN RETURN ADDRESS IN A
000077:    5632           00003                           RELINT
000078:    5633           50000                           INDEX    A
000079:    5634           00001                           TC       1
000080:
000081:                                                                                                  #  PRIOLARM DISPLAYS V05N09 VIA PRIODSPR WITH 3 RETURNS TO THE USER FROM THE ASTRONAUT AT CALL LOC +1,+2,+3 AND
000082:                                                                                                  #  AN IMMEDIATE RETURN TO THE USER AT CALL LOC +4. EXAMPLE FOLLOWS,
000083:                                                                                                  #                                                   CAF    OCTXX           ALARM CODE
000084:                                                                                                  #                                                   TC     BANKCALL
000085:                                                                                                  #                                                   CADR   PRIOLARM
000086:
000087:                                                                                                  #                                                   ...    ...
000088:                                                                                                  #                                                   ...    ...
000089:                                                                                                  #                                                   ...    ...             ASTRONAUT RETURN
000090:                                                                                                  #                                                   TC     PHASCHNG        IMMEDIATE RETURN TO USER. RESTART
000091:                                                                                                  #                                                   OCT    X.1             PHASE CHANGE FOR PRIO DISPLAY
000092:
000093: 10,3544                                           BANK     10
000094: 10,2000                                           SETLOC   DISPLAYS
000095: 10,2000                                           BANK
000096:
000097: 10,3544                                           COUNT*   $$/DSPLA
000098: 10,3544           00004        PRIOLARM           INHINT                                         #  * * * KEEP IN DISPLAY ROUTINES BANK
000099: 10,3545           54001                           TS       L                                     #  SAVE ALARM CODE
000100:
000101: 10,3546           30133                           CA       BUF2                                  #  2 CADR OF PRIOLARM USER
000102: 10,3547           55363                           TS       ALMCADR
000103: 10,3550           30134                           CA       BUF2       +1
000104: 10,3551           05607                           TC       PRIOENT    +1                         #  * LEAVE L ALONE
000105: 10,3552           77467        -2SEC              DEC      -200       B-14                       #  *** DONT MOVE
000106: 10,3553           35006                           CAF      V05N09
000107: 10,3554           12505                           TCF      PRIODSPR
000108:
000109:    5635                                           BLOCK    02
000110:    4000                                           SETLOC   FFTAG7
000111:    4000                                           BANK
000112:
000113:    5635                                           COUNT*   $$/ALARM
000114:    5635           00004        BAILOUT            INHINT
000115:    5636           30002                           CA       Q
000116:    5637           55363                           TS       ALMCADR
000117:
000118:    5640           50002                           INDEX    Q
000119:    5641           30000                           CAF      0
000120:    5642           05605                           TC       BORTENT
000121:    5643           40400        OCT40400           OCT      40400
000122:
000123:    5644           00004                           INHINT
000124:    5645           34752        WHIMPER            CA       TWO
000125:    5646           60005                           AD       Z


000127:    5647           54017                           TS       BRUPT
000128:    5650           50017                           RESUME
000129:    5651           04635                           TC       POSTJUMP                              #  RESUME SENDS CONTROL HERE
000130:    5652           13001                           CADR     ENEMA
000131:    5653           00004        POODOO             INHINT
000132:    5654           30002                           CA       Q
000133:    5655           55363        ABORT2             TS       ALMCADR
000134:    5656           50002                           INDEX    Q
000135:    5657           30000                           CAF      0
000136:    5660           05605                           TC       BORTENT
000137:    5661           77770        OCT77770           OCT      77770                                 #  DON'T MOVE
000138:
000139:    5662           34765                           CAF      OCT35                                 #  4.35SPOT FOR GOPOODOO
000140:    5663           54001                           TS       L
000141:    5664           40000                           COM
000142:    5665           52760                           DXCH     -PHASE4
000143:    5666           00004        GOPOODOO           INHINT
000144:    5667           04616                           TC       BANKCALL                              #  RESET STATEFLG, REINTFLG, AND NODOFLAG.
000145:    5670           27746                           CADR     FLAGS
000146:    5671           30103                           CA       FLAGWRD7                              #  IS SERVICER CURRENTLY IN OPERATION?
000147:    5672           74746                           MASK     V37FLBIT
000148:    5673           10000                           CCS      A
000149:    5674           15702                           TCF      STRTIDLE
000150:    5675           04616                           TC       BANKCALL                              #  TERMINATE GRPS 1, 3, 5, AND 6
000151:    5676           12666                           CADR     V37KLEAN
000152:    5677           04616                           TC       BANKCALL                              #  TERMINATE GRPS 2, 4, 1, 3, 5, AND 6
000153:    5700           12657                           CADR     MR.KLEAN                              #        (I.E., GRP 4 LAST)
000154:    5701           15645                           TCF      WHIMPER
000155:    5702           35744        STRTIDLE           CAF      BBSERVDL
000156:    5703           04727                           TC       SUPERSW
000157:    5704           04616                           TC       BANKCALL                              #  PUT SERVICER INTO ITS "GROUND" STATE
000158:    5705           67546                           CADR     SERVIDLE                              #  AND PROCEED TO GOTOPOOH.
000159:    5706           00004        CCSHOLE            INHINT
000160:    5707           30002                           CA       Q
000161:    5710           05655                           TC       ABORT2
000162:    5711           21103        OCT21103           OCT      21103
000163:    5712           00004        CURTAINS           INHINT
000164:    5713           30002                           CA       Q
000165:    5714           05602                           TC       ALARM2
000166:    5715           00217        OCT217             OCT      00217
000167:    5716           01363                           TC       ALMCADR                               #  RETURN TO USER
000168:
000169:    5717           00004        BAILOUT1           INHINT
000170:    5720           53364                           DXCH     ALMCADR
000171:    5721           35743                           CAF      ADR40400
000172:    5722           54061        BOTHABRT           TS       ITEMP1
000173:    5723           50002                           INDEX    Q
000174:    5724           30000                           CAF      0
000175:    5725           54001                           TS       L
000176:    5726           15614                           TCF      CHKFAIL1
000177:


000179:    5727           00004        POODOO1            INHINT
000180:    5730           53364                           DXCH     ALMCADR
000181:    5731           35742                           CAF      ADR77770
000182:    5732           15722                           TCF      BOTHABRT
000183:
000184:    5733           00004        ALARM1             INHINT
000185:    5734           53364                           DXCH     ALMCADR
000186:    5735           00004        ALMNCADR           INHINT
000187:    5736           50002                           INDEX    Q
000188:    5737           30000                           CA       0
000189:    5740           54001                           TS       L
000190:    5741           15612                           TCF      LARMENT
000191:
000192:    5742           15661        ADR77770           TCF      OCT77770
000193:    5743           15643        ADR40400           TCF      OCT40400
000194:    5744     5155               DOALARM            EQUALS   ENDOFJOB
000195:    5744  E7,1513                                  EBANK=   DVCNTR
000196:    5744           66067        BBSERVDL           BBCON    SERVIDLE
000197:                                                                                                  #  CALLING SEQUENCE FOR VARALARM
000198:
000199:                                                                                                  #                                                   CAF    (ALARM)
000200:                                                                                                  #                                                   TC     VARALARM
000201:
000202:                                                                                                  #  VARALARM TURNS ON PROGRAM ALARM LIGHT BUT DOES NOT DISPLAY
000203:    5745           00004        VARALARM           INHINT
000204:
000205:    5746           54001                           TS       L                                     #  SAVE USERS ALARM CODE
000206:
000207:    5747           30002                           CA       Q                                     #  SAVE USERS Q
000208:    5750           55363                           TS       ALMCADR
000209:
000210:    5751           05606                           TC       PRIOENT
000211:    5752           00014        OCT14              OCT      14                                    #  DONT MOVE
000212:
000213:    5753           01363                           TC       ALMCADR                               #  RETURN TO USER
000214:
000215:    5754     5645               ABORT              EQUALS   WHIMPER
000216: 13,3746                                           BANK     13
000217: 13,2000                                           SETLOC   ABTFLGS
000218: 13,2000                                           BANK
000219: 13,3746                                           COUNT*   $$/ALARM
000220:
000221: 13,3746           44747        FLAGS              CS       STATEBIT
000222: 13,3747           70077                           MASK     FLAGWRD3
000223: 13,3750           54077                           TS       FLAGWRD3
000224: 13,3751           44745                           CS       REINTBIT
000225: 13,3752           70106                           MASK     FLGWRD10
000226: 13,3753           54106                           TS       FLGWRD10
000227: 13,3754           44753                           CS       NODOBIT
000228: 13,3755           70076                           MASK     FLAGWRD2


000230: 13,3756           54076                           TS       FLAGWRD2
000231: 13,3757           00002                           TC       Q

End of include-file ALARM_AND_ABORT.agc.  Parent file is MAIN.agc


