
Source Code


000002:                                                                                                  ## Copyright:   Public domain.
000003:                                                                                                  ## Filename:    ASCENT_GUIDANCE.agc
000004:                                                                                                  ## Purpose:     A log section of Zerlina 56, the final revision of
000005:                                                                                                  ##              Don Eyles's offline development program for the variable
000006:                                                                                                  ##              guidance period servicer. It also includes a new P66 with LPD
000007:                                                                                                  ##              (Landing Point Designator) capability, based on an idea of John
000008:                                                                                                  ##              Young's. Neither of these advanced features were actually flown,
000009:                                                                                                  ##              but Zerlina was also the birthplace of other big improvements to
000010:                                                                                                  ##              Luminary including the terrain model and new (Luminary 1E)
000011:                                                                                                  ##              analog display programs. Zerlina was branched off of Luminary 145,
000012:                                                                                                  ##              and revision 56 includes all changes up to and including Luminary
000013:                                                                                                  ##              183. It is therefore quite close to the Apollo 14 program,
000014:                                                                                                  ##              Luminary 178, where not modified with new features.
000015:                                                                                                  ## Reference:   pp. 834-849
000016:                                                                                                  ## Assembler:   yaYUL
000017:                                                                                                  ## Contact:     Ron Burkey <info@sandroid.org>.
000018:                                                                                                  ## Website:     www.ibiblio.org/apollo/index.html
000019:                                                                                                  ## Mod history: 2017-07-28 MAS  Created from Luminary 210.
000020:                                                                                                  ##              2017-08-20 MAS  Updated for Zerlina 56.
000021:


000023: 34,3455                                           BANK     34
000024: 34,2000                                           SETLOC   ASCFILT
000025: 34,2000                                           BANK
000026:
000027: 34,3455  E7,1513                                  EBANK=   DVCNTR
000028:
000029: 34,3455                                           COUNT*   $$/ASENT
000030:
000031: 34,3455           05364        ATMAG              TC       PHASCHNG
000032: 34,3456           06025                           OCT      06025
000033: 34,3457  E7,1513                                  EBANK=   DVCNTR
000034: 34,3457           02102 66067                     2CADR    PIPCYCLE
000035:
000036:
000037: 34,3461           06051                           TC       INTPRET
000038: 34,3462           77614                           BON
000039: 34,3463           04705                                    FLRCS
000040: 34,3464           60307                                    ASCENT
000041: 34,3465           41335                           SLOAD    DMP
000042: 34,3466           01251                                    ABDVACC
000043: 34,3467           26013                                    KPIP
000044: 34,3470           00007                           STORE    6D
000045: 34,3471           77625                           DSU
000046: 34,3472           26034                                    MINABDV
000047: 34,3473           43040                           BMN      CLEAR
000048: 34,3474           60752                                    ASCTERM4
000049: 34,3475           04267                                    SURFFLAG
000050: 34,3476           67214                           CLEAR    SLOAD
000051: 34,3477           02676                                    RENDWFLG
000052: 34,3500           31536                                    BIT3H
000053: 34,3501           77471                           DDV      EXIT
000054: 34,3502           00007                                    6D
000055: 34,3503           52155                           DXCH     MPAC
000056: 34,3504           53641                           DXCH     1/DV3
000057: 34,3505           53637                           DXCH     1/DV2
000058: 34,3506           53635                           DXCH     1/DV1
000059: 34,3507           53571                           DXCH     1/DV0
000060: 34,3510           06051                           TC       INTPRET
000061: 34,3511           43345                           DLOAD    DAD
000062: 34,3512           03571                                    1/DV0
000063: 34,3513           03635                                    1/DV1
000064: 34,3514           43215                           DAD      DAD
000065: 34,3515           03637                                    1/DV2
000066: 34,3516           03641                                    1/DV3
000067: 34,3517           41205                           DMP      DMP
000068: 34,3520           02256                                    VE
000069: 34,3521           21012                                    2SEC(9)
000070: 34,3522           65252                           SL3      PDDL
000071: 34,3523           02262                                    TBUP
000072: 34,3524           43342                           SR1      DAD


000074: 34,3525           77625                           DSU
000075: 34,3526           21010                                    6SEC(18)
000076: 34,3527           16262                           STODL    TBUP
000077: 34,3530           02256                                    VE
000078: 34,3531           56342                           SR1      DDV
000079: 34,3532           02262                                    TBUP
000080: 34,3533           36254                           STCALL   AT
000081: 34,3534           60307                                    ASCENT
000082:
000083: 34,3535           00004        BIT3H              OCT      4
000084:


000086: 30,2307                                           BANK     30
000087: 30,2000                                           SETLOC   ASENT
000088: 30,2000                                           BANK
000089: 30,2307                                           COUNT*   $$/ASENT
000090:
000091:
000092: 30,2307           51575        ASCENT             VLOAD    ABVAL
000093: 30,2310           03517                                    R
000094: 30,2311           26272                           STOVL    /R/MAG
000095: 30,2312           03535                                    UNIT/R/
000096: 30,2313           53435                           VXV      UNIT
000097: 30,2314           02567                                    QAXIS
000098: 30,2315           02575                           STORE    ZAXIS1
000099: 30,2316           72441                           DOT      SL1
000100: 30,2317           03525                                    V                                     #  Z.V = ZDOT*2(-8).
000101: 30,2320           26304                           STOVL    ZDOT                                  #  ZDOT*2(-7)
000102: 30,2321           02575                                    ZAXIS1
000103: 30,2322           76435                           VXV      VSL1
000104: 30,2323           03535                                    UNIT/R/                               #  Z X UR = LAXIS*2(-2)
000105: 30,2324           02274                           STORE    LAXIS                                 #  LAXIS*2(-1)
000106: 30,2325           72441                           DOT      SL1
000107: 30,2326           03525                                    V                                     #  L.V = YDOT*2(-8).
000108: 30,2327           36302                           STCALL   YDOT                                  #  YDOT * 2(-7)
000109: 30,2330           57333                                    YCOMP
000110: 30,2331           77775                           VLOAD
000111: 30,2332           03561                                    G1
000112: 30,2333           42441                           DOT      SL4
000113: 30,2334           03535                                    UNIT/R/                               #  G.UR*2(9) = GR*2(9).
000114: 30,2335           47315                           PDVL     VXV                                   #  STORE IN PDL(0)                     (2)
000115: 30,2336           03535                                    UNIT/R/                               #  LOAD UNIT/R/*2(-1).
000116: 30,2337           03525                                    V                                     #  UR*2(-1) X V*2(-7) = H/R*2(-8).
000117: 30,2340           56236                           VSQ      DDV                                   #  H(2)/R(2)*2(-16).
000118: 30,2341           02272                                    /R/MAG                                #  H(2)/R(3)*2(9).
000119: 30,2342           43352                           SL1      DAD
000120: 30,2343           77626                           STADR
000121: 30,2344           75471                           STORE    GEFF                                  #  GEFF*2(10)M/CS/CS
000122: 30,2345           45014                           BOFF     CALL                                  #  IF P7071FLG = 1 (I.E. P70 OR P71)
000123: 30,2346           04742                                    P7071FLG                              #      CALL ZDOTDCMP TO UPDATE ZDOTD
000124: 30,2347           60351                                    +2                                    #      ON THE BASIS OF THE LAST RP.
000125: 30,2350           71614                                    ZDOTDCMP
000126: 30,2351           45345                 +2        DLOAD    DSU
000127: 30,2352           02270                                    ZDOTD
000128: 30,2353           02304                                    ZDOT
000129: 30,2354           02334                           STORE    DZDOT                                 #  DZDOT = (ZDOTD - ZDOT)*2(7)M/CS.
000130: 30,2355           65361                           VXSC     PDDL
000131: 30,2356           02575                                    ZAXIS1
000132: 30,2357           02266                                    YDOTD


000134: 30,2360           77625                           DSU
000135: 30,2361           02302                                    YDOT
000136: 30,2362           02332                           STORE    DYDOT                                 #  DYDOT = (YDOTD - YDOT)*2(7)M/CS.
000137: 30,2363           65361                           VXSC     PDDL
000138: 30,2364           02274                                    LAXIS
000139: 30,2365           02264                                    RDOTD
000140: 30,2366           77625                           DSU
000141: 30,2367           03474                                    RDOT
000142: 30,2370           02330                           STORE    DRDOT                                 #  DRDOT = (RDOTD - RDOT)*2(7)M/CS.
000143: 30,2371           53361                           VXSC     VAD
000144: 30,2372           03535                                    UNIT/R/
000145: 30,2373           76455                           VAD      VSL1
000146: 30,2374           77626                           STADR
000147: 30,2375           74131                           STORE    VGVECT                                #  VG = (DRDOT)R + (DYDOT)L + (DZDOT)Z.
000148: 30,2376           41345                           DLOAD    DMP                                   #  LOAD TGO
000149: 30,2377           03515                                    TGO                                   #  TGO GEFF
000150: 30,2400           02306                                    GEFF
000151: 30,2401           76561                           VXSC     VSL1
000152: 30,2402           03535                                    UNIT/R/                               #  TGO GEFF UR
000153: 30,2403           77645                           BVSU
000154: 30,2404           03646                                    VGVECT                                #  COMPENSATED FOR GEFF
000155: 30,2405           03646                           STORE    VGVECT                                #  STORE FOR DOWNLINK
000156: 30,2406           76521                           MXV      VSL1                                  #  GET VGBODY FOR N85 DISPLAY
000157: 30,2407           02137                                    XNBPIP
000158: 30,2410           27502                           STOVL    VGBODY
000159: 30,2411           03646                                    VGVECT
000160: 30,2412           43046                           ABVAL    BOFF                                  #  MAGNITUDE OF VGVECT
000161: 30,2413           04745                                    FLRCS                                 #  IF FLRCS=0,DO NORMAL GUIDANCE
000162: 30,2414           60423                                    MAINENG
000163: 30,2415           77671                           DDV                                            #  USE TGO=VG/AT  WITH RCS
000164: 30,2416           20001                                    AT/RCS
000165: 30,2417           37515                           STCALL   TGO                                   #  THIS WILL BE USED ON NEXT CYCLE
000166: 30,2420           71565                                    RPCOMP1                               #  COMPUTE NEW RP FOR NEXT CYCLE.
000167: 30,2421           77634                           RTB
000168: 30,2422           60750                                    ASCTERM3
000169: 30,2423           41471        MAINENG            DDV      PUSH                                  #  VG/VE IN PDL(0)                    (2)
000170: 30,2424           02256                                    VE
000171: 30,2425           44342                           SR1      BDSU                                  #  1 - VG / 2 VE
000172: 30,2426           17753                                    NEARONE
000173: 30,2427           41205                           DMP      DMP                                   #  TBUP VG(1-KT VG/VE)/VE             (0)
000174: 30,2430           02262                                    TBUP                                  #   = TGO
000175: 30,2431           77625                           DSU                                            #  COMPENSATE FOR TAILOFF
000176: 30,2432           02260                                    TTO
000177: 30,2433           03515                           STORE    TGO
000178: 30,2434           57461                           SR       DCOMP
000179: 30,2435           20614                                    11D
000180: 30,2436           17454                           STODL    TTOGO                                 #  TGO*2(-28)CS
000181: 30,2437           03515                                    TGO
000182: 30,2440           45214                           BON      DSU
000183: 30,2441           03710                                    IDLEFLAG


000185: 30,2442           60446                                    T2TEST
000186: 30,2443           21002                                    4SEC(17)                              #  ( TGO - 4 )*2(-17)CS.
000187: 30,2444           77640                           BMN
000188: 30,2445           30347                                    ENGOFF
000189: 30,2446           77745        T2TEST             DLOAD
000190: 30,2447           03515                                    TGO
000191: 30,2450           50025                           DSU      BMN                                   #  IF TGO - T2 NEG., GO TO CMPONENT
000192: 30,2451           21004                                    T2A
000193: 30,2452           60606                                    CMPONENT
000194: 30,2453           45345                           DLOAD    DSU
000195: 30,2454           02262                                    TBUP
000196: 30,2455           03515                                    TGO
000197: 30,2456           45071                           DDV      CALL                                  #  1-TGO/TBUP
000198: 30,2457           02262                                    TBUP
000199: 30,2460           61016                                    LOGSUB
000200: 30,2461           41461                           SL       PUSH                                  #  -L IN PDL(0)                        (2)
000201: 30,2462           20206                                    5
000202: 30,2463           44265                           BDDV     BDSU                                  #  -TGO/L*2(-17)
000203: 30,2464           03515                                    TGO
000204: 30,2465           02262                                    TBUP                                  #  TBUP + TGO/L = D12*2(-17)
000205: 30,2466           43006                           PUSH     BON                                   #  STORE IN PDL(2)                      (4)
000206: 30,2467           04703                                    FLPC                                  #  IF FLPC = 1, GO TO CONST
000207: 30,2470           60477                                    NORATES
000208: 30,2471           45345                           DLOAD    DSU
000209: 30,2472           03515                                    TGO
000210: 30,2473           21006                                    T3
000211: 30,2474           43044                           BPL      SET                                   #  FLPC=1
000212: 30,2475           60504                                    RATES
000213: 30,2476           04463                                    FLPC
000214: 30,2477           77745        NORATES            DLOAD
000215: 30,2500           06520                                    HI6ZEROS
000216: 30,2501           02342                           STORE    PRATE                                 #  B = 0
000217: 30,2502           36344                           STCALL   YRATE                                 #  D = 0
000218: 30,2503           60566                                    CONST                                 #  GO TO CONST
000219: 30,2504           45345        RATES              DLOAD    DSU
000220: 30,2505           03515                                    TGO
000221: 30,2506           00003                                    02D                                   #  TGO - D12 = D21*2(-17)
000222: 30,2507           72406                           PUSH     SL1                                   #  IN PDL(4)                            (6)
000223: 30,2510           52421                           BDSU     SL3                                   #  (1/2TGO - D21)*2(-13) = E * 2(-13)
000224: 30,2511           03515                                    TGO                                   #                                       (8)
000225: 30,2512           41325                           PDDL     DMP                                   #  IN PDL(6)
000226: 30,2513           03515                                    TGO
000227: 30,2514           03474                                    RDOT                                  #  RDOT TGO * 2(-24)
000228: 30,2515           45215                           DAD      DSU                                   #  R + RDOT TGO
000229: 30,2516           02272                                    /R/MAG                                #  R + RDOT TGO - RCO
000230: 30,2517           03631                                    RCO                                   #  MPAC = - DR*2(-24).
000231: 30,2520           41325                           PDDL     DMP                                   #  -DR IN PDL(8)                       (10)
000232: 30,2521           02330                                    DRDOT
000233: 30,2522           00005                                    04D                                   #  D21 DRDOT*2(-24)
000234: 30,2523           62415                           DAD      SL2                                   #  (D21 DRDOT-DR)*2(-22)                (8)


000236: 30,2524           56271                           DDV      DDV
000237: 30,2525           00007                                    06D                                   #  (D21 DRDOT-DR)/E*2(-9)
000238: 30,2526           03515                                    TGO
000239: 30,2527           02342                           STORE    PRATE                                 #  B * 2(8)
000240: 30,2530           71240                           BMN      DLOAD                                 #  B>0 NOT PERMITTED
000241: 30,2531           60535                                    CHKBMAG
000242: 30,2532           06520                                    HI6ZEROS
000243: 30,2533           36342                           STCALL   PRATE
000244: 30,2534           60547                                    PROK
000245: 30,2535           56202        CHKBMAG            SR4      DDV                                   #  B*2(4)
000246: 30,2536           02262                                    TBUP                                  #  (B / TAU) * 2(21)
000247: 30,2537           51025                           DSU      BPL
000248: 30,2540           26032                                    PRLIMIT                               #  ( B/ TAU) * 2(21) MAX.
000249: 30,2541           60547                                    PROK
000250: 30,2542           41345                           DLOAD    DMP
000251: 30,2543           26032                                    PRLIMIT
000252: 30,2544           02262                                    TBUP                                  #  B MAX. * 2(4)
000253: 30,2545           77612                           SL4                                            #  BMAX*2(8)
000254: 30,2546           02342                           STORE    PRATE
000255: 30,2547           77745        PROK               DLOAD
000256: 30,2550           03515                                    TGO
000257: 30,2551           43205                           DMP      DAD                                   #  YDOT TGO
000258: 30,2552           02302                                    YDOT
000259: 30,2553           02326                                    Y                                     #  Y + YDOT TGO
000260: 30,2554           65225                           DSU      PDDL                                  #  Y + YDOT TGO - YCO
000261: 30,2555           03633                                    YCO                                   #  MPAC = - DY*2(-24.) IN PDL(8)       (10)
000262: 30,2556           02332                                    DYDOT
000263: 30,2557           43205                           DMP      DAD                                   #  D21 DYDOT - DY                      (8)
000264: 30,2560           00005                                    04D
000265: 30,2561           56312                           SL2      DDV                                   #  (D21 DYDOT - DY)/E*2(-9)
000266: 30,2562           40271                           DDV      SETPD                                 #  (D21 DYDOT - DY)/E TGO*2(8)
000267: 30,2563           03515                                    TGO                                   #    = D*2(8)
000268: 30,2564           00005                                    04
000269: 30,2565           02344                           STORE    YRATE
000270: 30,2566           41345        CONST              DLOAD    DMP                                   #  LOAD B*2(8)
000271: 30,2567           02342                                    PRATE                                 #  B D12*2(-9)
000272: 30,2570           00003                                    02D
000273: 30,2571           56325                           PDDL     DDV                                   #  D12 B IN PDL(4)                     (6)
000274: 30,2572           02330                                    DRDOT                                 #  LOAD DRDOT*2(-7)
000275: 30,2573           00001                                    00D                                   #  -DRDOT/L*2(-7)
000276: 30,2574           45302                           SR2      DSU                                   #  (-DRDOT/L-D12 B)=A*2(-9)             (4)
000277: 30,2575           77626                           STADR
000278: 30,2576           61441                           STODL    PCONS
000279: 30,2577           02344                                    YRATE                                 #  D*2(8)
000280: 30,2600           65205                           DMP      PDDL                                  #  D12 D,EXCH WITH -L IN PDL(0)       (2,2)
000281: 30,2601           60465                           BDDV     SR2                                   #  -DYDOT/L*2(-9)
000282: 30,2602           02332                                    DYDOT
000283: 30,2603           77625                           DSU                                            #  (-DYDOT/L-D12 D)=C*2(-9)
000284: 30,2604           00001                                    00D
000285: 30,2605           02340                           STORE    YCONS


000287: 30,2606           43001        CMPONENT           SETPD    BOFF
000288: 30,2607           00001                                    00D
000289: 30,2610           04742                                    P7071FLG
000290: 30,2611           60614                                    +3                                    #  IF P7071FLG = 1 (I.E. P70 OR P71)
000291: 30,2612           77624                           CALL                                           #      COMPUTE NEW RP FOR NEXT CYCLE.
000292: 30,2613           71571                                    RPCOMP2
000293: 30,2614           41345                 +3        DLOAD    DMP
000294: 30,2615           27747                                    100CS
000295: 30,2616           02342                                    PRATE                                 #  B(T-T0)*2(-9)
000296: 30,2617           56215                           DAD      DDV                                   #  (A+B(T-T0))*2(-9)
000297: 30,2620           02336                                    PCONS                                 #  (A+B(T-T0))/TBUP*2(8)
000298: 30,2621           02262                                    TBUP
000299: 30,2622           45352                           SL1      DSU
000300: 30,2623           02306                                    GEFF                                  #  ATR*2(9)
000301: 30,2624           16350                           STODL    ATR
000302: 30,2625           27747                                    100CS
000303: 30,2626           43205                           DMP      DAD
000304: 30,2627           02344                                    YRATE
000305: 30,2630           02340                                    YCONS                                 #  (C+D(T-T0))*2(-9)
000306: 30,2631           72471                           DDV      SL1
000307: 30,2632           02262                                    TBUP
000308: 30,2633           02346                           STORE    ATY                                   #  ATY*2(9)
000309: 30,2634           65361                           VXSC     PDDL                                  #  ATY UY*2(8)                         (6)
000310: 30,2635           02274                                    LAXIS
000311: 30,2636           02350                                    ATR
000312: 30,2637           53361                           VXSC     VAD                                   #                                      (0)
000313: 30,2640           03535                                    UNIT/R/
000314: 30,2641           41572                           VSL1     PUSH                                  #  AH*2(9) IN PDL(0)                   (6)
000315: 30,2642           65246                           ABVAL    PDDL                                  #  AH(2) IN PDL(34)
000316: 30,2643           02254                                    AT                                    #  AHMAG IN PDL(6)                     (8)
000317: 30,2644           45316                           DSQ      DSU                                   #  (AT(2)-AH(2))*2(18)
000318: 30,2645           00043                                    34D                                   #  =ATP2*2(18)
000319: 30,2646           41525                           PDDL     PUSH                                  #                                      (12)
000320: 30,2647           02254                                    AT
000321: 30,2650           45316                           DSQ      DSU                                   #  (AT(2)KR(2)-AH(2))*2(18)            (10)
000322: 30,2651           00043                                    34D                                   #  =ATP3*2(18)
000323: 30,2652           71240                           BMN      DLOAD                                 #  IF ATP3 NEG,GO TO NO-ATP
000324: 30,2653           60657                                    NO-ATP                                #  LOAD ATP2,IF ATP3 POS
000325: 30,2654           00011                                    8D
000326: 30,2655           52166                           SQRT     GOTO                                  #  ATP*2(9)
000327: 30,2656           60665                                    AIMER
000328: 30,2657           55345        NO-ATP             DLOAD    BDDV                                  #  KR AT/AH = KH                       (8)
000329: 30,2660           00007                                    6D
000330: 30,2661           77761                           VXSC                                           #  KH AH*2(9)
000331: 30,2662           00001                                    00D
000332: 30,2663           14001                           STODL    00D                                   #  STORE NEW AH IN PDL(0)
000333: 30,2664           06520                                    HI6ZEROS
000334: 30,2665           77765        AIMER              SIGN
000335: 30,2666           02334                                    DZDOT
000336: 30,2667           02352                           STORE    ATP


000338: 30,2670           77761                           VXSC
000339: 30,2671           02575                                    ZAXIS1                                #  ATP ZAXIS *2(8).
000340: 30,2672           53372                           VSL1     VAD                                   #  AT*2(9)
000341: 30,2673           00001                                    00D
000342: 30,2674           03253                           STORE    UNFC/2                                #  WILL BE OVERWRITTEN IF IN VERT. RISE.
000343: 30,2675           43001                           SETPD    BON
000344: 30,2676           00001                                    00D
000345: 30,2677           04704                                    FLPI
000346: 30,2700           60210                                    P12RET
000347: 30,2701           77614                           BON
000348: 30,2702           04701                                    FLVR
000349: 30,2703           60757                                    CHECKALT
000350: 30,2704           57575        MAINLINE           VLOAD    VCOMP
000351: 30,2705           03535                                    UNIT/R/
000352: 30,2706           17261                           STODL    UNWC/2
000353: 30,2707           03654                                    TXO
000354: 30,2710           51025                           DSU      BPL
000355: 30,2711           01234                                    PIPTIME
000356: 30,2712           60720                                    ASCTERM
000357: 30,2713           77614                           BON
000358: 30,2714           04711                                    ROTFLAG
000359: 30,2715           57272                                    ANG1CHEK
000360: 30,2716           77614        CLRXFLAG           CLEAR
000361: 30,2717           06666                                    XOVINFLG                              #    (XOVINFLG)
000362: 30,2720           77776        ASCTERM            EXIT
000363: 30,2721           30105                           CA       FLAGWRD9
000364: 30,2722           74742                           MASK     FLRCSBIT
000365: 30,2723           10000                           CCS      A
000366: 30,2724           12750                           TCF      ASCTERM3
000367: 30,2725           06051                           TC       INTPRET
000368: 30,2726           77624                           CALL
000369: 30,2727           61073                                    FINDCDUW   -2
000370: 30,2730           77776        ASCTERM1           EXIT
000371: 30,2731           30105                 +1        CA       FLAGWRD9                              #  INSURE THAT THE NOUN 63 DISPLAY IS
000372: 30,2732           74742                           MASK     FLRCSBIT                              #  BYPASSED IF WE ARE IN THE RCS TRIMMING
000373: 30,2733           10000                           CCS      A                                     #  MODE OF OPERATION
000374: 30,2734           12750                           TCF      ASCTERM3
000375: 30,2735           30104                           CA       FLAGWRD8                              #  BYPASS DISPLAYS IF ENGINE FAILURE IS
000376: 30,2736           74742                           MASK     FLUNDBIT                              #  INDICATED.
000377: 30,2737           10000                           CCS      A
000378: 30,2740           12750                           TCF      ASCTERM3
000379: 30,2741           37723                           CAF      PRIO23                                #  RAISE PRIORITY SO MAKEPLAY WILL BE SET
000380: 30,2742           05146                           TC       PRIOCHNG                              #    UP AT A HIGHER PRIORITY THAN SERVICER
000381: 30,2743           33013                           CAF      V06N94
000382: 30,2744           04616                           TC       BANKCALL
000383: 30,2745           20471                           CADR     REGODSPR
000384: 30,2746           34736                           CAF      PRIO20                                #  RETURN TO NORMAL SERVICER PRIORITY
000385: 30,2747           05146                           TC       PRIOCHNG
000386: 30,2750           04635        ASCTERM3           TC       POSTJUMP
000387: 30,2751           66102                           CADR     PIPCYCLE


000389: 30,2752           77776        ASCTERM4           EXIT
000390: 30,2753           00004                           INHINT
000391: 30,2754           04674                           TC       IBNKCALL                              #  NO GUIDANCE THIS CYCLE -- HENCE ZERO
000392: 30,2755           40166                           CADR     STOPRATE                              #  THE DAP COMMANDED RATES.
000393: 30,2756           12731                           TCF      ASCTERM1   +1
000394:
000395: 30,2757           45345        CHECKALT           DLOAD    DSU
000396: 30,2760           02272                                    /R/MAG
000397: 30,2761           02324                                    /LAND/
000398: 30,2762           50025                           DSU      BMN                                   #  IF H LT 25K CHECK Z AXIS ORIENTATION.
000399: 30,2763           26036                                    25KFT
000400: 30,2764           57312                                    CHECKYAW
000401: 30,2765           43014        EXITVR             CLEAR    BON
000402: 30,2766           04661                                    FLVR
000403: 30,2767           04711                                    ROTFLAG
000404: 30,2770           60704                                    MAINLINE
000405: 30,2771           43345                           DLOAD    DAD
000406: 30,2772           01234                                    PIPTIME
000407: 30,2773           25723                                    10SECS
000408: 30,2774           37654                           STCALL   TXO
000409: 30,2775           60704                                    MAINLINE
000410: 30,2776           77614        EXITVR1            CLRGO
000411: 30,2777           04631                                    ROTFLAG
000412: 30,3000           60765                                    EXITVR
000413:
000414: 27,2000                                           SETLOC   ASENT1
000415: 27,2000                                           BANK
000416: 27,3272                                           COUNT*   $$/ASENT
000417:
000418: 27,3272           53575        ANG1CHEK           VLOAD    UNIT
000419: 27,3273           03253                                    UNFC/2
000420: 27,3274           77641                           DOT
000421: 27,3275           02137                                    XNBPIP
000422: 27,3276           51025                           DSU      BPL
000423: 27,3277           02555                                    COSTHET1
000424: 27,3300           57307                                    OFFROT
000425: 27,3301           50375                           VLOAD    DOT
000426: 27,3302           02137                                    XNBPIP
000427: 27,3303           03535                                    UNIT/R/
000428: 27,3304           50025                           DSU      BMN
000429: 27,3305           02557                                    COSTHET2
000430: 27,3306           71540                                    KEEPVR1
000431: 27,3307           77614        OFFROT             CLRGO
000432: 27,3310           04631                                    ROTFLAG
000433: 27,3311           60716                                    CLRXFLAG
000434:
000435: 07,2661                                           BANK     7
000436: 27,2000                                           SETLOC   ASENT1
000437: 27,2000                                           BANK
000438: 27,3312                                           COUNT*   $$/ASENT
000439:


000441: 27,3312  27,3312               SETXFLAG           =        CHECKYAW
000442:
000443: 27,3312           77614        CHECKYAW           SET
000444: 27,3313           06466                                    XOVINFLG                              #  PROHIBIT X-AXIS OVERRIDE
000445: 27,3314           74345                           DLOAD    VXSC
000446: 27,3315           02346                                    ATY
000447: 27,3316           02274                                    LAXIS
000448: 27,3317           74325                           PDDL     VXSC
000449: 27,3320           02352                                    ATP
000450: 27,3321           02575                                    ZAXIS1
000451: 27,3322           53455                           VAD      UNIT
000452: 27,3323           45325                           PDDL     DSU
000453: 27,3324           03474                                    RDOT
000454: 27,3325           17332                                    40FPS
000455: 27,3326           52044                           BPL      GOTO
000456: 27,3327           60776                                    EXITVR1
000457: 27,3330           71536                                    KEEPVR
000458:
000459: 27,3331           00017 23305  40FPS              2DEC     0.12192    B-7
000460:
000461: 34,3536                                           BANK     34
000462: 34,2000                                           SETLOC   ASENT8
000463: 34,2000                                           BANK
000464: 34,3536                                           COUNT*   $$/ASENT
000465:
000466: 34,3536           45575        KEEPVR             VLOAD    STADR                                 #  RECALL LOSVEC FROM PUSHLIST
000467: 34,3537           74516                           STORE    UNWC/2
000468: 34,3540           77775        KEEPVR1            VLOAD
000469: 34,3541           03535                                    UNIT/R/
000470: 34,3542           37253                           STCALL   UNFC/2
000471: 34,3543           60720                                    ASCTERM
000472:
000473:
000474: 14,2347                                           BANK     14
000475: 14,2000                                           SETLOC   ASENT4
000476: 14,2000                                           BANK
000477: 14,2347                                           COUNT*   $$/ASENT
000478:
000479: 14,2347           77634        ENGOFF             RTB
000480: 14,2350           21555                                    LOADTIME
000481: 14,2351           43225                           DSU      DAD
000482: 14,2352           01234                                    PIPTIME
000483: 14,2353           03454                                    TTOGO
000484: 14,2354           77476                           DCOMP    EXIT
000485: 14,2355           07271                           TC       TPAGREE                               #  FORCE SIGN AGREEMENT ON MPAC, MPAC +1.
000486: 14,2356           35016                           CAF      EBANK7
000487: 14,2357           54003                           TS       EBANK
000488: 14,2360  E7,1514                                  EBANK=   TGO
000489: 14,2360           00004                           INHINT
000490: 14,2361           10155                           CCS      MPAC       +1


000492: 14,2362           12365                           TCF      +3                                    #  C(A) = DT - 1 BIT
000493: 14,2363           12365                           TCF      +2                                    #  C(A) = 0
000494: 14,2364           34755                           CAF      ZERO                                  #  C(A) = 0
000495: 14,2365           64753                           AD       BIT1                                  #  C(A) = 1 BIT OR DT.
000496: 14,2366           55644                           TS       ENGOFFDT
000497: 14,2367           05204                           TC       TWIDDLE
000498: 14,2370           02402                           ADRES    ENGOFF1
000499: 14,2371           05364                           TC       PHASCHNG
000500: 14,2372           47014                           OCT      47014
000501: 14,2373           76133                           -GENADR  ENGOFFDT
000502: 14,2374  E7,1514                                  EBANK=   TGO
000503: 14,2374           02402 30067                     2CADR    ENGOFF1
000504:
000505: 14,2376           06051                           TC       INTPRET
000506: 14,2377           52014                           SET      GOTO
000507: 14,2400           03470                                    IDLEFLAG                              #  DISABLE DELTA-V MONITOR
000508: 14,2401           60446                                    T2TEST
000509:
000510: 14,2402           04674        ENGOFF1            TC       IBNKCALL                              #  SHUT OFF THE ENGINE.
000511: 14,2403           75551                           CADR     ENGINOF2
000512:
000513: 14,2404           35027                           CAF      PRIO17                                #  SET UP A JOB FOR THE ASCENT GUIDANCE
000514: 14,2405           05072                           TC       NOVAC
000515: 14,2406  E7,1455                                  EBANK=   WHICH
000516: 14,2406           02416 30067                     2CADR    CUTOFF
000517:
000518: 14,2410           05364                           TC       PHASCHNG
000519: 14,2411           07024                           OCT      07024
000520: 14,2412           17000                           OCT      17000
000521: 14,2413  E7,1514                                  EBANK=   TGO
000522: 14,2413           02416 30067                     2CADR    CUTOFF
000523:
000524: 14,2415           15272                           TCF      TASKOVER
000525:
000526: 14,2416           05515        CUTOFF             TC       UPFLAG                                #  SET FLRCS FLAG.
000527: 14,2417           00214                           ADRES    FLRCS
000528:
000529: 14,2420           32437                 -5        CAF      V16N63
000530: 14,2421           04616                           TC       BANKCALL
000531: 14,2422           20477                           CADR     GOFLASH
000532: 14,2423           12426                           TCF      +3
000533: 14,2424           12430                           TCF      CUTOFF1
000534: 14,2425           12420                           TCF      -5
000535:
000536: 14,2426           04635                 +3        TC       POSTJUMP
000537: 14,2427           71554                           CADR     TERMASC
000538:
000539: 14,2430           00004        CUTOFF1            INHINT
000540: 14,2431           04674                           TC       IBNKCALL                              #  ZERO ATTITUDE ERRORS BEFORE REDUCING DB.
000541: 14,2432           40154                           CADR     ZATTEROR


000543: 14,2433           04674                           TC       IBNKCALL
000544: 14,2434           40141                           CADR     SETMINDB
000545: 14,2435           04635                           TC       POSTJUMP
000546: 14,2436           71544                           CADR     CUTOFF2
000547:
000548: 14,2437           04077        V16N63             VN       1663
000549: 34,3544                                           BANK     34
000550: 34,2000                                           SETLOC   ASENT8
000551: 34,2000                                           BANK
000552: 34,3544                                           COUNT*   $$/ASENT
000553:
000554: 34,3544           05364        CUTOFF2            TC       PHASCHNG
000555: 34,3545           04024                           OCT      04024
000556:
000557: 34,3546           33564                           CAF      V16N85C
000558: 34,3547           04616                           TC       BANKCALL
000559: 34,3550           20477                           CADR     GOFLASH
000560: 34,3551           13554                           TCF      TERMASC
000561: 34,3552           13554                           TCF      +2                                    #  PROCEED
000562: 34,3553           13544                           TCF      CUTOFF2
000563:
000564: 34,3554           05364        TERMASC            TC       PHASCHNG
000565: 34,3555           04024                           OCT      04024
000566:
000567: 34,3556           00004                           INHINT                                         #  RESTORE DEADBAND DESIRED BY ASTRONAUT.
000568: 34,3557           04674                           TC       IBNKCALL
000569: 34,3560           40115                           CADR     RESTORDB
000570: 34,3561           05527                           TC       DOWNFLAG                              #  DISALLOW ABORTS AT THIS TIME.
000571: 34,3562           00215                           ADRES    LETABORT
000572: 34,3563           16001                           TCF      GOTOPOOH
000573:
000574: 34,3564           04125        V16N85C            VN       1685
000575:
000576: 34,3565           77745        RPCOMP1            DLOAD                                          #  FLRCS = 1 (TRIM MODE)
000577: 34,3566           06520                                    HI6ZEROS
000578: 34,3567           02336                           STORE    PCONS                                 #  SET PCONS = PRATE = 0 SO THAT
000579: 34,3570           02342                           STORE    PRATE                                 #      RP = R + RDOT TGO
000580: 34,3571           41345        RPCOMP2            DLOAD    DMP                                   #  FLRCS = 0 (GUIDANCE MODE)
000581: 34,3572           02342                                    PRATE                                 #  LEAVE PCONS AND PRATE ALONE SO THAT
000582: 34,3573           03515                                    TGO                                   #      RP = R + RDOT TGO + (PCONS*TGO**2)/
000583: 34,3574           43205                           DMP      DAD                                   #      (2 TBUP) + (PRATE*TGO**3)/(6 TBUP)
000584: 34,3575           33653                                    THIRD
000585: 34,3576           02336                                    PCONS
000586: 34,3577           41205                           DMP      DMP
000587: 34,3600           03515                                    TGO
000588: 34,3601           03515                                    TGO
000589: 34,3602           72471                           DDV      SL1
000590: 34,3603           02262                                    TBUP
000591: 34,3604           65215                           DAD      PDDL
000592: 34,3605           02272                                    /R/MAG


000594: 34,3606           03474                                    RDOT
000595: 34,3607           43205                           DMP      DAD
000596: 34,3610           03515                                    TGO
000597: 34,3611           77626                           STADR
000598: 34,3612           75212                           STORE    RP
000599: 34,3613           77616                           RVQ
000600:
000601: 34,3614           45020        ZDOTDCMP           STQ      CALL                                  #  COMPUTE CENTRAL ANGLE                (0)
000602: 34,3615           02620                                    ASCSAVE
000603: 34,3616           71644                                    THETCOMP
000604: 34,3617           43205                           DMP      DAD                                   #  CENTRAL ANGLE IN MPAC
000605: 34,3620           02563                                    KPARM
000606: 34,3621           02561                                    JPARM
000607: 34,3622           41425                           DSU      PUSH                                  #  RA IN MPAC AND IN PUSHLIST          (2)
000608: 34,3623           02565                                    RP
000609: 34,3624           51025                           DSU      BPL
000610: 34,3625           02547                                    RAMIN
000611: 34,3626           71631                                    +3
000612: 34,3627           65345                           DLOAD    PDDL                                  #  RA < RAMIN.  SET RA = RAMIN.        (2)
000613: 34,3630           02547                                    RAMIN
000614: 34,3631           41345                 +3        DLOAD    DMP
000615: 34,3632           00001                                    0D
000616: 34,3633           16025                                    MUM(-37)
000617: 34,3634           77725                           PDDL
000618: 34,3635           41215                           DAD      DMP
000619: 34,3636           02565                                    RP
000620: 34,3637           02565                                    RP
000621: 34,3640           75465                           BDDV     SQRT                                  #                                      (0)
000622: 34,3641           77626                           STADR
000623: 34,3642           41507                           STCALL   ZDOTD                                 #  UPDATE ZDOTD FOR GUIDANCE AND DOWNLINK.
000624: 34,3643           02620                                    ASCSAVE
000625:
000626: 34,3644           53575        THETCOMP           VLOAD    UNIT
000627: 34,3645           03517                                    R
000628: 34,3646           53515                           PDVL     UNIT                                  #                                      (6)
000629: 34,3647           01716                                    R(CSM)
000630: 34,3650           47206                           PUSH     VXV                                   #                                      (12)
000631: 34,3651           00001                                    0D
000632: 34,3652           77641                           DOT
000633: 34,3653           02316                                    WM
000634: 34,3654           24037                           STOVL    30D                                   #                                      (6)
000635: 34,3655           72441                           DOT      SL1                                   #                                      (0)
000636: 34,3656           75326                           ARCCOS   SIGN
000637: 34,3657           00037                                    30D
000638: 34,3660           77616                           RVQ
000639:
000640: 27,3333                                           BANK     27
000641: 27,2000                                           SETLOC   ASENT1
000642: 27,2000                                           BANK
000643: 27,3333                                           COUNT*   $$/ASENT
000644:


000646: 27,3333           50375        YCOMP              VLOAD    DOT
000647: 27,3334           03535                                    UNIT/R/
000648: 27,3335           02567                                    QAXIS
000649: 27,3336           41312                           SL2      DMP
000650: 27,3337           03631                                    RCO
000651: 27,3340           02326                           STORE    Y
000652: 27,3341           77616                           RVQ
000653:
000654:
000655: 30,3001                                           BANK     30
000656: 30,2000                                           SETLOC   ASENT
000657: 30,2000                                           BANK
000658:


000660:                                                                                                  #  ASCENT GUIDANCE CONSTANTS
000661:
000662: 30,3001  33,3746               100CS              EQUALS   2SEC(18)
000663: 30,3001  30,3003               T2A                EQUALS   2SEC(17)
000664: 30,3001           00062 00000  4SEC(17)           2DEC     400        B-17
000665:
000666: 30,3003           00031 00000  2SEC(17)           2DEC     200        B-17
000667:
000668: 30,3005           00175 00000  T3                 2DEC     1000       B-17
000669:
000670: 30,3007           00045 20000  6SEC(18)           2DEC     600        B-18
000671:
000672: 30,3011           14400 00000  2SEC(9)            2DEC     200        B-9
000673:
000674: 30,3013           01536        V06N94             VN       0694
000675: 30,3014           01514        V06N76             VN       0676
000676: 30,3015           01441        V06N33A            VN       0633
000677:
000678: 33,2031                                           BANK     33
000679: 33,2000                                           SETLOC   ASENT6
000680: 33,2000                                           BANK
000681: 33,2031                                           COUNT*   $$/ASENT
000682:
000683: 33,2031           75751 41775  PRLIMIT            2DEC     -.0639                                #  (B/TBUP)MIN=-.1FT.SEC(-3)
000684:
000685: 33,2033           00022 07212  MINABDV            2DEC     .0356      B-5                        #  10 PERCENT BIGGER THAN GRAVITY
000686:
000687: 33,2035           00007 16100  25KFT              2DEC     7620       B-24
000688:


000690:                                                                                                  #  THE LOGARITHM SUBROUTINE
000691:
000692: 24,3644                                           BANK     24
000693: 30,2000                                           SETLOC   FLOGSUB
000694: 30,2000                                           BANK
000695:
000696:                                                                                                  #  INPUT ..... X IN MPAC
000697:                                                                                                  #  OUTPUT ..... -LOG(X) IN MPAC
000698:
000699: 30,3016           44301        LOGSUB             NORM     BDSU
000700: 30,3017           00163                                    MPAC       +6
000701: 30,3020           17753                                    NEARONE
000702: 30,3021           77776                           EXIT
000703: 30,3022           07234                           TC       POLY
000704: 30,3023           00006                           DEC      6          B-14
000705: 30,3024           00000 00002                     2DEC     .0000000060
000706:
000707: 30,3026           76777 77175                     2DEC     -.0312514377
000708:
000709: 30,3030           77400 75416                     2DEC     -.0155686771
000710:
000711: 30,3032           77507 65515                     2DEC     -.0112502068
000712:
000713: 30,3034           77741 63547                     2DEC     -.0018545108
000714:
000715: 30,3036           77052 55373                     2DEC     -.0286607906
000716:
000717: 30,3040           01167 30361                     2DEC     .0385598563
000718:
000719: 30,3042           76520 75267                     2DEC     -.0419361902
000720:
000721: 30,3044           34755                           CAF      ZERO
000722: 30,3045           54156                           TS       MPAC       +2
000723: 30,3046           00006                           EXTEND
000724: 30,3047           33063                           DCA      CLOG2/32
000725: 30,3050           52155                           DXCH     MPAC
000726: 30,3051           52132                           DXCH     BUF        +1
000727: 30,3052           30162                           CA       MPAC       +6
000728: 30,3053           07321                           TC       SHORTMP
000729: 30,3054           52156                           DXCH     MPAC       +1
000730: 30,3055           52155                           DXCH     MPAC
000731: 30,3056           52132                           DXCH     BUF        +1
000732: 30,3057           20155                           DAS      MPAC
000733: 30,3060           06051                           TC       INTPRET
000734: 30,3061           43476                           DCOMP    RVQ
000735:
000736: 30,3062           00542 34414  CLOG2/32           2DEC     .0216608494
000737:

End of include-file ASCENT_GUIDANCE.agc.  Parent file is MAIN.agc


