
Source Code


000002:                                                                                                  ## Copyright:   Public domain.
000003:                                                                                                  ## Filename:    ATTITUDE_MANEUVER_ROUTINE.agc
000004:                                                                                                  ## Purpose:     A log section of Zerlina 56, the final revision of
000005:                                                                                                  ##              Don Eyles's offline development program for the variable
000006:                                                                                                  ##              guidance period servicer. It also includes a new P66 with LPD
000007:                                                                                                  ##              (Landing Point Designator) capability, based on an idea of John
000008:                                                                                                  ##              Young's. Neither of these advanced features were actually flown,
000009:                                                                                                  ##              but Zerlina was also the birthplace of other big improvements to
000010:                                                                                                  ##              Luminary including the terrain model and new (Luminary 1E)
000011:                                                                                                  ##              analog display programs. Zerlina was branched off of Luminary 145,
000012:                                                                                                  ##              and revision 56 includes all changes up to and including Luminary
000013:                                                                                                  ##              183. It is therefore quite close to the Apollo 14 program,
000014:                                                                                                  ##              Luminary 178, where not modified with new features.
000015:                                                                                                  ## Reference:   pp. 347-368
000016:                                                                                                  ## Assembler:   yaYUL
000017:                                                                                                  ## Contact:     Ron Burkey <info@sandroid.org>.
000018:                                                                                                  ## Website:     www.ibiblio.org/apollo/index.html
000019:                                                                                                  ## Mod history: 2017-07-28 MAS  Created from Luminary 210.
000020:                                                                                                  ##              2017-08-22 RSB  Transcribed.
000021:


000023:                                                                                                  #  BLOCK 2 LGC ATTITUDE MANEUVER ROUTINE-KALCMANU
000024:
000025:
000026:                                                                                                  #  MOD 2           DATE 5/1/67     BY DON KEENE
000027:
000028:                                                                                                  #  PROGRAM DESCRIPTION
000029:
000030:                                                                                                  #       KALCMANU IS A ROUTINE WHICH GENERATES COMMANDS FOR THE LM DAP TO CHANGE THE ATTITUDE OF THE SPACECRAFT
000031:                                                                                                  #  DURING FREE FALL.  IT IS DESIGNED TO MANEUVER THE SPACECRAFT FROM ITS INITIAL ORIENTATION TO SOME DESIRED
000032:                                                                                                  #  ORIENTATION SPECIFIED BY THE PROGRAM WHICH CALLS KALCMANU, AVOIDING GIMBAL LOCK IN THE PROCESS.  IN THE
000033:                                                                                                  #  MOD 2 VERSION, THIS DESIRED ATTITUDE IS SPECIFIED BY A SET OF THREE COMMANDED CDU ANGLES STORED AS 2S COMPLEMENT
000034:                                                                                                  #  SINGLE PRECISION ANGLES IN THE THREE CONSECUTIVE LOCATIONS, CPHI, CTHETA, CPSI, WHERE
000035:
000036:                                                                                                  #       CPHI = COMMANDED OUTER GIMBAL ANGLE
000037:                                                                                                  #       CTHETA = COMMANDED INNER GIMBAL ANGLE
000038:                                                                                                  #       CPSI = COMMANDED MIDDLE GIMBAL ANGLE
000039:
000040:                                                                                                  #      WHEN POINTING A SPACECRAFT AXIS (E.I. X, Y, Z, THE AOT, THRUST AXIS, ETC) THE SUBROUTINE VECPOINT MAY BE
000041:                                                                                                  #  USED TO GENERATE THIS SET OF DESIRED CDU ANGLES (SEE DESCRIPTION IN R60)   -
000042:                                                                                                  #   WITH THIS INFORMATION KALCMANU DETERMINES THE DIRECTION OF THE SINGLE EQUIVALENT ROTATION (COF ALSO U) AND THE
000043:                                                                                                  #  MAGNITUDE OF THE ROTATION (AM) TO BRING THE S/C FROM ITS INITIAL ORIENTATION TO ITS FINAL ORIENTATION.
000044:                                                                                                  #  THIS DIRECTION REMAINS FIXED BOTH IN INERTIAL COORDINATES AND IN COMMANDED S/C AXES THROUGHOUT THE
000045:                                                                                                  #                   -
000046:                                                                                                  #  MANEUVER.  ONCE COF AND AM HAVE BEEN DETERMINED, KALCMANU THEN EXAMINES THE MANEUVER TO SEE IF IT WILL BRING
000047:                                                                                                  #                                        -
000048:                                                                                                  #  THE S/C THROUGH GIMBAL LOCK.  IF SO, COF AND AM ARE READJUSTED SO THAT THE S/C WILL JUST SKIM THE GIMBAL
000049:                                                                                                  #  LOCK ZONE AND ALIGN THE X-AXIS.  IN GENERAL A FINAL YAW  ABOUT X WILL BE NECESSARY TO COMPLETE THE MANEUVER.
000050:                                                                                                  #  NEEDLESS TO SAY, NEITHER THE INITIAL NOR THE FINAL ORIENTATION CAN BE IN GIMBAL LOCK.
000051:
000052:                                                                                                  #       FOR PROPER ATTITUDE CONTROL THE DIGITAL AUTOPILOT MUST BE GIVEN AN ATTITUDE REFERENCE WHICH IT CAN TRACK.
000053:                                                                                                  #  KALCMANU DOES THIS BY GENERATING A REFERENCE OF DESIRED GIMBAL ANGLES (CDUXD, CDUYD, CDUZD) WHICH ARE UPDATED
000054:                                                                                                  #  EVERY ONE SECOND DURING THE MANEUVER.  TO ACHIEVE A SMOOTHER SEQUENCE OF COMMANDS BETWEEN SUCCESSIVE UPDATES,
000055:                                                                                                  #  THE PROGRAM ALSO GENERATES A SET OF INCREMENTAL CDU ANGLES (DELDCDU) TO BE ADDED TO CDU DESIRED BY THE DIGITAL
000056:                                                                                                  #  AUTOPILOT.  KALCMANU ALSO CALCULATES THE COMPONENT MANEUVER RATES (OMEGAPD, OMEGAQD, OMEGARD), WHICH CAN
000057:                                                                                                  #                                       -
000058:                                                                                                  #  BE DETERMINED SIMPLY BY MULTIPLYING COF BY SOME SCALAR (ARATE) CORRESPONDING TO THE DESIRED ROTATIONAL RATE.
000059:
000060:                                                                                                  #       AUTOMATIC MANEUVERS ARE TIMED WITH THE HELP OF WAITLIST SO THAT AFTER A SPECIFIED INTERVAL THE Y AND Z
000061:                                                                                                  #  DESIRED RATES ARE SET TO ZERO AND THE DESIRED CDU ANGLES (CDUYD, CDUZD) ARE SET EQUAL TO THE FINAL DESIRED CDU
000062:                                                                                                  #  ANGLES (CTHETA, CPSI).  IF ANY YAW  REMAINS DUE TO GIMBAL LOCK AVOIDANCE, THE FINAL YAW  MANEUVER IS
000063:                                                                                                  #  CALCULATED AND THE DESIRED YAW  RATE SET TO SOME FIXED VALUE (ROLLRATE = + OR - 2 DEGREES PER SEC).
000064:                                                                                                  #  IN THIS CASE ONLY AN INCREMENTAL CDUX ANGLE (DELFROLL) IS SUPPLIED TO THE DAP.  AT THE END OF THE YAW
000065:                                                                                                  #  MANEUVER OR IN THE EVENT THAT THERE WAS NO FINAL YAW,  CDUXD IS SET EQUAL TO CPHI AND THE X-AXIS DESIRED
000066:                                                                                                  #  RATE SET TO ZERO.  THUS, UPON COMPLETION OF THE MANEUVER THE S/C WILL FINISH UP IN A LIMIT CYCLE ABOUT THE
000067:                                                                                                  #  DESIRED FINAL GIMBAL ANGLES.
000068:
000069:
000070:                                                                                                  #  PROGRAM LOGIC FLOW
000071:
000072:                                                                                                  #       KALCMANU IS CALLED AS A HIGH PRIORITY JOB WITH ENTRY POINTS AT KALCMAN3 AND VECPOINT.  IT FIRST PICKS
000073:                                                                                                  #  UP THE CURRENT CDU ANGLES TO BE USED AS THE BASIS FOR ALL COMPUTATIONS INVOLVING THE INITIAL S/C ORIENTATION.
000074:


000076:                                                                                                  #  IT THEN DETERMINES THE DIRECTION COSINE MATRICES RELATING BOTH THE INITIAL AND FINAL S/C ORIENTATION TO STABLE
000077:                                                                                                  #                *    *                                                                               *
000078:                                                                                                  #  MEMBER AXES (MIS, MFS).  IT ALSO COMPUTES THE MATRIX RELATING FINAL S/C AXES TO INITIAL S/C AXES (MFI).  THE
000079:                                                                                                  #  ANGLE OF ROTATION (AM) IS THEN EXTRACTED FROM THIS MATRIX, AND TESTS ARE MADE TO DETERMINE IF
000080:
000081:                                                                                                  #       A)  AM LESS THAN .25 DEGREES (MINANG)
000082:                                                                                                  #       B)  AM GREATER THAN 170 DEGREES (MAXANG)
000083:
000084:                                                                                                  #       IF AM LESS THAN .25 DEGREES, NO COMPLICATED AUTOMATIC MANEUVERING IS NECESSARY.  THEREFORE WE CAN SIMPLY
000085:                                                                                                  #  SET CDU DESIRED EQUAL TO THE FINAL CDU DESIRED ANGLES AND TERMINATE THE JOB.
000086:
000087:                                                                                                  #       IF AM IS GREATER THAN .25 DEGREES BUT LESS THAN 170 DEGREES, THE AXES OF THE SINGLE EQUIVALENT ROTATION
000088:                                                                                                  #    -                                                       *
000089:                                                                                                  #  (COF) IS EXTRACTED FROM THE SKEW SYMMETRIC COMPONENTS OF MFI.                            *     *
000090:                                                                                                  #       IF AM GREATER THAN 170 DEGREES AN ALTERNATE METHOD EMPLOYING THE SYMMETRIC PART OF MFI (MFISYM) IS USED
000091:                                                                                                  #                -
000092:                                                                                                  #  TO DETERMINE COF.
000093:
000094:                                                                                                  #       THE PROGRAM THEN CHECKS TO SEE IF THE MANEUVER AS COMPUTED WILL BRING THE S/C THROUGH GIMBAL LOCK.  IF
000095:                                                                                                  #  SO, A NEW MANEUVER IS CALCULATED WHICH WILL JUST SKIM THE GIMBAL LOCK ZONE AND ALIGN THE S/C X-AXIS.  THIS
000096:                                                                                                  #  METHOD ASSURES THAT THE ADDITIONAL MANEUVERING TO AVOID GIMBAL LOCK WILL BE KEPT TO A MINIMUM.  SINCE A FINAL
000097:                                                                                                  #  P AXIS YAW WILL BE NECESSARY, A SWITCH IS RESET (STATE SWITCH 31) TO ALLOW FOR THE COMPUTATION OF THIS FINAL
000098:                                                                                                  #  YAW.
000099:
000100:                                                                                                  #       AS STATED PREVIOUSLY KALCMANU GENERATES A SEQUENCE OF DESIRED GIMBAL ANGLES WHICH ARE UPDATED EVERY
000101:                                                                                                  #                                                                                               -
000102:                                                                                                  #  SECOND.  THIS IS ACCOMPLISHED BY A SMALL ROTATION OF THE DESIRED S/C FRAME ABOUT THE VECTOR COF.  THE NEW
000103:                                                                                                  #  DESIRED REFERENCE MATRIX IS THEN,
000104:
000105:                                                                                                  #                   *              *         *
000106:                                                                                                  #                  MIS       =    MIS       DEL
000107:                                                                                                  #                     N+1             N
000108:                                                                                                  #         *
000109:                                                                                                  #  WHERE DEL IS THE MATRIX CORRESPONDING TO THIS SMALL ROTATION.  THE NEW CDU ANGLES CAN THEN BE EXTRACTED
000110:                                                                                                  #        *
000111:                                                                                                  #  FROM MIS.
000112:
000113:                                                                                                  #       AT THE BEGINNING OF THE MANEUVER THE AUTOPILOT DESIRED RATES (OMEGAPD, OMEGAQD, OMEGARD) AND THE
000114:                                                                                                  #  MANEUVER TIMINGS ARE ESTABLISHED.  ON THE FIRST PASS AND ON ALL SUBSEQUENT UPDATES THE CDU DESIRED
000115:                                                                                                  #  ANGLES ARE LOADED WITH THE APPROPRIATE VALUES AND THE INCREMENTAL CDU ANGLES ARE COMPUTED.  THE AGC CLOCKS
000116:                                                                                                  #  (TIME1 AND TIME2) ARE THAN CHECKED TO SEE IF THE MANEUVER WILL TERMINATE BEFORE THE NEXT UPDATE.  IF
000117:                                                                                                  #  NOT, KALCMANU CALLS FOR ANOTHER UPDATE (RUN AS A JOB WITH PRIORITY TBD) IN ONE SECOND.  ANY DELAYS IN THIS
000118:                                                                                                  #  CALLING SEQUENCE ARE AUTOMATICALLY COMPENSATED IN CALLING FOR THE NEXT UPDATE.
000119:
000120:                                                                                                  #       IF IT IS FOUND THAT THE MANEUVER IS TO TERMINATE BEFORE THE NEXT UPDATE A ROUTINE IS CALLED (AS A WAIT-
000121:                                                                                                  #  LIST TASK) TO STOP THE MANEUVER AT THE APPROPRIATE TIME AS EXPLAINED ABOVE.
000122:


000124:                                                                                                  #  CALLING SEQUENCE
000125:
000126:                                                                                                  #       IN ORDER TO PERFORM A KALCMANU SUPERVISED MANEUVER, THE COMMANDED GIMBAL ANGLES MUST BE PRECOMPUTED AND
000127:                                                                                                  #  STORED IN LOCATIONS CPHI, CTHETA, CPSI.  THE USER:S PROGRAM MUST THEN CLEAR STATE SWITCH NO 33 TO ALLOW THE
000128:                                                                                                  #  ATTITUDE MANEUVER ROUTINE TO PERFORM ANY FINAL P-AXIS YAW INCURRED BY AVOIDING GIMBAL LOCK.  THE MANEUVER IS
000129:                                                                                                  #  THEN INITIATED BY ESTABLISHING THE FOLLOWING EXECUTIVE JOB
000130:
000131:                                                                                                  #                         *
000132:                                                                                                  #       CAF     PRIO    XX
000133:                                                                                                  #                       --
000134:                                                                                                  #       INHINT
000135:                                                                                                  #       TC         FINDVAC
000136:                                                                                                  #       2CADR      KALCMAN3
000137:                                                                                                  #       RELINT
000138:
000139:                                                                                                  #  THE USER:S PROGRAM MAY EITHER CONTINUE OR WAIT FOR THE TERMINATION OF THE MANEUVER.  IF THE USER WISHES TO
000140:                                                                                                  #  WAIT, HE MAY PUT HIS JOB TO SLEEP WITH THE FOLLOWING INSTRUCTIONS
000141:
000142:                                                                                                  #       L          TC        BANKCALL
000143:                                                                                                  #       L+1        CADR      ATTSTALL
000144:                                                                                                  #       L+2        (BAD      RETURN)
000145:                                                                                                  #       L+3        (GOOD     RETURN)
000146:
000147:                                                                                                  #       UPON COMPLETION OF THE MANEUVER, THE PROGRAM WILL BE AWAKENED AT L+3 IF THE MANEUVER WAS COMPLETED
000148:                                                                                                  #  SUCCESSFULLY, OR AT L+2 IF THE MANEUVER WAS ABORTED.  THIS ABORT WOULD OCCUR IF THE INITIAL OR FINAL ATTITUDE
000149:                                                                                                  #  WAS IN GIMBAL LOCK.
000150:
000151:                                                                                                  #  ***NOTA BENE***  IT IS ASSUMED THAT THE DESIRED MANEUVERING RATE (0.5, 2, 5, 10, DEG/SEC) HAS BEEN SELECTED BY
000152:                                                                                                  #  KEYBOARD ENTRY PRIOR TO THE EXECUTION OF KALCMANU.
000153:                                                                                                  #      IT IS ALSO ASSUMED THAT THE AUTOPILOT IS IN THE AUTO MODE.  IF THE MODE SWITCH IS CHANGED DURING THE
000154:                                                                                                  #  MANEUVER, KALCMANU WILL TERMINATE VIA GOODEND WITHIN 1 SECOND SO THAT R60 MAY REQUEST A TRIM OF THE S/C ATTITUDE
000155:                                                                                                  #  THIS IS THE ONLY MEANS FOR MANUALLY TERMINATING A KALCMANU SUPERVISED MANEUVER.
000156:                                                                                                  #  SUBROUTINES
000157:
000158:                                                                                                  #       KALCMANU USES A NUMBER OF INTERPRETIVE SUBROUTINES WHICH MAY BE OF GENERAL INTEREST.  SINCE THESE ROUTINES
000159:                                                                                                  #  WERE PROGRAMMED EXCLUSIVELY FOR KALCMANU, THEY ARE NOT, AS YET, GENERALLY AVAILABLE FOR USE BY OTHER PROGRAMS.
000160:
000161:                                                                                                  #       MXM3
000162:                                                                                                  #       ----
000163:
000164:                                                                                                  #       THIS SUBROUTINE MULTIPLIES TWO 3X3 MATRICES AND LEAVES THE RESULT IN THE FIRST 18 LOCATIONS OF THE PUSH
000165:                                                                                                  #  DOWN LIST, I.E.,
000166:
000167:                                                                                                  #                 (M    M    M )
000168:                                                                                                  #                 (  0   1    2)
000169:                                                                                                  #        *        (            )       *         *
000170:                                                                                                  #        M    =   (M    M    M )  =    M1   X    M2
000171:                                                                                                  #                 ( 3    4    5)
000172:                                                                                                  #                 (            )
000173:                                                                                                  #                 (M    M    M )
000174:


000176:                                                                                                  #                 ( 6    7    8)
000177:
000178:                                                                                                  #                                                                                        *
000179:                                                                                                  #       INDEX REGISTER X1 MUST BE LOADED WITH THE COMPLEMENT OF THE STARTING ADDRESS FOR M1, AND X2 MUST BE
000180:                                                                                                  #                                                         *
000181:                                                                                                  #  LOADED WITH THE COMPLEMENT OF THE STARTING ADDRESS FOR M2.   THE ROUTINE USES THE FIRST 20 LOCATIONS OF THE PUSH
000182:                                                                                                  #  DOWN LIST.  THE FIRST ELEMENT OF THE MATRIX APPEARS IN PDO.  PUSH UP FOR M .
000183:                                                                                                  #                                                                            8
000184:
000185:                                                                                                  #       TRANSPOS
000186:                                                                                                  #       --------
000187:
000188:                                                                                                  #       THIS ROUTINE TRANSPOSES A 3X3 MATRIX AND LEAVES THE RESULT IN THE PUSH DOWN LIST, I.E.,
000189:
000190:                                                                                                  #        *         * T
000191:                                                                                                  #        M    =    M1
000192:
000193:                                                                                                  #  INDEX REGISTER X1 MUST CONTAIN THE COMPLEMENT OF THE STARTING ADDRESS FOR M1.  PUSH UP FOR THE FIRST AND SUB-
000194:                                                                                                  #                        *
000195:                                                                                                  #  SEQUENT COMPONENTS OF M.   THIS SUBROUTINE ALSO USES THE FIRST 20 LOCATIONS OF THE PUSH DOWN LIST.
000196:
000197:                                                                                                  #       CDU TO DCM
000198:                                                                                                  #       ----------
000199:
000200:                                                                                                  #       THIS SUBROUTINE CONVERTS THREE CDU ANGLES IN T(MPAC) TO A DIRECTION COSINE MATRIX (SCALED BY 2) RELATING
000201:                                                                                                  #  THE CORRESPONDING S/C ORIENTATIONS TO THE STABLE MEMBER FRAME.  THE FORMULAS FOR THIS CONVERSION ARE
000202:
000203:                                                                                                  #        M    =    COSY  COSZ
000204:                                                                                                  #         0
000205:
000206:                                                                                                  #        M    =    -COSY  SINZ  COSX  +  SINY  SINX
000207:                                                                                                  #         1
000208:
000209:                                                                                                  #        M    =    COSY  SINZ  SINX  +  SINY  COSX
000210:                                                                                                  #         2
000211:
000212:                                                                                                  #        M    =    SINZ
000213:                                                                                                  #         3
000214:
000215:                                                                                                  #        M    =    COSZ  COSX
000216:                                                                                                  #         4
000217:
000218:                                                                                                  #        M    =    -COSZ  SINX
000219:                                                                                                  #         5
000220:
000221:                                                                                                  #        M    =    -SINY  COSZ
000222:                                                                                                  #         6
000223:
000224:                                                                                                  #        M    =    SINY  SINZ  COSX  +  COSY  SINX
000225:                                                                                                  #         7
000226:


000228:                                                                                                  #        M    =    -SINY  SINZ  SINX  +  COSY  COSX
000229:                                                                                                  #         8
000230:
000231:                                                                                                  #  WHERE      X    =    OUTER GIMBAL ANGLE
000232:                                                                                                  #             Y    =    INNER GIMBAL ANGLE
000233:                                                                                                  #             Z    =    MIDDLE GIMBAL ANGLE
000234:
000235:                                                                                                  #       THE INTERPRETATION OF THIS MATRIX IS AS FOLLOWS
000236:
000237:                                                                                                  #       IF A , A , A  REPRESENT THE COMPONENTS OF A VECTOR IN S/C AXES THEN THE COMPONENTS OF THE SAME VECTOR IN
000238:                                                                                                  #           X   Y   Z
000239:                                                                                                  #  STABLE MEMBER AXES (B , B , B ) ARE
000240:                                                                                                  #                       X   Y   Z
000241:
000242:                                                                                                  #             (B )                (A )
000243:                                                                                                  #             ( X)                ( X)
000244:                                                                                                  #             (  )                (  )
000245:                                                                                                  #             (  )           *    (  )
000246:                                                                                                  #             (B )      =    M    (A )
000247:                                                                                                  #             ( Y)                ( Y)
000248:                                                                                                  #             (  )                (  )
000249:                                                                                                  #             (B )                (A )
000250:                                                                                                  #             ( Z)                ( Z)
000251:
000252:                                                                                                  #      THE SUBROUTINE WILL STORE THIS MATRIX IN SEQUENTIAL LOCATIONS OF ERASABLE MEMORY AS SPECIFIED BY THE CALLING
000253:                                                                                                  #                                                                                                              *
000254:                                                                                                  #  PROGRAM.  TO DO THIS THE CALLING PROGRAM MUST FIRST LOAD X2 WITH THE COMPLEMENT OF THE STARTING ADDRESS FOR M.
000255:
000256:                                                                                                  #       INTERNALLY, THE ROUTINE USES THE FIRST 16 LOCATIONS OF THE PUSH DOWN LIST, ALSO STEP REGISTER S1 AND INDEX
000257:                                                                                                  #  REGISTER X2.
000258:
000259:
000260:                                                                                                  #       DCM TO CDU
000261:                                                                                                  #       ----------
000262:                                                                                                  #                                                                            *
000263:                                                                                                  #       THIS ROUTINE EXTRACTS THE CDU ANGLES FROM A DIRECTION COSINE MATRIX (M SCALED BY 2) RELATING S/C AXIS TO
000264:                                                                                                  #                                                                                  *
000265:                                                                                                  #  STABLE MEMBER AXES.  X1 MUST CONTAIN THE COMPLEMENT OF THE STARTING ADDRESS FOR M.  THE SUBROUTINE LEAVES THE
000266:                                                                                                  #  CORRESPONDING GIMBAL ANGLES IN V(MPAC) AS DOUBLE PRECISION 1:S COMPLEMENT ANGLES SCALED BY 2PI.  THE FORMULAS
000267:                                                                                                  #  FOR THIS CONVERSION ARE
000268:
000269:                                                                                                  #        Z    =    ARCSIN (M  )
000270:                                                                                                  #                           3
000271:
000272:                                                                                                  #        Y    =    ARCSIN (-M /COSZ)
000273:                                                                                                  #                            6
000274:
000275:                                                                                                  #  IF M  IS NEGATIVE, Y IS REPLACED BY PI SGN Y - Y
000276:                                                                                                  #      0
000277:


000279:                                                                                                  #        X    =    ARCSIN (-M /COSZ)
000280:                                                                                                  #                            5
000281:
000282:                                                                                                  #  IF M  IS NEGATIVE X IS REPLACED BY PI SGN X - X
000283:                                                                                                  #      4
000284:
000285:                                                                                                  #       THIS ROUTINE DOES NOT SET THE PUSH DOWN POINTER, BUT USES THE NEXT 8 LOCATIONS OF THE PUSH DOWN LIST AND
000286:                                                                                                  #  RETURNS THE POINTER TO ITS ORIGINAL SETTING.  THIS PROCEDURE ALLOWS THE CALLER TO STORE THE MATRIX AT THE TOP OF
000287:                                                                                                  #  THE PUSH DOWN LIST.
000288:
000289:
000290:                                                                                                  #       DELCOMP
000291:                                                                                                  #       -------
000292:
000293:                                                                                                  #                                                           *
000294:                                                                                                  #       THIS ROUTINE COMPUTES THE DIRECTION COSINE MATRIX (DEL) RELATING ON
000295:                                                                                                  #                                                                           -
000296:                                                                                                  #  IS ROTATED WITH RESPECT TO THE FIRST BY AN ANGLE, A, ABOUT A UNIT VECTOR, U.  THE FORMULA FOR THIS MATRIX IS
000297:
000298:                                                                                                  #        *         *           --T           *
000299:                                                                                                  #        DEL  =    I  COSA  +  UU (1-COSA) + V SINA
000300:                                                                                                  #                                             X
000301:
000302:                                                                                                  #  WHERE      *         (1    0    0)
000303:                                                                                                  #             I    =    (0    1    0)
000304:                                                                                                  #                       (0    0    1)
000305:
000306:
000307:                                                                                                  #                          2
000308:                                                                                                  #                       (U         U U       U  U )
000309:                                                                                                  #                       ( X         X Y       X  Z)
000310:                                                                                                  #                       (                         )
000311:                                                                                                  #             --T       (            2            )
000312:                                                                                                  #             UU   =    (U U       U         U U  )
000313:                                                                                                  #                       ( Y X       Y         Y Z )
000314:                                                                                                  #                       (                         )
000315:                                                                                                  #                       (                      2  )
000316:                                                                                                  #                       (U U       U U       U   )
000317:                                                                                                  #                       ( Z X       Z Y       Z   )
000318:
000319:
000320:                                                                                                  #                       (0         -U        U  )
000321:                                                                                                  #                       (            Z        Y )
000322:                                                                                                  #             *         (                       )
000323:                                                                                                  #             V    =    (U         0         -U )
000324:                                                                                                  #              X        ( Z                    X)
000325:                                                                                                  #                       (                       )
000326:                                                                                                  #                       (-U        U         0  )
000327:                                                                                                  #                       (  Y        X           )
000328:


000330:                                                                                                  #             -
000331:                                                                                                  #             U    =    UNIT ROTATION VECTOR RESOLVED INTO S/C AXES
000332:                                                                                                  #             A    =    ROTATION ANGLE
000333:
000334:                                                                                                  #                              *
000335:                                                                                                  #       THE INTERPRETATION OF DEL IS AS FOLLOWS
000336:
000337:                                                                                                  #       IF A , A , A  REPRESENT THE COMPONENT OF A VECTOR INTHE ROTATED FRAME, THEN THE COMPONENTS OF THE SAME
000338:                                                                                                  #           X   Y   Z
000339:                                                                                                  #  VECTOR IN THE ORIGINAL S/C AXES (B , B , B ) ARE
000340:                                                                                                  #                                    X   Y   Z
000341:
000342:                                                                                                  #              (B )                    (A )
000343:                                                                                                  #              ( X)                    ( X)
000344:                                                                                                  #              (  )           *        (  )
000345:                                                                                                  #              (B )     =    DEL       (A )
000346:                                                                                                  #              ( Y)                    ( Y)
000347:                                                                                                  #              (  )                    (  )
000348:                                                                                                  #              (B )                    (A )
000349:                                                                                                  #              ( Z)                    ( Z)
000350:
000351:                                                                                                  #       THE ROUTINE WILL STORE THIS MATRIX (SCALED UNITY) IN SEQUENTIAL LOCATIONS OF ERASABLE MEMORY BEGINNING WITH
000352:                                                                                                  #                                                                                              -
000353:                                                                                                  #  THE LOCATION CALLED DEL.  IN ORDER TO USE THE ROUTINE, THE CALLING PROGRAM MUST FIRST STORE U (A HALF UNIT
000354:                                                                                                  #  DOUBLE PRECISION VECTOR) IN THE SET OF ERASABLE LOCATIONS BEGINNING WITH THE ADDRESS CALLED COF.  THE ANGLE, A,
000355:                                                                                                  #  MUST THEN BE LOADED INTO D(MPAC).
000356:
000357:                                                                                                  #       INTERNALLY, THE PROGRAM ALSO USES THE FIRST 10 LOCATIONS OF THE PUSH DOWN LIST.
000358:
000359:
000360:                                                                                                  #       READCDUK
000361:                                                                                                  #       --------
000362:
000363:                                                                                                  #       THIS BASIC LANGUAGE SUBROUTINE LOADS T(MPAC) WITH THE THREE CDU ANGLES.
000364:
000365:
000366:                                                                                                  #      SIGNMPAC
000367:                                                                                                  #       --------
000368:
000369:                                                                                                  #       THIS IS A BASIC LANGUAGE SUBROUTINE WHICH LIMITS THE MAGNITUDE OF D(MPAC) TO + OR - DPOSMAX ON OVERFLOW.
000370:
000371:
000372:                                                                                                  #       PROGRAM STORAGE ALLOCATION
000373:
000374:                                                                                                  #             1)   FIXED MEMORY                       1059 WORDS
000375:                                                                                                  #             2)   ERASABLE MEMORY                      98
000376:                                                                                                  #             3)   STATE SWITCHES                        3
000377:


000379:                                                                                                  #             4)   FLAGS                                 1
000380:
000381:                                                                                                  #       JOB PRIORITIES
000382:
000383:                                                                                                  #             1)   KALCMANU                            TBD
000384:                                                                                                  #             2)   ONE SECOND UPDATE                   TBD
000385:
000386:
000387:                                                                                                  #       SUMMARY OF STATE SWITCHES AND FLAGWORDS USED BY KALCMANU.
000388:
000389:
000390:                                                                                                  #  STATE                FLAGWRD 2      SETTING             MEANING
000391:                                                                                                  #  SWITCH NO.            BIT NO.
000392:
000393:                                                                                                  #    *
000394:                                                                                                  #  31                      14            0       MANEUVER WENT THROUGH GIMBAL LOCK
000395:                                                                                                  #                                        1       MANEUVER DID NOT GO THROUGH GIMBAL LOCK
000396:
000397:                                                                                                  #    *
000398:                                                                                                  #  32                      13            0       CONTINUE UPDATE PROCESS
000399:                                                                                                  #                                        1       START UPDATE PROCESS
000400:
000401:                                                                                                  #  33                      12            0       PERFORM FINAL P-AXIS YAW IF REQUIRED
000402:                                                                                                  #                                        1       IGNORE ANY FINAL P-AXIS YAW
000403:
000404:                                                                                                  #  34                      11            0       SIGNAL END OF KALCMANU
000405:                                                                                                  #                                        1       KALCMANU IN PROCESS       USER MUST SET SWITCH BEFORE INITIATING
000406:
000407:
000408:                                                                                                  #          * INTERNAL TO KALCMANU
000409:
000410:
000411:                                                                                                  #       SUGGESTIONS FOR PROGRAM INTEGRATION
000412:
000413:                                                                                                  #       THE FOLLOWING VARIABLES SHOULD BE ASSIGNED TO UNSWITCH ERASABLE
000414:
000415:                                                                                                  #                       CPHI
000416:                                                                                                  #                       CTHETA
000417:                                                                                                  #                       CPSI
000418:                                                                                                  #                       POINTVSM  +5
000419:                                                                                                  #                       SCAXIS    +5
000420:                                                                                                  #                       DELDCDU
000421:                                                                                                  #                       DELDCDU1
000422:                                                                                                  #                       DELDCDU2
000423:                                                                                                  #                       RATEINDX
000424:
000425:                                                                                                  #       THE FOLLOWING SUBROUTINES MAY BE PUT IN A DIFFERENT BANK
000426:
000427:                                                                                                  #                       MXM3


000429:                                                                                                  #                       TRANSPOS
000430:                                                                                                  #                       SIGNMPAC
000431:                                                                                                  #                       READCDUK
000432:                                                                                                  #                       CDUTODCM
000433:


000435: 15,2050                                           BANK     15
000436: 22,2000                                           SETLOC   KALCMON1
000437: 22,2000                                           BANK
000438:
000439: 22,2004  E6,1675                                  EBANK=   BCDU
000440:
000441:                                                                                                  #  THE THREE DESIRED CDU ANGLES MUST BE STORED AS SINGLE PRECISION TWOS COMPLEMENT ANGLES IN THE THREE SUCCESSIVE
000442:                                                                                                  #  LOCATIONS, CPHI, CTHETA, CPSI.
000443:
000444: 22,2004                                           COUNT*   $$/KALC
000445: 22,2004           06051        KALCMAN3           TC       INTPRET                               #  PICK UP THE CURRENT CDU ANGLES AND
000446: 22,2005           77634                           RTB                                            #    COMPUTE THE MATRIX FROM INITIAL S/C
000447: 22,2006           44403                                    READCDUK                              #    AXES TO FINAL S/C AXES
000448: 22,2007           03276                           STORE    BCDU                                  #  STORE INITIAL S/C ANGLES
000449: 22,2010           51535                           SLOAD    ABS                                   #  CHECK THE MAGNITUDE OF THE DESIRED
000450: 22,2011           00324                                    CPSI                                  #  MIDDLE GIMBAL ANGLE
000451: 22,2012           51025                           DSU      BPL
000452: 22,2013           04403                                    LOCKANGL                              #  IF GREATER THAN 70 DEG ABORT MANEUVER
000453: 22,2014           44724                                    TOOBADF
000454: 22,2015           72364                           AXC,2    TLOAD
000455: 22,2016           03245                                    MIS
000456: 22,2017           03276                                    BCDU
000457: 22,2020           77624                           CALL                                           #  COMPUTE THE TRANSFORMATION FROM INITIAL
000458: 22,2021           44410                                    CDUTODCM                              #  S/C AXES TO STABLE MEMBER AXES
000459: 22,2022           72364                           AXC,2    TLOAD
000460: 22,2023           02221                                    MFS                                   #  PREPARE TO CALCULATE ARRAY MFS
000461: 22,2024           00322                                    CPHI
000462: 22,2025           77624                           CALL
000463: 22,2026           44410                                    CDUTODCM
000464: 22,2027           45160        SECAD              AXC,1    CALL                                  #  MIS AND MFS ARRAYS CALCULATED         $2
000465: 22,2030           03245                                    MIS
000466: 22,2031           44326                                    TRANSPOS
000467: 22,2032           45575                           VLOAD    STADR
000468: 22,2033           50460                           STOVL    TMIS       +12D
000469: 22,2034           77626                           STADR
000470: 22,2035           50466                           STOVL    TMIS       +6
000471: 22,2036           77626                           STADR
000472: 22,2037           74474                           STORE    TMIS                                  #  TMIS = TRANSPOSE(MIS) SCALED BY 2
000473: 22,2040           75160                           AXC,1    AXC,2
000474: 22,2041           03302                                    TMIS
000475: 22,2042           02221                                    MFS
000476: 22,2043           77624                           CALL
000477: 22,2044           44312                                    MXM3
000478: 22,2045           45575                           VLOAD    STADR
000479: 22,2046           51541                           STOVL    MFI        +12D
000480: 22,2047           77626                           STADR
000481: 22,2050           51547                           STOVL    MFI        +6
000482: 22,2051           77626                           STADR
000483: 22,2052           75555                           STORE    MFI                                   #  MFI = TMIS MFS (SCALED BY 4)
000484: 22,2053           45001                           SETPD    CALL                                  #  TRANSPOSE MFI IN PD LIST
000485:


000487: 22,2054           00023                                    18D
000488: 22,2055           44335                                    TRNSPSPD
000489: 22,2056           45575                           VLOAD    STADR
000490: 22,2057           50460                           STOVL    TMFI       +12D
000491: 22,2060           77626                           STADR
000492: 22,2061           50466                           STOVL    TMFI       +6
000493: 22,2062           77626                           STADR
000494: 22,2063           74474                           STORE    TMFI                                  #  TMFI = TRANSPOSE (MFI) SCALED BY 4
000495:
000496:                                                                                                  #  CALCULATE COFSKEW AND MFISYM
000497:
000498: 22,2064           45345                           DLOAD    DSU
000499: 22,2065           03305                                    TMFI       +2
000500: 22,2066           02224                                    MFI        +2
000501: 22,2067           45325                           PDDL     DSU                                   #  CALCULATE COF SCALED BY 2/SIN(AM)
000502: 22,2070           02226                                    MFI        +4
000503: 22,2071           03307                                    TMFI       +4
000504: 22,2072           45325                           PDDL     DSU
000505: 22,2073           03315                                    TMFI       +10D
000506: 22,2074           02234                                    MFI        +10D
000507: 22,2075           77666                           VDEF
000508: 22,2076           03325                           STORE    COFSKEW                               #  EQUALS MFISKEW
000509:
000510:                                                                                                  #  CALCULATE AM AND PROCEED ACCORDING TO ITS MAGNITUDE
000511:
000512: 22,2077           43345                           DLOAD    DAD
000513: 22,2100           02222                                    MFI
000514: 22,2101           02242                                    MFI        +16D
000515: 22,2102           43225                           DSU      DAD
000516: 22,2103           06510                                    DP1/4TH
000517: 22,2104           02232                                    MFI        +8D
000518: 22,2105           03333                           STORE    CAM                                   #  CAM = (MFI0+MFI4+MFI8-1)/2 HALF SCALE
000519: 22,2106           77726                           ARCCOS
000520: 22,2107           03335                           STORE    AM                                    #  AM=ARCCOS(CAM)  (AM SCALED BY 2)
000521: 22,2110           51025                           DSU      BPL
000522: 22,2111           04363                                    MINANG
000523: 22,2112           44117                                    CHECKMAX
000524: 22,2113           77751                           TLOAD                                          #  MANEUVER LESS THAN .25 DEGREES
000525: 22,2114           00322                                    CPHI                                  #  GO DIRECTLY INTO ATTITUDE HOLD
000526: 22,2115           37235                           STCALL   CDUXD                                 #  ABOUT COMMANDED ANGLES
000527: 22,2116           44742                                    TOOBADI                               #  STOP RATE AND EXIT
000528:
000529: 22,2117           45345        CHECKMAX           DLOAD    DSU
000530: 22,2120           03335                                    AM
000531: 22,2121           04365                                    MAXANG
000532: 22,2122           77244                           BPL      VLOAD
000533: 22,2123           44131                                    ALTCALC                               #  UNIT
000534: 22,2124           03325                                    COFSKEW                               #  COFSKEW
000535: 22,2125           77656                           UNIT
000536: 22,2126           03270                           STORE    COF                                   #  COF IS THE MANEUVER AXIS
000537:


000539: 22,2127           77650                           GOTO                                           #  SEE IF MANEUVER GOES THRU GIMBAL LOCK
000540: 22,2130           44744                                    LOCSKIRT
000541: 22,2131           53375        ALTCALC            VLOAD    VAD                                   #  IF AM GREATER THAN 170 DEGREES
000542: 22,2132           02222                                    MFI
000543: 22,2133           03303                                    TMFI
000544: 22,2134           77762                           VSR1
000545: 22,2135           27303                           STOVL    MFISYM
000546: 22,2136           02230                                    MFI        +6
000547: 22,2137           74455                           VAD      VSR1
000548: 22,2140           03311                                    TMFI       +6
000549: 22,2141           27311                           STOVL    MFISYM     +6
000550: 22,2142           02236                                    MFI        +12D
000551: 22,2143           74455                           VAD      VSR1
000552: 22,2144           03317                                    TMFI       +12D
000553: 22,2145           03317                           STORE    MFISYM     +12D                       #  MFISYM=(MFI+TMFI)/2   SCALED BY 4
000554:
000555:
000556:                                                                                                  #  CALCULATE COF
000557:
000558:
000559: 22,2146           70545                           DLOAD    SR1
000560: 22,2147           03333                                    CAM
000561: 22,2150           45325                           PDDL     DSU                                   #  PDO CAM                                $4
000562: 22,2151           06516                                    DPHALF
000563: 22,2152           03333                                    CAM
000564: 22,2153           65204                           BOVB     PDDL                                  #  PD2 1 - CAM                            $2
000565: 22,2154           21674                                    SIGNMPAC
000566: 22,2155           03323                                    MFISYM     +16D
000567: 22,2156           56225                           DSU      DDV
000568: 22,2157           00001                                    0
000569: 22,2160           00003                                    2
000570: 22,2161           65366                           SQRT     PDDL                                  #  COFZ = SQRT(MFISYM8-CAM)/1-CAM)
000571: 22,2162           03313                                    MFISYM     +8D                        #                                 $ ROOT 2
000572: 22,2163           56225                           DSU      DDV
000573: 22,2164           00001                                    0
000574: 22,2165           00003                                    2
000575: 22,2166           65366                           SQRT     PDDL                                  #  COFY = SQRT(MFISYM4-CAM)/(1-CAM)   $ROOT2
000576: 22,2167           03303                                    MFISYM
000577: 22,2170           56225                           DSU      DDV
000578: 22,2171           00001                                    0
000579: 22,2172           00003                                    2
000580: 22,2173           55566                           SQRT     VDEF                                  #  COFX = SQRT(MFISYM-CAM)/(1-CAM)   $ROOT 2
000581: 22,2174           77656                           UNIT
000582: 22,2175           03270                           STORE    COF
000583:
000584:                                                                                                  #  DETERMINE LARGEST COF AND ADJUST ACCORDINGLY
000585:
000586: 22,2176           45345        COFMAXGO           DLOAD    DSU
000587: 22,2177           03270                                    COF
000588: 22,2200           03272                                    COF        +2
000589: 22,2201           71240                           BMN      DLOAD                                 #  COFY G COFX
000590:


000592: 22,2202           44211                                    COMP12
000593: 22,2203           03270                                    COF
000594: 22,2204           50025                           DSU      BMN
000595: 22,2205           03274                                    COF        +4
000596: 22,2206           44266                                    METHOD3                               #  COFZ G COFX OR COFY
000597: 22,2207           77650                           GOTO
000598: 22,2210           44242                                    METHOD1                               #  COFX G COFY OR COFZ
000599: 22,2211           45345        COMP12             DLOAD    DSU
000600: 22,2212           03272                                    COF        +2
000601: 22,2213           03274                                    COF        +4
000602: 22,2214           77640                           BMN
000603: 22,2215           44266                                    METHOD3                               #  COFZ G COFY OR COFX
000604:
000605: 22,2216           51145        METHOD2            DLOAD    BPL                                   #  COFY MAX
000606: 22,2217           03327                                    COFSKEW    +2                         #  UY
000607: 22,2220           44224                                    U2POS
000608: 22,2221           57575                           VLOAD    VCOMP
000609: 22,2222           03270                                    COF
000610: 22,2223           03270                           STORE    COF
000611: 22,2224           51145        U2POS              DLOAD    BPL
000612: 22,2225           03305                                    MFISYM     +2                         #  UX UY
000613: 22,2226           44232                                    OKU21
000614: 22,2227           57545                           DLOAD    DCOMP                                 #  SIGN OF UX OPPOSITE TO UY
000615: 22,2230           03270                                    COF
000616: 22,2231           03270                           STORE    COF
000617: 22,2232           51145        OKU21              DLOAD    BPL
000618: 22,2233           03315                                    MFISYM     +10D                       #  UY UZ
000619: 22,2234           44744                                    LOCSKIRT
000620: 22,2235           57545                           DLOAD    DCOMP                                 #  SIGN OF UZ OPPOSITE TO UY
000621: 22,2236           03274                                    COF        +4
000622: 22,2237           03274                           STORE    COF        +4
000623: 22,2240           77650                           GOTO
000624: 22,2241           44744                                    LOCSKIRT
000625: 22,2242           51145        METHOD1            DLOAD    BPL                                   #  COFX MAX
000626: 22,2243           03325                                    COFSKEW                               #  UX
000627: 22,2244           44250                                    U1POS
000628: 22,2245           57575                           VLOAD    VCOMP
000629: 22,2246           03270                                    COF
000630: 22,2247           03270                           STORE    COF
000631: 22,2250           51145        U1POS              DLOAD    BPL
000632: 22,2251           03305                                    MFISYM     +2                         #  UX UY
000633: 22,2252           44256                                    OKU12
000634: 22,2253           57545                           DLOAD    DCOMP
000635: 22,2254           03272                                    COF        +2                         #  SIGN OF UY OPPOSITE TO UX
000636: 22,2255           03272                           STORE    COF        +2
000637: 22,2256           51145        OKU12              DLOAD    BPL
000638: 22,2257           03307                                    MFISYM     +4                         #  UX UZ
000639: 22,2260           44744                                    LOCSKIRT
000640: 22,2261           57545                           DLOAD    DCOMP                                 #  SIGN OF UZ OPPOSITE TO UY
000641: 22,2262           03274                                    COF        +4
000642:


000644: 22,2263           03274                           STORE    COF        +4
000645: 22,2264           77650                           GOTO
000646: 22,2265           44744                                    LOCSKIRT
000647: 22,2266           51145        METHOD3            DLOAD    BPL                                   #  COFZ MAX
000648: 22,2267           03331                                    COFSKEW    +4                         #  UZ
000649: 22,2270           44274                                    U3POS
000650: 22,2271           57575                           VLOAD    VCOMP
000651: 22,2272           03270                                    COF
000652: 22,2273           03270                           STORE    COF
000653: 22,2274           51145        U3POS              DLOAD    BPL
000654: 22,2275           03307                                    MFISYM     +4                         #  UX UZ
000655: 22,2276           44302                                    OKU31
000656: 22,2277           57545                           DLOAD    DCOMP
000657: 22,2300           03270                                    COF                                   #  SIGN OF UX OPPOSITE TO UZ
000658: 22,2301           03270                           STORE    COF
000659: 22,2302           51145        OKU31              DLOAD    BPL
000660: 22,2303           03315                                    MFISYM     +10D                       #  UY UZ
000661: 22,2304           44744                                    LOCSKIRT
000662: 22,2305           57545                           DLOAD    DCOMP
000663: 22,2306           03272                                    COF        +2                         #  SIGN OF UY OPPOSITE TO UZ
000664: 22,2307           03272                           STORE    COF        +2
000665: 22,2310           77650                           GOTO
000666: 22,2311           44744                                    LOCSKIRT


000668:                                                                                                  #  MATRIX OPERATIONS
000669:
000670: 13,2207                                           BANK     13
000671: 22,2000                                           SETLOC   KALCMON2
000672: 22,2000                                           BANK
000673:
000674: 22,2312  E6,1675                                  EBANK=   BCDU
000675:
000676: 22,2312           76601        MXM3               SETPD    VLOAD*                                #  MXM3 MULTIPLIES 2 3X3 MATRICES
000677: 22,2313           00001                                    0                                     #  AND LEAVES RESULT IN PD LIST
000678: 22,2314           00001                                    0,1                                   #  AND MPAC
000679: 22,2315           62703                           VXM*     PDVL*
000680: 22,2316           77776                                    0,2
000681: 22,2317           00007                                    6,1
000682: 22,2320           62703                           VXM*     PDVL*
000683: 22,2321           77776                                    0,2
000684: 22,2322           00015                                    12D,1
000685: 22,2323           41503                           VXM*     PUSH
000686: 22,2324           77776                                    0,2
000687: 22,2325           77616                           RVQ
000688:
000689:
000690:                                                                                                  #  RETURN WITH M1XM2 IN PD LIST
000691:
000692: 22,2326           76601        TRANSPOS           SETPD    VLOAD*                                #  TRANSPOS TRANSPOSES A 3X3 MATRIX
000693: 22,2327           00001                                    0                                     #   AND LEAVES RESULT IN PD LIST
000694: 22,2330           00001                                    0,1                                   #  MATRIX ADDRESS IN XR1
000695: 22,2331           62713                           PDVL*    PDVL*
000696: 22,2332           00007                                    6,1
000697: 22,2333           00015                                    12D,1
000698: 22,2334           77606                           PUSH                                           #  MATRIX IN PD
000699: 22,2335           77776        TRNSPSPD           EXIT                                           #  ENTER WITH MATRIX AT 0 IN PD LIST
000700: 22,2336           50120                           INDEX    FIXLOC
000701: 22,2337           52013                           DXCH     12
000702: 22,2340           50120                           INDEX    FIXLOC
000703: 22,2341           52017                           DXCH     16
000704: 22,2342           50120                           INDEX    FIXLOC
000705: 22,2343           52013                           DXCH     12
000706: 22,2344           50120                           INDEX    FIXLOC
000707: 22,2345           52015                           DXCH     14
000708: 22,2346           50120                           INDEX    FIXLOC
000709: 22,2347           52005                           DXCH     4
000710: 22,2350           50120                           INDEX    FIXLOC
000711: 22,2351           52015                           DXCH     14
000712: 22,2352           50120                           INDEX    FIXLOC
000713: 22,2353           52003                           DXCH     2
000714: 22,2354           50120                           INDEX    FIXLOC
000715: 22,2355           52007                           DXCH     6
000716: 22,2356           50120                           INDEX    FIXLOC
000717: 22,2357           52003                           DXCH     2
000718:


000720: 22,2360           06051                           TC       INTPRET
000721: 22,2361           77616                           RVQ
000722:
000723: 15,2050                                           BANK     15
000724: 22,2000                                           SETLOC   KALCMON1
000725: 22,2000                                           BANK
000726:
000727: 22,2362  E6,1675                                  EBANK=   BCDU
000728:
000729: 22,2362           00013 13563  MINANG             2DEC     0.00069375
000730: 22,2364           17070 34343  MAXANG             2DEC     0.472222222
000731:                                                                                                  #  GIMBAL LOCK CONSTANTS
000732:
000733:                                                                                                  #  D = MGA CORRESPONDING TO GIMBAL LOCK = 60 DEGREES
000734:                                                                                                  #           NGL = BUFFER ANGLE (TO AVOID DIVISIONS BY ZERO) = 2 DEGREES
000735:
000736: 22,2366           15666 20443  SD                 2DEC     .433015                               #  = SIN(D)                        $2
000737: 22,2370           33555 01106  K3S1               2DEC     .86603                                #  = SIN(D)                        $1
000738: 22,2372           67777 77777  K4                 2DEC     -.25                                  #  = -COS(D)                       $2
000739: 22,2374           04000 00000  K4SQ               2DEC     .125                                  #  = COS(D)COS(D)                  $2
000740: 22,2376           00216 36323  SNGLCD             2DEC     .008725                               #  = SIN(NGL)COS(D)                $2
000741: 22,2400           17773 00057  CNGL               2DEC     .499695                               #  COS(NGL)                        $2
000742: 22,2402           14344        LOCKANGL           DEC      .388889                               #  = 70 DEGREES
000743:                                                                                                  #  INTERPRETIVE SUBROUTINE TO READ THE CDU ANGLES
000744:
000745: 22,2403           30034        READCDUK           CA       CDUZ                                  #  LOAD T(MPAC) WITH CDU ANGLES
000746: 22,2404           54156                           TS       MPAC       +2
000747: 22,2405           00006                           EXTEND
000748: 22,2406           30033                           DCA      CDUX                                  #  AND CHANGE MODE TO TRIPLE PRECISION
000749: 22,2407           16510                           TCF      TLOAD      +6
000750:
000751:
000752: 22,2410           66370        CDUTODCM           AXT,1    SSP
000753: 22,2411           00003                           OCT      3
000754: 22,2412           00051                                    S1
000755: 22,2413           00001                           OCT      1                                     #  SET XR1, S1, AND PD FOR LOOP
000756: 22,2414           00010                           STORE    7
000757: 22,2415           77601                           SETPD
000758: 22,2416           00001                                    0
000759: 22,2417           47133        LOOPSIN            SLOAD*   RTB
000760: 22,2420           00013                                    10D,1
000761: 22,2421           21560                                    CDULOGIC
000762:


000764: 22,2422           00013                           STORE    10D                                   #  LOAD PD WITH  0 SIN(PHI)
000765: 22,2423           65356                           SIN      PDDL                                  #                2 COS(PHI)
000766: 22,2424           00013                                    10D                                   #                4 SIN(THETA)
000767: 22,2425           41546                           COS      PUSH                                  #                6 COS(THETA)
000768: 22,2426           71300                           TIX,1    DLOAD                                 #                8 SIN(PSI)
000769: 22,2427           44417                                    LOOPSIN                               #               10 COS(PSI)
000770: 22,2430           00007                                    6
000771: 22,2431           72405                           DMP      SL1
000772: 22,2432           00013                                    10D
000773: 22,2433           10001                           STORE    0,2                                   #  C0=COS(THETA)COS(PSI)
000774: 22,2434           41345                           DLOAD    DMP
000775: 22,2435           00005                                    4
000776: 22,2436           00001                                    0
000777: 22,2437           41325                           PDDL     DMP                                   #  (PD6 SIN(THETA)SIN(PHI))
000778: 22,2440           00007                                    6
000779: 22,2441           00011                                    8D
000780: 22,2442           72405                           DMP      SL1
000781: 22,2443           00003                                    2
000782: 22,2444           72421                           BDSU     SL1
000783: 22,2445           00015                                    12D
000784: 22,2446           10003                           STORE    2,2                                   #  C1=-COS(THETA)SIN(PSI)COS(PHI)
000785: 22,2447           41345                           DLOAD    DMP
000786: 22,2450           00003                                    2
000787: 22,2451           00005                                    4
000788: 22,2452           41325                           PDDL     DMP                                   #  (PD7 COS(PHI)SIN(THETA)) SCALED 4
000789: 22,2453           00007                                    6
000790: 22,2454           00011                                    8D
000791: 22,2455           72405                           DMP      SL1
000792: 22,2456           00001                                    0
000793: 22,2457           72415                           DAD      SL1
000794: 22,2460           00017                                    14D
000795: 22,2461           10005                           STORE    4,2                                   #  C2=COS(THETA)SIN(PSI)SIN(PHI)
000796: 22,2462           77745                           DLOAD
000797: 22,2463           00011                                    8D
000798: 22,2464           10007                           STORE    6,2                                   #  C3=SIN(PSI)
000799: 22,2465           77745                           DLOAD
000800: 22,2466           00013                                    10D
000801: 22,2467           72405                           DMP      SL1
000802: 22,2470           00003                                    2
000803: 22,2471           10011                           STORE    8D,2                                  #  C4=COS(PSI)COS(PHI)
000804: 22,2472           41345                           DLOAD    DMP
000805: 22,2473           00013                                    10D
000806: 22,2474           00001                                    0
000807: 22,2475           72476                           DCOMP    SL1
000808: 22,2476           10013                           STORE    10D,2                                 #  C5=-COS(PSI)SIN(PHI)
000809: 22,2477           41345                           DLOAD    DMP
000810: 22,2500           00005                                    4
000811: 22,2501           00013                                    10D
000812: 22,2502           72476                           DCOMP    SL1
000813: 22,2503           10015                           STORE    12D,2                                 #  C6=-SIN(THETA)COS(PSI)
000814:


000816: 22,2504           77745                           DLOAD
000817: 22,2505           72405                           DMP      SL1                                   #   (PUSH UP 7)
000818: 22,2506           00011                                    8D
000819: 22,2507           41325                           PDDL     DMP                                   #   (PD7 COS(PHI)SIN(THETA)SIN(PSI)) SCALE4
000820: 22,2510           00007                                    6
000821: 22,2511           00001                                    0
000822: 22,2512           72415                           DAD      SL1                                   #   (PUSH UP 7)
000823: 22,2513           77626                           STADR                                          #  C7=COS(PHI)SIN(THETA)SIN(PSI)
000824: 22,2514           67760                           STORE    14D,2                                 #   +COS(THETA)SIN(PHI)
000825: 22,2515           77745                           DLOAD
000826: 22,2516           72405                           DMP      SL1                                   #   (PUSH UP 6)
000827: 22,2517           00011                                    8D
000828: 22,2520           41325                           PDDL     DMP                                   #   (PD6 SIN(THETA)SIN(PHI)SIN(PSI)) SCALE4
000829: 22,2521           00007                                    6
000830: 22,2522           00003                                    2
000831: 22,2523           72425                           DSU      SL1                                   #   (PUSH UP 6)
000832: 22,2524           77626                           STADR
000833: 22,2525           67756                           STORE    16D,2                                 #  C8=-SIN(THETA)SIN(PHI)SIN(PSI)
000834: 22,2526           77616                           RVQ                                            #   +COS(THETA)COS(PHI)
000835:
000836:                                                                                                  #  CALCULATION OF THE MATRIX DEL......
000837:
000838:                                                                                                  #           *      *               --T           *
000839:                                                                                                  #           DEL = (IDMATRIX)COS(A)+UU (1-COS(A))+UX SIN(A)         SCALED 1
000840:
000841:                                                                                                  #                 -
000842:                                                                                                  #           WHERE U IS A UNIT VECTOR (DP SCALED 2) ALONG THE AXIS OF ROTATION.
000843:                                                                                                  #           A IS THE ANGLE OF ROTATION (DP SCALED 2)
000844:                                                                                                  #                                              -
000845:                                                                                                  #           UPON ENTRY THE STARTING ADDRESS OF U IS COF, AND A IS IN MPAC
000846:
000847: 22,2527           41401        DELCOMP            SETPD    PUSH                                  #  MPAC CONTAINS THE ANGLE A
000848: 22,2530           00001                                    0
000849: 22,2531           65356                           SIN      PDDL                                  #  PD0 = SIN(A)
000850: 22,2532           41546                           COS      PUSH                                  #  PD2 = COS(A)
000851: 22,2533           65302                           SR2      PDDL                                  #  PD2 = COS(A)                            $8
000852: 22,2534           41021                           BDSU     BOVB
000853: 22,2535           06516                                    DPHALF
000854: 22,2536           21674                                    SIGNMPAC
000855: 22,2537           77725                           PDDL                                           #  PD4 = 1-COS(A)
000856:
000857:                                                                                                  #  COMPUTE THE DIAGONAL COMPONENTS OF DEL
000858:
000859: 22,2540           03270                                    COF
000860: 22,2541           41316                           DSQ      DMP
000861: 22,2542           00005                                    4
000862: 22,2543           52415                           DAD      SL3
000863: 22,2544           00003                                    2
000864: 22,2545           77604                           BOVB
000865: 22,2546           21674                                    SIGNMPAC
000866:


000868: 22,2547           16222                           STODL    KEL                                   #  UX UX(1-COS(A)) +COS(A)                $1
000869: 22,2550           03272                                    COF        +2
000870: 22,2551           41316                           DSQ      DMP
000871: 22,2552           00005                                    4
000872: 22,2553           52415                           DAD      SL3
000873: 22,2554           00003                                    2
000874: 22,2555           77604                           BOVB
000875: 22,2556           21674                                    SIGNMPAC
000876: 22,2557           16232                           STODL    KEL        +8D                        #  UY UY(1-COS(A)) +COS(A)                $1
000877: 22,2560           03274                                    COF        +4
000878: 22,2561           41316                           DSQ      DMP
000879: 22,2562           00005                                    4
000880: 22,2563           52415                           DAD      SL3
000881: 22,2564           00003                                    2
000882: 22,2565           77604                           BOVB
000883: 22,2566           21674                                    SIGNMPAC
000884: 22,2567           02242                           STORE    KEL        +16D                       #  UZ UZ(1-COS(A)) +COS(A)                $1
000885:
000886:                                                                                                  #  COMPUTE THE OFF DIAGONAL TERMS OF DEL
000887:
000888: 22,2570           41345                           DLOAD    DMP
000889: 22,2571           03270                                    COF
000890: 22,2572           03272                                    COF        +2
000891: 22,2573           72405                           DMP      SL1
000892: 22,2574           00005                                    4
000893: 22,2575           41325                           PDDL     DMP                                   #  D6  UX UY (1-COS A)                 $ 4
000894: 22,2576           03274                                    COF        +4
000895: 22,2577           00001                                    0
000896: 22,2600           43206                           PUSH     DAD                                   #  D8  UZ SIN A                        $ 4
000897: 22,2601           00007                                    6
000898: 22,2602           41112                           SL2      BOVB
000899: 22,2603           21674                                    SIGNMPAC
000900: 22,2604           16230                           STODL    KEL        +6
000901: 22,2605           62421                           BDSU     SL2
000902: 22,2606           77604                           BOVB
000903: 22,2607           21674                                    SIGNMPAC
000904: 22,2610           16224                           STODL    KEL        +2
000905: 22,2611           03270                                    COF
000906: 22,2612           41205                           DMP      DMP
000907: 22,2613           03274                                    COF        +4
000908: 22,2614           00005                                    4
000909: 22,2615           65352                           SL1      PDDL                                  #  D6  UX UZ (1-COS A)                 $ 4
000910: 22,2616           03272                                    COF        +2
000911: 22,2617           41405                           DMP      PUSH                                  #  D8  UY SIN(A)
000912: 22,2620           00001                                    0
000913: 22,2621           62415                           DAD      SL2
000914: 22,2622           00007                                    6
000915: 22,2623           77604                           BOVB
000916: 22,2624           21674                                    SIGNMPAC
000917: 22,2625           16226                           STODL    KEL        +4                         #  UX UZ (1-COS(A))+UY SIN(A)
000918:


000920: 22,2626           62421                           BDSU     SL2
000921: 22,2627           77604                           BOVB
000922: 22,2630           21674                                    SIGNMPAC
000923: 22,2631           16236                           STODL    KEL        +12D                       #  UX UZ (1-COS(A))-UY SIN(A)
000924: 22,2632           03272                                    COF        +2
000925: 22,2633           41205                           DMP      DMP
000926: 22,2634           03274                                    COF        +4
000927: 22,2635           00005                                    4
000928: 22,2636           65352                           SL1      PDDL                                  #  D6  UY UZ (1-COS(A))                $ 4
000929: 22,2637           03270                                    COF
000930: 22,2640           41405                           DMP      PUSH                                  #  D8  UX SIN(A)
000931: 22,2641           00001                                    0
000932: 22,2642           62415                           DAD      SL2
000933: 22,2643           00007                                    6
000934: 22,2644           77604                           BOVB
000935: 22,2645           21674                                    SIGNMPAC
000936: 22,2646           16240                           STODL    KEL        +14D                       #  UY UZ(1-COS(A)) +UX SIN(A)
000937: 22,2647           62421                           BDSU     SL2
000938: 22,2650           77604                           BOVB
000939: 22,2651           21674                                    SIGNMPAC
000940: 22,2652           02234                           STORE    KEL        +10D                       #  UY UZ (1-COS(A)) -UX SIN(A)
000941: 22,2653           77616                           RVQ
000942:
000943:
000944:                                                                                                  #  DIRECTION COSINE MATRIX TO CDU ANGLE ROUTINE
000945:                                                                                                  #  X1 CONTAINS THE COMPLEMENT OF THE STARTING ADDRESS FOR MATRIX (SCALED 2)
000946:                                                                                                  #  LEAVES CDU ANGLES SCALED 2PI IN V(MPAC)
000947:                                                                                                  #  COS(MGA) WILL BE LEFT IN S1 (SCALED 1)
000948:
000949:                                                                                                  #  THE DIRECTION COSINE MATRIX RELATING S/C AXES TO STABLE MEMBER AXES CAN BE WRITTEN AS***
000950:
000951:                                                                                                  #           C =COS(THETA)COS(PSI)
000952:                                                                                                  #            0
000953:                                                                                                  #           C =-COS(THETA)SIN(PSI)COS(PHI)+SI (THETA)SIN(PHI)
000954:                                                                                                  #            1
000955:                                                                                                  #           C =COS(THETA)SIN(PSI)SIN(PHI) + S N(THETA)COS(PHI)
000956:                                                                                                  #            2
000957:                                                                                                  #           C =SIN(PSI)
000958:                                                                                                  #            3
000959:                                                                                                  #           C =COS(PSI)COS(PHI)
000960:                                                                                                  #            4
000961:                                                                                                  #           C =-COS(PSI)SIN(PHI)
000962:                                                                                                  #            5
000963:                                                                                                  #           C =-SIN(THETA)COS(PSI)
000964:                                                                                                  #            6
000965:                                                                                                  #           C =SIN(THETA)SIN(PSI)COS(PHI)+COS THETA)SIN(PHI)
000966:                                                                                                  #            7
000967:                                                                                                  #           C =-SIN(THETA)SIN(PSI)SIN(PHI)+CO (THETA)COS(PHI)
000968:                                                                                                  #            8
000969:


000971:
000972:                                                                                                  #           WHERE PHI = OGA
000973:                                                                                                  #                 THETA = IGA
000974:                                                                                                  #                 PSI = MGA
000975:
000976: 22,2654           67543        DCMTOCDU           DLOAD*   ARCSIN
000977: 22,2655           00007                                    6,1
000978: 22,2656           71406                           PUSH     COS                                   #  PD +0   PSI
000979: 22,2657           41152                           SL1      BOVB
000980: 22,2660           21674                                    SIGNMPAC
000981: 22,2661           00051                           STORE    S1
000982: 22,2662           57543                           DLOAD*   DCOMP
000983: 22,2663           00015                                    12D,1
000984: 22,2664           67471                           DDV      ARCSIN
000985: 22,2665           00051                                    S1
000986: 22,2666           51123                           PDDL*    BPL                                   #  PD +2  THETA
000987: 22,2667           00001                                    0,1                                   #  MUST CHECK THE SIGN OF COS(THETA)
000988: 22,2670           44702                                    OKTHETA                               #  TO DETERMINE THE PROPER QUADRANT
000989: 22,2671           57545                           DLOAD    DCOMP
000990: 22,2672           43244                           BPL      DAD
000991: 22,2673           44677                                    SUHALFA
000992: 22,2674           06516                                    DPHALF
000993: 22,2675           77650                           GOTO
000994: 22,2676           44701                                    CALCPHI
000995: 22,2677           77625        SUHALFA            DSU
000996: 22,2700           06516                                    DPHALF
000997: 22,2701           77606        CALCPHI            PUSH
000998: 22,2702           57543        OKTHETA            DLOAD*   DCOMP
000999: 22,2703           00013                                    10D,1
001000: 22,2704           67471                           DDV      ARCSIN
001001: 22,2705           00051                                    S1
001002: 22,2706           51123                           PDDL*    BPL                                   #  PUSH DOWN PHI
001003: 22,2707           00011                                    8D,1
001004: 22,2710           44722                                    OKPHI
001005: 22,2711           57545                           DLOAD    DCOMP                                 #  PUSH UP PHI
001006: 22,2712           43244                           BPL      DAD
001007: 22,2713           44717                                    SUHALFAP
001008: 22,2714           06516                                    DPHALF
001009: 22,2715           77650                           GOTO
001010: 22,2716           44723                                    VECOFANG
001011: 22,2717           52025        SUHALFAP           DSU      GOTO
001012: 22,2720           06516                                    DPHALF
001013: 22,2721           44723                                    VECOFANG
001014: 22,2722           77745        OKPHI              DLOAD                                          #  PUSH UP PHI
001015: 22,2723           43466        VECOFANG           VDEF     RVQ
001016:


001018:                                                                                                  #  ROUTINES FOR TERMINATING THE AUTOMATIC MANEUVER AND RETURNING TO USER
001019:
001020: 22,2724           77776        TOOBADF            EXIT
001021: 22,2725           05600                           TC       ALARM
001022: 22,2726           00401                           OCT      00401
001023:
001024: 22,2727           12732                           TCF      NOGO                                  #  DO NOT ZERO ATTITUDE ERRORS
001025:
001026: 22,2730           04616                           TC       BANKCALL
001027: 22,2731           40154                           CADR     ZATTEROR                              #  ZERO ATTITUDE ERRORS
001028:
001029: 22,2732           04616        NOGO               TC       BANKCALL
001030: 22,2733           40166                           CADR     STOPRATE                              #  STOP RATES
001031:
001032: 22,2734           34752                           CAF      TWO
001033: 22,2735           00004                           INHINT                                         #  ALL RETURNS ARE NOW MADE VIA GOODEND
001034: 22,2736           05214                           TC       WAITLIST
001035: 22,2737  E6,1675                                  EBANK=   BCDU
001036: 22,2737           03234 44066                     2CADR    GOODMANU
001037:
001038: 22,2741           15155                           TCF      ENDOFJOB
001039:
001040: 22,2742           77776        TOOBADI            EXIT
001041: 22,2743           12732                           TCF      NOGO

End of include-file ATTITUDE_MANEUVER_ROUTINE.agc.  Parent file is MAIN.agc


