
Source Code


000002:                                                                                                  ## Copyright:   Public domain.
000003:                                                                                                  ## Filename:    CONIC_SUBROUTINES.agc
000004:                                                                                                  ## Purpose:     A log section of Zerlina 56, the final revision of
000005:                                                                                                  ##              Don Eyles's offline development program for the variable
000006:                                                                                                  ##              guidance period servicer. It also includes a new P66 with LPD
000007:                                                                                                  ##              (Landing Point Designator) capability, based on an idea of John
000008:                                                                                                  ##              Young's. Neither of these advanced features were actually flown,
000009:                                                                                                  ##              but Zerlina was also the birthplace of other big improvements to
000010:                                                                                                  ##              Luminary including the terrain model and new (Luminary 1E)
000011:                                                                                                  ##              analog display programs. Zerlina was branched off of Luminary 145,
000012:                                                                                                  ##              and revision 56 includes all changes up to and including Luminary
000013:                                                                                                  ##              183. It is therefore quite close to the Apollo 14 program,
000014:                                                                                                  ##              Luminary 178, where not modified with new features.
000015:                                                                                                  ## Reference:   pp. 1150-1194
000016:                                                                                                  ## Assembler:   yaYUL
000017:                                                                                                  ## Contact:     Ron Burkey <info@sandroid.org>.
000018:                                                                                                  ## Website:     www.ibiblio.org/apollo/index.html
000019:                                                                                                  ## Mod history: 2017-07-28 MAS  Created from Luminary 210.
000020:                                                                                                  ##              2017-08-28 MAS  Updated for Zerlina 56.
000021:


000023:                                                                                                  #  PROGRAM DESCRIPTION - ENTIRE CONIC SUBROUTINE LOG SECTION                       DATE - 1 SEPTEMBER 1967
000024:                                                                                                  #  MOD NO. - 0                                                                     LOG SECTION - CONIC SUBROUTINES
000025:                                                                                                  #  MOD BY KRAUSE                                                                   ASSEMBLY - COLOSSUS REVISION 88
000026:
000027:
000028:
000029:                                                                                                  #  FUNCTIONAL DESCRIPTION -
000030:
000031:                                                                                                  #       THE FOLLOWING SET OF SUBROUTINES SOLVE VARIOUS PROBLEMS INVOLVING THE TRAJECTORY PRODUCED BY A CENTRAL
000032:                                                                                                  #  INVERSE-SQUARE FORCE ACTING ON A POINT MASS, AS OUTLINED IN THE CMC AND LGC LUNAR LANDING MISSION GSOP, SECTION
000033:                                                                                                  #  5.5.1.2.  A GENERAL USAGE POINT-OF-VIEW WAS TAKEN IN FORMULATING, MECHANIZING, AND SCALING THE SUBROUTINES,
000034:                                                                                                  #  RATHER THAN OPTIMIZING EACH FOR A PARTICULAR USE.  THEREFORE, MULTIPLE USAGE CAN BE MADE OF THE SUBROUTINES
000035:                                                                                                  #  INVOLVING ANY REALISTIC SET OF CONSTRAINTS.  IT SHOULD BE NOTED THAT ONLY ONE SET OF CODING IS USED, WHETHER THE
000036:                                                                                                  #  EARTH, MOON, OR ANY OTHER CELESTIAL BODY IS SPECIFIED AS THE CENTRAL BODY OF THE PROBLEM, PROVIDED ONE OBSERVES
000037:                                                                                                  #  THE INHERENT SCALE CHANGE REQUIRED IN POSITION, VELOCITY, MU, AND TIME, AS OUTLINED IN MISSION PROGRAMMING
000038:                                                                                                  #  DEFINITION MEMO NO. 10.  THIS CAN BE ACCOMPLISHED BY SIMPLY ADDING TO THE MUTABLE AND INITIALIZING THE SUBROU-
000039:                                                                                                  #  TINES APPROPRIATELY.
000040:                                                                                                  #       DUE TO THE UNIFORMITY OF THE EQUATIONS INVOLVED, CODING WAS MINIMIZED BY TREATING INDIVIDUAL EQUATIONS AND
000041:                                                                                                  #  BLOCKS OF EQUATIONS AS SUBROUTINES OF LOWER RANK WHENEVER POSSIBLE.  AS A RESULT, THREE BY-PRODUCTS SUBROUTINES,
000042:                                                                                                  #  DIRECTLY USABLE AS INDEPENDENT SUBROUTINES, WERE GENERATED.
000043:
000044:
000045:                                                                                                  #  RESTRICTIONS -
000046:
000047:                                                                                                  #       THE ONLY LIMITATION IN THE SCOPE OF PROBLEM WHICH CAN BE SOLVED BY A PARTICULAR SUBROUTINE IS THE SCALING
000048:                                                                                                  #  LIMIT OF EACH PARAMETER AS SPECIFIED IN THE GSOP.  THESE SCALING LIMITS WERE CHOSEN SO THAT ALL FEASIBLE TRAJEC-
000049:                                                                                                  #  TORIES COULD BE HANDLED.
000050:                                                                                                  #       SINCE THE SUBROUTINES (EXCEPT KEPLER) USE COMMON SUBROUTINES OF LOWER RANK WHICH USE ERASABLE OTHER THAN
000051:                                                                                                  #  THE PUSHLIST (DUE TO ITS LIMITED SIZE) AND COMMON INTERPRETIVE SWITCHES, THE CONIC SUBROUTINES CANNOT BE ALLOWED
000052:                                                                                                  #  TO INTERRUPT EACH OTHER.  IT IS UP TO THE USER TO GUARANTEE THIS CONDITION.
000053:


000055:                                                                                                  #  PROGRAM DESCRIPTION - KEPLER SUBROUTINE                                 DATE - 11 OCTOBER 1967
000056:                                                                                                  #  MOD NO. -1                                                                       LOG SECTION - CONIC SUBROUTINES
000057:                                                                                                  #  MOD BY KRAUSE                                                           ASSEMBLY - COLOSSUS 103 AND SUNDANCE 222
000058:                                                                                                  #  MOD NO. - 2  (AUGUST 1968) BY ROBERTSON: TO PERMIT BACKDATING BY MORE THAN ONE ORBITAL PERIOD.
000059:
000060:
000061:                                                                                                  #  MOD NO. - 3  (DEC 1968) BY ROBERTSON: SUPPRESSION OF X-MODULO-ING
000062:
000063:
000064:                                                                                                  #  MOD. NO. - 4  (JAN 1969) BY ROBERTSON: CLEAR OVFIND AT KEPLER ENTRY
000065:
000066:
000067:                                                                                                  #  FUNCTIONAL DESCRIPTION -
000068:                                                                                                  #       THIS SUBROUTINE, GIVEN AN INITIAL STATE VECTOR AND THE DESIRED TRANSFER TIME THROUGH WHICH THE STATE IS TO
000069:                                                                                                  #  BE UPDATED ALONG A CONIC TRAJECTORY, COMPUTES THE NEW, UPDATED STATE VECTOR.  THE TRAJECTORY MAY BE ANY CONIC
000070:                                                                                                  #  SECTION - CIRCULAR, ELLIPTIC, PARABOLIC, HYPERBOLIC, OR RECTILINEAR WITH RESPECT TO THE EARTH OR THE MOON.  THE
000071:                                                                                                  #  USE OF THE SUBROUTINE CAN BE EXTENDED USING OTHER PRIMARY BODIES BY SIMPLE ADDITIONS TO THE MUTABLE WITHOUT
000072:                                                                                                  #  INTRODUCING ANY CODING CHANGES, ACCEPTING THE INHERENT SCALE FACTOR CHANGES IN POSITION AND VELOCITY.  AN ITERA-
000073:                                                                                                  #  TION TECHNIQUE IS UTILIZED IN THE COMPUTATION.
000074:                                                                                                  #       IF A NEGATIVE TIME-OF-FLIGHT IS INPUT, THE PROGRAM WILL SOLVE FOR THE STATE WHICH WOULD BE PRODUCED BY
000075:                                                                                                  #  EXTRAPOLATING THE POSITION BACKWARD IN TIME.
000076:                                                                                                  #       IF THE ABSOLUTE VALUE OF THE DESIRED TRANSFER TIME EXCEEDS THE ORBITAL PERIOD, THE SUBROUTINE, THROUGH A
000077:                                                                                                  #  MODULAR TECHNIQUE, WILL COMPUTE THE STATE CORRESPONDING TO THE DESIRED TIME (WHETHER POSITIVE OR NEGATIVE).
000078:
000079:
000080:                                                                                                  #  THE RESTRICTIONS ARE -
000081:                                                                                                  #       1. (PREVIOUS RESTRICTION ON THE NEGATIVE DESIRED TRANSFER TIME IS NOW DELETED.)
000082:                                                                                                  #       2.  THE PARAMETERS IN THE PROBLEM CANNOT EXCEED THEIR SCALING LIMITS AS SPECIFIED IN THE GSOP.  IF
000083:                                                                                                  #  ANY OF THESE LIMITS ARE EXCEEDED, THE RESULTING SOLUTION WILL BE MEANINGLESS.
000084:
000085:
000086:                                                                                                  #       THE NUMBER OF ITERATIONS AND, THEREFORE, THE COMPUTATION SPEED IS DEPENDENT ON THE ACCURACY OF THE
000087:                                                                                                  #  GUESS, XKFPNEW.  THE AGC COMPUTATION TIME IS APPROXIMATELY .061 SECONDS FOR INITIALIZATION, .065 SECONDS FOR THE
000088:                                                                                                  #  FINAL COMPUTATIONS, PLUS .083 SECONDS FOR EACH ITERATION.
000089:
000090:
000091:
000092:                                                                                                  #  REFERENCES -
000093:                                                                                                  #       R-479, MISSION PROGRAMMING DEFINITION MEMO NO. 10, LUNAR LANDING MISSION GSOP, SECTION 5.5, SGA
000094:                                                                                                  #  MEMO 67-4.
000095:
000096:
000097:
000098:                                                                                                  #  INPUT - ERASABLE INITIALIZATION REQUIRED
000099:
000100:                                                                                                  #          * SCALE FACTOR *
000101:                                                                                                  #  VARIABLE*IN POWERS OF 2*                         DESCRIPTION AND REMARKS
000102:                                                                                                  #  --------*--------------*                         -----------------------
000103:                                                                                                  #  RRECT   * +29 FOR EARTH*DP INITIAL POSITION VECTOR IN METERS
000104:                                                                                                  #          * +27 FOR MOON *


000106:                                                                                                  #  VRECT   * +7 FOR EARTH *DP INITIAL VELOCITY VECTOR IN METERS/CENTISECOND
000107:                                                                                                  #          * +5 FOR MOON  *
000108:                                                                                                  #  X1 (38D)* NONE         *INDEX REGISTER SET TO -2D OR -10D ACCORDING TO WHETHER THE EARTH OR MOON,
000109:                                                                                                  #          *              *RESPECTIVELY, IS THE CENTRAL BODY
000110:                                                                                                  #  TAU.    * +28          *DESIRED TRANSFER TIME IN CENTISECONDS (DP)
000111:                                                                                                  #          *              *    MAY BE POS OR NEG AND ABSOLUTE VALUE MAY BE GREATER OR LESS THAN ONE ORBITAL PERIOD.
000112:                                                                                                  #  XKEPNEW * +17 FOR EARTH*DP GUESS OF ROOT X OF KEPLERS EQN IN SQRT(METERS). SIGN SHOULD AGREE WITH THAT OF TAU.
000113:                                                                                                  #          * +16 FOR MOON *    AND ABS VALUE SHOULD BE LESS THAN THAT CORRESPONDING TO A PERIOD,VIZ, 2PI SQRT(SEMI-
000114:                                                                                                  #          *              *    MAJOR AXIS),FOR SPEED OF CONVERGENCE,BUT IF EITHER CONDITION FAILS, XKEPNEW IS RESET
000115:                                                                                                  #          *              *    BY KEPLER TO A POOR BUT VALID GUESS.
000116:                                                                                                  #  TC      * +28          *DP PREV. VALUE OF TIME IN CENTISECS.  MUST BE LESS THAN ONE ORBITAL PERIOD.
000117:                                                                                                  #  XPREV   * +17 FOR EARTH*DP PREV. VALUE OF X IN SQRT(METERS).  MUST BE LESS THAN AN X CORRESPONDING TO ONE
000118:                                                                                                  #          * +16 FOR MOON *    ORBITAL PERIOD,VIZ,2PI SQRT(SEMI-MAJOR AXIS)
000119:
000120:
000121:
000122:                                                                                                  #  SUBROUTINES CALLED -
000123:                                                                                                  #       DELTIME
000124:
000125:
000126:
000127:                                                                                                  #  CALLING SEQUENCE AND NORMAL EXIT MODES -
000128:
000129:                                                                                                  #  KEPRTN-2 GOTO                   MUST BE IN INTERPRETIVE MODE BUT OVFIND ARBITRARY.
000130:                                                                                                  #  KEPRTN-1        KEPLER          RETURNS WITH XPREV IN MPAC. PL IS AT 0.
000131:                                                                                                  #  KEPRTN   ...                    CONTINUE
000132:
000133:                                                                                                  #  KEPLER MUST NOT BE CALLED DIRECTLY SINCE AN INTERRUPTION OF IT WOULD DESTROY THE ERASABLES IT NEEDS TO COMPLETE
000134:                                                                                                  #  THE INTERRUPTED JOB.  THEREFORE THE USER MUST CALL CSMCONIC OR LEMCONIC WHICH GUARANTEES NO INTERRUPTS AND WHICH
000135:                                                                                                  #  ALSO CALLS KEPPREP TO COMPUTE A GUESS OF XKEPNEW.
000136:
000137:
000138:
000139:                                                                                                  #  ABORT EXIT MODES -
000140:                                                                                                  #       NONE
000141:
000142:
000143:
000144:                                                                                                  #  OUTPUT -
000145:
000146:                                                                                                  #          * SCALE FACTOR *
000147:                                                                                                  #  VARIABLE*IN POWERS OF 2*                         DESCRIPTION AND REMARKS
000148:                                                                                                  #  --------*--------------*                         -----------------------
000149:                                                                                                  #  RCV     * +29 FOR EARTH*DP TERMINAL POSITION VECTOR IN METERS
000150:                                                                                                  #          * +27 FOR MOON *
000151:                                                                                                  #  VCV     * +7 FOR EARTH *DP TERMINAL VELOCITY VECTOR IN METERS/CENTISEC
000152:                                                                                                  #          * +5 FOR MOON  *
000153:                                                                                                  #  TC      * +28          *DP TRANSFER TIME IN CENTISECS TO WHICH KEPLER CONVERGED. ALWAYS LESS THAN ONE PERIOD.
000154:                                                                                                  #  XPREV   * +17 FOR EARTH*DP VALUE OF X IN SQRT(METERS) TO WHCIH KEPLER CONVERGED. ALWAYS LESS THAN THE X
000155:                                                                                                  #          * +16 FOR MOON *    CORRESPONDING TO ONE PERIOD.


000157:                                                                                                  #  FOR OTHER OUTPUT WHICH MAY BE OF USE, SEE DEBRIS.
000158:
000159:
000160:
000161:                                                                                                  #  DEBRIS -
000162:
000163:                                                                                                  #       PARAMETERS WHICH MAY BE OF USE -
000164:
000165:                                                                                                  #          * SCALE FACTOR *
000166:                                                                                                  #  VARIABLE*IN POWERS OF 2*                         DESCRIPTION AND REMARKS
000167:                                                                                                  #  --------*--------------*                         -----------------------
000168:                                                                                                  #  URRECT  * +1           *DP UNIT VECTOR OF INITIAL POSITION
000169:                                                                                                  #  R1      * +29 FOR EARTH*DP MAGNITUDE OF INITIAL POSITION IN METERS
000170:                                                                                                  #          * +27 FOR MOON *
000171:                                                                                                  #  ALPHA   * -22 FOR EARTH*DP INVERSE OF SEMIMAJOR AXIS IN 1/METERS
000172:                                                                                                  #          * -20 FOR MOON *
000173:                                                                                                  #  TMODULO * +28          *DP INTEGRAL NUMBER OF PERIODS IN  CENTISECS. WHICH WAS SUBTRACTED FROM TAU. TO PRODUCE A
000174:                                                                                                  #          *              *TAU. OF LESS THAN ONE PERIOD.
000175:
000176:                                                                                                  #       PARAMETERS OF NO USE -
000177:                                                                                                  #  DP PARAMETERS - EPSILONT, DELX, DELT, RCNORM, XMODULO, PLUS PUSHLIST REGISTERS 0 THROUGH 39D.
000178:
000179:


000181:                                                                                                  #  PROGRAM DESCRIPTION - LAMBERT SUBROUTINE                                        DATE - 1 SEPTEMBER 1967
000182:                                                                                                  #  MOD NO. - 0                                                                     LOG SECTION - CONIC SUBROUTINES
000183:                                                                                                  #  MOD BY KRAUSE                                                                   ASSEMBLY - COLOSSUS REVISION 88
000184:
000185:
000186:
000187:                                                                                                  #  FUNCTIONAL DESCRIPTION -
000188:
000189:                                                                                                  #       THIS SUBROUTINE CALCULATES THE INITIAL VELOCITY REQUIRED TO TRANSFER A POINT-MASS ALONG A CONIC TRAJECTORY
000190:                                                                                                  #  FROM AN INITIAL POSITION TO A TERMINAL POSITION IN A PRESCRIBED TIME INTERVAL.  THE RESULTING TRAJECTORY MAY BE
000191:                                                                                                  #  A SECTION OF A CIRCLE, ELLIPSE, PARABOLA, OR HYPERBOLA WITH RESPECT TO THE EARTH OR THE MOON.  THE USE OF THE
000192:                                                                                                  #  SUBROUTINE CAN BE EXTENDED USING OTHER PRIMARY BODIES BY SIMPLE ADDITIONS TO THE MUTABLE WITHOUT INTRODUCING ANY
000193:                                                                                                  #  CODING CHANGES, ACCEPTING THE INHERENT SCALE FACTOR CHANGES IN POSITION AND VELOCITY.  AN ITERATION TECHNIQUE IS
000194:                                                                                                  #  UTILIZED IN THE COMPUTATION.
000195:
000196:
000197:                                                                                                  #  THE RESTRICTIONS ARE -
000198:                                                                                                  #       1. RECTILINEAR TRAJECTORIES CANNOT BE COMPUTED.
000199:                                                                                                  #       2. AN ACCURACY DEGRADATION OCCURS AS THE COSINE OF THE TRUE ANOMALY DIFFERENCE APPROACHES +1.0.
000200:                                                                                                  #       3. THE ANGLE BETWEEN ANY POSITION VECTOR AND ITS VELOCITY VECTOR MUST BE GREATER THAN 1 DEGREE 47.5 MINUTES
000201:                                                                                                  #  AND LESS THAN 178 DEGREES 12.5 MINUTES.
000202:                                                                                                  #       4. NEGATIVE TRANSFER TIME IS AMBIGUOUS AND WILL RESULT IN NO SOLUTION.
000203:                                                                                                  #       5. THE PARAMETERS IN THE PROBLEM MUST NOT EXCEED THEIR SCALING LIMITS SPECIFIED IN THE GSOP.  IF THE
000204:                                                                                                  #  LIMITS ARE EXCEEDED, THE RESULTING SOLUTION WILL BE MEANINGLESS.
000205:                                                                                                  #       THE NUMBER OF ITERATIONS AND, THEREFORE, THE COMPUTATIONS SPEED IS DEPENDENT ON THE ACCURACY OF THE FIRST
000206:                                                                                                  #  GUESS OF THE INDEPENDENT VARIABLE, COGA.                                THE AGC COMPUTATION TIME IS APPROXIMATE-
000207:                                                                                                  #  LY .105 SECONDS FOR INITIALIZATION, .069 SECONDS FOR FINAL COMPUTATIONS, PLUS .205 SECONDS FOR EACH ITERATION.
000208:
000209:
000210:
000211:                                                                                                  #  REFERENCES -
000212:                                                                                                  #       R-479, MISSION PROGRAMMING DEFINITION MEMO NO. 10, LUNAR LANDING MISSION GSOP-SECTION 5.5, SGA MEMO 67-8,
000213:                                                                                                  #  SGA MEMO 67-4.
000214:
000215:
000216:
000217:                                                                                                  #  INPUT - ERASABLE INITIALIZATION REQUIRED
000218:
000219:                                                                                                  #          * SCALE FACTOR *
000220:                                                                                                  #  VARIABLE*IN POWERS OF 2*                         DESCRIPTION AND REMARKS
000221:                                                                                                  #  --------*--------------*                         -----------------------
000222:                                                                                                  #  R1VEC   * +29 FOR EARTH*DP INITIAL POSITION VECTOR IN METERS
000223:                                                                                                  #          * +27 FOR MOON *
000224:                                                                                                  #  R2VEC   * +29 FOR EARTH*DP TARGET OR TERMINAL POSITION VECTOR IN METERS
000225:                                                                                                  #          * +27 FOR MOON *
000226:                                                                                                  #  TDESIRED* +28          *DP DESIRED TRANSFER TIME IN CENTISECONDS
000227:                                                                                                  #  X1 (38D)* NONE         *INDEX REGISTER SET TO -2D OR -10D ACCORDING TO WHETHER THE EARTH OR MOON,
000228:                                                                                                  #          *              *RESPECTIVELY, IS THE CENTRAL BODY
000229:                                                                                                  #  GEOMSGN * NONE         *SP +.5 IF DESIRED TRANSFER ANGLE IS LESS THAN 180 DEGREES, -.5 IF GREATER THAN 180 DEG.
000230:                                                                                                  #  GUESSW  * NONE         *AN INTERPRETER SWITCH TO BE SET IF NO GUESS OF COGA IS AVAILABLE, CLEAR IF A GUESS OF


000232:                                                                                                  #          *              *COGA IS TO BE USED BY LAMBERT
000233:                                                                                                  #  COGA    * +5           *DP GUESS OF COTANGNT OF FLIGHT PATH ANGLE (MEASURED FROM VERTICAL).  THIS WILL BE
000234:                                                                                                  #                         *IGNORED IF GUESSW IS SET.
000235:                                                                                                  #  NORMSW  * NONE         *AN INTERPRETER SWITCH TO BE SET IF UN IS TO BE AN INPUT TO THE SUBROUTINE, CLEAR IF
000236:                                                                                                  #          *              *LAMBERT IS TO COMPUTE ITS OWN NORMAL (UN).
000237:                                                                                                  #  UN      * +1           *DP UNIT  NORMAL TO THE DESIRED ORBIT PLANE IN THE DIRECTION OF THE RESULTING ANGULAR
000238:                                                                                                  #          *              *MOMENTUM VECTOR.  THIS WILL BE IGNORED IF NORMSW IS CLEAR.
000239:                                                                                                  #  VTARGTAG* NONE         *A S.P. TAG TO BE SET TO ZERO IF LAMBERT IS TO COMPUTE THE VELOCITY AT R2VEC AS WELL AS
000240:                                                                                                  #          *              *AT R1VEC.
000241:                                                                                                  #  ITERCTR * NONE         *A S.P. COUNTER WHICH SPECIFIES THE MAXIMUM NUMBER OF ITERATIONS ALLOWABLE.
000242:                                                                                                  #          *              *(AN ITERATION MEANS A PASS THRU KEPLER EQN (DELTIME). AT LEAST ONE OF THESE MUST
000243:                                                                                                  #          *              *ALWAYS OCCUR, EVEN IF COGA CORRESPONDING TO SOLUTION WERE INPUT AS A GUESS.)
000244:                                                                                                  #          *              *TWENTY ITERATIONS ARE SUFFICIENT TO SOLVE ALL PROBLEMS INCLUDING THOSE WITHOUT GUESS.
000245:
000246:
000247:                                                                                                  #  SUBROUTINES CALLED -
000248:                                                                                                  #       GEOM, GETX, DELTIME, ITERATOR, LAMENTER (PART OF NEWSTATE)
000249:
000250:
000251:
000252:                                                                                                  #  CALLING SEQUENCE AND NORMAL EXIT MODES -
000253:
000254:                                                                                                  #  L        CALL                   MUST BE IN INTERPRETIVE MODE BUT OVFIND ARBITRARY.
000255:                                                                                                  #  L+1             LAMBERT         RETURNS WITH PL AT 0 AND WITH VVEC IN MPAC IF VTARGTAG WAS NON-ZERO OR VTARGET
000256:                                                                                                  #                                  IN MPAC IF VTARGTAG WAS ZERO
000257:                                                                                                  #  L+2      BON                    CONTINUE IF SOLNSW CLEAR SINCE SOLUTION IS ACCEPTABLE
000258:                                                                                                  #  L+3             SOLNSW
000259:                                                                                                  #  L+4             LAMABORT
000260:                                                                                                  #       IF A LAMBERT RESULT IS TO BE A FIRST GUESS FOR THE NEXT LAMBERT CALCULATION, COGA MUST BE PRESERVED AND
000261:                                                                                                  #  GUESSW MUST BE CLEAR FOR EACH SUCCEEDING LAMBERT CALL.
000262:
000263:
000264:
000265:                                                                                                  #  ABORT EXIT MODES -
000266:                                                                                                  #       IF SOLNSW WAS SET UPON EXITING, EITHER LAMBERT WAS ASKED TO COMPUTE A TRANSFER TOO NEAR 0 OR 360 DEG, OR T
000267:                                                                                                  #  WAS TOO SMALL TO PRODUCE A REALISTIC TRANSFER BETWEEN R1VEC AND R2VEC.  IN EITHER CASE THE FIX MUST BE MADE
000268:                                                                                                  #  ACCORDING TO THE NEEDS OF THE PARTICULAR USER.  THE ABORT EXIT MODE MAY BE CODED AS ...
000269:                                                                                                  #  LAMABORT DLOAD    ABS                   A MEASURE OF PROXIMITY TO 0 OR
000270:                                                                                                  #                    1-CSTH                360 DEGREES.
000271:                                                                                                  #           DSU      BMN
000272:                                                                                                  #                    ONEBIT
000273:                                                                                                  #                    CHANGER2              CHANGE R2VEC DIRECTION SLIGHTLY.
000274:                                                                                                  #           DLOAD    DAD
000275:                                                                                                  #                    TDESIRED
000276:                                                                                                  #                    SOMETIME
000277:                                                                                                  #           STCALL   TDESIRED              INCREASE TDESIRED
000278:                                                                                                  #                    LAMBERT
000279:
000280:


000282:                                                                                                  #  OUTPUT -
000283:                                                                                                  #          * SCALE FACTOR *
000284:                                                                                                  #  VARIABLE*IN POWERS OF 2*                         DESCRIPTION AND REMARKS
000285:                                                                                                  #  --------*--------------*                         -----------------------
000286:                                                                                                  #  VVEC    * +7 FOR EARTH *DP INITIAL VELOCITY VECTOR IN METERS/CENTISECOND REQUIRED TO SATISFY THE BOUNDARY VALUE
000287:                                                                                                  #          * +5 FOR MOON  *PROBLEM.
000288:                                                                                                  #  VTARGET * +7 FOR EARTH *DP RESULTANT VELOCITY VECTOR AT R2VEC IN METERS/CENTISECOND.
000289:                                                                                                  #          * +5 FOR MOON  *
000290:                                                                                                  #  SOLNSW  * NONE         *INTERPRETER SWITCH WHICH IS SET IF THE SUBROUTINE CANNOT SOLVE THE PROBLEM, CLEAR IF THE
000291:                                                                                                  #          *              *SOLUTION EXISTS.
000292:                                                                                                  #  FOR OTHER OUTPUT WHICH MAY BE OF USE, SEE DEBRIS.
000293:
000294:
000295:
000296:                                                                                                  #  DEBRIS -
000297:                                                                                                  #       PARAMETERS WHICH MAY BE OF USE -
000298:
000299:                                                                                                  #          * SCALE FACTOR *
000300:                                                                                                  #  VARIABLE*IN POWERS OF 2*                         DESCRIPTION AND REMARKS
000301:                                                                                                  #  --------*--------------*                         -----------------------
000302:                                                                                                  #  SNTH    * +1           *DP SIN OF ANGLE BETWEEN R1VEC AND R2VEC
000303:                                                                                                  #  CSTH    * +1           *DP COSINE OF ANGLE
000304:                                                                                                  #  1-CSTH  * +2           *DP 1-CSTH
000305:                                                                                                  #  COGA    * +5           *DP COTAN OF INITIAL REQUIRED FLIGHT PATH ANGLE MEASURED FROM VERTICAL
000306:                                                                                                  #  P       * +4           *DP RATIO  OF SEMILATUS RECTUM TO INITIAL RADIUS
000307:                                                                                                  #  R1A     * +6           *DP RATIO OF INITIAL RADIUS TO SEMIMAJOR AXIS
000308:                                                                                                  #  R1 (32D)* +29 FOR EARTH*DP INITIAL RADIUS IN METERS
000309:                                                                                                  #          * +27 FOR MOON *
000310:                                                                                                  #  UR1     * +1           *DP UNIT VECTOR OF R1VEC
000311:                                                                                                  #  U2      * +1           *DP UNIT VECTOR OF R2VEC
000312:
000313:                                                                                                  #       PARAMETERS OF NO USE
000314:                                                                                                  #  DP PARAMETERS - EPSILONL, CSTH-RHO, TPREV, TERRLAMB, R2, RTNLAMB (SP),  PLUS PUSHLIST REGISTER 0 THROUGH 41D
000315:                                                                                                  #  ADDITIONAL INTERPRETIVE SWITCHES USED - INFINFLG, 360SW, SLOPESW, ORDERSW
000316:
000317:


000319:                                                                                                  #  PROGRAM DESCRIPTION - TIME-THETA SUBROUTINE                                     DATE - 1 SEPTEMBER 1967
000320:                                                                                                  #  MOD NO. - 0                                                                     LOG SECTION - CONIC SUBROUTINES
000321:                                                                                                  #  MOD BY KRAUSE                                                                   ASSEMBLY - COLOSSUS REVISION 88
000322:
000323:
000324:
000325:                                                                                                  #  FUNCTIONAL DESCRIPTION -
000326:
000327:                                                                                                  #       THIS SUBROUTINE, GIVEN AN INITIAL STATE VECTOR AND A DESIRED TRUE-ANOMALY-DIFFERENCE THROUGH WHICH THE
000328:                                                                                                  #  STATE IS TO BE UPDATED ALONG A CONIC TRAJECTORY, CALCULATES THE CORRESPONDING TIME-OF-FLIGHT AND, IN ADDITION,
000329:                                                                                                  #  PROVIDES THE OPTION OF COMPUTING THE NEW UPDATED STATE VECTOR.  THE RESULTING TRAJECTORY MAY BE A SECTION OF A
000330:                                                                                                  #  CIRCLE, ELLIPSE, PARABOLA, OR HYPERBOLA WITH RESPECT TO THE EARTH OR THE MOON.  THE USE OF THE SUBROUTINE CAN BE
000331:                                                                                                  #  EXTENDED USING OTHER PRIMARY BODIES BY SIMPLE ADDITIONS TO THE MUTABLE WITHOUT INTRODUCING ANY CODING CHANGES,
000332:                                                                                                  #  ACCEPTING THE INHERENT SCALE FACTOR CHANGES IN POSITION AND VELOCITY.
000333:
000334:
000335:                                                                                                  #  THE RESTRICTIONS ARE -
000336:                                                                                                  #       1. THE ANGLE BETWEEN ANY POSITION VECTOR AND ITS VELOCITY VECTOR MUST BE GREATER THAN 1 DEGREE 47.5 MINUTES
000337:                                                                                                  #  AND LESS THAN 178 DEGREES 12.5 MINUTES.
000338:                                                                                                  #       2. THE PARAMETERS IN THE PROBLEM MUST NOT EXCEED THEIR SCALING LIMITS SPECIFIED IN THE GSOP.  IF THE LIMITS
000339:                                                                                                  #  ARE EXCEEDED, THE RESULTING SOLUTION WILL BE MEANINGLESS.
000340:
000341:                                                                                                  #       THE AGC COMPUTATION TIME IS APPROXIMATELY .292 SECONDS.
000342:
000343:
000344:
000345:                                                                                                  #  REFERENCES -
000346:                                                                                                  #       R-479, MISSION PROGRAMMING DEFINITION MEMO NO. 10, LUNAR LANDING MISSION GSOP-SECTION 5.5, SGA MEMO 67-8.
000347:
000348:
000349:
000350:                                                                                                  #  INPUT - ERASABLE INITIALIZATION REQUIRED
000351:
000352:                                                                                                  #          * SCALE FACTOR *
000353:                                                                                                  #  VARIABLE*IN POWERS OF 2*                         DESCRIPTION AND REMARKS
000354:                                                                                                  #  --------*--------------*                         -----------------------
000355:                                                                                                  #  RVEC    * +29 FOR EARTH*DP INITIAL POSITION VECTOR IN METERS
000356:                                                                                                  #          * +27 FOR MOON *
000357:                                                                                                  #  VVEC    * +7 FOR EARTH *DP INITIAL VELOCITY VECTOR IN METERS/CENTISECOND
000358:                                                                                                  #          * +5 FOR MOON  *
000359:                                                                                                  #  SNTH    * +1           *DP SINE OF TRUE-ANOMALY-DIFFERENCE THROUGH WHICH THE STATE IS TO BE UPDATED
000360:                                                                                                  #  CSTH    * +1           *DP COSINE OF THE ANGLE
000361:                                                                                                  #  RVSW    * NONE         *AN INTERPRETIVE SWITCH TO BE SET IF ONLY TIME IS TO BE AN OUTPUT, CLEAR IF THE NEW STATE
000362:                                                                                                  #          *              *IS TO BE COMPUTED ALSO.
000363:                                                                                                  #  X1 (38D)* NONE         *INDEX REGISTER TO BE SET TO -2D OR -10D ACCORDING TO WHETHER THE EARTH OR MOON,
000364:                                                                                                  #          *              *RESPECTIVELY, IS THE CENTRAL BODY.
000365:
000366:
000367:
000368:                                                                                                  #  SUBROUTINES CALLED -


000370:                                                                                                  #       PARAM, GEOM, GETX, DELTIME, NEWSTATE
000371:
000372:
000373:
000374:                                                                                                  #  CALLING SEQUENCE AND NORMAL EXIT MODES -
000375:
000376:                                                                                                  #     IF ONLY TIME IS DESIRED AS OUTPUT -
000377:                                                                                                  #  L        SET    CALL            MUST BE IN INTERPRETIVE MODE BUT OVFIND ARBITRARY.
000378:                                                                                                  #  L+1             RVSW
000379:                                                                                                  #  L+2             TIMETHET        RETURN WITH PL AT 0 AND T IN MPAC
000380:                                                                                                  #  L+3      ...                    CONTINUE
000381:
000382:
000383:                                                                                                  #     IF THE UPDATE STATE VECTOR IS DESIRED AS WELL -
000384:                                                                                                  #  L        CLEAR  CALL            MUST BE IN INTERPRETIVE MODE BUT OVFIND ARBITRARY.
000385:                                                                                                  #  L+1             RVSW
000386:                                                                                                  #  L+2             TIMETHET        RETURNS WITH PL AT 6.  THE INITIAL POSITION VECTOR IS IN 0D OF THE PUSHLIST AND
000387:                                                                                                  #                                  THE INITIAL VELOCITY VECTOR IN MPAC.
000388:                                                                                                  #  L+3      STOVL  NEWVVEC
000389:                                                                                                  #  L+4      STADR
000390:                                                                                                  #  L+5      STORE  NEWRVEC                 NEWVVEC AND NEWRVEC ARE SYMBOLIC REPRESENTATIONS OF THE USERS LOCATIONS.
000391:                                                                                                  #  L+6      ...                            CONTINUE
000392:
000393:
000394:
000395:                                                                                                  #  ABORT EXIT MODES -
000396:                                                                                                  #           IF COGAFLAG AND/OR INFINFLG IS SET AT THE EXIT TO TIME-THETA, TIME-THETA WILL TRANSFER TO POODOO WITH
000397:                                                                                                  #           AN ALARM CODE (ORIGINALLY 00607), AND NOT RETURN TO THE CALLING PROGRAM. (PCR 692 AND 721).
000398:
000399:
000400:
000401:                                                                                                  #  OUTPUT -
000402:                                                                                                  #          * SCALE FACTOR *
000403:                                                                                                  #  VARIABLE*IN POWERS OF 2*                         DESCRIPTION AND REMARKS
000404:                                                                                                  #  --------*--------------*                         -----------------------
000405:                                                                                                  #  T (30D) * +28          *DP TRANSFER TIME IN CENTISECONDS
000406:                                                                                                  #  INFINFLG* NONE         *AN INTERPRETIVE SWITCH WHICH IS SET IF THE TRANSFER ANGLE REQUIRES CLOSURE THROUGH
000407:                                                                                                  #          *              *INFINITY (NO SOLUTION), CLEAR IF A PHYSICAL SOLUTION IS POSSIBLE.
000408:                                                                                                  #  COGAFLAG* NONE         *AN INTERPRETIVE SWITCH WHICH IS SET IF RESTRICTION 1 HAS BEEN VIOLATED (NO SOLUTION),
000409:                                                                                                  #          *              *CLEAR IF NOT.
000410:
000411:                                                                                                  #  IN ADDITION, IF RVSW IS CLEAR, THE FOLLOWING ARE OUTPUT-
000412:
000413:                                                                                                  #  MPAC -  * +7 FOR EARTH *DP TERMINAL VELOCITY VECTOR IN METERS/CENTISEC.
000414:                                                                                                  #   MPAC +5* +5 FOR MOON  *
000415:                                                                                                  #  0D - 5D * +29 FOR EARTH*DP TERMINAL POSITION VECTOR IN METERS (PL AT 6D)
000416:                                                                                                  #          * +27 FOR MOON *
000417:
000418:                                                                                                  #  FOR OTHER OUTPUT WHICH MAY BE OF USE, SEE DEBRIS.
000419:
000420:


000422:                                                                                                  #  DEBRIS -
000423:
000424:                                                                                                  #       PARAMETERS WHICH MAY BE OF USE -
000425:
000426:                                                                                                  #          * SCALE FACTOR *
000427:                                                                                                  #  VARIABLE*IN POWERS OF 2*                         DESCRIPTION AND REMARKS
000428:                                                                                                  #  --------*--------------*                         -----------------------
000429:                                                                                                  #  R1 (32D)* +29 FOR EARTH*DP MAGNITUDE OF INITIAL POSITION VECTOR, RVEC, IN METERS
000430:                                                                                                  #          * +27 FOR MOON *
000431:                                                                                                  #  R1A     * +6           *DP RATIO OF R1 TO SEMIMAJOR AXIS (NEG. FOR HYPERBOLIC TRAJECTORIES)
000432:                                                                                                  #  P       * +4           *DP RATIO OF SEMILATUS RECTUM TO R1
000433:                                                                                                  #  COGA    * +5           *DP COTAN OF ANGLE BETWEEN RVEC AND VVEC
000434:                                                                                                  #  UR1     * +1           *DP UNIT VECTOR OF RVEC
000435:                                                                                                  #  U2      * +1           *DP UNIT VECTOR OF VVEC
000436:                                                                                                  #  UN      * +1           *DP UNIT VECTOR OF UR1*U2
000437:
000438:
000439:                                                                                                  #       PARAMETERS OF NO USE -
000440:                                                                                                  #  SP PARAMETERS -  RTNTT, GEOMSGN, RTNPRM, MAGVEC2=R2 (DP), PLUS PUSHLIST LOCATIONS 0-11D, 14D-21D, 24D-39D, 41D
000441:                                                                                                  #  ADDITIONAL INTERPRETIVE SWITCHES USED - NORMSW, 360SW
000442:
000443:


000445:                                                                                                  #  PROGRAM DESCRIPTION - TIME-RADIUS SUBROUTINE                            DATE - 11 OCTOBER 1967
000446:                                                                                                  #  MOD NO. -1                                                                      LOG SECTION - CONIC SUBROUTINES
000447:                                                                                                  #  MOD BY KRAUSE                                                                   ASSEMBLY - COLOSSUS REVISION 88
000448:
000449:
000450:
000451:                                                                                                  #  FUNCTIONAL DESCRIPTION -
000452:
000453:                                                                                                  #       THIS SUBROUTINE, GIVEN AN INITIAL STATE VECTOR AND A DESIRED RADIUS TO WHICH THE
000454:                                                                                                  #  STATE IS TO BE UPDATED ALONG A CONIC TRAJECTORY, CALCULATES THE CORRESPONDING TIME-OF-FLIGHT AND, IN ADDITION,
000455:                                                                                                  #  PROVIDES THE OPTION OF COMPUTING THE NEW UPDATED STATE VECTOR.  THE RESULTING TRAJECTORY MAY BE A SECTION OF A
000456:                                                                                                  #  CIRCLE, ELLIPSE, PARABOLA, OR HYPERBOLA WITH RESPECT TO THE EARTH OR THE MOON.  THE USE OF THE SUBROUTINE CAN BE
000457:                                                                                                  #  EXTENDED USING OTHER PRIMARY BODIES BY SIMPLE ADDITIONS TO THE MUTABLE WITHOUT INTRODUCING ANY CODING CHANGES,
000458:                                                                                                  #  ACCEPTING THE INHERENT SCALE FACTOR CHANGES IN POSITION AND VELOCITY.
000459:                                                                                                  #       IF THE DESIRED RADIUS IS BEYOND THE RADIUS OF APOCENTER OF THE CONIC OR BELOW THE RADIUS OF PERICENTER,
000460:                                                                                                  #  APSESW WILL BE SET AND THE SUBROUTINE WILL RETURN THE APOCENTER OR PERICENTER SOLUTION, RESPECTIVELY.
000461:
000462:
000463:                                                                                                  #  THE RESTRICTIONS ARE -
000464:                                                                                                  #       1. THE ANGLE BETWEEN ANY POSITION VECTOR AND ITS VELOCITY VECTOR MUST BE GREATER THAN 1 DEGREE 47.5 MINUTES
000465:                                                                                                  #  AND LESS THAN 178 DEGREES 12.5 MINUTES.
000466:                                                                                                  #       2. THE PARAMETERS IN THE PROBLEM MUST NOT EXCEED THEIR SCALING LIMITS SPECIFIED IN THE GSOP.  IF THE LIMITS
000467:                                                                                                  #  ARE EXCEEDED, THE RESULTING SOLUTION WILL BE MEANINGLESS.
000468:                                                                                                  #       3. AN ACCURACY DEGRADATION OCCURS AS THE SENSITIVITIES OF TIME AND UPDATED STATE VECTOR TO CHANGES IN
000469:                                                                                                  #  RDESIRED INCREASE.  THIS WILL OCCUR NEAR EITHER APSIS OF THE CONIC AND WHEN THE CONIC IS NEARLY CIRCULAR.  IN
000470:                                                                                                  #  PARTICULAR, IF THE CONIC IS AN EXACT CIRCLE, THE PROBLEM IS UNDEFINED AND THE SUBROUTINE WILL ABORT.
000471:
000472:
000473:                                                                                                  #       THE AGC COMPUTATION TIME IS APPROXIMATELY .363 SECONDS
000474:
000475:
000476:
000477:                                                                                                  #  REFERENCES -
000478:                                                                                                  #       R-479, MISSION PROGRAMMING DEFINITION MEMO NO. 10, LUNAR LANDING MISSION GSOP-SECTION 5.5, SGA MEMO 67-8.
000479:
000480:
000481:
000482:                                                                                                  #  INPUT - ERASABLE INITIALIZATION REQUIRED
000483:
000484:                                                                                                  #          * SCALE FACTOR *
000485:                                                                                                  #  VARIABLE*IN POWERS OF 2*                         DESCRIPTION AND REMARKS
000486:                                                                                                  #  --------*--------------*                         -----------------------
000487:                                                                                                  #  RVEC    * +29 FOR EARTH*DP INITIAL POSITION VECTOR IN METERS
000488:                                                                                                  #          * +27 FOR MOON *
000489:                                                                                                  #  VVEC    * +7 FOR EARTH *DP INITIAL VELOCITY VECTOR IN METERS/CENTISECOND
000490:                                                                                                  #          * +5 FOR MOON  *
000491:                                                                                                  #  RDESIRED* +29 FOR EARTH*DP TERMINAL RADIAL DISTANCE ON CONIC TRAJECTORY FOR WHICH TRANSFER TIME IS TO BE
000492:                                                                                                  #          * +27 FOR MOON *COMPUTED.
000493:                                                                                                  #  SGNRDOT * NONE         *SP TAG SET TO +.5 OR -.5 ACCORDING TO WHETHER THE RADIAL VELOCITY AT RDESIRED IS TO BE
000494:                                                                                                  #          *              *POSITIVE OR NEGATIVE, RESPECTIVELY.  THIS TAG REDUCES THE DOUBLE-VALUED PROBLEM TO A


000496:                                                                                                  #          *              *SINGLE-VALUED PROBLEM.
000497:                                                                                                  #  X1 (38D)* NONE         *INDEX REGISTER TO BE SET TO -2D OR -10D ACCORDING TO WHETHER THE EARTH OR MOON,
000498:                                                                                                  #          *              *RESPECTIVELY, IS THE CENTRAL BODY.
000499:                                                                                                  #  RVSW    * NONE         *AN INTERPRETIVE SWITCH TO BE SET IF ONLY TIME IS TO BE AN OUTPUT, CLEAR IF THE NEW STATE
000500:                                                                                                  #          *              *IS TO BE COMPUTED ALSO.
000501:
000502:
000503:
000504:                                                                                                  #  SUBROUTINES CALLED -
000505:                                                                                                  #       PARAM, GEOM, GETX, DELTIME, NEWSTATE
000506:
000507:
000508:
000509:                                                                                                  #  CALLING SEQUENCE AND NORMAL EXIT MODES -
000510:
000511:                                                                                                  #     IF ONLY TIME IS DESIRED AS OUTPUT -
000512:                                                                                                  #  L        SET    CALL            MUST BE IN INTERPRETIVE MODE BUT OVFIND ARBITRARY.
000513:                                                                                                  #  L+1             RVSW
000514:                                                                                                  #  L+2             TIMERAD         RETURN WITH PL AT 0 AND T IN MPAC
000515:                                                                                                  #  L+3      ...                    CONTINUE
000516:
000517:
000518:                                                                                                  #     IF THE UPDATE STATE VECTOR IS DESIRED AS WELL -
000519:                                                                                                  #  L        CLEAR  CALL            MUST BE IN INTERPRETIVE MODE BUT OVFIND ARBITRARY.
000520:                                                                                                  #  L+1             RVSW
000521:                                                                                                  #  L+2             TIMERAD         RETURNS WITH PL AT 6.  THE INITIAL POSITION VECTOR IS IN 0D OF THE PUSHLIST AND
000522:                                                                                                  #                                  THE INITIAL VELOCITY VECTOR IN MPAC.
000523:                                                                                                  #  L+3      STOVL  NEWVVEC
000524:                                                                                                  #  L+4      STADR
000525:                                                                                                  #  L+5      STORE  NEWRVEC                 NEWVVEC AND NEWRVEC ARE SYMBOLIC REPRESENTATIONS OF THE USERS LOCATIONS.
000526:                                                                                                  #  L+6      ...                            CONTINUE
000527:
000528:
000529:
000530:                                                                                                  #  ABORT EXIT MODES -
000531:                                                                                                  #           IF SOLNSW AND/OR COGAFLAG AND/OR INFINFLG IS SET AT THE EXIT TO TIME-RADIUS, TIME-RADIUS WILL TRANSFER
000532:                                                                                                  #           TO POODOO WITH AN ALARM CODE (ORIGINALLY 00607), AND NOT RETURN TO THE CALLING PROGRAM. (PCR 692 & 721)
000533:
000534:
000535:
000536:                                                                                                  #  OUTPUT -
000537:                                                                                                  #          * SCALE FACTOR *
000538:                                                                                                  #  VARIABLE*IN POWERS OF 2*                         DESCRIPTION AND REMARKS
000539:                                                                                                  #  --------*--------------*                         -----------------------
000540:                                                                                                  #  T (30D) * +28          *DP TRANSFER TIME IN CENTISECONDS
000541:                                                                                                  #  INFINFLG* NONE         *AN INTERPRETIVE SWITCH WHICH IS SET IF RDESIRED AND SGNRDOT REQUIRE CLOSURE THROUGH
000542:                                                                                                  #          *              *INFINITY (NO SOLUTION), CLEAR IF A PHYSICAL SOLUTION IS POSSIBLE.
000543:                                                                                                  #  COGAFLAG* NONE         *AN INTERPRETIVE SWITCH WHICH IS SET IF RESTRICTION 1 HAS BEEN VIOLATED (NO SOLUTION),
000544:                                                                                                  #          *              *CLEAR IF NOT.
000545:                                                                                                  #  APSESW  * NONE         *AN INTERPRETIVE SWITCH WHICH IS SET IF RDESIRED WAS GREATER THAN RADIUS OF APOCENTER OR


000547:                                                                                                  #          *              *LESS THAN RADIUS OF PERICENTER.  THE APOCENTER OR PERICENTER SOLUTION, RESPECTIVELY,
000548:                                                                                                  #          *              *WILL THEN BE RETURNED.  THE SWITCH IS CLEAR IF RDESIRED WAS BETWEEN PERICENTER AND
000549:                                                                                                  #          *              *APOCENTER.
000550:                                                                                                  #  SOLNSW  * NONE         *AN INTERPRETIVE SWITCH WHICH IS SET IF THE CONIC IS SO CLOSE TO A CIRCLE THAT THE TERMIN
000551:                                                                                                  #                         *POINT IS AMBIGUOUS, VIOLATING RESTRICTION 3.  IF ECCENTRICITY IS GREATER THAN 2-TO-THE-
000552:                                                                                                  #                         *MINUS-18, THE SWITCH IS CLEAR.
000553:
000554:
000555:                                                                                                  #  IN ADDITION, IF RVSW IS CLEAR, THE FOLLOWING ARE OUTPUT-
000556:
000557:                                                                                                  #  MPAC -  * +7 FOR EARTH *DP TERMINAL VELOCITY VECTOR IN METERS/CENTISEC.
000558:                                                                                                  #   MPAC +5* +5 FOR MOON  *
000559:                                                                                                  #  0D - 5D * +29 FOR EARTH*DP TERMINAL POSITION VECTOR IN METERS (PL AT 6D)
000560:                                                                                                  #          * +27 FOR MOON *
000561:
000562:                                                                                                  #  FOR OTHER OUTPUT WHICH MAY BE OF USE, SEE DEBRIS.
000563:
000564:
000565:
000566:                                                                                                  #  DEBRIS -
000567:
000568:                                                                                                  #       PARAMETERS WHICH MAY BE OF USE -
000569:
000570:                                                                                                  #          * SCALE FACTOR *
000571:                                                                                                  #  VARIABLE*IN POWERS OF 2*                         DESCRIPTION AND REMARKS
000572:                                                                                                  #  --------*--------------*                         -----------------------
000573:                                                                                                  #  R1 (32D)* +29 FOR EARTH*DP MAGNITUDE OF INITIAL POSITION VECTOR, RVEC, IN METERS
000574:                                                                                                  #          * +27 FOR MOON *
000575:                                                                                                  #  R1A     * +6           *DP RATIO OF R1 TO SEMIMAJOR AXIS (NEG. FOR HYPERBOLIC TRAJECTORIES)
000576:                                                                                                  #  P       * +4           *DP RATIO OF SEMILATUS RECTUM TO R1
000577:                                                                                                  #  COGA    * +5           *DP COTAN OF ANGLE BETWEEN RVEC AND VVEC
000578:                                                                                                  #  UR1     * +1           *DP UNIT VECTOR OF RVEC
000579:                                                                                                  #  U2      * +1           *DP UNIT VECTOR OF VVEC
000580:                                                                                                  #  UN      * +1           *DP UNIT VECTOR OF UR1*U2
000581:                                                                                                  #  CSTH    * +1           *DP COSINE OF TRUE ANOMALY DIFFERENCE BETWEEN RVEC AND RDESIRED.
000582:                                                                                                  #  SNTH    * +1           *DP SINE OF TRUE ANOMALY DIFFERENCE.
000583:
000584:
000585:                                                                                                  #       PARAMETERS OF NO USE -
000586:                                                                                                  #  SP PARAMETERS -  RTNTT, GEOMSGN, RTNPRM, MAGVEC2=R2 (DP), PLUS PUSHLIST LOCATIONS 0-11D, 14D-21D, 24D-39D, 41D
000587:                                                                                                  #  ADDITIONAL INTERPRETIVE SWITCHES USED - NORMSW, 360SW
000588:
000589:


000591:                                                                                                  #  PROGRAM DESCRIPTION - APSIDES SUBROUTINE                                        DATE - 1 SEPTEMBER 1967
000592:                                                                                                  #  MOD NO. - 0                                                                     LOG SECTION - CONIC SUBROUTINES
000593:                                                                                                  #  MOD BY KRAUSE                                                                   ASSEMBLY - COLOSSUS REVISION 88
000594:
000595:
000596:
000597:                                                                                                  #  FUNCTIONAL DESCRIPTION -
000598:
000599:                                                                                                  #       THIS SUBROUTINE, GIVEN AN INITIAL STATE VECTOR CALCULATES THE RADIUS OF PERICENTER AND OF APOCENTER AND THE
000600:                                                                                                  #  ECCENTRICITY OF THE RESULTING CONIC TRAJECTORY, WHICH MAY BE A STRAIGHT LINE,
000601:                                                                                                  #  CIRCLE, ELLIPSE, PARABOLA, OR HYPERBOLA WITH RESPECT TO THE EARTH OR THE MOON.  THE USE OF THE SUBROUTINE CAN BE
000602:                                                                                                  #  EXTENDED USING OTHER PRIMARY BODIES BY SIMPLE ADDITIONS TO THE MUTABLE WITHOUT INTRODUCING ANY CODING CHANGES,
000603:                                                                                                  #  ACCEPTING THE INHERENT SCALE FACTOR CHANGES IN POSITION AND VELOCITY.
000604:
000605:
000606:                                                                                                  #  THE RESTRICTIONS ARE -
000607:                                                                                                  #       1.  IF APOCENTER IS BEYOND THE SCALING OF POSITION, THE SCALE FACTOR LIMIT (536,870,910 METERS WITH RESPECT
000608:                                                                                                  #  TO THE EARTH OR 134,217,727.5 METERS WITH RESPECT TO THE MOON) WILL BE RETURNED.
000609:                                                                                                  #       2. THE PARAMETERS IN THE PROBLEM MUST NOT EXCEED THEIR SCALING LIMITS SPECIFIED IN THE GSOP.  IF THE LIMITS
000610:                                                                                                  #  ARE EXCEEDED, THE RESULTING SOLUTION WILL BE MEANINGLESS.
000611:
000612:                                                                                                  #       THE AGC COMPUTATION TIME IS APPROXIMATELY .103 SECONDS.
000613:
000614:
000615:
000616:                                                                                                  #  REFERENCES -
000617:                                                                                                  #       MISSION PROGRAMMING DEFINITION MEMO NO. 10, LUNAR LANDING MISSION GSOP-SECTION 5.5
000618:
000619:
000620:
000621:                                                                                                  #  INPUT - ERASABLE INITIALIZATION REQUIRED
000622:
000623:                                                                                                  #          * SCALE FACTOR *
000624:                                                                                                  #  VARIABLE*IN POWERS OF 2*                         DESCRIPTION AND REMARKS
000625:                                                                                                  #  --------*--------------*                         -----------------------
000626:                                                                                                  #  RVEC    * +29 FOR EARTH*DP INITIAL POSITION VECTOR IN METERS
000627:                                                                                                  #          * +27 FOR MOON *
000628:                                                                                                  #  VVEC    * +7 FOR EARTH *DP INITIAL VELOCITY VECTOR IN METERS/CENTISECOND
000629:                                                                                                  #          * +5 FOR MOON  *
000630:                                                                                                  #  X1 (38D)*NONE          *INDEX REGISTER TO BE SET TO -2D OR -10D ACCORDING TO WHETHER THE EARTH OR MOON,
000631:                                                                                                  #          *              *RESPECTIVELY, IS THE CENTRAL BODY.
000632:
000633:
000634:
000635:                                                                                                  #  SUBROUTINES CALLED -
000636:                                                                                                  #       PARAM, GEOM
000637:
000638:
000639:
000640:                                                                                                  #  CALLING SEQUENCE AND NORMAL EXIT MODES -


000642:                                                                                                  #     IF ONLY TIME IS DESIRED AS OUTPUT -
000643:                                                                                                  #  L        CALL                   MUST BE IN INTERPRETIVE MODE BUT OVFIND ARBITRARY.
000644:                                                                                                  #  L+1             APSIDES         RETURNS WITH PL AT 0, RADIUS OF APOCENTER IN MPAC AND RADIUS OF PERICENTER IN 0D
000645:                                                                                                  #  L+2      STODL  APOAPSE
000646:                                                                                                  #  L+3             0D
000647:                                                                                                  #  L+4      STORE  PERIAPSE                APOAPSE AND PERIAPSE ARE SYMBOLIC REPRESENTATIONS OF THE USERS LOCATIONS
000648:                                                                                                  #  L+5      ...                    CONTINUE
000649:
000650:
000651:
000652:                                                                                                  #  OUTPUT -
000653:                                                                                                  #          * SCALE FACTOR *
000654:                                                                                                  #  VARIABLE*IN POWERS OF 2*                         DESCRIPTION AND REMARKS
000655:                                                                                                  #  --------*--------------*                         -----------------------
000656:                                                                                                  #  MPAC    * +29 FOR EARTH*DP RADIUS OF APOCENTER IN METERS
000657:                                                                                                  #          * +27 FOR MOON *
000658:                                                                                                  #  0D-1D   * +29 FOR EARTH*DP RADIUS OF PERICENTER IN METERS
000659:                                                                                                  #          * +27 FOR MOON *
000660:                                                                                                  #  ECC     * +3           *DP ECCENTRICITY OF CONIC TRAJECTORY.
000661:
000662:                                                                                                  #  FOR OTHER OUTPUT WHICH MAY BE OF USE, SEE DEBRIS.
000663:
000664:
000665:
000666:                                                                                                  #  DEBRIS -
000667:
000668:                                                                                                  #       PARAMETERS WHICH MAY BE OF USE -
000669:
000670:                                                                                                  #          * SCALE FACTOR *
000671:                                                                                                  #  VARIABLE*IN POWERS OF 2*                         DESCRIPTION AND REMARKS
000672:                                                                                                  #  --------*--------------*                         -----------------------
000673:                                                                                                  #  R1 (32D)* +29 FOR EARTH*DP MAGNITUDE OF INITIAL POSITION VECTOR, RVEC, IN METERS
000674:                                                                                                  #          * +27 FOR MOON *
000675:                                                                                                  #  R1A     * +6           *DP RATIO OF R1 TO SEMIMAJOR AXIS (NEG. FOR HYPERBOLIC TRAJECTORIES)
000676:                                                                                                  #  P       * +4           *DP RATIO OF SEMILATUS RECTUM TO R1
000677:                                                                                                  #  COGA    * +5           *DP COTAN OF ANGLE BETWEEN RVEC AND VVEC
000678:                                                                                                  #  UR1     * +1           *DP UNIT VECTOR OF RVEC
000679:                                                                                                  #  U2      * +1           *DP UNIT VECTOR OF VVEC
000680:                                                                                                  #  UN      * +1           *DP UNIT VECTOR OF UR1*U2
000681:                                                                                                  #  MAGVEC2 * +7 FOR EARTH *DP MAGNITUDE OF VVEC
000682:                                                                                                  #          * +5 FOR MOON  *
000683:
000684:
000685:                                                                                                  #       PARAMETERS OF NO USE -
000686:                                                                                                  #  SP PARAMETERS - RTNAPSE, GEOMSGN, RTNPRM, PLUS PUSHLIST LOCATIONS 0-5,10D-11D, 14D-21D, 31D-38D.
000687:                                                                                                  #  ADDITIONAL INTERPRETIVE SWITCHES USED - NORMSW
000688:
000689:
000690:
000691: 12,2000                                           SETLOC   CONICS


000693: 12,2000                                           BANK
000694:
000695: 12,2023                                           COUNT*   $$/CONIC
000696: 12,2023  E5,1721                                  EBANK=   UR1
000697: 12,2023           40001        KEPLERN            SETPD    BOV
000698: 12,2024           00001                                    0
000699: 12,2025           24026                                    +1
000700: 12,2026           77773                           VLOAD*
000701: 12,2027           10005                                    MUTABLE,1
000702: 12,2030           24017                           STOVL    14D
000703: 12,2031           01503                                    RRECT
000704: 12,2032           66256                           UNIT     SSP
000705: 12,2033           00027                                    ITERCTR
000706: 12,2034           00024                                    20D
000707: 12,2035           16647                           STODL    URRECT
000708: 12,2036           00045                                    36D
000709: 12,2037           24041                           STOVL    R1
000710: 12,2040           01503                                    RRECT
000711: 12,2041           76441                           DOT      SL1R
000712: 12,2042           01511                                    VRECT
000713: 12,2043           76405                           DMP      SL1R
000714: 12,2044           00023                                    1/ROOTMU                              #  1/ROOTMU (-17 OR -14)
000715: 12,2045           24043                           STOVL    KEPC1                                 #  C1=R.V/ROOTMU (+17 OR +16)
000716:
000717: 12,2046           01511                                    VRECT
000718: 12,2047           57236                           VSQ      DMPR
000719: 12,2050           00017                                    1/MU                                  #  1/MU (-34 OR -28)
000720: 12,2051           52405                           DMP      SL3
000721: 12,2052           00041                                    R1
000722: 12,2053           61425                           DSU      ROUND
000723: 12,2054           11007                                    D1/64
000724: 12,2055           00045                           STORE    KEPC2                                 #  C2=RV.V/MU -1 (+6)
000725:
000726: 12,2056           74421                           BDSU     SR1R
000727: 12,2057           11007                                    D1/64
000728: 12,2060           77671                           DDV
000729: 12,2061           00041                                    R1
000730: 12,2062           00011                           STORE    ALPHA                                 #  ALPHA=(1-C2)/R1 (-22 OR -20)
000731:
000732:
000733: 12,2063           71244                           BPL      DLOAD                                 #  MAXIMUM X DEPENDS ON TYPE OF CONIC
000734: 12,2064           24073                                    1REV
000735: 12,2065           11025                                    -50SC                                 #  -50SC (+12)
000736: 12,2066           40071                           DDV      BOV
000737: 12,2067           00011                                    ALPHA
000738: 12,2070           24077                                    STOREMAX
000739: 12,2071           52166                           SQRT     GOTO
000740: 12,2072           24077                                    STOREMAX
000741:
000742: 12,2073           55366        1REV               SQRT     BDDV


000744: 12,2074           11027                                    2PISC                                 #  2PISC (+6)
000745: 12,2075           77600                           BOV
000746: 12,2076           24077                                    STOREMAX
000747: 12,2077           00013        STOREMAX           STORE    XMAX
000748: 12,2100           65205                           DMP      PDDL
000749: 12,2101           00023                                    1/ROOTMU
000750: 12,2102           00011                                    ALPHA
000751: 12,2103           65301                           NORM     PDDL
000752: 12,2104           00047                                    X1
000753: 12,2105           56257                           SL*      DDV
000754: 12,2106           20173                                    0          -6,1
000755: 12,2107           50000                           BOV      BMN
000756: 12,2110           24124                                    MODDONE
000757: 12,2111           24124                                    MODDONE                               #  MPAC=PERIOD
000758: 12,2112           51525        PERIODCH           PDDL     ABS                                   #  0D=PERIOD
000759: 12,2113           02074                                    TAU.
000760: 12,2114           50025                           DSU      BMN
000761: 12,2115           00001                                    0D
000762: 12,2116           24124                                    MODDONE
000763: 12,2117           77765                           SIGN
000764: 12,2120           02074                                    TAU.
000765: 12,2121           16074                           STODL    TAU.
000766: 12,2122           77650                           GOTO
000767: 12,2123           24112                                    PERIODCH
000768: 12,2124           71201        MODDONE            SETPD    DLOAD
000769: 12,2125           00001                                    0
000770: 12,2126           02121                                    XKEPNEW
000771: 12,2127           00025                           STORE    X
000772: 12,2130           53165                           SIGN     BZE
000773: 12,2131           02074                                    TAU.
000774: 12,2132           24302                                    BADX
000775: 12,2133           51440                           BMN      ABS
000776: 12,2134           24302                                    BADX
000777: 12,2135           51025                           DSU      BPL
000778: 12,2136           00013                                    XMAX
000779: 12,2137           24302                                    BADX
000780: 12,2140           51145        STORBNDS           DLOAD    BPL
000781: 12,2141           02074                                    TAU.
000782: 12,2142           24152                                    STOREMIN
000783: 12,2143           57545                           DLOAD    DCOMP
000784: 12,2144           00013                                    XMAX
000785: 12,2145           14015                           STODL    XMIN
000786: 12,2146           24007                                    KEPZERO
000787: 12,2147           00013                           STORE    XMAX
000788: 12,2150           77650                           GOTO
000789: 12,2151           24155                                    DXCOMP
000790: 12,2152           77745        STOREMIN           DLOAD
000791: 12,2153           24007                                    KEPZERO
000792: 12,2154           00015                           STORE    XMIN
000793: 12,2155           57345        DXCOMP             DLOAD    DMPR


000795: 12,2156           02074                                    TAU.
000796: 12,2157           11020                                    BEE22
000797: 12,2160           77646                           ABS
000798: 12,2161           16170                           STODL    EPSILONT
000799: 12,2162           01553                                    XPREV
000800: 12,2163           77621        XDIFF              BDSU
000801: 12,2164           00025                                    X
000802: 12,2165           02643                           STORE    DELX
000803:
000804:
000805: 12,2166           63545        KEPLOOP            DLOAD    DSQ
000806: 12,2167           00025                                    X                                     #  X=XKEP
000807: 12,2170           41501                           NORM     PUSH                                  #  0D=XSQ (+34 OR +32 -N1)      PL AT 2
000808: 12,2171           00047                                    X1
000809: 12,2172           53605                           DMP      SRR*
000810: 12,2173           00011                                    ALPHA
000811: 12,2174           21573                                    0          -6,1
000812: 12,2175           34031                           STCALL   XI                                    #  XI=ALPHA XSQ (+6)
000813: 12,2176           24421                                    DELTIME
000814: 12,2177           44200                           BOV      BDSU
000815: 12,2200           24311                                    TIMEOVFL                              #  UNLIKELY
000816: 12,2201           02074                                    TAU.
000817: 12,2202           02645                           STORE    DELT                                  #  DELT=DELINDEP
000818: 12,2203           44246                           ABS      BDSU
000819: 12,2204           02170                                    EPSILONT
000820: 12,2205           71244                           BPL      DLOAD
000821: 12,2206           24333                                    KEPCONVG
000822: 12,2207           00037                                    T
000823: 12,2210           60225                           DSU      NORM
000824: 12,2211           01551                                    TC
000825: 12,2212           00047                                    X1
000826: 12,2213           60325                           PDDL     NORM
000827: 12,2214           02643                                    DELX
000828: 12,2215           00050                                    X2
000829: 12,2216           41260                           XSU,1    DMP
000830: 12,2217           00047                                    X2
000831: 12,2220           02645                                    DELT
000832: 12,2221           56257                           SLR*     DDV
000833: 12,2222           21202                                    1,1
000834: 12,2223           41542                           SR1      PUSH                                  #  0D=TRIAL DELX                PL AT 2
000835: 12,2224           71244                           BPL      DLOAD
000836: 12,2225           24246                                    POSDELX
000837: 12,2226           00025                                    X
000838: 12,2227           00013                           STORE    XMAX                                  #  MOVE MAX BOUND IN
000839: 12,2230           45221                           BDSU     DSU                                   #                               PL AT 0
000840: 12,2231           00015                                    XMIN
000841: 12,2232           51000                           BOV      BPL
000842: 12,2233           24240                                    NDXCHNGE
000843: 12,2234           24240                                    NDXCHNGE
000844: 12,2235           52145                           DLOAD    GOTO


000846: 12,2236           00001                                    0D
000847: 12,2237           24260                                    NEWDELX
000848:
000849:
000850: 12,2240           45345        NDXCHNGE           DLOAD    DSU
000851: 12,2241           00015                                    XMIN
000852: 12,2242           00025                                    X
000853: 12,2243           52075                           DMPR     GOTO                                  #  TO FORCE MPAC +2 TO ZERO
000854: 12,2244           11023                                    DP9/10
000855: 12,2245           24260                                    NEWDELX
000856:
000857:
000858: 12,2246           77745        POSDELX            DLOAD
000859: 12,2247           00025                                    X
000860: 12,2250           00015                           STORE    XMIN                                  #  MOVE MIN BOUND IN
000861: 12,2251           45221                           BDSU     DSU                                   #                               PL AT 0
000862: 12,2252           00013                                    XMAX
000863: 12,2253           50000                           BOV      BMN
000864: 12,2254           24274                                    PDXCHNGE
000865: 12,2255           24274                                    PDXCHNGE
000866: 12,2256           77745                           DLOAD
000867: 12,2257           00001                                    0D
000868: 12,2260           02643        NEWDELX            STORE    DELX
000869: 12,2261           43254                           BZE      DAD
000870: 12,2262           24333                                    KEPCONVG
000871: 12,2263           00025                                    X
000872: 12,2264           14025                           STODL    X
000873: 12,2265           00037                                    T
000874: 12,2266           01551                           STORE    TC
000875: 12,2267           46034        BRNCHCTR           RTB      BHIZ
000876: 12,2270           24644                                    CHECKCTR
000877: 12,2271           24333                                    KEPCONVG
000878: 12,2272           77650                           GOTO
000879: 12,2273           24166                                    KEPLOOP                               #  ITERATE
000880:
000881:
000882: 12,2274           45345        PDXCHNGE           DLOAD    DSU
000883: 12,2275           00013                                    XMAX
000884: 12,2276           00025                                    X
000885: 12,2277           52075                           DMPR     GOTO                                  #  TO FORCE MPAC +2 TO ZERO
000886: 12,2300           11023                                    DP9/10
000887: 12,2301           24260                                    NEWDELX
000888:
000889:
000890: 12,2302           70545        BADX               DLOAD    SR1
000891: 12,2303           00013                                    XMAX
000892: 12,2304           77765                           SIGN
000893: 12,2305           02074                                    TAU.
000894: 12,2306           00025                           STORE    X
000895: 12,2307           77650                           GOTO


000897: 12,2310           24140                                    STORBNDS
000898: 12,2311           50145        TIMEOVFL           DLOAD    BMN                                   #  X WAS TOO BIG
000899: 12,2312           00025                                    X
000900: 12,2313           24330                                    NEGTOVFL
000901: 12,2314           00013                           STORE    XMAX
000902: 12,2315           70545        CMNTOVFL           DLOAD    SR1
000903: 12,2316           02643                                    DELX
000904: 12,2317           02643                           STORE    DELX
000905: 12,2320           44254                           BZE      BDSU
000906: 12,2321           02111                                    KEPRTN
000907: 12,2322           00025                                    X
000908: 12,2323           14025                           STODL    X
000909: 12,2324           01551                                    TC
000910: 12,2325           00037                           STORE    T
000911: 12,2326           77650                           GOTO
000912: 12,2327           24267                                    BRNCHCTR
000913: 12,2330           00015        NEGTOVFL           STORE    XMIN
000914: 12,2331           77650                           GOTO
000915: 12,2332           24315                                    CMNTOVFL
000916: 12,2333           44545        KEPCONVG           DLOAD    SR4R
000917: 12,2334           00041                                    R1
000918: 12,2335           74225                           DSU      VXSC
000919: 12,2336           00035                                    XSQC(XI)
000920: 12,2337           02647                                    URRECT
000921: 12,2340           65372                           VSL1     PDDL                                  #  0D=(R1-XSQC(XI))URRECT (+33 OR +31)
000922: 12,2341           00025                                    X
000923: 12,2342           60316                           DSQ      NORM
000924: 12,2343           00047                                    X1
000925: 12,2344           57275                           DMPR     DMPR
000926: 12,2345           00023                                    1/ROOTMU
000927: 12,2346           00025                                    X
000928: 12,2347           53605                           DMP      SRR*
000929: 12,2350           00033                                    S(XI)
000930: 12,2351           21572                                    0          -7,1
000931: 12,2352           77621                           BDSU
000932: 12,2353           00037                                    T
000933: 12,2354           74352                           SL1      VXSC
000934: 12,2355           01511                                    VRECT
000935: 12,2356           53372                           VSL1     VAD                                   #                               PL AT 0
000936: 12,2357           77712                           VSL4
000937: 12,2360           01535                           STORE    RCV                                   #  RCV (+29 OR +27)
000938:
000939:
000940: 12,2361           60246                           ABVAL    NORM
000941: 12,2362           00050                                    X2
000942: 12,2363           14043                           STODL    RCNORM
000943: 12,2364           00031                                    XI
000944: 12,2365           45275                           DMPR     DSU
000945: 12,2366           00033                                    S(XI)
000946: 12,2367           11005                                    D1/128


000948: 12,2370           76405                           DMP      SL1R
000949: 12,2371           00021                                    ROOTMU
000950: 12,2372           53605                           DMP      SLR*
000951: 12,2373           00025                                    X
000952: 12,2374           56601                                    0          -3,2
000953: 12,2375           74271                           DDV      VXSC
000954: 12,2376           00043                                    RCNORM
000955: 12,2377           02647                                    URRECT
000956: 12,2400           65372                           VSL1     PDDL                                  #  0D=URRECT(XI S(XI)-1)X ROOTMU/RCV (+15
000957: 12,2401           00035                                    XSQC(XI)                              #  OR +13)                        PL AT 6
000958: 12,2402           56257                           SLR*     DDV
000959: 12,2403           56602                                    0          -4,2
000960: 12,2404           00043                                    RCNORM
000961: 12,2405           74221                           BDSU     VXSC
000962: 12,2406           11021                                    D1/256
000963: 12,2407           01511                                    VRECT
000964: 12,2410           42455                           VAD      VSL8                                  #                               PL AT 0
000965: 12,2411           77626                           STADR
000966: 12,2412           62234                           STODL    VCV                                   #  VCV (+7 OR +5)
000967: 12,2413           00037                                    T
000968: 12,2414           15551                           STODL    TC
000969: 12,2415           00025                                    X
000970: 12,2416           01553                           STORE    XPREV
000971: 12,2417           77650                           GOTO
000972: 12,2420           02111                                    KEPRTN
000973:


000975: 12,2421           77776        DELTIME            EXIT                                           #  MPAC=XI (+6), 0D=XSQ (+34 OR +32 -N1)
000976: 12,2422           07234                           TC       POLY
000977: 12,2423           00010                           DEC      8          B-14
000978: 12,2424           02525 12526                     2DEC     .083333334
000979:
000980: 12,2426           67356 75666                     2DEC     -.266666684
000981:
000982: 12,2430           15001 23771                     2DEC     .406349155
000983:
000984: 12,2432           64342 43674                     2DEC     -.361198675
000985:
000986: 12,2434           06563 04645                     2DEC     .210153242
000987:
000988: 12,2436           75173 52672                     2DEC     -.086221951
000989:
000990: 12,2440           00656 14331                     2DEC     .026268812
000991:
000992: 12,2442           77633 40512                     2DEC     -.006163316
000993:
000994: 12,2444           00023 11210                     2DEC     .001177342
000995:
000996: 12,2446           77774 67506                     2DEC     -.000199055
000997:
000998: 12,2450           06051                           TC       INTPRET
000999: 12,2451           14033                           STODL    S(XI)
001000: 12,2452           00031                                    XI
001001: 12,2453           77776                           EXIT
001002: 12,2454           07234                           TC       POLY
001003: 12,2455           00010                           DEC      8          B-14
001004: 12,2456           01000 00000                     2DEC     .031250001
001005:
001006: 12,2460           72525 52506                     2DEC     -.166666719
001007:
001008: 12,2462           13301 15337                     2DEC     .355555413
001009:
001010: 12,2464           62776 54733                     2DEC     -.406347410
001011:
001012: 12,2466           11176 13267                     2DEC     .288962094
001013:
001014: 12,2470           73410 51674                     2DEC     -.140117894
001015:
001016: 12,2472           01446 33641                     2DEC     .049247387
001017:
001018: 12,2474           77451 65233                     2DEC     -.013081923
001019:
001020: 12,2476           00055 37266                     2DEC     .002806389
001021:
001022: 12,2500           77767 52336                     2DEC     -.000529414
001023:
001024: 12,2502           06051                           TC       INTPRET


001026: 12,2503           53605                           DMP      SRR*                                  #                               PL AT 0
001027: 12,2504           00001                                    0D
001028: 12,2505           21574                                    0          -5,1
001029: 12,2506           00035                           STORE    XSQC(XI)                              #  XSQC(XI) (+33 OR +31)
001030: 12,2507           72405                           DMP      SL1
001031: 12,2510           00043                                    KEPC1
001032: 12,2511           65234                           RTB      PDDL                                  #  XCH WITH PL. 0D=C1 XSQ C(XI) (+49 OR +46
001033: 12,2512           21615                                    TPMODE                                #                               PL AT 0,3
001034: 12,2513           53605                           DMP      SRR*
001035: 12,2514           00033                                    S(XI)
001036: 12,2515           21574                                    0          -5,1
001037: 12,2516           72405                           DMP      SL1
001038: 12,2517           00045                                    KEPC2
001039: 12,2520           65234                           RTB      PDDL                                  #  3D=C2 XSQ S(XI) (+35 OR +33)  PL AT 6
001040: 12,2521           21615                                    TPMODE
001041: 12,2522           00041                                    R1
001042: 12,2523           76261                           SR       TAD                                   #                               PL AT 3
001043: 12,2524           20607                                    6
001044: 12,2525           41301                           NORM     DMP                                   #  TO PRESERVE SIGNIF.
001045: 12,2526           00047                                    X1
001046: 12,2527           00025                                    X
001047: 12,2530           76257                           SR*      TAD                                   #  X(C2 XSQ S(XI) +R1) (+49 OR +46) PL AT 0
001048: 12,2531           20576                                    0          -3,1
001049: 12,2532           57232                           SL4R     DMPR
001050: 12,2533           00023                                    1/ROOTMU
001051: 12,2534           00037                           STORE    T
001052: 12,2535           77616                           RVQ
001053:


001055: 12,2536           71214        ITERATOR           BONCLR   DLOAD
001056: 12,2537           00614                                    SLOPESW
001057: 12,2540           24606                                    FIRSTIME
001058: 12,2541           00037                                    DEP
001059: 12,2542           60225                           DSU      NORM
001060: 12,2543           02762                                    DEPREV
001061: 12,2544           00047                                    X1
001062: 12,2545           60325                           PDDL     NORM
001063: 12,2546           00015                                    DELINDEP
001064: 12,2547           00050                                    X2
001065: 12,2550           41260                           XSU,1    DMP
001066: 12,2551           00047                                    X2
001067: 12,2552           02760                                    DELDEP
001068: 12,2553           56257                           SLR*     DDV                                   #                               PL UP 2
001069: 12,2554           21202                                    1,1
001070: 12,2555           43142                           SR1      BOFF
001071: 12,2556           04351                                    ORDERSW
001072: 12,2557           24562                                    SGNCHECK
001073: 12,2560           75246                           ABS      SIGN                                  #  IN CASE 2ND DERIV. CHANGED SIGN, MUST
001074: 12,2561           02760                                    DELDEP                                #  DISREGARD IT TO FIND MIN.
001075:
001076: 12,2562           51006        SGNCHECK           PUSH     BPL                                   #  TRIAL DELINDEP               PL DOWN 2
001077: 12,2563           24620                                    POSDEL
001078: 12,2564           43145                           DLOAD    BON
001079: 12,2565           02766                                    INDEP
001080: 12,2566           04311                                    ORDERSW
001081: 12,2567           24571                                    MINCHECK
001082: 12,2570           00017                           STORE    MAX                                   #  IF NOT 2ND ORDER, CAN MOVE MAX BOUND IN.
001083:
001084: 12,2571           45221        MINCHECK           BDSU     DSU
001085: 12,2572           00011                                    MIN
001086: 12,2573           51000                           BOV      BPL
001087: 12,2574           24600                                    MODNGDEL
001088: 12,2575           24600                                    MODNGDEL
001089: 12,2576           77650                           GOTO
001090: 12,2577           24632                                    DELOK
001091:
001092:
001093: 12,2600           45345        MODNGDEL           DLOAD    DSU                                   #  TRIAL DELINDEP WOULD EXCEED MIN BOUND
001094: 12,2601           00011                                    MIN
001095: 12,2602           02766                                    INDEP
001096: 12,2603           52005                           DMP      GOTO
001097: 12,2604           11023                                    DP9/10
001098: 12,2605           24634                                    NEWDEL
001099:
001100:
001101: 12,2606           41345        FIRSTIME           DLOAD    DMP
001102: 12,2607           00011                                    MIN
001103: 12,2610           00051                                    TWEEKIT                               #  DLOAD TWEEKIT(40D) SENSITIVE TO CHANGE.
001104: 12,2611           41325                           PDDL     DMP                                   #  S2(41D) SHOULDNT CONTAIN HI ORDER ONES


001106: 12,2612           00017                                    MAX
001107: 12,2613           00051                                    TWEEKIT
001108: 12,2614           77625                           DSU
001109: 12,2615           52165                           SIGN     GOTO
001110: 12,2616           02760                                    DELDEP
001111: 12,2617           24562                                    SGNCHECK
001112:
001113:
001114: 12,2620           43145        POSDEL             DLOAD    BON
001115: 12,2621           02766                                    INDEP
001116: 12,2622           04311                                    ORDERSW
001117: 12,2623           24625                                    MAXCHECK
001118: 12,2624           00011                           STORE    MIN                                   #  IF NOT 2ND ORDER, CAN MOVE MIN BOUND IN.
001119:
001120: 12,2625           45221        MAXCHECK           BDSU     DSU
001121: 12,2626           00017                                    MAX
001122: 12,2627           50000                           BOV      BMN
001123: 12,2630           24636                                    MODPSDEL
001124: 12,2631           24636                                    MODPSDEL
001125: 12,2632           77745        DELOK              DLOAD
001126: 12,2633           00001                                    0D
001127: 12,2634           00015        NEWDEL             STORE    DELINDEP
001128: 12,2635           77616                           RVQ
001129:
001130:
001131: 12,2636           45345        MODPSDEL           DLOAD    DSU
001132: 12,2637           00017                                    MAX
001133: 12,2640           02766                                    INDEP
001134: 12,2641           52005                           DMP      GOTO
001135: 12,2642           11023                                    DP9/10
001136: 12,2643           24634                                    NEWDEL
001137:
001138:
001139: 12,2644           44753        CHECKCTR           CS       ONE
001140: 12,2645           50120                           INDEX    FIXLOC
001141: 12,2646           60026                           AD       ITERCTR
001142: 12,2647           50120                           INDEX    FIXLOC
001143: 12,2650           54026                           TS       ITERCTR
001144: 12,2651           54154                           TS       MPAC
001145: 12,2652           06073                           TC       DANZIG
001146:


001148: 12,2653           44545        NEWSTATE           DLOAD    SR4R
001149: 12,2654           00041                                    R1
001150: 12,2655           74225                           DSU      VXSC
001151: 12,2656           00035                                    XSQC(XI)
001152: 12,2657           02722                                    UR1
001153: 12,2660           65372                           VSL1     PDDL                                  #  0D=(R1-XSQC(XI))UR1 (+33 OR 31) PL AT 6
001154: 12,2661           00025                                    X
001155: 12,2662           60316                           DSQ      NORM
001156: 12,2663           00047                                    X1
001157: 12,2664           57275                           DMPR     DMPR
001158: 12,2665           00023                                    1/ROOTMU
001159: 12,2666           00025                                    X
001160: 12,2667           53605                           DMP      SRR*
001161: 12,2670           00033                                    S(XI)
001162: 12,2671           21572                                    0          -7,1
001163: 12,2672           77621                           BDSU
001164: 12,2673           00037                                    T
001165: 12,2674           74352                           SL1      VXSC
001166: 12,2675           02744                                    VVEC
001167: 12,2676           53372                           VSL1     VAD                                   #                               PL AT 0
001168: 12,2677           41512                           VSL4     PUSH
001169: 12,2700           77646                           ABVAL
001170: 12,2701           77701        LAMENTER           NORM
001171: 12,2702           00047                                    X1
001172: 12,2703           16720                           STODL    R2
001173: 12,2704           00031                                    XI
001174: 12,2705           45205                           DMP      DSU
001175: 12,2706           00033                                    S(XI)
001176: 12,2707           11005                                    D1/128
001177: 12,2710           76405                           DMP      SL1R
001178: 12,2711           00021                                    ROOTMU
001179: 12,2712           53605                           DMP      SLR*
001180: 12,2713           00025                                    X
001181: 12,2714           21176                                    0          -3,1
001182: 12,2715           74271                           DDV      VXSC
001183: 12,2716           02720                                    R2
001184: 12,2717           02722                                    UR1
001185: 12,2720           65372                           VSL1     PDDL                                  #  6D=V2VEC PART (+15 OR 13)       PL AT 12
001186: 12,2721           00035                                    XSQC(XI)
001187: 12,2722           56257                           SLR*     DDV
001188: 12,2723           21175                                    0          -4,1
001189: 12,2724           02720                                    R2
001190: 12,2725           77621                           BDSU
001191: 12,2726           11021                                    D1/256
001192: 12,2727           53361                           VXSC     VAD
001193: 12,2730           02744                                    VVEC                                  #                               PL AT 6
001194: 12,2731           43412                           VSL8     RVQ
001195:


001197: 04,2000                                           SETLOC   CONICS1
001198: 04,2000                                           BANK
001199:
001200: 04,3001                                           COUNT*   $$/CONIC
001201:                                                                                                  #  DO NOT DISTURB THE ORDER OF THESE CDS, OVERLAYS HAVE BEEN MADE.
001202: 04,3001           00000        BEE17              DEC      0          B-14                       #  KEEP WITH D1/8 2DEC 1.0B-17 (0000004000)
001203: 04,3002           04000 00000  D1/8               2DEC     1.0        B-3
001204:
001205: 04,3004           00200 00000  D1/128             2DEC     1.0        B-7
001206:
001207: 04,3006           00400 00000  D1/64              2DEC     1.0        B-6
001208:
001209: 04,3010           10000 00000  D1/4               2DEC     1.0        B-2
001210:
001211: 04,3012           02000 00000  D1/16              2DEC     1.0        B-4
001212:
001213: 04,3014           01000 00000  D1/32              2DEC     1.0        B-5
001214:
001215: 04,3016           00020 00000  D1/1024            2DEC     1.0        B-10
001216:
001217: 04,3020           00100 00000  D1/256             2DEC     1.0        B-8
001218:
001219: 04,3022           34631 23146  DP9/10             2DEC     .9
001220:
001221: 04,3024  12,2006               KEPZERO            EQUALS   LO6ZEROS
001222: 04,3024           77467 77777  -50SC              2DEC     -50.0      B-12
001223:
001224: 04,3026           03110 17665  2PISC              2DEC     6.28318530 B-6
001225:
001226: 04,3030  04,3013               BEE19              EQUALS   D1/32      -1                         #  2DEC 1.0 B-19 (00000 01000)
001227: 04,3030  04,3017               BEE22              EQUALS   D1/256     -1                         #  2DEC 1.0 B-22 (00000 00100)
001228: 04,3030           00000 00001  ONEBIT             2DEC     1.0        B-28
001229:
001230: 04,3032           37767 37737  COGUPLIM           2DEC     .999511597
001231:
001232: 04,3034           40010 40040  COGLOLIM           2DEC     -.999511597
001233:
001234:


001236: 12,2000                                           SETLOC   CONICS
001237: 12,2000                                           BANK
001238:
001239: 12,2732                                           COUNT*   $$/CONIC
001240: 12,2732           40220        TIMETHET           STQ      SETPD                                 #                               PL AT 0
001241: 12,2733           02710                                    RTNTT
001242: 12,2734           00001                                    0
001243: 12,2735           77600                           BOV
001244: 12,2736           24737                                    +1
001245: 12,2737           63375                           VLOAD    PDVL                                  #  SETUP FOR PARAM CALL         PL AT 6
001246: 12,2740           02655                                    RVEC
001247: 12,2741           02744                                    VVEC
001248: 12,2742           77624                           CALL
001249: 12,2743           11036                                    PARAM
001250: 12,2744           45000                           BOV      CALL                                  #                               PL AT 0
001251: 12,2745           24764                                    COGAOVFL
001252: 12,2746           24767                                    GETX
001253: 12,2747           43145        COMMNOUT           DLOAD    BON
001254: 12,2750           00031                                    XI
001255: 12,2751           04310                                    INFINFLG
001256: 12,2752           25752                                    ABTCONIC
001257: 12,2753           45014                           CLEAR    CALL
001258: 12,2754           04273                                    COGAFLAG
001259: 12,2755           24421                                    DELTIME
001260: 12,2756           45014                           BON      CALL
001261: 12,2757           03706                                    RVSW
001262: 12,2760           02710                                    RTNTT
001263: 12,2761           24653                                    NEWSTATE
001264: 12,2762           77650                           GOTO
001265: 12,2763           02710                                    RTNTT
001266:
001267:
001268: 12,2764           77614        COGAOVFL           SETGO
001269: 12,2765           04033                                    COGAFLAG
001270: 12,2766           25752                                    ABTCONIC
001271: 04,3036                                           BANK     4
001272: 04,2000                                           SETLOC   CONICS1
001273: 04,2000                                           BANK
001274: 04,3036                                           COUNT*   $$/CONIC
001275: 04,3036           43020        PARAM              STQ      CLEAR                                 #  MPAC=V1VEC, 0D=R1VEC         PL AT 6
001276: 04,3037           02753                                    RTNPRM
001277: 04,3040           03665                                    NORMSW
001278: 04,3041           77614                           CLEAR
001279: 04,3042           04273                                    COGAFLAG
001280: 04,3043           45131                           SSP      CALL
001281: 04,3044           02673                                    GEOMSGN
001282: 04,3045           27777                                    37777                                 #  GAMMA ALWAYS LESS THAN 180DEG
001283: 04,3046           11102                                    GEOM                                  #  MPAC=SNGA (+1), 0D=CSGA (+1) PL AT 2
001284: 04,3047           14045                           STODL    36D                                   #  36D=SIN GAMMA (+1)           PL AT 0
001285: 04,3050           56261                           SR       DDV


001287: 04,3051           20606                                    5
001288:
001289: 04,3052           00045                                    36D
001290: 04,3053           32766                           STOVL*   COGA
001291: 04,3054           10005                                    MUTABLE,1
001292: 04,3055           14017                           STODL    1/MU
001293: 04,3056           02720                                    MAGVEC2
001294: 04,3057           60316                           DSQ      NORM
001295: 04,3060           00047                                    X1
001296: 04,3061           41275                           DMPR     DMP
001297: 04,3062           00017                                    1/MU
001298: 04,3063           00041                                    R1
001299: 04,3064           77657                           SRR*
001300: 04,3065           21576                                    0          -3,1
001301: 04,3066           44206                           PUSH     BDSU                                  #  0D=R1 V1SQ/MU (+6)           PL AT 2
001302: 04,3067           11015                                    D1/32
001303: 04,3070           16742                           STODL    R1A                                   #  R1A (+6)                     PL AT 0
001304:
001305: 04,3071           60205                           DMP      NORM
001306: 04,3072           00045                                    36D
001307: 04,3073           00047                                    X1
001308: 04,3074           53605                           DMP      SR*
001309: 04,3075           00045                                    36D
001310: 04,3076           20575                                    0          -4,1
001311: 04,3077           02740                           STORE    P                                     #  P (+4)
001312: 04,3100           77650                           GOTO
001313: 04,3101           02753                                    RTNPRM
001314:


001316: 04,3102           77656        GEOM               UNIT                                           #  MPAC=V2VEC, 0D=R1VEC         PL AT 6
001317: 04,3103           16712                           STODL    U2                                    #  U2 (+1)
001318: 04,3104           00045                                    36D
001319: 04,3105           26720                           STOVL    MAGVEC2                               #                               PL AT 0
001320: 04,3106           77656                           UNIT
001321: 04,3107           02722                           STORE    UR1                                   #  UR1 (+1)
001322: 04,3110           72441                           DOT      SL1
001323: 04,3111           02712                                    U2
001324: 04,3112           77725                           PDDL                                           #  OD=CSTH (+1)                 PL AT 2
001325: 04,3113           00045                                    36D
001326: 04,3114           24041                           STOVL    R1                                    #  R1 (+29 OR +27)
001327: 04,3115           02722                                    UR1
001328: 04,3116           76435                           VXV      VSL1
001329: 04,3117           02712                                    U2
001330: 04,3120           75214                           BON      SIGN
001331: 04,3121           03705                                    NORMSW
001332: 04,3122           11134                                    HAVENORM
001333: 04,3123           02673                                    GEOMSGN
001334: 04,3124           40056                           UNIT     BOV
001335: 04,3125           11132                                    COLINEAR
001336: 04,3126           16674        UNITNORM           STODL    UN                                    #  UN (+1)
001337: 04,3127           00045                                    36D
001338: 04,3130           43565                           SIGN     RVQ                                   #  MPAC=SNTH (+1), 34D=SNTH.SNTH (+2)
001339: 04,3131           02673                                    GEOMSGN
001340:
001341:
001342: 04,3132           52162        COLINEAR           VSR1     GOTO
001343: 04,3133           11126                                    UNITNORM
001344:
001345:
001346: 04,3134           75246        HAVENORM           ABVAL    SIGN
001347: 04,3135           02673                                    GEOMSGN
001348: 04,3136           77616                           RVQ                                            #  MPAC=SNTH (+1), 34D=SNTH.SNTH (+2)
001349:


001351: 12,2767                                           BANK     12
001352: 12,2000                                           SETLOC   CONICS
001353: 12,2000                                           BANK
001354:
001355: 12,2767                                           COUNT*   $$/CONIC
001356: 12,2767           66374        GETX               AXT,2    SSP                                   #  ASSUMES P (+4) IN MPAC
001357: 12,2770           00003                                    3
001358: 12,2771           00052                                    S2
001359: 12,2772           00001                                    1
001360: 12,2773           77614                           CLEAR
001361: 12,2774           04276                                    360SW
001362: 12,2775           65366                           SQRT     PDDL                                  #  0D=SQRT(P)                       PL AT 2
001363: 12,2776           02732                                    CSTH
001364: 12,2777           44342                           SR1      BDSU
001365: 12,3000           11011                                    D1/4
001366: 12,3001           54325                           PDDL     SRR                                   #                               PL AT 4D
001367: 12,3002           02730                                    SNTH
001368: 12,3003           21607                                    6
001369: 12,3004           77671                           DDV                                            #                               PL AT 2
001370: 12,3005           77600                           BOV
001371: 12,3006           25122                                    360CHECK
001372: 12,3007           41225                           DSU      DMP
001373: 12,3010           02766                                    COGA                                  #                                   PL AT 0
001374: 12,3011           40132                           SL2R     BOV
001375: 12,3012           25122                                    360CHECK
001376: 12,3013           63406        WLOOP              PUSH     DSQ                                   #  0D=W (+5)                        PL AT 2
001377: 12,3014           65351                           TLOAD    PDDL                                  #  2D=WSQ (+10)                     PL AT 5
001378: 12,3015           00155                                    MPAC
001379: 12,3016           02742                                    R1A
001380: 12,3017           76202                           SR4      TAD                                   #                               PL AT 2
001381: 12,3020           75440                           BMN      SQRT
001382: 12,3021           25205                                    INFINITY
001383: 12,3022           43306                           ROUND    DAD                                   #                               PL AT 0D
001384: 12,3023           61000                           BOV      TIX,2
001385: 12,3024           25120                                    RESETX2
001386: 12,3025           25013                                    WLOOP
001387:
001388:
001389: 12,3026           40065                           BDDV     BOV
001390: 12,3027           11005                                    D1/128
001391: 12,3030           25205                                    INFINITY
001392: 12,3031           41440        POLYCOEF           BMN      PUSH                                  #  0D=1/W (+2) OR 16/W (+6)     PL AT 2
001393: 12,3032           25205                                    INFINITY
001394: 12,3033           77716                           DSQ
001395: 12,3034           41301                           NORM     DMP
001396: 12,3035           00047                                    X1
001397: 12,3036           02742                                    R1A
001398: 12,3037           77457                           SRR*     EXIT
001399: 12,3040           21567                                    0          -10D,1
001400: 12,3041           07234                           TC       POLY


001402: 12,3042           00005                           DEC      5          B-14
001403: 12,3043           20000 00000                     2DEC     .5
001404:
001405: 12,3045           72525 52471                     2DEC     -.166666770
001406:
001407: 12,3047           03146 15003                     2DEC     .100000392
001408:
001409: 12,3051           75556 45210                     2DEC     -.071401086
001410:
001411: 12,3053           01615 13553                     2DEC     .055503292
001412:
001413: 12,3055           76371 63777                     2DEC     -.047264098
001414:
001415: 12,3057           01232 27367                     2DEC     .040694204
001416:
001417: 12,3061           06051                           TC       INTPRET
001418: 12,3062           76405                           DMP      SL1R                                  #                               PL AT 0D
001419: 12,3063           43006                           PUSH     BON
001420: 12,3064           04316                                    360SW
001421: 12,3065           25172                                    TRUE360X
001422: 12,3066           60316        XCOMMON            DSQ      NORM
001423: 12,3067           00047                                    X1
001424: 12,3070           53605                           DMP      SRR*
001425: 12,3071           02742                                    R1A
001426: 12,3072           21565                                    0          -12D,1
001427: 12,3073           14031                           STODL    XI                                    #  XI (+6)
001428:
001429:
001430: 12,3074           00041                                    R1
001431: 12,3075           75542                           SR1      SQRT
001432: 12,3076           41306                           ROUND    DMP
001433: 12,3077           77632                           SL4R                                           #                               PL AT 0
001434: 12,3100           00025                           STORE    X                                     #  X (+17 OR +16)
001435:
001436:
001437:
001438: 12,3101           60316                           DSQ      NORM
001439: 12,3102           00047                                    X1
001440: 12,3103           41325                           PDDL     DMP                                   #  0D=XSQ (+34 OR +32 -N1)      PL AT 2
001441: 12,3104           02740                                    P
001442: 12,3105           00041                                    R1
001443: 12,3106           75452                           SL3      SQRT
001444: 12,3107           56405                           DMP      SL3R
001445: 12,3110           02766                                    COGA
001446: 12,3111           14043                           STODL    KEPC1
001447: 12,3112           02742                                    R1A
001448: 12,3113           43021                           BDSU     CLEAR
001449: 12,3114           11007                                    D1/64
001450: 12,3115           04270                                    INFINFLG
001451: 12,3116           00045                           STORE    KEPC2
001452: 12,3117           77616                           RVQ
001453:


001455: 12,3120           77774        RESETX2            AXT,2
001456: 12,3121           00003                                    3
001457:
001458: 12,3122           51001        360CHECK           SETPD    BPL
001459: 12,3123           00001                                    0D
001460: 12,3124           25127                                    INVRSEQN
001461: 12,3125           77614                           SET
001462: 12,3126           04076                                    360SW
001463:
001464:
001465: 12,3127           75545        INVRSEQN           DLOAD    SQRT
001466: 12,3130           02740                                    P
001467: 12,3131           41325                           PDDL     DMP                                   #  0D=SQRT(P) (+2)                  PL AT 2
001468: 12,3132           02730                                    SNTH
001469: 12,3133           02766                                    COGA
001470: 12,3134           65352                           SL1      PDDL                                  #  2D=SNTH COGA (+5)                PL AT 4
001471: 12,3135           02732                                    CSTH
001472: 12,3136           43202                           SR4      DAD
001473: 12,3137           11015                                    D1/32
001474: 12,3140           41225                           DSU      DMP                                   #                               PL AT 2,0
001475: 12,3141           55301                           NORM     BDDV
001476: 12,3142           00047                                    X1
001477: 12,3143           02730                                    SNTH
001478: 12,3144           51457                           SLR*     ABS                                   #  NOTE: NEAR 360 CASE TREATED DIFFERENTLY
001479: 12,3145           21174                                    0          -5,1
001480: 12,3146           63406                           PUSH     DSQ                                   #  0D=1/W (-1)                  PL AT 2
001481: 12,3147           14043                           STODL    34D
001482: 12,3150           11013                                    D1/16
001483: 12,3151           63406        1/WLOOP            PUSH     DSQ                                   #  2D=G (+4)                        PL AT 4
001484: 12,3152           65234                           RTB      PDDL                                  #                               PL AT 7
001485: 12,3153           21615                                    TPMODE
001486: 12,3154           02742                                    R1A
001487: 12,3155           40405                           DMP      SR4
001488: 12,3156           00043                                    34D
001489: 12,3157           77771                           TAD                                            #                                   PL AT 4
001490: 12,3160           75440                           BMN      SQRT
001491: 12,3161           25205                                    INFINITY
001492: 12,3162           77615                           DAD                                            #                               PL AT 2
001493: 12,3163           60304                           TIX,2    NORM
001494: 12,3164           25151                                    1/WLOOP
001495: 12,3165           00047                                    X1
001496: 12,3166           77665                           BDDV                                           #                                   PL AT 0
001497: 12,3167           52057                           SLR*     GOTO
001498: 12,3170           21172                                    0          -7,1
001499: 12,3171           25031                                    POLYCOEF
001500:
001501:
001502: 12,3172           50145        TRUE360X           DLOAD    BMN
001503: 12,3173           02742                                    R1A


001505: 12,3174           25205                                    INFINITY
001506: 12,3175           60366                           SQRT     NORM
001507: 12,3176           00047                                    X1
001508: 12,3177           53665                           BDDV     SL*
001509: 12,3200           11027                                    2PISC
001510: 12,3201           20176                                    0          -3,1
001511: 12,3202           41425                           DSU      PUSH                                  #  0D=2PI/SQRT(R1A) -X          PL AT 0,2
001512: 12,3203           77650                           GOTO
001513: 12,3204           25066                                    XCOMMON
001514: 12,3205           40001        INFINITY           SETPD    BOV                                   #  NO SOLUTION EXISTS SINCE CLOSURE THROUGH
001515: 12,3206           00001                                    0                                     #  INFINITY IS REQUIRED
001516: 12,3207           25210                                    OVFLCLR
001517: 12,3210           43414        OVFLCLR            SET      RVQ
001518: 12,3211           04070                                    INFINFLG
001519:


001521: 12,3212           40220        LAMBERT            STQ      SETPD
001522: 12,3213           02710                                    RTNLAMB
001523: 12,3214           00001                                    0D
001524: 12,3215           77600                           BOV
001525: 12,3216           25217                                    +1
001526: 12,3217           76614                           CLEAR    VLOAD*
001527: 12,3220           02674                                    SOLNSW
001528: 12,3221           10005                                    MUTABLE,1
001529: 12,3222           14017                           STODL    1/MU
001530: 12,3223           02671                                    TDESIRED
001531: 12,3224           77675                           DMPR
001532: 12,3225           11014                                    BEE19
001533: 12,3226           02764                           STORE    EPSILONL
001534: 12,3227           77214                           SET      VLOAD
001535: 12,3230           00474                                    SLOPESW
001536: 12,3231           02655                                    R1VEC
001537: 12,3232           45115                           PDVL     CALL                                  #  0D=R1VEC (+29 OR +27)        PL AT 6
001538: 12,3233           02663                                    R2VEC                                 #  MPAC=R2VEC (+29 OR +27)
001539: 12,3234           11102                                    GEOM
001540: 12,3235           16730                           STODL    SNTH                                  #  0D=CSTH (+1)                 PL AT 2
001541: 12,3236           02720                                    MAGVEC2
001542: 12,3237           65301                           NORM     PDDL                                  #                               PL AT 4
001543: 12,3240           00047                                    X1
001544: 12,3241           00041                                    R1
001545: 12,3242           56342                           SR1      DDV                                   #                               PL AT 2
001546: 12,3243           65257                           SL*      PDDL                                  #  DXCH WITH 0D, 0D=R1/R2 (+7)  PL AT 0,2
001547: 12,3244           20173                                    0          -6,1
001548: 12,3245           77626                           STADR
001549: 12,3246           75045                           STORE    CSTH                                  #  CSTH (+1)
001550: 12,3247           44342                           SR1      BDSU
001551: 12,3250           11011                                    D1/4
001552: 12,3251           02734                           STORE    1-CSTH                                #  1-CSTH (+2)
001553:
001554: 12,3252           53106                           ROUND    BZE
001555: 12,3253           25473                                    360LAMB
001556: 12,3254           65301                           NORM     PDDL                                  #                               PL AT 4
001557: 12,3255           00047                                    X1
001558: 12,3256           00001                                    0D
001559: 12,3257           56342                           SR1      DDV                                   #                               PL AT 2
001560: 12,3260           75457                           SL*      SQRT
001561: 12,3261           20176                                    0          -3,1
001562: 12,3262           54325                           PDDL     SR                                    #  2D=SQRT(2R1/R2(1-CSTH)) (+5) PL AT 4
001563: 12,3263           02730                                    SNTH
001564: 12,3264           20607                                    6
001565: 12,3265           43271                           DDV      DAD                                   #                               PL AT 2
001566: 12,3266           02734                                    1-CSTH
001567: 12,3267           77626                           STADR
001568: 12,3270           77760                           STORE    COGAMAX
001569: 12,3271           50000                           BOV      BMN                                   #  IF OVFL, COGAMAX=COGUPLIM
001570: 12,3272           25277                                    UPLIM                                 #  IF NEG, USE EVEN IF LT COGLOLIM, SINCE


001572: 12,3273           25302                                    MAXCOGA                               #    THIS WOULD BE RESET IN LAMBLOOP
001573: 12,3274           50025                           DSU      BMN                                   #  IF COGAMAX GT COGUPLIM, COGAMAX=COGUPLIM
001574: 12,3275           11033                                    COGUPLIM
001575: 12,3276           25302                                    MAXCOGA                               #  OTHERWISE OK, SO GO TO MAXCOGA
001576: 12,3277           77745        UPLIM              DLOAD
001577: 12,3300           11033                                    COGUPLIM                              #  COGUPLIM=.999511597 = MAX VALUE OF COGA
001578: 12,3301           00017                           STORE    COGAMAX                               #    NOT CAUSING OVFL IN R1A CALCULATION
001579: 12,3302           77745        MAXCOGA            DLOAD
001580: 12,3303           02732                                    CSTH
001581: 12,3304           45261                           SR       DSU                                   #                               PL AT 0
001582: 12,3305           20607                                    6
001583: 12,3306           77626                           STADR
001584: 12,3307           61041                           STODL    CSTH-RHO
001585: 12,3310           02673                                    GEOMSGN
001586: 12,3311           71240                           BMN      DLOAD
001587: 12,3312           25513                                    LOLIM
001588: 12,3313           02736                                    CSTH-RHO
001589: 12,3314           56352                           SL1      DDV
001590: 12,3315           02730                                    SNTH
001591: 12,3316           77600                           BOV
001592: 12,3317           25513                                    LOLIM
001593: 12,3320           00011        MINCOGA            STORE    COGAMIN                               #  COGAMIN (+5)
001594: 12,3321           66214                           BON      SSP
001595: 12,3322           00715                                    GUESSW
001596: 12,3323           25477                                    NOGUESS
001597: 12,3324           00051                                    TWEEKIT
001598: 12,3325           00001                                    00001
001599: 12,3326           77745                           DLOAD
001600: 12,3327           02766                                    COGA
001601:
001602:
001603: 12,3330           77605        LAMBLOOP           DMP
001604: 12,3331           02730                                    SNTH
001605: 12,3332           45342                           SR1      DSU
001606: 12,3333           02736                                    CSTH-RHO
001607: 12,3334           65301                           NORM     PDDL                                  #  0D=SNTH COGA-(CSTH-RHO) (+7+C(X1)) PL=2
001608: 12,3335           00047                                    X1
001609: 12,3336           02734                                    1-CSTH
001610: 12,3337           56257                           SL*      DDV                                   #  1-CSTH  (+2)                 PL AT 0
001611: 12,3340           20170                                    0          -9D,1
001612: 12,3341           53040                           BMN      BZE
001613: 12,3342           25427                                    NEGP
001614: 12,3343           25427                                    NEGP
001615: 12,3344           16740                           STODL    P                                     #  P=(1-CSTH)/(SNTH COGA-(CSTH-RHO)) (+4)
001616: 12,3345           02766                                    COGA
001617: 12,3346           43316                           DSQ      DAD
001618: 12,3347           11017                                    D1/1024
001619: 12,3350           41301                           NORM     DMP
001620: 12,3351           00047                                    X1
001621: 12,3352           02740                                    P


001623: 12,3353           44257                           SR*      BDSU
001624: 12,3354           20571                                    0          -8D,1
001625: 12,3355           11015                                    D1/32
001626: 12,3356           16742                           STODL    R1A                                   #  R1A=2-P(1+COGA COGA) (+6)
001627:
001628: 12,3357           02740                                    P
001629: 12,3360           45000                           BOV      CALL
001630: 12,3361           25432                                    HIENERGY
001631: 12,3362           24767                                    GETX
001632: 12,3363           77745                           DLOAD
001633: 12,3364           00037                                    T
001634: 12,3365           16762                           STODL    TPREV
001635: 12,3366           00031                                    XI
001636: 12,3367           45014                           BON      CALL
001637: 12,3370           04310                                    INFINFLG
001638: 12,3371           25427                                    NEGP                                  #  HAVE EXCEEDED THEORETICAL BOUNDS
001639: 12,3372           24421                                    DELTIME
001640: 12,3373           44200                           BOV      BDSU
001641: 12,3374           25447                                    BIGTIME
001642: 12,3375           02671                                    TDESIRED
001643: 12,3376           02760                           STORE    TERRLAMB
001644: 12,3377           44246                           ABS      BDSU
001645: 12,3400           02764                                    EPSILONL
001646: 12,3401           47044                           BPL      RTB
001647: 12,3402           25516                                    INITV
001648: 12,3403           24644                                    CHECKCTR
001649: 12,3404           43030                           BHIZ     BON
001650: 12,3405           25460                                    SUFFCHEK
001651: 12,3406           00714                                    SLOPESW
001652: 12,3407           25415                                    GOITER
001653: 12,3410           45345                           DLOAD    DSU
001654: 12,3411           00037                                    T
001655: 12,3412           02762                                    TPREV
001656: 12,3413           77654                           BZE
001657: 12,3414           25460                                    SUFFCHEK
001658: 12,3415           77624        GOITER             CALL
001659: 12,3416           24536                                    ITERATOR
001660: 12,3417           53145                           DLOAD    BZE
001661: 12,3420           00155                                    MPAC
001662: 12,3421           25460                                    SUFFCHEK
001663: 12,3422           77615                           DAD
001664: 12,3423           02766                                    COGA
001665: 12,3424           02766                           STORE    COGA
001666: 12,3425           77650                           GOTO
001667: 12,3426           25330                                    LAMBLOOP
001668:
001669:
001670: 12,3427           51145        NEGP               DLOAD    BPL                                   #  IMPOSSIBLE TRAJECTORY DUE TO INACCURATE
001671: 12,3430           00015                                    DCOGA                                 #  BOUND CALCULATION. TRY NEW COGA.
001672: 12,3431           25452                                    LOENERGY
001673:


001675: 12,3432           71201        HIENERGY           SETPD    DLOAD                                 #  HIGH ENERGY TRAJECTORY RESULTED
001676: 12,3433           00001                                    0
001677: 12,3434           02766                                    COGA                                  #  IN OVFL OF P OR R1A, OR XI EXCEEDING 50.
001678: 12,3435           00011                           STORE    COGAMIN                               #  THIS IS THE NEW BOUND.
001679: 12,3436           70545        COMMONLM           DLOAD    SR1
001680: 12,3437           00015                                    DCOGA
001681: 12,3440           00015                           STORE    DCOGA                                 #  USE DCOGA/2 AS DECREMENT
001682: 12,3441           44254                           BZE      BDSU
001683: 12,3442           25460                                    SUFFCHEK
001684: 12,3443           02766                                    COGA
001685: 12,3444           02766                           STORE    COGA
001686: 12,3445           77650                           GOTO                                           #  RESTART THIS LOOP
001687: 12,3446           25330                                    LAMBLOOP
001688:
001689:
001690: 12,3447           77745        BIGTIME            DLOAD
001691: 12,3450           02762                                    TPREV
001692: 12,3451           00037                           STORE    T
001693:
001694:
001695: 12,3452           71201        LOENERGY           SETPD    DLOAD                                 #  LOW ENERGY TRAJECTORY RESULTED
001696: 12,3453           00001                                    0
001697: 12,3454           02766                                    COGA                                  #  IN OVERFLOW OF TIME.
001698: 12,3455           00017                           STORE    COGAMAX                               #  THIS IS THE NEW BOUND.
001699: 12,3456           77650                           GOTO
001700: 12,3457           25436                                    COMMONLM
001701:
001702:
001703: 12,3460           51545        SUFFCHEK           DLOAD    ABS
001704: 12,3461           02760                                    TERRLAMB
001705: 12,3462           41325                           PDDL     DMP                                   #                               PL AT 2D
001706: 12,3463           02671                                    TDESIRED
001707: 12,3464           11002                                    BEE17
001708: 12,3465           45215                           DAD      DSU                                   #                               PL AT 0D
001709: 12,3466           11031                                    ONEBIT
001710: 12,3467           43044                           BPL      SETGO
001711: 12,3470           25516                                    INITV
001712: 12,3471           02434                                    SOLNSW
001713: 12,3472           25516                                    INITV
001714: 12,3473           43001        360LAMB            SETPD    SETGO                                 #  LAMBERT CANNOT HANDLE CSTH=1
001715: 12,3474           00001                                    0
001716: 12,3475           02434                                    SOLNSW
001717: 12,3476           02710                                    RTNLAMB
001718:
001719:
001720: 12,3477           71331        NOGUESS            SSP      DLOAD
001721: 12,3500           00051                                    TWEEKIT
001722: 12,3501           10000                                    20000
001723: 12,3502           00011                                    COGAMIN                               #                               PL AT 2
001724: 12,3503           65342                           SR1      PDDL


001726: 12,3504           00017                                    COGAMAX
001727: 12,3505           43342                           SR1      DAD
001728: 12,3506           77626                           STADR                                          #                               PL AT 0
001729: 12,3507           75011                           STORE    COGA
001730: 12,3510           00015                           STORE    DCOGA
001731: 12,3511           77650                           GOTO
001732: 12,3512           25330                                    LAMBLOOP
001733:
001734:
001735: 12,3513           52145        LOLIM              DLOAD    GOTO
001736: 12,3514           11035                                    COGLOLIM                              #  COGLOLIM=-.999511597
001737: 12,3515           25320                                    MINCOGA
001738:
001739:
001740: 12,3516           60345        INITV              DLOAD    NORM
001741: 12,3517           00041                                    R1
001742: 12,3520           00047                                    X1
001743: 12,3521           70525                           PDDL     SR1                                   #                               PL AT 2
001744: 12,3522           02740                                    P
001745: 12,3523           77671                           DDV                                            #                               PL AT 0
001746: 12,3524           75457                           SL*      SQRT
001747: 12,3525           20175                                    0          -4,1
001748: 12,3526           72405                           DMP      SL1
001749: 12,3527           00021                                    ROOTMU
001750: 12,3530           41206                           PUSH     DMP                                   #  0D=VTAN (+7)                 PL AT 2
001751: 12,3531           02766                                    COGA
001752: 12,3532           74261                           SL       VXSC
001753: 12,3533           20206                                    5
001754: 12,3534           02722                                    UR1
001755: 12,3535           77725                           PDDL                                           #  XCH WITH 0D                  PL AT 0,6
001756: 12,3536           76561                           VXSC     VSL1
001757: 12,3537           02674                                    UN
001758: 12,3540           53235                           VXV      VAD                                   #                               PL AT 0
001759: 12,3541           02722                                    UR1
001760: 12,3542           77772                           VSL1
001761: 12,3543           02744                           STORE    VVEC
001762: 12,3544           53135                           SLOAD    BZE
001763: 12,3545           02702                                    VTARGTAG
001764: 12,3546           25551                                    TARGETV
001765: 12,3547           77650                           GOTO
001766: 12,3550           02710                                    RTNLAMB
001767:
001768:
001769: 12,3551           45145        TARGETV            DLOAD    CALL
001770: 12,3552           02720                                    MAGVEC2
001771: 12,3553           24701                                    LAMENTER
001772: 12,3554           02703                           STORE    VTARGET
001773: 12,3555           77650                           GOTO
001774: 12,3556           02710                                    RTNLAMB
001775:


001777: 12,3557           40220        TIMERAD            STQ      SETPD                                 #                                  PL AT 0
001778: 12,3560           02710                                    RTNTR
001779: 12,3561           00001                                    0
001780: 12,3562           77600                           BOV
001781: 12,3563           25564                                    +1
001782: 12,3564           63375                           VLOAD    PDVL                                  #                                  PL AT 6
001783: 12,3565           02655                                    RVEC
001784: 12,3566           02744                                    VVEC
001785: 12,3567           77624                           CALL
001786: 12,3570           11036                                    PARAM
001787: 12,3571           71200                           BOV      DLOAD                                 #                                  PL AT 0
001788: 12,3572           24764                                    COGAOVFL
001789: 12,3573           11015                                    D1/32
001790: 12,3574           41225                           DSU      DMP
001791: 12,3575           02742                                    R1A
001792: 12,3576           02740                                    P
001793: 12,3577           41366                           SQRT     DMP
001794: 12,3600           02766                                    COGA
001795: 12,3601           74212                           SL4      VXSC
001796: 12,3602           02712                                    U2
001797: 12,3603           45325                           PDDL     DSU                                   #                                  PL AT 6
001798: 12,3604           11007                                    D1/64
001799: 12,3605           02742                                    R1A
001800: 12,3606           52361                           VXSC     VSU                                   #                                  PL AT 0
001801: 12,3607           02722                                    UR1
001802: 12,3610           53512                           VSL4     UNIT
001803: 12,3611           77600                           BOV
001804: 12,3612           25670                                    CIRCULAR
001805: 12,3613           60325                           PDDL     NORM                                  #  0D=UNIT(ECC) (+3)               PL AT 6
001806: 12,3614           02756                                    RDESIRED                              #  36D=ECC (+3)
001807: 12,3615           00047                                    X1
001808: 12,3616           41325                           PDDL     DMP                                   #                               PL AT 8
001809: 12,3617           00041                                    R1
001810: 12,3620           02740                                    P
001811: 12,3621           56257                           SL*      DDV                                   #                               PL AT 6
001812: 12,3622           20201                                    0,1
001813: 12,3623           56225                           DSU      DDV
001814: 12,3624           11013                                    D1/16
001815: 12,3625           00045                                    36D                                   #  36D=ECC (+3)
001816: 12,3626           00031                           STORE    COSF
001817: 12,3627           63400                           BOV      DSQ
001818: 12,3630           25674                                    BADR2
001819: 12,3631           50021                           BDSU     BMN
001820: 12,3632           11011                                    D1/4
001821: 12,3633           25674                                    BADR2
001822: 12,3634           75366                           SQRT     SIGN
001823: 12,3635           02755                                    SGNRDOT
001824: 12,3636           77614                           CLEAR
001825: 12,3637           04272                                    APSESW


001827: 12,3640           76561        TERMNVEC           VXSC     VSL1
001828: 12,3641           02674                                    UN
001829: 12,3642           63235                           VXV      PDVL                                  #  VXCH WITH 0D                 PL AT 0,6
001830: 12,3643           00001                                    0D
001831: 12,3644           53361                           VXSC     VAD                                   #                               PL AT 0
001832: 12,3645           00031                                    COSF
001833: 12,3646           41572                           VSL1     PUSH                                  #  0D=U2                        PL AT 6
001834:
001835: 12,3647           56241                           DOT      DDV                                   #  LIMITS RESULT TO POSMAX OR NEGMAX
001836: 12,3650           02722                                    UR1
001837: 12,3651           25766                                    DP1/4
001838: 12,3652           40142                           SR1      BOV                                   #  SCALE BACK DOWN TO NORMAL
001839: 12,3653           25654                                    +1                                    #  CLEAR OVFIND IF SET
001840: 12,3654           26732                           STOVL    CSTH                                  #  CSTH (+1)
001841: 12,3655           02722                                    UR1
001842: 12,3656           76435                           VXV      VSL1
001843: 12,3657           72441                           DOT      SL1
001844: 12,3660           02674                                    UN
001845: 12,3661           16730                           STODL    SNTH                                  #  SNTH (+1)
001846: 12,3662           02740                                    P
001847: 12,3663           77624                           CALL
001848: 12,3664           24767                                    GETX
001849: 12,3665           77614                           CLRGO
001850: 12,3666           02634                                    SOLNSW
001851: 12,3667           24747                                    COMMNOUT
001852:
001853:
001854: 12,3670           43001        CIRCULAR           SETPD    SETGO
001855: 12,3671           00001                                    0
001856: 12,3672           02434                                    SOLNSW
001857: 12,3673           25752                                    ABTCONIC
001858:
001859:
001860: 12,3674           75345        BADR2              DLOAD    SIGN
001861: 12,3675           24005                                    LODPHALF
001862: 12,3676           00031                                    COSF
001863: 12,3677           14031                           STODL    COSF
001864: 12,3700           24007                                    KEPZERO
001865: 12,3701           77614                           SETGO
001866: 12,3702           04032                                    APSESW
001867: 12,3703           25640                                    TERMNVEC
001868:


001870: 12,3704           40220        APSIDES            STQ      SETPD                                 #                                  PL AT  0
001871: 12,3705           02710                                    RTNAPSE
001872: 12,3706           00001                                    0D
001873: 12,3707           77600                           BOV
001874: 12,3710           25711                                    +1
001875: 12,3711           63375                           VLOAD    PDVL                                  #                                  PL AT  6
001876: 12,3712           02655                                    RVEC
001877: 12,3713           02744                                    VVEC
001878: 12,3714           77624                           CALL
001879: 12,3715           11036                                    PARAM
001880: 12,3716           77600                           BOV                                            #                                  PL AT  0
001881: 12,3717           25720                                    GETECC
001882: 12,3720           42405        GETECC             DMP      SL4
001883: 12,3721           02742                                    R1A
001884: 12,3722           75421                           BDSU     SQRT
001885: 12,3723           11007                                    D1/64
001886: 12,3724           02752                           STORE    ECC
001887: 12,3725           65215                           DAD      PDDL                                  #                                  PL AT  2
001888: 12,3726           11003                                    D1/8
001889: 12,3727           00041                                    R1
001890: 12,3730           72405                           DMP      SL1
001891: 12,3731           02740                                    P
001892: 12,3732           77671                           DDV                                            #                                  PL AT  0
001893: 12,3733           60325                           PDDL     NORM                                  #  0D=RP (+29 OR +27)              PL AT  2
001894: 12,3734           02742                                    R1A
001895: 12,3735           00047                                    X1
001896: 12,3736           53725                           PDDL     SL*                                   #                                  PL AT  4
001897: 12,3737           00041                                    R1
001898: 12,3740           20174                                    0          -5,1
001899: 12,3741           45271                           DDV      DSU                                   #                                  PL AT 2,0
001900: 12,3742           50000                           BOV      BMN
001901: 12,3743           25747                                    INFINAPO
001902: 12,3744           25747                                    INFINAPO
001903: 12,3745           77650                           GOTO
001904: 12,3746           02710                                    RTNAPSE
001905: 12,3747           52145        INFINAPO           DLOAD    GOTO                                  #  RETURNS WITH APOAPSIS IN MPAC,PERIAPSIS
001906: 12,3750           24020                                    LDPOSMAX
001907: 12,3751           02710                                    RTNAPSE                               #  THAT PL IS AT 0.
001908:


001910: 12,3752           77776        ABTCONIC           EXIT
001911: 12,3753           05653                           TC       POODOO
001912: 12,3754           20607                           OCT      20607
001913:
001914: 12,3755  12,2017               LDPOSMAX           EQUALS   LODPMAX                               #  DPPOSMAX IN LOW MEMORY.
001915:
001916:                                                                                                  #  ERASABLE ASSIGNMENTS
001917:
001918:
001919:                                                                                                  #  KEPLER SUBROUTINE
001920:
001921:                                                                                                  #     INPUT -
001922:                                                                                                  #  RRECT    ERASE  +5
001923:                                                                                                  #  VRECT    ERASE  +5
001924:                                                                                                  #  TAU.     ERASE  +1
001925:                                                                                                  #  XKEP     ERASE  +1
001926:                                                                                                  #  TC       ERASE  +1
001927:                                                                                                  #  XPREV    ERASE  +1
001928: 12,3755                        1/MU               EQUALS   14D
001929: 12,3755                        ROOTMU             EQUALS   16D
001930: 12,3755                        1/ROOTMU           EQUALS   18D
001931:                                                                                                  #     OUTPUT -
001932:                                                                                                  #  RCV      ERASE  +5
001933:                                                                                                  #  VCV      ERASE  +5
001934:                                                                                                  #  RC       ERASE  +1
001935:                                                                                                  #  XPREV    ERASE  +1
001936:
001937:                                                                                                  #  DEBRIS -
001938: 12,3755                        ALPHA              EQUALS   8D
001939: 12,3755                        XMAX               EQUALS   10D
001940: 12,3755                        XMIN               EQUALS   12D
001941: 12,3755                        X                  EQUALS   20D
001942: 12,3755                        XI                 EQUALS   24D
001943: 12,3755                        S(XI)              EQUALS   26D
001944: 12,3755                        XSQC(XI)           EQUALS   28D
001945: 12,3755                        T                  EQUALS   30D
001946: 12,3755                        R1                 EQUALS   32D
001947: 12,3755                        KEPC1              EQUALS   34D
001948: 12,3755                        KEPC2              EQUALS   36D
001949:                                                                                                  #  DELX     ERASE  +1
001950:                                                                                                  #  DELT     ERASE  +1
001951:                                                                                                  #  URRECT   ERASE  +5
001952:                                                                                                  #  RCNORM   ERASE  +1
001953:                                                                                                  #  XPREV    EQUALS XKEP
001954:
001955:
001956:                                                                                                  #  LAMBERT SUBROUTINE
001957:
001958:                                                                                                  #     INPUT-
001959:                                                                                                  #  R1VEC    ERASE  +5


001961:                                                                                                  #  R2VEC    ERASE  +5
001962:                                                                                                  #  TDESIRED ERASE  +1
001963:                                                                                                  #  GEOMSGN  ERASE  +0
001964:                                                                                                  #  GUESSW                          0 IF COGA GUESS AVAILABLE, 1 IF NOT
001965:                                                                                                  #  COGA     ERASE  +1              INPUT ONLY IF GUESSW IS ZERO.
001966:                                                                                                  #  NORMSW                          0 IF UN TO BE COMPUTED, 1 IF UN INPUT
001967:                                                                                                  #  UN       ERASE  +5              ONLY USED IF NORMSW IS 1
001968:                                                                                                  #  VTARGTAG ERASE  +0
001969:                                                                                                  #  TWEEKIT  EQUALS 40D             ONLY USED IF GUESSW IS 0
001970:
001971:                                                                                                  #     OUTPUT -
001972:                                                                                                  #  VTARGET  ERASE  +5              AVAILABLE ONLY IF VTARGTAG IS ZERO.
001973:                                                                                                  #  V1VEC    EQUALS MPAC
001974:
001975:                                                                                                  #     DEBRIS -
001976:                                                                                                  #  RTNLAMB  ERASE  +0
001977:                                                                                                  #  U2       ERASE  +5
001978:                                                                                                  #  MAGVEC2  ERASE  +1
001979:                                                                                                  #  UR1      ERASE  +5
001980:                                                                                                  #  R1       EQUALS 31D
001981:                                                                                                  #  UN       ERASE  +5
001982:                                                                                                  #  SNTH     ERASE  +1
001983:                                                                                                  #  CSTH     ERASE  +1
001984:                                                                                                  #  1-CSTH   ERASE  +1
001985:                                                                                                  #  CSTH-RHO ERASE  +1
001986: 12,3755                        COGAMAX            EQUALS   14D                                   #  CLOBBERS 1/MU
001987: 12,3755                        COGAMIN            EQUALS   8D
001988: 12,3755                        DCOGA              EQUALS   12D
001989:                                                                                                  #  TWEEKIT  EQUALS 40D
001990:                                                                                                  #  P        ERASE  +1
001991:                                                                                                  #  COGA     ERASE  +1
001992:                                                                                                  #  R1A      ERASE  +1
001993:                                                                                                  #  X        EQUALS 20D
001994:                                                                                                  #  XSQ      EQUALS 22D
001995:                                                                                                  #  XI       EQUALS 24D
001996:                                                                                                  #  S(XI)    EQUALS 26D
001997:                                                                                                  #  XSQC(XI) EQUALS 28D
001998:                                                                                                  #  T        EQUALS 30D
001999:                                                                                                  #  KEPC1    EQUALS 34D
002000:                                                                                                  #  KEPC2    EQUALS 36D
002001:                                                                                                  #  SLOPESW
002002:                                                                                                  #  SOLNSW
002003:                                                                                                  #  OTHERS -
002004:
002005:                                                                                                  #  RVEC     EQUALS R1VEC
002006:                                                                                                  #  VVEC     ERASE  +5
002007:                                                                                                  #  COGAFLAG
002008:                                                                                                  #  RVSW
002009:                                                                                                  #  INFINFLG
002010:                                                                                                  #  APSESW


002012:                                                                                                  #  360SW
002013:                                                                                                  #  RTNTT    EQUALS RTNLAMB
002014:                                                                                                  #  ECC      ERASE  +1
002015:                                                                                                  #  RTNTR    EQUALS RTNLAMB
002016:                                                                                                  #  RTNAPSE  EQUALS RTNLAMB
002017:                                                                                                  #  R2       EQUALS MAGVEC2
002018: 12,3755                        COSF               EQUALS   24D
002019:                                                                                                  #  RTNPRM   ERASE  +0
002020:                                                                                                  #  SGNRDOT  ERASE  +0
002021:                                                                                                  #  RDESIRED ERASE  +1
002022:
002023:
002024:                                                                                                  #  ITERATOR SUBROUTINE
002025:
002026:                                                                                                  #  ORDERSW
002027: 12,3755                        MAX                EQUALS   14D                                   #  CLOBBERS 1/MU
002028: 12,3755                        MIN                EQUALS   8D
002029:                                                                                                  #  INDEP    ERASE  +1
002030: 12,3755                        DELINDEP           EQUALS   12D
002031: 12,3755                        ITERCTR            EQUALS   22D
002032: 12,3755                        DEP                EQUALS   30D
002033:                                                                                                  #  DELDEP   ERASE  +1
002034:                                                                                                  #  DEPREV   ERASE  +1
002035: 12,3755                        TWEEKIT            EQUALS   40D
002036:
002037:
002038:                                                                                                  #  MORE KEPLER
002039:
002040:                                                                                                  #  EPSILONT ERASE  +1
002041:
002042:
002043:                                                                                                  #  MORE LAMBERT
002044:
002045:                                                                                                  #  TERRLAMB EQUALS DELDEP
002046:                                                                                                  #  TPREV    EQUALS DEPREV
002047:
002048:
002049:                                                                                                  #  EPSILONL EQUALS EPSILONT +2     DOUBLE PRECISION WORD

End of include-file CONIC_SUBROUTINES.agc.  Parent file is MAIN.agc


