
Source Code


000002:                                                                                                  ## Copyright:   Public domain.
000003:                                                                                                  ## Filename:    DOWNLINK_LISTS.agc
000004:                                                                                                  ## Purpose:     A log section of Zerlina 56, the final revision of
000005:                                                                                                  ##              Don Eyles's offline development program for the variable
000006:                                                                                                  ##              guidance period servicer. It also includes a new P66 with LPD
000007:                                                                                                  ##              (Landing Point Designator) capability, based on an idea of John
000008:                                                                                                  ##              Young's. Neither of these advanced features were actually flown,
000009:                                                                                                  ##              but Zerlina was also the birthplace of other big improvements to
000010:                                                                                                  ##              Luminary including the terrain model and new (Luminary 1E)
000011:                                                                                                  ##              analog display programs. Zerlina was branched off of Luminary 145,
000012:                                                                                                  ##              and revision 56 includes all changes up to and including Luminary
000013:                                                                                                  ##              183. It is therefore quite close to the Apollo 14 program,
000014:                                                                                                  ##              Luminary 178, where not modified with new features.
000015:                                                                                                  ## Reference:   pp. 199-212
000016:                                                                                                  ## Assembler:   yaYUL
000017:                                                                                                  ## Contact:     Ron Burkey <info@sandroid.org>.
000018:                                                                                                  ## Website:     www.ibiblio.org/apollo/index.html
000019:                                                                                                  ## Mod history: 2017-07-28 MAS  Created from Luminary 210.
000020:                                                                                                  ##              2017-08-18 RSB  Transcribed.
000021:                                                                                                  ##              2017-08-19 MAS  Fixed an incorrect operator.
000022:


000024: 22,2004                                           BANK     22
000025: 05,2000                                           SETLOC   DOWNTELM
000026: 05,2000                                           BANK
000027:
000028: 05,2065     0340                                  EBANK=   DNTMBUFF
000029:
000030:                                                                                                  #  SPECIAL DOWNLINK OP CODES
000031:                                                                                                  #                                                    OP CODE ADDRESS(EXAMPLE) SENDS..     BIT 15  BITS 14-12 BITS 11
000032:                                                                                                  #                                                                                                                 -0
000033:                                                                                                  #                                                    ------ ----------      ----------    ------  ---------- -------
000034:                                                                                                  #                                                                                                                 --
000035:                                                                                                  #                                                    1DNADR TIME2           (2 AGC WDS)     0         0      ECADR
000036:                                                                                                  #                                                    2DNADR TEPHEM          (4 AGC WDS)     0         1      ECADR
000037:                                                                                                  #                                                    3DNADR VGBODY          (6 AGC WDS)     0         2      ECADR
000038:                                                                                                  #                                                    4DNADR STATE           (8 AGC WDS)     0         3      ECADR
000039:                                                                                                  #                                                    5DNADR UPBUFF          (10AGC WDS)     0         4      ECADR
000040:                                                                                                  #                                                    6DNADR DSPTAB          (12AGC WDS)     0         5      ECADR
000041:                                                                                                  #                                                    DNCHAN 30              CHANNELS        0         7      CHANNEL
000042:                                                                                                  #                                                                                                            ADDRESS
000043:                                                                                                  #                                                    DNPTR  NEXTLIST        POINTS TO NEXT  0         6      ADRES
000044:                                                                                                  #                                                                            LIST.
000045:
000046:                                                                                                  #  DOWNLIST FORMAT DEFINITIONS AND RULES-
000047:                                                                                                  #  1. END OF A LIST = -XDNADR (X = 1 TO 6), -DNPTR, OR -DNCHAN.
000048:                                                                                                  #  2. SNAPSHOT SUBLIST = LIST WHICH STARTS WITH A -1DNADR.
000049:                                                                                                  #  3. SNAPSHOT SUBLIST CAN ONLY CONTAIN 1DNADRS.
000050:                                                                                                  #  4. TIME2 1DNADR MUST BE LOCATED IN THE CONTROL LIST OF A DOWNLIST.
000051:                                                                                                  #  5. ERASABLE DOWN TELEMETRY WORDS SHOULD BE GROUPED IN SEQUENTIAL
000052:                                                                                                  #     LOCATIONS AS MUCH AS POSSIBLE TO SAVE STORAGE USED BY DOWNLINK LISTS.
000053:
000054: 05,2065                                           COUNT*   $$/DLIST
000055: 05,2065                        ERASZERO           EQUALS   7
000056: 05,2065  0000007               UNKNOWN            EQUALS   ERASZERO
000057: 05,2065  0000007               SPARE              EQUALS   ERASZERO                              #  USE SPARE TO INDICATE AVAILABLE SPACE
000058: 05,2065           77340        LOWIDCOD           OCT      77340                                 #  LOW ID CODE
000059:
000060:
000061: 05,2066  05,2173               NOMDNLST           EQUALS   COSTALIN                              #  FRESH START AND POST P27 DOWNLIST
000062: 05,2066  05,2424               AGSLIST            EQUALS   AGSI/UPD
000063: 05,2066  05,2424               UPDNLIST           EQUALS   AGSI/UPD                              #  UPDATE PROGRAM (P27) DOWNLIST
000064:


000066:                                                                                                  #  LM ORBITAL MANEUVERS LIST
000067:
000068:                                                                                                  #      -----------------  CONTROL LIST  --------------------------
000069:
000070: 05,2066                        ORBMANUV           EQUALS                                         #  SEND ID BY SPECIAL CODING
000071: 05,2066           32127                           DNPTR    LMORBM01                              #  COLLECT SNAPSHOT
000072: 05,2067           24340                           6DNADR   DNTMBUFF                              #  SEND SNAPSHOT
000073: 05,2070           03451                           1DNADR   DELLT4                                #  DELLT4,+1
000074: 05,2071           13443                           3DNADR   RTARG                                 #  RTARG,+1...+5
000075: 05,2072           02247                           1DNADR   ELEV                                  #  ELEV,+1
000076: 05,2073           01341                           1DNADR   TEVENT                                #  TEVENT,+1
000077: 05,2074           25731                           6DNADR   REFSMMAT                              #  REFSMMAT+0...+11D
000078: 05,2075           03633                           1DNADR   TCSI                                  #  TCSI,+1
000079: 05,2076           12257                           3DNADR   DELVEET1                              #  DELVEET1+0...+5
000080: 05,2077           13700                           3DNADR   VGTIG                                 #  VGTIG+0...+5
000081: 05,2100           01335                           1DNADR   DNLRVELZ                              #  DNLRVELZ,DNLRALT
000082: 05,2101           03630                           1DNADR   TPASS4                                #  TPASS4,+1
000083: 05,2102           32136                           DNPTR    LMORBM02                              #  COMMON DATA
000084: 05,2103           00024                           1DNADR   TIME2                                 #  TIME2/1
000085: 05,2104           32145                           DNPTR    LMORBM03                              #  COLLECT SNAPSHOT
000086: 05,2105           24340                           6DNADR   DNTMBUFF                              #  SEND SNAPSHOT
000087: 05,2106           32154                           DNPTR    LMORBM04                              #  COMMON DATA
000088: 05,2107           07115                           2DNADR   POSTORKU                              #  POSTORKU,NEGTORKU,POSTORKV,NEGTORKV
000089: 05,2110           01355                           1DNADR   SERVDURN                              #  SERVDURN,DUMLOOPS
000090: 05,2111           01774                           1DNADR   TCDH                                  #  TCDH,+1
000091: 05,2112           12265                           3DNADR   DELVEET2                              #  DELVEET2+0...+5
000092: 05,2113           03635                           1DNADR   TTPI                                  #  TTPI,+1
000093: 05,2114           12356                           3DNADR   DELVEET3                              #  DELVEET3+0...+5
000094: 05,2115           01330                           1DNADR   DNRRANGE                              #  DNRRANGE,DNRRDOT
000095: 05,2116           05333                           2DNADR   DNLRVELX                              #  DNLRVELX,DNLRVELY,DNLRVELZ,DNLRALT
000096: 05,2117           03577                           1DNADR   DIFFALT                               #  DIFFALT,+1
000097: 05,2120           01326                           1DNADR   LEMMASS                               #  LEMMASS,CSMMASS
000098: 05,2121           01277                           1DNADR   IMODES30                              #  IMODES30,IMODES33
000099: 05,2122           03441                           1DNADR   TIG                                   #  TIG,+1
000100: 05,2123           32160                           DNPTR    LMORBM05                              #  COMMON DATA
000101: 05,2124           32171                           DNPTR    LMORBM06                              #  COMMON DATA
000102: 05,2125           00007                           1DNADR   SPARE                                 #  FORMERLY PIF
000103: 05,2126           74263                           -1DNADR  TGO                                   #  TGO,+1
000104:
000105:                                                                                                  #      -----------------  SUB-LISTS  ----------------------------
000106:
000107: 05,2127           76060        LMORBM01           -1DNADR  R-OTHER    +2                         #  R-OTHER+2,+3             SNAPSHOT
000108: 05,2130           01721                           1DNADR   R-OTHER    +4                         #  R-OTHER+4,+5
000109: 05,2131           01723                           1DNADR   V-OTHER                               #  V-OTHER,+1
000110: 05,2132           01725                           1DNADR   V-OTHER    +2                         #  V-OTHER+2,+3
000111: 05,2133           01727                           1DNADR   V-OTHER    +4                         #  V-OTHER+4,+5
000112: 05,2134           01570                           1DNADR   T-OTHER                               #  T-OTHER,+1
000113: 05,2135           76062                           -1DNADR  R-OTHER                               #  R-OTHER+0,+1
000114:
000115: 05,2136           04320        LMORBM02           2DNADR   REDOCTR                               #  REDOCTR,THETAD,+1,+2     COMMON DATA
000116:


000118: 05,2137           01432                           1DNADR   RSBBQ                                 #  RSBBQ,+1
000119: 05,2140           07021                           2DNADR   OMEGAP                                #  OMEGAP,OMEGAQ,OMEGAR,GARBAGE
000120: 05,2141           07234                           2DNADR   CDUXD                                 #  CDUXD,CDUYD,CDUZD,GARBAGE
000121: 05,2142           04032                           2DNADR   CDUX                                  #  CDUX,CDUY,CDUZ,CDUT
000122: 05,2143           24074                           6DNADR   STATE                                 #  STATE+0...+11D (FLAGWORDS)
000123: 05,2144           52755                           -6DNADR  DSPTAB                                #  DSPTAB TABLES
000124:
000125: 05,2145           76556        LMORBM03           -1DNADR  RN         +2                         #  RN +2,+3                 SNAPSHOT
000126: 05,2146           01223                           1DNADR   RN         +4                         #  RN +4,+5
000127: 05,2147           01225                           1DNADR   VN                                    #  VN,+1
000128: 05,2150           01227                           1DNADR   VN         +2                         #  VN +2,+3
000129: 05,2151           01231                           1DNADR   VN         +4                         #  VN +4,+5
000130: 05,2152           01233                           1DNADR   PIPTIME                               #  PIPTIME,+1
000131: 05,2153           76560                           -1DNADR  RN                                    #  RN,+1
000132:
000133: 05,2154           07242        LMORBM04           2DNADR   OMEGAPD                               #  OMEGAPD,OMEGAQD,OMEGARD,GARBAGE
000134: 05,2155           34076                           DNCHAN   76                                    #  GARBAGE,CHANNEL77
000135: 05,2156           04374                           2DNADR   CADRFLSH   +2                         #  CADRFLSH +2,FAILREG,+1,+2
000136: 05,2157           77667                           -1DNADR  RADMODES                              #  RADMODES,DAPBOOLS        COMMON DATA
000137:
000138: 05,2160           07021        LMORBM05           2DNADR   OMEGAP                                #  OMEGAP,OMEGAQ,OMEGAR,GARBAGE
000139: 05,2161           07234                           2DNADR   CDUXD                                 #  CDUXD,CDUXD,CDUZD,GARBAGE
000140: 05,2162           04032                           2DNADR   CDUX                                  #  CDUX,CDUY,CDUZ,CDUT
000141: 05,2163           03024                           1DNADR   ALPHAQ                                #  ALPHAQ,ALPHAR            COMMON DATA
000142: 05,2164           03113                           1DNADR   POSTORKP                              #  POSTORKP,NEGTORKP
000143: 05,2165           34011        LMORBM09           DNCHAN   11                                    #  CHANNEL11 ,12
000144: 05,2166           34013                           DNCHAN   13                                    #  CHANNELS13,14
000145: 05,2167           34030                           DNCHAN   30                                    #  CHANNELS30,31
000146: 05,2170           43745                           -DNCHAN  32                                    #  CHANNELS32,33
000147:
000148: 05,2171           03556        LMORBM06           1DNADR   PIPTIME1                              #  PIPTIME,+1               COMMON DATA
000149: 05,2172           67453                           -3DNADR  DELV                                  #  DELV+0...+5
000150:
000151:                                                                                                  #      ---------------------------------------------------------
000152:                                                                                                  #  *** THE FOLLOWING IS A LIST OF LOCATIONS IN DOWNLINK LISTS
000153:                                                                                                  #  *** BUT NOT REFERENCED IN THE DIRECTORY BECAUSE THEY ARE NOT
000154:                                                                                                  #  *** THE FIRST LOCATION REFERENCED IN AN INSTRUCTION
000155:                                                                                                  #  *** THIS LIST SHOULD BE UPDATED WHEN ANY CHANGES ARE MADE TO LISTS.
000156:
000157:                                                                                                  #                                LOCATION                LIST NAME
000158: 05,2173     1336               DL101              =        DNLRALT                               #  ORBMANUV
000159: 05,2173  0000025               DL102              =        TIME1
000160: 05,2173  E6,1516               DL1O3              =        NEGTORKU
000161: 05,2173  E6,1517               DL104              =        POSTORKV
000162: 05,2173  E6,1520               DL105              =        NEGTORKV
000163: 05,2173     1356               DL106              =        DUMLOOPS
000164: 05,2173     1331               DL107              =        DNRRDOT
000165: 05,2173     1334               DL108              =        DNLRVELY
000166:


000168: 05,2173     1335               DL109              =        DNLRVELZ
000169: 05,2173     1336               DL110              =        DNLRALT
000170: 05,2173     1327               DL111              =        CSMMASS
000171: 05,2173     1300               DL112              =        IMODES33
000172: 05,2173     0321               DL113              =        THETAD                                #  LMORBM02
000173: 05,2173  E6,1422               DL114              =        OMEGAQ
000174: 05,2173  E6,1423               DL115              =        OMEGAR
000175: 05,2173  E6,1635               DL116              =        CDUYD
000176: 05,2173  E6,1636               DL117              =        CDUZD
000177: 05,2173  0000033               DL118              =        CDUY
000178: 05,2173  0000034               DL119              =        CDUZ
000179: 05,2173  0000035               DL120              =        CDUT
000180: 05,2173  E6,1643               DL121              =        OMEGAQD                               #  LMORBM04
000181: 05,2173  E6,1644               DL122              =        OMEGARD
000182: 05,2173     0375               DL123              =        FAILREG
000183: 05,2173     0111               DL124              =        DAPBOOLS
000184: 05,2173  E6,1422               DL125              =        OMEGAQ                                #  LMORBM05
000185: 05,2173  E6,1423               DL126              =        OMEGAR
000186: 05,2173  E6,1635               DL127              =        CDUYD
000187: 05,2173  E6,1636               DL128              =        CDUZD
000188: 05,2173  0000033               DL129              =        CDUY
000189: 05,2173  0000034               DL130              =        CDUZ
000190: 05,2173  0000035               DL131              =        CDUT
000191: 05,2173  E6,1425               DL132              =        ALPHAR
000192: 05,2173  E6,1514               DL133              =        NEGTORKP
000193:


000195:                                                                                                  #  LM COAST AND ALIGNMENT DOWNLIST
000196:
000197:                                                                                                  #      -----------------  CONTROL LIST  --------------------------
000198:
000199: 05,2173                        COSTALIN           EQUALS                                         #  SEND ID BY SPECIAL CODING
000200: 05,2173           32127                           DNPTR    LMCSTA01                              #  COLLECT SNAPSHOT
000201: 05,2174           24340                           6DNADR   DNTMBUFF                              #  SEND SNAPSHOT
000202: 05,2175           03371                           1DNADR   AGSK                                  #  AGSK,+1
000203: 05,2176           02774                           1DNADR   TALIGN                                #  TALIGN,+1
000204: 05,2177           07115                           2DNADR   POSTORKU                              #  POSTORKU,NEGTORKU,POSTORKV,NEGTORKV
000205: 05,2200           01330                           1DNADR   DNRRANGE                              #  DNRRANGE,DNRRDOT
000206: 05,2201           01341                           1DNADR   TEVENT                                #  TEVENT,+1
000207: 05,2202           25731                           6DNADR   REFSMMAT                              #  REFSMMAT+0...+11D
000208: 05,2203           00734                           1DNADR   AOTCODE                               #  AOTCODE,GARBAGE
000209: 05,2204           12020                           3DNADR   RLS                                   #  RLS+0...+5
000210: 05,2205           05333                           2DNADR   DNLRVELX                              #  DNLRVELX,DNLRVELY,DNLRVELZ,DNLRALT
000211: 05,2206           13700                           3DNADR   VGTIG                                 #  VGTIGX,Y,Z
000212: 05,2207           32136                           DNPTR    LMCSTA02                              #  COMMON DATA
000213: 05,2210           00024                           1DNADR   TIME2                                 #  TIME2/1
000214: 05,2211           32145                           DNPTR    LMCSTA03                              #  COLLECT SNAPSHOT
000215: 05,2212           24340                           6DNADR   DNTMBUFF                              #  SEND SNAPSHOT
000216: 05,2213           32154                           DNPTR    LMCSTA04                              #  COMMON DATA
000217: 05,2214           32230                           DNPTR    LMCSTA07                              #  COMMON DATA
000218: 05,2215           01355                           1DNADR   SERVDURN                              #  SERVDURN,DUMLOOPS
000219: 05,2216           01516                           1DNADR   TET                                   #  TET,+1
000220: 05,2217           04036                           2DNADR   CDUS                                  #  CDUS,PIPAX,PIPAY,PIPAZ
000221: 05,2220           00112                           1DNADR   LASTYCMD                              #  LASTYCMD,LASTXCMD
000222: 05,2221           01326                           1DNADR   LEMMASS                               #  LEMMASS,CSMMASS
000223: 05,2222           01277                           1DNADR   IMODES30                              #  IMODES30,IMODES33
000224: 05,2223           03441                           1DNADR   TIG                                   #  TIG,+1
000225: 05,2224           32160                           DNPTR    LMCSTA05                              #  COMMON DATA
000226: 05,2225           52755                           -6DNADR  DSPTAB                                #  DSPTAB+0...+11D TABLE
000227:
000228:                                                                                                  #      -----------------  SUB-LISTS  ----------------------------
000229:
000230: 05,2226  05,2127               LMCSTA01           EQUALS   LMORBM01                              #  COMMON DOWNLIST DATA
000231:
000232: 05,2226  05,2136               LMCSTA02           EQUALS   LMORBM02                              #  COMMON DOWNLIST DATA
000233:
000234: 05,2226  05,2145               LMCSTA03           EQUALS   LMORBM03                              #  COMMON DOWNLIST DATA
000235:
000236: 05,2226  05,2154               LMCSTA04           EQUALS   LMORBM04                              #  COMMON DOWNLIST DATA
000237:
000238: 05,2226  05,2160               LMCSTA05           EQUALS   LMORBM05                              #  COMMON DOWNLIST DATA
000239:
000240: 05,2226           05700        LMCSTA06           2DNADR   X789                                  #  X789+0...+3              COMMON DATA
000241: 05,2227           77665                           -1DNADR  LASTYCMD                              #  LASTYCMD,LASTXCMD
000242:
000243: 05,2230           12737        LMCSTA07           3DNADR   OGC                                   #  OGC,+1,IGC,+1,MGC,+1     COMMON DATA
000244: 05,2231           02755                           1DNADR   BESTI                                 #  BESTI,BESTJ
000245:                                                                                                  #  Page 204
000246: 05,2232           12760                           3DNADR   STARSAV1                              #  STARSAV1+0...+5
000247: 05,2233           65011                           -3DNADR  STARSAV2                              #  STARSAV2+0...+5
000248:
000249:                                                                                                  #      ---------------------------------------------------------
000250:                                                                                                  #  *** UNREFERENCED LOCATIONS USED IN LIST 2
000251:                                                                                                  #  *** UPDATE THIS LIST WHEN ANY CHANGES ARE MADE TO DOWNLINK LISTS.
000252:
000253:                                                                                                  #                                LOCATION                LIST NAME
000254: 05,2234  E6,1516               DL201              =        NEGTORKU                              #  COSTALIN
000255: 05,2234  E6,1517               DL202              =        POSTORKV
000256: 05,2234  E6,1520               DL203              =        NEGTORKV
000257: 05,2234     1331               DL204              =        DNRRDOT
000258: 05,2234     1334               DL205              =        DNLRVELY
000259: 05,2234     1335               DL206              =        DNLRVELZ
000260: 05,2234     1336               DL207              =        DNLRALT
000261: 05,2234  0000025               DL208              =        TIME1
000262: 05,2234     1356               DL209              =        DUMLOOPS
000263: 05,2234  0000037               DL210              =        PIPAX
000264: 05,2234  0000040               DL211              =        PIPAY
000265: 05,2234  0000041               DL212              =        PIPAZ
000266: 05,2234     0113               DL213              =        LASTXCMD
000267: 05,2234     1327               DL214              =        CSMMASS
000268: 05,2234     1300               DL215              =        IMODES33
000269: 05,2234     0113               DL216              =        LASTXCMD                              #  LMCSTA06
000270: 05,2234  E5,1741               DL217              =        IGC                                   #  LMCSTA07
000271: 05,2234  E5,1743               DL218              =        MGC
000272: 05,2234  E5,1756               DL219              =        BESTJ
000273:


000275:                                                                                                  #  LM RENDEZVOUS AND PRE-THRUST DOWNLIST
000276:
000277:                                                                                                  #      -----------------  CONTROL LIST  --------------------------
000278:
000279: 05,2234                        RENDEZVU           EQUALS                                         #  SEND ID BY SPECIAL CODING
000280: 05,2234           32127                           DNPTR    LMREND01                              #  COLLECT SNAPSHOT
000281: 05,2235           24340                           6DNADR   DNTMBUFF                              #  SEND SNAPSHOT
000282: 05,2236           32277                           DNPTR    LMREND07                              #  COLLECT SNAPSHOT
000283: 05,2237           32307                           DNPTR    LMREND08                              #  SEND    SNAPSHOT
000284: 05,2240           03451                           1DNADR   DELLT4                                #  DELLT4,+1
000285: 05,2241           13433                           3DNADR   DELVSLV                               #  DELVSLV+0...+5
000286: 05,2242           03633                           1DNADR   TCSI                                  #  TCSI,+1
000287: 05,2243           12257                           3DNADR   DELVEET1                              #  DELVEET+0...+5
000288: 05,2244           01355                           1DNADR   SERVDURN                              #  SERVDURN,DUMLOOPS
000289: 05,2245           03630                           1DNADR   TPASS4                                #  TPASS4,+1
000290: 05,2246           32226                           DNPTR    LMREND06                              #  COMMON DATA
000291: 05,2247           32136                           DNPTR    LMREND02                              #  COMMON DATA
000292: 05,2250           00024                           1DNADR   TIME2                                 #  TIME2/1
000293: 05,2251           32145                           DNPTR    LMREND03                              #  COLLECT SNAPSHOT
000294: 05,2252           24340                           6DNADR   DNTMBUFF                              #  SEND SNAPSHOT
000295: 05,2253           32154                           DNPTR    LMREND04                              #  COMMON DATA
000296: 05,2254           07115                           2DNADR   POSTORKU                              #  POSTORKU,NEGTORKU,POSTORKV,NEGTORKV
000297: 05,2255           00007                           1DNADR   SPARE
000298: 05,2256           01774                           1DNADR   TCDH                                  #  TCDH,+1
000299: 05,2257           12265                           3DNADR   DELVEET2                              #  DELVEET2+0...+5
000300: 05,2260           03635                           1DNADR   TTPI                                  #  TTPI,+1
000301: 05,2261           12356                           3DNADR   DELVEET3                              #  DELVEET3+0...+5
000302: 05,2262           02247                           1DNADR   ELEV                                  #  ELEV,+1
000303: 05,2263           04036                           2DNADR   CDUS                                  #  CDUS,PIPAX,PIPAY,PIPAZ
000304: 05,2264           00112                           1DNADR   LASTYCMD                              #  LASTYCMD,LASTXCMD
000305: 05,2265           01326                           1DNADR   LEMMASS                               #  LEMMASS,CSMMASS
000306: 05,2266           01277                           1DNADR   IMODES30                              #  IMODES30,IMODES33
000307: 05,2267           03441                           1DNADR   TIG                                   #  TIG,+1
000308: 05,2270           32160                           DNPTR    LMREND05                              #  COMMON DATA
000309: 05,2271           01516                           1DNADR   TET                                   #  TET,+1
000310: 05,2272           03620                           1DNADR   CENTANG                               #  CENTANG,+1
000311: 05,2273           03466                           1DNADR   NN                                    #  NN,+1
000312: 05,2274           03577                           1DNADR   DIFFALT                               #  DIFFALT,+1
000313: 05,2275           02340                           1DNADR   DELVTPF                               #  DELVTPF,+1
000314: 05,2276           77770                           -1DNADR  SPARE
000315:
000316:                                                                                                  #      -----------------  SUB-LISTS  ----------------------------
000317:
000318: 05,2277  05,2127               LMREND01           EQUALS   LMORBM01                              #  COMMON DOWNLIST DATA
000319:
000320: 05,2277  05,2136               LMREND02           EQUALS   LMORBM02                              #  COMMON DOWNLIST DATA
000321:
000322: 05,2277  05,2145               LMREND03           EQUALS   LMORBM03                              #  COMMON DOWNLIST DATA
000323:
000324: 05,2277  05,2154               LMREND04           EQUALS   LMORBM04                              #  COMMON DOWNLIST DATA


000326:
000327: 05,2277  05,2160               LMREND05           EQUALS   LMORBM05                              #  COMMON DOWNLIST DATA
000328:
000329: 05,2277  05,2226               LMREND06           EQUALS   LMCSTA06                              #  COMMON DOWNLIST DATA
000330:
000331: 05,2277           74320        LMREND07           -1DNADR  AIG                                   #  AIG,AMG       SNAPSHOT
000332: 05,2300           03461                           1DNADR   AOG                                   #  AOG,TRKMKCNT
000333: 05,2301           03752                           1DNADR   TANGNB                                #  TANGNB,+1
000334: 05,2302           03753                           1DNADR   TANGNB     +1                         #  TANGNB+1,GARBAGE
000335: 05,2303           03760                           1DNADR   RANGRDOT                              #  DNRRANGE,DNRRDOT
000336: 05,2304           03761                           1DNADR   RANGRDOT   +1                         #  DNRRDOT,GARBAGE
000337: 05,2305           01073                           1DNADR   AGSCODE                               #  AGSCODE,GARBAGE
000338: 05,2306           74023                           -1DNADR  MKTIME                                #  MKTIME,+1
000339: 05,2307           24340        LMREND08           6DNADR   DNTMBUFF                              #  SEND SNAPSHOT
000340: 05,2310           77423                           -1DNADR  DNTMBUFF   +12D                       #  SEND SNAPSHOT
000341:
000342:                                                                                                  #      ---------------------------------------------------------
000343:                                                                                                  #  *** UNREFERENCED LOCATIONS USED IN LIST 3
000344:                                                                                                  #                                                          LOCATION        LIST NAME
000345:
000346:                                                                                                  #  *** UPDATE THIS LIST WHEN ANY CHANGES ARE MADE TO DOWNLINK LISTS.
000347:
000348:
000349: 05,2311     1356               DL301              =        DUMLOOPS                              #  RENDEZVU
000350: 05,2311  0000025               DL302              =        TIME1
000351: 05,2311  E6,1516               DL303              =        NEGTORKU
000352: 05,2311  E6,1517               DL304              =        POSTORKV
000353: 05,2311  E6,1520               DL305              =        NEGTORKV
000354: 05,2311  0000037               DL306              =        PIPAX
000355: 05,2311  0000040               DL307              =        PIPAY
000356: 05,2311  0000041               DL308              =        PIPAZ
000357: 05,2311     0113               DL309              =        LASTXCMD
000358: 05,2311     1327               DL310              =        CSMMASS
000359: 05,2311     1300               DL311              =        IMODES33
000360: 05,2311  E7,1460               DL312              =        AMG                                   #  LMREND07
000361: 05,2311  E7,1462               DL313              =        TRKMKCNT
000362: 05,2311     1331               DL314              =        DNRRDOT
000363:


000365:                                                                                                  #  LM DESCENT AND ASCENT DOWNLIST
000366:
000367:                                                                                                  #      -----------------  CONTROL LIST  --------------------------
000368:
000369: 05,2311                        DESC/ASC           EQUALS                                         #  SEND ID BY SPECIAL CODING
000370: 05,2311           00007                           1DNADR   SPARE
000371: 05,2312           00007                           1DNADR   SPARE
000372: 05,2313           00007                           1DNADR   SPARE
000373: 05,2314           32363                           DNPTR    LMDSAS08                              #  COLLECT SNAPSHOT
000374: 05,2315           00340                           1DNADR   DNTMBUFF                              #  SEND SNAPSHOT
000375: 05,2316           32354                           DNPTR    LMDSAS07                              #  COLLECT SNAPSHOT
000376: 05,2317           24340                           6DNADR   DNTMBUFF                              #  SEND SNAPSHOT
000377: 05,2320           01341                           1DNADR   TEVENT                                #  TEVENT,+1
000378: 05,2321           13252                           3DNADR   UNFC/2                                #  UNFC/2+0...+5
000379: 05,2322           13645                           3DNADR   VGVECT                                #  VGVECT+0...+5
000380: 05,2323           03642                           1DNADR   TTF/8                                 #  TTF/8,+1
000381: 05,2324           03664                           1DNADR   DELTAH                                #  DELTAH,+1
000382: 05,2325           12020                           3DNADR   RLS                                   #  RLS+0...+5
000383: 05,2326           02267                           1DNADR   ZDOTD                                 #  ZDOTD,+1
000384: 05,2327           32226                           DNPTR    LMDSAS09                              #  COMMON DATA
000385: 05,2330           32136                           DNPTR    LMDSAS02                              #  COMMON DATA
000386: 05,2331           00024                           1DNADR   TIME2                                 #  TIME2/1
000387: 05,2332           32145                           DNPTR    LMDSAS03                              #  COLLECT SNAPSHOT
000388: 05,2333           24340                           6DNADR   DNTMBUFF                              #  SEND SNAPSHOT
000389: 05,2334           32154                           DNPTR    LMDSAS04                              #  COMMON DATA
000390: 05,2335           07115                           2DNADR   POSTORKU                              #  POSTORKU,NEGTORKU,POSTORKV,NEGTORKV
000391: 05,2336           12604                           3DNADR   RGU                                   #  RGU+0...+5
000392: 05,2337           13626                           3DNADR   VGU                                   #  VGU+0...+5
000393: 05,2340           13634                           3DNADR   LAND                                  #  LAND+0...+5
000394: 05,2341           02253                           1DNADR   AT                                    #  AT,+1
000395: 05,2342           02026                           1DNADR   TLAND                                 #  TLAND,+1
000396: 05,2343           03507                           1DNADR   DVTOTAL                               #  DVTOTAL,+1
000397: 05,2344           00112                           1DNADR   LASTYCMD                              #  LASTYCMD,LASTXCMD
000398: 05,2345           01326                           1DNADR   LEMMASS                               #  LEMMASS,CSMMASS
000399: 05,2346           01277                           1DNADR   IMODES30                              #  IMODES30,IMODES33
000400: 05,2347           03441                           1DNADR   TIG                                   #  TIG,+1
000401: 05,2350           32160                           DNPTR    LMDSAS05                              #  COMMON DATA
000402: 05,2351           32171                           DNPTR    LMDSAS06                              #  COMMON DATA
000403: 05,2352           03614                           1DNADR   PSEUDO55                              #  PSEUDO55,GARBAGE
000404: 05,2353           74324                           -1DNADR  TTOGO                                 #  TTOGO,+1
000405:                                                                                                  #      -----------------  SUB-LISTS   ----------------------------
000406:
000407: 05,2354  05,2136               LMDSAS02           EQUALS   LMORBM02                              #  COMMON DOWNLIST DATA
000408:
000409: 05,2354  05,2145               LMDSAS03           EQUALS   LMORBM03                              #  COMMON DOWNLIST DATA
000410:
000411: 05,2354  05,2154               LMDSAS04           EQUALS   LMORBM04                              #  COMMON DOWNLIST DATA
000412:
000413: 05,2354  05,2160               LMDSAS05           EQUALS   LMORBM05                              #  COMMON DOWNLIST DATA


000415:
000416: 05,2354  05,2171               LMDSAS06           EQUALS   LMORBM06                              #  COMMON DOWNLIST DATA
000417:
000418: 05,2354           74007        LMDSAS07           -1DNADR  HMEASDL                               #  HMEASDL,+1
000419: 05,2355           03652                           1DNADR   VMEAS                                 #  VMEAS,+1
000420: 05,2356           03457                           1DNADR   AIG                                   #  AIG,AMG
000421: 05,2357           03461                           1DNADR   AOG                                   #  AOG,VSELECT
000422: 05,2360           03740                           1DNADR   LATVMETR                              #  LATVMETR,FORVMETR
000423: 05,2361           01355                           1DNADR   SERVDURN                              #  SERVDURN,DUMLOOPS
000424: 05,2362           74005                           -1DNADR  LRTIMEDL                              #  LRTIMEDL,+1
000425:
000426: 05,2363           74107        LMDSAS08           -1DNADR  GTCTIME                               #  GTCTIME,+1
000427: 05,2364           74162                           -1DNADR  FC                                    #  FC, GARBAGE
000428: 05,2365  05,2226               LMDSAS09           EQUALS   LMCSTA06                              #  COMMON DOWNLIST DATA
000429:
000430:                                                                                                  #      ---------------------------------------------------------
000431:                                                                                                  #  *** UNREFERENCED LOCATIONS USED IN LIST 4
000432:                                                                                                  #  *** UPDATE THIS LIST WHEN ANY CHANGES ARE MADE TO DOWNLINK LISTS.
000433:
000434:
000435:                                                                                                  #                                                          LOCATION          LIST NAME
000436:
000437: 05,2365  0000025               DL401              =        TIME1                                 #  DESC/ASC
000438: 05,2365  E6,1516               DL402              =        NEGTORKU
000439: 05,2365  E6,1517               DL403              =        POSTORKV
000440: 05,2365  E6,1520               DL404              =        NEGTORKV
000441: 05,2365     0113               DL405              =        LASTXCMD
000442: 05,2365     1327               DL406              =        CSMMASS
000443: 05,2365     1300               DL407              =        IMODES33
000444: 05,2365  E7,1460               DL408              =        AMG                                   #  LMDSAS07
000445: 05,2365  E7,1462               DL409              =        VSELECT
000446: 05,2365  E7,1741               DL410              =        FORVMETR
000447: 05,2365     1356               DL411              =        DUMLOOPS
000448:


000450:                                                                                                  #  LM LUNAR SURFACE ALIGN DOWNLIST
000451:
000452:                                                                                                  #      -----------------  CONTROL LIST  --------------------------
000453:
000454: 05,2365                        SURFALIN           EQUALS                                         #  SEND ID BY SPECIAL CODING
000455: 05,2365           32127                           DNPTR    LMLSAL01                              #  COLLECT SNAPSHOT
000456: 05,2366           24340                           6DNADR   DNTMBUFF                              #  SEND SNAPSHOT
000457: 05,2367           32277                           DNPTR    LMLSAL07                              #  COLLECT SNAPSHOT
000458: 05,2370           14340                           4DNADR   DNTMBUFF                              #  SEND SHAPSHOT
000459: 05,2371           02774                           1DNADR   TALIGN                                #  TALIGN,+1
000460: 05,2372           25731                           6DNADR   REFSMMAT                              #  REFSMMAT+0...+11D
000461: 05,2373           26227                           6DNADR   YNBSAV                                #  YNBSAV+0...+5,ZNBSAV+0...+5
000462: 05,2374           01700                           1DNADR   X789                                  #  X789,+1
000463: 05,2375           01516                           1DNADR   TET                                   #  TET,+1
000464: 05,2376           00112                           1DNADR   LASTYCMD                              #  LASTYCMD,LASTXCMD
000465: 05,2377           32136                           DNPTR    LMLSAL02                              #  COMMON DATA
000466: 05,2400           00024                           1DNADR   TIME2                                 #  TIME/1
000467: 05,2401           32145                           DNPTR    LMLSAL03                              #  COLLECT SNAPSHOT
000468: 05,2402           24340                           6DNADR   DNTMBUFF                              #  SEND SHAPSHOT
000469: 05,2403           32154                           DNPTR    LMLSAL04                              #  COMMON DATA
000470: 05,2404           32230                           DNPTR    LMLSAL08                              #  COMMON DATA
000471: 05,2405           12221                           3DNADR   GSAV                                  #  GSAV +0...+5
000472: 05,2406           03371                           1DNADR   AGSK                                  #  AGSK,+1
000473: 05,2407           00112                           1DNADR   LASTYCMD                              #  LASTYCMD,LASTXCMD
000474: 05,2410           01326                           1DNADR   LEMMASS                               #  LEMMASS,CSMMASS
000475: 05,2411           01277                           1DNADR   IMODES30                              #  IMODES30,IMODES33
000476: 05,2412           03441                           1DNADR   TIG                                   #  TIG,+1
000477: 05,2413           07021                           2DNADR   OMEGAP                                #  OMEGAP,OMEGAQ,OMEGAR,GARBAGE
000478: 05,2414           07234                           2DNADR   CDUXD                                 #  CDUXD,CDUYD,CDUZD,GARBAGE
000479: 05,2415           04032                           2DNADR   CDUX                                  #  CDUX,CDUY,CDUZ,CDUT
000480: 05,2416           03024                           1DNADR   ALPHAQ                                #  ALPHAQ,ALPHAR            COMMON DATA
000481: 05,2417           00734                           1DNADR   AOTCODE                               #  AOTCODE,GARBAGE
000482: 05,2420           32165                           DNPTR    LMLSAL09                              #  COMMON DATA
000483: 05,2421           32171                           DNPTR    LMLSAL06                              #  COMMON DATA
000484: 05,2422           03561                           1DNADR   TSIGHT                                #  TSIGHT,TSIGHT +1
000485: 05,2423           76542                           -1DNADR  CURSOR                                #  AOT CURSOR,SPIRAL
000486:                                                                                                  #      -----------------  SUB-LISTS  ----------------------------
000487:
000488: 05,2424  05,2127               LMLSAL01           EQUALS   LMORBM01                              #  COMMON DOWNLIST DATA
000489:
000490: 05,2424  05,2136               LMLSAL02           EQUALS   LMORBM02                              #  COMMON DOWNLIST DATA
000491:
000492: 05,2424  05,2145               LMLSAL03           EQUALS   LMORBM03                              #  COMMON DOWNLIST DATA
000493:
000494: 05,2424  05,2154               LMLSAL04           EQUALS   LMORBM04                              #  COMMON DOWNLIST DATA
000495:
000496: 05,2424  05,2160               LMLSAL05           EQUALS   LMCSTA05                              #  COMMON DOWNLIST DATA
000497:
000498: 05,2424  05,2171               LMLSAL06           EQUALS   LMORBM06                              #  COMMON DOWNLIST DATA


000500:
000501: 05,2424  05,2277               LMLSAL07           EQUALS   LMREND07                              #  COMMON DOWNLIST DATA
000502:
000503: 05,2424  05,2230               LMLSAL08           EQUALS   LMCSTA07                              #  COMMON DOWNLIST DATA
000504: 05,2424  05,2165               LMLSAL09           EQUALS   LMORBM09                              #  COMMON DOWNLIST DATA
000505:                                                                                                  #      ---------------------------------------------------------
000506:                                                                                                  #  *** UNREFERENCED LOCATIONS USED IN LIST 5
000507:                                                                                                  #  *** UPDATE THIS LIST WHEN ANY CHANGES ARE MADE TO DOWNLINK LISTS.
000508:
000509:
000510:                                                                                                  #                                                          LOCATION           LIST NAME
000511:
000512: 05,2424  E4,1635               DL501              =        ZNBSAV                                #  SURFALIN
000513: 05,2424     0113               DL502              =        LASTXCMD
000514: 05,2424  0000025               DL503              =        TIME1
000515: 05,2424     0113               DL504              =        LASTXCMD
000516: 05,2424     1327               DL505              =        CSMMASS
000517: 05,2424     1300               DL506              =        IMODES33
000518: 05,2424  E6,1422               DL507              =        OMEGAQ
000519: 05,2424  E6,1423               DL508              =        OMEGAR
000520: 05,2424  E6,1635               DL509              =        CDUYD
000521: 05,2424  E6,1636               DL510              =        CDUZD
000522: 05,2424  0000033               DL511              =        CDUY
000523: 05,2424  0000034               DL512              =        CDUZ
000524: 05,2424  0000035               DL513              =        CDUT
000525: 05,2424  E6,1425               DL514              =        ALPHAR
000526: 05,2424     1236               DL515              =        SPIRAL
000527:


000529:                                                                                                  #  LM AGS INITIALIZATION AND UPDATE DOWNLIST
000530:
000531:                                                                                                  #      -----------------  CONTROL LIST  --------------------------
000532:
000533: 05,2424                        AGSI/UPD           EQUALS                                         #  SEND IO BY SPECIAL CODING
000534: 05,2424           12171                           3DNADR   AGSBUFF    +0                         #  AGSBUFF+0...+5
000535: 05,2425           02205                           1DNADR   AGSBUFF    +12D                       #  AGSBUFF+12D,GARBAGE
000536: 05,2426           12172                           3DNADR   AGSBUFF    +1                         #  AGSBUFF+1...+6
000537: 05,2427           02206                           1DNADR   AGSBUFF    +13D                       #  AGSBUFF+13D, GARBAGE
000538: 05,2430           12177                           3DNADR   AGSBUFF    +6                         #  AGSBUFF+6...+11
000539: 05,2431           02205                           1DNADR   AGSBUFF    +12D                       #  AGSBUFF+12,GARBAGE
000540: 05,2432           12200                           3DNADR   AGSBUFF    +7                         #  AGSBUFF+7...+12D
000541: 05,2433           02206                           1DNADR   AGSBUFF    +13D                       #  AGSBUFF+13D,GARBAGE
000542: 05,2434           25167                           6DNADR   COMPNUMB                              #  COMPNUMB,UPOLDMOD,UPVERB,UPCOUNT,
000543:                                                                                                  #  UPBUFF+0...+7
000544: 05,2435           25203                           6DNADR   UPBUFF     +8D                        #  UPBUFF +8D...+19D
000545: 05,2436           32136                           DNPTR    LMAGSI02                              #  COMMON DATA
000546: 05,2437           00024                           1DNADR   TIME2                                 #  TIME2/1
000547: 05,2440           32145                           DNPTR    LMAGSI03                              #  COLLECT SNAPSHOT
000548: 05,2441           24340                           6DNADR   DNTMBUFF                              #  SEND SNAPSHOT
000549: 05,2442           32154                           DNPTR    LMAGSI04                              #  COMMON DATA
000550: 05,2443           07115                           2DNADR   POSTORKU                              #  POSTORKU,NEGTORKU,POSTORKV,NEGTORKV
000551: 05,2444           01355                           1DNADR   SERVDURN                              #  SERVDURN,DUMLOOPS
000552: 05,2445           00007                           1DNADR   SPARE
000553: 05,2446           03371                           1DNADR   AGSK                                  #  AGSK,+1
000554: 05,2447           25173                           6DNADR   UPBUFF                                #  UPBUFF+0...+11D
000555: 05,2450           15207                           4DNADR   UPBUFF     +12D                       #  UPBUFF+12D...+19D
000556: 05,2451           01326                           1DNADR   LEMMASS                               #  LEMMASS,CSMMASS
000557: 05,2452           01277                           1DNADR   IMODES30                              #  IMODES30,IMODES33
000558: 05,2453           00007                           1DNADR   SPARE
000559: 05,2454           32160                           DNPTR    LMAGSI05                              #  COMMON DATA
000560: 05,2455           52755                           -6DNADR  DSPTAB                                #  DSPTAB+0...+11D
000561:
000562:                                                                                                  #      -----------------  SUB-LISTS  ----------------------------
000563:
000564: 05,2456  05,2136               LMAGSI02           EQUALS   LMORBM02                              #  COMMON DOWNLIST DATA
000565:
000566: 05,2456  05,2145               LMAGSI03           EQUALS   LMORBM03                              #  COMMON DOWNLIST DATA
000567:
000568: 05,2456  05,2154               LMAGSI04           EQUALS   LMORBM04                              #  COMMON DOWNLIST DATA
000569:
000570: 05,2456  05,2160               LMAGSI05           EQUALS   LMORBM05                              #  COMMON DOWNLIST DATA
000571:
000572:                                                                                                  #      ---------------------------------------------------------
000573:
000574:                                                                                                  #  *** UNREFERENCED LOCATIONS USED IN LIST 6
000575:                                                                                                  #  *** UPDATE THIS LIST WHEN ANY CHANGES ARE MADE TO DOWNLINK LISTS.
000576:
000577:                                                                                                  #                                                          LOCATION           LIST NAME
000578:


000580: 05,2456     1170               DL601              =        UPOLDMOD                              #  AGSI/UPD
000581: 05,2456     1171               DL602              =        UPVERB
000582: 05,2456     1172               DL603              =        UPCOUNT
000583: 05,2456     1173               DL604              =        UPBUFF
000584: 05,2456  0000025               DL605              =        TIME1
000585: 05,2456  E6,1516               DL606              =        NEGTORKU
000586: 05,2456  E6,1517               DL607              =        POSTORKV
000587: 05,2456  E6,1520               DL608              =        NEGTORKV
000588: 05,2456     1356               DL609              =        DUMLOOPS
000589: 05,2456     1327               DL610              =        CSMMASS
000590: 05,2456     1300               DL611              =        IMODES33
000591:                                                                                                  #  -------------------------------------------------------------------
000592: 05,2456           02173        DNTABLE            GENADR   COSTALIN                              #  LM COAST AND ALIGN DOWNLIST
000593: 05,2457           02424                           GENADR   AGSI/UPD                              #  LM AGS INITIALIZATION/UPDATE DOWNLIST
000594: 05,2460           02234                           GENADR   RENDEZVU                              #  LM RENDEZVOUS AND PRETHRUST DOWNLIST
000595: 05,2461           02066                           GENADR   ORBMANUV                              #  LM ORBITAL MANEUVERS DOWNLIST
000596: 05,2462           02311                           GENADR   DESC/ASC                              #  LM DESCENT AND ASCENT DOWNLIST
000597: 05,2463           02365                           GENADR   SURFALIN                              #  LM LUNAR SURFACE ALIGN DOWNLIST
000598:                                                                                                  #  ----------------------------------------------------------
000599:
000600:

End of include-file DOWNLINK_LISTS.agc.  Parent file is MAIN.agc


