
Source Code


000002:                                                                                                  ## Copyright:   Public domain.
000003:                                                                                                  ## Filename:    ERASABLE_ASSIGNMENTS.agc
000004:                                                                                                  ## Purpose:     A log section of Zerlina 56, the final revision of
000005:                                                                                                  ##              Don Eyles's offline development program for the variable
000006:                                                                                                  ##              guidance period servicer. It also includes a new P66 with LPD
000007:                                                                                                  ##              (Landing Point Designator) capability, based on an idea of John
000008:                                                                                                  ##              Young's. Neither of these advanced features were actually flown,
000009:                                                                                                  ##              but Zerlina was also the birthplace of other big improvements to
000010:                                                                                                  ##              Luminary including the terrain model and new (Luminary 1E)
000011:                                                                                                  ##              analog display programs. Zerlina was branched off of Luminary 145,
000012:                                                                                                  ##              and revision 56 includes all changes up to and including Luminary
000013:                                                                                                  ##              183. It is therefore quite close to the Apollo 14 program,
000014:                                                                                                  ##              Luminary 178, where not modified with new features.
000015:                                                                                                  ## Reference:   pp. 91-156
000016:                                                                                                  ## Assembler:   yaYUL
000017:                                                                                                  ## Contact:     Ron Burkey <info@sandroid.org>.
000018:                                                                                                  ## Website:     www.ibiblio.org/apollo/index.html
000019:                                                                                                  ## Mod history: 2017-07-28 MAS  Created from Luminary 210.
000020:                                                                                                  ##              2017-08-14 MAS  Began updates for Zerlina 56.
000021:                                                                                                  ##              2017-08-16 MAS  Complated updating for Zerlia 56.
000022:                                                                                                  ##              2017-08-24 MAS  Fixed an incorrect offset in lunar landing erasables.
000023:


000025:                                                                                                  #  CONVENTIONS AND NOTATIONS UTILIZED FOR ERASABLE ASSIGNMENTS.
000026:
000027:                                                                                                  #           EQUALS IS USED IN TWO WAYS.  IT IS OFTEN USED TO CHAIN A GROUP
000028:                                                                                                  #                  OF ASSIGNMENTS SO THAT THE GROUP MAY BE MOVED WITH THE
000029:                                                                                                  #                  CHANGING OF ONLY ONE CARD.  EXAMPLE.
000030:
000031:                                                                                                  #                                          X        EQUALS START
000032:                                                                                                  #                                          Y        EQUALS X        +SIZE.X
000033:                                                                                                  #                                          Z        EQUALS Y        +SIZE.Y
000034:
000035:                                                                                                  #                  (X, Y, AND Z ARE CONSECUTIVE AND BEGIN AT START.       )
000036:                                                                                                  #                  (SIZE.X AND SIZE.Y ARE THE RESPECTIVE SIZES OF X AND Y,
000037:                                                                                                  #                   USUALLY NUMERIC,  IE. 1, 2, 6, 18D ETC.               )
000038:
000039:
000040:                                                                                                  #           EQUALS OFTEN IMPLIES THE SHARING OF REGISTERS (DIFFERENT NAMES
000041:                                                                                                  #                  AND DIFFERENT DATA).  EXAMPLE.
000042:
000043:                                                                                                  #                                          X        EQUALS Y
000044:
000045:
000046:                                                                                                  #           = MEANS THAT MULTIPLE NAMES HAVE BEEN GIVEN TO THE SAME DATA.
000047:                                                                                                  #                  (THIS IS LOGICAL EQUIVALENCE, NOT SHARING)  EXAMPLE.
000048:
000049:                                                                                                  #                                          X        =      Y
000050:
000051:
000052:                                                                                                  #           THE SIZE AND UTILIZATION OF AN ERASABLE ARE OFTEN INCLUDED IN
000053:                                                                                                  #           THE COMMENTS IN THE FOLLOWING FORM.  M(SIZE)N.
000054:
000055:                                                                                                  #                  M REFERS TO THE MOBILITY OF THE ASSIGNMENT.
000056:                                                                                                  #                       B   MEANS THAT THE SYMBOL IS REFERENCED BY BASIC
000057:                                                                                                  #                           INSTRUCTIONS AND THUS IS E-BANK SENSITIVE.
000058:                                                                                                  #                       I   MEANS THAT THE SYMBOL IS REFERENCED ONLY BY
000059:                                                                                                  #                           INTERPRETIVE INSTRUCTIONS, AND IS THUS E-BANK
000060:                                                                                                  #                           INSENSITIVE AND MAY APPEAR IN ANY E-BANK.
000061:
000062:                                                                                                  #                  SIZE IS THE NUMBER OF REGISTERS INCLUDED BY THE SYMBOL.
000063:
000064:                                                                                                  #                  N INDICATES THE NATURE OF PERMANENCE OF THE CONTENTS.
000065:                                                                                                  #                       PL  MEANS THAT THE CONTENTS ARE PAD LOADED.
000066:                                                                                                  #                       DSP MEANS THAT THE REGISTER IS USED FOR A DISPLAY.
000067:                                                                                                  #                       PRM MEANS THAT THE REGISTER IS PERMANENT, IE. IT
000068:                                                                                                  #                           IS USED DURING THE ENTIRE MISSION FOR ONE
000069:                                                                                                  #                           PURPOSE AND CANNOT BE SHARED.
000070:                                                                                                  #                       TMP MEANS THAT THE REGISTER IS USED TEMPORARILY OR
000071:                                                                                                  #                           IS A SCRATCH REGISTER FOR THE ROUTINE TO WHICH
000072:                                                                                                  #                           IT IS ASSIGNED.  THAT IS, IT NEED NOT BE SET
000073:                                                                                                  #                           PRIOR TO INVOCATION OF THE ROUTINE NOR DOES IT
000074:                                                                                                  #                           CONTAIN USEFUL OUTPUT TO ANOTHER ROUTINE.  THUS


000076:                                                                                                  #                           IT MAY BE SHARED WITH ANY OTHER ROUTINE WHICH
000077:                                                                                                  #                           IS NOT ACTIVE IN PARALLEL.
000078:                                                                                                  #                       IN  MEANS INPUT TO THE ROUTINE AND IT IS PROBABLY
000079:                                                                                                  #                           TEMPORARY FOR A HIGHER-LEVEL ROUTINE/PROGRAM.
000080:                                                                                                  #                       OUT MEANS OUTPUT FROM THE ROUTINE, PROBABLY
000081:                                                                                                  #                           TEMPORARY FOR A HIGHER-LEVEL ROUTINE/PROGRAM.
000082:


000084:                                                                                                  #           SPECIAL REGISTERS.
000085:
000086: 26,2024                        A                  EQUALS   0
000087: 26,2024                        L                  EQUALS   1                                     #  L AND Q ARE BOTH CHANNELS AND REGISTERS.
000088: 26,2024                        Q                  EQUALS   2
000089: 26,2024                        EBANK              EQUALS   3
000090: 26,2024                        FBANK              EQUALS   4
000091: 26,2024                        Z                  EQUALS   5                                     #  ADJACENT TO FBANK AND BBANK FOR DXCH Z
000092: 26,2024                        BBANK              EQUALS   6                                     #  (DTCB) AND DXCH FBANK (DTCF).
000093:                                                                                                  #  REGISTER 7 IS A ZERO-SOURCE, USED BY ZL.
000094:
000095: 26,2024                        ARUPT              EQUALS   10                                    #  INTERRUPT STORAGE.
000096: 26,2024                        LRUPT              EQUALS   11
000097: 26,2024                        QRUPT              EQUALS   12
000098: 26,2024                        SAMPTIME           EQUALS   13                                    #  SAMPLED TIME 1 & 2.
000099: 26,2024                        ZRUPT              EQUALS   15                                    #  (13 AND 14 ARE SPARES.)
000100: 26,2024                        BANKRUPT           EQUALS   16                                    #  USUALLY HOLDS FBANK OR BBANK.
000101: 26,2024                        BRUPT              EQUALS   17                                    #  RESUME ADDRESS AS WELL.
000102:
000103: 26,2024                        CYR                EQUALS   20
000104: 26,2024                        SR                 EQUALS   21
000105: 26,2024                        CYL                EQUALS   22
000106: 26,2024                        EDOP               EQUALS   23                                    #  EDITS INTERPRETIVE OPERATION CODE PAIRS.
000107:
000108:
000109: 26,2024                        TIME2              EQUALS   24
000110: 26,2024                        TIME1              EQUALS   25
000111: 26,2024                        TIME3              EQUALS   26
000112: 26,2024                        TIME4              EQUALS   27
000113: 26,2024                        TIME5              EQUALS   30
000114: 26,2024                        TIME6              EQUALS   31
000115: 26,2024                        CDUX               EQUALS   32
000116: 26,2024                        CDUY               EQUALS   33
000117: 26,2024                        CDUZ               EQUALS   34
000118: 26,2024                        CDUT               EQUALS   35                                    #  REND RADAR TRUNNION CDU
000119: 26,2024                        CDUS               EQUALS   36                                    #  REND RADAR SHAFT CDU
000120: 26,2024                        PIPAX              EQUALS   37
000121: 26,2024                        PIPAY              EQUALS   40
000122: 26,2024                        PIPAZ              EQUALS   41
000123: 26,2024                        Q-RHCCTR           EQUALS   42                                    #  RHC COUNTER REGISTERS
000124: 26,2024                        P-RHCCTR           EQUALS   43
000125: 26,2024                        R-RHCCTR           EQUALS   44
000126: 26,2024                        INLINK             EQUALS   45
000127: 26,2024                        RNRAD              EQUALS   46
000128: 26,2024                        GYROCMD            EQUALS   47
000129: 26,2024                        CDUXCMD            EQUALS   50
000130: 26,2024                        CDUYCMD            EQUALS   51
000131: 26,2024                        CDUZCMD            EQUALS   52
000132: 26,2024                        CDUTCMD            EQUALS   53                                    #  RADAR TRUNNION COMMAND
000133: 26,2024                        CDUSCMD            EQUALS   54                                    #  RADAR SHAFT COMMAND


000135: 26,2024                        THRUST             EQUALS   55
000136: 26,2024                        LEMONM             EQUALS   56
000137: 26,2024                        OUTLINK            EQUALS   57
000138: 26,2024                        ALTM               EQUALS   60
000139:
000140:
000141:                                                                                                  #           INTERPRETIVE REGISTERS ADDRESSED RELATIVE TO VAC AREA.
000142:
000143: 26,2024                        LVSQUARE           EQUALS   34D                                   #  SQUARE OF VECTOR INPUT TO ABVAL AND UNIT
000144: 26,2024                        LV                 EQUALS   36D                                   #  LENGTH OF VECTOR INPUT TO UNIT.
000145: 26,2024                        X1                 EQUALS   38D                                   #  INTERPRETIVE SPECIAL REGISTERS RELATIVE
000146: 26,2024                        X2                 EQUALS   39D                                   #  TO THE WORK AREA.
000147: 26,2024                        S1                 EQUALS   40D
000148: 26,2024                        S2                 EQUALS   41D
000149: 26,2024                        QPRET              EQUALS   42D
000150:
000151:
000152:                                                                                                  #  INPUT/OUTPUT CHANNELS
000153:
000154:                                                                                                  #                                            *** CHANNEL ZERO IS TO BE USED IN AN INDEXED OPERATION ONLY. ***
000155: 26,2024  0000001               LCHAN              EQUALS   L
000156: 26,2024  0000002               QCHAN              EQUALS   Q
000157: 26,2024                        HISCALAR           EQUALS   3
000158: 26,2024                        LOSCALAR           EQUALS   4
000159: 26,2024                        CHAN5              EQUALS   5
000160: 26,2024                        CHAN6              EQUALS   6
000161: 26,2024                        SUPERBNK           EQUALS   7                                     #  SUPER-BANK.
000162: 26,2024                        OUT0               EQUALS   10
000163: 26,2024                        DSALMOUT           EQUALS   11
000164: 26,2024                        CHAN12             EQUALS   12
000165: 26,2024                        CHAN13             EQUALS   13
000166: 26,2024                        CHAN14             EQUALS   14
000167: 26,2024                        MNKEYIN            EQUALS   15
000168: 26,2024                        NAVKEYIN           EQUALS   16
000169: 26,2024                        CHAN30             EQUALS   30
000170: 26,2024                        CHAN31             EQUALS   31
000171: 26,2024                        CHAN32             EQUALS   32
000172: 26,2024                        CHAN33             EQUALS   33
000173: 26,2024                        DNTM1              EQUALS   34
000174: 26,2024                        DNTM2              EQUALS   35
000175: 26,2024                        CHAN76             EQUALS   76
000176: 26,2024                        CHAN77             EQUALS   77
000177:                                                                                                  #  END OF CHANNEL ASSIGNMENTS
000178:


000180:                                                                                                  #  INTERPRETIVE SWITCH BIT ASSIGNMENTS
000181:
000182:
000183:                                                                                                  #              **  FLAGWORDS AND BITS NOW ASSIGNED AND DEFINED IN THEIR OWN LOG SECTION.  **
000184:


000186:                                                                                                  #  GENERAL ERASABLE ASSIGNMENTS.
000187:
000188:    0061                                           SETLOC   61
000189:                                                                                                  #           INTERRUPT TEMPORARY STORAGE POOL.                              (11D)
000190:
000191:                                                                                                  #             (ITEMP1 THROUGH RUPTREG4)
000192:
000193:                                                                                                  #           ANY OF THESE MAY BE USED AS TEMPORARIES DURING INTERRUPT OR WITH INTERRUPT INHIBITED. THE ITEMP SERIES
000194:                                                                                                  #  IS USED DURING CALLS TO THE EXECUTIVE AND WAITLIST - THE RUPTREGS ARE NOT.
000195:
000196:    0061                        ITEMP1             ERASE
000197:    0062     0061               WAITEXIT           EQUALS   ITEMP1
000198:    0062     0061               EXECTEM1           EQUALS   ITEMP1
000199:
000200:    0062                        ITEMP2             ERASE
000201:    0063     0062               WAITBANK           EQUALS   ITEMP2
000202:    0063     0062               EXECTEM2           EQUALS   ITEMP2
000203:
000204:    0063                        ITEMP3             ERASE
000205:    0064     0063               WAITADR            EQUALS   ITEMP3
000206:    0064     0063               NEWPRIO            EQUALS   ITEMP3
000207:
000208:    0064                        ITEMP4             ERASE
000209:    0065     0064               LOCCTR             EQUALS   ITEMP4
000210:    0065     0064               WAITTEMP           EQUALS   ITEMP4
000211:
000212:    0065                        ITEMP5             ERASE
000213:    0066     0065               NEWLOC             EQUALS   ITEMP5
000214:
000215:    0066                        ITEMP6             ERASE
000216:                                                                                                  # NEWLOC+1       EQUALS          ITEMP6                    DP ADDRESS.
000217:
000218:    0067                                           SETLOC   67
000219:    0067                        NEWJOB             ERASE                                          #  MUST BE AT LOC 67 DUE TO WIRING.
000220:
000221:
000222:    0070                        RUPTREG1           ERASE
000223:    0071                        RUPTREG2           ERASE
000224:    0072                        RUPTREG3           ERASE
000225:    0073                        RUPTREG4           ERASE
000226:    0074     0073               KEYTEMP1           EQUALS   RUPTREG4
000227:    0074     0073               DSRUPTEM           EQUALS   RUPTREG4
000228:
000229:                                                                                                  #           FLAGWORD RESERVATIONS.                                         (16D)
000230:
000231:    0074                        STATE              ERASE    +15D                                  #  FLAGWORD REGISTERS.
000232:
000233:
000234:                                                                                                  #           P25 RADAR STORAGE.  (MAY BE UNSHARED IN E7)  (TEMP OVERLAY)    (2D)    OVERLAYS FLGWRD 14 & 15
000235:


000237:    0114     0112               LASTYCMD           EQUALS   STATE      +14D                       #  B(1)PRM  THESE ARE CALLED BY T4RUPT
000238:    0114     0113               LASTXCMD           EQUALS   LASTYCMD   +1                         #  B(1)PRM  THEY MUST BE CONTIGUOUS,Y FIRST
000239:
000240:
000241:
000242:                                                                                                  #           EXEC TEMPORARIES WHICH MAY BE USED BETWEEN CCS NEWJOBS.  (32D) (INTB15+ THROUGH RUPTMXTM)
000243:    0114                        INTB15+            ERASE                                          #  REFLECTS 15TH BIT OF INDEXABLE ADDRESSES
000244:    0115     0114               DSEXIT             =        INTB15+                               #  RETURN FOR DSPIN
000245:    0115     0114               EXITEM             =        INTB15+                               #  RETURN FOR SCALE FACTOR ROUTINE SELECT
000246:    0115                        INTBIT15           ERASE                                          #  SIMILAR TO ABOVE.
000247:    0116     0115               WDRET              =        INTBIT15                              #  RETURN FOR DSPWD
000248:    0116     0115               DECRET             =        INTBIT15                              #  RETURN FOR PUTCOM(DEC LOAD)
000249:    0116     0115               21/22REG           =        INTBIT15                              #  TEMP FOR CHARIN
000250:
000251:                                                                                                  #           THE REGISTERS BETWEEN ADDRWD AND PRIORITY MUST STAY IN THE FOLLOWING ORDER FOR INTERPRETIVE TRACE.
000252:
000253:    0116                        ADDRWD             ERASE                                          #  12 BIT INTERPRETIVE OPERAND SUB-ADDRESS.
000254:    0117                        POLISH             ERASE                                          #  HOLDS CADR MADE FROM POLISH ADDRESS.
000255:    0120     0117               UPDATRET           =        POLISH                                #  RETURN FOR UPDATNN, UPDATVB
000256:    0120     0117               CHAR               =        POLISH                                #  TEMP FOR CHARIN
000257:    0120     0117               ERCNT              =        POLISH                                #  COUNTER FOR ERROR LIGHT RESET
000258:    0120     0117               DECOUNT            =        POLISH                                #  COUNTER FOR SCALING AND DISPLAY (DEC)
000259:
000260:    0120                        FIXLOC             ERASE                                          #  WORK AREA ADDRESS.
000261:    0121                        OVFIND             ERASE                                          #  SET NON-ZERO ON OVERFLOW.
000262:
000263:    0122                        VBUF               ERASE    +5                                    #  TEMPORARY STORAGE USED FOR VECTORS.
000264:    0130     0122               SGNON              =        VBUF                                  #  TEMP FOR +,- ON
000265:    0130     0122               NOUNTEM            =        VBUF                                  #  COUNTER FOR MIXNOUN FETCH
000266:    0130     0122               DISTEM             =        VBUF                                  #  COUNTER FOR OCTAL DISPLAY VERBS
000267:    0130     0122               DECTEM             =        VBUF                                  #  COUNTER FOR FETCH (DEC DISPLAY VERBS)
000268:
000269:    0130     0123               SGNOFF             =        VBUF       +1                         #  TEMP FOR +,- ON
000270:    0130     0123               NVTEMP             =        VBUF       +1                         #  TEMP FOR NVSUB
000271:    0130     0123               SFTEMP1            =        VBUF       +1                         #  STORAGE FOR SF CONST HI PART(=SFTEMP2-1)
000272:    0130     0123               HITEMIN            =        VBUF       +1                         #  TEMP FOR LOAD OF HRS, MIN, SEC
000273:                                                                                                  #           MUST = LOTEMIN-1.
000274:    0130     0124               CODE               =        VBUF       +2                         #  FOR DSPIN
000275:    0130     0124               SFTEMP2            =        VBUF       +2                         #  STORAGE FOR SF CONST LO PART(=SFTEMP1+1)
000276:    0130     0124               LOTEMIN            =        VBUF       +2                         #  TEMP FOR LOAD OF HRS, MIN, SEC
000277:                                                                                                  #           MUST = HITEMIN+1.
000278:    0130     0125               MIXTEMP            =        VBUF       +3                         #  FOR MIXNOUN DATA
000279:                                                                                                  #  ALSO MIXTEMP+1 = VBUF+4, MIXTEMP+2 = VBUF+5.
000280:
000281:    0130                        BUF                ERASE    +2                                    #  TEMPORARY SCALAR STORAGE.
000282:    0133                        BUF2               ERASE    +1
000283:    0135     0130               INDEXLOC           EQUALS   BUF                                   #  CONTAINS ADDRESS OF SPECIFIED INDEX.
000284:    0135     0130               SWWORD             EQUALS   BUF                                   #  ADDRESS OF SWITCH WORD.
000285:    0135     0131               SWBIT              EQUALS   BUF        +1                         #  SWITCH BIT WITHIN SWITCH WORD.
000286:    0135                        MPTEMP             ERASE                                          #  TEMPORARY USED IN MULTIPLY AND SHIFT.
000287:


000289:    0136     0135               DMPNTEMP           =        MPTEMP                                #  DMPSUB TEMPORARY
000290:    0136                        DOTINC             ERASE                                          #  COMPONENT INCREMENT FOR DOT SUBROUTINE.
000291:    0137     0136               DVSIGN             EQUALS   DOTINC                                #  DETERMINES SIGN OF DDV RESULT.
000292:    0137     0136               ESCAPE             EQUALS   DOTINC                                #  USED IN ARCSIN/ARCCOS.
000293:    0137     0136               ENTRET             =        DOTINC                                #  EXIT FROM ENTER
000294:
000295:    0137                        DOTRET             ERASE                                          #  RETURN FROM DOT SUBROUTINE.
000296:    0140     0137               DVNORMCT           EQUALS   DOTRET                                #  DIVIDEND NORMALIZATION COUNT IN DDV.
000297:    0140     0137               ESCAPE2            EQUALS   DOTRET                                #  ALTERNATE ARCSIN/ARCCOS SWITCH.
000298:    0140     0137               WDCNT              =        DOTRET                                #  CHAR COUNTER FOR DSPWD
000299:    0140     0137               INREL              =        DOTRET                                #  INPUT BUFFER SELECTOR ( X,Y,Z, REG )
000300:
000301:    0140                        MATINC             ERASE                                          #  VECTOR INCREMENT IN MXV AND VXM.
000302:    0141     0140               MAXDVSW            EQUALS   MATINC                                #  +0 IF DP QUOTIENT IS NEAR ONE - ELSE -1.
000303:    0141     0140               POLYCNT            EQUALS   MATINC                                #  POLYNOMIAL LOOP COUNTER
000304:    0141     0140               DSPMMTEM           =        MATINC                                #  DSPCOUNT SAVE FOR DSPMM
000305:    0141     0140               MIXBR              =        MATINC                                #  INDICATOR FOR MIXED OR NORMAL NOUN
000306:
000307:    0141                        TEM1               ERASE                                          #  EXEC TEMP
000308:    0142     0141               POLYRET            =        TEM1
000309:    0142     0141               DSREL              =        TEM1                                  #  REL ADDRESS FOR DSPIN
000310:
000311:    0142                        TEM2               ERASE                                          #  EXEC TEMP
000312:    0143     0142               DSMAG              =        TEM2                                  #  MAGNITUDE STORE FOR DSPIN
000313:    0143                        TEM3               ERASE                                          #  EXEC TEMP
000314:    0144     0143               COUNT              =        TEM3                                  #  FOR DSPIN
000315:
000316:    0144                        TEM4               ERASE                                          #  EXEC TEMP
000317:    0145     0144               RELRET             =        TEM4                                  #  RETURN FOR RELDSP
000318:    0145     0144               DSPWDRET           =        TEM4                                  #  RETURN FOR DSPSIGN
000319:    0145     0144               SEPSCRET           =        TEM4                                  #  RETURN FOR SEPSEC
000320:    0145     0144               SEPMNRET           =        TEM4                                  #  RETURN FOR SEPMIN
000321:
000322:    0145                        TEM5               ERASE                                          #  EXEC TEMP
000323:    0146     0145               NOUNADD            =        TEM5                                  #  TEMP STORAGE FOR NOUN ADDRESS
000324:
000325:    0146                        NNADTEM            ERASE                                          #  TEMP FOR NOUN ADDRESS TABLE ENTRY
000326:    0147                        NNTYPTEM           ERASE                                          #  TEMP FOR NOUN TYPE TABLE ENTRY
000327:    0150                        IDAD1TEM           ERASE                                          #  TEMP FOR INDIR ADRESS TABLE ENTRY(MIXNN)
000328:                                                                                                  #  MUST = IDAD2TEM-1, = IDAD3TEM-2.
000329:    0151                        IDAD2TEM           ERASE                                          #  TEMP FOR INDIR ADRESS TABLE ENTRY(MIXNN)
000330:                                                                                                  #  MUST = IDAD1TEM+1, = IDAD3TEM-1.
000331:    0152                        IDAD3TEM           ERASE                                          #  TEMP FOR INDIR ADRESS TABLE ENTRY(MIXNN)
000332:                                                                                                  #  MUST = IDAD1TEM+2, = IDAD2TEM+1.
000333:    0153                        RUTMXTEM           ERASE                                          #  TEMP FOR SF ROUT TABLE ENTRY(MIXNN ONLY)
000334:
000335:                                                                                                  #           AX*SR*T STORAGE.                                               (6D)
000336:
000337:    0154     0142               DEXDEX             EQUALS   TEM2                                  #  B(1)TMP
000338:    0154     0143               DEX1               EQUALS   TEM3                                  #  B(1)TMP


000340:    0154     0144               DEX2               EQUALS   TEM4                                  #  B(1)TMP
000341:    0154     0145               RTNSAVER           EQUALS   TEM5                                  #  B(1)TMP
000342:    0154     0157               TERM1TMP           EQUALS   MPAC       +3                         #  B(2)TMP
000343:
000344:    0154     0143               DEXI               =        DEX1
000345:
000346:
000347:                                                                                                  #           THE FOLLOWING 10 REGISTERS ARE USED FOR TEMPORARY STORAGE OF THE DERIVATIVE COEFFICIENT TABLE OF
000348:                                                                                                  #  SUBROUTINE ROOTPSRS.   THEY MUST REMAIN WITHOUT INTERFERENCE WITH ITS SUBROUTINES WHICH ARE POWRSERS (POLY),
000349:                                                                                                  #  DMPSUB, DMPNSUB, SHORTMP, DDV/BDDV, ABS, AND USPRCADR.
000350:
000351:    0154     0142               DERCOF-8           =        MPAC       -12                        #  ROOTPSRS DER COF N-4 HI ORDER
000352:    0154     0143               DERCOF-7           =        MPAC       -11                        #  ROOTPSRS DER COF N-4 LO ORDER
000353:    0154     0144               DERCOF-6           =        MPAC       -10                        #  ROOTPSRS DER COF N-3 HI ORDER
000354:    0154     0145               DERCOF-5           =        MPAC       -7                         #  ROOTPSRS DER COF N-3 LO ORDER
000355:    0154     0146               DERCOF-4           =        MPAC       -6                         #  ROOTPSRS DER COF N-2 HI ORDER
000356:    0154     0147               DERCOF-3           =        MPAC       -5                         #  ROOTPSRS DER COF N-2 LO ORDER
000357:    0154     0150               DERCOF-2           =        MPAC       -4                         #  ROOTPSRS DER COF N-1 HI ORDER
000358:    0154     0151               DERCOF-1           =        MPAC       -3                         #  ROOTPSRS DER COF N-1 LO ORDER
000359:    0154     0152               DERCOFN            =        MPAC       -2                         #  ROOTPSRS DER COF N HI ORDER
000360:    0154     0153               DERCOF+1           =        MPAC       -1                         #  ROOTPSRS DER COF N LO ORDER
000361:
000362:    0154     0117               PWRPTR             =        POLISH                                #  ROOTPSRS POWER TABLE POINTER
000363:    0154     0124               DXCRIT             =        VBUF       +2                         #  ROOTPSRS CRITERION FOR ENDING ITERS HI
000364:    0154     0125               DXCRIT+1           =        VBUF       +3                         #  ROOTPSRS CRITERION FOR ENDING ITERS LO
000365:    0154     0126               ROOTPS             =        VBUF       +4                         #  ROOTPSRS ROOT HI ORDER
000366:    0154     0127               ROOTPS+1           =        VBUF       +5                         #  ROOTPSRS ROOT LO ORDER
000367:    0154     0132               RETROOT            =        BUF        +2                         #  ROOTPSRS RETURN ADDRESS OF USER
000368:    0154     0140               PWRCNT             =        MATINC                                #  ROOTPSRS DER TABLE LOOP COUNTER
000369:    0154     0141               DERPTR             =        TEM1                                  #  ROOTPSRS DER TABLE POINTER
000370:
000371:


000373:                                                                                                  #           DYNAMICALLY ALLOCATED CORE SETS FOR JOBS.                      (84D)
000374:
000375:    0154                        MPAC               ERASE    +6                                    #  MULTI-PURPOSE ACCUMULATOR.
000376:    0163                        MODE               ERASE                                          #  +1 FOR TP, +0 FOR DP, OR -1 FOR VECTOR.
000377:    0164                        LOC                ERASE                                          #  LOCATION ASSOCIATED WITH JOB.
000378:    0165                        BANKSET            ERASE                                          #  USUALLY CONTAINS BBANK SETTING.
000379:    0166                        PUSHLOC            ERASE                                          #  WORD OF PACKED INTERPRETIVE PARAMETERS.
000380:    0167                        PRIORITY           ERASE                                          #  PRIORITY OF PRESENT JOB AND WORK AREA.
000381:
000382:    0170                                           ERASE    +83D                                  #  EIGHT SETS OF  12 REGISTERS EACH
000383:
000384:
000385:                                                                                                  #  INCORP STORAGE: R22 (N29)    (SHARES WITH FOLLOWING SECTION)            (4D)
000386:
000387:    0314     0314               R22DISP            EQUALS   TIME2SAV                              #  I(4) N49 DISPLAY OF DELTA R AND DELTA V
000388:
000389:
000390:                                                                                                  #  STANDBY VERB ERASABLES                                                  (4D)
000391:
000392:    0314                        TIME2SAV           ERASE    +1
000393:    0316                        SCALSAVE           ERASE    +1
000394:
000395:
000396:                                                                                                  #          HARDWARE RESTART COUNTER                                    (1D)
000397:
000398:    0320                        REDOCTR            ERASE                                          #  CONTAINS NUMBER OF RESTARTS
000399:
000400:
000401:                                                                                                  #   UNSHARED STORAGE FOR DESIRED GIMBAL ANGLES                         (3D)
000402:
000403:    0321                        THETAD             ERASE    +2
000404:    0324     0321               CPHI               =        THETAD                                #  O   DESIRED GIMBAL ANGLES
000405:    0324     0322               CTHETA             =        THETAD     +1                         #  I   FOR
000406:    0324     0323               CPSI               =        THETAD     +2                         #  M   MANEUVER.
000407:
000408:
000409:                                                                                                  #   STORAGE FOR DELTAV/S                                               (6D)
000410:
000411:    0324                        DELV               ERASE    +5
000412:    0332     0324               DELVX              =        DELV
000413:    0332     0326               DELVY              =        DELV       +2
000414:    0332     0330               DELVZ              =        DELV       +4
000415:
000416:
000417:                                                                                                  #           WAITLIST REPEAT FLAG                                           (1D)
000418:
000419:    0332                        RUPTAGN            ERASE
000420:    0333     0332               KEYTEMP2           =        RUPTAGN                               #  TEMP FOR KEYRUPT, UPRUPT
000421:
000422:
000423:                                                                                                  #           DOWNLINK STORAGE.                                              (27D)
000424:


000426:    0333                        DNTMERAS           ERASE    +26D                                  #  B(27D)PRM  ERASABLES USED BY DOWN-
000427:                                                                                                  #   TELEMETRY PROGRAM -- CANNOT BE SHARED.
000428:
000429:    0366     0333               DNLSTCOD           EQUALS   DNTMERAS                              #  B(1)PRM  CODE SPECIFYING WHICH DOWNLIST
000430:                                                                                                  #         WILL BE SELECTED FOR TRANSMISSION
000431:    0366     0334               CTLIST             EQUALS   DNLSTCOD   +1                         #  B(1)PRM  POINTER TO CURRENT LOCATION OF
000432:                                                                                                  #           THE CONTROL LIST.
000433:    0366     0335               DNTMGOTO           EQUALS   CTLIST     +1                         #  B(1)PRM  POINTER TO LOCATION WHERE DNTM
000434:                                                                                                  #   PROCESSING WILL RESUME NEXT DOWNRUPT.
000435:    0366     0336               DNECADR            EQUALS   DNTMGOTO   +1                         #  B(1)PRM  HOLDS CONTENTS OF CURRENT
000436:                                                                                                  #        CONTROL LIST LOCATION.
000437:    0366     0336               TMINDEX            EQUALS   DNECADR                               #  B(1)  INDEX FOR LOADING SNAPSHOT BUFFER.
000438:    0366     0336               DUMPLOC            EQUALS   DNECADR                               #  B(1)  BITS 1-11 CONTAIN ECADR OF AGC DP
000439:                                                                                                  #   WORD BEING DUMPED BY V74 ERASABLE DUMP.
000440:                                                                                                  #        BITS 12-15 CONTAIN COUNT OF
000441:                                                                                                  #   COMPLETE DUMPS ALREADY SENT.
000442:    0366     0337               SUBLIST            EQUALS   DNECADR    +1                         #  B(1)PRM  POINTER TO CURRENT SUBLIST LOC.
000443:    0366     0340               DNTMBUFF           EQUALS   SUBLIST    +1                         #  B(22)PRM DOWNLINK SNAPSHOT BUFFER
000444:
000445:
000446:                                                                                                  #           UNSWITCHED FOR DISPLAY INTERFACE ROUTINES.                     (10D) FIVE MORE IN EBANK 2
000447:
000448:    0366                        RESTREG            ERASE                                          #  B(1)PRM FOR DISPLAY RESTARTS
000449:    0367                        NVWORD             ERASE
000450:    0370                        MARKNV             ERASE
000451:    0371                        NVSAVE             ERASE                                          #  PURPOSES)
000452:                                                                                                  #                  (RETAIN THE ORDER OF CADRFLSH TO FAILREG +2 FOR DOWNLINK PURPOSES)
000453:    0372                        CADRFLSH           ERASE
000454:    0373                        CADRMARK           ERASE
000455:    0374                        TEMPFLSH           ERASE
000456:    0375                        FAILREG            ERASE    +2                                    #  B(3)PRM  3 ALARM CODE REGISTERS
000457:
000458:
000459:                                                                                                  #           VAC AREAS. -BE CAREFUL OF PLACEMENT-                           (220D)
000460:
000461:    0400                        VAC1USE            ERASE
000462:    0401                        VAC1               ERASE    +42D
000463:    0454                        VAC2USE            ERASE
000464:    0455                        VAC2               ERASE    +42D
000465:    0530                        VAC3USE            ERASE
000466:    0531                        VAC3               ERASE    +42D
000467:    0604                        VAC4USE            ERASE
000468:    0605                        VAC4               ERASE    +42D
000469:    0660                        VAC5USE            ERASE
000470:    0661                        VAC5               ERASE    +42D
000471:
000472:
000473:                                                                                                  #           TEMPORARIES USED BY RESTARTS ROUTINE
000474:
000475:    0734     0705               GOLOC              EQUALS   VAC5       +20D                       #  B(4)
000476:


000478:                                                                                                  #           STARALIGN ERASABLES.                                           (13D)
000479:
000480:    0734                        STARCODE           ERASE                                          #  (1)
000481:    0735     0734               AOTCODE            =        STARCODE
000482:    0735                        STARALGN           ERASE    +11D
000483:    0751     0735               SINCDU             =        STARALGN
000484:    0751     0743               COSCDU             =        STARALGN   +6
000485:
000486:    0751     0741               SINCDUX            =        SINCDU     +4
000487:    0751     0735               SINCDUY            =        SINCDU
000488:    0751     0737               SINCDUZ            =        SINCDU     +2
000489:    0751     0747               COSCDUX            =        COSCDU     +4
000490:    0751     0743               COSCDUY            =        COSCDU
000491:    0751     0745               COSCDUZ            =        COSCDU     +2
000492:
000493:
000494:                                                                                                  #           PHASE TABLE AND RESTART COUNTERS.                              (12D)
000495:
000496:    0751                        -PHASE1            ERASE
000497:    0752                        PHASE1             ERASE
000498:    0753                        -PHASE2            ERASE
000499:    0754                        PHASE2             ERASE
000500:    0755                        -PHASE3            ERASE
000501:    0756                        PHASE3             ERASE
000502:    0757                        -PHASE4            ERASE
000503:    0760                        PHASE4             ERASE
000504:    0761                        -PHASE5            ERASE
000505:    0762                        PHASE5             ERASE
000506:    0763                        -PHASE6            ERASE
000507:    0764                        PHASE6             ERASE
000508:
000509:
000510:                                                                                                  #           A**SR*T STORAGE.                                               (6D)
000511:
000512:    0765                        CDUSPOT            ERASE    +5                                    #  B(6)
000513:
000514:    0773     0765               CDUSPOTY           =        CDUSPOT
000515:    0773     0767               CDUSPOTZ           =        CDUSPOT    +2
000516:    0773     0771               CDUSPOTX           =        CDUSPOT    +4
000517:
000518:
000519:                                                                                                  #           VERB 37 STORAGE.                                               (2D)
000520:
000521:    0773                        MINDEX             ERASE                                          #  B(1) TMP INDEX FOR MAJOR MODE
000522:    0774                        MMNUMBER           ERASE                                          #  B(1) TMP MAJOR MODE REQUESTED BY V37
000523:
000524:
000525:                                                                                                  #           PINBALL INTERRUPT ACTION.                                      (1D)
000526:
000527:    0775                        DSPCNT             ERASE                                          #  B(1)PRM COUNTER FOR DSPOUT.
000528:


000530:                                                                                                  #           PINBALL EXECUTIVE ACTION                                       (44D)
000531:
000532:    0776                        DSPCOUNT           ERASE                                          #  DISPLAY POSITION INDICATOR.
000533:    0777                        DECBRNCH           ERASE                                          #  +DEC, - DEC, OCT INDICATOR
000534:    1000                        VERBREG            ERASE                                          #  VERB CODE
000535:    1001                        NOUNREG            ERASE                                          #  NOUN CODE
000536:    1002                        XREG               ERASE                                          #  R1 INPUT BUFFER
000537:    1003                        YREG               ERASE                                          #  R2 INPUT BUFFER
000538:    1004                        ZREG               ERASE                                          #  R3 INPUT BUFFER
000539:    1005                        XREGLP             ERASE                                          #  LO PART OF XREG (FOR DEC CONV ONLY)
000540:    1006                        YREGLP             ERASE                                          #  LO PART OF YREG (FOR DEC CONV ONLY)
000541:    1007     1006               HITEMOUT           =        YREGLP                                #  TEMP FOR DISPLAY OF HRS, MIN, SEC
000542:                                                                                                  #           MUST = LOTEMOUT-1.
000543:    1007                        ZREGLP             ERASE                                          #  LO PART OF ZREG (FOR DEC CONV ONLY)
000544:    1010     1007               LOTEMOUT           =        ZREGLP                                #  TEMP FOR DISPLAY OF HRS, MIN, SEC
000545:                                                                                                  #           MUST = HITEMOUT+1.
000546:    1010                        MODREG             ERASE                                          #  MODE CODE
000547:    1011                        DSPLOCK            ERASE                                          #  KEYBOARD/SUBROUTINE CALL INTERLOCK
000548:    1012                        REQRET             ERASE                                          #  RETURN REGISTER FOR LOAD
000549:    1013                        LOADSTAT           ERASE                                          #  STATUS INDICATOR FOR LOADTST
000550:    1014                        CLPASS             ERASE                                          #  PASS INDICATOR CLEAR
000551:    1015                        NOUT               ERASE                                          #  ACTIVITY COUNTER FOR DSPTAB
000552:    1016                        NOUNCADR           ERASE                                          #  MACHINE CADR FOR NOUN
000553:    1017                        MONSAVE            ERASE                                          #  N/V CODE FOR MONITOR. (= MONSAVE1-1)
000554:    1020                        MONSAVE1           ERASE                                          #  NOUNCADR FOR MONITOR(MATBS) =MONSAVE +1
000555:    1021                        MONSAVE2           ERASE                                          #  NVMONOPT OPTIONS
000556:    1022                        DSPTAB             ERASE    +11D                                  #  0-10D, DISPLAY PANEL BUFF. 11D, C/S LTS.
000557:    1036                        NVQTEM             ERASE                                          #  NVSUB STORAGE FOR CALLING ADDRESS
000558:                                                                                                  #  MUST = NVBNKTEM-1
000559:    1037                        NVBNKTEM           ERASE                                          #  NVSUB STORAGE FOR CALLING BANK
000560:                                                                                                  #  MUST = NVQTEM+1
000561:    1040                        VERBSAVE           ERASE                                          #  NEEDED FOR RECYCLE
000562:    1041                        CADRSTOR           ERASE                                          #  ENDIDLE STORAGE
000563:    1042                        DSPLIST            ERASE                                          #  WAITING REG FOR DSP SYST INTERNAL USE
000564:    1043                        EXTVBACT           ERASE                                          #  EXTENDED VERB ACTIVITY INTERLOCK
000565:    1044                        DSPTEM1            ERASE    +2                                    #  BUFFER STORAGE AREA 1 (MOSTLY FOR TIME)
000566:    1047                        DSPTEM2            ERASE    +2                                    #  BUFFER STORAGE AREA 2 (MOSTLY FOR DEG)
000567:
000568:
000569:    1052     1050               DSPTEMX            EQUALS   DSPTEM2    +1                         #  B(2) S-S DISPLAY BUFFER FOR EXT. VERBS
000570:    1052     1044               NORMTEM1           EQUALS   DSPTEM1                               #  B(3)DSP NORMAL DISPLAY REGISTERS.
000571:
000572:
000573:
000574:                                                                                                  #           DISPLAY FOR EXTENDED VERBS (V82, R04(V62), V41(N72) )          (2D)
000575:
000576:    1052     1050               OPTIONX            EQUALS   DSPTEMX                               #  (2) EXTENDED VERB OPTION CODE
000577:
000578:
000579:                                                                                                  #           TBASES AND PHSPRDT S.                                          (12D)


000581:    1052                        TBASE1             ERASE
000582:    1053                        PHSPRDT1           ERASE
000583:    1054                        TBASE2             ERASE
000584:    1055                        PHSPRDT2           ERASE
000585:    1056                        TBASE3             ERASE
000586:    1057                        PHSPRDT3           ERASE
000587:    1060                        TBASE4             ERASE
000588:    1061                        PHSPRDT4           ERASE
000589:    1062                        TBASE5             ERASE
000590:    1063                        PHSPRDT5           ERASE
000591:    1064                        TBASE6             ERASE
000592:    1065                        PHSPRDT6           ERASE
000593:
000594:
000595:    1066     1055               PIPCTR             =        PHSPRDT2                              #  USED TO COUNT DOWN R10 CYLCES.  USED IN
000596:                                                                                                  #  CONJUNCTION WITH TBASE2, SO THIS
000597:                                                                                                  #  LOCATION IS FUNCTIONALLY =.  SEE R10,R11
000598:
000599:
000600:                                                                                                  #           UNSWITCHED FOR DISPLAY INTERFACE ROUTINES.                     (5D)
000601:
000602:    1066                        NVWORD1            ERASE                                          #  B(1) * USED DURING POWERED FLIGHT ONLY *
000603:
000604:    1067                        EBANKSAV           ERASE
000605:    1070     1067               DSPFLG             =        EBANKSAV
000606:    1070                        MARKFLAG           ERASE
000607:    1071                        EBANKTEM           ERASE
000608:    1072                        MARK2PAC           ERASE
000609:
000610:
000611:
000612:                                                                                                  #           CODE WORD FOR AGS RENDEZVOUS DOWNLIST XFER OF RADAR DATA       (1D)
000613:
000614:    1073                        AGSCODE            ERASE                                          #  B(1) DO NOT SHARE.
000615:
000616:
000617:                                                                                                  #           IMU COMPENSATION UNSWITCHED ERASABLE.                          (1D)
000618:
000619:    1074                        1/PIPADT           ERASE
000620:
000621:
000622:                                                                                                  #           TEMPORARIES FOR SPCOS AND SPSIN                                (2D)
000623:
000624:    1075                        TEMK               ERASE                                          #  (1)
000625:    1076                        SQ                 ERASE                                          #  (1)
000626:
000627:
000628:                                                                                                  #      **** RADAR ****                                                     (13D)
000629:
000630:    1077                        SAMPLIM            ERASE                                          #  B(1)      LR    R12,P60S,R04,R77


000632:    1100     1077               RADUSE             EQUALS   SAMPLIM                               #  B(1)PRM   BOTH  P20,P22,R12,R04
000633:    1100                        SAMPLSUM           ERASE    +3                                    #  B(2),I(2) BOTH
000634:    1104     1100               RRTARGET           EQUALS   SAMPLSUM                              #  I(6)      RR  P20,P22,R04,V41
000635:
000636:    1104                        TIMEHOLD           ERASE    +1                                    #  B(2)      BOTH
000637:    1106                        TANG               ERASE    +1                                    #  B(2),I    RR
000638:    1110     1106               MODEA              EQUALS   TANG                                  #  B(2),I    RR
000639:
000640:    1110                        MODEB              ERASE    +1                                    #  B(2),I    RR
000641:    1112     1110               NSAMP              EQUALS   MODEB                                 #  B(1)      BOTH
000642:
000643:    1112                        DESRET             ERASE                                          #  B(1),I    RR
000644:    1113     1112               OLDATAGD           EQUALS   DESRET                                #  B(1)      BOTH
000645:
000646:    1113                        DESCOUNT           ERASE                                          #  B(1)      RR
000647:
000648:
000649:
000650:                                                                                                  #           ******   P22  ******                                           (6D)
000651:
000652:    1114     1100               RSUBC              EQUALS   RRTARGET                              #  I(6)S-S  CSM POSITION VECTOR
000653:
000654:


000656:                                                                                                  #           UNSWITCHED FOR ORBIT INTEGRATION.                              (21D)
000657:
000658:    1114                        TDEC               ERASE    +20D                                  #  I(2)
000659:    1141     1116               COLREG             EQUALS   TDEC       +2                         #  I(1)
000660:    1141     1117               LAT                EQUALS   COLREG     +1                         #  I(2)
000661:    1141     1121               LONG               EQUALS   LAT        +2                         #  I(2)
000662:    1141     1123               ALT                EQUALS   LONG       +2                         #  I(2)
000663:    1141     1125               YV                 EQUALS   ALT        +2                         #  I(6)
000664:    1141     1133               ZV                 EQUALS   YV         +6                         #  I(6)
000665:
000666:
000667:                                                                                                  #           MISCELLANEOUS UNSWITCHED.                                      (20D)
000668:
000669:    1141                        P40/RET            ERASE                                          #  (WILL BE PUT IN E6 WHEN THERE IS ROOM)
000670:    1142                        GENRET             ERASE                                          #  B(1)  R61 RETURN CADR.
000671:    1143                        OPTION1            ERASE                                          #  B(1)   NOUN 06 USES THIS
000672:    1144                        OPTION2            ERASE                                          #  B(1)   NOUN 06 USES THIS
000673:    1145                        OPTION3            ERASE                                          #  B(1)  NOUN 06 USES THIS
000674:    1146                        LONGCADR           ERASE    +1                                    #  B(2)  LONGCALL REGISTER
000675:    1150                        LONGBASE           ERASE    +1
000676:    1152                        LONGTIME           ERASE    +1                                    #  B(2)    LONGCALL REGISTER
000677:    1154                        CDUTEMPX           ERASE                                          #  B(1)TMP
000678:    1155                        CDUTEMPY           ERASE                                          #  B(1)TMP
000679:    1156                        CDUTEMPZ           ERASE                                          #  B(1)TMP
000680:    1157                        PIPATMPX           ERASE                                          #  B(1)TMP
000681:    1160                        PIPATMPY           ERASE                                          #  B(1)TMP
000682:    1161                        PIPATMPZ           ERASE                                          #  B(1)TMP
000683:
000684:    1162                        DISPDEX            ERASE                                          #  B(1)
000685:    1163                        TEMPR60            ERASE                                          #  B(1)
000686:    1164                        PRIOTIME           ERASE                                          #  B(1)
000687:
000688:                                                                                                  #           P27 (UPDATE PROGRAM ) STORAGE.                                 (26D)
000689:
000690:    1165                        UPVERBSV           ERASE                                          #  B(1) UPDATE VERB ATTEMPTED.
000691:    1166                        UPTEMP             ERASE    +24D                                  #  B(1)TMP SCRATCH
000692:                                                                                                  #  RETAIN THE ORDER OF COMPNUMB THRU UPBUFF +19D FOR DOWNLINK PURPOSES.
000693:    1217     1167               COMPNUMB           EQUALS   UPTEMP     +1                         #  B(1)TMP NUMBER OF ITEMS TO BE UPLINKED
000694:    1217     1170               UPOLDMOD           EQUALS   COMPNUMB   +1                         #  B(1)TMP INTERRUPTED PROGRAM MM
000695:    1217     1171               UPVERB             EQUALS   UPOLDMOD   +1                         #  B(1)TMP VERB NUMBER
000696:    1217     1172               UPCOUNT            EQUALS   UPVERB     +1                         #  B(1)TMP UPBUFF INDEX
000697:    1217     1173               UPBUFF             EQUALS   UPCOUNT    +1                         #  B(20D)
000698:
000699:
000700:                                                                                                  #           TEMPORARY FOR RESTART PROTECTION IN SERVICER                   (2D)
000701:


000703:    1217     1173               DVTEMP             EQUALS   UPBUFF                                #  B(2) TEMP. SAVE DVTOTAL FOR RESTARTS.
000704:


000706:                                                                                                  #           SPECIAL DEFINITION FOR SYSTEM TEST ERASABLE PGMS.              (2D)
000707:
000708:    1217     1166               EBUF2              EQUALS   UPTEMP                                #  B(2) FOR EXCLUSIVE USE OF SYSTEM TEST
000709:
000710:
000711:                                                                                                  #           PERM STATE VECTORS FOR BOOST AND DOWNLINK-WHOLE MISSION-       (14D)
000712:
000713:    1217                        RN                 ERASE    +5                                    #  B(6)PRM
000714:    1225                        VN                 ERASE    +5                                    #  B(6)PRM
000715:    1233                        PIPTIME            ERASE    +1                                    #  B(2)PRM  (MUST BE FOLLOWED BY GDT/2)
000716:
000717:
000718:                                                                                                  #           SERVICER   -MUST FOLLOW PIPTIME-                               (18D)
000719:
000720:    1235                        G                  ERASE    +17D                                  #  B(6)PRM    MUST FOLLOW PIPTIME
000721:    1257     1243               PGUIDE             EQUALS   G          +6                         #  B(2)PRM    MUST FOLLOW G
000722:    1257     1245               MASS               EQUALS   PGUIDE     +2                         #  B(2)PRM    MUST FOLLOW PGUIDE
000723:    1257     1245               WEIGHT/G           =        MASS
000724:    1257     1247               ABDELV             EQUALS   MASS       +2                         #  (1)
000725:    1257     1250               ABDVACC            EQUALS   ABDELV     +1                         #  B(1)
000726:    1257     1251               DVTHRUSH           EQUALS   ABDVACC    +1                         #  B(1)
000727:    1257     1252               AVEGEXIT           EQUALS   DVTHRUSH   +1                         #   (2)
000728:    1257     1252               AVGEXIT            =        AVEGEXIT
000729:    1257     1254               PIPAXOLD           EQUALS   AVEGEXIT   +2                         #  B(1)
000730:    1257     1255               PIPAYOLD           EQUALS   PIPAXOLD   +1                         #  B(1)
000731:    1257     1256               PIPAZOLD           EQUALS   PIPAYOLD   +1                         #  B(1)
000732:
000733:
000734:
000735:                                                                                                  #           LUNAR SURFACE ALIGNMENT  R59                                   (5D)
000736:
000737:    1257     1235               CURSOR             EQUALS   GDT/2                                 #  B(1)TMP
000738:    1257     1236               SPIRAL             EQUALS   GDT/2      +1                         #  B(2)TMP
000739:    1257     1241               POSCODE            EQUALS   GDT/2      +4                         #  B(1)TMP
000740:
000741:
000742:                                                                                                  #           S34/35.5  TEMPORARY                                            (2D)
000743:
000744:    1257     1235               TMPDV              EQUALS   GDT/2                                 #  B(2) TEMP. SAVE FOR DVLVC.
000745:
000746:                                                                                                  #           USED FOR SUMMATION OF UPRUPT DURING PRELAUNCH & SYS TEST LEADIN(3D)
000747:
000748:    1257     1247               UPSUM              EQUALS   ABDELV                                #  (3)
000749:
000750:
000751:                                                                                                  #            P 76  DISPLAY     N84                                         (6D)
000752:
000753:    1257     1252               DELVOV             EQUALS   UPSUM      +3                         #  I(6)
000754:


000756:                                                                                                  #           PERMANENT LEM DAP STORAGE.                                     (6D)
000757:
000758:    1257                        CH5MASK            ERASE                                          #  B(1)PRM
000759:    1260                        CH6MASK            ERASE                                          #  B(1)PRM JET FAILURE MASK.
000760:    1261                        SPNDX              ERASE                                          #  B(1)
000761:    1262                        RCSFLAGS           ERASE                                          #  AUTOPILOT FLAG WORD
000762:                                                                                                  #  BIT ASSIGNMENTS:
000763:                                                                                                  #   1) ALTERYZ SWITCH (ZEROOR1)
000764:                                                                                                  #   2) NEEDLER SWITCH
000765:                                                                                                  #   3) NEEDLER SWITCH
000766:                                                                                                  #   4) NEEDLER SWITCH
000767:                                                                                                  #   5) NEEDLER SWITCH
000768:                                                                                                  #   9) JUST-IN-DETENT SWITCH
000769:                                                                                                  #  10) PBIT - MANUAL CONTROL SWITCH
000770:                                                                                                  #  11) QRBIT - MANUAL CONTROL SWITCH
000771:                                                                                                  #  12) PSKIP CONTROL (PJUMPADR)
000772:                                                                                                  #  13) 1/ACCJOB CONTROL (ACCSET)
000773:    1263                        T5ADR              ERASE    +1                                    #  GENADR OF NEXT LM DAP T5RUPT. * 2CADR *
000774:                                                                                                  #  BBCON  OF NEXT LM DAP T5RUPT.   2CADR
000775:
000776:
000777:                                                                                                  #           ERASABLES FOR RADAR READ PROTECTION (C13STALL)                 (4D)
000778:
000779:    1265                        C13QSAV            ERASE                                          #  B(1) QSAVE FOR C13STALL USERS.
000780:    1266                        C13FSAV            ERASE                                          #  B(1) FBANK SAVE FOR C13STALL.
000781:    1267                        RADTIME            ERASE                                          #  B(1) NEG. TIME OF SCALAR READ.
000782:    1270                        RADDEL             ERASE                                          #  B(1) DELTA TIME FROM SCALAR READ TO T5.
000783:
000784:
000785:                                                                                                  #           RADAREAD STORAGE                                               (2D)
000786:
000787:    1271                        TTOTIG             ERASE    +1                                    #  B(2) LATEST ESTIMATE OF TIME TO IGNITION
000788:
000789:
000790:                                                                                                  #           RCS FAILURE MONITOR STORAGE                                    (1)
000791:    1273                        PVALVEST           ERASE                                          #  B(1) PRM
000792:
000793:
000794:                                                                                                  #           KALCMANU/DAP INTERFACE.                                        (3D)
000795:
000796:    1274                        DELPEROR           ERASE                                          #  B(1)PRM COMMAND LAGS.
000797:    1275                        DELQEROR           ERASE                                          #  B(1)PRM
000798:    1276                        DELREROR           ERASE                                          #  B(1)PRM
000799:
000800:
000801:                                                                                                  #           MODE SWITCHING ERASABLE.                                       (9D)
000802:
000803:                                                                                                  #     RETAIN THE ORDER OF IMODES30 AND IMODES33 FOR DOWNLINK PURPOSES.
000804:    1277                        IMODES30           ERASE                                          #  B(1)
000805:    1300                        IMODES33           ERASE


000807:    1301                        MODECADR           ERASE    +2                                    #  B(3)PRM
000808:    1304     1301               IMUCADR            EQUALS   MODECADR
000809:    1304     1302               OPTCADR            EQUALS   MODECADR   +1
000810:    1304     1303               RADCADR            EQUALS   MODECADR   +2
000811:    1304                        ATTCADR            ERASE    +2                                    #  B(3)PRM
000812:    1307     1306               ATTPRIO            =        ATTCADR    +2
000813:    1307                        MARKSTAT           ERASE
000814:
000815:                                                                                                  #           T4RUPT ERASABLE.                                               (2D)
000816:
000817:    1310                        DSRUPTSW           ERASE
000818:    1311                        LGYRO              ERASE                                          #  (1)
000819:
000820:                                                                                                  #           RENDEZVOUS RADAR TASK STORAGE                                  (3D)
000821:
000822:    1312                        RRRET              ERASE    +2D                                   #  B(1)TMP  P20'S, PERHAPS R29 & R12
000823:    1315     1313               RDES               EQUALS   RRRET      +1                         #  B(1)TMP
000824:    1315     1314               RRINDEX            EQUALS   RDES       +1                         #  B(1)TMP
000825:
000826:
000827:
000828:                                                                                                  #  MEASUREMENT INCORPORATION                                               (4D)
000829:
000830:    1315                        WIXA               ERASE                                          #  B(1)
000831:    1316                        WIXB               ERASE                                          #  B(1)
000832:    1317                        ZIXA               ERASE                                          #  B(1)
000833:    1320                        ZIXB               ERASE                                          #  B(1)
000834:
000835:                                                                                                  #           LANDING RADAR PADLOAD                                          (1D)
000836:


000838:    1321     1315               LRWH1              EQUALS   WIXA                                  #  B(1) P.L. P64 LR WEIGHTING FUNCTION
000839:
000840:
000841:                                                                                                  #           AGS DOWNLINK ID CODE FOR RESTART PURPOSES                      (1D)
000842:
000843:    1321                        AGSWORD            ERASE
000844:
000845:
000846:                                                                                                  #           SOME MISCELLANEOUS UNSWITCHED.                                 (6D)
000847:
000848:    1322                        RATEINDX           ERASE                                          #   (1)    USED BY KALCMANU
000849:    1323                        DELAYLOC           ERASE    +2
000850:    1326                        LEMMASS            ERASE                                          #  KEEP CONTIGUOUS W.  CSMMASS  (1) EACH
000851:    1327                        CSMMASS            ERASE
000852:                                                                                                  #  LESS IS MORE.
000853:
000854:                                                                                                  #           RENDEZVOUS AND LANDING RADAR DOWNLINK STORAGE.                 (7D)
000855:
000856:                                                                                                  #                  (NORMALLY USED DURING P20, BUT MAY ALSO)
000857:                                                                                                  #                  (BE REQUIRED FOR THE V62 SPURIOUS TEST.)


000859:                                                                                                  #                     (PLEASE KEEP IN THIS ORDER)
000860:
000861:    1330                        DNRRANGE           ERASE    +6                                    #  B(1) TMP
000862:    1337     1331               DNRRDOT            EQUALS   DNRRANGE   +1                         #  B(1)TMP
000863:    1337     1332               DNINDEX            EQUALS   DNRRDOT    +1                         #  B(1)TMP
000864:    1337     1333               DNLRVELX           EQUALS   DNINDEX    +1                         #  B(1)TMP
000865:    1337     1334               DNLRVELY           EQUALS   DNLRVELX   +1                         #  B(1)TMP
000866:    1337     1335               DNLRVELZ           EQUALS   DNLRVELY   +1                         #  B(1)TMP
000867:    1337     1336               DNLRALT            EQUALS   DNLRVELZ   +1                         #  B(1) TMP
000868:
000869:                                                                                                  #           RADAR -- RR AND LR                                             (1D)
000870:
000871:    1337     1332               RADBITS            EQUALS   DNINDEX                               #  B(1)PRM   SHOWS TYPE OF RADAR READ
000872:
000873:
000874:                                                                                                  #           INCORPORATION UNSWITCHED.                                      (1D)
000875:
000876:    1337     0130               W.IND              EQUALS   BUF
000877:
000878:
000879:
000880:                                                                                                  #           SUBROUTINE BALLANGS OF R60.                                    (1D)
000881:
000882:    1337                        BALLEXIT           ERASE                                          #  B(1)SAVE LOCATION FOR BALLINGS SUBR EXIT
000883:
000884:
000885:                                                                                                  #           SOME LEM DAP STORAGE.                                          (4D)
000886:
000887:    1340                        DAPDATR1           ERASE                                          #  B(1)DSP  DAP CONFIG.
000888:    1341                        TEVENT             ERASE    +1                                    #  B(2)DSP
000889:    1343                        DB                 ERASE                                          #  B(1)TMP  DEAD BAND.
000890:    1344     1343               DBVAL1             =        DB                                    #  B(1)TMP
000891:
000892:
000893:
000894:                                                                                                  #      NOUN 87 USED IN R52 AUTO OPTICS                                     (2D)
000895:
000896:    1344                        AZ                 ERASE    +1D                                   #  B(1)  AZ AND EL MUST BE CONTIGUOUS
000897:    1346     1345               EL                 EQUALS   AZ         +1D                        #  B(1)
000898:
000899:
000900:                                                                                                  #           P63, P64, P65, P66, AND P67.                                   (1D)
000901:    1346                        WCHPHASE           ERASE                                          #  B(1)
000902:
000903:
000904:                                                                                                  #           PADLOADS FOR R2 LUNAR POTENTIAL MODEL.                         (2D)
000905:
000906:    1347                        E3J22R2M           ERASE                                          #  I(1)
000907:    1350                        E32C31RM           ERASE                                          #  I(1)
000908:
000909:


000911:
000912:
000913:                                                                                                  #           ERASABLES FOR TRUNNION AND SHAFT COMMANDS                      (2D)
000914:
000915:    1351                        TRUNNCMD           ERASE                                          #  *** THESE TWO ERASABLES ***
000916:    1352                        SHAFTCMD           ERASE                                          #  *** MUST BE IN ORDER ***
000917:
000918:
000919:                                                                                                  #           R22 OF P20                                                     (1D)
000920:    1353                        WHCHREAD           ERASE                                          #  B(1)TMP MEASUREMENT BEING PROCESSED.
000921:
000922:
000923:                                                                                                  #           LANDING PADLOAD                                                (1D)
000924:
000925:    1354     1353               ELBIAS             EQUALS   WHCHREAD                              #  B(1) PL LPD ELEVATION BIAS,  PI RADIANS.
000926:
000927:    1354                        TOOFEW             ERASE                                          #  B(1) TOO FEW THROTTLINGS PER OMISSION:
000928:                                                                                                  #   ONE LESS THAN NO. THROTTLES REQUIRED
000929:                                                                                                  #    BETWEEN SKIPPED THROTTLES
000930:                                                                                                  #     1466 ALARM IF THROTTLINGS <= TOOFEW
000931:                                                                                                  #           TLOSS INDICATORS FOR DOWNLINK                                  (2D)
000932:
000933:    1355                        SERVDURN           ERASE                                          #  B(1)  AT SERVOUT: TIME1 - PIPTIME +1
000934:    1356                        DUMLOOPS           ERASE                                          #  B(1)  LOOP COUNTER IN DUMMYJOB AT ADVAN
000935:
000936:
000937:                                                                                                  #          SELF-CHECK ASSIGNMENTS.                                         (17D)
000938:
000939:                                                                                                  #                                 (DO NOT MOVE, S-C IS ADDRESS SENSITIVE)
000940:
000941:    1357                        SELFERAS           ERASE    1357       -          1377            #  *** MUST NOT BE MOVED ***
000942:    1357     1357               SFAIL              EQUALS   SELFERAS                              #  B(1)
000943:    1357     1360               ERESTORE           EQUALS   SFAIL      +1                         #  B(1)
000944:    1357     1361               SELFRET            EQUALS   ERESTORE   +1                         #  B(1)    RETURN
000945:    1357     1362               SMODE              EQUALS   SELFRET    +1                         #  B(1)
000946:    1357     1363               ALMCADR            EQUALS   SMODE      +1                         #  B(2)   ALARM-ABORT USER'S 2CADR
000947:    1357     1365               ERCOUNT            EQUALS   ALMCADR    +2                         #  B(1)
000948:    1357     1366               SCOUNT             EQUALS   ERCOUNT    +1                         #  B(3)
000949:    1357     1371               SKEEP1             EQUALS   SCOUNT     +3                         #  B(1)
000950:    1357     1372               SKEEP2             EQUALS   SKEEP1     +1                         #  B(1)
000951:    1357     1373               SKEEP3             EQUALS   SKEEP2     +1                         #  B(1)
000952:    1357     1374               SKEEP4             EQUALS   SKEEP3     +1                         #  B(1)
000953:    1357     1375               SKEEP5             EQUALS   SKEEP4     +1                         #  B(1)
000954:    1357     1376               SKEEP6             EQUALS   SKEEP5     +1                         #  B(1)
000955:    1357     1377               SKEEP7             EQUALS   SKEEP6     +1                         #  B(1)
000956:


000958:                                                                                                  #                  EBANK-3 ASSIGNMENTS
000959:
000960: E3,1400                                           SETLOC   1400
000961:
000962:                                                                                                  #           WAITLIST TASK LISTS.                                           (26D)
000963:
000964: E3,1400                        LST1               ERASE    +7                                    #  B(8D)PRM  DELTA T S.
000965: E3,1410                        LST2               ERASE    +17D                                  #  B(18D)PRM TASK 2CADR ADDRESSES.
000966:
000967:
000968:                                                                                                  #           RESTART STORAGE.                                               (2D)
000969:
000970: E3,1432                        RSBBQ              ERASE    +1                                    #  B(2)PRM SAVE BB AND Q FOR RESTARTS.
000971:
000972:
000973:                                                                                                  #           MORE LONGCALL STORAGE.(MUST BE IN LST1 S BANK.                 (2D)
000974:
000975: E3,1434                        LONGEXIT           ERASE    +1                                    #  B(2)TMP MAY BE SELDOM OVERLAYED.
000976:
000977:
000978:                                                                                                  #           PHASE-CHANGE LISTS PART II.                                    (12D)
000979:
000980: E3,1436                        PHSNAME1           ERASE                                          #  B(1)PRM
000981: E3,1437                        PHSBB1             ERASE                                          #  B(1)PRM
000982: E3,1440                        PHSNAME2           ERASE                                          #  B(1)PRM
000983: E3,1441                        PHSBB2             ERASE                                          #  B(1)PRM
000984: E3,1442                        PHSNAME3           ERASE                                          #  B(1)PRM
000985: E3,1443                        PHSBB3             ERASE                                          #  B(1)PRM
000986: E3,1444                        PHSNAME4           ERASE                                          #  B(1)PRM
000987: E3,1445                        PHSBB4             ERASE                                          #  B(1)PRM
000988: E3,1446                        PHSNAME5           ERASE                                          #  B(1)PRM
000989: E3,1447                        PHSBB5             ERASE                                          #  B(1)PRM
000990: E3,1450                        PHSNAME6           ERASE                                          #  B(1)PRM
000991: E3,1451                        PHSBB6             ERASE                                          #  B(1)PRM
000992:
000993:
000994:                                                                                                  #           IMU COMPENSATION PARAMETERS.                                   (22D)
000995:
000996: E3,1452                        PBIASX             ERASE                                          #  B(1)   PIPA BIAS, PIPA SCALE FACTR TERMS
000997: E3,1453  E3,1452               PIPABIAS           =        PBIASX                                #      INTERMIXED.
000998: E3,1453                        PIPASCFX           ERASE
000999: E3,1454  E3,1453               PIPASCF            =        PIPASCFX
001000: E3,1454                        PBIASY             ERASE
001001: E3,1455                        PIPASCFY           ERASE
001002: E3,1456                        PBIASZ             ERASE
001003: E3,1457                        PIPASCFZ           ERASE
001004:
001005: E3,1460                        NBDX               ERASE                                          #  GYRO BIAS DRIFTS
001006: E3,1461                        NBDY               ERASE
001007: E3,1462                        NBDZ               ERASE
001008:


001010: E3,1463                        ADIAX              ERASE                                          #  ACCELERATION SENSITIVE DRIFT ALONG THE
001011: E3,1464                        ADIAY              ERASE                                          #      INPUT AXIS
001012: E3,1465                        ADIAZ              ERASE
001013:
001014: E3,1466                        ADSRAX             ERASE                                          #  ACCELERATION SENSITIVE DRIFT ALONG THE
001015: E3,1467                        ADSRAY             ERASE                                          #      SPIN REFERENCE AXIS
001016: E3,1470                        ADSRAZ             ERASE
001017:
001018: E3,1471                        GCOMP              ERASE    +5                                    #  CONTAINS COMPENSATING TORQUES
001019:
001020: E3,1477  E3,1471               COMMAND            EQUALS   GCOMP
001021: E3,1477  E3,1474               CDUIND             EQUALS   GCOMP      +3
001022:
001023:
001024: E3,1477                        GCOMPSW            ERASE
001025:
001026:
001027:
001028:                                                                                                  #           STATE VECTORS FOR ORBIT INTEGRATION.                           (44D)
001029:
001030:                                                                                                  #                                  (DIFEQCNT THRU XKEP MUST BE IN SAME
001031:                                                                                                  #                                    EBANK AS RRECTCSM, RRECTLEM ETC
001032:                                                                                                  #                                    BECAUSE THE COPY-CYCLES (ATOPCSM,
001033:                                                                                                  #                                    PTOACSM ETC) ARE EXECUTED IN BASIC.
001034:                                                                                                  #                                      ALL OTHER REFERENCES TO THIS GROUP
001035:                                                                                                  #                                    ARE BY INTERPRETIVE INSTRUCTIONS.)
001036:
001037:
001038: E3,1500                        DIFEQCNT           ERASE    +43D                                  #  B(1)
001039:                                                                                                  #                                  (UPSVFLAG...XKEP MUST BE KEPT IN ORDER)
001040:
001041: E3,1554  E3,1501               UPSVFLAG           EQUALS   DIFEQCNT   +1                         #  B(1)
001042: E3,1554  E3,1502               RRECT              EQUALS   UPSVFLAG   +1                         #  B(6)
001043: E3,1554  E3,1510               VRECT              EQUALS   RRECT      +6                         #  B(6)
001044: E3,1554  E3,1516               TET                EQUALS   VRECT      +6                         #  B(2)
001045: E3,1554  E3,1520               TDELTAV            EQUALS   TET        +2                         #  B(6)
001046: E3,1554  E3,1526               TNUV               EQUALS   TDELTAV    +6                         #  B(6)
001047: E3,1554  E3,1534               RCV                EQUALS   TNUV       +6                         #  B(6)
001048: E3,1554  E3,1542               VCV                EQUALS   RCV        +6                         #  B(6)
001049: E3,1554  E3,1550               TC                 EQUALS   VCV        +6                         #  B(2)
001050: E3,1554  E3,1552               XKEP               EQUALS   TC         +2                         #  B(2)
001051:
001052:                                                                                                  #           CONIC ROUTINES STORAGE                                         (2D)
001053:
001054: E3,1554  E3,1552               XPREV              EQUALS   XKEP                                  #  I(2)TMP
001055:
001056:
001057:                                                                                                  #           PERMANENT STATE VECTORS AND TIMES.                             (97D)
001058:
001059:                                                                                                  #           (DO NOT OVERLAY WITH ANYTHING AFTER BOOST)
001060:


001062:                                                                                                  #           (RRECTCSM ...XKEPCSM MUST BE KEPT IN THIS ORDER)
001063:
001064: E3,1554                        RRECTCSM           ERASE    +5                                    #  B(6)PRM CSM VARIABLES.
001065: E3,1562  E3,1554               RRECTOTH           =        RRECTCSM
001066: E3,1562                        VRECTCSM           ERASE    +5                                    #  B(6)PRM
001067: E3,1570                        TETCSM             ERASE    +1                                    #  B(2)PRM
001068: E3,1572  E3,1570               TETOTHER           =        TETCSM
001069: E3,1572                        DELTACSM           ERASE    +5                                    #  B(6)PRM
001070: E3,1600                        NUVCSM             ERASE    +5                                    #  B(6)PRM
001071: E3,1606                        RCVCSM             ERASE    +5                                    #  B(6)PRM
001072: E3,1614                        VCVCSM             ERASE    +5                                    #  B(6)PRM
001073: E3,1622                        TCCSM              ERASE    +1                                    #  B(2)PRM
001074: E3,1624                        XKEPCSM            ERASE    +1                                    #  B(2)PRM
001075:
001076:                                                                                                  #           (RRECTLEM ...XKEPLEM MUST BE KEPT IN THIS ORDER)
001077:
001078: E3,1626                        RRECTLEM           ERASE    +5                                    #  B(6)PRM LEM VARIABLES
001079: E3,1634  E3,1626               RRECTHIS           =        RRECTLEM
001080: E3,1634                        VRECTLEM           ERASE    +5                                    #  B(6)PRM
001081: E3,1642                        TETLEM             ERASE    +1                                    #  B(2)PRM
001082: E3,1644  E3,1642               TETTHIS            =        TETLEM
001083: E3,1644                        DELTALEM           ERASE    +5                                    #  B(6)PRM
001084: E3,1652                        NUVLEM             ERASE    +5                                    #  B(6)PRM
001085: E3,1660                        RCVLEM             ERASE    +5                                    #  B(6)PRM
001086: E3,1666                        VCVLEM             ERASE    +5                                    #  B(6)PRM
001087: E3,1674                        TCLEM              ERASE    +1                                    #  B(2)PRM
001088: E3,1676                        XKEPLEM            ERASE    +1                                    #  B(2)PRM
001089:
001090: E3,1700                        X789               ERASE    +5
001091: E3,1706                        TEPHEM             ERASE    +2
001092: E3,1711                        -AYO               ERASE    +1
001093: E3,1713                        AXO                ERASE    +1
001094:
001095:
001096:
001097:                                                                                                  #           STATE VECTORS FOR DOWNLINK.                                    (12D)
001098:
001099: E3,1715                        R-OTHER            ERASE    +5                                    #  B(6)PRM POS VECT (OTHER VECH) FOR DNLINK
001100: E3,1723                        V-OTHER            ERASE    +5                                    #  B(6)PRM VEL VECT (OTHER VECH) FOR DNLINK
001101:
001102: E3,1731  E3,1570               T-OTHER            =        TETCSM                                #              TIME (OTHER VECH) FOR DNLINK
001103:
001104:
001105:                                                                                                  #           SERVICER FOR LUNAR ASCENT AND DESCENT                          (12D)
001106:
001107: E3,1731  E3,1715               R(CSM)             EQUALS   R-OTHER                               #  I(6)  FOR UPDATE OF CM STATE VECS BY LM.
001108: E3,1731  E3,1723               V(CSM)             EQUALS   V-OTHER                               #  I(6)
001109:
001110:
001111:                                                                                                  #           REFSMMAT.                                                      (18D)
001112:


001114: E3,1731                        REFSMMAT           ERASE    +17D                                  #  I(18D)PRM
001115:
001116:
001117:                                                                                                  #           ACTIVE VEHICLE CENTANG.  MUST BE DISPLAYED ANYTIME (ALMOST.)   (2D)
001118:
001119: E3,1753                        ACTCENT            ERASE    +1                                    #  I(2) S-S CENTRAL ANGLE BETWEEN ACTIVE
001120:                                                                                                  #   VEHICLE AT TPI TIG AND TARGET VECTOR.
001121:
001122:                                                                                                  #        **** USED IN CONICSEX (PLAN INERT ORIENT) ****
001123:
001124: E3,1755  E3,1706               TIMSUBO            EQUALS   TEPHEM                                #  CSEC B-42 (TRIPLE PRECISION)
001125:
001126:
001127:                                                                                                  #           LPS20.1 STORAGE    -ALL ARE PRM-                               (9D)
001128:
001129: E3,1755                        LS21X              ERASE                                          #  I(1)
001130: E3,1756                        LOSVEL             ERASE    +5                                    #  I(6)
001131: E3,1764                        MLOSV              ERASE    +1                                    #  I(2) MAGNITUDE OF LOS, METERS B-29
001132:
001133:
001134:                                                                                                  #       ***** P22  *****  (OVERLAYS LPS 20.1 STORAGE)                      (6D)
001135: E3,1766  E3,1756               VSUBC              EQUALS   LOSVEL                                #  I(6)S-S  CSM VELOCITY VECTOR
001136:
001137:
001138:                                                                                                  #           PADLOADED ERASABLES FOR P20/P22                                (6D)
001139:
001140: E3,1766                        RANGEVAR           ERASE    +1                                    #  I(2) RR RANGE ERROR VARIANCE
001141: E3,1770                        RATEVAR            ERASE    +1                                    #  I(2) RR RANGE-RATE ERROR VARIANCE
001142: E3,1772                        RVARMIN            ERASE                                          #  I(1) MINIMUM RANGE ERROR VARIANCE
001143: E3,1773                        VVARMIN            ERASE                                          #  I(1) MINIMUM RANGE-RATE ERROR VARIANCE
001144:
001145:
001146:                                                                                                  #           P32-P33 STORAGE                                                (2D)
001147:
001148: E3,1774                        TCDH               ERASE    +1                                    #  I(2) T2 CDH TIME IN CS. (ALSO DOWNLINKED
001149:                                                                                                  #                                                                          (2D)
001150:
001151:
001152:
Warning:  May overflow memory bank.
001153: E3,1776                        ERASFIL1           ERASE    +1                                    #  2 SPARES
001154:


001156:                                                                                                  #                  EBANK-4 ASSIGNMENTS
001157:
001158: E4,1400                                           SETLOC   2000
001159:
001160:
001161:                                                                                                  #  E4 IS, FOR THE MOST PART RESERVED FOR PAD LOADED AND UNSHARABLE ERASE.
001162:
001163:                                                                                                  #           P20 STORAGE. -PAD LOADED-                                      (6D)
001164:
001165: E4,1400                        WRENDPOS           ERASE                                          #  B(1)PL                            KM*2(-7)
001166: E4,1401                        WRENDVEL           ERASE                                          #  B(1)PL                      KM(-1/2)*2(11)
001167: E4,1402                        WSHAFT             ERASE                                          #  B(1)PL                            KM*2(-7)
001168: E4,1403                        WTRUN              ERASE                                          #  B(1)PL                            KM*2(-7)
001169: E4,1404                        RMAX               ERASE                                          #  B(1)PL                       METERS*2(-19)
001170: E4,1405                        VMAX               ERASE                                          #  B(1)PL                        M/CSEC*2(-7)
001171:
001172:
001173:                                                                                                  #           LUNAR SURFACE NAVIGATION -- PAD LOADED --                      (2D)
001174:
001175: E4,1406                        WSURFPOS           ERASE                                          #  B(1)PL
001176: E4,1407                        WSURFVEL           ERASE                                          #  B(1)PL
001177:
001178:
001179:                                                                                                  #           P22 STORAGE. -PAD LOADED-                                      (2D)
001180:
001181: E4,1410                        SHAFTVAR           ERASE                                          #  B(1)PL                        RAD SQ*2(12)
001182: E4,1411                        TRUNVAR            ERASE                                          #  B(1)PL                        RAD SQ*2(10)
001183:
001184:
001185:                                                                                                  #           CONISEX STORAGE.-PAD LOADED-                                   (6D)
001186:
001187: E4,1412                        504LM              ERASE    +5                                    #  I(6)MOON LIBRATION VECTOR
001188:
001189:
001190:                                                                                                  #  STORAGE FOR RLS AND TLAND - PAD LOADS - ORDER IS RETAINED FOR UPLINK.   (8D)
001191:
001192: E4,1420                        RLS                ERASE    +5                                    #  I(6) LANDING SITE VECTOR - MOON REF.
001193: E4,1426                        TLAND              ERASE    +1                                    #  B(2) NOMINAL LANDING TIME.
001194:
001195:                                                                                                  #           INTEGRATION STORAGE.                                           (94D)
001196:
001197: E4,1430                        PBODY              ERASE    +93D                                  #  I(1)
001198: E4,1566  E4,1431               ALPHAV             EQUALS   PBODY      +1                         #  I(6)
001199: E4,1566  E4,1437               BETAV              EQUALS   ALPHAV     +6                         #  I(6)
001200: E4,1566  E4,1445               PHIV               EQUALS   BETAV      +6                         #  I(6)
001201: E4,1566  E4,1453               PSIV               EQUALS   PHIV       +6                         #  I(6)
001202: E4,1566  E4,1461               FV                 EQUALS   PSIV       +6                         #  I(6)    PERTURBING ACCELERATIONS
001203: E4,1566  E4,1467               ALPHAM             EQUALS   FV         +6                         #  I(2)
001204: E4,1566  E4,1471               BETAM              EQUALS   ALPHAM     +2                         #  I(2)
001205: E4,1566  E4,1473               TAU.               EQUALS   BETAM      +2                         #  I(2)
001206:


001208: E4,1566  E4,1475               DT/2               EQUALS   TAU.       +2                         #  I(2)
001209: E4,1566  E4,1477               H                  EQUALS   DT/2       +2                         #  I(2)
001210: E4,1566  E4,1501               IRETURN            EQUALS   H          +2                         #  I(1)
001211: E4,1566  E4,1502               NORMGAM            EQUALS   IRETURN    +1                         #  I(1)
001212: E4,1566  E4,1503               RPQV               EQUALS   NORMGAM    +1
001213: E4,1566  E4,1511               ORIGEX             EQUALS   RPQV       +6                         #  I(1)
001214: E4,1566  E4,1511               KEPRTN             EQUALS   ORIGEX                                #  I(1)
001215: E4,1566  E4,1512               RPSV               EQUALS   ORIGEX     +1                         #  I(6)
001216: E4,1566  E4,1520               XKEPNEW            EQUALS   RPSV       +6                         #  I(2)
001217: E4,1566  E4,1522               VECTAB             EQUALS   XKEPNEW    +2                         #  I(36D)
001218:
001219:
001220:
001221:                                                                                                  #           R04 - R77 FAIL COUNTER                                         (1D)
001222:
001223: E4,1566                        RFAILCNT           ERASE                                          #  B(1)
001224:
001225:
001226:                                                                                                  #           SERVICER STORAGE  (USED BY ALL POWERED FLIGHT PROGS.)          (18D)
001227:
001228: E4,1567  E4,1536               XNBPIP             EQUALS   VECTAB     +12D                       #  I(6)
001229: E4,1567  E4,1544               YNBPIP             EQUALS   XNBPIP     +6                         #  I(6)
001230: E4,1567  E4,1552               ZNBPIP             EQUALS   YNBPIP     +6                         #  I(6)
001231:
001232:
001233:                                                                                                  #           SOME VERB 82 STORAGE                                           (4D)
001234:
001235: E4,1567  E4,1512               HAPOX              EQUALS   RPSV                                  #  I(2)
001236: E4,1567  E4,1514               HPERX              EQUALS   HAPOX      +2                         #  I(2)
001237:
001238:
001239:                                                                                                  #           V82 STORAGE                                                    (6D)
001240:
001241: E4,1567  E4,1560               VONE'              EQUALS   VECTAB     +30D                       #  I(6)TMP  NORMAL VELOCITY VONE /SQRT. MU
001242:
001243:
001244:                                                                                                  #          R31 (V83) STORAGE. -SHARES WITH INTEGRATION STORAGE-            (26D)
001245:
001246: E4,1567  E4,1503               BASETHV            EQUALS   RPQV                                  #  I(6)     BASE VEL VECTOR THIS VEH
001247:
001248:
001249: E4,1567  E4,1512               BASETIME           EQUALS   RPSV                                  #  I(2)   TIME ASSOC WITH BASE VECTORS
001250: E4,1567  E4,1571               BASEOTV            EQUALS   YLEM                                  #  I(6)    BASE VELOC VECTOR OTHER VEH
001251:
001252:
001253: E4,1567  E4,1530               BASEOTP            EQUALS   VECTAB     +6                         #  I(6)     BASE POS VECTOR OTHER VEH
001254:
001255:
001256: E4,1567  E4,1560               BASETHP            EQUALS   VECTAB     +30D                       #  I(6)     BASE POS VECTOR THIS VEH
001257:
001258:


001260:                                                                                                  #           KEPLER STORAGE. (KEPLER IS CALLED BY PRECISION INTEGRATION AND (2D)
001261:                                                                                                  #           CONICS)
001262:
001263: E4,1567                        EPSILONT           ERASE    +1                                    #  I(2)
001264:
001265:
001266:                                                                                                  #           R36 STORAGE  (N90)                                             (6D)
001267:
001268: E4,1571                        YLEM               ERASE    +5                                    #  I(2)
001269: E4,1577  E4,1573               YDOTLEM            EQUALS   YLEM       +2                         #  I(2)
001270: E4,1577  E4,1575               PHILEM             EQUALS   YDOTLEM    +2                         #  I(2)
001271:
001272:
001273:                                                                                                  #           VERB 83 STORAGE.                                               (18D)
001274:
001275: E4,1577                        RONE               ERASE    +17D                                  #  I(6)
001276: E4,1621  E4,1605               VONE               EQUALS   RONE       +6                         #  I(6)TMP VECTOR STORAGE.  (SCRATCH)
001277:
001278:
001279: E4,1621  E4,1613               RANGE              EQUALS   VONE       +6                         #  I(2)
001280: E4,1621  E4,1615               RRATE              EQUALS   RANGE      +2                         #  I(2)
001281: E4,1621  E4,1617               RTHETA             EQUALS   RRATE      +2                         #  I(2)
001282:
001283:
001284:                                                                                                  #           VERB 67 STORAGE                                                (6D)
001285:
001286: E4,1621  E4,1571               WWPOS              EQUALS   YLEM                                  #  B(2)   NOUN 99  (V67)
001287: E4,1621  E4,1573               WWVEL              EQUALS   WWPOS      +2                         #  B(2)   NOUN 99  (V67)
001288: E4,1621  E4,1575               WWBIAS             EQUALS   WWVEL      +2                         #  B(2)   NOUN 99  (V67)
001289:
001290:
001291:
001292:
001293:                                                                                                  #           V82 STORAGE. (CANNOT OVERLAY RONE OR VONE)                     (5D)
001294:
001295: E4,1621  E4,1530               V82FLAGS           EQUALS   VECTAB     +6                         #   (1) FOR V82 BITS.
001296: E4,1621  E4,1531               TFF                EQUALS   V82FLAGS   +1                         #  I(2)
001297: E4,1621  E4,1533               -TPER              EQUALS   TFF        +2                         #  I(2)
001298:
001299:
001300:                                                                                                  #           MORE V82 STORAGE.  (CANNOT OVERLAY RONE OR VONE)               (6D)
001301:
001302: E4,1621  E4,1571               HPERMIN            EQUALS   YLEM                                  #  I(2)   SET TO 300K FT OR 35K FT SR30.1
001303: E4,1621  E4,1573               RPADTEM            EQUALS   HPERMIN    +2                         #  I(2) PAD OR LANDING RADIUS FOR SR30.1
001304: E4,1621  E4,1575               TSTART82           EQUALS   RPADTEM    +2                         #  I(2) TEMP TIME STORAGE FOR V82.
001305:
001306:
001307:
001308:                                                                                                  #           ALIGNMENT PLANETARY-INERTIAL TRANSFORMATION STORAGE.           (18D)
001309:


001311:                                                                                                  #                  UNSHARED WHILE LM ON LUNAR SURFACE.
001312:
001313: E4,1621                        GSAV               ERASE    +17D                                  #  I(6)
001314: E4,1643  E4,1627               YNBSAV             EQUALS   GSAV       +6                         #  I(6)
001315: E4,1643  E4,1635               ZNBSAV             EQUALS   YNBSAV     +6                         #  I(6)
001316:
001317:
001318:
001319:                                                                                                  #           KALCMANU STORAGE. CAN OVERLAY GSAV.                            (18D)
001320:
001321: E4,1643  E4,1621               MFS                EQUALS   GSAV                                  #  I(18)
001322: E4,1643  E4,1621               MFI                EQUALS   MFS                                   #  I
001323: E4,1643  E4,1621               KEL                EQUALS   MFS                                   #  I(18)
001324:
001325:                                                                                                  #           CAN OVERLAY GSAV WITH CARE, USED DURING POWERED DESCENT ONLY.
001326:
001327: E4,1643  E4,1621               XNBRAD             =        GSAV                                  #  B(18D)   BODY-PLATFORM MATRIX AT LRTIME
001328: E4,1643  E4,1643               LRTIME             =        XNBRAD     +22                        #  B(2)     LR    CENTER-POINT OF LR READ
001329: E4,1643  E4,1645               LRXCDU             =        LRTIME     +2                         #  B(1)     LR
001330: E4,1643  E4,1646               LRYCDU             =        LRXCDU     +1                         #  B(1)     LR
001331: E4,1643  E4,1647               LRZCDU             =        LRYCDU     +1                         #  B(1)     LR
001332: E4,1643  E4,1650               PIPTEM             =        LRZCDU     +1                         #  B(3)    LR
001333:
001334:
001335:
001336:                                                                                                  #           P32-P35, P72-P75 STORAGE.                                      (40D)
001337:
001338: E4,1643                        T1TOT2             ERASE    +1                                    #   (2)     TIME FROM CSI TO CDH
001339: E4,1645                        T2TOT3             ERASE    +1                                    #   (2)
001340: E4,1647                        ELEV               ERASE    +1                                    #   (2)
001341: E4,1651                        UP1                ERASE    +5                                    #   (6)
001342: E4,1657                        DELVEET1           ERASE    +5                                    #  I(6)     DV CSI IN REF
001343: E4,1665                        DELVEET2           ERASE    +5                                    #  I(6)     DV CSH IN REF
001344: E4,1673                        RACT1              ERASE    +5                                    #   (6)     POS VEC OF ACTIVE AT CSI TIME
001345: E4,1701                        RACT2              ERASE    +5                                    #   (6)     POS VEC OF ACTIVE AT CDH TIME
001346: E4,1707                        RTSR1/MU           ERASE    +1                                    #   (2)     SQ ROOT 1/MU STORAGE
001347: E4,1711                        RTMU               ERASE    +1                                    #   (2)     MU STORAGE
001348:
001349:
001350:
001351:                                                                                                  #          (THE FOLLOWING ERASABLES OVERLAY PORTIONS OF THE PREVIOUS SECTION)
001352:
001353: E4,1713  E4,1643               +MGA               EQUALS   T1TOT2                                #   (2) S-S + MID GIM ANGL TO DELVEET3
001354:
001355:
001356: E4,1713  E4,1651               UNRM               EQUALS   UP1                                   #  I(6) S-S
001357:
001358:
001359: E4,1713  E4,1673               DVLOS              EQUALS   RACT1                                 #  I(6) S-S DELTA VELOCITY,LOS COORD-DISPLA
001360: E4,1713  E4,1701               ULOS               EQUALS   RACT2                                 #  I(6) S-S UNIT LINE OF SIGHT VECTOR


001362:
001363:
001364: E4,1713  E4,1707               NOMTPI             EQUALS   RTSR1/MU                              #   (2) S-S NOMINAL TPI TIME FOR RECYCLE
001365:
001366:
001367:                                                                                                  #           SOME P30 STORAGE.                                              (4D)
001368:
001369: E4,1713  E4,1707               HAPO               EQUALS   RTSR1/MU                              #  I(2)
001370: E4,1713  E4,1711               HPER               EQUALS   HAPO       +2                         #  I(2)
001371:
001372:
001373:
001374:                                                                                                  #           THE FOLLOWING ARE ERASABLE LOADS DURING A PERFORMANCE TEST.
001375:
001376: E4,1713  E4,1400               TRANSM1            EQUALS   WRENDPOS                              #  E4, 1400
001377: E4,1713  E4,1422               ALFDK              EQUALS   TRANSM1    +18D
001378:
001379:
001380:                                                                                                  #  ******* THE FOLLOWING SECTIONS OVERLAY V83 AND DISPLAY STORAGE *******
001381:
001382:
001383:                                                                                                  #           V47(R47)AGS INITIALIZATION PROGRAM STORAGE. (OVERLAYS V83)     (14D)
001384:
001385: E4,1713  E4,1571               AGSBUFF            EQUALS   YLEM                                  #  B(14)
001386: E4,1713  E4,1606               AGSBUFFE           EQUALS   AGSBUFF    +13D                       #  ENDMARK
001387:
001388:
001389:                                                                                                  #           R36 OUT-OF-PLANE RENDEZVOUS DISPLAY STORAGE. (OVERLAYS V83)    (12D)
001390:
001391: E4,1713  E4,1577               RPASS36            EQUALS   RONE                                  #  I(6) S-S
001392: E4,1713  E4,1605               UNP36              EQUALS   RPASS36    +6                         #  I(6) S-S
001393:
001394:
001395:                                                                                                  #           S-BAND ANTENNA GIMBAL ANGLES. DISPLAYED BY R05(V64).(OVERLAYS V83)  (10D)
001396:
001397:
001398: E4,1713  E4,1571               ALPHASB            EQUALS   YLEM                                  #  B(2)   DSP NOUN 51 PITCH ANGLE
001399: E4,1713  E4,1573               BETASB             EQUALS   ALPHASB    +2                         #  B(2) DSP NOUN 51. YAW ANGLE.
001400: E4,1713  E4,1575               RLM                EQUALS   BETASB     +2                         #  I(6) S    S/C POSITION VECTOR.
001401:
001402:                                                                                                  #           **** USED IN S-BAND ANTENNA FOR LM ****                        (4D)
001403:
001404: E4,1713  E4,1571               PITCHANG           EQUALS   ALPHASB                               #  I(2) PITCH/ANTENNA GIMBAL ANGLE REQUIRED
001405: E4,1713  E4,1573               YAWANG             EQUALS   BETASB                                #  I(2) YAW  /TO POINT LM STEERABLE ANTENNA
001406:                                                                                                  #            /TOWARD CENTER OF EARTH
001407:                                                                                                  #  NOUN 56 DATA - COMPUTED AND DISPLAYED BY VERB 85.                       (4)
001408:
001409: E4,1713  E4,1571               RR-AZ              EQUALS   PITCHANG                              #  I(2) ANGLE BETWEEN LOS AND X-Z PLANE.
001410: E4,1713  E4,1573               RR-ELEV            EQUALS   RR-AZ      +2                         #  I(2) ANGLE BETWEEN LOS AND Y-Z PLANE.
001411:


001413:                                                                                                  #           R04(V62) RADAR TEST STORAGE.                                   (8D)
001414:
001415:
001416: E4,1713  E4,1571               RSTACK             EQUALS   YLEM                                  #  B(8)   BUFFER FOR R04 NOUNS
001417:
001418:
001419:
001420:                                                                                                  #           INITVEL STORAGE.  ALSO USED BY P31,P34,P35,P74,P75,P10,P11,MIDGIM,S40.1 AND S40.9. (18D)
001421:
001422:                                                                                                  #                   (POSSIBLY RINIT & VINIT CAN OVERLAY DELVEET1 & 2 ABOVE)
001423: E4,1713                        RINIT              ERASE    +5                                    #  I(6) ACTIVE VEHICLE POSITION
001424: E4,1721                        VINIT              ERASE    +5                                    #  I(6) ACTIVE VEHICLE VELOCITY
001425: E4,1727                        VIPRIME            ERASE    +5                                    #  I(6) NEW VEL REQUIRED AT INITIAL RADIUS.
001426:
001427:                                                                                                  #   BALLANGS-AUTOMATIC MANEUVER -- R60,(N18)                               (3D)
001428:
001429:
001430: E4,1735                        FDAIX              ERASE                                          #  I(1)
001431: E4,1736                        FDAIY              ERASE                                          #  I(1)
001432: E4,1737                        FDAIZ              ERASE                                          #  I(1)
001433:
001434:
001435:                                                                                                  #           P34-P35 STORAGE.  DOWNLINKED.                                  (2D)
001436:
001437: E4,1740                        DELVTPF            ERASE    +1                                    #  I(2) DELTA V FOR TPF
001438:
001439:
001440:                                                                                                  #           LPS20.1 STORAGE.  CALLED BY R65.                               (12D)
001441:
001442: E4,1742                        LMPOS              ERASE    +5                                    #  I(6) TEMP. STORAGE FOR LM POS. VECTOR.
001443: E4,1750                        LMVEL              ERASE    +5                                    #  I(6) TEMP. STORAGE FOR LM VEL. VECTOR.
001444:
001445:                                                                                                  #  INITVEL STORAGE.  ALSO USED BY P31,34,35,74,75,S40.1 AND DOWNLINKED.    (6D)
001446:
001447: E4,1756                        DELVEET3           ERASE    +5                                    #  I(6) DELTA V IN INERTIAL COORDINATES.
001448:
001449:
001450:                                                                                                  #           SOME R04(V63)-R77 STORAGE.                                     (5D)
001451:
001452: E4,1764                        RTSTDEX            ERASE                                          #  B(1)
001453: E4,1765                        RTSTMAX            ERASE                                          #  B(1)
001454: E4,1766                        RTSTBASE           ERASE                                          #  B(1)
001455: E4,1767                        RTSTLOC            ERASE                                          #  B(1)
001456: E4,1770                        RSAMPDT            ERASE                                          #  B(1)
001457:
001458:
001459:                                                                                                  #           SECOND DPS GUIDANCE  (LUNAR LANDING) (OVERLAYS KALCMANU & P57) (6D)
001460:
001461: E4,1771  E4,1653               ANGTERM            =        PIPTEM     +3                         #  I(6) LANDING GUIDANCE
001462:
001463:


001465:                                                                                                  #           R12 DOWNLINK QUANTITIES                                        (5D)
001466: E4,1771  E4,1725               LRXCDUDL           EQUALS   /LAND/     +2                         #  B(1) LANDING RADAR DOWNLINK
001467: E4,1771  E4,1726               LRYCDUDL           EQUALS   LRXCDUDL   +1                         #  B(1) LANDING RADAR DOWNLINK
001468: E4,1771  E4,1727               LRZCDUDL           EQUALS   LRYCDUDL   +1                         #  B(1) LANDING RADAR DOWNLINK
001469: E4,1771  E4,1730               LRVTIMDL           EQUALS   LRZCDUDL   +1                         #  B(2) LANDING RADAR DOWNLINK
001470:
001471:
001472:
001473:
001474:                                                                                                  #           ASCENT GUIDANCE FOR LUNAR LANDING                              (54D)
001475:
001476: E4,1771  E4,1653               AT                 EQUALS   UP1        +2                         #  I(2)TMP ENGINE DATA -- THRUST ACC*2 (9)
001477: E4,1771  E4,1655               VE                 EQUALS   AT         +2                         #  I(2)TMP  EXHAUST VELOCITY * 2(7)M/CS.
001478: E4,1771  E4,1657               TTO                EQUALS   VE         +2                         #  I(2)TMP  TAILOFF TIME * 2(17)CS.
001479: E4,1771  E4,1661               TBUP               EQUALS   TTO        +2                         #  I(2)TMP  (M/MDOT) * 2(17)CS.
001480: E4,1771  E4,1663               RDOTD              EQUALS   TBUP       +2                         #  I(2)TMP  TARGET VELOCITY COMPONENTS
001481: E4,1771  E4,1665               YDOTD              EQUALS   RDOTD      +2                         #  I(2)TMP SCALING IS 2(7)M/CS.
001482: E4,1771  E4,1667               ZDOTD              EQUALS   YDOTD      +2                         #  I(2)TMP
001483:
001484: E4,1771  E4,1671               /R/MAG             EQUALS   ZDOTD      +2                         #  I(2)TMP
001485: E4,1771  E4,1673               LAXIS              EQUALS   /R/MAG     +2                         #  I(6)TMP
001486:
001487:
001488: E4,1771  E4,1701               YDOT               =        LAXIS      +6                         #  I(2)TMP VEL. NORMAL TO REF. PLANE*2(-7)
001489: E4,1771  E4,1703               ZDOT               EQUALS   YDOT       +2                         #  I(2)TMP  DOWN RANGE VEL *2(-7).
001490: E4,1771  E4,1705               GEFF               EQUALS   ZDOT       +2                         #  I(2)TMP  EFFECTIVE GRAVITY
001491:
001492:                                                                                                  #     THESE TWO GROUPS OF ASCENT GUIDANCE ARE SPLIT BY THE ASCENT-DESCENT  SERVICER SECTION FOLLOWING THIS SECTION
001493:
001494: E4,1771  E4,1725               Y                  EQUALS   /LAND/     +2                         #  I(2)TMP  OUT-OF-PLANE DIST *2(24)M
001495: E4,1771  E4,1727               DRDOT              EQUALS   Y          +2                         #  I(2)TMP  RDOTD - RDOT
001496: E4,1771  E4,1731               DYDOT              EQUALS   DRDOT      +2                         #  I(2)TMP  YDOTD - YDOT
001497: E4,1771  E4,1733               DZDOT              EQUALS   DYDOT      +2                         #  I(2)TMP  ZDOTD - ZDOT
001498: E4,1771  E4,1735               PCONS              EQUALS   DZDOT      +2                         #  I(2)TMP  CONSTANT IN ATR EQUATION
001499: E4,1771  E4,1737               YCONS              EQUALS   PCONS      +2                         #  I(2)TMP  CONSTANT IN ATY EQUATION
001500: E4,1771  E4,1741               PRATE              EQUALS   YCONS      +2                         #  I(2)TMP  RATE COEFF. IN ATR EQUATION
001501: E4,1771  E4,1743               YRATE              EQUALS   PRATE      +2                         #  I(2)TMP  RATE COEFF. IN ATY EQUATION
001502: E4,1771  E4,1745               ATY                EQUALS   YRATE      +2                         #  I(2)TMP  OUT-OF-PLANE THRUST COMP.*2(9)
001503: E4,1771  E4,1747               ATR                EQUALS   ATY        +2                         #  I(2)TMP  RADIAL THRUST COMP.*2(9)
001504: E4,1771  E4,1751               ATP                EQUALS   ATR        +2                         #  I(2)TMP  DOWN-RANGE THRUST COMP
001505: E4,1771  E4,1753               YAW                EQUALS   ATP        +2                         #  I(2)TMP
001506: E4,1771  E4,1755               PITCH              EQUALS   YAW        +2                         #  I(2)RMP
001507:
001508:
001509:                                                                                                  #           SERVICER FOR LUNAR ASCENT AND DESCENT                          (14D)
001510:
001511: E4,1771  E4,1707               G(CSM)             EQUALS   GEFF       +2                         #  I(6) FOR UPDATE OF COMMAND MODULE STATE
001512:                                                                                                  # R(CSM)         EQUALS          R-OTHER                        VECTORS BY LEM; ANALOGS OF GDT/2,
001513:                                                                                                  # V(CSM)         EQUALS          V-OTHER                        R, AND V, RESPECTIVELY OF THE CSM


001515: E4,1771  E4,1715               WM                 EQUALS   G(CSM)     +6                         #  I(6) TMP - LUNAR ROTATION VECTOR (SM)
001516: E4,1771  E4,1723               /LAND/             EQUALS   WM         +6                         #  B(2) LUNAR RADIUS AT LANDING SITE
001517:
001518:
001519:                                                                                                  #           NOTE:  R(CSM) AND V(CSM) DEFINED IN E3.
001520:


001522:                                                                                                  #           EBANK-5 ASSIGNMENTS
001523:
001524: E5,1400                                           SETLOC   2400
001525:
001526:                                                                                                  #           W-MATRIX. ESSENTIALLY UNSHARABLE.                              (162D)
001527:
001528: E5,1400                        W                  ERASE    +161D
001529: E5,1642  E5,1642               ENDW               EQUALS   W          +162D
001530:
001531:
001532:
001533:
001534:                                                                                                  #  *******  OVERLAY NUMBER 1 IN EBANK 5  *******
001535:
001536:
001537:                                                                                                  #           W-MATRIX OVERLAY: PADLOADS -- LANDING, ABORTS                  (?)
001538: E5,1642  E5,1400               VELBIAS            EQUALS   W                                     #  I(2) PL BIAS VALUE FOR VELOCITY.
001539:                                                                                                  #  REASONABILITY TEST, 2(6) M/CS
001540:                                                                                                  #  PLEASE PRESERVE THE ORDER OF RBRFGX THROUGH TCGIAPPR.
001541: E5,1642  E5,1402               RBRFGX             EQUALS   VELBIAS    +2                         #  I(2)  POSITION TARGETS
001542: E5,1642  E5,1404               RAPFGX             EQUALS   RBRFGX     +2                         #  I(2)
001543: E5,1642  E5,1406               RBRFGZ             EQUALS   RAPFGX     +2                         #  I(2)
001544: E5,1642  E5,1410               RAPFGZ             EQUALS   RBRFGZ     +2                         #  I(2)
001545: E5,1642  E5,1412               VBRFGX             EQUALS   RAPFGZ     +2                         #  I(2)  VELOCITY TARGETS
001546: E5,1642  E5,1414               VAPFGX             EQUALS   VBRFGX     +2                         #  I(2)
001547: E5,1642  E5,1416               VBRFGZ             EQUALS   VAPFGX     +2                         #  I(2)
001548: E5,1642  E5,1420               VAPFGZ             EQUALS   VBRFGZ     +2                         #  I(2)
001549: E5,1642  E5,1422               ABRFGX             EQUALS   VAPFGZ     +2                         #  I(2)  ACCELERATION TARGETS
001550: E5,1642  E5,1424               AAPFGX             EQUALS   ABRFGX     +2                         #  I(2)
001551: E5,1642  E5,1426               ABRFGZ             EQUALS   AAPFGX     +2                         #  I(2)
001552: E5,1642  E5,1430               AAPFGZ             EQUALS   ABRFGZ     +2                         #  I(2)
001553: E5,1642  E5,1432               VBRFG*             EQUALS   AAPFGZ     +2                         #  I(2)  SCALED TARGETS FOR TTF/8CL
001554: E5,1642  E5,1434               VAPFG*             EQUALS   VBRFG*     +2                         #  I(2)
001555: E5,1642  E5,1436               ABRFG*             EQUALS   VAPFG*     +2                         #  I(2)
001556: E5,1642  E5,1440               AAPFG*             EQUALS   ABRFG*     +2                         #  I(2)
001557: E5,1642  E5,1442               JBRFG*             EQUALS   AAPFG*     +2                         #  I(2)
001558: E5,1642  E5,1444               JAPFG*             EQUALS   JBRFG*     +2                         #  I(2)
001559:                                                                                                  #                                                 * SEE PARAMETER TABLE IN LUNAR LANDING GUIDANCE EQUATIONS FOR
001560:                                                                                                  #                                                               INDIRECT ADDRESSING INTO ABOVE AREA.
001561:
001562: E5,1642  E5,1446               GAINBRAK           EQUALS   JAPFG*     +2                         #  I(2)  GAINS FOR GUIDANCE FRAME ERECTION
001563: E5,1642  E5,1450               GAINAPPR           EQUALS   GAINBRAK   +2                         #  I(2)
001564: E5,1642  E5,1452               TCGFBRAK           EQUALS   GAINAPPR   +2                         #  I(2)  TIME CRITERIA FOR GUIDANCE FRAME
001565: E5,1642  E5,1453               TCGIBRAK           EQUALS   TCGFBRAK   +1                         #  I(1)
001566: E5,1642  E5,1454               TCGFAPPR           EQUALS   TCGIBRAK   +1                         #  I(1)
001567: E5,1642  E5,1455               TCGIAPPR           EQUALS   TCGFAPPR   +1                         #  I(1)
001568: E5,1642  E5,1456               VIGN               EQUALS   TCGIAPPR   +1                         #  I(2)  DESIRED SPEED FOR PDI
001569: E5,1642  E5,1460               RIGNX              EQUALS   VIGN       +2                         #  I(2)  DESIRED 'ALTITUDE' FOR IGNITION
001570: E5,1642  E5,1462               RIGNZ              EQUALS   RIGNX      +2                         #  I(2)  DESIRED GROUND RANGE FOR IGNITION
001571: E5,1642  E5,1464               KIGNX/B4           EQUALS   RIGNZ      +2                         #  I(2)


001573: E5,1642  E5,1466               KIGNY/B8           EQUALS   KIGNX/B4   +2                         #  I(2)
001574: E5,1642  E5,1470               KIGNV/B4           EQUALS   KIGNY/B8   +2                         #  I(2)
001575: E5,1642  E5,1472               LOWCRIT            EQUALS   KIGNV/B4   +2                         #  B(1) (HIGHCRIT MUST FOLLOW LOWCRIT)
001576: E5,1642  E5,1473               HIGHCRIT           EQUALS   LOWCRIT    +1                         #  B(1)
001577: E5,1642  E5,1474               TAUHZ              EQUALS   HIGHCRIT   +1                         #  I(1) TAU FOR P66HZ
001578: E5,1642  E5,1475               QHZ                EQUALS   TAUHZ      +1                         #  I(1) FRACTION OF LAST P66HZ COMMAND
001579: E5,1642  E5,1476               AHZLIM             EQUALS   QHZ        +1                         #  I(1) LIMIT FOR P66HZ COMMAND
001580: E5,1642  E5,1477               TEXTRA             EQUALS   AHZLIM     +1                         #  I(1) TIME TO ACHIEVE P66HZ COMMAND
001581: E5,1642  E5,1500               DELQFIX            EQUALS   TEXTRA     +1                         #  I(2)   LR ALT REASONABILITY PARAMETER
001582: E5,1642  E5,1502               LRVMAX             EQUALS   DELQFIX    +2                         #  B(1)   LR VEL WEIGHTING FUNCTIONS
001583: E5,1642  E5,1503               LRVF               EQUALS   LRVMAX     +1                         #  B(1)   LR VEL WEIGHTING FUNCTIONS
001584: E5,1642  E5,1504               LRWVZ              EQUALS   LRVF       +1                         #  B(1)   LR VEL WEIGH ING FUNCTIONS
001585: E5,1642  E5,1505               LRWVY              EQUALS   LRWVZ      +1                         #  B(1)   LR VEL WEIGH ING FUNCTIONS
001586: E5,1642  E5,1506               LRWVX              EQUALS   LRWVY      +1                         #  B(1)   LR VEL WEIGH ING FUNCTIONS
001587: E5,1642  E5,1507               LRWVFZ             EQUALS   LRWVX      +1                         #  B(1)   LR VEL WEIGH ING FUNCTIONS
001588: E5,1642  E5,1510               LRWVFY             EQUALS   LRWVFZ     +1                         #  B(1)   LR VEL WEIG  ING FUNC IONS
001589: E5,1642  E5,1511               LRWVFX             EQUALS   LRWVFY     +1                         #  B(1)   LR VEL WEIG  ING FUNC IONS
001590: E5,1642  E5,1512               LRWVFF             EQUALS   LRWVFX     +1                         #  B(1)   LR VEL WEIG  ING FUNC IONS
001591:
001592: E5,1642  E5,1513               ABSC0              EQUALS   LRWVFF     +1                         #  B(1)  ABSCISSAE DEFINING TERRAIN MODEL
001593: E5,1642  E5,1514               ABSC1              EQUALS   ABSC0      +1                         #  B(1)
001594: E5,1642  E5,1515               ABSC2              EQUALS   ABSC1      +1                         #  B(1)
001595: E5,1642  E5,1516               ABSC3              EQUALS   ABSC2      +1                         #  B(1)
001596: E5,1642  E5,1517               ABSC4              EQUALS   ABSC3      +1                         #  B(1)
001597: E5,1642  E5,1520               SLOPE0             EQUALS   ABSC4      +1                         #  B(1)  SLOPES DEFINING TERRAIN MODEL
001598: E5,1642  E5,1521               SLOPE1             EQUALS   SLOPE0     +1                         #  B(1)
001599: E5,1642  E5,1522               SLOPE2             EQUALS   SLOPE1     +1                         #  B(1)
001600: E5,1642  E5,1523               SLOPE3             EQUALS   SLOPE2     +1                         #  B(1)
001601: E5,1642  E5,1524               SLOPE4             EQUALS   SLOPE3     +1                         #  B(1)
001602:
001603: E5,1642     0130               ABVEL*             EQUALS   BUF                                   #  B(1)   LR TEMP
001604: E5,1642     0131               VSELECT*           EQUALS   BUF        +1                         #  B(1)   LR TEMP
001605:
001606: E5,1642  E5,1525               RODSCALE           EQUALS   SLOPE4     +1                         #  B(1) VELOCITY CHANGE PER ROD CLICK
001607: E5,1642  E5,1526               ROHZSCAL           EQUALS   RODSCALE   +1                         #  B(1) VELOCITY CHANGE PER RHC DEFLECTION
001608: E5,1642  E5,1527               TAURODL            EQUALS   ROHZSCAL   +1                         #  B(1) LITTLE TAU FOR P66ROD OUTSIDE DBAND
001609: E5,1642  E5,1530               TAURODB            EQUALS   TAURODL    +1                         #  B(1) BIGGER TAU FOR P66ROD INSIDE DBAND
001610: E5,1642  E5,1531               VERCRIT            EQUALS   TAURODB    +1                         #  B(1) VELOCITY ERROR CRITERION FOR P66ROD
001611: E5,1642  E5,1532               MINFORCE           EQUALS   VERCRIT    +1                         #  B(1) MIN SM X-AXIS THRUST FROM P66ROD
001612: E5,1642  E5,1533               MAXFORCE           EQUALS   MINFORCE   +1                         #  B(1) MAX SM X-AXIS THRUST FROM P66ROD
001613: E5,1642  E5,1534               J1PARM             EQUALS   MAXFORCE   +1                         #  I(2) PARAMETER SET # 1:
001614: E5,1642  E5,1536               K1PARM             EQUALS   J1PARM     +2                         #  I(2)    ABORT ORBIT SEMI-MAJOR AXIS COMP
001615: E5,1642  E5,1540               J2PARM             EQUALS   K1PARM     +2                         #  I(2) PARAMETER SET # 2:
001616: E5,1642  E5,1542               K2PARM             EQUALS   J2PARM     +2                         #  I(2)    ABORT ORBIT SEMI-MAJOR AXIS COMP
001617: E5,1642  E5,1544               THETCRIT           EQUALS   K2PARM     +2                         #  I(2) CENTRAL ANGLE SWITCHING CRITERION.
001618: E5,1642  E5,1546               RAMIN              EQUALS   THETCRIT   +2                         #  I(2) MINIMUM ALLOWABLE APOLUNE.
001619: E5,1642  E5,1550               YLIM               EQUALS   RAMIN      +2                         #  I(2) MAXIMUM CROSS-RANGE DIST. IN ABORTS
001620: E5,1642  E5,1552               ABTRDOT            EQUALS   YLIM       +2                         #  I(2) DESIRED RADIAL VEL. FOR ABORTS.
001621: E5,1642  E5,1554               COSTHET1           EQUALS   ABTRDOT    +2                         #  I(2) COS OF CONE 1 ANGLE FOR ABORTS
001622: E5,1642  E5,1556               COSTHET2           EQUALS   COSTHET1   +2                         #  I(2) COS OF CONE 2 ANGLE FOR ABORTS.


001624:
001625:
001626:                                                                                                  #           SOME VARIABLES FOR SECOND DPS GUIDANCE                         (38D)
001627:
001628: E5,1642  E5,1560               CG                 EQUALS   COSTHET2   +2                         #  I(18D) GUIDANCE
001629: E5,1642  E5,1602               RANGEDSP           EQUALS   CG         +18D                       #  B(2) DISPLAY
001630: E5,1642  E5,1602               OUTOFPLN           EQUALS   RANGEDSP                              #  *** OUTOFPLN CAN OVERLAY RANGEDSP ***
001631: E5,1642  E5,1604               RGU                EQUALS   OUTOFPLN   +2                         #  I(6) UNSHARED FOR DOWNLINK
001632: E5,1642  E5,1612               DLAND              EQUALS   RGU        +6                         #  B(6) PL LANDING SITE CORRECTION,SM FRAME
001633: E5,1642  E5,1612               DLANDX             EQUALS   DLAND
001634: E5,1642  E5,1614               DLANDY             EQUALS   DLAND      +2
001635: E5,1642  E5,1616               DLANDZ             EQUALS   DLAND      +4
001636:
001637:
001638:                                                                                                  #           OVERLAYS OF THE BLOCK ABOVE (ASCENT AND DESCENT)
001639:
001640: E5,1642  E5,1560               JPARM              EQUALS   CG                                    #  I(2) JPARM WILL EQUAL J1PARM OR J2PARM
001641: E5,1642  E5,1562               KPARM              EQUALS   JPARM      +2                         #  I(2) KPARM WILL EQUAL K1PARM OR K2PARM
001642: E5,1642  E5,1564               RP                 EQUALS   KPARM      +2                         #  I(2) PREDICTED BURNOUT RADIUS-M*2(-24)
001643: E5,1642  E5,1566               QAXIS              EQUALS   RP         +2                         #  I(6) ASCENT CROSSRANGE HALF-UNIT VECTOR
001644: E5,1642  E5,1574               ZAXIS1             EQUALS   QAXIS      +6                         #  I(6) ASCENT DOWNRANGE HALF-UNIT VECTOR
001645: E5,1642     0130               L*WCR*T            =        BUF
001646: E5,1642     0131               H*GHCR*T           =        BUF        +1
001647:
001648:
001649:                                                                                                  #           Q-SAVE REGISTER FOR ASCENT                                     (1D)
001650:
001651: E5,1642  E5,1620               ASCSAVE            EQUALS   DLAND      +6                         #  I(1)TMP ASCENT Q-SAVE
001652:
001653:
001654:                                                                                                  #           ALIGNMENT/SYSTEST/CALCSMSC COMMON STORAGE.                     (36D)
001655:
001656: E5,1642  E5,1642               XSM                EQUALS   ENDW                                  #  B(6)
001657: E5,1642  E5,1650               YSM                EQUALS   XSM        +6                         #  B(6)
001658: E5,1642  E5,1656               ZSM                EQUALS   YSM        +6                         #  B(6)
001659:
001660: E5,1642  E5,1664               XDC                EQUALS   ZSM        +6                         #  B(6)
001661: E5,1642  E5,1672               YDC                EQUALS   XDC        +6                         #  B(6)
001662: E5,1642  E5,1700               ZDC                EQUALS   YDC        +6                         #  B(6)
001663:
001664: E5,1642  E5,1664               XNB                =        XDC
001665: E5,1642  E5,1672               YNB                =        YDC
001666: E5,1642  E5,1700               ZNB                =        ZDC
001667:
001668:
001669:                                                                                                  #           MORE OVERLAYS TO ALIGNMENT/SYSTEST  (THESE ARE P52)            (6D)
001670:
001671: E5,1642  E5,1706               LANDLAT            EQUALS   STARAD                                #  (2) LATITUDE, LONGITUDE
001672: E5,1642  E5,1710               LANDLONG           EQUALS   LANDLAT    +2                         #  (2)     AND ALTITUDE
001673: E5,1642  E5,1712               LANDALT            EQUALS   LANDLONG   +2                         #  (2)     OF LANDING SITE


001675:
001676:
001677:                                                                                                  #           ALIGNMENT/SYSTEST COMMON STORAGE.                              (31D)
001678:
001679: E5,1642  E5,1706               STARAD             EQUALS   ZDC        +6                         #  I(18D)TMP
001680: E5,1642  E5,1730               STAR               EQUALS   STARAD     +18D                       #  I(6)
001681: E5,1642  E5,1736               GCTR               EQUALS   STAR       +6                         #  B(1)
001682: E5,1642  E5,1737               OGC                EQUALS   GCTR       +1                         #  I(2)
001683: E5,1642  E5,1741               IGC                EQUALS   OGC        +2                         #  I(2)
001684: E5,1642  E5,1743               MGC                EQUALS   IGC        +2                         #  I(2)
001685:
001686:                                                                                                  #           P57 ALIGNMENT (OVERLAY OF ALIGNMENT/SYSTEST COMMON STORAGE)    (12D)
001687:
001688: E5,1642  E5,1706               GACC               =        STARAD                                #  (6) SS
001689: E5,1642  E5,1714               GOUT               =        STARAD     +6                         #  (6) SS
001690:
001691:
001692:                                                                                                  #           OVERLAYS WITHIN ALIGNMENT/SYSTEST COMMON STORAGE               (24D)
001693:
001694: E5,1642  E5,1706               VEARTH             EQUALS   STARAD                                #  (6)TMP
001695: E5,1642  E5,1714               VSUN               EQUALS   VEARTH     +6                         #  (6)TMP
001696: E5,1642  E5,1722               VMOON              EQUALS   VSUN       +6                         #  (6)TMP
001697: E5,1642  E5,1730               SAX                EQUALS   VMOON      +6                         #  (6)TMP
001698:
001699:
001700:                                                                                                  #           P50'S,R50'S Q STORES.                                          (2D)
001701:
001702: E5,1642  E5,1745               QMIN               EQUALS   MGC        +2                         #  B(1)TMP
001703: E5,1642  E5,1746               QMAJ               EQUALS   QMIN       +1                         #  B(1)TMP
001704:
001705:
001706:                                                                                                  #         **** USED IN P50S ****   (SCATTERED OVERLAYS)                    (18D)
001707: E5,1642  E5,1706               CULTRIX            EQUALS   VEARTH                                #  VEARTH, VSUN, VMOON
001708:
001709:
001710:
001711:                                                                                                  #           ALIGNMENT STORAGE.                                             (23D)
001712:
001713: E5,1642  E5,1747               OGCT               EQUALS   QMAJ       +1                         #  I(6)
001714: E5,1642  E5,1755               BESTI              EQUALS   OGCT       +6                         #  I(1)
001715: E5,1642  E5,1756               BESTJ              EQUALS   BESTI      +1
001716: E5,1642  E5,1757               STARIND            EQUALS   BESTJ      +1
001717:                                                                                                  #     RETAIN THE ORDER OF STARSAV1 TO STARSAV2 +5 FOR DOWNLINK PURPOSES.
001718: E5,1642  E5,1760               STARSAV1           EQUALS   STARIND    +1                         #  I(6)
001719: E5,1642  E5,1766               STARSAV2           EQUALS   STARSAV1   +6                         #  I(6)
001720: E5,1642  E5,1774               TALIGN             EQUALS   STARSAV2   +6                         #  B(2) TIME OF IMU ALIGNMENT  (DOWNLINKED)
001721:
001722:
001723:                                                                                                  #           P32-35 + SERVICER                                              (2D)
001724:


001726: E5,1642  E5,1776               RTX1               EQUALS   TALIGN     +2                         #  I(1) X1  -2 EARTH, -10 MOON
001727: E5,1642  E5,1777               RTX2               EQUALS   RTX1       +1                         #  I(1) X2  0 EARTH, 2 MOON
001728:
001729:
001730: E5,1642                        ZPRIME             =        22D
001731: E5,1642                        COSTH              =        16D
001732: E5,1642                        SINTH              =        18D
001733: E5,1642                        THETA              =        20D
001734:


001736:                                                                                                  #  *******  OVERLAY NUMBER 2 IN EBANK 5  *******
001737:
001738:
001739:                                                                                                  #          CONICS ROUTINE STORAGE.                                         (85D)
001740:
001741: E5,1642  E5,1642               DELX               EQUALS   ENDW                                  #  I(2)TMP
001742: E5,1642  E5,1644               DELT               EQUALS   DELX       +2                         #  I(2)TMP
001743: E5,1642  E5,1646               URRECT             EQUALS   DELT       +2                         #  I(6)TMP
001744: E5,1642                        RCNORM             EQUALS   34D                                   #  I(2) TMP
001745:                                                                                                  #          NOTE: RCNORM (ABOVE) IS DEFINED IN VAC AREA
001746:
001747: E5,1642  E5,1654               R1VEC              EQUALS   URRECT     +6                         #  I(6) TMP
001748: E5,1642  E5,1662               R2VEC              EQUALS   R1VEC      +6                         #  I(6)TMP
001749: E5,1642  E5,1670               TDESIRED           EQUALS   R2VEC      +6                         #  I(2)TMP
001750: E5,1642  E5,1672               GEOMSGN            EQUALS   TDESIRED   +2                         #  I(1)TMP
001751: E5,1642  E5,1673               UN                 EQUALS   GEOMSGN    +1                         #  I(6)TMP
001752: E5,1642  E5,1701               VTARGTAG           EQUALS   UN         +6                         #  I(1)TMP
001753: E5,1642  E5,1702               VTARGET            EQUALS   VTARGTAG   +1                         #  I(6)TMP
001754: E5,1642  E5,1710               RTNLAMB            EQUALS   VTARGET    +6                         #  I(1)TMP
001755: E5,1642  E5,1711               U2                 EQUALS   RTNLAMB    +1                         #  I(6)TMP
001756: E5,1642  E5,1717               MAGVEC2            EQUALS   U2         +6                         #  I(2)TMP
001757: E5,1642  E5,1721               UR1                EQUALS   MAGVEC2    +2                         #  I(6)TMP
001758: E5,1642  E5,1727               SNTH               EQUALS   UR1        +6                         #  I(2)TMP
001759: E5,1642  E5,1731               CSTH               EQUALS   SNTH       +2                         #  I(2)TMP
001760: E5,1642  E5,1733               1-CSTH             EQUALS   CSTH       +2                         #  I(2)TMP
001761: E5,1642  E5,1735               CSTH-RHO           EQUALS   1-CSTH     +2                         #  I(2)TMP
001762: E5,1642  E5,1737               P                  EQUALS   CSTH-RHO   +2                         #  I(2)TMP
001763: E5,1642  E5,1741               R1A                EQUALS   P          +2                         #  I(2)TMP
001764: E5,1642  E5,1654               RVEC               EQUALS   R1VEC                                 #  I(6)TMP
001765: E5,1642  E5,1743               VVEC               EQUALS   R1A        +2                         #  I(6)TMP
001766: E5,1642  E5,1710               RTNTT              EQUALS   RTNLAMB                               #  I(1)TMP
001767: E5,1642  E5,1751               ECC                EQUALS   VVEC       +6                         #  I(2)TMP
001768: E5,1642  E5,1710               RTNTR              EQUALS   RTNLAMB                               #  I(1)TMP
001769: E5,1642  E5,1710               RTNAPSE            EQUALS   RTNLAMB                               #  I(1)TMP
001770: E5,1642  E5,1717               R2                 EQUALS   MAGVEC2                               #  I(2)TMP
001771: E5,1642  E5,1753               RTNPRM             EQUALS   ECC        +2                         #  I(1)TMP
001772: E5,1642  E5,1754               SGNRDOT            EQUALS   RTNPRM     +1                         #  I(1)TMP
001773: E5,1642  E5,1755               RDESIRED           EQUALS   SGNRDOT    +1                         #  I(2)TMP
001774: E5,1642  E5,1757               DELDEP             EQUALS   RDESIRED   +2                         #  I(2)TMP
001775: E5,1642  E5,1761               DEPREV             EQUALS   DELDEP     +2                         #  I(2)TMP
001776: E5,1642  E5,1757               TERRLAMB           EQUALS   DELDEP                                #  I(2)TMP
001777: E5,1642  E5,1761               TPREV              EQUALS   DEPREV                                #  I(2)TMP
001778: E5,1642  E5,1763               EPSILONL           EQUALS   DEPREV     +2                         #  I(2)TMP
001779: E5,1642  E5,1765               COGA               EQUALS   EPSILONL   +2                         #  I(2) COTAN OF INITIAL FLIGHT PATH ANGLE.
001780: E5,1642  E5,1765               INDEP              EQUALS   COGA                                  #       USED BY SUBROUTINE'ITERATOR'.
001781:


001783:                                                                                                  #  *******  OVERLAY NUMBER 3 IN EBANK 5  *******
001784:
001785:
001786:                                                                                                  #          INCORP STORAGE.                                                 (18D)
001787:
001788: E5,1642  E5,1642               ZI                 EQUALS   ENDW                                  #  I(18)TMP
001789:
001790:                                                                                                  #          INCORP/LSR22.3 STORAGE.                                         (21D)
001791:
001792: E5,1642  E5,1664               DELTAX             EQUALS   ZI         +18D                       #  I(18)
001793: E5,1642  E5,1706               VARIANCE           EQUALS   DELTAX     +18D                       #  I(3)
001794:
001795:                                                                                                  #          MEASUREMENT INCORPORATION -R22- STORAGE.                        (49D)
001796:
001797: E5,1642  E5,1711               GRP2SVQ            EQUALS   VARIANCE   +3                         #  I(1)TMP QSAVE FOR RESTARTS
001798: E5,1642  E5,1712               OMEGAM1            EQUALS   GRP2SVQ    +1                         #  I(6)
001799: E5,1642  E5,1720               OMEGAM2            EQUALS   OMEGAM1    +6                         #  I(6)
001800: E5,1642  E5,1726               OMEGAM3            EQUALS   OMEGAM2    +6                         #  I(6)
001801: E5,1642  E5,1734               HOLDW              EQUALS   OMEGAM3    +6                         #  I(18)
001802:
001803:
001804: E5,1642  E5,1664               TRIPA              EQUALS   DELTAX                                #  I(3)TMP
001805: E5,1642  E5,1667               TEMPVAR            EQUALS   TRIPA      +3                         #  I(3)TMP
001806:
001807:
001808:
001809:
001810:                                                                                                  #           INCORPORATION/INTEGRATION Q STORAGE.                           (1D)
001811:
001812: E5,1642  E5,1767               EGRESS             EQUALS   COGA       +2                         #  I(1)
001813:
001814:
001815:
001816:
001817:


001819:                                                                                                  #           SYSTEM TEST ERASABLES.  CAN OVERLAY W MATRIX.                  (127D)
001820:
001821:                                                                                                  #  *******  OVERLAY NUMBER 0 IN EBANK 5  *******
001822:
001823: E5,1642  E5,1400               AZIMUTH            EQUALS   W                                     #  2
001824: E5,1642  E5,1402               LATITUDE           EQUALS   AZIMUTH    +2                         #  2
001825: E5,1642  E5,1404               ERVECTOR           EQUALS   LATITUDE   +2                         #  6
001826: E5,1642  E5,1412               LENGTHOT           EQUALS   ERVECTOR   +6                         #  1
001827: E5,1642  E5,1413               LOSVEC             EQUALS   LENGTHOT   +1                         #  6
001828: E5,1642  E5,1414               NDXCTR             EQUALS   LOSVEC     +1                         #  1
001829: E5,1642  E5,1415               PIPINDEX           EQUALS   NDXCTR     +1                         #  1
001830: E5,1642  E5,1416               POSITON            EQUALS   PIPINDEX   +1                         #  1
001831: E5,1642  E5,1417               QPLACE             EQUALS   POSITON    +1                         #  1
001832: E5,1642  E5,1420               QPLACES            EQUALS   QPLACE     +1                         #  1
001833: E5,1642  E5,1421               SOUTHDR            EQUALS   QPLACES    +1                         #  7
001834: E5,1642  E5,1430               TEMPTIME           EQUALS   SOUTHDR    +7                         #  2
001835: E5,1642  E5,1432               TMARK              EQUALS   TEMPTIME   +2                         #  2
001836: E5,1642  E5,1434               GENPL              EQUALS   TMARK      +2
001837: E5,1642  E5,1434               CDUTIMEI           =        GENPL
001838: E5,1642  E5,1436               CDUTIMEF           =        GENPL      +2
001839: E5,1642  E5,1440               CDUDANG            =        GENPL      +4
001840: E5,1642  E5,1441               CDUREADF           =        GENPL      +5
001841: E5,1642  E5,1442               CDUREADI           =        GENPL      +6
001842: E5,1642  E5,1443               CDULIMIT           =        GENPL      +7
001843:
001844: E5,1642  E5,1440               TEMPADD            =        GENPL      +4
001845: E5,1642  E5,1441               TEMP               =        GENPL      +5
001846: E5,1642  E5,1442               NOBITS             =        GENPL      +6
001847: E5,1642  E5,1443               CHAN               =        GENPL      +7
001848:
001849: E5,1642  E5,1444               LOS1               =        GENPL      +8D
001850: E5,1642  E5,1452               LOS2               =        GENPL      +14D
001851:
001852: E5,1642  E5,1460               CALCDIR            EQUALS   GENPL      +20D
001853: E5,1642  E5,1461               CDUFLAG            EQUALS   GENPL      +21D
001854: E5,1642  E5,1462               GYTOBETQ           EQUALS   GENPL      +22D
001855: E5,1642  E5,1463               OPTNREG            EQUALS   GENPL      +23D
001856: E5,1642  E5,1464               SAVE               EQUALS   GENPL      +24D                       #  THREE  ONSEC LOC
001857: E5,1642  E5,1467               SFCONST1           EQUALS   GENPL      +27D
001858: E5,1642  E5,1470               TIMER              EQUALS   GENPL      +28D
001859:
001860: E5,1642  E5,1472               DATAPL             EQUALS   GENPL      +30D
001861: E5,1642  E5,1434               RDSP               EQUALS   GENPL                                 #  FIX LA ER   POSSIBLY KEEP1
001862: E5,1642  E5,1534               MASKREG            EQUALS   GENPL      +64D
001863: E5,1642  E5,1536               CDUNDX             EQUALS   GENPL      +66D
001864: E5,1642  E5,1537               RESULTCT           EQUALS   GENPL      +67D
001865: E5,1642  E5,1542               COUNTPL            EQUALS   GENPL      +70D
001866:
001867: E5,1642  E5,1543               CDUANG             EQUALS   GENPL      +71D


001869: E5,1642  E5,1434               AINLA              =        GENPL                                 #  110 DE  OR 156 OCT LOCATIONS
001870:
001871: E5,1642  E5,1434               WANGO              EQUALS   AINLA                                 #  VERT E ATE
001872: E5,1642  E5,1436               WANGI              EQUALS   AINLA      +2D                        #  HORIZO TAL ERATE
001873: E5,1642  E5,1440               WANGT              EQUALS   AINLA      +4D                        #  T
001874: E5,1642  E5,1440               TORQNDX            =        WANGT
001875: E5,1642  E5,1442               DRIFTT             EQUALS   AINLA      +6D
001876: E5,1642  E5,1444               ALX1S              EQUALS   AINLA      +8D
001877: E5,1642  E5,1445               CMPX1              EQUALS   AINLA      +9D                        #  IND
001878: E5,1642  E5,1446               ALK                EQUALS   AINLA      +10D                       #  GAINS
001879: E5,1642  E5,1462               VLAUNS             EQUALS   AINLA      +22D
001880: E5,1642  E5,1464               WPLATO             EQUALS   AINLA      +24D
001881: E5,1642  E5,1470               INTY               EQUALS   AINLA      +28D                       #  SOUTH  IP INTE
001882: E5,1642  E5,1472               ANGZ               EQUALS   AINLA      +30D                       #  EAST A IS
001883: E5,1642  E5,1474               INTZ               EQUALS   AINLA      +32D                       #  EAST P P I
001884: E5,1642  E5,1476               ANGY               EQUALS   AINLA      +34D                       #  SOUTH
001885: E5,1642  E5,1500               ANGX               EQUALS   AINLA      +36D                       #  VE
001886: E5,1642  E5,1502               DRIFTO             EQUALS   AINLA      +38D                       #  VERT
001887: E5,1642  E5,1504               DRIFTI             EQUALS   AINLA      +40D                       #  SOU
001888: E5,1642  E5,1510               VLAUN              EQUALS   AINLA      +44D
001889: E5,1642  E5,1512               ACCWD              EQUALS   AINLA      +46D
001890: E5,1642  E5,1520               POSNV              EQUALS   AINLA      +52D
001891: E5,1642  E5,1522               DPIPAY             EQUALS   AINLA      +54D                       #  SOUTH
001892: E5,1642  E5,1526               DPIPAZ             EQUALS   AINLA      +58D                       #  NORTH  IP INCREMENT
001893: E5,1642  E5,1530               ALTIM              EQUALS   AINLA      +60D
001894: E5,1642  E5,1531               ALTIMS             EQUALS   AINLA      +61D                       #   INDEX
001895: E5,1642  E5,1532               ALDK               EQUALS   AINLA      +62D                       #   TIME  ONSTAN
001896: E5,1642  E5,1550               DELM               EQUALS   AINLA      +76D
001897: E5,1642  E5,1560               WPLATI             EQUALS   AINLA      +84D
001898: E5,1642  E5,1562               GEOCOMPS           EQUALS   AINLA      +86D
001899: E5,1642  E5,1563               ERCOMP             EQUALS   AINLA      +87D
001900: E5,1642  E5,1571               ZERONDX            EQUALS   AINLA      +93D
001901:
001902: E5,1642  E5,1452               THETAN             =        ALK        +4
001903: E5,1642  E5,1460               FILDELV            EQUALS   THETAN     +6                         #   AGS ALIGNMENT STORAGE
001904: E5,1642  E5,1462               INTVEC             EQUALS   FILDELV    +2
001905: E5,1642  E5,1572               1SECXT             =        AINLA      +94D
001906: E5,1642  E5,1573               ASECXT             =        AINLA      +95D
001907: E5,1642  E5,1574               PERFDLAY           EQUALS   AINLA      +96D                       #  B(2) DELAY TIME BEF. START DRIFT MEASURE
001908: E5,1642  E5,1576               OVFLOWCK           EQUALS   AINLA      +98D                       #  (1) SET MEANS OVERFLOW IN IMU PERF TEST
001909:                                                                                                  #      AND CAUSES TERMINATION
001910:
001911:
001912: E5,1642                        END-E5             EQUALS   2777                                  #  END OF EBANK 5
001913:


001915:                                                                                                  #           EBANK-6 ASSIGNMENTS.
001916:
001917: E6,1400                                           SETLOC   3000
001918:
001919:                                                                                                  #           DAP   PAD-LOADED   DATA.                                       (10D)
001920:
001921:                                                                                                  #    ALL OF THE FOLLOWING EXCEPT PITTIME AND ROLLTIME ARE INITIALIZED IN FRESH START TO PERMIT IMMEDIATE USE OF DAP
001922:
001923: E6,1400                        HIASCENT           ERASE                                          #  (1) MASS AFTER STAGING, SCALE AT B16 KG.
001924: E6,1401                        ROLLTIME           ERASE                                          #  (1) TIME TO TRIM Z GIMBAL IN R03, CSEC.
001925: E6,1402                        PITTIME            ERASE                                          #  (1) TIME TO TRIM Y GIMBAL IN R03, CSEC.
001926: E6,1403                        DKTRAP             ERASE                                          #  (1) DAP STATE            (POSSIBLE 77001
001927: E6,1404                        DKOMEGAN           ERASE                                          #  (1)   ESTIMATOR PARA-      (VALUES 00012
001928: E6,1405                        DKKAOSN            ERASE                                          #  (1)      METERS FOR THE           00074
001929: E6,1406                        LMTRAP             ERASE                                          #  (1)         DOCKED AND            77001
001930: E6,1407                        LMOMEGAN           ERASE                                          #  (1)            LEM-ALONE CASES    00000
001931: E6,1410                        LMKAOSN            ERASE                                          #  (1)               RESPECTIVELY    00074
001932: E6,1411                        DKDB               ERASE                                          #  (1) WIDTH OF DEADBAND FOR DOCKED RCS
001933:                                                                                                  #      AUTOPILOT (DB=1.4DEG IN FRESH START)
001934:                                                                                                  #      DEADBAND = PI/DKDB RAD.
001935:
001936:                                                                                                  #  PADLOADS FOR INITIALIZATION OF DAP BIAS ACCELERATION (AT P12 IGNITION)  (2D)
001937:
001938: E6,1412                        IGNAOSQ            ERASE                                          #  B(1)PL
001939: E6,1413                        IGNAOSR            ERASE                                          #  B(1)PL
001940:
001941:
001942:                                                                                                  #  AXIS TRANSFORMATION MATRIX - GIMBAL TO PILOT AXES:                      (5D)
001943:
001944: E6,1414                        M11                ERASE                                          #  SCALED AT 1
001945: E6,1415                        M21                ERASE                                          #  SCALED AT 1
001946: E6,1416                        M31                ERASE
001947: E6,1417                        M22                ERASE                                          #  SCALED AT 1.
001948: E6,1420                        M32                ERASE                                          #  SCALED AT 1.
001949:
001950:                                                                                                  #  ANGLE MEASUREMENTS.                                                     (31D)
001951:
001952: E6,1421                        OMEGAP             ERASE    +4                                    #  BODY-AXIS ROT. RATES SCALED AT PI/4 AND
001953: E6,1426  E6,1422               OMEGAQ             EQUALS   OMEGAP     +1                         #  BODY-AXIS ACCELERATIONS SCALED AT PI/8
001954: E6,1426  E6,1423               OMEGAR             EQUALS   OMEGAP     +2
001955:                                                                                                  #     RETAIN THE ORDER OF ALPHAQ AND ALPHAR FOR DOWNLINK PURPOSES.
001956: E6,1426  E6,1424               ALPHAQ             EQUALS   OMEGAP     +3
001957: E6,1426  E6,1425               ALPHAR             EQUALS   OMEGAP     +4
001958: E6,1426                        OMEGAU             ERASE    +1
001959: E6,1430  E6,1427               OMEGAV             =        OMEGAU     +1
001960:
001961: E6,1430                        TRAPEDP            ERASE    +5
001962: E6,1436  E6,1431               TRAPEDQ            =        TRAPEDP    +1
001963: E6,1436  E6,1432               TRAPEDR            =        TRAPEDP    +2
001964: E6,1436  E6,1433               NPTRAPS            =        TRAPEDP    +3
001965:


001967: E6,1436  E6,1434               NQTRAPS            =        TRAPEDP    +4
001968: E6,1436  E6,1435               NRTRAPS            =        TRAPEDP    +5
001969: E6,1436  E6,1427               EDOTP              =        EDOT
001970: E6,1436                        EDOTQ              ERASE    +1
001971: E6,1440  E6,1437               EDOTR              =        EDOTQ      +1                         #   MANY SHARING NAMES
001972: E6,1440  E6,1436               QRATEDIF           EQUALS   EDOTQ                                 #  ALTERNATIVE NAMES:
001973: E6,1440  E6,1437               RRATEDIF           EQUALS   EDOTR                                 #  DELETE WHEN NO. OF REFERENCES = 0
001974:
001975: E6,1440  E6,1426               URATEDIF           EQUALS   OMEGAU
001976: E6,1440  E6,1427               VRATEDIF           EQUALS   OMEGAV
001977: E6,1440                        OLDXFORP           ERASE    +2                                    #  STORED CDU READINGS FOR STATE
001978: E6,1443  E6,1441               OLDYFORP           EQUALS   OLDXFORP   +1                         #  DERIVATIONS: SCALED AT PI RADIANS (2'S)
001979: E6,1443  E6,1442               OLDZFORQ           EQUALS   OLDXFORP   +2
001980:                                                                                                  #  RATE-COMMAND AND MINIMUM IMPULSE MODES
001981:
001982: E6,1443                        CH31TEMP           ERASE
001983: E6,1444                        STIKSENS           ERASE
001984: E6,1445                        TCP                ERASE
001985: E6,1446                        DXERROR            ERASE    +5
001986: E6,1454  E6,1450               DYERROR            EQUALS   DXERROR    +2
001987: E6,1454  E6,1452               DZERROR            EQUALS   DXERROR    +4
001988: E6,1454                        PLAST              ERASE
001989: E6,1455                        QLAST              ERASE
001990: E6,1456                        RLAST              ERASE
001991: E6,1457                        TCQR               ERASE
001992:                                                                                                  #  OTHER VARIABLES.                                                        (5D)
001993:
001994: E6,1460                        OLDPMIN            ERASE                                          #  THESE THREE USED IN MIN IMPULSE MODE.
001995: E6,1461                        OLDQRMIN           ERASE
001996: E6,1462  E6,1736               TEMP31             EQUALS   DAPTEMP1
001997:
001998: E6,1462                        SAVEHAND           ERASE    +1
001999: E6,1464                        PERROR             ERASE
002000: E6,1465  E6,1450               QERROR             EQUALS   DYERROR
002001: E6,1465  E6,1452               RERROR             EQUALS   DZERROR
002002:                                                                                                  #  JET STATE CHANGE VARIABLES- TIME (TOFJTCHG),JET BITS WRITTEN NOW        (10D)
002003:                                                                                                  #    (JTSONNOW), AND JET BITS WRITTEN AT T6 RUPT (JTSATCHG).
002004:
002005: E6,1465                        NXT6ADR            ERASE
002006: E6,1466                        T6NEXT             ERASE    +1
002007: E6,1470                        T6FURTHA           ERASE    +1
002008: E6,1472                        NEXTP              ERASE    +2
002009: E6,1475  E6,1473               NEXTU              =        NEXTP      +1
002010: E6,1475  E6,1474               NEXTV              =        NEXTP      +2
002011: E6,1475                        -2JETLIM           ERASE    +1                                    #  RATE COMMAND 4-JET RATE DIFFERENCE LIMIT
002012: E6,1477  E6,1476               -RATEDB            EQUALS   -2JETLIM   +1                         #  AND RATE DEADBAND FOR ASCENT OR DESCENT
002013:
002014: E6,1477  E6,1476               TARGETDB           EQUALS   -RATEDB                               #  MAN. CONTROL TARGET DB COMPLEMENT.
002015:
002016:                                                                                                  #       *** Q,R AXIS ERASABLES ***                                         (3)
002017:


002019: E6,1477     4742               PBIT               EQUALS   BIT10
002020: E6,1477     4741               QRBIT              EQUALS   BIT11
002021: E6,1477  E6,1750               UERROR             EQUALS   DAPTREG5                              #  U,V-AXES ATT ERROR FOR RCS CONTROL LAWS
002022: E6,1477  E6,1751               VERROR             =        UERROR     +1
002023: E6,1477                        RETJADR            ERASE
002024: E6,1500  E6,1741               TEMPNUM            EQUALS   DAPTEMP4
002025: E6,1500  E6,1742               NUMBERT            EQUALS   DAPTEMP5
002026: E6,1500  E6,1743               ROTINDEX           EQUALS   DAPTEMP6
002027: E6,1500  E6,1736               ROTEMP1            EQUALS   DAPTEMP1
002028: E6,1500  E6,1737               ROTEMP2            EQUALS   DAPTEMP2
002029: E6,1500  E6,1740               POLYTEMP           EQUALS   DAPTEMP3
002030: E6,1500                        SENSETYP           ERASE
002031: E6,1501  E6,1736               ABSTJ              EQUALS   DAPTEMP1                              #  ABS VALUE OF JET-FIRING TIME
002032: E6,1501  E6,1736               ABSEDOTP           EQUALS   DAPTEMP1
002033:


002035:                                                                                                  #  TRIM GIMBAL CONTROL LAW ERASABLES:                                      (11D)
002036:
002037: E6,1501  E6,1736               GTSTEMPS           EQUALS   DAPTEMP1                              #  GTS IS PART OF THE JASK.
002038: E6,1501  E6,1740               SHFTFLAG           EQUALS   GTSTEMPS   +2                         #  COUNT BITS FOR GTSQRT SHIFTING.
002039: E6,1501  E6,1743               ININDEX            EQUALS   GTSTEMPS   +5                         #  INDEX FOR SHIFT LOOP IN GTSQRT.
002040:
002041: E6,1501  E6,1505               SAVESR             EQUALS   AXISCTR                               #  CANNOT BE A DAPTEMP - GTS USES THEM ALL.
002042:
002043: E6,1501  E6,1745               SCRATCH            EQUALS   GTSTEMPS   +7                         #  ROOTCYCL ERASABLE
002044: E6,1501  E6,1746               HALFARG            EQUALS   GTSTEMPS   +8D                        #  ROOTCYCL ERASABLE.
002045:
002046: E6,1501  E6,1736               K2THETA            EQUALS   GTSTEMPS                              #  D.P., K*ERROR,  NEGUSUM
002047: E6,1501  E6,1740               KCENTRAL           EQUALS   GTSTEMPS   +2                         #  S.P., K FROM KQ OR KRDAP, AT PI/2(8)
002048: E6,1501  E6,1741               K2CNTRAL           EQUALS   GTSTEMPS   +3                         #  D.P., GTS SCRATCH CELLS.
002049: E6,1501  E6,1742               WCENTRAL           EQUALS   GTSTEMPS   +4                         #  S.P., OMEGA, AT PI/4 RAD/SEC
002050: E6,1501  E6,1743               ACENTRAL           EQUALS   GTSTEMPS   +5                         #  S.P., ALPHA, AT PI/4 RAD/SEC(2)
002051: E6,1501  E6,1744               DEL                EQUALS   GTSTEMPS   +6                         #  S.P., SGN FUNCTION VALUE.
002052: E6,1501  E6,1745               A2CNTRAL           EQUALS   GTSTEMPS   +7                         #  D.P., GTS SCRATCH CELLS.
002053: E6,1501  E6,1747               QRCNTR             EQUALS   GTSTEMPS   +9D                        #  S.P.,INDEX FOR GTS LOOP THROUGH Q,R AXES
002054: E6,1501  E6,1750               FUNCTION           EQUALS   GTSTEMPS   +10D                       #  D.P.,ARGUMENT FOR GRSQRT,SCRATCH FOR GTS
002055:
002056: E6,1501                        NEGUQ              ERASE    +2                                    #  NEGATIVE OF Q-AXIS GIMBAL DRIVE
002057:                                                                                                  #                                NEGUQ           +1          DEFINED AND USED ELSEWHERE
002058: E6,1504  E6,1503               NEGUR              EQUALS   NEGUQ      +2                         #  NEGATIVE OF R-AXIS GIMBAL DRIVE
002059:
002060: E6,1504                        KQ                 ERASE    +2                                    #  S.P.,JERK TERM FOR GTS, AT PI/2(8)
002061: E6,1507  E6,1505               AXISCTR            EQUALS   KQ         +1
002062: E6,1507  E6,1506               KRDAP              EQUALS   KQ         +2                         #  .3 ACCDOTR SCALED AT PI/2(8)
002063:
002064: E6,1507                        ACCDOTQ            ERASE    +3                                    #  Q-JERK SCALED AT PI/2(7) UNSIGNED
002065: E6,1513  E6,1510               QACCDOT            EQUALS   ACCDOTQ    +1                         #  Q-JERK SCALED AT PI/2(7) SIGNED
002066: E6,1513  E6,1511               ACCDOTR            EQUALS   ACCDOTQ    +2                         #  R-JERK SCALED AT PI/2(7) UNSIGNED
002067: E6,1513  E6,1512               RACCDOT            EQUALS   ACCDOTQ    +3                         #  R-JERK SCALED AT PI/2(7) SIGNED
002068:
002069: E6,1513  E6,1450               QDIFF              EQUALS   QERROR                                #  ATTITUDE ERRORS:
002070: E6,1513  E6,1452               RDIFF              EQUALS   RERROR                                #  SCALED AT PI RADIANS
002071:
002072:
002073:
002074:
002075:                                                                                                  #  TORQUE VECTOR RECONSTRUCTION VARIABLES:                                 (17D)
002076:
002077: E6,1513  E6,1744               JETRATE            EQUALS   DAPTREG1
002078: E6,1513  E6,1745               JETRATEQ           EQUALS   JETRATE    +1                         #  THE LAST CONTROL SAMPLE PERIOD OF 100 MS
002079: E6,1513  E6,1746               JETRATER           EQUALS   JETRATE    +2                         #  SCALED AT PI/4 RADIANS/SECOND
002080:
002081: E6,1513                        DOWNTORK           ERASE    +5                                    #  ACCUMULATED JET TORQUE COMMANDED ABOUT
002082: E6,1521  E6,1513               POSTORKP           EQUALS   DOWNTORK                              #    +,-P, +,-U, +,-V RESPECTIVELY.
002083: E6,1521  E6,1514               NEGTORKP           EQUALS   DOWNTORK   +1
002084: E6,1521  E6,1515               POSTORKU           EQUALS   DOWNTORK   +2                         #    NOT INITIALIZED; PERMITTED TO OVERFLOW


002086: E6,1521  E6,1516               NEGTORKU           EQUALS   DOWNTORK   +3                         #  SCALED AT 32 JET-SEC, OR ABOUT 2.0 JET-
002087: E6,1521  E6,1517               POSTORKV           EQUALS   DOWNTORK   +4                         #      MSEC PER BIT.
002088: E6,1521  E6,1520               NEGTORKV           EQUALS   DOWNTORK   +5
002089:
002090: E6,1521                        NO.PJETS           ERASE    +2
002091: E6,1524  E6,1522               NO.UJETS           =        NO.PJETS   +1
002092: E6,1524  E6,1523               NO.VJETS           =        NO.UJETS   +1
002093: E6,1524                        TJP                ERASE    +2
002094: E6,1527  E6,1525               TJU                =        TJP        +1
002095: E6,1527  E6,1526               TJV                =        TJP        +2
002096:
002097: E6,1527                        L,PVT-CG           ERASE
002098: E6,1530                        1JACC              ERASE    +3
002099: E6,1534  E6,1531               1JACCQ             EQUALS   1JACC      +1                         #  SCALED AT PI/4 RADIANS/SECOND
002100: E6,1534  E6,1532               1JACCR             EQUALS   1JACC      +2
002101: E6,1534  E6,1533               1JACCU             EQUALS   1JACC      +3                         #  FOR U,V-AXES THE SCALE FACTOR IS  DIFF:
002102:                                                                                                  #  SCALED AT PI/2 RADIANS/SECOND (FOR ASC)
002103:                                                                                                  #  ASCENT VARIABLES:                                                       (10D)
002104:
002105:
002106: E6,1534                        SKIPU              ERASE    +1
002107: E6,1536  E6,1535               SKIPV              =        SKIPU      +1
002108:                                                                                                  #  THE FOLLOWING LM DAP ERASABLES ARE ZEROED IN THE STARTDAP SECTION OF THE DAPIDLER PROGRAM AND THE COASTASC
002109:                                                                                                  #  SECTION OF THE AOSTASK.  THE ORDER MUST BE PRESERVED FOR THE INDEXING METHODS WHICH ARE EMPLOYED IN THOSE
002110:                                                                                                  #  SECTIONS AND ELSEWHERE.
002111:
002112: E6,1536                        AOSQ               ERASE    +5                                    #  OFFSET ACC. ESTIMATES, UPDATED IN D.P.,
002113: E6,1544  E6,1540               AOSR               EQUALS   AOSQ       +2                         #  AND SCALED AT PI/2.
002114: E6,1544  E6,1542               AOSU               EQUALS   AOSQ       +4                         #  UV-AXES OFFSET ACC. FROMED BY VECTOR
002115: E6,1544  E6,1543               AOSV               EQUALS   AOSQ       +5                         #  ADDITION OF Q,R.  AT PI/2 RAD/SEC(2).
002116:
002117: E6,1544                        AOSQTERM           ERASE    +1                                    #  (.1-.05K)AOS
002118: E6,1546  E6,1545               AOSRTERM           EQUALS   AOSQTERM   +1                         #  SCALED AT PI/4 RADIANS/SECOND.
002119:
002120:                                                                                                  #  FOR TJET LAW SUBROUTINE:                                                (TEMPS ONLY)
002121:
002122:                                                                                                  # NUMBERT        EQUALS          DAPTEMP5                  DEFINED IN QRAXIS.
002123: E6,1546  E6,1736               EDOTSQ             EQUALS   DAPTEMP1
002124: E6,1546  E6,1737               ROTSENSE           EQUALS   DAPTEMP2
002125: E6,1546  E6,1740               FIREFCT            EQUALS   DAPTEMP3                              #  LOOKED AT BY PAXIS.
002126: E6,1546  E6,1741               TTOAXIS            EQUALS   DAPTEMP4
002127: E6,1546  E6,1743               ADRSDIF2           EQUALS   DAPTEMP6
002128: E6,1546  E6,1744               HOLDQ              EQUALS   DAPTREG1
002129: E6,1546  E6,1745               ADRSDIF1           EQUALS   DAPTREG2
002130: E6,1546  E6,1746               HH                 EQUALS   DAPTREG3                              #  DOUBLE PRECISION
002131:                                                                                                  # HH  +1         EQUALS          DAPTREG4
002132: E6,1546  E6,1751               E                  EQUALS   DAPTREG6                              #  TIME SHARE WITH VERROR
002133: E6,1546  E6,1427               EDOT               EQUALS   OMEGAV
002134:
002135:                                                                                                  #  INPUT TO TJET LAW (PERMANENT ERASABLES).                                (48D)
002136:


002138: E6,1546  E6,1525               TJETU              =        TJU                                   #  EQUATE NAMES.  INDEXED BY -1, 0, +1.
002139: E6,1546                        BLOCKTOP           ERASE    +47D
002140:                                                                                                  #                                                 * SEE AOSTASK AND AOSJOB LOG SECTION FOR ERASABLE DEFINITIONS
002141:                                                                                                  #                                                                          IN THIS AREA.
002142:
002143: E6,1626  E6,1566               1/ANET1            =        BLOCKTOP   +16D                       #  THESE 8 PARAMETERS ARE SET UP BY 1/ACCS
002144: E6,1626  E6,1567               1/ANET2            =        1/ANET1    +1                         #  FOR MINIMUM JETS ABOUT THE U-AXIS WHEN
002145: E6,1626  E6,1572               1/ACOAST           =        1/ANET1    +4                         #  EDOT IS POSITIVE.  TJETLAW INDEXES BY
002146: E6,1626  E6,1574               ACCFCTZ1           =        1/ANET1    +6                         #  ADRSDIFF FROM THESE REGISTERS TO PICK UP
002147: E6,1626  E6,1575               ACCFCTZ5           =        1/ANET1    +7                         #  PARAMETERS FOR THE PROPER AXIS, NUMBER
002148: E6,1626  E6,1600               FIREDB             =        1/ANET1    +10D                       #  OF JETS AND SIGN OF EDOT.  THERE ARE 48
002149: E6,1626  E6,1602               COASTDB            =        1/ANET1    +12D                       #  REGISTERS IN ALL IN THIS BLOCK.
002150: E6,1626  E6,1604               AXISDIST           =        1/ANET1    +14D                       #  FOUR NOT REFERENCED (P-AXIS) ARE FILLED
002151:                                                                                                  #    IN BY THE FOLLOWING:
002152: E6,1626  E6,1546               ACCSWU             =        BLOCKTOP                              #  SET BY 1/ACCS TO SHOW WHETHER MAXIMUM
002153: E6,1626  E6,1547               ACCSWV             =        ACCSWU     +1                         #  JETS ARE REQUIRED BECAUSE OF AOS.
002154: E6,1626  E6,1554               FLAT               =        BLOCKTOP   +6                         #  WIDTH OF MINIMUM IMPULSE ZONE.
002155: E6,1626  E6,1555               ZONE3LIM           =        BLOCKTOP   +7                         #  HEIGHT OF MINIMUM IMPULSE ZONE(AT 4 SEC)
002156:
002157: E6,1626                        COEFFQ             ERASE    +1                                    #  COEFFQ AND COEFFR ARE USED IN ROT-TOUV
002158: E6,1630  E6,1627               COEFFR             EQUALS   COEFFQ     +1                         #  TO RESOLVE Q,R COMPONENTS INTO U,V COMP.
002159:
002160:
002161:                                                                                                  #  VARIABLES FOR GTS-QRAXIS CONTROL EXCHANGE.                              (4)
002162:
002163: E6,1630  E6,1502               ALLOWGTS           EQUALS   NEGUQ      +1                         #  INSERT INTO UNUSED LOCATION
002164: E6,1630                        COTROLER           ERASE                                          #  INDICATES WHICH CONTROL SYSTEM TO USE.
002165: E6,1631                        QGIMTIMR           ERASE    +2                                    #  Q-GIMBAL DRIVE ITMER, DECISECONDS.
002166: E6,1634  E6,1632               INGTS              EQUALS   QGIMTIMR   +1                         #  INDICATOR OF CURRENT GTS CONTROL.
002167: E6,1634  E6,1633               RGIMTIMR           EQUALS   QGIMTIMR   +2                         #  R-GIMBAL DRIVE TIMER, DECISECONDS.
002168:
002169:                                                                                                  #  PLEASE RETAIN THE ORDER OF CDUXD THRU CDUZD FOR DOWNLINK PURPOSES.
002170:
002171:                                                                                                  #           KALCMANU:DAP INTERFACE.                                        (9D)
002172:
002173: E6,1634                        CDUXD              ERASE    +2                                    #  CDU DESIRED REGISTERS:
002174: E6,1637  E6,1635               CDUYD              EQUALS   CDUXD      +1                         #  SCALED AT PI RADIANS (180 DEGREES)
002175: E6,1637  E6,1636               CDUZD              EQUALS   CDUXD      +2                         #  (STORE IN 2S COMPLEMENT)
002176:
002177: E6,1637                        DELCDUX            ERASE    +2                                    #  NEGATIVE OF DESIRED 100MS CDU INCREMENT:
002178: E6,1642  E6,1640               DELCDUY            EQUALS   DELCDUX    +1                         #  SCALED AT PI RADIANS (180 DEGREES)
002179: E6,1642  E6,1641               DELCDUZ            EQUALS   DELCDUX    +2                         #  (STORE IN 2S COMPLEMENT)
002180:
002181:                                                                                                  #     RETAIN THE ORDER OF OMEGAPD TO OMEGARD FOR DOWNLINK PURPOSES.
002182: E6,1642                        OMEGAPD            ERASE    +2                                    #  ATTITUDE MANEUVER DESIRED RATES:
002183: E6,1645  E6,1643               OMEGAQD            EQUALS   OMEGAPD    +1                         #  (NOT EXPLICITLY REFERENCED IN GTS CNTRL)
002184: E6,1645  E6,1644               OMEGARD            EQUALS   OMEGAPD    +2                         #  SCALED AT PI/4 RADIANS/SECOND
002185:
002186:                                                                                                  #           KALCMANU STORAGE.                                              (24D)
002187:


002189: E6,1645                        MIS                ERASE    +23D                                  #  I(18D)
002190: E6,1675  E6,1667               COF                EQUALS   MIS        +18D                       #  I(6)
002191:
002192:
002193:                                                                                                  #           KALCMANU STORAGE.                                              (33D)
002194:
002195: E6,1675                        BCDU               ERASE    +30D                                  #  B(3)
002196: E6,1734  E6,1700               KSPNDX             EQUALS   BCDU       +3                         #  B(1)
002197: E6,1734  E6,1701               KDPNDX             EQUALS   KSPNDX     +1                         #  B(1)
002198:
002199: E6,1734  E6,1702               TMIS               EQUALS   KDPNDX     +1                         #  I(18) MUST BE IN SAME BANK AS RCS DAP
002200: E6,1734  E6,1724               COFSKEW            EQUALS   TMIS       +18D                       #  I(6)  MUST BE IN SAME BANK AS RCS DAP
002201: E6,1734  E6,1732               CAM                EQUALS   COFSKEW    +6                         #  I(2)  MUST BE IN SAME BANK AS RCS DAP
002202:
002203:
002204: E6,1734                        AM                 ERASE    +1                                    #  I(2) THIS WAS ONCE IN E5 OVERLAYING OGC
002205:
002206:
002207:                                                                                                  #  FIRST-ORDER OVERLAYS IN KALCMANU                                        (25D)
002208:
002209: E6,1736  E6,1702               MFISYM             EQUALS   TMIS                                  #  I
002210: E6,1736  E6,1702               TMFI               EQUALS   TMIS                                  #  I
002211: E6,1736  E6,1702               NCDU               EQUALS   TMIS                                  #  B
002212: E6,1736  E6,1705               NEXTIME            EQUALS   TMIS       +3                         #  B
002213: E6,1736  E6,1706               TTEMP              EQUALS   TMIS       +4                         #  B
002214: E6,1736  E6,1724               BRATE              EQUALS   COFSKEW                               #  B
002215: E6,1736  E6,1732               TM                 EQUALS   CAM                                   #  B
002216:
002217:                                                                                                  #  SECOND-ORDER OVERLAYS IN KALCMANU                                       (?)
002218:
002219: E6,1736  E6,1724               VECQTEMP           =        COFSKEW
002220:
002221: E6,1736  E6,1634               DCDU               =        CDUXD
002222: E6,1736  E6,1637               DELDCDU            =        DELCDUX
002223: E6,1736  E6,1640               DELDCDU1           =        DELCDUY
002224: E6,1736  E6,1641               DELDCDU2           =        DELCDUZ
002225:
002226:
002227:                                                                                                  #  *  *  *  *  *  *  *  *  *  *  *  *  *  *  *  *  *  *  *  *  *  *  *  *
002228:
002229:                                                                                                  #  STORAGE FOR FINDCDUW
002230:
002231:                                                                                                  #           OVERLAYING KALCMANU STORAGE:                                   (27D)
002232:
002233: E6,1736  E6,1645               ECDUW              EQUALS   MIS
002234: E6,1736  E6,1645               ECDUWUSR           EQUALS   ECDUW                                 #  B(1)TMP
002235: E6,1736  E6,1646               QCDUWUSR           EQUALS   ECDUWUSR   +1                         #  I(1)TMP
002236: E6,1736  E6,1647               NDXCDUW            EQUALS   QCDUWUSR   +1                         #  B(1)TMP
002237: E6,1736  E6,1650               FLAGOODW           EQUALS   NDXCDUW    +1                         #  B(1)TMP
002238: E6,1736  E6,1651               FLPAUTNO           EQUALS   FLAGOODW   +1                         #  B(1)TMP


002240: E6,1736  E6,1652               UNFC/2             EQUALS   FLPAUTNO   +1                         #  I(6)IN
002241: E6,1736  E6,1660               UNWC/2             EQUALS   UNFC/2     +6                         #  I(6)IN
002242: E6,1736  E6,1666               UNFV/2             EQUALS   UNWC/2     +6                         #  I(6)S-S
002243: E6,1736  E6,1666               UNFVX/2            =        UNFV/2
002244: E6,1736  E6,1670               UNFVY/2            =        UNFV/2     +2
002245: E6,1736  E6,1672               UNFVZ/2            =        UNFV/2     +4
002246: E6,1736  E6,1674               -DELGMB            EQUALS   UNFV/2     +6                         #  B(3)TMP
002247: E6,1736  E6,1677               OGABIAS            EQUALS   -DELGMB    +3                         #  B(1)IN
002248:
002249:                                                                                                  #           DEFINED IN THE WORK AREA:                                      (20D)
002250:
002251: E6,1736                        UNX/2              =        0
002252: E6,1736                        UNY/2              =        6
002253: E6,1736                        UNZ/2              =        14
002254: E6,1736                        2/PGCDUW           =        22
002255:
002256:                                                                                                  #  END OF FINDCDUW ERASABLES
002257:
002258:                                                                                                  #  *  *  *  *  *  *  *  *  *  *  *  *  *  *  *  *  *  *  *  *  *  *  *  *
002259:
002260:                                                                                                  #  * * * * * * * * * * * * * * * * * * * * * * * * * * * * * * * * * * * *
002261:
002262:                                                                                                  #  STORAGE FOR P57
002263:
002264:                                                                                                  #           OVERLAYING KALCMANU AND FINDCDUW STORAGE:                      (12D)
002265:
002266: E6,1736  E6,1645               VEC1               EQUALS   MIS                                   #  I(6)TMP
002267: E6,1736  E6,1653               VEC2               EQUALS   VEC1       +6                         #  I(6)TMP
002268:
002269:                                                                                                  #  END OF P57 ERASABLES
002270:
002271:                                                                                                  #  * * * * * * * * * * * * * * * * * * * * * * * * * * * * * * * * * * * *
002272:
002273:                                                                                                  #  THE FOLLOWING ARE THE DAP REPLACEMENTS FOR THE ITEMPS AND RUPTREGS,NEEDED BECAUSE DAP IS NOW A TOB,JASK,JAB,TOSK
002274:                                                                                                  #  ...ANYWAY, THE DAP CAN NOW BE INTERRUPTED.                              (18D)
002275:
002276: E6,1736                        DAPTEMP1           ERASE    +17D
002277: E6,1760  E6,1737               DAPTEMP2           EQUALS   DAPTEMP1   +1
002278: E6,1760  E6,1740               DAPTEMP3           EQUALS   DAPTEMP1   +2
002279: E6,1760  E6,1741               DAPTEMP4           EQUALS   DAPTEMP1   +3
002280: E6,1760  E6,1742               DAPTEMP5           EQUALS   DAPTEMP1   +4
002281: E6,1760  E6,1743               DAPTEMP6           EQUALS   DAPTEMP1   +5
002282: E6,1760  E6,1744               DAPTREG1           EQUALS   DAPTEMP1   +6
002283: E6,1760  E6,1744               OLDSENSE           EQUALS   DAPTREG1                              #  B(1)TMP RCS JET CONTROL
002284: E6,1760  E6,1745               DAPTREG2           EQUALS   DAPTEMP1   +7
002285: E6,1760  E6,1746               DAPTREG3           EQUALS   DAPTEMP1   +8D
002286: E6,1760  E6,1747               DAPTREG4           EQUALS   DAPTEMP1   +9D
002287: E6,1760  E6,1750               DAPTREG5           EQUALS   DAPTEMP1   +10D
002288: E6,1760  E6,1751               DAPTREG6           EQUALS   DAPTEMP1   +11D
002289:


002291: E6,1760  E6,1752               DAPARUPT           EQUALS   DAPTEMP1   +12D
002292: E6,1760  E6,1753               DAPLRUPT           EQUALS   DAPARUPT   +1
002293: E6,1760  E6,1754               DAPBQRPT           EQUALS   DAPARUPT   +2
002294: E6,1760  E6,1756               DAPZRUPT           EQUALS   DAPARUPT   +4
002295:
002296:                                                                                                  #  (DAPZRUPT IS ALSO JASK-IN-PROGRESS FLAG)
002297:
002298:
002299:
002300:                                                                                                  #           NEEDLER(ATTITUDE ERROR EIGHT BALL DISPLAY) STORAGE.            (6D)
002301:
002302: E6,1760     0061               T5TEMP             EQUALS   ITEMP1
002303: E6,1760     0063               DINDX              EQUALS   ITEMP3
002304: E6,1760                        AK                 ERASE    +2                                    #  NEEDLER ATTITUDE INPUTS, SCALED AT 180
002305: E6,1763  E6,1761               AK1                EQUALS   AK         +1                         #  DEGREES.  P,Q,R AXES IN AK,AK1,AK2.
002306: E6,1763  E6,1762               AK2                EQUALS   AK         +2
002307:
002308: E6,1763                        EDRIVEX            ERASE    +2                                    #  NEEDLER DISPLAY REGS AT 1800 DEGREES.
002309: E6,1766  E6,1764               EDRIVEY            EQUALS   EDRIVEX    +1                         #  SO THAT 384 BITS REPRESENT 42 3/16 DEG.
002310: E6,1766  E6,1765               EDRIVEZ            EQUALS   EDRIVEX    +2
002311:
002312:
002313:                                                                                                  #           DOCKED JET INHIBITION COUNTERS                                 (3D)
002314:
002315: E6,1766                        PJETCTR            ERASE    +2
002316: E6,1771  E6,1767               UJETCTR            EQUALS   PJETCTR    +1
002317: E6,1771  E6,1770               VJETCTR            EQUALS   PJETCTR    +2
002318:
002319:                                                                                                  #  V47 (R47) AGS INITIALIZATION STORAGE -PAD LOADED.                       (2D)
002320:
002321: E6,1771                        AGSK               ERASE    +1                                    #  I(2) PL
002322:
002323:                                                                                                  #  WINDOW BIAS PADLOAD                                                     (1D)
002324:
002325: E6,1773                        AZBIAS             ERASE                                          #  B(1) PL LPD AZIMUTH BIAS, UNITS - PI RAD
002326:
002327: E6,1774  E6,1774               END-E6             EQUALS   AZBIAS     +1                         #  NEXT AVAILABLE E6 LOCATION
002328:


002330:                                                                                                  #                  EBANK-7 ASSIGNMENTS
002331:
002332: E7,1400                                           SETLOC   3400
002333:
002334:                                                                                                  #           P35 CONSTANTS.         -PAD LOADED-                            (4D)
002335:
002336: E7,1400                        ATIGINC            ERASE    +1                                    #  B(2)PL  *MUST BE AT 1400 FOR SYSTEMSTEST
002337: E7,1402                        PTIGINC            ERASE    +1                                    #  B(2)PL
002338:
002339:
002340:                                                                                                  #           AOTMARK STORAGE.       -PAD LOADED-                            (12D)
002341:
002342: E7,1404                        AOTAZ              ERASE    +5                                    #  B(6)PL
002343: E7,1412                        AOTEL              ERASE    +5                                    #  B(6)PL
002344:
002345:                                                                                                  #           LANDING RADAR.         -PAD LOADED-                            (3D)
002346:
002347: E7,1420                        LRHMAX             ERASE                                          #  B(1)
002348: E7,1421                        LRWH               ERASE                                          #  B(1)
002349:
002350:
002351:
002352:                                                                                                  #           THROTTLE STORAGE.      -PAD LOADED-                            (1D)
002353:
002354: E7,1422                        ZOOMTIME           ERASE                                          #  B(1)PL TIME OF DPS THROTTLE-UP COMMAND
002355:
002356:                                                                                                  #           P63 AND P64 CONSTANTS.    -PAD LOADED-                         (4D)
002357:
002358: E7,1423                        TENDBRAK           ERASE                                          #  B(1) LANDING PHASE SWITCHING CRITERION
002359: E7,1424                        TENDAPPR           ERASE                                          #  B(1) LANDING PHASE SWITCHING CRITERION
002360: E7,1425                        DELTTFAP           ERASE                                          #  B(1) INCREMENT ADDED TO TTF/8 WHEN
002361:                                                                                                  #        SWITCHING FROM P63 TO P64
002362: E7,1426                        LEADTIME           ERASE                                          #  B(1)  TIME INCREMENT SPECIFYING HOW MUCH
002363:                                                                                                  #        GUIDANCE IS PROJECTED FORWARD.
002364:
002365:
002366:                                                                                                  #           LANDING RADAR      -PAD LOADED-                                (2D)
002367:
002368: E7,1427                        RPCRTIME           ERASE                                          #  B(1) REPOSITIONING CRITERION  (TIME)
002369: E7,1430                        RPCRTQSW           ERASE                                          #  B(1) REPOSITIONING CRITERION (ANGLE)
002370:
002371:                                                                                                  #           ASTEER    -PAD LOADED-                                         (2D)
002372:
002373: E7,1431                        TNEWA              ERASE    +1                                    #  I(2)PL  LAMBERT CYCLE PERIOD
002374:
002375:
002376:                                                                                                  #           P22 STORAGE  - OVERLAYS LANDING PADLOADS -                     (5D)
002377:


002379: E7,1433  E7,1423               REPOSCNT           EQUALS   TENDBRAK                              #  B(1)TMP  COUNTS NUMBER OF PASSES THROUGH
002380:                                                                                                  #           REPOSITION ROUTINE.
002381: E7,1433  E7,1424               REPOSTM            EQUALS   REPOSCNT   +1                         #  I(2)TMP  PRESENT TIME PLUS INCREMENTS OF
002382:                                                                                                  #           TEN SECONDS.
002383: E7,1433  E7,1426               DELTATM            EQUALS   REPOSTM    +2                         #  I(2)TMP  TIME INTERVAL FOR RUNNING
002384:                                                                                                  #           DESIGNATE TASK.
002385:
002386:
002387:                                                                                                  #  *** RETAIN THE ORDER OF DELVSLV, TIG, RTARG, DELLT4 FOR UPDATE. ***
002388:
002389:
002390:                                                                                                  #           P40S, P32-P35  P72-P75 STORAGE                                 (6D)
002391:
002392: E7,1433                        DELVLVC            ERASE    +5                                    #  I(6) DELTA VELOCITY - LOCAL VERTICAL COO
002393: E7,1441  E7,1433               DELVSLV            =        DELVLVC                               #  (TEMP STORAGE OF SAME VECTOR)   -RDINATE
002394:
002395:
002396:
002397:                                                                                                  #           P30-P40 INTERFACE UNSHARED.                                    (2D)
002398:
002399:                                                                                                  #  ******* NOTE:  TIG IS USED BY ALL POWERED FLIGHT PROGRAMS        *******
002400:                                                                                                  #  *******              INCLUDING P12, ABORTS, AND LUNAR LANDING.  ********
002401:
002402: E7,1441                        TIG                ERASE    +1                                    #  B(2)
002403:
002404:
002405:                                                                                                  #           INITVEL STORAGE:  USED BY P34,35,74,75, P40-42                 (8D)
002406:
002407: E7,1443                        RTARG              ERASE    +5                                    #  I(6) TARGET VECTOR
002408: E7,1451                        DELLT4             ERASE    +1                                    #  I(2) TIME DIFFERENCE
002409:
002410:
002411:                                                                                                  #           LANDING RADAR - R12   (OVERLAY)                                (2D)
002412:
002413: E7,1453  E7,1451               HLROFF             EQUALS   DELLT4                                #  B(1),I(2) TMP   NO LANDING RADAR UPDATES
002414:
002415:
002416:                                                                                                  #           CLOKTASK, BURNBABY                                             (3D)
002417:
002418: E7,1453                        TTOGO              ERASE    +1                                    #  B(2)
002419: E7,1455                        WHICH              ERASE                                          #  B(1)
002420:
002421:
002422:                                                                                                  #           *** R21 ***                                                    (1D)
002423:
002424: E7,1456                        LOSCOUNT           ERASE                                          #  B(1)
002425:
002426:
002427:                                                                                                  #           LSR22.3 (RNDEZVOUS NAVIGATION) AND
002428:                                                                                                  #           LANDING  RADAR -- VELUPDAT (SERVICER), P63, AND R12.           (4D)
002429:


002431:                                                                                                  #  ***** NOTE: AOG, AMG, AND AIG ARE USED BY LANDING RADAR AS WELL AS RR.
002432:                                                                                                  #  *****       R12DL STORES CDUS THERE FOR DOWNLINKING ON DESCENT/ASCENT DL
002433:                                                                                                  #  *****       MOREOVER, TRKMKCNT SHARES WITH VSELECT, ALSO SET UP BY R12DL
002434:                                                                                                  #  *****           (DOWNLINKED ON THE DESCENT/ASCENT LIST AS THE
002435:                                                                                                  #  *****             LOW ORDER PART OF AOG TELEMETRY WORD)
002436:                                                                                                  #  *****                AND USED IN SERVICER, P63 RESTART, AND R12READ.
002437:
002438:                                                                                                  #     RETAIN THE ORDER OF AIG TO TRKMKCNT FOR DOWNLINK PURPOSES.
002439: E7,1457                        AIG                ERASE                                          #  B(1)OUT  GIMGAL ANGLES
002440: E7,1460                        AMG                ERASE                                          #  B(1)OUT  (MUST BE
002441: E7,1461                        AOG                ERASE                                          #  B(1)OUT   CONSECUTIVE)
002442:
002443: E7,1462                        TRKMKCNT           ERASE                                          #  B(1)TMP  TEMPORARY MARK STORAGE.
002444: E7,1463  E7,1462               MARKCTR            =        TRKMKCNT
002445:
002446:
002447: E7,1463  E7,1462               VSELECT            EQUALS   TRKMKCNT                              #  B(1) X,Y OR Z LR BEAM ASSOC WITH VMEAS.
002448:
002449:
002450:                                                                                                  #           P32-P35, P72-P75 STORAGE.  -PERMANENT-                         (6)
002451:
002452: E7,1463                        NORMEX             ERASE                                          #  B(1) PRM SAVE FOR Q
002453: E7,1464                        QSAVED             ERASE                                          #  B(1) PRM SAVE FOR Q
002454: E7,1465                        RTRN               ERASE                                          #  B(1) PRM SAVE FOR Q
002455: E7,1466                        NN                 ERASE    +1                                    #  B(2)
002456: E7,1470                        SUBEXIT            ERASE                                          #  B(1) PRM SAVE Q
002457:
002458:
002459: E7,1471                        E7OVERLA           EQUALS                                         #  START OF E7 OVERLAYS.
002460: E7,1471  E7,1471               WHOCARES           EQUALS   E7OVERLA                              #  DUMMY FOR EBANK INSENSITIVE 2CADRS
002461:
002462:                                                                                                  #           LUNAR LANDING OVERLAYS                                         (6D)
002463:
002464: E7,1471  E7,1463               /AFC/              EQUALS   NORMEX                                #  B(2)TMP    THROTTLE
002465: E7,1471  E7,1465               FCODD              EQUALS   /AFC/      +2                         #  B(2)TMP    THROTTLE
002466: E7,1471  E7,1467               FP                 EQUALS   FCODD      +2                         #  B(2)TMP    THROTTLE
002467:
002468:


002470:                                                                                                  #  *******  OVERLAY NUMBER 0 IN EBANK 7  *******
002471:
002472:
002473:
002474:                                                                                                  #  RENDEZVOUS GUIDANCE STORAGE -P32....P35-                                (89D)
002475:
002476: E7,1471  E7,1611               TSTRT              EQUALS   DELDV                                 #  MIDCOURSE START TIME
002477: E7,1471  E7,1573               TDEC2              EQUALS   DELVCSI                               #  TEMP STORAGE FOR INTEGRATION TIME INPUT
002478: E7,1471  E7,1575               KT                 EQUALS   DELVTPI                               #  TEMP STORAGE FOR MIDCOURSE DELTA TIME
002479: E7,1471                        VACT1              ERASE    +5D                                   #  VELOCITY VECTOR OF ACTIVE  AT CSI TIME
002480: E7,1477                        RPASS1             ERASE    +5D                                   #  POSITION VECTOR OF PASSIVE AT CSI TIME
002481: E7,1505                        VPASS1             ERASE    +5D                                   #  VELOCITY VECTOR OF PASSIVE AT CSI TIME
002482: E7,1513                        VACT2              ERASE    +5D                                   #  VELOCITY VECTOR OF ACTIVE  AT CDH TIME
002483: E7,1521                        RPASS2             ERASE    +5D                                   #  POSITION VECTOR OF PASSIVE AT CDH TIME
002484: E7,1527                        VPASS2             ERASE    +5D                                   #  VELOCITY VECTOR OF PASSIVE AT CDH TIME
002485: E7,1535                        RACT3              ERASE    +5D                                   #  POSITION VECTOR OF ACTIVE  AT TPI TIME
002486: E7,1543                        VACT3              ERASE    +5D                                   #  VELOCITY VECTOR OF ACTIVE  AT TPI TIME
002487: E7,1551                        RPASS3             ERASE    +5D                                   #  POSITION VECTOR OF PASSIVE AT TPI TIME
002488: E7,1557                        VPASS3             ERASE    +5D                                   #  VELOCITY VECTOR OF PASSIVE AT TPI TIME
002489: E7,1565                        VACT4              ERASE    +5D                                   #  VELOCITY VECTOR OF ACTIVE  AT INTERCEPT
002490: E7,1573  E7,1543               UNVEC              EQUALS   VACT3                                 #  CDHMVR UNIT VECTOR TEMP STORAGE.
002491: E7,1573                        DELVCSI            ERASE    +1D                                   #  THRUST VALUE AT CSI
002492: E7,1575                        DELVTPI            ERASE    +1D                                   #  THRUST VALUE AT TPI OR MID
002493: E7,1577                        DIFFALT            ERASE    +1D                                   #  ALT DIFFERENCE AT CDH
002494: E7,1601                        POSTCSI            ERASE    +1                                    #  PERIGEE ALTITUDE AFTER CSI MANEUVER
002495: E7,1603                        POSTCDH            ERASE    +1                                    #  PERIGEE ALTITUDE AFTER CDH MANEUVER
002496: E7,1605                        POSTTPI            ERASE    +1                                    #  PERIGEE ALTITUDE AFTER TPI MANEUVER
002497: E7,1607  E7,1605               LOOPCT             EQUALS   POSTTPI                               #  CSI NEWTON ITERATION COUNTER
002498: E7,1607  E7,1603               HAFPA1             EQUALS   POSTCDH                               #  HALF PERIOD
002499: E7,1607                        GAMPREV            ERASE    +1                                    #  PREVIOUS GAMMA
002500: E7,1611  E7,1575               DVPREV             EQUALS   DELVTPI                               #  PREVIOUS DELVCSI
002501: E7,1611                        DELDV              ERASE    +1D
002502: E7,1613                        CSIALRM            ERASE    +1                                    #  FIRST SOLUTION ALARM
002503: E7,1615                        VERBNOUN           ERASE
002504: E7,1616  E7,1613               TITER              EQUALS   CSIALRM                               #  ITERATION COUNTER
002505: E7,1616                        RDOTV              ERASE    +1
002506: E7,1620  E7,1505               VAPREC             EQUALS   VPASS1                                #  I(6) S-S PREC VEC FOR NOM TPI TIME(ACT V
002507: E7,1620  E7,1477               RAPREC             EQUALS   RPASS1                                #  I(6) S-S PREC VEC FOR NOM TPI TIME(ACT V
002508: E7,1620  E7,1527               VPPREC             EQUALS   VPASS2                                #  I(6) S-S PREC VEC FOR NOM TPI TIME(PASS
002509: E7,1620  E7,1521               RPPREC             EQUALS   RPASS2                                #  I(6) S-S PREC VEC FOR NOM TPI TIME(PASS
002510: E7,1620  E7,1575               DELEL              EQUALS   DELVTPI                               #  I(2) S-S
002511: E7,1620  E7,1573               SECMAX             EQUALS   DELVCSI                               #  I(2) S-S MAX STOP SIZE FOR ROUTINE
002512: E7,1620  E7,1605               DELTEEO            EQUALS   POSTTPI                               #  I(2) S-S BACK VALUES OF DELTA TIME
002513: E7,1620                        CENTANG            ERASE    +1                                    #  I(2) S-S CENTRAL ANGLE COVERED(TPI-TPF)
002514:
002515:
002516:
002517:
002518:                                                                                                  #           SOME P47 STORAGE                                               (6D)
002519:


002521: E7,1622                        DELVIMU            ERASE    +5                                    #  I(6)DSP N83 FOR P47 DELTA V IN BODY COOR
002522:
002523:
002524:                                                                                                  #           P34-35-40-41-42 INTERFACE                                      (2D)
002525:
002526: E7,1630                        TPASS4             ERASE    +1                                    #  INTERCEPT TIME
002527:
002528:
002529:
002530:                                                                                                  #           P30-P40-41-42 COMMON STORAGE                                   (1D)
002531:
002532: E7,1632                        QTEMP              ERASE                                          #  I(1)TMP COMMON RETURN SAVE REGISTER.
002533:
002534:
002535:
002536:                                                                                                  #           P32,33,34 STORAGE.                                             (6D)
002537:
002538: E7,1633                        TCSI               ERASE    +1                                    #  B(2) TMP CSI TIME IN CENTISECONDS
002539: E7,1635                        TTPI               ERASE    +1                                    #  B(2) TMP TPI TIME IN CENTISECONDS
002540: E7,1637                        TTPIO              ERASE    +1                                    #  B(2) TMP TTPI STORAGE FOR RECYCLE
002541:
002542:
002543:                                                                                                  #           P30,P40 INTERFACE.                                             (20D)
002544:
002545: E7,1641                        RTIG               ERASE    +19D                                  #  I(6)TMP
002546: E7,1665  E7,1647               VTIG               EQUALS   RTIG       +6                         #  I(6)TMP
002547: E7,1665  E7,1655               DELVSIN            EQUALS   VTIG       +6                         #  I(6)TMP
002548: E7,1665  E7,1663               DELVSAB            EQUALS   DELVSIN    +6                         #  I(2)TMP
002549: E7,1665  E7,1663               VGDISP             =        DELVSAB
002550:
002551:
002552:                                                                                                  #           P40-P42 TEMPORARY                                              (1D)
002553:
002554: E7,1665                        QTEMP1             ERASE                                          #  I(1)TMP HOLDS RETURN.
002555:
002556:
002557:
002558:                                                                                                  #           R52 TEMPORARY                                                  (1D)
002559:
002560: E7,1666  E7,1665               SAVQR52            EQUALS   QTEMP1
002561:
002562:
002563:                                                                                                  #           INITVEL STORAGE.  (IN OVERLAY 0 AND OVERLAY 1.                 (2D)
002564:                                                                                                  #                  (CALLS LAMBERT, CONIC SUBROUTINES)
002565:
002566: E7,1666  E7,1565               VTPRIME            EQUALS   VACT4                                 #  TOTAL VELOCITY AT DESIRED RADIUS
002567: E7,1666  E7,1616               ITCTR              EQUALS   RDOTV                                 #  ITERATION COUNTER
002568: E7,1666                        COZY4              ERASE    +1                                    #  COS OF ANGLE WHEN ROTATION STARTS
002569: E7,1670  E7,1607               INTIME             EQUALS   GAMPREV                               #  TIME OF RINIT
002570:


002572:                                                                                                  #           PERIAPO STORAGE. (2D)                                          (2D)
002573:
002574: E7,1670                        XXXALT             ERASE    +1                                    #  RADIUS TO LAUNCH PAD OR LANDING SIGHT
002575:
002576:                                                                                                  #           S40.1 STORAGE.                                                 (12D)
002577:
002578: E7,1672                        UT                 ERASE    +11D                                  #  I(6)    THRUST DIRECTION
002579: E7,1706  E7,1700               VGTIG              EQUALS   UT         +6                         #  I(6)OUT
002580: E7,1706  E7,1700               VGPREV             =        VGTIG
002581:                                                                                                  #  ASTEER STORAGE.                                                         (22D)
002582:
002583: E7,1706                        VG                 ERASE    +21D                                  #  I(6)
002584: E7,1734  E7,1714               RMAG               EQUALS   VG         +6                         #  I(2)
002585: E7,1734  E7,1716               MUASTEER           EQUALS   RMAG       +2                         #  I(2)
002586: E7,1734  E7,1720               MU/A               EQUALS   MUASTEER   +2                         #  I(2)
002587: E7,1734  E7,1722               RTMAG              EQUALS   MU/A       +2                         #  I(2)
002588: E7,1734  E7,1724               R1C                EQUALS   RTMAG      +2                         #  I(6)
002589: E7,1734  E7,1732               SS                 EQUALS   R1C        +6                         #  I(2)
002590:
002591:                                                                                                  #           ASTEER                                                         (11D)
002592:
002593: E7,1734  E7,1655               IC                 =        DELVSIN                               #  I(6)  CHORD VECTOR:  RTARG VEC - POS VEC
002594: E7,1734  E7,1762               TIGSAVE            =        P21TIME                               #  I(2)  USED TO DETERMINE WHEN YOU
002595: E7,1734  E7,1764               TIGSAVEP           =        SCAXIS                                #  I(2)   WANT TO DO ASTEER NEXT
002596: E7,1734  E7,1766               MUSCALE            =        SCAXIS     +2                         #  I(1)  HOLDS INDEX VALUE
002597:
002598:
002599:                                                                                                  #           P40 STORAGE.                                                   (8D)
002600:
002601:                                                                                                  #                F,MDOT,AND TDECAY MUST BE CONTIGUOUS FOR VLOAD.
002602: E7,1734                        F                  ERASE    +5                                    #  I(2)TMP THRUST MAG 10**4 NEWTONS (B-7)
002603: E7,1742  E7,1736               MDOT               EQUALS   F          +2                         #  I(2)TMP MASS CHNG RATE, KG/CS AT 2**3.
002604: E7,1742  E7,1740               TDECAY             EQUALS   MDOT       +2                         #  I(2)IN  DELTA-T TAILOFF, (2**28)CS.
002605: E7,1742                        VEX                ERASE    +1                                    #  I(2) EXHAUST VELOCITY FOR TGO COMPUTAT'N
002606:
002607:
002608:
002609:                                                                                                  #          MIDTOAV1(2) STORAGE. (CALLED BY P40,P41,P42)                    (1D)
002610:
002611: E7,1744                        IRETURN1           ERASE                                          #  B(1)     RETURN FROM MIDTOAV1 AND 2
002612:
002613:


002615:                                                                                                  #  ******* OVERLAY NUMBER 1 IN EBANK 7  *******
002616:
002617:
002618:
002619:                                                                                                  #          INITVEL  (CALLED BY P34,35,38,39,10,11,S40.9,S40.1)             (6D)
002620:
002621: E7,1745  E7,1471               RTARG1             EQUALS   VACT1                                 #  I(6)S TEMP STORAGE OF RTARG
002622:
002623:
002624:                                                                                                  #          P35-P40 INTERFACE.                                              (6D)
002625:
002626: E7,1745  E7,1505               VPASS4             EQUALS   VPASS1                                #  I(6)TMP VELOCITY OF PASSIVE AT INTERCEPT
002627:
002628:
002629:                                                                                                  #           LAT - LONG TEMPORARIES. CAN OVERLAY WITH S40.1                 (3D)
002630:
002631: E7,1745  E7,1672               ERADM              EQUALS   UT                                    #  I(2)
002632: E7,1745  E7,1674               INCORPEX           EQUALS   ERADM      +2                         #  I(1)
002633:
002634:
002635:                                                                                                  #           LRS24.1 STORAGE. (CAN SHARE WITH P30'S)                        (40D)
002636:
002637: E7,1745  E7,1675               RLMSRCH            EQUALS   INCORPEX   +1                         #  I(6) TMP LM POSITION VECTOR
002638: E7,1745  E7,1703               VXRCM              EQUALS   RLMSRCH    +6                         #  I(6)    CM V X R VECTOR
002639: E7,1745  E7,1711               LOSDESRD           EQUALS   VXRCM      +6                         #  I(6)    DESIRED LOS VECTOR
002640: E7,1745  E7,1717               UXVECT             EQUALS   LOSDESRD   +6                         #  I(6)    X-AXIS SRCH PATTERN COORDS
002641: E7,1745  E7,1725               UYVECT             EQUALS   UXVECT     +6                         #  I(6)    Y-AXIS SRCH PATTERN COORDS
002642: E7,1745  E7,1733               DATAGOOD           EQUALS   UYVECT     +6                         #  B(1)DSP FOR R1 - ALL 1-S WHEN LOCKON
002643: E7,1745  E7,1734               OMEGDISP           EQUALS   DATAGOOD   +1                         #  B(2)    ANGLE OMEGA DISPLAYED IN R2
002644: E7,1745  E7,1734               OMEGAD             =        OMEGDISP                              #          PINBALL DEFINITION.
002645: E7,1745  E7,1736               NSRCHPNT           EQUALS   OMEGDISP   +2                         #  B(1)TMP SEARCH PATTERN POINT COUNTER.
002646: E7,1745  E7,1737               SAVLEMV            EQUALS   NSRCHPNT   +1                         #  I(6) S-S SAVES LOSVEL
002647:
002648:
002649:
002650:


002652:                                                                                                  #  ******* OVERLAY NUMBER 2 IN EBANK 7  *******
002653:
002654:
002655:
002656:                                                                                                  #           INCORP STORAGE IN E7.                                          (47D)
002657:
002658: E7,1745  E7,1471               TX789              EQUALS   E7OVERLA                              #  I(6)
002659: E7,1745  E7,1477               GAMMA              EQUALS   TX789      +6                         #  I(3)
002660: E7,1745  E7,1502               OMEGA              EQUALS   GAMMA      +3                         #  I(18)
002661: E7,1745  E7,1524               BVECTOR            EQUALS   OMEGA      +18D                       #  I(18)
002662: E7,1745  E7,1546               DELTAQ             EQUALS   BVECTOR    +18D                       #  I(2)
002663:                                                                                                  #           AOTMARK STORAGE                                                (3D)
002664:
002665: E7,1745  E7,1550               MARKCNTR           EQUALS   DELTAQ     +2                         #  I(1)
002666: E7,1745  E7,1551               XYMARK             EQUALS   MARKCNTR   +1                         #  B(1)
002667: E7,1745  E7,1552               MKDEX              EQUALS   XYMARK     +1                         #  B(1)TMP INDEX FOR AOTMARK
002668:
002669:
002670:                                                                                                  #           PLANET STORAGE.                                                (8D)
002671:
002672: E7,1745  E7,1553               PLANVEC            EQUALS   MKDEX      +1                         #  (6) REFER VECTOR OF PLANET
002673: E7,1745  E7,1561               TSIGHT             EQUALS   PLANVEC    +6                         #  (2) TIME OF MARK OR EST TIME OF MARK
002674:
002675:
002676:
002677:                                                                                                  #           LRS22.3 STORAGE. (CAN SHARE WITH P30'S AND OVERLAY LRS24.1     (30D).
002678:
002679: E7,1745  E7,1675               LGRET              EQUALS   RLMSRCH                               #  I(1) TMP
002680: E7,1745  E7,1675               RDRET              EQUALS   LGRET                                 #  B(1)  TEMP RETURN.
002681: E7,1745  E7,1675               IGRET              EQUALS   LGRET                                 #  B(1)  TEMP RETURN.
002682: E7,1745  E7,1676               MX                 EQUALS   RDRET      +1                         #  I(6)
002683: E7,1745  E7,1704               MY                 EQUALS   MX         +6                         #  I(6)
002684: E7,1745  E7,1712               MZ                 EQUALS   MY         +6                         #  I(6)
002685: E7,1745  E7,1720               SCALSHFT           EQUALS   MZ         +6                         #  B(1) SCALE SHIFT FOR EARTH/MOON
002686: E7,1745  E7,1721               RXZ                EQUALS   SCALSHFT   +1                         #  I(2)
002687: E7,1745  E7,1723               ULC                EQUALS   RXZ        +2                         #  I(6)
002688: E7,1745  E7,1731               SINTHETA           EQUALS   ULC        +6                         #  I(2)
002689:
002690:
002691:                                                                                                  #       ***** IN OVERLAY ONE *****
002692:
002693:                                                                                                  #           R22 / NOUN 49 DISPLAY
002694:
002695: E7,1745  E7,1746               N49FLAG            EQUALS   RDOTMSAV                              #  B(1)S    FLAG INDICATING V0649 RESPONSE
002696:
002697:
002698:                                                                                                  #           LRS22.1 STORAGE. (MUST NOT SHARE WITH P30'S)                   (13D)
002699:
002700:                                                                                                  #           (OUTPUTS ARE TO LRS22.3)
002701:
002702: E7,1745  E7,1733               RRTRUN             EQUALS   SINTHETA   +2                         #  B(2)OUT  RR TRUNION ANGLE


002704: E7,1745  E7,1735               RRSHAFT            EQUALS   RRTRUN     +2                         #  B(2)OUT RR SHAFT ANGLE
002705: E7,1745  E7,1737               LRS22.1X           EQUALS   RRSHAFT    +2                         #  B(1)TMP
002706: E7,1745  E7,1740               RRBORSIT           EQUALS   LRS22.1X   +1                         #  I(6) TMP RADAR BORESIGHT VECTOR.
002707: E7,1745  E7,1746               RDOTMSAV           EQUALS   RRBORSIT   +6                         #  B(2) S    RR RANGE-RATE(FPS)
002708:
002709:
002710:                                                                                                  #           LRS22.1  (SAME AS PREVIOUS SECTION) ALSO DOWNLINK FOR RR  (R29)(10D)   CANNOT SHARE WITH L.A.D.
002711:
002712: E7,1745  E7,1750               RDOTM              EQUALS   RDOTMSAV   +2                         #  B(2)OUT  RANGE-RATE READING
002713: E7,1745  E7,1752               TANGNB             EQUALS   RDOTM      +2                         #  B(2)TMP  RR GIMBAL ANGLES
002714:                                                                                                  #           RETAIN THE ORDER OF MKTIME TO RM FOR DOWNLINK PURPOSES
002715: E7,1745  E7,1754               MKTIME             EQUALS   TANGNB     +2                         #  B(2)OUT  TIME OF RR READING
002716: E7,1745  E7,1756               RM                 EQUALS   MKTIME     +2                         #  I(2)OUT  RANGE READING
002717: E7,1745  E7,1760               RANGRDOT           EQUALS   RM         +2                         #  B(2) DOWNLINKED RAW RANGE AND RRATE
002718:
002719:                                                                                                  #           R61LEM - PREFERRED TRACKING ATTITUDE ROUTINE  **IN OVERLAY ONE*
002720:                                                                                                  #                    (CALLED BY P20,R22LEM,LSR22.3)                        (1D)
002721:
002722: E7,1745  E7,1745               R65CNTR            EQUALS   RRBORSIT   +5                         #  B(1)SS  COUNT NUMBER OF TIMES PREFERRED
002723:                                                                                                  #          TRACKING ROUTINE IS TO CYCLE
002724:
002725:
002726:                                                                                                  #           P21 STORAGE                                                    (2D)
002727:
002728: E7,1745  E7,1762               P21TIME            EQUALS   RANGRDOT   +2                         #  I(2)TMP
002729:
002730:
002731:                                                                                                  #           INPUTS TO VECPOINT. CALLED BY R60-65 (ATTITUDE MANEUVERS)      (12D)
002732:
002733: E7,1745  E7,1764               SCAXIS             EQUALS   P21TIME    +2                         #  I(6)
002734: E7,1745  E7,1772               POINTVSM           EQUALS   SCAXIS     +6                         #  I(6)
002735:
002736:


002738:                                                                                                  #  *******  OVERLAY NUMBER 3 IN EBANK 7  *******
002739:
002740:
002741:
002742:                                                                                                  #           SERVICER STORAGE                                               (6D)
002743:
002744: E7,1745  E7,1471               ABVEL              EQUALS   E7OVERLA                              #  B(2)  DISPLAY
002745: E7,1745  E7,1473               HDOTDISP           EQUALS   ABVEL      +2                         #  B(2)  DISPLAY
002746: E7,1745  E7,1475               TTFDISP            EQUALS   HDOTDISP   +2                         #  B(2)  DISPLAY
002747:
002748:
002749:                                                                                                  #           ASCENT GUIDANCE FOR LUNAR LANDING                              (2D)
002750:
002751: E7,1745  E7,1473               RDOT               EQUALS   HDOTDISP                              #  I(2)
002752:
002753:
002754:                                                                                                  #           BURN PROG STORAGE.                                             (2D)
002755:
002756: E7,1745  E7,1477               SAVET-30           EQUALS   TTFDISP    +2                         #  B(2)TMP TIG-30 RESTART
002757:
002758:
002759:                                                                                                  #           SERVICER STORAGE.                                              (69D)
002760:
002761: E7,1745  E7,1501               VGBODY             EQUALS   SAVET-30   +2                         #  B(6)OUT SET.BY S41.1 VG LEM, SC.COORDS
002762: E7,1745  E7,1501               DELVCTL            =        VGBODY
002763: E7,1745  E7,1507               DVTOTAL            EQUALS   VGBODY     +6                         #  B(2) DISPLAY NOUN
002764: E7,1745  E7,1511               GOBLTIME           EQUALS   DVTOTAL    +2                         #  B(2) NOMINAL TIG FOR CALC. OF GOBLATE.
002765: E7,1745  E7,1513               DVCNTR             EQUALS   GOBLTIME   +2                         #  B(1)
002766: E7,1745  E7,1514               TGO                EQUALS   DVCNTR     +1                         #  B(2)
002767: E7,1745  E7,1516               R                  EQUALS   TGO        +2                         #  I(6)
002768: E7,1745  E7,1516               UNITGOBL           EQUALS   R                                     #  I(6)
002769: E7,1745  E7,1524               V                  EQUALS   R          +6
002770: E7,1745  E7,1524               DELVREF            EQUALS   V                                     #  I(6)
002771: E7,1745  E7,1532               HCALC              EQUALS   DELVREF    +6                         #  B(2)     LR
002772: E7,1745  E7,1534               UNIT/R/            EQUALS   HCALC      +2                         #  I(6)
002773:
002774:                                                                                                  #                  (THE FOLLOWING SERVICER ERASABLES CAN BE SHARED WITH SECOND DPS GUIDANCE STORAGE)
002775:
002776: E7,1745  E7,1542               RN1                EQUALS   UNIT/R/    +6                         #  B(6)
002777: E7,1745  E7,1550               VN1                EQUALS   RN1        +6                         #  I(6)                      (IN ORDER  )
002778: E7,1745  E7,1556               PIPTIME1           EQUALS   VN1        +6                         #  B(2)                      (   FOR    )
002779: E7,1745  E7,1560               G1                 EQUALS   PIPTIME1   +2                         #  B(6)       MUST FOLLOW PIPTIME1
002780: E7,1745  E7,1566               PGUIDE1            EQUALS   G1         +6                         #  B(2)       MUST FOLLOW G1
002781: E7,1745  E7,1570               MASS1              EQUALS   PGUIDE1    +2                         #  B(2)       MUST FOLLOW PGUIDE1
002782: E7,1745  E7,1570               DVCNTR1            EQUALS   MASS1                                 #  B(1)TMP  RESTART REG FOR DVCNTR
002783: E7,1745  E7,1572               R1S                EQUALS   MASS1      +2                         #  I(6)
002784: E7,1745  E7,1600               V1S                EQUALS   R1S        +6                         #  I(6)
002785:
002786:
002787:                                                                                                  #           P71 RESTART PROTECTION                                         (2D)
002788:


002790: E7,1745  E7,1501               TGO1               EQUALS   VGBODY                                #  B(2)TMP
002791:
002792:
002793:                                                                                                  #           ALIGNMENT/S40.2.3 COMMON STORAGE.                              (18D)
002794:
002795: E7,1745  E7,1606               XSMD               EQUALS   V1S        +6                         #  I(6)
002796: E7,1745  E7,1614               YSMD               EQUALS   XSMD       +6                         #  I(6)
002797: E7,1745  E7,1622               ZSMD               EQUALS   YSMD       +6                         #  I(6)
002798:
002799: E7,1745  E7,1606               XSCREF             =        XSMD
002800: E7,1745  E7,1614               YSCREF             =        YSMD
002801: E7,1745  E7,1622               ZSCREF             =        ZSMD
002802:
002803: E7,1745  E7,1630               END-ALIG           EQUALS   ZSMD       +6                         #  NEXT AVAIL ERASABLE AFTER ALIGN/S40.2,3
002804:
002805:
002806:                                                                                                  #           **** P22 ****                                                  (34D)
002807:
002808: E7,1745  E7,1630               RSUBL              EQUALS   END-ALIG                              #  I(6)S-S  LM POSITION VECTOR
002809: E7,1745  E7,1636               UCSM               EQUALS   RSUBL      +6                         #  I(6)S-S  VECTOR U
002810: E7,1745  E7,1644               NEWVEL             EQUALS   UCSM       +6                         #  I(6)S-S  TERMINAL VELOCITY VECTOR
002811: E7,1745  E7,1652               NEWPOS             EQUALS   NEWVEL     +6                         #  I(6)S-S  TERMINAL POSITION VECTOR
002812: E7,1745  E7,1660               LNCHTM             EQUALS   NEWPOS     +6                         #  I(2)S-S EST. LAUNCH TIME FOR LEM
002813: E7,1745  E7,1662               TRANSTM            EQUALS   LNCHTM     +2                         #  I(2)S-S TRANSFER TIME
002814: E7,1745  E7,1664               NCSMVEL            EQUALS   TRANSTM    +2                         #  I(6)S-S NEW CSM VELOCITY
002815:
002816:
002817:                                                                                                  #           *****  P21  *****                                              (18D)
002818:
002819: E7,1745     1162               P21ORIG            =        DISPDEX
002820: E7,1745  E7,1675               P21BASER           EQUALS   RLMSRCH                               #  I(6)TMP
002821: E7,1745  E7,1703               P21BASEV           EQUALS   P21BASER   +6                         #  I(6)TMP
002822: E7,1745  E7,1711               P21VEL             EQUALS   P21BASEV   +6                         #  I(2)TMP  *** NOUN 91 ***
002823: E7,1745  E7,1713               P21GAM             EQUALS   P21VEL     +2                         #  I(2)TMP  *** NOUN 91 ***
002824: E7,1745  E7,1715               P21ALT             EQUALS   P21GAM     +2                         #  I(2)TMP  *** NOUN 91 ***
002825:
002826:


002828:                                                                                                  #  *******  OVERLAY NUMBER 4 IN EBANK 7  *******
002829:
002830:
002831:                                                                                                  #  VARIABLES FOR SECOND DPS GUIDANCE (THE LUNAR LANDING)                   (81D)
002832:
002833:                                                                                                  #  THESE ERASABLES MAY BE SHARED WITH CARE
002834:
002835: E7,1745  E7,1542               OURTEMPS           =        RN1                                   #  OVERLAY LAST PART OF SERVICER
002836: E7,1745  E7,1542               LANDTEMP           =        OURTEMPS                              #  B(6)     GUIDANCE
002837: E7,1745  E7,1550               TTF/8TMP           =        LANDTEMP   +6                         #  B(2)    GUIDANCE
002838: E7,1745  E7,1552               ELCOUNT            =        TTF/8TMP   +2                         #  B(1)    REDESIGNATOR AND P66HZ
002839: E7,1745  E7,1553               AZCOUNT            =        ELCOUNT    +1                         #  B(1)    REDESIGNATOR AND P66HZ
002840: E7,1745  E7,1554               TPIPOLD            =        AZCOUNT    +1                         #  B(2)    GUIDANCE
002841: E7,1745  E7,1556               KEEP-2             =        TPIPOLD    +2                         #   (2)    TO PREVENT PIPTIME1 OVERLAY
002842: E7,1745  E7,1560               TABLTTF            =        KEEP-2     +2                         #  B(2)    GUIDANCE
002843: E7,1745  E7,1621               E2DPS              EQUALS   OURPERMS
002844:
002845:
002846:
002847:                                                                                                  #  THESE ERASABLES MUST NOT OVERLAY GOBLTIME OR SERVICER
002848:
002849: E7,1745  E7,1606               PIFPSET            =        XSMD                                  #  B(1)    THROTTLE
002850: E7,1745  E7,1607               RTNHOLD            =        PIFPSET    +1                         #  B(1)    THROTTLE
002851: E7,1745  E7,1610               FWEIGHT            =        RTNHOLD    +1                         #  B(2)    THROTTLE
002852: E7,1745  E7,1612               PIF                =        FWEIGHT    +2                         #  B(2)    THROTTLE:  DESIRED THRUST CHANGE
002853: E7,1745  E7,1614               PSEUDO55           =        PIF        +2                         #  B(1)    THROTTLE:  DOWNLINK
002854: E7,1745  E7,1615               FC                 =        PSEUDO55   +1                         #  B(1)    THROTTLE:  DESIRED THRUST
002855: E7,1745  E7,1616               FWEIGHT1           =        FC         +1                         #  B(2)    THROTTLE:  PRELIMINARY FWEIGHT
002856: E7,1745  E7,1620               FCOLD              =        FWEIGHT1   +2                         #  B(1)    THROTTLE:  FC LAST PASS
002857:
002858:
002859:
002860:                                                                                                  #  THESE ERASABLES SHOULD NOT BE SHARED DURING P63, P64, P65, P66, P67
002861:
002862: E7,1745  E7,1621               OURPERMS           =        FCOLD      +1                         #  MUSTN'T OVERLAY OURTEMPS OR SERVICER
002863: E7,1745  E7,1621               WCHPHOLD           =        OURPERMS                              #  B(1)    GUIDANCE
002864: E7,1745  E7,1622               511CTR             =        WCHPHOLD   +1                         #  B(1)    R12 - CONTROLS 511 ALARM
002865: E7,1745  E7,1623               FLPASS0            =        511CTR     +1                         #  B(1)    GUIDANCE PASS COUNTER
002866: E7,1745  E7,1624               TPIP               =        FLPASS0    +1                         #  B(2)
002867: E7,1745  E7,1626               VGU                =        TPIP       +2                         #  B(6)    GUIDANCE
002868: E7,1745  E7,1634               LAND               =        VGU        +6                         #  B(6)    GUIDANCE    CONTIGUOUS
002869: E7,1745  E7,1642               TTF/8              =        LAND       +6                         #  B(2)    GUIDANCE     CONTIGUOUS
002870: E7,1745  E7,1644               ELCOUNT1           =        TTF/8      +2                         #  B(1)    REDESIGNATOR AND P66HZ
002871: E7,1745  E7,1645               AZCOUNT1           =        ELCOUNT1   +1                         #  B(1)    REDESIGNATOR AND P66HZ
002872: E7,1745  E7,1646               ZERLINA            =        AZCOUNT1   +1                         #  B(1)    REDESIGNATOR
002873: E7,1745  E7,1647               ELVIRA             =        ZERLINA    +1                         #  B(1)    REDESIGNATOR
002874: E7,1745  E7,1650               LRPOS              =        ELVIRA     +1                         #  B(1)    LAST LR ANTENNA POSITION
002875:
002876:                                                                                                  #                                          ** NOTE: GAP OF 1 SP LOCATION HERE IN THIS P63 THRU P66 OVERLAY **
002877:


002879: E7,1745  E7,1652               VMEAS              =        LRPOS      +2                         #  B(2)   VEL READ BY LR BEAM X, Y OR Z
002880: E7,1745  E7,1654               HMEAS              =        VMEAS      +2                         #  B(2)    LR
002881: E7,1745  E7,1656               VN2                =        HMEAS      +2                         #  B(6)    LR
002882: E7,1745  E7,1656               GNUR               =        VN2                                   #  B(6)     LR
002883: E7,1745  E7,1656               GNUV               =        VN2                                   #  B(6)     LR
002884: E7,1745  E7,1664               DELTAH             =        VN2        +6                         #  B(2)    DISPLAY
002885: E7,1745  E7,1666               FUNNYDSP           =        DELTAH     +2                         #  B(2)    DISPLAY
002886: E7,1745  E7,1670               GTCTIME            =        FUNNYDSP   +2                         #  B(2)    PIPTIME CORRESPONDING TO FC
002887: E7,1745  E7,1672               THRDISP            =        GTCTIME    +2                         #  B(1)    DESIRED PERCENT DPS RATED THRUST
002888: E7,1745  E7,1673               EOURPERM           =        THRDISP    +1                         #  NEXT AVAILABLE CELL AFTER OURPERMS
002889: E7,1745  E7,1456               OVFRET             =        LOSCOUNT                              #  B(1)
002890:
002891:
002892:
002893:                                                                                                  #  (ERASABLES WHICH OVERLAY THE ABOVE BLOCK)
002894:
002895: E7,1745  E7,1646               NIGNLOOP           =        ZERLINA                               #  B(1)   IGNALG
002896: E7,1745  E7,1647               NGUIDSUB           =        ELVIRA                                #  B(1)   IGNALG
002897: E7,1745  E7,1666               FORVDSKY           =        FUNNYDSP                              #  B(1)    DISPLAY DURING P66
002898: E7,1745  E7,1666               TREDES             =        FUNNYDSP                              #  B(1)    DISPLAY
002899: E7,1745  E7,1667               LOOKANGL           =        FUNNYDSP   +1                         #  B(1)    DISPLAY
002900:
002901:
002902:                                                                                                  #  THE END OF THE LUNAR LANDING ERASABLES
002903:
002904:
002905:
002906:                                                                                                  #           R12    (FOR LUNAR LANDING)                                     (6D)
002907:
002908: E7,1745  E7,1673               LRLCTR             EQUALS   EOURPERM                              #  B(1) LR DATA TEST
002909: E7,1745  E7,1674               LRRCTR             EQUALS   LRLCTR     +1                         #  B(1)
002910: E7,1745  E7,1675               LRMCTR             EQUALS   LRRCTR     +1                         #  B(1)
002911: E7,1745  E7,1676               LRSCTR             EQUALS   LRMCTR     +1                         #  B(1)
002912: E7,1745  E7,1677               STILBADH           EQUALS   LRSCTR     +1                         #  B(1)
002913: E7,1745  E7,1700               STILBADV           EQUALS   STILBADH   +1                         #  B(1)
002914:
002915:
002916:
002917:                                                                                                  #           QUARTASK STORAGE (LANDING ANALOG DISPLAYS, ETC.)               (35D)
002918:
002919: E7,1745  E7,1701               GRAVACCX           =        STILBADV   +1                         #  B(1)    ACCELERATION DUE TO GRAVITY
002920: E7,1745  E7,1702               GRAVACCY           =        GRAVACCX   +1                         #  B(1)    ACCELERATION DUE TO GRAVITY
002921: E7,1745  E7,1703               GRAVACCZ           =        GRAVACCY   +1                         #  B(1)    ACCELERATION DUE TO GRAVITY
002922: E7,1745  E7,1704               BIASACCX           =        GRAVACCZ   +1                         #  B(1)    PSEUDO-ACC DUE TO PIPA BIAS
002923: E7,1745  E7,1705               BIASACCY           =        BIASACCX   +1                         #  B(1)    PSEUDO-ACC DUE TO PIPA BIAS
002924: E7,1745  E7,1706               BIASACCZ           =        BIASACCY   +1                         #  B(1)    PSEUDO-ACC DUE TO PIPA BIAS
002925: E7,1745  E7,1707               VSURFACE           =        BIASACCZ   +1                         #  B(6)    LUNAR SURFACE VELOCITY
002926: E7,1745  E7,1715               HCALCLAD           =        VSURFACE   +6                         #  B(2)    ALTITUDE IN UNITS OF 2(15) M
002927: E7,1745  E7,1717               HDOTLAD            =        HCALCLAD   +2                         #  B(2)    HDOT IN UNITS OF 2(5) M/CS
002928: E7,1745  E7,1721               DALTRATE           =        HDOTLAD    +2                         #  B(1)    DALTRATE, UNITS OF 2(-6) M/CS/CS
002929: E7,1745  E7,1722               RUNITX             =        DALTRATE   +1                         #  B(1)    X-COMPONENT OF UNIT/R/ FULL-SIZE


002931: E7,1745  E7,1723               RUNITY             =        RUNITX     +1                         #  B(1)    Y-COMPONENT OF UNIT/R/ FULL-SIZE
002932: E7,1745  E7,1724               RUNITZ             =        RUNITY     +1                         #  B(1)    Z-COMPONENT OF UNIT/R/ FULL-SIZE
002933: E7,1745  E7,1725               DT                 =        RUNITZ     +1                         #  B(1)    TIME SINCE LAST PIPTIME
002934: E7,1745  E7,1726               VVECTX             =        DT         +1                         #  B(2)    VELOCITY X-COMPONENT
002935: E7,1745  E7,1730               VVECTY             =        VVECTX     +2                         #  B(2)    VELOCITY Y-COMPONENT
002936: E7,1745  E7,1732               VVECTZ             =        VVECTY     +2                         #  B(2)    VELOCITY Z-COMPONENT
002937: E7,1745  E7,1734               ALTRATE            =        VVECTZ     +2                         #  B(2)    ALTRATE IN UNITS OF 2(6) M/CS
002938: E7,1745  E7,1736               ALTITUDE           =        ALTRATE    +2                         #  B(2)    ALTITUDE IN UNITS OF 2(15) M
002939: E7,1745  E7,1740               LATVMETR           =        ALTITUDE   +2                         #  B(1)    LATERAL METER INDICATOR
002940: E7,1745  E7,1741               FORVMETR           =        LATVMETR   +1                         #  B(1)    FORWARD METER INDICATOR
002941: E7,1745  E7,1742               FORVEL             =        FORVMETR   +1                         #  B(2)    FORWARD VELOCITY FOR DISPLAYS
002942:
002943:
002944: E7,1745     0063               ALTRTEMP           =        ITEMP3                                #  B(2)    ALTITUDE-RATE TEMPORARY
002945: E7,1745     0063               ALTTEMP            =        ITEMP3                                #  B(2)    ALTITUDE TEMPORARY
002946: E7,1745     0063               VHY                =        ITEMP3                                #  B(2)    VELOCITY ALONG UHYP
002947: E7,1745     0065               VHZ                =        ITEMP5                                #  B(2)    VELOCITY ALONG UHZP
002948: E7,1745     0070               FORVTEMP           =        RUPTREG1                              #  B(2)    FORWARD VELOCITY TEMPORARY
002949: E7,1745     0072               LATVEL             =        RUPTREG3                              #  B(2)    LATERAL VELOCITY
002950:
002951:
002952:
002953:                                                                                                  #           P66 ERASABLES                                                  (14D)
002954:
002955: E7,1745  E7,1744               RODCOUNT           =        FORVEL     +2                         #  B(1)    COUNTER FOR ROD CLICKS
002956: E7,1745  E7,1745               VDGVERT            =        RODCOUNT   +1                         #  B(2)    DESIRED VERTICAL RATE
002957: E7,1745  E7,1745               VHZC               =        VDGVERT                               #  B(6)    DESIRED VHZ, OVERLAPS VDGVERT
002958: E7,1745  E7,1753               HZCOUNT            =        VHZC       +6                         #  B(1)    COUNTER FOR P66HZ LOGIC
002959: E7,1745  E7,1754               P66TPIP            =        HZCOUNT    +1                         #  B(1)    TIME OF P66ROD'S PIPAX READING
002960: E7,1745  E7,1755               P66PIPX            =        P66TPIP    +1                         #  B(1)    P66ROD'S PIPAX READING
002961: E7,1745  E7,1756               OP66TPIP           =        P66PIPX    +1                         #  B(1)    LAST P66ROD'S PIPAX READING TIME
002962: E7,1745  E7,1757               OP66PIPX           =        OP66TPIP   +1                         #  B(1)    LAST P66ROD'S PIPAX READING
002963: E7,1745  E7,1760               TAU                =        OP66PIPX   +1                         #  B(1)    TAU FOR USE BY P66ROD
002964: E7,1745  E7,1761               -OLDTAU            =        TAU        +1                         #  B(1)    LAST P66ROD'S TAU
002965:
002966:
002967:                                                                                                  #           LANDING RADAR ERASABLES                                        (6D)
002968:
002969: E7,1745  E7,1762               HLRTIME            =        -OLDTAU    +1                         #  B(2)    ALTITUDE AT LRTIME
002970: E7,1745  E7,1770               HMEASDL            =        HLRTIME    +6                         #  B(2)    VERSION OF HMEAS FOR DOWNLINK
002971: E7,1745  E7,1772               LRTIMEDL           =        HMEASDL    +2                         #  B(2)    VERSION OF LRTIME FOR DOWNLINK
002972:
002973:


002975:                                                                                                  #  *******  OVERLAY NUMBER 5 IN EBANK 7  *******
002976:
002977:
002978:
002979:                                                                                                  #           ASCENT GUIDANCE ERASABLES.                                     (21D)
002980:
002981: E7,1745  E7,1630               RCO                EQUALS   END-ALIG                              #  I(2)TMP  TARGET RADIUS AND OUT-OF-PLANE
002982: E7,1745  E7,1632               YCO                EQUALS   RCO        +2                         #  I(2)TMP  DISTANCE, SCALED AT 2(24).
002983: E7,1745  E7,1634               1/DV1              EQUALS   YCO        +2                         #  B(2)TMP  ATMAG
002984: E7,1745  E7,1636               1/DV2              EQUALS   1/DV1      +2                         #  B(2)TMP  ATMAG
002985: E7,1745  E7,1640               1/DV3              EQUALS   1/DV2      +2                         #  B(2)TMP  ATMAG
002986: E7,1745  E7,1642               XRANGE             EQUALS   1/DV3      +2                         #  B(2)TMP
002987: E7,1745  E7,1644               ENGOFFDT           EQUALS   XRANGE     +2                         #  B(1)TMP
002988: E7,1745  E7,1645               VGVECT             EQUALS   ENGOFFDT   +1                         #  I(6)OUT  VELOCITY-TO-BE-GAINED
002989: E7,1745  E7,1653               TXO                EQUALS   VGVECT     +6                         #  I(2)TMP  TIME AT WHICH X-AXIS OVERRIDE
002990:
002991:
002992: E7,1745  E7,1570               1/DV0              EQUALS   MASS1                                 #  B(2)TMP  ATMAG TEMPORARY
002993:
002994:
002995:                                                                                                  #  END OF THE ASCENT GUIDANCE ERASABLES.
002996:
002997: E7,1745                        END-E7             EQUALS   3777                                  #  **LAST LOCATION USED IN E7 **
002998:

End of include-file ERASABLE_ASSIGNMENTS.agc.  Parent file is MAIN.agc


