
Source Code


000002:                                                                                                  ## Copyright:   Public domain.
000003:                                                                                                  ## Filename:    EXTENDED_VERBS.agc
000004:                                                                                                  ## Purpose:     A log section of Zerlina 56, the final revision of
000005:                                                                                                  ##              Don Eyles's offline development program for the variable
000006:                                                                                                  ##              guidance period servicer. It also includes a new P66 with LPD
000007:                                                                                                  ##              (Landing Point Designator) capability, based on an idea of John
000008:                                                                                                  ##              Young's. Neither of these advanced features were actually flown,
000009:                                                                                                  ##              but Zerlina was also the birthplace of other big improvements to
000010:                                                                                                  ##              Luminary including the terrain model and new (Luminary 1E)
000011:                                                                                                  ##              analog display programs. Zerlina was branched off of Luminary 145,
000012:                                                                                                  ##              and revision 56 includes all changes up to and including Luminary
000013:                                                                                                  ##              183. It is therefore quite close to the Apollo 14 program,
000014:                                                                                                  ##              Luminary 178, where not modified with new features.
000015:                                                                                                  ## Reference:   pp. 268-305
000016:                                                                                                  ## Assembler:   yaYUL
000017:                                                                                                  ## Contact:     Ron Burkey <info@sandroid.org>.
000018:                                                                                                  ## Website:     www.ibiblio.org/apollo/index.html
000019:                                                                                                  ## Mod history: 2017-07-28 MAS  Created from Luminary 210.
000020:                                                                                                  ##              2017-08-21 RSB  Transcribed.
000021:                                                                                                  ##              2017-08-21 MAS  Fixed a missed VxxNxx label/value change.
000022:


000024: 07,2661                                           BANK     7
000025: 43,2000                                           SETLOC   EXTVERBS
000026: 43,2000                                           BANK
000027:
000028: 43,2000  E5,1737                                  EBANK=   OGC
000029:
000030: 43,2000                                           COUNT*   $$/EXTVB
000031:                                                                                                  #  FAN-OUT
000032:
000033: 43,2000           50154        GOEXTVB            INDEX    MPAC                                  #  VERB-40 IS IN MPAC
000034: 43,2001           02002                           TC       LST2FAN                               #  FAN AS BEFORE.
000035:
000036: 43,2002           02126        LST2FAN            TC       VBZERO                                #  VB40 ZERO (USED WITH NOUN 20 OR 72 ONLY)
000037: 43,2003           02177                           TC       VBCOARK                               #  VB41 COARSE ALIGN (USED WITH NOUN 20 OR
000038:                                                                                                  #                                  72 ONLY)
000039: 43,2004           02337                           TC       IMUFINEK                              #  VB42 FINE ALIGN IMU
000040: 43,2005           02675                           TC       IMUATTCK                              #  VB43  LOAD IMU ATTITUDE ERROR METERS.
000041: 43,2006           02304                           TC       RRDESEND                              #  VB44 TERMINATE CONTINUOUS DESIGNATE
000042: 43,2007           02116                           TC       ALM/END                               #  VB45 SPARE
000043: 43,2010           02116                           TC       ALM/END                               #  VB46 SPARE
000044: 43,2011           02376                           TC       V47TXACT                              #  VB47 AGS INITIALIZATION
000045: 43,2012           03130                           TC       DAPDISP                               #  VB48  LOAD A/P DATA
000046: 43,2013           13004                           TCF      CREWMANU                              #  VB49 START AUTOMATIC ATTITUDE MANEUVER
000047: 43,2014           02370                           TC       GOLOADLV                              #  VB50 PLEASE PERFORM
000048: 43,2015           02116                           TC       ALM/END                               #  VB51 SPARE
000049: 43,2016           02370                           TC       GOLOADLV                              #  VB52 PLEASE MARK X - RETICLE.
000050: 43,2017           02370                           TC       GOLOADLV                              #  VB53 PLEASE MARK Y - RETICLE.
000051: 43,2020           02370                           TC       GOLOADLV                              #  VB54 PLEASE MARK X OR Y - RETICLE
000052: 43,2021           02410                           TC       ALINTIME                              #  VB55 ALIGN TIME
000053: 43,2022           03013                           TC       TRMTRACK                              #  VB56 TERMINATE TRACKING - P20 + P25
000054: 43,2023           02326                           TC       LRON                                  #  VB57 PERMIT  LANDING RADAR UPDATES
000055: 43,2024           02331                           TC       LROFF                                 #  VB58 INHIBIT LANDING RADAR UPDATES
000056: 43,2025           02147                           TC       LRPOS2K                               #  VB59 COMMAND LR TO POSITION 2.
000057: 43,2026           02174                           TC       RATEDISP                              #  VB60 DISPLAY DAP ESTIMATED RATES
000058: 43,2027           02164                           TC       DAPATTER                              #  VB61 DISPLAY DAP ATTITUDE ERROR
000059: 43,2030           02167                           TC       TOTATTER                              #  VB62 DISPLAY TOTAL ATTITUDE ERROR
000060: 43,2031           02423                           TC       R04                                   #  VB63 SAMPLE RADAR ONCE PER SECOND
000061: 43,2032           02667                           TC       VB64                                  #  VB64 CALCULATE,DISPLAY S-BAND ANT ANGLES
000062: 43,2033           03220                           TC       SNUFFOUT                              #  VB65 DISABLE U,V JETS DURING DPS BURNS.
000063: 43,2034           03135                           TC       ATTACHED                              #  VB66 ATTACHED   MOVE THIS TO OTHER STATE
000064: 43,2035           03212                           TC       V67                                   #  VB67 W MATRIX MONITOR
000065: 43,2036           02334                           TC       TEROFF                                #  VB68 TAKE OUT TERRAIN MODEL IN DESCENT
000066: 43,2037           02037        VERB69             TC       VERB69                                #  VB69 FORCE A HARDWARE RESTART
000067: 43,2040           03723                           TC       V70UPDAT                              #  VB70 UPDATE LIFTOFF TIME.
000068: 43,2041           03725                           TC       V71UPDAT                              #  VB71 UNIVERSAL UPDATE - BLOCK ADDRESS.
000069: 43,2042           03727                           TC       V72UPDAT                              #  VB72 UNIVERSAL UPDATE - SINGLE ADDRESS.
000070: 43,2043           03731                           TC       V73UPDAT                              #  VB73 UPDATE AGC TIME (OCTAL).
000071: 43,2044           03034                           TC       DNEDUMP                               #  VB74 INITIALIZE DOWN-TELEMETRY PROGRAM
000072:                                                                                                  #         FOR ERASABLE DUMP.
000073: 43,2045           03223                           TC       OUTSNUFF                              #  VB75 ENABLE U,V JETS DURING DPS BURNS.


000075: 43,2046           02773                           TC       MINIMP                                #  VB76 MINIMUM IMPULSE MODE
000076: 43,2047           02776                           TC       NOMINIMP                              #  VB77 RATE COMMAND MODE
000077: 43,2050           02413                           TC       R77                                   #  VB78 START LR SPURIOUS RETURN TEST
000078: 43,2051           02623                           TC       R77END                                #  VB79 TERMINATE LR SPURIOUS RETURN TEST
000079: 43,2052           03040                           TC       LEMVEC                                #  VB80 UPDATE LEM STATE VECTOR
000080: 43,2053           03043                           TC       CSMVEC                                #  VB81 UPDATE CSM STATE VECTOR
000081: 43,2054           02734                           TC       V82PERF                               #  VB82 REQUEST ORBIT PARAM DISPLAY (R30)
000082: 43,2055           02744                           TC       V83PERF                               #  VB83 REQUEST REND PARAM DISPLAY (R31)
000083: 43,2056           02116                           TC       ALM/END                               #  VB84 SPARE
000084: 43,2057           03226                           TC       VERB85                                #  VB85 DISPLAY RR LOS AZ AND ELEV
000085: 43,2060           02116                           TC       ALM/END                               #  VB86 SPARE
000086: 43,2061           02116                           TC       ALM/END                               #  VB87 SPARE
000087: 43,2062           02116                           TC       ALM/END                               #  VB88 SPARE
000088: 43,2063           02752                           TC       V89PERF                               #  VB89 ALIGN XORZ LEM AXIS ALONG LOS (R63)
000089: 43,2064           02761                           TC       V90PERF                               #  VB90 OUT OF PLANE RENDEZVOUS DISPLAY
000090: 43,2065           03073                           TC       GOSHOSUM                              #  VB91 DISPLAY BANK SUM.
000091: 43,2066           03053                           TC       SYSTEST                               #  VB92 OPERATE IMU PERFORMANCE TEST.
000092: 43,2067           03066                           TC       WMATRXNG                              #  VB93 CLEAR RENDWFLG
000093: 43,2070           02116                           TC       ALM/END                               #  VB94 SPARE
000094: 43,2071           03050                           TC       UPDATOFF                              #  VB95 NO STATE VECTOR UPDATE ALLOWED
000095: 43,2072           03205                           TC       VERB96                                #  VB96 INTERRUPT INTEGRATION AND GO TO POO
000096: 43,2073           02370                           TC       GOLOADLV                              #  VB97 PLEASE VERIFY ENGINE FAILURE
000097: 43,2074           02116                           TC       ALM/END                               #  VB98 SPARE
000098: 43,2075           02370                           TC       GOLOADLV                              #  VB99 PLEASE ENABLE ENGINE
000099:
000100:                                                                                                  #  END OF EXTENDED VERB FAN
000101:
000102:
000103: 43,2076           11043        TESTXACT           CCS      EXTVBACT                              #  ARE EXTENDED VERBS BUSY
000104: 43,2077           02116                           TC       ALM/END                               #  YES, TURN ON OPERATOR LIGHT
000105: 43,2100           30100                           CA       FLAGWRD4                              #  ARE PRIORITY DISPLAYS USING DSKY
000106: 43,2101           72125                           MASK     OC24100
000107: 43,2102           10000                           CCS      A
000108: 43,2103           02116                           TC       ALM/END                               #  YES
000109: 43,2104           34362                           CAF      OCT25                                 #  SET BITS 1, 3, AND 5
000110: 43,2105           55043        SETXTACT           TS       EXTVBACT                              #  NO. SET FLAG TO SHOW EXT VERB DISPLAY
000111:                                                                                                  #  SYSTEM BUSY
000112:
000113: 43,2106           30002                           CA       Q
000114: 43,2107           54155                           TS       MPAC       +1
000115:
000116: 43,2110           44752                           CS       TWO                                   #  BLANK EVERYTHING EXCEPT MM AND VERB
000117: 43,2111           04154                           TC       NVSUB
000118: 43,2112           02113                           TC       +1
000119: 43,2113           10067                           CCS      NEWJOB
000120: 43,2114           05122                           TC       CHANG1
000121:
000122: 43,2115           00155                           TC       MPAC       +1
000123:
000124: 43,2116     5503               TERMEXTV           EQUALS   ENDEXT


000126: 43,2116     5503               ENDEXTVB           EQUALS   ENDEXT
000127:
000128: 43,2116           04364        ALM/END            TC       FALTON                                #  TURN ON OPERATOR ERROR LIGHT
000129: 43,2117           04635        GOPIN              TC       POSTJUMP
000130: 43,2120           21051                           CADR     PINBRNCH
000131:
000132: 43,2121           31010        CHKPOOH            CA       MODREG                                #  CHECK FOR POO OR POO-.
000133: 43,2122           00006                           EXTEND
000134: 43,2123           16754                           BZF      TCQ
000135: 43,2124           02116                           TC       ALM/END
000136:
000137: 43,2125           24100        OC24100            OCT      24100
000138:


000140:                                                                                                  #           VBZERO       VERB 40            DESCRIPTION
000141:
000142:                                                                                                  #               1. REQUIRE NOUN 20 (ICDU ANGLES) OR NOUN 72 (RCDU ANGLES).
000143:                                                                                                  #              2. FOR N20, CHECK IMUCADR IN AN EFFORT TO AVOID A 1210 RESTART.
000144:                                                                                                  #                 FOR N72, CHECK IF EITHER RADAR IS IN USE.
000145:                                                                                                  #               3. EXECUTE THE CDU ZERO.
000146:                                                                                                  #               4. STALL UNTILL THE ZERO IS DONE.
000147:                                                                                                  #               5. DON'T DIFFERENIATE BETWEEN A BAD OR GOOD RETURN.
000148:                                                                                                  #               6. EXIT, RE-ESTABLISHING THE INTERRUPTED DISPLAY (IF ANY).
000149:
000150: 43,2126           02202        VBZERO             TC       OP/INERT
000151: 43,2127           02131                           TC       IMUZEROK                              #  RETURN HERE IF NOUN = ICDU(20)
000152: 43,2130           02140                           TC       RRZEROK                               #  RETURN HERE IF NOUN = RCDU(72)
000153: 43,2131           02404        IMUZEROK           TC       CKMODCAD
000154: 43,2132           04616                           TC       BANKCALL                              #  KEYBOARD REQ FOR ISS CDUZERO
000155: 43,2133           16661                           CADR     IMUZERO
000156:
000157: 43,2134           04616                           TC       BANKCALL                              #  STALL
000158: 43,2135           17715                           CADR     IMUSTALL
000159: 43,2136           02137                           TC       +1
000160:
000161: 43,2137           02117                           TC       GOPIN                                 #  IMUZERO
000162:
000163: 43,2140           02646        RRZEROK            TC       RDRUSECK
000164: 43,2141           04616                           TC       BANKCALL
000165: 43,2142           52334                           CADR     RRZERO
000166:
000167: 43,2143           04616        RWAITK             TC       BANKCALL
000168: 43,2144           17713                           CADR     RADSTALL
000169: 43,2145           12146                           TCF      +1
000170: 43,2146           02117                           TC       GOPIN                                 #  RRZERO
000171:
000172:                                                                                                  #           LRPOS2K          VERB 59            DESCRIPTION
000173:                                                                                                  #               COMMAND LANDING RADAR TO POSITION 2
000174:                                                                                                  #              1. EXIT WITH OP ERROR IF SOMEONE IS USING EITHER RADAR.
000175:                                                                                                  #               2. ALARM WITH CODE 523 IF POS 2 IS NOT INDICATED WITHIN
000176:                                                                                                  #                  THE PRESCRIBED TIME.
000177:                                                                                                  #               3. RE-ESTABLISH THE DISPLAYS.
000178:
000179: 43,2147           30103        LRPOS2K            CA       FLAGWRD7
000180: 43,2150           74747                           MASK     AVEGFBIT
000181: 43,2151           00006                           EXTEND
000182: 43,2152           12161                           BZF      LRPOS2K1                              #  AVERAGE G NOT ON
000183: 43,2153           40107                           CS       FLGWRD11
000184: 43,2154           74735                           MASK     LRBYBIT
000185: 43,2155           00006                           EXTEND
000186: 43,2156           12116                           BZF      ALM/END                               #  IF AVE G ON AND NOT R12- OPERATOR ERROR
000187: 43,2157           04635                           TC       POSTJUMP
000188: 43,2160           53604                           CADR     V59GP63
000189: 43,2161           02646        LRPOS2K1           TC       RDRUSECK


000191: 43,2162           04616                           TC       BANKCALL
000192: 43,2163           53573                           CADR     LRP2COMM                              #  COMMAND LR TO POS2
000193:                                                                                                  #  V61      VERB 61, DISPLAY DAP ATTITUDE ERRORS ON FDAI ATTITUDE ERROR NEEDLES.
000194:
000195: 43,2164           05527        DAPATTER           TC       DOWNFLAG
000196: 43,2165           00013                           ADRES    NEEDLFLG
000197: 43,2166           12171                           TCF      TOTATTER   +2
000198:
000199:                                                                                                  #  V62      VERB 62, DISPLAY TOTAL ATTITUDE ERRORS ON FDAI ATTITUDE ERROR NEEDLES.
000200:
000201: 43,2167           05515        TOTATTER           TC       UPFLAG
000202: 43,2170           00013                           ADRES    NEEDLFLG
000203: 43,2171           05527                 +2        TC       DOWNFLAG
000204: 43,2172           00000                           ADRES    NEED2FLG
000205: 43,2173           02117                           TC       GOPIN
000206:
000207:                                                                                                  #  V60      VERB 60, DISPLAY DAP ESTIMATED RATES ON FDAI ATTITUDE ERROR NEEDLES.
000208:
000209: 43,2174           05515        RATEDISP           TC       UPFLAG
000210: 43,2175           00000                           ADRES    NEED2FLG
000211: 43,2176           02117                           TC       GOPIN
000212:
000213:
000214:


000216:                                                                                                  #           VBCOARK      VERB 41            DESCRIPTION
000217:                                                                                                  #               COARSE ALIGN IMU OR RADAR
000218:                                                                                                  #              1. REQUIRE NOUN 20 OR NOUN 72 OR TURN ON OPERATOR ERROR.
000219:                                                                                                  #               2. REQUIRE EXT VERB DISPLAY SYS AVAILABLE OR TURN ON OPERATOR ERROR LIGHT AND GO TO PINBRNCH.
000220:                                                                                                  #               CASE 1     NOUN 20     (ICDU ANGLES)
000221:                                                                                                  #               3. SET EXT VERB DISPLAY ACTIVE FLAG.
000222:                                                                                                  #               4. DISPLAY FLASHING V25,N22 (LOAD NEW ICDU ANGLES).
000223:                                                                                                  #                  RESPONSES
000224:                                                                                                  #                    A. TERMINATE
000225:                                                                                                  #                       1. RELEASE EXT VERB DISPLAY SYSTEM
000226:                                                                                                  #                    B. PROCEED
000227:                                                                                                  #                      1. COARSE ALIGN TO THE EXISTING THETAD'S (ICORK2).
000228:                                                                                                  #                    C. ENTER
000229:                                                                                                  #                      1. COARSE ALIGN TO THE LOADED THETAD'S (ICORK2).
000230:                                                                                                  #               ICORK2
000231:                                                                                                  #                  1. RE-DISPLAY VERB 41.
000232:                                                                                                  #                  2. EXECUTE IMUCOARS (IMU COARSE ALIGN).
000233:                                                                                                  #                  3. EXECUTE IMUSTALL (ALLOW TIME FOR DATA TRANSFER).
000234:                                                                                                  #                  4. RELEASE EXT VERB DISPLAY SYSTEM.
000235:                                                                                                  #               CASE 2     NOUN 72     (RCDU ANGLES)
000236:                                                                                                  #                 EXIT WITH OP ERROR IF SOMEONE IS USING EITHER RADAD.
000237:                                                                                                  #               5. DISPLAY FLASHING V24,N73 (LOAD NEW RR TRUNION ANGLE AND NEW SHAFT ANGLE).
000238:                                                                                                  #                  RESPONSES
000239:                                                                                                  #                  A. TERMINATE
000240:                                                                                                  #                     1. RELEASE EXT VERB DISPLAY SYS.
000241:                                                                                                  #                  B. PROCEED OR ENTER
000242:                                                                                                  #                     1. EXECUTE AURLOKON (ASK OPERATOR FOR LOCK-ON REQUIREMENTS).
000243:                                                                                                  #                     2. RE-DISPLAY VERB 41.
000244:                                                                                                  #                     3. SCHEDULE RRDESK2 WITH PRIORITY 20.
000245:                                                                                                  #                     4. RELEASE EXT VERB DISPLAY SYS.
000246:
000247:                                                                                                  #                  AURLOKON
000248:
000249:                                                                                                  #                 1. FLASH V04 N12 R1 = 00006 R2 = 00002
000250:                                                                                                  #                     RESPONSES
000251:                                                                                                  #                     A. TERMINATE
000252:                                                                                                  #                     B. PROCEED
000253:                                                                                                  #                       1. RESET LOCK-ON SWITCH
000254:                                                                                                  #                       2. SET CONTINUOUS DESIGNATE FLAG
000255:                                                                                                  #                       3. DISABLE R25
000256:                                                                                                  #                    C. V22 E 1 E, R1 = 00001, PROCEED
000257:                                                                                                  #                       1. SET LOCK-ON SWITCH
000258: 43,2177           02202        VBCOARK            TC       OP/INERT
000259: 43,2200           02213                           TC       IMUCOARK                              #  RETURN HERE IF NOUN = ICDU(20)
000260: 43,2201           02235                           TC       RRDESNBK                              #  RETURN HERE IF NOUN = RCDU(72)
000261:                                                                                                  #           RETURNS TO L+1 IF IMU OR L+2 IF RR.
000262:
000263: 43,2202           46007        OP/INERT           CS       OCT24
000264: 43,2203           61001                           AD       NOUNREG
000265: 43,2204           00006                           EXTEND


000267: 43,2205           16754                           BZF      TCQ                                   #  IF = 20.
000268:
000269: 43,2206           62212                           AD       RRIMUDIF                              #  -52
000270: 43,2207           00006                           EXTEND
000271: 43,2210           16751                           BZF      Q+1
000272:
000273: 43,2211           02116                           TC       ALM/END                               #  ILLEGAL.
000274:
000275: 43,2212           77713        RRIMUDIF           DEC      -52        B-14                       #  THE IMU
000276: 43,2213           02404        IMUCOARK           TC       CKMODCAD
000277: 43,2214           02076                           TC       TESTXACT                              #  COARSE ALIGN FROM KEYBOARD.
000278: 43,2215           32233                           CAF      VNLODCDU                              #  CALL FOR THETAD LOAD
000279: 43,2216           04616                           TC       BANKCALL
000280: 43,2217           20334                           CADR     GOXDSPF
000281: 43,2220           05503                           TC       TERMEXTV
000282: 43,2221           12222                           TCF      +1
000283:
000284: 43,2222           32234        ICORK2             CAF      IMUCOARV                              #  RE-DISPLAY COARSE ALIGN VERB.
000285: 43,2223           04616                           TC       BANKCALL
000286: 43,2224           20621                           CADR     EXDSPRET
000287:
000288: 43,2225           04616                           TC       BANKCALL                              #  CALL MODE SWITCHING PROG
000289: 43,2226           16745                           CADR     IMUCOARS
000290:
000291: 43,2227           04616                           TC       BANKCALL                              #  STALL
000292: 43,2230           17715                           CADR     IMUSTALL
000293: 43,2231           05503                           TC       ENDEXTVB
000294: 43,2232           05503                           TC       ENDEXTVB
000295:
000296: 43,2233           06226        VNLODCDU           VN       2522
000297: 43,2234           12200        IMUCOARV           VN       4100
000298:


000300:                                                                                                  #           DESIGNATE TO DESIRED GIMBAL ANGLES.
000301:
000302: 43,2235           02646        RRDESNBK           TC       RDRUSECK
000303: 43,2236           02076                           TC       TESTXACT
000304: 43,2237           46021                           CS       BIT10+15                              #  TERMINATE PRESENT DESIGNATION.
000305: 43,2240     4742               REFTAG3            =        DESIGBIT
000306: 43,2240     4735               REFTAG4            =        CDESBIT
000307: 43,2240           00004                           INHINT                                         #  RELINT DONE IN GOXDSPF
000308: 43,2241           70110                           MASK     RADMODES                              #  RESET CONTINUOUS DESIGNATE BIT AND
000309: 43,2242           54110                           TS       RADMODES                              #    DESIGNATION IN PROGRESS BIT.
000310:
000311: 43,2243           32262                           CAF      VNLDRCDU                              #  ASK FOR GIMBAL ANGLES.
000312: 43,2244           04616                           TC       BANKCALL
000313: 43,2245           20334                           CADR     GOXDSPF
000314: 43,2246           05503                           TC       TERMEXTV
000315: 43,2247           12243                           TCF      -4                                    #  V33
000316:
000317: 43,2250           04616                           TC       BANKCALL                              #  ASK OP FOR LOCK ON REQUIREMENTS.
000318: 43,2251           46000                           CADR     AURLOKON
000319:
000320: 43,2252           32234                           CAF      OPTCOARV                              #  RE-DISPLAY OUR OWN VERB
000321: 43,2253           04616                           TC       BANKCALL
000322: 43,2254           20621                           CADR     EXDSPRET
000323:
000324: 43,2255           34736                           CAF      PRIO20
000325: 43,2256           05105                           TC       FINDVAC
000326: 43,2257  E7,1456                                  EBANK=   LOSCOUNT
000327: 43,2257           02263 66107                     2CADR    RRDESK2
000328:
000329:
000330: 43,2261           15503                           TCF      TERMEXTV                              #  FREES DISPLAY.
000331:
000332: 43,2262           06111        VNLDRCDU           VN       2473
000333: 43,2263  43,2234               OPTCOARV           EQUALS   IMUCOARV                              #  DIFFERENT NOUNS.
000334:
000335: 43,2263           04616        RRDESK2            TC       BANKCALL
000336: 43,2264           52466                           CADR     RRDESNB
000337:
000338: 43,2265           02266                           TC       +1                                    #  DUMMY NEEDED SINCE DESRETRN DOES INCR
000339: 43,2266           30167                           CA       PRIORITY
000340: 43,2267           75004                           MASK     LOW9
000341: 43,2270           10000                           CCS      A
000342: 43,2271           50000                           INDEX    A
000343: 43,2272           54000                           TS       A                                     #  RELEASE THIS JOBS VAC AREA.
000344: 43,2273           40000                           COM                                            #  INSURE ENDOFJOB DOES A NOVAC END (BZMF).
000345: 43,2274           26167                           ADS      PRIORITY
000346: 43,2275           04616                           TC       BANKCALL                              #  WAIT FOR COMPLETION OF DESIGNATE
000347: 43,2276           17713                           CADR     RADSTALL
000348: 43,2277           02301                           TC       +2                                    #  BADEND-NO LOCKON OR OUT OF LIMITS
000349: 43,2300           05155                           TC       ENDOFJOB                              #  GOODEND-LOCKON ACHIEVED


000351: 43,2301           05600                           TC       ALARM
000352: 43,2302           00503                           OCT      503                                   #  TURN ON ALARM LIGHT -503 DESIGNATE FAIL
000353: 43,2303           05155                           TC       ENDOFJOB
000354:
000355:
000356: 43,2304           10110        RRDESEND           CCS      RADMODES                              #  TERMINATE CONTINUOUS DESIGNATE ONLY
000357: 43,2305           12117                           TCF      GOPIN
000358: 43,2306           12117                           TCF      GOPIN
000359: 43,2307           12310                           TCF      +1
000360: 43,2310           40110        REMODCHK           CS       RADMODES                              #  CHECK FOR REMODE OR REPOSITION
000361: 43,2311           77722                           MASK     BIT14&11
000362: 43,2312     4736               REFTAG1            =        REMODBIT
000363: 43,2312     4741               REFTAG2            =        REPOSBIT
000364: 43,2312           10000                           CCS      A
000365: 43,2313           12320                           TCF      NOREMODE                              #  NO
000366: 43,2314           34777                           CAF      1SEC                                  #  YES- WAIT 1 SECOND AND CHECK AGAIN
000367: 43,2315           04616                           TC       BANKCALL
000368: 43,2316           01736                           CADR     DELAYJOB
000369: 43,2317           02310                           TC       REMODCHK
000370: 43,2320           06011        NOREMODE           TC       CLRADMOD
000371: 43,2321           34777                           CAF      1SEC
000372: 43,2322           04616                           TC       BANKCALL
000373: 43,2323           01736                           CADR     DELAYJOB
000374: 43,2324           05527                           TC       DOWNFLAG                              #  ENABLE R25 GIMBAL MONITOR
000375: 43,2325           00126                           ADRES    NORRMON
000376: 43,2326     7722               BIT14&11           =        PRIO22
000377: 23,2000                                           BANK     23
000378: 23,2000                                           SETLOC   EXTVB1
000379: 23,2000                                           BANK
000380: 23,2000                                           COUNT*   $$/EXTVB
000381:
000382: 23,2000           04645        AURLOKON           TC       MAKECADR
000383: 23,2001           55112                           TS       DESRET
000384: 23,2002           34752                           CAF      TWO
000385: 23,2003           55051                           TS       OPTIONX    +1
000386: 23,2004           36254                           CAF      SIX                                   #  OPTION CODE FOR V04N12
000387: 23,2005           55050                           TS       OPTIONX
000388:
000389: 23,2006           32037                 -5        CAF      V04N1272
000390: 23,2007           04616                           TC       BANKCALL                              #       R2   00001  LOCK-ON
000391: 23,2010           20353                           CADR     GOMARKFR
000392: 23,2011           15503                           TCF      ENDEXT                                #  V34
000393: 23,2012           12017                           TCF      +5                                    #  V33
000394: 23,2013           12006                           TCF      -5                                    #  V32
000395: 23,2014           34751                           CAF      BIT3
000396: 23,2015           05475                           TC       BLANKET
000397: 23,2016           05155                           TC       ENDOFJOB
000398:
000399: 23,2017           31051                 +5        CA       OPTIONX    +1
000400: 23,2020           74752                           MASK     BIT2


000402: 23,2021           10000                           CCS      A
000403: 23,2022           12026                           TCF      NOLOKON
000404: 23,2023           05515                           TC       UPFLAG
000405: 23,2024           00012                           ADRES    LOKONSW
000406: 23,2025           12034                           TCF      AURLKON1
000407:
000408: 23,2026           05527        NOLOKON            TC       DOWNFLAG                              #  IF NO LOCK-ON, SET BIT15 OF RADMODES TO
000409: 23,2027           00012                           ADRES    LOKONSW                               #  INDICATE THAT CONTINUOUS DESIGNATION IS
000410: 23,2030           05515                           TC       UPFLAG                                #  WANTED (TO BE TERMINATED BY V44.)
000411: 23,2031           00264                           ADRES    CDESFLAG
000412: 23,2032           05515                           TC       UPFLAG                                #  SET NO RR ANGLE MONITOR FLAG.
000413: 23,2033           00126                           ADRES    NORRMON                               #  (DISABLE R25 RR GIMBAL MONITOR IN T4RUPT
000414: 23,2034           00003        AURLKON1           RELINT
000415: 23,2035           31112                           CA       DESRET
000416: 23,2036           14640                           TCF      BANKJUMP
000417:
000418:
000419: 23,2037           01014        V04N1272           VN       412
000420: 23,2040           77757        -LOKONFG           OCT      -20
000421:
000422: 43,2326                                           BANK     43
000423: 43,2000                                           SETLOC   EXTVERBS
000424: 43,2000                                           BANK
000425: 43,2326                                           COUNT*   $$/EXTVB
000426:
000427: 43,2326           05515        LRON               TC       UPFLAG                                #  PERMIT INCORPORATION OF LR DATA      V57
000428: 43,2327           00254                           ADRES    LRINH
000429: 43,2330           02117                           TC       GOPIN
000430:
000431: 43,2331           05527        LROFF              TC       DOWNFLAG                              #  INHIBIT INCORPORATION OF LR DATA     V58
000432: 43,2332           00254                           ADRES    LRINH
000433: 43,2333           02117                           TC       GOPIN
000434:
000435: 43,2334           05515        TEROFF             TC       UPFLAG                                #  TURN OFF TERRAIN MODEL               V68
000436: 43,2335           00023                           ADRES    NOTERFLG
000437: 43,2336           12117                           TCF      GOPIN
000438:
000439:
000440: 43,2337  E5,1737                                  EBANK=   OGC
000441:


000443:                                                                                                  #           IMUFINEK     VERB 42            DESCRIPTION
000444:                                                                                                  #               FINE ALIGN IMU
000445:                                                                                                  #               1. REQUIRE EXT VERB DISPLAY AVAILABLE AND SET BUSY FLAG OR TURN ON OPER ERROR AND GO TO PINBRNCH.
000446:                                                                                                  #               2. DISPLAY FLASHING V25,N93....LOAD DELTA GYRO ANGLES....
000447:                                                                                                  #                  RESPONSES
000448:                                                                                                  #                  A. TERMINATE
000449:                                                                                                  #                     1. RELEASE EXT VERB DISPLAY SYSTEM.
000450:                                                                                                  #                  B. PROCEED OR ENTER
000451:                                                                                                  #                     1. RE-DISPLAY VERB 42
000452:                                                                                                  #                     2. EXECUTE IMUFINE (IMU FIVE ALIGN MODE SWITCHING).
000453:                                                                                                  #                     3. EXECUTE IMUSTALL (ALLOW FOR DATA TRANSFER)
000454:                                                                                                  #                        A. FAILED
000455:                                                                                                  #                           1. RELEASE EXT VERB DISPLAY SYSTEM.
000456:                                                                                                  #                        B. GOOD
000457:                                                                                                  #                           1. EXECUTE IMUPULSE (TORQUE IRIGS).
000458:                                                                                                  #                           2. EXECUTE IMUSTALL AND RELEASE EXT VERB DISPLAY SYSTEM.
000459:
000460: 43,2337           02404        IMUFINEK           TC       CKMODCAD
000461: 43,2340           02076                           TC       TESTXACT                              #  FINE ALIGN WITH GYRO TORQUING.
000462: 43,2341           32366                           CAF      VNLODGYR                              #  CALL FOR LOAD OF GYRO COMMANDS
000463: 43,2342           04616                           TC       BANKCALL
000464: 43,2343           20334                           CADR     GOXDSPF
000465: 43,2344           05503                           TC       TERMEXTV
000466: 43,2345           02346                           TC       +1                                    #  PROCEED WITHOUT A LOAD
000467:
000468: 43,2346           32367                           CAF      IMUFINEV                              #  RE-DISPLAY OUR OWN VERB
000469: 43,2347           04616                           TC       BANKCALL
000470: 43,2350           20621                           CADR     EXDSPRET
000471:
000472: 43,2351           04616                           TC       BANKCALL                              #  CALL MODE SWITCH PROG
000473: 43,2352           17155                           CADR     IMUFINE
000474:
000475: 43,2353           04616                           TC       BANKCALL                              #  HIBERNATION
000476: 43,2354           17715                           CADR     IMUSTALL
000477: 43,2355           05503                           TC       ENDEXTVB
000478:
000479: 43,2356           32365        FINEK2             CAF      LGYROBIN                              #  PINBALL LEFT COMMANDS IN OGC REGIST5RS
000480: 43,2357           04616                           TC       BANKCALL
000481: 43,2360           17270                           CADR     IMUPULSE
000482:
000483: 43,2361           04616                           TC       BANKCALL                              #  WAIT FOR PULSES TO GET OUT.
000484: 43,2362           17715                           CADR     IMUSTALL
000485: 43,2363           05503                           TC       ENDEXTVB
000486: 43,2364           05503                           TC       ENDEXTVB
000487:
000488: 43,2365           02737        LGYROBIN           ECADR    OGC
000489: 43,2366           06335        VNLODGYR           VN       2593
000490: 43,2367           12400        IMUFINEV           VN       4200
000491:                                                                                                  #           GOLOADLV     VERB 50            DESCRIPTION
000492:                                                                                                  #                        AND OTHER PLEASE


000494:                                                                                                  #                        DO SOMETHING VERBS
000495:                                                                                                  #               PLEASE PERFORM, MARK, CALIBRATE, ETC.
000496:                                                                                                  #               1. PRESSING ENTER ON DSKY INDICATES REQUESTED ACTION HAS BEEN  PERFORMED, AND THE PROGRAM DOES THE
000497:                                                                                                  #                  SAME RECALL AS A COMPLETED LOAD.
000498:                                                                                                  #               2. THE EXECUTION OF A VERB 33 (PROCEED WITHOUT DATA) INDICATES THE REQUESTED ACTION IS NOT DESIRED.
000499:
000500: 43,2370  40,2000                                  SBANK=   PINSUPER                              #  FOR LOADLV1 AND SHOWSUM CADR'S.
000501:
000502: 43,2370           04433        GOLOADLV           TC       FLASHOFF
000503:
000504: 43,2371           34201                           CAF      PINSUPBT
000505: 43,2372           00006                           EXTEND
000506: 43,2373           01007                           WRITE    SUPERBNK
000507: 43,2374           04635                           TC       POSTJUMP
000508: 43,2375           62021                           CADR     LOADLV1
000509:                                                                                                  #  VERB 47 - AGS INITIALIZATION - R47.
000510:
000511:                                                                                                  #           SEE LOG SECTION AGS INITIALIZATION FOR OTHER PERTINENT REMARKS.
000512:
000513: 43,2376           02076        V47TXACT           TC       TESTXACT                              #  NO OTHER EXTVERB.
000514: 43,2377           34740                           CAF      PRIO4
000515: 43,2400           05105                           TC       FINDVAC
000516: 43,2401  E6,1771                                  EBANK=   AGSK
000517: 43,2401           02005 64066                     2CADR    AGSINIT
000518:
000519: 43,2403           05155                           TC       ENDOFJOB
000520:
000521: 43,2404           31301        CKMODCAD           CA       MODECADR
000522: 43,2405           00006                           EXTEND
000523: 43,2406           16754                           BZF      TCQ
000524: 43,2407           02116                           TC       ALM/END                               #  SOMEBODY IS USING MODECADR SO EXIT
000525:


000527:                                                                                                  #           ALINTIME     VERB 55            DESCRIPTION
000528:                                                                                                  #                  REQUIRE POO OR POO-.
000529:                                                                                                  #               1. SET EXT VERB DISPLAY BUSY FLAG.
000530:                                                                                                  #               2. DISPLAY FLASHING V25,N24 (LOAD DELTA TIME FOR AGC CLOCK.
000531:                                                                                                  #               3. REQUIRE EXECUTION OF VERB 23.
000532:                                                                                                  #               4. ADD DELTA TIME, RECEIVED FROM INPUT REGISTER, TO THE COMPUTER TIME.
000533:                                                                                                  #               5. RELEASE EXT VERB DISPLAY SYSTEM
000534:
000535: 43,2410           02076        ALINTIME           TC       TESTXACT
000536: 43,2411           04635                           TC       POSTJUMP                              #  NO ROOM IN 43
000537: 43,2412           64002                           CADR     R33
000538:
000539: 42,2002                                           BANK     42
000540: 42,2000                                           SETLOC   SBAND
000541: 42,2000                                           BANK
000542: 42,2002                                           COUNT*   $$/R33
000543:
000544: 42,2002           35021        R33                CAF      PRIO7
000545: 42,2003           05146                           TC       PRIOCHNG
000546: 42,2004           32034                           CAF      VNLODDT
000547: 42,2005           04616                           TC       BANKCALL
000548: 42,2006           20334                           CADR     GOXDSPF
000549: 42,2007           05503                           TC       ENDEXT                                #  TERMINATE
000550: 42,2010           05503                           TC       ENDEXT                                #  PROCEED
000551: 42,2011           42033                           CS       DEC23                                 #  DATA IN OR RESEQUENCE(UNLIKELY)
000552: 42,2012           60154                           AD       MPAC                                  #  RECALL LEFT VERB IN MPAC
000553: 42,2013           00006                           EXTEND
000554: 42,2014           12016                           BZF      UPDATIME                              #  GO AHEAD WITH UPDATE ONLY IF RECALL
000555: 42,2015           05503                           TC       ENDEXT                                #    WITH V23 (DATA IN).
000556:
000557: 42,2016           00004        UPDATIME           INHINT                                         #  DELTA TIME IS IN DSPTEM1, +1.
000558: 42,2017           34755                           CAF      ZERO
000559: 42,2020           54156                           TS       MPAC       +2                         #  NEEDED FOR TP AGREE
000560: 42,2021           54001                           TS       L                                     #  ZERO T1 + 2 WHILE ALIGNING.
000561: 42,2022           52025                           DXCH     TIME2
000562: 42,2023           52155                           DXCH     MPAC
000563: 42,2024           53051                           DXCH     DSPTEM2    +1                         #  INCREMENT
000564: 42,2025           20155                           DAS      MPAC
000565:
000566: 42,2026           07271                           TC       TPAGREE                               #  FORCE SIGN AGREEMENT.
000567: 42,2027           52155                           DXCH     MPAC                                  #  NEW CLOCK.
000568: 42,2030           20025                           DAS      TIME2
000569: 42,2031           00003                           RELINT
000570: 42,2032           05503        UPDTMEND           TC       ENDEXT
000571:
000572: 42,2033           00027        DEC23              DEC      23         B-14                       #  V 23
000573:
000574: 42,2034           06230        VNLODDT            VN       2524                                  #  V25N24 FOR LOAD DELTA TIME
000575:


000577:                                                                                                  #           SET UP FOR RADAR SAMPLING.
000578:
000579: 42,2035                                           BANK     42
000580: 43,2000                                           SETLOC   EXTVERBS
000581: 43,2000                                           BANK
000582:
000583: 43,2413  E4,1571                                  EBANK=   RSTACK
000584:
000585: 43,2413                                           COUNT*   $$/R0477
000586:
000587: 43,2413           02646        R77                TC       RDRUSECK                              #  TRY TO AVOID THE 1210.
000588: 43,2414           30077                           CA       FLAGWRD3                              #  IS R04 RUNNING?
000589: 43,2415           74743                           MASK     R04FLBIT
000590: 43,2416           10000                           CCS      A
000591: 43,2417           02116                           TC       ALM/END                               #  YES.
000592: 43,2420           05515                           TC       UPFLAG
000593: 43,2421           00117                           ADRES    R77FLAG
000594: 43,2422           12427                           TCF      R04Z
000595:
000596: 43,2423           02646        R04                TC       RDRUSECK                              #  TRY TO AVOID THE 1210.
000597: 43,2424           02076                           TC       TESTXACT
000598: 43,2425           05515                           TC       UPFLAG
000599: 43,2426           00063                           ADRES    R04FLAG                               #  SET R04FLAG FOR ALARMS
000600:
000601: 43,2427           34741        R04Z               CAF      EBANK4
000602: 43,2430           54003                           TS       EBANK
000603: 43,2431           32644                           CAF      1SEC+1                                #  SAMPLE ONCE PER SECOND
000604: 43,2432           55770                           TS       RSAMPDT
000605: 43,2433           34755                           CAF      ZERO
000606: 43,2434           55767                           TS       RTSTLOC
000607: 43,2435           55566                           TS       RFAILCNT                              #  ZERO BAD SAMPLE COUNTER
000608:
000609: 43,2436           00004                           INHINT
000610: 43,2437           42645                           CS       LRPOSCAL                              #  INITIALIZE
000611: 43,2440           70110                           MASK     RADMODES                              #      BIT9   LR RANGE  LOW SCALE =0
000612: 43,2441           54110                           TS       RADMODES                              #      BIT6   LR POS 1 =0
000613: 43,2442           32645                           CAF      LRPOSCAL                              #      BIT3   RR RANGE  LOW SCALE =0
000614: 43,2443           00006                           EXTEND
000615: 43,2444           02033                           RAND     CHAN33
000616: 43,2445           26110                           ADS      RADMODES
000617: 43,2446           00003                           RELINT
000618:
000619: 43,2447           40077                           CS       FLAGWRD3                              #  CHECK R04FLAG      R04 =1    R77 =0
000620: 43,2450           74743                           MASK     R04FLBIT
000621: 43,2451           10000                           CCS      A
000622: 43,2452           12601                           TCF      R04K
000623:
000624: 43,2453           34753                           CAF      ONE                                   #  INDICATES RENDEZVOUS DESIRED
000625: 43,2454           55051                           TS       OPTIONX    +1
000626: 43,2455           34751        R04A               CAF      BIT3                                  #  OPTION CODE FOR V04N12
000627:


000629: 43,2456           55050                           TS       OPTIONX
000630: 43,2457           32641                           CAF      V04N12X
000631: 43,2460           04616                           TC       BANKCALL                              #      R2   00001  RENDEZVOUS RADAR
000632: 43,2461           20353                           CADR     GOMARKFR                              #           00002  LANDING RADAR
000633: 43,2462           12607                           TCF      R04END                                #  V34
000634: 43,2463           12470                           TCF      +5                                    #  V33
000635: 43,2464           12457                           TCF      R04A       +2                         #  R2
000636: 43,2465           34751                           CAF      BIT3
000637: 43,2466           05475                           TC       BLANKET
000638: 43,2467           05155                           TC       ENDOFJOB
000639:
000640: 43,2470           31051                           CA       OPTIONX    +1                         #  SAVE DESIRED OPTION     RR =1     LR =2
000641: 43,2471           55764                           TS       RTSTDEX
000642:
000643: 43,2472           36254        R04X               CAF      SIX                                   #  RR OR LR DESIRED
000644: 43,2473           71764                           MASK     RTSTDEX
000645: 43,2474           10000                           CCS      A
000646: 43,2475           12603                           TCF      R04L                                  #  LANDING RADAR
000647: 43,2476           55766                           TS       RTSTBASE                              #  FOR RR   BASE = 0, MAX = 1
000648:
000649: 43,2477           34752        R04B               CAF      BIT2                                  #  IS RR AUTO MODE DISCRETE PRESENT
000650: 43,2500           00006                           EXTEND
000651: 43,2501           02033                           RAND     CHAN33
000652: 43,2502           00006                           EXTEND
000653: 43,2503           12514                           BZF      R04C                                  #  YES
000654:
000655: 43,2504           32643                           CAF      201R04                                #  REQUEST SELECTION OF RR AUTO MODE
000656: 43,2505           55044                           TS       DSPTEM1
000657: 43,2506           32642                           CAF      V50N25X
000658: 43,2507           04616                           TC       BANKCALL
000659: 43,2510           20345                           CADR     GOMARK4
000660: 43,2511           12607                           TCF      R04END                                #  V34
000661: 43,2512           12477                           TCF      R04B                                  #  V33
000662: 43,2513           12504                           TCF      -7                                    #  E
000663:
000664: 43,2514           34736        R04C               CAF      BIT14                                 #  ENABLE RR AUTO TRACKER
000665: 43,2515           00006                           EXTEND
000666: 43,2516           05012                           WOR      CHAN12
000667:
000668: 43,2517           34752                           CAF      TWO
000669: 43,2520           55765                           TS       RTSTMAX                               #  FOR SEQUENTIAL STORAGE
000670:
000671: 43,2521           05214                           TC       WAITLIST
000672: 43,2522  E4,1571                                  EBANK=   RSTACK
000673: 43,2522           02050 32104                     2CADR    RADSAMP
000674:
000675: 43,2524           00003                           RELINT
000676:
000677: 43,2525           40077                           CS       FLAGWRD3                              #  CHECK R04FLAG      R04 =1    R77 =0
000678: 43,2526           74743                           MASK     R04FLBIT


000680: 43,2527           10000                           CCS      A
000681: 43,2530           12117                           TCF      GOPIN                                 #  R77
000682:
000683: 43,2531           36254                           CAF      SIX                                   #  RR OR LR
000684: 43,2532           71764                           MASK     RTSTDEX
000685: 43,2533           10000                           CCS      A
000686: 43,2534           12551                           TCF      R04LR                                 #  LR
000687:
000688: 43,2535           32635        R04RR              CAF      V16N72                                #  DISPLAY RR CDU ANGLES (1/SEC)
000689: 43,2536           04616                           TC       BANKCALL                              #           R1  +  XXX.XX DEG   TRUNNION
000690: 43,2537           20334                           CADR     GOMARKF                               #           R2  +  XXX.XX DEG   SHAFT
000691: 43,2540           12607                           TCF      R04END                                #  V34      R3     BLANK
000692: 43,2541           12543                           TCF      +2                                    #  V33
000693: 43,2542           12535                           TCF      R04RR                                 #  V32
000694:
000695: 43,2543           32636                           CAF      V16N78                                #  DISPLAY RR RANGE AND RANGE RATE (1/SEC)
000696: 43,2544           04616                           TC       BANKCALL                              #           R1  +- XXX.XX NM    RANGE
000697: 43,2545           20334                           CADR     GOMARKF                               #           R2  +- XXXXX. FPS   RANGE RATE
000698: 43,2546           12607                           TCF      R04END                                #  V34      R3     BLANK
000699: 43,2547           12565                           TCF      R04Y                                  #  V33
000700: 43,2550           12535                           TCF      R04RR                                 #  V32
000701:
000702: 43,2551           32637        R04LR              CAF      V16N66                                #  DISPLAY LR RANGE AND POSITION (1/SEC)
000703: 43,2552           04616                           TC       BANKCALL                              #           R1  +- XXXXX. FT    LR RANGE
000704: 43,2553           20334                           CADR     GOMARKF                               #           R2  +  0000X.       POS. NO.
000705: 43,2554           12607                           TCF      R04END                                #  V34      R3     BLANK
000706: 43,2555           12557                           TCF      +2                                    #  V33
000707: 43,2556           12551                           TCF      R04LR                                 #  V32
000708:
000709: 43,2557           32640                           CAF      V16N67                                #  DISPLAY LR VELX, VELY, VELZ (1/SEC)
000710: 43,2560           04616                           TC       BANKCALL                              #           R1  +- XXXXX. FPS   LR V(X)
000711: 43,2561           20334                           CADR     GOMARKF                               #           R2  +- XXXXX. FPS   LR V(Y)
000712: 43,2562           12607                           TCF      R04END                                #  V34      R3  +- XXXXX. FPS   LR V(Z)
000713: 43,2563           12565                           TCF      R04Y                                  #  V33
000714: 43,2564           12551                           TCF      R04LR                                 #  V32
000715:
000716: 43,2565           34755        R04Y               CAF      ZERO                                  #  TO TERMINATE SAMPLING
000717: 43,2566           55770                           TS       RSAMPDT
000718: 43,2567           04616                           TC       BANKCALL
000719: 43,2570           01735                           CADR     2SECDELY                              #  WAIT FOR LAST RADARUPT
000720: 43,2571           32644                           CAF      1SEC+1                                #  SAMPLE ONCE PER SECOND
000721: 43,2572           55770                           TS       RSAMPDT
000722: 43,2573           34755                           CAF      ZERO                                  #  FOR STORING RESULTS
000723: 43,2574           55767                           TS       RTSTLOC
000724: 43,2575           11766                           CCS      RTSTBASE                              #   CHECK WHICH RADAR HAD BEEN SAMPLED
000725: 43,2576           44753                           CS       ONE                                   #  WAS LR
000726: 43,2577           64752                           AD       TWO                                   #  WAS RR
000727: 43,2600           12471                           TCF      R04X       -1
000728:
000729: 43,2601           34766        R04K               CAF      250MS+1                               #  SAMPLE 4 LR COMPONENTS PER SECOND.


000731: 43,2602           55770                           TS       RSAMPDT
000732:
000733: 43,2603           34752        R04L               CAF      TWO
000734: 43,2604           55766                           TS       RTSTBASE                              #  FOR LR   BASE = 2, MAX = 3
000735: 43,2605           36254                           CAF      SIX
000736: 43,2606           12520                           TCF      R04C       +4
000737: 43,2607           34755        R04END             CAF      ZERO                                  #  ZERO RSAMPDT
000738: 43,2610           55770                           TS       RSAMPDT                               #  TO TERMINATE SAMPLING
000739: 43,2611           34744                           CAF      BIT8                                  #  WAIT 1.28 SECONDS FOR POSSIBLE
000740: 43,2612           04616                           TC       BANKCALL                              #  PENDING RUPT.
000741: 43,2613           01736                           CADR     DELAYJOB
000742:
000743: 43,2614           00004                           INHINT
000744: 43,2615           44736                           CS       BIT14                                 #  DISABLE RR AUTO TRACKER
000745: 43,2616           00006                           EXTEND
000746: 43,2617           03012                           WAND     CHAN12
000747:
000748: 43,2620           05527                           TC       DOWNFLAG
000749: 43,2621           00063                           ADRES    R04FLAG                               #  SIGNAL END OF R04.
000750:
000751: 43,2622           05503                           TC       ENDEXT
000752:
000753: 43,2623           34741        R77END             CAF      EBANK4                                #  TO TERMINATE SAMPLING
000754: 43,2624           54003                           TS       EBANK
000755: 43,2625           34755                           CAF      ZERO
000756: 43,2626           55770                           TS       RSAMPDT
000757: 43,2627           34746                           CAF      BIT6                                  #  WAIT 320 MS FOR POSSIBLE
000758: 43,2630           04616                           TC       BANKCALL                              #  PENDING RUPT.
000759: 43,2631           01736                           CADR     DELAYJOB
000760:
000761: 43,2632           05527                           TC       DOWNFLAG
000762: 43,2633           00117                           ADRES    R77FLAG
000763: 43,2634           12117                           TCF      GOPIN
000764:
000765: 43,2635           04110        V16N72             VN       1672
000766: 43,2636           04116        V16N78             VN       1678
000767: 43,2637           04102        V16N66             VN       1666
000768: 43,2640           04103        V16N67             VN       1667
000769: 43,2641           01014        V04N12X            VN       412
000770: 43,2642           14431        V50N25X            VN       5025
000771: 43,2643           00201        201R04             OCT      00201
000772: 43,2644           00145        1SEC+1             DEC      101        B-14
000773: 43,2645     4766               250MS+1            EQUALS   CALLCODE
000774: 43,2645           00444        LRPOSCAL           OCT      444
000775:


000777: 43,2646           30101        RDRUSECK           CA       FLAGWRD5                              #  IS R77 RUNNING?
000778: 43,2647           74741                           MASK     R77FLBIT
000779: 43,2650           10000                           CCS      A
000780: 43,2651           02116                           TC       ALM/END                               #  YES.
000781: 43,2652           40103                           CS       FLAGWRD7                              #  IS SERVICER RUNNING AND HENCE POSSIBLY
000782: 43,2653           74746                           MASK     V37FLBIT                              #  R12 USING THE LR?
000783: 43,2654           10000                           CCS      A
000784: 43,2655           12662                           TCF      CHECKRR                               #  NO
000785: 43,2656           30107                           CA       FLGWRD11                              #  YES, IS R12 ON?
000786: 43,2657           74735                           MASK     LRBYBIT                               #  BIT 15
000787: 43,2660           00006                           EXTEND
000788: 43,2661           12116                           BZF      ALM/END                               #  YES
000789: 43,2662           40075        CHECKRR            CS       FLAGWRD1                              #  IS THE TRACK FLAG SET AND HENCE POSSIBLY
000790: 43,2663           74747                           MASK     TRACKBIT                              #  P20 USING THE RR?
000791: 43,2664           10000                           CCS      A
000792: 43,2665           00002                           TC       Q                                     #  NOT ALLOWED DURING P20
000793: 43,2666           02116                           TC       ALM/END                               #  P22 OR P25,  (R65)
000794: 43,2667                                           COUNT*   $$/EXTVB
000795:
000796: 43,2667           02076        VB64               TC       TESTXACT                              #  IF DISPLAY SYS. NOT BUSY,MAKE IT BUSY.
000797: 43,2670           34740                           CAF      PRIO4
000798: 43,2671           05105                           TC       FINDVAC
000799: 43,2672  E4,1571                                  EBANK=   ALPHASB
000800: 43,2672           03614 64104                     2CADR    SBANDANT                              #  CALC.,DISPLAY S-BAND ANTENNA ANGLES.
000801:
000802: 43,2674           05155                           TC       ENDOFJOB
000803:


000805:                                                                                                  #           IMUATTCK     VERB 43            DESCRIPTION
000806:                                                                                                  #               LOAD IMU ATTITUDE ERROR METERS
000807:                                                                                                  #                  1. REQUIRE POO OR FRESH START.
000808:                                                                                                  #                  2. REQUIRE COARSE ALIGN ENABLE AND ZERO ICDU BITS OFF.
000809:                                                                                                  #                  3. REQUIRE THAT NEEDLES BE OFF.
000810:                                                                                                  #                  4. REQUEST LOAD OF N22  (VAUES TO BE DISPLAYED).
000811:                                                                                                  #                  5. ON PROCEED OR ENTER RE-DISPLAY V43 AND SEND PULSES.
000812:
000813: 43,2675           02121        IMUATTCK           TC       CHKPOOH                               #  VB 76 - LOAD IMU ATT. ERROR METERS
000814:
000815: 43,2676           34763                           CAF      BITS4&5                               #  SEE IF COARSE ALIGN ENABLE AND ZERO IMU
000816: 43,2677           00006                           EXTEND                                         #  CDUS BITS ARE ON
000817: 43,2700           02012                           RAND     CHAN12
000818: 43,2701           10000                           CCS      A
000819: 43,2702           12116                           TCF      ALM/END                               #  NOT ALLOWED IF IMU COARSE OR IMU ZERO ON
000820:
000821: 43,2703           34355                           CAF      BIT13-14                              #  BOTH BITS 13 AND 14 MUST BE 1
000822: 43,2704           00006                           EXTEND                                         #  INDICATING THE MODE SELECTED IS OFF.
000823: 43,2705           06031                           RXOR     CHAN31
000824: 43,2706           74355                           MASK     BIT13-14
000825: 43,2707           00006                           EXTEND
000826: 43,2710           12712                           BZF      +2                                    #  NEEDLES IS OFF.
000827: 43,2711           12116                           TCF      ALM/END                               #  EXIT.  NEEDLES IS ON.
000828:
000829: 43,2712           02076                           TC       TESTXACT
000830:
000831: 43,2713           32233                           CAF      VNLODCDU
000832: 43,2714           04616                           TC       BANKCALL
000833: 43,2715           20334                           CADR     GOXDSPF
000834: 43,2716           05503                           TC       ENDEXT                                #  V34
000835: 43,2717           02720                           TC       +1
000836: 43,2720           32733                           CAF      V43K                                  #  REDISPLAY OUR VERB.
000837: 43,2721           04616                           TC       BANKCALL
000838: 43,2722           20621                           CADR     EXDSPRET
000839: 43,2723           34746                           CAF      BIT6
000840: 43,2724           00006                           EXTEND
000841: 43,2725           05012                           WOR      CHAN12                                #  ENABLE ERROR COUNTERS.
000842: 43,2726           34752                           CAF      TWO
000843: 43,2727           05214                           TC       WAITLIST                              #  PUT OUT COMMANDS IN .32 SECONDS.
000844: 43,2730     0321                                  EBANK=   THETAD
000845: 43,2730           02035 64100                     2CADR    ATTCK2
000846:
000847: 43,2732           15503                           TCF      ENDEXT
000848:
000849: 42,2035                                           BANK     42
000850: 42,2000                                           SETLOC   PINBALL3                              #  SOMETHING IN B42.
000851: 42,2000                                           BANK
000852:
000853: 42,2035                                           COUNT*   $$/EXTVB


000855: 42,2035           34752        ATTCK2             CAF      TWO                                   #  PUT OUT COMMANDS.
000856: 42,2036           54002                 +1        TS       Q                                     #  CDU WILL LIMIT EXCESS DATA.
000857: 42,2037           50000                           INDEX    A
000858: 42,2040           30321                           CA       THETAD
000859: 42,2041           00006                           EXTEND
000860: 42,2042           72053                           MP       ATTSCALE
000861: 42,2043           50002                           INDEX    Q
000862: 42,2044           56050                           XCH      CDUXCMD
000863: 42,2045           10002                           CCS      Q
000864: 42,2046           12036                           TCF      ATTCK2     +1
000865:
000866: 42,2047           37752                           CAF      13,14,15
000867: 42,2050           00006                           EXTEND
000868: 42,2051           05014                           WOR      CHAN14
000869: 42,2052           15272                           TCF      TASKOVER                              #  LEAVE ERROR COUNTERS ENABLED.
000870:
000871: 42,2053           03146        ATTSCALE           DEC      0.1
000872:
000873: 07,2661                                           BANK     7
000874: 43,2000                                           SETLOC   EXTVERBS
000875: 43,2000                                           BANK
000876:
000877: 43,2733                                           COUNT*   $$/EXTVB
000878:
000879: 43,2733           12600        V43K               VN       4300
000880:                                                                                                  #           V82PERF     VERB 82             DESCRIPTION
000881:                                                                                                  #               REQUEST ORBIT PARAMETERS DISPLAY (R30)
000882:                                                                                                  #  1. IF AVERAGE G IS OFF:
000883:                                                                                                  #           FLASH DISPLAY V04N06. R2 INDICATES WHICH SHIP'S STATE VECTOR IS
000884:                                                                                                  #            TO BE UPDATED. INITIAL CHOICE IS THIS SHIP (R2=1). ASTRONAUT
000885:                                                                                                  #            CAN CHANGE TO OTHER SHIP BY V22EXE, WHERE X NOT EQ 1.
000886:                                                                                                  #           SELECTED STATE VECTOR UPDATED BY THISPREC (OTHPREC).
000887:                                                                                                  #           CALLS SR30.1 (WHICH CALLS TFFCONMU + TFFRP/RA) TO CALCULATE
000888:                                                                                                  #            RPER (PERIGEE RADIUS), RAPO (APOGEE RADIUS), HPER (PERIGEE
000889:                                                                                                  #            HEIGHT ABOVE LAUNCH PAD OR LUNAR LANDING SITE), HAPO (APOGEE
000890:                                                                                                  #            HEIGHT AS ABOVE), TPER (TIME TO PERIGEE), TFF (TIME TO
000891:                                                                                                  #            INTERSECT 300 KFT ABOVE PAD OR 35KFT ABOVE LANDING SITE).
000892:                                                                                                  #           FLASH MONITOR V16N44 (HAPO, HPER, TFF).TFF IS -59M59S IF IT WAS
000893:                                                                                                  #            NOT COMPUTABLE, OTHERWISE IT INCREMENTS ONCE PER SECOND.
000894:                                                                                                  #            ASTRONAUT HAS OPTION TO MONITOR TPER BY KEYING IN N 32 E.
000895:                                                                                                  #            DISPLAY IS IN HMS, IS NEGATIVE (AS WAS TFF), AND INCREMENTS
000896:                                                                                                  #            ONCE PER SECOND ONLY IF TFF DISPLAY WAS -59M59S.
000897:
000898:                                                                                                  #  2. IF AVERAGE G IS ON:
000899:                                                                                                  #           CALLS SR30.1 APPROX EVERY TWO SECS.  STATE VECTOR IS ALWAYS
000900:                                                                                                  #            FOR THIS VEHICLE. V82 DOES NOT DISTURB STATE VECTOR.  RESULTS
000901:                                                                                                  #            OF SR30.1 ARE RAPO, RPER, HAPO, HPER, TPER, TFF.
000902:                                                                                                  #           FLASH MONITOR V16N44 (HAPO, HPER, TFF).
000903:                                                                                                  #           IF MODE IS P11, THEN CALL DELRSPL SO ASTRONAUT CAN MONITOR
000904:                                                                                                  #            RESULTS BY N50E. SPLASH COMPUTATION DONE ONCE PER TWO SECS.
000905:


000907: 43,2734           02076        V82PERF            TC       TESTXACT
000908:
000909: 43,2735           35021                           CAF      PRIO7                                 #  LESS THAN LAMBERT.  R30,V82
000910: 43,2736           05146                           TC       PRIOCHNG
000911: 43,2737           00006                           EXTEND
000912: 43,2740           32743                           DCA      V82CON
000913: 43,2741           05176                           TC       SUPDXCHZ                              #  V82CALL IN DIFF SUPERBANK FROM V82PERF
000914:
000915: 43,2742  E4,1707                                  EBANK=   HAPO
000916: 43,2742           03242 44104  V82CON             2CADR    V82CALL
000917:
000918:                                                                                                  #           VB83PERF     VERB 83            DESCRIPTION
000919:                                                                                                  #               REQUEST RENDEZVOUS PARAMETER DISPLAY (R31)
000920:                                                                                                  #               1. SET EXT VERB DISPLAY BUSY FLAG.
000921:                                                                                                  #               2. SCHEDULE R31CALL WITH PRIORITY 5.
000922:                                                                                                  #                  A. DISPLAY
000923:                                                                                                  #                      R1  RANGE
000924:                                                                                                  #                      R2  RANGE RATE
000925:                                                                                                  #                      R3  THETA
000926:
000927: 43,2744           02076        V83PERF            TC       TESTXACT
000928:
000929: 43,2745           34752                           CAF      BIT2
000930: 43,2746           05214                           TC       WAITLIST
000931: 43,2747  E7,1611                                  EBANK=   TSTRT
000932: 43,2747           03734 60107                     2CADR    R31CALL
000933:
000934: 43,2751           05155                           TC       ENDOFJOB
000935:
000936:                                                                                                  #  VERB 89 DESCRIPTION     RENDEZVOUS FINAL ATTITUDE ROUTINE (R63)
000937:
000938:                                                                                                  #  CALLED BY VERB 89 ENTER DURING P00. PRIO 10 USED.  CALCULATES AND
000939:                                                                                                  #  DISPLAYS FINAL FDAI BALL ANGLES TO POINT LM +X OR +Z AXIS AT CSM.
000940:
000941:                                                                                                  #  1. KEY IN V 89 E ONLY IF IN PROG 00. IF NOT IN P00, OPERATOR ERROR AND
000942:                                                                                                  #  EXIT R63, OTHERWISE CONTINUE.
000943:
000944:                                                                                                  #  2. IF IN P00, DO IMU STATUS CHECK ROUTINE (R02BOTH). IF IMU ON AND ITS
000945:                                                                                                  #  ORIENTATION KNOWN TO LGC, CONTINUE.
000946:
000947:                                                                                                  #  3. FLASH DISPLAY V 04 N 06.  R2 INDICATES WHICH SPACECRAFT AXIS IS TO
000948:                                                                                                  #  BE POINTED AT CSM.  INITIAL CHOICE IS PREFERRED (+Z) AXIS (R2=1).
000949:                                                                                                  #  ASTRONAUT CAN CHANGE TO (+X) AXIS (R2 NOT = 1) BY V 22 E 2 E.  CONTINUE
000950:                                                                                                  #  AFTER KEYING IN PROCEED.
000951:
000952:                                                                                                  #  4. BOTH VEHICLE STATE VECTORS UPDATED BY CONIC EQS.
000953:
000954:                                                                                                  #  5. HALF MAGNITUDE UNIT LOS VECTOR (IN STABLE MEMBER COORDINATES) AND


000956:                                                                                                  #  HALF MAGNITUDE UNIT SPACECRAFT AXIS VECTOR (IN BODY COORDINATES)
000957:                                                                                                  #  PREPARED FOR VECPOINT.
000958:
000959:                                                                                                  #  6. GIMBAL ANGLES FROM VECPOINT TRANSFORMED INTO FDAI BALL ANGLES BY
000960:                                                                                                  #  BALLANGS. FLASH DISPLAY V 06 N 18 AND AWAIT RESPONSE.
000961:
000962:                                                                                                  #  7. RECYCLE - RETURN TO STEP 4.
000963:                                                                                                  #     TERMINATE - EXIT R63.
000964:                                                                                                  #     PROCEED - RESET 3AXISFLG AND CALL R60LEM FOR ATTITUDE MANEUVER.
000965:
000966:
000967: 43,2752           02121        V89PERF            TC       CHKPOOH
000968: 43,2753           02076                           TC       TESTXACT
000969: 43,2754           34737                           CAF      PRIO10
000970: 43,2755           05105                           TC       FINDVAC
000971: 43,2756  E4,1577                                  EBANK=   RONE
000972: 43,2756           02024 54104                     2CADR    V89CALL
000973:
000974: 43,2760           05155                           TC       ENDOFJOB
000975:
000976:                                                                                                  #           V90PERF     VERB 90             DESCRIPTION
000977:                                                                                                  #               REQUEST RENDEZVOUS OUT-OF-PLANE DISPLAY (R36)
000978:                                                                                                  #               1. SET EXT VERB DISPLAY BUSY FLAG.
000979:                                                                                                  #               2. SCHEDULE R36 CALL WITH PRIORITY 10
000980:                                                                                                  #                  A. DISPLAY
000981:                                                                                                  #                      TIME OF EVENT - HOURS , MINUTES , SECONDS
000982:                                                                                                  #                      Y  OUT-OF-PLANE POSITION - NAUTICAL MILES
000983:                                                                                                  #                      YDOT  OUT-OF-PLANE VELOCITY - FEET/SECOND
000984:                                                                                                  #                      PSI  ANGLE BTW LINE OF SIGHT AND FORWARD
000985:                                                                                                  #                           DIRECTION VECTOR IN HORIZONTAL PLANE - DEGREES
000986:
000987: 43,2761           40103        V90PERF            CS       FLAGWRD7
000988: 43,2762           74746                           MASK     V37FLBIT
000989: 43,2763           00006                           EXTEND
000990: 43,2764           12116                           BZF      ALM/END                               #  AVERAGE G ON: ILL EAGLE
000991: 43,2765           02076                           TC       TESTXACT
000992: 43,2766           35021                           CAF      PRIO7                                 #  R36,V90
000993: 43,2767           05105                           TC       FINDVAC
000994: 43,2770  E7,1441                                  EBANK=   TIG
000995: 43,2770           02650 10107                     2CADR    R36
000996:
000997: 43,2772           15155                           TCF      ENDOFJOB
000998:                                                                                                  #           MINIMP     VERB 76              DESCRIPTION
000999:                                                                                                  #               MINIMUM IMPULSE MODE
001000:                                                                                                  #               1. SET MINIMUM IMPULSE RHC MODE FLAG TO 1.
001001:
001002: 43,2773           05515        MINIMP             TC       UPFLAG                                #  SET PULSES = 1 (MIN. IMPULSE MODE)
001003: 43,2774           00303                           ADRES    PULSEFLG
001004: 43,2775           12117                           TCF      GOPIN                                 #  RETURN VIA PINBRNCH
001005:


001007:                                                                                                  #           NOMINIMP     VERB 77            DESCRIPTION
001008:                                                                                                  #               RATE COMMAND MODE
001009:                                                                                                  #               1. SET MINIMUM IMPULSE RHC MODE FLAG TO 0. (ZERO INDICATES NOT MINIMUM IMPULSE MODE.).
001010:                                                                                                  #               2. MOVE CDUX,CDUY,CDUZ INTO CDUXD,CDUYD,CDUZD.
001011:
001012: 43,2776           05527        NOMINIMP           TC       DOWNFLAG                              #  SET PULSES = 0 (NOT MINIMUM IMPULSE MODE
001013: 43,2777           00303                           ADRES    PULSEFLG
001014: 43,3000           00004                           INHINT
001015: 43,3001           04674                           TC       IBNKCALL
001016: 43,3002           40154                           CADR     ZATTEROR
001017: 43,3003           02117                           TC       GOPIN
001018:


001020:                                                                                                  #           CREWMANU     VERB 49            DESCRIPTION
001021:                                                                                                  #               START AUTOMATIC ATTITUDE MANEUVER
001022:                                                                                                  #               1. REQUIRE PROGRAM 00 ACTIVE.
001023:                                                                                                  #               2. SET EXT VERB DISPLAY BUSY FLAG.
001024:                                                                                                  #               3. SCHEDULE R62DISP WITH PRIORITY 10.
001025:                                                                                                  #               4. RELEASE EXT VERB DISPLAY.
001026:
001027:                                                                                                  #             R62DISP
001028:                                                                                                  #               1. DISPLAY FLASHING V06,N22.
001029:                                                                                                  #                  RESPONSES
001030:                                                                                                  #                  A. TERMINATE
001031:                                                                                                  #                     1. GO TO GOTOPOOH.
001032:                                                                                                  #                  B. PROCEED
001033:                                                                                                  #                     1. SET 3AXISFLG TO INDICATE MANEUVER IS SPECIFIED BY 3 AXIS.
001034:                                                                                                  #                     2. EXECUTE R60LEM (ATTITUDE MANEUVER).
001035:                                                                                                  #                  C. ENTER
001036:                                                                                                  #                     1. REPEAT FLASHING V06,N22.
001037:
001038: 43,3004           02121        CREWMANU           TC       CHKPOOH                               #  DEMAND POO
001039:
001040: 43,3005           02076                           TC       TESTXACT
001041:
001042: 43,3006           34737                           CAF      PRIO10
001043: 43,3007           05105                           TC       FINDVAC
001044: 43,3010  E6,1675                                  EBANK=   BCDU
001045: 43,3010           02103 46106                     2CADR    R62DISP
001046:
001047: 43,3012           05155                           TC       ENDOFJOB
001048:


001050:                                                                                                  #  TRMTRACK     VERB 56                     DESCRIPTION
001051:                                                                                                  #               TERMINATE TRACKING (P20 AND P25).
001052:                                                                                                  #               1. KNOCK DOWN RENDEZVOUS, TRACK, AND UPDATE FLAGS.
001053:                                                                                                  #               2. REQUIRE P20 OR  P25 NOT RUNNING ALONE OR GO TO GOTOPOOH (REQUEST PROGRAM 00).
001054:                                                                                                  #               3. SCHEDULE V56TOVAC WITH PRIORITY 30.
001055:
001056:                                                                                                  #               V56TOVAC
001057:                                                                                                  #               1. EXECUTE INTSTALL (IF INTEGRATION IS RUNNING, STALL UNTIL IT IS FINISHED.).
001058:                                                                                                  #               2. ZERO GROUP 2 TO HALT P20.
001059:                                                                                                  #               3. TRANSFER CONTROL TO GOPROG2 (SOFTWARE RESTART).
001060:
001061: 43,3013           33033        TRMTRACK           CA       BITS9+7                               #  IS REND OR P25 FLAG ON
001062: 43,3014           70074                           MASK     FLAGWRD0
001063: 43,3015           00006                           EXTEND
001064: 43,3016           12117                           BZF      GOPIN                                 #  NO
001065:
001066: 43,3017           05527                           TC       DOWNFLAG
001067: 43,3020           00010                           ADRES    RNDVZFLG
001068:
001069: 43,3021           05527                           TC       DOWNFLAG
001070: 43,3022           00006                           ADRES    P25FLAG
001071:
001072: 43,3023           05527                           TC       DOWNFLAG                              #  ENSURE SEARCH FLAG IS OFF
001073: 43,3024           00037                           ADRES    SRCHOPTN
001074:
001075: 43,3025           34747                           CA       TRACKBIT                              #  IS TRACK FLAG ON?
001076: 43,3026           70075                           MASK     FLAGWRD1
001077: 43,3027           00006                           EXTEND
001078: 43,3030           12117                           BZF      GOPIN
001079:
001080: 43,3031           04635                           TC       POSTJUMP
001081: 43,3032           64054                           CADR     TRMTRAK1
001082:
001083: 43,3033           00500        BITS9+7            OCT      500
001084:
001085: 42,2000                                           SETLOC   SBAND                                 #  BANK 42
001086: 42,2000                                           BANK
001087:
001088: 42,2054                                           COUNT*   $$/EXTVB
001089:
001090: 42,2054           06051        TRMTRAK1           TC       INTPRET
001091: 42,2055           43014                           CLEAR    CLEAR
001092: 42,2056           00670                                    UPDATFLG                              #  CLEAR UPDATE FLAG
001093: 42,2057           00672                                    TRACKFLG                              #  CLEAR TRACK FLAG
001094: 42,2060           45014                           CLEAR    CALL
001095: 42,2061           00267                                    IMUSE
001096: 42,2062           27410                                    INTSTALL                              #  DONT INTERRUPT INTEGRATION
001097: 42,2063           77776                           EXIT
001098:
001099: 42,2064           05364                           TC       PHASCHNG


001101: 42,2065           00002                           OCT      2                                     #  KILL GROUP 2 TO HALT P20 ACTIVITY
001102:
001103: 42,2066           00004                           INHINT
001104: 42,2067           04674                           TC       IBNKCALL                              #  ZERO THE COMMANDED RATES TO STOP
001105: 42,2070           40166                           CADR     STOPRATE                              #  MANEUVER
001106:
001107: 42,2071           04674                           TC       IBNKCALL
001108: 42,2072           40115                           CADR     RESTORDB
001109:
001110: 42,2073           06011                           TC       CLRADMOD                              #  CLEAR BITS 10 + 15 OF RADMODES.
001111:
001112: 42,2074           44736                           CS       BIT14                                 #  DISABLE LOCKON
001113: 42,2075           00006                           EXTEND
001114: 42,2076           03012                           WAND     CHAN12
001115: 42,2077           04635                           TC       POSTJUMP
001116: 42,2100           13004                           CADR     GOPROG2                               #  CAUSE RESTART.
001117:
001118:                                                                                                  #           DNEDUMP     VERB 74             DESCRIPTION
001119:                                                                                                  #               INITIALIZE DOWN-TELEMETRY PROGRAM FOR ERASABLE MEMORY DUMP.
001120:                                                                                                  #               1. SET EXT VERB DISPLAY BUSY FLAG.
001121:                                                                                                  #               2. REPLACE CURRENT DOWNLIST WITH ERASABLE MEMORY.
001122:                                                                                                  #               3. RELEASE EXT VERB DISPLAY.
001123:
001124: 43,2000                                           SETLOC   EXTVERBS
001125: 43,2000                                           BANK
001126:
001127: 43,3034                                           COUNT*   $$/EXTVB
001128:
001129: 43,3034     0400                                  EBANK=   400
001130: 43,3034           33037        DNEDUMP            CAF      LDNDUMPI
001131: 43,3035           54335                           TS       DNTMGOTO
001132: 43,3036           02117                           TC       GOPIN
001133:
001134: 43,3037  43,3034               V74                EQUALS   DNEDUMP
001135: 43,3037           03723        LDNDUMPI           REMADR   DNDUMPI
001136:
001137:                                                                                                  #           LEMVEC     VERB 80              DESCRIPTION
001138:                                                                                                  #               UPDATE LEM STATE VECTOR
001139:                                                                                                  #                  RESET VEHUPFLG TO 0
001140:
001141: 43,3040           05527        LEMVEC             TC       DOWNFLAG
001142: 43,3041           00026                           ADRES    VEHUPFLG                              #  VB 80 - VEHUPFLG DOWN INDICATES LEM
001143:
001144: 43,3042           03045                           TC       NOUPDOWN
001145:                                                                                                  #           CSMVEC     VERB 81              DESCRIPTION
001146:                                                                                                  #               UPDATE CSM STATE VECTOR
001147:                                                                                                  #                  SET   VEHUPFLG TO 1
001148:
001149: 43,3043           05515        CSMVEC             TC       UPFLAG


001151: 43,3044           00026                           ADRES    VEHUPFLG                              #  VB 81 - VEHUPFLG UP INDICATES CSM
001152:
001153: 43,3045           05527        NOUPDOWN           TC       DOWNFLAG
001154: 43,3046           00030                           ADRES    NOUPFLAG
001155:
001156: 43,3047           12117                           TCF      GOPIN
001157:
001158:                                                                                                  #           UPDATOFF   VERB 95      DESCRIPTION
001159:                                                                                                  #               INHIBIT STATE VECTOR UPDATES BY INCORP
001160:                                                                                                  #                  SET NOUPFLAG TO 1
001161:
001162: 43,3050           05515        UPDATOFF           TC       UPFLAG                                #  VB 95 SET NOUPFLAG
001163: 43,3051           00030                           ADRES    NOUPFLAG
001164:
001165: 43,3052           02117                           TC       GOPIN
001166:


001168:                                                                                                  #           SYSTEST     VERB 92             DESCRIPTION
001169:                                                                                                  #             OPERATE IMU PERFORMANCE TEST.
001170:                                                                                                  #               1. REQUIRE PROGRAM 00 OR TURN ON OPERATOR ERROR.
001171:                                                                                                  #               2. SET EXT VERB BUSY FLAG.
001172: 43,3053  E5,1417                                  EBANK=   QPLACE
001173:
001174: 43,3053           02121        SYSTEST            TC       CHKPOOH                               #  DEMAND POO
001175:
001176: 43,3054           40077                           CS       FLAGWRD3                              #  DO NOT ALLOW P07 IN FLIGHT
001177: 43,3055           74741                           MASK     NOP07BIT                              #  IF FLAG IS SET, TURN ON OE LITE AND EXIT
001178: 43,3056           00006                           EXTEND
001179: 43,3057           12116                           BZF      ALM/END
001180: 43,3060           02076                           TC       TESTXACT
001181:
001182: 43,3061           37722                           CAF      PRIO22
001183: 43,3062           05105                           TC       FINDVAC
001184: 43,3063  E5,1417                                  EBANK=   QPLACE
001185: 43,3063  37,2000                                  SBANK=   IMUSUPER
001186: 43,3063           02002 76065                     2CADR    REDO
001187:
001188: 43,3065           05155                           TC       ENDOFJOB
001189:
001190:                                                                                                  #  VERB 93         CLEAR RENDWFLG, CAUSES W-MATRIX TO BE RE-INITIALIZED.
001191:
001192: 43,3066           00004        WMATRXNG           INHINT
001193: 43,3067           44753                           CS       RENDWBIT
001194: 43,3070           70101                           MASK     FLAGWRD5
001195: 43,3071           54101                           TS       FLAGWRD5
001196:
001197: 43,3072           02117                           TC       GOPIN
001198:
001199: 43,3073  43,3073               GOSHOSUM           EQUALS   SHOWSUM
001200:
001201: 43,3073           02121        SHOWSUM            TC       CHKPOOH                               #  *
001202: 43,3074           02076                           TC       TESTXACT                              #  *
001203: 43,3075           35021                           CAF      PRIO7                                 #  ALLOW OTHER CHARINS.
001204: 43,3076           05146                           TC       PRIOCHNG
001205: 43,3077           34753                           CAF      S+1                                   #  *
001206: 43,3100           55376                           TS       SKEEP6                                #  * SHOWSUM OPTION
001207: 43,3101           34755                           CAF      S+ZERO                                #  *
001208: 43,3102           55362                           TS       SMODE                                 #  * TURN OFF SELF-CHECK
001209: 43,3103           33244                           CA       SELFADRS                              #  *
001210: 43,3104           55361                           TS       SELFRET                               #  *
001211: 43,3105           03521                           TC       STSHOSUM                              #  * ENTER ROPECHK
001212:
001213: 43,3106           23372        SDISPLAY           LXCH     SKEEP2                                #  * BANK # FOR DISPLAY
001214: 43,3107           23373                           LXCH     SKEEP3                                #  * BUGGER WORD FOR DISPLAY
001215: 43,3110           33243        NOKILL             CA       ADRS1                                 #  *
001216: 43,3111           54156                           TS       MPAC       +2                         #  *
001217: 43,3112           33123                           CA       VNCON                                 #  * 0501


001219: 43,3113           04616                           TC       BANKCALL                              #  *
001220: 43,3114           20334                           CADR     GOXDSPF                               #  *
001221: 43,3115           03120                           TC       +3                                    #  *
001222: 43,3116           03632                           TC       NXTBNK                                #  *
001223: 43,3117           03110                           TC       NOKILL                                #  *
001224: 43,3120           33244                           CA       SELFADRS
001225: 43,3121           55371                           TS       SKEEP1
001226:
001227: 43,3122           05503                           TC       ENDEXT                                #  *
001228:
001229: 43,3123           01201        VNCON              VN       501                                   #  *
001230:
001231: 43,3124           31376        ENDSUMS            CA       SKEEP6                                #  *
001232: 43,3125           00006                           EXTEND                                         #  *
001233: 43,3126           13335                           BZF      SELFCHK                               #  * ROPECHK, START SELFCHK AGAIN.
001234: 43,3127           03521                           TC       STSHOSUM                              #  * START SHOWSUM AGAIN.
001235:


001237:                                                                                                  #           DAPDISP     VERB 48             DESCRIPTION
001238:                                                                                                  #               LOAD AUTO PILOT  DATA
001239:                                                                                                  #               1. REQUIRE EXT VERB DISPLAY AVAILABLE AND SET BUSY FLAG.
001240:                                                                                                  #               2. EXECUTE DAPDATA1, DAPDATA2, AND DAPDATA3.
001241:                                                                                                  #               3. RELEASE EXT VERB DISPLAY SYSTEM.
001242:                                                                                                  #  KEY
001243:                                                                                                  #  THE FOLLOWING IS A KEY TO THE 5 DIGITS OF THE DAP DATA CODE (N46)
001244:
001245:                                                                                                  #  DIGIT A - VEHICLE CONFIGURATION
001246:                                                                                                  #           1 - LM ALONE, ASCENT
001247:                                                                                                  #           2 - LM ALONE, DESCENT
001248:                                                                                                  #           3 - CSM AND LM DOCKED
001249:
001250:                                                                                                  #  DIGIT B - ACCELERATION CODE
001251:                                                                                                  #           0 - 2 JET TRANSLATION, RCS SYSTEM A PREFERRED
001252:                                                                                                  #           1 - 2 JET TRANSLATION, RCS SYSTEM B PREFERRED
001253:                                                                                                  #           2 - 4 JET TRANSLATION, RCS SYSTEM A PREFERRED (NOT MEANINGFUL)
001254:                                                                                                  #           3 - 4 JET TRANSLATION, RCS SYSTEM B PREFERRED (NOT MEANINGFUL)
001255:
001256:                                                                                                  #  DIGIT C - ACA SCALING
001257:                                                                                                  #           0 - FINE
001258:                                                                                                  #           1 - NORMAL
001259:
001260:                                                                                                  #  DIGIT D - DEADBAND
001261:                                                                                                  #           0 - 0.3 DEG
001262:                                                                                                  #           1 - 1.0 DEG
001263:                                                                                                  #           2 - 5.0 DEG
001264:                                                                                                  #          (3 - 5.0 DEG BY DEFAULT)
001265:
001266:                                                                                                  #  DIGIT E - MANEUVER RATE
001267:                                                                                                  #           0 - 0.2 DEG/SEC
001268:                                                                                                  #           1 - 0.5 DEG/SEC
001269:                                                                                                  #           2 - 2.0 DEG/SEC
001270:                                                                                                  #           3 -10.0 DEG/SEC
001271:
001272: 43,3130           02076        DAPDISP            TC       TESTXACT
001273: 43,3131           35021                           CAF      PRIO7                                 #  R03
001274: 43,3132           05146                           TC       PRIOCHNG
001275: 43,3133           04635                           TC       POSTJUMP
001276: 43,3134           40004                           CADR     DAPDATA1
001277: 34,2060                                           BANK     34
001278: 20,2000                                           SETLOC   LOADDAP
001279: 20,2000                                           BANK
001280:
001281: 20,2004                                           COUNT*   $$/R03
001282:
001283: 20,2004  30,2000                                  SBANK=   LOWSUPER                              #  FOR SUBSEQUENT LOW 2CADR'S.
001284:
001285: 20,2004           32114        DAPDATA1           CAF      BOOLSMSK                              #  SET DISPLAY ACCORDING TO DAPBOOLS BITS.
001286: 20,2005           70111                           MASK     DAPBOOLS                              #  LM


001288: 20,2006           55340                           TS       DAPDATR1                              #  LM
001289: 20,2007           40106                           CS       FLGWRD10                              #  SET BIT 14 TO BE COMPLEMENT OF APSFLAG.
001290: 20,2010           74737                           MASK     APSFLBIT
001291: 20,2011           10000                           CCS      A
001292: 20,2012           34736                           CAF      BIT14
001293: 20,2013           27340                           ADS      DAPDATR1
001294: 20,2014           31340        CHKDATA1           CAE      DAPDATR1                              #  IF BITS 13 AND 14 ARE BOTH ZERO, FORCE
001295: 20,2015           74355                           MASK     BIT13-14                              #    A ONE INTO BIT 13.
001296: 20,2016           00006                           EXTEND
001297: 20,2017           12034                           BZF      FORCEONE
001298: 20,2020           31340                           CAE      DAPDATR1                              #  ENSURE THAT NO ILLEGAL BITS SET BY CREW.
001299: 20,2021           72113        MSKDATR1           MASK     DSPLYMSK
001300: 20,2022           55340                           TS       DAPDATR1
001301: 20,2023           32112                           CAF      V01N46                                #  LM
001302: 20,2024           04616                           TC       BANKCALL
001303: 20,2025           20353                           CADR     GOXDSPFR
001304: 20,2026           15503                           TCF      ENDEXT                                #  V34E  TERMINATE
001305: 20,2027           12037                           TCF      DPDAT1                                #  V33E  PROCEED
001306: 20,2030           12014                           TCF      CHKDATA1                              #  E     NEW DATA    CHECK AND REDISPLAY
001307: 20,2031           36254                           CAF      REVCNT                                #  BITS 2 & 3:  BLANKS R2 & R3.
001308: 20,2032           05475                           TC       BLANKET
001309: 20,2033           15155                           TCF      ENDOFJOB
001310: 20,2034           34737        FORCEONE           CAF      BIT13
001311: 20,2035           27340                           ADS      DAPDATR1
001312: 20,2036           12021                           TCF      MSKDATR1
001313:
001314: 20,2037           00004        DPDAT1             INHINT                                         #  INHINT FOR SETTING OF FLAG BITS AND MASS
001315: 20,2040           44737                           CS       APSFLBIT                              #    ON BASIS OF DISPLAYED DAPDATR1.
001316: 20,2041           70106                           MASK     FLGWRD10
001317: 20,2042           54001                           TS       L                                     #  SET APSFLAG TO BE COMPLEMENT OF BIT 14.
001318: 20,2043           41340                           CS       DAPDATR1
001319: 20,2044           74736                           MASK     BIT14
001320: 20,2045           10000                           CCS      A
001321: 20,2046           34737                           CAF      APSFLBIT
001322: 20,2047           60001                           AD       L
001323: 20,2050           54106                           TS       FLGWRD10
001324: 20,2051           41340                           CS       DAPDATR1                              #  SET BITS OF DAPBOOLS ON BASIS OF DISPLAY
001325: 20,2052           74355                           MASK     BIT13-14                              #    MASK OUT CSMDOCKD (BIT 13) UNLESS BOTH
001326: 20,2053           10000                           CCS      A                                     #    13 AND 14 ARE SET.
001327: 20,2054           44737                           CS       CSMDOCKD
001328: 20,2055           62114                           AD       BOOLSMSK
001329: 20,2056           71340                           MASK     DAPDATR1
001330: 20,2057           54001                           TS       L
001331: 20,2060           42114                           CS       BOOLSMSK
001332: 20,2061           70111                           MASK     DAPBOOLS
001333: 20,2062           60001                           AD       L
001334: 20,2063           54111                           TS       DAPBOOLS
001335: 20,2064           74737                           MASK     CSMDOCKD                              #  LOAD MASS IN ACCORDANCE WITH CSMDOCKD.
001336: 20,2065           10000                           CCS      A                                     #    MASS IS USUALLY ALREADY OKAY, SO DO
001337: 20,2066           31327                           CAE      CSMMASS                               #    NOT TOUCH ITS LOW-ORDER PART.


001339: 20,2067           61326                           AD       LEMMASS
001340: 20,2070           55245                           TS       MASS
001341: 20,2071           30111                           CAE      DAPBOOLS
001342: 20,2072           74741                           MASK     ACC4OR2X                              #  2 OR 4 JET X-TRANSLATION
001343: 20,2073           00006                           EXTEND                                         #  (BIT ACC4OR2X = 1 FOR 4 JETS)
001344: 20,2074           12101                           BZF      +5
001345: 20,2075           44735                           CS       BIT15
001346: 20,2076           70075                           MASK     FLAGWRD1                              #  CLEAR NJTSFLAG TO 0 FOR 4 JETS
001347: 20,2077           54075                           TS       FLAGWRD1
001348: 20,2100           12104                           TCF      +4
001349: 20,2101           40075                           CS       FLAGWRD1                              #  SET NJTSFLAG TO 1 FOR 2 JETS
001350: 20,2102           74735                           MASK     BIT15
001351: 20,2103           26075                           ADS      FLAGWRD1
001352: 20,2104           30111                           CA       DAPBOOLS                              #  SELECT DESIRED KALCMANU AUTOMATIC
001353: 20,2105           76257                           MASK     THREE                                 #  MANEUVER RATE
001354: 20,2106           60000                           DOUBLE                                         #  RATEINDX HAS TO BE 0,2,4,6 SINCE RATES
001355: 20,2107           55322                           TS       RATEINDX                              #  ARE DP
001356: 20,2110           04635                           TC       POSTJUMP
001357: 20,2111           02214                           CADR     STIKLOAD
001358:
001359: 20,2112           00256        V01N46             VN       0146
001360: 20,2113           33133        DSPLYMSK           OCT      33133
001361: 20,2114           13133        BOOLSMSK           OCT      13133
001362: 01,2214                                           BANK     01
001363: 01,2000                                           SETLOC   LOADDAP1
001364: 01,2000                                           BANK
001365:
001366: 01,2214                                           COUNT*   $$/R03
001367:
001368: 01,2214           35015        STIKLOAD           CAF      EBANK6
001369: 01,2215           54003                           TS       EBANK
001370: 01,2216  E6,1444                                  EBANK=   STIKSENS
001371: 01,2216           34745                           CA       RHCSCALE                              #  SET STICK SENSITIVITY TO CORRESPOND TO A
001372: 01,2217           70111                           MASK     DAPBOOLS                              #  MAXIMUM COMMANDED RATE (AT 42 COUNTS) OF
001373: 01,2220           10000                           CCS      A                                     #  20 D/S(NORMAL) OR 4 D/S(FINE), SCALED
001374: 01,2221           32343                           CA       NORMAL                                #  AT 45 D/S.
001375: 01,2222           62344                           AD       FINE
001376: 01,2223           55444                           TS       STIKSENS
001377: 01,2224           32346                           CA       -0.6D/S
001378: 01,2225           55476                           TS       -RATEDB                               #  LM-ONLY BREAKOUT LEVEL IS .6 D/S.
001379: 01,2226           34737                           CA       CSMDOCKD                              #  IF CSM-DOCKED, DIVIDE STICK SENSITIVITY
001380: 01,2227           70111                           MASK     DAPBOOLS                              #  BY 10. NORMAL SCALING IS THEN 2 D/S AND
001381: 01,2230           00006                           EXTEND                                         #  FINE SCALING IS 0.4 D/S
001382: 01,2231           12240                           BZF      +7                                    #  BRANCH IF CSM IS NOT DOCKED.
001383: 01,2232           31444                           CA       STIKSENS
001384: 01,2233           00006                           EXTEND
001385: 01,2234           72345                           MP       1/10
001386: 01,2235           55444                           TS       STIKSENS
001387: 01,2236           32347                           CA       -0.3D/S                               #  CSM-DOCKED BREAKOUT LEVEL IS .3 D/S.
001388: 01,2237           55476                           TS       -RATEDB


001390: 01,2240           00003                           RELINT                                         #  PROCEED TO NOUN 47, MASS LOAD,
001391:
001392: 01,2241           32341        DAPDATA2           CAF      V0647
001393: 01,2242           04616                           TC       BANKCALL
001394: 01,2243           20353                           CADR     GOXDSPFR
001395: 01,2244           12252                           TCF      ENDR03                                #  V34E  TERMINATE. FIRST SET DB, DO 1/ACCS
001396: 01,2245           12256                           TCF      DAPDAT2                               #  V33E  PROCEED
001397: 01,2246           12241                           TCF      DAPDATA2                              #        LOAD NEW DATA AND RECYCLE
001398: 01,2247           34751                           CAF      BIT3                                  #  BLANKS R3
001399: 01,2250           05475                           TC       BLANKET                               #             LM
001400: 01,2251           15155                           TCF      ENDOFJOB
001401: 01,2252           00004        ENDR03             INHINT
001402: 01,2253           04674                           TC       IBNKCALL
001403: 01,2254           40115                           CADR     RESTORDB
001404: 01,2255           15503                           TCF      ENDEXT                                #  DOES RELINT
001405:
001406: 01,2256           40106        DAPDAT2            CS       FLGWRD10                              #  DETERMINE STAGE FROM APSFLAG
001407: 01,2257           74737                           MASK     APSFLBIT
001408: 01,2260           10000                           CCS      A
001409: 01,2261           32000                           CA       MINLMD
001410: 01,2262           62001                           AD       MINMINLM
001411: 01,2263           61326                           AD       LEMMASS                               #  LEMMASS MUST BE GREATER THAN EMPTY LEM
001412: 01,2264           00006                           EXTEND
001413: 01,2265           62241                           BZMF     DAPDATA2                              #  ASK FOR NEW MASSES
001414: 01,2266           30111                           CAE      DAPBOOLS
001415: 01,2267           74737                           MASK     CSMDOCKD
001416: 01,2270           00006                           EXTEND
001417: 01,2271           12277                           BZF      LEMALONE                              #  SKIP TEST ON CSMMASS IF NOT DOCKED.
001418: 01,2272           44741                           CS       MINCSM                                #  TEST CSM MASS
001419: 01,2273           61327                           AD       CSMMASS                               #  CSMMASS MUST BE GREATER THAN EMPTY CSM
001420: 01,2274           00006                           EXTEND
001421: 01,2275           62241                           BZMF     DAPDATA2                              #  ASK FOR NEW MASSES
001422: 01,2276           31327                           CAE      CSMMASS                               #  DOCKED:  MASS = CSMMASS + LEMMASS
001423: 01,2277           61326        LEMALONE           AD       LEMMASS                               #  LEM ALONE:  MASS = LEMMASS
001424: 01,2300           22007                           ZL
001425: 01,2301           53246                           DXCH     MASS
001426: 01,2302           00004                           INHINT
001427: 01,2303           04674                           TC       IBNKCALL                              #  SET DEADBANK AND COMPUTE MOMENTS OF
001428: 01,2304           40115                           CADR     RESTORDB                              #    INERTIA.
001429: 01,2305           00003                           RELINT                                         #  PROCEED TO NOUN 48 (OR END).
001430:
001431: 01,2306           40106        DAPDATA3           CS       FLGWRD10
001432: 01,2307           74737                           MASK     APSFLBIT
001433: 01,2310           00006                           EXTEND                                         #  END ROUTINE IF LEM HAS STAGED,
001434: 01,2311           15503                           BZF      ENDEXT
001435: 01,2312           32342                           CAF      V06N48                                #  DISPLAY TRIM ANGLES AND REQUEST RESPONSE
001436: 01,2313           04616                           TC       BANKCALL
001437: 01,2314           20353                           CADR     GOXDSPFR
001438: 01,2315           05503                           TC       ENDEXT
001439: 01,2316           12323                           TCF      DPDAT3                                #  V33E GO DO TRIM (WAITLIST TO TRIMGIMB)
001440:


001442: 01,2317           12312                           TCF      -5                                    #       LOAD NEW DATA AND RECYCLE
001443: 01,2320           34751                           CAF      BIT3
001444: 01,2321           05475                           TC       BLANKET                               #  BLANK R3
001445: 01,2322           15155                           TCF      ENDOFJOB
001446: 01,2323           34753        DPDAT3             CAF      BIT1
001447: 01,2324           05214                           TC       WAITLIST
001448: 01,2325  E6,1401                                  EBANK=   ROLLTIME
001449: 01,2325           03216 56066                     2CADR    TRIMGIMB
001450:
001451: 01,2327           15155                           TCF      ENDOFJOB                              #  DOES A RELINT
001452: 01,2330           32342        TRIMDONE           CAF      V50N48
001453: 01,2331           04616                           TC       BANKCALL                              #  TRIM IS FINISHED; PLEASE TERMINATE R03
001454: 01,2332           20361                           CADR     GOMARK3R   -1
001455: 01,2333           05503                           TC       ENDEXT                                #  V34E TERMINATE
001456: 01,2334           05503                           TC       ENDEXT
001457: 01,2335           05503                           TC       ENDEXT
001458: 01,2336           36007                           CAF      OCT24                                 #  BIT5 TO CHANGE TO PERFORM, 3 TO BLANK R3
001459: 01,2337           05475                           TC       BLANKET
001460: 01,2340           15155                           TCF      ENDOFJOB
001461:
001462: 01,2341           01457        V0647              VN       0647
001463: 01,2342           01460        V06N48             VN       0648
001464:
001465: 01,2343  01,2342               V50N48             =        V06N48
001466:
001467: 01,2343           25101        NORMAL             DEC      .660214
001468:                                                                                                  #  NORMAL SCALING IS 20 D/S
001469: 01,2344           05220        FINE               DEC      .165054                               #  FINE STICK SCALING (4 D/S).
001470: 01,2345           03146        1/10               DEC      .1                                    #  FACTOR FOR CSM-DOCKED SCALING
001471: 01,2346           77445        -0.6D/S            DEC      -218       B-14
001472: 01,2347           77622        -0.3D/S            DEC      -109       B-14
001473:


001475:                                                                                                  #  VERB 66.  VEHICLES ARE ATTACHED.  MOVE THIS VEHICLE STATE VECTOR TO
001476:                                                                                                  #            OTHER VEHICLE STATE VECTOR.
001477:
001478:                                                                                                  #      USE SUBROUTINE GENTRAN.
001479:
001480: 07,2661                                           BANK     7
001481: 43,2000                                           SETLOC   EXTVERBS
001482: 43,2000                                           BANK
001483:
001484: 43,3135                                           COUNT*   $$/EXTVB
001485:
001486: 43,3135  E3,1626                                  EBANK=   RRECTHIS
001487:
001488: 43,3135           40104        ATTACHED           CS       FLAGWRD8
001489: 43,3136           74744                           MASK     SURFFBIT
001490: 43,3137           00006                           EXTEND
001491: 43,3140           12116                           BZF      ALM/END                               #  TURN ON OE AND EXIT IF SURFFLAG SET.
001492: 43,3141           34737                           CAF      PRIO10
001493: 43,3142           05105                           TC       FINDVAC
001494: 43,3143  E3,1626                                  EBANK=   RRECTHIS
001495:
001496: 43,3143           03146 66103                     2CADR    ATTACHIT
001497:
001498: 43,3145           05155                           TC       ENDOFJOB
001499:
001500: 43,3146           06051        ATTACHIT           TC       INTPRET
001501: 43,3147           77624                           CALL
001502: 43,3150           27410                                    INTSTALL
001503: 43,3151           43014                           SET      BON
001504: 43,3152           04063                                    MOONOTH
001505: 43,3153           04304                                    MOONTHIS
001506: 43,3154           67157                                    +3
001507: 43,3155           77614                           CLEAR
001508: 43,3156           04263                                    MOONOTH
001509: 43,3157           77776                           EXIT
001510: 43,3160           33203                           CAF      OCT51
001511: 43,3161           05555                           TC       GENTRAN
001512: 43,3162           01626                           ADRES    RRECTHIS                              #  OUR STATE VECTOR INTO OTHER VIA GENTRAN
001513: 43,3163           01554                           ADRES    RRECTOTH
001514:
001515: 43,3164           00003                           RELINT
001516: 43,3165           06051                           TC       INTPRET
001517: 43,3166           77624                           CALL                                           #  UPDATE R-OTHER, V-OTHER
001518: 43,3167           26757                                    PTOALEM
001519: 43,3170           45154                           LXA,2    CALL
001520: 43,3171           02030                                    PBODY
001521: 43,3172           26114                                    SVDWN1
001522: 43,3173           77776                           EXIT
001523:
001524: 43,3174           33204                           CAF      TCPINAD


001526: 43,3175           50120                           INDEX    FIXLOC
001527: 43,3176           54052                           TS       QPRET
001528: 43,3177           04635                           TC       POSTJUMP
001529: 43,3200           27421                           CADR     INTWAKE                               #  FREE INTEGRATION AND EXIT.
001530:
001531: 43,3201           77634        TCPIN              RTB
001532: 43,3202           21051                                    PINBRNCH
001533:
001534: 43,3203           00051        OCT51              OCT      51
001535: 43,3204           67201        TCPINAD            CADR     TCPIN
001536:
001537:                                                                                                  #  VERB 96  SET QUITFLAG TO STOP INTEGRATION.
001538:
001539:                                                                                                  #           GO TO V37 WITH ZERO TO CAUSE POO.
001540:                                                                                                  #           STATEINT WILL CHECK QUITFLAG AND SKIP 1ST PASS,
001541:                                                                                                  #                  THUS ALLOWING A 10 MINUTE PERIOD WITHOUT INTEGRATION.
001542:
001543: 43,3205           05515        VERB96             TC       UPFLAG                                #  QUITFLAG WILL CAUSE INTEGRATION TO EXIT
001544: 43,3206           00221                           ADRES    QUITFLAG                              #     AT NEXT TIMESTEP
001545:
001546: 43,3207           34755                           CAF      ZERO
001547: 43,3210           04635                           TC       POSTJUMP
001548: 43,3211           10040                           CADR     V37                                   #  GO TO POO
001549:
001550:
001551:                                                                                                  #  VERB 67 :   DISPLAY OF W MATRIX
001552:
001553: 43,3212           02076        V67                TC       TESTXACT
001554: 43,3213           35017                           CAF      PRIO5
001555: 43,3214           05105                           TC       FINDVAC
001556: 43,3215  E4,1571                                  EBANK=   WWPOS
001557: 43,3215           02007 62064                     2CADR    V67CALL
001558:
001559: 43,3217           05155                           TC       ENDOFJOB
001560:
001561:                                                                                                  #  VERB 65         DISABLE U,V JETS DURING DPS BURNS
001562:
001563: 43,3220           05515        SNUFFOUT           TC       UPFLAG
001564: 43,3221           00115                           ADRES    SNUFFER
001565: 43,3222           02117                           TC       GOPIN
001566:
001567:                                                                                                  #  VERB 75         ENABLE U,V JETS DURING DPS BURNS
001568:
001569: 43,3223           05527        OUTSNUFF           TC       DOWNFLAG
001570: 43,3224           00115                           ADRES    SNUFFER
001571: 43,3225           02117                           TC       GOPIN
001572:                                                                                                  #  VERB 85         DISPLAY RR LOS AZIMUTH AND ELEVATION.
001573:
001574:                                                                                                  #           AZIMUTH IS THE ANGLE BETWEEN THE LOS AND THE X-Z NB PLANE, 0 - 90 DEG IN THE +Y HEMISPHERE,
001575:                                                                                                  #  360 - 270 DEG IN THE -Y HEMISPHERE.
001576:


001578:                                                                                                  #           ELEVATION IS THE ANGLE BETWEEN +ZNB AND THE PROJECTION OF THE LOS INTO THE X-Z PLANE, 0 - 360 ABOUT +Y.
001579:
001580: 43,3226  E4,1571                                  EBANK=   RR-AZ
001581: 43,3226           02076        VERB85             TC       TESTXACT
001582: 43,3227           04635                           TC       POSTJUMP
001583: 43,3230           62000                           CADR     DSPRRLOS
001584:
001585: 41,2000                                           SETLOC   PINBALL2
001586: 41,2000                                           BANK
001587:
001588: 41,2000                                           COUNT*   $$/EXTVB
001589:
001590: 41,2000           35017        DSPRRLOS           CAF      PRIO5
001591: 41,2001           05105                           TC       FINDVAC
001592: 41,2002  E4,1571                                  EBANK=   RR-AZ
001593: 41,2002           02000 60104                     2CADR    RRLOSDSP
001594:
001595: 41,2004           34740                           CAF      PRIO4
001596: 41,2005           05146                           TC       PRIOCHNG
001597: 41,2006           32017                           CAF      V16N56
001598: 41,2007           04616                           TC       BANKCALL
001599: 41,2010           20353                           CADR     GOMARKFR
001600: 41,2011           05574                           TC       B5OFF
001601: 41,2012           05574                           TC       B5OFF
001602: 41,2013           05574                           TC       B5OFF
001603:
001604: 41,2014           34751                           CAF      BIT3
001605: 41,2015           05475                           TC       BLANKET
001606: 41,2016           05155                           TC       ENDOFJOB
001607:
001608: 41,2017           04070        V16N56             VN       1656
001609:
001610:
001611: 40,2000                                           SETLOC   PINBALL1
001612: 40,2000                                           BANK
001613:
001614: 40,2000           00006        RRLOSDSP           EXTEND
001615: 40,2001           30036                           DCA      CDUT
001616: 40,2002           52155                           DXCH     MPAC
001617: 40,2003           06051                           TC       INTPRET
001618: 40,2004           77624                           CALL
001619: 40,2005           46065                                    RRNBMPAC                              #  GET RR LOS IN BODY AXIS.
001620: 40,2006           00001                           STORE    0D                                    #  UNIT LOS
001621: 40,2007           14007                           STODL    6D
001622: 40,2010           06520                                    HI6ZEROS
001623: 40,2011           24011                           STOVL    8D
001624: 40,2012           00007                                    6D
001625: 40,2013           77656                           UNIT
001626: 40,2014           00007                           STORE    6D                                    #  UNIT OF LOS PROJ IN X-Z PLANE
001627: 40,2015           77641                           DOT


001629: 40,2016           06512                                    UNITZ
001630: 40,2017           24021                           STOVL    COSTH                                 #  16D
001631: 40,2020           06516                                    UNITX
001632: 40,2021           77641                           DOT
001633: 40,2022           00007                                    6D
001634: 40,2023           34023                           STCALL   SINTH                                 #  18D
001635: 40,2024           47316                                    ARCTRIG
001636: 40,2025           43244                           BPL      DAD                                   #  INSURE DISPLAY OF 0 - 360 DEG.
001637: 40,2026           60030                                    +2
001638: 40,2027           06526                                    DPPOSMAX                              #  INTRODUCES AN ERROR OF B-28 REVS.
001639: 40,2030           26174                           STOVL    RR-ELEV
001640: 40,2031           00001                                    0D
001641: 40,2032           77641                           DOT
001642: 40,2033           06514                                    UNITY
001643: 40,2034           24023                           STOVL    SINTH
001644: 40,2035           00001                                    0D
001645: 40,2036           77641                           DOT
001646: 40,2037           00007                                    6D
001647: 40,2040           34021                           STCALL   COSTH
001648: 40,2041           47316                                    ARCTRIG
001649: 40,2042           43244                           BPL      DAD                                   #  INSURE DISPLAY OF 0 - 360 DEG.
001650: 40,2043           60045                                    +2
001651: 40,2044           06526                                    DPPOSMAX                              #  INTRODUCES AN ERROR OF B-28 REVS.
001652: 40,2045           02172                           STORE    RR-AZ
001653: 40,2046           77776                           EXIT
001654: 40,2047           34777                           CA       1SEC
001655: 40,2050           04616                           TC       BANKCALL
001656: 40,2051           01736                           CADR     DELAYJOB
001657:
001658: 40,2052           34747                           CA       BIT5
001659: 40,2053           71043                           MASK     EXTVBACT
001660: 40,2054           10000                           CCS      A
001661: 40,2055           02000                           TC       RRLOSDSP
001662: 40,2056           05503                           TC       ENDEXT

End of include-file EXTENDED_VERBS.agc.  Parent file is MAIN.agc


