
Source Code


000002:                                                                                                  ## Copyright:   Public domain.
000003:                                                                                                  ## Filename:    FINDCDUW_-_GUIDAP_INTERFACE.agc
000004:                                                                                                  ## Purpose:     A log section of Zerlina 56, the final revision of
000005:                                                                                                  ##              Don Eyles's offline development program for the variable
000006:                                                                                                  ##              guidance period servicer. It also includes a new P66 with LPD
000007:                                                                                                  ##              (Landing Point Designator) capability, based on an idea of John
000008:                                                                                                  ##              Young's. Neither of these advanced features were actually flown,
000009:                                                                                                  ##              but Zerlina was also the birthplace of other big improvements to
000010:                                                                                                  ##              Luminary including the terrain model and new (Luminary 1E)
000011:                                                                                                  ##              analog display programs. Zerlina was branched off of Luminary 145,
000012:                                                                                                  ##              and revision 56 includes all changes up to and including Luminary
000013:                                                                                                  ##              183. It is therefore quite close to the Apollo 14 program,
000014:                                                                                                  ##              Luminary 178, where not modified with new features.
000015:                                                                                                  ## Reference:   pp. 899-917
000016:                                                                                                  ## Assembler:   yaYUL
000017:                                                                                                  ## Contact:     Ron Burkey <info@sandroid.org>.
000018:                                                                                                  ## Website:     www.ibiblio.org/apollo/index.html
000019:                                                                                                  ## Mod history: 2017-07-28 MAS  Created from Luminary 210.
000020:                                                                                                  ##              2017-08-26 MAS  Updated for Zerlina 56.
000021:


000023:                                                                                                  #  PROGRAM NAME:   FINDCDUW
000024:
000025:                                                                                                  #  MOD NUMBER:     1         68 07 15
000026:
000027:                                                                                                  #  MOD AUTHOR:     KLUMPP
000028:
000029:                                                                                                  #  OBJECTS OF MOD: 1.        TO SUPPLY COMMANDED GIMBAL ANGLES FOR NOUN 22.
000030:                                                                                                  #                  2.        TO MAINTAIN CORRECT AND CURRENT THRUST
000031:                                                                                                  #                            DIRECTION DATA IN ALL MODES.  THIS IS DONE BY
000032:                                                                                                  #                            FETCHING FOR THE THRUST DIRECTION FILTER THE
000033:                                                                                                  #                            CDUD'S IN PNGCS-AUTO, THE CDU'S IN ALL OTHER
000034:                                                                                                  #                            MODES.
000035:                                                                                                  #                  3.        TO SUBSTITUTE A STOPRATE FOR THE NORMAL
000036:                                                                                                  #                            AUTOPILOT COMMANDS WHENEVER
000037:                                                                                                  #                            1) NOT IN PNGCS-AUTO, OR
000038:                                                                                                  #                            2) ENGINE IS OFF.
000039:
000040:                                                                                                  #  FUNCTIONAL DESCRIPTION:
000041:
000042:                                                                                                  #  FINDCDUW PROVIDES THE INTERFACES BETWEEN THE VARIOUS POWERED FLITE GUIDANCE PROGRAMS
000043:                                                                                                  #  AND THE DIGITAL AUTOPILOT.  THE INPUTS TO FINDCDUW ARE THE THRUST COMMAND VECTOR
000044:                                                                                                  #  AND THE WINDOW COMMAND VECTOR, AND THE OUTPUTS ARE THE GIMBAL ANGLE
000045:                                                                                                  #  INCREMENTS, THE COMMANDED ATTITUDE ANGLE RATES, AND THE COMMANDED
000046:                                                                                                  #  ATTITUDE LAG ANGLES (WHICH ACCOUNT FOR THE ANGLES BY WHICH THE BODY WILL
000047:                                                                                                  #  LAG BEHIND A RAMP COMMAND IN ATTITUDE ANGLE DUE TO THE FINITE ANGULAR
000048:                                                                                                  #  ACCELERATIONS AVAILABLE).
000049:
000050:                                                                                                  #  FINDCDUW ALINES THE ESTIMATED THRUST VECTOR FROM THE THRUST DIRECTION
000051:                                                                                                  #  FILTER WITH THE THRUST COMMAND VECTOR, AND, WHEN  XOVINHIB  SET,
000052:                                                                                                  #  ALINES THE +Z HALF OF THE LM ZX PLANE WITH THE WINDOW COMMAND VECTOR.
000053:


000055:                                                                                                  #  SPECIFICATIONS:
000056:
000057:                                                                                                  #  INITIALIZATION: A SINGLE INTERPRETIVE CALL TO  INITCDUW  IS REQUIRED
000058:                                                                                                  #                  BEFORE EACH GUIDED MANEUVER USING FINDCDUW.
000059:
000060:                                                                                                  #  CALL:           INTERPRETIVE CALL TO FINDCDUW WITH THE THRUST COMMAND
000061:                                                                                                  #                  VECTOR IN MPAC.  INTERPRETIVE CALL TO FINDCDUW -2 WITH
000062:                                                                                                  #                  THE THRUST COMMAND VECTOR IN UNFC/2 AND NOT IN MPAC.
000063:
000064:                                                                                                  #  RETURNS:        NORMAL INTERPRETIVE IN ALL CASES
000065:
000066:                                                                                                  #                  1.       NORMALLY ALL AUTOPILOT CMDS ARE ISSUED.
000067:
000068:                                                                                                  #                  2.       IF NOT PNGCS AUTO, DO STOPRATE AND RETURN
000069:                                                                                                  #                           WITHOUT ISSUING AUTOPILOT CMDS.
000070:
000071:                                                                                                  #                  3.       IF ENGINE OFF, DO STOPRATE AND RETURN WITHOUT
000072:                                                                                                  #                           ISSUING AUTOPILOT CMDS.
000073:
000074:                                                                                                  #  ALARMS:         00401 IF INPUTS DETERMINE AN ATTITUDE IN GIMBAL LOCK.
000075:                                                                                                  #                           FINDCDUW DRIVES CDUXD AND CDUYD TO THE RQD VALUES,
000076:                                                                                                  #                           BUT DRIVES CDUZD ONLY TO THE GIMBAL LOCK CONE.
000077:                                                                                                  #                  00402 IF UNFC/2 OR UNWC/2 PRODUCE OVERFLOW WHEN
000078:                                                                                                  #                           UNITIZED USING NORMUNIT.  FINDCDUW ISSUES
000079:                                                                                                  #                           STOPRATE AS ONLY INPUT TO AUTOPILOT.
000080:
000081:                                                                                                  #  INPUTS:         UNFC/2   THRUST COMMAND VECTOR, NEED NOT BE SEMI-UNIT.
000082:                                                                                                  #                  UNWC/2   WINDOW COMMAND VECTOR, NEED NOT BE SEMI-UNIT.
000083:                                                                                                  #                  OGABIAS  POSSIBLE BIAS FOR OUTER GIMBAL ANGLE (ZEROED IN INITCDUW), UNITS OF PI.
000084:                                                                                                  #                  XOVINHIB FLAG DENOTING X AXIS OVERRIDE INHIBITED.
000085:                                                                                                  #                  CSMDOCKD FLAG DENOTING CSM DOCKED.
000086:                                                                                                  #                  STEERSW  FLAG DENOTING INSUFF THRUST FOR THRUST DIR FLTR.
000087:
000088:                                                                                                  #  OUTPUTS:        DELCDUX,Y,Z
000089:                                                                                                  #                  OMEGAPD,+1,+2
000090:                                                                                                  #                  DELPEROR,+1,+2
000091:                                                                                                  #                  CPHI,+1,+2 FOR NOUN22
000092:
000093:                                                                                                  #  DEBRIS:         FINDCDUW DESTROYS SINCDUX,Y,Z AND COSCDUX,Y,Z BY
000094:                                                                                                  #                  WRITING INTO THESE LOCATIONS THE SINES AND COSINES
000095:                                                                                                  #                  OF THE CDUD'S IN PNGCS-AUTO, OF THE CDU'S OTHERWISE.
000096:


000098:                                                                                                  #  INITIALIZATION FOR FINDCDUW
000099:
000100: 30,3064                                           BANK     30
000101: 30,2000                                           SETLOC   FCDUW
000102: 30,2000                                           BANK
000103:
000104: 30,3064  E6,1645                                  EBANK=   ECDUW
000105:
000106: 30,3064                                           COUNT*   $$/FCDUW
000107:
000108: 30,3064           77331        INITCDUW           SSP      VLOAD
000109: 30,3065           03300                                    OGABIAS
000110: 30,3066           00000                                    0
000111: 30,3067           06516                                    UNITX
000112: 30,3070           03267                           STORE    UNFV/2
000113: 30,3071           03261                           STORE    UNWC/2
000114: 30,3072           77616                           RVQ
000115:
000116:                                                                                                  #  FINDCDUW PRELIMINARIES
000117:
000118: 30,3073           77775                           VLOAD                                          #  FINDCDUW -2: ENTRY WHEN UNFC/2 PRE-STORD
000119: 30,3074           03253                                    UNFC/2                                #  INPUT VECTORS NEED NOT BE SEMI-UNIT
000120: 30,3075           40200        FINDCDUW           BOV      SETPD                                 #  FINDCDUW: ENTRY WHEN UNFC/2 IN MPAC
000121: 30,3076           61075                                    FINDCDUW                              #  INTERPRETER NOW INITIALIZED
000122: 30,3077           00023                                    22                                    #  LOCS 0 THRU 21 FOR DIRECTION COSINE MAT
000123: 30,3100           77420                           STQ      EXIT
000124: 30,3101           03246                                    QCDUWUSR                              #  SAVE RETURN ADDRESS
000125:
000126:                                                                                                  #  MORE HAUSKEEPING
000127:
000128: 30,3102           33745                           CA       ECDUWL
000129: 30,3103           56003                           XCH      EBANK                                 #  SET EBANK
000130: 30,3104           55645                           TS       ECDUWUSR                              #  SAVE USER'S EBANK
000131:
000132: 30,3105           30111                           CA       DAPBOOLS
000133: 30,3106           74737                           MASK     CSMDOCKD                              #  CSMDOCKD MUST NOT BE BIT15
000134: 30,3107           10000                           CCS      A
000135: 30,3110           34753                           CA       ONE                                   #  INDEX IF CSM DOCKED
000136: 30,3111           55647                           TS       NDXCDUW
000137:
000138: 30,3112           34743                           CA       XOVINHIB                              #  XOVINHIB MUST NOT BE BIT15
000139: 30,3113           55651                           TS       FLPAUTNO                              #  SET TO POS-NON-ZERO FLAG PNGCS AUTO NOT
000140:
000141: 30,3114           70111                           MASK     DAPBOOLS
000142: 30,3115           55650                           TS       FLAGOODW                              #  FLAGOODW = ANY PNZ NUMBER IF XOV INHIBTD
000143:


000145:                                                                                                  #  FETCH BASIC DATA
000146:
000147: 30,3116           00004                           INHINT                                         #  RELINT AT PAUTNO (TC INTPRET)
000148:
000149: 30,3117           30032                           CA       CDUX                                  #  FETCH CDUX,CDUY,CDUZ IN ALL CASES, BUT
000150: 30,3120           54771                           TS       CDUSPOTX                              #       REPLACE BELOW IF PNGCS AUTO
000151: 30,3121           30033                           CA       CDUY
000152: 30,3122           54765                           TS       CDUSPOTY
000153: 30,3123           30034                           CA       CDUZ
000154: 30,3124           54767                           TS       CDUSPOTZ
000155:
000156: 30,3125           34742                           CA       BIT10                                 #  PNGCS CONTROL BIT
000157: 30,3126           00006                           EXTEND
000158: 30,3127           02030                           RAND     CHAN30
000159: 30,3130           10000                           CCS      A
000160: 30,3131           13146                           TCF      PAUTNO                                #  NOT PNGCS (BITS INVERTED)
000161:
000162: 30,3132           34736                           CA       BIT14                                 #  AUTO MODE BIT
000163: 30,3133           00006                           EXTEND
000164: 30,3134           02031                           RAND     CHAN31
000165: 30,3135           10000                           CCS      A
000166: 30,3136           13146                           TCF      PAUTNO                                #  NOT AUTO (BITS INVERTED)
000167:
000168: 30,3137           55651                           TS       FLPAUTNO                              #  RESET FLAG PNGCS AUTO NOT
000169:
000170: 30,3140           31634                           CA       CDUXD                                 #  PNGCS AUTO: FETCH CDUXD,CDUYD,CDUZD
000171: 30,3141           54771                           TS       CDUSPOTX
000172: 30,3142           31635                           CA       CDUYD
000173: 30,3143           54765                           TS       CDUSPOTY
000174: 30,3144           31636                           CA       CDUZD
000175: 30,3145           54767                           TS       CDUSPOTZ
000176:


000178:                                                                                                  #  FETCH INPUTS
000179:
000180: 30,3146           06051        PAUTNO             TC       INTPRET                               #  ENTERING THRUST CMD STILL IN MPAC
000181: 30,3147           77634                           RTB
000182: 30,3150           21710                                    NORMUNIT
000183: 30,3151           24001                           STOVL    UNX/2                                 #  SEMI-UNIT THRUST CMD AS INITIAL UNX/2
000184: 30,3152           03261                                    UNWC/2
000185: 30,3153           47034                           RTB      RTB
000186: 30,3154           21710                                    NORMUNIT
000187: 30,3155           47622                                    QUICTRIG                              #  ALWAYS RQD TO OBTAIN TRIGS OF CDUD'S
000188: 30,3156           24015                           STOVL    UNZ/2                                 #  SEMI-UNIT WINDOW CMD AS INITIAL UNZ/2
000189: 30,3157           00325                                    DELV
000190: 30,3160           53404                           BOVB     UNIT
000191: 30,3161           61734                                    NOATTCNT                              #  AT LEAST ONE ENTERING CMD VCT ZERO
000192: 30,3162           45000                           BOV      CALL
000193: 30,3163           61177                                    AFTRFLTR                              #  IF UNIT DELV OVERFLOWS, SKIP FILTER
000194: 30,3164           47676                                    *SMNB*                                #  YIELDS UNIT(DELV) IN VEH COORDS FOR FLTR
000195:
000196:                                                                                                  #  THRUST DIRECTION FILTER
000197:
000198: 30,3165           77776                           EXIT
000199:
000200: 30,3166           31670                           CA       UNFVY/2                               #  FOR RESTARTS, UNFV/2 ALWAYS INTACT, MPAC
000201: 30,3167           22157                           LXCH     MPAC       +3                         #       RENEWED AFTER RETURN FROM CALLER,
000202: 30,3170           03467                           TC       FLTRSUB                               #       TWO FILTER UPDATES MAY BE DONE.
000203: 30,3171           55670                           TS       UNFVY/2                               #  UNFV/2 NEED NOT BE EXACTLY SEMI-UNIT.
000204:
000205: 30,3172           31672                           CA       UNFVZ/2
000206: 30,3173           22161                           LXCH     MPAC       +5
000207: 30,3174           03467                           TC       FLTRSUB
000208: 30,3175           55672                           TS       UNFVZ/2
000209:
000210: 30,3176           06051                           TC       INTPRET                               #  COMPLETES FILTER
000211:


000213:                                                                                                  #  FIND A SUITABLE WINDOW POINTING VECTOR
000214:
000215: 30,3177           46135        AFTRFLTR           SLOAD    BHIZ                                  #  IF XOV NOT INHIBITED, GO FETCH ZNB
000216: 30,3200           03251                                    FLAGOODW
000217: 30,3201           61205                                    FETCHZNB
000218: 30,3202           45175                           VLOAD    CALL
000219: 30,3203           00015                                    UNZ/2
000220: 30,3204           61507                                    UNWCTEST
000221:
000222: 30,3205           77775        FETCHZNB           VLOAD
000223: 30,3206           02153                                    ZNBPIP
000224: 30,3207           34015                           STCALL   UNZ/2
000225: 30,3210           61507                                    UNWCTEST
000226:
000227: 30,3211           57575                           VLOAD    VCOMP                                 #  Z AND -X CAN'T BOTH PARALLEL UNFC/2
000228: 30,3212           02137                                    XNBPIP
000229: 30,3213           00015                           STORE    UNZ/2
000230:
000231:                                                                                                  #  COMPUTE THE REQUIRED DIRECTION COSINE MATRIX
000232:
000233: 30,3214           47375        DCMCL              VLOAD    VXV
000234: 30,3215           00015                                    UNZ/2
000235: 30,3216           00001                                    UNX/2
000236: 30,3217           41456                           UNIT     PUSH                                  #  UNY/2 FIRST ITERATION
000237: 30,3220           76435                           VXV      VSL1
000238: 30,3221           00001                                    UNX/2
000239: 30,3222           00015                           STORE    UNZ/2                                 #  -UNZ/2 FIRST ITERATION
000240: 30,3223           63361                           VXSC     PDVL                                  #  EXCHANGE -UNFVZ/2 UNZ/2 FOR UNY/2
000241: 30,3224           03273                                    UNFVZ/2                               #  MUST BE SMALL
000242: 30,3225           51361                           VXSC     BVSU                                  #  YIELDS -UNFVY/2 UNY/2-UNFVZ/2 UNZ/2
000243: 30,3226           03271                                    UNFVY/2                               #  MUST BE SMALL
000244: 30,3227           53372                           VSL1     VAD
000245: 30,3230           00001                                    UNX/2
000246: 30,3231           77656                           UNIT                                           #  TOTALLY ELIMINATES THRUST POINTING ERROR
000247: 30,3232           00001                           STORE    UNX/2                                 #  UNX/2
000248: 30,3233           76435                           VXV      VSL1
000249: 30,3234           00015                                    UNZ/2                                 #  -UNZ/2 WAS STORED HERE REMEMBER
000250: 30,3235           00007                           STORE    UNY/2                                 #  UNY/2
000251: 30,3236           47276                           VCOMP    VXV
000252: 30,3237           00001                                    UNX/2
000253: 30,3240           77772                           VSL1
000254: 30,3241           00015                           STORE    UNZ/2                                 #  UNZ/2
000255:


000257:                                                                                                  #  COMPUTE THE REQUIRED GIMBAL ANGLES
000258:
000259: 30,3242           77624                           CALL
000260: 30,3243           61517                                    NB2CDUSP                              #  YIELDS THE RQD GIMBAL ANGLES, 2'S, PI
000261: 30,3244           77776                           EXIT
000262:
000263:                                                                                                  #  BIAS OUTER GIMBAL ANGLE
000264:
000265: 30,3245           31677                           CA       OGABIAS
000266: 30,3246           26154                           ADS      MPAC
000267:
000268:                                                                                                  #  LIMIT THE MIDDLE GIMBAL ANGLE & COMPUTE THE UNLIMITED GIMBAL ANGLE CHGS
000269:
000270: 30,3247           30156                           CA       MPAC       +2                         #  LIMIT THE MGA
000271: 30,3250           54001                           TS       L                                     #  CAN'T LXCH: NEED UNLIMITED MGA FOR ALARM
000272: 30,3251           33757                           CA       CDUZDLIM
000273: 30,3252           03713                           TC       LIMITSUB                              #  YIELDS LIMITED MGA. 1 BIT ERROR POSSIBLE
000274: 30,3253           56156                           XCH      MPAC       +2                         #       BECAUSE USING 2'S COMP. WHO CARES?
000275: 30,3254           00006                           EXTEND
000276: 30,3255           20156                           MSU      MPAC       +2                         #  THIS BETTER YIELD ZERO
000277: 30,3256           00006                           EXTEND
000278: 30,3257           13261                           BZF      +2
000279: 30,3260           13742                           TCF      ALARMMGA
000280:
000281: 30,3261           00004        MGARET             INHINT                                         #  RELINT AT TC INTPRET AFTER TCQCDUW
000282:
000283: 30,3262           22007                           ZL
000284: 30,3263           34752                           CA       TWO
000285: 30,3264           54142        DELGMBLP           TS       TEM2
000286:
000287: 30,3265           30001                           CA       L                                     #  TO PREVENT FALSE STARTS ABOUT X, ZERO
000288: 30,3266           00006                           EXTEND                                         #       FLAGOODW IF DELGMBZ OR Y TOO BIG.
000289: 30,3267           70000                           SQUARE
000290: 30,3270           64350                           AD       HI5                                   #  WITHIN 1 BIT OF -(45 DEG SQUARED)
000291: 30,3271           00006                           EXTEND
000292: 30,3272           63275                           BZMF     +3
000293: 30,3273           34755                           CA       ZERO
000294: 30,3274           55650                           TS       FLAGOODW
000295:
000296: 30,3275           50142                           INDEX    TEM2
000297: 30,3276           30154                           CA       MPAC
000298: 30,3277           50142                           INDEX    TEM2
000299: 30,3300           54321                           TS       CPHI                                  #  OUTPUTS TO NOUN22
000300: 30,3301           00006                           EXTEND
000301: 30,3302           50142                           INDEX    TEM2
000302: 30,3303           21634                           MSU      CDUXD                                 #  NO MATTER THAT THESE SLIGHTLY DIFFERENT
000303: 30,3304           40000                           COM                                            #       FROM WHEN WE INITIALLY FETCHED THEM
000304: 30,3305           50142                           INDEX    TEM2
000305: 30,3306           55674                           TS       -DELGMB                               #  -UNLIMITED GIMBAL ANGLE CHGS, 1'S, PI
000306: 30,3307           54001                           TS       L                                     #  FOR PRECEDING TEST ON NEXT LOOP PASS


000308: 30,3310           10142                           CCS      TEM2
000309: 30,3311           13264                           TCF      DELGMBLP
000310:


000312:                                                                                                  #  BRANCHES TO NOATTCNT
000313:
000314: 30,3312           11651                           CCS      FLPAUTNO
000315: 30,3313           13736                           TCF      NOATTCNT   +2                         #  NOT PNGCS AUTO
000316:
000317: 30,3314           30101                           CA       FLAGWRD5
000318: 30,3315           74745                           MASK     ENGONBIT
000319: 30,3316           00006                           EXTEND
000320: 30,3317           13736                           BZF      NOATTCNT   +2                         #  ENGINE NOT ON
000321:


000323:                                                                                                  #  LIMIT THE ATTITUDE ANGLE CHANGES
000324:
000325:                                                                                                  #  THIS SECTION LIMITS THE ATTITUDE ANGLE CHANGES ABOUT A SET OF ORTHOGONAL VEHICLE AXES X,YPRIME,ZPRIME.
000326:                                                                                                  #  THESE AXES COINCIDE WITH THE COMMANDED VEHICLE AXES IF AND ONLY IF CDUXD IS ZERO.  THE PRIME SYSTEM IS
000327:                                                                                                  #  THE COMMANDED VEHICLE SYSTEM ROTATED ABOUT THE X AXIS TO BRING THE Z AXIS INTO ALINEMENT WITH THE MIDDLE GIMBAL
000328:                                                                                                  #  AXIS.  ATTITUDE ANGLE CHANGES IN THE PRIME SYSTEM ARE RELATED TO SMALL GIMBAL ANGLE CHANGES BY:
000329:
000330:                                                                                                  #  * -DELATTX      *   * 1  SIN(CDUZD)  0 * * -DELGMBX *
000331:                                                                                                  #  *               *   *                  * *          *
000332:                                                                                                  #  * -DELATTYPRIME * = * 0  COS(CDUZD)  0 * * -DELGMBY *
000333:                                                                                                  #  *               *   *                  * *          *
000334:                                                                                                  #  * -DELATTZPRIME *   * 0  0           1 * * -DELGMBZ *
000335:
000336: 30,3320           23676                           LXCH     -DELGMB    +2                         #  SAME AS -DELATTZPRIME UNLIMITED
000337: 30,3321           51647                           INDEX    NDXCDUW
000338: 30,3322           33753                           CA       DAZMAX
000339: 30,3323           03713                           TC       LIMITSUB
000340: 30,3324           55676                           TS       -DELGMB    +2                         #  -DELGMBZ
000341:
000342: 30,3325           31675                           CA       -DELGMB    +1
000343: 30,3326           00006                           EXTEND
000344: 30,3327           70745                           MP       COSCDUZ                               #  YIELDS -DELATTYPRIME/2 UNLIMITED
000345: 30,3330           54001                           TS       L
000346: 30,3331           51647                           INDEX    NDXCDUW
000347: 30,3332           33755                           CA       DAY/2MAX
000348: 30,3333           03713                           TC       LIMITSUB
000349: 30,3334           00006                           EXTEND
000350: 30,3335           10745                           DV       COSCDUZ
000351: 30,3336           57675                           XCH      -DELGMB    +1                         #  -DELGMBY, FETCHING UNLIMITED VALUE
000352:
000353: 30,3337           00006                           EXTEND
000354: 30,3340           70737                           MP       SINCDUZ
000355: 30,3341           20001                           DDOUBL
000356: 30,3342           40000                           COM
000357: 30,3343           00006                           EXTEND                                         #  YIELDS +DELATTX UNLIMITD, MAG < 180 DEG,
000358: 30,3344           21674                           MSU      -DELGMB                               #       BASED ON UNLIMITED DELGMBY.
000359: 30,3345           54001                           TS       L                                     #       ONE BIT ERROR IF OPERANDS IN MSU
000360: 30,3346           51647                           INDEX    NDXCDUW                               #       OF MIXED SIGNS.  WHO CARES?
000361: 30,3347           33753                           CA       DAXMAX
000362: 30,3350           03713                           TC       LIMITSUB
000363: 30,3351           55674                           TS       -DELGMB                               #  SAVE LIMITED +DELATTX
000364: 30,3352           11650                           CCS      FLAGOODW
000365: 30,3353           41674                           CS       -DELGMB                               #  FETCH IT BACK CHGING SIGN IF WINDOW GOOD
000366: 30,3354           55674                           TS       -DELGMB                               #  OTHERWISE USE ZERO FOR -DELATTX
000367: 30,3355           41675                           CS       -DELGMB    +1
000368: 30,3356           00006                           EXTEND
000369: 30,3357           70737                           MP       SINCDUZ
000370: 30,3360           20001                           DDOUBL                                         #  YIELDS -CNTRIB TO -DELATTX FROM -DELGMBY
000371: 30,3361           27674                           ADS      -DELGMB                               #  -DELGMBX.  NO OVERFLOW SINCE LIMITED TO
000372:                                                                                                  #  20DEG(1+SIN(70DEG)/COS(70DEG)) < 180DEG
000373:


000375:                                                                                                  #  COMPUTE COMMANDED ATTITUDE RATES
000376:
000377:                                                                                                  #  * OMEGAPD *   * -2  -4 SINCDUZ          +0         * * -DELGMBX *
000378:                                                                                                  #  *         *   *                                    * *          *
000379:                                                                                                  #  * OMEGAQD * = * +0  -8 COSCDUZ COSCDUX  -4 SINCDUX * * -DELGMBY *
000380:                                                                                                  #  *         *   *                                    * *          *
000381:                                                                                                  #  * OMEGARD *   * +0  +8 COSCDUZ SINCDUX  -4 COSCDUX * * -DELGMBZ *
000382:
000383:                                                                                                  #  ATTITUDE ANGLE RATES IN UNITS OF PI/4 RAD/SEC = K TRIG FCNS IN UNITS OF 2 X GIMBAL ANGLE RATES IN UNITS OF
000384:                                                                                                  #  PI/2 RAD/SEC.  THE CONSTANTS ARE BASED ON DELGMB BEING THE GIMBAL ANGLE CHANGES IN UNITS OF PI RADIANS,
000385:                                                                                                  #  AND 2 SECONDS BEING THE COMPUTATION PERIOD (THE PERIOD BETWEEN SUCCESSIVE PASSES THRU FINDCDUW).
000386:
000387: 30,3362           41674                           CS       -DELGMB
000388: 30,3363           55642                           TS       OMEGAPD
000389: 30,3364           41675                           CS       -DELGMB    +1
000390: 30,3365           00006                           EXTEND
000391: 30,3366           70737                           MP       SINCDUZ
000392: 30,3367           20001                           DDOUBL
000393: 30,3370           27642                           ADS      OMEGAPD
000394: 30,3371           27642                           ADS      OMEGAPD
000395:
000396: 30,3372           41675                           CS       -DELGMB    +1
000397: 30,3373           00006                           EXTEND
000398: 30,3374           70747                           MP       COSCDUX
000399: 30,3375           20001                           DDOUBL
000400: 30,3376           00006                           EXTEND
000401: 30,3377           70745                           MP       COSCDUZ
000402: 30,3400           55643                           TS       OMEGAQD
000403: 30,3401           41676                           CS       -DELGMB    +2
000404: 30,3402           00006                           EXTEND
000405: 30,3403           70741                           MP       SINCDUX
000406: 30,3404           27643                           ADS      OMEGAQD
000407: 30,3405           27643                           ADS      OMEGAQD
000408: 30,3406           27643                           ADS      OMEGAQD
000409:
000410: 30,3407           31675                           CA       -DELGMB    +1
000411: 30,3410           00006                           EXTEND
000412: 30,3411           70741                           MP       SINCDUX
000413: 30,3412           20001                           DDOUBL
000414: 30,3413           00006                           EXTEND
000415: 30,3414           70745                           MP       COSCDUZ
000416: 30,3415           55644                           TS       OMEGARD
000417: 30,3416           41676                           CS       -DELGMB    +2
000418: 30,3417           00006                           EXTEND
000419: 30,3420           70747                           MP       COSCDUX
000420: 30,3421           27644                           ADS      OMEGARD
000421: 30,3422           27644                           ADS      OMEGARD
000422: 30,3423           27644                           ADS      OMEGARD
000423:


000425:                                                                                                  #  FINAL TRANSFER
000426:
000427: 30,3424           34752                           CA       TWO
000428: 30,3425           54142        CDUWXFR            TS       TEM2
000429: 30,3426           50142                           INDEX    TEM2
000430: 30,3427           31674                           CA       -DELGMB
000431: 30,3430           00006                           EXTEND
000432: 30,3431           73760                           MP       DT/DELT                               #  RATIO OF DAP INTERVAL TO CDUW INTERVAL
000433: 30,3432           03727                           TC       ONESTO2S
000434: 30,3433           50142                           INDEX    TEM2
000435: 30,3434           55637                           TS       DELCDUX                               #  ANGLE INTERFACE
000436:
000437: 30,3435           50142                           INDEX    TEM2
000438: 30,3436           11642                           CCS      OMEGAPD
000439: 30,3437           64753                           AD       ONE
000440: 30,3440           13442                           TCF      +2
000441: 30,3441           64753                           AD       ONE
000442: 30,3442           00006                           EXTEND                                         #  WE NOW HAVE ABS(OMEGAPD,QD,RD)
000443: 30,3443           50142                           INDEX    TEM2
000444: 30,3444           71642                           MP       OMEGAPD
000445: 30,3445           00006                           EXTEND
000446: 30,3446           74741                           MP       BIT11                                 #  1/16
000447: 30,3447           00006                           EXTEND
000448: 30,3450           50142                           INDEX    TEM2                                  #                    2
000449: 30,3451           11530                           DV       1JACC                                 #  UNITS PI/4 RAD/SEC
000450: 30,3452           54001                           TS       L
000451: 30,3453           33755                           CA       DELERLIM
000452: 30,3454           03713                           TC       LIMITSUB
000453: 30,3455           50142                           INDEX    TEM2
000454: 30,3456           55274                           TS       DELPEROR                              #  LAG ANGLE = OMEGA ABS(OMEGA)/2 ACCEL
000455: 30,3457           10142                           CCS      TEM2
000456: 30,3460           13425                           TCF      CDUWXFR
000457:
000458:                                                                                                  #  HAUSKEEPING AND RETURN
000459:
000460: 30,3461           31645        TCQCDUW            CA       ECDUWUSR
000461: 30,3462           54003                           TS       EBANK                                 #  RETURN USER'S EBANK
000462:
000463: 30,3463           06051                           TC       INTPRET
000464: 30,3464           52001                           SETPD    GOTO
000465: 30,3465           00001                                    0
000466: 30,3466           03246                                    QCDUWUSR                              #  NORMAL AND ABNORMAL RETURN TO USER
000467:


000469:                                                                                                  #  THRUST VECTOR FILTER SUBROUTINE
000470:
000471: 30,3467           00006        FLTRSUB            EXTEND
000472: 30,3470           22142                           QXCH     TEM2
000473: 30,3471           54143                           TS       TEM3                                  #  SAVE ORIGINAL OFFSET
000474: 30,3472           40000                           COM                                            #  ONE MCT, NO WDS, CAN BE SAVED IF NEG OF
000475: 30,3473           60001                           AD       L                                     #       ORIG OFFSET ARRIVES IN A, BUT IT'S
000476: 30,3474           00006                           EXTEND                                         #       NOT WORTH THE INCREASED OBSCURITY.
000477: 30,3475           51647                           INDEX    NDXCDUW
000478: 30,3476           73746                           MP       GAINFLTR
000479: 30,3477           54001                           TS       L                                     #  INCR TO OFFSET, UNLIMITED
000480: 30,3500           33750                           CA       DUNFVLIM                              #  SAME LIMIT FOR Y AND Z
000481: 30,3501           03713                           TC       LIMITSUB                              #  YIELDS INCR TO OFFSET, LIMITED
000482: 30,3502           60143                           AD       TEM3                                  #  ORIGINAL OFFSET
000483: 30,3503           54001                           TS       L                                     #  TOTAL OFFSET, UNLIMITED
000484: 30,3504           33751                           CA       UNFVLIM                               #  SAME LIMIT FOR Y AND Z
000485: 30,3505           03713                           TC       LIMITSUB                              #  YIELDS TOTAL OFFSET, LIMITED
000486: 30,3506           00142                           TC       TEM2
000487:
000488:                                                                                                  #  SUBR TO TEST THE ANGLE BETWEEN THE PROPOSED WINDOW AND THRUST CMD VCTS
000489:
000490: 30,3507           63441        UNWCTEST           DOT      DSQ
000491: 30,3510           00001                                    UNX/2
000492: 30,3511           50025                           DSU      BMN
000493: 30,3512           21753                                    DOTSWFMX
000494: 30,3513           61214                                    DCMCL
000495: 30,3514           43531                           SSP      RVQ                                   #  RVQ FOR ALT CHOICE IF DOT MAGN TOO LARGE
000496: 30,3515           03251                                    FLAGOODW                              #       ZEROING WINDOW GOOD FLAG
000497: 30,3516           00000                                    0
000498:


000500:                                                                                                  #  NB2CDUSP RETURNS THE 2'S COMPLEMENT, PI, SP CDU ANGLES X,Y,Z IN MPAC,+1,+2 GIVEN THE MATRIX WHOSE ROW VECTORS
000501:                                                                                                  #  ARE THE SEMI-UNIT NAV BASE VECTORS X,Y,Z EXPRESSED IN STABLE MEMBER COORDINATES, LOCATED AT 0 IN THE PUSH LIST.
000502:
000503:                                                                                                  #  NB2CDUSP USES ARCTRGSP WHICH HAS A MAXIMUM ERROR OF +-4 BITS.
000504:
000505: 30,3517           63545        NB2CDUSP           DLOAD    DSQ
000506: 30,3520           00003                                    2
000507: 30,3521           51021                           BDSU     BPL
000508: 30,3522           06510                                    DP1/4TH
000509: 30,3523           61526                                    +3
000510: 30,3524           77745                           DLOAD
000511: 30,3525           06520                                    ZEROVECS                              #  IN CASE SIN WAS SLIGHTLY > 1/2
000512: 30,3526           77566                           SQRT     EXIT                                  #  YIELDS COS(CDUZ) IN UNITS OF 2
000513:
000514: 30,3527           00006                           EXTEND
000515: 30,3530           30155                           DCA      MPAC
000516: 30,3531           20001                           DDOUBL
000517: 30,3532           54145                           TS       TEM5
000518: 30,3533           13536                           TCF      +3
000519: 30,3534           34733                           CA       POSMAX                                #  OVERFLOW. FETCH POSMAX, MPAC ALWAYS POS
000520: 30,3535           54145                           TS       TEM5                                  #  COS(CDUZ) IN TEM5, UNITS 1
000521:
000522: 30,3536           50120                           INDEX    FIXLOC
000523: 30,3537           30002                           CA       2
000524: 30,3540           22154                           LXCH     MPAC
000525: 30,3541           03606                           TC       ARCTRGSP
000526: 30,3542           54156                           TS       MPAC       +2                         #  CDUZ
000527:
000528: 30,3543           34755                           CA       ZERO
000529: 30,3544           03564                           TC       DVBYCOSM
000530: 30,3545           34751                           CA       FOUR
000531: 30,3546           03564                           TC       DVBYCOSM
000532: 30,3547           40141                           CS       TEM1
000533: 30,3550           03606                           TC       ARCTRGSP
000534: 30,3551           54155                           TS       MPAC       +1                         #  CDUY
000535:
000536: 30,3552           34750                           CA       BIT4
000537: 30,3553           03564                           TC       DVBYCOSM
000538: 30,3554           33563                           CA       16OCT
000539: 30,3555           03564                           TC       DVBYCOSM
000540: 30,3556           40141                           CS       TEM1
000541: 30,3557           03606                           TC       ARCTRGSP
000542: 30,3560           54154                           TS       MPAC                                  #  CDUX
000543:
000544: 30,3561           06051                           TC       INTPRET
000545: 30,3562           77616                           RVQ
000546:
000547: 30,3563           00016        16OCT              OCT      16
000548:


000550:                                                                                                  #  THE ELEMENTS OF THE NAV BASE MATRIX WHICH WE MUST DIVIDE BY COS(MGA)
000551:                                                                                                  #  ALREADY CONTAIN COS(MGA)/2 AS A FACTOR.  THEREFORE THE QUOTIENT SHOULD
000552:                                                                                                  #  ORDINARILY NEVER EXCEED 1/2 IN MAGNITUDE.  BUT IF THE MGA IS NEAR PI/2
000553:                                                                                                  #  THEN COS(MGA) IS NEAR ZERO, AND THERE MAY BE SOME CHAFF IN THE OTHER
000554:                                                                                                  #  ELEMENTS OF THE MATRIX WHICH WOULD PRODUCE CHAOS UNDER DIVISION.
000555:                                                                                                  #  BEFORE DIVIDING WE MAKE SURE COS(MGA) IS AT LEAST ONE BIT LARGER
000556:                                                                                                  #  THAN THE MAGNITUDE OF THE HIGH ORDER PART OF THE OPERAND.
000557:
000558:                                                                                                  #  IF ONE OR MORE DIVIDES CANNOT BE PERFORMED, THIS MEANS THAT THE
000559:                                                                                                  #  REQUIRED MGA IS VERY NEARLY +-PI/2 AND THEREFORE THE OTHER GIMBAL
000560:                                                                                                  #  ANGLES ARE INDETERMINATE.  THE INNER AND OUTER GIMBAL ANGLES RETURNED
000561:                                                                                                  #  IN THIS CASE WILL BE RANDOM MULTIPLES OF PI/2.
000562:
000563: 30,3564           60120        DVBYCOSM           AD       FIXLOC
000564: 30,3565           54116                           TS       ADDRWD                                #  ADRES OF OPERAND
000565:
000566: 30,3566           50116                           INDEX    ADDRWD                                #  FETCH NEG ABS OF OPERAND, AD TEM5, AND
000567: 30,3567           30000                           CA       0                                     #      SKIP DIVIDE IF RESULT NEG OR ZERO
000568: 30,3570           00006                           EXTEND
000569: 30,3571           63573                           BZMF     +2
000570: 30,3572           40000                           COM
000571: 30,3573           60145                           AD       TEM5                                  #  C(A) ZERO OR NEG, C(TEM5) ZERO OR POS
000572: 30,3574           00006                           EXTEND
000573: 30,3575           63603                           BZMF     TSL&TCQ                               #  DIFFERENCE ALWAYS SMALL IF BRANCH
000574:
000575: 30,3576           00006                           EXTEND                                         #  TEM5 EXCEEDS ABS HIGH ORDER PART OF
000576: 30,3577           50116                           INDEX    ADDRWD                                #       OPERAND BY AT LEAST ONE BIT.
000577: 30,3600           30001                           DCA      0                                     #       THEREFORE IT EXCEEDS THE DP OPERAND
000578: 30,3601           00006                           EXTEND                                         #       AND DIVISION WILL ALWAYS SUCCEED.
000579: 30,3602           10145                           DV       TEM5
000580: 30,3603           54001        TSL&TCQ            TS       L
000581: 30,3604           22141                           LXCH     TEM1
000582: 30,3605           00002                           TC       Q
000583:


000585:                                                                                                  #  ARCTRGSP RETURNS THE 2'S COMPLEMENT, PI, SP ANGLE IN THE A REGISTER GIVEN ITS SINE IN A AND ITS COSINE IN L IN
000586:                                                                                                  #  UNITS OF 2.  THE RESULT IS AN UNAMBIGUOUS ANGLE ANYWHERE IN THE CIRCLE, WITH A MAXIMUM ERROR OF +-4 BITS.
000587:                                                                                                  #  THE ERROR IS PRODUCED BY THE SUBROUTINE SPARCSIN WHICH IS USED ONLY IN THE REGION +-45 DEGREES.
000588:
000589: 30,3606           00006        ARCTRGSP           EXTEND
000590: 30,3607           13651                           BZF      SINZERO                               #  TO AVOID DIVIDING BY ZERO
000591:
000592: 30,3610           00006                           EXTEND
000593: 30,3611           22144                           QXCH     TEM4
000594: 30,3612           54142                           TS       TEM2
000595: 30,3613           30001                           CA       L
000596: 30,3614           54143                           TS       TEM3
000597: 30,3615           34755                           CA       ZERO
000598: 30,3616           00006                           EXTEND
000599: 30,3617           10142                           DV       TEM2
000600: 30,3620           00006                           EXTEND
000601: 30,3621           13640                           BZF      USECOS
000602:
000603: 30,3622           10143                           CCS      TEM3                                  #  SIN IS SMALLER OR EQUAL
000604: 30,3623           34755                           CA       ZERO
000605: 30,3624           13630                           TCF      +4
000606: 30,3625           40142                           CS       TEM2                                  #  IF COS NEG, REVERSE SIGN OF SIN,
000607: 30,3626           54142                           TS       TEM2                                  #       ANGLE = PI-ARCSIN(SIN)
000608: 30,3627           34735                           CA       NEGMAX                                #  PICK UP PI, 2'S COMPLEMENT
000609: 30,3630           54143                           TS       TEM3                                  #  WE NO LONGER NEED COS
000610: 30,3631           30142                           CA       TEM2
000611: 30,3632           03656                           TC       SPARCSIN   -1
000612: 30,3633           03727                           TC       ONESTO2S
000613: 30,3634           00006                           EXTEND
000614: 30,3635           20143                           MSU      TEM3
000615: 30,3636           03727        1TO2&TCQ           TC       ONESTO2S
000616: 30,3637           00144                           TC       TEM4
000617:
000618: 30,3640           40143        USECOS             CS       TEM3                                  #  COS IS SMALLER
000619: 30,3641           03656                           TC       SPARCSIN   -1                         #  ANGLE = SIGN(SIN)(PI/2-ARCSIN(COS))
000620: 30,3642           64736                           AD       HALF
000621: 30,3643           54143                           TS       TEM3                                  #  WE NO LONGER NEED COS
000622: 30,3644           10142                           CCS      TEM2
000623: 30,3645           30143                           CA       TEM3
000624: 30,3646           13636                           TCF      1TO2&TCQ
000625: 30,3647           40143                           CS       TEM3
000626: 30,3650           13636                           TCF      1TO2&TCQ
000627:
000628: 30,3651           10001        SINZERO            CCS      L
000629: 30,3652           34755                           CA       ZERO
000630: 30,3653           00002                           TC       Q
000631: 30,3654           34735                           CA       NEGMAX                                #  PI, 2'S COMP
000632: 30,3655           00002                           TC       Q
000633:


000635:                                                                                                  #  SPARCSIN TAKES AN ARGUMENT SCALED UNITY IN A AND RETURNS AN ANGLE SCALED
000636:                                                                                                  #  180 DEGREES IN A.  IT HAS BEEN UNIT TESTED IN THE REGION +-.94 (+- 70
000637:                                                                                                  #  DEGREES) AND THE MAXIMUM ERROR IS +-5 BITS WITH AN AVERAGE TIME OF
000638:                                                                                                  #  450 MICROSECONDS.  SPARCSIN -1 TAKES THE ARGUMENT SCALED TWO.(BOB CRISP)
000639:
000640: 30,3656           60000                           DOUBLE
000641: 30,3657           54021        SPARCSIN           TS       SR
000642: 30,3660           13664                           TCF      +4
000643: 30,3661           50000                           INDEX    A
000644: 30,3662           44734                           CS       LIMITS
000645: 30,3663           54021                           TS       SR
000646: 30,3664           00006                           EXTEND
000647: 30,3665           70000                           MP       A
000648: 30,3666           54141                           TS       TEM1
000649: 30,3667           00006                           EXTEND
000650: 30,3670           73712                           MP       DPL9
000651: 30,3671           63711                           AD       DPL7
000652: 30,3672           00006                           EXTEND
000653: 30,3673           70141                           MP       TEM1
000654: 30,3674           63710                           AD       DPL5
000655: 30,3675           00006                           EXTEND
000656: 30,3676           70141                           MP       TEM1
000657: 30,3677           63707                           AD       DPL3
000658: 30,3700           00006                           EXTEND
000659: 30,3701           70141                           MP       TEM1
000660: 30,3702           63706                           AD       DPL1
000661: 30,3703           00006                           EXTEND
000662: 30,3704           70021                           MP       SR
000663: 30,3705           00002                           TC       Q
000664: 30,3706           24406        DPL1               DEC      10502      B-14
000665: 30,3707           00660        DPL3               DEC      432        B-14
000666: 30,3710           16204        DPL5               DEC      7300       B-14
000667: 30,3711           50744        DPL7               DEC      -11803     B-14
000668: 30,3712           20315        DPL9               DEC      8397       B-14
000669:


000671:                                                                                                  #  LIMITSUB LIMITS THE MAGNITUDE OF THE POSITIVE OR NEGATIVE VARIABLE
000672:                                                                                                  #  ARRIVING IN L TO THE POSITIVE LIMIT ARRIVING IN A.
000673:                                                                                                  #  THE SIGNED LIMITED VARIABLE IS RETURNED IN A.
000674:
000675:                                                                                                  #  VERSION COURTESY HUGH BLAIR-SMITH
000676:
000677: 30,3713           54141        LIMITSUB           TS       TEM1
000678: 30,3714           34755                           CA       ZERO
000679: 30,3715           00006                           EXTEND
000680: 30,3716           10141                           DV       TEM1
000681: 30,3717           10000                           CCS      A
000682: 30,3720           22141                           LXCH     TEM1
000683: 30,3721           13723                           TCF      +2
000684: 30,3722           13725                           TCF      +3
000685: 30,3723           30001                           CA       L
000686: 30,3724           00002                           TC       Q
000687: 30,3725           40141                           CS       TEM1
000688: 30,3726           00002                           TC       Q
000689:
000690:                                                                                                  #  SUBROUTINE TO CONVERT 1'S COMP SP TO 2'S COMP
000691:
000692: 30,3727           10000        ONESTO2S           CCS      A
000693: 30,3730           64753                           AD       ONE
000694: 30,3731           00002                           TC       Q
000695: 30,3732           40000                           CS       A
000696: 30,3733           00002                           TC       Q
000697:
000698:                                                                                                  #  NO ATTITUDE CONTROL
000699:
000700: 30,3734           05600        NOATTCNT           TC       ALARM
000701: 30,3735           00402                           OCT      00402                                 #  NO ATTITUDE CONTROL
000702:
000703: 30,3736           00004                 +2        INHINT                                         #  COME HERE FOR NOATTCNT WITHOUT ALARM
000704: 30,3737           04674                           TC       IBNKCALL                              #  RELINT AT TC INTPRET AFTER TCQCDUW
000705: 30,3740           40166                           FCADR    STOPRATE
000706: 30,3741           13461                           TCF      TCQCDUW                               #  RETURN TO USER SKIPPING AUTOPILOT CMDS
000707:
000708:                                                                                                  #  MIDDLE GIMBAL ANGLE ALARM
000709:
000710: 30,3742           05600        ALARMMGA           TC       ALARM
000711: 30,3743           00401                           OCT      00401
000712: 30,3744           13261                           TCF      MGARET
000713:


000715:                                                                                                  #  ************************************************************************
000716:                                                                                                  #  CONSTANTS
000717:                                                                                                  #  ************************************************************************
000718:
000719:                                                                                                  #  ADDRESS CONSTANTS
000720:
000721: 30,3745           03245        ECDUWL             ECADR    ECDUW
000722:
000723:                                                                                                  #  THRUST DIRECTION FILTER CONSTANTS
000724:
000725: 30,3746           06315        GAINFLTR           DEC      .2                                    #  GAIN FILTER SANS CSM
000726: 30,3747           03146                           DEC      .1                                    #  GAIN FILTER WITH CSM
000727:
000728: 30,3750           00071        DUNFVLIM           DEC      .007       B-1                        #  7 MR MAX CHG IN F DIR IN VEH IN 2 SECS.
000729:                                                                                                  #  THIS DOES NOT ALLOW FOR S/C ROT RATE.
000730:
000731: 30,3751           02041        UNFVLIM            DEC      .129       B-1                        #  129 MR MAX THRUST OFFSET. 105 MR TRAVEL
000732:                                                                                                  #  +10MR DEFL+5MR MECH MOUNT+9MR ABLATION.
000733:
000734:                                                                                                  #  CONSTANTS RELATED TO GIMBAL ANGLE COMPUTATIONS
000735:
000736: 30,3752           01673        DOTSWFMX           DEC      .93302     B-4                        #  LIM COLNRTY OF UNWC/2 & UNFC/2 TO 85 DEG
000737:                                                                                                  #  LOWER PART COMES FROM NEXT CONSTANT
000738:
000739: 30,3753           03434        DAXMAX             DEC      .11111111111                            #  DELATTX LIM TO 20 DEG IN 2 SECS, 1'S, PI
000740: 30,3754           00266                           DEC      .0111111111                            #  2 DEG WHEN CSM DOCKED
000741:
000742: 30,3755           01616        DAY/2MAX           DEC      .05555555555                            #  LIKEWISE FOR DELATTY
000743: 30,3756           00133                           DEC      .0055555555
000744:
000745: 30,3757  30,3753               DAZMAX             =        DAXMAX                                #  LIKEWISE FOR DELATTZ
000746:
000747: 30,3757           14344        CDUZDLIM           DEC      .3888888888                            #  70 DEG LIMIT FOR MGA, 1'S, PI
000748:
000749:                                                                                                  #  CONSTANTS FOR DATA TRANSFER
000750:
000751: 30,3760           01463        DT/DELT            DEC      .05                                   #  .1 SEC/2 SEC WHICH IS THE AUTOPILOT
000752:                                                                                                  #  CONTROL SAMPLE PERIOD/COMPUTATION PERIOD
000753:
000754: 30,3761  30,3755               DELERLIM           =        DAY/2MAX                              #  10 DEG LIMIT FOR LAG ANGLES, 1'S, PI
000755:

End of include-file FINDCDUW_-_GUIDAP_INTERFACE.agc.  Parent file is MAIN.agc


