
Source Code


000002:                                                                                                  ## Copyright:   Public domain.
000003:                                                                                                  ## Filename:    FLAGWORD_ASSIGNMENTS.agc
000004:                                                                                                  ## Purpose:     A log section of Zerlina 56, the final revision of
000005:                                                                                                  ##              Don Eyles's offline development program for the variable
000006:                                                                                                  ##              guidance period servicer. It also includes a new P66 with LPD
000007:                                                                                                  ##              (Landing Point Designator) capability, based on an idea of John
000008:                                                                                                  ##              Young's. Neither of these advanced features were actually flown,
000009:                                                                                                  ##              but Zerlina was also the birthplace of other big improvements to
000010:                                                                                                  ##              Luminary including the terrain model and new (Luminary 1E)
000011:                                                                                                  ##              analog display programs. Zerlina was branched off of Luminary 145,
000012:                                                                                                  ##              and revision 56 includes all changes up to and including Luminary
000013:                                                                                                  ##              183. It is therefore quite close to the Apollo 14 program,
000014:                                                                                                  ##              Luminary 178, where not modified with new features.
000015:                                                                                                  ## Reference:   pp. 62-89
000016:                                                                                                  ## Assembler:   yaYUL
000017:                                                                                                  ## Contact:     Ron Burkey <info@sandroid.org>.
000018:                                                                                                  ## Website:     www.ibiblio.org/apollo/index.html
000019:                                                                                                  ## Mod history: 2017-07-28 MAS  Created from Luminary 210.
000020:                                                                                                  ##              2017-08-13 MAS  Began transcribing for Zerlina 56.
000021:                                                                                                  ##              2017-08-14 MAS  Finished updates for Zerlina 56.
000022:                                                                                                  ##              2017-08-24 MAS  Fixed a transcription error in R10FLAG that might
000023:                                                                                                  ##                              actually be a bug, resulting in that flag conflicting
000024:                                                                                                  ##                              with NEEDLFLG.
000025:


000027:                                                                                                  #          FLAGWORDS 0-11 ARE DOWNLINKED AND CAN BE SET AND CLEARED BY UP-FLAG AND DOWN-FLAG INSTRUCTIONS IN THE
000028:                                                                                                  #                         INTERPRETER. THESE WERE PREVIOUSLY LISTED UNDER "INTERPRETIVE SWITCH BIT ASSIGNMENTS" IN
000029:                                                                                                  #                         THE ERASABLE LOG SECTION. FLAGWORDS 12 & 13 WEREPREVIOUSLY RADMODES AND DAPBOOLS AND
000030:                                                                                                  #                         ARE STILL DOWNLINKED UNDER THOSE NAMES.
000031:
000032:
000033:
000034:
000035:                                                                                                  #          ALPHABETICAL LIST OF FLAGWORDS
000036:
000037:
000038:                                                                                                  #  9             25              41                      61        COLUMN NO.
000039:                                                                                                  #  FLAGWORD      DEC. NUMBER     BIT AND FLAG            BIT NAME
000040:
000041:                                                                                                  #  ABTTGFLG      143             BIT 7 FLAG 9            ABTTGBIT
000042:                                                                                                  #  ACCOKFLG      207             BIT 3  FLAG 13          ACCSOKAY
000043:                                                                                                  #  ACC4-2FL      199             BIT 11 FLAG 13          ACC4OR2X
000044:                                                                                                  #  ACMODFLG      032             BIT 13 FLAG 2           ACMODBIT
000045:                                                                                                  #  ALTSCALE      186             BIT 9  FLAG 12          ALTSCBIT
000046:                                                                                                  #  ALW66FLG                      BIT  9 FLAG 1           ALW66BIT
000047:                                                                                                  #  ANTENFLG      183             BIT 12 FLAG 12          ANTENBIT
000048:                                                                                                  #  AORBSFLG      085             BIT 5 FLAG 5            AORBSYST
000049:                                                                                                  #  AORBTFLG      200             BIT 10 FLAG 13          AORBTRAN
000050:                                                                                                  #  APSESW        130             BIT 5  FLAG 8           APSESBIT
000051:                                                                                                  #  APSFLAG       152             BIT 13 FLAG 10          APSFLBIT
000052:                                                                                                  #  ASTNFLAG      108             BIT 12 FLAG 7           ASTNBIT
000053:                                                                                                  #  ATTFLAG       104             BIT 1  FLAG 6           ATTFLBIT
000054:                                                                                                  #  AUTOMODE      193             BIT 2  FLAG 12          AUTOMBIT
000055:                                                                                                  #  AUTR1FLG      209             BIT 1  FLAG 13          AUTRATE1
000056:                                                                                                  #  AUTR2FLG      208             BIT 2  FLAG 13          AUTRATE2
000057:                                                                                                  #  AUXFLAG       103             BIT 2  FLAG 6           AUXFLBIT
000058:                                                                                                  #  AVEGFLAG      115             BIT 5  FLAG 7           AVEGFBIT
000059:                                                                                                  #  AVEMIDSW      149             BIT 1  FLAG 9           AVEMDBIT
000060:                                                                                                  #  AVFLAG        040             BIT 5  FLAG 2           AVFLBIT
000061:                                                                                                  #  CALCMAN2      043             BIT 2  FLAG 2           CALC2BIT
000062:                                                                                                  #  CALCMAN3      042             BIT 3  FLAG 2           CALC3BIT
000063:                                                                                                  #  CDESFLAG      180             BIT 15 FLAG 12          CDESBIT
000064:                                                                                                  #  CMOONFLG      123             BIT 12 FLAG 8           CMOONBIT
000065:                                                                                                  #  COGAFLAG      131             BIT 4  FLAG 8           COGAFBIT
000066:                                                                                                  #  CSMDKFLG      197             BIT 13 FLAG 13          CSMDOCKD
000067:                                                                                                  #  CULTFLAG      053             BIT 7  FLAG 3           CULTBIT
000068:                                                                                                  #  DAPBOOLS                      FLGWRD13
000069:                                                                                                  #  DBSELFLG      206             BIT 4  FLAG 13          DBSELECT
000070:                                                                                                  #  DBSL2FLG      205             BIT 5 FLAG 13           DBSLECT2
000071:                                                                                                  #  DESIGFLG      185             BIT 10 FLAG 12          DESIGBIT
000072:                                                                                                  #  DIDFLAG       016             BIT 14 FLAG 1           DIDFLBIT
000073:                                                                                                  #  DIMOFLAG      059             BIT 1  FLAG 3           DIMOBIT


000075:                                                                                                  #  DMENFLG       081             BIT 9  FLAG 5           DMENFBIT
000076:                                                                                                  #  DRIFTDFL      202             BIT 8  FLAG 13          DRIFTBIT
000077:                                                                                                  #  DRIFTFLG      030             BIT 15 FLAG 2           DRFTBIT
000078:                                                                                                  #  DSKYFLAG      075             BIT 15 FLAG 5           DSKYFBIT
000079:                                                                                                  #  D6OR9FLG      058             BIT 2  FLAG 3           D6OR9BIT
000080:                                                                                                  #  ENGONFLG      083             BIT 7  FLAG 5           ENGONBIT
000081:                                                                                                  #  ERADFLAG      017             BIT 13 FLAG 1           ERADFBIT
000082:                                                                                                  #  ETPIFLAG      038             BIT 7  FLAG 2           ETPIBIT
000083:                                                                                                  #  FINALFLG      039             BIT 6  FLAG 2           FINALBIT
000084:                                                                                                  #  FLAGWRD0      (000-014)       (STATE +0)
000085:                                                                                                  #  FLAGWRD1      (015-029)       (STATE +1)
000086:                                                                                                  #  FLAGWRD2      (030-044)       (STATE +2)
000087:                                                                                                  #  FLAGWRD3      (045-059)       (STATE +3)
000088:                                                                                                  #  FLAGWRD4      (060-074)       (STATE +4)
000089:                                                                                                  #  FLAGWRD5      (075-089)       (STATE +5)
000090:                                                                                                  #  FLAGWRD6      (090-104)       (STATE +6)
000091:                                                                                                  #  FLAGWRD7      (105-119)       (STATE +7)
000092:                                                                                                  #  FLAGWRD8      (120-134)       (STATE +8D)
000093:                                                                                                  #  FLAGWRD9      (135-149)       (STATE +9D)
000094:                                                                                                  #  FLAP          142             BIT 8  FLAG 9           FLAPBIT
000095:                                                                                                  #  FLGWRD10      (150-164)       (STATE +10D)
000096:                                                                                                  #  FLGWRD11      (165-179)       (STATE +11D)
000097:                                                                                                  #  FLGWRD12      (180-194)       (STATE +12D)
000098:                                                                                                  #  FLGWRD13      (195-209)       (STATE +13D)
000099:                                                                                                  #  FLPC          138             BIT 12 FLAG 9           FLPCBIT
000100:                                                                                                  #  FLPI          139             BIT 11 FLAG 9           FLPIBIT
000101:                                                                                                  #  FLRCS         149             BIT 10 FLAG 9           FLRCSBIT
000102:                                                                                                  #  FLUNDISP      125             BIT 10 FLAG 8           FLUNDBIT
000103:                                                                                                  #  FLVR          136             BIT 14 FLAG 9           FLVRBIT
000104:                                                                                                  #  FREEFLAG      012             BIT 3  FLAG 0           FREEFBIT
000105:                                                                                                  #  FSPASFLG      005             BIT 10 FLAG 0           FSPASBIT
000106:                                                                                                  #  GLOKFAIL      046             BIT 14 FLAG 3           GLOKFBIT
000107:                                                                                                  #  GMBDRVSW      095             BIT 10 FLAG 6           GMBDRBIT
000108:                                                                                                  #  GUESSW        028             BIT 2  FLAG 1           GUESSBIT
000109:                                                                                                  #  HFAILFLG      167             BIT 13 FLAG 11          HFAILBIT
000110:                                                                                                  #  HFLSHFLG      179             BIT 1  FLAG 11          HFLSHBIT
000111:                                                                                                  #  IDLEFLAG      113             BIT 7  FLAG 7           IDLEFBIT
000112:                                                                                                  #  IGNFLAG       107             BIT 13 FLAG 7           IGNFLBIT
000113:                                                                                                  #  IMPULSW       036             BIT 9  FLAG 2           IMPULBIT
000114:                                                                                                  #  IMUSE         007             BIT 8  FLAG 0           IMUSEBIT
000115:                                                                                                  #  INFINFLG      128             BIT 7  FLAG 8           INFINBIT
000116:                                                                                                  #  INITALGN      133             BIT 2  FLAG 8           INITABIT
000117:                                                                                                  #  INTFLAG       151             BIT 14 FLAG 10          INTFLBIT
000118:                                                                                                  #  INTYPFLG      056             BIT 4  FLAG 3           INTYPBIT
000119:                                                                                                  #  ITSWICH       105             BIT 15 FLAG 7           ITSWBIT
000120:                                                                                                  #  JSWITCH       001             BIT 14 FLAG 0           JSWCHBIT
000121:                                                                                                  #  LETABORT      141             BIT 9  FLAG 9           LETABBIT
000122:                                                                                                  #  LMOONFLG      124             BIT 11 FLAG 8           LMOONBIT
000123:                                                                                                  #  LOKONSW       010             BIT 5  FLAG 0           LOKONBIT
000124:                                                                                                  #  LOSCMFLG      033             BIT 12 FLAG 2           LOSCMBIT


000126:                                                                                                  #  LPOS2FLG      174             BIT 6 FLAG 11           LPOS2BIT
000127:                                                                                                  #  LRALTFLG      190             BIT 5  FLAG 12          LRALTBIT
000128:                                                                                                  #  LRBYPASS      165             BIT 15 FLAG 11          LRBYBIT
000129:                                                                                                  #  LRINH         172             BIT 8  FLAG 11          LRINHBIT
000130:                                                                                                  #  LRPOSFLG      189             BIT 6  FLAG 12          LRPOSBIT
000131:                                                                                                  #  LRVELFLG      187             BIT 8  FLAG 12          LRVELBIT
000132:                                                                                                  #  LUNAFLAG      048             BIT 12 FLAG 3           LUNABIT
000133:                                                                                                  #  MANUFLAG      106             BIT 14 FLAG 7           MANUFBIT
000134:                                                                                                  #  MGLVFLAG      088             BIT 2  FLAG 5           MGLVFBIT
000135:                                                                                                  #  MIDAVFLG      148             BIT 2  FLAG 9           MIDAVBIT
000136:                                                                                                  #  MIDFLAG       002             BIT 13 FLAG 0           MIDFLBIT
000137:                                                                                                  #  MID1FLAG      147             BIT 3  FLAG 9           MID1BIT
000138:                                                                                                  #  MKOVFLAG      072             BIT 3  FLAG 4           MKOVBIT
000139:                                                                                                  #  MOONFLAG      003             BIT 12 FLAG 0           MOONBIT
000140:                                                                                                  #  MRKIDFLG      060             BIT 15 FLAG 4           MRKIDBIT
000141:                                                                                                  #  MRKNVFLG      066             BIT 9  FLAG 4           MRKNVBIT
000142:                                                                                                  #  MRUPTFLG      070             BIT 5 FLAG 4            MRUPTBIT
000143:                                                                                                  #  MUNFLAG       097             BIT 8 FLAG 6            MUNFLBIT
000144:                                                                                                  #  MWAITFLG      064             BIT 11 FLAG 4           MWAITBIT
000145:                                                                                                  #  NEEDLFLG      011             BIT 4  FLAG 0           NEEDLBIT
000146:                                                                                                  #  NEED2FLG      000             BIT 15 FLAG 0           NEED2BIT
000147:                                                                                                  #  NEWIFLG       122             BIT 13 FLAG 8           NEWIBIT
000148:                                                                                                  #  NJETSFLG      015             BIT 15 FLAG 1           NJETSBIT
000149:                                                                                                  #  NODOFLAG      044             BIT 1  FLAG 2           NODOBIT
000150:                                                                                                  #  NODOP07       049             BIT 11 FLAG 3           NOP07BIT
000151:                                                                                                  #  NOLRREAD      170             BIT 10 FLAG 11          NOLRRBIT
000152:                                                                                                  #  NORMSW        110             BIT 10 FLAG 7           NORMSBIT
000153:                                                                                                  #  NORRMON       086             BIT 4  FLAG 5           NORRMBIT
000154:                                                                                                  #  NOTERFLG      019             BIT 11 FLAG 1           NOTERBIT
000155:                                                                                                  #  NOTHROTL      078             BIT 12 FLAG 5           NOTHRBIT
000156:                                                                                                  #  NOUPFLAG      024             BIT 6  FLAG 1           NOUPFBIT
000157:                                                                                                  #  NRMNVFLG      067             BIT 8  FLAG 4           NRMNVBIT
000158:                                                                                                  #  NRMIDFLG      062             BIT 13 FLAG 4           NRMIDBIT
000159:                                                                                                  #  NRUPTFLG      071             BIT 4  FLAG 4           NRUPTBIT
000160:                                                                                                  #  NTARGFLG      102             BIT 3  FLAG 6           NTARGBIT
000161:                                                                                                  #  NWAITFLG      065             BIT 10 FLAG 4           NWAITBIT
000162:                                                                                                  #  ORBWFLAG      054             BIT 6  FLAG 3           ORBWFBIT
000163:                                                                                                  #  ORDERSW       129             BIT 6  FLAG 8           ORDERBIT
000164:                                                                                                  #  OURRCFLG      198             BIT 12 FLAG 13          OURRCBIT
000165:                                                                                                  #  PDSPFLAG      063             BIT 12 FLAG 4           PDSPFBIT
000166:                                                                                                  #  PFRATFLG      041             BIT 4  FLAG 2           PFRATBIT
000167:                                                                                                  #  PINBRFLG      069             BIT 6  FLAG 4           PINBRBIT
000168:                                                                                                  #  POOHFLAG      045             BIT 15 FLAG 3           POOHBIT
000169:                                                                                                  #  PRECIFLG      052             BIT 8  FLAG 3           PRECIBIT
000170:                                                                                                  #  PRIODFLG      061             BIT 14 FLAG 4           PRIODBIT
000171:                                                                                                  #  PRONVFLG      068             BIT 7  FLAG 4           PRONVBIT
000172:                                                                                                  #  PSTHIGAT      169             BIT 11 FLAG 11          PSTHIBIT
000173:                                                                                                  #  PULSEFLG      195             BIT 15 FLAG 13          PULSES
000174:                                                                                                  #  P21FLAG       004             BIT 11 FLAG 0           P21FLBIT
000175:                                                                                                  #  P25FLAG       006             BIT 9  FLAG 0           P25FLBIT


000177:                                                                                                  #  P66PROFL      014D            BIT 1 FLAG 0            P66PROBT
000178:                                                                                                  #  P7071FLG      137             BIT 13 FLAG 9           P7071BIT
000179:                                                                                                  #  QUITFLAG      145             BIT 5  FLAG 9           QUITBIT
000180:                                                                                                  #  RADMODES                      FLGWRD12
000181:                                                                                                  #  RASFLAG                       FLGWRD10
000182:                                                                                                  #  RCDUFAIL      188             BIT 7  FLAG 12          RCDUFBIT
000183:                                                                                                  #  RCDU0FLG      182             BIT 13 FLAG 12          RCDU0BIT
000184:                                                                                                  #  REDFLAG       099             BIT 6  FLAG 6           REDFLBIT
000185:                                                                                                  #  REFSMFLG      047             BIT 13 FLAG 3           REFSMBIT
000186:                                                                                                  #  REINTFLG      158             BIT 7  FLAG 10          REINTBIT
000187:                                                                                                  #  REMODFLG      181             BIT 14 FLAG 12          REMODBIT
000188:                                                                                                  #  RENDWFLG      089             BIT 1  FLAG 5           RENDWBIT
000189:                                                                                                  #  REPOSMON      184             BIT 11 FLAG 12          REPOSBIT
000190:                                                                                                  #  RHCSCFLG      203             BIT 7  FLAG 13          RHCSCALE
000191:                                                                                                  #  RNDVZFLG      008             BIT 7  FLAG 0           RNDVZBIT
000192:                                                                                                  #  RNGEDATA      176             BIT 4  FLAG 11          RNGEDBIT
000193:                                                                                                  #  RNGSCFLG      080             BIT 10 FLAG 5           RNGSCBIT
000194:                                                                                                  #  RODFLAG       018             BIT 12 FLAG 1           RODFLBIT
000195:                                                                                                  #  ROTFLAG       144             BIT  6 FLAG 9           ROTFLBIT
000196:                                                                                                  #  RPQFLAG       120             BIT 15 FLAG 8           RPQFLBIT
000197:                                                                                                  #  RRDATAFL      191             BIT 4  FLAG 12          RRDATABT
000198:                                                                                                  #  RRNBSW        009             BIT 6 FLAG 0            RRNBBIT
000199:                                                                                                  #  RRRSFLAG      192             BIT 3  FLAG 12          RRRSBIT
000200:                                                                                                  #  RVSW          111             BIT 9  FLAG 7           RVSWBIT
000201:                                                                                                  #  R04FLAG       051             BIT 9  FLAG 3           R04FLBIT
000202:                                                                                                  #  R10FLAG       013             BIT 2  FLAG 0           R10FLBIT
000203:                                                                                                  #  R61FLAG       020             BIT 10 FLAG 1           R61FLBIT
000204:                                                                                                  #  R77FLAG       079             BIT 11 FLAG 5           R77FLBIT
000205:                                                                                                  #  SERVOVER      043             BIT 10 FLAG 2           SEROVBIT
000206:                                                                                                  #  SLOPESW       027             BIT 3  FLAG 1           SLOPEBIT
000207:                                                                                                  #  SNUFFER       077             BIT 13 FLAG 5           SNUFFBIT
000208:                                                                                                  #  SOLNSW        087             BIT 3  FLAG 5           SOLNSBIT
000209:                                                                                                  #  SRCHOPTN      031             BIT 14 FLAG 2           SRCHOBIT
000210:                                                                                                  #  STATEFLG      055             BIT 5  FLAG 3           STATEBIT
000211:                                                                                                  #  STEERSW       034             BIT 11 FLAG 2           STEERBIT
000212:                                                                                                  #  SURFFLAG      127             BIT 8  FLAG 8           SURFFBIT
000213:                                                                                                  #  SWANDISP      109             BIT 11 FLAG 7           SWANDBIT
000214:                                                                                                  #  S32.1F1       090             BIT 15 FLAG 6           S32BIT1
000215:                                                                                                  #  S32.1F2       092             BIT 14 FLAG 6           S32BIT2
000216:                                                                                                  #  S32.1F3A      092             BIT 13 FLAG 6           S32BIT3A
000217:                                                                                                  #  S32.1F3B      093             BIT 12 FLAG 6           S32BIT3B
000218:                                                                                                  #  TFFSW         119             BIT 1  FLAG 7           TFFSWBIT
000219:                                                                                                  #  TRACKFLG      025             BIT 5  FLAG 1           TRACKBIT
000220:                                                                                                  #  TURNONFL      194             BIT 1  FLAG 12          TURNONBT
000221:                                                                                                  #  ULLAGFLG      204             BIT 6  FLAG 13          ULLAGER
000222:                                                                                                  #  UPDATFLG      023             BIT 7  FLAG 1           UPDATBIT
000223:                                                                                                  #  UPLOCKFL      116             BIT 4  FLAG 7           UPLOCBIT
000224:                                                                                                  #  USEQRFLG      196             BIT 14 FLAG 13          USEQRJTS
000225:                                                                                                  #  VEHUPFLG      022             BIT 8  FLAG 1           VEHUPBIT
000226:                                                                                                  #  VELDATA       173             BIT 7  FLAG 11          VELDABIT


000228:                                                                                                  #  VERIFLAG      117             BIT 3  FLAG 7           VERIFBIT
000229:                                                                                                  #  VFAILFLG      166             BIT 14 FLAG 11          VFAILBIT
000230:                                                                                                  #  VFLAG         050             BIT 10 FLAG 3           VFLAGBIT
000231:                                                                                                  #  VFLSHFLG      178             BIT 2  FLAG 11          VFLSHBIT
000232:                                                                                                  #  VINTFLAG      057             BIT 3  FLAG 3           VINTFBIT
000233:                                                                                                  #  VXINH         168             BIT 12 FLAG 11          VXINHBIT
000234:                                                                                                  #  V37FLAG       114             BIT 6  FLAG 7           V37FLBIT
000235:                                                                                                  #  V67FLAG       112             BIT 8  FLAG 7           V67FLBIT
000236:                                                                                                  #  V82EMFLG      118             BIT 2  FLAG 7           V82EMBIT
000237:                                                                                                  #  XDELVFLG      037             BIT 8  FLAG 2           XDELVBIT
000238:                                                                                                  #  XDSPFLAG      074             BIT 1  FLAG 4           XDSPBIT
000239:                                                                                                  #  XORFLG        171             BIT 9  FLAG 11          XORFLBIT
000240:                                                                                                  #  XOVINFLG      201             BIT 9  FLAG 13          XOVINHIB
000241:                                                                                                  #  ZOOMFLAG      082             BIT 8  FLAG 5           ZOOMBIT
000242:                                                                                                  #  3AXISFLG      084             BIT 6 FLAG 5            3AXISBIT
000243:                                                                                                  #  360SW         134             BIT 1  FLAG 8           360SWBIT
000244:
000245:
000246:
000247:                                                                                                  #           ASSIGNMENT AND DESCRIPTION OF FLAGWORDS
000248:
000249:
000250: 26,2024     0074               FLAGWRD0           =        STATE      +0                         #  (000-014)
000251:
000252:                                                                                                  #  (SET)               (RESET)
000253:
000254:                                                                                                  #                                BIT 15 FLAG 0             (S)
000255: 26,2024                        NEED2FLG           =        000D                                  #  DISPLAY DAP RATES   CHECK BIT 4 OF THIS
000256: 26,2024     4735               NEED2BIT           =        BIT15                                 #  ON FDAI NEEDLES.    WORD FOR DISPLAY
000257:                                                                                                  #                      MODES (1 OR 2).
000258:
000259:                                                                                                  #                                BIT 14 FLAG 0             (S)
000260: 26,2024                        JSWITCH            =        001D                                  #  INTEGRATION OF W    INTEGRATION OF STATE
000261: 26,2024     4736               JSWCHBIT           =        BIT14                                 #  MATRIX              VECTOR
000262:
000263:
000264:                                                                                                  #                                BIT 13 FLAG 0             (S)
000265: 26,2024                        MIDFLAG            =        002D                                  #  INTEGRATION WITH    INTEGRATION WITHOUT
000266:                                                                                                  #  SECONDARY BODY AND  SOLAR PERTURBATIONS
000267: 26,2024     4737               MIDFLBIT           =        BIT13                                 #  SOLAR PERTURBATIONS
000268:
000269:
000270:                                                                                                  #                                BIT 12 FLAG 0             (L)
000271: 26,2024                        MOONFLAG           =        003D                                  #  MOON IS SPHERE OF   EARTH IS SPHERE OF
000272: 26,2024     4740               MOONBIT            =        BIT12                                 #  INFLUENCE           INFLUENCE
000273:
000274:
000275:                                                                                                  #                                BIT 11 FLAG 0
000276: 26,2024                        P21FLAG            =        004D                                  #  USE BASE VECTORS    1ST PASS -- CALC-
000277: 26,2024     4741               P21FLBIT           =        BIT11                                 #  ALREADY CALCULATED  ULATE BASE VECTORS


000279:
000280:
000281:                                                                                                  #                                BIT 10 FLAG 0
000282: 26,2024                        FSPASFLG           =        005D                                  #  FIRST PASS THROUGH  NOT FIRST PASS THRU
000283: 26,2024     4742               FSPASBIT           =        BIT10                                 #  REPOSITION ROUTINE  REPOSITION ROUTINE
000284:
000285:
000286:                                                                                                  #                                BIT 9 FLAG 0              (S)
000287: 26,2024                        P25FLAG            =        006D                                  #  P25 OPERATING       P25 NOT OPERATING
000288: 26,2024     4743               P25FLBIT           =        BIT9
000289:
000290:
000291:                                                                                                  #                                BIT 8 FLAG 0              (S)
000292: 26,2024                        IMUSE              =        007D                                  #  IMU IN USE          IMU NOT IN USE
000293: 26,2024     4744               IMUSEBIT           =        BIT8
000294:
000295:
000296:                                                                                                  #                                BIT 7 FLAG 0              (S)
000297: 26,2024                        RNDVZFLG           =        008D                                  #  P20 RUNNING (RADAR  P20 NOT RUNNING
000298: 26,2024     4745               RNDVZBIT           =        BIT7                                  #  IN USE)
000299:
000300:
000301:                                                                                                  #                                BIT 6 FLAG 0              (S)
000302: 26,2024                        RRNBSW             =        009D                                  #  RADAR TARGET IN     RADAR TARGET IN
000303: 26,2024     4746               RRNBBIT            =        BIT6                                  #  NB COORDINATES      SM COORDINATES
000304:
000305:
000306:                                                                                                  #                                BIT 5 FLAG 0              (S)
000307: 26,2024                        LOKONSW            =        010D                                  #  RADAR LOCK-ON       RADAR LOCK-ON NOT
000308: 26,2024     4747               LOKONBIT           =        BIT5                                  #  DESIRED             DESIRED
000309:
000310:
000311:                                                                                                  #                                BIT 4 FLAG 0              (S)
000312: 26,2024                        NEEDLFLG           =        011D                                  #  TOTAL ATTITUDE      A/P FOLLOWING
000313: 26,2024     4750               NEEDLBIT           =        BIT4                                  #  ERROR DISPLAYED     ERROR DISPLAYED
000314:
000315:
000316:                                                                                                  #                                BIT 3 FLAG 0
000317: 26,2024                        FREEFLAG           =        012D                                  #  (USED BY P51-53 TEMP IN MANY DIFFERENT
000318:                                                                                                  #  ROUTINES & BY LUNAR + SOLAR EPHEMERIDES)
000319: 26,2024     4751               FREEFBIT           =        BIT3
000320:
000321:
000322:                                                                                                  #                                BIT 2 FLAG 0


000328: 26,2024                        R10FLAG            =        013                                   #  LATVEL DISPLAYED    LATVEL AND FORVEL
000329: 26,2024     4752               R10FLBIT           =        BIT2                                  #  IN INERTIAL AXES.   DISPLAYED IN LM
000330:                                                                                                  #  FORVEL ZERO.        BODY AXES (ROUGHLY).
000331:
000332:
000333:


000335: 26,2024                        P66PROFL           =        014D                                  #  CONTINUE P66        STOP P66
000336: 26,2024     4753               P66PROBT           =        BIT1                                  #  HORIZONTAL          HORIZONTAL VEL
000337:                                                                                                  #  VELOCITY NULLING    NULLING
000338:
000339:
000340: 26,2024     0075               FLAGWRD1           =        STATE      +1                         #  (015-029)
000341:
000342:                                                                                                  #  (SET)               (RESET)
000343:
000344:                                                                                                  #                                BIT 15 FLAG 1             (S)
000345: 26,2024                        NJETSFLG           =        015D                                  #  TWO JET RCS BURN    FOUR JET RCS BURN
000346: 26,2024     4735               NJETSBIT           =        BIT15
000347:
000348:
000349:                                                                                                  #                                BIT 14 FLAG 1             (L)
000350: 26,2024                        DIDFLAG            =        016D                                  #  INERTIAL DATA IS    PERFORM DATA DISPLAY
000351: 26,2024     4736               DIDFLBIT           =        BIT14                                 #  AVAILABLE           INITIALIZATION FUNCS
000352:
000353:
000354:                                                                                                  #                                BIT 13 FLAG 1             (S)
000355: 26,2024                        ERADFLAG           =        017D                                  #  COMPUTE REARTH      USE CONSTANT REARTH
000356: 26,2024     4737               ERADFBIT           =        BIT13                                 #  FISCHER ELLIPSOID   PAD RADIUS
000357:
000358:
000359:                                                                                                  #                                BIT12 FLAG 1
000360: 26,2024                        RODFLAG            =        018D                                  #  IF IN P66, NORMAL   IF IN P66, RE-INIT-
000361: 26,2024     4740               RODFLBIT           =        BIT12                                 #  OPERATION CONTINUES. IALIZATION IS PER-
000362:                                                                                                  #  RESTART CLEARS FLAG  FORMED AND FLAG IS
000363:
000364:
000365:                                                                                                  #                                BIT 11 FLAG 1
000366: 26,2024                        NOTERFLG           =        019D                                  #  TERRAIN MODEL       TERRAIN MODEL
000367: 26,2024     4741               NOTERBIT           =        BIT11                                 #  INHIBITED           PERMITTED
000368:
000369:
000370:                                                                                                  #                                BIT 10 FLAG 1             (L)
000371: 26,2024                        R61FLAG            =        020D                                  #  RUN R61 LEM         RUN R65 LEM
000372: 26,2024     4742               R61FLBIT           =        BIT10
000373:
000374:
000375:                                                                                                  #                                BIT 9 FLAG 1
000376: 26,2024                        ALW66FLG           =        021D                                  #  P66 SELECTION       P66 CANNOT BE
000377: 26,2024     4743               ALW66BIT           =        BIT9                                  #  ALLOWED NOW         SELECTED NOW
000378:
000379:
000380:                                                                                                  #                                BIT 8 FLAG 1              (S)
000381: 26,2024                        VEHUPFLG           =        022D                                  #  CSM STATE VECTOR    LEM STATE VECTOR
000382: 26,2024     4744               VEHUPBIT           =        BIT8                                  #  BEING UPDATED       BEING UPDATED
000383:
000384:


000386:                                                                                                  #                                BIT 7 FLAG 1              (S)
000387: 26,2024                        UPDATFLG           =        023D                                  #  UPDATING BY MARKS   UPDATING BY MARKS
000388: 26,2024     4745               UPDATBIT           =        BIT7                                  #  ALLOWED             NOT ALLOWED
000389:
000390:
000391:                                                                                                  #                                BIT 6 FLAG 1              (S)
000392: 26,2024                        NOUPFLAG           =        024D                                  #  NEITHER CSM         EITHER STATE
000393:                                                                                                  #  NOR LM STATE VECTOR VECTOR MAY BE
000394: 26,2024     4746               NOUPFBIT           =        BIT6                                  #  MAY BE UPDATED      UPDATED
000395:
000396:
000397:                                                                                                  #                                BIT 5 FLAG 1              (S)
000398: 26,2024                        TRACKFLG           =        025D                                  #  TRACKING ALLOWED    TRACKING NOT ALLOWED
000399: 26,2024     4747               TRACKBIT           =        BIT5
000400:
000401:
000402:                                                                                                  #                                BIT 4 FLAG 1
000403:                                                                                                  #                =               026D
000404:                                                                                                  #                =               BIT4
000405:
000406:
000407:                                                                                                  #                                BIT 3 FLAG 1              (S)
000408: 26,2024                        SLOPESW            =        027D                                  #  ITERATE WITH BIAS   ITERATE WITH REGULAR
000409:                                                                                                  #  METHOD IN ITERATOR  FALSI METHOD IN
000410: 26,2024     4751               SLOPEBIT           =        BIT3                                  #                      ITERATOR
000411:
000412:
000413:                                                                                                  #                                BIT 2 FLAG 1              (S)
000414: 26,2024                        GUESSW             =        028D                                  #  NO STARTING VALUE   STARTING VALUE FOR
000415: 26,2024     4752               GUESSBIT           =        BIT2                                  #  FOR ITERATION       ITERATION EXISTS
000416:
000417:
000418:                                                                                                  #                                BIT 1 FLAG 1
000419:                                                                                                  #                =               029D
000420:
000421:
000422: 26,2024     0076               FLAGWRD2           =        STATE      +2                         #  (030-044)
000423:
000424:                                                                                                  #  (SET)               (RESET)
000425:
000426:                                                                                                  #                                BIT 15 FLAG 2             (S)
000427: 26,2024                        DRIFTFLG           =        030D                                  #  T3RUPT CALLS GYRO   T3RUPT DOES NO GYRO
000428: 26,2024     4735               DRFTBIT            =        BIT15                                 #  COMPENSATION        COMPENSATION
000429:
000430:
000431:                                                                                                  #                                BIT 14 FLAG 2             (S)
000432: 26,2024                        SRCHOPTN           =        031D                                  #  RADAR IN AUTOMATIC  RADAR NOT IN AUTO-
000433: 26,2024     4736               SRCHOBIT           =        BIT14                                 #  SEARCH OPTION(R24)  MATIC SEARCH OPTION
000434:
000435:


000437:                                                                                                  #                                BIT 13 FLAG 2             (S)
000438: 26,2024                        ACMODFLG           =        032D                                  #  MANUAL ACQUISITION  AUTO ACQUISITION
000439: 26,2024     4737               ACMODBIT           =        BIT13                                 #  BY RENDESVOUS RADAR BY RENDESVOUS RADAR
000440:
000441:
000442:                                                                                                  #                                BIT 12 FLAG 2             (S)
000443: 26,2024                        LOSCMFLG           =        033D                                  #  LINE OF SIGHT BEING LINE OF SIGHT NOT
000444:                                                                                                  #  COMPUTED (R21)      BEING COMPUTED
000445: 26,2024     4740               LOSCMBIT           =        BIT12
000446:
000447:
000448:                                                                                                  #                                BIT 11 FLAG 2             (S)
000449: 26,2024                        STEERSW            =        034D                                  #  SUFFICIENT THRUST   INSUFFICIENT THRUST
000450: 26,2024     4741               STEERBIT           =        BIT11                                 #  IS PRESENT          IS PRESENT
000451:
000452:
000453:                                                                                                  #                                BIT 10 FLAG 2             (S)
000454: 26,2024                        SERVOVER           =        35D                                   #  GUIDANCE PORTION    SERVICER PORTION
000455:                                                                                                  #  OF SERVICER JOB     OF SERVICER JOB
000456: 26,2024     4742               SEROVBIT           =        BIT10                                 #  IS IN PROGRESS      IS IN PROGRESS
000457:
000458:
000459:                                                                                                  #                                BIT 9 FLAG 2              (S)
000460: 26,2024                        IMPULSW            =        036D                                  #  MINIMUM IMPULSE     STEERING BURN (NO
000461:                                                                                                  #  BURN (CUTOFF TIME   CUTOFF TIME YET
000462: 26,2024     4743               IMPULBIT           =        BIT9                                  #  SPECIFIED)          AVAILABLE)
000463:
000464:
000465:                                                                                                  #                                BIT 8 FLAG 2              (S)
000466: 26,2024                        XDELVFLG           =        037D                                  #  EXTERNAL DELTAV VG  LAMBERT (AIMPOINT)
000467: 26,2024     4744               XDELVBIT           =        BIT8                                  #  COMPUTATION         VG COMPUTATION
000468:
000469:
000470:                                                                                                  #                                BIT 7 FLAG 2              (S)
000471: 26,2024                        ETPIFLAG           =        038D                                  #  ELEVATION ANGLE     TPI TIME SUPPLIED
000472:                                                                                                  #  SUPPLIED FOR        FOR P34,74 TO COMPUT
000473: 26,2024     4745               ETPIBIT            =        BIT7                                  #  P34,74              ELEVATION
000474:
000475:
000476:                                                                                                  #                                BIT 6 FLAG 2              (S)
000477: 26,2024                        FINALFLG           =        039D                                  #  LAST PASS THROUGH   INTERIM PASS THROUGH
000478:                                                                                                  #  RENDEZVOUS PROGRAM  RENDEZVOUS PROGRAM
000479: 26,2024     4746               FINALBIT           =        BIT6                                  #  COMPUTATIONS        COMPUTATIONS
000480:
000481:
000482:                                                                                                  #                                BIT 5 FLAG 2              (S)
000483: 26,2024                        AVFLAG             =        040D                                  #  LEM IS ACTIVE       CSM IS ACTIVE
000484: 26,2024     4747               AVFLBIT            =        BIT5                                  #  VEHICLE             VEHICLE
000485:
000486:


000488:                                                                                                  #                                BIT 4 FLAG 2              (S)
000489: 26,2024                        PFRATFLG           =        041D                                  #  PREFERRED ATTITUDE  PREFERRED ATTITUDE
000490: 26,2024     4750               PFRATBIT           =        BIT4                                  #  COMPUTED            NOT COMPUTED
000491:
000492:
000493:                                                                                                  #                                BIT 3 FLAG 2              (S)
000494: 26,2024                        CALCMAN3           =        042D                                  #  NO FINAL ROLL       FINAL ROLL IS
000495: 26,2024     4751               CALC3BIT           =        BIT3                                  #                      NECESSARY
000496:
000497:
000498:                                                                                                  #                                BIT 2 FLAG 2              (S)
000499: 26,2024                        CALCMAN2           =        043D                                  #  PERFORM MANEUVER    BYPASS STARTING
000500: 26,2024     4752               CALC2BIT           =        BIT2                                  #  STARTING PROCEDURE  PROCEDURE
000501:
000502:
000503:                                                                                                  #                                BIT 1 FLAG 2              (S)
000504: 26,2024                        NODOFLAG           =        044D                                  #  V37 NOT PERMITTED   V37 PERMITTED
000505: 26,2024     4753               NODOBIT            =        BIT1
000506:
000507:
000508: 26,2024     0077               FLAGWRD3           =        STATE      +3                         #  (045-059)
000509:
000510:                                                                                                  #  (SET)               (RESET)
000511:
000512:                                                                                                  #                                BIT 15 FLAG 3
000513: 26,2024                        POOHFLAG           =        045D                                  #  INHIBIT BACKWARDS   ALLOW BACKWARDS
000514: 26,2024     4735               POOHBIT            =        BIT15                                 #  INTEGRATION         INTEGRATION
000515:
000516:
000517:                                                                                                  #                                BIT 14 FLAG 3             (S)
000518: 26,2024                        GLOKFAIL           =        046D                                  #  GIMBAL LOCK HAS     NOT IN GIMBAL LOCK
000519: 26,2024     4736               GLOKFBIT           =        BIT14                                 #  OCCURRED
000520:
000521:                                                                                                  #                                BIT 13 FLAG 3             *** PROTECTED FROM FRESH START ***
000522: 26,2024                        REFSMFLG           =        047D                                  #  REFSMMAT GOOD       REFSMMAT NO GOOD
000523: 26,2024     4737               REFSMBIT           =        BIT13
000524:
000525:
000526:                                                                                                  #                                BIT 12 FLAG 3             (S)
000527: 26,2024                        LUNAFLAG           =        048D                                  #  LUNAR LAT-LONG      EARTH LAT-LONG
000528: 26,2024     4740               LUNABIT            =        BIT12
000529:
000530:
000531:                                                                                                  #                                BIT 11 FLAG 3             (L)
000532: 26,2024                        NODOP07            =        049D                                  #  SYSTEM TESTS        SYSTEM TESTS
000533: 26,2024     4741               NOP07BIT           =        BIT11                                 #  NOT ALLOWED         ALLOWED
000534:
000535:
000536:                                                                                                  #                                BIT 10 FLAG 3             (S)


000538: 26,2024                        VFLAG              =        050D                                  #  LESS THAN TWO STARS TWO STARS IN FIELD
000539: 26,2024     4742               VFLAGBIT           =        BIT10                                 #  IN FIELD OF VIEW    OF VIEW
000540:
000541:
000542:                                                                                                  #                                BIT 9 FLAG 3              (S)
000543: 26,2024                        R04FLAG            =        051D                                  #  R04 RUNNING         R04 NOT RUNNING
000544: 26,2024     4743               R04FLBIT           =        BIT9
000545:
000546:
000547:                                                                                                  #                                BIT 8 FLAG 3              (S)
000548: 26,2024                        PRECIFLG           =        052D                                  #  NORMAL INTEGRATION  ENGAGES 4-TIME STEP
000549:                                                                                                  #  IN POO              (POO) LOGIC IN INTE-
000550: 26,2024     4744               PRECIBIT           =        BIT8                                  #                      GRATION
000551:
000552:
000553:                                                                                                  #                                BIT 7 FLAG 3              (S)
000554: 26,2024                        CULTFLAG           =        053D                                  #  STAR OCCULTED       STAR NOT OCCULTED
000555: 26,2024     4745               CULTBIT            =        BIT7
000556:
000557:
000558:                                                                                                  #                                BIT 6 FLAG 3              (S)
000559: 26,2024                        ORBWFLAG           =        054D                                  #  W MATRIX VALID FOR  W MATRIX INVALID FOR
000560: 26,2024     4746               ORBWFBIT           =        BIT6                                  #  ORBITAL NAVIGATION  ORBITAL NAVIGATION
000561:
000562:
000563:                                                                                                  #                                BIT 5 FLAG 3              (S)
000564: 26,2024                        STATEFLG           =        055D                                  #  PERMANENT STATE     PERMANENT STATE
000565: 26,2024     4747               STATEBIT           =        BIT5                                  #  VECTOR UPDATED      VECTOR NOT UPDATED
000566:
000567:
000568:                                                                                                  #                                BIT 4 FLAG 3              (S)
000569: 26,2024                        INTYPFLG           =        056D                                  #  CONIC INTEGRATION   ENCKE INTEGRATION
000570: 26,2024     4750               INTYPBIT           =        BIT4
000571:
000572:
000573:                                                                                                  #                                BIT 3 FLAG 3              (S)
000574: 26,2024                        VINTFLAG           =        057D                                  #  CSM STATE VECTOR    LEM STATE VECTOR
000575: 26,2024     4751               VINTFBIT           =        BIT3                                  #  BEING INTEGRATED    BEING INTEGRATED
000576:
000577:
000578:                                                                                                  #                                BIT 2 FLAG 3              (S)
000579: 26,2024                        D6OR9FLG           =        058D                                  #  DIMENSION OF W IS 9 DIMENSION OF W IS 6
000580: 26,2024     4752               D6OR9BIT           =        BIT2                                  #  FOR INTEGRATION     FOR INTEGRATION
000581:
000582:
000583:                                                                                                  #                                BIT 1 FLAG 3              (S)
000584: 26,2024                        DIM0FLAG           =        059D                                  #  W MATRIX IS TO BE   W MATRIX IS NOT TO
000585: 26,2024     4753               DIM0BIT            =        BIT1                                  #  USED                BE USED
000586:
000587:


000589: 26,2024     0100               FLAGWRD4           =        STATE      +4                         #  (060-074)
000590:
000591:                                                                                                  #  (SET)               (RESET)
000592:
000593:                                                                                                  #                                BIT 15 FLAG 4             (S)
000594: 26,2024                        MRKIDFLG           =        060D                                  #  MARK DISPLAY IN     NO MARK DISPLAY IN
000595: 26,2024     4735               MRKIDBIT           =        BIT15                                 #  ENDIDLE             ENDIDLE
000596:
000597:
000598:                                                                                                  #                                BIT 14 FLAG 4             (S)
000599: 26,2024                        PRIODFLG           =        061D                                  #  PRIORITY DISPLAY IN NO PRIORITY DISPLAY
000600: 26,2024     4736               PRIODBIT           =        BIT14                                 #  ENDIDLE             IN ENDIDLE
000601:
000602:
000603:                                                                                                  #                                BIT 13 FLAG 4             (S)
000604: 26,2024                        NRMIDFLG           =        062D                                  #  NORMAL DISPLAY IN   NO NORMAL DISPLAY
000605: 26,2024     4737               NRMIDBIT           =        BIT13                                 #  ENDIDLE             IN ENDIDLE
000606:
000607:
000608:                                                                                                  #                                BIT 12 FLAG 4             (S)
000609: 26,2024                        PDSPFLAG           =        063D                                  #  P20 SETS SO AS TO   LEAVE AS NORMAL DISP
000610:                                                                                                  #  TURN A NORMAL DIS-
000611: 26,2024     4740               PDSPFBIT           =        BIT12                                 #  PLAY INTO A PRIORITY
000612:                                                                                                  #  DISPLAY IN R60
000613:
000614:
000615:                                                                                                  #                                BIT 11 FLAG 4             (S)
000616: 26,2024                        MWAITFLG           =        064D                                  #  HIGHER PRIORITY     NO HIGHER PRIORITY
000617:                                                                                                  #  DISPLAY OPERATING   DISPLAY OPERATING
000618: 26,2024     4741               MWAITBIT           =        BIT11                                 #  WHEN MARK DISPLAY   WHEN MARK DISPLAY
000619:                                                                                                  #  INITIATED           INITIATED
000620:
000621:                                                                                                  #                                BIT 10 FLAG 4             (S)
000622: 26,2024                        NWAITFLG           =        065D                                  #  HIGHER PRIORITY     NO HIGHER PRIORITY
000623:                                                                                                  #  DISPLAY OPERATING   DISPLAY OPERATING
000624: 26,2024     4742               NWAITBIT           =        BIT10                                 #  WHEN NORMAL         WHEN NORMAL DISPLAY
000625:                                                                                                  #  DISPLAY INITIATED   INITIATED
000626:
000627:                                                                                                  #                                BIT 9 FLAG 4              (S)
000628: 26,2024                        MRKNVFLG           =        066D                                  #  ASTRONAUT USING     ASTRONAUT NOT USING
000629:                                                                                                  #  KEYBOARD WHEN MARK  KEYBOARD WHEN MARK
000630: 26,2024     4743               MRKNVBIT           =        BIT9                                  #  DISPLAY INITIATED   DISPLAY INITIATED
000631:
000632:
000633:                                                                                                  #                                BIT 8 FLAG 4              (S)
000634: 26,2024                        NRMNVFLG           =        067D                                  #  ASTRONAUT USING     ASTRONAUT NOT USING
000635:                                                                                                  #  KEYBOARD WHEN       KEYBOARD WHEN
000636: 26,2024     4744               NRMNVBIT           =        BIT8                                  #  NORMAL DISPLAY      NORMAL DISPLAY
000637:                                                                                                  #  INITIATED           INITIATED
000638:


000640:                                                                                                  #                                BIT 7 FLAG 4              (S)
000641: 26,2024                        PRONVFLG           =        068D                                  #  ASTRONAUT USING     ASTRONAUT NOT USING
000642:                                                                                                  #  KEYBOARD WHEN       KEYBOARD WHEN
000643: 26,2024     4745               PRONVBIT           =        BIT7                                  #  PRIORITY DISPLAY    PRIORITY DISPLAY
000644:                                                                                                  #  INITIATED           INITIATED
000645:
000646:                                                                                                  #                                BIT 6 FLAG 4              (S)
000647: 26,2024                        PINBRFLG           =        069D                                  #  ASTRONAUT HAS       ASTRONAUT HAS NOT
000648:                                                                                                  #  INTERFERED WITH     INTERFERED WITH
000649: 26,2024     4746               PINBRBIT           =        BIT6                                  #  EXISTING DISPLAY    EXISTING DISPLAY
000650:
000651:
000652:                                                                                                  #                                BIT 5 FLAG 4              (S)
000653: 26,2024                        MRUPTFLG           =        070D                                  #  MARK DISPLAY        MARK DISPLAY NOT
000654:                                                                                                  #  INTERRUPTED BY      INTERRUPTED BY
000655: 26,2024     4747               MRUPTBIT           =        BIT5                                  #  PRIORITY DISPLAY    PRIORITY DISPLAY
000656:
000657:
000658:                                                                                                  #                                BIT 4 FLAG 4              (S)
000659: 26,2024                        NRUPTFLG           =        071D                                  #  NORMAL DISPLAY      NORMAL DISPLAY NOT
000660:                                                                                                  #  INTERRUPTED BY      INTERRUPTED BY
000661: 26,2024     4750               NRUPTBIT           =        BIT4                                  #  PRIORITY OR MARK    PRIORITY OR MARK
000662:                                                                                                  #  DISPLAY             DISPLAY
000663:
000664:                                                                                                  #                                BIT 3 FLAG 4              (S)
000665: 26,2024                        MKOVFLAG           =        072D                                  #  MARK DISPLAY OVER   NO MARK DISPLAY OVER
000666: 26,2024     4751               MKOVBIT            =        BIT3                                  #  NORMAL              NORMAL
000667:
000668:                                                                                                  #                                BIT 2 FLAG 4
000669:                                                                                                  #                =               073D
000670:
000671:
000672:
000673:                                                                                                  #                                BIT 1 FLAG 4              (S)
000674: 26,2024                        XDSPFLAG           =        074D                                  #  MARK DISPLAY NOT    NO SPECIAL MARK
000675: 26,2024     4753               XDSPBIT            =        BIT1                                  #  TO BE INTERRUPTED   INFORMATION
000676:
000677:
000678: 26,2024     0101               FLAGWRD5           =        STATE      +5                         #  (075-089)
000679:                                                                                                  #  (SET)               (RESET)
000680:
000681:                                                                                                  #                                BIT 15 FLAG 5             (S)
000682: 26,2024                        DSKYFLAG           =        075D                                  #  DISPLAYS SENT TO    NO DISPLAYS TO DSKY
000683: 26,2024     4735               DSKYFBIT           =        BIT15                                 #  DSKY
000684:
000685:
000686:                                                                                                  #                                BIT 14 FLAG 5
000687:                                                                                                  #                =               076D
000688:                                                                                                  #                =               BIT14


000690:
000691:
000692:                                                                                                  #                                BIT 13 FLAG 5             (S,L)
000693: 26,2024                        SNUFFER            =        077D                                  #  U,V JETS DISABLED   U,V JETS ENABLED
000694:                                                                                                  #  DURING DPS          DURING DPS
000695: 26,2024     4737               SNUFFBIT           =        BIT13                                 #  BURNS (V65)         BURNS (V75)
000696:
000697:
000698:                                                                                                  #                                BIT 12 FLAG 5             (S)
000699: 26,2024                        NOTHROTL           =        078D                                  #  INHIBIT FULL        PERMIT FULL THROTTLE
000700: 26,2024     4740               NOTHRBIT           =        BIT12                                 #  THROTTLE
000701:
000702:
000703:                                                                                                  #                                BIT 11 FLAG 5             (S,L)
000704: 26,2024                        R77FLAG            =        079D                                  #  R77 IS ON,          R77 IS NOT ON.
000705:                                                                                                  #  SUPPRESS ALL RADAR
000706:                                                                                                  #  ALARMS AND TRACKER
000707: 26,2024     4741               R77FLBIT           =        BIT11                                 #  FAILS
000708:
000709:
000710:                                                                                                  #                                BIT 10 FLAG 5             (S)
000711: 26,2024                        RNGSCFLG           =        080D                                  #  SCALE CHANGE HAS    NO SCALE CHANGE HAS
000712:                                                                                                  #  OCCURRED DURING     OCCURRED DURING
000713: 26,2024     4742               RNGSCBIT           =        BIT10                                 #  RR READING          RR READING
000714:
000715:
000716:                                                                                                  #                                BIT 9 FLAG 5              (S)
000717: 26,2024                        DMENFLG            =        081D                                  #  DIMENSION OF W IS 9 DIMENSION OF W IS 6
000718: 26,2024     4743               DMENFBIT           =        BIT9                                  #  FOR INCORPORATION   FOR INCORPORATION
000719:
000720:
000721:                                                                                                  #                                BIT 8 FLAG 5              (S)
000722: 26,2024                        ZOOMFLAG           =        082D                                  #  THROTTLE-UP HAS     THROTTLE-UP HAS NOT
000723: 26,2024     4744               ZOOMBIT            =        BIT8                                  #  OCCURRED IN P63.    YET OCCURRED IN P63.
000724:
000725:
000726:                                                                                                  #                                BIT 7 FLAG 5              (S)
000727: 26,2024                        ENGONFLG           =        083D                                  #  ENGINE TURNED ON    ENGINE TURNED OFF
000728: 26,2024     4745               ENGONBIT           =        BIT7
000729:
000730:
000731:                                                                                                  #                                BIT 6 FLAG 5              (S)
000732: 26,2024                        3AXISFLG           =        084D                                  #  MANEUVER SPECIFIED  MANEUVER SPECIFIED
000733:                                                                                                  #  BY THREE AXES       BY ONE AXIS; R60
000734: 26,2024     4746               3AXISBIT           =        BIT6                                  #                      CALLS VECPOINT.
000735:
000736:
000737:                                                                                                  #                                BIT 5 FLAG 5
000738: 26,2024                        AORBSFLG           =        085D                                  #  PREFER PAXIS JET    PREFER PAXIS JET
000739: 26,2024     4747               AORBSYST           =        BIT5                                  #  PAIRS 7,15 AND 8,16  PAIRS 4,12 AND 3,11


000741:
000742:
000743:                                                                                                  #                                BIT 4 FLAG 5              (S)
000744: 26,2024                        NORRMON            =        086D                                  #  BYPASS RR GIMBAL    PERFORM
000745: 26,2024     4750               NORRMBIT           =        BIT4                                  #  MONITOR             RR GIMBAL MONITOR
000746:
000747:
000748:                                                                                                  #                                BIT 3 FLAG 5              (S)
000749: 26,2024                        SOLNSW             =        087D                                  #  LAMBERT DOES NOT    LAMBERT CONVERGES OR
000750:                                                                                                  #  CONVERGE,OR TIME-RADTIME-RADIUS NON
000751: 26,2024     4751               SOLNSBIT           =        BIT3                                  #  NEARLY CIRCULAR     CIRCULAR
000752:
000753:
000754:                                                                                                  #                                BIT 2 FLAG 5              (S)
000755: 26,2024                        MGLVFLAG           =        088D                                  #  LOCAL VERTICAL      MIDDLE GIMBAL ANGLE
000756:                                                                                                  #  COORDINATES         COMPUTED
000757: 26,2024     4752               MGLVFBIT           =        BIT2                                  #  COMPUTED
000758:
000759:
000760:                                                                                                  #                                BIT 1 FLAG 5              (S)
000761: 26,2024                        RENDWFLG           =        089D                                  #  W MATRIX VALID      W MATRIX INVALID
000762:                                                                                                  #  FOR RENDEZVOUS      FOR RENDEZVOUS
000763: 26,2024     4753               RENDWBIT           =        BIT1                                  #  NAVIGATION          NAVIGATION
000764:
000765:
000766: 26,2024     0102               FLAGWRD6           =        STATE      +6                         #  (090-104)
000767:
000768:                                                                                                  #  (SET)               (RESET)
000769:
000770:                                                                                                  #                                BIT 15 FLAG 6             (S)
000771: 26,2024                        S32.1F1            =        090D                                  #  DELTA V AT CSI TIME  DVT1 LESS THEN MAX
000772: 26,2024     4735               S32BIT1            =        BIT15                                 #  ONE EXCEEDS MAX
000773:
000774:
000775:                                                                                                  #                                BIT 14 FLAG 6             (S)
000776: 26,2024                        S32.1F2            =        091D                                  #  FIRST PASS OF       REITERATION OF
000777: 26,2024     4736               S32BIT2            =        BIT14                                 #  NEWTON ITERATION    NEWTON
000778:
000779:
000780:                                                                                                  #                                BIT 13 FLAG 6 (S)
000781: 26,2024                        S32.1F3A           =        092D                                  #  BIT 13 AND BIT 12 FUNCTION AS AN ORDERED
000782: 26,2024     4737               S32BIT3A           =        BIT13                                 #  PAIR (13,12) INDICATING THE POSSIBLE OC-
000783:                                                                                                  #  CURRANCE OF 2NEWTON ITERATIONS FOR S32.1
000784:                                                                                                  #  IN THE PROGRAM IN THE FOLLOWING ORDER:
000785:                                                                                                  #                                BIT 12 FLAG 6             (0,1) (I.E.BIT 13 RESET,BIT 12 SET)
000786: 26,2024                        S32.1F3B           =        093D                                  #       = FIRST NEWTON ITERATION BEING DONE
000787: 26,2024     4740               S32BIT3B           =        BIT12                                 #  (0,0)= FIRST PASS OF SECOND NEWT.ITERAT.
000788:                                                                                                  #  (1,1)= 50 FT/SEC STAGE OF SEC. NEWT.ITER
000789:                                                                                                  #  (1,0)= REMAINDER OF SECOND NEWTON ITERA.
000790:
000791:


000793:                                                                                                  #                                BIT 11 FLAG 6             (S)
000794:
000795:
000796:                                                                                                  #                                BIT 10 FLAG 6             (S)
000797: 26,2024                        GMBDRVSW           =        095D                                  #  TRIMGIMB OVER       TRIMGIMB NOT OVER
000798: 26,2024     4742               GMBDRBIT           =        BIT10
000799:
000800:
000801:                                                                                                  #                                BIT 9 FLAG 6
000802:                                                                                                  #                =               096D
000803:                                                                                                  #                =               BIT9
000804:
000805:
000806:                                                                                                  #                                BIT 8 FLAG 6              (S)
000807: 26,2024                        MUNFLAG            =        097D                                  #  SERVICER CALLS      SERVICER CALLS
000808: 26,2024     4744               MUNFLBIT           =        BIT8                                  #  MUNRVG              CALCRVG
000809:
000810:
000811:                                                                                                  #                                BIT 7 FLAG 6              (L)
000812: 26,2024                                           =        098D
000813: 26,2024                                           =        BIT7
000814:
000815:
000816:                                                                                                  #                                BIT 6 FLAG 6              (L)
000817: 26,2024                        REDFLAG            =        099D                                  #  LANDING SITE        LANDING SITE
000818:                                                                                                  #  REDESIGNATION       REDESIGNATION NOT
000819: 26,2024     4746               REDFLBIT           =        BIT6                                  #  PERMITTED           PERMITTED
000820:
000821:
000822:                                                                                                  #                                BIT 5 FLAG 6
000823:                                                                                                  #                =               100D
000824:
000825:
000826:                                                                                                  #                                BIT 4 FLAG 6
000827:                                                                                                  #                =               101D
000828:
000829:                                                                                                  #                                BIT 3 FLAG 6              (S)
000830: 26,2024                        NTARGFLG           =        102D                                  #  ASTRONAUT DID       ASTRONAUT DID NOT
000831:                                                                                                  #  OVERWRITE DELTA     OVERWRITE DELTA
000832: 26,2024     4751               NTARGBIT           =        BIT3                                  #  VELOCITY AT TPI     VELOCITY
000833:                                                                                                  #  OR TPM (P34,35)
000834:
000835:                                                                                                  #                                BIT 2 FLAG 6
000836: 26,2024                        AUXFLAG            =        103D                                  #  PROVIDING IDLEFLAG  SERVICER WILL SKIP
000837: 26,2024     4752               AUXFLBIT           =        BIT2                                  #  IS NOT SET, SERV-   DVMON ON ITS NEXT
000838:                                                                                                  #  ICER WILL EXERCISE  PASS EVEN IF THE
000839:                                                                                                  #  DVMON ON ITS NEXT   IDLEFLAG IS NOT SET.
000840:                                                                                                  #  PASS.               IT WILL THEN SET
000841:                                                                                                  #                      AUXFLAG.
000842:


000844:                                                                                                  #                                BIT 1 FLAG 6              (L)
000845: 26,2024                        ATTFLAG            =        104D                                  #  LEM ATTITUDE EXISTS NO LEM ATTITUDE
000846:                                                                                                  #  IN MOON-FIXED       AVAILABLE IN MOON-
000847: 26,2024     4753               ATTFLBIT           =        BIT1                                  #  COORDINATES         FIXED COORDINATES
000848:
000849:
000850: 26,2024     0103               FLAGWRD7           =        STATE      +7                         #  (105-119)
000851:
000852:                                                                                                  #  (SET)               (RESET)
000853:
000854:                                                                                                  #                                BIT 15 FLAG 7             (S)
000855: 26,2024                        ITSWICH            =        105D                                  #  P34;TPI TIME TO BE  TPI HAS BEEN
000856: 26,2024     4735               ITSWBIT            =        BIT15                                 #  COMPUTED            COMPUTED
000857:
000858:
000859:                                                                                                  #                                BIT 14 FLAG 7             (S)
000860: 26,2024                        MANUFLAG           =        106D                                  #  ATTITUDE MANEUVER   NO ATTITUDE MANEUVER
000861:                                                                                                  #  GOING DURING RR     DURING RR SEARCH
000862: 26,2024     4736               MANUFBIT           =        BIT14                                 #  SEARCH
000863:
000864:
000865:                                                                                                  #                                BIT 13 FLAG 7             (S)
000866: 26,2024                        IGNFLAG            =        107D                                  #  TIG HAS ARRIVED     TIG HAS NOT ARRIVED
000867: 26,2024     4737               IGNFLBIT           =        BIT13
000868:
000869:
000870:                                                                                                  #                                BIT 12 FLAG 7             (S)
000871: 26,2024                        ASTNFLAG           =        108D                                  #  ASTRONAUT HAS       ASTRONAUT HAS NOT
000872: 26,2024     4740               ASTNBIT            =        BIT12                                 #  OKAYED IGNITION     OKAYED IGNITION
000873:
000874:
000875:                                                                                                  #                                BIT 11 FLAG 7             (L)
000876: 26,2024                        SWANDISP           =        109D                                  #  LANDING ANALOG      LANDING ANALOG
000877: 26,2024     4741               SWANDBIT           =        BIT11                                 #  DISPLAYS ENABLED    DISPLAYS SUPPRESSED
000878:
000879:
000880:                                                                                                  #                                BIT 10 FLAG 7             (S)
000881: 26,2024                        NORMSW             =        110D                                  #  UNIT NORMAL INPUT   LAMBERT COMPUTES ITS
000882: 26,2024     4742               NORMSBIT           =        BIT10                                 #  TO LAMBERT          OWN UNIT NORMAL
000883:
000884:
000885:                                                                                                  #                                BIT 9 FLAG 7              (S)
000886: 26,2024                        RVSW               =        111D                                  #  DO NOT COMPUTE      COMPUTE FINAL STATE
000887:                                                                                                  #  FINAL STATE VECTOR  VECTOR IN TIME-THETA
000888: 26,2024     4743               RVSWBIT            =        BIT9                                  #  IN TIME-THETA
000889:
000890:
000891:                                                                                                  #                                BIT 8 FLAG 7              (S)
000892: 26,2024                        V67FLAG            =        112D                                  #  ASTRONAUT OVERWRITE  ASTRONAUT DOES NOT
000893:                                                                                                  #  W-MATRIX INITIAL    OVERWRITE W-MATRIX


000895: 26,2024     4744               V67FLBIT           =        BIT8                                  #  VALUES              INITIAL VALUES
000896:
000897:
000898:                                                                                                  #                                BIT 7 FLAG 7              (S)
000899: 26,2024                        IDLEFLAG           =        113D                                  #  NO DV MONITOR       CONNECT DV MONITOR
000900: 26,2024     4745               IDLEFBIT           =        BIT7
000901:
000902:
000903:                                                                                                  #                                BIT 6 FLAG 7              (S)
000904: 26,2024                        V37FLAG            =        114D                                  #  AVERAGEG (SERVICER) AVERAGEG (SERVICER)
000905: 26,2024     4746               V37FLBIT           =        BIT6                                  #  RUNNING             OFF
000906:
000907:
000908:                                                                                                  #                                BIT 5 FLAG 7              (S)
000909: 26,2024                        AVEGFLAG           =        115D                                  #  AVERAGEG (SERVICER) AVERAGEG (SERVICER)
000910: 26,2024     4747               AVEGFBIT           =        BIT5                                  #  DESIRED             NOT DESIRED
000911:
000912:
000913:                                                                                                  #                                BIT 4 FLAG 7              (S)
000914: 26,2024                        UPLOCKFL           =        116D                                  #  K-KBAR-K FAIL       NO K-KBAR-K FAIL
000915: 26,2024     4750               UPLOCBIT           =        BIT4
000916:
000917:
000918:                                                                                                  #                                BIT 3 FLAG 7              (S)
000919: 26,2024                        VERIFLAG           =        117D                                  #  CHANGED WHEN V33E OCCURS AT END OF P27
000920: 26,2024     4751               VERIFBIT           =        BIT3
000921:
000922:
000923:                                                                                                  #                                BIT 2 FLAG 7              (L,C)
000924: 26,2024                        V82EMFLG           =        118D                                  #  MOON VICINITY       EARTH VICINITY
000925: 26,2024     4752               V82EMBIT           =        BIT2
000926:
000927:
000928:                                                                                                  #                                BIT 1 FLAG 7              (S)
000929: 26,2024                        TFFSW              =        119D                                  #  CALCULATE TPERIGEE  CALCULATE TFF
000930: 26,2024     4753               TFFSWBIT           =        BIT1
000931:
000932:
000933: 26,2024     0104               FLAGWRD8           =        STATE      +8D                        #  (120-134)
000934:
000935:                                                                                                  #  (SET)               (RESET)
000936:
000937:                                                                                                  #                                BIT 15 FLAG 8             (S)
000938: 26,2024                        RPQFLAG            =        120D                                  #  RPQ NOT COMPUTED    RPQ COMPUTED
000939:                                                                                                  #  (RPQ = VECTOR BE-
000940: 26,2024     4735               RPQFLBIT           =        BIT15                                 #  TWEEN SECONDARY BODY
000941:                                                                                                  #  AND PRIMARY BODY
000942:
000943:
000944:                                                                                                  #                                BIT 14 FLAG 8


000946:                                                                                                  #                =               121D
000947:                                                                                                  #                =               BIT14
000948:
000949:
000950:                                                                                                  #                                BIT 13 FLAG 8             (S)
000951: 26,2024                        NEWIFLG            =        122D                                  #  FIRST PASS THROUGH  SUCCEEDING ITERATION
000952: 26,2024     4737               NEWIBIT            =        BIT13                                 #  INTEGRATION         OF INTEGRATION
000953:
000954:
000955:                                                                                                  #                                BIT 12 FLAG 8             *** PROTECTED FROM FRESH START ***
000956: 26,2024                        CMOONFLG           =        123D                                  #  PERMANENT CSM STATE PERMANENT CSM STATE
000957: 26,2024     4740               CMOONBIT           =        BIT12                                 #  IN LUNAR SPHERE     IN EARTH SPHERE
000958:
000959:
000960:                                                                                                  #                                BIT 11 FLAG 8             *** PROTECTED FROM FRESH START ***
000961: 26,2024                        LMOONFLG           =        124D                                  #  PERMANENT LM STATE  PERMANENT LM STATE
000962: 26,2024     4741               LMOONBIT           =        BIT11                                 #  IN LUNAR SPHERE     IN EARTH SPHERE
000963:
000964:
000965:                                                                                                  #                                BIT 10 FLAG 8             (L)
000966: 26,2024                        FLUNDISP           =        125D                                  #  CURRENT GUIDANCE    CURRENT GUIDANCE
000967: 26,2024     4742               FLUNDBIT           =        BIT10                                 #  DISPLAYS INHIBITED  DISPLAYS PERMITTED
000968:
000969:
000970:                                                                                                  #                                BIT 9 FLAG 8              (L)
000971:                                                                                                  #                =               126D
000972:                                                                                                  #                =               BIT9
000973:
000974:
000975:                                                                                                  #                                BIT 8 FLAG 8              *** PROTECTED FROM FRESH START ***
000976: 26,2024                        SURFFLAG           =        127D                                  #  LM ON LUNAR SURFACE LM NOT ON LUNAR
000977: 26,2024     4744               SURFFBIT           =        BIT8                                  #                      SURFACE
000978:
000979:
000980:                                                                                                  #                                BIT 7 FLAG 8              (S)
000981: 26,2024                        INFINFLG           =        128D                                  #  NO CONIC SOLUTION   CONIC SOLUTION
000982:                                                                                                  #  (CLOSURE THROUGH    EXISTS
000983: 26,2024     4745               INFINBIT           =        BIT7                                  #  INFINITY REQUIRED)
000984:
000985:
000986:                                                                                                  #                                BIT 6 FLAG 8              (S)
000987: 26,2024                        ORDERSW            =        129D                                  #  ITERATOR USES 2ND   ITERATOR USES 1ST
000988: 26,2024     4746               ORDERBIT           =        BIT6                                  #  ORDER MINIMUM MODE  ORDER STANDARD MODE
000989:
000990:
000991:                                                                                                  #                                BIT 5 FLAG 8              (S)
000992: 26,2024                        APSESW             =        130D                                  #  RDESIRED OUTSIDE    RDESIRED INSIDE
000993:                                                                                                  #  PERICENTER-APOCENTERPERICENTER-APOCENTER
000994: 26,2024     4747               APSESBIT           =        BIT5                                  #  RANGE IN TIME-RADI  RANGE IN TIME-RADIUS
000995:
000996:


000998:                                                                                                  #                                BIT 4 FLAG 8              (S)
000999: 26,2024                        COGAFLAG           =        131D                                  #  NO CONIC SOLUTION - CONIC SOLUTION
001000:                                                                                                  #  TOO CLOSE TO RECTI- EXISTS(COGA DOES NOT
001001: 26,2024     4750               COGAFBIT           =        BIT4                                  #  LINEAR(COGA OVRFLWS) OVERFLOW)
001002:
001003:
001004:                                                                                                  #                                BIT 3 FLAG 8
001005:                                                                                                  #                =               132D
001006:
001007:                                                                                                  #                                BIT 2 FLAG 8              (L)
001008: 26,2024                        INITALGN           =        133D                                  #  INITIAL PASS THRU    SECOND PASS THRU P57
001009: 26,2024     4752               INITABIT           =        BIT2                                  #  P57                 (CHECK RESET-MILLARD)
001010:
001011:
001012:                                                                                                  #                                BIT 1 FLAG 8              (S)
001013: 26,2024                        360SW              =        134D                                  #  TRANSFER ANGLE NEAR TRANSFER ANGLE NOT
001014: 26,2024     4753               360SWBIT           =        BIT1                                  #  360 DEGREES         NEAR 360 DEGREES
001015:
001016:
001017: 26,2024     0105               FLAGWRD9           =        STATE      +9D                        #  (135 - 149)
001018:
001019:                                                                                                  #  (SET)               (RESET)
001020:
001021:
001022:                                                                                                  #                                BIT 15 FLAG 9
001023:                                                                                                  #                =               135D
001024:                                                                                                  #                =               BIT15
001025:
001026:                                                                                                  #                                BIT 14 FLAG 9             (L)
001027: 26,2024                        FLVR               =        136D                                  #  VERTICAL RISE       NON-VERTICAL RISE
001028: 26,2024     4736               FLVRBIT            =        BIT14                                 #  (ASCENT GUIDANCE)
001029:
001030:
001031:                                                                                                  #                                BIT 13 FLAG 9
001032: 26,2024                        P7071FLG           =        137D                                  #  P70 OR P71 IS USING  P12 IS USING THE
001033: 26,2024     4737               P7071BIT           =        BIT13                                 #  ASCENT GUID. EQS.   ASCENT GUID. EQS.
001034:
001035:
001036:                                                                                                  #                                BIT 12 FLAG 9             (L)
001037: 26,2024                        FLPC               =        138D                                  #  NO POSITION CONTROL  POSITION CONTROL
001038: 26,2024     4740               FLPCBIT            =        BIT12                                 #  (ASCENT GUIDANCE)
001039:
001040:
001041:                                                                                                  #                                BIT 11 FLAG 9             (L)
001042: 26,2024                        FLPI               =        139D                                  #  PRE-IGNITION PHASE  REGULAR GUIDANCE
001043: 26,2024     4741               FLPIBIT            =        BIT11                                 #  (ASCENT GUIDANCE)
001044:
001045:
001046:                                                                                                  #                                BIT 10 FLAG 9             (L)
001047: 26,2024                        FLRCS              =        140D                                  #  RCS INJECTION MODE  MAIN ENGINE MODE


001049: 26,2024     4742               FLRCSBIT           =        BIT10                                 #  (ASCENT GUIDANCE)
001050:
001051:
001052:                                                                                                  #                                BIT 9 FLAG 9              (L)
001053: 26,2024                        LETABORT           =        141D                                  #  ABORT PROGRAMS      ABORT PROGRAMS
001054: 26,2024     4743               LETABBIT           =        BIT9                                  #  ARE ENABLED         ARE NOT ENABLED
001055:
001056:
001057:                                                                                                  #                                BIT 8 FLAG 9              (L)
001058: 26,2024                        FLAP               =        142D                                  #  APS CONTINUED ABORT  APS ABORT IS NOT A
001059:                                                                                                  #  AFTER DPS STAGING   CONTINUATION
001060: 26,2024     4744               FLAPBIT            =        BIT8                                  #  (ASCENT GUIDANCE)
001061:
001062:
001063:                                                                                                  #                                BIT 7 FLAG 9              (L)
001064: 26,2024                        ABTTGFLG           =        143D                                  #  J2,K2 PARAMETERS    J1,K1 PARAMETERS
001065: 26,2024     4745               ABTTGBIT           =        BIT7                                  #  USED FOR ABORT      USED FOR ABORT
001066:                                                                                                  #  TARGETING           TARGETING
001067:
001068:                                                                                                  #                                BIT 6 FLAG 9              (L)
001069: 26,2024                        ROTFLAG            =        144D                                  #  P70 AND P71 WILL    P70 AND P71 WILL NOT
001070: 26,2024     4746               ROTFLBIT           =        BIT6                                  #  FORCE VEHICLE       FORCE VEHICLE
001071:                                                                                                  #  ROTATION IN THE     ROTATION IN THE
001072:                                                                                                  #  PREFERRED DIRECTION. PREFERRED DIRECTION
001073:
001074:                                                                                                  #                                BIT 5 FLAG 9              (S)
001075: 26,2024                        QUITFLAG           =        145D                                  #  DISCONTINUE INTEGR. CONTINUE INTEGRATION
001076: 26,2024     4747               QUITBIT            =        BIT5
001077:
001078:
001079:                                                                                                  #                                BIT 4 FLAG 9
001080:                                                                                                  #                =               146D
001081:                                                                                                  #                =               BIT4
001082:
001083:
001084:                                                                                                  #                                BIT 3 FLAG 9              (L)
001085: 26,2024                        MID1FLAG           =        147D                                  #  INTEGRATE TO TDEC   INTEGRATE TO THE
001086: 26,2024     4751               MID1FBIT           =        BIT3                                  #                      THEN-PRESENT TIME
001087:
001088:
001089:                                                                                                  #                                BIT 2 FLAG 9              (L)
001090: 26,2024                        MIDAVFLG           =        148D                                  #  INTEGRATION ENTERED INTEGRATION WAS
001091:                                                                                                  #  FROM ONE OF MIDTOAV NOT ENTERED VIA
001092: 26,2024     4752               MIDAVBIT           =        BIT2                                  #  PORTALS             MIDTOAV
001093:
001094:                                                                                                  #                                BIT 1 FLAG 9              (S)
001095: 26,2024                        AVEMIDSW           =        149D                                  #  AVETOMID CALLING    NO AVETOMID W INTEGR
001096:                                                                                                  #  FOR W.MATRIX INTEGR ALLOW SET UP RN,VN,
001097: 26,2024     4753               AVEMDBIT           =        BIT1                                  #  DONT WRITE OVER RN, PIPTIME
001098:                                                                                                  #  VN,PIPTIME


001100:
001101:
001102: 26,2024     0106               RASFLAG            EQUALS   FLGWRD10                              #  WAS ONLY AN INSTALL- ERASTALL FLAG
001103:
001104:
001105: 26,2024     0106               FLGWRD10           =        STATE      +10D                       #  (150 - 164)
001106:
001107:                                                                                                  #  (SET)               (RESET)
001108:
001109:                                                                                                  #                                BIT 15 FLAG 10
001110:                                                                                                  #                =               150D
001111:
001112:
001113:                                                                                                  #                                BIT 14 FLAG 10            (L,C)
001114: 26,2024                        INTFLAG            =        151D                                  #  INTEGRATION IN      INTEGRATION NOT IN
001115: 26,2024     4736               INTFLBIT           =        BIT14                                 #  PROGRESS            PROGRESS
001116:
001117:
001118:                                                                                                  #                                BIT 13 FLAG 10            (S,L)
001119: 26,2024                        APSFLAG            =        152D                                  #  ASCENT STAGE        DESCENT STAGE
001120: 26,2024     4737               APSFLBIT           =        BIT13                                 #  ***PROTECTED FROM FRESH START ***
001121:
001122:
001123:                                                                                                  #                                BIT 12 FLAG 10
001124:                                                                                                  #                =               153D
001125:
001126:
001127:                                                                                                  #                                BIT 11 FLAG 10
001128:                                                                                                  #                =               154D
001129:
001130:
001131:                                                                                                  #                                BIT 10 FLAG 10
001132:                                                                                                  #                =               155D
001133:
001134:
001135:                                                                                                  #                                BIT  9 FLAG 10
001136:                                                                                                  #                =               156D
001137:
001138:
001139:                                                                                                  #                                BIT  8 FLAG 10
001140:                                                                                                  #                =               157D
001141:
001142:
001143:                                                                                                  #                                BIT 7 FLAG 10             (L,C)
001144: 26,2024                        REINTFLG           =        158D                                  #  INTEGRATION ROUTINE INTEGRATION ROUTINE
001145: 26,2024     4745               REINTBIT           =        BIT7                                  #  TO BE RESTARTED     NOT TO BE RESTARTED
001146:
001147:
001148:                                                                                                  #                                BIT  6 FLAG 10
001149:                                                                                                  #                =               159D


001151:
001152:
001153:                                                                                                  #                                BIT  5 FLAG 10
001154:                                                                                                  #                =               160D
001155:
001156:
001157:                                                                                                  #                                BIT  4 FLAG 10
001158:                                                                                                  #                =               161D
001159:
001160:
001161:                                                                                                  #                                BIT  3 FLAG 10
001162:                                                                                                  #                =               162D
001163:
001164:
001165:                                                                                                  #                                BIT  2 FLAG 10
001166:                                                                                                  #                =               163D
001167:
001168:
001169:                                                                                                  #                                BIT 1 FLAG 10
001170:                                                                                                  #                =               164D
001171:
001172:
001173:
001174:
001175:
001176: 26,2024     0107               FLGWRD11           =        STATE      +11D                       #  (165 - 179)
001177:
001178:                                                                                                  #  (SET)               (RESET)
001179:
001180:                                                                                                  #                                BIT 15 FLAG 11            (L)(R12)
001181: 26,2024                        LRBYPASS           =        165D                                  #  BYPASS ALL LANDING  DO NOT BYPASS LR
001182: 26,2024     4735               LRBYBIT            =        BIT15                                 #  RADAR UPDATES       UPDATES
001183:
001184:
001185:                                                                                                  #                                BIT 14 FLAG 11
001186: 26,2024                        VFAILFLG           =        166D                                  #  LANDING RADAR VEL   LANDING RADAR VEL
001187: 26,2024     4736               VFAILBIT           =        BIT14                                 #  FAILED REAS TEST    PASS REAS TEST
001188:
001189:
001190:                                                                                                  #                                BIT 13 FLAG 11
001191: 26,2024                        HFAILFLG           =        167D                                  #  LANDING RADAR ALT   LANDING RADAR VEL
001192: 26,2024     4737               HFAILBIT           =        BIT13                                 #  FAILED REAS TEST    PASS REAS TEST
001193:
001194:
001195:                                                                                                  #                                BIT 12 FLAG 11            (L)(R12)
001196: 26,2024                        VXINH              =        168D                                  #  IF Z VELOCITY DATA  UPDATE X AXIS
001197:                                                                                                  #  UNREASONABLE,       VELOCITY
001198: 26,2024     4740               VXINHBIT           =        BIT12                                 #  BYPASS X VELOCITY
001199:                                                                                                  #  UPDATE ON NEXT PASS
001200:


001202:                                                                                                  #                                BIT 11 FLAG 11            (L)(R12)
001203: 26,2024                        PSTHIGAT           =        169D                                  #  PAST HIGATE         PREHIGATE
001204: 26,2024     4741               PSTHIBIT           =        BIT11
001205:
001206:
001207:                                                                                                  #                                BIT 10 FLAG 11            (L)(R12)
001208: 26,2024                        NOLRREAD           =        170D                                  #  LANDING RADAR       LR NOT REPOSITIONING
001209:                                                                                                  #  REPOSITIONING;
001210: 26,2024     4742               NOLRRBIT           =        BIT10                                 #  BYPASS UPDATE
001211:
001212:
001213:                                                                                                  #                                BIT 9 FLAG 11             (L)(R12)
001214: 26,2024                        XORFLG             =        171D                                  #  BELOW LIMIT         ABOVE LIMIT DO
001215:                                                                                                  #  INHIBIT X AXIS      NOT INHIBIT
001216: 26,2024     4743               XORFLBIT           =        BIT9                                  #  OVERRIDE
001217:
001218:
001219:                                                                                                  #                                BIT 8 FLAG 11
001220: 26,2024                        LRINH              =        172D                                  #  LANDING RADAR UP-   LR UPDATES INHIBITED
001221: 26,2024     4744               LRINHBIT           =        BIT8                                  #  DATES PERMITTED     BY ASTRONAUT
001222:                                                                                                  #  BY ASTRONAUT
001223:
001224:
001225:                                                                                                  #                                BIT 7 FLAG 11             (L)(R12)
001226: 26,2024                        VELDATA            =        173D                                  #  LR VELOCITY         LR VELOCITY MEASURE
001227: 26,2024     4745               VELDABIT           =        BIT7                                  #  MEASUREMENT MADE    NOT MADE
001228:
001229:
001230:                                                                                                  #                                BIT 6 FLAG 11
001231:                                                                                                  #                =               174D
001232:                                                                                                  #                =               BIT6
001233:
001234:
001235:                                                                                                  #                                BIT 5 FLAG 11
001236:                                                                                                  #                =               175D
001237:                                                                                                  #                =               BIT5
001238:
001239:
001240:                                                                                                  #                                BIT 4 FLAG 11             (L)(R12)
001241: 26,2024                        RNGEDATA           =        176D                                  #  LR ALTITUDE         LR ALTITUDE MEASURE
001242: 26,2024     4750               RNGEDBIT           =        BIT4                                  #  MEASUREMENT MADE    NOT MADE
001243:
001244:
001245:                                                                                                  #                                BIT 3 FLAG 11
001246:                                                                                                  #                =               177D
001247:                                                                                                  #                =               BIT3
001248:
001249:
001250:
001251:                                                                                                  #                                BIT 2 FLAG 11             (L)(R12)


001253: 26,2024                        VFLSHFLG           =        178D                                  #  LR VELOCITY FAIL    LR VEL FAIL LAMP
001254: 26,2024     4752               VFLSHBIT           =        BIT2                                  #  LAMP SHOULD BE      SHOULDN'T FLASH
001255:                                                                                                  #  FLASHING
001256:
001257:
001258:                                                                                                  #                                BIT 1 FLAG 11             (L)(R12)
001259: 26,2024                        HFLSHFLG           =        179D                                  #  LR ALTITUDE FAIL    LR ALTITUDE FAIL
001260: 26,2024     4753               HFLSHBIT           =        BIT1                                  #  LAMP SHOULD BE      LAMP SHOULD NOT BE
001261:                                                                                                  #  FLASHING            FLASHING
001262:
001263:
001264: 26,2024     0110               RADMODES           EQUALS   FLGWRD12                              #  RADAR FLAG WORD
001265:
001266:
001267: 26,2024     0110               FLGWRD12           =        STATE      +12D                       #  (180 - 194)     WAS RADMODES
001268:
001269:                                                                                                  #  (SET)               (RESET)
001270:
001271:                                                                                                  #                                BIT 15 FLAG 12
001272: 26,2024                        CDESFLAG           =        180D                                  #  CONTINUOUS DESIG-   LGC CHECKS FOR LOCK-
001273: 26,2024     4735               CDESBIT            =        BIT15                                 #  NATE. LGC COMMANDS  ON WHEN ANTENNA
001274:                                                                                                  #  RR REGARDLESS OF    BEING DESIGNATED
001275:                                                                                                  #  LOCK-ON
001276:
001277:
001278:                                                                                                  #                                BIT 14 FLAG 12
001279: 26,2024                        REMODFLG           =        181D                                  #  CHANGE IN ANTENNA   NO REMODE REQUESTED
001280: 26,2024     4736               REMODBIT           =        BIT14                                 #  MODE BEEN REQUESTED OR OCCURRING
001281:                                                                                                  #  I.E., REMODE
001282:
001283:
001284:                                                                                                  #                                BIT 13 FLAG 12
001285: 26,2024                        RCDU0FLG           =        182D                                  #  RR CDU'S BEING      RR CDU'S NOT BEING
001286: 26,2024     4737               RCDU0BIT           =        BIT13                                 #  ZEROED              ZEROED
001287:
001288:
001289:                                                                                                  #                                BIT 12 FLAG 12
001290: 26,2024                        ANTENFLG           =        183D                                  #  RR ANTENNA MODE IS  RR ANTENNA IN MODE 1
001291: 26,2024     4740               ANTENBIT           =        BIT12                                 #  MODE 2
001292:
001293:
001294:                                                                                                  #                                BIT 11 FLAG 12
001295: 26,2024                        REPOSMON           =        184D                                  #  REPOSITION MONITOR. NO REPOSITION TAKING
001296: 26,2024     4741               REPOSBIT           =        BIT11                                 #  RR REPOSITION IS    PLACE
001297:                                                                                                  #  TAKING PLACE
001298:
001299:
001300:                                                                                                  #                                BIT 10 FLAG 12
001301: 26,2024                        DESIGFLG           =        185D                                  #  RR DESIGNATE        RR DESIGNATE NOT
001302: 26,2024     4742               DESIGBIT           =        BIT10                                 #  REQUESTED OR IN     REQUESTED OR IN


001304:                                                                                                  #  PROGRESS            PROGRESS
001305:
001306:
001307:                                                                                                  #                                BIT 9 FLAG 12
001308: 26,2024                        ALTSCALE           =        186D                                  #  LR ALTITUDE READING LR ALTITUDE READING
001309: 26,2024     4743               ALTSCBIT           =        BIT9                                  #  IS ON HIGH SCALE    IS ON LOW SCALE
001310:
001311:
001312:                                                                                                  #                                BIT 8 FLAG 12
001313: 26,2024                        LRVELFLG           =        187D                                  #  LR VELOCITY DATA    NO LR VELOCITY DATA
001314: 26,2024     4744               LRVELBIT           =        BIT8                                  #  FAIL                FAIL
001315:
001316:
001317:                                                                                                  #                                BIT 7 FLAG 12
001318: 26,2024                        RCDUFAIL           =        188D                                  #  RR CDU FAIL HAS     RR CDU FAIL OCCURRED
001319: 26,2024     4745               RCDUFBIT           =        BIT7                                  #  NOT OCCURRED
001320:
001321:
001322:                                                                                                  #                                BIT 6 FLAG 12
001323: 26,2024                        LRPOSFLG           =        189D                                  #  LANDING RADAR       LR POSITION 1
001324: 26,2024     4746               LRPOSBIT           =        BIT6                                  #  POSITION 2
001325:
001326:
001327:                                                                                                  #                                BIT 5 FLAG 12
001328: 26,2024                        LRALTFLG           =        190D                                  #  LR ALTITUDE DATA    NO LR ALTITUDE DATA
001329: 26,2024     4747               LRALTBIT           =        BIT5                                  #  FAIL. COULD NOT BE  FAIL
001330:                                                                                                  #  READ SUCCESSFULLY.
001331:
001332:
001333:                                                                                                  #                                BIT 4 FLAG 12
001334: 26,2024                        RRDATAFL           =        191D                                  #  RR DATA FAIL.       NO RR DATA FAIL.
001335: 26,2024     4750               RRDATABT           =        BIT4                                  #  DATA COULD NOT BE
001336:                                                                                                  #  READ SUCCESSFULLY
001337:
001338:
001339:                                                                                                  #                                BIT 3 FLAG 12
001340: 26,2024                        RRRSFLAG           =        192D                                  #  RR RANGE READING    RR RANGE READING ON
001341: 26,2024     4751               RRRSBIT            =        BIT3                                  #  ON THE HIGH SCALE   THE LOW SCALE
001342:
001343:
001344:                                                                                                  #                                BIT 2 FLAG 12
001345: 26,2024                        AUTOMODE           =        193D                                  #  RR NOT IN AUTO MODE. RR IN AUTO MODE
001346: 26,2024     4752               AUTOMBIT           =        BIT2                                  #  AUTO MODE DISCRETE
001347:                                                                                                  #  IS NOT PRESENT
001348:
001349:
001350:                                                                                                  #                                BIT 1 FLAG 12
001351: 26,2024                        TURNONFL           =        194D                                  #  RR TURN-ON SEQUENCE NO RR TURN-ON
001352: 26,2024     4753               TURNONBT           =        BIT1                                  #  IN PROGRESS. (ZERO  SEQUENCE IN PROGRESS
001353:                                                                                                  #  CDU'S, FIX ANTENNA


001355:                                                                                                  #  MODE)
001356:
001357:
001358: 26,2024     0111               DAPBOOLS           EQUALS   FLGWRD13                              #  DIGITAL AUTOPILOT FLAGWORD
001359:
001360:
001361: 26,2024     0111               FLGWRD13           =        STATE      +13D                       #  (195 - 209)     WAS DAPBOOLS
001362:
001363:                                                                                                  #  (SET)               (RESET)
001364:
001365:                                                                                                  #                                BIT 15 FLAG 13
001366: 26,2024                        PULSEFLG           =        195D                                  #  MINIMUM IMPULSE     NOT IN MINIMUM
001367: 26,2024     4735               PULSES             =        BIT15                                 #  COMMAND MODE IN     IMPULSE COMMAND MODE
001368:                                                                                                  #  "ATT HOLD" (V76)    (V77)
001369:
001370:
001371:                                                                                                  #                                BIT 14 FLAG 13
001372: 26,2024                        USEQRFLG           =        196D                                  #  GIMBAL UNUSABLE.    TRIM GIMBAL MAY BE
001373: 26,2024     4736               USEQRJTS           =        BIT14                                 #  USE JETS ONLY.      USED.
001374:
001375:
001376:                                                                                                  #                                BIT 13 FLAG 13
001377: 26,2024                        CSMDKFLG           =        197D                                  #  CSM DOCKED. USE     CSM NOT DOCKED TO LM
001378: 26,2024     4737               CSMDOCKD           =        BIT13                                 #  BACKUP DAP
001379:
001380:
001381:                                                                                                  #                                BIT 12 FLAG 13
001382: 26,2024                        OURRCFLG           =        198D                                  #  CURRENT DAP PASS    CURRENT DAP PASS IS
001383: 26,2024     4740               OURRCBIT           =        BIT12                                 #  IS RATE COMMAND     NOT RATE COMMAND
001384:
001385:
001386:                                                                                                  #                                BIT 11 FLAG 13
001387: 26,2024                        ACC4-2FL           =        199D                                  #  4 JET X-AXIS TRANS- 2 JET X-AXIS TRANS-
001388: 26,2024     4741               ACC4OR2X           =        BIT11                                 #  LATION REQUESTED    LATION REQUESTED
001389:
001390:
001391:                                                                                                  #                                BIT 10 FLAG 13
001392: 26,2024                        AORBTFLG           =        200D                                  #  B SYSTEM FOR X-     A SYSTEM FOR X-
001393: 26,2024     4742               AORBTRAN           =        BIT10                                 #  TRANSLATION         TRANSLATION PREFER'D
001394:
001395:
001396:                                                                                                  #                                BIT 9 FLAG 13
001397: 26,2024                        XOVINFLG           =        201D                                  #  X-AXIS OVERRIDE     X-AXIS OVERRIDE OKAY
001398: 26,2024     4743               XOVINHIB           =        BIT9                                  #  LOCKED OUT
001399:
001400:
001401:                                                                                                  #                                BIT 8 FLAG 13
001402: 26,2024                        DRIFTDFL           =        202D                                  #  ASSUME 0 OFFSET     USE OFFSET ACCELERA-
001403: 26,2024     4744               DRIFTBIT           =        BIT8                                  #  DRIFTING FLIGHT.    TION ESTIMATE
001404:
001405:


001407:                                                                                                  #                                BIT 7 FLAG 13
001408: 26,2024                        RHCSCFLG           =        203D                                  #  NORMAL RHC SCALING  FINE RHC SCALING
001409: 26,2024     4745               RHCSCALE           =        BIT7                                  #  REQUESTED           REQUESTED
001410:
001411:
001412:                                                                                                  #                                BIT 6 FLAG 13
001413: 26,2024                        ULLAGFLG           =        204D                                  #  ULLAGE REQUEST BY   NO INTERNAL ULLAGE
001414: 26,2024     4746               ULLAGER            =        BIT6                                  #  MISSION PROGRAM     REQUEST
001415:
001416:
001417:                                                                                                  #                                BIT 5 FLAG 13
001418: 26,2024                        DBSL2FLG           =        205D                                  #  5 DEG DEADBAND      1 OR .3 DEG DEADBAND
001419: 26,2024     4747               DBSLECT2           =        BIT5                                  #  SELECTED BY CREW    SELECTED BY CREW
001420:                                                                                                  #                      (SEE BIT4 DAPBOOLS)
001421:
001422:
001423:                                                                                                  #                                BIT 4 FLAG 13
001424: 26,2024                        DBSELFLG           =        206D                                  #  1 DEG DEADBAND      MIN DB SELECTED BY
001425: 26,2024     4750               DBSELECT           =        BIT4                                  #  SELECTED BY CREW    CREW (0.3 DEG)
001426:
001427:
001428:                                                                                                  #                                BIT 3 FLAG 13
001429: 26,2024                        ACCOKFLG           =        207D                                  #  CONTROL AUTHORITY   RESTART OR FRESH ST.
001430: 26,2024     4751               ACCSOKAY           =        BIT3                                  #  VALUES FROM 1/ACCS  SINCE LAST 1/ACCS;
001431:                                                                                                  #  USABLE              OUTPUTS SUSPECT.
001432:
001433:
001434:                                                                                                  #                                BIT 2 FLAG 13
001435: 26,2024                        AUTR2FLG           =        208D                                  #  THESE FLAGS ARE USED TOGETHER TO INDICAT
001436: 26,2024     4752               AUTRATE2           =        BIT2                                  #  ASTRONAUT-CHOSEN KALCMANU MANEUVER RATES
001437:                                                                                                  #  (0,0)=(BIT2,BIT1)= 0.2 DEG/SEC
001438:                                                                                                  #  (0,1)=  0.5 DEG/SEC
001439:                                                                                                  #                                BIT 1 FLAG 13
001440: 26,2024                        AUTR1FLG           =        209D                                  #  (1,0)=  2.0 DEG/SEC
001441: 26,2024     4753               AUTRATE1           =        BIT1                                  #  (1,1)= 10.0 DEG/SEC
001442:

End of include-file FLAGWORD_ASSIGNMENTS.agc.  Parent file is MAIN.agc


