
Source Code


000002:                                                                                                  ## Copyright:   Public domain.
000003:                                                                                                  ## Filename:    FRESH_START_AND_RESTART.agc
000004:                                                                                                  ## Purpose:     A log section of Zerlina 56, the final revision of
000005:                                                                                                  ##              Don Eyles's offline development program for the variable
000006:                                                                                                  ##              guidance period servicer. It also includes a new P66 with LPD
000007:                                                                                                  ##              (Landing Point Designator) capability, based on an idea of John
000008:                                                                                                  ##              Young's. Neither of these advanced features were actually flown,
000009:                                                                                                  ##              but Zerlina was also the birthplace of other big improvements to
000010:                                                                                                  ##              Luminary including the terrain model and new (Luminary 1E)
000011:                                                                                                  ##              analog display programs. Zerlina was branched off of Luminary 145,
000012:                                                                                                  ##              and revision 56 includes all changes up to and including Luminary
000013:                                                                                                  ##              183. It is therefore quite close to the Apollo 14 program,
000014:                                                                                                  ##              Luminary 178, where not modified with new features.
000015:                                                                                                  ## Reference:   pp. 218-244
000016:                                                                                                  ## Assembler:   yaYUL
000017:                                                                                                  ## Contact:     Ron Burkey <info@sandroid.org>.
000018:                                                                                                  ## Website:     www.ibiblio.org/apollo/index.html
000019:                                                                                                  ## Mod history: 2017-07-28 MAS  Created from Luminary 210.
000020:                                                                                                  ##              2017-08-19 MAS  Updated for Zerlina 56.
000021:                                                                                                  ##              2017-08-24 MAS  Replaced an incorrect CS with a CA.
000022:                                                                                                  ##              2021-05-30 ABS  CANTROD -> CANTROO
000023:


000025: 10,2000                                           BANK     10
000026: 05,2000                                           SETLOC   FRANDRES
000027: 05,2000                                           BANK
000028:
000029: 05,2464  E3,1400                                  EBANK=   LST1
000030:
000031: 05,2464                                           COUNT*   $$/START                              #  FRESH AND RESTART
000032: 05,2464           00004        SLAP1              INHINT                                         #  FRESH START. COMES HERE FROM PINBALL.
000033: 05,2465           03122                           TC       STARTSUB                              #  SUBROUTINE DOES MOST OF THE WORK.
000034:
000035: 05,2466           12473        STARTSW            TCF      SKIPSIM                               #  PATCH....TCF STARTSIM...FOR SIMULATION
000036: 05,2467           34736        STARTSIM           CAF      BIT14
000037: 05,2470           05105                           TC       FINDVAC
000038: 05,2471           77777        SIM2CADR           OCT      77777                                 #  PATCH 2CADR (AND EBANK DESIGNATION) OF
000039: 05,2472           77777                           OCT      77777                                 #  SIMULATION START ADDRESS.
000040:
000041: 05,2473           31035        SKIPSIM            CA       DSPTAB     +11D
000042: 05,2474           74771                           MASK     BITS4&6                               #  TURN OFF ALL DSPTAB +11D LAMPS
000043: 05,2475           64735                           AD       BIT15                                 #  EXCEPT THE GIMBAL LOCK & NO ATT ONLY ON
000044: 05,2476           55035                           TS       DSPTAB     +11D                       #  REQUESTED FRESH START.
000045:
000046: 05,2477           34755                           CA       ZERO
000047: 05,2500           55365                           TS       ERCOUNT
000048: 05,2501           54375                           TS       FAILREG
000049: 05,2502           54376                           TS       FAILREG    +1
000050: 05,2503           54377                           TS       FAILREG    +2
000051: 05,2504           54320                           TS       REDOCTR
000052:
000053: 05,2505           00006                           EXTEND
000054: 05,2506           01077                           WRITE    CHAN77                                #  ZERO CHANNEL 77
000055:
000056: 05,2507           44644                           CS       PRIO12
000057: 05,2510           55310                           TS       DSRUPTSW
000058:
000059: 05,2511           34736        DOFSTART           CAF      BIT14                                 #  INSURE ENGINE IS OFF.
000060: 05,2512           00006                           EXTEND
000061: 05,2513           01011                           WRITE    DSALMOUT
000062: 05,2514           44755                           CS       ZERO
000063: 05,2515           54055                           TS       THRUST
000064:
000065: 05,2516           34751        DOFSTRT1           CAF      FOUR
000066: 05,2517           55262                           TS       RCSFLAGS                              #  INITIALIZE ATTITUDE ERROR DISPLAYS.
000067: 05,2520           34355                           CA       PRIO30
000068: 05,2521           54366                           TS       RESTREG                               #  SUPER BANK PRIORITY FOR DISPLAYS.
000069:
000070: 05,2522           34755                           CA       ZERO
000071: 05,2523           55247                           TS       ABDELV                                #  DAP INITIALIZATION
000072: 05,2524           54371                           TS       NVSAVE
000073: 05,2525           55071                           TS       EBANKTEM


000075: 05,2526           55257                           TS       CH5MASK
000076: 05,2527           55260                           TS       CH6MASK
000077: 05,2530           55273                           TS       PVALVEST                              #  FOR RCS FAILURE MONITOR
000078: 05,2531           55360                           TS       ERESTORE                              #  ***** MUST NOT BE REMOVED FROM DOFSTART
000079: 05,2532           55362                           TS       SMODE                                 #  ***** MUST NOT BE REMOVED FROM DOFSTART
000080: 05,2533           54333                           TS       DNLSTCOD                              #  SELECT POO DOWNLIST
000081: 05,2534           55321                           TS       AGSWORD                               #  ALLOW AGS INITIALIZATION
000082: 05,2535           55501                           TS       UPSVFLAG                              #  ZERO UPDATE STATE VECTOR REQUEST FLAGWRD
000083: 05,2536           00006                           EXTEND
000084: 05,2537           01005                           WRITE    CHAN5                                 #  TURN OFF RCS JETS.
000085: 05,2540           00006                           EXTEND
000086: 05,2541           01006                           WRITE    CHAN6                                 #  TURN OFF RCS JETS.
000087: 05,2542           00006                           EXTEND
000088: 05,2543           01012                           WRITE    CHAN12
000089: 05,2544           00006                           EXTEND
000090: 05,2545           01013                           WRITE    CHAN13
000091: 05,2546           00006                           EXTEND
000092: 05,2547           01014                           WRITE    CHAN14
000093: 05,2550           41035                           CS       DSPTAB     +11D
000094: 05,2551           74771                           MASK     BITS4&6
000095: 05,2552           10000                           CCS      A
000096: 05,2553           02557                           TC       +4
000097: 05,2554           34771                           CA       BITS4&6
000098: 05,2555           00006                           EXTEND                                         #  THE IMU WAS IN COARSE ALIGN IN GIMBAL
000099: 05,2556           05012                           WOR      CHAN12                                #  LOCK, SO PUT IT BACK INTO COARSE ALIGN.
000100: 05,2557           02657                 +4        TC       MR.KLEAN
000101:
000102: 05,2560           44755                           CS       ZERO
000103: 05,2561           55010                           TS       MODREG
000104:
000105: 05,2562           33374                           CAF      IM30INIF                              #  FRESH START IMU INITIALIZATION.
000106: 05,2563           55277                           TS       IMODES30
000107:
000108: 05,2564           33102                           CAF      MAXDB
000109: 05,2565           55343                           TS       DB
000110: 05,2566           34751                           CAF      FOUR
000111: 05,2567           55322                           TS       RATEINDX                              #  INITIALIZE KALCMANU RATE
000112: 05,2570           33076                           CA       BOOLSTRT
000113: 05,2571           54111                           TS       DAPBOOLS
000114: 05,2572           35015                           CAF      EBANK6
000115: 05,2573           54003                           TS       EBANK
000116: 05,2574  E6,1400                                  EBANK=   HIASCENT
000117:
000118: 05,2574           33074                           CA       STIKSTRT
000119: 05,2575           55444                           TS       STIKSENS
000120: 05,2576           33075                           CA       RATESTRT
000121: 05,2577           55476                           TS       -RATEDB
000122: 05,2600           32000                           CAF      FULLAPS                               #  INITIALIZE MAXIMUM ASCENT MASS FOR USE
000123: 05,2601           55400                           TS       HIASCENT                              #    BY 1/ACCS UNTIL THE PAD LOAD IS DONE.
000124: 05,2602           33077                           CA       77001OCT                              #     LOAD DAP FILTER GAINS PAD LOAD


000126: 05,2603           55403                           TS       DKTRAP                                #     TO BEST PRESENT ESTIMATE OF GOODIES
000127: 05,2604           55406                           TS       LMTRAP                                #  .14 DEG
000128: 05,2605           33100                           CA       60DEC
000129: 05,2606           55405                           TS       DKKAOSN
000130: 05,2607           55410                           TS       LMKAOSN                               #  6 SEC GAIN FOR ALPHA
000131: 05,2610           34755                           CA       ZERO
000132: 05,2611           55407                           TS       LMOMEGAN                              #  UNITY GAIN
000133: 05,2612           34363                           CA       TEN
000134: 05,2613           55404                           TS       DKOMEGAN                              #  1 SEC GAIN FOR OMEGA
000135: 05,2614           34744                           CAF      BIT8                                  #  SET DOCKED DB TO 1.4 DEG.  MAY OVERWRITE
000136: 05,2615           55411                           TS       DKDB                                  #    WITH PAD LOAD.
000137: 05,2616           35026                           CAF      IM33INIT
000138: 05,2617           64746                           AD       BIT6                                  #  KEEP BOTH DAP AND ERROR-NEEDLES DISPLAY
000139: 05,2620           55300                           TS       IMODES33                              #    OFF UNTIL ICDU ZERO IS FINISHED.
000140:
000141: 05,2621           00006                           EXTEND                                         #  INITIALIZE SWITCHES ONLY ON FRESH START.
000142: 05,2622           33401                           DCA      SWINIT
000143: 05,2623           52075                           DXCH     STATE
000144: 05,2624           33402                           CA       SWINIT     +2
000145: 05,2625           54076                           TS       STATE      +2
000146: 05,2626           34737                           CA       REFSMBIT                              #  DO NOT ALTER REFSMFLG ON FRESH START.
000147: 05,2627           64741                           AD       NOP07BIT                              #               NODOP07
000148: 05,2630           70077                           MASK     STATE      +3
000149: 05,2631           63403                           AD       SWINIT     +3
000150: 05,2632           54077                           TS       STATE      +3
000151: 05,2633           00006                           EXTEND
000152: 05,2634           33405                           DCA      SWINIT     +4
000153: 05,2635           52101                           DXCH     STATE      +4
000154: 05,2636           00006                           EXTEND
000155: 05,2637           33407                           DCA      SWINIT     +6
000156: 05,2640           52103                           DXCH     STATE      +6
000157: 05,2641           33073                           CA       OCT6200                               #  CMOONFLG, LMOONFLG, SURFFLAG
000158: 05,2642           70104                           MASK     STATE      +8D
000159: 05,2643           63410                           AD       SWINIT     +8D
000160: 05,2644           54104                           TS       STATE      +8D
000161: 05,2645           33411                           CA       SWINIT     +9D
000162: 05,2646           54105                           TS       STATE      +9D
000163: 05,2647           34737                           CA       APSFLBIT                              #  DO NOT ALTER APSFLAG ON FRESH START.
000164: 05,2650           70106                           MASK     STATE      +10D
000165: 05,2651           63412                           AD       SWINIT     +10D
000166: 05,2652           54106                           TS       STATE      +10D
000167: 05,2653           33413                           CAF      SWINIT     +11D
000168: 05,2654           54107                           TS       STATE      +11D
000169:
000170: 05,2655           04635        ENDRSTRT           TC       POSTJUMP                              #  NOW IN ANOTHER BANK.
000171: 05,2656           03212                           CADR     DUMMYJOB   +2                         #  PICKS UP AT RELINT.   (DONT ZERO NEWJOB)
000172:
000173: 05,2657           00004        MR.KLEAN           INHINT
000174: 05,2660           00006                           EXTEND


000176: 05,2661           34755                           DCA      NEG0
000177: 05,2662           52754                           DXCH     -PHASE2
000178: 05,2663           00006        POOKLEAN           EXTEND
000179: 05,2664           34755                           DCA      NEG0
000180: 05,2665           52760                           DXCH     -PHASE4
000181: 05,2666           00006        V37KLEAN           EXTEND
000182: 05,2667           34755                           DCA      NEG0
000183: 05,2670           52762                           DXCH     -PHASE5
000184: 05,2671           00006        ABTKLEAN           EXTEND
000185: 05,2672           34755                           DCA      NEG0
000186: 05,2673           52756                           DXCH     -PHASE3
000187: 05,2674           00006                           EXTEND
000188: 05,2675           34755                           DCA      NEG0
000189: 05,2676           52752                           DXCH     -PHASE1
000190: 05,2677           00006                           EXTEND
000191: 05,2700           34755                           DCA      NEG0
000192: 05,2701           52764                           DXCH     -PHASE6
000193: 05,2702           00002                           TC       Q
000194:


000196:                                                                                                  #           COMES HERE FROM LOCATION 4000, GOJAM. RESTART ANY PROGRAMS WHICH MAY HAVE BEEN RUNNING AT THE TIME
000197:
000198: 05,2703  E3,1400                                  EBANK=   LST1
000199: 05,2703           24320        GOPROG             INCR     REDOCTR                               #  ADVANCE RESTART COUNTER.
000200:
000201: 05,2704           22002                           LXCH     Q
000202: 05,2705           00006                           EXTEND
000203: 05,2706           04007                           ROR      SUPERBNK
000204: 05,2707           53433                           DXCH     RSBBQ
000205: 05,2710           31035                           CA       DSPTAB     +11D
000206: 05,2711           74750                           MASK     BIT4
000207: 05,2712           00006                           EXTEND
000208: 05,2713           12717                           BZF      +4
000209: 05,2714           64746                           AD       BIT6                                  #  SET ERROR COUNTER ENABLE
000210: 05,2715           00006                           EXTEND
000211: 05,2716           05012                           WOR      CHAN12                                #  ISS WAS IN COARS ALIGN SO GO BACK TO
000212: 05,2717           03103        BUTTONS            TC       LIGHTSET
000213:
000214:                                                                                                  #                                            ERASCHK TEMPORARILY STORES THE CONTENTS OF TWO ERASABLE LOCATIONS, X
000215:                                                                                                  #                                            AND X+1 INTO SKEEP5 AND SKEEP6. IT ALSO STORES X INTO SKEEP7 AND
000216:                                                                                                  #                                            ERESTORE. IF ERASCHK IS INTERRUPTED BY A RESTART, C(ERESTORE) SHOULD
000217:                                                                                                  #                                            EQUAL C(SKEEP7),AND BE A + NUMBER LESS THAN 2000 OCT. OTHERWISE
000218:                                                                                                  #                                            C(ERESTORE) SHOULD EQUAL +0.
000219:
000220: 05,2720           34350                           CAF      HI5
000221: 05,2721           71360                           MASK     ERESTORE
000222: 05,2722           00006                           EXTEND
000223: 05,2723           12725                           BZF      +2                                    #  IF ERESTORE NOT = +0 OR +N LESS THAN 2K,
000224: 05,2724           13120                           TCF      NONAVKEY   +3                         #  DO FRESH START - E MEMORY MIGHT BE BAD
000225: 05,2725           41360                           CS       ERESTORE
000226: 05,2726           00006                           EXTEND
000227: 05,2727           12744                           BZF      DORSTART                              #  = +0 CONTINUE WITH RESTART.
000228: 05,2730           61377                           AD       SKEEP7
000229: 05,2731           00006                           EXTEND
000230: 05,2732           12734                           BZF      +2                                    #  = SKEEP7, RESTORE E MEMORY.
000231: 05,2733           13120                           TCF      NONAVKEY   +3                         #  DO FRESH START - E MEMORY MIGHT BE BAD
000232: 05,2734           31374                           CA       SKEEP4
000233: 05,2735           54003                           TS       EBANK                                 #  EBANK OF E MEMORY THAT WAS UNDER TEST.
000234: 05,2736           00006                           EXTEND                                         #  (NOT DXCH SINCE THIS MIGHT HAPPEN AGAIN)
000235: 05,2737           31376                           DCA      SKEEP5
000236: 05,2740           51377                           INDEX    SKEEP7
000237: 05,2741           52001                           DXCH     0000                                  #  E MEMORY RESTORED.
000238: 05,2742           34755                           CA       ZERO
000239: 05,2743           55360                           TS       ERESTORE
000240: 05,2744           03122        DORSTART           TC       STARTSUB                              #  DO INITIALIZATION AFTER ERASE RESTORE.
000241:
000242: 05,2745           44736        SETINFL            CS       INTFLBIT
000243: 05,2746           70106                           MASK     FLGWRD10
000244: 05,2747           54106                           TS       FLGWRD10


000246: 05,2750           33376                           CA       9,6,4                                 #  LEAVE PROG ALARM,GIMBAL LOCK, NO ATT
000247: 05,2751           71035                           MASK     DSPTAB     +11D                       #  LAMPS INTACT ON HARDWARE RESTART
000248: 05,2752           64735                           AD       BIT15
000249: 05,2753           57035                           XCH      DSPTAB     +11D
000250: 05,2754           33362                           CAF      IFAILINH                              #  LEAVE IMU FAILURE INHIBITS INTACT ON
000251: 05,2755           71277                           MASK     IMODES30                              #  HARDWARE RESTART. RESET ALL FAILURE
000252: 05,2756           63375                           AD       IM30INIR                              #  CODES.
000253: 05,2757           55277                           TS       IMODES30
000254:
000255: 05,2760           31321                           CA       AGSWORD                               #  BE SURE OF CORRECT DOWNLIST
000256: 05,2761           54333                           TS       DNLSTCOD
000257:
000258: 05,2762           34750                           CA       BIT4                                  #  TURN ON THROTTLE COUNTER
000259: 05,2763           00006                           EXTEND
000260: 05,2764           05014                           WOR      CHAN14                                #  TURN ON THRUST DRIVE
000261: 05,2765           40101                           CS       FLAGWRD5
000262: 05,2766           74745                           MASK     ENGONBIT
000263: 05,2767           10000                           CCS      A
000264: 05,2770           12775                           TCF      +5
000265: 05,2771           34737                           CAF      BIT13
000266: 05,2772           00006                           EXTEND
000267: 05,2773           05011                           WOR      DSALMOUT                              #  TURN ENGINE ON
000268: 05,2774           13011                           TCF      GOPROG3
000269: 05,2775           34736                 +5        CAF      BIT14
000270: 05,2776           00006                           EXTEND
000271: 05,2777           05011                           WOR      DSALMOUT                              #  TURN ENGINE OFF.
000272: 05,3000           13011                           TCF      GOPROG3
000273:
000274: 05,3001           00004        ENEMA              INHINT
000275: 05,3002           03131                           TC       STARTSB1
000276: 05,3003           13005                           TCF      GOPROG2A
000277: 05,3004           03174        GOPROG2            TC       STARTSB2
000278: 05,3005           03103        GOPROG2A           TC       LIGHTSET
000279: 05,3006           43101                           CS       RSFLGBTS                              #  BITS 7 AND 14.
000280: 05,3007           70106                           MASK     FLGWRD10
000281: 05,3010           54106                           TS       FLGWRD10
000282:
000283: 05,3011           34756        GOPROG3            CAF      NUMGRPS                               #  VERIFY PHASE TABLE AGREEMENTS
000284: 05,3012           54161        PCLOOP             TS       MPAC       +5
000285: 05,3013           60000                           DOUBLE
000286: 05,3014           00006                           EXTEND
000287: 05,3015           50000                           INDEX    A
000288: 05,3016           30752                           DCA      -PHASE1                               #  COMPLEMENT INTO A, DIRECT INTO L.
000289: 05,3017           00006                           EXTEND
000290: 05,3020           06001                           RXOR     LCHAN                                 #  RESULT MUST BE -0 FOR AGREEMENT.
000291: 05,3021           10000                           CCS      A
000292: 05,3022           13070                           TCF      PTBAD                                 #  RESTART FAILURE.
000293: 05,3023           13070                           TCF      PTBAD
000294: 05,3024           13070                           TCF      PTBAD
000295:


000297: 05,3025           10161                           CCS      MPAC       +5                         #  PROCESS ALL RESTART GROUPS.
000298: 05,3026           13012                           TCF      PCLOOP
000299:
000300: 05,3027           54162                           TS       MPAC       +6                         #  SET TO +0.
000301: 05,3030           05326                           TC       MMDSPLAY                              #  DISPLAY MAJOR MODE
000302:
000303: 05,3031           00004                           INHINT                                         #  RELINT DONE IN MMDSPLAY
000304:
000305: 05,3032           44736                           CS       DIDFLBIT                              #  CLEAR DIDFLAG IN ORDER TO FORCE R10 TO
000306: 05,3033           70075                           MASK     FLAGWRD1                              #  RE-INITIALIZE ITSELF IF IT HAD BEEN
000307: 05,3034           54075                           TS       FLAGWRD1                              #  OPERATING AT THE TIME OF THE RESTART.
000308:
000309: 05,3035           44740                           CS       RODFLBIT                              #  CLEAR RODFLAG.  IF P66 IS IN OPERATION
000310: 05,3036           70075                           MASK     FLAGWRD1                              #       IT WILL RE-INITIALIZE ITSELF AND
000311: 05,3037           54075                           TS       FLAGWRD1                              #       CONTINUE.
000312:
000313: 05,3040           44741                           CS       P21FLBIT                              #  CLEAR P21FLAG SO THAT P21 WILL COMPUTE
000314: 05,3041           70074                           MASK     FLAGWRD0                              #  NEW BASE STATE VECTORS.
000315: 05,3042           54074                           TS       FLAGWRD0
000316:
000317: 05,3043           34756                           CAF      NUMGRPS                               #  SEE IF ANY GROUPS RUNNING.
000318: 05,3044           54161        NXTRST             TS       MPAC       +5
000319: 05,3045           60000                           DOUBLE
000320: 05,3046           50000                           INDEX    A
000321: 05,3047           10752                           CCS      PHASE1
000322: 05,3050           13052                           TCF      PACTIVE                               #  PNZ - GROUP ACTIVE.
000323: 05,3051           13057                           TCF      PINACT                                #  +0 - GROUP NOT RUNNING.
000324:
000325: 05,3052           54154        PACTIVE            TS       MPAC
000326: 05,3053           24154                           INCR     MPAC                                  #  ABS OF PHASE.
000327: 05,3054           24162                           INCR     MPAC       +6                         #  INDICATE GROUP DEMANDS PRESENT.
000328: 05,3055           04616                           TC       BANKCALL
000329: 05,3056           03530                           CADR     RESTARTS
000330: 05,3057           10161        PINACT             CCS      MPAC       +5                         #  PROCESS ALL RESTART GROUPS.
000331: 05,3060           13044                           TCF      NXTRST
000332:
000333: 05,3061           10162                           CCS      MPAC       +6                         #  NO, CHECK PHASE ACTIVITY FLAG
000334: 05,3062           12655                           TCF      ENDRSTRT                              #  PHASE ACTIVE
000335: 05,3063           34735                           CAF      BIT15                                 #  IS MODE -0
000336: 05,3064           71010                           MASK     MODREG
000337: 05,3065           00006                           EXTEND
000338: 05,3066           16001                           BZF      GOTOPOOH                              #  NO
000339: 05,3067           12655                           TCF      ENDRSTRT                              #  YES
000340: 05,3070           05600        PTBAD              TC       ALARM                                 #  SET ALARM TO SHOW PHASE TABLE FAILURE.
000341: 05,3071           01107                           OCT      1107
000342:
000343: 05,3072           12516                           TCF      DOFSTRT1
000344:
000345:                                                                                                  #  ******** ****** ******


000347:                                                                                                  #  DO NOT USE GOPROG2 OR ENEMA WITHOUT CONSULTING POOH PEOPLE
000348:
000349: 05,3073     4737               OCT10000           =        BIT13
000350: 05,3073     4355               OCT30000           =        PRIO30
000351: 05,3073           06200        OCT6200            OCT      6200                                  #  SURFBIT, CMOONBIT, LMOONBIT FOR SWINITS
000352: 05,3074           32321        STIKSTRT           DEC      0.825268                              #  20 D/S MAXIMUM COMMANDED RATE
000353: 05,3075           77445        RATESTRT           DEC      -218       B-14
000354: 05,3076           21322        BOOLSTRT           OCT      21322
000355: 05,3077           77001        77001OCT           OCT      77001                                 #  .14 DEG SCALED AT 4.5 DEG
000356: 05,3100           00074        60DEC              DEC      60         B-14
000357: 05,3101           20100        RSFLGBTS           OCT      20100
000358: 05,3102           03434        MAXDB              OCTAL    03434                                 #  5 DEG ATTITUDE DEADBAND, SCALED AT 45.
000359:
000360: 05,3103           34747        LIGHTSET           CAF      BIT5                                  #  CHECK FOR MARK REJECT AND ERROR RESET
000361: 05,3104           00006                           EXTEND
000362: 05,3105           02016                           RAND     NAVKEYIN
000363: 05,3106           00006                           EXTEND
000364: 05,3107           13115                           BZF      NONAVKEY                              #  NO MARK REJECT
000365: 05,3110           00006                           EXTEND
000366: 05,3111           00015                           READ     MNKEYIN                               #  CHECK IF KEYS 2M AND 5M ON
000367: 05,3112           63373                           AD       -ELR                                  #  MAIN DSKY KEYCODE(BITS 1-5)
000368: 05,3113           00006                           EXTEND
000369: 05,3114           13116                           BZF      +2
000370:
000371: 05,3115           00002        NONAVKEY           TC       Q
000372:
000373: 05,3116           03122                           TC       STARTSUB
000374: 05,3117           12511                           TCF      DOFSTART
000375: 05,3120           03122                 +3        TC       STARTSUB
000376: 05,3121           12516                           TCF      DOFSTRT1                              #  DO FRESH START BUT DON'T TOUCH ENGINE
000377:


000379:                                                                                                  #           INITIALIZATION COMMON TO BOTH FRESH START AND RESTART.
000380:
000381: 05,3122  E6,1536                                  EBANK=   AOSQ
000382: 05,3122           33363        STARTSUB           CAF      LDNPHAS1                              #  SET POINTER SO NEXT 20MS DOWNRUPT WILL
000383: 05,3123           54335                           TS       DNTMGOTO                              #  CAUSE THE CURRENT DOWNLIST TO BE
000384:                                                                                                  #  INTERRUPTED AND START SENDING FROM THE
000385:                                                                                                  #  BEGINNING OF THE CURRENT DOWNLIST.
000386: 05,3124           34746                           CAF      BIT6
000387: 05,3125           00006                           EXTEND
000388: 05,3126           02033                           RAND     CHAN33
000389: 05,3127           63377                           AD       RMODINIT
000390: 05,3130           54110                           TS       RADMODES
000391:
000392: 05,3131           34733        STARTSB1           CAF      POSMAX
000393: 05,3132           54026                           TS       TIME3
000394: 05,3133           67760                           AD       MINUS2
000395: 05,3134           54027                           TS       TIME4
000396: 05,3135           67761                           AD       NEGONE
000397: 05,3136           54030                           TS       TIME5
000398:
000399: 05,3137           35015                           CAF      EBANK6
000400: 05,3140           54003                           TS       EBANK
000401:
000402: 05,3141           44737                           CS       BIT13                                 #  CAUSE DAPIDLER TO CALL 1/ACCS
000403: 05,3142           71262                           MASK     RCSFLAGS
000404: 05,3143           55262                           TS       RCSFLAGS                              #  ZERO BIT 13
000405: 05,3144           34733                           CAF      POSMAX                                #  DISABLE TIME6 CLOCK.  JUST IN CASE A T6
000406: 05,3145           55466                           TS       T6NEXT                                #    RUPT IS ALREADY IN THE PRIORITY CHAIN,
000407: 05,3146           00006                           EXTEND                                         #    ENSURE THAT IT'S INPUTS WILL RENDER IT
000408: 05,3147           03013                           WAND     CHAN13                                #    INEFFECTUAL.
000409: 05,3150           34755                           CAF      ZERO
000410: 05,3151           55465                           TS       NXT6ADR
000411: 05,3152           55472                           TS       NEXTP
000412:
000413: 05,3153           44751                           CS       ACCSOKAY
000414: 05,3154           70111                           MASK     DAPBOOLS
000415: 05,3155           54111                           TS       DAPBOOLS
000416:
000417: 05,3156           00006                           EXTEND                                         #  SET T5RUPT FOR DAPIDLER PROGRAM.
000418: 05,3157           33361                           DCA      IDLEADR
000419: 05,3160           53264                           DXCH     T5ADR
000420:
000421: 05,3161           40107                           CS       FLGWRD11                              #  IF R12 IS PERMITTED, ENSURE THAT NEXT
000422: 05,3162           74735                           MASK     LRBYBIT                               #   RADAR READS ARE NOT USED
000423: 05,3163           00006                           EXTEND
000424: 05,3164           13174                           BZF      STARTSB2                              #  R12 OFF
000425:
000426: 05,3165           24006                           INCR     BBANK                                 #  SET EBANK TO 7
000427: 05,3166  E7,1677                                  EBANK=   STILBADH
000428: 05,3166           11677                           CCS      STILBADH                              #  IF STILBADH>0, NEXT READ WILL BE IGNORED


000430: 05,3167           13171                           TCF      +2
000431: 05,3170           25677                           INCR     STILBADH                              #  SET STILBADH TO IGNORE NEXT READ
000432:
000433: 05,3171           11700                 +2        CCS      STILBADV
000434: 05,3172           13174                           TCF      STARTSB2                              #  IF STILBADV >0,NEXT READ WILL BE IGNORED
000435: 05,3173           25700                           INCR     STILBADV                              #  SET STILBADV TO IGNORE NEXT READ
000436:
000437: 05,3174           33372        STARTSB2           CAF      OCT30001                              #  DURING SOFTWARE RESTART, DO NOT DISTURB
000438: 05,3175           00006                           EXTEND                                         #  ENGINE ON, OFF AND ISS WARNING.
000439: 05,3176           03011                           WAND     DSALMOUT
000440:
000441: 05,3177           43366                           CS       OCT32001
000442: 05,3200           70110                           MASK     RADMODES
000443: 05,3201           54110                           TS       RADMODES
000444: 05,3202           33370                           CAF      OCT27470                              #  DURING SOFTWARE RESTART, DO NOT DISTURB
000445: 05,3203           00006                           EXTEND                                         #  IMU FLAGS. (COURSE ALIGN ENABLE, ZERO
000446: 05,3204           03012                           WAND     CHAN12                                #  IMU CDUS, ENABLE IMU COUNTER) AND GIMBAL
000447:                                                                                                  #  TRIM DRIVES. LEAVE RR LOCKON ENABLE
000448:                                                                                                  #  ALONE.
000449:
000450: 05,3205           44750                           CS       NORRMBIT                              #  ENABLE R25.
000451: 05,3206           70101                           MASK     FLAGWRD5
000452: 05,3207           54101                           TS       FLAGWRD5
000453:
000454: 05,3210           44741                           CS       R77FLBIT                              #  CLEAR R77FLAG
000455: 05,3211           70101                           MASK     FLAGWRD5
000456: 05,3212           54101                           TS       FLAGWRD5
000457: 05,3213           33371                           CAF      OCT74160                              #  DURING SOFTWARE RESTART, DO NOT DUSTURB
000458: 05,3214           00006                           EXTEND                                         #  TELEMETRY FLAGS, RESET TRAP FLAGS, AND
000459: 05,3215           03013                           WAND     CHAN13                                #  ENABLE T6RUPT FLAG.
000460:
000461: 05,3216           34740                           CAF      BIT12                                 #  REENABLE RUPT10 (RUPT QUICKLY
000462: 05,3217           00006                           EXTEND                                         #    RESUMES EXCEPT DURING P64)
000463: 05,3220           05013                           WOR      CHAN13
000464:
000465: 05,3221           34771                           CAF      OCT50                                 #  DURING SOFTWARE RESTART, DO NOT DISTURB
000466: 05,3222           00006                           EXTEND                                         #  GYRO ENABLE OR THRUST ENABLE
000467: 05,3223           03014                           WAND     CHAN14
000468:
000469: 05,3224  E3,1400                                  EBANK=   LST1
000470: 05,3224           35007                           CAF      STARTEB
000471: 05,3225           54003                           TS       EBANK                                 #  SET FOR E3
000472:
000473: 05,3226           34734                           CAF      NEG1/2                                #  INITIALIZE WAITLIST DELTA-TS.
000474: 05,3227           55407                           TS       LST1       +7
000475: 05,3230           55406                           TS       LST1       +6
000476: 05,3231           55405                           TS       LST1       +5
000477: 05,3232           55404                           TS       LST1       +4
000478: 05,3233           55403                           TS       LST1       +3
000479: 05,3234           55402                           TS       LST1       +2


000481: 05,3235           55401                           TS       LST1       +1
000482: 05,3236           55400                           TS       LST1
000483:
000484: 05,3237           45247                           CS       ENDTASK
000485: 05,3240           55410                           TS       LST2
000486: 05,3241           55412                           TS       LST2       +2
000487: 05,3242           55414                           TS       LST2       +4
000488: 05,3243           55416                           TS       LST2       +6
000489: 05,3244           55420                           TS       LST2       +8D
000490: 05,3245           55422                           TS       LST2       +10D
000491: 05,3246           55424                           TS       LST2       +12D
000492: 05,3247           55426                           TS       LST2       +14D
000493: 05,3250           55430                           TS       LST2       +16D
000494: 05,3251           45250                           CS       ENDTASK    +1
000495: 05,3252           55411                           TS       LST2       +1
000496: 05,3253           55413                           TS       LST2       +3
000497: 05,3254           55415                           TS       LST2       +5
000498: 05,3255           55417                           TS       LST2       +7
000499: 05,3256           55421                           TS       LST2       +9D
000500: 05,3257           55423                           TS       LST2       +11D
000501: 05,3260           55425                           TS       LST2       +13D
000502: 05,3261           55427                           TS       LST2       +15D
000503: 05,3262           55431                           TS       LST2       +17D
000504:
000505: 05,3263           44755                           CS       ZERO                                  #  MAKE ALL EXECUTIVE REGISTER SETS
000506: 05,3264           54167                           TS       PRIORITY                              #  AVAILABLE.
000507: 05,3265           54203                           TS       PRIORITY   +12D
000508: 05,3266           54217                           TS       PRIORITY   +24D
000509: 05,3267           54233                           TS       PRIORITY   +36D
000510: 05,3270           54247                           TS       PRIORITY   +48D
000511: 05,3271           54263                           TS       PRIORITY   +60D
000512: 05,3272           54277                           TS       PRIORITY   +72D
000513: 05,3273           54313                           TS       PRIORITY   +84D
000514:
000515: 05,3274           55310                           TS       DSRUPTSW
000516: 05,3275           54067                           TS       NEWJOB                                #  SHOWS NO ACTIVE JOBS.
000517:
000518: 05,3276           33365                           CAF      VAC1ADRC                              #  MAKE ALL VAC AREAS AVAILABLE.
000519: 05,3277           54400                           TS       VAC1USE
000520: 05,3300           63367                           AD       LTHVACA
000521: 05,3301           54454                           TS       VAC2USE
000522: 05,3302           63367                           AD       LTHVACA
000523: 05,3303           54530                           TS       VAC3USE
000524: 05,3304           63367                           AD       LTHVACA
000525: 05,3305           54604                           TS       VAC4USE
000526: 05,3306           63367                           AD       LTHVACA
000527: 05,3307           54660                           TS       VAC5USE
000528:
000529: 05,3310           34363                           CAF      TEN
000530: 05,3311           54154        DSPOFF             TS       MPAC                                  #  R1,R2,R3).


000532: 05,3312           44740                           CS       BIT12
000533: 05,3313           50154                           INDEX    MPAC
000534: 05,3314           55022                           TS       DSPTAB
000535: 05,3315           10154                           CCS      MPAC
000536: 05,3316           13311                           TCF      DSPOFF
000537:
000538: 05,3317           55323                           TS       DELAYLOC
000539: 05,3320           55324                           TS       DELAYLOC   +1
000540: 05,3321           55325                           TS       DELAYLOC   +2
000541: 05,3322           54045                           TS       INLINK
000542: 05,3323           54775                           TS       DSPCNT
000543: 05,3324           55041                           TS       CADRSTOR
000544: 05,3325           55012                           TS       REQRET
000545: 05,3326           55014                           TS       CLPASS
000546: 05,3327           55011                           TS       DSPLOCK
000547: 05,3330           55017                           TS       MONSAVE                               #  KILL MONITOR
000548: 05,3331           55020                           TS       MONSAVE1
000549: 05,3332           55000                           TS       VERBREG
000550: 05,3333           55001                           TS       NOUNREG
000551: 05,3334           55042                           TS       DSPLIST
000552: 05,3335           55307                           TS       MARKSTAT
000553: 05,3336           55043                           TS       EXTVBACT                              #  MAKE EXTENDED VERBS AVAILABLE
000554: 05,3337           55301                           TS       IMUCADR
000555: 05,3340           55302                           TS       OPTCADR
000556: 05,3341           55303                           TS       RADCADR
000557: 05,3342           55304                           TS       ATTCADR
000558: 05,3343           55311                           TS       LGYRO
000559: 05,3344           54100                           TS       FLAGWRD4                              #  KILL INTERFACE DISPLAYS
000560: 05,3345           34760                           CAF      NOUTCON
000561: 05,3346           55015                           TS       NOUT
000562:
000563: 05,3347           34746                           CAF      BIT6
000564: 05,3350           71300                           MASK     IMODES33                              #  LEAVE BIT 6 UNCHANGED
000565: 05,3351           65026                           AD       IM33INIT                              #  NO PIP OR TM FAILS.BIT6=0 IN THIS WORD.
000566: 05,3352           55300                           TS       IMODES33
000567:
000568: 05,3353           33364                           CAF      LESCHK                                #  SELF CHECK GO-TO REGISTER.
000569: 05,3354           55361                           TS       SELFRET
000570:
000571: 05,3355           44360                           CS       VD1
000572: 05,3356           54776                           TS       DSPCOUNT
000573:
000574: 05,3357           00002                           TC       Q
000575: 05,3360  E6,1536                                  EBANK=   AOSQ
000576: 05,3360           02024 34066  IDLEADR            2CADR    DAPIDLER
000577:
000578: 05,3362           00435        IFAILINH           OCT      435
000579: 05,3363           03524        LDNPHAS1           GENADR   DNPHASE1
000580: 05,3364           03335        LESCHK             GENADR   SELFCHK


000582: 05,3365           00400        VAC1ADRC           ADRES    VAC1USE
000583: 05,3366           32001        OCT32001           OCT      32001
000584: 05,3367           00054        LTHVACA            DEC      44         B-14
000585:
000586: 05,3370           27470        OCT27470           OCT      27470
000587: 05,3371           74160        OCT74160           OCT      74160
000588: 05,3372           30001        OCT30001           OCT      30001
000589: 05,3373     5007               STARTEB            EQUALS   EBANK3
000590: 05,3373     4756               NUMGRPS            EQUALS   FIVE
000591: 05,3373           77755        -ELR               OCT      -22                                   #  -ERROR LIGHT RESET KEY CODE.
000592: 05,3374           37411        IM30INIF           OCT      37411                                 #  INHIBITS IMU FAIL FOR 5 SEC AND PIP ISSW
000593: 05,3375           37000        IM30INIR           OCT      37000
000594: 05,3376     5026               IM33INIT           =        PRIO16                                #  NO PIP OR TM FAIL SIGNALS.
000595: 05,3376           00450        9,6,4              OCT      450
000596: 05,3377           00102        RMODINIT           OCT      00102
000597: 05,3400           00000        SWINIT             OCT      0
000598: 05,3401           00000                           OCT      0
000599: 05,3402           00000                           OCT      0
000600: 05,3403           00000                           OCT      0
000601: 05,3404           00000                           OCT      0
000602: 05,3405           00000                           OCT      0
000603: 05,3406           00000                           OCT      0
000604: 05,3407           00100                           OCT      00100
000605:
000606: 05,3410           00000                           OCT      0
000607: 05,3411           00000                           OCT      0
000608: 05,3412           00000                           OCT      0
000609: 05,3413           40000                           OCT      40000                                 #  BIT 15 = LRBYPASS.
000610:


000612:                                                                                                  #  PROGRAM NAME    GOTOPOOH                   ASSEMBLY       SUNDANCE
000613:                                                                                                  #  LOG SECTION     FRESH START AND RESTART
000614:
000615:                                                                                                  #  FUNCTIONAL DESCRIPTION
000616:
000617:                                                                                                  #        FLASH V 37 ON DSKY %MM CHANGE REQUEST "
000618:
000619:                                                                                                  #  INPUT/OUTPUT INFORMATION
000620:
000621:                                                                                                  #        A. CALLING SEQUENCE        TC GOTOPOOH
000622:
000623:                                                                                                  #        B. ERASABLE INITIALIZATION       NONE
000624:
000625:                                                                                                  #        C. OUTPUT FLASH V 37 ON DSKY
000626:
000627:                                                                                                  #        D. DEBRIS       L
000628:
000629:                                                                                                  #  PROGRAM ANALYSIS
000630:
000631:                                                                                                  #        A. SUBROUTINES CALLED PRIODSPR,  LINUS
000632:
000633:                                                                                                  #        B. NORMAL EXIT        TCF ENDOFJOB
000634:
000635:                                                                                                  #        C. ALARM AND ABORT EXITS       NONE
000636:
000637:    6001                                           BLOCK    03
000638:    6000                                           SETLOC   FFTAG5
000639:    6000                                           BANK
000640:
000641:    6001                                           COUNT*   $$/P00
000642:    6001           34764        GOTOPOOH           CAF      OCT33                                 #  4.33 SPOT FOR GOPOOFIX
000643:    6002           54001                           TS       L
000644:    6003           40000                           COM
000645:    6004           52760                           DXCH     -PHASE4
000646:
000647:    6005           04635                           TC       POSTJUMP
000648:    6006           10024                           CADR     GOPOOFIX
000649:    6007           00024        OCT24              MM       20         B-14
000650:    6010           00031        OCT31              MM       25         B-14
000651:
000652: 20,2004                                           BANK     20
000653: 04,2000                                           SETLOC   VERB37
000654: 04,2000                                           BANK
000655:
000656: 04,2024                                           COUNT*   $$/P00                                #  VERB 37 AND P00 IN BANK 4.
000657: 04,2024           05527        GOPOOFIX           TC       DOWNFLAG                              #  ALLOW X-AXIS OVERRIDE
000658: 04,2025           00311                           ADRES    XOVINFLG
000659:
000660: 04,2026           05527                           TC       DOWNFLAG                              #  INSURE THAT ULLAGE IS OFF
000661: 04,2027           00314                           ADRES    ULLAGFLG
000662:


000664: 04,2030           05507                           TC       CLEARMRK   +2                         #  RELEASE MARK DISPLAY SYSTEM.
000665: 04,2031           32037                           CAF      V37N99
000666: 04,2032           04616                           TC       BANKCALL
000667: 04,2033           20477                           CADR     GOFLASH
000668: 04,2034           12031                           TCF      -3
000669: 04,2035           12031                           TCF      -4
000670: 04,2036           12031                           TCF      -5
000671:
000672: 04,2037           11343        V37N99             VN       3799
000673:


000675:                                                                                                  #  PROGRAM NAME    V37                       ASSEMBLY      SUNDANCE
000676:
000677:                                                                                                  #  LOG SECTION     FRESH START AND RESTART
000678:
000679:                                                                                                  #  FUNCTIONAL DESCRIPTION
000680:
000681:                                                                                                  #        1. CHECK IF NEW PROGRAM ALLOWED. IF BIT 1 OF FLAGWRD2(NODOFLAG) IS SET, AN ALARM 1520 IS CALLED.
000682:                                                                                                  #        2. CHECK FOR VALIDITY OF PROGRAM SELECTED. IF AN INVALID PROGRAM  IS SELECTED, THE OPERATOR ERROR LIGHT IS
000683:                                                                                                  #           SET AND CURRENT ACTIVITY, IF ANY, CONTINUES.
000684:                                                                                                  #        3. SERVICER IS TERMINATED IF IT HAS BEEN RUNNING.
000685:                                                                                                  #        4. INSTALL IS EXECUTED TO AVOID INTERRUPTING INTEGRATION.
000686:                                                                                                  #        5. THE ENGINE IS TURNED OFF AND THE DAP IS INITIALIZED FOR COAST.
000687:                                                                                                  #        6. TRACK AND UPDATE FLAGS ARE SET TO ZERO.
000688:                                                                                                  #        7. DISPLAY SYSTEM IS RELEASED.
000689:                                                                                                  #        8. THE FOLLOWING ARE PERFORMED FOR EACH OF THE THREE CASES.
000690:                                                                                                  #           A. PROGRAM SELECTED IS P00.
000691:                                                                                                  #              1. RENDEZVOUS AND P25 FLAGS ARE RESET.(KILL P20 AND P25)
000692:                                                                                                  #              2. STATINT1     IS SCHEDULED BY SETTING RESTART GROUP 2.
000693:                                                                                                  #              3. MAJOR MODE 00 IS STORED IN THE MODE REGISTER(MODREG).
000694:                                                                                                  #              4. SUPERBANK 3 IS SELECTED.
000695:                                                                                                  #              5. NODOFLAG IS RESET.
000696:                                                                                                  #              6. ALL RESTART GROUPS EXCEPT GROUP 2 ARE CLEARED. CONTROL ISTRANSFERRED TO RESTART PROGRAM (GOPROG2)
000697:                                                                                                  #                 WHICH CAUSES ALL CURRENT ACTIVITY TO BE DISCONTINUED AND A 9 MINUTE INTEGRATION CYCLE TO BE
000698:                                                                                                  #                 INITIATED.
000699:                                                                                                  #           B. PROGRAM SELECTED IS P20 OR P25.
000700:                                                                                                  #              1. IF THE CURRENT MAJOR MODE IS THE SAME AS THE SELECTED NEWPROGRAM, THE PROGRAM IS RE-INITIALIZED
000701:                                                                                                  #                 VIA V37XEQ, ALL RESTART GROUPS, EXCEPT GROUP 4 ARE CLEARED.
000702:                                                                                                  #              2. IF THE CURRENT MAJOR MODE IS NOT EQUAL TO THE NEW REQUEST, A CHECK IS MADE TO SEE IF THE REQUEST-
000703:                                                                                                  #                 ED MAJOR MODE HAS BEEN RUNNING IN THE BACKGROUND,
000704:                                                                                                  #                 AND IF IT HAS, NO NEW PROGRAM IS SCHEDULED, THE EXISTING
000705:                                                                                                  #                 P20 OR P25 IS RESTARTED TO CONTINUE, AND ITS M M IS SET.
000706:                                                                                                  #              3. CONTROL IS TRANSFERRED TO GOPROG2.
000707:                                                                                                  #           C. PROGRAM SELECTED IS NEITHER P00,P20, NOR P25
000708:                                                                                                  #              1. V37XEQ IS SCHEDULED (AS A JOB) BY SETTING RESTART GROUP 4
000709:                                                                                                  #              2. ALL CURRENT ACTIVITY EXCEPT RENDEZVOUS AND TRACKING IS DISCONTINUED BY CLEARING ALL RESTART
000710:                                                                                                  #                 GROUPS. IF THE RENDEZVOUS OR THE P25 FLAG IS ON, GROUP 2 IS NOT CLEARED, ALLOWING THESE PROGRAMS
000711:                                                                                                  #                 TO CONTINUE.
000712:
000713:                                                                                                  #  INPUT/OUTPUT INFORMATION
000714:
000715:                                                                                                  #        A. CALLING SEQUENCE
000716:
000717:                                                                                                  #            CONTROL IS DIRECTED TO V37 BY THE VERBFAN ROUTINE.
000718:                                                                                                  #               VERBFAN GOES TO C(VERBTAB+C(VERBREG)). VERB 37 = MMCHANG.
000719:                                                                                                  #               MMCHANG EXECUTES A   TC POSTJUMP, CADR V37.
000720:
000721:                                                                                                  #        B. ERASABLE INITIALIZATION      NONE
000722:
000723:                                                                                                  #        C. OUTPUT
000724:


000726:                                                                                                  #            MAJOR MODE CHANGE
000727:
000728:                                                                                                  #        D. DEBRIS
000729:                                                                                                  #             MMNUMBER, MPAC +1, MINDEX, BASETEMP +C(MINDEX), FLAGWRD0, FLAGWRD1, FLAGWRD2, MODREG, GOLOC -1,
000730:                                                                                                  #             GOLOC, GOLOC +1, GOLOC +2, BASETEMP, -PHASE2, PHASE2, -PHASE4
000731:
000732:                                                                                                  #  PROGRAM ANALYSIS
000733:
000734:                                                                                                  #        A. SUBROUTINES CALLED
000735:                                                                                                  #             ALARM, RELDSP, PINBRNCH, INTSTALL, ENGINOF2, ALLCOAST, V37KLEAN, GOPROG2, FALTON, FINDVAC, SUPERSW,
000736:                                                                                                  #             DSPMM
000737:
000738:                                                                                                  #        B. NORMAL EXIT        TC ENDOFJOB
000739:
000740:                                                                                                  #        C. ALARMS      1520 (MAJOR MODE CHANGE NOT PERMITTED)
000741:
000742: 04,2040           54774        V37                TS       MMNUMBER                              #  SAVE MAJOR MODE
000743: 04,2041           34355                           CAF      PRIO30                                #  RESTART AT PINBALL PRIORITY
000744: 04,2042           54366                           TS       RESTREG
000745:
000746: 04,2043           31277                           CA       IMODES30                              #  IS IMU BEINB INITIALIZED
000747: 04,2044           74746                           MASK     BIT6
000748: 04,2045           10000                           CCS      A
000749: 04,2046           12065                           TCF      CANTROO
000750:
000751: 04,2047           40774                           CS       MMNUMBER                              #  IS P70 REQUESTED?
000752: 04,2050           62411                           AD       DEC70
000753: 04,2051           00006                           EXTEND
000754: 04,2052           12404                           BZF      SETUP70                               #  YES
000755: 04,2053           64753                           AD       ONE                                   #  IS P71 REQUESTED?
000756: 04,2054           00006                           EXTEND
000757: 04,2055           12403                           BZF      SETUP71                               #  YES
000758:
000759: 04,2056           30774                           CA       MMNUMBER                              #  IS NEW REQUEST POO
000760: 04,2057           00006                           EXTEND
000761: 04,2060           12107                           BZF      ISSERVON                              #  YES, CHECK SERVICER STATUS
000762:
000763: 04,2061           40076                           CS       FLAGWRD2                              #  NO, IS NODO V37 FLAG SET
000764: 04,2062           74753                           MASK     NODOBIT
000765: 04,2063           10000                           CCS      A
000766: 04,2064           12072                           TCF      CHECKTAB                              #  NO
000767: 04,2065           05600        CANTROO            TC       ALARM
000768: 04,2066           01520                           OCT      1520
000769:
000770: 04,2067           04457        V37BAD             TC       RELDSP                                #  RELEASES DISPLAY FROM ASTRONAUT
000771:
000772: 04,2070           04635                           TC       POSTJUMP                              #  BRING BACK LAST NORMAL DISPLAY IF THERE
000773: 04,2071           21051                           CADR     PINBRNCH                              #  WAS ONE. OTHERWISE DO AN EOJ.
000774:
000775: 04,2072           32476        CHECKTAB           CA       NOV37MM                               #  INDEX FOR MM TABLES.


000777: 04,2073           54155        AGAINMM            TS       MPAC       +1
000778: 04,2074           50155                           NDX      MPAC       +1
000779: 04,2075           32445                           CA       PREMM1                                #  OBTAIN WHICH MM THIS IS FOR
000780: 04,2076           76106                           MASK     LOW7
000781: 04,2077           40000                           COM
000782: 04,2100           60774                           AD       MMNUMBER
000783: 04,2101           10000                           CCS      A
000784: 04,2102           10155                           CCS      MPAC       +1                         #  IF GR, SEE IF ANY MORE IN LIST
000785: 04,2103           12073                           TCF      AGAINMM                               #  YES, GET NEXT ONE
000786: 04,2104           12334                           TCF      V37NONO                               #  LAST TIME OR PASSED MM
000787:
000788: 04,2105           30155                           CA       MPAC       +1
000789: 04,2106           54773                           TS       MINDEX                                #  SAVE INDEX FOR LATER
000790:
000791: 04,2107           40103        ISSERVON           CS       FLAGWRD7                              #  V37 FLAG SET - I.E. IS SERVICER GOING
000792: 04,2110           74746                           MASK     V37FLBIT
000793: 04,2111           10000                           CCS      A
000794: 04,2112           12136                           TCF      CANV37                                #  NO
000795:
000796: 04,2113           04727                           TC       SUPERSW
000797: 04,2114           00004                           INHINT
000798: 04,2115           04674                           TC       IBNKCALL                              #  YES, TURN ENGINE OFF
000799: 04,2116           75555                           CADR     ENGINOF1
000800: 04,2117           05527                           TC       DOWNFLAG                              #  NOW TURN OFF THE AVERAGE G FLAG AND
000801: 04,2120           00163                           ADRES    AVEGFLAG                              #  WAIT FOR SERVICER TO RETURN TO V37RET.
000802:
000803: 04,2121           15155                           TCF      ENDOFJOB
000804:
000805: 04,2122           40074        V37RET             CS       FLAGWRD0                              #  IS P20 OR P22 RUNNING?
000806: 04,2123           74745                           MASK     RNDVZBIT
000807: 04,2124           10000                           CCS      A
000808: 04,2125           12127                           TCF      +2                                    #  NO. CHECK FOR P25.
000809: 04,2126           12134                           TCF      2.7SPT                                #  YES.  DO 2.7SPOT
000810: 04,2127           40074                           CS       FLAGWRD0                              #  IS P25 RUNNING?
000811: 04,2130           74743                           MASK     P25FLBIT
000812: 04,2131           10000                           CCS      A
000813: 04,2132           32400        2.0SPT             CA       OCT37667
000814: 04,2133           64747        2.11SPT            AD       BIT5
000815: 04,2134           62401        2.7SPT             AD       OCT40072
000816: 04,2135           05370                           TC       PHSCHNGA
000817:
000818: 04,2136           34755        CANV37             CAF      ZERO
000819: 04,2137           00006                           EXTEND
000820: 04,2140           01007                           WRITE    SUPERBNK
000821:
000822: 04,2141           32377                           CAF      ROOAD
000823: 04,2142           54374                           TS       TEMPFLSH
000824:
000825: 04,2143           05364                           TC       PHASCHNG
000826: 04,2144           00014                           OCT      14
000827:


000829: 04,2145           06051        ROO                TC       INTPRET
000830:
000831: 04,2146           77624                           CALL                                           #  WAIT FOR INTEGRATION TO FINISH
000832: 04,2147           27410                                    INTSTALL
000833: 04,2150           77776        DUMMYAD            EXIT
000834:
000835: 04,2151           05527                           TC       DOWNFLAG
000836: 04,2152           00124                           ADRES    3AXISFLG                              #  RESET 3-AXIS FLAG
000837:
000838: 04,2153           05527                           TC       DOWNFLAG
000839: 04,2154           00055                           ADRES    POOHFLAG
000840:
000841: 04,2155           34735                           CAF      LRBYBIT                               #  CLEAN UP THE R12 FLAGWORD.
000842: 04,2156           54107                           TS       FLGWRD11
000843:
000844: 04,2157           05527                           TC       DOWNFLAG                              #  INSURE THAT THE R04FLAG IS CLEAR.
000845: 04,2160           00063                           ADRES    R04FLAG
000846:
000847: 04,2161           05527                           TC       DOWNFLAG
000848: 04,2162           00056                           ADRES    GLOKFAIL                              #  FLAGWORD 3 BIT 14
000849:
000850: 04,2163           05527                           TC       DOWNFLAG                              #  INSURE MUNFLAG IS CLEAR.
000851: 04,2164           00141                           ADRES    MUNFLAG
000852:
000853: 04,2165           05527                           TC       DOWNFLAG                              #  RESET ABORT TARGETING FLAG (USE
000854: 04,2166           00217                           ADRES    ABTTGFLG                              #    PARAMETERS J1 AND KU)
000855:
000856: 04,2167           05527                           TC       DOWNFLAG                              #  ALLOW X-AXIS OVERRIDE.
000857: 04,2170           00311                           ADRES    XOVINFLG
000858: 04,2171           10774                           CCS      MMNUMBER                              #  IS THIS A POOH REQUEST
000859: 04,2172           12322                           TCF      NOUVEAU                               #  NO, PICK UP NEW PROGRAM
000860:
000861: 04,2173           04457        POOH               TC       RELDSP                                #  RELEASE DISPLAY SYSTEM
000862:
000863: 04,2174           35017                           CAF      PRIO5                                 #  SET VARIABLE RESTART PRIORITY FOR
000864: 04,2175           55055                           TS       PHSPRDT2                              #  P00 INTEGRATION.
000865:
000866: 04,2176           06011                           TC       CLRADMOD                              #  CLRADMOD DOES AN INHINT.
000867:
000868: 04,2177           44753                           CS       NODOBIT                               #  TURN OFF NODOFLAG.
000869: 04,2200           70076                           MASK     FLAGWRD2
000870: 04,2201           54076                           TS       FLAGWRD2
000871:
000872: 04,2202           34756                           CA       FIVE                                  #  SET RESTART FOR STATEINT1
000873: 04,2203           54001                           TS       L
000874: 04,2204           40000                           COM
000875: 04,2205           52754                           DXCH     -PHASE2
000876:
000877: 04,2206           42402                           CS       OCT700                                #  TURN OFF P20,P25,IMU IN USE FLAG
000878: 04,2207           70074                           MASK     FLAGWRD0


000880: 04,2210           54074                           TS       FLAGWRD0                              #                         RENDFLG
000881:
000882: 04,2211           34755                           CAF      DNLADP00
000883:
000884: 04,2212           54333        SEUDOPOO           TS       DNLSTCOD                              #  SET UP APPROPRIATE DOWNLIST CODE
000885: 04,2213           55321                           TS       AGSWORD                               #   (CURRENT LIST WILL BE COMPLETED BEFORE
000886:                                                                                                  #    NEW ONE IS STARTED)
000887: 04,2214           44741                           CS       NOP07BIT
000888: 04,2215           70077                           MASK     FLAGWRD3
000889: 04,2216           64741                           AD       NOP07BIT
000890: 04,2217           54077                           TS       FLAGWRD3
000891:
000892: 04,2220           04674                           TC       IBNKCALL                              #  INSURE ALLCOAST.
000893: 04,2221           40205                           CADR     ALLCOAST                              #  DOES A RESTORDB.
000894:
000895: 04,2222           44775                           CS       OCT120                                #  TURN OFF TRACK, UPDATE FLAGS
000896: 04,2223           55071                           TS       EBANKTEM
000897: 04,2224           70075                           MASK     FLAGWRD1
000898: 04,2225           54075                           TS       FLAGWRD1
000899:
000900: 04,2226           04674                           TC       IBNKCALL                              #  KILL GROUPS 1,3,5,6
000901: 04,2227           12666                           CADR     V37KLEAN
000902:
000903: 04,2230           10774                           CCS      MMNUMBER                              #  IS IT POOH
000904: 04,2231           12240                           TCF      RENDVOO                               #  NO
000905: 04,2232           04674        GOMOD              TC       IBNKCALL                              #  REDUNDANT EXCEPT FOR GROUP 4
000906: 04,2233           12663                           CADR     POOKLEAN
000907:
000908: 04,2234           30774                           CA       MMNUMBER
000909: 04,2235           55010                           TS       MODREG
000910:
000911: 04,2236           04635        GOGOPROG           TC       POSTJUMP
000912: 04,2237           13004                           CADR     GOPROG2
000913:
000914: 04,2240           41010        RENDVOO            CS       MODREG                                #  IS CURRENT PROGRAM 22
000915: 04,2241           62340                           AD       OCT26
000916: 04,2242           00006                           EXTEND
000917: 04,2243           12262                           BZF      RESET22                               #  YES - CLEAR RENDEZVOUS FLAG
000918:
000919:
000920: 04,2244           40774                           CS       MMNUMBER                              #  IS NEW PROGRAM P22
000921: 04,2245           62340                           AD       OCT26
000922: 04,2246           00006                           EXTEND
000923: 04,2247           12262                           BZF      RESET22
000924:
000925:
000926: 04,2250           67760                           AD       NEG2                                  #  IS NEW PROGRAM = P20 OR P25
000927: 04,2251           00006                           EXTEND
000928: 04,2252           12274                           BZF      RENDNOO                               #  YES
000929: 04,2253           64756                           AD       FIVE                                  #  25


000931: 04,2254           00006                           EXTEND
000932: 04,2255           12274                           BZF      RENDNOO                               #  YES
000933:
000934: 04,2256           32336                           CA       OCT500                                #  NO, IS EITHER P20 OR P25 RUNNING
000935: 04,2257           70074                           MASK     FLAGWRD0
000936: 04,2260           10000                           CCS      A
000937: 04,2261           12271                           TCF      POOFIZZ                               #  YES, LEAVE GROUP 2 TO PICK UP P20 OR P25
000938:
000939: 04,2262           42402        RESET22            CS       OCT700                                #  CLEAR RENDEZVOUS,P25
000940: 04,2263           70074                           MASK     FLAGWRD0                              #  AND IMU IN USE FLAGS
000941: 04,2264           54074                           TS       FLAGWRD0
000942: 04,2265           06011                           TC       CLRADMOD
000943:
000944: 04,2266           00006        KILL2              EXTEND                                         #  NO, KILL 2
000945: 04,2267           34755                           DCA      NEG0
000946: 04,2270           52754                           DXCH     -PHASE2
000947:
000948: 04,2271           32376        POOFIZZ            CAF      V37QCAD                               #  RESTART POINT FOR V37XEQ
000949: 04,2272           54374                           TS       TEMPFLSH
000950:
000951: 04,2273           12236                           TCF      GOGOPROG
000952:
000953: 04,2274           41010        RENDNOO            CS       MODREG
000954: 04,2275           66007                           AD       OCT24
000955: 04,2276           00006                           EXTEND
000956: 04,2277           12266                           BZF      KILL2                                 #  P20 OR P25 ON TOP OF P20 OR P25 -
000957:
000958: 04,2300           64756                           AD       FIVE
000959: 04,2301           00006                           EXTEND
000960: 04,2302           12266                           BZF      KILL2
000961:
000962: 04,2303           32336                           CA       OCT500
000963: 04,2304           70074                           MASK     FLAGWRD0
000964: 04,2305           60774                           AD       MMNUMBER
000965: 04,2306           40000                           COM
000966: 04,2307           62341                           AD       P20REG                                #  IS IT 20 AND IS RENDEZVOUS FLAG ON
000967: 04,2310           00006                           EXTEND
000968: 04,2311           12316                           BZF      STATQUO                               #  YES
000969: 04,2312           62337                           AD       OCT305                                #  IS IT 25 AND IS P25 BIT ON
000970: 04,2313           00006                           EXTEND
000971: 04,2314           12316                           BZF      STATQUO                               #  YES, LEAVE AS IS
000972: 04,2315           12266                           TCF      KILL2
000973:
000974: 04,2316           40075        STATQUO            CS       FLAGWRD1                              #  SET TRACKFLAG
000975: 04,2317           74775                           MASK     OCT120                                #      UPDATE FLAG
000976: 04,2320           26075                           ADS      FLAGWRD1
000977:
000978: 04,2321           12232                           TCF      GOMOD
000979:
000980: 04,2322           32336        NOUVEAU            CAF      OCT500                                #  IS P20 OR P25 FLAG SET


000982: 04,2323           70074                           MASK     FLAGWRD0
000983: 04,2324           10000                           CCS      A
000984: 04,2325           12330                           TCF      +3                                    #  YES
000985: 04,2326           05527                           TC       DOWNFLAG                              #  NO,RESET IMUINUSE FLAG
000986: 04,2327           00007                           ADRES    IMUSE
000987:
000988: 04,2330           50773                           INDEX    MINDEX
000989: 04,2331           32477                           CAF      DNLADMM1                              #  OBTAIN APPROPRIATE DOWNLIST ADDRESS
000990:
000991: 04,2332           00004                           INHINT
000992: 04,2333           12212                           TCF      SEUDOPOO
000993:
000994: 04,2334           04364        V37NONO            TC       FALTON                                #  COME HERE IF MM REQUESTED DOESNT EXIST
000995:
000996: 04,2335           12067                           TCF      V37BAD
000997:
000998: 04,2336     4750               OCT00010           EQUALS   BIT4
000999: 04,2336           00500        OCT500             OCT      500                                   #  BITS 7 AND 9
001000: 04,2337           00305        OCT305             OCT      305
001001: 04,2340           00026        OCT26              OCT      26
001002: 04,2341           00124        P20REG             OCT      124
001003:
001004: 04,2342           00004        V37XEQ             INHINT
001005: 04,2343           50773                           INDEX    MINDEX
001006: 04,2344           32445                           CAF      PREMM1                                #  OBTAIN PRIO, EBANK, AND MM
001007: 04,2345           55057                           TS       MMTEMP
001008: 04,2346           54020                           TS       CYR                                   #  SHIFT RIGHT TO BITS 14 - 10
001009:
001010: 04,2347           30020                           CA       CYR
001011: 04,2350           77737                           MASK     PRIO37
001012: 04,2351           55061                           TS       PHSPRDT4                              #  PRESET GROUP 4 RESTART PRIORITY
001013: 04,2352           54063                           TS       NEWPRIO                               #  STORE PRIO FOR SPVAC
001014:
001015: 04,2353           31057                           CA       MMTEMP                                #  OBTAIN EBANK - BITS 8, 9, 10 OF MMTEMP.
001016: 04,2354           00006                           EXTEND
001017: 04,2355           74744                           MP       BIT8
001018: 04,2356           74757                           MASK     LOW3
001019: 04,2357           54001                           TS       L
001020:
001021: 04,2360           50773                           INDEX    MINDEX
001022: 04,2361           32414                           CAF      FCADRMM1
001023: 04,2362           55060                           TS       BASETEMP                              #  MAKE BBCON BY ADDING HI5 OF FCADR
001024: 04,2363           74350                           MASK     HI5
001025: 04,2364           26001                           ADS      L
001026:
001027: 04,2365           31060                           CA       BASETEMP                              #  OBTAIN GENADR PORTION OF 2CADR.
001028: 04,2366           75012                           MASK     LOW10
001029: 04,2367           64741                           AD       BIT11
001030:
001031: 04,2370           05116                           TC       SPVAC
001032:


001034: 04,2371           31057        V37XEQC            CA       MMTEMP                                #  UPON RETURN FROM FINDVAC PLACE THE
001035: 04,2372           76106                           MASK     LOW7                                  #  NEW MM IN MODREG (THE LOW 7 BITS OF
001036: 04,2373           05325                           TC       NEWMODEA                              #  PHSPRDT1)
001037:
001038: 04,2374           04457                           TC       RELDSP                                #  RELEASE DISPLAY
001039: 04,2375           05155                           TC       ENDOFJOB                              #  AND EXIT
001040:
001041: 04,2376     5661               NEG7               EQUALS   OCT77770
001042:
001043: 04,2376     1057               MMTEMP             EQUALS   PHSPRDT3
001044: 04,2376     1060               BASETEMP           EQUALS   TBASE4
001045: 04,2376           10345        V37QCAD            CADR     V37XEQ     +3
001046: 04,2377           10150        ROOAD              CADR     DUMMYAD
001047: 04,2400           37667        OCT37667           OCT      37667
001048: 04,2401           40072        OCT40072           OCT      40072
001049: 04,2402           00700        OCT700             OCT      700
001050:
001051: 04,2403           36257        SETUP71            CAF      THREE
001052: 04,2404           54002        SETUP70            TS       Q
001053: 04,2405           00006                           EXTEND
001054: 04,2406           32413                           DCA      P70CADR
001055: 04,2407           60002                           AD       Q
001056: 04,2410           52006                           DTCB
001057:
001058: 04,2411           00106        DEC70              DEC      70         B-14
001059: 04,2412  E7,1516                                  EBANK=   R
001060: 04,2412           02006 42067  P70CADR            2CADR    P70
001061:                                                                                                  #  FOR VERB 37 TWO TABLES ARE MAINTAINED. EACH TABLE HAS AN ENTRY FOR EACH
001062:                                                                                                  #  MAJOR MODE THAT CAN BE STARTED FROM THE KEYBOARD. THE ENTRIES ARE PUT
001063:                                                                                                  #  INTO THE TABLE WITH THE ENTRY FOR THE HIGHEST MAJOR MODE COMING FIRST,
001064:
001065:                                                                                                  #  TO THE LOWEST MAJOR MODE WHICH IS THE LAST ENTRY IN EACH TABLE.
001066:
001067:                                                                                                  #           THE FCADRMM TABLE CONTAINS THE FCADR OF THE STARTING JOB OF
001068:                                                                                                  #  THE MAJOR MODE.   FOR EXAMPLE,
001069:
001070:                                                                                                  #                                          FCADRMM1 FCADR   P79             START OF P 79
001071:                                                                                                  #                                                   FCADR   PROG18          START OF P 18
001072:                                                                                                  #                                                   FCADR   P01             START OF P 01
001073:
001074:                                                                                                  #  NOTE,    THE FIRST ENTRY MUST BE LABLED FCADRMM1.
001075:                                                                                                  #  ----
001076:
001077: 04,2414           26207        FCADRMM1           FCADR    P76
001078: 04,2415           72647                           FCADR    P75
001079: 04,2416           72457                           FCADR    P74
001080: 04,2417           72225                           FCADR    P73
001081: 04,2420           72036                           FCADR    P72
001082: 04,2421           71351                           FCADR    LANDJUNK


001084: 04,2422           64421                           FCADR    P63LM
001085: 04,2423           33310                           FCADR    P57
001086: 04,2424           32067                           FCADR    PROG52
001087: 04,2425           31421                           FCADR    P51
001088: 04,2426           75437                           FCADR    P47LM
001089: 04,2427           75411                           FCADR    P42LM
001090: 04,2430           75271                           FCADR    P41LM
001091: 04,2431           75146                           FCADR    P40LM
001092: 04,2432           72643                           FCADR    P35
001093: 04,2433           72455                           FCADR    P34
001094: 04,2434           72223                           FCADR    P33
001095: 04,2435           72034                           FCADR    P32
001096: 04,2436           72000                           FCADR    P30
001097: 04,2437           50462                           FCADR    PROG25
001098: 04,2440           50000                           FCADR    PROG22
001099: 04,2441           51442                           FCADR    PROG21
001100: 04,2442           50000                           FCADR    PROG20
001101: 04,2443           60061                           FCADR    P12LM
001102: 04,2444           77654                           FCADR    P06
001103:                                                                                                  #           THE PREMM TABLE CONTAINS THE E-BANK,MAJOR MODE, AND PRIORITY
001104:                                                                                                  #  INFORMATION, IT IS IN THE FOLLOWING FORM,
001105:
001106:                                                                                                  #           PPP PPE EEM MMM MMM
001107:
001108:                                                                                                  #           WHERE THE 7 M BITS CONTAIN THE MAJOR MODE NUMBER
001109:                                                                                                  #                      3 E BITS CONTAIN THE E-BANK NUMBER
001110:                                                                                                  #                      5 P BITS CONTAIN THE PRIORITY AT WHICH THE JOB IS
001111:                                                                                                  #                          TO BE STARTED
001112:
001113:                                                                                                  #           FOR EXAMPLE,
001114:
001115:                                                                                                  #                                          PREMM1   OCT     67213           PRIORITY      33
001116:                                                                                                  #                                                                           E-BANK         5
001117:                                                                                                  #                                                                           MAJOR MODE    11
001118:                                                                                                  #                                                   OCT     25437           PRIORITY       12
001119:                                                                                                  #                                                                           E-BANK         6
001120:                                                                                                  #                                                                           MAJOR MODE    31
001121:
001122:                                                                                                  #  NOTE,     THE FIRST ENTRY MUST BE LABELED PREMM1
001123: 04,2445           27714        PREMM1             OCT      27714                                 #  MM 76  EBANK 7  PRIO 13
001124: 04,2446           27713                           OCT      27713                                 #  MM 75  EBANK 7  PRIO 13
001125: 04,2447           27712                           OCT      27712                                 #  MM 74  EBANK 7  PRIO 13
001126: 04,2450           27711                           OCT      27711                                 #  MM 73  EBANK 7  PRIO 13
001127: 04,2451           27710                           OCT      27710                                 #  MM 72  EBANK 7  PRIO 13
001128: 04,2452           27704                           OCT      27704                                 #  MM 68  EBANK 7  PRIO 13
001129: 04,2453           27677                           OCT      27677                                 #  MM 63  EBANK 7  PRIO 13
001130: 04,2454           27271                           OCT      27271                                 #  MM 57  EBANK 5  PRIO 13
001131: 04,2455           27264                           OCT      27264                                 #  MM 52  EBANK 5  PRIO 13
001132: 04,2456           27263                           OCT      27263                                 #  MM 51  EBANK 5  PRIO 13
001133: 04,2457           27657                           OCT      27657                                 #  MM 47  EBANK 7  PRIO 13


001135: 04,2460           27652                           OCT      27652                                 #  MM 42  EBANK 7  PRIO 13
001136: 04,2461           27651                           OCT      27651                                 #  MM 41  EBANK 7  PRIO 13
001137: 04,2462           27650                           OCT      27650                                 #  MM 40  EBANK 7  PRIO 13
001138: 04,2463           27643                           OCT      27643                                 #  MM 35  EBANK 7  PRIO 13
001139: 04,2464           27642                           OCT      27642                                 #  MM 34  EBANK 7  PRIO 13
001140: 04,2465           27641                           OCT      27641                                 #  MM 33  EBANK 7  PRIO 13
001141: 04,2466           27640                           OCT      27640                                 #  MM 32  EBANK 7  PRIO 13
001142: 04,2467           27636                           OCT      27636                                 #  MM 30  EBANK 7  PRIO 13
001143: 04,2470           27631                           OCT      27631                                 #  MM 25  EBANK 7  PRIO 13
001144: 04,2471           27626                           OCT      27626                                 #  MM 22  EBANK 7  PRIO 13
001145: 04,2472           27625                           OCT      27625                                 #  MM 21  EBANK 7  PRIO 13
001146: 04,2473           27624                           OCT      27624                                 #  MM 20  EBANK 7  PRIO 13
001147: 04,2474           27614                           OCT      27614                                 #  MM 12  EBANK 7  PRIO 13
001148: 04,2475           27006                           OCT      27006                                 #  MM 06  EBANK 4  PRIO 13
001149:                                                                                                  #  NOTE,     THE FOLLOWING CONSTANT IS THE NUMBER OF ENTRIES IN EACH OF
001150:                                                                                                  #  ----      THE ABOVE LISTS-1(IE, THE NUMBER OF MAJOR MODES(EXCEPT P00)
001151:                                                                                                  #            THAT CAN BE CALLED FROM THE KEYBOARD MINUS ONE)
001152:
001153: 04,2476           00030        NOV37MM            DEC      24         B-14                       #  MM'S -1
001154:
001155: 04,2477           00002        DNLADMM1           ADRES    RENDEZVL                              #  P76
001156: 04,2500           00002                           ADRES    RENDEZVL                              #  P75
001157: 04,2501           00002                           ADRES    RENDEZVL                              #  P74
001158: 04,2502           00002                           ADRES    RENDEZVL                              #  P73
001159: 04,2503           00002                           ADRES    RENDEZVL                              #  P72
001160: 04,2504           00004                           ADRES    DESASCNT                              #  P68
001161: 04,2505           00004                           ADRES    DESASCNT                              #  P63
001162: 04,2506           00005                           ADRES    LUNRSALN                              #  P57
001163: 04,2507           00000                           ADRES    COSTALIL                              #  P52
001164: 04,2510           00000                           ADRES    COSTALIL                              #  P51
001165: 04,2511           00003                           ADRES    ORBMANUL                              #  P47
001166: 04,2512           00003                           ADRES    ORBMANUL                              #  P42
001167: 04,2513           00003                           ADRES    ORBMANUL                              #  P41
001168: 04,2514           00003                           ADRES    ORBMANUL                              #  P40
001169: 04,2515           00002                           ADRES    RENDEZVL                              #  P35
001170: 04,2516           00002                           ADRES    RENDEZVL                              #  P34
001171: 04,2517           00002                           ADRES    RENDEZVL                              #  P33
001172: 04,2520           00002                           ADRES    RENDEZVL                              #  P32
001173: 04,2521           00002                           ADRES    RENDEZVL                              #  P30
001174: 04,2522           00002                           ADRES    RENDEZVL                              #  P25
001175: 04,2523           00005                           ADRES    LUNRSALN                              #  P22
001176: 04,2524           00002                           ADRES    RENDEZVL                              #  P21
001177: 04,2525           00002                           ADRES    RENDEZVL                              #  P20
001178: 04,2526           00004                           ADRES    DESASCNT                              #  P12
001179: 04,2527           00000                           ADRES    COSTALIL                              #  P06
001180: 04,2530     4755               DNLADP00           =        ZERO
001181: 04,2530                        COSTALIL           =        0
001182: 04,2530                        AGSUPDAT           =        1
001183: 04,2530                        RENDEZVL           =        2
001184: 04,2530                        ORBMANUL           =        3


001186: 04,2530                        DESASCNT           =        4
001187: 04,2530                        LUNRSALN           =        5
001188: 13,2026                                           BANK     13
001189: 13,2000                                           SETLOC   INTINIT
001190: 13,2000                                           BANK
001191:
001192: 13,2026                                           COUNT*   $$/INTIN
001193:
001194: 13,2026  E3,1554                                  EBANK=   RRECTCSM
001195:
001196:                                                                                                  #  THIS ROUTINE DOES THE POO INTEGRATION
001197:
001198: 13,2026           43014        STATEUP            SET      BOF                                   #  EXTRAPOLATE CM STATE VECTOR
001199: 13,2027           01474                                    VINTFLAG
001200: 13,2030           04347                                    SURFFLAG                              #  ALSO 6X6 W-MATRIX IF LM ON LUNAR
001201: 13,2031           26036                                    DOINT                                 #       SURFACE AND W-MATRIX VALID
001202: 13,2032           43014                           BOF      SET                                   #       FOR RENDEZVOUS NAVIGATION.
001203: 13,2033           02756                                    RENDWFLG
001204: 13,2034           26036                                    DOINT
001205: 13,2035           01476                                    DIM0FLAG
001206: 13,2036           45014        DOINT              CLEAR    CALL
001207: 13,2037           01667                                    PRECIFLG                              #  ENGAGES 4-TIME STEP LOGIC IN INTEGRATION
001208: 13,2040           27133                                    INTEGRV                               #  WHEN MODREG = 0
001209:
001210: 13,2041           71214                           BON      DLOAD
001211: 13,2042           04307                                    SURFFLAG
001212: 13,2043           26063                                    NO-INT
001213: 13,2044           01571                                    TETCSM
001214: 13,2045           34041                           STCALL   TDEC1
001215: 13,2046           27410                                    INTSTALL
001216: 13,2047           45014                           CLEAR    CALL                                  #  EXTRAPOLATE LM STATE VECTOR
001217: 13,2050           01674                                    VINTFLAG
001218: 13,2051           26643                                    SETIFLGS
001219: 13,2052           77614                           BOF                                            #  ALSO 9X9 W-MATRIX IF W IS VALID
001220: 13,2053           02756                                    RENDWFLG
001221: 13,2054           26060                                    DOINT2
001222: 13,2055           43014                           SET      SET
001223: 13,2056           01476                                    DIM0FLAG
001224: 13,2057           01475                                    D6OR9FLG
001225: 13,2060           45014        DOINT2             SET      CALL
001226: 13,2061           01467                                    PRECIFLG                              #  DISENGAGE 4 TIME STEP LOGIC IN INTEG.
001227: 13,2062           27133                                    INTEGRV
001228: 13,2063           77614        NO-INT             CLRGO
001229: 13,2064           01236                                    NODOFLAG
001230: 13,2065           26631                                    ENDINT
001231:
001232:
001233:                                                                                                  #  THISVINT IS CALLED BY MIDTOAV1 AND2
001234:
001235: 13,2066           43414        THISVINT           CLEAR    RVQ


001237: 13,2067           01674                                    VINTFLAG

End of include-file FRESH_START_AND_RESTART.agc.  Parent file is MAIN.agc


