
Source Code


000002:                                                                                                  ## Copyright:   Public domain.
000003:                                                                                                  ## Filename:    GIMBAL_LOCK_AVOIDANCE.agc
000004:                                                                                                  ## Purpose:     A log section of Zerlina 56, the final revision of
000005:                                                                                                  ##              Don Eyles's offline development program for the variable
000006:                                                                                                  ##              guidance period servicer. It also includes a new P66 with LPD
000007:                                                                                                  ##              (Landing Point Designator) capability, based on an idea of John
000008:                                                                                                  ##              Young's. Neither of these advanced features were actually flown,
000009:                                                                                                  ##              but Zerlina was also the birthplace of other big improvements to
000010:                                                                                                  ##              Luminary including the terrain model and new (Luminary 1E)
000011:                                                                                                  ##              analog display programs. Zerlina was branched off of Luminary 145,
000012:                                                                                                  ##              and revision 56 includes all changes up to and including Luminary
000013:                                                                                                  ##              183. It is therefore quite close to the Apollo 14 program,
000014:                                                                                                  ##              Luminary 178, where not modified with new features.
000015:                                                                                                  ## Reference:   p.  369
000016:                                                                                                  ## Assembler:   yaYUL
000017:                                                                                                  ## Contact:     Ron Burkey <info@sandroid.org>.
000018:                                                                                                  ## Website:     www.ibiblio.org/apollo/index.html
000019:                                                                                                  ## Mod history: 2017-07-28 MAS  Created from Luminary 210.
000020:                                                                                                  ##              2017-08-22 RSB  Transcribed.
000021:


000023: 15,2050                                           BANK     15
000024:
000025: 22,2000                                           SETLOC   KALCMON1
000026: 22,2000                                           BANK
000027:
000028:
000029:                                                                                                  #  DETECTING GIMBAL LOCK
000030: 22,2744  22,2744               LOCSKIRT           EQUALS   NOGIMLOC
000031:
000032: 22,2744           77614        NOGIMLOC           SET
000033: 22,2745           01074                                    CALCMAN3
000034: 22,2746           70740        WCALC              LXC,1    DLOAD*
000035: 22,2747           01322                                    RATEINDX                              #  CHOOSE THE DESIRED MANEUVER RATE
000036: 22,2750           04772                                    ARATE,1                               #  FROM A LIST OF FOUR
000037: 22,2751           45002                           SR4      CALL                                  #  COMPUTE THE INCREMENTAL ROTATION MATRIX
000038: 22,2752           44527                                    DELCOMP                               #  DEL CORRESPONDING TO A 1 SEC ROTATION
000039:                                                                                                  #  ABOUT COF
000040: 22,2753           74343                           DLOAD*   VXSC
000041: 22,2754           04772                                    ARATE,1
000042: 22,2755           03270                                    COF
000043: 22,2756           17325                           STODL    BRATE                                 #  COMPONENT MANEUVER RATES 45 DEG/SEC
000044: 22,2757           03335                                    AM
000045: 22,2760           55605                           DMP      DDV*
000046: 22,2761           05002                                    ANGLTIME
000047: 22,2762           04772                                    ARATE,1
000048: 22,2763           77661                           SR
000049: 22,2764           20606                                    5
000050: 22,2765           03333                           STORE    TM                                    #  MANEUVER EXECUTION TIME SCALED AS T2
000051: 22,2766           77614                           SETGO
000052: 22,2767           01035                                    CALCMAN2                              #  0(OFF) = CONTINUE MANEUVER
000053: 22,2770           45010                                    NEWANGL    +1                         #  1(ON) = START MANEUVER
000054:                                                                                                  #           THE FOUR SELECTABLE FREE FALL MANEUVER RATES SELECTED BY
000055:                                                                                                  #           LOADING RATEINDX WITH 0,2,4,6, RESPECTIVELY
000056:
000057:
000058: 22,2771           00221 24255  ARATE              2DEC     .0088888888                            #  = 0.2 DEG/SEC       $ 22.5 DEG/SEC
000059: 22,2773           00554 02660                     2DEC     .0222222222                            #  = 0.5 DEG/SEC       $ 22.5 DEG/SEC
000060: 22,2775           02660 13301                     2DEC     .0888888888                            #  = 2.0 DEG/SEC       $ 22.5 DEG/SEC
000061: 22,2777           16161 30707                     2DEC     .4444444444                            #  = 10.0 DEG/SEC      $ 22.5 DEG/SEC
000062:
000063: 22,3001           00003 04000  ANGLTIME           2DEC     .0001907349                            #  = 100B-19     FUDGE FACTOR TO CONVERT
000064:                                                                                                  #  MANEUVER ANGLE TO MANEUVER TIME

End of include-file GIMBAL_LOCK_AVOIDANCE.agc.  Parent file is MAIN.agc


