
Source Code


000002:                                                                                                  ## Copyright:   Public domain.
000003:                                                                                                  ## Filename:    GROUND_TRACKING_DETERMINATION_PROGRAM_-_P21.agc
000004:                                                                                                  ## Purpose:     A log section of Zerlina 56, the final revision of
000005:                                                                                                  ##              Don Eyles's offline development program for the variable
000006:                                                                                                  ##              guidance period servicer. It also includes a new P66 with LPD
000007:                                                                                                  ##              (Landing Point Designator) capability, based on an idea of John
000008:                                                                                                  ##              Young's. Neither of these advanced features were actually flown,
000009:                                                                                                  ##              but Zerlina was also the birthplace of other big improvements to
000010:                                                                                                  ##              Luminary including the terrain model and new (Luminary 1E)
000011:                                                                                                  ##              analog display programs. Zerlina was branched off of Luminary 145,
000012:                                                                                                  ##              and revision 56 includes all changes up to and including Luminary
000013:                                                                                                  ##              183. It is therefore quite close to the Apollo 14 program,
000014:                                                                                                  ##              Luminary 178, where not modified with new features.
000015:                                                                                                  ## Reference:   pp. 649-652
000016:                                                                                                  ## Assembler:   yaYUL
000017:                                                                                                  ## Contact:     Ron Burkey <info@sandroid.org>.
000018:                                                                                                  ## Website:     www.ibiblio.org/apollo/index.html
000019:                                                                                                  ## Mod history: 2017-07-28 MAS  Created from Luminary 210.
000020:                                                                                                  ##              2017-08-24 MAS  Updated for Zerlina 56.
000021:


000023:                                                                                                  #  GROUND TRACKING DETERMINATION PROGRAM P21
000024:                                                                                                  #  PROGRAM DESCRIPTION
000025:                                                                                                  #  MOD NO - 1
000026:                                                                                                  #  MOD BY - N.M.NEVILLE
000027:                                                                                                  #  FUNCTIONAL DECRIPTION-
000028:
000029:                                                                                                  #  TO PROVIDE THE ASTRONAUT DETAILS OF THE LM OR CSM GROUND TRACK WITHOUT
000030:                                                                                                  #  THE NEED FOR GROUND COMMUNICATION (REQUESTED BY DSKY).
000031:                                                                                                  #  CALLING SEQUENCE -
000032:
000033:                                                                                                  #  ASTRONAUT REQUEST THROUGH DSKY V37E21E
000034:                                                                                                  #  SUBROUTINES CALLED-
000035:
000036:                                                                                                  #  GOPERF4
000037:                                                                                                  #  GOFLASH
000038:                                                                                                  #  THISPREC
000039:                                                                                                  #  OTHPREC
000040:                                                                                                  #  LAT-LONG
000041:                                                                                                  #  NORMAL EXIT MODES-
000042:
000043:                                                                                                  #  ASTRONAUT REQUEST TROUGH DSKY TO TERMINATE PROGRAM V34E
000044:                                                                                                  #  ALARM OR ABORT EXIT MODES-
000045:
000046:                                                                                                  #  NONE
000047:                                                                                                  #  OUTPUT -
000048:
000049:                                                                                                  #  OCTAL DISPLAY OF OPTION CODE AND VEHICLE WHOSE GROUND TRACK IS TO BE
000050:                                                                                                  #  COMPUTED
000051:                                                                                                  #           OPTION CODE  00002
000052:                                                                                                  #           THIS         00001
000053:                                                                                                  #           OTHER        00002
000054:                                                                                                  #  DECIMAL DISPLAY OF TIME TO BE INTEGRATED TO HOURS , MINUTES , SECONDS
000055:                                                                                                  #  DECIMAL DISPLAY OF LAT,LONG,ALT
000056:                                                                                                  #  ERASABLE INITIALIZATION REQUIRED
000057:
000058:                                                                                                  #  AX0      2DEC   4.652459653 E-5   RADIANS       %68-69 CONSTANTS"
000059:
000060:                                                                                                  #  -AY0     2DEC   2.147535898 E-5   RADIANS
000061:
000062:                                                                                                  #  AZ0      2DEC   .7753206164       REVOLUTIONS
000063:                                                                                                  #  FOR LUNAR ORBITS 504LM VECTOR IS NEEDED
000064:
000065:                                                                                                  #  504LM    2DEC   -2.700340600 E-5  RADIANS
000066:
000067:                                                                                                  #  504LM _2 2DEC   -7.514128400 E-4  RADIANS
000068:
000069:                                                                                                  #  504LM _4 2DEC   _2.553198641 E-4  RADIANS
000070:
000071:                                                                                                  #  NONE
000072:                                                                                                  #  DEBRIS


000074:
000075:                                                                                                  #  CENTRALS-A,Q,L
000076:                                                                                                  #  OTHER-THOSE USED BY THE ABOVE LISTED SUBROUTINES
000077:                                                                                                  #  SEE LEMPREC,LAT-LONG
000078: 35,2455  30,2000                                  SBANK=   LOWSUPER                              #  FOR LOW 2CADR'S.
000079:
000080: 33,2031                                           BANK     33
000081: 24,2000                                           SETLOC   P20S
000082: 24,2000                                           BANK
000083:
000084: 24,3442  E7,1762                                  EBANK=   P21TIME
000085: 24,3442                                           COUNT*   $$/P21
000086: 24,3442           34753        PROG21             CAF      ONE
000087: 24,3443           55144                           TS       OPTION2                               #  ASSUMED VEHICLE IS LM , R2 = 00001
000088: 24,3444           34752                           CAF      BIT2                                  #   OPTION 2
000089: 24,3445           04616                           TC       BANKCALL
000090: 24,3446           20634                           CADR     GOPERF4
000091: 24,3447           06001                           TC       GOTOPOOH                              #  TERMINATE
000092: 24,3450           03452                           TC       +2                                    #  PROCEED VALUE OF ASSUMED VEHICLE OK
000093: 24,3451           03444                           TC       -5                                    #  R2 LOADED THROUGH DSKY
000094: 24,3452           34755                           CAF      ZERO                                  #  INITIAL TIME = PRESENT TIME
000095: 24,3453           55044                           TS       DSPTEM1
000096: 24,3454           55045                           TS       DSPTEM1    +1
000097: 24,3455           33631        P21PROG1           CAF      V6N34                                 #  LOAD DESIRED TIME OF LAT-LONG.
000098: 24,3456           04616                           TC       BANKCALL
000099: 24,3457           20477                           CADR     GOFLASH
000100: 24,3460           06001                           TC       GOTOPOOH                              #  TERM
000101: 24,3461           03463                           TC       +2                                    #  PROCEED VALUES OK
000102: 24,3462           03455                           TC       -5                                    #  TIME LOADED THROUGH DSKY
000103: 24,3463           06051                           TC       INTPRET
000104: 24,3464           53145                           DLOAD    BZE
000105: 24,3465           01045                                    DSPTEM1
000106: 24,3466           51623                                    P21PRTM
000107: 24,3467           34041        P21PROG2           STCALL   TDEC1                                 #  INTEG TO TIME SPECIFIED IN TDEC1
000108: 24,3470           27410                                    INTSTALL
000109: 24,3471           43014                           BON      CLEAR
000110: 24,3472           00304                                    P21FLAG
000111: 24,3473           51511                                    P21CONT                               #  ON---RECYCLE USING BASE VECTOR
000112: 24,3474           01674                                    VINTFLAG                              #  OFF--1ST PASS CALL BASE VECTOR
000113: 24,3475           70535                           SLOAD    SR1
000114: 24,3476           01145                                    OPTION2
000115: 24,3477           43030                           BHIZ     SET
000116: 24,3500           51502                                    +2                                    #  ZERO--THIS VEHICLE(LM)
000117: 24,3501           01474                                    VINTFLAG                              #  ONE--OTHER VEHICLE(CM)
000118: 24,3502           43014                           CLEAR    CLEAR
000119: 24,3503           01676                                    DIM0FLAG
000120: 24,3504           01673                                    INTYPFLG                              #  PRECISION
000121: 24,3505           77624                           CALL
000122: 24,3506           27133                                    INTEGRV                               #  CALCULATE
000123: 24,3507           77650                           GOTO                                           #  -AND


000125: 24,3510           51532                                    P21VSAVE                              #  -SAVE BASE VECTOR
000126: 24,3511           77775        P21CONT            VLOAD
000127: 24,3512           03676                                    P21BASER                              #  RECYCLE--INTEG FROM BASE VECTOR
000128: 24,3513           25535                           STOVL    RCV                                   #  --POS
000129: 24,3514           03704                                    P21BASEV
000130: 24,3515           15543                           STODL    VCV                                   #  --VEL
000131: 24,3516           03763                                    P21TIME
000132: 24,3517           01517                           STORE    TET                                   #  --TIME
000133: 24,3520           43014                           CLEAR    CLEAR
000134: 24,3521           01676                                    DIM0FLAG
000135: 24,3522           00263                                    MOONFLAG
000136: 24,3523           53135                           SLOAD    BZE
000137: 24,3524           01163                                    P21ORIG
000138: 24,3525           51530                                    +3                                    #  ZERO=EARTH
000139: 24,3526           77614                           SET                                            #  ---2=MOON
000140: 24,3527           00063                                    MOONFLAG
000141: 24,3530           77624                 +3        CALL
000142: 24,3531           27106                                    INTEGRVS
000143: 24,3532           77745        P21VSAVE           DLOAD                                          #  SAVE CURRENT BASE VECTOR
000144: 24,3533           00015                                    TAT
000145: 24,3534           27763                           STOVL    P21TIME                               #  --TIME
000146: 24,3535           00017                                    RATT1
000147: 24,3536           27676                           STOVL    P21BASER                              #  --POS B-29 OR B-27
000148: 24,3537           00025                                    VATT1
000149: 24,3540           03704                           STORE    P21BASEV                              #  --VEL B-07 OR B-05
000150: 24,3541           53646                           ABVAL    SL*
000151: 24,3542           57576                                    0,2
000152: 24,3543           27712                           STOVL    P21VEL                                #  VEL/ FOR N91 DISP
000153: 24,3544           00001                                    RATT
000154: 24,3545           50256                           UNIT     DOT
000155: 24,3546           00007                                    VATT                                  #   U(R).V
000156: 24,3547           67471                           DDV      ASIN                                  #  U(R).U(V)
000157: 24,3550           03712                                    P21VEL
000158: 24,3551           03714                           STORE    P21GAM                                #  SIN-1 U(R).U(V) , -90 TO &90
000159: 24,3552           67334                           SXA,2    SLOAD
000160: 24,3553           01162                                    P21ORIG                               #  0=EARTH
000161: 24,3554           01145                                    OPTION2
000162: 24,3555           46142                           SR1      BHIZ
000163: 24,3556           51561                                    +3
000164: 24,3557           77650                           GOTO
000165: 24,3560           51564                                    +4
000166: 24,3561           77614                 +3        BON
000167: 24,3562           04307                                    SURFFLAG
000168: 24,3563           51566                                    P21DSP
000169: 24,3564           77614                 +4        SET
000170: 24,3565           00064                                    P21FLAG
000171: 24,3566           67214        P21DSP             CLEAR    SLOAD                                 #  GENERATE DISPLAY DATA
000172: 24,3567           01663                                    LUNAFLAG
000173: 24,3570           00050                                    X2


000175: 24,3571           43054                           BZE      SET
000176: 24,3572           51574                                    +2                                    #  0=EARTH
000177: 24,3573           01463                                    LUNAFLAG
000178: 24,3574           77775                           VLOAD
000179: 24,3575           00001                                    RATT
000180: 24,3576           16032                           STODL    ALPHAV
000181: 24,3577           00015                                    TAT
000182: 24,3600           45014                           CLEAR    CALL
000183: 24,3601           00662                                    ERADFLAG
000184: 24,3602           26347                                    LAT-LONG
000185: 24,3603           77605                           DMP                                            #  MPAC = ALT,METERS B-29
000186: 24,3604           11633                                    K.01
000187: 24,3605           03716                           STORE    P21ALT                                #  ALT/100 FOR N91 DISP
000188: 24,3606           77776                           EXIT
000189: 24,3607           33630                           CAF      V06N43                                #  DISPLAY LAT,LONG,ALT
000190: 24,3610           04616                           TC       BANKCALL                              #  LAT,LONG = 1/2 REVS B0
000191: 24,3611           20477                           CADR     GOFLASH                               #  ALT = KM  B14
000192: 24,3612           06001                           TC       GOTOPOOH                              #  TERM
000193: 24,3613           06001                           TC       GOTOPOOH
000194: 24,3614           06051                           TC       INTPRET                               #  V32E RECYCLE
000195: 24,3615           43345                           DLOAD    DAD
000196: 24,3616           03763                                    P21TIME
000197: 24,3617           11627                                    600SEC                                #  600 SECONDS OR 10 MIN
000198: 24,3620           01045                           STORE    DSPTEM1
000199: 24,3621           77634                           RTB
000200: 24,3622           51455                                    P21PROG1
000201: 24,3623           52034        P21PRTM            RTB      GOTO
000202: 24,3624           21555                                    LOADTIME
000203: 24,3625           51467                                    P21PROG2
000204: 24,3626           00003 25140  600SEC             2DEC     60000      B-28                       #  10 MIN
000205:
000206: 24,3630           01453        V06N43             VN       00643
000207: 24,3631           01442        V6N34              VN       00634
000208: 24,3632           00243 32703  K.01               2DEC     .01
000209:

End of include-file GROUND_TRACKING_DETERMINATION_PROGRAM_-_P21.agc.  Parent file is MAIN.agc


