
Source Code


000002:                                                                                                  ## Copyright:   Public domain.
000003:                                                                                                  ## Filename:    INTERPRETER.agc
000004:                                                                                                  ## Purpose:     A log section of Zerlina 56, the final revision of
000005:                                                                                                  ##              Don Eyles's offline development program for the variable
000006:                                                                                                  ##              guidance period servicer. It also includes a new P66 with LPD
000007:                                                                                                  ##              (Landing Point Designator) capability, based on an idea of John
000008:                                                                                                  ##              Young's. Neither of these advanced features were actually flown,
000009:                                                                                                  ##              but Zerlina was also the birthplace of other big improvements to
000010:                                                                                                  ##              Luminary including the terrain model and new (Luminary 1E)
000011:                                                                                                  ##              analog display programs. Zerlina was branched off of Luminary 145,
000012:                                                                                                  ##              and revision 56 includes all changes up to and including Luminary
000013:                                                                                                  ##              183. It is therefore quite close to the Apollo 14 program,
000014:                                                                                                  ##              Luminary 178, where not modified with new features.
000015:                                                                                                  ## Reference:   pp. 993-1085
000016:                                                                                                  ## Assembler:   yaYUL
000017:                                                                                                  ## Contact:     Ron Burkey <info@sandroid.org>.
000018:                                                                                                  ## Website:     www.ibiblio.org/apollo/index.html
000019:                                                                                                  ## Mod history: 2017-07-28 MAS  Created from Luminary 210.
000020:                                                                                                  ##              2017-08-28 RSB  Completed transcribing through page 1032.  Pages
000021:                                                                                                  ##                              1033-1085 remain.
000022:                                                                                                  ##              2017-08-29 RSB  Completed remainder of transcription.
000023:


000025:                                                                                                  #  SECTION 1  DISPATCHER
000026:
000027:                                                                                                  #           ENTRY TO THE INTERPRETER. INTPRET SETS LOC TO THE FIRST  INSTRUCTION, BANKSET TO THE BBANK OF THE
000028:                                                                                                  #  OBJECT INTERPRETIVE PROGRAM, AND INTBIT15 TO THE BIT15 CONTENTS OF FBANK. INTERPRETIVE PROGRAMS MAY BE IN
000029:                                                                                                  #  VIRTUALLY ALL BANKS PRESENT UNDER ANY SUPER-BANK SETTING, WITH THE RESTRICTION THAT PROGRAMS IN HIGH BANKS
000030:                                                                                                  #  (BIT15 OF FBANK = 1) DO NOT REFER TO LOWBANKS, AND VICE-VERSA. THE INTERPRETER DOES NOT SWITCH SUPERBANKS.
000031:                                                                                                  #  E-BANK SWITCHING OCCURS WHENEVER GENERAL ERASABLE (100 - 3777) IS ADDRESSED.
000032:
000033:    6051                                           BLOCK    03
000034:
000035:    6051                                           COUNT*   $$/INTER
000036:    6051           00003        INTPRET            RELINT
000037:    6052           00006                           EXTEND                                         #  SET LOC TO THE WORD FOLLOWING THE TC.
000038:    6053           22164                           QXCH     LOC
000039:
000040:    6054           30006                 +2        CA       BBANK                                 #  INTERPRETIVE BRANCHES FINISH HERE.
000041:    6055           54165                           TS       BANKSET
000042:    6056           74735                           MASK     BIT15                                 #  GET 15TH BIT FOR INDEXABLE ADDRESSES.
000043:    6057           54115                           TS       INTBIT15
000044:
000045:    6060           54023                           TS       EDOP                                  #  MAKE SURE NO INSTRUCTIONS LEFT OVER
000046:
000047:    6061           16102                           TCF      NEWOPS                                #  PICK UP OP CODE PAIR AND BEGIN.
000048:
000049:
000050:    6062           22006        INTRSM             LXCH     BBANK                                 #  RESUME SUSPENDED INTERPRETIVE JOB
000051:    6063           16054                           TCF      INTPRET    +3
000052:                                                                                                  #           DLOAD LOADS MPAC, MPAC +1, LEAVING ZERO IN MPAC +2.
000053:
000054:    6064           00006        DLOAD              EXTEND
000055:    6065           50116                           INDEX    ADDRWD
000056:    6066           30001                           DCA      0                                     #  LOAD DP C(C(ADDRWD)) INTO MPAC,MPAX +1
000057:    6067           52155        SLOAD2             DXCH     MPAC
000058:    6070           34755                           CAF      ZERO                                  #  ZERO MPAC +2
000059:


000061:                                                                                                  #           AT THE END OF MOST INSTRUCTIONS, CONTROL IS GIVEN TO DANZIG TO DISPATCH THE NEXT OPERATION.
000062:
000063:    6071           54156                           TS       MPAC       +2                         #  AND DECLARE DP MODE
000064:
000065:    6072           54163        NEWMODE            TS       MODE                                  #  PROLOGUE FOR MODE-CHANGING INSTRUCTIONS.
000066:
000067:    6073           30165        DANZIG             CA       BANKSET                               #  SET BBANK BEFORE TESTING NEWJOB SO THAT
000068:    6074           54006                           TS       BBANK                                 #  IT MAY BE SAVED DIRECTLY BY CHANJOB.
000069:
000070:    6075           10023        NOIBNKSW           CCS      EDOP                                  #  SEE IF AN ORDER CODE IS LEFT OVER FROM
000071:    6076           16111                           TCF      OPJUMP                                #  THE LAST PAIR RETRIEVED. IF SO, EXECUTE.
000072:                                                                                                  #  EDOP IS SET TO ZERO ON ITS RE-EDITING.
000073:
000074:    6077           10067                           CCS      NEWJOB                                #  SEE IF A JOB OF HIGHER PRIORITY IS
000075:    6100           15126                           TCF      CHANG2                                #  PRESENT, AND IF SO, CHANGE JOBS.
000076:
000077:    6101           24164                           INCR     LOC                                   #  ADVANCE THE LOCATION COUNTER.
000078:                                                                                                  #           ITRACE (1) REFERS TO "NEWOPS".
000079:    6102           50164        NEWOPS             INDEX    LOC                                   #  ENTRY TO BEGIN BY PICKING OP CODE PAIR.
000080:    6103           30000                           CA       0                                     #  MAY BE AN OPCODE PAIR OR A STORE CODE.
000081:    6104           10000                           CCS      A                                     #  TEST SIGN AND GET DABS(A).
000082:    6105           16374                           TCF      DOSTORE                               #  PROCESS STORE CODE.
000083:
000084:    6106           00177        LOW7               OCT      177
000085:
000086:    6107           54023                           TS       EDOP                                  #  OP CODE PAIR. LEAVE THE OTHER IN EDOP
000087:    6110           76106                           MASK     LOW7                                  #  WHERE  CCS EDOP  WILL HONOR IT NEXT.
000088:
000089:    6111           54020        OPJUMP             TS       CYR                                   #  LOWWD ENTERS HERE IF A RIGHT-HAND OP
000090:    6112           10020                           CCS      CYR                                   #  CODE IS TO BE PROCESSED. TEST PREFICES.
000091:    6113           16261                           TCF      OPJUMP2                               #  TEST SECOND PREFIX BIT.
000092:
000093:    6114           16755                           TCF      EXIT                                  #  +0 OP CODE IS EXIT.
000094:


000096:                                                                                                  #           PROCESS ADDRESSES WHICH MAY BE DIRECT, INDEXED, OR REFERENCE THE PUSHDOWN LIST.
000097:
000098:    6115           74753        ADDRESS            MASK     BIT1                                  #  SEE IF ADDRESS IS INDEXED. CYR CONTAINED
000099:    6116           10000                           CCS      A                                     #  400XX, SO BIT 1 IS NOW AS IT WAS IN CYR.
000100:    6117           16160                           TCF      INDEX                                 #  FORM INDEXED ADDRESS.
000101:
000102:    6120           50164        DIRADRES           INDEX    LOC                                   #  LOOK AHEAD TO NEXT WORD TO SEE IF
000103:    6121           40001        OCT40001           CS       1                                     #  ADDRESS IS GIVEN.
000104:    6122           10000                           CCS      A
000105:    6123           16227                           TCF      PUSHUP                                #  IF NOT.
000106:
000107:    6124           77773        NEG4               DEC      -4         B-14
000108:
000109:    6125           24164                           INCR     LOC                                   #  IF SO, TO SHOW WE PICKED UP A WORD.
000110:    6126           54116                           TS       ADDRWD
000111:


000113:                                                                                                  #           FINAL DIGESTION OF DIRECT ADDRESSES OF OP CODES WITH 01 PREFIX IS DONE HERE. IN EACH CASE, THE
000114:                                                                                                  #  REQUIRED 12-BIT SUB-ADDRESS IS LEFT IN ADDRWD, WITH ANY REQUIRED E OR F BANK SWITCHING DONE. ADDRESSES LESS
000115:                                                                                                  #  THAN 45D ARE TAKEN TO BE RELATIVE TO THE WORK AREA. THE OP CODE IS NOW IN BITS 1-5 OF CYR WITH BIT 14 = 1.
000116:
000117:    6127           66263                           AD       -ENDVAC                               #  SEE IF ADDRESS RELATIVE TO WORK AREA.
000118:    6130           10000                           CCS      A
000119:    6131           67755                           AD       -ENDERAS                              #  IF NOT, SEE IF IN GENERAL ERASABLE.
000120:    6132           16137                           TCF      IERASTST
000121:
000122:    6133           30120        NETZERO            CA       FIXLOC                                #  IF SO, LEAVE THE MODIFIED ADDRESS IN
000123:    6134           26116                           ADS      ADDRWD                                #  ADDRWD AND DISPATCH.
000124:    6135           50020        ITR15              INDEX    CYR                                   #  THIS INDEX MAKES THE NEXT INSTRUCTION
000125:    6136           76305                           7        INDJUMP    -1                         #  TCF INDJUMP + OP, EDITING CYR.
000126:
000127:    6137           00006        IERASTST           EXTEND
000128:    6140           66150                           BZMF     GEADDR                                #  GO PROCESS GENERAL-ERASABLE ADDRESS.
000129:
000130:    6141           75012                           MASK     LOW10                                 #  FIXED BANK ADDRESS. RESTORE AND ADD B15.
000131:    6142           65012                           AD       LOW10                                 #  SWITCH BANKS AND LEAVE SUBADDRESS IN
000132:    6143           56116                           XCH      ADDRWD                                #  ADDRWD FOR OPERAND RETRIEVAL. (THIS
000133:    6144           60115                           AD       INTBIT15                              #  METHOD PRECLUDES USE OF THE LAST
000134:    6145           54004                           TS       FBANK                                 #  LOCATION IN EACH FBANK.)
000135:    6146           50020        ITR12              INDEX    CYR
000136:    6147           76305                           7        INDJUMP    -1
000137:
000138:    6150           74357        GEADDR             MASK     LOW8
000139:    6151           65007                           AD       OCT1400
000140:    6152           56116                           XCH      ADDRWD
000141:    6153           54003                           TS       EBANK
000142:    6154           50020        ITR10              INDEX    CYR
000143:    6155           76305                           7        INDJUMP    -1
000144:


000146:                                                                                                  #           THE FOLLOWING ROUTINE PROCESSES INTERPRETIVE INDEXED ADDRESSES. AN INTERPRETER INDEX REGISTER MAY
000147:                                                                                                  #  CONTAIN THE ADDRESS OF ANY ERASABLE REGISTER (0-42 BEING RELATIVE TO THE VAC AREA) OR ANY INTERPRETIVE PROGRAM
000148:                                                                                                  #  BANK, OR ANY INTEGER IN THAT RANGE.
000149:
000150:    6156           37745        DODLOAD*           CAF      DLOAD*                                #  STODL* COMES HERE TO PROCESS LOAD ADR.
000151:    6157           54020                           TS       CYR                                   #  (STOVL* ENTERS HERE).
000152:
000153:    6160           30120        INDEX              CA       FIXLOC                                #  SET UP INDEX LOCATION.
000154:    6161           54130                           TS       INDEXLOC
000155:    6162           24164                           INCR     LOC                                   #  (ADDRESS ALWAYS GIVEN).
000156:    6163           50164                           INDEX    LOC
000157:    6164           40000                           CS       0
000158:    6165           10000                           CCS      A                                     #  INDEX 2 IF ADDRESS STORED COMPLEMENTED.
000159:    6166           24130                           INCR     INDEXLOC
000160:    6167           16170                           NOOP
000161:
000162:    6170           54116                           TS       ADDRWD                                #  14 BIT ADDRESS TO ADDRWD.
000163:    6171           77754                           MASK     HIGH4                                 #  IF ADDRESS GREATER THAN 2K, ADD INTBIT15
000164:    6172           00006                           EXTEND
000165:    6173           16176                           BZF      INDEX2
000166:    6174           30115                           CA       INTBIT15
000167:    6175           26116                           ADS      ADDRWD
000168:
000169:    6176           50130        INDEX2             INDEX    INDEXLOC
000170:    6177           40046                           CS       X1
000171:    6200           26116                           ADS      ADDRWD                                #  DO AUGMENT, IGNORING AND CORRECTING OVF.
000172:
000173:    6201           77756                           MASK     HIGH9                                 #  SEE IF ADDRESS IS IN WORK AREA.
000174:    6202           00006                           EXTEND
000175:    6203           16216                           BZF      INDWORK
000176:    6204           77754                           MASK     HIGH4                                 #  SEE IF IN FIXED BANK.
000177:    6205           00006                           EXTEND
000178:    6206           16220                           BZF      INDERASE
000179:
000180:    6207           30116                           CA       ADDRWD                                #  IN FIXED - SWITCH BANKS AND CREATE
000181:    6210           54004                           TS       FBANK                                 #  SUB-ADDRESS.
000182:    6211           75012                           MASK     LOW10
000183:    6212           64741                           AD       2K
000184:    6213           54116                           TS       ADDRWD
000185:    6214           50020        ITR11              INDEX    CYR
000186:    6215           36305                           3        INDJUMP    -1
000187:
000188:    6216           30120        INDWORK            CA       FIXLOC                                #  MAKE ADDRWD RELATIVE TO WORK AREA.
000189:    6217           16224                           TCF      ITR13      -1
000190:
000191:    6220           35007        INDERASE           CA       OCT1400
000192:    6221           56116                           XCH      ADDRWD
000193:    6222           54003                           TS       EBANK
000194:    6223           74357                           MASK     LOW8
000195:    6224           26116                 -1        ADS      ADDRWD


000197:    6225           50020        ITR13              INDEX    CYR
000198:    6226           36305                           3        INDJUMP    -1
000199:


000201:                                                                                                  #           PUSH-UP ROUTINES. WHEN NO OPERAND ADDRESS IS GIVEN, THE APPROPRIATE OPERAND IS TAKEN FROM THE PUSH-DOWN
000202:                                                                                                  #  LIST. IN MOST CASES THE MODE OF THE RESULT (VECTOR OR SCALAR) OF THE LAST ARITHMETIC OPERATION PERFORMED
000203:                                                                                                  #  IS THE SAME AS THE TYPE OF OPERAND DESIRED (ALL ADD/SUBTRACT ETC.). EXCEPTIONS TO THIS GENERAL RULE ARE LISTED
000204:                                                                                                  #  BELOW (NOTE THAT IN EVERY CASE THE MODE REGISTER IS LEFT INTACT):
000205:
000206:                                                                                                  #           1.  VXSC AND V/SC WANT THE OPPOSITE TYPE OF OPERAND, E.G., IF THE LAST OPERATION YIELDED A VECTOR
000207:                                                                                                  #  RESULT, VXSC WANTS A SCALAR.
000208:
000209:                                                                                                  #           2.  THE LOAD CODES SHOULD LOAD THE ACCUMULATOR INDEPENDENT OF THE RESULT OF THE LAST OPERATION. THIS
000210:                                                                                                  #  INCLUDES VLOAD, DLOAD, TLOAD, PDDL, AND PDVL (NO PUSHUP WITH SLOAD).
000211:
000212:                                                                                                  #           3.  SOME ARITHMETIC OPERATIONS REQUIRE A STANDARD TYPE OF OPERAND REGARDLESS OF THE PREVIOUS OPERATION.
000213:                                                                                                  #  THIS INCLUDES SIGN WANTING DP AND TAD REQUIRING TP.
000214:
000215:    6227           34360        PUSHUP             CAF      OCT23                                 #  IF THE LOW 5 BITS OF CYR ARE LESS THAN
000216:    6230           70020                           MASK     CYR                                   #  20, THIS OP REQUIRES SPECIAL ATTENTION.
000217:    6231           66234                           AD       -OCT10                                #  (NO -0).
000218:    6232           10000                           CCS      A
000219:    6233           16245                           TCF      REGUP                                 #  FOR ALL CODES GREATER THAN OCT 7.
000220:
000221:    6234           77767        -OCT10             OCT      -10
000222:
000223:    6235           66124                           AD       NEG4                                  #  WE NOW HAVE 7 - OP CODE(MOD4). SEE IF
000224:    6236           10000                           CCS      A                                     #  THE OP CODE (MOD4) IS THREE (REVERSE).
000225:    6237           50000                           INDEX    A                                     #  NO - THE MODE IS DEFINITE. PICK UP THE
000226:    6240           46256                           CS       NO.WDS
000227:    6241           16247                           TCF      REGUP      +2
000228:
000229:    6242           50163                           INDEX    MODE                                  #  FOR VXSC AND V/SC WE WANT THE REQUIRED
000230:    6243           46254                           CS       REVCNT                                #  PUSHLOC DECREMENT WITHOUT CHANGING THE
000231:    6244           16247                           TCF      REGUP      +2                         #  MODE AT THIS TIME.
000232:
000233:    6245           50163        REGUP              INDEX    MODE                                  #  MOST ALL OP CODES PUSHUP HERE.
000234:    6246           46256                           CS       NO.WDS
000235:    6247           26166                 +2        ADS      PUSHLOC
000236:    6250           54116                           TS       ADDRWD
000237:    6251           50020        ITR14              INDEX    CYR
000238:    6252           76305                           7        INDJUMP    -1                         #  (THE INDEX MAKES THIS A TCF.)
000239:
000240:    6253           00002                           OCT      2                                     #  REVERSE PUSHUP DECREMENT. VECTOR TAKES 2
000241:    6254           00006        REVCNT             OCT      6                                     #  WORDS, SCALAR TAKES 6.
000242:    6255           00006                           OCT      6
000243:    6256           00002        NO.WDS             OCT      2                                     #  CONVENTIONAL DECREMENT IS 6 WORDS VECTOR
000244:    6257           00003        OCTAL3             OCT      3                                     #  2 IN DP, AND 3 IN TP.
000245:    6260           00006                           OCT      6
000246:


000248:                                                                                                  #           TEST THE SECOND PREFIX BIT TO SEE IF THIS IS A MISCELLANEOUS OR A UNARY/SHORT SHIFT OPERATION.
000249:
000250:    6261           10020        OPJUMP2            CCS      CYR                                   #  TEST SECOND PREFIX BIT.
000251:    6262           16275                           TCF      OPJUMP3                               #  TEST THIRD BIT TO SEE IF UNARY OR SHIFT.
000252:
000253:    6263           77722        -ENDVAC            DEC      -45        B-14
000254:
000255:                                                                                                  #           THE FOLLOWING ROUTINE PROCESSES ADDRESSES OF SUFFIX CLASS 10. THEY ARE BASICALLY WORK AREA ADDRESSES
000256:                                                                                                  #  IN THE RANGE 0 - 52, ERASABLE ECADR CONSTANTS FROM 100 - 3777, AND FCADRS ABOVE THAT. ALL 15 BITS ARE AVAILABLE
000257:                                                                                                  #  IN CONTRAST TO SUFFIX 1, IN WHICH ONLY THE LOW ORDER 14 ARE AVAILABLE.
000258:
000259:    6264           24164        15BITADR           INCR     LOC                                   #  (ENTRY HERE FROM STCALL).
000260:    6265           50164                           INDEX    LOC                                   #  PICK UP ADDRESS WORD.
000261:    6266           30000                           CA       0
000262:    6267           54117                           TS       POLISH                                #  WE MAY NEED A SUBADDRESS LATER.
000263:
000264:    6270           35013                           CAF      LOW7+2K                               #  THESE INSTRUCTIONS ARE IN BANK 1.
000265:    6271           54004                           TS       FBANK
000266:    6272           70020                           MASK     CYR
000267:    6273           50000        ITR7               INDEX    A
000268:    6274           16346                           TCF      MISCJUMP
000269:


000271:                                                                                                  #           COMPLETE THE DISPATCHING OF UNARY AND SHORT SHIFT OPERATIONS.
000272:
000273:    6275           54004        OPJUMP3            TS       FBANK                                 #  CALL IN BANK 0 (BITS 11-15 OF A ARE 0.)
000274:                                                                                                  #           ITRACE (6) REFERS TO "OPJUMP3".
000275:    6276           10020                           CCS      CYR                                   #  TEST THIRD PREFIX BIT.
000276:    6277           50000                           INDEX    A                                     #  THE DECREMENTED UNARY CODE IS IN BITS
000277:    6300           12000                           TCF      UNAJUMP                               #  1-4 OF A (ZERO, EXIT, HAS BEEN DETECTED)
000278:
000279:    6301           10163                           CCS      MODE                                  #  ITS A SHORT SHIFT CODE. SEE IF PRESENT
000280:    6302           12017                           TCF      SHORTT                                #  SCALAR OR VECTOR.
000281:    6303           12017                           TCF      SHORTT
000282:    6304           12121                           TCF      SHORTV                                #  CALLS THE APPROPRIATE ROUTINE.
000283:
000284:    6305     4350               FBANKMSK           EQUALS   BANKMASK
000285:    6305           00122        LVBUF              ADRES    VBUF
000286:


000288:                                                                                                  #           THE FOLLOWING IS THE JUMP TABLE FOR OP CODES WHICH MAY HAVE INDEXABLE ADDRESSES OR MAY PUSH UP.
000289:
000290:    6306           16517        INDJUMP            TCF      VLOAD                                 #  00 - LOAD MPAC WITH A VECTOR.
000291:    6307           17103                           TCF      TAD                                   #  01 - TRIPLE PRECISION ADD TO MPAC.
000292:    6310           17667                           TCF      SIGN                                  #  02 - COMPLEMENT MPAC (V OR SC) IF X NEG.
000293:    6311           17413                           TCF      VXSC                                  #  03 - VECTOR TIMES SCALAR.
000294:    6312           16715                           TCF      CGOTO                                 #  04 - COMPUTED GO TO.
000295:    6313           16502                           TCF      TLOAD                                 #  05 - LOAD MPAC WITH TRIPLE PRECISION.
000296:    6314           16064                           TCF      DLOAD                                 #  06 - LOAD MPAC WITH A DP SCALAR.
000297:    6315           17636                           TCF      V/SC                                  #  07 - VECTOR DIVIDED BY SCALAR.
000298:
000299:    6316           16513                           TCF      SLOAD                                 #  10 - LOAD MPAC IN SINGLE PRECISION.
000300:    6317           16632                           TCF      SSP                                   #  11 - SET SINGLE PRECISION INTO X.
000301:    6320           16535                           TCF      PDDL                                  #  12 - PUSH DOWN MPAC AND RE-LOAD IN DP.
000302:    6321           17346                           TCF      MXV                                   #  13 - MATRIX POST-MULTIPLIED BY VECTOR.
000303:    6322           16571                           TCF      PDVL                                  #  14 - PUSH DOWN AND VECTOR LOAD.
000304:    6323           16640                           TCF      CCALL                                 #  15 - COMPUTED CALL.
000305:    6324           17351                           TCF      VXM                                   #  16 - MATRIX PRE-MULTIPLIED BY VECTOR.
000306:    6325           17630                           TCF      TSLC                                  #  17 - NORMALIZE MPAC (SCALAR ONLY).
000307:
000308:    6326           17606                           TCF      DMPR                                  #  20 - DP MULTIPLY AND ROUND.
000309:    6327           17611                           TCF      DDV                                   #  21 - DP DIVIDE BY.
000310:    6330           17615                           TCF      BDDV                                  #  22 - DP DIVIDE INTO.
000311:    6331           17633                           TCF      GSHIFT                                #  23 - GENERAL SHIFT INSTRUCTION.
000312:    6332           16763                           TCF      VAD                                   #  24 - VECTOR ADD.
000313:    6333           16761                           TCF      VSU                                   #  25 - VECTOR SUBTRACT.
000314:    6334           17050                           TCF      BVSU                                  #  26 - VECTOR SUBTRACT FROM.
000315:    6335           17343                           TCF      DOT                                   #  27 - VECTOR DOT PRODUCT.
000316:
000317:    6336           17472                           TCF      VXV                                   #  30 - VECTOR CROSS PRODUCT.
000318:    6337           17437                           TCF      VPROJ                                 #  31 - VECTOR PROJECTION.
000319:    6340           17017                           TCF      DSU                                   #  32 - DP SUBTRACT.
000320:    6341           17074                           TCF      BDSU                                  #  33 - DP SUBTRACT FROM.
000321:    6342           17007                           TCF      DAD                                   #  34 - DP ADD.
000322:    6343           16343                           TCF      +0                                    #  35 - AVAILABLE
000323:    6344           17604                           TCF      DMP1                                  #  36 - DP MULTIPLY.
000324:    6345           17625                           TCF      SETPD                                 #  37 - SET PUSH DOWN POINTER (DIRECT ONLY)
000325:
000326:                                                                                                  #  CODES 10 AND 14 MUST NOT PUSH UP. CODE 04 MAY BE USED FOR VECTOR DECLARE BEFORE PUSHUP IF DESIRED.
000327:


000329:                                                                                                  #           THE FOLLOWING JUMP TABLE APPLIES TO INDEX, BRANCH, AND MISCELLANEOUS INSTRUCTIONS.
000330:
000331:    6346           12350        MISCJUMP           TCF      AXT                                   #  00 - ADDRESS TO INDEX TRUE.
000332:    6347           12355                           TCF      AXC                                   #  01 - ADDRESS TO INDEX COMPLEMENTED.
000333:    6350           12360                           TCF      LXA                                   #  02 - LOAD INDEX FROM ERASABLE.
000334:    6351           12364                           TCF      LXC                                   #  03 - LOAD INDEX FROM COMPLEMENT OF ERAS.
000335:    6352           12370                           TCF      SXA                                   #  04 - STORE INDEX IN ERASABLE.
000336:    6353           12376                           TCF      XCHX                                  #  05 - EXCHANGE INDEX WITH ERASABLE.
000337:    6354           12412                           TCF      INCR                                  #  06 - INCREMENT INDEX REGISTER.
000338:    6355           12421                           TCF      TIX                                   #  07 - TRANSFER ON INDEX.
000339:
000340:    6356           12404                           TCF      XAD                                   #  10 - INDEX REGISTER ADD FROM ERASABLE.
000341:    6357           12415                           TCF      XSU                                   #  11 - INDEX SUBTRACT FROM ERASABLE.
000342:    6360           12473                           TCF      BZE/GOTO                              #  12 - BRANCH ZERO AND GOTO.
000343:    6361           12500                           TCF      BPL/BMN                               #  13 - BRANCH PLUS AND BRANCH MINUS.
000344:    6362           12453                           TCF      RTB/BHIZ                              #  14 - RETURN TO BASIC AND BRANCH HI ZERO.
000345:    6363           12513                           TCF      CALL/ITA                              #  15 - CALL AND STORE QPRET.
000346:    6364           12522                           TCF      SW/                                   #  16 - SWITCH INSTRUCTIONS AND AVAILABLE.
000347:    6365           12463                           TCF      BOV(B)                                #  17 - BRANCH ON OVERFLOW TO BASIC OR INT.
000348:


000350:                                                                                                  #           THE FOLLOWING JUMP TABLE APPIES TO UNARY INSTRUCTIONS.
000351:
000352:    6366                                           COUNT*   $$/INTER
000353: 00,2000                                           BANK     0                                     #  00 - EXIT - DETECTED EARLIER.
000354: 00,2000           13207        UNAJUMP            TCF      SQRT                                  #  01 - SQUARE ROOT.
000355: 00,2001           13530                           TCF      SINE                                  #  02 - SIN.
000356: 00,2002           13517                           TCF      COSINE                                #  03 - COS.
000357: 00,2003           13610                           TCF      ARCSIN                                #  04 - ARC SIN.
000358: 00,2004           13612                           TCF      ARCCOS                                #  05 - ARC COS.
000359: 00,2005           13174                           TCF      DSQ                                   #  06 - DP SQUARE.
000360: 00,2006           12116                           TCF      ROUND                                 #  07 - ROUND TO DP.
000361:
000362: 00,2007           17702                           TCF      COMP                                  #  10 - COMPLEMENT VECTOR OR SCALAR.
000363: 00,2010           13232                           TCF      VDEF                                  #  11 - VECTOR DEFINE.
000364: 00,2011           13023                           TCF      UNIT                                  #  12 - UNIT VECTOR.
000365: 00,2012           13176                           TCF      ABVALABS                              #  13 - LENGTH OF VECTOR OR MAG OF SCALAR.
000366: 00,2013           13245                           TCF      VSQ                                   #  14 - SQUARE OF LENGTH OF VECTOR.
000367: 00,2014           16366                           TCF      STADR                                 #  15 - PUSH UP ON STORE CODE.
000368: 00,2015           13274                           TCF      RVQ                                   #  16 - RETURN VIA QPRET.
000369: 00,2016           13247                           TCF      PUSH                                  #  17 - PUSH MPAC DOWN.
000370:


000372:                                                                                                  #  SECTION 2  LOAD AND STORE PACKAGE.
000373:
000374:                                                                                                  #           A SET OF EIGHT STORE CODES IS PROVIDED AS THE PRIMARY METHOD OF STORING THE MULTI-PURPOSE
000375:                                                                                                  #  ACCUMULATOR (MPAC). IF IN THE DANZIG SECTION LOC REFERS TO AN ALGEBRAICALLY POSITIVE WORD, IT IS TAKEN AS A
000376:                                                                                                  #  STORE CODE WITH A CORRESPONDING ERASABLE ADDRESS. MOST OF THESE CODES ARE TWO ADDRESS, SPECIFYING THAT THE WORD
000377:                                                                                                  #  FOLLOWING THE STORE CODE IS TO BE USED AS AN ADDRESS FROM WHICH TO RE-LOAD MPAC. FOUR OPTIONS ARE AVAILABLE:
000378:
000379:                                                                                                  #           1. STORE               STORE MPAC. THE E ADDRESS MAY BE INDEXED.
000380:                                                                                                  #           2. STODL               STORE MPAC AND RE-LOAD IT IN DP WITH THE NEXT ADDRESS (THE LOAD MAY BE INDEXED).
000381:                                                                                                  #           3. STOVL               STORE MPAC AND RE-LOAD A VECTOR (AS ABOVE).
000382:                                                                                                  #           4. STCALL              STORE AND DO A CALL (BOTH ADDRESSES MUST BE DIRECT HERE).
000383:
000384:                                                                                                  #           STODL AND STOVL WILL TAKE FROM THE PUSH-DOWN LIST IF NO LOAD ADDRESS IS GIVEN.
000385:
000386:    6366                                           BLOCK    3
000387:
000388:    6366                                           COUNT*   $$/INTER
000389:    6366           30165        STADR              CA       BANKSET                               #  THE STADR CODE (PUSHUP UP ON STORE
000390:    6367           54004                           TS       FBANK                                 #  ADDRESS) ENTERS HERE.
000391:    6370           24164                           INCR     LOC
000392:    6371           50164        ITR1               INDEX    LOC                                   #  THE STORECODE WAS STORED COMPLEMENTED TO
000393:    6372           40000                           CS       0                                     #  MAKE IT LOOK LIKE AN OPCODE PAIR.
000394:    6373           67761                           AD       NEGONE                                #  (YUL CANT REMOVE 1 BECAUSE OF EARLY CCS)
000395:
000396:    6374           54116        DOSTORE            TS       ADDRWD
000397:    6375           74356                           MASK     LOW11                                 #  ENTRY FROM DISPATCHER. SAVE THE ERASABLE
000398:    6376           56116                           XCH      ADDRWD                                #  ADDRESS AND JUMP ON THE STORE CODE NO.
000399:    6377           77734                           MASK     B12T14
000400:    6400           00006                           EXTEND
000401:    6401           74747                           MP       BIT5                                  #  EACH TRANSFER VECTOR ENTRY IS TWO WORDS.
000402:    6402           50000        ITR0               INDEX    A
000403:    6403           16404                           TCF      STORJUMP
000404:


000406:                                                                                                  #           STORE CODE JUMP TABLE. CALLS THE APPROPRIATE STORING ROUTINE AND EXITS TO DANZIG OR TO ADDRESS WITH
000407:                                                                                                  #  A SUPPLIED OPERATION CODE.
000408:
000409:                                                                                                  #           STORE STORE,1 AND STORE,2 RETURN TO DANZIG, THUS RESETTING THE EBANK TO ITS STATE AT INTPRET.
000410:
000411:    6404           06434        STORJUMP           TC       STORE                                 #  STORE.
000412:    6405           16073                           TCF      DANZIG                                #  PICK UP NEW OP CODE(S).
000413:    6406           06426                           TC       STORE,1
000414:    6407           16073                           TCF      DANZIG
000415:    6410           06431                           TC       STORE,2
000416:    6411           16073                           TCF      DANZIG
000417:
000418:    6412           06434                           TC       STORE                                 #  STODL.
000419:    6413           16472                           TCF      DODLOAD
000420:
000421:    6414           06434                           TC       STORE                                 #  STODL WITH INDEXED LOAD ADDRESS.
000422:    6415           16156                           TCF      DODLOAD*
000423:
000424:    6416           06434                           TC       STORE                                 #  STOVL.
000425:    6417           16475                           TCF      DOVLOAD
000426:
000427:    6420           06434                           TC       STORE                                 #  STOVL WITH INDEXED LOAD ADDRESS.
000428:    6421           16500                           TCF      DOVLOAD*
000429:    6422           06434                           TC       STORE                                 #  STOTC.
000430:    6423           34766                           CAF      CALLCODE
000431:    6424           54020                           TS       CYR
000432:    6425           16264                           TCF      15BITADR                              #  GET A 15 BIT ADDRESS.
000433:


000435:                                                                                                  #           STORE CODE ADDRESS PROCESSOR.
000436:
000437:    6426           50120        STORE,1            INDEX    FIXLOC
000438:    6427           40046                           CS       X1
000439:    6430           16433                           TCF      PRESTORE
000440:
000441:    6431           50120        STORE,2            INDEX    FIXLOC
000442:    6432           40047                           CS       X2
000443:    6433           26116        PRESTORE           ADS      ADDRWD                                #  RESULTANT ADDRESS IS IN ERASABLE.
000444:
000445:    6434           40116        STORE              CS       ADDRWD
000446:    6435           64772                           AD       DEC45
000447:    6436           10000                           CCS      A                                     #  DOES THE ADDRESS POINT TO THE WORK AREA?
000448:    6437           30120                           CA       FIXLOC                                #  YES.
000449:    6440           16445                           TCF      AHEAD5
000450:    6441           35007                           CA       OCT1400                               #  NO.  SET EBANK & MAKE UP SUBADDRESS.
000451:    6442           56116                           XCH      ADDRWD
000452:    6443           54003                           TS       EBANK
000453:    6444           74357                           MASK     LOW8
000454:    6445           26116        AHEAD5             ADS      ADDRWD
000455:


000457:                                                                                                  #           STORING ROUTINES. STORE DP, TP, OR VECTOR AS INDICATED BY MODE.
000458:
000459:    6446           00006        STARTSTO           EXTEND                                         #  MPAC,+1 MUST BE STORED IN ANY EVENT.
000460:                                                                                                  #           ITRACE (5) REFERS TO "STARTSTO".
000461:    6447           30155                           DCA      MPAC
000462:    6450           50116                           INDEX    ADDRWD
000463:    6451           52001                           DXCH     0
000464:
000465:    6452           10163                           CCS      MODE
000466:    6453           16466                           TCF      TSTORE
000467:    6454           00002                           TC       Q
000468:
000469:    6455           00006        VSTORE             EXTEND
000470:    6456           30160                           DCA      MPAC       +3
000471:    6457           50116                           INDEX    ADDRWD
000472:    6460           52003                           DXCH     2
000473:
000474:    6461           00006                           EXTEND
000475:    6462           30162                           DCA      MPAC       +5
000476:    6463           50116                           INDEX    ADDRWD
000477:    6464           52005                           DXCH     4
000478:    6465           00002                           TC       Q
000479:
000480:    6466           30156        TSTORE             CA       MPAC       +2
000481:    6467           50116                           INDEX    ADDRWD
000482:    6470           54002                           TS       2
000483:    6471           00002                           TC       Q
000484:


000486:                                                                                                  #           ROUTINES TO BEGIN PROCESSING OF THE SECOND ADDRESS ASSOCIATED WITH ALL STORE-TYPE CODES EXCEPT STORE
000487:                                                                                                  #  ITSELF.
000488:
000489:    6472           37744        DODLOAD            CAF      DLOADCOD
000490:    6473           54020                           TS       CYR
000491:    6474           16120                           TCF      DIRADRES                              #  GO GET A DIRECT ADDRESS.
000492:
000493:    6475           34735        DOVLOAD            CAF      VLOADCOD
000494:    6476           54020                           TS       CYR
000495:    6477           16120                           TCF      DIRADRES
000496:
000497:    6500           36121        DOVLOAD*           CAF      VLOAD*
000498:    6501           16157                           TCF      DODLOAD*   +1                         #  PROLOGUE TO INDEX ROUTINE.
000499:


000501:                                                                                                  #           THE FOLLOWING LOAD INSTRUCTIONS ARE PROVIDED FOR LOADING THE MULTI-PURPOSE ACCUMULATOR MPAC.
000502:
000503:    6502           50116        TLOAD              INDEX    ADDRWD
000504:    6503           30002                           CA       2                                     #  LOAD A TRIPLE PRECISION ARGUMENT INTO
000505:    6504           54156                           TS       MPAC       +2                         #  THE FIRST THREE MPAC REGISTERS, WITH THE
000506:    6505           00006                           EXTEND                                         #  CONTENTS OF THE OTHER FOUR IRRELEVANT.
000507:    6506           50116                           INDEX    ADDRWD
000508:    6507           30001                           DCA      0
000509:    6510           52155                           DXCH     MPAC
000510:    6511           34753        TMODE              CAF      ONE
000511:    6512           16072                           TCF      NEWMODE                               #  DECLARE TRIPLE PRECISION MODE.
000512:
000513:    6513           22007        SLOAD              ZL                                             #  LOAD A SINGLE PRECISION NUMBER INTO
000514:    6514           50116                           INDEX    ADDRWD                                #  MPAC, SETTING MPAC+1,2 TO ZERO. THE
000515:    6515           30000                           CA       0                                     #  CONTENTS OF THE REMAINING MPAC REGISTERS
000516:    6516           16067                           TCF      SLOAD2                                #  ARE IRRELEVANT.
000517:
000518:    6517           00006        VLOAD              EXTEND                                         #  LOAD A DOUBLE PRECISION VECTOR INTO
000519:    6520           50116                           INDEX    ADDRWD                                #  MPAC,+1, MPAC+3,4, AND MPAC+5,6. THE
000520:    6521           30001                           DCA      0                                     #  CONTENTS OF MPAC +2 ARE IRRELEVANT.
000521:    6522           52155                           DXCH     MPAC
000522:
000523:    6523           00006        ENDVLOAD           EXTEND                                         #  PDVL COMES HERE TO FINISH UP FOR DP, TP.
000524:    6524           50116                           INDEX    ADDRWD
000525:    6525           30003                           DCA      2
000526:    6526           52160                           DXCH     MPAC       +3
000527:
000528:    6527           00006                 +4        EXTEND                                         #  TPDVL FINISHES HERE.
000529:    6530           50116                           INDEX    ADDRWD
000530:    6531           30005                           DCA      4
000531:    6532           52162                           DXCH     MPAC       +5
000532:
000533:    6533           44753        VMODE              CS       ONE                                   #  DECLARE VECTOR MODE.
000534:    6534           16072                           TCF      NEWMODE
000535:


000537:                                                                                                  #           THE FOLLOWING INSTRUCTIONS ARE PROVIDED FOR STORING OPERANDS IN THE PUSHDOWN LIST:
000538:
000539:                                                                                                  #           1.  PUSH               PUSHDOWN AND NO LOAD.
000540:                                                                                                  #           2.  PDDL               PUSHDOWN AND DOUBLE PRECISION LOAD.
000541:                                                                                                  #           3.  PDVL               PUSHDOWN AND VECTOR LOAD.
000542:
000543:    6535           00006        PDDL               EXTEND
000544:    6536           50116                           INDEX    ADDRWD                                #  LOAD MPAC,+1, PUSHING THE FORMER
000545:    6537           30001                           DCA      0                                     #  CONTENTS DOWN.
000546:    6540           52155                           DXCH     MPAC
000547:    6541           50166                           INDEX    PUSHLOC
000548:    6542           52001                           DXCH     0
000549:
000550:    6543           50163                           INDEX    MODE                                  #  ADVANCE THE PUSHDOWN POINTER APPRO-
000551:    6544           36256                           CAF      NO.WDS                                #  PRIATELY.
000552:    6545           26166                           ADS      PUSHLOC
000553:
000554:    6546           10163                           CCS      MODE
000555:    6547           16564                           TCF      ENDTPUSH
000556:    6550           16562                           TCF      ENDDPUSH
000557:
000558:    6551           54163                           TS       MODE                                  #  NOW DP.
000559:    6552           54156        ENDVPUSH           TS       MPAC       +2
000560:    6553           52160                           DXCH     MPAC       +3                         #  PUSH DOWN THE REST OF THE VECTOR HERE.
000561:    6554           50166                           INDEX    PUSHLOC
000562:    6555           51775                           DXCH     0          -4
000563:
000564:    6556           52162                           DXCH     MPAC       +5
000565:    6557           50166                           INDEX    PUSHLOC
000566:    6560           51777                           DXCH     0          -2
000567:
000568:    6561           16073                           TCF      DANZIG
000569:
000570:    6562           54156        ENDDPUSH           TS       MPAC       +2                         #  SET MPAC +2 TO ZERO AND EXIT ON DP.
000571:    6563           16073                           TCF      DANZIG
000572:
000573:    6564           54163        ENDTPUSH           TS       MODE
000574:    6565           56156                           XCH      MPAC       +2                         #  ON TRIPLE, SET MPAC +2 TO ZERO, PUSHING
000575:    6566           50166                 +2        INDEX    PUSHLOC                               #  DOWN THE OLD CONTENTS
000576:    6567           53777                           TS       0          -1
000577:    6570           16073                           TCF      DANZIG
000578:


000580:                                                                                                  #           PDVL - PUSHDOWN AND VECTOR LOAD.
000581:
000582:    6571           00006        PDVL               EXTEND                                         #  RELOAD MPAC AND PUSH DOWN ITS CONTENTS.
000583:    6572           50116                           INDEX    ADDRWD
000584:    6573           30001                           DCA      0
000585:    6574           52155                           DXCH     MPAC
000586:    6575           50166                           INDEX    PUSHLOC
000587:    6576           52001                           DXCH     0
000588:
000589:    6577           50163                           INDEX    MODE                                  #  ADVANCE THE PUSHDOWN POINTER.
000590:    6600           36256                           CAF      NO.WDS
000591:    6601           26166                           ADS      PUSHLOC
000592:
000593:    6602           10163                           CCS      MODE                                  #  TEST PAST MODE.
000594:    6603           16622                           TCF      TPDVL
000595:    6604           16523                           TCF      ENDVLOAD                              #  JUST LOAD LAST FOUR REGISTERS ON DP.
000596:
000597:    6605           00006        VPDVL              EXTEND                                         #  PUSHDOWN AND RE-LOAD LAST TWO COMPONENTS
000598:    6606           50116                           INDEX    ADDRWD
000599:    6607           30003                           DCA      2
000600:    6610           52160                           DXCH     MPAC       +3
000601:    6611           50166                           INDEX    PUSHLOC
000602:    6612           51775                           DXCH     0          -4
000603:
000604:    6613           00006                           EXTEND
000605:    6614           50116                           INDEX    ADDRWD
000606:    6615           30005                           DCA      4
000607:    6616           52162                           DXCH     MPAC       +5
000608:    6617           50166                           INDEX    PUSHLOC
000609:    6620           51777                           DXCH     0          -2
000610:
000611:    6621           16073                           TCF      DANZIG
000612:
000613:    6622           00006        TPDVL              EXTEND                                         #  ON TP, WE MUST LOAD THE Y COMPONENT
000614:    6623           50116                           INDEX    ADDRWD                                #  BEFORE STORING MPAC +2 INCASE THIS IS A
000615:    6624           30003                           DCA      2                                     #  PUSHUP.
000616:    6625           52160                           DXCH     MPAC       +3
000617:
000618:    6626           30156                           CA       MPAC       +2
000619:    6627           50166                           INDEX    PUSHLOC                               #  IN DP.
000620:    6630           53777                           TS       0          -1
000621:    6631           16527                           TCF      ENDVLOAD   +4
000622:
000623:                                                                                                  #           SSP (STORE SINGLE PRECISION) IS EXECUTED HERE.
000624:
000625:    6632           24164        SSP                INCR     LOC                                   #  PICK UP THE WORD FOLLOWING THE GIVEN
000626:    6633           50164                           INDEX    LOC                                   #  ADDRESS AND STORE IT AT X.
000627:    6634           30000                           CA       0
000628:    6635           50116        STORE1             INDEX    ADDRWD                                #  SOME INDEX AND MISCELLANEOUS OPS END
000629:    6636           54000                           TS       0                                     #  HERE.


000631:    6637           16073                           TCF      DANZIG
000632:


000634:                                                                                                  #  SEQUENCE CHANGING AND SUBROUTINE CALLING OPTIONS.
000635:
000636:                                                                                                  #           THE FOLLOWING OPERATIONS ARE AVAILABLE FOR SEQUENCING CHANGING, BRANCHING, AND CALLING SUBROUTINES:
000637:
000638:                                                                                                  #           1.  GOTO               GO TO.
000639:                                                                                                  #           2.  CALL               CALL SUBROUTINE SETTING QPRET.
000640:                                                                                                  #           3.  CGOTO              COMPUTED GO TO.
000641:                                                                                                  #           4.  CCALL              COMPUTED CALL.
000642:                                                                                                  #           7.  BPL                BRANCH IF MPAC POSITIVE OR ZERO.
000643:                                                                                                  #           8.  BZE                BRANCH IF MPAC ZERO.
000644:                                                                                                  #           9.  BMN                BRANCH IF MPAC NEGATIVE NON-ZERO.
000645:
000646:    6640           24164        CCALL              INCR     LOC                                   #  MAINTAIN LOC FOR QPRET COMPUTATION.
000647:    6641           50164                           INDEX    LOC
000648:    6642           30000                           CAF      0                                     #  GET BASE ADDRESS OF CADR LIST.
000649:    6643           50116                           INDEX    ADDRWD
000650:    6644           60000                           AD       0                                     #  ADD INCREMENT.
000651:    6645           54004                           TS       FBANK                                 #  SELECT DESIRED CADR.
000652:    6646           75012                           MASK     LOW10
000653:    6647           50000                           INDEX    A
000654:    6650           32000                           CAF      10000
000655:    6651           54117                           TS       POLISH
000656:
000657:    6652           30165        CALL               CA       BANKSET                               #  FOR ANY OF THE CALL OPTIONS, MAKE UP THE
000658:    6653           74350                           MASK     BANKMASK                              #  ADDRESS OF THE NEXT OP-CODE PAIR/STORE
000659:    6654           64350                           AD       BANKMASK                              #  CODE AND LEAVE IT IN QPRET.  NOTE THAT
000660:    6655           60164                           AD       LOC                                   #  BANKMASK = -(2000 - 1).
000661:    6656           50120                           INDEX    FIXLOC
000662:    6657           54052                           TS       QPRET
000663:
000664:    6660           30117        GOTO               CA       POLISH                                #  BASIC BRANCHING SEQUENCE.
000665:    6661           77754                 +1        MASK     HIGH4
000666:    6662           00006                           EXTEND
000667:    6663           16674                           BZF      GOTOERS                               #  SEE IF ADDRESS POINTS TO FIXED OR ERAS.
000668:    6664           30165                 +4        CA       BANKSET                               #  SET EBANK PART OF BBANK. NEXT, SET UP
000669:    6665           54006                           TS       BBANK                                 #  FBANK. THE COMBINATION IS PICKED UP &
000670:    6666           30117                           CA       POLISH                                #  PUT INTO BANKSET AT INTPRET +2.
000671:    6667           54004                           TS       FBANK
000672:    6670           75012                           MASK     LOW10
000673:    6671           64741                           AD       2K
000674:    6672           54164                           TS       LOC
000675:    6673           16054                           TCF      INTPRET    +3
000676:
000677:    6674  E3,1400                                  EBANK=   1400                                  #  SO YUL DOESN'T CUSS THE "CA 1400" BELOW.
000678:
000679:    6674           30117        GOTOERS            CA       POLISH                                #  THE GIVEN ADDRESS IS IN ERASABLE - SEE
000680:    6675           66263                           AD       -ENDVAC                               #  IF RELATIVE TO THE WORK AREA.
000681:    6676           10000                           CCS      A
000682:    6677           30117                           CA       POLISH                                #  GENERAL ERASABLE.
000683:    6700           16707                           TCF      GOTOGE
000684:


000686:    6701           30120                           CA       FIXLOC                                #  WORK AREA.
000687:    6702           60117                           AD       POLISH
000688:    6703           50000                           INDEX    A                                     #  USE THE GIVEN ADDRESS AS THE ADDRESS OF
000689:    6704           30000                           CA       0                                     #  THE BRANCH ADDRESS.
000690:    6705           54117                           TS       POLISH
000691:    6706           16661                           TCF      GOTO       +1                         #  ALLOWS ARBITRARY INDIRECTNESS LEVELS.
000692:
000693:    6707           54003        GOTOGE             TS       EBANK
000694:    6710           74357                           MASK     LOW8
000695:    6711           50000                           INDEX    A                                     #  USE THE GIVEN ADDRESS AS THE ADDRESS OF
000696:    6712           31400                           CA       1400                                  #  THE BRANCH ADDRESS.
000697:    6713           54117                           TS       POLISH
000698:    6714           16661                           TCF      GOTO       +1
000699:
000700:    6715           50164        CGOTO              INDEX    LOC                                   #  COMPUTED GO TO. PICK UP ADDRESS OF CADR
000701:    6716           30001                           CA       1                                     #  LIST.
000702:    6717           50116                           INDEX    ADDRWD                                #  ADD MODIFIER.
000703:    6720           60000                           AD       0
000704:    6721           54004                           TS       FBANK                                 #  SELECT GOTO ADDRESS.
000705:    6722           75012                           MASK     LOW10
000706:    6723           50000                           INDEX    A
000707:    6724           32000                           CA       10000
000708:    6725           54117                           TS       POLISH
000709:    6726           16661                           TCF      GOTO       +1                         #  WITH ADDRESS IN A.
000710:
000711:    6727           30165        SWBRANCH           CA       BANKSET                               #  SWITCH INSTRUCTIONS WHICH ELECT TO
000712:    6730           54004                           TS       FBANK                                 #  BRANCH COME HERE TO DO SO.
000713:    6731           50164                           INDEX    LOC
000714:    6732           30001                           CA       1
000715:    6733           54117                           TS       POLISH
000716:    6734           16661                           TCF      GOTO       +1
000717:


000719:                                                                                                  #           TRIPLE PRECISION BRANCHING ROUTINE. IF CALLING TC IS AT L, RETURN IS AS FOLLOWS:
000720:
000721:                                                                                                  #           L+1  IF MPAC IS GREATER THAN ZERO.
000722:                                                                                                  #           L+2  IF MPAC IS EQUAL TO +0 OR -0.
000723:                                                                                                  #           L+3  IF MPAC IS LESS THAN ZERO.
000724:
000725:    6735           10154        BRANCH             CCS      MPAC
000726:    6736           00002                           TC       Q
000727:    6737           16741                           TCF      +2                                    #  ON ZERO.
000728:    6740           16753                           TCF      NEG
000729:
000730:    6741           10155                           CCS      MPAC       +1
000731:    6742           00002                           TC       Q
000732:    6743           16745                           TCF      +2
000733:    6744           16753                           TCF      NEG
000734:
000735:    6745           10156                           CCS      MPAC       +2
000736:    6746           00002                           TC       Q
000737:    6747           16751                           TCF      +2
000738:    6750           16753                           TCF      NEG
000739:
000740:    6751           50002        Q+1                INDEX    Q
000741:    6752           00001                           TC       1
000742:
000743:    6753           50002        NEG                INDEX    Q                                     #  IF FIRST NON-ZERO REGISTER WAS NEGATIVE.
000744:    6754           00002                           TC       2
000745:
000746:
000747:    6755     6753               Q+2                =        NEG
000748:
000749:                                                                                                  #           ITRACE (3) REFERS TO "EXIT".
000750:    6755           30165        EXIT               CA       BANKSET                               #  RESTORE USER'S BANK SETTING, AND LEAVE
000751:    6756           54006                           TS       BBANK                                 #  INTERPRETIVE MODE.
000752:    6757           50164                           INDEX    LOC
000753:    6760           00001                           TC       1
000754:


000756:                                                                                                  #  SECTION 3 - ADD/SUBTRACT PACKAGE.
000757:
000758:                                                                                                  #           THE FOLLOWING OPERATIONS ARE PROVIDED FOR ADDING TO AND SUBTRACTING FROM THE MULTI-PURPOSE ACCUMULATOR
000759:                                                                                                  #  MPAC:
000760:
000761:                                                                                                  #           1.  DAD                DOUBLE PRECISION ADD.
000762:                                                                                                  #           2.  DSU                DOUBLE PRECISION SUBTRACT.
000763:                                                                                                  #           3.  BDSU               DOUBLE PRECISION SUBTRACT FROM.
000764:
000765:                                                                                                  #           4.  TAD                TRIPLE PRECISION ADD.
000766:
000767:                                                                                                  #           5.  VAD                VECTOR ADD.
000768:                                                                                                  #           6.  VSU                VECTOR SUBTRACT.
000769:                                                                                                  #           7.  BVSU               VECTOR SUBTRACT FROM.
000770:
000771:                                                                                                  #  THE INTERPRETIVE OVERFLOW INDICATOR OVFIND IS SET NON-ZERO IF OVERFLOW OCCURS IN ANY OF THE ABOVE.
000772:
000773:    6761           34735        VSU                CAF      BIT15                                 #  CHANGES 0 TO DCS.
000774:    6762           16764                           TCF      +2
000775:
000776:    6763           34355        VAD                CAF      PRIO30                                #  CHANGES 0 TO DCA.
000777:    6764           26116                           ADS      ADDRWD
000778:    6765           00006                           EXTEND
000779:    6766           50116                           INDEX    ADDRWD
000780:    6767           00003                           READ     HISCALAR                              #  DCA  2   OR   DCS  2
000781:    6770           20160                           DAS      MPAC       +3
000782:    6771           00006                           EXTEND                                         #  CHECK OVERFLOW.
000783:    6772           16774                           BZF      +2
000784:    6773           07026                           TC       OVERFLWY
000785:
000786:    6774           00006                           EXTEND
000787:    6775           50116                           INDEX    ADDRWD
000788:    6776           00005                           READ     CHAN5                                 #  DCA  4  OR  DCS  4
000789:    6777           20162                           DAS      MPAC       +5
000790:    7000           00006                           EXTEND
000791:    7001           17003                           BZF      +2
000792:    7002           07023                           TC       OVERFLWZ
000793:
000794:    7003           00006                           EXTEND
000795:    7004           50116                           INDEX    ADDRWD
000796:    7005           00001                           READ     LCHAN                                 #  DCA  0  OR  DCS  0
000797:    7006           17012                           TCF      ENDVXV
000798:
000799:    7007           00006        DAD                EXTEND
000800:    7010           50116                           INDEX    ADDRWD
000801:    7011           30001                           DCA      0
000802:    7012           20155        ENDVXV             DAS      MPAC                                  #  VXV FINISHES HERE.
000803:    7013           00006                           EXTEND
000804:    7014           16073                           BZF      DANZIG
000805:


000807:    7015           07031        SETOVF             TC       OVERFLOW
000808:    7016           16073                           TCF      DANZIG
000809:


000811:    7017           00006        DSU                EXTEND
000812:    7020           50116                           INDEX    ADDRWD
000813:    7021           40001                           DCS      0
000814:    7022           17012                           TCF      ENDVXV
000815:
000816:    7023           54001        OVERFLWZ           TS       L                                     #  ENTRY FOR THIRD COMPONENT.
000817:    7024           34756                           CAF      FIVE
000818:    7025           17030                           TCF      +3
000819:
000820:    7026           54001        OVERFLWY           TS       L                                     #  ENTRY FOR SECOND COMPONENT.
000821:    7027           36257                           CAF      THREE
000822:    7030           56001                           XCH      L
000823:
000824:    7031           50000        OVERFLOW           INDEX    A                                     #  ENTRY FOR 1ST COMP OR DP (L=0).
000825:    7032           44734                           CS       LIMITS                                #  PICK UP POSMAX OR NEGMAX.
000826:    7033           54130                           TS       BUF
000827:    7034           00006                           EXTEND
000828:    7035           24000                           AUG      A                                     #  FORCE OVERFLOW.
000829:    7036           50001                           INDEX    L
000830:    7037           26155                           ADS      MPAC       +1
000831:    7040           54007                           TS       7
000832:    7041           34755                           CAF      ZERO
000833:    7042           60130                           AD       BUF
000834:    7043           50001                           INDEX    L
000835:    7044           26154                           ADS      MPAC
000836:    7045           54007                           TS       7
000837:    7046           00002                           TC       Q                                     #  NO OVERFLOW EXIT.
000838:    7047           17164                           TCF      SETOVF2                               #  SET OVFIND AND EXIT.
000839:
000840:    7050           00006        BVSU               EXTEND
000841:    7051           50116                           INDEX    ADDRWD
000842:    7052           30003                           DCA      2
000843:    7053           52160                           DXCH     MPAC       +3
000844:    7054           00006                           EXTEND
000845:    7055           40001                           DCOM
000846:    7056           20160                           DAS      MPAC       +3
000847:    7057           00006                           EXTEND
000848:    7060           17062                           BZF      +2
000849:    7061           07026                           TC       OVERFLWY
000850:
000851:    7062           00006                           EXTEND
000852:    7063           50116                           INDEX    ADDRWD
000853:    7064           30005                           DCA      4
000854:    7065           52162                           DXCH     MPAC       +5
000855:    7066           00006                           EXTEND
000856:    7067           40001                           DCOM
000857:    7070           20162                           DAS      MPAC       +5
000858:    7071           00006                           EXTEND
000859:    7072           17074                           BZF      +2
000860:    7073           07023                           TC       OVERFLWZ
000861:


000863:    7074           00006        BDSU               EXTEND
000864:    7075           50116                           INDEX    ADDRWD
000865:    7076           30001                           DCA      0
000866:    7077           52155                           DXCH     MPAC
000867:    7100           00006                           EXTEND
000868:    7101           40001                           DCOM
000869:    7102           17012                           TCF      ENDVXV
000870:


000872:                                                                                                  #           TRIPLE PRECISION ADD ROUTINE.
000873:
000874:    7103           00006        TAD                EXTEND
000875:    7104           50116                           INDEX    ADDRWD
000876:    7105           30002                           DCA      1                                     #  ADD MINOR PARTS FIRST.
000877:    7106           20156                           DAS      MPAC       +1
000878:    7107           50116                           INDEX    ADDRWD
000879:    7110           60000                           AD       0
000880:    7111           60154                           AD       MPAC
000881:    7112           54154                           TS       MPAC
000882:    7113           16073                           TCF      DANZIG
000883:
000884:    7114           17015                           TCF      SETOVF                                #  SET OVFIND IF SUCH OCCURS.
000885:


000887:                                                                                                  #  ARITHMETIC SUBROUTINES REQUIRED IN FIXED-FIXED.
000888:
000889:                                                                                                  #           1.  DMPSUB     DOUBLE PRECISION MULTIPLY. MULTIPLY THE CONTENTS OF MPAC,+1 BY THE DP WORD WHOSE ADDRESS
000890:                                                                                                  #                          IS IN ADDRWD AND LEAVE A TRIPLE PRECISION RESULT IN MPAC.
000891:                                                                                                  #           2.  ROUNDSUB   ROUND THE TRIPLE PRECISON CONTENTS OF MPAC TO DOUBLE PRECISION.
000892:                                                                                                  #           3.  DOTSUB     TAKE THE DOT PRODUCT OF THE VECTOR IN MPAC AND THE VECTOR WHOSE ADDRESS IS IN ADDRWD
000893:                                                                                                  #                          AND LEAVE THE TRIPLE PRECISION RESULT IN MPAC.
000894:                                                                                                  #           4.  POLY       USING THE CONTENTS OF MPAC AS A DP ARGUMENT, EVALUATE THE POLYNOMIAL WHOSE DEGREE AND
000895:                                                                                                  #                          COEFFICIENTS IMMEDIATELY FOLLOW THE TC POLY INSTRUCTION (SEE ROUTINE FOR DETAILS.)
000896:
000897:
000898:    7115           50002        DMP                INDEX    Q                                     #  BASIC SUBROUTINE FOR USE BY PINBALL, ETC
000899:    7116           30000                           CAF      0                                     #  ADRES OF ARGUMENT FOLLOWS  TC DMP  .
000900:    7117           24002                           INCR     Q
000901:    7120           54116                 -1        TS       ADDRWD                                #  (PROLOGUE FOR SETTING ADDRWD.)
000902:
000903:    7121           50116        DMPSUB             INDEX    ADDRWD                                #  GET MINOR PART OF OPERAND AT C(ADDRWD).
000904:    7122           30001                           CA       1
000905:    7123           54156                           TS       MPAC       +2                         #  THIS WORKS FOR SQUARING MPAC AS WELL.
000906:    7124           34755                           CAF      ZERO                                  #  SET MPAC +1 TO ZERO SO WE CAN ACCUMULATE
000907:    7125           56155                           XCH      MPAC       +1                         #  THE PARTIAL PRODUCTS WITH DAS
000908:    7126           54135                           TS       MPTEMP                                #  INSTRUCTIONS.
000909:    7127           00006                           EXTEND
000910:    7130           70156                           MP       MPAC       +2                         #  MINOR OF MPAC X MINOR OF C(ADDRWD).
000911:
000912:    7131           56156                           XCH      MPAC       +2                         #  DISCARD MINOR PART OF ABOVE RESULT AND
000913:    7132           00006                           EXTEND                                         #  FORM MAJOR OF MPAC X MINOR OF C(ADDRWD).
000914:    7133           70154                           MP       MPAC
000915:    7134           20156                           DAS      MPAC       +1                         #  GUARANTEED NO OVERFLOW.
000916:
000917:    7135           50116                           INDEX    ADDRWD                                #  GET MAJOR PART OF ARGUMENT AT C(ADDRWD).
000918:    7136           30000                           CA       0
000919:    7137           56135                           XCH      MPTEMP                                #  SAVE AND BRING OUT MINOR OF MPAC.
000920:    7140           00006        DMPSUB2            EXTEND
000921:    7141           70135                           MP       MPTEMP                                #  MAJOR OF C(ADDRWD) X MINOR OF MPAC.
000922:    7142           20156                           DAS      MPAC       +1                         #  ACCUMULATE, SETTING A TO NET OVERFLOW.
000923:
000924:    7143           56154                           XCH      MPAC                                  #  SETTING MPAC TO 0 OR +-1.
000925:    7144           00006                           EXTEND
000926:    7145           70135                           MP       MPTEMP                                #  MAJOR OF MPAC X MAJOR OF C(ADDRWD).
000927:    7146           20155                           DAS      MPAC                                  #  GUARANTEED NO OVERFLOW.
000928:    7147           00002                           TC       Q                                     #  49 MCT = .573 MS. INCLUDING RETURN.
000929:


000931:                                                                                                  #           ROUND MPAC TO DOUBLE PRECISION, SETTING OVFIND ON THE RARE EVENT OF OVERFLOW.
000932:
000933:    7150           34755        ROUNDSUB           CAF      ZERO                                  #  SET MPAC +2 = 0 FOR SCALARS AND CHANGE
000934:    7151           54163                 +1        TS       MODE                                  #  MODE TO DP.
000935:
000936:    7152           56156        VROUND             XCH      MPAC       +2                         #  BUT WE NEEDNT TAKE THE TIME FOR VECTORS.
000937:    7153           60000                           DOUBLE
000938:    7154           54001                           TS       L
000939:    7155           00002                           TC       Q
000940:
000941:    7156           60155                           AD       MPAC       +1                         #  ADD ROUNDING BIT IF MPAC +2 WAS GREATER
000942:    7157           54155                           TS       MPAC       +1                         #  THAN .5 IN MAGNITUDE.
000943:    7160           00002                           TC       Q
000944:
000945:    7161           60154                           AD       MPAC                                  #  PROPAGATE INTERFLOW.
000946:    7162           54154                           TS       MPAC
000947:    7163           00002                           TC       Q
000948:
000949:    7164           54121        SETOVF2            TS       OVFIND                                #  (RARE).
000950:    7165           00002                           TC       Q
000951:


000953:                                                                                                  #           THE DOT PRODUCT SUBROUTINE USUALLY FORMS THE DOT PRODUCT OF THE VECTOR IN MPAC WITH A STANDARD SIX
000954:                                                                                                  #  REGISTER VECTOR WHOSE ADDRESS IS IN ADDRWD. IN THIS CASE C(DOTINC) ARE SET TO 2. VXM, HOWEVER, SETS C(DOTINC) TO
000955:                                                                                                  #  6 SO THAT DOTSUB DOTS MPAC WITH A COLUMN VECTOR OF THE MATRIX IN QUESTION IN THIS CASE.
000956:
000957:    7166           34752        PREDOT             CAF      TWO                                   #  PROLOGUE TO SET DOTINC TO 2.
000958:    7167           54136                           TS       DOTINC
000959:
000960:    7170           00006        DOTSUB             EXTEND
000961:    7171           22137                           QXCH     DOTRET                                #  SAVE RETURN.
000962:    7172           07121                           TC       DMPSUB                                #  DOT X COMPONENTS.
000963:    7173           52160                           DXCH     MPAC       +3                         #  POSITION Y COMPONENT OF MPAC FOR
000964:    7174           52155                           DXCH     MPAC                                  #  MULTIPLICATION WHILE SAVING RESULT IN
000965:    7175           52131                           DXCH     BUF                                   #  THREE WORD BUFFER, BUF.
000966:    7176           30156                           CA       MPAC       +2
000967:    7177           54132                           TS       BUF        +2
000968:
000969:    7200           30136                           CA       DOTINC                                #  ADVANCE ADDRWD TO Y COMPONENT OF
000970:    7201           26116                           ADS      ADDRWD                                #  OTHER ARGUMENT.
000971:    7202           07121                           TC       DMPSUB
000972:    7203           52156                           DXCH     MPAC       +1                         #  ACCUMULATE PARTIAL PRODUCTS.
000973:    7204           20132                           DAS      BUF        +1
000974:    7205           60154                           AD       MPAC
000975:    7206           60130                           AD       BUF
000976:    7207           54130                           TS       BUF
000977:    7210           17212                           TCF      +2
000978:    7211           54121                           TS       OVFIND                                #  IF OVERFLOW OCCURS.
000979:
000980:    7212           52162                           DXCH     MPAC       +5                         #  MULTIPLY Z COMPONENTS.
000981:    7213           52155                           DXCH     MPAC
000982:    7214           30136                           CA       DOTINC
000983:    7215           26116                           ADS      ADDRWD
000984:    7216           07121                           TC       DMPSUB
000985:    7217           52132        ENDDOT             DXCH     BUF        +1                         #  LEAVE FINAL ACCUMULATION IN MPAC.
000986:    7220           20156                           DAS      MPAC       +1
000987:    7221           60154                           AD       MPAC
000988:    7222           60130                           AD       BUF
000989:    7223           54154                           TS       MPAC
000990:    7224           00137                           TC       DOTRET
000991:
000992:    7225           07031                           TC       OVERFLOW                              #  ON OVERFLOW HERE.
000993:    7226           00137                           TC       DOTRET
000994:


000996:                                                                                                  #  DOUBLE PRECISION POLYNOMIAL EVALUATOR
000997:
000998:                                                                                                  #                                     N        N-1
000999:                                                                                                  #           THIS ROUTINE EVALUATES A X  + A   X    + ... + A X + A  LEAVING THE DP RESULT IN MPAC ON EXIT.
001000:                                                                                                  #                                   N      N-1              1     0
001001:
001002:                                                                                                  #  THE ROUTINE HAS TWO ENTRIES
001003:
001004:                                                                                                  #           1. ENTRY THRU POWRSERS. THE COEFFICIENTS MAY BE EITHER IN FIXED OR ERASABLE, THE CALL IS BY
001005:                                                                                                  #              TC POWRSERS, AND THE RETURN IS TO LOC(TC POWRSERS)+1. THE ENTERING DATA MUST BE AS FOLLOWS
001006:
001007:                                                                                                  #                                          A        SP     LOC-3           ADDRESS FOR REFERENCING COEF TABLE
001008:                                                                                                  #                                          L        SP     N-1             N IS THE DEGREE OF THE POWER SERIES
001009:                                                                                                  #                                          MPAC     DP     X               ARGUMENT
001010:
001011:                                                                                                  #                                          LOC-2N   DP     A(0)
001012:                                                                                                  #                                                   ...
001013:                                                                                                  #                                          LOC      DP     A(N)
001014:
001015:                                                                                                  #           2. ENTRY THRU POLY. THE CALL TO POLY AND THE ENTERING DATA MUST BE AS FOLLOWS
001016:
001017:                                                                                                  #                                          MPAC     DP     X               ARGUMENT
001018:
001019:                                                                                                  #                                          LOC      TC     POLY
001020:                                                                                                  #                                          LOC+1    SP     N-1
001021:                                                                                                  #                                          LOC+2    DP     A(0)
001022:                                                                                                  #                                                   ...
001023:                                                                                                  #                                          LOC+2N+2 DP     A(N)            RETURN IS TO LOC+2N+4
001024:
001025:    7227           00006        POWRSERS           EXTEND
001026:    7230           22141                           QXCH     POLYRET                               #  RETURN ADDRESS
001027:    7231           54117                           TS       POLISH                                #  POWER SERIES ADDRESS
001028:    7232           22140                           LXCH     POLYCNT                               #  N-1 TO COUNTER
001029:    7233           17244                           TCF      POLYCOM                               #  SKIP SET UP BY POLY
001030:
001031:    7234           50002        POLY               INDEX    Q
001032:    7235           30000                           CAF      0
001033:    7236           54140                           TS       POLYCNT                               #  N-1 TO COUNTER
001034:    7237           60000                           DOUBLE
001035:    7240           60002                           AD       Q
001036:    7241           54117                           TS       POLISH                                #  L(A(N))-3 TO POLISH
001037:    7242           64756                           AD       FIVE
001038:    7243           54141                           TS       POLYRET                               #  STORE RETURN ADDRESS
001039:
001040:    7244           36305        POLYCOM            CAF      LVBUF                                 #  INCOMING X WILL BE MOVED TO VBUF, SO
001041:    7245           54116                           TS       ADDRWD                                #  SET ADDRWD SO DMPSUB WILL MPY BY VBUF.
001042:
001043:    7246           00006                           EXTEND
001044:    7247           50117                           INDEX    POLISH
001045:    7250           30004                           DCA      3
001046:


001048:    7251           52155                           DXCH     MPAC                                  #  LOAD A(N) INTO MPAC,
001049:    7252           52123                           DXCH     VBUF                                  #  SAVING X IN VBUF
001050:    7253           17257                           TCF      POLY2
001051:
001052:    7254           54140        POLYLOOP           TS       POLYCNT                               #  SAVE DECREMENTED LOOP COUNTER
001053:    7255           44752                           CS       TWO
001054:    7256           26117                           ADS      POLISH                                #  REGRESS COEFFICIENT POINTER
001055:
001056:    7257           07121        POLY2              TC       DMPSUB                                #  MULTIPLY BY X
001057:    7260           00006                           EXTEND
001058:    7261           50117                           INDEX    POLISH
001059:    7262           30002                           DCA      1                                     #  ADD IN NEXT COEFFICIENT
001060:    7263           20155                           DAS      MPAC                                  #  USERS RESPONSIBILITY TO ASSURE NO OVFLOW
001061:
001062:    7264           10140                           CCS      POLYCNT
001063:    7265           17254                           TCF      POLYLOOP
001064:    7266           00141                           TC       POLYRET                               #  RETURN CALLER
001065:


001067:                                                                                                  #           MISCELLANEOUS MULTI-PRECISION ROUTINES REQUIRED IN FIXED-FIXED BUT NOT USED BY THE INTERPRETER.
001068:
001069:    7267           34755        DPAGREE            CAF      ZERO                                  #  DOUBLE PRECISION ENTRY -
001070:    7270           54156                           TS       MPAC       +2                         #  ZERO LOW-ORDER WORD
001071:
001072:    7271           22002        TPAGREE            LXCH     Q                                     #  FORCE SIGN AGREEMENT AMONG THE TRIPLE
001073:    7272           06735                           TC       BRANCH                                #  PRECISION CONTENTS OF MPAC.  RETURNING
001074:    7273           17277                           TCF      ARG+                                  #  WITH SIGNUM OF THE INPUT IN A.
001075:    7274           17317                           TCF      ARGZERO
001076:
001077:    7275           44733                           CS       POSMAX                                #  IF NEGATIVE.
001078:    7276           17300                           TCF      +2
001079:
001080:    7277           34733        ARG+               CAF      POSMAX
001081:    7300           54002                           TS       Q
001082:    7301           00006                           EXTEND
001083:    7302           24000                           AUG      A                                     #  FORMS +-1.0.
001084:    7303           60156                           AD       MPAC       +2
001085:    7304           54156                           TS       MPAC       +2
001086:    7305           34755                           CAF      ZERO
001087:    7306           60002                           AD       Q
001088:    7307           60155                           AD       MPAC       +1
001089:    7310           54155                           TS       MPAC       +1
001090:    7311           34755                           CAF      ZERO
001091:    7312           60002                           AD       Q                                     #  Q STILL HAS POSMAX OR NEGMAX IN IT.
001092:    7313           60154                           AD       MPAC
001093:    7314           54154        ARGZERO2           TS       MPAC                                  #  ALWAYS SKIPPING UNLESS ARGZERO.
001094:    7315           54155                           TS       MPAC       +1
001095:    7316           00001                           TC       L                                     #  RETURN VIA L.
001096:
001097:    7317           54156        ARGZERO            TS       MPAC       +2                         #  SET ALL THREE MPAC REGISTERS TO ZERO.
001098:    7320           17314                           TCF      ARGZERO2
001099:
001100:                                                                                                  #           SHORTMP MULTIPLIES THE TP CONTENTS OF MPAC BY THE SINGLE PRECISION NUMBER ARRIVING IN A.
001101:
001102:    7321           54135        SHORTMP            TS       MPTEMP
001103:    7322           00006                           EXTEND
001104:    7323           70156                           MP       MPAC       +2
001105:    7324           54156                           TS       MPAC       +2
001106:    7325           34755        SHORTMP2           CAF      ZERO                                  #  SO SUBSEQUENT DAS WILL WORK.
001107:    7326           56155                           XCH      MPAC       +1
001108:    7327           17140                           TCF      DMPSUB2
001109:


001111:                                                                                                  #         DMPNSUB MULTIPLIES THE DP FRACTION ARRIVING IN MPAC BY THE SP
001112:                                                                                                  #  INTEGER ARRIVING IN A.  THE DP PRODUCT DEPARTS BOTH IN MPAC AND IN
001113:                                                                                                  #  A AND L.  NOTE THAT DMPNSUB NORMALLY INCREASES THE MAGNITUDE OF THE
001114:                                                                                                  #  CONTENTS OF MPAC.  THE CUSTOMER MUST INSURE THAT B(A) X B(MPAC,MPAC+1)
001115:                                                                                                  #  AND B(A) X B(MPAC) ARE LESS THAN 1 IN MAGNITUDE, WHERE B, AS IS OBVIOUS,
001116:                                                                                                  #  INDICATES THE ARRIVING CONTENTS.
001117:
001118:    7330           54135        DMPNSUB            TS       DMPNTEMP
001119:    7331           00006                           EXTEND
001120:    7332           70155                           MP       MPAC       +1
001121:    7333           52155                           DXCH     MPAC                                  #  LOW PRODUCT TO MPAC, HIGH FACTOR TO A
001122:    7334           00006                           EXTEND
001123:    7335           70135                           MP       DMPNTEMP
001124:    7336           30001                           CA       L
001125:    7337           26154                           ADS      MPAC                                  #  COMPLETING THE PRODUCT IN MPAC
001126:    7340           00006                           EXTEND
001127:    7341           30155                           DCA      MPAC                                  #  BRINGING THE PRODUCT INTO A AND L
001128:    7342           00002                           TC       Q
001129:


001131:                                                                                                  #  MISCELLANEOUS VECTOR OPERATIONS. INCLUDED HERE ARE THE FOLLOWING:
001132:
001133:                                                                                                  #           1.  DOT                DP VECTOR DOT PRODUCT.
001134:                                                                                                  #           2.  VXV                DP VECTOR CROSS PRODUCT.
001135:                                                                                                  #           3.  VXSC               DP VECTOR TIMES SCALAR.
001136:                                                                                                  #           4.  V/SC               DP VECTOR DIVIDED BY SCALAR.
001137:                                                                                                  #           5.  VPROJ              DP VECTOR PROJECTION. ( (MPAC.X)MPAC ).
001138:                                                                                                  #           6.  VXM                DP VECTOR POST-MULTIPLIED BY MATRIX.
001139:                                                                                                  #           7.  MXV                DP VECTOR PRE-MULTIPLIED BY MATRIX.
001140:
001141:    7343           07166        DOT                TC       PREDOT                                #  DO THE DOT PRODUCT AND EXIT, CHANGING
001142:    7344           34755        DMODE              CAF      ZERO                                  #  THE MODE TO DP SCALAR.
001143:    7345           16072                           TCF      NEWMODE
001144:
001145:
001146:    7346           34752        MXV                CAF      TWO                                   #  SET UP MATINC AND DOTINC FOR ROW
001147:    7347           54140                           TS       MATINC                                #  VECTORS.
001148:    7350           17354                           TCF      VXM/MXV                               #  GO TO COMMON PORTION.
001149:
001150:    7351           44363        VXM                CS       TEN                                   #  SET MATINC AND DOTINC TO REFER TO MATRIX
001151:    7352           54140                           TS       MATINC                                #  AS THREE COLUMN VECTORS.
001152:    7353           36254                           CAF      SIX
001153:


001155:                                                                                                  #           COMMON PORTION OF MXV AND VXM.
001156:
001157:    7354           54136        VXM/MXV            TS       DOTINC
001158:                                                                                                  #           ITRACE (2) REFERS TO "VXM/MXV".
001159:    7355           07544                           TC       MPACVBUF                              #  SAVE VECTOR IN MPAC FOR FURTHER USE.
001160:
001161:    7356           07170                           TC       DOTSUB                                #  GO DOT TO GET X COMPONENT OF ANSWER.
001162:    7357           00006                           EXTEND
001163:    7360           30123                           DCA      VBUF                                  #  MOVE MPAC VECTOR BACK INTO MPAC, SAVING
001164:    7361           52155                           DXCH     MPAC                                  #  NEW X COMPONENT IN BUF2.
001165:    7362           52134                           DXCH     BUF2
001166:    7363           00006                           EXTEND
001167:    7364           30125                           DCA      VBUF       +2
001168:    7365           52160                           DXCH     MPAC       +3
001169:    7366           00006                           EXTEND
001170:    7367           30127                           DCA      VBUF       +4
001171:    7370           52162                           DXCH     MPAC       +5
001172:    7371           30140                           CA       MATINC                                #  INITIALIZE ADDRWD FOR NEXT DOT PRODUCT.
001173:    7372           26116                           ADS      ADDRWD                                #  FORMS BASE ADDRESS OF NEXT COLUMN(ROW).
001174:
001175:    7373           07170                           TC       DOTSUB
001176:    7374           52123                           DXCH     VBUF                                  #  MOVE GIVEN VECTOR BACK TO MPAC, SAVING Y
001177:    7375           52155                           DXCH     MPAC                                  #  COMPONENT OF ANSWER IN VBUF +2.
001178:    7376           52125                           DXCH     VBUF       +2
001179:    7377           52160                           DXCH     MPAC       +3
001180:    7400           52127                           DXCH     VBUF       +4
001181:    7401           52162                           DXCH     MPAC       +5
001182:    7402           30140                           CA       MATINC                                #  FORM ADDRESS OF LAST COLUMN OR ROW.
001183:    7403           26116                           ADS      ADDRWD
001184:
001185:    7404           07170                           TC       DOTSUB
001186:    7405           52134                           DXCH     BUF2                                  #  ANSWER NOW COMPLETE. PUT COMPONENTS INTO
001187:    7406           52155                           DXCH     MPAC                                  #  PROPER MPAC REGISTERS.
001188:    7407           52162                           DXCH     MPAC       +5
001189:    7410           52125                           DXCH     VBUF       +2
001190:    7411           52160                           DXCH     MPAC       +3
001191:    7412           16073                           TCF      DANZIG                                #  EXIT.
001192:


001194:                                                                                                  #           VXSC - VECTOR TIMES SCALAR.
001195:
001196:    7413           10163        VXSC               CCS      MODE                                  #  TEST PRESENT MODE.
001197:    7414           17442                           TCF      DVXSC                                 #  SEPARATE ROUTINE WHEN SCALAR IS IN MPAC.
001198:    7415           17442                           TCF      DVXSC
001199:
001200:    7416           07121        VVXSC              TC       DMPSUB                                #  COMPUTE X COMPONENT
001201:    7417           07152                           TC       VROUND                                #  AND ROUND IT.
001202:    7420           52160                           DXCH     MPAC       +3                         #  PUT Y COMPONENT INTO MPAC SAVING MPAC IN
001203:    7421           52155                           DXCH     MPAC                                  #  MPAC +3.
001204:    7422           52160                           DXCH     MPAC       +3
001205:
001206:    7423           07121                           TC       DMPSUB                                #  DO SAME FOR Y AND Z COMPONENTS.
001207:    7424           07152                           TC       VROUND
001208:    7425           52162                           DXCH     MPAC       +5
001209:    7426           52155                           DXCH     MPAC
001210:    7427           52162                           DXCH     MPAC       +5
001211:
001212:    7430           07121                           TC       DMPSUB
001213:    7431           07152                           TC       VROUND
001214:    7432           52155        VROTATEX           DXCH     MPAC                                  #  EXIT USED TO RESTORE MPAC AFTER THIS
001215:    7433           52162                           DXCH     MPAC       +5                         #  TYPE OF ROTATION. CALLED BY VECTOR SHIFT
001216:    7434           52160                           DXCH     MPAC       +3                         #  RIGHT, V/SC, ETC.
001217:    7435           52155                           DXCH     MPAC
001218:    7436           16073                           TCF      DANZIG
001219:


001221:                                                                                                  #           DP VECTOR PROJECTION ROUTINE.
001222:
001223:    7437           07166        VPROJ              TC       PREDOT                                #  (MPAC.X)MPAC IS COMPUTED AND LEFT IN
001224:    7440           44751                           CS       FOUR                                  #  MPAC. DO DOT AND FALL INTO DVXSC.
001225:    7441           26116                           ADS      ADDRWD
001226:
001227:                                                                                                  #           VXSC WHEN SCALAR ARRIVES IN MPAC AND VECTOR IS AT X.
001228:
001229:    7442           00006        DVXSC              EXTEND                                         #  SAVE SCALAR IN MPAC +3 AND GET X
001230:    7443           30155                           DCA      MPAC                                  #  COMPONENT OF ANSWER.
001231:    7444           52160                           DXCH     MPAC       +3
001232:    7445           07121                           TC       DMPSUB
001233:    7446           07152                           TC       VROUND
001234:
001235:    7447           34752                           CAF      TWO                                   #  ADVANCE ADDRWD TO Y COMPONENT OF X.
001236:    7450           26116                           ADS      ADDRWD
001237:    7451           00006                           EXTEND
001238:    7452           30160                           DCA      MPAC       +3                         #  PUT SCALAR BACK INTO MPAC AND SAVE
001239:    7453           52155                           DXCH     MPAC                                  #  X RESULT IN MPAC +5.
001240:    7454           52162                           DXCH     MPAC       +5
001241:    7455           07121                           TC       DMPSUB
001242:    7456           07152                           TC       VROUND
001243:
001244:    7457           34752                           CAF      TWO
001245:    7460           26116                           ADS      ADDRWD                                #  TO Z COMPONENT.
001246:    7461           52160                           DXCH     MPAC       +3                         #  BRING SCALAR BACK, PUTTING Y RESULT IN
001247:    7462           52155                           DXCH     MPAC                                  #  THE PROPER PLACE.
001248:    7463           52160                           DXCH     MPAC       +3
001249:    7464           07121                           TC       DMPSUB
001250:    7465           07152                           TC       VROUND
001251:
001252:    7466           52155                           DXCH     MPAC                                  #  PUT Z COMPONENT IN PROPER PLACE, ALSO
001253:    7467           52162                           DXCH     MPAC       +5                         #  POSITIONING X.
001254:    7470           52155                           DXCH     MPAC
001255:
001256:    7471           16533                           TCF      VMODE                                 #  MODE HAS CHANGED TO VECTOR.
001257:


001259:                                                                                                  #           THE VECTOR CROSS PRODUCT ROUTINE CALCULATES (X M -X M ,X M -X M ,X M -X M ) WHERE M IS THE VECTOR IN
001260:                                                                                                  #                                                         3 2  2 3  1 3  3 1  2 1  1 2
001261:                                                                                                  #  MPAC AND X THE VECTOR AT THE GIVEN ADDRESS.
001262:
001263:    7472           00006        VXV                EXTEND
001264:    7473           30162                           DCA      MPAC       +5                         #  FORM UP M3X1, LEAVING M1 IN VBUF.
001265:    7474           52155                           DXCH     MPAC
001266:    7475           52123                           DXCH     VBUF
001267:    7476           07121                           TC       DMPSUB                                #  BY X1.
001268:
001269:    7477           00006                           EXTEND
001270:    7500           40160                           DCS      MPAC       +3                         #  CALCULATE -X1M2, SAVING X1M3 IN VBUF +2.
001271:    7501           52155                           DXCH     MPAC
001272:    7502           52125                           DXCH     VBUF       +2
001273:    7503           07121                           TC       DMPSUB
001274:
001275:    7504           34752                           CAF      TWO                                   #  ADVANCE ADDRWD TO X2.
001276:    7505           26116                           ADS      ADDRWD
001277:    7506           00006                           EXTEND
001278:    7507           40162                           DCS      MPAC       +5                         #  PREPARE TO GET -X2M3, SAVING -X1M2 IN
001279:    7510           52155                           DXCH     MPAC                                  #  MPAC +5.
001280:    7511           52162                           DXCH     MPAC       +5
001281:    7512           07121                           TC       DMPSUB
001282:
001283:    7513           00006                           EXTEND
001284:    7514           30123                           DCA      VBUF                                  #  GET X2M1, SAVING -X2M3 IN VBUF +4.
001285:    7515           52155                           DXCH     MPAC
001286:    7516           52127                           DXCH     VBUF       +4
001287:    7517           07121                           TC       DMPSUB
001288:
001289:    7520           34752                           CAF      TWO                                   #  ADVANCE ADDRWD TO X3.
001290:    7521           26116                           ADS      ADDRWD
001291:    7522           00006                           EXTEND
001292:    7523           40123                           DCS      VBUF                                  #  GET -X3M1, ADDING X2M1 TO MPAC +5 TO
001293:    7524           52155                           DXCH     MPAC                                  #  COMPLETE THE Z COMPONENT OF THE ANSWER.
001294:    7525           20162                           DAS      MPAC       +5
001295:
001296:    7526           00006                           EXTEND
001297:    7527           17531                           BZF      +2
001298:    7530           07023                           TC       OVERFLWZ
001299:
001300:    7531           07121                           TC       DMPSUB
001301:    7532           52125                           DXCH     VBUF       +2                         #  MOVE X1M3 TO MPAC +3 SETTING UP FOR X3M2
001302:    7533           52160                           DXCH     MPAC       +3                         #  AND ADD -X3M1 TO MPAC +3 TO COMPLETE THE
001303:    7534           52155                           DXCH     MPAC                                  #  Y COMPONENT OF THE RESULT.
001304:    7535           20160                           DAS      MPAC       +3
001305:
001306:    7536           00006                           EXTEND
001307:    7537           17541                           BZF      +2


001309:    7540           07026                           TC       OVERFLWY
001310:
001311:    7541           07121                           TC       DMPSUB
001312:    7542           52127                           DXCH     VBUF       +4                         #  GO ADD -X2M3 TO X3M2 TO COMPLETE THE X
001313:    7543           17012                           TCF      ENDVXV                                #  COMPONENT (TAIL END OF DAD).
001314:
001315:                                                                                                  #           THE MPACVBUF SUBROUTINE SAVES THE VECTOR IN MPAC IN VBUF WITHOUT CLOBBERING MPAC.
001316:
001317:    7544           00006        MPACVBUF           EXTEND                                         #  CALLED BY MXV, VXM, AND UNIT.
001318:    7545           30155                           DCA      MPAC
001319:    7546           52123                           DXCH     VBUF
001320:    7547           00006                           EXTEND
001321:    7550           30160                           DCA      MPAC       +3
001322:    7551           52125                           DXCH     VBUF       +2
001323:    7552           00006                           EXTEND
001324:    7553           30162                           DCA      MPAC       +5
001325:    7554           52127                           DXCH     VBUF       +4
001326:    7555           00002                           TC       Q                                     #  RETURN TO CALLER.
001327:
001328:
001329:                                                                                                  #           DOUBLE PRECISION SIGN AGREE ROUTINE. ARRIVE WITH INPUT IN A+L. OUTPUT IS IN A + L.
001330:
001331:    7556           10000        ALSIGNAG           CCS      A                                     #  TEST UPPER PART.
001332:    7557           17563                           TCF      UPPOS                                 #  IT IS POSITIVE
001333:    7560           00002                           TC       Q                                     #  ZERO
001334:    7561           17573                           TCF      UPNEG                                 #  NEGATIVE
001335:    7562           00002                           TC       Q                                     #  ZERO
001336:
001337:    7563           56001        UPPOS              XCH      L                                     #  SAVE DECREMENTED UPPER PART.
001338:    7564           64736                           AD       HALF
001339:    7565           64736                           AD       HALF
001340:    7566           54000                           TS       A                                     #  SKIPS ON OVERFLOW
001341:    7567           17571                           TCF      +2
001342:    7570           24001                           INCR     L                                     #  RESTORE UPPER TO ROIGINAL VALUE
001343:    7571           56001                           XCH      L                                     #  SWAP A + L BACK.
001344:    7572           00002                           TC       Q
001345:
001346:    7573           56001        UPNEG              XCH      L                                     #  SAVE COMPLEMENTED + DECREMENTED UPPER PT
001347:    7574           64735                           AD       NEGMAX
001348:    7575           67761                           AD       NEGONE
001349:    7576           54000                           TS       A
001350:    7577           17601                           TCF      +2                                    #  DONT INCREMENT IF NO OVERFLOW.
001351:    7600           24001                           INCR     L
001352:    7601           56001                           XCH      L
001353:    7602           40000                           COM                                            #  MAKE NEGATIVE AGAIN.
001354:    7603           00002                           TC       Q
001355:


001357:                                                                                                  #           INTERPRETIVE INSTRUCTIONS WHOSE EXECUTION CONSISTS OF PRINCIPALLY CALLING SUBROUTINES.
001358:
001359:    7604           07121        DMP1               TC       DMPSUB                                #  DMP INSTRUCTION.
001360:    7605           16073                           TCF      DANZIG
001361:
001362:    7606           07121        DMPR               TC       DMPSUB
001363:    7607           07151                           TC       ROUNDSUB   +1                         #  (C(A) = +0).
001364:    7610           16073                           TCF      DANZIG
001365:
001366:    7611           00006        DDV                EXTEND
001367:    7612           50116                           INDEX    ADDRWD                                #  MOVE DIVIDEND INTO BUF.
001368:    7613           30001                           DCA      0
001369:    7614           17621                           TCF      BDDV       +4
001370:
001371:    7615           00006        BDDV               EXTEND                                         #  MOVE DIVISOR INTO MPAC SAVING MPAC, THE
001372:    7616           50116                           INDEX    ADDRWD                                #  DIVIDEND, IN BUF.
001373:    7617           30001                           DCA      0
001374:    7620           52155                           DXCH     MPAC
001375:    7621           52131                 +4        DXCH     BUF
001376:    7622           34755                           CAF      ZERO                                  #  DIVIDE ROUTINES IN BANK 0.
001377:    7623           54004                           TS       FBANK
001378:    7624           12353                           TCF      DDV/BDDV
001379:
001380:    7625           30116        SETPD              CA       ADDRWD                                #  MUST SET TO WORK AREA, OR EBANK TROUBLE.
001381:    7626           54166                           TS       PUSHLOC
001382:    7627           16075                           TCF      NOIBNKSW                              #  NO FBANK SWITCH REQUIRED.
001383:
001384:    7630           34755        TSLC               CAF      ZERO                                  #  SHIFTING ROUTINES LOCATED IN BANK 00.
001385:    7631           54004                           TS       FBANK
001386:    7632           12172                           TCF      TSLC2
001387:
001388:    7633           36106        GSHIFT             CAF      LOW7                                  #  USED AS MASK AT GENSHIFT. THIS PROCESSES
001389:    7634           54004                           TS       FBANK                                 #  ANY SHIFT INSTRUCTION (EXCEPT TSLC) WITH
001390:    7635           12214                           TCF      GENSHIFT                              #  AN ADDRESS (ROUTINES IN BANK 0).
001391:


001393:                                                                                                  #           THE FOLLOWING IS THE PROLOGUE TO V/SC. IF THE PRESENT MODE IS VECTOR, IT SAVES THE SCALAR AT X IN BUF
001394:                                                                                                  #  AND CALLS THE V/SC ROUTINE IN BANK 0. IF THE PRESENT MODE IS SCALAR, IT MOVES THE VECTOR AT X INTO MPAC, SAVING
001395:                                                                                                  #  THE SCALAR IN MPAC IN BUF BEFORE CALLING THE V/SC ROUTINE IN BANK 0.
001396:
001397:    7636           10163        V/SC               CCS      MODE
001398:    7637           17650                           TCF      DV/SC                                 #  MOVE VECTOR INTO MPAC.
001399:    7640           17650                           TCF      DV/SC
001400:
001401:    7641           00006        VV/SC              EXTEND
001402:    7642           50116                           INDEX    ADDRWD
001403:    7643           30001                           DCA      0
001404:    7644           52131        V/SC1              DXCH     BUF                                   #  IN BOTH CASES, VECTOR IS NOW IN MPAC AND
001405:    7645           34755                           CAF      ZERO                                  #  SCALAR IN BUF.
001406:    7646           54004                           TS       FBANK
001407:    7647           12654                           TCF      V/SC2
001408:
001409:    7650           00006        DV/SC              EXTEND
001410:    7651           50116                           INDEX    ADDRWD
001411:    7652           30003                           DCA      2
001412:    7653           52160                           DXCH     MPAC       +3
001413:    7654           00006                           EXTEND
001414:    7655           50116                           INDEX    ADDRWD
001415:    7656           30005                           DCA      4
001416:    7657           52162                           DXCH     MPAC       +5
001417:
001418:    7660           44753                           CS       ONE                                   #  CHANGE MODE TO VECTOR.
001419:    7661           54163                           TS       MODE
001420:
001421:    7662           00006                           EXTEND
001422:    7663           50116                           INDEX    ADDRWD
001423:    7664           30001                           DCA      0
001424:    7665           52155                           DXCH     MPAC
001425:    7666           17644                           TCF      V/SC1                                 #  FINISH PROLOGUE AT COMMON SECTION.
001426:


001428:                                                                                                  #           SIGN AND COMPLEMENT INSTRUCTIONS.
001429:
001430:    7667           50116        SIGN               INDEX    ADDRWD                                #  CALL COMP INSTRUCTION IF WORD AT X IS
001431:    7670           10000                           CCS      0                                     #  NEGATIVE NON-ZERO.
001432:    7671           16073                           TCF      DANZIG
001433:    7672           17674                           TCF      +2
001434:    7673           17702                           TCF      COMP                                  #  DO THE COMPLEMENT.
001435:
001436:    7674           50116                           INDEX    ADDRWD
001437:    7675           10001        CCSL               CCS      1
001438:    7676           16073                           TCF      DANZIG
001439:    7677           16073                           TCF      DANZIG
001440:    7700           17702                           TCF      COMP
001441:    7701           16073                           TCF      DANZIG
001442:    7702           00006        COMP               EXTEND                                         #  COMPLEMENT DP MPAC IN EVERY CASE.
001443:    7703           40155                           DCS      MPAC
001444:    7704           52155                           DXCH     MPAC
001445:
001446:    7705           10163                           CCS      MODE                                  #  EITHER COMPLEMENT MPAC +3 OR THE REST OF
001447:    7706           17717                           TCF      DCOMP                                 #  THE VECTOR ACCUMULATOR.
001448:    7707           17717                           TCF      DCOMP
001449:
001450:    7710           00006                           EXTEND                                         #  VECTOR COMPLEMENT.
001451:    7711           40160                           DCS      MPAC       +3
001452:    7712           52160                           DXCH     MPAC       +3
001453:    7713           00006                           EXTEND
001454:    7714           40162                           DCS      MPAC       +5
001455:    7715           52162                           DXCH     MPAC       +5
001456:    7716           16073                           TCF      DANZIG
001457:
001458:    7717           40156        DCOMP              CS       MPAC       +2
001459:    7720           54156                           TS       MPAC       +2
001460:    7721           16073                           TCF      DANZIG
001461:


001463:                                                                                                  #           THE FOLLOWING SHORT SHIFT CODES REQUIRE NO ADDRESS WORD:
001464:
001465:                                                                                                  #           1.  SR1 TO SR4         SCALAR SHIFT RIGHT.
001466:                                                                                                  #           2.  SR1R TO SR4R       SCALAR SHIFT RIGHT AND ROUND.
001467:                                                                                                  #           3.  SL1 TO SL4         SCALAR SHIFT LEFT.
001468:                                                                                                  #           4.  SL1R TO SL4R       SCALAR SHIFT LEFT AND ROUND.
001469:
001470:                                                                                                  #           5.  VSR1 TO VSR8       VECTOR SHIFT RIGHT (ALWAYS ROUNDS).
001471:                                                                                                  #           6.  VSL1 TO VSL8       VECTOR SHIFT LEFT (NEVER ROUNDS).
001472:
001473:                                                                                                  #           THE FOLLOWING CODES REQUIRE AN ADDRESS WHICH MAY BE INDEXED:*
001474:
001475:                                                                                                  #           1.  SR                 SCALAR SHIFT RIGHT.
001476:                                                                                                  #           2.  SRR                SCALAR SHIFT RIGHT AND ROUND.
001477:                                                                                                  #           3.  SL                 SCALAR SHIFT LEFT.
001478:                                                                                                  #           4.  SLR                SCALAR SHIFT LEFT AND ROUND.
001479:
001480:                                                                                                  #           5.  VSR                VECTOR SHIFT RIGHT.
001481:                                                                                                  #           6.  VSL                VECTOR SHIFT LEFT.
001482:
001483:                                                                                                  #  *  IF THE ADDRESS IS INDEXED, AND THE INDEX MODIFICATION RESULTS IN A NEGATIVE SHIFT COUNT, A SHIFT OF THE
001484:                                                                                                  #  ABSOLUTE VALUE OF THE COUNT IS DONE IN THE OPPOSITE DIRECTION.
001485:
001486:
001487: 00,2017                                           BANK     00
001488:
001489: 00,2017                                           COUNT*   $$/INTER
001490: 00,2017           36254        SHORTT             CAF      SIX                                   #  SCALAR SHORT SHIFTS COME HERE. THE SHIFT
001491: 00,2020           70020                           MASK     CYR                                   #  COUNT-1 IS NOW IN BITS 2-3 OF CYR. THE
001492: 00,2021           54021                           TS       SR                                    #  ROUNDING BIT IS IN BIT1 AT THIS POINT.
001493:
001494: 00,2022           10020                           CCS      CYR                                   #  SEE IF RIGHT OR LEFT SHIFT DESIRED.
001495: 00,2023           12101                           TCF      TSSL                                  #  SHIFT LEFT.
001496:
001497: 00,2024           00024        SRDDV              DEC      20         B-14                       #  MPTEMP SETTING FOR SR BEFORE DDV.
001498:
001499: 00,2025           50021        TSSR               INDEX    SR                                    #  GET SHIFTING BIT.
001500: 00,2026           34736                           CAF      BIT14
001501: 00,2027           54135                           TS       MPTEMP
001502:
001503: 00,2030           10020                           CCS      CYR                                   #  SEE IF A ROUND IS DESIRED.
001504: 00,2031           02050        RIGHTR             TC       MPACSRND                              #  YES - SHIFT RIGHT AND ROUND.
001505: 00,2032           16072                           TCF      NEWMODE                               #  SET MODE TO DP (C(A) = 0).
001506: 00,2033           30135        MPACSHR            CA       MPTEMP                                #  DO A TRIPLE PRECISION SHIFT RIGHT.
001507: 00,2034           00006                           EXTEND
001508: 00,2035           70156                           MP       MPAC       +2
001509: 00,2036           54156                 +3        TS       MPAC       +2                         #  (EXIT FROM SQRT AND ABVAL).
001510: 00,2037           30135                           CA       MPTEMP
001511: 00,2040           00006                           EXTEND
001512: 00,2041           70154                           MP       MPAC                                  #  SHIFT MAJOR PART INTO A,L AND PLACE IN


001514: 00,2042           52155                           DXCH     MPAC                                  #  MPAC,+1.
001515: 00,2043           30135                           CA       MPTEMP
001516: 00,2044           00006                           EXTEND
001517: 00,2045           70001                           MP       L                                     #  ORIGINAL C(MPAC +1).
001518: 00,2046           20156                           DAS      MPAC       +1                         #  GUARANTEED NO OVERFLOW.
001519: 00,2047           16073                           TCF      DANZIG
001520:
001521:                                                                                                  #           MPAC SHIFT RIGHT AND ROUND SUBROUTINES.
001522:
001523: 00,2050           30156        MPACSRND           CA       MPAC       +2                         #  WE HAVE TO DO ALL THREE MULTIPLIES SINCE
001524: 00,2051           00006                           EXTEND                                         #  MPAC +1 AND MPAC +2 MIGHT HAVE SIGN
001525: 00,2052           70135                           MP       MPTEMP                                #  DISAGREEMENT WITH A SHIFT RIGHT OF 1.
001526: 00,2053           56155                           XCH      MPAC       +1
001527: 00,2054           00006                           EXTEND
001528: 00,2055           70135                           MP       MPTEMP
001529: 00,2056           56155                           XCH      MPAC       +1                         #  TRIAL MINOR PART.
001530: 00,2057           60001                           AD       L
001531:
001532: 00,2060           60000        VSHR2              DOUBLE                                         #  (FINISH VECTOR COMPONENT SHIFT RIGHT
001533: 00,2061           54156                           TS       MPAC       +2                         #  AND ROUND.
001534: 00,2062           12064                           TCF      +2
001535: 00,2063           26155                           ADS      MPAC       +1                         #  GUARANTEED NO OVERFLOW.
001536:
001537: 00,2064           34755                           CAF      ZERO
001538: 00,2065           54156                           TS       MPAC       +2
001539: 00,2066           56154                           XCH      MPAC                                  #  SETTING TO ZERO SO FOLLOWING DAS WORKS.
001540: 00,2067           00006                           EXTEND
001541: 00,2070           70135                           MP       MPTEMP
001542: 00,2071           20155                           DAS      MPAC                                  #  AGAIN NO OVERFLOW.
001543: 00,2072           00002                           TC       Q
001544:
001545: 00,2073           30135        VSHRRND            CA       MPTEMP                                #  ENTRY TO SHIFT RIGHT AND ROUND MPAC WHEN
001546: 00,2074           00006                           EXTEND                                         #  MPAC CONTAINS A VECTOR COMPONENT.
001547: 00,2075           70155                           MP       MPAC       +1
001548: 00,2076           54155                           TS       MPAC       +1
001549: 00,2077           56001                           XCH      L
001550: 00,2100           12060                           TCF      VSHR2                                 #  GO ADD ONE IF NECESSARY AND FINISH.
001551:


001553:                                                                                                  #           ROUTINE FOR SHORT SCALAR SHIFT LEFT (AND MAYBE ROUND).
001554:
001555: 00,2101           30021        TSSL               CA       SR                                    #  GET SHIFT COUNT FOR SR.
001556: 00,2102           54135                 +1        TS       MPTEMP
001557:
001558: 00,2103           00006                 +2        EXTEND                                         #  ENTRY HERE FROM SL FOR SCALARS.
001559: 00,2104           30156                           DCA      MPAC       +1                         #  SHIFTING LEFT ONE PLACE AT A TIME IS
001560: 00,2105           20156                           DAS      MPAC       +1                         #  FASTER THAN DOING THE WHOLE SHIFT WITH
001561: 00,2106           60154                           AD       MPAC                                  #  MULTIPLIES ASSUMING THAT FREQUENCY OF
001562: 00,2107           60154                           AD       MPAC                                  #  SHIFT COUNTS GOES DOWN RAPIDLY AS A
001563: 00,2110           54154                           TS       MPAC                                  #  FUNCTION OF THEIR MAGNITUDE.
001564: 00,2111           12113                           TCF      +2
001565: 00,2112           54121                           TS       OVFIND                                #  OVERFLOW. (LEAVES OVERFLOW-CORRECTED
001566:                                                                                                  #  RESULT ANYWAY).
001567: 00,2113           10135                           CCS      MPTEMP                                #  LOOP ON DECREMENTED SHIFT COUNT.
001568: 00,2114           12102                           TCF      TSSL       +1
001569:
001570: 00,2115           10020                           CCS      CYR                                   #  SEE IF ROUND WANTED.
001571: 00,2116           07150        ROUND              TC       ROUNDSUB                              #  YES - ROUND AND EXIT.
001572: 00,2117           16073                           TCF      DANZIG                                #  SL LEAVES A ZERO IN CYR FOR NO ROUND.
001573: 00,2120           16073                           TCF      DANZIG                                #  NO - EXIT IMMEDIATL
001574:


001576:                                                                                                  #  VECTOR SHIFTING ROUTINES.
001577:
001578: 00,2121           34757        SHORTV             CAF      LOW3                                  #  SAVE 3 BIT SHIFT COUNT - 1 WITHOUT
001579: 00,2122           70020                           MASK     CYR                                   #  EDITING CYR.
001580: 00,2123           54135                           TS       MPTEMP
001581: 00,2124           10020                           CCS      CYR                                   #  SEE IF LEFT OR RIGHT SHIFT.
001582: 00,2125           12145                           TCF      VSSL                                  #  VECTOR SHIFT LEFT.
001583: 00,2126           00176        OCT176             OCT      176                                   #  USED IN PROCESSED SHIFTS WITH - COUNT.
001584:
001585: 00,2127           50135        VSSR               INDEX    MPTEMP                                #  (ENTRY FROM SR). PICK UP SHIFTING BIT.
001586: 00,2130           34736                           CAF      BIT14                                 #  MPTEMP CONTAINS THE SHIFT COUNT - 1.
001587: 00,2131           54135                           TS       MPTEMP
001588: 00,2132           02073                           TC       VSHRRND                               #  SHIFT X COMPONENT.
001589:
001590: 00,2133           52155                           DXCH     MPAC                                  #  SWAP X AND Y COMPONENTS.
001591: 00,2134           52160                           DXCH     MPAC       +3
001592: 00,2135           52155                           DXCH     MPAC
001593: 00,2136           02073                           TC       VSHRRND                               #  SHIFT Y COMPONENT.
001594:
001595: 00,2137           52155                           DXCH     MPAC                                  #  SWAP Y AND Z COMPONENTS.
001596: 00,2140           52162                           DXCH     MPAC       +5
001597: 00,2141           52155                           DXCH     MPAC
001598: 00,2142           02073                           TC       VSHRRND                               #  SHIFT Z COMPONENT.
001599:
001600: 00,2143           17432                           TCF      VROTATEX                              #  RESTORE COMPONENTS TO PROPER PLACES.
001601:


001603:                                                                                                  #  VECTOR SHIFT LEFT - DONE ONE PLACE AT A TIME.
001604:
001605: 00,2144           54135                 -1        TS       MPTEMP                                #  SHIFTING LOOP.
001606:
001607: 00,2145           00006        VSSL               EXTEND
001608: 00,2146           30155                           DCA      MPAC
001609: 00,2147           20155                           DAS      MPAC
001610: 00,2150           00006                           EXTEND
001611: 00,2151           12153                           BZF      +2
001612: 00,2152           07031                           TC       OVERFLOW
001613:
001614: 00,2153           00006                           EXTEND
001615: 00,2154           30160                           DCA      MPAC       +3
001616: 00,2155           20160                           DAS      MPAC       +3
001617: 00,2156           00006                           EXTEND
001618: 00,2157           12161                           BZF      +2
001619: 00,2160           07026                           TC       OVERFLWY
001620:
001621: 00,2161           00006                           EXTEND
001622: 00,2162           30162                           DCA      MPAC       +5
001623: 00,2163           20162                           DAS      MPAC       +5
001624: 00,2164           00006                           EXTEND
001625: 00,2165           12167                           BZF      +2
001626: 00,2166           07023                           TC       OVERFLWZ
001627:
001628: 00,2167           10135                           CCS      MPTEMP                                #  LOOP ON DECREMENTED SHIFT COUNTER.
001629: 00,2170           12144                           TCF      VSSL       -1
001630: 00,2171           16073                           TCF      DANZIG                                #  EXIT.
001631:


001633:                                                                                                  #           TSLC - TRIPLE SHIFT LEFT AND COUNT. SHIFTS MPAC LEFT UNTIL GREATER THAN .5 IN MAGNITUDE, LEAVING
001634:                                                                                                  #  THE COMPLEMENT OF THE NUMBER OF SHIFTS REQUIRED IN X.
001635:
001636: 00,2172           54135        TSLC2              TS       MPTEMP                                #  START BY ZEROING SHIFT COUNT (IN A NOW).
001637: 00,2173           06735                           TC       BRANCH                                #  EXIT WITH NO SHIFTING IF ARGUMENT ZERO.
001638: 00,2174           12176                           TCF      +2
001639: 00,2175           12212                           TCF      ENDTSLC                               #  STORES ZERO SHIFT COUNT IN THIS CASE.
001640:
001641: 00,2176           07271                           TC       TPAGREE                               #  MAY CAUSE UPSHIFT OF ONE EXTRA PLACE.
001642:
001643: 00,2177           30154                           CA       MPAC                                  #  BEGIN NORMALIZATION LOOP.
001644: 00,2200           12207                           TCF      TSLCTEST
001645:
001646: 00,2201           24135        TSLCLOOP           INCR     MPTEMP                                #  INCREMENT SHIFT COUNTER.
001647: 00,2202           00006                           EXTEND
001648: 00,2203           30156                           DCA      MPAC       +1
001649: 00,2204           20156                           DAS      MPAC       +1
001650: 00,2205           60154                           AD       MPAC
001651: 00,2206           26154                           ADS      MPAC
001652: 00,2207           60000        TSLCTEST           DOUBLE                                         #  SEE IF (ANOTHER) SHIFT IS REQUIRED.
001653: 00,2210           54000                           OVSK
001654: 00,2211           12201                           TCF      TSLCLOOP                              #  YES - INCREMENT COUNT AND SHIFT AGAIN.
001655:
001656: 00,2212           40135        ENDTSLC            CS       MPTEMP
001657: 00,2213           16635                           TCF      STORE1                                #  STORE SHIFT COUNT AND RETURN TO DANZIG.
001658:


001660:                                                                                                  #           THE FOLLOWING ROUTINES PROCESSES THE GENERAL SHIFT INSTRUCTIONS SR, SRR, SL, AND SLR.
001661:                                                                                                  #  THE GIVEN ADDRESS IS DECODED AS FOLLOWS:
001662:
001663:                                                                                                  #           BITS 1-7    SHIFT COUNT (SUBADDRESS) LESS THAN 125 DECIMAL.
001664:                                                                                                  #           BIT 8       PSEUDO SIGN BIT (DETECTS CHANGE IN SIGN IN INDEXED SHIFTS).
001665:                                                                                                  #           BIT 9       0 FOR LEFT SHIFT, AND 1 FOR RIGHT SHIFT.
001666:                                                                                                  #           BIT 10      1 FOR TERMINAL ROUND ON SCALAR SHIFTS, 0 OTHERWISE.
001667:                                                                                                  #           BITS 11-13  0.
001668:                                                                                                  #           BIT 14      1.
001669:                                                                                                  #           BIT 15      0.
001670:
001671:                                                                                                  #  THE ABOVE ENCODING IS DONE BY THE YUL SYSTEM.
001672:
001673:
001674: 00,2214           70116        GENSHIFT           MASK     ADDRWD                                #  GET SHIFT COUNT, TESTING FOR ZERO.
001675: 00,2215           10000                           CCS      A                                     #  (ARRIVES WITH C(A) = LOW7).
001676: 00,2216           12224                           TCF      GENSHFT2                              #  IF NON-ZERO, PROCEED WITH DECREMENTED CT
001677:
001678: 00,2217           34742                           CAF      BIT10                                 #  ZERO SHIFT COUNT. NO SHIFTS NEEDED BUT
001679: 00,2220           70116                           MASK     ADDRWD                                #  WE MIGHT HAVE TO ROUND MPAC ON SLR AND
001680: 00,2221           10000                           CCS      A                                     #  SRR (SCALAR ONLY).
001681: 00,2222           07150                           TC       ROUNDSUB
001682: 00,2223           16073                           TCF      DANZIG
001683:
001684: 00,2224           54135        GENSHFT2           TS       MPTEMP                                #  DECREMENTED SHIFT COUNT TO MPTEMP.
001685: 00,2225           34744                           CAF      BIT8                                  #  TEST MEANING OF LOW SEVEN BIT COUNT IN
001686: 00,2226           00006                           EXTEND                                         #  MPTEMP NOW.
001687: 00,2227           70116                           MP       ADDRWD
001688: 00,2230           76257                           MASK     LOW2                                  #  JUMPS ON SHIFT DIRECTION (BIT8) AND
001689: 00,2231           50000                           INDEX    A
001690: 00,2232           12233                           TCF      +1                                    #  ORIGINAL SHIFT DIRECTION (BIT 9).
001691: 00,2233           12332                           TCF      RIGHT-                                #  NEGATIVE SHIFT COUNT FOR SL OR SLR.
001692: 00,2234           12342                           TCF      LEFT                                  #  SL OR SLR.
001693: 00,2235           12336                           TCF      LEFT-                                 #  NEGATIVE SHIFT COUNT WITH SR OR SRR.
001694:


001696:                                                                                                  #           GENERAL SHIFT RIGHT.
001697:
001698: 00,2236           10163        RIGHT              CCS      MODE                                  #  SEE IF VECTOR OR SCALAR.
001699: 00,2237           12277                           TCF      GENSCR
001700: 00,2240           12277                           TCF      GENSCR
001701:
001702: 00,2241           30135                           CA       MPTEMP                                #  SEE IF SHIFT COUNT LESS THAN 14D.
001703: 00,2242           63733        VRIGHT2            AD       NEG12
001704: 00,2243           00006                           EXTEND
001705: 00,2244           62127                           BZMF     VSSR                                  #  IF SO, BRANCH AND SHIFT IMMEDIATELY.
001706:
001707: 00,2245           67761                           AD       NEGONE                                #  IF NOT, REDUCE MPTEMP BY A TOTAL OF 14,
001708: 00,2246           54135                           TS       MPTEMP                                #  AND DO A SHIFT RIGHT AND ROUND BY 14.
001709: 00,2247           34755                           CAF      ZERO                                  #  THE ROUND AT THIS STAGE MAY INTRODUCE A
001710: 00,2250           54001                           TS       L                                     #  ONE BIT ERROR IN A SHIFT RIGHT 15D.
001711: 00,2251           56154                           XCH      MPAC
001712: 00,2252           56155                           XCH      MPAC       +1
001713: 00,2253           02272                           TC       SETROUND                              #  X COMPONENT NOW SHIFTED, SO MAKE UP THE
001714: 00,2254           20155                           DAS      MPAC                                  #  ROUNDING QUANTITY (0 IN A AND 0 OR +-1
001715:                                                                                                  #  IN L).
001716: 00,2255           56157                           XCH      MPAC       +3                         #  REPEAT THE ABOVE PROCESS FOR Y AND Z.
001717: 00,2256           56160                           XCH      MPAC       +4
001718: 00,2257           02272                           TC       SETROUND
001719: 00,2260           20160                           DAS      MPAC       +3                         #  NO OVERFLOW ON THESE ADDS.
001720:
001721: 00,2261           56161                           XCH      MPAC       +5
001722: 00,2262           56162                           XCH      MPAC       +6
001723: 00,2263           02272                           TC       SETROUND
001724: 00,2264           20162                           DAS      MPAC       +5
001725:
001726: 00,2265           10135                           CCS      MPTEMP                                #  SEE IF DONE, DOING FINAL DECREMENT.
001727: 00,2266           54135                           TS       MPTEMP
001728: 00,2267           12242                           TCF      VRIGHT2
001729: 00,2270           04604        BIASLO             DEC      .2974      B-1                        #  SQRT CONSTANT
001730:
001731: 00,2271           16073                           TCF      DANZIG
001732:
001733: 00,2272           60000        SETROUND           DOUBLE                                         #  MAKES UP ROUNDING QUANTITY FROM ARRIVING
001734: 00,2273           54156                           TS       MPAC       +2                         #  C(A). L IS ZERO INITIALLY.
001735: 00,2274           34755                           CAF      ZERO
001736: 00,2275           56001                           XCH      L
001737: 00,2276           00002                           TC       Q                                     #  RETURN AND DO THE DAS, RESETTING L TO 0.
001738:


001740:                                                                                                  #           PROCESS SR AND SRR FOR SCALARS.
001741:
001742: 00,2277           30135        GENSCR             CA       MPTEMP                                #  SEE IF THE ORIGINAL SHIFT COUNT WAS LESS
001743: 00,2300           63733                 +1        AD       NEG12                                 #  THAN 14D.
001744: 00,2301           00006                           EXTEND
001745: 00,2302           62322                           BZMF     DOSSHFT                               #  DO THE SHIFT IMMEDIATELY IF SO.
001746:
001747: 00,2303           67761                 +4        AD       NEGONE                                #  IF NOT, DECREMENT SHIFT COUNT BY 14D AND
001748: 00,2304           54135                           TS       MPTEMP                                #  SHIFT MPAC RIGHT 14 PLACES.
001749: 00,2305           34755                           CAF      ZERO
001750: 00,2306           56154                           XCH      MPAC
001751: 00,2307           56155                           XCH      MPAC       +1
001752: 00,2310           54156                           TS       MPAC       +2
001753: 00,2311           10135                           CCS      MPTEMP                                #  SEE IF FINISHED, DO FINAL DECREMENT.
001754: 00,2312           54135                           TS       MPTEMP
001755: 00,2313           02300                           TC       GENSCR     +1
001756: 00,2314           22650        SLOPEHI            DEC      .5884                                 #  SQRT CONSTANT.
001757: 00,2315           34742                           CAF      BIT10                                 #  FINISHED WITH SHIFT. SEE IF ROUND
001758: 00,2316           70116                           MASK     ADDRWD                                #  WANTED.
001759: 00,2317           10000                           CCS      A
001760: 00,2320           07150                           TC       ROUNDSUB
001761: 00,2321           16073                           TCF      DANZIG                                #  DO SO AND/OR EXIT.
001762:
001763: 00,2322           50135        DOSSHFT            INDEX    MPTEMP                                #  PICK UP SHIFTING BIT.
001764: 00,2323           34736                           CAF      BIT14
001765: 00,2324           54135                           TS       MPTEMP
001766: 00,2325           34742                           CAF      BIT10                                 #  SEE IF TERMINAL ROUND DESIRED.
001767: 00,2326           70116                           MASK     ADDRWD
001768: 00,2327           10000                           CCS      A
001769: 00,2330           12031                           TCF      RIGHTR                                #  YES.
001770: 00,2331           12033                           TCF      MPACSHR                               #  JUST SHIFT RIGHT.
001771:


001773:                                                                                                  #           PROCESS THE RIGHT- (SL(R) WITH A NEGATIVE COUNT), LEFT-, AND LEFT OPTIONS.
001774:
001775: 00,2332           40135        RIGHT-             CS       MPTEMP                                #  GET ABSOLUTE VALUE - 1 OF SHIFT COUNT
001776: 00,2333           62126                           AD       OCT176                                #  UNDERSTANDING THAT BIT8 (PSEUDO-SIGN)
001777: 00,2334           54135                           TS       MPTEMP                                #  WAS 1 INITIALLY.
001778: 00,2335           12236                           TCF      RIGHT                                 #  DO NORMAL SHIFT RIGHT.
001779:
001780: 00,2336           42126        LEFT-              CS       OCT176                                #  SAME PROLOGUE TO LEFT FOR INDEXED RIGHT
001781: 00,2337           60135                           AD       MPTEMP                                #  SHIFTS WHOSE NET SHIFT COUNT IS NEGATIVE
001782: 00,2340           40000                           COM
001783: 00,2341           54135                           TS       MPTEMP
001784:
001785: 00,2342           10163        LEFT               CCS      MODE                                  #  SINCE LEFT SHIFTING IS SONE ONE PLACE AT
001786: 00,2343           12346                           TCF      GENSCL                                #  A TIME, NO COMPARISON WITH 14 NEED BE
001787: 00,2344           12346                           TCF      GENSCL                                #  DONE. FOR SCALARS, SEE IF TERMINAL ROUND
001788: 00,2345           12145                           TCF      VSSL                                  #  DESIRED. FOR VECTORS, SHIFT IMMEDIATELY.
001789:
001790: 00,2346           40116        GENSCL             CS       ADDRWD                                #  PUT ROUNDING BIT (BIT 10 OF ADDRWD)INTO
001791: 00,2347           00006                           EXTEND                                         #  BIT 15 OF CYR WHERE THE ROUNDING BIT OF
001792: 00,2350           74746                           MP       BIT6                                  #  A SHORT SHIFT LEFT WOULD BE
001793: 00,2351           54020                           TS       CYR
001794: 00,2352           12103                           TCF      TSSL       +2                         #  DO THE SHIFT.
001795:


001797:                                                                                                  #           SCALAR DIVISION INSTRUCTIONS, DDV AND BDDV, ARE EXECUTED HERE. AT THIS POINT, THE DIVIDEND IS IN MPAC
001798:                                                                                                  #  AND THE DIVISOR IN BUF.
001799:
001800: 00,2353           44753        DDV/BDDV           CS       ONE                                   #  INITIALIZATION.
001801: 00,2354           54136                           TS       DVSIGN                                #  +-1 FOR POSITIVE QUOTIENT - -0 FOR NEG.
001802: 00,2355           54137                           TS       DVNORMCT                              #  DIVIDEND NORMALIZATION COUNT.
001803: 00,2356           54140                           TS       MAXDVSW                               #  NEAR-ONE DIVIDE FLAG.
001804:
001805: 00,2357           10130                           CCS      BUF                                   #  FORCE BUF POSITIVE WITH THE MAJOR PART
001806: 00,2360           12516                           TCF      BUFPOS                                #  NON-ZERO.
001807: 00,2361           12363                           TCF      +2
001808: 00,2362           12531                           TCF      BUFNEG
001809:
001810: 00,2363           54156        BUFZERO            TS       MPAC       +2                         #  ZERO THIS.
001811: 00,2364           07271                           TC       TPAGREE                               #  FORCE SIGN AGREEMENT BEFORE OVERFLOW
001812:
001813: 00,2365           10154                           CCS      MPAC                                  #  TEST TO SEE IF MPAC NON-ZERO.  (TOO BIG)
001814: 00,2366           12414                           TCF      OVF+                                  #  MAJOR PART OF DIVIDEND IS POSITIVE NON-0
001815: 00,2367           12371                           TCF      +2
001816: 00,2370           12413                           TCF      OVF+       -1                         #  MAJOR PART OF DIVIDEND IS NEG. NON-ZERO
001817:
001818: 00,2371           56131                           XCH      BUF        +1                         #  SHIFT DIVIDEND AND DIVISOR LEFT 14.
001819: 00,2372           56130                           XCH      BUF
001820: 00,2373           56155                           XCH      MPAC       +1
001821: 00,2374           56154                           XCH      MPAC
001822: 00,2375           10130                           CCS      BUF                                   #  TRY AGAIN ON FORMER MINOR PART.
001823: 00,2376           12422                           TCF      BUF+
001824: 00,2377           12401                           TCF      +2                                    #  OVERFLOW ON ZERO DIVISOR.
001825: 00,2400           12416                           TCF      BUF-
001826:
001827: 00,2401           40154                           CS       MPAC                                  #  SIGN OF MPAC DETERMINES SIGN OF RESULT.
001828: 00,2402           00006        SGNDVOVF           EXTEND
001829: 00,2403           62405                           BZMF     +2
001830: 00,2404           24136                           INCR     DVSIGN                                #  NEGMAX IN MPAC PERHAPS.
001831: 00,2405           34733        DVOVF              CAF      POSMAX                                #  ON DIVISION OVERFLOW OF ANY SORT, SET
001832: 00,2406           54154                           TS       MPAC                                  #  SET DP MPAC TO +-POSMAX.
001833: 00,2407           02630                           TC       FINALDV    +3
001834: 00,2410           34753                           CAF      ONE                                   #  SET OVERFLOW INDICATOR AND EXIT.
001835: 00,2411           54121                           TS       OVFIND
001836: 00,2412           06073                           TC       DANZIG
001837:
001838: 00,2413           24136                 -1        INCR     DVSIGN
001839: 00,2414           40131        OVF+               CS       BUF        +1                         #  LOAD LOWER ORDER PART OF DIVISOR.
001840: 00,2415           12402                           TCF      SGNDVOVF                              #  GET SIGN OF RESULT.
001841:
001842: 00,2416           00006        BUF-               EXTEND                                         #  IF BUF IS NEGATIVE, COMPLEMENT IT AND
001843: 00,2417           40131                           DCS      BUF                                   #  MAINTAIN DVSIGN FOR FINAL QUOTIENT SIGN.
001844: 00,2420           52131                           DXCH     BUF
001845: 00,2421           24136                           INCR     DVSIGN                                #  NOW -0.
001846:


001848: 00,2422           10154        BUF+               CCS      MPAC                                  #  FORCE MPAC POSITIVE, CHECKING FOR ZERO
001849: 00,2423           12437                           TCF      MPAC+                                 #  DIVIDEND IN THE PROCESS.
001850: 00,2424           12426                           TCF      +2
001851: 00,2425           12433                           TCF      MPAC-
001852: 00,2426           10155                           CCS      MPAC       +1
001853: 00,2427           12437                           TCF      MPAC+
001854: 00,2430           16073                           TCF      DANZIG                                #  EXIT IMMEDIATELY ON ZERO DIVIDEND.
001855: 00,2431           12433                           TCF      MPAC-
001856: 00,2432           16073                           TCF      DANZIG
001857:
001858: 00,2433           00006        MPAC-              EXTEND                                         #  FORCE MPAC POSITIVE AS BUF IN BUF-.
001859: 00,2434           40155                           DCS      MPAC
001860: 00,2435           52155                           DXCH     MPAC
001861: 00,2436           24136                           INCR     DVSIGN                                #  NOW +1 OR -0.
001862:


001864: 00,2437           40154        MPAC+              CS       MPAC                                  #  CHECK FOR DIVISION OVERFLOW. IF THE
001865: 00,2440           67761                           AD       NEGONE                                #  MAJOR PART OF THE DIVIDEND IS LESS THAN
001866: 00,2441           60130                           AD       BUF                                   #  THE MAJOR PART OF THE DIVISOR BY AT
001867: 00,2442           10000                           CCS      A                                     #  LEAST TWO, WE CAN PROCEED IMMEDIATELY
001868: 00,2443           12505                           TCF      DVNORM                                #  WITHOUT NORMALIZATION PRODUCING A DVMAX.
001869: 00,2444           60001        -1/2+2             OCT      60001                                 #  USED IN SQRTSUB.
001870:
001871: 00,2445           12446                           TCF      +1                                    #  IF THE ABOVE DOES NOT HOLD, FORCE SIGN
001872: 00,2446           34736                           CAF      HALF                                  #  AGREEMENT IN NUMERATOR AND DENOMINATOR
001873: 00,2447           60000                           DOUBLE                                         #  TO FACILITATE OVERFLOW AND NEAR-ONE
001874: 00,2450           60155                           AD       MPAC       +1                         #  CHECKING.
001875: 00,2451           54155                           TS       MPAC       +1
001876: 00,2452           34755                           CAF      ZERO
001877: 00,2453           64733                           AD       POSMAX
001878: 00,2454           26154                           ADS      MPAC
001879:
001880: 00,2455           34736                           CAF      HALF                                  #  SAME FOR BUF.
001881: 00,2456           60000                           DOUBLE
001882: 00,2457           60131                           AD       BUF        +1
001883: 00,2460           54131                           TS       BUF        +1
001884: 00,2461           34755                           CAF      ZERO
001885: 00,2462           64733                           AD       POSMAX
001886: 00,2463           26130                           ADS      BUF
001887:
001888: 00,2464           40154                           CS       MPAC                                  #  CHECK MAGNITUDE OF SIGN-CORRECTED
001889: 00,2465           60130                           AD       BUF                                   #  OPERANDS.
001890: 00,2466           10000                           CCS      A
001891: 00,2467           12505                           TCF      DVNORM                                #  DIVIDE OK - WILL NOT BECOME MAXDV CASE.
001892: 00,2470           00133        LBUF2              ADRES    BUF2
001893: 00,2471           12405                           TCF      DVOVF                                 #  DIVISOR NOT LESS THAN DIVIDEND - OVF.
001894:
001895: 00,2472           54140                           TS       MAXDVSW                               #  IF THE MAJOR PARTS OF THE DIVIDEND AND
001896: 00,2473           40155                           CS       MPAC       +1                         #  DIVISOR ARE EQUAL, A SPECIAL APPROXIMA-
001897: 00,2474           60131                           AD       BUF        +1                         #  TION IS USED (PROVIDED THE DIVISION IS
001898: 00,2475           00006                           EXTEND                                         #  POSSIBLE, OF COURSE).
001899: 00,2476           62405                           BZMF     DVOVF
001900: 00,2477           12505                           TCF      DVNORM                                #  IF NO OVERFLOW.
001901:


001903: 00,2500           00006        BUFNORM            EXTEND                                         #  ADD -1 TO AUGMENT SHIFT COUNT AND SHIFT
001904: 00,2501           24137                           AUG      DVNORMCT                              #  LEFT ONE PLACE.
001905: 00,2502           00006                           EXTEND
001906: 00,2503           30131                           DCA      BUF
001907: 00,2504           20131                           DAS      BUF
001908:
001909: 00,2505           30130        DVNORM             CA       BUF                                   #  SEE IF DIVISOR NORMALIZED YET.
001910: 00,2506           60000                           DOUBLE
001911: 00,2507           54000                           OVSK
001912: 00,2510           12500                           TCF      BUFNORM                               #  NO - SHIFT LEFT ONE AND TRY AGAIN.
001913:
001914: 00,2511           52155                           DXCH     MPAC                                  #  CALL DIVIDEND NORMALIZATION SEQUENCE
001915: 00,2512           50137                           INDEX    DVNORMCT                              #  PRIOR TO DOING THE DIVIDE.
001916: 00,2513           02565                           TC       MAXTEST
001917:
001918: 00,2514           54156                           TS       MPAC       +2                         #  RETURNS WITH DIVISION DONE AND C(A) = 0.
001919: 00,2515           16073                           TCF      DANZIG
001920:
001921: 00,2516           10000        BUFPOS             CCS      A
001922: 00,2517           12422                           TCF      BUF+                                  #  TO BUF+ IF BUF IS GREATER THAN +1.
001923:
001924: 00,2520           40131                           CS       BUF        +1                         #  IF BUF IS +1, FORCING SIGN AGREEMENT
001925: 00,2521           00006                           EXTEND                                         #  MAY CAUSE BUF TO BECOME ZERO.
001926: 00,2522           62422                           BZMF     BUF+                                  #  BRANCH IF SIGNS AGREE.
001927:
001928: 00,2523           34736                           CA       HALF                                  #  SIGNS DISAGREE.  FORCE AGREEMENT.
001929: 00,2524           60000                 +6        DOUBLE
001930: 00,2525           26131                           ADS      BUF        +1
001931: 00,2526           34755                           CA       ZERO
001932: 00,2527           54130                           TS       BUF
001933: 00,2530           12363                           TCF      BUFZERO
001934:
001935: 00,2531           10000        BUFNEG             CCS      A
001936: 00,2532           12416                           TCF      BUF-                                  #  TO BUF- IF BUF IS LESS THAN -1.
001937:
001938: 00,2533           30131                           CA       BUF        +1                         #  IF BUF IS -1, FORCING SIGN AGREEMENT
001939: 00,2534           00006                           EXTEND                                         #  MAY CAUSE BUF TO BECOME ZERO.
001940: 00,2535           62416                           BZMF     BUF-                                  #  BRANCH IF SIGNS AGREE.
001941:
001942: 00,2536           44736                           CS       HALF                                  #  SIGNS DISAGREE.  FORCE AGREEMENT.
001943: 00,2537           12524                           TCF      BUFPOS     +6
001944:


001946:                                                                                                  #           THE FOLLOWING ARE PROLOGUES TO SHIFT THE DIVIDEND ARRIVING IN A AND L BEFORE THE DIVIDE.
001947:
001948: 00,2540           22021                 -21D      LXCH     SR                                    #  SPECIAL PROLOGUE FOR UNIT WHEN THE
001949: 00,2541           00006                           EXTEND                                         #  LENGTH OF THE ARGUMENT WAS NOT LESS THAN
001950: 00,2542           74736                           MP       HALF                                  #  .5. IN THIS CASE, EACH COMPONENT MUST BE
001951: 00,2543           56001                           XCH      L                                     #  SHIFTED RIGHT ONE TO PRODUCE A HALF-UNIT
001952: 00,2544           60021                           AD       SR                                    #  VECTOR.
001953: 00,2545           56001                           XCH      L
001954: 00,2546           12571                           TCF      GENDDV     +1                         #  WITH DP DIVIDEND IN A,L.
001955:
001956: 00,2547           20001                           DDOUBL                                         #  PROLOGUE WHICH NORMALIZES THE DIVIDEND
001957: 00,2550           20001                           DDOUBL                                         #  WHEN IT IS KNOWN THAT NO DIVISION
001958: 00,2551           20001                           DDOUBL                                         #  OVERFLOW WILL OCCUR.
001959: 00,2552           20001                           DDOUBL
001960: 00,2553           20001                           DDOUBL
001961: 00,2554           20001                           DDOUBL
001962: 00,2555           20001                           DDOUBL
001963: 00,2556           20001                           DDOUBL
001964: 00,2557           20001                           DDOUBL
001965: 00,2560           20001                           DDOUBL
001966: 00,2561           20001                           DDOUBL
001967: 00,2562           20001                           DDOUBL
001968: 00,2563           20001                           DDOUBL
001969: 00,2564           52155                           DXCH     MPAC
001970:
001971: 00,2565           10140        MAXTEST            CCS      MAXDVSW                               #  0 IF MAJORS MIGHT BE =, -1 OTHERWISE.
001972: 00,2566           06552        BIASHI             DEC      .4192      B-1                        #  SQRT CONSTANTS
001973:
001974: 00,2567           12642                           TCF      MAXDV                                 #  CHECK TO SEE IF THEY ARE NOW EQUAL.
001975:


001977:                                                                                                  #           THE FOLLOWING IS A GENERAL PURPOSE DOUBLE PRECISION DIVISION ROUTINE. IT DIVIDES MPAC BY BUF AND LEAVES
001978:                                                                                                  #  THE RESULT IN MPAC. THE FOLLOWING CONDITIONS MUST BE SATISFIED:
001979:
001980:                                                                                                  #           1.  THE DIVISOR (BUF) MUST BE POSITIVE AND NOT LESS THAN .5.
001981:
001982:                                                                                                  #           2.  THE DIVIDEND (MPAC) MUST BE POSITIVE WITH THE MAJOR PART OF MPAC STRICTLY LESS THAN THAT OF BUF
001983:                                                                                                  #  (A SPECIAL APPROXIMATION, MAXDV, IS USED WHEN THE MAJOR PARTS ARE EQUAL).
001984:
001985:                                                                                                  #           UNDERSTANDING THAT A/B = Q + S(R/B) WHERE S = 2(-14) AND Q AND R ARE QUOTIENT AND REMAINDER, RESPEC-
001986:                                                                                                  #  TIVELY, THE FOLLOWING APPROXIMATION IS OBTAINED BY MULTIPLYING ABOVE AND BELOW BY C - SD AND NEGLECTING TERMS OF
001987:                                                                                                  #  ORDER S-SQUARED (POSSIBLY INTRODUCING ERROR INTO THE LOW TWO BITS OF THE RESULT). SIGN AGREEMENT IS UNNECESSARY.
001988:
001989:                                                                                                  #           A + SB .      (R - QD)                                             A + SB
001990:                                                                                                  #           ------ = Q + S(------) WHERE Q AND R ARE QUOTIENT AND REMAINDER OF ------ RESPECTIVELY.
001991:                                                                                                  #           C + SD        (  C   )                                               C
001992:
001993:
001994: 00,2570           52155        GENDDV             DXCH     MPAC                                  #  WE NEED A AND B ONLY FOR FIRST DV.
001995: 00,2571           00006                 +1        EXTEND                                         #  (SPECIAL UNIT PROLOGUE ENTERS HERE).
001996: 00,2572           10130                           DV       BUF                                   #  A NOW CONTAINS Q AND L, R.
001997: 00,2573           52155                           DXCH     MPAC
001998:
001999: 00,2574           40154                           CS       MPAC                                  #  FORM DIVIDEND FOR MINOR PART OF RESULT.
002000: 00,2575           00006                           EXTEND
002001: 00,2576           70131                           MP       BUF        +1
002002: 00,2577           60155                           AD       MPAC       +1                         #  OVERFLOW AT THIS POINT IS POSITIVE SINCE
002003: 00,2600           54000                           OVSK                                           #  R IS POSITIVE IN EVERY CASE.
002004: 00,2601           12606                           TCF      +5
002005:
002006: 00,2602           00006                           EXTEND                                         #  OVERFLOW CAN BE REMOVED BY SUBTRACTING C
002007: 00,2603           60130                           SU       BUF                                   #  (BUF) ONCE SINCE R IS ALWAYS LESS THAN C
002008: 00,2604           24154                           INCR     MPAC                                  #  IN THIS CASE. INCR COMPENSATES SUBTRACT.
002009: 00,2605           12610                           TCF      +DOWN                                 #  (SINCE C(A) IS STILL POSITIVE).
002010:
002011: 00,2606           00006                 +5        EXTEND                                         #  C(A) CAN BE MADE LESS THAN C IN MAGNI-
002012: 00,2607           62620                           BZMF     -UP                                   #  TUDE BY DIMINISHING IT BY C (SINCE C IS
002013:                                                                                                  #  NOT LESS THAN .5) UNLESS C(A) = 0.
002014:


002016: 00,2610           00006        +DOWN              EXTEND
002017: 00,2611           60130                           SU       BUF                                   #  IF POSITIVE, REDUCE ONLY IF NECESSARY
002018: 00,2612           00006                           EXTEND                                         #  SINCE THE COMPENSATING INCR MIGHT CAUSE
002019: 00,2613           12616                           BZF      +3                                    #  OVERFLOW.
002020: 00,2614           00006                           EXTEND                                         #  DONT SUBTRACT UNLESS RESULT IS POSITIVE
002021: 00,2615           62624                           BZMF     ENDMAXDV                              #  OR ZERO.
002022:
002023: 00,2616           24154                 +3        INCR     MPAC                                  #  KEEP SUBTRACT HERE AND COMPENSATE.
002024: 00,2617           12625                           TCF      FINALDV
002025:
002026: 00,2620           00006        -UP                EXTEND                                         #  IF ZERO, SET MINOR PART OF RESULT TO
002027: 00,2621           12630                           BZF      FINALDV    +3                         #  ZERO.
002028:
002029: 00,2622           00006                           EXTEND                                         #  IF NEGATIVE, ADD C TO A, SUBTRACTING ONE
002030: 00,2623           26154                           DIM      MPAC                                  #  TO COMPENSATE. DIM IS OK HERE SINCE THE
002031: 00,2624           60130        ENDMAXDV           AD       BUF                                   #  MAJOR PART NEVER GOES NEGATIVE.
002032:


002034: 00,2625           22007        FINALDV            ZL                                             #  DO DV TO OBTAIN MINOR PART OF RESULT.
002035: 00,2626           00006                           EXTEND
002036: 00,2627           10130                           DV       BUF
002037: 00,2630           54155                 +3        TS       MPAC       +1
002038:
002039: 00,2631           10136                           CCS      DVSIGN                                #  LEAVE RESULT POSITIVE UNLESS C(DVSIGN)=
002040: 00,2632           00002                           TC       Q                                     #  -0.
002041: 00,2633           00002                           TC       Q
002042: 00,2634           00002                           TC       Q
002043:
002044: 00,2635           00006                           EXTEND
002045: 00,2636           40155                           DCS      MPAC
002046: 00,2637           52155                           DXCH     MPAC
002047: 00,2640           34755                           CAF      ZERO                                  #  SO WE ALWAYS RETURN WITH C(A) = 0.
002048: 00,2641           00002                           TC       Q
002049:


002051:                                                                                                  #           IF THE MAJOR PARTS OF THE DIVISOR AND DIVIDEND ARE EQUAL, BUT THE MINOR PARTS ARE SUCH THAT THE
002052:                                                                                                  #  DIVIDEND IS STRICTLY LESS THAN THE DIVISOR IN MAGNITUDE, THE FOLLOWING APPROXIMATION IS USED. THE ASSUMPTIONS
002053:                                                                                                  #  ARE THE SAME AS THE GENERAL ROUTINE WITH THE ADDITION THAT SIGN AGREEMENT IS NECESSARY (B, C, & D POSITIVE).
002054:
002055:                                                                                                  #                  C + SB .          (C + B - D)
002056:                                                                                                  #                  ------ = 37777 + S(---------)
002057:                                                                                                  #                  C + SD            (    C    )
002058:
002059:                                                                                                  #           THE DIVISION MAY BE PERFORMED IMMEDIATELY SINCE B IS STRICTLY LESS THAN D AND C IS NOT LESS THAN .5.
002060:
002061: 00,2642           40154        MAXDV              CS       MPAC                                  #  SEE IF MAXDV CASE STILL HOLDS AFTER
002062: 00,2643           60130                           AD       BUF                                   #  NORMALIZATION.
002063: 00,2644           00006                           EXTEND
002064: 00,2645           12647                           BZF      +2
002065: 00,2646           12570                           TCF      GENDDV                                #  MPAC NOW LESS THAN BUF - DIVIDE AS USUAL
002066:
002067: 00,2647           34733                 +2        CAF      POSMAX                                #  SET MAJOR PART OF RESULT.
002068: 00,2650           54154                           TS       MPAC
002069:
002070: 00,2651           40131                           CS       BUF        +1                         #  FORM DIVIDEND OF MINOR PART OF RESULT.
002071: 00,2652           60155                           AD       MPAC       +1
002072: 00,2653           12624                           TCF      ENDMAXDV                              #  GO ADD C AND DO DIVIDE, ATTACHING SIGN
002073:                                                                                                  #  BEFORE EXITING.
002074:


002076:                                                                                                  #           VECTOR DIVIDED BY SCALAR, V/SC, IS EXECUTED HERE. THE VECTOR IS NOW IN MPAC WITH SCALAR IN BUF.
002077:
002078: 00,2654           44753        V/SC2              CS       ONE                                   #  INITIALIZE DIVIDEND NORMALIZATION COUNT
002079: 00,2655           54137                           TS       DVNORMCT                              #  AND DIVISION SIGN REGISTER.
002080: 00,2656           54127                           TS       VBUF       +5
002081:
002082: 00,2657           03010                           TC       VECAGREE                              #  FORCE SIGN AGREEMENT IN VECTOR
002083:
002084: 00,2660           52131                           DXCH     BUF
002085: 00,2661           07556                           TC       ALSIGNAG                              #  SIGN AGREE BUF
002086: 00,2662           52131                           DXCH     BUF
002087: 00,2663           10130                           CCS      BUF                                   #  FORCE DIVISOR POSITIVE WITH MAJOR PART
002088: 00,2664           12721                           TCF      /BUF+                                 #  NON-ZERO (IF POSSIBLE).
002089: 00,2665           12667                           TCF      +2
002090: 00,2666           12715                           TCF      /BUF-
002091:
002092: 00,2667           56131                           XCH      BUF        +1                         #  SHIFT VECTOR AND SCALAR LEFT 14.
002093: 00,2670           56130                           XCH      BUF
002094: 00,2671           56155                           XCH      MPAC       +1
002095: 00,2672           56154                           XCH      MPAC
002096: 00,2673           00006                           EXTEND                                         #  CHECK FOR OVERFLOW IN EACH CASE.
002097: 00,2674           12676                           BZF      +2
002098: 00,2675           12405                           TCF      DVOVF
002099:
002100: 00,2676           56160                           XCH      MPAC       +4
002101: 00,2677           56157                           XCH      MPAC       +3
002102: 00,2700           00006                           EXTEND
002103: 00,2701           12703                           BZF      +2
002104: 00,2702           12405                           TCF      DVOVF
002105:
002106: 00,2703           56162                           XCH      MPAC       +6
002107: 00,2704           56161                           XCH      MPAC       +5
002108: 00,2705           00006                           EXTEND
002109: 00,2706           12710                           BZF      +2
002110: 00,2707           12405                           TCF      DVOVF
002111:
002112: 00,2710           10130                           CCS      BUF
002113: 00,2711           12721                           TCF      /BUF+
002114: 00,2712           12405                           TCF      DVOVF                                 #  ZERO DIVISOR - OVERFLOW.
002115: 00,2713           12715                           TCF      /BUF-
002116: 00,2714           12405                           TCF      DVOVF
002117:
002118: 00,2715           00006        /BUF-              EXTEND                                         #  ON NEGATIVE, COMPLEMENT BUF AND MAINTAIN
002119: 00,2716           40131                           DCS      BUF                                   #  DVSIGN IN VBUF +5.
002120: 00,2717           52131                           DXCH     BUF
002121: 00,2720           24127                           INCR     VBUF       +5
002122:


002124: 00,2721           00006        /BUF+              EXTEND
002125: 00,2722           30131                           DCA      BUF                                   #  LEAVE ABS(ORIG DIVISOR) IN BUF2
002126: 00,2723           52134                           DXCH     BUF2                                  #  FOR OVERFLOW TESTING
002127: 00,2724           12732                           TCF      /NORM                                 #  NORMALIZE DIVISOR IN BUF.
002128:
002129: 00,2725           00006        /NORM2             EXTEND                                         #  IF LESS THAN .5, AUGMENT DVNORMCT AND
002130: 00,2726           24137                           AUG      DVNORMCT                              #  DOUBLE DIVISOR.
002131: 00,2727           00006                           EXTEND
002132: 00,2730           30131                           DCA      BUF
002133: 00,2731           20131                           DAS      BUF
002134:
002135: 00,2732           30130        /NORM              CA       BUF                                   #  SEE IF DIVISOR NORMALIZED.
002136: 00,2733           60000                           DOUBLE
002137: 00,2734           54000                           OVSK
002138: 00,2735           12725                           TCF      /NORM2                                #  DOUBLE AND TRY AGAIN IF NOT.
002139:
002140: 00,2736           02750                           TC       V/SCDV                                #  DO X COMPONENT DIVIDE.
002141: 00,2737           52160                           DXCH     MPAC       +3                         #  SUPPLY ARGUMENTS IN USUAL SEQUENCE.
002142: 00,2740           52155                           DXCH     MPAC
002143: 00,2741           52160                           DXCH     MPAC       +3
002144:
002145: 00,2742           02750                           TC       V/SCDV                                #  Y COMPONENT.
002146: 00,2743           52162                           DXCH     MPAC       +5
002147: 00,2744           52155                           DXCH     MPAC
002148: 00,2745           52162                           DXCH     MPAC       +5
002149:
002150: 00,2746           02750                           TC       V/SCDV                                #  Z COMPONENT.
002151: 00,2747           17432                           TCF      VROTATEX                              #  GO RE-ARRANGE COMPONENTS BEFORE EXIT.
002152:


002154:                                                                                                  #           SUBROUTINE USED BY V/SC TO DIVIDE VECTOR COMPONENT IN MPAC,+1 BY THE SCALAR GIVEN IN BUF.
002155:
002156: 00,2750           30127        V/SCDV             CA       VBUF       +5                         #  REFLECTS SIGN OF SCALAR.
002157: 00,2751           54136                           TS       DVSIGN
002158:
002159: 00,2752           10154                           CCS      MPAC                                  #  FORCE MPAC POSITIVE, EXITING ON ZERO.
002160: 00,2753           12767                           TCF      /MPAC+
002161: 00,2754           12756                           TCF      +2
002162: 00,2755           12763                           TCF      /MPAC-
002163:
002164: 00,2756           10155                           CCS      MPAC       +1
002165: 00,2757           12767                           TCF      /MPAC+
002166: 00,2760           00002                           TC       Q
002167: 00,2761           12763                           TCF      /MPAC-
002168: 00,2762           00002                           TC       Q
002169:
002170: 00,2763           00006        /MPAC-             EXTEND                                         #  USUAL COMPLEMENTING AND SETTING OF SIGN.
002171: 00,2764           40155                           DCS      MPAC
002172: 00,2765           52155                           DXCH     MPAC
002173: 00,2766           24136                           INCR     DVSIGN
002174:
002175: 00,2767           44753        /MPAC+             CS       ONE                                   #  INITIALIZE NEAR-ONE SWITCH.
002176: 00,2770           54140                           TS       MAXDVSW
002177:
002178: 00,2771           40154                           CS       MPAC                                  #  CHECK POSSIBLE OVERFLOW.
002179: 00,2772           60133                           AD       BUF2                                  #  UNNORMALIZED INPUT DIVISOR.
002180: 00,2773           10000                           CCS      A
002181: 00,2774           13004                           TCF      DDVCALL                               #  NOT NEAR-ONE
002182: 00,2775           12777                           TCF      +2                                    #  +0 IS JUST POSSIBLE
002183: 00,2776           12405                           TCF      DVOVF                                 #  NO HOPE
002184: 00,2777           54140                           TS       MAXDVSW                               #  SIGNAL POSSIBLE NEAR-ONE CASE
002185: 00,3000           40155                           CS       MPAC       +1                         #  SEE IF DIVISION CAN BE DONE
002186: 00,3001           60134                           AD       BUF2       +1
002187: 00,3002           00006                           EXTEND
002188: 00,3003           62405                           BZMF     DVOVF
002189:
002190: 00,3004           52155        DDVCALL            DXCH     MPAC                                  #  CALL PRE-DIVIDE NORMALIZATION.
002191: 00,3005           50137                           INDEX    DVNORMCT
002192: 00,3006           12565                           TCF      MAXTEST
002193:


002195: 00,3007           32506        SLOPELO            DEC      .8324
002196:
002197: 00,3010           56002        VECAGREE           XCH      Q                                     #  SAVE Q IN A
002198: 00,3011           52155                           DXCH     MPAC
002199: 00,3012           07556                           TC       ALSIGNAG                              #  SIGNAGREE MPAC
002200: 00,3013           52155                           DXCH     MPAC
002201: 00,3014           52160                           DXCH     MPAC       +3
002202: 00,3015           07556                           TC       ALSIGNAG                              #  SIGN AGREE MPAC +3
002203: 00,3016           52160                           DXCH     MPAC       +3
002204: 00,3017           52162                           DXCH     MPAC       +5
002205: 00,3020           07556                           TC       ALSIGNAG                              #  SIGNAGREE MPAC +5
002206: 00,3021           52162                           DXCH     MPAC       +5
002207: 00,3022           00000                           TC       A
002208:


002210:                                                                                                  #           THE FOLLOWING ROUTINE EXECUTES THE UNIT INSTRUCTION, WHICH TAKES THE UNIT OF THE VECTOR IN MPAC.
002211:
002212: 00,3023           03010        UNIT               TC       VECAGREE                              #  FORCE SIGN AGREEMENT IN VECTOR
002213: 00,3024           07544                           TC       MPACVBUF                              #  SAVE ARGUMENT IN VBUF
002214: 00,3025           34755                           CAF      ZERO                                  #  MUST SENSE OVERFLOW IN FOLLOWING DOT.
002215: 00,3026           56121                           XCH      OVFIND
002216: 00,3027           54141                           TS       TEM1
002217: 00,3030           03317                           TC       VSQSUB                                #  DOT MPAC WITH ITSELF.
002218: 00,3031           30141                           CA       TEM1
002219: 00,3032           56121                           XCH      OVFIND
002220: 00,3033           00006                           EXTEND
002221: 00,3034           13036                           BZF      +2
002222: 00,3035           12405                           TCF      DVOVF
002223: 00,3036           00006                           EXTEND
002224: 00,3037           30155                           DCA      MPAC                                  #  LEAVE THE SQUARE OF THE LENGTH OF THE
002225: 00,3040           50120                           INDEX    FIXLOC                                #  ARGUMENT IN LVSQUARE.
002226: 00,3041           52043                           DXCH     LVSQUARE
002227:
002228: 00,3042           03343                           TC       SQRTSUB                               #  GO TAKE THE NORMALIZED SQUARE ROOT.
002229:
002230: 00,3043           10154                           CCS      MPAC                                  #  CHECK FOR UNIT OVERFLOW.
002231: 00,3044           13051                           TCF      +5                                    #  MPAC IS NOT LESS THAN .5 UNLESS
002232: 00,3045           54001                           TS       L
002233: 00,3046           50120                           INDEX    FIXLOC
002234: 00,3047           52045                           DXCH     LV
002235: 00,3050           12405                           TCF      DVOVF                                 #  INPUT TO SQRTSUB WAS 0.
002236:
002237: 00,3051           44317                           CS       FOURTEEN                              #  SEE IF THE INPUT WAS SO SMALL THE THE
002238: 00,3052           60135                           AD       MPTEMP                                #  FIRST TWO REGISTERS OF THE SQUARE WERE 0
002239: 00,3053           10000                           CCS      A
002240: 00,3054           40000                           COM                                            #  IF SO, SAVE THE NEGATIVE OF THE SHIFT
002241: 00,3055           13133                           TCF      SMALL                                 #  COUNT -15D.
002242:
002243: 00,3056           13065                           TCF      LARGE                                 #  (THIS IS USUALLY THE CASE.)
002244:
002245: 00,3057           44761                           CS       THIRTEEN                              #  IF THE SHIFT COUNT WAS EXACTLY 14, SET
002246: 00,3060           54135                           TS       MPTEMP                                #  THE PRE-DIVIDE NORM COUNT TO -13D.
002247:
002248: 00,3061           30154                           CA       MPAC                                  #  SHIFT THE LENGTH RIGHT 14 BEFORE STORING
002249: 00,3062           54001        SMALL2             TS       L                                     #  (SMALL EXITS TO THIS POINT).
002250: 00,3063           34755                           CAF      ZERO
002251: 00,3064           13112                           TCF      LARGE2                                #  GO TO STORE LENGTH AND PROCEED.
002252:
002253: 00,3065           10135        LARGE              CCS      MPTEMP                                #  MOST ALL CASES COME HERE.
002254: 00,3066           13074                           TCF      LARGE3                                #  SEE IF NO NORMALIZATION WAS REQUIRED BY
002255:
002256: 00,3067           42024                           CS       SRDDV                                 #  SQRT, AND IF SO, SET UP FOR A SHIFT
002257: 00,3070           54135                           TS       MPTEMP                                #  RIGHT 1 BEFORE DIVIDING TO PRODUCE
002258: 00,3071           00006                           EXTEND                                         #  THE DESIRED HALF UNIT VECTOR.
002259: 00,3072           30155                           DCA      MPAC


002261: 00,3073           13112                           TCF      LARGE2
002262:


002264: 00,3074           40000        LARGE3             COM                                            #  LEAVE NEGATIVE OF SHIFT COUNT-1 FOR
002265: 00,3075           54135                           TS       MPTEMP                                #  PREDIVIDE LEFT SHIFT.
002266:
002267: 00,3076           40000                           COM                                            #  PICK UP REQUIRED SHIFTING BIT TO UNNORM-
002268: 00,3077           50000                           INDEX    A                                     #  ALIZE THE SQRT RESULT.
002269: 00,3100           34736                           CAF      BIT14
002270: 00,3101           54130                           TS       BUF
002271: 00,3102           00006                           EXTEND
002272: 00,3103           70155                           MP       MPAC       +1
002273: 00,3104           56130                           XCH      BUF
002274: 00,3105           00006                           EXTEND                                         #  (UNNORMALIZE THE SQRT FOR LV).
002275: 00,3106           70154                           MP       MPAC
002276: 00,3107           56001                           XCH      L
002277: 00,3110           60130                           AD       BUF
002278: 00,3111           56001                           XCH      L
002279:
002280: 00,3112           50120        LARGE2             INDEX    FIXLOC
002281: 00,3113           52045                           DXCH     LV                                    #  LENGTH NOW STORED IN WORK AREA.
002282:
002283: 00,3114           44753                           CS       ONE
002284: 00,3115           54140                           TS       MAXDVSW                               #  NO MAXDV CASES IN UNIT.
002285:
002286: 00,3116           52123                           DXCH     VBUF                                  #  PREPARE X COMPONENT FOR DIVIDE, SETTING
002287: 00,3117           52155                           DXCH     MPAC                                  #  LENGTH OF VECTOR AS DIVISOR IN BUF.
002288: 00,3120           52131                           DXCH     BUF
002289: 00,3121           03151                           TC       UNITDV
002290:
002291: 00,3122           52125                           DXCH     VBUF       +2                         #  DO Y AND Z IN USUAL FASHION SO WE CAN
002292: 00,3123           52155                           DXCH     MPAC                                  #  EXIT THROUGH VROTATEX.
002293: 00,3124           52160                           DXCH     MPAC       +3
002294: 00,3125           03151                           TC       UNITDV
002295:
002296: 00,3126           52127                           DXCH     VBUF       +4
002297: 00,3127           52155                           DXCH     MPAC
002298: 00,3130           52162                           DXCH     MPAC       +5
002299: 00,3131           03151                           TC       UNITDV
002300: 00,3132           17432                           TCF      VROTATEX                              #  AND EXIT.
002301:


002303:                                                                                                  #           IF THE LENGTH OF THE ARGUMENT VECTOR WAS LESS THAN 2(-28), EACH COMPONENT MUST BE SHIFTED LEFT AT LEAST
002304:                                                                                                  #  14 PLACES BEFORE THE DIVIDE. NOTE THAT IN THIS CASE, THE MAJOR PART OF EACH COMPONENT IS ZERO.
002305:
002306: 00,3133           54135        SMALL              TS       MPTEMP                                #  NEGATIVE OF PRE-DIVIDE SHIFT COUNT.
002307:
002308: 00,3134           34755                           CAF      ZERO                                  #  SHIFT EACH COMPONENT LEFT 14.
002309: 00,3135           56123                           XCH      VBUF       +1
002310: 00,3136           56122                           XCH      VBUF
002311: 00,3137           56125                           XCH      VBUF       +3
002312: 00,3140           56124                           XCH      VBUF       +2
002313: 00,3141           56127                           XCH      VBUF       +5
002314: 00,3142           56126                           XCH      VBUF       +4
002315:
002316: 00,3143           40135                           CS       MPTEMP
002317: 00,3144           50000                           INDEX    A
002318: 00,3145           34736                           CAF      BIT14
002319: 00,3146           00006                           EXTEND
002320: 00,3147           70154                           MP       MPAC
002321: 00,3150           13062                           TCF      SMALL2
002322:
002323: 00,3151     4761               THIRTEEN           =        OCT15
002324: 00,3151     4317               FOURTEEN           =        OCT16
002325: 00,3151     4317               OCT16              =        R1D1
002326:


002328:                                                                                                  #           THE FOLLOWING ROUTINE SETS UP THE CALL TO THE DIVIDE ROUTINES.
002329:
002330: 00,3151           10154        UNITDV             CCS      MPAC                                  #  FORCE MPAC POSITIVE IF POSSIBLE, SETTING
002331: 00,3152           13170                           TCF      UMPAC+                                #  DVSIGN ACCORDING TO THE SIGN OF MPAC
002332: 00,3153           13155                           TCF      +2                                    #  SINCE THE DIVISOR IS ALWAYS POSITIVE
002333: 00,3154           13162                           TCF      UMPAC-                                #  HERE.
002334:
002335: 00,3155           10155                           CCS      MPAC       +1
002336: 00,3156           13170                           TCF      UMPAC+
002337: 00,3157           00002                           TC       Q                                     #  EXIT IMMEDIATELY ON ZERO.
002338: 00,3160           13162                           TCF      UMPAC-
002339: 00,3161           00002                           TC       Q
002340:
002341: 00,3162           44755        UMPAC-             CS       ZERO                                  #  IF NEGATIVE, SET -0 IN DVSIGN FOR FINAL
002342: 00,3163           54136                           TS       DVSIGN                                #  COMPLEMENT.
002343: 00,3164           00006                           EXTEND
002344: 00,3165           40155                           DCS      MPAC                                  #  PICK UP ABSOLUTE VALUE OF ARG AND JUMP.
002345: 00,3166           50135                           INDEX    MPTEMP
002346: 00,3167           12564                           TCF      MAXTEST    -1
002347:
002348: 00,3170           54136        UMPAC+             TS       DVSIGN                                #  SET DVSIGN FOR POSITIVE QUOTIENT.
002349: 00,3171           52155                           DXCH     MPAC
002350: 00,3172           50135                           INDEX    MPTEMP
002351: 00,3173           12564                           TCF      MAXTEST    -1
002352:


002354:                                                                                                  #           MISCELLANEOUS UNARY OPERATIONS.
002355:
002356: 00,3174           03300        DSQ                TC       DSQSUB                                #  SQUARE THE DP CONTENTS OF MPAC.
002357: 00,3175           16073                           TCF      DANZIG
002358:
002359: 00,3176           10163        ABVALABS           CCS      MODE                                  #  ABVAL OR ABS INSTRUCTION.
002360: 00,3177           13226                           TCF      ABS                                   #  DO ABS ON SCALAR.
002361: 00,3200           13226                           TCF      ABS
002362:
002363: 00,3201           03317        ABVAL              TC       VSQSUB                                #  DOT MPAC WITH ITSELF.
002364: 00,3202           22163                           LXCH     MODE                                  #  MODE IS NOW DP (L ZERO AFTER DAS).
002365:
002366: 00,3203           00006                           EXTEND                                         #  STORE SQUARE OF LENGTH IN WORK AREA.
002367: 00,3204           30155                           DCA      MPAC
002368: 00,3205           50120                           INDEX    FIXLOC
002369: 00,3206           52043                           DXCH     LVSQUARE
002370:


002372:                                                                                                  #  PROGRAM DESCRIPTION- SUBROUTINE SQRT
002373:                                                                                                  #  FUNCTIONAL DESCRIPTION-DOUBLE PRECISION SQUARE ROOT ROUTINE
002374:                                                                                                  #      THIS PROGRAM TAKES THE SQUARE ROOT OF THE 27 OR 28 MOST SIGNIFICANT BITS IN THE TRIPLE PRECISION SET OF
002375:                                                                                                  #      NUMBERS-MPAC,MPAC+1,AND MPAC+2.  THE ROOT IS RETURNED DOUBLE        PRECISION IN MPAC AND MPAC+1.
002376:                                                                                                  #  WARNING- THIS SUBROUTINE USES A TRIPLE PRECISION INPUT. THE PROGRAMMER  MUST ASSURE THE CONTENTS OF MPAC+2
002377:                                                                                                  #      ESPECIALLY IF THE CONTENTS OF MPAC IS SMALL OR ZERO.  FOR DETAILS SEE STG MEMO NO.949.
002378:                                                                                                  #  CALLING SEQUENCE- IN INTERPRETIVE MODE I.E., FOLLOWING TC  INTPRET,SQRT   NO ADDRESS IS ALLOWED
002379:                                                                                                  #  INPUT SCALING  THE BINARY POINT IS ASSUMED TO THE RIGHT OF BIT 15. THE  ANSWER IS RETURNED WITH THE SAME SCALING
002380:                                                                                                  #  SUBROUTINES- GENSCR,MPACSHR, SQRTSUB,ABORT
002381:                                                                                                  #  ABORT EXIT MODE- ABORTS ON NEGATIVE INPUT -1.2X10E-4 (77775  OCTAL)     OR LESS.
002382:                                                                                                  #      DISPLAYS ERROR CODE 1302
002383:                                                                                                  #                  TC   ABORT
002384:                                                                                                  #                  OCT  1302
002385:                                                                                                  #  DEBRIS -  LOCATIONS BUF,MPTEMP,ADDRWD ARE USED
002386: 00,3207           03343        SQRT               TC       SQRTSUB                               #  TAKE THE SQUARE ROOT OF MPAC.
002387: 00,3210           10135                           CCS      MPTEMP                                #  RETURNED NORMALIZED SQUARE ROOT. SEE IF
002388: 00,3211           13213                           TCF      +2                                    #  ANY UN-NORMALIZATION REQUIRED AND EXIT
002389: 00,3212           16073                           TCF      DANZIG                                #  IF NOT.
002390:
002391: 00,3213           63733                           AD       NEG12                                 #  A RIGHT SHIFT OF MORE THAN 13 COULD BE
002392: 00,3214           00006                           EXTEND                                         #  REQUIRED IF INPUT WAS ZERO IN MPAC,+1.
002393: 00,3215           63221                           BZMF     SQRTSHFT                              #  GOES HERE IN MOST CASES.
002394: 00,3216           22007                           ZL                                             #  IF A LONG SHIFT IS REQUIRED, GO TO
002395: 00,3217           22116                           LXCH     ADDRWD                                #  GENERAL RIGHT SHIFT ROUTINES.
002396: 00,3220           12303                           TCF      GENSCR     +4                         #  ADDRWD WAS ZERO TO PREVENT ROUND.
002397:
002398: 00,3221           50135        SQRTSHFT           INDEX    MPTEMP                                #  SELECT SHIFTING BIT AND EXIT THROUGH
002399: 00,3222           34735                           CAF      BIT15                                 #  SHIFT ROUTINES.
002400: 00,3223           54135                           TS       MPTEMP
002401: 00,3224           34755                           CAF      ZERO                                  #  TO ZERO MPAC +2 IN THE PROCESS.
002402: 00,3225           12036                           TCF      MPACSHR    +3
002403:
002404: 00,3226           06735        ABS                TC       BRANCH                                #  TEST SIGN OF MPAC AND COMPLEMENT IF
002405: 00,3227           16073                           TCF      DANZIG
002406: 00,3230           16073                           TCF      DANZIG
002407: 00,3231           17702                           TCF      COMP
002408:


002410: 00,3232           44751        VDEF               CS       FOUR                                  #  VECTOR DEFINE - ESSENTIALLY TREATS
002411: 00,3233           26166                           ADS      PUSHLOC                               #  SCALAR IN MPAC AS X COMPONENT, PUSHES UP
002412: 00,3234           00006                           EXTEND                                         #  FOR Y AND THEN AGAIN FOR Z.
002413: 00,3235           50000                           INDEX    A
002414: 00,3236           30003                           DCA      2
002415: 00,3237           52160                           DXCH     MPAC       +3
002416: 00,3240           00006                           EXTEND
002417: 00,3241           50166                           INDEX    PUSHLOC
002418: 00,3242           30001                           DCA      0
002419: 00,3243           52162                           DXCH     MPAC       +5
002420: 00,3244           16533                           TCF      VMODE                                 #  MODE IS NON VECTOR.
002421:
002422: 00,3245           03317        VSQ                TC       VSQSUB                                #  DOT MPAC WITH ITSELF.
002423: 00,3246           17344                           TCF      DMODE                                 #  MODE IS NOW DP.
002424:
002425: 00,3247           00006        PUSH               EXTEND                                         #  PUSH DOWN MPAC LEAVING IT LOADED.
002426: 00,3250           30155                           DCA      MPAC
002427: 00,3251           50166                           INDEX    PUSHLOC                               #  PUSH DOWN FIRST TWO REGISTERS IN EACH
002428: 00,3252           52001                           DXCH     0
002429:
002430: 00,3253           50163                           INDEX    MODE                                  #  INCREMENT PUSHDOWN POINTER.
002431: 00,3254           36256                           CAF      NO.WDS
002432: 00,3255           26166                           ADS      PUSHLOC
002433:
002434: 00,3256           10163                           CCS      MODE
002435: 00,3257           13272                           TCF      TPUSH                                 #  PUSH DOWN MPAC +2.
002436: 00,3260           16073                           TCF      DANZIG                                #  DONE FOR DP.
002437:
002438: 00,3261           00006                           EXTEND                                         #  ON VECTOR, PUSH DOWN Y AND Z COMPONENTS.
002439: 00,3262           30160                           DCA      MPAC       +3
002440: 00,3263           50166                           INDEX    PUSHLOC
002441: 00,3264           51775                           DXCH     0          -4
002442: 00,3265           00006                           EXTEND
002443: 00,3266           30162                           DCA      MPAC       +5
002444: 00,3267           50166                           INDEX    PUSHLOC
002445: 00,3270           51777                           DXCH     0          -2
002446: 00,3271           16073                           TCF      DANZIG
002447:
002448: 00,3272           30156        TPUSH              CA       MPAC       +2
002449: 00,3273           16566                           TCF      ENDTPUSH   +2
002450:
002451: 00,3274           50120        RVQ                INDEX    FIXLOC                                #  RVQ - RETURN IVA QPRET.
002452: 00,3275           30052                           CA       QPRET
002453: 00,3276           54117                           TS       POLISH
002454: 00,3277           16664                           TCF      GOTO       +4                         #  (ASSUME QPRET POINTS TO FIXED ONLY.)
002455:


002457:                                                                                                  #           THE FOLLOWING SUBROUTINES ARE USED IN SQUARING MPAC, IN BOTH THE SCALAR AND VECTOR SENSE. THEY ARE
002458:                                                                                                  #  SPECIAL CASES OF DMPSUB AND DOTSUB, PUT IN TO SAVE SOME TIME.
002459:
002460: 00,3300           30155        DSQSUB             CA       MPAC       +1                         #  SQUARES THE SCALAR CONTENTS OF MPAC.
002461: 00,3301           00006                           EXTEND
002462: 00,3302           70000                           SQUARE
002463: 00,3303           54156                           TS       MPAC       +2
002464: 00,3304           34755                           CAF      ZERO                                  #  FORM 2(CROSS TERM).
002465: 00,3305           56155                           XCH      MPAC       +1
002466: 00,3306           00006                           EXTEND
002467: 00,3307           70154                           MP       MPAC
002468: 00,3310           20001                           DDOUBL                                         #  AND MAYBE OVERFLOW.
002469: 00,3311           20156                           DAS      MPAC       +1                         #  AND SET A TO NET OVERFLOW.
002470: 00,3312           56154                           XCH      MPAC
002471: 00,3313           00006                           EXTEND
002472: 00,3314           70000                           SQUARE
002473: 00,3315           20155                           DAS      MPAC
002474: 00,3316           00002                           TC       Q
002475:
002476: 00,3317           00006        VSQSUB             EXTEND                                         #  DOTS THE VECTOR IN MPAC WITH ITSELF.
002477: 00,3320           22137                           QXCH     DOTRET
002478: 00,3321           03300                           TC       DSQSUB                                #  SQUARE THE X COMPONENT.
002479: 00,3322           52160                           DXCH     MPAC       +3
002480: 00,3323           52155                           DXCH     MPAC
002481: 00,3324           52131                           DXCH     BUF                                   #  SO WE CAN END IN DOTSUB.
002482: 00,3325           30156                           CA       MPAC       +2
002483: 00,3326           54132                           TS       BUF        +2
002484:
002485: 00,3327           03300                           TC       DSQSUB                                #  SQUARE Y COMPONENT.
002486: 00,3330           52156                           DXCH     MPAC       +1
002487: 00,3331           20132                           DAS      BUF        +1
002488: 00,3332           60154                           AD       MPAC
002489: 00,3333           60130                           AD       BUF
002490: 00,3334           54130                           TS       BUF
002491: 00,3335           13337                           TCF      +2
002492: 00,3336           54121                           TS       OVFIND                                #  IF OVERFLOW.
002493:
002494: 00,3337           52162                           DXCH     MPAC       +5
002495: 00,3340           52155                           DXCH     MPAC
002496: 00,3341           03300                           TC       DSQSUB                                #  SQUARE Z COMPONENT.
002497: 00,3342           17217                           TCF      ENDDOT                                #  END AS IN DOTSUB.
002498:


002500:                                                                                                  #           DOUBLE PRECISION SQUARE ROOT ROUTINE. TAKE THE SQUARE ROOT OF THE TRIPLE PRECISION (MPAC +2 USED ONLY
002501:                                                                                                  #  IN NORMALIZATION) CONTENTS OF MPAC AND LEAVE THE NORMALIZED RESULT IN MPAC (C(MPAC) GREATER THAN OR EQUAL TO
002502:                                                                                                  #  .5). THE RIGHT SHIFT COUNT (TO UNNORMALIZE) IS LEFT IN MPTEMP.
002503:
002504: 00,3343           34755        SQRTSUB            CAF      ZERO                                  #  START BY ZEROING RIGHT SHIFT COUNT.
002505: 00,3344           54135                           TS       MPTEMP
002506:
002507: 00,3345           10154                           CCS      MPAC                                  #  CHECK FOR POSITIVE ARGUMENT, SHIFTING
002508: 00,3346           13405                           TCF      SMPAC+                                #  FIRST SIGNIFICANT MPAC REGISTER INTO
002509: 00,3347           13351                           TCF      +2                                    #  MPAC ITSELF.
002510: 00,3350           13373                           TCF      SQRTNEG                               #  SEE IF MAG OF ARGUMENT LESS THAN 10(-4).
002511:
002512: 00,3351           56156                           XCH      MPAC       +2                         #  MPAC IS ZERO - SHIFT LEFT 14.
002513: 00,3352           56155                           XCH      MPAC       +1
002514: 00,3353           54154                           TS       MPAC
002515: 00,3354           34757                           CAF      SEVEN                                 #  AUGMENT RIGHT SHIFT COUNTER.
002516: 00,3355           54135                           TS       MPTEMP
002517:
002518: 00,3356           10154                           CCS      MPAC                                  #  SEE IF MPAC NOW PNZ.
002519: 00,3357           13405                           TCF      SMPAC+
002520: 00,3360           13362                           TCF      +2
002521: 00,3361           13376                           TCF      ZEROANS                               #  NEGATIVE BUT LESS THAN 10(-4) IN MAG.
002522:
002523: 00,3362           56155                           XCH      MPAC       +1                         #  ZERO - SHIFT LEFT 14 AGAIN.
002524: 00,3363           54154                           TS       MPAC
002525: 00,3364           34757                           CAF      SEVEN                                 #  AUGMENT RIGHT SHIFT COUNTER.
002526: 00,3365           26135                           ADS      MPTEMP
002527:
002528: 00,3366           10154                           CCS      MPAC
002529: 00,3367           13405                           TCF      SMPAC+
002530: 00,3370           00002                           TC       Q                                     #  SQRT(0) = 0.
002531: 00,3371           13376                           TCF      ZEROANS
002532: 00,3372           13453                           TCF      FIXROOT                               #  DO NOT LEAVE SQRTSUB WITH -0 IN MPAC.
002533:
002534: 00,3373           10000        SQRTNEG            CCS      A                                     #  ARGUMENT IS NEGATIVE, BUT SEE IF SIGN-
002535: 00,3374           13402                           TCF      SQRTABRT                              #  CORRECTED ARGUMENT IS LESS THAN 10(-4)
002536:
002537: 00,3375           10155                           CCS      MPAC       +1                         #  IN MAGNITUDE. IF SO, CALL ANSWER ZERO.
002538: 00,3376           34755        ZEROANS            CAF      ZERO                                  #  FORCE ANSWER TO ZERO HERE.
002539: 00,3377           13453                           TCF      FIXROOT
002540: 00,3400           13402                           TCF      SQRTABRT
002541: 00,3401           13453                           TCF      FIXROOT
002542:
002543: 00,3402           52165        SQRTABRT           DXCH     LOC
002544: 00,3403           05727                           TC       POODOO1
002545: 00,3404           21302                           OCT      21302
002546:
002547: 00,3405           62444        SMPAC+             AD       -1/2+2                                #  SEE IF ARGUMENT GREATER THAN OR EQUAL TO


002549: 00,3406           00006                           EXTEND                                         #  .5.
002550: 00,3407           63456                           BZMF     SRTEST                                #  IF SO, SEE IF LESS THAN .25.
002551:
002552: 00,3410           52155                           DXCH     MPAC                                  #  WE WILL TAKE THE SQUARE ROOT OF MPAC/2.
002553: 00,3411           22021                           LXCH     SR                                    #  SHIFT RIGHT 1 AND GO TO THE SQRT ROUTINE
002554: 00,3412           00006                           EXTEND
002555: 00,3413           74736                           MP       HALF
002556: 00,3414           52155                           DXCH     MPAC
002557: 00,3415           56021                           XCH      SR
002558: 00,3416           26155                           ADS      MPAC       +1                         #  GUARANTEED NO OVERFLOW.
002559:
002560: 00,3417           32314        ARGHI              CAF      SLOPEHI                               #  ARGUMENT BETWEEN .25 AND .5. GET A
002561: 00,3420           00006                           EXTEND                                         #  LINEAR APPROXIMATION FOR THIS RANGE.
002562: 00,3421           70154                           MP       MPAC
002563: 00,3422           62566                           AD       BIASHI                                #  X0/2 = (MPAC/2)(SLOPEHI) + BIASHI/2.
002564:
002565: 00,3423           54130                 +4        TS       BUF                                   #  X0/2 (ARGLO ENTERS HERE).
002566: 00,3424           30154                           CA       MPAC                                  #  SINGLE-PRECISION THROUGHOUT.
002567: 00,3425           22007                           ZL
002568: 00,3426           00006                           EXTEND
002569: 00,3427           10130                           DV       BUF                                   #  (MPAC/2)/(X0/2)
002570: 00,3430           00006                           EXTEND
002571: 00,3431           74736                           MP       HALF
002572: 00,3432           26130                           ADS      BUF                                   #  X1 = X0/2 + .5(MPAC/2)/(X0/2).
002573:
002574: 00,3433           00006                           EXTEND
002575: 00,3434           74736                           MP       HALF                                  #  FORM UP X1/2.
002576: 00,3435           52155                           DXCH     MPAC                                  #  SAVE AND BRING OUT ARGUMENT.
002577: 00,3436           00006                           EXTEND                                         #  TAKE DP QUOTIENT WITH X1.
002578: 00,3437           10130                           DV       BUF
002579: 00,3440           54131                           TS       BUF        +1                         #  SAVE MAJOR PART OF QUOTIENT.
002580: 00,3441           34755                           CAF      ZERO                                  #  FORM MINOR PART OF QUOTIENT USING
002581: 00,3442           56001                           XCH      L                                     #  (REMAINDER,0).
002582: 00,3443           00006                           EXTEND
002583: 00,3444           10130                           DV       BUF
002584: 00,3445           54001                           TS       L                                     #  IN PREPARATION FOR DAS.
002585: 00,3446           30131                           CA       BUF        +1
002586: 00,3447           20155                           DAS      MPAC                                  #  X2 = X1/2 + (MPAC/2)X1
002587:
002588: 00,3450           00006                           EXTEND                                         #  OVERFLOWS IF ARG. NEAR POSMAX.
002589: 00,3451           13455                           BZF      TCQBNK00
002590: 00,3452           34733                           CAF      POSMAX
002591: 00,3453           54154        FIXROOT            TS       MPAC
002592: 00,3454           54155                           TS       MPAC       +1
002593: 00,3455           00002        TCQBNK00           TC       Q                                     #  RETURN TO CALLER TO UNNORMALIZE, ETC.
002594:


002596: 00,3456           64737        SRTEST             AD       QUARTER                               #  ARGUMENT WAS LESS THAN .5, SEE IF LESS
002597: 00,3457           00006                           EXTEND                                         #  THAN .25.
002598: 00,3460           63502                           BZMF     SQRTNORM                              #  IF SO, BEGIN NORMALIZATION.
002599:
002600: 00,3461           52155                           DXCH     MPAC                                  #  IF BETWEEN .5 AND .25, SHIFT RIGHT 1 AND
002601: 00,3462           22021                           LXCH     SR                                    #  START AT ARGLO.
002602: 00,3463           00006                           EXTEND
002603: 00,3464           74736                           MP       HALF
002604: 00,3465           52155                           DXCH     MPAC
002605: 00,3466           56021                           XCH      SR
002606: 00,3467           26155                           ADS      MPAC       +1                         #  NO OVERFLOW.
002607:
002608: 00,3470           33007        ARGLO              CAF      SLOPELO                               #  (NORMALIZED) ARGUMENT BETWEEN .125 AND
002609: 00,3471           00006                           EXTEND                                         #  .25
002610: 00,3472           70154                           MP       MPAC
002611: 00,3473           62270                           AD       BIASLO
002612: 00,3474           13423                           TCF      ARGHI      +4                         #  BEGIN SQUARE ROOT.
002613:
002614: 00,3475           00006        SQRTNM2            EXTEND                                         #  SHIFT LEFT 2 AND INCREMENT RIGHT SHIFT
002615: 00,3476           30156                           DCA      MPAC       +1                         #  COUNT (FOR TERMINAL UNNORMALIZATION).
002616: 00,3477           20156                           DAS      MPAC       +1
002617: 00,3500           60154                           AD       MPAC
002618: 00,3501           26154                           ADS      MPAC                                  #  (NO OVERFLOW).
002619:
002620: 00,3502           24135        SQRTNORM           INCR     MPTEMP                                #  FIRST TIME THROUGH, JUST SHIFT LEFT 1
002621: 00,3503           00006                           EXTEND                                         #  (PUTS IN EFFECTIVE RIGHT SHIFT SINCE
002622: 00,3504           30156                           DCA      MPAC       +1                         #  WE WANT MPAC/2).
002623: 00,3505           20156                           DAS      MPAC       +1
002624: 00,3506           60154                           AD       MPAC
002625: 00,3507           26154                           ADS      MPAC                                  #  (AGAIN NO OVERFLOW).
002626: 00,3510           60000                           DOUBLE
002627: 00,3511           54022                           TS       CYL
002628:
002629: 00,3512           10022        NORMTEST           CCS      CYL                                   #  SEE IF ARGUMENT NOW NORMALIZED AT
002630: 00,3513           10022                           CCS      CYL                                   #  GREATER THAN .125.
002631: 00,3514           13475                           TCF      SQRTNM2                               #  NO - SHIFT LEFT 2 MORE AND TRY AGAIN.
002632: 00,3515           13417                           TCF      ARGHI                                 #  YES - NOW BETWEEN .5 AND .25.
002633: 00,3516           13470                           TCF      ARGLO                                 #  ARGUMENT NOW BETWEEN .25 AND .125.
002634:


002636:                                                                                                  #  TRIGONOMETRIC FUNCTION PACKAGE.
002637:
002638:                                                                                                  #           THE FOLLOWING TRIGONOMETRIC FUNCTIONS ARE AVAILABLE AS INTERPRETIVE OPERATIONS:
002639:
002640:                                                                                                  #           1.  SIN                COMPUTES (1/2)SINE(2 PI MPAC).
002641:                                                                                                  #           2.  COS                COMPUTES (1/2)COSINE(2 PI MPAC).
002642:
002643:                                                                                                  #           3.  ASIN               COMPUTES (1/2PI)ARCSINE(2 MPAC).
002644:                                                                                                  #           4.  ACOS               COMPUTES (1/2PI)ARCCOSINE(2 MPAC).
002645:
002646:                                                                                                  #  SIN-ASIN AND COS-ACOS ARE MUTUALLY INVERSE, IE SIN(ASIN(X)) = X.
002647:
002648: 00,3517           06735        COSINE             TC       BRANCH                                #  FINDS COSINE USING THE IDENTITY
002649: 00,3520           13523                           TCF      +3                                    #  COS(X) = SIN(PI/2 - ABS(X)).
002650: 00,3521           13526                           TCF      PRESINE
002651: 00,3522           13526                           TCF      PRESINE
002652:
002653: 00,3523           00006                 +3        EXTEND
002654: 00,3524           40155                           DCS      MPAC
002655: 00,3525           52155                           DXCH     MPAC
002656:
002657: 00,3526           34737        PRESINE            CAF      QUARTER                               #  PI/2 SCALED.
002658: 00,3527           26154                           ADS      MPAC
002659:
002660:
002661: 00,3530           52155        SINE               DXCH     MPAC                                  #  DOUBLE ARGUMENT.
002662: 00,3531           20001                           DDOUBL
002663: 00,3532           54000                           OVSK                                           #  SEE IF OVERFLOW PRESENT.
002664: 00,3533           13536                           TCF      +3                                    #  IF NOT, ARGUMENT OK AS IS.
002665:
002666: 00,3534           00006                           EXTEND                                         #  IF SO, WE LOST (OR GAINED) PI, SO
002667: 00,3535           40001                           DCOM                                           #  COMPLEMENT MPAC USING THE IDENTITY
002668:                                                                                                  #  SIN(X-(+)PI) = SIN(-X).
002669: 00,3536           52155                 +3        DXCH     MPAC
002670: 00,3537           30154                           CA       MPAC                                  #  SEE IF ARGUMENT GREATER THAN .5 IN
002671: 00,3540           60000                           DOUBLE                                         #  MAGNITUDE. IF SO, REDUCE IT TO LESS THAN
002672: 00,3541           54001                           TS       L                                     #  .5 (+-PI/2 SCALED) AS FOLLOWS:
002673: 00,3542           13553                           TCF      SN1
002674:
002675: 00,3543           50000                           INDEX    A                                     #  IF POSITIVE, FORM PI - X, IF NEGATIVE
002676: 00,3544           34735                           CAF      NEG1/2     +1                         #  USE -PI - X.
002677: 00,3545           60000                           DOUBLE
002678: 00,3546           00006                           EXTEND
002679: 00,3547           60154                           SU       MPAC                                  #  GUARANTEED NO OVERFLOW.
002680: 00,3550           54154                           TS       MPAC
002681: 00,3551           40155                           CS       MPAC       +1
002682: 00,3552           54155                           TS       MPAC       +1
002683:


002685: 00,3553           00006        SN1                EXTEND                                         #  SET UP TO EVALUATE HASTINGS POLYNOMIAL
002686: 00,3554           30155                           DCA      MPAC
002687: 00,3555           52134                           DXCH     BUF2
002688: 00,3556           03300                           TC       DSQSUB                                #  SQUARE MPAC.
002689:
002690: 00,3557           07234                           TC       POLY                                  #  EVALUATE FOURTH ORDER POLYNOMIAL.
002691: 00,3560           00003                           DEC      3          B-14
002692: 00,3561           14441 37325                     2DEC     +.3926990796
002693:
002694: 00,3563           53250 60764                     2DEC     -.6459637111
002695:
002696: 00,3565           12146 21276                     2DEC     +.318758717
002697:
002698: 00,3567           75466 71471                     2DEC     -.074780249
002699:
002700: 00,3571           00236 32757                     2DEC     +.009694988
002701:
002702:
002703: 00,3573           32470                           CAF      LBUF2                                 #  MULTIPLY BY ARGUMENT AND SHIFT LEFT 2.
002704: 00,3574           07120                           TC       DMPSUB     -1
002705:
002706: 00,3575           00006                           EXTEND
002707: 00,3576           30156                           DCA      MPAC       +1
002708: 00,3577           20156                           DAS      MPAC       +1
002709: 00,3600           60154                           AD       MPAC
002710: 00,3601           26154                           ADS      MPAC                                  #  NEITHER SHIFT OVERFLOWS.
002711: 00,3602           00006                           EXTEND
002712: 00,3603           30156                           DCA      MPAC       +1
002713: 00,3604           20156                           DAS      MPAC       +1
002714: 00,3605           60154                           AD       MPAC
002715: 00,3606           26154                           ADS      MPAC
002716: 00,3607           16073                           TCF      DANZIG
002717:


002719:                                                                                                  #           ARCSIN/ARCCOS ROUTINE.
002720:
002721: 00,3610           33631        ARCSIN             CAF      LASINEX                               #  COMPUTE ARCSIN BY USING THE IDENTITY
002722: 00,3611           13613                           TCF      +2                                    #  ARCSIN(X) = PI/2 - ARCCOS(X).
002723:
002724: 00,3612           33713        ARCCOS             CAF      LDANZIG                               #  (EXITS IMMEDIATELY).
002725: 00,3613           54136                           TS       ESCAPE
002726: 00,3614           06735                           TC       BRANCH                                #  TEST SIGN OF INPUT.
002727: 00,3615           13625                           TCF      ACOSST                                #  START IMMEDIATELY IF POSITIVE.
002728: 00,3616           13731                           TCF      ACOSZERO                              #  ARCCOS(0) = PI/2 = .25.
002729: 00,3617           00006                           EXTEND                                         #  IF NEGATIVE, USE THE IDENTITY
002730: 00,3620           40155                           DCS      MPAC                                  #  ARCCOS(X) = PI - ARCCOS(-X), FORCING
002731: 00,3621           52155                           DXCH     MPAC                                  #  ARGUMENT POSITIVE.
002732: 00,3622           33734                           CAF      TCSUBTR                               #  SET EXIT  TO DO ABOVE BEFORE
002733: 00,3623           56136                           XCH      ESCAPE                                #  ARCSIN/ARCCOS CONSIDERATIONS.
002734: 00,3624           54137                           TS       ESCAPE2
002735:
002736: 00,3625           44736        ACOSST             CS       HALF                                  #  TEST MAGNITUDE OF INPUT.
002737: 00,3626           60154                           AD       MPAC
002738: 00,3627           10000                           CCS      A
002739: 00,3630           13721                           TCF      ACOSOVF                               #  THIS IS PROBABLY AN OVERFLOW CASE.
002740:
002741: 00,3631           13707        LASINEX            TCF      ASINEX
002742:
002743: 00,3632           13642                           TCF      ACOSST2                               #  NO OVERFLOW - PROCEED.
002744:
002745: 00,3633           10155                           CCS      MPAC       +1                         #  IF MAJOR PART IS .5, CALL ANSWER 0
002746: 00,3634           34755                           CAF      ZERO                                  #  UNLESS MINOR PART NEGATIVE.
002747: 00,3635           13637                           TCF      ACOS=0
002748:
002749: 00,3636           13642                           TCF      ACOSST2
002750:
002751: 00,3637           54155        ACOS=0             TS       MPAC       +1
002752: 00,3640           54154                           TS       MPAC
002753: 00,3641           00136                           TC       ESCAPE
002754:
002755: 00,3642           00006        ACOSST2            EXTEND                                         #  NOW THAT ARGUMENT IS IN PROPER RANGE,
002756: 00,3643           40155                           DCS      MPAC                                  #  BEGIN COMPUTATION. USE HASTINGS
002757: 00,3644           64736                           AD       HALF                                  #  APPROXIMATION ARCCOS(X) = SQRT(1-X)P(X)
002758: 00,3645           52155                           DXCH     MPAC                                  #  IN A SCALED VERSION WHERE P(X) IS A
002759: 00,3646           52134                           DXCH     BUF2                                  #  SEVENTH ORDER POLYNOMIAL.
002760:
002761: 00,3647           03343                           TC       SQRTSUB                               #  RETURNS WITH NORMALIZED SQUARE ROOT.
002762:
002763: 00,3650           10135                           CCS      MPTEMP                                #  SEE IF UN-NORMALIZATION REQUIRED.
002764: 00,3651           13714                           TCF      ACOSSHR                               #  IF SO.
002765:


002767: 00,3652           52155        ACOS3              DXCH     MPAC                                  #  SET UP FOR POLYNOMIAL EVALUATION.
002768: 00,3653           52134                           DXCH     BUF2
002769: 00,3654           52155                           DXCH     MPAC
002770:
002771: 00,3655           07234                           TC       POLY
002772: 00,3656           00006                           DEC      6          B-14
002773: 00,3657           13240 23630                     2DEC     +.353553385                            #  COEFFICIENTS ARE C 2(+I)/PISQRT(2) WHERE
002774:
002775: 00,3661           74721 47775                     2DEC*    -.0483017006 B+1*                       #                    I
002776:
002777: 00,3663           02440 20237                     2DEC*    +.0200273085 B+2*                       #       WHERE C STANDS FOR ORIGINAL COEFFS.
002778:
002779: 00,3665           75067 70742                     2DEC*    -.0112931863 B+3*
002780:
002781: 00,3667           03436 26756                     2DEC*    +.00695311612 B+4*
002782:
002783: 00,3671           74037 57640                     2DEC*    -.00384617957 B+5*
002784:
002785: 00,3673           03046 07143                     2DEC*    +.001501297736 B+6*
002786:
002787: 00,3675           76654 42244                     2DEC*    -.000284160334 B+7*
002788:
002789:
002790: 00,3677           32470                           CAF      LBUF2                                 #  DO FINAL MULTIPLY AND GO TO ANY
002791: 00,3700           07120                           TC       DMPSUB     -1                         #  EPILOGUE SEQUENCES.
002792: 00,3701           00136                           TC       ESCAPE
002793:
002794: 00,3702           00006        SUBTR              EXTEND                                         #  EPILOGUE FOR NEGATIVE INPUTS TO ARCCOS.
002795: 00,3703           40155                           DCS      MPAC
002796: 00,3704           64736                           AD       HALF                                  #  FORMS PI - ARCCOS(-X) = ARCCOS(X).
002797: 00,3705           52155                           DXCH     MPAC
002798: 00,3706           00137                           TC       ESCAPE2                               #  GO TO POSSIBLE ARCSIN EPILOGUE.
002799:
002800: 00,3707           00006        ASINEX             EXTEND
002801: 00,3710           40155                           DCS      MPAC                                  #  ARCSIN EPILOGUE - GET ARCSIN(X)
002802: 00,3711           64737                           AD       QUARTER                               #  = PI/2 - ARCCOS(X).
002803: 00,3712           52155                           DXCH     MPAC
002804: 00,3713           16073        LDANZIG            TCF      DANZIG
002805:


002807: 00,3714           50000        ACOSSHR            INDEX    A                                     #  THE SHIFT RIGHT IS LESS THAN 14 SINCE
002808: 00,3715           34736                           CAF      BIT14                                 #  THE INPUT WAS NON-ZERO DP.
002809: 00,3716           54135                           TS       MPTEMP
002810: 00,3717           02073                           TC       VSHRRND                               #  DP SHIFT RIGHT AND ROUND.
002811: 00,3720           13652                           TCF      ACOS3                                 #  PROCEED.
002812:
002813: 00,3721           00006        ACOSOVF            EXTEND                                         #  IF MAJOR PART WAS ONLY 1 MORE THAN .5,
002814: 00,3722           13637                           BZF      ACOS=0                                #  CALL ANSWER ZERO.
002815:
002816: 00,3723           00006        ACOSABRT           EXTEND                                         #  IF OVERFLOW, CALL ANSWER ZERO BUT
002817: 00,3724           30165                           DCA      LOC                                   #  SOUND AN ALARM.
002818: 00,3725           05733                           TC       ALARM1
002819: 00,3726           01301                           OCT      1301
002820:
002821: 00,3727           34755                           CAF      ZERO
002822: 00,3730           13637                           TCF      ACOS=0
002823:
002824: 00,3731           34737        ACOSZERO           CAF      QUARTER                               #  ACOS(0) = PI/2.
002825: 00,3732           13640                           TCF      ACOS=0     +1                         #  SET MPAC AND EXIT VIA ESCAPE.
002826:
002827: 00,3733           77763        NEG12              DEC      -12        B-14
002828: 00,3734           13702        TCSUBTR            TCF      SUBTR
002829:


002831:                                                                                                  #           THE FOLLOWING INSTRUCTIONS ARE AVAILABLE FOR SETTING, MODIFYING, AND BRANCHING ON INDEX REGISTERS:
002832:
002833:                                                                                                  #           1.  AXT                ADDRESS TO INDEX TRUE.
002834:                                                                                                  #           1.  AXC                ADDRESS TO INDEX COMPLEMENTED.
002835:                                                                                                  #           3.  LXA                LOAD INDEX FROM ERASABLE.
002836:                                                                                                  #           4.  LXC                LOAD INDEX COMPLEMENTED FROM ERASABLE.
002837:                                                                                                  #           5.  SXA                STORE INDEX IN ERASABLE.
002838:                                                                                                  #           6.  XCHX               EXCHANGE INDEX REIGSTER WITH ERASABLE.
002839:
002840:                                                                                                  #           7.  INCR               INCREMENT INDEX REGISTER.
002841:                                                                                                  #           8.  XAD                ERASABLE ADD TO INDEX REGISTER.
002842:                                                                                                  #           9.  XSU                ERASABLE SUBTRACT FROM INDEX REGISTER.
002843:
002844:                                                                                                  #          10.  TIX                BRANCH ON INDEX REGISTER AND DECREMENT.
002845:
002846: 01,2350                                           BANK     01
002847:
002848: 01,2350                                           COUNT*   $$/INTER
002849: 01,2350           02445        AXT                TC       TAGSUB                                #  SELECT APPROPRIATE INDEX REGISTER.
002850: 01,2351           30117                           CA       POLISH
002851: 01,2352           50130        XSTORE             INDEX    INDEXLOC                              #  CONTAINS C(FIXLOC) OR C(FIXLOC)+1.
002852: 01,2353           54046                           TS       X1
002853: 01,2354           16073                           TCF      DANZIG
002854:
002855: 01,2355           02445        AXC                TC       TAGSUB
002856: 01,2356           40117                           CS       POLISH
002857: 01,2357           02352                           TC       XSTORE
002858:
002859: 01,2360           02433        LXA                TC       15ADRERS                              #  LOAD INDEX REGISTER FROM ERASABLE.
002860: 01,2361           50117                           INDEX    POLISH
002861: 01,2362           30000                           CA       0
002862: 01,2363           12352                           TCF      XSTORE
002863:
002864: 01,2364           02433        LXC                TC       15ADRERS                              #  LOAD NDX REG FROM ERASABLE COMPLEMENTED.
002865: 01,2365           50117                           INDEX    POLISH
002866: 01,2366           40000                           CS       0
002867: 01,2367           12352                           TCF      XSTORE
002868:
002869: 01,2370           02433        SXA                TC       15ADRERS                              #  STORE INDEX REGISTER IN ERASABLE.
002870: 01,2371           50130                           INDEX    INDEXLOC
002871: 01,2372           30046                           CA       X1
002872: 01,2373           50117        MSTORE1            INDEX    POLISH
002873: 01,2374           54000                           TS       0
002874: 01,2375           16073                           TCF      DANZIG
002875:


002877: 01,2376           02433        XCHX               TC       15ADRERS                              #  EXCHANGE INDEX REGISTER WITH ERASABLE.
002878: 01,2377           50117                           INDEX    POLISH
002879: 01,2400           30000                           CA       0
002880: 01,2401           50130                           INDEX    INDEXLOC
002881: 01,2402           56046                           XCH      X1
002882: 01,2403           12373                           TCF      MSTORE1
002883:
002884: 01,2404           02433        XAD                TC       15ADRERS                              #  ADD ERASABLE TO INDEX REGISTER.
002885: 01,2405           50117                           INDEX    POLISH
002886: 01,2406           30000                           CA       0
002887: 01,2407           50130        XAD2               INDEX    INDEXLOC
002888: 01,2410           26046                           ADS      X1                                    #  IGNORING OVERFLOWS.
002889: 01,2411           16073                           TCF      DANZIG
002890:
002891: 01,2412           02445        INCR               TC       TAGSUB                                #  INCREMENT INDEX REGISTER.
002892: 01,2413           30117                           CA       POLISH
002893: 01,2414           12407                           TCF      XAD2
002894:
002895: 01,2415           02433        XSU                TC       15ADRERS                              #  SUBTRACT ERASABLE FROM INDEX REGISTER.
002896: 01,2416           50117                           INDEX    POLISH
002897: 01,2417           40000                           CS       0
002898: 01,2420           12407                           TCF      XAD2
002899:
002900: 01,2421           02445        TIX                TC       TAGSUB                                #  BRANCH AND DECREMENT ON INDEX.
002901: 01,2422           50130                           INDEX    INDEXLOC
002902: 01,2423           40050                           CS       S1
002903: 01,2424           50130                           INDEX    INDEXLOC
002904: 01,2425           60046                           AD       X1
002905: 01,2426           00006                           EXTEND                                         #  NO OPERATION IF DECREMENTED INDEX IS
002906: 01,2427           66073                           BZMF     DANZIG                                #  NEGATIVE OR ZERO.
002907:
002908: 01,2430           50130        DOTIXBR            INDEX    INDEXLOC
002909: 01,2431           56046                           XCH      X1                                    #  IGNORING OVERFLOWS.
002910:
002911: 01,2432           16660                           TCF      GOTO                                  #  DO THE BRANCH USING THE CADR IN POLISH.
002912:


002914:                                                                                                  #           SUBROUTINE TO CONVERT AN ERASABLE ADDRESS (11 BITS) TO AN EBANK SETTING AND SUBADDRESS.
002915:
002916: 01,2433           40117        15ADRERS           CS       POLISH
002917: 01,2434           64772                           AD       DEC45
002918: 01,2435           10000                           CCS      A                                     #  DOES THE ADDRESS POINT TO THE WORK AREA?
002919: 01,2436           30120                           CA       FIXLOC                                #  YES.  ADD FIXLOC.  EBANK OK AS IS.
002920: 01,2437           12444                           TCF      +5
002921:
002922: 01,2440           35007                           CA       OCT1400                               #  NO.  SET EBANK & MAKE UP SUBADDRESS.
002923: 01,2441           56117                           XCH      POLISH
002924: 01,2442           54003                           TS       EBANK
002925: 01,2443           74357                           MASK     LOW8
002926: 01,2444           26117                 +5        ADS      POLISH                                #  FALL INTO TAGSUB, AND RETURN VIA Q.
002927:
002928:                                                                                                  #           SUBROUTINE WHICH SETS THE ADDRESS OF THE SPECIFIED INDEX IN INDEXLOC. (ACTUALLY, THE ADDRESS -38D.)
002929:
002930: 01,2445           30120        TAGSUB             CA       FIXLOC
002931: 01,2446           54130                           TS       INDEXLOC
002932:
002933: 01,2447           10020                           CCS      CYR                                   #  BIT 15 SPECIFIES INDEX.
002934: 01,2450           24130                           INCR     INDEXLOC                              #  0 MEANS USE X2.
002935: 01,2451           00002                           TC       Q
002936: 01,2452           00002                           TC       Q                                     #  1 FOR X1.
002937:


002939:                                                                                                  #           MISCELLANEOUS OPERATION CODES WITH DIRECT ADDRESSES. INCLUDED HERE ARE:
002940:
002941:                                                                                                  #           1.  ITA                STORE QPRET (RETURN ADDRESS) IN ERASABLE.
002942:                                                                                                  #           2.  CALL               CALL A SUBROUTINE, LEAVING RETURN IN QPRET.
002943:                                                                                                  #           3.  RTB                RETURN TO BASIC LANGUAGE AT THE GIVEN ADDRESS.
002944:                                                                                                  #           4.  BHIZ               BRANCH IF THE HIGH ORDER OF MPAC IS ZERO (SINGLE PRECISION).
002945:                                                                                                  #           5.  BOV                BRANCH ON OVERFLOW.
002946:                                                                                                  #           6.  GOTO               SIMPLE SEQUENCE CHANGE.
002947:
002948: 01,2453           10020        RTB/BHIZ           CCS      CYR
002949: 01,2454           30117        RTB                CA       POLISH
002950: 01,2455           04621                           TC       SWCALL     -1                         #  SO A "TC Q" FROM ROUTINE LEADS TO DANZIG
002951:
002952: 01,2456           10154        BHIZ               CCS      MPAC
002953: 01,2457           16073                           TCF      DANZIG
002954: 01,2460           16660                           TCF      GOTO
002955: 01,2461           16073                           TCF      DANZIG
002956: 01,2462           16660                           TCF      GOTO
002957:
002958: 01,2463           10121        BOV(B)             CCS      OVFIND                                #  BRANCH ON OVERFLOW TO BASIC OR INTERP.
002959: 01,2464           12466                           TCF      +2
002960: 01,2465           16073                           TCF      DANZIG
002961: 01,2466           54121                           TS       OVFIND
002962: 01,2467           10020                           CCS      CYR
002963: 01,2470           12454                           TCF      RTB                                   #  IF BASIC.
002964: 01,2471           00360        B5TOBB             OCT      360
002965: 01,2472           16660                           TCF      GOTO
002966:


002968: 01,2473           10020        BZE/GOTO           CCS      CYR                                   #  SEE WHICH OP-CODE IS DESIRED.
002969: 01,2474           06735                           TC       BRANCH                                #  DO BZE.
002970: 01,2475           16073                           TCF      DANZIG
002971: 01,2476           16660                           TCF      GOTO                                  #  DO GOTO.
002972: 01,2477           16073                           TCF      DANZIG
002973:
002974: 01,2500           10020        BPL/BMN            CCS      CYR
002975: 01,2501           12507                           TCF      BPL
002976: 01,2502           12000        5B10               DEC      5          B+10                       #  SHIFTS OP CODE IN SWITCH INSTRUCTION ADR
002977:
002978: 01,2503           06735                           TC       BRANCH                                #  DO BMN.
002979: 01,2504           16073                           TCF      DANZIG
002980: 01,2505           16073                           TCF      DANZIG
002981: 01,2506           16660                           TCF      GOTO                                  #  ONLY IF NNZ.
002982:
002983: 01,2507           06735        BPL                TC       BRANCH
002984: 01,2510           16660                           TCF      GOTO                                  #  IF POSITIVE OR ZERO.
002985: 01,2511           16660                           TCF      GOTO
002986: 01,2512           16073                           TCF      DANZIG
002987:
002988: 01,2513           10020        CALL/ITA           CCS      CYR
002989: 01,2514           16652                           TCF      CALL
002990:
002991: 01,2515           05706                           TC       CCSHOLE
002992: 01,2516           02433                           TC       15ADRERS                              #  STORE QPRET. (TAGSUB AFTER 15ADRERS IS
002993: 01,2517           50120                           INDEX    FIXLOC                                #  SLOW IN THIS CASE, BUT SAVES STORAGE.)
002994: 01,2520           30052                           CA       QPRET
002995: 01,2521           12373                           TCF      MSTORE1
002996:


002998:                                                                                                  #           THE FOLLOWING OPERATIONS ARE AVAILABLE FOR ALTERING AND TESTING INTERPRETIVE SWITCHES:
002999:
003000:                                                                                                  #  00       BONSET                 SET A SWITCH AND DO A GOTO IF IT WAS ON.
003001:                                                                                                  #  01       SETGO                  SET A SWITCH AND DO A GOTO.
003002:                                                                                                  #  02       BOFSET                 SET A SWITCH AND DO A GOTO IF IT WAS OFF
003003:                                                                                                  #  03       SET                    SET A SWITCH.
003004:
003005:                                                                                                  #  04       BONINV                 INVERT A SWITCH AND BRANCH IF IT WAS ON.
003006:                                                                                                  #  05       INVGO                  INVERT A SWITCH AND DO A GOTO.
003007:                                                                                                  #  06       BOFINV                 INVERT A SWITCH AND BRANCH IF IT WAS OFF
003008:                                                                                                  #  07       INVERT                 INVERT A SWITCH.
003009:
003010:                                                                                                  #  10       BONCLR                 CLEAR A SWITCH AND BRANCH IF IT WAS ON.
003011:                                                                                                  #  11       CLRGO                  CLEAR A SWITCH AND DO A GOTO.
003012:                                                                                                  #  12       BOFCLR                 CLEAR A SWITCH AND BRANCH IF IT WAS OFF.
003013:                                                                                                  #  13       CLEAR                  CLEAR A SWITCH.
003014:
003015:                                                                                                  #  14       BON                    BRANCH IF A SWITCH WAS ON.
003016:                                                                                                  #  16       BOFF                   BRANCH IF A SWITCH WAS OFF.
003017:
003018:
003019:                                                                                                  #           THE ADDRESS SUPPLIED WITH THE SWITCH INSTRUCTION IS INTERPRETED AS FOLLOWS:
003020:
003021:                                                                                                  #           BITS 1-4    SWITCH BIT NUMBER (1-15).
003022:                                                                                                  #           BITS 5-8    SWITCH OPERATION NUMBER.
003023:                                                                                                  #           BITS 9-     SWITCH WORD NUMBER (UP TO 64 SWITCH WORDS).
003024:
003025:                                                                                                  #           THE ADDRESS ITSELF IS MADE UP BY THE YUL SYSTEM ASSEMBLER. THE BRANCH INSTRUCTIONS REQUIRE TWO
003026:                                                                                                  #  ADDRESSES, THE SECOND TAKEN AS THE DIRECT (OR INDIRECT IF IN ERASABLE) ADDRESS OF THE BRANCH.
003027:
003028:
003029: 01,2522           34762        SWITCHES           CAF      LOW4                                  #  LEAVE THE SWITCH BIT IN  SWBIT  .
003030: 01,2523           70117                           MASK     POLISH
003031: 01,2524           50000                           INDEX    A
003032: 01,2525           34735                           CAF      BIT15                                 #  (NUMBER FROM LEFT TO RIGHT.)
003033: 01,2526           54131                           TS       SWBIT
003034:
003035: 01,2527           34745                           CAF      BIT7                                  #  LEAVE THE SWITCH NUMBER IN SWWORD.
003036: 01,2530           00006                           EXTEND
003037: 01,2531           70117                           MP       POLISH
003038: 01,2532           54130                           TS       SWWORD
003039:
003040: 01,2533           00004                           INHINT                                         #  DURING SWITCH CHANGE SO RUPT CAN USE TOO
003041: 01,2534           50000                           INDEX    A                                     #  LEAVE THE SWITCH WORD ITSELF IN L.
003042: 01,2535           30074                           CA       STATE
003043: 01,2536           54002                           TS       Q                                     #  Q WILL BE USED AS A CHANNEL.


003045: 01,2537           34741                           CAF      BIT11
003046: 01,2540           00006                           EXTEND                                         #  DISPATCH SWITCH BIT OPERATION AS IN BITS
003047: 01,2541           70117                           MP       POLISH                                #  7-8 OF POLISH.
003048: 01,2542           72602                           MASK     B3TOB4                                #  GETS 4X2-BIT CODE.
003049: 01,2543           50000                           INDEX    A
003050: 01,2544           12545                           TCF      +1
003051:
003052: 01,2545           30131                 +1        CA       SWBIT                                 #  00 - SET SWITCH IN QUESTION.
003053: 01,2546           00006                           EXTEND
003054: 01,2547           04002                           ROR      QCHAN
003055: 01,2550           12557                           TCF      SWSTORE
003056:
003057: 01,2551           30131                 +5        CA       SWBIT                                 #  01 - INVERT SWITCH.
003058: 01,2552           00006                           EXTEND
003059: 01,2553           06002                           RXOR     QCHAN
003060: 01,2554           12557                           TCF      SWSTORE
003061:
003062: 01,2555           40131                 +9D       CS       SWBIT                                 #  10 - CLEAR.
003063: 01,2556           70002                           MASK     Q
003064: 01,2557           50130        SWSTORE            INDEX    SWWORD
003065: 01,2560           54074                           TS       STATE                                 #  NEW SWITCH WORD.
003066:


003068: 01,2561           00003                 +13D      RELINT                                         #  11 - NOOP.
003069: 01,2562           34737                           CAF      BIT13
003070: 01,2563           00006                           EXTEND                                         #  DISPATCH SEQUCE CHANGING OR BRANCHING
003071: 01,2564           70117                           MP       POLISH                                #  CODE.
003072: 01,2565           72602                           MASK     B3TOB4
003073: 01,2566           50000                           INDEX    A
003074: 01,2567           12570                           TCF      +1                                    #  ORIGINALLY STORED IN BITS 5-6.
003075:
003076: 01,2570           40002                 +1        CS       Q                                     #  00 - BRANCH IF ON.
003077: 01,2571           70131        TEST               MASK     SWBIT
003078: 01,2572           10000                           CCS      A
003079: 01,2573           12603                           TCF      SWSKIP
003080:
003081: 01,2574           16727                 +5        TCF      SWBRANCH                              #  01 - GO TO.
003082:
003083: 01,2575           12603                           TCF      SWSKIP                                #  HERE ONLY ON BIT 15.
003084:
003085: 01,2576           05706                           TC       CCSHOLE
003086: 01,2577           05706                           TC       CCSHOLE
003087:
003088: 01,2600           30002                 +9D       CA       Q                                     #  10 - BRANCH IF OFF.
003089: 01,2601           12571                           TCF      TEST
003090:
003091: 01,2602           00014        B3TOB4             OCT      0014
003092: 01,2603           24164        SWSKIP             INCR     LOC
003093:
003094: 01,2604  01,2522               SW/                EQUALS   SWITCHES
003095:
003096: 01,2604           16073                 +13D      TCF      DANZIG                                #  11 - NOOP.

End of include-file INTERPRETER.agc.  Parent file is MAIN.agc


