
Source Code


000002:                                                                                                  ## Copyright:   Public domain.
000003:                                                                                                  ## Filename:    INTERPRETIVE_CONSTANTS.agc
000004:                                                                                                  ## Purpose:     A log section of Zerlina 56, the final revision of
000005:                                                                                                  ##              Don Eyles's offline development program for the variable
000006:                                                                                                  ##              guidance period servicer. It also includes a new P66 with LPD
000007:                                                                                                  ##              (Landing Point Designator) capability, based on an idea of John
000008:                                                                                                  ##              Young's. Neither of these advanced features were actually flown,
000009:                                                                                                  ##              but Zerlina was also the birthplace of other big improvements to
000010:                                                                                                  ##              Luminary including the terrain model and new (Luminary 1E)
000011:                                                                                                  ##              analog display programs. Zerlina was branched off of Luminary 145,
000012:                                                                                                  ##              and revision 56 includes all changes up to and including Luminary
000013:                                                                                                  ##              183. It is therefore quite close to the Apollo 14 program,
000014:                                                                                                  ##              Luminary 178, where not modified with new features.
000015:                                                                                                  ## Reference:   pp. 1091-1092
000016:                                                                                                  ## Assembler:   yaYUL
000017:                                                                                                  ## Contact:     Ron Burkey <info@sandroid.org>.
000018:                                                                                                  ## Website:     www.ibiblio.org/apollo/index.html
000019:                                                                                                  ## Mod history: 2017-07-28 MAS  Created from Luminary 210.
000020:                                                                                                  ##              2017-08-28 MAS  Updated for Zerlina 56.
000021:


000023: 23,2000                                           SETLOC   INTPRET1
000024: 23,2000                                           BANK
000025:
000026: 23,2507                                           COUNT*   $$/ICONS
000027: 23,2507           10000 00000  DP1/4TH            2DEC     .25
000028:
000029: 23,2511           00000 00000  UNITZ              2DEC     0          B-28
000030:
000031: 23,2513           00000 00000  UNITY              2DEC     0          B-28
000032:
000033: 23,2515           20000 00000  UNITX              2DEC     .5
000034:
000035: 23,2517           00000 00000  ZEROVECS           2DEC     0          B-28
000036:
000037: 23,2521           00000 00000                     2DEC     0          B-28
000038:
000039: 23,2523           00000 00000                     2DEC     0          B-28
000040:
000041: 23,2525  23,2515               DPHALF             =        UNITX
000042: 23,2525           37777        DPPOSMAX           OCT      37777
000043: 23,2526           37777                           OCT      37777
000044:


000046:                                                                                                  #  INTERPRETIVE CONSTANTS IN THE OTHER HALF-MEMORY
000047:
000048: 12,2000                                           SETLOC   INTPRET2
000049: 12,2000                                           BANK
000050:
000051: 12,2000                                           COUNT*   $$/ICONS
000052: 12,2000           00000 00000  ZUNIT              2DEC     0          B-28
000053:
000054: 12,2002           00000 00000  YUNIT              2DEC     0          B-28
000055:
000056: 12,2004           20000 00000  XUNIT              2DEC     .5
000057:
000058: 12,2006           00000 00000  ZEROVEC            2DEC     0          B-28
000059:
000060: 12,2010           00000 00000                     2DEC     0          B-28
000061:
000062: 12,2012           00000 00000                     2DEC     0          B-28
000063:
000064: 12,2014           77777                           OCT      77777                                 #  -0,-6,-12 MUST REMAIN IN THIS ORDER
000065: 12,2015           77771        DFC-6              DEC      -6         B-14
000066: 12,2016           77763        DFC-12             DEC      -12        B-14
000067: 12,2017           37777 37777  LODPMAX            2OCT     3777737777                            #  THESE TWO CONSTANTS MUST REMAIN
000068:
000069: 12,2021           37777 37777  LODPMAX1           2OCT     3777737777                            #  ADJACENT AND THE SAME FOR INTEGRATION
000070:
000071: 12,2023  12,2006               ZERODP             =        ZEROVEC
000072: 12,2023  12,2004               HALFDP             =        XUNIT

End of include-file INTERPRETIVE_CONSTANTS.agc.  Parent file is MAIN.agc


