
Source Code


000002:                                                                                                  ## Copyright:   Public domain.
000003:                                                                                                  ## Filename:    INTEGRATION_INITIALIZATION.agc
000004:                                                                                                  ## Purpose:     A log section of Zerlina 56, the final revision of
000005:                                                                                                  ##              Don Eyles's offline development program for the variable
000006:                                                                                                  ##              guidance period servicer. It also includes a new P66 with LPD
000007:                                                                                                  ##              (Landing Point Designator) capability, based on an idea of John
000008:                                                                                                  ##              Young's. Neither of these advanced features were actually flown,
000009:                                                                                                  ##              but Zerlina was also the birthplace of other big improvements to
000010:                                                                                                  ##              Luminary including the terrain model and new (Luminary 1E)
000011:                                                                                                  ##              analog display programs. Zerlina was branched off of Luminary 145,
000012:                                                                                                  ##              and revision 56 includes all changes up to and including Luminary
000013:                                                                                                  ##              183. It is therefore quite close to the Apollo 14 program,
000014:                                                                                                  ##              Luminary 178, where not modified with new features.
000015:                                                                                                  ## Reference:   pp. 1195-1216
000016:                                                                                                  ## Assembler:   yaYUL
000017:                                                                                                  ## Contact:     Ron Burkey <info@sandroid.org>.
000018:                                                                                                  ## Website:     www.ibiblio.org/apollo/index.html
000019:                                                                                                  ## Mod history: 2017-07-28 MAS  Created from Luminary 210.
000020:                                                                                                  ##              2017-08-20 MAS  Updated for Zerlina 56.
000021:


000023:                                                                                                  #  1.0 INTRODUCTION
000024:                                                                                                  #  ----------------
000025:
000026:                                                                                                  #  FROM A USERS POINT OF VIEW, ORBITAL INTEGRATION IS ESSENTIALLY THE SAME AS THE 278 INTEGRATION
000027:                                                                                                  #  PROGRAM. THE SAME ENTRANCES TO THE PROGRAM WILL BE MAINTAINED, THE SAME STALLING ROUTINE WILL BE USED AND
000028:                                                                                                  #  OUTPUT WILL STILL BE VIA THE PUSHLIST. THE PRIMARY DIFFERENCES TO A USER INVOLVE THE ADDED CAPABILITY OF
000029:                                                                                                  #  TERMINATING INTEGRATION AT A SPECIFIC FINAL RADIUS AND THE DIFFERENCE IN STATE VECTOR SCALING INSIDE AND OUT-
000030:                                                                                                  #  SIDE THE LUNAR SPHERE OF INFLUENCE.
000031:
000032:                                                                                                  #  IN ORDER TO MAKE THE CSM(LEM)PREC AND CSM(LEM)CONIC ENTRANCES SIMILAR TO FLIGHT 278, THE INTEGRATION PROGRAM
000033:                                                                                                  #  WILL ITSELF SET THE FINAL RADIUS (RFINAL) TO 0 SO THAT REACHING THE DESIRED TIME ONLY WILL TERMINATE
000034:                                                                                                  #  INTEGRATION. THE DP REGISTER RFINAL MUST BE SET BY USERS OF INTEGRVS AND INTEGRV, AND MUST BE DONE AFTER THE
000035:                                                                                                  #  CALL TC INTSTALL.
000036:
000037:                                                                                                  #  WHEN THE LM IS ON THE LUNAR SURFACE (INDICATED BY LUNAR SURFACE FLAG SET) CALLS TO LEMCONIC, LEMPREC, AND
000038:                                                                                                  #  INTEGRV WITH VINFLAG = 0 WILL RESULT IN THE USE OF THE PLANETARY INERTIAL ORIENTATION SUBROUTINES TO PROVIDE
000039:                                                                                                  #  BOTH THE LMS POSITION AND VELOCITY IN THE REFERENCE COORDINATE  SYSTEM.
000040:                                                                                                  #  THE PROGRAM WILL PROVIDE OUTPUT AS IF INTEGRATION WAS USED. THAT IS, THE PUSHLIST WILL BE SET AS NOTED BELOW AND
000041:                                                                                                  #  THE PERMANENT STATE VECTOR UPDATED WHEN SPECIFIED BY AN INTEGRV CALL.
000042:
000043:                                                                                                  #  USERS OF INTEGRVS DESIRING INTEGRATION (INTYPFLG = 0) SHOULD NOTE THAT THE OBLATENESS PERTURBATION COMPUTATION
000044:                                                                                                  #  IN LUNAR ORBIT IS TIME DEPENDENT. THEREFORE, THE USER SHOULD SUPPLY AN INITIAL STATE VECTOR VALID AT SOME REAL
000045:                                                                                                  #  TIME AND THE DESIRED TIME (TDEC1) ALSO AT SOME REAL TIME. FOR CONIC ,,INTEGRATION,, THE USER MAY STILL USE ZERO
000046:                                                                                                  #  AS THE INITIAL TIME AND DELTA TIME AS THE DESIRED TIME.
000047:
000048:                                                                                                  #  2.0 GENERAL DESCRIPTION
000049:                                                                                                  #  -----------------------
000050:
000051:                                                                                                  #  THE INTEGRATION PROGRAM OPERATES AS A CLOSED INTERPRETIVE SUBROUTINE AND PERFORMS THESE FUNCTIONS---
000052:                                                                                                  #     1) INTEGRATES (PRECISION OR CONIC) EITHER CSM OR LM STATE VECTOR
000053:                                                                                                  #     2) INTEGRATES THE W-MATRIX
000054:                                                                                                  #     3) PERMANENT OR TEMPORARY UPDATE OF THE STATE VECTOR
000055:
000056:                                                                                                  #  THERE ARE SIX ENTRANCES TO THE INTEGRATION PROGRAM. FOUR OF THESE (CSMPREC, LEMPREC, CSMCONIC, LEMCONIC) SET
000057:                                                                                                  #  ALL THE FLAGS REQUIRED IN THE INTEGRATION PROGRAM ITSELF TO CAUSE THE PRECISION OR CONIC INTEGRATION (KEPLER) OF
000058:                                                                                                  #  THE LM OR CSM STATE VECTOR, AS THE NAMES SUGGEST. ONE ENTRANCE (INTEGRVS) PERMITS THE CALLING PROGRAM TO
000059:                                                                                                  #  PROVIDE A STATE VECTOR TO BE INTEGRATED. THE CALLING PROGRAM MUST SET THE FLAGS INDICATING (1) PRECISION OR
000060:                                                                                                  #  CONIC INTEGRATION, (2) IN OR OUT OF LUNAR SPHERE, (3) MIDCOURSE OR NOT, AND THE INTEGRATION PROGRAM COMPLETES
000061:                                                                                                  #  THE FLAG SETTING TO BYPASS W-MATRIX INTEGRATION. THE LAST ENTRANCE (INTEGRV, USED IN GENERAL BY THE
000062:                                                                                                  #  NAVIGATION PROGRAMS) PERMITS THE CALLER TO SET FIVE FLAGS (NOT MOONFLAG OR MIDFLAG) BUT NOT TO INPUT A STATE
000063:                                                                                                  #  VECTOR. ANY PROGRAM WHICH CALLS INTEGRVS OR INTEGRV MUST CALL INTSTALL BEFORE IT SETS THE INTEGRATION FLAGS
000064:                                                                                                  #  AND/OR STATE VECTOR.
000065:
000066:                                                                                                  #  THREE SETS OF 42 REGISTERS AND 2 FLAGS ARE USED FOR THE STATE VECTORS. TWO SETS, WHICH MAY NOT BE OVERLAYED, ARE
000067:                                                                                                  #  USED FOR THE PERMANENT STATE VECTORS FOR THE CSM AND LM. THE THIRD SET, WHICH MAY BE OVERLAYED WHEN INTEGRATION
000068:                                                                                                  #  IS NOT BEING DONE, IS USED IN THE COMPUTATIONS.
000069:
000070:                                                                                                  #  THE PERMANENT STATE VECTORS WILL BE PERIODICALLY UPDATED SO THAT THE VECTORS WILL NOT BE OLDER THAN 4 TIMESTEPS.
000071:                                                                                                  #  THE PERMANENT STATE VECTORS WILL ALSO BE UPDATED WHENEVER THE W-MATRIX IS INTEGRATED OR WHEN A CALLER OF INTEGRV
000072:                                                                                                  #  SETS STATEFLG (THE NAVIGATION PROGRAMS P20, P22.)
000073:


000075:                                                                                                  #  APPENDIX B OF THE USERS GUIDE LISTS THE STATE VECTOR QUANTITIES.
000076:
000077:                                                                                                  #  2.1 RESTARTS
000078:
000079:                                                                                                  #  PHASE CHANGES WILL BE MADE IN THE INTEGRATION PROGRAM ONLY FOR THE INTEGRV ENTRANCE (I.E., WHEN THE W-MATRIX IS
000080:                                                                                                  #  INTEGRATED OR PERMANENT STATE VECTOR IS UPDATED.) THE GROUP NUMBER USED WILL BE THAT FOR THE P20-25 PROGRAMS
000081:                                                                                                  #  (I.E., GROUP2) SINCE THE INTEGRV ENTRANCE WILL ONLY BE USED BY THESE PROGRAMS. IF A RESTART OCCURS DURING AN
000082:                                                                                                  #  INTEGRATION OF THE STATE VECTOR ONLY, THE RECOVERY WILL BE TO THE LAST PHASE IN THE CALLING PROGRAM. CALLING
000083:                                                                                                  #  PROGRAMS WHICH USE THE INTEGRV OR INTEGRVS ENTRANCE OF INTEGRATION SHOULD ENSURE THAT IF PHASE CHANGING IS DONE
000084:                                                                                                  #  THAT IT IS PRIOR TO SETTING THE INTEGRATION INPUTS IN THE PUSHLIST.
000085:                                                                                                  #  THIS IS BECAUSE THE PUSHLIST IS LOST DURING A RESTART.
000086:
000087:                                                                                                  #  2.2 SCALING
000088:
000089:                                                                                                  #  THE INTEGRATION ROUTINE WILL MAINTAIN THE PERMANENT MEMORY STATE VECTORS IN THE SCALING AND UNITS DEFINED IN
000090:                                                                                                  #  APPENDIX B OF THE USERS GUIDE. THE SCALING OF THE OUTPUT POSITION VECTORDEPENDS ON THE ORIGIN OF THE COORDINATE
000091:                                                                                                  #   SYSTEM AT THE DESIRED INTEGRATION TIME. THE COORDINATE SYSTEM TRANSFORMATION WILL BE DONE AUTOMATICALLY ON
000092:                                                                                                  #  MULTIPLE TIMESTEP ENCKE INTEGRATION ONLY. THUS IT IS POSSIBLE TO HAVE OUTPUT FROM SUCCESSIVE INTEGRATIONS IN
000093:                                                                                                  #  DIFFERENT SCALING.
000094:                                                                                                  #  HOWEVER, RATT, VATT WILL ALWAYS BE SCALED THE SAME.
000095:
000096:                                                                                                  #  3.0 INPUT/OUTPUT
000097:                                                                                                  #  ----------------
000098:
000099:                                                                                                  #  PROGRAM INPUTS ARE THE FLAGS DESCRIBED IN APPENDIX A AND THE PERMANENT STATE VECTOR QUANTITIES DESCRIBED IN AP-
000100:                                                                                                  #  PENDIX B OF THE USERS GUIDE, PLUS THE DESIRED TIME TO INTEGRATE TO IN TDEC1 (A PUSH LIST LOCATION).
000101:                                                                                                  #  FOR INTEGRVS, THE RCV,VCV, TET OF THE TEMPORARY STATE VECTOR MUST BE SET, PLUS MOONFLAG AND MIDFLAG
000102:
000103:                                                                                                  #  FOR SIMULATION THE FOLLOWING QUANTITIES MUST BE PRESET ---
000104:                                                                                                  #                                                             EARTH  MOON
000105:                                                                                                  #                                                              29     27
000106:                                                                                                  #     RRECTCSM(LEM)  - RECTIFIED POSITION VECTOR      METERS  2      2
000107:
000108:                                                                                                  #                                                              7       5
000109:                                                                                                  #     VRECTCSM(LEM)  - RECTIFIED VELOCITY VECTOR      M/CSEC  2    2
000110:
000111:                                                                                                  #                                                              28     28
000112:                                                                                                  #     TETCSM(LEM)    - TIME STATE VECTOR IS VALID     CSEC    2      2
000113:                                                                                                  #                      CUSTOMARILY 0, BUT NOTE LUNAR
000114:                                                                                                  #                      ORBIT DEPENDENCE ON REAL TIME.
000115:
000116:                                                                                                  #                                                              22     18
000117:                                                                                                  #     DELTAVCSM(LEM) - POSITION DEVIATION             METERS  2      2
000118:                                                                                                  #                      0 IF TCCSM(LEM) = 0
000119:
000120:                                                                                                  #                                                              3      -1
000121:                                                                                                  #     NUVCSM(LEM)    - VELOCITY DEVIATION             M/CSEC  2      2
000122:                                                                                                  #                      0 IF TCCSM(LEM) = 0
000123:


000125:                                                                                                  #                                                              29     27
000126:                                                                                                  #     RCVCSM(LEM)    - CONIC POSITION                 METERS  2      2
000127:                                                                                                  #                      EQUALS RRECTCSM(LEM) IF
000128:                                                                                                  #                      TCCSM(LEM) = 0
000129:
000130:                                                                                                  #                                                              7      5
000131:                                                                                                  #     VCVCSM(LEM)    - CONIC VELOCITY                 M/CSEC  2      2
000132:                                                                                                  #                      EQUALS VRECTCSM(LEM) IF
000133:                                                                                                  #                      TCCSM(LEM) = 0
000134:
000135:                                                                                                  #                                                              28     28
000136:                                                                                                  #     TCCSM(LEM)     - TIME SINCE RECTIFICATION       CSECS   2      2
000137:                                                                                                  #                      CUSTOMARILY 0
000138:
000139:                                                                                                  #                                                      1/2     17     16
000140:                                                                                                  #     XKEPCSM(LEM)   - ROOT OF KEPLERS EQUATION       M       2      2
000141:                                                                                                  #                      0 IF TCCSM(LEM) = 0
000142:
000143:                                                                                                  #     CMOONFLG       - PERMANENT FLAGS CORRESPONDING          0      0
000144:                                                                                                  #     CMIDFLAG         TO MOONFLAG AND MIDFLAG                0,1    0,1
000145:                                                                                                  #     LMOONFLG         C = CSM, L = LM                        0      0
000146:                                                                                                  #     LMIDFLG                                                 0,1    0,1
000147:
000148:                                                                                                  #     SURFFLAG       - LUNAR SURFACE FLAG                     0,1    0,1
000149:
000150:                                                                                                  #  IN ADDITION, IF (L)CMIDFLAG IS SET, THE INITIAL INPUT VALUES FOR LUNAR
000151:                                                                                                  #  SOLAR EPHEMERIDES SUBROUTINE AND PLANETARY INERTIAL ORIENTATION SUB-
000152:                                                                                                  #  ROUTINE MUST BE PRESET.
000153:
000154:                                                                                                  #  OUTPUT
000155:                                                                                                  #  AFTER EVERY CALL TO INTEGRATION
000156:                                                                                                  #                                                             EARTH  MOON
000157:                                                                                                  #                                                              29     29
000158:                                                                                                  #      0D   RATT   POSITION                           METERS  2      2
000159:                                                                                                  #                                                              7      7
000160:                                                                                                  #      6D   VATT   VELOCITY                           M/CSEC  2      2
000161:                                                                                                  #                                                              28     28
000162:                                                                                                  #     12D   TAT    TIME                                       2      2
000163:                                                                                                  #                                                              29     27
000164:                                                                                                  #     14D   RATT1  POSITION                           METERS  2      2
000165:                                                                                                  #                                                              7      5
000166:                                                                                                  #     20D   VATT1  VELOCITY                           M/CSEC  2      2
000167:                                                                                                  #                                                      3   2   36     30
000168:                                                                                                  #     26D   MU(P)  MU                                 M /CS   2      2
000169:
000170:                                                                                                  #     X1           MUTABLE ENTRY                              -2     -10D
000171:
000172:                                                                                                  #     X2           COORDINT
000173:                                                                                                  #     X2           COORDINATE SYSTEM ORIGEN                   0      2
000174:                                                                                                  #                  (THIS, NOT MOONFLAG, SHOULD BE


000176:                                                                                                  #                  USED TO DETERMINE ORIGIN.)
000177:
000178:                                                                                                  #  IN ADDITION TO THE ABOVE, THE PERMANENT STATE VECTOR IS UPDATED WHENEVER
000179:                                                                                                  #  STATEFLG WAS SET AND WHENEVER A W-MATRIX IS TO BE INTEGRATED. THE PUSH
000180:                                                                                                  #  COUNTER IS SET TO 0 AND OVERFLOW IS CLEARED BEFORE RETURNING TO THE
000181:                                                                                                  #  CALLING PROGRAM.
000182:
000183:                                                                                                  #  4.0 CALLING SEQUENCES AND SAMPLE CODE
000184:                                                                                                  #  -------------------------------------
000185:
000186:                                                                                                  #     A) PRECISION ORBITAL INTEGRATION. CSMPREC,LEMPREC ENTRANCES
000187:                                                                                                  #           L-X    STORE TIME TO 95T5791T5 T  95 PUS  L9ST (T4531)
000188:                                                                                                  #           L      CALL
000189:                                                                                                  #           L+1           CSMPREC (OR LEMPREC)
000190:                                                                                                  #           L+2    RETURN
000191:                                                                                                  #        INPUT                                                         28
000192:                                                                                                  #           TDEC1 (PD 32D) TIME TO INTEGRATE TO...CENTISECONDS SCALED 2
000193:                                                                                                  #        OUTPUT
000194:                                                                                                  #           THE DATA LISTED IN SECTION 3.0 PLUS
000195:                                                                                                  #           RQVV   POSITION VECTOR OF VEHICLE WITH RESPECT TO SECONDARY
000196:                                                                                                  #           BODY... METERS B-29 ONLY IF MIDFLAG = DIM0FLAG = 1
000197:                                                                                                  #     B) CONIC INTEGRATION. CSMCONIC, LEMCONIC ENTRANCES
000198:                                                                                                  #           L-X    STORE TIME IN PUSH LIST (TDEC1)
000199:                                                                                                  #           L      CALL
000200:                                                                                                  #           L+1           CSMCONIC (OR LEMCONIC)
000201:                                                                                                  #        INPUT/OUTPUT
000202:                                                                                                  #           SAME AS PRECISION INTEGRATION, EXCEPT RQVV NOT SET
000203:                                                                                                  #     C) INTEGRATE GIVEN STATE VECTOR. INTEGRVS ENTRANCE
000204:                                                                                                  #                  CALL
000205:                                                                                                  #                         INTSTALL
000206:                                                                                                  #                  VLOAD
000207:                                                                                                  #                         POSITION VECTOR
000208:                                                                                                  #                  STOVL  RCV
000209:                                                                                                  #                         VELOCITY VECTOR
000210:                                                                                                  #                  STODL  VCV
000211:                                                                                                  #                         TIME STATE VECTOR VALID
000212:                                                                                                  #                  STODL  TET
000213:                                                                                                  #                         FINAL RADIUS
000214:                                                                                                  #                  STORE  RFINAL
000215:                                                                                                  #                  SET(CLEAR)  SET(CLEAR)
000216:                                                                                                  #                              INTYPFLAG
000217:                                                                                                  #                              MOONFLAG
000218:                                                                                                  #                  SET(CLEAR)  DLOAD
000219:                                                                                                  #                              DESIRED TIME
000220:                                                                                                  #                  STCALL      TDEC1
000221:                                                                                                  #                              INTEGRVS
000222:                                                                                                  #        INPUT
000223:                                                                                                  #           RCV    POSITION VECTOR                  METERS
000224:                                                                                                  #           VCV    VELOCITY VECTOR                  M/CSEC
000225:                                                                                                  #           TET    TIME OF STATE VECTOR(MAY = 0)    CSEC B-28


000227:                                                                                                  #           TDEC1  TIME TO INTEGRATE TO             CSEC B-28 (PD 32D)
000228:                                                                                                  #                  (MAY BE INCREMENT IF TET=0)
000229:                                                                                                  #        OUTPUT
000230:                                                                                                  #           SAME AS FOR PRECISION OR CONIC INTEGRATION,
000231:                                                                                                  #           DEPENDING ON INTYPFLG.
000232:                                                                                                  #     D) INTEGRATE STATE VECTOR.INTGRV ENTRANCE
000233:                                                                                                  #           L-X    STORE TIME IN PUSH LIST (TDEC1)(MAY BE DONE AFTER CALL TO INTSTALL)
000234:                                                                                                  #           L-8    CALL
000235:                                                                                                  #           L-7
000236:                                                                                                  #           L-6    SET(CLEAR) SET(CLEAR)
000237:                                                                                                  #           L-5               VINTFLAG   1=CSM, 0=LM
000238:                                                                                                  #           L-4               INTYPFLAG  1=CONIC, 0=PRECISION
000239:                                                                                                  #           L-3    SET(CLEAR) SET(CLEAR)
000240:                                                                                                  #           L-2               DIM0FLAG   1=W-MATRIX, 0=NO W-MATRIX
000241:                                                                                                  #           L-1               D6OR9FLG   1=9X9, 0=6X6
000242:                                                                                                  #           L      SET        DLOAD
000243:                                                                                                  #           L+1               STATEFLG   DESIRE PERMANENT UPDATE
000244:                                                                                                  #           L+2               FINAL RAD. OF STATE VECTOR
000245:                                                                                                  #           L+3    STCALL     RFINAL
000246:                                                                                                  #           L+4               INTEGRV
000247:                                                                                                  #           L      CALL                  NORMAL USE -- WILL UPDATE STATE
000248:                                                                                                  #           L+1               INTEGRV    VECTOR IF DIM0FLAG=1.(STATEFLG IS
000249:                                                                                                  #           L+2    RETURN                ALWAYS RESET IN INTEGRATION AFTER
000250:                                                                                                  #                                        IT IS USED.)
000251:                                                                                                  #        INPUT
000252:                                                                                                  #           TDEC1 (PD 32D) TIME TO INTEGRATE TO    CSEC B-28
000253:                                                                                                  #        OUTPUT
000254:                                                                                                  #           SAME AS FOR PRECISION OR CONIC INTEGRATION
000255:                                                                                                  #        THE PROGRAM WILL SET MOONFLAG, MIDFLAG DEPENDING ON
000256:                                                                                                  #        THE PERMANENT STATE VECTOR REPRESENTATION.
000257:
000258: 11,2366                                           BANK     11
000259: 13,2000                                           SETLOC   INTINIT
000260: 13,2000                                           BANK
000261: 13,2602  E3,1554                                  EBANK=   RRECTCSM
000262: 13,2602                                           COUNT*   $$/INTIN
000263: 13,2602           05364        STATEINT           TC       PHASCHNG
000264: 13,2603           00052                           OCT      00052
000265: 13,2604           35017                           CAF      PRIO5
000266: 13,2605           05105                           TC       FINDVAC
000267: 13,2606  E3,1554                                  EBANK=   RRECTCSM
000268: 13,2606           02611 26063                     2CADR    STATINT1
000269:
000270: 13,2610           05272                           TC       TASKOVER
000271: 13,2611           06051        STATINT1           TC       INTPRET
000272: 13,2612           47014                           BON      RTB
000273: 13,2613           04712                                    QUITFLAG                              #  KILL INTEGRATION UNTIL NEXT POO.
000274: 13,2614           26652                                    NOINT
000275: 13,2615           21555                                    LOADTIME
000276: 13,2616           00041                           STORE    TDEC1
000277:


000279: 13,2617           77624                           CALL
000280: 13,2620           27410                                    INTSTALL
000281: 13,2621           45014                           SET      CALL
000282: 13,2622           01076                                    NODOFLAG
000283: 13,2623           26643                                    SETIFLGS
000284: 13,2624           52014                           SET      GOTO
000285: 13,2625           01460                                    POOHFLAG
000286: 13,2626           26026                                    STATEUP
000287: 13,2627           00003 25140  600SECS            2DEC     60000      B-28
000288:
000289: 13,2631           77414        ENDINT             CLEAR    EXIT
000290: 13,2632           01672                                    STATEFLG
000291: 13,2633           05364                           TC       PHASCHNG
000292: 13,2634           20032                           OCT      20032
000293: 13,2635           00006                           EXTEND
000294: 13,2636           32630                           DCA      600SECS
000295: 13,2637           05310                           TC       LONGCALL
000296: 13,2640  E3,1626                                  EBANK=   RRECTHIS
000297: 13,2640           02602 26063                     2CADR    STATEINT
000298:
000299: 13,2642           05155                           TC       ENDOFJOB
000300: 13,2643           43014        SETIFLGS           SET      CLEAR
000301: 13,2644           01472                                    STATEFLG
000302: 13,2645           01673                                    INTYPFLG
000303: 13,2646           43014                           CLEAR    CLEAR
000304: 13,2647           01676                                    DIM0FLAG
000305: 13,2650           01675                                    D6OR9FLG
000306: 13,2651           77616                           RVQ
000307: 13,2652           77776        NOINT              EXIT
000308: 13,2653           05364                           TC       PHASCHNG
000309: 13,2654           00002                           OCT      00002
000310:
000311: 13,2655           05527                           TC       DOWNFLAG
000312: 13,2656           00221                           ADRES    QUITFLAG
000313: 13,2657           05155                           TC       ENDOFJOB
000314:
000315:                                                                                                  #  ATOPCSM TRANSFERS RRECT TO RRECT +41 TO RRECTCSM TO RRECTCSM +41
000316:
000317:                                                                                                  #  CALLING SEQUENCE
000318:                                                                                                  #     L   CALL
000319:                                                                                                  #     L+1       ATOPCSM
000320:
000321:                                                                                                  #  NORMAL EXIT AT L+2
000322:
000323: 13,2660           47020        ATOPCSM            STQ      RTB
000324: 13,2661           00051                                    S2
000325: 13,2662           26673                                    MOVEACSM
000326: 13,2663           45014                           SET      CALL
000327: 13,2664           04063                                    CMOONFLG
000328: 13,2665           26114                                    SVDWN1
000329:


000331: 13,2666           43014                           BON      CLRGO
000332: 13,2667           00303                                    MOONFLAG
000333: 13,2670           00051                                    S2
000334: 13,2671           04223                                    CMOONFLG
000335: 13,2672           00051                                    S2
000336: 13,2673           03035        MOVEACSM           TC       SETBANK
000337: 13,2674           55500                           TS       DIFEQCNT                              #  INITIALIZE INDEX
000338: 13,2675           51500                           INDEX    DIFEQCNT
000339: 13,2676           31502                           CA       RRECT
000340: 13,2677           51500                           INDEX    DIFEQCNT
000341: 13,2700           55554                           TS       RRECTCSM
000342: 13,2701           11500                           CCS      DIFEQCNT                              #  IS TRANSFER COMPLETE
000343: 13,2702           12674                           TCF      MOVEACSM   +1                         #  NO-LOOP
000344: 13,2703           06073                           TC       DANZIG                                #  COMPLETE- RETURN
000345:
000346:
000347:                                                                                                  #  PTOACSM TRANSFERS RRECTCSM TO RRECTCSM +41 TO RRECT TO RRECT +41
000348:
000349:                                                                                                  #  CALLING SEQUENCE
000350:                                                                                                  #     L   CALL
000351:                                                                                                  #              PTOACSM
000352:
000353:                                                                                                  #  NORMAL EXIT AT L+2
000354:
000355: 13,2704           43034        PTOACSM            RTB      BON
000356: 13,2705           26722                                    MOVEPCSM
000357: 13,2706           04303                                    CMOONFLG
000358: 13,2707           26715                                    SETMOON
000359: 13,2710           66214        CLRMOON            CLEAR    SSP
000360: 13,2711           00263                                    MOONFLAG
000361: 13,2712           02031                                    PBODY
000362: 13,2713           00000                                    0
000363: 13,2714           77616                           RVQ
000364: 13,2715           66214        SETMOON            SET      SSP
000365: 13,2716           00063                                    MOONFLAG
000366: 13,2717           02031                                    PBODY
000367: 13,2720           00002                                    2
000368: 13,2721           77616                           RVQ
000369: 13,2722           03035        MOVEPCSM           TC       SETBANK
000370: 13,2723           55500                           TS       DIFEQCNT
000371: 13,2724           51500                           INDEX    DIFEQCNT
000372: 13,2725           31554                           CA       RRECTCSM
000373: 13,2726           51500                           INDEX    DIFEQCNT
000374: 13,2727           55502                           TS       RRECT
000375: 13,2730           11500                           CCS      DIFEQCNT
000376: 13,2731           12723                           TCF      MOVEPCSM   +1
000377: 13,2732           06073                           TC       DANZIG
000378:
000379:
000380:                                                                                                  #  ATOPLEM  TRANSFERS RRECT TO RRECT +41 TO RRECTLEM TO RRECTLEM +41
000381:


000383: 13,2733           47020        ATOPLEM            STQ      RTB
000384: 13,2734           00051                                    S2
000385: 13,2735           26746                                    MOVEALEM
000386: 13,2736           45014                           SET      CALL
000387: 13,2737           04064                                    LMOONFLG
000388: 13,2740           26070                                    SVDWN2
000389: 13,2741           43014                           BON      CLRGO
000390: 13,2742           00303                                    MOONFLAG
000391: 13,2743           00051                                    S2
000392: 13,2744           04224                                    LMOONFLG
000393: 13,2745           00051                                    S2
000394: 13,2746           03035        MOVEALEM           TC       SETBANK
000395: 13,2747           55500                           TS       DIFEQCNT
000396: 13,2750           51500                           INDEX    DIFEQCNT
000397: 13,2751           31502                           CA       RRECT
000398: 13,2752           51500                           INDEX    DIFEQCNT
000399: 13,2753           55626                           TS       RRECTLEM
000400: 13,2754           11500                           CCS      DIFEQCNT
000401: 13,2755           12747                           TCF      MOVEALEM   +1
000402: 13,2756           06073                           TC       DANZIG
000403:
000404:
000405:                                                                                                  #  PTOALEM  TRANSFERS RRECTLEM TO RRECTLEM +41 TO RRECT TO RRECT +41
000406:
000407: 13,2757           47014        PTOALEM            BON      RTB
000408: 13,2760           04307                                    SURFFLAG
000409: 13,2761           27000                                    USEPIOS
000410: 13,2762           26767                                    MOVEPLEM
000411: 13,2763           52014                           BON      GOTO
000412: 13,2764           04304                                    LMOONFLG
000413: 13,2765           26715                                    SETMOON
000414: 13,2766           26710                                    CLRMOON
000415: 13,2767           03035        MOVEPLEM           TC       SETBANK
000416: 13,2770           55500                           TS       DIFEQCNT
000417: 13,2771           51500                           INDEX    DIFEQCNT
000418: 13,2772           31626                           CA       RRECTLEM
000419: 13,2773           51500                           INDEX    DIFEQCNT
000420: 13,2774           55502                           TS       RRECT
000421: 13,2775           11500                           CCS      DIFEQCNT
000422: 13,2776           12770                           TCF      MOVEPLEM   +1
000423: 13,2777           06073                           TC       DANZIG
000424:
000425:
000426: 13,3000           77201        USEPIOS            SETPD    VLOAD
000427: 13,3001           00001                                    0
000428: 13,3002           02021                                    RLS
000429: 13,3003           41525                           PDDL     PUSH
000430: 13,3004           00041                                    TDEC1
000431: 13,3005           15517                           STODL    TET
000432: 13,3006           27733                                    5/8
000433:


000435: 13,3007           77624                           CALL
000436: 13,3010           55720                                    RP-TO-R
000437: 13,3011           25535                           STOVL    RCV
000438: 13,3012           24001                                    ZUNIT
000439: 13,3013           14001                           STODL    0D
000440: 13,3014           01517                                    TET
000441: 13,3015           14007                           STODL    6D
000442: 13,3016           27733                                    5/8
000443: 13,3017           45014                           SET      CALL                                  #  NEEDED FOR SETTING X1 ON EXIT
000444: 13,3020           00063                                    MOONFLAG
000445: 13,3021           55720                                    RP-TO-R
000446: 13,3022           74235                           VXV      VXSC
000447: 13,3023           01535                                    RCV
000448: 13,3024           26001                                    OMEGMOON
000449: 13,3025           25543                           STOVL    VCV
000450: 13,3026           24007                                    ZEROVEC
000451: 13,3027           01521                           STORE    TDELTAV
000452: 13,3030           67174                           AXT,2    SXA,2
000453: 13,3031           00002                                    2
000454: 13,3032           02030                                    PBODY
000455: 13,3033           35527                           STCALL   TNUV
000456: 13,3034           27156                                    A-PCHK
000457: 13,3035           33041        SETBANK            CAF      INTBANK
000458: 13,3036           54006                           TS       BBANK
000459: 13,3037           33446                           CAF      FORTYONE
000460: 13,3040           00002                           TC       Q
000461: 13,3041  E3,1554                                  EBANK=   RRECTCSM
000462: 13,3041           26063        INTBANK            BBCON    INTEGRV
000463:
000464:
000465:                                                                                                  #  SPECIAL PURPOSE ENTRIES TO ORBITAL INTEGRATION. THESE ROUTINES PROVIDE ENTRANCES TO INTEGRATION WITH
000466:                                                                                                  #  APPROPRIATE SWITCHES SET OR CLEARED FOR THE DESIRED INTEGRATION.
000467:
000468:                                                                                                  #  CSMPREC AND LEMPREC PERFORM ORBIT INTEGRATION BY THE ENCKE METHOD TO THE TIME INDICATED IN TDEC1
000469:                                                                                                  #  ACCELERATIONS DUE TO OBLATENESS ARE INCLUDED. NO W-MATRIX INT. IS DONE.
000470:                                                                                                  #  THE PERMANENT STATE VECTOR IS NOT UPDATED.
000471:                                                                                                  #  CSMCONIC AND LEMCONIC PERFORM ORBIT INTEG. BY KEPLERS METHOD TO THE TIME INDICATED IN TDEC1
000472:                                                                                                  #  NO DISTURBING ACCELERATIONS ARE INCLUDED. IN THE PROGRAM FLOW THE GIVEN
000473:                                                                                                  #  STATE VECTOR IS RECTIFIED BEFORE SOLUTION OF KEPLERS EQUATION
000474:
000475:                                                                                                  #  THE ROUTINES ASSUME THAT THE CSM (LEM) STATE VECTOR IN P-MEM IS VALID.
000476:                                                                                                  #  SWITCHES SET PRIOR TO ENTRY TO THE MAIN INTEG. PROG ARE AS FOLLOWS
000477:                                                                                                  #              CSMPREC  CSMCONIC   LEMPREC  LEMCONIC
000478:                                                                                                  #  VINTFLAG     SET       SET       CLEAR    CLEAR
000479:                                                                                                  #  INTYPFLG     CLEAR     SET       CLEAR    SET
000480:                                                                                                  #  DIM0FLAG     CLEAR     CLEAR     CLEAR    CLEAR
000481:
000482:
000483:                                                                                                  #  CALLING SEQUENCE
000484:                                                                                                  #     L-X  STORE TDEC1


000486:                                                                                                  #     L    CALL       (STCALL TDEC1)
000487:                                                                                                  #     L+1         CSMPREC (CSMCONIC, LEMPREC, LEMCONIC)
000488:
000489:                                                                                                  #   NORMAL EXIT TO L+2
000490:
000491:
000492:                                                                                                  #  SUBROUTINES CALLED
000493:                                                                                                  #    INTEGRV1
000494:                                                                                                  #    PRECOUT FOR CSMPREC AND LEMPREC
000495:                                                                                                  #    CONICOUT  FOR CSMCONIC AND LEMCONIC
000496:
000497:
000498:                                                                                                  #  OUTPUT - SEE PAGE 2 OF THIS LOG SECTION
000499:                                                                                                  #  INPUT
000500:                                                                                                  #   TDEC1   TIME TO INTEGRATE TO . CSECS B-28
000501: 13,3042           45020        CSMPREC            STQ      CALL
000502: 13,3043           00046                                    X1
000503: 13,3044           27410                                    INTSTALL
000504: 13,3045           43130                           SXA,1    SET
000505: 13,3046           02101                                    IRETURN
000506: 13,3047           01474                                    VINTFLAG
000507:
000508: 13,3050           43014        IFLAGP             SET      CLEAR
000509: 13,3051           01467                                    PRECIFLG
000510: 13,3052           01676                                    DIM0FLAG
000511: 13,3053           77614                           CLRGO
000512: 13,3054           01633                                    INTYPFLG
000513: 13,3055           27135                                    INTEGRV1
000514: 13,3056           45020        LEMPREC            STQ      CALL
000515: 13,3057           00046                                    X1
000516: 13,3060           27410                                    INTSTALL
000517: 13,3061           43130                           SXA,1    CLRGO
000518: 13,3062           02101                                    IRETURN
000519: 13,3063           01634                                    VINTFLAG
000520: 13,3064           27050                                    IFLAGP
000521:
000522: 13,3065           45020        CSMCONIC           STQ      CALL
000523: 13,3066           00046                                    X1
000524: 13,3067           27410                                    INTSTALL
000525: 13,3070           43130                           SXA,1    SET
000526: 13,3071           02101                                    IRETURN
000527: 13,3072           01474                                    VINTFLAG
000528: 13,3073           43014        IFLAGC             CLEAR    SETGO
000529: 13,3074           01676                                    DIM0FLAG
000530: 13,3075           01433                                    INTYPFLG
000531: 13,3076           27135                                    INTEGRV1
000532: 13,3077           45020        LEMCONIC           STQ      CALL
000533: 13,3100           00046                                    X1
000534: 13,3101           27410                                    INTSTALL
000535: 13,3102           43130                           SXA,1    CLRGO


000537: 13,3103           02101                                    IRETURN
000538: 13,3104           01634                                    VINTFLAG
000539: 13,3105           27073                                    IFLAGC
000540:
000541: 13,3106           66214        INTEGRVS           SET      SSP
000542: 13,3107           01467                                    PRECIFLG
000543: 13,3110           02031                                    PBODY
000544: 13,3111           00000                                    0
000545: 13,3112           66214                           BOF      SSP
000546: 13,3113           00343                                    MOONFLAG
000547: 13,3114           27117                                    +3
000548: 13,3115           02031                                    PBODY
000549: 13,3116           00002                                    2
000550: 13,3117           77220                           STQ      VLOAD
000551: 13,3120           02101                                    IRETURN
000552: 13,3121           24007                                    ZEROVEC
000553: 13,3122           01521                           STORE    TDELTAV
000554: 13,3123           35527                           STCALL   TNUV
000555: 13,3124           27671                                    RECTIFY
000556: 13,3125           43014                           CLEAR    SET
000557: 13,3126           01676                                    DIM0FLAG
000558: 13,3127           04062                                    NEWIFLG
000559: 13,3130           77614                           SETGO
000560: 13,3131           04020                                    RPQFLAG
000561: 13,3132           27147                                    ALOADED
000562:                                                                                                  #  INTEGRV IS AN ENTRY TO ORBIT INTEGRATION WHICH PERMITS THE CALLER ,
000563:                                                                                                  #  NORMALLY THE NAVIGATION PROGRAM ,TO SET THE INTEG. FLAGS. THE ROUTINE
000564:                                                                                                  #  IS ENTERED AT INTEGRV1 BY CSMPREC ET.AL. AND AT ALOADED BY INTEGRVS.
000565:                                                                                                  #  THE ROUTINE SETS UP A-MEMORY IF ENTERED AT INTEGRV,1 AND SETS THE INTEG.
000566:                                                                                                  #  PROGRAM FOR PRECISION OR CONIC
000567:
000568:                                                                                                  #  THE CALLER MUST FIRST CALL INTSTALL TO CHECK IF INTEG. IS IN USE BEFORE
000569:                                                                                                  #  SETTING ANY FLAGS.
000570:                                                                                                  #  THE FLAGS WHICH SHOULD BE SET OR CLEARED ARE
000571:                                                                                                  #    VINTFLAG    (IGNORED WHEN ENTERED FROM INTEGRVS)
000572:                                                                                                  #    INTYPFLG
000573:                                                                                                  #    DIM0FLAG
000574:                                                                                                  #    D6OR9FLG
000575:                                                                                                  #  CALLING SEQUENCE
000576:                                                                                                  #    L-X    CALL
000577:                                                                                                  #    L-Y          INTSTALL
000578:                                                                                                  #    L-1    SET OR CLEAR ALL FOUR FLAGS. ALSO CAN SET STATEFLG IF DESIRED
000579:                                                                                                  #           AND DIM0FLAG IS CLEAR.
000580:                                                                                                  #    L      CALL
000581:                                                                                                  #    L+1          INTEGRV
000582:                                                                                                  #  INITIALIZATION
000583:                                                                                                  #    FLAGS AS ABOVE
000584:                                                                                                  #    STORE TIME TO INTEGRATE TO IN TDEC1
000585:                                                                                                  #  OUTPUT
000586:                                                                                                  #    RATT   AS


000588:                                                                                                  #    VATT       DEFINED
000589:                                                                                                  #    TAT                BEFORE
000590:
000591:
000592: 13,3133           77620        INTEGRV            STQ
000593: 13,3134           02101                                    IRETURN
000594: 13,3135           43014        INTEGRV1           SET      SET
000595: 13,3136           04060                                    RPQFLAG
000596: 13,3137           04062                                    NEWIFLG
000597: 13,3140           77731        INTEGRV2           SSP
000598: 13,3141           00053                                    QPRET
000599: 13,3142           27147                                    ALOADED
000600: 13,3143           52014                           BON      GOTO
000601: 13,3144           01714                                    VINTFLAG
000602: 13,3145           26704                                    PTOACSM
000603: 13,3146           26757                                    PTOALEM
000604: 13,3147           77745        ALOADED            DLOAD
000605: 13,3150           00041                                    TDEC1
000606: 13,3151           01115                           STORE    TDEC
000607: 13,3152           52014                           BOFF     GOTO
000608: 13,3153           01753                                    INTYPFLG
000609: 13,3154           27256                                    TESTLOOP
000610: 13,3155           27242                                    RVCON
000611: 13,3156           77414        A-PCHK             BOF      EXIT
000612: 13,3157           01752                                    STATEFLG
000613: 13,3160           27177                                    RECTOUT
000614: 13,3161           05364                           TC       PHASCHNG
000615: 13,3162           04022                           OCT      04022
000616: 13,3163           05515                           TC       UPFLAG                                #  PHASE CHANGE HAS OCCURRED BETWEEN
000617: 13,3164           00236                           ADRES    REINTFLG                              #  INTSTALL AND INTWAKE
000618: 13,3165           06051                           TC       INTPRET
000619: 13,3166           77731                           SSP
000620: 13,3167           00053                                    QPRET
000621: 13,3170           27175                                    PHEXIT
000622: 13,3171           52014                           BON      GOTO
000623: 13,3172           01714                                    VINTFLAG
000624: 13,3173           26660                                    ATOPCSM
000625: 13,3174           26733                                    ATOPLEM
000626: 13,3175           77624        PHEXIT             CALL
000627: 13,3176           11216                                    GRP2PC
000628: 13,3177           45001        RECTOUT            SETPD    CALL
000629: 13,3200           00001                                    0
000630: 13,3201           27671                                    RECTIFY
000631: 13,3202           53775                           VLOAD    VSL*
000632: 13,3203           01503                                    RRECT
000633: 13,3204           57576                                    0,2
000634: 13,3205           53715                           PDVL     VSL*                                  #  RATT TO PD0
000635: 13,3206           01511                                    VRECT
000636: 13,3207           57576                                    0,2
000637: 13,3210           63325                           PDDL     PDVL                                  #  VATT TO PD6    TAT TO PD12


000639: 13,3211           01517                                    TET
000640: 13,3212           01503                                    RRECT
000641: 13,3213           64715                           PDVL     PDDL*
000642: 13,3214           01511                                    VRECT
000643: 13,3215           51770                                    MUEARTH,2
000644: 13,3216           76006                           PUSH     AXT,1
000645: 13,3217           77765                           DEC      -10        B-14
000646: 13,3220           76014                           BON      AXT,1
000647: 13,3221           00303                                    MOONFLAG
000648: 13,3222           27224                                    +2
000649: 13,3223           77775                           DEC      -2         B-14
000650: 13,3224           40001        INTEXIT            SETPD    BOV
000651: 13,3225           00001                                    0
000652: 13,3226           27227                                    +1
000653: 13,3227           43014                           CLEAR    CLEAR
000654: 13,3230           04676                                    AVEMIDSW                              #  ALLOW UPDATE OF DOWNLINK STATE VECTOR
000655: 13,3231           01667                                    PRECIFLG
000656: 13,3232           77614                           CLEAR
000657: 13,3233           01672                                    STATEFLG
000658: 13,3234           77535                           SLOAD    EXIT
000659: 13,3235           02102                                    IRETURN
000660: 13,3236           30154                           CA       MPAC
000661: 13,3237           50120                           INDEX    FIXLOC
000662: 13,3240           54052                           TS       QPRET
000663: 13,3241           03421                           TC       INTWAKE
000664:                                                                                                  #  RVCON SETS UP ORBIT INTEGRATION TO DO A CONIC SOLUTION FOR POSITION AND
000665:                                                                                                  #  VELOCITY FOR THE INTERVAL (TET-TDEC)
000666:
000667: 13,3242           45345        RVCON              DLOAD    DSU
000668: 13,3243           01115                                    TDEC
000669: 13,3244           01517                                    TET
000670: 13,3245           36074                           STCALL   TAU.
000671: 13,3246           27671                                    RECTIFY
000672: 13,3247           77624                           CALL
000673: 13,3250           22366                                    KEPPREP
000674: 13,3251           43345                           DLOAD    DAD
000675: 13,3252           01551                                    TC
000676: 13,3253           01517                                    TET
000677: 13,3254           35517                           STCALL   TET
000678: 13,3255           27177                                    RECTOUT
000679:


000681:                                                                                                  #  TESTLOOP
000682:
000683: 13,3256           43014        TESTLOOP           BOF      CLRGO
000684: 13,3257           04752                                    QUITFLAG
000685: 13,3260           27263                                    +3
000686: 13,3261           01632                                    STATEFLG
000687: 13,3262           27224                                    INTEXIT                               #  STOP INTEGRATION
000688: 13,3263           73001                 +3        SETPD    LXA,2
000689: 13,3264           00013                                    10D
000690: 13,3265           02030                                    PBODY
000691: 13,3266           51575                           VLOAD    ABVAL
000692: 13,3267           01535                                    RCV
000693: 13,3270           43006                           PUSH     CLEAR                                 #  RC TO 10D
000694: 13,3271           00262                                    MIDFLAG
000695: 13,3272           50023                           DSU*     BMN                                   #  MIDFLAG=0 IF R G.T. RMP
000696: 13,3273           53755                                    RME,2
000697: 13,3274           27277                                    +3
000698: 13,3275           77614                           SET
000699: 13,3276           00062                                    MIDFLAG
000700: 13,3277           41345        NORFINAL           DLOAD    DMP
000701: 13,3300           00013                                    10D
000702: 13,3301           00043                                    34D
000703: 13,3302           55762                           SR1R     DDV*
000704: 13,3303           51770                                    MUEARTH,2
000705: 13,3304           41366                           SQRT     DMP
000706: 13,3305           25762                                    .3D
000707: 13,3306           40442                           SR3      SR4                                   #  DT    IS TRUNCATED TO A MULTIPLE
000708: 13,3307           54345                           DLOAD    SL
000709: 13,3310           00155                                    MPAC
000710: 13,3311           20220                                    15D                                   #         OF 128 CSECS.
000711: 13,3312           40006                           PUSH     BOV
000712: 13,3313           27340                                    MAXDT
000713: 13,3314           50021                           BDSU     BMN
000714: 13,3315           27407                                    DT/2MAX
000715: 13,3316           27340                                    MAXDT
000716: 13,3317           45345        DT/2COMP           DLOAD    DSU
000717: 13,3320           01115                                    TDEC
000718: 13,3321           01517                                    TET
000719: 13,3322           54234                           RTB      SL
000720: 13,3323           21574                                    SGNAGREE
000721: 13,3324           20211                                    8D
000722: 13,3325           02076                           STORE    DT/2                                  #  B-19
000723: 13,3326           51400                           BOV      ABS
000724: 13,3327           27344                                    GETMAXDT
000725: 13,3330           50025                           DSU      BMN                                   #  IS TIME TO INTEG. TO GR THAN MAXTIME
000726: 13,3331           00015                                    12D
000727: 13,3332           27350                                    P00HCHK
000728: 13,3333           75345        USEMAXDT           DLOAD    SIGN
000729: 13,3334           00015                                    12D
000730: 13,3335           02076                                    DT/2


000732: 13,3336           36076                           STCALL   DT/2
000733: 13,3337           27350                                    P00HCHK
000734: 13,3340           65345        MAXDT              DLOAD    PDDL                                  #  EXCHANGE DT/2MAX WITH COMPUTED MAX.
000735: 13,3341           27407                                    DT/2MAX
000736: 13,3342           77650                           GOTO
000737: 13,3343           27317                                    DT/2COMP
000738: 13,3344           77634        GETMAXDT           RTB
000739: 13,3345           21674                                    SIGNMPAC
000740: 13,3346           36076                           STCALL   DT/2
000741: 13,3347           27333                                    USEMAXDT
000742: 13,3350           51545        P00HCHK            DLOAD    ABS
000743: 13,3351           02076                                    DT/2
000744: 13,3352           50025                           DSU      BMN
000745: 13,3353           27405                                    DT/2MIN
000746: 13,3354           27156                                    A-PCHK
000747: 13,3355           43014                           BOFF     BON                                   #  NO BACKWARDS INTEGRATION
000748: 13,3356           01740                                    POOHFLAG                              #  WHEN IN POO
000749: 13,3357           23272                                    TIMESTEP
000750: 13,3360           01707                                    PRECIFLG
000751: 13,3361           23272                                    TIMESTEP
000752: 13,3362           45345                           DLOAD    DSU
000753: 13,3363           02076                                    DT/2
000754: 13,3364           00015                                    12D
000755: 13,3365           43040                           BMN      BOFCLR
000756: 13,3366           27156                                    A-PCHK
000757: 13,3367           04242                                    NEWIFLG
000758: 13,3370           23272                                    TIMESTEP
000759: 13,3371           45345                           DLOAD    DSU
000760: 13,3372           01115                                    TDEC
000761: 13,3373           01517                                    TET
000762: 13,3374           77640                           BMN                                            #  NO BACKWARD INTEGRATION
000763: 13,3375           27224                                    INTEXIT
000764: 13,3376           40525                           PDDL     SR4
000765: 13,3377           02076                                    DT/2                                  #  IS 4(DT) LS(TDEC - TET)
000766: 13,3400           44322                           SR2R     BDSU                                  #  NO
000767: 13,3401           52040                           BMN      GOTO
000768: 13,3402           27224                                    INTEXIT
000769: 13,3403           23272                                    TIMESTEP
000770: 13,3404           00000 01400  DT/2MIN            2DEC     3          B-20
000771:
000772: 13,3406           14152 00000  DT/2MAX            2DEC     4000       E2         B-20
000773:
000774: 13,3410           77776        INTSTALL           EXIT
000775: 13,3411           30106                           CA       RASFLAG
000776: 13,3412           73462                           MASK     INTBITAB                              #  IS THIS STALL AREA FREE
000777: 13,3413           00006                           EXTEND
000778: 13,3414           13454                           BZF      OKTOGRAB                              #  YES
000779: 13,3415           33461                           CAF      WAKESTAL
000780: 13,3416           05133                           TC       JOBSLEEP
000781: 13,3417           77776        INTWAKE0           EXIT


000783: 13,3420           13441                           TCF      INTWAKE1
000784:
000785: 13,3421           40106        INTWAKE            CS       RASFLAG                               #  IS THIS INTSTALLED ROUTINE TO BE
000786: 13,3422           74745                           MASK     REINTBIT                              #       RESTARTED
000787: 13,3423           10000                           CCS      A
000788: 13,3424           03441                           TC       INTWAKE1                              #  NO
000789:
000790: 13,3425           50120                           INDEX    FIXLOC
000791: 13,3426           30052                           CA       QPRET
000792: 13,3427           55054                           TS       TBASE2                                #  YES, DONT RESTART WITH SOMEONE ELSES Q
000793:
000794: 13,3430           05364                           TC       PHASCHNG
000795: 13,3431           04022                           OCT      04022
000796:
000797: 13,3432           31054                           CA       TBASE2
000798: 13,3433           50120                           INDEX    FIXLOC
000799: 13,3434           54052                           TS       QPRET
000800:
000801: 13,3435           34745                           CAF      REINTBIT
000802: 13,3436           70106                           MASK     RASFLAG
000803: 13,3437           00006                           EXTEND
000804: 13,3440           13457                           BZF      GOBAC                                 #  DONT INTWAKE IF WE CAME HERE VIA RESTART
000805:
000806: 13,3441           33461        INTWAKE1           CAF      WAKESTAL
000807: 13,3442           00004                           INHINT
000808: 13,3443           05137                           TC       JOBWAKE
000809: 13,3444           10064                           CCS      LOCCTR
000810: 13,3445           13441                           TCF      INTWAKE1
000811: 13,3446           00051        FORTYONE           DEC      41         B-14
000812: 13,3447           43462                           CS       INTBITAB
000813: 13,3450           70106                           MASK     RASFLAG
000814: 13,3451           54106                           TS       RASFLAG                               #  RELEASE STALL AREA
000815: 13,3452           00003                           RELINT
000816: 13,3453           13457                           TCF      GOBAC
000817: 13,3454           34736        OKTOGRAB           CAF      INTFLBIT
000818: 13,3455           00004                           INHINT
000819: 13,3456           26106                           ADS      RASFLAG
000820: 13,3457           06051        GOBAC              TC       INTPRET
000821: 13,3460           77616                           RVQ
000822: 13,3461           27411        WAKESTAL           CADR     INTSTALL   +1
000823: 13,3462           20100        INTBITAB           OCT      20100
000824:


000826:                                                                                                  #  AVETOMID
000827:
000828:                                                                                                  #  THIS ROUTINE PERFORMS THE TRANSITION FROM A THRUSTING PHASE TO THE COAST
000829:                                                                                                  #  PHASE BY INITIALIZING THIS VEHICLES PERMANENT STATE VECTOR WITH THE
000830:                                                                                                  #  VALUES LEFT BY THE AVERAGEG ROUTINE IN RN,VN,PIPTIME.
000831:
000832:                                                                                                  #  BEFORE THIS IS DONE THE W-MATRIX, IF ITS  VALID (ORWFLAG OR RENDWFLG IS
000833:                                                                                                  #  SET) IS INTEGRATED FORWARD TO PIPTIME WITH THE PRE-THRUST STATE VECTOR.
000834:
000835:                                                                                                  #  IN ADDITION, THE OTHER VEHICLE IS INTEGRATED (PERMANENT) TO PIPTIME.
000836:
000837:                                                                                                  #  FINALLY TRKMKCNT IS ZEROED
000838:
000839:
000840: 13,2000                                           SETLOC   INTINIT
000841: 13,2000                                           BANK
000842:
000843: 13,3463                                           COUNT*   $$/INTIN
000844: 13,3463           43020        AVETOMID           STQ      BON
000845: 13,3464           02767                                    EGRESS
000846: 13,3465           02716                                    RENDWFLG
000847: 13,3466           27532                                    INT/W                                 #  W-MATRIX VALID ,GO INTEGRATE IT
000848: 13,3467           77614                           BON
000849: 13,3470           01711                                    ORBWFLAG
000850: 13,3471           27532                                    INT/W                                 #  W-MATRIX VALID ,GO INTEGRATE IT
000851:
000852: 13,3472           45145        OTHERS             DLOAD    CALL                                  #  GET SET FOR OTHER VEHICLE INTEGRATION
000853: 13,3473           01234                                    PIPTIME                               #  DESIRED TIME
000854: 13,3474           27410                                    INTSTALL
000855: 13,3475           45014                           SET      CALL
000856: 13,3476           01474                                    VINTFLAG                              #  CM
000857: 13,3477           26643                                    SETIFLGS                              #  SETS UP NONE W-MAT. PERMANENT INTEG.
000858: 13,3500           34041                           STCALL   TDEC1
000859: 13,3501           27133                                    INTEGRV
000860:
000861: 13,3502           45174                           AXT,2    CALL                                  #  NOW MOVE PROPERLY SCALE RN,UN AS WELL AS
000862: 13,3503           00002                                    2                                     #  PIPTIME TO INTEGRATION ERASABLES.
000863: 13,3504           27410                                    INTSTALL
000864: 13,3505           77014                           BON      AXT,2
000865: 13,3506           04304                                    MOONTHIS
000866: 13,3507           27511                                    +2
000867: 13,3510           00000                                    0
000868: 13,3511           53775                           VLOAD    VSR*
000869: 13,3512           01220                                    RN
000870: 13,3513           57176                                    0,2
000871: 13,3514           01503                           STORE    RRECT
000872: 13,3515           15535                           STODL    RCV
000873: 13,3516           01234                                    PIPTIME
000874: 13,3517           25517                           STOVL    TET
000875: 13,3520           01226                                    VN


000877: 13,3521           45057                           VSR*     CALL
000878: 13,3522           57176                                    0,2
000879: 13,3523           27705                                    MINIRECT                              #  FINISH SETTING UP STATE VECTOR
000880: 13,3524           66234                           RTB      SSP
000881: 13,3525           26746                                    MOVATHIS                              #  PUT TEMP STATE VECTOR INTO PERMANENT
000882: 13,3526           03463                                    TRKMKCNT
000883: 13,3527           00000                                    0
000884: 13,3530           77650                           GOTO
000885: 13,3531           47224                                    FAZAB5
000886:
000887: 13,3532           45145        INT/W              DLOAD    CALL
000888: 13,3533           01234                                    PIPTIME                               #  INTEGRATE W THRU BURN
000889: 13,3534           27410                                    INTSTALL
000890: 13,3535           43014                           SET      SET
000891: 13,3536           01476                                    DIM0FLAG                              #  DO W-MATRIX
000892: 13,3537           04476                                    AVEMIDSW                              #  SO WONT CLOBBER RN,VN,PIPTIME
000893: 13,3540           43014                           SET      CLEAR
000894: 13,3541           01475                                    D6OR9FLG                              #  9X9 FOR LM
000895: 13,3542           01674                                    VINTFLAG                              #  LM
000896: 13,3543           34041                           STCALL   TDEC1
000897: 13,3544           27133                                    INTEGRV
000898: 13,3545           77650                           GOTO
000899: 13,3546           27472                                    OTHERS                                #  NOW GO DO THE OTHER VEHICLE
000900:


000902:                                                                                                  #  MIDTOAV1
000903:
000904:                                                                                                  #  THIS ROUTINE INTEGRATES (PRECISION) TO THE TIME SPECIFIED IN TDEC1.
000905:                                                                                                  #  IF, AT THE END OF AN INTEGRATION TIME STEP, CURRENT TIME PLUS A DELTA
000906:                                                                                                  #  TIME (SEE TIMEDELT.....BASED ON THE COMPUTATUON TIME FOR ONE TIME STEP)
000907:                                                                                                  #  IS GREATER THAN THE DESIRED TIME, ALARM 1703 IS SET AND THE INTEGRATION
000908:                                                                                                  #  IS DONE TO THE CURRENT TIME.
000909:                                                                                                  #  RETURN IS IN BASIC TO THE RETURN ADDRESS PLUS ONE.
000910:
000911:                                                                                                  #  IF THE INTEGRATION IS FINISHED TO THE DESIRED TIME, RETURN IS IN BASIC
000912:                                                                                                  #  TO THE RETURN ADDRESS
000913:
000914:                                                                                                  #  IN EITHER CASE , BEFORE RETURNING, THE EXTRAPOLATED STATE VECTOR IS TRAN
000915:                                                                                                  #  FERRED FROM R,VATT TO R,VN1-PIPTIME1 IS SET TO THE FINISHING INTEGRA-
000916:                                                                                                  #  TION TIME AND MPAC IS SET TO THE DELTA TIME---
000917:                                                                                                  #                                    TAT MINUS CURRENT TIME.
000918:
000919:
000920:                                                                                                  #  MIDTOAV2
000921:
000922:                                                                                                  #  THIS ROUTINE INTEGRATES THIS VEHICLES STATE VECTOR TO THE CURRENT TIME.
000923:                                                                                                  #  NO INPUTS ARE REQUIRED OF THE CALLER. RETURN IS IN BASIC TO THE RETURN
000924:                                                                                                  #  ADDRESS WITH THE ABOVE TRANSFERS TO R,VN1-PIPTIME1-AND MPAC DONE
000925:
000926: 13,3547  E7,1744                                  EBANK=   IRETURN1
000927: 13,3547           43020        MIDTOAV2           STQ      CLRGO                                 #  INTEGRATE TO PRESENT TIME PLUS TIMEDELT
000928: 13,3550           03744                                    IRETURN1
000929: 13,3551           04634                                    MID1FLAG
000930: 13,3552           27566                                    ENTMID2
000931:
000932: 13,3553           43020        MIDTOAV1           STQ      SET                                   #   INTEGRATE TO TDEC1
000933: 13,3554           03744                                    IRETURN1
000934: 13,3555           04474                                    MID1FLAG
000935: 13,3556           43234                           RTB      DAD                                   #  INITIAL CHECK, IS TDEC1 IN THE FUTURE
000936: 13,3557           21555                                    LOADTIME
000937: 13,3560           27670                                    TIMEDELT
000938: 13,3561           51021                           BDSU     BPL
000939: 13,3562           00041                                    TDEC1
000940: 13,3563           27572                                    ENTMID1                               #   Y5S
000941: 13,3564           77624                           CALL
000942: 13,3565           27656                                    NOTIME                                #  NO, SET ALARM, SWITCH TO MIDTOAV2
000943:
000944: 13,3566           43234        ENTMID2            RTB      DAD
000945: 13,3567           21555                                    LOADTIME
000946: 13,3570           27670                                    TIMEDELT
000947: 13,3571           00041                           STORE    TDEC1
000948:
000949: 13,3572           77624        ENTMID1            CALL
000950: 13,3573           27410                                    INTSTALL
000951: 13,3574           45014                           CLEAR    CALL


000953: 13,3575           01676                                    DIM0FLAG                              #  NO W-MATRIX
000954: 13,3576           26066                                    THISVINT
000955: 13,3577           43014                           CLEAR    SET
000956: 13,3600           01673                                    INTYPFLG
000957: 13,3601           04475                                    MIDAVFLG                              #  LET INTEG. KNOW THE CALL IS FOR MIDTOAV.
000958: 13,3602           77624                           CALL
000959: 13,3603           27133                                    INTEGRV                               #   GO INTEGRATE
000960: 13,3604           77214                           CLEAR    VLOAD
000961: 13,3605           04675                                    MIDAVFLG
000962: 13,3606           00001                                    RATT
000963: 13,3607           27543                           STOVL    RN1
000964: 13,3610           00007                                    VATT
000965: 13,3611           17551                           STODL    VN1
000966: 13,3612           00015                                    TAT
000967: 13,3613           03557                           STORE    PIPTIME1
000968: 13,3614           66134                           SXA,2    SXA,1
000969: 13,3615           02777                                    RTX2
000970: 13,3616           02776                                    RTX1
000971: 13,3617           77776                           EXIT
000972:
000973: 13,3620           00004                           INHINT
000974: 13,3621           00006                           EXTEND
000975: 13,3622           40025                           DCS      TIME2
000976: 13,3623           20155                           DAS      MPAC
000977: 13,3624           07271                           TC       TPAGREE
000978:
000979: 13,3625           31744                           CA       IRETURN1
000980: 13,3626           04640                           TC       BANKJUMP
000981: 13,3627           47014        CKMID2             BOF      RTB
000982: 13,3630           04754                                    MID1FLAG
000983: 13,3631           27646                                    MID2
000984: 13,3632           21555                                    LOADTIME
000985: 13,3633           44215                           DAD      BDSU
000986: 13,3634           27670                                    TIMEDELT
000987: 13,3635           01115                                    TDEC
000988: 13,3636           45044                           BPL      CALL
000989: 13,3637           27256                                    TESTLOOP                              #  YES
000990: 13,3640           27656                                    NOTIME
000991:
000992: 13,3641           43234        TIMEINC            RTB      DAD
000993: 13,3642           21555                                    LOADTIME
000994: 13,3643           27670                                    TIMEDELT
000995: 13,3644           35115                           STCALL   TDEC
000996: 13,3645           27256                                    TESTLOOP
000997:
000998: 13,3646           45345        MID2               DLOAD    DSU
000999: 13,3647           01115                                    TDEC
001000: 13,3650           01517                                    TET
001001: 13,3651           45246                           ABS      DSU
001002: 13,3652           27666                                    3CSECS


001004: 13,3653           52040                           BMN      GOTO
001005: 13,3654           27156                                    A-PCHK
001006: 13,3655           27641                                    TIMEINC
001007:
001008: 13,3656           77414        NOTIME             CLEAR    EXIT                                  #  TOO LATE
001009: 13,3657           04674                                    MID1FLAG
001010: 13,3660           25744                           INCR     IRETURN1                              #  SET ERROR EXIT  (CALLOC +2)
001011: 13,3661           05600                           TC       ALARM                                 #  INSUFFICIENT TIME FOR INTEGRATION --
001012: 13,3662           01703                           OCT      1703                                  #     TIG WILL BE SLIPPED...
001013: 13,3663           06051                           TC       INTPRET
001014: 13,3664           77616                           RVQ
001015:
001016: 13,3665           00000 00003  3CSECS             2DEC     3          B-28
001017:
001018: 13,3667           00000 03720  TIMEDELT           2DEC     2000       B-28
001019:
001020: 27,3342                                           BANK     27
001021: 04,2000                                           SETLOC   UPDATE2
001022: 04,2000                                           BANK
001023: 04,3137  E3,1706                                  EBANK=   TEPHEM
001024: 04,3137                                           COUNT*   $$/INTIN
001025:
001026: 04,3137           06051        INTWAKEU           TC       INTPRET
001027:
001028: 04,3140           53135                           SLOAD    BZE                                   #  IS THIS A CSM/LEM STATE VECTOR UPDATE
001029: 04,3141           01502                                    UPSVFLAG                              #  REQUEST. IF NOT GO TO INTWAKUP.
001030: 04,3142           11206                                    INTWAKUP
001031:
001032: 04,3143           77775                           VLOAD                                          #  MOVE RRECT(6) AND VRECT(6) INTO
001033: 04,3144           01503                                    RRECT                                 #       RCV(6)   AND VCV(6)   RESPECTIVELY.
001034: 04,3145           25535                           STOVL    RCV
001035: 04,3146           01511                                    VRECT                                 #  NOW GO TO 'RECTIFY +13D' TO
001036: 04,3147           77624                           CALL                                           #  STORE VRECT INTO VCV  AND ZERO OUT
001037: 04,3150           27706                                    RECTIFY    +13D                       #  TDELTAV(6),TNUV(6),TC(2) AND XKEP(2)
001038: 04,3151           51535                           SLOAD    ABS                                   #  COMPARE ABSOLUTE VALUE OF 'UPSVFLAG'
001039: 04,3152           01502                                    UPSVFLAG                              #  TO 'UPDATE MOON STATE VECTOR CODE'
001040: 04,3153           53025                           DSU      BZE                                   #  TO DETERMINE WHETHER THE STATE VECTOR TO
001041: 04,3154           11215                                    UPMNSVCD                              #  BE UPDATED IS IN THE EARTH OR LUNAR
001042: 04,3155           11162                                    INTWAKEM                              #  SPHERE OF INFLUENCE.........
001043: 04,3156           43174                           AXT,2    CLRGO                                 #  EARTH SPHERE OF INFLUENCE.
001044: 04,3157           00000                           DEC      0          B-14
001045: 04,3160           00223                                    MOONFLAG
001046: 04,3161           11165                                    INTWAKEC
001047: 04,3162           43174        INTWAKEM           AXT,2    SET                                   #  LUNAR SPHERE OF INFLUENCE.
001048: 04,3163           00002                           DEC      2          B-14
001049: 04,3164           00063                                    MOONFLAG
001050: 04,3165           50135        INTWAKEC           SLOAD    BMN                                   #  COMMON CODING AFTER X2 INITIALIZED AND
001051:                                                                                                  #  MOONFLAG SET(OR CLEARED).
001052: 04,3166           01502                                    UPSVFLAG                              #  IS THIS A REQUEST FOR A LEM OR CSM
001053: 04,3167           11175                                    INTWAKLM                              #   STATE VECTOR UPDATE......


001055: 04,3170           77624                           CALL                                           #  UPDATE CSM STATE VECTOR
001056: 04,3171           26660                                    ATOPCSM
001057:
001058: 04,3172           52014                           CLEAR    GOTO
001059: 04,3173           01671                                    ORBWFLAG
001060: 04,3174           11177                                    INTWAKEX
001061:
001062: 04,3175           77624        INTWAKLM           CALL                                           #  UPDATE LM STATE VECTOR
001063: 04,3176           26733                                    ATOPLEM
001064:
001065: 04,3177           77414        INTWAKEX           CLEAR    EXIT
001066: 04,3200           02676                                    RENDWFLG
001067:
001068: 04,3201           34755                           CAF      ZERO
001069: 04,3202           00006                           EXTEND
001070: 04,3203           01077                           WRITE    CHAN77                                #  ZERO CHANNEL 77
001071: 04,3204  E3,1501                                  EBANK=   UPSVFLAG
001072: 04,3204           55501                           TS       UPSVFLAG
001073:
001074: 04,3205           06051                           TC       INTPRET
001075: 04,3206           77624        INTWAKUP           CALL
001076: 04,3207           27417                                    INTWAKE0                              #  RELEASE :GRAB: OF ORBIT INTEG
001077: 04,3210           77776                           EXIT
001078:
001079: 04,3211           05364                           TC       PHASCHNG
001080: 04,3212           04026                           OCT      04026
001081: 04,3213           03716                           TC       UPOUT      +1
001082:
001083: 04,3214           00002        UPMNSVCD           OCT      2
001084: 04,3215           00000                           OCT      0
001085:
001086:
001087: 04,3216           77420        GRP2PC             STQ      EXIT
001088: 04,3217           02711                                    GRP2SVQ
001089: 04,3220           05364                           TC       PHASCHNG
001090: 04,3221           04022                           OCT      04022
001091: 04,3222           06051                           TC       INTPRET
001092: 04,3223           77650                           GOTO
001093: 04,3224           02711                                    GRP2SVQ

End of include-file INTEGRATION_INITIALIZATION.agc.  Parent file is MAIN.agc


