
Source Code


000002:                                                                                                  ## Copyright:   Public domain.
000003:                                                                                                  ## Filename:    INTER-BANK_COMMUNICATION.agc
000004:                                                                                                  ## Purpose:     A log section of Zerlina 56, the final revision of
000005:                                                                                                  ##              Don Eyles's offline development program for the variable
000006:                                                                                                  ##              guidance period servicer. It also includes a new P66 with LPD
000007:                                                                                                  ##              (Landing Point Designator) capability, based on an idea of John
000008:                                                                                                  ##              Young's. Neither of these advanced features were actually flown,
000009:                                                                                                  ##              but Zerlina was also the birthplace of other big improvements to
000010:                                                                                                  ##              Luminary including the terrain model and new (Luminary 1E)
000011:                                                                                                  ##              analog display programs. Zerlina was branched off of Luminary 145,
000012:                                                                                                  ##              and revision 56 includes all changes up to and including Luminary
000013:                                                                                                  ##              183. It is therefore quite close to the Apollo 14 program,
000014:                                                                                                  ##              Luminary 178, where not modified with new features.
000015:                                                                                                  ## Reference:   pp. 989-992
000016:                                                                                                  ## Assembler:   yaYUL
000017:                                                                                                  ## Contact:     Ron Burkey <info@sandroid.org>.
000018:                                                                                                  ## Website:     www.ibiblio.org/apollo/index.html
000019:                                                                                                  ## Mod history: 2017-07-28 MAS  Created from Luminary 210.
000020:                                                                                                  ##              2017-08-27 MAS  Updated for Zerlina 56.
000021:                                                                                                  ##              2021-05-30 ABS  ISWCALLL -> ISWCALL
000022:


000024:                                                                                                  #           THE FOLLOWING ROUTINE CAN BE USED TO CALL A SUBROUTINE IN ANOTHER BANK. IN THE BANKCALL VERSION, THE
000025:                                                                                                  #  CADR OF THE SUBROUTINE IMMEDIATELY FOLLOWS THE  TC BANKCALL  INSTRUCTION, WITH C(A) AND C(L) PRESERVED.
000026:
000027:    4616                                           BLOCK    02
000028:    4616                                           COUNT*   $$/BANK
000029:    4616           52134        BANKCALL           DXCH     BUF2                                  #  SAVE INCOMING A,L.
000030:    4617           50002                           INDEX    Q                                     #  PICK UP CADR.
000031:    4620           30000                           CA       0
000032:    4621           24002                           INCR     Q                                     #  SO WE RETURN TO THE LOC. AFTER THE CADR.
000033:
000034:                                                                                                  #           SWCALL IS IDENTICAL TO BANKCALL, EXCEPT THAT THE CADR ARRIVES IN A.
000035:
000036:    4622           54001        SWCALL             TS       L
000037:    4623           22004                           LXCH     FBANK                                 #  SWITCH BANKS, SAVING RETURN.
000038:    4624           75012                           MASK     LOW10                                 #  GET SUB-ADDRESS OF CADR.
000039:    4625           56002                           XCH      Q                                     #  A,L NOW CONTAINS DP RETURN.
000040:    4626           52134                           DXCH     BUF2                                  #  RESTORING INPUTS IF THIS IS A BANKCALL.
000041:    4627           50002                           INDEX    Q
000042:    4630           02000                           TC       10000                                 #  SETTING Q TO SWRETURN.
000043:
000044:    4631           56134        SWRETURN           XCH      BUF2       +1                         #  COMES HERE TO RETURN TO CALLER. C(A,L)
000045:    4632           56004                           XCH      FBANK                                 #  ARE PRESERVED FOR RETURN.
000046:    4633           56134                           XCH      BUF2       +1
000047:    4634           00133                           TC       BUF2
000048:
000049:                                                                                                  #           THE FOLLOWING ROUTINE CAN BE USED AS A UNILATERAL JUMP WITH C(A,L) PRESERVED AND THE CADR IMMEDIATELY
000050:                                                                                                  #  FOLLOWING THE TC POSTJUMP INSTRUCTION.
000051:
000052:    4635           56002        POSTJUMP           XCH      Q                                     #  SAVE INCOMING C(A).
000053:    4636           50000                           INDEX    A                                     #  GET CADR.
000054:    4637           30000                           CA       0
000055:
000056:                                                                                                  #           BANKJUMP IS THE SAME AS POSTJUMP, EXCEPT THAT THE CADR ARRIVES IN A.
000057:
000058:    4640           54004        BANKJUMP           TS       FBANK
000059:    4641           75012                           MASK     LOW10
000060:    4642           56002                           XCH      Q                                     #  RESTORING INPUT C(A) IF THIS WAS A
000061:    4643           50002        Q+10000            INDEX    Q                                     #  POSTJUMP.
000062:    4644           12000        PRIO12             TCF      10000                                 #  PRIO12 = TCF   10000 = 12000
000063:


000065:                                                                                                  #           THE FOLLOWING ROUTINE GETS THE RETURN CADR SAVED BY SWCALL OR BANKCALL AND LEAVES IT IN A.
000066:
000067:    4645           35012        MAKECADR           CAF      LOW10
000068:    4646           70133                           MASK     BUF2
000069:    4647           60134                           AD       BUF2       +1
000070:    4650           00002                           TC       Q
000071:
000072:
000073:    4651           54135        SUPDACAL           TS       MPTEMP
000074:    4652           56004                           XCH      FBANK                                 #  SET FBANK FOR DATA.
000075:    4653           00006                           EXTEND
000076:    4654           04007                           ROR      SUPERBNK                              #  SAVE FBANK IN BITS 15-11, AND
000077:    4655           56135                           XCH      MPTEMP                                #   SUPERBANK IN BITS  7-5.
000078:    4656           75012                           MASK     LOW10
000079:    4657           56001                           XCH      L                                     #  SAVE REL. ADR. IN BANK, FETCH SUPERBITS.
000080:    4660           00004                           INHINT                                         #  BECAUSE RUPT DOES NOT SAVE SUPERBANK.
000081:    4661           00006                           EXTEND
000082:    4662           01007                           WRITE    SUPERBNK                              #  SET SUPERBANK FOR DATA.
000083:    4663           50001                           INDEX    L
000084:    4664           32000                           CA       10000                                 #  PINBALL (FIX MEM DISP) PREVENTS DCA HERE
000085:    4665           56135                           XCH      MPTEMP                                #  SAVE 1ST WD, FETCH OLD FBANK AND SBANK.
000086:    4666           00006                           EXTEND
000087:    4667           01007                           WRITE    SUPERBNK                              #  RESTORE SUPERBANK.
000088:    4670           00003                           RELINT
000089:    4671           54004                           TS       FBANK                                 #  RESTORE FBANK.
000090:    4672           30135                           CA       MPTEMP                                #  RECOVER FIRST WORD OF DATA.
000091:    4673           00002                           RETURN                                         #  24 WDS. DATACALL 516 MU, SUPDACAL 432 MU
000092:


000094:                                                                                                  #           THE FOLLOWING ROUTINES ARE IDENTICAL TO BANKCALL AND SWCALL EXCEPT THAT THEY ARE USED IN INTERRUPT.
000095:
000096:    4674           52073        IBNKCALL           DXCH     RUPTREG3                              #  USES RUPTREG3,4 FOR DP RETURN ADDRESS.
000097:    4675           50002                           INDEX    Q
000098:    4676           30000                           CAF      0
000099:    4677           24002                           INCR     Q
000100:
000101:    4700           54001        ISWCALL            TS       L
000102:    4701           22004                           LXCH     FBANK
000103:    4702           75012                           MASK     LOW10
000104:    4703           56002                           XCH      Q
000105:    4704           52073                           DXCH     RUPTREG3
000106:    4705           50002                           INDEX    Q
000107:    4706           02000                           TC       10000
000108:
000109:    4707           56073        ISWRETRN           XCH      RUPTREG4
000110:    4710           56004                           XCH      FBANK
000111:    4711           56073                           XCH      RUPTREG4
000112:    4712           00072                           TC       RUPTREG3
000113:
000114:                                                                                                  #  2. USPRCADR ACCESSES INTERPRETIVE CODING IN OTHER THAN THE USER'S FBANK. THE CALLING SEQUENCE IS AS FOLLOWS:
000115:
000116:                                                                                                  #                                          L        TC     USPRCADR
000117:                                                                                                  #                                          L+1      CADR   INTPRETX        INTPRETX IS THE INTERPRETIVE CODING
000118:                                                                                                  #                                                                          RETURN IS TO L+2
000119:
000120:
000121:    4713           54164        USPRCADR           TS       LOC                                   #  SAVE A
000122:    4714           34744                           CA       BIT8
000123:    4715           54023                           TS       EDOP                                  #  EXIT INSTRUCTION TO EDOP
000124:    4716           30006                           CA       BBANK
000125:    4717           54165                           TS       BANKSET                               #  USER'S BBANK TO BANKSET
000126:    4720           50002                           INDEX    Q
000127:    4721           30000                           CA       0
000128:    4722           54004                           TS       FBANK                                 #  INTERPRETIVE BANK TO FBANK
000129:    4723           75012                           MASK     LOW10                                 #  YIELDS INTERPRETIVE RELATIVE ADDRESS
000130:    4724           56002                           XCH      Q                                     #  INTERPRETIVE ADDRESS TO Q, FETCHING L+1
000131:    4725           56164                           XCH      LOC                                   #  L+1 TO LOC, RETRIEVING ORIGINAL A
000132:    4726           14643                           TCF      Q+10000
000133:


000135:                                                                                                  #  THERE ARE FOUR POSSIBLE SETTINGS FOR CHANNEL 07. (CHANNEL 07 CONTAINS THE SUPERBANK SETTING.)
000136:                                                                                                  #                                            PSEUDO-FIXED     OCTAL PSEUDO
000137:                                                                                                  #  SUPERBANK     SETTING     S-REG. VALUE    BANK NUMBERS     ADDRESSES
000138:                                                                                                  #  ----------    -------     ------------    ------------      ------------
000139:
000140:                                                                                                  #  SUPERBANK 3     0XX       2000 - 3777        30 - 37       70000 - 107777   (WHERE XX CAN BE ANYTHING AND
000141:                                                                                                  #                                                                              WILL USUALLY BE SEEN AS 11)
000142:                                                                                                  #  SUPERBANK 4     100       2000 - 3777        40 - 47       110000 - 127777  (AS FAR AS IT CAN BE SEEN,
000143:                                                                                                  #                                                                              ONLY BANKS 40-43 WILL EVER BE
000144:                                                                                                  #                                                                              AND ARE PRESENTLY AVAILABLE)
000145:                                                                                                  #  SUPERBANK 5     101       2000 - 3777        50 - 57       130000 - 147777  (PRESENTLY NOT AVAILABLE TO
000146:                                                                                                  #                                                                              THE USER)
000147:                                                                                                  #  SUPERBANK 6     110       2000 - 3777        60 - 67       150000 - 167777  (PRESENTLY NOT AVAILABLE TO
000148:                                                                                                  #                                                                              THE USER)
000149:                                                                                                  #  ***  THIS ROUTINE MAYBE CALLED BY ANY PROGRAM LOCATED IN BANKS 00 - 27.  I.E., NO PROGRAM LIVING IN ANY
000150:                                                                                                  #  SUPERBANK SHOULD USE SUPERSW.  ***
000151:
000152:                                                                                                  #  SUPERSW MAYBE CALLED IN THIS FASHION:
000153:
000154:                                                                                                  #           CAF    ABBCON          WHERE  --  ABBCON   BBCON  SOMETHIN  --
000155:                                                                                                  #           TCR    SUPERSW         (THE SUPERBNK BITS ARE IN THE BBCON)
000156:                                                                                                  #           ...      ...
000157:                                                                                                  #            .        .
000158:                                                                                                  #            .        .
000159:
000160:                                                                                                  #  OR IN THIS FASHION :
000161:
000162:                                                                                                  #           CAF    SUPERSET        WHERE SUPERSET IS ONE OF THE FOUR AVAILABLE
000163:                                                                                                  #           TCR    SUPERSW         SUPERBANK BIT CONSTANTS:
000164:                                                                                                  #           ...      ...                                   SUPER011 OCTAL  60
000165:                                                                                                  #            .        .                                    SUPER100 OCTAL 100
000166:                                                                                                  #            .        .                                    SUPER101 OCTAL 120
000167:                                                                                                  #                                                          SUPER110 OCTAL 140
000168:
000169:    4727           00006        SUPERSW            EXTEND
000170:    4730           01007                           WRITE    SUPERBNK                              #  WRITE BITS 7-6-5 OF THE ACCUMULATOR INTO
000171:                                                                                                  #  CHANNEL 07
000172:    4731           00002                           TC       Q                                     #  TC TO INSTRUCTION FOLLOWING
000173:                                                                                                  #    TC  SUPERSW
000174:

End of include-file INTER-BANK_COMMUNICATION.agc.  Parent file is MAIN.agc


