
Source Code


000002:                                                                                                  ## Copyright:   Public domain.
000003:                                                                                                  ## Filename:    INTERRUPT_LEAD_INS.agc
000004:                                                                                                  ## Purpose:     A log section of Zerlina 56, the final revision of
000005:                                                                                                  ##              Don Eyles's offline development program for the variable
000006:                                                                                                  ##              guidance period servicer. It also includes a new P66 with LPD
000007:                                                                                                  ##              (Landing Point Designator) capability, based on an idea of John
000008:                                                                                                  ##              Young's. Neither of these advanced features were actually flown,
000009:                                                                                                  ##              but Zerlina was also the birthplace of other big improvements to
000010:                                                                                                  ##              Luminary including the terrain model and new (Luminary 1E)
000011:                                                                                                  ##              analog display programs. Zerlina was branched off of Luminary 145,
000012:                                                                                                  ##              and revision 56 includes all changes up to and including Luminary
000013:                                                                                                  ##              183. It is therefore quite close to the Apollo 14 program,
000014:                                                                                                  ##              Luminary 178, where not modified with new features.
000015:                                                                                                  ## Reference:   pp. 159-160
000016:                                                                                                  ## Assembler:   yaYUL
000017:                                                                                                  ## Contact:     Ron Burkey <info@sandroid.org>.
000018:                                                                                                  ## Website:     www.ibiblio.org/apollo/index.html
000019:                                                                                                  ## Mod history: 2017-07-28 MAS  Created from Luminary 210.
000020:                                                                                                  ##              2017-08-17 MAS  Updated for Zerlina 56 (no changes).
000021:


000023:    4000                                           SETLOC   4000
000024:
000025:    4000                                           COUNT*   $$/RUPTS                              #  FIX-FIX LEAD INS
000026:    4000           00004                           INHINT                                         #  GO
000027:    4001           34054                           CAF      GOBB
000028:    4002           56006                           XCH      BBANK
000029:    4003           12703                           TCF      GOPROG
000030:
000031:    4004           52011                           DXCH     ARUPT                                 #  T6RUPT
000032:    4005           00006                           EXTEND
000033:    4006           34056                           DCA      T6ADR
000034:    4007           52006                           DTCB
000035:
000036:    4010           52011                           DXCH     ARUPT                                 #  T5RUPT - AUTOPILOT
000037:    4011           00006                           EXTEND
000038:    4012           31264                           DCA      T5ADR
000039:    4013           52006                           DTCB
000040:
000041:    4014           52011                           DXCH     ARUPT                                 #  T3RUPT
000042:    4015           34057                           CAF      T3RPTBB
000043:    4016           56006                           XCH      BBANK
000044:    4017           13412                           TCF      T3RUPT
000045:
000046:    4020           52011                           DXCH     ARUPT                                 #  T4RUPT
000047:    4021           34064                           CAF      T4RPTBB
000048:    4022           56006                           XCH      BBANK
000049:    4023           12000                           TCF      T4RUPT
000050:
000051:    4024           52011                           DXCH     ARUPT                                 #  KEYRUPT1
000052:    4025           34060                           CAF      KEYRPTBB
000053:    4026           56006                           XCH      BBANK
000054:    4027           13261                           TCF      KEYRUPT1
000055:
000056:    4030           52011                           DXCH     ARUPT                                 #  KEYRUPT2
000057:    4031           34061                           CAF      MKRUPTBB
000058:    4032           56006                           XCH      BBANK
000059:    4033           12332                           TCF      MARKRUPT
000060:
000061:    4034           52011                           DXCH     ARUPT                                 #  UPRUPT
000062:    4035           34060                           CAF      UPRPTBB
000063:    4036           56006                           XCH      BBANK
000064:    4037           13304                           TCF      UPRUPT
000065:
000066:    4040           52011                           DXCH     ARUPT                                 #  DOWNRUPT
000067:    4041           34062                           CAF      DWNRPTBB
000068:    4042           56006                           XCH      BBANK
000069:    4043           13507                           TCF      DODOWNTM
000070:
000071:    4044           52011                           DXCH     ARUPT                                 #  RADAR RUPT
000072:    4045           34063                           CAF      RDRPTBB


000074:    4046           56006                           XCH      BBANK
000075:    4047           13156                           TCF      RADAREAD
000076:
000077:    4050           52011                           DXCH     ARUPT                                 #  RUPT10 IS USED ONLY BY LANDING GUIDANCE
000078:    4051           34065                           CA       RUPT10BB
000079:    4052           56006                           XCH      BBANK
000080:    4053           12453                           TCF      PITFALL
000081:
000082:
000083:    4054  E3,1400                                  EBANK=   LST1                                  #  RESTART USES E0, E3
000084:    4054           12103        GOBB               BBCON    GOPROG
000085:
000086:    4055  E6,1464                                  EBANK=   PERROR
000087:    4055           02117 36106  T6ADR              2CADR    DOT6RUPT
000088:
000089:
000090:    4057  E3,1400                                  EBANK=   LST1
000091:    4057           02103        T3RPTBB            BBCON    T3RUPT
000092:
000093:    4060     0073                                  EBANK=   KEYTEMP1
000094:    4060           10100        KEYRPTBB           BBCON    KEYRUPT1
000095:
000096:    4061  E7,1404                                  EBANK=   AOTAZ
000097:    4061           16107        MKRUPTBB           BBCON    MARKRUPT
000098:
000099:    4062     4060               UPRPTBB            =        KEYRPTBB
000100:
000101:    4062     0340                                  EBANK=   DNTMBUFF
000102:    4062           12100        DWNRPTBB           BBCON    DODOWNTM
000103:
000104:    4063  E7,1453                                  EBANK=   TTOGO
000105:    4063           52107        RDRPTBB            BBCON    RADAREAD
000106:
000107:    4064  E6,1414                                  EBANK=   M11
000108:    4064           14106        T4RPTBB            BBCON    T4RUPT
000109:
000110:    4065  E7,1647                                  EBANK=   ELVIRA
000111:    4065           46107        RUPT10BB           BBCON    PITFALL

End of include-file INTERRUPT_LEAD_INS.agc.  Parent file is MAIN.agc


